{
  "_format": "hh-sol-artifact-1",
  "contractName": "L2InitialLiquidityVault",
  "sourceName": "contracts/L2/vaults/L2InitialLiquidityVault.sol",
  "abi": [
    {
      "anonymous": false,
      "inputs": [
        {
          "indexed": false,
          "internalType": "address",
          "name": "l2Token",
          "type": "address"
        },
        {
          "indexed": false,
          "internalType": "address",
          "name": "to",
          "type": "address"
        },
        {
          "indexed": false,
          "internalType": "uint256",
          "name": "amount",
          "type": "uint256"
        }
      ],
      "name": "Claimed",
      "type": "event"
    },
    {
      "anonymous": false,
      "inputs": [
        {
          "indexed": true,
          "internalType": "uint256",
          "name": "tokenId",
          "type": "uint256"
        },
        {
          "indexed": false,
          "internalType": "uint128",
          "name": "liquidity",
          "type": "uint128"
        },
        {
          "indexed": false,
          "internalType": "uint256",
          "name": "amount0",
          "type": "uint256"
        },
        {
          "indexed": false,
          "internalType": "uint256",
          "name": "amount1",
          "type": "uint256"
        }
      ],
      "name": "IncreasedLiquidityInVault",
      "type": "event"
    },
    {
      "anonymous": false,
      "inputs": [
        {
          "indexed": false,
          "internalType": "address",
          "name": "l2Token",
          "type": "address"
        },
        {
          "indexed": false,
          "internalType": "address",
          "name": "pool",
          "type": "address"
        },
        {
          "indexed": false,
          "internalType": "uint256",
          "name": "tokenId",
          "type": "uint256"
        },
        {
          "indexed": false,
          "internalType": "uint128",
          "name": "liquidity",
          "type": "uint128"
        },
        {
          "indexed": false,
          "internalType": "uint256",
          "name": "amount0",
          "type": "uint256"
        },
        {
          "indexed": false,
          "internalType": "uint256",
          "name": "amount1",
          "type": "uint256"
        }
      ],
      "name": "InitialMintedInVault",
      "type": "event"
    },
    {
      "anonymous": false,
      "inputs": [
        {
          "indexed": false,
          "internalType": "address",
          "name": "l2Token",
          "type": "address"
        },
        {
          "indexed": false,
          "internalType": "uint256",
          "name": "totalAllocatedAmount",
          "type": "uint256"
        },
        {
          "indexed": false,
          "internalType": "uint256",
          "name": "initialTosPrice",
          "type": "uint256"
        },
        {
          "indexed": false,
          "internalType": "uint256",
          "name": "initialTokenPrice",
          "type": "uint256"
        },
        {
          "indexed": false,
          "internalType": "uint256",
          "name": "startTime",
          "type": "uint256"
        },
        {
          "indexed": false,
          "internalType": "uint160",
          "name": "initSqrtPriceX96",
          "type": "uint160"
        },
        {
          "indexed": false,
          "internalType": "uint24",
          "name": "fee",
          "type": "uint24"
        }
      ],
      "name": "InitializedInitialLiquidityVault",
      "type": "event"
    },
    {
      "anonymous": false,
      "inputs": [
        {
          "indexed": true,
          "internalType": "bytes32",
          "name": "role",
          "type": "bytes32"
        },
        {
          "indexed": true,
          "internalType": "bytes32",
          "name": "previousAdminRole",
          "type": "bytes32"
        },
        {
          "indexed": true,
          "internalType": "bytes32",
          "name": "newAdminRole",
          "type": "bytes32"
        }
      ],
      "name": "RoleAdminChanged",
      "type": "event"
    },
    {
      "anonymous": false,
      "inputs": [
        {
          "indexed": true,
          "internalType": "bytes32",
          "name": "role",
          "type": "bytes32"
        },
        {
          "indexed": true,
          "internalType": "address",
          "name": "account",
          "type": "address"
        },
        {
          "indexed": true,
          "internalType": "address",
          "name": "sender",
          "type": "address"
        }
      ],
      "name": "RoleGranted",
      "type": "event"
    },
    {
      "anonymous": false,
      "inputs": [
        {
          "indexed": true,
          "internalType": "bytes32",
          "name": "role",
          "type": "bytes32"
        },
        {
          "indexed": true,
          "internalType": "address",
          "name": "account",
          "type": "address"
        },
        {
          "indexed": true,
          "internalType": "address",
          "name": "sender",
          "type": "address"
        }
      ],
      "name": "RoleRevoked",
      "type": "event"
    },
    {
      "anonymous": false,
      "inputs": [
        {
          "indexed": false,
          "internalType": "address",
          "name": "l2Token",
          "type": "address"
        },
        {
          "indexed": false,
          "internalType": "address",
          "name": "pool",
          "type": "address"
        }
      ],
      "name": "SetCreatedPool",
      "type": "event"
    },
    {
      "anonymous": false,
      "inputs": [
        {
          "indexed": false,
          "internalType": "address",
          "name": "newInitializer",
          "type": "address"
        }
      ],
      "name": "SetInitializer",
      "type": "event"
    },
    {
      "anonymous": false,
      "inputs": [
        {
          "indexed": false,
          "internalType": "address",
          "name": "l2Token",
          "type": "address"
        },
        {
          "indexed": false,
          "internalType": "address",
          "name": "pool",
          "type": "address"
        },
        {
          "indexed": false,
          "internalType": "uint160",
          "name": "inSqrtPriceX96",
          "type": "uint160"
        }
      ],
      "name": "SetPoolInitialized",
      "type": "event"
    },
    {
      "anonymous": false,
      "inputs": [
        {
          "indexed": false,
          "internalType": "address",
          "name": "l2Token",
          "type": "address"
        },
        {
          "indexed": false,
          "internalType": "uint256",
          "name": "startTime",
          "type": "uint256"
        }
      ],
      "name": "SetStartTime",
      "type": "event"
    },
    {
      "anonymous": false,
      "inputs": [
        {
          "indexed": false,
          "internalType": "address",
          "name": "_factory",
          "type": "address"
        },
        {
          "indexed": false,
          "internalType": "address",
          "name": "_npm",
          "type": "address"
        },
        {
          "indexed": false,
          "internalType": "address",
          "name": "_ton",
          "type": "address"
        },
        {
          "indexed": false,
          "internalType": "address",
          "name": "_tos",
          "type": "address"
        }
      ],
      "name": "SetUniswapInfo",
      "type": "event"
    },
    {
      "anonymous": false,
      "inputs": [
        {
          "indexed": false,
          "internalType": "address",
          "name": "l2Token",
          "type": "address"
        },
        {
          "indexed": false,
          "internalType": "address",
          "name": "newAdmin",
          "type": "address"
        }
      ],
      "name": "SetVaultAdmin",
      "type": "event"
    },
    {
      "inputs": [],
      "name": "ADMIN_ROLE",
      "outputs": [
        {
          "internalType": "bytes32",
          "name": "",
          "type": "bytes32"
        }
      ],
      "stateMutability": "view",
      "type": "function"
    },
    {
      "inputs": [],
      "name": "DEFAULT_ADMIN_ROLE",
      "outputs": [
        {
          "internalType": "bytes32",
          "name": "",
          "type": "bytes32"
        }
      ],
      "stateMutability": "view",
      "type": "function"
    },
    {
      "inputs": [],
      "name": "POLICY_ROLE",
      "outputs": [
        {
          "internalType": "bytes32",
          "name": "",
          "type": "bytes32"
        }
      ],
      "stateMutability": "view",
      "type": "function"
    },
    {
      "inputs": [],
      "name": "TWAP_PERIOD",
      "outputs": [
        {
          "internalType": "uint32",
          "name": "",
          "type": "uint32"
        }
      ],
      "stateMutability": "view",
      "type": "function"
    },
    {
      "inputs": [
        {
          "internalType": "int24",
          "name": "_tick",
          "type": "int24"
        },
        {
          "internalType": "int24",
          "name": "_tickSpacings",
          "type": "int24"
        }
      ],
      "name": "acceptMaxTick",
      "outputs": [
        {
          "internalType": "int24",
          "name": "",
          "type": "int24"
        }
      ],
      "stateMutability": "view",
      "type": "function"
    },
    {
      "inputs": [
        {
          "internalType": "int24",
          "name": "_tick",
          "type": "int24"
        },
        {
          "internalType": "int24",
          "name": "_tickSpacings",
          "type": "int24"
        }
      ],
      "name": "acceptMinTick",
      "outputs": [
        {
          "internalType": "int24",
          "name": "",
          "type": "int24"
        }
      ],
      "stateMutability": "view",
      "type": "function"
    },
    {
      "inputs": [],
      "name": "acceptSlippagePrice",
      "outputs": [
        {
          "internalType": "int24",
          "name": "",
          "type": "int24"
        }
      ],
      "stateMutability": "view",
      "type": "function"
    },
    {
      "inputs": [],
      "name": "acceptTickChangeInterval",
      "outputs": [
        {
          "internalType": "int24",
          "name": "",
          "type": "int24"
        }
      ],
      "stateMutability": "view",
      "type": "function"
    },
    {
      "inputs": [
        {
          "internalType": "address",
          "name": "account",
          "type": "address"
        }
      ],
      "name": "addAdmin",
      "outputs": [],
      "stateMutability": "nonpayable",
      "type": "function"
    },
    {
      "inputs": [
        {
          "internalType": "address",
          "name": "",
          "type": "address"
        }
      ],
      "name": "aliveImplementation",
      "outputs": [
        {
          "internalType": "bool",
          "name": "",
          "type": "bool"
        }
      ],
      "stateMutability": "view",
      "type": "function"
    },
    {
      "inputs": [
        {
          "internalType": "int24",
          "name": "tickSpacings",
          "type": "int24"
        }
      ],
      "name": "getMaxTick",
      "outputs": [
        {
          "internalType": "int24",
          "name": "",
          "type": "int24"
        }
      ],
      "stateMutability": "pure",
      "type": "function"
    },
    {
      "inputs": [
        {
          "internalType": "int24",
          "name": "tickSpacings",
          "type": "int24"
        }
      ],
      "name": "getMiniTick",
      "outputs": [
        {
          "internalType": "int24",
          "name": "",
          "type": "int24"
        }
      ],
      "stateMutability": "pure",
      "type": "function"
    },
    {
      "inputs": [
        {
          "internalType": "int24",
          "name": "tick",
          "type": "int24"
        },
        {
          "internalType": "uint128",
          "name": "amountIn",
          "type": "uint128"
        },
        {
          "internalType": "address",
          "name": "baseToken",
          "type": "address"
        },
        {
          "internalType": "address",
          "name": "quoteToken",
          "type": "address"
        }
      ],
      "name": "getQuoteAtTick",
      "outputs": [
        {
          "internalType": "uint256",
          "name": "amountOut",
          "type": "uint256"
        }
      ],
      "stateMutability": "pure",
      "type": "function"
    },
    {
      "inputs": [
        {
          "internalType": "bytes32",
          "name": "role",
          "type": "bytes32"
        }
      ],
      "name": "getRoleAdmin",
      "outputs": [
        {
          "internalType": "bytes32",
          "name": "",
          "type": "bytes32"
        }
      ],
      "stateMutability": "view",
      "type": "function"
    },
    {
      "inputs": [
        {
          "internalType": "uint24",
          "name": "_fee",
          "type": "uint24"
        }
      ],
      "name": "getTickSpacing",
      "outputs": [
        {
          "internalType": "int24",
          "name": "tickSpacings",
          "type": "int24"
        }
      ],
      "stateMutability": "pure",
      "type": "function"
    },
    {
      "inputs": [
        {
          "internalType": "bytes32",
          "name": "role",
          "type": "bytes32"
        },
        {
          "internalType": "address",
          "name": "account",
          "type": "address"
        }
      ],
      "name": "grantRole",
      "outputs": [],
      "stateMutability": "nonpayable",
      "type": "function"
    },
    {
      "inputs": [
        {
          "internalType": "bytes32",
          "name": "role",
          "type": "bytes32"
        },
        {
          "internalType": "address",
          "name": "account",
          "type": "address"
        }
      ],
      "name": "hasRole",
      "outputs": [
        {
          "internalType": "bool",
          "name": "",
          "type": "bool"
        }
      ],
      "stateMutability": "view",
      "type": "function"
    },
    {
      "inputs": [
        {
          "internalType": "address",
          "name": "l2Token",
          "type": "address"
        },
        {
          "internalType": "uint256",
          "name": "totalAllocatedAmount",
          "type": "uint256"
        },
        {
          "internalType": "uint256",
          "name": "tosPrice",
          "type": "uint256"
        },
        {
          "internalType": "uint256",
          "name": "tokenPrice",
          "type": "uint256"
        },
        {
          "internalType": "uint160",
          "name": "initSqrtPrice",
          "type": "uint160"
        },
        {
          "internalType": "uint256",
          "name": "startTime",
          "type": "uint256"
        },
        {
          "internalType": "uint24",
          "name": "fee",
          "type": "uint24"
        }
      ],
      "name": "initialize",
      "outputs": [],
      "stateMutability": "nonpayable",
      "type": "function"
    },
    {
      "inputs": [],
      "name": "initializer",
      "outputs": [
        {
          "internalType": "address",
          "name": "",
          "type": "address"
        }
      ],
      "stateMutability": "view",
      "type": "function"
    },
    {
      "inputs": [
        {
          "internalType": "address",
          "name": "account",
          "type": "address"
        }
      ],
      "name": "isAdmin",
      "outputs": [
        {
          "internalType": "bool",
          "name": "",
          "type": "bool"
        }
      ],
      "stateMutability": "view",
      "type": "function"
    },
    {
      "inputs": [],
      "name": "l2ProjectManager",
      "outputs": [
        {
          "internalType": "address",
          "name": "",
          "type": "address"
        }
      ],
      "stateMutability": "view",
      "type": "function"
    },
    {
      "inputs": [
        {
          "internalType": "address",
          "name": "l2Token",
          "type": "address"
        },
        {
          "internalType": "uint256",
          "name": "tosAmount",
          "type": "uint256"
        }
      ],
      "name": "mint",
      "outputs": [],
      "stateMutability": "nonpayable",
      "type": "function"
    },
    {
      "inputs": [],
      "name": "nonfungiblePositionManager",
      "outputs": [
        {
          "internalType": "address",
          "name": "",
          "type": "address"
        }
      ],
      "stateMutability": "view",
      "type": "function"
    },
    {
      "inputs": [],
      "name": "pauseProxy",
      "outputs": [
        {
          "internalType": "bool",
          "name": "",
          "type": "bool"
        }
      ],
      "stateMutability": "view",
      "type": "function"
    },
    {
      "inputs": [
        {
          "internalType": "address",
          "name": "",
          "type": "address"
        }
      ],
      "name": "poolInfo",
      "outputs": [
        {
          "internalType": "address",
          "name": "pool",
          "type": "address"
        },
        {
          "internalType": "uint256",
          "name": "totalAllocatedAmount",
          "type": "uint256"
        },
        {
          "internalType": "uint256",
          "name": "initialTosPrice",
          "type": "uint256"
        },
        {
          "internalType": "uint256",
          "name": "initialTokenPrice",
          "type": "uint256"
        },
        {
          "internalType": "uint256",
          "name": "lpToken",
          "type": "uint256"
        },
        {
          "internalType": "uint256",
          "name": "startTime",
          "type": "uint256"
        },
        {
          "internalType": "uint160",
          "name": "initSqrtPriceX96",
          "type": "uint160"
        },
        {
          "internalType": "uint24",
          "name": "fee",
          "type": "uint24"
        },
        {
          "internalType": "bool",
          "name": "boolReadyToCreatePool",
          "type": "bool"
        }
      ],
      "stateMutability": "view",
      "type": "function"
    },
    {
      "inputs": [
        {
          "internalType": "uint256",
          "name": "",
          "type": "uint256"
        }
      ],
      "name": "proxyImplementation",
      "outputs": [
        {
          "internalType": "address",
          "name": "",
          "type": "address"
        }
      ],
      "stateMutability": "view",
      "type": "function"
    },
    {
      "inputs": [
        {
          "internalType": "address",
          "name": "account",
          "type": "address"
        }
      ],
      "name": "removeAdmin",
      "outputs": [],
      "stateMutability": "nonpayable",
      "type": "function"
    },
    {
      "inputs": [
        {
          "internalType": "bytes32",
          "name": "role",
          "type": "bytes32"
        },
        {
          "internalType": "address",
          "name": "account",
          "type": "address"
        }
      ],
      "name": "renounceRole",
      "outputs": [],
      "stateMutability": "nonpayable",
      "type": "function"
    },
    {
      "inputs": [
        {
          "internalType": "bytes32",
          "name": "role",
          "type": "bytes32"
        },
        {
          "internalType": "address",
          "name": "account",
          "type": "address"
        }
      ],
      "name": "revokeRole",
      "outputs": [],
      "stateMutability": "nonpayable",
      "type": "function"
    },
    {
      "inputs": [
        {
          "internalType": "bytes4",
          "name": "",
          "type": "bytes4"
        }
      ],
      "name": "selectorImplementation",
      "outputs": [
        {
          "internalType": "address",
          "name": "",
          "type": "address"
        }
      ],
      "stateMutability": "view",
      "type": "function"
    },
    {
      "inputs": [
        {
          "internalType": "address",
          "name": "l2Token",
          "type": "address"
        }
      ],
      "name": "setCreatePool",
      "outputs": [],
      "stateMutability": "nonpayable",
      "type": "function"
    },
    {
      "inputs": [
        {
          "internalType": "address",
          "name": "l2Token",
          "type": "address"
        },
        {
          "internalType": "uint256",
          "name": "_startTime",
          "type": "uint256"
        }
      ],
      "name": "setStartTime",
      "outputs": [],
      "stateMutability": "nonpayable",
      "type": "function"
    },
    {
      "inputs": [
        {
          "internalType": "address",
          "name": "_poolfactory",
          "type": "address"
        },
        {
          "internalType": "address",
          "name": "_npm",
          "type": "address"
        },
        {
          "internalType": "address",
          "name": "_ton",
          "type": "address"
        },
        {
          "internalType": "address",
          "name": "_tos",
          "type": "address"
        }
      ],
      "name": "setUniswapInfo",
      "outputs": [],
      "stateMutability": "nonpayable",
      "type": "function"
    },
    {
      "inputs": [
        {
          "internalType": "bytes4",
          "name": "interfaceId",
          "type": "bytes4"
        }
      ],
      "name": "supportsInterface",
      "outputs": [
        {
          "internalType": "bool",
          "name": "",
          "type": "bool"
        }
      ],
      "stateMutability": "view",
      "type": "function"
    },
    {
      "inputs": [],
      "name": "tickIntervalMinimum",
      "outputs": [
        {
          "internalType": "int24",
          "name": "",
          "type": "int24"
        }
      ],
      "stateMutability": "view",
      "type": "function"
    },
    {
      "inputs": [],
      "name": "tickSpacings",
      "outputs": [
        {
          "internalType": "int24",
          "name": "",
          "type": "int24"
        }
      ],
      "stateMutability": "view",
      "type": "function"
    },
    {
      "inputs": [],
      "name": "ton",
      "outputs": [
        {
          "internalType": "address",
          "name": "",
          "type": "address"
        }
      ],
      "stateMutability": "view",
      "type": "function"
    },
    {
      "inputs": [],
      "name": "tos",
      "outputs": [
        {
          "internalType": "address",
          "name": "",
          "type": "address"
        }
      ],
      "stateMutability": "view",
      "type": "function"
    },
    {
      "inputs": [
        {
          "internalType": "address",
          "name": "newAdmin",
          "type": "address"
        }
      ],
      "name": "transferAdmin",
      "outputs": [],
      "stateMutability": "nonpayable",
      "type": "function"
    },
    {
      "inputs": [],
      "name": "uniswapV3Factory",
      "outputs": [
        {
          "internalType": "address",
          "name": "",
          "type": "address"
        }
      ],
      "stateMutability": "view",
      "type": "function"
    },
    {
      "inputs": [
        {
          "internalType": "address",
          "name": "",
          "type": "address"
        }
      ],
      "name": "vaultAdminOfToken",
      "outputs": [
        {
          "internalType": "address",
          "name": "",
          "type": "address"
        }
      ],
      "stateMutability": "view",
      "type": "function"
    }
  ],
  "bytecode": "0x60806040526005805460ff1916600117905534801561001d57600080fd5b5061430b8061002d6000396000f3fe608060405234801561001057600080fd5b50600436106102d35760003560e01c806370480275116101865780639ce110d7116100e3578063b911135f11610097578063d547741f11610071578063d547741f1461076a578063d684395d1461077d578063ea8668151461079057600080fd5b8063b911135f1461071b578063bef6dc8b14610744578063cc48b9471461075757600080fd5b8063a22f84f0116100c8578063a22f84f0146106e2578063aec13758146106f5578063b44a27221461070857600080fd5b80639ce110d7146106c7578063a217fddf146106da57600080fd5b8063826bd4bf1161013a57806391d148541161011f57806391d14854146105b15780639a7b5f11146105ea5780639cbbbe86146106b357600080fd5b8063826bd4bf1461058b57806389f395de1461059e57600080fd5b806375b238fc1161016b57806375b238fc1461050f5780637ca25184146105365780637fc46ba81461056257600080fd5b806370480275146104e957806375829def146104fc57600080fd5b806337c1cfa51161023457806352351e85116101e8578063550d01a3116101cd578063550d01a3146104a65780635b549182146104c957806363a8fd89146104dc57600080fd5b806352351e851461047a578063526aef941461049257600080fd5b806343c57a271161021957806343c57a271461041257806345a411481461042557806350d2a2761461043957600080fd5b806337c1cfa5146103ec57806340c10f19146103ff57600080fd5b8063248a9ca31161028b5780632f2ff15d116102705780632f2ff15d146103b957806335d20f8a146103cc57806336568abe146103d957600080fd5b8063248a9ca31461038357806324d7806c146103a657600080fd5b80631785f53c116102bc5780631785f53c146103265780631f83cd0c1461033b578063229852461461034e57600080fd5b806301ffc9a7146102d85780630f36edbf14610300575b600080fd5b6102eb6102e636600461392d565b6107a3565b60405190151581526020015b60405180910390f35b61031361030e366004613966565b6107da565b60405160029190910b81526020016102f7565b6103396103343660046139b4565b61082e565b005b6103396103493660046139e4565b6108c0565b6103757ffb5864e8ff833c3cb2d2d08505e82ff02a43554c74a35d4f5a64e8526127831181565b6040519081526020016102f7565b610375610391366004613a52565b60009081526004602052604090206001015490565b6102eb6103b43660046139b4565b610c70565b6103396103c7366004613a6b565b610cb0565b600c546103139060020b81565b6103396103e7366004613a6b565b610cda565b6103396103fa3660046139b4565b610d66565b61033961040d366004613a90565b61138e565b610375610420366004613ad1565b611b05565b600b5461031390600160d81b900460020b81565b61046261044736600461392d565b6003602052600090815260409020546001600160a01b031681565b6040516001600160a01b0390911681526020016102f7565b6005546104629061010090046001600160a01b031681565b600b5461031390600160c01b900460020b81565b6102eb6104b43660046139b4565b60026020526000908152604090205460ff1681565b600a54610462906001600160a01b031681565b6000546102eb9060ff1681565b6103396104f73660046139b4565b611b1c565b61033961050a3660046139b4565b611ba6565b6103757fdf8b4c520ffe197c5343c6f5aec59570151ef9a492f2c624fd45ddde6135ec4281565b600b5461054d90600160a01b900463ffffffff1681565b60405163ffffffff90911681526020016102f7565b6104626105703660046139b4565b6007602052600090815260409020546001600160a01b031681565b610313610599366004613b2d565b611d08565b600954610462906001600160a01b031681565b6102eb6105bf366004613a6b565b60009182526004602090815260408084206001600160a01b0393909316845291905290205460ff1690565b6106596105f83660046139b4565b600d6020526000908152604090208054600182015460028301546003840154600485015460058601546006909601546001600160a01b0395861696949593949293919291811690600160a01b810462ffffff1690600160b81b900460ff1689565b604080516001600160a01b039a8b16815260208101999099528801969096526060870194909452608086019290925260a085015290931660c083015262ffffff90921660e0820152901515610100820152610120016102f7565b600c54610313906301000000900460020b81565b600654610462906001600160a01b031681565b610375600081565b6103136106f0366004613b2d565b611d23565b610313610703366004613966565b611d3e565b600b54610462906001600160a01b031681565b610462610729366004613a52565b6001602052600090815260409020546001600160a01b031681565b610339610752366004613b4a565b611d92565b600854610462906001600160a01b031681565b610339610778366004613a6b565b612063565b61033961078b366004613a90565b612088565b61031361079e366004613b7b565b61222a565b60006001600160e01b03198216637965db0b60e01b14806107d457506301ffc9a760e01b6001600160e01b03198316145b92915050565b6000806107e683611d08565b600b5490915060009061080390600160d81b900460020b85613bac565b61080d9086613bd3565b90508060020b8260020b12156108265791506107d49050565b509392505050565b61083733610c70565b6108935760405162461bcd60e51b815260206004820152602260248201527f41636365737369626c653a2043616c6c6572206973206e6f7420616e2061646d60448201526134b760f11b60648201526084015b60405180910390fd5b6108bd7fdf8b4c520ffe197c5343c6f5aec59570151ef9a492f2c624fd45ddde6135ec4282610cda565b50565b6001600160a01b038088166000908152600760205260409020548891161580159061090457506001600160a01b038181166000908152600760205260409020541633145b61095e5760405162461bcd60e51b815260206004820152602560248201527f63616c6c6572206973206e6f742061207661756c7441646d696e204f66206c326044820152642a37b5b2b760d91b606482015260840161088a565b600a546001600160a01b0316158015906109825750600b546001600160a01b031615155b801561099857506009546001600160a01b031615155b6109e45760405162461bcd60e51b815260206004820152601860248201527f5661756c743a206265666f726520736574556e69737761700000000000000000604482015260640161088a565b6001600160a01b0388166000908152600d602052604090206001015415610a4d5760405162461bcd60e51b815260206004820152601360248201527f616c726561647920696e697469616c697a656400000000000000000000000000604482015260640161088a565b8615801590610a5b57508515155b8015610a6657508415155b8015610a7a57506001600160a01b03841615155b8015610a8a575062ffffff821615155b610b225760405162461bcd60e51b815260206004820152605460248201527f7a65726f20746f74616c416c6c6f6361746564416d6f756e74206f7220746f7360448201527f5072696365206f7220746f6b656e5072696365206f7220696e6974537172745060648201527f72696365583936206f7220737461727454696d65000000000000000000000000608482015260a40161088a565b428311610b715760405162461bcd60e51b815260206004820152601460248201527f537461727454696d652068617320706173736564000000000000000000000000604482015260640161088a565b600554610b91906001600160a01b038a811691610100900416308a612284565b6001600160a01b038881166000818152600d6020908152604091829020600181018c9055600281018b9055600381018a9055600681018054600583018a905562ffffff8916600160a01b81027fffffffffffffffffff0000000000000000000000000000000000000000000000909216978c169788179190911790915583519485529184018c90528383018b9052606084018a90526080840188905260a084019490945260c0830152517f9f654cf8aac1e1b8d2153612c219a661009c6885e0d87d5f38d390afc5f3af389181900360e00190a1505050505050505050565b6001600160a01b03811660009081527f2fb794d17134dfdec181ddbac1babb5ab1eb140204ef4d982f294e7fc8b69022602052604081205460ff166107d4565b600082815260046020526040902060010154610ccb816123bd565b610cd583836123c7565b505050565b6001600160a01b0381163314610d585760405162461bcd60e51b815260206004820152602f60248201527f416363657373436f6e74726f6c3a2063616e206f6e6c792072656e6f756e636560448201527f20726f6c657320666f722073656c660000000000000000000000000000000000606482015260840161088a565b610d628282612469565b5050565b6001600160a01b0381166000908152600d60205260409020600601548190600160b81b900460ff1615610de65760405162461bcd60e51b815260206004820152602260248201527f5661756c743a20616c726561647920726561647920746f20437265617465506f6044820152611bdb60f21b606482015260840161088a565b60055460ff16610e215760405162461bcd60e51b815260040161088a906020808252600490820152636c6f636b60e01b604082015260600190565b6005805460ff191681556001600160a01b0383166000908152600d602052604090209081015415801590610e585750428160050154105b610ea45760405162461bcd60e51b815260206004820152601960248201527f537461727454696d6520686173206e6f74207061737365642e00000000000000604482015260640161088a565b80546001600160a01b031615610efc5760405162461bcd60e51b815260206004820152600f60248201527f616c726561647920637265617465640000000000000000000000000000000000604482015260640161088a565b60068101546001600160a01b0316610f565760405162461bcd60e51b815260206004820152601560248201527f7a65726f20696e69745371727450726963655839360000000000000000000000604482015260640161088a565b600a546009546006830154604051630b4c774160e11b81526001600160a01b0392831660048201528683166024820152600160a01b90910462ffffff1660448201526000929190911690631698ee8290606401602060405180830381865afa158015610fc6573d6000803e3d6000fd5b505050506040513d601f19601f82011682018060405250810190610fea9190613bf8565b90506001600160a01b0381166110eb57600a54600954600684015460405163a167129560e01b81526001600160a01b0392831660048201528783166024820152600160a01b90910462ffffff166044820152600092919091169063a1671295906064016020604051808303816000875af115801561106c573d6000803e3d6000fd5b505050506040513d601f19601f820116820180604052508101906110909190613bf8565b90506001600160a01b0381166110e85760405162461bcd60e51b815260206004820152600f60248201527f637265617465506f6f6c206661696c0000000000000000000000000000000000604482015260640161088a565b90505b81546001600160a01b03821673ffffffffffffffffffffffffffffffffffffffff19909116811783556006830180547fffffffffffffffff00ffffffffffffffffffffffffffffffffffffffffffffff16600160b81b17905560408051633850c7bd60e01b8152905160009291633850c7bd9160048083019260e09291908290030181865afa158015611182573d6000803e3d6000fd5b505050506040513d601f19601f820116820180604052508101906111a69190613c37565b5050505050509050806001600160a01b031660000361127157600683015460405163f637731d60e01b81526001600160a01b0391821660048201529083169063f637731d90602401600060405180830381600087803b15801561120857600080fd5b505af115801561121c573d6000803e3d6000fd5b505050506006830154604080516001600160a01b038881168252858116602083015290921682820152517fca9098798fa03760d7709c3305b3b049d2c71fa6e891a83a36fe90a15eeab7809181900360600190a15b604080516001600160a01b038088168252841660208201527ffb9092f7bd4a3c6c55439411fb56fe4d44878125340b674c6ab5b5dda38d0b1c910160405180910390a16000826001600160a01b0316633850c7bd6040518163ffffffff1660e01b815260040160e060405180830381865afa1580156112f4573d6000803e3d6000fd5b505050506040513d601f19601f820116820180604052508101906113189190613c37565b5050505050509050806001600160a01b03166000036113795760405162461bcd60e51b815260206004820152601260248201527f7a65726f205f7371727450726963655839360000000000000000000000000000604482015260640161088a565b50506005805460ff1916600117905550505050565b6001600160a01b0382166000908152600d60205260409020600601548290600160b81b900460ff166114025760405162461bcd60e51b815260206004820152601e60248201527f5661756c743a206e6f7420726561647920746f20437265617465506f6f6c0000604482015260640161088a565b81806000036114385760405162461bcd60e51b81526020600482015260026024820152615a3160f01b604482015260640161088a565b60055460ff166114735760405162461bcd60e51b815260040161088a906020808252600490820152636c6f636b60e01b604082015260600190565b6005805460ff191690556009546040516370a0823160e01b81523060048201526000916001600160a01b0316906370a0823190602401602060405180830381865afa1580156114c6573d6000803e3d6000fd5b505050506040513d601f19601f820116820180604052508101906114ea9190613cbc565b6040516370a0823160e01b81523060048201529091506000906001600160a01b038716906370a0823190602401602060405180830381865afa158015611534573d6000803e3d6000fd5b505050506040513d601f19601f820116820180604052508101906115589190613cbc565b9050670de0b6b3a7640000821180156115785750670de0b6b3a764000081115b6115c45760405162461bcd60e51b815260206004820152601760248201527f62616c616e636520697320696e73756666696369656e74000000000000000000604482015260640161088a565b818511156116145760405162461bcd60e51b815260206004820152601960248201527f746f42616c616e636520697320696e73756666696369656e7400000000000000604482015260640161088a565b600b54600160d81b900460020b60000361165757600b80547fffff000000ffffffffffffffffffffffffffffffffffffffffffffffffffffff16600160db1b1790555b600c5460020b60000361167457600c805462ffffff1916600a1790555b600b54600160a01b900463ffffffff166000036116cb57600b80547fffffffffffffffff00000000ffffffffffffffffffffffffffffffffffffffff16747800000000000000000000000000000000000000001790555b6001600160a01b038681166000908152600d6020908152604080832081516101208101835281548616808252600183015494820194909452600282015481840152600382015460608201526004808301546080830152600583015460a083015260069092015495861660c0820152600160a01b860462ffffff1660e080830191909152600160b81b90960460ff1615156101008201528251633850c7bd60e01b815292519095859493633850c7bd9381810193918290030181865afa158015611798573d6000803e3d6000fd5b505050506040513d601f19601f820116820180604052508101906117bc9190613c37565b5050505050915091506000826001600160a01b03161161181e5760405162461bcd60e51b815260206004820152601760248201527f706f6f6c206973206e6f7420696e697469616c697a6564000000000000000000604482015260640161088a565b8251600b5460009161183c91600160a01b900463ffffffff166124ec565b90508160020b6118538261030e8760e0015161222a565b60020b131580156118795750611870816107038660e0015161222a565b60020b8260020b125b6118d15760405162461bcd60e51b8152602060048201526024808201527f49742773206e6f7420616c6c6f776564206368616e676564207469636b2072616044820152633733b29760e11b606482015260840161088a565b50600080600085600001516001600160a01b0316630dfe16816040518163ffffffff1660e01b8152600401602060405180830381865afa158015611919573d6000803e3d6000fd5b505050506040513d601f19601f8201168201806040525081019061193d9190613bf8565b6009549091506001600160a01b038083169116146119d45760095461196f9085908d906001600160a01b03168f611b05565b92508a9150868311156119c45760405162461bcd60e51b815260206004820152601c60248201527f746f6b656e42616c616e636520697320696e73756666696369656e7400000000604482015260640161088a565b6119cf8c83856126ab565b611a4e565b6009548b93506119f190859085906001600160a01b03168f611b05565b915086821115611a435760405162461bcd60e51b815260206004820152601c60248201527f746f6b656e42616c616e636520697320696e73756666696369656e7400000000604482015260640161088a565b611a4e8c84846126ab565b600c54600090606490611a649060020b82613cd5565b611a6e9086613ce8565b611a789190613d15565b600c54909150600090606490611a919060020b82613cd5565b611a9b9086613ce8565b611aa59190613d15565b6001600160a01b038f166000908152600d602052604081206004015491925003611adb57611ad68e86868585612b8d565b611ae8565b611ae88e86868585612f71565b50506005805460ff19166001179055505050505050505050505050565b6000611b1385858585613106565b95945050505050565b611b2533610c70565b611b7c5760405162461bcd60e51b815260206004820152602260248201527f41636365737369626c653a2043616c6c6572206973206e6f7420616e2061646d60448201526134b760f11b606482015260840161088a565b6108bd7fdf8b4c520ffe197c5343c6f5aec59570151ef9a492f2c624fd45ddde6135ec4282610cb0565b611baf33610c70565b611c065760405162461bcd60e51b815260206004820152602260248201527f41636365737369626c653a2043616c6c6572206973206e6f7420616e2061646d60448201526134b760f11b606482015260840161088a565b6001600160a01b038116611c5c5760405162461bcd60e51b815260206004820152601860248201527f41636365737369626c653a207a65726f20616464726573730000000000000000604482015260640161088a565b6001600160a01b0381163303611cb45760405162461bcd60e51b815260206004820152601660248201527f41636365737369626c653a2073616d652061646d696e00000000000000000000604482015260640161088a565b611cde7fdf8b4c520ffe197c5343c6f5aec59570151ef9a492f2c624fd45ddde6135ec4282610cb0565b6108bd7fdf8b4c520ffe197c5343c6f5aec59570151ef9a492f2c624fd45ddde6135ec4233610cda565b600081611d1981620d89e719613d29565b6107d49190613bac565b60008180611d34620d89e719613d63565b611d199190613d29565b600080611d4a83611d23565b600b54909150600090611d6790600160d81b900460020b85613bac565b611d719086613d85565b90508060020b8260020b1215611d89575090506107d4565b91506107d49050565b611d9b33610c70565b611df25760405162461bcd60e51b815260206004820152602260248201527f41636365737369626c653a2043616c6c6572206973206e6f7420616e2061646d60448201526134b760f11b606482015260840161088a565b6001600160a01b03841615801590611e185750600a546001600160a01b03858116911614155b611e645760405162461bcd60e51b815260206004820152601d60248201527f7a65726f206f722073616d6520556e69737761705633466163746f7279000000604482015260640161088a565b6001600160a01b03831615801590611e8a5750600b546001600160a01b03848116911614155b611ed65760405162461bcd60e51b815260206004820152601060248201527f7a65726f206f722073616d65206e706d00000000000000000000000000000000604482015260640161088a565b6001600160a01b03821615801590611efc57506008546001600160a01b03838116911614155b611f485760405162461bcd60e51b815260206004820152601060248201527f7a65726f206f722073616d6520746f6e00000000000000000000000000000000604482015260640161088a565b6001600160a01b03811615801590611f6e57506009546001600160a01b03828116911614155b611fba5760405162461bcd60e51b815260206004820152601060248201527f7a65726f206f722073616d6520746f7300000000000000000000000000000000604482015260640161088a565b600a80546001600160a01b0386811673ffffffffffffffffffffffffffffffffffffffff199283168117909355600b805487831690841681179091556008805487841690851681179091556009805493871693909416831790935560408051948552602085019190915283019190915260608201527f5f5458e04fbfd7e3d6d9563a2da2ea2a5b3a29c1303221569d209c8c673ceacc906080015b60405180910390a150505050565b60008281526004602052604090206001015461207e816123bd565b610cd58383612469565b6001600160a01b03808316600090815260076020526040902054839116158015906120cc57506001600160a01b038181166000908152600760205260409020541633145b6121265760405162461bcd60e51b815260206004820152602560248201527f63616c6c6572206973206e6f742061207661756c7441646d696e204f66206c326044820152642a37b5b2b760d91b606482015260840161088a565b6001600160a01b0383166000908152600d60205260409020600581015442106121915760405162461bcd60e51b815260206004820152601460248201527f537461727454696d652068617320706173736564000000000000000000000000604482015260640161088a565b828160050154036121e45760405162461bcd60e51b815260206004820152600e60248201527f73616d6520537461727454696d65000000000000000000000000000000000000604482015260640161088a565b60058101839055604080516001600160a01b0386168152602081018590527f8da5af0cb50a5743c77f99eeeb6f24c1836f9632035e083c916b2875f6165ce39101612055565b60008162ffffff1660640361224157506002919050565b8162ffffff166101f4036122575750600a919050565b8162ffffff16610bb80361226d5750603c919050565b8162ffffff166127100361227f575060c85b919050565b604080516001600160a01b0385811660248301528481166044830152606480830185905283518084039091018152608490920183526020820180517bffffffffffffffffffffffffffffffffffffffffffffffffffffffff166323b872dd60e01b17905291516000928392908816916122fd9190613dce565b6000604051808303816000865af19150503d806000811461233a576040519150601f19603f3d011682016040523d82523d6000602084013e61233f565b606091505b50915091508180156123695750805115806123695750808060200190518101906123699190613dea565b6123b55760405162461bcd60e51b815260206004820152601460248201527f5452414e534645525f46524f4d5f4641494c4544000000000000000000000000604482015260640161088a565b505050505050565b6108bd8133613214565b60008281526004602090815260408083206001600160a01b038516845290915290205460ff16610d625760008281526004602090815260408083206001600160a01b03851684529091529020805460ff191660011790556124253390565b6001600160a01b0316816001600160a01b0316837f2f8788117e7eff1d82e926ec794901d17c78024a50270940304540a733656f0d60405160405180910390a45050565b60008281526004602090815260408083206001600160a01b038516845290915290205460ff1615610d625760008281526004602090815260408083206001600160a01b0385168085529252808320805460ff1916905551339285917ff6391f5c32d9c69d2a47ea670b442974b53935d1edc7fd64eb21e047a839171b9190a45050565b60008163ffffffff166000036125295760405162461bcd60e51b8152602060048201526002602482015261042560f41b604482015260640161088a565b604080516002808252606082018352600092602083019080368337019050509050828160008151811061255e5761255e613e1b565b602002602001019063ffffffff16908163ffffffff168152505060008160018151811061258d5761258d613e1b565b63ffffffff9092166020928302919091019091015260405163883bdbfd60e01b81526000906001600160a01b0386169063883bdbfd906125d1908590600401613e31565b600060405180830381865afa1580156125ee573d6000803e3d6000fd5b505050506040513d6000823e601f3d908101601f191682016040526126169190810190613f44565b50905060008160008151811061262e5761262e613e1b565b60200260200101518260018151811061264957612649613e1b565b602002602001015161265b9190614010565b905061266b600386900b8261403d565b935060008160060b12801561268f5750612689600386900b82614072565b60060b15155b156126a2578361269e81614094565b9450505b50505092915050565b6009546040516370a0823160e01b815230600482015283916001600160a01b0316906370a0823190602401602060405180830381865afa1580156126f3573d6000803e3d6000fd5b505050506040513d601f19601f820116820180604052508101906127179190613cbc565b10156127655760405162461bcd60e51b815260206004820152601460248201527f746f7320697320696e73756666696369656e742e000000000000000000000000604482015260640161088a565b6040516370a0823160e01b815230600482015281906001600160a01b038516906370a0823190602401602060405180830381865afa1580156127ab573d6000803e3d6000fd5b505050506040513d601f19601f820116820180604052508101906127cf9190613cbc565b101561281d5760405162461bcd60e51b815260206004820152601660248201527f746f6b656e20697320696e73756666696369656e742e00000000000000000000604482015260640161088a565b600954600b54604051636eb1769f60e11b81523060048201526001600160a01b03918216602482015291169063dd62ed3e90604401602060405180830381865afa15801561286f573d6000803e3d6000fd5b505050506040513d601f19601f820116820180604052508101906128939190613cbc565b8211156129d057600954600b54604080516318160ddd60e01b815290516001600160a01b039384169363095ea7b393169184916318160ddd916004808201926020929091908290030181865afa1580156128f1573d6000803e3d6000fd5b505050506040513d601f19601f820116820180604052508101906129159190613cbc565b6040516001600160e01b031960e085901b1681526001600160a01b03909216600483015260248201526044016020604051808303816000875af1158015612960573d6000803e3d6000fd5b505050506040513d601f19601f820116820180604052508101906129849190613dea565b6129d05760405162461bcd60e51b815260206004820152601060248201527f544f5320617070726f7665206661696c00000000000000000000000000000000604482015260640161088a565b600b54604051636eb1769f60e11b81523060048201526001600160a01b0391821660248201529084169063dd62ed3e90604401602060405180830381865afa158015612a20573d6000803e3d6000fd5b505050506040513d601f19601f82011682018060405250810190612a449190613cbc565b811115610cd557826001600160a01b031663095ea7b3600b60009054906101000a90046001600160a01b0316856001600160a01b03166318160ddd6040518163ffffffff1660e01b8152600401602060405180830381865afa158015612aae573d6000803e3d6000fd5b505050506040513d601f19601f82011682018060405250810190612ad29190613cbc565b6040516001600160e01b031960e085901b1681526001600160a01b03909216600483015260248201526044016020604051808303816000875af1158015612b1d573d6000803e3d6000fd5b505050506040513d601f19601f82011682018060405250810190612b419190613dea565b610cd55760405162461bcd60e51b815260206004820152601260248201527f746f6b656e20617070726f7665206661696c0000000000000000000000000000604482015260640161088a565b6001600160a01b0385166000908152600d60205260409020600481015415612bf75760405162461bcd60e51b815260206004820152600e60248201527f616c7265616479206d696e746564000000000000000000000000000000000000604482015260640161088a565b6006810154600090612c1490600160a01b900462ffffff1661222a565b6006830154612c2e90600160a01b900462ffffff1661222a565b612c3c90620d89e719613d29565b612c469190613bac565b90506000612c668360060160149054906101000a900462ffffff1661222a565b6006840154612c8090600160a01b900462ffffff1661222a565b612c8d620d89e719613d63565b612c979190613d29565b612ca19190613bac565b600b546040805161016081018083528754630dfe168160e01b90915291519394506000938493849384936001600160a01b0392831693638831645693919283921690630dfe168190610164808501916020918187030181865afa158015612d0c573d6000803e3d6000fd5b505050506040513d601f19601f82011682018060405250810190612d309190613bf8565b6001600160a01b031681526020018a60000160009054906101000a90046001600160a01b03166001600160a01b031663d21220a76040518163ffffffff1660e01b8152600401602060405180830381865afa158015612d93573d6000803e3d6000fd5b505050506040513d601f19601f82011682018060405250810190612db79190613bf8565b6001600160a01b031681526020018a60060160149054906101000a900462ffffff1662ffffff1681526020018960020b81526020018860020b81526020018e81526020018d81526020018c81526020018b8152602001306001600160a01b03168152602001428152506040518263ffffffff1660e01b8152600401612e3c91906140b7565b6080604051808303816000875af1158015612e5b573d6000803e3d6000fd5b505050506040513d601f19601f82011682018060405250810190612e7f919061417b565b935093509350935060008411612ed75760405162461bcd60e51b815260206004820152600c60248201527f7a65726f20746f6b656e49640000000000000000000000000000000000000000604482015260640161088a565b6004870184905586546040517e80a7e05c1e726da26ef60dc270a12c37b0bc54fc6adbc18d22f991976cf33291612f5b918f916001600160a01b03169088908890889088906001600160a01b03968716815294909516602085015260408401929092526001600160801b03166060830152608082015260a081019190915260c00190565b60405180910390a1505050505050505050505050565b6001600160a01b0385166000908152600d602052604090206004810154612fda5760405162461bcd60e51b815260206004820152601460248201527f4974206973206e6f74206d696e74656420796574000000000000000000000000604482015260640161088a565b600b546040805160c08101825260048481015482526020820189815282840189815260608401898152608085018981524260a08701908152965163219f5d1760e01b815295519486019490945291516024850152516044840152516064830152516084820152905160a4820152600091829182916001600160a01b03169063219f5d179060c4016060604051808303816000875af1158015613080573d6000803e3d6000fd5b505050506040513d601f19601f820116820180604052508101906130a491906141b9565b6004870154604080516001600160801b0386168152602081018590529081018390529396509194509250907e242840c59a1b38c7f01b50c3ba18ebd1a8f5b28cfc8b9fb894c4ea46696ba49060600160405180910390a2505050505050505050565b60008061311286613289565b90506001600160801b036001600160a01b038216116131985760006131406001600160a01b03831680613ce8565b9050836001600160a01b0316856001600160a01b03161061317857613173600160c01b876001600160801b0316836136a9565b613190565b61319081876001600160801b0316600160c01b6136a9565b92505061320b565b60006131b76001600160a01b03831680680100000000000000006136a9565b9050836001600160a01b0316856001600160a01b0316106131ef576131ea600160801b876001600160801b0316836136a9565b613207565b61320781876001600160801b0316600160801b6136a9565b9250505b50949350505050565b60008281526004602090815260408083206001600160a01b038516845290915290205460ff16610d625761324781613772565b613252836020613784565b6040516020016132639291906141f0565b60408051601f198184030181529082905262461bcd60e51b825261088a91600401614271565b60008060008360020b126132a0578260020b6132ad565b8260020b6132ad906142a4565b90506132bc620d89e719613d63565b60020b8111156132f25760405162461bcd60e51b81526020600482015260016024820152601560fa1b604482015260640161088a565b60008160011660000361330957600160801b61331b565b6ffffcb933bd6fad37aa2d162d1a5940015b70ffffffffffffffffffffffffffffffffff169050600282161561335a576080613355826ffff97272373d413259a46990580e213a613ce8565b901c90505b600482161561338457608061337f826ffff2e50f5f656932ef12357cf3c7fdcc613ce8565b901c90505b60088216156133ae5760806133a9826fffe5caca7e10e4e61c3624eaa0941cd0613ce8565b901c90505b60108216156133d85760806133d3826fffcb9843d60f6159c9db58835c926644613ce8565b901c90505b60208216156134025760806133fd826fff973b41fa98c081472e6896dfb254c0613ce8565b901c90505b604082161561342c576080613427826fff2ea16466c96a3843ec78b326b52861613ce8565b901c90505b6080821615613456576080613451826ffe5dee046a99a2a811c461f1969c3053613ce8565b901c90505b61010082161561348157608061347c826ffcbe86c7900a88aedcffc83b479aa3a4613ce8565b901c90505b6102008216156134ac5760806134a7826ff987a7253ac413176f2b074cf7815e54613ce8565b901c90505b6104008216156134d75760806134d2826ff3392b0822b70005940c7a398e4b70f3613ce8565b901c90505b6108008216156135025760806134fd826fe7159475a2c29b7443b29c7fa6e889d9613ce8565b901c90505b61100082161561352d576080613528826fd097f3bdfd2022b8845ad8f792aa5825613ce8565b901c90505b612000821615613558576080613553826fa9f746462d870fdf8a65dc1f90e061e5613ce8565b901c90505b61400082161561358357608061357e826f70d869a156d2a1b890bb3df62baf32f7613ce8565b901c90505b6180008216156135ae5760806135a9826f31be135f97d08fd981231505542fcfa6613ce8565b901c90505b620100008216156135da5760806135d5826f09aa508b5b7a84e1c677de54f3e99bc9613ce8565b901c90505b62020000821615613605576080613600826e5d6af8dedb81196699c329225ee604613ce8565b901c90505b6204000082161561362f57608061362a826d2216e584f5fa1ea926041bedfe98613ce8565b901c90505b62080000821615613657576080613652826b048a170391f7dc42444e8fa2613ce8565b901c90505b60008460020b13156136725761366f81600019613d15565b90505b613681640100000000826142c0565b1561368d576001613690565b60005b6136a19060ff16602083901c6142d4565b949350505050565b60008082116136b757600080fd5b600080600019858709858702925082811083820303915050806000036136e25750829004905061376b565b8084116136ee57600080fd5b60008486880980840393811190920391905060008561370f81600019613cd5565b61371a9060016142d4565b16958690049560026003880281188089028203028089028203028089028203028089028203028089028203028089029091030260008290038290046001019490940294049390931791909102925050505b9392505050565b60606107d46001600160a01b03831660145b60606000613793836002613ce8565b61379e9060026142d4565b67ffffffffffffffff8111156137b6576137b6613e05565b6040519080825280601f01601f1916602001820160405280156137e0576020820181803683370190505b509050600360fc1b816000815181106137fb576137fb613e1b565b60200101906001600160f81b031916908160001a905350600f60fb1b8160018151811061382a5761382a613e1b565b60200101906001600160f81b031916908160001a905350600061384e846002613ce8565b6138599060016142d4565b90505b60018111156138de577f303132333435363738396162636465660000000000000000000000000000000085600f166010811061389a5761389a613e1b565b1a60f81b8282815181106138b0576138b0613e1b565b60200101906001600160f81b031916908160001a90535060049490941c936138d7816142e7565b905061385c565b50831561376b5760405162461bcd60e51b815260206004820181905260248201527f537472696e67733a20686578206c656e67746820696e73756666696369656e74604482015260640161088a565b60006020828403121561393f57600080fd5b81356001600160e01b03198116811461376b57600080fd5b8060020b81146108bd57600080fd5b6000806040838503121561397957600080fd5b823561398481613957565b9150602083013561399481613957565b809150509250929050565b6001600160a01b03811681146108bd57600080fd5b6000602082840312156139c657600080fd5b813561376b8161399f565b803562ffffff8116811461227f57600080fd5b600080600080600080600060e0888a0312156139ff57600080fd5b8735613a0a8161399f565b96506020880135955060408801359450606088013593506080880135613a2f8161399f565b925060a08801359150613a4460c089016139d1565b905092959891949750929550565b600060208284031215613a6457600080fd5b5035919050565b60008060408385031215613a7e57600080fd5b8235915060208301356139948161399f565b60008060408385031215613aa357600080fd5b8235613aae8161399f565b946020939093013593505050565b6001600160801b03811681146108bd57600080fd5b60008060008060808587031215613ae757600080fd5b8435613af281613957565b93506020850135613b0281613abc565b92506040850135613b128161399f565b91506060850135613b228161399f565b939692955090935050565b600060208284031215613b3f57600080fd5b813561376b81613957565b60008060008060808587031215613b6057600080fd5b8435613b6b8161399f565b93506020850135613b028161399f565b600060208284031215613b8d57600080fd5b61376b826139d1565b634e487b7160e01b600052601160045260246000fd5b60008260020b8260020b028060020b9150808214613bcc57613bcc613b96565b5092915050565b600282810b9082900b03627fffff198112627fffff821317156107d4576107d4613b96565b600060208284031215613c0a57600080fd5b815161376b8161399f565b805161ffff8116811461227f57600080fd5b8051801515811461227f57600080fd5b600080600080600080600060e0888a031215613c5257600080fd5b8751613c5d8161399f565b6020890151909750613c6e81613957565b9550613c7c60408901613c15565b9450613c8a60608901613c15565b9350613c9860808901613c15565b925060a088015160ff81168114613cae57600080fd5b9150613a4460c08901613c27565b600060208284031215613cce57600080fd5b5051919050565b818103818111156107d4576107d4613b96565b80820281158282048414176107d4576107d4613b96565b634e487b7160e01b600052601260045260246000fd5b600082613d2457613d24613cff565b500490565b60008160020b8360020b80613d4057613d40613cff565b627fffff19821460001982141615613d5a57613d5a613b96565b90059392505050565b60008160020b627fffff198103613d7c57613d7c613b96565b60000392915050565b600281810b9083900b01627fffff8113627fffff19821217156107d4576107d4613b96565b60005b83811015613dc5578181015183820152602001613dad565b50506000910152565b60008251613de0818460208701613daa565b9190910192915050565b600060208284031215613dfc57600080fd5b61376b82613c27565b634e487b7160e01b600052604160045260246000fd5b634e487b7160e01b600052603260045260246000fd5b6020808252825182820181905260009190848201906040850190845b81811015613e6f57835163ffffffff1683529284019291840191600101613e4d565b50909695505050505050565b604051601f8201601f1916810167ffffffffffffffff81118282101715613ea457613ea4613e05565b604052919050565b600067ffffffffffffffff821115613ec657613ec6613e05565b5060051b60200190565b600082601f830112613ee157600080fd5b81516020613ef6613ef183613eac565b613e7b565b82815260059290921b84018101918181019086841115613f1557600080fd5b8286015b84811015613f39578051613f2c8161399f565b8352918301918301613f19565b509695505050505050565b60008060408385031215613f5757600080fd5b825167ffffffffffffffff80821115613f6f57600080fd5b818501915085601f830112613f8357600080fd5b81516020613f93613ef183613eac565b82815260059290921b84018101918181019089841115613fb257600080fd5b948201945b83861015613fe05785518060060b8114613fd15760008081fd5b82529482019490820190613fb7565b91880151919650909350505080821115613ff957600080fd5b5061400685828601613ed0565b9150509250929050565b600682810b9082900b03667fffffffffffff198112667fffffffffffff821317156107d4576107d4613b96565b60008160060b8360060b8061405457614054613cff565b667fffffffffffff19821460001982141615613d5a57613d5a613b96565b60008260060b8061408557614085613cff565b808360060b0791505092915050565b60008160020b627fffff1981036140ad576140ad613b96565b6000190192915050565b81516001600160a01b03168152610160810160208301516140e360208401826001600160a01b03169052565b5060408301516140fa604084018262ffffff169052565b50606083015161410f606084018260020b9052565b506080830151614124608084018260020b9052565b5060a083015160a083015260c083015160c083015260e083015160e08301526101008084015181840152506101208084015161416a828501826001600160a01b03169052565b505061014092830151919092015290565b6000806000806080858703121561419157600080fd5b8451935060208501516141a381613abc565b6040860151606090960151949790965092505050565b6000806000606084860312156141ce57600080fd5b83516141d981613abc565b602085015160409095015190969495509392505050565b7f416363657373436f6e74726f6c3a206163636f756e7420000000000000000000815260008351614228816017850160208801613daa565b7f206973206d697373696e6720726f6c65200000000000000000000000000000006017918401918201528351614265816028840160208801613daa565b01602801949350505050565b6020815260008251806020840152614290816040850160208701613daa565b601f01601f19169190910160400192915050565b6000600160ff1b82016142b9576142b9613b96565b5060000390565b6000826142cf576142cf613cff565b500690565b808201808211156107d4576107d4613b96565b6000816142f6576142f6613b96565b50600019019056fea164736f6c6343000812000a",
  "linkReferences": {},
  "deployedLinkReferences": {}
}