{
  "_format": "hh-sol-artifact-1",
  "contractName": "L2InitialLiquidityVault",
  "sourceName": "contracts/L2/vaults/L2InitialLiquidityVault.sol",
  "abi": [
    {
      "anonymous": false,
      "inputs": [
        {
          "indexed": false,
          "internalType": "address",
          "name": "l2Token",
          "type": "address"
        },
        {
          "indexed": false,
          "internalType": "address",
          "name": "to",
          "type": "address"
        },
        {
          "indexed": false,
          "internalType": "uint256",
          "name": "amount",
          "type": "uint256"
        }
      ],
      "name": "Claimed",
      "type": "event"
    },
    {
      "anonymous": false,
      "inputs": [
        {
          "indexed": true,
          "internalType": "uint256",
          "name": "tokenId",
          "type": "uint256"
        },
        {
          "indexed": false,
          "internalType": "uint128",
          "name": "liquidity",
          "type": "uint128"
        },
        {
          "indexed": false,
          "internalType": "uint256",
          "name": "amount0",
          "type": "uint256"
        },
        {
          "indexed": false,
          "internalType": "uint256",
          "name": "amount1",
          "type": "uint256"
        }
      ],
      "name": "IncreasedLiquidityInVault",
      "type": "event"
    },
    {
      "anonymous": false,
      "inputs": [
        {
          "indexed": false,
          "internalType": "address",
          "name": "l2Token",
          "type": "address"
        },
        {
          "indexed": false,
          "internalType": "address",
          "name": "pool",
          "type": "address"
        },
        {
          "indexed": false,
          "internalType": "uint256",
          "name": "tokenId",
          "type": "uint256"
        },
        {
          "indexed": false,
          "internalType": "uint128",
          "name": "liquidity",
          "type": "uint128"
        },
        {
          "indexed": false,
          "internalType": "uint256",
          "name": "amount0",
          "type": "uint256"
        },
        {
          "indexed": false,
          "internalType": "uint256",
          "name": "amount1",
          "type": "uint256"
        }
      ],
      "name": "InitialMintedInVault",
      "type": "event"
    },
    {
      "anonymous": false,
      "inputs": [
        {
          "indexed": false,
          "internalType": "address",
          "name": "l2Token",
          "type": "address"
        },
        {
          "indexed": false,
          "internalType": "uint256",
          "name": "totalAllocatedAmount",
          "type": "uint256"
        },
        {
          "indexed": false,
          "internalType": "uint256",
          "name": "initialTosPrice",
          "type": "uint256"
        },
        {
          "indexed": false,
          "internalType": "uint256",
          "name": "initialTokenPrice",
          "type": "uint256"
        },
        {
          "indexed": false,
          "internalType": "uint256",
          "name": "startTime",
          "type": "uint256"
        },
        {
          "indexed": false,
          "internalType": "uint160",
          "name": "initSqrtPriceX96",
          "type": "uint160"
        },
        {
          "indexed": false,
          "internalType": "uint24",
          "name": "fee",
          "type": "uint24"
        }
      ],
      "name": "InitializedInitialLiquidityVault",
      "type": "event"
    },
    {
      "anonymous": false,
      "inputs": [
        {
          "indexed": true,
          "internalType": "bytes32",
          "name": "role",
          "type": "bytes32"
        },
        {
          "indexed": true,
          "internalType": "bytes32",
          "name": "previousAdminRole",
          "type": "bytes32"
        },
        {
          "indexed": true,
          "internalType": "bytes32",
          "name": "newAdminRole",
          "type": "bytes32"
        }
      ],
      "name": "RoleAdminChanged",
      "type": "event"
    },
    {
      "anonymous": false,
      "inputs": [
        {
          "indexed": true,
          "internalType": "bytes32",
          "name": "role",
          "type": "bytes32"
        },
        {
          "indexed": true,
          "internalType": "address",
          "name": "account",
          "type": "address"
        },
        {
          "indexed": true,
          "internalType": "address",
          "name": "sender",
          "type": "address"
        }
      ],
      "name": "RoleGranted",
      "type": "event"
    },
    {
      "anonymous": false,
      "inputs": [
        {
          "indexed": true,
          "internalType": "bytes32",
          "name": "role",
          "type": "bytes32"
        },
        {
          "indexed": true,
          "internalType": "address",
          "name": "account",
          "type": "address"
        },
        {
          "indexed": true,
          "internalType": "address",
          "name": "sender",
          "type": "address"
        }
      ],
      "name": "RoleRevoked",
      "type": "event"
    },
    {
      "anonymous": false,
      "inputs": [
        {
          "indexed": false,
          "internalType": "address",
          "name": "l2Token",
          "type": "address"
        },
        {
          "indexed": false,
          "internalType": "address",
          "name": "pool",
          "type": "address"
        }
      ],
      "name": "SetCreatedPool",
      "type": "event"
    },
    {
      "anonymous": false,
      "inputs": [
        {
          "indexed": false,
          "internalType": "address",
          "name": "newInitializer",
          "type": "address"
        }
      ],
      "name": "SetInitializer",
      "type": "event"
    },
    {
      "anonymous": false,
      "inputs": [
        {
          "indexed": false,
          "internalType": "address",
          "name": "l2Token",
          "type": "address"
        },
        {
          "indexed": false,
          "internalType": "address",
          "name": "pool",
          "type": "address"
        },
        {
          "indexed": false,
          "internalType": "uint160",
          "name": "inSqrtPriceX96",
          "type": "uint160"
        }
      ],
      "name": "SetPoolInitialized",
      "type": "event"
    },
    {
      "anonymous": false,
      "inputs": [
        {
          "indexed": false,
          "internalType": "address",
          "name": "l2Token",
          "type": "address"
        },
        {
          "indexed": false,
          "internalType": "uint256",
          "name": "startTime",
          "type": "uint256"
        }
      ],
      "name": "SetStartTime",
      "type": "event"
    },
    {
      "anonymous": false,
      "inputs": [
        {
          "indexed": false,
          "internalType": "address",
          "name": "_factory",
          "type": "address"
        },
        {
          "indexed": false,
          "internalType": "address",
          "name": "_npm",
          "type": "address"
        },
        {
          "indexed": false,
          "internalType": "address",
          "name": "_ton",
          "type": "address"
        },
        {
          "indexed": false,
          "internalType": "address",
          "name": "_tos",
          "type": "address"
        }
      ],
      "name": "SetUniswapInfo",
      "type": "event"
    },
    {
      "anonymous": false,
      "inputs": [
        {
          "indexed": false,
          "internalType": "address",
          "name": "l2Token",
          "type": "address"
        },
        {
          "indexed": false,
          "internalType": "address",
          "name": "newAdmin",
          "type": "address"
        }
      ],
      "name": "SetVaultAdmin",
      "type": "event"
    },
    {
      "inputs": [],
      "name": "ADMIN_ROLE",
      "outputs": [
        {
          "internalType": "bytes32",
          "name": "",
          "type": "bytes32"
        }
      ],
      "stateMutability": "view",
      "type": "function"
    },
    {
      "inputs": [],
      "name": "DEFAULT_ADMIN_ROLE",
      "outputs": [
        {
          "internalType": "bytes32",
          "name": "",
          "type": "bytes32"
        }
      ],
      "stateMutability": "view",
      "type": "function"
    },
    {
      "inputs": [],
      "name": "POLICY_ROLE",
      "outputs": [
        {
          "internalType": "bytes32",
          "name": "",
          "type": "bytes32"
        }
      ],
      "stateMutability": "view",
      "type": "function"
    },
    {
      "inputs": [],
      "name": "TWAP_PERIOD",
      "outputs": [
        {
          "internalType": "uint32",
          "name": "",
          "type": "uint32"
        }
      ],
      "stateMutability": "view",
      "type": "function"
    },
    {
      "inputs": [
        {
          "internalType": "int24",
          "name": "_tick",
          "type": "int24"
        },
        {
          "internalType": "int24",
          "name": "_tickSpacings",
          "type": "int24"
        }
      ],
      "name": "acceptMaxTick",
      "outputs": [
        {
          "internalType": "int24",
          "name": "",
          "type": "int24"
        }
      ],
      "stateMutability": "view",
      "type": "function"
    },
    {
      "inputs": [
        {
          "internalType": "int24",
          "name": "_tick",
          "type": "int24"
        },
        {
          "internalType": "int24",
          "name": "_tickSpacings",
          "type": "int24"
        }
      ],
      "name": "acceptMinTick",
      "outputs": [
        {
          "internalType": "int24",
          "name": "",
          "type": "int24"
        }
      ],
      "stateMutability": "view",
      "type": "function"
    },
    {
      "inputs": [],
      "name": "acceptSlippagePrice",
      "outputs": [
        {
          "internalType": "int24",
          "name": "",
          "type": "int24"
        }
      ],
      "stateMutability": "view",
      "type": "function"
    },
    {
      "inputs": [],
      "name": "acceptTickChangeInterval",
      "outputs": [
        {
          "internalType": "int24",
          "name": "",
          "type": "int24"
        }
      ],
      "stateMutability": "view",
      "type": "function"
    },
    {
      "inputs": [
        {
          "internalType": "address",
          "name": "account",
          "type": "address"
        }
      ],
      "name": "addAdmin",
      "outputs": [],
      "stateMutability": "nonpayable",
      "type": "function"
    },
    {
      "inputs": [
        {
          "internalType": "address",
          "name": "",
          "type": "address"
        }
      ],
      "name": "aliveImplementation",
      "outputs": [
        {
          "internalType": "bool",
          "name": "",
          "type": "bool"
        }
      ],
      "stateMutability": "view",
      "type": "function"
    },
    {
      "inputs": [
        {
          "internalType": "int24",
          "name": "tickSpacings",
          "type": "int24"
        }
      ],
      "name": "getMaxTick",
      "outputs": [
        {
          "internalType": "int24",
          "name": "",
          "type": "int24"
        }
      ],
      "stateMutability": "pure",
      "type": "function"
    },
    {
      "inputs": [
        {
          "internalType": "int24",
          "name": "tickSpacings",
          "type": "int24"
        }
      ],
      "name": "getMiniTick",
      "outputs": [
        {
          "internalType": "int24",
          "name": "",
          "type": "int24"
        }
      ],
      "stateMutability": "pure",
      "type": "function"
    },
    {
      "inputs": [
        {
          "internalType": "int24",
          "name": "tick",
          "type": "int24"
        },
        {
          "internalType": "uint128",
          "name": "amountIn",
          "type": "uint128"
        },
        {
          "internalType": "address",
          "name": "baseToken",
          "type": "address"
        },
        {
          "internalType": "address",
          "name": "quoteToken",
          "type": "address"
        }
      ],
      "name": "getQuoteAtTick",
      "outputs": [
        {
          "internalType": "uint256",
          "name": "amountOut",
          "type": "uint256"
        }
      ],
      "stateMutability": "pure",
      "type": "function"
    },
    {
      "inputs": [
        {
          "internalType": "bytes32",
          "name": "role",
          "type": "bytes32"
        }
      ],
      "name": "getRoleAdmin",
      "outputs": [
        {
          "internalType": "bytes32",
          "name": "",
          "type": "bytes32"
        }
      ],
      "stateMutability": "view",
      "type": "function"
    },
    {
      "inputs": [
        {
          "internalType": "uint24",
          "name": "_fee",
          "type": "uint24"
        }
      ],
      "name": "getTickSpacing",
      "outputs": [
        {
          "internalType": "int24",
          "name": "tickSpacings",
          "type": "int24"
        }
      ],
      "stateMutability": "pure",
      "type": "function"
    },
    {
      "inputs": [
        {
          "internalType": "bytes32",
          "name": "role",
          "type": "bytes32"
        },
        {
          "internalType": "address",
          "name": "account",
          "type": "address"
        }
      ],
      "name": "grantRole",
      "outputs": [],
      "stateMutability": "nonpayable",
      "type": "function"
    },
    {
      "inputs": [
        {
          "internalType": "bytes32",
          "name": "role",
          "type": "bytes32"
        },
        {
          "internalType": "address",
          "name": "account",
          "type": "address"
        }
      ],
      "name": "hasRole",
      "outputs": [
        {
          "internalType": "bool",
          "name": "",
          "type": "bool"
        }
      ],
      "stateMutability": "view",
      "type": "function"
    },
    {
      "inputs": [
        {
          "internalType": "address",
          "name": "l2Token",
          "type": "address"
        },
        {
          "components": [
            {
              "internalType": "uint256",
              "name": "totalAllocatedAmount",
              "type": "uint256"
            },
            {
              "internalType": "uint256",
              "name": "tosPrice",
              "type": "uint256"
            },
            {
              "internalType": "uint256",
              "name": "tokenPrice",
              "type": "uint256"
            },
            {
              "internalType": "uint256",
              "name": "initSqrtPrice",
              "type": "uint256"
            },
            {
              "internalType": "uint256",
              "name": "startTime",
              "type": "uint256"
            },
            {
              "internalType": "uint16",
              "name": "fee",
              "type": "uint16"
            }
          ],
          "internalType": "struct LibProject.InitalParameterInitialLiquidityVault",
          "name": "params",
          "type": "tuple"
        }
      ],
      "name": "initialize",
      "outputs": [],
      "stateMutability": "nonpayable",
      "type": "function"
    },
    {
      "inputs": [],
      "name": "initializer",
      "outputs": [
        {
          "internalType": "address",
          "name": "",
          "type": "address"
        }
      ],
      "stateMutability": "view",
      "type": "function"
    },
    {
      "inputs": [
        {
          "internalType": "address",
          "name": "account",
          "type": "address"
        }
      ],
      "name": "isAdmin",
      "outputs": [
        {
          "internalType": "bool",
          "name": "",
          "type": "bool"
        }
      ],
      "stateMutability": "view",
      "type": "function"
    },
    {
      "inputs": [],
      "name": "l2ProjectManager",
      "outputs": [
        {
          "internalType": "address",
          "name": "",
          "type": "address"
        }
      ],
      "stateMutability": "view",
      "type": "function"
    },
    {
      "inputs": [
        {
          "internalType": "address",
          "name": "l2Token",
          "type": "address"
        },
        {
          "internalType": "uint256",
          "name": "tosAmount",
          "type": "uint256"
        }
      ],
      "name": "mint",
      "outputs": [],
      "stateMutability": "nonpayable",
      "type": "function"
    },
    {
      "inputs": [],
      "name": "nonfungiblePositionManager",
      "outputs": [
        {
          "internalType": "address",
          "name": "",
          "type": "address"
        }
      ],
      "stateMutability": "view",
      "type": "function"
    },
    {
      "inputs": [],
      "name": "pauseProxy",
      "outputs": [
        {
          "internalType": "bool",
          "name": "",
          "type": "bool"
        }
      ],
      "stateMutability": "view",
      "type": "function"
    },
    {
      "inputs": [
        {
          "internalType": "address",
          "name": "",
          "type": "address"
        }
      ],
      "name": "poolInfo",
      "outputs": [
        {
          "internalType": "address",
          "name": "pool",
          "type": "address"
        },
        {
          "internalType": "uint256",
          "name": "totalAllocatedAmount",
          "type": "uint256"
        },
        {
          "internalType": "uint256",
          "name": "initialTosPrice",
          "type": "uint256"
        },
        {
          "internalType": "uint256",
          "name": "initialTokenPrice",
          "type": "uint256"
        },
        {
          "internalType": "uint256",
          "name": "lpToken",
          "type": "uint256"
        },
        {
          "internalType": "uint256",
          "name": "startTime",
          "type": "uint256"
        },
        {
          "internalType": "uint160",
          "name": "initSqrtPriceX96",
          "type": "uint160"
        },
        {
          "internalType": "uint24",
          "name": "fee",
          "type": "uint24"
        },
        {
          "internalType": "bool",
          "name": "boolReadyToCreatePool",
          "type": "bool"
        }
      ],
      "stateMutability": "view",
      "type": "function"
    },
    {
      "inputs": [
        {
          "internalType": "uint256",
          "name": "",
          "type": "uint256"
        }
      ],
      "name": "proxyImplementation",
      "outputs": [
        {
          "internalType": "address",
          "name": "",
          "type": "address"
        }
      ],
      "stateMutability": "view",
      "type": "function"
    },
    {
      "inputs": [
        {
          "internalType": "address",
          "name": "account",
          "type": "address"
        }
      ],
      "name": "removeAdmin",
      "outputs": [],
      "stateMutability": "nonpayable",
      "type": "function"
    },
    {
      "inputs": [
        {
          "internalType": "bytes32",
          "name": "role",
          "type": "bytes32"
        },
        {
          "internalType": "address",
          "name": "account",
          "type": "address"
        }
      ],
      "name": "renounceRole",
      "outputs": [],
      "stateMutability": "nonpayable",
      "type": "function"
    },
    {
      "inputs": [
        {
          "internalType": "bytes32",
          "name": "role",
          "type": "bytes32"
        },
        {
          "internalType": "address",
          "name": "account",
          "type": "address"
        }
      ],
      "name": "revokeRole",
      "outputs": [],
      "stateMutability": "nonpayable",
      "type": "function"
    },
    {
      "inputs": [
        {
          "internalType": "bytes4",
          "name": "",
          "type": "bytes4"
        }
      ],
      "name": "selectorImplementation",
      "outputs": [
        {
          "internalType": "address",
          "name": "",
          "type": "address"
        }
      ],
      "stateMutability": "view",
      "type": "function"
    },
    {
      "inputs": [
        {
          "internalType": "int24",
          "name": "_value",
          "type": "int24"
        }
      ],
      "name": "setAcceptSlippagePrice",
      "outputs": [],
      "stateMutability": "nonpayable",
      "type": "function"
    },
    {
      "inputs": [
        {
          "internalType": "int24",
          "name": "_interval",
          "type": "int24"
        }
      ],
      "name": "setAcceptTickChangeInterval",
      "outputs": [],
      "stateMutability": "nonpayable",
      "type": "function"
    },
    {
      "inputs": [
        {
          "internalType": "address",
          "name": "l2Token",
          "type": "address"
        }
      ],
      "name": "setCreatePool",
      "outputs": [],
      "stateMutability": "nonpayable",
      "type": "function"
    },
    {
      "inputs": [
        {
          "internalType": "address",
          "name": "l2Token",
          "type": "address"
        },
        {
          "internalType": "uint256",
          "name": "_startTime",
          "type": "uint256"
        }
      ],
      "name": "setStartTime",
      "outputs": [],
      "stateMutability": "nonpayable",
      "type": "function"
    },
    {
      "inputs": [
        {
          "internalType": "uint32",
          "name": "value",
          "type": "uint32"
        }
      ],
      "name": "setTWAP_PERIOD",
      "outputs": [],
      "stateMutability": "nonpayable",
      "type": "function"
    },
    {
      "inputs": [
        {
          "internalType": "address",
          "name": "_poolfactory",
          "type": "address"
        },
        {
          "internalType": "address",
          "name": "_npm",
          "type": "address"
        },
        {
          "internalType": "address",
          "name": "_ton",
          "type": "address"
        },
        {
          "internalType": "address",
          "name": "_tos",
          "type": "address"
        }
      ],
      "name": "setUniswapInfo",
      "outputs": [],
      "stateMutability": "nonpayable",
      "type": "function"
    },
    {
      "inputs": [
        {
          "internalType": "bytes4",
          "name": "interfaceId",
          "type": "bytes4"
        }
      ],
      "name": "supportsInterface",
      "outputs": [
        {
          "internalType": "bool",
          "name": "",
          "type": "bool"
        }
      ],
      "stateMutability": "view",
      "type": "function"
    },
    {
      "inputs": [],
      "name": "tickSpacings",
      "outputs": [
        {
          "internalType": "int24",
          "name": "",
          "type": "int24"
        }
      ],
      "stateMutability": "view",
      "type": "function"
    },
    {
      "inputs": [],
      "name": "ton",
      "outputs": [
        {
          "internalType": "address",
          "name": "",
          "type": "address"
        }
      ],
      "stateMutability": "view",
      "type": "function"
    },
    {
      "inputs": [],
      "name": "tos",
      "outputs": [
        {
          "internalType": "address",
          "name": "",
          "type": "address"
        }
      ],
      "stateMutability": "view",
      "type": "function"
    },
    {
      "inputs": [
        {
          "internalType": "address",
          "name": "newAdmin",
          "type": "address"
        }
      ],
      "name": "transferAdmin",
      "outputs": [],
      "stateMutability": "nonpayable",
      "type": "function"
    },
    {
      "inputs": [],
      "name": "uniswapV3Factory",
      "outputs": [
        {
          "internalType": "address",
          "name": "",
          "type": "address"
        }
      ],
      "stateMutability": "view",
      "type": "function"
    },
    {
      "inputs": [
        {
          "internalType": "address",
          "name": "",
          "type": "address"
        }
      ],
      "name": "vaultAdminOfToken",
      "outputs": [
        {
          "internalType": "address",
          "name": "",
          "type": "address"
        }
      ],
      "stateMutability": "view",
      "type": "function"
    }
  ],
  "bytecode": "0x60806040526005805460ff1916600117905534801561001d57600080fd5b506146f48061002d6000396000f3fe608060405234801561001057600080fd5b50600436106102e95760003560e01c806375829def11610191578063a22f84f0116100e3578063b9c56c8c11610097578063d547741f11610071578063d547741f146107a5578063d684395d146107b8578063ea866815146107cb57600080fd5b8063b9c56c8c1461076c578063bef6dc8b1461077f578063cc48b9471461079257600080fd5b8063b224f99f116100c8578063b224f99f1461071d578063b44a272214610730578063b911135f1461074357600080fd5b8063a22f84f0146106f7578063aec137581461070a57600080fd5b806389f395de116101455780639cbbbe861161011f5780639cbbbe86146106cf5780639ce110d7146106dc578063a217fddf146106ef57600080fd5b806389f395de146105ba57806391d14854146105cd5780639a7b5f111461060657600080fd5b80637ca25184116101765780637ca25184146105525780637fc46ba81461057e578063826bd4bf146105a757600080fd5b806375829def1461051857806375b238fc1461052b57600080fd5b806336568abe1161024a57806350d2a276116101fe5780635b549182116101d85780635b549182146104e557806363a8fd89146104f8578063704802751461050557600080fd5b806350d2a2761461046957806352351e85146104aa578063550d01a3146104c257600080fd5b806340c10f191161022f57806340c10f191461042f57806343c57a271461044257806345a411481461045557600080fd5b806336568abe1461040957806337c1cfa51461041c57600080fd5b806324d7806c116102a15780632e99c6e6116102865780632e99c6e6146103cf5780632f2ff15d146103e257806335d20f8a146103f557600080fd5b806324d7806c146103a95780632c00778a146103bc57600080fd5b80631785f53c116102d25780631785f53c1461033c5780632298524614610351578063248a9ca31461038657600080fd5b806301ffc9a7146102ee5780630f36edbf14610316575b600080fd5b6103016102fc366004613ca8565b6107de565b60405190151581526020015b60405180910390f35b610329610324366004613ce1565b610815565b60405160029190910b815260200161030d565b61034f61034a366004613d2f565b610869565b005b6103787ffb5864e8ff833c3cb2d2d08505e82ff02a43554c74a35d4f5a64e8526127831181565b60405190815260200161030d565b610378610394366004613d4c565b60009081526004602052604090206001015490565b6103016103b7366004613d2f565b6108fb565b61034f6103ca366004613d65565b61093b565b61034f6103dd366004613dd9565b610a43565b61034f6103f0366004613e82565b610e6d565b600b5461032990600160d81b900460020b81565b61034f610417366004613e82565b610e97565b61034f61042a366004613d2f565b610f23565b61034f61043d366004613ea7565b61154b565b610378610450366004613ee8565b611cac565b600b5461032990600160c01b900460020b81565b610492610477366004613ca8565b6003602052600090815260409020546001600160a01b031681565b6040516001600160a01b03909116815260200161030d565b6005546104929061010090046001600160a01b031681565b6103016104d0366004613d2f565b60026020526000908152604090205460ff1681565b600a54610492906001600160a01b031681565b6000546103019060ff1681565b61034f610513366004613d2f565b611cc3565b61034f610526366004613d2f565b611d4d565b6103787fdf8b4c520ffe197c5343c6f5aec59570151ef9a492f2c624fd45ddde6135ec4281565b600b5461056990600160a01b900463ffffffff1681565b60405163ffffffff909116815260200161030d565b61049261058c366004613d2f565b6007602052600090815260409020546001600160a01b031681565b6103296105b5366004613d65565b611eaf565b600954610492906001600160a01b031681565b6103016105db366004613e82565b60009182526004602090815260408084206001600160a01b0393909316845291905290205460ff1690565b610675610614366004613d2f565b600d6020526000908152604090208054600182015460028301546003840154600485015460058601546006909601546001600160a01b0395861696949593949293919291811690600160a01b810462ffffff1690600160b81b900460ff1689565b604080516001600160a01b039a8b16815260208101999099528801969096526060870194909452608086019290925260a085015290931660c083015262ffffff90921660e08201529015156101008201526101200161030d565b600c546103299060020b81565b600654610492906001600160a01b031681565b610378600081565b610329610705366004613d65565b611eca565b610329610718366004613ce1565b611ee5565b61034f61072b366004613f44565b611f39565b600b54610492906001600160a01b031681565b610492610751366004613d4c565b6001602052600090815260409020546001600160a01b031681565b61034f61077a366004613d65565b612048565b61034f61078d366004613f6a565b612150565b600854610492906001600160a01b031681565b61034f6107b3366004613e82565b6123de565b61034f6107c6366004613ea7565b612403565b6103296107d9366004613f9b565b6125a5565b60006001600160e01b03198216637965db0b60e01b148061080f57506301ffc9a760e01b6001600160e01b03198316145b92915050565b60008061082183611eaf565b600b5490915060009061083e90600160c01b900460020b85613fd6565b6108489086613ffd565b90508060020b8260020b121561086157915061080f9050565b509392505050565b610872336108fb565b6108ce5760405162461bcd60e51b815260206004820152602260248201527f41636365737369626c653a2043616c6c6572206973206e6f7420616e2061646d60448201526134b760f11b60648201526084015b60405180910390fd5b6108f87fdf8b4c520ffe197c5343c6f5aec59570151ef9a492f2c624fd45ddde6135ec4282610e97565b50565b6001600160a01b03811660009081527f2fb794d17134dfdec181ddbac1babb5ab1eb140204ef4d982f294e7fc8b69022602052604081205460ff1661080f565b610944336108fb565b61099b5760405162461bcd60e51b815260206004820152602260248201527f41636365737369626c653a2043616c6c6572206973206e6f7420616e2061646d60448201526134b760f11b60648201526084016108c5565b60008160020b136109d75760405162461bcd60e51b81526004016108c5906020808252600490820152637a65726f60e01b604082015260600190565b600b54600282810b600160d81b909204900b03610a1f5760405162461bcd60e51b81526004016108c59060208082526004908201526373616d6560e01b604082015260600190565b600b805462ffffff909216600160d81b0262ffffff60d81b19909216919091179055565b600554829061010090046001600160a01b0316331480610a9f57506001600160a01b0381811660009081526007602052604090205416151580610a9f57506001600160a01b038181166000908152600760205260409020541633145b610b115760405162461bcd60e51b815260206004820152602c60248201527f63616c6c6572206973206e6f742061207661756c7441646d696e206f7220507260448201527f6f6a6563744d616e61676572000000000000000000000000000000000000000060648201526084016108c5565b600a546001600160a01b031615801590610b355750600b546001600160a01b031615155b8015610b4b57506009546001600160a01b031615155b610b975760405162461bcd60e51b815260206004820152601860248201527f5661756c743a206265666f726520736574556e6973776170000000000000000060448201526064016108c5565b6001600160a01b0383166000908152600d602052604090206001015415610c005760405162461bcd60e51b815260206004820152601360248201527f616c726561647920696e697469616c697a65640000000000000000000000000060448201526064016108c5565b815115801590610c135750602082015115155b8015610c225750604082015115155b8015610c315750606082015115155b8015610c44575060a082015161ffff1615155b610cdc5760405162461bcd60e51b815260206004820152605460248201527f7a65726f20746f74616c416c6c6f6361746564416d6f756e74206f7220746f7360448201527f5072696365206f7220746f6b656e5072696365206f7220696e6974537172745060648201527f72696365583936206f7220737461727454696d65000000000000000000000000608482015260a4016108c5565b42826080015111610d2f5760405162461bcd60e51b815260206004820152601460248201527f537461727454696d65206861732070617373656400000000000000000000000060448201526064016108c5565b6005548251610d53916001600160a01b0386811692610100909204169030906125ff565b6001600160a01b038084166000908152600d602090815260409182902085516001820181905591860151600282018190558684015160038301819055606088015160068401805460808b01516005870181905560a08c0151600160a01b61ffff8216027fffffffffffffffffff00000000000000000000000000000000000000000000009093169a85169a909a1791909117909155955193967f9f654cf8aac1e1b8d2153612c219a661009c6885e0d87d5f38d390afc5f3af3896610e5f968c96909594939192906001600160a01b039788168152602081019690965260408601949094526060850192909252608084015290921660a082015261ffff9190911660c082015260e00190565b60405180910390a150505050565b600082815260046020526040902060010154610e8881612738565b610e928383612742565b505050565b6001600160a01b0381163314610f155760405162461bcd60e51b815260206004820152602f60248201527f416363657373436f6e74726f6c3a2063616e206f6e6c792072656e6f756e636560448201527f20726f6c657320666f722073656c66000000000000000000000000000000000060648201526084016108c5565b610f1f82826127e4565b5050565b6001600160a01b0381166000908152600d60205260409020600601548190600160b81b900460ff1615610fa35760405162461bcd60e51b815260206004820152602260248201527f5661756c743a20616c726561647920726561647920746f20437265617465506f6044820152611bdb60f21b60648201526084016108c5565b60055460ff16610fde5760405162461bcd60e51b81526004016108c5906020808252600490820152636c6f636b60e01b604082015260600190565b6005805460ff191681556001600160a01b0383166000908152600d6020526040902090810154158015906110155750428160050154105b6110615760405162461bcd60e51b815260206004820152601960248201527f537461727454696d6520686173206e6f74207061737365642e0000000000000060448201526064016108c5565b80546001600160a01b0316156110b95760405162461bcd60e51b815260206004820152600f60248201527f616c72656164792063726561746564000000000000000000000000000000000060448201526064016108c5565b60068101546001600160a01b03166111135760405162461bcd60e51b815260206004820152601560248201527f7a65726f20696e6974537172745072696365583936000000000000000000000060448201526064016108c5565b600a546009546006830154604051630b4c774160e11b81526001600160a01b0392831660048201528683166024820152600160a01b90910462ffffff1660448201526000929190911690631698ee8290606401602060405180830381865afa158015611183573d6000803e3d6000fd5b505050506040513d601f19601f820116820180604052508101906111a79190614022565b90506001600160a01b0381166112a857600a54600954600684015460405163a167129560e01b81526001600160a01b0392831660048201528783166024820152600160a01b90910462ffffff166044820152600092919091169063a1671295906064016020604051808303816000875af1158015611229573d6000803e3d6000fd5b505050506040513d601f19601f8201168201806040525081019061124d9190614022565b90506001600160a01b0381166112a55760405162461bcd60e51b815260206004820152600f60248201527f637265617465506f6f6c206661696c000000000000000000000000000000000060448201526064016108c5565b90505b81546001600160a01b03821673ffffffffffffffffffffffffffffffffffffffff19909116811783556006830180547fffffffffffffffff00ffffffffffffffffffffffffffffffffffffffffffffff16600160b81b17905560408051633850c7bd60e01b8152905160009291633850c7bd9160048083019260e09291908290030181865afa15801561133f573d6000803e3d6000fd5b505050506040513d601f19601f82011682018060405250810190611363919061404f565b5050505050509050806001600160a01b031660000361142e57600683015460405163f637731d60e01b81526001600160a01b0391821660048201529083169063f637731d90602401600060405180830381600087803b1580156113c557600080fd5b505af11580156113d9573d6000803e3d6000fd5b505050506006830154604080516001600160a01b038881168252858116602083015290921682820152517fca9098798fa03760d7709c3305b3b049d2c71fa6e891a83a36fe90a15eeab7809181900360600190a15b604080516001600160a01b038088168252841660208201527ffb9092f7bd4a3c6c55439411fb56fe4d44878125340b674c6ab5b5dda38d0b1c910160405180910390a16000826001600160a01b0316633850c7bd6040518163ffffffff1660e01b815260040160e060405180830381865afa1580156114b1573d6000803e3d6000fd5b505050506040513d601f19601f820116820180604052508101906114d5919061404f565b5050505050509050806001600160a01b03166000036115365760405162461bcd60e51b815260206004820152601260248201527f7a65726f205f737172745072696365583936000000000000000000000000000060448201526064016108c5565b50506005805460ff1916600117905550505050565b6001600160a01b0382166000908152600d60205260409020600601548290600160b81b900460ff166115bf5760405162461bcd60e51b815260206004820152601e60248201527f5661756c743a206e6f7420726561647920746f20437265617465506f6f6c000060448201526064016108c5565b81806000036115f55760405162461bcd60e51b81526020600482015260026024820152615a3160f01b60448201526064016108c5565b60055460ff166116305760405162461bcd60e51b81526004016108c5906020808252600490820152636c6f636b60e01b604082015260600190565b6005805460ff191690556009546040516370a0823160e01b81523060048201526000916001600160a01b0316906370a0823190602401602060405180830381865afa158015611683573d6000803e3d6000fd5b505050506040513d601f19601f820116820180604052508101906116a791906140ec565b6040516370a0823160e01b81523060048201529091506000906001600160a01b038716906370a0823190602401602060405180830381865afa1580156116f1573d6000803e3d6000fd5b505050506040513d601f19601f8201168201806040525081019061171591906140ec565b9050670de0b6b3a7640000821180156117355750670de0b6b3a764000081115b6117815760405162461bcd60e51b815260206004820152601760248201527f62616c616e636520697320696e73756666696369656e7400000000000000000060448201526064016108c5565b818511156117d15760405162461bcd60e51b815260206004820152601960248201527f746f42616c616e636520697320696e73756666696369656e740000000000000060448201526064016108c5565b600b54600160c01b900460020b6000036117fb57600b805462ffffff60c01b1916600160c31b1790555b600b54600160d81b900460020b60000361182557600b805462ffffff60d81b1916600560d91b1790555b600b54600160a01b900463ffffffff1660000361186457600b805463ffffffff60a01b1916747800000000000000000000000000000000000000001790555b6001600160a01b038681166000908152600d6020908152604080832081516101208101835281548616808252600183015494820194909452600282015481840152600382015460608201526004808301546080830152600583015460a083015260069092015495861660c0820152600160a01b860462ffffff1660e080830191909152600160b81b90960460ff1615156101008201528251633850c7bd60e01b815292519095859493633850c7bd9381810193918290030181865afa158015611931573d6000803e3d6000fd5b505050506040513d601f19601f82011682018060405250810190611955919061404f565b5050505050915091506000826001600160a01b0316116119b75760405162461bcd60e51b815260206004820152601760248201527f706f6f6c206973206e6f7420696e697469616c697a656400000000000000000060448201526064016108c5565b8251600b546000916119d591600160a01b900463ffffffff16612867565b90508160020b6119ec826103248760e001516125a5565b60020b13158015611a125750611a09816107188660e001516125a5565b60020b8260020b125b611a6a5760405162461bcd60e51b8152602060048201526024808201527f49742773206e6f7420616c6c6f776564206368616e676564207469636b2072616044820152633733b29760e11b60648201526084016108c5565b50600080600085600001516001600160a01b0316630dfe16816040518163ffffffff1660e01b8152600401602060405180830381865afa158015611ab2573d6000803e3d6000fd5b505050506040513d601f19601f82011682018060405250810190611ad69190614022565b6009549091506001600160a01b03808316911614611b6d57600954611b089085908d906001600160a01b03168f611cac565b92508a915086831115611b5d5760405162461bcd60e51b815260206004820152601c60248201527f746f6b656e42616c616e636520697320696e73756666696369656e740000000060448201526064016108c5565b611b688c8385612a26565b611be7565b6009548b9350611b8a90859085906001600160a01b03168f611cac565b915086821115611bdc5760405162461bcd60e51b815260206004820152601c60248201527f746f6b656e42616c616e636520697320696e73756666696369656e740000000060448201526064016108c5565b611be78c8484612a26565b600b54600090606490611c0490600160d81b900460020b82614105565b611c0e9086614118565b611c189190614145565b600b54909150600090606490611c3890600160d81b900460020b82614105565b611c429086614118565b611c4c9190614145565b6001600160a01b038f166000908152600d602052604081206004015491925003611c8257611c7d8e86868585612f08565b611c8f565b611c8f8e868685856132ec565b50506005805460ff19166001179055505050505050505050505050565b6000611cba85858585613481565b95945050505050565b611ccc336108fb565b611d235760405162461bcd60e51b815260206004820152602260248201527f41636365737369626c653a2043616c6c6572206973206e6f7420616e2061646d60448201526134b760f11b60648201526084016108c5565b6108f87fdf8b4c520ffe197c5343c6f5aec59570151ef9a492f2c624fd45ddde6135ec4282610e6d565b611d56336108fb565b611dad5760405162461bcd60e51b815260206004820152602260248201527f41636365737369626c653a2043616c6c6572206973206e6f7420616e2061646d60448201526134b760f11b60648201526084016108c5565b6001600160a01b038116611e035760405162461bcd60e51b815260206004820152601860248201527f41636365737369626c653a207a65726f2061646472657373000000000000000060448201526064016108c5565b6001600160a01b0381163303611e5b5760405162461bcd60e51b815260206004820152601660248201527f41636365737369626c653a2073616d652061646d696e0000000000000000000060448201526064016108c5565b611e857fdf8b4c520ffe197c5343c6f5aec59570151ef9a492f2c624fd45ddde6135ec4282610e6d565b6108f87fdf8b4c520ffe197c5343c6f5aec59570151ef9a492f2c624fd45ddde6135ec4233610e97565b600081611ec081620d89e719614159565b61080f9190613fd6565b60008180611edb620d89e719614193565b611ec09190614159565b600080611ef183611eca565b600b54909150600090611f0e90600160c01b900460020b85613fd6565b611f1890866141b5565b90508060020b8260020b1215611f305750905061080f565b915061080f9050565b611f42336108fb565b611f995760405162461bcd60e51b815260206004820152602260248201527f41636365737369626c653a2043616c6c6572206973206e6f7420616e2061646d60448201526134b760f11b60648201526084016108c5565b60008163ffffffff1611611fd85760405162461bcd60e51b81526004016108c5906020808252600490820152637a65726f60e01b604082015260600190565b600b5463ffffffff808316600160a01b90920416036120225760405162461bcd60e51b81526004016108c59060208082526004908201526373616d6560e01b604082015260600190565b600b805463ffffffff909216600160a01b0263ffffffff60a01b19909216919091179055565b612051336108fb565b6120a85760405162461bcd60e51b815260206004820152602260248201527f41636365737369626c653a2043616c6c6572206973206e6f7420616e2061646d60448201526134b760f11b60648201526084016108c5565b60008160020b136120e45760405162461bcd60e51b81526004016108c5906020808252600490820152637a65726f60e01b604082015260600190565b600b54600282810b600160c01b909204900b0361212c5760405162461bcd60e51b81526004016108c59060208082526004908201526373616d6560e01b604082015260600190565b600b805462ffffff909216600160c01b0262ffffff60c01b19909216919091179055565b612159336108fb565b6121b05760405162461bcd60e51b815260206004820152602260248201527f41636365737369626c653a2043616c6c6572206973206e6f7420616e2061646d60448201526134b760f11b60648201526084016108c5565b836001600160a01b0381166121ec5760405162461bcd60e51b81526020600482015260026024820152612d1960f11b60448201526064016108c5565b836001600160a01b0381166122285760405162461bcd60e51b81526020600482015260026024820152612d1960f11b60448201526064016108c5565b836001600160a01b0381166122645760405162461bcd60e51b81526020600482015260026024820152612d1960f11b60448201526064016108c5565b836001600160a01b0381166122a05760405162461bcd60e51b81526020600482015260026024820152612d1960f11b60448201526064016108c5565b600a546001600160a01b0389811691161415806122cb5750600b546001600160a01b03888116911614155b806122e457506008546001600160a01b03878116911614155b806122fd57506009546001600160a01b03868116911614155b6123325760405162461bcd60e51b81526004016108c59060208082526004908201526373616d6560e01b604082015260600190565b600a80546001600160a01b038a811673ffffffffffffffffffffffffffffffffffffffff199283168117909355600b80548b83169084168117909155600880548b8416908516811790915560098054938b1693909416831790935560408051948552602085019190915283019190915260608201527f5f5458e04fbfd7e3d6d9563a2da2ea2a5b3a29c1303221569d209c8c673ceacc9060800160405180910390a15050505050505050565b6000828152600460205260409020600101546123f981612738565b610e9283836127e4565b6001600160a01b038083166000908152600760205260409020548391161580159061244757506001600160a01b038181166000908152600760205260409020541633145b6124a15760405162461bcd60e51b815260206004820152602560248201527f63616c6c6572206973206e6f742061207661756c7441646d696e204f66206c326044820152642a37b5b2b760d91b60648201526084016108c5565b6001600160a01b0383166000908152600d602052604090206005810154421061250c5760405162461bcd60e51b815260206004820152601460248201527f537461727454696d65206861732070617373656400000000000000000000000060448201526064016108c5565b8281600501540361255f5760405162461bcd60e51b815260206004820152600e60248201527f73616d6520537461727454696d6500000000000000000000000000000000000060448201526064016108c5565b60058101839055604080516001600160a01b0386168152602081018590527f8da5af0cb50a5743c77f99eeeb6f24c1836f9632035e083c916b2875f6165ce39101610e5f565b60008162ffffff166064036125bc57506002919050565b8162ffffff166101f4036125d25750600a919050565b8162ffffff16610bb8036125e85750603c919050565b8162ffffff16612710036125fa575060c85b919050565b604080516001600160a01b0385811660248301528481166044830152606480830185905283518084039091018152608490920183526020820180517bffffffffffffffffffffffffffffffffffffffffffffffffffffffff166323b872dd60e01b179052915160009283929088169161267891906141fe565b6000604051808303816000865af19150503d80600081146126b5576040519150601f19603f3d011682016040523d82523d6000602084013e6126ba565b606091505b50915091508180156126e45750805115806126e45750808060200190518101906126e4919061421a565b6127305760405162461bcd60e51b815260206004820152601460248201527f5452414e534645525f46524f4d5f4641494c454400000000000000000000000060448201526064016108c5565b505050505050565b6108f8813361358f565b60008281526004602090815260408083206001600160a01b038516845290915290205460ff16610f1f5760008281526004602090815260408083206001600160a01b03851684529091529020805460ff191660011790556127a03390565b6001600160a01b0316816001600160a01b0316837f2f8788117e7eff1d82e926ec794901d17c78024a50270940304540a733656f0d60405160405180910390a45050565b60008281526004602090815260408083206001600160a01b038516845290915290205460ff1615610f1f5760008281526004602090815260408083206001600160a01b0385168085529252808320805460ff1916905551339285917ff6391f5c32d9c69d2a47ea670b442974b53935d1edc7fd64eb21e047a839171b9190a45050565b60008163ffffffff166000036128a45760405162461bcd60e51b8152602060048201526002602482015261042560f41b60448201526064016108c5565b60408051600280825260608201835260009260208301908036833701905050905082816000815181106128d9576128d9614235565b602002602001019063ffffffff16908163ffffffff168152505060008160018151811061290857612908614235565b63ffffffff9092166020928302919091019091015260405163883bdbfd60e01b81526000906001600160a01b0386169063883bdbfd9061294c90859060040161424b565b600060405180830381865afa158015612969573d6000803e3d6000fd5b505050506040513d6000823e601f3d908101601f19168201604052612991919081019061432d565b5090506000816000815181106129a9576129a9614235565b6020026020010151826001815181106129c4576129c4614235565b60200260200101516129d691906143f9565b90506129e6600386900b82614426565b935060008160060b128015612a0a5750612a04600386900b8261445b565b60060b15155b15612a1d5783612a198161447d565b9450505b50505092915050565b6009546040516370a0823160e01b815230600482015283916001600160a01b0316906370a0823190602401602060405180830381865afa158015612a6e573d6000803e3d6000fd5b505050506040513d601f19601f82011682018060405250810190612a9291906140ec565b1015612ae05760405162461bcd60e51b815260206004820152601460248201527f746f7320697320696e73756666696369656e742e00000000000000000000000060448201526064016108c5565b6040516370a0823160e01b815230600482015281906001600160a01b038516906370a0823190602401602060405180830381865afa158015612b26573d6000803e3d6000fd5b505050506040513d601f19601f82011682018060405250810190612b4a91906140ec565b1015612b985760405162461bcd60e51b815260206004820152601660248201527f746f6b656e20697320696e73756666696369656e742e0000000000000000000060448201526064016108c5565b600954600b54604051636eb1769f60e11b81523060048201526001600160a01b03918216602482015291169063dd62ed3e90604401602060405180830381865afa158015612bea573d6000803e3d6000fd5b505050506040513d601f19601f82011682018060405250810190612c0e91906140ec565b821115612d4b57600954600b54604080516318160ddd60e01b815290516001600160a01b039384169363095ea7b393169184916318160ddd916004808201926020929091908290030181865afa158015612c6c573d6000803e3d6000fd5b505050506040513d601f19601f82011682018060405250810190612c9091906140ec565b6040516001600160e01b031960e085901b1681526001600160a01b03909216600483015260248201526044016020604051808303816000875af1158015612cdb573d6000803e3d6000fd5b505050506040513d601f19601f82011682018060405250810190612cff919061421a565b612d4b5760405162461bcd60e51b815260206004820152601060248201527f544f5320617070726f7665206661696c0000000000000000000000000000000060448201526064016108c5565b600b54604051636eb1769f60e11b81523060048201526001600160a01b0391821660248201529084169063dd62ed3e90604401602060405180830381865afa158015612d9b573d6000803e3d6000fd5b505050506040513d601f19601f82011682018060405250810190612dbf91906140ec565b811115610e9257826001600160a01b031663095ea7b3600b60009054906101000a90046001600160a01b0316856001600160a01b03166318160ddd6040518163ffffffff1660e01b8152600401602060405180830381865afa158015612e29573d6000803e3d6000fd5b505050506040513d601f19601f82011682018060405250810190612e4d91906140ec565b6040516001600160e01b031960e085901b1681526001600160a01b03909216600483015260248201526044016020604051808303816000875af1158015612e98573d6000803e3d6000fd5b505050506040513d601f19601f82011682018060405250810190612ebc919061421a565b610e925760405162461bcd60e51b815260206004820152601260248201527f746f6b656e20617070726f7665206661696c000000000000000000000000000060448201526064016108c5565b6001600160a01b0385166000908152600d60205260409020600481015415612f725760405162461bcd60e51b815260206004820152600e60248201527f616c7265616479206d696e74656400000000000000000000000000000000000060448201526064016108c5565b6006810154600090612f8f90600160a01b900462ffffff166125a5565b6006830154612fa990600160a01b900462ffffff166125a5565b612fb790620d89e719614159565b612fc19190613fd6565b90506000612fe18360060160149054906101000a900462ffffff166125a5565b6006840154612ffb90600160a01b900462ffffff166125a5565b613008620d89e719614193565b6130129190614159565b61301c9190613fd6565b600b546040805161016081018083528754630dfe168160e01b90915291519394506000938493849384936001600160a01b0392831693638831645693919283921690630dfe168190610164808501916020918187030181865afa158015613087573d6000803e3d6000fd5b505050506040513d601f19601f820116820180604052508101906130ab9190614022565b6001600160a01b031681526020018a60000160009054906101000a90046001600160a01b03166001600160a01b031663d21220a76040518163ffffffff1660e01b8152600401602060405180830381865afa15801561310e573d6000803e3d6000fd5b505050506040513d601f19601f820116820180604052508101906131329190614022565b6001600160a01b031681526020018a60060160149054906101000a900462ffffff1662ffffff1681526020018960020b81526020018860020b81526020018e81526020018d81526020018c81526020018b8152602001306001600160a01b03168152602001428152506040518263ffffffff1660e01b81526004016131b791906144a0565b6080604051808303816000875af11580156131d6573d6000803e3d6000fd5b505050506040513d601f19601f820116820180604052508101906131fa9190614564565b9350935093509350600084116132525760405162461bcd60e51b815260206004820152600c60248201527f7a65726f20746f6b656e4964000000000000000000000000000000000000000060448201526064016108c5565b6004870184905586546040517e80a7e05c1e726da26ef60dc270a12c37b0bc54fc6adbc18d22f991976cf332916132d6918f916001600160a01b03169088908890889088906001600160a01b03968716815294909516602085015260408401929092526001600160801b03166060830152608082015260a081019190915260c00190565b60405180910390a1505050505050505050505050565b6001600160a01b0385166000908152600d6020526040902060048101546133555760405162461bcd60e51b815260206004820152601460248201527f4974206973206e6f74206d696e7465642079657400000000000000000000000060448201526064016108c5565b600b546040805160c08101825260048481015482526020820189815282840189815260608401898152608085018981524260a08701908152965163219f5d1760e01b815295519486019490945291516024850152516044840152516064830152516084820152905160a4820152600091829182916001600160a01b03169063219f5d179060c4016060604051808303816000875af11580156133fb573d6000803e3d6000fd5b505050506040513d601f19601f8201168201806040525081019061341f91906145a2565b6004870154604080516001600160801b0386168152602081018590529081018390529396509194509250907e242840c59a1b38c7f01b50c3ba18ebd1a8f5b28cfc8b9fb894c4ea46696ba49060600160405180910390a2505050505050505050565b60008061348d86613604565b90506001600160801b036001600160a01b038216116135135760006134bb6001600160a01b03831680614118565b9050836001600160a01b0316856001600160a01b0316106134f3576134ee600160c01b876001600160801b031683613a24565b61350b565b61350b81876001600160801b0316600160c01b613a24565b925050613586565b60006135326001600160a01b0383168068010000000000000000613a24565b9050836001600160a01b0316856001600160a01b03161061356a57613565600160801b876001600160801b031683613a24565b613582565b61358281876001600160801b0316600160801b613a24565b9250505b50949350505050565b60008281526004602090815260408083206001600160a01b038516845290915290205460ff16610f1f576135c281613aed565b6135cd836020613aff565b6040516020016135de9291906145d9565b60408051601f198184030181529082905262461bcd60e51b82526108c59160040161465a565b60008060008360020b1261361b578260020b613628565b8260020b6136289061468d565b9050613637620d89e719614193565b60020b81111561366d5760405162461bcd60e51b81526020600482015260016024820152601560fa1b60448201526064016108c5565b60008160011660000361368457600160801b613696565b6ffffcb933bd6fad37aa2d162d1a5940015b70ffffffffffffffffffffffffffffffffff16905060028216156136d55760806136d0826ffff97272373d413259a46990580e213a614118565b901c90505b60048216156136ff5760806136fa826ffff2e50f5f656932ef12357cf3c7fdcc614118565b901c90505b6008821615613729576080613724826fffe5caca7e10e4e61c3624eaa0941cd0614118565b901c90505b601082161561375357608061374e826fffcb9843d60f6159c9db58835c926644614118565b901c90505b602082161561377d576080613778826fff973b41fa98c081472e6896dfb254c0614118565b901c90505b60408216156137a75760806137a2826fff2ea16466c96a3843ec78b326b52861614118565b901c90505b60808216156137d15760806137cc826ffe5dee046a99a2a811c461f1969c3053614118565b901c90505b6101008216156137fc5760806137f7826ffcbe86c7900a88aedcffc83b479aa3a4614118565b901c90505b610200821615613827576080613822826ff987a7253ac413176f2b074cf7815e54614118565b901c90505b61040082161561385257608061384d826ff3392b0822b70005940c7a398e4b70f3614118565b901c90505b61080082161561387d576080613878826fe7159475a2c29b7443b29c7fa6e889d9614118565b901c90505b6110008216156138a85760806138a3826fd097f3bdfd2022b8845ad8f792aa5825614118565b901c90505b6120008216156138d35760806138ce826fa9f746462d870fdf8a65dc1f90e061e5614118565b901c90505b6140008216156138fe5760806138f9826f70d869a156d2a1b890bb3df62baf32f7614118565b901c90505b618000821615613929576080613924826f31be135f97d08fd981231505542fcfa6614118565b901c90505b62010000821615613955576080613950826f09aa508b5b7a84e1c677de54f3e99bc9614118565b901c90505b6202000082161561398057608061397b826e5d6af8dedb81196699c329225ee604614118565b901c90505b620400008216156139aa5760806139a5826d2216e584f5fa1ea926041bedfe98614118565b901c90505b620800008216156139d25760806139cd826b048a170391f7dc42444e8fa2614118565b901c90505b60008460020b13156139ed576139ea81600019614145565b90505b6139fc640100000000826146a9565b15613a08576001613a0b565b60005b613a1c9060ff16602083901c6146bd565b949350505050565b6000808211613a3257600080fd5b60008060001985870985870292508281108382030391505080600003613a5d57508290049050613ae6565b808411613a6957600080fd5b600084868809808403938111909203919050600085613a8a81600019614105565b613a959060016146bd565b16958690049560026003880281188089028203028089028203028089028203028089028203028089028203028089029091030260008290038290046001019490940294049390931791909102925050505b9392505050565b606061080f6001600160a01b03831660145b60606000613b0e836002614118565b613b199060026146bd565b67ffffffffffffffff811115613b3157613b31613d82565b6040519080825280601f01601f191660200182016040528015613b5b576020820181803683370190505b509050600360fc1b81600081518110613b7657613b76614235565b60200101906001600160f81b031916908160001a905350600f60fb1b81600181518110613ba557613ba5614235565b60200101906001600160f81b031916908160001a9053506000613bc9846002614118565b613bd49060016146bd565b90505b6001811115613c59577f303132333435363738396162636465660000000000000000000000000000000085600f1660108110613c1557613c15614235565b1a60f81b828281518110613c2b57613c2b614235565b60200101906001600160f81b031916908160001a90535060049490941c93613c52816146d0565b9050613bd7565b508315613ae65760405162461bcd60e51b815260206004820181905260248201527f537472696e67733a20686578206c656e67746820696e73756666696369656e7460448201526064016108c5565b600060208284031215613cba57600080fd5b81356001600160e01b031981168114613ae657600080fd5b8060020b81146108f857600080fd5b60008060408385031215613cf457600080fd5b8235613cff81613cd2565b91506020830135613d0f81613cd2565b809150509250929050565b6001600160a01b03811681146108f857600080fd5b600060208284031215613d4157600080fd5b8135613ae681613d1a565b600060208284031215613d5e57600080fd5b5035919050565b600060208284031215613d7757600080fd5b8135613ae681613cd2565b634e487b7160e01b600052604160045260246000fd5b604051601f8201601f1916810167ffffffffffffffff81118282101715613dc157613dc1613d82565b604052919050565b61ffff811681146108f857600080fd5b60008082840360e0811215613ded57600080fd5b8335613df881613d1a565b925060c0601f1982011215613e0c57600080fd5b5060405160c0810181811067ffffffffffffffff82111715613e3057613e30613d82565b80604052506020840135815260408401356020820152606084013560408201526080840135606082015260a0840135608082015260c0840135613e7281613dc9565b60a0820152919491935090915050565b60008060408385031215613e9557600080fd5b823591506020830135613d0f81613d1a565b60008060408385031215613eba57600080fd5b8235613ec581613d1a565b946020939093013593505050565b6001600160801b03811681146108f857600080fd5b60008060008060808587031215613efe57600080fd5b8435613f0981613cd2565b93506020850135613f1981613ed3565b92506040850135613f2981613d1a565b91506060850135613f3981613d1a565b939692955090935050565b600060208284031215613f5657600080fd5b813563ffffffff81168114613ae657600080fd5b60008060008060808587031215613f8057600080fd5b8435613f8b81613d1a565b93506020850135613f1981613d1a565b600060208284031215613fad57600080fd5b813562ffffff81168114613ae657600080fd5b634e487b7160e01b600052601160045260246000fd5b60008260020b8260020b028060020b9150808214613ff657613ff6613fc0565b5092915050565b600282810b9082900b03627fffff198112627fffff8213171561080f5761080f613fc0565b60006020828403121561403457600080fd5b8151613ae681613d1a565b805180151581146125fa57600080fd5b600080600080600080600060e0888a03121561406a57600080fd5b875161407581613d1a565b602089015190975061408681613cd2565b604089015190965061409781613dc9565b60608901519095506140a881613dc9565b60808901519094506140b981613dc9565b60a089015190935060ff811681146140d057600080fd5b91506140de60c0890161403f565b905092959891949750929550565b6000602082840312156140fe57600080fd5b5051919050565b8181038181111561080f5761080f613fc0565b808202811582820484141761080f5761080f613fc0565b634e487b7160e01b600052601260045260246000fd5b6000826141545761415461412f565b500490565b60008160020b8360020b806141705761417061412f565b627fffff1982146000198214161561418a5761418a613fc0565b90059392505050565b60008160020b627fffff1981036141ac576141ac613fc0565b60000392915050565b600281810b9083900b01627fffff8113627fffff198212171561080f5761080f613fc0565b60005b838110156141f55781810151838201526020016141dd565b50506000910152565b600082516142108184602087016141da565b9190910192915050565b60006020828403121561422c57600080fd5b613ae68261403f565b634e487b7160e01b600052603260045260246000fd5b6020808252825182820181905260009190848201906040850190845b8181101561428957835163ffffffff1683529284019291840191600101614267565b50909695505050505050565b600067ffffffffffffffff8211156142af576142af613d82565b5060051b60200190565b600082601f8301126142ca57600080fd5b815160206142df6142da83614295565b613d98565b82815260059290921b840181019181810190868411156142fe57600080fd5b8286015b8481101561432257805161431581613d1a565b8352918301918301614302565b509695505050505050565b6000806040838503121561434057600080fd5b825167ffffffffffffffff8082111561435857600080fd5b818501915085601f83011261436c57600080fd5b8151602061437c6142da83614295565b82815260059290921b8401810191818101908984111561439b57600080fd5b948201945b838610156143c95785518060060b81146143ba5760008081fd5b825294820194908201906143a0565b918801519196509093505050808211156143e257600080fd5b506143ef858286016142b9565b9150509250929050565b600682810b9082900b03667fffffffffffff198112667fffffffffffff8213171561080f5761080f613fc0565b60008160060b8360060b8061443d5761443d61412f565b667fffffffffffff1982146000198214161561418a5761418a613fc0565b60008260060b8061446e5761446e61412f565b808360060b0791505092915050565b60008160020b627fffff19810361449657614496613fc0565b6000190192915050565b81516001600160a01b03168152610160810160208301516144cc60208401826001600160a01b03169052565b5060408301516144e3604084018262ffffff169052565b5060608301516144f8606084018260020b9052565b50608083015161450d608084018260020b9052565b5060a083015160a083015260c083015160c083015260e083015160e083015261010080840151818401525061012080840151614553828501826001600160a01b03169052565b505061014092830151919092015290565b6000806000806080858703121561457a57600080fd5b84519350602085015161458c81613ed3565b6040860151606090960151949790965092505050565b6000806000606084860312156145b757600080fd5b83516145c281613ed3565b602085015160409095015190969495509392505050565b7f416363657373436f6e74726f6c3a206163636f756e74200000000000000000008152600083516146118160178501602088016141da565b7f206973206d697373696e6720726f6c6520000000000000000000000000000000601791840191820152835161464e8160288401602088016141da565b01602801949350505050565b60208152600082518060208401526146798160408501602087016141da565b601f01601f19169190910160400192915050565b6000600160ff1b82016146a2576146a2613fc0565b5060000390565b6000826146b8576146b861412f565b500690565b8082018082111561080f5761080f613fc0565b6000816146df576146df613fc0565b50600019019056fea164736f6c6343000812000a",
  "linkReferences": {},
  "deployedLinkReferences": {}
}