{
  "_format": "hh-sol-artifact-1",
  "contractName": "L2InitialLiquidityVault",
  "sourceName": "contracts/L2/vaults/L2InitialLiquidityVault.sol",
  "abi": [
    {
      "anonymous": false,
      "inputs": [
        {
          "indexed": true,
          "internalType": "uint256",
          "name": "tokenId",
          "type": "uint256"
        },
        {
          "indexed": false,
          "internalType": "uint128",
          "name": "liquidity",
          "type": "uint128"
        },
        {
          "indexed": false,
          "internalType": "uint256",
          "name": "amount0",
          "type": "uint256"
        },
        {
          "indexed": false,
          "internalType": "uint256",
          "name": "amount1",
          "type": "uint256"
        }
      ],
      "name": "IncreasedLiquidityInVault",
      "type": "event"
    },
    {
      "anonymous": false,
      "inputs": [
        {
          "indexed": false,
          "internalType": "address",
          "name": "l2Token",
          "type": "address"
        },
        {
          "indexed": false,
          "internalType": "address",
          "name": "pool",
          "type": "address"
        },
        {
          "indexed": false,
          "internalType": "uint256",
          "name": "tokenId",
          "type": "uint256"
        },
        {
          "indexed": false,
          "internalType": "uint128",
          "name": "liquidity",
          "type": "uint128"
        },
        {
          "indexed": false,
          "internalType": "uint256",
          "name": "amount0",
          "type": "uint256"
        },
        {
          "indexed": false,
          "internalType": "uint256",
          "name": "amount1",
          "type": "uint256"
        }
      ],
      "name": "InitialMintedInVault",
      "type": "event"
    },
    {
      "anonymous": false,
      "inputs": [
        {
          "indexed": false,
          "internalType": "address",
          "name": "l2Token",
          "type": "address"
        },
        {
          "indexed": false,
          "internalType": "uint256",
          "name": "totalAllocatedAmount",
          "type": "uint256"
        },
        {
          "indexed": false,
          "internalType": "uint256",
          "name": "initialTosPrice",
          "type": "uint256"
        },
        {
          "indexed": false,
          "internalType": "uint256",
          "name": "initialTokenPrice",
          "type": "uint256"
        },
        {
          "indexed": false,
          "internalType": "uint32",
          "name": "startTime",
          "type": "uint32"
        },
        {
          "indexed": false,
          "internalType": "uint160",
          "name": "initSqrtPriceX96",
          "type": "uint160"
        },
        {
          "indexed": false,
          "internalType": "uint24",
          "name": "fee",
          "type": "uint24"
        }
      ],
      "name": "InitializedInitialLiquidityVault",
      "type": "event"
    },
    {
      "anonymous": false,
      "inputs": [
        {
          "indexed": true,
          "internalType": "bytes32",
          "name": "role",
          "type": "bytes32"
        },
        {
          "indexed": true,
          "internalType": "bytes32",
          "name": "previousAdminRole",
          "type": "bytes32"
        },
        {
          "indexed": true,
          "internalType": "bytes32",
          "name": "newAdminRole",
          "type": "bytes32"
        }
      ],
      "name": "RoleAdminChanged",
      "type": "event"
    },
    {
      "anonymous": false,
      "inputs": [
        {
          "indexed": true,
          "internalType": "bytes32",
          "name": "role",
          "type": "bytes32"
        },
        {
          "indexed": true,
          "internalType": "address",
          "name": "account",
          "type": "address"
        },
        {
          "indexed": true,
          "internalType": "address",
          "name": "sender",
          "type": "address"
        }
      ],
      "name": "RoleGranted",
      "type": "event"
    },
    {
      "anonymous": false,
      "inputs": [
        {
          "indexed": true,
          "internalType": "bytes32",
          "name": "role",
          "type": "bytes32"
        },
        {
          "indexed": true,
          "internalType": "address",
          "name": "account",
          "type": "address"
        },
        {
          "indexed": true,
          "internalType": "address",
          "name": "sender",
          "type": "address"
        }
      ],
      "name": "RoleRevoked",
      "type": "event"
    },
    {
      "anonymous": false,
      "inputs": [
        {
          "indexed": false,
          "internalType": "address",
          "name": "l2Token",
          "type": "address"
        },
        {
          "indexed": false,
          "internalType": "address",
          "name": "pool",
          "type": "address"
        }
      ],
      "name": "SetCreatedPool",
      "type": "event"
    },
    {
      "anonymous": false,
      "inputs": [
        {
          "indexed": false,
          "internalType": "address",
          "name": "newInitializer",
          "type": "address"
        }
      ],
      "name": "SetInitializer",
      "type": "event"
    },
    {
      "anonymous": false,
      "inputs": [
        {
          "indexed": false,
          "internalType": "address",
          "name": "l2Token",
          "type": "address"
        },
        {
          "indexed": false,
          "internalType": "address",
          "name": "pool",
          "type": "address"
        },
        {
          "indexed": false,
          "internalType": "uint160",
          "name": "inSqrtPriceX96",
          "type": "uint160"
        }
      ],
      "name": "SetPoolInitialized",
      "type": "event"
    },
    {
      "anonymous": false,
      "inputs": [
        {
          "indexed": false,
          "internalType": "address",
          "name": "l2Token",
          "type": "address"
        },
        {
          "indexed": false,
          "internalType": "uint32",
          "name": "startTime",
          "type": "uint32"
        }
      ],
      "name": "SetStartTime",
      "type": "event"
    },
    {
      "anonymous": false,
      "inputs": [
        {
          "indexed": false,
          "internalType": "address",
          "name": "_factory",
          "type": "address"
        },
        {
          "indexed": false,
          "internalType": "address",
          "name": "_npm",
          "type": "address"
        },
        {
          "indexed": false,
          "internalType": "address",
          "name": "_ton",
          "type": "address"
        },
        {
          "indexed": false,
          "internalType": "address",
          "name": "_tos",
          "type": "address"
        }
      ],
      "name": "SetUniswapInfo",
      "type": "event"
    },
    {
      "anonymous": false,
      "inputs": [
        {
          "indexed": false,
          "internalType": "address",
          "name": "l2Token",
          "type": "address"
        },
        {
          "indexed": false,
          "internalType": "address",
          "name": "newAdmin",
          "type": "address"
        }
      ],
      "name": "SetVaultAdmin",
      "type": "event"
    },
    {
      "inputs": [],
      "name": "ADMIN_ROLE",
      "outputs": [
        {
          "internalType": "bytes32",
          "name": "",
          "type": "bytes32"
        }
      ],
      "stateMutability": "view",
      "type": "function"
    },
    {
      "inputs": [],
      "name": "DEFAULT_ADMIN_ROLE",
      "outputs": [
        {
          "internalType": "bytes32",
          "name": "",
          "type": "bytes32"
        }
      ],
      "stateMutability": "view",
      "type": "function"
    },
    {
      "inputs": [],
      "name": "POLICY_ROLE",
      "outputs": [
        {
          "internalType": "bytes32",
          "name": "",
          "type": "bytes32"
        }
      ],
      "stateMutability": "view",
      "type": "function"
    },
    {
      "inputs": [],
      "name": "TWAP_PERIOD",
      "outputs": [
        {
          "internalType": "uint32",
          "name": "",
          "type": "uint32"
        }
      ],
      "stateMutability": "view",
      "type": "function"
    },
    {
      "inputs": [
        {
          "internalType": "int24",
          "name": "_tick",
          "type": "int24"
        },
        {
          "internalType": "int24",
          "name": "_tickSpacings",
          "type": "int24"
        }
      ],
      "name": "acceptMaxTick",
      "outputs": [
        {
          "internalType": "int24",
          "name": "",
          "type": "int24"
        }
      ],
      "stateMutability": "view",
      "type": "function"
    },
    {
      "inputs": [
        {
          "internalType": "int24",
          "name": "_tick",
          "type": "int24"
        },
        {
          "internalType": "int24",
          "name": "_tickSpacings",
          "type": "int24"
        }
      ],
      "name": "acceptMinTick",
      "outputs": [
        {
          "internalType": "int24",
          "name": "",
          "type": "int24"
        }
      ],
      "stateMutability": "view",
      "type": "function"
    },
    {
      "inputs": [],
      "name": "acceptSlippagePrice",
      "outputs": [
        {
          "internalType": "int24",
          "name": "",
          "type": "int24"
        }
      ],
      "stateMutability": "view",
      "type": "function"
    },
    {
      "inputs": [],
      "name": "acceptTickChangeInterval",
      "outputs": [
        {
          "internalType": "int24",
          "name": "",
          "type": "int24"
        }
      ],
      "stateMutability": "view",
      "type": "function"
    },
    {
      "inputs": [
        {
          "internalType": "address",
          "name": "account",
          "type": "address"
        }
      ],
      "name": "addAdmin",
      "outputs": [],
      "stateMutability": "nonpayable",
      "type": "function"
    },
    {
      "inputs": [
        {
          "internalType": "address",
          "name": "",
          "type": "address"
        }
      ],
      "name": "aliveImplementation",
      "outputs": [
        {
          "internalType": "bool",
          "name": "",
          "type": "bool"
        }
      ],
      "stateMutability": "view",
      "type": "function"
    },
    {
      "inputs": [
        {
          "internalType": "int24",
          "name": "tickSpacings",
          "type": "int24"
        }
      ],
      "name": "getMaxTick",
      "outputs": [
        {
          "internalType": "int24",
          "name": "",
          "type": "int24"
        }
      ],
      "stateMutability": "pure",
      "type": "function"
    },
    {
      "inputs": [
        {
          "internalType": "int24",
          "name": "tickSpacings",
          "type": "int24"
        }
      ],
      "name": "getMiniTick",
      "outputs": [
        {
          "internalType": "int24",
          "name": "",
          "type": "int24"
        }
      ],
      "stateMutability": "pure",
      "type": "function"
    },
    {
      "inputs": [
        {
          "internalType": "int24",
          "name": "tick",
          "type": "int24"
        },
        {
          "internalType": "uint128",
          "name": "amountIn",
          "type": "uint128"
        },
        {
          "internalType": "address",
          "name": "baseToken",
          "type": "address"
        },
        {
          "internalType": "address",
          "name": "quoteToken",
          "type": "address"
        }
      ],
      "name": "getQuoteAtTick",
      "outputs": [
        {
          "internalType": "uint256",
          "name": "amountOut",
          "type": "uint256"
        }
      ],
      "stateMutability": "pure",
      "type": "function"
    },
    {
      "inputs": [
        {
          "internalType": "bytes32",
          "name": "role",
          "type": "bytes32"
        }
      ],
      "name": "getRoleAdmin",
      "outputs": [
        {
          "internalType": "bytes32",
          "name": "",
          "type": "bytes32"
        }
      ],
      "stateMutability": "view",
      "type": "function"
    },
    {
      "inputs": [
        {
          "internalType": "uint24",
          "name": "_fee",
          "type": "uint24"
        }
      ],
      "name": "getTickSpacing",
      "outputs": [
        {
          "internalType": "int24",
          "name": "tickSpacings",
          "type": "int24"
        }
      ],
      "stateMutability": "pure",
      "type": "function"
    },
    {
      "inputs": [
        {
          "internalType": "bytes32",
          "name": "role",
          "type": "bytes32"
        },
        {
          "internalType": "address",
          "name": "account",
          "type": "address"
        }
      ],
      "name": "grantRole",
      "outputs": [],
      "stateMutability": "nonpayable",
      "type": "function"
    },
    {
      "inputs": [
        {
          "internalType": "bytes32",
          "name": "role",
          "type": "bytes32"
        },
        {
          "internalType": "address",
          "name": "account",
          "type": "address"
        }
      ],
      "name": "hasRole",
      "outputs": [
        {
          "internalType": "bool",
          "name": "",
          "type": "bool"
        }
      ],
      "stateMutability": "view",
      "type": "function"
    },
    {
      "inputs": [
        {
          "internalType": "address",
          "name": "l2Token",
          "type": "address"
        },
        {
          "components": [
            {
              "internalType": "uint256",
              "name": "totalAllocatedAmount",
              "type": "uint256"
            },
            {
              "internalType": "uint256",
              "name": "tosPrice",
              "type": "uint256"
            },
            {
              "internalType": "uint256",
              "name": "tokenPrice",
              "type": "uint256"
            },
            {
              "internalType": "uint256",
              "name": "initSqrtPrice",
              "type": "uint256"
            },
            {
              "internalType": "uint32",
              "name": "startTime",
              "type": "uint32"
            },
            {
              "internalType": "uint16",
              "name": "fee",
              "type": "uint16"
            }
          ],
          "internalType": "struct LibProject.InitalParameterInitialLiquidityVault",
          "name": "params",
          "type": "tuple"
        }
      ],
      "name": "initialize",
      "outputs": [],
      "stateMutability": "nonpayable",
      "type": "function"
    },
    {
      "inputs": [],
      "name": "initializer",
      "outputs": [
        {
          "internalType": "address",
          "name": "",
          "type": "address"
        }
      ],
      "stateMutability": "view",
      "type": "function"
    },
    {
      "inputs": [
        {
          "internalType": "address",
          "name": "account",
          "type": "address"
        }
      ],
      "name": "isAdmin",
      "outputs": [
        {
          "internalType": "bool",
          "name": "",
          "type": "bool"
        }
      ],
      "stateMutability": "view",
      "type": "function"
    },
    {
      "inputs": [
        {
          "internalType": "address",
          "name": "l2Token",
          "type": "address"
        },
        {
          "internalType": "address",
          "name": "account",
          "type": "address"
        }
      ],
      "name": "isVaultAdmin",
      "outputs": [
        {
          "internalType": "bool",
          "name": "",
          "type": "bool"
        }
      ],
      "stateMutability": "view",
      "type": "function"
    },
    {
      "inputs": [],
      "name": "l2ProjectManager",
      "outputs": [
        {
          "internalType": "address",
          "name": "",
          "type": "address"
        }
      ],
      "stateMutability": "view",
      "type": "function"
    },
    {
      "inputs": [
        {
          "internalType": "address",
          "name": "l2Token",
          "type": "address"
        },
        {
          "internalType": "uint256",
          "name": "tosAmount",
          "type": "uint256"
        }
      ],
      "name": "mint",
      "outputs": [],
      "stateMutability": "nonpayable",
      "type": "function"
    },
    {
      "inputs": [],
      "name": "nonfungiblePositionManager",
      "outputs": [
        {
          "internalType": "address",
          "name": "",
          "type": "address"
        }
      ],
      "stateMutability": "view",
      "type": "function"
    },
    {
      "inputs": [],
      "name": "pauseProxy",
      "outputs": [
        {
          "internalType": "bool",
          "name": "",
          "type": "bool"
        }
      ],
      "stateMutability": "view",
      "type": "function"
    },
    {
      "inputs": [
        {
          "internalType": "address",
          "name": "",
          "type": "address"
        }
      ],
      "name": "poolInfo",
      "outputs": [
        {
          "internalType": "address",
          "name": "pool",
          "type": "address"
        },
        {
          "internalType": "uint256",
          "name": "totalAllocatedAmount",
          "type": "uint256"
        },
        {
          "internalType": "uint256",
          "name": "initialTosPrice",
          "type": "uint256"
        },
        {
          "internalType": "uint256",
          "name": "initialTokenPrice",
          "type": "uint256"
        },
        {
          "internalType": "uint256",
          "name": "lpToken",
          "type": "uint256"
        },
        {
          "internalType": "uint32",
          "name": "startTime",
          "type": "uint32"
        },
        {
          "internalType": "uint160",
          "name": "initSqrtPriceX96",
          "type": "uint160"
        },
        {
          "internalType": "uint24",
          "name": "fee",
          "type": "uint24"
        },
        {
          "internalType": "bool",
          "name": "boolReadyToCreatePool",
          "type": "bool"
        }
      ],
      "stateMutability": "view",
      "type": "function"
    },
    {
      "inputs": [
        {
          "internalType": "uint256",
          "name": "",
          "type": "uint256"
        }
      ],
      "name": "proxyImplementation",
      "outputs": [
        {
          "internalType": "address",
          "name": "",
          "type": "address"
        }
      ],
      "stateMutability": "view",
      "type": "function"
    },
    {
      "inputs": [
        {
          "internalType": "address",
          "name": "account",
          "type": "address"
        }
      ],
      "name": "removeAdmin",
      "outputs": [],
      "stateMutability": "nonpayable",
      "type": "function"
    },
    {
      "inputs": [
        {
          "internalType": "bytes32",
          "name": "role",
          "type": "bytes32"
        },
        {
          "internalType": "address",
          "name": "account",
          "type": "address"
        }
      ],
      "name": "renounceRole",
      "outputs": [],
      "stateMutability": "nonpayable",
      "type": "function"
    },
    {
      "inputs": [
        {
          "internalType": "bytes32",
          "name": "role",
          "type": "bytes32"
        },
        {
          "internalType": "address",
          "name": "account",
          "type": "address"
        }
      ],
      "name": "revokeRole",
      "outputs": [],
      "stateMutability": "nonpayable",
      "type": "function"
    },
    {
      "inputs": [
        {
          "internalType": "bytes4",
          "name": "",
          "type": "bytes4"
        }
      ],
      "name": "selectorImplementation",
      "outputs": [
        {
          "internalType": "address",
          "name": "",
          "type": "address"
        }
      ],
      "stateMutability": "view",
      "type": "function"
    },
    {
      "inputs": [
        {
          "internalType": "int24",
          "name": "_value",
          "type": "int24"
        }
      ],
      "name": "setAcceptSlippagePrice",
      "outputs": [],
      "stateMutability": "nonpayable",
      "type": "function"
    },
    {
      "inputs": [
        {
          "internalType": "int24",
          "name": "_interval",
          "type": "int24"
        }
      ],
      "name": "setAcceptTickChangeInterval",
      "outputs": [],
      "stateMutability": "nonpayable",
      "type": "function"
    },
    {
      "inputs": [
        {
          "internalType": "address",
          "name": "l2Token",
          "type": "address"
        }
      ],
      "name": "setCreatePool",
      "outputs": [],
      "stateMutability": "nonpayable",
      "type": "function"
    },
    {
      "inputs": [
        {
          "internalType": "address",
          "name": "_initializer",
          "type": "address"
        }
      ],
      "name": "setInitializer",
      "outputs": [],
      "stateMutability": "nonpayable",
      "type": "function"
    },
    {
      "inputs": [
        {
          "internalType": "address",
          "name": "_l2ProjectManager",
          "type": "address"
        }
      ],
      "name": "setL2ProjectManager",
      "outputs": [],
      "stateMutability": "nonpayable",
      "type": "function"
    },
    {
      "inputs": [
        {
          "internalType": "address",
          "name": "l2Token",
          "type": "address"
        },
        {
          "internalType": "uint32",
          "name": "_startTime",
          "type": "uint32"
        }
      ],
      "name": "setStartTime",
      "outputs": [],
      "stateMutability": "nonpayable",
      "type": "function"
    },
    {
      "inputs": [
        {
          "internalType": "uint32",
          "name": "value",
          "type": "uint32"
        }
      ],
      "name": "setTWAP_PERIOD",
      "outputs": [],
      "stateMutability": "nonpayable",
      "type": "function"
    },
    {
      "inputs": [
        {
          "internalType": "address",
          "name": "_poolfactory",
          "type": "address"
        },
        {
          "internalType": "address",
          "name": "_npm",
          "type": "address"
        },
        {
          "internalType": "address",
          "name": "_ton",
          "type": "address"
        },
        {
          "internalType": "address",
          "name": "_tos",
          "type": "address"
        }
      ],
      "name": "setUniswapInfo",
      "outputs": [],
      "stateMutability": "nonpayable",
      "type": "function"
    },
    {
      "inputs": [
        {
          "internalType": "address",
          "name": "l2Token",
          "type": "address"
        },
        {
          "internalType": "address",
          "name": "_newAdmin",
          "type": "address"
        }
      ],
      "name": "setVaultAdmin",
      "outputs": [],
      "stateMutability": "nonpayable",
      "type": "function"
    },
    {
      "inputs": [
        {
          "internalType": "bytes4",
          "name": "interfaceId",
          "type": "bytes4"
        }
      ],
      "name": "supportsInterface",
      "outputs": [
        {
          "internalType": "bool",
          "name": "",
          "type": "bool"
        }
      ],
      "stateMutability": "view",
      "type": "function"
    },
    {
      "inputs": [],
      "name": "tickSpacings",
      "outputs": [
        {
          "internalType": "int24",
          "name": "",
          "type": "int24"
        }
      ],
      "stateMutability": "view",
      "type": "function"
    },
    {
      "inputs": [],
      "name": "ton",
      "outputs": [
        {
          "internalType": "address",
          "name": "",
          "type": "address"
        }
      ],
      "stateMutability": "view",
      "type": "function"
    },
    {
      "inputs": [],
      "name": "tos",
      "outputs": [
        {
          "internalType": "address",
          "name": "",
          "type": "address"
        }
      ],
      "stateMutability": "view",
      "type": "function"
    },
    {
      "inputs": [
        {
          "internalType": "address",
          "name": "newAdmin",
          "type": "address"
        }
      ],
      "name": "transferAdmin",
      "outputs": [],
      "stateMutability": "nonpayable",
      "type": "function"
    },
    {
      "inputs": [],
      "name": "uniswapV3Factory",
      "outputs": [
        {
          "internalType": "address",
          "name": "",
          "type": "address"
        }
      ],
      "stateMutability": "view",
      "type": "function"
    },
    {
      "inputs": [
        {
          "internalType": "address",
          "name": "",
          "type": "address"
        }
      ],
      "name": "vaultAdminOfToken",
      "outputs": [
        {
          "internalType": "address",
          "name": "",
          "type": "address"
        }
      ],
      "stateMutability": "view",
      "type": "function"
    },
    {
      "inputs": [
        {
          "internalType": "address",
          "name": "l2Token",
          "type": "address"
        }
      ],
      "name": "viewVaultInfo",
      "outputs": [
        {
          "components": [
            {
              "internalType": "address",
              "name": "pool",
              "type": "address"
            },
            {
              "internalType": "uint256",
              "name": "totalAllocatedAmount",
              "type": "uint256"
            },
            {
              "internalType": "uint256",
              "name": "initialTosPrice",
              "type": "uint256"
            },
            {
              "internalType": "uint256",
              "name": "initialTokenPrice",
              "type": "uint256"
            },
            {
              "internalType": "uint256",
              "name": "lpToken",
              "type": "uint256"
            },
            {
              "internalType": "uint32",
              "name": "startTime",
              "type": "uint32"
            },
            {
              "internalType": "uint160",
              "name": "initSqrtPriceX96",
              "type": "uint160"
            },
            {
              "internalType": "uint24",
              "name": "fee",
              "type": "uint24"
            },
            {
              "internalType": "bool",
              "name": "boolReadyToCreatePool",
              "type": "bool"
            }
          ],
          "internalType": "struct LibInitialLiquidityVault.PoolInfo",
          "name": "",
          "type": "tuple"
        }
      ],
      "stateMutability": "view",
      "type": "function"
    }
  ],
  "bytecode": "0x60806040526005805460ff1916600117905534801561001d57600080fd5b5061520f8061002d6000396000f3fe608060405234801561001057600080fd5b50600436106103205760003560e01c806375829def116101a7578063a22f84f0116100ee578063b9c56c8c11610097578063d547741f11610071578063d547741f1461084a578063dc861da61461085d578063ea8668151461096357600080fd5b8063b9c56c8c14610811578063bef6dc8b14610824578063cc48b9471461083757600080fd5b8063b224f99f116100c8578063b224f99f146107c2578063b44a2722146107d5578063b911135f146107e857600080fd5b8063a22f84f014610789578063a41823431461079c578063aec13758146107af57600080fd5b806391d14854116101505780639cbbbe861161012a5780639cbbbe86146107615780639ce110d71461076e578063a217fddf1461078157600080fd5b806391d148541461063d578063971c57cc146106765780639a7b5f111461068957600080fd5b80637fc46ba8116101815780637fc46ba8146105ee578063826bd4bf1461061757806389f395de1461062a57600080fd5b806375829def1461058857806375b238fc1461059b5780637ca25184146105c257600080fd5b806340c10f191161026b57806352351e85116102145780635c24b074116101ee5780635c24b0741461055557806363a8fd8914610568578063704802751461057557600080fd5b806352351e8514610507578063550d01a31461051f5780635b5491821461054257600080fd5b806345a411481161024557806345a411481461049f57806350d2a276146104b357806351e8152a146104f457600080fd5b806340c10f191461046657806343c57a2714610479578063442bede61461048c57600080fd5b80632c00778a116102cd57806335d20f8a116102a757806335d20f8a1461042c57806336568abe1461044057806337c1cfa51461045357600080fd5b80632c00778a146103f35780632f2ff15d1461040657806335b9ac661461041957600080fd5b806322985246116102fe5780632298524614610388578063248a9ca3146103bd57806324d7806c146103e057600080fd5b806301ffc9a7146103255780630f36edbf1461034d5780631785f53c14610373575b600080fd5b61033861033336600461451c565b610976565b60405190151581526020015b60405180910390f35b61036061035b366004614555565b6109ad565b60405160029190910b8152602001610344565b6103866103813660046145a3565b610a09565b005b6103af7ffb5864e8ff833c3cb2d2d08505e82ff02a43554c74a35d4f5a64e8526127831181565b604051908152602001610344565b6103af6103cb3660046145c0565b60009081526004602052604090206001015490565b6103386103ee3660046145a3565b610a89565b6103866104013660046145d9565b610ac9565b6103866104143660046145f6565b610bbf565b61038661042736600461461b565b610be9565b600b5461036090600160d81b900460020b81565b61038661044e3660046145f6565b610df3565b6103866104613660046145a3565b610e7f565b610386610474366004614649565b6114c2565b6103af61048736600461468a565b611c2d565b61038661049a366004614751565b611c44565b600b5461036090600160c01b900460020b81565b6104dc6104c136600461451c565b6003602052600090815260409020546001600160a01b031681565b6040516001600160a01b039091168152602001610344565b61033861050236600461461b565b6121ef565b6005546104dc9061010090046001600160a01b031681565b61033861052d3660046145a3565b60026020526000908152604090205460ff1681565b600a546104dc906001600160a01b031681565b6103866105633660046145a3565b61222c565b6000546103389060ff1681565b6103866105833660046145a3565b612351565b6103866105963660046145a3565b6123c9565b6103af7fdf8b4c520ffe197c5343c6f5aec59570151ef9a492f2c624fd45ddde6135ec4281565b600b546105d990600160a01b900463ffffffff1681565b60405163ffffffff9091168152602001610344565b6104dc6105fc3660046145a3565b6007602052600090815260409020546001600160a01b031681565b6103606106253660046145d9565b612519565b6009546104dc906001600160a01b031681565b61033861064b3660046145f6565b60009182526004602090815260408084206001600160a01b0393909316845291905290205460ff1690565b610386610684366004614801565b612534565b6107016106973660046145a3565b600d602052600090815260409020805460018201546002830154600384015460048501546005909501546001600160a01b039485169593949293919263ffffffff821691640100000000810490911690600160c01b810462ffffff1690600160d81b900460ff1689565b604080516001600160a01b039a8b16815260208101999099528801969096526060870194909452608086019290925263ffffffff1660a085015290931660c083015262ffffff90921660e082015290151561010082015261012001610344565b600c546103609060020b81565b6006546104dc906001600160a01b031681565b6103af600081565b6103606107973660046145d9565b6126f9565b6103866107aa3660046145a3565b612714565b6103606107bd366004614555565b61281f565b6103866107d0366004614836565b612873565b600b546104dc906001600160a01b031681565b6104dc6107f63660046145c0565b6001602052600090815260409020546001600160a01b031681565b61038661081f3660046145d9565b612970565b610386610832366004614851565b612a66565b6008546104dc906001600160a01b031681565b6103866108583660046145f6565b612cd5565b61095661086b3660046145a3565b6040805161012081018252600080825260208201819052918101829052606081018290526080810182905260a0810182905260c0810182905260e08101829052610100810191909152506001600160a01b039081166000908152600d6020908152604091829020825161012081018452815485168152600182015492810192909252600281015492820192909252600382015460608201526004820154608082015260059091015463ffffffff811660a0830152640100000000810490921660c0820152600160c01b820462ffffff1660e0820152600160d81b90910460ff16151561010082015290565b6040516103449190614882565b610360610971366004614915565b612cfa565b60006001600160e01b03198216637965db0b60e01b14806109a757506301ffc9a760e01b6001600160e01b03198316145b92915050565b6000806109b983612519565b600b549091506000906109d690600160c01b900460020b85614950565b6109e09086614977565b90508060020b8260020b12156109f95791506109a79050565b5090506109a7565b505092915050565b610a1233610a89565b610a5c5760405162461bcd60e51b8152602060048201526022602482015260008051602061511c83398151915260448201526134b760f11b60648201526084015b60405180910390fd5b610a867fdf8b4c520ffe197c5343c6f5aec59570151ef9a492f2c624fd45ddde6135ec4282610df3565b50565b6001600160a01b03811660009081527f2fb794d17134dfdec181ddbac1babb5ab1eb140204ef4d982f294e7fc8b69022602052604081205460ff166109a7565b610ad233610a89565b610b175760405162461bcd60e51b8152602060048201526022602482015260008051602061511c83398151915260448201526134b760f11b6064820152608401610a53565b60008160020b13610b535760405162461bcd60e51b8152600401610a53906020808252600490820152637a65726f60e01b604082015260600190565b600b54600282810b600160d81b909204900b03610b9b5760405162461bcd60e51b8152600401610a539060208082526004908201526373616d6560e01b604082015260600190565b600b805462ffffff909216600160d81b0262ffffff60d81b19909216919091179055565b600082815260046020526040902060010154610bda81612d54565b610be48383612d5e565b505050565b816001600160a01b038116610c255760405162461bcd60e51b81526020600482015260026024820152612d1960f11b6044820152606401610a53565b816001600160a01b038116610c615760405162461bcd60e51b81526020600482015260026024820152612d1960f11b6044820152606401610a53565b610cb66040518060400160405280601a81526020017f6f6e6c794c3250726f6a6563744d616e6167657220257320257300000000000081525033600560019054906101000a90046001600160a01b0316612e00565b60055461010090046001600160a01b031615801590610ce4575060055461010090046001600160a01b031633145b610d305760405162461bcd60e51b815260206004820152601e60248201527f63616c6c6572206973206e6f74206c3250726f6a6563744d616e6167657200006044820152606401610a53565b6001600160a01b03848116600090815260076020526040902054818516911603610d855760405162461bcd60e51b8152600401610a539060208082526004908201526373616d6560e01b604082015260600190565b6001600160a01b0384811660008181526007602090815260409182902080546001600160a01b031916948816948517905581519283528201929092527fb00bb4c229aff6156cc8e2c767c571665e1927c09fe083ec055956a5a402619391015b60405180910390a150505050565b6001600160a01b0381163314610e715760405162461bcd60e51b815260206004820152602f60248201527f416363657373436f6e74726f6c3a2063616e206f6e6c792072656e6f756e636560448201527f20726f6c657320666f722073656c6600000000000000000000000000000000006064820152608401610a53565b610e7b8282612e47565b5050565b6001600160a01b0381166000908152600d60205260409020600501548190600160d81b900460ff1615610eff5760405162461bcd60e51b815260206004820152602260248201527f5661756c743a20616c726561647920726561647920746f20437265617465506f6044820152611bdb60f21b6064820152608401610a53565b60055460ff16610f3a5760405162461bcd60e51b8152600401610a53906020808252600490820152636c6f636b60e01b604082015260600190565b6005805460ff191681556001600160a01b0383166000908152600d602052604090209081015463ffffffff1615801590610f805750600581015463ffffffff4281169116105b610fcc5760405162461bcd60e51b815260206004820152601960248201527f537461727454696d6520686173206e6f74207061737365642e000000000000006044820152606401610a53565b80546001600160a01b0316156110245760405162461bcd60e51b815260206004820152600f60248201527f616c7265616479206372656174656400000000000000000000000000000000006044820152606401610a53565b600581015464010000000090046001600160a01b03166110865760405162461bcd60e51b815260206004820152601560248201527f7a65726f20696e697453717274507269636558393600000000000000000000006044820152606401610a53565b600a546009546005830154604051630b4c774160e11b81526001600160a01b0392831660048201528683166024820152600160c01b90910462ffffff1660448201526000929190911690631698ee8290606401602060405180830381865afa1580156110f6573d6000803e3d6000fd5b505050506040513d601f19601f8201168201806040525081019061111a919061499c565b90506001600160a01b03811661121b57600a54600954600584015460405163a167129560e01b81526001600160a01b0392831660048201528783166024820152600160c01b90910462ffffff166044820152600092919091169063a1671295906064016020604051808303816000875af115801561119c573d6000803e3d6000fd5b505050506040513d601f19601f820116820180604052508101906111c0919061499c565b90506001600160a01b0381166112185760405162461bcd60e51b815260206004820152600f60248201527f637265617465506f6f6c206661696c00000000000000000000000000000000006044820152606401610a53565b90505b81546001600160a01b0382166001600160a01b0319909116811783556005830180547fffffffff00ffffffffffffffffffffffffffffffffffffffffffffffffffffff16600160d81b17905560408051633850c7bd60e01b8152905160009291633850c7bd9160048083019260e09291908290030181865afa1580156112a5573d6000803e3d6000fd5b505050506040513d601f19601f820116820180604052508101906112c991906149c9565b5050505050509050806001600160a01b03166000036113a557600583015460405163f637731d60e01b81526401000000009091046001600160a01b03908116600483015283169063f637731d90602401600060405180830381600087803b15801561133357600080fd5b505af1158015611347573d6000803e3d6000fd5b505050506005830154604080516001600160a01b038881168252858116602083015264010000000090930490921682820152517fca9098798fa03760d7709c3305b3b049d2c71fa6e891a83a36fe90a15eeab7809181900360600190a15b604080516001600160a01b038088168252841660208201527ffb9092f7bd4a3c6c55439411fb56fe4d44878125340b674c6ab5b5dda38d0b1c910160405180910390a16000826001600160a01b0316633850c7bd6040518163ffffffff1660e01b815260040160e060405180830381865afa158015611428573d6000803e3d6000fd5b505050506040513d601f19601f8201168201806040525081019061144c91906149c9565b5050505050509050806001600160a01b03166000036114ad5760405162461bcd60e51b815260206004820152601260248201527f7a65726f205f73717274507269636558393600000000000000000000000000006044820152606401610a53565b50506005805460ff1916600117905550505050565b6001600160a01b0382166000908152600d60205260409020600501548290600160d81b900460ff166115365760405162461bcd60e51b815260206004820152601e60248201527f5661756c743a206e6f7420726561647920746f20437265617465506f6f6c00006044820152606401610a53565b818060000361156c5760405162461bcd60e51b81526020600482015260026024820152615a3160f01b6044820152606401610a53565b60055460ff166115a75760405162461bcd60e51b8152600401610a53906020808252600490820152636c6f636b60e01b604082015260600190565b6005805460ff191690556009546040516370a0823160e01b81523060048201526000916001600160a01b0316906370a0823190602401602060405180830381865afa1580156115fa573d6000803e3d6000fd5b505050506040513d601f19601f8201168201806040525081019061161e9190614a66565b6040516370a0823160e01b81523060048201529091506000906001600160a01b038716906370a0823190602401602060405180830381865afa158015611668573d6000803e3d6000fd5b505050506040513d601f19601f8201168201806040525081019061168c9190614a66565b9050670de0b6b3a7640000821180156116ac5750670de0b6b3a764000081115b6116f85760405162461bcd60e51b815260206004820152601760248201527f62616c616e636520697320696e73756666696369656e740000000000000000006044820152606401610a53565b818511156117485760405162461bcd60e51b815260206004820152601960248201527f746f42616c616e636520697320696e73756666696369656e74000000000000006044820152606401610a53565b600b54600160c01b900460020b60000361177257600b805462ffffff60c01b1916600160c31b1790555b600b54600160d81b900460020b60000361179c57600b805462ffffff60d81b1916600560d91b1790555b600b54600160a01b900463ffffffff166000036117db57600b805463ffffffff60a01b1916747800000000000000000000000000000000000000001790555b6001600160a01b038681166000908152600d602090815260408083208151610120810183528154861680825260018301549482019490945260028201548184015260038201546060820152600480830154608083015260059092015463ffffffff811660a0830152640100000000810490961660c0820152600160c01b860462ffffff1660e080830191909152600160d81b90960460ff1615156101008201528251633850c7bd60e01b815292519095859493633850c7bd9381810193918290030181865afa1580156118b2573d6000803e3d6000fd5b505050506040513d601f19601f820116820180604052508101906118d691906149c9565b5050505050915091506000826001600160a01b0316116119385760405162461bcd60e51b815260206004820152601760248201527f706f6f6c206973206e6f7420696e697469616c697a65640000000000000000006044820152606401610a53565b8251600b5460009161195691600160a01b900463ffffffff16612eca565b90508160020b61196d8261035b8760e00151612cfa565b60020b13158015611993575061198a816107bd8660e00151612cfa565b60020b8260020b125b6119eb5760405162461bcd60e51b8152602060048201526024808201527f49742773206e6f7420616c6c6f776564206368616e676564207469636b2072616044820152633733b29760e11b6064820152608401610a53565b50600080600085600001516001600160a01b0316630dfe16816040518163ffffffff1660e01b8152600401602060405180830381865afa158015611a33573d6000803e3d6000fd5b505050506040513d601f19601f82011682018060405250810190611a57919061499c565b6009549091506001600160a01b03808316911614611aee57600954611a899085908d906001600160a01b03168f611c2d565b92508a915086831115611ade5760405162461bcd60e51b815260206004820152601c60248201527f746f6b656e42616c616e636520697320696e73756666696369656e74000000006044820152606401610a53565b611ae98c8385613089565b611b68565b6009548b9350611b0b90859085906001600160a01b03168f611c2d565b915086821115611b5d5760405162461bcd60e51b815260206004820152601c60248201527f746f6b656e42616c616e636520697320696e73756666696369656e74000000006044820152606401610a53565b611b688c8484613089565b600b54600090606490611b8590600160d81b900460020b82614a7f565b611b8f9086614a92565b611b999190614abf565b600b54909150600090606490611bb990600160d81b900460020b82614a7f565b611bc39086614a92565b611bcd9190614abf565b6001600160a01b038f166000908152600d602052604081206004015491925003611c0357611bfe8e8686858561356b565b611c10565b611c108e8686858561394f565b50506005805460ff19166001179055505050505050505050505050565b6000611c3b85858585613ae4565b95945050505050565b81611c676040518060600160405280602b815260200161517a602b913982613bf2565b611c896040518060600160405280602e81526020016150ee602e913933613bf2565b611cbb6040518060600160405280603481526020016151cf6034913960055461010090046001600160a01b0316613bf2565b611cf76040518060600160405280603e815260200161513c603e91396001600160a01b0380841660009081526007602052604090205416613bf2565b60055461010090046001600160a01b0316331480611d5157506001600160a01b0381811660009081526007602052604090205416151580611d5157506001600160a01b038181166000908152600760205260409020541633145b611dc35760405162461bcd60e51b815260206004820152602c60248201527f63616c6c6572206973206e6f742061207661756c7441646d696e206f7220507260448201527f6f6a6563744d616e6167657200000000000000000000000000000000000000006064820152608401610a53565b600a546001600160a01b031615801590611de75750600b546001600160a01b031615155b8015611dfd57506009546001600160a01b031615155b611e495760405162461bcd60e51b815260206004820152601860248201527f5661756c743a206265666f726520736574556e697377617000000000000000006044820152606401610a53565b611e886040518060400160405280601881526020017f696e697469616c697a6520696e206c32546f6b656e202573000000000000000081525084613bf2565b6001600160a01b0383166000908152600d602052604090206001015415611ef15760405162461bcd60e51b815260206004820152601360248201527f616c726561647920696e697469616c697a6564000000000000000000000000006044820152606401610a53565b815115801590611f045750602082015115155b8015611f135750604082015115155b8015611f225750606082015115155b8015611f35575060a082015161ffff1615155b611fcd5760405162461bcd60e51b815260206004820152605460248201527f7a65726f20746f74616c416c6c6f6361746564416d6f756e74206f7220746f7360448201527f5072696365206f7220746f6b656e5072696365206f7220696e6974537172745060648201527f72696365583936206f7220737461727454696d65000000000000000000000000608482015260a401610a53565b4263ffffffff16826080015163ffffffff161161202c5760405162461bcd60e51b815260206004820152601460248201527f537461727454696d6520686173207061737365640000000000000000000000006044820152606401610a53565b61204f6040518060600160405280602a81526020016151a5602a91398351613c37565b6005548251612073916001600160a01b038681169261010090920416903090613c7c565b6120b16040518060400160405280601c81526020017f696e697469616c697a6520736166655472616e7366657246726f6d2000000000815250613da0565b6001600160a01b038084166000908152600d602090815260409182902085516001820181905591860151600282018190558684015160038301819055606088015160058401805460808b015160a08c0151600160c01b61ffff8216027fffffffffff000000ffffffffffffffffffffffffffffffffffffffff000000009b8616640100000000029b909b167fffffffffff0000000000000000000000000000000000000000000000000000009093169290921763ffffffff82161799909917909155955193967f060a95341b2743fc4109ee31674ef362aca6cdea36c46a5ed759920b83e244b096610de5968c969095949391906001600160a01b03978816815260208101969096526040860194909452606085019290925263ffffffff16608084015290921660a082015261ffff9190911660c082015260e00190565b60006001600160a01b0382161580159061222557506001600160a01b038381166000908152600760205260409020548116908316145b9392505050565b806001600160a01b0381166122685760405162461bcd60e51b81526020600482015260026024820152612d1960f11b6044820152606401610a53565b61227133610a89565b6122b65760405162461bcd60e51b8152602060048201526022602482015260008051602061511c83398151915260448201526134b760f11b6064820152608401610a53565b6006546001600160a01b038084169116036122fc5760405162461bcd60e51b8152600401610a539060208082526004908201526373616d6560e01b604082015260600190565b600680546001600160a01b0319166001600160a01b0384169081179091556040519081527f2a2bf2572e82958ab47f7049e07d49aab236a5f6d26b804b1ce51da119c6d9d09060200160405180910390a15050565b61235a33610a89565b61239f5760405162461bcd60e51b8152602060048201526022602482015260008051602061511c83398151915260448201526134b760f11b6064820152608401610a53565b610a867fdf8b4c520ffe197c5343c6f5aec59570151ef9a492f2c624fd45ddde6135ec4282610bbf565b6123d233610a89565b6124175760405162461bcd60e51b8152602060048201526022602482015260008051602061511c83398151915260448201526134b760f11b6064820152608401610a53565b6001600160a01b03811661246d5760405162461bcd60e51b815260206004820152601860248201527f41636365737369626c653a207a65726f206164647265737300000000000000006044820152606401610a53565b6001600160a01b03811633036124c55760405162461bcd60e51b815260206004820152601660248201527f41636365737369626c653a2073616d652061646d696e000000000000000000006044820152606401610a53565b6124ef7fdf8b4c520ffe197c5343c6f5aec59570151ef9a492f2c624fd45ddde6135ec4282610bbf565b610a867fdf8b4c520ffe197c5343c6f5aec59570151ef9a492f2c624fd45ddde6135ec4233610df3565b60008161252a81620d89e719614ad3565b6109a79190614950565b6001600160a01b038083166000908152600760205260409020548391161580159061257857506001600160a01b038181166000908152600760205260409020541633145b6125d25760405162461bcd60e51b815260206004820152602560248201527f63616c6c6572206973206e6f742061207661756c7441646d696e204f66206c326044820152642a37b5b2b760d91b6064820152608401610a53565b6001600160a01b0383166000908152600d60205260409020600581015463ffffffff1642106126435760405162461bcd60e51b815260206004820152601460248201527f537461727454696d6520686173207061737365640000000000000000000000006044820152606401610a53565b600581015463ffffffff80851691160361269f5760405162461bcd60e51b815260206004820152600e60248201527f73616d6520537461727454696d650000000000000000000000000000000000006044820152606401610a53565b60058101805463ffffffff191663ffffffff8516908117909155604080516001600160a01b038716815260208101929092527f1266d1525c8a4b88d83deeed8ccc3a233c359b7bd54f50c0b4ba71c4a330f5b59101610de5565b6000818061270a620d89e719614b0d565b61252a9190614ad3565b806001600160a01b0381166127505760405162461bcd60e51b81526020600482015260026024820152612d1960f11b6044820152606401610a53565b61275933610a89565b61279e5760405162461bcd60e51b8152602060048201526022602482015260008051602061511c83398151915260448201526134b760f11b6064820152608401610a53565b6005546001600160a01b0380841661010090920416036127e95760405162461bcd60e51b8152600401610a539060208082526004908201526373616d6560e01b604082015260600190565b50600580546001600160a01b039092166101000274ffffffffffffffffffffffffffffffffffffffff0019909216919091179055565b60008061282b836126f9565b600b5490915060009061284890600160c01b900460020b85614950565b6128529086614b2f565b90508060020b8260020b121561286a575090506109a7565b91506109a79050565b61287c33610a89565b6128c15760405162461bcd60e51b8152602060048201526022602482015260008051602061511c83398151915260448201526134b760f11b6064820152608401610a53565b60008163ffffffff16116129005760405162461bcd60e51b8152600401610a53906020808252600490820152637a65726f60e01b604082015260600190565b600b5463ffffffff808316600160a01b909204160361294a5760405162461bcd60e51b8152600401610a539060208082526004908201526373616d6560e01b604082015260600190565b600b805463ffffffff909216600160a01b0263ffffffff60a01b19909216919091179055565b61297933610a89565b6129be5760405162461bcd60e51b8152602060048201526022602482015260008051602061511c83398151915260448201526134b760f11b6064820152608401610a53565b60008160020b136129fa5760405162461bcd60e51b8152600401610a53906020808252600490820152637a65726f60e01b604082015260600190565b600b54600282810b600160c01b909204900b03612a425760405162461bcd60e51b8152600401610a539060208082526004908201526373616d6560e01b604082015260600190565b600b805462ffffff909216600160c01b0262ffffff60c01b19909216919091179055565b612a6f33610a89565b612ab45760405162461bcd60e51b8152602060048201526022602482015260008051602061511c83398151915260448201526134b760f11b6064820152608401610a53565b836001600160a01b038116612af05760405162461bcd60e51b81526020600482015260026024820152612d1960f11b6044820152606401610a53565b836001600160a01b038116612b2c5760405162461bcd60e51b81526020600482015260026024820152612d1960f11b6044820152606401610a53565b836001600160a01b038116612b685760405162461bcd60e51b81526020600482015260026024820152612d1960f11b6044820152606401610a53565b836001600160a01b038116612ba45760405162461bcd60e51b81526020600482015260026024820152612d1960f11b6044820152606401610a53565b600a546001600160a01b038981169116141580612bcf5750600b546001600160a01b03888116911614155b80612be857506008546001600160a01b03878116911614155b80612c0157506009546001600160a01b03868116911614155b612c365760405162461bcd60e51b8152600401610a539060208082526004908201526373616d6560e01b604082015260600190565b600a80546001600160a01b038a81166001600160a01b03199283168117909355600b80548b83169084168117909155600880548b8416908516811790915560098054938b1693909416831790935560408051948552602085019190915283019190915260608201527f5f5458e04fbfd7e3d6d9563a2da2ea2a5b3a29c1303221569d209c8c673ceacc9060800160405180910390a15050505050505050565b600082815260046020526040902060010154612cf081612d54565b610be48383612e47565b60008162ffffff16606403612d1157506002919050565b8162ffffff166101f403612d275750600a919050565b8162ffffff16610bb803612d3d5750603c919050565b8162ffffff1661271003612d4f575060c85b919050565b610a868133613de3565b60008281526004602090815260408083206001600160a01b038516845290915290205460ff16610e7b5760008281526004602090815260408083206001600160a01b03851684529091529020805460ff19166001179055612dbc3390565b6001600160a01b0316816001600160a01b0316837f2f8788117e7eff1d82e926ec794901d17c78024a50270940304540a733656f0d60405160405180910390a45050565b610be4838383604051602401612e1893929190614ba4565b60408051601f198184030181529190526020810180516001600160e01b03166307e763af60e51b179052613e58565b60008281526004602090815260408083206001600160a01b038516845290915290205460ff1615610e7b5760008281526004602090815260408083206001600160a01b0385168085529252808320805460ff1916905551339285917ff6391f5c32d9c69d2a47ea670b442974b53935d1edc7fd64eb21e047a839171b9190a45050565b60008163ffffffff16600003612f075760405162461bcd60e51b8152602060048201526002602482015261042560f41b6044820152606401610a53565b6040805160028082526060820183526000926020830190803683370190505090508281600081518110612f3c57612f3c614bd7565b602002602001019063ffffffff16908163ffffffff1681525050600081600181518110612f6b57612f6b614bd7565b63ffffffff9092166020928302919091019091015260405163883bdbfd60e01b81526000906001600160a01b0386169063883bdbfd90612faf908590600401614bed565b600060405180830381865afa158015612fcc573d6000803e3d6000fd5b505050506040513d6000823e601f3d908101601f19168201604052612ff49190810190614ccf565b50905060008160008151811061300c5761300c614bd7565b60200260200101518260018151811061302757613027614bd7565b60200260200101516130399190614d9b565b9050613049600386900b82614dc8565b935060008160060b12801561306d5750613067600386900b82614dfd565b60060b15155b15613080578361307c81614e1f565b9450505b50505092915050565b6009546040516370a0823160e01b815230600482015283916001600160a01b0316906370a0823190602401602060405180830381865afa1580156130d1573d6000803e3d6000fd5b505050506040513d601f19601f820116820180604052508101906130f59190614a66565b10156131435760405162461bcd60e51b815260206004820152601460248201527f746f7320697320696e73756666696369656e742e0000000000000000000000006044820152606401610a53565b6040516370a0823160e01b815230600482015281906001600160a01b038516906370a0823190602401602060405180830381865afa158015613189573d6000803e3d6000fd5b505050506040513d601f19601f820116820180604052508101906131ad9190614a66565b10156131fb5760405162461bcd60e51b815260206004820152601660248201527f746f6b656e20697320696e73756666696369656e742e000000000000000000006044820152606401610a53565b600954600b54604051636eb1769f60e11b81523060048201526001600160a01b03918216602482015291169063dd62ed3e90604401602060405180830381865afa15801561324d573d6000803e3d6000fd5b505050506040513d601f19601f820116820180604052508101906132719190614a66565b8211156133ae57600954600b54604080516318160ddd60e01b815290516001600160a01b039384169363095ea7b393169184916318160ddd916004808201926020929091908290030181865afa1580156132cf573d6000803e3d6000fd5b505050506040513d601f19601f820116820180604052508101906132f39190614a66565b6040516001600160e01b031960e085901b1681526001600160a01b03909216600483015260248201526044016020604051808303816000875af115801561333e573d6000803e3d6000fd5b505050506040513d601f19601f820116820180604052508101906133629190614e42565b6133ae5760405162461bcd60e51b815260206004820152601060248201527f544f5320617070726f7665206661696c000000000000000000000000000000006044820152606401610a53565b600b54604051636eb1769f60e11b81523060048201526001600160a01b0391821660248201529084169063dd62ed3e90604401602060405180830381865afa1580156133fe573d6000803e3d6000fd5b505050506040513d601f19601f820116820180604052508101906134229190614a66565b811115610be457826001600160a01b031663095ea7b3600b60009054906101000a90046001600160a01b0316856001600160a01b03166318160ddd6040518163ffffffff1660e01b8152600401602060405180830381865afa15801561348c573d6000803e3d6000fd5b505050506040513d601f19601f820116820180604052508101906134b09190614a66565b6040516001600160e01b031960e085901b1681526001600160a01b03909216600483015260248201526044016020604051808303816000875af11580156134fb573d6000803e3d6000fd5b505050506040513d601f19601f8201168201806040525081019061351f9190614e42565b610be45760405162461bcd60e51b815260206004820152601260248201527f746f6b656e20617070726f7665206661696c00000000000000000000000000006044820152606401610a53565b6001600160a01b0385166000908152600d602052604090206004810154156135d55760405162461bcd60e51b815260206004820152600e60248201527f616c7265616479206d696e7465640000000000000000000000000000000000006044820152606401610a53565b60058101546000906135f290600160c01b900462ffffff16612cfa565b600583015461360c90600160c01b900462ffffff16612cfa565b61361a90620d89e719614ad3565b6136249190614950565b905060006136448360050160189054906101000a900462ffffff16612cfa565b600584015461365e90600160c01b900462ffffff16612cfa565b61366b620d89e719614b0d565b6136759190614ad3565b61367f9190614950565b600b546040805161016081018083528754630dfe168160e01b90915291519394506000938493849384936001600160a01b0392831693638831645693919283921690630dfe168190610164808501916020918187030181865afa1580156136ea573d6000803e3d6000fd5b505050506040513d601f19601f8201168201806040525081019061370e919061499c565b6001600160a01b031681526020018a60000160009054906101000a90046001600160a01b03166001600160a01b031663d21220a76040518163ffffffff1660e01b8152600401602060405180830381865afa158015613771573d6000803e3d6000fd5b505050506040513d601f19601f82011682018060405250810190613795919061499c565b6001600160a01b031681526020018a60050160189054906101000a900462ffffff1662ffffff1681526020018960020b81526020018860020b81526020018e81526020018d81526020018c81526020018b8152602001306001600160a01b03168152602001428152506040518263ffffffff1660e01b815260040161381a9190614e5d565b6080604051808303816000875af1158015613839573d6000803e3d6000fd5b505050506040513d601f19601f8201168201806040525081019061385d9190614f21565b9350935093509350600084116138b55760405162461bcd60e51b815260206004820152600c60248201527f7a65726f20746f6b656e496400000000000000000000000000000000000000006044820152606401610a53565b6004870184905586546040517e80a7e05c1e726da26ef60dc270a12c37b0bc54fc6adbc18d22f991976cf33291613939918f916001600160a01b03169088908890889088906001600160a01b03968716815294909516602085015260408401929092526001600160801b03166060830152608082015260a081019190915260c00190565b60405180910390a1505050505050505050505050565b6001600160a01b0385166000908152600d6020526040902060048101546139b85760405162461bcd60e51b815260206004820152601460248201527f4974206973206e6f74206d696e746564207965740000000000000000000000006044820152606401610a53565b600b546040805160c08101825260048481015482526020820189815282840189815260608401898152608085018981524260a08701908152965163219f5d1760e01b815295519486019490945291516024850152516044840152516064830152516084820152905160a4820152600091829182916001600160a01b03169063219f5d179060c4016060604051808303816000875af1158015613a5e573d6000803e3d6000fd5b505050506040513d601f19601f82011682018060405250810190613a829190614f5f565b6004870154604080516001600160801b0386168152602081018590529081018390529396509194509250907e242840c59a1b38c7f01b50c3ba18ebd1a8f5b28cfc8b9fb894c4ea46696ba49060600160405180910390a2505050505050505050565b600080613af086613e79565b90506001600160801b036001600160a01b03821611613b76576000613b1e6001600160a01b03831680614a92565b9050836001600160a01b0316856001600160a01b031610613b5657613b51600160c01b876001600160801b031683614299565b613b6e565b613b6e81876001600160801b0316600160c01b614299565b925050613be9565b6000613b956001600160a01b0383168068010000000000000000614299565b9050836001600160a01b0316856001600160a01b031610613bcd57613bc8600160801b876001600160801b031683614299565b613be5565b613be581876001600160801b0316600160801b614299565b9250505b50949350505050565b610e7b8282604051602401613c08929190614f96565b60408051601f198184030181529190526020810180516001600160e01b031663319af33360e01b179052613e58565b610e7b8282604051602401613c4d929190614fc1565b60408051601f198184030181529190526020810180516001600160e01b0316632d839cb360e21b179052613e58565b604080516001600160a01b0385811660248301528481166044830152606480830185905283518084039091018152608490920183526020820180516001600160e01b03166323b872dd60e01b1790529151600092839290881691613ce09190614fe3565b6000604051808303816000865af19150503d8060008114613d1d576040519150601f19603f3d011682016040523d82523d6000602084013e613d22565b606091505b5091509150818015613d4c575080511580613d4c575080806020019051810190613d4c9190614e42565b613d985760405162461bcd60e51b815260206004820152601460248201527f5452414e534645525f46524f4d5f4641494c45440000000000000000000000006044820152606401610a53565b505050505050565b610a8681604051602401613db49190614fff565b60408051601f198184030181529190526020810180516001600160e01b031663104c13eb60e21b179052613e58565b60008281526004602090815260408083206001600160a01b038516845290915290205460ff16610e7b57613e1681614361565b613e21836020614373565b604051602001613e32929190615012565b60408051601f198184030181529082905262461bcd60e51b8252610a5391600401614fff565b80516a636f6e736f6c652e6c6f67602083016000808483855afa5050505050565b60008060008360020b12613e90578260020b613e9d565b8260020b613e9d90615093565b9050613eac620d89e719614b0d565b60020b811115613ee25760405162461bcd60e51b81526020600482015260016024820152601560fa1b6044820152606401610a53565b600081600116600003613ef957600160801b613f0b565b6ffffcb933bd6fad37aa2d162d1a5940015b70ffffffffffffffffffffffffffffffffff1690506002821615613f4a576080613f45826ffff97272373d413259a46990580e213a614a92565b901c90505b6004821615613f74576080613f6f826ffff2e50f5f656932ef12357cf3c7fdcc614a92565b901c90505b6008821615613f9e576080613f99826fffe5caca7e10e4e61c3624eaa0941cd0614a92565b901c90505b6010821615613fc8576080613fc3826fffcb9843d60f6159c9db58835c926644614a92565b901c90505b6020821615613ff2576080613fed826fff973b41fa98c081472e6896dfb254c0614a92565b901c90505b604082161561401c576080614017826fff2ea16466c96a3843ec78b326b52861614a92565b901c90505b6080821615614046576080614041826ffe5dee046a99a2a811c461f1969c3053614a92565b901c90505b61010082161561407157608061406c826ffcbe86c7900a88aedcffc83b479aa3a4614a92565b901c90505b61020082161561409c576080614097826ff987a7253ac413176f2b074cf7815e54614a92565b901c90505b6104008216156140c75760806140c2826ff3392b0822b70005940c7a398e4b70f3614a92565b901c90505b6108008216156140f25760806140ed826fe7159475a2c29b7443b29c7fa6e889d9614a92565b901c90505b61100082161561411d576080614118826fd097f3bdfd2022b8845ad8f792aa5825614a92565b901c90505b612000821615614148576080614143826fa9f746462d870fdf8a65dc1f90e061e5614a92565b901c90505b61400082161561417357608061416e826f70d869a156d2a1b890bb3df62baf32f7614a92565b901c90505b61800082161561419e576080614199826f31be135f97d08fd981231505542fcfa6614a92565b901c90505b620100008216156141ca5760806141c5826f09aa508b5b7a84e1c677de54f3e99bc9614a92565b901c90505b620200008216156141f55760806141f0826e5d6af8dedb81196699c329225ee604614a92565b901c90505b6204000082161561421f57608061421a826d2216e584f5fa1ea926041bedfe98614a92565b901c90505b62080000821615614247576080614242826b048a170391f7dc42444e8fa2614a92565b901c90505b60008460020b13156142625761425f81600019614abf565b90505b614271640100000000826150af565b1561427d576001614280565b60005b6142919060ff16602083901c6150c3565b949350505050565b60008082116142a757600080fd5b600080600019858709858702925082811083820303915050806000036142d257508290049050612225565b8084116142de57600080fd5b6000848688098084039381119092039190506000856142ff81600019614a7f565b61430a9060016150c3565b16958690049560026003880281188089028203028089028203028089028203028089028203028089028203028089029091030260008290038290046001019490940294049390931791909102925050509392505050565b60606109a76001600160a01b03831660145b60606000614382836002614a92565b61438d9060026150c3565b67ffffffffffffffff8111156143a5576143a56146e6565b6040519080825280601f01601f1916602001820160405280156143cf576020820181803683370190505b509050600360fc1b816000815181106143ea576143ea614bd7565b60200101906001600160f81b031916908160001a905350600f60fb1b8160018151811061441957614419614bd7565b60200101906001600160f81b031916908160001a905350600061443d846002614a92565b6144489060016150c3565b90505b60018111156144cd577f303132333435363738396162636465660000000000000000000000000000000085600f166010811061448957614489614bd7565b1a60f81b82828151811061449f5761449f614bd7565b60200101906001600160f81b031916908160001a90535060049490941c936144c6816150d6565b905061444b565b5083156122255760405162461bcd60e51b815260206004820181905260248201527f537472696e67733a20686578206c656e67746820696e73756666696369656e746044820152606401610a53565b60006020828403121561452e57600080fd5b81356001600160e01b03198116811461222557600080fd5b8060020b8114610a8657600080fd5b6000806040838503121561456857600080fd5b823561457381614546565b9150602083013561458381614546565b809150509250929050565b6001600160a01b0381168114610a8657600080fd5b6000602082840312156145b557600080fd5b81356122258161458e565b6000602082840312156145d257600080fd5b5035919050565b6000602082840312156145eb57600080fd5b813561222581614546565b6000806040838503121561460957600080fd5b8235915060208301356145838161458e565b6000806040838503121561462e57600080fd5b82356146398161458e565b915060208301356145838161458e565b6000806040838503121561465c57600080fd5b82356146678161458e565b946020939093013593505050565b6001600160801b0381168114610a8657600080fd5b600080600080608085870312156146a057600080fd5b84356146ab81614546565b935060208501356146bb81614675565b925060408501356146cb8161458e565b915060608501356146db8161458e565b939692955090935050565b634e487b7160e01b600052604160045260246000fd5b604051601f8201601f1916810167ffffffffffffffff81118282101715614725576147256146e6565b604052919050565b803563ffffffff81168114612d4f57600080fd5b61ffff81168114610a8657600080fd5b60008082840360e081121561476557600080fd5b83356147708161458e565b925060c0601f198201121561478457600080fd5b5060405160c0810181811067ffffffffffffffff821117156147a8576147a86146e6565b8060405250602084013581526040840135602082015260608401356040820152608084013560608201526147de60a0850161472d565b608082015260c08401356147f181614741565b60a0820152919491935090915050565b6000806040838503121561481457600080fd5b823561481f8161458e565b915061482d6020840161472d565b90509250929050565b60006020828403121561484857600080fd5b6122258261472d565b6000806000806080858703121561486757600080fd5b84356148728161458e565b935060208501356146bb8161458e565b6000610120820190506001600160a01b0383511682526020830151602083015260408301516040830152606083015160608301526080830151608083015263ffffffff60a08401511660a083015260c08301516148ea60c08401826001600160a01b03169052565b5060e083015161490160e084018262ffffff169052565b506101008381015180151584830152610a01565b60006020828403121561492757600080fd5b813562ffffff8116811461222557600080fd5b634e487b7160e01b600052601160045260246000fd5b60008260020b8260020b028060020b91508082146149705761497061493a565b5092915050565b600282810b9082900b03627fffff198112627fffff821317156109a7576109a761493a565b6000602082840312156149ae57600080fd5b81516122258161458e565b80518015158114612d4f57600080fd5b600080600080600080600060e0888a0312156149e457600080fd5b87516149ef8161458e565b6020890151909750614a0081614546565b6040890151909650614a1181614741565b6060890151909550614a2281614741565b6080890151909450614a3381614741565b60a089015190935060ff81168114614a4a57600080fd5b9150614a5860c089016149b9565b905092959891949750929550565b600060208284031215614a7857600080fd5b5051919050565b818103818111156109a7576109a761493a565b80820281158282048414176109a7576109a761493a565b634e487b7160e01b600052601260045260246000fd5b600082614ace57614ace614aa9565b500490565b60008160020b8360020b80614aea57614aea614aa9565b627fffff19821460001982141615614b0457614b0461493a565b90059392505050565b60008160020b627fffff198103614b2657614b2661493a565b60000392915050565b600281810b9083900b01627fffff8113627fffff19821217156109a7576109a761493a565b60005b83811015614b6f578181015183820152602001614b57565b50506000910152565b60008151808452614b90816020860160208601614b54565b601f01601f19169290920160200192915050565b606081526000614bb76060830186614b78565b6001600160a01b0394851660208401529290931660409091015292915050565b634e487b7160e01b600052603260045260246000fd5b6020808252825182820181905260009190848201906040850190845b81811015614c2b57835163ffffffff1683529284019291840191600101614c09565b50909695505050505050565b600067ffffffffffffffff821115614c5157614c516146e6565b5060051b60200190565b600082601f830112614c6c57600080fd5b81516020614c81614c7c83614c37565b6146fc565b82815260059290921b84018101918181019086841115614ca057600080fd5b8286015b84811015614cc4578051614cb78161458e565b8352918301918301614ca4565b509695505050505050565b60008060408385031215614ce257600080fd5b825167ffffffffffffffff80821115614cfa57600080fd5b818501915085601f830112614d0e57600080fd5b81516020614d1e614c7c83614c37565b82815260059290921b84018101918181019089841115614d3d57600080fd5b948201945b83861015614d6b5785518060060b8114614d5c5760008081fd5b82529482019490820190614d42565b91880151919650909350505080821115614d8457600080fd5b50614d9185828601614c5b565b9150509250929050565b600682810b9082900b03667fffffffffffff198112667fffffffffffff821317156109a7576109a761493a565b60008160060b8360060b80614ddf57614ddf614aa9565b667fffffffffffff19821460001982141615614b0457614b0461493a565b60008260060b80614e1057614e10614aa9565b808360060b0791505092915050565b60008160020b627fffff198103614e3857614e3861493a565b6000190192915050565b600060208284031215614e5457600080fd5b612225826149b9565b81516001600160a01b0316815261016081016020830151614e8960208401826001600160a01b03169052565b506040830151614ea0604084018262ffffff169052565b506060830151614eb5606084018260020b9052565b506080830151614eca608084018260020b9052565b5060a083015160a083015260c083015160c083015260e083015160e083015261010080840151818401525061012080840151614f10828501826001600160a01b03169052565b505061014092830151919092015290565b60008060008060808587031215614f3757600080fd5b845193506020850151614f4981614675565b6040860151606090960151949790965092505050565b600080600060608486031215614f7457600080fd5b8351614f7f81614675565b602085015160409095015190969495509392505050565b604081526000614fa96040830185614b78565b90506001600160a01b03831660208301529392505050565b604081526000614fd46040830185614b78565b90508260208301529392505050565b60008251614ff5818460208701614b54565b9190910192915050565b6020815260006122256020830184614b78565b7f416363657373436f6e74726f6c3a206163636f756e742000000000000000000081526000835161504a816017850160208801614b54565b7f206973206d697373696e6720726f6c65200000000000000000000000000000006017918401918201528351615087816028840160208801614b54565b01602801949350505050565b6000600160ff1b82016150a8576150a861493a565b5060000390565b6000826150be576150be614aa9565b500690565b808201808211156109a7576109a761493a565b6000816150e5576150e561493a565b50600019019056fe6f6e6c794c3250726f6a6563744d616e616765724f725661756c7441646d696e206d73672e73656e64657220257341636365737369626c653a2043616c6c6572206973206e6f7420616e2061646d6f6e6c794c3250726f6a6563744d616e616765724f725661756c7441646d696e207661756c7441646d696e4f66546f6b656e5b6c32746f6b656e5d2025736f6e6c794c3250726f6a6563744d616e616765724f725661756c7441646d696e206c32746f6b656e202573696e697469616c697a652069706172616d732e746f74616c416c6c6f6361746564416d6f756e742025736f6e6c794c3250726f6a6563744d616e616765724f725661756c7441646d696e206c3250726f6a6563744d616e61676572202573a164736f6c6343000812000a",
  "linkReferences": {},
  "deployedLinkReferences": {}
}