{
  "_format": "hh-sol-artifact-1",
  "contractName": "L2InitialLiquidityVault",
  "sourceName": "contracts/L2/vaults/L2InitialLiquidityVault.sol",
  "abi": [
    {
      "anonymous": false,
      "inputs": [
        {
          "indexed": true,
          "internalType": "uint256",
          "name": "tokenId",
          "type": "uint256"
        },
        {
          "indexed": false,
          "internalType": "uint128",
          "name": "liquidity",
          "type": "uint128"
        },
        {
          "indexed": false,
          "internalType": "uint256",
          "name": "amount0",
          "type": "uint256"
        },
        {
          "indexed": false,
          "internalType": "uint256",
          "name": "amount1",
          "type": "uint256"
        }
      ],
      "name": "IncreasedLiquidityInVault",
      "type": "event"
    },
    {
      "anonymous": false,
      "inputs": [
        {
          "indexed": false,
          "internalType": "address",
          "name": "l2Token",
          "type": "address"
        },
        {
          "indexed": false,
          "internalType": "address",
          "name": "pool",
          "type": "address"
        },
        {
          "indexed": false,
          "internalType": "uint256",
          "name": "tokenId",
          "type": "uint256"
        },
        {
          "indexed": false,
          "internalType": "uint128",
          "name": "liquidity",
          "type": "uint128"
        },
        {
          "indexed": false,
          "internalType": "uint256",
          "name": "amount0",
          "type": "uint256"
        },
        {
          "indexed": false,
          "internalType": "uint256",
          "name": "amount1",
          "type": "uint256"
        }
      ],
      "name": "InitialMintedInVault",
      "type": "event"
    },
    {
      "anonymous": false,
      "inputs": [
        {
          "indexed": false,
          "internalType": "address",
          "name": "l2Token",
          "type": "address"
        },
        {
          "indexed": false,
          "internalType": "uint256",
          "name": "totalAllocatedAmount",
          "type": "uint256"
        },
        {
          "indexed": false,
          "internalType": "uint256",
          "name": "initialTosPrice",
          "type": "uint256"
        },
        {
          "indexed": false,
          "internalType": "uint256",
          "name": "initialTokenPrice",
          "type": "uint256"
        },
        {
          "indexed": false,
          "internalType": "uint32",
          "name": "startTime",
          "type": "uint32"
        },
        {
          "indexed": false,
          "internalType": "uint160",
          "name": "initSqrtPriceX96",
          "type": "uint160"
        },
        {
          "indexed": false,
          "internalType": "uint24",
          "name": "fee",
          "type": "uint24"
        }
      ],
      "name": "InitializedInitialLiquidityVault",
      "type": "event"
    },
    {
      "anonymous": false,
      "inputs": [
        {
          "indexed": true,
          "internalType": "bytes32",
          "name": "role",
          "type": "bytes32"
        },
        {
          "indexed": true,
          "internalType": "bytes32",
          "name": "previousAdminRole",
          "type": "bytes32"
        },
        {
          "indexed": true,
          "internalType": "bytes32",
          "name": "newAdminRole",
          "type": "bytes32"
        }
      ],
      "name": "RoleAdminChanged",
      "type": "event"
    },
    {
      "anonymous": false,
      "inputs": [
        {
          "indexed": true,
          "internalType": "bytes32",
          "name": "role",
          "type": "bytes32"
        },
        {
          "indexed": true,
          "internalType": "address",
          "name": "account",
          "type": "address"
        },
        {
          "indexed": true,
          "internalType": "address",
          "name": "sender",
          "type": "address"
        }
      ],
      "name": "RoleGranted",
      "type": "event"
    },
    {
      "anonymous": false,
      "inputs": [
        {
          "indexed": true,
          "internalType": "bytes32",
          "name": "role",
          "type": "bytes32"
        },
        {
          "indexed": true,
          "internalType": "address",
          "name": "account",
          "type": "address"
        },
        {
          "indexed": true,
          "internalType": "address",
          "name": "sender",
          "type": "address"
        }
      ],
      "name": "RoleRevoked",
      "type": "event"
    },
    {
      "anonymous": false,
      "inputs": [
        {
          "indexed": false,
          "internalType": "address",
          "name": "l2Token",
          "type": "address"
        },
        {
          "indexed": false,
          "internalType": "address",
          "name": "pool",
          "type": "address"
        }
      ],
      "name": "SetCreatedPool",
      "type": "event"
    },
    {
      "anonymous": false,
      "inputs": [
        {
          "indexed": false,
          "internalType": "address",
          "name": "l2Token",
          "type": "address"
        },
        {
          "indexed": false,
          "internalType": "address",
          "name": "pool",
          "type": "address"
        },
        {
          "indexed": false,
          "internalType": "uint160",
          "name": "inSqrtPriceX96",
          "type": "uint160"
        }
      ],
      "name": "SetPoolInitialized",
      "type": "event"
    },
    {
      "anonymous": false,
      "inputs": [
        {
          "indexed": false,
          "internalType": "address",
          "name": "l2Token",
          "type": "address"
        },
        {
          "indexed": false,
          "internalType": "uint32",
          "name": "startTime",
          "type": "uint32"
        }
      ],
      "name": "SetStartTime",
      "type": "event"
    },
    {
      "anonymous": false,
      "inputs": [
        {
          "indexed": false,
          "internalType": "address",
          "name": "_factory",
          "type": "address"
        },
        {
          "indexed": false,
          "internalType": "address",
          "name": "_npm",
          "type": "address"
        },
        {
          "indexed": false,
          "internalType": "address",
          "name": "_ton",
          "type": "address"
        },
        {
          "indexed": false,
          "internalType": "address",
          "name": "_tos",
          "type": "address"
        }
      ],
      "name": "SetUniswapInfo",
      "type": "event"
    },
    {
      "anonymous": false,
      "inputs": [
        {
          "indexed": false,
          "internalType": "address",
          "name": "l2Token",
          "type": "address"
        },
        {
          "indexed": false,
          "internalType": "address",
          "name": "newAdmin",
          "type": "address"
        }
      ],
      "name": "SetVaultAdmin",
      "type": "event"
    },
    {
      "inputs": [],
      "name": "ADMIN_ROLE",
      "outputs": [
        {
          "internalType": "bytes32",
          "name": "",
          "type": "bytes32"
        }
      ],
      "stateMutability": "view",
      "type": "function"
    },
    {
      "inputs": [],
      "name": "DEFAULT_ADMIN_ROLE",
      "outputs": [
        {
          "internalType": "bytes32",
          "name": "",
          "type": "bytes32"
        }
      ],
      "stateMutability": "view",
      "type": "function"
    },
    {
      "inputs": [],
      "name": "POLICY_ROLE",
      "outputs": [
        {
          "internalType": "bytes32",
          "name": "",
          "type": "bytes32"
        }
      ],
      "stateMutability": "view",
      "type": "function"
    },
    {
      "inputs": [],
      "name": "TWAP_PERIOD",
      "outputs": [
        {
          "internalType": "uint32",
          "name": "",
          "type": "uint32"
        }
      ],
      "stateMutability": "view",
      "type": "function"
    },
    {
      "inputs": [
        {
          "internalType": "int24",
          "name": "_tick",
          "type": "int24"
        },
        {
          "internalType": "int24",
          "name": "_tickSpacings",
          "type": "int24"
        }
      ],
      "name": "acceptMaxTick",
      "outputs": [
        {
          "internalType": "int24",
          "name": "",
          "type": "int24"
        }
      ],
      "stateMutability": "view",
      "type": "function"
    },
    {
      "inputs": [
        {
          "internalType": "int24",
          "name": "_tick",
          "type": "int24"
        },
        {
          "internalType": "int24",
          "name": "_tickSpacings",
          "type": "int24"
        }
      ],
      "name": "acceptMinTick",
      "outputs": [
        {
          "internalType": "int24",
          "name": "",
          "type": "int24"
        }
      ],
      "stateMutability": "view",
      "type": "function"
    },
    {
      "inputs": [],
      "name": "acceptSlippagePrice",
      "outputs": [
        {
          "internalType": "int24",
          "name": "",
          "type": "int24"
        }
      ],
      "stateMutability": "view",
      "type": "function"
    },
    {
      "inputs": [],
      "name": "acceptTickChangeInterval",
      "outputs": [
        {
          "internalType": "int24",
          "name": "",
          "type": "int24"
        }
      ],
      "stateMutability": "view",
      "type": "function"
    },
    {
      "inputs": [
        {
          "internalType": "address",
          "name": "account",
          "type": "address"
        }
      ],
      "name": "addAdmin",
      "outputs": [],
      "stateMutability": "nonpayable",
      "type": "function"
    },
    {
      "inputs": [
        {
          "internalType": "address",
          "name": "",
          "type": "address"
        }
      ],
      "name": "aliveImplementation",
      "outputs": [
        {
          "internalType": "bool",
          "name": "",
          "type": "bool"
        }
      ],
      "stateMutability": "view",
      "type": "function"
    },
    {
      "inputs": [
        {
          "internalType": "int24",
          "name": "tickSpacings",
          "type": "int24"
        }
      ],
      "name": "getMaxTick",
      "outputs": [
        {
          "internalType": "int24",
          "name": "",
          "type": "int24"
        }
      ],
      "stateMutability": "pure",
      "type": "function"
    },
    {
      "inputs": [
        {
          "internalType": "int24",
          "name": "tickSpacings",
          "type": "int24"
        }
      ],
      "name": "getMiniTick",
      "outputs": [
        {
          "internalType": "int24",
          "name": "",
          "type": "int24"
        }
      ],
      "stateMutability": "pure",
      "type": "function"
    },
    {
      "inputs": [
        {
          "internalType": "int24",
          "name": "tick",
          "type": "int24"
        },
        {
          "internalType": "uint128",
          "name": "amountIn",
          "type": "uint128"
        },
        {
          "internalType": "address",
          "name": "baseToken",
          "type": "address"
        },
        {
          "internalType": "address",
          "name": "quoteToken",
          "type": "address"
        }
      ],
      "name": "getQuoteAtTick",
      "outputs": [
        {
          "internalType": "uint256",
          "name": "amountOut",
          "type": "uint256"
        }
      ],
      "stateMutability": "pure",
      "type": "function"
    },
    {
      "inputs": [
        {
          "internalType": "bytes32",
          "name": "role",
          "type": "bytes32"
        }
      ],
      "name": "getRoleAdmin",
      "outputs": [
        {
          "internalType": "bytes32",
          "name": "",
          "type": "bytes32"
        }
      ],
      "stateMutability": "view",
      "type": "function"
    },
    {
      "inputs": [
        {
          "internalType": "uint24",
          "name": "_fee",
          "type": "uint24"
        }
      ],
      "name": "getTickSpacing",
      "outputs": [
        {
          "internalType": "int24",
          "name": "tickSpacings",
          "type": "int24"
        }
      ],
      "stateMutability": "pure",
      "type": "function"
    },
    {
      "inputs": [
        {
          "internalType": "bytes32",
          "name": "role",
          "type": "bytes32"
        },
        {
          "internalType": "address",
          "name": "account",
          "type": "address"
        }
      ],
      "name": "grantRole",
      "outputs": [],
      "stateMutability": "nonpayable",
      "type": "function"
    },
    {
      "inputs": [
        {
          "internalType": "bytes32",
          "name": "role",
          "type": "bytes32"
        },
        {
          "internalType": "address",
          "name": "account",
          "type": "address"
        }
      ],
      "name": "hasRole",
      "outputs": [
        {
          "internalType": "bool",
          "name": "",
          "type": "bool"
        }
      ],
      "stateMutability": "view",
      "type": "function"
    },
    {
      "inputs": [
        {
          "internalType": "address",
          "name": "l2Token",
          "type": "address"
        },
        {
          "components": [
            {
              "internalType": "uint256",
              "name": "totalAllocatedAmount",
              "type": "uint256"
            },
            {
              "internalType": "uint256",
              "name": "tosPrice",
              "type": "uint256"
            },
            {
              "internalType": "uint256",
              "name": "tokenPrice",
              "type": "uint256"
            },
            {
              "internalType": "uint256",
              "name": "initSqrtPrice",
              "type": "uint256"
            },
            {
              "internalType": "uint32",
              "name": "startTime",
              "type": "uint32"
            },
            {
              "internalType": "uint16",
              "name": "fee",
              "type": "uint16"
            }
          ],
          "internalType": "struct LibProject.InitalParameterInitialLiquidityVault",
          "name": "params",
          "type": "tuple"
        }
      ],
      "name": "initialize",
      "outputs": [],
      "stateMutability": "nonpayable",
      "type": "function"
    },
    {
      "inputs": [
        {
          "internalType": "address",
          "name": "account",
          "type": "address"
        }
      ],
      "name": "isAdmin",
      "outputs": [
        {
          "internalType": "bool",
          "name": "",
          "type": "bool"
        }
      ],
      "stateMutability": "view",
      "type": "function"
    },
    {
      "inputs": [
        {
          "internalType": "address",
          "name": "l2Token",
          "type": "address"
        },
        {
          "internalType": "address",
          "name": "account",
          "type": "address"
        }
      ],
      "name": "isVaultAdmin",
      "outputs": [
        {
          "internalType": "bool",
          "name": "",
          "type": "bool"
        }
      ],
      "stateMutability": "view",
      "type": "function"
    },
    {
      "inputs": [],
      "name": "l2ProjectManager",
      "outputs": [
        {
          "internalType": "address",
          "name": "",
          "type": "address"
        }
      ],
      "stateMutability": "view",
      "type": "function"
    },
    {
      "inputs": [
        {
          "internalType": "address",
          "name": "l2Token",
          "type": "address"
        },
        {
          "internalType": "uint256",
          "name": "tosAmount",
          "type": "uint256"
        }
      ],
      "name": "mint",
      "outputs": [],
      "stateMutability": "nonpayable",
      "type": "function"
    },
    {
      "inputs": [],
      "name": "nonfungiblePositionManager",
      "outputs": [
        {
          "internalType": "address",
          "name": "",
          "type": "address"
        }
      ],
      "stateMutability": "view",
      "type": "function"
    },
    {
      "inputs": [],
      "name": "pauseProxy",
      "outputs": [
        {
          "internalType": "bool",
          "name": "",
          "type": "bool"
        }
      ],
      "stateMutability": "view",
      "type": "function"
    },
    {
      "inputs": [
        {
          "internalType": "address",
          "name": "",
          "type": "address"
        }
      ],
      "name": "poolInfo",
      "outputs": [
        {
          "internalType": "address",
          "name": "pool",
          "type": "address"
        },
        {
          "internalType": "uint256",
          "name": "totalAllocatedAmount",
          "type": "uint256"
        },
        {
          "internalType": "uint256",
          "name": "initialTosPrice",
          "type": "uint256"
        },
        {
          "internalType": "uint256",
          "name": "initialTokenPrice",
          "type": "uint256"
        },
        {
          "internalType": "uint256",
          "name": "lpToken",
          "type": "uint256"
        },
        {
          "internalType": "uint32",
          "name": "startTime",
          "type": "uint32"
        },
        {
          "internalType": "uint160",
          "name": "initSqrtPriceX96",
          "type": "uint160"
        },
        {
          "internalType": "uint24",
          "name": "fee",
          "type": "uint24"
        },
        {
          "internalType": "bool",
          "name": "boolReadyToCreatePool",
          "type": "bool"
        }
      ],
      "stateMutability": "view",
      "type": "function"
    },
    {
      "inputs": [
        {
          "internalType": "uint256",
          "name": "",
          "type": "uint256"
        }
      ],
      "name": "proxyImplementation",
      "outputs": [
        {
          "internalType": "address",
          "name": "",
          "type": "address"
        }
      ],
      "stateMutability": "view",
      "type": "function"
    },
    {
      "inputs": [
        {
          "internalType": "address",
          "name": "account",
          "type": "address"
        }
      ],
      "name": "removeAdmin",
      "outputs": [],
      "stateMutability": "nonpayable",
      "type": "function"
    },
    {
      "inputs": [
        {
          "internalType": "bytes32",
          "name": "role",
          "type": "bytes32"
        },
        {
          "internalType": "address",
          "name": "account",
          "type": "address"
        }
      ],
      "name": "renounceRole",
      "outputs": [],
      "stateMutability": "nonpayable",
      "type": "function"
    },
    {
      "inputs": [
        {
          "internalType": "bytes32",
          "name": "role",
          "type": "bytes32"
        },
        {
          "internalType": "address",
          "name": "account",
          "type": "address"
        }
      ],
      "name": "revokeRole",
      "outputs": [],
      "stateMutability": "nonpayable",
      "type": "function"
    },
    {
      "inputs": [
        {
          "internalType": "bytes4",
          "name": "",
          "type": "bytes4"
        }
      ],
      "name": "selectorImplementation",
      "outputs": [
        {
          "internalType": "address",
          "name": "",
          "type": "address"
        }
      ],
      "stateMutability": "view",
      "type": "function"
    },
    {
      "inputs": [
        {
          "internalType": "int24",
          "name": "_value",
          "type": "int24"
        }
      ],
      "name": "setAcceptSlippagePrice",
      "outputs": [],
      "stateMutability": "nonpayable",
      "type": "function"
    },
    {
      "inputs": [
        {
          "internalType": "int24",
          "name": "_interval",
          "type": "int24"
        }
      ],
      "name": "setAcceptTickChangeInterval",
      "outputs": [],
      "stateMutability": "nonpayable",
      "type": "function"
    },
    {
      "inputs": [
        {
          "internalType": "address",
          "name": "l2Token",
          "type": "address"
        }
      ],
      "name": "setCreatePool",
      "outputs": [],
      "stateMutability": "nonpayable",
      "type": "function"
    },
    {
      "inputs": [
        {
          "internalType": "address",
          "name": "_l2ProjectManager",
          "type": "address"
        }
      ],
      "name": "setL2ProjectManager",
      "outputs": [],
      "stateMutability": "nonpayable",
      "type": "function"
    },
    {
      "inputs": [
        {
          "internalType": "address",
          "name": "l2Token",
          "type": "address"
        },
        {
          "internalType": "uint32",
          "name": "_startTime",
          "type": "uint32"
        }
      ],
      "name": "setStartTime",
      "outputs": [],
      "stateMutability": "nonpayable",
      "type": "function"
    },
    {
      "inputs": [
        {
          "internalType": "uint32",
          "name": "value",
          "type": "uint32"
        }
      ],
      "name": "setTWAP_PERIOD",
      "outputs": [],
      "stateMutability": "nonpayable",
      "type": "function"
    },
    {
      "inputs": [
        {
          "internalType": "address",
          "name": "_poolfactory",
          "type": "address"
        },
        {
          "internalType": "address",
          "name": "_npm",
          "type": "address"
        },
        {
          "internalType": "address",
          "name": "_ton",
          "type": "address"
        },
        {
          "internalType": "address",
          "name": "_tos",
          "type": "address"
        }
      ],
      "name": "setUniswapInfo",
      "outputs": [],
      "stateMutability": "nonpayable",
      "type": "function"
    },
    {
      "inputs": [
        {
          "internalType": "address",
          "name": "l2Token",
          "type": "address"
        },
        {
          "internalType": "address",
          "name": "_newAdmin",
          "type": "address"
        }
      ],
      "name": "setVaultAdmin",
      "outputs": [],
      "stateMutability": "nonpayable",
      "type": "function"
    },
    {
      "inputs": [
        {
          "internalType": "bytes4",
          "name": "interfaceId",
          "type": "bytes4"
        }
      ],
      "name": "supportsInterface",
      "outputs": [
        {
          "internalType": "bool",
          "name": "",
          "type": "bool"
        }
      ],
      "stateMutability": "view",
      "type": "function"
    },
    {
      "inputs": [],
      "name": "tickSpacings",
      "outputs": [
        {
          "internalType": "int24",
          "name": "",
          "type": "int24"
        }
      ],
      "stateMutability": "view",
      "type": "function"
    },
    {
      "inputs": [],
      "name": "ton",
      "outputs": [
        {
          "internalType": "address",
          "name": "",
          "type": "address"
        }
      ],
      "stateMutability": "view",
      "type": "function"
    },
    {
      "inputs": [],
      "name": "tos",
      "outputs": [
        {
          "internalType": "address",
          "name": "",
          "type": "address"
        }
      ],
      "stateMutability": "view",
      "type": "function"
    },
    {
      "inputs": [
        {
          "internalType": "address",
          "name": "newAdmin",
          "type": "address"
        }
      ],
      "name": "transferAdmin",
      "outputs": [],
      "stateMutability": "nonpayable",
      "type": "function"
    },
    {
      "inputs": [],
      "name": "uniswapV3Factory",
      "outputs": [
        {
          "internalType": "address",
          "name": "",
          "type": "address"
        }
      ],
      "stateMutability": "view",
      "type": "function"
    },
    {
      "inputs": [
        {
          "internalType": "address",
          "name": "",
          "type": "address"
        }
      ],
      "name": "vaultAdminOfToken",
      "outputs": [
        {
          "internalType": "address",
          "name": "",
          "type": "address"
        }
      ],
      "stateMutability": "view",
      "type": "function"
    },
    {
      "inputs": [
        {
          "internalType": "address",
          "name": "l2Token",
          "type": "address"
        }
      ],
      "name": "viewVaultInfo",
      "outputs": [
        {
          "components": [
            {
              "internalType": "address",
              "name": "pool",
              "type": "address"
            },
            {
              "internalType": "uint256",
              "name": "totalAllocatedAmount",
              "type": "uint256"
            },
            {
              "internalType": "uint256",
              "name": "initialTosPrice",
              "type": "uint256"
            },
            {
              "internalType": "uint256",
              "name": "initialTokenPrice",
              "type": "uint256"
            },
            {
              "internalType": "uint256",
              "name": "lpToken",
              "type": "uint256"
            },
            {
              "internalType": "uint32",
              "name": "startTime",
              "type": "uint32"
            },
            {
              "internalType": "uint160",
              "name": "initSqrtPriceX96",
              "type": "uint160"
            },
            {
              "internalType": "uint24",
              "name": "fee",
              "type": "uint24"
            },
            {
              "internalType": "bool",
              "name": "boolReadyToCreatePool",
              "type": "bool"
            }
          ],
          "internalType": "struct LibInitialLiquidityVault.PoolInfo",
          "name": "",
          "type": "tuple"
        }
      ],
      "stateMutability": "view",
      "type": "function"
    }
  ],
  "bytecode": "0x60806040526005805460ff1916600117905534801561001d57600080fd5b50614c818061002d6000396000f3fe608060405234801561001057600080fd5b506004361061030a5760003560e01c806375829def1161019c578063a22f84f0116100ee578063b9c56c8c11610097578063d547741f11610071578063d547741f1461080e578063dc861da614610821578063ea8668151461092757600080fd5b8063b9c56c8c146107d5578063bef6dc8b146107e8578063cc48b947146107fb57600080fd5b8063b224f99f116100c8578063b224f99f14610786578063b44a272214610799578063b911135f146107ac57600080fd5b8063a22f84f01461074d578063a418234314610760578063aec137581461077357600080fd5b806389f395de116101505780639a7b5f111161012a5780639a7b5f11146106605780639cbbbe8614610738578063a217fddf1461074557600080fd5b806389f395de1461060157806391d1485414610614578063971c57cc1461064d57600080fd5b80637ca25184116101815780637ca25184146105995780637fc46ba8146105c5578063826bd4bf146105ee57600080fd5b806375829def1461055f57806375b238fc1461057257600080fd5b806337c1cfa51161026057806351e8152a116102095780635b549182116101e35780635b5491821461052c57806363a8fd891461053f578063704802751461054c57600080fd5b806351e8152a146104de57806352351e85146104f1578063550d01a31461050957600080fd5b8063442bede61161023a578063442bede61461047657806345a411481461048957806350d2a2761461049d57600080fd5b806337c1cfa51461043d57806340c10f191461045057806343c57a271461046357600080fd5b806324d7806c116102c257806335b9ac661161029c57806335b9ac661461040357806335d20f8a1461041657806336568abe1461042a57600080fd5b806324d7806c146103ca5780632c00778a146103dd5780632f2ff15d146103f057600080fd5b80631785f53c116102f35780631785f53c1461035d5780632298524614610372578063248a9ca3146103a757600080fd5b806301ffc9a71461030f5780630f36edbf14610337575b600080fd5b61032261031d36600461410f565b61093a565b60405190151581526020015b60405180910390f35b61034a610345366004614148565b610971565b60405160029190910b815260200161032e565b61037061036b366004614196565b6109cd565b005b6103997ffb5864e8ff833c3cb2d2d08505e82ff02a43554c74a35d4f5a64e8526127831181565b60405190815260200161032e565b6103996103b53660046141b3565b60009081526004602052604090206001015490565b6103226103d8366004614196565b610a4d565b6103706103eb3660046141cc565b610a8d565b6103706103fe3660046141e9565b610b83565b61037061041136600461420e565b610bad565b600a5461034a90600160d81b900460020b81565b6103706104383660046141e9565b610d62565b61037061044b366004614196565b610dee565b61037061045e36600461423c565b611431565b61039961047136600461427d565b611bb5565b610370610484366004614344565b611bcc565b600a5461034a90600160c01b900460020b81565b6104c66104ab36600461410f565b6003602052600090815260409020546001600160a01b031681565b6040516001600160a01b03909116815260200161032e565b6103226104ec36600461420e565b612027565b6005546104c69061010090046001600160a01b031681565b610322610517366004614196565b60026020526000908152604090205460ff1681565b6009546104c6906001600160a01b031681565b6000546103229060ff1681565b61037061055a366004614196565b612064565b61037061056d366004614196565b6120dc565b6103997fdf8b4c520ffe197c5343c6f5aec59570151ef9a492f2c624fd45ddde6135ec4281565b600a546105b090600160a01b900463ffffffff1681565b60405163ffffffff909116815260200161032e565b6104c66105d3366004614196565b6006602052600090815260409020546001600160a01b031681565b61034a6105fc3660046141cc565b61222c565b6008546104c6906001600160a01b031681565b6103226106223660046141e9565b60009182526004602090815260408084206001600160a01b0393909316845291905290205460ff1690565b61037061065b3660046143f4565b612247565b6106d861066e366004614196565b600c602052600090815260409020805460018201546002830154600384015460048501546005909501546001600160a01b039485169593949293919263ffffffff821691640100000000810490911690600160c01b810462ffffff1690600160d81b900460ff1689565b604080516001600160a01b039a8b16815260208101999099528801969096526060870194909452608086019290925263ffffffff1660a085015290931660c083015262ffffff90921660e08201529015156101008201526101200161032e565b600b5461034a9060020b81565b610399600081565b61034a61075b3660046141cc565b61240c565b61037061076e366004614196565b612427565b61034a610781366004614148565b612532565b610370610794366004614429565b612586565b600a546104c6906001600160a01b031681565b6104c66107ba3660046141b3565b6001602052600090815260409020546001600160a01b031681565b6103706107e33660046141cc565b612683565b6103706107f6366004614444565b612779565b6007546104c6906001600160a01b031681565b61037061081c3660046141e9565b6129e8565b61091a61082f366004614196565b6040805161012081018252600080825260208201819052918101829052606081018290526080810182905260a0810182905260c0810182905260e08101829052610100810191909152506001600160a01b039081166000908152600c6020908152604091829020825161012081018452815485168152600182015492810192909252600281015492820192909252600382015460608201526004820154608082015260059091015463ffffffff811660a0830152640100000000810490921660c0820152600160c01b820462ffffff1660e0820152600160d81b90910460ff16151561010082015290565b60405161032e9190614475565b61034a610935366004614508565b612a0d565b60006001600160e01b03198216637965db0b60e01b148061096b57506301ffc9a760e01b6001600160e01b03198316145b92915050565b60008061097d8361222c565b600a5490915060009061099a90600160c01b900460020b85614543565b6109a4908661456a565b90508060020b8260020b12156109bd57915061096b9050565b50905061096b565b505092915050565b6109d633610a4d565b610a205760405162461bcd60e51b81526020600482015260226024820152600080516020614c5583398151915260448201526134b760f11b60648201526084015b60405180910390fd5b610a4a7fdf8b4c520ffe197c5343c6f5aec59570151ef9a492f2c624fd45ddde6135ec4282610d62565b50565b6001600160a01b03811660009081527f2fb794d17134dfdec181ddbac1babb5ab1eb140204ef4d982f294e7fc8b69022602052604081205460ff1661096b565b610a9633610a4d565b610adb5760405162461bcd60e51b81526020600482015260226024820152600080516020614c5583398151915260448201526134b760f11b6064820152608401610a17565b60008160020b13610b175760405162461bcd60e51b8152600401610a17906020808252600490820152637a65726f60e01b604082015260600190565b600a54600282810b600160d81b909204900b03610b5f5760405162461bcd60e51b8152600401610a179060208082526004908201526373616d6560e01b604082015260600190565b600a805462ffffff909216600160d81b0262ffffff60d81b19909216919091179055565b600082815260046020526040902060010154610b9e81612a67565b610ba88383612a71565b505050565b816001600160a01b038116610be95760405162461bcd60e51b81526020600482015260026024820152612d1960f11b6044820152606401610a17565b816001600160a01b038116610c255760405162461bcd60e51b81526020600482015260026024820152612d1960f11b6044820152606401610a17565b60055461010090046001600160a01b031615801590610c53575060055461010090046001600160a01b031633145b610c9f5760405162461bcd60e51b815260206004820152601e60248201527f63616c6c6572206973206e6f74206c3250726f6a6563744d616e6167657200006044820152606401610a17565b6001600160a01b03848116600090815260066020526040902054818516911603610cf45760405162461bcd60e51b8152600401610a179060208082526004908201526373616d6560e01b604082015260600190565b6001600160a01b0384811660008181526006602090815260409182902080546001600160a01b031916948816948517905581519283528201929092527fb00bb4c229aff6156cc8e2c767c571665e1927c09fe083ec055956a5a402619391015b60405180910390a150505050565b6001600160a01b0381163314610de05760405162461bcd60e51b815260206004820152602f60248201527f416363657373436f6e74726f6c3a2063616e206f6e6c792072656e6f756e636560448201527f20726f6c657320666f722073656c6600000000000000000000000000000000006064820152608401610a17565b610dea8282612b13565b5050565b6001600160a01b0381166000908152600c60205260409020600501548190600160d81b900460ff1615610e6e5760405162461bcd60e51b815260206004820152602260248201527f5661756c743a20616c726561647920726561647920746f20437265617465506f6044820152611bdb60f21b6064820152608401610a17565b60055460ff16610ea95760405162461bcd60e51b8152600401610a17906020808252600490820152636c6f636b60e01b604082015260600190565b6005805460ff191681556001600160a01b0383166000908152600c602052604090209081015463ffffffff1615801590610eef5750600581015463ffffffff4281169116105b610f3b5760405162461bcd60e51b815260206004820152601960248201527f537461727454696d6520686173206e6f74207061737365642e000000000000006044820152606401610a17565b80546001600160a01b031615610f935760405162461bcd60e51b815260206004820152600f60248201527f616c7265616479206372656174656400000000000000000000000000000000006044820152606401610a17565b600581015464010000000090046001600160a01b0316610ff55760405162461bcd60e51b815260206004820152601560248201527f7a65726f20696e697453717274507269636558393600000000000000000000006044820152606401610a17565b6009546008546005830154604051630b4c774160e11b81526001600160a01b0392831660048201528683166024820152600160c01b90910462ffffff1660448201526000929190911690631698ee8290606401602060405180830381865afa158015611065573d6000803e3d6000fd5b505050506040513d601f19601f82011682018060405250810190611089919061458f565b90506001600160a01b03811661118a57600954600854600584015460405163a167129560e01b81526001600160a01b0392831660048201528783166024820152600160c01b90910462ffffff166044820152600092919091169063a1671295906064016020604051808303816000875af115801561110b573d6000803e3d6000fd5b505050506040513d601f19601f8201168201806040525081019061112f919061458f565b90506001600160a01b0381166111875760405162461bcd60e51b815260206004820152600f60248201527f637265617465506f6f6c206661696c00000000000000000000000000000000006044820152606401610a17565b90505b81546001600160a01b0382166001600160a01b0319909116811783556005830180547fffffffff00ffffffffffffffffffffffffffffffffffffffffffffffffffffff16600160d81b17905560408051633850c7bd60e01b8152905160009291633850c7bd9160048083019260e09291908290030181865afa158015611214573d6000803e3d6000fd5b505050506040513d601f19601f8201168201806040525081019061123891906145bc565b5050505050509050806001600160a01b031660000361131457600583015460405163f637731d60e01b81526401000000009091046001600160a01b03908116600483015283169063f637731d90602401600060405180830381600087803b1580156112a257600080fd5b505af11580156112b6573d6000803e3d6000fd5b505050506005830154604080516001600160a01b038881168252858116602083015264010000000090930490921682820152517fca9098798fa03760d7709c3305b3b049d2c71fa6e891a83a36fe90a15eeab7809181900360600190a15b604080516001600160a01b038088168252841660208201527ffb9092f7bd4a3c6c55439411fb56fe4d44878125340b674c6ab5b5dda38d0b1c910160405180910390a16000826001600160a01b0316633850c7bd6040518163ffffffff1660e01b815260040160e060405180830381865afa158015611397573d6000803e3d6000fd5b505050506040513d601f19601f820116820180604052508101906113bb91906145bc565b5050505050509050806001600160a01b031660000361141c5760405162461bcd60e51b815260206004820152601260248201527f7a65726f205f73717274507269636558393600000000000000000000000000006044820152606401610a17565b50506005805460ff1916600117905550505050565b6001600160a01b0382166000908152600c60205260409020600501548290600160d81b900460ff166114a55760405162461bcd60e51b815260206004820152601e60248201527f5661756c743a206e6f7420726561647920746f20437265617465506f6f6c00006044820152606401610a17565b81806000036114db5760405162461bcd60e51b81526020600482015260026024820152615a3160f01b6044820152606401610a17565b60055460ff166115165760405162461bcd60e51b8152600401610a17906020808252600490820152636c6f636b60e01b604082015260600190565b6005805460ff191690556008546040516370a0823160e01b81523060048201526000916001600160a01b0316906370a0823190602401602060405180830381865afa158015611569573d6000803e3d6000fd5b505050506040513d601f19601f8201168201806040525081019061158d9190614659565b6040516370a0823160e01b81523060048201529091506000906001600160a01b038716906370a0823190602401602060405180830381865afa1580156115d7573d6000803e3d6000fd5b505050506040513d601f19601f820116820180604052508101906115fb9190614659565b9050670de0b6b3a76400008211801561161b5750670de0b6b3a764000081115b6116675760405162461bcd60e51b815260206004820152601760248201527f62616c616e636520697320696e73756666696369656e740000000000000000006044820152606401610a17565b818511156116b75760405162461bcd60e51b815260206004820152601960248201527f746f42616c616e636520697320696e73756666696369656e74000000000000006044820152606401610a17565b600a54600160c01b900460020b6000036116e157600a805462ffffff60c01b1916600160c31b1790555b600a54600160d81b900460020b60000361170b57600a805462ffffff60d81b1916600560d91b1790555b600a54600160a01b900463ffffffff1660000361174a57600a805463ffffffff60a01b1916747800000000000000000000000000000000000000001790555b6001600160a01b038681166000908152600c602090815260408083208151610120810183528154861680825260018301549482019490945260028201548184015260038201546060820152600480830154608083015260059092015463ffffffff811660a0830152640100000000810490961660c0820152600160c01b860462ffffff1660e080830191909152600160d81b90960460ff1615156101008201528251633850c7bd60e01b815292519095859485949093633850c7bd9382820193929091908290030181865afa158015611827573d6000803e3d6000fd5b505050506040513d601f19601f8201168201806040525081019061184b91906145bc565b505050935050925092506000836001600160a01b0316116118ae5760405162461bcd60e51b815260206004820152601760248201527f706f6f6c206973206e6f7420696e697469616c697a65640000000000000000006044820152606401610a17565b60018161ffff161115611970578351600a546000916118d991600160a01b900463ffffffff16612b96565b90508260020b6118f0826103458860e00151612a0d565b60020b13158015611916575061190d816107818760e00151612a0d565b60020b8360020b125b61196e5760405162461bcd60e51b8152602060048201526024808201527f49742773206e6f7420616c6c6f776564206368616e676564207469636b2072616044820152633733b29760e11b6064820152608401610a17565b505b600080600086600001516001600160a01b0316630dfe16816040518163ffffffff1660e01b8152600401602060405180830381865afa1580156119b7573d6000803e3d6000fd5b505050506040513d601f19601f820116820180604052508101906119db919061458f565b6008549091508d906001600160a01b03808416911614611a7457600854611a0f9087908f906001600160a01b031684611bb5565b93508c925088841115611a645760405162461bcd60e51b815260206004820152601c60248201527f746f6b656e42616c616e636520697320696e73756666696369656e74000000006044820152606401610a17565b611a6f818486612d55565b611aee565b6008548d9450611a9190879086906001600160a01b031684611bb5565b925088831115611ae35760405162461bcd60e51b815260206004820152601c60248201527f746f6b656e42616c616e636520697320696e73756666696369656e74000000006044820152606401610a17565b611aee818585612d55565b600a54600090606490611b0b90600160d81b900460020b82614672565b611b159087614685565b611b1f91906146b2565b600a54909150600090606490611b3f90600160d81b900460020b82614672565b611b499087614685565b611b5391906146b2565b6001600160a01b0384166000908152600c602052604081206004015491925003611b8957611b848387878585613237565b611b96565b611b96838787858561361b565b50506005805460ff191660011790555050505050505050505050505050565b6000611bc3858585856137b0565b95945050505050565b600554829061010090046001600160a01b0316331480611c2957506001600160a01b038181166000908152600660205260409020541615801590611c2957506001600160a01b038181166000908152600660205260409020541633145b611c9b5760405162461bcd60e51b815260206004820152602c60248201527f63616c6c6572206973206e6f742061207661756c7441646d696e206f7220507260448201527f6f6a6563744d616e6167657200000000000000000000000000000000000000006064820152608401610a17565b6009546001600160a01b031615801590611cbf5750600a546001600160a01b031615155b8015611cd557506008546001600160a01b031615155b611d215760405162461bcd60e51b815260206004820152601860248201527f5661756c743a206265666f726520736574556e697377617000000000000000006044820152606401610a17565b6001600160a01b0383166000908152600c602052604090206001015415611d8a5760405162461bcd60e51b815260206004820152601360248201527f616c726561647920696e697469616c697a6564000000000000000000000000006044820152606401610a17565b815115801590611d9d5750602082015115155b8015611dac5750604082015115155b8015611dbb5750606082015115155b8015611dce575060a082015161ffff1615155b611e665760405162461bcd60e51b815260206004820152605460248201527f7a65726f20746f74616c416c6c6f6361746564416d6f756e74206f7220746f7360448201527f5072696365206f7220746f6b656e5072696365206f7220696e6974537172745060648201527f72696365583936206f7220737461727454696d65000000000000000000000000608482015260a401610a17565b4263ffffffff16826080015163ffffffff1611611ec55760405162461bcd60e51b815260206004820152601460248201527f537461727454696d6520686173207061737365640000000000000000000000006044820152606401610a17565b6005548251611ee9916001600160a01b0386811692610100909204169030906138be565b6001600160a01b038084166000908152600c602090815260409182902085516001820181905591860151600282018190558684015160038301819055606088015160058401805460808b015160a08c0151600160c01b61ffff8216027fffffffffff000000ffffffffffffffffffffffffffffffffffffffff000000009b8616640100000000029b909b167fffffffffff0000000000000000000000000000000000000000000000000000009093169290921763ffffffff82161799909917909155955193967f060a95341b2743fc4109ee31674ef362aca6cdea36c46a5ed759920b83e244b096610d54968c969095949391906001600160a01b03978816815260208101969096526040860194909452606085019290925263ffffffff16608084015290921660a082015261ffff9190911660c082015260e00190565b60006001600160a01b0382161580159061205d57506001600160a01b038381166000908152600660205260409020548116908316145b9392505050565b61206d33610a4d565b6120b25760405162461bcd60e51b81526020600482015260226024820152600080516020614c5583398151915260448201526134b760f11b6064820152608401610a17565b610a4a7fdf8b4c520ffe197c5343c6f5aec59570151ef9a492f2c624fd45ddde6135ec4282610b83565b6120e533610a4d565b61212a5760405162461bcd60e51b81526020600482015260226024820152600080516020614c5583398151915260448201526134b760f11b6064820152608401610a17565b6001600160a01b0381166121805760405162461bcd60e51b815260206004820152601860248201527f41636365737369626c653a207a65726f206164647265737300000000000000006044820152606401610a17565b6001600160a01b03811633036121d85760405162461bcd60e51b815260206004820152601660248201527f41636365737369626c653a2073616d652061646d696e000000000000000000006044820152606401610a17565b6122027fdf8b4c520ffe197c5343c6f5aec59570151ef9a492f2c624fd45ddde6135ec4282610b83565b610a4a7fdf8b4c520ffe197c5343c6f5aec59570151ef9a492f2c624fd45ddde6135ec4233610d62565b60008161223d81620d89e7196146c6565b61096b9190614543565b6001600160a01b038083166000908152600660205260409020548391161580159061228b57506001600160a01b038181166000908152600660205260409020541633145b6122e55760405162461bcd60e51b815260206004820152602560248201527f63616c6c6572206973206e6f742061207661756c7441646d696e204f66206c326044820152642a37b5b2b760d91b6064820152608401610a17565b6001600160a01b0383166000908152600c60205260409020600581015463ffffffff1642106123565760405162461bcd60e51b815260206004820152601460248201527f537461727454696d6520686173207061737365640000000000000000000000006044820152606401610a17565b600581015463ffffffff8085169116036123b25760405162461bcd60e51b815260206004820152600e60248201527f73616d6520537461727454696d650000000000000000000000000000000000006044820152606401610a17565b60058101805463ffffffff191663ffffffff8516908117909155604080516001600160a01b038716815260208101929092527f1266d1525c8a4b88d83deeed8ccc3a233c359b7bd54f50c0b4ba71c4a330f5b59101610d54565b6000818061241d620d89e719614700565b61223d91906146c6565b806001600160a01b0381166124635760405162461bcd60e51b81526020600482015260026024820152612d1960f11b6044820152606401610a17565b61246c33610a4d565b6124b15760405162461bcd60e51b81526020600482015260226024820152600080516020614c5583398151915260448201526134b760f11b6064820152608401610a17565b6005546001600160a01b0380841661010090920416036124fc5760405162461bcd60e51b8152600401610a179060208082526004908201526373616d6560e01b604082015260600190565b50600580546001600160a01b039092166101000274ffffffffffffffffffffffffffffffffffffffff0019909216919091179055565b60008061253e8361240c565b600a5490915060009061255b90600160c01b900460020b85614543565b6125659086614722565b90508060020b8260020b121561257d5750905061096b565b915061096b9050565b61258f33610a4d565b6125d45760405162461bcd60e51b81526020600482015260226024820152600080516020614c5583398151915260448201526134b760f11b6064820152608401610a17565b60008163ffffffff16116126135760405162461bcd60e51b8152600401610a17906020808252600490820152637a65726f60e01b604082015260600190565b600a5463ffffffff808316600160a01b909204160361265d5760405162461bcd60e51b8152600401610a179060208082526004908201526373616d6560e01b604082015260600190565b600a805463ffffffff909216600160a01b0263ffffffff60a01b19909216919091179055565b61268c33610a4d565b6126d15760405162461bcd60e51b81526020600482015260226024820152600080516020614c5583398151915260448201526134b760f11b6064820152608401610a17565b60008160020b1361270d5760405162461bcd60e51b8152600401610a17906020808252600490820152637a65726f60e01b604082015260600190565b600a54600282810b600160c01b909204900b036127555760405162461bcd60e51b8152600401610a179060208082526004908201526373616d6560e01b604082015260600190565b600a805462ffffff909216600160c01b0262ffffff60c01b19909216919091179055565b61278233610a4d565b6127c75760405162461bcd60e51b81526020600482015260226024820152600080516020614c5583398151915260448201526134b760f11b6064820152608401610a17565b836001600160a01b0381166128035760405162461bcd60e51b81526020600482015260026024820152612d1960f11b6044820152606401610a17565b836001600160a01b03811661283f5760405162461bcd60e51b81526020600482015260026024820152612d1960f11b6044820152606401610a17565b836001600160a01b03811661287b5760405162461bcd60e51b81526020600482015260026024820152612d1960f11b6044820152606401610a17565b836001600160a01b0381166128b75760405162461bcd60e51b81526020600482015260026024820152612d1960f11b6044820152606401610a17565b6009546001600160a01b0389811691161415806128e25750600a546001600160a01b03888116911614155b806128fb57506007546001600160a01b03878116911614155b8061291457506008546001600160a01b03868116911614155b6129495760405162461bcd60e51b8152600401610a179060208082526004908201526373616d6560e01b604082015260600190565b600980546001600160a01b038a81166001600160a01b03199283168117909355600a80548b83169084168117909155600780548b8416908516811790915560088054938b1693909416831790935560408051948552602085019190915283019190915260608201527f5f5458e04fbfd7e3d6d9563a2da2ea2a5b3a29c1303221569d209c8c673ceacc9060800160405180910390a15050505050505050565b600082815260046020526040902060010154612a0381612a67565b610ba88383612b13565b60008162ffffff16606403612a2457506002919050565b8162ffffff166101f403612a3a5750600a919050565b8162ffffff16610bb803612a505750603c919050565b8162ffffff1661271003612a62575060c85b919050565b610a4a81336139f7565b60008281526004602090815260408083206001600160a01b038516845290915290205460ff16610dea5760008281526004602090815260408083206001600160a01b03851684529091529020805460ff19166001179055612acf3390565b6001600160a01b0316816001600160a01b0316837f2f8788117e7eff1d82e926ec794901d17c78024a50270940304540a733656f0d60405160405180910390a45050565b60008281526004602090815260408083206001600160a01b038516845290915290205460ff1615610dea5760008281526004602090815260408083206001600160a01b0385168085529252808320805460ff1916905551339285917ff6391f5c32d9c69d2a47ea670b442974b53935d1edc7fd64eb21e047a839171b9190a45050565b60008163ffffffff16600003612bd35760405162461bcd60e51b8152602060048201526002602482015261042560f41b6044820152606401610a17565b6040805160028082526060820183526000926020830190803683370190505090508281600081518110612c0857612c08614747565b602002602001019063ffffffff16908163ffffffff1681525050600081600181518110612c3757612c37614747565b63ffffffff9092166020928302919091019091015260405163883bdbfd60e01b81526000906001600160a01b0386169063883bdbfd90612c7b90859060040161475d565b600060405180830381865afa158015612c98573d6000803e3d6000fd5b505050506040513d6000823e601f3d908101601f19168201604052612cc0919081019061483f565b509050600081600081518110612cd857612cd8614747565b602002602001015182600181518110612cf357612cf3614747565b6020026020010151612d05919061490b565b9050612d15600386900b82614938565b935060008160060b128015612d395750612d33600386900b8261496d565b60060b15155b15612d4c5783612d488161498f565b9450505b50505092915050565b6008546040516370a0823160e01b815230600482015283916001600160a01b0316906370a0823190602401602060405180830381865afa158015612d9d573d6000803e3d6000fd5b505050506040513d601f19601f82011682018060405250810190612dc19190614659565b1015612e0f5760405162461bcd60e51b815260206004820152601460248201527f746f7320697320696e73756666696369656e742e0000000000000000000000006044820152606401610a17565b6040516370a0823160e01b815230600482015281906001600160a01b038516906370a0823190602401602060405180830381865afa158015612e55573d6000803e3d6000fd5b505050506040513d601f19601f82011682018060405250810190612e799190614659565b1015612ec75760405162461bcd60e51b815260206004820152601660248201527f746f6b656e20697320696e73756666696369656e742e000000000000000000006044820152606401610a17565b600854600a54604051636eb1769f60e11b81523060048201526001600160a01b03918216602482015291169063dd62ed3e90604401602060405180830381865afa158015612f19573d6000803e3d6000fd5b505050506040513d601f19601f82011682018060405250810190612f3d9190614659565b82111561307a57600854600a54604080516318160ddd60e01b815290516001600160a01b039384169363095ea7b393169184916318160ddd916004808201926020929091908290030181865afa158015612f9b573d6000803e3d6000fd5b505050506040513d601f19601f82011682018060405250810190612fbf9190614659565b6040516001600160e01b031960e085901b1681526001600160a01b03909216600483015260248201526044016020604051808303816000875af115801561300a573d6000803e3d6000fd5b505050506040513d601f19601f8201168201806040525081019061302e91906149b2565b61307a5760405162461bcd60e51b815260206004820152601060248201527f544f5320617070726f7665206661696c000000000000000000000000000000006044820152606401610a17565b600a54604051636eb1769f60e11b81523060048201526001600160a01b0391821660248201529084169063dd62ed3e90604401602060405180830381865afa1580156130ca573d6000803e3d6000fd5b505050506040513d601f19601f820116820180604052508101906130ee9190614659565b811115610ba857826001600160a01b031663095ea7b3600a60009054906101000a90046001600160a01b0316856001600160a01b03166318160ddd6040518163ffffffff1660e01b8152600401602060405180830381865afa158015613158573d6000803e3d6000fd5b505050506040513d601f19601f8201168201806040525081019061317c9190614659565b6040516001600160e01b031960e085901b1681526001600160a01b03909216600483015260248201526044016020604051808303816000875af11580156131c7573d6000803e3d6000fd5b505050506040513d601f19601f820116820180604052508101906131eb91906149b2565b610ba85760405162461bcd60e51b815260206004820152601260248201527f746f6b656e20617070726f7665206661696c00000000000000000000000000006044820152606401610a17565b6001600160a01b0385166000908152600c602052604090206004810154156132a15760405162461bcd60e51b815260206004820152600e60248201527f616c7265616479206d696e7465640000000000000000000000000000000000006044820152606401610a17565b60058101546000906132be90600160c01b900462ffffff16612a0d565b60058301546132d890600160c01b900462ffffff16612a0d565b6132e690620d89e7196146c6565b6132f09190614543565b905060006133108360050160189054906101000a900462ffffff16612a0d565b600584015461332a90600160c01b900462ffffff16612a0d565b613337620d89e719614700565b61334191906146c6565b61334b9190614543565b600a546040805161016081018083528754630dfe168160e01b90915291519394506000938493849384936001600160a01b0392831693638831645693919283921690630dfe168190610164808501916020918187030181865afa1580156133b6573d6000803e3d6000fd5b505050506040513d601f19601f820116820180604052508101906133da919061458f565b6001600160a01b031681526020018a60000160009054906101000a90046001600160a01b03166001600160a01b031663d21220a76040518163ffffffff1660e01b8152600401602060405180830381865afa15801561343d573d6000803e3d6000fd5b505050506040513d601f19601f82011682018060405250810190613461919061458f565b6001600160a01b031681526020018a60050160189054906101000a900462ffffff1662ffffff1681526020018960020b81526020018860020b81526020018e81526020018d81526020018c81526020018b8152602001306001600160a01b03168152602001428152506040518263ffffffff1660e01b81526004016134e691906149cd565b6080604051808303816000875af1158015613505573d6000803e3d6000fd5b505050506040513d601f19601f820116820180604052508101906135299190614a91565b9350935093509350600084116135815760405162461bcd60e51b815260206004820152600c60248201527f7a65726f20746f6b656e496400000000000000000000000000000000000000006044820152606401610a17565b6004870184905586546040517e80a7e05c1e726da26ef60dc270a12c37b0bc54fc6adbc18d22f991976cf33291613605918f916001600160a01b03169088908890889088906001600160a01b03968716815294909516602085015260408401929092526001600160801b03166060830152608082015260a081019190915260c00190565b60405180910390a1505050505050505050505050565b6001600160a01b0385166000908152600c6020526040902060048101546136845760405162461bcd60e51b815260206004820152601460248201527f4974206973206e6f74206d696e746564207965740000000000000000000000006044820152606401610a17565b600a546040805160c08101825260048481015482526020820189815282840189815260608401898152608085018981524260a08701908152965163219f5d1760e01b815295519486019490945291516024850152516044840152516064830152516084820152905160a4820152600091829182916001600160a01b03169063219f5d179060c4016060604051808303816000875af115801561372a573d6000803e3d6000fd5b505050506040513d601f19601f8201168201806040525081019061374e9190614acf565b6004870154604080516001600160801b0386168152602081018590529081018390529396509194509250907e242840c59a1b38c7f01b50c3ba18ebd1a8f5b28cfc8b9fb894c4ea46696ba49060600160405180910390a2505050505050505050565b6000806137bc86613a6c565b90506001600160801b036001600160a01b038216116138425760006137ea6001600160a01b03831680614685565b9050836001600160a01b0316856001600160a01b0316106138225761381d600160c01b876001600160801b031683613e8c565b61383a565b61383a81876001600160801b0316600160c01b613e8c565b9250506138b5565b60006138616001600160a01b0383168068010000000000000000613e8c565b9050836001600160a01b0316856001600160a01b03161061389957613894600160801b876001600160801b031683613e8c565b6138b1565b6138b181876001600160801b0316600160801b613e8c565b9250505b50949350505050565b604080516001600160a01b0385811660248301528481166044830152606480830185905283518084039091018152608490920183526020820180517bffffffffffffffffffffffffffffffffffffffffffffffffffffffff166323b872dd60e01b17905291516000928392908816916139379190614b2a565b6000604051808303816000865af19150503d8060008114613974576040519150601f19603f3d011682016040523d82523d6000602084013e613979565b606091505b50915091508180156139a35750805115806139a35750808060200190518101906139a391906149b2565b6139ef5760405162461bcd60e51b815260206004820152601460248201527f5452414e534645525f46524f4d5f4641494c45440000000000000000000000006044820152606401610a17565b505050505050565b60008281526004602090815260408083206001600160a01b038516845290915290205460ff16610dea57613a2a81613f54565b613a35836020613f66565b604051602001613a46929190614b46565b60408051601f198184030181529082905262461bcd60e51b8252610a1791600401614bc7565b60008060008360020b12613a83578260020b613a90565b8260020b613a9090614bfa565b9050613a9f620d89e719614700565b60020b811115613ad55760405162461bcd60e51b81526020600482015260016024820152601560fa1b6044820152606401610a17565b600081600116600003613aec57600160801b613afe565b6ffffcb933bd6fad37aa2d162d1a5940015b70ffffffffffffffffffffffffffffffffff1690506002821615613b3d576080613b38826ffff97272373d413259a46990580e213a614685565b901c90505b6004821615613b67576080613b62826ffff2e50f5f656932ef12357cf3c7fdcc614685565b901c90505b6008821615613b91576080613b8c826fffe5caca7e10e4e61c3624eaa0941cd0614685565b901c90505b6010821615613bbb576080613bb6826fffcb9843d60f6159c9db58835c926644614685565b901c90505b6020821615613be5576080613be0826fff973b41fa98c081472e6896dfb254c0614685565b901c90505b6040821615613c0f576080613c0a826fff2ea16466c96a3843ec78b326b52861614685565b901c90505b6080821615613c39576080613c34826ffe5dee046a99a2a811c461f1969c3053614685565b901c90505b610100821615613c64576080613c5f826ffcbe86c7900a88aedcffc83b479aa3a4614685565b901c90505b610200821615613c8f576080613c8a826ff987a7253ac413176f2b074cf7815e54614685565b901c90505b610400821615613cba576080613cb5826ff3392b0822b70005940c7a398e4b70f3614685565b901c90505b610800821615613ce5576080613ce0826fe7159475a2c29b7443b29c7fa6e889d9614685565b901c90505b611000821615613d10576080613d0b826fd097f3bdfd2022b8845ad8f792aa5825614685565b901c90505b612000821615613d3b576080613d36826fa9f746462d870fdf8a65dc1f90e061e5614685565b901c90505b614000821615613d66576080613d61826f70d869a156d2a1b890bb3df62baf32f7614685565b901c90505b618000821615613d91576080613d8c826f31be135f97d08fd981231505542fcfa6614685565b901c90505b62010000821615613dbd576080613db8826f09aa508b5b7a84e1c677de54f3e99bc9614685565b901c90505b62020000821615613de8576080613de3826e5d6af8dedb81196699c329225ee604614685565b901c90505b62040000821615613e12576080613e0d826d2216e584f5fa1ea926041bedfe98614685565b901c90505b62080000821615613e3a576080613e35826b048a170391f7dc42444e8fa2614685565b901c90505b60008460020b1315613e5557613e52816000196146b2565b90505b613e6464010000000082614c16565b15613e70576001613e73565b60005b613e849060ff16602083901c614c2a565b949350505050565b6000808211613e9a57600080fd5b60008060001985870985870292508281108382030391505080600003613ec55750829004905061205d565b808411613ed157600080fd5b600084868809808403938111909203919050600085613ef281600019614672565b613efd906001614c2a565b16958690049560026003880281188089028203028089028203028089028203028089028203028089028203028089029091030260008290038290046001019490940294049390931791909102925050509392505050565b606061096b6001600160a01b03831660145b60606000613f75836002614685565b613f80906002614c2a565b67ffffffffffffffff811115613f9857613f986142d9565b6040519080825280601f01601f191660200182016040528015613fc2576020820181803683370190505b509050600360fc1b81600081518110613fdd57613fdd614747565b60200101906001600160f81b031916908160001a905350600f60fb1b8160018151811061400c5761400c614747565b60200101906001600160f81b031916908160001a9053506000614030846002614685565b61403b906001614c2a565b90505b60018111156140c0577f303132333435363738396162636465660000000000000000000000000000000085600f166010811061407c5761407c614747565b1a60f81b82828151811061409257614092614747565b60200101906001600160f81b031916908160001a90535060049490941c936140b981614c3d565b905061403e565b50831561205d5760405162461bcd60e51b815260206004820181905260248201527f537472696e67733a20686578206c656e67746820696e73756666696369656e746044820152606401610a17565b60006020828403121561412157600080fd5b81356001600160e01b03198116811461205d57600080fd5b8060020b8114610a4a57600080fd5b6000806040838503121561415b57600080fd5b823561416681614139565b9150602083013561417681614139565b809150509250929050565b6001600160a01b0381168114610a4a57600080fd5b6000602082840312156141a857600080fd5b813561205d81614181565b6000602082840312156141c557600080fd5b5035919050565b6000602082840312156141de57600080fd5b813561205d81614139565b600080604083850312156141fc57600080fd5b82359150602083013561417681614181565b6000806040838503121561422157600080fd5b823561422c81614181565b9150602083013561417681614181565b6000806040838503121561424f57600080fd5b823561425a81614181565b946020939093013593505050565b6001600160801b0381168114610a4a57600080fd5b6000806000806080858703121561429357600080fd5b843561429e81614139565b935060208501356142ae81614268565b925060408501356142be81614181565b915060608501356142ce81614181565b939692955090935050565b634e487b7160e01b600052604160045260246000fd5b604051601f8201601f1916810167ffffffffffffffff81118282101715614318576143186142d9565b604052919050565b803563ffffffff81168114612a6257600080fd5b61ffff81168114610a4a57600080fd5b60008082840360e081121561435857600080fd5b833561436381614181565b925060c0601f198201121561437757600080fd5b5060405160c0810181811067ffffffffffffffff8211171561439b5761439b6142d9565b8060405250602084013581526040840135602082015260608401356040820152608084013560608201526143d160a08501614320565b608082015260c08401356143e481614334565b60a0820152919491935090915050565b6000806040838503121561440757600080fd5b823561441281614181565b915061442060208401614320565b90509250929050565b60006020828403121561443b57600080fd5b61205d82614320565b6000806000806080858703121561445a57600080fd5b843561446581614181565b935060208501356142ae81614181565b6000610120820190506001600160a01b0383511682526020830151602083015260408301516040830152606083015160608301526080830151608083015263ffffffff60a08401511660a083015260c08301516144dd60c08401826001600160a01b03169052565b5060e08301516144f460e084018262ffffff169052565b5061010083810151801515848301526109c5565b60006020828403121561451a57600080fd5b813562ffffff8116811461205d57600080fd5b634e487b7160e01b600052601160045260246000fd5b60008260020b8260020b028060020b91508082146145635761456361452d565b5092915050565b600282810b9082900b03627fffff198112627fffff8213171561096b5761096b61452d565b6000602082840312156145a157600080fd5b815161205d81614181565b80518015158114612a6257600080fd5b600080600080600080600060e0888a0312156145d757600080fd5b87516145e281614181565b60208901519097506145f381614139565b604089015190965061460481614334565b606089015190955061461581614334565b608089015190945061462681614334565b60a089015190935060ff8116811461463d57600080fd5b915061464b60c089016145ac565b905092959891949750929550565b60006020828403121561466b57600080fd5b5051919050565b8181038181111561096b5761096b61452d565b808202811582820484141761096b5761096b61452d565b634e487b7160e01b600052601260045260246000fd5b6000826146c1576146c161469c565b500490565b60008160020b8360020b806146dd576146dd61469c565b627fffff198214600019821416156146f7576146f761452d565b90059392505050565b60008160020b627fffff1981036147195761471961452d565b60000392915050565b600281810b9083900b01627fffff8113627fffff198212171561096b5761096b61452d565b634e487b7160e01b600052603260045260246000fd5b6020808252825182820181905260009190848201906040850190845b8181101561479b57835163ffffffff1683529284019291840191600101614779565b50909695505050505050565b600067ffffffffffffffff8211156147c1576147c16142d9565b5060051b60200190565b600082601f8301126147dc57600080fd5b815160206147f16147ec836147a7565b6142ef565b82815260059290921b8401810191818101908684111561481057600080fd5b8286015b8481101561483457805161482781614181565b8352918301918301614814565b509695505050505050565b6000806040838503121561485257600080fd5b825167ffffffffffffffff8082111561486a57600080fd5b818501915085601f83011261487e57600080fd5b8151602061488e6147ec836147a7565b82815260059290921b840181019181810190898411156148ad57600080fd5b948201945b838610156148db5785518060060b81146148cc5760008081fd5b825294820194908201906148b2565b918801519196509093505050808211156148f457600080fd5b50614901858286016147cb565b9150509250929050565b600682810b9082900b03667fffffffffffff198112667fffffffffffff8213171561096b5761096b61452d565b60008160060b8360060b8061494f5761494f61469c565b667fffffffffffff198214600019821416156146f7576146f761452d565b60008260060b806149805761498061469c565b808360060b0791505092915050565b60008160020b627fffff1981036149a8576149a861452d565b6000190192915050565b6000602082840312156149c457600080fd5b61205d826145ac565b81516001600160a01b03168152610160810160208301516149f960208401826001600160a01b03169052565b506040830151614a10604084018262ffffff169052565b506060830151614a25606084018260020b9052565b506080830151614a3a608084018260020b9052565b5060a083015160a083015260c083015160c083015260e083015160e083015261010080840151818401525061012080840151614a80828501826001600160a01b03169052565b505061014092830151919092015290565b60008060008060808587031215614aa757600080fd5b845193506020850151614ab981614268565b6040860151606090960151949790965092505050565b600080600060608486031215614ae457600080fd5b8351614aef81614268565b602085015160409095015190969495509392505050565b60005b83811015614b21578181015183820152602001614b09565b50506000910152565b60008251614b3c818460208701614b06565b9190910192915050565b7f416363657373436f6e74726f6c3a206163636f756e7420000000000000000000815260008351614b7e816017850160208801614b06565b7f206973206d697373696e6720726f6c65200000000000000000000000000000006017918401918201528351614bbb816028840160208801614b06565b01602801949350505050565b6020815260008251806020840152614be6816040850160208701614b06565b601f01601f19169190910160400192915050565b6000600160ff1b8201614c0f57614c0f61452d565b5060000390565b600082614c2557614c2561469c565b500690565b8082018082111561096b5761096b61452d565b600081614c4c57614c4c61452d565b50600019019056fe41636365737369626c653a2043616c6c6572206973206e6f7420616e2061646da164736f6c6343000812000a",
  "linkReferences": {},
  "deployedLinkReferences": {}
}