{
  "_format": "hh-sol-artifact-1",
  "contractName": "L2InitialLiquidityVault",
  "sourceName": "contracts/L2/vaults/L2InitialLiquidityVault.sol",
  "abi": [
    {
      "anonymous": false,
      "inputs": [
        {
          "indexed": false,
          "internalType": "address",
          "name": "l2Token",
          "type": "address"
        },
        {
          "indexed": false,
          "internalType": "address",
          "name": "to",
          "type": "address"
        },
        {
          "indexed": false,
          "internalType": "uint256",
          "name": "amount",
          "type": "uint256"
        }
      ],
      "name": "Claimed",
      "type": "event"
    },
    {
      "anonymous": false,
      "inputs": [
        {
          "indexed": true,
          "internalType": "uint256",
          "name": "tokenId",
          "type": "uint256"
        },
        {
          "indexed": false,
          "internalType": "uint128",
          "name": "liquidity",
          "type": "uint128"
        },
        {
          "indexed": false,
          "internalType": "uint256",
          "name": "amount0",
          "type": "uint256"
        },
        {
          "indexed": false,
          "internalType": "uint256",
          "name": "amount1",
          "type": "uint256"
        }
      ],
      "name": "IncreasedLiquidityInVault",
      "type": "event"
    },
    {
      "anonymous": false,
      "inputs": [
        {
          "indexed": false,
          "internalType": "address",
          "name": "l2Token",
          "type": "address"
        },
        {
          "indexed": false,
          "internalType": "address",
          "name": "pool",
          "type": "address"
        },
        {
          "indexed": false,
          "internalType": "uint256",
          "name": "tokenId",
          "type": "uint256"
        },
        {
          "indexed": false,
          "internalType": "uint128",
          "name": "liquidity",
          "type": "uint128"
        },
        {
          "indexed": false,
          "internalType": "uint256",
          "name": "amount0",
          "type": "uint256"
        },
        {
          "indexed": false,
          "internalType": "uint256",
          "name": "amount1",
          "type": "uint256"
        }
      ],
      "name": "InitialMintedInVault",
      "type": "event"
    },
    {
      "anonymous": false,
      "inputs": [
        {
          "indexed": false,
          "internalType": "address",
          "name": "l2Token",
          "type": "address"
        },
        {
          "indexed": false,
          "internalType": "uint256",
          "name": "totalAllocatedAmount",
          "type": "uint256"
        },
        {
          "indexed": false,
          "internalType": "uint256",
          "name": "initialTosPrice",
          "type": "uint256"
        },
        {
          "indexed": false,
          "internalType": "uint256",
          "name": "initialTokenPrice",
          "type": "uint256"
        },
        {
          "indexed": false,
          "internalType": "uint256",
          "name": "startTime",
          "type": "uint256"
        },
        {
          "indexed": false,
          "internalType": "uint160",
          "name": "initSqrtPriceX96",
          "type": "uint160"
        },
        {
          "indexed": false,
          "internalType": "uint24",
          "name": "fee",
          "type": "uint24"
        }
      ],
      "name": "InitializedInitialLiquidityVault",
      "type": "event"
    },
    {
      "anonymous": false,
      "inputs": [
        {
          "indexed": true,
          "internalType": "bytes32",
          "name": "role",
          "type": "bytes32"
        },
        {
          "indexed": true,
          "internalType": "bytes32",
          "name": "previousAdminRole",
          "type": "bytes32"
        },
        {
          "indexed": true,
          "internalType": "bytes32",
          "name": "newAdminRole",
          "type": "bytes32"
        }
      ],
      "name": "RoleAdminChanged",
      "type": "event"
    },
    {
      "anonymous": false,
      "inputs": [
        {
          "indexed": true,
          "internalType": "bytes32",
          "name": "role",
          "type": "bytes32"
        },
        {
          "indexed": true,
          "internalType": "address",
          "name": "account",
          "type": "address"
        },
        {
          "indexed": true,
          "internalType": "address",
          "name": "sender",
          "type": "address"
        }
      ],
      "name": "RoleGranted",
      "type": "event"
    },
    {
      "anonymous": false,
      "inputs": [
        {
          "indexed": true,
          "internalType": "bytes32",
          "name": "role",
          "type": "bytes32"
        },
        {
          "indexed": true,
          "internalType": "address",
          "name": "account",
          "type": "address"
        },
        {
          "indexed": true,
          "internalType": "address",
          "name": "sender",
          "type": "address"
        }
      ],
      "name": "RoleRevoked",
      "type": "event"
    },
    {
      "anonymous": false,
      "inputs": [
        {
          "indexed": false,
          "internalType": "address",
          "name": "l2Token",
          "type": "address"
        },
        {
          "indexed": false,
          "internalType": "address",
          "name": "pool",
          "type": "address"
        }
      ],
      "name": "SetCreatedPool",
      "type": "event"
    },
    {
      "anonymous": false,
      "inputs": [
        {
          "indexed": false,
          "internalType": "address",
          "name": "newInitializer",
          "type": "address"
        }
      ],
      "name": "SetInitializer",
      "type": "event"
    },
    {
      "anonymous": false,
      "inputs": [
        {
          "indexed": false,
          "internalType": "address",
          "name": "l2Token",
          "type": "address"
        },
        {
          "indexed": false,
          "internalType": "address",
          "name": "pool",
          "type": "address"
        },
        {
          "indexed": false,
          "internalType": "uint160",
          "name": "inSqrtPriceX96",
          "type": "uint160"
        }
      ],
      "name": "SetPoolInitialized",
      "type": "event"
    },
    {
      "anonymous": false,
      "inputs": [
        {
          "indexed": false,
          "internalType": "address",
          "name": "l2Token",
          "type": "address"
        },
        {
          "indexed": false,
          "internalType": "uint256",
          "name": "startTime",
          "type": "uint256"
        }
      ],
      "name": "SetStartTime",
      "type": "event"
    },
    {
      "anonymous": false,
      "inputs": [
        {
          "indexed": false,
          "internalType": "address",
          "name": "_factory",
          "type": "address"
        },
        {
          "indexed": false,
          "internalType": "address",
          "name": "_npm",
          "type": "address"
        },
        {
          "indexed": false,
          "internalType": "address",
          "name": "_ton",
          "type": "address"
        },
        {
          "indexed": false,
          "internalType": "address",
          "name": "_tos",
          "type": "address"
        }
      ],
      "name": "SetUniswapInfo",
      "type": "event"
    },
    {
      "anonymous": false,
      "inputs": [
        {
          "indexed": false,
          "internalType": "address",
          "name": "l2Token",
          "type": "address"
        },
        {
          "indexed": false,
          "internalType": "address",
          "name": "newAdmin",
          "type": "address"
        }
      ],
      "name": "SetVaultAdmin",
      "type": "event"
    },
    {
      "inputs": [],
      "name": "ADMIN_ROLE",
      "outputs": [
        {
          "internalType": "bytes32",
          "name": "",
          "type": "bytes32"
        }
      ],
      "stateMutability": "view",
      "type": "function"
    },
    {
      "inputs": [],
      "name": "DEFAULT_ADMIN_ROLE",
      "outputs": [
        {
          "internalType": "bytes32",
          "name": "",
          "type": "bytes32"
        }
      ],
      "stateMutability": "view",
      "type": "function"
    },
    {
      "inputs": [],
      "name": "POLICY_ROLE",
      "outputs": [
        {
          "internalType": "bytes32",
          "name": "",
          "type": "bytes32"
        }
      ],
      "stateMutability": "view",
      "type": "function"
    },
    {
      "inputs": [],
      "name": "TWAP_PERIOD",
      "outputs": [
        {
          "internalType": "uint32",
          "name": "",
          "type": "uint32"
        }
      ],
      "stateMutability": "view",
      "type": "function"
    },
    {
      "inputs": [
        {
          "internalType": "int24",
          "name": "_tick",
          "type": "int24"
        },
        {
          "internalType": "int24",
          "name": "_tickSpacings",
          "type": "int24"
        }
      ],
      "name": "acceptMaxTick",
      "outputs": [
        {
          "internalType": "int24",
          "name": "",
          "type": "int24"
        }
      ],
      "stateMutability": "view",
      "type": "function"
    },
    {
      "inputs": [
        {
          "internalType": "int24",
          "name": "_tick",
          "type": "int24"
        },
        {
          "internalType": "int24",
          "name": "_tickSpacings",
          "type": "int24"
        }
      ],
      "name": "acceptMinTick",
      "outputs": [
        {
          "internalType": "int24",
          "name": "",
          "type": "int24"
        }
      ],
      "stateMutability": "view",
      "type": "function"
    },
    {
      "inputs": [],
      "name": "acceptSlippagePrice",
      "outputs": [
        {
          "internalType": "int24",
          "name": "",
          "type": "int24"
        }
      ],
      "stateMutability": "view",
      "type": "function"
    },
    {
      "inputs": [],
      "name": "acceptTickChangeInterval",
      "outputs": [
        {
          "internalType": "int24",
          "name": "",
          "type": "int24"
        }
      ],
      "stateMutability": "view",
      "type": "function"
    },
    {
      "inputs": [
        {
          "internalType": "address",
          "name": "account",
          "type": "address"
        }
      ],
      "name": "addAdmin",
      "outputs": [],
      "stateMutability": "nonpayable",
      "type": "function"
    },
    {
      "inputs": [
        {
          "internalType": "address",
          "name": "",
          "type": "address"
        }
      ],
      "name": "aliveImplementation",
      "outputs": [
        {
          "internalType": "bool",
          "name": "",
          "type": "bool"
        }
      ],
      "stateMutability": "view",
      "type": "function"
    },
    {
      "inputs": [
        {
          "internalType": "int24",
          "name": "tickSpacings",
          "type": "int24"
        }
      ],
      "name": "getMaxTick",
      "outputs": [
        {
          "internalType": "int24",
          "name": "",
          "type": "int24"
        }
      ],
      "stateMutability": "pure",
      "type": "function"
    },
    {
      "inputs": [
        {
          "internalType": "int24",
          "name": "tickSpacings",
          "type": "int24"
        }
      ],
      "name": "getMiniTick",
      "outputs": [
        {
          "internalType": "int24",
          "name": "",
          "type": "int24"
        }
      ],
      "stateMutability": "pure",
      "type": "function"
    },
    {
      "inputs": [
        {
          "internalType": "int24",
          "name": "tick",
          "type": "int24"
        },
        {
          "internalType": "uint128",
          "name": "amountIn",
          "type": "uint128"
        },
        {
          "internalType": "address",
          "name": "baseToken",
          "type": "address"
        },
        {
          "internalType": "address",
          "name": "quoteToken",
          "type": "address"
        }
      ],
      "name": "getQuoteAtTick",
      "outputs": [
        {
          "internalType": "uint256",
          "name": "amountOut",
          "type": "uint256"
        }
      ],
      "stateMutability": "pure",
      "type": "function"
    },
    {
      "inputs": [
        {
          "internalType": "bytes32",
          "name": "role",
          "type": "bytes32"
        }
      ],
      "name": "getRoleAdmin",
      "outputs": [
        {
          "internalType": "bytes32",
          "name": "",
          "type": "bytes32"
        }
      ],
      "stateMutability": "view",
      "type": "function"
    },
    {
      "inputs": [
        {
          "internalType": "uint24",
          "name": "_fee",
          "type": "uint24"
        }
      ],
      "name": "getTickSpacing",
      "outputs": [
        {
          "internalType": "int24",
          "name": "tickSpacings",
          "type": "int24"
        }
      ],
      "stateMutability": "pure",
      "type": "function"
    },
    {
      "inputs": [
        {
          "internalType": "bytes32",
          "name": "role",
          "type": "bytes32"
        },
        {
          "internalType": "address",
          "name": "account",
          "type": "address"
        }
      ],
      "name": "grantRole",
      "outputs": [],
      "stateMutability": "nonpayable",
      "type": "function"
    },
    {
      "inputs": [
        {
          "internalType": "bytes32",
          "name": "role",
          "type": "bytes32"
        },
        {
          "internalType": "address",
          "name": "account",
          "type": "address"
        }
      ],
      "name": "hasRole",
      "outputs": [
        {
          "internalType": "bool",
          "name": "",
          "type": "bool"
        }
      ],
      "stateMutability": "view",
      "type": "function"
    },
    {
      "inputs": [
        {
          "internalType": "address",
          "name": "l2Token",
          "type": "address"
        },
        {
          "components": [
            {
              "internalType": "uint256",
              "name": "totalAllocatedAmount",
              "type": "uint256"
            },
            {
              "internalType": "uint256",
              "name": "tosPrice",
              "type": "uint256"
            },
            {
              "internalType": "uint256",
              "name": "tokenPrice",
              "type": "uint256"
            },
            {
              "internalType": "uint256",
              "name": "initSqrtPrice",
              "type": "uint256"
            },
            {
              "internalType": "uint256",
              "name": "startTime",
              "type": "uint256"
            },
            {
              "internalType": "uint16",
              "name": "fee",
              "type": "uint16"
            }
          ],
          "internalType": "struct LibProject.InitalParameterInitialLiquidityVault",
          "name": "params",
          "type": "tuple"
        }
      ],
      "name": "initialize",
      "outputs": [],
      "stateMutability": "nonpayable",
      "type": "function"
    },
    {
      "inputs": [],
      "name": "initializer",
      "outputs": [
        {
          "internalType": "address",
          "name": "",
          "type": "address"
        }
      ],
      "stateMutability": "view",
      "type": "function"
    },
    {
      "inputs": [
        {
          "internalType": "address",
          "name": "account",
          "type": "address"
        }
      ],
      "name": "isAdmin",
      "outputs": [
        {
          "internalType": "bool",
          "name": "",
          "type": "bool"
        }
      ],
      "stateMutability": "view",
      "type": "function"
    },
    {
      "inputs": [],
      "name": "l2ProjectManager",
      "outputs": [
        {
          "internalType": "address",
          "name": "",
          "type": "address"
        }
      ],
      "stateMutability": "view",
      "type": "function"
    },
    {
      "inputs": [
        {
          "internalType": "address",
          "name": "l2Token",
          "type": "address"
        },
        {
          "internalType": "uint256",
          "name": "tosAmount",
          "type": "uint256"
        }
      ],
      "name": "mint",
      "outputs": [],
      "stateMutability": "nonpayable",
      "type": "function"
    },
    {
      "inputs": [],
      "name": "nonfungiblePositionManager",
      "outputs": [
        {
          "internalType": "address",
          "name": "",
          "type": "address"
        }
      ],
      "stateMutability": "view",
      "type": "function"
    },
    {
      "inputs": [],
      "name": "pauseProxy",
      "outputs": [
        {
          "internalType": "bool",
          "name": "",
          "type": "bool"
        }
      ],
      "stateMutability": "view",
      "type": "function"
    },
    {
      "inputs": [
        {
          "internalType": "address",
          "name": "",
          "type": "address"
        }
      ],
      "name": "poolInfo",
      "outputs": [
        {
          "internalType": "address",
          "name": "pool",
          "type": "address"
        },
        {
          "internalType": "uint256",
          "name": "totalAllocatedAmount",
          "type": "uint256"
        },
        {
          "internalType": "uint256",
          "name": "initialTosPrice",
          "type": "uint256"
        },
        {
          "internalType": "uint256",
          "name": "initialTokenPrice",
          "type": "uint256"
        },
        {
          "internalType": "uint256",
          "name": "lpToken",
          "type": "uint256"
        },
        {
          "internalType": "uint256",
          "name": "startTime",
          "type": "uint256"
        },
        {
          "internalType": "uint160",
          "name": "initSqrtPriceX96",
          "type": "uint160"
        },
        {
          "internalType": "uint24",
          "name": "fee",
          "type": "uint24"
        },
        {
          "internalType": "bool",
          "name": "boolReadyToCreatePool",
          "type": "bool"
        }
      ],
      "stateMutability": "view",
      "type": "function"
    },
    {
      "inputs": [
        {
          "internalType": "uint256",
          "name": "",
          "type": "uint256"
        }
      ],
      "name": "proxyImplementation",
      "outputs": [
        {
          "internalType": "address",
          "name": "",
          "type": "address"
        }
      ],
      "stateMutability": "view",
      "type": "function"
    },
    {
      "inputs": [
        {
          "internalType": "address",
          "name": "account",
          "type": "address"
        }
      ],
      "name": "removeAdmin",
      "outputs": [],
      "stateMutability": "nonpayable",
      "type": "function"
    },
    {
      "inputs": [
        {
          "internalType": "bytes32",
          "name": "role",
          "type": "bytes32"
        },
        {
          "internalType": "address",
          "name": "account",
          "type": "address"
        }
      ],
      "name": "renounceRole",
      "outputs": [],
      "stateMutability": "nonpayable",
      "type": "function"
    },
    {
      "inputs": [
        {
          "internalType": "bytes32",
          "name": "role",
          "type": "bytes32"
        },
        {
          "internalType": "address",
          "name": "account",
          "type": "address"
        }
      ],
      "name": "revokeRole",
      "outputs": [],
      "stateMutability": "nonpayable",
      "type": "function"
    },
    {
      "inputs": [
        {
          "internalType": "bytes4",
          "name": "",
          "type": "bytes4"
        }
      ],
      "name": "selectorImplementation",
      "outputs": [
        {
          "internalType": "address",
          "name": "",
          "type": "address"
        }
      ],
      "stateMutability": "view",
      "type": "function"
    },
    {
      "inputs": [
        {
          "internalType": "address",
          "name": "l2Token",
          "type": "address"
        }
      ],
      "name": "setCreatePool",
      "outputs": [],
      "stateMutability": "nonpayable",
      "type": "function"
    },
    {
      "inputs": [
        {
          "internalType": "address",
          "name": "l2Token",
          "type": "address"
        },
        {
          "internalType": "uint256",
          "name": "_startTime",
          "type": "uint256"
        }
      ],
      "name": "setStartTime",
      "outputs": [],
      "stateMutability": "nonpayable",
      "type": "function"
    },
    {
      "inputs": [
        {
          "internalType": "address",
          "name": "_poolfactory",
          "type": "address"
        },
        {
          "internalType": "address",
          "name": "_npm",
          "type": "address"
        },
        {
          "internalType": "address",
          "name": "_ton",
          "type": "address"
        },
        {
          "internalType": "address",
          "name": "_tos",
          "type": "address"
        }
      ],
      "name": "setUniswapInfo",
      "outputs": [],
      "stateMutability": "nonpayable",
      "type": "function"
    },
    {
      "inputs": [
        {
          "internalType": "bytes4",
          "name": "interfaceId",
          "type": "bytes4"
        }
      ],
      "name": "supportsInterface",
      "outputs": [
        {
          "internalType": "bool",
          "name": "",
          "type": "bool"
        }
      ],
      "stateMutability": "view",
      "type": "function"
    },
    {
      "inputs": [],
      "name": "tickIntervalMinimum",
      "outputs": [
        {
          "internalType": "int24",
          "name": "",
          "type": "int24"
        }
      ],
      "stateMutability": "view",
      "type": "function"
    },
    {
      "inputs": [],
      "name": "tickSpacings",
      "outputs": [
        {
          "internalType": "int24",
          "name": "",
          "type": "int24"
        }
      ],
      "stateMutability": "view",
      "type": "function"
    },
    {
      "inputs": [],
      "name": "ton",
      "outputs": [
        {
          "internalType": "address",
          "name": "",
          "type": "address"
        }
      ],
      "stateMutability": "view",
      "type": "function"
    },
    {
      "inputs": [],
      "name": "tos",
      "outputs": [
        {
          "internalType": "address",
          "name": "",
          "type": "address"
        }
      ],
      "stateMutability": "view",
      "type": "function"
    },
    {
      "inputs": [
        {
          "internalType": "address",
          "name": "newAdmin",
          "type": "address"
        }
      ],
      "name": "transferAdmin",
      "outputs": [],
      "stateMutability": "nonpayable",
      "type": "function"
    },
    {
      "inputs": [],
      "name": "uniswapV3Factory",
      "outputs": [
        {
          "internalType": "address",
          "name": "",
          "type": "address"
        }
      ],
      "stateMutability": "view",
      "type": "function"
    },
    {
      "inputs": [
        {
          "internalType": "address",
          "name": "",
          "type": "address"
        }
      ],
      "name": "vaultAdminOfToken",
      "outputs": [
        {
          "internalType": "address",
          "name": "",
          "type": "address"
        }
      ],
      "stateMutability": "view",
      "type": "function"
    }
  ],
  "bytecode": "0x60806040526005805460ff1916600117905534801561001d57600080fd5b506143c38061002d6000396000f3fe608060405234801561001057600080fd5b50600436106102d35760003560e01c806370480275116101865780639ce110d7116100e3578063b911135f11610097578063d547741f11610071578063d547741f1461076a578063d684395d1461077d578063ea8668151461079057600080fd5b8063b911135f1461071b578063bef6dc8b14610744578063cc48b9471461075757600080fd5b8063a22f84f0116100c8578063a22f84f0146106e2578063aec13758146106f5578063b44a27221461070857600080fd5b80639ce110d7146106c7578063a217fddf146106da57600080fd5b8063826bd4bf1161013a57806391d148541161011f57806391d14854146105b15780639a7b5f11146105ea5780639cbbbe86146106b357600080fd5b8063826bd4bf1461058b57806389f395de1461059e57600080fd5b806375b238fc1161016b57806375b238fc1461050f5780637ca25184146105365780637fc46ba81461056257600080fd5b806370480275146104e957806375829def146104fc57600080fd5b806337c1cfa51161023457806352351e85116101e8578063550d01a3116101cd578063550d01a3146104a65780635b549182146104c957806363a8fd89146104dc57600080fd5b806352351e851461047a578063526aef941461049257600080fd5b806343c57a271161021957806343c57a271461041257806345a411481461042557806350d2a2761461043957600080fd5b806337c1cfa5146103ec57806340c10f19146103ff57600080fd5b806324d7806c1161028b5780632f2ff15d116102705780632f2ff15d146103b957806335d20f8a146103cc57806336568abe146103d957600080fd5b806324d7806c146103935780632e99c6e6146103a657600080fd5b80631785f53c116102bc5780631785f53c14610326578063229852461461033b578063248a9ca31461037057600080fd5b806301ffc9a7146102d85780630f36edbf14610300575b600080fd5b6102eb6102e636600461399d565b6107a3565b60405190151581526020015b60405180910390f35b61031361030e3660046139d6565b6107da565b60405160029190910b81526020016102f7565b610339610334366004613a24565b61082e565b005b6103627ffb5864e8ff833c3cb2d2d08505e82ff02a43554c74a35d4f5a64e8526127831181565b6040519081526020016102f7565b61036261037e366004613a41565b60009081526004602052604090206001015490565b6102eb6103a1366004613a24565b6108c0565b6103396103b4366004613ab1565b610900565b6103396103c7366004613b5a565b610d2a565b600c546103139060020b81565b6103396103e7366004613b5a565b610d54565b6103396103fa366004613a24565b610de0565b61033961040d366004613b7f565b611408565b610362610420366004613bc0565b611b7f565b600b5461031390600160d81b900460020b81565b61046261044736600461399d565b6003602052600090815260409020546001600160a01b031681565b6040516001600160a01b0390911681526020016102f7565b6005546104629061010090046001600160a01b031681565b600b5461031390600160c01b900460020b81565b6102eb6104b4366004613a24565b60026020526000908152604090205460ff1681565b600a54610462906001600160a01b031681565b6000546102eb9060ff1681565b6103396104f7366004613a24565b611b96565b61033961050a366004613a24565b611c20565b6103627fdf8b4c520ffe197c5343c6f5aec59570151ef9a492f2c624fd45ddde6135ec4281565b600b5461054d90600160a01b900463ffffffff1681565b60405163ffffffff90911681526020016102f7565b610462610570366004613a24565b6007602052600090815260409020546001600160a01b031681565b610313610599366004613c1c565b611d82565b600954610462906001600160a01b031681565b6102eb6105bf366004613b5a565b60009182526004602090815260408084206001600160a01b0393909316845291905290205460ff1690565b6106596105f8366004613a24565b600d6020526000908152604090208054600182015460028301546003840154600485015460058601546006909601546001600160a01b0395861696949593949293919291811690600160a01b810462ffffff1690600160b81b900460ff1689565b604080516001600160a01b039a8b16815260208101999099528801969096526060870194909452608086019290925260a085015290931660c083015262ffffff90921660e0820152901515610100820152610120016102f7565b600c54610313906301000000900460020b81565b600654610462906001600160a01b031681565b610362600081565b6103136106f0366004613c1c565b611d9d565b6103136107033660046139d6565b611db8565b600b54610462906001600160a01b031681565b610462610729366004613a41565b6001602052600090815260409020546001600160a01b031681565b610339610752366004613c39565b611e0c565b600854610462906001600160a01b031681565b610339610778366004613b5a565b6120d3565b61033961078b366004613b7f565b6120f8565b61031361079e366004613c6a565b61229a565b60006001600160e01b03198216637965db0b60e01b14806107d457506301ffc9a760e01b6001600160e01b03198316145b92915050565b6000806107e683611d82565b600b5490915060009061080390600160d81b900460020b85613ca5565b61080d9086613ccc565b90508060020b8260020b12156108265791506107d49050565b509392505050565b610837336108c0565b6108935760405162461bcd60e51b815260206004820152602260248201527f41636365737369626c653a2043616c6c6572206973206e6f7420616e2061646d60448201526134b760f11b60648201526084015b60405180910390fd5b6108bd7fdf8b4c520ffe197c5343c6f5aec59570151ef9a492f2c624fd45ddde6135ec4282610d54565b50565b6001600160a01b03811660009081527f2fb794d17134dfdec181ddbac1babb5ab1eb140204ef4d982f294e7fc8b69022602052604081205460ff166107d4565b600554829061010090046001600160a01b031633148061095c57506001600160a01b038181166000908152600760205260409020541615158061095c57506001600160a01b038181166000908152600760205260409020541633145b6109ce5760405162461bcd60e51b815260206004820152602c60248201527f63616c6c6572206973206e6f742061207661756c7441646d696e206f7220507260448201527f6f6a6563744d616e616765720000000000000000000000000000000000000000606482015260840161088a565b600a546001600160a01b0316158015906109f25750600b546001600160a01b031615155b8015610a0857506009546001600160a01b031615155b610a545760405162461bcd60e51b815260206004820152601860248201527f5661756c743a206265666f726520736574556e69737761700000000000000000604482015260640161088a565b6001600160a01b0383166000908152600d602052604090206001015415610abd5760405162461bcd60e51b815260206004820152601360248201527f616c726561647920696e697469616c697a656400000000000000000000000000604482015260640161088a565b815115801590610ad05750602082015115155b8015610adf5750604082015115155b8015610aee5750606082015115155b8015610b01575060a082015161ffff1615155b610b995760405162461bcd60e51b815260206004820152605460248201527f7a65726f20746f74616c416c6c6f6361746564416d6f756e74206f7220746f7360448201527f5072696365206f7220746f6b656e5072696365206f7220696e6974537172745060648201527f72696365583936206f7220737461727454696d65000000000000000000000000608482015260a40161088a565b42826080015111610bec5760405162461bcd60e51b815260206004820152601460248201527f537461727454696d652068617320706173736564000000000000000000000000604482015260640161088a565b6005548251610c10916001600160a01b0386811692610100909204169030906122f4565b6001600160a01b038084166000908152600d602090815260409182902085516001820181905591860151600282018190558684015160038301819055606088015160068401805460808b01516005870181905560a08c0151600160a01b61ffff8216027fffffffffffffffffff00000000000000000000000000000000000000000000009093169a85169a909a1791909117909155955193967f9f654cf8aac1e1b8d2153612c219a661009c6885e0d87d5f38d390afc5f3af3896610d1c968c96909594939192906001600160a01b039788168152602081019690965260408601949094526060850192909252608084015290921660a082015261ffff9190911660c082015260e00190565b60405180910390a150505050565b600082815260046020526040902060010154610d458161242d565b610d4f8383612437565b505050565b6001600160a01b0381163314610dd25760405162461bcd60e51b815260206004820152602f60248201527f416363657373436f6e74726f6c3a2063616e206f6e6c792072656e6f756e636560448201527f20726f6c657320666f722073656c660000000000000000000000000000000000606482015260840161088a565b610ddc82826124d9565b5050565b6001600160a01b0381166000908152600d60205260409020600601548190600160b81b900460ff1615610e605760405162461bcd60e51b815260206004820152602260248201527f5661756c743a20616c726561647920726561647920746f20437265617465506f6044820152611bdb60f21b606482015260840161088a565b60055460ff16610e9b5760405162461bcd60e51b815260040161088a906020808252600490820152636c6f636b60e01b604082015260600190565b6005805460ff191681556001600160a01b0383166000908152600d602052604090209081015415801590610ed25750428160050154105b610f1e5760405162461bcd60e51b815260206004820152601960248201527f537461727454696d6520686173206e6f74207061737365642e00000000000000604482015260640161088a565b80546001600160a01b031615610f765760405162461bcd60e51b815260206004820152600f60248201527f616c726561647920637265617465640000000000000000000000000000000000604482015260640161088a565b60068101546001600160a01b0316610fd05760405162461bcd60e51b815260206004820152601560248201527f7a65726f20696e69745371727450726963655839360000000000000000000000604482015260640161088a565b600a546009546006830154604051630b4c774160e11b81526001600160a01b0392831660048201528683166024820152600160a01b90910462ffffff1660448201526000929190911690631698ee8290606401602060405180830381865afa158015611040573d6000803e3d6000fd5b505050506040513d601f19601f820116820180604052508101906110649190613cf1565b90506001600160a01b03811661116557600a54600954600684015460405163a167129560e01b81526001600160a01b0392831660048201528783166024820152600160a01b90910462ffffff166044820152600092919091169063a1671295906064016020604051808303816000875af11580156110e6573d6000803e3d6000fd5b505050506040513d601f19601f8201168201806040525081019061110a9190613cf1565b90506001600160a01b0381166111625760405162461bcd60e51b815260206004820152600f60248201527f637265617465506f6f6c206661696c0000000000000000000000000000000000604482015260640161088a565b90505b81546001600160a01b03821673ffffffffffffffffffffffffffffffffffffffff19909116811783556006830180547fffffffffffffffff00ffffffffffffffffffffffffffffffffffffffffffffff16600160b81b17905560408051633850c7bd60e01b8152905160009291633850c7bd9160048083019260e09291908290030181865afa1580156111fc573d6000803e3d6000fd5b505050506040513d601f19601f820116820180604052508101906112209190613d1e565b5050505050509050806001600160a01b03166000036112eb57600683015460405163f637731d60e01b81526001600160a01b0391821660048201529083169063f637731d90602401600060405180830381600087803b15801561128257600080fd5b505af1158015611296573d6000803e3d6000fd5b505050506006830154604080516001600160a01b038881168252858116602083015290921682820152517fca9098798fa03760d7709c3305b3b049d2c71fa6e891a83a36fe90a15eeab7809181900360600190a15b604080516001600160a01b038088168252841660208201527ffb9092f7bd4a3c6c55439411fb56fe4d44878125340b674c6ab5b5dda38d0b1c910160405180910390a16000826001600160a01b0316633850c7bd6040518163ffffffff1660e01b815260040160e060405180830381865afa15801561136e573d6000803e3d6000fd5b505050506040513d601f19601f820116820180604052508101906113929190613d1e565b5050505050509050806001600160a01b03166000036113f35760405162461bcd60e51b815260206004820152601260248201527f7a65726f205f7371727450726963655839360000000000000000000000000000604482015260640161088a565b50506005805460ff1916600117905550505050565b6001600160a01b0382166000908152600d60205260409020600601548290600160b81b900460ff1661147c5760405162461bcd60e51b815260206004820152601e60248201527f5661756c743a206e6f7420726561647920746f20437265617465506f6f6c0000604482015260640161088a565b81806000036114b25760405162461bcd60e51b81526020600482015260026024820152615a3160f01b604482015260640161088a565b60055460ff166114ed5760405162461bcd60e51b815260040161088a906020808252600490820152636c6f636b60e01b604082015260600190565b6005805460ff191690556009546040516370a0823160e01b81523060048201526000916001600160a01b0316906370a0823190602401602060405180830381865afa158015611540573d6000803e3d6000fd5b505050506040513d601f19601f820116820180604052508101906115649190613dbb565b6040516370a0823160e01b81523060048201529091506000906001600160a01b038716906370a0823190602401602060405180830381865afa1580156115ae573d6000803e3d6000fd5b505050506040513d601f19601f820116820180604052508101906115d29190613dbb565b9050670de0b6b3a7640000821180156115f25750670de0b6b3a764000081115b61163e5760405162461bcd60e51b815260206004820152601760248201527f62616c616e636520697320696e73756666696369656e74000000000000000000604482015260640161088a565b8185111561168e5760405162461bcd60e51b815260206004820152601960248201527f746f42616c616e636520697320696e73756666696369656e7400000000000000604482015260640161088a565b600b54600160d81b900460020b6000036116d157600b80547fffff000000ffffffffffffffffffffffffffffffffffffffffffffffffffffff16600160db1b1790555b600c5460020b6000036116ee57600c805462ffffff1916600a1790555b600b54600160a01b900463ffffffff1660000361174557600b80547fffffffffffffffff00000000ffffffffffffffffffffffffffffffffffffffff16747800000000000000000000000000000000000000001790555b6001600160a01b038681166000908152600d6020908152604080832081516101208101835281548616808252600183015494820194909452600282015481840152600382015460608201526004808301546080830152600583015460a083015260069092015495861660c0820152600160a01b860462ffffff1660e080830191909152600160b81b90960460ff1615156101008201528251633850c7bd60e01b815292519095859493633850c7bd9381810193918290030181865afa158015611812573d6000803e3d6000fd5b505050506040513d601f19601f820116820180604052508101906118369190613d1e565b5050505050915091506000826001600160a01b0316116118985760405162461bcd60e51b815260206004820152601760248201527f706f6f6c206973206e6f7420696e697469616c697a6564000000000000000000604482015260640161088a565b8251600b546000916118b691600160a01b900463ffffffff1661255c565b90508160020b6118cd8261030e8760e0015161229a565b60020b131580156118f357506118ea816107038660e0015161229a565b60020b8260020b125b61194b5760405162461bcd60e51b8152602060048201526024808201527f49742773206e6f7420616c6c6f776564206368616e676564207469636b2072616044820152633733b29760e11b606482015260840161088a565b50600080600085600001516001600160a01b0316630dfe16816040518163ffffffff1660e01b8152600401602060405180830381865afa158015611993573d6000803e3d6000fd5b505050506040513d601f19601f820116820180604052508101906119b79190613cf1565b6009549091506001600160a01b03808316911614611a4e576009546119e99085908d906001600160a01b03168f611b7f565b92508a915086831115611a3e5760405162461bcd60e51b815260206004820152601c60248201527f746f6b656e42616c616e636520697320696e73756666696369656e7400000000604482015260640161088a565b611a498c838561271b565b611ac8565b6009548b9350611a6b90859085906001600160a01b03168f611b7f565b915086821115611abd5760405162461bcd60e51b815260206004820152601c60248201527f746f6b656e42616c616e636520697320696e73756666696369656e7400000000604482015260640161088a565b611ac88c848461271b565b600c54600090606490611ade9060020b82613dd4565b611ae89086613de7565b611af29190613e14565b600c54909150600090606490611b0b9060020b82613dd4565b611b159086613de7565b611b1f9190613e14565b6001600160a01b038f166000908152600d602052604081206004015491925003611b5557611b508e86868585612bfd565b611b62565b611b628e86868585612fe1565b50506005805460ff19166001179055505050505050505050505050565b6000611b8d85858585613176565b95945050505050565b611b9f336108c0565b611bf65760405162461bcd60e51b815260206004820152602260248201527f41636365737369626c653a2043616c6c6572206973206e6f7420616e2061646d60448201526134b760f11b606482015260840161088a565b6108bd7fdf8b4c520ffe197c5343c6f5aec59570151ef9a492f2c624fd45ddde6135ec4282610d2a565b611c29336108c0565b611c805760405162461bcd60e51b815260206004820152602260248201527f41636365737369626c653a2043616c6c6572206973206e6f7420616e2061646d60448201526134b760f11b606482015260840161088a565b6001600160a01b038116611cd65760405162461bcd60e51b815260206004820152601860248201527f41636365737369626c653a207a65726f20616464726573730000000000000000604482015260640161088a565b6001600160a01b0381163303611d2e5760405162461bcd60e51b815260206004820152601660248201527f41636365737369626c653a2073616d652061646d696e00000000000000000000604482015260640161088a565b611d587fdf8b4c520ffe197c5343c6f5aec59570151ef9a492f2c624fd45ddde6135ec4282610d2a565b6108bd7fdf8b4c520ffe197c5343c6f5aec59570151ef9a492f2c624fd45ddde6135ec4233610d54565b600081611d9381620d89e719613e28565b6107d49190613ca5565b60008180611dae620d89e719613e62565b611d939190613e28565b600080611dc483611d9d565b600b54909150600090611de190600160d81b900460020b85613ca5565b611deb9086613e84565b90508060020b8260020b1215611e03575090506107d4565b91506107d49050565b611e15336108c0565b611e6c5760405162461bcd60e51b815260206004820152602260248201527f41636365737369626c653a2043616c6c6572206973206e6f7420616e2061646d60448201526134b760f11b606482015260840161088a565b6001600160a01b03841615801590611e925750600a546001600160a01b03858116911614155b611ede5760405162461bcd60e51b815260206004820152601d60248201527f7a65726f206f722073616d6520556e69737761705633466163746f7279000000604482015260640161088a565b6001600160a01b03831615801590611f045750600b546001600160a01b03848116911614155b611f505760405162461bcd60e51b815260206004820152601060248201527f7a65726f206f722073616d65206e706d00000000000000000000000000000000604482015260640161088a565b6001600160a01b03821615801590611f7657506008546001600160a01b03838116911614155b611fc25760405162461bcd60e51b815260206004820152601060248201527f7a65726f206f722073616d6520746f6e00000000000000000000000000000000604482015260640161088a565b6001600160a01b03811615801590611fe857506009546001600160a01b03828116911614155b6120345760405162461bcd60e51b815260206004820152601060248201527f7a65726f206f722073616d6520746f7300000000000000000000000000000000604482015260640161088a565b600a80546001600160a01b0386811673ffffffffffffffffffffffffffffffffffffffff199283168117909355600b805487831690841681179091556008805487841690851681179091556009805493871693909416831790935560408051948552602085019190915283019190915260608201527f5f5458e04fbfd7e3d6d9563a2da2ea2a5b3a29c1303221569d209c8c673ceacc90608001610d1c565b6000828152600460205260409020600101546120ee8161242d565b610d4f83836124d9565b6001600160a01b038083166000908152600760205260409020548391161580159061213c57506001600160a01b038181166000908152600760205260409020541633145b6121965760405162461bcd60e51b815260206004820152602560248201527f63616c6c6572206973206e6f742061207661756c7441646d696e204f66206c326044820152642a37b5b2b760d91b606482015260840161088a565b6001600160a01b0383166000908152600d60205260409020600581015442106122015760405162461bcd60e51b815260206004820152601460248201527f537461727454696d652068617320706173736564000000000000000000000000604482015260640161088a565b828160050154036122545760405162461bcd60e51b815260206004820152600e60248201527f73616d6520537461727454696d65000000000000000000000000000000000000604482015260640161088a565b60058101839055604080516001600160a01b0386168152602081018590527f8da5af0cb50a5743c77f99eeeb6f24c1836f9632035e083c916b2875f6165ce39101610d1c565b60008162ffffff166064036122b157506002919050565b8162ffffff166101f4036122c75750600a919050565b8162ffffff16610bb8036122dd5750603c919050565b8162ffffff16612710036122ef575060c85b919050565b604080516001600160a01b0385811660248301528481166044830152606480830185905283518084039091018152608490920183526020820180517bffffffffffffffffffffffffffffffffffffffffffffffffffffffff166323b872dd60e01b179052915160009283929088169161236d9190613ecd565b6000604051808303816000865af19150503d80600081146123aa576040519150601f19603f3d011682016040523d82523d6000602084013e6123af565b606091505b50915091508180156123d95750805115806123d95750808060200190518101906123d99190613ee9565b6124255760405162461bcd60e51b815260206004820152601460248201527f5452414e534645525f46524f4d5f4641494c4544000000000000000000000000604482015260640161088a565b505050505050565b6108bd8133613284565b60008281526004602090815260408083206001600160a01b038516845290915290205460ff16610ddc5760008281526004602090815260408083206001600160a01b03851684529091529020805460ff191660011790556124953390565b6001600160a01b0316816001600160a01b0316837f2f8788117e7eff1d82e926ec794901d17c78024a50270940304540a733656f0d60405160405180910390a45050565b60008281526004602090815260408083206001600160a01b038516845290915290205460ff1615610ddc5760008281526004602090815260408083206001600160a01b0385168085529252808320805460ff1916905551339285917ff6391f5c32d9c69d2a47ea670b442974b53935d1edc7fd64eb21e047a839171b9190a45050565b60008163ffffffff166000036125995760405162461bcd60e51b8152602060048201526002602482015261042560f41b604482015260640161088a565b60408051600280825260608201835260009260208301908036833701905050905082816000815181106125ce576125ce613f04565b602002602001019063ffffffff16908163ffffffff16815250506000816001815181106125fd576125fd613f04565b63ffffffff9092166020928302919091019091015260405163883bdbfd60e01b81526000906001600160a01b0386169063883bdbfd90612641908590600401613f1a565b600060405180830381865afa15801561265e573d6000803e3d6000fd5b505050506040513d6000823e601f3d908101601f191682016040526126869190810190613ffc565b50905060008160008151811061269e5761269e613f04565b6020026020010151826001815181106126b9576126b9613f04565b60200260200101516126cb91906140c8565b90506126db600386900b826140f5565b935060008160060b1280156126ff57506126f9600386900b8261412a565b60060b15155b15612712578361270e8161414c565b9450505b50505092915050565b6009546040516370a0823160e01b815230600482015283916001600160a01b0316906370a0823190602401602060405180830381865afa158015612763573d6000803e3d6000fd5b505050506040513d601f19601f820116820180604052508101906127879190613dbb565b10156127d55760405162461bcd60e51b815260206004820152601460248201527f746f7320697320696e73756666696369656e742e000000000000000000000000604482015260640161088a565b6040516370a0823160e01b815230600482015281906001600160a01b038516906370a0823190602401602060405180830381865afa15801561281b573d6000803e3d6000fd5b505050506040513d601f19601f8201168201806040525081019061283f9190613dbb565b101561288d5760405162461bcd60e51b815260206004820152601660248201527f746f6b656e20697320696e73756666696369656e742e00000000000000000000604482015260640161088a565b600954600b54604051636eb1769f60e11b81523060048201526001600160a01b03918216602482015291169063dd62ed3e90604401602060405180830381865afa1580156128df573d6000803e3d6000fd5b505050506040513d601f19601f820116820180604052508101906129039190613dbb565b821115612a4057600954600b54604080516318160ddd60e01b815290516001600160a01b039384169363095ea7b393169184916318160ddd916004808201926020929091908290030181865afa158015612961573d6000803e3d6000fd5b505050506040513d601f19601f820116820180604052508101906129859190613dbb565b6040516001600160e01b031960e085901b1681526001600160a01b03909216600483015260248201526044016020604051808303816000875af11580156129d0573d6000803e3d6000fd5b505050506040513d601f19601f820116820180604052508101906129f49190613ee9565b612a405760405162461bcd60e51b815260206004820152601060248201527f544f5320617070726f7665206661696c00000000000000000000000000000000604482015260640161088a565b600b54604051636eb1769f60e11b81523060048201526001600160a01b0391821660248201529084169063dd62ed3e90604401602060405180830381865afa158015612a90573d6000803e3d6000fd5b505050506040513d601f19601f82011682018060405250810190612ab49190613dbb565b811115610d4f57826001600160a01b031663095ea7b3600b60009054906101000a90046001600160a01b0316856001600160a01b03166318160ddd6040518163ffffffff1660e01b8152600401602060405180830381865afa158015612b1e573d6000803e3d6000fd5b505050506040513d601f19601f82011682018060405250810190612b429190613dbb565b6040516001600160e01b031960e085901b1681526001600160a01b03909216600483015260248201526044016020604051808303816000875af1158015612b8d573d6000803e3d6000fd5b505050506040513d601f19601f82011682018060405250810190612bb19190613ee9565b610d4f5760405162461bcd60e51b815260206004820152601260248201527f746f6b656e20617070726f7665206661696c0000000000000000000000000000604482015260640161088a565b6001600160a01b0385166000908152600d60205260409020600481015415612c675760405162461bcd60e51b815260206004820152600e60248201527f616c7265616479206d696e746564000000000000000000000000000000000000604482015260640161088a565b6006810154600090612c8490600160a01b900462ffffff1661229a565b6006830154612c9e90600160a01b900462ffffff1661229a565b612cac90620d89e719613e28565b612cb69190613ca5565b90506000612cd68360060160149054906101000a900462ffffff1661229a565b6006840154612cf090600160a01b900462ffffff1661229a565b612cfd620d89e719613e62565b612d079190613e28565b612d119190613ca5565b600b546040805161016081018083528754630dfe168160e01b90915291519394506000938493849384936001600160a01b0392831693638831645693919283921690630dfe168190610164808501916020918187030181865afa158015612d7c573d6000803e3d6000fd5b505050506040513d601f19601f82011682018060405250810190612da09190613cf1565b6001600160a01b031681526020018a60000160009054906101000a90046001600160a01b03166001600160a01b031663d21220a76040518163ffffffff1660e01b8152600401602060405180830381865afa158015612e03573d6000803e3d6000fd5b505050506040513d601f19601f82011682018060405250810190612e279190613cf1565b6001600160a01b031681526020018a60060160149054906101000a900462ffffff1662ffffff1681526020018960020b81526020018860020b81526020018e81526020018d81526020018c81526020018b8152602001306001600160a01b03168152602001428152506040518263ffffffff1660e01b8152600401612eac919061416f565b6080604051808303816000875af1158015612ecb573d6000803e3d6000fd5b505050506040513d601f19601f82011682018060405250810190612eef9190614233565b935093509350935060008411612f475760405162461bcd60e51b815260206004820152600c60248201527f7a65726f20746f6b656e49640000000000000000000000000000000000000000604482015260640161088a565b6004870184905586546040517e80a7e05c1e726da26ef60dc270a12c37b0bc54fc6adbc18d22f991976cf33291612fcb918f916001600160a01b03169088908890889088906001600160a01b03968716815294909516602085015260408401929092526001600160801b03166060830152608082015260a081019190915260c00190565b60405180910390a1505050505050505050505050565b6001600160a01b0385166000908152600d60205260409020600481015461304a5760405162461bcd60e51b815260206004820152601460248201527f4974206973206e6f74206d696e74656420796574000000000000000000000000604482015260640161088a565b600b546040805160c08101825260048481015482526020820189815282840189815260608401898152608085018981524260a08701908152965163219f5d1760e01b815295519486019490945291516024850152516044840152516064830152516084820152905160a4820152600091829182916001600160a01b03169063219f5d179060c4016060604051808303816000875af11580156130f0573d6000803e3d6000fd5b505050506040513d601f19601f820116820180604052508101906131149190614271565b6004870154604080516001600160801b0386168152602081018590529081018390529396509194509250907e242840c59a1b38c7f01b50c3ba18ebd1a8f5b28cfc8b9fb894c4ea46696ba49060600160405180910390a2505050505050505050565b600080613182866132f9565b90506001600160801b036001600160a01b038216116132085760006131b06001600160a01b03831680613de7565b9050836001600160a01b0316856001600160a01b0316106131e8576131e3600160c01b876001600160801b031683613719565b613200565b61320081876001600160801b0316600160c01b613719565b92505061327b565b60006132276001600160a01b0383168068010000000000000000613719565b9050836001600160a01b0316856001600160a01b03161061325f5761325a600160801b876001600160801b031683613719565b613277565b61327781876001600160801b0316600160801b613719565b9250505b50949350505050565b60008281526004602090815260408083206001600160a01b038516845290915290205460ff16610ddc576132b7816137e2565b6132c28360206137f4565b6040516020016132d39291906142a8565b60408051601f198184030181529082905262461bcd60e51b825261088a91600401614329565b60008060008360020b12613310578260020b61331d565b8260020b61331d9061435c565b905061332c620d89e719613e62565b60020b8111156133625760405162461bcd60e51b81526020600482015260016024820152601560fa1b604482015260640161088a565b60008160011660000361337957600160801b61338b565b6ffffcb933bd6fad37aa2d162d1a5940015b70ffffffffffffffffffffffffffffffffff16905060028216156133ca5760806133c5826ffff97272373d413259a46990580e213a613de7565b901c90505b60048216156133f45760806133ef826ffff2e50f5f656932ef12357cf3c7fdcc613de7565b901c90505b600882161561341e576080613419826fffe5caca7e10e4e61c3624eaa0941cd0613de7565b901c90505b6010821615613448576080613443826fffcb9843d60f6159c9db58835c926644613de7565b901c90505b602082161561347257608061346d826fff973b41fa98c081472e6896dfb254c0613de7565b901c90505b604082161561349c576080613497826fff2ea16466c96a3843ec78b326b52861613de7565b901c90505b60808216156134c65760806134c1826ffe5dee046a99a2a811c461f1969c3053613de7565b901c90505b6101008216156134f15760806134ec826ffcbe86c7900a88aedcffc83b479aa3a4613de7565b901c90505b61020082161561351c576080613517826ff987a7253ac413176f2b074cf7815e54613de7565b901c90505b610400821615613547576080613542826ff3392b0822b70005940c7a398e4b70f3613de7565b901c90505b61080082161561357257608061356d826fe7159475a2c29b7443b29c7fa6e889d9613de7565b901c90505b61100082161561359d576080613598826fd097f3bdfd2022b8845ad8f792aa5825613de7565b901c90505b6120008216156135c85760806135c3826fa9f746462d870fdf8a65dc1f90e061e5613de7565b901c90505b6140008216156135f35760806135ee826f70d869a156d2a1b890bb3df62baf32f7613de7565b901c90505b61800082161561361e576080613619826f31be135f97d08fd981231505542fcfa6613de7565b901c90505b6201000082161561364a576080613645826f09aa508b5b7a84e1c677de54f3e99bc9613de7565b901c90505b62020000821615613675576080613670826e5d6af8dedb81196699c329225ee604613de7565b901c90505b6204000082161561369f57608061369a826d2216e584f5fa1ea926041bedfe98613de7565b901c90505b620800008216156136c75760806136c2826b048a170391f7dc42444e8fa2613de7565b901c90505b60008460020b13156136e2576136df81600019613e14565b90505b6136f164010000000082614378565b156136fd576001613700565b60005b6137119060ff16602083901c61438c565b949350505050565b600080821161372757600080fd5b60008060001985870985870292508281108382030391505080600003613752575082900490506137db565b80841161375e57600080fd5b60008486880980840393811190920391905060008561377f81600019613dd4565b61378a90600161438c565b16958690049560026003880281188089028203028089028203028089028203028089028203028089028203028089029091030260008290038290046001019490940294049390931791909102925050505b9392505050565b60606107d46001600160a01b03831660145b60606000613803836002613de7565b61380e90600261438c565b67ffffffffffffffff81111561382657613826613a5a565b6040519080825280601f01601f191660200182016040528015613850576020820181803683370190505b509050600360fc1b8160008151811061386b5761386b613f04565b60200101906001600160f81b031916908160001a905350600f60fb1b8160018151811061389a5761389a613f04565b60200101906001600160f81b031916908160001a90535060006138be846002613de7565b6138c990600161438c565b90505b600181111561394e577f303132333435363738396162636465660000000000000000000000000000000085600f166010811061390a5761390a613f04565b1a60f81b82828151811061392057613920613f04565b60200101906001600160f81b031916908160001a90535060049490941c936139478161439f565b90506138cc565b5083156137db5760405162461bcd60e51b815260206004820181905260248201527f537472696e67733a20686578206c656e67746820696e73756666696369656e74604482015260640161088a565b6000602082840312156139af57600080fd5b81356001600160e01b0319811681146137db57600080fd5b8060020b81146108bd57600080fd5b600080604083850312156139e957600080fd5b82356139f4816139c7565b91506020830135613a04816139c7565b809150509250929050565b6001600160a01b03811681146108bd57600080fd5b600060208284031215613a3657600080fd5b81356137db81613a0f565b600060208284031215613a5357600080fd5b5035919050565b634e487b7160e01b600052604160045260246000fd5b604051601f8201601f1916810167ffffffffffffffff81118282101715613a9957613a99613a5a565b604052919050565b61ffff811681146108bd57600080fd5b60008082840360e0811215613ac557600080fd5b8335613ad081613a0f565b925060c0601f1982011215613ae457600080fd5b5060405160c0810181811067ffffffffffffffff82111715613b0857613b08613a5a565b80604052506020840135815260408401356020820152606084013560408201526080840135606082015260a0840135608082015260c0840135613b4a81613aa1565b60a0820152919491935090915050565b60008060408385031215613b6d57600080fd5b823591506020830135613a0481613a0f565b60008060408385031215613b9257600080fd5b8235613b9d81613a0f565b946020939093013593505050565b6001600160801b03811681146108bd57600080fd5b60008060008060808587031215613bd657600080fd5b8435613be1816139c7565b93506020850135613bf181613bab565b92506040850135613c0181613a0f565b91506060850135613c1181613a0f565b939692955090935050565b600060208284031215613c2e57600080fd5b81356137db816139c7565b60008060008060808587031215613c4f57600080fd5b8435613c5a81613a0f565b93506020850135613bf181613a0f565b600060208284031215613c7c57600080fd5b813562ffffff811681146137db57600080fd5b634e487b7160e01b600052601160045260246000fd5b60008260020b8260020b028060020b9150808214613cc557613cc5613c8f565b5092915050565b600282810b9082900b03627fffff198112627fffff821317156107d4576107d4613c8f565b600060208284031215613d0357600080fd5b81516137db81613a0f565b805180151581146122ef57600080fd5b600080600080600080600060e0888a031215613d3957600080fd5b8751613d4481613a0f565b6020890151909750613d55816139c7565b6040890151909650613d6681613aa1565b6060890151909550613d7781613aa1565b6080890151909450613d8881613aa1565b60a089015190935060ff81168114613d9f57600080fd5b9150613dad60c08901613d0e565b905092959891949750929550565b600060208284031215613dcd57600080fd5b5051919050565b818103818111156107d4576107d4613c8f565b80820281158282048414176107d4576107d4613c8f565b634e487b7160e01b600052601260045260246000fd5b600082613e2357613e23613dfe565b500490565b60008160020b8360020b80613e3f57613e3f613dfe565b627fffff19821460001982141615613e5957613e59613c8f565b90059392505050565b60008160020b627fffff198103613e7b57613e7b613c8f565b60000392915050565b600281810b9083900b01627fffff8113627fffff19821217156107d4576107d4613c8f565b60005b83811015613ec4578181015183820152602001613eac565b50506000910152565b60008251613edf818460208701613ea9565b9190910192915050565b600060208284031215613efb57600080fd5b6137db82613d0e565b634e487b7160e01b600052603260045260246000fd5b6020808252825182820181905260009190848201906040850190845b81811015613f5857835163ffffffff1683529284019291840191600101613f36565b50909695505050505050565b600067ffffffffffffffff821115613f7e57613f7e613a5a565b5060051b60200190565b600082601f830112613f9957600080fd5b81516020613fae613fa983613f64565b613a70565b82815260059290921b84018101918181019086841115613fcd57600080fd5b8286015b84811015613ff1578051613fe481613a0f565b8352918301918301613fd1565b509695505050505050565b6000806040838503121561400f57600080fd5b825167ffffffffffffffff8082111561402757600080fd5b818501915085601f83011261403b57600080fd5b8151602061404b613fa983613f64565b82815260059290921b8401810191818101908984111561406a57600080fd5b948201945b838610156140985785518060060b81146140895760008081fd5b8252948201949082019061406f565b918801519196509093505050808211156140b157600080fd5b506140be85828601613f88565b9150509250929050565b600682810b9082900b03667fffffffffffff198112667fffffffffffff821317156107d4576107d4613c8f565b60008160060b8360060b8061410c5761410c613dfe565b667fffffffffffff19821460001982141615613e5957613e59613c8f565b60008260060b8061413d5761413d613dfe565b808360060b0791505092915050565b60008160020b627fffff19810361416557614165613c8f565b6000190192915050565b81516001600160a01b031681526101608101602083015161419b60208401826001600160a01b03169052565b5060408301516141b2604084018262ffffff169052565b5060608301516141c7606084018260020b9052565b5060808301516141dc608084018260020b9052565b5060a083015160a083015260c083015160c083015260e083015160e083015261010080840151818401525061012080840151614222828501826001600160a01b03169052565b505061014092830151919092015290565b6000806000806080858703121561424957600080fd5b84519350602085015161425b81613bab565b6040860151606090960151949790965092505050565b60008060006060848603121561428657600080fd5b835161429181613bab565b602085015160409095015190969495509392505050565b7f416363657373436f6e74726f6c3a206163636f756e74200000000000000000008152600083516142e0816017850160208801613ea9565b7f206973206d697373696e6720726f6c6520000000000000000000000000000000601791840191820152835161431d816028840160208801613ea9565b01602801949350505050565b6020815260008251806020840152614348816040850160208701613ea9565b601f01601f19169190910160400192915050565b6000600160ff1b820161437157614371613c8f565b5060000390565b60008261438757614387613dfe565b500690565b808201808211156107d4576107d4613c8f565b6000816143ae576143ae613c8f565b50600019019056fea164736f6c6343000812000a",
  "linkReferences": {},
  "deployedLinkReferences": {}
}