{
  "_format": "hh-sol-artifact-1",
  "contractName": "Create2Deployer",
  "sourceName": "contracts/L2/factory/Create2Deployer.sol",
  "abi": [
    {
      "anonymous": false,
      "inputs": [
        {
          "indexed": false,
          "internalType": "address",
          "name": "addr",
          "type": "address"
        },
        {
          "indexed": false,
          "internalType": "uint256",
          "name": "salt",
          "type": "uint256"
        }
      ],
      "name": "Deployed",
      "type": "event"
    },
    {
      "inputs": [
        {
          "internalType": "bytes",
          "name": "code",
          "type": "bytes"
        },
        {
          "internalType": "uint256",
          "name": "salt",
          "type": "uint256"
        }
      ],
      "name": "deploy",
      "outputs": [],
      "stateMutability": "nonpayable",
      "type": "function"
    }
  ],
  "bytecode": "0x608060405234801561001057600080fd5b5061018a806100206000396000f3fe608060405234801561001057600080fd5b506004361061002b5760003560e01c80639c4ae2d014610030575b600080fd5b61004361003e3660046100c8565b610045565b005b6000818351602085016000f59050803b61005e57600080fd5b6040805173ffffffffffffffffffffffffffffffffffffffff83168152602081018490527fb03c53b28e78a88e31607a27e1fa48234dce28d5d9d9ec7b295aeb02e674a1e1910160405180910390a1505050565b634e487b7160e01b600052604160045260246000fd5b600080604083850312156100db57600080fd5b823567ffffffffffffffff808211156100f357600080fd5b818501915085601f83011261010757600080fd5b813581811115610119576101196100b2565b604051601f8201601f19908116603f01168101908382118183101715610141576101416100b2565b8160405282815288602084870101111561015a57600080fd5b82602086016020830137600060209382018401529896909101359650505050505056fea164736f6c6343000812000a",
  "linkReferences": {},
  "deployedLinkReferences": {}
}