{
  "_format": "hh-sol-artifact-1",
  "contractName": "L2TokenFactory",
  "sourceName": "contracts/L2/factory/L2TokenFactory.sol",
  "abi": [
    {
      "inputs": [],
      "stateMutability": "nonpayable",
      "type": "constructor"
    },
    {
      "anonymous": false,
      "inputs": [
        {
          "indexed": true,
          "internalType": "bytes32",
          "name": "role",
          "type": "bytes32"
        },
        {
          "indexed": true,
          "internalType": "bytes32",
          "name": "previousAdminRole",
          "type": "bytes32"
        },
        {
          "indexed": true,
          "internalType": "bytes32",
          "name": "newAdminRole",
          "type": "bytes32"
        }
      ],
      "name": "RoleAdminChanged",
      "type": "event"
    },
    {
      "anonymous": false,
      "inputs": [
        {
          "indexed": true,
          "internalType": "bytes32",
          "name": "role",
          "type": "bytes32"
        },
        {
          "indexed": true,
          "internalType": "address",
          "name": "account",
          "type": "address"
        },
        {
          "indexed": true,
          "internalType": "address",
          "name": "sender",
          "type": "address"
        }
      ],
      "name": "RoleGranted",
      "type": "event"
    },
    {
      "anonymous": false,
      "inputs": [
        {
          "indexed": true,
          "internalType": "bytes32",
          "name": "role",
          "type": "bytes32"
        },
        {
          "indexed": true,
          "internalType": "address",
          "name": "account",
          "type": "address"
        },
        {
          "indexed": true,
          "internalType": "address",
          "name": "sender",
          "type": "address"
        }
      ],
      "name": "RoleRevoked",
      "type": "event"
    },
    {
      "anonymous": false,
      "inputs": [
        {
          "indexed": true,
          "internalType": "address",
          "name": "l1Token",
          "type": "address"
        },
        {
          "indexed": true,
          "internalType": "address",
          "name": "l2Token",
          "type": "address"
        }
      ],
      "name": "StandardL2TokenCreated",
      "type": "event"
    },
    {
      "inputs": [],
      "name": "ADMIN_ROLE",
      "outputs": [
        {
          "internalType": "bytes32",
          "name": "",
          "type": "bytes32"
        }
      ],
      "stateMutability": "view",
      "type": "function"
    },
    {
      "inputs": [],
      "name": "DEFAULT_ADMIN_ROLE",
      "outputs": [
        {
          "internalType": "bytes32",
          "name": "",
          "type": "bytes32"
        }
      ],
      "stateMutability": "view",
      "type": "function"
    },
    {
      "inputs": [],
      "name": "POLICY_ROLE",
      "outputs": [
        {
          "internalType": "bytes32",
          "name": "",
          "type": "bytes32"
        }
      ],
      "stateMutability": "view",
      "type": "function"
    },
    {
      "inputs": [
        {
          "internalType": "address",
          "name": "account",
          "type": "address"
        }
      ],
      "name": "addAdmin",
      "outputs": [],
      "stateMutability": "nonpayable",
      "type": "function"
    },
    {
      "inputs": [
        {
          "internalType": "address",
          "name": "projectOwner",
          "type": "address"
        },
        {
          "internalType": "address",
          "name": "_l1Token",
          "type": "address"
        },
        {
          "internalType": "string",
          "name": "_name",
          "type": "string"
        },
        {
          "internalType": "string",
          "name": "_symbol",
          "type": "string"
        },
        {
          "internalType": "string",
          "name": "projectName",
          "type": "string"
        }
      ],
      "name": "createL2Token",
      "outputs": [],
      "stateMutability": "nonpayable",
      "type": "function"
    },
    {
      "inputs": [
        {
          "internalType": "bytes32",
          "name": "role",
          "type": "bytes32"
        }
      ],
      "name": "getRoleAdmin",
      "outputs": [
        {
          "internalType": "bytes32",
          "name": "",
          "type": "bytes32"
        }
      ],
      "stateMutability": "view",
      "type": "function"
    },
    {
      "inputs": [
        {
          "internalType": "bytes32",
          "name": "role",
          "type": "bytes32"
        },
        {
          "internalType": "address",
          "name": "account",
          "type": "address"
        }
      ],
      "name": "grantRole",
      "outputs": [],
      "stateMutability": "nonpayable",
      "type": "function"
    },
    {
      "inputs": [
        {
          "internalType": "bytes32",
          "name": "role",
          "type": "bytes32"
        },
        {
          "internalType": "address",
          "name": "account",
          "type": "address"
        }
      ],
      "name": "hasRole",
      "outputs": [
        {
          "internalType": "bool",
          "name": "",
          "type": "bool"
        }
      ],
      "stateMutability": "view",
      "type": "function"
    },
    {
      "inputs": [
        {
          "internalType": "address",
          "name": "account",
          "type": "address"
        }
      ],
      "name": "isAdmin",
      "outputs": [
        {
          "internalType": "bool",
          "name": "",
          "type": "bool"
        }
      ],
      "stateMutability": "view",
      "type": "function"
    },
    {
      "inputs": [],
      "name": "l1Bridge",
      "outputs": [
        {
          "internalType": "address",
          "name": "",
          "type": "address"
        }
      ],
      "stateMutability": "view",
      "type": "function"
    },
    {
      "inputs": [],
      "name": "l2Bridge",
      "outputs": [
        {
          "internalType": "address",
          "name": "",
          "type": "address"
        }
      ],
      "stateMutability": "view",
      "type": "function"
    },
    {
      "inputs": [],
      "name": "l2ProjectManager",
      "outputs": [
        {
          "internalType": "address",
          "name": "",
          "type": "address"
        }
      ],
      "stateMutability": "view",
      "type": "function"
    },
    {
      "inputs": [
        {
          "internalType": "address",
          "name": "account",
          "type": "address"
        }
      ],
      "name": "removeAdmin",
      "outputs": [],
      "stateMutability": "nonpayable",
      "type": "function"
    },
    {
      "inputs": [
        {
          "internalType": "bytes32",
          "name": "role",
          "type": "bytes32"
        },
        {
          "internalType": "address",
          "name": "account",
          "type": "address"
        }
      ],
      "name": "renounceRole",
      "outputs": [],
      "stateMutability": "nonpayable",
      "type": "function"
    },
    {
      "inputs": [
        {
          "internalType": "bytes32",
          "name": "role",
          "type": "bytes32"
        },
        {
          "internalType": "address",
          "name": "account",
          "type": "address"
        }
      ],
      "name": "revokeRole",
      "outputs": [],
      "stateMutability": "nonpayable",
      "type": "function"
    },
    {
      "inputs": [
        {
          "internalType": "address",
          "name": "_l1Bridge",
          "type": "address"
        }
      ],
      "name": "setL1Bridge",
      "outputs": [],
      "stateMutability": "nonpayable",
      "type": "function"
    },
    {
      "inputs": [
        {
          "internalType": "address",
          "name": "_l2Bridge",
          "type": "address"
        }
      ],
      "name": "setL2Bridge",
      "outputs": [],
      "stateMutability": "nonpayable",
      "type": "function"
    },
    {
      "inputs": [
        {
          "internalType": "address",
          "name": "_l2ProjectManager",
          "type": "address"
        }
      ],
      "name": "setL2ProjectManager",
      "outputs": [],
      "stateMutability": "nonpayable",
      "type": "function"
    },
    {
      "inputs": [
        {
          "internalType": "bytes4",
          "name": "interfaceId",
          "type": "bytes4"
        }
      ],
      "name": "supportsInterface",
      "outputs": [
        {
          "internalType": "bool",
          "name": "",
          "type": "bool"
        }
      ],
      "stateMutability": "view",
      "type": "function"
    },
    {
      "inputs": [
        {
          "internalType": "address",
          "name": "newAdmin",
          "type": "address"
        }
      ],
      "name": "transferAdmin",
      "outputs": [],
      "stateMutability": "nonpayable",
      "type": "function"
    }
  ],
  "bytecode": "0x60806040523480156200001157600080fd5b506200002d60008051602062002831833981519152806200004e565b62000048600080516020620028318339815191523362000099565b62000149565b600082815260208190526040808220600101805490849055905190918391839186917fbd79b86ffe0ab8e8776151514217cd7cacd52c909f66475c3af44e129f0b00ff9190a4505050565b620000a58282620000a9565b5050565b6000828152602081815260408083206001600160a01b038516845290915290205460ff16620000a5576000828152602081815260408083206001600160a01b03851684529091529020805460ff19166001179055620001053390565b6001600160a01b0316816001600160a01b0316837f2f8788117e7eff1d82e926ec794901d17c78024a50270940304540a733656f0d60405160405180910390a45050565b6126d880620001596000396000f3fe60806040523480156200001157600080fd5b5060043610620001895760003560e01c80637048027511620000dd578063a217fddf116200008b578063ae1f6aaf116200006e578063ae1f6aaf1462000394578063c6317f8c14620003a8578063d547741f14620003bf57600080fd5b8063a217fddf1462000374578063a4182343146200037d57600080fd5b806375b238fc11620000c057806375b238fc14620002fe57806391d148541462000326578063969b53da146200036057600080fd5b80637048027514620002d057806375829def14620002e757600080fd5b806324d7806c116200013b57806336568abe116200011e57806336568abe14620002755780633d36d971146200028c57806352351e8514620002a357600080fd5b806324d7806c14620002475780632f2ff15d146200025e57600080fd5b80631a05037611620001705780631a05037614620001d35780632298524614620001ea578063248a9ca3146200022157600080fd5b806301ffc9a7146200018e5780631785f53c14620001ba575b600080fd5b620001a56200019f366004620011a5565b620003d6565b60405190151581526020015b60405180910390f35b620001d1620001cb366004620011ee565b6200040e565b005b620001d1620001e4366004620011ee565b620004a5565b620002127ffb5864e8ff833c3cb2d2d08505e82ff02a43554c74a35d4f5a64e8526127831181565b604051908152602001620001b1565b62000212620002323660046200120c565b60009081526020819052604090206001015490565b620001a562000258366004620011ee565b620005b2565b620001d16200026f36600462001226565b620005f3565b620001d16200028636600462001226565b62000621565b620001d16200029d366004620011ee565b620006b1565b600154620002b7906001600160a01b031681565b6040516001600160a01b039091168152602001620001b1565b620001d1620002e1366004620011ee565b620007be565b620001d1620002f8366004620011ee565b6200084e565b620002127fdf8b4c520ffe197c5343c6f5aec59570151ef9a492f2c624fd45ddde6135ec4281565b620001a56200033736600462001226565b6000918252602082815260408084206001600160a01b0393909316845291905290205460ff1690565b600354620002b7906001600160a01b031681565b62000212600081565b620001d16200038e366004620011ee565b620009bc565b600254620002b7906001600160a01b031681565b620001d1620003b9366004620012a1565b62000ac9565b620001d1620003d036600462001226565b62000de5565b60006001600160e01b03198216637965db0b60e01b14806200040857506301ffc9a760e01b6001600160e01b03198316145b92915050565b6200041933620005b2565b620004765760405162461bcd60e51b815260206004820152602260248201527f41636365737369626c653a2043616c6c6572206973206e6f7420616e2061646d60448201526134b760f11b60648201526084015b60405180910390fd5b620004a27fdf8b4c520ffe197c5343c6f5aec59570151ef9a492f2c624fd45ddde6135ec428262000621565b50565b806001600160a01b038116620004e35760405162461bcd60e51b81526020600482015260026024820152612d1960f11b60448201526064016200046d565b620004ee33620005b2565b620005475760405162461bcd60e51b815260206004820152602260248201527f41636365737369626c653a2043616c6c6572206973206e6f7420616e2061646d60448201526134b760f11b60648201526084016200046d565b6003546001600160a01b038084169116036200058f5760405162461bcd60e51b81526004016200046d9060208082526004908201526373616d6560e01b604082015260600190565b50600380546001600160a01b0319166001600160a01b0392909216919091179055565b6001600160a01b03811660009081527f5cbfc8ee58ca47855df7bcf648dd304ddb6b932f9b87878bdf6318d7ec7ee5b7602052604081205460ff1662000408565b600082815260208190526040902060010154620006108162000e0e565b6200061c838362000e1a565b505050565b6001600160a01b0381163314620006a15760405162461bcd60e51b815260206004820152602f60248201527f416363657373436f6e74726f6c3a2063616e206f6e6c792072656e6f756e636560448201527f20726f6c657320666f722073656c66000000000000000000000000000000000060648201526084016200046d565b620006ad828262000eba565b5050565b806001600160a01b038116620006ef5760405162461bcd60e51b81526020600482015260026024820152612d1960f11b60448201526064016200046d565b620006fa33620005b2565b620007535760405162461bcd60e51b815260206004820152602260248201527f41636365737369626c653a2043616c6c6572206973206e6f7420616e2061646d60448201526134b760f11b60648201526084016200046d565b6002546001600160a01b038084169116036200079b5760405162461bcd60e51b81526004016200046d9060208082526004908201526373616d6560e01b604082015260600190565b50600280546001600160a01b0319166001600160a01b0392909216919091179055565b620007c933620005b2565b620008225760405162461bcd60e51b815260206004820152602260248201527f41636365737369626c653a2043616c6c6572206973206e6f7420616e2061646d60448201526134b760f11b60648201526084016200046d565b620004a27fdf8b4c520ffe197c5343c6f5aec59570151ef9a492f2c624fd45ddde6135ec4282620005f3565b6200085933620005b2565b620008b25760405162461bcd60e51b815260206004820152602260248201527f41636365737369626c653a2043616c6c6572206973206e6f7420616e2061646d60448201526134b760f11b60648201526084016200046d565b6001600160a01b0381166200090a5760405162461bcd60e51b815260206004820152601860248201527f41636365737369626c653a207a65726f2061646472657373000000000000000060448201526064016200046d565b6001600160a01b0381163303620009645760405162461bcd60e51b815260206004820152601660248201527f41636365737369626c653a2073616d652061646d696e0000000000000000000060448201526064016200046d565b620009907fdf8b4c520ffe197c5343c6f5aec59570151ef9a492f2c624fd45ddde6135ec4282620005f3565b620004a27fdf8b4c520ffe197c5343c6f5aec59570151ef9a492f2c624fd45ddde6135ec423362000621565b806001600160a01b038116620009fa5760405162461bcd60e51b81526020600482015260026024820152612d1960f11b60448201526064016200046d565b62000a0533620005b2565b62000a5e5760405162461bcd60e51b815260206004820152602260248201527f41636365737369626c653a2043616c6c6572206973206e6f7420616e2061646d60448201526134b760f11b60648201526084016200046d565b6001546001600160a01b0380841691160362000aa65760405162461bcd60e51b81526004016200046d9060208082526004908201526373616d6560e01b604082015260600190565b50600180546001600160a01b0319166001600160a01b0392909216919091179055565b6001600160a01b03871662000b215760405162461bcd60e51b815260206004820152601d60248201527f4d7573742070726f76696465204c3120746f6b656e206164647265737300000060448201526064016200046d565b6001600160a01b03881662000b795760405162461bcd60e51b815260206004820152601160248201527f7a65726f2070726f6a6563744f776e657200000000000000000000000000000060448201526064016200046d565b600085900362000bcc5760405162461bcd60e51b815260206004820152600c60248201527f6e616d65206973206e756c6c000000000000000000000000000000000000000060448201526064016200046d565b600083900362000c1f5760405162461bcd60e51b815260206004820152600e60248201527f73796d626f6c206973206e756c6c00000000000000000000000000000000000060448201526064016200046d565b6000600260009054906101000a90046001600160a01b0316888888888860405162000c4a9062001197565b62000c5b9695949392919062001393565b604051809103906000f08015801562000c78573d6000803e3d6000fd5b5090506001600160a01b03811662000cd35760405162461bcd60e51b815260206004820152600c60248201527f7a65726f206c32546f6b656e000000000000000000000000000000000000000060448201526064016200046d565b600354604051630d0281bb60e11b81526001600160a01b03918216600482015290821690631a05037690602401600060405180830381600087803b15801562000d1b57600080fd5b505af115801562000d30573d6000803e3d6000fd5b505060015460405163084bae0b60e31b81526001600160a01b03909116925063425d7058915062000d6e908c908c90869089908990600401620013e4565b600060405180830381600087803b15801562000d8957600080fd5b505af115801562000d9e573d6000803e3d6000fd5b50506040516001600160a01b0380851693508b1691507fceeb8e7d520d7f3b65fc11a262b91066940193b05d4f93df07cfdced0eb551cf90600090a3505050505050505050565b60008281526020819052604090206001015462000e028162000e0e565b6200061c838362000eba565b620004a2813362000f3a565b6000828152602081815260408083206001600160a01b038516845290915290205460ff16620006ad576000828152602081815260408083206001600160a01b03851684529091529020805460ff1916600117905562000e763390565b6001600160a01b0316816001600160a01b0316837f2f8788117e7eff1d82e926ec794901d17c78024a50270940304540a733656f0d60405160405180910390a45050565b6000828152602081815260408083206001600160a01b038516845290915290205460ff1615620006ad576000828152602081815260408083206001600160a01b0385168085529252808320805460ff1916905551339285917ff6391f5c32d9c69d2a47ea670b442974b53935d1edc7fd64eb21e047a839171b9190a45050565b6000828152602081815260408083206001600160a01b038516845290915290205460ff16620006ad5762000f6e8162000fb6565b62000f7b83602062000fc9565b60405160200162000f8e9291906200144c565b60408051601f198184030181529082905262461bcd60e51b82526200046d91600401620014d1565b6060620004086001600160a01b03831660145b6060600062000fda8360026200151c565b62000fe790600262001536565b67ffffffffffffffff8111156200100257620010026200154c565b6040519080825280601f01601f1916602001820160405280156200102d576020820181803683370190505b509050600360fc1b816000815181106200104b576200104b62001562565b60200101906001600160f81b031916908160001a905350600f60fb1b816001815181106200107d576200107d62001562565b60200101906001600160f81b031916908160001a9053506000620010a38460026200151c565b620010b090600162001536565b90505b60018111156200113f577f303132333435363738396162636465660000000000000000000000000000000085600f1660108110620010f557620010f562001562565b1a60f81b8282815181106200110e576200110e62001562565b60200101906001600160f81b031916908160001a90535060049490941c93620011378162001578565b9050620010b3565b508315620011905760405162461bcd60e51b815260206004820181905260248201527f537472696e67733a20686578206c656e67746820696e73756666696369656e7460448201526064016200046d565b9392505050565b611139806200159383390190565b600060208284031215620011b857600080fd5b81356001600160e01b0319811681146200119057600080fd5b80356001600160a01b0381168114620011e957600080fd5b919050565b6000602082840312156200120157600080fd5b6200119082620011d1565b6000602082840312156200121f57600080fd5b5035919050565b600080604083850312156200123a57600080fd5b823591506200124c60208401620011d1565b90509250929050565b60008083601f8401126200126857600080fd5b50813567ffffffffffffffff8111156200128157600080fd5b6020830191508360208285010111156200129a57600080fd5b9250929050565b60008060008060008060008060a0898b031215620012be57600080fd5b620012c989620011d1565b9750620012d960208a01620011d1565b9650604089013567ffffffffffffffff80821115620012f757600080fd5b620013058c838d0162001255565b909850965060608b01359150808211156200131f57600080fd5b6200132d8c838d0162001255565b909650945060808b01359150808211156200134757600080fd5b50620013568b828c0162001255565b999c989b5096995094979396929594505050565b81835281816020850137506000828201602090810191909152601f909101601f19169091010190565b60006001600160a01b03808916835280881660208401525060806040830152620013c26080830186886200136a565b8281036060840152620013d78185876200136a565b9998505050505050505050565b60006001600160a01b0380881683528087166020840152808616604084015250608060608301526200141b6080830184866200136a565b979650505050505050565b60005b838110156200144357818101518382015260200162001429565b50506000910152565b7f416363657373436f6e74726f6c3a206163636f756e74200000000000000000008152600083516200148681601785016020880162001426565b7f206973206d697373696e6720726f6c65200000000000000000000000000000006017918401918201528351620014c581602884016020880162001426565b01602801949350505050565b6020815260008251806020840152620014f281604085016020870162001426565b601f01601f19169190910160400192915050565b634e487b7160e01b600052601160045260246000fd5b808202811582820484141762000408576200040862001506565b8082018082111562000408576200040862001506565b634e487b7160e01b600052604160045260246000fd5b634e487b7160e01b600052603260045260246000fd5b6000816200158a576200158a62001506565b50600019019056fe60806040523480156200001157600080fd5b506040516200113938038062001139833981016040819052620000349162000171565b8181600362000044838262000290565b50600462000053828262000290565b5050600580546001600160a01b039586166001600160a01b0319918216179091556006805496909516951694909417909255506200035c915050565b80516001600160a01b0381168114620000a757600080fd5b919050565b634e487b7160e01b600052604160045260246000fd5b600082601f830112620000d457600080fd5b81516001600160401b0380821115620000f157620000f1620000ac565b604051601f8301601f19908116603f011681019082821181831017156200011c576200011c620000ac565b816040528381526020925086838588010111156200013957600080fd5b600091505b838210156200015d57858201830151818301840152908201906200013e565b600093810190920192909252949350505050565b600080600080608085870312156200018857600080fd5b62000193856200008f565b9350620001a3602086016200008f565b60408601519093506001600160401b0380821115620001c157600080fd5b620001cf88838901620000c2565b93506060870151915080821115620001e657600080fd5b50620001f587828801620000c2565b91505092959194509250565b600181811c908216806200021657607f821691505b6020821081036200023757634e487b7160e01b600052602260045260246000fd5b50919050565b601f8211156200028b57600081815260208120601f850160051c81016020861015620002665750805b601f850160051c820191505b81811015620002875782815560010162000272565b5050505b505050565b81516001600160401b03811115620002ac57620002ac620000ac565b620002c481620002bd845462000201565b846200023d565b602080601f831160018114620002fc5760008415620002e35750858301515b600019600386901b1c1916600185901b17855562000287565b600085815260208120601f198616915b828110156200032d578886015182559484019460019091019084016200030c565b50858210156200034c5787850151600019600388901b60f8161c191681555b5050505050600190811b01905550565b610dcd806200036c6000396000f3fe608060405234801561001057600080fd5b50600436106101365760003560e01c806370a08231116100b2578063a457c2d711610081578063ae1f6aaf11610066578063ae1f6aaf1461028f578063c01e1bd6146102a2578063dd62ed3e146102b557600080fd5b8063a457c2d714610269578063a9059cbb1461027c57600080fd5b806370a08231146101fa57806395d89b4114610223578063969b53da1461022b5780639dc29fac1461025657600080fd5b80631a05037611610109578063313ce567116100ee578063313ce567146101c557806339509351146101d457806340c10f19146101e757600080fd5b80631a0503761461019d57806323b872dd146101b257600080fd5b806301ffc9a71461013b57806306fdde0314610163578063095ea7b31461017857806318160ddd1461018b575b600080fd5b61014e610149366004610c16565b6102ee565b60405190151581526020015b60405180910390f35b61016b61034c565b60405161015a9190610c47565b61014e610186366004610cb1565b6103de565b6002545b60405190815260200161015a565b6101b06101ab366004610cdb565b6103f8565b005b61014e6101c0366004610cf6565b610476565b6040516012815260200161015a565b61014e6101e2366004610cb1565b61049a565b6101b06101f5366004610cb1565b6104d9565b61018f610208366004610cdb565b6001600160a01b031660009081526020819052604090205490565b61016b610584565b60075461023e906001600160a01b031681565b6040516001600160a01b03909116815260200161015a565b6101b0610264366004610cb1565b610593565b61014e610277366004610cb1565b610632565b61014e61028a366004610cb1565b6106c4565b60065461023e906001600160a01b031681565b60055461023e906001600160a01b031681565b61018f6102c3366004610d32565b6001600160a01b03918216600090815260016020908152604080832093909416825291909152205490565b60007f01ffc9a7a5cef8baa21ed3c5c0d7e23accb804b619e9333b597f47a0d84076e2631d1d8b6360e01b6001600160e01b031984166301ffc9a760e01b148061034457506001600160e01b0319848116908216145b949350505050565b60606003805461035b90610d65565b80601f016020809104026020016040519081016040528092919081815260200182805461038790610d65565b80156103d45780601f106103a9576101008083540402835291602001916103d4565b820191906000526020600020905b8154815290600101906020018083116103b757829003601f168201915b5050505050905090565b6000336103ec8185856106d2565b60019150505b92915050565b6007546001600160a01b038083169116036104475760405162461bcd60e51b815260040161043e9060208082526004908201526373616d6560e01b604082015260600190565b60405180910390fd5b6007805473ffffffffffffffffffffffffffffffffffffffff19166001600160a01b0392909216919091179055565b6000336104848582856107f7565b61048f858585610889565b506001949350505050565b3360008181526001602090815260408083206001600160a01b03871684529091528120549091906103ec90829086906104d4908790610d9f565b6106d2565b6006546001600160a01b031633146105335760405162461bcd60e51b815260206004820181905260248201527f4f6e6c79204c32204272696467652063616e206d696e7420616e64206275726e604482015260640161043e565b61053d8282610a2d565b816001600160a01b03167f0f6798a560793a54c3bcfe86a93cde1e73087d944c0ea20544137d41213968858260405161057891815260200190565b60405180910390a25050565b60606004805461035b90610d65565b6006546001600160a01b031633146105ed5760405162461bcd60e51b815260206004820181905260248201527f4f6e6c79204c32204272696467652063616e206d696e7420616e64206275726e604482015260640161043e565b6105f78282610aec565b816001600160a01b03167fcc16f5dbb4873280815c1ee09dbd06736cffcc184412cf7a71a0fdb75d397ca58260405161057891815260200190565b3360008181526001602090815260408083206001600160a01b0387168452909152812054909190838110156106b75760405162461bcd60e51b815260206004820152602560248201527f45524332303a2064656372656173656420616c6c6f77616e63652062656c6f77604482015264207a65726f60d81b606482015260840161043e565b61048f82868684036106d2565b6000336103ec818585610889565b6001600160a01b0383166107345760405162461bcd60e51b8152602060048201526024808201527f45524332303a20617070726f76652066726f6d20746865207a65726f206164646044820152637265737360e01b606482015260840161043e565b6001600160a01b0382166107955760405162461bcd60e51b815260206004820152602260248201527f45524332303a20617070726f766520746f20746865207a65726f206164647265604482015261737360f01b606482015260840161043e565b6001600160a01b0383811660008181526001602090815260408083209487168084529482529182902085905590518481527f8c5be1e5ebec7d5bd14f71427d1e84f3dd0314c0f7b2291e5b200ac8c7c3b92591015b60405180910390a3505050565b6001600160a01b03838116600090815260016020908152604080832093861683529290522054600019811461088357818110156108765760405162461bcd60e51b815260206004820152601d60248201527f45524332303a20696e73756666696369656e7420616c6c6f77616e6365000000604482015260640161043e565b61088384848484036106d2565b50505050565b6001600160a01b0383166108ed5760405162461bcd60e51b815260206004820152602560248201527f45524332303a207472616e736665722066726f6d20746865207a65726f206164604482015264647265737360d81b606482015260840161043e565b6001600160a01b03821661094f5760405162461bcd60e51b815260206004820152602360248201527f45524332303a207472616e7366657220746f20746865207a65726f206164647260448201526265737360e81b606482015260840161043e565b6001600160a01b038316600090815260208190526040902054818110156109c75760405162461bcd60e51b815260206004820152602660248201527f45524332303a207472616e7366657220616d6f756e7420657863656564732062604482015265616c616e636560d01b606482015260840161043e565b6001600160a01b03848116600081815260208181526040808320878703905593871680835291849020805487019055925185815290927fddf252ad1be2c89b69c2b068fc378daa952ba7f163c4a11628f55a4df523b3ef910160405180910390a3610883565b6001600160a01b038216610a835760405162461bcd60e51b815260206004820152601f60248201527f45524332303a206d696e7420746f20746865207a65726f206164647265737300604482015260640161043e565b8060026000828254610a959190610d9f565b90915550506001600160a01b038216600081815260208181526040808320805486019055518481527fddf252ad1be2c89b69c2b068fc378daa952ba7f163c4a11628f55a4df523b3ef910160405180910390a35050565b6001600160a01b038216610b4c5760405162461bcd60e51b815260206004820152602160248201527f45524332303a206275726e2066726f6d20746865207a65726f206164647265736044820152607360f81b606482015260840161043e565b6001600160a01b03821660009081526020819052604090205481811015610bc05760405162461bcd60e51b815260206004820152602260248201527f45524332303a206275726e20616d6f756e7420657863656564732062616c616e604482015261636560f01b606482015260840161043e565b6001600160a01b0383166000818152602081815260408083208686039055600280548790039055518581529192917fddf252ad1be2c89b69c2b068fc378daa952ba7f163c4a11628f55a4df523b3ef91016107ea565b600060208284031215610c2857600080fd5b81356001600160e01b031981168114610c4057600080fd5b9392505050565b600060208083528351808285015260005b81811015610c7457858101830151858201604001528201610c58565b506000604082860101526040601f19601f8301168501019250505092915050565b80356001600160a01b0381168114610cac57600080fd5b919050565b60008060408385031215610cc457600080fd5b610ccd83610c95565b946020939093013593505050565b600060208284031215610ced57600080fd5b610c4082610c95565b600080600060608486031215610d0b57600080fd5b610d1484610c95565b9250610d2260208501610c95565b9150604084013590509250925092565b60008060408385031215610d4557600080fd5b610d4e83610c95565b9150610d5c60208401610c95565b90509250929050565b600181811c90821680610d7957607f821691505b602082108103610d9957634e487b7160e01b600052602260045260246000fd5b50919050565b808201808211156103f257634e487b7160e01b600052601160045260246000fdfea164736f6c6343000812000aa164736f6c6343000812000adf8b4c520ffe197c5343c6f5aec59570151ef9a492f2c624fd45ddde6135ec42",
  "linkReferences": {},
  "deployedLinkReferences": {}
}