{
  "_format": "hh-sol-artifact-1",
  "contractName": "L2TokenFactory",
  "sourceName": "contracts/L2/factory/L2TokenFactory.sol",
  "abi": [
    {
      "inputs": [],
      "stateMutability": "nonpayable",
      "type": "constructor"
    },
    {
      "anonymous": false,
      "inputs": [
        {
          "indexed": true,
          "internalType": "bytes32",
          "name": "role",
          "type": "bytes32"
        },
        {
          "indexed": true,
          "internalType": "bytes32",
          "name": "previousAdminRole",
          "type": "bytes32"
        },
        {
          "indexed": true,
          "internalType": "bytes32",
          "name": "newAdminRole",
          "type": "bytes32"
        }
      ],
      "name": "RoleAdminChanged",
      "type": "event"
    },
    {
      "anonymous": false,
      "inputs": [
        {
          "indexed": true,
          "internalType": "bytes32",
          "name": "role",
          "type": "bytes32"
        },
        {
          "indexed": true,
          "internalType": "address",
          "name": "account",
          "type": "address"
        },
        {
          "indexed": true,
          "internalType": "address",
          "name": "sender",
          "type": "address"
        }
      ],
      "name": "RoleGranted",
      "type": "event"
    },
    {
      "anonymous": false,
      "inputs": [
        {
          "indexed": true,
          "internalType": "bytes32",
          "name": "role",
          "type": "bytes32"
        },
        {
          "indexed": true,
          "internalType": "address",
          "name": "account",
          "type": "address"
        },
        {
          "indexed": true,
          "internalType": "address",
          "name": "sender",
          "type": "address"
        }
      ],
      "name": "RoleRevoked",
      "type": "event"
    },
    {
      "anonymous": false,
      "inputs": [
        {
          "indexed": true,
          "internalType": "address",
          "name": "l1Token",
          "type": "address"
        },
        {
          "indexed": true,
          "internalType": "address",
          "name": "l2Token",
          "type": "address"
        }
      ],
      "name": "StandardL2TokenCreated",
      "type": "event"
    },
    {
      "inputs": [],
      "name": "ADMIN_ROLE",
      "outputs": [
        {
          "internalType": "bytes32",
          "name": "",
          "type": "bytes32"
        }
      ],
      "stateMutability": "view",
      "type": "function"
    },
    {
      "inputs": [],
      "name": "DEFAULT_ADMIN_ROLE",
      "outputs": [
        {
          "internalType": "bytes32",
          "name": "",
          "type": "bytes32"
        }
      ],
      "stateMutability": "view",
      "type": "function"
    },
    {
      "inputs": [],
      "name": "POLICY_ROLE",
      "outputs": [
        {
          "internalType": "bytes32",
          "name": "",
          "type": "bytes32"
        }
      ],
      "stateMutability": "view",
      "type": "function"
    },
    {
      "inputs": [
        {
          "internalType": "address",
          "name": "account",
          "type": "address"
        }
      ],
      "name": "addAdmin",
      "outputs": [],
      "stateMutability": "nonpayable",
      "type": "function"
    },
    {
      "inputs": [
        {
          "internalType": "address",
          "name": "projectOwner",
          "type": "address"
        },
        {
          "internalType": "address",
          "name": "_l1Token",
          "type": "address"
        },
        {
          "internalType": "string",
          "name": "_name",
          "type": "string"
        },
        {
          "internalType": "string",
          "name": "_symbol",
          "type": "string"
        },
        {
          "internalType": "string",
          "name": "projectName",
          "type": "string"
        }
      ],
      "name": "createL2Token",
      "outputs": [],
      "stateMutability": "nonpayable",
      "type": "function"
    },
    {
      "inputs": [
        {
          "internalType": "bytes32",
          "name": "role",
          "type": "bytes32"
        }
      ],
      "name": "getRoleAdmin",
      "outputs": [
        {
          "internalType": "bytes32",
          "name": "",
          "type": "bytes32"
        }
      ],
      "stateMutability": "view",
      "type": "function"
    },
    {
      "inputs": [
        {
          "internalType": "bytes32",
          "name": "role",
          "type": "bytes32"
        },
        {
          "internalType": "address",
          "name": "account",
          "type": "address"
        }
      ],
      "name": "grantRole",
      "outputs": [],
      "stateMutability": "nonpayable",
      "type": "function"
    },
    {
      "inputs": [
        {
          "internalType": "bytes32",
          "name": "role",
          "type": "bytes32"
        },
        {
          "internalType": "address",
          "name": "account",
          "type": "address"
        }
      ],
      "name": "hasRole",
      "outputs": [
        {
          "internalType": "bool",
          "name": "",
          "type": "bool"
        }
      ],
      "stateMutability": "view",
      "type": "function"
    },
    {
      "inputs": [
        {
          "internalType": "address",
          "name": "account",
          "type": "address"
        }
      ],
      "name": "isAdmin",
      "outputs": [
        {
          "internalType": "bool",
          "name": "",
          "type": "bool"
        }
      ],
      "stateMutability": "view",
      "type": "function"
    },
    {
      "inputs": [],
      "name": "l1Bridge",
      "outputs": [
        {
          "internalType": "address",
          "name": "",
          "type": "address"
        }
      ],
      "stateMutability": "view",
      "type": "function"
    },
    {
      "inputs": [],
      "name": "l2ProjectManager",
      "outputs": [
        {
          "internalType": "address",
          "name": "",
          "type": "address"
        }
      ],
      "stateMutability": "view",
      "type": "function"
    },
    {
      "inputs": [
        {
          "internalType": "address",
          "name": "account",
          "type": "address"
        }
      ],
      "name": "removeAdmin",
      "outputs": [],
      "stateMutability": "nonpayable",
      "type": "function"
    },
    {
      "inputs": [
        {
          "internalType": "bytes32",
          "name": "role",
          "type": "bytes32"
        },
        {
          "internalType": "address",
          "name": "account",
          "type": "address"
        }
      ],
      "name": "renounceRole",
      "outputs": [],
      "stateMutability": "nonpayable",
      "type": "function"
    },
    {
      "inputs": [
        {
          "internalType": "bytes32",
          "name": "role",
          "type": "bytes32"
        },
        {
          "internalType": "address",
          "name": "account",
          "type": "address"
        }
      ],
      "name": "revokeRole",
      "outputs": [],
      "stateMutability": "nonpayable",
      "type": "function"
    },
    {
      "inputs": [
        {
          "internalType": "address",
          "name": "_l1Bridge",
          "type": "address"
        }
      ],
      "name": "setL1Bridge",
      "outputs": [],
      "stateMutability": "nonpayable",
      "type": "function"
    },
    {
      "inputs": [
        {
          "internalType": "address",
          "name": "_l2ProjectManager",
          "type": "address"
        }
      ],
      "name": "setL2ProjectManager",
      "outputs": [],
      "stateMutability": "nonpayable",
      "type": "function"
    },
    {
      "inputs": [
        {
          "internalType": "bytes4",
          "name": "interfaceId",
          "type": "bytes4"
        }
      ],
      "name": "supportsInterface",
      "outputs": [
        {
          "internalType": "bool",
          "name": "",
          "type": "bool"
        }
      ],
      "stateMutability": "view",
      "type": "function"
    },
    {
      "inputs": [
        {
          "internalType": "address",
          "name": "newAdmin",
          "type": "address"
        }
      ],
      "name": "transferAdmin",
      "outputs": [],
      "stateMutability": "nonpayable",
      "type": "function"
    }
  ],
  "bytecode": "0x60806040523480156200001157600080fd5b506200002d600080516020620025a2833981519152806200004e565b62000048600080516020620025a28339815191523362000099565b62000149565b600082815260208190526040808220600101805490849055905190918391839186917fbd79b86ffe0ab8e8776151514217cd7cacd52c909f66475c3af44e129f0b00ff9190a4505050565b620000a58282620000a9565b5050565b6000828152602081815260408083206001600160a01b038516845290915290205460ff16620000a5576000828152602081815260408083206001600160a01b03851684529091529020805460ff19166001179055620001053390565b6001600160a01b0316816001600160a01b0316837f2f8788117e7eff1d82e926ec794901d17c78024a50270940304540a733656f0d60405160405180910390a45050565b61244980620001596000396000f3fe60806040523480156200001157600080fd5b50600436106200014f5760003560e01c80637048027511620000c0578063969b53da116200008b578063a4182343116200006e578063a4182343146200032c578063c6317f8c1462000343578063d547741f146200035a57600080fd5b8063969b53da146200030f578063a217fddf146200032357600080fd5b806370480275146200027f57806375829def146200029657806375b238fc14620002ad57806391d1485414620002d557600080fd5b8063248a9ca3116200011e5780632f2ff15d11620001015780632f2ff15d146200022457806336568abe146200023b57806352351e85146200025257600080fd5b8063248a9ca314620001e757806324d7806c146200020d57600080fd5b806301ffc9a714620001545780631785f53c14620001805780631a05037614620001995780632298524614620001b0575b600080fd5b6200016b6200016536600462000feb565b62000371565b60405190151581526020015b60405180910390f35b620001976200019136600462001034565b620003a9565b005b62000197620001aa36600462001034565b62000440565b620001d87ffb5864e8ff833c3cb2d2d08505e82ff02a43554c74a35d4f5a64e8526127831181565b60405190815260200162000177565b620001d8620001f836600462001052565b60009081526020819052604090206001015490565b6200016b6200021e36600462001034565b6200055a565b62000197620002353660046200106c565b6200059b565b620001976200024c3660046200106c565b620005c9565b60015462000266906001600160a01b031681565b6040516001600160a01b03909116815260200162000177565b620001976200029036600462001034565b62000659565b62000197620002a736600462001034565b620006e9565b620001d87fdf8b4c520ffe197c5343c6f5aec59570151ef9a492f2c624fd45ddde6135ec4281565b6200016b620002e63660046200106c565b6000918252602082815260408084206001600160a01b0393909316845291905290205460ff1690565b60025462000266906001600160a01b031681565b620001d8600081565b620001976200033d36600462001034565b62000857565b6200019762000354366004620010e7565b62000971565b620001976200036b3660046200106c565b62000c2b565b60006001600160e01b03198216637965db0b60e01b1480620003a357506301ffc9a760e01b6001600160e01b03198316145b92915050565b620003b4336200055a565b620004115760405162461bcd60e51b815260206004820152602260248201527f41636365737369626c653a2043616c6c6572206973206e6f7420616e2061646d60448201526134b760f11b60648201526084015b60405180910390fd5b6200043d7fdf8b4c520ffe197c5343c6f5aec59570151ef9a492f2c624fd45ddde6135ec4282620005c9565b50565b806001600160a01b0381166200047e5760405162461bcd60e51b81526020600482015260026024820152612d1960f11b604482015260640162000408565b62000489336200055a565b620004e25760405162461bcd60e51b815260206004820152602260248201527f41636365737369626c653a2043616c6c6572206973206e6f7420616e2061646d60448201526134b760f11b606482015260840162000408565b6002546001600160a01b038084169116036200052a5760405162461bcd60e51b8152600401620004089060208082526004908201526373616d6560e01b604082015260600190565b506002805473ffffffffffffffffffffffffffffffffffffffff19166001600160a01b0392909216919091179055565b6001600160a01b03811660009081527f5cbfc8ee58ca47855df7bcf648dd304ddb6b932f9b87878bdf6318d7ec7ee5b7602052604081205460ff16620003a3565b600082815260208190526040902060010154620005b88162000c54565b620005c4838362000c60565b505050565b6001600160a01b0381163314620006495760405162461bcd60e51b815260206004820152602f60248201527f416363657373436f6e74726f6c3a2063616e206f6e6c792072656e6f756e636560448201527f20726f6c657320666f722073656c660000000000000000000000000000000000606482015260840162000408565b62000655828262000d00565b5050565b62000664336200055a565b620006bd5760405162461bcd60e51b815260206004820152602260248201527f41636365737369626c653a2043616c6c6572206973206e6f7420616e2061646d60448201526134b760f11b606482015260840162000408565b6200043d7fdf8b4c520ffe197c5343c6f5aec59570151ef9a492f2c624fd45ddde6135ec42826200059b565b620006f4336200055a565b6200074d5760405162461bcd60e51b815260206004820152602260248201527f41636365737369626c653a2043616c6c6572206973206e6f7420616e2061646d60448201526134b760f11b606482015260840162000408565b6001600160a01b038116620007a55760405162461bcd60e51b815260206004820152601860248201527f41636365737369626c653a207a65726f20616464726573730000000000000000604482015260640162000408565b6001600160a01b0381163303620007ff5760405162461bcd60e51b815260206004820152601660248201527f41636365737369626c653a2073616d652061646d696e00000000000000000000604482015260640162000408565b6200082b7fdf8b4c520ffe197c5343c6f5aec59570151ef9a492f2c624fd45ddde6135ec42826200059b565b6200043d7fdf8b4c520ffe197c5343c6f5aec59570151ef9a492f2c624fd45ddde6135ec4233620005c9565b806001600160a01b038116620008955760405162461bcd60e51b81526020600482015260026024820152612d1960f11b604482015260640162000408565b620008a0336200055a565b620008f95760405162461bcd60e51b815260206004820152602260248201527f41636365737369626c653a2043616c6c6572206973206e6f7420616e2061646d60448201526134b760f11b606482015260840162000408565b6001546001600160a01b03808416911603620009415760405162461bcd60e51b8152600401620004089060208082526004908201526373616d6560e01b604082015260600190565b506001805473ffffffffffffffffffffffffffffffffffffffff19166001600160a01b0392909216919091179055565b6001600160a01b038716620009c95760405162461bcd60e51b815260206004820152601d60248201527f4d7573742070726f76696465204c3120746f6b656e2061646472657373000000604482015260640162000408565b6001600160a01b03881662000a215760405162461bcd60e51b815260206004820152601160248201527f7a65726f2070726f6a6563744f776e6572000000000000000000000000000000604482015260640162000408565b600085900362000a745760405162461bcd60e51b815260206004820152600c60248201527f6e616d65206973206e756c6c0000000000000000000000000000000000000000604482015260640162000408565b600083900362000ac75760405162461bcd60e51b815260206004820152600e60248201527f73796d626f6c206973206e756c6c000000000000000000000000000000000000604482015260640162000408565b6000734200000000000000000000000000000000000010888888888860405162000af19062000fdd565b62000b0296959493929190620011d9565b604051809103906000f08015801562000b1f573d6000803e3d6000fd5b5090506001600160a01b03811662000b7a5760405162461bcd60e51b815260206004820152600c60248201527f7a65726f206c32546f6b656e0000000000000000000000000000000000000000604482015260640162000408565b60015460405163084bae0b60e31b81526001600160a01b039091169063425d70589062000bb4908c908c908690899089906004016200122a565b600060405180830381600087803b15801562000bcf57600080fd5b505af115801562000be4573d6000803e3d6000fd5b50506040516001600160a01b0380851693508b1691507fceeb8e7d520d7f3b65fc11a262b91066940193b05d4f93df07cfdced0eb551cf90600090a3505050505050505050565b60008281526020819052604090206001015462000c488162000c54565b620005c4838362000d00565b6200043d813362000d80565b6000828152602081815260408083206001600160a01b038516845290915290205460ff1662000655576000828152602081815260408083206001600160a01b03851684529091529020805460ff1916600117905562000cbc3390565b6001600160a01b0316816001600160a01b0316837f2f8788117e7eff1d82e926ec794901d17c78024a50270940304540a733656f0d60405160405180910390a45050565b6000828152602081815260408083206001600160a01b038516845290915290205460ff161562000655576000828152602081815260408083206001600160a01b0385168085529252808320805460ff1916905551339285917ff6391f5c32d9c69d2a47ea670b442974b53935d1edc7fd64eb21e047a839171b9190a45050565b6000828152602081815260408083206001600160a01b038516845290915290205460ff16620006555762000db48162000dfc565b62000dc183602062000e0f565b60405160200162000dd492919062001292565b60408051601f198184030181529082905262461bcd60e51b8252620004089160040162001317565b6060620003a36001600160a01b03831660145b6060600062000e2083600262001362565b62000e2d9060026200137c565b67ffffffffffffffff81111562000e485762000e4862001392565b6040519080825280601f01601f19166020018201604052801562000e73576020820181803683370190505b509050600360fc1b8160008151811062000e915762000e91620013a8565b60200101906001600160f81b031916908160001a905350600f60fb1b8160018151811062000ec35762000ec3620013a8565b60200101906001600160f81b031916908160001a905350600062000ee984600262001362565b62000ef69060016200137c565b90505b600181111562000f85577f303132333435363738396162636465660000000000000000000000000000000085600f166010811062000f3b5762000f3b620013a8565b1a60f81b82828151811062000f545762000f54620013a8565b60200101906001600160f81b031916908160001a90535060049490941c9362000f7d81620013be565b905062000ef9565b50831562000fd65760405162461bcd60e51b815260206004820181905260248201527f537472696e67733a20686578206c656e67746820696e73756666696369656e74604482015260640162000408565b9392505050565b61106480620013d983390190565b60006020828403121562000ffe57600080fd5b81356001600160e01b03198116811462000fd657600080fd5b80356001600160a01b03811681146200102f57600080fd5b919050565b6000602082840312156200104757600080fd5b62000fd68262001017565b6000602082840312156200106557600080fd5b5035919050565b600080604083850312156200108057600080fd5b82359150620010926020840162001017565b90509250929050565b60008083601f840112620010ae57600080fd5b50813567ffffffffffffffff811115620010c757600080fd5b602083019150836020828501011115620010e057600080fd5b9250929050565b60008060008060008060008060a0898b0312156200110457600080fd5b6200110f8962001017565b97506200111f60208a0162001017565b9650604089013567ffffffffffffffff808211156200113d57600080fd5b6200114b8c838d016200109b565b909850965060608b01359150808211156200116557600080fd5b620011738c838d016200109b565b909650945060808b01359150808211156200118d57600080fd5b506200119c8b828c016200109b565b999c989b5096995094979396929594505050565b81835281816020850137506000828201602090810191909152601f909101601f19169091010190565b60006001600160a01b0380891683528088166020840152506080604083015262001208608083018688620011b0565b82810360608401526200121d818587620011b0565b9998505050505050505050565b60006001600160a01b03808816835280871660208401528086166040840152506080606083015262001261608083018486620011b0565b979650505050505050565b60005b83811015620012895781810151838201526020016200126f565b50506000910152565b7f416363657373436f6e74726f6c3a206163636f756e7420000000000000000000815260008351620012cc8160178501602088016200126c565b7f206973206d697373696e6720726f6c652000000000000000000000000000000060179184019182015283516200130b8160288401602088016200126c565b01602801949350505050565b6020815260008251806020840152620013388160408501602087016200126c565b601f01601f19169190910160400192915050565b634e487b7160e01b600052601160045260246000fd5b8082028115828204841417620003a357620003a36200134c565b80820180821115620003a357620003a36200134c565b634e487b7160e01b600052604160045260246000fd5b634e487b7160e01b600052603260045260246000fd5b600081620013d057620013d06200134c565b50600019019056fe60806040523480156200001157600080fd5b506040516200106438038062001064833981016040819052620000349162000171565b8181600362000044838262000290565b50600462000053828262000290565b5050600580546001600160a01b039586166001600160a01b0319918216179091556006805496909516951694909417909255506200035c915050565b80516001600160a01b0381168114620000a757600080fd5b919050565b634e487b7160e01b600052604160045260246000fd5b600082601f830112620000d457600080fd5b81516001600160401b0380821115620000f157620000f1620000ac565b604051601f8301601f19908116603f011681019082821181831017156200011c576200011c620000ac565b816040528381526020925086838588010111156200013957600080fd5b600091505b838210156200015d57858201830151818301840152908201906200013e565b600093810190920192909252949350505050565b600080600080608085870312156200018857600080fd5b62000193856200008f565b9350620001a3602086016200008f565b60408601519093506001600160401b0380821115620001c157600080fd5b620001cf88838901620000c2565b93506060870151915080821115620001e657600080fd5b50620001f587828801620000c2565b91505092959194509250565b600181811c908216806200021657607f821691505b6020821081036200023757634e487b7160e01b600052602260045260246000fd5b50919050565b601f8211156200028b57600081815260208120601f850160051c81016020861015620002665750805b601f850160051c820191505b81811015620002875782815560010162000272565b5050505b505050565b81516001600160401b03811115620002ac57620002ac620000ac565b620002c481620002bd845462000201565b846200023d565b602080601f831160018114620002fc5760008415620002e35750858301515b600019600386901b1c1916600185901b17855562000287565b600085815260208120601f198616915b828110156200032d578886015182559484019460019091019084016200030c565b50858210156200034c5787850151600019600388901b60f8161c191681555b5050505050600190811b01905550565b610cf8806200036c6000396000f3fe608060405234801561001057600080fd5b50600436106101005760003560e01c806370a0823111610097578063a9059cbb11610066578063a9059cbb14610208578063ae1f6aaf1461021b578063c01e1bd614610246578063dd62ed3e1461025957600080fd5b806370a08231146101b157806395d89b41146101da5780639dc29fac146101e2578063a457c2d7146101f557600080fd5b806323b872dd116100d357806323b872dd14610167578063313ce5671461017a578063395093511461018957806340c10f191461019c57600080fd5b806301ffc9a71461010557806306fdde031461012d578063095ea7b31461014257806318160ddd14610155575b600080fd5b610118610113366004610b41565b610292565b60405190151581526020015b60405180910390f35b6101356102f0565b6040516101249190610b72565b610118610150366004610bdc565b610382565b6002545b604051908152602001610124565b610118610175366004610c06565b61039c565b60405160128152602001610124565b610118610197366004610bdc565b6103c0565b6101af6101aa366004610bdc565b6103ff565b005b6101596101bf366004610c42565b6001600160a01b031660009081526020819052604090205490565b6101356104af565b6101af6101f0366004610bdc565b6104be565b610118610203366004610bdc565b61055d565b610118610216366004610bdc565b6105ef565b60065461022e906001600160a01b031681565b6040516001600160a01b039091168152602001610124565b60055461022e906001600160a01b031681565b610159610267366004610c5d565b6001600160a01b03918216600090815260016020908152604080832093909416825291909152205490565b60007f01ffc9a7a5cef8baa21ed3c5c0d7e23accb804b619e9333b597f47a0d84076e2631d1d8b6360e01b6001600160e01b031984166301ffc9a760e01b14806102e857506001600160e01b0319848116908216145b949350505050565b6060600380546102ff90610c90565b80601f016020809104026020016040519081016040528092919081815260200182805461032b90610c90565b80156103785780601f1061034d57610100808354040283529160200191610378565b820191906000526020600020905b81548152906001019060200180831161035b57829003601f168201915b5050505050905090565b6000336103908185856105fd565b60019150505b92915050565b6000336103aa858285610722565b6103b58585856107b4565b506001949350505050565b3360008181526001602090815260408083206001600160a01b038716845290915281205490919061039090829086906103fa908790610cca565b6105fd565b6006546001600160a01b0316331461045e5760405162461bcd60e51b815260206004820181905260248201527f4f6e6c79204c32204272696467652063616e206d696e7420616e64206275726e60448201526064015b60405180910390fd5b6104688282610958565b816001600160a01b03167f0f6798a560793a54c3bcfe86a93cde1e73087d944c0ea20544137d4121396885826040516104a391815260200190565b60405180910390a25050565b6060600480546102ff90610c90565b6006546001600160a01b031633146105185760405162461bcd60e51b815260206004820181905260248201527f4f6e6c79204c32204272696467652063616e206d696e7420616e64206275726e6044820152606401610455565b6105228282610a17565b816001600160a01b03167fcc16f5dbb4873280815c1ee09dbd06736cffcc184412cf7a71a0fdb75d397ca5826040516104a391815260200190565b3360008181526001602090815260408083206001600160a01b0387168452909152812054909190838110156105e25760405162461bcd60e51b815260206004820152602560248201527f45524332303a2064656372656173656420616c6c6f77616e63652062656c6f77604482015264207a65726f60d81b6064820152608401610455565b6103b582868684036105fd565b6000336103908185856107b4565b6001600160a01b03831661065f5760405162461bcd60e51b8152602060048201526024808201527f45524332303a20617070726f76652066726f6d20746865207a65726f206164646044820152637265737360e01b6064820152608401610455565b6001600160a01b0382166106c05760405162461bcd60e51b815260206004820152602260248201527f45524332303a20617070726f766520746f20746865207a65726f206164647265604482015261737360f01b6064820152608401610455565b6001600160a01b0383811660008181526001602090815260408083209487168084529482529182902085905590518481527f8c5be1e5ebec7d5bd14f71427d1e84f3dd0314c0f7b2291e5b200ac8c7c3b92591015b60405180910390a3505050565b6001600160a01b0383811660009081526001602090815260408083209386168352929052205460001981146107ae57818110156107a15760405162461bcd60e51b815260206004820152601d60248201527f45524332303a20696e73756666696369656e7420616c6c6f77616e63650000006044820152606401610455565b6107ae84848484036105fd565b50505050565b6001600160a01b0383166108185760405162461bcd60e51b815260206004820152602560248201527f45524332303a207472616e736665722066726f6d20746865207a65726f206164604482015264647265737360d81b6064820152608401610455565b6001600160a01b03821661087a5760405162461bcd60e51b815260206004820152602360248201527f45524332303a207472616e7366657220746f20746865207a65726f206164647260448201526265737360e81b6064820152608401610455565b6001600160a01b038316600090815260208190526040902054818110156108f25760405162461bcd60e51b815260206004820152602660248201527f45524332303a207472616e7366657220616d6f756e7420657863656564732062604482015265616c616e636560d01b6064820152608401610455565b6001600160a01b03848116600081815260208181526040808320878703905593871680835291849020805487019055925185815290927fddf252ad1be2c89b69c2b068fc378daa952ba7f163c4a11628f55a4df523b3ef910160405180910390a36107ae565b6001600160a01b0382166109ae5760405162461bcd60e51b815260206004820152601f60248201527f45524332303a206d696e7420746f20746865207a65726f2061646472657373006044820152606401610455565b80600260008282546109c09190610cca565b90915550506001600160a01b038216600081815260208181526040808320805486019055518481527fddf252ad1be2c89b69c2b068fc378daa952ba7f163c4a11628f55a4df523b3ef910160405180910390a35050565b6001600160a01b038216610a775760405162461bcd60e51b815260206004820152602160248201527f45524332303a206275726e2066726f6d20746865207a65726f206164647265736044820152607360f81b6064820152608401610455565b6001600160a01b03821660009081526020819052604090205481811015610aeb5760405162461bcd60e51b815260206004820152602260248201527f45524332303a206275726e20616d6f756e7420657863656564732062616c616e604482015261636560f01b6064820152608401610455565b6001600160a01b0383166000818152602081815260408083208686039055600280548790039055518581529192917fddf252ad1be2c89b69c2b068fc378daa952ba7f163c4a11628f55a4df523b3ef9101610715565b600060208284031215610b5357600080fd5b81356001600160e01b031981168114610b6b57600080fd5b9392505050565b600060208083528351808285015260005b81811015610b9f57858101830151858201604001528201610b83565b506000604082860101526040601f19601f8301168501019250505092915050565b80356001600160a01b0381168114610bd757600080fd5b919050565b60008060408385031215610bef57600080fd5b610bf883610bc0565b946020939093013593505050565b600080600060608486031215610c1b57600080fd5b610c2484610bc0565b9250610c3260208501610bc0565b9150604084013590509250925092565b600060208284031215610c5457600080fd5b610b6b82610bc0565b60008060408385031215610c7057600080fd5b610c7983610bc0565b9150610c8760208401610bc0565b90509250929050565b600181811c90821680610ca457607f821691505b602082108103610cc457634e487b7160e01b600052602260045260246000fd5b50919050565b8082018082111561039657634e487b7160e01b600052601160045260246000fdfea164736f6c6343000812000aa164736f6c6343000812000adf8b4c520ffe197c5343c6f5aec59570151ef9a492f2c624fd45ddde6135ec42",
  "linkReferences": {},
  "deployedLinkReferences": {}
}