{
  "_format": "hh-sol-artifact-1",
  "contractName": "L2LpRewardVaultStorage",
  "sourceName": "contracts/L2/vaults/L2LpRewardVaultStorage.sol",
  "abi": [
    {
      "inputs": [
        {
          "internalType": "address",
          "name": "",
          "type": "address"
        }
      ],
      "name": "poolInfo",
      "outputs": [
        {
          "internalType": "address",
          "name": "token0",
          "type": "address"
        },
        {
          "internalType": "address",
          "name": "token1",
          "type": "address"
        },
        {
          "internalType": "uint24",
          "name": "fee",
          "type": "uint24"
        }
      ],
      "stateMutability": "view",
      "type": "function"
    },
    {
      "inputs": [],
      "name": "recipient",
      "outputs": [
        {
          "internalType": "address",
          "name": "",
          "type": "address"
        }
      ],
      "stateMutability": "view",
      "type": "function"
    },
    {
      "inputs": [],
      "name": "uniswapV3Factory",
      "outputs": [
        {
          "internalType": "address",
          "name": "",
          "type": "address"
        }
      ],
      "stateMutability": "view",
      "type": "function"
    },
    {
      "inputs": [
        {
          "internalType": "address",
          "name": "",
          "type": "address"
        },
        {
          "internalType": "address",
          "name": "",
          "type": "address"
        }
      ],
      "name": "vaultInfo",
      "outputs": [
        {
          "internalType": "address",
          "name": "claimer",
          "type": "address"
        },
        {
          "internalType": "uint256",
          "name": "totalAllocatedAmount",
          "type": "uint256"
        },
        {
          "internalType": "uint256",
          "name": "totalClaimCount",
          "type": "uint256"
        },
        {
          "internalType": "uint256",
          "name": "totalClaimedAmount",
          "type": "uint256"
        },
        {
          "internalType": "uint256",
          "name": "firstClaimAmount",
          "type": "uint256"
        },
        {
          "internalType": "uint32",
          "name": "firstClaimTime",
          "type": "uint32"
        },
        {
          "internalType": "uint32",
          "name": "secondClaimTime",
          "type": "uint32"
        },
        {
          "internalType": "uint32",
          "name": "roundInterval",
          "type": "uint32"
        },
        {
          "internalType": "uint32",
          "name": "latestClaimedRound",
          "type": "uint32"
        }
      ],
      "stateMutability": "view",
      "type": "function"
    }
  ],
  "bytecode": "0x608060405234801561001057600080fd5b50610278806100206000396000f3fe608060405234801561001057600080fd5b506004361061004c5760003560e01c80635b5491821461005157806366d003ac146100815780639a7b5f1114610094578063fb30088414610112575b600080fd5b600054610064906001600160a01b031681565b6040516001600160a01b0390911681526020015b60405180910390f35b600154610064906001600160a01b031681565b6100e76100a2366004610216565b600360205260009081526040902080546001909101546001600160a01b039182169181169074010000000000000000000000000000000000000000900462ffffff1683565b604080516001600160a01b03948516815293909216602084015262ffffff1690820152606001610078565b61019d610120366004610238565b600260208181526000938452604080852090915291835291208054600182015492820154600383015460048401546005909401546001600160a01b039093169493919290919063ffffffff8082169164010000000081048216916801000000000000000082048116916c0100000000000000000000000090041689565b604080516001600160a01b03909a168a5260208a0198909852968801959095526060870193909352608086019190915263ffffffff90811660a086015290811660c085015290811660e08401521661010082015261012001610078565b80356001600160a01b038116811461021157600080fd5b919050565b60006020828403121561022857600080fd5b610231826101fa565b9392505050565b6000806040838503121561024b57600080fd5b610254836101fa565b9150610262602084016101fa565b9050925092905056fea164736f6c6343000812000a",
  "linkReferences": {},
  "deployedLinkReferences": {}
}