{
  "_format": "hh-sol-artifact-1",
  "contractName": "LockIdRegisterStorage2",
  "sourceName": "contracts/stos/LockIdRegisterStorage2.sol",
  "abi": [
    {
      "inputs": [],
      "name": "MULTIPLIER",
      "outputs": [
        {
          "internalType": "uint256",
          "name": "",
          "type": "uint256"
        }
      ],
      "stateMutability": "view",
      "type": "function"
    },
    {
      "inputs": [],
      "name": "epochUnit",
      "outputs": [
        {
          "internalType": "uint256",
          "name": "",
          "type": "uint256"
        }
      ],
      "stateMutability": "view",
      "type": "function"
    },
    {
      "inputs": [
        {
          "internalType": "uint256",
          "name": "",
          "type": "uint256"
        }
      ],
      "name": "indexCheckOfTimeset",
      "outputs": [
        {
          "internalType": "bool",
          "name": "",
          "type": "bool"
        }
      ],
      "stateMutability": "view",
      "type": "function"
    },
    {
      "inputs": [
        {
          "internalType": "uint256",
          "name": "",
          "type": "uint256"
        }
      ],
      "name": "indexOfTimeset",
      "outputs": [
        {
          "internalType": "uint256",
          "name": "",
          "type": "uint256"
        }
      ],
      "stateMutability": "view",
      "type": "function"
    },
    {
      "inputs": [],
      "name": "maxTime",
      "outputs": [
        {
          "internalType": "uint256",
          "name": "",
          "type": "uint256"
        }
      ],
      "stateMutability": "view",
      "type": "function"
    },
    {
      "inputs": [
        {
          "internalType": "uint256",
          "name": "",
          "type": "uint256"
        },
        {
          "internalType": "uint256",
          "name": "",
          "type": "uint256"
        }
      ],
      "name": "pointHistoryByLockId",
      "outputs": [
        {
          "internalType": "int256",
          "name": "slope",
          "type": "int256"
        },
        {
          "internalType": "int256",
          "name": "bias",
          "type": "int256"
        },
        {
          "internalType": "uint32",
          "name": "timestamp",
          "type": "uint32"
        },
        {
          "internalType": "uint32",
          "name": "syncTime",
          "type": "uint32"
        }
      ],
      "stateMutability": "view",
      "type": "function"
    },
    {
      "inputs": [
        {
          "internalType": "uint256",
          "name": "",
          "type": "uint256"
        },
        {
          "internalType": "uint256",
          "name": "",
          "type": "uint256"
        }
      ],
      "name": "pointHistoryByWeek",
      "outputs": [
        {
          "internalType": "int256",
          "name": "slope",
          "type": "int256"
        },
        {
          "internalType": "int256",
          "name": "bias",
          "type": "int256"
        },
        {
          "internalType": "uint32",
          "name": "timestamp",
          "type": "uint32"
        },
        {
          "internalType": "uint32",
          "name": "syncTime",
          "type": "uint32"
        }
      ],
      "stateMutability": "view",
      "type": "function"
    }
  ],
  "bytecode": "0x608060405234801561001057600080fd5b50610227806100206000396000f3fe608060405234801561001057600080fd5b506004361061007d5760003560e01c806328f02c681161005b57806328f02c68146100c0578063cea823cd146100ff578063e178ee2014610132578063fd2dcecf1461014557600080fd5b8063059f8b161461008257806310c11360146100a457806322e67e71146100b7575b600080fd5b610091670de0b6b3a764000081565b6040519081526020015b60405180910390f35b6100916100b23660046101df565b61014e565b61009160015481565b6100d36100ce3660046101f8565b61016f565b60408051948552602085019390935263ffffffff9182169284019290925216606082015260800161009b565b61012261010d3660046101df565b60056020526000908152604090205460ff1681565b604051901515815260200161009b565b6100d36101403660046101f8565b6101c3565b61009160005481565b6004818154811061015e57600080fd5b600091825260209091200154905081565b6003602052816000526040600020818154811061018b57600080fd5b600091825260209091206003909102018054600182015460029092015490935090915063ffffffff8082169164010000000090041684565b6002602052816000526040600020818154811061018b57600080fd5b6000602082840312156101f157600080fd5b5035919050565b6000806040838503121561020b57600080fd5b5050803592602090910135915056fea164736f6c6343000812000a",
  "linkReferences": {},
  "deployedLinkReferences": {}
}