{
  "_format": "hh-sol-artifact-1",
  "contractName": "ERC165A",
  "sourceName": "contracts/L1/tokens/ERC165A.sol",
  "abi": [
    {
      "inputs": [],
      "stateMutability": "nonpayable",
      "type": "constructor"
    },
    {
      "inputs": [],
      "name": "_INTERFACE_ID_ERC20",
      "outputs": [
        {
          "internalType": "bytes4",
          "name": "",
          "type": "bytes4"
        }
      ],
      "stateMutability": "view",
      "type": "function"
    },
    {
      "inputs": [
        {
          "internalType": "bytes4",
          "name": "",
          "type": "bytes4"
        }
      ],
      "name": "_supportedInterfaces",
      "outputs": [
        {
          "internalType": "bool",
          "name": "",
          "type": "bool"
        }
      ],
      "stateMutability": "view",
      "type": "function"
    }
  ],
  "bytecode": "0x608060405234801561001057600080fd5b50610021636578737160e01b610036565b6100316301ffc9a760e01b610036565b6100b9565b6001600160e01b031980821690036100945760405162461bcd60e51b815260206004820152601c60248201527f4552433136353a20696e76616c696420696e7465726661636520696400000000604482015260640160405180910390fd5b6001600160e01b0319166000908152602081905260409020805460ff19166001179055565b60cd806100c76000396000f3fe6080604052348015600f57600080fd5b506004361060325760003560e01c80639321478c146037578063ef194435146062575b600080fd5b6044636578737160e01b81565b6040516001600160e01b031990911681526020015b60405180910390f35b6082606d3660046091565b60006020819052908152604090205460ff1681565b60405190151581526020016059565b60006020828403121560a257600080fd5b81356001600160e01b03198116811460b957600080fd5b939250505056fea164736f6c6343000812000a",
  "linkReferences": {},
  "deployedLinkReferences": {}
}