{
  "_format": "hh-sol-artifact-1",
  "contractName": "LockIdNFTStorage",
  "sourceName": "contracts/stos/LockIdNFTStorage.sol",
  "abi": [
    {
      "inputs": [],
      "name": "_ERC721_RECEIVED",
      "outputs": [
        {
          "internalType": "bytes4",
          "name": "",
          "type": "bytes4"
        }
      ],
      "stateMutability": "view",
      "type": "function"
    },
    {
      "inputs": [],
      "name": "_INTERFACE_ID_ERC721",
      "outputs": [
        {
          "internalType": "bytes4",
          "name": "",
          "type": "bytes4"
        }
      ],
      "stateMutability": "view",
      "type": "function"
    },
    {
      "inputs": [],
      "name": "_INTERFACE_ID_ERC721_ENUMERABLE",
      "outputs": [
        {
          "internalType": "bytes4",
          "name": "",
          "type": "bytes4"
        }
      ],
      "stateMutability": "view",
      "type": "function"
    },
    {
      "inputs": [],
      "name": "_INTERFACE_ID_ERC721_METADATA",
      "outputs": [
        {
          "internalType": "bytes4",
          "name": "",
          "type": "bytes4"
        }
      ],
      "stateMutability": "view",
      "type": "function"
    },
    {
      "inputs": [
        {
          "internalType": "uint256",
          "name": "",
          "type": "uint256"
        }
      ],
      "name": "_allTokens",
      "outputs": [
        {
          "internalType": "uint256",
          "name": "",
          "type": "uint256"
        }
      ],
      "stateMutability": "view",
      "type": "function"
    },
    {
      "inputs": [
        {
          "internalType": "uint256",
          "name": "",
          "type": "uint256"
        }
      ],
      "name": "_allTokensIndex",
      "outputs": [
        {
          "internalType": "uint256",
          "name": "",
          "type": "uint256"
        }
      ],
      "stateMutability": "view",
      "type": "function"
    },
    {
      "inputs": [],
      "name": "_baseURI",
      "outputs": [
        {
          "internalType": "string",
          "name": "",
          "type": "string"
        }
      ],
      "stateMutability": "view",
      "type": "function"
    },
    {
      "inputs": [],
      "name": "_manager",
      "outputs": [
        {
          "internalType": "address",
          "name": "",
          "type": "address"
        }
      ],
      "stateMutability": "view",
      "type": "function"
    },
    {
      "inputs": [],
      "name": "_name",
      "outputs": [
        {
          "internalType": "string",
          "name": "",
          "type": "string"
        }
      ],
      "stateMutability": "view",
      "type": "function"
    },
    {
      "inputs": [
        {
          "internalType": "address",
          "name": "",
          "type": "address"
        },
        {
          "internalType": "address",
          "name": "",
          "type": "address"
        }
      ],
      "name": "_operatorApprovals",
      "outputs": [
        {
          "internalType": "bool",
          "name": "",
          "type": "bool"
        }
      ],
      "stateMutability": "view",
      "type": "function"
    },
    {
      "inputs": [
        {
          "internalType": "address",
          "name": "",
          "type": "address"
        },
        {
          "internalType": "uint256",
          "name": "",
          "type": "uint256"
        }
      ],
      "name": "_ownedTokens",
      "outputs": [
        {
          "internalType": "uint256",
          "name": "",
          "type": "uint256"
        }
      ],
      "stateMutability": "view",
      "type": "function"
    },
    {
      "inputs": [
        {
          "internalType": "address",
          "name": "",
          "type": "address"
        }
      ],
      "name": "_ownedTokensCount",
      "outputs": [
        {
          "internalType": "uint256",
          "name": "",
          "type": "uint256"
        }
      ],
      "stateMutability": "view",
      "type": "function"
    },
    {
      "inputs": [
        {
          "internalType": "uint256",
          "name": "",
          "type": "uint256"
        }
      ],
      "name": "_ownedTokensIndex",
      "outputs": [
        {
          "internalType": "uint256",
          "name": "",
          "type": "uint256"
        }
      ],
      "stateMutability": "view",
      "type": "function"
    },
    {
      "inputs": [],
      "name": "_symbol",
      "outputs": [
        {
          "internalType": "string",
          "name": "",
          "type": "string"
        }
      ],
      "stateMutability": "view",
      "type": "function"
    },
    {
      "inputs": [
        {
          "internalType": "uint256",
          "name": "",
          "type": "uint256"
        }
      ],
      "name": "_tokenApprovals",
      "outputs": [
        {
          "internalType": "address",
          "name": "",
          "type": "address"
        }
      ],
      "stateMutability": "view",
      "type": "function"
    },
    {
      "inputs": [
        {
          "internalType": "uint256",
          "name": "",
          "type": "uint256"
        }
      ],
      "name": "_tokenAttributes",
      "outputs": [
        {
          "internalType": "uint8",
          "name": "",
          "type": "uint8"
        }
      ],
      "stateMutability": "view",
      "type": "function"
    },
    {
      "inputs": [
        {
          "internalType": "uint256",
          "name": "",
          "type": "uint256"
        }
      ],
      "name": "_tokenOwner",
      "outputs": [
        {
          "internalType": "address",
          "name": "",
          "type": "address"
        }
      ],
      "stateMutability": "view",
      "type": "function"
    },
    {
      "inputs": [
        {
          "internalType": "uint256",
          "name": "",
          "type": "uint256"
        }
      ],
      "name": "_tokenURIs",
      "outputs": [
        {
          "internalType": "string",
          "name": "",
          "type": "string"
        }
      ],
      "stateMutability": "view",
      "type": "function"
    },
    {
      "inputs": [],
      "name": "staker",
      "outputs": [
        {
          "internalType": "address",
          "name": "",
          "type": "address"
        }
      ],
      "stateMutability": "view",
      "type": "function"
    },
    {
      "inputs": [
        {
          "internalType": "bytes4",
          "name": "interfaceId",
          "type": "bytes4"
        }
      ],
      "name": "supportsInterface",
      "outputs": [
        {
          "internalType": "bool",
          "name": "",
          "type": "bool"
        }
      ],
      "stateMutability": "view",
      "type": "function"
    }
  ],
  "bytecode": "0x608060405234801561001057600080fd5b506100216301ffc9a760e01b610026565b6100a9565b6001600160e01b031980821690036100845760405162461bcd60e51b815260206004820152601c60248201527f4552433136353a20696e76616c696420696e7465726661636520696400000000604482015260640160405180910390fd5b6001600160e01b0319166000908152602081905260409020805460ff19166001179055565b610649806100b86000396000f3fe608060405234801561001057600080fd5b506004361061016c5760003560e01c8063a7263665116100cd578063d28d885211610081578063edc3bc3f11610066578063edc3bc3f14610362578063f0329f6b14610390578063f6631718146103a357600080fd5b8063d28d88521461034c578063dece68541461035457600080fd5b8063aa5965ae116100b2578063aa5965ae14610323578063b01ac59114610336578063b09f12661461034457600080fd5b8063a7263665146102da578063a7cc0136146102fa57600080fd5b8063743976a01161012457806388290adc1161010957806388290adc1461028557806394a509dd146102ac578063a2e9b439146102ba57600080fd5b8063743976a014610254578063796db3121461025c57600080fd5b806317a3a79c1161015557806317a3a79c146101d35780634f3c5f06146102085780635ebaf1db1461022957600080fd5b806301ffc9a7146101715780630bb78ec1146101b3575b600080fd5b61019e61017f3660046104d6565b6001600160e01b03191660009081526020819052604090205460ff1690565b60405190151581526020015b60405180910390f35b6101c66101c1366004610507565b6103c3565b6040516101aa9190610520565b6101f66101e1366004610507565b60066020526000908152604090205460ff1681565b60405160ff90911681526020016101aa565b61021b61021636600461058a565b61045d565b6040519081526020016101aa565b60025461023c906001600160a01b031681565b6040516001600160a01b0390911681526020016101aa565b6101c661048e565b61023c61026a366004610507565b6008602052600090815260409020546001600160a01b031681565b610293630a85bd0160e11b81565b6040516001600160e01b031990911681526020016101aa565b610293635b5e139f60e01b81565b61021b6102c8366004610507565b600d6020526000908152604090205481565b61021b6102e8366004610507565b600f6020526000908152604090205481565b61023c610308366004610507565b6009602052600090815260409020546001600160a01b031681565b61021b610331366004610507565b61049b565b61029363780e9d6360e01b81565b6101c66104bc565b6101c66104c9565b6102936380ac58cd60e01b81565b61019e6103703660046105b4565b600b60209081526000928352604080842090915290825290205460ff1681565b60015461023c906001600160a01b031681565b61021b6103b13660046105e7565b600a6020526000908152604090205481565b600560205260009081526040902080546103dc90610602565b80601f016020809104026020016040519081016040528092919081815260200182805461040890610602565b80156104555780601f1061042a57610100808354040283529160200191610455565b820191906000526020600020905b81548152906001019060200180831161043857829003601f168201915b505050505081565b600c602052816000526040600020818154811061047957600080fd5b90600052602060002001600091509150505481565b600780546103dc90610602565b600e81815481106104ab57600080fd5b600091825260209091200154905081565b600480546103dc90610602565b600380546103dc90610602565b6000602082840312156104e857600080fd5b81356001600160e01b03198116811461050057600080fd5b9392505050565b60006020828403121561051957600080fd5b5035919050565b600060208083528351808285015260005b8181101561054d57858101830151858201604001528201610531565b506000604082860101526040601f19601f8301168501019250505092915050565b80356001600160a01b038116811461058557600080fd5b919050565b6000806040838503121561059d57600080fd5b6105a68361056e565b946020939093013593505050565b600080604083850312156105c757600080fd5b6105d08361056e565b91506105de6020840161056e565b90509250929050565b6000602082840312156105f957600080fd5b6105008261056e565b600181811c9082168061061657607f821691505b60208210810361063657634e487b7160e01b600052602260045260246000fd5b5091905056fea164736f6c6343000812000a",
  "linkReferences": {},
  "deployedLinkReferences": {}
}