{
  "_format": "hh-sol-artifact-1",
  "contractName": "LockIdNFTStorage",
  "sourceName": "contracts/stos/LockIdNFTStorage.sol",
  "abi": [
    {
      "inputs": [],
      "name": "_ERC721_RECEIVED",
      "outputs": [
        {
          "internalType": "bytes4",
          "name": "",
          "type": "bytes4"
        }
      ],
      "stateMutability": "view",
      "type": "function"
    },
    {
      "inputs": [],
      "name": "_INTERFACE_ID_ERC721",
      "outputs": [
        {
          "internalType": "bytes4",
          "name": "",
          "type": "bytes4"
        }
      ],
      "stateMutability": "view",
      "type": "function"
    },
    {
      "inputs": [],
      "name": "_INTERFACE_ID_ERC721_ENUMERABLE",
      "outputs": [
        {
          "internalType": "bytes4",
          "name": "",
          "type": "bytes4"
        }
      ],
      "stateMutability": "view",
      "type": "function"
    },
    {
      "inputs": [],
      "name": "_INTERFACE_ID_ERC721_METADATA",
      "outputs": [
        {
          "internalType": "bytes4",
          "name": "",
          "type": "bytes4"
        }
      ],
      "stateMutability": "view",
      "type": "function"
    },
    {
      "inputs": [
        {
          "internalType": "uint256",
          "name": "",
          "type": "uint256"
        }
      ],
      "name": "_allTokens",
      "outputs": [
        {
          "internalType": "uint256",
          "name": "",
          "type": "uint256"
        }
      ],
      "stateMutability": "view",
      "type": "function"
    },
    {
      "inputs": [
        {
          "internalType": "uint256",
          "name": "",
          "type": "uint256"
        }
      ],
      "name": "_allTokensIndex",
      "outputs": [
        {
          "internalType": "uint256",
          "name": "",
          "type": "uint256"
        }
      ],
      "stateMutability": "view",
      "type": "function"
    },
    {
      "inputs": [],
      "name": "_baseURI",
      "outputs": [
        {
          "internalType": "string",
          "name": "",
          "type": "string"
        }
      ],
      "stateMutability": "view",
      "type": "function"
    },
    {
      "inputs": [],
      "name": "_manager",
      "outputs": [
        {
          "internalType": "address",
          "name": "",
          "type": "address"
        }
      ],
      "stateMutability": "view",
      "type": "function"
    },
    {
      "inputs": [],
      "name": "_name",
      "outputs": [
        {
          "internalType": "string",
          "name": "",
          "type": "string"
        }
      ],
      "stateMutability": "view",
      "type": "function"
    },
    {
      "inputs": [
        {
          "internalType": "address",
          "name": "",
          "type": "address"
        },
        {
          "internalType": "address",
          "name": "",
          "type": "address"
        }
      ],
      "name": "_operatorApprovals",
      "outputs": [
        {
          "internalType": "bool",
          "name": "",
          "type": "bool"
        }
      ],
      "stateMutability": "view",
      "type": "function"
    },
    {
      "inputs": [
        {
          "internalType": "address",
          "name": "",
          "type": "address"
        },
        {
          "internalType": "uint256",
          "name": "",
          "type": "uint256"
        }
      ],
      "name": "_ownedTokens",
      "outputs": [
        {
          "internalType": "uint256",
          "name": "",
          "type": "uint256"
        }
      ],
      "stateMutability": "view",
      "type": "function"
    },
    {
      "inputs": [
        {
          "internalType": "address",
          "name": "",
          "type": "address"
        }
      ],
      "name": "_ownedTokensCount",
      "outputs": [
        {
          "internalType": "uint256",
          "name": "",
          "type": "uint256"
        }
      ],
      "stateMutability": "view",
      "type": "function"
    },
    {
      "inputs": [
        {
          "internalType": "uint256",
          "name": "",
          "type": "uint256"
        }
      ],
      "name": "_ownedTokensIndex",
      "outputs": [
        {
          "internalType": "uint256",
          "name": "",
          "type": "uint256"
        }
      ],
      "stateMutability": "view",
      "type": "function"
    },
    {
      "inputs": [],
      "name": "_symbol",
      "outputs": [
        {
          "internalType": "string",
          "name": "",
          "type": "string"
        }
      ],
      "stateMutability": "view",
      "type": "function"
    },
    {
      "inputs": [
        {
          "internalType": "uint256",
          "name": "",
          "type": "uint256"
        }
      ],
      "name": "_tokenApprovals",
      "outputs": [
        {
          "internalType": "address",
          "name": "",
          "type": "address"
        }
      ],
      "stateMutability": "view",
      "type": "function"
    },
    {
      "inputs": [
        {
          "internalType": "uint256",
          "name": "",
          "type": "uint256"
        }
      ],
      "name": "_tokenAttributes",
      "outputs": [
        {
          "internalType": "uint8",
          "name": "",
          "type": "uint8"
        }
      ],
      "stateMutability": "view",
      "type": "function"
    },
    {
      "inputs": [
        {
          "internalType": "uint256",
          "name": "",
          "type": "uint256"
        }
      ],
      "name": "_tokenOwner",
      "outputs": [
        {
          "internalType": "address",
          "name": "",
          "type": "address"
        }
      ],
      "stateMutability": "view",
      "type": "function"
    },
    {
      "inputs": [
        {
          "internalType": "uint256",
          "name": "",
          "type": "uint256"
        }
      ],
      "name": "_tokenURIs",
      "outputs": [
        {
          "internalType": "string",
          "name": "",
          "type": "string"
        }
      ],
      "stateMutability": "view",
      "type": "function"
    },
    {
      "inputs": [
        {
          "internalType": "bytes4",
          "name": "interfaceId",
          "type": "bytes4"
        }
      ],
      "name": "supportsInterface",
      "outputs": [
        {
          "internalType": "bool",
          "name": "",
          "type": "bool"
        }
      ],
      "stateMutability": "view",
      "type": "function"
    }
  ],
  "bytecode": "0x608060405234801561001057600080fd5b506100216301ffc9a760e01b610026565b6100a9565b6001600160e01b031980821690036100845760405162461bcd60e51b815260206004820152601c60248201527f4552433136353a20696e76616c696420696e7465726661636520696400000000604482015260640160405180910390fd5b6001600160e01b0319166000908152602081905260409020805460ff19166001179055565b61061b806100b86000396000f3fe608060405234801561001057600080fd5b50600436106101515760003560e01c8063a7263665116100cd578063d28d885211610081578063edc3bc3f11610066578063edc3bc3f14610334578063f0329f6b14610362578063f66317181461037557600080fd5b8063d28d88521461031e578063dece68541461032657600080fd5b8063aa5965ae116100b2578063aa5965ae146102f5578063b01ac59114610308578063b09f12661461031657600080fd5b8063a7263665146102ac578063a7cc0136146102cc57600080fd5b8063743976a01161012457806388290adc1161010957806388290adc1461025757806394a509dd1461027e578063a2e9b4391461028c57600080fd5b8063743976a01461020e578063796db3121461021657600080fd5b806301ffc9a7146101565780630bb78ec11461019857806317a3a79c146101b85780634f3c5f06146101ed575b600080fd5b6101836101643660046104a8565b6001600160e01b03191660009081526020819052604090205460ff1690565b60405190151581526020015b60405180910390f35b6101ab6101a63660046104d9565b610395565b60405161018f91906104f2565b6101db6101c63660046104d9565b60056020526000908152604090205460ff1681565b60405160ff909116815260200161018f565b6102006101fb36600461055c565b61042f565b60405190815260200161018f565b6101ab610460565b61023f6102243660046104d9565b6007602052600090815260409020546001600160a01b031681565b6040516001600160a01b03909116815260200161018f565b610265630a85bd0160e11b81565b6040516001600160e01b0319909116815260200161018f565b610265635b5e139f60e01b81565b61020061029a3660046104d9565b600c6020526000908152604090205481565b6102006102ba3660046104d9565b600e6020526000908152604090205481565b61023f6102da3660046104d9565b6008602052600090815260409020546001600160a01b031681565b6102006103033660046104d9565b61046d565b61026563780e9d6360e01b81565b6101ab61048e565b6101ab61049b565b6102656380ac58cd60e01b81565b610183610342366004610586565b600a60209081526000928352604080842090915290825290205460ff1681565b60015461023f906001600160a01b031681565b6102006103833660046105b9565b60096020526000908152604090205481565b600460205260009081526040902080546103ae906105d4565b80601f01602080910402602001604051908101604052809291908181526020018280546103da906105d4565b80156104275780601f106103fc57610100808354040283529160200191610427565b820191906000526020600020905b81548152906001019060200180831161040a57829003601f168201915b505050505081565b600b602052816000526040600020818154811061044b57600080fd5b90600052602060002001600091509150505481565b600680546103ae906105d4565b600d818154811061047d57600080fd5b600091825260209091200154905081565b600380546103ae906105d4565b600280546103ae906105d4565b6000602082840312156104ba57600080fd5b81356001600160e01b0319811681146104d257600080fd5b9392505050565b6000602082840312156104eb57600080fd5b5035919050565b600060208083528351808285015260005b8181101561051f57858101830151858201604001528201610503565b506000604082860101526040601f19601f8301168501019250505092915050565b80356001600160a01b038116811461055757600080fd5b919050565b6000806040838503121561056f57600080fd5b61057883610540565b946020939093013593505050565b6000806040838503121561059957600080fd5b6105a283610540565b91506105b060208401610540565b90509250929050565b6000602082840312156105cb57600080fd5b6104d282610540565b600181811c908216806105e857607f821691505b60208210810361060857634e487b7160e01b600052602260045260246000fd5b5091905056fea164736f6c6343000812000a",
  "linkReferences": {},
  "deployedLinkReferences": {}
}