{
  "_format": "hh-sol-artifact-1",
  "contractName": "L2LpRewardVault",
  "sourceName": "contracts/L2/vaults/L2LpRewardVault.sol",
  "abi": [
    {
      "anonymous": false,
      "inputs": [
        {
          "indexed": false,
          "internalType": "address",
          "name": "_recipient",
          "type": "address"
        }
      ],
      "name": "ChangedRecipient",
      "type": "event"
    },
    {
      "anonymous": false,
      "inputs": [
        {
          "indexed": false,
          "internalType": "address",
          "name": "l2Token",
          "type": "address"
        },
        {
          "indexed": false,
          "internalType": "address",
          "name": "pool",
          "type": "address"
        },
        {
          "indexed": false,
          "internalType": "address",
          "name": "to",
          "type": "address"
        },
        {
          "indexed": false,
          "internalType": "uint256",
          "name": "amount",
          "type": "uint256"
        }
      ],
      "name": "ClaimedInVault",
      "type": "event"
    },
    {
      "anonymous": false,
      "inputs": [
        {
          "indexed": false,
          "internalType": "address",
          "name": "l2Token",
          "type": "address"
        },
        {
          "components": [
            {
              "internalType": "address",
              "name": "token0",
              "type": "address"
            },
            {
              "internalType": "address",
              "name": "token1",
              "type": "address"
            },
            {
              "internalType": "uint24",
              "name": "fee",
              "type": "uint24"
            }
          ],
          "indexed": false,
          "internalType": "struct LibPool.PoolInfo",
          "name": "paramPoolInfo",
          "type": "tuple"
        },
        {
          "components": [
            {
              "internalType": "address",
              "name": "claimer",
              "type": "address"
            },
            {
              "internalType": "uint256",
              "name": "totalAllocatedAmount",
              "type": "uint256"
            },
            {
              "internalType": "uint256",
              "name": "totalClaimCount",
              "type": "uint256"
            },
            {
              "internalType": "uint256",
              "name": "firstClaimAmount",
              "type": "uint256"
            },
            {
              "internalType": "uint32",
              "name": "firstClaimTime",
              "type": "uint32"
            },
            {
              "internalType": "uint32",
              "name": "secondClaimTime",
              "type": "uint32"
            },
            {
              "internalType": "uint32",
              "name": "roundIntervalTime",
              "type": "uint32"
            }
          ],
          "indexed": false,
          "internalType": "struct LibProject.InitalParameterScheduleVault",
          "name": "parmas",
          "type": "tuple"
        }
      ],
      "name": "InitializedL2LpRewardVault",
      "type": "event"
    },
    {
      "anonymous": false,
      "inputs": [
        {
          "indexed": true,
          "internalType": "bytes32",
          "name": "role",
          "type": "bytes32"
        },
        {
          "indexed": true,
          "internalType": "bytes32",
          "name": "previousAdminRole",
          "type": "bytes32"
        },
        {
          "indexed": true,
          "internalType": "bytes32",
          "name": "newAdminRole",
          "type": "bytes32"
        }
      ],
      "name": "RoleAdminChanged",
      "type": "event"
    },
    {
      "anonymous": false,
      "inputs": [
        {
          "indexed": true,
          "internalType": "bytes32",
          "name": "role",
          "type": "bytes32"
        },
        {
          "indexed": true,
          "internalType": "address",
          "name": "account",
          "type": "address"
        },
        {
          "indexed": true,
          "internalType": "address",
          "name": "sender",
          "type": "address"
        }
      ],
      "name": "RoleGranted",
      "type": "event"
    },
    {
      "anonymous": false,
      "inputs": [
        {
          "indexed": true,
          "internalType": "bytes32",
          "name": "role",
          "type": "bytes32"
        },
        {
          "indexed": true,
          "internalType": "address",
          "name": "account",
          "type": "address"
        },
        {
          "indexed": true,
          "internalType": "address",
          "name": "sender",
          "type": "address"
        }
      ],
      "name": "RoleRevoked",
      "type": "event"
    },
    {
      "anonymous": false,
      "inputs": [
        {
          "indexed": false,
          "internalType": "address",
          "name": "l2Token",
          "type": "address"
        },
        {
          "indexed": false,
          "internalType": "address",
          "name": "newAdmin",
          "type": "address"
        }
      ],
      "name": "SetVaultAdmin",
      "type": "event"
    },
    {
      "inputs": [],
      "name": "ADMIN_ROLE",
      "outputs": [
        {
          "internalType": "bytes32",
          "name": "",
          "type": "bytes32"
        }
      ],
      "stateMutability": "view",
      "type": "function"
    },
    {
      "inputs": [],
      "name": "DEFAULT_ADMIN_ROLE",
      "outputs": [
        {
          "internalType": "bytes32",
          "name": "",
          "type": "bytes32"
        }
      ],
      "stateMutability": "view",
      "type": "function"
    },
    {
      "inputs": [],
      "name": "POLICY_ROLE",
      "outputs": [
        {
          "internalType": "bytes32",
          "name": "",
          "type": "bytes32"
        }
      ],
      "stateMutability": "view",
      "type": "function"
    },
    {
      "inputs": [
        {
          "internalType": "address",
          "name": "account",
          "type": "address"
        }
      ],
      "name": "addAdmin",
      "outputs": [],
      "stateMutability": "nonpayable",
      "type": "function"
    },
    {
      "inputs": [
        {
          "internalType": "address",
          "name": "",
          "type": "address"
        }
      ],
      "name": "aliveImplementation",
      "outputs": [
        {
          "internalType": "bool",
          "name": "",
          "type": "bool"
        }
      ],
      "stateMutability": "view",
      "type": "function"
    },
    {
      "inputs": [
        {
          "internalType": "address",
          "name": "l2Token",
          "type": "address"
        },
        {
          "internalType": "address",
          "name": "pool",
          "type": "address"
        }
      ],
      "name": "availableClaimAmount",
      "outputs": [
        {
          "internalType": "uint256",
          "name": "amount",
          "type": "uint256"
        }
      ],
      "stateMutability": "view",
      "type": "function"
    },
    {
      "inputs": [
        {
          "internalType": "address",
          "name": "_recipient",
          "type": "address"
        }
      ],
      "name": "changeRecipient",
      "outputs": [],
      "stateMutability": "nonpayable",
      "type": "function"
    },
    {
      "inputs": [
        {
          "internalType": "address",
          "name": "l2Token",
          "type": "address"
        },
        {
          "internalType": "address",
          "name": "pool",
          "type": "address"
        }
      ],
      "name": "claim",
      "outputs": [],
      "stateMutability": "nonpayable",
      "type": "function"
    },
    {
      "inputs": [
        {
          "internalType": "address",
          "name": "l2Token",
          "type": "address"
        },
        {
          "internalType": "address",
          "name": "pool",
          "type": "address"
        }
      ],
      "name": "getCurrentRound",
      "outputs": [
        {
          "internalType": "uint256",
          "name": "round",
          "type": "uint256"
        }
      ],
      "stateMutability": "view",
      "type": "function"
    },
    {
      "inputs": [
        {
          "internalType": "address",
          "name": "token0",
          "type": "address"
        },
        {
          "internalType": "address",
          "name": "token1",
          "type": "address"
        },
        {
          "internalType": "uint24",
          "name": "_fee",
          "type": "uint24"
        }
      ],
      "name": "getPoolAddress",
      "outputs": [
        {
          "internalType": "address",
          "name": "",
          "type": "address"
        }
      ],
      "stateMutability": "view",
      "type": "function"
    },
    {
      "inputs": [
        {
          "internalType": "bytes32",
          "name": "role",
          "type": "bytes32"
        }
      ],
      "name": "getRoleAdmin",
      "outputs": [
        {
          "internalType": "bytes32",
          "name": "",
          "type": "bytes32"
        }
      ],
      "stateMutability": "view",
      "type": "function"
    },
    {
      "inputs": [
        {
          "internalType": "bytes32",
          "name": "role",
          "type": "bytes32"
        },
        {
          "internalType": "address",
          "name": "account",
          "type": "address"
        }
      ],
      "name": "grantRole",
      "outputs": [],
      "stateMutability": "nonpayable",
      "type": "function"
    },
    {
      "inputs": [
        {
          "internalType": "bytes32",
          "name": "role",
          "type": "bytes32"
        },
        {
          "internalType": "address",
          "name": "account",
          "type": "address"
        }
      ],
      "name": "hasRole",
      "outputs": [
        {
          "internalType": "bool",
          "name": "",
          "type": "bool"
        }
      ],
      "stateMutability": "view",
      "type": "function"
    },
    {
      "inputs": [
        {
          "internalType": "address",
          "name": "l2Token",
          "type": "address"
        },
        {
          "components": [
            {
              "internalType": "address",
              "name": "token0",
              "type": "address"
            },
            {
              "internalType": "address",
              "name": "token1",
              "type": "address"
            },
            {
              "internalType": "uint24",
              "name": "fee",
              "type": "uint24"
            }
          ],
          "internalType": "struct LibPool.PoolInfo",
          "name": "paramPoolInfo",
          "type": "tuple"
        },
        {
          "components": [
            {
              "internalType": "address",
              "name": "claimer",
              "type": "address"
            },
            {
              "internalType": "uint256",
              "name": "totalAllocatedAmount",
              "type": "uint256"
            },
            {
              "internalType": "uint256",
              "name": "totalClaimCount",
              "type": "uint256"
            },
            {
              "internalType": "uint256",
              "name": "firstClaimAmount",
              "type": "uint256"
            },
            {
              "internalType": "uint32",
              "name": "firstClaimTime",
              "type": "uint32"
            },
            {
              "internalType": "uint32",
              "name": "secondClaimTime",
              "type": "uint32"
            },
            {
              "internalType": "uint32",
              "name": "roundIntervalTime",
              "type": "uint32"
            }
          ],
          "internalType": "struct LibProject.InitalParameterScheduleVault",
          "name": "params",
          "type": "tuple"
        }
      ],
      "name": "initialize",
      "outputs": [],
      "stateMutability": "nonpayable",
      "type": "function"
    },
    {
      "inputs": [
        {
          "internalType": "address",
          "name": "account",
          "type": "address"
        }
      ],
      "name": "isAdmin",
      "outputs": [
        {
          "internalType": "bool",
          "name": "",
          "type": "bool"
        }
      ],
      "stateMutability": "view",
      "type": "function"
    },
    {
      "inputs": [
        {
          "internalType": "address",
          "name": "l2Token",
          "type": "address"
        },
        {
          "internalType": "address",
          "name": "account",
          "type": "address"
        }
      ],
      "name": "isVaultAdmin",
      "outputs": [
        {
          "internalType": "bool",
          "name": "",
          "type": "bool"
        }
      ],
      "stateMutability": "view",
      "type": "function"
    },
    {
      "inputs": [],
      "name": "l2ProjectManager",
      "outputs": [
        {
          "internalType": "address",
          "name": "",
          "type": "address"
        }
      ],
      "stateMutability": "view",
      "type": "function"
    },
    {
      "inputs": [],
      "name": "pauseProxy",
      "outputs": [
        {
          "internalType": "bool",
          "name": "",
          "type": "bool"
        }
      ],
      "stateMutability": "view",
      "type": "function"
    },
    {
      "inputs": [
        {
          "internalType": "address",
          "name": "",
          "type": "address"
        }
      ],
      "name": "poolInfo",
      "outputs": [
        {
          "internalType": "address",
          "name": "token0",
          "type": "address"
        },
        {
          "internalType": "address",
          "name": "token1",
          "type": "address"
        },
        {
          "internalType": "uint24",
          "name": "fee",
          "type": "uint24"
        }
      ],
      "stateMutability": "view",
      "type": "function"
    },
    {
      "inputs": [
        {
          "internalType": "uint256",
          "name": "",
          "type": "uint256"
        }
      ],
      "name": "proxyImplementation",
      "outputs": [
        {
          "internalType": "address",
          "name": "",
          "type": "address"
        }
      ],
      "stateMutability": "view",
      "type": "function"
    },
    {
      "inputs": [],
      "name": "recipient",
      "outputs": [
        {
          "internalType": "address",
          "name": "",
          "type": "address"
        }
      ],
      "stateMutability": "view",
      "type": "function"
    },
    {
      "inputs": [
        {
          "internalType": "address",
          "name": "account",
          "type": "address"
        }
      ],
      "name": "removeAdmin",
      "outputs": [],
      "stateMutability": "nonpayable",
      "type": "function"
    },
    {
      "inputs": [
        {
          "internalType": "bytes32",
          "name": "role",
          "type": "bytes32"
        },
        {
          "internalType": "address",
          "name": "account",
          "type": "address"
        }
      ],
      "name": "renounceRole",
      "outputs": [],
      "stateMutability": "nonpayable",
      "type": "function"
    },
    {
      "inputs": [
        {
          "internalType": "bytes32",
          "name": "role",
          "type": "bytes32"
        },
        {
          "internalType": "address",
          "name": "account",
          "type": "address"
        }
      ],
      "name": "revokeRole",
      "outputs": [],
      "stateMutability": "nonpayable",
      "type": "function"
    },
    {
      "inputs": [
        {
          "internalType": "bytes4",
          "name": "",
          "type": "bytes4"
        }
      ],
      "name": "selectorImplementation",
      "outputs": [
        {
          "internalType": "address",
          "name": "",
          "type": "address"
        }
      ],
      "stateMutability": "view",
      "type": "function"
    },
    {
      "inputs": [
        {
          "internalType": "address",
          "name": "_l2ProjectManager",
          "type": "address"
        }
      ],
      "name": "setL2ProjectManager",
      "outputs": [],
      "stateMutability": "nonpayable",
      "type": "function"
    },
    {
      "inputs": [
        {
          "internalType": "address",
          "name": "_factory",
          "type": "address"
        }
      ],
      "name": "setUniswapV3Factory",
      "outputs": [],
      "stateMutability": "nonpayable",
      "type": "function"
    },
    {
      "inputs": [
        {
          "internalType": "address",
          "name": "l2Token",
          "type": "address"
        },
        {
          "internalType": "address",
          "name": "_newAdmin",
          "type": "address"
        }
      ],
      "name": "setVaultAdmin",
      "outputs": [],
      "stateMutability": "nonpayable",
      "type": "function"
    },
    {
      "inputs": [
        {
          "internalType": "bytes4",
          "name": "interfaceId",
          "type": "bytes4"
        }
      ],
      "name": "supportsInterface",
      "outputs": [
        {
          "internalType": "bool",
          "name": "",
          "type": "bool"
        }
      ],
      "stateMutability": "view",
      "type": "function"
    },
    {
      "inputs": [
        {
          "internalType": "address",
          "name": "newAdmin",
          "type": "address"
        }
      ],
      "name": "transferAdmin",
      "outputs": [],
      "stateMutability": "nonpayable",
      "type": "function"
    },
    {
      "inputs": [
        {
          "internalType": "address",
          "name": "l2Token",
          "type": "address"
        },
        {
          "internalType": "address",
          "name": "_newAdmin",
          "type": "address"
        }
      ],
      "name": "transferVaultAdmin",
      "outputs": [],
      "stateMutability": "nonpayable",
      "type": "function"
    },
    {
      "inputs": [],
      "name": "uniswapV3Factory",
      "outputs": [
        {
          "internalType": "address",
          "name": "",
          "type": "address"
        }
      ],
      "stateMutability": "view",
      "type": "function"
    },
    {
      "inputs": [
        {
          "internalType": "address",
          "name": "",
          "type": "address"
        }
      ],
      "name": "vaultAdminOfToken",
      "outputs": [
        {
          "internalType": "address",
          "name": "",
          "type": "address"
        }
      ],
      "stateMutability": "view",
      "type": "function"
    },
    {
      "inputs": [
        {
          "internalType": "address",
          "name": "",
          "type": "address"
        },
        {
          "internalType": "address",
          "name": "",
          "type": "address"
        }
      ],
      "name": "vaultInfo",
      "outputs": [
        {
          "internalType": "address",
          "name": "claimer",
          "type": "address"
        },
        {
          "internalType": "uint256",
          "name": "totalAllocatedAmount",
          "type": "uint256"
        },
        {
          "internalType": "uint256",
          "name": "totalClaimCount",
          "type": "uint256"
        },
        {
          "internalType": "uint256",
          "name": "totalClaimedAmount",
          "type": "uint256"
        },
        {
          "internalType": "uint256",
          "name": "firstClaimAmount",
          "type": "uint256"
        },
        {
          "internalType": "uint32",
          "name": "firstClaimTime",
          "type": "uint32"
        },
        {
          "internalType": "uint32",
          "name": "secondClaimTime",
          "type": "uint32"
        },
        {
          "internalType": "uint32",
          "name": "roundInterval",
          "type": "uint32"
        },
        {
          "internalType": "uint32",
          "name": "latestClaimedRound",
          "type": "uint32"
        }
      ],
      "stateMutability": "view",
      "type": "function"
    },
    {
      "inputs": [
        {
          "internalType": "address",
          "name": "l2Token",
          "type": "address"
        },
        {
          "internalType": "address",
          "name": "pool",
          "type": "address"
        }
      ],
      "name": "viewVaultInfo",
      "outputs": [
        {
          "components": [
            {
              "internalType": "address",
              "name": "claimer",
              "type": "address"
            },
            {
              "internalType": "uint256",
              "name": "totalAllocatedAmount",
              "type": "uint256"
            },
            {
              "internalType": "uint256",
              "name": "totalClaimCount",
              "type": "uint256"
            },
            {
              "internalType": "uint256",
              "name": "totalClaimedAmount",
              "type": "uint256"
            },
            {
              "internalType": "uint256",
              "name": "firstClaimAmount",
              "type": "uint256"
            },
            {
              "internalType": "uint32",
              "name": "firstClaimTime",
              "type": "uint32"
            },
            {
              "internalType": "uint32",
              "name": "secondClaimTime",
              "type": "uint32"
            },
            {
              "internalType": "uint32",
              "name": "roundInterval",
              "type": "uint32"
            },
            {
              "internalType": "uint32",
              "name": "latestClaimedRound",
              "type": "uint32"
            }
          ],
          "internalType": "struct LibScheduleVault.VaultInfo",
          "name": "",
          "type": "tuple"
        }
      ],
      "stateMutability": "view",
      "type": "function"
    }
  ],
  "bytecode": "0x60806040526005805460ff1916600117905534801561001d57600080fd5b50612a658061002d6000396000f3fe608060405234801561001057600080fd5b50600436106102415760003560e01c80635b5491821161014557806392c2bcb4116100bd578063b911135f1161008c578063d547741f11610071578063d547741f146106e8578063e2cfcfee146106fb578063fb3008841461070e57600080fd5b8063b911135f146106ac578063d4c353f6146106d557600080fd5b806392c2bcb4146106005780639a7b5f1114610613578063a217fddf14610691578063a41823431461069957600080fd5b8063704802751161011457806375b238fc116100f957806375b238fc146105775780637fc46ba81461059e57806391d14854146105c757600080fd5b8063704802751461055157806375829def1461056457600080fd5b80635b5491821461050b57806363a8fd891461051e57806366d003ac1461052b578063696d62831461053e57600080fd5b806324d7806c116101d857806350d2a276116101a757806352351e851161018c57806352351e85146103c7578063550d01a3146103df578063580813621461040257600080fd5b806350d2a2761461037357806351e8152a146103b457600080fd5b806324d7806c146103275780632f2ff15d1461033a57806335b9ac661461034d57806336568abe1461036057600080fd5b806321c0b3421161021457806321c0b342146102a957806322985246146102bc57806323d57255146102f1578063248a9ca31461030457600080fd5b806301ffc9a7146102465780631785f53c1461026e57806317bc6a72146102835780631e8948c314610296575b600080fd5b610259610254366004612513565b6107e9565b60405190151581526020015b60405180910390f35b61028161027c366004612552565b610820565b005b610281610291366004612619565b6108b2565b6102816102a4366004612717565b610fd5565b6102816102b7366004612717565b6111af565b6102e37ffb5864e8ff833c3cb2d2d08505e82ff02a43554c74a35d4f5a64e8526127831181565b604051908152602001610265565b6102e36102ff366004612717565b611441565b6102e3610312366004612750565b60009081526004602052604090206001015490565b610259610335366004612552565b611454565b610281610348366004612769565b611494565b61028161035b366004612717565b6114be565b61028161036e366004612769565b611672565b61039c610381366004612513565b6003602052600090815260409020546001600160a01b031681565b6040516001600160a01b039091168152602001610265565b6102596103c2366004612717565b6116fe565b60055461039c9061010090046001600160a01b031681565b6102596103ed366004612552565b60026020526000908152604090205460ff1681565b6104fe610410366004612717565b6040805161012081018252600080825260208201819052918101829052606081018290526080810182905260a0810182905260c0810182905260e08101829052610100810191909152506001600160a01b0391821660009081526009602090815260408083209385168352928152908290208251610120810184528154909416845260018101549184019190915260028101549183019190915260038101546060830152600481015460808301526005015463ffffffff80821660a08401526401000000008204811660c0840152600160401b8204811660e0840152600160601b9091041661010082015290565b604051610265919061278e565b60075461039c906001600160a01b031681565b6000546102599060ff1681565b60085461039c906001600160a01b031681565b61039c61054c366004612823565b611736565b61028161055f366004612552565b6117c0565b610281610572366004612552565b61184a565b6102e37fdf8b4c520ffe197c5343c6f5aec59570151ef9a492f2c624fd45ddde6135ec4281565b61039c6105ac366004612552565b6006602052600090815260409020546001600160a01b031681565b6102596105d5366004612769565b60009182526004602090815260408084206001600160a01b0393909316845291905290205460ff1690565b61028161060e366004612552565b6119ac565b610666610621366004612552565b600a60205260009081526040902080546001909101546001600160a01b039182169181169074010000000000000000000000000000000000000000900462ffffff1683565b604080516001600160a01b03948516815293909216602084015262ffffff1690820152606001610265565b6102e3600081565b6102816106a7366004612552565b611a74565b61039c6106ba366004612750565b6001602052600090815260409020546001600160a01b031681565b6102e36106e3366004612717565b611b91565b6102816106f6366004612769565b611b9d565b610281610709366004612552565b611bc2565b61078c61071c366004612717565b60096020908152600092835260408084209091529082529020805460018201546002830154600384015460048501546005909501546001600160a01b039094169492939192909163ffffffff808216916401000000008104821691600160401b8204811691600160601b90041689565b604080516001600160a01b03909a168a5260208a0198909852968801959095526060870193909352608086019190915263ffffffff90811660a086015290811660c085015290811660e08401521661010082015261012001610265565b60006001600160e01b03198216637965db0b60e01b148061081a57506301ffc9a760e01b6001600160e01b03198316145b92915050565b61082933611454565b6108855760405162461bcd60e51b815260206004820152602260248201527f41636365737369626c653a2043616c6c6572206973206e6f7420616e2061646d60448201526134b760f11b60648201526084015b60405180910390fd5b6108af7fdf8b4c520ffe197c5343c6f5aec59570151ef9a492f2c624fd45ddde6135ec4282611672565b50565b600554839061010090046001600160a01b031633148061090f57506001600160a01b03818116600090815260066020526040902054161580159061090f57506001600160a01b038181166000908152600660205260409020541633145b6109815760405162461bcd60e51b815260206004820152602c60248201527f63616c6c6572206973206e6f742061207661756c7441646d696e206f7220507260448201527f6f6a6563744d616e616765720000000000000000000000000000000000000000606482015260840161087c565b43826080015163ffffffff16116109da5760405162461bcd60e51b815260206004820152601760248201527f666972737420636c61696d2074696d6520706173736564000000000000000000604482015260640161087c565b6020820151158015906109f05750604082015115155b8015610a05575060c082015163ffffffff1615155b610a515760405162461bcd60e51b815260206004820152600b60248201527f77726f6e672076616c7565000000000000000000000000000000000000000000604482015260640161087c565b600182604001511115610ac157816080015163ffffffff168260a0015163ffffffff1611610ac15760405162461bcd60e51b815260206004820152601b60248201527f77726f6e6720746865207365636f6e6420636c61696d2074696d650000000000604482015260640161087c565b8160600151826020015111610b185760405162461bcd60e51b815260206004820152601c60248201527f77726f6e672074686520666972737420636c61696d20616d6f756e7400000000604482015260640161087c565b6000610b31846000015185602001518660400151611736565b6001600160a01b0380871660009081526009602090815260408083208486168452825291829020825161012081018452815490941684526001810154918401829052600281015492840192909252600382015460608401526004820154608084015260059091015463ffffffff80821660a08501526401000000008204811660c0850152600160401b8204811660e0850152600160601b909104166101008301529192509015610c235760405162461bcd60e51b815260206004820152601360248201527f616c726561647920696e697469616c697a656400000000000000000000000000604482015260640161087c565b6020850151855186916001600160a01b0390811691161115610c5a576020808701516001600160a01b039081168352875116908201525b80600a6000856001600160a01b03166001600160a01b0316815260200190815260200160002060008201518160000160006101000a8154816001600160a01b0302191690836001600160a01b0316021790555060208201518160010160006101000a8154816001600160a01b0302191690836001600160a01b0316021790555060408201518160010160146101000a81548162ffffff021916908362ffffff160217905550905050600060405180610120016040528087600001516001600160a01b0316815260200187602001518152602001876040015181526020016000815260200187606001518152602001876080015163ffffffff1681526020018760a0015163ffffffff1681526020018760c0015163ffffffff168152602001600063ffffffff16815250905080600960008a6001600160a01b03166001600160a01b031681526020019081526020016000206000866001600160a01b03166001600160a01b0316815260200190815260200160002060008201518160000160006101000a8154816001600160a01b0302191690836001600160a01b031602179055506020820151816001015560408201518160020155606082015181600301556080820151816004015560a08201518160050160006101000a81548163ffffffff021916908363ffffffff16021790555060c08201518160050160046101000a81548163ffffffff021916908363ffffffff16021790555060e08201518160050160086101000a81548163ffffffff021916908363ffffffff16021790555061010082015181600501600c6101000a81548163ffffffff021916908363ffffffff160217905550905050610efc600560019054906101000a90046001600160a01b03163088602001518b6001600160a01b0316611cc7909392919063ffffffff16565b7f3e0f1f8a92a71cfd434170048e2567157a5a7c70b06b04ba1f05bc575e331424888888604051610fc3939291906000610160820190506001600160a01b03808616835280855116602084015280602086015116604084015262ffffff604086015116606084015280845116608084015250602083015160a0830152604083015160c0830152606083015160e0830152608083015163ffffffff8082166101008501528060a0860151166101208501528060c0860151166101408501525050949350505050565b60405180910390a15050505050505050565b816001600160a01b0381166110115760405162461bcd60e51b81526020600482015260026024820152612d1960f11b604482015260640161087c565b816001600160a01b03811661104d5760405162461bcd60e51b81526020600482015260026024820152612d1960f11b604482015260640161087c565b6001600160a01b038085166000908152600660205260409020548591161580159061109157506001600160a01b038181166000908152600660205260409020541633145b6110eb5760405162461bcd60e51b815260206004820152602560248201527f63616c6c6572206973206e6f742061207661756c7441646d696e204f66206c326044820152642a37b5b2b760d91b606482015260840161087c565b6001600160a01b038581166000908152600660205260409020548186169116036111405760405162461bcd60e51b815260040161087c9060208082526004908201526373616d6560e01b604082015260600190565b6001600160a01b0385811660008181526006602090815260409182902080546001600160a01b031916948916948517905581519283528201929092527fb00bb4c229aff6156cc8e2c767c571665e1927c09fe083ec055956a5a402619391015b60405180910390a15050505050565b816001600160a01b0381166111eb5760405162461bcd60e51b81526020600482015260026024820152612d1960f11b604482015260640161087c565b816001600160a01b0381166112275760405162461bcd60e51b81526020600482015260026024820152612d1960f11b604482015260640161087c565b6008546001600160a01b031661127f5760405162461bcd60e51b815260206004820152600e60248201527f7a65726f20726563697069656e74000000000000000000000000000000000000604482015260640161087c565b600061128b8585611deb565b9050806000036112dd5760405162461bcd60e51b815260206004820152601360248201527f6e6f20636c61696d61626c6520616d6f756e7400000000000000000000000000604482015260640161087c565b6040516370a0823160e01b81523060048201526001600160a01b038616906370a0823190602401602060405180830381865afa158015611321573d6000803e3d6000fd5b505050506040513d601f19601f82011682018060405250810190611345919061286a565b8111156113945760405162461bcd60e51b815260206004820152601460248201527f696e73756666696369656e742062616c616e6365000000000000000000000000604482015260640161087c565b6001600160a01b038086166000908152600960209081526040808320938816835292905290812060030180548392906113ce908490612899565b90915550506008546113ed906001600160a01b03878116911683611f58565b600854604080516001600160a01b038089168252808816602083015290921690820152606081018290527ffa057f6b08b5176e23c6ef9a28291857d66f15bbabda1c320ac8c2e4d5de1ff1906080016111a0565b600061144d8383612073565b9392505050565b6001600160a01b03811660009081527f2fb794d17134dfdec181ddbac1babb5ab1eb140204ef4d982f294e7fc8b69022602052604081205460ff1661081a565b6000828152600460205260409020600101546114af816121b4565b6114b983836121be565b505050565b816001600160a01b0381166114fa5760405162461bcd60e51b81526020600482015260026024820152612d1960f11b604482015260640161087c565b816001600160a01b0381166115365760405162461bcd60e51b81526020600482015260026024820152612d1960f11b604482015260640161087c565b60055461010090046001600160a01b031615801590611564575060055461010090046001600160a01b031633145b6115b05760405162461bcd60e51b815260206004820152601e60248201527f63616c6c6572206973206e6f74206c3250726f6a6563744d616e616765720000604482015260640161087c565b6001600160a01b038481166000908152600660205260409020548185169116036116055760405162461bcd60e51b815260040161087c9060208082526004908201526373616d6560e01b604082015260600190565b6001600160a01b0384811660008181526006602090815260409182902080546001600160a01b031916948816948517905581519283528201929092527fb00bb4c229aff6156cc8e2c767c571665e1927c09fe083ec055956a5a4026193910160405180910390a150505050565b6001600160a01b03811633146116f05760405162461bcd60e51b815260206004820152602f60248201527f416363657373436f6e74726f6c3a2063616e206f6e6c792072656e6f756e636560448201527f20726f6c657320666f722073656c660000000000000000000000000000000000606482015260840161087c565b6116fa8282612260565b5050565b60006001600160a01b0382161580159061144d5750506001600160a01b03918216600090815260066020526040902054821691161490565b600754604051630b4c774160e11b81526001600160a01b038581166004830152848116602483015262ffffff841660448301526000921690631698ee8290606401602060405180830381865afa158015611794573d6000803e3d6000fd5b505050506040513d601f19601f820116820180604052508101906117b891906128ac565b949350505050565b6117c933611454565b6118205760405162461bcd60e51b815260206004820152602260248201527f41636365737369626c653a2043616c6c6572206973206e6f7420616e2061646d60448201526134b760f11b606482015260840161087c565b6108af7fdf8b4c520ffe197c5343c6f5aec59570151ef9a492f2c624fd45ddde6135ec4282611494565b61185333611454565b6118aa5760405162461bcd60e51b815260206004820152602260248201527f41636365737369626c653a2043616c6c6572206973206e6f7420616e2061646d60448201526134b760f11b606482015260840161087c565b6001600160a01b0381166119005760405162461bcd60e51b815260206004820152601860248201527f41636365737369626c653a207a65726f20616464726573730000000000000000604482015260640161087c565b6001600160a01b03811633036119585760405162461bcd60e51b815260206004820152601660248201527f41636365737369626c653a2073616d652061646d696e00000000000000000000604482015260640161087c565b6119827fdf8b4c520ffe197c5343c6f5aec59570151ef9a492f2c624fd45ddde6135ec4282611494565b6108af7fdf8b4c520ffe197c5343c6f5aec59570151ef9a492f2c624fd45ddde6135ec4233611672565b6119b533611454565b611a0c5760405162461bcd60e51b815260206004820152602260248201527f41636365737369626c653a2043616c6c6572206973206e6f7420616e2061646d60448201526134b760f11b606482015260840161087c565b6008546001600160a01b03808316911603611a525760405162461bcd60e51b815260040161087c9060208082526004908201526373616d6560e01b604082015260600190565b600880546001600160a01b0319166001600160a01b0392909216919091179055565b806001600160a01b038116611ab05760405162461bcd60e51b81526020600482015260026024820152612d1960f11b604482015260640161087c565b611ab933611454565b611b105760405162461bcd60e51b815260206004820152602260248201527f41636365737369626c653a2043616c6c6572206973206e6f7420616e2061646d60448201526134b760f11b606482015260840161087c565b6005546001600160a01b038084166101009092041603611b5b5760405162461bcd60e51b815260040161087c9060208082526004908201526373616d6560e01b604082015260600190565b50600580546001600160a01b039092166101000274ffffffffffffffffffffffffffffffffffffffff0019909216919091179055565b600061144d8383611deb565b600082815260046020526040902060010154611bb8816121b4565b6114b98383612260565b806001600160a01b038116611bfe5760405162461bcd60e51b81526020600482015260026024820152612d1960f11b604482015260640161087c565b611c0733611454565b611c5e5760405162461bcd60e51b815260206004820152602260248201527f41636365737369626c653a2043616c6c6572206973206e6f7420616e2061646d60448201526134b760f11b606482015260840161087c565b6007546001600160a01b03808416911603611ca45760405162461bcd60e51b815260040161087c9060208082526004908201526373616d6560e01b604082015260600190565b50600780546001600160a01b0319166001600160a01b0392909216919091179055565b604080516001600160a01b0385811660248301528481166044830152606480830185905283518084039091018152608490920183526020820180516001600160e01b03166323b872dd60e01b1790529151600092839290881691611d2b91906128ed565b6000604051808303816000865af19150503d8060008114611d68576040519150601f19603f3d011682016040523d82523d6000602084013e611d6d565b606091505b5091509150818015611d97575080511580611d97575080806020019051810190611d979190612909565b611de35760405162461bcd60e51b815260206004820152601460248201527f5452414e534645525f46524f4d5f4641494c4544000000000000000000000000604482015260640161087c565b505050505050565b6001600160a01b038083166000908152600960209081526040808320858516845282528083208151610120810183528154909516855260018101549285019290925260028201549084015260038101546060840152600481015460808401526005015463ffffffff80821660a08501526401000000008204811660c0850152600160401b8204811660e0850152600160601b909104166101008301529081611e938585612073565b90508082610100015163ffffffff161015611f505780600103611ecb5781606001518260800151611ec4919061292b565b9250611f50565b8160400151811015611f39576060820151611ee760018361292b565b60018460400151611ef8919061292b565b84608001518560200151611f0c919061292b565b611f16919061293e565b611f209190612960565b8360800151611f2f9190612899565b611ec4919061292b565b81606001518260200151611f4d919061292b565b92505b505092915050565b604080516001600160a01b038481166024830152604480830185905283518084039091018152606490920183526020820180516001600160e01b031663a9059cbb60e01b1790529151600092839290871691611fb491906128ed565b6000604051808303816000865af19150503d8060008114611ff1576040519150601f19603f3d011682016040523d82523d6000602084013e611ff6565b606091505b50915091508180156120205750805115806120205750808060200190518101906120209190612909565b61206c5760405162461bcd60e51b815260206004820152600f60248201527f5452414e534645525f4641494c45440000000000000000000000000000000000604482015260640161087c565b5050505050565b6001600160a01b038083166000908152600960209081526040808320858516845282528083208151610120810183528154909516855260018101549285019290925260028201549084015260038101546060840152600481015460808401526005015463ffffffff80821660a085018190526401000000008304821660c0860152600160401b8304821660e0860152600160601b909204166101008401529091901580159061212c5750428160a0015163ffffffff1611155b801561214157508060c0015163ffffffff1642105b1561214f5760019150612199565b428160c0015163ffffffff1611612199578060e0015163ffffffff168160c0015163ffffffff1642612181919061292b565b61218b919061293e565b612196906002612899565b91505b80604001518211156121ad57806040015191505b5092915050565b6108af81336122e3565b60008281526004602090815260408083206001600160a01b038516845290915290205460ff166116fa5760008281526004602090815260408083206001600160a01b03851684529091529020805460ff1916600117905561221c3390565b6001600160a01b0316816001600160a01b0316837f2f8788117e7eff1d82e926ec794901d17c78024a50270940304540a733656f0d60405160405180910390a45050565b60008281526004602090815260408083206001600160a01b038516845290915290205460ff16156116fa5760008281526004602090815260408083206001600160a01b0385168085529252808320805460ff1916905551339285917ff6391f5c32d9c69d2a47ea670b442974b53935d1edc7fd64eb21e047a839171b9190a45050565b60008281526004602090815260408083206001600160a01b038516845290915290205460ff166116fa5761231681612358565b61232183602061236a565b604051602001612332929190612977565b60408051601f198184030181529082905262461bcd60e51b825261087c916004016129f8565b606061081a6001600160a01b03831660145b60606000612379836002612960565b612384906002612899565b67ffffffffffffffff81111561239c5761239c61256f565b6040519080825280601f01601f1916602001820160405280156123c6576020820181803683370190505b509050600360fc1b816000815181106123e1576123e1612a2b565b60200101906001600160f81b031916908160001a905350600f60fb1b8160018151811061241057612410612a2b565b60200101906001600160f81b031916908160001a9053506000612434846002612960565b61243f906001612899565b90505b60018111156124c4577f303132333435363738396162636465660000000000000000000000000000000085600f166010811061248057612480612a2b565b1a60f81b82828151811061249657612496612a2b565b60200101906001600160f81b031916908160001a90535060049490941c936124bd81612a41565b9050612442565b50831561144d5760405162461bcd60e51b815260206004820181905260248201527f537472696e67733a20686578206c656e67746820696e73756666696369656e74604482015260640161087c565b60006020828403121561252557600080fd5b81356001600160e01b03198116811461144d57600080fd5b6001600160a01b03811681146108af57600080fd5b60006020828403121561256457600080fd5b813561144d8161253d565b634e487b7160e01b600052604160045260246000fd5b6040516060810167ffffffffffffffff811182821017156125b657634e487b7160e01b600052604160045260246000fd5b60405290565b60405160e0810167ffffffffffffffff811182821017156125b657634e487b7160e01b600052604160045260246000fd5b803562ffffff8116811461260057600080fd5b919050565b803563ffffffff8116811461260057600080fd5b600080600083850361016081121561263057600080fd5b843561263b8161253d565b93506060601f198201121561264f57600080fd5b612657612585565b60208601356126658161253d565b815260408601356126758161253d565b6020820152612686606087016125ed565b6040820152925060e0607f198201121561269f57600080fd5b506126a86125bc565b60808501356126b68161253d565b815260a0850135602082015260c0850135604082015260e085013560608201526126e36101008601612605565b60808201526126f56101208601612605565b60a08201526127076101408601612605565b60c0820152809150509250925092565b6000806040838503121561272a57600080fd5b82356127358161253d565b915060208301356127458161253d565b809150509250929050565b60006020828403121561276257600080fd5b5035919050565b6000806040838503121561277c57600080fd5b8235915060208301356127458161253d565b6000610120820190506001600160a01b0383511682526020830151602083015260408301516040830152606083015160608301526080830151608083015263ffffffff60a08401511660a083015260c08301516127f360c084018263ffffffff169052565b5060e083015161280b60e084018263ffffffff169052565b506101008381015163ffffffff811684830152611f50565b60008060006060848603121561283857600080fd5b83356128438161253d565b925060208401356128538161253d565b9150612861604085016125ed565b90509250925092565b60006020828403121561287c57600080fd5b5051919050565b634e487b7160e01b600052601160045260246000fd5b8082018082111561081a5761081a612883565b6000602082840312156128be57600080fd5b815161144d8161253d565b60005b838110156128e45781810151838201526020016128cc565b50506000910152565b600082516128ff8184602087016128c9565b9190910192915050565b60006020828403121561291b57600080fd5b8151801515811461144d57600080fd5b8181038181111561081a5761081a612883565b60008261295b57634e487b7160e01b600052601260045260246000fd5b500490565b808202811582820484141761081a5761081a612883565b7f416363657373436f6e74726f6c3a206163636f756e74200000000000000000008152600083516129af8160178501602088016128c9565b7f206973206d697373696e6720726f6c652000000000000000000000000000000060179184019182015283516129ec8160288401602088016128c9565b01602801949350505050565b6020815260008251806020840152612a178160408501602087016128c9565b601f01601f19169190910160400192915050565b634e487b7160e01b600052603260045260246000fd5b600081612a5057612a50612883565b50600019019056fea164736f6c6343000812000a",
  "linkReferences": {},
  "deployedLinkReferences": {}
}