{
  "_format": "hh-sol-artifact-1",
  "contractName": "L1StosInL2",
  "sourceName": "contracts/L2/L1StosInL2.sol",
  "abi": [
    {
      "inputs": [
        {
          "internalType": "address",
          "name": "managerAddress",
          "type": "address"
        },
        {
          "internalType": "address",
          "name": "l2messanger_",
          "type": "address"
        }
      ],
      "stateMutability": "nonpayable",
      "type": "constructor"
    },
    {
      "anonymous": false,
      "inputs": [
        {
          "indexed": true,
          "internalType": "address",
          "name": "previousManager",
          "type": "address"
        },
        {
          "indexed": true,
          "internalType": "address",
          "name": "newManager",
          "type": "address"
        }
      ],
      "name": "ManagershipTransferred",
      "type": "event"
    },
    {
      "inputs": [],
      "name": "_manager",
      "outputs": [
        {
          "internalType": "address",
          "name": "",
          "type": "address"
        }
      ],
      "stateMutability": "view",
      "type": "function"
    },
    {
      "inputs": [
        {
          "internalType": "bytes",
          "name": "data",
          "type": "bytes"
        }
      ],
      "name": "decodeSyncPackets",
      "outputs": [
        {
          "components": [
            {
              "internalType": "uint256",
              "name": "lockId",
              "type": "uint256"
            },
            {
              "components": [
                {
                  "internalType": "int256",
                  "name": "slope",
                  "type": "int256"
                },
                {
                  "internalType": "int256",
                  "name": "bias",
                  "type": "int256"
                },
                {
                  "internalType": "uint32",
                  "name": "timestamp",
                  "type": "uint32"
                },
                {
                  "internalType": "uint32",
                  "name": "syncTime",
                  "type": "uint32"
                }
              ],
              "internalType": "struct LibLockId.SyncInfo",
              "name": "packet",
              "type": "tuple"
            }
          ],
          "internalType": "struct LibLockId.SyncPacket[]",
          "name": "packets",
          "type": "tuple[]"
        }
      ],
      "stateMutability": "pure",
      "type": "function"
    },
    {
      "inputs": [],
      "name": "l1Register",
      "outputs": [
        {
          "internalType": "address",
          "name": "",
          "type": "address"
        }
      ],
      "stateMutability": "view",
      "type": "function"
    },
    {
      "inputs": [],
      "name": "l2CrossDomainMessenger",
      "outputs": [
        {
          "internalType": "address",
          "name": "",
          "type": "address"
        }
      ],
      "stateMutability": "view",
      "type": "function"
    },
    {
      "inputs": [],
      "name": "lockIdNftForRegister",
      "outputs": [
        {
          "internalType": "address",
          "name": "",
          "type": "address"
        }
      ],
      "stateMutability": "view",
      "type": "function"
    },
    {
      "inputs": [
        {
          "internalType": "bytes[]",
          "name": "datas",
          "type": "bytes[]"
        }
      ],
      "name": "multiRegister",
      "outputs": [],
      "stateMutability": "nonpayable",
      "type": "function"
    },
    {
      "inputs": [
        {
          "internalType": "bytes",
          "name": "data",
          "type": "bytes"
        }
      ],
      "name": "register",
      "outputs": [],
      "stateMutability": "nonpayable",
      "type": "function"
    },
    {
      "inputs": [],
      "name": "renounceManagership",
      "outputs": [],
      "stateMutability": "nonpayable",
      "type": "function"
    },
    {
      "inputs": [
        {
          "internalType": "address",
          "name": "l1Register_",
          "type": "address"
        }
      ],
      "name": "setL1Register",
      "outputs": [],
      "stateMutability": "nonpayable",
      "type": "function"
    },
    {
      "inputs": [
        {
          "internalType": "address",
          "name": "lockIdNft_",
          "type": "address"
        }
      ],
      "name": "setLockIdNft",
      "outputs": [],
      "stateMutability": "nonpayable",
      "type": "function"
    },
    {
      "inputs": [
        {
          "internalType": "address",
          "name": "newManager",
          "type": "address"
        }
      ],
      "name": "transferManagership",
      "outputs": [],
      "stateMutability": "nonpayable",
      "type": "function"
    }
  ],
  "bytecode": "0x608060405234801561001057600080fd5b5060405161119538038061119583398101604081905261002f9161007c565b600080546001600160a01b039384166001600160a01b031991821617909155600280549290931691161790556100af565b80516001600160a01b038116811461007757600080fd5b919050565b6000806040838503121561008f57600080fd5b61009883610060565b91506100a660208401610060565b90509250929050565b6110d7806100be6000396000f3fe608060405234801561001057600080fd5b50600436106100c95760003560e01c806382fbdc9c11610081578063d75bf0ce1161005b578063d75bf0ce1461018b578063f0329f6b1461019e578063fbef005a146101b157600080fd5b806382fbdc9c14610152578063c8d2f27c14610165578063ccc399091461017857600080fd5b80632c570358116100b25780632c570358146100f65780636b765aa61461011f5780636c146d9b1461014a57600080fd5b806303a2948f146100ce5780632bd5a6a4146100e3575b600080fd5b6100e16100dc366004610e3c565b6101c4565b005b6100e16100f1366004610f17565b610329565b610109610104366004610f3b565b6103d9565b6040516101169190610feb565b60405180910390f35b600154610132906001600160a01b031681565b6040516001600160a01b039091168152602001610116565b6100e1610528565b6100e1610160366004610f3b565b6105ba565b6100e1610173366004610f17565b6107d5565b6100e1610186366004610f17565b610885565b600354610132906001600160a01b031681565b600054610132906001600160a01b031681565b600254610132906001600160a01b031681565b6002546001600160a01b031633148015610259575060035460025460408051636e296e4560e01b815290516001600160a01b039384169390921691636e296e45916004808201926020929091908290030181865afa15801561022a573d6000803e3d6000fd5b505050506040513d601f19601f8201168201806040525081019061024e9190610ffe565b6001600160a01b0316145b6102aa5760405162461bcd60e51b815260206004820152601e60248201527f6e6f74206f6e6c794d657373656e676572416e644c315265676973746572000060448201526064015b60405180910390fd5b80516000036102e55760405162461bcd60e51b81526020600482015260076024820152666e6f206461746160c81b60448201526064016102a1565b60005b8151811015610325576103138282815181106103065761030661101b565b60200260200101516105ba565b8061031d81611047565b9150506102e8565b5050565b6000546001600160a01b031633146103715760405162461bcd60e51b815260206004820152600b60248201526a3737ba1036b0b730b3b2b960a91b60448201526064016102a1565b6003546001600160a01b038083169116036103b75760405162461bcd60e51b81526004016102a19060208082526004908201526373616d6560e01b604082015260600190565b600380546001600160a01b0319166001600160a01b0392909216919091179055565b606060006068905060008184516103f09190611060565b90508067ffffffffffffffff81111561040b5761040b610d85565b60405190808252806020026020018201604052801561044457816020015b610431610d37565b8152602001906001900390816104295790505b50925060005b8181101561052057600061045f86838661097e565b90506040518060400160405280610480600084610ae190919063ffffffff16565b815260200160405180608001604052806104a4602086610ae190919063ffffffff16565b81526020016104b4856040610ae1565b81526020016104c4856060610ba7565b63ffffffff1681526020016104e3606486610ba790919063ffffffff16565b63ffffffff168152508152508583815181106105015761050161101b565b602002602001018190525050808061051890611047565b91505061044a565b505050919050565b6000546001600160a01b031633146105705760405162461bcd60e51b815260206004820152600b60248201526a3737ba1036b0b730b3b2b960a91b60448201526064016102a1565b600080546040516001600160a01b03909116907f697e4e68d3879b0dd3414a88905117bac8f0a54b0cd8e7779f909bf1a1cf5683908390a3600080546001600160a01b0319169055565b6002546001600160a01b03163314801561064f575060035460025460408051636e296e4560e01b815290516001600160a01b039384169390921691636e296e45916004808201926020929091908290030181865afa158015610620573d6000803e3d6000fd5b505050506040513d601f19601f820116820180604052508101906106449190610ffe565b6001600160a01b0316145b61069b5760405162461bcd60e51b815260206004820152601e60248201527f6e6f74206f6e6c794d657373656e676572416e644c315265676973746572000060448201526064016102a1565b607b8151116106ec5760405162461bcd60e51b815260206004820152601260248201527f77726f6e67206279746573206c656e677468000000000000000000000000000060448201526064016102a1565b60006106f88282610c67565b9050600061071961010460148086516107119190611082565b86919061097e565b9050805160000361076c5760405162461bcd60e51b815260206004820152600c60248201527f6e6f2073796e632064617461000000000000000000000000000000000000000060448201526064016102a1565b60015460405163743500ad60e01b81526001600160a01b039091169063743500ad9061079e9085908590600401611095565b600060405180830381600087803b1580156107b857600080fd5b505af11580156107cc573d6000803e3d6000fd5b50505050505050565b6000546001600160a01b0316331461081d5760405162461bcd60e51b815260206004820152600b60248201526a3737ba1036b0b730b3b2b960a91b60448201526064016102a1565b6001546001600160a01b038083169116036108635760405162461bcd60e51b81526004016102a19060208082526004908201526373616d6560e01b604082015260600190565b600180546001600160a01b0319166001600160a01b0392909216919091179055565b6000546001600160a01b031633146108cd5760405162461bcd60e51b815260206004820152600b60248201526a3737ba1036b0b730b3b2b960a91b60448201526064016102a1565b6001600160a01b0381166109235760405162461bcd60e51b815260206004820152601f60248201527f6e6577206d616e6167657220697320746865207a65726f20616464726573730060448201526064016102a1565b600080546040516001600160a01b03808516939216917f697e4e68d3879b0dd3414a88905117bac8f0a54b0cd8e7779f909bf1a1cf568391a3600080546001600160a01b0319166001600160a01b0392909216919091179055565b60608161098c81601f6110b7565b10156109cb5760405162461bcd60e51b815260206004820152600e60248201526d736c6963655f6f766572666c6f7760901b60448201526064016102a1565b826109d683826110b7565b1015610a155760405162461bcd60e51b815260206004820152600e60248201526d736c6963655f6f766572666c6f7760901b60448201526064016102a1565b610a1f82846110b7565b84511015610a6f5760405162461bcd60e51b815260206004820152601160248201527f736c6963655f6f75744f66426f756e647300000000000000000000000000000060448201526064016102a1565b606082158015610a8e5760405191506000825260208201604052610ad8565b6040519150601f8416801560200281840101858101878315602002848b0101015b81831015610ac7578051835260209283019201610aaf565b5050858452601f01601f1916604052505b50949350505050565b600081610aef8160206110b7565b1015610b3d5760405162461bcd60e51b815260206004820152601260248201527f746f55696e743235365f6f766572666c6f77000000000000000000000000000060448201526064016102a1565b610b488260206110b7565b83511015610b985760405162461bcd60e51b815260206004820152601560248201527f746f55696e743235365f6f75744f66426f756e6473000000000000000000000060448201526064016102a1565b50818101602001515b92915050565b600081610bb58160046110b7565b1015610c035760405162461bcd60e51b815260206004820152601160248201527f746f55696e7433325f6f766572666c6f7700000000000000000000000000000060448201526064016102a1565b610c0e8260046110b7565b83511015610c5e5760405162461bcd60e51b815260206004820152601460248201527f746f55696e7433325f6f75744f66426f756e647300000000000000000000000060448201526064016102a1565b50016004015190565b600081610c758160146110b7565b1015610cc35760405162461bcd60e51b815260206004820152601260248201527f746f416464726573735f6f766572666c6f77000000000000000000000000000060448201526064016102a1565b610cce8260146110b7565b83511015610d1e5760405162461bcd60e51b815260206004820152601560248201527f746f416464726573735f6f75744f66426f756e6473000000000000000000000060448201526064016102a1565b5001602001516c01000000000000000000000000900490565b604051806040016040528060008152602001610d8060405180608001604052806000815260200160008152602001600063ffffffff168152602001600063ffffffff1681525090565b905290565b634e487b7160e01b600052604160045260246000fd5b604051601f8201601f1916810167ffffffffffffffff81118282101715610dc457610dc4610d85565b604052919050565b600082601f830112610ddd57600080fd5b813567ffffffffffffffff811115610df757610df7610d85565b610e0a601f8201601f1916602001610d9b565b818152846020838601011115610e1f57600080fd5b816020850160208301376000918101602001919091529392505050565b60006020808385031215610e4f57600080fd5b823567ffffffffffffffff80821115610e6757600080fd5b818501915085601f830112610e7b57600080fd5b813581811115610e8d57610e8d610d85565b8060051b610e9c858201610d9b565b9182528381018501918581019089841115610eb657600080fd5b86860192505b83831015610ef257823585811115610ed45760008081fd5b610ee28b89838a0101610dcc565b8352509186019190860190610ebc565b9998505050505050505050565b6001600160a01b0381168114610f1457600080fd5b50565b600060208284031215610f2957600080fd5b8135610f3481610eff565b9392505050565b600060208284031215610f4d57600080fd5b813567ffffffffffffffff811115610f6457600080fd5b610f7084828501610dcc565b949350505050565b600081518084526020808501945080840160005b83811015610fe057815180518852830151805184890152808401516040808a019190915281015163ffffffff9081166060808b01919091529091015116608088015260a09096019590820190600101610f8c565b509495945050505050565b602081526000610f346020830184610f78565b60006020828403121561101057600080fd5b8151610f3481610eff565b634e487b7160e01b600052603260045260246000fd5b634e487b7160e01b600052601160045260246000fd5b60006001820161105957611059611031565b5060010190565b60008261107d57634e487b7160e01b600052601260045260246000fd5b500490565b81810381811115610ba157610ba1611031565b6001600160a01b0383168152604060208201526000610f706040830184610f78565b80820180821115610ba157610ba161103156fea164736f6c6343000812000a",
  "linkReferences": {},
  "deployedLinkReferences": {}
}