{
  "_format": "hh-sol-artifact-1",
  "contractName": "L2CustomVaultBase",
  "sourceName": "contracts/L2/vaults/L2CustomVaultBase.sol",
  "abi": [
    {
      "anonymous": false,
      "inputs": [
        {
          "indexed": true,
          "internalType": "bytes32",
          "name": "role",
          "type": "bytes32"
        },
        {
          "indexed": true,
          "internalType": "bytes32",
          "name": "previousAdminRole",
          "type": "bytes32"
        },
        {
          "indexed": true,
          "internalType": "bytes32",
          "name": "newAdminRole",
          "type": "bytes32"
        }
      ],
      "name": "RoleAdminChanged",
      "type": "event"
    },
    {
      "anonymous": false,
      "inputs": [
        {
          "indexed": true,
          "internalType": "bytes32",
          "name": "role",
          "type": "bytes32"
        },
        {
          "indexed": true,
          "internalType": "address",
          "name": "account",
          "type": "address"
        },
        {
          "indexed": true,
          "internalType": "address",
          "name": "sender",
          "type": "address"
        }
      ],
      "name": "RoleGranted",
      "type": "event"
    },
    {
      "anonymous": false,
      "inputs": [
        {
          "indexed": true,
          "internalType": "bytes32",
          "name": "role",
          "type": "bytes32"
        },
        {
          "indexed": true,
          "internalType": "address",
          "name": "account",
          "type": "address"
        },
        {
          "indexed": true,
          "internalType": "address",
          "name": "sender",
          "type": "address"
        }
      ],
      "name": "RoleRevoked",
      "type": "event"
    },
    {
      "anonymous": false,
      "inputs": [
        {
          "indexed": false,
          "internalType": "address",
          "name": "l2Token",
          "type": "address"
        },
        {
          "indexed": false,
          "internalType": "address",
          "name": "newAdmin",
          "type": "address"
        }
      ],
      "name": "SetVaultAdmin",
      "type": "event"
    },
    {
      "inputs": [],
      "name": "ADMIN_ROLE",
      "outputs": [
        {
          "internalType": "bytes32",
          "name": "",
          "type": "bytes32"
        }
      ],
      "stateMutability": "view",
      "type": "function"
    },
    {
      "inputs": [],
      "name": "DEFAULT_ADMIN_ROLE",
      "outputs": [
        {
          "internalType": "bytes32",
          "name": "",
          "type": "bytes32"
        }
      ],
      "stateMutability": "view",
      "type": "function"
    },
    {
      "inputs": [],
      "name": "POLICY_ROLE",
      "outputs": [
        {
          "internalType": "bytes32",
          "name": "",
          "type": "bytes32"
        }
      ],
      "stateMutability": "view",
      "type": "function"
    },
    {
      "inputs": [
        {
          "internalType": "address",
          "name": "account",
          "type": "address"
        }
      ],
      "name": "addAdmin",
      "outputs": [],
      "stateMutability": "nonpayable",
      "type": "function"
    },
    {
      "inputs": [
        {
          "internalType": "address",
          "name": "",
          "type": "address"
        }
      ],
      "name": "aliveImplementation",
      "outputs": [
        {
          "internalType": "bool",
          "name": "",
          "type": "bool"
        }
      ],
      "stateMutability": "view",
      "type": "function"
    },
    {
      "inputs": [
        {
          "internalType": "bytes32",
          "name": "role",
          "type": "bytes32"
        }
      ],
      "name": "getRoleAdmin",
      "outputs": [
        {
          "internalType": "bytes32",
          "name": "",
          "type": "bytes32"
        }
      ],
      "stateMutability": "view",
      "type": "function"
    },
    {
      "inputs": [
        {
          "internalType": "bytes32",
          "name": "role",
          "type": "bytes32"
        },
        {
          "internalType": "address",
          "name": "account",
          "type": "address"
        }
      ],
      "name": "grantRole",
      "outputs": [],
      "stateMutability": "nonpayable",
      "type": "function"
    },
    {
      "inputs": [
        {
          "internalType": "bytes32",
          "name": "role",
          "type": "bytes32"
        },
        {
          "internalType": "address",
          "name": "account",
          "type": "address"
        }
      ],
      "name": "hasRole",
      "outputs": [
        {
          "internalType": "bool",
          "name": "",
          "type": "bool"
        }
      ],
      "stateMutability": "view",
      "type": "function"
    },
    {
      "inputs": [
        {
          "internalType": "address",
          "name": "account",
          "type": "address"
        }
      ],
      "name": "isAdmin",
      "outputs": [
        {
          "internalType": "bool",
          "name": "",
          "type": "bool"
        }
      ],
      "stateMutability": "view",
      "type": "function"
    },
    {
      "inputs": [
        {
          "internalType": "address",
          "name": "l2Token",
          "type": "address"
        },
        {
          "internalType": "address",
          "name": "account",
          "type": "address"
        }
      ],
      "name": "isVaultAdmin",
      "outputs": [
        {
          "internalType": "bool",
          "name": "",
          "type": "bool"
        }
      ],
      "stateMutability": "view",
      "type": "function"
    },
    {
      "inputs": [],
      "name": "l2ProjectManager",
      "outputs": [
        {
          "internalType": "address",
          "name": "",
          "type": "address"
        }
      ],
      "stateMutability": "view",
      "type": "function"
    },
    {
      "inputs": [],
      "name": "pauseProxy",
      "outputs": [
        {
          "internalType": "bool",
          "name": "",
          "type": "bool"
        }
      ],
      "stateMutability": "view",
      "type": "function"
    },
    {
      "inputs": [
        {
          "internalType": "uint256",
          "name": "",
          "type": "uint256"
        }
      ],
      "name": "proxyImplementation",
      "outputs": [
        {
          "internalType": "address",
          "name": "",
          "type": "address"
        }
      ],
      "stateMutability": "view",
      "type": "function"
    },
    {
      "inputs": [
        {
          "internalType": "address",
          "name": "account",
          "type": "address"
        }
      ],
      "name": "removeAdmin",
      "outputs": [],
      "stateMutability": "nonpayable",
      "type": "function"
    },
    {
      "inputs": [
        {
          "internalType": "bytes32",
          "name": "role",
          "type": "bytes32"
        },
        {
          "internalType": "address",
          "name": "account",
          "type": "address"
        }
      ],
      "name": "renounceRole",
      "outputs": [],
      "stateMutability": "nonpayable",
      "type": "function"
    },
    {
      "inputs": [
        {
          "internalType": "bytes32",
          "name": "role",
          "type": "bytes32"
        },
        {
          "internalType": "address",
          "name": "account",
          "type": "address"
        }
      ],
      "name": "revokeRole",
      "outputs": [],
      "stateMutability": "nonpayable",
      "type": "function"
    },
    {
      "inputs": [
        {
          "internalType": "bytes4",
          "name": "",
          "type": "bytes4"
        }
      ],
      "name": "selectorImplementation",
      "outputs": [
        {
          "internalType": "address",
          "name": "",
          "type": "address"
        }
      ],
      "stateMutability": "view",
      "type": "function"
    },
    {
      "inputs": [
        {
          "internalType": "address",
          "name": "_l2ProjectManager",
          "type": "address"
        }
      ],
      "name": "setL2ProjectManager",
      "outputs": [],
      "stateMutability": "nonpayable",
      "type": "function"
    },
    {
      "inputs": [
        {
          "internalType": "address",
          "name": "l2Token",
          "type": "address"
        },
        {
          "internalType": "address",
          "name": "_newAdmin",
          "type": "address"
        }
      ],
      "name": "setVaultAdmin",
      "outputs": [],
      "stateMutability": "nonpayable",
      "type": "function"
    },
    {
      "inputs": [
        {
          "internalType": "bytes4",
          "name": "interfaceId",
          "type": "bytes4"
        }
      ],
      "name": "supportsInterface",
      "outputs": [
        {
          "internalType": "bool",
          "name": "",
          "type": "bool"
        }
      ],
      "stateMutability": "view",
      "type": "function"
    },
    {
      "inputs": [
        {
          "internalType": "address",
          "name": "newAdmin",
          "type": "address"
        }
      ],
      "name": "transferAdmin",
      "outputs": [],
      "stateMutability": "nonpayable",
      "type": "function"
    },
    {
      "inputs": [
        {
          "internalType": "address",
          "name": "",
          "type": "address"
        }
      ],
      "name": "vaultAdminOfToken",
      "outputs": [
        {
          "internalType": "address",
          "name": "",
          "type": "address"
        }
      ],
      "stateMutability": "view",
      "type": "function"
    }
  ],
  "bytecode": "0x60806040526005805460ff1916600117905534801561001d57600080fd5b5061108c8061002d6000396000f3fe608060405234801561001057600080fd5b50600436106101825760003560e01c8063550d01a3116100d85780637fc46ba81161008c578063a418234311610066578063a4182343146103bb578063b911135f146103ce578063d547741f146103f757600080fd5b80637fc46ba81461035157806391d148541461037a578063a217fddf146103b357600080fd5b806370480275116100bd578063704802751461030457806375829def1461031757806375b238fc1461032a57600080fd5b8063550d01a3146102d457806363a8fd89146102f757600080fd5b80632f2ff15d1161013a57806350d2a2761161011457806350d2a2761461026857806351e8152a146102a957806352351e85146102bc57600080fd5b80632f2ff15d1461022f57806335b9ac661461024257806336568abe1461025557600080fd5b8063229852461161016b57806322985246146101c4578063248a9ca3146101f957806324d7806c1461021c57600080fd5b806301ffc9a7146101875780631785f53c146101af575b600080fd5b61019a610195366004610e54565b61040a565b60405190151581526020015b60405180910390f35b6101c26101bd366004610e9a565b610441565b005b6101eb7ffb5864e8ff833c3cb2d2d08505e82ff02a43554c74a35d4f5a64e8526127831181565b6040519081526020016101a6565b6101eb610207366004610eb5565b60009081526004602052604090206001015490565b61019a61022a366004610e9a565b6104d3565b6101c261023d366004610ece565b610513565b6101c2610250366004610efa565b61053d565b6101c2610263366004610ece565b6106fe565b610291610276366004610e54565b6003602052600090815260409020546001600160a01b031681565b6040516001600160a01b0390911681526020016101a6565b61019a6102b7366004610efa565b61078a565b6005546102919061010090046001600160a01b031681565b61019a6102e2366004610e9a565b60026020526000908152604090205460ff1681565b60005461019a9060ff1681565b6101c2610312366004610e9a565b6107c7565b6101c2610325366004610e9a565b610851565b6101eb7fdf8b4c520ffe197c5343c6f5aec59570151ef9a492f2c624fd45ddde6135ec4281565b61029161035f366004610e9a565b6006602052600090815260409020546001600160a01b031681565b61019a610388366004610ece565b60009182526004602090815260408084206001600160a01b0393909316845291905290205460ff1690565b6101eb600081565b6101c26103c9366004610e9a565b6109b3565b6102916103dc366004610eb5565b6001602052600090815260409020546001600160a01b031681565b6101c2610405366004610ece565b610ad0565b60006001600160e01b03198216637965db0b60e01b148061043b57506301ffc9a760e01b6001600160e01b03198316145b92915050565b61044a336104d3565b6104a65760405162461bcd60e51b815260206004820152602260248201527f41636365737369626c653a2043616c6c6572206973206e6f7420616e2061646d60448201526134b760f11b60648201526084015b60405180910390fd5b6104d07fdf8b4c520ffe197c5343c6f5aec59570151ef9a492f2c624fd45ddde6135ec42826106fe565b50565b6001600160a01b03811660009081527f2fb794d17134dfdec181ddbac1babb5ab1eb140204ef4d982f294e7fc8b69022602052604081205460ff1661043b565b60008281526004602052604090206001015461052e81610af5565b6105388383610aff565b505050565b816001600160a01b0381166105795760405162461bcd60e51b81526020600482015260026024820152612d1960f11b604482015260640161049d565b816001600160a01b0381166105b55760405162461bcd60e51b81526020600482015260026024820152612d1960f11b604482015260640161049d565b60055461010090046001600160a01b0316158015906105e3575060055461010090046001600160a01b031633145b61062f5760405162461bcd60e51b815260206004820152601e60248201527f63616c6c6572206973206e6f74206c3250726f6a6563744d616e616765720000604482015260640161049d565b6001600160a01b038481166000908152600660205260409020548185169116036106845760405162461bcd60e51b815260040161049d9060208082526004908201526373616d6560e01b604082015260600190565b6001600160a01b03848116600081815260066020908152604091829020805473ffffffffffffffffffffffffffffffffffffffff1916948816948517905581519283528201929092527fb00bb4c229aff6156cc8e2c767c571665e1927c09fe083ec055956a5a4026193910160405180910390a150505050565b6001600160a01b038116331461077c5760405162461bcd60e51b815260206004820152602f60248201527f416363657373436f6e74726f6c3a2063616e206f6e6c792072656e6f756e636560448201527f20726f6c657320666f722073656c660000000000000000000000000000000000606482015260840161049d565b6107868282610ba1565b5050565b60006001600160a01b038216158015906107c057506001600160a01b038381166000908152600660205260409020548116908316145b9392505050565b6107d0336104d3565b6108275760405162461bcd60e51b815260206004820152602260248201527f41636365737369626c653a2043616c6c6572206973206e6f7420616e2061646d60448201526134b760f11b606482015260840161049d565b6104d07fdf8b4c520ffe197c5343c6f5aec59570151ef9a492f2c624fd45ddde6135ec4282610513565b61085a336104d3565b6108b15760405162461bcd60e51b815260206004820152602260248201527f41636365737369626c653a2043616c6c6572206973206e6f7420616e2061646d60448201526134b760f11b606482015260840161049d565b6001600160a01b0381166109075760405162461bcd60e51b815260206004820152601860248201527f41636365737369626c653a207a65726f20616464726573730000000000000000604482015260640161049d565b6001600160a01b038116330361095f5760405162461bcd60e51b815260206004820152601660248201527f41636365737369626c653a2073616d652061646d696e00000000000000000000604482015260640161049d565b6109897fdf8b4c520ffe197c5343c6f5aec59570151ef9a492f2c624fd45ddde6135ec4282610513565b6104d07fdf8b4c520ffe197c5343c6f5aec59570151ef9a492f2c624fd45ddde6135ec42336106fe565b806001600160a01b0381166109ef5760405162461bcd60e51b81526020600482015260026024820152612d1960f11b604482015260640161049d565b6109f8336104d3565b610a4f5760405162461bcd60e51b815260206004820152602260248201527f41636365737369626c653a2043616c6c6572206973206e6f7420616e2061646d60448201526134b760f11b606482015260840161049d565b6005546001600160a01b038084166101009092041603610a9a5760405162461bcd60e51b815260040161049d9060208082526004908201526373616d6560e01b604082015260600190565b50600580546001600160a01b039092166101000274ffffffffffffffffffffffffffffffffffffffff0019909216919091179055565b600082815260046020526040902060010154610aeb81610af5565b6105388383610ba1565b6104d08133610c24565b60008281526004602090815260408083206001600160a01b038516845290915290205460ff166107865760008281526004602090815260408083206001600160a01b03851684529091529020805460ff19166001179055610b5d3390565b6001600160a01b0316816001600160a01b0316837f2f8788117e7eff1d82e926ec794901d17c78024a50270940304540a733656f0d60405160405180910390a45050565b60008281526004602090815260408083206001600160a01b038516845290915290205460ff16156107865760008281526004602090815260408083206001600160a01b0385168085529252808320805460ff1916905551339285917ff6391f5c32d9c69d2a47ea670b442974b53935d1edc7fd64eb21e047a839171b9190a45050565b60008281526004602090815260408083206001600160a01b038516845290915290205460ff1661078657610c5781610c99565b610c62836020610cab565b604051602001610c73929190610f48565b60408051601f198184030181529082905262461bcd60e51b825261049d91600401610fc9565b606061043b6001600160a01b03831660145b60606000610cba836002611012565b610cc5906002611029565b67ffffffffffffffff811115610cdd57610cdd61103c565b6040519080825280601f01601f191660200182016040528015610d07576020820181803683370190505b509050600360fc1b81600081518110610d2257610d22611052565b60200101906001600160f81b031916908160001a905350600f60fb1b81600181518110610d5157610d51611052565b60200101906001600160f81b031916908160001a9053506000610d75846002611012565b610d80906001611029565b90505b6001811115610e05577f303132333435363738396162636465660000000000000000000000000000000085600f1660108110610dc157610dc1611052565b1a60f81b828281518110610dd757610dd7611052565b60200101906001600160f81b031916908160001a90535060049490941c93610dfe81611068565b9050610d83565b5083156107c05760405162461bcd60e51b815260206004820181905260248201527f537472696e67733a20686578206c656e67746820696e73756666696369656e74604482015260640161049d565b600060208284031215610e6657600080fd5b81356001600160e01b0319811681146107c057600080fd5b80356001600160a01b0381168114610e9557600080fd5b919050565b600060208284031215610eac57600080fd5b6107c082610e7e565b600060208284031215610ec757600080fd5b5035919050565b60008060408385031215610ee157600080fd5b82359150610ef160208401610e7e565b90509250929050565b60008060408385031215610f0d57600080fd5b610f1683610e7e565b9150610ef160208401610e7e565b60005b83811015610f3f578181015183820152602001610f27565b50506000910152565b7f416363657373436f6e74726f6c3a206163636f756e7420000000000000000000815260008351610f80816017850160208801610f24565b7f206973206d697373696e6720726f6c65200000000000000000000000000000006017918401918201528351610fbd816028840160208801610f24565b01602801949350505050565b6020815260008251806020840152610fe8816040850160208701610f24565b601f01601f19169190910160400192915050565b634e487b7160e01b600052601160045260246000fd5b808202811582820484141761043b5761043b610ffc565b8082018082111561043b5761043b610ffc565b634e487b7160e01b600052604160045260246000fd5b634e487b7160e01b600052603260045260246000fd5b60008161107757611077610ffc565b50600019019056fea164736f6c6343000812000a",
  "linkReferences": {},
  "deployedLinkReferences": {}
}