{
  "_format": "hh-sol-artifact-1",
  "contractName": "L2CustomVaultBase",
  "sourceName": "contracts/L2/vaults/L2CustomVaultBase.sol",
  "abi": [
    {
      "anonymous": false,
      "inputs": [
        {
          "indexed": false,
          "internalType": "address",
          "name": "l2Token",
          "type": "address"
        },
        {
          "indexed": false,
          "internalType": "address",
          "name": "newAdmin",
          "type": "address"
        },
        {
          "indexed": false,
          "internalType": "uint256",
          "name": "amount",
          "type": "uint256"
        }
      ],
      "name": "AllocatedTokenAndAdminInVault",
      "type": "event"
    },
    {
      "anonymous": false,
      "inputs": [
        {
          "indexed": false,
          "internalType": "address",
          "name": "l2Token",
          "type": "address"
        },
        {
          "indexed": false,
          "internalType": "address",
          "name": "to",
          "type": "address"
        },
        {
          "indexed": false,
          "internalType": "uint256",
          "name": "amount",
          "type": "uint256"
        }
      ],
      "name": "Claimed",
      "type": "event"
    },
    {
      "anonymous": false,
      "inputs": [
        {
          "indexed": true,
          "internalType": "bytes32",
          "name": "role",
          "type": "bytes32"
        },
        {
          "indexed": true,
          "internalType": "bytes32",
          "name": "previousAdminRole",
          "type": "bytes32"
        },
        {
          "indexed": true,
          "internalType": "bytes32",
          "name": "newAdminRole",
          "type": "bytes32"
        }
      ],
      "name": "RoleAdminChanged",
      "type": "event"
    },
    {
      "anonymous": false,
      "inputs": [
        {
          "indexed": true,
          "internalType": "bytes32",
          "name": "role",
          "type": "bytes32"
        },
        {
          "indexed": true,
          "internalType": "address",
          "name": "account",
          "type": "address"
        },
        {
          "indexed": true,
          "internalType": "address",
          "name": "sender",
          "type": "address"
        }
      ],
      "name": "RoleGranted",
      "type": "event"
    },
    {
      "anonymous": false,
      "inputs": [
        {
          "indexed": true,
          "internalType": "bytes32",
          "name": "role",
          "type": "bytes32"
        },
        {
          "indexed": true,
          "internalType": "address",
          "name": "account",
          "type": "address"
        },
        {
          "indexed": true,
          "internalType": "address",
          "name": "sender",
          "type": "address"
        }
      ],
      "name": "RoleRevoked",
      "type": "event"
    },
    {
      "anonymous": false,
      "inputs": [
        {
          "indexed": false,
          "internalType": "address",
          "name": "newInitializer",
          "type": "address"
        }
      ],
      "name": "SetInitializer",
      "type": "event"
    },
    {
      "anonymous": false,
      "inputs": [
        {
          "indexed": false,
          "internalType": "address",
          "name": "l2Token",
          "type": "address"
        },
        {
          "indexed": false,
          "internalType": "address",
          "name": "newAdmin",
          "type": "address"
        }
      ],
      "name": "SetVaultAdmin",
      "type": "event"
    },
    {
      "inputs": [],
      "name": "ADMIN_ROLE",
      "outputs": [
        {
          "internalType": "bytes32",
          "name": "",
          "type": "bytes32"
        }
      ],
      "stateMutability": "view",
      "type": "function"
    },
    {
      "inputs": [],
      "name": "DEFAULT_ADMIN_ROLE",
      "outputs": [
        {
          "internalType": "bytes32",
          "name": "",
          "type": "bytes32"
        }
      ],
      "stateMutability": "view",
      "type": "function"
    },
    {
      "inputs": [],
      "name": "POLICY_ROLE",
      "outputs": [
        {
          "internalType": "bytes32",
          "name": "",
          "type": "bytes32"
        }
      ],
      "stateMutability": "view",
      "type": "function"
    },
    {
      "inputs": [
        {
          "internalType": "address",
          "name": "account",
          "type": "address"
        }
      ],
      "name": "addAdmin",
      "outputs": [],
      "stateMutability": "nonpayable",
      "type": "function"
    },
    {
      "inputs": [
        {
          "internalType": "address",
          "name": "",
          "type": "address"
        }
      ],
      "name": "aliveImplementation",
      "outputs": [
        {
          "internalType": "bool",
          "name": "",
          "type": "bool"
        }
      ],
      "stateMutability": "view",
      "type": "function"
    },
    {
      "inputs": [
        {
          "internalType": "address",
          "name": "l2Token",
          "type": "address"
        },
        {
          "internalType": "address",
          "name": "_newAdmin",
          "type": "address"
        },
        {
          "internalType": "uint256",
          "name": "amount",
          "type": "uint256"
        }
      ],
      "name": "allocateTokenAndAdmin",
      "outputs": [],
      "stateMutability": "nonpayable",
      "type": "function"
    },
    {
      "inputs": [
        {
          "internalType": "bytes32",
          "name": "role",
          "type": "bytes32"
        }
      ],
      "name": "getRoleAdmin",
      "outputs": [
        {
          "internalType": "bytes32",
          "name": "",
          "type": "bytes32"
        }
      ],
      "stateMutability": "view",
      "type": "function"
    },
    {
      "inputs": [
        {
          "internalType": "bytes32",
          "name": "role",
          "type": "bytes32"
        },
        {
          "internalType": "address",
          "name": "account",
          "type": "address"
        }
      ],
      "name": "grantRole",
      "outputs": [],
      "stateMutability": "nonpayable",
      "type": "function"
    },
    {
      "inputs": [
        {
          "internalType": "bytes32",
          "name": "role",
          "type": "bytes32"
        },
        {
          "internalType": "address",
          "name": "account",
          "type": "address"
        }
      ],
      "name": "hasRole",
      "outputs": [
        {
          "internalType": "bool",
          "name": "",
          "type": "bool"
        }
      ],
      "stateMutability": "view",
      "type": "function"
    },
    {
      "inputs": [],
      "name": "initializer",
      "outputs": [
        {
          "internalType": "address",
          "name": "",
          "type": "address"
        }
      ],
      "stateMutability": "view",
      "type": "function"
    },
    {
      "inputs": [
        {
          "internalType": "address",
          "name": "account",
          "type": "address"
        }
      ],
      "name": "isAdmin",
      "outputs": [
        {
          "internalType": "bool",
          "name": "",
          "type": "bool"
        }
      ],
      "stateMutability": "view",
      "type": "function"
    },
    {
      "inputs": [
        {
          "internalType": "address",
          "name": "l2Token",
          "type": "address"
        },
        {
          "internalType": "address",
          "name": "account",
          "type": "address"
        }
      ],
      "name": "isVaultAdmin",
      "outputs": [
        {
          "internalType": "bool",
          "name": "",
          "type": "bool"
        }
      ],
      "stateMutability": "view",
      "type": "function"
    },
    {
      "inputs": [],
      "name": "l2ProjectManager",
      "outputs": [
        {
          "internalType": "address",
          "name": "",
          "type": "address"
        }
      ],
      "stateMutability": "view",
      "type": "function"
    },
    {
      "inputs": [],
      "name": "pauseProxy",
      "outputs": [
        {
          "internalType": "bool",
          "name": "",
          "type": "bool"
        }
      ],
      "stateMutability": "view",
      "type": "function"
    },
    {
      "inputs": [
        {
          "internalType": "uint256",
          "name": "",
          "type": "uint256"
        }
      ],
      "name": "proxyImplementation",
      "outputs": [
        {
          "internalType": "address",
          "name": "",
          "type": "address"
        }
      ],
      "stateMutability": "view",
      "type": "function"
    },
    {
      "inputs": [
        {
          "internalType": "address",
          "name": "account",
          "type": "address"
        }
      ],
      "name": "removeAdmin",
      "outputs": [],
      "stateMutability": "nonpayable",
      "type": "function"
    },
    {
      "inputs": [
        {
          "internalType": "bytes32",
          "name": "role",
          "type": "bytes32"
        },
        {
          "internalType": "address",
          "name": "account",
          "type": "address"
        }
      ],
      "name": "renounceRole",
      "outputs": [],
      "stateMutability": "nonpayable",
      "type": "function"
    },
    {
      "inputs": [
        {
          "internalType": "bytes32",
          "name": "role",
          "type": "bytes32"
        },
        {
          "internalType": "address",
          "name": "account",
          "type": "address"
        }
      ],
      "name": "revokeRole",
      "outputs": [],
      "stateMutability": "nonpayable",
      "type": "function"
    },
    {
      "inputs": [
        {
          "internalType": "bytes4",
          "name": "",
          "type": "bytes4"
        }
      ],
      "name": "selectorImplementation",
      "outputs": [
        {
          "internalType": "address",
          "name": "",
          "type": "address"
        }
      ],
      "stateMutability": "view",
      "type": "function"
    },
    {
      "inputs": [
        {
          "internalType": "address",
          "name": "_initializer",
          "type": "address"
        }
      ],
      "name": "setInitializer",
      "outputs": [],
      "stateMutability": "nonpayable",
      "type": "function"
    },
    {
      "inputs": [
        {
          "internalType": "address",
          "name": "_l2ProjectManager",
          "type": "address"
        }
      ],
      "name": "setL2ProjectManager",
      "outputs": [],
      "stateMutability": "nonpayable",
      "type": "function"
    },
    {
      "inputs": [
        {
          "internalType": "address",
          "name": "l2Token",
          "type": "address"
        },
        {
          "internalType": "address",
          "name": "_newAdmin",
          "type": "address"
        }
      ],
      "name": "setVaultAdmin",
      "outputs": [],
      "stateMutability": "nonpayable",
      "type": "function"
    },
    {
      "inputs": [
        {
          "internalType": "bytes4",
          "name": "interfaceId",
          "type": "bytes4"
        }
      ],
      "name": "supportsInterface",
      "outputs": [
        {
          "internalType": "bool",
          "name": "",
          "type": "bool"
        }
      ],
      "stateMutability": "view",
      "type": "function"
    },
    {
      "inputs": [
        {
          "internalType": "address",
          "name": "newAdmin",
          "type": "address"
        }
      ],
      "name": "transferAdmin",
      "outputs": [],
      "stateMutability": "nonpayable",
      "type": "function"
    },
    {
      "inputs": [
        {
          "internalType": "address",
          "name": "",
          "type": "address"
        }
      ],
      "name": "vaultAdminOfToken",
      "outputs": [
        {
          "internalType": "address",
          "name": "",
          "type": "address"
        }
      ],
      "stateMutability": "view",
      "type": "function"
    }
  ],
  "bytecode": "0x60806040526005805460ff1916600117905534801561001d57600080fd5b506116b28061002d6000396000f3fe608060405234801561001057600080fd5b50600436106101a35760003560e01c80635c24b074116100ee5780638d35b35c11610097578063a217fddf11610071578063a217fddf1461040d578063a418234314610415578063b911135f14610428578063d547741f1461045157600080fd5b80638d35b35c146103ae57806391d14854146103c15780639ce110d7146103fa57600080fd5b806375829def116100c857806375829def1461034b57806375b238fc1461035e5780637fc46ba81461038557600080fd5b80635c24b0741461031857806363a8fd891461032b578063704802751461033857600080fd5b806335b9ac661161015057806351e8152a1161012a57806351e8152a146102ca57806352351e85146102dd578063550d01a3146102f557600080fd5b806335b9ac661461026357806336568abe1461027657806350d2a2761461028957600080fd5b8063248a9ca311610181578063248a9ca31461021a57806324d7806c1461023d5780632f2ff15d1461025057600080fd5b806301ffc9a7146101a85780631785f53c146101d057806322985246146101e5575b600080fd5b6101bb6101b63660046113e7565b610464565b60405190151581526020015b60405180910390f35b6101e36101de36600461142d565b61049b565b005b61020c7ffb5864e8ff833c3cb2d2d08505e82ff02a43554c74a35d4f5a64e8526127831181565b6040519081526020016101c7565b61020c610228366004611448565b60009081526004602052604090206001015490565b6101bb61024b36600461142d565b61052d565b6101e361025e366004611461565b61056d565b6101e361027136600461148d565b610597565b6101e3610284366004611461565b61074b565b6102b26102973660046113e7565b6003602052600090815260409020546001600160a01b031681565b6040516001600160a01b0390911681526020016101c7565b6101bb6102d836600461148d565b6107d7565b6005546102b29061010090046001600160a01b031681565b6101bb61030336600461142d565b60026020526000908152604090205460ff1681565b6101e361032636600461142d565b610814565b6000546101bb9060ff1681565b6101e361034636600461142d565b61094b565b6101e361035936600461142d565b6109d5565b61020c7fdf8b4c520ffe197c5343c6f5aec59570151ef9a492f2c624fd45ddde6135ec4281565b6102b261039336600461142d565b6007602052600090815260409020546001600160a01b031681565b6101e36103bc3660046114b7565b610b37565b6101bb6103cf366004611461565b60009182526004602090815260408084206001600160a01b0393909316845291905290205460ff1690565b6006546102b2906001600160a01b031681565b61020c600081565b6101e361042336600461142d565b610e0d565b6102b2610436366004611448565b6001602052600090815260409020546001600160a01b031681565b6101e361045f366004611461565b610f2a565b60006001600160e01b03198216637965db0b60e01b148061049557506301ffc9a760e01b6001600160e01b03198316145b92915050565b6104a43361052d565b6105005760405162461bcd60e51b815260206004820152602260248201527f41636365737369626c653a2043616c6c6572206973206e6f7420616e2061646d60448201526134b760f11b60648201526084015b60405180910390fd5b61052a7fdf8b4c520ffe197c5343c6f5aec59570151ef9a492f2c624fd45ddde6135ec428261074b565b50565b6001600160a01b03811660009081527f2fb794d17134dfdec181ddbac1babb5ab1eb140204ef4d982f294e7fc8b69022602052604081205460ff16610495565b60008281526004602052604090206001015461058881610f4f565b6105928383610f59565b505050565b816001600160a01b0381166105d35760405162461bcd60e51b81526020600482015260026024820152612d1960f11b60448201526064016104f7565b816001600160a01b03811661060f5760405162461bcd60e51b81526020600482015260026024820152612d1960f11b60448201526064016104f7565b60055461010090046001600160a01b03161580159061063d575060055461010090046001600160a01b031633145b6106895760405162461bcd60e51b815260206004820152601e60248201527f63616c6c6572206973206e6f74206c3250726f6a6563744d616e61676572000060448201526064016104f7565b6001600160a01b038481166000908152600760205260409020548185169116036106de5760405162461bcd60e51b81526004016104f79060208082526004908201526373616d6560e01b604082015260600190565b6001600160a01b0384811660008181526007602090815260409182902080546001600160a01b031916948816948517905581519283528201929092527fb00bb4c229aff6156cc8e2c767c571665e1927c09fe083ec055956a5a4026193910160405180910390a150505050565b6001600160a01b03811633146107c95760405162461bcd60e51b815260206004820152602f60248201527f416363657373436f6e74726f6c3a2063616e206f6e6c792072656e6f756e636560448201527f20726f6c657320666f722073656c66000000000000000000000000000000000060648201526084016104f7565b6107d38282610ffb565b5050565b60006001600160a01b0382161580159061080d57506001600160a01b038381166000908152600760205260409020548116908316145b9392505050565b806001600160a01b0381166108505760405162461bcd60e51b81526020600482015260026024820152612d1960f11b60448201526064016104f7565b6108593361052d565b6108b05760405162461bcd60e51b815260206004820152602260248201527f41636365737369626c653a2043616c6c6572206973206e6f7420616e2061646d60448201526134b760f11b60648201526084016104f7565b6006546001600160a01b038084169116036108f65760405162461bcd60e51b81526004016104f79060208082526004908201526373616d6560e01b604082015260600190565b600680546001600160a01b0319166001600160a01b0384169081179091556040519081527f2a2bf2572e82958ab47f7049e07d49aab236a5f6d26b804b1ce51da119c6d9d09060200160405180910390a15050565b6109543361052d565b6109ab5760405162461bcd60e51b815260206004820152602260248201527f41636365737369626c653a2043616c6c6572206973206e6f7420616e2061646d60448201526134b760f11b60648201526084016104f7565b61052a7fdf8b4c520ffe197c5343c6f5aec59570151ef9a492f2c624fd45ddde6135ec428261056d565b6109de3361052d565b610a355760405162461bcd60e51b815260206004820152602260248201527f41636365737369626c653a2043616c6c6572206973206e6f7420616e2061646d60448201526134b760f11b60648201526084016104f7565b6001600160a01b038116610a8b5760405162461bcd60e51b815260206004820152601860248201527f41636365737369626c653a207a65726f2061646472657373000000000000000060448201526064016104f7565b6001600160a01b0381163303610ae35760405162461bcd60e51b815260206004820152601660248201527f41636365737369626c653a2073616d652061646d696e0000000000000000000060448201526064016104f7565b610b0d7fdf8b4c520ffe197c5343c6f5aec59570151ef9a492f2c624fd45ddde6135ec428261056d565b61052a7fdf8b4c520ffe197c5343c6f5aec59570151ef9a492f2c624fd45ddde6135ec423361074b565b60055461010090046001600160a01b031615801590610b65575060055461010090046001600160a01b031633145b610bb15760405162461bcd60e51b815260206004820152601e60248201527f63616c6c6572206973206e6f74206c3250726f6a6563744d616e61676572000060448201526064016104f7565b826001600160a01b038116610bed5760405162461bcd60e51b81526020600482015260026024820152612d1960f11b60448201526064016104f7565b826001600160a01b038116610c295760405162461bcd60e51b81526020600482015260026024820152612d1960f11b60448201526064016104f7565b8280600003610c5f5760405162461bcd60e51b81526020600482015260026024820152615a3160f01b60448201526064016104f7565b6001600160a01b03868116600090815260076020526040902054818716911603610cb85760405162461bcd60e51b815260206004820152600a60248201526939b0b6b29030b236b4b760b11b60448201526064016104f7565b6005546040516370a0823160e01b81526101009091046001600160a01b0390811660048301528716906370a0823190602401602060405180830381865afa158015610d07573d6000803e3d6000fd5b505050506040513d601f19601f82011682018060405250810190610d2b91906114f3565b841115610d7a5760405162461bcd60e51b815260206004820152601860248201527f62616c616e636520697320696e73756666696369656e742e000000000000000060448201526064016104f7565b6001600160a01b03868116600081815260076020526040902080546001600160a01b031916888416179055600554610dba9261010090910416308761107e565b604080516001600160a01b038089168252871660208201529081018590527fe1c1818f614984fce9c731fd04034b7c1b22bcc9f2469662dabb9657cb1ec8cf9060600160405180910390a1505050505050565b806001600160a01b038116610e495760405162461bcd60e51b81526020600482015260026024820152612d1960f11b60448201526064016104f7565b610e523361052d565b610ea95760405162461bcd60e51b815260206004820152602260248201527f41636365737369626c653a2043616c6c6572206973206e6f7420616e2061646d60448201526134b760f11b60648201526084016104f7565b6005546001600160a01b038084166101009092041603610ef45760405162461bcd60e51b81526004016104f79060208082526004908201526373616d6560e01b604082015260600190565b50600580546001600160a01b039092166101000274ffffffffffffffffffffffffffffffffffffffff0019909216919091179055565b600082815260046020526040902060010154610f4581610f4f565b6105928383610ffb565b61052a81336111b7565b60008281526004602090815260408083206001600160a01b038516845290915290205460ff166107d35760008281526004602090815260408083206001600160a01b03851684529091529020805460ff19166001179055610fb73390565b6001600160a01b0316816001600160a01b0316837f2f8788117e7eff1d82e926ec794901d17c78024a50270940304540a733656f0d60405160405180910390a45050565b60008281526004602090815260408083206001600160a01b038516845290915290205460ff16156107d35760008281526004602090815260408083206001600160a01b0385168085529252808320805460ff1916905551339285917ff6391f5c32d9c69d2a47ea670b442974b53935d1edc7fd64eb21e047a839171b9190a45050565b604080516001600160a01b0385811660248301528481166044830152606480830185905283518084039091018152608490920183526020820180517bffffffffffffffffffffffffffffffffffffffffffffffffffffffff166323b872dd60e01b17905291516000928392908816916110f79190611530565b6000604051808303816000865af19150503d8060008114611134576040519150601f19603f3d011682016040523d82523d6000602084013e611139565b606091505b5091509150818015611163575080511580611163575080806020019051810190611163919061154c565b6111af5760405162461bcd60e51b815260206004820152601460248201527f5452414e534645525f46524f4d5f4641494c454400000000000000000000000060448201526064016104f7565b505050505050565b60008281526004602090815260408083206001600160a01b038516845290915290205460ff166107d3576111ea8161122c565b6111f583602061123e565b60405160200161120692919061156e565b60408051601f198184030181529082905262461bcd60e51b82526104f7916004016115ef565b60606104956001600160a01b03831660145b6060600061124d836002611638565b61125890600261164f565b67ffffffffffffffff81111561127057611270611662565b6040519080825280601f01601f19166020018201604052801561129a576020820181803683370190505b509050600360fc1b816000815181106112b5576112b5611678565b60200101906001600160f81b031916908160001a905350600f60fb1b816001815181106112e4576112e4611678565b60200101906001600160f81b031916908160001a9053506000611308846002611638565b61131390600161164f565b90505b6001811115611398577f303132333435363738396162636465660000000000000000000000000000000085600f166010811061135457611354611678565b1a60f81b82828151811061136a5761136a611678565b60200101906001600160f81b031916908160001a90535060049490941c936113918161168e565b9050611316565b50831561080d5760405162461bcd60e51b815260206004820181905260248201527f537472696e67733a20686578206c656e67746820696e73756666696369656e7460448201526064016104f7565b6000602082840312156113f957600080fd5b81356001600160e01b03198116811461080d57600080fd5b80356001600160a01b038116811461142857600080fd5b919050565b60006020828403121561143f57600080fd5b61080d82611411565b60006020828403121561145a57600080fd5b5035919050565b6000806040838503121561147457600080fd5b8235915061148460208401611411565b90509250929050565b600080604083850312156114a057600080fd5b6114a983611411565b915061148460208401611411565b6000806000606084860312156114cc57600080fd5b6114d584611411565b92506114e360208501611411565b9150604084013590509250925092565b60006020828403121561150557600080fd5b5051919050565b60005b8381101561152757818101518382015260200161150f565b50506000910152565b6000825161154281846020870161150c565b9190910192915050565b60006020828403121561155e57600080fd5b8151801515811461080d57600080fd5b7f416363657373436f6e74726f6c3a206163636f756e74200000000000000000008152600083516115a681601785016020880161150c565b7f206973206d697373696e6720726f6c652000000000000000000000000000000060179184019182015283516115e381602884016020880161150c565b01602801949350505050565b602081526000825180602084015261160e81604085016020870161150c565b601f01601f19169190910160400192915050565b634e487b7160e01b600052601160045260246000fd5b808202811582820484141761049557610495611622565b8082018082111561049557610495611622565b634e487b7160e01b600052604160045260246000fd5b634e487b7160e01b600052603260045260246000fd5b60008161169d5761169d611622565b50600019019056fea164736f6c6343000812000a",
  "linkReferences": {},
  "deployedLinkReferences": {}
}