{
  "_format": "hh-sol-artifact-1",
  "contractName": "L2CustomVaultBase",
  "sourceName": "contracts/L2/vaults/L2CustomVaultBase.sol",
  "abi": [
    {
      "anonymous": false,
      "inputs": [
        {
          "indexed": true,
          "internalType": "bytes32",
          "name": "role",
          "type": "bytes32"
        },
        {
          "indexed": true,
          "internalType": "bytes32",
          "name": "previousAdminRole",
          "type": "bytes32"
        },
        {
          "indexed": true,
          "internalType": "bytes32",
          "name": "newAdminRole",
          "type": "bytes32"
        }
      ],
      "name": "RoleAdminChanged",
      "type": "event"
    },
    {
      "anonymous": false,
      "inputs": [
        {
          "indexed": true,
          "internalType": "bytes32",
          "name": "role",
          "type": "bytes32"
        },
        {
          "indexed": true,
          "internalType": "address",
          "name": "account",
          "type": "address"
        },
        {
          "indexed": true,
          "internalType": "address",
          "name": "sender",
          "type": "address"
        }
      ],
      "name": "RoleGranted",
      "type": "event"
    },
    {
      "anonymous": false,
      "inputs": [
        {
          "indexed": true,
          "internalType": "bytes32",
          "name": "role",
          "type": "bytes32"
        },
        {
          "indexed": true,
          "internalType": "address",
          "name": "account",
          "type": "address"
        },
        {
          "indexed": true,
          "internalType": "address",
          "name": "sender",
          "type": "address"
        }
      ],
      "name": "RoleRevoked",
      "type": "event"
    },
    {
      "anonymous": false,
      "inputs": [
        {
          "indexed": false,
          "internalType": "address",
          "name": "l2Token",
          "type": "address"
        },
        {
          "indexed": false,
          "internalType": "address",
          "name": "newAdmin",
          "type": "address"
        }
      ],
      "name": "SetVaultAdmin",
      "type": "event"
    },
    {
      "inputs": [],
      "name": "ADMIN_ROLE",
      "outputs": [
        {
          "internalType": "bytes32",
          "name": "",
          "type": "bytes32"
        }
      ],
      "stateMutability": "view",
      "type": "function"
    },
    {
      "inputs": [],
      "name": "DEFAULT_ADMIN_ROLE",
      "outputs": [
        {
          "internalType": "bytes32",
          "name": "",
          "type": "bytes32"
        }
      ],
      "stateMutability": "view",
      "type": "function"
    },
    {
      "inputs": [],
      "name": "POLICY_ROLE",
      "outputs": [
        {
          "internalType": "bytes32",
          "name": "",
          "type": "bytes32"
        }
      ],
      "stateMutability": "view",
      "type": "function"
    },
    {
      "inputs": [
        {
          "internalType": "address",
          "name": "account",
          "type": "address"
        }
      ],
      "name": "addAdmin",
      "outputs": [],
      "stateMutability": "nonpayable",
      "type": "function"
    },
    {
      "inputs": [
        {
          "internalType": "address",
          "name": "",
          "type": "address"
        }
      ],
      "name": "aliveImplementation",
      "outputs": [
        {
          "internalType": "bool",
          "name": "",
          "type": "bool"
        }
      ],
      "stateMutability": "view",
      "type": "function"
    },
    {
      "inputs": [
        {
          "internalType": "bytes32",
          "name": "role",
          "type": "bytes32"
        }
      ],
      "name": "getRoleAdmin",
      "outputs": [
        {
          "internalType": "bytes32",
          "name": "",
          "type": "bytes32"
        }
      ],
      "stateMutability": "view",
      "type": "function"
    },
    {
      "inputs": [
        {
          "internalType": "bytes32",
          "name": "role",
          "type": "bytes32"
        },
        {
          "internalType": "address",
          "name": "account",
          "type": "address"
        }
      ],
      "name": "grantRole",
      "outputs": [],
      "stateMutability": "nonpayable",
      "type": "function"
    },
    {
      "inputs": [
        {
          "internalType": "bytes32",
          "name": "role",
          "type": "bytes32"
        },
        {
          "internalType": "address",
          "name": "account",
          "type": "address"
        }
      ],
      "name": "hasRole",
      "outputs": [
        {
          "internalType": "bool",
          "name": "",
          "type": "bool"
        }
      ],
      "stateMutability": "view",
      "type": "function"
    },
    {
      "inputs": [
        {
          "internalType": "address",
          "name": "account",
          "type": "address"
        }
      ],
      "name": "isAdmin",
      "outputs": [
        {
          "internalType": "bool",
          "name": "",
          "type": "bool"
        }
      ],
      "stateMutability": "view",
      "type": "function"
    },
    {
      "inputs": [
        {
          "internalType": "address",
          "name": "l2Token",
          "type": "address"
        },
        {
          "internalType": "address",
          "name": "account",
          "type": "address"
        }
      ],
      "name": "isVaultAdmin",
      "outputs": [
        {
          "internalType": "bool",
          "name": "",
          "type": "bool"
        }
      ],
      "stateMutability": "view",
      "type": "function"
    },
    {
      "inputs": [],
      "name": "l2ProjectManager",
      "outputs": [
        {
          "internalType": "address",
          "name": "",
          "type": "address"
        }
      ],
      "stateMutability": "view",
      "type": "function"
    },
    {
      "inputs": [],
      "name": "pauseProxy",
      "outputs": [
        {
          "internalType": "bool",
          "name": "",
          "type": "bool"
        }
      ],
      "stateMutability": "view",
      "type": "function"
    },
    {
      "inputs": [
        {
          "internalType": "uint256",
          "name": "",
          "type": "uint256"
        }
      ],
      "name": "proxyImplementation",
      "outputs": [
        {
          "internalType": "address",
          "name": "",
          "type": "address"
        }
      ],
      "stateMutability": "view",
      "type": "function"
    },
    {
      "inputs": [
        {
          "internalType": "address",
          "name": "account",
          "type": "address"
        }
      ],
      "name": "removeAdmin",
      "outputs": [],
      "stateMutability": "nonpayable",
      "type": "function"
    },
    {
      "inputs": [
        {
          "internalType": "bytes32",
          "name": "role",
          "type": "bytes32"
        },
        {
          "internalType": "address",
          "name": "account",
          "type": "address"
        }
      ],
      "name": "renounceRole",
      "outputs": [],
      "stateMutability": "nonpayable",
      "type": "function"
    },
    {
      "inputs": [
        {
          "internalType": "bytes32",
          "name": "role",
          "type": "bytes32"
        },
        {
          "internalType": "address",
          "name": "account",
          "type": "address"
        }
      ],
      "name": "revokeRole",
      "outputs": [],
      "stateMutability": "nonpayable",
      "type": "function"
    },
    {
      "inputs": [
        {
          "internalType": "bytes4",
          "name": "",
          "type": "bytes4"
        }
      ],
      "name": "selectorImplementation",
      "outputs": [
        {
          "internalType": "address",
          "name": "",
          "type": "address"
        }
      ],
      "stateMutability": "view",
      "type": "function"
    },
    {
      "inputs": [
        {
          "internalType": "address",
          "name": "_l2ProjectManager",
          "type": "address"
        }
      ],
      "name": "setL2ProjectManager",
      "outputs": [],
      "stateMutability": "nonpayable",
      "type": "function"
    },
    {
      "inputs": [
        {
          "internalType": "address",
          "name": "l2Token",
          "type": "address"
        },
        {
          "internalType": "address",
          "name": "_newAdmin",
          "type": "address"
        }
      ],
      "name": "setVaultAdmin",
      "outputs": [],
      "stateMutability": "nonpayable",
      "type": "function"
    },
    {
      "inputs": [
        {
          "internalType": "bytes4",
          "name": "interfaceId",
          "type": "bytes4"
        }
      ],
      "name": "supportsInterface",
      "outputs": [
        {
          "internalType": "bool",
          "name": "",
          "type": "bool"
        }
      ],
      "stateMutability": "view",
      "type": "function"
    },
    {
      "inputs": [
        {
          "internalType": "address",
          "name": "newAdmin",
          "type": "address"
        }
      ],
      "name": "transferAdmin",
      "outputs": [],
      "stateMutability": "nonpayable",
      "type": "function"
    },
    {
      "inputs": [
        {
          "internalType": "address",
          "name": "l2Token",
          "type": "address"
        },
        {
          "internalType": "address",
          "name": "_newAdmin",
          "type": "address"
        }
      ],
      "name": "transferVaultAdmin",
      "outputs": [],
      "stateMutability": "nonpayable",
      "type": "function"
    },
    {
      "inputs": [
        {
          "internalType": "address",
          "name": "",
          "type": "address"
        }
      ],
      "name": "vaultAdminOfToken",
      "outputs": [
        {
          "internalType": "address",
          "name": "",
          "type": "address"
        }
      ],
      "stateMutability": "view",
      "type": "function"
    }
  ],
  "bytecode": "0x60806040526005805460ff1916600117905534801561001d57600080fd5b506112908061002d6000396000f3fe608060405234801561001057600080fd5b506004361061018d5760003560e01c806352351e85116100e35780637fc46ba81161008c578063a418234311610066578063a4182343146103d9578063b911135f146103ec578063d547741f1461041557600080fd5b80637fc46ba81461036f57806391d1485414610398578063a217fddf146103d157600080fd5b806370480275116100bd578063704802751461032257806375829def1461033557806375b238fc1461034857600080fd5b806352351e85146102da578063550d01a3146102f257806363a8fd891461031557600080fd5b806324d7806c1161014557806336568abe1161011f57806336568abe1461027357806350d2a2761461028657806351e8152a146102c757600080fd5b806324d7806c1461023a5780632f2ff15d1461024d57806335b9ac661461026057600080fd5b80631e8948c3116101765780631e8948c3146101cf57806322985246146101e2578063248a9ca31461021757600080fd5b806301ffc9a7146101925780631785f53c146101ba575b600080fd5b6101a56101a0366004611058565b610428565b60405190151581526020015b60405180910390f35b6101cd6101c836600461109e565b61045f565b005b6101cd6101dd3660046110b9565b6104f1565b6102097ffb5864e8ff833c3cb2d2d08505e82ff02a43554c74a35d4f5a64e8526127831181565b6040519081526020016101b1565b6102096102253660046110ec565b60009081526004602052604090206001015490565b6101a561024836600461109e565b6106d7565b6101cd61025b366004611105565b610717565b6101cd61026e3660046110b9565b610741565b6101cd610281366004611105565b610902565b6102af610294366004611058565b6003602052600090815260409020546001600160a01b031681565b6040516001600160a01b0390911681526020016101b1565b6101a56102d53660046110b9565b61098e565b6005546102af9061010090046001600160a01b031681565b6101a561030036600461109e565b60026020526000908152604090205460ff1681565b6000546101a59060ff1681565b6101cd61033036600461109e565b6109cb565b6101cd61034336600461109e565b610a55565b6102097fdf8b4c520ffe197c5343c6f5aec59570151ef9a492f2c624fd45ddde6135ec4281565b6102af61037d36600461109e565b6006602052600090815260409020546001600160a01b031681565b6101a56103a6366004611105565b60009182526004602090815260408084206001600160a01b0393909316845291905290205460ff1690565b610209600081565b6101cd6103e736600461109e565b610bb7565b6102af6103fa3660046110ec565b6001602052600090815260409020546001600160a01b031681565b6101cd610423366004611105565b610cd4565b60006001600160e01b03198216637965db0b60e01b148061045957506301ffc9a760e01b6001600160e01b03198316145b92915050565b610468336106d7565b6104c45760405162461bcd60e51b815260206004820152602260248201527f41636365737369626c653a2043616c6c6572206973206e6f7420616e2061646d60448201526134b760f11b60648201526084015b60405180910390fd5b6104ee7fdf8b4c520ffe197c5343c6f5aec59570151ef9a492f2c624fd45ddde6135ec4282610902565b50565b816001600160a01b03811661052d5760405162461bcd60e51b81526020600482015260026024820152612d1960f11b60448201526064016104bb565b816001600160a01b0381166105695760405162461bcd60e51b81526020600482015260026024820152612d1960f11b60448201526064016104bb565b6001600160a01b03808516600090815260066020526040902054859116158015906105ad57506001600160a01b038181166000908152600660205260409020541633145b6106075760405162461bcd60e51b815260206004820152602560248201527f63616c6c6572206973206e6f742061207661756c7441646d696e204f66206c326044820152642a37b5b2b760d91b60648201526084016104bb565b6001600160a01b0385811660009081526006602052604090205481861691160361065c5760405162461bcd60e51b81526004016104bb9060208082526004908201526373616d6560e01b604082015260600190565b6001600160a01b03858116600081815260066020908152604091829020805473ffffffffffffffffffffffffffffffffffffffff1916948916948517905581519283528201929092527fb00bb4c229aff6156cc8e2c767c571665e1927c09fe083ec055956a5a4026193910160405180910390a15050505050565b6001600160a01b03811660009081527f2fb794d17134dfdec181ddbac1babb5ab1eb140204ef4d982f294e7fc8b69022602052604081205460ff16610459565b60008281526004602052604090206001015461073281610cf9565b61073c8383610d03565b505050565b816001600160a01b03811661077d5760405162461bcd60e51b81526020600482015260026024820152612d1960f11b60448201526064016104bb565b816001600160a01b0381166107b95760405162461bcd60e51b81526020600482015260026024820152612d1960f11b60448201526064016104bb565b60055461010090046001600160a01b0316158015906107e7575060055461010090046001600160a01b031633145b6108335760405162461bcd60e51b815260206004820152601e60248201527f63616c6c6572206973206e6f74206c3250726f6a6563744d616e61676572000060448201526064016104bb565b6001600160a01b038481166000908152600660205260409020548185169116036108885760405162461bcd60e51b81526004016104bb9060208082526004908201526373616d6560e01b604082015260600190565b6001600160a01b03848116600081815260066020908152604091829020805473ffffffffffffffffffffffffffffffffffffffff1916948816948517905581519283528201929092527fb00bb4c229aff6156cc8e2c767c571665e1927c09fe083ec055956a5a4026193910160405180910390a150505050565b6001600160a01b03811633146109805760405162461bcd60e51b815260206004820152602f60248201527f416363657373436f6e74726f6c3a2063616e206f6e6c792072656e6f756e636560448201527f20726f6c657320666f722073656c66000000000000000000000000000000000060648201526084016104bb565b61098a8282610da5565b5050565b60006001600160a01b038216158015906109c457506001600160a01b038381166000908152600660205260409020548116908316145b9392505050565b6109d4336106d7565b610a2b5760405162461bcd60e51b815260206004820152602260248201527f41636365737369626c653a2043616c6c6572206973206e6f7420616e2061646d60448201526134b760f11b60648201526084016104bb565b6104ee7fdf8b4c520ffe197c5343c6f5aec59570151ef9a492f2c624fd45ddde6135ec4282610717565b610a5e336106d7565b610ab55760405162461bcd60e51b815260206004820152602260248201527f41636365737369626c653a2043616c6c6572206973206e6f7420616e2061646d60448201526134b760f11b60648201526084016104bb565b6001600160a01b038116610b0b5760405162461bcd60e51b815260206004820152601860248201527f41636365737369626c653a207a65726f2061646472657373000000000000000060448201526064016104bb565b6001600160a01b0381163303610b635760405162461bcd60e51b815260206004820152601660248201527f41636365737369626c653a2073616d652061646d696e0000000000000000000060448201526064016104bb565b610b8d7fdf8b4c520ffe197c5343c6f5aec59570151ef9a492f2c624fd45ddde6135ec4282610717565b6104ee7fdf8b4c520ffe197c5343c6f5aec59570151ef9a492f2c624fd45ddde6135ec4233610902565b806001600160a01b038116610bf35760405162461bcd60e51b81526020600482015260026024820152612d1960f11b60448201526064016104bb565b610bfc336106d7565b610c535760405162461bcd60e51b815260206004820152602260248201527f41636365737369626c653a2043616c6c6572206973206e6f7420616e2061646d60448201526134b760f11b60648201526084016104bb565b6005546001600160a01b038084166101009092041603610c9e5760405162461bcd60e51b81526004016104bb9060208082526004908201526373616d6560e01b604082015260600190565b50600580546001600160a01b039092166101000274ffffffffffffffffffffffffffffffffffffffff0019909216919091179055565b600082815260046020526040902060010154610cef81610cf9565b61073c8383610da5565b6104ee8133610e28565b60008281526004602090815260408083206001600160a01b038516845290915290205460ff1661098a5760008281526004602090815260408083206001600160a01b03851684529091529020805460ff19166001179055610d613390565b6001600160a01b0316816001600160a01b0316837f2f8788117e7eff1d82e926ec794901d17c78024a50270940304540a733656f0d60405160405180910390a45050565b60008281526004602090815260408083206001600160a01b038516845290915290205460ff161561098a5760008281526004602090815260408083206001600160a01b0385168085529252808320805460ff1916905551339285917ff6391f5c32d9c69d2a47ea670b442974b53935d1edc7fd64eb21e047a839171b9190a45050565b60008281526004602090815260408083206001600160a01b038516845290915290205460ff1661098a57610e5b81610e9d565b610e66836020610eaf565b604051602001610e7792919061114c565b60408051601f198184030181529082905262461bcd60e51b82526104bb916004016111cd565b60606104596001600160a01b03831660145b60606000610ebe836002611216565b610ec990600261122d565b67ffffffffffffffff811115610ee157610ee1611240565b6040519080825280601f01601f191660200182016040528015610f0b576020820181803683370190505b509050600360fc1b81600081518110610f2657610f26611256565b60200101906001600160f81b031916908160001a905350600f60fb1b81600181518110610f5557610f55611256565b60200101906001600160f81b031916908160001a9053506000610f79846002611216565b610f8490600161122d565b90505b6001811115611009577f303132333435363738396162636465660000000000000000000000000000000085600f1660108110610fc557610fc5611256565b1a60f81b828281518110610fdb57610fdb611256565b60200101906001600160f81b031916908160001a90535060049490941c936110028161126c565b9050610f87565b5083156109c45760405162461bcd60e51b815260206004820181905260248201527f537472696e67733a20686578206c656e67746820696e73756666696369656e7460448201526064016104bb565b60006020828403121561106a57600080fd5b81356001600160e01b0319811681146109c457600080fd5b80356001600160a01b038116811461109957600080fd5b919050565b6000602082840312156110b057600080fd5b6109c482611082565b600080604083850312156110cc57600080fd5b6110d583611082565b91506110e360208401611082565b90509250929050565b6000602082840312156110fe57600080fd5b5035919050565b6000806040838503121561111857600080fd5b823591506110e360208401611082565b60005b8381101561114357818101518382015260200161112b565b50506000910152565b7f416363657373436f6e74726f6c3a206163636f756e7420000000000000000000815260008351611184816017850160208801611128565b7f206973206d697373696e6720726f6c652000000000000000000000000000000060179184019182015283516111c1816028840160208801611128565b01602801949350505050565b60208152600082518060208401526111ec816040850160208701611128565b601f01601f19169190910160400192915050565b634e487b7160e01b600052601160045260246000fd5b808202811582820484141761045957610459611200565b8082018082111561045957610459611200565b634e487b7160e01b600052604160045260246000fd5b634e487b7160e01b600052603260045260246000fd5b60008161127b5761127b611200565b50600019019056fea164736f6c6343000812000a",
  "linkReferences": {},
  "deployedLinkReferences": {}
}