{
  "_format": "hh-sol-artifact-1",
  "contractName": "L2CustomVaultBase",
  "sourceName": "contracts/L2/vaults/L2CustomVaultBase.sol",
  "abi": [
    {
      "anonymous": false,
      "inputs": [
        {
          "indexed": true,
          "internalType": "bytes32",
          "name": "role",
          "type": "bytes32"
        },
        {
          "indexed": true,
          "internalType": "bytes32",
          "name": "previousAdminRole",
          "type": "bytes32"
        },
        {
          "indexed": true,
          "internalType": "bytes32",
          "name": "newAdminRole",
          "type": "bytes32"
        }
      ],
      "name": "RoleAdminChanged",
      "type": "event"
    },
    {
      "anonymous": false,
      "inputs": [
        {
          "indexed": true,
          "internalType": "bytes32",
          "name": "role",
          "type": "bytes32"
        },
        {
          "indexed": true,
          "internalType": "address",
          "name": "account",
          "type": "address"
        },
        {
          "indexed": true,
          "internalType": "address",
          "name": "sender",
          "type": "address"
        }
      ],
      "name": "RoleGranted",
      "type": "event"
    },
    {
      "anonymous": false,
      "inputs": [
        {
          "indexed": true,
          "internalType": "bytes32",
          "name": "role",
          "type": "bytes32"
        },
        {
          "indexed": true,
          "internalType": "address",
          "name": "account",
          "type": "address"
        },
        {
          "indexed": true,
          "internalType": "address",
          "name": "sender",
          "type": "address"
        }
      ],
      "name": "RoleRevoked",
      "type": "event"
    },
    {
      "anonymous": false,
      "inputs": [
        {
          "indexed": false,
          "internalType": "address",
          "name": "newInitializer",
          "type": "address"
        }
      ],
      "name": "SetInitializer",
      "type": "event"
    },
    {
      "anonymous": false,
      "inputs": [
        {
          "indexed": false,
          "internalType": "address",
          "name": "l2Token",
          "type": "address"
        },
        {
          "indexed": false,
          "internalType": "address",
          "name": "newAdmin",
          "type": "address"
        }
      ],
      "name": "SetVaultAdmin",
      "type": "event"
    },
    {
      "inputs": [],
      "name": "ADMIN_ROLE",
      "outputs": [
        {
          "internalType": "bytes32",
          "name": "",
          "type": "bytes32"
        }
      ],
      "stateMutability": "view",
      "type": "function"
    },
    {
      "inputs": [],
      "name": "DEFAULT_ADMIN_ROLE",
      "outputs": [
        {
          "internalType": "bytes32",
          "name": "",
          "type": "bytes32"
        }
      ],
      "stateMutability": "view",
      "type": "function"
    },
    {
      "inputs": [],
      "name": "POLICY_ROLE",
      "outputs": [
        {
          "internalType": "bytes32",
          "name": "",
          "type": "bytes32"
        }
      ],
      "stateMutability": "view",
      "type": "function"
    },
    {
      "inputs": [
        {
          "internalType": "address",
          "name": "account",
          "type": "address"
        }
      ],
      "name": "addAdmin",
      "outputs": [],
      "stateMutability": "nonpayable",
      "type": "function"
    },
    {
      "inputs": [
        {
          "internalType": "address",
          "name": "",
          "type": "address"
        }
      ],
      "name": "aliveImplementation",
      "outputs": [
        {
          "internalType": "bool",
          "name": "",
          "type": "bool"
        }
      ],
      "stateMutability": "view",
      "type": "function"
    },
    {
      "inputs": [
        {
          "internalType": "bytes32",
          "name": "role",
          "type": "bytes32"
        }
      ],
      "name": "getRoleAdmin",
      "outputs": [
        {
          "internalType": "bytes32",
          "name": "",
          "type": "bytes32"
        }
      ],
      "stateMutability": "view",
      "type": "function"
    },
    {
      "inputs": [
        {
          "internalType": "bytes32",
          "name": "role",
          "type": "bytes32"
        },
        {
          "internalType": "address",
          "name": "account",
          "type": "address"
        }
      ],
      "name": "grantRole",
      "outputs": [],
      "stateMutability": "nonpayable",
      "type": "function"
    },
    {
      "inputs": [
        {
          "internalType": "bytes32",
          "name": "role",
          "type": "bytes32"
        },
        {
          "internalType": "address",
          "name": "account",
          "type": "address"
        }
      ],
      "name": "hasRole",
      "outputs": [
        {
          "internalType": "bool",
          "name": "",
          "type": "bool"
        }
      ],
      "stateMutability": "view",
      "type": "function"
    },
    {
      "inputs": [],
      "name": "initializer",
      "outputs": [
        {
          "internalType": "address",
          "name": "",
          "type": "address"
        }
      ],
      "stateMutability": "view",
      "type": "function"
    },
    {
      "inputs": [
        {
          "internalType": "address",
          "name": "account",
          "type": "address"
        }
      ],
      "name": "isAdmin",
      "outputs": [
        {
          "internalType": "bool",
          "name": "",
          "type": "bool"
        }
      ],
      "stateMutability": "view",
      "type": "function"
    },
    {
      "inputs": [
        {
          "internalType": "address",
          "name": "l2Token",
          "type": "address"
        },
        {
          "internalType": "address",
          "name": "account",
          "type": "address"
        }
      ],
      "name": "isVaultAdmin",
      "outputs": [
        {
          "internalType": "bool",
          "name": "",
          "type": "bool"
        }
      ],
      "stateMutability": "view",
      "type": "function"
    },
    {
      "inputs": [],
      "name": "l2ProjectManager",
      "outputs": [
        {
          "internalType": "address",
          "name": "",
          "type": "address"
        }
      ],
      "stateMutability": "view",
      "type": "function"
    },
    {
      "inputs": [],
      "name": "pauseProxy",
      "outputs": [
        {
          "internalType": "bool",
          "name": "",
          "type": "bool"
        }
      ],
      "stateMutability": "view",
      "type": "function"
    },
    {
      "inputs": [
        {
          "internalType": "uint256",
          "name": "",
          "type": "uint256"
        }
      ],
      "name": "proxyImplementation",
      "outputs": [
        {
          "internalType": "address",
          "name": "",
          "type": "address"
        }
      ],
      "stateMutability": "view",
      "type": "function"
    },
    {
      "inputs": [
        {
          "internalType": "address",
          "name": "account",
          "type": "address"
        }
      ],
      "name": "removeAdmin",
      "outputs": [],
      "stateMutability": "nonpayable",
      "type": "function"
    },
    {
      "inputs": [
        {
          "internalType": "bytes32",
          "name": "role",
          "type": "bytes32"
        },
        {
          "internalType": "address",
          "name": "account",
          "type": "address"
        }
      ],
      "name": "renounceRole",
      "outputs": [],
      "stateMutability": "nonpayable",
      "type": "function"
    },
    {
      "inputs": [
        {
          "internalType": "bytes32",
          "name": "role",
          "type": "bytes32"
        },
        {
          "internalType": "address",
          "name": "account",
          "type": "address"
        }
      ],
      "name": "revokeRole",
      "outputs": [],
      "stateMutability": "nonpayable",
      "type": "function"
    },
    {
      "inputs": [
        {
          "internalType": "bytes4",
          "name": "",
          "type": "bytes4"
        }
      ],
      "name": "selectorImplementation",
      "outputs": [
        {
          "internalType": "address",
          "name": "",
          "type": "address"
        }
      ],
      "stateMutability": "view",
      "type": "function"
    },
    {
      "inputs": [
        {
          "internalType": "address",
          "name": "_initializer",
          "type": "address"
        }
      ],
      "name": "setInitializer",
      "outputs": [],
      "stateMutability": "nonpayable",
      "type": "function"
    },
    {
      "inputs": [
        {
          "internalType": "address",
          "name": "_l2ProjectManager",
          "type": "address"
        }
      ],
      "name": "setL2ProjectManager",
      "outputs": [],
      "stateMutability": "nonpayable",
      "type": "function"
    },
    {
      "inputs": [
        {
          "internalType": "address",
          "name": "l2Token",
          "type": "address"
        },
        {
          "internalType": "address",
          "name": "_newAdmin",
          "type": "address"
        }
      ],
      "name": "setVaultAdmin",
      "outputs": [],
      "stateMutability": "nonpayable",
      "type": "function"
    },
    {
      "inputs": [
        {
          "internalType": "bytes4",
          "name": "interfaceId",
          "type": "bytes4"
        }
      ],
      "name": "supportsInterface",
      "outputs": [
        {
          "internalType": "bool",
          "name": "",
          "type": "bool"
        }
      ],
      "stateMutability": "view",
      "type": "function"
    },
    {
      "inputs": [
        {
          "internalType": "address",
          "name": "newAdmin",
          "type": "address"
        }
      ],
      "name": "transferAdmin",
      "outputs": [],
      "stateMutability": "nonpayable",
      "type": "function"
    },
    {
      "inputs": [
        {
          "internalType": "address",
          "name": "",
          "type": "address"
        }
      ],
      "name": "vaultAdminOfToken",
      "outputs": [
        {
          "internalType": "address",
          "name": "",
          "type": "address"
        }
      ],
      "stateMutability": "view",
      "type": "function"
    }
  ],
  "bytecode": "0x60806040526005805460ff1916600117905534801561001d57600080fd5b5061131d8061002d6000396000f3fe608060405234801561001057600080fd5b50600436106101985760003560e01c80635c24b074116100e357806391d148541161008c578063a418234311610066578063a4182343146103f7578063b911135f1461040a578063d547741f1461043357600080fd5b806391d14854146103a35780639ce110d7146103dc578063a217fddf146103ef57600080fd5b806375829def116100bd57806375829def1461034057806375b238fc146103535780637fc46ba81461037a57600080fd5b80635c24b0741461030d57806363a8fd8914610320578063704802751461032d57600080fd5b806335b9ac661161014557806351e8152a1161011f57806351e8152a146102bf57806352351e85146102d2578063550d01a3146102ea57600080fd5b806335b9ac661461025857806336568abe1461026b57806350d2a2761461027e57600080fd5b8063248a9ca311610176578063248a9ca31461020f57806324d7806c146102325780632f2ff15d1461024557600080fd5b806301ffc9a71461019d5780631785f53c146101c557806322985246146101da575b600080fd5b6101b06101ab3660046110a6565b610446565b60405190151581526020015b60405180910390f35b6101d86101d33660046110ec565b61047d565b005b6102017ffb5864e8ff833c3cb2d2d08505e82ff02a43554c74a35d4f5a64e8526127831181565b6040519081526020016101bc565b61020161021d366004611107565b60009081526004602052604090206001015490565b6101b06102403660046110ec565b61050f565b6101d8610253366004611120565b61054f565b6101d861026636600461114c565b610579565b6101d8610279366004611120565b61078f565b6102a761028c3660046110a6565b6003602052600090815260409020546001600160a01b031681565b6040516001600160a01b0390911681526020016101bc565b6101b06102cd36600461114c565b61081b565b6005546102a79061010090046001600160a01b031681565b6101b06102f83660046110ec565b60026020526000908152604090205460ff1681565b6101d861031b3660046110ec565b610858565b6000546101b09060ff1681565b6101d861033b3660046110ec565b61099c565b6101d861034e3660046110ec565b610a26565b6102017fdf8b4c520ffe197c5343c6f5aec59570151ef9a492f2c624fd45ddde6135ec4281565b6102a76103883660046110ec565b6007602052600090815260409020546001600160a01b031681565b6101b06103b1366004611120565b60009182526004602090815260408084206001600160a01b0393909316845291905290205460ff1690565b6006546102a7906001600160a01b031681565b610201600081565b6101d86104053660046110ec565b610b88565b6102a7610418366004611107565b6001602052600090815260409020546001600160a01b031681565b6101d8610441366004611120565b610ca5565b60006001600160e01b03198216637965db0b60e01b148061047757506301ffc9a760e01b6001600160e01b03198316145b92915050565b6104863361050f565b6104e25760405162461bcd60e51b815260206004820152602260248201527f41636365737369626c653a2043616c6c6572206973206e6f7420616e2061646d60448201526134b760f11b60648201526084015b60405180910390fd5b61050c7fdf8b4c520ffe197c5343c6f5aec59570151ef9a492f2c624fd45ddde6135ec428261078f565b50565b6001600160a01b03811660009081527f2fb794d17134dfdec181ddbac1babb5ab1eb140204ef4d982f294e7fc8b69022602052604081205460ff16610477565b60008281526004602052604090206001015461056a81610cca565b6105748383610cd4565b505050565b816001600160a01b0381166105b55760405162461bcd60e51b81526020600482015260026024820152612d1960f11b60448201526064016104d9565b816001600160a01b0381166105f15760405162461bcd60e51b81526020600482015260026024820152612d1960f11b60448201526064016104d9565b6106466040518060400160405280601a81526020017f6f6e6c794c3250726f6a6563744d616e6167657220257320257300000000000081525033600560019054906101000a90046001600160a01b0316610d76565b60055461010090046001600160a01b031615801590610674575060055461010090046001600160a01b031633145b6106c05760405162461bcd60e51b815260206004820152601e60248201527f63616c6c6572206973206e6f74206c3250726f6a6563744d616e61676572000060448201526064016104d9565b6001600160a01b038481166000908152600760205260409020548185169116036107155760405162461bcd60e51b81526004016104d99060208082526004908201526373616d6560e01b604082015260600190565b6001600160a01b03848116600081815260076020908152604091829020805473ffffffffffffffffffffffffffffffffffffffff1916948816948517905581519283528201929092527fb00bb4c229aff6156cc8e2c767c571665e1927c09fe083ec055956a5a4026193910160405180910390a150505050565b6001600160a01b038116331461080d5760405162461bcd60e51b815260206004820152602f60248201527f416363657373436f6e74726f6c3a2063616e206f6e6c792072656e6f756e636560448201527f20726f6c657320666f722073656c66000000000000000000000000000000000060648201526084016104d9565b6108178282610dd2565b5050565b60006001600160a01b0382161580159061085157506001600160a01b038381166000908152600760205260409020548116908316145b9392505050565b806001600160a01b0381166108945760405162461bcd60e51b81526020600482015260026024820152612d1960f11b60448201526064016104d9565b61089d3361050f565b6108f45760405162461bcd60e51b815260206004820152602260248201527f41636365737369626c653a2043616c6c6572206973206e6f7420616e2061646d60448201526134b760f11b60648201526084016104d9565b6006546001600160a01b0380841691160361093a5760405162461bcd60e51b81526004016104d99060208082526004908201526373616d6560e01b604082015260600190565b6006805473ffffffffffffffffffffffffffffffffffffffff19166001600160a01b0384169081179091556040519081527f2a2bf2572e82958ab47f7049e07d49aab236a5f6d26b804b1ce51da119c6d9d09060200160405180910390a15050565b6109a53361050f565b6109fc5760405162461bcd60e51b815260206004820152602260248201527f41636365737369626c653a2043616c6c6572206973206e6f7420616e2061646d60448201526134b760f11b60648201526084016104d9565b61050c7fdf8b4c520ffe197c5343c6f5aec59570151ef9a492f2c624fd45ddde6135ec428261054f565b610a2f3361050f565b610a865760405162461bcd60e51b815260206004820152602260248201527f41636365737369626c653a2043616c6c6572206973206e6f7420616e2061646d60448201526134b760f11b60648201526084016104d9565b6001600160a01b038116610adc5760405162461bcd60e51b815260206004820152601860248201527f41636365737369626c653a207a65726f2061646472657373000000000000000060448201526064016104d9565b6001600160a01b0381163303610b345760405162461bcd60e51b815260206004820152601660248201527f41636365737369626c653a2073616d652061646d696e0000000000000000000060448201526064016104d9565b610b5e7fdf8b4c520ffe197c5343c6f5aec59570151ef9a492f2c624fd45ddde6135ec428261054f565b61050c7fdf8b4c520ffe197c5343c6f5aec59570151ef9a492f2c624fd45ddde6135ec423361078f565b806001600160a01b038116610bc45760405162461bcd60e51b81526020600482015260026024820152612d1960f11b60448201526064016104d9565b610bcd3361050f565b610c245760405162461bcd60e51b815260206004820152602260248201527f41636365737369626c653a2043616c6c6572206973206e6f7420616e2061646d60448201526134b760f11b60648201526084016104d9565b6005546001600160a01b038084166101009092041603610c6f5760405162461bcd60e51b81526004016104d99060208082526004908201526373616d6560e01b604082015260600190565b50600580546001600160a01b039092166101000274ffffffffffffffffffffffffffffffffffffffff0019909216919091179055565b600082815260046020526040902060010154610cc081610cca565b6105748383610dd2565b61050c8133610e55565b60008281526004602090815260408083206001600160a01b038516845290915290205460ff166108175760008281526004602090815260408083206001600160a01b03851684529091529020805460ff19166001179055610d323390565b6001600160a01b0316816001600160a01b0316837f2f8788117e7eff1d82e926ec794901d17c78024a50270940304540a733656f0d60405160405180910390a45050565b610574838383604051602401610d8e939291906111c6565b60408051601f198184030181529190526020810180517bffffffffffffffffffffffffffffffffffffffffffffffffffffffff166307e763af60e51b179052610eca565b60008281526004602090815260408083206001600160a01b038516845290915290205460ff16156108175760008281526004602090815260408083206001600160a01b0385168085529252808320805460ff1916905551339285917ff6391f5c32d9c69d2a47ea670b442974b53935d1edc7fd64eb21e047a839171b9190a45050565b60008281526004602090815260408083206001600160a01b038516845290915290205460ff1661081757610e8881610eeb565b610e93836020610efd565b604051602001610ea49291906111f9565b60408051601f198184030181529082905262461bcd60e51b82526104d99160040161127a565b80516a636f6e736f6c652e6c6f67602083016000808483855afa5050505050565b60606104776001600160a01b03831660145b60606000610f0c8360026112a3565b610f179060026112ba565b67ffffffffffffffff811115610f2f57610f2f6112cd565b6040519080825280601f01601f191660200182016040528015610f59576020820181803683370190505b509050600360fc1b81600081518110610f7457610f746112e3565b60200101906001600160f81b031916908160001a905350600f60fb1b81600181518110610fa357610fa36112e3565b60200101906001600160f81b031916908160001a9053506000610fc78460026112a3565b610fd29060016112ba565b90505b6001811115611057577f303132333435363738396162636465660000000000000000000000000000000085600f1660108110611013576110136112e3565b1a60f81b828281518110611029576110296112e3565b60200101906001600160f81b031916908160001a90535060049490941c93611050816112f9565b9050610fd5565b5083156108515760405162461bcd60e51b815260206004820181905260248201527f537472696e67733a20686578206c656e67746820696e73756666696369656e7460448201526064016104d9565b6000602082840312156110b857600080fd5b81356001600160e01b03198116811461085157600080fd5b80356001600160a01b03811681146110e757600080fd5b919050565b6000602082840312156110fe57600080fd5b610851826110d0565b60006020828403121561111957600080fd5b5035919050565b6000806040838503121561113357600080fd5b82359150611143602084016110d0565b90509250929050565b6000806040838503121561115f57600080fd5b611168836110d0565b9150611143602084016110d0565b60005b83811015611191578181015183820152602001611179565b50506000910152565b600081518084526111b2816020860160208601611176565b601f01601f19169290920160200192915050565b6060815260006111d9606083018661119a565b6001600160a01b0394851660208401529290931660409091015292915050565b7f416363657373436f6e74726f6c3a206163636f756e7420000000000000000000815260008351611231816017850160208801611176565b7f206973206d697373696e6720726f6c6520000000000000000000000000000000601791840191820152835161126e816028840160208801611176565b01602801949350505050565b602081526000610851602083018461119a565b634e487b7160e01b600052601160045260246000fd5b80820281158282048414176104775761047761128d565b808201808211156104775761047761128d565b634e487b7160e01b600052604160045260246000fd5b634e487b7160e01b600052603260045260246000fd5b6000816113085761130861128d565b50600019019056fea164736f6c6343000812000a",
  "linkReferences": {},
  "deployedLinkReferences": {}
}