{
  "_format": "hh-sol-artifact-1",
  "contractName": "L2InitialLiquidityVaultProxy",
  "sourceName": "contracts/L2/vaults/L2InitialLiquidityVaultProxy.sol",
  "abi": [
    {
      "anonymous": false,
      "inputs": [
        {
          "indexed": true,
          "internalType": "bytes32",
          "name": "role",
          "type": "bytes32"
        },
        {
          "indexed": true,
          "internalType": "bytes32",
          "name": "previousAdminRole",
          "type": "bytes32"
        },
        {
          "indexed": true,
          "internalType": "bytes32",
          "name": "newAdminRole",
          "type": "bytes32"
        }
      ],
      "name": "RoleAdminChanged",
      "type": "event"
    },
    {
      "anonymous": false,
      "inputs": [
        {
          "indexed": true,
          "internalType": "bytes32",
          "name": "role",
          "type": "bytes32"
        },
        {
          "indexed": true,
          "internalType": "address",
          "name": "account",
          "type": "address"
        },
        {
          "indexed": true,
          "internalType": "address",
          "name": "sender",
          "type": "address"
        }
      ],
      "name": "RoleGranted",
      "type": "event"
    },
    {
      "anonymous": false,
      "inputs": [
        {
          "indexed": true,
          "internalType": "bytes32",
          "name": "role",
          "type": "bytes32"
        },
        {
          "indexed": true,
          "internalType": "address",
          "name": "account",
          "type": "address"
        },
        {
          "indexed": true,
          "internalType": "address",
          "name": "sender",
          "type": "address"
        }
      ],
      "name": "RoleRevoked",
      "type": "event"
    },
    {
      "anonymous": false,
      "inputs": [
        {
          "indexed": true,
          "internalType": "address",
          "name": "impl",
          "type": "address"
        },
        {
          "indexed": false,
          "internalType": "bool",
          "name": "alive",
          "type": "bool"
        }
      ],
      "name": "SetAliveImplementation",
      "type": "event"
    },
    {
      "anonymous": false,
      "inputs": [
        {
          "indexed": true,
          "internalType": "bytes4",
          "name": "selector",
          "type": "bytes4"
        },
        {
          "indexed": true,
          "internalType": "address",
          "name": "impl",
          "type": "address"
        }
      ],
      "name": "SetSelectorImplementation",
      "type": "event"
    },
    {
      "anonymous": false,
      "inputs": [
        {
          "indexed": true,
          "internalType": "address",
          "name": "implementation",
          "type": "address"
        }
      ],
      "name": "Upgraded",
      "type": "event"
    },
    {
      "stateMutability": "payable",
      "type": "fallback"
    },
    {
      "inputs": [],
      "name": "ADMIN_ROLE",
      "outputs": [
        {
          "internalType": "bytes32",
          "name": "",
          "type": "bytes32"
        }
      ],
      "stateMutability": "view",
      "type": "function"
    },
    {
      "inputs": [],
      "name": "DEFAULT_ADMIN_ROLE",
      "outputs": [
        {
          "internalType": "bytes32",
          "name": "",
          "type": "bytes32"
        }
      ],
      "stateMutability": "view",
      "type": "function"
    },
    {
      "inputs": [],
      "name": "POLICY_ROLE",
      "outputs": [
        {
          "internalType": "bytes32",
          "name": "",
          "type": "bytes32"
        }
      ],
      "stateMutability": "view",
      "type": "function"
    },
    {
      "inputs": [],
      "name": "TWAP_PERIOD",
      "outputs": [
        {
          "internalType": "uint32",
          "name": "",
          "type": "uint32"
        }
      ],
      "stateMutability": "view",
      "type": "function"
    },
    {
      "inputs": [],
      "name": "acceptSlippagePrice",
      "outputs": [
        {
          "internalType": "int24",
          "name": "",
          "type": "int24"
        }
      ],
      "stateMutability": "view",
      "type": "function"
    },
    {
      "inputs": [],
      "name": "acceptTickChangeInterval",
      "outputs": [
        {
          "internalType": "int24",
          "name": "",
          "type": "int24"
        }
      ],
      "stateMutability": "view",
      "type": "function"
    },
    {
      "inputs": [
        {
          "internalType": "address",
          "name": "account",
          "type": "address"
        }
      ],
      "name": "addAdmin",
      "outputs": [],
      "stateMutability": "nonpayable",
      "type": "function"
    },
    {
      "inputs": [
        {
          "internalType": "address",
          "name": "",
          "type": "address"
        }
      ],
      "name": "aliveImplementation",
      "outputs": [
        {
          "internalType": "bool",
          "name": "",
          "type": "bool"
        }
      ],
      "stateMutability": "view",
      "type": "function"
    },
    {
      "inputs": [
        {
          "internalType": "bytes32",
          "name": "role",
          "type": "bytes32"
        }
      ],
      "name": "getRoleAdmin",
      "outputs": [
        {
          "internalType": "bytes32",
          "name": "",
          "type": "bytes32"
        }
      ],
      "stateMutability": "view",
      "type": "function"
    },
    {
      "inputs": [
        {
          "internalType": "bytes4",
          "name": "_selector",
          "type": "bytes4"
        }
      ],
      "name": "getSelectorImplementation2",
      "outputs": [
        {
          "internalType": "address",
          "name": "impl",
          "type": "address"
        }
      ],
      "stateMutability": "view",
      "type": "function"
    },
    {
      "inputs": [
        {
          "internalType": "bytes32",
          "name": "role",
          "type": "bytes32"
        },
        {
          "internalType": "address",
          "name": "account",
          "type": "address"
        }
      ],
      "name": "grantRole",
      "outputs": [],
      "stateMutability": "nonpayable",
      "type": "function"
    },
    {
      "inputs": [
        {
          "internalType": "bytes32",
          "name": "role",
          "type": "bytes32"
        },
        {
          "internalType": "address",
          "name": "account",
          "type": "address"
        }
      ],
      "name": "hasRole",
      "outputs": [
        {
          "internalType": "bool",
          "name": "",
          "type": "bool"
        }
      ],
      "stateMutability": "view",
      "type": "function"
    },
    {
      "inputs": [],
      "name": "implementation",
      "outputs": [
        {
          "internalType": "address",
          "name": "",
          "type": "address"
        }
      ],
      "stateMutability": "view",
      "type": "function"
    },
    {
      "inputs": [
        {
          "internalType": "uint256",
          "name": "_index",
          "type": "uint256"
        }
      ],
      "name": "implementation2",
      "outputs": [
        {
          "internalType": "address",
          "name": "",
          "type": "address"
        }
      ],
      "stateMutability": "view",
      "type": "function"
    },
    {
      "inputs": [
        {
          "internalType": "address",
          "name": "account",
          "type": "address"
        }
      ],
      "name": "isAdmin",
      "outputs": [
        {
          "internalType": "bool",
          "name": "",
          "type": "bool"
        }
      ],
      "stateMutability": "view",
      "type": "function"
    },
    {
      "inputs": [],
      "name": "nonfungiblePositionManager",
      "outputs": [
        {
          "internalType": "address",
          "name": "",
          "type": "address"
        }
      ],
      "stateMutability": "view",
      "type": "function"
    },
    {
      "inputs": [],
      "name": "pauseProxy",
      "outputs": [
        {
          "internalType": "bool",
          "name": "",
          "type": "bool"
        }
      ],
      "stateMutability": "view",
      "type": "function"
    },
    {
      "inputs": [
        {
          "internalType": "address",
          "name": "",
          "type": "address"
        }
      ],
      "name": "poolInfo",
      "outputs": [
        {
          "internalType": "address",
          "name": "pool",
          "type": "address"
        },
        {
          "internalType": "uint256",
          "name": "totalAllocatedAmount",
          "type": "uint256"
        },
        {
          "internalType": "uint256",
          "name": "initialTosPrice",
          "type": "uint256"
        },
        {
          "internalType": "uint256",
          "name": "initialTokenPrice",
          "type": "uint256"
        },
        {
          "internalType": "uint256",
          "name": "lpToken",
          "type": "uint256"
        },
        {
          "internalType": "uint256",
          "name": "startTime",
          "type": "uint256"
        },
        {
          "internalType": "uint160",
          "name": "initSqrtPriceX96",
          "type": "uint160"
        },
        {
          "internalType": "uint24",
          "name": "fee",
          "type": "uint24"
        },
        {
          "internalType": "bool",
          "name": "boolReadyToCreatePool",
          "type": "bool"
        }
      ],
      "stateMutability": "view",
      "type": "function"
    },
    {
      "inputs": [
        {
          "internalType": "uint256",
          "name": "",
          "type": "uint256"
        }
      ],
      "name": "proxyImplementation",
      "outputs": [
        {
          "internalType": "address",
          "name": "",
          "type": "address"
        }
      ],
      "stateMutability": "view",
      "type": "function"
    },
    {
      "inputs": [
        {
          "internalType": "address",
          "name": "account",
          "type": "address"
        }
      ],
      "name": "removeAdmin",
      "outputs": [],
      "stateMutability": "nonpayable",
      "type": "function"
    },
    {
      "inputs": [
        {
          "internalType": "bytes32",
          "name": "role",
          "type": "bytes32"
        },
        {
          "internalType": "address",
          "name": "account",
          "type": "address"
        }
      ],
      "name": "renounceRole",
      "outputs": [],
      "stateMutability": "nonpayable",
      "type": "function"
    },
    {
      "inputs": [
        {
          "internalType": "bytes32",
          "name": "role",
          "type": "bytes32"
        },
        {
          "internalType": "address",
          "name": "account",
          "type": "address"
        }
      ],
      "name": "revokeRole",
      "outputs": [],
      "stateMutability": "nonpayable",
      "type": "function"
    },
    {
      "inputs": [
        {
          "internalType": "bytes4",
          "name": "",
          "type": "bytes4"
        }
      ],
      "name": "selectorImplementation",
      "outputs": [
        {
          "internalType": "address",
          "name": "",
          "type": "address"
        }
      ],
      "stateMutability": "view",
      "type": "function"
    },
    {
      "inputs": [
        {
          "internalType": "address",
          "name": "newImplementation",
          "type": "address"
        },
        {
          "internalType": "bool",
          "name": "_alive",
          "type": "bool"
        }
      ],
      "name": "setAliveImplementation2",
      "outputs": [],
      "stateMutability": "nonpayable",
      "type": "function"
    },
    {
      "inputs": [
        {
          "internalType": "address",
          "name": "newImplementation",
          "type": "address"
        },
        {
          "internalType": "uint256",
          "name": "_index",
          "type": "uint256"
        },
        {
          "internalType": "bool",
          "name": "_alive",
          "type": "bool"
        }
      ],
      "name": "setImplementation2",
      "outputs": [],
      "stateMutability": "nonpayable",
      "type": "function"
    },
    {
      "inputs": [
        {
          "internalType": "bool",
          "name": "_pause",
          "type": "bool"
        }
      ],
      "name": "setProxyPause",
      "outputs": [],
      "stateMutability": "nonpayable",
      "type": "function"
    },
    {
      "inputs": [
        {
          "internalType": "bytes4[]",
          "name": "_selectors",
          "type": "bytes4[]"
        },
        {
          "internalType": "address",
          "name": "_imp",
          "type": "address"
        }
      ],
      "name": "setSelectorImplementations2",
      "outputs": [],
      "stateMutability": "nonpayable",
      "type": "function"
    },
    {
      "inputs": [
        {
          "internalType": "bytes4",
          "name": "interfaceId",
          "type": "bytes4"
        }
      ],
      "name": "supportsInterface",
      "outputs": [
        {
          "internalType": "bool",
          "name": "",
          "type": "bool"
        }
      ],
      "stateMutability": "view",
      "type": "function"
    },
    {
      "inputs": [],
      "name": "tickIntervalMinimum",
      "outputs": [
        {
          "internalType": "int24",
          "name": "",
          "type": "int24"
        }
      ],
      "stateMutability": "view",
      "type": "function"
    },
    {
      "inputs": [],
      "name": "tickSpacings",
      "outputs": [
        {
          "internalType": "int24",
          "name": "",
          "type": "int24"
        }
      ],
      "stateMutability": "view",
      "type": "function"
    },
    {
      "inputs": [],
      "name": "ton",
      "outputs": [
        {
          "internalType": "address",
          "name": "",
          "type": "address"
        }
      ],
      "stateMutability": "view",
      "type": "function"
    },
    {
      "inputs": [],
      "name": "tos",
      "outputs": [
        {
          "internalType": "address",
          "name": "",
          "type": "address"
        }
      ],
      "stateMutability": "view",
      "type": "function"
    },
    {
      "inputs": [
        {
          "internalType": "address",
          "name": "newAdmin",
          "type": "address"
        }
      ],
      "name": "transferAdmin",
      "outputs": [],
      "stateMutability": "nonpayable",
      "type": "function"
    },
    {
      "inputs": [],
      "name": "uniswapV3Factory",
      "outputs": [
        {
          "internalType": "address",
          "name": "",
          "type": "address"
        }
      ],
      "stateMutability": "view",
      "type": "function"
    },
    {
      "inputs": [
        {
          "internalType": "address",
          "name": "impl",
          "type": "address"
        }
      ],
      "name": "upgradeTo",
      "outputs": [],
      "stateMutability": "nonpayable",
      "type": "function"
    },
    {
      "stateMutability": "payable",
      "type": "receive"
    }
  ],
  "bytecode": "0x60806040523480156200001157600080fd5b506200002d60008051602062001c2f833981519152806200004e565b6200004860008051602062001c2f8339815191523362000099565b6200014d565b600082815260046020526040808220600101805490849055905190918391839186917fbd79b86ffe0ab8e8776151514217cd7cacd52c909f66475c3af44e129f0b00ff9190a4505050565b620000a58282620000a9565b5050565b60008281526004602090815260408083206001600160a01b038516845290915290205460ff16620000a55760008281526004602090815260408083206001600160a01b03851684529091529020805460ff19166001179055620001093390565b6001600160a01b0316816001600160a01b0316837f2f8788117e7eff1d82e926ec794901d17c78024a50270940304540a733656f0d60405160405180910390a45050565b611ad2806200015d6000396000f3fe6080604052600436106102385760003560e01c806363a8fd89116101385780638d4fdb40116100b0578063a217fddf1161007f578063b911135f11610064578063b911135f14610847578063cc48b9471461087d578063d547741f1461089d5761028a565b8063a217fddf14610812578063b44a2722146108275761028a565b80638d4fdb40146106b557806391d14854146106d55780639a7b5f111461071b5780639cbbbe86146107f15761028a565b80637ca25184116101075780637cd5f663116100ec5780637cd5f6631461065557806389f395de146106755780638b8f4a65146106955761028a565b80637ca25184146105fc5780637cb00d25146106355761028a565b806363a8fd891461056e578063704802751461058857806375829def146105a857806375b238fc146105c85761028a565b80633659cfe6116101cb578063526aef941161019a5780635b5491821161017f5780635b549182146104e85780635c60da1b146105085780635cc797d81461054e5761028a565b8063526aef9414610497578063550d01a3146104b85761028a565b80633659cfe6146103e857806345a41148146104085780634a5df50f1461042957806350d2a276146104495761028a565b806324d7806c1161020757806324d7806c1461035b5780632f2ff15d1461037b57806335d20f8a1461039b57806336568abe146103c85761028a565b806301ffc9a7146102945780631785f53c146102c957806322985246146102e9578063248a9ca31461032b5761028a565b3661028a5760405162461bcd60e51b815260206004820152601460248201527f63616e6e6f74207265636569766520457468657200000000000000000000000060448201526064015b60405180910390fd5b6102926108bd565b005b3480156102a057600080fd5b506102b46102af366004611784565b610966565b60405190151581526020015b60405180910390f35b3480156102d557600080fd5b506102926102e43660046117c5565b61099d565b3480156102f557600080fd5b5061031d7ffb5864e8ff833c3cb2d2d08505e82ff02a43554c74a35d4f5a64e8526127831181565b6040519081526020016102c0565b34801561033757600080fd5b5061031d6103463660046117e0565b60009081526004602052604090206001015490565b34801561036757600080fd5b506102b46103763660046117c5565b610a18565b34801561038757600080fd5b506102926103963660046117f9565b610a58565b3480156103a757600080fd5b506009546103b59060020b81565b60405160029190910b81526020016102c0565b3480156103d457600080fd5b506102926103e33660046117f9565b610a7d565b3480156103f457600080fd5b506102926104033660046117c5565b610b09565b34801561041457600080fd5b506008546103b590600160d81b900460020b81565b34801561043557600080fd5b50610292610444366004611825565b610c62565b34801561045557600080fd5b5061047f610464366004611784565b6003602052600090815260409020546001600160a01b031681565b6040516001600160a01b0390911681526020016102c0565b3480156104a357600080fd5b506008546103b590600160c01b900460020b81565b3480156104c457600080fd5b506102b46104d33660046117c5565b60026020526000908152604090205460ff1681565b3480156104f457600080fd5b5060075461047f906001600160a01b031681565b34801561051457600080fd5b506000805260016020527fa6eef7e35abe7026729641147f7915573c7e97b47efa546f5f6e3230263bcb49546001600160a01b031661047f565b34801561055a57600080fd5b506102926105693660046118b9565b610f0f565b34801561057a57600080fd5b506000546102b49060ff1681565b34801561059457600080fd5b506102926105a33660046117c5565b610f67565b3480156105b457600080fd5b506102926105c33660046117c5565b610fdf565b3480156105d457600080fd5b5061031d7fdf8b4c520ffe197c5343c6f5aec59570151ef9a492f2c624fd45ddde6135ec4281565b34801561060857600080fd5b5060085461062090600160a01b900463ffffffff1681565b60405163ffffffff90911681526020016102c0565b34801561064157600080fd5b506102926106503660046118e3565b61112f565b34801561066157600080fd5b506102926106703660046118fe565b611190565b34801561068157600080fd5b5060065461047f906001600160a01b031681565b3480156106a157600080fd5b5061047f6106b03660046117e0565b6111e9565b3480156106c157600080fd5b5061047f6106d0366004611784565b611206565b3480156106e157600080fd5b506102b46106f03660046117f9565b60009182526004602090815260408084206001600160a01b0393909316845291905290205460ff1690565b34801561072757600080fd5b506107976107363660046117c5565b600a6020526000908152604090208054600182015460028301546003840154600485015460058601546006909601546001600160a01b0395861696949593949293919291811690600160a01b810462ffffff1690600160b81b900460ff1689565b604080516001600160a01b039a8b16815260208101999099528801969096526060870194909452608086019290925260a085015290931660c083015262ffffff90921660e0820152901515610100820152610120016102c0565b3480156107fd57600080fd5b506009546103b5906301000000900460020b81565b34801561081e57600080fd5b5061031d600081565b34801561083357600080fd5b5060085461047f906001600160a01b031681565b34801561085357600080fd5b5061047f6108623660046117e0565b6001602052600090815260409020546001600160a01b031681565b34801561088957600080fd5b5060055461047f906001600160a01b031681565b3480156108a957600080fd5b506102926108b83660046117f9565b611302565b60006108d46000356001600160e01b031916611206565b90506001600160a01b038116158015906108f1575060005460ff16155b61093d5760405162461bcd60e51b815260206004820152601d60248201527f50726f78793a20696d706c204f522070726f78792069732066616c73650000006044820152606401610281565b3660008037600080366000845af43d6000803e80801561095c573d6000f35b3d6000fd5b505050565b60006001600160e01b03198216637965db0b60e01b148061099757506301ffc9a760e01b6001600160e01b03198316145b92915050565b6109a633610a18565b6109eb5760405162461bcd60e51b81526020600482015260226024820152600080516020611aa683398151915260448201526134b760f11b6064820152608401610281565b610a157fdf8b4c520ffe197c5343c6f5aec59570151ef9a492f2c624fd45ddde6135ec4282610a7d565b50565b6001600160a01b03811660009081527f2fb794d17134dfdec181ddbac1babb5ab1eb140204ef4d982f294e7fc8b69022602052604081205460ff16610997565b600082815260046020526040902060010154610a7381611327565b6109618383611331565b6001600160a01b0381163314610afb5760405162461bcd60e51b815260206004820152602f60248201527f416363657373436f6e74726f6c3a2063616e206f6e6c792072656e6f756e636560448201527f20726f6c657320666f722073656c6600000000000000000000000000000000006064820152608401610281565b610b0582826113d3565b5050565b610b1233610a18565b610b575760405162461bcd60e51b81526020600482015260226024820152600080516020611aa683398151915260448201526134b760f11b6064820152608401610281565b6001600160a01b038116610bad5760405162461bcd60e51b815260206004820152600d60248201527f696e707574206973207a65726f000000000000000000000000000000000000006044820152606401610281565b6000805260016020527fa6eef7e35abe7026729641147f7915573c7e97b47efa546f5f6e3230263bcb49546001600160a01b03828116911603610c1e5760405162461bcd60e51b815260206004820152600960248201526839b0b6b29030b2323960b91b6044820152606401610281565b610c2b8160006001611456565b6040516001600160a01b038216907fbc7cd75a20ee27fd9adebab32041f755214dbc6bffa90cc0225b39da2e5c2d3b90600090a250565b610c6b33610a18565b610cb05760405162461bcd60e51b81526020600482015260226024820152600080516020611aa683398151915260448201526134b760f11b6064820152608401610281565b81610cfd5760405162461bcd60e51b815260206004820181905260248201527f50726f78793a205f73656c6563746f727327732073697a65206973207a65726f6044820152606401610281565b6001600160a01b03811660009081526002602052604090205460ff16610d655760405162461bcd60e51b815260206004820152601860248201527f50726f78793a205f696d70206973206e6f7420616c69766500000000000000006044820152606401610281565b60005b82811015610f0957816001600160a01b031660036000868685818110610d9057610d90611931565b9050602002016020810190610da59190611784565b6001600160e01b03191681526020810191909152604001600020546001600160a01b031603610e165760405162461bcd60e51b815260206004820152601d60248201527f4c69717569646974795661756c7450726f78793a2073616d6520696d700000006044820152606401610281565b8160036000868685818110610e2d57610e2d611931565b9050602002016020810190610e429190611784565b6001600160e01b03191681526020810191909152604001600020805473ffffffffffffffffffffffffffffffffffffffff19166001600160a01b039283161790558216848483818110610e9757610e97611931565b9050602002016020810190610eac9190611784565b7bffffffffffffffffffffffffffffffffffffffffffffffffffffffff19167f14ebc1c32aa68f4d766e89f3e546cee249f7df25183fc10ab1568d91c2ce9b7b60405160405180910390a380610f018161195d565b915050610d68565b50505050565b610f1833610a18565b610f5d5760405162461bcd60e51b81526020600482015260226024820152600080516020611aa683398151915260448201526134b760f11b6064820152608401610281565b610b0582826114ee565b610f7033610a18565b610fb55760405162461bcd60e51b81526020600482015260226024820152600080516020611aa683398151915260448201526134b760f11b6064820152608401610281565b610a157fdf8b4c520ffe197c5343c6f5aec59570151ef9a492f2c624fd45ddde6135ec4282610a58565b610fe833610a18565b61102d5760405162461bcd60e51b81526020600482015260226024820152600080516020611aa683398151915260448201526134b760f11b6064820152608401610281565b6001600160a01b0381166110835760405162461bcd60e51b815260206004820152601860248201527f41636365737369626c653a207a65726f206164647265737300000000000000006044820152606401610281565b6001600160a01b03811633036110db5760405162461bcd60e51b815260206004820152601660248201527f41636365737369626c653a2073616d652061646d696e000000000000000000006044820152606401610281565b6111057fdf8b4c520ffe197c5343c6f5aec59570151ef9a492f2c624fd45ddde6135ec4282610a58565b610a157fdf8b4c520ffe197c5343c6f5aec59570151ef9a492f2c624fd45ddde6135ec4233610a7d565b61113833610a18565b61117d5760405162461bcd60e51b81526020600482015260226024820152600080516020611aa683398151915260448201526134b760f11b6064820152608401610281565b6000805460ff1916911515919091179055565b61119933610a18565b6111de5760405162461bcd60e51b81526020600482015260226024820152600080516020611aa683398151915260448201526134b760f11b6064820152608401610281565b610961838383611456565b6000818152600160205260408120546001600160a01b0316610997565b6001600160e01b031981166000908152600360205260408120546001600160a01b03166112665750506000805260016020527fa6eef7e35abe7026729641147f7915573c7e97b47efa546f5f6e3230263bcb49546001600160a01b031690565b6001600160e01b031982166000908152600360209081526040808320546001600160a01b03168352600290915290205460ff16156112c457506001600160e01b0319166000908152600360205260409020546001600160a01b031690565b50506000805260016020527fa6eef7e35abe7026729641147f7915573c7e97b47efa546f5f6e3230263bcb49546001600160a01b031690565b919050565b60008281526004602052604090206001015461131d81611327565b61096183836113d3565b610a15813361154d565b60008281526004602090815260408083206001600160a01b038516845290915290205460ff16610b055760008281526004602090815260408083206001600160a01b03851684529091529020805460ff1916600117905561138f3390565b6001600160a01b0316816001600160a01b0316837f2f8788117e7eff1d82e926ec794901d17c78024a50270940304540a733656f0d60405160405180910390a45050565b60008281526004602090815260408083206001600160a01b038516845290915290205460ff1615610b055760008281526004602090815260408083206001600160a01b0385168085529252808320805460ff1916905551339285917ff6391f5c32d9c69d2a47ea670b442974b53935d1edc7fd64eb21e047a839171b9190a45050565b6001600160a01b0383163b6114ad5760405162461bcd60e51b815260206004820152601b60248201527f50726f78793a206e6f7420636f6e7472616374206164647265737300000000006044820152606401610281565b80156114e8576000828152600160205260409020805473ffffffffffffffffffffffffffffffffffffffff19166001600160a01b0385161790555b61096183825b6001600160a01b038216600081815260026020908152604091829020805460ff191685151590811790915591519182527f72558d9bfba4210f9ef095c782589484151f6d90f7a81bb3cb9b33efc695d324910160405180910390a25050565b60008281526004602090815260408083206001600160a01b038516845290915290205460ff16610b0557611580816115c2565b61158b8360206115d4565b60405160200161159c92919061199a565b60408051601f198184030181529082905262461bcd60e51b825261028191600401611a1b565b60606109976001600160a01b03831660145b606060006115e3836002611a4e565b6115ee906002611a65565b67ffffffffffffffff81111561160657611606611a78565b6040519080825280601f01601f191660200182016040528015611630576020820181803683370190505b509050600360fc1b8160008151811061164b5761164b611931565b60200101906001600160f81b031916908160001a905350600f60fb1b8160018151811061167a5761167a611931565b60200101906001600160f81b031916908160001a905350600061169e846002611a4e565b6116a9906001611a65565b90505b600181111561172e577f303132333435363738396162636465660000000000000000000000000000000085600f16601081106116ea576116ea611931565b1a60f81b82828151811061170057611700611931565b60200101906001600160f81b031916908160001a90535060049490941c9361172781611a8e565b90506116ac565b50831561177d5760405162461bcd60e51b815260206004820181905260248201527f537472696e67733a20686578206c656e67746820696e73756666696369656e746044820152606401610281565b9392505050565b60006020828403121561179657600080fd5b81356001600160e01b03198116811461177d57600080fd5b80356001600160a01b03811681146112fd57600080fd5b6000602082840312156117d757600080fd5b61177d826117ae565b6000602082840312156117f257600080fd5b5035919050565b6000806040838503121561180c57600080fd5b8235915061181c602084016117ae565b90509250929050565b60008060006040848603121561183a57600080fd5b833567ffffffffffffffff8082111561185257600080fd5b818601915086601f83011261186657600080fd5b81358181111561187557600080fd5b8760208260051b850101111561188a57600080fd5b6020928301955093506118a091860190506117ae565b90509250925092565b803580151581146112fd57600080fd5b600080604083850312156118cc57600080fd5b6118d5836117ae565b915061181c602084016118a9565b6000602082840312156118f557600080fd5b61177d826118a9565b60008060006060848603121561191357600080fd5b61191c846117ae565b9250602084013591506118a0604085016118a9565b634e487b7160e01b600052603260045260246000fd5b634e487b7160e01b600052601160045260246000fd5b60006001820161196f5761196f611947565b5060010190565b60005b83811015611991578181015183820152602001611979565b50506000910152565b7f416363657373436f6e74726f6c3a206163636f756e74200000000000000000008152600083516119d2816017850160208801611976565b7f206973206d697373696e6720726f6c65200000000000000000000000000000006017918401918201528351611a0f816028840160208801611976565b01602801949350505050565b6020815260008251806020840152611a3a816040850160208701611976565b601f01601f19169190910160400192915050565b808202811582820484141761099757610997611947565b8082018082111561099757610997611947565b634e487b7160e01b600052604160045260246000fd5b600081611a9d57611a9d611947565b50600019019056fe41636365737369626c653a2043616c6c6572206973206e6f7420616e2061646da164736f6c6343000812000adf8b4c520ffe197c5343c6f5aec59570151ef9a492f2c624fd45ddde6135ec42",
  "linkReferences": {},
  "deployedLinkReferences": {}
}