{
  "_format": "hh-sol-artifact-1",
  "contractName": "L2InitialLiquidityVaultProxy",
  "sourceName": "contracts/L2/vaults/L2InitialLiquidityVaultProxy.sol",
  "abi": [
    {
      "anonymous": false,
      "inputs": [
        {
          "indexed": true,
          "internalType": "bytes32",
          "name": "role",
          "type": "bytes32"
        },
        {
          "indexed": true,
          "internalType": "bytes32",
          "name": "previousAdminRole",
          "type": "bytes32"
        },
        {
          "indexed": true,
          "internalType": "bytes32",
          "name": "newAdminRole",
          "type": "bytes32"
        }
      ],
      "name": "RoleAdminChanged",
      "type": "event"
    },
    {
      "anonymous": false,
      "inputs": [
        {
          "indexed": true,
          "internalType": "bytes32",
          "name": "role",
          "type": "bytes32"
        },
        {
          "indexed": true,
          "internalType": "address",
          "name": "account",
          "type": "address"
        },
        {
          "indexed": true,
          "internalType": "address",
          "name": "sender",
          "type": "address"
        }
      ],
      "name": "RoleGranted",
      "type": "event"
    },
    {
      "anonymous": false,
      "inputs": [
        {
          "indexed": true,
          "internalType": "bytes32",
          "name": "role",
          "type": "bytes32"
        },
        {
          "indexed": true,
          "internalType": "address",
          "name": "account",
          "type": "address"
        },
        {
          "indexed": true,
          "internalType": "address",
          "name": "sender",
          "type": "address"
        }
      ],
      "name": "RoleRevoked",
      "type": "event"
    },
    {
      "anonymous": false,
      "inputs": [
        {
          "indexed": true,
          "internalType": "address",
          "name": "impl",
          "type": "address"
        },
        {
          "indexed": false,
          "internalType": "bool",
          "name": "alive",
          "type": "bool"
        }
      ],
      "name": "SetAliveImplementation",
      "type": "event"
    },
    {
      "anonymous": false,
      "inputs": [
        {
          "indexed": true,
          "internalType": "bytes4",
          "name": "selector",
          "type": "bytes4"
        },
        {
          "indexed": true,
          "internalType": "address",
          "name": "impl",
          "type": "address"
        }
      ],
      "name": "SetSelectorImplementation",
      "type": "event"
    },
    {
      "anonymous": false,
      "inputs": [
        {
          "indexed": false,
          "internalType": "address",
          "name": "l2Token",
          "type": "address"
        },
        {
          "indexed": false,
          "internalType": "address",
          "name": "newAdmin",
          "type": "address"
        }
      ],
      "name": "SetVaultAdmin",
      "type": "event"
    },
    {
      "anonymous": false,
      "inputs": [
        {
          "indexed": true,
          "internalType": "address",
          "name": "implementation",
          "type": "address"
        }
      ],
      "name": "Upgraded",
      "type": "event"
    },
    {
      "stateMutability": "payable",
      "type": "fallback"
    },
    {
      "inputs": [],
      "name": "ADMIN_ROLE",
      "outputs": [
        {
          "internalType": "bytes32",
          "name": "",
          "type": "bytes32"
        }
      ],
      "stateMutability": "view",
      "type": "function"
    },
    {
      "inputs": [],
      "name": "DEFAULT_ADMIN_ROLE",
      "outputs": [
        {
          "internalType": "bytes32",
          "name": "",
          "type": "bytes32"
        }
      ],
      "stateMutability": "view",
      "type": "function"
    },
    {
      "inputs": [],
      "name": "POLICY_ROLE",
      "outputs": [
        {
          "internalType": "bytes32",
          "name": "",
          "type": "bytes32"
        }
      ],
      "stateMutability": "view",
      "type": "function"
    },
    {
      "inputs": [],
      "name": "TWAP_PERIOD",
      "outputs": [
        {
          "internalType": "uint32",
          "name": "",
          "type": "uint32"
        }
      ],
      "stateMutability": "view",
      "type": "function"
    },
    {
      "inputs": [],
      "name": "acceptSlippagePrice",
      "outputs": [
        {
          "internalType": "int24",
          "name": "",
          "type": "int24"
        }
      ],
      "stateMutability": "view",
      "type": "function"
    },
    {
      "inputs": [],
      "name": "acceptTickChangeInterval",
      "outputs": [
        {
          "internalType": "int24",
          "name": "",
          "type": "int24"
        }
      ],
      "stateMutability": "view",
      "type": "function"
    },
    {
      "inputs": [
        {
          "internalType": "address",
          "name": "account",
          "type": "address"
        }
      ],
      "name": "addAdmin",
      "outputs": [],
      "stateMutability": "nonpayable",
      "type": "function"
    },
    {
      "inputs": [
        {
          "internalType": "address",
          "name": "",
          "type": "address"
        }
      ],
      "name": "aliveImplementation",
      "outputs": [
        {
          "internalType": "bool",
          "name": "",
          "type": "bool"
        }
      ],
      "stateMutability": "view",
      "type": "function"
    },
    {
      "inputs": [
        {
          "internalType": "bytes32",
          "name": "role",
          "type": "bytes32"
        }
      ],
      "name": "getRoleAdmin",
      "outputs": [
        {
          "internalType": "bytes32",
          "name": "",
          "type": "bytes32"
        }
      ],
      "stateMutability": "view",
      "type": "function"
    },
    {
      "inputs": [
        {
          "internalType": "bytes4",
          "name": "_selector",
          "type": "bytes4"
        }
      ],
      "name": "getSelectorImplementation2",
      "outputs": [
        {
          "internalType": "address",
          "name": "impl",
          "type": "address"
        }
      ],
      "stateMutability": "view",
      "type": "function"
    },
    {
      "inputs": [
        {
          "internalType": "bytes32",
          "name": "role",
          "type": "bytes32"
        },
        {
          "internalType": "address",
          "name": "account",
          "type": "address"
        }
      ],
      "name": "grantRole",
      "outputs": [],
      "stateMutability": "nonpayable",
      "type": "function"
    },
    {
      "inputs": [
        {
          "internalType": "bytes32",
          "name": "role",
          "type": "bytes32"
        },
        {
          "internalType": "address",
          "name": "account",
          "type": "address"
        }
      ],
      "name": "hasRole",
      "outputs": [
        {
          "internalType": "bool",
          "name": "",
          "type": "bool"
        }
      ],
      "stateMutability": "view",
      "type": "function"
    },
    {
      "inputs": [],
      "name": "implementation",
      "outputs": [
        {
          "internalType": "address",
          "name": "",
          "type": "address"
        }
      ],
      "stateMutability": "view",
      "type": "function"
    },
    {
      "inputs": [
        {
          "internalType": "uint256",
          "name": "_index",
          "type": "uint256"
        }
      ],
      "name": "implementation2",
      "outputs": [
        {
          "internalType": "address",
          "name": "",
          "type": "address"
        }
      ],
      "stateMutability": "view",
      "type": "function"
    },
    {
      "inputs": [
        {
          "internalType": "address",
          "name": "account",
          "type": "address"
        }
      ],
      "name": "isAdmin",
      "outputs": [
        {
          "internalType": "bool",
          "name": "",
          "type": "bool"
        }
      ],
      "stateMutability": "view",
      "type": "function"
    },
    {
      "inputs": [],
      "name": "l2ProjectManager",
      "outputs": [
        {
          "internalType": "address",
          "name": "",
          "type": "address"
        }
      ],
      "stateMutability": "view",
      "type": "function"
    },
    {
      "inputs": [],
      "name": "nonfungiblePositionManager",
      "outputs": [
        {
          "internalType": "address",
          "name": "",
          "type": "address"
        }
      ],
      "stateMutability": "view",
      "type": "function"
    },
    {
      "inputs": [],
      "name": "pauseProxy",
      "outputs": [
        {
          "internalType": "bool",
          "name": "",
          "type": "bool"
        }
      ],
      "stateMutability": "view",
      "type": "function"
    },
    {
      "inputs": [
        {
          "internalType": "address",
          "name": "",
          "type": "address"
        }
      ],
      "name": "poolInfo",
      "outputs": [
        {
          "internalType": "address",
          "name": "pool",
          "type": "address"
        },
        {
          "internalType": "uint256",
          "name": "totalAllocatedAmount",
          "type": "uint256"
        },
        {
          "internalType": "uint256",
          "name": "initialTosPrice",
          "type": "uint256"
        },
        {
          "internalType": "uint256",
          "name": "initialTokenPrice",
          "type": "uint256"
        },
        {
          "internalType": "uint256",
          "name": "lpToken",
          "type": "uint256"
        },
        {
          "internalType": "uint32",
          "name": "startTime",
          "type": "uint32"
        },
        {
          "internalType": "uint160",
          "name": "initSqrtPriceX96",
          "type": "uint160"
        },
        {
          "internalType": "uint24",
          "name": "fee",
          "type": "uint24"
        },
        {
          "internalType": "bool",
          "name": "boolReadyToCreatePool",
          "type": "bool"
        }
      ],
      "stateMutability": "view",
      "type": "function"
    },
    {
      "inputs": [
        {
          "internalType": "uint256",
          "name": "",
          "type": "uint256"
        }
      ],
      "name": "proxyImplementation",
      "outputs": [
        {
          "internalType": "address",
          "name": "",
          "type": "address"
        }
      ],
      "stateMutability": "view",
      "type": "function"
    },
    {
      "inputs": [
        {
          "internalType": "address",
          "name": "account",
          "type": "address"
        }
      ],
      "name": "removeAdmin",
      "outputs": [],
      "stateMutability": "nonpayable",
      "type": "function"
    },
    {
      "inputs": [
        {
          "internalType": "bytes32",
          "name": "role",
          "type": "bytes32"
        },
        {
          "internalType": "address",
          "name": "account",
          "type": "address"
        }
      ],
      "name": "renounceRole",
      "outputs": [],
      "stateMutability": "nonpayable",
      "type": "function"
    },
    {
      "inputs": [
        {
          "internalType": "bytes32",
          "name": "role",
          "type": "bytes32"
        },
        {
          "internalType": "address",
          "name": "account",
          "type": "address"
        }
      ],
      "name": "revokeRole",
      "outputs": [],
      "stateMutability": "nonpayable",
      "type": "function"
    },
    {
      "inputs": [
        {
          "internalType": "bytes4",
          "name": "",
          "type": "bytes4"
        }
      ],
      "name": "selectorImplementation",
      "outputs": [
        {
          "internalType": "address",
          "name": "",
          "type": "address"
        }
      ],
      "stateMutability": "view",
      "type": "function"
    },
    {
      "inputs": [
        {
          "internalType": "address",
          "name": "newImplementation",
          "type": "address"
        },
        {
          "internalType": "bool",
          "name": "_alive",
          "type": "bool"
        }
      ],
      "name": "setAliveImplementation2",
      "outputs": [],
      "stateMutability": "nonpayable",
      "type": "function"
    },
    {
      "inputs": [
        {
          "internalType": "address",
          "name": "newImplementation",
          "type": "address"
        },
        {
          "internalType": "uint256",
          "name": "_index",
          "type": "uint256"
        },
        {
          "internalType": "bool",
          "name": "_alive",
          "type": "bool"
        }
      ],
      "name": "setImplementation2",
      "outputs": [],
      "stateMutability": "nonpayable",
      "type": "function"
    },
    {
      "inputs": [
        {
          "internalType": "bool",
          "name": "_pause",
          "type": "bool"
        }
      ],
      "name": "setProxyPause",
      "outputs": [],
      "stateMutability": "nonpayable",
      "type": "function"
    },
    {
      "inputs": [
        {
          "internalType": "bytes4[]",
          "name": "_selectors",
          "type": "bytes4[]"
        },
        {
          "internalType": "address",
          "name": "_imp",
          "type": "address"
        }
      ],
      "name": "setSelectorImplementations2",
      "outputs": [],
      "stateMutability": "nonpayable",
      "type": "function"
    },
    {
      "inputs": [
        {
          "internalType": "bytes4",
          "name": "interfaceId",
          "type": "bytes4"
        }
      ],
      "name": "supportsInterface",
      "outputs": [
        {
          "internalType": "bool",
          "name": "",
          "type": "bool"
        }
      ],
      "stateMutability": "view",
      "type": "function"
    },
    {
      "inputs": [],
      "name": "tickSpacings",
      "outputs": [
        {
          "internalType": "int24",
          "name": "",
          "type": "int24"
        }
      ],
      "stateMutability": "view",
      "type": "function"
    },
    {
      "inputs": [],
      "name": "ton",
      "outputs": [
        {
          "internalType": "address",
          "name": "",
          "type": "address"
        }
      ],
      "stateMutability": "view",
      "type": "function"
    },
    {
      "inputs": [],
      "name": "tos",
      "outputs": [
        {
          "internalType": "address",
          "name": "",
          "type": "address"
        }
      ],
      "stateMutability": "view",
      "type": "function"
    },
    {
      "inputs": [
        {
          "internalType": "address",
          "name": "newAdmin",
          "type": "address"
        }
      ],
      "name": "transferAdmin",
      "outputs": [],
      "stateMutability": "nonpayable",
      "type": "function"
    },
    {
      "inputs": [],
      "name": "uniswapV3Factory",
      "outputs": [
        {
          "internalType": "address",
          "name": "",
          "type": "address"
        }
      ],
      "stateMutability": "view",
      "type": "function"
    },
    {
      "inputs": [
        {
          "internalType": "address",
          "name": "impl",
          "type": "address"
        }
      ],
      "name": "upgradeTo",
      "outputs": [],
      "stateMutability": "nonpayable",
      "type": "function"
    },
    {
      "inputs": [
        {
          "internalType": "address",
          "name": "",
          "type": "address"
        }
      ],
      "name": "vaultAdminOfToken",
      "outputs": [
        {
          "internalType": "address",
          "name": "",
          "type": "address"
        }
      ],
      "stateMutability": "view",
      "type": "function"
    },
    {
      "stateMutability": "payable",
      "type": "receive"
    }
  ],
  "bytecode": "0x60806040526005805460ff191660011790553480156200001e57600080fd5b506200003a60008051602062001cb1833981519152806200005b565b6200005560008051602062001cb183398151915233620000a6565b6200015a565b600082815260046020526040808220600101805490849055905190918391839186917fbd79b86ffe0ab8e8776151514217cd7cacd52c909f66475c3af44e129f0b00ff9190a4505050565b620000b28282620000b6565b5050565b60008281526004602090815260408083206001600160a01b038516845290915290205460ff16620000b25760008281526004602090815260408083206001600160a01b03851684529091529020805460ff19166001179055620001163390565b6001600160a01b0316816001600160a01b0316837f2f8788117e7eff1d82e926ec794901d17c78024a50270940304540a733656f0d60405160405180910390a45050565b611b47806200016a6000396000f3fe6080604052600436106102535760003560e01c806370480275116101385780638d4fdb40116100b0578063a217fddf1161007f578063b911135f11610064578063b911135f146108bc578063cc48b947146108f2578063d547741f14610912576102a5565b8063a217fddf14610887578063b44a27221461089c576102a5565b80638d4fdb401461072257806391d14854146107425780639a7b5f11146107885780639cbbbe861461086d576102a5565b80637cb00d25116101075780637fc46ba8116100ec5780637fc46ba8146106ac57806389f395de146106e25780638b8f4a6514610702576102a5565b80637cb00d251461066c5780637cd5f6631461068c576102a5565b806370480275146105ae57806375829def146105ce57806375b238fc146105ee5780637ca2518414610622576102a5565b806345a41148116101cb578063550d01a31161019a5780635c60da1b1161017f5780635c60da1b1461052e5780635cc797d81461057457806363a8fd8914610594576102a5565b8063550d01a3146104de5780635b5491821461050e576102a5565b806345a411481461042a5780634a5df50f1461044b57806350d2a2761461046b57806352351e85146104b9576102a5565b806324d7806c1161022257806335d20f8a1161020757806335d20f8a146103b657806336568abe146103ea5780633659cfe61461040a576102a5565b806324d7806c146103765780632f2ff15d14610396576102a5565b806301ffc9a7146102af5780631785f53c146102e45780632298524614610304578063248a9ca314610346576102a5565b366102a55760405162461bcd60e51b815260206004820152601460248201527f63616e6e6f74207265636569766520457468657200000000000000000000000060448201526064015b60405180910390fd5b6102ad610932565b005b3480156102bb57600080fd5b506102cf6102ca3660046117f9565b6109db565b60405190151581526020015b60405180910390f35b3480156102f057600080fd5b506102ad6102ff36600461183a565b610a12565b34801561031057600080fd5b506103387ffb5864e8ff833c3cb2d2d08505e82ff02a43554c74a35d4f5a64e8526127831181565b6040519081526020016102db565b34801561035257600080fd5b50610338610361366004611855565b60009081526004602052604090206001015490565b34801561038257600080fd5b506102cf61039136600461183a565b610a8d565b3480156103a257600080fd5b506102ad6103b136600461186e565b610acd565b3480156103c257600080fd5b50600a546103d790600160d81b900460020b81565b60405160029190910b81526020016102db565b3480156103f657600080fd5b506102ad61040536600461186e565b610af2565b34801561041657600080fd5b506102ad61042536600461183a565b610b7e565b34801561043657600080fd5b50600a546103d790600160c01b900460020b81565b34801561045757600080fd5b506102ad61046636600461189a565b610cd7565b34801561047757600080fd5b506104a16104863660046117f9565b6003602052600090815260409020546001600160a01b031681565b6040516001600160a01b0390911681526020016102db565b3480156104c557600080fd5b506005546104a19061010090046001600160a01b031681565b3480156104ea57600080fd5b506102cf6104f936600461183a565b60026020526000908152604090205460ff1681565b34801561051a57600080fd5b506009546104a1906001600160a01b031681565b34801561053a57600080fd5b506000805260016020527fa6eef7e35abe7026729641147f7915573c7e97b47efa546f5f6e3230263bcb49546001600160a01b03166104a1565b34801561058057600080fd5b506102ad61058f36600461192e565b610f84565b3480156105a057600080fd5b506000546102cf9060ff1681565b3480156105ba57600080fd5b506102ad6105c936600461183a565b610fdc565b3480156105da57600080fd5b506102ad6105e936600461183a565b611054565b3480156105fa57600080fd5b506103387fdf8b4c520ffe197c5343c6f5aec59570151ef9a492f2c624fd45ddde6135ec4281565b34801561062e57600080fd5b50600a546106579074010000000000000000000000000000000000000000900463ffffffff1681565b60405163ffffffff90911681526020016102db565b34801561067857600080fd5b506102ad610687366004611958565b6111a4565b34801561069857600080fd5b506102ad6106a7366004611973565b611205565b3480156106b857600080fd5b506104a16106c736600461183a565b6006602052600090815260409020546001600160a01b031681565b3480156106ee57600080fd5b506008546104a1906001600160a01b031681565b34801561070e57600080fd5b506104a161071d366004611855565b61125e565b34801561072e57600080fd5b506104a161073d3660046117f9565b61127b565b34801561074e57600080fd5b506102cf61075d36600461186e565b60009182526004602090815260408084206001600160a01b0393909316845291905290205460ff1690565b34801561079457600080fd5b5061080d6107a336600461183a565b600c602052600090815260409020805460018201546002830154600384015460048501546005909501546001600160a01b039485169593949293919263ffffffff821691640100000000810490911690600160c01b810462ffffff1690600160d81b900460ff1689565b604080516001600160a01b039a8b16815260208101999099528801969096526060870194909452608086019290925263ffffffff1660a085015290931660c083015262ffffff90921660e0820152901515610100820152610120016102db565b34801561087957600080fd5b50600b546103d79060020b81565b34801561089357600080fd5b50610338600081565b3480156108a857600080fd5b50600a546104a1906001600160a01b031681565b3480156108c857600080fd5b506104a16108d7366004611855565b6001602052600090815260409020546001600160a01b031681565b3480156108fe57600080fd5b506007546104a1906001600160a01b031681565b34801561091e57600080fd5b506102ad61092d36600461186e565b611377565b60006109496000356001600160e01b03191661127b565b90506001600160a01b03811615801590610966575060005460ff16155b6109b25760405162461bcd60e51b815260206004820152601d60248201527f50726f78793a20696d706c204f522070726f78792069732066616c7365000000604482015260640161029c565b3660008037600080366000845af43d6000803e8080156109d1573d6000f35b3d6000fd5b505050565b60006001600160e01b03198216637965db0b60e01b1480610a0c57506301ffc9a760e01b6001600160e01b03198316145b92915050565b610a1b33610a8d565b610a605760405162461bcd60e51b81526020600482015260226024820152600080516020611b1b83398151915260448201526134b760f11b606482015260840161029c565b610a8a7fdf8b4c520ffe197c5343c6f5aec59570151ef9a492f2c624fd45ddde6135ec4282610af2565b50565b6001600160a01b03811660009081527f2fb794d17134dfdec181ddbac1babb5ab1eb140204ef4d982f294e7fc8b69022602052604081205460ff16610a0c565b600082815260046020526040902060010154610ae88161139c565b6109d683836113a6565b6001600160a01b0381163314610b705760405162461bcd60e51b815260206004820152602f60248201527f416363657373436f6e74726f6c3a2063616e206f6e6c792072656e6f756e636560448201527f20726f6c657320666f722073656c660000000000000000000000000000000000606482015260840161029c565b610b7a8282611448565b5050565b610b8733610a8d565b610bcc5760405162461bcd60e51b81526020600482015260226024820152600080516020611b1b83398151915260448201526134b760f11b606482015260840161029c565b6001600160a01b038116610c225760405162461bcd60e51b815260206004820152600d60248201527f696e707574206973207a65726f00000000000000000000000000000000000000604482015260640161029c565b6000805260016020527fa6eef7e35abe7026729641147f7915573c7e97b47efa546f5f6e3230263bcb49546001600160a01b03828116911603610c935760405162461bcd60e51b815260206004820152600960248201526839b0b6b29030b2323960b91b604482015260640161029c565b610ca081600060016114cb565b6040516001600160a01b038216907fbc7cd75a20ee27fd9adebab32041f755214dbc6bffa90cc0225b39da2e5c2d3b90600090a250565b610ce033610a8d565b610d255760405162461bcd60e51b81526020600482015260226024820152600080516020611b1b83398151915260448201526134b760f11b606482015260840161029c565b81610d725760405162461bcd60e51b815260206004820181905260248201527f50726f78793a205f73656c6563746f727327732073697a65206973207a65726f604482015260640161029c565b6001600160a01b03811660009081526002602052604090205460ff16610dda5760405162461bcd60e51b815260206004820152601860248201527f50726f78793a205f696d70206973206e6f7420616c6976650000000000000000604482015260640161029c565b60005b82811015610f7e57816001600160a01b031660036000868685818110610e0557610e056119a6565b9050602002016020810190610e1a91906117f9565b6001600160e01b03191681526020810191909152604001600020546001600160a01b031603610e8b5760405162461bcd60e51b815260206004820152601d60248201527f4c69717569646974795661756c7450726f78793a2073616d6520696d70000000604482015260640161029c565b8160036000868685818110610ea257610ea26119a6565b9050602002016020810190610eb791906117f9565b6001600160e01b03191681526020810191909152604001600020805473ffffffffffffffffffffffffffffffffffffffff19166001600160a01b039283161790558216848483818110610f0c57610f0c6119a6565b9050602002016020810190610f2191906117f9565b7bffffffffffffffffffffffffffffffffffffffffffffffffffffffff19167f14ebc1c32aa68f4d766e89f3e546cee249f7df25183fc10ab1568d91c2ce9b7b60405160405180910390a380610f76816119d2565b915050610ddd565b50505050565b610f8d33610a8d565b610fd25760405162461bcd60e51b81526020600482015260226024820152600080516020611b1b83398151915260448201526134b760f11b606482015260840161029c565b610b7a8282611563565b610fe533610a8d565b61102a5760405162461bcd60e51b81526020600482015260226024820152600080516020611b1b83398151915260448201526134b760f11b606482015260840161029c565b610a8a7fdf8b4c520ffe197c5343c6f5aec59570151ef9a492f2c624fd45ddde6135ec4282610acd565b61105d33610a8d565b6110a25760405162461bcd60e51b81526020600482015260226024820152600080516020611b1b83398151915260448201526134b760f11b606482015260840161029c565b6001600160a01b0381166110f85760405162461bcd60e51b815260206004820152601860248201527f41636365737369626c653a207a65726f20616464726573730000000000000000604482015260640161029c565b6001600160a01b03811633036111505760405162461bcd60e51b815260206004820152601660248201527f41636365737369626c653a2073616d652061646d696e00000000000000000000604482015260640161029c565b61117a7fdf8b4c520ffe197c5343c6f5aec59570151ef9a492f2c624fd45ddde6135ec4282610acd565b610a8a7fdf8b4c520ffe197c5343c6f5aec59570151ef9a492f2c624fd45ddde6135ec4233610af2565b6111ad33610a8d565b6111f25760405162461bcd60e51b81526020600482015260226024820152600080516020611b1b83398151915260448201526134b760f11b606482015260840161029c565b6000805460ff1916911515919091179055565b61120e33610a8d565b6112535760405162461bcd60e51b81526020600482015260226024820152600080516020611b1b83398151915260448201526134b760f11b606482015260840161029c565b6109d68383836114cb565b6000818152600160205260408120546001600160a01b0316610a0c565b6001600160e01b031981166000908152600360205260408120546001600160a01b03166112db5750506000805260016020527fa6eef7e35abe7026729641147f7915573c7e97b47efa546f5f6e3230263bcb49546001600160a01b031690565b6001600160e01b031982166000908152600360209081526040808320546001600160a01b03168352600290915290205460ff161561133957506001600160e01b0319166000908152600360205260409020546001600160a01b031690565b50506000805260016020527fa6eef7e35abe7026729641147f7915573c7e97b47efa546f5f6e3230263bcb49546001600160a01b031690565b919050565b6000828152600460205260409020600101546113928161139c565b6109d68383611448565b610a8a81336115c2565b60008281526004602090815260408083206001600160a01b038516845290915290205460ff16610b7a5760008281526004602090815260408083206001600160a01b03851684529091529020805460ff191660011790556114043390565b6001600160a01b0316816001600160a01b0316837f2f8788117e7eff1d82e926ec794901d17c78024a50270940304540a733656f0d60405160405180910390a45050565b60008281526004602090815260408083206001600160a01b038516845290915290205460ff1615610b7a5760008281526004602090815260408083206001600160a01b0385168085529252808320805460ff1916905551339285917ff6391f5c32d9c69d2a47ea670b442974b53935d1edc7fd64eb21e047a839171b9190a45050565b6001600160a01b0383163b6115225760405162461bcd60e51b815260206004820152601b60248201527f50726f78793a206e6f7420636f6e747261637420616464726573730000000000604482015260640161029c565b801561155d576000828152600160205260409020805473ffffffffffffffffffffffffffffffffffffffff19166001600160a01b0385161790555b6109d683825b6001600160a01b038216600081815260026020908152604091829020805460ff191685151590811790915591519182527f72558d9bfba4210f9ef095c782589484151f6d90f7a81bb3cb9b33efc695d324910160405180910390a25050565b60008281526004602090815260408083206001600160a01b038516845290915290205460ff16610b7a576115f581611637565b611600836020611649565b604051602001611611929190611a0f565b60408051601f198184030181529082905262461bcd60e51b825261029c91600401611a90565b6060610a0c6001600160a01b03831660145b60606000611658836002611ac3565b611663906002611ada565b67ffffffffffffffff81111561167b5761167b611aed565b6040519080825280601f01601f1916602001820160405280156116a5576020820181803683370190505b509050600360fc1b816000815181106116c0576116c06119a6565b60200101906001600160f81b031916908160001a905350600f60fb1b816001815181106116ef576116ef6119a6565b60200101906001600160f81b031916908160001a9053506000611713846002611ac3565b61171e906001611ada565b90505b60018111156117a3577f303132333435363738396162636465660000000000000000000000000000000085600f166010811061175f5761175f6119a6565b1a60f81b828281518110611775576117756119a6565b60200101906001600160f81b031916908160001a90535060049490941c9361179c81611b03565b9050611721565b5083156117f25760405162461bcd60e51b815260206004820181905260248201527f537472696e67733a20686578206c656e67746820696e73756666696369656e74604482015260640161029c565b9392505050565b60006020828403121561180b57600080fd5b81356001600160e01b0319811681146117f257600080fd5b80356001600160a01b038116811461137257600080fd5b60006020828403121561184c57600080fd5b6117f282611823565b60006020828403121561186757600080fd5b5035919050565b6000806040838503121561188157600080fd5b8235915061189160208401611823565b90509250929050565b6000806000604084860312156118af57600080fd5b833567ffffffffffffffff808211156118c757600080fd5b818601915086601f8301126118db57600080fd5b8135818111156118ea57600080fd5b8760208260051b85010111156118ff57600080fd5b6020928301955093506119159186019050611823565b90509250925092565b8035801515811461137257600080fd5b6000806040838503121561194157600080fd5b61194a83611823565b91506118916020840161191e565b60006020828403121561196a57600080fd5b6117f28261191e565b60008060006060848603121561198857600080fd5b61199184611823565b9250602084013591506119156040850161191e565b634e487b7160e01b600052603260045260246000fd5b634e487b7160e01b600052601160045260246000fd5b6000600182016119e4576119e46119bc565b5060010190565b60005b83811015611a065781810151838201526020016119ee565b50506000910152565b7f416363657373436f6e74726f6c3a206163636f756e7420000000000000000000815260008351611a478160178501602088016119eb565b7f206973206d697373696e6720726f6c65200000000000000000000000000000006017918401918201528351611a848160288401602088016119eb565b01602801949350505050565b6020815260008251806020840152611aaf8160408501602087016119eb565b601f01601f19169190910160400192915050565b8082028115828204841417610a0c57610a0c6119bc565b80820180821115610a0c57610a0c6119bc565b634e487b7160e01b600052604160045260246000fd5b600081611b1257611b126119bc565b50600019019056fe41636365737369626c653a2043616c6c6572206973206e6f7420616e2061646da164736f6c6343000812000adf8b4c520ffe197c5343c6f5aec59570151ef9a492f2c624fd45ddde6135ec42",
  "linkReferences": {},
  "deployedLinkReferences": {}
}