{
  "_format": "hh-sol-artifact-1",
  "contractName": "L2InitialLiquidityVaultProxy",
  "sourceName": "contracts/L2/vaults/L2InitialLiquidityVaultProxy.sol",
  "abi": [
    {
      "anonymous": false,
      "inputs": [
        {
          "indexed": false,
          "internalType": "address",
          "name": "l2Token",
          "type": "address"
        },
        {
          "indexed": false,
          "internalType": "address",
          "name": "to",
          "type": "address"
        },
        {
          "indexed": false,
          "internalType": "uint256",
          "name": "amount",
          "type": "uint256"
        }
      ],
      "name": "Claimed",
      "type": "event"
    },
    {
      "anonymous": false,
      "inputs": [
        {
          "indexed": true,
          "internalType": "bytes32",
          "name": "role",
          "type": "bytes32"
        },
        {
          "indexed": true,
          "internalType": "bytes32",
          "name": "previousAdminRole",
          "type": "bytes32"
        },
        {
          "indexed": true,
          "internalType": "bytes32",
          "name": "newAdminRole",
          "type": "bytes32"
        }
      ],
      "name": "RoleAdminChanged",
      "type": "event"
    },
    {
      "anonymous": false,
      "inputs": [
        {
          "indexed": true,
          "internalType": "bytes32",
          "name": "role",
          "type": "bytes32"
        },
        {
          "indexed": true,
          "internalType": "address",
          "name": "account",
          "type": "address"
        },
        {
          "indexed": true,
          "internalType": "address",
          "name": "sender",
          "type": "address"
        }
      ],
      "name": "RoleGranted",
      "type": "event"
    },
    {
      "anonymous": false,
      "inputs": [
        {
          "indexed": true,
          "internalType": "bytes32",
          "name": "role",
          "type": "bytes32"
        },
        {
          "indexed": true,
          "internalType": "address",
          "name": "account",
          "type": "address"
        },
        {
          "indexed": true,
          "internalType": "address",
          "name": "sender",
          "type": "address"
        }
      ],
      "name": "RoleRevoked",
      "type": "event"
    },
    {
      "anonymous": false,
      "inputs": [
        {
          "indexed": true,
          "internalType": "address",
          "name": "impl",
          "type": "address"
        },
        {
          "indexed": false,
          "internalType": "bool",
          "name": "alive",
          "type": "bool"
        }
      ],
      "name": "SetAliveImplementation",
      "type": "event"
    },
    {
      "anonymous": false,
      "inputs": [
        {
          "indexed": false,
          "internalType": "address",
          "name": "newInitializer",
          "type": "address"
        }
      ],
      "name": "SetInitializer",
      "type": "event"
    },
    {
      "anonymous": false,
      "inputs": [
        {
          "indexed": true,
          "internalType": "bytes4",
          "name": "selector",
          "type": "bytes4"
        },
        {
          "indexed": true,
          "internalType": "address",
          "name": "impl",
          "type": "address"
        }
      ],
      "name": "SetSelectorImplementation",
      "type": "event"
    },
    {
      "anonymous": false,
      "inputs": [
        {
          "indexed": false,
          "internalType": "address",
          "name": "l2Token",
          "type": "address"
        },
        {
          "indexed": false,
          "internalType": "address",
          "name": "newAdmin",
          "type": "address"
        }
      ],
      "name": "SetVaultAdmin",
      "type": "event"
    },
    {
      "anonymous": false,
      "inputs": [
        {
          "indexed": true,
          "internalType": "address",
          "name": "implementation",
          "type": "address"
        }
      ],
      "name": "Upgraded",
      "type": "event"
    },
    {
      "stateMutability": "payable",
      "type": "fallback"
    },
    {
      "inputs": [],
      "name": "ADMIN_ROLE",
      "outputs": [
        {
          "internalType": "bytes32",
          "name": "",
          "type": "bytes32"
        }
      ],
      "stateMutability": "view",
      "type": "function"
    },
    {
      "inputs": [],
      "name": "DEFAULT_ADMIN_ROLE",
      "outputs": [
        {
          "internalType": "bytes32",
          "name": "",
          "type": "bytes32"
        }
      ],
      "stateMutability": "view",
      "type": "function"
    },
    {
      "inputs": [],
      "name": "POLICY_ROLE",
      "outputs": [
        {
          "internalType": "bytes32",
          "name": "",
          "type": "bytes32"
        }
      ],
      "stateMutability": "view",
      "type": "function"
    },
    {
      "inputs": [],
      "name": "TWAP_PERIOD",
      "outputs": [
        {
          "internalType": "uint32",
          "name": "",
          "type": "uint32"
        }
      ],
      "stateMutability": "view",
      "type": "function"
    },
    {
      "inputs": [],
      "name": "acceptSlippagePrice",
      "outputs": [
        {
          "internalType": "int24",
          "name": "",
          "type": "int24"
        }
      ],
      "stateMutability": "view",
      "type": "function"
    },
    {
      "inputs": [],
      "name": "acceptTickChangeInterval",
      "outputs": [
        {
          "internalType": "int24",
          "name": "",
          "type": "int24"
        }
      ],
      "stateMutability": "view",
      "type": "function"
    },
    {
      "inputs": [
        {
          "internalType": "address",
          "name": "account",
          "type": "address"
        }
      ],
      "name": "addAdmin",
      "outputs": [],
      "stateMutability": "nonpayable",
      "type": "function"
    },
    {
      "inputs": [
        {
          "internalType": "address",
          "name": "",
          "type": "address"
        }
      ],
      "name": "aliveImplementation",
      "outputs": [
        {
          "internalType": "bool",
          "name": "",
          "type": "bool"
        }
      ],
      "stateMutability": "view",
      "type": "function"
    },
    {
      "inputs": [
        {
          "internalType": "bytes32",
          "name": "role",
          "type": "bytes32"
        }
      ],
      "name": "getRoleAdmin",
      "outputs": [
        {
          "internalType": "bytes32",
          "name": "",
          "type": "bytes32"
        }
      ],
      "stateMutability": "view",
      "type": "function"
    },
    {
      "inputs": [
        {
          "internalType": "bytes4",
          "name": "_selector",
          "type": "bytes4"
        }
      ],
      "name": "getSelectorImplementation2",
      "outputs": [
        {
          "internalType": "address",
          "name": "impl",
          "type": "address"
        }
      ],
      "stateMutability": "view",
      "type": "function"
    },
    {
      "inputs": [
        {
          "internalType": "bytes32",
          "name": "role",
          "type": "bytes32"
        },
        {
          "internalType": "address",
          "name": "account",
          "type": "address"
        }
      ],
      "name": "grantRole",
      "outputs": [],
      "stateMutability": "nonpayable",
      "type": "function"
    },
    {
      "inputs": [
        {
          "internalType": "bytes32",
          "name": "role",
          "type": "bytes32"
        },
        {
          "internalType": "address",
          "name": "account",
          "type": "address"
        }
      ],
      "name": "hasRole",
      "outputs": [
        {
          "internalType": "bool",
          "name": "",
          "type": "bool"
        }
      ],
      "stateMutability": "view",
      "type": "function"
    },
    {
      "inputs": [],
      "name": "implementation",
      "outputs": [
        {
          "internalType": "address",
          "name": "",
          "type": "address"
        }
      ],
      "stateMutability": "view",
      "type": "function"
    },
    {
      "inputs": [
        {
          "internalType": "uint256",
          "name": "_index",
          "type": "uint256"
        }
      ],
      "name": "implementation2",
      "outputs": [
        {
          "internalType": "address",
          "name": "",
          "type": "address"
        }
      ],
      "stateMutability": "view",
      "type": "function"
    },
    {
      "inputs": [],
      "name": "initializer",
      "outputs": [
        {
          "internalType": "address",
          "name": "",
          "type": "address"
        }
      ],
      "stateMutability": "view",
      "type": "function"
    },
    {
      "inputs": [
        {
          "internalType": "address",
          "name": "account",
          "type": "address"
        }
      ],
      "name": "isAdmin",
      "outputs": [
        {
          "internalType": "bool",
          "name": "",
          "type": "bool"
        }
      ],
      "stateMutability": "view",
      "type": "function"
    },
    {
      "inputs": [],
      "name": "l2ProjectManager",
      "outputs": [
        {
          "internalType": "address",
          "name": "",
          "type": "address"
        }
      ],
      "stateMutability": "view",
      "type": "function"
    },
    {
      "inputs": [],
      "name": "nonfungiblePositionManager",
      "outputs": [
        {
          "internalType": "address",
          "name": "",
          "type": "address"
        }
      ],
      "stateMutability": "view",
      "type": "function"
    },
    {
      "inputs": [],
      "name": "pauseProxy",
      "outputs": [
        {
          "internalType": "bool",
          "name": "",
          "type": "bool"
        }
      ],
      "stateMutability": "view",
      "type": "function"
    },
    {
      "inputs": [
        {
          "internalType": "address",
          "name": "",
          "type": "address"
        }
      ],
      "name": "poolInfo",
      "outputs": [
        {
          "internalType": "address",
          "name": "pool",
          "type": "address"
        },
        {
          "internalType": "uint256",
          "name": "totalAllocatedAmount",
          "type": "uint256"
        },
        {
          "internalType": "uint256",
          "name": "initialTosPrice",
          "type": "uint256"
        },
        {
          "internalType": "uint256",
          "name": "initialTokenPrice",
          "type": "uint256"
        },
        {
          "internalType": "uint256",
          "name": "lpToken",
          "type": "uint256"
        },
        {
          "internalType": "uint256",
          "name": "startTime",
          "type": "uint256"
        },
        {
          "internalType": "uint160",
          "name": "initSqrtPriceX96",
          "type": "uint160"
        },
        {
          "internalType": "uint24",
          "name": "fee",
          "type": "uint24"
        },
        {
          "internalType": "bool",
          "name": "boolReadyToCreatePool",
          "type": "bool"
        }
      ],
      "stateMutability": "view",
      "type": "function"
    },
    {
      "inputs": [
        {
          "internalType": "uint256",
          "name": "",
          "type": "uint256"
        }
      ],
      "name": "proxyImplementation",
      "outputs": [
        {
          "internalType": "address",
          "name": "",
          "type": "address"
        }
      ],
      "stateMutability": "view",
      "type": "function"
    },
    {
      "inputs": [
        {
          "internalType": "address",
          "name": "account",
          "type": "address"
        }
      ],
      "name": "removeAdmin",
      "outputs": [],
      "stateMutability": "nonpayable",
      "type": "function"
    },
    {
      "inputs": [
        {
          "internalType": "bytes32",
          "name": "role",
          "type": "bytes32"
        },
        {
          "internalType": "address",
          "name": "account",
          "type": "address"
        }
      ],
      "name": "renounceRole",
      "outputs": [],
      "stateMutability": "nonpayable",
      "type": "function"
    },
    {
      "inputs": [
        {
          "internalType": "bytes32",
          "name": "role",
          "type": "bytes32"
        },
        {
          "internalType": "address",
          "name": "account",
          "type": "address"
        }
      ],
      "name": "revokeRole",
      "outputs": [],
      "stateMutability": "nonpayable",
      "type": "function"
    },
    {
      "inputs": [
        {
          "internalType": "bytes4",
          "name": "",
          "type": "bytes4"
        }
      ],
      "name": "selectorImplementation",
      "outputs": [
        {
          "internalType": "address",
          "name": "",
          "type": "address"
        }
      ],
      "stateMutability": "view",
      "type": "function"
    },
    {
      "inputs": [
        {
          "internalType": "address",
          "name": "newImplementation",
          "type": "address"
        },
        {
          "internalType": "bool",
          "name": "_alive",
          "type": "bool"
        }
      ],
      "name": "setAliveImplementation2",
      "outputs": [],
      "stateMutability": "nonpayable",
      "type": "function"
    },
    {
      "inputs": [
        {
          "internalType": "address",
          "name": "newImplementation",
          "type": "address"
        },
        {
          "internalType": "uint256",
          "name": "_index",
          "type": "uint256"
        },
        {
          "internalType": "bool",
          "name": "_alive",
          "type": "bool"
        }
      ],
      "name": "setImplementation2",
      "outputs": [],
      "stateMutability": "nonpayable",
      "type": "function"
    },
    {
      "inputs": [
        {
          "internalType": "bool",
          "name": "_pause",
          "type": "bool"
        }
      ],
      "name": "setProxyPause",
      "outputs": [],
      "stateMutability": "nonpayable",
      "type": "function"
    },
    {
      "inputs": [
        {
          "internalType": "bytes4[]",
          "name": "_selectors",
          "type": "bytes4[]"
        },
        {
          "internalType": "address",
          "name": "_imp",
          "type": "address"
        }
      ],
      "name": "setSelectorImplementations2",
      "outputs": [],
      "stateMutability": "nonpayable",
      "type": "function"
    },
    {
      "inputs": [
        {
          "internalType": "bytes4",
          "name": "interfaceId",
          "type": "bytes4"
        }
      ],
      "name": "supportsInterface",
      "outputs": [
        {
          "internalType": "bool",
          "name": "",
          "type": "bool"
        }
      ],
      "stateMutability": "view",
      "type": "function"
    },
    {
      "inputs": [],
      "name": "tickIntervalMinimum",
      "outputs": [
        {
          "internalType": "int24",
          "name": "",
          "type": "int24"
        }
      ],
      "stateMutability": "view",
      "type": "function"
    },
    {
      "inputs": [],
      "name": "tickSpacings",
      "outputs": [
        {
          "internalType": "int24",
          "name": "",
          "type": "int24"
        }
      ],
      "stateMutability": "view",
      "type": "function"
    },
    {
      "inputs": [],
      "name": "ton",
      "outputs": [
        {
          "internalType": "address",
          "name": "",
          "type": "address"
        }
      ],
      "stateMutability": "view",
      "type": "function"
    },
    {
      "inputs": [],
      "name": "tos",
      "outputs": [
        {
          "internalType": "address",
          "name": "",
          "type": "address"
        }
      ],
      "stateMutability": "view",
      "type": "function"
    },
    {
      "inputs": [
        {
          "internalType": "address",
          "name": "newAdmin",
          "type": "address"
        }
      ],
      "name": "transferAdmin",
      "outputs": [],
      "stateMutability": "nonpayable",
      "type": "function"
    },
    {
      "inputs": [],
      "name": "uniswapV3Factory",
      "outputs": [
        {
          "internalType": "address",
          "name": "",
          "type": "address"
        }
      ],
      "stateMutability": "view",
      "type": "function"
    },
    {
      "inputs": [
        {
          "internalType": "address",
          "name": "impl",
          "type": "address"
        }
      ],
      "name": "upgradeTo",
      "outputs": [],
      "stateMutability": "nonpayable",
      "type": "function"
    },
    {
      "inputs": [
        {
          "internalType": "address",
          "name": "",
          "type": "address"
        }
      ],
      "name": "vaultAdminOfToken",
      "outputs": [
        {
          "internalType": "address",
          "name": "",
          "type": "address"
        }
      ],
      "stateMutability": "view",
      "type": "function"
    },
    {
      "stateMutability": "payable",
      "type": "receive"
    }
  ],
  "bytecode": "0x60806040526005805460ff191660011790553480156200001e57600080fd5b506200003a60008051602062001d08833981519152806200005b565b6200005560008051602062001d0883398151915233620000a6565b6200015a565b600082815260046020526040808220600101805490849055905190918391839186917fbd79b86ffe0ab8e8776151514217cd7cacd52c909f66475c3af44e129f0b00ff9190a4505050565b620000b28282620000b6565b5050565b60008281526004602090815260408083206001600160a01b038516845290915290205460ff16620000b25760008281526004602090815260408083206001600160a01b03851684529091529020805460ff19166001179055620001163390565b6001600160a01b0316816001600160a01b0316837f2f8788117e7eff1d82e926ec794901d17c78024a50270940304540a733656f0d60405160405180910390a45050565b611b9e806200016a6000396000f3fe6080604052600436106102895760003560e01c806370480275116101535780638d4fdb40116100cb578063a217fddf1161007f578063b911135f11610064578063b911135f14610913578063cc48b94714610949578063d547741f14610969576102db565b8063a217fddf146108de578063b44a2722146108f3576102db565b80639a7b5f11116100b05780639a7b5f11146107c75780639cbbbe861461089d5780639ce110d7146108be576102db565b80638d4fdb401461076157806391d1485414610781576102db565b80637cb00d25116101225780637fc46ba8116101075780637fc46ba8146106eb57806389f395de146107215780638b8f4a6514610741576102db565b80637cb00d25146106ab5780637cd5f663146106cb576102db565b806370480275146105fe57806375829def1461061e57806375b238fc1461063e5780637ca2518414610672576102db565b806345a4114811610201578063550d01a3116101b55780635c60da1b1161019a5780635c60da1b1461057e5780635cc797d8146105c457806363a8fd89146105e4576102db565b8063550d01a31461052e5780635b5491821461055e576102db565b806350d2a276116101e657806350d2a2761461049a57806352351e85146104e8578063526aef941461050d576102db565b806345a41148146104595780634a5df50f1461047a576102db565b806324d7806c1161025857806335d20f8a1161023d57806335d20f8a146103ec57806336568abe146104195780633659cfe614610439576102db565b806324d7806c146103ac5780632f2ff15d146103cc576102db565b806301ffc9a7146102e55780631785f53c1461031a578063229852461461033a578063248a9ca31461037c576102db565b366102db5760405162461bcd60e51b815260206004820152601460248201527f63616e6e6f74207265636569766520457468657200000000000000000000000060448201526064015b60405180910390fd5b6102e3610989565b005b3480156102f157600080fd5b50610305610300366004611850565b610a32565b60405190151581526020015b60405180910390f35b34801561032657600080fd5b506102e3610335366004611891565b610a69565b34801561034657600080fd5b5061036e7ffb5864e8ff833c3cb2d2d08505e82ff02a43554c74a35d4f5a64e8526127831181565b604051908152602001610311565b34801561038857600080fd5b5061036e6103973660046118ac565b60009081526004602052604090206001015490565b3480156103b857600080fd5b506103056103c7366004611891565b610ae4565b3480156103d857600080fd5b506102e36103e73660046118c5565b610b24565b3480156103f857600080fd5b50600c546104069060020b81565b60405160029190910b8152602001610311565b34801561042557600080fd5b506102e36104343660046118c5565b610b49565b34801561044557600080fd5b506102e3610454366004611891565b610bd5565b34801561046557600080fd5b50600b5461040690600160d81b900460020b81565b34801561048657600080fd5b506102e36104953660046118f1565b610d2e565b3480156104a657600080fd5b506104d06104b5366004611850565b6003602052600090815260409020546001600160a01b031681565b6040516001600160a01b039091168152602001610311565b3480156104f457600080fd5b506005546104d09061010090046001600160a01b031681565b34801561051957600080fd5b50600b5461040690600160c01b900460020b81565b34801561053a57600080fd5b50610305610549366004611891565b60026020526000908152604090205460ff1681565b34801561056a57600080fd5b50600a546104d0906001600160a01b031681565b34801561058a57600080fd5b506000805260016020527fa6eef7e35abe7026729641147f7915573c7e97b47efa546f5f6e3230263bcb49546001600160a01b03166104d0565b3480156105d057600080fd5b506102e36105df366004611985565b610fdb565b3480156105f057600080fd5b506000546103059060ff1681565b34801561060a57600080fd5b506102e3610619366004611891565b611033565b34801561062a57600080fd5b506102e3610639366004611891565b6110ab565b34801561064a57600080fd5b5061036e7fdf8b4c520ffe197c5343c6f5aec59570151ef9a492f2c624fd45ddde6135ec4281565b34801561067e57600080fd5b50600b5461069690600160a01b900463ffffffff1681565b60405163ffffffff9091168152602001610311565b3480156106b757600080fd5b506102e36106c63660046119af565b6111fb565b3480156106d757600080fd5b506102e36106e63660046119ca565b61125c565b3480156106f757600080fd5b506104d0610706366004611891565b6007602052600090815260409020546001600160a01b031681565b34801561072d57600080fd5b506009546104d0906001600160a01b031681565b34801561074d57600080fd5b506104d061075c3660046118ac565b6112b5565b34801561076d57600080fd5b506104d061077c366004611850565b6112d2565b34801561078d57600080fd5b5061030561079c3660046118c5565b60009182526004602090815260408084206001600160a01b0393909316845291905290205460ff1690565b3480156107d357600080fd5b506108436107e2366004611891565b600d6020526000908152604090208054600182015460028301546003840154600485015460058601546006909601546001600160a01b0395861696949593949293919291811690600160a01b810462ffffff1690600160b81b900460ff1689565b604080516001600160a01b039a8b16815260208101999099528801969096526060870194909452608086019290925260a085015290931660c083015262ffffff90921660e082015290151561010082015261012001610311565b3480156108a957600080fd5b50600c54610406906301000000900460020b81565b3480156108ca57600080fd5b506006546104d0906001600160a01b031681565b3480156108ea57600080fd5b5061036e600081565b3480156108ff57600080fd5b50600b546104d0906001600160a01b031681565b34801561091f57600080fd5b506104d061092e3660046118ac565b6001602052600090815260409020546001600160a01b031681565b34801561095557600080fd5b506008546104d0906001600160a01b031681565b34801561097557600080fd5b506102e36109843660046118c5565b6113ce565b60006109a06000356001600160e01b0319166112d2565b90506001600160a01b038116158015906109bd575060005460ff16155b610a095760405162461bcd60e51b815260206004820152601d60248201527f50726f78793a20696d706c204f522070726f78792069732066616c736500000060448201526064016102d2565b3660008037600080366000845af43d6000803e808015610a28573d6000f35b3d6000fd5b505050565b60006001600160e01b03198216637965db0b60e01b1480610a6357506301ffc9a760e01b6001600160e01b03198316145b92915050565b610a7233610ae4565b610ab75760405162461bcd60e51b81526020600482015260226024820152600080516020611b7283398151915260448201526134b760f11b60648201526084016102d2565b610ae17fdf8b4c520ffe197c5343c6f5aec59570151ef9a492f2c624fd45ddde6135ec4282610b49565b50565b6001600160a01b03811660009081527f2fb794d17134dfdec181ddbac1babb5ab1eb140204ef4d982f294e7fc8b69022602052604081205460ff16610a63565b600082815260046020526040902060010154610b3f816113f3565b610a2d83836113fd565b6001600160a01b0381163314610bc75760405162461bcd60e51b815260206004820152602f60248201527f416363657373436f6e74726f6c3a2063616e206f6e6c792072656e6f756e636560448201527f20726f6c657320666f722073656c66000000000000000000000000000000000060648201526084016102d2565b610bd1828261149f565b5050565b610bde33610ae4565b610c235760405162461bcd60e51b81526020600482015260226024820152600080516020611b7283398151915260448201526134b760f11b60648201526084016102d2565b6001600160a01b038116610c795760405162461bcd60e51b815260206004820152600d60248201527f696e707574206973207a65726f0000000000000000000000000000000000000060448201526064016102d2565b6000805260016020527fa6eef7e35abe7026729641147f7915573c7e97b47efa546f5f6e3230263bcb49546001600160a01b03828116911603610cea5760405162461bcd60e51b815260206004820152600960248201526839b0b6b29030b2323960b91b60448201526064016102d2565b610cf78160006001611522565b6040516001600160a01b038216907fbc7cd75a20ee27fd9adebab32041f755214dbc6bffa90cc0225b39da2e5c2d3b90600090a250565b610d3733610ae4565b610d7c5760405162461bcd60e51b81526020600482015260226024820152600080516020611b7283398151915260448201526134b760f11b60648201526084016102d2565b81610dc95760405162461bcd60e51b815260206004820181905260248201527f50726f78793a205f73656c6563746f727327732073697a65206973207a65726f60448201526064016102d2565b6001600160a01b03811660009081526002602052604090205460ff16610e315760405162461bcd60e51b815260206004820152601860248201527f50726f78793a205f696d70206973206e6f7420616c697665000000000000000060448201526064016102d2565b60005b82811015610fd557816001600160a01b031660036000868685818110610e5c57610e5c6119fd565b9050602002016020810190610e719190611850565b6001600160e01b03191681526020810191909152604001600020546001600160a01b031603610ee25760405162461bcd60e51b815260206004820152601d60248201527f4c69717569646974795661756c7450726f78793a2073616d6520696d7000000060448201526064016102d2565b8160036000868685818110610ef957610ef96119fd565b9050602002016020810190610f0e9190611850565b6001600160e01b03191681526020810191909152604001600020805473ffffffffffffffffffffffffffffffffffffffff19166001600160a01b039283161790558216848483818110610f6357610f636119fd565b9050602002016020810190610f789190611850565b7bffffffffffffffffffffffffffffffffffffffffffffffffffffffff19167f14ebc1c32aa68f4d766e89f3e546cee249f7df25183fc10ab1568d91c2ce9b7b60405160405180910390a380610fcd81611a29565b915050610e34565b50505050565b610fe433610ae4565b6110295760405162461bcd60e51b81526020600482015260226024820152600080516020611b7283398151915260448201526134b760f11b60648201526084016102d2565b610bd182826115ba565b61103c33610ae4565b6110815760405162461bcd60e51b81526020600482015260226024820152600080516020611b7283398151915260448201526134b760f11b60648201526084016102d2565b610ae17fdf8b4c520ffe197c5343c6f5aec59570151ef9a492f2c624fd45ddde6135ec4282610b24565b6110b433610ae4565b6110f95760405162461bcd60e51b81526020600482015260226024820152600080516020611b7283398151915260448201526134b760f11b60648201526084016102d2565b6001600160a01b03811661114f5760405162461bcd60e51b815260206004820152601860248201527f41636365737369626c653a207a65726f2061646472657373000000000000000060448201526064016102d2565b6001600160a01b03811633036111a75760405162461bcd60e51b815260206004820152601660248201527f41636365737369626c653a2073616d652061646d696e0000000000000000000060448201526064016102d2565b6111d17fdf8b4c520ffe197c5343c6f5aec59570151ef9a492f2c624fd45ddde6135ec4282610b24565b610ae17fdf8b4c520ffe197c5343c6f5aec59570151ef9a492f2c624fd45ddde6135ec4233610b49565b61120433610ae4565b6112495760405162461bcd60e51b81526020600482015260226024820152600080516020611b7283398151915260448201526134b760f11b60648201526084016102d2565b6000805460ff1916911515919091179055565b61126533610ae4565b6112aa5760405162461bcd60e51b81526020600482015260226024820152600080516020611b7283398151915260448201526134b760f11b60648201526084016102d2565b610a2d838383611522565b6000818152600160205260408120546001600160a01b0316610a63565b6001600160e01b031981166000908152600360205260408120546001600160a01b03166113325750506000805260016020527fa6eef7e35abe7026729641147f7915573c7e97b47efa546f5f6e3230263bcb49546001600160a01b031690565b6001600160e01b031982166000908152600360209081526040808320546001600160a01b03168352600290915290205460ff161561139057506001600160e01b0319166000908152600360205260409020546001600160a01b031690565b50506000805260016020527fa6eef7e35abe7026729641147f7915573c7e97b47efa546f5f6e3230263bcb49546001600160a01b031690565b919050565b6000828152600460205260409020600101546113e9816113f3565b610a2d838361149f565b610ae18133611619565b60008281526004602090815260408083206001600160a01b038516845290915290205460ff16610bd15760008281526004602090815260408083206001600160a01b03851684529091529020805460ff1916600117905561145b3390565b6001600160a01b0316816001600160a01b0316837f2f8788117e7eff1d82e926ec794901d17c78024a50270940304540a733656f0d60405160405180910390a45050565b60008281526004602090815260408083206001600160a01b038516845290915290205460ff1615610bd15760008281526004602090815260408083206001600160a01b0385168085529252808320805460ff1916905551339285917ff6391f5c32d9c69d2a47ea670b442974b53935d1edc7fd64eb21e047a839171b9190a45050565b6001600160a01b0383163b6115795760405162461bcd60e51b815260206004820152601b60248201527f50726f78793a206e6f7420636f6e74726163742061646472657373000000000060448201526064016102d2565b80156115b4576000828152600160205260409020805473ffffffffffffffffffffffffffffffffffffffff19166001600160a01b0385161790555b610a2d83825b6001600160a01b038216600081815260026020908152604091829020805460ff191685151590811790915591519182527f72558d9bfba4210f9ef095c782589484151f6d90f7a81bb3cb9b33efc695d324910160405180910390a25050565b60008281526004602090815260408083206001600160a01b038516845290915290205460ff16610bd15761164c8161168e565b6116578360206116a0565b604051602001611668929190611a66565b60408051601f198184030181529082905262461bcd60e51b82526102d291600401611ae7565b6060610a636001600160a01b03831660145b606060006116af836002611b1a565b6116ba906002611b31565b67ffffffffffffffff8111156116d2576116d2611b44565b6040519080825280601f01601f1916602001820160405280156116fc576020820181803683370190505b509050600360fc1b81600081518110611717576117176119fd565b60200101906001600160f81b031916908160001a905350600f60fb1b81600181518110611746576117466119fd565b60200101906001600160f81b031916908160001a905350600061176a846002611b1a565b611775906001611b31565b90505b60018111156117fa577f303132333435363738396162636465660000000000000000000000000000000085600f16601081106117b6576117b66119fd565b1a60f81b8282815181106117cc576117cc6119fd565b60200101906001600160f81b031916908160001a90535060049490941c936117f381611b5a565b9050611778565b5083156118495760405162461bcd60e51b815260206004820181905260248201527f537472696e67733a20686578206c656e67746820696e73756666696369656e7460448201526064016102d2565b9392505050565b60006020828403121561186257600080fd5b81356001600160e01b03198116811461184957600080fd5b80356001600160a01b03811681146113c957600080fd5b6000602082840312156118a357600080fd5b6118498261187a565b6000602082840312156118be57600080fd5b5035919050565b600080604083850312156118d857600080fd5b823591506118e86020840161187a565b90509250929050565b60008060006040848603121561190657600080fd5b833567ffffffffffffffff8082111561191e57600080fd5b818601915086601f83011261193257600080fd5b81358181111561194157600080fd5b8760208260051b850101111561195657600080fd5b60209283019550935061196c918601905061187a565b90509250925092565b803580151581146113c957600080fd5b6000806040838503121561199857600080fd5b6119a18361187a565b91506118e860208401611975565b6000602082840312156119c157600080fd5b61184982611975565b6000806000606084860312156119df57600080fd5b6119e88461187a565b92506020840135915061196c60408501611975565b634e487b7160e01b600052603260045260246000fd5b634e487b7160e01b600052601160045260246000fd5b600060018201611a3b57611a3b611a13565b5060010190565b60005b83811015611a5d578181015183820152602001611a45565b50506000910152565b7f416363657373436f6e74726f6c3a206163636f756e7420000000000000000000815260008351611a9e816017850160208801611a42565b7f206973206d697373696e6720726f6c65200000000000000000000000000000006017918401918201528351611adb816028840160208801611a42565b01602801949350505050565b6020815260008251806020840152611b06816040850160208701611a42565b601f01601f19169190910160400192915050565b8082028115828204841417610a6357610a63611a13565b80820180821115610a6357610a63611a13565b634e487b7160e01b600052604160045260246000fd5b600081611b6957611b69611a13565b50600019019056fe41636365737369626c653a2043616c6c6572206973206e6f7420616e2061646da164736f6c6343000812000adf8b4c520ffe197c5343c6f5aec59570151ef9a492f2c624fd45ddde6135ec42",
  "linkReferences": {},
  "deployedLinkReferences": {}
}