{
  "_format": "hh-sol-artifact-1",
  "contractName": "L2InitialLiquidityVaultProxy",
  "sourceName": "contracts/L2/vaults/L2InitialLiquidityVaultProxy.sol",
  "abi": [
    {
      "anonymous": false,
      "inputs": [
        {
          "indexed": true,
          "internalType": "bytes32",
          "name": "role",
          "type": "bytes32"
        },
        {
          "indexed": true,
          "internalType": "bytes32",
          "name": "previousAdminRole",
          "type": "bytes32"
        },
        {
          "indexed": true,
          "internalType": "bytes32",
          "name": "newAdminRole",
          "type": "bytes32"
        }
      ],
      "name": "RoleAdminChanged",
      "type": "event"
    },
    {
      "anonymous": false,
      "inputs": [
        {
          "indexed": true,
          "internalType": "bytes32",
          "name": "role",
          "type": "bytes32"
        },
        {
          "indexed": true,
          "internalType": "address",
          "name": "account",
          "type": "address"
        },
        {
          "indexed": true,
          "internalType": "address",
          "name": "sender",
          "type": "address"
        }
      ],
      "name": "RoleGranted",
      "type": "event"
    },
    {
      "anonymous": false,
      "inputs": [
        {
          "indexed": true,
          "internalType": "bytes32",
          "name": "role",
          "type": "bytes32"
        },
        {
          "indexed": true,
          "internalType": "address",
          "name": "account",
          "type": "address"
        },
        {
          "indexed": true,
          "internalType": "address",
          "name": "sender",
          "type": "address"
        }
      ],
      "name": "RoleRevoked",
      "type": "event"
    },
    {
      "anonymous": false,
      "inputs": [
        {
          "indexed": true,
          "internalType": "address",
          "name": "impl",
          "type": "address"
        },
        {
          "indexed": false,
          "internalType": "bool",
          "name": "alive",
          "type": "bool"
        }
      ],
      "name": "SetAliveImplementation",
      "type": "event"
    },
    {
      "anonymous": false,
      "inputs": [
        {
          "indexed": false,
          "internalType": "address",
          "name": "newInitializer",
          "type": "address"
        }
      ],
      "name": "SetInitializer",
      "type": "event"
    },
    {
      "anonymous": false,
      "inputs": [
        {
          "indexed": true,
          "internalType": "bytes4",
          "name": "selector",
          "type": "bytes4"
        },
        {
          "indexed": true,
          "internalType": "address",
          "name": "impl",
          "type": "address"
        }
      ],
      "name": "SetSelectorImplementation",
      "type": "event"
    },
    {
      "anonymous": false,
      "inputs": [
        {
          "indexed": false,
          "internalType": "address",
          "name": "l2Token",
          "type": "address"
        },
        {
          "indexed": false,
          "internalType": "address",
          "name": "newAdmin",
          "type": "address"
        }
      ],
      "name": "SetVaultAdmin",
      "type": "event"
    },
    {
      "anonymous": false,
      "inputs": [
        {
          "indexed": true,
          "internalType": "address",
          "name": "implementation",
          "type": "address"
        }
      ],
      "name": "Upgraded",
      "type": "event"
    },
    {
      "stateMutability": "payable",
      "type": "fallback"
    },
    {
      "inputs": [],
      "name": "ADMIN_ROLE",
      "outputs": [
        {
          "internalType": "bytes32",
          "name": "",
          "type": "bytes32"
        }
      ],
      "stateMutability": "view",
      "type": "function"
    },
    {
      "inputs": [],
      "name": "DEFAULT_ADMIN_ROLE",
      "outputs": [
        {
          "internalType": "bytes32",
          "name": "",
          "type": "bytes32"
        }
      ],
      "stateMutability": "view",
      "type": "function"
    },
    {
      "inputs": [],
      "name": "POLICY_ROLE",
      "outputs": [
        {
          "internalType": "bytes32",
          "name": "",
          "type": "bytes32"
        }
      ],
      "stateMutability": "view",
      "type": "function"
    },
    {
      "inputs": [],
      "name": "TWAP_PERIOD",
      "outputs": [
        {
          "internalType": "uint32",
          "name": "",
          "type": "uint32"
        }
      ],
      "stateMutability": "view",
      "type": "function"
    },
    {
      "inputs": [],
      "name": "acceptSlippagePrice",
      "outputs": [
        {
          "internalType": "int24",
          "name": "",
          "type": "int24"
        }
      ],
      "stateMutability": "view",
      "type": "function"
    },
    {
      "inputs": [],
      "name": "acceptTickChangeInterval",
      "outputs": [
        {
          "internalType": "int24",
          "name": "",
          "type": "int24"
        }
      ],
      "stateMutability": "view",
      "type": "function"
    },
    {
      "inputs": [
        {
          "internalType": "address",
          "name": "account",
          "type": "address"
        }
      ],
      "name": "addAdmin",
      "outputs": [],
      "stateMutability": "nonpayable",
      "type": "function"
    },
    {
      "inputs": [
        {
          "internalType": "address",
          "name": "",
          "type": "address"
        }
      ],
      "name": "aliveImplementation",
      "outputs": [
        {
          "internalType": "bool",
          "name": "",
          "type": "bool"
        }
      ],
      "stateMutability": "view",
      "type": "function"
    },
    {
      "inputs": [
        {
          "internalType": "bytes32",
          "name": "role",
          "type": "bytes32"
        }
      ],
      "name": "getRoleAdmin",
      "outputs": [
        {
          "internalType": "bytes32",
          "name": "",
          "type": "bytes32"
        }
      ],
      "stateMutability": "view",
      "type": "function"
    },
    {
      "inputs": [
        {
          "internalType": "bytes4",
          "name": "_selector",
          "type": "bytes4"
        }
      ],
      "name": "getSelectorImplementation2",
      "outputs": [
        {
          "internalType": "address",
          "name": "impl",
          "type": "address"
        }
      ],
      "stateMutability": "view",
      "type": "function"
    },
    {
      "inputs": [
        {
          "internalType": "bytes32",
          "name": "role",
          "type": "bytes32"
        },
        {
          "internalType": "address",
          "name": "account",
          "type": "address"
        }
      ],
      "name": "grantRole",
      "outputs": [],
      "stateMutability": "nonpayable",
      "type": "function"
    },
    {
      "inputs": [
        {
          "internalType": "bytes32",
          "name": "role",
          "type": "bytes32"
        },
        {
          "internalType": "address",
          "name": "account",
          "type": "address"
        }
      ],
      "name": "hasRole",
      "outputs": [
        {
          "internalType": "bool",
          "name": "",
          "type": "bool"
        }
      ],
      "stateMutability": "view",
      "type": "function"
    },
    {
      "inputs": [],
      "name": "implementation",
      "outputs": [
        {
          "internalType": "address",
          "name": "",
          "type": "address"
        }
      ],
      "stateMutability": "view",
      "type": "function"
    },
    {
      "inputs": [
        {
          "internalType": "uint256",
          "name": "_index",
          "type": "uint256"
        }
      ],
      "name": "implementation2",
      "outputs": [
        {
          "internalType": "address",
          "name": "",
          "type": "address"
        }
      ],
      "stateMutability": "view",
      "type": "function"
    },
    {
      "inputs": [],
      "name": "initializer",
      "outputs": [
        {
          "internalType": "address",
          "name": "",
          "type": "address"
        }
      ],
      "stateMutability": "view",
      "type": "function"
    },
    {
      "inputs": [
        {
          "internalType": "address",
          "name": "account",
          "type": "address"
        }
      ],
      "name": "isAdmin",
      "outputs": [
        {
          "internalType": "bool",
          "name": "",
          "type": "bool"
        }
      ],
      "stateMutability": "view",
      "type": "function"
    },
    {
      "inputs": [],
      "name": "l2ProjectManager",
      "outputs": [
        {
          "internalType": "address",
          "name": "",
          "type": "address"
        }
      ],
      "stateMutability": "view",
      "type": "function"
    },
    {
      "inputs": [],
      "name": "nonfungiblePositionManager",
      "outputs": [
        {
          "internalType": "address",
          "name": "",
          "type": "address"
        }
      ],
      "stateMutability": "view",
      "type": "function"
    },
    {
      "inputs": [],
      "name": "pauseProxy",
      "outputs": [
        {
          "internalType": "bool",
          "name": "",
          "type": "bool"
        }
      ],
      "stateMutability": "view",
      "type": "function"
    },
    {
      "inputs": [
        {
          "internalType": "address",
          "name": "",
          "type": "address"
        }
      ],
      "name": "poolInfo",
      "outputs": [
        {
          "internalType": "address",
          "name": "pool",
          "type": "address"
        },
        {
          "internalType": "uint256",
          "name": "totalAllocatedAmount",
          "type": "uint256"
        },
        {
          "internalType": "uint256",
          "name": "initialTosPrice",
          "type": "uint256"
        },
        {
          "internalType": "uint256",
          "name": "initialTokenPrice",
          "type": "uint256"
        },
        {
          "internalType": "uint256",
          "name": "lpToken",
          "type": "uint256"
        },
        {
          "internalType": "uint32",
          "name": "startTime",
          "type": "uint32"
        },
        {
          "internalType": "uint160",
          "name": "initSqrtPriceX96",
          "type": "uint160"
        },
        {
          "internalType": "uint24",
          "name": "fee",
          "type": "uint24"
        },
        {
          "internalType": "bool",
          "name": "boolReadyToCreatePool",
          "type": "bool"
        }
      ],
      "stateMutability": "view",
      "type": "function"
    },
    {
      "inputs": [
        {
          "internalType": "uint256",
          "name": "",
          "type": "uint256"
        }
      ],
      "name": "proxyImplementation",
      "outputs": [
        {
          "internalType": "address",
          "name": "",
          "type": "address"
        }
      ],
      "stateMutability": "view",
      "type": "function"
    },
    {
      "inputs": [
        {
          "internalType": "address",
          "name": "account",
          "type": "address"
        }
      ],
      "name": "removeAdmin",
      "outputs": [],
      "stateMutability": "nonpayable",
      "type": "function"
    },
    {
      "inputs": [
        {
          "internalType": "bytes32",
          "name": "role",
          "type": "bytes32"
        },
        {
          "internalType": "address",
          "name": "account",
          "type": "address"
        }
      ],
      "name": "renounceRole",
      "outputs": [],
      "stateMutability": "nonpayable",
      "type": "function"
    },
    {
      "inputs": [
        {
          "internalType": "bytes32",
          "name": "role",
          "type": "bytes32"
        },
        {
          "internalType": "address",
          "name": "account",
          "type": "address"
        }
      ],
      "name": "revokeRole",
      "outputs": [],
      "stateMutability": "nonpayable",
      "type": "function"
    },
    {
      "inputs": [
        {
          "internalType": "bytes4",
          "name": "",
          "type": "bytes4"
        }
      ],
      "name": "selectorImplementation",
      "outputs": [
        {
          "internalType": "address",
          "name": "",
          "type": "address"
        }
      ],
      "stateMutability": "view",
      "type": "function"
    },
    {
      "inputs": [
        {
          "internalType": "address",
          "name": "newImplementation",
          "type": "address"
        },
        {
          "internalType": "bool",
          "name": "_alive",
          "type": "bool"
        }
      ],
      "name": "setAliveImplementation2",
      "outputs": [],
      "stateMutability": "nonpayable",
      "type": "function"
    },
    {
      "inputs": [
        {
          "internalType": "address",
          "name": "newImplementation",
          "type": "address"
        },
        {
          "internalType": "uint256",
          "name": "_index",
          "type": "uint256"
        },
        {
          "internalType": "bool",
          "name": "_alive",
          "type": "bool"
        }
      ],
      "name": "setImplementation2",
      "outputs": [],
      "stateMutability": "nonpayable",
      "type": "function"
    },
    {
      "inputs": [
        {
          "internalType": "bool",
          "name": "_pause",
          "type": "bool"
        }
      ],
      "name": "setProxyPause",
      "outputs": [],
      "stateMutability": "nonpayable",
      "type": "function"
    },
    {
      "inputs": [
        {
          "internalType": "bytes4[]",
          "name": "_selectors",
          "type": "bytes4[]"
        },
        {
          "internalType": "address",
          "name": "_imp",
          "type": "address"
        }
      ],
      "name": "setSelectorImplementations2",
      "outputs": [],
      "stateMutability": "nonpayable",
      "type": "function"
    },
    {
      "inputs": [
        {
          "internalType": "bytes4",
          "name": "interfaceId",
          "type": "bytes4"
        }
      ],
      "name": "supportsInterface",
      "outputs": [
        {
          "internalType": "bool",
          "name": "",
          "type": "bool"
        }
      ],
      "stateMutability": "view",
      "type": "function"
    },
    {
      "inputs": [],
      "name": "tickSpacings",
      "outputs": [
        {
          "internalType": "int24",
          "name": "",
          "type": "int24"
        }
      ],
      "stateMutability": "view",
      "type": "function"
    },
    {
      "inputs": [],
      "name": "ton",
      "outputs": [
        {
          "internalType": "address",
          "name": "",
          "type": "address"
        }
      ],
      "stateMutability": "view",
      "type": "function"
    },
    {
      "inputs": [],
      "name": "tos",
      "outputs": [
        {
          "internalType": "address",
          "name": "",
          "type": "address"
        }
      ],
      "stateMutability": "view",
      "type": "function"
    },
    {
      "inputs": [
        {
          "internalType": "address",
          "name": "newAdmin",
          "type": "address"
        }
      ],
      "name": "transferAdmin",
      "outputs": [],
      "stateMutability": "nonpayable",
      "type": "function"
    },
    {
      "inputs": [],
      "name": "uniswapV3Factory",
      "outputs": [
        {
          "internalType": "address",
          "name": "",
          "type": "address"
        }
      ],
      "stateMutability": "view",
      "type": "function"
    },
    {
      "inputs": [
        {
          "internalType": "address",
          "name": "impl",
          "type": "address"
        }
      ],
      "name": "upgradeTo",
      "outputs": [],
      "stateMutability": "nonpayable",
      "type": "function"
    },
    {
      "inputs": [
        {
          "internalType": "address",
          "name": "",
          "type": "address"
        }
      ],
      "name": "vaultAdminOfToken",
      "outputs": [
        {
          "internalType": "address",
          "name": "",
          "type": "address"
        }
      ],
      "stateMutability": "view",
      "type": "function"
    },
    {
      "stateMutability": "payable",
      "type": "receive"
    }
  ],
  "bytecode": "0x60806040526005805460ff191660011790553480156200001e57600080fd5b506200003a60008051602062001cec833981519152806200005b565b6200005560008051602062001cec83398151915233620000a6565b6200015a565b600082815260046020526040808220600101805490849055905190918391839186917fbd79b86ffe0ab8e8776151514217cd7cacd52c909f66475c3af44e129f0b00ff9190a4505050565b620000b28282620000b6565b5050565b60008281526004602090815260408083206001600160a01b038516845290915290205460ff16620000b25760008281526004602090815260408083206001600160a01b03851684529091529020805460ff19166001179055620001163390565b6001600160a01b0316816001600160a01b0316837f2f8788117e7eff1d82e926ec794901d17c78024a50270940304540a733656f0d60405160405180910390a45050565b611b82806200016a6000396000f3fe60806040526004361061026e5760003560e01c806370480275116101535780638d4fdb40116100cb578063a217fddf1161007f578063b911135f11610064578063b911135f146108f7578063cc48b9471461092d578063d547741f1461094d576102c0565b8063a217fddf146108c2578063b44a2722146108d7576102c0565b80639a7b5f11116100b05780639a7b5f11146107a35780639cbbbe86146108885780639ce110d7146108a2576102c0565b80638d4fdb401461073d57806391d148541461075d576102c0565b80637cb00d25116101225780637fc46ba8116101075780637fc46ba8146106c757806389f395de146106fd5780638b8f4a651461071d576102c0565b80637cb00d25146106875780637cd5f663146106a7576102c0565b806370480275146105c957806375829def146105e957806375b238fc146106095780637ca251841461063d576102c0565b806345a41148116101e6578063550d01a3116101b55780635c60da1b1161019a5780635c60da1b146105495780635cc797d81461058f57806363a8fd89146105af576102c0565b8063550d01a3146104f95780635b54918214610529576102c0565b806345a41148146104455780634a5df50f1461046657806350d2a2761461048657806352351e85146104d4576102c0565b806324d7806c1161023d57806335d20f8a1161022257806335d20f8a146103d157806336568abe146104055780633659cfe614610425576102c0565b806324d7806c146103915780632f2ff15d146103b1576102c0565b806301ffc9a7146102ca5780631785f53c146102ff578063229852461461031f578063248a9ca314610361576102c0565b366102c05760405162461bcd60e51b815260206004820152601460248201527f63616e6e6f74207265636569766520457468657200000000000000000000000060448201526064015b60405180910390fd5b6102c861096d565b005b3480156102d657600080fd5b506102ea6102e5366004611834565b610a16565b60405190151581526020015b60405180910390f35b34801561030b57600080fd5b506102c861031a366004611875565b610a4d565b34801561032b57600080fd5b506103537ffb5864e8ff833c3cb2d2d08505e82ff02a43554c74a35d4f5a64e8526127831181565b6040519081526020016102f6565b34801561036d57600080fd5b5061035361037c366004611890565b60009081526004602052604090206001015490565b34801561039d57600080fd5b506102ea6103ac366004611875565b610ac8565b3480156103bd57600080fd5b506102c86103cc3660046118a9565b610b08565b3480156103dd57600080fd5b50600b546103f290600160d81b900460020b81565b60405160029190910b81526020016102f6565b34801561041157600080fd5b506102c86104203660046118a9565b610b2d565b34801561043157600080fd5b506102c8610440366004611875565b610bb9565b34801561045157600080fd5b50600b546103f290600160c01b900460020b81565b34801561047257600080fd5b506102c86104813660046118d5565b610d12565b34801561049257600080fd5b506104bc6104a1366004611834565b6003602052600090815260409020546001600160a01b031681565b6040516001600160a01b0390911681526020016102f6565b3480156104e057600080fd5b506005546104bc9061010090046001600160a01b031681565b34801561050557600080fd5b506102ea610514366004611875565b60026020526000908152604090205460ff1681565b34801561053557600080fd5b50600a546104bc906001600160a01b031681565b34801561055557600080fd5b506000805260016020527fa6eef7e35abe7026729641147f7915573c7e97b47efa546f5f6e3230263bcb49546001600160a01b03166104bc565b34801561059b57600080fd5b506102c86105aa366004611969565b610fbf565b3480156105bb57600080fd5b506000546102ea9060ff1681565b3480156105d557600080fd5b506102c86105e4366004611875565b611017565b3480156105f557600080fd5b506102c8610604366004611875565b61108f565b34801561061557600080fd5b506103537fdf8b4c520ffe197c5343c6f5aec59570151ef9a492f2c624fd45ddde6135ec4281565b34801561064957600080fd5b50600b546106729074010000000000000000000000000000000000000000900463ffffffff1681565b60405163ffffffff90911681526020016102f6565b34801561069357600080fd5b506102c86106a2366004611993565b6111df565b3480156106b357600080fd5b506102c86106c23660046119ae565b611240565b3480156106d357600080fd5b506104bc6106e2366004611875565b6007602052600090815260409020546001600160a01b031681565b34801561070957600080fd5b506009546104bc906001600160a01b031681565b34801561072957600080fd5b506104bc610738366004611890565b611299565b34801561074957600080fd5b506104bc610758366004611834565b6112b6565b34801561076957600080fd5b506102ea6107783660046118a9565b60009182526004602090815260408084206001600160a01b0393909316845291905290205460ff1690565b3480156107af57600080fd5b506108286107be366004611875565b600d602052600090815260409020805460018201546002830154600384015460048501546005909501546001600160a01b039485169593949293919263ffffffff821691640100000000810490911690600160c01b810462ffffff1690600160d81b900460ff1689565b604080516001600160a01b039a8b16815260208101999099528801969096526060870194909452608086019290925263ffffffff1660a085015290931660c083015262ffffff90921660e0820152901515610100820152610120016102f6565b34801561089457600080fd5b50600c546103f29060020b81565b3480156108ae57600080fd5b506006546104bc906001600160a01b031681565b3480156108ce57600080fd5b50610353600081565b3480156108e357600080fd5b50600b546104bc906001600160a01b031681565b34801561090357600080fd5b506104bc610912366004611890565b6001602052600090815260409020546001600160a01b031681565b34801561093957600080fd5b506008546104bc906001600160a01b031681565b34801561095957600080fd5b506102c86109683660046118a9565b6113b2565b60006109846000356001600160e01b0319166112b6565b90506001600160a01b038116158015906109a1575060005460ff16155b6109ed5760405162461bcd60e51b815260206004820152601d60248201527f50726f78793a20696d706c204f522070726f78792069732066616c736500000060448201526064016102b7565b3660008037600080366000845af43d6000803e808015610a0c573d6000f35b3d6000fd5b505050565b60006001600160e01b03198216637965db0b60e01b1480610a4757506301ffc9a760e01b6001600160e01b03198316145b92915050565b610a5633610ac8565b610a9b5760405162461bcd60e51b81526020600482015260226024820152600080516020611b5683398151915260448201526134b760f11b60648201526084016102b7565b610ac57fdf8b4c520ffe197c5343c6f5aec59570151ef9a492f2c624fd45ddde6135ec4282610b2d565b50565b6001600160a01b03811660009081527f2fb794d17134dfdec181ddbac1babb5ab1eb140204ef4d982f294e7fc8b69022602052604081205460ff16610a47565b600082815260046020526040902060010154610b23816113d7565b610a1183836113e1565b6001600160a01b0381163314610bab5760405162461bcd60e51b815260206004820152602f60248201527f416363657373436f6e74726f6c3a2063616e206f6e6c792072656e6f756e636560448201527f20726f6c657320666f722073656c66000000000000000000000000000000000060648201526084016102b7565b610bb58282611483565b5050565b610bc233610ac8565b610c075760405162461bcd60e51b81526020600482015260226024820152600080516020611b5683398151915260448201526134b760f11b60648201526084016102b7565b6001600160a01b038116610c5d5760405162461bcd60e51b815260206004820152600d60248201527f696e707574206973207a65726f0000000000000000000000000000000000000060448201526064016102b7565b6000805260016020527fa6eef7e35abe7026729641147f7915573c7e97b47efa546f5f6e3230263bcb49546001600160a01b03828116911603610cce5760405162461bcd60e51b815260206004820152600960248201526839b0b6b29030b2323960b91b60448201526064016102b7565b610cdb8160006001611506565b6040516001600160a01b038216907fbc7cd75a20ee27fd9adebab32041f755214dbc6bffa90cc0225b39da2e5c2d3b90600090a250565b610d1b33610ac8565b610d605760405162461bcd60e51b81526020600482015260226024820152600080516020611b5683398151915260448201526134b760f11b60648201526084016102b7565b81610dad5760405162461bcd60e51b815260206004820181905260248201527f50726f78793a205f73656c6563746f727327732073697a65206973207a65726f60448201526064016102b7565b6001600160a01b03811660009081526002602052604090205460ff16610e155760405162461bcd60e51b815260206004820152601860248201527f50726f78793a205f696d70206973206e6f7420616c697665000000000000000060448201526064016102b7565b60005b82811015610fb957816001600160a01b031660036000868685818110610e4057610e406119e1565b9050602002016020810190610e559190611834565b6001600160e01b03191681526020810191909152604001600020546001600160a01b031603610ec65760405162461bcd60e51b815260206004820152601d60248201527f4c69717569646974795661756c7450726f78793a2073616d6520696d7000000060448201526064016102b7565b8160036000868685818110610edd57610edd6119e1565b9050602002016020810190610ef29190611834565b6001600160e01b03191681526020810191909152604001600020805473ffffffffffffffffffffffffffffffffffffffff19166001600160a01b039283161790558216848483818110610f4757610f476119e1565b9050602002016020810190610f5c9190611834565b7bffffffffffffffffffffffffffffffffffffffffffffffffffffffff19167f14ebc1c32aa68f4d766e89f3e546cee249f7df25183fc10ab1568d91c2ce9b7b60405160405180910390a380610fb181611a0d565b915050610e18565b50505050565b610fc833610ac8565b61100d5760405162461bcd60e51b81526020600482015260226024820152600080516020611b5683398151915260448201526134b760f11b60648201526084016102b7565b610bb5828261159e565b61102033610ac8565b6110655760405162461bcd60e51b81526020600482015260226024820152600080516020611b5683398151915260448201526134b760f11b60648201526084016102b7565b610ac57fdf8b4c520ffe197c5343c6f5aec59570151ef9a492f2c624fd45ddde6135ec4282610b08565b61109833610ac8565b6110dd5760405162461bcd60e51b81526020600482015260226024820152600080516020611b5683398151915260448201526134b760f11b60648201526084016102b7565b6001600160a01b0381166111335760405162461bcd60e51b815260206004820152601860248201527f41636365737369626c653a207a65726f2061646472657373000000000000000060448201526064016102b7565b6001600160a01b038116330361118b5760405162461bcd60e51b815260206004820152601660248201527f41636365737369626c653a2073616d652061646d696e0000000000000000000060448201526064016102b7565b6111b57fdf8b4c520ffe197c5343c6f5aec59570151ef9a492f2c624fd45ddde6135ec4282610b08565b610ac57fdf8b4c520ffe197c5343c6f5aec59570151ef9a492f2c624fd45ddde6135ec4233610b2d565b6111e833610ac8565b61122d5760405162461bcd60e51b81526020600482015260226024820152600080516020611b5683398151915260448201526134b760f11b60648201526084016102b7565b6000805460ff1916911515919091179055565b61124933610ac8565b61128e5760405162461bcd60e51b81526020600482015260226024820152600080516020611b5683398151915260448201526134b760f11b60648201526084016102b7565b610a11838383611506565b6000818152600160205260408120546001600160a01b0316610a47565b6001600160e01b031981166000908152600360205260408120546001600160a01b03166113165750506000805260016020527fa6eef7e35abe7026729641147f7915573c7e97b47efa546f5f6e3230263bcb49546001600160a01b031690565b6001600160e01b031982166000908152600360209081526040808320546001600160a01b03168352600290915290205460ff161561137457506001600160e01b0319166000908152600360205260409020546001600160a01b031690565b50506000805260016020527fa6eef7e35abe7026729641147f7915573c7e97b47efa546f5f6e3230263bcb49546001600160a01b031690565b919050565b6000828152600460205260409020600101546113cd816113d7565b610a118383611483565b610ac581336115fd565b60008281526004602090815260408083206001600160a01b038516845290915290205460ff16610bb55760008281526004602090815260408083206001600160a01b03851684529091529020805460ff1916600117905561143f3390565b6001600160a01b0316816001600160a01b0316837f2f8788117e7eff1d82e926ec794901d17c78024a50270940304540a733656f0d60405160405180910390a45050565b60008281526004602090815260408083206001600160a01b038516845290915290205460ff1615610bb55760008281526004602090815260408083206001600160a01b0385168085529252808320805460ff1916905551339285917ff6391f5c32d9c69d2a47ea670b442974b53935d1edc7fd64eb21e047a839171b9190a45050565b6001600160a01b0383163b61155d5760405162461bcd60e51b815260206004820152601b60248201527f50726f78793a206e6f7420636f6e74726163742061646472657373000000000060448201526064016102b7565b8015611598576000828152600160205260409020805473ffffffffffffffffffffffffffffffffffffffff19166001600160a01b0385161790555b610a1183825b6001600160a01b038216600081815260026020908152604091829020805460ff191685151590811790915591519182527f72558d9bfba4210f9ef095c782589484151f6d90f7a81bb3cb9b33efc695d324910160405180910390a25050565b60008281526004602090815260408083206001600160a01b038516845290915290205460ff16610bb55761163081611672565b61163b836020611684565b60405160200161164c929190611a4a565b60408051601f198184030181529082905262461bcd60e51b82526102b791600401611acb565b6060610a476001600160a01b03831660145b60606000611693836002611afe565b61169e906002611b15565b67ffffffffffffffff8111156116b6576116b6611b28565b6040519080825280601f01601f1916602001820160405280156116e0576020820181803683370190505b509050600360fc1b816000815181106116fb576116fb6119e1565b60200101906001600160f81b031916908160001a905350600f60fb1b8160018151811061172a5761172a6119e1565b60200101906001600160f81b031916908160001a905350600061174e846002611afe565b611759906001611b15565b90505b60018111156117de577f303132333435363738396162636465660000000000000000000000000000000085600f166010811061179a5761179a6119e1565b1a60f81b8282815181106117b0576117b06119e1565b60200101906001600160f81b031916908160001a90535060049490941c936117d781611b3e565b905061175c565b50831561182d5760405162461bcd60e51b815260206004820181905260248201527f537472696e67733a20686578206c656e67746820696e73756666696369656e7460448201526064016102b7565b9392505050565b60006020828403121561184657600080fd5b81356001600160e01b03198116811461182d57600080fd5b80356001600160a01b03811681146113ad57600080fd5b60006020828403121561188757600080fd5b61182d8261185e565b6000602082840312156118a257600080fd5b5035919050565b600080604083850312156118bc57600080fd5b823591506118cc6020840161185e565b90509250929050565b6000806000604084860312156118ea57600080fd5b833567ffffffffffffffff8082111561190257600080fd5b818601915086601f83011261191657600080fd5b81358181111561192557600080fd5b8760208260051b850101111561193a57600080fd5b602092830195509350611950918601905061185e565b90509250925092565b803580151581146113ad57600080fd5b6000806040838503121561197c57600080fd5b6119858361185e565b91506118cc60208401611959565b6000602082840312156119a557600080fd5b61182d82611959565b6000806000606084860312156119c357600080fd5b6119cc8461185e565b92506020840135915061195060408501611959565b634e487b7160e01b600052603260045260246000fd5b634e487b7160e01b600052601160045260246000fd5b600060018201611a1f57611a1f6119f7565b5060010190565b60005b83811015611a41578181015183820152602001611a29565b50506000910152565b7f416363657373436f6e74726f6c3a206163636f756e7420000000000000000000815260008351611a82816017850160208801611a26565b7f206973206d697373696e6720726f6c65200000000000000000000000000000006017918401918201528351611abf816028840160208801611a26565b01602801949350505050565b6020815260008251806020840152611aea816040850160208701611a26565b601f01601f19169190910160400192915050565b8082028115828204841417610a4757610a476119f7565b80820180821115610a4757610a476119f7565b634e487b7160e01b600052604160045260246000fd5b600081611b4d57611b4d6119f7565b50600019019056fe41636365737369626c653a2043616c6c6572206973206e6f7420616e2061646da164736f6c6343000812000adf8b4c520ffe197c5343c6f5aec59570151ef9a492f2c624fd45ddde6135ec42",
  "linkReferences": {},
  "deployedLinkReferences": {}
}