{
  "_format": "hh-sol-artifact-1",
  "contractName": "L2InitialLiquidityVaultProxy",
  "sourceName": "contracts/L2/vaults/L2InitialLiquidityVaultProxy.sol",
  "abi": [
    {
      "anonymous": false,
      "inputs": [
        {
          "indexed": true,
          "internalType": "bytes32",
          "name": "role",
          "type": "bytes32"
        },
        {
          "indexed": true,
          "internalType": "bytes32",
          "name": "previousAdminRole",
          "type": "bytes32"
        },
        {
          "indexed": true,
          "internalType": "bytes32",
          "name": "newAdminRole",
          "type": "bytes32"
        }
      ],
      "name": "RoleAdminChanged",
      "type": "event"
    },
    {
      "anonymous": false,
      "inputs": [
        {
          "indexed": true,
          "internalType": "bytes32",
          "name": "role",
          "type": "bytes32"
        },
        {
          "indexed": true,
          "internalType": "address",
          "name": "account",
          "type": "address"
        },
        {
          "indexed": true,
          "internalType": "address",
          "name": "sender",
          "type": "address"
        }
      ],
      "name": "RoleGranted",
      "type": "event"
    },
    {
      "anonymous": false,
      "inputs": [
        {
          "indexed": true,
          "internalType": "bytes32",
          "name": "role",
          "type": "bytes32"
        },
        {
          "indexed": true,
          "internalType": "address",
          "name": "account",
          "type": "address"
        },
        {
          "indexed": true,
          "internalType": "address",
          "name": "sender",
          "type": "address"
        }
      ],
      "name": "RoleRevoked",
      "type": "event"
    },
    {
      "anonymous": false,
      "inputs": [
        {
          "indexed": true,
          "internalType": "address",
          "name": "impl",
          "type": "address"
        },
        {
          "indexed": false,
          "internalType": "bool",
          "name": "alive",
          "type": "bool"
        }
      ],
      "name": "SetAliveImplementation",
      "type": "event"
    },
    {
      "anonymous": false,
      "inputs": [
        {
          "indexed": false,
          "internalType": "address",
          "name": "newInitializer",
          "type": "address"
        }
      ],
      "name": "SetInitializer",
      "type": "event"
    },
    {
      "anonymous": false,
      "inputs": [
        {
          "indexed": true,
          "internalType": "bytes4",
          "name": "selector",
          "type": "bytes4"
        },
        {
          "indexed": true,
          "internalType": "address",
          "name": "impl",
          "type": "address"
        }
      ],
      "name": "SetSelectorImplementation",
      "type": "event"
    },
    {
      "anonymous": false,
      "inputs": [
        {
          "indexed": false,
          "internalType": "address",
          "name": "l2Token",
          "type": "address"
        },
        {
          "indexed": false,
          "internalType": "address",
          "name": "newAdmin",
          "type": "address"
        }
      ],
      "name": "SetVaultAdmin",
      "type": "event"
    },
    {
      "anonymous": false,
      "inputs": [
        {
          "indexed": true,
          "internalType": "address",
          "name": "implementation",
          "type": "address"
        }
      ],
      "name": "Upgraded",
      "type": "event"
    },
    {
      "stateMutability": "payable",
      "type": "fallback"
    },
    {
      "inputs": [],
      "name": "ADMIN_ROLE",
      "outputs": [
        {
          "internalType": "bytes32",
          "name": "",
          "type": "bytes32"
        }
      ],
      "stateMutability": "view",
      "type": "function"
    },
    {
      "inputs": [],
      "name": "DEFAULT_ADMIN_ROLE",
      "outputs": [
        {
          "internalType": "bytes32",
          "name": "",
          "type": "bytes32"
        }
      ],
      "stateMutability": "view",
      "type": "function"
    },
    {
      "inputs": [],
      "name": "POLICY_ROLE",
      "outputs": [
        {
          "internalType": "bytes32",
          "name": "",
          "type": "bytes32"
        }
      ],
      "stateMutability": "view",
      "type": "function"
    },
    {
      "inputs": [],
      "name": "TWAP_PERIOD",
      "outputs": [
        {
          "internalType": "uint32",
          "name": "",
          "type": "uint32"
        }
      ],
      "stateMutability": "view",
      "type": "function"
    },
    {
      "inputs": [],
      "name": "acceptSlippagePrice",
      "outputs": [
        {
          "internalType": "int24",
          "name": "",
          "type": "int24"
        }
      ],
      "stateMutability": "view",
      "type": "function"
    },
    {
      "inputs": [],
      "name": "acceptTickChangeInterval",
      "outputs": [
        {
          "internalType": "int24",
          "name": "",
          "type": "int24"
        }
      ],
      "stateMutability": "view",
      "type": "function"
    },
    {
      "inputs": [
        {
          "internalType": "address",
          "name": "account",
          "type": "address"
        }
      ],
      "name": "addAdmin",
      "outputs": [],
      "stateMutability": "nonpayable",
      "type": "function"
    },
    {
      "inputs": [
        {
          "internalType": "address",
          "name": "",
          "type": "address"
        }
      ],
      "name": "aliveImplementation",
      "outputs": [
        {
          "internalType": "bool",
          "name": "",
          "type": "bool"
        }
      ],
      "stateMutability": "view",
      "type": "function"
    },
    {
      "inputs": [
        {
          "internalType": "bytes32",
          "name": "role",
          "type": "bytes32"
        }
      ],
      "name": "getRoleAdmin",
      "outputs": [
        {
          "internalType": "bytes32",
          "name": "",
          "type": "bytes32"
        }
      ],
      "stateMutability": "view",
      "type": "function"
    },
    {
      "inputs": [
        {
          "internalType": "bytes4",
          "name": "_selector",
          "type": "bytes4"
        }
      ],
      "name": "getSelectorImplementation2",
      "outputs": [
        {
          "internalType": "address",
          "name": "impl",
          "type": "address"
        }
      ],
      "stateMutability": "view",
      "type": "function"
    },
    {
      "inputs": [
        {
          "internalType": "bytes32",
          "name": "role",
          "type": "bytes32"
        },
        {
          "internalType": "address",
          "name": "account",
          "type": "address"
        }
      ],
      "name": "grantRole",
      "outputs": [],
      "stateMutability": "nonpayable",
      "type": "function"
    },
    {
      "inputs": [
        {
          "internalType": "bytes32",
          "name": "role",
          "type": "bytes32"
        },
        {
          "internalType": "address",
          "name": "account",
          "type": "address"
        }
      ],
      "name": "hasRole",
      "outputs": [
        {
          "internalType": "bool",
          "name": "",
          "type": "bool"
        }
      ],
      "stateMutability": "view",
      "type": "function"
    },
    {
      "inputs": [],
      "name": "implementation",
      "outputs": [
        {
          "internalType": "address",
          "name": "",
          "type": "address"
        }
      ],
      "stateMutability": "view",
      "type": "function"
    },
    {
      "inputs": [
        {
          "internalType": "uint256",
          "name": "_index",
          "type": "uint256"
        }
      ],
      "name": "implementation2",
      "outputs": [
        {
          "internalType": "address",
          "name": "",
          "type": "address"
        }
      ],
      "stateMutability": "view",
      "type": "function"
    },
    {
      "inputs": [],
      "name": "initializer",
      "outputs": [
        {
          "internalType": "address",
          "name": "",
          "type": "address"
        }
      ],
      "stateMutability": "view",
      "type": "function"
    },
    {
      "inputs": [
        {
          "internalType": "address",
          "name": "account",
          "type": "address"
        }
      ],
      "name": "isAdmin",
      "outputs": [
        {
          "internalType": "bool",
          "name": "",
          "type": "bool"
        }
      ],
      "stateMutability": "view",
      "type": "function"
    },
    {
      "inputs": [],
      "name": "l2ProjectManager",
      "outputs": [
        {
          "internalType": "address",
          "name": "",
          "type": "address"
        }
      ],
      "stateMutability": "view",
      "type": "function"
    },
    {
      "inputs": [],
      "name": "nonfungiblePositionManager",
      "outputs": [
        {
          "internalType": "address",
          "name": "",
          "type": "address"
        }
      ],
      "stateMutability": "view",
      "type": "function"
    },
    {
      "inputs": [],
      "name": "pauseProxy",
      "outputs": [
        {
          "internalType": "bool",
          "name": "",
          "type": "bool"
        }
      ],
      "stateMutability": "view",
      "type": "function"
    },
    {
      "inputs": [
        {
          "internalType": "address",
          "name": "",
          "type": "address"
        }
      ],
      "name": "poolInfo",
      "outputs": [
        {
          "internalType": "address",
          "name": "pool",
          "type": "address"
        },
        {
          "internalType": "uint256",
          "name": "totalAllocatedAmount",
          "type": "uint256"
        },
        {
          "internalType": "uint256",
          "name": "initialTosPrice",
          "type": "uint256"
        },
        {
          "internalType": "uint256",
          "name": "initialTokenPrice",
          "type": "uint256"
        },
        {
          "internalType": "uint256",
          "name": "lpToken",
          "type": "uint256"
        },
        {
          "internalType": "uint256",
          "name": "startTime",
          "type": "uint256"
        },
        {
          "internalType": "uint160",
          "name": "initSqrtPriceX96",
          "type": "uint160"
        },
        {
          "internalType": "uint24",
          "name": "fee",
          "type": "uint24"
        },
        {
          "internalType": "bool",
          "name": "boolReadyToCreatePool",
          "type": "bool"
        }
      ],
      "stateMutability": "view",
      "type": "function"
    },
    {
      "inputs": [
        {
          "internalType": "uint256",
          "name": "",
          "type": "uint256"
        }
      ],
      "name": "proxyImplementation",
      "outputs": [
        {
          "internalType": "address",
          "name": "",
          "type": "address"
        }
      ],
      "stateMutability": "view",
      "type": "function"
    },
    {
      "inputs": [
        {
          "internalType": "address",
          "name": "account",
          "type": "address"
        }
      ],
      "name": "removeAdmin",
      "outputs": [],
      "stateMutability": "nonpayable",
      "type": "function"
    },
    {
      "inputs": [
        {
          "internalType": "bytes32",
          "name": "role",
          "type": "bytes32"
        },
        {
          "internalType": "address",
          "name": "account",
          "type": "address"
        }
      ],
      "name": "renounceRole",
      "outputs": [],
      "stateMutability": "nonpayable",
      "type": "function"
    },
    {
      "inputs": [
        {
          "internalType": "bytes32",
          "name": "role",
          "type": "bytes32"
        },
        {
          "internalType": "address",
          "name": "account",
          "type": "address"
        }
      ],
      "name": "revokeRole",
      "outputs": [],
      "stateMutability": "nonpayable",
      "type": "function"
    },
    {
      "inputs": [
        {
          "internalType": "bytes4",
          "name": "",
          "type": "bytes4"
        }
      ],
      "name": "selectorImplementation",
      "outputs": [
        {
          "internalType": "address",
          "name": "",
          "type": "address"
        }
      ],
      "stateMutability": "view",
      "type": "function"
    },
    {
      "inputs": [
        {
          "internalType": "address",
          "name": "newImplementation",
          "type": "address"
        },
        {
          "internalType": "bool",
          "name": "_alive",
          "type": "bool"
        }
      ],
      "name": "setAliveImplementation2",
      "outputs": [],
      "stateMutability": "nonpayable",
      "type": "function"
    },
    {
      "inputs": [
        {
          "internalType": "address",
          "name": "newImplementation",
          "type": "address"
        },
        {
          "internalType": "uint256",
          "name": "_index",
          "type": "uint256"
        },
        {
          "internalType": "bool",
          "name": "_alive",
          "type": "bool"
        }
      ],
      "name": "setImplementation2",
      "outputs": [],
      "stateMutability": "nonpayable",
      "type": "function"
    },
    {
      "inputs": [
        {
          "internalType": "bool",
          "name": "_pause",
          "type": "bool"
        }
      ],
      "name": "setProxyPause",
      "outputs": [],
      "stateMutability": "nonpayable",
      "type": "function"
    },
    {
      "inputs": [
        {
          "internalType": "bytes4[]",
          "name": "_selectors",
          "type": "bytes4[]"
        },
        {
          "internalType": "address",
          "name": "_imp",
          "type": "address"
        }
      ],
      "name": "setSelectorImplementations2",
      "outputs": [],
      "stateMutability": "nonpayable",
      "type": "function"
    },
    {
      "inputs": [
        {
          "internalType": "bytes4",
          "name": "interfaceId",
          "type": "bytes4"
        }
      ],
      "name": "supportsInterface",
      "outputs": [
        {
          "internalType": "bool",
          "name": "",
          "type": "bool"
        }
      ],
      "stateMutability": "view",
      "type": "function"
    },
    {
      "inputs": [],
      "name": "tickSpacings",
      "outputs": [
        {
          "internalType": "int24",
          "name": "",
          "type": "int24"
        }
      ],
      "stateMutability": "view",
      "type": "function"
    },
    {
      "inputs": [],
      "name": "ton",
      "outputs": [
        {
          "internalType": "address",
          "name": "",
          "type": "address"
        }
      ],
      "stateMutability": "view",
      "type": "function"
    },
    {
      "inputs": [],
      "name": "tos",
      "outputs": [
        {
          "internalType": "address",
          "name": "",
          "type": "address"
        }
      ],
      "stateMutability": "view",
      "type": "function"
    },
    {
      "inputs": [
        {
          "internalType": "address",
          "name": "newAdmin",
          "type": "address"
        }
      ],
      "name": "transferAdmin",
      "outputs": [],
      "stateMutability": "nonpayable",
      "type": "function"
    },
    {
      "inputs": [],
      "name": "uniswapV3Factory",
      "outputs": [
        {
          "internalType": "address",
          "name": "",
          "type": "address"
        }
      ],
      "stateMutability": "view",
      "type": "function"
    },
    {
      "inputs": [
        {
          "internalType": "address",
          "name": "impl",
          "type": "address"
        }
      ],
      "name": "upgradeTo",
      "outputs": [],
      "stateMutability": "nonpayable",
      "type": "function"
    },
    {
      "inputs": [
        {
          "internalType": "address",
          "name": "",
          "type": "address"
        }
      ],
      "name": "vaultAdminOfToken",
      "outputs": [
        {
          "internalType": "address",
          "name": "",
          "type": "address"
        }
      ],
      "stateMutability": "view",
      "type": "function"
    },
    {
      "stateMutability": "payable",
      "type": "receive"
    }
  ],
  "bytecode": "0x60806040526005805460ff191660011790553480156200001e57600080fd5b506200003a60008051602062001ccc833981519152806200005b565b6200005560008051602062001ccc83398151915233620000a6565b6200015a565b600082815260046020526040808220600101805490849055905190918391839186917fbd79b86ffe0ab8e8776151514217cd7cacd52c909f66475c3af44e129f0b00ff9190a4505050565b620000b28282620000b6565b5050565b60008281526004602090815260408083206001600160a01b038516845290915290205460ff16620000b25760008281526004602090815260408083206001600160a01b03851684529091529020805460ff19166001179055620001163390565b6001600160a01b0316816001600160a01b0316837f2f8788117e7eff1d82e926ec794901d17c78024a50270940304540a733656f0d60405160405180910390a45050565b611b62806200016a6000396000f3fe60806040526004361061026e5760003560e01c806370480275116101535780638d4fdb40116100cb578063a217fddf1161007f578063b911135f11610064578063b911135f146108d7578063cc48b9471461090d578063d547741f1461092d576102c0565b8063a217fddf146108a2578063b44a2722146108b7576102c0565b80639a7b5f11116100b05780639a7b5f11146107925780639cbbbe86146108685780639ce110d714610882576102c0565b80638d4fdb401461072c57806391d148541461074c576102c0565b80637cb00d25116101225780637fc46ba8116101075780637fc46ba8146106b657806389f395de146106ec5780638b8f4a651461070c576102c0565b80637cb00d25146106765780637cd5f66314610696576102c0565b806370480275146105c957806375829def146105e957806375b238fc146106095780637ca251841461063d576102c0565b806345a41148116101e6578063550d01a3116101b55780635c60da1b1161019a5780635c60da1b146105495780635cc797d81461058f57806363a8fd89146105af576102c0565b8063550d01a3146104f95780635b54918214610529576102c0565b806345a41148146104455780634a5df50f1461046657806350d2a2761461048657806352351e85146104d4576102c0565b806324d7806c1161023d57806335d20f8a1161022257806335d20f8a146103d157806336568abe146104055780633659cfe614610425576102c0565b806324d7806c146103915780632f2ff15d146103b1576102c0565b806301ffc9a7146102ca5780631785f53c146102ff578063229852461461031f578063248a9ca314610361576102c0565b366102c05760405162461bcd60e51b815260206004820152601460248201527f63616e6e6f74207265636569766520457468657200000000000000000000000060448201526064015b60405180910390fd5b6102c861094d565b005b3480156102d657600080fd5b506102ea6102e5366004611814565b6109f6565b60405190151581526020015b60405180910390f35b34801561030b57600080fd5b506102c861031a366004611855565b610a2d565b34801561032b57600080fd5b506103537ffb5864e8ff833c3cb2d2d08505e82ff02a43554c74a35d4f5a64e8526127831181565b6040519081526020016102f6565b34801561036d57600080fd5b5061035361037c366004611870565b60009081526004602052604090206001015490565b34801561039d57600080fd5b506102ea6103ac366004611855565b610aa8565b3480156103bd57600080fd5b506102c86103cc366004611889565b610ae8565b3480156103dd57600080fd5b50600b546103f290600160d81b900460020b81565b60405160029190910b81526020016102f6565b34801561041157600080fd5b506102c8610420366004611889565b610b0d565b34801561043157600080fd5b506102c8610440366004611855565b610b99565b34801561045157600080fd5b50600b546103f290600160c01b900460020b81565b34801561047257600080fd5b506102c86104813660046118b5565b610cf2565b34801561049257600080fd5b506104bc6104a1366004611814565b6003602052600090815260409020546001600160a01b031681565b6040516001600160a01b0390911681526020016102f6565b3480156104e057600080fd5b506005546104bc9061010090046001600160a01b031681565b34801561050557600080fd5b506102ea610514366004611855565b60026020526000908152604090205460ff1681565b34801561053557600080fd5b50600a546104bc906001600160a01b031681565b34801561055557600080fd5b506000805260016020527fa6eef7e35abe7026729641147f7915573c7e97b47efa546f5f6e3230263bcb49546001600160a01b03166104bc565b34801561059b57600080fd5b506102c86105aa366004611949565b610f9f565b3480156105bb57600080fd5b506000546102ea9060ff1681565b3480156105d557600080fd5b506102c86105e4366004611855565b610ff7565b3480156105f557600080fd5b506102c8610604366004611855565b61106f565b34801561061557600080fd5b506103537fdf8b4c520ffe197c5343c6f5aec59570151ef9a492f2c624fd45ddde6135ec4281565b34801561064957600080fd5b50600b5461066190600160a01b900463ffffffff1681565b60405163ffffffff90911681526020016102f6565b34801561068257600080fd5b506102c8610691366004611973565b6111bf565b3480156106a257600080fd5b506102c86106b136600461198e565b611220565b3480156106c257600080fd5b506104bc6106d1366004611855565b6007602052600090815260409020546001600160a01b031681565b3480156106f857600080fd5b506009546104bc906001600160a01b031681565b34801561071857600080fd5b506104bc610727366004611870565b611279565b34801561073857600080fd5b506104bc610747366004611814565b611296565b34801561075857600080fd5b506102ea610767366004611889565b60009182526004602090815260408084206001600160a01b0393909316845291905290205460ff1690565b34801561079e57600080fd5b5061080e6107ad366004611855565b600d6020526000908152604090208054600182015460028301546003840154600485015460058601546006909601546001600160a01b0395861696949593949293919291811690600160a01b810462ffffff1690600160b81b900460ff1689565b604080516001600160a01b039a8b16815260208101999099528801969096526060870194909452608086019290925260a085015290931660c083015262ffffff90921660e0820152901515610100820152610120016102f6565b34801561087457600080fd5b50600c546103f29060020b81565b34801561088e57600080fd5b506006546104bc906001600160a01b031681565b3480156108ae57600080fd5b50610353600081565b3480156108c357600080fd5b50600b546104bc906001600160a01b031681565b3480156108e357600080fd5b506104bc6108f2366004611870565b6001602052600090815260409020546001600160a01b031681565b34801561091957600080fd5b506008546104bc906001600160a01b031681565b34801561093957600080fd5b506102c8610948366004611889565b611392565b60006109646000356001600160e01b031916611296565b90506001600160a01b03811615801590610981575060005460ff16155b6109cd5760405162461bcd60e51b815260206004820152601d60248201527f50726f78793a20696d706c204f522070726f78792069732066616c736500000060448201526064016102b7565b3660008037600080366000845af43d6000803e8080156109ec573d6000f35b3d6000fd5b505050565b60006001600160e01b03198216637965db0b60e01b1480610a2757506301ffc9a760e01b6001600160e01b03198316145b92915050565b610a3633610aa8565b610a7b5760405162461bcd60e51b81526020600482015260226024820152600080516020611b3683398151915260448201526134b760f11b60648201526084016102b7565b610aa57fdf8b4c520ffe197c5343c6f5aec59570151ef9a492f2c624fd45ddde6135ec4282610b0d565b50565b6001600160a01b03811660009081527f2fb794d17134dfdec181ddbac1babb5ab1eb140204ef4d982f294e7fc8b69022602052604081205460ff16610a27565b600082815260046020526040902060010154610b03816113b7565b6109f183836113c1565b6001600160a01b0381163314610b8b5760405162461bcd60e51b815260206004820152602f60248201527f416363657373436f6e74726f6c3a2063616e206f6e6c792072656e6f756e636560448201527f20726f6c657320666f722073656c66000000000000000000000000000000000060648201526084016102b7565b610b958282611463565b5050565b610ba233610aa8565b610be75760405162461bcd60e51b81526020600482015260226024820152600080516020611b3683398151915260448201526134b760f11b60648201526084016102b7565b6001600160a01b038116610c3d5760405162461bcd60e51b815260206004820152600d60248201527f696e707574206973207a65726f0000000000000000000000000000000000000060448201526064016102b7565b6000805260016020527fa6eef7e35abe7026729641147f7915573c7e97b47efa546f5f6e3230263bcb49546001600160a01b03828116911603610cae5760405162461bcd60e51b815260206004820152600960248201526839b0b6b29030b2323960b91b60448201526064016102b7565b610cbb81600060016114e6565b6040516001600160a01b038216907fbc7cd75a20ee27fd9adebab32041f755214dbc6bffa90cc0225b39da2e5c2d3b90600090a250565b610cfb33610aa8565b610d405760405162461bcd60e51b81526020600482015260226024820152600080516020611b3683398151915260448201526134b760f11b60648201526084016102b7565b81610d8d5760405162461bcd60e51b815260206004820181905260248201527f50726f78793a205f73656c6563746f727327732073697a65206973207a65726f60448201526064016102b7565b6001600160a01b03811660009081526002602052604090205460ff16610df55760405162461bcd60e51b815260206004820152601860248201527f50726f78793a205f696d70206973206e6f7420616c697665000000000000000060448201526064016102b7565b60005b82811015610f9957816001600160a01b031660036000868685818110610e2057610e206119c1565b9050602002016020810190610e359190611814565b6001600160e01b03191681526020810191909152604001600020546001600160a01b031603610ea65760405162461bcd60e51b815260206004820152601d60248201527f4c69717569646974795661756c7450726f78793a2073616d6520696d7000000060448201526064016102b7565b8160036000868685818110610ebd57610ebd6119c1565b9050602002016020810190610ed29190611814565b6001600160e01b03191681526020810191909152604001600020805473ffffffffffffffffffffffffffffffffffffffff19166001600160a01b039283161790558216848483818110610f2757610f276119c1565b9050602002016020810190610f3c9190611814565b7bffffffffffffffffffffffffffffffffffffffffffffffffffffffff19167f14ebc1c32aa68f4d766e89f3e546cee249f7df25183fc10ab1568d91c2ce9b7b60405160405180910390a380610f91816119ed565b915050610df8565b50505050565b610fa833610aa8565b610fed5760405162461bcd60e51b81526020600482015260226024820152600080516020611b3683398151915260448201526134b760f11b60648201526084016102b7565b610b95828261157e565b61100033610aa8565b6110455760405162461bcd60e51b81526020600482015260226024820152600080516020611b3683398151915260448201526134b760f11b60648201526084016102b7565b610aa57fdf8b4c520ffe197c5343c6f5aec59570151ef9a492f2c624fd45ddde6135ec4282610ae8565b61107833610aa8565b6110bd5760405162461bcd60e51b81526020600482015260226024820152600080516020611b3683398151915260448201526134b760f11b60648201526084016102b7565b6001600160a01b0381166111135760405162461bcd60e51b815260206004820152601860248201527f41636365737369626c653a207a65726f2061646472657373000000000000000060448201526064016102b7565b6001600160a01b038116330361116b5760405162461bcd60e51b815260206004820152601660248201527f41636365737369626c653a2073616d652061646d696e0000000000000000000060448201526064016102b7565b6111957fdf8b4c520ffe197c5343c6f5aec59570151ef9a492f2c624fd45ddde6135ec4282610ae8565b610aa57fdf8b4c520ffe197c5343c6f5aec59570151ef9a492f2c624fd45ddde6135ec4233610b0d565b6111c833610aa8565b61120d5760405162461bcd60e51b81526020600482015260226024820152600080516020611b3683398151915260448201526134b760f11b60648201526084016102b7565b6000805460ff1916911515919091179055565b61122933610aa8565b61126e5760405162461bcd60e51b81526020600482015260226024820152600080516020611b3683398151915260448201526134b760f11b60648201526084016102b7565b6109f18383836114e6565b6000818152600160205260408120546001600160a01b0316610a27565b6001600160e01b031981166000908152600360205260408120546001600160a01b03166112f65750506000805260016020527fa6eef7e35abe7026729641147f7915573c7e97b47efa546f5f6e3230263bcb49546001600160a01b031690565b6001600160e01b031982166000908152600360209081526040808320546001600160a01b03168352600290915290205460ff161561135457506001600160e01b0319166000908152600360205260409020546001600160a01b031690565b50506000805260016020527fa6eef7e35abe7026729641147f7915573c7e97b47efa546f5f6e3230263bcb49546001600160a01b031690565b919050565b6000828152600460205260409020600101546113ad816113b7565b6109f18383611463565b610aa581336115dd565b60008281526004602090815260408083206001600160a01b038516845290915290205460ff16610b955760008281526004602090815260408083206001600160a01b03851684529091529020805460ff1916600117905561141f3390565b6001600160a01b0316816001600160a01b0316837f2f8788117e7eff1d82e926ec794901d17c78024a50270940304540a733656f0d60405160405180910390a45050565b60008281526004602090815260408083206001600160a01b038516845290915290205460ff1615610b955760008281526004602090815260408083206001600160a01b0385168085529252808320805460ff1916905551339285917ff6391f5c32d9c69d2a47ea670b442974b53935d1edc7fd64eb21e047a839171b9190a45050565b6001600160a01b0383163b61153d5760405162461bcd60e51b815260206004820152601b60248201527f50726f78793a206e6f7420636f6e74726163742061646472657373000000000060448201526064016102b7565b8015611578576000828152600160205260409020805473ffffffffffffffffffffffffffffffffffffffff19166001600160a01b0385161790555b6109f183825b6001600160a01b038216600081815260026020908152604091829020805460ff191685151590811790915591519182527f72558d9bfba4210f9ef095c782589484151f6d90f7a81bb3cb9b33efc695d324910160405180910390a25050565b60008281526004602090815260408083206001600160a01b038516845290915290205460ff16610b955761161081611652565b61161b836020611664565b60405160200161162c929190611a2a565b60408051601f198184030181529082905262461bcd60e51b82526102b791600401611aab565b6060610a276001600160a01b03831660145b60606000611673836002611ade565b61167e906002611af5565b67ffffffffffffffff81111561169657611696611b08565b6040519080825280601f01601f1916602001820160405280156116c0576020820181803683370190505b509050600360fc1b816000815181106116db576116db6119c1565b60200101906001600160f81b031916908160001a905350600f60fb1b8160018151811061170a5761170a6119c1565b60200101906001600160f81b031916908160001a905350600061172e846002611ade565b611739906001611af5565b90505b60018111156117be577f303132333435363738396162636465660000000000000000000000000000000085600f166010811061177a5761177a6119c1565b1a60f81b828281518110611790576117906119c1565b60200101906001600160f81b031916908160001a90535060049490941c936117b781611b1e565b905061173c565b50831561180d5760405162461bcd60e51b815260206004820181905260248201527f537472696e67733a20686578206c656e67746820696e73756666696369656e7460448201526064016102b7565b9392505050565b60006020828403121561182657600080fd5b81356001600160e01b03198116811461180d57600080fd5b80356001600160a01b038116811461138d57600080fd5b60006020828403121561186757600080fd5b61180d8261183e565b60006020828403121561188257600080fd5b5035919050565b6000806040838503121561189c57600080fd5b823591506118ac6020840161183e565b90509250929050565b6000806000604084860312156118ca57600080fd5b833567ffffffffffffffff808211156118e257600080fd5b818601915086601f8301126118f657600080fd5b81358181111561190557600080fd5b8760208260051b850101111561191a57600080fd5b602092830195509350611930918601905061183e565b90509250925092565b8035801515811461138d57600080fd5b6000806040838503121561195c57600080fd5b6119658361183e565b91506118ac60208401611939565b60006020828403121561198557600080fd5b61180d82611939565b6000806000606084860312156119a357600080fd5b6119ac8461183e565b92506020840135915061193060408501611939565b634e487b7160e01b600052603260045260246000fd5b634e487b7160e01b600052601160045260246000fd5b6000600182016119ff576119ff6119d7565b5060010190565b60005b83811015611a21578181015183820152602001611a09565b50506000910152565b7f416363657373436f6e74726f6c3a206163636f756e7420000000000000000000815260008351611a62816017850160208801611a06565b7f206973206d697373696e6720726f6c65200000000000000000000000000000006017918401918201528351611a9f816028840160208801611a06565b01602801949350505050565b6020815260008251806020840152611aca816040850160208701611a06565b601f01601f19169190910160400192915050565b8082028115828204841417610a2757610a276119d7565b80820180821115610a2757610a276119d7565b634e487b7160e01b600052604160045260246000fd5b600081611b2d57611b2d6119d7565b50600019019056fe41636365737369626c653a2043616c6c6572206973206e6f7420616e2061646da164736f6c6343000812000adf8b4c520ffe197c5343c6f5aec59570151ef9a492f2c624fd45ddde6135ec42",
  "linkReferences": {},
  "deployedLinkReferences": {}
}