{
  "_format": "hh-sol-artifact-1",
  "contractName": "L2DividendPoolForStosStorage",
  "sourceName": "contracts/L2/airdrop/L2DividendPoolForStosStorage.sol",
  "abi": [
    {
      "inputs": [
        {
          "internalType": "uint256",
          "name": "",
          "type": "uint256"
        }
      ],
      "name": "distributedTokens",
      "outputs": [
        {
          "internalType": "address",
          "name": "",
          "type": "address"
        }
      ],
      "stateMutability": "view",
      "type": "function"
    },
    {
      "inputs": [
        {
          "internalType": "address",
          "name": "",
          "type": "address"
        }
      ],
      "name": "distributions",
      "outputs": [
        {
          "internalType": "bool",
          "name": "exists",
          "type": "bool"
        },
        {
          "internalType": "uint256",
          "name": "totalDistribution",
          "type": "uint256"
        },
        {
          "internalType": "uint256",
          "name": "lastBalance",
          "type": "uint256"
        }
      ],
      "stateMutability": "view",
      "type": "function"
    },
    {
      "inputs": [],
      "name": "epochUnit",
      "outputs": [
        {
          "internalType": "uint256",
          "name": "",
          "type": "uint256"
        }
      ],
      "stateMutability": "view",
      "type": "function"
    },
    {
      "inputs": [
        {
          "internalType": "address",
          "name": "",
          "type": "address"
        }
      ],
      "name": "genesis",
      "outputs": [
        {
          "internalType": "uint256",
          "name": "",
          "type": "uint256"
        }
      ],
      "stateMutability": "view",
      "type": "function"
    },
    {
      "inputs": [],
      "name": "universalStos",
      "outputs": [
        {
          "internalType": "address",
          "name": "",
          "type": "address"
        }
      ],
      "stateMutability": "view",
      "type": "function"
    }
  ],
  "bytecode": "0x608060405234801561001057600080fd5b506101b6806100206000396000f3fe608060405234801561001057600080fd5b50600436106100675760003560e01c80639353b9df116100505780639353b9df146100ca578063c83d3c471461011a578063fd2dcecf1461012d57600080fd5b806337a155031461006c578063772225091461009c575b600080fd5b61007f61007a366004610160565b610136565b6040516001600160a01b0390911681526020015b60405180910390f35b6100bc6100aa366004610179565b60026020526000908152604090205481565b604051908152602001610093565b6100fd6100d8366004610179565b60036020526000908152604090208054600182015460029092015460ff909116919083565b604080519315158452602084019290925290820152606001610093565b60005461007f906001600160a01b031681565b6100bc60015481565b6006818154811061014657600080fd5b6000918252602090912001546001600160a01b0316905081565b60006020828403121561017257600080fd5b5035919050565b60006020828403121561018b57600080fd5b81356001600160a01b03811681146101a257600080fd5b939250505056fea164736f6c6343000812000a",
  "linkReferences": {},
  "deployedLinkReferences": {}
}