{
  "_format": "hh-sol-artifact-1",
  "contractName": "LockIdNFTProxy",
  "sourceName": "contracts/stos/LockIdNFTProxy.sol",
  "abi": [
    {
      "inputs": [
        {
          "internalType": "string",
          "name": "name_",
          "type": "string"
        },
        {
          "internalType": "string",
          "name": "symbol_",
          "type": "string"
        },
        {
          "internalType": "address",
          "name": "managerAddress",
          "type": "address"
        }
      ],
      "stateMutability": "nonpayable",
      "type": "constructor"
    },
    {
      "anonymous": false,
      "inputs": [
        {
          "indexed": true,
          "internalType": "address",
          "name": "previousManager",
          "type": "address"
        },
        {
          "indexed": true,
          "internalType": "address",
          "name": "newManager",
          "type": "address"
        }
      ],
      "name": "ManagershipTransferred",
      "type": "event"
    },
    {
      "anonymous": false,
      "inputs": [
        {
          "indexed": true,
          "internalType": "address",
          "name": "previousOwner",
          "type": "address"
        },
        {
          "indexed": true,
          "internalType": "address",
          "name": "newOwner",
          "type": "address"
        }
      ],
      "name": "OwnershipTransferred",
      "type": "event"
    },
    {
      "anonymous": false,
      "inputs": [
        {
          "indexed": true,
          "internalType": "address",
          "name": "impl",
          "type": "address"
        },
        {
          "indexed": false,
          "internalType": "bool",
          "name": "alive",
          "type": "bool"
        }
      ],
      "name": "SetAliveImplementation",
      "type": "event"
    },
    {
      "anonymous": false,
      "inputs": [
        {
          "indexed": true,
          "internalType": "bytes4",
          "name": "selector",
          "type": "bytes4"
        },
        {
          "indexed": true,
          "internalType": "address",
          "name": "impl",
          "type": "address"
        }
      ],
      "name": "SetSelectorImplementation",
      "type": "event"
    },
    {
      "anonymous": false,
      "inputs": [
        {
          "indexed": true,
          "internalType": "address",
          "name": "implementation",
          "type": "address"
        }
      ],
      "name": "Upgraded",
      "type": "event"
    },
    {
      "stateMutability": "payable",
      "type": "fallback"
    },
    {
      "inputs": [],
      "name": "MULTIPLIER",
      "outputs": [
        {
          "internalType": "uint256",
          "name": "",
          "type": "uint256"
        }
      ],
      "stateMutability": "view",
      "type": "function"
    },
    {
      "inputs": [],
      "name": "_ERC721_RECEIVED",
      "outputs": [
        {
          "internalType": "bytes4",
          "name": "",
          "type": "bytes4"
        }
      ],
      "stateMutability": "view",
      "type": "function"
    },
    {
      "inputs": [],
      "name": "_INTERFACE_ID_ERC721",
      "outputs": [
        {
          "internalType": "bytes4",
          "name": "",
          "type": "bytes4"
        }
      ],
      "stateMutability": "view",
      "type": "function"
    },
    {
      "inputs": [],
      "name": "_INTERFACE_ID_ERC721_ENUMERABLE",
      "outputs": [
        {
          "internalType": "bytes4",
          "name": "",
          "type": "bytes4"
        }
      ],
      "stateMutability": "view",
      "type": "function"
    },
    {
      "inputs": [],
      "name": "_INTERFACE_ID_ERC721_METADATA",
      "outputs": [
        {
          "internalType": "bytes4",
          "name": "",
          "type": "bytes4"
        }
      ],
      "stateMutability": "view",
      "type": "function"
    },
    {
      "inputs": [
        {
          "internalType": "uint256",
          "name": "",
          "type": "uint256"
        }
      ],
      "name": "_allTokens",
      "outputs": [
        {
          "internalType": "uint256",
          "name": "",
          "type": "uint256"
        }
      ],
      "stateMutability": "view",
      "type": "function"
    },
    {
      "inputs": [
        {
          "internalType": "uint256",
          "name": "",
          "type": "uint256"
        }
      ],
      "name": "_allTokensIndex",
      "outputs": [
        {
          "internalType": "uint256",
          "name": "",
          "type": "uint256"
        }
      ],
      "stateMutability": "view",
      "type": "function"
    },
    {
      "inputs": [],
      "name": "_baseURI",
      "outputs": [
        {
          "internalType": "string",
          "name": "",
          "type": "string"
        }
      ],
      "stateMutability": "view",
      "type": "function"
    },
    {
      "inputs": [],
      "name": "_manager",
      "outputs": [
        {
          "internalType": "address",
          "name": "",
          "type": "address"
        }
      ],
      "stateMutability": "view",
      "type": "function"
    },
    {
      "inputs": [],
      "name": "_name",
      "outputs": [
        {
          "internalType": "string",
          "name": "",
          "type": "string"
        }
      ],
      "stateMutability": "view",
      "type": "function"
    },
    {
      "inputs": [
        {
          "internalType": "address",
          "name": "",
          "type": "address"
        },
        {
          "internalType": "address",
          "name": "",
          "type": "address"
        }
      ],
      "name": "_operatorApprovals",
      "outputs": [
        {
          "internalType": "bool",
          "name": "",
          "type": "bool"
        }
      ],
      "stateMutability": "view",
      "type": "function"
    },
    {
      "inputs": [
        {
          "internalType": "address",
          "name": "",
          "type": "address"
        },
        {
          "internalType": "uint256",
          "name": "",
          "type": "uint256"
        }
      ],
      "name": "_ownedTokens",
      "outputs": [
        {
          "internalType": "uint256",
          "name": "",
          "type": "uint256"
        }
      ],
      "stateMutability": "view",
      "type": "function"
    },
    {
      "inputs": [
        {
          "internalType": "address",
          "name": "",
          "type": "address"
        }
      ],
      "name": "_ownedTokensCount",
      "outputs": [
        {
          "internalType": "uint256",
          "name": "",
          "type": "uint256"
        }
      ],
      "stateMutability": "view",
      "type": "function"
    },
    {
      "inputs": [
        {
          "internalType": "uint256",
          "name": "",
          "type": "uint256"
        }
      ],
      "name": "_ownedTokensIndex",
      "outputs": [
        {
          "internalType": "uint256",
          "name": "",
          "type": "uint256"
        }
      ],
      "stateMutability": "view",
      "type": "function"
    },
    {
      "inputs": [],
      "name": "_owner",
      "outputs": [
        {
          "internalType": "address",
          "name": "",
          "type": "address"
        }
      ],
      "stateMutability": "view",
      "type": "function"
    },
    {
      "inputs": [],
      "name": "_symbol",
      "outputs": [
        {
          "internalType": "string",
          "name": "",
          "type": "string"
        }
      ],
      "stateMutability": "view",
      "type": "function"
    },
    {
      "inputs": [
        {
          "internalType": "uint256",
          "name": "",
          "type": "uint256"
        }
      ],
      "name": "_tokenApprovals",
      "outputs": [
        {
          "internalType": "address",
          "name": "",
          "type": "address"
        }
      ],
      "stateMutability": "view",
      "type": "function"
    },
    {
      "inputs": [
        {
          "internalType": "uint256",
          "name": "",
          "type": "uint256"
        }
      ],
      "name": "_tokenAttributes",
      "outputs": [
        {
          "internalType": "uint8",
          "name": "",
          "type": "uint8"
        }
      ],
      "stateMutability": "view",
      "type": "function"
    },
    {
      "inputs": [
        {
          "internalType": "uint256",
          "name": "",
          "type": "uint256"
        }
      ],
      "name": "_tokenOwner",
      "outputs": [
        {
          "internalType": "address",
          "name": "",
          "type": "address"
        }
      ],
      "stateMutability": "view",
      "type": "function"
    },
    {
      "inputs": [
        {
          "internalType": "uint256",
          "name": "",
          "type": "uint256"
        }
      ],
      "name": "_tokenURIs",
      "outputs": [
        {
          "internalType": "string",
          "name": "",
          "type": "string"
        }
      ],
      "stateMutability": "view",
      "type": "function"
    },
    {
      "inputs": [
        {
          "internalType": "address",
          "name": "",
          "type": "address"
        }
      ],
      "name": "aliveImplementation",
      "outputs": [
        {
          "internalType": "bool",
          "name": "",
          "type": "bool"
        }
      ],
      "stateMutability": "view",
      "type": "function"
    },
    {
      "inputs": [],
      "name": "epochUnit",
      "outputs": [
        {
          "internalType": "uint256",
          "name": "",
          "type": "uint256"
        }
      ],
      "stateMutability": "view",
      "type": "function"
    },
    {
      "inputs": [
        {
          "internalType": "uint256",
          "name": "",
          "type": "uint256"
        }
      ],
      "name": "existedLockPeriod",
      "outputs": [
        {
          "internalType": "bool",
          "name": "",
          "type": "bool"
        }
      ],
      "stateMutability": "view",
      "type": "function"
    },
    {
      "inputs": [
        {
          "internalType": "bytes4",
          "name": "_selector",
          "type": "bytes4"
        }
      ],
      "name": "getSelectorImplementation2",
      "outputs": [
        {
          "internalType": "address",
          "name": "impl",
          "type": "address"
        }
      ],
      "stateMutability": "view",
      "type": "function"
    },
    {
      "inputs": [],
      "name": "implementation",
      "outputs": [
        {
          "internalType": "address",
          "name": "",
          "type": "address"
        }
      ],
      "stateMutability": "view",
      "type": "function"
    },
    {
      "inputs": [
        {
          "internalType": "uint256",
          "name": "_index",
          "type": "uint256"
        }
      ],
      "name": "implementation2",
      "outputs": [
        {
          "internalType": "address",
          "name": "",
          "type": "address"
        }
      ],
      "stateMutability": "view",
      "type": "function"
    },
    {
      "inputs": [
        {
          "internalType": "uint256",
          "name": "",
          "type": "uint256"
        }
      ],
      "name": "indexCheckOfTimeset",
      "outputs": [
        {
          "internalType": "bool",
          "name": "",
          "type": "bool"
        }
      ],
      "stateMutability": "view",
      "type": "function"
    },
    {
      "inputs": [
        {
          "internalType": "uint256",
          "name": "",
          "type": "uint256"
        },
        {
          "internalType": "uint256",
          "name": "",
          "type": "uint256"
        }
      ],
      "name": "indexCheckOfTimesetForLockEnd",
      "outputs": [
        {
          "internalType": "bool",
          "name": "",
          "type": "bool"
        }
      ],
      "stateMutability": "view",
      "type": "function"
    },
    {
      "inputs": [
        {
          "internalType": "uint256",
          "name": "",
          "type": "uint256"
        }
      ],
      "name": "indexCheckOfTimesetForUnlimited",
      "outputs": [
        {
          "internalType": "bool",
          "name": "",
          "type": "bool"
        }
      ],
      "stateMutability": "view",
      "type": "function"
    },
    {
      "inputs": [
        {
          "internalType": "uint256",
          "name": "",
          "type": "uint256"
        }
      ],
      "name": "indexOfTimeset",
      "outputs": [
        {
          "internalType": "uint256",
          "name": "",
          "type": "uint256"
        }
      ],
      "stateMutability": "view",
      "type": "function"
    },
    {
      "inputs": [
        {
          "internalType": "uint256",
          "name": "",
          "type": "uint256"
        },
        {
          "internalType": "uint256",
          "name": "",
          "type": "uint256"
        }
      ],
      "name": "indexOfTimesetForLockEnd",
      "outputs": [
        {
          "internalType": "uint256",
          "name": "",
          "type": "uint256"
        }
      ],
      "stateMutability": "view",
      "type": "function"
    },
    {
      "inputs": [
        {
          "internalType": "uint256",
          "name": "",
          "type": "uint256"
        }
      ],
      "name": "indexOfTimesetForUnlimited",
      "outputs": [
        {
          "internalType": "uint256",
          "name": "",
          "type": "uint256"
        }
      ],
      "stateMutability": "view",
      "type": "function"
    },
    {
      "inputs": [
        {
          "internalType": "uint256",
          "name": "",
          "type": "uint256"
        }
      ],
      "name": "lockIdInfos",
      "outputs": [
        {
          "internalType": "uint256",
          "name": "start",
          "type": "uint256"
        },
        {
          "internalType": "uint256",
          "name": "end",
          "type": "uint256"
        },
        {
          "internalType": "uint256",
          "name": "amount",
          "type": "uint256"
        },
        {
          "internalType": "uint256",
          "name": "withdrawlTime",
          "type": "uint256"
        }
      ],
      "stateMutability": "view",
      "type": "function"
    },
    {
      "inputs": [
        {
          "internalType": "uint256",
          "name": "",
          "type": "uint256"
        }
      ],
      "name": "lockPeriod",
      "outputs": [
        {
          "internalType": "uint256",
          "name": "",
          "type": "uint256"
        }
      ],
      "stateMutability": "view",
      "type": "function"
    },
    {
      "inputs": [],
      "name": "maxTime",
      "outputs": [
        {
          "internalType": "uint256",
          "name": "",
          "type": "uint256"
        }
      ],
      "stateMutability": "view",
      "type": "function"
    },
    {
      "inputs": [],
      "name": "maxTokenId",
      "outputs": [
        {
          "internalType": "uint256",
          "name": "",
          "type": "uint256"
        }
      ],
      "stateMutability": "view",
      "type": "function"
    },
    {
      "inputs": [],
      "name": "pauseProxy",
      "outputs": [
        {
          "internalType": "bool",
          "name": "",
          "type": "bool"
        }
      ],
      "stateMutability": "view",
      "type": "function"
    },
    {
      "inputs": [
        {
          "internalType": "uint256",
          "name": "",
          "type": "uint256"
        },
        {
          "internalType": "uint256",
          "name": "",
          "type": "uint256"
        }
      ],
      "name": "pointHistoryByLockId",
      "outputs": [
        {
          "internalType": "int256",
          "name": "slope",
          "type": "int256"
        },
        {
          "internalType": "int256",
          "name": "bias",
          "type": "int256"
        },
        {
          "internalType": "uint256",
          "name": "timestamp",
          "type": "uint256"
        }
      ],
      "stateMutability": "view",
      "type": "function"
    },
    {
      "inputs": [
        {
          "internalType": "uint256",
          "name": "",
          "type": "uint256"
        },
        {
          "internalType": "uint256",
          "name": "",
          "type": "uint256"
        }
      ],
      "name": "pointHistoryByWeek",
      "outputs": [
        {
          "internalType": "int256",
          "name": "slope",
          "type": "int256"
        },
        {
          "internalType": "int256",
          "name": "bias",
          "type": "int256"
        },
        {
          "internalType": "uint256",
          "name": "timestamp",
          "type": "uint256"
        }
      ],
      "stateMutability": "view",
      "type": "function"
    },
    {
      "inputs": [
        {
          "internalType": "uint256",
          "name": "",
          "type": "uint256"
        }
      ],
      "name": "proxyImplementation",
      "outputs": [
        {
          "internalType": "address",
          "name": "",
          "type": "address"
        }
      ],
      "stateMutability": "view",
      "type": "function"
    },
    {
      "inputs": [],
      "name": "renounceManagership",
      "outputs": [],
      "stateMutability": "nonpayable",
      "type": "function"
    },
    {
      "inputs": [],
      "name": "renounceOwnership",
      "outputs": [],
      "stateMutability": "nonpayable",
      "type": "function"
    },
    {
      "inputs": [
        {
          "internalType": "bytes4",
          "name": "",
          "type": "bytes4"
        }
      ],
      "name": "selectorImplementation",
      "outputs": [
        {
          "internalType": "address",
          "name": "",
          "type": "address"
        }
      ],
      "stateMutability": "view",
      "type": "function"
    },
    {
      "inputs": [
        {
          "internalType": "address",
          "name": "newImplementation",
          "type": "address"
        },
        {
          "internalType": "bool",
          "name": "_alive",
          "type": "bool"
        }
      ],
      "name": "setAliveImplementation2",
      "outputs": [],
      "stateMutability": "nonpayable",
      "type": "function"
    },
    {
      "inputs": [
        {
          "internalType": "address",
          "name": "newImplementation",
          "type": "address"
        },
        {
          "internalType": "uint256",
          "name": "_index",
          "type": "uint256"
        },
        {
          "internalType": "bool",
          "name": "_alive",
          "type": "bool"
        }
      ],
      "name": "setImplementation2",
      "outputs": [],
      "stateMutability": "nonpayable",
      "type": "function"
    },
    {
      "inputs": [
        {
          "internalType": "bool",
          "name": "_pause",
          "type": "bool"
        }
      ],
      "name": "setProxyPause",
      "outputs": [],
      "stateMutability": "nonpayable",
      "type": "function"
    },
    {
      "inputs": [
        {
          "internalType": "bytes4[]",
          "name": "_selectors",
          "type": "bytes4[]"
        },
        {
          "internalType": "address",
          "name": "_imp",
          "type": "address"
        }
      ],
      "name": "setSelectorImplementations2",
      "outputs": [],
      "stateMutability": "nonpayable",
      "type": "function"
    },
    {
      "inputs": [
        {
          "internalType": "uint256",
          "name": "",
          "type": "uint256"
        },
        {
          "internalType": "uint256",
          "name": "",
          "type": "uint256"
        }
      ],
      "name": "slopeByLockEndTime",
      "outputs": [
        {
          "internalType": "int256",
          "name": "",
          "type": "int256"
        }
      ],
      "stateMutability": "view",
      "type": "function"
    },
    {
      "inputs": [],
      "name": "staker",
      "outputs": [
        {
          "internalType": "address",
          "name": "",
          "type": "address"
        }
      ],
      "stateMutability": "view",
      "type": "function"
    },
    {
      "inputs": [
        {
          "internalType": "bytes4",
          "name": "interfaceId",
          "type": "bytes4"
        }
      ],
      "name": "supportsInterface",
      "outputs": [
        {
          "internalType": "bool",
          "name": "",
          "type": "bool"
        }
      ],
      "stateMutability": "view",
      "type": "function"
    },
    {
      "inputs": [],
      "name": "tos",
      "outputs": [
        {
          "internalType": "address",
          "name": "",
          "type": "address"
        }
      ],
      "stateMutability": "view",
      "type": "function"
    },
    {
      "inputs": [
        {
          "internalType": "address",
          "name": "newManager",
          "type": "address"
        }
      ],
      "name": "transferManagership",
      "outputs": [],
      "stateMutability": "nonpayable",
      "type": "function"
    },
    {
      "inputs": [
        {
          "internalType": "address",
          "name": "newOwner",
          "type": "address"
        }
      ],
      "name": "transferOwnership",
      "outputs": [],
      "stateMutability": "nonpayable",
      "type": "function"
    },
    {
      "inputs": [
        {
          "internalType": "address",
          "name": "",
          "type": "address"
        },
        {
          "internalType": "uint256",
          "name": "",
          "type": "uint256"
        }
      ],
      "name": "unlimitedAmountByAccount",
      "outputs": [
        {
          "internalType": "uint32",
          "name": "timestamp",
          "type": "uint32"
        },
        {
          "internalType": "uint256",
          "name": "amount",
          "type": "uint256"
        }
      ],
      "stateMutability": "view",
      "type": "function"
    },
    {
      "inputs": [
        {
          "internalType": "uint256",
          "name": "",
          "type": "uint256"
        },
        {
          "internalType": "uint256",
          "name": "",
          "type": "uint256"
        }
      ],
      "name": "unlimitedHistoryByWeek",
      "outputs": [
        {
          "internalType": "uint32",
          "name": "timestamp",
          "type": "uint32"
        },
        {
          "internalType": "uint256",
          "name": "amount",
          "type": "uint256"
        }
      ],
      "stateMutability": "view",
      "type": "function"
    },
    {
      "inputs": [
        {
          "internalType": "address",
          "name": "impl",
          "type": "address"
        }
      ],
      "name": "upgradeTo",
      "outputs": [],
      "stateMutability": "nonpayable",
      "type": "function"
    },
    {
      "inputs": [
        {
          "internalType": "address",
          "name": "_implementation",
          "type": "address"
        },
        {
          "internalType": "bytes",
          "name": "_data",
          "type": "bytes"
        }
      ],
      "name": "upgradeToAndCall",
      "outputs": [
        {
          "internalType": "bytes",
          "name": "",
          "type": "bytes"
        }
      ],
      "stateMutability": "payable",
      "type": "function"
    },
    {
      "stateMutability": "payable",
      "type": "receive"
    }
  ],
  "bytecode": "0x60806040523480156200001157600080fd5b506040516200225b3803806200225b833981016040819052620000349162000210565b600080546001600160a01b0319163390811782556040519091907f8be0079c531659141344cd1fd0a4f28419497f9722a3daafe3b4186f6b6457e0908290a3620000856301ffc9a760e01b620000c7565b600580546001600160a01b0319166001600160a01b0383161790556007620000ae84826200032c565b506008620000bd83826200032c565b50505050620003f8565b6001600160e01b03198082169003620001265760405162461bcd60e51b815260206004820152601c60248201527f4552433136353a20696e76616c696420696e7465726661636520696400000000604482015260640160405180910390fd5b6001600160e01b0319166000908152600460205260409020805460ff19166001179055565b634e487b7160e01b600052604160045260246000fd5b600082601f8301126200017357600080fd5b81516001600160401b03808211156200019057620001906200014b565b604051601f8301601f19908116603f01168101908282118183101715620001bb57620001bb6200014b565b81604052838152602092508683858801011115620001d857600080fd5b600091505b83821015620001fc5785820183015181830184015290820190620001dd565b600093810190920192909252949350505050565b6000806000606084860312156200022657600080fd5b83516001600160401b03808211156200023e57600080fd5b6200024c8783880162000161565b945060208601519150808211156200026357600080fd5b50620002728682870162000161565b604086015190935090506001600160a01b03811681146200029257600080fd5b809150509250925092565b600181811c90821680620002b257607f821691505b602082108103620002d357634e487b7160e01b600052602260045260246000fd5b50919050565b601f8211156200032757600081815260208120601f850160051c81016020861015620003025750805b601f850160051c820191505b8181101562000323578281556001016200030e565b5050505b505050565b81516001600160401b038111156200034857620003486200014b565b62000360816200035984546200029d565b84620002d9565b602080601f8311600181146200039857600084156200037f5750858301515b600019600386901b1c1916600185901b17855562000323565b600085815260208120601f198616915b82811015620003c957888601518255948401946001909101908401620003a8565b5085821015620003e85787850151600019600388901b60f8161c191681555b5050505050600190811b01905550565b611e5380620004086000396000f3fe60806040526004361061037a5760003560e01c806389f395de116101d1578063b8355a4b11610102578063e178ee20116100a0578063f2fde38b1161006f578063f2fde38b14610c1b578063f663171814610c3b578063fd2dcecf14610c68578063fea3d59d14610c7e576103cc565b8063e178ee2014610b80578063edc3bc3f14610ba0578063ef27c77314610bdb578063f0329f6b14610bfb576103cc565b8063cea823cd116100dc578063cea823cd14610ae8578063d0fef6d914610b18578063d28d885214610b50578063dece685414610b65576103cc565b8063b8355a4b14610a72578063b911135f14610a92578063ccc3990914610ac8576103cc565b8063a2e9b4391161016f578063aa5965ae11610149578063aa5965ae14610a02578063b01ac59114610a22578063b09f126614610a3d578063b2bdfa7b14610a52576103cc565b8063a2e9b43914610972578063a72636651461099f578063a7cc0136146109cc576103cc565b80638e9d05bc116101ab5780638e9d05bc146108f157806391ba317a1461092157806394a509dd14610937578063993b6ef914610952576103cc565b806389f395de146108765780638b8f4a651461089b5780638d4fdb40146108d1576103cc565b80635c60da1b116102ab5780637267ad63116102495780637cb00d25116102235780637cb00d25146107d35780637cd5f663146107f3578063872d01091461081357806388290adc14610842576103cc565b80637267ad631461074c578063743976a014610788578063796db3121461079d576103cc565b806363a8fd891161028557806363a8fd89146106e15780636c146d9b14610702578063715018a6146107175780637207e7431461072c576103cc565b80635c60da1b1461065b5780635cc797d8146106a15780635ebaf1db146106c1576103cc565b806334ee79c8116103185780634f1ef286116102f25780634f1ef286146105aa5780634f3c5f06146105bd57806350d2a276146105dd578063550d01a31461062b576103cc565b806334ee79c81461052f5780633659cfe61461056a5780634a5df50f1461058a576103cc565b806310c113601161035457806310c113601461047c57806317a3a79c1461049c57806322e67e71146104de57806328f02c68146104f4576103cc565b806301ffc9a7146103d6578063059f8b16146104255780630bb78ec11461044f576103cc565b366103cc5760405162461bcd60e51b815260206004820152601460248201527f63616e6e6f74207265636569766520457468657200000000000000000000000060448201526064015b60405180910390fd5b6103d4610ce0565b005b3480156103e257600080fd5b506104106103f1366004611adc565b6001600160e01b03191660009081526004602052604090205460ff1690565b60405190151581526020015b60405180910390f35b34801561043157600080fd5b50610441670de0b6b3a764000081565b60405190815260200161041c565b34801561045b57600080fd5b5061046f61046a366004611b0d565b610d90565b60405161041c9190611b6c565b34801561048857600080fd5b50610441610497366004611b0d565b610e2a565b3480156104a857600080fd5b506104cc6104b7366004611b0d565b600a6020526000908152604090205460ff1681565b60405160ff909116815260200161041c565b3480156104ea57600080fd5b5061044160165481565b34801561050057600080fd5b5061051461050f366004611b7f565b610e4b565b6040805193845260208401929092529082015260600161041c565b34801561053b57600080fd5b5061041061054a366004611b7f565b602560209081526000928352604080842090915290825290205460ff1681565b34801561057657600080fd5b506103d4610585366004611bb8565b610e8d565b34801561059657600080fd5b506103d46105a5366004611bd3565b610fde565b61046f6105b8366004611c57565b611276565b3480156105c957600080fd5b506104416105d8366004611cda565b6113aa565b3480156105e957600080fd5b506106136105f8366004611adc565b6003602052600090815260409020546001600160a01b031681565b6040516001600160a01b03909116815260200161041c565b34801561063757600080fd5b50610410610646366004611bb8565b60026020526000908152604090205460ff1681565b34801561066757600080fd5b506000805260016020527fa6eef7e35abe7026729641147f7915573c7e97b47efa546f5f6e3230263bcb49546001600160a01b0316610613565b3480156106ad57600080fd5b506103d46106bc366004611d14565b6113db565b3480156106cd57600080fd5b50600654610613906001600160a01b031681565b3480156106ed57600080fd5b5060005461041090600160a01b900460ff1681565b34801561070e57600080fd5b506103d461142f565b34801561072357600080fd5b506103d46114c1565b34801561073857600080fd5b50610441610747366004611b7f565b611551565b34801561075857600080fd5b5061076c610767366004611b7f565b61156d565b6040805163ffffffff909316835260208301919091520161041c565b34801561079457600080fd5b5061046f6115b0565b3480156107a957600080fd5b506106136107b8366004611b0d565b600c602052600090815260409020546001600160a01b031681565b3480156107df57600080fd5b506103d46107ee366004611d47565b6115bd565b3480156107ff57600080fd5b506103d461080e366004611d62565b611632565b34801561081f57600080fd5b5061041061082e366004611b0d565b602080526000908152604090205460ff1681565b34801561084e57600080fd5b5061085d630a85bd0160e11b81565b6040516001600160e01b0319909116815260200161041c565b34801561088257600080fd5b506014546106139061010090046001600160a01b031681565b3480156108a757600080fd5b506106136108b6366004611b0d565b6000908152600160205260409020546001600160a01b031690565b3480156108dd57600080fd5b506106136108ec366004611adc565b611683565b3480156108fd57600080fd5b5061041061090c366004611b0d565b60226020526000908152604090205460ff1681565b34801561092d57600080fd5b5061044160175481565b34801561094357600080fd5b5061085d635b5e139f60e01b81565b34801561095e57600080fd5b5061076c61096d366004611cda565b61177f565b34801561097e57600080fd5b5061044161098d366004611b0d565b60116020526000908152604090205481565b3480156109ab57600080fd5b506104416109ba366004611b0d565b60136020526000908152604090205481565b3480156109d857600080fd5b506106136109e7366004611b0d565b600d602052600090815260409020546001600160a01b031681565b348015610a0e57600080fd5b50610441610a1d366004611b0d565b61179b565b348015610a2e57600080fd5b5061085d63780e9d6360e01b81565b348015610a4957600080fd5b5061046f6117ab565b348015610a5e57600080fd5b50600054610613906001600160a01b031681565b348015610a7e57600080fd5b50610441610a8d366004611b0d565b6117b8565b348015610a9e57600080fd5b50610613610aad366004611b0d565b6001602052600090815260409020546001600160a01b031681565b348015610ad457600080fd5b506103d4610ae3366004611bb8565b6117c8565b348015610af457600080fd5b50610410610b03366004611b0d565b601d6020526000908152604090205460ff1681565b348015610b2457600080fd5b50610441610b33366004611b7f565b602360209081526000928352604080842090915290825290205481565b348015610b5c57600080fd5b5061046f6118c2565b348015610b7157600080fd5b5061085d6380ac58cd60e01b81565b348015610b8c57600080fd5b50610514610b9b366004611b7f565b6118cf565b348015610bac57600080fd5b50610410610bbb366004611d95565b600f60209081526000928352604080842090915290825290205460ff1681565b348015610be757600080fd5b50610441610bf6366004611b0d565b6118eb565b348015610c0757600080fd5b50600554610613906001600160a01b031681565b348015610c2757600080fd5b506103d4610c36366004611bb8565b6118fb565b348015610c4757600080fd5b50610441610c56366004611bb8565b600e6020526000908152604090205481565b348015610c7457600080fd5b5061044160155481565b348015610c8a57600080fd5b50610cc0610c99366004611b0d565b60186020526000908152604090208054600182015460028301546003909301549192909184565b60408051948552602085019390935291830152606082015260800161041c565b6000610cf76000356001600160e01b031916611683565b90506001600160a01b03811615801590610d1b5750600054600160a01b900460ff16155b610d675760405162461bcd60e51b815260206004820152601d60248201527f50726f78793a20696d706c204f522070726f78792069732066616c736500000060448201526064016103c3565b3660008037600080366000845af43d6000803e808015610d86573d6000f35b3d6000fd5b505050565b60096020526000908152604090208054610da990611dbf565b80601f0160208091040260200160405190810160405280929190818152602001828054610dd590611dbf565b8015610e225780601f10610df757610100808354040283529160200191610e22565b820191906000526020600020905b815481529060010190602001808311610e0557829003601f168201915b505050505081565b601c8181548110610e3a57600080fd5b600091825260209091200154905081565b601a6020528160005260406000208181548110610e6757600080fd5b600091825260209091206003909102018054600182015460029092015490935090915083565b6000546001600160a01b03163314610ed35760405162461bcd60e51b81526020600482015260096024820152683737ba1037bbb732b960b91b60448201526064016103c3565b6001600160a01b038116610f295760405162461bcd60e51b815260206004820152600d60248201527f696e707574206973207a65726f0000000000000000000000000000000000000060448201526064016103c3565b6000805260016020527fa6eef7e35abe7026729641147f7915573c7e97b47efa546f5f6e3230263bcb49546001600160a01b03828116911603610f9a5760405162461bcd60e51b815260206004820152600960248201526839b0b6b29030b2323960b91b60448201526064016103c3565b610fa781600060016119f2565b6040516001600160a01b038216907fbc7cd75a20ee27fd9adebab32041f755214dbc6bffa90cc0225b39da2e5c2d3b90600090a250565b6000546001600160a01b031633146110245760405162461bcd60e51b81526020600482015260096024820152683737ba1037bbb732b960b91b60448201526064016103c3565b816110715760405162461bcd60e51b815260206004820181905260248201527f50726f78793a205f73656c6563746f727327732073697a65206973207a65726f60448201526064016103c3565b6001600160a01b03811660009081526002602052604090205460ff166110d95760405162461bcd60e51b815260206004820152601860248201527f50726f78793a205f696d70206973206e6f7420616c697665000000000000000060448201526064016103c3565b60005b8281101561127057816001600160a01b03166003600086868581811061110457611104611df9565b90506020020160208101906111199190611adc565b6001600160e01b03191681526020810191909152604001600020546001600160a01b03160361118a5760405162461bcd60e51b815260206004820152601d60248201527f4c69717569646974795661756c7450726f78793a2073616d6520696d7000000060448201526064016103c3565b81600360008686858181106111a1576111a1611df9565b90506020020160208101906111b69190611adc565b6001600160e01b0319168152602081019190915260400160002080546001600160a01b0319166001600160a01b0392831617905582168484838181106111fe576111fe611df9565b90506020020160208101906112139190611adc565b7bffffffffffffffffffffffffffffffffffffffffffffffffffffffff19167f14ebc1c32aa68f4d766e89f3e546cee249f7df25183fc10ab1568d91c2ce9b7b60405160405180910390a38061126881611e0f565b9150506110dc565b50505050565b6000546060906001600160a01b031633146112bf5760405162461bcd60e51b81526020600482015260096024820152683737ba1037bbb732b960b91b60448201526064016103c3565b6112cc84600060016119f2565b600080856001600160a01b031685856040516112e9929190611e36565b600060405180830381855af49150503d8060008114611324576040519150601f19603f3d011682016040523d82523d6000602084013e611329565b606091505b5091509150816113a15760405162461bcd60e51b815260206004820152603960248201527f50726f78793a2064656c656761746563616c6c20746f206e657720696d706c6560448201527f6d656e746174696f6e20636f6e7472616374206661696c65640000000000000060648201526084016103c3565b95945050505050565b601060205281600052604060002081815481106113c657600080fd5b90600052602060002001600091509150505481565b6000546001600160a01b031633146114215760405162461bcd60e51b81526020600482015260096024820152683737ba1037bbb732b960b91b60448201526064016103c3565b61142b8282611a7d565b5050565b6005546001600160a01b031633146114775760405162461bcd60e51b815260206004820152600b60248201526a3737ba1036b0b730b3b2b960a91b60448201526064016103c3565b6005546040516000916001600160a01b0316907f697e4e68d3879b0dd3414a88905117bac8f0a54b0cd8e7779f909bf1a1cf5683908390a3600580546001600160a01b0319169055565b6000546001600160a01b031633146115075760405162461bcd60e51b81526020600482015260096024820152683737ba1037bbb732b960b91b60448201526064016103c3565b600080546040516001600160a01b03909116907f8be0079c531659141344cd1fd0a4f28419497f9722a3daafe3b4186f6b6457e0908390a3600080546001600160a01b0319169055565b602460205281600052604060002081815481106113c657600080fd5b601b602052816000526040600020818154811061158957600080fd5b60009182526020909120600290910201805460019091015463ffffffff9091169250905082565b600b8054610da990611dbf565b6000546001600160a01b031633146116035760405162461bcd60e51b81526020600482015260096024820152683737ba1037bbb732b960b91b60448201526064016103c3565b60008054911515600160a01b0274ff000000000000000000000000000000000000000019909216919091179055565b6000546001600160a01b031633146116785760405162461bcd60e51b81526020600482015260096024820152683737ba1037bbb732b960b91b60448201526064016103c3565b610d8b8383836119f2565b6001600160e01b031981166000908152600360205260408120546001600160a01b03166116e35750506000805260016020527fa6eef7e35abe7026729641147f7915573c7e97b47efa546f5f6e3230263bcb49546001600160a01b031690565b6001600160e01b031982166000908152600360209081526040808320546001600160a01b03168352600290915290205460ff161561174157506001600160e01b0319166000908152600360205260409020546001600160a01b031690565b50506000805260016020527fa6eef7e35abe7026729641147f7915573c7e97b47efa546f5f6e3230263bcb49546001600160a01b031690565b919050565b601e602052816000526040600020818154811061158957600080fd5b60128181548110610e3a57600080fd5b60088054610da990611dbf565b601f8181548110610e3a57600080fd5b6005546001600160a01b031633146118105760405162461bcd60e51b815260206004820152600b60248201526a3737ba1036b0b730b3b2b960a91b60448201526064016103c3565b6001600160a01b0381166118665760405162461bcd60e51b815260206004820152601f60248201527f6e6577206d616e6167657220697320746865207a65726f20616464726573730060448201526064016103c3565b6005546040516001600160a01b038084169216907f697e4e68d3879b0dd3414a88905117bac8f0a54b0cd8e7779f909bf1a1cf568390600090a3600580546001600160a01b0319166001600160a01b0392909216919091179055565b60078054610da990611dbf565b60196020528160005260406000208181548110610e6757600080fd5b60218181548110610e3a57600080fd5b6000546001600160a01b031633146119415760405162461bcd60e51b81526020600482015260096024820152683737ba1037bbb732b960b91b60448201526064016103c3565b6001600160a01b0381166119975760405162461bcd60e51b815260206004820152601d60248201527f6e6577206f776e657220697320746865207a65726f206164647265737300000060448201526064016103c3565b600080546040516001600160a01b03808516939216917f8be0079c531659141344cd1fd0a4f28419497f9722a3daafe3b4186f6b6457e091a3600080546001600160a01b0319166001600160a01b0392909216919091179055565b6001600160a01b0383163b611a495760405162461bcd60e51b815260206004820152601b60248201527f50726f78793a206e6f7420636f6e74726163742061646472657373000000000060448201526064016103c3565b8015611a7757600082815260016020526040902080546001600160a01b0319166001600160a01b0385161790555b610d8b83825b6001600160a01b038216600081815260026020908152604091829020805460ff191685151590811790915591519182527f72558d9bfba4210f9ef095c782589484151f6d90f7a81bb3cb9b33efc695d324910160405180910390a25050565b600060208284031215611aee57600080fd5b81356001600160e01b031981168114611b0657600080fd5b9392505050565b600060208284031215611b1f57600080fd5b5035919050565b6000815180845260005b81811015611b4c57602081850181015186830182015201611b30565b506000602082860101526020601f19601f83011685010191505092915050565b602081526000611b066020830184611b26565b60008060408385031215611b9257600080fd5b50508035926020909101359150565b80356001600160a01b038116811461177a57600080fd5b600060208284031215611bca57600080fd5b611b0682611ba1565b600080600060408486031215611be857600080fd5b833567ffffffffffffffff80821115611c0057600080fd5b818601915086601f830112611c1457600080fd5b813581811115611c2357600080fd5b8760208260051b8501011115611c3857600080fd5b602092830195509350611c4e9186019050611ba1565b90509250925092565b600080600060408486031215611c6c57600080fd5b611c7584611ba1565b9250602084013567ffffffffffffffff80821115611c9257600080fd5b818601915086601f830112611ca657600080fd5b813581811115611cb557600080fd5b876020828501011115611cc757600080fd5b6020830194508093505050509250925092565b60008060408385031215611ced57600080fd5b611cf683611ba1565b946020939093013593505050565b8035801515811461177a57600080fd5b60008060408385031215611d2757600080fd5b611d3083611ba1565b9150611d3e60208401611d04565b90509250929050565b600060208284031215611d5957600080fd5b611b0682611d04565b600080600060608486031215611d7757600080fd5b611d8084611ba1565b925060208401359150611c4e60408501611d04565b60008060408385031215611da857600080fd5b611db183611ba1565b9150611d3e60208401611ba1565b600181811c90821680611dd357607f821691505b602082108103611df357634e487b7160e01b600052602260045260246000fd5b50919050565b634e487b7160e01b600052603260045260246000fd5b600060018201611e2f57634e487b7160e01b600052601160045260246000fd5b5060010190565b818382376000910190815291905056fea164736f6c6343000812000a",
  "linkReferences": {},
  "deployedLinkReferences": {}
}