{
  "_format": "hh-sol-artifact-1",
  "contractName": "LockIdNFTProxy",
  "sourceName": "contracts/stos/LockIdNFTProxy.sol",
  "abi": [
    {
      "inputs": [
        {
          "internalType": "string",
          "name": "name_",
          "type": "string"
        },
        {
          "internalType": "string",
          "name": "symbol_",
          "type": "string"
        },
        {
          "internalType": "address",
          "name": "managerAddress",
          "type": "address"
        }
      ],
      "stateMutability": "nonpayable",
      "type": "constructor"
    },
    {
      "anonymous": false,
      "inputs": [
        {
          "indexed": true,
          "internalType": "address",
          "name": "previousManager",
          "type": "address"
        },
        {
          "indexed": true,
          "internalType": "address",
          "name": "newManager",
          "type": "address"
        }
      ],
      "name": "ManagershipTransferred",
      "type": "event"
    },
    {
      "anonymous": false,
      "inputs": [
        {
          "indexed": true,
          "internalType": "address",
          "name": "previousOwner",
          "type": "address"
        },
        {
          "indexed": true,
          "internalType": "address",
          "name": "newOwner",
          "type": "address"
        }
      ],
      "name": "OwnershipTransferred",
      "type": "event"
    },
    {
      "anonymous": false,
      "inputs": [
        {
          "indexed": true,
          "internalType": "address",
          "name": "impl",
          "type": "address"
        },
        {
          "indexed": false,
          "internalType": "bool",
          "name": "alive",
          "type": "bool"
        }
      ],
      "name": "SetAliveImplementation",
      "type": "event"
    },
    {
      "anonymous": false,
      "inputs": [
        {
          "indexed": true,
          "internalType": "bytes4",
          "name": "selector",
          "type": "bytes4"
        },
        {
          "indexed": true,
          "internalType": "address",
          "name": "impl",
          "type": "address"
        }
      ],
      "name": "SetSelectorImplementation",
      "type": "event"
    },
    {
      "anonymous": false,
      "inputs": [
        {
          "indexed": true,
          "internalType": "address",
          "name": "implementation",
          "type": "address"
        }
      ],
      "name": "Upgraded",
      "type": "event"
    },
    {
      "stateMutability": "payable",
      "type": "fallback"
    },
    {
      "inputs": [],
      "name": "MULTIPLIER",
      "outputs": [
        {
          "internalType": "uint256",
          "name": "",
          "type": "uint256"
        }
      ],
      "stateMutability": "view",
      "type": "function"
    },
    {
      "inputs": [],
      "name": "_ERC721_RECEIVED",
      "outputs": [
        {
          "internalType": "bytes4",
          "name": "",
          "type": "bytes4"
        }
      ],
      "stateMutability": "view",
      "type": "function"
    },
    {
      "inputs": [],
      "name": "_INTERFACE_ID_ERC721",
      "outputs": [
        {
          "internalType": "bytes4",
          "name": "",
          "type": "bytes4"
        }
      ],
      "stateMutability": "view",
      "type": "function"
    },
    {
      "inputs": [],
      "name": "_INTERFACE_ID_ERC721_ENUMERABLE",
      "outputs": [
        {
          "internalType": "bytes4",
          "name": "",
          "type": "bytes4"
        }
      ],
      "stateMutability": "view",
      "type": "function"
    },
    {
      "inputs": [],
      "name": "_INTERFACE_ID_ERC721_METADATA",
      "outputs": [
        {
          "internalType": "bytes4",
          "name": "",
          "type": "bytes4"
        }
      ],
      "stateMutability": "view",
      "type": "function"
    },
    {
      "inputs": [
        {
          "internalType": "uint256",
          "name": "",
          "type": "uint256"
        }
      ],
      "name": "_allTokens",
      "outputs": [
        {
          "internalType": "uint256",
          "name": "",
          "type": "uint256"
        }
      ],
      "stateMutability": "view",
      "type": "function"
    },
    {
      "inputs": [
        {
          "internalType": "uint256",
          "name": "",
          "type": "uint256"
        }
      ],
      "name": "_allTokensIndex",
      "outputs": [
        {
          "internalType": "uint256",
          "name": "",
          "type": "uint256"
        }
      ],
      "stateMutability": "view",
      "type": "function"
    },
    {
      "inputs": [],
      "name": "_baseURI",
      "outputs": [
        {
          "internalType": "string",
          "name": "",
          "type": "string"
        }
      ],
      "stateMutability": "view",
      "type": "function"
    },
    {
      "inputs": [],
      "name": "_manager",
      "outputs": [
        {
          "internalType": "address",
          "name": "",
          "type": "address"
        }
      ],
      "stateMutability": "view",
      "type": "function"
    },
    {
      "inputs": [],
      "name": "_name",
      "outputs": [
        {
          "internalType": "string",
          "name": "",
          "type": "string"
        }
      ],
      "stateMutability": "view",
      "type": "function"
    },
    {
      "inputs": [
        {
          "internalType": "address",
          "name": "",
          "type": "address"
        },
        {
          "internalType": "address",
          "name": "",
          "type": "address"
        }
      ],
      "name": "_operatorApprovals",
      "outputs": [
        {
          "internalType": "bool",
          "name": "",
          "type": "bool"
        }
      ],
      "stateMutability": "view",
      "type": "function"
    },
    {
      "inputs": [
        {
          "internalType": "address",
          "name": "",
          "type": "address"
        },
        {
          "internalType": "uint256",
          "name": "",
          "type": "uint256"
        }
      ],
      "name": "_ownedTokens",
      "outputs": [
        {
          "internalType": "uint256",
          "name": "",
          "type": "uint256"
        }
      ],
      "stateMutability": "view",
      "type": "function"
    },
    {
      "inputs": [
        {
          "internalType": "address",
          "name": "",
          "type": "address"
        }
      ],
      "name": "_ownedTokensCount",
      "outputs": [
        {
          "internalType": "uint256",
          "name": "",
          "type": "uint256"
        }
      ],
      "stateMutability": "view",
      "type": "function"
    },
    {
      "inputs": [
        {
          "internalType": "uint256",
          "name": "",
          "type": "uint256"
        }
      ],
      "name": "_ownedTokensIndex",
      "outputs": [
        {
          "internalType": "uint256",
          "name": "",
          "type": "uint256"
        }
      ],
      "stateMutability": "view",
      "type": "function"
    },
    {
      "inputs": [],
      "name": "_owner",
      "outputs": [
        {
          "internalType": "address",
          "name": "",
          "type": "address"
        }
      ],
      "stateMutability": "view",
      "type": "function"
    },
    {
      "inputs": [],
      "name": "_symbol",
      "outputs": [
        {
          "internalType": "string",
          "name": "",
          "type": "string"
        }
      ],
      "stateMutability": "view",
      "type": "function"
    },
    {
      "inputs": [
        {
          "internalType": "uint256",
          "name": "",
          "type": "uint256"
        }
      ],
      "name": "_tokenApprovals",
      "outputs": [
        {
          "internalType": "address",
          "name": "",
          "type": "address"
        }
      ],
      "stateMutability": "view",
      "type": "function"
    },
    {
      "inputs": [
        {
          "internalType": "uint256",
          "name": "",
          "type": "uint256"
        }
      ],
      "name": "_tokenAttributes",
      "outputs": [
        {
          "internalType": "uint8",
          "name": "",
          "type": "uint8"
        }
      ],
      "stateMutability": "view",
      "type": "function"
    },
    {
      "inputs": [
        {
          "internalType": "uint256",
          "name": "",
          "type": "uint256"
        }
      ],
      "name": "_tokenOwner",
      "outputs": [
        {
          "internalType": "address",
          "name": "",
          "type": "address"
        }
      ],
      "stateMutability": "view",
      "type": "function"
    },
    {
      "inputs": [
        {
          "internalType": "uint256",
          "name": "",
          "type": "uint256"
        }
      ],
      "name": "_tokenURIs",
      "outputs": [
        {
          "internalType": "string",
          "name": "",
          "type": "string"
        }
      ],
      "stateMutability": "view",
      "type": "function"
    },
    {
      "inputs": [
        {
          "internalType": "address",
          "name": "",
          "type": "address"
        }
      ],
      "name": "aliveImplementation",
      "outputs": [
        {
          "internalType": "bool",
          "name": "",
          "type": "bool"
        }
      ],
      "stateMutability": "view",
      "type": "function"
    },
    {
      "inputs": [],
      "name": "epochUnit",
      "outputs": [
        {
          "internalType": "uint256",
          "name": "",
          "type": "uint256"
        }
      ],
      "stateMutability": "view",
      "type": "function"
    },
    {
      "inputs": [
        {
          "internalType": "bytes4",
          "name": "_selector",
          "type": "bytes4"
        }
      ],
      "name": "getSelectorImplementation2",
      "outputs": [
        {
          "internalType": "address",
          "name": "impl",
          "type": "address"
        }
      ],
      "stateMutability": "view",
      "type": "function"
    },
    {
      "inputs": [],
      "name": "implementation",
      "outputs": [
        {
          "internalType": "address",
          "name": "",
          "type": "address"
        }
      ],
      "stateMutability": "view",
      "type": "function"
    },
    {
      "inputs": [
        {
          "internalType": "uint256",
          "name": "_index",
          "type": "uint256"
        }
      ],
      "name": "implementation2",
      "outputs": [
        {
          "internalType": "address",
          "name": "",
          "type": "address"
        }
      ],
      "stateMutability": "view",
      "type": "function"
    },
    {
      "inputs": [
        {
          "internalType": "uint256",
          "name": "",
          "type": "uint256"
        }
      ],
      "name": "indexCheckOfTimeset",
      "outputs": [
        {
          "internalType": "bool",
          "name": "",
          "type": "bool"
        }
      ],
      "stateMutability": "view",
      "type": "function"
    },
    {
      "inputs": [
        {
          "internalType": "uint256",
          "name": "",
          "type": "uint256"
        }
      ],
      "name": "indexOfTimeset",
      "outputs": [
        {
          "internalType": "uint256",
          "name": "",
          "type": "uint256"
        }
      ],
      "stateMutability": "view",
      "type": "function"
    },
    {
      "inputs": [
        {
          "internalType": "uint256",
          "name": "",
          "type": "uint256"
        }
      ],
      "name": "lockIdInfos",
      "outputs": [
        {
          "internalType": "uint256",
          "name": "start",
          "type": "uint256"
        },
        {
          "internalType": "uint256",
          "name": "end",
          "type": "uint256"
        },
        {
          "internalType": "uint256",
          "name": "amount",
          "type": "uint256"
        },
        {
          "internalType": "address",
          "name": "owner",
          "type": "address"
        },
        {
          "internalType": "bool",
          "name": "withdrawn",
          "type": "bool"
        }
      ],
      "stateMutability": "view",
      "type": "function"
    },
    {
      "inputs": [],
      "name": "maxTime",
      "outputs": [
        {
          "internalType": "uint256",
          "name": "",
          "type": "uint256"
        }
      ],
      "stateMutability": "view",
      "type": "function"
    },
    {
      "inputs": [],
      "name": "maxTokenId",
      "outputs": [
        {
          "internalType": "uint256",
          "name": "",
          "type": "uint256"
        }
      ],
      "stateMutability": "view",
      "type": "function"
    },
    {
      "inputs": [],
      "name": "pauseProxy",
      "outputs": [
        {
          "internalType": "bool",
          "name": "",
          "type": "bool"
        }
      ],
      "stateMutability": "view",
      "type": "function"
    },
    {
      "inputs": [
        {
          "internalType": "uint256",
          "name": "",
          "type": "uint256"
        },
        {
          "internalType": "uint256",
          "name": "",
          "type": "uint256"
        }
      ],
      "name": "pointHistoryByLockId",
      "outputs": [
        {
          "internalType": "int256",
          "name": "slope",
          "type": "int256"
        },
        {
          "internalType": "int256",
          "name": "bias",
          "type": "int256"
        },
        {
          "internalType": "uint256",
          "name": "timestamp",
          "type": "uint256"
        }
      ],
      "stateMutability": "view",
      "type": "function"
    },
    {
      "inputs": [
        {
          "internalType": "uint256",
          "name": "",
          "type": "uint256"
        },
        {
          "internalType": "uint256",
          "name": "",
          "type": "uint256"
        }
      ],
      "name": "pointHistoryByWeek",
      "outputs": [
        {
          "internalType": "int256",
          "name": "slope",
          "type": "int256"
        },
        {
          "internalType": "int256",
          "name": "bias",
          "type": "int256"
        },
        {
          "internalType": "uint256",
          "name": "timestamp",
          "type": "uint256"
        }
      ],
      "stateMutability": "view",
      "type": "function"
    },
    {
      "inputs": [
        {
          "internalType": "uint256",
          "name": "",
          "type": "uint256"
        }
      ],
      "name": "proxyImplementation",
      "outputs": [
        {
          "internalType": "address",
          "name": "",
          "type": "address"
        }
      ],
      "stateMutability": "view",
      "type": "function"
    },
    {
      "inputs": [],
      "name": "renounceManagership",
      "outputs": [],
      "stateMutability": "nonpayable",
      "type": "function"
    },
    {
      "inputs": [],
      "name": "renounceOwnership",
      "outputs": [],
      "stateMutability": "nonpayable",
      "type": "function"
    },
    {
      "inputs": [
        {
          "internalType": "bytes4",
          "name": "",
          "type": "bytes4"
        }
      ],
      "name": "selectorImplementation",
      "outputs": [
        {
          "internalType": "address",
          "name": "",
          "type": "address"
        }
      ],
      "stateMutability": "view",
      "type": "function"
    },
    {
      "inputs": [
        {
          "internalType": "address",
          "name": "newImplementation",
          "type": "address"
        },
        {
          "internalType": "bool",
          "name": "_alive",
          "type": "bool"
        }
      ],
      "name": "setAliveImplementation2",
      "outputs": [],
      "stateMutability": "nonpayable",
      "type": "function"
    },
    {
      "inputs": [
        {
          "internalType": "address",
          "name": "newImplementation",
          "type": "address"
        },
        {
          "internalType": "uint256",
          "name": "_index",
          "type": "uint256"
        },
        {
          "internalType": "bool",
          "name": "_alive",
          "type": "bool"
        }
      ],
      "name": "setImplementation2",
      "outputs": [],
      "stateMutability": "nonpayable",
      "type": "function"
    },
    {
      "inputs": [
        {
          "internalType": "bool",
          "name": "_pause",
          "type": "bool"
        }
      ],
      "name": "setProxyPause",
      "outputs": [],
      "stateMutability": "nonpayable",
      "type": "function"
    },
    {
      "inputs": [
        {
          "internalType": "bytes4[]",
          "name": "_selectors",
          "type": "bytes4[]"
        },
        {
          "internalType": "address",
          "name": "_imp",
          "type": "address"
        }
      ],
      "name": "setSelectorImplementations2",
      "outputs": [],
      "stateMutability": "nonpayable",
      "type": "function"
    },
    {
      "inputs": [
        {
          "internalType": "bytes4",
          "name": "interfaceId",
          "type": "bytes4"
        }
      ],
      "name": "supportsInterface",
      "outputs": [
        {
          "internalType": "bool",
          "name": "",
          "type": "bool"
        }
      ],
      "stateMutability": "view",
      "type": "function"
    },
    {
      "inputs": [],
      "name": "tos",
      "outputs": [
        {
          "internalType": "address",
          "name": "",
          "type": "address"
        }
      ],
      "stateMutability": "view",
      "type": "function"
    },
    {
      "inputs": [
        {
          "internalType": "address",
          "name": "newManager",
          "type": "address"
        }
      ],
      "name": "transferManagership",
      "outputs": [],
      "stateMutability": "nonpayable",
      "type": "function"
    },
    {
      "inputs": [
        {
          "internalType": "address",
          "name": "newOwner",
          "type": "address"
        }
      ],
      "name": "transferOwnership",
      "outputs": [],
      "stateMutability": "nonpayable",
      "type": "function"
    },
    {
      "inputs": [
        {
          "internalType": "address",
          "name": "impl",
          "type": "address"
        }
      ],
      "name": "upgradeTo",
      "outputs": [],
      "stateMutability": "nonpayable",
      "type": "function"
    },
    {
      "stateMutability": "payable",
      "type": "receive"
    }
  ],
  "bytecode": "0x60806040523480156200001157600080fd5b5060405162001ddc38038062001ddc833981016040819052620000349162000210565b600080546001600160a01b0319163390811782556040519091907f8be0079c531659141344cd1fd0a4f28419497f9722a3daafe3b4186f6b6457e0908290a3620000856301ffc9a760e01b620000c7565b600580546001600160a01b0319166001600160a01b0383161790556006620000ae84826200032c565b506007620000bd83826200032c565b50505050620003f8565b6001600160e01b03198082169003620001265760405162461bcd60e51b815260206004820152601c60248201527f4552433136353a20696e76616c696420696e7465726661636520696400000000604482015260640160405180910390fd5b6001600160e01b0319166000908152600460205260409020805460ff19166001179055565b634e487b7160e01b600052604160045260246000fd5b600082601f8301126200017357600080fd5b81516001600160401b03808211156200019057620001906200014b565b604051601f8301601f19908116603f01168101908282118183101715620001bb57620001bb6200014b565b81604052838152602092508683858801011115620001d857600080fd5b600091505b83821015620001fc5785820183015181830184015290820190620001dd565b600093810190920192909252949350505050565b6000806000606084860312156200022657600080fd5b83516001600160401b03808211156200023e57600080fd5b6200024c8783880162000161565b945060208601519150808211156200026357600080fd5b50620002728682870162000161565b604086015190935090506001600160a01b03811681146200029257600080fd5b809150509250925092565b600181811c90821680620002b257607f821691505b602082108103620002d357634e487b7160e01b600052602260045260246000fd5b50919050565b601f8211156200032757600081815260208120601f850160051c81016020861015620003025750805b601f850160051c820191505b8181101562000323578281556001016200030e565b5050505b505050565b81516001600160401b038111156200034857620003486200014b565b62000360816200035984546200029d565b84620002d9565b602080601f8311600181146200039857600084156200037f5750858301515b600019600386901b1c1916600185901b17855562000323565b600085815260208120601f198616915b82811015620003c957888601518255948401946001909101908401620003a8565b5085821015620003e85787850151600019600388901b60f8161c191681555b5050505050600190811b01905550565b6119d480620004086000396000f3fe6080604052600436106103015760003560e01c80638b8f4a651161018f578063b911135f116100e1578063edc3bc3f1161008a578063f663171811610064578063f663171814610a01578063fd2dcecf14610a2e578063fea3d59d14610a4457610353565b8063edc3bc3f14610986578063f0329f6b146109c1578063f2fde38b146109e157610353565b8063d28d8852116100bb578063d28d885214610936578063dece68541461094b578063e178ee201461096657610353565b8063b911135f146108b0578063ccc39909146108e6578063cea823cd1461090657610353565b8063a726366511610143578063b01ac5911161011d578063b01ac59114610860578063b09f12661461087b578063b2bdfa7b1461089057610353565b8063a7263665146107dd578063a7cc01361461080a578063aa5965ae1461084057610353565b806391ba317a1161017457806391ba317a1461077f57806394a509dd14610795578063a2e9b439146107b057610353565b80638b8f4a65146107295780638d4fdb401461075f57610353565b8063550d01a311610253578063743976a0116101fc5780637cd5f663116101d65780637cd5f663146106b057806388290adc146106d057806389f395de1461070457610353565b8063743976a014610645578063796db3121461065a5780637cb00d251461069057610353565b806363a8fd891161022d57806363a8fd89146105fa5780636c146d9b1461061b578063715018a61461063057610353565b8063550d01a3146105645780635c60da1b146105945780635cc797d8146105da57610353565b806322e67e71116102b55780634a5df50f1161028f5780634a5df50f146104d65780634f3c5f06146104f657806350d2a2761461051657610353565b806322e67e711461046557806328f02c681461047b5780633659cfe6146104b657610353565b80630bb78ec1116102e65780630bb78ec1146103d657806310c113601461040357806317a3a79c1461042357610353565b806301ffc9a71461035d578063059f8b16146103ac57610353565b366103535760405162461bcd60e51b815260206004820152601460248201527f63616e6e6f74207265636569766520457468657200000000000000000000000060448201526064015b60405180910390fd5b61035b610ace565b005b34801561036957600080fd5b506103976103783660046116fb565b6001600160e01b03191660009081526004602052604090205460ff1690565b60405190151581526020015b60405180910390f35b3480156103b857600080fd5b506103c8670de0b6b3a764000081565b6040519081526020016103a3565b3480156103e257600080fd5b506103f66103f136600461172c565b610b7e565b6040516103a39190611745565b34801561040f57600080fd5b506103c861041e36600461172c565b610c18565b34801561042f57600080fd5b5061045361043e36600461172c565b60096020526000908152604090205460ff1681565b60405160ff90911681526020016103a3565b34801561047157600080fd5b506103c860155481565b34801561048757600080fd5b5061049b610496366004611793565b610c39565b604080519384526020840192909252908201526060016103a3565b3480156104c257600080fd5b5061035b6104d13660046117cc565b610c7b565b3480156104e257600080fd5b5061035b6104f13660046117e7565b610dcc565b34801561050257600080fd5b506103c861051136600461186b565b611064565b34801561052257600080fd5b5061054c6105313660046116fb565b6003602052600090815260409020546001600160a01b031681565b6040516001600160a01b0390911681526020016103a3565b34801561057057600080fd5b5061039761057f3660046117cc565b60026020526000908152604090205460ff1681565b3480156105a057600080fd5b506000805260016020527fa6eef7e35abe7026729641147f7915573c7e97b47efa546f5f6e3230263bcb49546001600160a01b031661054c565b3480156105e657600080fd5b5061035b6105f53660046118a5565b611095565b34801561060657600080fd5b5060005461039790600160a01b900460ff1681565b34801561062757600080fd5b5061035b6110e9565b34801561063c57600080fd5b5061035b61117b565b34801561065157600080fd5b506103f661120b565b34801561066657600080fd5b5061054c61067536600461172c565b600b602052600090815260409020546001600160a01b031681565b34801561069c57600080fd5b5061035b6106ab3660046118d8565b611218565b3480156106bc57600080fd5b5061035b6106cb3660046118f3565b61128d565b3480156106dc57600080fd5b506106eb630a85bd0160e11b81565b6040516001600160e01b031990911681526020016103a3565b34801561071057600080fd5b5060135461054c9061010090046001600160a01b031681565b34801561073557600080fd5b5061054c61074436600461172c565b6000908152600160205260409020546001600160a01b031690565b34801561076b57600080fd5b5061054c61077a3660046116fb565b6112de565b34801561078b57600080fd5b506103c860165481565b3480156107a157600080fd5b506106eb635b5e139f60e01b81565b3480156107bc57600080fd5b506103c86107cb36600461172c565b60106020526000908152604090205481565b3480156107e957600080fd5b506103c86107f836600461172c565b60126020526000908152604090205481565b34801561081657600080fd5b5061054c61082536600461172c565b600c602052600090815260409020546001600160a01b031681565b34801561084c57600080fd5b506103c861085b36600461172c565b6113da565b34801561086c57600080fd5b506106eb63780e9d6360e01b81565b34801561088757600080fd5b506103f66113ea565b34801561089c57600080fd5b5060005461054c906001600160a01b031681565b3480156108bc57600080fd5b5061054c6108cb36600461172c565b6001602052600090815260409020546001600160a01b031681565b3480156108f257600080fd5b5061035b6109013660046117cc565b6113f7565b34801561091257600080fd5b5061039761092136600461172c565b601b6020526000908152604090205460ff1681565b34801561094257600080fd5b506103f66114f1565b34801561095757600080fd5b506106eb6380ac58cd60e01b81565b34801561097257600080fd5b5061049b610981366004611793565b6114fe565b34801561099257600080fd5b506103976109a1366004611926565b600e60209081526000928352604080842090915290825290205460ff1681565b3480156109cd57600080fd5b5060055461054c906001600160a01b031681565b3480156109ed57600080fd5b5061035b6109fc3660046117cc565b61151a565b348015610a0d57600080fd5b506103c8610a1c3660046117cc565b600d6020526000908152604090205481565b348015610a3a57600080fd5b506103c860145481565b348015610a5057600080fd5b50610a9b610a5f36600461172c565b6017602052600090815260409020805460018201546002830154600390930154919290916001600160a01b03811690600160a01b900460ff1685565b604080519586526020860194909452928401919091526001600160a01b031660608301521515608082015260a0016103a3565b6000610ae56000356001600160e01b0319166112de565b90506001600160a01b03811615801590610b095750600054600160a01b900460ff16155b610b555760405162461bcd60e51b815260206004820152601d60248201527f50726f78793a20696d706c204f522070726f78792069732066616c7365000000604482015260640161034a565b3660008037600080366000845af43d6000803e808015610b74573d6000f35b3d6000fd5b505050565b60086020526000908152604090208054610b9790611950565b80601f0160208091040260200160405190810160405280929190818152602001828054610bc390611950565b8015610c105780601f10610be557610100808354040283529160200191610c10565b820191906000526020600020905b815481529060010190602001808311610bf357829003601f168201915b505050505081565b601a8181548110610c2857600080fd5b600091825260209091200154905081565b60196020528160005260406000208181548110610c5557600080fd5b600091825260209091206003909102018054600182015460029092015490935090915083565b6000546001600160a01b03163314610cc15760405162461bcd60e51b81526020600482015260096024820152683737ba1037bbb732b960b91b604482015260640161034a565b6001600160a01b038116610d175760405162461bcd60e51b815260206004820152600d60248201527f696e707574206973207a65726f00000000000000000000000000000000000000604482015260640161034a565b6000805260016020527fa6eef7e35abe7026729641147f7915573c7e97b47efa546f5f6e3230263bcb49546001600160a01b03828116911603610d885760405162461bcd60e51b815260206004820152600960248201526839b0b6b29030b2323960b91b604482015260640161034a565b610d958160006001611611565b6040516001600160a01b038216907fbc7cd75a20ee27fd9adebab32041f755214dbc6bffa90cc0225b39da2e5c2d3b90600090a250565b6000546001600160a01b03163314610e125760405162461bcd60e51b81526020600482015260096024820152683737ba1037bbb732b960b91b604482015260640161034a565b81610e5f5760405162461bcd60e51b815260206004820181905260248201527f50726f78793a205f73656c6563746f727327732073697a65206973207a65726f604482015260640161034a565b6001600160a01b03811660009081526002602052604090205460ff16610ec75760405162461bcd60e51b815260206004820152601860248201527f50726f78793a205f696d70206973206e6f7420616c6976650000000000000000604482015260640161034a565b60005b8281101561105e57816001600160a01b031660036000868685818110610ef257610ef261198a565b9050602002016020810190610f0791906116fb565b6001600160e01b03191681526020810191909152604001600020546001600160a01b031603610f785760405162461bcd60e51b815260206004820152601d60248201527f4c69717569646974795661756c7450726f78793a2073616d6520696d70000000604482015260640161034a565b8160036000868685818110610f8f57610f8f61198a565b9050602002016020810190610fa491906116fb565b6001600160e01b0319168152602081019190915260400160002080546001600160a01b0319166001600160a01b039283161790558216848483818110610fec57610fec61198a565b905060200201602081019061100191906116fb565b7bffffffffffffffffffffffffffffffffffffffffffffffffffffffff19167f14ebc1c32aa68f4d766e89f3e546cee249f7df25183fc10ab1568d91c2ce9b7b60405160405180910390a380611056816119a0565b915050610eca565b50505050565b600f602052816000526040600020818154811061108057600080fd5b90600052602060002001600091509150505481565b6000546001600160a01b031633146110db5760405162461bcd60e51b81526020600482015260096024820152683737ba1037bbb732b960b91b604482015260640161034a565b6110e5828261169c565b5050565b6005546001600160a01b031633146111315760405162461bcd60e51b815260206004820152600b60248201526a3737ba1036b0b730b3b2b960a91b604482015260640161034a565b6005546040516000916001600160a01b0316907f697e4e68d3879b0dd3414a88905117bac8f0a54b0cd8e7779f909bf1a1cf5683908390a3600580546001600160a01b0319169055565b6000546001600160a01b031633146111c15760405162461bcd60e51b81526020600482015260096024820152683737ba1037bbb732b960b91b604482015260640161034a565b600080546040516001600160a01b03909116907f8be0079c531659141344cd1fd0a4f28419497f9722a3daafe3b4186f6b6457e0908390a3600080546001600160a01b0319169055565b600a8054610b9790611950565b6000546001600160a01b0316331461125e5760405162461bcd60e51b81526020600482015260096024820152683737ba1037bbb732b960b91b604482015260640161034a565b60008054911515600160a01b0274ff000000000000000000000000000000000000000019909216919091179055565b6000546001600160a01b031633146112d35760405162461bcd60e51b81526020600482015260096024820152683737ba1037bbb732b960b91b604482015260640161034a565b610b79838383611611565b6001600160e01b031981166000908152600360205260408120546001600160a01b031661133e5750506000805260016020527fa6eef7e35abe7026729641147f7915573c7e97b47efa546f5f6e3230263bcb49546001600160a01b031690565b6001600160e01b031982166000908152600360209081526040808320546001600160a01b03168352600290915290205460ff161561139c57506001600160e01b0319166000908152600360205260409020546001600160a01b031690565b50506000805260016020527fa6eef7e35abe7026729641147f7915573c7e97b47efa546f5f6e3230263bcb49546001600160a01b031690565b919050565b60118181548110610c2857600080fd5b60078054610b9790611950565b6005546001600160a01b0316331461143f5760405162461bcd60e51b815260206004820152600b60248201526a3737ba1036b0b730b3b2b960a91b604482015260640161034a565b6001600160a01b0381166114955760405162461bcd60e51b815260206004820152601f60248201527f6e6577206d616e6167657220697320746865207a65726f206164647265737300604482015260640161034a565b6005546040516001600160a01b038084169216907f697e4e68d3879b0dd3414a88905117bac8f0a54b0cd8e7779f909bf1a1cf568390600090a3600580546001600160a01b0319166001600160a01b0392909216919091179055565b60068054610b9790611950565b60186020528160005260406000208181548110610c5557600080fd5b6000546001600160a01b031633146115605760405162461bcd60e51b81526020600482015260096024820152683737ba1037bbb732b960b91b604482015260640161034a565b6001600160a01b0381166115b65760405162461bcd60e51b815260206004820152601d60248201527f6e6577206f776e657220697320746865207a65726f2061646472657373000000604482015260640161034a565b600080546040516001600160a01b03808516939216917f8be0079c531659141344cd1fd0a4f28419497f9722a3daafe3b4186f6b6457e091a3600080546001600160a01b0319166001600160a01b0392909216919091179055565b6001600160a01b0383163b6116685760405162461bcd60e51b815260206004820152601b60248201527f50726f78793a206e6f7420636f6e747261637420616464726573730000000000604482015260640161034a565b801561169657600082815260016020526040902080546001600160a01b0319166001600160a01b0385161790555b610b7983825b6001600160a01b038216600081815260026020908152604091829020805460ff191685151590811790915591519182527f72558d9bfba4210f9ef095c782589484151f6d90f7a81bb3cb9b33efc695d324910160405180910390a25050565b60006020828403121561170d57600080fd5b81356001600160e01b03198116811461172557600080fd5b9392505050565b60006020828403121561173e57600080fd5b5035919050565b600060208083528351808285015260005b8181101561177257858101830151858201604001528201611756565b506000604082860101526040601f19601f8301168501019250505092915050565b600080604083850312156117a657600080fd5b50508035926020909101359150565b80356001600160a01b03811681146113d557600080fd5b6000602082840312156117de57600080fd5b611725826117b5565b6000806000604084860312156117fc57600080fd5b833567ffffffffffffffff8082111561181457600080fd5b818601915086601f83011261182857600080fd5b81358181111561183757600080fd5b8760208260051b850101111561184c57600080fd5b60209283019550935061186291860190506117b5565b90509250925092565b6000806040838503121561187e57600080fd5b611887836117b5565b946020939093013593505050565b803580151581146113d557600080fd5b600080604083850312156118b857600080fd5b6118c1836117b5565b91506118cf60208401611895565b90509250929050565b6000602082840312156118ea57600080fd5b61172582611895565b60008060006060848603121561190857600080fd5b611911846117b5565b92506020840135915061186260408501611895565b6000806040838503121561193957600080fd5b611942836117b5565b91506118cf602084016117b5565b600181811c9082168061196457607f821691505b60208210810361198457634e487b7160e01b600052602260045260246000fd5b50919050565b634e487b7160e01b600052603260045260246000fd5b6000600182016119c057634e487b7160e01b600052601160045260246000fd5b506001019056fea164736f6c6343000812000a",
  "linkReferences": {},
  "deployedLinkReferences": {}
}