{
  "_format": "hh-sol-artifact-1",
  "contractName": "LockIdNFTProxy",
  "sourceName": "contracts/stos/LockIdNFTProxy.sol",
  "abi": [
    {
      "inputs": [
        {
          "internalType": "string",
          "name": "name_",
          "type": "string"
        },
        {
          "internalType": "string",
          "name": "symbol_",
          "type": "string"
        },
        {
          "internalType": "address",
          "name": "managerAddress",
          "type": "address"
        }
      ],
      "stateMutability": "nonpayable",
      "type": "constructor"
    },
    {
      "anonymous": false,
      "inputs": [
        {
          "indexed": true,
          "internalType": "address",
          "name": "previousManager",
          "type": "address"
        },
        {
          "indexed": true,
          "internalType": "address",
          "name": "newManager",
          "type": "address"
        }
      ],
      "name": "ManagershipTransferred",
      "type": "event"
    },
    {
      "anonymous": false,
      "inputs": [
        {
          "indexed": true,
          "internalType": "address",
          "name": "previousOwner",
          "type": "address"
        },
        {
          "indexed": true,
          "internalType": "address",
          "name": "newOwner",
          "type": "address"
        }
      ],
      "name": "OwnershipTransferred",
      "type": "event"
    },
    {
      "anonymous": false,
      "inputs": [
        {
          "indexed": true,
          "internalType": "address",
          "name": "impl",
          "type": "address"
        },
        {
          "indexed": false,
          "internalType": "bool",
          "name": "alive",
          "type": "bool"
        }
      ],
      "name": "SetAliveImplementation",
      "type": "event"
    },
    {
      "anonymous": false,
      "inputs": [
        {
          "indexed": true,
          "internalType": "bytes4",
          "name": "selector",
          "type": "bytes4"
        },
        {
          "indexed": true,
          "internalType": "address",
          "name": "impl",
          "type": "address"
        }
      ],
      "name": "SetSelectorImplementation",
      "type": "event"
    },
    {
      "anonymous": false,
      "inputs": [
        {
          "indexed": true,
          "internalType": "address",
          "name": "implementation",
          "type": "address"
        }
      ],
      "name": "Upgraded",
      "type": "event"
    },
    {
      "stateMutability": "payable",
      "type": "fallback"
    },
    {
      "inputs": [],
      "name": "MULTIPLIER",
      "outputs": [
        {
          "internalType": "uint256",
          "name": "",
          "type": "uint256"
        }
      ],
      "stateMutability": "view",
      "type": "function"
    },
    {
      "inputs": [],
      "name": "_ERC721_RECEIVED",
      "outputs": [
        {
          "internalType": "bytes4",
          "name": "",
          "type": "bytes4"
        }
      ],
      "stateMutability": "view",
      "type": "function"
    },
    {
      "inputs": [],
      "name": "_INTERFACE_ID_ERC721",
      "outputs": [
        {
          "internalType": "bytes4",
          "name": "",
          "type": "bytes4"
        }
      ],
      "stateMutability": "view",
      "type": "function"
    },
    {
      "inputs": [],
      "name": "_INTERFACE_ID_ERC721_ENUMERABLE",
      "outputs": [
        {
          "internalType": "bytes4",
          "name": "",
          "type": "bytes4"
        }
      ],
      "stateMutability": "view",
      "type": "function"
    },
    {
      "inputs": [],
      "name": "_INTERFACE_ID_ERC721_METADATA",
      "outputs": [
        {
          "internalType": "bytes4",
          "name": "",
          "type": "bytes4"
        }
      ],
      "stateMutability": "view",
      "type": "function"
    },
    {
      "inputs": [
        {
          "internalType": "uint256",
          "name": "",
          "type": "uint256"
        }
      ],
      "name": "_allTokens",
      "outputs": [
        {
          "internalType": "uint256",
          "name": "",
          "type": "uint256"
        }
      ],
      "stateMutability": "view",
      "type": "function"
    },
    {
      "inputs": [
        {
          "internalType": "uint256",
          "name": "",
          "type": "uint256"
        }
      ],
      "name": "_allTokensIndex",
      "outputs": [
        {
          "internalType": "uint256",
          "name": "",
          "type": "uint256"
        }
      ],
      "stateMutability": "view",
      "type": "function"
    },
    {
      "inputs": [],
      "name": "_baseURI",
      "outputs": [
        {
          "internalType": "string",
          "name": "",
          "type": "string"
        }
      ],
      "stateMutability": "view",
      "type": "function"
    },
    {
      "inputs": [],
      "name": "_manager",
      "outputs": [
        {
          "internalType": "address",
          "name": "",
          "type": "address"
        }
      ],
      "stateMutability": "view",
      "type": "function"
    },
    {
      "inputs": [],
      "name": "_name",
      "outputs": [
        {
          "internalType": "string",
          "name": "",
          "type": "string"
        }
      ],
      "stateMutability": "view",
      "type": "function"
    },
    {
      "inputs": [
        {
          "internalType": "address",
          "name": "",
          "type": "address"
        },
        {
          "internalType": "address",
          "name": "",
          "type": "address"
        }
      ],
      "name": "_operatorApprovals",
      "outputs": [
        {
          "internalType": "bool",
          "name": "",
          "type": "bool"
        }
      ],
      "stateMutability": "view",
      "type": "function"
    },
    {
      "inputs": [
        {
          "internalType": "address",
          "name": "",
          "type": "address"
        },
        {
          "internalType": "uint256",
          "name": "",
          "type": "uint256"
        }
      ],
      "name": "_ownedTokens",
      "outputs": [
        {
          "internalType": "uint256",
          "name": "",
          "type": "uint256"
        }
      ],
      "stateMutability": "view",
      "type": "function"
    },
    {
      "inputs": [
        {
          "internalType": "address",
          "name": "",
          "type": "address"
        }
      ],
      "name": "_ownedTokensCount",
      "outputs": [
        {
          "internalType": "uint256",
          "name": "",
          "type": "uint256"
        }
      ],
      "stateMutability": "view",
      "type": "function"
    },
    {
      "inputs": [
        {
          "internalType": "uint256",
          "name": "",
          "type": "uint256"
        }
      ],
      "name": "_ownedTokensIndex",
      "outputs": [
        {
          "internalType": "uint256",
          "name": "",
          "type": "uint256"
        }
      ],
      "stateMutability": "view",
      "type": "function"
    },
    {
      "inputs": [],
      "name": "_owner",
      "outputs": [
        {
          "internalType": "address",
          "name": "",
          "type": "address"
        }
      ],
      "stateMutability": "view",
      "type": "function"
    },
    {
      "inputs": [],
      "name": "_symbol",
      "outputs": [
        {
          "internalType": "string",
          "name": "",
          "type": "string"
        }
      ],
      "stateMutability": "view",
      "type": "function"
    },
    {
      "inputs": [
        {
          "internalType": "uint256",
          "name": "",
          "type": "uint256"
        }
      ],
      "name": "_tokenApprovals",
      "outputs": [
        {
          "internalType": "address",
          "name": "",
          "type": "address"
        }
      ],
      "stateMutability": "view",
      "type": "function"
    },
    {
      "inputs": [
        {
          "internalType": "uint256",
          "name": "",
          "type": "uint256"
        }
      ],
      "name": "_tokenAttributes",
      "outputs": [
        {
          "internalType": "uint8",
          "name": "",
          "type": "uint8"
        }
      ],
      "stateMutability": "view",
      "type": "function"
    },
    {
      "inputs": [
        {
          "internalType": "uint256",
          "name": "",
          "type": "uint256"
        }
      ],
      "name": "_tokenOwner",
      "outputs": [
        {
          "internalType": "address",
          "name": "",
          "type": "address"
        }
      ],
      "stateMutability": "view",
      "type": "function"
    },
    {
      "inputs": [
        {
          "internalType": "uint256",
          "name": "",
          "type": "uint256"
        }
      ],
      "name": "_tokenURIs",
      "outputs": [
        {
          "internalType": "string",
          "name": "",
          "type": "string"
        }
      ],
      "stateMutability": "view",
      "type": "function"
    },
    {
      "inputs": [
        {
          "internalType": "address",
          "name": "",
          "type": "address"
        }
      ],
      "name": "aliveImplementation",
      "outputs": [
        {
          "internalType": "bool",
          "name": "",
          "type": "bool"
        }
      ],
      "stateMutability": "view",
      "type": "function"
    },
    {
      "inputs": [],
      "name": "epochUnit",
      "outputs": [
        {
          "internalType": "uint256",
          "name": "",
          "type": "uint256"
        }
      ],
      "stateMutability": "view",
      "type": "function"
    },
    {
      "inputs": [
        {
          "internalType": "bytes4",
          "name": "_selector",
          "type": "bytes4"
        }
      ],
      "name": "getSelectorImplementation2",
      "outputs": [
        {
          "internalType": "address",
          "name": "impl",
          "type": "address"
        }
      ],
      "stateMutability": "view",
      "type": "function"
    },
    {
      "inputs": [],
      "name": "implementation",
      "outputs": [
        {
          "internalType": "address",
          "name": "",
          "type": "address"
        }
      ],
      "stateMutability": "view",
      "type": "function"
    },
    {
      "inputs": [
        {
          "internalType": "uint256",
          "name": "_index",
          "type": "uint256"
        }
      ],
      "name": "implementation2",
      "outputs": [
        {
          "internalType": "address",
          "name": "",
          "type": "address"
        }
      ],
      "stateMutability": "view",
      "type": "function"
    },
    {
      "inputs": [
        {
          "internalType": "uint256",
          "name": "",
          "type": "uint256"
        }
      ],
      "name": "indexCheckOfTimeset",
      "outputs": [
        {
          "internalType": "bool",
          "name": "",
          "type": "bool"
        }
      ],
      "stateMutability": "view",
      "type": "function"
    },
    {
      "inputs": [
        {
          "internalType": "uint256",
          "name": "",
          "type": "uint256"
        }
      ],
      "name": "indexOfTimeset",
      "outputs": [
        {
          "internalType": "uint256",
          "name": "",
          "type": "uint256"
        }
      ],
      "stateMutability": "view",
      "type": "function"
    },
    {
      "inputs": [
        {
          "internalType": "uint256",
          "name": "",
          "type": "uint256"
        }
      ],
      "name": "lockIdInfos",
      "outputs": [
        {
          "internalType": "uint256",
          "name": "start",
          "type": "uint256"
        },
        {
          "internalType": "uint256",
          "name": "end",
          "type": "uint256"
        },
        {
          "internalType": "uint256",
          "name": "amount",
          "type": "uint256"
        },
        {
          "internalType": "address",
          "name": "owner",
          "type": "address"
        },
        {
          "internalType": "bool",
          "name": "withdrawn",
          "type": "bool"
        }
      ],
      "stateMutability": "view",
      "type": "function"
    },
    {
      "inputs": [],
      "name": "maxTime",
      "outputs": [
        {
          "internalType": "uint256",
          "name": "",
          "type": "uint256"
        }
      ],
      "stateMutability": "view",
      "type": "function"
    },
    {
      "inputs": [],
      "name": "maxTokenId",
      "outputs": [
        {
          "internalType": "uint256",
          "name": "",
          "type": "uint256"
        }
      ],
      "stateMutability": "view",
      "type": "function"
    },
    {
      "inputs": [],
      "name": "pauseProxy",
      "outputs": [
        {
          "internalType": "bool",
          "name": "",
          "type": "bool"
        }
      ],
      "stateMutability": "view",
      "type": "function"
    },
    {
      "inputs": [
        {
          "internalType": "uint256",
          "name": "",
          "type": "uint256"
        },
        {
          "internalType": "uint256",
          "name": "",
          "type": "uint256"
        }
      ],
      "name": "pointHistoryByLockId",
      "outputs": [
        {
          "internalType": "int256",
          "name": "slope",
          "type": "int256"
        },
        {
          "internalType": "int256",
          "name": "bias",
          "type": "int256"
        },
        {
          "internalType": "uint256",
          "name": "timestamp",
          "type": "uint256"
        }
      ],
      "stateMutability": "view",
      "type": "function"
    },
    {
      "inputs": [
        {
          "internalType": "uint256",
          "name": "",
          "type": "uint256"
        },
        {
          "internalType": "uint256",
          "name": "",
          "type": "uint256"
        }
      ],
      "name": "pointHistoryByWeek",
      "outputs": [
        {
          "internalType": "int256",
          "name": "slope",
          "type": "int256"
        },
        {
          "internalType": "int256",
          "name": "bias",
          "type": "int256"
        },
        {
          "internalType": "uint256",
          "name": "timestamp",
          "type": "uint256"
        }
      ],
      "stateMutability": "view",
      "type": "function"
    },
    {
      "inputs": [
        {
          "internalType": "uint256",
          "name": "",
          "type": "uint256"
        }
      ],
      "name": "proxyImplementation",
      "outputs": [
        {
          "internalType": "address",
          "name": "",
          "type": "address"
        }
      ],
      "stateMutability": "view",
      "type": "function"
    },
    {
      "inputs": [],
      "name": "renounceManagership",
      "outputs": [],
      "stateMutability": "nonpayable",
      "type": "function"
    },
    {
      "inputs": [],
      "name": "renounceOwnership",
      "outputs": [],
      "stateMutability": "nonpayable",
      "type": "function"
    },
    {
      "inputs": [
        {
          "internalType": "bytes4",
          "name": "",
          "type": "bytes4"
        }
      ],
      "name": "selectorImplementation",
      "outputs": [
        {
          "internalType": "address",
          "name": "",
          "type": "address"
        }
      ],
      "stateMutability": "view",
      "type": "function"
    },
    {
      "inputs": [
        {
          "internalType": "address",
          "name": "newImplementation",
          "type": "address"
        },
        {
          "internalType": "bool",
          "name": "_alive",
          "type": "bool"
        }
      ],
      "name": "setAliveImplementation2",
      "outputs": [],
      "stateMutability": "nonpayable",
      "type": "function"
    },
    {
      "inputs": [
        {
          "internalType": "address",
          "name": "newImplementation",
          "type": "address"
        },
        {
          "internalType": "uint256",
          "name": "_index",
          "type": "uint256"
        },
        {
          "internalType": "bool",
          "name": "_alive",
          "type": "bool"
        }
      ],
      "name": "setImplementation2",
      "outputs": [],
      "stateMutability": "nonpayable",
      "type": "function"
    },
    {
      "inputs": [
        {
          "internalType": "bool",
          "name": "_pause",
          "type": "bool"
        }
      ],
      "name": "setProxyPause",
      "outputs": [],
      "stateMutability": "nonpayable",
      "type": "function"
    },
    {
      "inputs": [
        {
          "internalType": "bytes4[]",
          "name": "_selectors",
          "type": "bytes4[]"
        },
        {
          "internalType": "address",
          "name": "_imp",
          "type": "address"
        }
      ],
      "name": "setSelectorImplementations2",
      "outputs": [],
      "stateMutability": "nonpayable",
      "type": "function"
    },
    {
      "inputs": [],
      "name": "staker",
      "outputs": [
        {
          "internalType": "address",
          "name": "",
          "type": "address"
        }
      ],
      "stateMutability": "view",
      "type": "function"
    },
    {
      "inputs": [
        {
          "internalType": "bytes4",
          "name": "interfaceId",
          "type": "bytes4"
        }
      ],
      "name": "supportsInterface",
      "outputs": [
        {
          "internalType": "bool",
          "name": "",
          "type": "bool"
        }
      ],
      "stateMutability": "view",
      "type": "function"
    },
    {
      "inputs": [],
      "name": "tos",
      "outputs": [
        {
          "internalType": "address",
          "name": "",
          "type": "address"
        }
      ],
      "stateMutability": "view",
      "type": "function"
    },
    {
      "inputs": [
        {
          "internalType": "address",
          "name": "newManager",
          "type": "address"
        }
      ],
      "name": "transferManagership",
      "outputs": [],
      "stateMutability": "nonpayable",
      "type": "function"
    },
    {
      "inputs": [
        {
          "internalType": "address",
          "name": "newOwner",
          "type": "address"
        }
      ],
      "name": "transferOwnership",
      "outputs": [],
      "stateMutability": "nonpayable",
      "type": "function"
    },
    {
      "inputs": [
        {
          "internalType": "address",
          "name": "impl",
          "type": "address"
        }
      ],
      "name": "upgradeTo",
      "outputs": [],
      "stateMutability": "nonpayable",
      "type": "function"
    },
    {
      "inputs": [
        {
          "internalType": "address",
          "name": "_implementation",
          "type": "address"
        },
        {
          "internalType": "bytes",
          "name": "_data",
          "type": "bytes"
        }
      ],
      "name": "upgradeToAndCall",
      "outputs": [
        {
          "internalType": "bytes",
          "name": "",
          "type": "bytes"
        }
      ],
      "stateMutability": "payable",
      "type": "function"
    },
    {
      "stateMutability": "payable",
      "type": "receive"
    }
  ],
  "bytecode": "0x60806040523480156200001157600080fd5b5060405162001ff738038062001ff7833981016040819052620000349162000210565b600080546001600160a01b0319163390811782556040519091907f8be0079c531659141344cd1fd0a4f28419497f9722a3daafe3b4186f6b6457e0908290a3620000856301ffc9a760e01b620000c7565b600580546001600160a01b0319166001600160a01b0383161790556007620000ae84826200032c565b506008620000bd83826200032c565b50505050620003f8565b6001600160e01b03198082169003620001265760405162461bcd60e51b815260206004820152601c60248201527f4552433136353a20696e76616c696420696e7465726661636520696400000000604482015260640160405180910390fd5b6001600160e01b0319166000908152600460205260409020805460ff19166001179055565b634e487b7160e01b600052604160045260246000fd5b600082601f8301126200017357600080fd5b81516001600160401b03808211156200019057620001906200014b565b604051601f8301601f19908116603f01168101908282118183101715620001bb57620001bb6200014b565b81604052838152602092508683858801011115620001d857600080fd5b600091505b83821015620001fc5785820183015181830184015290820190620001dd565b600093810190920192909252949350505050565b6000806000606084860312156200022657600080fd5b83516001600160401b03808211156200023e57600080fd5b6200024c8783880162000161565b945060208601519150808211156200026357600080fd5b50620002728682870162000161565b604086015190935090506001600160a01b03811681146200029257600080fd5b809150509250925092565b600181811c90821680620002b257607f821691505b602082108103620002d357634e487b7160e01b600052602260045260246000fd5b50919050565b601f8211156200032757600081815260208120601f850160051c81016020861015620003025750805b601f850160051c820191505b8181101562000323578281556001016200030e565b5050505b505050565b81516001600160401b038111156200034857620003486200014b565b62000360816200035984546200029d565b84620002d9565b602080601f8311600181146200039857600084156200037f5750858301515b600019600386901b1c1916600185901b17855562000323565b600085815260208120601f198616915b82811015620003c957888601518255948401946001909101908401620003a8565b5085821015620003e85787850151600019600388901b60f8161c191681555b5050505050600190811b01905550565b611bef80620004086000396000f3fe6080604052600436106103175760003560e01c806389f395de1161019a578063b911135f116100e1578063edc3bc3f1161008a578063f663171811610064578063f663171814610a4a578063fd2dcecf14610a77578063fea3d59d14610a8d57610369565b8063edc3bc3f146109cf578063f0329f6b14610a0a578063f2fde38b14610a2a57610369565b8063d28d8852116100bb578063d28d88521461097f578063dece685414610994578063e178ee20146109af57610369565b8063b911135f146108f9578063ccc399091461092f578063cea823cd1461094f57610369565b8063a726366511610143578063b01ac5911161011d578063b01ac591146108a9578063b09f1266146108c4578063b2bdfa7b146108d957610369565b8063a726366514610826578063a7cc013614610853578063aa5965ae1461088957610369565b806391ba317a1161017457806391ba317a146107c857806394a509dd146107de578063a2e9b439146107f957610369565b806389f395de1461074d5780638b8f4a65146107725780638d4fdb40146107a857610369565b8063550d01a31161025e578063715018a6116102075780637cb00d25116101e15780637cb00d25146106d95780637cd5f663146106f957806388290adc1461071957610369565b8063715018a614610679578063743976a01461068e578063796db312146106a357610369565b80635ebaf1db116102385780635ebaf1db1461062357806363a8fd89146106435780636c146d9b1461066457610369565b8063550d01a31461058d5780635c60da1b146105bd5780635cc797d81461060357610369565b806328f02c68116102c05780634f1ef2861161029a5780634f1ef2861461050c5780634f3c5f061461051f57806350d2a2761461053f57610369565b806328f02c68146104915780633659cfe6146104cc5780634a5df50f146104ec57610369565b806310c11360116102f157806310c113601461041957806317a3a79c1461043957806322e67e711461047b57610369565b806301ffc9a714610373578063059f8b16146103c25780630bb78ec1146103ec57610369565b366103695760405162461bcd60e51b815260206004820152601460248201527f63616e6e6f74207265636569766520457468657200000000000000000000000060448201526064015b60405180910390fd5b610371610b17565b005b34801561037f57600080fd5b506103ad61038e366004611878565b6001600160e01b03191660009081526004602052604090205460ff1690565b60405190151581526020015b60405180910390f35b3480156103ce57600080fd5b506103de670de0b6b3a764000081565b6040519081526020016103b9565b3480156103f857600080fd5b5061040c6104073660046118a9565b610bc7565b6040516103b99190611908565b34801561042557600080fd5b506103de6104343660046118a9565b610c61565b34801561044557600080fd5b506104696104543660046118a9565b600a6020526000908152604090205460ff1681565b60405160ff90911681526020016103b9565b34801561048757600080fd5b506103de60165481565b34801561049d57600080fd5b506104b16104ac36600461191b565b610c82565b604080519384526020840192909252908201526060016103b9565b3480156104d857600080fd5b506103716104e7366004611954565b610cc4565b3480156104f857600080fd5b5061037161050736600461196f565b610e15565b61040c61051a3660046119f3565b6110ad565b34801561052b57600080fd5b506103de61053a366004611a76565b6111e1565b34801561054b57600080fd5b5061057561055a366004611878565b6003602052600090815260409020546001600160a01b031681565b6040516001600160a01b0390911681526020016103b9565b34801561059957600080fd5b506103ad6105a8366004611954565b60026020526000908152604090205460ff1681565b3480156105c957600080fd5b506000805260016020527fa6eef7e35abe7026729641147f7915573c7e97b47efa546f5f6e3230263bcb49546001600160a01b0316610575565b34801561060f57600080fd5b5061037161061e366004611ab0565b611212565b34801561062f57600080fd5b50600654610575906001600160a01b031681565b34801561064f57600080fd5b506000546103ad90600160a01b900460ff1681565b34801561067057600080fd5b50610371611266565b34801561068557600080fd5b506103716112f8565b34801561069a57600080fd5b5061040c611388565b3480156106af57600080fd5b506105756106be3660046118a9565b600c602052600090815260409020546001600160a01b031681565b3480156106e557600080fd5b506103716106f4366004611ae3565b611395565b34801561070557600080fd5b50610371610714366004611afe565b61140a565b34801561072557600080fd5b50610734630a85bd0160e11b81565b6040516001600160e01b031990911681526020016103b9565b34801561075957600080fd5b506014546105759061010090046001600160a01b031681565b34801561077e57600080fd5b5061057561078d3660046118a9565b6000908152600160205260409020546001600160a01b031690565b3480156107b457600080fd5b506105756107c3366004611878565b61145b565b3480156107d457600080fd5b506103de60175481565b3480156107ea57600080fd5b50610734635b5e139f60e01b81565b34801561080557600080fd5b506103de6108143660046118a9565b60116020526000908152604090205481565b34801561083257600080fd5b506103de6108413660046118a9565b60136020526000908152604090205481565b34801561085f57600080fd5b5061057561086e3660046118a9565b600d602052600090815260409020546001600160a01b031681565b34801561089557600080fd5b506103de6108a43660046118a9565b611557565b3480156108b557600080fd5b5061073463780e9d6360e01b81565b3480156108d057600080fd5b5061040c611567565b3480156108e557600080fd5b50600054610575906001600160a01b031681565b34801561090557600080fd5b506105756109143660046118a9565b6001602052600090815260409020546001600160a01b031681565b34801561093b57600080fd5b5061037161094a366004611954565b611574565b34801561095b57600080fd5b506103ad61096a3660046118a9565b601c6020526000908152604090205460ff1681565b34801561098b57600080fd5b5061040c61166e565b3480156109a057600080fd5b506107346380ac58cd60e01b81565b3480156109bb57600080fd5b506104b16109ca36600461191b565b61167b565b3480156109db57600080fd5b506103ad6109ea366004611b31565b600f60209081526000928352604080842090915290825290205460ff1681565b348015610a1657600080fd5b50600554610575906001600160a01b031681565b348015610a3657600080fd5b50610371610a45366004611954565b611697565b348015610a5657600080fd5b506103de610a65366004611954565b600e6020526000908152604090205481565b348015610a8357600080fd5b506103de60155481565b348015610a9957600080fd5b50610ae4610aa83660046118a9565b6018602052600090815260409020805460018201546002830154600390930154919290916001600160a01b03811690600160a01b900460ff1685565b604080519586526020860194909452928401919091526001600160a01b031660608301521515608082015260a0016103b9565b6000610b2e6000356001600160e01b03191661145b565b90506001600160a01b03811615801590610b525750600054600160a01b900460ff16155b610b9e5760405162461bcd60e51b815260206004820152601d60248201527f50726f78793a20696d706c204f522070726f78792069732066616c73650000006044820152606401610360565b3660008037600080366000845af43d6000803e808015610bbd573d6000f35b3d6000fd5b505050565b60096020526000908152604090208054610be090611b5b565b80601f0160208091040260200160405190810160405280929190818152602001828054610c0c90611b5b565b8015610c595780601f10610c2e57610100808354040283529160200191610c59565b820191906000526020600020905b815481529060010190602001808311610c3c57829003601f168201915b505050505081565b601b8181548110610c7157600080fd5b600091825260209091200154905081565b601a6020528160005260406000208181548110610c9e57600080fd5b600091825260209091206003909102018054600182015460029092015490935090915083565b6000546001600160a01b03163314610d0a5760405162461bcd60e51b81526020600482015260096024820152683737ba1037bbb732b960b91b6044820152606401610360565b6001600160a01b038116610d605760405162461bcd60e51b815260206004820152600d60248201527f696e707574206973207a65726f000000000000000000000000000000000000006044820152606401610360565b6000805260016020527fa6eef7e35abe7026729641147f7915573c7e97b47efa546f5f6e3230263bcb49546001600160a01b03828116911603610dd15760405162461bcd60e51b815260206004820152600960248201526839b0b6b29030b2323960b91b6044820152606401610360565b610dde816000600161178e565b6040516001600160a01b038216907fbc7cd75a20ee27fd9adebab32041f755214dbc6bffa90cc0225b39da2e5c2d3b90600090a250565b6000546001600160a01b03163314610e5b5760405162461bcd60e51b81526020600482015260096024820152683737ba1037bbb732b960b91b6044820152606401610360565b81610ea85760405162461bcd60e51b815260206004820181905260248201527f50726f78793a205f73656c6563746f727327732073697a65206973207a65726f6044820152606401610360565b6001600160a01b03811660009081526002602052604090205460ff16610f105760405162461bcd60e51b815260206004820152601860248201527f50726f78793a205f696d70206973206e6f7420616c69766500000000000000006044820152606401610360565b60005b828110156110a757816001600160a01b031660036000868685818110610f3b57610f3b611b95565b9050602002016020810190610f509190611878565b6001600160e01b03191681526020810191909152604001600020546001600160a01b031603610fc15760405162461bcd60e51b815260206004820152601d60248201527f4c69717569646974795661756c7450726f78793a2073616d6520696d700000006044820152606401610360565b8160036000868685818110610fd857610fd8611b95565b9050602002016020810190610fed9190611878565b6001600160e01b0319168152602081019190915260400160002080546001600160a01b0319166001600160a01b03928316179055821684848381811061103557611035611b95565b905060200201602081019061104a9190611878565b7bffffffffffffffffffffffffffffffffffffffffffffffffffffffff19167f14ebc1c32aa68f4d766e89f3e546cee249f7df25183fc10ab1568d91c2ce9b7b60405160405180910390a38061109f81611bab565b915050610f13565b50505050565b6000546060906001600160a01b031633146110f65760405162461bcd60e51b81526020600482015260096024820152683737ba1037bbb732b960b91b6044820152606401610360565b611103846000600161178e565b600080856001600160a01b03168585604051611120929190611bd2565b600060405180830381855af49150503d806000811461115b576040519150601f19603f3d011682016040523d82523d6000602084013e611160565b606091505b5091509150816111d85760405162461bcd60e51b815260206004820152603960248201527f50726f78793a2064656c656761746563616c6c20746f206e657720696d706c6560448201527f6d656e746174696f6e20636f6e7472616374206661696c6564000000000000006064820152608401610360565b95945050505050565b601060205281600052604060002081815481106111fd57600080fd5b90600052602060002001600091509150505481565b6000546001600160a01b031633146112585760405162461bcd60e51b81526020600482015260096024820152683737ba1037bbb732b960b91b6044820152606401610360565b6112628282611819565b5050565b6005546001600160a01b031633146112ae5760405162461bcd60e51b815260206004820152600b60248201526a3737ba1036b0b730b3b2b960a91b6044820152606401610360565b6005546040516000916001600160a01b0316907f697e4e68d3879b0dd3414a88905117bac8f0a54b0cd8e7779f909bf1a1cf5683908390a3600580546001600160a01b0319169055565b6000546001600160a01b0316331461133e5760405162461bcd60e51b81526020600482015260096024820152683737ba1037bbb732b960b91b6044820152606401610360565b600080546040516001600160a01b03909116907f8be0079c531659141344cd1fd0a4f28419497f9722a3daafe3b4186f6b6457e0908390a3600080546001600160a01b0319169055565b600b8054610be090611b5b565b6000546001600160a01b031633146113db5760405162461bcd60e51b81526020600482015260096024820152683737ba1037bbb732b960b91b6044820152606401610360565b60008054911515600160a01b0274ff000000000000000000000000000000000000000019909216919091179055565b6000546001600160a01b031633146114505760405162461bcd60e51b81526020600482015260096024820152683737ba1037bbb732b960b91b6044820152606401610360565b610bc283838361178e565b6001600160e01b031981166000908152600360205260408120546001600160a01b03166114bb5750506000805260016020527fa6eef7e35abe7026729641147f7915573c7e97b47efa546f5f6e3230263bcb49546001600160a01b031690565b6001600160e01b031982166000908152600360209081526040808320546001600160a01b03168352600290915290205460ff161561151957506001600160e01b0319166000908152600360205260409020546001600160a01b031690565b50506000805260016020527fa6eef7e35abe7026729641147f7915573c7e97b47efa546f5f6e3230263bcb49546001600160a01b031690565b919050565b60128181548110610c7157600080fd5b60088054610be090611b5b565b6005546001600160a01b031633146115bc5760405162461bcd60e51b815260206004820152600b60248201526a3737ba1036b0b730b3b2b960a91b6044820152606401610360565b6001600160a01b0381166116125760405162461bcd60e51b815260206004820152601f60248201527f6e6577206d616e6167657220697320746865207a65726f2061646472657373006044820152606401610360565b6005546040516001600160a01b038084169216907f697e4e68d3879b0dd3414a88905117bac8f0a54b0cd8e7779f909bf1a1cf568390600090a3600580546001600160a01b0319166001600160a01b0392909216919091179055565b60078054610be090611b5b565b60196020528160005260406000208181548110610c9e57600080fd5b6000546001600160a01b031633146116dd5760405162461bcd60e51b81526020600482015260096024820152683737ba1037bbb732b960b91b6044820152606401610360565b6001600160a01b0381166117335760405162461bcd60e51b815260206004820152601d60248201527f6e6577206f776e657220697320746865207a65726f20616464726573730000006044820152606401610360565b600080546040516001600160a01b03808516939216917f8be0079c531659141344cd1fd0a4f28419497f9722a3daafe3b4186f6b6457e091a3600080546001600160a01b0319166001600160a01b0392909216919091179055565b6001600160a01b0383163b6117e55760405162461bcd60e51b815260206004820152601b60248201527f50726f78793a206e6f7420636f6e7472616374206164647265737300000000006044820152606401610360565b801561181357600082815260016020526040902080546001600160a01b0319166001600160a01b0385161790555b610bc283825b6001600160a01b038216600081815260026020908152604091829020805460ff191685151590811790915591519182527f72558d9bfba4210f9ef095c782589484151f6d90f7a81bb3cb9b33efc695d324910160405180910390a25050565b60006020828403121561188a57600080fd5b81356001600160e01b0319811681146118a257600080fd5b9392505050565b6000602082840312156118bb57600080fd5b5035919050565b6000815180845260005b818110156118e8576020818501810151868301820152016118cc565b506000602082860101526020601f19601f83011685010191505092915050565b6020815260006118a260208301846118c2565b6000806040838503121561192e57600080fd5b50508035926020909101359150565b80356001600160a01b038116811461155257600080fd5b60006020828403121561196657600080fd5b6118a28261193d565b60008060006040848603121561198457600080fd5b833567ffffffffffffffff8082111561199c57600080fd5b818601915086601f8301126119b057600080fd5b8135818111156119bf57600080fd5b8760208260051b85010111156119d457600080fd5b6020928301955093506119ea918601905061193d565b90509250925092565b600080600060408486031215611a0857600080fd5b611a118461193d565b9250602084013567ffffffffffffffff80821115611a2e57600080fd5b818601915086601f830112611a4257600080fd5b813581811115611a5157600080fd5b876020828501011115611a6357600080fd5b6020830194508093505050509250925092565b60008060408385031215611a8957600080fd5b611a928361193d565b946020939093013593505050565b8035801515811461155257600080fd5b60008060408385031215611ac357600080fd5b611acc8361193d565b9150611ada60208401611aa0565b90509250929050565b600060208284031215611af557600080fd5b6118a282611aa0565b600080600060608486031215611b1357600080fd5b611b1c8461193d565b9250602084013591506119ea60408501611aa0565b60008060408385031215611b4457600080fd5b611b4d8361193d565b9150611ada6020840161193d565b600181811c90821680611b6f57607f821691505b602082108103611b8f57634e487b7160e01b600052602260045260246000fd5b50919050565b634e487b7160e01b600052603260045260246000fd5b600060018201611bcb57634e487b7160e01b600052601160045260246000fd5b5060010190565b818382376000910190815291905056fea164736f6c6343000812000a",
  "linkReferences": {},
  "deployedLinkReferences": {}
}