{
  "_format": "hh-sol-artifact-1",
  "contractName": "ERC20A",
  "sourceName": "contracts/L1/tokens/ERC20A.sol",
  "abi": [
    {
      "inputs": [
        {
          "internalType": "string",
          "name": "_name",
          "type": "string"
        },
        {
          "internalType": "string",
          "name": "_symbol",
          "type": "string"
        },
        {
          "internalType": "uint256",
          "name": "initialSupply",
          "type": "uint256"
        },
        {
          "internalType": "address",
          "name": "to",
          "type": "address"
        }
      ],
      "stateMutability": "nonpayable",
      "type": "constructor"
    },
    {
      "anonymous": false,
      "inputs": [
        {
          "indexed": true,
          "internalType": "address",
          "name": "owner",
          "type": "address"
        },
        {
          "indexed": true,
          "internalType": "address",
          "name": "spender",
          "type": "address"
        },
        {
          "indexed": false,
          "internalType": "uint256",
          "name": "value",
          "type": "uint256"
        }
      ],
      "name": "Approval",
      "type": "event"
    },
    {
      "anonymous": false,
      "inputs": [
        {
          "indexed": true,
          "internalType": "address",
          "name": "from",
          "type": "address"
        },
        {
          "indexed": true,
          "internalType": "address",
          "name": "to",
          "type": "address"
        },
        {
          "indexed": false,
          "internalType": "uint256",
          "name": "value",
          "type": "uint256"
        }
      ],
      "name": "Transfer",
      "type": "event"
    },
    {
      "inputs": [],
      "name": "_INTERFACE_ID_ERC20",
      "outputs": [
        {
          "internalType": "bytes4",
          "name": "",
          "type": "bytes4"
        }
      ],
      "stateMutability": "view",
      "type": "function"
    },
    {
      "inputs": [
        {
          "internalType": "bytes4",
          "name": "",
          "type": "bytes4"
        }
      ],
      "name": "_supportedInterfaces",
      "outputs": [
        {
          "internalType": "bool",
          "name": "",
          "type": "bool"
        }
      ],
      "stateMutability": "view",
      "type": "function"
    },
    {
      "inputs": [
        {
          "internalType": "address",
          "name": "owner",
          "type": "address"
        },
        {
          "internalType": "address",
          "name": "spender",
          "type": "address"
        }
      ],
      "name": "allowance",
      "outputs": [
        {
          "internalType": "uint256",
          "name": "",
          "type": "uint256"
        }
      ],
      "stateMutability": "view",
      "type": "function"
    },
    {
      "inputs": [
        {
          "internalType": "address",
          "name": "spender",
          "type": "address"
        },
        {
          "internalType": "uint256",
          "name": "amount",
          "type": "uint256"
        }
      ],
      "name": "approve",
      "outputs": [
        {
          "internalType": "bool",
          "name": "",
          "type": "bool"
        }
      ],
      "stateMutability": "nonpayable",
      "type": "function"
    },
    {
      "inputs": [
        {
          "internalType": "address",
          "name": "spender",
          "type": "address"
        },
        {
          "internalType": "uint256",
          "name": "amount",
          "type": "uint256"
        },
        {
          "internalType": "bytes",
          "name": "data",
          "type": "bytes"
        }
      ],
      "name": "approveAndCall",
      "outputs": [
        {
          "internalType": "bool",
          "name": "",
          "type": "bool"
        }
      ],
      "stateMutability": "nonpayable",
      "type": "function"
    },
    {
      "inputs": [
        {
          "internalType": "address",
          "name": "account",
          "type": "address"
        }
      ],
      "name": "balanceOf",
      "outputs": [
        {
          "internalType": "uint256",
          "name": "",
          "type": "uint256"
        }
      ],
      "stateMutability": "view",
      "type": "function"
    },
    {
      "inputs": [
        {
          "internalType": "uint256",
          "name": "amount",
          "type": "uint256"
        }
      ],
      "name": "burn",
      "outputs": [],
      "stateMutability": "nonpayable",
      "type": "function"
    },
    {
      "inputs": [
        {
          "internalType": "address",
          "name": "account",
          "type": "address"
        },
        {
          "internalType": "uint256",
          "name": "amount",
          "type": "uint256"
        }
      ],
      "name": "burnFrom",
      "outputs": [],
      "stateMutability": "nonpayable",
      "type": "function"
    },
    {
      "inputs": [],
      "name": "decimals",
      "outputs": [
        {
          "internalType": "uint8",
          "name": "",
          "type": "uint8"
        }
      ],
      "stateMutability": "view",
      "type": "function"
    },
    {
      "inputs": [
        {
          "internalType": "address",
          "name": "spender",
          "type": "address"
        },
        {
          "internalType": "uint256",
          "name": "subtractedValue",
          "type": "uint256"
        }
      ],
      "name": "decreaseAllowance",
      "outputs": [
        {
          "internalType": "bool",
          "name": "",
          "type": "bool"
        }
      ],
      "stateMutability": "nonpayable",
      "type": "function"
    },
    {
      "inputs": [
        {
          "internalType": "address",
          "name": "spender",
          "type": "address"
        },
        {
          "internalType": "uint256",
          "name": "addedValue",
          "type": "uint256"
        }
      ],
      "name": "increaseAllowance",
      "outputs": [
        {
          "internalType": "bool",
          "name": "",
          "type": "bool"
        }
      ],
      "stateMutability": "nonpayable",
      "type": "function"
    },
    {
      "inputs": [],
      "name": "name",
      "outputs": [
        {
          "internalType": "string",
          "name": "",
          "type": "string"
        }
      ],
      "stateMutability": "view",
      "type": "function"
    },
    {
      "inputs": [
        {
          "internalType": "address",
          "name": "recipient",
          "type": "address"
        },
        {
          "internalType": "uint256",
          "name": "amount",
          "type": "uint256"
        }
      ],
      "name": "safeTransfer",
      "outputs": [],
      "stateMutability": "nonpayable",
      "type": "function"
    },
    {
      "inputs": [
        {
          "internalType": "address",
          "name": "recipient",
          "type": "address"
        },
        {
          "internalType": "uint256",
          "name": "amount",
          "type": "uint256"
        },
        {
          "internalType": "bytes",
          "name": "data",
          "type": "bytes"
        }
      ],
      "name": "safeTransfer",
      "outputs": [],
      "stateMutability": "nonpayable",
      "type": "function"
    },
    {
      "inputs": [
        {
          "internalType": "address",
          "name": "sender",
          "type": "address"
        },
        {
          "internalType": "address",
          "name": "recipient",
          "type": "address"
        },
        {
          "internalType": "uint256",
          "name": "amount",
          "type": "uint256"
        }
      ],
      "name": "safeTransferFrom",
      "outputs": [],
      "stateMutability": "nonpayable",
      "type": "function"
    },
    {
      "inputs": [
        {
          "internalType": "address",
          "name": "sender",
          "type": "address"
        },
        {
          "internalType": "address",
          "name": "recipient",
          "type": "address"
        },
        {
          "internalType": "uint256",
          "name": "amount",
          "type": "uint256"
        },
        {
          "internalType": "bytes",
          "name": "data",
          "type": "bytes"
        }
      ],
      "name": "safeTransferFrom",
      "outputs": [],
      "stateMutability": "nonpayable",
      "type": "function"
    },
    {
      "inputs": [
        {
          "internalType": "bytes4",
          "name": "interfaceId",
          "type": "bytes4"
        }
      ],
      "name": "supportsInterface",
      "outputs": [
        {
          "internalType": "bool",
          "name": "",
          "type": "bool"
        }
      ],
      "stateMutability": "view",
      "type": "function"
    },
    {
      "inputs": [],
      "name": "symbol",
      "outputs": [
        {
          "internalType": "string",
          "name": "",
          "type": "string"
        }
      ],
      "stateMutability": "view",
      "type": "function"
    },
    {
      "inputs": [],
      "name": "totalSupply",
      "outputs": [
        {
          "internalType": "uint256",
          "name": "",
          "type": "uint256"
        }
      ],
      "stateMutability": "view",
      "type": "function"
    },
    {
      "inputs": [
        {
          "internalType": "address",
          "name": "to",
          "type": "address"
        },
        {
          "internalType": "uint256",
          "name": "amount",
          "type": "uint256"
        }
      ],
      "name": "transfer",
      "outputs": [
        {
          "internalType": "bool",
          "name": "",
          "type": "bool"
        }
      ],
      "stateMutability": "nonpayable",
      "type": "function"
    },
    {
      "inputs": [
        {
          "internalType": "address",
          "name": "from",
          "type": "address"
        },
        {
          "internalType": "address",
          "name": "to",
          "type": "address"
        },
        {
          "internalType": "uint256",
          "name": "amount",
          "type": "uint256"
        }
      ],
      "name": "transferFrom",
      "outputs": [
        {
          "internalType": "bool",
          "name": "",
          "type": "bool"
        }
      ],
      "stateMutability": "nonpayable",
      "type": "function"
    }
  ],
  "bytecode": "0x60806040523480156200001157600080fd5b50604051620017bb380380620017bb8339810160408190526200003491620002bd565b83836003620000448382620003e0565b506004620000538282620003e0565b506200006a9150636578737160e01b9050620000ab565b6200007c6301ffc9a760e01b620000ab565b81156200008f576200008f818362000130565b620000a1634fc3585960e01b620000ab565b50505050620004d4565b6001600160e01b031980821690036200010b5760405162461bcd60e51b815260206004820152601c60248201527f4552433136353a20696e76616c696420696e746572666163652069640000000060448201526064015b60405180910390fd5b6001600160e01b0319166000908152600560205260409020805460ff19166001179055565b6001600160a01b038216620001885760405162461bcd60e51b815260206004820152601f60248201527f45524332303a206d696e7420746f20746865207a65726f206164647265737300604482015260640162000102565b80600260008282546200019c9190620004ac565b90915550506001600160a01b038216600081815260208181526040808320805486019055518481527fddf252ad1be2c89b69c2b068fc378daa952ba7f163c4a11628f55a4df523b3ef910160405180910390a35050565b505050565b634e487b7160e01b600052604160045260246000fd5b600082601f8301126200022057600080fd5b81516001600160401b03808211156200023d576200023d620001f8565b604051601f8301601f19908116603f01168101908282118183101715620002685762000268620001f8565b816040528381526020925086838588010111156200028557600080fd5b600091505b83821015620002a957858201830151818301840152908201906200028a565b600093810190920192909252949350505050565b60008060008060808587031215620002d457600080fd5b84516001600160401b0380821115620002ec57600080fd5b620002fa888389016200020e565b955060208701519150808211156200031157600080fd5b5062000320878288016200020e565b60408701516060880151919550935090506001600160a01b03811681146200034757600080fd5b939692955090935050565b600181811c908216806200036757607f821691505b6020821081036200038857634e487b7160e01b600052602260045260246000fd5b50919050565b601f821115620001f357600081815260208120601f850160051c81016020861015620003b75750805b601f850160051c820191505b81811015620003d857828155600101620003c3565b505050505050565b81516001600160401b03811115620003fc57620003fc620001f8565b62000414816200040d845462000352565b846200038e565b602080601f8311600181146200044c5760008415620004335750858301515b600019600386901b1c1916600185901b178555620003d8565b600085815260208120601f198616915b828110156200047d578886015182559484019460019091019084016200045c565b50858210156200049c5787850151600019600388901b60f8161c191681555b5050505050600190811b01905550565b80820180821115620004ce57634e487b7160e01b600052601160045260246000fd5b92915050565b6112d780620004e46000396000f3fe608060405234801561001057600080fd5b50600436106101775760003560e01c806370a08231116100d8578063a9059cbb1161008c578063dd62ed3e11610066578063dd62ed3e1461031f578063eb79554914610358578063ef1944351461036b57600080fd5b8063a9059cbb146102e6578063b88d4fde146102f9578063cae9ca511461030c57600080fd5b80639321478c116100bd5780639321478c146102a457806395d89b41146102cb578063a457c2d7146102d357600080fd5b806370a082311461026857806379cc67901461029157600080fd5b8063313ce5671161012f578063423f6cef11610114578063423f6cef1461022d57806342842e0e1461024257806342966c681461025557600080fd5b8063313ce5671461020b578063395093511461021a57600080fd5b8063095ea7b311610160578063095ea7b3146101d357806318160ddd146101e657806323b872dd146101f857600080fd5b806301ffc9a71461017c57806306fdde03146101be575b600080fd5b6101a961018a366004610f2f565b6001600160e01b03191660009081526005602052604090205460ff1690565b60405190151581526020015b60405180910390f35b6101c661038e565b6040516101b59190610f9c565b6101a96101e1366004610fcb565b610420565b6002545b6040519081526020016101b5565b6101a9610206366004610ff5565b61043a565b604051601281526020016101b5565b6101a9610228366004610fcb565b61045e565b61024061023b366004610fcb565b61049d565b005b610240610250366004610ff5565b6104bb565b610240610263366004611031565b6104db565b6101ea61027636600461104a565b6001600160a01b031660009081526020819052604090205490565b61024061029f366004610fcb565b6104e8565b6102b2636578737160e01b81565b6040516001600160e01b031990911681526020016101b5565b6101c661056e565b6101a96102e1366004610fcb565b61057d565b6101a96102f4366004610fcb565b61060f565b610240610307366004611108565b61061d565b6101a961031a366004611170565b6106a0565b6101ea61032d3660046111c7565b6001600160a01b03918216600090815260016020908152604080832093909416825291909152205490565b610240610366366004611170565b6106cb565b6101a9610379366004610f2f565b60056020526000908152604090205460ff1681565b60606003805461039d906111fa565b80601f01602080910402602001604051908101604052809291908181526020018280546103c9906111fa565b80156104165780601f106103eb57610100808354040283529160200191610416565b820191906000526020600020905b8154815290600101906020018083116103f957829003601f168201915b5050505050905090565b60003361042e818585610747565b60019150505b92915050565b60003361044885828561086b565b6104538585856108f7565b506001949350505050565b3360008181526001602090815260408083206001600160a01b038716845290915281205490919061042e9082908690610498908790611234565b610747565b6104b78282604051806020016040528060008152506106cb565b5050565b6104d68383836040518060200160405280600081525061061d565b505050565b6104e53382610a9b565b50565b60006104f4833361032d565b9050818110156105575760405162461bcd60e51b8152602060048201526024808201527f45524332303a206275726e20616d6f756e74206578636565647320616c6c6f77604482015263616e636560e01b60648201526084015b60405180910390fd5b6105648333848403610747565b6104d68383610a9b565b60606004805461039d906111fa565b3360008181526001602090815260408083206001600160a01b0387168452909152812054909190838110156106025760405162461bcd60e51b815260206004820152602560248201527f45524332303a2064656372656173656420616c6c6f77616e63652062656c6f77604482015264207a65726f60d81b606482015260840161054e565b6104538286868403610747565b60003361042e8185856108f7565b61062884848461043a565b5061063584848484610bcd565b61069a5760405162461bcd60e51b815260206004820152603060248201527f45524332303a207472616e7366657220746f206e6f6e2045524332305265636560448201526f34bb32b91034b6b83632b6b2b73a32b960811b606482015260840161054e565b50505050565b60006106ac8484610420565b6106b557600080fd5b6106c133858585610c7d565b5060019392505050565b6106d5838361060f565b506106e233848484610bcd565b6104d65760405162461bcd60e51b815260206004820152603060248201527f45524332303a207472616e7366657220746f206e6f6e2045524332305265636560448201526f34bb32b91034b6b83632b6b2b73a32b960811b606482015260840161054e565b6001600160a01b0383166107a95760405162461bcd60e51b8152602060048201526024808201527f45524332303a20617070726f76652066726f6d20746865207a65726f206164646044820152637265737360e01b606482015260840161054e565b6001600160a01b03821661080a5760405162461bcd60e51b815260206004820152602260248201527f45524332303a20617070726f766520746f20746865207a65726f206164647265604482015261737360f01b606482015260840161054e565b6001600160a01b0383811660008181526001602090815260408083209487168084529482529182902085905590518481527f8c5be1e5ebec7d5bd14f71427d1e84f3dd0314c0f7b2291e5b200ac8c7c3b925910160405180910390a3505050565b6001600160a01b03838116600090815260016020908152604080832093861683529290522054600019811461069a57818110156108ea5760405162461bcd60e51b815260206004820152601d60248201527f45524332303a20696e73756666696369656e7420616c6c6f77616e6365000000604482015260640161054e565b61069a8484848403610747565b6001600160a01b03831661095b5760405162461bcd60e51b815260206004820152602560248201527f45524332303a207472616e736665722066726f6d20746865207a65726f206164604482015264647265737360d81b606482015260840161054e565b6001600160a01b0382166109bd5760405162461bcd60e51b815260206004820152602360248201527f45524332303a207472616e7366657220746f20746865207a65726f206164647260448201526265737360e81b606482015260840161054e565b6001600160a01b03831660009081526020819052604090205481811015610a355760405162461bcd60e51b815260206004820152602660248201527f45524332303a207472616e7366657220616d6f756e7420657863656564732062604482015265616c616e636560d01b606482015260840161054e565b6001600160a01b03848116600081815260208181526040808320878703905593871680835291849020805487019055925185815290927fddf252ad1be2c89b69c2b068fc378daa952ba7f163c4a11628f55a4df523b3ef910160405180910390a361069a565b6001600160a01b038216610afb5760405162461bcd60e51b815260206004820152602160248201527f45524332303a206275726e2066726f6d20746865207a65726f206164647265736044820152607360f81b606482015260840161054e565b6001600160a01b03821660009081526020819052604090205481811015610b6f5760405162461bcd60e51b815260206004820152602260248201527f45524332303a206275726e20616d6f756e7420657863656564732062616c616e604482015261636560f01b606482015260840161054e565b6001600160a01b0383166000818152602081815260408083208686039055600280548790039055518581529192917fddf252ad1be2c89b69c2b068fc378daa952ba7f163c4a11628f55a4df523b3ef910160405180910390a3505050565b60006001600160a01b0384163b610be657506001610c75565b604051634fc3585960e01b81526000906001600160a01b03861690634fc3585990610c1b9033908a9089908990600401611255565b6020604051808303816000875af1158015610c3a573d6000803e3d6000fd5b505050506040513d601f19601f82011682018060405250810190610c5e9190611291565b6001600160e01b031916634fc3585960e01b149150505b949350505050565b632139e50b60e11b610c8f8482610e3a565b610d015760405162461bcd60e51b815260206004820152603160248201527f617070726f7665416e6443616c6c3a207370656e64657220646f65736e27742060448201527f737570706f7274206f6e417070726f7665000000000000000000000000000000606482015260840161054e565b600080856001600160a01b03168388888888604051602401610d269493929190611255565b60408051601f198184030181529181526020820180516001600160e01b03166001600160e01b0319909416939093179092529051610d6491906112ae565b6000604051808303816000865af19150503d8060008114610da1576040519150601f19603f3d011682016040523d82523d6000602084013e610da6565b606091505b5091509150818190610dcb5760405162461bcd60e51b815260040161054e9190610f9c565b506020810151915081610e315760405162461bcd60e51b815260206004820152602860248201527f617070726f7665416e6443616c6c3a206661696c656420746f2063616c6c206f6044820152676e417070726f766560c01b606482015260840161054e565b50505050505050565b6000610e4583610e5d565b8015610e565750610e568383610e90565b9392505050565b6000610e70826301ffc9a760e01b610e90565b80156104345750610e89826001600160e01b0319610e90565b1592915050565b604080516001600160e01b03198316602480830191909152825180830390910181526044909101909152602080820180516001600160e01b03166301ffc9a760e01b178152825160009392849283928392918391908a617530fa92503d91506000519050828015610f02575060208210155b8015610f0e5750600081115b979650505050505050565b6001600160e01b0319811681146104e557600080fd5b600060208284031215610f4157600080fd5b8135610e5681610f19565b60005b83811015610f67578181015183820152602001610f4f565b50506000910152565b60008151808452610f88816020860160208601610f4c565b601f01601f19169290920160200192915050565b602081526000610e566020830184610f70565b80356001600160a01b0381168114610fc657600080fd5b919050565b60008060408385031215610fde57600080fd5b610fe783610faf565b946020939093013593505050565b60008060006060848603121561100a57600080fd5b61101384610faf565b925061102160208501610faf565b9150604084013590509250925092565b60006020828403121561104357600080fd5b5035919050565b60006020828403121561105c57600080fd5b610e5682610faf565b634e487b7160e01b600052604160045260246000fd5b600082601f83011261108c57600080fd5b813567ffffffffffffffff808211156110a7576110a7611065565b604051601f8301601f19908116603f011681019082821181831017156110cf576110cf611065565b816040528381528660208588010111156110e857600080fd5b836020870160208301376000602085830101528094505050505092915050565b6000806000806080858703121561111e57600080fd5b61112785610faf565b935061113560208601610faf565b925060408501359150606085013567ffffffffffffffff81111561115857600080fd5b6111648782880161107b565b91505092959194509250565b60008060006060848603121561118557600080fd5b61118e84610faf565b925060208401359150604084013567ffffffffffffffff8111156111b157600080fd5b6111bd8682870161107b565b9150509250925092565b600080604083850312156111da57600080fd5b6111e383610faf565b91506111f160208401610faf565b90509250929050565b600181811c9082168061120e57607f821691505b60208210810361122e57634e487b7160e01b600052602260045260246000fd5b50919050565b8082018082111561043457634e487b7160e01b600052601160045260246000fd5b60006001600160a01b038087168352808616602084015250836040830152608060608301526112876080830184610f70565b9695505050505050565b6000602082840312156112a357600080fd5b8151610e5681610f19565b600082516112c0818460208701610f4c565b919091019291505056fea164736f6c6343000812000a",
  "linkReferences": {},
  "deployedLinkReferences": {}
}