{
  "_format": "hh-sol-artifact-1",
  "contractName": "UniversalStosStorage",
  "sourceName": "contracts/stos/UniversalStosStorage.sol",
  "abi": [
    {
      "inputs": [
        {
          "internalType": "uint256",
          "name": "",
          "type": "uint256"
        }
      ],
      "name": "chainIds",
      "outputs": [
        {
          "internalType": "uint256",
          "name": "",
          "type": "uint256"
        }
      ],
      "stateMutability": "view",
      "type": "function"
    },
    {
      "inputs": [],
      "name": "curChainId",
      "outputs": [
        {
          "internalType": "uint256",
          "name": "",
          "type": "uint256"
        }
      ],
      "stateMutability": "view",
      "type": "function"
    },
    {
      "inputs": [
        {
          "internalType": "uint256",
          "name": "",
          "type": "uint256"
        }
      ],
      "name": "layerInfos",
      "outputs": [
        {
          "internalType": "address",
          "name": "messanger",
          "type": "address"
        },
        {
          "internalType": "string",
          "name": "name",
          "type": "string"
        }
      ],
      "stateMutability": "view",
      "type": "function"
    },
    {
      "inputs": [
        {
          "internalType": "uint256",
          "name": "",
          "type": "uint256"
        },
        {
          "internalType": "address",
          "name": "",
          "type": "address"
        }
      ],
      "name": "userSyncBlockNumber",
      "outputs": [
        {
          "internalType": "uint256",
          "name": "",
          "type": "uint256"
        }
      ],
      "stateMutability": "view",
      "type": "function"
    }
  ],
  "bytecode": "0x608060405234801561001057600080fd5b50610297806100206000396000f3fe608060405234801561001057600080fd5b506004361061004c5760003560e01c806321d9309014610051578063863b9e5214610077578063873e312914610080578063d7b40d81146100ab575b600080fd5b61006461005f36600461019c565b6100cc565b6040519081526020015b60405180910390f35b61006460005481565b61006461008e3660046101b5565b600360209081526000928352604080842090915290825290205481565b6100be6100b936600461019c565b6100ed565b60405161006e9291906101f1565b600181815481106100dc57600080fd5b600091825260209091200154905081565b600260205260009081526040902080546001820180546001600160a01b03909216929161011990610250565b80601f016020809104026020016040519081016040528092919081815260200182805461014590610250565b80156101925780601f1061016757610100808354040283529160200191610192565b820191906000526020600020905b81548152906001019060200180831161017557829003601f168201915b5050505050905082565b6000602082840312156101ae57600080fd5b5035919050565b600080604083850312156101c857600080fd5b8235915060208301356001600160a01b03811681146101e657600080fd5b809150509250929050565b6001600160a01b038316815260006020604081840152835180604085015260005b8181101561022e57858101830151858201606001528201610212565b506000606082860101526060601f19601f830116850101925050509392505050565b600181811c9082168061026457607f821691505b60208210810361028457634e487b7160e01b600052602260045260246000fd5b5091905056fea164736f6c6343000812000a",
  "linkReferences": {},
  "deployedLinkReferences": {}
}