{
  "_format": "hh-sol-artifact-1",
  "contractName": "L2ProjectManagerProxy",
  "sourceName": "contracts/L2/L2ProjectManagerProxy.sol",
  "abi": [
    {
      "anonymous": false,
      "inputs": [
        {
          "indexed": true,
          "internalType": "bytes32",
          "name": "role",
          "type": "bytes32"
        },
        {
          "indexed": true,
          "internalType": "bytes32",
          "name": "previousAdminRole",
          "type": "bytes32"
        },
        {
          "indexed": true,
          "internalType": "bytes32",
          "name": "newAdminRole",
          "type": "bytes32"
        }
      ],
      "name": "RoleAdminChanged",
      "type": "event"
    },
    {
      "anonymous": false,
      "inputs": [
        {
          "indexed": true,
          "internalType": "bytes32",
          "name": "role",
          "type": "bytes32"
        },
        {
          "indexed": true,
          "internalType": "address",
          "name": "account",
          "type": "address"
        },
        {
          "indexed": true,
          "internalType": "address",
          "name": "sender",
          "type": "address"
        }
      ],
      "name": "RoleGranted",
      "type": "event"
    },
    {
      "anonymous": false,
      "inputs": [
        {
          "indexed": true,
          "internalType": "bytes32",
          "name": "role",
          "type": "bytes32"
        },
        {
          "indexed": true,
          "internalType": "address",
          "name": "account",
          "type": "address"
        },
        {
          "indexed": true,
          "internalType": "address",
          "name": "sender",
          "type": "address"
        }
      ],
      "name": "RoleRevoked",
      "type": "event"
    },
    {
      "anonymous": false,
      "inputs": [
        {
          "indexed": true,
          "internalType": "address",
          "name": "impl",
          "type": "address"
        },
        {
          "indexed": false,
          "internalType": "bool",
          "name": "alive",
          "type": "bool"
        }
      ],
      "name": "SetAliveImplementation",
      "type": "event"
    },
    {
      "anonymous": false,
      "inputs": [
        {
          "indexed": true,
          "internalType": "bytes4",
          "name": "selector",
          "type": "bytes4"
        },
        {
          "indexed": true,
          "internalType": "address",
          "name": "impl",
          "type": "address"
        }
      ],
      "name": "SetSelectorImplementation",
      "type": "event"
    },
    {
      "anonymous": false,
      "inputs": [
        {
          "indexed": true,
          "internalType": "address",
          "name": "implementation",
          "type": "address"
        }
      ],
      "name": "Upgraded",
      "type": "event"
    },
    {
      "stateMutability": "payable",
      "type": "fallback"
    },
    {
      "inputs": [],
      "name": "ADMIN_ROLE",
      "outputs": [
        {
          "internalType": "bytes32",
          "name": "",
          "type": "bytes32"
        }
      ],
      "stateMutability": "view",
      "type": "function"
    },
    {
      "inputs": [],
      "name": "DEFAULT_ADMIN_ROLE",
      "outputs": [
        {
          "internalType": "bytes32",
          "name": "",
          "type": "bytes32"
        }
      ],
      "stateMutability": "view",
      "type": "function"
    },
    {
      "inputs": [],
      "name": "POLICY_ROLE",
      "outputs": [
        {
          "internalType": "bytes32",
          "name": "",
          "type": "bytes32"
        }
      ],
      "stateMutability": "view",
      "type": "function"
    },
    {
      "inputs": [
        {
          "internalType": "address",
          "name": "account",
          "type": "address"
        }
      ],
      "name": "addAdmin",
      "outputs": [],
      "stateMutability": "nonpayable",
      "type": "function"
    },
    {
      "inputs": [
        {
          "internalType": "address",
          "name": "",
          "type": "address"
        }
      ],
      "name": "aliveImplementation",
      "outputs": [
        {
          "internalType": "bool",
          "name": "",
          "type": "bool"
        }
      ],
      "stateMutability": "view",
      "type": "function"
    },
    {
      "inputs": [],
      "name": "daoVault",
      "outputs": [
        {
          "internalType": "address",
          "name": "",
          "type": "address"
        }
      ],
      "stateMutability": "view",
      "type": "function"
    },
    {
      "inputs": [
        {
          "internalType": "bytes32",
          "name": "role",
          "type": "bytes32"
        }
      ],
      "name": "getRoleAdmin",
      "outputs": [
        {
          "internalType": "bytes32",
          "name": "",
          "type": "bytes32"
        }
      ],
      "stateMutability": "view",
      "type": "function"
    },
    {
      "inputs": [
        {
          "internalType": "bytes4",
          "name": "_selector",
          "type": "bytes4"
        }
      ],
      "name": "getSelectorImplementation2",
      "outputs": [
        {
          "internalType": "address",
          "name": "impl",
          "type": "address"
        }
      ],
      "stateMutability": "view",
      "type": "function"
    },
    {
      "inputs": [
        {
          "internalType": "bytes32",
          "name": "role",
          "type": "bytes32"
        },
        {
          "internalType": "address",
          "name": "account",
          "type": "address"
        }
      ],
      "name": "grantRole",
      "outputs": [],
      "stateMutability": "nonpayable",
      "type": "function"
    },
    {
      "inputs": [
        {
          "internalType": "bytes32",
          "name": "role",
          "type": "bytes32"
        },
        {
          "internalType": "address",
          "name": "account",
          "type": "address"
        }
      ],
      "name": "hasRole",
      "outputs": [
        {
          "internalType": "bool",
          "name": "",
          "type": "bool"
        }
      ],
      "stateMutability": "view",
      "type": "function"
    },
    {
      "inputs": [],
      "name": "implementation",
      "outputs": [
        {
          "internalType": "address",
          "name": "",
          "type": "address"
        }
      ],
      "stateMutability": "view",
      "type": "function"
    },
    {
      "inputs": [
        {
          "internalType": "uint256",
          "name": "_index",
          "type": "uint256"
        }
      ],
      "name": "implementation2",
      "outputs": [
        {
          "internalType": "address",
          "name": "",
          "type": "address"
        }
      ],
      "stateMutability": "view",
      "type": "function"
    },
    {
      "inputs": [],
      "name": "initialLiquidityVault",
      "outputs": [
        {
          "internalType": "address",
          "name": "",
          "type": "address"
        }
      ],
      "stateMutability": "view",
      "type": "function"
    },
    {
      "inputs": [
        {
          "internalType": "address",
          "name": "account",
          "type": "address"
        }
      ],
      "name": "isAdmin",
      "outputs": [
        {
          "internalType": "bool",
          "name": "",
          "type": "bool"
        }
      ],
      "stateMutability": "view",
      "type": "function"
    },
    {
      "inputs": [],
      "name": "l1ProjectManager",
      "outputs": [
        {
          "internalType": "address",
          "name": "",
          "type": "address"
        }
      ],
      "stateMutability": "view",
      "type": "function"
    },
    {
      "inputs": [],
      "name": "l2CrossDomainMessenger",
      "outputs": [
        {
          "internalType": "address",
          "name": "",
          "type": "address"
        }
      ],
      "stateMutability": "view",
      "type": "function"
    },
    {
      "inputs": [],
      "name": "l2TokenFactory",
      "outputs": [
        {
          "internalType": "address",
          "name": "",
          "type": "address"
        }
      ],
      "stateMutability": "view",
      "type": "function"
    },
    {
      "inputs": [],
      "name": "liquidityRewardVault",
      "outputs": [
        {
          "internalType": "address",
          "name": "",
          "type": "address"
        }
      ],
      "stateMutability": "view",
      "type": "function"
    },
    {
      "inputs": [],
      "name": "marketingVault",
      "outputs": [
        {
          "internalType": "address",
          "name": "",
          "type": "address"
        }
      ],
      "stateMutability": "view",
      "type": "function"
    },
    {
      "inputs": [],
      "name": "pauseProxy",
      "outputs": [
        {
          "internalType": "bool",
          "name": "",
          "type": "bool"
        }
      ],
      "stateMutability": "view",
      "type": "function"
    },
    {
      "inputs": [
        {
          "internalType": "address",
          "name": "",
          "type": "address"
        }
      ],
      "name": "projects",
      "outputs": [
        {
          "internalType": "uint256",
          "name": "projectId",
          "type": "uint256"
        },
        {
          "internalType": "address",
          "name": "projectOwner",
          "type": "address"
        },
        {
          "internalType": "address",
          "name": "l1Token",
          "type": "address"
        },
        {
          "internalType": "address",
          "name": "l2Token",
          "type": "address"
        },
        {
          "internalType": "string",
          "name": "projectName",
          "type": "string"
        }
      ],
      "stateMutability": "view",
      "type": "function"
    },
    {
      "inputs": [
        {
          "internalType": "uint256",
          "name": "",
          "type": "uint256"
        }
      ],
      "name": "proxyImplementation",
      "outputs": [
        {
          "internalType": "address",
          "name": "",
          "type": "address"
        }
      ],
      "stateMutability": "view",
      "type": "function"
    },
    {
      "inputs": [],
      "name": "publicSaleVault",
      "outputs": [
        {
          "internalType": "address",
          "name": "",
          "type": "address"
        }
      ],
      "stateMutability": "view",
      "type": "function"
    },
    {
      "inputs": [
        {
          "internalType": "address",
          "name": "account",
          "type": "address"
        }
      ],
      "name": "removeAdmin",
      "outputs": [],
      "stateMutability": "nonpayable",
      "type": "function"
    },
    {
      "inputs": [
        {
          "internalType": "bytes32",
          "name": "role",
          "type": "bytes32"
        },
        {
          "internalType": "address",
          "name": "account",
          "type": "address"
        }
      ],
      "name": "renounceRole",
      "outputs": [],
      "stateMutability": "nonpayable",
      "type": "function"
    },
    {
      "inputs": [
        {
          "internalType": "bytes32",
          "name": "role",
          "type": "bytes32"
        },
        {
          "internalType": "address",
          "name": "account",
          "type": "address"
        }
      ],
      "name": "revokeRole",
      "outputs": [],
      "stateMutability": "nonpayable",
      "type": "function"
    },
    {
      "inputs": [
        {
          "internalType": "bytes4",
          "name": "",
          "type": "bytes4"
        }
      ],
      "name": "selectorImplementation",
      "outputs": [
        {
          "internalType": "address",
          "name": "",
          "type": "address"
        }
      ],
      "stateMutability": "view",
      "type": "function"
    },
    {
      "inputs": [
        {
          "internalType": "address",
          "name": "newImplementation",
          "type": "address"
        },
        {
          "internalType": "bool",
          "name": "_alive",
          "type": "bool"
        }
      ],
      "name": "setAliveImplementation2",
      "outputs": [],
      "stateMutability": "nonpayable",
      "type": "function"
    },
    {
      "inputs": [
        {
          "internalType": "address",
          "name": "newImplementation",
          "type": "address"
        },
        {
          "internalType": "uint256",
          "name": "_index",
          "type": "uint256"
        },
        {
          "internalType": "bool",
          "name": "_alive",
          "type": "bool"
        }
      ],
      "name": "setImplementation2",
      "outputs": [],
      "stateMutability": "nonpayable",
      "type": "function"
    },
    {
      "inputs": [
        {
          "internalType": "bool",
          "name": "_pause",
          "type": "bool"
        }
      ],
      "name": "setProxyPause",
      "outputs": [],
      "stateMutability": "nonpayable",
      "type": "function"
    },
    {
      "inputs": [
        {
          "internalType": "bytes4[]",
          "name": "_selectors",
          "type": "bytes4[]"
        },
        {
          "internalType": "address",
          "name": "_imp",
          "type": "address"
        }
      ],
      "name": "setSelectorImplementations2",
      "outputs": [],
      "stateMutability": "nonpayable",
      "type": "function"
    },
    {
      "inputs": [
        {
          "internalType": "bytes4",
          "name": "interfaceId",
          "type": "bytes4"
        }
      ],
      "name": "supportsInterface",
      "outputs": [
        {
          "internalType": "bool",
          "name": "",
          "type": "bool"
        }
      ],
      "stateMutability": "view",
      "type": "function"
    },
    {
      "inputs": [],
      "name": "teamVault",
      "outputs": [
        {
          "internalType": "address",
          "name": "",
          "type": "address"
        }
      ],
      "stateMutability": "view",
      "type": "function"
    },
    {
      "inputs": [
        {
          "internalType": "address",
          "name": "",
          "type": "address"
        }
      ],
      "name": "tokenMaps",
      "outputs": [
        {
          "internalType": "address",
          "name": "",
          "type": "address"
        }
      ],
      "stateMutability": "view",
      "type": "function"
    },
    {
      "inputs": [],
      "name": "tonAirdropVault",
      "outputs": [
        {
          "internalType": "address",
          "name": "",
          "type": "address"
        }
      ],
      "stateMutability": "view",
      "type": "function"
    },
    {
      "inputs": [],
      "name": "tosAirdropVault",
      "outputs": [
        {
          "internalType": "address",
          "name": "",
          "type": "address"
        }
      ],
      "stateMutability": "view",
      "type": "function"
    },
    {
      "inputs": [
        {
          "internalType": "address",
          "name": "newAdmin",
          "type": "address"
        }
      ],
      "name": "transferAdmin",
      "outputs": [],
      "stateMutability": "nonpayable",
      "type": "function"
    },
    {
      "inputs": [
        {
          "internalType": "address",
          "name": "impl",
          "type": "address"
        }
      ],
      "name": "upgradeTo",
      "outputs": [],
      "stateMutability": "nonpayable",
      "type": "function"
    },
    {
      "stateMutability": "payable",
      "type": "receive"
    }
  ],
  "bytecode": "0x60806040526005805460ff191660011790553480156200001e57600080fd5b506200003a60008051602062001d8c833981519152806200005b565b6200005560008051602062001d8c83398151915233620000a6565b6200015a565b600082815260046020526040808220600101805490849055905190918391839186917fbd79b86ffe0ab8e8776151514217cd7cacd52c909f66475c3af44e129f0b00ff9190a4505050565b620000b28282620000b6565b5050565b60008281526004602090815260408083206001600160a01b038516845290915290205460ff16620000b25760008281526004602090815260408083206001600160a01b03851684529091529020805460ff19166001179055620001163390565b6001600160a01b0316816001600160a01b0316837f2f8788117e7eff1d82e926ec794901d17c78024a50270940304540a733656f0d60405160405180910390a45050565b611c22806200016a6000396000f3fe6080604052600436106102895760003560e01c806370480275116101535780638d4fdb40116100cb578063c5b53e681161007f578063eca7b83611610064578063eca7b8361461085b578063eddd5e821461087b578063fbef005a1461089b576102db565b8063c5b53e6814610805578063d547741f1461083b576102db565b8063a217fddf116100b0578063a217fddf1461079a578063b911135f146107af578063c51c773a146107e5576102db565b80638d4fdb401461073457806391d1485414610754576102db565b80637cb00d2511610122578063840e78fd11610107578063840e78fd146106c35780638ab5212b146106f45780638b8f4a6514610714576102db565b80637cb00d25146106835780637cd5f663146106a3576102db565b806370480275146105ea57806374a9f5c11461060a57806375829def1461062f57806375b238fc1461064f576102db565b80633659cfe6116102015780635903bd6c116101b55780635cc797d81161019a5780635cc797d81461059057806363a8fd89146105b05780636e53f427146105ca576102db565b80635903bd6c1461052a5780635c60da1b1461054a576102db565b80634c265a13116101e65780634c265a13146104a457806350d2a276146104c4578063550d01a3146104fa576102db565b80633659cfe6146104645780634a5df50f14610484576102db565b806324d7806c116102585780632c8917c81161023d5780632c8917c8146104045780632f2ff15d1461042457806336568abe14610444576102db565b806324d7806c146103ac5780632966c4dd146103cc576102db565b806301ffc9a7146102e55780631785f53c1461031a578063229852461461033a578063248a9ca31461037c576102db565b366102db5760405162461bcd60e51b815260206004820152601460248201527f63616e6e6f74207265636569766520457468657200000000000000000000000060448201526064015b60405180910390fd5b6102e36108bb565b005b3480156102f157600080fd5b50610305610300366004611849565b610964565b60405190151581526020015b60405180910390f35b34801561032657600080fd5b506102e361033536600461188a565b61099b565b34801561034657600080fd5b5061036e7ffb5864e8ff833c3cb2d2d08505e82ff02a43554c74a35d4f5a64e8526127831181565b604051908152602001610311565b34801561038857600080fd5b5061036e6103973660046118a5565b60009081526004602052604090206001015490565b3480156103b857600080fd5b506103056103c736600461188a565b610a16565b3480156103d857600080fd5b50600a546103ec906001600160a01b031681565b6040516001600160a01b039091168152602001610311565b34801561041057600080fd5b506008546103ec906001600160a01b031681565b34801561043057600080fd5b506102e361043f3660046118be565b610a56565b34801561045057600080fd5b506102e361045f3660046118be565b610a7b565b34801561047057600080fd5b506102e361047f36600461188a565b610b07565b34801561049057600080fd5b506102e361049f3660046118ea565b610c60565b3480156104b057600080fd5b50600d546103ec906001600160a01b031681565b3480156104d057600080fd5b506103ec6104df366004611849565b6003602052600090815260409020546001600160a01b031681565b34801561050657600080fd5b5061030561051536600461188a565b60026020526000908152604090205460ff1681565b34801561053657600080fd5b50600f546103ec906001600160a01b031681565b34801561055657600080fd5b506000805260016020527fa6eef7e35abe7026729641147f7915573c7e97b47efa546f5f6e3230263bcb49546001600160a01b03166103ec565b34801561059c57600080fd5b506102e36105ab36600461197e565b610f0d565b3480156105bc57600080fd5b506000546103059060ff1681565b3480156105d657600080fd5b50600b546103ec906001600160a01b031681565b3480156105f657600080fd5b506102e361060536600461188a565b610f65565b34801561061657600080fd5b506005546103ec9061010090046001600160a01b031681565b34801561063b57600080fd5b506102e361064a36600461188a565b610fdd565b34801561065b57600080fd5b5061036e7fdf8b4c520ffe197c5343c6f5aec59570151ef9a492f2c624fd45ddde6135ec4281565b34801561068f57600080fd5b506102e361069e3660046119a8565b61112d565b3480156106af57600080fd5b506102e36106be3660046119c3565b61118e565b3480156106cf57600080fd5b506106e36106de36600461188a565b6111e7565b604051610311959493929190611a46565b34801561070057600080fd5b50600e546103ec906001600160a01b031681565b34801561072057600080fd5b506103ec61072f3660046118a5565b6112ae565b34801561074057600080fd5b506103ec61074f366004611849565b6112cb565b34801561076057600080fd5b5061030561076f3660046118be565b60009182526004602090815260408084206001600160a01b0393909316845291905290205460ff1690565b3480156107a657600080fd5b5061036e600081565b3480156107bb57600080fd5b506103ec6107ca3660046118a5565b6001602052600090815260409020546001600160a01b031681565b3480156107f157600080fd5b506009546103ec906001600160a01b031681565b34801561081157600080fd5b506103ec61082036600461188a565b6011602052600090815260409020546001600160a01b031681565b34801561084757600080fd5b506102e36108563660046118be565b6113c7565b34801561086757600080fd5b50600c546103ec906001600160a01b031681565b34801561088757600080fd5b506006546103ec906001600160a01b031681565b3480156108a757600080fd5b506007546103ec906001600160a01b031681565b60006108d26000356001600160e01b0319166112cb565b90506001600160a01b038116158015906108ef575060005460ff16155b61093b5760405162461bcd60e51b815260206004820152601d60248201527f50726f78793a20696d706c204f522070726f78792069732066616c736500000060448201526064016102d2565b3660008037600080366000845af43d6000803e80801561095a573d6000f35b3d6000fd5b505050565b60006001600160e01b03198216637965db0b60e01b148061099557506301ffc9a760e01b6001600160e01b03198316145b92915050565b6109a433610a16565b6109e95760405162461bcd60e51b81526020600482015260226024820152600080516020611bf683398151915260448201526134b760f11b60648201526084016102d2565b610a137fdf8b4c520ffe197c5343c6f5aec59570151ef9a492f2c624fd45ddde6135ec4282610a7b565b50565b6001600160a01b03811660009081527f2fb794d17134dfdec181ddbac1babb5ab1eb140204ef4d982f294e7fc8b69022602052604081205460ff16610995565b600082815260046020526040902060010154610a71816113ec565b61095f83836113f6565b6001600160a01b0381163314610af95760405162461bcd60e51b815260206004820152602f60248201527f416363657373436f6e74726f6c3a2063616e206f6e6c792072656e6f756e636560448201527f20726f6c657320666f722073656c66000000000000000000000000000000000060648201526084016102d2565b610b038282611498565b5050565b610b1033610a16565b610b555760405162461bcd60e51b81526020600482015260226024820152600080516020611bf683398151915260448201526134b760f11b60648201526084016102d2565b6001600160a01b038116610bab5760405162461bcd60e51b815260206004820152600d60248201527f696e707574206973207a65726f0000000000000000000000000000000000000060448201526064016102d2565b6000805260016020527fa6eef7e35abe7026729641147f7915573c7e97b47efa546f5f6e3230263bcb49546001600160a01b03828116911603610c1c5760405162461bcd60e51b815260206004820152600960248201526839b0b6b29030b2323960b91b60448201526064016102d2565b610c29816000600161151b565b6040516001600160a01b038216907fbc7cd75a20ee27fd9adebab32041f755214dbc6bffa90cc0225b39da2e5c2d3b90600090a250565b610c6933610a16565b610cae5760405162461bcd60e51b81526020600482015260226024820152600080516020611bf683398151915260448201526134b760f11b60648201526084016102d2565b81610cfb5760405162461bcd60e51b815260206004820181905260248201527f50726f78793a205f73656c6563746f727327732073697a65206973207a65726f60448201526064016102d2565b6001600160a01b03811660009081526002602052604090205460ff16610d635760405162461bcd60e51b815260206004820152601860248201527f50726f78793a205f696d70206973206e6f7420616c697665000000000000000060448201526064016102d2565b60005b82811015610f0757816001600160a01b031660036000868685818110610d8e57610d8e611a8b565b9050602002016020810190610da39190611849565b6001600160e01b03191681526020810191909152604001600020546001600160a01b031603610e145760405162461bcd60e51b815260206004820152601d60248201527f4c69717569646974795661756c7450726f78793a2073616d6520696d7000000060448201526064016102d2565b8160036000868685818110610e2b57610e2b611a8b565b9050602002016020810190610e409190611849565b6001600160e01b03191681526020810191909152604001600020805473ffffffffffffffffffffffffffffffffffffffff19166001600160a01b039283161790558216848483818110610e9557610e95611a8b565b9050602002016020810190610eaa9190611849565b7bffffffffffffffffffffffffffffffffffffffffffffffffffffffff19167f14ebc1c32aa68f4d766e89f3e546cee249f7df25183fc10ab1568d91c2ce9b7b60405160405180910390a380610eff81611ab7565b915050610d66565b50505050565b610f1633610a16565b610f5b5760405162461bcd60e51b81526020600482015260226024820152600080516020611bf683398151915260448201526134b760f11b60648201526084016102d2565b610b0382826115b3565b610f6e33610a16565b610fb35760405162461bcd60e51b81526020600482015260226024820152600080516020611bf683398151915260448201526134b760f11b60648201526084016102d2565b610a137fdf8b4c520ffe197c5343c6f5aec59570151ef9a492f2c624fd45ddde6135ec4282610a56565b610fe633610a16565b61102b5760405162461bcd60e51b81526020600482015260226024820152600080516020611bf683398151915260448201526134b760f11b60648201526084016102d2565b6001600160a01b0381166110815760405162461bcd60e51b815260206004820152601860248201527f41636365737369626c653a207a65726f2061646472657373000000000000000060448201526064016102d2565b6001600160a01b03811633036110d95760405162461bcd60e51b815260206004820152601660248201527f41636365737369626c653a2073616d652061646d696e0000000000000000000060448201526064016102d2565b6111037fdf8b4c520ffe197c5343c6f5aec59570151ef9a492f2c624fd45ddde6135ec4282610a56565b610a137fdf8b4c520ffe197c5343c6f5aec59570151ef9a492f2c624fd45ddde6135ec4233610a7b565b61113633610a16565b61117b5760405162461bcd60e51b81526020600482015260226024820152600080516020611bf683398151915260448201526134b760f11b60648201526084016102d2565b6000805460ff1916911515919091179055565b61119733610a16565b6111dc5760405162461bcd60e51b81526020600482015260226024820152600080516020611bf683398151915260448201526134b760f11b60648201526084016102d2565b61095f83838361151b565b6010602052600090815260409020805460018201546002830154600384015460048501805494956001600160a01b0394851695938516949092169261122b90611ad0565b80601f016020809104026020016040519081016040528092919081815260200182805461125790611ad0565b80156112a45780601f10611279576101008083540402835291602001916112a4565b820191906000526020600020905b81548152906001019060200180831161128757829003601f168201915b5050505050905085565b6000818152600160205260408120546001600160a01b0316610995565b6001600160e01b031981166000908152600360205260408120546001600160a01b031661132b5750506000805260016020527fa6eef7e35abe7026729641147f7915573c7e97b47efa546f5f6e3230263bcb49546001600160a01b031690565b6001600160e01b031982166000908152600360209081526040808320546001600160a01b03168352600290915290205460ff161561138957506001600160e01b0319166000908152600360205260409020546001600160a01b031690565b50506000805260016020527fa6eef7e35abe7026729641147f7915573c7e97b47efa546f5f6e3230263bcb49546001600160a01b031690565b919050565b6000828152600460205260409020600101546113e2816113ec565b61095f8383611498565b610a138133611612565b60008281526004602090815260408083206001600160a01b038516845290915290205460ff16610b035760008281526004602090815260408083206001600160a01b03851684529091529020805460ff191660011790556114543390565b6001600160a01b0316816001600160a01b0316837f2f8788117e7eff1d82e926ec794901d17c78024a50270940304540a733656f0d60405160405180910390a45050565b60008281526004602090815260408083206001600160a01b038516845290915290205460ff1615610b035760008281526004602090815260408083206001600160a01b0385168085529252808320805460ff1916905551339285917ff6391f5c32d9c69d2a47ea670b442974b53935d1edc7fd64eb21e047a839171b9190a45050565b6001600160a01b0383163b6115725760405162461bcd60e51b815260206004820152601b60248201527f50726f78793a206e6f7420636f6e74726163742061646472657373000000000060448201526064016102d2565b80156115ad576000828152600160205260409020805473ffffffffffffffffffffffffffffffffffffffff19166001600160a01b0385161790555b61095f83825b6001600160a01b038216600081815260026020908152604091829020805460ff191685151590811790915591519182527f72558d9bfba4210f9ef095c782589484151f6d90f7a81bb3cb9b33efc695d324910160405180910390a25050565b60008281526004602090815260408083206001600160a01b038516845290915290205460ff16610b035761164581611687565b611650836020611699565b604051602001611661929190611b0a565b60408051601f198184030181529082905262461bcd60e51b82526102d291600401611b8b565b60606109956001600160a01b03831660145b606060006116a8836002611b9e565b6116b3906002611bb5565b67ffffffffffffffff8111156116cb576116cb611bc8565b6040519080825280601f01601f1916602001820160405280156116f5576020820181803683370190505b509050600360fc1b8160008151811061171057611710611a8b565b60200101906001600160f81b031916908160001a905350600f60fb1b8160018151811061173f5761173f611a8b565b60200101906001600160f81b031916908160001a9053506000611763846002611b9e565b61176e906001611bb5565b90505b60018111156117f3577f303132333435363738396162636465660000000000000000000000000000000085600f16601081106117af576117af611a8b565b1a60f81b8282815181106117c5576117c5611a8b565b60200101906001600160f81b031916908160001a90535060049490941c936117ec81611bde565b9050611771565b5083156118425760405162461bcd60e51b815260206004820181905260248201527f537472696e67733a20686578206c656e67746820696e73756666696369656e7460448201526064016102d2565b9392505050565b60006020828403121561185b57600080fd5b81356001600160e01b03198116811461184257600080fd5b80356001600160a01b03811681146113c257600080fd5b60006020828403121561189c57600080fd5b61184282611873565b6000602082840312156118b757600080fd5b5035919050565b600080604083850312156118d157600080fd5b823591506118e160208401611873565b90509250929050565b6000806000604084860312156118ff57600080fd5b833567ffffffffffffffff8082111561191757600080fd5b818601915086601f83011261192b57600080fd5b81358181111561193a57600080fd5b8760208260051b850101111561194f57600080fd5b6020928301955093506119659186019050611873565b90509250925092565b803580151581146113c257600080fd5b6000806040838503121561199157600080fd5b61199a83611873565b91506118e16020840161196e565b6000602082840312156119ba57600080fd5b6118428261196e565b6000806000606084860312156119d857600080fd5b6119e184611873565b9250602084013591506119656040850161196e565b60005b83811015611a115781810151838201526020016119f9565b50506000910152565b60008151808452611a328160208601602086016119f6565b601f01601f19169290920160200192915050565b85815260006001600160a01b038087166020840152808616604084015280851660608401525060a06080830152611a8060a0830184611a1a565b979650505050505050565b634e487b7160e01b600052603260045260246000fd5b634e487b7160e01b600052601160045260246000fd5b600060018201611ac957611ac9611aa1565b5060010190565b600181811c90821680611ae457607f821691505b602082108103611b0457634e487b7160e01b600052602260045260246000fd5b50919050565b7f416363657373436f6e74726f6c3a206163636f756e7420000000000000000000815260008351611b428160178501602088016119f6565b7f206973206d697373696e6720726f6c65200000000000000000000000000000006017918401918201528351611b7f8160288401602088016119f6565b01602801949350505050565b6020815260006118426020830184611a1a565b808202811582820484141761099557610995611aa1565b8082018082111561099557610995611aa1565b634e487b7160e01b600052604160045260246000fd5b600081611bed57611bed611aa1565b50600019019056fe41636365737369626c653a2043616c6c6572206973206e6f7420616e2061646da164736f6c6343000812000adf8b4c520ffe197c5343c6f5aec59570151ef9a492f2c624fd45ddde6135ec42",
  "linkReferences": {},
  "deployedLinkReferences": {}
}