{
  "_format": "hh-sol-artifact-1",
  "contractName": "L2ProjectManagerProxy",
  "sourceName": "contracts/L2/L2ProjectManagerProxy.sol",
  "abi": [
    {
      "anonymous": false,
      "inputs": [
        {
          "indexed": true,
          "internalType": "bytes32",
          "name": "role",
          "type": "bytes32"
        },
        {
          "indexed": true,
          "internalType": "bytes32",
          "name": "previousAdminRole",
          "type": "bytes32"
        },
        {
          "indexed": true,
          "internalType": "bytes32",
          "name": "newAdminRole",
          "type": "bytes32"
        }
      ],
      "name": "RoleAdminChanged",
      "type": "event"
    },
    {
      "anonymous": false,
      "inputs": [
        {
          "indexed": true,
          "internalType": "bytes32",
          "name": "role",
          "type": "bytes32"
        },
        {
          "indexed": true,
          "internalType": "address",
          "name": "account",
          "type": "address"
        },
        {
          "indexed": true,
          "internalType": "address",
          "name": "sender",
          "type": "address"
        }
      ],
      "name": "RoleGranted",
      "type": "event"
    },
    {
      "anonymous": false,
      "inputs": [
        {
          "indexed": true,
          "internalType": "bytes32",
          "name": "role",
          "type": "bytes32"
        },
        {
          "indexed": true,
          "internalType": "address",
          "name": "account",
          "type": "address"
        },
        {
          "indexed": true,
          "internalType": "address",
          "name": "sender",
          "type": "address"
        }
      ],
      "name": "RoleRevoked",
      "type": "event"
    },
    {
      "anonymous": false,
      "inputs": [
        {
          "indexed": true,
          "internalType": "address",
          "name": "impl",
          "type": "address"
        },
        {
          "indexed": false,
          "internalType": "bool",
          "name": "alive",
          "type": "bool"
        }
      ],
      "name": "SetAliveImplementation",
      "type": "event"
    },
    {
      "anonymous": false,
      "inputs": [
        {
          "indexed": true,
          "internalType": "bytes4",
          "name": "selector",
          "type": "bytes4"
        },
        {
          "indexed": true,
          "internalType": "address",
          "name": "impl",
          "type": "address"
        }
      ],
      "name": "SetSelectorImplementation",
      "type": "event"
    },
    {
      "anonymous": false,
      "inputs": [
        {
          "indexed": true,
          "internalType": "address",
          "name": "implementation",
          "type": "address"
        }
      ],
      "name": "Upgraded",
      "type": "event"
    },
    {
      "stateMutability": "payable",
      "type": "fallback"
    },
    {
      "inputs": [],
      "name": "ADMIN_ROLE",
      "outputs": [
        {
          "internalType": "bytes32",
          "name": "",
          "type": "bytes32"
        }
      ],
      "stateMutability": "view",
      "type": "function"
    },
    {
      "inputs": [],
      "name": "DEFAULT_ADMIN_ROLE",
      "outputs": [
        {
          "internalType": "bytes32",
          "name": "",
          "type": "bytes32"
        }
      ],
      "stateMutability": "view",
      "type": "function"
    },
    {
      "inputs": [],
      "name": "POLICY_ROLE",
      "outputs": [
        {
          "internalType": "bytes32",
          "name": "",
          "type": "bytes32"
        }
      ],
      "stateMutability": "view",
      "type": "function"
    },
    {
      "inputs": [
        {
          "internalType": "address",
          "name": "account",
          "type": "address"
        }
      ],
      "name": "addAdmin",
      "outputs": [],
      "stateMutability": "nonpayable",
      "type": "function"
    },
    {
      "inputs": [
        {
          "internalType": "address",
          "name": "",
          "type": "address"
        }
      ],
      "name": "aliveImplementation",
      "outputs": [
        {
          "internalType": "bool",
          "name": "",
          "type": "bool"
        }
      ],
      "stateMutability": "view",
      "type": "function"
    },
    {
      "inputs": [
        {
          "internalType": "bytes32",
          "name": "role",
          "type": "bytes32"
        }
      ],
      "name": "getRoleAdmin",
      "outputs": [
        {
          "internalType": "bytes32",
          "name": "",
          "type": "bytes32"
        }
      ],
      "stateMutability": "view",
      "type": "function"
    },
    {
      "inputs": [
        {
          "internalType": "bytes4",
          "name": "_selector",
          "type": "bytes4"
        }
      ],
      "name": "getSelectorImplementation2",
      "outputs": [
        {
          "internalType": "address",
          "name": "impl",
          "type": "address"
        }
      ],
      "stateMutability": "view",
      "type": "function"
    },
    {
      "inputs": [
        {
          "internalType": "bytes32",
          "name": "role",
          "type": "bytes32"
        },
        {
          "internalType": "address",
          "name": "account",
          "type": "address"
        }
      ],
      "name": "grantRole",
      "outputs": [],
      "stateMutability": "nonpayable",
      "type": "function"
    },
    {
      "inputs": [
        {
          "internalType": "bytes32",
          "name": "role",
          "type": "bytes32"
        },
        {
          "internalType": "address",
          "name": "account",
          "type": "address"
        }
      ],
      "name": "hasRole",
      "outputs": [
        {
          "internalType": "bool",
          "name": "",
          "type": "bool"
        }
      ],
      "stateMutability": "view",
      "type": "function"
    },
    {
      "inputs": [],
      "name": "implementation",
      "outputs": [
        {
          "internalType": "address",
          "name": "",
          "type": "address"
        }
      ],
      "stateMutability": "view",
      "type": "function"
    },
    {
      "inputs": [
        {
          "internalType": "uint256",
          "name": "_index",
          "type": "uint256"
        }
      ],
      "name": "implementation2",
      "outputs": [
        {
          "internalType": "address",
          "name": "",
          "type": "address"
        }
      ],
      "stateMutability": "view",
      "type": "function"
    },
    {
      "inputs": [],
      "name": "initialLiquidityVault",
      "outputs": [
        {
          "internalType": "address",
          "name": "",
          "type": "address"
        }
      ],
      "stateMutability": "view",
      "type": "function"
    },
    {
      "inputs": [
        {
          "internalType": "address",
          "name": "account",
          "type": "address"
        }
      ],
      "name": "isAdmin",
      "outputs": [
        {
          "internalType": "bool",
          "name": "",
          "type": "bool"
        }
      ],
      "stateMutability": "view",
      "type": "function"
    },
    {
      "inputs": [],
      "name": "l1ProjectManager",
      "outputs": [
        {
          "internalType": "address",
          "name": "",
          "type": "address"
        }
      ],
      "stateMutability": "view",
      "type": "function"
    },
    {
      "inputs": [],
      "name": "l2CrossDomainMessenger",
      "outputs": [
        {
          "internalType": "address",
          "name": "",
          "type": "address"
        }
      ],
      "stateMutability": "view",
      "type": "function"
    },
    {
      "inputs": [],
      "name": "l2TokenFactory",
      "outputs": [
        {
          "internalType": "address",
          "name": "",
          "type": "address"
        }
      ],
      "stateMutability": "view",
      "type": "function"
    },
    {
      "inputs": [],
      "name": "liquidityRewardVault",
      "outputs": [
        {
          "internalType": "address",
          "name": "",
          "type": "address"
        }
      ],
      "stateMutability": "view",
      "type": "function"
    },
    {
      "inputs": [],
      "name": "nonScheduleVault",
      "outputs": [
        {
          "internalType": "address",
          "name": "",
          "type": "address"
        }
      ],
      "stateMutability": "view",
      "type": "function"
    },
    {
      "inputs": [],
      "name": "pauseProxy",
      "outputs": [
        {
          "internalType": "bool",
          "name": "",
          "type": "bool"
        }
      ],
      "stateMutability": "view",
      "type": "function"
    },
    {
      "inputs": [],
      "name": "poolFee",
      "outputs": [
        {
          "internalType": "uint24",
          "name": "",
          "type": "uint24"
        }
      ],
      "stateMutability": "view",
      "type": "function"
    },
    {
      "inputs": [
        {
          "internalType": "address",
          "name": "",
          "type": "address"
        }
      ],
      "name": "projects",
      "outputs": [
        {
          "internalType": "uint256",
          "name": "projectId",
          "type": "uint256"
        },
        {
          "internalType": "address",
          "name": "projectOwner",
          "type": "address"
        },
        {
          "internalType": "address",
          "name": "l1Token",
          "type": "address"
        },
        {
          "internalType": "address",
          "name": "l2Token",
          "type": "address"
        },
        {
          "internalType": "string",
          "name": "projectName",
          "type": "string"
        }
      ],
      "stateMutability": "view",
      "type": "function"
    },
    {
      "inputs": [
        {
          "internalType": "uint256",
          "name": "",
          "type": "uint256"
        }
      ],
      "name": "proxyImplementation",
      "outputs": [
        {
          "internalType": "address",
          "name": "",
          "type": "address"
        }
      ],
      "stateMutability": "view",
      "type": "function"
    },
    {
      "inputs": [],
      "name": "publicSaleVault",
      "outputs": [
        {
          "internalType": "address",
          "name": "",
          "type": "address"
        }
      ],
      "stateMutability": "view",
      "type": "function"
    },
    {
      "inputs": [
        {
          "internalType": "address",
          "name": "account",
          "type": "address"
        }
      ],
      "name": "removeAdmin",
      "outputs": [],
      "stateMutability": "nonpayable",
      "type": "function"
    },
    {
      "inputs": [
        {
          "internalType": "bytes32",
          "name": "role",
          "type": "bytes32"
        },
        {
          "internalType": "address",
          "name": "account",
          "type": "address"
        }
      ],
      "name": "renounceRole",
      "outputs": [],
      "stateMutability": "nonpayable",
      "type": "function"
    },
    {
      "inputs": [
        {
          "internalType": "bytes32",
          "name": "role",
          "type": "bytes32"
        },
        {
          "internalType": "address",
          "name": "account",
          "type": "address"
        }
      ],
      "name": "revokeRole",
      "outputs": [],
      "stateMutability": "nonpayable",
      "type": "function"
    },
    {
      "inputs": [],
      "name": "scheduleVault",
      "outputs": [
        {
          "internalType": "address",
          "name": "",
          "type": "address"
        }
      ],
      "stateMutability": "view",
      "type": "function"
    },
    {
      "inputs": [
        {
          "internalType": "bytes4",
          "name": "",
          "type": "bytes4"
        }
      ],
      "name": "selectorImplementation",
      "outputs": [
        {
          "internalType": "address",
          "name": "",
          "type": "address"
        }
      ],
      "stateMutability": "view",
      "type": "function"
    },
    {
      "inputs": [
        {
          "internalType": "address",
          "name": "newImplementation",
          "type": "address"
        },
        {
          "internalType": "bool",
          "name": "_alive",
          "type": "bool"
        }
      ],
      "name": "setAliveImplementation2",
      "outputs": [],
      "stateMutability": "nonpayable",
      "type": "function"
    },
    {
      "inputs": [
        {
          "internalType": "address",
          "name": "newImplementation",
          "type": "address"
        },
        {
          "internalType": "uint256",
          "name": "_index",
          "type": "uint256"
        },
        {
          "internalType": "bool",
          "name": "_alive",
          "type": "bool"
        }
      ],
      "name": "setImplementation2",
      "outputs": [],
      "stateMutability": "nonpayable",
      "type": "function"
    },
    {
      "inputs": [
        {
          "internalType": "bool",
          "name": "_pause",
          "type": "bool"
        }
      ],
      "name": "setProxyPause",
      "outputs": [],
      "stateMutability": "nonpayable",
      "type": "function"
    },
    {
      "inputs": [
        {
          "internalType": "bytes4[]",
          "name": "_selectors",
          "type": "bytes4[]"
        },
        {
          "internalType": "address",
          "name": "_imp",
          "type": "address"
        }
      ],
      "name": "setSelectorImplementations2",
      "outputs": [],
      "stateMutability": "nonpayable",
      "type": "function"
    },
    {
      "inputs": [
        {
          "internalType": "bytes4",
          "name": "interfaceId",
          "type": "bytes4"
        }
      ],
      "name": "supportsInterface",
      "outputs": [
        {
          "internalType": "bool",
          "name": "",
          "type": "bool"
        }
      ],
      "stateMutability": "view",
      "type": "function"
    },
    {
      "inputs": [
        {
          "internalType": "address",
          "name": "",
          "type": "address"
        }
      ],
      "name": "tokenMaps",
      "outputs": [
        {
          "internalType": "address",
          "name": "",
          "type": "address"
        }
      ],
      "stateMutability": "view",
      "type": "function"
    },
    {
      "inputs": [],
      "name": "tonAirdropVault",
      "outputs": [
        {
          "internalType": "address",
          "name": "",
          "type": "address"
        }
      ],
      "stateMutability": "view",
      "type": "function"
    },
    {
      "inputs": [],
      "name": "tos",
      "outputs": [
        {
          "internalType": "address",
          "name": "",
          "type": "address"
        }
      ],
      "stateMutability": "view",
      "type": "function"
    },
    {
      "inputs": [],
      "name": "tosAirdropVault",
      "outputs": [
        {
          "internalType": "address",
          "name": "",
          "type": "address"
        }
      ],
      "stateMutability": "view",
      "type": "function"
    },
    {
      "inputs": [
        {
          "internalType": "address",
          "name": "newAdmin",
          "type": "address"
        }
      ],
      "name": "transferAdmin",
      "outputs": [],
      "stateMutability": "nonpayable",
      "type": "function"
    },
    {
      "inputs": [
        {
          "internalType": "address",
          "name": "impl",
          "type": "address"
        }
      ],
      "name": "upgradeTo",
      "outputs": [],
      "stateMutability": "nonpayable",
      "type": "function"
    },
    {
      "inputs": [],
      "name": "wton",
      "outputs": [
        {
          "internalType": "address",
          "name": "",
          "type": "address"
        }
      ],
      "stateMutability": "view",
      "type": "function"
    },
    {
      "stateMutability": "payable",
      "type": "receive"
    }
  ],
  "bytecode": "0x60806040526005805460ff191660011790553480156200001e57600080fd5b506200003a60008051602062001e2a833981519152806200005b565b6200005560008051602062001e2a83398151915233620000a6565b6200015a565b600082815260046020526040808220600101805490849055905190918391839186917fbd79b86ffe0ab8e8776151514217cd7cacd52c909f66475c3af44e129f0b00ff9190a4505050565b620000b28282620000b6565b5050565b60008281526004602090815260408083206001600160a01b038516845290915290205460ff16620000b25760008281526004602090815260408083206001600160a01b03851684529091529020805460ff19166001179055620001163390565b6001600160a01b0316816001600160a01b0316837f2f8788117e7eff1d82e926ec794901d17c78024a50270940304540a733656f0d60405160405180910390a45050565b611cc0806200016a6000396000f3fe6080604052600436106102bf5760003560e01c806374a9f5c11161016e57806391d14854116100cb578063c5b53e681161007f578063eca7b83611610064578063eca7b836146108f9578063eddd5e8214610919578063fbef005a1461093957610311565b8063c5b53e68146108a3578063d547741f146108d957610311565b8063b911135f116100b0578063b911135f1461082d578063c519eeac14610863578063c51c773a1461088357610311565b806391d14854146107d2578063a217fddf1461081857610311565b8063840e78fd116101225780638b8f4a65116101075780638b8f4a65146107725780638d4fdb40146107925780638d62d949146107b257610311565b8063840e78fd1461072157806389f395de1461075257610311565b806375b238fc1161015357806375b238fc146106ad5780637cb00d25146106e15780637cd5f6631461070157610311565b806374a9f5c11461066857806375829def1461068d57610311565b80633659cfe61161021c5780635cc797d8116101d05780636e53f427116101b55780636e53f427146106085780636e6e857314610628578063704802751461064857610311565b80635cc797d8146105ce57806363a8fd89146105ee57610311565b806350d2a2761161020157806350d2a27614610522578063550d01a3146105585780635c60da1b1461058857610311565b80633659cfe6146104e25780634a5df50f1461050257610311565b806324d7806c116102735780632c8917c8116102585780632c8917c8146104825780632f2ff15d146104a257806336568abe146104c257610311565b806324d7806c1461042a5780632966c4dd1461044a57610311565b80631785f53c116102a45780631785f53c1461039857806322985246146103b8578063248a9ca3146103fa57610311565b806301ffc9a71461031b578063089fe6aa1461035057610311565b366103115760405162461bcd60e51b815260206004820152601460248201527f63616e6e6f74207265636569766520457468657200000000000000000000000060448201526064015b60405180910390fd5b610319610959565b005b34801561032757600080fd5b5061033b6103363660046118e7565b610a02565b60405190151581526020015b60405180910390f35b34801561035c57600080fd5b506009546103849074010000000000000000000000000000000000000000900462ffffff1681565b60405162ffffff9091168152602001610347565b3480156103a457600080fd5b506103196103b3366004611928565b610a39565b3480156103c457600080fd5b506103ec7ffb5864e8ff833c3cb2d2d08505e82ff02a43554c74a35d4f5a64e8526127831181565b604051908152602001610347565b34801561040657600080fd5b506103ec610415366004611943565b60009081526004602052604090206001015490565b34801561043657600080fd5b5061033b610445366004611928565b610ab4565b34801561045657600080fd5b50600c5461046a906001600160a01b031681565b6040516001600160a01b039091168152602001610347565b34801561048e57600080fd5b50600a5461046a906001600160a01b031681565b3480156104ae57600080fd5b506103196104bd36600461195c565b610af4565b3480156104ce57600080fd5b506103196104dd36600461195c565b610b19565b3480156104ee57600080fd5b506103196104fd366004611928565b610ba5565b34801561050e57600080fd5b5061031961051d366004611988565b610cfe565b34801561052e57600080fd5b5061046a61053d3660046118e7565b6003602052600090815260409020546001600160a01b031681565b34801561056457600080fd5b5061033b610573366004611928565b60026020526000908152604090205460ff1681565b34801561059457600080fd5b506000805260016020527fa6eef7e35abe7026729641147f7915573c7e97b47efa546f5f6e3230263bcb49546001600160a01b031661046a565b3480156105da57600080fd5b506103196105e9366004611a1c565b610fab565b3480156105fa57600080fd5b5060005461033b9060ff1681565b34801561061457600080fd5b50600d5461046a906001600160a01b031681565b34801561063457600080fd5b5060105461046a906001600160a01b031681565b34801561065457600080fd5b50610319610663366004611928565b611003565b34801561067457600080fd5b5060055461046a9061010090046001600160a01b031681565b34801561069957600080fd5b506103196106a8366004611928565b61107b565b3480156106b957600080fd5b506103ec7fdf8b4c520ffe197c5343c6f5aec59570151ef9a492f2c624fd45ddde6135ec4281565b3480156106ed57600080fd5b506103196106fc366004611a46565b6111cb565b34801561070d57600080fd5b5061031961071c366004611a61565b61122c565b34801561072d57600080fd5b5061074161073c366004611928565b611285565b604051610347959493929190611ae4565b34801561075e57600080fd5b5060085461046a906001600160a01b031681565b34801561077e57600080fd5b5061046a61078d366004611943565b61134c565b34801561079e57600080fd5b5061046a6107ad3660046118e7565b611369565b3480156107be57600080fd5b5060095461046a906001600160a01b031681565b3480156107de57600080fd5b5061033b6107ed36600461195c565b60009182526004602090815260408084206001600160a01b0393909316845291905290205460ff1690565b34801561082457600080fd5b506103ec600081565b34801561083957600080fd5b5061046a610848366004611943565b6001602052600090815260409020546001600160a01b031681565b34801561086f57600080fd5b50600f5461046a906001600160a01b031681565b34801561088f57600080fd5b50600b5461046a906001600160a01b031681565b3480156108af57600080fd5b5061046a6108be366004611928565b6012602052600090815260409020546001600160a01b031681565b3480156108e557600080fd5b506103196108f436600461195c565b611465565b34801561090557600080fd5b50600e5461046a906001600160a01b031681565b34801561092557600080fd5b5060065461046a906001600160a01b031681565b34801561094557600080fd5b5060075461046a906001600160a01b031681565b60006109706000356001600160e01b031916611369565b90506001600160a01b0381161580159061098d575060005460ff16155b6109d95760405162461bcd60e51b815260206004820152601d60248201527f50726f78793a20696d706c204f522070726f78792069732066616c73650000006044820152606401610308565b3660008037600080366000845af43d6000803e8080156109f8573d6000f35b3d6000fd5b505050565b60006001600160e01b03198216637965db0b60e01b1480610a3357506301ffc9a760e01b6001600160e01b03198316145b92915050565b610a4233610ab4565b610a875760405162461bcd60e51b81526020600482015260226024820152600080516020611c9483398151915260448201526134b760f11b6064820152608401610308565b610ab17fdf8b4c520ffe197c5343c6f5aec59570151ef9a492f2c624fd45ddde6135ec4282610b19565b50565b6001600160a01b03811660009081527f2fb794d17134dfdec181ddbac1babb5ab1eb140204ef4d982f294e7fc8b69022602052604081205460ff16610a33565b600082815260046020526040902060010154610b0f8161148a565b6109fd8383611494565b6001600160a01b0381163314610b975760405162461bcd60e51b815260206004820152602f60248201527f416363657373436f6e74726f6c3a2063616e206f6e6c792072656e6f756e636560448201527f20726f6c657320666f722073656c6600000000000000000000000000000000006064820152608401610308565b610ba18282611536565b5050565b610bae33610ab4565b610bf35760405162461bcd60e51b81526020600482015260226024820152600080516020611c9483398151915260448201526134b760f11b6064820152608401610308565b6001600160a01b038116610c495760405162461bcd60e51b815260206004820152600d60248201527f696e707574206973207a65726f000000000000000000000000000000000000006044820152606401610308565b6000805260016020527fa6eef7e35abe7026729641147f7915573c7e97b47efa546f5f6e3230263bcb49546001600160a01b03828116911603610cba5760405162461bcd60e51b815260206004820152600960248201526839b0b6b29030b2323960b91b6044820152606401610308565b610cc781600060016115b9565b6040516001600160a01b038216907fbc7cd75a20ee27fd9adebab32041f755214dbc6bffa90cc0225b39da2e5c2d3b90600090a250565b610d0733610ab4565b610d4c5760405162461bcd60e51b81526020600482015260226024820152600080516020611c9483398151915260448201526134b760f11b6064820152608401610308565b81610d995760405162461bcd60e51b815260206004820181905260248201527f50726f78793a205f73656c6563746f727327732073697a65206973207a65726f6044820152606401610308565b6001600160a01b03811660009081526002602052604090205460ff16610e015760405162461bcd60e51b815260206004820152601860248201527f50726f78793a205f696d70206973206e6f7420616c69766500000000000000006044820152606401610308565b60005b82811015610fa557816001600160a01b031660036000868685818110610e2c57610e2c611b29565b9050602002016020810190610e4191906118e7565b6001600160e01b03191681526020810191909152604001600020546001600160a01b031603610eb25760405162461bcd60e51b815260206004820152601d60248201527f4c69717569646974795661756c7450726f78793a2073616d6520696d700000006044820152606401610308565b8160036000868685818110610ec957610ec9611b29565b9050602002016020810190610ede91906118e7565b6001600160e01b03191681526020810191909152604001600020805473ffffffffffffffffffffffffffffffffffffffff19166001600160a01b039283161790558216848483818110610f3357610f33611b29565b9050602002016020810190610f4891906118e7565b7bffffffffffffffffffffffffffffffffffffffffffffffffffffffff19167f14ebc1c32aa68f4d766e89f3e546cee249f7df25183fc10ab1568d91c2ce9b7b60405160405180910390a380610f9d81611b55565b915050610e04565b50505050565b610fb433610ab4565b610ff95760405162461bcd60e51b81526020600482015260226024820152600080516020611c9483398151915260448201526134b760f11b6064820152608401610308565b610ba18282611651565b61100c33610ab4565b6110515760405162461bcd60e51b81526020600482015260226024820152600080516020611c9483398151915260448201526134b760f11b6064820152608401610308565b610ab17fdf8b4c520ffe197c5343c6f5aec59570151ef9a492f2c624fd45ddde6135ec4282610af4565b61108433610ab4565b6110c95760405162461bcd60e51b81526020600482015260226024820152600080516020611c9483398151915260448201526134b760f11b6064820152608401610308565b6001600160a01b03811661111f5760405162461bcd60e51b815260206004820152601860248201527f41636365737369626c653a207a65726f206164647265737300000000000000006044820152606401610308565b6001600160a01b03811633036111775760405162461bcd60e51b815260206004820152601660248201527f41636365737369626c653a2073616d652061646d696e000000000000000000006044820152606401610308565b6111a17fdf8b4c520ffe197c5343c6f5aec59570151ef9a492f2c624fd45ddde6135ec4282610af4565b610ab17fdf8b4c520ffe197c5343c6f5aec59570151ef9a492f2c624fd45ddde6135ec4233610b19565b6111d433610ab4565b6112195760405162461bcd60e51b81526020600482015260226024820152600080516020611c9483398151915260448201526134b760f11b6064820152608401610308565b6000805460ff1916911515919091179055565b61123533610ab4565b61127a5760405162461bcd60e51b81526020600482015260226024820152600080516020611c9483398151915260448201526134b760f11b6064820152608401610308565b6109fd8383836115b9565b6011602052600090815260409020805460018201546002830154600384015460048501805494956001600160a01b039485169593851694909216926112c990611b6e565b80601f01602080910402602001604051908101604052809291908181526020018280546112f590611b6e565b80156113425780601f1061131757610100808354040283529160200191611342565b820191906000526020600020905b81548152906001019060200180831161132557829003601f168201915b5050505050905085565b6000818152600160205260408120546001600160a01b0316610a33565b6001600160e01b031981166000908152600360205260408120546001600160a01b03166113c95750506000805260016020527fa6eef7e35abe7026729641147f7915573c7e97b47efa546f5f6e3230263bcb49546001600160a01b031690565b6001600160e01b031982166000908152600360209081526040808320546001600160a01b03168352600290915290205460ff161561142757506001600160e01b0319166000908152600360205260409020546001600160a01b031690565b50506000805260016020527fa6eef7e35abe7026729641147f7915573c7e97b47efa546f5f6e3230263bcb49546001600160a01b031690565b919050565b6000828152600460205260409020600101546114808161148a565b6109fd8383611536565b610ab181336116b0565b60008281526004602090815260408083206001600160a01b038516845290915290205460ff16610ba15760008281526004602090815260408083206001600160a01b03851684529091529020805460ff191660011790556114f23390565b6001600160a01b0316816001600160a01b0316837f2f8788117e7eff1d82e926ec794901d17c78024a50270940304540a733656f0d60405160405180910390a45050565b60008281526004602090815260408083206001600160a01b038516845290915290205460ff1615610ba15760008281526004602090815260408083206001600160a01b0385168085529252808320805460ff1916905551339285917ff6391f5c32d9c69d2a47ea670b442974b53935d1edc7fd64eb21e047a839171b9190a45050565b6001600160a01b0383163b6116105760405162461bcd60e51b815260206004820152601b60248201527f50726f78793a206e6f7420636f6e7472616374206164647265737300000000006044820152606401610308565b801561164b576000828152600160205260409020805473ffffffffffffffffffffffffffffffffffffffff19166001600160a01b0385161790555b6109fd83825b6001600160a01b038216600081815260026020908152604091829020805460ff191685151590811790915591519182527f72558d9bfba4210f9ef095c782589484151f6d90f7a81bb3cb9b33efc695d324910160405180910390a25050565b60008281526004602090815260408083206001600160a01b038516845290915290205460ff16610ba1576116e381611725565b6116ee836020611737565b6040516020016116ff929190611ba8565b60408051601f198184030181529082905262461bcd60e51b825261030891600401611c29565b6060610a336001600160a01b03831660145b60606000611746836002611c3c565b611751906002611c53565b67ffffffffffffffff81111561176957611769611c66565b6040519080825280601f01601f191660200182016040528015611793576020820181803683370190505b509050600360fc1b816000815181106117ae576117ae611b29565b60200101906001600160f81b031916908160001a905350600f60fb1b816001815181106117dd576117dd611b29565b60200101906001600160f81b031916908160001a9053506000611801846002611c3c565b61180c906001611c53565b90505b6001811115611891577f303132333435363738396162636465660000000000000000000000000000000085600f166010811061184d5761184d611b29565b1a60f81b82828151811061186357611863611b29565b60200101906001600160f81b031916908160001a90535060049490941c9361188a81611c7c565b905061180f565b5083156118e05760405162461bcd60e51b815260206004820181905260248201527f537472696e67733a20686578206c656e67746820696e73756666696369656e746044820152606401610308565b9392505050565b6000602082840312156118f957600080fd5b81356001600160e01b0319811681146118e057600080fd5b80356001600160a01b038116811461146057600080fd5b60006020828403121561193a57600080fd5b6118e082611911565b60006020828403121561195557600080fd5b5035919050565b6000806040838503121561196f57600080fd5b8235915061197f60208401611911565b90509250929050565b60008060006040848603121561199d57600080fd5b833567ffffffffffffffff808211156119b557600080fd5b818601915086601f8301126119c957600080fd5b8135818111156119d857600080fd5b8760208260051b85010111156119ed57600080fd5b602092830195509350611a039186019050611911565b90509250925092565b8035801515811461146057600080fd5b60008060408385031215611a2f57600080fd5b611a3883611911565b915061197f60208401611a0c565b600060208284031215611a5857600080fd5b6118e082611a0c565b600080600060608486031215611a7657600080fd5b611a7f84611911565b925060208401359150611a0360408501611a0c565b60005b83811015611aaf578181015183820152602001611a97565b50506000910152565b60008151808452611ad0816020860160208601611a94565b601f01601f19169290920160200192915050565b85815260006001600160a01b038087166020840152808616604084015280851660608401525060a06080830152611b1e60a0830184611ab8565b979650505050505050565b634e487b7160e01b600052603260045260246000fd5b634e487b7160e01b600052601160045260246000fd5b600060018201611b6757611b67611b3f565b5060010190565b600181811c90821680611b8257607f821691505b602082108103611ba257634e487b7160e01b600052602260045260246000fd5b50919050565b7f416363657373436f6e74726f6c3a206163636f756e7420000000000000000000815260008351611be0816017850160208801611a94565b7f206973206d697373696e6720726f6c65200000000000000000000000000000006017918401918201528351611c1d816028840160208801611a94565b01602801949350505050565b6020815260006118e06020830184611ab8565b8082028115828204841417610a3357610a33611b3f565b80820180821115610a3357610a33611b3f565b634e487b7160e01b600052604160045260246000fd5b600081611c8b57611c8b611b3f565b50600019019056fe41636365737369626c653a2043616c6c6572206973206e6f7420616e2061646da164736f6c6343000812000adf8b4c520ffe197c5343c6f5aec59570151ef9a492f2c624fd45ddde6135ec42",
  "linkReferences": {},
  "deployedLinkReferences": {}
}