{
  "_format": "hh-sol-artifact-1",
  "contractName": "L2ProjectManagerProxy",
  "sourceName": "contracts/L2/L2ProjectManagerProxy.sol",
  "abi": [
    {
      "anonymous": false,
      "inputs": [
        {
          "indexed": true,
          "internalType": "bytes32",
          "name": "role",
          "type": "bytes32"
        },
        {
          "indexed": true,
          "internalType": "bytes32",
          "name": "previousAdminRole",
          "type": "bytes32"
        },
        {
          "indexed": true,
          "internalType": "bytes32",
          "name": "newAdminRole",
          "type": "bytes32"
        }
      ],
      "name": "RoleAdminChanged",
      "type": "event"
    },
    {
      "anonymous": false,
      "inputs": [
        {
          "indexed": true,
          "internalType": "bytes32",
          "name": "role",
          "type": "bytes32"
        },
        {
          "indexed": true,
          "internalType": "address",
          "name": "account",
          "type": "address"
        },
        {
          "indexed": true,
          "internalType": "address",
          "name": "sender",
          "type": "address"
        }
      ],
      "name": "RoleGranted",
      "type": "event"
    },
    {
      "anonymous": false,
      "inputs": [
        {
          "indexed": true,
          "internalType": "bytes32",
          "name": "role",
          "type": "bytes32"
        },
        {
          "indexed": true,
          "internalType": "address",
          "name": "account",
          "type": "address"
        },
        {
          "indexed": true,
          "internalType": "address",
          "name": "sender",
          "type": "address"
        }
      ],
      "name": "RoleRevoked",
      "type": "event"
    },
    {
      "anonymous": false,
      "inputs": [
        {
          "indexed": true,
          "internalType": "address",
          "name": "impl",
          "type": "address"
        },
        {
          "indexed": false,
          "internalType": "bool",
          "name": "alive",
          "type": "bool"
        }
      ],
      "name": "SetAliveImplementation",
      "type": "event"
    },
    {
      "anonymous": false,
      "inputs": [
        {
          "indexed": true,
          "internalType": "bytes4",
          "name": "selector",
          "type": "bytes4"
        },
        {
          "indexed": true,
          "internalType": "address",
          "name": "impl",
          "type": "address"
        }
      ],
      "name": "SetSelectorImplementation",
      "type": "event"
    },
    {
      "anonymous": false,
      "inputs": [
        {
          "indexed": true,
          "internalType": "address",
          "name": "implementation",
          "type": "address"
        }
      ],
      "name": "Upgraded",
      "type": "event"
    },
    {
      "stateMutability": "payable",
      "type": "fallback"
    },
    {
      "inputs": [],
      "name": "ADMIN_ROLE",
      "outputs": [
        {
          "internalType": "bytes32",
          "name": "",
          "type": "bytes32"
        }
      ],
      "stateMutability": "view",
      "type": "function"
    },
    {
      "inputs": [],
      "name": "DEFAULT_ADMIN_ROLE",
      "outputs": [
        {
          "internalType": "bytes32",
          "name": "",
          "type": "bytes32"
        }
      ],
      "stateMutability": "view",
      "type": "function"
    },
    {
      "inputs": [],
      "name": "POLICY_ROLE",
      "outputs": [
        {
          "internalType": "bytes32",
          "name": "",
          "type": "bytes32"
        }
      ],
      "stateMutability": "view",
      "type": "function"
    },
    {
      "inputs": [
        {
          "internalType": "address",
          "name": "account",
          "type": "address"
        }
      ],
      "name": "addAdmin",
      "outputs": [],
      "stateMutability": "nonpayable",
      "type": "function"
    },
    {
      "inputs": [
        {
          "internalType": "address",
          "name": "",
          "type": "address"
        }
      ],
      "name": "aliveImplementation",
      "outputs": [
        {
          "internalType": "bool",
          "name": "",
          "type": "bool"
        }
      ],
      "stateMutability": "view",
      "type": "function"
    },
    {
      "inputs": [
        {
          "internalType": "bytes32",
          "name": "role",
          "type": "bytes32"
        }
      ],
      "name": "getRoleAdmin",
      "outputs": [
        {
          "internalType": "bytes32",
          "name": "",
          "type": "bytes32"
        }
      ],
      "stateMutability": "view",
      "type": "function"
    },
    {
      "inputs": [
        {
          "internalType": "bytes4",
          "name": "_selector",
          "type": "bytes4"
        }
      ],
      "name": "getSelectorImplementation2",
      "outputs": [
        {
          "internalType": "address",
          "name": "impl",
          "type": "address"
        }
      ],
      "stateMutability": "view",
      "type": "function"
    },
    {
      "inputs": [
        {
          "internalType": "bytes32",
          "name": "role",
          "type": "bytes32"
        },
        {
          "internalType": "address",
          "name": "account",
          "type": "address"
        }
      ],
      "name": "grantRole",
      "outputs": [],
      "stateMutability": "nonpayable",
      "type": "function"
    },
    {
      "inputs": [
        {
          "internalType": "bytes32",
          "name": "role",
          "type": "bytes32"
        },
        {
          "internalType": "address",
          "name": "account",
          "type": "address"
        }
      ],
      "name": "hasRole",
      "outputs": [
        {
          "internalType": "bool",
          "name": "",
          "type": "bool"
        }
      ],
      "stateMutability": "view",
      "type": "function"
    },
    {
      "inputs": [],
      "name": "implementation",
      "outputs": [
        {
          "internalType": "address",
          "name": "",
          "type": "address"
        }
      ],
      "stateMutability": "view",
      "type": "function"
    },
    {
      "inputs": [
        {
          "internalType": "uint256",
          "name": "_index",
          "type": "uint256"
        }
      ],
      "name": "implementation2",
      "outputs": [
        {
          "internalType": "address",
          "name": "",
          "type": "address"
        }
      ],
      "stateMutability": "view",
      "type": "function"
    },
    {
      "inputs": [],
      "name": "initialLiquidityVault",
      "outputs": [
        {
          "internalType": "address",
          "name": "",
          "type": "address"
        }
      ],
      "stateMutability": "view",
      "type": "function"
    },
    {
      "inputs": [
        {
          "internalType": "address",
          "name": "account",
          "type": "address"
        }
      ],
      "name": "isAdmin",
      "outputs": [
        {
          "internalType": "bool",
          "name": "",
          "type": "bool"
        }
      ],
      "stateMutability": "view",
      "type": "function"
    },
    {
      "inputs": [],
      "name": "l1ProjectManager",
      "outputs": [
        {
          "internalType": "address",
          "name": "",
          "type": "address"
        }
      ],
      "stateMutability": "view",
      "type": "function"
    },
    {
      "inputs": [],
      "name": "l2CrossDomainMessenger",
      "outputs": [
        {
          "internalType": "address",
          "name": "",
          "type": "address"
        }
      ],
      "stateMutability": "view",
      "type": "function"
    },
    {
      "inputs": [],
      "name": "l2TokenFactory",
      "outputs": [
        {
          "internalType": "address",
          "name": "",
          "type": "address"
        }
      ],
      "stateMutability": "view",
      "type": "function"
    },
    {
      "inputs": [],
      "name": "liquidityRewardVault",
      "outputs": [
        {
          "internalType": "address",
          "name": "",
          "type": "address"
        }
      ],
      "stateMutability": "view",
      "type": "function"
    },
    {
      "inputs": [],
      "name": "nonScheduleVault",
      "outputs": [
        {
          "internalType": "address",
          "name": "",
          "type": "address"
        }
      ],
      "stateMutability": "view",
      "type": "function"
    },
    {
      "inputs": [],
      "name": "pauseProxy",
      "outputs": [
        {
          "internalType": "bool",
          "name": "",
          "type": "bool"
        }
      ],
      "stateMutability": "view",
      "type": "function"
    },
    {
      "inputs": [
        {
          "internalType": "address",
          "name": "",
          "type": "address"
        }
      ],
      "name": "projects",
      "outputs": [
        {
          "internalType": "uint256",
          "name": "projectId",
          "type": "uint256"
        },
        {
          "internalType": "address",
          "name": "projectOwner",
          "type": "address"
        },
        {
          "internalType": "address",
          "name": "l1Token",
          "type": "address"
        },
        {
          "internalType": "address",
          "name": "l2Token",
          "type": "address"
        },
        {
          "internalType": "string",
          "name": "projectName",
          "type": "string"
        }
      ],
      "stateMutability": "view",
      "type": "function"
    },
    {
      "inputs": [
        {
          "internalType": "uint256",
          "name": "",
          "type": "uint256"
        }
      ],
      "name": "proxyImplementation",
      "outputs": [
        {
          "internalType": "address",
          "name": "",
          "type": "address"
        }
      ],
      "stateMutability": "view",
      "type": "function"
    },
    {
      "inputs": [],
      "name": "publicSaleVault",
      "outputs": [
        {
          "internalType": "address",
          "name": "",
          "type": "address"
        }
      ],
      "stateMutability": "view",
      "type": "function"
    },
    {
      "inputs": [
        {
          "internalType": "address",
          "name": "account",
          "type": "address"
        }
      ],
      "name": "removeAdmin",
      "outputs": [],
      "stateMutability": "nonpayable",
      "type": "function"
    },
    {
      "inputs": [
        {
          "internalType": "bytes32",
          "name": "role",
          "type": "bytes32"
        },
        {
          "internalType": "address",
          "name": "account",
          "type": "address"
        }
      ],
      "name": "renounceRole",
      "outputs": [],
      "stateMutability": "nonpayable",
      "type": "function"
    },
    {
      "inputs": [
        {
          "internalType": "bytes32",
          "name": "role",
          "type": "bytes32"
        },
        {
          "internalType": "address",
          "name": "account",
          "type": "address"
        }
      ],
      "name": "revokeRole",
      "outputs": [],
      "stateMutability": "nonpayable",
      "type": "function"
    },
    {
      "inputs": [],
      "name": "scheduleVault",
      "outputs": [
        {
          "internalType": "address",
          "name": "",
          "type": "address"
        }
      ],
      "stateMutability": "view",
      "type": "function"
    },
    {
      "inputs": [
        {
          "internalType": "bytes4",
          "name": "",
          "type": "bytes4"
        }
      ],
      "name": "selectorImplementation",
      "outputs": [
        {
          "internalType": "address",
          "name": "",
          "type": "address"
        }
      ],
      "stateMutability": "view",
      "type": "function"
    },
    {
      "inputs": [
        {
          "internalType": "address",
          "name": "newImplementation",
          "type": "address"
        },
        {
          "internalType": "bool",
          "name": "_alive",
          "type": "bool"
        }
      ],
      "name": "setAliveImplementation2",
      "outputs": [],
      "stateMutability": "nonpayable",
      "type": "function"
    },
    {
      "inputs": [
        {
          "internalType": "address",
          "name": "newImplementation",
          "type": "address"
        },
        {
          "internalType": "uint256",
          "name": "_index",
          "type": "uint256"
        },
        {
          "internalType": "bool",
          "name": "_alive",
          "type": "bool"
        }
      ],
      "name": "setImplementation2",
      "outputs": [],
      "stateMutability": "nonpayable",
      "type": "function"
    },
    {
      "inputs": [
        {
          "internalType": "bool",
          "name": "_pause",
          "type": "bool"
        }
      ],
      "name": "setProxyPause",
      "outputs": [],
      "stateMutability": "nonpayable",
      "type": "function"
    },
    {
      "inputs": [
        {
          "internalType": "bytes4[]",
          "name": "_selectors",
          "type": "bytes4[]"
        },
        {
          "internalType": "address",
          "name": "_imp",
          "type": "address"
        }
      ],
      "name": "setSelectorImplementations2",
      "outputs": [],
      "stateMutability": "nonpayable",
      "type": "function"
    },
    {
      "inputs": [
        {
          "internalType": "bytes4",
          "name": "interfaceId",
          "type": "bytes4"
        }
      ],
      "name": "supportsInterface",
      "outputs": [
        {
          "internalType": "bool",
          "name": "",
          "type": "bool"
        }
      ],
      "stateMutability": "view",
      "type": "function"
    },
    {
      "inputs": [
        {
          "internalType": "address",
          "name": "",
          "type": "address"
        }
      ],
      "name": "tokenMaps",
      "outputs": [
        {
          "internalType": "address",
          "name": "",
          "type": "address"
        }
      ],
      "stateMutability": "view",
      "type": "function"
    },
    {
      "inputs": [],
      "name": "tonAirdropVault",
      "outputs": [
        {
          "internalType": "address",
          "name": "",
          "type": "address"
        }
      ],
      "stateMutability": "view",
      "type": "function"
    },
    {
      "inputs": [],
      "name": "tosAirdropVault",
      "outputs": [
        {
          "internalType": "address",
          "name": "",
          "type": "address"
        }
      ],
      "stateMutability": "view",
      "type": "function"
    },
    {
      "inputs": [
        {
          "internalType": "address",
          "name": "newAdmin",
          "type": "address"
        }
      ],
      "name": "transferAdmin",
      "outputs": [],
      "stateMutability": "nonpayable",
      "type": "function"
    },
    {
      "inputs": [
        {
          "internalType": "address",
          "name": "impl",
          "type": "address"
        }
      ],
      "name": "upgradeTo",
      "outputs": [],
      "stateMutability": "nonpayable",
      "type": "function"
    },
    {
      "stateMutability": "payable",
      "type": "receive"
    }
  ],
  "bytecode": "0x60806040526005805460ff191660011790553480156200001e57600080fd5b506200003a60008051602062001d51833981519152806200005b565b6200005560008051602062001d5183398151915233620000a6565b6200015a565b600082815260046020526040808220600101805490849055905190918391839186917fbd79b86ffe0ab8e8776151514217cd7cacd52c909f66475c3af44e129f0b00ff9190a4505050565b620000b28282620000b6565b5050565b60008281526004602090815260408083206001600160a01b038516845290915290205460ff16620000b25760008281526004602090815260408083206001600160a01b03851684529091529020805460ff19166001179055620001163390565b6001600160a01b0316816001600160a01b0316837f2f8788117e7eff1d82e926ec794901d17c78024a50270940304540a733656f0d60405160405180910390a45050565b611be7806200016a6000396000f3fe60806040526004361061026e5760003560e01c8063704802751161015357806391d14854116100cb578063c5b53e681161007f578063eca7b83611610064578063eca7b83614610820578063eddd5e8214610840578063fbef005a14610860576102c0565b8063c5b53e68146107ca578063d547741f14610800576102c0565b8063b911135f116100b0578063b911135f14610754578063c519eeac1461078a578063c51c773a146107aa576102c0565b806391d14854146106f9578063a217fddf1461073f576102c0565b80637cb00d2511610122578063840e78fd11610107578063840e78fd146106885780638b8f4a65146106b95780638d4fdb40146106d9576102c0565b80637cb00d25146106485780637cd5f66314610668576102c0565b806370480275146105af57806374a9f5c1146105cf57806375829def146105f457806375b238fc14610614576102c0565b80633659cfe6116101e65780635c60da1b116101b557806363a8fd891161019a57806363a8fd89146105555780636e53f4271461056f5780636e6e85731461058f576102c0565b80635c60da1b146104ef5780635cc797d814610535576102c0565b80633659cfe6146104495780634a5df50f1461046957806350d2a27614610489578063550d01a3146104bf576102c0565b806324d7806c1161023d5780632c8917c8116102225780632c8917c8146103e95780632f2ff15d1461040957806336568abe14610429576102c0565b806324d7806c146103915780632966c4dd146103b1576102c0565b806301ffc9a7146102ca5780631785f53c146102ff578063229852461461031f578063248a9ca314610361576102c0565b366102c05760405162461bcd60e51b815260206004820152601460248201527f63616e6e6f74207265636569766520457468657200000000000000000000000060448201526064015b60405180910390fd5b6102c8610880565b005b3480156102d657600080fd5b506102ea6102e536600461180e565b610929565b60405190151581526020015b60405180910390f35b34801561030b57600080fd5b506102c861031a36600461184f565b610960565b34801561032b57600080fd5b506103537ffb5864e8ff833c3cb2d2d08505e82ff02a43554c74a35d4f5a64e8526127831181565b6040519081526020016102f6565b34801561036d57600080fd5b5061035361037c36600461186a565b60009081526004602052604090206001015490565b34801561039d57600080fd5b506102ea6103ac36600461184f565b6109db565b3480156103bd57600080fd5b50600a546103d1906001600160a01b031681565b6040516001600160a01b0390911681526020016102f6565b3480156103f557600080fd5b506008546103d1906001600160a01b031681565b34801561041557600080fd5b506102c8610424366004611883565b610a1b565b34801561043557600080fd5b506102c8610444366004611883565b610a40565b34801561045557600080fd5b506102c861046436600461184f565b610acc565b34801561047557600080fd5b506102c86104843660046118af565b610c25565b34801561049557600080fd5b506103d16104a436600461180e565b6003602052600090815260409020546001600160a01b031681565b3480156104cb57600080fd5b506102ea6104da36600461184f565b60026020526000908152604090205460ff1681565b3480156104fb57600080fd5b506000805260016020527fa6eef7e35abe7026729641147f7915573c7e97b47efa546f5f6e3230263bcb49546001600160a01b03166103d1565b34801561054157600080fd5b506102c8610550366004611943565b610ed2565b34801561056157600080fd5b506000546102ea9060ff1681565b34801561057b57600080fd5b50600b546103d1906001600160a01b031681565b34801561059b57600080fd5b50600e546103d1906001600160a01b031681565b3480156105bb57600080fd5b506102c86105ca36600461184f565b610f2a565b3480156105db57600080fd5b506005546103d19061010090046001600160a01b031681565b34801561060057600080fd5b506102c861060f36600461184f565b610fa2565b34801561062057600080fd5b506103537fdf8b4c520ffe197c5343c6f5aec59570151ef9a492f2c624fd45ddde6135ec4281565b34801561065457600080fd5b506102c861066336600461196d565b6110f2565b34801561067457600080fd5b506102c8610683366004611988565b611153565b34801561069457600080fd5b506106a86106a336600461184f565b6111ac565b6040516102f6959493929190611a0b565b3480156106c557600080fd5b506103d16106d436600461186a565b611273565b3480156106e557600080fd5b506103d16106f436600461180e565b611290565b34801561070557600080fd5b506102ea610714366004611883565b60009182526004602090815260408084206001600160a01b0393909316845291905290205460ff1690565b34801561074b57600080fd5b50610353600081565b34801561076057600080fd5b506103d161076f36600461186a565b6001602052600090815260409020546001600160a01b031681565b34801561079657600080fd5b50600d546103d1906001600160a01b031681565b3480156107b657600080fd5b506009546103d1906001600160a01b031681565b3480156107d657600080fd5b506103d16107e536600461184f565b6010602052600090815260409020546001600160a01b031681565b34801561080c57600080fd5b506102c861081b366004611883565b61138c565b34801561082c57600080fd5b50600c546103d1906001600160a01b031681565b34801561084c57600080fd5b506006546103d1906001600160a01b031681565b34801561086c57600080fd5b506007546103d1906001600160a01b031681565b60006108976000356001600160e01b031916611290565b90506001600160a01b038116158015906108b4575060005460ff16155b6109005760405162461bcd60e51b815260206004820152601d60248201527f50726f78793a20696d706c204f522070726f78792069732066616c736500000060448201526064016102b7565b3660008037600080366000845af43d6000803e80801561091f573d6000f35b3d6000fd5b505050565b60006001600160e01b03198216637965db0b60e01b148061095a57506301ffc9a760e01b6001600160e01b03198316145b92915050565b610969336109db565b6109ae5760405162461bcd60e51b81526020600482015260226024820152600080516020611bbb83398151915260448201526134b760f11b60648201526084016102b7565b6109d87fdf8b4c520ffe197c5343c6f5aec59570151ef9a492f2c624fd45ddde6135ec4282610a40565b50565b6001600160a01b03811660009081527f2fb794d17134dfdec181ddbac1babb5ab1eb140204ef4d982f294e7fc8b69022602052604081205460ff1661095a565b600082815260046020526040902060010154610a36816113b1565b61092483836113bb565b6001600160a01b0381163314610abe5760405162461bcd60e51b815260206004820152602f60248201527f416363657373436f6e74726f6c3a2063616e206f6e6c792072656e6f756e636560448201527f20726f6c657320666f722073656c66000000000000000000000000000000000060648201526084016102b7565b610ac8828261145d565b5050565b610ad5336109db565b610b1a5760405162461bcd60e51b81526020600482015260226024820152600080516020611bbb83398151915260448201526134b760f11b60648201526084016102b7565b6001600160a01b038116610b705760405162461bcd60e51b815260206004820152600d60248201527f696e707574206973207a65726f0000000000000000000000000000000000000060448201526064016102b7565b6000805260016020527fa6eef7e35abe7026729641147f7915573c7e97b47efa546f5f6e3230263bcb49546001600160a01b03828116911603610be15760405162461bcd60e51b815260206004820152600960248201526839b0b6b29030b2323960b91b60448201526064016102b7565b610bee81600060016114e0565b6040516001600160a01b038216907fbc7cd75a20ee27fd9adebab32041f755214dbc6bffa90cc0225b39da2e5c2d3b90600090a250565b610c2e336109db565b610c735760405162461bcd60e51b81526020600482015260226024820152600080516020611bbb83398151915260448201526134b760f11b60648201526084016102b7565b81610cc05760405162461bcd60e51b815260206004820181905260248201527f50726f78793a205f73656c6563746f727327732073697a65206973207a65726f60448201526064016102b7565b6001600160a01b03811660009081526002602052604090205460ff16610d285760405162461bcd60e51b815260206004820152601860248201527f50726f78793a205f696d70206973206e6f7420616c697665000000000000000060448201526064016102b7565b60005b82811015610ecc57816001600160a01b031660036000868685818110610d5357610d53611a50565b9050602002016020810190610d68919061180e565b6001600160e01b03191681526020810191909152604001600020546001600160a01b031603610dd95760405162461bcd60e51b815260206004820152601d60248201527f4c69717569646974795661756c7450726f78793a2073616d6520696d7000000060448201526064016102b7565b8160036000868685818110610df057610df0611a50565b9050602002016020810190610e05919061180e565b6001600160e01b03191681526020810191909152604001600020805473ffffffffffffffffffffffffffffffffffffffff19166001600160a01b039283161790558216848483818110610e5a57610e5a611a50565b9050602002016020810190610e6f919061180e565b7bffffffffffffffffffffffffffffffffffffffffffffffffffffffff19167f14ebc1c32aa68f4d766e89f3e546cee249f7df25183fc10ab1568d91c2ce9b7b60405160405180910390a380610ec481611a7c565b915050610d2b565b50505050565b610edb336109db565b610f205760405162461bcd60e51b81526020600482015260226024820152600080516020611bbb83398151915260448201526134b760f11b60648201526084016102b7565b610ac88282611578565b610f33336109db565b610f785760405162461bcd60e51b81526020600482015260226024820152600080516020611bbb83398151915260448201526134b760f11b60648201526084016102b7565b6109d87fdf8b4c520ffe197c5343c6f5aec59570151ef9a492f2c624fd45ddde6135ec4282610a1b565b610fab336109db565b610ff05760405162461bcd60e51b81526020600482015260226024820152600080516020611bbb83398151915260448201526134b760f11b60648201526084016102b7565b6001600160a01b0381166110465760405162461bcd60e51b815260206004820152601860248201527f41636365737369626c653a207a65726f2061646472657373000000000000000060448201526064016102b7565b6001600160a01b038116330361109e5760405162461bcd60e51b815260206004820152601660248201527f41636365737369626c653a2073616d652061646d696e0000000000000000000060448201526064016102b7565b6110c87fdf8b4c520ffe197c5343c6f5aec59570151ef9a492f2c624fd45ddde6135ec4282610a1b565b6109d87fdf8b4c520ffe197c5343c6f5aec59570151ef9a492f2c624fd45ddde6135ec4233610a40565b6110fb336109db565b6111405760405162461bcd60e51b81526020600482015260226024820152600080516020611bbb83398151915260448201526134b760f11b60648201526084016102b7565b6000805460ff1916911515919091179055565b61115c336109db565b6111a15760405162461bcd60e51b81526020600482015260226024820152600080516020611bbb83398151915260448201526134b760f11b60648201526084016102b7565b6109248383836114e0565b600f602052600090815260409020805460018201546002830154600384015460048501805494956001600160a01b039485169593851694909216926111f090611a95565b80601f016020809104026020016040519081016040528092919081815260200182805461121c90611a95565b80156112695780601f1061123e57610100808354040283529160200191611269565b820191906000526020600020905b81548152906001019060200180831161124c57829003601f168201915b5050505050905085565b6000818152600160205260408120546001600160a01b031661095a565b6001600160e01b031981166000908152600360205260408120546001600160a01b03166112f05750506000805260016020527fa6eef7e35abe7026729641147f7915573c7e97b47efa546f5f6e3230263bcb49546001600160a01b031690565b6001600160e01b031982166000908152600360209081526040808320546001600160a01b03168352600290915290205460ff161561134e57506001600160e01b0319166000908152600360205260409020546001600160a01b031690565b50506000805260016020527fa6eef7e35abe7026729641147f7915573c7e97b47efa546f5f6e3230263bcb49546001600160a01b031690565b919050565b6000828152600460205260409020600101546113a7816113b1565b610924838361145d565b6109d881336115d7565b60008281526004602090815260408083206001600160a01b038516845290915290205460ff16610ac85760008281526004602090815260408083206001600160a01b03851684529091529020805460ff191660011790556114193390565b6001600160a01b0316816001600160a01b0316837f2f8788117e7eff1d82e926ec794901d17c78024a50270940304540a733656f0d60405160405180910390a45050565b60008281526004602090815260408083206001600160a01b038516845290915290205460ff1615610ac85760008281526004602090815260408083206001600160a01b0385168085529252808320805460ff1916905551339285917ff6391f5c32d9c69d2a47ea670b442974b53935d1edc7fd64eb21e047a839171b9190a45050565b6001600160a01b0383163b6115375760405162461bcd60e51b815260206004820152601b60248201527f50726f78793a206e6f7420636f6e74726163742061646472657373000000000060448201526064016102b7565b8015611572576000828152600160205260409020805473ffffffffffffffffffffffffffffffffffffffff19166001600160a01b0385161790555b61092483825b6001600160a01b038216600081815260026020908152604091829020805460ff191685151590811790915591519182527f72558d9bfba4210f9ef095c782589484151f6d90f7a81bb3cb9b33efc695d324910160405180910390a25050565b60008281526004602090815260408083206001600160a01b038516845290915290205460ff16610ac85761160a8161164c565b61161583602061165e565b604051602001611626929190611acf565b60408051601f198184030181529082905262461bcd60e51b82526102b791600401611b50565b606061095a6001600160a01b03831660145b6060600061166d836002611b63565b611678906002611b7a565b67ffffffffffffffff81111561169057611690611b8d565b6040519080825280601f01601f1916602001820160405280156116ba576020820181803683370190505b509050600360fc1b816000815181106116d5576116d5611a50565b60200101906001600160f81b031916908160001a905350600f60fb1b8160018151811061170457611704611a50565b60200101906001600160f81b031916908160001a9053506000611728846002611b63565b611733906001611b7a565b90505b60018111156117b8577f303132333435363738396162636465660000000000000000000000000000000085600f166010811061177457611774611a50565b1a60f81b82828151811061178a5761178a611a50565b60200101906001600160f81b031916908160001a90535060049490941c936117b181611ba3565b9050611736565b5083156118075760405162461bcd60e51b815260206004820181905260248201527f537472696e67733a20686578206c656e67746820696e73756666696369656e7460448201526064016102b7565b9392505050565b60006020828403121561182057600080fd5b81356001600160e01b03198116811461180757600080fd5b80356001600160a01b038116811461138757600080fd5b60006020828403121561186157600080fd5b61180782611838565b60006020828403121561187c57600080fd5b5035919050565b6000806040838503121561189657600080fd5b823591506118a660208401611838565b90509250929050565b6000806000604084860312156118c457600080fd5b833567ffffffffffffffff808211156118dc57600080fd5b818601915086601f8301126118f057600080fd5b8135818111156118ff57600080fd5b8760208260051b850101111561191457600080fd5b60209283019550935061192a9186019050611838565b90509250925092565b8035801515811461138757600080fd5b6000806040838503121561195657600080fd5b61195f83611838565b91506118a660208401611933565b60006020828403121561197f57600080fd5b61180782611933565b60008060006060848603121561199d57600080fd5b6119a684611838565b92506020840135915061192a60408501611933565b60005b838110156119d65781810151838201526020016119be565b50506000910152565b600081518084526119f78160208601602086016119bb565b601f01601f19169290920160200192915050565b85815260006001600160a01b038087166020840152808616604084015280851660608401525060a06080830152611a4560a08301846119df565b979650505050505050565b634e487b7160e01b600052603260045260246000fd5b634e487b7160e01b600052601160045260246000fd5b600060018201611a8e57611a8e611a66565b5060010190565b600181811c90821680611aa957607f821691505b602082108103611ac957634e487b7160e01b600052602260045260246000fd5b50919050565b7f416363657373436f6e74726f6c3a206163636f756e7420000000000000000000815260008351611b078160178501602088016119bb565b7f206973206d697373696e6720726f6c65200000000000000000000000000000006017918401918201528351611b448160288401602088016119bb565b01602801949350505050565b60208152600061180760208301846119df565b808202811582820484141761095a5761095a611a66565b8082018082111561095a5761095a611a66565b634e487b7160e01b600052604160045260246000fd5b600081611bb257611bb2611a66565b50600019019056fe41636365737369626c653a2043616c6c6572206973206e6f7420616e2061646da164736f6c6343000812000adf8b4c520ffe197c5343c6f5aec59570151ef9a492f2c624fd45ddde6135ec42",
  "linkReferences": {},
  "deployedLinkReferences": {}
}