{
  "_format": "hh-sol-artifact-1",
  "contractName": "mockL2StandardBridge",
  "sourceName": "contracts/L2/mockL2StandardBridge.sol",
  "abi": [
    {
      "inputs": [
        {
          "internalType": "address",
          "name": "_l2Token",
          "type": "address"
        },
        {
          "internalType": "address",
          "name": "_to",
          "type": "address"
        },
        {
          "internalType": "uint256",
          "name": "_amount",
          "type": "uint256"
        },
        {
          "internalType": "uint32",
          "name": "_l1Gas",
          "type": "uint32"
        },
        {
          "internalType": "bytes",
          "name": "_data",
          "type": "bytes"
        }
      ],
      "name": "withdrawTo",
      "outputs": [],
      "stateMutability": "nonpayable",
      "type": "function"
    }
  ],
  "bytecode": "0x608060405234801561001057600080fd5b506102d0806100206000396000f3fe608060405234801561001057600080fd5b506004361061002b5760003560e01c8063a3a7954814610030575b600080fd5b61004361003e3660046101b3565b610045565b005b61005a6001600160a01b038716338787610062565b505050505050565b604080516001600160a01b0385811660248301528481166044830152606480830185905283518084039091018152608490920183526020820180517bffffffffffffffffffffffffffffffffffffffffffffffffffffffff166323b872dd60e01b17905291516000928392908816916100db919061026b565b6000604051808303816000865af19150503d8060008114610118576040519150601f19603f3d011682016040523d82523d6000602084013e61011d565b606091505b5091509150818015610147575080511580610147575080806020019051810190610147919061029a565b61005a5760405162461bcd60e51b815260206004820152601460248201527f5452414e534645525f46524f4d5f4641494c4544000000000000000000000000604482015260640160405180910390fd5b80356001600160a01b03811681146101ae57600080fd5b919050565b60008060008060008060a087890312156101cc57600080fd5b6101d587610197565b95506101e360208801610197565b945060408701359350606087013563ffffffff8116811461020357600080fd5b9250608087013567ffffffffffffffff8082111561022057600080fd5b818901915089601f83011261023457600080fd5b81358181111561024357600080fd5b8a602082850101111561025557600080fd5b6020830194508093505050509295509295509295565b6000825160005b8181101561028c5760208186018101518583015201610272565b506000920191825250919050565b6000602082840312156102ac57600080fd5b815180151581146102bc57600080fd5b939250505056fea164736f6c6343000812000a",
  "linkReferences": {},
  "deployedLinkReferences": {}
}