{
  "_format": "hh-sol-artifact-1",
  "contractName": "L1ERC20D_TokenFactory",
  "sourceName": "contracts/L1/factory/L1ERC20D_TokenFactory.sol",
  "abi": [
    {
      "anonymous": false,
      "inputs": [
        {
          "indexed": false,
          "internalType": "address",
          "name": "contractAddress",
          "type": "address"
        },
        {
          "indexed": false,
          "internalType": "string",
          "name": "name",
          "type": "string"
        },
        {
          "indexed": false,
          "internalType": "string",
          "name": "symbol",
          "type": "string"
        },
        {
          "indexed": false,
          "internalType": "uint256",
          "name": "initialSupply",
          "type": "uint256"
        },
        {
          "indexed": false,
          "internalType": "address",
          "name": "owner",
          "type": "address"
        }
      ],
      "name": "CreatedERC20D",
      "type": "event"
    },
    {
      "inputs": [
        {
          "internalType": "string",
          "name": "name",
          "type": "string"
        },
        {
          "internalType": "string",
          "name": "symbol",
          "type": "string"
        },
        {
          "internalType": "uint256",
          "name": "initialSupply",
          "type": "uint256"
        },
        {
          "internalType": "address",
          "name": "owner",
          "type": "address"
        }
      ],
      "name": "create",
      "outputs": [
        {
          "internalType": "address",
          "name": "",
          "type": "address"
        }
      ],
      "stateMutability": "nonpayable",
      "type": "function"
    },
    {
      "inputs": [
        {
          "internalType": "uint256",
          "name": "",
          "type": "uint256"
        }
      ],
      "name": "createdContracts",
      "outputs": [
        {
          "internalType": "address",
          "name": "contractAddress",
          "type": "address"
        },
        {
          "internalType": "string",
          "name": "name",
          "type": "string"
        },
        {
          "internalType": "string",
          "name": "symbol",
          "type": "string"
        }
      ],
      "stateMutability": "view",
      "type": "function"
    },
    {
      "inputs": [
        {
          "internalType": "uint256",
          "name": "_index",
          "type": "uint256"
        }
      ],
      "name": "getContracts",
      "outputs": [
        {
          "internalType": "address",
          "name": "contractAddress",
          "type": "address"
        },
        {
          "internalType": "string",
          "name": "name",
          "type": "string"
        },
        {
          "internalType": "string",
          "name": "symbol",
          "type": "string"
        }
      ],
      "stateMutability": "view",
      "type": "function"
    },
    {
      "inputs": [],
      "name": "lastestCreated",
      "outputs": [
        {
          "internalType": "address",
          "name": "contractAddress",
          "type": "address"
        },
        {
          "internalType": "string",
          "name": "name",
          "type": "string"
        },
        {
          "internalType": "string",
          "name": "symbol",
          "type": "string"
        }
      ],
      "stateMutability": "view",
      "type": "function"
    },
    {
      "inputs": [],
      "name": "totalCreatedContracts",
      "outputs": [
        {
          "internalType": "uint256",
          "name": "",
          "type": "uint256"
        }
      ],
      "stateMutability": "view",
      "type": "function"
    }
  ],
  "bytecode": "0x608060405234801561001057600080fd5b50600080556134c9806100246000396000f3fe60806040523480156200001157600080fd5b50600436106200006f5760003560e01c8063439e23fd1162000056578063439e23fd14620000af5780634692ed6714620000c6578063d052618714620000f657600080fd5b8063088113971462000074578063338bad5f14620000a5575b600080fd5b6200008b62000085366004620008c9565b6200010f565b6040516200009c939291906200092b565b60405180910390f35b6200008b6200025d565b6200008b620000c0366004620008c9565b62000441565b620000dd620000d7366004620009b9565b620005d7565b6040516001600160a01b0390911681526020016200009c565b6200010060005481565b6040519081526020016200009c565b6001602081905260009182526040909120805491810180546001600160a01b03909316926200013e9062000a59565b80601f01602080910402602001604051908101604052809291908181526020018280546200016c9062000a59565b8015620001bd5780601f106200019157610100808354040283529160200191620001bd565b820191906000526020600020905b8154815290600101906020018083116200019f57829003601f168201915b505050505090806002018054620001d49062000a59565b80601f0160208091040260200160405190810160405280929190818152602001828054620002029062000a59565b8015620002535780601f10620002275761010080835404028352916020019162000253565b820191906000526020600020905b8154815290600101906020018083116200023557829003601f168201915b5050505050905083565b60006060806000805411156200041d5760016000600160005462000282919062000aab565b8152602081019190915260400160009081205481546001600160a01b0390911691600191620002b390839062000aab565b8152602001908152602001600020600101600160006001600054620002d9919062000aab565b8152602001908152602001600020600201818054620002f89062000a59565b80601f0160208091040260200160405190810160405280929190818152602001828054620003269062000a59565b8015620003775780601f106200034b5761010080835404028352916020019162000377565b820191906000526020600020905b8154815290600101906020018083116200035957829003601f168201915b505050505091508080546200038c9062000a59565b80601f0160208091040260200160405190810160405280929190818152602001828054620003ba9062000a59565b80156200040b5780601f10620003df576101008083540402835291602001916200040b565b820191906000526020600020905b815481529060010190602001808311620003ed57829003601f168201915b50505050509050925092509250909192565b50506040805160208082018352600080835283519182019093528281529193909250565b6000606080600054841015620005ae576000848152600160208190526040909120805491810180546001600160a01b03909316929091600201908290620004889062000a59565b80601f0160208091040260200160405190810160405280929190818152602001828054620004b69062000a59565b8015620005075780601f10620004db5761010080835404028352916020019162000507565b820191906000526020600020905b815481529060010190602001808311620004e957829003601f168201915b505050505091508080546200051c9062000a59565b80601f01602080910402602001604051908101604052809291908181526020018280546200054a9062000a59565b80156200059b5780601f106200056f576101008083540402835291602001916200059b565b820191906000526020600020905b8154815290600101906020018083116200057d57829003601f168201915b50505050509050925092509250620005d0565b5050604080516020808201835260008083528351918201909352828152919250905b9193909250565b60006001600160a01b038216620006355760405162461bcd60e51b815260206004820152601560248201527f6f776e65722061646472657373206973207a65726f000000000000000000000060448201526064015b60405180910390fd5b85620006845760405162461bcd60e51b815260206004820152600d60248201527f6e616d6520697320656d7074790000000000000000000000000000000000000060448201526064016200062c565b83620006d35760405162461bcd60e51b815260206004820152600f60248201527f73796d626f6c20697320656d707479000000000000000000000000000000000060448201526064016200062c565b6000878787878787604051620006e990620008bb565b620006fa9695949392919062000af0565b604051809103906000f08015801562000717573d6000803e3d6000fd5b5090506001600160a01b0381166200075f5760405162461bcd60e51b815260206004820152600a602482015269746f6b656e207a65726f60b01b60448201526064016200062c565b6040518060600160405280826001600160a01b0316815260200189898080601f016020809104026020016040519081016040528093929190818152602001838380828437600092019190915250505090825250604080516020601f8a01819004810282018101909252888152918101919089908990819084018382808284376000920182905250939094525050805481526001602081815260409092208451815473ffffffffffffffffffffffffffffffffffffffff19166001600160a01b03909116178155918401519192508201906200083b908262000ba7565b506040820151600282019062000852908262000ba7565b505060008054915080620008668362000c74565b91905055507f693c5e211e40e270adb96b6909b8774cddefa228acfe162c15212244dcd6093581898989898989604051620008a8979695949392919062000c90565b60405180910390a1979650505050505050565b6127d48062000ce983390190565b600060208284031215620008dc57600080fd5b5035919050565b6000815180845260005b818110156200090b57602081850181015186830182015201620008ed565b506000602082860101526020601f19601f83011685010191505092915050565b6001600160a01b03841681526060602082015260006200094f6060830185620008e3565b8281036040840152620009638185620008e3565b9695505050505050565b60008083601f8401126200098057600080fd5b50813567ffffffffffffffff8111156200099957600080fd5b602083019150836020828501011115620009b257600080fd5b9250929050565b60008060008060008060808789031215620009d357600080fd5b863567ffffffffffffffff80821115620009ec57600080fd5b620009fa8a838b016200096d565b9098509650602089013591508082111562000a1457600080fd5b5062000a2389828a016200096d565b9095509350506040870135915060608701356001600160a01b038116811462000a4b57600080fd5b809150509295509295509295565b600181811c9082168062000a6e57607f821691505b60208210810362000a8f57634e487b7160e01b600052602260045260246000fd5b50919050565b634e487b7160e01b600052601160045260246000fd5b8181038181111562000ac15762000ac162000a95565b92915050565b81835281816020850137506000828201602090810191909152601f909101601f19169091010190565b60808152600062000b0660808301888a62000ac7565b828103602084015262000b1b81878962000ac7565b9150508360408301526001600160a01b0383166060830152979650505050505050565b634e487b7160e01b600052604160045260246000fd5b601f82111562000ba257600081815260208120601f850160051c8101602086101562000b7d5750805b601f850160051c820191505b8181101562000b9e5782815560010162000b89565b5050505b505050565b815167ffffffffffffffff81111562000bc45762000bc462000b3e565b62000bdc8162000bd5845462000a59565b8462000b54565b602080601f83116001811462000c14576000841562000bfb5750858301515b600019600386901b1c1916600185901b17855562000b9e565b600085815260208120601f198616915b8281101562000c455788860151825594840194600190910190840162000c24565b508582101562000c645787850151600019600388901b60f8161c191681555b5050505050600190811b01905550565b60006001820162000c895762000c8962000a95565b5060010190565b60006001600160a01b03808a16835260a0602084015262000cb660a08401898b62000ac7565b838103604085015262000ccb81888a62000ac7565b60608501969096525092909216608090910152509594505050505056fe60806040523480156200001157600080fd5b50604051620027d4380380620027d48339810160408190526200003491620005c8565b83836004620000448382620006eb565b506005620000538282620006eb565b506200006a9150636578737160e01b90506200011d565b6200007c6301ffc9a760e01b6200011d565b81156200008f576200008f8183620001a2565b6200009c60008062000276565b620000a9600082620002c1565b620000d57f9f2df0fed2c77648de5860a4cc508cd0818c85b8b8a1ab4ceeef8d981c8956a682620002c1565b620001017f5fdbd35e8da83ee755d5e62a539e5ed7f47126abede0b8b10f9ea43dc6eed07f82620002c1565b62000113634fc3585960e01b6200011d565b505050506200080f565b6001600160e01b031980821690036200017d5760405162461bcd60e51b815260206004820152601c60248201527f4552433136353a20696e76616c696420696e746572666163652069640000000060448201526064015b60405180910390fd5b6001600160e01b0319166000908152600660205260409020805460ff19166001179055565b6001600160a01b038216620001fa5760405162461bcd60e51b815260206004820152601f60248201527f45524332303a206d696e7420746f20746865207a65726f206164647265737300604482015260640162000174565b6200020860008383620002cd565b80600360008282546200021c9190620007cd565b90915550506001600160a01b0382166000818152600160209081526040808320805486019055518481527fddf252ad1be2c89b69c2b068fc378daa952ba7f163c4a11628f55a4df523b3ef910160405180910390a35b5050565b600082815260208190526040808220600101805490849055905190918391839186917fbd79b86ffe0ab8e8776151514217cd7cacd52c909f66475c3af44e129f0b00ff9190a4505050565b6200027282826200033e565b620002e58383836200030960201b6200067a1760201c565b6001600160a01b0383166200030e57620002ff82620003c6565b620003096200040b565b505050565b6001600160a01b0382166200032857620002ff83620003c6565b6200033383620003c6565b6200030982620003c6565b6200034a82826200041c565b62000272576000828152602081815260408083206001600160a01b03851684529091529020805460ff19166001179055620003823390565b6001600160a01b0316816001600160a01b0316837f2f8788117e7eff1d82e926ec794901d17c78024a50270940304540a733656f0d60405160405180910390a45050565b62000408620003e9826001600160a01b0316600090815260076020526040902090565b6001600160a01b03831660009081526001602052604090205462000447565b50565b6200041a600860035462000447565b565b6000828152602081815260408083206001600160a01b038516845290915290205460ff165b92915050565b60006200045362000496565b9050806200046184620004b4565b101562000309578254600180820185556000858152602080822090930193909355938401805494850181558252902090910155565b6000620004af600a620004ff60201b62000af01760201c565b905090565b80546000908103620004c857506000919050565b81548290620004da90600190620007e3565b81548110620004ed57620004ed620007f9565b90600052602060002001549050919050565b5490565b634e487b7160e01b600052604160045260246000fd5b600082601f8301126200052b57600080fd5b81516001600160401b038082111562000548576200054862000503565b604051601f8301601f19908116603f0116810190828211818310171562000573576200057362000503565b816040528381526020925086838588010111156200059057600080fd5b600091505b83821015620005b4578582018301518183018401529082019062000595565b600093810190920192909252949350505050565b60008060008060808587031215620005df57600080fd5b84516001600160401b0380821115620005f757600080fd5b620006058883890162000519565b955060208701519150808211156200061c57600080fd5b506200062b8782880162000519565b60408701516060880151919550935090506001600160a01b03811681146200065257600080fd5b939692955090935050565b600181811c908216806200067257607f821691505b6020821081036200069357634e487b7160e01b600052602260045260246000fd5b50919050565b601f8211156200030957600081815260208120601f850160051c81016020861015620006c25750805b601f850160051c820191505b81811015620006e357828155600101620006ce565b505050505050565b81516001600160401b0381111562000707576200070762000503565b6200071f816200071884546200065d565b8462000699565b602080601f8311600181146200075757600084156200073e5750858301515b600019600386901b1c1916600185901b178555620006e3565b600085815260208120601f198616915b82811015620007885788860151825594840194600190910190840162000767565b5085821015620007a75787850151600019600388901b60f8161c191681555b5050505050600190811b01905550565b634e487b7160e01b600052601160045260246000fd5b80820180821115620004415762000441620007b7565b81810381811115620004415762000441620007b7565b634e487b7160e01b600052603260045260246000fd5b611fb5806200081f6000396000f3fe608060405234801561001057600080fd5b50600436106102265760003560e01c806379cc67901161012a578063a457c2d7116100bd578063d53913931161008c578063dd62ed3e11610071578063dd62ed3e146104e6578063eb7955491461051f578063ef1944351461053257600080fd5b8063d5391393146104ac578063d547741f146104d357600080fd5b8063a457c2d714610460578063a9059cbb14610473578063b88d4fde14610486578063cae9ca511461049957600080fd5b8063970875ce116100f9578063970875ce146104355780639711715a1461043d578063981b24d014610445578063a217fddf1461045857600080fd5b806379cc6790146103bc57806391d14854146103cf5780639321478c1461040657806395d89b411461042d57600080fd5b806336568abe116101bd57806342842e0e1161018c5780634ee2cd7e116101715780634ee2cd7e146103595780637028e2cd1461036c57806370a082311461039357600080fd5b806342842e0e1461033357806342966c681461034657600080fd5b806336568abe146102e757806339509351146102fa57806340c10f191461030d578063423f6cef1461032057600080fd5b806323b872dd116101f957806323b872dd1461028d578063248a9ca3146102a05780632f2ff15d146102c3578063313ce567146102d857600080fd5b806301ffc9a71461022b57806306fdde0314610253578063095ea7b31461026857806318160ddd1461027b575b600080fd5b61023e610239366004611aed565b610555565b60405190151581526020015b60405180910390f35b61025b610587565b60405161024a9190611b5a565b61023e610276366004611b84565b610619565b6003545b60405190815260200161024a565b61023e61029b366004611bae565b610631565b61027f6102ae366004611bea565b60009081526020819052604090206001015490565b6102d66102d1366004611c03565b610655565b005b6040516012815260200161024a565b6102d66102f5366004611c03565b61067f565b61023e610308366004611b84565b610710565b61023e61031b366004611b84565b61074f565b6102d661032e366004611b84565b610785565b6102d6610341366004611bae565b61079f565b6102d6610354366004611bea565b6107ba565b61027f610367366004611b84565b6107c7565b61027f7f5fdbd35e8da83ee755d5e62a539e5ed7f47126abede0b8b10f9ea43dc6eed07f81565b61027f6103a1366004611c2f565b6001600160a01b031660009081526001602052604090205490565b6102d66103ca366004611b84565b610808565b61023e6103dd366004611c03565b6000918252602082815260408084206001600160a01b0393909316845291905290205460ff1690565b610414636578737160e01b81565b6040516001600160e01b0319909116815260200161024a565b61025b610889565b61027f610898565b61027f6108a8565b61027f610453366004611bea565b6108e2565b61027f600081565b61023e61046e366004611b84565b61090b565b61023e610481366004611b84565b61099d565b6102d6610494366004611ced565b6109ab565b61023e6104a7366004611d55565b610a2e565b61027f7f9f2df0fed2c77648de5860a4cc508cd0818c85b8b8a1ab4ceeef8d981c8956a681565b6102d66104e1366004611c03565b610a4f565b61027f6104f4366004611dac565b6001600160a01b03918216600090815260026020908152604080832093909416825291909152205490565b6102d661052d366004611d55565b610a74565b61023e610540366004611aed565b60066020526000908152604090205460ff1681565b6001600160e01b0319811660009081526006602052604081205460ff1680610581575061058182610af4565b92915050565b60606004805461059690611dd6565b80601f01602080910402602001604051908101604052809291908181526020018280546105c290611dd6565b801561060f5780601f106105e45761010080835404028352916020019161060f565b820191906000526020600020905b8154815290600101906020018083116105f257829003601f168201915b5050505050905090565b600033610627818585610b29565b5060019392505050565b60003361063f858285610c4d565b61064a858585610cd9565b506001949350505050565b60008281526020819052604090206001015461067081610e8f565b61067a8383610e99565b505050565b6001600160a01b03811633146107025760405162461bcd60e51b815260206004820152602f60248201527f416363657373436f6e74726f6c3a2063616e206f6e6c792072656e6f756e636560448201527f20726f6c657320666f722073656c66000000000000000000000000000000000060648201526084015b60405180910390fd5b61070c8282610f37565b5050565b3360008181526002602090815260408083206001600160a01b0387168452909152812054909190610627908290869061074a908790611e26565b610b29565b60007f9f2df0fed2c77648de5860a4cc508cd0818c85b8b8a1ab4ceeef8d981c8956a661077b81610e8f565b6106278484610fb6565b61070c828260405180602001604052806000815250610a74565b61067a838383604051806020016040528060008152506109ab565b6107c43382611083565b50565b60008060006107d685856111c3565b91509150816107fd576001600160a01b0385166000908152600160205260409020546107ff565b805b95945050505050565b600061081483336104f4565b9050818110156108725760405162461bcd60e51b8152602060048201526024808201527f45524332303a206275726e20616d6f756e74206578636565647320616c6c6f77604482015263616e636560e01b60648201526084016106f9565b61087f8333848403610b29565b61067a8383611083565b60606005805461059690611dd6565b60006108a3600a5490565b905090565b60007f5fdbd35e8da83ee755d5e62a539e5ed7f47126abede0b8b10f9ea43dc6eed07f6108d481610e8f565b6108dc6111fb565b91505090565b60008060006108f084611255565b915091508161090157600354610903565b805b949350505050565b3360008181526002602090815260408083206001600160a01b0387168452909152812054909190838110156109905760405162461bcd60e51b815260206004820152602560248201527f45524332303a2064656372656173656420616c6c6f77616e63652062656c6f77604482015264207a65726f60d81b60648201526084016106f9565b61064a8286868403610b29565b600033610627818585610cd9565b6109b6848484610631565b506109c384848484611272565b610a285760405162461bcd60e51b815260206004820152603060248201527f45524332303a207472616e7366657220746f206e6f6e2045524332305265636560448201526f34bb32b91034b6b83632b6b2b73a32b960811b60648201526084016106f9565b50505050565b6000610a3a8484610619565b610a4357600080fd5b61062733858585611321565b600082815260208190526040902060010154610a6a81610e8f565b61067a8383610f37565b610a7e838361099d565b50610a8b33848484611272565b61067a5760405162461bcd60e51b815260206004820152603060248201527f45524332303a207472616e7366657220746f206e6f6e2045524332305265636560448201526f34bb32b91034b6b83632b6b2b73a32b960811b60648201526084016106f9565b5490565b60006001600160e01b03198216637965db0b60e01b148061058157506301ffc9a760e01b6001600160e01b0319831614610581565b6001600160a01b038316610b8b5760405162461bcd60e51b8152602060048201526024808201527f45524332303a20617070726f76652066726f6d20746865207a65726f206164646044820152637265737360e01b60648201526084016106f9565b6001600160a01b038216610bec5760405162461bcd60e51b815260206004820152602260248201527f45524332303a20617070726f766520746f20746865207a65726f206164647265604482015261737360f01b60648201526084016106f9565b6001600160a01b0383811660008181526002602090815260408083209487168084529482529182902085905590518481527f8c5be1e5ebec7d5bd14f71427d1e84f3dd0314c0f7b2291e5b200ac8c7c3b925910160405180910390a3505050565b6001600160a01b038381166000908152600260209081526040808320938616835292905220546000198114610a285781811015610ccc5760405162461bcd60e51b815260206004820152601d60248201527f45524332303a20696e73756666696369656e7420616c6c6f77616e636500000060448201526064016106f9565b610a288484848403610b29565b6001600160a01b038316610d3d5760405162461bcd60e51b815260206004820152602560248201527f45524332303a207472616e736665722066726f6d20746865207a65726f206164604482015264647265737360d81b60648201526084016106f9565b6001600160a01b038216610d9f5760405162461bcd60e51b815260206004820152602360248201527f45524332303a207472616e7366657220746f20746865207a65726f206164647260448201526265737360e81b60648201526084016106f9565b610daa8383836114de565b6001600160a01b03831660009081526001602052604090205481811015610e225760405162461bcd60e51b815260206004820152602660248201527f45524332303a207472616e7366657220616d6f756e7420657863656564732062604482015265616c616e636560d01b60648201526084016106f9565b6001600160a01b0380851660008181526001602052604080822086860390559286168082529083902080548601905591517fddf252ad1be2c89b69c2b068fc378daa952ba7f163c4a11628f55a4df523b3ef90610e829086815260200190565b60405180910390a3610a28565b6107c48133611526565b6000828152602081815260408083206001600160a01b038516845290915290205460ff1661070c576000828152602081815260408083206001600160a01b03851684529091529020805460ff19166001179055610ef33390565b6001600160a01b0316816001600160a01b0316837f2f8788117e7eff1d82e926ec794901d17c78024a50270940304540a733656f0d60405160405180910390a45050565b6000828152602081815260408083206001600160a01b038516845290915290205460ff161561070c576000828152602081815260408083206001600160a01b0385168085529252808320805460ff1916905551339285917ff6391f5c32d9c69d2a47ea670b442974b53935d1edc7fd64eb21e047a839171b9190a45050565b6001600160a01b03821661100c5760405162461bcd60e51b815260206004820152601f60248201527f45524332303a206d696e7420746f20746865207a65726f20616464726573730060448201526064016106f9565b611018600083836114de565b806003600082825461102a9190611e26565b90915550506001600160a01b0382166000818152600160209081526040808320805486019055518481527fddf252ad1be2c89b69c2b068fc378daa952ba7f163c4a11628f55a4df523b3ef910160405180910390a35050565b6001600160a01b0382166110e35760405162461bcd60e51b815260206004820152602160248201527f45524332303a206275726e2066726f6d20746865207a65726f206164647265736044820152607360f81b60648201526084016106f9565b6110ef826000836114de565b6001600160a01b038216600090815260016020526040902054818110156111635760405162461bcd60e51b815260206004820152602260248201527f45524332303a206275726e20616d6f756e7420657863656564732062616c616e604482015261636560f01b60648201526084016106f9565b6001600160a01b03831660008181526001602090815260408083208686039055600380548790039055518581529192917fddf252ad1be2c89b69c2b068fc378daa952ba7f163c4a11628f55a4df523b3ef910160405180910390a3505050565b6001600160a01b03821660009081526007602052604081208190819081906111ec908690611599565b909450925050505b9250929050565b600061120b600a80546001019055565b6000611215610898565b90507f8030e83b04d87bef53480e26263266d6ca66863aa8506aca6f2559d18aa1cb678160405161124891815260200190565b60405180910390a1919050565b600080600080611266856008611599565b90969095509350505050565b60006001600160a01b0384163b61128b57506001610903565b604051634fc3585960e01b81526000906001600160a01b03861690634fc35859906112c09033908a9089908990600401611e39565b6020604051808303816000875af11580156112df573d6000803e3d6000fd5b505050506040513d601f19601f820116820180604052508101906113039190611e75565b6001600160e01b031916634fc3585960e01b14915050949350505050565b632139e50b60e11b6113338482611693565b6113a55760405162461bcd60e51b815260206004820152603160248201527f617070726f7665416e6443616c6c3a207370656e64657220646f65736e27742060448201527f737570706f7274206f6e417070726f766500000000000000000000000000000060648201526084016106f9565b600080856001600160a01b031683888888886040516024016113ca9493929190611e39565b60408051601f198184030181529181526020820180516001600160e01b03166001600160e01b03199094169390931790925290516114089190611e92565b6000604051808303816000865af19150503d8060008114611445576040519150601f19603f3d011682016040523d82523d6000602084013e61144a565b606091505b509150915081819061146f5760405162461bcd60e51b81526004016106f99190611b5a565b5060208101519150816114d55760405162461bcd60e51b815260206004820152602860248201527f617070726f7665416e6443616c6c3a206661696c656420746f2063616c6c206f6044820152676e417070726f766560c01b60648201526084016106f9565b50505050505050565b6001600160a01b0383166114fd576114f5826116b6565b61067a6116f5565b6001600160a01b038216611514576114f5836116b6565b61151d836116b6565b61067a826116b6565b6000828152602081815260408083206001600160a01b038516845290915290205460ff1661070c5761155781611704565b611562836020611716565b604051602001611573929190611eae565b60408051601f198184030181529082905262461bcd60e51b82526106f991600401611b5a565b600080600084116115ec5760405162461bcd60e51b815260206004820152601660248201527f4552433230536e617073686f743a20696420697320300000000000000000000060448201526064016106f9565b6115f4610898565b8411156116435760405162461bcd60e51b815260206004820152601d60248201527f4552433230536e617073686f743a206e6f6e6578697374656e7420696400000060448201526064016106f9565b600061164f84866118bf565b845490915081036116675760008092509250506111f4565b600184600101828154811061167e5761167e611f2f565b906000526020600020015492509250506111f4565b600061169e8361196c565b80156116af57506116af838361199f565b9392505050565b6107c46116d7826001600160a01b0316600090815260076020526040902090565b6001600160a01b038316600090815260016020526040902054611a28565b6117026008600354611a28565b565b60606105816001600160a01b03831660145b60606000611725836002611f45565b611730906002611e26565b67ffffffffffffffff81111561174857611748611c4a565b6040519080825280601f01601f191660200182016040528015611772576020820181803683370190505b509050600360fc1b8160008151811061178d5761178d611f2f565b60200101906001600160f81b031916908160001a905350600f60fb1b816001815181106117bc576117bc611f2f565b60200101906001600160f81b031916908160001a90535060006117e0846002611f45565b6117eb906001611e26565b90505b6001811115611870577f303132333435363738396162636465660000000000000000000000000000000085600f166010811061182c5761182c611f2f565b1a60f81b82828151811061184257611842611f2f565b60200101906001600160f81b031916908160001a90535060049490941c9361186981611f5c565b90506117ee565b5083156116af5760405162461bcd60e51b815260206004820181905260248201527f537472696e67733a20686578206c656e67746820696e73756666696369656e7460448201526064016106f9565b815460009081036118d257506000610581565b82546000905b8082101561191f5760006118ec8383611a72565b6000878152602090209091508590820154111561190b57809150611919565b611916816001611e26565b92505b506118d8565b60008211801561194b5750836119488661193a600186611f73565b600091825260209091200190565b54145b156119645761195b600183611f73565b92505050610581565b509050610581565b600061197f826301ffc9a760e01b61199f565b80156105815750611998826001600160e01b031961199f565b1592915050565b604080516001600160e01b03198316602480830191909152825180830390910181526044909101909152602080820180516001600160e01b03166301ffc9a760e01b178152825160009392849283928392918391908a617530fa92503d91506000519050828015611a11575060208210155b8015611a1d5750600081115b979650505050505050565b6000611a32610898565b905080611a3e84611a8d565b101561067a578254600180820185556000858152602080822090930193909355938401805494850181558252902090910155565b6000611a816002848418611f86565b6116af90848416611e26565b80546000908103611aa057506000919050565b81548290611ab090600190611f73565b81548110611ac057611ac0611f2f565b90600052602060002001549050919050565b919050565b6001600160e01b0319811681146107c457600080fd5b600060208284031215611aff57600080fd5b81356116af81611ad7565b60005b83811015611b25578181015183820152602001611b0d565b50506000910152565b60008151808452611b46816020860160208601611b0a565b601f01601f19169290920160200192915050565b6020815260006116af6020830184611b2e565b80356001600160a01b0381168114611ad257600080fd5b60008060408385031215611b9757600080fd5b611ba083611b6d565b946020939093013593505050565b600080600060608486031215611bc357600080fd5b611bcc84611b6d565b9250611bda60208501611b6d565b9150604084013590509250925092565b600060208284031215611bfc57600080fd5b5035919050565b60008060408385031215611c1657600080fd5b82359150611c2660208401611b6d565b90509250929050565b600060208284031215611c4157600080fd5b6116af82611b6d565b634e487b7160e01b600052604160045260246000fd5b600082601f830112611c7157600080fd5b813567ffffffffffffffff80821115611c8c57611c8c611c4a565b604051601f8301601f19908116603f01168101908282118183101715611cb457611cb4611c4a565b81604052838152866020858801011115611ccd57600080fd5b836020870160208301376000602085830101528094505050505092915050565b60008060008060808587031215611d0357600080fd5b611d0c85611b6d565b9350611d1a60208601611b6d565b925060408501359150606085013567ffffffffffffffff811115611d3d57600080fd5b611d4987828801611c60565b91505092959194509250565b600080600060608486031215611d6a57600080fd5b611d7384611b6d565b925060208401359150604084013567ffffffffffffffff811115611d9657600080fd5b611da286828701611c60565b9150509250925092565b60008060408385031215611dbf57600080fd5b611dc883611b6d565b9150611c2660208401611b6d565b600181811c90821680611dea57607f821691505b602082108103611e0a57634e487b7160e01b600052602260045260246000fd5b50919050565b634e487b7160e01b600052601160045260246000fd5b8082018082111561058157610581611e10565b60006001600160a01b03808716835280861660208401525083604083015260806060830152611e6b6080830184611b2e565b9695505050505050565b600060208284031215611e8757600080fd5b81516116af81611ad7565b60008251611ea4818460208701611b0a565b9190910192915050565b7f416363657373436f6e74726f6c3a206163636f756e7420000000000000000000815260008351611ee6816017850160208801611b0a565b7f206973206d697373696e6720726f6c65200000000000000000000000000000006017918401918201528351611f23816028840160208801611b0a565b01602801949350505050565b634e487b7160e01b600052603260045260246000fd5b808202811582820484141761058157610581611e10565b600081611f6b57611f6b611e10565b506000190190565b8181038181111561058157610581611e10565b600082611fa357634e487b7160e01b600052601260045260246000fd5b50049056fea164736f6c6343000812000aa164736f6c6343000812000a",
  "linkReferences": {},
  "deployedLinkReferences": {}
}