{
  "_format": "hh-sol-artifact-1",
  "contractName": "L2ScheduleVaultBStorage",
  "sourceName": "contracts/L2/vaults/L2ScheduleVaultBStorage.sol",
  "abi": [
    {
      "inputs": [
        {
          "internalType": "address",
          "name": "",
          "type": "address"
        }
      ],
      "name": "vaultInfo",
      "outputs": [
        {
          "internalType": "uint256",
          "name": "totalAllocatedAmount",
          "type": "uint256"
        },
        {
          "internalType": "uint256",
          "name": "totalClaimCount",
          "type": "uint256"
        },
        {
          "internalType": "uint256",
          "name": "totalClaimedAmount",
          "type": "uint256"
        },
        {
          "internalType": "uint256",
          "name": "firstClaimAmount",
          "type": "uint256"
        },
        {
          "internalType": "uint32",
          "name": "firstClaimTime",
          "type": "uint32"
        },
        {
          "internalType": "uint32",
          "name": "secondClaimTime",
          "type": "uint32"
        },
        {
          "internalType": "uint32",
          "name": "roundInterval",
          "type": "uint32"
        },
        {
          "internalType": "uint32",
          "name": "latestClaimedRound",
          "type": "uint32"
        }
      ],
      "stateMutability": "view",
      "type": "function"
    }
  ],
  "bytecode": "0x608060405234801561001057600080fd5b50610137806100206000396000f3fe608060405234801561001057600080fd5b506004361061002b5760003560e01c80639164359a14610030575b600080fd5b6100a161003e3660046100ed565b600060208190529081526040902080546001820154600283015460038401546004909401549293919290919063ffffffff8082169164010000000081048216916801000000000000000082048116916c0100000000000000000000000090041688565b60408051988952602089019790975287870195909552606087019390935263ffffffff9182166080870152811660a086015290811660c08501521660e083015251908190036101000190f35b6000602082840312156100ff57600080fd5b813573ffffffffffffffffffffffffffffffffffffffff8116811461012357600080fd5b939250505056fea164736f6c6343000812000a",
  "linkReferences": {},
  "deployedLinkReferences": {}
}