{
  "address": "0xdd8584bf0c34581bC68F3bc62f872B3c19b8f948",
  "abi": [
    {
      "inputs": [],
      "stateMutability": "nonpayable",
      "type": "constructor"
    },
    {
      "anonymous": false,
      "inputs": [
        {
          "indexed": true,
          "internalType": "address",
          "name": "l1Token",
          "type": "address"
        },
        {
          "indexed": true,
          "internalType": "address",
          "name": "l2Token",
          "type": "address"
        },
        {
          "indexed": false,
          "internalType": "address",
          "name": "projectOwner",
          "type": "address"
        },
        {
          "indexed": false,
          "internalType": "string",
          "name": "projectName",
          "type": "string"
        }
      ],
      "name": "AddedProject",
      "type": "event"
    },
    {
      "anonymous": false,
      "inputs": [
        {
          "indexed": false,
          "internalType": "address",
          "name": "l2Token",
          "type": "address"
        },
        {
          "indexed": false,
          "internalType": "uint256",
          "name": "amount",
          "type": "uint256"
        }
      ],
      "name": "BalacneOf",
      "type": "event"
    },
    {
      "anonymous": false,
      "inputs": [
        {
          "indexed": true,
          "internalType": "bytes32",
          "name": "role",
          "type": "bytes32"
        },
        {
          "indexed": true,
          "internalType": "bytes32",
          "name": "previousAdminRole",
          "type": "bytes32"
        },
        {
          "indexed": true,
          "internalType": "bytes32",
          "name": "newAdminRole",
          "type": "bytes32"
        }
      ],
      "name": "RoleAdminChanged",
      "type": "event"
    },
    {
      "anonymous": false,
      "inputs": [
        {
          "indexed": true,
          "internalType": "bytes32",
          "name": "role",
          "type": "bytes32"
        },
        {
          "indexed": true,
          "internalType": "address",
          "name": "account",
          "type": "address"
        },
        {
          "indexed": true,
          "internalType": "address",
          "name": "sender",
          "type": "address"
        }
      ],
      "name": "RoleGranted",
      "type": "event"
    },
    {
      "anonymous": false,
      "inputs": [
        {
          "indexed": true,
          "internalType": "bytes32",
          "name": "role",
          "type": "bytes32"
        },
        {
          "indexed": true,
          "internalType": "address",
          "name": "account",
          "type": "address"
        },
        {
          "indexed": true,
          "internalType": "address",
          "name": "sender",
          "type": "address"
        }
      ],
      "name": "RoleRevoked",
      "type": "event"
    },
    {
      "inputs": [],
      "name": "ADMIN_ROLE",
      "outputs": [
        {
          "internalType": "bytes32",
          "name": "",
          "type": "bytes32"
        }
      ],
      "stateMutability": "view",
      "type": "function"
    },
    {
      "inputs": [],
      "name": "DEFAULT_ADMIN_ROLE",
      "outputs": [
        {
          "internalType": "bytes32",
          "name": "",
          "type": "bytes32"
        }
      ],
      "stateMutability": "view",
      "type": "function"
    },
    {
      "inputs": [],
      "name": "POLICY_ROLE",
      "outputs": [
        {
          "internalType": "bytes32",
          "name": "",
          "type": "bytes32"
        }
      ],
      "stateMutability": "view",
      "type": "function"
    },
    {
      "inputs": [
        {
          "internalType": "address",
          "name": "account",
          "type": "address"
        }
      ],
      "name": "addAdmin",
      "outputs": [],
      "stateMutability": "nonpayable",
      "type": "function"
    },
    {
      "inputs": [
        {
          "internalType": "address",
          "name": "projectOwner",
          "type": "address"
        },
        {
          "internalType": "address",
          "name": "l1Token",
          "type": "address"
        },
        {
          "internalType": "address",
          "name": "l2Token",
          "type": "address"
        },
        {
          "internalType": "string",
          "name": "projectName",
          "type": "string"
        }
      ],
      "name": "addProject",
      "outputs": [],
      "stateMutability": "nonpayable",
      "type": "function"
    },
    {
      "inputs": [
        {
          "internalType": "address",
          "name": "l2Token",
          "type": "address"
        }
      ],
      "name": "balanceOf",
      "outputs": [],
      "stateMutability": "nonpayable",
      "type": "function"
    },
    {
      "inputs": [
        {
          "internalType": "bytes32",
          "name": "role",
          "type": "bytes32"
        }
      ],
      "name": "getRoleAdmin",
      "outputs": [
        {
          "internalType": "bytes32",
          "name": "",
          "type": "bytes32"
        }
      ],
      "stateMutability": "view",
      "type": "function"
    },
    {
      "inputs": [
        {
          "internalType": "bytes32",
          "name": "role",
          "type": "bytes32"
        },
        {
          "internalType": "address",
          "name": "account",
          "type": "address"
        }
      ],
      "name": "grantRole",
      "outputs": [],
      "stateMutability": "nonpayable",
      "type": "function"
    },
    {
      "inputs": [
        {
          "internalType": "bytes32",
          "name": "role",
          "type": "bytes32"
        },
        {
          "internalType": "address",
          "name": "account",
          "type": "address"
        }
      ],
      "name": "hasRole",
      "outputs": [
        {
          "internalType": "bool",
          "name": "",
          "type": "bool"
        }
      ],
      "stateMutability": "view",
      "type": "function"
    },
    {
      "inputs": [
        {
          "internalType": "address",
          "name": "account",
          "type": "address"
        }
      ],
      "name": "isAdmin",
      "outputs": [
        {
          "internalType": "bool",
          "name": "",
          "type": "bool"
        }
      ],
      "stateMutability": "view",
      "type": "function"
    },
    {
      "inputs": [],
      "name": "l1ProjectManager",
      "outputs": [
        {
          "internalType": "address",
          "name": "",
          "type": "address"
        }
      ],
      "stateMutability": "view",
      "type": "function"
    },
    {
      "inputs": [],
      "name": "l2TokenFactory",
      "outputs": [
        {
          "internalType": "address",
          "name": "",
          "type": "address"
        }
      ],
      "stateMutability": "view",
      "type": "function"
    },
    {
      "inputs": [
        {
          "internalType": "address",
          "name": "",
          "type": "address"
        }
      ],
      "name": "projects",
      "outputs": [
        {
          "internalType": "address",
          "name": "projectOwner",
          "type": "address"
        },
        {
          "internalType": "address",
          "name": "l1Token",
          "type": "address"
        },
        {
          "internalType": "address",
          "name": "l2Token",
          "type": "address"
        },
        {
          "internalType": "string",
          "name": "projectName",
          "type": "string"
        }
      ],
      "stateMutability": "view",
      "type": "function"
    },
    {
      "inputs": [
        {
          "internalType": "address",
          "name": "account",
          "type": "address"
        }
      ],
      "name": "removeAdmin",
      "outputs": [],
      "stateMutability": "nonpayable",
      "type": "function"
    },
    {
      "inputs": [
        {
          "internalType": "bytes32",
          "name": "role",
          "type": "bytes32"
        },
        {
          "internalType": "address",
          "name": "account",
          "type": "address"
        }
      ],
      "name": "renounceRole",
      "outputs": [],
      "stateMutability": "nonpayable",
      "type": "function"
    },
    {
      "inputs": [
        {
          "internalType": "bytes32",
          "name": "role",
          "type": "bytes32"
        },
        {
          "internalType": "address",
          "name": "account",
          "type": "address"
        }
      ],
      "name": "revokeRole",
      "outputs": [],
      "stateMutability": "nonpayable",
      "type": "function"
    },
    {
      "inputs": [
        {
          "internalType": "address",
          "name": "_l1ProjectManager",
          "type": "address"
        }
      ],
      "name": "setL1ProjectManager",
      "outputs": [],
      "stateMutability": "nonpayable",
      "type": "function"
    },
    {
      "inputs": [
        {
          "internalType": "address",
          "name": "_l2TokenFactory",
          "type": "address"
        }
      ],
      "name": "setL2TokenFactory",
      "outputs": [],
      "stateMutability": "nonpayable",
      "type": "function"
    },
    {
      "inputs": [
        {
          "internalType": "bytes4",
          "name": "interfaceId",
          "type": "bytes4"
        }
      ],
      "name": "supportsInterface",
      "outputs": [
        {
          "internalType": "bool",
          "name": "",
          "type": "bool"
        }
      ],
      "stateMutability": "view",
      "type": "function"
    },
    {
      "inputs": [],
      "name": "tmp",
      "outputs": [
        {
          "internalType": "uint256",
          "name": "",
          "type": "uint256"
        }
      ],
      "stateMutability": "view",
      "type": "function"
    },
    {
      "inputs": [
        {
          "internalType": "address",
          "name": "",
          "type": "address"
        }
      ],
      "name": "tokenMaps",
      "outputs": [
        {
          "internalType": "address",
          "name": "",
          "type": "address"
        }
      ],
      "stateMutability": "view",
      "type": "function"
    },
    {
      "inputs": [
        {
          "internalType": "address",
          "name": "newAdmin",
          "type": "address"
        }
      ],
      "name": "transferAdmin",
      "outputs": [],
      "stateMutability": "nonpayable",
      "type": "function"
    }
  ],
  "transactionHash": "0xe699c1dbe1a4555bafb093768f545dadb2a251bb149a897d4596ad8a8eb74e10",
  "args": [],
  "numDeployments": 3,
  "solcInputHash": "d8f6bbdc71248c04ddf3059336fc1e53",
  "bytecode": "0x60806040526001805460ff1916811790553480156200001d57600080fd5b50620000396000805160206200171f833981519152806200005a565b620000546000805160206200171f83398151915233620000a5565b62000155565b600082815260208190526040808220600101805490849055905190918391839186917fbd79b86ffe0ab8e8776151514217cd7cacd52c909f66475c3af44e129f0b00ff9190a4505050565b620000b18282620000b5565b5050565b6000828152602081815260408083206001600160a01b038516845290915290205460ff16620000b1576000828152602081815260408083206001600160a01b03851684529091529020805460ff19166001179055620001113390565b6001600160a01b0316816001600160a01b0316837f2f8788117e7eff1d82e926ec794901d17c78024a50270940304540a733656f0d60405160405180910390a45050565b6115ba80620001656000396000f3fe608060405234801561001057600080fd5b50600436106101825760003560e01c806374a9f5c1116100d8578063a217fddf1161008c578063c5b53e6811610066578063c5b53e6814610389578063d547741f146103b2578063eddd5e82146103c557600080fd5b8063a217fddf14610365578063b518a7761461036d578063bb3f397a1461037657600080fd5b806375b238fc116100bd57806375b238fc146102e4578063840e78fd1461030b57806391d148541461032e57600080fd5b806374a9f5c1146102a157806375829def146102d157600080fd5b806326777bb31161013a5780635f214430116101145780635f21443014610268578063704802751461027b57806370a082311461028e57600080fd5b806326777bb31461022f5780632f2ff15d1461024257806336568abe1461025557600080fd5b8063229852461161016b57806322985246146101c4578063248a9ca3146101f957806324d7806c1461021c57600080fd5b806301ffc9a7146101875780631785f53c146101af575b600080fd5b61019a610195366004611120565b6103d8565b60405190151581526020015b60405180910390f35b6101c26101bd366004611166565b61040f565b005b6101eb7ffb5864e8ff833c3cb2d2d08505e82ff02a43554c74a35d4f5a64e8526127831181565b6040519081526020016101a6565b6101eb610207366004611181565b60009081526020819052604090206001015490565b61019a61022a366004611166565b6104a1565b6101c261023d36600461119a565b6104e1565b6101c261025036600461123c565b61075f565b6101c261026336600461123c565b610789565b6101c2610276366004611166565b610815565b6101c2610289366004611166565b610932565b6101c261029c366004611166565b6109bc565b6001546102b99061010090046001600160a01b031681565b6040516001600160a01b0390911681526020016101a6565b6101c26102df366004611166565b610a75565b6101eb7fdf8b4c520ffe197c5343c6f5aec59570151ef9a492f2c624fd45ddde6135ec4281565b61031e610319366004611166565b610bd7565b6040516101a694939291906112b8565b61019a61033c36600461123c565b6000918252602082815260408084206001600160a01b0393909316845291905290205460ff1690565b6101eb600081565b6101eb60055481565b6101c2610384366004611166565b610c9a565b6102b9610397366004611166565b6004602052600090815260409020546001600160a01b031681565b6101c26103c036600461123c565b610d9f565b6002546102b9906001600160a01b031681565b60006001600160e01b03198216637965db0b60e01b148061040957506301ffc9a760e01b6001600160e01b03198316145b92915050565b610418336104a1565b6104745760405162461bcd60e51b815260206004820152602260248201527f41636365737369626c653a2043616c6c6572206973206e6f7420616e2061646d60448201526134b760f11b60648201526084015b60405180910390fd5b61049e7fdf8b4c520ffe197c5343c6f5aec59570151ef9a492f2c624fd45ddde6135ec4282610789565b50565b6001600160a01b03811660009081527f5cbfc8ee58ca47855df7bcf648dd304ddb6b932f9b87878bdf6318d7ec7ee5b7602052604081205460ff16610409565b6002546001600160a01b03161580159061050557506002546001600160a01b031633145b6105515760405162461bcd60e51b815260206004820152601c60248201527f63616c6c6572206973206e6f74206c32546f6b656e466163746f727900000000604482015260640161046b565b60008190036105a25760405162461bcd60e51b815260206004820152601360248201527f70726f6a6563744e616d65206973206e756c6c00000000000000000000000000604482015260640161046b565b6001600160a01b03838116600090815260036020526040902060010154161561060d5760405162461bcd60e51b815260206004820152600d60248201527f616c726561647920616464656400000000000000000000000000000000000000604482015260640161046b565b6040518060800160405280866001600160a01b03168152602001856001600160a01b03168152602001846001600160a01b0316815260200183838080601f01602080910402602001604051908101604052809392919081815260200183838082843760009201829052509390945250506001600160a01b03808716825260036020818152604093849020865181549085166001600160a01b031991821617825591870151600182018054918616918416919091179055938601516002850180549190941691161790915560608401519192508201906106ec9082611394565b5050506001600160a01b038481166000818152600460205260409081902080546001600160a01b0319169387169384179055517f58ae756aa8d188a7a73ab9c91ba1fc01873f70313fc07bee626c5f3c7d9b6cf79061075090899087908790611454565b60405180910390a35050505050565b60008281526020819052604090206001015461077a81610dc4565b6107848383610dce565b505050565b6001600160a01b03811633146108075760405162461bcd60e51b815260206004820152602f60248201527f416363657373436f6e74726f6c3a2063616e206f6e6c792072656e6f756e636560448201527f20726f6c657320666f722073656c660000000000000000000000000000000000606482015260840161046b565b6108118282610e6c565b5050565b806001600160a01b0381166108515760405162461bcd60e51b81526020600482015260026024820152612d1960f11b604482015260640161046b565b61085a336104a1565b6108b15760405162461bcd60e51b815260206004820152602260248201527f41636365737369626c653a2043616c6c6572206973206e6f7420616e2061646d60448201526134b760f11b606482015260840161046b565b6001546001600160a01b0380841661010090920416036108fc5760405162461bcd60e51b815260040161046b9060208082526004908201526373616d6560e01b604082015260600190565b50600180546001600160a01b039092166101000274ffffffffffffffffffffffffffffffffffffffff0019909216919091179055565b61093b336104a1565b6109925760405162461bcd60e51b815260206004820152602260248201527f41636365737369626c653a2043616c6c6572206973206e6f7420616e2061646d60448201526134b760f11b606482015260840161046b565b61049e7fdf8b4c520ffe197c5343c6f5aec59570151ef9a492f2c624fd45ddde6135ec428261075f565b6040516370a0823160e01b81523060048201526000906001600160a01b038316906370a0823190602401602060405180830381865afa158015610a03573d6000803e3d6000fd5b505050506040513d601f19601f82011682018060405250810190610a279190611493565b6005819055604080516001600160a01b0385168152602081018390529192507fa32950f82af24a851f47f9030ed6766af1eb4fb93719569652b9509f5bc5038e910160405180910390a15050565b610a7e336104a1565b610ad55760405162461bcd60e51b815260206004820152602260248201527f41636365737369626c653a2043616c6c6572206973206e6f7420616e2061646d60448201526134b760f11b606482015260840161046b565b6001600160a01b038116610b2b5760405162461bcd60e51b815260206004820152601860248201527f41636365737369626c653a207a65726f20616464726573730000000000000000604482015260640161046b565b6001600160a01b0381163303610b835760405162461bcd60e51b815260206004820152601660248201527f41636365737369626c653a2073616d652061646d696e00000000000000000000604482015260640161046b565b610bad7fdf8b4c520ffe197c5343c6f5aec59570151ef9a492f2c624fd45ddde6135ec428261075f565b61049e7fdf8b4c520ffe197c5343c6f5aec59570151ef9a492f2c624fd45ddde6135ec4233610789565b600360208190526000918252604090912080546001820154600283015493830180546001600160a01b0393841695928416949290931692610c179061130c565b80601f0160208091040260200160405190810160405280929190818152602001828054610c439061130c565b8015610c905780601f10610c6557610100808354040283529160200191610c90565b820191906000526020600020905b815481529060010190602001808311610c7357829003601f168201915b5050505050905084565b806001600160a01b038116610cd65760405162461bcd60e51b81526020600482015260026024820152612d1960f11b604482015260640161046b565b610cdf336104a1565b610d365760405162461bcd60e51b815260206004820152602260248201527f41636365737369626c653a2043616c6c6572206973206e6f7420616e2061646d60448201526134b760f11b606482015260840161046b565b6002546001600160a01b03808416911603610d7c5760405162461bcd60e51b815260040161046b9060208082526004908201526373616d6560e01b604082015260600190565b50600280546001600160a01b0319166001600160a01b0392909216919091179055565b600082815260208190526040902060010154610dba81610dc4565b6107848383610e6c565b61049e8133610eeb565b6000828152602081815260408083206001600160a01b038516845290915290205460ff16610811576000828152602081815260408083206001600160a01b03851684529091529020805460ff19166001179055610e283390565b6001600160a01b0316816001600160a01b0316837f2f8788117e7eff1d82e926ec794901d17c78024a50270940304540a733656f0d60405160405180910390a45050565b6000828152602081815260408083206001600160a01b038516845290915290205460ff1615610811576000828152602081815260408083206001600160a01b0385168085529252808320805460ff1916905551339285917ff6391f5c32d9c69d2a47ea670b442974b53935d1edc7fd64eb21e047a839171b9190a45050565b6000828152602081815260408083206001600160a01b038516845290915290205460ff1661081157610f1c81610f5e565b610f27836020610f70565b604051602001610f389291906114ac565b60408051601f198184030181529082905262461bcd60e51b825261046b9160040161152d565b60606104096001600160a01b03831660145b60606000610f7f836002611556565b610f8a90600261156d565b67ffffffffffffffff811115610fa257610fa26112f6565b6040519080825280601f01601f191660200182016040528015610fcc576020820181803683370190505b509050600360fc1b81600081518110610fe757610fe7611580565b60200101906001600160f81b031916908160001a905350600f60fb1b8160018151811061101657611016611580565b60200101906001600160f81b031916908160001a905350600061103a846002611556565b61104590600161156d565b90505b60018111156110ca577f303132333435363738396162636465660000000000000000000000000000000085600f166010811061108657611086611580565b1a60f81b82828151811061109c5761109c611580565b60200101906001600160f81b031916908160001a90535060049490941c936110c381611596565b9050611048565b5083156111195760405162461bcd60e51b815260206004820181905260248201527f537472696e67733a20686578206c656e67746820696e73756666696369656e74604482015260640161046b565b9392505050565b60006020828403121561113257600080fd5b81356001600160e01b03198116811461111957600080fd5b80356001600160a01b038116811461116157600080fd5b919050565b60006020828403121561117857600080fd5b6111198261114a565b60006020828403121561119357600080fd5b5035919050565b6000806000806000608086880312156111b257600080fd5b6111bb8661114a565b94506111c96020870161114a565b93506111d76040870161114a565b9250606086013567ffffffffffffffff808211156111f457600080fd5b818801915088601f83011261120857600080fd5b81358181111561121757600080fd5b89602082850101111561122957600080fd5b9699959850939650602001949392505050565b6000806040838503121561124f57600080fd5b8235915061125f6020840161114a565b90509250929050565b60005b8381101561128357818101518382015260200161126b565b50506000910152565b600081518084526112a4816020860160208601611268565b601f01601f19169290920160200192915050565b60006001600160a01b0380871683528086166020840152808516604084015250608060608301526112ec608083018461128c565b9695505050505050565b634e487b7160e01b600052604160045260246000fd5b600181811c9082168061132057607f821691505b60208210810361134057634e487b7160e01b600052602260045260246000fd5b50919050565b601f82111561078457600081815260208120601f850160051c8101602086101561136d5750805b601f850160051c820191505b8181101561138c57828155600101611379565b505050505050565b815167ffffffffffffffff8111156113ae576113ae6112f6565b6113c2816113bc845461130c565b84611346565b602080601f8311600181146113f757600084156113df5750858301515b600019600386901b1c1916600185901b17855561138c565b600085815260208120601f198616915b8281101561142657888601518255948401946001909101908401611407565b50858210156114445787850151600019600388901b60f8161c191681555b5050505050600190811b01905550565b6001600160a01b038416815260406020820152816040820152818360608301376000818301606090810191909152601f909201601f1916010192915050565b6000602082840312156114a557600080fd5b5051919050565b7f416363657373436f6e74726f6c3a206163636f756e74200000000000000000008152600083516114e4816017850160208801611268565b7f206973206d697373696e6720726f6c65200000000000000000000000000000006017918401918201528351611521816028840160208801611268565b01602801949350505050565b602081526000611119602083018461128c565b634e487b7160e01b600052601160045260246000fd5b808202811582820484141761040957610409611540565b8082018082111561040957610409611540565b634e487b7160e01b600052603260045260246000fd5b6000816115a5576115a5611540565b50600019019056fea164736f6c6343000812000adf8b4c520ffe197c5343c6f5aec59570151ef9a492f2c624fd45ddde6135ec42",
  "devdoc": {
    "events": {
      "RoleAdminChanged(bytes32,bytes32,bytes32)": {
        "details": "Emitted when `newAdminRole` is set as ``role``'s admin role, replacing `previousAdminRole` `DEFAULT_ADMIN_ROLE` is the starting admin for all roles, despite {RoleAdminChanged} not being emitted signaling this. _Available since v3.1._"
      },
      "RoleGranted(bytes32,address,address)": {
        "details": "Emitted when `account` is granted `role`. `sender` is the account that originated the contract call, an admin role bearer except when using {AccessControl-_setupRole}."
      },
      "RoleRevoked(bytes32,address,address)": {
        "details": "Emitted when `account` is revoked `role`. `sender` is the account that originated the contract call:   - if using `revokeRole`, it is the admin role bearer   - if using `renounceRole`, it is the role bearer (i.e. `account`)"
      }
    },
    "kind": "dev",
    "methods": {
      "addAdmin(address)": {
        "details": "add admin",
        "params": {
          "account": "address to add"
        }
      },
      "addProject(address,address,address,string)": {
        "details": " "
      },
      "getRoleAdmin(bytes32)": {
        "details": "Returns the admin role that controls `role`. See {grantRole} and {revokeRole}. To change a role's admin, use {_setRoleAdmin}."
      },
      "grantRole(bytes32,address)": {
        "details": "Grants `role` to `account`. If `account` had not been already granted `role`, emits a {RoleGranted} event. Requirements: - the caller must have ``role``'s admin role. May emit a {RoleGranted} event."
      },
      "hasRole(bytes32,address)": {
        "details": "Returns `true` if `account` has been granted `role`."
      },
      "isAdmin(address)": {
        "details": "whether admin",
        "params": {
          "account": "address to check"
        }
      },
      "removeAdmin(address)": {
        "details": "remove admin",
        "params": {
          "account": "address to remove"
        }
      },
      "renounceRole(bytes32,address)": {
        "details": "Revokes `role` from the calling account. Roles are often managed via {grantRole} and {revokeRole}: this function's purpose is to provide a mechanism for accounts to lose their privileges if they are compromised (such as when a trusted device is misplaced). If the calling account had been revoked `role`, emits a {RoleRevoked} event. Requirements: - the caller must be `account`. May emit a {RoleRevoked} event."
      },
      "revokeRole(bytes32,address)": {
        "details": "Revokes `role` from `account`. If `account` had been granted `role`, emits a {RoleRevoked} event. Requirements: - the caller must have ``role``'s admin role. May emit a {RoleRevoked} event."
      },
      "setL1ProjectManager(address)": {
        "details": "l1ProjectManager  "
      },
      "setL2TokenFactory(address)": {
        "details": "l2TokenFactory  "
      },
      "supportsInterface(bytes4)": {
        "details": "See {IERC165-supportsInterface}."
      },
      "transferAdmin(address)": {
        "details": "transfer admin",
        "params": {
          "newAdmin": "new admin address"
        }
      }
    },
    "title": "L2ProjectManager",
    "version": 1
  },
  "userdoc": {
    "kind": "user",
    "methods": {},
    "version": 1
  },
  "storageLayout": {
    "storage": [
      {
        "astId": 24,
        "contract": "contracts/L2/L2ProjectManager.sol:L2ProjectManager",
        "label": "_roles",
        "offset": 0,
        "slot": "0",
        "type": "t_mapping(t_bytes32,t_struct(RoleData)19_storage)"
      },
      {
        "astId": 1513,
        "contract": "contracts/L2/L2ProjectManager.sol:L2ProjectManager",
        "label": "free",
        "offset": 0,
        "slot": "1",
        "type": "t_bool"
      },
      {
        "astId": 1515,
        "contract": "contracts/L2/L2ProjectManager.sol:L2ProjectManager",
        "label": "l1ProjectManager",
        "offset": 1,
        "slot": "1",
        "type": "t_address"
      },
      {
        "astId": 1517,
        "contract": "contracts/L2/L2ProjectManager.sol:L2ProjectManager",
        "label": "l2TokenFactory",
        "offset": 0,
        "slot": "2",
        "type": "t_address"
      },
      {
        "astId": 1522,
        "contract": "contracts/L2/L2ProjectManager.sol:L2ProjectManager",
        "label": "projects",
        "offset": 0,
        "slot": "3",
        "type": "t_mapping(t_address,t_struct(ProjectInfo)1510_storage)"
      },
      {
        "astId": 1526,
        "contract": "contracts/L2/L2ProjectManager.sol:L2ProjectManager",
        "label": "tokenMaps",
        "offset": 0,
        "slot": "4",
        "type": "t_mapping(t_address,t_address)"
      },
      {
        "astId": 1528,
        "contract": "contracts/L2/L2ProjectManager.sol:L2ProjectManager",
        "label": "tmp",
        "offset": 0,
        "slot": "5",
        "type": "t_uint256"
      }
    ],
    "types": {
      "t_address": {
        "encoding": "inplace",
        "label": "address",
        "numberOfBytes": "20"
      },
      "t_bool": {
        "encoding": "inplace",
        "label": "bool",
        "numberOfBytes": "1"
      },
      "t_bytes32": {
        "encoding": "inplace",
        "label": "bytes32",
        "numberOfBytes": "32"
      },
      "t_mapping(t_address,t_address)": {
        "encoding": "mapping",
        "key": "t_address",
        "label": "mapping(address => address)",
        "numberOfBytes": "32",
        "value": "t_address"
      },
      "t_mapping(t_address,t_bool)": {
        "encoding": "mapping",
        "key": "t_address",
        "label": "mapping(address => bool)",
        "numberOfBytes": "32",
        "value": "t_bool"
      },
      "t_mapping(t_address,t_struct(ProjectInfo)1510_storage)": {
        "encoding": "mapping",
        "key": "t_address",
        "label": "mapping(address => struct L2ProjectManager.ProjectInfo)",
        "numberOfBytes": "32",
        "value": "t_struct(ProjectInfo)1510_storage"
      },
      "t_mapping(t_bytes32,t_struct(RoleData)19_storage)": {
        "encoding": "mapping",
        "key": "t_bytes32",
        "label": "mapping(bytes32 => struct AccessControl.RoleData)",
        "numberOfBytes": "32",
        "value": "t_struct(RoleData)19_storage"
      },
      "t_string_storage": {
        "encoding": "bytes",
        "label": "string",
        "numberOfBytes": "32"
      },
      "t_struct(ProjectInfo)1510_storage": {
        "encoding": "inplace",
        "label": "struct L2ProjectManager.ProjectInfo",
        "members": [
          {
            "astId": 1503,
            "contract": "contracts/L2/L2ProjectManager.sol:L2ProjectManager",
            "label": "projectOwner",
            "offset": 0,
            "slot": "0",
            "type": "t_address"
          },
          {
            "astId": 1505,
            "contract": "contracts/L2/L2ProjectManager.sol:L2ProjectManager",
            "label": "l1Token",
            "offset": 0,
            "slot": "1",
            "type": "t_address"
          },
          {
            "astId": 1507,
            "contract": "contracts/L2/L2ProjectManager.sol:L2ProjectManager",
            "label": "l2Token",
            "offset": 0,
            "slot": "2",
            "type": "t_address"
          },
          {
            "astId": 1509,
            "contract": "contracts/L2/L2ProjectManager.sol:L2ProjectManager",
            "label": "projectName",
            "offset": 0,
            "slot": "3",
            "type": "t_string_storage"
          }
        ],
        "numberOfBytes": "128"
      },
      "t_struct(RoleData)19_storage": {
        "encoding": "inplace",
        "label": "struct AccessControl.RoleData",
        "members": [
          {
            "astId": 16,
            "contract": "contracts/L2/L2ProjectManager.sol:L2ProjectManager",
            "label": "members",
            "offset": 0,
            "slot": "0",
            "type": "t_mapping(t_address,t_bool)"
          },
          {
            "astId": 18,
            "contract": "contracts/L2/L2ProjectManager.sol:L2ProjectManager",
            "label": "adminRole",
            "offset": 0,
            "slot": "1",
            "type": "t_bytes32"
          }
        ],
        "numberOfBytes": "64"
      },
      "t_uint256": {
        "encoding": "inplace",
        "label": "uint256",
        "numberOfBytes": "32"
      }
    }
  }
}