{
  "_format": "hh-sol-artifact-1",
  "contractName": "LockTOSStorage",
  "sourceName": "contracts/test/LockTOSStorage.sol",
  "abi": [
    {
      "inputs": [],
      "name": "MULTIPLIER",
      "outputs": [
        {
          "internalType": "uint256",
          "name": "",
          "type": "uint256"
        }
      ],
      "stateMutability": "view",
      "type": "function"
    },
    {
      "inputs": [
        {
          "internalType": "uint256",
          "name": "",
          "type": "uint256"
        }
      ],
      "name": "allLocks",
      "outputs": [
        {
          "internalType": "uint256",
          "name": "start",
          "type": "uint256"
        },
        {
          "internalType": "uint256",
          "name": "end",
          "type": "uint256"
        },
        {
          "internalType": "uint256",
          "name": "amount",
          "type": "uint256"
        },
        {
          "internalType": "bool",
          "name": "withdrawn",
          "type": "bool"
        }
      ],
      "stateMutability": "view",
      "type": "function"
    },
    {
      "inputs": [],
      "name": "cumulativeEpochUnit",
      "outputs": [
        {
          "internalType": "uint256",
          "name": "",
          "type": "uint256"
        }
      ],
      "stateMutability": "view",
      "type": "function"
    },
    {
      "inputs": [],
      "name": "cumulativeTOSAmount",
      "outputs": [
        {
          "internalType": "uint256",
          "name": "",
          "type": "uint256"
        }
      ],
      "stateMutability": "view",
      "type": "function"
    },
    {
      "inputs": [],
      "name": "epochUnit",
      "outputs": [
        {
          "internalType": "uint256",
          "name": "",
          "type": "uint256"
        }
      ],
      "stateMutability": "view",
      "type": "function"
    },
    {
      "inputs": [
        {
          "internalType": "uint256",
          "name": "",
          "type": "uint256"
        }
      ],
      "name": "inUse",
      "outputs": [
        {
          "internalType": "bool",
          "name": "",
          "type": "bool"
        }
      ],
      "stateMutability": "view",
      "type": "function"
    },
    {
      "inputs": [],
      "name": "lockIdCounter",
      "outputs": [
        {
          "internalType": "uint256",
          "name": "",
          "type": "uint256"
        }
      ],
      "stateMutability": "view",
      "type": "function"
    },
    {
      "inputs": [
        {
          "internalType": "uint256",
          "name": "",
          "type": "uint256"
        },
        {
          "internalType": "uint256",
          "name": "",
          "type": "uint256"
        }
      ],
      "name": "lockPointHistory",
      "outputs": [
        {
          "internalType": "int256",
          "name": "bias",
          "type": "int256"
        },
        {
          "internalType": "int256",
          "name": "slope",
          "type": "int256"
        },
        {
          "internalType": "uint256",
          "name": "timestamp",
          "type": "uint256"
        }
      ],
      "stateMutability": "view",
      "type": "function"
    },
    {
      "inputs": [
        {
          "internalType": "address",
          "name": "",
          "type": "address"
        },
        {
          "internalType": "uint256",
          "name": "",
          "type": "uint256"
        }
      ],
      "name": "lockedBalances",
      "outputs": [
        {
          "internalType": "uint256",
          "name": "start",
          "type": "uint256"
        },
        {
          "internalType": "uint256",
          "name": "end",
          "type": "uint256"
        },
        {
          "internalType": "uint256",
          "name": "amount",
          "type": "uint256"
        },
        {
          "internalType": "bool",
          "name": "withdrawn",
          "type": "bool"
        }
      ],
      "stateMutability": "view",
      "type": "function"
    },
    {
      "inputs": [],
      "name": "maxTime",
      "outputs": [
        {
          "internalType": "uint256",
          "name": "",
          "type": "uint256"
        }
      ],
      "stateMutability": "view",
      "type": "function"
    },
    {
      "inputs": [],
      "name": "migratedL2",
      "outputs": [
        {
          "internalType": "bool",
          "name": "",
          "type": "bool"
        }
      ],
      "stateMutability": "view",
      "type": "function"
    },
    {
      "inputs": [],
      "name": "pauseProxy",
      "outputs": [
        {
          "internalType": "bool",
          "name": "",
          "type": "bool"
        }
      ],
      "stateMutability": "view",
      "type": "function"
    },
    {
      "inputs": [
        {
          "internalType": "uint256",
          "name": "",
          "type": "uint256"
        }
      ],
      "name": "pointHistory",
      "outputs": [
        {
          "internalType": "int256",
          "name": "bias",
          "type": "int256"
        },
        {
          "internalType": "int256",
          "name": "slope",
          "type": "int256"
        },
        {
          "internalType": "uint256",
          "name": "timestamp",
          "type": "uint256"
        }
      ],
      "stateMutability": "view",
      "type": "function"
    },
    {
      "inputs": [
        {
          "internalType": "uint256",
          "name": "",
          "type": "uint256"
        }
      ],
      "name": "slopeChanges",
      "outputs": [
        {
          "internalType": "int256",
          "name": "",
          "type": "int256"
        }
      ],
      "stateMutability": "view",
      "type": "function"
    },
    {
      "inputs": [],
      "name": "stakeRegistry",
      "outputs": [
        {
          "internalType": "address",
          "name": "",
          "type": "address"
        }
      ],
      "stateMutability": "view",
      "type": "function"
    },
    {
      "inputs": [],
      "name": "tos",
      "outputs": [
        {
          "internalType": "address",
          "name": "",
          "type": "address"
        }
      ],
      "stateMutability": "view",
      "type": "function"
    },
    {
      "inputs": [
        {
          "internalType": "uint256",
          "name": "",
          "type": "uint256"
        }
      ],
      "name": "uniqueUsers",
      "outputs": [
        {
          "internalType": "address",
          "name": "",
          "type": "address"
        }
      ],
      "stateMutability": "view",
      "type": "function"
    },
    {
      "inputs": [
        {
          "internalType": "address",
          "name": "",
          "type": "address"
        },
        {
          "internalType": "uint256",
          "name": "",
          "type": "uint256"
        }
      ],
      "name": "userLocks",
      "outputs": [
        {
          "internalType": "uint256",
          "name": "",
          "type": "uint256"
        }
      ],
      "stateMutability": "view",
      "type": "function"
    }
  ],
  "bytecode": "0x6080604052600160075534801561001557600080fd5b506104a7806100256000396000f3fe608060405234801561001057600080fd5b50600436106101365760003560e01c8063a1f5f50e116100b2578063c79acdda11610081578063ed50c69911610066578063ed50c6991461031b578063f52a36f71461032e578063fd2dcecf1461034e57600080fd5b8063c79acdda146102ef578063cd29ca0e1461031257600080fd5b8063a1f5f50e146102a4578063aa33fedb146102ca578063afae883e146102dd578063b534ad56146102e657600080fd5b806363a8fd891161010957806368304835116100ee578063683048351461024e57806389f395de1461027e5780638ad4c4471461029157600080fd5b806363a8fd89146101f957806363d5a3d91461021657600080fd5b8063059f8b161461013b57806322e67e711461015d578063367b7b23146101665780635d16a6f914610194575b600080fd5b61014a670de0b6b3a764000081565b6040519081526020015b60405180910390f35b61014a60025481565b610179610174366004610427565b610357565b60408051938452602084019290925290820152606001610154565b6101d76101a2366004610449565b600b60209081526000928352604080842090915290825290208054600182015460028301546003909301549192909160ff1684565b6040805194855260208501939093529183015215156060820152608001610154565b6000546102069060ff1681565b6040519015158152602001610154565b6101d7610224366004610481565b600c6020526000908152604090208054600182015460028301546003909301549192909160ff1684565b6000546102669061010090046001600160a01b031681565b6040516001600160a01b039091168152602001610154565b600354610266906001600160a01b031681565b61017961029f366004610481565b610399565b600054610206907501000000000000000000000000000000000000000000900460ff1681565b61014a6102d8366004610449565b6103cc565b61014a60045481565b61014a60055481565b6102066102fd366004610481565b600f6020526000908152604090205460ff1681565b61014a60065481565b610266610329366004610481565b6103fd565b61014a61033c366004610481565b600e6020526000908152604090205481565b61014a60015481565b600a602052816000526040600020818154811061037357600080fd5b600091825260209091206003909102018054600182015460029092015490935090915083565b600981815481106103a957600080fd5b600091825260209091206003909102018054600182015460029092015490925083565b600d60205281600052604060002081815481106103e857600080fd5b90600052602060002001600091509150505481565b6008818154811061040d57600080fd5b6000918252602090912001546001600160a01b0316905081565b6000806040838503121561043a57600080fd5b50508035926020909101359150565b6000806040838503121561045c57600080fd5b82356001600160a01b038116811461047357600080fd5b946020939093013593505050565b60006020828403121561049357600080fd5b503591905056fea164736f6c6343000812000a",
  "linkReferences": {},
  "deployedLinkReferences": {}
}