{
  "_format": "hh-sol-artifact-1",
  "contractName": "L2DividendPoolForStosProxy",
  "sourceName": "contracts/L2/airdrop/L2DividendPoolForStosProxy.sol",
  "abi": [
    {
      "anonymous": false,
      "inputs": [
        {
          "indexed": true,
          "internalType": "bytes32",
          "name": "role",
          "type": "bytes32"
        },
        {
          "indexed": true,
          "internalType": "bytes32",
          "name": "previousAdminRole",
          "type": "bytes32"
        },
        {
          "indexed": true,
          "internalType": "bytes32",
          "name": "newAdminRole",
          "type": "bytes32"
        }
      ],
      "name": "RoleAdminChanged",
      "type": "event"
    },
    {
      "anonymous": false,
      "inputs": [
        {
          "indexed": true,
          "internalType": "bytes32",
          "name": "role",
          "type": "bytes32"
        },
        {
          "indexed": true,
          "internalType": "address",
          "name": "account",
          "type": "address"
        },
        {
          "indexed": true,
          "internalType": "address",
          "name": "sender",
          "type": "address"
        }
      ],
      "name": "RoleGranted",
      "type": "event"
    },
    {
      "anonymous": false,
      "inputs": [
        {
          "indexed": true,
          "internalType": "bytes32",
          "name": "role",
          "type": "bytes32"
        },
        {
          "indexed": true,
          "internalType": "address",
          "name": "account",
          "type": "address"
        },
        {
          "indexed": true,
          "internalType": "address",
          "name": "sender",
          "type": "address"
        }
      ],
      "name": "RoleRevoked",
      "type": "event"
    },
    {
      "anonymous": false,
      "inputs": [
        {
          "indexed": true,
          "internalType": "address",
          "name": "impl",
          "type": "address"
        },
        {
          "indexed": false,
          "internalType": "bool",
          "name": "alive",
          "type": "bool"
        }
      ],
      "name": "SetAliveImplementation",
      "type": "event"
    },
    {
      "anonymous": false,
      "inputs": [
        {
          "indexed": true,
          "internalType": "bytes4",
          "name": "selector",
          "type": "bytes4"
        },
        {
          "indexed": true,
          "internalType": "address",
          "name": "impl",
          "type": "address"
        }
      ],
      "name": "SetSelectorImplementation",
      "type": "event"
    },
    {
      "anonymous": false,
      "inputs": [
        {
          "indexed": true,
          "internalType": "address",
          "name": "implementation",
          "type": "address"
        }
      ],
      "name": "Upgraded",
      "type": "event"
    },
    {
      "stateMutability": "payable",
      "type": "fallback"
    },
    {
      "inputs": [],
      "name": "ADMIN_ROLE",
      "outputs": [
        {
          "internalType": "bytes32",
          "name": "",
          "type": "bytes32"
        }
      ],
      "stateMutability": "view",
      "type": "function"
    },
    {
      "inputs": [],
      "name": "DEFAULT_ADMIN_ROLE",
      "outputs": [
        {
          "internalType": "bytes32",
          "name": "",
          "type": "bytes32"
        }
      ],
      "stateMutability": "view",
      "type": "function"
    },
    {
      "inputs": [],
      "name": "POLICY_ROLE",
      "outputs": [
        {
          "internalType": "bytes32",
          "name": "",
          "type": "bytes32"
        }
      ],
      "stateMutability": "view",
      "type": "function"
    },
    {
      "inputs": [
        {
          "internalType": "address",
          "name": "account",
          "type": "address"
        }
      ],
      "name": "addAdmin",
      "outputs": [],
      "stateMutability": "nonpayable",
      "type": "function"
    },
    {
      "inputs": [
        {
          "internalType": "address",
          "name": "",
          "type": "address"
        }
      ],
      "name": "aliveImplementation",
      "outputs": [
        {
          "internalType": "bool",
          "name": "",
          "type": "bool"
        }
      ],
      "stateMutability": "view",
      "type": "function"
    },
    {
      "inputs": [
        {
          "internalType": "uint256",
          "name": "",
          "type": "uint256"
        }
      ],
      "name": "distributedTokens",
      "outputs": [
        {
          "internalType": "address",
          "name": "",
          "type": "address"
        }
      ],
      "stateMutability": "view",
      "type": "function"
    },
    {
      "inputs": [
        {
          "internalType": "address",
          "name": "",
          "type": "address"
        }
      ],
      "name": "distributions",
      "outputs": [
        {
          "internalType": "bool",
          "name": "exists",
          "type": "bool"
        },
        {
          "internalType": "uint256",
          "name": "totalDistribution",
          "type": "uint256"
        },
        {
          "internalType": "uint256",
          "name": "lastBalance",
          "type": "uint256"
        }
      ],
      "stateMutability": "view",
      "type": "function"
    },
    {
      "inputs": [],
      "name": "epochUnit",
      "outputs": [
        {
          "internalType": "uint256",
          "name": "",
          "type": "uint256"
        }
      ],
      "stateMutability": "view",
      "type": "function"
    },
    {
      "inputs": [
        {
          "internalType": "address",
          "name": "",
          "type": "address"
        }
      ],
      "name": "genesis",
      "outputs": [
        {
          "internalType": "uint256",
          "name": "",
          "type": "uint256"
        }
      ],
      "stateMutability": "view",
      "type": "function"
    },
    {
      "inputs": [
        {
          "internalType": "bytes32",
          "name": "role",
          "type": "bytes32"
        }
      ],
      "name": "getRoleAdmin",
      "outputs": [
        {
          "internalType": "bytes32",
          "name": "",
          "type": "bytes32"
        }
      ],
      "stateMutability": "view",
      "type": "function"
    },
    {
      "inputs": [
        {
          "internalType": "bytes4",
          "name": "_selector",
          "type": "bytes4"
        }
      ],
      "name": "getSelectorImplementation2",
      "outputs": [
        {
          "internalType": "address",
          "name": "impl",
          "type": "address"
        }
      ],
      "stateMutability": "view",
      "type": "function"
    },
    {
      "inputs": [
        {
          "internalType": "bytes32",
          "name": "role",
          "type": "bytes32"
        },
        {
          "internalType": "address",
          "name": "account",
          "type": "address"
        }
      ],
      "name": "grantRole",
      "outputs": [],
      "stateMutability": "nonpayable",
      "type": "function"
    },
    {
      "inputs": [
        {
          "internalType": "bytes32",
          "name": "role",
          "type": "bytes32"
        },
        {
          "internalType": "address",
          "name": "account",
          "type": "address"
        }
      ],
      "name": "hasRole",
      "outputs": [
        {
          "internalType": "bool",
          "name": "",
          "type": "bool"
        }
      ],
      "stateMutability": "view",
      "type": "function"
    },
    {
      "inputs": [],
      "name": "implementation",
      "outputs": [
        {
          "internalType": "address",
          "name": "",
          "type": "address"
        }
      ],
      "stateMutability": "view",
      "type": "function"
    },
    {
      "inputs": [
        {
          "internalType": "uint256",
          "name": "_index",
          "type": "uint256"
        }
      ],
      "name": "implementation2",
      "outputs": [
        {
          "internalType": "address",
          "name": "",
          "type": "address"
        }
      ],
      "stateMutability": "view",
      "type": "function"
    },
    {
      "inputs": [
        {
          "internalType": "address",
          "name": "account",
          "type": "address"
        }
      ],
      "name": "isAdmin",
      "outputs": [
        {
          "internalType": "bool",
          "name": "",
          "type": "bool"
        }
      ],
      "stateMutability": "view",
      "type": "function"
    },
    {
      "inputs": [],
      "name": "pauseProxy",
      "outputs": [
        {
          "internalType": "bool",
          "name": "",
          "type": "bool"
        }
      ],
      "stateMutability": "view",
      "type": "function"
    },
    {
      "inputs": [
        {
          "internalType": "uint256",
          "name": "",
          "type": "uint256"
        }
      ],
      "name": "proxyImplementation",
      "outputs": [
        {
          "internalType": "address",
          "name": "",
          "type": "address"
        }
      ],
      "stateMutability": "view",
      "type": "function"
    },
    {
      "inputs": [
        {
          "internalType": "address",
          "name": "account",
          "type": "address"
        }
      ],
      "name": "removeAdmin",
      "outputs": [],
      "stateMutability": "nonpayable",
      "type": "function"
    },
    {
      "inputs": [
        {
          "internalType": "bytes32",
          "name": "role",
          "type": "bytes32"
        },
        {
          "internalType": "address",
          "name": "account",
          "type": "address"
        }
      ],
      "name": "renounceRole",
      "outputs": [],
      "stateMutability": "nonpayable",
      "type": "function"
    },
    {
      "inputs": [
        {
          "internalType": "bytes32",
          "name": "role",
          "type": "bytes32"
        },
        {
          "internalType": "address",
          "name": "account",
          "type": "address"
        }
      ],
      "name": "revokeRole",
      "outputs": [],
      "stateMutability": "nonpayable",
      "type": "function"
    },
    {
      "inputs": [
        {
          "internalType": "bytes4",
          "name": "",
          "type": "bytes4"
        }
      ],
      "name": "selectorImplementation",
      "outputs": [
        {
          "internalType": "address",
          "name": "",
          "type": "address"
        }
      ],
      "stateMutability": "view",
      "type": "function"
    },
    {
      "inputs": [
        {
          "internalType": "address",
          "name": "newImplementation",
          "type": "address"
        },
        {
          "internalType": "bool",
          "name": "_alive",
          "type": "bool"
        }
      ],
      "name": "setAliveImplementation2",
      "outputs": [],
      "stateMutability": "nonpayable",
      "type": "function"
    },
    {
      "inputs": [
        {
          "internalType": "address",
          "name": "newImplementation",
          "type": "address"
        },
        {
          "internalType": "uint256",
          "name": "_index",
          "type": "uint256"
        },
        {
          "internalType": "bool",
          "name": "_alive",
          "type": "bool"
        }
      ],
      "name": "setImplementation2",
      "outputs": [],
      "stateMutability": "nonpayable",
      "type": "function"
    },
    {
      "inputs": [
        {
          "internalType": "bool",
          "name": "_pause",
          "type": "bool"
        }
      ],
      "name": "setProxyPause",
      "outputs": [],
      "stateMutability": "nonpayable",
      "type": "function"
    },
    {
      "inputs": [
        {
          "internalType": "bytes4[]",
          "name": "_selectors",
          "type": "bytes4[]"
        },
        {
          "internalType": "address",
          "name": "_imp",
          "type": "address"
        }
      ],
      "name": "setSelectorImplementations2",
      "outputs": [],
      "stateMutability": "nonpayable",
      "type": "function"
    },
    {
      "inputs": [
        {
          "internalType": "bytes4",
          "name": "interfaceId",
          "type": "bytes4"
        }
      ],
      "name": "supportsInterface",
      "outputs": [
        {
          "internalType": "bool",
          "name": "",
          "type": "bool"
        }
      ],
      "stateMutability": "view",
      "type": "function"
    },
    {
      "inputs": [
        {
          "internalType": "address",
          "name": "newAdmin",
          "type": "address"
        }
      ],
      "name": "transferAdmin",
      "outputs": [],
      "stateMutability": "nonpayable",
      "type": "function"
    },
    {
      "inputs": [],
      "name": "universalStos",
      "outputs": [
        {
          "internalType": "address",
          "name": "",
          "type": "address"
        }
      ],
      "stateMutability": "view",
      "type": "function"
    },
    {
      "inputs": [
        {
          "internalType": "address",
          "name": "impl",
          "type": "address"
        }
      ],
      "name": "upgradeTo",
      "outputs": [],
      "stateMutability": "nonpayable",
      "type": "function"
    },
    {
      "stateMutability": "payable",
      "type": "receive"
    }
  ],
  "bytecode": "0x60806040523480156200001157600080fd5b506200002d60008051602062001ab3833981519152806200004e565b6200004860008051602062001ab38339815191523362000099565b6200014d565b600082815260046020526040808220600101805490849055905190918391839186917fbd79b86ffe0ab8e8776151514217cd7cacd52c909f66475c3af44e129f0b00ff9190a4505050565b620000a58282620000a9565b5050565b60008281526004602090815260408083206001600160a01b038516845290915290205460ff16620000a55760008281526004602090815260408083206001600160a01b03851684529091529020805460ff19166001179055620001093390565b6001600160a01b0316816001600160a01b0316837f2f8788117e7eff1d82e926ec794901d17c78024a50270940304540a733656f0d60405160405180910390a45050565b611956806200015d6000396000f3fe6080604052600436106101d15760003560e01c806370480275116100f75780638d4fdb4011610095578063b911135f11610064578063b911135f1461068b578063c83d3c47146106c1578063d547741f146106e1578063fd2dcecf1461070157610223565b80638d4fdb40146105b357806391d14854146105d35780639353b9df14610619578063a217fddf1461067657610223565b806377222509116100d157806377222509146105265780637cb00d25146105535780637cd5f663146105735780638b8f4a651461059357610223565b806370480275146104b257806375829def146104d257806375b238fc146104f257610223565b80633659cfe61161016f578063550d01a31161013e578063550d01a3146104025780635c60da1b146104325780635cc797d81461047857806363a8fd891461049857610223565b80633659cfe61461035457806337a15503146103745780634a5df50f146103ac57806350d2a276146103cc57610223565b8063248a9ca3116101ab578063248a9ca3146102c457806324d7806c146102f45780632f2ff15d1461031457806336568abe1461033457610223565b806301ffc9a71461022d5780631785f53c14610262578063229852461461028257610223565b366102235760405162461bcd60e51b815260206004820152601460248201527f63616e6e6f74207265636569766520457468657200000000000000000000000060448201526064015b60405180910390fd5b61022b610717565b005b34801561023957600080fd5b5061024d610248366004611608565b6107c0565b60405190151581526020015b60405180910390f35b34801561026e57600080fd5b5061022b61027d366004611649565b6107f7565b34801561028e57600080fd5b506102b67ffb5864e8ff833c3cb2d2d08505e82ff02a43554c74a35d4f5a64e8526127831181565b604051908152602001610259565b3480156102d057600080fd5b506102b66102df366004611664565b60009081526004602052604090206001015490565b34801561030057600080fd5b5061024d61030f366004611649565b610872565b34801561032057600080fd5b5061022b61032f36600461167d565b6108b2565b34801561034057600080fd5b5061022b61034f36600461167d565b6108d7565b34801561036057600080fd5b5061022b61036f366004611649565b610963565b34801561038057600080fd5b5061039461038f366004611664565b610abc565b6040516001600160a01b039091168152602001610259565b3480156103b857600080fd5b5061022b6103c73660046116a9565b610ae6565b3480156103d857600080fd5b506103946103e7366004611608565b6003602052600090815260409020546001600160a01b031681565b34801561040e57600080fd5b5061024d61041d366004611649565b60026020526000908152604090205460ff1681565b34801561043e57600080fd5b506000805260016020527fa6eef7e35abe7026729641147f7915573c7e97b47efa546f5f6e3230263bcb49546001600160a01b0316610394565b34801561048457600080fd5b5061022b61049336600461173d565b610d93565b3480156104a457600080fd5b5060005461024d9060ff1681565b3480156104be57600080fd5b5061022b6104cd366004611649565b610deb565b3480156104de57600080fd5b5061022b6104ed366004611649565b610e63565b3480156104fe57600080fd5b506102b67fdf8b4c520ffe197c5343c6f5aec59570151ef9a492f2c624fd45ddde6135ec4281565b34801561053257600080fd5b506102b6610541366004611649565b60076020526000908152604090205481565b34801561055f57600080fd5b5061022b61056e366004611767565b610fb3565b34801561057f57600080fd5b5061022b61058e366004611782565b611014565b34801561059f57600080fd5b506103946105ae366004611664565b61106d565b3480156105bf57600080fd5b506103946105ce366004611608565b61108a565b3480156105df57600080fd5b5061024d6105ee36600461167d565b60009182526004602090815260408084206001600160a01b0393909316845291905290205460ff1690565b34801561062557600080fd5b50610659610634366004611649565b60086020526000908152604090208054600182015460029092015460ff909116919083565b604080519315158452602084019290925290820152606001610259565b34801561068257600080fd5b506102b6600081565b34801561069757600080fd5b506103946106a6366004611664565b6001602052600090815260409020546001600160a01b031681565b3480156106cd57600080fd5b50600554610394906001600160a01b031681565b3480156106ed57600080fd5b5061022b6106fc36600461167d565b611186565b34801561070d57600080fd5b506102b660065481565b600061072e6000356001600160e01b03191661108a565b90506001600160a01b0381161580159061074b575060005460ff16155b6107975760405162461bcd60e51b815260206004820152601d60248201527f50726f78793a20696d706c204f522070726f78792069732066616c7365000000604482015260640161021a565b3660008037600080366000845af43d6000803e8080156107b6573d6000f35b3d6000fd5b505050565b60006001600160e01b03198216637965db0b60e01b14806107f157506301ffc9a760e01b6001600160e01b03198316145b92915050565b61080033610872565b6108455760405162461bcd60e51b8152602060048201526022602482015260008051602061192a83398151915260448201526134b760f11b606482015260840161021a565b61086f7fdf8b4c520ffe197c5343c6f5aec59570151ef9a492f2c624fd45ddde6135ec42826108d7565b50565b6001600160a01b03811660009081527f2fb794d17134dfdec181ddbac1babb5ab1eb140204ef4d982f294e7fc8b69022602052604081205460ff166107f1565b6000828152600460205260409020600101546108cd816111ab565b6107bb83836111b5565b6001600160a01b03811633146109555760405162461bcd60e51b815260206004820152602f60248201527f416363657373436f6e74726f6c3a2063616e206f6e6c792072656e6f756e636560448201527f20726f6c657320666f722073656c660000000000000000000000000000000000606482015260840161021a565b61095f8282611257565b5050565b61096c33610872565b6109b15760405162461bcd60e51b8152602060048201526022602482015260008051602061192a83398151915260448201526134b760f11b606482015260840161021a565b6001600160a01b038116610a075760405162461bcd60e51b815260206004820152600d60248201527f696e707574206973207a65726f00000000000000000000000000000000000000604482015260640161021a565b6000805260016020527fa6eef7e35abe7026729641147f7915573c7e97b47efa546f5f6e3230263bcb49546001600160a01b03828116911603610a785760405162461bcd60e51b815260206004820152600960248201526839b0b6b29030b2323960b91b604482015260640161021a565b610a8581600060016112da565b6040516001600160a01b038216907fbc7cd75a20ee27fd9adebab32041f755214dbc6bffa90cc0225b39da2e5c2d3b90600090a250565b600b8181548110610acc57600080fd5b6000918252602090912001546001600160a01b0316905081565b610aef33610872565b610b345760405162461bcd60e51b8152602060048201526022602482015260008051602061192a83398151915260448201526134b760f11b606482015260840161021a565b81610b815760405162461bcd60e51b815260206004820181905260248201527f50726f78793a205f73656c6563746f727327732073697a65206973207a65726f604482015260640161021a565b6001600160a01b03811660009081526002602052604090205460ff16610be95760405162461bcd60e51b815260206004820152601860248201527f50726f78793a205f696d70206973206e6f7420616c6976650000000000000000604482015260640161021a565b60005b82811015610d8d57816001600160a01b031660036000868685818110610c1457610c146117b5565b9050602002016020810190610c299190611608565b6001600160e01b03191681526020810191909152604001600020546001600160a01b031603610c9a5760405162461bcd60e51b815260206004820152601d60248201527f4c69717569646974795661756c7450726f78793a2073616d6520696d70000000604482015260640161021a565b8160036000868685818110610cb157610cb16117b5565b9050602002016020810190610cc69190611608565b6001600160e01b03191681526020810191909152604001600020805473ffffffffffffffffffffffffffffffffffffffff19166001600160a01b039283161790558216848483818110610d1b57610d1b6117b5565b9050602002016020810190610d309190611608565b7bffffffffffffffffffffffffffffffffffffffffffffffffffffffff19167f14ebc1c32aa68f4d766e89f3e546cee249f7df25183fc10ab1568d91c2ce9b7b60405160405180910390a380610d85816117e1565b915050610bec565b50505050565b610d9c33610872565b610de15760405162461bcd60e51b8152602060048201526022602482015260008051602061192a83398151915260448201526134b760f11b606482015260840161021a565b61095f8282611372565b610df433610872565b610e395760405162461bcd60e51b8152602060048201526022602482015260008051602061192a83398151915260448201526134b760f11b606482015260840161021a565b61086f7fdf8b4c520ffe197c5343c6f5aec59570151ef9a492f2c624fd45ddde6135ec42826108b2565b610e6c33610872565b610eb15760405162461bcd60e51b8152602060048201526022602482015260008051602061192a83398151915260448201526134b760f11b606482015260840161021a565b6001600160a01b038116610f075760405162461bcd60e51b815260206004820152601860248201527f41636365737369626c653a207a65726f20616464726573730000000000000000604482015260640161021a565b6001600160a01b0381163303610f5f5760405162461bcd60e51b815260206004820152601660248201527f41636365737369626c653a2073616d652061646d696e00000000000000000000604482015260640161021a565b610f897fdf8b4c520ffe197c5343c6f5aec59570151ef9a492f2c624fd45ddde6135ec42826108b2565b61086f7fdf8b4c520ffe197c5343c6f5aec59570151ef9a492f2c624fd45ddde6135ec42336108d7565b610fbc33610872565b6110015760405162461bcd60e51b8152602060048201526022602482015260008051602061192a83398151915260448201526134b760f11b606482015260840161021a565b6000805460ff1916911515919091179055565b61101d33610872565b6110625760405162461bcd60e51b8152602060048201526022602482015260008051602061192a83398151915260448201526134b760f11b606482015260840161021a565b6107bb8383836112da565b6000818152600160205260408120546001600160a01b03166107f1565b6001600160e01b031981166000908152600360205260408120546001600160a01b03166110ea5750506000805260016020527fa6eef7e35abe7026729641147f7915573c7e97b47efa546f5f6e3230263bcb49546001600160a01b031690565b6001600160e01b031982166000908152600360209081526040808320546001600160a01b03168352600290915290205460ff161561114857506001600160e01b0319166000908152600360205260409020546001600160a01b031690565b50506000805260016020527fa6eef7e35abe7026729641147f7915573c7e97b47efa546f5f6e3230263bcb49546001600160a01b031690565b919050565b6000828152600460205260409020600101546111a1816111ab565b6107bb8383611257565b61086f81336113d1565b60008281526004602090815260408083206001600160a01b038516845290915290205460ff1661095f5760008281526004602090815260408083206001600160a01b03851684529091529020805460ff191660011790556112133390565b6001600160a01b0316816001600160a01b0316837f2f8788117e7eff1d82e926ec794901d17c78024a50270940304540a733656f0d60405160405180910390a45050565b60008281526004602090815260408083206001600160a01b038516845290915290205460ff161561095f5760008281526004602090815260408083206001600160a01b0385168085529252808320805460ff1916905551339285917ff6391f5c32d9c69d2a47ea670b442974b53935d1edc7fd64eb21e047a839171b9190a45050565b6001600160a01b0383163b6113315760405162461bcd60e51b815260206004820152601b60248201527f50726f78793a206e6f7420636f6e747261637420616464726573730000000000604482015260640161021a565b801561136c576000828152600160205260409020805473ffffffffffffffffffffffffffffffffffffffff19166001600160a01b0385161790555b6107bb83825b6001600160a01b038216600081815260026020908152604091829020805460ff191685151590811790915591519182527f72558d9bfba4210f9ef095c782589484151f6d90f7a81bb3cb9b33efc695d324910160405180910390a25050565b60008281526004602090815260408083206001600160a01b038516845290915290205460ff1661095f5761140481611446565b61140f836020611458565b60405160200161142092919061181e565b60408051601f198184030181529082905262461bcd60e51b825261021a9160040161189f565b60606107f16001600160a01b03831660145b606060006114678360026118d2565b6114729060026118e9565b67ffffffffffffffff81111561148a5761148a6118fc565b6040519080825280601f01601f1916602001820160405280156114b4576020820181803683370190505b509050600360fc1b816000815181106114cf576114cf6117b5565b60200101906001600160f81b031916908160001a905350600f60fb1b816001815181106114fe576114fe6117b5565b60200101906001600160f81b031916908160001a90535060006115228460026118d2565b61152d9060016118e9565b90505b60018111156115b2577f303132333435363738396162636465660000000000000000000000000000000085600f166010811061156e5761156e6117b5565b1a60f81b828281518110611584576115846117b5565b60200101906001600160f81b031916908160001a90535060049490941c936115ab81611912565b9050611530565b5083156116015760405162461bcd60e51b815260206004820181905260248201527f537472696e67733a20686578206c656e67746820696e73756666696369656e74604482015260640161021a565b9392505050565b60006020828403121561161a57600080fd5b81356001600160e01b03198116811461160157600080fd5b80356001600160a01b038116811461118157600080fd5b60006020828403121561165b57600080fd5b61160182611632565b60006020828403121561167657600080fd5b5035919050565b6000806040838503121561169057600080fd5b823591506116a060208401611632565b90509250929050565b6000806000604084860312156116be57600080fd5b833567ffffffffffffffff808211156116d657600080fd5b818601915086601f8301126116ea57600080fd5b8135818111156116f957600080fd5b8760208260051b850101111561170e57600080fd5b6020928301955093506117249186019050611632565b90509250925092565b8035801515811461118157600080fd5b6000806040838503121561175057600080fd5b61175983611632565b91506116a06020840161172d565b60006020828403121561177957600080fd5b6116018261172d565b60008060006060848603121561179757600080fd5b6117a084611632565b9250602084013591506117246040850161172d565b634e487b7160e01b600052603260045260246000fd5b634e487b7160e01b600052601160045260246000fd5b6000600182016117f3576117f36117cb565b5060010190565b60005b838110156118155781810151838201526020016117fd565b50506000910152565b7f416363657373436f6e74726f6c3a206163636f756e74200000000000000000008152600083516118568160178501602088016117fa565b7f206973206d697373696e6720726f6c652000000000000000000000000000000060179184019182015283516118938160288401602088016117fa565b01602801949350505050565b60208152600082518060208401526118be8160408501602087016117fa565b601f01601f19169190910160400192915050565b80820281158282048414176107f1576107f16117cb565b808201808211156107f1576107f16117cb565b634e487b7160e01b600052604160045260246000fd5b600081611921576119216117cb565b50600019019056fe41636365737369626c653a2043616c6c6572206973206e6f7420616e2061646da164736f6c6343000812000adf8b4c520ffe197c5343c6f5aec59570151ef9a492f2c624fd45ddde6135ec42",
  "linkReferences": {},
  "deployedLinkReferences": {}
}