{
  "_format": "hh-sol-artifact-1",
  "contractName": "L2PaymasterDeposit",
  "sourceName": "contracts/L2/L2PaymasterDeposit.sol",
  "abi": [
    {
      "inputs": [
        {
          "internalType": "address",
          "name": "_paymaster",
          "type": "address"
        }
      ],
      "stateMutability": "nonpayable",
      "type": "constructor"
    },
    {
      "anonymous": false,
      "inputs": [
        {
          "indexed": true,
          "internalType": "address",
          "name": "l1Token",
          "type": "address"
        },
        {
          "indexed": true,
          "internalType": "address",
          "name": "account",
          "type": "address"
        },
        {
          "indexed": false,
          "internalType": "uint256",
          "name": "amount",
          "type": "uint256"
        }
      ],
      "name": "AddedDepositFor",
      "type": "event"
    },
    {
      "anonymous": false,
      "inputs": [
        {
          "indexed": true,
          "internalType": "address",
          "name": "l1Token",
          "type": "address"
        },
        {
          "indexed": true,
          "internalType": "address",
          "name": "account",
          "type": "address"
        },
        {
          "indexed": false,
          "internalType": "uint256",
          "name": "amount",
          "type": "uint256"
        }
      ],
      "name": "InsufficentBalance",
      "type": "event"
    },
    {
      "inputs": [
        {
          "internalType": "address",
          "name": "token",
          "type": "address"
        },
        {
          "internalType": "address",
          "name": "account",
          "type": "address"
        },
        {
          "internalType": "uint256",
          "name": "amount",
          "type": "uint256"
        }
      ],
      "name": "addDepositFor",
      "outputs": [],
      "stateMutability": "nonpayable",
      "type": "function"
    },
    {
      "inputs": [],
      "name": "paymaster",
      "outputs": [
        {
          "internalType": "address",
          "name": "",
          "type": "address"
        }
      ],
      "stateMutability": "view",
      "type": "function"
    }
  ],
  "bytecode": "0x608060405234801561001057600080fd5b5060405161043c38038061043c83398101604081905261002f91610054565b600080546001600160a01b0319166001600160a01b0392909216919091179055610084565b60006020828403121561006657600080fd5b81516001600160a01b038116811461007d57600080fd5b9392505050565b6103a9806100936000396000f3fe608060405234801561001057600080fd5b50600436106100365760003560e01c806316e4cbf91461003b578063382edd9e1461006a575b600080fd5b60005461004e906001600160a01b031681565b6040516001600160a01b03909116815260200160405180910390f35b61007d61007836600461031e565b61007f565b005b6040516370a0823160e01b81523060048201526000906001600160a01b038516906370a0823190602401602060405180830381865afa1580156100c6573d6000803e3d6000fd5b505050506040513d601f19601f820116820180604052508101906100ea919061035a565b90508181101561014657826001600160a01b0316846001600160a01b03167f6135683c46ccfd87997866988f1feec9b7ee78524ee172a6f82e0879ea3723408460405161013991815260200190565b60405180910390a36102fc565b60008054604051636eb1769f60e11b81523060048201526001600160a01b0391821660248201529086169063dd62ed3e90604401602060405180830381865afa158015610197573d6000803e3d6000fd5b505050506040513d601f19601f820116820180604052508101906101bb919061035a565b90508281101561023f5760005460405163095ea7b360e01b81526001600160a01b03918216600482015260001960248201529086169063095ea7b3906044016020604051808303816000875af1158015610219573d6000803e3d6000fd5b505050506040513d601f19601f8201168201806040525081019061023d9190610373565b505b600054604051631c176ecf60e11b81526001600160a01b0387811660048301528681166024830152604482018690529091169063382edd9e90606401600060405180830381600087803b15801561029557600080fd5b505af11580156102a9573d6000803e3d6000fd5b50505050836001600160a01b0316856001600160a01b03167f0ab8578ff65626ad8321804f7cb288ea085cf656aeeba75c88157050a28c0bcb856040516102f291815260200190565b60405180910390a3505b50505050565b80356001600160a01b038116811461031957600080fd5b919050565b60008060006060848603121561033357600080fd5b61033c84610302565b925061034a60208501610302565b9150604084013590509250925092565b60006020828403121561036c57600080fd5b5051919050565b60006020828403121561038557600080fd5b8151801515811461039557600080fd5b939250505056fea164736f6c6343000812000a",
  "linkReferences": {},
  "deployedLinkReferences": {}
}