{
  "_format": "hh-sol-artifact-1",
  "contractName": "L2PublicSaleVault",
  "sourceName": "contracts/L2/vaults/L2PublicSaleVault.sol",
  "abi": [
    {
      "anonymous": false,
      "inputs": [
        {
          "indexed": false,
          "internalType": "address",
          "name": "l2Token",
          "type": "address"
        },
        {
          "indexed": true,
          "internalType": "address",
          "name": "from",
          "type": "address"
        },
        {
          "indexed": false,
          "internalType": "uint256",
          "name": "tier",
          "type": "uint256"
        }
      ],
      "name": "AddedWhiteList",
      "type": "event"
    },
    {
      "anonymous": false,
      "inputs": [
        {
          "indexed": false,
          "internalType": "address",
          "name": "l2Token",
          "type": "address"
        },
        {
          "indexed": true,
          "internalType": "address",
          "name": "from",
          "type": "address"
        },
        {
          "indexed": false,
          "internalType": "uint256",
          "name": "amount",
          "type": "uint256"
        }
      ],
      "name": "Claimed",
      "type": "event"
    },
    {
      "anonymous": false,
      "inputs": [
        {
          "indexed": false,
          "internalType": "address",
          "name": "l2Token",
          "type": "address"
        },
        {
          "indexed": true,
          "internalType": "address",
          "name": "from",
          "type": "address"
        },
        {
          "indexed": false,
          "internalType": "uint256",
          "name": "amount",
          "type": "uint256"
        },
        {
          "indexed": false,
          "internalType": "uint256",
          "name": "liquidityAmount",
          "type": "uint256"
        }
      ],
      "name": "DepositWithdrawal",
      "type": "event"
    },
    {
      "anonymous": false,
      "inputs": [
        {
          "indexed": false,
          "internalType": "address",
          "name": "l2Token",
          "type": "address"
        },
        {
          "indexed": true,
          "internalType": "address",
          "name": "from",
          "type": "address"
        },
        {
          "indexed": false,
          "internalType": "uint256",
          "name": "amount",
          "type": "uint256"
        }
      ],
      "name": "Deposited",
      "type": "event"
    },
    {
      "anonymous": false,
      "inputs": [
        {
          "indexed": false,
          "internalType": "address",
          "name": "l2Token",
          "type": "address"
        },
        {
          "indexed": true,
          "internalType": "address",
          "name": "from",
          "type": "address"
        },
        {
          "indexed": false,
          "internalType": "uint256",
          "name": "amountIn",
          "type": "uint256"
        },
        {
          "indexed": false,
          "internalType": "uint256",
          "name": "amountOut",
          "type": "uint256"
        }
      ],
      "name": "ExchangeSwap",
      "type": "event"
    },
    {
      "anonymous": false,
      "inputs": [
        {
          "indexed": false,
          "internalType": "address",
          "name": "l2Token",
          "type": "address"
        },
        {
          "indexed": true,
          "internalType": "address",
          "name": "from",
          "type": "address"
        },
        {
          "indexed": false,
          "internalType": "uint256",
          "name": "amount",
          "type": "uint256"
        }
      ],
      "name": "ExclusiveSaled",
      "type": "event"
    },
    {
      "anonymous": false,
      "inputs": [
        {
          "indexed": false,
          "internalType": "address",
          "name": "l2Token",
          "type": "address"
        },
        {
          "indexed": true,
          "internalType": "address",
          "name": "from",
          "type": "address"
        },
        {
          "indexed": false,
          "internalType": "uint256",
          "name": "amount",
          "type": "uint256"
        }
      ],
      "name": "Refunded",
      "type": "event"
    },
    {
      "anonymous": false,
      "inputs": [
        {
          "indexed": true,
          "internalType": "bytes32",
          "name": "role",
          "type": "bytes32"
        },
        {
          "indexed": true,
          "internalType": "bytes32",
          "name": "previousAdminRole",
          "type": "bytes32"
        },
        {
          "indexed": true,
          "internalType": "bytes32",
          "name": "newAdminRole",
          "type": "bytes32"
        }
      ],
      "name": "RoleAdminChanged",
      "type": "event"
    },
    {
      "anonymous": false,
      "inputs": [
        {
          "indexed": true,
          "internalType": "bytes32",
          "name": "role",
          "type": "bytes32"
        },
        {
          "indexed": true,
          "internalType": "address",
          "name": "account",
          "type": "address"
        },
        {
          "indexed": true,
          "internalType": "address",
          "name": "sender",
          "type": "address"
        }
      ],
      "name": "RoleGranted",
      "type": "event"
    },
    {
      "anonymous": false,
      "inputs": [
        {
          "indexed": true,
          "internalType": "bytes32",
          "name": "role",
          "type": "bytes32"
        },
        {
          "indexed": true,
          "internalType": "address",
          "name": "account",
          "type": "address"
        },
        {
          "indexed": true,
          "internalType": "address",
          "name": "sender",
          "type": "address"
        }
      ],
      "name": "RoleRevoked",
      "type": "event"
    },
    {
      "anonymous": false,
      "inputs": [
        {
          "indexed": false,
          "internalType": "address",
          "name": "newInitializer",
          "type": "address"
        }
      ],
      "name": "SetInitializer",
      "type": "event"
    },
    {
      "anonymous": false,
      "inputs": [
        {
          "indexed": false,
          "internalType": "address",
          "name": "l2Token",
          "type": "address"
        },
        {
          "indexed": false,
          "internalType": "address",
          "name": "newAdmin",
          "type": "address"
        }
      ],
      "name": "SetVaultAdmin",
      "type": "event"
    },
    {
      "inputs": [],
      "name": "ADMIN_ROLE",
      "outputs": [
        {
          "internalType": "bytes32",
          "name": "",
          "type": "bytes32"
        }
      ],
      "stateMutability": "view",
      "type": "function"
    },
    {
      "inputs": [],
      "name": "DEFAULT_ADMIN_ROLE",
      "outputs": [
        {
          "internalType": "bytes32",
          "name": "",
          "type": "bytes32"
        }
      ],
      "stateMutability": "view",
      "type": "function"
    },
    {
      "inputs": [],
      "name": "POLICY_ROLE",
      "outputs": [
        {
          "internalType": "bytes32",
          "name": "",
          "type": "bytes32"
        }
      ],
      "stateMutability": "view",
      "type": "function"
    },
    {
      "inputs": [
        {
          "internalType": "address",
          "name": "account",
          "type": "address"
        }
      ],
      "name": "addAdmin",
      "outputs": [],
      "stateMutability": "nonpayable",
      "type": "function"
    },
    {
      "inputs": [
        {
          "internalType": "address",
          "name": "_l2token",
          "type": "address"
        }
      ],
      "name": "addWhiteList",
      "outputs": [],
      "stateMutability": "nonpayable",
      "type": "function"
    },
    {
      "inputs": [
        {
          "internalType": "address",
          "name": "",
          "type": "address"
        }
      ],
      "name": "aliveImplementation",
      "outputs": [
        {
          "internalType": "bool",
          "name": "",
          "type": "bool"
        }
      ],
      "stateMutability": "view",
      "type": "function"
    },
    {
      "inputs": [
        {
          "internalType": "address",
          "name": "_l2token",
          "type": "address"
        },
        {
          "internalType": "address",
          "name": "_account",
          "type": "address"
        }
      ],
      "name": "calcul1RoundAmount",
      "outputs": [
        {
          "internalType": "uint256",
          "name": "",
          "type": "uint256"
        }
      ],
      "stateMutability": "view",
      "type": "function"
    },
    {
      "inputs": [
        {
          "internalType": "address",
          "name": "_l2token",
          "type": "address"
        },
        {
          "internalType": "address",
          "name": "_account",
          "type": "address"
        },
        {
          "internalType": "uint256",
          "name": "_round",
          "type": "uint256"
        }
      ],
      "name": "calculClaimAmount",
      "outputs": [
        {
          "internalType": "uint256",
          "name": "_reward",
          "type": "uint256"
        },
        {
          "internalType": "uint256",
          "name": "_totalClaim",
          "type": "uint256"
        },
        {
          "internalType": "uint256",
          "name": "_refundAmount",
          "type": "uint256"
        }
      ],
      "stateMutability": "view",
      "type": "function"
    },
    {
      "inputs": [
        {
          "internalType": "address",
          "name": "_l2token",
          "type": "address"
        },
        {
          "internalType": "address",
          "name": "_account",
          "type": "address"
        },
        {
          "internalType": "uint256",
          "name": "_amount",
          "type": "uint256"
        }
      ],
      "name": "calculOpenSaleAmount",
      "outputs": [
        {
          "internalType": "uint256",
          "name": "",
          "type": "uint256"
        }
      ],
      "stateMutability": "view",
      "type": "function"
    },
    {
      "inputs": [
        {
          "internalType": "address",
          "name": "_l2token",
          "type": "address"
        },
        {
          "internalType": "uint256",
          "name": "_amount",
          "type": "uint256"
        }
      ],
      "name": "calculPayToken",
      "outputs": [
        {
          "internalType": "uint256",
          "name": "",
          "type": "uint256"
        }
      ],
      "stateMutability": "view",
      "type": "function"
    },
    {
      "inputs": [
        {
          "internalType": "address",
          "name": "_l2token",
          "type": "address"
        },
        {
          "internalType": "uint256",
          "name": "_amount",
          "type": "uint256"
        }
      ],
      "name": "calculSaleToken",
      "outputs": [
        {
          "internalType": "uint256",
          "name": "",
          "type": "uint256"
        }
      ],
      "stateMutability": "view",
      "type": "function"
    },
    {
      "inputs": [
        {
          "internalType": "address",
          "name": "_l2token",
          "type": "address"
        },
        {
          "internalType": "address",
          "name": "_account",
          "type": "address"
        }
      ],
      "name": "calculTier",
      "outputs": [
        {
          "internalType": "uint8",
          "name": "",
          "type": "uint8"
        }
      ],
      "stateMutability": "view",
      "type": "function"
    },
    {
      "inputs": [
        {
          "internalType": "address",
          "name": "_l2token",
          "type": "address"
        },
        {
          "internalType": "address",
          "name": "_account",
          "type": "address"
        },
        {
          "internalType": "uint8",
          "name": "tier",
          "type": "uint8"
        }
      ],
      "name": "calculTierAmount",
      "outputs": [
        {
          "internalType": "uint256",
          "name": "",
          "type": "uint256"
        }
      ],
      "stateMutability": "view",
      "type": "function"
    },
    {
      "inputs": [],
      "name": "changeTick",
      "outputs": [
        {
          "internalType": "int24",
          "name": "",
          "type": "int24"
        }
      ],
      "stateMutability": "view",
      "type": "function"
    },
    {
      "inputs": [
        {
          "internalType": "address",
          "name": "_l2token",
          "type": "address"
        }
      ],
      "name": "claim",
      "outputs": [],
      "stateMutability": "nonpayable",
      "type": "function"
    },
    {
      "inputs": [
        {
          "internalType": "address",
          "name": "",
          "type": "address"
        }
      ],
      "name": "claimInfo",
      "outputs": [
        {
          "internalType": "uint256",
          "name": "totalClaimCounts",
          "type": "uint256"
        },
        {
          "internalType": "uint256",
          "name": "firstClaimPercent",
          "type": "uint256"
        },
        {
          "internalType": "uint256",
          "name": "firstClaimTime",
          "type": "uint256"
        },
        {
          "internalType": "uint256",
          "name": "secondClaimTime",
          "type": "uint256"
        },
        {
          "internalType": "uint256",
          "name": "claimInterval",
          "type": "uint256"
        }
      ],
      "stateMutability": "view",
      "type": "function"
    },
    {
      "inputs": [
        {
          "internalType": "address",
          "name": "",
          "type": "address"
        },
        {
          "internalType": "uint256",
          "name": "",
          "type": "uint256"
        }
      ],
      "name": "claimPercents",
      "outputs": [
        {
          "internalType": "uint256",
          "name": "",
          "type": "uint256"
        }
      ],
      "stateMutability": "view",
      "type": "function"
    },
    {
      "inputs": [
        {
          "internalType": "address",
          "name": "",
          "type": "address"
        },
        {
          "internalType": "uint256",
          "name": "",
          "type": "uint256"
        }
      ],
      "name": "claimTimes",
      "outputs": [
        {
          "internalType": "uint256",
          "name": "",
          "type": "uint256"
        }
      ],
      "stateMutability": "view",
      "type": "function"
    },
    {
      "inputs": [
        {
          "internalType": "address",
          "name": "_l2token",
          "type": "address"
        }
      ],
      "name": "currentRound",
      "outputs": [
        {
          "internalType": "uint256",
          "name": "round",
          "type": "uint256"
        }
      ],
      "stateMutability": "view",
      "type": "function"
    },
    {
      "inputs": [],
      "name": "delayTime",
      "outputs": [
        {
          "internalType": "uint256",
          "name": "",
          "type": "uint256"
        }
      ],
      "stateMutability": "view",
      "type": "function"
    },
    {
      "inputs": [
        {
          "internalType": "address",
          "name": "_l2token",
          "type": "address"
        }
      ],
      "name": "depositWithdraw",
      "outputs": [],
      "stateMutability": "payable",
      "type": "function"
    },
    {
      "inputs": [
        {
          "internalType": "address",
          "name": "",
          "type": "address"
        },
        {
          "internalType": "uint256",
          "name": "",
          "type": "uint256"
        }
      ],
      "name": "depositors",
      "outputs": [
        {
          "internalType": "address",
          "name": "",
          "type": "address"
        }
      ],
      "stateMutability": "view",
      "type": "function"
    },
    {
      "inputs": [
        {
          "internalType": "address",
          "name": "_l2token",
          "type": "address"
        },
        {
          "internalType": "uint256",
          "name": "amountIn",
          "type": "uint256"
        }
      ],
      "name": "exchangeWTONtoTOS",
      "outputs": [],
      "stateMutability": "payable",
      "type": "function"
    },
    {
      "inputs": [
        {
          "internalType": "bytes32",
          "name": "role",
          "type": "bytes32"
        }
      ],
      "name": "getRoleAdmin",
      "outputs": [
        {
          "internalType": "bytes32",
          "name": "",
          "type": "bytes32"
        }
      ],
      "stateMutability": "view",
      "type": "function"
    },
    {
      "inputs": [
        {
          "internalType": "bytes32",
          "name": "role",
          "type": "bytes32"
        },
        {
          "internalType": "address",
          "name": "account",
          "type": "address"
        }
      ],
      "name": "grantRole",
      "outputs": [],
      "stateMutability": "nonpayable",
      "type": "function"
    },
    {
      "inputs": [
        {
          "internalType": "address",
          "name": "_l2token",
          "type": "address"
        }
      ],
      "name": "hardcapCalcul",
      "outputs": [
        {
          "internalType": "uint256",
          "name": "",
          "type": "uint256"
        }
      ],
      "stateMutability": "view",
      "type": "function"
    },
    {
      "inputs": [
        {
          "internalType": "bytes32",
          "name": "role",
          "type": "bytes32"
        },
        {
          "internalType": "address",
          "name": "account",
          "type": "address"
        }
      ],
      "name": "hasRole",
      "outputs": [
        {
          "internalType": "bool",
          "name": "",
          "type": "bool"
        }
      ],
      "stateMutability": "view",
      "type": "function"
    },
    {
      "inputs": [
        {
          "internalType": "address",
          "name": "account",
          "type": "address"
        }
      ],
      "name": "isAdmin",
      "outputs": [
        {
          "internalType": "bool",
          "name": "",
          "type": "bool"
        }
      ],
      "stateMutability": "view",
      "type": "function"
    },
    {
      "inputs": [],
      "name": "l1burnVault",
      "outputs": [
        {
          "internalType": "address",
          "name": "",
          "type": "address"
        }
      ],
      "stateMutability": "view",
      "type": "function"
    },
    {
      "inputs": [],
      "name": "l2Bridge",
      "outputs": [
        {
          "internalType": "address",
          "name": "",
          "type": "address"
        }
      ],
      "stateMutability": "view",
      "type": "function"
    },
    {
      "inputs": [],
      "name": "l2ProjectManager",
      "outputs": [
        {
          "internalType": "address",
          "name": "",
          "type": "address"
        }
      ],
      "stateMutability": "view",
      "type": "function"
    },
    {
      "inputs": [],
      "name": "liquidityVault",
      "outputs": [
        {
          "internalType": "address",
          "name": "",
          "type": "address"
        }
      ],
      "stateMutability": "view",
      "type": "function"
    },
    {
      "inputs": [],
      "name": "lockTOS",
      "outputs": [
        {
          "internalType": "address",
          "name": "",
          "type": "address"
        }
      ],
      "stateMutability": "view",
      "type": "function"
    },
    {
      "inputs": [
        {
          "internalType": "address",
          "name": "",
          "type": "address"
        }
      ],
      "name": "manageInfo",
      "outputs": [
        {
          "internalType": "uint256",
          "name": "set1rdTokenAmount",
          "type": "uint256"
        },
        {
          "internalType": "uint256",
          "name": "set2rdTokenAmount",
          "type": "uint256"
        },
        {
          "internalType": "uint256",
          "name": "saleTokenPrice",
          "type": "uint256"
        },
        {
          "internalType": "uint256",
          "name": "tonPrice",
          "type": "uint256"
        },
        {
          "internalType": "uint256",
          "name": "hardCap",
          "type": "uint256"
        },
        {
          "internalType": "uint256",
          "name": "changeTOS",
          "type": "uint256"
        },
        {
          "internalType": "uint256",
          "name": "remainTON",
          "type": "uint256"
        },
        {
          "internalType": "int24",
          "name": "changeTick",
          "type": "int24"
        },
        {
          "internalType": "bool",
          "name": "exchangeTOS",
          "type": "bool"
        },
        {
          "internalType": "bool",
          "name": "adminWithdraw",
          "type": "bool"
        }
      ],
      "stateMutability": "view",
      "type": "function"
    },
    {
      "inputs": [],
      "name": "maxPer",
      "outputs": [
        {
          "internalType": "uint8",
          "name": "",
          "type": "uint8"
        }
      ],
      "stateMutability": "view",
      "type": "function"
    },
    {
      "inputs": [],
      "name": "minPer",
      "outputs": [
        {
          "internalType": "uint8",
          "name": "",
          "type": "uint8"
        }
      ],
      "stateMutability": "view",
      "type": "function"
    },
    {
      "inputs": [
        {
          "internalType": "address",
          "name": "_l2token",
          "type": "address"
        },
        {
          "internalType": "address",
          "name": "user",
          "type": "address"
        }
      ],
      "name": "openSaleUserAmount",
      "outputs": [
        {
          "internalType": "uint256",
          "name": "_realPayAmount",
          "type": "uint256"
        },
        {
          "internalType": "uint256",
          "name": "_realSaleAmount",
          "type": "uint256"
        },
        {
          "internalType": "uint256",
          "name": "_refundAmount",
          "type": "uint256"
        }
      ],
      "stateMutability": "view",
      "type": "function"
    },
    {
      "inputs": [],
      "name": "pauseProxy",
      "outputs": [
        {
          "internalType": "bool",
          "name": "",
          "type": "bool"
        }
      ],
      "stateMutability": "view",
      "type": "function"
    },
    {
      "inputs": [],
      "name": "poolFee",
      "outputs": [
        {
          "internalType": "uint24",
          "name": "",
          "type": "uint24"
        }
      ],
      "stateMutability": "view",
      "type": "function"
    },
    {
      "inputs": [
        {
          "internalType": "uint256",
          "name": "",
          "type": "uint256"
        }
      ],
      "name": "proxyImplementation",
      "outputs": [
        {
          "internalType": "address",
          "name": "",
          "type": "address"
        }
      ],
      "stateMutability": "view",
      "type": "function"
    },
    {
      "inputs": [],
      "name": "quoter",
      "outputs": [
        {
          "internalType": "address",
          "name": "",
          "type": "address"
        }
      ],
      "stateMutability": "view",
      "type": "function"
    },
    {
      "inputs": [
        {
          "internalType": "address",
          "name": "account",
          "type": "address"
        }
      ],
      "name": "removeAdmin",
      "outputs": [],
      "stateMutability": "nonpayable",
      "type": "function"
    },
    {
      "inputs": [
        {
          "internalType": "bytes32",
          "name": "role",
          "type": "bytes32"
        },
        {
          "internalType": "address",
          "name": "account",
          "type": "address"
        }
      ],
      "name": "renounceRole",
      "outputs": [],
      "stateMutability": "nonpayable",
      "type": "function"
    },
    {
      "inputs": [
        {
          "internalType": "bytes32",
          "name": "role",
          "type": "bytes32"
        },
        {
          "internalType": "address",
          "name": "account",
          "type": "address"
        }
      ],
      "name": "revokeRole",
      "outputs": [],
      "stateMutability": "nonpayable",
      "type": "function"
    },
    {
      "inputs": [
        {
          "internalType": "address",
          "name": "_l2token",
          "type": "address"
        },
        {
          "internalType": "uint256",
          "name": "_amount",
          "type": "uint256"
        }
      ],
      "name": "round1Sale",
      "outputs": [],
      "stateMutability": "payable",
      "type": "function"
    },
    {
      "inputs": [
        {
          "internalType": "address",
          "name": "_l2token",
          "type": "address"
        },
        {
          "internalType": "uint256",
          "name": "_amount",
          "type": "uint256"
        }
      ],
      "name": "round2Sale",
      "outputs": [],
      "stateMutability": "payable",
      "type": "function"
    },
    {
      "inputs": [
        {
          "internalType": "address",
          "name": "",
          "type": "address"
        }
      ],
      "name": "saleInfo",
      "outputs": [
        {
          "internalType": "uint256",
          "name": "total1rdSaleAmount",
          "type": "uint256"
        },
        {
          "internalType": "uint256",
          "name": "total1rdTONAmount",
          "type": "uint256"
        },
        {
          "internalType": "uint256",
          "name": "totalUsers",
          "type": "uint256"
        },
        {
          "internalType": "uint256",
          "name": "total1rdUsers",
          "type": "uint256"
        },
        {
          "internalType": "uint256",
          "name": "total2rdUsers",
          "type": "uint256"
        },
        {
          "internalType": "uint256",
          "name": "total2rdUsersClaim",
          "type": "uint256"
        }
      ],
      "stateMutability": "view",
      "type": "function"
    },
    {
      "inputs": [
        {
          "internalType": "bytes4",
          "name": "",
          "type": "bytes4"
        }
      ],
      "name": "selectorImplementation",
      "outputs": [
        {
          "internalType": "address",
          "name": "",
          "type": "address"
        }
      ],
      "stateMutability": "view",
      "type": "function"
    },
    {
      "inputs": [],
      "name": "stanTier1",
      "outputs": [
        {
          "internalType": "uint256",
          "name": "",
          "type": "uint256"
        }
      ],
      "stateMutability": "view",
      "type": "function"
    },
    {
      "inputs": [],
      "name": "stanTier2",
      "outputs": [
        {
          "internalType": "uint256",
          "name": "",
          "type": "uint256"
        }
      ],
      "stateMutability": "view",
      "type": "function"
    },
    {
      "inputs": [],
      "name": "stanTier3",
      "outputs": [
        {
          "internalType": "uint256",
          "name": "",
          "type": "uint256"
        }
      ],
      "stateMutability": "view",
      "type": "function"
    },
    {
      "inputs": [],
      "name": "stanTier4",
      "outputs": [
        {
          "internalType": "uint256",
          "name": "",
          "type": "uint256"
        }
      ],
      "stateMutability": "view",
      "type": "function"
    },
    {
      "inputs": [
        {
          "internalType": "bytes4",
          "name": "interfaceId",
          "type": "bytes4"
        }
      ],
      "name": "supportsInterface",
      "outputs": [
        {
          "internalType": "bool",
          "name": "",
          "type": "bool"
        }
      ],
      "stateMutability": "view",
      "type": "function"
    },
    {
      "inputs": [
        {
          "internalType": "address",
          "name": "",
          "type": "address"
        },
        {
          "internalType": "uint8",
          "name": "",
          "type": "uint8"
        }
      ],
      "name": "tiers",
      "outputs": [
        {
          "internalType": "uint256",
          "name": "",
          "type": "uint256"
        }
      ],
      "stateMutability": "view",
      "type": "function"
    },
    {
      "inputs": [
        {
          "internalType": "address",
          "name": "",
          "type": "address"
        },
        {
          "internalType": "uint8",
          "name": "",
          "type": "uint8"
        }
      ],
      "name": "tiers1stAccount",
      "outputs": [
        {
          "internalType": "uint256",
          "name": "",
          "type": "uint256"
        }
      ],
      "stateMutability": "view",
      "type": "function"
    },
    {
      "inputs": [
        {
          "internalType": "address",
          "name": "",
          "type": "address"
        },
        {
          "internalType": "uint8",
          "name": "",
          "type": "uint8"
        }
      ],
      "name": "tiersCalculAccount",
      "outputs": [
        {
          "internalType": "uint256",
          "name": "",
          "type": "uint256"
        }
      ],
      "stateMutability": "view",
      "type": "function"
    },
    {
      "inputs": [
        {
          "internalType": "address",
          "name": "",
          "type": "address"
        },
        {
          "internalType": "uint8",
          "name": "",
          "type": "uint8"
        }
      ],
      "name": "tiersPercents",
      "outputs": [
        {
          "internalType": "uint256",
          "name": "",
          "type": "uint256"
        }
      ],
      "stateMutability": "view",
      "type": "function"
    },
    {
      "inputs": [
        {
          "internalType": "address",
          "name": "",
          "type": "address"
        },
        {
          "internalType": "uint8",
          "name": "",
          "type": "uint8"
        }
      ],
      "name": "tiersWhiteList",
      "outputs": [
        {
          "internalType": "uint256",
          "name": "",
          "type": "uint256"
        }
      ],
      "stateMutability": "view",
      "type": "function"
    },
    {
      "inputs": [
        {
          "internalType": "address",
          "name": "",
          "type": "address"
        }
      ],
      "name": "timeInfo",
      "outputs": [
        {
          "internalType": "uint256",
          "name": "deployTime",
          "type": "uint256"
        },
        {
          "internalType": "uint256",
          "name": "snapshot",
          "type": "uint256"
        },
        {
          "internalType": "uint256",
          "name": "whiteListStartTime",
          "type": "uint256"
        },
        {
          "internalType": "uint256",
          "name": "whiteListEndTime",
          "type": "uint256"
        },
        {
          "internalType": "uint256",
          "name": "round1StartTime",
          "type": "uint256"
        },
        {
          "internalType": "uint256",
          "name": "round1EndTime",
          "type": "uint256"
        },
        {
          "internalType": "uint256",
          "name": "round2StartTime",
          "type": "uint256"
        },
        {
          "internalType": "uint256",
          "name": "round2EndTime",
          "type": "uint256"
        }
      ],
      "stateMutability": "view",
      "type": "function"
    },
    {
      "inputs": [],
      "name": "ton",
      "outputs": [
        {
          "internalType": "address",
          "name": "",
          "type": "address"
        }
      ],
      "stateMutability": "view",
      "type": "function"
    },
    {
      "inputs": [],
      "name": "tos",
      "outputs": [
        {
          "internalType": "address",
          "name": "",
          "type": "address"
        }
      ],
      "stateMutability": "view",
      "type": "function"
    },
    {
      "inputs": [
        {
          "internalType": "address",
          "name": "",
          "type": "address"
        }
      ],
      "name": "totalDepositAmount",
      "outputs": [
        {
          "internalType": "uint256",
          "name": "",
          "type": "uint256"
        }
      ],
      "stateMutability": "view",
      "type": "function"
    },
    {
      "inputs": [
        {
          "internalType": "address",
          "name": "_l2token",
          "type": "address"
        }
      ],
      "name": "totalExpectOpenSaleAmountView",
      "outputs": [
        {
          "internalType": "uint256",
          "name": "",
          "type": "uint256"
        }
      ],
      "stateMutability": "view",
      "type": "function"
    },
    {
      "inputs": [
        {
          "internalType": "address",
          "name": "_l2token",
          "type": "address"
        }
      ],
      "name": "totalOpenPurchasedAmount",
      "outputs": [
        {
          "internalType": "uint256",
          "name": "",
          "type": "uint256"
        }
      ],
      "stateMutability": "view",
      "type": "function"
    },
    {
      "inputs": [
        {
          "internalType": "address",
          "name": "_l2token",
          "type": "address"
        }
      ],
      "name": "totalOpenSaleAmount",
      "outputs": [
        {
          "internalType": "uint256",
          "name": "",
          "type": "uint256"
        }
      ],
      "stateMutability": "view",
      "type": "function"
    },
    {
      "inputs": [
        {
          "internalType": "address",
          "name": "_l2token",
          "type": "address"
        }
      ],
      "name": "totalRound1NonSaleAmount",
      "outputs": [
        {
          "internalType": "uint256",
          "name": "",
          "type": "uint256"
        }
      ],
      "stateMutability": "view",
      "type": "function"
    },
    {
      "inputs": [
        {
          "internalType": "address",
          "name": "_l2token",
          "type": "address"
        },
        {
          "internalType": "address",
          "name": "user",
          "type": "address"
        }
      ],
      "name": "totalSaleUserAmount",
      "outputs": [
        {
          "internalType": "uint256",
          "name": "_realPayAmount",
          "type": "uint256"
        },
        {
          "internalType": "uint256",
          "name": "_realSaleAmount",
          "type": "uint256"
        },
        {
          "internalType": "uint256",
          "name": "_refundAmount",
          "type": "uint256"
        }
      ],
      "stateMutability": "view",
      "type": "function"
    },
    {
      "inputs": [
        {
          "internalType": "address",
          "name": "_l2token",
          "type": "address"
        }
      ],
      "name": "totalWhitelists",
      "outputs": [
        {
          "internalType": "uint256",
          "name": "",
          "type": "uint256"
        }
      ],
      "stateMutability": "view",
      "type": "function"
    },
    {
      "inputs": [
        {
          "internalType": "address",
          "name": "newAdmin",
          "type": "address"
        }
      ],
      "name": "transferAdmin",
      "outputs": [],
      "stateMutability": "nonpayable",
      "type": "function"
    },
    {
      "inputs": [],
      "name": "uniswapRouter",
      "outputs": [
        {
          "internalType": "address",
          "name": "",
          "type": "address"
        }
      ],
      "stateMutability": "view",
      "type": "function"
    },
    {
      "inputs": [
        {
          "internalType": "address",
          "name": "",
          "type": "address"
        },
        {
          "internalType": "address",
          "name": "",
          "type": "address"
        }
      ],
      "name": "user1rd",
      "outputs": [
        {
          "internalType": "bool",
          "name": "join",
          "type": "bool"
        },
        {
          "internalType": "uint8",
          "name": "tier",
          "type": "uint8"
        },
        {
          "internalType": "uint256",
          "name": "payAmount",
          "type": "uint256"
        },
        {
          "internalType": "uint256",
          "name": "saleAmount",
          "type": "uint256"
        }
      ],
      "stateMutability": "view",
      "type": "function"
    },
    {
      "inputs": [
        {
          "internalType": "address",
          "name": "",
          "type": "address"
        },
        {
          "internalType": "address",
          "name": "",
          "type": "address"
        }
      ],
      "name": "user2rd",
      "outputs": [
        {
          "internalType": "bool",
          "name": "join",
          "type": "bool"
        },
        {
          "internalType": "uint256",
          "name": "depositAmount",
          "type": "uint256"
        }
      ],
      "stateMutability": "view",
      "type": "function"
    },
    {
      "inputs": [
        {
          "internalType": "address",
          "name": "",
          "type": "address"
        },
        {
          "internalType": "address",
          "name": "",
          "type": "address"
        }
      ],
      "name": "userClaim",
      "outputs": [
        {
          "internalType": "bool",
          "name": "refund",
          "type": "bool"
        },
        {
          "internalType": "uint256",
          "name": "claimAmount",
          "type": "uint256"
        },
        {
          "internalType": "uint256",
          "name": "refundAmount",
          "type": "uint256"
        },
        {
          "internalType": "uint256",
          "name": "latestClaimedRound",
          "type": "uint256"
        }
      ],
      "stateMutability": "view",
      "type": "function"
    },
    {
      "inputs": [
        {
          "internalType": "address",
          "name": "",
          "type": "address"
        }
      ],
      "name": "vaultAdminOfToken",
      "outputs": [
        {
          "internalType": "address",
          "name": "",
          "type": "address"
        }
      ],
      "stateMutability": "view",
      "type": "function"
    },
    {
      "inputs": [],
      "name": "vestingFund",
      "outputs": [
        {
          "internalType": "address",
          "name": "",
          "type": "address"
        }
      ],
      "stateMutability": "view",
      "type": "function"
    },
    {
      "inputs": [
        {
          "internalType": "address",
          "name": "",
          "type": "address"
        },
        {
          "internalType": "uint256",
          "name": "",
          "type": "uint256"
        }
      ],
      "name": "whitelists",
      "outputs": [
        {
          "internalType": "address",
          "name": "",
          "type": "address"
        }
      ],
      "stateMutability": "view",
      "type": "function"
    },
    {
      "inputs": [],
      "name": "wton",
      "outputs": [
        {
          "internalType": "address",
          "name": "",
          "type": "address"
        }
      ],
      "stateMutability": "view",
      "type": "function"
    }
  ],
  "bytecode": "0x60806040526014805463ff0000001916630100000017905534801561002357600080fd5b50615a6280620000346000396000f3fe6080604052600436106105225760003560e01c8063708666ad116102af578063ae1f6aaf11610179578063d01481a1116100d6578063dc560fcd1161008a578063ef39b1491161006f578063ef39b1491461129f578063f3b08cb9146112bf578063f7e6e1ab146112df57600080fd5b8063dc560fcd14611269578063e7cd4a041461127f57600080fd5b8063d547741f116100bb578063d547741f1461115a578063d7b0b29d1461117a578063d97830b1146111f757600080fd5b8063d01481a114611102578063d13da4441461112257600080fd5b8063c0f22d4b1161012d578063c6bbd5a711610112578063c6bbd5a714611095578063cc48b947146110b5578063cf437a8f146110d557600080fd5b8063c0f22d4b14611055578063c3ce874e1461107557600080fd5b8063b0a5ccd11161015e578063b0a5ccd114610fdf578063b911135f14610fff578063b9e982bb1461103557600080fd5b8063ae1f6aaf14610f26578063b005ed9114610f4657600080fd5b80638d62d949116102275780639f87b77f116101db578063a389595f116101c0578063a389595f14610eb4578063a7b23fcf14610ee6578063ac3e8aa914610f0657600080fd5b80639f87b77f14610e89578063a217fddf14610e9f57600080fd5b806396e6f43f1161020c57806396e6f43f14610e0457806397d7859514610e245780639f32b29a14610e5157600080fd5b80638d62d94914610d9657806391d1485414610dbe57600080fd5b8063768b821f1161027e5780637fc46ba8116102635780637fc46ba814610cc957806389293f6514610cff57806389f395de14610d7657600080fd5b8063768b821f14610c9d5780637e2eee5314610cb357600080fd5b8063708666ad14610c09578063735de9f714610c2957806375829def14610c4957806375b238fc14610c6957600080fd5b80632f2ff15d116103f057806352351e85116103685780635cc9014b1161031c57806363a8fd891161030157806363a8fd8914610bbc5780636e2272a214610bd65780637048027514610be957600080fd5b80635cc9014b14610b895780636100a72114610b9c57600080fd5b806355d6d39b1161034d57806355d6d39b14610b115780635af3909214610b495780635b19e29414610b6957600080fd5b806352351e8514610ac1578063550d01a314610ae157600080fd5b806336568abe116103bf5780634e6c4466116103a45780634e6c446614610a5557806350d2a27614610a7557806351ebde6d14610aab57600080fd5b806336568abe14610a15578063466c01b814610a3557600080fd5b80632f2ff15d1461096857806330ba46591461098857806331bf2897146109a857806333efca3d146109bb57600080fd5b80631916e5341161049e578063248a9ca3116104525780632a13ed1b116104375780632a13ed1b146108fd5780632ac9bab6146109105780632bde5bfb1461094857600080fd5b8063248a9ca3146108ad57806324d7806c146108dd57600080fd5b80631d823697116104835780631d823697146108395780631e83409a14610859578063229852461461087957600080fd5b80631916e534146107815780631c53f256146107f457600080fd5b80630b7459eb116104f55780631576baf4116104da5780631576baf4146107095780631784b3a6146107295780631785f53c1461075f57600080fd5b80630b7459eb1461068b57806312269758146106c357600080fd5b806301ffc9a714610527578063089fe6aa1461055c57806308ac3fcb14610586578063096cc41814610650575b600080fd5b34801561053357600080fd5b50610547610542366004615246565b6112ff565b60405190151581526020015b60405180910390f35b34801561056857600080fd5b50610572610bb881565b60405162ffffff9091168152602001610553565b34801561059257600080fd5b506105ff6105a1366004615285565b601c6020526000908152604090208054600182015460028084015460038501546004860154600587015460068801546007909801549697959693959294919390929181900b9060ff630100000082048116916401000000009004168a565b604080519a8b5260208b0199909952978901969096526060880194909452608087019290925260a086015260c085015260020b60e08401521515610100830152151561012082015261014001610553565b34801561065c57600080fd5b5061067061066b3660046152a2565b611336565b60408051938452602084019290925290820152606001610553565b34801561069757600080fd5b506006546106ab906001600160a01b031681565b6040516001600160a01b039091168152602001610553565b3480156106cf57600080fd5b506106fb6106de3660046152f2565b602360209081526000928352604080842090915290825290205481565b604051908152602001610553565b34801561071557600080fd5b506106fb610724366004615285565b611597565b34801561073557600080fd5b506106fb610744366004615285565b6001600160a01b031660009081526018602052604090205490565b34801561076b57600080fd5b5061077f61077a366004615285565b6115e2565b005b34801561078d57600080fd5b506107d261079c36600461532b565b6021602090815260009283526040808420909152908252902080546001820154600283015460039093015460ff90921692909184565b6040805194151585526020850193909352918301526060820152608001610553565b34801561080057600080fd5b50600e54610827907501000000000000000000000000000000000000000000900460ff1681565b60405160ff9091168152602001610553565b34801561084557600080fd5b5061082761085436600461532b565b611674565b34801561086557600080fd5b5061077f610874366004615285565b611a9e565b34801561088557600080fd5b506106fb7ffb5864e8ff833c3cb2d2d08505e82ff02a43554c74a35d4f5a64e8526127831181565b3480156108b957600080fd5b506106fb6108c8366004615359565b60009081526004602052604090206001015490565b3480156108e957600080fd5b506105476108f8366004615285565b61204a565b61077f61090b366004615372565b61208a565b34801561091c57600080fd5b506106fb61092b3660046152f2565b602660209081526000928352604080842090915290825290205481565b34801561095457600080fd5b506106fb610963366004615285565b612099565b34801561097457600080fd5b5061077f61098336600461539e565b6121e9565b34801561099457600080fd5b506106fb6109a3366004615285565b612213565b61077f6109b6366004615372565b612280565b3480156109c757600080fd5b506109fe6109d636600461532b565b6020808052600092835260408084209091529082529020805460019091015460ff9091169082565b604080519215158352602083019190915201610553565b348015610a2157600080fd5b5061077f610a3036600461539e565b612b1d565b348015610a4157600080fd5b506106ab610a50366004615372565b612ba5565b348015610a6157600080fd5b506009546106ab906001600160a01b031681565b348015610a8157600080fd5b506106ab610a90366004615246565b6003602052600090815260409020546001600160a01b031681565b348015610ab757600080fd5b506106fb60115481565b348015610acd57600080fd5b50600c546106ab906001600160a01b031681565b348015610aed57600080fd5b50610547610afc366004615285565b60026020526000908152604090205460ff1681565b348015610b1d57600080fd5b506106fb610b2c3660046152f2565b602460209081526000928352604080842090915290825290205481565b348015610b5557600080fd5b506106fb610b6436600461532b565b612bdd565b348015610b7557600080fd5b506106ab610b84366004615372565b612c40565b61077f610b97366004615372565b612c5c565b348015610ba857600080fd5b506106fb610bb7366004615372565b612c67565b348015610bc857600080fd5b506000546105479060ff1681565b61077f610be4366004615285565b612d24565b348015610bf557600080fd5b5061077f610c04366004615285565b6130f7565b348015610c1557600080fd5b506007546106ab906001600160a01b031681565b348015610c3557600080fd5b506008546106ab906001600160a01b031681565b348015610c5557600080fd5b5061077f610c64366004615285565b613181565b348015610c7557600080fd5b506106fb7fdf8b4c520ffe197c5343c6f5aec59570151ef9a492f2c624fd45ddde6135ec4281565b348015610ca957600080fd5b506106fb60105481565b348015610cbf57600080fd5b506106fb60135481565b348015610cd557600080fd5b506106ab610ce4366004615285565b6016602052600090815260409020546001600160a01b031681565b348015610d0b57600080fd5b50610d52610d1a36600461532b565b601f60209081526000928352604080842090915290825290208054600182015460029092015460ff8083169361010090930416919084565b60408051941515855260ff9093166020850152918301526060820152608001610553565b348015610d8257600080fd5b50600a546106ab906001600160a01b031681565b348015610da257600080fd5b506106ab73c4a11aaf6ea915ed7ac194161d2fc9384f15bff281565b348015610dca57600080fd5b50610547610dd936600461539e565b60009182526004602090815260408084206001600160a01b0393909316845291905290205460ff1690565b348015610e1057600080fd5b506106fb610e1f3660046153c3565b6132e3565b348015610e3057600080fd5b506106fb610e3f366004615285565b60156020526000908152604090205481565b348015610e5d57600080fd5b506106fb610e6c3660046152f2565b602560209081526000928352604080842090915290825290205481565b348015610e9557600080fd5b506106fb600f5481565b348015610eab57600080fd5b506106fb600081565b348015610ec057600080fd5b50600e546108279074010000000000000000000000000000000000000000900460ff1681565b348015610ef257600080fd5b506106fb610f01366004615285565b613501565b348015610f1257600080fd5b50610670610f2136600461532b565b6135ce565b348015610f3257600080fd5b50600d546106ab906001600160a01b031681565b348015610f5257600080fd5b50610fa4610f61366004615285565b601b602052600090815260409020805460018201546002830154600384015460048501546005860154600687015460079097015495969495939492939192909188565b604080519889526020890197909752958701949094526060860192909252608085015260a084015260c083015260e082015261010001610553565b348015610feb57600080fd5b506106fb610ffa366004615285565b6136af565b34801561100b57600080fd5b506106ab61101a366004615359565b6001602052600090815260409020546001600160a01b031681565b34801561104157600080fd5b506106fb611050366004615285565b61382f565b34801561106157600080fd5b506106fb611070366004615372565b61392f565b34801561108157600080fd5b506106fb611090366004615372565b613960565b3480156110a157600080fd5b506005546106ab906001600160a01b031681565b3480156110c157600080fd5b50600b546106ab906001600160a01b031681565b3480156110e157600080fd5b506014546110ef9060020b81565b60405160029190910b8152602001610553565b34801561110e57600080fd5b50600e546106ab906001600160a01b031681565b34801561112e57600080fd5b506106fb61113d3660046152f2565b602260209081526000928352604080842090915290825290205481565b34801561116657600080fd5b5061077f61117536600461539e565b613a0b565b34801561118657600080fd5b506111ca611195366004615285565b601e60205260009081526040902080546001820154600283015460038401546004850154600590950154939492939192909186565b604080519687526020870195909552938501929092526060840152608083015260a082015260c001610553565b34801561120357600080fd5b50611241611212366004615285565b601d60205260009081526040902080546001820154600283015460038401546004909401549293919290919085565b604080519586526020860194909452928401919091526060830152608082015260a001610553565b34801561127557600080fd5b506106fb60125481565b34801561128b57600080fd5b5061077f61129a366004615285565b613a30565b3480156112ab57600080fd5b506106706112ba36600461532b565b613efb565b3480156112cb57600080fd5b506106fb6112da366004615372565b613fbe565b3480156112eb57600080fd5b506106fb6112fa3660046152a2565b613fda565b60006001600160e01b03198216637965db0b60e01b148061133057506301ffc9a760e01b6001600160e01b03198316145b92915050565b6001600160a01b0383166000908152601d60209081526040808320815160a08101835281548152600182015493810193909352600281015491830182905260038101546060840152600401546080830152829182914210156113a35760008060009350935093505061158e565b80518511156113bd5760008060009350935093505061158e565b6001600160a01b038088166000908152602160209081526040808320938a1683529281528282208351608081018552815460ff16151581526001820154928101929092526002810154938201939093526003909201546060830152806114238a8a613efb565b9250925050816000036114445760008060009650965096505050505061158e565b818360200151106114635760008060009650965096505050505061158e565b600061146e8b613501565b90506000818660000151148015611483575089155b156114a95760208501516114979085615424565b985092965090945061158e9350505050565b8960000361153957816000036114c9579750919550935061158e92505050565b6127108660200151856114dc9190615437565b6114e69190615464565b60208601519091506114f9600184615424565b875161150790600190615424565b6115118488615424565b61151b9190615464565b6115259190615437565b61152f9083615478565b6114979190615424565b8960010361155e576127108660200151856115549190615437565b6114979190615464565b6127108660200151856115719190615437565b61157b9190615464565b60208601519091506114f960018c615424565b93509350939050565b6001600160a01b03811660009081526015602052604081205481906115bd908490613960565b905060006115ca846136af565b9050808210156115db575092915050565b9392505050565b6115eb3361204a565b6116475760405162461bcd60e51b815260206004820152602260248201527f41636365737369626c653a2043616c6c6572206973206e6f7420616e2061646d60448201526134b760f11b60648201526084015b60405180910390fd5b6116717fdf8b4c520ffe197c5343c6f5aec59570151ef9a492f2c624fd45ddde6135ec4282612b1d565b50565b6009546000906001600160a01b0316806116b55760405162461bcd60e51b81526020600482015260026024820152612d1960f11b604482015260640161163e565b6001600160a01b0384166000908152602260209081526040808320600184529091528120549081900361170f5760405162461bcd60e51b81526020600482015260026024820152615a3160f01b604482015260640161163e565b6001600160a01b038516600090815260226020908152604080832060028452909152812054908190036117695760405162461bcd60e51b81526020600482015260026024820152615a3160f01b604482015260640161163e565b6001600160a01b038616600090815260226020908152604080832060038452909152812054908190036117c35760405162461bcd60e51b81526020600482015260026024820152615a3160f01b604482015260640161163e565b6001600160a01b0387166000908152602260209081526040808320600484529091528120549081900361181d5760405162461bcd60e51b81526020600482015260026024820152615a3160f01b604482015260640161163e565b6001600160a01b038881166000908152601b60209081526040808320815161010081018352815481526001820154938101849052600282015481840152600382015460608201526004808301546080830152600583015460a0830152600683015460c083015260079092015460e0820152600954925163277166bf60e11b81528d871692810192909252602482019390935291931690634ee2cd7e90604401602060405180830381865afa1580156118d9573d6000803e3d6000fd5b505050506040513d601f19601f820116820180604052508101906118fd919061548b565b6001600160a01b038b1660009081526022602090815260408083206001845290915281205491925090821080159061195857506001600160a01b038b1660009081526022602090815260408083206002845290915290205482105b1561196557506001611a90565b6001600160a01b038b1660009081526022602090815260408083206002845290915290205482108015906119bc57506001600160a01b038b1660009081526022602090815260408083206003845290915290205482105b156119c957506002611a90565b6001600160a01b038b166000908152602260209081526040808320600384529091529020548210801590611a2057506001600160a01b038b1660009081526022602090815260408083206004845290915290205482105b15611a2d57506003611a90565b6001600160a01b038b166000908152602260209081526040808320600484529091529020548210611a6057506004611a90565b6001600160a01b038b16600090815260226020908152604080832060018452909152902054821015611a90575060005b9a9950505050505050505050565b6001600160a01b0381166000908152601d6020908152604091829020825160a0810184528154815260018201549281019290925260028101549282018390526003810154606083015260040154608082015290421015611b405760405162461bcd60e51b815260206004820152600d60248201527f6e6f7420636c61696d54696d6500000000000000000000000000000000000000604482015260640161163e565b6001600160a01b0382166000818152602080805260408083203380855290835281842094845260218352818420908452909152812090611b7f85612099565b905080600003611c9057815460ff161515600103611bdf5760405162461bcd60e51b815260206004820152601160248201527f616c726561647920676574526566756e64000000000000000000000000000000604482015260640161163e565b6001600160a01b0385166000908152601f60209081526040808320338452909152812060018086015490820154919291611c199190615478565b845460ff1916600117855560028501819055600b54909150611c45906001600160a01b0316338361407b565b604080516001600160a01b03891681526020810183905233917fec1e5ed733e00f1a00915d56caef57b4f52312dde4f9b3165f213319a0da156b910160405180910390a25050612043565b6000806000611ca188336000611336565b92509250925060008211611cf75760405162461bcd60e51b815260206004820152601260248201527f6e6f20707572636861736520616d6f756e740000000000000000000000000000604482015260640161163e565b60008311611d335760405162461bcd60e51b81526020600482015260096024820152681b9bc81c995dd85c9960ba1b604482015260640161163e565b82856001015483611d449190615424565b1015611d925760405162461bcd60e51b815260206004820152601460248201527f616c726561647920676574416c6c726577617264000000000000000000000000604482015260640161163e565b6040516370a0823160e01b815230600482015283906001600160a01b038a16906370a0823190602401602060405180830381865afa158015611dd8573d6000803e3d6000fd5b505050506040513d601f19601f82011682018060405250810190611dfc919061548b565b1015611e4a5760405162461bcd60e51b815260206004820152601360248201527f646f6e7420686176652073616c65546f6b656e00000000000000000000000000604482015260640161163e565b828560010154611e5a9190615478565b6001860155611e736001600160a01b038916338561407b565b6001600160a01b0388166000908152601e60205260409020855460ff16158015611e9e5750865460ff165b15611ec4576005810154611eb3906001615478565b6005820155855460ff191660011786555b600082118015611ed657506002860154155b15611ff957600b546040516370a0823160e01b81523060048201526001600160a01b03909116906370a0823190602401602060405180830381865afa158015611f23573d6000803e3d6000fd5b505050506040513d601f19601f82011682018060405250810190611f47919061548b565b821115611f965760405162461bcd60e51b815260206004820152601460248201527f646f6e74206861766520726566756e6420746f6e000000000000000000000000604482015260640161163e565b60028601829055600b54611fb4906001600160a01b0316338461407b565b604080516001600160a01b038b1681526020810184905233917fec1e5ed733e00f1a00915d56caef57b4f52312dde4f9b3165f213319a0da156b910160405180910390a25b604080516001600160a01b038b1681526020810186905233917ff7a40077ff7a04c7e61f6f26fb13774259ddf1b6bce9ecf26a8276cdd399268391015b60405180910390a2505050505b5050505050565b6001600160a01b03811660009081527f2fb794d17134dfdec181ddbac1babb5ab1eb140204ef4d982f294e7fc8b69022602052604081205460ff16611330565b61209582338361418f565b5050565b6001600160a01b0381166000818152601e60209081526040808320815160c0808201845282548252600180840154838701526002808501548487015260038086015460608087019190915260048088015460808089019190915260059889015460a0808a01919091529c8c52601c8b52898c208a5161014081018c5281548152968101549b87019b909b528a8501549986019990995291890154908401528701549582019590955292850154968301969096526006840154958201959095526007909201549081900b60e083015260ff63010000008204811615156101008401526401000000009091041615156101208201529091908261219985612213565b83602001516121a89190615478565b90506000826080015182106121dd5760648360a00151836121c99190615437565b6121d39190615464565b9695505050505050565b50600095945050505050565b600082815260046020526040902060010154612204816144de565b61220e83836144e8565b505050565b6001600160a01b0381166000908152601560205260408120548190612239908490613960565b90506000612246846136af565b90508082101561226e575050506001600160a01b031660009081526015602052604090205490565b6122788482612c67565b949350505050565b80806000036122b65760405162461bcd60e51b81526020600482015260026024820152615a3160f01b604482015260640161163e565b6001600160a01b0383166000818152601b60209081526040808320815161010081018352815481526001820154818501526002820154818401526003820154606082015260048201546080820152600582015460a0820152600682015460c082015260079091015460e08201908152948452601c909252909120915190919042116123835760405162461bcd60e51b815260206004820152601b60248201527f6e65656420746f20656e6420746865206465706f73697454696d650000000000604482015260640161163e565b600061238e86612099565b9050600081116123e05760405162461bcd60e51b815260206004820152601660248201527f646f6e2774207061737320746865206861726443617000000000000000000000604482015260640161163e565b60078201546301000000900460ff16151560000361245957848110156124385760405162461bcd60e51b815260206004820152600d60248201526c30b6b7bab73a24b71037bb32b960991b604482015260640161163e565b6006820181905560078201805463ff0000001916630100000017905561249d565b848260060154101561249d5760405162461bcd60e51b815260206004820152600d60248201526c30b6b7bab73a24b71037bb32b960991b604482015260640161163e565b600b54600a546040516307f43c1960e31b81526001600160a01b0392831660048201529116602482015260009073__$86989bec654fe21c5325a7b16e11ff34c5$__90633fa1e0c890604401602060405180830381865af4158015612506573d6000803e3d6000fd5b505050506040513d601f19601f8201168201806040525081019061252a91906154a4565b9050600080826001600160a01b0316633850c7bd6040518163ffffffff1660e01b815260040160e060405180830381865afa15801561256d573d6000803e3d6000fd5b505050506040513d601f19601f8201168201806040525081019061259191906154fa565b5050505050915091506000826001600160a01b0316116125f35760405162461bcd60e51b815260206004820152601060248201527f706f6f6c206e6f7420696e697469616c00000000000000000000000000000000604482015260640161163e565b600061260084607861458a565b6040517fff9ceebd000000000000000000000000000000000000000000000000000000008152600282810b6004830152603c6024830152604482015290915073__$86989bec654fe21c5325a7b16e11ff34c5$__9063ff9ceebd90606401602060405180830381865af415801561267b573d6000803e3d6000fd5b505050506040513d601f19601f8201168201806040525081019061269f9190615584565b60020b8260020b126126f35760405162461bcd60e51b815260206004820152601860248201527f6f766572206368616e676564207469636b2072616e67652e0000000000000000604482015260640161163e565b600b54600a546007880154604051633e1644f160e11b8152600481018d90526001600160a01b038881166024830152938416604482015292909116606483015260020b6084820152600090819073__$86989bec654fe21c5325a7b16e11ff34c5$__90637c2c89e29060a401606060405180830381865af415801561277c573d6000803e3d6000fd5b505050506040513d601f19601f820116820180604052508101906127a0919061559f565b92505091506000600560009054906101000a90046001600160a01b03166001600160a01b0316600b60009054906101000a90046001600160a01b0316600a60009054906101000a90046001600160a01b0316610bb88f60006040516024016128409594939291906001600160a01b03958616815293909416602084015262ffffff919091166040830152606082015260ff91909116608082015260a00190565b60408051601f198184030181529181526020820180516001600160e01b031663f7729d4360e01b1790525161287591906155f1565b6000604051808303816000865af19150503d80600081146128b2576040519150601f19603f3d011682016040523d82523d6000602084013e6128b7565b606091505b5091505060006128c682614749565b90506103e86128d7826103e3615437565b6128e19190615464565b9050838110156129335760405162461bcd60e51b815260206004820152601060248201527f7072696365496d70616374206f76657200000000000000000000000000000000604482015260640161163e565b60068a01548e908e90612947908290615424565b60068d01556040805161010081018252600b546001600160a01b039081168252600a54811660208301908152610bb8838501908152600754831660608501908152426080860190815260a0860188815260c087018b81528d871660e08901908152600854995163414bf38960e01b8152895189166004820152965188166024880152945162ffffff166044870152925186166064860152905160848501525160a48401525160c483015251821660e4820152919260009291169063414bf38990610104016020604051808303816000875af1158015612a2a573d6000803e3d6000fd5b505050506040513d601f19601f82011682018060405250810190612a4e919061548b565b60085460405191925060009182916001600160a01b0316908690612a73908b906155f1565b60006040518083038185875af1925050503d8060008114612ab0576040519150601f19603f3d011682016040523d82523d6000602084013e612ab5565b606091505b50604080516001600160a01b038a16815260208101899052908101869052919350915033907f34c21668d9e0d31d289d483bfe1b46a335340504801ea7feebfbb347bc4fe5679060600160405180910390a25050505050505050505050505050505050505050565b6001600160a01b0381163314612b9b5760405162461bcd60e51b815260206004820152602f60248201527f416363657373436f6e74726f6c3a2063616e206f6e6c792072656e6f756e636560448201527f20726f6c657320666f722073656c660000000000000000000000000000000000606482015260840161163e565b61209582826147ed565b60176020528160005260406000208181548110612bc157600080fd5b6000918252602090912001546001600160a01b03169150829050565b600080612bea8484611674565b9050600060ff821615612c3557815b60ff811615612c2b57612c0d8686836132e3565b612c179083615478565b915080612c238161560d565b915050612bf9565b5091506113309050565b506000949350505050565b60186020528160005260406000208181548110612bc157600080fd5b612095823383614870565b6001600160a01b0382166000908152601c602090815260408083208151610140810183528154815260018201549381019390935260028082015492840183905260038201546060850181905260048301546080860152600583015460a0860152600683015460c08601526007909201549081900b60e085015260ff63010000008204811615156101008601526401000000009091041615156101208401528391612d119086615437565b612d1b9190615464565b95945050505050565b6001600160a01b0381166000908152601c602052604090206007810154640100000000900460ff161515600114801590612d6e575060078101546301000000900460ff1615156001145b612dba5760405162461bcd60e51b815260206004820152601a60248201527f6e656564207468652065786368616e676557544f4e746f544f53000000000000604482015260640161163e565b6001600160a01b0382166000908152601e6020526040812090612ddc84612099565b9050600081612dea86612213565b8460010154612df99190615478565b612e039190615424565b600b546040516370a0823160e01b81523060048201529192506001600160a01b0316906370a0823190602401602060405180830381865afa158015612e4c573d6000803e3d6000fd5b505050506040513d601f19601f82011682018060405250810190612e70919061548b565b811115612ebf5760405162461bcd60e51b815260206004820152600d60248201527f686176656e277420746f6b656e00000000000000000000000000000000000000604482015260640161163e565b60078401805464ff0000000019166401000000001790558254600090612ee487611597565b60018701548754612ef59190615478565b612eff9190615424565b612f099190615424565b90508015612fa257600d54600e54604051631474f2a960e31b81526001600160a01b0389811660048301529182166024820152604481018490526000606482015260a06084820152600260a482015261060f60f31b60c482015291169063a3a795489060e401600060405180830381600087803b158015612f8957600080fd5b505af1158015612f9d573d6000803e3d6000fd5b505050505b600b546006546001600160a01b039182169163095ea7b39116612fcd85678ac7230489e80000615478565b6040516001600160e01b031960e085901b1681526001600160a01b03909216600483015260248201526044016020604051808303816000875af1158015613018573d6000803e3d6000fd5b505050506040513d601f19601f8201168201806040525081019061303c919061562a565b506006546040516315a27c3b60e31b81526001600160a01b038881166004830152602482018590529091169063ad13e1d890604401600060405180830381600087803b15801561308b57600080fd5b505af115801561309f573d6000803e3d6000fd5b5050604080516001600160a01b038a168152602081018690529081018690523392507f4c2c0ab6abacae9e08e6f826eee15e2782e65aaa46fa6d77cbaec9c94247aad5915060600160405180910390a2505050505050565b6131003361204a565b6131575760405162461bcd60e51b815260206004820152602260248201527f41636365737369626c653a2043616c6c6572206973206e6f7420616e2061646d60448201526134b760f11b606482015260840161163e565b6116717fdf8b4c520ffe197c5343c6f5aec59570151ef9a492f2c624fd45ddde6135ec42826121e9565b61318a3361204a565b6131e15760405162461bcd60e51b815260206004820152602260248201527f41636365737369626c653a2043616c6c6572206973206e6f7420616e2061646d60448201526134b760f11b606482015260840161163e565b6001600160a01b0381166132375760405162461bcd60e51b815260206004820152601860248201527f41636365737369626c653a207a65726f20616464726573730000000000000000604482015260640161163e565b6001600160a01b038116330361328f5760405162461bcd60e51b815260206004820152601660248201527f41636365737369626c653a2073616d652061646d696e00000000000000000000604482015260640161163e565b6132b97fdf8b4c520ffe197c5343c6f5aec59570151ef9a492f2c624fd45ddde6135ec42826121e9565b6116717fdf8b4c520ffe197c5343c6f5aec59570151ef9a492f2c624fd45ddde6135ec4233612b1d565b6001600160a01b038084166000818152601f602090815260408083209487168352938152838220845160808082018752825460ff8082161515845261010091829004811684870152600180860154858b0152600295860154606080870191909152988852601c87528988208a5161014081018c52815481528183015498810198909852808701549a88019a909a5260038a015498870198909852600489015492860192909252600588015460a0860152600688015460c08601526007909701549283900b60e085015263010000008304811615159684019690965264010000000090910490941615156101208201528351919392909184919015151480156133ee575060008560ff16115b1561345e576001600160a01b038716600081815260256020908152604080832060ff8a1680855290835281842054948452602383528184209084529091529020548351612710929161343f91615437565b6134499190615464565b6134539190615464565b93506115db92505050565b60ff8516156134f4576001600160a01b038716600090815260256020908152604080832060ff89168452909152812054613499906001615478565b6001600160a01b038916600090815260236020908152604080832060ff8b16845290915290205484519192506127109183916134d491615437565b6134de9190615464565b6134e89190615464565b94506115db9350505050565b5060009695505050505050565b6001600160a01b0381166000908152601d60209081526040808320815160a0810183528154815260018201549381019390935260028101549183018290526003810154606084015260040154608083015242101561355e57600091505b428160400151111580156135755750806060015142105b1561358357600191506135ba565b428160600151116135ba57608081015160608201516135a29042615424565b6135ac9190615464565b6135b7906002615478565b91505b80518211156135c857805191505b50919050565b6001600160a01b0380831660009081526020808052604080832093851683529281528282208351808501909452805460ff16158015855260019091015491840191909152909182918291908061362657506020810151155b1561363c576000806000935093509350506136a8565b600061364a87876000613fda565b905060006136588883612c67565b602084015190915060008082841015613688576136758484615424565b90506136818b85613960565b915061369c565b856020015193506136998b84613960565b91505b92975095509093505050505b9250925092565b600080601b6000846001600160a01b03166001600160a01b03168152602001908152602001600020604051806101000160405290816000820154815260200160018201548152602001600282015481526020016003820154815260200160048201548152602001600582015481526020016006820154815260200160078201548152505090506000601c6000856001600160a01b03166001600160a01b0316815260200190815260200160002060405180610140016040529081600082015481526020016001820154815260200160028201548152602001600382015481526020016004820154815260200160058201548152602001600682015481526020016007820160009054906101000a900460020b60020b60020b81526020016007820160039054906101000a900460ff161515151581526020016007820160049054906101000a900460ff16151515158152505090508160a0015142101561381757519392505050565b6138208461382f565b81602001516122789190615478565b6001600160a01b0381166000818152601e60209081526040808320815160c0808201845282548252600180840154838701526002808501548487015260038086015460608087019190915260048088015460808089019190915260059889015460a0808a01919091529c8c52601c8b52898c208a5161014081018c528154808252978201549c81019c909c52808601549a8c019a909a5292890154918a01919091528701549088015293850154978601979097526006840154908501526007909201549081900b60e084015260ff630100000082048116151561010085015264010000000090910416151561012083015280519293909261227891615424565b6019602052816000526040600020818154811061394b57600080fd5b90600052602060002001600091509150505481565b6001600160a01b0382166000908152601c602090815260408083208151610140810183528154815260018201549381019390935260028082015492840183905260038201546060850181905260048301546080860152600583015460a0860152600683015460c08601526007909201549081900b60e085015260ff6301000000820481161515610100860152640100000000909104161515610120840152839190612d119086615437565b600082815260046020526040902060010154613a26816144de565b61220e83836147ed565b6001600160a01b0381166000908152601b60209081526040918290208251610100810184528154815260018201549281019290925260028101549282018390526003810154606083015260048101546080830152600581015460a0830152600681015460c08301526007015460e082015290421015613af15760405162461bcd60e51b815260206004820152601160248201527f6e6f742077686974656c69737454696d65000000000000000000000000000000604482015260640161163e565b80606001514210613b445760405162461bcd60e51b815260206004820152601160248201527f656e642077686974656c69737454696d65000000000000000000000000000000604482015260640161163e565b6000613b508333611674565b905060018160ff161015613ba65760405162461bcd60e51b815260206004820152601160248201527f6e65656420746f206d6f72652073544f53000000000000000000000000000000604482015260640161163e565b6001600160a01b0383166000908152601f602090815260408083203384529091529020805460ff161515600103613c1f5760405162461bcd60e51b815260206004820152601060248201527f616c726561647920617474656e64656400000000000000000000000000000000604482015260640161163e565b6001600160a01b038416600081815260186020908152604080832080546001818101835591855283852001805473ffffffffffffffffffffffffffffffffffffffff191633179055855460ff8816610100810261ffff1990921691909117821787559484526024835281842094845293909152902054613c9e91615478565b6001600160a01b038516600090815260246020908152604080832060ff8716808552925290912091909155600403613dd9576001600160a01b038416600090815260256020908152604080832060048452909152902054613d00906001615478565b6001600160a01b03851660009081526025602090815260408083206004845290915280822092909255600381522054613d3a906001615478565b6001600160a01b03851660009081526025602090815260408083206003845290915280822092909255600281522054613d74906001615478565b6001600160a01b03851660009081526025602090815260408083206002845290915280822092909255600180825291902054613daf91615478565b6001600160a01b038516600090815260256020908152604080832060018452909152902055613eaf565b8160ff16600303613e14576001600160a01b038416600090815260256020908152604080832060038452909152902054613d3a906001615478565b8160ff16600203613e4f576001600160a01b038416600090815260256020908152604080832060028452909152902054613d74906001615478565b8160ff16600103613eaf576001600160a01b03841660009081526025602090815260408083206001808552925290912054613e8991615478565b6001600160a01b0385166000908152602560209081526040808320600184529091529020555b604080516001600160a01b038616815260ff8416602082015233917f80aaf28a2c7f80f586e64ede5c6c3b5433b8c6cf1351b6b51d8ab9febb8b5e7a910160405180910390a250505050565b6001600160a01b038083166000908152601f6020908152604080832093851683529281528282208351608081018552815460ff8082161580158452610100909204169382019390935260018201549481019490945260020154606084015290918291829190613fa8576000806000613f7389896135ce565b925092509250836040015183613f899190615478565b6060850151613f989084615478565b82965096509650505050506136a8565b613fb286866135ce565b935093509350506136a8565b601a602052816000526040600020818154811061394b57600080fd5b6001600160a01b0380841660009081526020808052604080832093861683529281528282208351808501909452805460ff161515845260010154908301819052909190829061402a908590615478565b6001600160a01b03871660009081526015602052604081205491925090614052908690615478565b8261405c896136af565b6140669190615437565b6140709190615464565b979650505050505050565b604080516001600160a01b038481166024830152604480830185905283518084039091018152606490920183526020820180516001600160e01b031663a9059cbb60e01b17905291516000928392908716916140d791906155f1565b6000604051808303816000865af19150503d8060008114614114576040519150601f19603f3d011682016040523d82523d6000602084013e614119565b606091505b5091509150818015614143575080511580614143575080806020019051810190614143919061562a565b6120435760405162461bcd60e51b815260206004820152600f60248201527f5452414e534645525f4641494c45440000000000000000000000000000000000604482015260640161163e565b826001600160a01b0381166141cb5760405162461bcd60e51b81526020600482015260026024820152612d1960f11b604482015260640161163e565b826001600160a01b0381166142075760405162461bcd60e51b81526020600482015260026024820152612d1960f11b604482015260640161163e565b828060000361423d5760405162461bcd60e51b81526020600482015260026024820152615a3160f01b604482015260640161163e565b6001600160a01b0386166000908152601b6020908152604091829020825161010081018452815481526001820154928101929092526002810154928201929092526003820154606082015260048201546080820152600582015460a0820152600682015460c0820181905260079092015460e0820152904210156143035760405162461bcd60e51b815260206004820152600f60248201527f6e6f74206465706f73697454696d650000000000000000000000000000000000604482015260640161163e565b8060e0015142106143565760405162461bcd60e51b815260206004820152600f60248201527f656e64206465706f73697454696d650000000000000000000000000000000000604482015260640161163e565b6001600160a01b03808816600081815260208080526040808320948b168352938152838220928252601e905291909120815460ff16614476576001600160a01b03898116600090815260176020908152604082208054600180820183559184529190922001805473ffffffffffffffffffffffffffffffffffffffff1916928b1692909217909155825460ff19168117835560048201546143f691615478565b60048201556001600160a01b03808a166000908152601f60209081526040808320938c1683529281528282208351608081018552815460ff808216151583526101009091041692810192909252600181015493820184905260020154606082015291900361447457600282015461446e906001615478565b60028301555b505b8682600101546144869190615478565b60018301556001600160a01b0389166000908152601560205260409020546144af908890615478565b6001600160a01b038a166000908152601560205260409020556144d3898989614c4a565b505050505050505050565b6116718133614ef2565b60008281526004602090815260408083206001600160a01b038516845290915290205460ff166120955760008281526004602090815260408083206001600160a01b03851684529091529020805460ff191660011790556145463390565b6001600160a01b0316816001600160a01b0316837f2f8788117e7eff1d82e926ec794901d17c78024a50270940304540a733656f0d60405160405180910390a45050565b60008163ffffffff166000036145c75760405162461bcd60e51b8152602060048201526002602482015261042560f41b604482015260640161163e565b60408051600280825260608201835260009260208301908036833701905050905082816000815181106145fc576145fc61565b565b602002602001019063ffffffff16908163ffffffff168152505060008160018151811061462b5761462b61565b565b63ffffffff9092166020928302919091019091015260405163883bdbfd60e01b81526000906001600160a01b0386169063883bdbfd9061466f908590600401615671565b600060405180830381865afa15801561468c573d6000803e3d6000fd5b505050506040513d6000823e601f3d908101601f191682016040526146b49190810190615784565b5090506000816000815181106146cc576146cc61565b565b6020026020010151826001815181106146e7576146e761565b565b60200260200101516146f99190615850565b9050614709600386900b8261587d565b935060008160060b12801561472d5750614727600386900b826158bb565b60060b15155b15614740578361473c816158dd565b9450505b50505092915050565b600081516020146147d9576044825110156147a65760405162461bcd60e51b815260206004820152601060248201527f556e6578706563746564206572726f7200000000000000000000000000000000604482015260640161163e565b600482019150818060200190518101906147c091906158f6565b60405162461bcd60e51b815260040161163e919061598a565b81806020019051810190611330919061548b565b60008281526004602090815260408083206001600160a01b038516845290915290205460ff16156120955760008281526004602090815260408083206001600160a01b0385168085529252808320805460ff1916905551339285917ff6391f5c32d9c69d2a47ea670b442974b53935d1edc7fd64eb21e047a839171b9190a45050565b826001600160a01b0381166148ac5760405162461bcd60e51b81526020600482015260026024820152612d1960f11b604482015260640161163e565b826001600160a01b0381166148e85760405162461bcd60e51b81526020600482015260026024820152612d1960f11b604482015260640161163e565b828060000361491e5760405162461bcd60e51b81526020600482015260026024820152615a3160f01b604482015260640161163e565b6001600160a01b0386166000908152601b60209081526040918290208251610100810184528154815260018201549281019290925260028101549282019290925260038201546060820152600482015460808201819052600583015460a0830152600683015460c083015260079092015460e0820152904210156149e45760405162461bcd60e51b815260206004820152601260248201527f6e6f7420726f756e643153616c6554696d650000000000000000000000000000604482015260640161163e565b8060a001514210614a375760405162461bcd60e51b815260206004820152601260248201527f656e6420726f756e643153616c6554696d650000000000000000000000000000604482015260640161163e565b6001600160a01b038088166000908152601f60209081526040808320938a16835292905220805460ff161515600114614ab25760405162461bcd60e51b815260206004820152600c60248201527f6e6f2077686974656c6973740000000000000000000000000000000000000000604482015260640161163e565b6000614abe8989611674565b90506000614acc8a89613960565b90506000614ada8b8b612bdd565b9050818460020154614aec9190615478565b811015614b3b5760405162461bcd60e51b815260206004820152600e60248201527f646f6e2774206f76657220627579000000000000000000000000000000000000604482015260640161163e565b6001600160a01b038b166000908152601e602052604081206001860154909103614be3576003810154614b6f906001615478565b60038201556002810154614b84906001615478565b60028201556001600160a01b038c16600090815260266020908152604080832060ff88168452909152902054614bbb906001615478565b6001600160a01b038d16600090815260266020908152604080832060ff891684529091529020555b898560010154614bf39190615478565b60018601556002850154614c08908490615478565b60028601556001810154614c1d908b90615478565b60018201558054614c2f908490615478565b8155614c3c8c8c8c614c4a565b505050505050505050505050565b826001600160a01b038116614c865760405162461bcd60e51b81526020600482015260026024820152612d1960f11b604482015260640161163e565b826001600160a01b038116614cc25760405162461bcd60e51b81526020600482015260026024820152612d1960f11b604482015260640161163e565b8280600003614cf85760405162461bcd60e51b81526020600482015260026024820152615a3160f01b604482015260640161163e565b6001600160a01b038681166000908152601b6020908152604080832081516101008101835281548152600182015493810193909352600281015483830152600381015460608401526004808201546080850152600582015460a0850152600682015460c085015260079091015460e0840152600b549151636eb1769f60e11b81528a8616918101919091523060248201529193169063dd62ed3e90604401602060405180830381865afa158015614db3573d6000803e3d6000fd5b505050506040513d601f19601f82011682018060405250810190614dd7919061548b565b90506001600160a01b03871631868210801590614df45750868110155b614e405760405162461bcd60e51b815260206004820152601560248201527f746f6e206578636565647320616c6c6f77616e63650000000000000000000000604482015260640161163e565b600b54614e58906001600160a01b031689308a614f67565b8260a00151421015614eaf57604080516001600160a01b038b81168252602082018a90528a16917f9840f3ca16eed984a6ad48d36928a9cfb427c7f90a8d37e017b3385a747aa294910160405180910390a26144d3565b604080516001600160a01b038b81168252602082018a90528a16917f8752a472e571a816aea92eec8dae9baf628e840f4929fbcc2d155e6233ff68a79101612036565b60008281526004602090815260408083206001600160a01b038516845290915290205460ff1661209557614f258161508b565b614f3083602061509d565b604051602001614f419291906159bd565b60408051601f198184030181529082905262461bcd60e51b825261163e9160040161598a565b604080516001600160a01b0385811660248301528481166044830152606480830185905283518084039091018152608490920183526020820180516001600160e01b03166323b872dd60e01b1790529151600092839290881691614fcb91906155f1565b6000604051808303816000865af19150503d8060008114615008576040519150601f19603f3d011682016040523d82523d6000602084013e61500d565b606091505b5091509150818015615037575080511580615037575080806020019051810190615037919061562a565b6150835760405162461bcd60e51b815260206004820152601460248201527f5452414e534645525f46524f4d5f4641494c4544000000000000000000000000604482015260640161163e565b505050505050565b60606113306001600160a01b03831660145b606060006150ac836002615437565b6150b7906002615478565b67ffffffffffffffff8111156150cf576150cf615645565b6040519080825280601f01601f1916602001820160405280156150f9576020820181803683370190505b509050600360fc1b816000815181106151145761511461565b565b60200101906001600160f81b031916908160001a905350600f60fb1b816001815181106151435761514361565b565b60200101906001600160f81b031916908160001a9053506000615167846002615437565b615172906001615478565b90505b60018111156151f7577f303132333435363738396162636465660000000000000000000000000000000085600f16601081106151b3576151b361565b565b1a60f81b8282815181106151c9576151c961565b565b60200101906001600160f81b031916908160001a90535060049490941c936151f081615a3e565b9050615175565b5083156115db5760405162461bcd60e51b815260206004820181905260248201527f537472696e67733a20686578206c656e67746820696e73756666696369656e74604482015260640161163e565b60006020828403121561525857600080fd5b81356001600160e01b0319811681146115db57600080fd5b6001600160a01b038116811461167157600080fd5b60006020828403121561529757600080fd5b81356115db81615270565b6000806000606084860312156152b757600080fd5b83356152c281615270565b925060208401356152d281615270565b929592945050506040919091013590565b60ff8116811461167157600080fd5b6000806040838503121561530557600080fd5b823561531081615270565b91506020830135615320816152e3565b809150509250929050565b6000806040838503121561533e57600080fd5b823561534981615270565b9150602083013561532081615270565b60006020828403121561536b57600080fd5b5035919050565b6000806040838503121561538557600080fd5b823561539081615270565b946020939093013593505050565b600080604083850312156153b157600080fd5b82359150602083013561532081615270565b6000806000606084860312156153d857600080fd5b83356153e381615270565b925060208401356153f381615270565b91506040840135615403816152e3565b809150509250925092565b634e487b7160e01b600052601160045260246000fd5b818103818111156113305761133061540e565b80820281158282048414176113305761133061540e565b634e487b7160e01b600052601260045260246000fd5b6000826154735761547361544e565b500490565b808201808211156113305761133061540e565b60006020828403121561549d57600080fd5b5051919050565b6000602082840312156154b657600080fd5b81516115db81615270565b8051600281900b81146154d357600080fd5b919050565b805161ffff811681146154d357600080fd5b805180151581146154d357600080fd5b600080600080600080600060e0888a03121561551557600080fd5b875161552081615270565b965061552e602089016154c1565b955061553c604089016154d8565b945061554a606089016154d8565b9350615558608089016154d8565b925060a0880151615568816152e3565b915061557660c089016154ea565b905092959891949750929550565b60006020828403121561559657600080fd5b6115db826154c1565b6000806000606084860312156155b457600080fd5b8351925060208401519150604084015161540381615270565b60005b838110156155e85781810151838201526020016155d0565b50506000910152565b600082516156038184602087016155cd565b9190910192915050565b600060ff8216806156205761562061540e565b6000190192915050565b60006020828403121561563c57600080fd5b6115db826154ea565b634e487b7160e01b600052604160045260246000fd5b634e487b7160e01b600052603260045260246000fd5b6020808252825182820181905260009190848201906040850190845b818110156156af57835163ffffffff168352928401929184019160010161568d565b50909695505050505050565b604051601f8201601f1916810167ffffffffffffffff811182821017156156e4576156e4615645565b604052919050565b600067ffffffffffffffff82111561570657615706615645565b5060051b60200190565b600082601f83011261572157600080fd5b81516020615736615731836156ec565b6156bb565b82815260059290921b8401810191818101908684111561575557600080fd5b8286015b8481101561577957805161576c81615270565b8352918301918301615759565b509695505050505050565b6000806040838503121561579757600080fd5b825167ffffffffffffffff808211156157af57600080fd5b818501915085601f8301126157c357600080fd5b815160206157d3615731836156ec565b82815260059290921b840181019181810190898411156157f257600080fd5b948201945b838610156158205785518060060b81146158115760008081fd5b825294820194908201906157f7565b9188015191965090935050508082111561583957600080fd5b5061584685828601615710565b9150509250929050565b600682810b9082900b03667fffffffffffff198112667fffffffffffff821317156113305761133061540e565b60008160060b8360060b806158945761589461544e565b667fffffffffffff198214600019821416156158b2576158b261540e565b90059392505050565b60008260060b806158ce576158ce61544e565b808360060b0791505092915050565b60008160020b627fffff1981036156205761562061540e565b60006020828403121561590857600080fd5b815167ffffffffffffffff8082111561592057600080fd5b818401915084601f83011261593457600080fd5b81518181111561594657615946615645565b615959601f8201601f19166020016156bb565b915080825285602082850101111561597057600080fd5b6159818160208401602086016155cd565b50949350505050565b60208152600082518060208401526159a98160408501602087016155cd565b601f01601f19169190910160400192915050565b7f416363657373436f6e74726f6c3a206163636f756e74200000000000000000008152600083516159f58160178501602088016155cd565b7f206973206d697373696e6720726f6c65200000000000000000000000000000006017918401918201528351615a328160288401602088016155cd565b01602801949350505050565b600081615a4d57615a4d61540e565b50600019019056fea164736f6c6343000812000a",
  "linkReferences": {
    "contracts/libraries/LibPublicSaleVault.sol": {
      "LibPublicSaleVault": [
        {
          "length": 20,
          "start": 9472
        },
        {
          "length": 20,
          "start": 9845
        },
        {
          "length": 20,
          "start": 10102
        }
      ]
    }
  },
  "deployedLinkReferences": {
    "contracts/libraries/LibPublicSaleVault.sol": {
      "LibPublicSaleVault": [
        {
          "length": 20,
          "start": 9420
        },
        {
          "length": 20,
          "start": 9793
        },
        {
          "length": 20,
          "start": 10050
        }
      ]
    }
  }
}