{
  "_format": "hh-sol-artifact-1",
  "contractName": "L2PublicSaleVault",
  "sourceName": "contracts/L2/vaults/L2PublicSaleVault.sol",
  "abi": [
    {
      "anonymous": false,
      "inputs": [
        {
          "indexed": false,
          "internalType": "address",
          "name": "l2Token",
          "type": "address"
        },
        {
          "indexed": true,
          "internalType": "address",
          "name": "from",
          "type": "address"
        },
        {
          "indexed": false,
          "internalType": "uint256",
          "name": "tier",
          "type": "uint256"
        }
      ],
      "name": "AddedWhiteList",
      "type": "event"
    },
    {
      "anonymous": false,
      "inputs": [
        {
          "indexed": false,
          "internalType": "address",
          "name": "l2Token",
          "type": "address"
        },
        {
          "indexed": true,
          "internalType": "address",
          "name": "from",
          "type": "address"
        },
        {
          "indexed": false,
          "internalType": "uint256",
          "name": "amount",
          "type": "uint256"
        }
      ],
      "name": "Claimed",
      "type": "event"
    },
    {
      "anonymous": false,
      "inputs": [
        {
          "indexed": false,
          "internalType": "address",
          "name": "l2Token",
          "type": "address"
        },
        {
          "indexed": true,
          "internalType": "address",
          "name": "from",
          "type": "address"
        },
        {
          "indexed": false,
          "internalType": "uint256",
          "name": "amount",
          "type": "uint256"
        },
        {
          "indexed": false,
          "internalType": "uint256",
          "name": "liquidityAmount",
          "type": "uint256"
        }
      ],
      "name": "DepositWithdrawal",
      "type": "event"
    },
    {
      "anonymous": false,
      "inputs": [
        {
          "indexed": false,
          "internalType": "address",
          "name": "l2Token",
          "type": "address"
        },
        {
          "indexed": true,
          "internalType": "address",
          "name": "from",
          "type": "address"
        },
        {
          "indexed": false,
          "internalType": "uint256",
          "name": "amount",
          "type": "uint256"
        }
      ],
      "name": "Deposited",
      "type": "event"
    },
    {
      "anonymous": false,
      "inputs": [
        {
          "indexed": false,
          "internalType": "address",
          "name": "l2Token",
          "type": "address"
        },
        {
          "indexed": true,
          "internalType": "address",
          "name": "from",
          "type": "address"
        },
        {
          "indexed": false,
          "internalType": "uint256",
          "name": "amountIn",
          "type": "uint256"
        },
        {
          "indexed": false,
          "internalType": "uint256",
          "name": "amountOut",
          "type": "uint256"
        }
      ],
      "name": "ExchangeSwap",
      "type": "event"
    },
    {
      "anonymous": false,
      "inputs": [
        {
          "indexed": false,
          "internalType": "address",
          "name": "l2Token",
          "type": "address"
        },
        {
          "indexed": true,
          "internalType": "address",
          "name": "from",
          "type": "address"
        },
        {
          "indexed": false,
          "internalType": "uint256",
          "name": "amount",
          "type": "uint256"
        }
      ],
      "name": "ExclusiveSaled",
      "type": "event"
    },
    {
      "anonymous": false,
      "inputs": [
        {
          "indexed": false,
          "internalType": "address",
          "name": "l2Token",
          "type": "address"
        },
        {
          "indexed": true,
          "internalType": "address",
          "name": "from",
          "type": "address"
        },
        {
          "indexed": false,
          "internalType": "uint256",
          "name": "amount",
          "type": "uint256"
        }
      ],
      "name": "Refunded",
      "type": "event"
    },
    {
      "anonymous": false,
      "inputs": [
        {
          "indexed": true,
          "internalType": "bytes32",
          "name": "role",
          "type": "bytes32"
        },
        {
          "indexed": true,
          "internalType": "bytes32",
          "name": "previousAdminRole",
          "type": "bytes32"
        },
        {
          "indexed": true,
          "internalType": "bytes32",
          "name": "newAdminRole",
          "type": "bytes32"
        }
      ],
      "name": "RoleAdminChanged",
      "type": "event"
    },
    {
      "anonymous": false,
      "inputs": [
        {
          "indexed": true,
          "internalType": "bytes32",
          "name": "role",
          "type": "bytes32"
        },
        {
          "indexed": true,
          "internalType": "address",
          "name": "account",
          "type": "address"
        },
        {
          "indexed": true,
          "internalType": "address",
          "name": "sender",
          "type": "address"
        }
      ],
      "name": "RoleGranted",
      "type": "event"
    },
    {
      "anonymous": false,
      "inputs": [
        {
          "indexed": true,
          "internalType": "bytes32",
          "name": "role",
          "type": "bytes32"
        },
        {
          "indexed": true,
          "internalType": "address",
          "name": "account",
          "type": "address"
        },
        {
          "indexed": true,
          "internalType": "address",
          "name": "sender",
          "type": "address"
        }
      ],
      "name": "RoleRevoked",
      "type": "event"
    },
    {
      "anonymous": false,
      "inputs": [
        {
          "indexed": false,
          "internalType": "address",
          "name": "newInitializer",
          "type": "address"
        }
      ],
      "name": "SetInitializer",
      "type": "event"
    },
    {
      "anonymous": false,
      "inputs": [
        {
          "indexed": false,
          "internalType": "address",
          "name": "l2Token",
          "type": "address"
        },
        {
          "indexed": false,
          "internalType": "address",
          "name": "newAdmin",
          "type": "address"
        }
      ],
      "name": "SetVaultAdmin",
      "type": "event"
    },
    {
      "inputs": [],
      "name": "ADMIN_ROLE",
      "outputs": [
        {
          "internalType": "bytes32",
          "name": "",
          "type": "bytes32"
        }
      ],
      "stateMutability": "view",
      "type": "function"
    },
    {
      "inputs": [],
      "name": "DEFAULT_ADMIN_ROLE",
      "outputs": [
        {
          "internalType": "bytes32",
          "name": "",
          "type": "bytes32"
        }
      ],
      "stateMutability": "view",
      "type": "function"
    },
    {
      "inputs": [],
      "name": "POLICY_ROLE",
      "outputs": [
        {
          "internalType": "bytes32",
          "name": "",
          "type": "bytes32"
        }
      ],
      "stateMutability": "view",
      "type": "function"
    },
    {
      "inputs": [],
      "name": "_WETH",
      "outputs": [
        {
          "internalType": "contract IWETH",
          "name": "",
          "type": "address"
        }
      ],
      "stateMutability": "view",
      "type": "function"
    },
    {
      "inputs": [
        {
          "internalType": "address",
          "name": "account",
          "type": "address"
        }
      ],
      "name": "addAdmin",
      "outputs": [],
      "stateMutability": "nonpayable",
      "type": "function"
    },
    {
      "inputs": [
        {
          "internalType": "address",
          "name": "_l2token",
          "type": "address"
        }
      ],
      "name": "addWhiteList",
      "outputs": [],
      "stateMutability": "nonpayable",
      "type": "function"
    },
    {
      "inputs": [
        {
          "internalType": "address",
          "name": "",
          "type": "address"
        }
      ],
      "name": "aliveImplementation",
      "outputs": [
        {
          "internalType": "bool",
          "name": "",
          "type": "bool"
        }
      ],
      "stateMutability": "view",
      "type": "function"
    },
    {
      "inputs": [
        {
          "internalType": "address",
          "name": "_l2token",
          "type": "address"
        },
        {
          "internalType": "address",
          "name": "_account",
          "type": "address"
        }
      ],
      "name": "calcul1RoundAmount",
      "outputs": [
        {
          "internalType": "uint256",
          "name": "",
          "type": "uint256"
        }
      ],
      "stateMutability": "view",
      "type": "function"
    },
    {
      "inputs": [
        {
          "internalType": "address",
          "name": "_l2token",
          "type": "address"
        },
        {
          "internalType": "address",
          "name": "_account",
          "type": "address"
        },
        {
          "internalType": "uint256",
          "name": "_round",
          "type": "uint256"
        }
      ],
      "name": "calculClaimAmount",
      "outputs": [
        {
          "internalType": "uint256",
          "name": "_reward",
          "type": "uint256"
        },
        {
          "internalType": "uint256",
          "name": "_totalClaim",
          "type": "uint256"
        },
        {
          "internalType": "uint256",
          "name": "_refundAmount",
          "type": "uint256"
        }
      ],
      "stateMutability": "view",
      "type": "function"
    },
    {
      "inputs": [
        {
          "internalType": "address",
          "name": "_l2token",
          "type": "address"
        },
        {
          "internalType": "address",
          "name": "_account",
          "type": "address"
        },
        {
          "internalType": "uint256",
          "name": "_amount",
          "type": "uint256"
        }
      ],
      "name": "calculOpenSaleAmount",
      "outputs": [
        {
          "internalType": "uint256",
          "name": "",
          "type": "uint256"
        }
      ],
      "stateMutability": "view",
      "type": "function"
    },
    {
      "inputs": [
        {
          "internalType": "address",
          "name": "_l2token",
          "type": "address"
        },
        {
          "internalType": "uint256",
          "name": "_amount",
          "type": "uint256"
        }
      ],
      "name": "calculPayToken",
      "outputs": [
        {
          "internalType": "uint256",
          "name": "",
          "type": "uint256"
        }
      ],
      "stateMutability": "view",
      "type": "function"
    },
    {
      "inputs": [
        {
          "internalType": "address",
          "name": "_l2token",
          "type": "address"
        },
        {
          "internalType": "uint256",
          "name": "_amount",
          "type": "uint256"
        }
      ],
      "name": "calculSaleToken",
      "outputs": [
        {
          "internalType": "uint256",
          "name": "",
          "type": "uint256"
        }
      ],
      "stateMutability": "view",
      "type": "function"
    },
    {
      "inputs": [
        {
          "internalType": "address",
          "name": "_l2token",
          "type": "address"
        },
        {
          "internalType": "address",
          "name": "_account",
          "type": "address"
        }
      ],
      "name": "calculTier",
      "outputs": [
        {
          "internalType": "uint8",
          "name": "",
          "type": "uint8"
        }
      ],
      "stateMutability": "view",
      "type": "function"
    },
    {
      "inputs": [
        {
          "internalType": "address",
          "name": "_l2token",
          "type": "address"
        },
        {
          "internalType": "address",
          "name": "_account",
          "type": "address"
        },
        {
          "internalType": "uint8",
          "name": "tier",
          "type": "uint8"
        }
      ],
      "name": "calculTierAmount",
      "outputs": [
        {
          "internalType": "uint256",
          "name": "",
          "type": "uint256"
        }
      ],
      "stateMutability": "view",
      "type": "function"
    },
    {
      "inputs": [],
      "name": "changeTick",
      "outputs": [
        {
          "internalType": "int24",
          "name": "",
          "type": "int24"
        }
      ],
      "stateMutability": "view",
      "type": "function"
    },
    {
      "inputs": [
        {
          "internalType": "address",
          "name": "_l2token",
          "type": "address"
        }
      ],
      "name": "claim",
      "outputs": [],
      "stateMutability": "nonpayable",
      "type": "function"
    },
    {
      "inputs": [
        {
          "internalType": "address",
          "name": "",
          "type": "address"
        }
      ],
      "name": "claimInfo",
      "outputs": [
        {
          "internalType": "uint256",
          "name": "totalClaimCounts",
          "type": "uint256"
        },
        {
          "internalType": "uint256",
          "name": "firstClaimPercent",
          "type": "uint256"
        },
        {
          "internalType": "uint256",
          "name": "firstClaimTime",
          "type": "uint256"
        },
        {
          "internalType": "uint256",
          "name": "secondClaimTime",
          "type": "uint256"
        },
        {
          "internalType": "uint256",
          "name": "claimInterval",
          "type": "uint256"
        }
      ],
      "stateMutability": "view",
      "type": "function"
    },
    {
      "inputs": [
        {
          "internalType": "address",
          "name": "",
          "type": "address"
        },
        {
          "internalType": "uint256",
          "name": "",
          "type": "uint256"
        }
      ],
      "name": "claimPercents",
      "outputs": [
        {
          "internalType": "uint256",
          "name": "",
          "type": "uint256"
        }
      ],
      "stateMutability": "view",
      "type": "function"
    },
    {
      "inputs": [
        {
          "internalType": "address",
          "name": "",
          "type": "address"
        },
        {
          "internalType": "uint256",
          "name": "",
          "type": "uint256"
        }
      ],
      "name": "claimTimes",
      "outputs": [
        {
          "internalType": "uint256",
          "name": "",
          "type": "uint256"
        }
      ],
      "stateMutability": "view",
      "type": "function"
    },
    {
      "inputs": [
        {
          "internalType": "address",
          "name": "_l2token",
          "type": "address"
        }
      ],
      "name": "currentRound",
      "outputs": [
        {
          "internalType": "uint256",
          "name": "round",
          "type": "uint256"
        }
      ],
      "stateMutability": "view",
      "type": "function"
    },
    {
      "inputs": [],
      "name": "delayTime",
      "outputs": [
        {
          "internalType": "uint256",
          "name": "",
          "type": "uint256"
        }
      ],
      "stateMutability": "view",
      "type": "function"
    },
    {
      "inputs": [
        {
          "internalType": "address",
          "name": "_l2token",
          "type": "address"
        }
      ],
      "name": "depositWithdraw",
      "outputs": [],
      "stateMutability": "payable",
      "type": "function"
    },
    {
      "inputs": [
        {
          "internalType": "address",
          "name": "",
          "type": "address"
        },
        {
          "internalType": "uint256",
          "name": "",
          "type": "uint256"
        }
      ],
      "name": "depositors",
      "outputs": [
        {
          "internalType": "address",
          "name": "",
          "type": "address"
        }
      ],
      "stateMutability": "view",
      "type": "function"
    },
    {
      "inputs": [
        {
          "internalType": "address",
          "name": "_l2token",
          "type": "address"
        },
        {
          "internalType": "uint256",
          "name": "amountIn",
          "type": "uint256"
        }
      ],
      "name": "exchangeWTONtoTOS",
      "outputs": [],
      "stateMutability": "payable",
      "type": "function"
    },
    {
      "inputs": [
        {
          "internalType": "bytes32",
          "name": "role",
          "type": "bytes32"
        }
      ],
      "name": "getRoleAdmin",
      "outputs": [
        {
          "internalType": "bytes32",
          "name": "",
          "type": "bytes32"
        }
      ],
      "stateMutability": "view",
      "type": "function"
    },
    {
      "inputs": [
        {
          "internalType": "bytes32",
          "name": "role",
          "type": "bytes32"
        },
        {
          "internalType": "address",
          "name": "account",
          "type": "address"
        }
      ],
      "name": "grantRole",
      "outputs": [],
      "stateMutability": "nonpayable",
      "type": "function"
    },
    {
      "inputs": [
        {
          "internalType": "address",
          "name": "_l2token",
          "type": "address"
        }
      ],
      "name": "hardcapCalcul",
      "outputs": [
        {
          "internalType": "uint256",
          "name": "",
          "type": "uint256"
        }
      ],
      "stateMutability": "view",
      "type": "function"
    },
    {
      "inputs": [
        {
          "internalType": "bytes32",
          "name": "role",
          "type": "bytes32"
        },
        {
          "internalType": "address",
          "name": "account",
          "type": "address"
        }
      ],
      "name": "hasRole",
      "outputs": [
        {
          "internalType": "bool",
          "name": "",
          "type": "bool"
        }
      ],
      "stateMutability": "view",
      "type": "function"
    },
    {
      "inputs": [
        {
          "internalType": "address",
          "name": "account",
          "type": "address"
        }
      ],
      "name": "isAdmin",
      "outputs": [
        {
          "internalType": "bool",
          "name": "",
          "type": "bool"
        }
      ],
      "stateMutability": "view",
      "type": "function"
    },
    {
      "inputs": [],
      "name": "l1burnVault",
      "outputs": [
        {
          "internalType": "address",
          "name": "",
          "type": "address"
        }
      ],
      "stateMutability": "view",
      "type": "function"
    },
    {
      "inputs": [],
      "name": "l2Bridge",
      "outputs": [
        {
          "internalType": "address",
          "name": "",
          "type": "address"
        }
      ],
      "stateMutability": "view",
      "type": "function"
    },
    {
      "inputs": [],
      "name": "l2ProjectManager",
      "outputs": [
        {
          "internalType": "address",
          "name": "",
          "type": "address"
        }
      ],
      "stateMutability": "view",
      "type": "function"
    },
    {
      "inputs": [],
      "name": "liquidityVault",
      "outputs": [
        {
          "internalType": "address",
          "name": "",
          "type": "address"
        }
      ],
      "stateMutability": "view",
      "type": "function"
    },
    {
      "inputs": [],
      "name": "lockTOS",
      "outputs": [
        {
          "internalType": "address",
          "name": "",
          "type": "address"
        }
      ],
      "stateMutability": "view",
      "type": "function"
    },
    {
      "inputs": [
        {
          "internalType": "address",
          "name": "",
          "type": "address"
        }
      ],
      "name": "manageInfo",
      "outputs": [
        {
          "internalType": "uint256",
          "name": "set1rdTokenAmount",
          "type": "uint256"
        },
        {
          "internalType": "uint256",
          "name": "set2rdTokenAmount",
          "type": "uint256"
        },
        {
          "internalType": "uint256",
          "name": "saleTokenPrice",
          "type": "uint256"
        },
        {
          "internalType": "uint256",
          "name": "tonPrice",
          "type": "uint256"
        },
        {
          "internalType": "uint256",
          "name": "hardCap",
          "type": "uint256"
        },
        {
          "internalType": "uint256",
          "name": "changeTOS",
          "type": "uint256"
        },
        {
          "internalType": "uint256",
          "name": "remainTON",
          "type": "uint256"
        },
        {
          "internalType": "int24",
          "name": "changeTick",
          "type": "int24"
        },
        {
          "internalType": "bool",
          "name": "exchangeTOS",
          "type": "bool"
        },
        {
          "internalType": "bool",
          "name": "adminWithdraw",
          "type": "bool"
        }
      ],
      "stateMutability": "view",
      "type": "function"
    },
    {
      "inputs": [],
      "name": "maxPer",
      "outputs": [
        {
          "internalType": "uint8",
          "name": "",
          "type": "uint8"
        }
      ],
      "stateMutability": "view",
      "type": "function"
    },
    {
      "inputs": [],
      "name": "minPer",
      "outputs": [
        {
          "internalType": "uint8",
          "name": "",
          "type": "uint8"
        }
      ],
      "stateMutability": "view",
      "type": "function"
    },
    {
      "inputs": [
        {
          "internalType": "address",
          "name": "_l2token",
          "type": "address"
        },
        {
          "internalType": "address",
          "name": "user",
          "type": "address"
        }
      ],
      "name": "openSaleUserAmount",
      "outputs": [
        {
          "internalType": "uint256",
          "name": "_realPayAmount",
          "type": "uint256"
        },
        {
          "internalType": "uint256",
          "name": "_realSaleAmount",
          "type": "uint256"
        },
        {
          "internalType": "uint256",
          "name": "_refundAmount",
          "type": "uint256"
        }
      ],
      "stateMutability": "view",
      "type": "function"
    },
    {
      "inputs": [],
      "name": "pauseProxy",
      "outputs": [
        {
          "internalType": "bool",
          "name": "",
          "type": "bool"
        }
      ],
      "stateMutability": "view",
      "type": "function"
    },
    {
      "inputs": [],
      "name": "poolFee",
      "outputs": [
        {
          "internalType": "uint24",
          "name": "",
          "type": "uint24"
        }
      ],
      "stateMutability": "view",
      "type": "function"
    },
    {
      "inputs": [
        {
          "internalType": "uint256",
          "name": "",
          "type": "uint256"
        }
      ],
      "name": "proxyImplementation",
      "outputs": [
        {
          "internalType": "address",
          "name": "",
          "type": "address"
        }
      ],
      "stateMutability": "view",
      "type": "function"
    },
    {
      "inputs": [],
      "name": "quoter",
      "outputs": [
        {
          "internalType": "address",
          "name": "",
          "type": "address"
        }
      ],
      "stateMutability": "view",
      "type": "function"
    },
    {
      "inputs": [
        {
          "internalType": "address",
          "name": "account",
          "type": "address"
        }
      ],
      "name": "removeAdmin",
      "outputs": [],
      "stateMutability": "nonpayable",
      "type": "function"
    },
    {
      "inputs": [
        {
          "internalType": "bytes32",
          "name": "role",
          "type": "bytes32"
        },
        {
          "internalType": "address",
          "name": "account",
          "type": "address"
        }
      ],
      "name": "renounceRole",
      "outputs": [],
      "stateMutability": "nonpayable",
      "type": "function"
    },
    {
      "inputs": [
        {
          "internalType": "bytes32",
          "name": "role",
          "type": "bytes32"
        },
        {
          "internalType": "address",
          "name": "account",
          "type": "address"
        }
      ],
      "name": "revokeRole",
      "outputs": [],
      "stateMutability": "nonpayable",
      "type": "function"
    },
    {
      "inputs": [
        {
          "internalType": "address",
          "name": "_l2token",
          "type": "address"
        }
      ],
      "name": "round1Sale",
      "outputs": [],
      "stateMutability": "payable",
      "type": "function"
    },
    {
      "inputs": [
        {
          "internalType": "address",
          "name": "_l2token",
          "type": "address"
        }
      ],
      "name": "round2Sale",
      "outputs": [],
      "stateMutability": "payable",
      "type": "function"
    },
    {
      "inputs": [
        {
          "internalType": "address",
          "name": "",
          "type": "address"
        }
      ],
      "name": "saleInfo",
      "outputs": [
        {
          "internalType": "uint256",
          "name": "total1rdSaleAmount",
          "type": "uint256"
        },
        {
          "internalType": "uint256",
          "name": "total1rdTONAmount",
          "type": "uint256"
        },
        {
          "internalType": "uint256",
          "name": "totalUsers",
          "type": "uint256"
        },
        {
          "internalType": "uint256",
          "name": "total1rdUsers",
          "type": "uint256"
        },
        {
          "internalType": "uint256",
          "name": "total2rdUsers",
          "type": "uint256"
        },
        {
          "internalType": "uint256",
          "name": "total2rdUsersClaim",
          "type": "uint256"
        }
      ],
      "stateMutability": "view",
      "type": "function"
    },
    {
      "inputs": [
        {
          "internalType": "bytes4",
          "name": "",
          "type": "bytes4"
        }
      ],
      "name": "selectorImplementation",
      "outputs": [
        {
          "internalType": "address",
          "name": "",
          "type": "address"
        }
      ],
      "stateMutability": "view",
      "type": "function"
    },
    {
      "inputs": [],
      "name": "stanTier1",
      "outputs": [
        {
          "internalType": "uint256",
          "name": "",
          "type": "uint256"
        }
      ],
      "stateMutability": "view",
      "type": "function"
    },
    {
      "inputs": [],
      "name": "stanTier2",
      "outputs": [
        {
          "internalType": "uint256",
          "name": "",
          "type": "uint256"
        }
      ],
      "stateMutability": "view",
      "type": "function"
    },
    {
      "inputs": [],
      "name": "stanTier3",
      "outputs": [
        {
          "internalType": "uint256",
          "name": "",
          "type": "uint256"
        }
      ],
      "stateMutability": "view",
      "type": "function"
    },
    {
      "inputs": [],
      "name": "stanTier4",
      "outputs": [
        {
          "internalType": "uint256",
          "name": "",
          "type": "uint256"
        }
      ],
      "stateMutability": "view",
      "type": "function"
    },
    {
      "inputs": [
        {
          "internalType": "bytes4",
          "name": "interfaceId",
          "type": "bytes4"
        }
      ],
      "name": "supportsInterface",
      "outputs": [
        {
          "internalType": "bool",
          "name": "",
          "type": "bool"
        }
      ],
      "stateMutability": "view",
      "type": "function"
    },
    {
      "inputs": [
        {
          "internalType": "address",
          "name": "",
          "type": "address"
        },
        {
          "internalType": "uint8",
          "name": "",
          "type": "uint8"
        }
      ],
      "name": "tiers",
      "outputs": [
        {
          "internalType": "uint256",
          "name": "",
          "type": "uint256"
        }
      ],
      "stateMutability": "view",
      "type": "function"
    },
    {
      "inputs": [
        {
          "internalType": "address",
          "name": "",
          "type": "address"
        },
        {
          "internalType": "uint8",
          "name": "",
          "type": "uint8"
        }
      ],
      "name": "tiers1stAccount",
      "outputs": [
        {
          "internalType": "uint256",
          "name": "",
          "type": "uint256"
        }
      ],
      "stateMutability": "view",
      "type": "function"
    },
    {
      "inputs": [
        {
          "internalType": "address",
          "name": "",
          "type": "address"
        },
        {
          "internalType": "uint8",
          "name": "",
          "type": "uint8"
        }
      ],
      "name": "tiersCalculAccount",
      "outputs": [
        {
          "internalType": "uint256",
          "name": "",
          "type": "uint256"
        }
      ],
      "stateMutability": "view",
      "type": "function"
    },
    {
      "inputs": [
        {
          "internalType": "address",
          "name": "",
          "type": "address"
        },
        {
          "internalType": "uint8",
          "name": "",
          "type": "uint8"
        }
      ],
      "name": "tiersPercents",
      "outputs": [
        {
          "internalType": "uint256",
          "name": "",
          "type": "uint256"
        }
      ],
      "stateMutability": "view",
      "type": "function"
    },
    {
      "inputs": [
        {
          "internalType": "address",
          "name": "",
          "type": "address"
        },
        {
          "internalType": "uint8",
          "name": "",
          "type": "uint8"
        }
      ],
      "name": "tiersWhiteList",
      "outputs": [
        {
          "internalType": "uint256",
          "name": "",
          "type": "uint256"
        }
      ],
      "stateMutability": "view",
      "type": "function"
    },
    {
      "inputs": [
        {
          "internalType": "address",
          "name": "",
          "type": "address"
        }
      ],
      "name": "timeInfo",
      "outputs": [
        {
          "internalType": "uint256",
          "name": "deployTime",
          "type": "uint256"
        },
        {
          "internalType": "uint256",
          "name": "snapshot",
          "type": "uint256"
        },
        {
          "internalType": "uint256",
          "name": "whiteListStartTime",
          "type": "uint256"
        },
        {
          "internalType": "uint256",
          "name": "whiteListEndTime",
          "type": "uint256"
        },
        {
          "internalType": "uint256",
          "name": "round1StartTime",
          "type": "uint256"
        },
        {
          "internalType": "uint256",
          "name": "round1EndTime",
          "type": "uint256"
        },
        {
          "internalType": "uint256",
          "name": "round2StartTime",
          "type": "uint256"
        },
        {
          "internalType": "uint256",
          "name": "round2EndTime",
          "type": "uint256"
        }
      ],
      "stateMutability": "view",
      "type": "function"
    },
    {
      "inputs": [],
      "name": "ton",
      "outputs": [
        {
          "internalType": "address",
          "name": "",
          "type": "address"
        }
      ],
      "stateMutability": "view",
      "type": "function"
    },
    {
      "inputs": [],
      "name": "tos",
      "outputs": [
        {
          "internalType": "address",
          "name": "",
          "type": "address"
        }
      ],
      "stateMutability": "view",
      "type": "function"
    },
    {
      "inputs": [
        {
          "internalType": "address",
          "name": "",
          "type": "address"
        }
      ],
      "name": "totalDepositAmount",
      "outputs": [
        {
          "internalType": "uint256",
          "name": "",
          "type": "uint256"
        }
      ],
      "stateMutability": "view",
      "type": "function"
    },
    {
      "inputs": [
        {
          "internalType": "address",
          "name": "_l2token",
          "type": "address"
        }
      ],
      "name": "totalExpectOpenSaleAmountView",
      "outputs": [
        {
          "internalType": "uint256",
          "name": "",
          "type": "uint256"
        }
      ],
      "stateMutability": "view",
      "type": "function"
    },
    {
      "inputs": [
        {
          "internalType": "address",
          "name": "_l2token",
          "type": "address"
        }
      ],
      "name": "totalOpenPurchasedAmount",
      "outputs": [
        {
          "internalType": "uint256",
          "name": "",
          "type": "uint256"
        }
      ],
      "stateMutability": "view",
      "type": "function"
    },
    {
      "inputs": [
        {
          "internalType": "address",
          "name": "_l2token",
          "type": "address"
        }
      ],
      "name": "totalOpenSaleAmount",
      "outputs": [
        {
          "internalType": "uint256",
          "name": "",
          "type": "uint256"
        }
      ],
      "stateMutability": "view",
      "type": "function"
    },
    {
      "inputs": [
        {
          "internalType": "address",
          "name": "_l2token",
          "type": "address"
        }
      ],
      "name": "totalRound1NonSaleAmount",
      "outputs": [
        {
          "internalType": "uint256",
          "name": "",
          "type": "uint256"
        }
      ],
      "stateMutability": "view",
      "type": "function"
    },
    {
      "inputs": [
        {
          "internalType": "address",
          "name": "_l2token",
          "type": "address"
        },
        {
          "internalType": "address",
          "name": "user",
          "type": "address"
        }
      ],
      "name": "totalSaleUserAmount",
      "outputs": [
        {
          "internalType": "uint256",
          "name": "_realPayAmount",
          "type": "uint256"
        },
        {
          "internalType": "uint256",
          "name": "_realSaleAmount",
          "type": "uint256"
        },
        {
          "internalType": "uint256",
          "name": "_refundAmount",
          "type": "uint256"
        }
      ],
      "stateMutability": "view",
      "type": "function"
    },
    {
      "inputs": [
        {
          "internalType": "address",
          "name": "_l2token",
          "type": "address"
        }
      ],
      "name": "totalWhitelists",
      "outputs": [
        {
          "internalType": "uint256",
          "name": "",
          "type": "uint256"
        }
      ],
      "stateMutability": "view",
      "type": "function"
    },
    {
      "inputs": [
        {
          "internalType": "address",
          "name": "newAdmin",
          "type": "address"
        }
      ],
      "name": "transferAdmin",
      "outputs": [],
      "stateMutability": "nonpayable",
      "type": "function"
    },
    {
      "inputs": [],
      "name": "uniswapRouter",
      "outputs": [
        {
          "internalType": "address",
          "name": "",
          "type": "address"
        }
      ],
      "stateMutability": "view",
      "type": "function"
    },
    {
      "inputs": [
        {
          "internalType": "address",
          "name": "",
          "type": "address"
        },
        {
          "internalType": "address",
          "name": "",
          "type": "address"
        }
      ],
      "name": "user1rd",
      "outputs": [
        {
          "internalType": "bool",
          "name": "join",
          "type": "bool"
        },
        {
          "internalType": "uint8",
          "name": "tier",
          "type": "uint8"
        },
        {
          "internalType": "uint256",
          "name": "payAmount",
          "type": "uint256"
        },
        {
          "internalType": "uint256",
          "name": "saleAmount",
          "type": "uint256"
        }
      ],
      "stateMutability": "view",
      "type": "function"
    },
    {
      "inputs": [
        {
          "internalType": "address",
          "name": "",
          "type": "address"
        },
        {
          "internalType": "address",
          "name": "",
          "type": "address"
        }
      ],
      "name": "user2rd",
      "outputs": [
        {
          "internalType": "bool",
          "name": "join",
          "type": "bool"
        },
        {
          "internalType": "uint256",
          "name": "depositAmount",
          "type": "uint256"
        }
      ],
      "stateMutability": "view",
      "type": "function"
    },
    {
      "inputs": [
        {
          "internalType": "address",
          "name": "",
          "type": "address"
        },
        {
          "internalType": "address",
          "name": "",
          "type": "address"
        }
      ],
      "name": "userClaim",
      "outputs": [
        {
          "internalType": "bool",
          "name": "refund",
          "type": "bool"
        },
        {
          "internalType": "uint256",
          "name": "claimAmount",
          "type": "uint256"
        },
        {
          "internalType": "uint256",
          "name": "refundAmount",
          "type": "uint256"
        },
        {
          "internalType": "uint256",
          "name": "latestClaimedRound",
          "type": "uint256"
        }
      ],
      "stateMutability": "view",
      "type": "function"
    },
    {
      "inputs": [
        {
          "internalType": "address",
          "name": "",
          "type": "address"
        }
      ],
      "name": "vaultAdminOfToken",
      "outputs": [
        {
          "internalType": "address",
          "name": "",
          "type": "address"
        }
      ],
      "stateMutability": "view",
      "type": "function"
    },
    {
      "inputs": [],
      "name": "vestingFund",
      "outputs": [
        {
          "internalType": "address",
          "name": "",
          "type": "address"
        }
      ],
      "stateMutability": "view",
      "type": "function"
    },
    {
      "inputs": [
        {
          "internalType": "address",
          "name": "",
          "type": "address"
        },
        {
          "internalType": "uint256",
          "name": "",
          "type": "uint256"
        }
      ],
      "name": "whitelists",
      "outputs": [
        {
          "internalType": "address",
          "name": "",
          "type": "address"
        }
      ],
      "stateMutability": "view",
      "type": "function"
    },
    {
      "inputs": [],
      "name": "wton",
      "outputs": [
        {
          "internalType": "address",
          "name": "",
          "type": "address"
        }
      ],
      "stateMutability": "view",
      "type": "function"
    }
  ],
  "bytecode": "0x60806040526015805463ff0000001916630100000017905534801561002357600080fd5b5061565c80620000346000396000f3fe60806040526004361061053c5760003560e01c8063735de9f7116102af578063b005ed9111610179578063d13da444116100d6578063e0af36161161008a578063ef39b1491161006f578063ef39b149146112d9578063f3b08cb9146112f9578063f7e6e1ab1461131957600080fd5b8063e0af361614611299578063e7cd4a04146112b957600080fd5b8063d7b0b29d116100bb578063d7b0b29d14611194578063d97830b114611211578063dc560fcd1461128357600080fd5b8063d13da4441461113c578063d547741f1461117457600080fd5b8063c3ce874e1161012d578063cc48b94711610112578063cc48b947146110cf578063cf437a8f146110ef578063d01481a11461111c57600080fd5b8063c3ce874e1461108f578063c6bbd5a7146110af57600080fd5b8063b911135f1161015e578063b911135f14611019578063b9e982bb1461104f578063c0f22d4b1461106f57600080fd5b8063b005ed9114610f60578063b0a5ccd114610ff957600080fd5b806391d1485411610227578063a217fddf116101db578063a7b23fcf116101c0578063a7b23fcf14610f00578063ac3e8aa914610f20578063ae1f6aaf14610f4057600080fd5b8063a217fddf14610eb9578063a389595f14610ece57600080fd5b806397d785951161020c57806397d7859514610e3e5780639f32b29a14610e6b5780639f87b77f14610ea357600080fd5b806391d1485414610dd857806396e6f43f14610e1e57600080fd5b80637e2eee531161027e57806389293f651161026357806389293f6514610d1b57806389f395de14610d905780638d62d94914610db057600080fd5b80637e2eee5314610ccf5780637fc46ba814610ce557600080fd5b8063735de9f714610c4557806375829def14610c6557806375b238fc14610c85578063768b821f14610cb957600080fd5b80632f2ff15d1161040b578063550d01a3116103685780636100a7211161031c5780636e2272a2116103015780636e2272a214610bf25780637048027514610c05578063708666ad14610c2557600080fd5b80636100a72114610bb857806363a8fd8914610bd857600080fd5b80635af390921161034d5780635af3909214610b655780635b19e29414610b855780635f6ceddb14610ba557600080fd5b8063550d01a314610afd57806355d6d39b14610b2d57600080fd5b8063466c01b8116103bf57806350d2a276116103a457806350d2a27614610a9157806351ebde6d14610ac757806352351e8514610add57600080fd5b8063466c01b814610a515780634e6c446614610a7157600080fd5b806331bf2897116103f057806331bf2897146109c257806333efca3d146109d557806336568abe14610a3157600080fd5b80632f2ff15d1461098257806330ba4659146109a257600080fd5b80631785f53c116104b9578063229852461161046d57806324d7806c1161045257806324d7806c1461090a5780632ac9bab61461092a5780632bde5bfb1461096257600080fd5b806322985246146108a6578063248a9ca3146108da57600080fd5b80631c53f2561161049e5780631c53f256146108215780631d823697146108665780631e83409a1461088657600080fd5b80631785f53c1461078e5780631916e534146107ae57600080fd5b8063096cc4181161051057806312269758116104f557806312269758146106f25780631576baf4146107385780631784b3a61461075857600080fd5b8063096cc4181461067f5780630b7459eb146106ba57600080fd5b8062e710451461054157806301ffc9a714610556578063089fe6aa1461058b57806308ac3fcb146105b5575b600080fd5b61055461054f366004614e27565b611339565b005b34801561056257600080fd5b50610576610571366004614e44565b611601565b60405190151581526020015b60405180910390f35b34801561059757600080fd5b506105a1610bb881565b60405162ffffff9091168152602001610582565b3480156105c157600080fd5b5061062e6105d0366004614e27565b601d6020526000908152604090208054600182015460028084015460038501546004860154600587015460068801546007909801549697959693959294919390929181900b9060ff630100000082048116916401000000009004168a565b604080519a8b5260208b0199909952978901969096526060880194909452608087019290925260a086015260c085015260020b60e08401521515610100830152151561012082015261014001610582565b34801561068b57600080fd5b5061069f61069a366004614e6e565b611638565b60408051938452602084019290925290820152606001610582565b3480156106c657600080fd5b506006546106da906001600160a01b031681565b6040516001600160a01b039091168152602001610582565b3480156106fe57600080fd5b5061072a61070d366004614ebe565b602460209081526000928352604080842090915290825290205481565b604051908152602001610582565b34801561074457600080fd5b5061072a610753366004614e27565b611899565b34801561076457600080fd5b5061072a610773366004614e27565b6001600160a01b031660009081526019602052604090205490565b34801561079a57600080fd5b506105546107a9366004614e27565b6118e4565b3480156107ba57600080fd5b506107ff6107c9366004614ef7565b6022602090815260009283526040808420909152908252902080546001820154600283015460039093015460ff90921692909184565b6040805194151585526020850193909352918301526060820152608001610582565b34801561082d57600080fd5b50600f54610854907501000000000000000000000000000000000000000000900460ff1681565b60405160ff9091168152602001610582565b34801561087257600080fd5b50610854610881366004614ef7565b611971565b34801561089257600080fd5b506105546108a1366004614e27565b611d9b565b3480156108b257600080fd5b5061072a7ffb5864e8ff833c3cb2d2d08505e82ff02a43554c74a35d4f5a64e8526127831181565b3480156108e657600080fd5b5061072a6108f5366004614f25565b60009081526004602052604090206001015490565b34801561091657600080fd5b50610576610925366004614e27565b6123c9565b34801561093657600080fd5b5061072a610945366004614ebe565b602760209081526000928352604080842090915290825290205481565b34801561096e57600080fd5b5061072a61097d366004614e27565b612409565b34801561098e57600080fd5b5061055461099d366004614f3e565b612559565b3480156109ae57600080fd5b5061072a6109bd366004614e27565b612583565b6105546109d0366004614f63565b6125f0565b3480156109e157600080fd5b50610a1a6109f0366004614ef7565b60216020908152600092835260408084209091529082529020805460019091015460ff9091169082565b604080519215158352602083019190915201610582565b348015610a3d57600080fd5b50610554610a4c366004614f3e565b612eab565b348015610a5d57600080fd5b506106da610a6c366004614f63565b612f37565b348015610a7d57600080fd5b506009546106da906001600160a01b031681565b348015610a9d57600080fd5b506106da610aac366004614e44565b6003602052600090815260409020546001600160a01b031681565b348015610ad357600080fd5b5061072a60125481565b348015610ae957600080fd5b50600d546106da906001600160a01b031681565b348015610b0957600080fd5b50610576610b18366004614e27565b60026020526000908152604090205460ff1681565b348015610b3957600080fd5b5061072a610b48366004614ebe565b602560209081526000928352604080842090915290825290205481565b348015610b7157600080fd5b5061072a610b80366004614ef7565b612f6f565b348015610b9157600080fd5b506106da610ba0366004614f63565b612fd2565b610554610bb3366004614e27565b612fee565b348015610bc457600080fd5b5061072a610bd3366004614f63565b613349565b348015610be457600080fd5b506000546105769060ff1681565b610554610c00366004614e27565b613406565b348015610c1157600080fd5b50610554610c20366004614e27565b6136d9565b348015610c3157600080fd5b506007546106da906001600160a01b031681565b348015610c5157600080fd5b506008546106da906001600160a01b031681565b348015610c7157600080fd5b50610554610c80366004614e27565b613763565b348015610c9157600080fd5b5061072a7fdf8b4c520ffe197c5343c6f5aec59570151ef9a492f2c624fd45ddde6135ec4281565b348015610cc557600080fd5b5061072a60115481565b348015610cdb57600080fd5b5061072a60145481565b348015610cf157600080fd5b506106da610d00366004614e27565b6017602052600090815260409020546001600160a01b031681565b348015610d2757600080fd5b50610d6c610d36366004614ef7565b60208080526000928352604080842090915290825290208054600182015460029092015460ff8083169361010090930416919084565b60408051941515855260ff9093166020850152918301526060820152608001610582565b348015610d9c57600080fd5b50600a546106da906001600160a01b031681565b348015610dbc57600080fd5b506106da73c4a11aaf6ea915ed7ac194161d2fc9384f15bff281565b348015610de457600080fd5b50610576610df3366004614f3e565b60009182526004602090815260408084206001600160a01b0393909316845291905290205460ff1690565b348015610e2a57600080fd5b5061072a610e39366004614f8f565b6138c5565b348015610e4a57600080fd5b5061072a610e59366004614e27565b60166020526000908152604090205481565b348015610e7757600080fd5b5061072a610e86366004614ebe565b602660209081526000928352604080842090915290825290205481565b348015610eaf57600080fd5b5061072a60105481565b348015610ec557600080fd5b5061072a600081565b348015610eda57600080fd5b50600f546108549074010000000000000000000000000000000000000000900460ff1681565b348015610f0c57600080fd5b5061072a610f1b366004614e27565b613ae1565b348015610f2c57600080fd5b5061069f610f3b366004614ef7565b613bae565b348015610f4c57600080fd5b50600e546106da906001600160a01b031681565b348015610f6c57600080fd5b50610fbe610f7b366004614e27565b601c602052600090815260409020805460018201546002830154600384015460048501546005860154600687015460079097015495969495939492939192909188565b604080519889526020890197909752958701949094526060860192909252608085015260a084015260c083015260e082015261010001610582565b34801561100557600080fd5b5061072a611014366004614e27565b613c91565b34801561102557600080fd5b506106da611034366004614f25565b6001602052600090815260409020546001600160a01b031681565b34801561105b57600080fd5b5061072a61106a366004614e27565b613e11565b34801561107b57600080fd5b5061072a61108a366004614f63565b613f11565b34801561109b57600080fd5b5061072a6110aa366004614f63565b613f42565b3480156110bb57600080fd5b506005546106da906001600160a01b031681565b3480156110db57600080fd5b50600b546106da906001600160a01b031681565b3480156110fb57600080fd5b506015546111099060020b81565b60405160029190910b8152602001610582565b34801561112857600080fd5b50600f546106da906001600160a01b031681565b34801561114857600080fd5b5061072a611157366004614ebe565b602360209081526000928352604080842090915290825290205481565b34801561118057600080fd5b5061055461118f366004614f3e565b613fed565b3480156111a057600080fd5b506111e46111af366004614e27565b601f60205260009081526040902080546001820154600283015460038401546004850154600590950154939492939192909186565b604080519687526020870195909552938501929092526060840152608083015260a082015260c001610582565b34801561121d57600080fd5b5061125b61122c366004614e27565b601e60205260009081526040902080546001820154600283015460038401546004909401549293919290919085565b604080519586526020860194909452928401919091526060830152608082015260a001610582565b34801561128f57600080fd5b5061072a60135481565b3480156112a557600080fd5b50600c546106da906001600160a01b031681565b3480156112c557600080fd5b506105546112d4366004614e27565b614012565b3480156112e557600080fd5b5061069f6112f4366004614ef7565b6144d2565b34801561130557600080fd5b5061072a611314366004614f63565b614593565b34801561132557600080fd5b5061072a611334366004614e6e565b6145af565b6001600160a01b0381166000908152601c6020908152604091829020825161010081018452815481526001820154928101929092526002810154928201929092526003820154606082015260048201546080820152600582015460a0820152600682015460c0820181905260079092015460e0820152904210156114045760405162461bcd60e51b815260206004820152600f60248201527f6e6f74206465706f73697454696d65000000000000000000000000000000000060448201526064015b60405180910390fd5b8060e0015142106114575760405162461bcd60e51b815260206004820152600f60248201527f656e64206465706f73697454696d65000000000000000000000000000000000060448201526064016113fb565b6001600160a01b03821660008181526021602090815260408083203384528252808320938352601f9091529020815460ff16611567576001600160a01b038416600090815260186020908152604082208054600181810183559184529190922001805473ffffffffffffffffffffffffffffffffffffffff191633179055825460ff19168117835560048201546114ed91614ff0565b60048201556001600160a01b03841660009081526020808052604080832033845282528083208151608081018352815460ff808216151583526101009091041693810193909352600181015491830182905260020154606083015290910361156557600282015461155f906001614ff0565b60028301555b505b3482600101546115779190614ff0565b60018301556001600160a01b0384166000908152601660205260409020546115a0903490614ff0565b6001600160a01b038516600081815260166020908152604091829020939093558051918252349282019290925233917f8752a472e571a816aea92eec8dae9baf628e840f4929fbcc2d155e6233ff68a791015b60405180910390a250505050565b60006001600160e01b03198216637965db0b60e01b148061163257506301ffc9a760e01b6001600160e01b03198316145b92915050565b6001600160a01b0383166000908152601e60209081526040808320815160a08101835281548152600182015493810193909352600281015491830182905260038101546060840152600401546080830152829182914210156116a557600080600093509350935050611890565b80518511156116bf57600080600093509350935050611890565b6001600160a01b038088166000908152602260209081526040808320938a1683529281528282208351608081018552815460ff16151581526001820154928101929092526002810154938201939093526003909201546060830152806117258a8a6144d2565b92509250508160000361174657600080600096509650965050505050611890565b8183602001511061176557600080600096509650965050505050611890565b60006117708b613ae1565b90506000818660000151148015611785575089155b156117ab5760208501516117999085615003565b98509296509094506118909350505050565b8960000361183b57816000036117cb579750919550935061189092505050565b6127108660200151856117de9190615016565b6117e89190615043565b60208601519091506117fb600184615003565b875161180990600190615003565b6118138488615003565b61181d9190615043565b6118279190615016565b6118319083614ff0565b6117999190615003565b89600103611860576127108660200151856118569190615016565b6117999190615043565b6127108660200151856118739190615016565b61187d9190615043565b60208601519091506117fb60018c615003565b93509350939050565b6001600160a01b03811660009081526016602052604081205481906118bf908490613f42565b905060006118cc84613c91565b9050808210156118dd575092915050565b9392505050565b6118ed336123c9565b6119445760405162461bcd60e51b815260206004820152602260248201527f41636365737369626c653a2043616c6c6572206973206e6f7420616e2061646d60448201526134b760f11b60648201526084016113fb565b61196e7fdf8b4c520ffe197c5343c6f5aec59570151ef9a492f2c624fd45ddde6135ec4282612eab565b50565b6009546000906001600160a01b0316806119b25760405162461bcd60e51b81526020600482015260026024820152612d1960f11b60448201526064016113fb565b6001600160a01b03841660009081526023602090815260408083206001845290915281205490819003611a0c5760405162461bcd60e51b81526020600482015260026024820152615a3160f01b60448201526064016113fb565b6001600160a01b03851660009081526023602090815260408083206002845290915281205490819003611a665760405162461bcd60e51b81526020600482015260026024820152615a3160f01b60448201526064016113fb565b6001600160a01b03861660009081526023602090815260408083206003845290915281205490819003611ac05760405162461bcd60e51b81526020600482015260026024820152615a3160f01b60448201526064016113fb565b6001600160a01b03871660009081526023602090815260408083206004845290915281205490819003611b1a5760405162461bcd60e51b81526020600482015260026024820152615a3160f01b60448201526064016113fb565b6001600160a01b038881166000908152601c60209081526040808320815161010081018352815481526001820154938101849052600282015481840152600382015460608201526004808301546080830152600583015460a0830152600683015460c083015260079092015460e0820152600954925163277166bf60e11b81528d871692810192909252602482019390935291931690634ee2cd7e90604401602060405180830381865afa158015611bd6573d6000803e3d6000fd5b505050506040513d601f19601f82011682018060405250810190611bfa9190615057565b6001600160a01b038b16600090815260236020908152604080832060018452909152812054919250908210801590611c5557506001600160a01b038b1660009081526023602090815260408083206002845290915290205482105b15611c6257506001611d8d565b6001600160a01b038b166000908152602360209081526040808320600284529091529020548210801590611cb957506001600160a01b038b1660009081526023602090815260408083206003845290915290205482105b15611cc657506002611d8d565b6001600160a01b038b166000908152602360209081526040808320600384529091529020548210801590611d1d57506001600160a01b038b1660009081526023602090815260408083206004845290915290205482105b15611d2a57506003611d8d565b6001600160a01b038b166000908152602360209081526040808320600484529091529020548210611d5d57506004611d8d565b6001600160a01b038b16600090815260236020908152604080832060018452909152902054821015611d8d575060005b9a9950505050505050505050565b6001600160a01b0381166000908152601e6020908152604091829020825160a0810184528154815260018201549281019290925260028101549282018390526003810154606083015260040154608082015290421015611e3d5760405162461bcd60e51b815260206004820152600d60248201527f6e6f7420636c61696d54696d650000000000000000000000000000000000000060448201526064016113fb565b6001600160a01b03821660008181526021602090815260408083203380855290835281842094845260228352818420908452909152812090611e7e85612409565b90508060000361209257611eaa604051806040016040528060018152602001603160f81b815250614652565b815460ff161515600103611f005760405162461bcd60e51b815260206004820152601160248201527f616c726561647920676574526566756e6400000000000000000000000000000060448201526064016113fb565b6001600160a01b038516600090815260208080526040808320338452909152812060018086015490820154919291611f389190614ff0565b845460ff1916600117855560028501819055604051909150600090339083908381818185875af1925050503d8060008114611f8f576040519150601f19603f3d011682016040523d82523d6000602084013e611f94565b606091505b5050905080611fe55760405162461bcd60e51b815260206004820152601160248201527f636c61696d20726566756e64206661696c00000000000000000000000000000060448201526064016113fb565b6120246040518060400160405280600c81526020017f726566756e64544f4e203a20000000000000000000000000000000000000000081525083614695565b612046604051806040016040528060018152602001601960f91b815250614652565b604080516001600160a01b038a1681526020810184905233917fec1e5ed733e00f1a00915d56caef57b4f52312dde4f9b3165f213319a0da156b910160405180910390a25050506123c2565b60008060006120a388336000611638565b925092509250600082116120f95760405162461bcd60e51b815260206004820152601260248201527f6e6f20707572636861736520616d6f756e74000000000000000000000000000060448201526064016113fb565b600083116121355760405162461bcd60e51b81526020600482015260096024820152681b9bc81c995dd85c9960ba1b60448201526064016113fb565b828560010154836121469190615003565b10156121945760405162461bcd60e51b815260206004820152601460248201527f616c726561647920676574416c6c72657761726400000000000000000000000060448201526064016113fb565b6040516370a0823160e01b815230600482015283906001600160a01b038a16906370a0823190602401602060405180830381865afa1580156121da573d6000803e3d6000fd5b505050506040513d601f19601f820116820180604052508101906121fe9190615057565b101561224c5760405162461bcd60e51b815260206004820152601360248201527f646f6e7420686176652073616c65546f6b656e0000000000000000000000000060448201526064016113fb565b82856001015461225c9190614ff0565b60018601556122756001600160a01b03891633856146da565b6001600160a01b0388166000908152601f60205260409020855460ff161580156122a05750865460ff165b156122c65760058101546122b5906001614ff0565b6005820155855460ff191660011786555b6000821180156122d857506002860154155b15612379574782111561232d5760405162461bcd60e51b815260206004820152601460248201527f646f6e74206861766520726566756e6420746f6e00000000000000000000000060448201526064016113fb565b60028601829055604080516001600160a01b038b1681526020810184905233917fec1e5ed733e00f1a00915d56caef57b4f52312dde4f9b3165f213319a0da156b910160405180910390a25b604080516001600160a01b038b1681526020810186905233917ff7a40077ff7a04c7e61f6f26fb13774259ddf1b6bce9ecf26a8276cdd3992683910160405180910390a2505050505b5050505050565b6001600160a01b03811660009081527f2fb794d17134dfdec181ddbac1babb5ab1eb140204ef4d982f294e7fc8b69022602052604081205460ff16611632565b6001600160a01b0381166000818152601f60209081526040808320815160c0808201845282548252600180840154838701526002808501548487015260038086015460608087019190915260048088015460808089019190915260059889015460a0808a01919091529c8c52601d8b52898c208a5161014081018c5281548152968101549b87019b909b528a8501549986019990995291890154908401528701549582019590955292850154968301969096526006840154958201959095526007909201549081900b60e083015260ff63010000008204811615156101008401526401000000009091041615156101208201529091908261250985612583565b83602001516125189190614ff0565b905060008260800151821061254d5760648360a00151836125399190615016565b6125439190615043565b9695505050505050565b50600095945050505050565b600082815260046020526040902060010154612574816147ee565b61257e83836147f8565b505050565b6001600160a01b03811660009081526016602052604081205481906125a9908490613f42565b905060006125b684613c91565b9050808210156125de575050506001600160a01b031660009081526016602052604090205490565b6125e88482613349565b949350505050565b80806000036126265760405162461bcd60e51b81526020600482015260026024820152615a3160f01b60448201526064016113fb565b6001600160a01b0383166000818152601c60209081526040808320815161010081018352815481526001820154818501526002820154818401526003820154606082015260048201546080820152600582015460a0820152600682015460c082015260079091015460e08201908152948452601d909252909120915190919042116126f35760405162461bcd60e51b815260206004820152601b60248201527f6e65656420746f20656e6420746865206465706f73697454696d65000000000060448201526064016113fb565b60006126fe86612409565b9050600081116127505760405162461bcd60e51b815260206004820152601660248201527f646f6e277420706173732074686520686172644361700000000000000000000060448201526064016113fb565b60078201546301000000900460ff1615156000036127c957848110156127a85760405162461bcd60e51b815260206004820152600d60248201526c30b6b7bab73a24b71037bb32b960991b60448201526064016113fb565b6006820181905560078201805463ff0000001916630100000017905561280d565b848260060154101561280d5760405162461bcd60e51b815260206004820152600d60248201526c30b6b7bab73a24b71037bb32b960991b60448201526064016113fb565b600b54600a546040516307f43c1960e31b81526001600160a01b0392831660048201529116602482015260009073__$86989bec654fe21c5325a7b16e11ff34c5$__90633fa1e0c890604401602060405180830381865af4158015612876573d6000803e3d6000fd5b505050506040513d601f19601f8201168201806040525081019061289a9190615070565b9050600080826001600160a01b0316633850c7bd6040518163ffffffff1660e01b815260040160e060405180830381865afa1580156128dd573d6000803e3d6000fd5b505050506040513d601f19601f8201168201806040525081019061290191906150c6565b5050505050915091506000826001600160a01b0316116129635760405162461bcd60e51b815260206004820152601060248201527f706f6f6c206e6f7420696e697469616c0000000000000000000000000000000060448201526064016113fb565b600061297084607861489a565b6040517fff9ceebd000000000000000000000000000000000000000000000000000000008152600282810b6004830152603c6024830152604482015290915073__$86989bec654fe21c5325a7b16e11ff34c5$__9063ff9ceebd90606401602060405180830381865af41580156129eb573d6000803e3d6000fd5b505050506040513d601f19601f82011682018060405250810190612a0f9190615150565b60020b8260020b12612a635760405162461bcd60e51b815260206004820152601860248201527f6f766572206368616e676564207469636b2072616e67652e000000000000000060448201526064016113fb565b600b54600a546007880154604051633e1644f160e11b8152600481018d90526001600160a01b038881166024830152938416604482015292909116606483015260020b6084820152600090819073__$86989bec654fe21c5325a7b16e11ff34c5$__90637c2c89e29060a401606060405180830381865af4158015612aec573d6000803e3d6000fd5b505050506040513d601f19601f82011682018060405250810190612b10919061516b565b92505091506000600560009054906101000a90046001600160a01b03166001600160a01b0316600b60009054906101000a90046001600160a01b0316600a60009054906101000a90046001600160a01b0316610bb88f6000604051602401612bb09594939291906001600160a01b03958616815293909416602084015262ffffff919091166040830152606082015260ff91909116608082015260a00190565b60408051601f198184030181529181526020820180516001600160e01b031663f7729d4360e01b17905251612be591906151bd565b6000604051808303816000865af19150503d8060008114612c22576040519150601f19603f3d011682016040523d82523d6000602084013e612c27565b606091505b509150506000612c3682614a59565b90506103e8612c47826103e3615016565b612c519190615043565b905083811015612ca35760405162461bcd60e51b815260206004820152601060248201527f7072696365496d70616374206f7665720000000000000000000000000000000060448201526064016113fb565b60068a01548e908e90612cb7908290615003565b60068d0155600c5460408051630d0e30db60e41b815290516001600160a01b039092169163d0e30db0918491600480830192600092919082900301818588803b158015612d0357600080fd5b505af1158015612d17573d6000803e3d6000fd5b50506040805161010081018252600b546001600160a01b039081168252600a5481166020830152610bb8828401526007548116606083015242608083015260a0820187905260c082018990528a811660e0830152600854925163414bf38960e01b81529195506000945091909116915063414bf38990612e059085906004016000610100820190506001600160a01b0380845116835280602085015116602084015262ffffff60408501511660408401528060608501511660608401526080840151608084015260a084015160a084015260c084015160c08401528060e08501511660e08401525092915050565b6020604051808303816000875af1158015612e24573d6000803e3d6000fd5b505050506040513d601f19601f82011682018060405250810190612e489190615057565b604080516001600160a01b03871681526020810186905290810182905290915033907f34c21668d9e0d31d289d483bfe1b46a335340504801ea7feebfbb347bc4fe5679060600160405180910390a2505050505050505050505050505050505050565b6001600160a01b0381163314612f295760405162461bcd60e51b815260206004820152602f60248201527f416363657373436f6e74726f6c3a2063616e206f6e6c792072656e6f756e636560448201527f20726f6c657320666f722073656c66000000000000000000000000000000000060648201526084016113fb565b612f338282614afd565b5050565b60186020528160005260406000208181548110612f5357600080fd5b6000918252602090912001546001600160a01b03169150829050565b600080612f7c8484611971565b9050600060ff821615612fc757815b60ff811615612fbd57612f9f8686836138c5565b612fa99083614ff0565b915080612fb5816151d9565b915050612f8b565b5091506116329050565b506000949350505050565b60196020528160005260406000208181548110612f5357600080fd5b6001600160a01b0381166000908152601c60209081526040918290208251610100810184528154815260018201549281019290925260028101549282019290925260038201546060820152600482015460808201819052600583015460a0830152600683015460c083015260079092015460e0820152904210156130b45760405162461bcd60e51b815260206004820152601260248201527f6e6f7420726f756e643153616c6554696d65000000000000000000000000000060448201526064016113fb565b8060a0015142106131075760405162461bcd60e51b815260206004820152601260248201527f656e6420726f756e643153616c6554696d65000000000000000000000000000060448201526064016113fb565b6001600160a01b0382166000908152602080805260408083203384529091529020805460ff16151560011461317e5760405162461bcd60e51b815260206004820152600c60248201527f6e6f2077686974656c697374000000000000000000000000000000000000000060448201526064016113fb565b600061318a8433611971565b905060006131988534613f42565b905060006131a68633612f6f565b90508184600201546131b89190614ff0565b8110156132075760405162461bcd60e51b815260206004820152600e60248201527f646f6e2774206f7665722062757900000000000000000000000000000000000060448201526064016113fb565b6001600160a01b0386166000908152601f6020526040812060018601549091036132af57600381015461323b906001614ff0565b60038201556002810154613250906001614ff0565b60028201556001600160a01b038716600090815260276020908152604080832060ff88168452909152902054613287906001614ff0565b6001600160a01b038816600090815260276020908152604080832060ff891684529091529020555b3485600101546132bf9190614ff0565b600186015560028501546132d4908490614ff0565b600286015560018101546132e9903490614ff0565b600182015580546132fb908490614ff0565b8155604080516001600160a01b038916815234602082015233917f9840f3ca16eed984a6ad48d36928a9cfb427c7f90a8d37e017b3385a747aa294910160405180910390a250505050505050565b6001600160a01b0382166000908152601d602090815260408083208151610140810183528154815260018201549381019390935260028082015492840183905260038201546060850181905260048301546080860152600583015460a0860152600683015460c08601526007909201549081900b60e085015260ff630100000082048116151561010086015264010000000090910416151561012084015283916133f39086615016565b6133fd9190615043565b95945050505050565b6001600160a01b0381166000908152601d602052604090206007810154640100000000900460ff161515600114801590613450575060078101546301000000900460ff1615156001145b61349c5760405162461bcd60e51b815260206004820152601a60248201527f6e656564207468652065786368616e676557544f4e746f544f5300000000000060448201526064016113fb565b6001600160a01b0382166000908152601f60205260408120906134be84612409565b90506000816134cc86612583565b84600101546134db9190614ff0565b6134e59190615003565b9050478111156135375760405162461bcd60e51b815260206004820152600d60248201527f686176656e277420746f6b656e0000000000000000000000000000000000000060448201526064016113fb565b60078401805464ff000000001916640100000000179055825460009061355c87611899565b6001870154875461356d9190614ff0565b6135779190615003565b6135819190615003565b905061358c81614b80565b801561362357600e54600f54604051631474f2a960e31b81526001600160a01b0389811660048301529182166024820152604481018490526000606482015260a06084820152600260a482015261060f60f31b60c482015291169063a3a795489060e401600060405180830381600087803b15801561360a57600080fd5b505af115801561361e573d6000803e3d6000fd5b505050505b60065460405163024f96c560e11b81526001600160a01b0388811660048301529091169063049f2d8a9084906024016000604051808303818588803b15801561366b57600080fd5b505af115801561367f573d6000803e3d6000fd5b5050604080516001600160a01b038b168152602081018790529081018790523393507f4c2c0ab6abacae9e08e6f826eee15e2782e65aaa46fa6d77cbaec9c94247aad59250606001905060405180910390a2505050505050565b6136e2336123c9565b6137395760405162461bcd60e51b815260206004820152602260248201527f41636365737369626c653a2043616c6c6572206973206e6f7420616e2061646d60448201526134b760f11b60648201526084016113fb565b61196e7fdf8b4c520ffe197c5343c6f5aec59570151ef9a492f2c624fd45ddde6135ec4282612559565b61376c336123c9565b6137c35760405162461bcd60e51b815260206004820152602260248201527f41636365737369626c653a2043616c6c6572206973206e6f7420616e2061646d60448201526134b760f11b60648201526084016113fb565b6001600160a01b0381166138195760405162461bcd60e51b815260206004820152601860248201527f41636365737369626c653a207a65726f2061646472657373000000000000000060448201526064016113fb565b6001600160a01b03811633036138715760405162461bcd60e51b815260206004820152601660248201527f41636365737369626c653a2073616d652061646d696e0000000000000000000060448201526064016113fb565b61389b7fdf8b4c520ffe197c5343c6f5aec59570151ef9a492f2c624fd45ddde6135ec4282612559565b61196e7fdf8b4c520ffe197c5343c6f5aec59570151ef9a492f2c624fd45ddde6135ec4233612eab565b6001600160a01b038084166000818152602080805260408083209487168352938152838220845160808082018752825460ff8082161515845261010091829004811684870152600180860154858b0152600295860154606080870191909152988852601d87528988208a5161014081018c52815481528183015498810198909852808701549a88019a909a5260038a015498870198909852600489015492860192909252600588015460a0860152600688015460c08601526007909701549283900b60e085015263010000008304811615159684019690965264010000000090910490941615156101208201528351919392909184919015151480156139ce575060008560ff16115b15613a3e576001600160a01b038716600081815260266020908152604080832060ff8a16808552908352818420549484526024835281842090845290915290205483516127109291613a1f91615016565b613a299190615043565b613a339190615043565b93506118dd92505050565b60ff851615613ad4576001600160a01b038716600090815260266020908152604080832060ff89168452909152812054613a79906001614ff0565b6001600160a01b038916600090815260246020908152604080832060ff8b1684529091529020548451919250612710918391613ab491615016565b613abe9190615043565b613ac89190615043565b94506118dd9350505050565b5060009695505050505050565b6001600160a01b0381166000908152601e60209081526040808320815160a08101835281548152600182015493810193909352600281015491830182905260038101546060840152600401546080830152421015613b3e57600091505b42816040015111158015613b555750806060015142105b15613b635760019150613b9a565b42816060015111613b9a5760808101516060820151613b829042615003565b613b8c9190615043565b613b97906002614ff0565b91505b8051821115613ba857805191505b50919050565b6001600160a01b03808316600090815260216020908152604080832093851683529281528282208351808501909452805460ff161580158552600190910154918401919091529091829182919080613c0857506020810151155b15613c1e57600080600093509350935050613c8a565b6000613c2c878760006145af565b90506000613c3a8883613349565b602084015190915060008082841015613c6a57613c578484615003565b9050613c638b85613f42565b9150613c7e565b85602001519350613c7b8b84613f42565b91505b92975095509093505050505b9250925092565b600080601c6000846001600160a01b03166001600160a01b03168152602001908152602001600020604051806101000160405290816000820154815260200160018201548152602001600282015481526020016003820154815260200160048201548152602001600582015481526020016006820154815260200160078201548152505090506000601d6000856001600160a01b03166001600160a01b0316815260200190815260200160002060405180610140016040529081600082015481526020016001820154815260200160028201548152602001600382015481526020016004820154815260200160058201548152602001600682015481526020016007820160009054906101000a900460020b60020b60020b81526020016007820160039054906101000a900460ff161515151581526020016007820160049054906101000a900460ff16151515158152505090508160a00151421015613df957519392505050565b613e0284613e11565b81602001516125e89190614ff0565b6001600160a01b0381166000818152601f60209081526040808320815160c0808201845282548252600180840154838701526002808501548487015260038086015460608087019190915260048088015460808089019190915260059889015460a0808a01919091529c8c52601d8b52898c208a5161014081018c528154808252978201549c81019c909c52808601549a8c019a909a5292890154918a01919091528701549088015293850154978601979097526006840154908501526007909201549081900b60e084015260ff63010000008204811615156101008501526401000000009091041615156101208301528051929390926125e891615003565b601a6020528160005260406000208181548110613f2d57600080fd5b90600052602060002001600091509150505481565b6001600160a01b0382166000908152601d602090815260408083208151610140810183528154815260018201549381019390935260028082015492840183905260038201546060850181905260048301546080860152600583015460a0860152600683015460c08601526007909201549081900b60e085015260ff63010000008204811615156101008601526401000000009091041615156101208401528391906133f39086615016565b600082815260046020526040902060010154614008816147ee565b61257e8383614afd565b6001600160a01b0381166000908152601c60209081526040918290208251610100810184528154815260018201549281019290925260028101549282018390526003810154606083015260048101546080830152600581015460a0830152600681015460c08301526007015460e0820152904210156140d35760405162461bcd60e51b815260206004820152601160248201527f6e6f742077686974656c69737454696d6500000000000000000000000000000060448201526064016113fb565b806060015142106141265760405162461bcd60e51b815260206004820152601160248201527f656e642077686974656c69737454696d6500000000000000000000000000000060448201526064016113fb565b60006141328333611971565b905060018160ff1610156141885760405162461bcd60e51b815260206004820152601160248201527f6e65656420746f206d6f72652073544f5300000000000000000000000000000060448201526064016113fb565b6001600160a01b0383166000908152602080805260408083203384529091529020805460ff1615156001036141ff5760405162461bcd60e51b815260206004820152601060248201527f616c726561647920617474656e6465640000000000000000000000000000000060448201526064016113fb565b6001600160a01b038416600081815260196020908152604080832080546001818101835591855283852001805473ffffffffffffffffffffffffffffffffffffffff191633179055855460ff8816610100810261ffff199092169190911782178755948452602583528184209484529390915290205461427e91614ff0565b6001600160a01b038516600090815260256020908152604080832060ff87168085529252909120919091556004036143b9576001600160a01b0384166000908152602660209081526040808320600484529091529020546142e0906001614ff0565b6001600160a01b0385166000908152602660209081526040808320600484529091528082209290925560038152205461431a906001614ff0565b6001600160a01b03851660009081526026602090815260408083206003845290915280822092909255600281522054614354906001614ff0565b6001600160a01b0385166000908152602660209081526040808320600284529091528082209290925560018082529190205461438f91614ff0565b6001600160a01b03851660009081526026602090815260408083206001845290915290205561448f565b8160ff166003036143f4576001600160a01b03841660009081526026602090815260408083206003845290915290205461431a906001614ff0565b8160ff1660020361442f576001600160a01b038416600090815260266020908152604080832060028452909152902054614354906001614ff0565b8160ff1660010361448f576001600160a01b0384166000908152602660209081526040808320600180855292529091205461446991614ff0565b6001600160a01b0385166000908152602660209081526040808320600184529091529020555b604080516001600160a01b038616815260ff8416602082015233917f80aaf28a2c7f80f586e64ede5c6c3b5433b8c6cf1351b6b51d8ab9febb8b5e7a91016115f3565b6001600160a01b0380831660009081526020808052604080832093851683529281528282208351608081018552815460ff808216158015845261010090920416938201939093526001820154948101949094526002015460608401529091829182919061457d5760008060006145488989613bae565b92509250925083604001518361455e9190614ff0565b606085015161456d9084614ff0565b8296509650965050505050613c8a565b6145878686613bae565b93509350935050613c8a565b601b6020528160005260406000208181548110613f2d57600080fd5b6001600160a01b03808416600090815260216020908152604080832093861683529281528282208351808501909452805460ff1615158452600101549083018190529091908290614601908590614ff0565b6001600160a01b03871660009081526016602052604081205491925090614629908690614ff0565b8261463389613c91565b61463d9190615016565b6146479190615043565b979650505050505050565b61196e816040516024016146669190615222565b60408051601f198184030181529190526020810180516001600160e01b031663104c13eb60e21b179052614bc1565b612f3382826040516024016146ab929190615235565b60408051601f198184030181529190526020810180516001600160e01b0316632d839cb360e21b179052614bc1565b604080516001600160a01b038481166024830152604480830185905283518084039091018152606490920183526020820180516001600160e01b031663a9059cbb60e01b179052915160009283929087169161473691906151bd565b6000604051808303816000865af19150503d8060008114614773576040519150601f19603f3d011682016040523d82523d6000602084013e614778565b606091505b50915091508180156147a25750805115806147a25750808060200190518101906147a29190615257565b6123c25760405162461bcd60e51b815260206004820152600f60248201527f5452414e534645525f4641494c4544000000000000000000000000000000000060448201526064016113fb565b61196e8133614be2565b60008281526004602090815260408083206001600160a01b038516845290915290205460ff16612f335760008281526004602090815260408083206001600160a01b03851684529091529020805460ff191660011790556148563390565b6001600160a01b0316816001600160a01b0316837f2f8788117e7eff1d82e926ec794901d17c78024a50270940304540a733656f0d60405160405180910390a45050565b60008163ffffffff166000036148d75760405162461bcd60e51b8152602060048201526002602482015261042560f41b60448201526064016113fb565b604080516002808252606082018352600092602083019080368337019050509050828160008151811061490c5761490c615288565b602002602001019063ffffffff16908163ffffffff168152505060008160018151811061493b5761493b615288565b63ffffffff9092166020928302919091019091015260405163883bdbfd60e01b81526000906001600160a01b0386169063883bdbfd9061497f90859060040161529e565b600060405180830381865afa15801561499c573d6000803e3d6000fd5b505050506040513d6000823e601f3d908101601f191682016040526149c491908101906153b1565b5090506000816000815181106149dc576149dc615288565b6020026020010151826001815181106149f7576149f7615288565b6020026020010151614a09919061547d565b9050614a19600386900b826154aa565b935060008160060b128015614a3d5750614a37600386900b826154e8565b60060b15155b15614a505783614a4c8161550a565b9450505b50505092915050565b60008151602014614ae957604482511015614ab65760405162461bcd60e51b815260206004820152601060248201527f556e6578706563746564206572726f720000000000000000000000000000000060448201526064016113fb565b60048201915081806020019051810190614ad09190615523565b60405162461bcd60e51b81526004016113fb9190615222565b818060200190518101906116329190615057565b60008281526004602090815260408083206001600160a01b038516845290915290205460ff1615612f335760008281526004602090815260408083206001600160a01b0385168085529252808320805460ff1916905551339285917ff6391f5c32d9c69d2a47ea670b442974b53935d1edc7fd64eb21e047a839171b9190a45050565b61196e81604051602401614b9691815260200190565b60408051601f198184030181529190526020810180516001600160e01b031663f82c50f160e01b1790525b80516a636f6e736f6c652e6c6f67602083016000808483855afa5050505050565b60008281526004602090815260408083206001600160a01b038516845290915290205460ff16612f3357614c1581614c57565b614c20836020614c69565b604051602001614c319291906155b7565b60408051601f198184030181529082905262461bcd60e51b82526113fb91600401615222565b60606116326001600160a01b03831660145b60606000614c78836002615016565b614c83906002614ff0565b67ffffffffffffffff811115614c9b57614c9b615272565b6040519080825280601f01601f191660200182016040528015614cc5576020820181803683370190505b509050600360fc1b81600081518110614ce057614ce0615288565b60200101906001600160f81b031916908160001a905350600f60fb1b81600181518110614d0f57614d0f615288565b60200101906001600160f81b031916908160001a9053506000614d33846002615016565b614d3e906001614ff0565b90505b6001811115614dc3577f303132333435363738396162636465660000000000000000000000000000000085600f1660108110614d7f57614d7f615288565b1a60f81b828281518110614d9557614d95615288565b60200101906001600160f81b031916908160001a90535060049490941c93614dbc81615638565b9050614d41565b5083156118dd5760405162461bcd60e51b815260206004820181905260248201527f537472696e67733a20686578206c656e67746820696e73756666696369656e7460448201526064016113fb565b6001600160a01b038116811461196e57600080fd5b600060208284031215614e3957600080fd5b81356118dd81614e12565b600060208284031215614e5657600080fd5b81356001600160e01b0319811681146118dd57600080fd5b600080600060608486031215614e8357600080fd5b8335614e8e81614e12565b92506020840135614e9e81614e12565b929592945050506040919091013590565b60ff8116811461196e57600080fd5b60008060408385031215614ed157600080fd5b8235614edc81614e12565b91506020830135614eec81614eaf565b809150509250929050565b60008060408385031215614f0a57600080fd5b8235614f1581614e12565b91506020830135614eec81614e12565b600060208284031215614f3757600080fd5b5035919050565b60008060408385031215614f5157600080fd5b823591506020830135614eec81614e12565b60008060408385031215614f7657600080fd5b8235614f8181614e12565b946020939093013593505050565b600080600060608486031215614fa457600080fd5b8335614faf81614e12565b92506020840135614fbf81614e12565b91506040840135614fcf81614eaf565b809150509250925092565b634e487b7160e01b600052601160045260246000fd5b8082018082111561163257611632614fda565b8181038181111561163257611632614fda565b808202811582820484141761163257611632614fda565b634e487b7160e01b600052601260045260246000fd5b6000826150525761505261502d565b500490565b60006020828403121561506957600080fd5b5051919050565b60006020828403121561508257600080fd5b81516118dd81614e12565b8051600281900b811461509f57600080fd5b919050565b805161ffff8116811461509f57600080fd5b8051801515811461509f57600080fd5b600080600080600080600060e0888a0312156150e157600080fd5b87516150ec81614e12565b96506150fa6020890161508d565b9550615108604089016150a4565b9450615116606089016150a4565b9350615124608089016150a4565b925060a088015161513481614eaf565b915061514260c089016150b6565b905092959891949750929550565b60006020828403121561516257600080fd5b6118dd8261508d565b60008060006060848603121561518057600080fd5b83519250602084015191506040840151614fcf81614e12565b60005b838110156151b457818101518382015260200161519c565b50506000910152565b600082516151cf818460208701615199565b9190910192915050565b600060ff8216806151ec576151ec614fda565b6000190192915050565b6000815180845261520e816020860160208601615199565b601f01601f19169290920160200192915050565b6020815260006118dd60208301846151f6565b60408152600061524860408301856151f6565b90508260208301529392505050565b60006020828403121561526957600080fd5b6118dd826150b6565b634e487b7160e01b600052604160045260246000fd5b634e487b7160e01b600052603260045260246000fd5b6020808252825182820181905260009190848201906040850190845b818110156152dc57835163ffffffff16835292840192918401916001016152ba565b50909695505050505050565b604051601f8201601f1916810167ffffffffffffffff8111828210171561531157615311615272565b604052919050565b600067ffffffffffffffff82111561533357615333615272565b5060051b60200190565b600082601f83011261534e57600080fd5b8151602061536361535e83615319565b6152e8565b82815260059290921b8401810191818101908684111561538257600080fd5b8286015b848110156153a657805161539981614e12565b8352918301918301615386565b509695505050505050565b600080604083850312156153c457600080fd5b825167ffffffffffffffff808211156153dc57600080fd5b818501915085601f8301126153f057600080fd5b8151602061540061535e83615319565b82815260059290921b8401810191818101908984111561541f57600080fd5b948201945b8386101561544d5785518060060b811461543e5760008081fd5b82529482019490820190615424565b9188015191965090935050508082111561546657600080fd5b506154738582860161533d565b9150509250929050565b600682810b9082900b03667fffffffffffff198112667fffffffffffff8213171561163257611632614fda565b60008160060b8360060b806154c1576154c161502d565b667fffffffffffff198214600019821416156154df576154df614fda565b90059392505050565b60008260060b806154fb576154fb61502d565b808360060b0791505092915050565b60008160020b627fffff1981036151ec576151ec614fda565b60006020828403121561553557600080fd5b815167ffffffffffffffff8082111561554d57600080fd5b818401915084601f83011261556157600080fd5b81518181111561557357615573615272565b615586601f8201601f19166020016152e8565b915080825285602082850101111561559d57600080fd5b6155ae816020840160208601615199565b50949350505050565b7f416363657373436f6e74726f6c3a206163636f756e74200000000000000000008152600083516155ef816017850160208801615199565b7f206973206d697373696e6720726f6c6520000000000000000000000000000000601791840191820152835161562c816028840160208801615199565b01602801949350505050565b60008161564757615647614fda565b50600019019056fea164736f6c6343000812000a",
  "linkReferences": {
    "contracts/libraries/LibPublicSaleVault.sol": {
      "LibPublicSaleVault": [
        {
          "length": 20,
          "start": 10352
        },
        {
          "length": 20,
          "start": 10725
        },
        {
          "length": 20,
          "start": 10982
        }
      ]
    }
  },
  "deployedLinkReferences": {
    "contracts/libraries/LibPublicSaleVault.sol": {
      "LibPublicSaleVault": [
        {
          "length": 20,
          "start": 10300
        },
        {
          "length": 20,
          "start": 10673
        },
        {
          "length": 20,
          "start": 10930
        }
      ]
    }
  }
}