{
  "_format": "hh-sol-artifact-1",
  "contractName": "L2PublicSaleVault",
  "sourceName": "contracts/L2/vaults/L2PublicSaleVault.sol",
  "abi": [
    {
      "anonymous": false,
      "inputs": [
        {
          "indexed": false,
          "internalType": "address",
          "name": "l2Token",
          "type": "address"
        },
        {
          "indexed": true,
          "internalType": "address",
          "name": "from",
          "type": "address"
        },
        {
          "indexed": false,
          "internalType": "uint256",
          "name": "tier",
          "type": "uint256"
        }
      ],
      "name": "AddedWhiteList",
      "type": "event"
    },
    {
      "anonymous": false,
      "inputs": [
        {
          "indexed": false,
          "internalType": "address",
          "name": "l2Token",
          "type": "address"
        },
        {
          "indexed": true,
          "internalType": "address",
          "name": "from",
          "type": "address"
        },
        {
          "indexed": false,
          "internalType": "uint256",
          "name": "amount",
          "type": "uint256"
        }
      ],
      "name": "Claimed",
      "type": "event"
    },
    {
      "anonymous": false,
      "inputs": [
        {
          "indexed": false,
          "internalType": "address",
          "name": "l2Token",
          "type": "address"
        },
        {
          "indexed": true,
          "internalType": "address",
          "name": "from",
          "type": "address"
        },
        {
          "indexed": false,
          "internalType": "uint256",
          "name": "amount",
          "type": "uint256"
        },
        {
          "indexed": false,
          "internalType": "uint256",
          "name": "liquidityAmount",
          "type": "uint256"
        }
      ],
      "name": "DepositWithdrawal",
      "type": "event"
    },
    {
      "anonymous": false,
      "inputs": [
        {
          "indexed": false,
          "internalType": "address",
          "name": "l2Token",
          "type": "address"
        },
        {
          "indexed": true,
          "internalType": "address",
          "name": "from",
          "type": "address"
        },
        {
          "indexed": false,
          "internalType": "uint256",
          "name": "amount",
          "type": "uint256"
        }
      ],
      "name": "Deposited",
      "type": "event"
    },
    {
      "anonymous": false,
      "inputs": [
        {
          "indexed": false,
          "internalType": "address",
          "name": "l2Token",
          "type": "address"
        },
        {
          "indexed": true,
          "internalType": "address",
          "name": "from",
          "type": "address"
        },
        {
          "indexed": false,
          "internalType": "uint256",
          "name": "amountIn",
          "type": "uint256"
        },
        {
          "indexed": false,
          "internalType": "uint256",
          "name": "amountOut",
          "type": "uint256"
        }
      ],
      "name": "ExchangeSwap",
      "type": "event"
    },
    {
      "anonymous": false,
      "inputs": [
        {
          "indexed": false,
          "internalType": "address",
          "name": "l2Token",
          "type": "address"
        },
        {
          "indexed": true,
          "internalType": "address",
          "name": "from",
          "type": "address"
        },
        {
          "indexed": false,
          "internalType": "uint256",
          "name": "amount",
          "type": "uint256"
        }
      ],
      "name": "ExclusiveSaled",
      "type": "event"
    },
    {
      "anonymous": false,
      "inputs": [
        {
          "indexed": false,
          "internalType": "address",
          "name": "l2Token",
          "type": "address"
        },
        {
          "indexed": true,
          "internalType": "address",
          "name": "from",
          "type": "address"
        },
        {
          "indexed": false,
          "internalType": "uint256",
          "name": "amount",
          "type": "uint256"
        }
      ],
      "name": "Refunded",
      "type": "event"
    },
    {
      "anonymous": false,
      "inputs": [
        {
          "indexed": true,
          "internalType": "bytes32",
          "name": "role",
          "type": "bytes32"
        },
        {
          "indexed": true,
          "internalType": "bytes32",
          "name": "previousAdminRole",
          "type": "bytes32"
        },
        {
          "indexed": true,
          "internalType": "bytes32",
          "name": "newAdminRole",
          "type": "bytes32"
        }
      ],
      "name": "RoleAdminChanged",
      "type": "event"
    },
    {
      "anonymous": false,
      "inputs": [
        {
          "indexed": true,
          "internalType": "bytes32",
          "name": "role",
          "type": "bytes32"
        },
        {
          "indexed": true,
          "internalType": "address",
          "name": "account",
          "type": "address"
        },
        {
          "indexed": true,
          "internalType": "address",
          "name": "sender",
          "type": "address"
        }
      ],
      "name": "RoleGranted",
      "type": "event"
    },
    {
      "anonymous": false,
      "inputs": [
        {
          "indexed": true,
          "internalType": "bytes32",
          "name": "role",
          "type": "bytes32"
        },
        {
          "indexed": true,
          "internalType": "address",
          "name": "account",
          "type": "address"
        },
        {
          "indexed": true,
          "internalType": "address",
          "name": "sender",
          "type": "address"
        }
      ],
      "name": "RoleRevoked",
      "type": "event"
    },
    {
      "anonymous": false,
      "inputs": [
        {
          "indexed": false,
          "internalType": "address",
          "name": "newInitializer",
          "type": "address"
        }
      ],
      "name": "SetInitializer",
      "type": "event"
    },
    {
      "anonymous": false,
      "inputs": [
        {
          "indexed": false,
          "internalType": "address",
          "name": "l2Token",
          "type": "address"
        },
        {
          "indexed": false,
          "internalType": "address",
          "name": "newAdmin",
          "type": "address"
        }
      ],
      "name": "SetVaultAdmin",
      "type": "event"
    },
    {
      "inputs": [],
      "name": "ADMIN_ROLE",
      "outputs": [
        {
          "internalType": "bytes32",
          "name": "",
          "type": "bytes32"
        }
      ],
      "stateMutability": "view",
      "type": "function"
    },
    {
      "inputs": [],
      "name": "DEFAULT_ADMIN_ROLE",
      "outputs": [
        {
          "internalType": "bytes32",
          "name": "",
          "type": "bytes32"
        }
      ],
      "stateMutability": "view",
      "type": "function"
    },
    {
      "inputs": [],
      "name": "POLICY_ROLE",
      "outputs": [
        {
          "internalType": "bytes32",
          "name": "",
          "type": "bytes32"
        }
      ],
      "stateMutability": "view",
      "type": "function"
    },
    {
      "inputs": [
        {
          "internalType": "address",
          "name": "account",
          "type": "address"
        }
      ],
      "name": "addAdmin",
      "outputs": [],
      "stateMutability": "nonpayable",
      "type": "function"
    },
    {
      "inputs": [
        {
          "internalType": "address",
          "name": "_l2token",
          "type": "address"
        }
      ],
      "name": "addWhiteList",
      "outputs": [],
      "stateMutability": "nonpayable",
      "type": "function"
    },
    {
      "inputs": [
        {
          "internalType": "address",
          "name": "",
          "type": "address"
        }
      ],
      "name": "aliveImplementation",
      "outputs": [
        {
          "internalType": "bool",
          "name": "",
          "type": "bool"
        }
      ],
      "stateMutability": "view",
      "type": "function"
    },
    {
      "inputs": [
        {
          "internalType": "address",
          "name": "_l2token",
          "type": "address"
        },
        {
          "internalType": "address",
          "name": "_account",
          "type": "address"
        }
      ],
      "name": "calcul1RoundAmount",
      "outputs": [
        {
          "internalType": "uint256",
          "name": "",
          "type": "uint256"
        }
      ],
      "stateMutability": "view",
      "type": "function"
    },
    {
      "inputs": [
        {
          "internalType": "address",
          "name": "_l2token",
          "type": "address"
        },
        {
          "internalType": "address",
          "name": "_account",
          "type": "address"
        },
        {
          "internalType": "uint256",
          "name": "_round",
          "type": "uint256"
        }
      ],
      "name": "calculClaimAmount",
      "outputs": [
        {
          "internalType": "uint256",
          "name": "_reward",
          "type": "uint256"
        },
        {
          "internalType": "uint256",
          "name": "_totalClaim",
          "type": "uint256"
        },
        {
          "internalType": "uint256",
          "name": "_refundAmount",
          "type": "uint256"
        }
      ],
      "stateMutability": "view",
      "type": "function"
    },
    {
      "inputs": [
        {
          "internalType": "address",
          "name": "_l2token",
          "type": "address"
        },
        {
          "internalType": "address",
          "name": "_account",
          "type": "address"
        },
        {
          "internalType": "uint256",
          "name": "_amount",
          "type": "uint256"
        }
      ],
      "name": "calculOpenSaleAmount",
      "outputs": [
        {
          "internalType": "uint256",
          "name": "",
          "type": "uint256"
        }
      ],
      "stateMutability": "view",
      "type": "function"
    },
    {
      "inputs": [
        {
          "internalType": "address",
          "name": "_l2token",
          "type": "address"
        },
        {
          "internalType": "uint256",
          "name": "_amount",
          "type": "uint256"
        }
      ],
      "name": "calculPayToken",
      "outputs": [
        {
          "internalType": "uint256",
          "name": "",
          "type": "uint256"
        }
      ],
      "stateMutability": "view",
      "type": "function"
    },
    {
      "inputs": [
        {
          "internalType": "address",
          "name": "_l2token",
          "type": "address"
        },
        {
          "internalType": "uint256",
          "name": "_amount",
          "type": "uint256"
        }
      ],
      "name": "calculSaleToken",
      "outputs": [
        {
          "internalType": "uint256",
          "name": "",
          "type": "uint256"
        }
      ],
      "stateMutability": "view",
      "type": "function"
    },
    {
      "inputs": [
        {
          "internalType": "address",
          "name": "_l2token",
          "type": "address"
        },
        {
          "internalType": "address",
          "name": "_account",
          "type": "address"
        }
      ],
      "name": "calculTier",
      "outputs": [
        {
          "internalType": "uint8",
          "name": "",
          "type": "uint8"
        }
      ],
      "stateMutability": "view",
      "type": "function"
    },
    {
      "inputs": [
        {
          "internalType": "address",
          "name": "_l2token",
          "type": "address"
        },
        {
          "internalType": "address",
          "name": "_account",
          "type": "address"
        },
        {
          "internalType": "uint8",
          "name": "tier",
          "type": "uint8"
        }
      ],
      "name": "calculTierAmount",
      "outputs": [
        {
          "internalType": "uint256",
          "name": "",
          "type": "uint256"
        }
      ],
      "stateMutability": "view",
      "type": "function"
    },
    {
      "inputs": [],
      "name": "changeTick",
      "outputs": [
        {
          "internalType": "int24",
          "name": "",
          "type": "int24"
        }
      ],
      "stateMutability": "view",
      "type": "function"
    },
    {
      "inputs": [
        {
          "internalType": "address",
          "name": "_l2token",
          "type": "address"
        }
      ],
      "name": "claim",
      "outputs": [],
      "stateMutability": "nonpayable",
      "type": "function"
    },
    {
      "inputs": [
        {
          "internalType": "address",
          "name": "",
          "type": "address"
        }
      ],
      "name": "claimInfo",
      "outputs": [
        {
          "internalType": "uint256",
          "name": "totalClaimCounts",
          "type": "uint256"
        },
        {
          "internalType": "uint256",
          "name": "firstClaimPercent",
          "type": "uint256"
        },
        {
          "internalType": "uint256",
          "name": "firstClaimTime",
          "type": "uint256"
        },
        {
          "internalType": "uint256",
          "name": "secondClaimTime",
          "type": "uint256"
        },
        {
          "internalType": "uint256",
          "name": "claimInterval",
          "type": "uint256"
        }
      ],
      "stateMutability": "view",
      "type": "function"
    },
    {
      "inputs": [
        {
          "internalType": "address",
          "name": "",
          "type": "address"
        },
        {
          "internalType": "uint256",
          "name": "",
          "type": "uint256"
        }
      ],
      "name": "claimPercents",
      "outputs": [
        {
          "internalType": "uint256",
          "name": "",
          "type": "uint256"
        }
      ],
      "stateMutability": "view",
      "type": "function"
    },
    {
      "inputs": [
        {
          "internalType": "address",
          "name": "",
          "type": "address"
        },
        {
          "internalType": "uint256",
          "name": "",
          "type": "uint256"
        }
      ],
      "name": "claimTimes",
      "outputs": [
        {
          "internalType": "uint256",
          "name": "",
          "type": "uint256"
        }
      ],
      "stateMutability": "view",
      "type": "function"
    },
    {
      "inputs": [
        {
          "internalType": "address",
          "name": "_l2token",
          "type": "address"
        }
      ],
      "name": "currentRound",
      "outputs": [
        {
          "internalType": "uint256",
          "name": "round",
          "type": "uint256"
        }
      ],
      "stateMutability": "view",
      "type": "function"
    },
    {
      "inputs": [],
      "name": "delayTime",
      "outputs": [
        {
          "internalType": "uint256",
          "name": "",
          "type": "uint256"
        }
      ],
      "stateMutability": "view",
      "type": "function"
    },
    {
      "inputs": [
        {
          "internalType": "address",
          "name": "_l2token",
          "type": "address"
        }
      ],
      "name": "depositWithdraw",
      "outputs": [],
      "stateMutability": "payable",
      "type": "function"
    },
    {
      "inputs": [
        {
          "internalType": "address",
          "name": "",
          "type": "address"
        },
        {
          "internalType": "uint256",
          "name": "",
          "type": "uint256"
        }
      ],
      "name": "depositors",
      "outputs": [
        {
          "internalType": "address",
          "name": "",
          "type": "address"
        }
      ],
      "stateMutability": "view",
      "type": "function"
    },
    {
      "inputs": [
        {
          "internalType": "address",
          "name": "_l2token",
          "type": "address"
        },
        {
          "internalType": "uint256",
          "name": "amountIn",
          "type": "uint256"
        }
      ],
      "name": "exchangeWTONtoTOS",
      "outputs": [],
      "stateMutability": "payable",
      "type": "function"
    },
    {
      "inputs": [
        {
          "internalType": "bytes32",
          "name": "role",
          "type": "bytes32"
        }
      ],
      "name": "getRoleAdmin",
      "outputs": [
        {
          "internalType": "bytes32",
          "name": "",
          "type": "bytes32"
        }
      ],
      "stateMutability": "view",
      "type": "function"
    },
    {
      "inputs": [
        {
          "internalType": "bytes32",
          "name": "role",
          "type": "bytes32"
        },
        {
          "internalType": "address",
          "name": "account",
          "type": "address"
        }
      ],
      "name": "grantRole",
      "outputs": [],
      "stateMutability": "nonpayable",
      "type": "function"
    },
    {
      "inputs": [
        {
          "internalType": "address",
          "name": "_l2token",
          "type": "address"
        }
      ],
      "name": "hardcapCalcul",
      "outputs": [
        {
          "internalType": "uint256",
          "name": "",
          "type": "uint256"
        }
      ],
      "stateMutability": "view",
      "type": "function"
    },
    {
      "inputs": [
        {
          "internalType": "bytes32",
          "name": "role",
          "type": "bytes32"
        },
        {
          "internalType": "address",
          "name": "account",
          "type": "address"
        }
      ],
      "name": "hasRole",
      "outputs": [
        {
          "internalType": "bool",
          "name": "",
          "type": "bool"
        }
      ],
      "stateMutability": "view",
      "type": "function"
    },
    {
      "inputs": [
        {
          "internalType": "address",
          "name": "account",
          "type": "address"
        }
      ],
      "name": "isAdmin",
      "outputs": [
        {
          "internalType": "bool",
          "name": "",
          "type": "bool"
        }
      ],
      "stateMutability": "view",
      "type": "function"
    },
    {
      "inputs": [],
      "name": "l1burnVault",
      "outputs": [
        {
          "internalType": "address",
          "name": "",
          "type": "address"
        }
      ],
      "stateMutability": "view",
      "type": "function"
    },
    {
      "inputs": [],
      "name": "l2Bridge",
      "outputs": [
        {
          "internalType": "address",
          "name": "",
          "type": "address"
        }
      ],
      "stateMutability": "view",
      "type": "function"
    },
    {
      "inputs": [],
      "name": "l2ProjectManager",
      "outputs": [
        {
          "internalType": "address",
          "name": "",
          "type": "address"
        }
      ],
      "stateMutability": "view",
      "type": "function"
    },
    {
      "inputs": [],
      "name": "liquidityVault",
      "outputs": [
        {
          "internalType": "address",
          "name": "",
          "type": "address"
        }
      ],
      "stateMutability": "view",
      "type": "function"
    },
    {
      "inputs": [],
      "name": "lockTOS",
      "outputs": [
        {
          "internalType": "address",
          "name": "",
          "type": "address"
        }
      ],
      "stateMutability": "view",
      "type": "function"
    },
    {
      "inputs": [
        {
          "internalType": "address",
          "name": "",
          "type": "address"
        }
      ],
      "name": "manageInfo",
      "outputs": [
        {
          "internalType": "uint256",
          "name": "set1rdTokenAmount",
          "type": "uint256"
        },
        {
          "internalType": "uint256",
          "name": "set2rdTokenAmount",
          "type": "uint256"
        },
        {
          "internalType": "uint256",
          "name": "saleTokenPrice",
          "type": "uint256"
        },
        {
          "internalType": "uint256",
          "name": "tonPrice",
          "type": "uint256"
        },
        {
          "internalType": "uint256",
          "name": "hardCap",
          "type": "uint256"
        },
        {
          "internalType": "uint256",
          "name": "changeTOS",
          "type": "uint256"
        },
        {
          "internalType": "uint256",
          "name": "remainTON",
          "type": "uint256"
        },
        {
          "internalType": "int24",
          "name": "changeTick",
          "type": "int24"
        },
        {
          "internalType": "bool",
          "name": "exchangeTOS",
          "type": "bool"
        },
        {
          "internalType": "bool",
          "name": "adminWithdraw",
          "type": "bool"
        }
      ],
      "stateMutability": "view",
      "type": "function"
    },
    {
      "inputs": [],
      "name": "maxPer",
      "outputs": [
        {
          "internalType": "uint8",
          "name": "",
          "type": "uint8"
        }
      ],
      "stateMutability": "view",
      "type": "function"
    },
    {
      "inputs": [],
      "name": "minPer",
      "outputs": [
        {
          "internalType": "uint8",
          "name": "",
          "type": "uint8"
        }
      ],
      "stateMutability": "view",
      "type": "function"
    },
    {
      "inputs": [
        {
          "internalType": "address",
          "name": "_l2token",
          "type": "address"
        },
        {
          "internalType": "address",
          "name": "user",
          "type": "address"
        }
      ],
      "name": "openSaleUserAmount",
      "outputs": [
        {
          "internalType": "uint256",
          "name": "_realPayAmount",
          "type": "uint256"
        },
        {
          "internalType": "uint256",
          "name": "_realSaleAmount",
          "type": "uint256"
        },
        {
          "internalType": "uint256",
          "name": "_refundAmount",
          "type": "uint256"
        }
      ],
      "stateMutability": "view",
      "type": "function"
    },
    {
      "inputs": [],
      "name": "pauseProxy",
      "outputs": [
        {
          "internalType": "bool",
          "name": "",
          "type": "bool"
        }
      ],
      "stateMutability": "view",
      "type": "function"
    },
    {
      "inputs": [],
      "name": "poolFee",
      "outputs": [
        {
          "internalType": "uint24",
          "name": "",
          "type": "uint24"
        }
      ],
      "stateMutability": "view",
      "type": "function"
    },
    {
      "inputs": [
        {
          "internalType": "uint256",
          "name": "",
          "type": "uint256"
        }
      ],
      "name": "proxyImplementation",
      "outputs": [
        {
          "internalType": "address",
          "name": "",
          "type": "address"
        }
      ],
      "stateMutability": "view",
      "type": "function"
    },
    {
      "inputs": [],
      "name": "quoter",
      "outputs": [
        {
          "internalType": "address",
          "name": "",
          "type": "address"
        }
      ],
      "stateMutability": "view",
      "type": "function"
    },
    {
      "inputs": [
        {
          "internalType": "address",
          "name": "account",
          "type": "address"
        }
      ],
      "name": "removeAdmin",
      "outputs": [],
      "stateMutability": "nonpayable",
      "type": "function"
    },
    {
      "inputs": [
        {
          "internalType": "bytes32",
          "name": "role",
          "type": "bytes32"
        },
        {
          "internalType": "address",
          "name": "account",
          "type": "address"
        }
      ],
      "name": "renounceRole",
      "outputs": [],
      "stateMutability": "nonpayable",
      "type": "function"
    },
    {
      "inputs": [
        {
          "internalType": "bytes32",
          "name": "role",
          "type": "bytes32"
        },
        {
          "internalType": "address",
          "name": "account",
          "type": "address"
        }
      ],
      "name": "revokeRole",
      "outputs": [],
      "stateMutability": "nonpayable",
      "type": "function"
    },
    {
      "inputs": [
        {
          "internalType": "address",
          "name": "_l2token",
          "type": "address"
        }
      ],
      "name": "round1Sale",
      "outputs": [],
      "stateMutability": "payable",
      "type": "function"
    },
    {
      "inputs": [
        {
          "internalType": "address",
          "name": "_l2token",
          "type": "address"
        }
      ],
      "name": "round2Sale",
      "outputs": [],
      "stateMutability": "payable",
      "type": "function"
    },
    {
      "inputs": [
        {
          "internalType": "address",
          "name": "",
          "type": "address"
        }
      ],
      "name": "saleInfo",
      "outputs": [
        {
          "internalType": "uint256",
          "name": "total1rdSaleAmount",
          "type": "uint256"
        },
        {
          "internalType": "uint256",
          "name": "total1rdTONAmount",
          "type": "uint256"
        },
        {
          "internalType": "uint256",
          "name": "totalUsers",
          "type": "uint256"
        },
        {
          "internalType": "uint256",
          "name": "total1rdUsers",
          "type": "uint256"
        },
        {
          "internalType": "uint256",
          "name": "total2rdUsers",
          "type": "uint256"
        },
        {
          "internalType": "uint256",
          "name": "total2rdUsersClaim",
          "type": "uint256"
        }
      ],
      "stateMutability": "view",
      "type": "function"
    },
    {
      "inputs": [
        {
          "internalType": "bytes4",
          "name": "",
          "type": "bytes4"
        }
      ],
      "name": "selectorImplementation",
      "outputs": [
        {
          "internalType": "address",
          "name": "",
          "type": "address"
        }
      ],
      "stateMutability": "view",
      "type": "function"
    },
    {
      "inputs": [],
      "name": "stanTier1",
      "outputs": [
        {
          "internalType": "uint256",
          "name": "",
          "type": "uint256"
        }
      ],
      "stateMutability": "view",
      "type": "function"
    },
    {
      "inputs": [],
      "name": "stanTier2",
      "outputs": [
        {
          "internalType": "uint256",
          "name": "",
          "type": "uint256"
        }
      ],
      "stateMutability": "view",
      "type": "function"
    },
    {
      "inputs": [],
      "name": "stanTier3",
      "outputs": [
        {
          "internalType": "uint256",
          "name": "",
          "type": "uint256"
        }
      ],
      "stateMutability": "view",
      "type": "function"
    },
    {
      "inputs": [],
      "name": "stanTier4",
      "outputs": [
        {
          "internalType": "uint256",
          "name": "",
          "type": "uint256"
        }
      ],
      "stateMutability": "view",
      "type": "function"
    },
    {
      "inputs": [
        {
          "internalType": "bytes4",
          "name": "interfaceId",
          "type": "bytes4"
        }
      ],
      "name": "supportsInterface",
      "outputs": [
        {
          "internalType": "bool",
          "name": "",
          "type": "bool"
        }
      ],
      "stateMutability": "view",
      "type": "function"
    },
    {
      "inputs": [
        {
          "internalType": "address",
          "name": "",
          "type": "address"
        },
        {
          "internalType": "uint8",
          "name": "",
          "type": "uint8"
        }
      ],
      "name": "tiers",
      "outputs": [
        {
          "internalType": "uint256",
          "name": "",
          "type": "uint256"
        }
      ],
      "stateMutability": "view",
      "type": "function"
    },
    {
      "inputs": [
        {
          "internalType": "address",
          "name": "",
          "type": "address"
        },
        {
          "internalType": "uint8",
          "name": "",
          "type": "uint8"
        }
      ],
      "name": "tiers1stAccount",
      "outputs": [
        {
          "internalType": "uint256",
          "name": "",
          "type": "uint256"
        }
      ],
      "stateMutability": "view",
      "type": "function"
    },
    {
      "inputs": [
        {
          "internalType": "address",
          "name": "",
          "type": "address"
        },
        {
          "internalType": "uint8",
          "name": "",
          "type": "uint8"
        }
      ],
      "name": "tiersCalculAccount",
      "outputs": [
        {
          "internalType": "uint256",
          "name": "",
          "type": "uint256"
        }
      ],
      "stateMutability": "view",
      "type": "function"
    },
    {
      "inputs": [
        {
          "internalType": "address",
          "name": "",
          "type": "address"
        },
        {
          "internalType": "uint8",
          "name": "",
          "type": "uint8"
        }
      ],
      "name": "tiersPercents",
      "outputs": [
        {
          "internalType": "uint256",
          "name": "",
          "type": "uint256"
        }
      ],
      "stateMutability": "view",
      "type": "function"
    },
    {
      "inputs": [
        {
          "internalType": "address",
          "name": "",
          "type": "address"
        },
        {
          "internalType": "uint8",
          "name": "",
          "type": "uint8"
        }
      ],
      "name": "tiersWhiteList",
      "outputs": [
        {
          "internalType": "uint256",
          "name": "",
          "type": "uint256"
        }
      ],
      "stateMutability": "view",
      "type": "function"
    },
    {
      "inputs": [
        {
          "internalType": "address",
          "name": "",
          "type": "address"
        }
      ],
      "name": "timeInfo",
      "outputs": [
        {
          "internalType": "uint256",
          "name": "deployTime",
          "type": "uint256"
        },
        {
          "internalType": "uint256",
          "name": "snapshot",
          "type": "uint256"
        },
        {
          "internalType": "uint256",
          "name": "whiteListStartTime",
          "type": "uint256"
        },
        {
          "internalType": "uint256",
          "name": "whiteListEndTime",
          "type": "uint256"
        },
        {
          "internalType": "uint256",
          "name": "round1StartTime",
          "type": "uint256"
        },
        {
          "internalType": "uint256",
          "name": "round1EndTime",
          "type": "uint256"
        },
        {
          "internalType": "uint256",
          "name": "round2StartTime",
          "type": "uint256"
        },
        {
          "internalType": "uint256",
          "name": "round2EndTime",
          "type": "uint256"
        }
      ],
      "stateMutability": "view",
      "type": "function"
    },
    {
      "inputs": [],
      "name": "ton",
      "outputs": [
        {
          "internalType": "address",
          "name": "",
          "type": "address"
        }
      ],
      "stateMutability": "view",
      "type": "function"
    },
    {
      "inputs": [],
      "name": "tos",
      "outputs": [
        {
          "internalType": "address",
          "name": "",
          "type": "address"
        }
      ],
      "stateMutability": "view",
      "type": "function"
    },
    {
      "inputs": [
        {
          "internalType": "address",
          "name": "",
          "type": "address"
        }
      ],
      "name": "totalDepositAmount",
      "outputs": [
        {
          "internalType": "uint256",
          "name": "",
          "type": "uint256"
        }
      ],
      "stateMutability": "view",
      "type": "function"
    },
    {
      "inputs": [
        {
          "internalType": "address",
          "name": "_l2token",
          "type": "address"
        }
      ],
      "name": "totalExpectOpenSaleAmountView",
      "outputs": [
        {
          "internalType": "uint256",
          "name": "",
          "type": "uint256"
        }
      ],
      "stateMutability": "view",
      "type": "function"
    },
    {
      "inputs": [
        {
          "internalType": "address",
          "name": "_l2token",
          "type": "address"
        }
      ],
      "name": "totalOpenPurchasedAmount",
      "outputs": [
        {
          "internalType": "uint256",
          "name": "",
          "type": "uint256"
        }
      ],
      "stateMutability": "view",
      "type": "function"
    },
    {
      "inputs": [
        {
          "internalType": "address",
          "name": "_l2token",
          "type": "address"
        }
      ],
      "name": "totalOpenSaleAmount",
      "outputs": [
        {
          "internalType": "uint256",
          "name": "",
          "type": "uint256"
        }
      ],
      "stateMutability": "view",
      "type": "function"
    },
    {
      "inputs": [
        {
          "internalType": "address",
          "name": "_l2token",
          "type": "address"
        }
      ],
      "name": "totalRound1NonSaleAmount",
      "outputs": [
        {
          "internalType": "uint256",
          "name": "",
          "type": "uint256"
        }
      ],
      "stateMutability": "view",
      "type": "function"
    },
    {
      "inputs": [
        {
          "internalType": "address",
          "name": "_l2token",
          "type": "address"
        },
        {
          "internalType": "address",
          "name": "user",
          "type": "address"
        }
      ],
      "name": "totalSaleUserAmount",
      "outputs": [
        {
          "internalType": "uint256",
          "name": "_realPayAmount",
          "type": "uint256"
        },
        {
          "internalType": "uint256",
          "name": "_realSaleAmount",
          "type": "uint256"
        },
        {
          "internalType": "uint256",
          "name": "_refundAmount",
          "type": "uint256"
        }
      ],
      "stateMutability": "view",
      "type": "function"
    },
    {
      "inputs": [
        {
          "internalType": "address",
          "name": "_l2token",
          "type": "address"
        }
      ],
      "name": "totalWhitelists",
      "outputs": [
        {
          "internalType": "uint256",
          "name": "",
          "type": "uint256"
        }
      ],
      "stateMutability": "view",
      "type": "function"
    },
    {
      "inputs": [
        {
          "internalType": "address",
          "name": "newAdmin",
          "type": "address"
        }
      ],
      "name": "transferAdmin",
      "outputs": [],
      "stateMutability": "nonpayable",
      "type": "function"
    },
    {
      "inputs": [],
      "name": "uniswapRouter",
      "outputs": [
        {
          "internalType": "address",
          "name": "",
          "type": "address"
        }
      ],
      "stateMutability": "view",
      "type": "function"
    },
    {
      "inputs": [
        {
          "internalType": "address",
          "name": "",
          "type": "address"
        },
        {
          "internalType": "address",
          "name": "",
          "type": "address"
        }
      ],
      "name": "user1rd",
      "outputs": [
        {
          "internalType": "bool",
          "name": "join",
          "type": "bool"
        },
        {
          "internalType": "uint8",
          "name": "tier",
          "type": "uint8"
        },
        {
          "internalType": "uint256",
          "name": "payAmount",
          "type": "uint256"
        },
        {
          "internalType": "uint256",
          "name": "saleAmount",
          "type": "uint256"
        }
      ],
      "stateMutability": "view",
      "type": "function"
    },
    {
      "inputs": [
        {
          "internalType": "address",
          "name": "",
          "type": "address"
        },
        {
          "internalType": "address",
          "name": "",
          "type": "address"
        }
      ],
      "name": "user2rd",
      "outputs": [
        {
          "internalType": "bool",
          "name": "join",
          "type": "bool"
        },
        {
          "internalType": "uint256",
          "name": "depositAmount",
          "type": "uint256"
        }
      ],
      "stateMutability": "view",
      "type": "function"
    },
    {
      "inputs": [
        {
          "internalType": "address",
          "name": "",
          "type": "address"
        },
        {
          "internalType": "address",
          "name": "",
          "type": "address"
        }
      ],
      "name": "userClaim",
      "outputs": [
        {
          "internalType": "bool",
          "name": "refund",
          "type": "bool"
        },
        {
          "internalType": "uint256",
          "name": "claimAmount",
          "type": "uint256"
        },
        {
          "internalType": "uint256",
          "name": "refundAmount",
          "type": "uint256"
        },
        {
          "internalType": "uint256",
          "name": "latestClaimedRound",
          "type": "uint256"
        }
      ],
      "stateMutability": "view",
      "type": "function"
    },
    {
      "inputs": [
        {
          "internalType": "address",
          "name": "",
          "type": "address"
        }
      ],
      "name": "vaultAdminOfToken",
      "outputs": [
        {
          "internalType": "address",
          "name": "",
          "type": "address"
        }
      ],
      "stateMutability": "view",
      "type": "function"
    },
    {
      "inputs": [],
      "name": "vestingFund",
      "outputs": [
        {
          "internalType": "address",
          "name": "",
          "type": "address"
        }
      ],
      "stateMutability": "view",
      "type": "function"
    },
    {
      "inputs": [
        {
          "internalType": "address",
          "name": "",
          "type": "address"
        },
        {
          "internalType": "uint256",
          "name": "",
          "type": "uint256"
        }
      ],
      "name": "whitelists",
      "outputs": [
        {
          "internalType": "address",
          "name": "",
          "type": "address"
        }
      ],
      "stateMutability": "view",
      "type": "function"
    },
    {
      "inputs": [],
      "name": "wton",
      "outputs": [
        {
          "internalType": "address",
          "name": "",
          "type": "address"
        }
      ],
      "stateMutability": "view",
      "type": "function"
    }
  ],
  "bytecode": "0x60806040526014805463ff0000001916630100000017905534801561002357600080fd5b50615467806100336000396000f3fe6080604052600436106105215760003560e01c8063708666ad116102af578063ae1f6aaf11610179578063d01481a1116100d6578063dc560fcd1161008a578063ef39b1491161006f578063ef39b1491461129e578063f3b08cb9146112be578063f7e6e1ab146112de57600080fd5b8063dc560fcd14611268578063e7cd4a041461127e57600080fd5b8063d547741f116100bb578063d547741f14611159578063d7b0b29d14611179578063d97830b1146111f657600080fd5b8063d01481a114611101578063d13da4441461112157600080fd5b8063c0f22d4b1161012d578063c6bbd5a711610112578063c6bbd5a714611094578063cc48b947146110b4578063cf437a8f146110d457600080fd5b8063c0f22d4b14611054578063c3ce874e1461107457600080fd5b8063b0a5ccd11161015e578063b0a5ccd114610fde578063b911135f14610ffe578063b9e982bb1461103457600080fd5b8063ae1f6aaf14610f25578063b005ed9114610f4557600080fd5b80638d62d949116102275780639f87b77f116101db578063a389595f116101c0578063a389595f14610eb3578063a7b23fcf14610ee5578063ac3e8aa914610f0557600080fd5b80639f87b77f14610e88578063a217fddf14610e9e57600080fd5b806396e6f43f1161020c57806396e6f43f14610e0357806397d7859514610e235780639f32b29a14610e5057600080fd5b80638d62d94914610d9557806391d1485414610dbd57600080fd5b8063768b821f1161027e5780637fc46ba8116102635780637fc46ba814610cc857806389293f6514610cfe57806389f395de14610d7557600080fd5b8063768b821f14610c9c5780637e2eee5314610cb257600080fd5b8063708666ad14610c08578063735de9f714610c2857806375829def14610c4857806375b238fc14610c6857600080fd5b80632f2ff15d116103f057806352351e85116103685780635f6ceddb1161031c57806363a8fd891161030157806363a8fd8914610bbb5780636e2272a214610bd55780637048027514610be857600080fd5b80635f6ceddb14610b885780636100a72114610b9b57600080fd5b806355d6d39b1161034d57806355d6d39b14610b105780635af3909214610b485780635b19e29414610b6857600080fd5b806352351e8514610ac0578063550d01a314610ae057600080fd5b806336568abe116103bf5780634e6c4466116103a45780634e6c446614610a5457806350d2a27614610a7457806351ebde6d14610aaa57600080fd5b806336568abe14610a14578063466c01b814610a3457600080fd5b80632f2ff15d1461096757806330ba46591461098757806331bf2897146109a757806333efca3d146109ba57600080fd5b80631785f53c1161049e578063229852461161045257806324d7806c1161043757806324d7806c146108ef5780632ac9bab61461090f5780632bde5bfb1461094757600080fd5b8063229852461461088b578063248a9ca3146108bf57600080fd5b80631c53f256116104835780631c53f256146108065780631d8236971461084b5780631e83409a1461086b57600080fd5b80631785f53c146107735780631916e5341461079357600080fd5b8063096cc418116104f557806312269758116104da57806312269758146106d75780631576baf41461071d5780631784b3a61461073d57600080fd5b8063096cc418146106645780630b7459eb1461069f57600080fd5b8062e710451461052657806301ffc9a71461053b578063089fe6aa1461057057806308ac3fcb1461059a575b600080fd5b610539610534366004614c60565b6112fe565b005b34801561054757600080fd5b5061055b610556366004614c7d565b6115c6565b60405190151581526020015b60405180910390f35b34801561057c57600080fd5b50610586610bb881565b60405162ffffff9091168152602001610567565b3480156105a657600080fd5b506106136105b5366004614c60565b601c6020526000908152604090208054600182015460028084015460038501546004860154600587015460068801546007909801549697959693959294919390929181900b9060ff630100000082048116916401000000009004168a565b604080519a8b5260208b0199909952978901969096526060880194909452608087019290925260a086015260c085015260020b60e08401521515610100830152151561012082015261014001610567565b34801561067057600080fd5b5061068461067f366004614ca7565b6115fd565b60408051938452602084019290925290820152606001610567565b3480156106ab57600080fd5b506006546106bf906001600160a01b031681565b6040516001600160a01b039091168152602001610567565b3480156106e357600080fd5b5061070f6106f2366004614cf7565b602360209081526000928352604080842090915290825290205481565b604051908152602001610567565b34801561072957600080fd5b5061070f610738366004614c60565b61185e565b34801561074957600080fd5b5061070f610758366004614c60565b6001600160a01b031660009081526018602052604090205490565b34801561077f57600080fd5b5061053961078e366004614c60565b6118a9565b34801561079f57600080fd5b506107e46107ae366004614d30565b6021602090815260009283526040808420909152908252902080546001820154600283015460039093015460ff90921692909184565b6040805194151585526020850193909352918301526060820152608001610567565b34801561081257600080fd5b50600e54610839907501000000000000000000000000000000000000000000900460ff1681565b60405160ff9091168152602001610567565b34801561085757600080fd5b50610839610866366004614d30565b611936565b34801561087757600080fd5b50610539610886366004614c60565b611d60565b34801561089757600080fd5b5061070f7ffb5864e8ff833c3cb2d2d08505e82ff02a43554c74a35d4f5a64e8526127831181565b3480156108cb57600080fd5b5061070f6108da366004614d5e565b60009081526004602052604090206001015490565b3480156108fb57600080fd5b5061055b61090a366004614c60565b612272565b34801561091b57600080fd5b5061070f61092a366004614cf7565b602660209081526000928352604080842090915290825290205481565b34801561095357600080fd5b5061070f610962366004614c60565b6122b2565b34801561097357600080fd5b50610539610982366004614d77565b612402565b34801561099357600080fd5b5061070f6109a2366004614c60565b61242c565b6105396109b5366004614d9c565b612499565b3480156109c657600080fd5b506109fd6109d5366004614d30565b6020808052600092835260408084209091529082529020805460019091015460ff9091169082565b604080519215158352602083019190915201610567565b348015610a2057600080fd5b50610539610a2f366004614d77565b612cca565b348015610a4057600080fd5b506106bf610a4f366004614d9c565b612d56565b348015610a6057600080fd5b506009546106bf906001600160a01b031681565b348015610a8057600080fd5b506106bf610a8f366004614c7d565b6003602052600090815260409020546001600160a01b031681565b348015610ab657600080fd5b5061070f60115481565b348015610acc57600080fd5b50600c546106bf906001600160a01b031681565b348015610aec57600080fd5b5061055b610afb366004614c60565b60026020526000908152604090205460ff1681565b348015610b1c57600080fd5b5061070f610b2b366004614cf7565b602460209081526000928352604080842090915290825290205481565b348015610b5457600080fd5b5061070f610b63366004614d30565b612d8e565b348015610b7457600080fd5b506106bf610b83366004614d9c565b612df1565b610539610b96366004614c60565b612e0d565b348015610ba757600080fd5b5061070f610bb6366004614d9c565b61316a565b348015610bc757600080fd5b5060005461055b9060ff1681565b610539610be3366004614c60565b613227565b348015610bf457600080fd5b50610539610c03366004614c60565b6135fa565b348015610c1457600080fd5b506007546106bf906001600160a01b031681565b348015610c3457600080fd5b506008546106bf906001600160a01b031681565b348015610c5457600080fd5b50610539610c63366004614c60565b613684565b348015610c7457600080fd5b5061070f7fdf8b4c520ffe197c5343c6f5aec59570151ef9a492f2c624fd45ddde6135ec4281565b348015610ca857600080fd5b5061070f60105481565b348015610cbe57600080fd5b5061070f60135481565b348015610cd457600080fd5b506106bf610ce3366004614c60565b6016602052600090815260409020546001600160a01b031681565b348015610d0a57600080fd5b50610d51610d19366004614d30565b601f60209081526000928352604080842090915290825290208054600182015460029092015460ff8083169361010090930416919084565b60408051941515855260ff9093166020850152918301526060820152608001610567565b348015610d8157600080fd5b50600a546106bf906001600160a01b031681565b348015610da157600080fd5b506106bf73c4a11aaf6ea915ed7ac194161d2fc9384f15bff281565b348015610dc957600080fd5b5061055b610dd8366004614d77565b60009182526004602090815260408084206001600160a01b0393909316845291905290205460ff1690565b348015610e0f57600080fd5b5061070f610e1e366004614dc8565b6137e6565b348015610e2f57600080fd5b5061070f610e3e366004614c60565b60156020526000908152604090205481565b348015610e5c57600080fd5b5061070f610e6b366004614cf7565b602560209081526000928352604080842090915290825290205481565b348015610e9457600080fd5b5061070f600f5481565b348015610eaa57600080fd5b5061070f600081565b348015610ebf57600080fd5b50600e546108399074010000000000000000000000000000000000000000900460ff1681565b348015610ef157600080fd5b5061070f610f00366004614c60565b613a04565b348015610f1157600080fd5b50610684610f20366004614d30565b613ad1565b348015610f3157600080fd5b50600d546106bf906001600160a01b031681565b348015610f5157600080fd5b50610fa3610f60366004614c60565b601b602052600090815260409020805460018201546002830154600384015460048501546005860154600687015460079097015495969495939492939192909188565b604080519889526020890197909752958701949094526060860192909252608085015260a084015260c083015260e082015261010001610567565b348015610fea57600080fd5b5061070f610ff9366004614c60565b613bb2565b34801561100a57600080fd5b506106bf611019366004614d5e565b6001602052600090815260409020546001600160a01b031681565b34801561104057600080fd5b5061070f61104f366004614c60565b613d32565b34801561106057600080fd5b5061070f61106f366004614d9c565b613e32565b34801561108057600080fd5b5061070f61108f366004614d9c565b613e63565b3480156110a057600080fd5b506005546106bf906001600160a01b031681565b3480156110c057600080fd5b50600b546106bf906001600160a01b031681565b3480156110e057600080fd5b506014546110ee9060020b81565b60405160029190910b8152602001610567565b34801561110d57600080fd5b50600e546106bf906001600160a01b031681565b34801561112d57600080fd5b5061070f61113c366004614cf7565b602260209081526000928352604080842090915290825290205481565b34801561116557600080fd5b50610539611174366004614d77565b613f0e565b34801561118557600080fd5b506111c9611194366004614c60565b601e60205260009081526040902080546001820154600283015460038401546004850154600590950154939492939192909186565b604080519687526020870195909552938501929092526060840152608083015260a082015260c001610567565b34801561120257600080fd5b50611240611211366004614c60565b601d60205260009081526040902080546001820154600283015460038401546004909401549293919290919085565b604080519586526020860194909452928401919091526060830152608082015260a001610567565b34801561127457600080fd5b5061070f60125481565b34801561128a57600080fd5b50610539611299366004614c60565b613f33565b3480156112aa57600080fd5b506106846112b9366004614d30565b6143f5565b3480156112ca57600080fd5b5061070f6112d9366004614d9c565b6144b8565b3480156112ea57600080fd5b5061070f6112f9366004614ca7565b6144d4565b6001600160a01b0381166000908152601b6020908152604091829020825161010081018452815481526001820154928101929092526002810154928201929092526003820154606082015260048201546080820152600582015460a0820152600682015460c0820181905260079092015460e0820152904210156113c95760405162461bcd60e51b815260206004820152600f60248201527f6e6f74206465706f73697454696d65000000000000000000000000000000000060448201526064015b60405180910390fd5b8060e00151421061141c5760405162461bcd60e51b815260206004820152600f60248201527f656e64206465706f73697454696d65000000000000000000000000000000000060448201526064016113c0565b6001600160a01b0382166000818152602080805260408083203384528252808320938352601e9091529020815460ff1661152c576001600160a01b038416600090815260176020908152604082208054600181810183559184529190922001805473ffffffffffffffffffffffffffffffffffffffff191633179055825460ff19168117835560048201546114b091614e29565b60048201556001600160a01b0384166000908152601f6020908152604080832033845282528083208151608081018352815460ff808216151583526101009091041693810193909352600181015491830182905260020154606083015290910361152a576002820154611524906001614e29565b60028301555b505b34826001015461153c9190614e29565b60018301556001600160a01b038416600090815260156020526040902054611565903490614e29565b6001600160a01b038516600081815260156020908152604091829020939093558051918252349282019290925233917f8752a472e571a816aea92eec8dae9baf628e840f4929fbcc2d155e6233ff68a791015b60405180910390a250505050565b60006001600160e01b03198216637965db0b60e01b14806115f757506301ffc9a760e01b6001600160e01b03198316145b92915050565b6001600160a01b0383166000908152601d60209081526040808320815160a081018352815481526001820154938101939093526002810154918301829052600381015460608401526004015460808301528291829142101561166a57600080600093509350935050611855565b805185111561168457600080600093509350935050611855565b6001600160a01b038088166000908152602160209081526040808320938a1683529281528282208351608081018552815460ff16151581526001820154928101929092526002810154938201939093526003909201546060830152806116ea8a8a6143f5565b92509250508160000361170b57600080600096509650965050505050611855565b8183602001511061172a57600080600096509650965050505050611855565b60006117358b613a04565b9050600081866000015114801561174a575089155b1561177057602085015161175e9085614e3c565b98509296509094506118559350505050565b896000036118005781600003611790579750919550935061185592505050565b6127108660200151856117a39190614e4f565b6117ad9190614e7c565b60208601519091506117c0600184614e3c565b87516117ce90600190614e3c565b6117d88488614e3c565b6117e29190614e7c565b6117ec9190614e4f565b6117f69083614e29565b61175e9190614e3c565b896001036118255761271086602001518561181b9190614e4f565b61175e9190614e7c565b6127108660200151856118389190614e4f565b6118429190614e7c565b60208601519091506117c060018c614e3c565b93509350939050565b6001600160a01b0381166000908152601560205260408120548190611884908490613e63565b9050600061189184613bb2565b9050808210156118a2575092915050565b9392505050565b6118b233612272565b6119095760405162461bcd60e51b815260206004820152602260248201527f41636365737369626c653a2043616c6c6572206973206e6f7420616e2061646d60448201526134b760f11b60648201526084016113c0565b6119337fdf8b4c520ffe197c5343c6f5aec59570151ef9a492f2c624fd45ddde6135ec4282612cca565b50565b6009546000906001600160a01b0316806119775760405162461bcd60e51b81526020600482015260026024820152612d1960f11b60448201526064016113c0565b6001600160a01b038416600090815260226020908152604080832060018452909152812054908190036119d15760405162461bcd60e51b81526020600482015260026024820152615a3160f01b60448201526064016113c0565b6001600160a01b03851660009081526022602090815260408083206002845290915281205490819003611a2b5760405162461bcd60e51b81526020600482015260026024820152615a3160f01b60448201526064016113c0565b6001600160a01b03861660009081526022602090815260408083206003845290915281205490819003611a855760405162461bcd60e51b81526020600482015260026024820152615a3160f01b60448201526064016113c0565b6001600160a01b03871660009081526022602090815260408083206004845290915281205490819003611adf5760405162461bcd60e51b81526020600482015260026024820152615a3160f01b60448201526064016113c0565b6001600160a01b038881166000908152601b60209081526040808320815161010081018352815481526001820154938101849052600282015481840152600382015460608201526004808301546080830152600583015460a0830152600683015460c083015260079092015460e0820152600954925163277166bf60e11b81528d871692810192909252602482019390935291931690634ee2cd7e90604401602060405180830381865afa158015611b9b573d6000803e3d6000fd5b505050506040513d601f19601f82011682018060405250810190611bbf9190614e90565b6001600160a01b038b16600090815260226020908152604080832060018452909152812054919250908210801590611c1a57506001600160a01b038b1660009081526022602090815260408083206002845290915290205482105b15611c2757506001611d52565b6001600160a01b038b166000908152602260209081526040808320600284529091529020548210801590611c7e57506001600160a01b038b1660009081526022602090815260408083206003845290915290205482105b15611c8b57506002611d52565b6001600160a01b038b166000908152602260209081526040808320600384529091529020548210801590611ce257506001600160a01b038b1660009081526022602090815260408083206004845290915290205482105b15611cef57506003611d52565b6001600160a01b038b166000908152602260209081526040808320600484529091529020548210611d2257506004611d52565b6001600160a01b038b16600090815260226020908152604080832060018452909152902054821015611d52575060005b9a9950505050505050505050565b6001600160a01b0381166000908152601d6020908152604091829020825160a0810184528154815260018201549281019290925260028101549282018390526003810154606083015260040154608082015290421015611e025760405162461bcd60e51b815260206004820152600d60248201527f6e6f7420636c61696d54696d650000000000000000000000000000000000000060448201526064016113c0565b6001600160a01b0382166000818152602080805260408083203380855290835281842094845260218352818420908452909152812090611e41856122b2565b905080600003611f3b57815460ff161515600103611ea15760405162461bcd60e51b815260206004820152601160248201527f616c726561647920676574526566756e6400000000000000000000000000000060448201526064016113c0565b6001600160a01b0385166000908152601f60209081526040808320338452909152812060018086015490820154919291611edb9190614e29565b845460ff1916600117855560028501819055604080516001600160a01b038a1681526020810183905291925033917fec1e5ed733e00f1a00915d56caef57b4f52312dde4f9b3165f213319a0da156b910160405180910390a2505061226b565b6000806000611f4c883360006115fd565b92509250925060008211611fa25760405162461bcd60e51b815260206004820152601260248201527f6e6f20707572636861736520616d6f756e74000000000000000000000000000060448201526064016113c0565b60008311611fde5760405162461bcd60e51b81526020600482015260096024820152681b9bc81c995dd85c9960ba1b60448201526064016113c0565b82856001015483611fef9190614e3c565b101561203d5760405162461bcd60e51b815260206004820152601460248201527f616c726561647920676574416c6c72657761726400000000000000000000000060448201526064016113c0565b6040516370a0823160e01b815230600482015283906001600160a01b038a16906370a0823190602401602060405180830381865afa158015612083573d6000803e3d6000fd5b505050506040513d601f19601f820116820180604052508101906120a79190614e90565b10156120f55760405162461bcd60e51b815260206004820152601360248201527f646f6e7420686176652073616c65546f6b656e0000000000000000000000000060448201526064016113c0565b8285600101546121059190614e29565b600186015561211e6001600160a01b0389163385614575565b6001600160a01b0388166000908152601e60205260409020855460ff161580156121495750865460ff165b1561216f57600581015461215e906001614e29565b6005820155855460ff191660011786555b60008211801561218157506002860154155b1561222257478211156121d65760405162461bcd60e51b815260206004820152601460248201527f646f6e74206861766520726566756e6420746f6e00000000000000000000000060448201526064016113c0565b60028601829055604080516001600160a01b038b1681526020810184905233917fec1e5ed733e00f1a00915d56caef57b4f52312dde4f9b3165f213319a0da156b910160405180910390a25b604080516001600160a01b038b1681526020810186905233917ff7a40077ff7a04c7e61f6f26fb13774259ddf1b6bce9ecf26a8276cdd3992683910160405180910390a2505050505b5050505050565b6001600160a01b03811660009081527f2fb794d17134dfdec181ddbac1babb5ab1eb140204ef4d982f294e7fc8b69022602052604081205460ff166115f7565b6001600160a01b0381166000818152601e60209081526040808320815160c0808201845282548252600180840154838701526002808501548487015260038086015460608087019190915260048088015460808089019190915260059889015460a0808a01919091529c8c52601c8b52898c208a5161014081018c5281548152968101549b87019b909b528a8501549986019990995291890154908401528701549582019590955292850154968301969096526006840154958201959095526007909201549081900b60e083015260ff6301000000820481161515610100840152640100000000909104161515610120820152909190826123b28561242c565b83602001516123c19190614e29565b90506000826080015182106123f65760648360a00151836123e29190614e4f565b6123ec9190614e7c565b9695505050505050565b50600095945050505050565b60008281526004602052604090206001015461241d81614689565b6124278383614693565b505050565b6001600160a01b0381166000908152601560205260408120548190612452908490613e63565b9050600061245f84613bb2565b905080821015612487575050506001600160a01b031660009081526015602052604090205490565b612491848261316a565b949350505050565b80806000036124cf5760405162461bcd60e51b81526020600482015260026024820152615a3160f01b60448201526064016113c0565b6001600160a01b0383166000818152601b60209081526040808320815161010081018352815481526001820154818501526002820154818401526003820154606082015260048201546080820152600582015460a0820152600682015460c082015260079091015460e08201908152948452601c9092529091209151909190421161259c5760405162461bcd60e51b815260206004820152601b60248201527f6e65656420746f20656e6420746865206465706f73697454696d65000000000060448201526064016113c0565b60006125a7866122b2565b9050600081116125f95760405162461bcd60e51b815260206004820152601660248201527f646f6e277420706173732074686520686172644361700000000000000000000060448201526064016113c0565b60078201546301000000900460ff16151560000361267257848110156126515760405162461bcd60e51b815260206004820152600d60248201526c30b6b7bab73a24b71037bb32b960991b60448201526064016113c0565b6006820181905560078201805463ff000000191663010000001790556126b6565b84826006015410156126b65760405162461bcd60e51b815260206004820152600d60248201526c30b6b7bab73a24b71037bb32b960991b60448201526064016113c0565b600b54600a546040516307f43c1960e31b81526001600160a01b0392831660048201529116602482015260009073__$86989bec654fe21c5325a7b16e11ff34c5$__90633fa1e0c890604401602060405180830381865af415801561271f573d6000803e3d6000fd5b505050506040513d601f19601f820116820180604052508101906127439190614ea9565b9050600080826001600160a01b0316633850c7bd6040518163ffffffff1660e01b815260040160e060405180830381865afa158015612786573d6000803e3d6000fd5b505050506040513d601f19601f820116820180604052508101906127aa9190614eff565b5050505050915091506000826001600160a01b03161161280c5760405162461bcd60e51b815260206004820152601060248201527f706f6f6c206e6f7420696e697469616c0000000000000000000000000000000060448201526064016113c0565b6000612819846078614735565b6040517fff9ceebd000000000000000000000000000000000000000000000000000000008152600282810b6004830152603c6024830152604482015290915073__$86989bec654fe21c5325a7b16e11ff34c5$__9063ff9ceebd90606401602060405180830381865af4158015612894573d6000803e3d6000fd5b505050506040513d601f19601f820116820180604052508101906128b89190614f89565b60020b8260020b1261290c5760405162461bcd60e51b815260206004820152601860248201527f6f766572206368616e676564207469636b2072616e67652e000000000000000060448201526064016113c0565b600b54600a546007880154604051633e1644f160e11b8152600481018d90526001600160a01b038881166024830152938416604482015292909116606483015260020b6084820152600090819073__$86989bec654fe21c5325a7b16e11ff34c5$__90637c2c89e29060a401606060405180830381865af4158015612995573d6000803e3d6000fd5b505050506040513d601f19601f820116820180604052508101906129b99190614fa4565b92505091506000600560009054906101000a90046001600160a01b03166001600160a01b0316600b60009054906101000a90046001600160a01b0316600a60009054906101000a90046001600160a01b0316610bb88f6000604051602401612a599594939291906001600160a01b03958616815293909416602084015262ffffff919091166040830152606082015260ff91909116608082015260a00190565b60408051601f198184030181529181526020820180516001600160e01b031663f7729d4360e01b17905251612a8e9190614ff6565b6000604051808303816000865af19150503d8060008114612acb576040519150601f19603f3d011682016040523d82523d6000602084013e612ad0565b606091505b509150506000612adf826148f4565b90506103e8612af0826103e3614e4f565b612afa9190614e7c565b905083811015612b4c5760405162461bcd60e51b815260206004820152601060248201527f7072696365496d70616374206f7665720000000000000000000000000000000060448201526064016113c0565b60068a01548e908e90612b60908290614e3c565b60068d01556040805161010081018252600b546001600160a01b039081168252600a54811660208301908152610bb8838501908152600754831660608501908152426080860190815260a0860188815260c087018b81528d871660e08901908152600854995163414bf38960e01b8152895189166004820152965188166024880152945162ffffff166044870152925186166064860152905160848501525160a48401525160c483015251821660e4820152919260009291169063414bf38990610104016020604051808303816000875af1158015612c43573d6000803e3d6000fd5b505050506040513d601f19601f82011682018060405250810190612c679190614e90565b604080516001600160a01b03871681526020810186905290810182905290915033907f34c21668d9e0d31d289d483bfe1b46a335340504801ea7feebfbb347bc4fe5679060600160405180910390a2505050505050505050505050505050505050565b6001600160a01b0381163314612d485760405162461bcd60e51b815260206004820152602f60248201527f416363657373436f6e74726f6c3a2063616e206f6e6c792072656e6f756e636560448201527f20726f6c657320666f722073656c66000000000000000000000000000000000060648201526084016113c0565b612d528282614998565b5050565b60176020528160005260406000208181548110612d7257600080fd5b6000918252602090912001546001600160a01b03169150829050565b600080612d9b8484611936565b9050600060ff821615612de657815b60ff811615612ddc57612dbe8686836137e6565b612dc89083614e29565b915080612dd481615012565b915050612daa565b5091506115f79050565b506000949350505050565b60186020528160005260406000208181548110612d7257600080fd5b6001600160a01b0381166000908152601b60209081526040918290208251610100810184528154815260018201549281019290925260028101549282019290925260038201546060820152600482015460808201819052600583015460a0830152600683015460c083015260079092015460e082015290421015612ed35760405162461bcd60e51b815260206004820152601260248201527f6e6f7420726f756e643153616c6554696d65000000000000000000000000000060448201526064016113c0565b8060a001514210612f265760405162461bcd60e51b815260206004820152601260248201527f656e6420726f756e643153616c6554696d65000000000000000000000000000060448201526064016113c0565b6001600160a01b0382166000908152601f602090815260408083203384529091529020805460ff161515600114612f9f5760405162461bcd60e51b815260206004820152600c60248201527f6e6f2077686974656c697374000000000000000000000000000000000000000060448201526064016113c0565b6000612fab8433611936565b90506000612fb98534613e63565b90506000612fc78633612d8e565b9050818460020154612fd99190614e29565b8110156130285760405162461bcd60e51b815260206004820152600e60248201527f646f6e2774206f7665722062757900000000000000000000000000000000000060448201526064016113c0565b6001600160a01b0386166000908152601e6020526040812060018601549091036130d057600381015461305c906001614e29565b60038201556002810154613071906001614e29565b60028201556001600160a01b038716600090815260266020908152604080832060ff881684529091529020546130a8906001614e29565b6001600160a01b038816600090815260266020908152604080832060ff891684529091529020555b3485600101546130e09190614e29565b600186015560028501546130f5908490614e29565b6002860155600181015461310a903490614e29565b6001820155805461311c908490614e29565b8155604080516001600160a01b038916815234602082015233917f9840f3ca16eed984a6ad48d36928a9cfb427c7f90a8d37e017b3385a747aa294910160405180910390a250505050505050565b6001600160a01b0382166000908152601c602090815260408083208151610140810183528154815260018201549381019390935260028082015492840183905260038201546060850181905260048301546080860152600583015460a0860152600683015460c08601526007909201549081900b60e085015260ff630100000082048116151561010086015264010000000090910416151561012084015283916132149086614e4f565b61321e9190614e7c565b95945050505050565b6001600160a01b0381166000908152601c602052604090206007810154640100000000900460ff161515600114801590613271575060078101546301000000900460ff1615156001145b6132bd5760405162461bcd60e51b815260206004820152601a60248201527f6e656564207468652065786368616e676557544f4e746f544f5300000000000060448201526064016113c0565b6001600160a01b0382166000908152601e60205260408120906132df846122b2565b90506000816132ed8661242c565b84600101546132fc9190614e29565b6133069190614e3c565b600b546040516370a0823160e01b81523060048201529192506001600160a01b0316906370a0823190602401602060405180830381865afa15801561334f573d6000803e3d6000fd5b505050506040513d601f19601f820116820180604052508101906133739190614e90565b8111156133c25760405162461bcd60e51b815260206004820152600d60248201527f686176656e277420746f6b656e0000000000000000000000000000000000000060448201526064016113c0565b60078401805464ff00000000191664010000000017905582546000906133e78761185e565b600187015487546133f89190614e29565b6134029190614e3c565b61340c9190614e3c565b905080156134a557600d54600e54604051631474f2a960e31b81526001600160a01b0389811660048301529182166024820152604481018490526000606482015260a06084820152600260a482015261060f60f31b60c482015291169063a3a795489060e401600060405180830381600087803b15801561348c57600080fd5b505af11580156134a0573d6000803e3d6000fd5b505050505b600b546006546001600160a01b039182169163095ea7b391166134d085678ac7230489e80000614e29565b6040516001600160e01b031960e085901b1681526001600160a01b03909216600483015260248201526044016020604051808303816000875af115801561351b573d6000803e3d6000fd5b505050506040513d601f19601f8201168201806040525081019061353f919061502f565b506006546040516315a27c3b60e31b81526001600160a01b038881166004830152602482018590529091169063ad13e1d890604401600060405180830381600087803b15801561358e57600080fd5b505af11580156135a2573d6000803e3d6000fd5b5050604080516001600160a01b038a168152602081018690529081018690523392507f4c2c0ab6abacae9e08e6f826eee15e2782e65aaa46fa6d77cbaec9c94247aad5915060600160405180910390a2505050505050565b61360333612272565b61365a5760405162461bcd60e51b815260206004820152602260248201527f41636365737369626c653a2043616c6c6572206973206e6f7420616e2061646d60448201526134b760f11b60648201526084016113c0565b6119337fdf8b4c520ffe197c5343c6f5aec59570151ef9a492f2c624fd45ddde6135ec4282612402565b61368d33612272565b6136e45760405162461bcd60e51b815260206004820152602260248201527f41636365737369626c653a2043616c6c6572206973206e6f7420616e2061646d60448201526134b760f11b60648201526084016113c0565b6001600160a01b03811661373a5760405162461bcd60e51b815260206004820152601860248201527f41636365737369626c653a207a65726f2061646472657373000000000000000060448201526064016113c0565b6001600160a01b03811633036137925760405162461bcd60e51b815260206004820152601660248201527f41636365737369626c653a2073616d652061646d696e0000000000000000000060448201526064016113c0565b6137bc7fdf8b4c520ffe197c5343c6f5aec59570151ef9a492f2c624fd45ddde6135ec4282612402565b6119337fdf8b4c520ffe197c5343c6f5aec59570151ef9a492f2c624fd45ddde6135ec4233612cca565b6001600160a01b038084166000818152601f602090815260408083209487168352938152838220845160808082018752825460ff8082161515845261010091829004811684870152600180860154858b0152600295860154606080870191909152988852601c87528988208a5161014081018c52815481528183015498810198909852808701549a88019a909a5260038a015498870198909852600489015492860192909252600588015460a0860152600688015460c08601526007909701549283900b60e085015263010000008304811615159684019690965264010000000090910490941615156101208201528351919392909184919015151480156138f1575060008560ff16115b15613961576001600160a01b038716600081815260256020908152604080832060ff8a1680855290835281842054948452602383528184209084529091529020548351612710929161394291614e4f565b61394c9190614e7c565b6139569190614e7c565b93506118a292505050565b60ff8516156139f7576001600160a01b038716600090815260256020908152604080832060ff8916845290915281205461399c906001614e29565b6001600160a01b038916600090815260236020908152604080832060ff8b16845290915290205484519192506127109183916139d791614e4f565b6139e19190614e7c565b6139eb9190614e7c565b94506118a29350505050565b5060009695505050505050565b6001600160a01b0381166000908152601d60209081526040808320815160a08101835281548152600182015493810193909352600281015491830182905260038101546060840152600401546080830152421015613a6157600091505b42816040015111158015613a785750806060015142105b15613a865760019150613abd565b42816060015111613abd5760808101516060820151613aa59042614e3c565b613aaf9190614e7c565b613aba906002614e29565b91505b8051821115613acb57805191505b50919050565b6001600160a01b0380831660009081526020808052604080832093851683529281528282208351808501909452805460ff161580158552600190910154918401919091529091829182919080613b2957506020810151155b15613b3f57600080600093509350935050613bab565b6000613b4d878760006144d4565b90506000613b5b888361316a565b602084015190915060008082841015613b8b57613b788484614e3c565b9050613b848b85613e63565b9150613b9f565b85602001519350613b9c8b84613e63565b91505b92975095509093505050505b9250925092565b600080601b6000846001600160a01b03166001600160a01b03168152602001908152602001600020604051806101000160405290816000820154815260200160018201548152602001600282015481526020016003820154815260200160048201548152602001600582015481526020016006820154815260200160078201548152505090506000601c6000856001600160a01b03166001600160a01b0316815260200190815260200160002060405180610140016040529081600082015481526020016001820154815260200160028201548152602001600382015481526020016004820154815260200160058201548152602001600682015481526020016007820160009054906101000a900460020b60020b60020b81526020016007820160039054906101000a900460ff161515151581526020016007820160049054906101000a900460ff16151515158152505090508160a00151421015613d1a57519392505050565b613d2384613d32565b81602001516124919190614e29565b6001600160a01b0381166000818152601e60209081526040808320815160c0808201845282548252600180840154838701526002808501548487015260038086015460608087019190915260048088015460808089019190915260059889015460a0808a01919091529c8c52601c8b52898c208a5161014081018c528154808252978201549c81019c909c52808601549a8c019a909a5292890154918a01919091528701549088015293850154978601979097526006840154908501526007909201549081900b60e084015260ff630100000082048116151561010085015264010000000090910416151561012083015280519293909261249191614e3c565b60196020528160005260406000208181548110613e4e57600080fd5b90600052602060002001600091509150505481565b6001600160a01b0382166000908152601c602090815260408083208151610140810183528154815260018201549381019390935260028082015492840183905260038201546060850181905260048301546080860152600583015460a0860152600683015460c08601526007909201549081900b60e085015260ff63010000008204811615156101008601526401000000009091041615156101208401528391906132149086614e4f565b600082815260046020526040902060010154613f2981614689565b6124278383614998565b6001600160a01b0381166000908152601b60209081526040918290208251610100810184528154815260018201549281019290925260028101549282018390526003810154606083015260048101546080830152600581015460a0830152600681015460c08301526007015460e082015290421015613ff45760405162461bcd60e51b815260206004820152601160248201527f6e6f742077686974656c69737454696d6500000000000000000000000000000060448201526064016113c0565b806060015142106140475760405162461bcd60e51b815260206004820152601160248201527f656e642077686974656c69737454696d6500000000000000000000000000000060448201526064016113c0565b60006140538333611936565b905060018160ff1610156140a95760405162461bcd60e51b815260206004820152601160248201527f6e65656420746f206d6f72652073544f5300000000000000000000000000000060448201526064016113c0565b6001600160a01b0383166000908152601f602090815260408083203384529091529020805460ff1615156001036141225760405162461bcd60e51b815260206004820152601060248201527f616c726561647920617474656e6465640000000000000000000000000000000060448201526064016113c0565b6001600160a01b038416600081815260186020908152604080832080546001818101835591855283852001805473ffffffffffffffffffffffffffffffffffffffff191633179055855460ff8816610100810261ffff19909216919091178217875594845260248352818420948452939091529020546141a191614e29565b6001600160a01b038516600090815260246020908152604080832060ff87168085529252909120919091556004036142dc576001600160a01b038416600090815260256020908152604080832060048452909152902054614203906001614e29565b6001600160a01b0385166000908152602560209081526040808320600484529091528082209290925560038152205461423d906001614e29565b6001600160a01b03851660009081526025602090815260408083206003845290915280822092909255600281522054614277906001614e29565b6001600160a01b038516600090815260256020908152604080832060028452909152808220929092556001808252919020546142b291614e29565b6001600160a01b0385166000908152602560209081526040808320600184529091529020556143b2565b8160ff16600303614317576001600160a01b03841660009081526025602090815260408083206003845290915290205461423d906001614e29565b8160ff16600203614352576001600160a01b038416600090815260256020908152604080832060028452909152902054614277906001614e29565b8160ff166001036143b2576001600160a01b0384166000908152602560209081526040808320600180855292529091205461438c91614e29565b6001600160a01b0385166000908152602560209081526040808320600184529091529020555b604080516001600160a01b038616815260ff8416602082015233917f80aaf28a2c7f80f586e64ede5c6c3b5433b8c6cf1351b6b51d8ab9febb8b5e7a91016115b8565b6001600160a01b038083166000908152601f6020908152604080832093851683529281528282208351608081018552815460ff80821615801584526101009092041693820193909352600182015494810194909452600201546060840152909182918291906144a257600080600061446d8989613ad1565b9250925092508360400151836144839190614e29565b60608501516144929084614e29565b8296509650965050505050613bab565b6144ac8686613ad1565b93509350935050613bab565b601a6020528160005260406000208181548110613e4e57600080fd5b6001600160a01b0380841660009081526020808052604080832093861683529281528282208351808501909452805460ff1615158452600101549083018190529091908290614524908590614e29565b6001600160a01b0387166000908152601560205260408120549192509061454c908690614e29565b8261455689613bb2565b6145609190614e4f565b61456a9190614e7c565b979650505050505050565b604080516001600160a01b038481166024830152604480830185905283518084039091018152606490920183526020820180516001600160e01b031663a9059cbb60e01b17905291516000928392908716916145d19190614ff6565b6000604051808303816000865af19150503d806000811461460e576040519150601f19603f3d011682016040523d82523d6000602084013e614613565b606091505b509150915081801561463d57508051158061463d57508080602001905181019061463d919061502f565b61226b5760405162461bcd60e51b815260206004820152600f60248201527f5452414e534645525f4641494c4544000000000000000000000000000000000060448201526064016113c0565b6119338133614a1b565b60008281526004602090815260408083206001600160a01b038516845290915290205460ff16612d525760008281526004602090815260408083206001600160a01b03851684529091529020805460ff191660011790556146f13390565b6001600160a01b0316816001600160a01b0316837f2f8788117e7eff1d82e926ec794901d17c78024a50270940304540a733656f0d60405160405180910390a45050565b60008163ffffffff166000036147725760405162461bcd60e51b8152602060048201526002602482015261042560f41b60448201526064016113c0565b60408051600280825260608201835260009260208301908036833701905050905082816000815181106147a7576147a7615060565b602002602001019063ffffffff16908163ffffffff16815250506000816001815181106147d6576147d6615060565b63ffffffff9092166020928302919091019091015260405163883bdbfd60e01b81526000906001600160a01b0386169063883bdbfd9061481a908590600401615076565b600060405180830381865afa158015614837573d6000803e3d6000fd5b505050506040513d6000823e601f3d908101601f1916820160405261485f9190810190615189565b50905060008160008151811061487757614877615060565b60200260200101518260018151811061489257614892615060565b60200260200101516148a49190615255565b90506148b4600386900b82615282565b935060008160060b1280156148d857506148d2600386900b826152c0565b60060b15155b156148eb57836148e7816152e2565b9450505b50505092915050565b60008151602014614984576044825110156149515760405162461bcd60e51b815260206004820152601060248201527f556e6578706563746564206572726f720000000000000000000000000000000060448201526064016113c0565b6004820191508180602001905181019061496b91906152fb565b60405162461bcd60e51b81526004016113c0919061538f565b818060200190518101906115f79190614e90565b60008281526004602090815260408083206001600160a01b038516845290915290205460ff1615612d525760008281526004602090815260408083206001600160a01b0385168085529252808320805460ff1916905551339285917ff6391f5c32d9c69d2a47ea670b442974b53935d1edc7fd64eb21e047a839171b9190a45050565b60008281526004602090815260408083206001600160a01b038516845290915290205460ff16612d5257614a4e81614a90565b614a59836020614aa2565b604051602001614a6a9291906153c2565b60408051601f198184030181529082905262461bcd60e51b82526113c09160040161538f565b60606115f76001600160a01b03831660145b60606000614ab1836002614e4f565b614abc906002614e29565b67ffffffffffffffff811115614ad457614ad461504a565b6040519080825280601f01601f191660200182016040528015614afe576020820181803683370190505b509050600360fc1b81600081518110614b1957614b19615060565b60200101906001600160f81b031916908160001a905350600f60fb1b81600181518110614b4857614b48615060565b60200101906001600160f81b031916908160001a9053506000614b6c846002614e4f565b614b77906001614e29565b90505b6001811115614bfc577f303132333435363738396162636465660000000000000000000000000000000085600f1660108110614bb857614bb8615060565b1a60f81b828281518110614bce57614bce615060565b60200101906001600160f81b031916908160001a90535060049490941c93614bf581615443565b9050614b7a565b5083156118a25760405162461bcd60e51b815260206004820181905260248201527f537472696e67733a20686578206c656e67746820696e73756666696369656e7460448201526064016113c0565b6001600160a01b038116811461193357600080fd5b600060208284031215614c7257600080fd5b81356118a281614c4b565b600060208284031215614c8f57600080fd5b81356001600160e01b0319811681146118a257600080fd5b600080600060608486031215614cbc57600080fd5b8335614cc781614c4b565b92506020840135614cd781614c4b565b929592945050506040919091013590565b60ff8116811461193357600080fd5b60008060408385031215614d0a57600080fd5b8235614d1581614c4b565b91506020830135614d2581614ce8565b809150509250929050565b60008060408385031215614d4357600080fd5b8235614d4e81614c4b565b91506020830135614d2581614c4b565b600060208284031215614d7057600080fd5b5035919050565b60008060408385031215614d8a57600080fd5b823591506020830135614d2581614c4b565b60008060408385031215614daf57600080fd5b8235614dba81614c4b565b946020939093013593505050565b600080600060608486031215614ddd57600080fd5b8335614de881614c4b565b92506020840135614df881614c4b565b91506040840135614e0881614ce8565b809150509250925092565b634e487b7160e01b600052601160045260246000fd5b808201808211156115f7576115f7614e13565b818103818111156115f7576115f7614e13565b80820281158282048414176115f7576115f7614e13565b634e487b7160e01b600052601260045260246000fd5b600082614e8b57614e8b614e66565b500490565b600060208284031215614ea257600080fd5b5051919050565b600060208284031215614ebb57600080fd5b81516118a281614c4b565b8051600281900b8114614ed857600080fd5b919050565b805161ffff81168114614ed857600080fd5b80518015158114614ed857600080fd5b600080600080600080600060e0888a031215614f1a57600080fd5b8751614f2581614c4b565b9650614f3360208901614ec6565b9550614f4160408901614edd565b9450614f4f60608901614edd565b9350614f5d60808901614edd565b925060a0880151614f6d81614ce8565b9150614f7b60c08901614eef565b905092959891949750929550565b600060208284031215614f9b57600080fd5b6118a282614ec6565b600080600060608486031215614fb957600080fd5b83519250602084015191506040840151614e0881614c4b565b60005b83811015614fed578181015183820152602001614fd5565b50506000910152565b60008251615008818460208701614fd2565b9190910192915050565b600060ff82168061502557615025614e13565b6000190192915050565b60006020828403121561504157600080fd5b6118a282614eef565b634e487b7160e01b600052604160045260246000fd5b634e487b7160e01b600052603260045260246000fd5b6020808252825182820181905260009190848201906040850190845b818110156150b457835163ffffffff1683529284019291840191600101615092565b50909695505050505050565b604051601f8201601f1916810167ffffffffffffffff811182821017156150e9576150e961504a565b604052919050565b600067ffffffffffffffff82111561510b5761510b61504a565b5060051b60200190565b600082601f83011261512657600080fd5b8151602061513b615136836150f1565b6150c0565b82815260059290921b8401810191818101908684111561515a57600080fd5b8286015b8481101561517e57805161517181614c4b565b835291830191830161515e565b509695505050505050565b6000806040838503121561519c57600080fd5b825167ffffffffffffffff808211156151b457600080fd5b818501915085601f8301126151c857600080fd5b815160206151d8615136836150f1565b82815260059290921b840181019181810190898411156151f757600080fd5b948201945b838610156152255785518060060b81146152165760008081fd5b825294820194908201906151fc565b9188015191965090935050508082111561523e57600080fd5b5061524b85828601615115565b9150509250929050565b600682810b9082900b03667fffffffffffff198112667fffffffffffff821317156115f7576115f7614e13565b60008160060b8360060b8061529957615299614e66565b667fffffffffffff198214600019821416156152b7576152b7614e13565b90059392505050565b60008260060b806152d3576152d3614e66565b808360060b0791505092915050565b60008160020b627fffff19810361502557615025614e13565b60006020828403121561530d57600080fd5b815167ffffffffffffffff8082111561532557600080fd5b818401915084601f83011261533957600080fd5b81518181111561534b5761534b61504a565b61535e601f8201601f19166020016150c0565b915080825285602082850101111561537557600080fd5b615386816020840160208601614fd2565b50949350505050565b60208152600082518060208401526153ae816040850160208701614fd2565b601f01601f19169190910160400192915050565b7f416363657373436f6e74726f6c3a206163636f756e74200000000000000000008152600083516153fa816017850160208801614fd2565b7f206973206d697373696e6720726f6c65200000000000000000000000000000006017918401918201528351615437816028840160208801614fd2565b01602801949350505050565b60008161545257615452614e13565b50600019019056fea164736f6c6343000812000a",
  "linkReferences": {
    "contracts/libraries/LibPublicSaleVault.sol": {
      "LibPublicSaleVault": [
        {
          "length": 20,
          "start": 10008
        },
        {
          "length": 20,
          "start": 10381
        },
        {
          "length": 20,
          "start": 10638
        }
      ]
    }
  },
  "deployedLinkReferences": {
    "contracts/libraries/LibPublicSaleVault.sol": {
      "LibPublicSaleVault": [
        {
          "length": 20,
          "start": 9957
        },
        {
          "length": 20,
          "start": 10330
        },
        {
          "length": 20,
          "start": 10587
        }
      ]
    }
  }
}