{
  "_format": "hh-sol-artifact-1",
  "contractName": "L2PublicSaleVault",
  "sourceName": "contracts/L2/vaults/L2PublicSaleVault.sol",
  "abi": [
    {
      "anonymous": false,
      "inputs": [
        {
          "indexed": false,
          "internalType": "address",
          "name": "l2Token",
          "type": "address"
        },
        {
          "indexed": true,
          "internalType": "address",
          "name": "from",
          "type": "address"
        },
        {
          "indexed": false,
          "internalType": "uint256",
          "name": "tier",
          "type": "uint256"
        }
      ],
      "name": "AddedWhiteList",
      "type": "event"
    },
    {
      "anonymous": false,
      "inputs": [
        {
          "indexed": false,
          "internalType": "address",
          "name": "l2Token",
          "type": "address"
        },
        {
          "indexed": true,
          "internalType": "address",
          "name": "from",
          "type": "address"
        },
        {
          "indexed": false,
          "internalType": "uint256",
          "name": "amount",
          "type": "uint256"
        }
      ],
      "name": "Claimed",
      "type": "event"
    },
    {
      "anonymous": false,
      "inputs": [
        {
          "indexed": false,
          "internalType": "address",
          "name": "l2Token",
          "type": "address"
        },
        {
          "indexed": true,
          "internalType": "address",
          "name": "from",
          "type": "address"
        },
        {
          "indexed": false,
          "internalType": "uint256",
          "name": "amount",
          "type": "uint256"
        },
        {
          "indexed": false,
          "internalType": "uint256",
          "name": "liquidityAmount",
          "type": "uint256"
        }
      ],
      "name": "DepositWithdrawal",
      "type": "event"
    },
    {
      "anonymous": false,
      "inputs": [
        {
          "indexed": false,
          "internalType": "address",
          "name": "l2Token",
          "type": "address"
        },
        {
          "indexed": true,
          "internalType": "address",
          "name": "from",
          "type": "address"
        },
        {
          "indexed": false,
          "internalType": "uint256",
          "name": "amount",
          "type": "uint256"
        }
      ],
      "name": "Deposited",
      "type": "event"
    },
    {
      "anonymous": false,
      "inputs": [
        {
          "indexed": false,
          "internalType": "address",
          "name": "l2Token",
          "type": "address"
        },
        {
          "indexed": true,
          "internalType": "address",
          "name": "from",
          "type": "address"
        },
        {
          "indexed": false,
          "internalType": "uint256",
          "name": "amountIn",
          "type": "uint256"
        },
        {
          "indexed": false,
          "internalType": "uint256",
          "name": "amountOut",
          "type": "uint256"
        }
      ],
      "name": "ExchangeSwap",
      "type": "event"
    },
    {
      "anonymous": false,
      "inputs": [
        {
          "indexed": false,
          "internalType": "address",
          "name": "l2Token",
          "type": "address"
        },
        {
          "indexed": true,
          "internalType": "address",
          "name": "from",
          "type": "address"
        },
        {
          "indexed": false,
          "internalType": "uint256",
          "name": "amount",
          "type": "uint256"
        }
      ],
      "name": "ExclusiveSaled",
      "type": "event"
    },
    {
      "anonymous": false,
      "inputs": [
        {
          "indexed": false,
          "internalType": "address",
          "name": "l2Token",
          "type": "address"
        },
        {
          "indexed": true,
          "internalType": "address",
          "name": "from",
          "type": "address"
        },
        {
          "indexed": false,
          "internalType": "uint256",
          "name": "amount",
          "type": "uint256"
        }
      ],
      "name": "Refunded",
      "type": "event"
    },
    {
      "anonymous": false,
      "inputs": [
        {
          "indexed": true,
          "internalType": "bytes32",
          "name": "role",
          "type": "bytes32"
        },
        {
          "indexed": true,
          "internalType": "bytes32",
          "name": "previousAdminRole",
          "type": "bytes32"
        },
        {
          "indexed": true,
          "internalType": "bytes32",
          "name": "newAdminRole",
          "type": "bytes32"
        }
      ],
      "name": "RoleAdminChanged",
      "type": "event"
    },
    {
      "anonymous": false,
      "inputs": [
        {
          "indexed": true,
          "internalType": "bytes32",
          "name": "role",
          "type": "bytes32"
        },
        {
          "indexed": true,
          "internalType": "address",
          "name": "account",
          "type": "address"
        },
        {
          "indexed": true,
          "internalType": "address",
          "name": "sender",
          "type": "address"
        }
      ],
      "name": "RoleGranted",
      "type": "event"
    },
    {
      "anonymous": false,
      "inputs": [
        {
          "indexed": true,
          "internalType": "bytes32",
          "name": "role",
          "type": "bytes32"
        },
        {
          "indexed": true,
          "internalType": "address",
          "name": "account",
          "type": "address"
        },
        {
          "indexed": true,
          "internalType": "address",
          "name": "sender",
          "type": "address"
        }
      ],
      "name": "RoleRevoked",
      "type": "event"
    },
    {
      "anonymous": false,
      "inputs": [
        {
          "indexed": false,
          "internalType": "address",
          "name": "newInitializer",
          "type": "address"
        }
      ],
      "name": "SetInitializer",
      "type": "event"
    },
    {
      "anonymous": false,
      "inputs": [
        {
          "indexed": false,
          "internalType": "address",
          "name": "l2Token",
          "type": "address"
        },
        {
          "indexed": false,
          "internalType": "address",
          "name": "newAdmin",
          "type": "address"
        }
      ],
      "name": "SetVaultAdmin",
      "type": "event"
    },
    {
      "inputs": [],
      "name": "ADMIN_ROLE",
      "outputs": [
        {
          "internalType": "bytes32",
          "name": "",
          "type": "bytes32"
        }
      ],
      "stateMutability": "view",
      "type": "function"
    },
    {
      "inputs": [],
      "name": "DEFAULT_ADMIN_ROLE",
      "outputs": [
        {
          "internalType": "bytes32",
          "name": "",
          "type": "bytes32"
        }
      ],
      "stateMutability": "view",
      "type": "function"
    },
    {
      "inputs": [],
      "name": "POLICY_ROLE",
      "outputs": [
        {
          "internalType": "bytes32",
          "name": "",
          "type": "bytes32"
        }
      ],
      "stateMutability": "view",
      "type": "function"
    },
    {
      "inputs": [
        {
          "internalType": "address",
          "name": "account",
          "type": "address"
        }
      ],
      "name": "addAdmin",
      "outputs": [],
      "stateMutability": "nonpayable",
      "type": "function"
    },
    {
      "inputs": [
        {
          "internalType": "address",
          "name": "_l2token",
          "type": "address"
        }
      ],
      "name": "addWhiteList",
      "outputs": [],
      "stateMutability": "nonpayable",
      "type": "function"
    },
    {
      "inputs": [
        {
          "internalType": "address",
          "name": "",
          "type": "address"
        }
      ],
      "name": "aliveImplementation",
      "outputs": [
        {
          "internalType": "bool",
          "name": "",
          "type": "bool"
        }
      ],
      "stateMutability": "view",
      "type": "function"
    },
    {
      "inputs": [
        {
          "internalType": "address",
          "name": "_l2token",
          "type": "address"
        },
        {
          "internalType": "address",
          "name": "_account",
          "type": "address"
        }
      ],
      "name": "calcul1RoundAmount",
      "outputs": [
        {
          "internalType": "uint256",
          "name": "",
          "type": "uint256"
        }
      ],
      "stateMutability": "view",
      "type": "function"
    },
    {
      "inputs": [
        {
          "internalType": "address",
          "name": "_l2token",
          "type": "address"
        },
        {
          "internalType": "address",
          "name": "_account",
          "type": "address"
        },
        {
          "internalType": "uint256",
          "name": "_round",
          "type": "uint256"
        }
      ],
      "name": "calculClaimAmount",
      "outputs": [
        {
          "internalType": "uint256",
          "name": "_reward",
          "type": "uint256"
        },
        {
          "internalType": "uint256",
          "name": "_totalClaim",
          "type": "uint256"
        },
        {
          "internalType": "uint256",
          "name": "_refundAmount",
          "type": "uint256"
        }
      ],
      "stateMutability": "view",
      "type": "function"
    },
    {
      "inputs": [
        {
          "internalType": "address",
          "name": "_l2token",
          "type": "address"
        },
        {
          "internalType": "address",
          "name": "_account",
          "type": "address"
        },
        {
          "internalType": "uint256",
          "name": "_amount",
          "type": "uint256"
        }
      ],
      "name": "calculOpenSaleAmount",
      "outputs": [
        {
          "internalType": "uint256",
          "name": "",
          "type": "uint256"
        }
      ],
      "stateMutability": "view",
      "type": "function"
    },
    {
      "inputs": [
        {
          "internalType": "address",
          "name": "_l2token",
          "type": "address"
        },
        {
          "internalType": "uint256",
          "name": "_amount",
          "type": "uint256"
        }
      ],
      "name": "calculPayToken",
      "outputs": [
        {
          "internalType": "uint256",
          "name": "",
          "type": "uint256"
        }
      ],
      "stateMutability": "view",
      "type": "function"
    },
    {
      "inputs": [
        {
          "internalType": "address",
          "name": "_l2token",
          "type": "address"
        },
        {
          "internalType": "uint256",
          "name": "_amount",
          "type": "uint256"
        }
      ],
      "name": "calculSaleToken",
      "outputs": [
        {
          "internalType": "uint256",
          "name": "",
          "type": "uint256"
        }
      ],
      "stateMutability": "view",
      "type": "function"
    },
    {
      "inputs": [
        {
          "internalType": "address",
          "name": "_l2token",
          "type": "address"
        },
        {
          "internalType": "address",
          "name": "_account",
          "type": "address"
        }
      ],
      "name": "calculTier",
      "outputs": [
        {
          "internalType": "uint8",
          "name": "",
          "type": "uint8"
        }
      ],
      "stateMutability": "view",
      "type": "function"
    },
    {
      "inputs": [
        {
          "internalType": "address",
          "name": "_l2token",
          "type": "address"
        },
        {
          "internalType": "address",
          "name": "_account",
          "type": "address"
        },
        {
          "internalType": "uint8",
          "name": "tier",
          "type": "uint8"
        }
      ],
      "name": "calculTierAmount",
      "outputs": [
        {
          "internalType": "uint256",
          "name": "",
          "type": "uint256"
        }
      ],
      "stateMutability": "view",
      "type": "function"
    },
    {
      "inputs": [],
      "name": "changeTick",
      "outputs": [
        {
          "internalType": "int24",
          "name": "",
          "type": "int24"
        }
      ],
      "stateMutability": "view",
      "type": "function"
    },
    {
      "inputs": [
        {
          "internalType": "address",
          "name": "_l2token",
          "type": "address"
        }
      ],
      "name": "claim",
      "outputs": [],
      "stateMutability": "nonpayable",
      "type": "function"
    },
    {
      "inputs": [
        {
          "internalType": "address",
          "name": "",
          "type": "address"
        }
      ],
      "name": "claimInfo",
      "outputs": [
        {
          "internalType": "uint256",
          "name": "totalClaimCounts",
          "type": "uint256"
        },
        {
          "internalType": "uint256",
          "name": "firstClaimPercent",
          "type": "uint256"
        },
        {
          "internalType": "uint256",
          "name": "firstClaimTime",
          "type": "uint256"
        },
        {
          "internalType": "uint256",
          "name": "secondClaimTime",
          "type": "uint256"
        },
        {
          "internalType": "uint256",
          "name": "claimInterval",
          "type": "uint256"
        }
      ],
      "stateMutability": "view",
      "type": "function"
    },
    {
      "inputs": [
        {
          "internalType": "address",
          "name": "",
          "type": "address"
        },
        {
          "internalType": "uint256",
          "name": "",
          "type": "uint256"
        }
      ],
      "name": "claimPercents",
      "outputs": [
        {
          "internalType": "uint256",
          "name": "",
          "type": "uint256"
        }
      ],
      "stateMutability": "view",
      "type": "function"
    },
    {
      "inputs": [
        {
          "internalType": "address",
          "name": "",
          "type": "address"
        },
        {
          "internalType": "uint256",
          "name": "",
          "type": "uint256"
        }
      ],
      "name": "claimTimes",
      "outputs": [
        {
          "internalType": "uint256",
          "name": "",
          "type": "uint256"
        }
      ],
      "stateMutability": "view",
      "type": "function"
    },
    {
      "inputs": [
        {
          "internalType": "address",
          "name": "_l2token",
          "type": "address"
        }
      ],
      "name": "currentRound",
      "outputs": [
        {
          "internalType": "uint256",
          "name": "round",
          "type": "uint256"
        }
      ],
      "stateMutability": "view",
      "type": "function"
    },
    {
      "inputs": [],
      "name": "delayTime",
      "outputs": [
        {
          "internalType": "uint256",
          "name": "",
          "type": "uint256"
        }
      ],
      "stateMutability": "view",
      "type": "function"
    },
    {
      "inputs": [
        {
          "internalType": "address",
          "name": "_l2token",
          "type": "address"
        }
      ],
      "name": "depositWithdraw",
      "outputs": [],
      "stateMutability": "payable",
      "type": "function"
    },
    {
      "inputs": [
        {
          "internalType": "address",
          "name": "",
          "type": "address"
        },
        {
          "internalType": "uint256",
          "name": "",
          "type": "uint256"
        }
      ],
      "name": "depositors",
      "outputs": [
        {
          "internalType": "address",
          "name": "",
          "type": "address"
        }
      ],
      "stateMutability": "view",
      "type": "function"
    },
    {
      "inputs": [
        {
          "internalType": "address",
          "name": "_l2token",
          "type": "address"
        },
        {
          "internalType": "uint256",
          "name": "amountIn",
          "type": "uint256"
        }
      ],
      "name": "exchangeWTONtoTOS",
      "outputs": [],
      "stateMutability": "payable",
      "type": "function"
    },
    {
      "inputs": [
        {
          "internalType": "bytes32",
          "name": "role",
          "type": "bytes32"
        }
      ],
      "name": "getRoleAdmin",
      "outputs": [
        {
          "internalType": "bytes32",
          "name": "",
          "type": "bytes32"
        }
      ],
      "stateMutability": "view",
      "type": "function"
    },
    {
      "inputs": [
        {
          "internalType": "bytes32",
          "name": "role",
          "type": "bytes32"
        },
        {
          "internalType": "address",
          "name": "account",
          "type": "address"
        }
      ],
      "name": "grantRole",
      "outputs": [],
      "stateMutability": "nonpayable",
      "type": "function"
    },
    {
      "inputs": [
        {
          "internalType": "address",
          "name": "_l2token",
          "type": "address"
        }
      ],
      "name": "hardcapCalcul",
      "outputs": [
        {
          "internalType": "uint256",
          "name": "",
          "type": "uint256"
        }
      ],
      "stateMutability": "view",
      "type": "function"
    },
    {
      "inputs": [
        {
          "internalType": "bytes32",
          "name": "role",
          "type": "bytes32"
        },
        {
          "internalType": "address",
          "name": "account",
          "type": "address"
        }
      ],
      "name": "hasRole",
      "outputs": [
        {
          "internalType": "bool",
          "name": "",
          "type": "bool"
        }
      ],
      "stateMutability": "view",
      "type": "function"
    },
    {
      "inputs": [
        {
          "internalType": "address",
          "name": "account",
          "type": "address"
        }
      ],
      "name": "isAdmin",
      "outputs": [
        {
          "internalType": "bool",
          "name": "",
          "type": "bool"
        }
      ],
      "stateMutability": "view",
      "type": "function"
    },
    {
      "inputs": [],
      "name": "l1burnVault",
      "outputs": [
        {
          "internalType": "address",
          "name": "",
          "type": "address"
        }
      ],
      "stateMutability": "view",
      "type": "function"
    },
    {
      "inputs": [],
      "name": "l2Bridge",
      "outputs": [
        {
          "internalType": "address",
          "name": "",
          "type": "address"
        }
      ],
      "stateMutability": "view",
      "type": "function"
    },
    {
      "inputs": [],
      "name": "l2ProjectManager",
      "outputs": [
        {
          "internalType": "address",
          "name": "",
          "type": "address"
        }
      ],
      "stateMutability": "view",
      "type": "function"
    },
    {
      "inputs": [],
      "name": "liquidityVault",
      "outputs": [
        {
          "internalType": "address",
          "name": "",
          "type": "address"
        }
      ],
      "stateMutability": "view",
      "type": "function"
    },
    {
      "inputs": [],
      "name": "lockTOS",
      "outputs": [
        {
          "internalType": "address",
          "name": "",
          "type": "address"
        }
      ],
      "stateMutability": "view",
      "type": "function"
    },
    {
      "inputs": [
        {
          "internalType": "address",
          "name": "",
          "type": "address"
        }
      ],
      "name": "manageInfo",
      "outputs": [
        {
          "internalType": "uint256",
          "name": "set1rdTokenAmount",
          "type": "uint256"
        },
        {
          "internalType": "uint256",
          "name": "set2rdTokenAmount",
          "type": "uint256"
        },
        {
          "internalType": "uint256",
          "name": "saleTokenPrice",
          "type": "uint256"
        },
        {
          "internalType": "uint256",
          "name": "tonPrice",
          "type": "uint256"
        },
        {
          "internalType": "uint256",
          "name": "hardCap",
          "type": "uint256"
        },
        {
          "internalType": "uint256",
          "name": "changeTOS",
          "type": "uint256"
        },
        {
          "internalType": "uint256",
          "name": "remainTON",
          "type": "uint256"
        },
        {
          "internalType": "int24",
          "name": "changeTick",
          "type": "int24"
        },
        {
          "internalType": "bool",
          "name": "exchangeTOS",
          "type": "bool"
        },
        {
          "internalType": "bool",
          "name": "adminWithdraw",
          "type": "bool"
        }
      ],
      "stateMutability": "view",
      "type": "function"
    },
    {
      "inputs": [],
      "name": "maxPer",
      "outputs": [
        {
          "internalType": "uint8",
          "name": "",
          "type": "uint8"
        }
      ],
      "stateMutability": "view",
      "type": "function"
    },
    {
      "inputs": [],
      "name": "minPer",
      "outputs": [
        {
          "internalType": "uint8",
          "name": "",
          "type": "uint8"
        }
      ],
      "stateMutability": "view",
      "type": "function"
    },
    {
      "inputs": [
        {
          "internalType": "address",
          "name": "_l2token",
          "type": "address"
        },
        {
          "internalType": "address",
          "name": "user",
          "type": "address"
        }
      ],
      "name": "openSaleUserAmount",
      "outputs": [
        {
          "internalType": "uint256",
          "name": "_realPayAmount",
          "type": "uint256"
        },
        {
          "internalType": "uint256",
          "name": "_realSaleAmount",
          "type": "uint256"
        },
        {
          "internalType": "uint256",
          "name": "_refundAmount",
          "type": "uint256"
        }
      ],
      "stateMutability": "view",
      "type": "function"
    },
    {
      "inputs": [],
      "name": "pauseProxy",
      "outputs": [
        {
          "internalType": "bool",
          "name": "",
          "type": "bool"
        }
      ],
      "stateMutability": "view",
      "type": "function"
    },
    {
      "inputs": [],
      "name": "poolFee",
      "outputs": [
        {
          "internalType": "uint24",
          "name": "",
          "type": "uint24"
        }
      ],
      "stateMutability": "view",
      "type": "function"
    },
    {
      "inputs": [
        {
          "internalType": "uint256",
          "name": "",
          "type": "uint256"
        }
      ],
      "name": "proxyImplementation",
      "outputs": [
        {
          "internalType": "address",
          "name": "",
          "type": "address"
        }
      ],
      "stateMutability": "view",
      "type": "function"
    },
    {
      "inputs": [],
      "name": "quoter",
      "outputs": [
        {
          "internalType": "address",
          "name": "",
          "type": "address"
        }
      ],
      "stateMutability": "view",
      "type": "function"
    },
    {
      "inputs": [
        {
          "internalType": "address",
          "name": "account",
          "type": "address"
        }
      ],
      "name": "removeAdmin",
      "outputs": [],
      "stateMutability": "nonpayable",
      "type": "function"
    },
    {
      "inputs": [
        {
          "internalType": "bytes32",
          "name": "role",
          "type": "bytes32"
        },
        {
          "internalType": "address",
          "name": "account",
          "type": "address"
        }
      ],
      "name": "renounceRole",
      "outputs": [],
      "stateMutability": "nonpayable",
      "type": "function"
    },
    {
      "inputs": [
        {
          "internalType": "bytes32",
          "name": "role",
          "type": "bytes32"
        },
        {
          "internalType": "address",
          "name": "account",
          "type": "address"
        }
      ],
      "name": "revokeRole",
      "outputs": [],
      "stateMutability": "nonpayable",
      "type": "function"
    },
    {
      "inputs": [
        {
          "internalType": "address",
          "name": "_l2token",
          "type": "address"
        }
      ],
      "name": "round1Sale",
      "outputs": [],
      "stateMutability": "payable",
      "type": "function"
    },
    {
      "inputs": [
        {
          "internalType": "address",
          "name": "_l2token",
          "type": "address"
        }
      ],
      "name": "round2Sale",
      "outputs": [],
      "stateMutability": "payable",
      "type": "function"
    },
    {
      "inputs": [
        {
          "internalType": "address",
          "name": "",
          "type": "address"
        }
      ],
      "name": "saleInfo",
      "outputs": [
        {
          "internalType": "uint256",
          "name": "total1rdSaleAmount",
          "type": "uint256"
        },
        {
          "internalType": "uint256",
          "name": "total1rdTONAmount",
          "type": "uint256"
        },
        {
          "internalType": "uint256",
          "name": "totalUsers",
          "type": "uint256"
        },
        {
          "internalType": "uint256",
          "name": "total1rdUsers",
          "type": "uint256"
        },
        {
          "internalType": "uint256",
          "name": "total2rdUsers",
          "type": "uint256"
        },
        {
          "internalType": "uint256",
          "name": "total2rdUsersClaim",
          "type": "uint256"
        }
      ],
      "stateMutability": "view",
      "type": "function"
    },
    {
      "inputs": [
        {
          "internalType": "bytes4",
          "name": "",
          "type": "bytes4"
        }
      ],
      "name": "selectorImplementation",
      "outputs": [
        {
          "internalType": "address",
          "name": "",
          "type": "address"
        }
      ],
      "stateMutability": "view",
      "type": "function"
    },
    {
      "inputs": [],
      "name": "stanTier1",
      "outputs": [
        {
          "internalType": "uint256",
          "name": "",
          "type": "uint256"
        }
      ],
      "stateMutability": "view",
      "type": "function"
    },
    {
      "inputs": [],
      "name": "stanTier2",
      "outputs": [
        {
          "internalType": "uint256",
          "name": "",
          "type": "uint256"
        }
      ],
      "stateMutability": "view",
      "type": "function"
    },
    {
      "inputs": [],
      "name": "stanTier3",
      "outputs": [
        {
          "internalType": "uint256",
          "name": "",
          "type": "uint256"
        }
      ],
      "stateMutability": "view",
      "type": "function"
    },
    {
      "inputs": [],
      "name": "stanTier4",
      "outputs": [
        {
          "internalType": "uint256",
          "name": "",
          "type": "uint256"
        }
      ],
      "stateMutability": "view",
      "type": "function"
    },
    {
      "inputs": [
        {
          "internalType": "bytes4",
          "name": "interfaceId",
          "type": "bytes4"
        }
      ],
      "name": "supportsInterface",
      "outputs": [
        {
          "internalType": "bool",
          "name": "",
          "type": "bool"
        }
      ],
      "stateMutability": "view",
      "type": "function"
    },
    {
      "inputs": [
        {
          "internalType": "address",
          "name": "",
          "type": "address"
        },
        {
          "internalType": "uint8",
          "name": "",
          "type": "uint8"
        }
      ],
      "name": "tiers",
      "outputs": [
        {
          "internalType": "uint256",
          "name": "",
          "type": "uint256"
        }
      ],
      "stateMutability": "view",
      "type": "function"
    },
    {
      "inputs": [
        {
          "internalType": "address",
          "name": "",
          "type": "address"
        },
        {
          "internalType": "uint8",
          "name": "",
          "type": "uint8"
        }
      ],
      "name": "tiers1stAccount",
      "outputs": [
        {
          "internalType": "uint256",
          "name": "",
          "type": "uint256"
        }
      ],
      "stateMutability": "view",
      "type": "function"
    },
    {
      "inputs": [
        {
          "internalType": "address",
          "name": "",
          "type": "address"
        },
        {
          "internalType": "uint8",
          "name": "",
          "type": "uint8"
        }
      ],
      "name": "tiersCalculAccount",
      "outputs": [
        {
          "internalType": "uint256",
          "name": "",
          "type": "uint256"
        }
      ],
      "stateMutability": "view",
      "type": "function"
    },
    {
      "inputs": [
        {
          "internalType": "address",
          "name": "",
          "type": "address"
        },
        {
          "internalType": "uint8",
          "name": "",
          "type": "uint8"
        }
      ],
      "name": "tiersPercents",
      "outputs": [
        {
          "internalType": "uint256",
          "name": "",
          "type": "uint256"
        }
      ],
      "stateMutability": "view",
      "type": "function"
    },
    {
      "inputs": [
        {
          "internalType": "address",
          "name": "",
          "type": "address"
        },
        {
          "internalType": "uint8",
          "name": "",
          "type": "uint8"
        }
      ],
      "name": "tiersWhiteList",
      "outputs": [
        {
          "internalType": "uint256",
          "name": "",
          "type": "uint256"
        }
      ],
      "stateMutability": "view",
      "type": "function"
    },
    {
      "inputs": [
        {
          "internalType": "address",
          "name": "",
          "type": "address"
        }
      ],
      "name": "timeInfo",
      "outputs": [
        {
          "internalType": "uint256",
          "name": "deployTime",
          "type": "uint256"
        },
        {
          "internalType": "uint256",
          "name": "snapshot",
          "type": "uint256"
        },
        {
          "internalType": "uint256",
          "name": "whiteListStartTime",
          "type": "uint256"
        },
        {
          "internalType": "uint256",
          "name": "whiteListEndTime",
          "type": "uint256"
        },
        {
          "internalType": "uint256",
          "name": "round1StartTime",
          "type": "uint256"
        },
        {
          "internalType": "uint256",
          "name": "round1EndTime",
          "type": "uint256"
        },
        {
          "internalType": "uint256",
          "name": "round2StartTime",
          "type": "uint256"
        },
        {
          "internalType": "uint256",
          "name": "round2EndTime",
          "type": "uint256"
        }
      ],
      "stateMutability": "view",
      "type": "function"
    },
    {
      "inputs": [],
      "name": "ton",
      "outputs": [
        {
          "internalType": "address",
          "name": "",
          "type": "address"
        }
      ],
      "stateMutability": "view",
      "type": "function"
    },
    {
      "inputs": [],
      "name": "tos",
      "outputs": [
        {
          "internalType": "address",
          "name": "",
          "type": "address"
        }
      ],
      "stateMutability": "view",
      "type": "function"
    },
    {
      "inputs": [
        {
          "internalType": "address",
          "name": "",
          "type": "address"
        }
      ],
      "name": "totalDepositAmount",
      "outputs": [
        {
          "internalType": "uint256",
          "name": "",
          "type": "uint256"
        }
      ],
      "stateMutability": "view",
      "type": "function"
    },
    {
      "inputs": [
        {
          "internalType": "address",
          "name": "_l2token",
          "type": "address"
        }
      ],
      "name": "totalExpectOpenSaleAmountView",
      "outputs": [
        {
          "internalType": "uint256",
          "name": "",
          "type": "uint256"
        }
      ],
      "stateMutability": "view",
      "type": "function"
    },
    {
      "inputs": [
        {
          "internalType": "address",
          "name": "_l2token",
          "type": "address"
        }
      ],
      "name": "totalOpenPurchasedAmount",
      "outputs": [
        {
          "internalType": "uint256",
          "name": "",
          "type": "uint256"
        }
      ],
      "stateMutability": "view",
      "type": "function"
    },
    {
      "inputs": [
        {
          "internalType": "address",
          "name": "_l2token",
          "type": "address"
        }
      ],
      "name": "totalOpenSaleAmount",
      "outputs": [
        {
          "internalType": "uint256",
          "name": "",
          "type": "uint256"
        }
      ],
      "stateMutability": "view",
      "type": "function"
    },
    {
      "inputs": [
        {
          "internalType": "address",
          "name": "_l2token",
          "type": "address"
        }
      ],
      "name": "totalRound1NonSaleAmount",
      "outputs": [
        {
          "internalType": "uint256",
          "name": "",
          "type": "uint256"
        }
      ],
      "stateMutability": "view",
      "type": "function"
    },
    {
      "inputs": [
        {
          "internalType": "address",
          "name": "_l2token",
          "type": "address"
        },
        {
          "internalType": "address",
          "name": "user",
          "type": "address"
        }
      ],
      "name": "totalSaleUserAmount",
      "outputs": [
        {
          "internalType": "uint256",
          "name": "_realPayAmount",
          "type": "uint256"
        },
        {
          "internalType": "uint256",
          "name": "_realSaleAmount",
          "type": "uint256"
        },
        {
          "internalType": "uint256",
          "name": "_refundAmount",
          "type": "uint256"
        }
      ],
      "stateMutability": "view",
      "type": "function"
    },
    {
      "inputs": [
        {
          "internalType": "address",
          "name": "_l2token",
          "type": "address"
        }
      ],
      "name": "totalWhitelists",
      "outputs": [
        {
          "internalType": "uint256",
          "name": "",
          "type": "uint256"
        }
      ],
      "stateMutability": "view",
      "type": "function"
    },
    {
      "inputs": [
        {
          "internalType": "address",
          "name": "newAdmin",
          "type": "address"
        }
      ],
      "name": "transferAdmin",
      "outputs": [],
      "stateMutability": "nonpayable",
      "type": "function"
    },
    {
      "inputs": [],
      "name": "uniswapRouter",
      "outputs": [
        {
          "internalType": "address",
          "name": "",
          "type": "address"
        }
      ],
      "stateMutability": "view",
      "type": "function"
    },
    {
      "inputs": [
        {
          "internalType": "address",
          "name": "",
          "type": "address"
        },
        {
          "internalType": "address",
          "name": "",
          "type": "address"
        }
      ],
      "name": "user1rd",
      "outputs": [
        {
          "internalType": "bool",
          "name": "join",
          "type": "bool"
        },
        {
          "internalType": "uint8",
          "name": "tier",
          "type": "uint8"
        },
        {
          "internalType": "uint256",
          "name": "payAmount",
          "type": "uint256"
        },
        {
          "internalType": "uint256",
          "name": "saleAmount",
          "type": "uint256"
        }
      ],
      "stateMutability": "view",
      "type": "function"
    },
    {
      "inputs": [
        {
          "internalType": "address",
          "name": "",
          "type": "address"
        },
        {
          "internalType": "address",
          "name": "",
          "type": "address"
        }
      ],
      "name": "user2rd",
      "outputs": [
        {
          "internalType": "bool",
          "name": "join",
          "type": "bool"
        },
        {
          "internalType": "uint256",
          "name": "depositAmount",
          "type": "uint256"
        }
      ],
      "stateMutability": "view",
      "type": "function"
    },
    {
      "inputs": [
        {
          "internalType": "address",
          "name": "",
          "type": "address"
        },
        {
          "internalType": "address",
          "name": "",
          "type": "address"
        }
      ],
      "name": "userClaim",
      "outputs": [
        {
          "internalType": "bool",
          "name": "refund",
          "type": "bool"
        },
        {
          "internalType": "uint256",
          "name": "claimAmount",
          "type": "uint256"
        },
        {
          "internalType": "uint256",
          "name": "refundAmount",
          "type": "uint256"
        },
        {
          "internalType": "uint256",
          "name": "latestClaimedRound",
          "type": "uint256"
        }
      ],
      "stateMutability": "view",
      "type": "function"
    },
    {
      "inputs": [
        {
          "internalType": "address",
          "name": "",
          "type": "address"
        }
      ],
      "name": "vaultAdminOfToken",
      "outputs": [
        {
          "internalType": "address",
          "name": "",
          "type": "address"
        }
      ],
      "stateMutability": "view",
      "type": "function"
    },
    {
      "inputs": [],
      "name": "vestingFund",
      "outputs": [
        {
          "internalType": "address",
          "name": "",
          "type": "address"
        }
      ],
      "stateMutability": "view",
      "type": "function"
    },
    {
      "inputs": [
        {
          "internalType": "address",
          "name": "",
          "type": "address"
        },
        {
          "internalType": "uint256",
          "name": "",
          "type": "uint256"
        }
      ],
      "name": "whitelists",
      "outputs": [
        {
          "internalType": "address",
          "name": "",
          "type": "address"
        }
      ],
      "stateMutability": "view",
      "type": "function"
    },
    {
      "inputs": [],
      "name": "wton",
      "outputs": [
        {
          "internalType": "address",
          "name": "",
          "type": "address"
        }
      ],
      "stateMutability": "view",
      "type": "function"
    }
  ],
  "bytecode": "0x60806040526014805463ff0000001916630100000017905534801561002357600080fd5b506156dd80620000346000396000f3fe6080604052600436106105215760003560e01c8063708666ad116102af578063ae1f6aaf11610179578063d01481a1116100d6578063dc560fcd1161008a578063ef39b1491161006f578063ef39b1491461129e578063f3b08cb9146112be578063f7e6e1ab146112de57600080fd5b8063dc560fcd14611268578063e7cd4a041461127e57600080fd5b8063d547741f116100bb578063d547741f14611159578063d7b0b29d14611179578063d97830b1146111f657600080fd5b8063d01481a114611101578063d13da4441461112157600080fd5b8063c0f22d4b1161012d578063c6bbd5a711610112578063c6bbd5a714611094578063cc48b947146110b4578063cf437a8f146110d457600080fd5b8063c0f22d4b14611054578063c3ce874e1461107457600080fd5b8063b0a5ccd11161015e578063b0a5ccd114610fde578063b911135f14610ffe578063b9e982bb1461103457600080fd5b8063ae1f6aaf14610f25578063b005ed9114610f4557600080fd5b80638d62d949116102275780639f87b77f116101db578063a389595f116101c0578063a389595f14610eb3578063a7b23fcf14610ee5578063ac3e8aa914610f0557600080fd5b80639f87b77f14610e88578063a217fddf14610e9e57600080fd5b806396e6f43f1161020c57806396e6f43f14610e0357806397d7859514610e235780639f32b29a14610e5057600080fd5b80638d62d94914610d9557806391d1485414610dbd57600080fd5b8063768b821f1161027e5780637fc46ba8116102635780637fc46ba814610cc857806389293f6514610cfe57806389f395de14610d7557600080fd5b8063768b821f14610c9c5780637e2eee5314610cb257600080fd5b8063708666ad14610c08578063735de9f714610c2857806375829def14610c4857806375b238fc14610c6857600080fd5b80632f2ff15d116103f057806352351e85116103685780635f6ceddb1161031c57806363a8fd891161030157806363a8fd8914610bbb5780636e2272a214610bd55780637048027514610be857600080fd5b80635f6ceddb14610b885780636100a72114610b9b57600080fd5b806355d6d39b1161034d57806355d6d39b14610b105780635af3909214610b485780635b19e29414610b6857600080fd5b806352351e8514610ac0578063550d01a314610ae057600080fd5b806336568abe116103bf5780634e6c4466116103a45780634e6c446614610a5457806350d2a27614610a7457806351ebde6d14610aaa57600080fd5b806336568abe14610a14578063466c01b814610a3457600080fd5b80632f2ff15d1461096757806330ba46591461098757806331bf2897146109a757806333efca3d146109ba57600080fd5b80631785f53c1161049e578063229852461161045257806324d7806c1161043757806324d7806c146108ef5780632ac9bab61461090f5780632bde5bfb1461094757600080fd5b8063229852461461088b578063248a9ca3146108bf57600080fd5b80631c53f256116104835780631c53f256146108065780631d8236971461084b5780631e83409a1461086b57600080fd5b80631785f53c146107735780631916e5341461079357600080fd5b8063096cc418116104f557806312269758116104da57806312269758146106d75780631576baf41461071d5780631784b3a61461073d57600080fd5b8063096cc418146106645780630b7459eb1461069f57600080fd5b8062e710451461052657806301ffc9a71461053b578063089fe6aa1461057057806308ac3fcb1461059a575b600080fd5b610539610534366004614e7d565b6112fe565b005b34801561054757600080fd5b5061055b610556366004614e9a565b61169f565b60405190151581526020015b60405180910390f35b34801561057c57600080fd5b50610586610bb881565b60405162ffffff9091168152602001610567565b3480156105a657600080fd5b506106136105b5366004614e7d565b601c6020526000908152604090208054600182015460028084015460038501546004860154600587015460068801546007909801549697959693959294919390929181900b9060ff630100000082048116916401000000009004168a565b604080519a8b5260208b0199909952978901969096526060880194909452608087019290925260a086015260c085015260020b60e08401521515610100830152151561012082015261014001610567565b34801561067057600080fd5b5061068461067f366004614ec4565b6116d6565b60408051938452602084019290925290820152606001610567565b3480156106ab57600080fd5b506006546106bf906001600160a01b031681565b6040516001600160a01b039091168152602001610567565b3480156106e357600080fd5b5061070f6106f2366004614f14565b602360209081526000928352604080842090915290825290205481565b604051908152602001610567565b34801561072957600080fd5b5061070f610738366004614e7d565b611937565b34801561074957600080fd5b5061070f610758366004614e7d565b6001600160a01b031660009081526018602052604090205490565b34801561077f57600080fd5b5061053961078e366004614e7d565b611982565b34801561079f57600080fd5b506107e46107ae366004614f4d565b6021602090815260009283526040808420909152908252902080546001820154600283015460039093015460ff90921692909184565b6040805194151585526020850193909352918301526060820152608001610567565b34801561081257600080fd5b50600e54610839907501000000000000000000000000000000000000000000900460ff1681565b60405160ff9091168152602001610567565b34801561085757600080fd5b50610839610866366004614f4d565b611a0f565b34801561087757600080fd5b50610539610886366004614e7d565b611e39565b34801561089757600080fd5b5061070f7ffb5864e8ff833c3cb2d2d08505e82ff02a43554c74a35d4f5a64e8526127831181565b3480156108cb57600080fd5b5061070f6108da366004614f7b565b60009081526004602052604090206001015490565b3480156108fb57600080fd5b5061055b61090a366004614e7d565b6123e4565b34801561091b57600080fd5b5061070f61092a366004614f14565b602660209081526000928352604080842090915290825290205481565b34801561095357600080fd5b5061070f610962366004614e7d565b612424565b34801561097357600080fd5b50610539610982366004614f94565b612574565b34801561099357600080fd5b5061070f6109a2366004614e7d565b61259e565b6105396109b5366004614fb9565b61260b565b3480156109c657600080fd5b506109fd6109d5366004614f4d565b6020808052600092835260408084209091529082529020805460019091015460ff9091169082565b604080519215158352602083019190915201610567565b348015610a2057600080fd5b50610539610a2f366004614f94565b612e3c565b348015610a4057600080fd5b506106bf610a4f366004614fb9565b612ec8565b348015610a6057600080fd5b506009546106bf906001600160a01b031681565b348015610a8057600080fd5b506106bf610a8f366004614e9a565b6003602052600090815260409020546001600160a01b031681565b348015610ab657600080fd5b5061070f60115481565b348015610acc57600080fd5b50600c546106bf906001600160a01b031681565b348015610aec57600080fd5b5061055b610afb366004614e7d565b60026020526000908152604090205460ff1681565b348015610b1c57600080fd5b5061070f610b2b366004614f14565b602460209081526000928352604080842090915290825290205481565b348015610b5457600080fd5b5061070f610b63366004614f4d565b612f00565b348015610b7457600080fd5b506106bf610b83366004614fb9565b612f63565b610539610b96366004614e7d565b612f7f565b348015610ba757600080fd5b5061070f610bb6366004614fb9565b6132dc565b348015610bc757600080fd5b5060005461055b9060ff1681565b610539610be3366004614e7d565b613399565b348015610bf457600080fd5b50610539610c03366004614e7d565b61376c565b348015610c1457600080fd5b506007546106bf906001600160a01b031681565b348015610c3457600080fd5b506008546106bf906001600160a01b031681565b348015610c5457600080fd5b50610539610c63366004614e7d565b6137f6565b348015610c7457600080fd5b5061070f7fdf8b4c520ffe197c5343c6f5aec59570151ef9a492f2c624fd45ddde6135ec4281565b348015610ca857600080fd5b5061070f60105481565b348015610cbe57600080fd5b5061070f60135481565b348015610cd457600080fd5b506106bf610ce3366004614e7d565b6016602052600090815260409020546001600160a01b031681565b348015610d0a57600080fd5b50610d51610d19366004614f4d565b601f60209081526000928352604080842090915290825290208054600182015460029092015460ff8083169361010090930416919084565b60408051941515855260ff9093166020850152918301526060820152608001610567565b348015610d8157600080fd5b50600a546106bf906001600160a01b031681565b348015610da157600080fd5b506106bf73c4a11aaf6ea915ed7ac194161d2fc9384f15bff281565b348015610dc957600080fd5b5061055b610dd8366004614f94565b60009182526004602090815260408084206001600160a01b0393909316845291905290205460ff1690565b348015610e0f57600080fd5b5061070f610e1e366004614fe5565b613958565b348015610e2f57600080fd5b5061070f610e3e366004614e7d565b60156020526000908152604090205481565b348015610e5c57600080fd5b5061070f610e6b366004614f14565b602560209081526000928352604080842090915290825290205481565b348015610e9457600080fd5b5061070f600f5481565b348015610eaa57600080fd5b5061070f600081565b348015610ebf57600080fd5b50600e546108399074010000000000000000000000000000000000000000900460ff1681565b348015610ef157600080fd5b5061070f610f00366004614e7d565b613b76565b348015610f1157600080fd5b50610684610f20366004614f4d565b613c43565b348015610f3157600080fd5b50600d546106bf906001600160a01b031681565b348015610f5157600080fd5b50610fa3610f60366004614e7d565b601b602052600090815260409020805460018201546002830154600384015460048501546005860154600687015460079097015495969495939492939192909188565b604080519889526020890197909752958701949094526060860192909252608085015260a084015260c083015260e082015261010001610567565b348015610fea57600080fd5b5061070f610ff9366004614e7d565b613d24565b34801561100a57600080fd5b506106bf611019366004614f7b565b6001602052600090815260409020546001600160a01b031681565b34801561104057600080fd5b5061070f61104f366004614e7d565b613ea4565b34801561106057600080fd5b5061070f61106f366004614fb9565b613fa4565b34801561108057600080fd5b5061070f61108f366004614fb9565b613fd5565b3480156110a057600080fd5b506005546106bf906001600160a01b031681565b3480156110c057600080fd5b50600b546106bf906001600160a01b031681565b3480156110e057600080fd5b506014546110ee9060020b81565b60405160029190910b8152602001610567565b34801561110d57600080fd5b50600e546106bf906001600160a01b031681565b34801561112d57600080fd5b5061070f61113c366004614f14565b602260209081526000928352604080842090915290825290205481565b34801561116557600080fd5b50610539611174366004614f94565b614080565b34801561118557600080fd5b506111c9611194366004614e7d565b601e60205260009081526040902080546001820154600283015460038401546004850154600590950154939492939192909186565b604080519687526020870195909552938501929092526060840152608083015260a082015260c001610567565b34801561120257600080fd5b50611240611211366004614e7d565b601d60205260009081526040902080546001820154600283015460038401546004909401549293919290919085565b604080519586526020860194909452928401919091526060830152608082015260a001610567565b34801561127457600080fd5b5061070f60125481565b34801561128a57600080fd5b50610539611299366004614e7d565b6140a5565b3480156112aa57600080fd5b506106846112b9366004614f4d565b614567565b3480156112ca57600080fd5b5061070f6112d9366004614fb9565b61462a565b3480156112ea57600080fd5b5061070f6112f9366004614ec4565b614646565b6001600160a01b0381166000908152601b6020908152604091829020825161010081018452815481526001820154928101929092526002810154928201929092526003820154606082015260048201546080820152600582015460a0820152600682015460c0820181905260079092015460e0820152904210156113c95760405162461bcd60e51b815260206004820152600f60248201527f6e6f74206465706f73697454696d65000000000000000000000000000000000060448201526064015b60405180910390fd5b8060e00151421061141c5760405162461bcd60e51b815260206004820152600f60248201527f656e64206465706f73697454696d65000000000000000000000000000000000060448201526064016113c0565b6001600160a01b0382166000818152602080805260408083203384528252808320938352601e9091529020815460ff1661152c576001600160a01b038416600090815260176020908152604082208054600181810183559184529190922001805473ffffffffffffffffffffffffffffffffffffffff191633179055825460ff19168117835560048201546114b091615046565b60048201556001600160a01b0384166000908152601f6020908152604080832033845282528083208151608081018352815460ff808216151583526101009091041693810193909352600181015491830182905260020154606083015290910361152a576002820154611524906001615046565b60028301555b505b34826001015461153c9190615046565b60018301556001600160a01b038416600090815260156020526040902054611565903490615046565b60156000866001600160a01b03166001600160a01b03168152602001908152602001600020819055506115d76040518060400160405280601481526020017f6d73672e73656e6465722e62616c616e6365203a000000000000000000000000815250336001600160a01b0316316146e7565b6116166040518060400160405280600c81526020017f6d73672e73656e646572203a00000000000000000000000000000000000000008152503361472c565b6116556040518060400160405280600b81526020017f6d73672e76616c7565203a000000000000000000000000000000000000000000815250346146e7565b604080516001600160a01b038616815234602082015233917f8752a472e571a816aea92eec8dae9baf628e840f4929fbcc2d155e6233ff68a791015b60405180910390a250505050565b60006001600160e01b03198216637965db0b60e01b14806116d057506301ffc9a760e01b6001600160e01b03198316145b92915050565b6001600160a01b0383166000908152601d60209081526040808320815160a08101835281548152600182015493810193909352600281015491830182905260038101546060840152600401546080830152829182914210156117435760008060009350935093505061192e565b805185111561175d5760008060009350935093505061192e565b6001600160a01b038088166000908152602160209081526040808320938a1683529281528282208351608081018552815460ff16151581526001820154928101929092526002810154938201939093526003909201546060830152806117c38a8a614567565b9250925050816000036117e45760008060009650965096505050505061192e565b818360200151106118035760008060009650965096505050505061192e565b600061180e8b613b76565b90506000818660000151148015611823575089155b156118495760208501516118379085615059565b985092965090945061192e9350505050565b896000036118d95781600003611869579750919550935061192e92505050565b61271086602001518561187c919061506c565b6118869190615099565b6020860151909150611899600184615059565b87516118a790600190615059565b6118b18488615059565b6118bb9190615099565b6118c5919061506c565b6118cf9083615046565b6118379190615059565b896001036118fe576127108660200151856118f4919061506c565b6118379190615099565b612710866020015185611911919061506c565b61191b9190615099565b602086015190915061189960018c615059565b93509350939050565b6001600160a01b038116600090815260156020526040812054819061195d908490613fd5565b9050600061196a84613d24565b90508082101561197b575092915050565b9392505050565b61198b336123e4565b6119e25760405162461bcd60e51b815260206004820152602260248201527f41636365737369626c653a2043616c6c6572206973206e6f7420616e2061646d60448201526134b760f11b60648201526084016113c0565b611a0c7fdf8b4c520ffe197c5343c6f5aec59570151ef9a492f2c624fd45ddde6135ec4282612e3c565b50565b6009546000906001600160a01b031680611a505760405162461bcd60e51b81526020600482015260026024820152612d1960f11b60448201526064016113c0565b6001600160a01b03841660009081526022602090815260408083206001845290915281205490819003611aaa5760405162461bcd60e51b81526020600482015260026024820152615a3160f01b60448201526064016113c0565b6001600160a01b03851660009081526022602090815260408083206002845290915281205490819003611b045760405162461bcd60e51b81526020600482015260026024820152615a3160f01b60448201526064016113c0565b6001600160a01b03861660009081526022602090815260408083206003845290915281205490819003611b5e5760405162461bcd60e51b81526020600482015260026024820152615a3160f01b60448201526064016113c0565b6001600160a01b03871660009081526022602090815260408083206004845290915281205490819003611bb85760405162461bcd60e51b81526020600482015260026024820152615a3160f01b60448201526064016113c0565b6001600160a01b038881166000908152601b60209081526040808320815161010081018352815481526001820154938101849052600282015481840152600382015460608201526004808301546080830152600583015460a0830152600683015460c083015260079092015460e0820152600954925163277166bf60e11b81528d871692810192909252602482019390935291931690634ee2cd7e90604401602060405180830381865afa158015611c74573d6000803e3d6000fd5b505050506040513d601f19601f82011682018060405250810190611c9891906150ad565b6001600160a01b038b16600090815260226020908152604080832060018452909152812054919250908210801590611cf357506001600160a01b038b1660009081526022602090815260408083206002845290915290205482105b15611d0057506001611e2b565b6001600160a01b038b166000908152602260209081526040808320600284529091529020548210801590611d5757506001600160a01b038b1660009081526022602090815260408083206003845290915290205482105b15611d6457506002611e2b565b6001600160a01b038b166000908152602260209081526040808320600384529091529020548210801590611dbb57506001600160a01b038b1660009081526022602090815260408083206004845290915290205482105b15611dc857506003611e2b565b6001600160a01b038b166000908152602260209081526040808320600484529091529020548210611dfb57506004611e2b565b6001600160a01b038b16600090815260226020908152604080832060018452909152902054821015611e2b575060005b9a9950505050505050505050565b6001600160a01b0381166000908152601d6020908152604091829020825160a0810184528154815260018201549281019290925260028101549282018390526003810154606083015260040154608082015290421015611edb5760405162461bcd60e51b815260206004820152600d60248201527f6e6f7420636c61696d54696d650000000000000000000000000000000000000060448201526064016113c0565b6001600160a01b0382166000818152602080805260408083203380855290835281842094845260218352818420908452909152812090611f1a85612424565b90508060000361202b57815460ff161515600103611f7a5760405162461bcd60e51b815260206004820152601160248201527f616c726561647920676574526566756e6400000000000000000000000000000060448201526064016113c0565b6001600160a01b0385166000908152601f60209081526040808320338452909152812060018086015490820154919291611fb49190615046565b845460ff1916600117855560028501819055600b54909150611fe0906001600160a01b03163383614771565b604080516001600160a01b03891681526020810183905233917fec1e5ed733e00f1a00915d56caef57b4f52312dde4f9b3165f213319a0da156b910160405180910390a250506123dd565b600080600061203c883360006116d6565b925092509250600082116120925760405162461bcd60e51b815260206004820152601260248201527f6e6f20707572636861736520616d6f756e74000000000000000000000000000060448201526064016113c0565b600083116120ce5760405162461bcd60e51b81526020600482015260096024820152681b9bc81c995dd85c9960ba1b60448201526064016113c0565b828560010154836120df9190615059565b101561212d5760405162461bcd60e51b815260206004820152601460248201527f616c726561647920676574416c6c72657761726400000000000000000000000060448201526064016113c0565b6040516370a0823160e01b815230600482015283906001600160a01b038a16906370a0823190602401602060405180830381865afa158015612173573d6000803e3d6000fd5b505050506040513d601f19601f8201168201806040525081019061219791906150ad565b10156121e55760405162461bcd60e51b815260206004820152601360248201527f646f6e7420686176652073616c65546f6b656e0000000000000000000000000060448201526064016113c0565b8285600101546121f59190615046565b600186015561220e6001600160a01b0389163385614771565b6001600160a01b0388166000908152601e60205260409020855460ff161580156122395750865460ff165b1561225f57600581015461224e906001615046565b6005820155855460ff191660011786555b60008211801561227157506002860154155b1561239457600b546040516370a0823160e01b81523060048201526001600160a01b03909116906370a0823190602401602060405180830381865afa1580156122be573d6000803e3d6000fd5b505050506040513d601f19601f820116820180604052508101906122e291906150ad565b8211156123315760405162461bcd60e51b815260206004820152601460248201527f646f6e74206861766520726566756e6420746f6e00000000000000000000000060448201526064016113c0565b60028601829055600b5461234f906001600160a01b03163384614771565b604080516001600160a01b038b1681526020810184905233917fec1e5ed733e00f1a00915d56caef57b4f52312dde4f9b3165f213319a0da156b910160405180910390a25b604080516001600160a01b038b1681526020810186905233917ff7a40077ff7a04c7e61f6f26fb13774259ddf1b6bce9ecf26a8276cdd3992683910160405180910390a2505050505b5050505050565b6001600160a01b03811660009081527f2fb794d17134dfdec181ddbac1babb5ab1eb140204ef4d982f294e7fc8b69022602052604081205460ff166116d0565b6001600160a01b0381166000818152601e60209081526040808320815160c0808201845282548252600180840154838701526002808501548487015260038086015460608087019190915260048088015460808089019190915260059889015460a0808a01919091529c8c52601c8b52898c208a5161014081018c5281548152968101549b87019b909b528a8501549986019990995291890154908401528701549582019590955292850154968301969096526006840154958201959095526007909201549081900b60e083015260ff6301000000820481161515610100840152640100000000909104161515610120820152909190826125248561259e565b83602001516125339190615046565b90506000826080015182106125685760648360a0015183612554919061506c565b61255e9190615099565b9695505050505050565b50600095945050505050565b60008281526004602052604090206001015461258f81614885565b612599838361488f565b505050565b6001600160a01b03811660009081526015602052604081205481906125c4908490613fd5565b905060006125d184613d24565b9050808210156125f9575050506001600160a01b031660009081526015602052604090205490565b61260384826132dc565b949350505050565b80806000036126415760405162461bcd60e51b81526020600482015260026024820152615a3160f01b60448201526064016113c0565b6001600160a01b0383166000818152601b60209081526040808320815161010081018352815481526001820154818501526002820154818401526003820154606082015260048201546080820152600582015460a0820152600682015460c082015260079091015460e08201908152948452601c9092529091209151909190421161270e5760405162461bcd60e51b815260206004820152601b60248201527f6e65656420746f20656e6420746865206465706f73697454696d65000000000060448201526064016113c0565b600061271986612424565b90506000811161276b5760405162461bcd60e51b815260206004820152601660248201527f646f6e277420706173732074686520686172644361700000000000000000000060448201526064016113c0565b60078201546301000000900460ff1615156000036127e457848110156127c35760405162461bcd60e51b815260206004820152600d60248201526c30b6b7bab73a24b71037bb32b960991b60448201526064016113c0565b6006820181905560078201805463ff00000019166301000000179055612828565b84826006015410156128285760405162461bcd60e51b815260206004820152600d60248201526c30b6b7bab73a24b71037bb32b960991b60448201526064016113c0565b600b54600a546040516307f43c1960e31b81526001600160a01b0392831660048201529116602482015260009073__$86989bec654fe21c5325a7b16e11ff34c5$__90633fa1e0c890604401602060405180830381865af4158015612891573d6000803e3d6000fd5b505050506040513d601f19601f820116820180604052508101906128b591906150c6565b9050600080826001600160a01b0316633850c7bd6040518163ffffffff1660e01b815260040160e060405180830381865afa1580156128f8573d6000803e3d6000fd5b505050506040513d601f19601f8201168201806040525081019061291c919061511c565b5050505050915091506000826001600160a01b03161161297e5760405162461bcd60e51b815260206004820152601060248201527f706f6f6c206e6f7420696e697469616c0000000000000000000000000000000060448201526064016113c0565b600061298b846078614931565b6040517fff9ceebd000000000000000000000000000000000000000000000000000000008152600282810b6004830152603c6024830152604482015290915073__$86989bec654fe21c5325a7b16e11ff34c5$__9063ff9ceebd90606401602060405180830381865af4158015612a06573d6000803e3d6000fd5b505050506040513d601f19601f82011682018060405250810190612a2a91906151a6565b60020b8260020b12612a7e5760405162461bcd60e51b815260206004820152601860248201527f6f766572206368616e676564207469636b2072616e67652e000000000000000060448201526064016113c0565b600b54600a546007880154604051633e1644f160e11b8152600481018d90526001600160a01b038881166024830152938416604482015292909116606483015260020b6084820152600090819073__$86989bec654fe21c5325a7b16e11ff34c5$__90637c2c89e29060a401606060405180830381865af4158015612b07573d6000803e3d6000fd5b505050506040513d601f19601f82011682018060405250810190612b2b91906151c1565b92505091506000600560009054906101000a90046001600160a01b03166001600160a01b0316600b60009054906101000a90046001600160a01b0316600a60009054906101000a90046001600160a01b0316610bb88f6000604051602401612bcb9594939291906001600160a01b03958616815293909416602084015262ffffff919091166040830152606082015260ff91909116608082015260a00190565b60408051601f198184030181529181526020820180516001600160e01b031663f7729d4360e01b17905251612c009190615213565b6000604051808303816000865af19150503d8060008114612c3d576040519150601f19603f3d011682016040523d82523d6000602084013e612c42565b606091505b509150506000612c5182614af0565b90506103e8612c62826103e361506c565b612c6c9190615099565b905083811015612cbe5760405162461bcd60e51b815260206004820152601060248201527f7072696365496d70616374206f7665720000000000000000000000000000000060448201526064016113c0565b60068a01548e908e90612cd2908290615059565b60068d01556040805161010081018252600b546001600160a01b039081168252600a54811660208301908152610bb8838501908152600754831660608501908152426080860190815260a0860188815260c087018b81528d871660e08901908152600854995163414bf38960e01b8152895189166004820152965188166024880152945162ffffff166044870152925186166064860152905160848501525160a48401525160c483015251821660e4820152919260009291169063414bf38990610104016020604051808303816000875af1158015612db5573d6000803e3d6000fd5b505050506040513d601f19601f82011682018060405250810190612dd991906150ad565b604080516001600160a01b03871681526020810186905290810182905290915033907f34c21668d9e0d31d289d483bfe1b46a335340504801ea7feebfbb347bc4fe5679060600160405180910390a2505050505050505050505050505050505050565b6001600160a01b0381163314612eba5760405162461bcd60e51b815260206004820152602f60248201527f416363657373436f6e74726f6c3a2063616e206f6e6c792072656e6f756e636560448201527f20726f6c657320666f722073656c66000000000000000000000000000000000060648201526084016113c0565b612ec48282614b94565b5050565b60176020528160005260406000208181548110612ee457600080fd5b6000918252602090912001546001600160a01b03169150829050565b600080612f0d8484611a0f565b9050600060ff821615612f5857815b60ff811615612f4e57612f30868683613958565b612f3a9083615046565b915080612f468161522f565b915050612f1c565b5091506116d09050565b506000949350505050565b60186020528160005260406000208181548110612ee457600080fd5b6001600160a01b0381166000908152601b60209081526040918290208251610100810184528154815260018201549281019290925260028101549282019290925260038201546060820152600482015460808201819052600583015460a0830152600683015460c083015260079092015460e0820152904210156130455760405162461bcd60e51b815260206004820152601260248201527f6e6f7420726f756e643153616c6554696d65000000000000000000000000000060448201526064016113c0565b8060a0015142106130985760405162461bcd60e51b815260206004820152601260248201527f656e6420726f756e643153616c6554696d65000000000000000000000000000060448201526064016113c0565b6001600160a01b0382166000908152601f602090815260408083203384529091529020805460ff1615156001146131115760405162461bcd60e51b815260206004820152600c60248201527f6e6f2077686974656c697374000000000000000000000000000000000000000060448201526064016113c0565b600061311d8433611a0f565b9050600061312b8534613fd5565b905060006131398633612f00565b905081846002015461314b9190615046565b81101561319a5760405162461bcd60e51b815260206004820152600e60248201527f646f6e2774206f7665722062757900000000000000000000000000000000000060448201526064016113c0565b6001600160a01b0386166000908152601e6020526040812060018601549091036132425760038101546131ce906001615046565b600382015560028101546131e3906001615046565b60028201556001600160a01b038716600090815260266020908152604080832060ff8816845290915290205461321a906001615046565b6001600160a01b038816600090815260266020908152604080832060ff891684529091529020555b3485600101546132529190615046565b60018601556002850154613267908490615046565b6002860155600181015461327c903490615046565b6001820155805461328e908490615046565b8155604080516001600160a01b038916815234602082015233917f9840f3ca16eed984a6ad48d36928a9cfb427c7f90a8d37e017b3385a747aa294910160405180910390a250505050505050565b6001600160a01b0382166000908152601c602090815260408083208151610140810183528154815260018201549381019390935260028082015492840183905260038201546060850181905260048301546080860152600583015460a0860152600683015460c08601526007909201549081900b60e085015260ff63010000008204811615156101008601526401000000009091041615156101208401528391613386908661506c565b6133909190615099565b95945050505050565b6001600160a01b0381166000908152601c602052604090206007810154640100000000900460ff1615156001148015906133e3575060078101546301000000900460ff1615156001145b61342f5760405162461bcd60e51b815260206004820152601a60248201527f6e656564207468652065786368616e676557544f4e746f544f5300000000000060448201526064016113c0565b6001600160a01b0382166000908152601e602052604081209061345184612424565b905060008161345f8661259e565b846001015461346e9190615046565b6134789190615059565b600b546040516370a0823160e01b81523060048201529192506001600160a01b0316906370a0823190602401602060405180830381865afa1580156134c1573d6000803e3d6000fd5b505050506040513d601f19601f820116820180604052508101906134e591906150ad565b8111156135345760405162461bcd60e51b815260206004820152600d60248201527f686176656e277420746f6b656e0000000000000000000000000000000000000060448201526064016113c0565b60078401805464ff000000001916640100000000179055825460009061355987611937565b6001870154875461356a9190615046565b6135749190615059565b61357e9190615059565b9050801561361757600d54600e54604051631474f2a960e31b81526001600160a01b0389811660048301529182166024820152604481018490526000606482015260a06084820152600260a482015261060f60f31b60c482015291169063a3a795489060e401600060405180830381600087803b1580156135fe57600080fd5b505af1158015613612573d6000803e3d6000fd5b505050505b600b546006546001600160a01b039182169163095ea7b3911661364285678ac7230489e80000615046565b6040516001600160e01b031960e085901b1681526001600160a01b03909216600483015260248201526044016020604051808303816000875af115801561368d573d6000803e3d6000fd5b505050506040513d601f19601f820116820180604052508101906136b1919061524c565b506006546040516315a27c3b60e31b81526001600160a01b038881166004830152602482018590529091169063ad13e1d890604401600060405180830381600087803b15801561370057600080fd5b505af1158015613714573d6000803e3d6000fd5b5050604080516001600160a01b038a168152602081018690529081018690523392507f4c2c0ab6abacae9e08e6f826eee15e2782e65aaa46fa6d77cbaec9c94247aad5915060600160405180910390a2505050505050565b613775336123e4565b6137cc5760405162461bcd60e51b815260206004820152602260248201527f41636365737369626c653a2043616c6c6572206973206e6f7420616e2061646d60448201526134b760f11b60648201526084016113c0565b611a0c7fdf8b4c520ffe197c5343c6f5aec59570151ef9a492f2c624fd45ddde6135ec4282612574565b6137ff336123e4565b6138565760405162461bcd60e51b815260206004820152602260248201527f41636365737369626c653a2043616c6c6572206973206e6f7420616e2061646d60448201526134b760f11b60648201526084016113c0565b6001600160a01b0381166138ac5760405162461bcd60e51b815260206004820152601860248201527f41636365737369626c653a207a65726f2061646472657373000000000000000060448201526064016113c0565b6001600160a01b03811633036139045760405162461bcd60e51b815260206004820152601660248201527f41636365737369626c653a2073616d652061646d696e0000000000000000000060448201526064016113c0565b61392e7fdf8b4c520ffe197c5343c6f5aec59570151ef9a492f2c624fd45ddde6135ec4282612574565b611a0c7fdf8b4c520ffe197c5343c6f5aec59570151ef9a492f2c624fd45ddde6135ec4233612e3c565b6001600160a01b038084166000818152601f602090815260408083209487168352938152838220845160808082018752825460ff8082161515845261010091829004811684870152600180860154858b0152600295860154606080870191909152988852601c87528988208a5161014081018c52815481528183015498810198909852808701549a88019a909a5260038a015498870198909852600489015492860192909252600588015460a0860152600688015460c08601526007909701549283900b60e08501526301000000830481161515968401969096526401000000009091049094161515610120820152835191939290918491901515148015613a63575060008560ff16115b15613ad3576001600160a01b038716600081815260256020908152604080832060ff8a16808552908352818420549484526023835281842090845290915290205483516127109291613ab49161506c565b613abe9190615099565b613ac89190615099565b935061197b92505050565b60ff851615613b69576001600160a01b038716600090815260256020908152604080832060ff89168452909152812054613b0e906001615046565b6001600160a01b038916600090815260236020908152604080832060ff8b1684529091529020548451919250612710918391613b499161506c565b613b539190615099565b613b5d9190615099565b945061197b9350505050565b5060009695505050505050565b6001600160a01b0381166000908152601d60209081526040808320815160a08101835281548152600182015493810193909352600281015491830182905260038101546060840152600401546080830152421015613bd357600091505b42816040015111158015613bea5750806060015142105b15613bf85760019150613c2f565b42816060015111613c2f5760808101516060820151613c179042615059565b613c219190615099565b613c2c906002615046565b91505b8051821115613c3d57805191505b50919050565b6001600160a01b0380831660009081526020808052604080832093851683529281528282208351808501909452805460ff161580158552600190910154918401919091529091829182919080613c9b57506020810151155b15613cb157600080600093509350935050613d1d565b6000613cbf87876000614646565b90506000613ccd88836132dc565b602084015190915060008082841015613cfd57613cea8484615059565b9050613cf68b85613fd5565b9150613d11565b85602001519350613d0e8b84613fd5565b91505b92975095509093505050505b9250925092565b600080601b6000846001600160a01b03166001600160a01b03168152602001908152602001600020604051806101000160405290816000820154815260200160018201548152602001600282015481526020016003820154815260200160048201548152602001600582015481526020016006820154815260200160078201548152505090506000601c6000856001600160a01b03166001600160a01b0316815260200190815260200160002060405180610140016040529081600082015481526020016001820154815260200160028201548152602001600382015481526020016004820154815260200160058201548152602001600682015481526020016007820160009054906101000a900460020b60020b60020b81526020016007820160039054906101000a900460ff161515151581526020016007820160049054906101000a900460ff16151515158152505090508160a00151421015613e8c57519392505050565b613e9584613ea4565b81602001516126039190615046565b6001600160a01b0381166000818152601e60209081526040808320815160c0808201845282548252600180840154838701526002808501548487015260038086015460608087019190915260048088015460808089019190915260059889015460a0808a01919091529c8c52601c8b52898c208a5161014081018c528154808252978201549c81019c909c52808601549a8c019a909a5292890154918a01919091528701549088015293850154978601979097526006840154908501526007909201549081900b60e084015260ff630100000082048116151561010085015264010000000090910416151561012083015280519293909261260391615059565b60196020528160005260406000208181548110613fc057600080fd5b90600052602060002001600091509150505481565b6001600160a01b0382166000908152601c602090815260408083208151610140810183528154815260018201549381019390935260028082015492840183905260038201546060850181905260048301546080860152600583015460a0860152600683015460c08601526007909201549081900b60e085015260ff6301000000820481161515610100860152640100000000909104161515610120840152839190613386908661506c565b60008281526004602052604090206001015461409b81614885565b6125998383614b94565b6001600160a01b0381166000908152601b60209081526040918290208251610100810184528154815260018201549281019290925260028101549282018390526003810154606083015260048101546080830152600581015460a0830152600681015460c08301526007015460e0820152904210156141665760405162461bcd60e51b815260206004820152601160248201527f6e6f742077686974656c69737454696d6500000000000000000000000000000060448201526064016113c0565b806060015142106141b95760405162461bcd60e51b815260206004820152601160248201527f656e642077686974656c69737454696d6500000000000000000000000000000060448201526064016113c0565b60006141c58333611a0f565b905060018160ff16101561421b5760405162461bcd60e51b815260206004820152601160248201527f6e65656420746f206d6f72652073544f5300000000000000000000000000000060448201526064016113c0565b6001600160a01b0383166000908152601f602090815260408083203384529091529020805460ff1615156001036142945760405162461bcd60e51b815260206004820152601060248201527f616c726561647920617474656e6465640000000000000000000000000000000060448201526064016113c0565b6001600160a01b038416600081815260186020908152604080832080546001818101835591855283852001805473ffffffffffffffffffffffffffffffffffffffff191633179055855460ff8816610100810261ffff199092169190911782178755948452602483528184209484529390915290205461431391615046565b6001600160a01b038516600090815260246020908152604080832060ff871680855292529091209190915560040361444e576001600160a01b038416600090815260256020908152604080832060048452909152902054614375906001615046565b6001600160a01b038516600090815260256020908152604080832060048452909152808220929092556003815220546143af906001615046565b6001600160a01b038516600090815260256020908152604080832060038452909152808220929092556002815220546143e9906001615046565b6001600160a01b0385166000908152602560209081526040808320600284529091528082209290925560018082529190205461442491615046565b6001600160a01b038516600090815260256020908152604080832060018452909152902055614524565b8160ff16600303614489576001600160a01b0384166000908152602560209081526040808320600384529091529020546143af906001615046565b8160ff166002036144c4576001600160a01b0384166000908152602560209081526040808320600284529091529020546143e9906001615046565b8160ff16600103614524576001600160a01b038416600090815260256020908152604080832060018085529252909120546144fe91615046565b6001600160a01b0385166000908152602560209081526040808320600184529091529020555b604080516001600160a01b038616815260ff8416602082015233917f80aaf28a2c7f80f586e64ede5c6c3b5433b8c6cf1351b6b51d8ab9febb8b5e7a9101611691565b6001600160a01b038083166000908152601f6020908152604080832093851683529281528282208351608081018552815460ff80821615801584526101009092041693820193909352600182015494810194909452600201546060840152909182918291906146145760008060006145df8989613c43565b9250925092508360400151836145f59190615046565b60608501516146049084615046565b8296509650965050505050613d1d565b61461e8686613c43565b93509350935050613d1d565b601a6020528160005260406000208181548110613fc057600080fd5b6001600160a01b0380841660009081526020808052604080832093861683529281528282208351808501909452805460ff1615158452600101549083018190529091908290614696908590615046565b6001600160a01b038716600090815260156020526040812054919250906146be908690615046565b826146c889613d24565b6146d2919061506c565b6146dc9190615099565b979650505050505050565b612ec482826040516024016146fd929190615293565b60408051601f198184030181529190526020810180516001600160e01b0316632d839cb360e21b179052614c17565b612ec482826040516024016147429291906152b5565b60408051601f198184030181529190526020810180516001600160e01b031663319af33360e01b179052614c17565b604080516001600160a01b038481166024830152604480830185905283518084039091018152606490920183526020820180516001600160e01b031663a9059cbb60e01b17905291516000928392908716916147cd9190615213565b6000604051808303816000865af19150503d806000811461480a576040519150601f19603f3d011682016040523d82523d6000602084013e61480f565b606091505b5091509150818015614839575080511580614839575080806020019051810190614839919061524c565b6123dd5760405162461bcd60e51b815260206004820152600f60248201527f5452414e534645525f4641494c4544000000000000000000000000000000000060448201526064016113c0565b611a0c8133614c38565b60008281526004602090815260408083206001600160a01b038516845290915290205460ff16612ec45760008281526004602090815260408083206001600160a01b03851684529091529020805460ff191660011790556148ed3390565b6001600160a01b0316816001600160a01b0316837f2f8788117e7eff1d82e926ec794901d17c78024a50270940304540a733656f0d60405160405180910390a45050565b60008163ffffffff1660000361496e5760405162461bcd60e51b8152602060048201526002602482015261042560f41b60448201526064016113c0565b60408051600280825260608201835260009260208301908036833701905050905082816000815181106149a3576149a36152f6565b602002602001019063ffffffff16908163ffffffff16815250506000816001815181106149d2576149d26152f6565b63ffffffff9092166020928302919091019091015260405163883bdbfd60e01b81526000906001600160a01b0386169063883bdbfd90614a1690859060040161530c565b600060405180830381865afa158015614a33573d6000803e3d6000fd5b505050506040513d6000823e601f3d908101601f19168201604052614a5b919081019061541f565b509050600081600081518110614a7357614a736152f6565b602002602001015182600181518110614a8e57614a8e6152f6565b6020026020010151614aa091906154eb565b9050614ab0600386900b82615518565b935060008160060b128015614ad45750614ace600386900b82615556565b60060b15155b15614ae75783614ae381615578565b9450505b50505092915050565b60008151602014614b8057604482511015614b4d5760405162461bcd60e51b815260206004820152601060248201527f556e6578706563746564206572726f720000000000000000000000000000000060448201526064016113c0565b60048201915081806020019051810190614b679190615591565b60405162461bcd60e51b81526004016113c09190615625565b818060200190518101906116d091906150ad565b60008281526004602090815260408083206001600160a01b038516845290915290205460ff1615612ec45760008281526004602090815260408083206001600160a01b0385168085529252808320805460ff1916905551339285917ff6391f5c32d9c69d2a47ea670b442974b53935d1edc7fd64eb21e047a839171b9190a45050565b80516a636f6e736f6c652e6c6f67602083016000808483855afa5050505050565b60008281526004602090815260408083206001600160a01b038516845290915290205460ff16612ec457614c6b81614cad565b614c76836020614cbf565b604051602001614c87929190615638565b60408051601f198184030181529082905262461bcd60e51b82526113c091600401615625565b60606116d06001600160a01b03831660145b60606000614cce83600261506c565b614cd9906002615046565b67ffffffffffffffff811115614cf157614cf16152e0565b6040519080825280601f01601f191660200182016040528015614d1b576020820181803683370190505b509050600360fc1b81600081518110614d3657614d366152f6565b60200101906001600160f81b031916908160001a905350600f60fb1b81600181518110614d6557614d656152f6565b60200101906001600160f81b031916908160001a9053506000614d8984600261506c565b614d94906001615046565b90505b6001811115614e19577f303132333435363738396162636465660000000000000000000000000000000085600f1660108110614dd557614dd56152f6565b1a60f81b828281518110614deb57614deb6152f6565b60200101906001600160f81b031916908160001a90535060049490941c93614e12816156b9565b9050614d97565b50831561197b5760405162461bcd60e51b815260206004820181905260248201527f537472696e67733a20686578206c656e67746820696e73756666696369656e7460448201526064016113c0565b6001600160a01b0381168114611a0c57600080fd5b600060208284031215614e8f57600080fd5b813561197b81614e68565b600060208284031215614eac57600080fd5b81356001600160e01b03198116811461197b57600080fd5b600080600060608486031215614ed957600080fd5b8335614ee481614e68565b92506020840135614ef481614e68565b929592945050506040919091013590565b60ff81168114611a0c57600080fd5b60008060408385031215614f2757600080fd5b8235614f3281614e68565b91506020830135614f4281614f05565b809150509250929050565b60008060408385031215614f6057600080fd5b8235614f6b81614e68565b91506020830135614f4281614e68565b600060208284031215614f8d57600080fd5b5035919050565b60008060408385031215614fa757600080fd5b823591506020830135614f4281614e68565b60008060408385031215614fcc57600080fd5b8235614fd781614e68565b946020939093013593505050565b600080600060608486031215614ffa57600080fd5b833561500581614e68565b9250602084013561501581614e68565b9150604084013561502581614f05565b809150509250925092565b634e487b7160e01b600052601160045260246000fd5b808201808211156116d0576116d0615030565b818103818111156116d0576116d0615030565b80820281158282048414176116d0576116d0615030565b634e487b7160e01b600052601260045260246000fd5b6000826150a8576150a8615083565b500490565b6000602082840312156150bf57600080fd5b5051919050565b6000602082840312156150d857600080fd5b815161197b81614e68565b8051600281900b81146150f557600080fd5b919050565b805161ffff811681146150f557600080fd5b805180151581146150f557600080fd5b600080600080600080600060e0888a03121561513757600080fd5b875161514281614e68565b9650615150602089016150e3565b955061515e604089016150fa565b945061516c606089016150fa565b935061517a608089016150fa565b925060a088015161518a81614f05565b915061519860c0890161510c565b905092959891949750929550565b6000602082840312156151b857600080fd5b61197b826150e3565b6000806000606084860312156151d657600080fd5b8351925060208401519150604084015161502581614e68565b60005b8381101561520a5781810151838201526020016151f2565b50506000910152565b600082516152258184602087016151ef565b9190910192915050565b600060ff82168061524257615242615030565b6000190192915050565b60006020828403121561525e57600080fd5b61197b8261510c565b6000815180845261527f8160208601602086016151ef565b601f01601f19169290920160200192915050565b6040815260006152a66040830185615267565b90508260208301529392505050565b6040815260006152c86040830185615267565b90506001600160a01b03831660208301529392505050565b634e487b7160e01b600052604160045260246000fd5b634e487b7160e01b600052603260045260246000fd5b6020808252825182820181905260009190848201906040850190845b8181101561534a57835163ffffffff1683529284019291840191600101615328565b50909695505050505050565b604051601f8201601f1916810167ffffffffffffffff8111828210171561537f5761537f6152e0565b604052919050565b600067ffffffffffffffff8211156153a1576153a16152e0565b5060051b60200190565b600082601f8301126153bc57600080fd5b815160206153d16153cc83615387565b615356565b82815260059290921b840181019181810190868411156153f057600080fd5b8286015b8481101561541457805161540781614e68565b83529183019183016153f4565b509695505050505050565b6000806040838503121561543257600080fd5b825167ffffffffffffffff8082111561544a57600080fd5b818501915085601f83011261545e57600080fd5b8151602061546e6153cc83615387565b82815260059290921b8401810191818101908984111561548d57600080fd5b948201945b838610156154bb5785518060060b81146154ac5760008081fd5b82529482019490820190615492565b918801519196509093505050808211156154d457600080fd5b506154e1858286016153ab565b9150509250929050565b600682810b9082900b03667fffffffffffff198112667fffffffffffff821317156116d0576116d0615030565b60008160060b8360060b8061552f5761552f615083565b667fffffffffffff1982146000198214161561554d5761554d615030565b90059392505050565b60008260060b8061556957615569615083565b808360060b0791505092915050565b60008160020b627fffff19810361524257615242615030565b6000602082840312156155a357600080fd5b815167ffffffffffffffff808211156155bb57600080fd5b818401915084601f8301126155cf57600080fd5b8151818111156155e1576155e16152e0565b6155f4601f8201601f1916602001615356565b915080825285602082850101111561560b57600080fd5b61561c8160208401602086016151ef565b50949350505050565b60208152600061197b6020830184615267565b7f416363657373436f6e74726f6c3a206163636f756e74200000000000000000008152600083516156708160178501602088016151ef565b7f206973206d697373696e6720726f6c652000000000000000000000000000000060179184019182015283516156ad8160288401602088016151ef565b01602801949350505050565b6000816156c8576156c8615030565b50600019019056fea164736f6c6343000812000a",
  "linkReferences": {
    "contracts/libraries/LibPublicSaleVault.sol": {
      "LibPublicSaleVault": [
        {
          "length": 20,
          "start": 10379
        },
        {
          "length": 20,
          "start": 10752
        },
        {
          "length": 20,
          "start": 11009
        }
      ]
    }
  },
  "deployedLinkReferences": {
    "contracts/libraries/LibPublicSaleVault.sol": {
      "LibPublicSaleVault": [
        {
          "length": 20,
          "start": 10327
        },
        {
          "length": 20,
          "start": 10700
        },
        {
          "length": 20,
          "start": 10957
        }
      ]
    }
  }
}