{
  "_format": "hh-sol-artifact-1",
  "contractName": "L2PublicSaleVault",
  "sourceName": "contracts/L2/vaults/L2PublicSaleVault.sol",
  "abi": [
    {
      "anonymous": false,
      "inputs": [
        {
          "indexed": false,
          "internalType": "address",
          "name": "l2Token",
          "type": "address"
        },
        {
          "indexed": true,
          "internalType": "address",
          "name": "from",
          "type": "address"
        },
        {
          "indexed": false,
          "internalType": "uint256",
          "name": "tier",
          "type": "uint256"
        }
      ],
      "name": "AddedWhiteList",
      "type": "event"
    },
    {
      "anonymous": false,
      "inputs": [
        {
          "indexed": false,
          "internalType": "address",
          "name": "l2Token",
          "type": "address"
        },
        {
          "indexed": true,
          "internalType": "address",
          "name": "from",
          "type": "address"
        },
        {
          "indexed": false,
          "internalType": "uint256",
          "name": "amount",
          "type": "uint256"
        }
      ],
      "name": "Claimed",
      "type": "event"
    },
    {
      "anonymous": false,
      "inputs": [
        {
          "indexed": false,
          "internalType": "address",
          "name": "l2Token",
          "type": "address"
        },
        {
          "indexed": true,
          "internalType": "address",
          "name": "from",
          "type": "address"
        },
        {
          "indexed": false,
          "internalType": "uint256",
          "name": "amount",
          "type": "uint256"
        },
        {
          "indexed": false,
          "internalType": "uint256",
          "name": "liquidityAmount",
          "type": "uint256"
        }
      ],
      "name": "DepositWithdrawal",
      "type": "event"
    },
    {
      "anonymous": false,
      "inputs": [
        {
          "indexed": false,
          "internalType": "address",
          "name": "l2Token",
          "type": "address"
        },
        {
          "indexed": true,
          "internalType": "address",
          "name": "from",
          "type": "address"
        },
        {
          "indexed": false,
          "internalType": "uint256",
          "name": "amount",
          "type": "uint256"
        }
      ],
      "name": "Deposited",
      "type": "event"
    },
    {
      "anonymous": false,
      "inputs": [
        {
          "indexed": false,
          "internalType": "address",
          "name": "l2Token",
          "type": "address"
        },
        {
          "indexed": true,
          "internalType": "address",
          "name": "from",
          "type": "address"
        },
        {
          "indexed": false,
          "internalType": "uint256",
          "name": "amountIn",
          "type": "uint256"
        },
        {
          "indexed": false,
          "internalType": "uint256",
          "name": "amountOut",
          "type": "uint256"
        }
      ],
      "name": "ExchangeSwap",
      "type": "event"
    },
    {
      "anonymous": false,
      "inputs": [
        {
          "indexed": false,
          "internalType": "address",
          "name": "l2Token",
          "type": "address"
        },
        {
          "indexed": true,
          "internalType": "address",
          "name": "from",
          "type": "address"
        },
        {
          "indexed": false,
          "internalType": "uint256",
          "name": "amount",
          "type": "uint256"
        }
      ],
      "name": "ExclusiveSaled",
      "type": "event"
    },
    {
      "anonymous": false,
      "inputs": [
        {
          "indexed": false,
          "internalType": "address",
          "name": "l2Token",
          "type": "address"
        },
        {
          "indexed": true,
          "internalType": "address",
          "name": "from",
          "type": "address"
        },
        {
          "indexed": false,
          "internalType": "uint256",
          "name": "amount",
          "type": "uint256"
        }
      ],
      "name": "Refunded",
      "type": "event"
    },
    {
      "anonymous": false,
      "inputs": [
        {
          "indexed": true,
          "internalType": "bytes32",
          "name": "role",
          "type": "bytes32"
        },
        {
          "indexed": true,
          "internalType": "bytes32",
          "name": "previousAdminRole",
          "type": "bytes32"
        },
        {
          "indexed": true,
          "internalType": "bytes32",
          "name": "newAdminRole",
          "type": "bytes32"
        }
      ],
      "name": "RoleAdminChanged",
      "type": "event"
    },
    {
      "anonymous": false,
      "inputs": [
        {
          "indexed": true,
          "internalType": "bytes32",
          "name": "role",
          "type": "bytes32"
        },
        {
          "indexed": true,
          "internalType": "address",
          "name": "account",
          "type": "address"
        },
        {
          "indexed": true,
          "internalType": "address",
          "name": "sender",
          "type": "address"
        }
      ],
      "name": "RoleGranted",
      "type": "event"
    },
    {
      "anonymous": false,
      "inputs": [
        {
          "indexed": true,
          "internalType": "bytes32",
          "name": "role",
          "type": "bytes32"
        },
        {
          "indexed": true,
          "internalType": "address",
          "name": "account",
          "type": "address"
        },
        {
          "indexed": true,
          "internalType": "address",
          "name": "sender",
          "type": "address"
        }
      ],
      "name": "RoleRevoked",
      "type": "event"
    },
    {
      "anonymous": false,
      "inputs": [
        {
          "indexed": false,
          "internalType": "address",
          "name": "newInitializer",
          "type": "address"
        }
      ],
      "name": "SetInitializer",
      "type": "event"
    },
    {
      "anonymous": false,
      "inputs": [
        {
          "indexed": false,
          "internalType": "address",
          "name": "l2Token",
          "type": "address"
        },
        {
          "indexed": false,
          "internalType": "address",
          "name": "newAdmin",
          "type": "address"
        }
      ],
      "name": "SetVaultAdmin",
      "type": "event"
    },
    {
      "inputs": [],
      "name": "ADMIN_ROLE",
      "outputs": [
        {
          "internalType": "bytes32",
          "name": "",
          "type": "bytes32"
        }
      ],
      "stateMutability": "view",
      "type": "function"
    },
    {
      "inputs": [],
      "name": "DEFAULT_ADMIN_ROLE",
      "outputs": [
        {
          "internalType": "bytes32",
          "name": "",
          "type": "bytes32"
        }
      ],
      "stateMutability": "view",
      "type": "function"
    },
    {
      "inputs": [],
      "name": "POLICY_ROLE",
      "outputs": [
        {
          "internalType": "bytes32",
          "name": "",
          "type": "bytes32"
        }
      ],
      "stateMutability": "view",
      "type": "function"
    },
    {
      "inputs": [
        {
          "internalType": "address",
          "name": "account",
          "type": "address"
        }
      ],
      "name": "addAdmin",
      "outputs": [],
      "stateMutability": "nonpayable",
      "type": "function"
    },
    {
      "inputs": [
        {
          "internalType": "address",
          "name": "_l2token",
          "type": "address"
        }
      ],
      "name": "addWhiteList",
      "outputs": [],
      "stateMutability": "nonpayable",
      "type": "function"
    },
    {
      "inputs": [
        {
          "internalType": "address",
          "name": "",
          "type": "address"
        }
      ],
      "name": "aliveImplementation",
      "outputs": [
        {
          "internalType": "bool",
          "name": "",
          "type": "bool"
        }
      ],
      "stateMutability": "view",
      "type": "function"
    },
    {
      "inputs": [
        {
          "internalType": "address",
          "name": "_l2token",
          "type": "address"
        },
        {
          "internalType": "address",
          "name": "_account",
          "type": "address"
        }
      ],
      "name": "calcul1RoundAmount",
      "outputs": [
        {
          "internalType": "uint256",
          "name": "",
          "type": "uint256"
        }
      ],
      "stateMutability": "view",
      "type": "function"
    },
    {
      "inputs": [
        {
          "internalType": "address",
          "name": "_l2token",
          "type": "address"
        },
        {
          "internalType": "address",
          "name": "_account",
          "type": "address"
        },
        {
          "internalType": "uint256",
          "name": "_round",
          "type": "uint256"
        }
      ],
      "name": "calculClaimAmount",
      "outputs": [
        {
          "internalType": "uint256",
          "name": "_reward",
          "type": "uint256"
        },
        {
          "internalType": "uint256",
          "name": "_totalClaim",
          "type": "uint256"
        },
        {
          "internalType": "uint256",
          "name": "_refundAmount",
          "type": "uint256"
        }
      ],
      "stateMutability": "view",
      "type": "function"
    },
    {
      "inputs": [
        {
          "internalType": "address",
          "name": "_l2token",
          "type": "address"
        },
        {
          "internalType": "address",
          "name": "_account",
          "type": "address"
        },
        {
          "internalType": "uint256",
          "name": "_amount",
          "type": "uint256"
        }
      ],
      "name": "calculOpenSaleAmount",
      "outputs": [
        {
          "internalType": "uint256",
          "name": "",
          "type": "uint256"
        }
      ],
      "stateMutability": "view",
      "type": "function"
    },
    {
      "inputs": [
        {
          "internalType": "address",
          "name": "_l2token",
          "type": "address"
        },
        {
          "internalType": "uint256",
          "name": "_amount",
          "type": "uint256"
        }
      ],
      "name": "calculPayToken",
      "outputs": [
        {
          "internalType": "uint256",
          "name": "",
          "type": "uint256"
        }
      ],
      "stateMutability": "view",
      "type": "function"
    },
    {
      "inputs": [
        {
          "internalType": "address",
          "name": "_l2token",
          "type": "address"
        },
        {
          "internalType": "uint256",
          "name": "_amount",
          "type": "uint256"
        }
      ],
      "name": "calculSaleToken",
      "outputs": [
        {
          "internalType": "uint256",
          "name": "",
          "type": "uint256"
        }
      ],
      "stateMutability": "view",
      "type": "function"
    },
    {
      "inputs": [
        {
          "internalType": "address",
          "name": "_l2token",
          "type": "address"
        },
        {
          "internalType": "address",
          "name": "_account",
          "type": "address"
        }
      ],
      "name": "calculTier",
      "outputs": [
        {
          "internalType": "uint8",
          "name": "",
          "type": "uint8"
        }
      ],
      "stateMutability": "view",
      "type": "function"
    },
    {
      "inputs": [
        {
          "internalType": "address",
          "name": "_l2token",
          "type": "address"
        },
        {
          "internalType": "address",
          "name": "_account",
          "type": "address"
        },
        {
          "internalType": "uint8",
          "name": "tier",
          "type": "uint8"
        }
      ],
      "name": "calculTierAmount",
      "outputs": [
        {
          "internalType": "uint256",
          "name": "",
          "type": "uint256"
        }
      ],
      "stateMutability": "view",
      "type": "function"
    },
    {
      "inputs": [],
      "name": "changeTick",
      "outputs": [
        {
          "internalType": "int24",
          "name": "",
          "type": "int24"
        }
      ],
      "stateMutability": "view",
      "type": "function"
    },
    {
      "inputs": [
        {
          "internalType": "address",
          "name": "_l2token",
          "type": "address"
        }
      ],
      "name": "claim",
      "outputs": [],
      "stateMutability": "nonpayable",
      "type": "function"
    },
    {
      "inputs": [
        {
          "internalType": "address",
          "name": "",
          "type": "address"
        }
      ],
      "name": "claimInfo",
      "outputs": [
        {
          "internalType": "uint256",
          "name": "totalClaimCounts",
          "type": "uint256"
        },
        {
          "internalType": "uint256",
          "name": "firstClaimPercent",
          "type": "uint256"
        },
        {
          "internalType": "uint256",
          "name": "firstClaimTime",
          "type": "uint256"
        },
        {
          "internalType": "uint256",
          "name": "secondClaimTime",
          "type": "uint256"
        },
        {
          "internalType": "uint256",
          "name": "claimInterval",
          "type": "uint256"
        }
      ],
      "stateMutability": "view",
      "type": "function"
    },
    {
      "inputs": [
        {
          "internalType": "address",
          "name": "",
          "type": "address"
        },
        {
          "internalType": "uint256",
          "name": "",
          "type": "uint256"
        }
      ],
      "name": "claimPercents",
      "outputs": [
        {
          "internalType": "uint256",
          "name": "",
          "type": "uint256"
        }
      ],
      "stateMutability": "view",
      "type": "function"
    },
    {
      "inputs": [
        {
          "internalType": "address",
          "name": "",
          "type": "address"
        },
        {
          "internalType": "uint256",
          "name": "",
          "type": "uint256"
        }
      ],
      "name": "claimTimes",
      "outputs": [
        {
          "internalType": "uint256",
          "name": "",
          "type": "uint256"
        }
      ],
      "stateMutability": "view",
      "type": "function"
    },
    {
      "inputs": [
        {
          "internalType": "address",
          "name": "_l2token",
          "type": "address"
        }
      ],
      "name": "currentRound",
      "outputs": [
        {
          "internalType": "uint256",
          "name": "round",
          "type": "uint256"
        }
      ],
      "stateMutability": "view",
      "type": "function"
    },
    {
      "inputs": [],
      "name": "delayTime",
      "outputs": [
        {
          "internalType": "uint256",
          "name": "",
          "type": "uint256"
        }
      ],
      "stateMutability": "view",
      "type": "function"
    },
    {
      "inputs": [
        {
          "internalType": "address",
          "name": "_l2token",
          "type": "address"
        }
      ],
      "name": "depositWithdraw",
      "outputs": [],
      "stateMutability": "payable",
      "type": "function"
    },
    {
      "inputs": [
        {
          "internalType": "address",
          "name": "",
          "type": "address"
        },
        {
          "internalType": "uint256",
          "name": "",
          "type": "uint256"
        }
      ],
      "name": "depositors",
      "outputs": [
        {
          "internalType": "address",
          "name": "",
          "type": "address"
        }
      ],
      "stateMutability": "view",
      "type": "function"
    },
    {
      "inputs": [
        {
          "internalType": "address",
          "name": "_l2token",
          "type": "address"
        },
        {
          "internalType": "uint256",
          "name": "amountIn",
          "type": "uint256"
        }
      ],
      "name": "exchangeWTONtoTOS",
      "outputs": [],
      "stateMutability": "payable",
      "type": "function"
    },
    {
      "inputs": [
        {
          "internalType": "bytes32",
          "name": "role",
          "type": "bytes32"
        }
      ],
      "name": "getRoleAdmin",
      "outputs": [
        {
          "internalType": "bytes32",
          "name": "",
          "type": "bytes32"
        }
      ],
      "stateMutability": "view",
      "type": "function"
    },
    {
      "inputs": [
        {
          "internalType": "bytes32",
          "name": "role",
          "type": "bytes32"
        },
        {
          "internalType": "address",
          "name": "account",
          "type": "address"
        }
      ],
      "name": "grantRole",
      "outputs": [],
      "stateMutability": "nonpayable",
      "type": "function"
    },
    {
      "inputs": [
        {
          "internalType": "address",
          "name": "_l2token",
          "type": "address"
        }
      ],
      "name": "hardcapCalcul",
      "outputs": [
        {
          "internalType": "uint256",
          "name": "",
          "type": "uint256"
        }
      ],
      "stateMutability": "view",
      "type": "function"
    },
    {
      "inputs": [
        {
          "internalType": "bytes32",
          "name": "role",
          "type": "bytes32"
        },
        {
          "internalType": "address",
          "name": "account",
          "type": "address"
        }
      ],
      "name": "hasRole",
      "outputs": [
        {
          "internalType": "bool",
          "name": "",
          "type": "bool"
        }
      ],
      "stateMutability": "view",
      "type": "function"
    },
    {
      "inputs": [
        {
          "internalType": "address",
          "name": "account",
          "type": "address"
        }
      ],
      "name": "isAdmin",
      "outputs": [
        {
          "internalType": "bool",
          "name": "",
          "type": "bool"
        }
      ],
      "stateMutability": "view",
      "type": "function"
    },
    {
      "inputs": [],
      "name": "l1burnVault",
      "outputs": [
        {
          "internalType": "address",
          "name": "",
          "type": "address"
        }
      ],
      "stateMutability": "view",
      "type": "function"
    },
    {
      "inputs": [],
      "name": "l2Bridge",
      "outputs": [
        {
          "internalType": "address",
          "name": "",
          "type": "address"
        }
      ],
      "stateMutability": "view",
      "type": "function"
    },
    {
      "inputs": [],
      "name": "l2ProjectManager",
      "outputs": [
        {
          "internalType": "address",
          "name": "",
          "type": "address"
        }
      ],
      "stateMutability": "view",
      "type": "function"
    },
    {
      "inputs": [],
      "name": "liquidityVault",
      "outputs": [
        {
          "internalType": "address",
          "name": "",
          "type": "address"
        }
      ],
      "stateMutability": "view",
      "type": "function"
    },
    {
      "inputs": [],
      "name": "lockTOS",
      "outputs": [
        {
          "internalType": "address",
          "name": "",
          "type": "address"
        }
      ],
      "stateMutability": "view",
      "type": "function"
    },
    {
      "inputs": [
        {
          "internalType": "address",
          "name": "",
          "type": "address"
        }
      ],
      "name": "manageInfo",
      "outputs": [
        {
          "internalType": "uint256",
          "name": "set1rdTokenAmount",
          "type": "uint256"
        },
        {
          "internalType": "uint256",
          "name": "set2rdTokenAmount",
          "type": "uint256"
        },
        {
          "internalType": "uint256",
          "name": "saleTokenPrice",
          "type": "uint256"
        },
        {
          "internalType": "uint256",
          "name": "tonPrice",
          "type": "uint256"
        },
        {
          "internalType": "uint256",
          "name": "hardCap",
          "type": "uint256"
        },
        {
          "internalType": "uint256",
          "name": "changeTOS",
          "type": "uint256"
        },
        {
          "internalType": "uint256",
          "name": "remainTON",
          "type": "uint256"
        },
        {
          "internalType": "int24",
          "name": "changeTick",
          "type": "int24"
        },
        {
          "internalType": "bool",
          "name": "exchangeTOS",
          "type": "bool"
        },
        {
          "internalType": "bool",
          "name": "adminWithdraw",
          "type": "bool"
        }
      ],
      "stateMutability": "view",
      "type": "function"
    },
    {
      "inputs": [],
      "name": "maxPer",
      "outputs": [
        {
          "internalType": "uint8",
          "name": "",
          "type": "uint8"
        }
      ],
      "stateMutability": "view",
      "type": "function"
    },
    {
      "inputs": [],
      "name": "minPer",
      "outputs": [
        {
          "internalType": "uint8",
          "name": "",
          "type": "uint8"
        }
      ],
      "stateMutability": "view",
      "type": "function"
    },
    {
      "inputs": [
        {
          "internalType": "address",
          "name": "_l2token",
          "type": "address"
        },
        {
          "internalType": "address",
          "name": "user",
          "type": "address"
        }
      ],
      "name": "openSaleUserAmount",
      "outputs": [
        {
          "internalType": "uint256",
          "name": "_realPayAmount",
          "type": "uint256"
        },
        {
          "internalType": "uint256",
          "name": "_realSaleAmount",
          "type": "uint256"
        },
        {
          "internalType": "uint256",
          "name": "_refundAmount",
          "type": "uint256"
        }
      ],
      "stateMutability": "view",
      "type": "function"
    },
    {
      "inputs": [],
      "name": "pauseProxy",
      "outputs": [
        {
          "internalType": "bool",
          "name": "",
          "type": "bool"
        }
      ],
      "stateMutability": "view",
      "type": "function"
    },
    {
      "inputs": [],
      "name": "poolFee",
      "outputs": [
        {
          "internalType": "uint24",
          "name": "",
          "type": "uint24"
        }
      ],
      "stateMutability": "view",
      "type": "function"
    },
    {
      "inputs": [
        {
          "internalType": "uint256",
          "name": "",
          "type": "uint256"
        }
      ],
      "name": "proxyImplementation",
      "outputs": [
        {
          "internalType": "address",
          "name": "",
          "type": "address"
        }
      ],
      "stateMutability": "view",
      "type": "function"
    },
    {
      "inputs": [],
      "name": "quoter",
      "outputs": [
        {
          "internalType": "address",
          "name": "",
          "type": "address"
        }
      ],
      "stateMutability": "view",
      "type": "function"
    },
    {
      "inputs": [
        {
          "internalType": "address",
          "name": "account",
          "type": "address"
        }
      ],
      "name": "removeAdmin",
      "outputs": [],
      "stateMutability": "nonpayable",
      "type": "function"
    },
    {
      "inputs": [
        {
          "internalType": "bytes32",
          "name": "role",
          "type": "bytes32"
        },
        {
          "internalType": "address",
          "name": "account",
          "type": "address"
        }
      ],
      "name": "renounceRole",
      "outputs": [],
      "stateMutability": "nonpayable",
      "type": "function"
    },
    {
      "inputs": [
        {
          "internalType": "bytes32",
          "name": "role",
          "type": "bytes32"
        },
        {
          "internalType": "address",
          "name": "account",
          "type": "address"
        }
      ],
      "name": "revokeRole",
      "outputs": [],
      "stateMutability": "nonpayable",
      "type": "function"
    },
    {
      "inputs": [
        {
          "internalType": "address",
          "name": "_l2token",
          "type": "address"
        }
      ],
      "name": "round1Sale",
      "outputs": [],
      "stateMutability": "payable",
      "type": "function"
    },
    {
      "inputs": [
        {
          "internalType": "address",
          "name": "_l2token",
          "type": "address"
        },
        {
          "internalType": "uint256",
          "name": "_amount",
          "type": "uint256"
        }
      ],
      "name": "round2Sale",
      "outputs": [],
      "stateMutability": "payable",
      "type": "function"
    },
    {
      "inputs": [
        {
          "internalType": "address",
          "name": "",
          "type": "address"
        }
      ],
      "name": "saleInfo",
      "outputs": [
        {
          "internalType": "uint256",
          "name": "total1rdSaleAmount",
          "type": "uint256"
        },
        {
          "internalType": "uint256",
          "name": "total1rdTONAmount",
          "type": "uint256"
        },
        {
          "internalType": "uint256",
          "name": "totalUsers",
          "type": "uint256"
        },
        {
          "internalType": "uint256",
          "name": "total1rdUsers",
          "type": "uint256"
        },
        {
          "internalType": "uint256",
          "name": "total2rdUsers",
          "type": "uint256"
        },
        {
          "internalType": "uint256",
          "name": "total2rdUsersClaim",
          "type": "uint256"
        }
      ],
      "stateMutability": "view",
      "type": "function"
    },
    {
      "inputs": [
        {
          "internalType": "bytes4",
          "name": "",
          "type": "bytes4"
        }
      ],
      "name": "selectorImplementation",
      "outputs": [
        {
          "internalType": "address",
          "name": "",
          "type": "address"
        }
      ],
      "stateMutability": "view",
      "type": "function"
    },
    {
      "inputs": [],
      "name": "stanTier1",
      "outputs": [
        {
          "internalType": "uint256",
          "name": "",
          "type": "uint256"
        }
      ],
      "stateMutability": "view",
      "type": "function"
    },
    {
      "inputs": [],
      "name": "stanTier2",
      "outputs": [
        {
          "internalType": "uint256",
          "name": "",
          "type": "uint256"
        }
      ],
      "stateMutability": "view",
      "type": "function"
    },
    {
      "inputs": [],
      "name": "stanTier3",
      "outputs": [
        {
          "internalType": "uint256",
          "name": "",
          "type": "uint256"
        }
      ],
      "stateMutability": "view",
      "type": "function"
    },
    {
      "inputs": [],
      "name": "stanTier4",
      "outputs": [
        {
          "internalType": "uint256",
          "name": "",
          "type": "uint256"
        }
      ],
      "stateMutability": "view",
      "type": "function"
    },
    {
      "inputs": [
        {
          "internalType": "bytes4",
          "name": "interfaceId",
          "type": "bytes4"
        }
      ],
      "name": "supportsInterface",
      "outputs": [
        {
          "internalType": "bool",
          "name": "",
          "type": "bool"
        }
      ],
      "stateMutability": "view",
      "type": "function"
    },
    {
      "inputs": [
        {
          "internalType": "address",
          "name": "",
          "type": "address"
        },
        {
          "internalType": "uint8",
          "name": "",
          "type": "uint8"
        }
      ],
      "name": "tiers",
      "outputs": [
        {
          "internalType": "uint256",
          "name": "",
          "type": "uint256"
        }
      ],
      "stateMutability": "view",
      "type": "function"
    },
    {
      "inputs": [
        {
          "internalType": "address",
          "name": "",
          "type": "address"
        },
        {
          "internalType": "uint8",
          "name": "",
          "type": "uint8"
        }
      ],
      "name": "tiers1stAccount",
      "outputs": [
        {
          "internalType": "uint256",
          "name": "",
          "type": "uint256"
        }
      ],
      "stateMutability": "view",
      "type": "function"
    },
    {
      "inputs": [
        {
          "internalType": "address",
          "name": "",
          "type": "address"
        },
        {
          "internalType": "uint8",
          "name": "",
          "type": "uint8"
        }
      ],
      "name": "tiersCalculAccount",
      "outputs": [
        {
          "internalType": "uint256",
          "name": "",
          "type": "uint256"
        }
      ],
      "stateMutability": "view",
      "type": "function"
    },
    {
      "inputs": [
        {
          "internalType": "address",
          "name": "",
          "type": "address"
        },
        {
          "internalType": "uint8",
          "name": "",
          "type": "uint8"
        }
      ],
      "name": "tiersPercents",
      "outputs": [
        {
          "internalType": "uint256",
          "name": "",
          "type": "uint256"
        }
      ],
      "stateMutability": "view",
      "type": "function"
    },
    {
      "inputs": [
        {
          "internalType": "address",
          "name": "",
          "type": "address"
        },
        {
          "internalType": "uint8",
          "name": "",
          "type": "uint8"
        }
      ],
      "name": "tiersWhiteList",
      "outputs": [
        {
          "internalType": "uint256",
          "name": "",
          "type": "uint256"
        }
      ],
      "stateMutability": "view",
      "type": "function"
    },
    {
      "inputs": [
        {
          "internalType": "address",
          "name": "",
          "type": "address"
        }
      ],
      "name": "timeInfo",
      "outputs": [
        {
          "internalType": "uint256",
          "name": "deployTime",
          "type": "uint256"
        },
        {
          "internalType": "uint256",
          "name": "snapshot",
          "type": "uint256"
        },
        {
          "internalType": "uint256",
          "name": "whiteListStartTime",
          "type": "uint256"
        },
        {
          "internalType": "uint256",
          "name": "whiteListEndTime",
          "type": "uint256"
        },
        {
          "internalType": "uint256",
          "name": "round1StartTime",
          "type": "uint256"
        },
        {
          "internalType": "uint256",
          "name": "round1EndTime",
          "type": "uint256"
        },
        {
          "internalType": "uint256",
          "name": "round2StartTime",
          "type": "uint256"
        },
        {
          "internalType": "uint256",
          "name": "round2EndTime",
          "type": "uint256"
        }
      ],
      "stateMutability": "view",
      "type": "function"
    },
    {
      "inputs": [],
      "name": "ton",
      "outputs": [
        {
          "internalType": "address",
          "name": "",
          "type": "address"
        }
      ],
      "stateMutability": "view",
      "type": "function"
    },
    {
      "inputs": [],
      "name": "tos",
      "outputs": [
        {
          "internalType": "address",
          "name": "",
          "type": "address"
        }
      ],
      "stateMutability": "view",
      "type": "function"
    },
    {
      "inputs": [
        {
          "internalType": "address",
          "name": "",
          "type": "address"
        }
      ],
      "name": "totalDepositAmount",
      "outputs": [
        {
          "internalType": "uint256",
          "name": "",
          "type": "uint256"
        }
      ],
      "stateMutability": "view",
      "type": "function"
    },
    {
      "inputs": [
        {
          "internalType": "address",
          "name": "_l2token",
          "type": "address"
        }
      ],
      "name": "totalExpectOpenSaleAmountView",
      "outputs": [
        {
          "internalType": "uint256",
          "name": "",
          "type": "uint256"
        }
      ],
      "stateMutability": "view",
      "type": "function"
    },
    {
      "inputs": [
        {
          "internalType": "address",
          "name": "_l2token",
          "type": "address"
        }
      ],
      "name": "totalOpenPurchasedAmount",
      "outputs": [
        {
          "internalType": "uint256",
          "name": "",
          "type": "uint256"
        }
      ],
      "stateMutability": "view",
      "type": "function"
    },
    {
      "inputs": [
        {
          "internalType": "address",
          "name": "_l2token",
          "type": "address"
        }
      ],
      "name": "totalOpenSaleAmount",
      "outputs": [
        {
          "internalType": "uint256",
          "name": "",
          "type": "uint256"
        }
      ],
      "stateMutability": "view",
      "type": "function"
    },
    {
      "inputs": [
        {
          "internalType": "address",
          "name": "_l2token",
          "type": "address"
        }
      ],
      "name": "totalRound1NonSaleAmount",
      "outputs": [
        {
          "internalType": "uint256",
          "name": "",
          "type": "uint256"
        }
      ],
      "stateMutability": "view",
      "type": "function"
    },
    {
      "inputs": [
        {
          "internalType": "address",
          "name": "_l2token",
          "type": "address"
        },
        {
          "internalType": "address",
          "name": "user",
          "type": "address"
        }
      ],
      "name": "totalSaleUserAmount",
      "outputs": [
        {
          "internalType": "uint256",
          "name": "_realPayAmount",
          "type": "uint256"
        },
        {
          "internalType": "uint256",
          "name": "_realSaleAmount",
          "type": "uint256"
        },
        {
          "internalType": "uint256",
          "name": "_refundAmount",
          "type": "uint256"
        }
      ],
      "stateMutability": "view",
      "type": "function"
    },
    {
      "inputs": [
        {
          "internalType": "address",
          "name": "_l2token",
          "type": "address"
        }
      ],
      "name": "totalWhitelists",
      "outputs": [
        {
          "internalType": "uint256",
          "name": "",
          "type": "uint256"
        }
      ],
      "stateMutability": "view",
      "type": "function"
    },
    {
      "inputs": [
        {
          "internalType": "address",
          "name": "newAdmin",
          "type": "address"
        }
      ],
      "name": "transferAdmin",
      "outputs": [],
      "stateMutability": "nonpayable",
      "type": "function"
    },
    {
      "inputs": [],
      "name": "uniswapRouter",
      "outputs": [
        {
          "internalType": "address",
          "name": "",
          "type": "address"
        }
      ],
      "stateMutability": "view",
      "type": "function"
    },
    {
      "inputs": [
        {
          "internalType": "address",
          "name": "",
          "type": "address"
        },
        {
          "internalType": "address",
          "name": "",
          "type": "address"
        }
      ],
      "name": "user1rd",
      "outputs": [
        {
          "internalType": "bool",
          "name": "join",
          "type": "bool"
        },
        {
          "internalType": "uint8",
          "name": "tier",
          "type": "uint8"
        },
        {
          "internalType": "uint256",
          "name": "payAmount",
          "type": "uint256"
        },
        {
          "internalType": "uint256",
          "name": "saleAmount",
          "type": "uint256"
        }
      ],
      "stateMutability": "view",
      "type": "function"
    },
    {
      "inputs": [
        {
          "internalType": "address",
          "name": "",
          "type": "address"
        },
        {
          "internalType": "address",
          "name": "",
          "type": "address"
        }
      ],
      "name": "user2rd",
      "outputs": [
        {
          "internalType": "bool",
          "name": "join",
          "type": "bool"
        },
        {
          "internalType": "uint256",
          "name": "depositAmount",
          "type": "uint256"
        }
      ],
      "stateMutability": "view",
      "type": "function"
    },
    {
      "inputs": [
        {
          "internalType": "address",
          "name": "",
          "type": "address"
        },
        {
          "internalType": "address",
          "name": "",
          "type": "address"
        }
      ],
      "name": "userClaim",
      "outputs": [
        {
          "internalType": "bool",
          "name": "refund",
          "type": "bool"
        },
        {
          "internalType": "uint256",
          "name": "claimAmount",
          "type": "uint256"
        },
        {
          "internalType": "uint256",
          "name": "refundAmount",
          "type": "uint256"
        },
        {
          "internalType": "uint256",
          "name": "latestClaimedRound",
          "type": "uint256"
        }
      ],
      "stateMutability": "view",
      "type": "function"
    },
    {
      "inputs": [
        {
          "internalType": "address",
          "name": "",
          "type": "address"
        }
      ],
      "name": "vaultAdminOfToken",
      "outputs": [
        {
          "internalType": "address",
          "name": "",
          "type": "address"
        }
      ],
      "stateMutability": "view",
      "type": "function"
    },
    {
      "inputs": [],
      "name": "vestingFund",
      "outputs": [
        {
          "internalType": "address",
          "name": "",
          "type": "address"
        }
      ],
      "stateMutability": "view",
      "type": "function"
    },
    {
      "inputs": [
        {
          "internalType": "address",
          "name": "",
          "type": "address"
        },
        {
          "internalType": "uint256",
          "name": "",
          "type": "uint256"
        }
      ],
      "name": "whitelists",
      "outputs": [
        {
          "internalType": "address",
          "name": "",
          "type": "address"
        }
      ],
      "stateMutability": "view",
      "type": "function"
    },
    {
      "inputs": [],
      "name": "wton",
      "outputs": [
        {
          "internalType": "address",
          "name": "",
          "type": "address"
        }
      ],
      "stateMutability": "view",
      "type": "function"
    }
  ],
  "bytecode": "0x60806040526014805463ff0000001916630100000017905534801561002357600080fd5b506156cb80620000346000396000f3fe6080604052600436106105225760003560e01c8063708666ad116102af578063ae1f6aaf11610179578063d01481a1116100d6578063dc560fcd1161008a578063ef39b1491161006f578063ef39b1491461129f578063f3b08cb9146112bf578063f7e6e1ab146112df57600080fd5b8063dc560fcd14611269578063e7cd4a041461127f57600080fd5b8063d547741f116100bb578063d547741f1461115a578063d7b0b29d1461117a578063d97830b1146111f757600080fd5b8063d01481a114611102578063d13da4441461112257600080fd5b8063c0f22d4b1161012d578063c6bbd5a711610112578063c6bbd5a714611095578063cc48b947146110b5578063cf437a8f146110d557600080fd5b8063c0f22d4b14611055578063c3ce874e1461107557600080fd5b8063b0a5ccd11161015e578063b0a5ccd114610fdf578063b911135f14610fff578063b9e982bb1461103557600080fd5b8063ae1f6aaf14610f26578063b005ed9114610f4657600080fd5b80638d62d949116102275780639f87b77f116101db578063a389595f116101c0578063a389595f14610eb4578063a7b23fcf14610ee6578063ac3e8aa914610f0657600080fd5b80639f87b77f14610e89578063a217fddf14610e9f57600080fd5b806396e6f43f1161020c57806396e6f43f14610e0457806397d7859514610e245780639f32b29a14610e5157600080fd5b80638d62d94914610d9657806391d1485414610dbe57600080fd5b8063768b821f1161027e5780637fc46ba8116102635780637fc46ba814610cc957806389293f6514610cff57806389f395de14610d7657600080fd5b8063768b821f14610c9d5780637e2eee5314610cb357600080fd5b8063708666ad14610c09578063735de9f714610c2957806375829def14610c4957806375b238fc14610c6957600080fd5b80632f2ff15d116103f057806352351e85116103685780635f6ceddb1161031c57806363a8fd891161030157806363a8fd8914610bbc5780636e2272a214610bd65780637048027514610be957600080fd5b80635f6ceddb14610b895780636100a72114610b9c57600080fd5b806355d6d39b1161034d57806355d6d39b14610b115780635af3909214610b495780635b19e29414610b6957600080fd5b806352351e8514610ac1578063550d01a314610ae157600080fd5b806336568abe116103bf5780634e6c4466116103a45780634e6c446614610a5557806350d2a27614610a7557806351ebde6d14610aab57600080fd5b806336568abe14610a15578063466c01b814610a3557600080fd5b80632f2ff15d1461096857806330ba46591461098857806331bf2897146109a857806333efca3d146109bb57600080fd5b80631916e5341161049e578063248a9ca3116104525780632a13ed1b116104375780632a13ed1b146108fd5780632ac9bab6146109105780632bde5bfb1461094857600080fd5b8063248a9ca3146108ad57806324d7806c146108dd57600080fd5b80631d823697116104835780631d823697146108395780631e83409a14610859578063229852461461087957600080fd5b80631916e534146107815780631c53f256146107f457600080fd5b80630b7459eb116104f55780631576baf4116104da5780631576baf4146107095780631784b3a6146107295780631785f53c1461075f57600080fd5b80630b7459eb1461068b57806312269758146106c357600080fd5b806301ffc9a714610527578063089fe6aa1461055c57806308ac3fcb14610586578063096cc41814610650575b600080fd5b34801561053357600080fd5b50610547610542366004614e56565b6112ff565b60405190151581526020015b60405180910390f35b34801561056857600080fd5b50610572610bb881565b60405162ffffff9091168152602001610553565b34801561059257600080fd5b506105ff6105a1366004614e95565b601c6020526000908152604090208054600182015460028084015460038501546004860154600587015460068801546007909801549697959693959294919390929181900b9060ff630100000082048116916401000000009004168a565b604080519a8b5260208b0199909952978901969096526060880194909452608087019290925260a086015260c085015260020b60e08401521515610100830152151561012082015261014001610553565b34801561065c57600080fd5b5061067061066b366004614eb2565b611336565b60408051938452602084019290925290820152606001610553565b34801561069757600080fd5b506006546106ab906001600160a01b031681565b6040516001600160a01b039091168152602001610553565b3480156106cf57600080fd5b506106fb6106de366004614f02565b602360209081526000928352604080842090915290825290205481565b604051908152602001610553565b34801561071557600080fd5b506106fb610724366004614e95565b611597565b34801561073557600080fd5b506106fb610744366004614e95565b6001600160a01b031660009081526018602052604090205490565b34801561076b57600080fd5b5061077f61077a366004614e95565b6115e2565b005b34801561078d57600080fd5b506107d261079c366004614f3b565b6021602090815260009283526040808420909152908252902080546001820154600283015460039093015460ff90921692909184565b6040805194151585526020850193909352918301526060820152608001610553565b34801561080057600080fd5b50600e54610827907501000000000000000000000000000000000000000000900460ff1681565b60405160ff9091168152602001610553565b34801561084557600080fd5b50610827610854366004614f3b565b611674565b34801561086557600080fd5b5061077f610874366004614e95565b611a9e565b34801561088557600080fd5b506106fb7ffb5864e8ff833c3cb2d2d08505e82ff02a43554c74a35d4f5a64e8526127831181565b3480156108b957600080fd5b506106fb6108c8366004614f69565b60009081526004602052604090206001015490565b3480156108e957600080fd5b506105476108f8366004614e95565b612049565b61077f61090b366004614f82565b612089565b34801561091c57600080fd5b506106fb61092b366004614f02565b602660209081526000928352604080842090915290825290205481565b34801561095457600080fd5b506106fb610963366004614e95565b61234c565b34801561097457600080fd5b5061077f610983366004614fae565b61249c565b34801561099457600080fd5b506106fb6109a3366004614e95565b6124c6565b61077f6109b6366004614f82565b612533565b3480156109c757600080fd5b506109fe6109d6366004614f3b565b6020808052600092835260408084209091529082529020805460019091015460ff9091169082565b604080519215158352602083019190915201610553565b348015610a2157600080fd5b5061077f610a30366004614fae565b612d64565b348015610a4157600080fd5b506106ab610a50366004614f82565b612df0565b348015610a6157600080fd5b506009546106ab906001600160a01b031681565b348015610a8157600080fd5b506106ab610a90366004614e56565b6003602052600090815260409020546001600160a01b031681565b348015610ab757600080fd5b506106fb60115481565b348015610acd57600080fd5b50600c546106ab906001600160a01b031681565b348015610aed57600080fd5b50610547610afc366004614e95565b60026020526000908152604090205460ff1681565b348015610b1d57600080fd5b506106fb610b2c366004614f02565b602460209081526000928352604080842090915290825290205481565b348015610b5557600080fd5b506106fb610b64366004614f3b565b612e28565b348015610b7557600080fd5b506106ab610b84366004614f82565b612e8b565b61077f610b97366004614e95565b612ea7565b348015610ba857600080fd5b506106fb610bb7366004614f82565b6132c1565b348015610bc857600080fd5b506000546105479060ff1681565b61077f610be4366004614e95565b61337e565b348015610bf557600080fd5b5061077f610c04366004614e95565b613751565b348015610c1557600080fd5b506007546106ab906001600160a01b031681565b348015610c3557600080fd5b506008546106ab906001600160a01b031681565b348015610c5557600080fd5b5061077f610c64366004614e95565b6137db565b348015610c7557600080fd5b506106fb7fdf8b4c520ffe197c5343c6f5aec59570151ef9a492f2c624fd45ddde6135ec4281565b348015610ca957600080fd5b506106fb60105481565b348015610cbf57600080fd5b506106fb60135481565b348015610cd557600080fd5b506106ab610ce4366004614e95565b6016602052600090815260409020546001600160a01b031681565b348015610d0b57600080fd5b50610d52610d1a366004614f3b565b601f60209081526000928352604080842090915290825290208054600182015460029092015460ff8083169361010090930416919084565b60408051941515855260ff9093166020850152918301526060820152608001610553565b348015610d8257600080fd5b50600a546106ab906001600160a01b031681565b348015610da257600080fd5b506106ab73c4a11aaf6ea915ed7ac194161d2fc9384f15bff281565b348015610dca57600080fd5b50610547610dd9366004614fae565b60009182526004602090815260408084206001600160a01b0393909316845291905290205460ff1690565b348015610e1057600080fd5b506106fb610e1f366004614fd3565b61393d565b348015610e3057600080fd5b506106fb610e3f366004614e95565b60156020526000908152604090205481565b348015610e5d57600080fd5b506106fb610e6c366004614f02565b602560209081526000928352604080842090915290825290205481565b348015610e9557600080fd5b506106fb600f5481565b348015610eab57600080fd5b506106fb600081565b348015610ec057600080fd5b50600e546108279074010000000000000000000000000000000000000000900460ff1681565b348015610ef257600080fd5b506106fb610f01366004614e95565b613b5b565b348015610f1257600080fd5b50610670610f21366004614f3b565b613c28565b348015610f3257600080fd5b50600d546106ab906001600160a01b031681565b348015610f5257600080fd5b50610fa4610f61366004614e95565b601b602052600090815260409020805460018201546002830154600384015460048501546005860154600687015460079097015495969495939492939192909188565b604080519889526020890197909752958701949094526060860192909252608085015260a084015260c083015260e082015261010001610553565b348015610feb57600080fd5b506106fb610ffa366004614e95565b613d09565b34801561100b57600080fd5b506106ab61101a366004614f69565b6001602052600090815260409020546001600160a01b031681565b34801561104157600080fd5b506106fb611050366004614e95565b613e89565b34801561106157600080fd5b506106fb611070366004614f82565b613f89565b34801561108157600080fd5b506106fb611090366004614f82565b613fba565b3480156110a157600080fd5b506005546106ab906001600160a01b031681565b3480156110c157600080fd5b50600b546106ab906001600160a01b031681565b3480156110e157600080fd5b506014546110ef9060020b81565b60405160029190910b8152602001610553565b34801561110e57600080fd5b50600e546106ab906001600160a01b031681565b34801561112e57600080fd5b506106fb61113d366004614f02565b602260209081526000928352604080842090915290825290205481565b34801561116657600080fd5b5061077f611175366004614fae565b614065565b34801561118657600080fd5b506111ca611195366004614e95565b601e60205260009081526040902080546001820154600283015460038401546004850154600590950154939492939192909186565b604080519687526020870195909552938501929092526060840152608083015260a082015260c001610553565b34801561120357600080fd5b50611241611212366004614e95565b601d60205260009081526040902080546001820154600283015460038401546004909401549293919290919085565b604080519586526020860194909452928401919091526060830152608082015260a001610553565b34801561127557600080fd5b506106fb60125481565b34801561128b57600080fd5b5061077f61129a366004614e95565b61408a565b3480156112ab57600080fd5b506106706112ba366004614f3b565b614555565b3480156112cb57600080fd5b506106fb6112da366004614f82565b614618565b3480156112eb57600080fd5b506106fb6112fa366004614eb2565b614634565b60006001600160e01b03198216637965db0b60e01b148061133057506301ffc9a760e01b6001600160e01b03198316145b92915050565b6001600160a01b0383166000908152601d60209081526040808320815160a08101835281548152600182015493810193909352600281015491830182905260038101546060840152600401546080830152829182914210156113a35760008060009350935093505061158e565b80518511156113bd5760008060009350935093505061158e565b6001600160a01b038088166000908152602160209081526040808320938a1683529281528282208351608081018552815460ff16151581526001820154928101929092526002810154938201939093526003909201546060830152806114238a8a614555565b9250925050816000036114445760008060009650965096505050505061158e565b818360200151106114635760008060009650965096505050505061158e565b600061146e8b613b5b565b90506000818660000151148015611483575089155b156114a95760208501516114979085615034565b985092965090945061158e9350505050565b8960000361153957816000036114c9579750919550935061158e92505050565b6127108660200151856114dc9190615047565b6114e69190615074565b60208601519091506114f9600184615034565b875161150790600190615034565b6115118488615034565b61151b9190615074565b6115259190615047565b61152f9083615088565b6114979190615034565b8960010361155e576127108660200151856115549190615047565b6114979190615074565b6127108660200151856115719190615047565b61157b9190615074565b60208601519091506114f960018c615034565b93509350939050565b6001600160a01b03811660009081526015602052604081205481906115bd908490613fba565b905060006115ca84613d09565b9050808210156115db575092915050565b9392505050565b6115eb33612049565b6116475760405162461bcd60e51b815260206004820152602260248201527f41636365737369626c653a2043616c6c6572206973206e6f7420616e2061646d60448201526134b760f11b60648201526084015b60405180910390fd5b6116717fdf8b4c520ffe197c5343c6f5aec59570151ef9a492f2c624fd45ddde6135ec4282612d64565b50565b6009546000906001600160a01b0316806116b55760405162461bcd60e51b81526020600482015260026024820152612d1960f11b604482015260640161163e565b6001600160a01b0384166000908152602260209081526040808320600184529091528120549081900361170f5760405162461bcd60e51b81526020600482015260026024820152615a3160f01b604482015260640161163e565b6001600160a01b038516600090815260226020908152604080832060028452909152812054908190036117695760405162461bcd60e51b81526020600482015260026024820152615a3160f01b604482015260640161163e565b6001600160a01b038616600090815260226020908152604080832060038452909152812054908190036117c35760405162461bcd60e51b81526020600482015260026024820152615a3160f01b604482015260640161163e565b6001600160a01b0387166000908152602260209081526040808320600484529091528120549081900361181d5760405162461bcd60e51b81526020600482015260026024820152615a3160f01b604482015260640161163e565b6001600160a01b038881166000908152601b60209081526040808320815161010081018352815481526001820154938101849052600282015481840152600382015460608201526004808301546080830152600583015460a0830152600683015460c083015260079092015460e0820152600954925163277166bf60e11b81528d871692810192909252602482019390935291931690634ee2cd7e90604401602060405180830381865afa1580156118d9573d6000803e3d6000fd5b505050506040513d601f19601f820116820180604052508101906118fd919061509b565b6001600160a01b038b1660009081526022602090815260408083206001845290915281205491925090821080159061195857506001600160a01b038b1660009081526022602090815260408083206002845290915290205482105b1561196557506001611a90565b6001600160a01b038b1660009081526022602090815260408083206002845290915290205482108015906119bc57506001600160a01b038b1660009081526022602090815260408083206003845290915290205482105b156119c957506002611a90565b6001600160a01b038b166000908152602260209081526040808320600384529091529020548210801590611a2057506001600160a01b038b1660009081526022602090815260408083206004845290915290205482105b15611a2d57506003611a90565b6001600160a01b038b166000908152602260209081526040808320600484529091529020548210611a6057506004611a90565b6001600160a01b038b16600090815260226020908152604080832060018452909152902054821015611a90575060005b9a9950505050505050505050565b6001600160a01b0381166000908152601d6020908152604091829020825160a0810184528154815260018201549281019290925260028101549282018390526003810154606083015260040154608082015290421015611b405760405162461bcd60e51b815260206004820152600d60248201527f6e6f7420636c61696d54696d6500000000000000000000000000000000000000604482015260640161163e565b6001600160a01b0382166000818152602080805260408083203380855290835281842094845260218352818420908452909152812090611b7f8561234c565b905080600003611c9057815460ff161515600103611bdf5760405162461bcd60e51b815260206004820152601160248201527f616c726561647920676574526566756e64000000000000000000000000000000604482015260640161163e565b6001600160a01b0385166000908152601f60209081526040808320338452909152812060018086015490820154919291611c199190615088565b845460ff1916600117855560028501819055600b54909150611c45906001600160a01b031633836146d5565b604080516001600160a01b03891681526020810183905233917fec1e5ed733e00f1a00915d56caef57b4f52312dde4f9b3165f213319a0da156b910160405180910390a25050612042565b6000806000611ca188336000611336565b92509250925060008211611cf75760405162461bcd60e51b815260206004820152601260248201527f6e6f20707572636861736520616d6f756e740000000000000000000000000000604482015260640161163e565b60008311611d335760405162461bcd60e51b81526020600482015260096024820152681b9bc81c995dd85c9960ba1b604482015260640161163e565b82856001015483611d449190615034565b1015611d925760405162461bcd60e51b815260206004820152601460248201527f616c726561647920676574416c6c726577617264000000000000000000000000604482015260640161163e565b6040516370a0823160e01b815230600482015283906001600160a01b038a16906370a0823190602401602060405180830381865afa158015611dd8573d6000803e3d6000fd5b505050506040513d601f19601f82011682018060405250810190611dfc919061509b565b1015611e4a5760405162461bcd60e51b815260206004820152601360248201527f646f6e7420686176652073616c65546f6b656e00000000000000000000000000604482015260640161163e565b828560010154611e5a9190615088565b6001860155611e736001600160a01b03891633856146d5565b6001600160a01b0388166000908152601e60205260409020855460ff16158015611e9e5750865460ff165b15611ec4576005810154611eb3906001615088565b6005820155855460ff191660011786555b600082118015611ed657506002860154155b15611ff957600b546040516370a0823160e01b81523060048201526001600160a01b03909116906370a0823190602401602060405180830381865afa158015611f23573d6000803e3d6000fd5b505050506040513d601f19601f82011682018060405250810190611f47919061509b565b821115611f965760405162461bcd60e51b815260206004820152601460248201527f646f6e74206861766520726566756e6420746f6e000000000000000000000000604482015260640161163e565b60028601829055600b54611fb4906001600160a01b031633846146d5565b604080516001600160a01b038b1681526020810184905233917fec1e5ed733e00f1a00915d56caef57b4f52312dde4f9b3165f213319a0da156b910160405180910390a25b604080516001600160a01b038b1681526020810186905233917ff7a40077ff7a04c7e61f6f26fb13774259ddf1b6bce9ecf26a8276cdd3992683910160405180910390a2505050505b5050505050565b6001600160a01b03811660009081527f2fb794d17134dfdec181ddbac1babb5ab1eb140204ef4d982f294e7fc8b69022602052604081205460ff16611330565b6001600160a01b0382166000908152601b6020908152604091829020825161010081018452815481526001820154928101929092526002810154928201929092526003820154606082015260048201546080820152600582015460a0820152600682015460c0820181905260079092015460e08201529042101561214f5760405162461bcd60e51b815260206004820152600f60248201527f6e6f74206465706f73697454696d650000000000000000000000000000000000604482015260640161163e565b8060e0015142106121a25760405162461bcd60e51b815260206004820152600f60248201527f656e64206465706f73697454696d650000000000000000000000000000000000604482015260640161163e565b6001600160a01b0383166000818152602080805260408083203384528252808320938352601e9091529020815460ff166122b2576001600160a01b038516600090815260176020908152604082208054600181810183559184529190922001805473ffffffffffffffffffffffffffffffffffffffff191633179055825460ff191681178355600482015461223691615088565b60048201556001600160a01b0385166000908152601f6020908152604080832033845282528083208151608081018352815460ff80821615158352610100909104169381019390935260018101549183018290526002015460608301529091036122b05760028201546122aa906001615088565b60028301555b505b8382600101546122c29190615088565b60018301556001600160a01b0385166000908152601560205260409020546122eb908590615088565b6001600160a01b038616600081815260156020908152604091829020939093558051918252349282019290925233917f8752a472e571a816aea92eec8dae9baf628e840f4929fbcc2d155e6233ff68a7910160405180910390a25050505050565b6001600160a01b0381166000818152601e60209081526040808320815160c0808201845282548252600180840154838701526002808501548487015260038086015460608087019190915260048088015460808089019190915260059889015460a0808a01919091529c8c52601c8b52898c208a5161014081018c5281548152968101549b87019b909b528a8501549986019990995291890154908401528701549582019590955292850154968301969096526006840154958201959095526007909201549081900b60e083015260ff63010000008204811615156101008401526401000000009091041615156101208201529091908261244c856124c6565b836020015161245b9190615088565b90506000826080015182106124905760648360a001518361247c9190615047565b6124869190615074565b9695505050505050565b50600095945050505050565b6000828152600460205260409020600101546124b7816147e9565b6124c183836147f3565b505050565b6001600160a01b03811660009081526015602052604081205481906124ec908490613fba565b905060006124f984613d09565b905080821015612521575050506001600160a01b031660009081526015602052604090205490565b61252b84826132c1565b949350505050565b80806000036125695760405162461bcd60e51b81526020600482015260026024820152615a3160f01b604482015260640161163e565b6001600160a01b0383166000818152601b60209081526040808320815161010081018352815481526001820154818501526002820154818401526003820154606082015260048201546080820152600582015460a0820152600682015460c082015260079091015460e08201908152948452601c909252909120915190919042116126365760405162461bcd60e51b815260206004820152601b60248201527f6e65656420746f20656e6420746865206465706f73697454696d650000000000604482015260640161163e565b60006126418661234c565b9050600081116126935760405162461bcd60e51b815260206004820152601660248201527f646f6e2774207061737320746865206861726443617000000000000000000000604482015260640161163e565b60078201546301000000900460ff16151560000361270c57848110156126eb5760405162461bcd60e51b815260206004820152600d60248201526c30b6b7bab73a24b71037bb32b960991b604482015260640161163e565b6006820181905560078201805463ff00000019166301000000179055612750565b84826006015410156127505760405162461bcd60e51b815260206004820152600d60248201526c30b6b7bab73a24b71037bb32b960991b604482015260640161163e565b600b54600a546040516307f43c1960e31b81526001600160a01b0392831660048201529116602482015260009073__$86989bec654fe21c5325a7b16e11ff34c5$__90633fa1e0c890604401602060405180830381865af41580156127b9573d6000803e3d6000fd5b505050506040513d601f19601f820116820180604052508101906127dd91906150b4565b9050600080826001600160a01b0316633850c7bd6040518163ffffffff1660e01b815260040160e060405180830381865afa158015612820573d6000803e3d6000fd5b505050506040513d601f19601f82011682018060405250810190612844919061510a565b5050505050915091506000826001600160a01b0316116128a65760405162461bcd60e51b815260206004820152601060248201527f706f6f6c206e6f7420696e697469616c00000000000000000000000000000000604482015260640161163e565b60006128b3846078614895565b6040517fff9ceebd000000000000000000000000000000000000000000000000000000008152600282810b6004830152603c6024830152604482015290915073__$86989bec654fe21c5325a7b16e11ff34c5$__9063ff9ceebd90606401602060405180830381865af415801561292e573d6000803e3d6000fd5b505050506040513d601f19601f820116820180604052508101906129529190615194565b60020b8260020b126129a65760405162461bcd60e51b815260206004820152601860248201527f6f766572206368616e676564207469636b2072616e67652e0000000000000000604482015260640161163e565b600b54600a546007880154604051633e1644f160e11b8152600481018d90526001600160a01b038881166024830152938416604482015292909116606483015260020b6084820152600090819073__$86989bec654fe21c5325a7b16e11ff34c5$__90637c2c89e29060a401606060405180830381865af4158015612a2f573d6000803e3d6000fd5b505050506040513d601f19601f82011682018060405250810190612a5391906151af565b92505091506000600560009054906101000a90046001600160a01b03166001600160a01b0316600b60009054906101000a90046001600160a01b0316600a60009054906101000a90046001600160a01b0316610bb88f6000604051602401612af39594939291906001600160a01b03958616815293909416602084015262ffffff919091166040830152606082015260ff91909116608082015260a00190565b60408051601f198184030181529181526020820180516001600160e01b031663f7729d4360e01b17905251612b289190615201565b6000604051808303816000865af19150503d8060008114612b65576040519150601f19603f3d011682016040523d82523d6000602084013e612b6a565b606091505b509150506000612b7982614a54565b90506103e8612b8a826103e3615047565b612b949190615074565b905083811015612be65760405162461bcd60e51b815260206004820152601060248201527f7072696365496d70616374206f76657200000000000000000000000000000000604482015260640161163e565b60068a01548e908e90612bfa908290615034565b60068d01556040805161010081018252600b546001600160a01b039081168252600a54811660208301908152610bb8838501908152600754831660608501908152426080860190815260a0860188815260c087018b81528d871660e08901908152600854995163414bf38960e01b8152895189166004820152965188166024880152945162ffffff166044870152925186166064860152905160848501525160a48401525160c483015251821660e4820152919260009291169063414bf38990610104016020604051808303816000875af1158015612cdd573d6000803e3d6000fd5b505050506040513d601f19601f82011682018060405250810190612d01919061509b565b604080516001600160a01b03871681526020810186905290810182905290915033907f34c21668d9e0d31d289d483bfe1b46a335340504801ea7feebfbb347bc4fe5679060600160405180910390a2505050505050505050505050505050505050565b6001600160a01b0381163314612de25760405162461bcd60e51b815260206004820152602f60248201527f416363657373436f6e74726f6c3a2063616e206f6e6c792072656e6f756e636560448201527f20726f6c657320666f722073656c660000000000000000000000000000000000606482015260840161163e565b612dec8282614af8565b5050565b60176020528160005260406000208181548110612e0c57600080fd5b6000918252602090912001546001600160a01b03169150829050565b600080612e358484611674565b9050600060ff821615612e8057815b60ff811615612e7657612e5886868361393d565b612e629083615088565b915080612e6e8161521d565b915050612e44565b5091506113309050565b506000949350505050565b60186020528160005260406000208181548110612e0c57600080fd5b6001600160a01b0381166000908152601b60209081526040918290208251610100810184528154815260018201549281019290925260028101549282019290925260038201546060820152600482015460808201819052600583015460a0830152600683015460c083015260079092015460e082015290421015612f6d5760405162461bcd60e51b815260206004820152601260248201527f6e6f7420726f756e643153616c6554696d650000000000000000000000000000604482015260640161163e565b8060a001514210612fc05760405162461bcd60e51b815260206004820152601260248201527f656e6420726f756e643153616c6554696d650000000000000000000000000000604482015260640161163e565b6001600160a01b0382166000908152601f602090815260408083203384529091529020805460ff1615156001146130395760405162461bcd60e51b815260206004820152600c60248201527f6e6f2077686974656c6973740000000000000000000000000000000000000000604482015260640161163e565b60006130458433611674565b905060006130538534613fba565b905060006130618633612e28565b90508184600201546130739190615088565b8110156130c25760405162461bcd60e51b815260206004820152600e60248201527f646f6e2774206f76657220627579000000000000000000000000000000000000604482015260640161163e565b6001600160a01b0386166000908152601e60205260408120600186015490910361316a5760038101546130f6906001615088565b6003820155600281015461310b906001615088565b60028201556001600160a01b038716600090815260266020908152604080832060ff88168452909152902054613142906001615088565b6001600160a01b038816600090815260266020908152604080832060ff891684529091529020555b34856001015461317a9190615088565b6001860155600285015461318f908490615088565b600286015560018101546131a4903490615088565b600182015580546131b6908490615088565b815560408051808201909152601481527f6d73672e73656e6465722e62616c616e6365203a00000000000000000000000060208201526131f7903331614b7b565b6132366040518060400160405280600c81526020017f6d73672e73656e646572203a000000000000000000000000000000000000000081525033614bc0565b6132756040518060400160405280600b81526020017f6d73672e76616c7565203a00000000000000000000000000000000000000000081525034614b7b565b604080516001600160a01b038916815234602082015233917f9840f3ca16eed984a6ad48d36928a9cfb427c7f90a8d37e017b3385a747aa294910160405180910390a250505050505050565b6001600160a01b0382166000908152601c602090815260408083208151610140810183528154815260018201549381019390935260028082015492840183905260038201546060850181905260048301546080860152600583015460a0860152600683015460c08601526007909201549081900b60e085015260ff6301000000820481161515610100860152640100000000909104161515610120840152839161336b9086615047565b6133759190615074565b95945050505050565b6001600160a01b0381166000908152601c602052604090206007810154640100000000900460ff1615156001148015906133c8575060078101546301000000900460ff1615156001145b6134145760405162461bcd60e51b815260206004820152601a60248201527f6e656564207468652065786368616e676557544f4e746f544f53000000000000604482015260640161163e565b6001600160a01b0382166000908152601e60205260408120906134368461234c565b9050600081613444866124c6565b84600101546134539190615088565b61345d9190615034565b600b546040516370a0823160e01b81523060048201529192506001600160a01b0316906370a0823190602401602060405180830381865afa1580156134a6573d6000803e3d6000fd5b505050506040513d601f19601f820116820180604052508101906134ca919061509b565b8111156135195760405162461bcd60e51b815260206004820152600d60248201527f686176656e277420746f6b656e00000000000000000000000000000000000000604482015260640161163e565b60078401805464ff000000001916640100000000179055825460009061353e87611597565b6001870154875461354f9190615088565b6135599190615034565b6135639190615034565b905080156135fc57600d54600e54604051631474f2a960e31b81526001600160a01b0389811660048301529182166024820152604481018490526000606482015260a06084820152600260a482015261060f60f31b60c482015291169063a3a795489060e401600060405180830381600087803b1580156135e357600080fd5b505af11580156135f7573d6000803e3d6000fd5b505050505b600b546006546001600160a01b039182169163095ea7b3911661362785678ac7230489e80000615088565b6040516001600160e01b031960e085901b1681526001600160a01b03909216600483015260248201526044016020604051808303816000875af1158015613672573d6000803e3d6000fd5b505050506040513d601f19601f82011682018060405250810190613696919061523a565b506006546040516315a27c3b60e31b81526001600160a01b038881166004830152602482018590529091169063ad13e1d890604401600060405180830381600087803b1580156136e557600080fd5b505af11580156136f9573d6000803e3d6000fd5b5050604080516001600160a01b038a168152602081018690529081018690523392507f4c2c0ab6abacae9e08e6f826eee15e2782e65aaa46fa6d77cbaec9c94247aad5915060600160405180910390a2505050505050565b61375a33612049565b6137b15760405162461bcd60e51b815260206004820152602260248201527f41636365737369626c653a2043616c6c6572206973206e6f7420616e2061646d60448201526134b760f11b606482015260840161163e565b6116717fdf8b4c520ffe197c5343c6f5aec59570151ef9a492f2c624fd45ddde6135ec428261249c565b6137e433612049565b61383b5760405162461bcd60e51b815260206004820152602260248201527f41636365737369626c653a2043616c6c6572206973206e6f7420616e2061646d60448201526134b760f11b606482015260840161163e565b6001600160a01b0381166138915760405162461bcd60e51b815260206004820152601860248201527f41636365737369626c653a207a65726f20616464726573730000000000000000604482015260640161163e565b6001600160a01b03811633036138e95760405162461bcd60e51b815260206004820152601660248201527f41636365737369626c653a2073616d652061646d696e00000000000000000000604482015260640161163e565b6139137fdf8b4c520ffe197c5343c6f5aec59570151ef9a492f2c624fd45ddde6135ec428261249c565b6116717fdf8b4c520ffe197c5343c6f5aec59570151ef9a492f2c624fd45ddde6135ec4233612d64565b6001600160a01b038084166000818152601f602090815260408083209487168352938152838220845160808082018752825460ff8082161515845261010091829004811684870152600180860154858b0152600295860154606080870191909152988852601c87528988208a5161014081018c52815481528183015498810198909852808701549a88019a909a5260038a015498870198909852600489015492860192909252600588015460a0860152600688015460c08601526007909701549283900b60e08501526301000000830481161515968401969096526401000000009091049094161515610120820152835191939290918491901515148015613a48575060008560ff16115b15613ab8576001600160a01b038716600081815260256020908152604080832060ff8a16808552908352818420549484526023835281842090845290915290205483516127109291613a9991615047565b613aa39190615074565b613aad9190615074565b93506115db92505050565b60ff851615613b4e576001600160a01b038716600090815260256020908152604080832060ff89168452909152812054613af3906001615088565b6001600160a01b038916600090815260236020908152604080832060ff8b1684529091529020548451919250612710918391613b2e91615047565b613b389190615074565b613b429190615074565b94506115db9350505050565b5060009695505050505050565b6001600160a01b0381166000908152601d60209081526040808320815160a08101835281548152600182015493810193909352600281015491830182905260038101546060840152600401546080830152421015613bb857600091505b42816040015111158015613bcf5750806060015142105b15613bdd5760019150613c14565b42816060015111613c145760808101516060820151613bfc9042615034565b613c069190615074565b613c11906002615088565b91505b8051821115613c2257805191505b50919050565b6001600160a01b0380831660009081526020808052604080832093851683529281528282208351808501909452805460ff161580158552600190910154918401919091529091829182919080613c8057506020810151155b15613c9657600080600093509350935050613d02565b6000613ca487876000614634565b90506000613cb288836132c1565b602084015190915060008082841015613ce257613ccf8484615034565b9050613cdb8b85613fba565b9150613cf6565b85602001519350613cf38b84613fba565b91505b92975095509093505050505b9250925092565b600080601b6000846001600160a01b03166001600160a01b03168152602001908152602001600020604051806101000160405290816000820154815260200160018201548152602001600282015481526020016003820154815260200160048201548152602001600582015481526020016006820154815260200160078201548152505090506000601c6000856001600160a01b03166001600160a01b0316815260200190815260200160002060405180610140016040529081600082015481526020016001820154815260200160028201548152602001600382015481526020016004820154815260200160058201548152602001600682015481526020016007820160009054906101000a900460020b60020b60020b81526020016007820160039054906101000a900460ff161515151581526020016007820160049054906101000a900460ff16151515158152505090508160a00151421015613e7157519392505050565b613e7a84613e89565b816020015161252b9190615088565b6001600160a01b0381166000818152601e60209081526040808320815160c0808201845282548252600180840154838701526002808501548487015260038086015460608087019190915260048088015460808089019190915260059889015460a0808a01919091529c8c52601c8b52898c208a5161014081018c528154808252978201549c81019c909c52808601549a8c019a909a5292890154918a01919091528701549088015293850154978601979097526006840154908501526007909201549081900b60e084015260ff630100000082048116151561010085015264010000000090910416151561012083015280519293909261252b91615034565b60196020528160005260406000208181548110613fa557600080fd5b90600052602060002001600091509150505481565b6001600160a01b0382166000908152601c602090815260408083208151610140810183528154815260018201549381019390935260028082015492840183905260038201546060850181905260048301546080860152600583015460a0860152600683015460c08601526007909201549081900b60e085015260ff630100000082048116151561010086015264010000000090910416151561012084015283919061336b9086615047565b600082815260046020526040902060010154614080816147e9565b6124c18383614af8565b6001600160a01b0381166000908152601b60209081526040918290208251610100810184528154815260018201549281019290925260028101549282018390526003810154606083015260048101546080830152600581015460a0830152600681015460c08301526007015460e08201529042101561414b5760405162461bcd60e51b815260206004820152601160248201527f6e6f742077686974656c69737454696d65000000000000000000000000000000604482015260640161163e565b8060600151421061419e5760405162461bcd60e51b815260206004820152601160248201527f656e642077686974656c69737454696d65000000000000000000000000000000604482015260640161163e565b60006141aa8333611674565b905060018160ff1610156142005760405162461bcd60e51b815260206004820152601160248201527f6e65656420746f206d6f72652073544f53000000000000000000000000000000604482015260640161163e565b6001600160a01b0383166000908152601f602090815260408083203384529091529020805460ff1615156001036142795760405162461bcd60e51b815260206004820152601060248201527f616c726561647920617474656e64656400000000000000000000000000000000604482015260640161163e565b6001600160a01b038416600081815260186020908152604080832080546001818101835591855283852001805473ffffffffffffffffffffffffffffffffffffffff191633179055855460ff8816610100810261ffff19909216919091178217875594845260248352818420948452939091529020546142f891615088565b6001600160a01b038516600090815260246020908152604080832060ff8716808552925290912091909155600403614433576001600160a01b03841660009081526025602090815260408083206004845290915290205461435a906001615088565b6001600160a01b03851660009081526025602090815260408083206004845290915280822092909255600381522054614394906001615088565b6001600160a01b038516600090815260256020908152604080832060038452909152808220929092556002815220546143ce906001615088565b6001600160a01b0385166000908152602560209081526040808320600284529091528082209290925560018082529190205461440991615088565b6001600160a01b038516600090815260256020908152604080832060018452909152902055614509565b8160ff1660030361446e576001600160a01b038416600090815260256020908152604080832060038452909152902054614394906001615088565b8160ff166002036144a9576001600160a01b0384166000908152602560209081526040808320600284529091529020546143ce906001615088565b8160ff16600103614509576001600160a01b038416600090815260256020908152604080832060018085529252909120546144e391615088565b6001600160a01b0385166000908152602560209081526040808320600184529091529020555b604080516001600160a01b038616815260ff8416602082015233917f80aaf28a2c7f80f586e64ede5c6c3b5433b8c6cf1351b6b51d8ab9febb8b5e7a910160405180910390a250505050565b6001600160a01b038083166000908152601f6020908152604080832093851683529281528282208351608081018552815460ff80821615801584526101009092041693820193909352600182015494810194909452600201546060840152909182918291906146025760008060006145cd8989613c28565b9250925092508360400151836145e39190615088565b60608501516145f29084615088565b8296509650965050505050613d02565b61460c8686613c28565b93509350935050613d02565b601a6020528160005260406000208181548110613fa557600080fd5b6001600160a01b0380841660009081526020808052604080832093861683529281528282208351808501909452805460ff1615158452600101549083018190529091908290614684908590615088565b6001600160a01b038716600090815260156020526040812054919250906146ac908690615088565b826146b689613d09565b6146c09190615047565b6146ca9190615074565b979650505050505050565b604080516001600160a01b038481166024830152604480830185905283518084039091018152606490920183526020820180516001600160e01b031663a9059cbb60e01b17905291516000928392908716916147319190615201565b6000604051808303816000865af19150503d806000811461476e576040519150601f19603f3d011682016040523d82523d6000602084013e614773565b606091505b509150915081801561479d57508051158061479d57508080602001905181019061479d919061523a565b6120425760405162461bcd60e51b815260206004820152600f60248201527f5452414e534645525f4641494c45440000000000000000000000000000000000604482015260640161163e565b6116718133614c05565b60008281526004602090815260408083206001600160a01b038516845290915290205460ff16612dec5760008281526004602090815260408083206001600160a01b03851684529091529020805460ff191660011790556148513390565b6001600160a01b0316816001600160a01b0316837f2f8788117e7eff1d82e926ec794901d17c78024a50270940304540a733656f0d60405160405180910390a45050565b60008163ffffffff166000036148d25760405162461bcd60e51b8152602060048201526002602482015261042560f41b604482015260640161163e565b60408051600280825260608201835260009260208301908036833701905050905082816000815181106149075761490761526b565b602002602001019063ffffffff16908163ffffffff16815250506000816001815181106149365761493661526b565b63ffffffff9092166020928302919091019091015260405163883bdbfd60e01b81526000906001600160a01b0386169063883bdbfd9061497a908590600401615281565b600060405180830381865afa158015614997573d6000803e3d6000fd5b505050506040513d6000823e601f3d908101601f191682016040526149bf9190810190615394565b5090506000816000815181106149d7576149d761526b565b6020026020010151826001815181106149f2576149f261526b565b6020026020010151614a049190615460565b9050614a14600386900b8261548d565b935060008160060b128015614a385750614a32600386900b826154cb565b60060b15155b15614a4b5783614a47816154ed565b9450505b50505092915050565b60008151602014614ae457604482511015614ab15760405162461bcd60e51b815260206004820152601060248201527f556e6578706563746564206572726f7200000000000000000000000000000000604482015260640161163e565b60048201915081806020019051810190614acb9190615506565b60405162461bcd60e51b815260040161163e91906155c6565b81806020019051810190611330919061509b565b60008281526004602090815260408083206001600160a01b038516845290915290205460ff1615612dec5760008281526004602090815260408083206001600160a01b0385168085529252808320805460ff1916905551339285917ff6391f5c32d9c69d2a47ea670b442974b53935d1edc7fd64eb21e047a839171b9190a45050565b612dec8282604051602401614b919291906155d9565b60408051601f198184030181529190526020810180516001600160e01b0316632d839cb360e21b179052614c7a565b612dec8282604051602401614bd69291906155fb565b60408051601f198184030181529190526020810180516001600160e01b031663319af33360e01b179052614c7a565b60008281526004602090815260408083206001600160a01b038516845290915290205460ff16612dec57614c3881614c9b565b614c43836020614cad565b604051602001614c54929190615626565b60408051601f198184030181529082905262461bcd60e51b825261163e916004016155c6565b80516a636f6e736f6c652e6c6f67602083016000808483855afa5050505050565b60606113306001600160a01b03831660145b60606000614cbc836002615047565b614cc7906002615088565b67ffffffffffffffff811115614cdf57614cdf615255565b6040519080825280601f01601f191660200182016040528015614d09576020820181803683370190505b509050600360fc1b81600081518110614d2457614d2461526b565b60200101906001600160f81b031916908160001a905350600f60fb1b81600181518110614d5357614d5361526b565b60200101906001600160f81b031916908160001a9053506000614d77846002615047565b614d82906001615088565b90505b6001811115614e07577f303132333435363738396162636465660000000000000000000000000000000085600f1660108110614dc357614dc361526b565b1a60f81b828281518110614dd957614dd961526b565b60200101906001600160f81b031916908160001a90535060049490941c93614e00816156a7565b9050614d85565b5083156115db5760405162461bcd60e51b815260206004820181905260248201527f537472696e67733a20686578206c656e67746820696e73756666696369656e74604482015260640161163e565b600060208284031215614e6857600080fd5b81356001600160e01b0319811681146115db57600080fd5b6001600160a01b038116811461167157600080fd5b600060208284031215614ea757600080fd5b81356115db81614e80565b600080600060608486031215614ec757600080fd5b8335614ed281614e80565b92506020840135614ee281614e80565b929592945050506040919091013590565b60ff8116811461167157600080fd5b60008060408385031215614f1557600080fd5b8235614f2081614e80565b91506020830135614f3081614ef3565b809150509250929050565b60008060408385031215614f4e57600080fd5b8235614f5981614e80565b91506020830135614f3081614e80565b600060208284031215614f7b57600080fd5b5035919050565b60008060408385031215614f9557600080fd5b8235614fa081614e80565b946020939093013593505050565b60008060408385031215614fc157600080fd5b823591506020830135614f3081614e80565b600080600060608486031215614fe857600080fd5b8335614ff381614e80565b9250602084013561500381614e80565b9150604084013561501381614ef3565b809150509250925092565b634e487b7160e01b600052601160045260246000fd5b818103818111156113305761133061501e565b80820281158282048414176113305761133061501e565b634e487b7160e01b600052601260045260246000fd5b6000826150835761508361505e565b500490565b808201808211156113305761133061501e565b6000602082840312156150ad57600080fd5b5051919050565b6000602082840312156150c657600080fd5b81516115db81614e80565b8051600281900b81146150e357600080fd5b919050565b805161ffff811681146150e357600080fd5b805180151581146150e357600080fd5b600080600080600080600060e0888a03121561512557600080fd5b875161513081614e80565b965061513e602089016150d1565b955061514c604089016150e8565b945061515a606089016150e8565b9350615168608089016150e8565b925060a088015161517881614ef3565b915061518660c089016150fa565b905092959891949750929550565b6000602082840312156151a657600080fd5b6115db826150d1565b6000806000606084860312156151c457600080fd5b8351925060208401519150604084015161501381614e80565b60005b838110156151f85781810151838201526020016151e0565b50506000910152565b600082516152138184602087016151dd565b9190910192915050565b600060ff8216806152305761523061501e565b6000190192915050565b60006020828403121561524c57600080fd5b6115db826150fa565b634e487b7160e01b600052604160045260246000fd5b634e487b7160e01b600052603260045260246000fd5b6020808252825182820181905260009190848201906040850190845b818110156152bf57835163ffffffff168352928401929184019160010161529d565b50909695505050505050565b604051601f8201601f1916810167ffffffffffffffff811182821017156152f4576152f4615255565b604052919050565b600067ffffffffffffffff82111561531657615316615255565b5060051b60200190565b600082601f83011261533157600080fd5b81516020615346615341836152fc565b6152cb565b82815260059290921b8401810191818101908684111561536557600080fd5b8286015b8481101561538957805161537c81614e80565b8352918301918301615369565b509695505050505050565b600080604083850312156153a757600080fd5b825167ffffffffffffffff808211156153bf57600080fd5b818501915085601f8301126153d357600080fd5b815160206153e3615341836152fc565b82815260059290921b8401810191818101908984111561540257600080fd5b948201945b838610156154305785518060060b81146154215760008081fd5b82529482019490820190615407565b9188015191965090935050508082111561544957600080fd5b5061545685828601615320565b9150509250929050565b600682810b9082900b03667fffffffffffff198112667fffffffffffff821317156113305761133061501e565b60008160060b8360060b806154a4576154a461505e565b667fffffffffffff198214600019821416156154c2576154c261501e565b90059392505050565b60008260060b806154de576154de61505e565b808360060b0791505092915050565b60008160020b627fffff1981036152305761523061501e565b60006020828403121561551857600080fd5b815167ffffffffffffffff8082111561553057600080fd5b818401915084601f83011261554457600080fd5b81518181111561555657615556615255565b615569601f8201601f19166020016152cb565b915080825285602082850101111561558057600080fd5b6155918160208401602086016151dd565b50949350505050565b600081518084526155b28160208601602086016151dd565b601f01601f19169290920160200192915050565b6020815260006115db602083018461559a565b6040815260006155ec604083018561559a565b90508260208301529392505050565b60408152600061560e604083018561559a565b90506001600160a01b03831660208301529392505050565b7f416363657373436f6e74726f6c3a206163636f756e742000000000000000000081526000835161565e8160178501602088016151dd565b7f206973206d697373696e6720726f6c6520000000000000000000000000000000601791840191820152835161569b8160288401602088016151dd565b01602801949350505050565b6000816156b6576156b661501e565b50600019019056fea164736f6c6343000812000a",
  "linkReferences": {
    "contracts/libraries/LibPublicSaleVault.sol": {
      "LibPublicSaleVault": [
        {
          "length": 20,
          "start": 10163
        },
        {
          "length": 20,
          "start": 10536
        },
        {
          "length": 20,
          "start": 10793
        }
      ]
    }
  },
  "deployedLinkReferences": {
    "contracts/libraries/LibPublicSaleVault.sol": {
      "LibPublicSaleVault": [
        {
          "length": 20,
          "start": 10111
        },
        {
          "length": 20,
          "start": 10484
        },
        {
          "length": 20,
          "start": 10741
        }
      ]
    }
  }
}