{
  "_format": "hh-sol-artifact-1",
  "contractName": "L2PublicSaleVault",
  "sourceName": "contracts/L2/vaults/L2PublicSaleVault.sol",
  "abi": [
    {
      "anonymous": false,
      "inputs": [
        {
          "indexed": false,
          "internalType": "address",
          "name": "l2Token",
          "type": "address"
        },
        {
          "indexed": true,
          "internalType": "address",
          "name": "from",
          "type": "address"
        },
        {
          "indexed": false,
          "internalType": "uint256",
          "name": "tier",
          "type": "uint256"
        }
      ],
      "name": "AddedWhiteList",
      "type": "event"
    },
    {
      "anonymous": false,
      "inputs": [
        {
          "indexed": false,
          "internalType": "address",
          "name": "l2Token",
          "type": "address"
        },
        {
          "indexed": true,
          "internalType": "address",
          "name": "from",
          "type": "address"
        },
        {
          "indexed": false,
          "internalType": "uint256",
          "name": "amount",
          "type": "uint256"
        }
      ],
      "name": "Claimed",
      "type": "event"
    },
    {
      "anonymous": false,
      "inputs": [
        {
          "indexed": false,
          "internalType": "address",
          "name": "l2Token",
          "type": "address"
        },
        {
          "indexed": true,
          "internalType": "address",
          "name": "from",
          "type": "address"
        },
        {
          "indexed": false,
          "internalType": "uint256",
          "name": "amount",
          "type": "uint256"
        },
        {
          "indexed": false,
          "internalType": "uint256",
          "name": "liquidityAmount",
          "type": "uint256"
        }
      ],
      "name": "DepositWithdrawal",
      "type": "event"
    },
    {
      "anonymous": false,
      "inputs": [
        {
          "indexed": false,
          "internalType": "address",
          "name": "l2Token",
          "type": "address"
        },
        {
          "indexed": true,
          "internalType": "address",
          "name": "from",
          "type": "address"
        },
        {
          "indexed": false,
          "internalType": "uint256",
          "name": "amount",
          "type": "uint256"
        }
      ],
      "name": "Deposited",
      "type": "event"
    },
    {
      "anonymous": false,
      "inputs": [
        {
          "indexed": false,
          "internalType": "address",
          "name": "l2Token",
          "type": "address"
        },
        {
          "indexed": true,
          "internalType": "address",
          "name": "from",
          "type": "address"
        },
        {
          "indexed": false,
          "internalType": "uint256",
          "name": "amountIn",
          "type": "uint256"
        },
        {
          "indexed": false,
          "internalType": "uint256",
          "name": "amountOut",
          "type": "uint256"
        }
      ],
      "name": "ExchangeSwap",
      "type": "event"
    },
    {
      "anonymous": false,
      "inputs": [
        {
          "indexed": false,
          "internalType": "address",
          "name": "l2Token",
          "type": "address"
        },
        {
          "indexed": true,
          "internalType": "address",
          "name": "from",
          "type": "address"
        },
        {
          "indexed": false,
          "internalType": "uint256",
          "name": "amount",
          "type": "uint256"
        }
      ],
      "name": "ExclusiveSaled",
      "type": "event"
    },
    {
      "anonymous": false,
      "inputs": [
        {
          "indexed": false,
          "internalType": "address",
          "name": "l2Token",
          "type": "address"
        },
        {
          "indexed": true,
          "internalType": "address",
          "name": "from",
          "type": "address"
        },
        {
          "indexed": false,
          "internalType": "uint256",
          "name": "amount",
          "type": "uint256"
        }
      ],
      "name": "Refunded",
      "type": "event"
    },
    {
      "anonymous": false,
      "inputs": [
        {
          "indexed": true,
          "internalType": "bytes32",
          "name": "role",
          "type": "bytes32"
        },
        {
          "indexed": true,
          "internalType": "bytes32",
          "name": "previousAdminRole",
          "type": "bytes32"
        },
        {
          "indexed": true,
          "internalType": "bytes32",
          "name": "newAdminRole",
          "type": "bytes32"
        }
      ],
      "name": "RoleAdminChanged",
      "type": "event"
    },
    {
      "anonymous": false,
      "inputs": [
        {
          "indexed": true,
          "internalType": "bytes32",
          "name": "role",
          "type": "bytes32"
        },
        {
          "indexed": true,
          "internalType": "address",
          "name": "account",
          "type": "address"
        },
        {
          "indexed": true,
          "internalType": "address",
          "name": "sender",
          "type": "address"
        }
      ],
      "name": "RoleGranted",
      "type": "event"
    },
    {
      "anonymous": false,
      "inputs": [
        {
          "indexed": true,
          "internalType": "bytes32",
          "name": "role",
          "type": "bytes32"
        },
        {
          "indexed": true,
          "internalType": "address",
          "name": "account",
          "type": "address"
        },
        {
          "indexed": true,
          "internalType": "address",
          "name": "sender",
          "type": "address"
        }
      ],
      "name": "RoleRevoked",
      "type": "event"
    },
    {
      "anonymous": false,
      "inputs": [
        {
          "indexed": false,
          "internalType": "address",
          "name": "newInitializer",
          "type": "address"
        }
      ],
      "name": "SetInitializer",
      "type": "event"
    },
    {
      "anonymous": false,
      "inputs": [
        {
          "indexed": false,
          "internalType": "address",
          "name": "l2Token",
          "type": "address"
        },
        {
          "indexed": false,
          "internalType": "address",
          "name": "newAdmin",
          "type": "address"
        }
      ],
      "name": "SetVaultAdmin",
      "type": "event"
    },
    {
      "inputs": [],
      "name": "ADMIN_ROLE",
      "outputs": [
        {
          "internalType": "bytes32",
          "name": "",
          "type": "bytes32"
        }
      ],
      "stateMutability": "view",
      "type": "function"
    },
    {
      "inputs": [],
      "name": "DEFAULT_ADMIN_ROLE",
      "outputs": [
        {
          "internalType": "bytes32",
          "name": "",
          "type": "bytes32"
        }
      ],
      "stateMutability": "view",
      "type": "function"
    },
    {
      "inputs": [],
      "name": "POLICY_ROLE",
      "outputs": [
        {
          "internalType": "bytes32",
          "name": "",
          "type": "bytes32"
        }
      ],
      "stateMutability": "view",
      "type": "function"
    },
    {
      "inputs": [
        {
          "internalType": "address",
          "name": "account",
          "type": "address"
        }
      ],
      "name": "addAdmin",
      "outputs": [],
      "stateMutability": "nonpayable",
      "type": "function"
    },
    {
      "inputs": [
        {
          "internalType": "address",
          "name": "_l2token",
          "type": "address"
        }
      ],
      "name": "addWhiteList",
      "outputs": [],
      "stateMutability": "nonpayable",
      "type": "function"
    },
    {
      "inputs": [
        {
          "internalType": "address",
          "name": "",
          "type": "address"
        }
      ],
      "name": "aliveImplementation",
      "outputs": [
        {
          "internalType": "bool",
          "name": "",
          "type": "bool"
        }
      ],
      "stateMutability": "view",
      "type": "function"
    },
    {
      "inputs": [
        {
          "internalType": "address",
          "name": "_l2token",
          "type": "address"
        },
        {
          "internalType": "address",
          "name": "_account",
          "type": "address"
        }
      ],
      "name": "calcul1RoundAmount",
      "outputs": [
        {
          "internalType": "uint256",
          "name": "",
          "type": "uint256"
        }
      ],
      "stateMutability": "view",
      "type": "function"
    },
    {
      "inputs": [
        {
          "internalType": "address",
          "name": "_l2token",
          "type": "address"
        },
        {
          "internalType": "address",
          "name": "_account",
          "type": "address"
        },
        {
          "internalType": "uint256",
          "name": "_round",
          "type": "uint256"
        }
      ],
      "name": "calculClaimAmount",
      "outputs": [
        {
          "internalType": "uint256",
          "name": "_reward",
          "type": "uint256"
        },
        {
          "internalType": "uint256",
          "name": "_totalClaim",
          "type": "uint256"
        },
        {
          "internalType": "uint256",
          "name": "_refundAmount",
          "type": "uint256"
        }
      ],
      "stateMutability": "view",
      "type": "function"
    },
    {
      "inputs": [
        {
          "internalType": "address",
          "name": "_l2token",
          "type": "address"
        },
        {
          "internalType": "address",
          "name": "_account",
          "type": "address"
        },
        {
          "internalType": "uint256",
          "name": "_amount",
          "type": "uint256"
        }
      ],
      "name": "calculOpenSaleAmount",
      "outputs": [
        {
          "internalType": "uint256",
          "name": "",
          "type": "uint256"
        }
      ],
      "stateMutability": "view",
      "type": "function"
    },
    {
      "inputs": [
        {
          "internalType": "address",
          "name": "_l2token",
          "type": "address"
        },
        {
          "internalType": "uint256",
          "name": "_amount",
          "type": "uint256"
        }
      ],
      "name": "calculPayToken",
      "outputs": [
        {
          "internalType": "uint256",
          "name": "",
          "type": "uint256"
        }
      ],
      "stateMutability": "view",
      "type": "function"
    },
    {
      "inputs": [
        {
          "internalType": "address",
          "name": "_l2token",
          "type": "address"
        },
        {
          "internalType": "uint256",
          "name": "_amount",
          "type": "uint256"
        }
      ],
      "name": "calculSaleToken",
      "outputs": [
        {
          "internalType": "uint256",
          "name": "",
          "type": "uint256"
        }
      ],
      "stateMutability": "view",
      "type": "function"
    },
    {
      "inputs": [
        {
          "internalType": "address",
          "name": "_l2token",
          "type": "address"
        },
        {
          "internalType": "address",
          "name": "_account",
          "type": "address"
        }
      ],
      "name": "calculTier",
      "outputs": [
        {
          "internalType": "uint8",
          "name": "",
          "type": "uint8"
        }
      ],
      "stateMutability": "view",
      "type": "function"
    },
    {
      "inputs": [
        {
          "internalType": "address",
          "name": "_l2token",
          "type": "address"
        },
        {
          "internalType": "address",
          "name": "_account",
          "type": "address"
        },
        {
          "internalType": "uint8",
          "name": "tier",
          "type": "uint8"
        }
      ],
      "name": "calculTierAmount",
      "outputs": [
        {
          "internalType": "uint256",
          "name": "",
          "type": "uint256"
        }
      ],
      "stateMutability": "view",
      "type": "function"
    },
    {
      "inputs": [],
      "name": "changeTick",
      "outputs": [
        {
          "internalType": "int24",
          "name": "",
          "type": "int24"
        }
      ],
      "stateMutability": "view",
      "type": "function"
    },
    {
      "inputs": [
        {
          "internalType": "address",
          "name": "_l2token",
          "type": "address"
        }
      ],
      "name": "claim",
      "outputs": [],
      "stateMutability": "nonpayable",
      "type": "function"
    },
    {
      "inputs": [
        {
          "internalType": "address",
          "name": "",
          "type": "address"
        }
      ],
      "name": "claimInfo",
      "outputs": [
        {
          "internalType": "uint256",
          "name": "totalClaimCounts",
          "type": "uint256"
        },
        {
          "internalType": "uint256",
          "name": "firstClaimPercent",
          "type": "uint256"
        },
        {
          "internalType": "uint256",
          "name": "firstClaimTime",
          "type": "uint256"
        },
        {
          "internalType": "uint256",
          "name": "secondClaimTime",
          "type": "uint256"
        },
        {
          "internalType": "uint256",
          "name": "claimInterval",
          "type": "uint256"
        }
      ],
      "stateMutability": "view",
      "type": "function"
    },
    {
      "inputs": [
        {
          "internalType": "address",
          "name": "",
          "type": "address"
        },
        {
          "internalType": "uint256",
          "name": "",
          "type": "uint256"
        }
      ],
      "name": "claimPercents",
      "outputs": [
        {
          "internalType": "uint256",
          "name": "",
          "type": "uint256"
        }
      ],
      "stateMutability": "view",
      "type": "function"
    },
    {
      "inputs": [
        {
          "internalType": "address",
          "name": "",
          "type": "address"
        },
        {
          "internalType": "uint256",
          "name": "",
          "type": "uint256"
        }
      ],
      "name": "claimTimes",
      "outputs": [
        {
          "internalType": "uint256",
          "name": "",
          "type": "uint256"
        }
      ],
      "stateMutability": "view",
      "type": "function"
    },
    {
      "inputs": [
        {
          "internalType": "address",
          "name": "_l2token",
          "type": "address"
        }
      ],
      "name": "currentRound",
      "outputs": [
        {
          "internalType": "uint256",
          "name": "round",
          "type": "uint256"
        }
      ],
      "stateMutability": "view",
      "type": "function"
    },
    {
      "inputs": [],
      "name": "delayTime",
      "outputs": [
        {
          "internalType": "uint256",
          "name": "",
          "type": "uint256"
        }
      ],
      "stateMutability": "view",
      "type": "function"
    },
    {
      "inputs": [
        {
          "internalType": "address",
          "name": "_l2token",
          "type": "address"
        }
      ],
      "name": "depositWithdraw",
      "outputs": [],
      "stateMutability": "payable",
      "type": "function"
    },
    {
      "inputs": [
        {
          "internalType": "address",
          "name": "",
          "type": "address"
        },
        {
          "internalType": "uint256",
          "name": "",
          "type": "uint256"
        }
      ],
      "name": "depositors",
      "outputs": [
        {
          "internalType": "address",
          "name": "",
          "type": "address"
        }
      ],
      "stateMutability": "view",
      "type": "function"
    },
    {
      "inputs": [
        {
          "internalType": "address",
          "name": "_l2token",
          "type": "address"
        },
        {
          "internalType": "uint256",
          "name": "amountIn",
          "type": "uint256"
        }
      ],
      "name": "exchangeWTONtoTOS",
      "outputs": [],
      "stateMutability": "payable",
      "type": "function"
    },
    {
      "inputs": [
        {
          "internalType": "bytes32",
          "name": "role",
          "type": "bytes32"
        }
      ],
      "name": "getRoleAdmin",
      "outputs": [
        {
          "internalType": "bytes32",
          "name": "",
          "type": "bytes32"
        }
      ],
      "stateMutability": "view",
      "type": "function"
    },
    {
      "inputs": [
        {
          "internalType": "bytes32",
          "name": "role",
          "type": "bytes32"
        },
        {
          "internalType": "address",
          "name": "account",
          "type": "address"
        }
      ],
      "name": "grantRole",
      "outputs": [],
      "stateMutability": "nonpayable",
      "type": "function"
    },
    {
      "inputs": [
        {
          "internalType": "address",
          "name": "_l2token",
          "type": "address"
        }
      ],
      "name": "hardcapCalcul",
      "outputs": [
        {
          "internalType": "uint256",
          "name": "",
          "type": "uint256"
        }
      ],
      "stateMutability": "view",
      "type": "function"
    },
    {
      "inputs": [
        {
          "internalType": "bytes32",
          "name": "role",
          "type": "bytes32"
        },
        {
          "internalType": "address",
          "name": "account",
          "type": "address"
        }
      ],
      "name": "hasRole",
      "outputs": [
        {
          "internalType": "bool",
          "name": "",
          "type": "bool"
        }
      ],
      "stateMutability": "view",
      "type": "function"
    },
    {
      "inputs": [
        {
          "internalType": "address",
          "name": "account",
          "type": "address"
        }
      ],
      "name": "isAdmin",
      "outputs": [
        {
          "internalType": "bool",
          "name": "",
          "type": "bool"
        }
      ],
      "stateMutability": "view",
      "type": "function"
    },
    {
      "inputs": [],
      "name": "l1burnVault",
      "outputs": [
        {
          "internalType": "address",
          "name": "",
          "type": "address"
        }
      ],
      "stateMutability": "view",
      "type": "function"
    },
    {
      "inputs": [],
      "name": "l2Bridge",
      "outputs": [
        {
          "internalType": "address",
          "name": "",
          "type": "address"
        }
      ],
      "stateMutability": "view",
      "type": "function"
    },
    {
      "inputs": [],
      "name": "l2ProjectManager",
      "outputs": [
        {
          "internalType": "address",
          "name": "",
          "type": "address"
        }
      ],
      "stateMutability": "view",
      "type": "function"
    },
    {
      "inputs": [],
      "name": "liquidityVault",
      "outputs": [
        {
          "internalType": "address",
          "name": "",
          "type": "address"
        }
      ],
      "stateMutability": "view",
      "type": "function"
    },
    {
      "inputs": [],
      "name": "lockTOS",
      "outputs": [
        {
          "internalType": "address",
          "name": "",
          "type": "address"
        }
      ],
      "stateMutability": "view",
      "type": "function"
    },
    {
      "inputs": [
        {
          "internalType": "address",
          "name": "",
          "type": "address"
        }
      ],
      "name": "manageInfo",
      "outputs": [
        {
          "internalType": "uint256",
          "name": "set1rdTokenAmount",
          "type": "uint256"
        },
        {
          "internalType": "uint256",
          "name": "set2rdTokenAmount",
          "type": "uint256"
        },
        {
          "internalType": "uint256",
          "name": "saleTokenPrice",
          "type": "uint256"
        },
        {
          "internalType": "uint256",
          "name": "tonPrice",
          "type": "uint256"
        },
        {
          "internalType": "uint256",
          "name": "hardCap",
          "type": "uint256"
        },
        {
          "internalType": "uint256",
          "name": "changeTOS",
          "type": "uint256"
        },
        {
          "internalType": "uint256",
          "name": "remainTON",
          "type": "uint256"
        },
        {
          "internalType": "int24",
          "name": "changeTick",
          "type": "int24"
        },
        {
          "internalType": "bool",
          "name": "exchangeTOS",
          "type": "bool"
        },
        {
          "internalType": "bool",
          "name": "adminWithdraw",
          "type": "bool"
        }
      ],
      "stateMutability": "view",
      "type": "function"
    },
    {
      "inputs": [],
      "name": "maxPer",
      "outputs": [
        {
          "internalType": "uint8",
          "name": "",
          "type": "uint8"
        }
      ],
      "stateMutability": "view",
      "type": "function"
    },
    {
      "inputs": [],
      "name": "minPer",
      "outputs": [
        {
          "internalType": "uint8",
          "name": "",
          "type": "uint8"
        }
      ],
      "stateMutability": "view",
      "type": "function"
    },
    {
      "inputs": [
        {
          "internalType": "address",
          "name": "_l2token",
          "type": "address"
        },
        {
          "internalType": "address",
          "name": "user",
          "type": "address"
        }
      ],
      "name": "openSaleUserAmount",
      "outputs": [
        {
          "internalType": "uint256",
          "name": "_realPayAmount",
          "type": "uint256"
        },
        {
          "internalType": "uint256",
          "name": "_realSaleAmount",
          "type": "uint256"
        },
        {
          "internalType": "uint256",
          "name": "_refundAmount",
          "type": "uint256"
        }
      ],
      "stateMutability": "view",
      "type": "function"
    },
    {
      "inputs": [],
      "name": "pauseProxy",
      "outputs": [
        {
          "internalType": "bool",
          "name": "",
          "type": "bool"
        }
      ],
      "stateMutability": "view",
      "type": "function"
    },
    {
      "inputs": [],
      "name": "poolFee",
      "outputs": [
        {
          "internalType": "uint24",
          "name": "",
          "type": "uint24"
        }
      ],
      "stateMutability": "view",
      "type": "function"
    },
    {
      "inputs": [
        {
          "internalType": "uint256",
          "name": "",
          "type": "uint256"
        }
      ],
      "name": "proxyImplementation",
      "outputs": [
        {
          "internalType": "address",
          "name": "",
          "type": "address"
        }
      ],
      "stateMutability": "view",
      "type": "function"
    },
    {
      "inputs": [],
      "name": "quoter",
      "outputs": [
        {
          "internalType": "address",
          "name": "",
          "type": "address"
        }
      ],
      "stateMutability": "view",
      "type": "function"
    },
    {
      "inputs": [
        {
          "internalType": "address",
          "name": "account",
          "type": "address"
        }
      ],
      "name": "removeAdmin",
      "outputs": [],
      "stateMutability": "nonpayable",
      "type": "function"
    },
    {
      "inputs": [
        {
          "internalType": "bytes32",
          "name": "role",
          "type": "bytes32"
        },
        {
          "internalType": "address",
          "name": "account",
          "type": "address"
        }
      ],
      "name": "renounceRole",
      "outputs": [],
      "stateMutability": "nonpayable",
      "type": "function"
    },
    {
      "inputs": [
        {
          "internalType": "bytes32",
          "name": "role",
          "type": "bytes32"
        },
        {
          "internalType": "address",
          "name": "account",
          "type": "address"
        }
      ],
      "name": "revokeRole",
      "outputs": [],
      "stateMutability": "nonpayable",
      "type": "function"
    },
    {
      "inputs": [
        {
          "internalType": "address",
          "name": "_l2token",
          "type": "address"
        }
      ],
      "name": "round1Sale",
      "outputs": [],
      "stateMutability": "payable",
      "type": "function"
    },
    {
      "inputs": [
        {
          "internalType": "address",
          "name": "_l2token",
          "type": "address"
        },
        {
          "internalType": "uint256",
          "name": "_amount",
          "type": "uint256"
        }
      ],
      "name": "round2Sale",
      "outputs": [],
      "stateMutability": "payable",
      "type": "function"
    },
    {
      "inputs": [
        {
          "internalType": "address",
          "name": "",
          "type": "address"
        }
      ],
      "name": "saleInfo",
      "outputs": [
        {
          "internalType": "uint256",
          "name": "total1rdSaleAmount",
          "type": "uint256"
        },
        {
          "internalType": "uint256",
          "name": "total1rdTONAmount",
          "type": "uint256"
        },
        {
          "internalType": "uint256",
          "name": "totalUsers",
          "type": "uint256"
        },
        {
          "internalType": "uint256",
          "name": "total1rdUsers",
          "type": "uint256"
        },
        {
          "internalType": "uint256",
          "name": "total2rdUsers",
          "type": "uint256"
        },
        {
          "internalType": "uint256",
          "name": "total2rdUsersClaim",
          "type": "uint256"
        }
      ],
      "stateMutability": "view",
      "type": "function"
    },
    {
      "inputs": [
        {
          "internalType": "bytes4",
          "name": "",
          "type": "bytes4"
        }
      ],
      "name": "selectorImplementation",
      "outputs": [
        {
          "internalType": "address",
          "name": "",
          "type": "address"
        }
      ],
      "stateMutability": "view",
      "type": "function"
    },
    {
      "inputs": [],
      "name": "stanTier1",
      "outputs": [
        {
          "internalType": "uint256",
          "name": "",
          "type": "uint256"
        }
      ],
      "stateMutability": "view",
      "type": "function"
    },
    {
      "inputs": [],
      "name": "stanTier2",
      "outputs": [
        {
          "internalType": "uint256",
          "name": "",
          "type": "uint256"
        }
      ],
      "stateMutability": "view",
      "type": "function"
    },
    {
      "inputs": [],
      "name": "stanTier3",
      "outputs": [
        {
          "internalType": "uint256",
          "name": "",
          "type": "uint256"
        }
      ],
      "stateMutability": "view",
      "type": "function"
    },
    {
      "inputs": [],
      "name": "stanTier4",
      "outputs": [
        {
          "internalType": "uint256",
          "name": "",
          "type": "uint256"
        }
      ],
      "stateMutability": "view",
      "type": "function"
    },
    {
      "inputs": [
        {
          "internalType": "bytes4",
          "name": "interfaceId",
          "type": "bytes4"
        }
      ],
      "name": "supportsInterface",
      "outputs": [
        {
          "internalType": "bool",
          "name": "",
          "type": "bool"
        }
      ],
      "stateMutability": "view",
      "type": "function"
    },
    {
      "inputs": [
        {
          "internalType": "address",
          "name": "",
          "type": "address"
        },
        {
          "internalType": "uint8",
          "name": "",
          "type": "uint8"
        }
      ],
      "name": "tiers",
      "outputs": [
        {
          "internalType": "uint256",
          "name": "",
          "type": "uint256"
        }
      ],
      "stateMutability": "view",
      "type": "function"
    },
    {
      "inputs": [
        {
          "internalType": "address",
          "name": "",
          "type": "address"
        },
        {
          "internalType": "uint8",
          "name": "",
          "type": "uint8"
        }
      ],
      "name": "tiers1stAccount",
      "outputs": [
        {
          "internalType": "uint256",
          "name": "",
          "type": "uint256"
        }
      ],
      "stateMutability": "view",
      "type": "function"
    },
    {
      "inputs": [
        {
          "internalType": "address",
          "name": "",
          "type": "address"
        },
        {
          "internalType": "uint8",
          "name": "",
          "type": "uint8"
        }
      ],
      "name": "tiersCalculAccount",
      "outputs": [
        {
          "internalType": "uint256",
          "name": "",
          "type": "uint256"
        }
      ],
      "stateMutability": "view",
      "type": "function"
    },
    {
      "inputs": [
        {
          "internalType": "address",
          "name": "",
          "type": "address"
        },
        {
          "internalType": "uint8",
          "name": "",
          "type": "uint8"
        }
      ],
      "name": "tiersPercents",
      "outputs": [
        {
          "internalType": "uint256",
          "name": "",
          "type": "uint256"
        }
      ],
      "stateMutability": "view",
      "type": "function"
    },
    {
      "inputs": [
        {
          "internalType": "address",
          "name": "",
          "type": "address"
        },
        {
          "internalType": "uint8",
          "name": "",
          "type": "uint8"
        }
      ],
      "name": "tiersWhiteList",
      "outputs": [
        {
          "internalType": "uint256",
          "name": "",
          "type": "uint256"
        }
      ],
      "stateMutability": "view",
      "type": "function"
    },
    {
      "inputs": [
        {
          "internalType": "address",
          "name": "",
          "type": "address"
        }
      ],
      "name": "timeInfo",
      "outputs": [
        {
          "internalType": "uint256",
          "name": "deployTime",
          "type": "uint256"
        },
        {
          "internalType": "uint256",
          "name": "snapshot",
          "type": "uint256"
        },
        {
          "internalType": "uint256",
          "name": "whiteListStartTime",
          "type": "uint256"
        },
        {
          "internalType": "uint256",
          "name": "whiteListEndTime",
          "type": "uint256"
        },
        {
          "internalType": "uint256",
          "name": "round1StartTime",
          "type": "uint256"
        },
        {
          "internalType": "uint256",
          "name": "round1EndTime",
          "type": "uint256"
        },
        {
          "internalType": "uint256",
          "name": "round2StartTime",
          "type": "uint256"
        },
        {
          "internalType": "uint256",
          "name": "round2EndTime",
          "type": "uint256"
        }
      ],
      "stateMutability": "view",
      "type": "function"
    },
    {
      "inputs": [],
      "name": "ton",
      "outputs": [
        {
          "internalType": "address",
          "name": "",
          "type": "address"
        }
      ],
      "stateMutability": "view",
      "type": "function"
    },
    {
      "inputs": [],
      "name": "tos",
      "outputs": [
        {
          "internalType": "address",
          "name": "",
          "type": "address"
        }
      ],
      "stateMutability": "view",
      "type": "function"
    },
    {
      "inputs": [
        {
          "internalType": "address",
          "name": "",
          "type": "address"
        }
      ],
      "name": "totalDepositAmount",
      "outputs": [
        {
          "internalType": "uint256",
          "name": "",
          "type": "uint256"
        }
      ],
      "stateMutability": "view",
      "type": "function"
    },
    {
      "inputs": [
        {
          "internalType": "address",
          "name": "_l2token",
          "type": "address"
        }
      ],
      "name": "totalExpectOpenSaleAmountView",
      "outputs": [
        {
          "internalType": "uint256",
          "name": "",
          "type": "uint256"
        }
      ],
      "stateMutability": "view",
      "type": "function"
    },
    {
      "inputs": [
        {
          "internalType": "address",
          "name": "_l2token",
          "type": "address"
        }
      ],
      "name": "totalOpenPurchasedAmount",
      "outputs": [
        {
          "internalType": "uint256",
          "name": "",
          "type": "uint256"
        }
      ],
      "stateMutability": "view",
      "type": "function"
    },
    {
      "inputs": [
        {
          "internalType": "address",
          "name": "_l2token",
          "type": "address"
        }
      ],
      "name": "totalOpenSaleAmount",
      "outputs": [
        {
          "internalType": "uint256",
          "name": "",
          "type": "uint256"
        }
      ],
      "stateMutability": "view",
      "type": "function"
    },
    {
      "inputs": [
        {
          "internalType": "address",
          "name": "_l2token",
          "type": "address"
        }
      ],
      "name": "totalRound1NonSaleAmount",
      "outputs": [
        {
          "internalType": "uint256",
          "name": "",
          "type": "uint256"
        }
      ],
      "stateMutability": "view",
      "type": "function"
    },
    {
      "inputs": [
        {
          "internalType": "address",
          "name": "_l2token",
          "type": "address"
        },
        {
          "internalType": "address",
          "name": "user",
          "type": "address"
        }
      ],
      "name": "totalSaleUserAmount",
      "outputs": [
        {
          "internalType": "uint256",
          "name": "_realPayAmount",
          "type": "uint256"
        },
        {
          "internalType": "uint256",
          "name": "_realSaleAmount",
          "type": "uint256"
        },
        {
          "internalType": "uint256",
          "name": "_refundAmount",
          "type": "uint256"
        }
      ],
      "stateMutability": "view",
      "type": "function"
    },
    {
      "inputs": [
        {
          "internalType": "address",
          "name": "_l2token",
          "type": "address"
        }
      ],
      "name": "totalWhitelists",
      "outputs": [
        {
          "internalType": "uint256",
          "name": "",
          "type": "uint256"
        }
      ],
      "stateMutability": "view",
      "type": "function"
    },
    {
      "inputs": [
        {
          "internalType": "address",
          "name": "newAdmin",
          "type": "address"
        }
      ],
      "name": "transferAdmin",
      "outputs": [],
      "stateMutability": "nonpayable",
      "type": "function"
    },
    {
      "inputs": [],
      "name": "uniswapRouter",
      "outputs": [
        {
          "internalType": "address",
          "name": "",
          "type": "address"
        }
      ],
      "stateMutability": "view",
      "type": "function"
    },
    {
      "inputs": [
        {
          "internalType": "address",
          "name": "",
          "type": "address"
        },
        {
          "internalType": "address",
          "name": "",
          "type": "address"
        }
      ],
      "name": "user1rd",
      "outputs": [
        {
          "internalType": "bool",
          "name": "join",
          "type": "bool"
        },
        {
          "internalType": "uint8",
          "name": "tier",
          "type": "uint8"
        },
        {
          "internalType": "uint256",
          "name": "payAmount",
          "type": "uint256"
        },
        {
          "internalType": "uint256",
          "name": "saleAmount",
          "type": "uint256"
        }
      ],
      "stateMutability": "view",
      "type": "function"
    },
    {
      "inputs": [
        {
          "internalType": "address",
          "name": "",
          "type": "address"
        },
        {
          "internalType": "address",
          "name": "",
          "type": "address"
        }
      ],
      "name": "user2rd",
      "outputs": [
        {
          "internalType": "bool",
          "name": "join",
          "type": "bool"
        },
        {
          "internalType": "uint256",
          "name": "depositAmount",
          "type": "uint256"
        }
      ],
      "stateMutability": "view",
      "type": "function"
    },
    {
      "inputs": [
        {
          "internalType": "address",
          "name": "",
          "type": "address"
        },
        {
          "internalType": "address",
          "name": "",
          "type": "address"
        }
      ],
      "name": "userClaim",
      "outputs": [
        {
          "internalType": "bool",
          "name": "refund",
          "type": "bool"
        },
        {
          "internalType": "uint256",
          "name": "claimAmount",
          "type": "uint256"
        },
        {
          "internalType": "uint256",
          "name": "refundAmount",
          "type": "uint256"
        },
        {
          "internalType": "uint256",
          "name": "latestClaimedRound",
          "type": "uint256"
        }
      ],
      "stateMutability": "view",
      "type": "function"
    },
    {
      "inputs": [
        {
          "internalType": "address",
          "name": "",
          "type": "address"
        }
      ],
      "name": "vaultAdminOfToken",
      "outputs": [
        {
          "internalType": "address",
          "name": "",
          "type": "address"
        }
      ],
      "stateMutability": "view",
      "type": "function"
    },
    {
      "inputs": [],
      "name": "vestingFund",
      "outputs": [
        {
          "internalType": "address",
          "name": "",
          "type": "address"
        }
      ],
      "stateMutability": "view",
      "type": "function"
    },
    {
      "inputs": [
        {
          "internalType": "address",
          "name": "",
          "type": "address"
        },
        {
          "internalType": "uint256",
          "name": "",
          "type": "uint256"
        }
      ],
      "name": "whitelists",
      "outputs": [
        {
          "internalType": "address",
          "name": "",
          "type": "address"
        }
      ],
      "stateMutability": "view",
      "type": "function"
    },
    {
      "inputs": [],
      "name": "wton",
      "outputs": [
        {
          "internalType": "address",
          "name": "",
          "type": "address"
        }
      ],
      "stateMutability": "view",
      "type": "function"
    }
  ],
  "bytecode": "0x60806040526014805463ff0000001916630100000017905534801561002357600080fd5b5061559080620000346000396000f3fe6080604052600436106105225760003560e01c8063708666ad116102af578063ae1f6aaf11610179578063d01481a1116100d6578063dc560fcd1161008a578063ef39b1491161006f578063ef39b1491461129f578063f3b08cb9146112bf578063f7e6e1ab146112df57600080fd5b8063dc560fcd14611269578063e7cd4a041461127f57600080fd5b8063d547741f116100bb578063d547741f1461115a578063d7b0b29d1461117a578063d97830b1146111f757600080fd5b8063d01481a114611102578063d13da4441461112257600080fd5b8063c0f22d4b1161012d578063c6bbd5a711610112578063c6bbd5a714611095578063cc48b947146110b5578063cf437a8f146110d557600080fd5b8063c0f22d4b14611055578063c3ce874e1461107557600080fd5b8063b0a5ccd11161015e578063b0a5ccd114610fdf578063b911135f14610fff578063b9e982bb1461103557600080fd5b8063ae1f6aaf14610f26578063b005ed9114610f4657600080fd5b80638d62d949116102275780639f87b77f116101db578063a389595f116101c0578063a389595f14610eb4578063a7b23fcf14610ee6578063ac3e8aa914610f0657600080fd5b80639f87b77f14610e89578063a217fddf14610e9f57600080fd5b806396e6f43f1161020c57806396e6f43f14610e0457806397d7859514610e245780639f32b29a14610e5157600080fd5b80638d62d94914610d9657806391d1485414610dbe57600080fd5b8063768b821f1161027e5780637fc46ba8116102635780637fc46ba814610cc957806389293f6514610cff57806389f395de14610d7657600080fd5b8063768b821f14610c9d5780637e2eee5314610cb357600080fd5b8063708666ad14610c09578063735de9f714610c2957806375829def14610c4957806375b238fc14610c6957600080fd5b80632f2ff15d116103f057806352351e85116103685780635f6ceddb1161031c57806363a8fd891161030157806363a8fd8914610bbc5780636e2272a214610bd65780637048027514610be957600080fd5b80635f6ceddb14610b895780636100a72114610b9c57600080fd5b806355d6d39b1161034d57806355d6d39b14610b115780635af3909214610b495780635b19e29414610b6957600080fd5b806352351e8514610ac1578063550d01a314610ae157600080fd5b806336568abe116103bf5780634e6c4466116103a45780634e6c446614610a5557806350d2a27614610a7557806351ebde6d14610aab57600080fd5b806336568abe14610a15578063466c01b814610a3557600080fd5b80632f2ff15d1461096857806330ba46591461098857806331bf2897146109a857806333efca3d146109bb57600080fd5b80631916e5341161049e578063248a9ca3116104525780632a13ed1b116104375780632a13ed1b146108fd5780632ac9bab6146109105780632bde5bfb1461094857600080fd5b8063248a9ca3146108ad57806324d7806c146108dd57600080fd5b80631d823697116104835780631d823697146108395780631e83409a14610859578063229852461461087957600080fd5b80631916e534146107815780631c53f256146107f457600080fd5b80630b7459eb116104f55780631576baf4116104da5780631576baf4146107095780631784b3a6146107295780631785f53c1461075f57600080fd5b80630b7459eb1461068b57806312269758146106c357600080fd5b806301ffc9a714610527578063089fe6aa1461055c57806308ac3fcb14610586578063096cc41814610650575b600080fd5b34801561053357600080fd5b50610547610542366004614d74565b6112ff565b60405190151581526020015b60405180910390f35b34801561056857600080fd5b50610572610bb881565b60405162ffffff9091168152602001610553565b34801561059257600080fd5b506105ff6105a1366004614db3565b601c6020526000908152604090208054600182015460028084015460038501546004860154600587015460068801546007909801549697959693959294919390929181900b9060ff630100000082048116916401000000009004168a565b604080519a8b5260208b0199909952978901969096526060880194909452608087019290925260a086015260c085015260020b60e08401521515610100830152151561012082015261014001610553565b34801561065c57600080fd5b5061067061066b366004614dd0565b611336565b60408051938452602084019290925290820152606001610553565b34801561069757600080fd5b506006546106ab906001600160a01b031681565b6040516001600160a01b039091168152602001610553565b3480156106cf57600080fd5b506106fb6106de366004614e20565b602360209081526000928352604080842090915290825290205481565b604051908152602001610553565b34801561071557600080fd5b506106fb610724366004614db3565b611597565b34801561073557600080fd5b506106fb610744366004614db3565b6001600160a01b031660009081526018602052604090205490565b34801561076b57600080fd5b5061077f61077a366004614db3565b6115e2565b005b34801561078d57600080fd5b506107d261079c366004614e59565b6021602090815260009283526040808420909152908252902080546001820154600283015460039093015460ff90921692909184565b6040805194151585526020850193909352918301526060820152608001610553565b34801561080057600080fd5b50600e54610827907501000000000000000000000000000000000000000000900460ff1681565b60405160ff9091168152602001610553565b34801561084557600080fd5b50610827610854366004614e59565b611674565b34801561086557600080fd5b5061077f610874366004614db3565b611a9e565b34801561088557600080fd5b506106fb7ffb5864e8ff833c3cb2d2d08505e82ff02a43554c74a35d4f5a64e8526127831181565b3480156108b957600080fd5b506106fb6108c8366004614e87565b60009081526004602052604090206001015490565b3480156108e957600080fd5b506105476108f8366004614db3565b612049565b61077f61090b366004614ea0565b612089565b34801561091c57600080fd5b506106fb61092b366004614e20565b602660209081526000928352604080842090915290825290205481565b34801561095457600080fd5b506106fb610963366004614db3565b612390565b34801561097457600080fd5b5061077f610983366004614ecc565b6124e0565b34801561099457600080fd5b506106fb6109a3366004614db3565b61250a565b61077f6109b6366004614ea0565b612577565b3480156109c757600080fd5b506109fe6109d6366004614e59565b6020808052600092835260408084209091529082529020805460019091015460ff9091169082565b604080519215158352602083019190915201610553565b348015610a2157600080fd5b5061077f610a30366004614ecc565b612da8565b348015610a4157600080fd5b506106ab610a50366004614ea0565b612e34565b348015610a6157600080fd5b506009546106ab906001600160a01b031681565b348015610a8157600080fd5b506106ab610a90366004614d74565b6003602052600090815260409020546001600160a01b031681565b348015610ab757600080fd5b506106fb60115481565b348015610acd57600080fd5b50600c546106ab906001600160a01b031681565b348015610aed57600080fd5b50610547610afc366004614db3565b60026020526000908152604090205460ff1681565b348015610b1d57600080fd5b506106fb610b2c366004614e20565b602460209081526000928352604080842090915290825290205481565b348015610b5557600080fd5b506106fb610b64366004614e59565b612e6c565b348015610b7557600080fd5b506106ab610b84366004614ea0565b612ecf565b61077f610b97366004614db3565b612eeb565b348015610ba857600080fd5b506106fb610bb7366004614ea0565b61328a565b348015610bc857600080fd5b506000546105479060ff1681565b61077f610be4366004614db3565b613347565b348015610bf557600080fd5b5061077f610c04366004614db3565b61371a565b348015610c1557600080fd5b506007546106ab906001600160a01b031681565b348015610c3557600080fd5b506008546106ab906001600160a01b031681565b348015610c5557600080fd5b5061077f610c64366004614db3565b6137a4565b348015610c7557600080fd5b506106fb7fdf8b4c520ffe197c5343c6f5aec59570151ef9a492f2c624fd45ddde6135ec4281565b348015610ca957600080fd5b506106fb60105481565b348015610cbf57600080fd5b506106fb60135481565b348015610cd557600080fd5b506106ab610ce4366004614db3565b6016602052600090815260409020546001600160a01b031681565b348015610d0b57600080fd5b50610d52610d1a366004614e59565b601f60209081526000928352604080842090915290825290208054600182015460029092015460ff8083169361010090930416919084565b60408051941515855260ff9093166020850152918301526060820152608001610553565b348015610d8257600080fd5b50600a546106ab906001600160a01b031681565b348015610da257600080fd5b506106ab73c4a11aaf6ea915ed7ac194161d2fc9384f15bff281565b348015610dca57600080fd5b50610547610dd9366004614ecc565b60009182526004602090815260408084206001600160a01b0393909316845291905290205460ff1690565b348015610e1057600080fd5b506106fb610e1f366004614ef1565b613906565b348015610e3057600080fd5b506106fb610e3f366004614db3565b60156020526000908152604090205481565b348015610e5d57600080fd5b506106fb610e6c366004614e20565b602560209081526000928352604080842090915290825290205481565b348015610e9557600080fd5b506106fb600f5481565b348015610eab57600080fd5b506106fb600081565b348015610ec057600080fd5b50600e546108279074010000000000000000000000000000000000000000900460ff1681565b348015610ef257600080fd5b506106fb610f01366004614db3565b613b24565b348015610f1257600080fd5b50610670610f21366004614e59565b613bf1565b348015610f3257600080fd5b50600d546106ab906001600160a01b031681565b348015610f5257600080fd5b50610fa4610f61366004614db3565b601b602052600090815260409020805460018201546002830154600384015460048501546005860154600687015460079097015495969495939492939192909188565b604080519889526020890197909752958701949094526060860192909252608085015260a084015260c083015260e082015261010001610553565b348015610feb57600080fd5b506106fb610ffa366004614db3565b613cd2565b34801561100b57600080fd5b506106ab61101a366004614e87565b6001602052600090815260409020546001600160a01b031681565b34801561104157600080fd5b506106fb611050366004614db3565b613e52565b34801561106157600080fd5b506106fb611070366004614ea0565b613f52565b34801561108157600080fd5b506106fb611090366004614ea0565b613f83565b3480156110a157600080fd5b506005546106ab906001600160a01b031681565b3480156110c157600080fd5b50600b546106ab906001600160a01b031681565b3480156110e157600080fd5b506014546110ef9060020b81565b60405160029190910b8152602001610553565b34801561110e57600080fd5b50600e546106ab906001600160a01b031681565b34801561112e57600080fd5b506106fb61113d366004614e20565b602260209081526000928352604080842090915290825290205481565b34801561116657600080fd5b5061077f611175366004614ecc565b61402e565b34801561118657600080fd5b506111ca611195366004614db3565b601e60205260009081526040902080546001820154600283015460038401546004850154600590950154939492939192909186565b604080519687526020870195909552938501929092526060840152608083015260a082015260c001610553565b34801561120357600080fd5b50611241611212366004614db3565b601d60205260009081526040902080546001820154600283015460038401546004909401549293919290919085565b604080519586526020860194909452928401919091526060830152608082015260a001610553565b34801561127557600080fd5b506106fb60125481565b34801561128b57600080fd5b5061077f61129a366004614db3565b614053565b3480156112ab57600080fd5b506106706112ba366004614e59565b61451e565b3480156112cb57600080fd5b506106fb6112da366004614ea0565b6145e1565b3480156112eb57600080fd5b506106fb6112fa366004614dd0565b6145fd565b60006001600160e01b03198216637965db0b60e01b148061133057506301ffc9a760e01b6001600160e01b03198316145b92915050565b6001600160a01b0383166000908152601d60209081526040808320815160a08101835281548152600182015493810193909352600281015491830182905260038101546060840152600401546080830152829182914210156113a35760008060009350935093505061158e565b80518511156113bd5760008060009350935093505061158e565b6001600160a01b038088166000908152602160209081526040808320938a1683529281528282208351608081018552815460ff16151581526001820154928101929092526002810154938201939093526003909201546060830152806114238a8a61451e565b9250925050816000036114445760008060009650965096505050505061158e565b818360200151106114635760008060009650965096505050505061158e565b600061146e8b613b24565b90506000818660000151148015611483575089155b156114a95760208501516114979085614f52565b985092965090945061158e9350505050565b8960000361153957816000036114c9579750919550935061158e92505050565b6127108660200151856114dc9190614f65565b6114e69190614f92565b60208601519091506114f9600184614f52565b875161150790600190614f52565b6115118488614f52565b61151b9190614f92565b6115259190614f65565b61152f9083614fa6565b6114979190614f52565b8960010361155e576127108660200151856115549190614f65565b6114979190614f92565b6127108660200151856115719190614f65565b61157b9190614f92565b60208601519091506114f960018c614f52565b93509350939050565b6001600160a01b03811660009081526015602052604081205481906115bd908490613f83565b905060006115ca84613cd2565b9050808210156115db575092915050565b9392505050565b6115eb33612049565b6116475760405162461bcd60e51b815260206004820152602260248201527f41636365737369626c653a2043616c6c6572206973206e6f7420616e2061646d60448201526134b760f11b60648201526084015b60405180910390fd5b6116717fdf8b4c520ffe197c5343c6f5aec59570151ef9a492f2c624fd45ddde6135ec4282612da8565b50565b6009546000906001600160a01b0316806116b55760405162461bcd60e51b81526020600482015260026024820152612d1960f11b604482015260640161163e565b6001600160a01b0384166000908152602260209081526040808320600184529091528120549081900361170f5760405162461bcd60e51b81526020600482015260026024820152615a3160f01b604482015260640161163e565b6001600160a01b038516600090815260226020908152604080832060028452909152812054908190036117695760405162461bcd60e51b81526020600482015260026024820152615a3160f01b604482015260640161163e565b6001600160a01b038616600090815260226020908152604080832060038452909152812054908190036117c35760405162461bcd60e51b81526020600482015260026024820152615a3160f01b604482015260640161163e565b6001600160a01b0387166000908152602260209081526040808320600484529091528120549081900361181d5760405162461bcd60e51b81526020600482015260026024820152615a3160f01b604482015260640161163e565b6001600160a01b038881166000908152601b60209081526040808320815161010081018352815481526001820154938101849052600282015481840152600382015460608201526004808301546080830152600583015460a0830152600683015460c083015260079092015460e0820152600954925163277166bf60e11b81528d871692810192909252602482019390935291931690634ee2cd7e90604401602060405180830381865afa1580156118d9573d6000803e3d6000fd5b505050506040513d601f19601f820116820180604052508101906118fd9190614fb9565b6001600160a01b038b1660009081526022602090815260408083206001845290915281205491925090821080159061195857506001600160a01b038b1660009081526022602090815260408083206002845290915290205482105b1561196557506001611a90565b6001600160a01b038b1660009081526022602090815260408083206002845290915290205482108015906119bc57506001600160a01b038b1660009081526022602090815260408083206003845290915290205482105b156119c957506002611a90565b6001600160a01b038b166000908152602260209081526040808320600384529091529020548210801590611a2057506001600160a01b038b1660009081526022602090815260408083206004845290915290205482105b15611a2d57506003611a90565b6001600160a01b038b166000908152602260209081526040808320600484529091529020548210611a6057506004611a90565b6001600160a01b038b16600090815260226020908152604080832060018452909152902054821015611a90575060005b9a9950505050505050505050565b6001600160a01b0381166000908152601d6020908152604091829020825160a0810184528154815260018201549281019290925260028101549282018390526003810154606083015260040154608082015290421015611b405760405162461bcd60e51b815260206004820152600d60248201527f6e6f7420636c61696d54696d6500000000000000000000000000000000000000604482015260640161163e565b6001600160a01b0382166000818152602080805260408083203380855290835281842094845260218352818420908452909152812090611b7f85612390565b905080600003611c9057815460ff161515600103611bdf5760405162461bcd60e51b815260206004820152601160248201527f616c726561647920676574526566756e64000000000000000000000000000000604482015260640161163e565b6001600160a01b0385166000908152601f60209081526040808320338452909152812060018086015490820154919291611c199190614fa6565b845460ff1916600117855560028501819055600b54909150611c45906001600160a01b0316338361469e565b604080516001600160a01b03891681526020810183905233917fec1e5ed733e00f1a00915d56caef57b4f52312dde4f9b3165f213319a0da156b910160405180910390a25050612042565b6000806000611ca188336000611336565b92509250925060008211611cf75760405162461bcd60e51b815260206004820152601260248201527f6e6f20707572636861736520616d6f756e740000000000000000000000000000604482015260640161163e565b60008311611d335760405162461bcd60e51b81526020600482015260096024820152681b9bc81c995dd85c9960ba1b604482015260640161163e565b82856001015483611d449190614f52565b1015611d925760405162461bcd60e51b815260206004820152601460248201527f616c726561647920676574416c6c726577617264000000000000000000000000604482015260640161163e565b6040516370a0823160e01b815230600482015283906001600160a01b038a16906370a0823190602401602060405180830381865afa158015611dd8573d6000803e3d6000fd5b505050506040513d601f19601f82011682018060405250810190611dfc9190614fb9565b1015611e4a5760405162461bcd60e51b815260206004820152601360248201527f646f6e7420686176652073616c65546f6b656e00000000000000000000000000604482015260640161163e565b828560010154611e5a9190614fa6565b6001860155611e736001600160a01b038916338561469e565b6001600160a01b0388166000908152601e60205260409020855460ff16158015611e9e5750865460ff165b15611ec4576005810154611eb3906001614fa6565b6005820155855460ff191660011786555b600082118015611ed657506002860154155b15611ff957600b546040516370a0823160e01b81523060048201526001600160a01b03909116906370a0823190602401602060405180830381865afa158015611f23573d6000803e3d6000fd5b505050506040513d601f19601f82011682018060405250810190611f479190614fb9565b821115611f965760405162461bcd60e51b815260206004820152601460248201527f646f6e74206861766520726566756e6420746f6e000000000000000000000000604482015260640161163e565b60028601829055600b54611fb4906001600160a01b0316338461469e565b604080516001600160a01b038b1681526020810184905233917fec1e5ed733e00f1a00915d56caef57b4f52312dde4f9b3165f213319a0da156b910160405180910390a25b604080516001600160a01b038b1681526020810186905233917ff7a40077ff7a04c7e61f6f26fb13774259ddf1b6bce9ecf26a8276cdd3992683910160405180910390a2505050505b5050505050565b6001600160a01b03811660009081527f2fb794d17134dfdec181ddbac1babb5ab1eb140204ef4d982f294e7fc8b69022602052604081205460ff16611330565b6001600160a01b0382166000908152601b6020908152604091829020825161010081018452815481526001820154928101929092526002810154928201929092526003820154606082015260048201546080820152600582015460a0820152600682015460c0820181905260079092015460e08201529042101561214f5760405162461bcd60e51b815260206004820152600f60248201527f6e6f74206465706f73697454696d650000000000000000000000000000000000604482015260640161163e565b8060e0015142106121a25760405162461bcd60e51b815260206004820152600f60248201527f656e64206465706f73697454696d650000000000000000000000000000000000604482015260640161163e565b6001600160a01b0383166000818152602080805260408083203384528252808320938352601e9091529020815460ff166122b2576001600160a01b038516600090815260176020908152604082208054600181810183559184529190922001805473ffffffffffffffffffffffffffffffffffffffff191633179055825460ff191681178355600482015461223691614fa6565b60048201556001600160a01b0385166000908152601f6020908152604080832033845282528083208151608081018352815460ff80821615158352610100909104169381019390935260018101549183018290526002015460608301529091036122b05760028201546122aa906001614fa6565b60028301555b505b8382600101546122c29190614fa6565b60018301556001600160a01b0385166000908152601560205260409020546122eb908590614fa6565b6001600160a01b03861660009081526015602052604090205534333110156123465760405162461bcd60e51b815260206004820152600e60248201526d2237b713ba103430bb32902a27a760911b604482015260640161163e565b604080516001600160a01b038716815234602082015233917f8752a472e571a816aea92eec8dae9baf628e840f4929fbcc2d155e6233ff68a7910160405180910390a25050505050565b6001600160a01b0381166000818152601e60209081526040808320815160c0808201845282548252600180840154838701526002808501548487015260038086015460608087019190915260048088015460808089019190915260059889015460a0808a01919091529c8c52601c8b52898c208a5161014081018c5281548152968101549b87019b909b528a8501549986019990995291890154908401528701549582019590955292850154968301969096526006840154958201959095526007909201549081900b60e083015260ff6301000000820481161515610100840152640100000000909104161515610120820152909190826124908561250a565b836020015161249f9190614fa6565b90506000826080015182106124d45760648360a00151836124c09190614f65565b6124ca9190614f92565b9695505050505050565b50600095945050505050565b6000828152600460205260409020600101546124fb816147b2565b61250583836147bc565b505050565b6001600160a01b0381166000908152601560205260408120548190612530908490613f83565b9050600061253d84613cd2565b905080821015612565575050506001600160a01b031660009081526015602052604090205490565b61256f848261328a565b949350505050565b80806000036125ad5760405162461bcd60e51b81526020600482015260026024820152615a3160f01b604482015260640161163e565b6001600160a01b0383166000818152601b60209081526040808320815161010081018352815481526001820154818501526002820154818401526003820154606082015260048201546080820152600582015460a0820152600682015460c082015260079091015460e08201908152948452601c9092529091209151909190421161267a5760405162461bcd60e51b815260206004820152601b60248201527f6e65656420746f20656e6420746865206465706f73697454696d650000000000604482015260640161163e565b600061268586612390565b9050600081116126d75760405162461bcd60e51b815260206004820152601660248201527f646f6e2774207061737320746865206861726443617000000000000000000000604482015260640161163e565b60078201546301000000900460ff161515600003612750578481101561272f5760405162461bcd60e51b815260206004820152600d60248201526c30b6b7bab73a24b71037bb32b960991b604482015260640161163e565b6006820181905560078201805463ff00000019166301000000179055612794565b84826006015410156127945760405162461bcd60e51b815260206004820152600d60248201526c30b6b7bab73a24b71037bb32b960991b604482015260640161163e565b600b54600a546040516307f43c1960e31b81526001600160a01b0392831660048201529116602482015260009073__$86989bec654fe21c5325a7b16e11ff34c5$__90633fa1e0c890604401602060405180830381865af41580156127fd573d6000803e3d6000fd5b505050506040513d601f19601f820116820180604052508101906128219190614fd2565b9050600080826001600160a01b0316633850c7bd6040518163ffffffff1660e01b815260040160e060405180830381865afa158015612864573d6000803e3d6000fd5b505050506040513d601f19601f820116820180604052508101906128889190615028565b5050505050915091506000826001600160a01b0316116128ea5760405162461bcd60e51b815260206004820152601060248201527f706f6f6c206e6f7420696e697469616c00000000000000000000000000000000604482015260640161163e565b60006128f784607861485e565b6040517fff9ceebd000000000000000000000000000000000000000000000000000000008152600282810b6004830152603c6024830152604482015290915073__$86989bec654fe21c5325a7b16e11ff34c5$__9063ff9ceebd90606401602060405180830381865af4158015612972573d6000803e3d6000fd5b505050506040513d601f19601f8201168201806040525081019061299691906150b2565b60020b8260020b126129ea5760405162461bcd60e51b815260206004820152601860248201527f6f766572206368616e676564207469636b2072616e67652e0000000000000000604482015260640161163e565b600b54600a546007880154604051633e1644f160e11b8152600481018d90526001600160a01b038881166024830152938416604482015292909116606483015260020b6084820152600090819073__$86989bec654fe21c5325a7b16e11ff34c5$__90637c2c89e29060a401606060405180830381865af4158015612a73573d6000803e3d6000fd5b505050506040513d601f19601f82011682018060405250810190612a9791906150cd565b92505091506000600560009054906101000a90046001600160a01b03166001600160a01b0316600b60009054906101000a90046001600160a01b0316600a60009054906101000a90046001600160a01b0316610bb88f6000604051602401612b379594939291906001600160a01b03958616815293909416602084015262ffffff919091166040830152606082015260ff91909116608082015260a00190565b60408051601f198184030181529181526020820180516001600160e01b031663f7729d4360e01b17905251612b6c919061511f565b6000604051808303816000865af19150503d8060008114612ba9576040519150601f19603f3d011682016040523d82523d6000602084013e612bae565b606091505b509150506000612bbd82614a1d565b90506103e8612bce826103e3614f65565b612bd89190614f92565b905083811015612c2a5760405162461bcd60e51b815260206004820152601060248201527f7072696365496d70616374206f76657200000000000000000000000000000000604482015260640161163e565b60068a01548e908e90612c3e908290614f52565b60068d01556040805161010081018252600b546001600160a01b039081168252600a54811660208301908152610bb8838501908152600754831660608501908152426080860190815260a0860188815260c087018b81528d871660e08901908152600854995163414bf38960e01b8152895189166004820152965188166024880152945162ffffff166044870152925186166064860152905160848501525160a48401525160c483015251821660e4820152919260009291169063414bf38990610104016020604051808303816000875af1158015612d21573d6000803e3d6000fd5b505050506040513d601f19601f82011682018060405250810190612d459190614fb9565b604080516001600160a01b03871681526020810186905290810182905290915033907f34c21668d9e0d31d289d483bfe1b46a335340504801ea7feebfbb347bc4fe5679060600160405180910390a2505050505050505050505050505050505050565b6001600160a01b0381163314612e265760405162461bcd60e51b815260206004820152602f60248201527f416363657373436f6e74726f6c3a2063616e206f6e6c792072656e6f756e636560448201527f20726f6c657320666f722073656c660000000000000000000000000000000000606482015260840161163e565b612e308282614ac1565b5050565b60176020528160005260406000208181548110612e5057600080fd5b6000918252602090912001546001600160a01b03169150829050565b600080612e798484611674565b9050600060ff821615612ec457815b60ff811615612eba57612e9c868683613906565b612ea69083614fa6565b915080612eb28161513b565b915050612e88565b5091506113309050565b506000949350505050565b60186020528160005260406000208181548110612e5057600080fd5b6001600160a01b0381166000908152601b60209081526040918290208251610100810184528154815260018201549281019290925260028101549282019290925260038201546060820152600482015460808201819052600583015460a0830152600683015460c083015260079092015460e082015290421015612fb15760405162461bcd60e51b815260206004820152601260248201527f6e6f7420726f756e643153616c6554696d650000000000000000000000000000604482015260640161163e565b8060a0015142106130045760405162461bcd60e51b815260206004820152601260248201527f656e6420726f756e643153616c6554696d650000000000000000000000000000604482015260640161163e565b6001600160a01b0382166000908152601f602090815260408083203384529091529020805460ff16151560011461307d5760405162461bcd60e51b815260206004820152600c60248201527f6e6f2077686974656c6973740000000000000000000000000000000000000000604482015260640161163e565b60006130898433611674565b905060006130978534613f83565b905060006130a58633612e6c565b90508184600201546130b79190614fa6565b8110156131065760405162461bcd60e51b815260206004820152600e60248201527f646f6e2774206f76657220627579000000000000000000000000000000000000604482015260640161163e565b6001600160a01b0386166000908152601e6020526040812060018601549091036131ae57600381015461313a906001614fa6565b6003820155600281015461314f906001614fa6565b60028201556001600160a01b038716600090815260266020908152604080832060ff88168452909152902054613186906001614fa6565b6001600160a01b038816600090815260266020908152604080832060ff891684529091529020555b3485600101546131be9190614fa6565b600186015560028501546131d3908490614fa6565b600286015560018101546131e8903490614fa6565b600182015580546131fa908490614fa6565b8155343331101561323e5760405162461bcd60e51b815260206004820152600e60248201526d2237b713ba103430bb32902a27a760911b604482015260640161163e565b604080516001600160a01b038916815234602082015233917f9840f3ca16eed984a6ad48d36928a9cfb427c7f90a8d37e017b3385a747aa294910160405180910390a250505050505050565b6001600160a01b0382166000908152601c602090815260408083208151610140810183528154815260018201549381019390935260028082015492840183905260038201546060850181905260048301546080860152600583015460a0860152600683015460c08601526007909201549081900b60e085015260ff630100000082048116151561010086015264010000000090910416151561012084015283916133349086614f65565b61333e9190614f92565b95945050505050565b6001600160a01b0381166000908152601c602052604090206007810154640100000000900460ff161515600114801590613391575060078101546301000000900460ff1615156001145b6133dd5760405162461bcd60e51b815260206004820152601a60248201527f6e656564207468652065786368616e676557544f4e746f544f53000000000000604482015260640161163e565b6001600160a01b0382166000908152601e60205260408120906133ff84612390565b905060008161340d8661250a565b846001015461341c9190614fa6565b6134269190614f52565b600b546040516370a0823160e01b81523060048201529192506001600160a01b0316906370a0823190602401602060405180830381865afa15801561346f573d6000803e3d6000fd5b505050506040513d601f19601f820116820180604052508101906134939190614fb9565b8111156134e25760405162461bcd60e51b815260206004820152600d60248201527f686176656e277420746f6b656e00000000000000000000000000000000000000604482015260640161163e565b60078401805464ff000000001916640100000000179055825460009061350787611597565b600187015487546135189190614fa6565b6135229190614f52565b61352c9190614f52565b905080156135c557600d54600e54604051631474f2a960e31b81526001600160a01b0389811660048301529182166024820152604481018490526000606482015260a06084820152600260a482015261060f60f31b60c482015291169063a3a795489060e401600060405180830381600087803b1580156135ac57600080fd5b505af11580156135c0573d6000803e3d6000fd5b505050505b600b546006546001600160a01b039182169163095ea7b391166135f085678ac7230489e80000614fa6565b6040516001600160e01b031960e085901b1681526001600160a01b03909216600483015260248201526044016020604051808303816000875af115801561363b573d6000803e3d6000fd5b505050506040513d601f19601f8201168201806040525081019061365f9190615158565b506006546040516315a27c3b60e31b81526001600160a01b038881166004830152602482018590529091169063ad13e1d890604401600060405180830381600087803b1580156136ae57600080fd5b505af11580156136c2573d6000803e3d6000fd5b5050604080516001600160a01b038a168152602081018690529081018690523392507f4c2c0ab6abacae9e08e6f826eee15e2782e65aaa46fa6d77cbaec9c94247aad5915060600160405180910390a2505050505050565b61372333612049565b61377a5760405162461bcd60e51b815260206004820152602260248201527f41636365737369626c653a2043616c6c6572206973206e6f7420616e2061646d60448201526134b760f11b606482015260840161163e565b6116717fdf8b4c520ffe197c5343c6f5aec59570151ef9a492f2c624fd45ddde6135ec42826124e0565b6137ad33612049565b6138045760405162461bcd60e51b815260206004820152602260248201527f41636365737369626c653a2043616c6c6572206973206e6f7420616e2061646d60448201526134b760f11b606482015260840161163e565b6001600160a01b03811661385a5760405162461bcd60e51b815260206004820152601860248201527f41636365737369626c653a207a65726f20616464726573730000000000000000604482015260640161163e565b6001600160a01b03811633036138b25760405162461bcd60e51b815260206004820152601660248201527f41636365737369626c653a2073616d652061646d696e00000000000000000000604482015260640161163e565b6138dc7fdf8b4c520ffe197c5343c6f5aec59570151ef9a492f2c624fd45ddde6135ec42826124e0565b6116717fdf8b4c520ffe197c5343c6f5aec59570151ef9a492f2c624fd45ddde6135ec4233612da8565b6001600160a01b038084166000818152601f602090815260408083209487168352938152838220845160808082018752825460ff8082161515845261010091829004811684870152600180860154858b0152600295860154606080870191909152988852601c87528988208a5161014081018c52815481528183015498810198909852808701549a88019a909a5260038a015498870198909852600489015492860192909252600588015460a0860152600688015460c08601526007909701549283900b60e08501526301000000830481161515968401969096526401000000009091049094161515610120820152835191939290918491901515148015613a11575060008560ff16115b15613a81576001600160a01b038716600081815260256020908152604080832060ff8a16808552908352818420549484526023835281842090845290915290205483516127109291613a6291614f65565b613a6c9190614f92565b613a769190614f92565b93506115db92505050565b60ff851615613b17576001600160a01b038716600090815260256020908152604080832060ff89168452909152812054613abc906001614fa6565b6001600160a01b038916600090815260236020908152604080832060ff8b1684529091529020548451919250612710918391613af791614f65565b613b019190614f92565b613b0b9190614f92565b94506115db9350505050565b5060009695505050505050565b6001600160a01b0381166000908152601d60209081526040808320815160a08101835281548152600182015493810193909352600281015491830182905260038101546060840152600401546080830152421015613b8157600091505b42816040015111158015613b985750806060015142105b15613ba65760019150613bdd565b42816060015111613bdd5760808101516060820151613bc59042614f52565b613bcf9190614f92565b613bda906002614fa6565b91505b8051821115613beb57805191505b50919050565b6001600160a01b0380831660009081526020808052604080832093851683529281528282208351808501909452805460ff161580158552600190910154918401919091529091829182919080613c4957506020810151155b15613c5f57600080600093509350935050613ccb565b6000613c6d878760006145fd565b90506000613c7b888361328a565b602084015190915060008082841015613cab57613c988484614f52565b9050613ca48b85613f83565b9150613cbf565b85602001519350613cbc8b84613f83565b91505b92975095509093505050505b9250925092565b600080601b6000846001600160a01b03166001600160a01b03168152602001908152602001600020604051806101000160405290816000820154815260200160018201548152602001600282015481526020016003820154815260200160048201548152602001600582015481526020016006820154815260200160078201548152505090506000601c6000856001600160a01b03166001600160a01b0316815260200190815260200160002060405180610140016040529081600082015481526020016001820154815260200160028201548152602001600382015481526020016004820154815260200160058201548152602001600682015481526020016007820160009054906101000a900460020b60020b60020b81526020016007820160039054906101000a900460ff161515151581526020016007820160049054906101000a900460ff16151515158152505090508160a00151421015613e3a57519392505050565b613e4384613e52565b816020015161256f9190614fa6565b6001600160a01b0381166000818152601e60209081526040808320815160c0808201845282548252600180840154838701526002808501548487015260038086015460608087019190915260048088015460808089019190915260059889015460a0808a01919091529c8c52601c8b52898c208a5161014081018c528154808252978201549c81019c909c52808601549a8c019a909a5292890154918a01919091528701549088015293850154978601979097526006840154908501526007909201549081900b60e084015260ff630100000082048116151561010085015264010000000090910416151561012083015280519293909261256f91614f52565b60196020528160005260406000208181548110613f6e57600080fd5b90600052602060002001600091509150505481565b6001600160a01b0382166000908152601c602090815260408083208151610140810183528154815260018201549381019390935260028082015492840183905260038201546060850181905260048301546080860152600583015460a0860152600683015460c08601526007909201549081900b60e085015260ff63010000008204811615156101008601526401000000009091041615156101208401528391906133349086614f65565b600082815260046020526040902060010154614049816147b2565b6125058383614ac1565b6001600160a01b0381166000908152601b60209081526040918290208251610100810184528154815260018201549281019290925260028101549282018390526003810154606083015260048101546080830152600581015460a0830152600681015460c08301526007015460e0820152904210156141145760405162461bcd60e51b815260206004820152601160248201527f6e6f742077686974656c69737454696d65000000000000000000000000000000604482015260640161163e565b806060015142106141675760405162461bcd60e51b815260206004820152601160248201527f656e642077686974656c69737454696d65000000000000000000000000000000604482015260640161163e565b60006141738333611674565b905060018160ff1610156141c95760405162461bcd60e51b815260206004820152601160248201527f6e65656420746f206d6f72652073544f53000000000000000000000000000000604482015260640161163e565b6001600160a01b0383166000908152601f602090815260408083203384529091529020805460ff1615156001036142425760405162461bcd60e51b815260206004820152601060248201527f616c726561647920617474656e64656400000000000000000000000000000000604482015260640161163e565b6001600160a01b038416600081815260186020908152604080832080546001818101835591855283852001805473ffffffffffffffffffffffffffffffffffffffff191633179055855460ff8816610100810261ffff19909216919091178217875594845260248352818420948452939091529020546142c191614fa6565b6001600160a01b038516600090815260246020908152604080832060ff87168085529252909120919091556004036143fc576001600160a01b038416600090815260256020908152604080832060048452909152902054614323906001614fa6565b6001600160a01b0385166000908152602560209081526040808320600484529091528082209290925560038152205461435d906001614fa6565b6001600160a01b03851660009081526025602090815260408083206003845290915280822092909255600281522054614397906001614fa6565b6001600160a01b038516600090815260256020908152604080832060028452909152808220929092556001808252919020546143d291614fa6565b6001600160a01b0385166000908152602560209081526040808320600184529091529020556144d2565b8160ff16600303614437576001600160a01b03841660009081526025602090815260408083206003845290915290205461435d906001614fa6565b8160ff16600203614472576001600160a01b038416600090815260256020908152604080832060028452909152902054614397906001614fa6565b8160ff166001036144d2576001600160a01b038416600090815260256020908152604080832060018085529252909120546144ac91614fa6565b6001600160a01b0385166000908152602560209081526040808320600184529091529020555b604080516001600160a01b038616815260ff8416602082015233917f80aaf28a2c7f80f586e64ede5c6c3b5433b8c6cf1351b6b51d8ab9febb8b5e7a910160405180910390a250505050565b6001600160a01b038083166000908152601f6020908152604080832093851683529281528282208351608081018552815460ff80821615801584526101009092041693820193909352600182015494810194909452600201546060840152909182918291906145cb5760008060006145968989613bf1565b9250925092508360400151836145ac9190614fa6565b60608501516145bb9084614fa6565b8296509650965050505050613ccb565b6145d58686613bf1565b93509350935050613ccb565b601a6020528160005260406000208181548110613f6e57600080fd5b6001600160a01b0380841660009081526020808052604080832093861683529281528282208351808501909452805460ff161515845260010154908301819052909190829061464d908590614fa6565b6001600160a01b03871660009081526015602052604081205491925090614675908690614fa6565b8261467f89613cd2565b6146899190614f65565b6146939190614f92565b979650505050505050565b604080516001600160a01b038481166024830152604480830185905283518084039091018152606490920183526020820180516001600160e01b031663a9059cbb60e01b17905291516000928392908716916146fa919061511f565b6000604051808303816000865af19150503d8060008114614737576040519150601f19603f3d011682016040523d82523d6000602084013e61473c565b606091505b50915091508180156147665750805115806147665750808060200190518101906147669190615158565b6120425760405162461bcd60e51b815260206004820152600f60248201527f5452414e534645525f4641494c45440000000000000000000000000000000000604482015260640161163e565b6116718133614b44565b60008281526004602090815260408083206001600160a01b038516845290915290205460ff16612e305760008281526004602090815260408083206001600160a01b03851684529091529020805460ff1916600117905561481a3390565b6001600160a01b0316816001600160a01b0316837f2f8788117e7eff1d82e926ec794901d17c78024a50270940304540a733656f0d60405160405180910390a45050565b60008163ffffffff1660000361489b5760405162461bcd60e51b8152602060048201526002602482015261042560f41b604482015260640161163e565b60408051600280825260608201835260009260208301908036833701905050905082816000815181106148d0576148d0615189565b602002602001019063ffffffff16908163ffffffff16815250506000816001815181106148ff576148ff615189565b63ffffffff9092166020928302919091019091015260405163883bdbfd60e01b81526000906001600160a01b0386169063883bdbfd9061494390859060040161519f565b600060405180830381865afa158015614960573d6000803e3d6000fd5b505050506040513d6000823e601f3d908101601f1916820160405261498891908101906152b2565b5090506000816000815181106149a0576149a0615189565b6020026020010151826001815181106149bb576149bb615189565b60200260200101516149cd919061537e565b90506149dd600386900b826153ab565b935060008160060b128015614a0157506149fb600386900b826153e9565b60060b15155b15614a145783614a108161540b565b9450505b50505092915050565b60008151602014614aad57604482511015614a7a5760405162461bcd60e51b815260206004820152601060248201527f556e6578706563746564206572726f7200000000000000000000000000000000604482015260640161163e565b60048201915081806020019051810190614a949190615424565b60405162461bcd60e51b815260040161163e91906154b8565b818060200190518101906113309190614fb9565b60008281526004602090815260408083206001600160a01b038516845290915290205460ff1615612e305760008281526004602090815260408083206001600160a01b0385168085529252808320805460ff1916905551339285917ff6391f5c32d9c69d2a47ea670b442974b53935d1edc7fd64eb21e047a839171b9190a45050565b60008281526004602090815260408083206001600160a01b038516845290915290205460ff16612e3057614b7781614bb9565b614b82836020614bcb565b604051602001614b939291906154eb565b60408051601f198184030181529082905262461bcd60e51b825261163e916004016154b8565b60606113306001600160a01b03831660145b60606000614bda836002614f65565b614be5906002614fa6565b67ffffffffffffffff811115614bfd57614bfd615173565b6040519080825280601f01601f191660200182016040528015614c27576020820181803683370190505b509050600360fc1b81600081518110614c4257614c42615189565b60200101906001600160f81b031916908160001a905350600f60fb1b81600181518110614c7157614c71615189565b60200101906001600160f81b031916908160001a9053506000614c95846002614f65565b614ca0906001614fa6565b90505b6001811115614d25577f303132333435363738396162636465660000000000000000000000000000000085600f1660108110614ce157614ce1615189565b1a60f81b828281518110614cf757614cf7615189565b60200101906001600160f81b031916908160001a90535060049490941c93614d1e8161556c565b9050614ca3565b5083156115db5760405162461bcd60e51b815260206004820181905260248201527f537472696e67733a20686578206c656e67746820696e73756666696369656e74604482015260640161163e565b600060208284031215614d8657600080fd5b81356001600160e01b0319811681146115db57600080fd5b6001600160a01b038116811461167157600080fd5b600060208284031215614dc557600080fd5b81356115db81614d9e565b600080600060608486031215614de557600080fd5b8335614df081614d9e565b92506020840135614e0081614d9e565b929592945050506040919091013590565b60ff8116811461167157600080fd5b60008060408385031215614e3357600080fd5b8235614e3e81614d9e565b91506020830135614e4e81614e11565b809150509250929050565b60008060408385031215614e6c57600080fd5b8235614e7781614d9e565b91506020830135614e4e81614d9e565b600060208284031215614e9957600080fd5b5035919050565b60008060408385031215614eb357600080fd5b8235614ebe81614d9e565b946020939093013593505050565b60008060408385031215614edf57600080fd5b823591506020830135614e4e81614d9e565b600080600060608486031215614f0657600080fd5b8335614f1181614d9e565b92506020840135614f2181614d9e565b91506040840135614f3181614e11565b809150509250925092565b634e487b7160e01b600052601160045260246000fd5b8181038181111561133057611330614f3c565b808202811582820484141761133057611330614f3c565b634e487b7160e01b600052601260045260246000fd5b600082614fa157614fa1614f7c565b500490565b8082018082111561133057611330614f3c565b600060208284031215614fcb57600080fd5b5051919050565b600060208284031215614fe457600080fd5b81516115db81614d9e565b8051600281900b811461500157600080fd5b919050565b805161ffff8116811461500157600080fd5b8051801515811461500157600080fd5b600080600080600080600060e0888a03121561504357600080fd5b875161504e81614d9e565b965061505c60208901614fef565b955061506a60408901615006565b945061507860608901615006565b935061508660808901615006565b925060a088015161509681614e11565b91506150a460c08901615018565b905092959891949750929550565b6000602082840312156150c457600080fd5b6115db82614fef565b6000806000606084860312156150e257600080fd5b83519250602084015191506040840151614f3181614d9e565b60005b838110156151165781810151838201526020016150fe565b50506000910152565b600082516151318184602087016150fb565b9190910192915050565b600060ff82168061514e5761514e614f3c565b6000190192915050565b60006020828403121561516a57600080fd5b6115db82615018565b634e487b7160e01b600052604160045260246000fd5b634e487b7160e01b600052603260045260246000fd5b6020808252825182820181905260009190848201906040850190845b818110156151dd57835163ffffffff16835292840192918401916001016151bb565b50909695505050505050565b604051601f8201601f1916810167ffffffffffffffff8111828210171561521257615212615173565b604052919050565b600067ffffffffffffffff82111561523457615234615173565b5060051b60200190565b600082601f83011261524f57600080fd5b8151602061526461525f8361521a565b6151e9565b82815260059290921b8401810191818101908684111561528357600080fd5b8286015b848110156152a757805161529a81614d9e565b8352918301918301615287565b509695505050505050565b600080604083850312156152c557600080fd5b825167ffffffffffffffff808211156152dd57600080fd5b818501915085601f8301126152f157600080fd5b8151602061530161525f8361521a565b82815260059290921b8401810191818101908984111561532057600080fd5b948201945b8386101561534e5785518060060b811461533f5760008081fd5b82529482019490820190615325565b9188015191965090935050508082111561536757600080fd5b506153748582860161523e565b9150509250929050565b600682810b9082900b03667fffffffffffff198112667fffffffffffff8213171561133057611330614f3c565b60008160060b8360060b806153c2576153c2614f7c565b667fffffffffffff198214600019821416156153e0576153e0614f3c565b90059392505050565b60008260060b806153fc576153fc614f7c565b808360060b0791505092915050565b60008160020b627fffff19810361514e5761514e614f3c565b60006020828403121561543657600080fd5b815167ffffffffffffffff8082111561544e57600080fd5b818401915084601f83011261546257600080fd5b81518181111561547457615474615173565b615487601f8201601f19166020016151e9565b915080825285602082850101111561549e57600080fd5b6154af8160208401602086016150fb565b50949350505050565b60208152600082518060208401526154d78160408501602087016150fb565b601f01601f19169190910160400192915050565b7f416363657373436f6e74726f6c3a206163636f756e74200000000000000000008152600083516155238160178501602088016150fb565b7f206973206d697373696e6720726f6c652000000000000000000000000000000060179184019182015283516155608160288401602088016150fb565b01602801949350505050565b60008161557b5761557b614f3c565b50600019019056fea164736f6c6343000812000a",
  "linkReferences": {
    "contracts/libraries/LibPublicSaleVault.sol": {
      "LibPublicSaleVault": [
        {
          "length": 20,
          "start": 10231
        },
        {
          "length": 20,
          "start": 10604
        },
        {
          "length": 20,
          "start": 10861
        }
      ]
    }
  },
  "deployedLinkReferences": {
    "contracts/libraries/LibPublicSaleVault.sol": {
      "LibPublicSaleVault": [
        {
          "length": 20,
          "start": 10179
        },
        {
          "length": 20,
          "start": 10552
        },
        {
          "length": 20,
          "start": 10809
        }
      ]
    }
  }
}