{
  "_format": "hh-sol-artifact-1",
  "contractName": "L2PublicSaleVaultProxy",
  "sourceName": "contracts/L2/vaults/L2PublicSaleVaultProxy.sol",
  "abi": [
    {
      "anonymous": false,
      "inputs": [
        {
          "indexed": false,
          "internalType": "address",
          "name": "l2Token",
          "type": "address"
        },
        {
          "indexed": true,
          "internalType": "address",
          "name": "from",
          "type": "address"
        },
        {
          "indexed": false,
          "internalType": "uint256",
          "name": "tier",
          "type": "uint256"
        }
      ],
      "name": "AddedWhiteList",
      "type": "event"
    },
    {
      "anonymous": false,
      "inputs": [
        {
          "indexed": false,
          "internalType": "address",
          "name": "l2Token",
          "type": "address"
        },
        {
          "indexed": true,
          "internalType": "address",
          "name": "from",
          "type": "address"
        },
        {
          "indexed": false,
          "internalType": "uint256",
          "name": "amount",
          "type": "uint256"
        }
      ],
      "name": "Claimed",
      "type": "event"
    },
    {
      "anonymous": false,
      "inputs": [
        {
          "indexed": false,
          "internalType": "address",
          "name": "l2Token",
          "type": "address"
        },
        {
          "indexed": true,
          "internalType": "address",
          "name": "from",
          "type": "address"
        },
        {
          "indexed": false,
          "internalType": "uint256",
          "name": "amount",
          "type": "uint256"
        },
        {
          "indexed": false,
          "internalType": "uint256",
          "name": "liquidityAmount",
          "type": "uint256"
        }
      ],
      "name": "DepositWithdrawal",
      "type": "event"
    },
    {
      "anonymous": false,
      "inputs": [
        {
          "indexed": false,
          "internalType": "address",
          "name": "l2Token",
          "type": "address"
        },
        {
          "indexed": true,
          "internalType": "address",
          "name": "from",
          "type": "address"
        },
        {
          "indexed": false,
          "internalType": "uint256",
          "name": "amount",
          "type": "uint256"
        }
      ],
      "name": "Deposited",
      "type": "event"
    },
    {
      "anonymous": false,
      "inputs": [
        {
          "indexed": false,
          "internalType": "address",
          "name": "l2Token",
          "type": "address"
        },
        {
          "indexed": true,
          "internalType": "address",
          "name": "from",
          "type": "address"
        },
        {
          "indexed": false,
          "internalType": "uint256",
          "name": "amountIn",
          "type": "uint256"
        },
        {
          "indexed": false,
          "internalType": "uint256",
          "name": "amountOut",
          "type": "uint256"
        }
      ],
      "name": "ExchangeSwap",
      "type": "event"
    },
    {
      "anonymous": false,
      "inputs": [
        {
          "indexed": false,
          "internalType": "address",
          "name": "l2Token",
          "type": "address"
        },
        {
          "indexed": true,
          "internalType": "address",
          "name": "from",
          "type": "address"
        },
        {
          "indexed": false,
          "internalType": "uint256",
          "name": "amount",
          "type": "uint256"
        }
      ],
      "name": "ExclusiveSaled",
      "type": "event"
    },
    {
      "anonymous": false,
      "inputs": [
        {
          "indexed": false,
          "internalType": "address",
          "name": "l2Token",
          "type": "address"
        },
        {
          "indexed": true,
          "internalType": "address",
          "name": "from",
          "type": "address"
        },
        {
          "indexed": false,
          "internalType": "uint256",
          "name": "amount",
          "type": "uint256"
        }
      ],
      "name": "Refunded",
      "type": "event"
    },
    {
      "anonymous": false,
      "inputs": [
        {
          "indexed": true,
          "internalType": "bytes32",
          "name": "role",
          "type": "bytes32"
        },
        {
          "indexed": true,
          "internalType": "bytes32",
          "name": "previousAdminRole",
          "type": "bytes32"
        },
        {
          "indexed": true,
          "internalType": "bytes32",
          "name": "newAdminRole",
          "type": "bytes32"
        }
      ],
      "name": "RoleAdminChanged",
      "type": "event"
    },
    {
      "anonymous": false,
      "inputs": [
        {
          "indexed": true,
          "internalType": "bytes32",
          "name": "role",
          "type": "bytes32"
        },
        {
          "indexed": true,
          "internalType": "address",
          "name": "account",
          "type": "address"
        },
        {
          "indexed": true,
          "internalType": "address",
          "name": "sender",
          "type": "address"
        }
      ],
      "name": "RoleGranted",
      "type": "event"
    },
    {
      "anonymous": false,
      "inputs": [
        {
          "indexed": true,
          "internalType": "bytes32",
          "name": "role",
          "type": "bytes32"
        },
        {
          "indexed": true,
          "internalType": "address",
          "name": "account",
          "type": "address"
        },
        {
          "indexed": true,
          "internalType": "address",
          "name": "sender",
          "type": "address"
        }
      ],
      "name": "RoleRevoked",
      "type": "event"
    },
    {
      "anonymous": false,
      "inputs": [
        {
          "indexed": true,
          "internalType": "address",
          "name": "impl",
          "type": "address"
        },
        {
          "indexed": false,
          "internalType": "bool",
          "name": "alive",
          "type": "bool"
        }
      ],
      "name": "SetAliveImplementation",
      "type": "event"
    },
    {
      "anonymous": false,
      "inputs": [
        {
          "indexed": false,
          "internalType": "address",
          "name": "newInitializer",
          "type": "address"
        }
      ],
      "name": "SetInitializer",
      "type": "event"
    },
    {
      "anonymous": false,
      "inputs": [
        {
          "indexed": true,
          "internalType": "bytes4",
          "name": "selector",
          "type": "bytes4"
        },
        {
          "indexed": true,
          "internalType": "address",
          "name": "impl",
          "type": "address"
        }
      ],
      "name": "SetSelectorImplementation",
      "type": "event"
    },
    {
      "anonymous": false,
      "inputs": [
        {
          "indexed": false,
          "internalType": "address",
          "name": "l2Token",
          "type": "address"
        },
        {
          "indexed": false,
          "internalType": "address",
          "name": "newAdmin",
          "type": "address"
        }
      ],
      "name": "SetVaultAdmin",
      "type": "event"
    },
    {
      "anonymous": false,
      "inputs": [
        {
          "indexed": true,
          "internalType": "address",
          "name": "implementation",
          "type": "address"
        }
      ],
      "name": "Upgraded",
      "type": "event"
    },
    {
      "stateMutability": "payable",
      "type": "fallback"
    },
    {
      "inputs": [],
      "name": "ADMIN_ROLE",
      "outputs": [
        {
          "internalType": "bytes32",
          "name": "",
          "type": "bytes32"
        }
      ],
      "stateMutability": "view",
      "type": "function"
    },
    {
      "inputs": [],
      "name": "DEFAULT_ADMIN_ROLE",
      "outputs": [
        {
          "internalType": "bytes32",
          "name": "",
          "type": "bytes32"
        }
      ],
      "stateMutability": "view",
      "type": "function"
    },
    {
      "inputs": [],
      "name": "POLICY_ROLE",
      "outputs": [
        {
          "internalType": "bytes32",
          "name": "",
          "type": "bytes32"
        }
      ],
      "stateMutability": "view",
      "type": "function"
    },
    {
      "inputs": [],
      "name": "_WETH",
      "outputs": [
        {
          "internalType": "contract IWETH",
          "name": "",
          "type": "address"
        }
      ],
      "stateMutability": "view",
      "type": "function"
    },
    {
      "inputs": [
        {
          "internalType": "address",
          "name": "account",
          "type": "address"
        }
      ],
      "name": "addAdmin",
      "outputs": [],
      "stateMutability": "nonpayable",
      "type": "function"
    },
    {
      "inputs": [
        {
          "internalType": "address",
          "name": "",
          "type": "address"
        }
      ],
      "name": "aliveImplementation",
      "outputs": [
        {
          "internalType": "bool",
          "name": "",
          "type": "bool"
        }
      ],
      "stateMutability": "view",
      "type": "function"
    },
    {
      "inputs": [],
      "name": "changeTick",
      "outputs": [
        {
          "internalType": "int24",
          "name": "",
          "type": "int24"
        }
      ],
      "stateMutability": "view",
      "type": "function"
    },
    {
      "inputs": [
        {
          "internalType": "address",
          "name": "",
          "type": "address"
        }
      ],
      "name": "claimInfo",
      "outputs": [
        {
          "internalType": "uint256",
          "name": "totalClaimCounts",
          "type": "uint256"
        },
        {
          "internalType": "uint256",
          "name": "firstClaimPercent",
          "type": "uint256"
        },
        {
          "internalType": "uint256",
          "name": "firstClaimTime",
          "type": "uint256"
        },
        {
          "internalType": "uint256",
          "name": "secondClaimTime",
          "type": "uint256"
        },
        {
          "internalType": "uint256",
          "name": "claimInterval",
          "type": "uint256"
        }
      ],
      "stateMutability": "view",
      "type": "function"
    },
    {
      "inputs": [
        {
          "internalType": "address",
          "name": "",
          "type": "address"
        },
        {
          "internalType": "uint256",
          "name": "",
          "type": "uint256"
        }
      ],
      "name": "claimPercents",
      "outputs": [
        {
          "internalType": "uint256",
          "name": "",
          "type": "uint256"
        }
      ],
      "stateMutability": "view",
      "type": "function"
    },
    {
      "inputs": [
        {
          "internalType": "address",
          "name": "",
          "type": "address"
        },
        {
          "internalType": "uint256",
          "name": "",
          "type": "uint256"
        }
      ],
      "name": "claimTimes",
      "outputs": [
        {
          "internalType": "uint256",
          "name": "",
          "type": "uint256"
        }
      ],
      "stateMutability": "view",
      "type": "function"
    },
    {
      "inputs": [],
      "name": "delayTime",
      "outputs": [
        {
          "internalType": "uint256",
          "name": "",
          "type": "uint256"
        }
      ],
      "stateMutability": "view",
      "type": "function"
    },
    {
      "inputs": [
        {
          "internalType": "address",
          "name": "",
          "type": "address"
        },
        {
          "internalType": "uint256",
          "name": "",
          "type": "uint256"
        }
      ],
      "name": "depositors",
      "outputs": [
        {
          "internalType": "address",
          "name": "",
          "type": "address"
        }
      ],
      "stateMutability": "view",
      "type": "function"
    },
    {
      "inputs": [
        {
          "internalType": "bytes32",
          "name": "role",
          "type": "bytes32"
        }
      ],
      "name": "getRoleAdmin",
      "outputs": [
        {
          "internalType": "bytes32",
          "name": "",
          "type": "bytes32"
        }
      ],
      "stateMutability": "view",
      "type": "function"
    },
    {
      "inputs": [
        {
          "internalType": "bytes4",
          "name": "_selector",
          "type": "bytes4"
        }
      ],
      "name": "getSelectorImplementation2",
      "outputs": [
        {
          "internalType": "address",
          "name": "impl",
          "type": "address"
        }
      ],
      "stateMutability": "view",
      "type": "function"
    },
    {
      "inputs": [
        {
          "internalType": "bytes32",
          "name": "role",
          "type": "bytes32"
        },
        {
          "internalType": "address",
          "name": "account",
          "type": "address"
        }
      ],
      "name": "grantRole",
      "outputs": [],
      "stateMutability": "nonpayable",
      "type": "function"
    },
    {
      "inputs": [
        {
          "internalType": "bytes32",
          "name": "role",
          "type": "bytes32"
        },
        {
          "internalType": "address",
          "name": "account",
          "type": "address"
        }
      ],
      "name": "hasRole",
      "outputs": [
        {
          "internalType": "bool",
          "name": "",
          "type": "bool"
        }
      ],
      "stateMutability": "view",
      "type": "function"
    },
    {
      "inputs": [],
      "name": "implementation",
      "outputs": [
        {
          "internalType": "address",
          "name": "",
          "type": "address"
        }
      ],
      "stateMutability": "view",
      "type": "function"
    },
    {
      "inputs": [
        {
          "internalType": "uint256",
          "name": "_index",
          "type": "uint256"
        }
      ],
      "name": "implementation2",
      "outputs": [
        {
          "internalType": "address",
          "name": "",
          "type": "address"
        }
      ],
      "stateMutability": "view",
      "type": "function"
    },
    {
      "inputs": [
        {
          "internalType": "address",
          "name": "account",
          "type": "address"
        }
      ],
      "name": "isAdmin",
      "outputs": [
        {
          "internalType": "bool",
          "name": "",
          "type": "bool"
        }
      ],
      "stateMutability": "view",
      "type": "function"
    },
    {
      "inputs": [],
      "name": "l1burnVault",
      "outputs": [
        {
          "internalType": "address",
          "name": "",
          "type": "address"
        }
      ],
      "stateMutability": "view",
      "type": "function"
    },
    {
      "inputs": [],
      "name": "l2Bridge",
      "outputs": [
        {
          "internalType": "address",
          "name": "",
          "type": "address"
        }
      ],
      "stateMutability": "view",
      "type": "function"
    },
    {
      "inputs": [],
      "name": "l2ProjectManager",
      "outputs": [
        {
          "internalType": "address",
          "name": "",
          "type": "address"
        }
      ],
      "stateMutability": "view",
      "type": "function"
    },
    {
      "inputs": [],
      "name": "liquidityVault",
      "outputs": [
        {
          "internalType": "address",
          "name": "",
          "type": "address"
        }
      ],
      "stateMutability": "view",
      "type": "function"
    },
    {
      "inputs": [],
      "name": "lockTOS",
      "outputs": [
        {
          "internalType": "address",
          "name": "",
          "type": "address"
        }
      ],
      "stateMutability": "view",
      "type": "function"
    },
    {
      "inputs": [
        {
          "internalType": "address",
          "name": "",
          "type": "address"
        }
      ],
      "name": "manageInfo",
      "outputs": [
        {
          "internalType": "uint256",
          "name": "set1rdTokenAmount",
          "type": "uint256"
        },
        {
          "internalType": "uint256",
          "name": "set2rdTokenAmount",
          "type": "uint256"
        },
        {
          "internalType": "uint256",
          "name": "saleTokenPrice",
          "type": "uint256"
        },
        {
          "internalType": "uint256",
          "name": "tonPrice",
          "type": "uint256"
        },
        {
          "internalType": "uint256",
          "name": "hardCap",
          "type": "uint256"
        },
        {
          "internalType": "uint256",
          "name": "changeTOS",
          "type": "uint256"
        },
        {
          "internalType": "uint256",
          "name": "remainTON",
          "type": "uint256"
        },
        {
          "internalType": "int24",
          "name": "changeTick",
          "type": "int24"
        },
        {
          "internalType": "bool",
          "name": "exchangeTOS",
          "type": "bool"
        },
        {
          "internalType": "bool",
          "name": "adminWithdraw",
          "type": "bool"
        }
      ],
      "stateMutability": "view",
      "type": "function"
    },
    {
      "inputs": [],
      "name": "maxPer",
      "outputs": [
        {
          "internalType": "uint8",
          "name": "",
          "type": "uint8"
        }
      ],
      "stateMutability": "view",
      "type": "function"
    },
    {
      "inputs": [],
      "name": "minPer",
      "outputs": [
        {
          "internalType": "uint8",
          "name": "",
          "type": "uint8"
        }
      ],
      "stateMutability": "view",
      "type": "function"
    },
    {
      "inputs": [],
      "name": "pauseProxy",
      "outputs": [
        {
          "internalType": "bool",
          "name": "",
          "type": "bool"
        }
      ],
      "stateMutability": "view",
      "type": "function"
    },
    {
      "inputs": [],
      "name": "poolFee",
      "outputs": [
        {
          "internalType": "uint24",
          "name": "",
          "type": "uint24"
        }
      ],
      "stateMutability": "view",
      "type": "function"
    },
    {
      "inputs": [
        {
          "internalType": "uint256",
          "name": "",
          "type": "uint256"
        }
      ],
      "name": "proxyImplementation",
      "outputs": [
        {
          "internalType": "address",
          "name": "",
          "type": "address"
        }
      ],
      "stateMutability": "view",
      "type": "function"
    },
    {
      "inputs": [],
      "name": "quoter",
      "outputs": [
        {
          "internalType": "address",
          "name": "",
          "type": "address"
        }
      ],
      "stateMutability": "view",
      "type": "function"
    },
    {
      "inputs": [
        {
          "internalType": "address",
          "name": "account",
          "type": "address"
        }
      ],
      "name": "removeAdmin",
      "outputs": [],
      "stateMutability": "nonpayable",
      "type": "function"
    },
    {
      "inputs": [
        {
          "internalType": "bytes32",
          "name": "role",
          "type": "bytes32"
        },
        {
          "internalType": "address",
          "name": "account",
          "type": "address"
        }
      ],
      "name": "renounceRole",
      "outputs": [],
      "stateMutability": "nonpayable",
      "type": "function"
    },
    {
      "inputs": [
        {
          "internalType": "bytes32",
          "name": "role",
          "type": "bytes32"
        },
        {
          "internalType": "address",
          "name": "account",
          "type": "address"
        }
      ],
      "name": "revokeRole",
      "outputs": [],
      "stateMutability": "nonpayable",
      "type": "function"
    },
    {
      "inputs": [
        {
          "internalType": "address",
          "name": "",
          "type": "address"
        }
      ],
      "name": "saleInfo",
      "outputs": [
        {
          "internalType": "uint256",
          "name": "total1rdSaleAmount",
          "type": "uint256"
        },
        {
          "internalType": "uint256",
          "name": "total1rdTONAmount",
          "type": "uint256"
        },
        {
          "internalType": "uint256",
          "name": "totalUsers",
          "type": "uint256"
        },
        {
          "internalType": "uint256",
          "name": "total1rdUsers",
          "type": "uint256"
        },
        {
          "internalType": "uint256",
          "name": "total2rdUsers",
          "type": "uint256"
        },
        {
          "internalType": "uint256",
          "name": "total2rdUsersClaim",
          "type": "uint256"
        }
      ],
      "stateMutability": "view",
      "type": "function"
    },
    {
      "inputs": [
        {
          "internalType": "bytes4",
          "name": "",
          "type": "bytes4"
        }
      ],
      "name": "selectorImplementation",
      "outputs": [
        {
          "internalType": "address",
          "name": "",
          "type": "address"
        }
      ],
      "stateMutability": "view",
      "type": "function"
    },
    {
      "inputs": [
        {
          "internalType": "address",
          "name": "newImplementation",
          "type": "address"
        },
        {
          "internalType": "bool",
          "name": "_alive",
          "type": "bool"
        }
      ],
      "name": "setAliveImplementation2",
      "outputs": [],
      "stateMutability": "nonpayable",
      "type": "function"
    },
    {
      "inputs": [
        {
          "internalType": "address",
          "name": "newImplementation",
          "type": "address"
        },
        {
          "internalType": "uint256",
          "name": "_index",
          "type": "uint256"
        },
        {
          "internalType": "bool",
          "name": "_alive",
          "type": "bool"
        }
      ],
      "name": "setImplementation2",
      "outputs": [],
      "stateMutability": "nonpayable",
      "type": "function"
    },
    {
      "inputs": [
        {
          "internalType": "bool",
          "name": "_pause",
          "type": "bool"
        }
      ],
      "name": "setProxyPause",
      "outputs": [],
      "stateMutability": "nonpayable",
      "type": "function"
    },
    {
      "inputs": [
        {
          "internalType": "bytes4[]",
          "name": "_selectors",
          "type": "bytes4[]"
        },
        {
          "internalType": "address",
          "name": "_imp",
          "type": "address"
        }
      ],
      "name": "setSelectorImplementations2",
      "outputs": [],
      "stateMutability": "nonpayable",
      "type": "function"
    },
    {
      "inputs": [],
      "name": "stanTier1",
      "outputs": [
        {
          "internalType": "uint256",
          "name": "",
          "type": "uint256"
        }
      ],
      "stateMutability": "view",
      "type": "function"
    },
    {
      "inputs": [],
      "name": "stanTier2",
      "outputs": [
        {
          "internalType": "uint256",
          "name": "",
          "type": "uint256"
        }
      ],
      "stateMutability": "view",
      "type": "function"
    },
    {
      "inputs": [],
      "name": "stanTier3",
      "outputs": [
        {
          "internalType": "uint256",
          "name": "",
          "type": "uint256"
        }
      ],
      "stateMutability": "view",
      "type": "function"
    },
    {
      "inputs": [],
      "name": "stanTier4",
      "outputs": [
        {
          "internalType": "uint256",
          "name": "",
          "type": "uint256"
        }
      ],
      "stateMutability": "view",
      "type": "function"
    },
    {
      "inputs": [
        {
          "internalType": "bytes4",
          "name": "interfaceId",
          "type": "bytes4"
        }
      ],
      "name": "supportsInterface",
      "outputs": [
        {
          "internalType": "bool",
          "name": "",
          "type": "bool"
        }
      ],
      "stateMutability": "view",
      "type": "function"
    },
    {
      "inputs": [
        {
          "internalType": "address",
          "name": "",
          "type": "address"
        },
        {
          "internalType": "uint8",
          "name": "",
          "type": "uint8"
        }
      ],
      "name": "tiers",
      "outputs": [
        {
          "internalType": "uint256",
          "name": "",
          "type": "uint256"
        }
      ],
      "stateMutability": "view",
      "type": "function"
    },
    {
      "inputs": [
        {
          "internalType": "address",
          "name": "",
          "type": "address"
        },
        {
          "internalType": "uint8",
          "name": "",
          "type": "uint8"
        }
      ],
      "name": "tiers1stAccount",
      "outputs": [
        {
          "internalType": "uint256",
          "name": "",
          "type": "uint256"
        }
      ],
      "stateMutability": "view",
      "type": "function"
    },
    {
      "inputs": [
        {
          "internalType": "address",
          "name": "",
          "type": "address"
        },
        {
          "internalType": "uint8",
          "name": "",
          "type": "uint8"
        }
      ],
      "name": "tiersCalculAccount",
      "outputs": [
        {
          "internalType": "uint256",
          "name": "",
          "type": "uint256"
        }
      ],
      "stateMutability": "view",
      "type": "function"
    },
    {
      "inputs": [
        {
          "internalType": "address",
          "name": "",
          "type": "address"
        },
        {
          "internalType": "uint8",
          "name": "",
          "type": "uint8"
        }
      ],
      "name": "tiersPercents",
      "outputs": [
        {
          "internalType": "uint256",
          "name": "",
          "type": "uint256"
        }
      ],
      "stateMutability": "view",
      "type": "function"
    },
    {
      "inputs": [
        {
          "internalType": "address",
          "name": "",
          "type": "address"
        },
        {
          "internalType": "uint8",
          "name": "",
          "type": "uint8"
        }
      ],
      "name": "tiersWhiteList",
      "outputs": [
        {
          "internalType": "uint256",
          "name": "",
          "type": "uint256"
        }
      ],
      "stateMutability": "view",
      "type": "function"
    },
    {
      "inputs": [
        {
          "internalType": "address",
          "name": "",
          "type": "address"
        }
      ],
      "name": "timeInfo",
      "outputs": [
        {
          "internalType": "uint256",
          "name": "deployTime",
          "type": "uint256"
        },
        {
          "internalType": "uint256",
          "name": "snapshot",
          "type": "uint256"
        },
        {
          "internalType": "uint256",
          "name": "whiteListStartTime",
          "type": "uint256"
        },
        {
          "internalType": "uint256",
          "name": "whiteListEndTime",
          "type": "uint256"
        },
        {
          "internalType": "uint256",
          "name": "round1StartTime",
          "type": "uint256"
        },
        {
          "internalType": "uint256",
          "name": "round1EndTime",
          "type": "uint256"
        },
        {
          "internalType": "uint256",
          "name": "round2StartTime",
          "type": "uint256"
        },
        {
          "internalType": "uint256",
          "name": "round2EndTime",
          "type": "uint256"
        }
      ],
      "stateMutability": "view",
      "type": "function"
    },
    {
      "inputs": [],
      "name": "ton",
      "outputs": [
        {
          "internalType": "address",
          "name": "",
          "type": "address"
        }
      ],
      "stateMutability": "view",
      "type": "function"
    },
    {
      "inputs": [],
      "name": "tos",
      "outputs": [
        {
          "internalType": "address",
          "name": "",
          "type": "address"
        }
      ],
      "stateMutability": "view",
      "type": "function"
    },
    {
      "inputs": [
        {
          "internalType": "address",
          "name": "",
          "type": "address"
        }
      ],
      "name": "totalDepositAmount",
      "outputs": [
        {
          "internalType": "uint256",
          "name": "",
          "type": "uint256"
        }
      ],
      "stateMutability": "view",
      "type": "function"
    },
    {
      "inputs": [
        {
          "internalType": "address",
          "name": "newAdmin",
          "type": "address"
        }
      ],
      "name": "transferAdmin",
      "outputs": [],
      "stateMutability": "nonpayable",
      "type": "function"
    },
    {
      "inputs": [],
      "name": "uniswapRouter",
      "outputs": [
        {
          "internalType": "address",
          "name": "",
          "type": "address"
        }
      ],
      "stateMutability": "view",
      "type": "function"
    },
    {
      "inputs": [
        {
          "internalType": "address",
          "name": "impl",
          "type": "address"
        }
      ],
      "name": "upgradeTo",
      "outputs": [],
      "stateMutability": "nonpayable",
      "type": "function"
    },
    {
      "inputs": [
        {
          "internalType": "address",
          "name": "",
          "type": "address"
        },
        {
          "internalType": "address",
          "name": "",
          "type": "address"
        }
      ],
      "name": "user1rd",
      "outputs": [
        {
          "internalType": "bool",
          "name": "join",
          "type": "bool"
        },
        {
          "internalType": "uint8",
          "name": "tier",
          "type": "uint8"
        },
        {
          "internalType": "uint256",
          "name": "payAmount",
          "type": "uint256"
        },
        {
          "internalType": "uint256",
          "name": "saleAmount",
          "type": "uint256"
        }
      ],
      "stateMutability": "view",
      "type": "function"
    },
    {
      "inputs": [
        {
          "internalType": "address",
          "name": "",
          "type": "address"
        },
        {
          "internalType": "address",
          "name": "",
          "type": "address"
        }
      ],
      "name": "user2rd",
      "outputs": [
        {
          "internalType": "bool",
          "name": "join",
          "type": "bool"
        },
        {
          "internalType": "uint256",
          "name": "depositAmount",
          "type": "uint256"
        }
      ],
      "stateMutability": "view",
      "type": "function"
    },
    {
      "inputs": [
        {
          "internalType": "address",
          "name": "",
          "type": "address"
        },
        {
          "internalType": "address",
          "name": "",
          "type": "address"
        }
      ],
      "name": "userClaim",
      "outputs": [
        {
          "internalType": "bool",
          "name": "refund",
          "type": "bool"
        },
        {
          "internalType": "uint256",
          "name": "claimAmount",
          "type": "uint256"
        },
        {
          "internalType": "uint256",
          "name": "refundAmount",
          "type": "uint256"
        },
        {
          "internalType": "uint256",
          "name": "latestClaimedRound",
          "type": "uint256"
        }
      ],
      "stateMutability": "view",
      "type": "function"
    },
    {
      "inputs": [
        {
          "internalType": "address",
          "name": "",
          "type": "address"
        }
      ],
      "name": "vaultAdminOfToken",
      "outputs": [
        {
          "internalType": "address",
          "name": "",
          "type": "address"
        }
      ],
      "stateMutability": "view",
      "type": "function"
    },
    {
      "inputs": [],
      "name": "vestingFund",
      "outputs": [
        {
          "internalType": "address",
          "name": "",
          "type": "address"
        }
      ],
      "stateMutability": "view",
      "type": "function"
    },
    {
      "inputs": [
        {
          "internalType": "address",
          "name": "",
          "type": "address"
        },
        {
          "internalType": "uint256",
          "name": "",
          "type": "uint256"
        }
      ],
      "name": "whitelists",
      "outputs": [
        {
          "internalType": "address",
          "name": "",
          "type": "address"
        }
      ],
      "stateMutability": "view",
      "type": "function"
    },
    {
      "inputs": [],
      "name": "wton",
      "outputs": [
        {
          "internalType": "address",
          "name": "",
          "type": "address"
        }
      ],
      "stateMutability": "view",
      "type": "function"
    },
    {
      "stateMutability": "payable",
      "type": "receive"
    }
  ],
  "bytecode": "0x60806040526015805463ff000000191663010000001790553480156200002457600080fd5b5062000040600080516020620024f38339815191528062000061565b6200005b600080516020620024f383398151915233620000ac565b62000160565b600082815260046020526040808220600101805490849055905190918391839186917fbd79b86ffe0ab8e8776151514217cd7cacd52c909f66475c3af44e129f0b00ff9190a4505050565b620000b88282620000bc565b5050565b60008281526004602090815260408083206001600160a01b038516845290915290205460ff16620000b85760008281526004602090815260408083206001600160a01b03851684529091529020805460ff191660011790556200011c3390565b6001600160a01b0316816001600160a01b0316837f2f8788117e7eff1d82e926ec794901d17c78024a50270940304540a733656f0d60405160405180910390a45050565b61238380620001706000396000f3fe6080604052600436106103c75760003560e01c806375b238fc116101f2578063a389595f1161010d578063d01481a1116100a0578063d97830b11161006f578063d97830b114610f6f578063dc560fcd14610fe1578063e0af361614610ff7578063f3b08cb914611017576103ce565b8063d01481a114610e7a578063d13da44414610e9a578063d547741f14610ed2578063d7b0b29d14610ef2576103ce565b8063c0f22d4b116100dc578063c0f22d4b14610ded578063c6bbd5a714610e0d578063cc48b94714610e2d578063cf437a8f14610e4d576103ce565b8063a389595f14610ccc578063ae1f6aaf14610cfe578063b005ed9114610d1e578063b911135f14610db7576103ce565b80638b8f4a651161018557806397d785951161015457806397d7859514610c3c5780639f32b29a14610c695780639f87b77f14610ca1578063a217fddf14610cb7576103ce565b80638b8f4a6514610b8e5780638d4fdb4014610bae5780638d62d94914610bce57806391d1485414610bf6576103ce565b80637e2eee53116101c15780637e2eee5314610aad5780637fc46ba814610ac357806389293f6514610af957806389f395de14610b6e576103ce565b806375b238fc14610a23578063768b821f14610a575780637cb00d2514610a6d5780637cd5f66314610a8d576103ce565b8063466c01b8116102e25780635b19e29411610275578063704802751161024457806370480275146109a3578063708666ad146109c3578063735de9f7146109e357806375829def14610a03576103ce565b80635b19e294146109035780635c60da1b146109235780635cc797d81461096957806363a8fd8914610989576103ce565b806351ebde6d116102b157806351ebde6d1461086557806352351e851461087b578063550d01a31461089b57806355d6d39b146108cb576103ce565b8063466c01b8146107cf5780634a5df50f146107ef5780634e6c44661461080f57806350d2a2761461082f576103ce565b8063229852461161035a5780632f2ff15d116103295780632f2ff15d1461071357806333efca3d1461073357806336568abe1461078f5780633659cfe6146107af576103ce565b80632298524614610657578063248a9ca31461068b57806324d7806c146106bb5780632ac9bab6146106db576103ce565b8063122697581161039657806312269758146105395780631785f53c1461057f5780631916e5341461059f5780631c53f25614610612576103ce565b806301ffc9a7146103d8578063089fe6aa1461040d57806308ac3fcb146104375780630b7459eb14610501576103ce565b366103ce57005b6103d6611037565b005b3480156103e457600080fd5b506103f86103f3366004611fa4565b6110e5565b60405190151581526020015b60405180910390f35b34801561041957600080fd5b50610423610bb881565b60405162ffffff9091168152602001610404565b34801561044357600080fd5b506104b0610452366004611fe5565b601d6020526000908152604090208054600182015460028084015460038501546004860154600587015460068801546007909801549697959693959294919390929181900b9060ff630100000082048116916401000000009004168a565b604080519a8b5260208b0199909952978901969096526060880194909452608087019290925260a086015260c085015260020b60e08401521515610100830152151561012082015261014001610404565b34801561050d57600080fd5b50600654610521906001600160a01b031681565b6040516001600160a01b039091168152602001610404565b34801561054557600080fd5b50610571610554366004612000565b602460209081526000928352604080842090915290825290205481565b604051908152602001610404565b34801561058b57600080fd5b506103d661059a366004611fe5565b61111c565b3480156105ab57600080fd5b506105f06105ba36600461203d565b6022602090815260009283526040808420909152908252902080546001820154600283015460039093015460ff90921692909184565b6040805194151585526020850193909352918301526060820152608001610404565b34801561061e57600080fd5b50600f54610645907501000000000000000000000000000000000000000000900460ff1681565b60405160ff9091168152602001610404565b34801561066357600080fd5b506105717ffb5864e8ff833c3cb2d2d08505e82ff02a43554c74a35d4f5a64e8526127831181565b34801561069757600080fd5b506105716106a6366004612070565b60009081526004602052604090206001015490565b3480156106c757600080fd5b506103f86106d6366004611fe5565b611197565b3480156106e757600080fd5b506105716106f6366004612000565b602760209081526000928352604080842090915290825290205481565b34801561071f57600080fd5b506103d661072e366004612089565b6111d7565b34801561073f57600080fd5b5061077861074e36600461203d565b60216020908152600092835260408084209091529082529020805460019091015460ff9091169082565b604080519215158352602083019190915201610404565b34801561079b57600080fd5b506103d66107aa366004612089565b6111fc565b3480156107bb57600080fd5b506103d66107ca366004611fe5565b611288565b3480156107db57600080fd5b506105216107ea3660046120ac565b6113e1565b3480156107fb57600080fd5b506103d661080a3660046120d6565b611419565b34801561081b57600080fd5b50600954610521906001600160a01b031681565b34801561083b57600080fd5b5061052161084a366004611fa4565b6003602052600090815260409020546001600160a01b031681565b34801561087157600080fd5b5061057160125481565b34801561088757600080fd5b50600d54610521906001600160a01b031681565b3480156108a757600080fd5b506103f86108b6366004611fe5565b60026020526000908152604090205460ff1681565b3480156108d757600080fd5b506105716108e6366004612000565b602560209081526000928352604080842090915290825290205481565b34801561090f57600080fd5b5061052161091e3660046120ac565b6116c6565b34801561092f57600080fd5b506000805260016020527fa6eef7e35abe7026729641147f7915573c7e97b47efa546f5f6e3230263bcb49546001600160a01b0316610521565b34801561097557600080fd5b506103d661098436600461216a565b6116e2565b34801561099557600080fd5b506000546103f89060ff1681565b3480156109af57600080fd5b506103d66109be366004611fe5565b61173a565b3480156109cf57600080fd5b50600754610521906001600160a01b031681565b3480156109ef57600080fd5b50600854610521906001600160a01b031681565b348015610a0f57600080fd5b506103d6610a1e366004611fe5565b6117b2565b348015610a2f57600080fd5b506105717fdf8b4c520ffe197c5343c6f5aec59570151ef9a492f2c624fd45ddde6135ec4281565b348015610a6357600080fd5b5061057160115481565b348015610a7957600080fd5b506103d6610a88366004612194565b611902565b348015610a9957600080fd5b506103d6610aa83660046121af565b611963565b348015610ab957600080fd5b5061057160145481565b348015610acf57600080fd5b50610521610ade366004611fe5565b6017602052600090815260409020546001600160a01b031681565b348015610b0557600080fd5b50610b4a610b1436600461203d565b60208080526000928352604080842090915290825290208054600182015460029092015460ff8083169361010090930416919084565b60408051941515855260ff9093166020850152918301526060820152608001610404565b348015610b7a57600080fd5b50600a54610521906001600160a01b031681565b348015610b9a57600080fd5b50610521610ba9366004612070565b6119bc565b348015610bba57600080fd5b50610521610bc9366004611fa4565b6119d9565b348015610bda57600080fd5b5061052173c4a11aaf6ea915ed7ac194161d2fc9384f15bff281565b348015610c0257600080fd5b506103f8610c11366004612089565b60009182526004602090815260408084206001600160a01b0393909316845291905290205460ff1690565b348015610c4857600080fd5b50610571610c57366004611fe5565b60166020526000908152604090205481565b348015610c7557600080fd5b50610571610c84366004612000565b602660209081526000928352604080842090915290825290205481565b348015610cad57600080fd5b5061057160105481565b348015610cc357600080fd5b50610571600081565b348015610cd857600080fd5b50600f546106459074010000000000000000000000000000000000000000900460ff1681565b348015610d0a57600080fd5b50600e54610521906001600160a01b031681565b348015610d2a57600080fd5b50610d7c610d39366004611fe5565b601c602052600090815260409020805460018201546002830154600384015460048501546005860154600687015460079097015495969495939492939192909188565b604080519889526020890197909752958701949094526060860192909252608085015260a084015260c083015260e082015261010001610404565b348015610dc357600080fd5b50610521610dd2366004612070565b6001602052600090815260409020546001600160a01b031681565b348015610df957600080fd5b50610571610e083660046120ac565b611ad5565b348015610e1957600080fd5b50600554610521906001600160a01b031681565b348015610e3957600080fd5b50600b54610521906001600160a01b031681565b348015610e5957600080fd5b50601554610e679060020b81565b60405160029190910b8152602001610404565b348015610e8657600080fd5b50600f54610521906001600160a01b031681565b348015610ea657600080fd5b50610571610eb5366004612000565b602360209081526000928352604080842090915290825290205481565b348015610ede57600080fd5b506103d6610eed366004612089565b611b06565b348015610efe57600080fd5b50610f42610f0d366004611fe5565b601f60205260009081526040902080546001820154600283015460038401546004850154600590950154939492939192909186565b604080519687526020870195909552938501929092526060840152608083015260a082015260c001610404565b348015610f7b57600080fd5b50610fb9610f8a366004611fe5565b601e60205260009081526040902080546001820154600283015460038401546004909401549293919290919085565b604080519586526020860194909452928401919091526060830152608082015260a001610404565b348015610fed57600080fd5b5061057160135481565b34801561100357600080fd5b50600c54610521906001600160a01b031681565b34801561102357600080fd5b506105716110323660046120ac565b611b2b565b600061104e6000356001600160e01b0319166119d9565b90506001600160a01b0381161580159061106b575060005460ff16155b6110bc5760405162461bcd60e51b815260206004820152601d60248201527f50726f78793a20696d706c204f522070726f78792069732066616c736500000060448201526064015b60405180910390fd5b3660008037600080366000845af43d6000803e8080156110db573d6000f35b3d6000fd5b505050565b60006001600160e01b03198216637965db0b60e01b148061111657506301ffc9a760e01b6001600160e01b03198316145b92915050565b61112533611197565b61116a5760405162461bcd60e51b8152602060048201526022602482015260008051602061235783398151915260448201526134b760f11b60648201526084016110b3565b6111947fdf8b4c520ffe197c5343c6f5aec59570151ef9a492f2c624fd45ddde6135ec42826111fc565b50565b6001600160a01b03811660009081527f2fb794d17134dfdec181ddbac1babb5ab1eb140204ef4d982f294e7fc8b69022602052604081205460ff16611116565b6000828152600460205260409020600101546111f281611b47565b6110e08383611b51565b6001600160a01b038116331461127a5760405162461bcd60e51b815260206004820152602f60248201527f416363657373436f6e74726f6c3a2063616e206f6e6c792072656e6f756e636560448201527f20726f6c657320666f722073656c66000000000000000000000000000000000060648201526084016110b3565b6112848282611bf3565b5050565b61129133611197565b6112d65760405162461bcd60e51b8152602060048201526022602482015260008051602061235783398151915260448201526134b760f11b60648201526084016110b3565b6001600160a01b03811661132c5760405162461bcd60e51b815260206004820152600d60248201527f696e707574206973207a65726f0000000000000000000000000000000000000060448201526064016110b3565b6000805260016020527fa6eef7e35abe7026729641147f7915573c7e97b47efa546f5f6e3230263bcb49546001600160a01b0382811691160361139d5760405162461bcd60e51b815260206004820152600960248201526839b0b6b29030b2323960b91b60448201526064016110b3565b6113aa8160006001611c76565b6040516001600160a01b038216907fbc7cd75a20ee27fd9adebab32041f755214dbc6bffa90cc0225b39da2e5c2d3b90600090a250565b601860205281600052604060002081815481106113fd57600080fd5b6000918252602090912001546001600160a01b03169150829050565b61142233611197565b6114675760405162461bcd60e51b8152602060048201526022602482015260008051602061235783398151915260448201526134b760f11b60648201526084016110b3565b816114b45760405162461bcd60e51b815260206004820181905260248201527f50726f78793a205f73656c6563746f727327732073697a65206973207a65726f60448201526064016110b3565b6001600160a01b03811660009081526002602052604090205460ff1661151c5760405162461bcd60e51b815260206004820152601860248201527f50726f78793a205f696d70206973206e6f7420616c697665000000000000000060448201526064016110b3565b60005b828110156116c057816001600160a01b031660036000868685818110611547576115476121e2565b905060200201602081019061155c9190611fa4565b6001600160e01b03191681526020810191909152604001600020546001600160a01b0316036115cd5760405162461bcd60e51b815260206004820152601d60248201527f4c69717569646974795661756c7450726f78793a2073616d6520696d7000000060448201526064016110b3565b81600360008686858181106115e4576115e46121e2565b90506020020160208101906115f99190611fa4565b6001600160e01b03191681526020810191909152604001600020805473ffffffffffffffffffffffffffffffffffffffff19166001600160a01b03928316179055821684848381811061164e5761164e6121e2565b90506020020160208101906116639190611fa4565b7bffffffffffffffffffffffffffffffffffffffffffffffffffffffff19167f14ebc1c32aa68f4d766e89f3e546cee249f7df25183fc10ab1568d91c2ce9b7b60405160405180910390a3806116b88161220e565b91505061151f565b50505050565b601960205281600052604060002081815481106113fd57600080fd5b6116eb33611197565b6117305760405162461bcd60e51b8152602060048201526022602482015260008051602061235783398151915260448201526134b760f11b60648201526084016110b3565b6112848282611d0e565b61174333611197565b6117885760405162461bcd60e51b8152602060048201526022602482015260008051602061235783398151915260448201526134b760f11b60648201526084016110b3565b6111947fdf8b4c520ffe197c5343c6f5aec59570151ef9a492f2c624fd45ddde6135ec42826111d7565b6117bb33611197565b6118005760405162461bcd60e51b8152602060048201526022602482015260008051602061235783398151915260448201526134b760f11b60648201526084016110b3565b6001600160a01b0381166118565760405162461bcd60e51b815260206004820152601860248201527f41636365737369626c653a207a65726f2061646472657373000000000000000060448201526064016110b3565b6001600160a01b03811633036118ae5760405162461bcd60e51b815260206004820152601660248201527f41636365737369626c653a2073616d652061646d696e0000000000000000000060448201526064016110b3565b6118d87fdf8b4c520ffe197c5343c6f5aec59570151ef9a492f2c624fd45ddde6135ec42826111d7565b6111947fdf8b4c520ffe197c5343c6f5aec59570151ef9a492f2c624fd45ddde6135ec42336111fc565b61190b33611197565b6119505760405162461bcd60e51b8152602060048201526022602482015260008051602061235783398151915260448201526134b760f11b60648201526084016110b3565b6000805460ff1916911515919091179055565b61196c33611197565b6119b15760405162461bcd60e51b8152602060048201526022602482015260008051602061235783398151915260448201526134b760f11b60648201526084016110b3565b6110e0838383611c76565b6000818152600160205260408120546001600160a01b0316611116565b6001600160e01b031981166000908152600360205260408120546001600160a01b0316611a395750506000805260016020527fa6eef7e35abe7026729641147f7915573c7e97b47efa546f5f6e3230263bcb49546001600160a01b031690565b6001600160e01b031982166000908152600360209081526040808320546001600160a01b03168352600290915290205460ff1615611a9757506001600160e01b0319166000908152600360205260409020546001600160a01b031690565b50506000805260016020527fa6eef7e35abe7026729641147f7915573c7e97b47efa546f5f6e3230263bcb49546001600160a01b031690565b919050565b601a6020528160005260406000208181548110611af157600080fd5b90600052602060002001600091509150505481565b600082815260046020526040902060010154611b2181611b47565b6110e08383611bf3565b601b6020528160005260406000208181548110611af157600080fd5b6111948133611d6d565b60008281526004602090815260408083206001600160a01b038516845290915290205460ff166112845760008281526004602090815260408083206001600160a01b03851684529091529020805460ff19166001179055611baf3390565b6001600160a01b0316816001600160a01b0316837f2f8788117e7eff1d82e926ec794901d17c78024a50270940304540a733656f0d60405160405180910390a45050565b60008281526004602090815260408083206001600160a01b038516845290915290205460ff16156112845760008281526004602090815260408083206001600160a01b0385168085529252808320805460ff1916905551339285917ff6391f5c32d9c69d2a47ea670b442974b53935d1edc7fd64eb21e047a839171b9190a45050565b6001600160a01b0383163b611ccd5760405162461bcd60e51b815260206004820152601b60248201527f50726f78793a206e6f7420636f6e74726163742061646472657373000000000060448201526064016110b3565b8015611d08576000828152600160205260409020805473ffffffffffffffffffffffffffffffffffffffff19166001600160a01b0385161790555b6110e083825b6001600160a01b038216600081815260026020908152604091829020805460ff191685151590811790915591519182527f72558d9bfba4210f9ef095c782589484151f6d90f7a81bb3cb9b33efc695d324910160405180910390a25050565b60008281526004602090815260408083206001600160a01b038516845290915290205460ff1661128457611da081611de2565b611dab836020611df4565b604051602001611dbc92919061224b565b60408051601f198184030181529082905262461bcd60e51b82526110b3916004016122cc565b60606111166001600160a01b03831660145b60606000611e038360026122ff565b611e0e906002612316565b67ffffffffffffffff811115611e2657611e26612329565b6040519080825280601f01601f191660200182016040528015611e50576020820181803683370190505b509050600360fc1b81600081518110611e6b57611e6b6121e2565b60200101906001600160f81b031916908160001a905350600f60fb1b81600181518110611e9a57611e9a6121e2565b60200101906001600160f81b031916908160001a9053506000611ebe8460026122ff565b611ec9906001612316565b90505b6001811115611f4e577f303132333435363738396162636465660000000000000000000000000000000085600f1660108110611f0a57611f0a6121e2565b1a60f81b828281518110611f2057611f206121e2565b60200101906001600160f81b031916908160001a90535060049490941c93611f478161233f565b9050611ecc565b508315611f9d5760405162461bcd60e51b815260206004820181905260248201527f537472696e67733a20686578206c656e67746820696e73756666696369656e7460448201526064016110b3565b9392505050565b600060208284031215611fb657600080fd5b81356001600160e01b031981168114611f9d57600080fd5b80356001600160a01b0381168114611ad057600080fd5b600060208284031215611ff757600080fd5b611f9d82611fce565b6000806040838503121561201357600080fd5b61201c83611fce565b9150602083013560ff8116811461203257600080fd5b809150509250929050565b6000806040838503121561205057600080fd5b61205983611fce565b915061206760208401611fce565b90509250929050565b60006020828403121561208257600080fd5b5035919050565b6000806040838503121561209c57600080fd5b8235915061206760208401611fce565b600080604083850312156120bf57600080fd5b6120c883611fce565b946020939093013593505050565b6000806000604084860312156120eb57600080fd5b833567ffffffffffffffff8082111561210357600080fd5b818601915086601f83011261211757600080fd5b81358181111561212657600080fd5b8760208260051b850101111561213b57600080fd5b6020928301955093506121519186019050611fce565b90509250925092565b80358015158114611ad057600080fd5b6000806040838503121561217d57600080fd5b61218683611fce565b91506120676020840161215a565b6000602082840312156121a657600080fd5b611f9d8261215a565b6000806000606084860312156121c457600080fd5b6121cd84611fce565b9250602084013591506121516040850161215a565b634e487b7160e01b600052603260045260246000fd5b634e487b7160e01b600052601160045260246000fd5b600060018201612220576122206121f8565b5060010190565b60005b8381101561224257818101518382015260200161222a565b50506000910152565b7f416363657373436f6e74726f6c3a206163636f756e7420000000000000000000815260008351612283816017850160208801612227565b7f206973206d697373696e6720726f6c652000000000000000000000000000000060179184019182015283516122c0816028840160208801612227565b01602801949350505050565b60208152600082518060208401526122eb816040850160208701612227565b601f01601f19169190910160400192915050565b8082028115828204841417611116576111166121f8565b80820180821115611116576111166121f8565b634e487b7160e01b600052604160045260246000fd5b60008161234e5761234e6121f8565b50600019019056fe41636365737369626c653a2043616c6c6572206973206e6f7420616e2061646da164736f6c6343000812000adf8b4c520ffe197c5343c6f5aec59570151ef9a492f2c624fd45ddde6135ec42",
  "linkReferences": {},
  "deployedLinkReferences": {}
}