{
  "_format": "hh-sol-artifact-1",
  "contractName": "LockTOS",
  "sourceName": "contracts/test/LockTOS.sol",
  "abi": [
    {
      "inputs": [],
      "stateMutability": "nonpayable",
      "type": "constructor"
    },
    {
      "anonymous": false,
      "inputs": [
        {
          "indexed": false,
          "internalType": "address",
          "name": "account",
          "type": "address"
        },
        {
          "indexed": false,
          "internalType": "uint256",
          "name": "lockId",
          "type": "uint256"
        },
        {
          "indexed": false,
          "internalType": "uint256",
          "name": "value",
          "type": "uint256"
        }
      ],
      "name": "LockAmountIncreased",
      "type": "event"
    },
    {
      "anonymous": false,
      "inputs": [
        {
          "indexed": false,
          "internalType": "address",
          "name": "account",
          "type": "address"
        },
        {
          "indexed": false,
          "internalType": "uint256",
          "name": "lockId",
          "type": "uint256"
        },
        {
          "indexed": false,
          "internalType": "uint256",
          "name": "value",
          "type": "uint256"
        },
        {
          "indexed": false,
          "internalType": "uint256",
          "name": "unlockTime",
          "type": "uint256"
        }
      ],
      "name": "LockCreated",
      "type": "event"
    },
    {
      "anonymous": false,
      "inputs": [
        {
          "indexed": false,
          "internalType": "address",
          "name": "account",
          "type": "address"
        },
        {
          "indexed": false,
          "internalType": "uint256",
          "name": "lockId",
          "type": "uint256"
        },
        {
          "indexed": false,
          "internalType": "uint256",
          "name": "value",
          "type": "uint256"
        }
      ],
      "name": "LockDeposited",
      "type": "event"
    },
    {
      "anonymous": false,
      "inputs": [
        {
          "indexed": false,
          "internalType": "address",
          "name": "account",
          "type": "address"
        },
        {
          "indexed": false,
          "internalType": "uint256",
          "name": "lockId",
          "type": "uint256"
        },
        {
          "indexed": false,
          "internalType": "uint256",
          "name": "unlockTime",
          "type": "uint256"
        }
      ],
      "name": "LockUnlockTimeIncreased",
      "type": "event"
    },
    {
      "anonymous": false,
      "inputs": [
        {
          "indexed": false,
          "internalType": "address",
          "name": "account",
          "type": "address"
        },
        {
          "indexed": false,
          "internalType": "uint256",
          "name": "lockId",
          "type": "uint256"
        },
        {
          "indexed": false,
          "internalType": "uint256",
          "name": "value",
          "type": "uint256"
        }
      ],
      "name": "LockWithdrawn",
      "type": "event"
    },
    {
      "anonymous": false,
      "inputs": [
        {
          "indexed": true,
          "internalType": "bytes32",
          "name": "role",
          "type": "bytes32"
        },
        {
          "indexed": true,
          "internalType": "bytes32",
          "name": "previousAdminRole",
          "type": "bytes32"
        },
        {
          "indexed": true,
          "internalType": "bytes32",
          "name": "newAdminRole",
          "type": "bytes32"
        }
      ],
      "name": "RoleAdminChanged",
      "type": "event"
    },
    {
      "anonymous": false,
      "inputs": [
        {
          "indexed": true,
          "internalType": "bytes32",
          "name": "role",
          "type": "bytes32"
        },
        {
          "indexed": true,
          "internalType": "address",
          "name": "account",
          "type": "address"
        },
        {
          "indexed": true,
          "internalType": "address",
          "name": "sender",
          "type": "address"
        }
      ],
      "name": "RoleGranted",
      "type": "event"
    },
    {
      "anonymous": false,
      "inputs": [
        {
          "indexed": true,
          "internalType": "bytes32",
          "name": "role",
          "type": "bytes32"
        },
        {
          "indexed": true,
          "internalType": "address",
          "name": "account",
          "type": "address"
        },
        {
          "indexed": true,
          "internalType": "address",
          "name": "sender",
          "type": "address"
        }
      ],
      "name": "RoleRevoked",
      "type": "event"
    },
    {
      "inputs": [],
      "name": "ADMIN_ROLE",
      "outputs": [
        {
          "internalType": "bytes32",
          "name": "",
          "type": "bytes32"
        }
      ],
      "stateMutability": "view",
      "type": "function"
    },
    {
      "inputs": [],
      "name": "DEFAULT_ADMIN_ROLE",
      "outputs": [
        {
          "internalType": "bytes32",
          "name": "",
          "type": "bytes32"
        }
      ],
      "stateMutability": "view",
      "type": "function"
    },
    {
      "inputs": [],
      "name": "MULTIPLIER",
      "outputs": [
        {
          "internalType": "uint256",
          "name": "",
          "type": "uint256"
        }
      ],
      "stateMutability": "view",
      "type": "function"
    },
    {
      "inputs": [],
      "name": "POLICY_ROLE",
      "outputs": [
        {
          "internalType": "bytes32",
          "name": "",
          "type": "bytes32"
        }
      ],
      "stateMutability": "view",
      "type": "function"
    },
    {
      "inputs": [],
      "name": "activeHolders",
      "outputs": [
        {
          "internalType": "address[]",
          "name": "",
          "type": "address[]"
        }
      ],
      "stateMutability": "view",
      "type": "function"
    },
    {
      "inputs": [
        {
          "internalType": "address",
          "name": "_addr",
          "type": "address"
        }
      ],
      "name": "activeLocksOf",
      "outputs": [
        {
          "internalType": "uint256[]",
          "name": "",
          "type": "uint256[]"
        }
      ],
      "stateMutability": "view",
      "type": "function"
    },
    {
      "inputs": [
        {
          "internalType": "address",
          "name": "account",
          "type": "address"
        }
      ],
      "name": "addAdmin",
      "outputs": [],
      "stateMutability": "nonpayable",
      "type": "function"
    },
    {
      "inputs": [],
      "name": "allHolders",
      "outputs": [
        {
          "internalType": "address[]",
          "name": "",
          "type": "address[]"
        }
      ],
      "stateMutability": "view",
      "type": "function"
    },
    {
      "inputs": [
        {
          "internalType": "uint256",
          "name": "",
          "type": "uint256"
        }
      ],
      "name": "allLocks",
      "outputs": [
        {
          "internalType": "uint256",
          "name": "start",
          "type": "uint256"
        },
        {
          "internalType": "uint256",
          "name": "end",
          "type": "uint256"
        },
        {
          "internalType": "uint256",
          "name": "amount",
          "type": "uint256"
        },
        {
          "internalType": "bool",
          "name": "withdrawn",
          "type": "bool"
        }
      ],
      "stateMutability": "view",
      "type": "function"
    },
    {
      "inputs": [
        {
          "internalType": "address",
          "name": "_addr",
          "type": "address"
        }
      ],
      "name": "balanceOf",
      "outputs": [
        {
          "internalType": "uint256",
          "name": "balance",
          "type": "uint256"
        }
      ],
      "stateMutability": "view",
      "type": "function"
    },
    {
      "inputs": [
        {
          "internalType": "address",
          "name": "_addr",
          "type": "address"
        },
        {
          "internalType": "uint256",
          "name": "_timestamp",
          "type": "uint256"
        }
      ],
      "name": "balanceOfAt",
      "outputs": [
        {
          "internalType": "uint256",
          "name": "balance",
          "type": "uint256"
        }
      ],
      "stateMutability": "view",
      "type": "function"
    },
    {
      "inputs": [
        {
          "internalType": "uint256",
          "name": "_lockId",
          "type": "uint256"
        }
      ],
      "name": "balanceOfLock",
      "outputs": [
        {
          "internalType": "uint256",
          "name": "",
          "type": "uint256"
        }
      ],
      "stateMutability": "view",
      "type": "function"
    },
    {
      "inputs": [
        {
          "internalType": "uint256",
          "name": "_lockId",
          "type": "uint256"
        },
        {
          "internalType": "uint256",
          "name": "_timestamp",
          "type": "uint256"
        }
      ],
      "name": "balanceOfLockAt",
      "outputs": [
        {
          "internalType": "uint256",
          "name": "",
          "type": "uint256"
        }
      ],
      "stateMutability": "view",
      "type": "function"
    },
    {
      "inputs": [
        {
          "internalType": "uint256",
          "name": "_value",
          "type": "uint256"
        },
        {
          "internalType": "uint256",
          "name": "_unlockWeeks",
          "type": "uint256"
        }
      ],
      "name": "createLock",
      "outputs": [
        {
          "internalType": "uint256",
          "name": "lockId",
          "type": "uint256"
        }
      ],
      "stateMutability": "nonpayable",
      "type": "function"
    },
    {
      "inputs": [
        {
          "internalType": "uint256",
          "name": "_value",
          "type": "uint256"
        },
        {
          "internalType": "uint256",
          "name": "_unlockWeeks",
          "type": "uint256"
        },
        {
          "internalType": "uint256",
          "name": "_deadline",
          "type": "uint256"
        },
        {
          "internalType": "uint8",
          "name": "_v",
          "type": "uint8"
        },
        {
          "internalType": "bytes32",
          "name": "_r",
          "type": "bytes32"
        },
        {
          "internalType": "bytes32",
          "name": "_s",
          "type": "bytes32"
        }
      ],
      "name": "createLockWithPermit",
      "outputs": [
        {
          "internalType": "uint256",
          "name": "lockId",
          "type": "uint256"
        }
      ],
      "stateMutability": "nonpayable",
      "type": "function"
    },
    {
      "inputs": [],
      "name": "cumulativeEpochUnit",
      "outputs": [
        {
          "internalType": "uint256",
          "name": "",
          "type": "uint256"
        }
      ],
      "stateMutability": "view",
      "type": "function"
    },
    {
      "inputs": [],
      "name": "cumulativeTOSAmount",
      "outputs": [
        {
          "internalType": "uint256",
          "name": "",
          "type": "uint256"
        }
      ],
      "stateMutability": "view",
      "type": "function"
    },
    {
      "inputs": [],
      "name": "currentStakedTotalTOS",
      "outputs": [
        {
          "internalType": "uint256",
          "name": "",
          "type": "uint256"
        }
      ],
      "stateMutability": "view",
      "type": "function"
    },
    {
      "inputs": [
        {
          "internalType": "address",
          "name": "_addr",
          "type": "address"
        },
        {
          "internalType": "uint256",
          "name": "_lockId",
          "type": "uint256"
        },
        {
          "internalType": "uint256",
          "name": "_value",
          "type": "uint256"
        }
      ],
      "name": "depositFor",
      "outputs": [],
      "stateMutability": "nonpayable",
      "type": "function"
    },
    {
      "inputs": [],
      "name": "epochUnit",
      "outputs": [
        {
          "internalType": "uint256",
          "name": "",
          "type": "uint256"
        }
      ],
      "stateMutability": "view",
      "type": "function"
    },
    {
      "inputs": [],
      "name": "getCurrentTime",
      "outputs": [
        {
          "internalType": "uint256",
          "name": "",
          "type": "uint256"
        }
      ],
      "stateMutability": "view",
      "type": "function"
    },
    {
      "inputs": [
        {
          "internalType": "bytes32",
          "name": "role",
          "type": "bytes32"
        }
      ],
      "name": "getRoleAdmin",
      "outputs": [
        {
          "internalType": "bytes32",
          "name": "",
          "type": "bytes32"
        }
      ],
      "stateMutability": "view",
      "type": "function"
    },
    {
      "inputs": [],
      "name": "globalCheckpoint",
      "outputs": [],
      "stateMutability": "nonpayable",
      "type": "function"
    },
    {
      "inputs": [
        {
          "internalType": "bytes32",
          "name": "role",
          "type": "bytes32"
        },
        {
          "internalType": "address",
          "name": "account",
          "type": "address"
        }
      ],
      "name": "grantRole",
      "outputs": [],
      "stateMutability": "nonpayable",
      "type": "function"
    },
    {
      "inputs": [
        {
          "internalType": "bytes32",
          "name": "role",
          "type": "bytes32"
        },
        {
          "internalType": "address",
          "name": "account",
          "type": "address"
        }
      ],
      "name": "hasRole",
      "outputs": [
        {
          "internalType": "bool",
          "name": "",
          "type": "bool"
        }
      ],
      "stateMutability": "view",
      "type": "function"
    },
    {
      "inputs": [
        {
          "internalType": "uint256",
          "name": "",
          "type": "uint256"
        }
      ],
      "name": "inUse",
      "outputs": [
        {
          "internalType": "bool",
          "name": "",
          "type": "bool"
        }
      ],
      "stateMutability": "view",
      "type": "function"
    },
    {
      "inputs": [
        {
          "internalType": "uint256",
          "name": "_lockId",
          "type": "uint256"
        },
        {
          "internalType": "uint256",
          "name": "_value",
          "type": "uint256"
        }
      ],
      "name": "increaseAmount",
      "outputs": [],
      "stateMutability": "nonpayable",
      "type": "function"
    },
    {
      "inputs": [
        {
          "internalType": "uint256",
          "name": "_lockId",
          "type": "uint256"
        },
        {
          "internalType": "uint256",
          "name": "_unlockWeeks",
          "type": "uint256"
        }
      ],
      "name": "increaseUnlockTime",
      "outputs": [],
      "stateMutability": "nonpayable",
      "type": "function"
    },
    {
      "inputs": [
        {
          "internalType": "address",
          "name": "_tos",
          "type": "address"
        },
        {
          "internalType": "uint256",
          "name": "_epochUnit",
          "type": "uint256"
        },
        {
          "internalType": "uint256",
          "name": "_maxTime",
          "type": "uint256"
        }
      ],
      "name": "initialize",
      "outputs": [],
      "stateMutability": "nonpayable",
      "type": "function"
    },
    {
      "inputs": [
        {
          "internalType": "address",
          "name": "account",
          "type": "address"
        }
      ],
      "name": "isAdmin",
      "outputs": [
        {
          "internalType": "bool",
          "name": "",
          "type": "bool"
        }
      ],
      "stateMutability": "view",
      "type": "function"
    },
    {
      "inputs": [],
      "name": "lockIdCounter",
      "outputs": [
        {
          "internalType": "uint256",
          "name": "",
          "type": "uint256"
        }
      ],
      "stateMutability": "view",
      "type": "function"
    },
    {
      "inputs": [
        {
          "internalType": "uint256",
          "name": "",
          "type": "uint256"
        },
        {
          "internalType": "uint256",
          "name": "",
          "type": "uint256"
        }
      ],
      "name": "lockPointHistory",
      "outputs": [
        {
          "internalType": "int256",
          "name": "bias",
          "type": "int256"
        },
        {
          "internalType": "int256",
          "name": "slope",
          "type": "int256"
        },
        {
          "internalType": "uint256",
          "name": "timestamp",
          "type": "uint256"
        }
      ],
      "stateMutability": "view",
      "type": "function"
    },
    {
      "inputs": [
        {
          "internalType": "address",
          "name": "",
          "type": "address"
        },
        {
          "internalType": "uint256",
          "name": "",
          "type": "uint256"
        }
      ],
      "name": "lockedBalances",
      "outputs": [
        {
          "internalType": "uint256",
          "name": "start",
          "type": "uint256"
        },
        {
          "internalType": "uint256",
          "name": "end",
          "type": "uint256"
        },
        {
          "internalType": "uint256",
          "name": "amount",
          "type": "uint256"
        },
        {
          "internalType": "bool",
          "name": "withdrawn",
          "type": "bool"
        }
      ],
      "stateMutability": "view",
      "type": "function"
    },
    {
      "inputs": [
        {
          "internalType": "uint256",
          "name": "_lockId",
          "type": "uint256"
        }
      ],
      "name": "locksInfo",
      "outputs": [
        {
          "internalType": "uint256",
          "name": "start",
          "type": "uint256"
        },
        {
          "internalType": "uint256",
          "name": "end",
          "type": "uint256"
        },
        {
          "internalType": "uint256",
          "name": "amount",
          "type": "uint256"
        }
      ],
      "stateMutability": "view",
      "type": "function"
    },
    {
      "inputs": [
        {
          "internalType": "address",
          "name": "_addr",
          "type": "address"
        }
      ],
      "name": "locksOf",
      "outputs": [
        {
          "internalType": "uint256[]",
          "name": "",
          "type": "uint256[]"
        }
      ],
      "stateMutability": "view",
      "type": "function"
    },
    {
      "inputs": [],
      "name": "maxTime",
      "outputs": [
        {
          "internalType": "uint256",
          "name": "",
          "type": "uint256"
        }
      ],
      "stateMutability": "view",
      "type": "function"
    },
    {
      "inputs": [],
      "name": "migratedL2",
      "outputs": [
        {
          "internalType": "bool",
          "name": "",
          "type": "bool"
        }
      ],
      "stateMutability": "view",
      "type": "function"
    },
    {
      "inputs": [],
      "name": "needCheckpoint",
      "outputs": [
        {
          "internalType": "bool",
          "name": "need",
          "type": "bool"
        }
      ],
      "stateMutability": "view",
      "type": "function"
    },
    {
      "inputs": [],
      "name": "pauseProxy",
      "outputs": [
        {
          "internalType": "bool",
          "name": "",
          "type": "bool"
        }
      ],
      "stateMutability": "view",
      "type": "function"
    },
    {
      "inputs": [
        {
          "internalType": "uint256",
          "name": "",
          "type": "uint256"
        }
      ],
      "name": "pointHistory",
      "outputs": [
        {
          "internalType": "int256",
          "name": "bias",
          "type": "int256"
        },
        {
          "internalType": "int256",
          "name": "slope",
          "type": "int256"
        },
        {
          "internalType": "uint256",
          "name": "timestamp",
          "type": "uint256"
        }
      ],
      "stateMutability": "view",
      "type": "function"
    },
    {
      "inputs": [
        {
          "internalType": "uint256",
          "name": "_lockId",
          "type": "uint256"
        }
      ],
      "name": "pointHistoryOf",
      "outputs": [
        {
          "components": [
            {
              "internalType": "int256",
              "name": "bias",
              "type": "int256"
            },
            {
              "internalType": "int256",
              "name": "slope",
              "type": "int256"
            },
            {
              "internalType": "uint256",
              "name": "timestamp",
              "type": "uint256"
            }
          ],
          "internalType": "struct LibLockTOS.Point[]",
          "name": "",
          "type": "tuple[]"
        }
      ],
      "stateMutability": "view",
      "type": "function"
    },
    {
      "inputs": [
        {
          "internalType": "address",
          "name": "account",
          "type": "address"
        }
      ],
      "name": "removeAdmin",
      "outputs": [],
      "stateMutability": "nonpayable",
      "type": "function"
    },
    {
      "inputs": [
        {
          "internalType": "bytes32",
          "name": "role",
          "type": "bytes32"
        },
        {
          "internalType": "address",
          "name": "account",
          "type": "address"
        }
      ],
      "name": "renounceRole",
      "outputs": [],
      "stateMutability": "nonpayable",
      "type": "function"
    },
    {
      "inputs": [
        {
          "internalType": "bytes32",
          "name": "role",
          "type": "bytes32"
        },
        {
          "internalType": "address",
          "name": "account",
          "type": "address"
        }
      ],
      "name": "revokeRole",
      "outputs": [],
      "stateMutability": "nonpayable",
      "type": "function"
    },
    {
      "inputs": [
        {
          "internalType": "uint256",
          "name": "_maxTime",
          "type": "uint256"
        }
      ],
      "name": "setMaxTime",
      "outputs": [],
      "stateMutability": "nonpayable",
      "type": "function"
    },
    {
      "inputs": [
        {
          "internalType": "uint256",
          "name": "",
          "type": "uint256"
        }
      ],
      "name": "slopeChanges",
      "outputs": [
        {
          "internalType": "int256",
          "name": "",
          "type": "int256"
        }
      ],
      "stateMutability": "view",
      "type": "function"
    },
    {
      "inputs": [],
      "name": "stakeRegistry",
      "outputs": [
        {
          "internalType": "address",
          "name": "",
          "type": "address"
        }
      ],
      "stateMutability": "view",
      "type": "function"
    },
    {
      "inputs": [
        {
          "internalType": "bytes4",
          "name": "interfaceId",
          "type": "bytes4"
        }
      ],
      "name": "supportsInterface",
      "outputs": [
        {
          "internalType": "bool",
          "name": "",
          "type": "bool"
        }
      ],
      "stateMutability": "view",
      "type": "function"
    },
    {
      "inputs": [],
      "name": "tos",
      "outputs": [
        {
          "internalType": "address",
          "name": "",
          "type": "address"
        }
      ],
      "stateMutability": "view",
      "type": "function"
    },
    {
      "inputs": [
        {
          "internalType": "address",
          "name": "_addr",
          "type": "address"
        }
      ],
      "name": "totalLockedAmountOf",
      "outputs": [
        {
          "internalType": "uint256",
          "name": "",
          "type": "uint256"
        }
      ],
      "stateMutability": "view",
      "type": "function"
    },
    {
      "inputs": [],
      "name": "totalSupply",
      "outputs": [
        {
          "internalType": "uint256",
          "name": "",
          "type": "uint256"
        }
      ],
      "stateMutability": "view",
      "type": "function"
    },
    {
      "inputs": [
        {
          "internalType": "uint256",
          "name": "_timestamp",
          "type": "uint256"
        }
      ],
      "name": "totalSupplyAt",
      "outputs": [
        {
          "internalType": "uint256",
          "name": "",
          "type": "uint256"
        }
      ],
      "stateMutability": "view",
      "type": "function"
    },
    {
      "inputs": [
        {
          "internalType": "address",
          "name": "newAdmin",
          "type": "address"
        }
      ],
      "name": "transferAdmin",
      "outputs": [],
      "stateMutability": "nonpayable",
      "type": "function"
    },
    {
      "inputs": [
        {
          "internalType": "uint256",
          "name": "",
          "type": "uint256"
        }
      ],
      "name": "uniqueUsers",
      "outputs": [
        {
          "internalType": "address",
          "name": "",
          "type": "address"
        }
      ],
      "stateMutability": "view",
      "type": "function"
    },
    {
      "inputs": [
        {
          "internalType": "address",
          "name": "",
          "type": "address"
        },
        {
          "internalType": "uint256",
          "name": "",
          "type": "uint256"
        }
      ],
      "name": "userLocks",
      "outputs": [
        {
          "internalType": "uint256",
          "name": "",
          "type": "uint256"
        }
      ],
      "stateMutability": "view",
      "type": "function"
    },
    {
      "inputs": [
        {
          "internalType": "uint256",
          "name": "_lockId",
          "type": "uint256"
        }
      ],
      "name": "withdraw",
      "outputs": [],
      "stateMutability": "nonpayable",
      "type": "function"
    },
    {
      "inputs": [],
      "name": "withdrawAll",
      "outputs": [],
      "stateMutability": "nonpayable",
      "type": "function"
    },
    {
      "inputs": [
        {
          "internalType": "address",
          "name": "_addr",
          "type": "address"
        }
      ],
      "name": "withdrawableAmountOf",
      "outputs": [
        {
          "internalType": "uint256",
          "name": "",
          "type": "uint256"
        }
      ],
      "stateMutability": "view",
      "type": "function"
    },
    {
      "inputs": [
        {
          "internalType": "address",
          "name": "_addr",
          "type": "address"
        }
      ],
      "name": "withdrawableLocksOf",
      "outputs": [
        {
          "internalType": "uint256[]",
          "name": "",
          "type": "uint256[]"
        }
      ],
      "stateMutability": "view",
      "type": "function"
    }
  ],
  "bytecode": "0x608060405260016007553480156200001657600080fd5b506200003260008051602062003ee88339815191528062000062565b6200004d60008051602062003ee883398151915233620000ad565b60006004819055600581905560065562000161565b600082815260106020526040808220600101805490849055905190918391839186917fbd79b86ffe0ab8e8776151514217cd7cacd52c909f66475c3af44e129f0b00ff9190a4505050565b620000b98282620000bd565b5050565b60008281526010602090815260408083206001600160a01b038516845290915290205460ff16620000b95760008281526010602090815260408083206001600160a01b03851684529091529020805460ff191660011790556200011d3390565b6001600160a01b0316816001600160a01b0316837f2f8788117e7eff1d82e926ec794901d17c78024a50270940304540a733656f0d60405160405180910390a45050565b613d7780620001716000396000f3fe608060405234801561001057600080fd5b50600436106103995760003560e01c8063853828b6116101e9578063b94419e01161010f578063d547741f116100ad578063eb86b3421161007c578063eb86b342146108b2578063ed50c699146108c5578063f52a36f7146108d8578063fd2dcecf146108f857600080fd5b8063d547741f14610871578063dd38339414610884578063e43cb66614610897578063ea31e895146108aa57600080fd5b8063c5dc1e5f116100e9578063c5dc1e5f1461081d578063c79acdda1461083d578063c80a3aa614610860578063cd29ca0e1461086857600080fd5b8063b94419e0146107d5578063c3f9ab58146107e8578063c57736561461080857600080fd5b80639d507b8b11610187578063afae883e11610156578063afae883e1461079d578063b2383e55146107a6578063b52c05fe146107b9578063b534ad56146107cc57600080fd5b80639d507b8b14610749578063a1f5f50e1461075c578063a217fddf14610782578063aa33fedb1461078a57600080fd5b806391d14854116101c357806391d14854146106bd578063981b24d0146106f657806398b777e7146107095780639ce563051461071c57600080fd5b8063853828b61461068f57806389f395de146106975780638ad4c447146106aa57600080fd5b806336568abe116102ce578063642cf6491161026c57806375829def1161023b57806375829def1461062f57806375b238fc146106425780637a1ac61e146106695780638372cd7e1461067c57600080fd5b8063642cf649146105c657806368304835146105d9578063704802751461060957806370a082311461061c57600080fd5b80634ee2cd7e116102a85780634ee2cd7e146105095780635d16a6f91461051c57806363a8fd891461058157806363d5a3d91461058e57600080fd5b806336568abe146104b5578063367b7b23146104c85780634cf5fbf5146104f657600080fd5b8063229852461161033b57806324d7806c1161031557806324d7806c1461047657806329cb924d146104895780632e1a7d4d1461048f5780632f2ff15d146104a257600080fd5b8063229852461461042357806322e67e711461044a578063248a9ca31461045357600080fd5b80630b7858ba116103775780630b7858ba146103f65780631785f53c146103fe57806318160ddd146104135780631ac40e661461041b57600080fd5b806301ffc9a71461039e578063059f8b16146103c6578063086c46f4146103e3575b600080fd5b6103b16103ac3660046138b3565b610901565b60405190151581526020015b60405180910390f35b6103d5670de0b6b3a764000081565b6040519081526020016103bd565b6103d56103f13660046138f9565b610938565b6103b1610a0e565b61041161040c3660046138f9565b610a69565b005b6103d5610afb565b610411610bdb565b6103d57ffb5864e8ff833c3cb2d2d08505e82ff02a43554c74a35d4f5a64e8526127831181565b6103d560025481565b6103d5610461366004613914565b60009081526010602052604090206001015490565b6103b16104843660046138f9565b610be3565b426103d5565b61041161049d366004613914565b610c23565b6104116104b036600461392d565b610cd8565b6104116104c336600461392d565b610d02565b6104db6104d6366004613959565b610d8e565b604080519384526020840192909252908201526060016103bd565b61041161050436600461397b565b610dd0565b6103d56105173660046139ae565b610fc1565b61055f61052a3660046139ae565b600b60209081526000928352604080842090915290825290208054600182015460028301546003909301549192909160ff1684565b60408051948552602085019390935291830152151560608201526080016103bd565b6000546103b19060ff1681565b61055f61059c366004613914565b600c6020526000908152604090208054600182015460028301546003909301549192909160ff1684565b6103d56105d4366004613959565b61108b565b6000546105f19061010090046001600160a01b031681565b6040516001600160a01b0390911681526020016103bd565b6104116106173660046138f9565b611104565b6103d561062a3660046138f9565b61118e565b61041161063d3660046138f9565b61124e565b6103d57fdf8b4c520ffe197c5343c6f5aec59570151ef9a492f2c624fd45ddde6135ec4281565b61041161067736600461397b565b6113b0565b6103d561068a3660046139d8565b61149f565b61041161153d565b6003546105f1906001600160a01b031681565b6104db6106b8366004613914565b6116d4565b6103b16106cb36600461392d565b60009182526010602090815260408084206001600160a01b0393909316845291905290205460ff1690565b6103d5610704366004613914565b611707565b610411610717366004613914565b6117a9565b6104db61072a366004613914565b6000908152600c60205260409020805460018201546002909201549092565b610411610757366004613959565b61180e565b6000546103b1907501000000000000000000000000000000000000000000900460ff1681565b6103d5600081565b6103d56107983660046139ae565b611a96565b6103d560045481565b6104116107b4366004613959565b611ac7565b6103d56107c7366004613959565b611ad2565b6103d560055481565b6103d56107e3366004613914565b611d19565b6107fb6107f63660046138f9565b611e07565b6040516103bd9190613a31565b610810611e73565b6040516103bd9190613a75565b61083061082b366004613914565b612042565b6040516103bd9190613ab6565b6103b161084b366004613914565b600f6020526000908152604090205460ff1681565b6108106120d2565b6103d560065481565b61041161087f36600461392d565b612134565b6107fb6108923660046138f9565b612159565b6107fb6108a53660046138f9565b6123a0565b6103d56125a0565b6103d56108c03660046138f9565b612612565b6105f16108d3366004613914565b61270d565b6103d56108e6366004613914565b600e6020526000908152604090205481565b6103d560015481565b60006001600160e01b03198216637965db0b60e01b148061093257506301ffc9a760e01b6001600160e01b03198316145b92915050565b6001600160a01b0381166000908152600d602052604081205481805b82811015610a06576001600160a01b0385166000908152600d6020526040812080548390811061098657610986613b0f565b60009182526020808320909101546001600160a01b0389168352600b8252604080842082855283529283902083516080810185528154815260018201549381019390935260028101549383018490526003015460ff16151560608301529250906109f1908590612737565b93505050806109ff90613b3b565b9050610954565b509392505050565b600954600090808203610a2357600191505090565b6001546009600183610a359190613b54565b81548110610a4557610a45613b0f565b90600052602060002090600302016002015442610a629190613b54565b1191505090565b610a7233610be3565b610ace5760405162461bcd60e51b815260206004820152602260248201527f41636365737369626c653a2043616c6c6572206973206e6f7420616e2061646d60448201526134b760f11b60648201526084015b60405180910390fd5b610af87fdf8b4c520ffe197c5343c6f5aec59570151ef9a492f2c624fd45ddde6135ec4282610d02565b50565b6009546000908103610b0d5750600090565b60098054600091610b7191610b2490600190613b54565b81548110610b3457610b34613b0f565b906000526020600020906003020160405180606001604052908160008201548152602001600182015481526020016002820154815250504261274a565b90506000610ba2610b97610b9284604001514261286590919063ffffffff16565b612871565b6020840151906128f8565b9050610bd4670de0b6b3a764000082846000015113610bc2576000610bce565b8351610bce9084612904565b90612910565b9250505090565b610af861291c565b6001600160a01b03811660009081527fd21a66949a5a04345f8aa6b0aa7498342fb6c8e348649481fc08549acf865726602052604081205460ff16610932565b600754600114610c755760405162461bcd60e51b815260206004820152601860248201527f4c6f636b496420697320616c726561647920696e2075736500000000000000006044820152606401610ac5565b600060075580610cc75760405162461bcd60e51b815260206004820152600f60248201527f5f6c6f636b4964206973207a65726f00000000000000000000000000000000006044820152606401610ac5565b610cd081612b3f565b506001600755565b600082815260106020526040902060010154610cf381612e2d565b610cfd8383612e37565b505050565b6001600160a01b0381163314610d805760405162461bcd60e51b815260206004820152602f60248201527f416363657373436f6e74726f6c3a2063616e206f6e6c792072656e6f756e636560448201527f20726f6c657320666f722073656c6600000000000000000000000000000000006064820152608401610ac5565b610d8a8282612ed9565b5050565b600a6020528160005260406000208181548110610daa57600080fd5b600091825260209091206003909102018054600182015460029092015490935090915083565b60008111610e205760405162461bcd60e51b815260206004820152601f60248201527f56616c7565206c6f636b65642073686f756c64206265206e6f6e2d7a65726f006044820152606401610ac5565b6001600160a01b0383166000908152600b6020908152604080832085845282529182902082516080810184528154815260018201549281019290925260028101549282019290925260039091015460ff161580156060830152610ec55760405162461bcd60e51b815260206004820152601160248201527f4c6f636b2069732077697468647261776e0000000000000000000000000000006044820152606401610ac5565b8051610f095760405162461bcd60e51b8152602060048201526013602482015272131bd8dac8191bd95cc81b9bdd08195e1a5cdd606a1b6044820152606401610ac5565b42816020015111610f5c5760405162461bcd60e51b815260206004820152601560248201527f4c6f636b2074696d652069732066696e697368656400000000000000000000006044820152606401610ac5565b600654610f699083612737565b600655610f798484846000612f5c565b60408051338152602081018590529081018390527fea44bc904f77b1be47cd5b840b00f19b7238f88d7524fa5a86629282bfe6bcc5906060015b60405180910390a150505050565b6001600160a01b0382166000908152600d602090815260408083208054825181850281018501909352808352849383018282801561101e57602002820191906000526020600020905b81548152602001906001019080831161100a575b505050505090508051600003611038576000915050610932565b60005b81518110156110835761107161106a83838151811061105c5761105c613b0f565b60200260200101518661108b565b8490612737565b925061107c81613b3b565b905061103b565b505092915050565b6000828152600a60205260408120819081906110a79085613260565b91509150816110bb57600092505050610932565b60006110da610b97610b9284604001518861286590919063ffffffff16565b90506110fa670de0b6b3a764000082846000015113610bc2576000610bce565b9695505050505050565b61110d33610be3565b6111645760405162461bcd60e51b815260206004820152602260248201527f41636365737369626c653a2043616c6c6572206973206e6f7420616e2061646d60448201526134b760f11b6064820152608401610ac5565b610af87fdf8b4c520ffe197c5343c6f5aec59570151ef9a492f2c624fd45ddde6135ec4282610cd8565b6001600160a01b0381166000908152600d60209081526040808320805482518185028101850190935280835284938301828280156111eb57602002820191906000526020600020905b8154815260200190600101908083116111d7575b5050505050905080516000036112045750600092915050565b60005b81518110156112475761123561106a83838151811061122857611228613b0f565b6020026020010151611d19565b925061124081613b3b565b9050611207565b5050919050565b61125733610be3565b6112ae5760405162461bcd60e51b815260206004820152602260248201527f41636365737369626c653a2043616c6c6572206973206e6f7420616e2061646d60448201526134b760f11b6064820152608401610ac5565b6001600160a01b0381166113045760405162461bcd60e51b815260206004820152601860248201527f41636365737369626c653a207a65726f206164647265737300000000000000006044820152606401610ac5565b6001600160a01b038116330361135c5760405162461bcd60e51b815260206004820152601660248201527f41636365737369626c653a2073616d652061646d696e000000000000000000006044820152606401610ac5565b6113867fdf8b4c520ffe197c5343c6f5aec59570151ef9a492f2c624fd45ddde6135ec4282610cd8565b610af87fdf8b4c520ffe197c5343c6f5aec59570151ef9a492f2c624fd45ddde6135ec4233610d02565b6113b933610be3565b6114105760405162461bcd60e51b815260206004820152602260248201527f41636365737369626c653a2043616c6c6572206973206e6f7420616e2061646d60448201526134b760f11b6064820152608401610ac5565b6003546001600160a01b0316156114695760405162461bcd60e51b815260206004820152601360248201527f416c726561647920696e697469616c697a6564000000000000000000000000006044820152606401610ac5565b6003805473ffffffffffffffffffffffffffffffffffffffff19166001600160a01b039490941693909317909255600155600255565b60035460405163d505accf60e01b8152336004820152306024820152604481018890526064810186905260ff8516608482015260a4810184905260c481018390526000916001600160a01b03169063d505accf9060e401600060405180830381600087803b15801561151057600080fd5b505af1158015611524573d6000803e3d6000fd5b505050506115328787611ad2565b979650505050505050565b60075460011461158f5760405162461bcd60e51b815260206004820152601860248201527f4c6f636b496420697320616c726561647920696e2075736500000000000000006044820152606401610ac5565b60006007819055338152600d6020526040812080549091036115b157506116cd565b60005b81548110156116ca576000600c60008484815481106115d5576115d5613b0f565b6000918252602080832090910154835282810193909352604091820190208151608081018352815481526001820154938101939093526002810154918301919091526003015460ff1615801560608301819052919250906116525750600083838154811061164557611645613b0f565b9060005260206000200154115b8015611662575060008160400151115b801561166e5750805115155b801561167e575060008160200151115b801561168d5750428160200151105b156116b7576116b78383815481106116a7576116a7613b0f565b9060005260206000200154612b3f565b50806116c281613b3b565b9150506115b4565b50505b6001600755565b600981815481106116e457600080fd5b600091825260209091206003909102018054600182015460029092015490925083565b600954600090810361171b57506000919050565b600080611729600985613260565b915091508161173c575060009392505050565b611746818561274a565b90506000611764610b9283604001518761286590919063ffffffff16565b82602001516117739190613b67565b90506117a0670de0b6b3a764000082846000015113611793576000610bce565b8351610bce908490613b97565b95945050505050565b6117b233610be3565b6118095760405162461bcd60e51b815260206004820152602260248201527f41636365737369626c653a2043616c6c6572206973206e6f7420616e2061646d60448201526134b760f11b6064820152608401610ac5565b600255565b6000811161185e5760405162461bcd60e51b815260206004820152601e60248201527f556e6c6f636b20706572696f64206c657373207468616e2061207765656b00006044820152606401610ac5565b60055461186b9082612737565b600555336000908152600b602090815260408083208584528252808320815160808101835281548152600180830154948201949094526002820154928101929092526003015460ff161515606082015290549091906118da906118cf908590613390565b602084015190612737565b6001549091506118f4906118ee8382612910565b90613390565b6002549091506119044283613b54565b106119515760405162461bcd60e51b815260206004820152601a60248201527f4d617820756e6c6f636b2074696d6520697320332079656172730000000000006044820152606401610ac5565b428260200151116119a45760405162461bcd60e51b815260206004820152601a60248201527f4c6f636b2074696d6520616c72656164792066696e69736865640000000000006044820152606401610ac5565b808260200151106119f75760405162461bcd60e51b815260206004820152601d60248201527f4e6577206c6f636b2074696d65206d75737420626520677265617465720000006044820152606401610ac5565b6000826040015111611a4b5760405162461bcd60e51b815260206004820152601660248201527f4e6f206578697374696e67206c6f636b656420544f53000000000000000000006044820152606401610ac5565b611a583385600084612f5c565b60408051338152602081018690529081018290527fb8596b0e78133666b86648f60233cc2d078144d06df7874ea9f612a3ccc3e2fb90606001610fb3565b600d6020528160005260406000208181548110611ab257600080fd5b90600052602060002001600091509150505481565b610d8a338383610dd0565b6000808311611b235760405162461bcd60e51b815260206004820152601f60248201527f56616c7565206c6f636b65642073686f756c64206265206e6f6e2d7a65726f006044820152606401610ac5565b60008211611b735760405162461bcd60e51b815260206004820152601e60248201527f556e6c6f636b20706572696f64206c657373207468616e2061207765656b00006044820152606401610ac5565b600554611b809083612737565b600555600654611b909084612737565b600655600154600090611baf90611ba8908590613390565b4290612737565b600154909150611bc3906118ee8382612910565b600254909150611bd34283613b54565b1115611c215760405162461bcd60e51b815260206004820152601a60248201527f4d617820756e6c6f636b2074696d6520697320332079656172730000000000006044820152606401610ac5565b336000908152600d60205260408120549003611c8757600880546001810182556000919091527ff3f7a9fe364faab93b216da50a3214154f22a0a2b415b23a84c8169e8b636ee301805473ffffffffffffffffffffffffffffffffffffffff1916331790555b600454611c95906001612737565b60048190559150611ca833838684612f5c565b336000818152600d60209081526040808320805460018101825590845292829020909201859055815192835282018490528101859052606081018290527f71fc552ee832a9004ea0bdb07cb6dd9d641eb2cb53b3cfe88c8fdcff886734a09060800160405180910390a15092915050565b6000818152600a6020526040812054808203611d385750600092915050565b6000838152600a60205260408120611d51600184613b54565b81548110611d6157611d61613b0f565b9060005260206000209060030201604051806060016040529081600082015481526020016001820154815260200160028201548152505090506000611db9610b97610b9284604001514261286590919063ffffffff16565b9050600081836000015113611dcf576000611ddb565b8251611ddb9083612904565b90506110fa670de0b6b3a764000083856000015113611dfb576000610bce565b8451610bce9085612904565b6001600160a01b0381166000908152600d6020908152604091829020805483518184028101840190945280845260609392830182828015611e6757602002820191906000526020600020905b815481526020019060010190808311611e53575b50505050509050919050565b60085460609060009067ffffffffffffffff811115611e9457611e94613bbe565b604051908082528060200260200182016040528015611ebd578160200160208202803683370190505b5090506000805b600854811015611f4d576000611f0060088381548110611ee657611ee6613b0f565b6000918252602090912001546001600160a01b03166123a0565b805190915015611f3c5782611f1481613b3b565b9350506001848381518110611f2b57611f2b613b0f565b911515602092830291909101909101525b50611f4681613b3b565b9050611ec4565b5060008167ffffffffffffffff811115611f6957611f69613bbe565b604051908082528060200260200182016040528015611f92578160200160208202803683370190505b5090506000805b60085481101561203857848181518110611fb557611fb5613b0f565b6020026020010151156120285760088181548110611fd557611fd5613b0f565b6000918252602090912001546001600160a01b03168383611ff581613b3b565b94508151811061200757612007613b0f565b60200260200101906001600160a01b031690816001600160a01b0316815250505b61203181613b3b565b9050611f99565b5090949350505050565b6060600a6000838152602001908152602001600020805480602002602001604051908101604052809291908181526020016000905b828210156120c75783829060005260206000209060030201604051806060016040529081600082015481526020016001820154815260200160028201548152505081526020019060010190612077565b505050509050919050565b6060600880548060200260200160405190810160405280929190818152602001828054801561212a57602002820191906000526020600020905b81546001600160a01b0316815260019091019060200180831161210c575b5050505050905090565b60008281526010602052604090206001015461214f81612e2d565b610cfd8383612ed9565b6001600160a01b0381166000908152600d6020526040812054606091805b82811015612251576001600160a01b0385166000908152600d602052604081208054839081106121a9576121a9613b0f565b60009182526020808320909101546001600160a01b0389168352600b8252604080842082855283529283902083516080810185528154815260018201549381018490526002820154948101949094526003015460ff16151560608401529250421080159061221b575060008160400151115b801561222957506060810151155b1561223c578361223881613b3b565b9450505b5050808061224990613b3b565b915050612177565b5060008167ffffffffffffffff81111561226d5761226d613bbe565b604051908082528060200260200182016040528015612296578160200160208202803683370190505b5090506000915060005b83811015612397576001600160a01b0386166000908152600d602052604081208054839081106122d2576122d2613b0f565b60009182526020808320909101546001600160a01b038a168352600b8252604080842082855283529283902083516080810185528154815260018201549381018490526002820154948101949094526003015460ff161515606084015292504210801590612344575060008160400151115b801561235257506060810151155b156123825781848661236381613b3b565b97508151811061237557612375613b0f565b6020026020010181815250505b5050808061238f90613b3b565b9150506122a0565b50949350505050565b6001600160a01b0381166000908152600d6020526040812054606091805b82811015612479576001600160a01b0385166000908152600d602052604081208054839081106123f0576123f0613b0f565b60009182526020808320909101546001600160a01b0389168352600b8252604080842082855283529283902083516080810185528154815260018201549381018490526002820154948101949094526003015460ff16151560608401529250421015612464578361246081613b3b565b9450505b5050808061247190613b3b565b9150506123be565b5060008167ffffffffffffffff81111561249557612495613bbe565b6040519080825280602002602001820160405280156124be578160200160208202803683370190505b5090506000915060005b83811015612397576001600160a01b0386166000908152600d602052604081208054839081106124fa576124fa613b0f565b60009182526020808320909101546001600160a01b038a168352600b8252604080842082855283529283902083516080810185528154815260018201549381018490526002820154948101949094526003015460ff1615156060840152925042101561258b5781848661256c81613b3b565b97508151811061257e5761257e613b0f565b6020026020010181815250505b5050808061259890613b3b565b9150506124c8565b6003546040516370a0823160e01b81523060048201526000916001600160a01b0316906370a0823190602401602060405180830381865afa1580156125e9573d6000803e3d6000fd5b505050506040513d601f19601f8201168201806040525081019061260d9190613bd4565b905090565b6001600160a01b0381166000908152600d602052604081205481805b82811015610a06576001600160a01b0385166000908152600d6020526040812080548390811061266057612660613b0f565b60009182526020808320909101546001600160a01b0389168352600b8252604080842082855283529283902083516080810185528154815260018201549381018490526002820154948101949094526003015460ff1615156060840152925042108015906126d2575060008160400151115b80156126e057506060810151155b156126f85760408101516126f5908590612737565b93505b5050808061270590613b3b565b91505061262e565b6008818154811061271d57600080fd5b6000918252602090912001546001600160a01b0316905081565b60006127438284613bed565b9392505050565b61276e60405180606001604052806000815260200160008152602001600081525090565b6001546040840151600091612787916118ee9082612910565b90505b82811461285d576127af6127a96001548361273790919063ffffffff16565b8461339c565b6000818152600e60205260408082205490870151929350916127e290610b92906127da908690612865565b60015461339c565b90506128066127fe8288602001516128f890919063ffffffff16565b875190612904565b8652602086015161281790836133b2565b6020870152855160001261282c57600061282f565b85515b8652602086015160001261284457600061284a565b85602001515b602087015250506040840181905261278a565b509192915050565b60006127438284613b54565b60007f7fffffffffffffffffffffffffffffffffffffffffffffffffffffffffffffff8211156128f45760405162461bcd60e51b815260206004820152602860248201527f53616665436173743a2076616c756520646f65736e27742066697420696e2061604482015267371034b73a191a9b60c11b6064820152608401610ac5565b5090565b60006127438284613b67565b60006127438284613b97565b60006127438284613c00565b61294060405180606001604052806000815260200160008152602001600081525090565b6009544290156129a8576009805461295a90600190613b54565b8154811061296a5761296a613b0f565b9060005260206000209060030201604051806060016040529081600082015481526020016001820154815260200160028201548152505091506129c8565b604051806060016040528060008152602001600081526020018281525091505b60015460408301516000916129e1916118ee9082612910565b90505b818114612b3a57612a09612a036001548361273790919063ffffffff16565b8361339c565b6000818152600e6020526040808220549086015192935091612a3490610b92906127da908690612865565b9050612a58612a508287602001516128f890919063ffffffff16565b865190612904565b85526020850151612a6990836133b2565b60208601528451600012612a7e576000612a81565b84515b85526020850151600012612a96576000612a9c565b84602001515b60208601908152604086018481526009805460018101825560009190915287517f6e1540171b6c0c960b71a7020d9f60077f6af931a8bbf590da0223dacf75c7af60039092029182015591517f6e1540171b6c0c960b71a7020d9f60077f6af931a8bbf590da0223dacf75c7b0830155517f6e1540171b6c0c960b71a7020d9f60077f6af931a8bbf590da0223dacf75c7b190910155506129e49050565b505090565b336000908152600b6020908152604080832084845282529182902082516080810184528154815260018201549281019290925260028101549282019290925260039091015460ff161580156060830152612bdb5760405162461bcd60e51b815260206004820152601160248201527f416c72656164792077697468647261776e0000000000000000000000000000006044820152606401610ac5565b8051612c1f5760405162461bcd60e51b8152602060048201526013602482015272131bd8dac8191bd95cc81b9bdd08195e1a5cdd606a1b6044820152606401610ac5565b42816020015110612c725760405162461bcd60e51b815260206004820152601660248201527f4c6f636b2074696d65206e6f742066696e6973686564000000000000000000006044820152606401610ac5565b6000816040015111612cc65760405162461bcd60e51b815260206004820152601560248201527f4e6f20616d6f756e7420746f20776974686472617700000000000000000000006044820152606401610ac5565b604080516080810182526000808252602082018190529181019190915260016060820152612cf481836133be565b604082810151336000818152600b60209081528482208883528152848220865181558682018051600180840191909155888801805160028086019190915560608b0180516003968701805491151560ff19928316179055600c909752968a90208b5181559351928401929092555190820155925192810180549315159390921692909217905554925163a9059cbb60e01b815260048101919091526024810182905290916001600160a01b03169063a9059cbb906044016020604051808303816000875af1158015612dca573d6000803e3d6000fd5b505050506040513d601f19601f82011682018060405250810190612dee9190613c22565b5060408051338152602081018690529081018290527ff1206247bdd5e2e0cfc00bea4cf05fb8dc479ebee686f9549043179cc7013b3090606001610fb3565b610af881336135c2565b60008281526010602090815260408083206001600160a01b038516845290915290205460ff16610d8a5760008281526010602090815260408083206001600160a01b03851684529091529020805460ff19166001179055612e953390565b6001600160a01b0316816001600160a01b0316837f2f8788117e7eff1d82e926ec794901d17c78024a50270940304540a733656f0d60405160405180910390a45050565b60008281526010602090815260408083206001600160a01b038516845290915290205460ff1615610d8a5760008281526010602090815260408083206001600160a01b0385168085529252808320805460ff1916905551339285917ff6391f5c32d9c69d2a47ea670b442974b53935d1edc7fd64eb21e047a839171b9190a45050565b600754600114612fae5760405162461bcd60e51b815260206004820152601860248201527f4c6f636b496420697320616c726561647920696e2075736500000000000000006044820152606401610ac5565b600060078190556001600160a01b0385168152600b602090815260408083208684528252808320815160808082018452825482526001830154828601908152600284015483860190815260039094015460ff161515606080850191909152855192830186528351835290519582019590955291519282018390529281019390935290919061303c9085612737565b6040820152821561304f57602081018390525b805160000361305c574281525b61306681836133be565b6001600160a01b0386166000908152600b60209081526040808320888452825280832084518155828501805160018084019190915583870180516002808601919091556060890180516003968701805491151560ff19928316179055600c909852958820895181559351928401929092555182820181905593519190920180549115159190941617909255905461310e91610b929190610bce90670de0b6b3a7640000613390565b9050600061313661312f610b9242866020015161286590919063ffffffff16565b83906128f8565b6040805160608101825282815260208082018681524283850190815260008d8152600a84528581208054600180820183559183529490912085516003958602909101908155925190830155516002909101555491516323b872dd60e01b8152336004820152306024820152604481018a9052929350916001600160a01b03909116906323b872dd906064016020604051808303816000875af11580156131e0573d6000803e3d6000fd5b505050506040513d601f19601f820116820180604052508101906132049190613c22565b6132505760405162461bcd60e51b815260206004820152601a60248201527f4c6f636b544f533a206661696c207472616e7366657246726f6d0000000000006044820152606401610ac5565b5050600160075550505050505050565b600061328660405180606001604052806000815260200160008152602001600081525090565b83546000036132985760009150613389565b83546000905b806132aa836001613bed565b10156132ff5760006132c16002610bce8585612737565b9050858782815481106132d6576132d6613b0f565b906000526020600020906003020160020154116132f5578092506132f9565b8091505b5061329e565b8486838154811061331257613312613b0f565b9060005260206000209060030201600201541161338257600186838154811061333d5761333d613b0f565b90600052602060002090600302018060405180606001604052908160008201548152602001600182015481526020016002820154815250509050935093505050613389565b6000935050505b9250929050565b60006127438284613c44565b60008183106133ab5781612743565b5090919050565b60006127438284613c5b565b60408051606080820183526000808352602080840182905283850182905284519283018552818352828101829052938201529184015142929083108015613409575060008560400151115b1561346157613436610b92600254610bce670de0b6b3a7640000896040015161339090919063ffffffff16565b60208084019190915285015161345490610b9790610b929086612865565b8252602085015160408301525b828460200151118015613478575060008460400151115b156134db576134a5610b92600254610bce670de0b6b3a7640000886040015161339090919063ffffffff16565b6020808301919091528401516134ce906134c390610b929086612865565b6020830151906128f8565b8152602084015160408201525b60006134e561291c565b82518451919250613501916134f991612904565b8251906133b2565b8152602080830151908401516135269161351b9190612904565b6020830151906133b2565b6020820152805160001261353b57600061353e565b80515b81526020810151600012613553576000613559565b80602001515b60208201526009805482919061357190600190613b54565b8154811061358157613581613b0f565b90600052602060002090600302016000820151816000015560208201518160010155604082015181600201559050506135ba8383613637565b505050505050565b60008281526010602090815260408083206001600160a01b038516845290915290205460ff16610d8a576135f5816136f8565b61360083602061370a565b604051602001613611929190613c9f565b60408051601f198184030181529082905262461bcd60e51b8252610ac591600401613d20565b6040808301516000908152600e6020528181205483830180518352929091205491519091904210156136ac5760208301516136739082906133b2565b90508360400151836040015103613697576020840151613694908290612904565b90505b6040808401516000908152600e602052208190555b4284604001511180156136c6575082604001518460400151115b156136f25760208401516136db908390612904565b6040808601516000908152600e6020522081905591505b50505050565b60606109326001600160a01b03831660145b60606000613719836002613c44565b613724906002613bed565b67ffffffffffffffff81111561373c5761373c613bbe565b6040519080825280601f01601f191660200182016040528015613766576020820181803683370190505b509050600360fc1b8160008151811061378157613781613b0f565b60200101906001600160f81b031916908160001a905350600f60fb1b816001815181106137b0576137b0613b0f565b60200101906001600160f81b031916908160001a90535060006137d4846002613c44565b6137df906001613bed565b90505b6001811115613864577f303132333435363738396162636465660000000000000000000000000000000085600f166010811061382057613820613b0f565b1a60f81b82828151811061383657613836613b0f565b60200101906001600160f81b031916908160001a90535060049490941c9361385d81613d53565b90506137e2565b5083156127435760405162461bcd60e51b815260206004820181905260248201527f537472696e67733a20686578206c656e67746820696e73756666696369656e746044820152606401610ac5565b6000602082840312156138c557600080fd5b81356001600160e01b03198116811461274357600080fd5b80356001600160a01b03811681146138f457600080fd5b919050565b60006020828403121561390b57600080fd5b612743826138dd565b60006020828403121561392657600080fd5b5035919050565b6000806040838503121561394057600080fd5b82359150613950602084016138dd565b90509250929050565b6000806040838503121561396c57600080fd5b50508035926020909101359150565b60008060006060848603121561399057600080fd5b613999846138dd565b95602085013595506040909401359392505050565b600080604083850312156139c157600080fd5b6139ca836138dd565b946020939093013593505050565b60008060008060008060c087890312156139f157600080fd5b863595506020870135945060408701359350606087013560ff81168114613a1757600080fd5b9598949750929560808101359460a0909101359350915050565b6020808252825182820181905260009190848201906040850190845b81811015613a6957835183529284019291840191600101613a4d565b50909695505050505050565b6020808252825182820181905260009190848201906040850190845b81811015613a695783516001600160a01b031683529284019291840191600101613a91565b602080825282518282018190526000919060409081850190868401855b82811015613b025781518051855286810151878601528501518585015260609093019290850190600101613ad3565b5091979650505050505050565b634e487b7160e01b600052603260045260246000fd5b634e487b7160e01b600052601160045260246000fd5b600060018201613b4d57613b4d613b25565b5060010190565b8181038181111561093257610932613b25565b80820260008212600160ff1b84141615613b8357613b83613b25565b818105831482151761093257610932613b25565b8181036000831280158383131683831282161715613bb757613bb7613b25565b5092915050565b634e487b7160e01b600052604160045260246000fd5b600060208284031215613be657600080fd5b5051919050565b8082018082111561093257610932613b25565b600082613c1d57634e487b7160e01b600052601260045260246000fd5b500490565b600060208284031215613c3457600080fd5b8151801515811461274357600080fd5b808202811582820484141761093257610932613b25565b808201828112600083128015821682158216171561108357611083613b25565b60005b83811015613c96578181015183820152602001613c7e565b50506000910152565b7f416363657373436f6e74726f6c3a206163636f756e7420000000000000000000815260008351613cd7816017850160208801613c7b565b7f206973206d697373696e6720726f6c65200000000000000000000000000000006017918401918201528351613d14816028840160208801613c7b565b01602801949350505050565b6020815260008251806020840152613d3f816040850160208701613c7b565b601f01601f19169190910160400192915050565b600081613d6257613d62613b25565b50600019019056fea164736f6c6343000812000adf8b4c520ffe197c5343c6f5aec59570151ef9a492f2c624fd45ddde6135ec42",
  "linkReferences": {},
  "deployedLinkReferences": {}
}