{
  "_format": "hh-sol-artifact-1",
  "contractName": "LockTOS",
  "sourceName": "contracts/test/LockTOS.sol",
  "abi": [
    {
      "inputs": [],
      "stateMutability": "nonpayable",
      "type": "constructor"
    },
    {
      "anonymous": false,
      "inputs": [
        {
          "indexed": false,
          "internalType": "address",
          "name": "account",
          "type": "address"
        },
        {
          "indexed": false,
          "internalType": "uint256",
          "name": "lockId",
          "type": "uint256"
        },
        {
          "indexed": false,
          "internalType": "uint256",
          "name": "value",
          "type": "uint256"
        }
      ],
      "name": "LockAmountIncreased",
      "type": "event"
    },
    {
      "anonymous": false,
      "inputs": [
        {
          "indexed": false,
          "internalType": "address",
          "name": "account",
          "type": "address"
        },
        {
          "indexed": false,
          "internalType": "uint256",
          "name": "lockId",
          "type": "uint256"
        },
        {
          "indexed": false,
          "internalType": "uint256",
          "name": "value",
          "type": "uint256"
        },
        {
          "indexed": false,
          "internalType": "uint256",
          "name": "unlockTime",
          "type": "uint256"
        }
      ],
      "name": "LockCreated",
      "type": "event"
    },
    {
      "anonymous": false,
      "inputs": [
        {
          "indexed": false,
          "internalType": "address",
          "name": "account",
          "type": "address"
        },
        {
          "indexed": false,
          "internalType": "uint256",
          "name": "lockId",
          "type": "uint256"
        },
        {
          "indexed": false,
          "internalType": "uint256",
          "name": "value",
          "type": "uint256"
        }
      ],
      "name": "LockDeposited",
      "type": "event"
    },
    {
      "anonymous": false,
      "inputs": [
        {
          "indexed": false,
          "internalType": "address",
          "name": "account",
          "type": "address"
        },
        {
          "indexed": false,
          "internalType": "uint256",
          "name": "lockId",
          "type": "uint256"
        },
        {
          "indexed": false,
          "internalType": "uint256",
          "name": "unlockTime",
          "type": "uint256"
        }
      ],
      "name": "LockUnlockTimeIncreased",
      "type": "event"
    },
    {
      "anonymous": false,
      "inputs": [
        {
          "indexed": false,
          "internalType": "address",
          "name": "account",
          "type": "address"
        },
        {
          "indexed": false,
          "internalType": "uint256",
          "name": "lockId",
          "type": "uint256"
        },
        {
          "indexed": false,
          "internalType": "uint256",
          "name": "value",
          "type": "uint256"
        }
      ],
      "name": "LockWithdrawn",
      "type": "event"
    },
    {
      "anonymous": false,
      "inputs": [
        {
          "indexed": true,
          "internalType": "bytes32",
          "name": "role",
          "type": "bytes32"
        },
        {
          "indexed": true,
          "internalType": "bytes32",
          "name": "previousAdminRole",
          "type": "bytes32"
        },
        {
          "indexed": true,
          "internalType": "bytes32",
          "name": "newAdminRole",
          "type": "bytes32"
        }
      ],
      "name": "RoleAdminChanged",
      "type": "event"
    },
    {
      "anonymous": false,
      "inputs": [
        {
          "indexed": true,
          "internalType": "bytes32",
          "name": "role",
          "type": "bytes32"
        },
        {
          "indexed": true,
          "internalType": "address",
          "name": "account",
          "type": "address"
        },
        {
          "indexed": true,
          "internalType": "address",
          "name": "sender",
          "type": "address"
        }
      ],
      "name": "RoleGranted",
      "type": "event"
    },
    {
      "anonymous": false,
      "inputs": [
        {
          "indexed": true,
          "internalType": "bytes32",
          "name": "role",
          "type": "bytes32"
        },
        {
          "indexed": true,
          "internalType": "address",
          "name": "account",
          "type": "address"
        },
        {
          "indexed": true,
          "internalType": "address",
          "name": "sender",
          "type": "address"
        }
      ],
      "name": "RoleRevoked",
      "type": "event"
    },
    {
      "inputs": [],
      "name": "ADMIN_ROLE",
      "outputs": [
        {
          "internalType": "bytes32",
          "name": "",
          "type": "bytes32"
        }
      ],
      "stateMutability": "view",
      "type": "function"
    },
    {
      "inputs": [],
      "name": "DEFAULT_ADMIN_ROLE",
      "outputs": [
        {
          "internalType": "bytes32",
          "name": "",
          "type": "bytes32"
        }
      ],
      "stateMutability": "view",
      "type": "function"
    },
    {
      "inputs": [],
      "name": "MULTIPLIER",
      "outputs": [
        {
          "internalType": "uint256",
          "name": "",
          "type": "uint256"
        }
      ],
      "stateMutability": "view",
      "type": "function"
    },
    {
      "inputs": [],
      "name": "POLICY_ROLE",
      "outputs": [
        {
          "internalType": "bytes32",
          "name": "",
          "type": "bytes32"
        }
      ],
      "stateMutability": "view",
      "type": "function"
    },
    {
      "inputs": [],
      "name": "activeHolders",
      "outputs": [
        {
          "internalType": "address[]",
          "name": "",
          "type": "address[]"
        }
      ],
      "stateMutability": "view",
      "type": "function"
    },
    {
      "inputs": [
        {
          "internalType": "address",
          "name": "_addr",
          "type": "address"
        }
      ],
      "name": "activeLocksOf",
      "outputs": [
        {
          "internalType": "uint256[]",
          "name": "",
          "type": "uint256[]"
        }
      ],
      "stateMutability": "view",
      "type": "function"
    },
    {
      "inputs": [
        {
          "internalType": "address",
          "name": "account",
          "type": "address"
        }
      ],
      "name": "addAdmin",
      "outputs": [],
      "stateMutability": "nonpayable",
      "type": "function"
    },
    {
      "inputs": [],
      "name": "allHolders",
      "outputs": [
        {
          "internalType": "address[]",
          "name": "",
          "type": "address[]"
        }
      ],
      "stateMutability": "view",
      "type": "function"
    },
    {
      "inputs": [
        {
          "internalType": "uint256",
          "name": "",
          "type": "uint256"
        }
      ],
      "name": "allLocks",
      "outputs": [
        {
          "internalType": "uint256",
          "name": "start",
          "type": "uint256"
        },
        {
          "internalType": "uint256",
          "name": "end",
          "type": "uint256"
        },
        {
          "internalType": "uint256",
          "name": "amount",
          "type": "uint256"
        },
        {
          "internalType": "bool",
          "name": "withdrawn",
          "type": "bool"
        }
      ],
      "stateMutability": "view",
      "type": "function"
    },
    {
      "inputs": [
        {
          "internalType": "address",
          "name": "_addr",
          "type": "address"
        }
      ],
      "name": "balanceOf",
      "outputs": [
        {
          "internalType": "uint256",
          "name": "balance",
          "type": "uint256"
        }
      ],
      "stateMutability": "view",
      "type": "function"
    },
    {
      "inputs": [
        {
          "internalType": "address",
          "name": "_addr",
          "type": "address"
        },
        {
          "internalType": "uint256",
          "name": "_timestamp",
          "type": "uint256"
        }
      ],
      "name": "balanceOfAt",
      "outputs": [
        {
          "internalType": "uint256",
          "name": "balance",
          "type": "uint256"
        }
      ],
      "stateMutability": "view",
      "type": "function"
    },
    {
      "inputs": [
        {
          "internalType": "uint256",
          "name": "_lockId",
          "type": "uint256"
        }
      ],
      "name": "balanceOfLock",
      "outputs": [
        {
          "internalType": "uint256",
          "name": "",
          "type": "uint256"
        }
      ],
      "stateMutability": "view",
      "type": "function"
    },
    {
      "inputs": [
        {
          "internalType": "uint256",
          "name": "_lockId",
          "type": "uint256"
        },
        {
          "internalType": "uint256",
          "name": "_timestamp",
          "type": "uint256"
        }
      ],
      "name": "balanceOfLockAt",
      "outputs": [
        {
          "internalType": "uint256",
          "name": "",
          "type": "uint256"
        }
      ],
      "stateMutability": "view",
      "type": "function"
    },
    {
      "inputs": [
        {
          "internalType": "uint256",
          "name": "_value",
          "type": "uint256"
        },
        {
          "internalType": "uint256",
          "name": "_unlockWeeks",
          "type": "uint256"
        }
      ],
      "name": "createLock",
      "outputs": [
        {
          "internalType": "uint256",
          "name": "lockId",
          "type": "uint256"
        }
      ],
      "stateMutability": "nonpayable",
      "type": "function"
    },
    {
      "inputs": [
        {
          "internalType": "uint256",
          "name": "_value",
          "type": "uint256"
        },
        {
          "internalType": "uint256",
          "name": "_unlockWeeks",
          "type": "uint256"
        },
        {
          "internalType": "uint256",
          "name": "_deadline",
          "type": "uint256"
        },
        {
          "internalType": "uint8",
          "name": "_v",
          "type": "uint8"
        },
        {
          "internalType": "bytes32",
          "name": "_r",
          "type": "bytes32"
        },
        {
          "internalType": "bytes32",
          "name": "_s",
          "type": "bytes32"
        }
      ],
      "name": "createLockWithPermit",
      "outputs": [
        {
          "internalType": "uint256",
          "name": "lockId",
          "type": "uint256"
        }
      ],
      "stateMutability": "nonpayable",
      "type": "function"
    },
    {
      "inputs": [],
      "name": "cumulativeEpochUnit",
      "outputs": [
        {
          "internalType": "uint256",
          "name": "",
          "type": "uint256"
        }
      ],
      "stateMutability": "view",
      "type": "function"
    },
    {
      "inputs": [],
      "name": "cumulativeTOSAmount",
      "outputs": [
        {
          "internalType": "uint256",
          "name": "",
          "type": "uint256"
        }
      ],
      "stateMutability": "view",
      "type": "function"
    },
    {
      "inputs": [],
      "name": "currentStakedTotalTOS",
      "outputs": [
        {
          "internalType": "uint256",
          "name": "",
          "type": "uint256"
        }
      ],
      "stateMutability": "view",
      "type": "function"
    },
    {
      "inputs": [
        {
          "internalType": "address",
          "name": "_addr",
          "type": "address"
        },
        {
          "internalType": "uint256",
          "name": "_lockId",
          "type": "uint256"
        },
        {
          "internalType": "uint256",
          "name": "_value",
          "type": "uint256"
        }
      ],
      "name": "depositFor",
      "outputs": [],
      "stateMutability": "nonpayable",
      "type": "function"
    },
    {
      "inputs": [],
      "name": "epochUnit",
      "outputs": [
        {
          "internalType": "uint256",
          "name": "",
          "type": "uint256"
        }
      ],
      "stateMutability": "view",
      "type": "function"
    },
    {
      "inputs": [],
      "name": "getCurrentTime",
      "outputs": [
        {
          "internalType": "uint256",
          "name": "",
          "type": "uint256"
        }
      ],
      "stateMutability": "view",
      "type": "function"
    },
    {
      "inputs": [
        {
          "internalType": "bytes32",
          "name": "role",
          "type": "bytes32"
        }
      ],
      "name": "getRoleAdmin",
      "outputs": [
        {
          "internalType": "bytes32",
          "name": "",
          "type": "bytes32"
        }
      ],
      "stateMutability": "view",
      "type": "function"
    },
    {
      "inputs": [],
      "name": "globalCheckpoint",
      "outputs": [],
      "stateMutability": "nonpayable",
      "type": "function"
    },
    {
      "inputs": [
        {
          "internalType": "bytes32",
          "name": "role",
          "type": "bytes32"
        },
        {
          "internalType": "address",
          "name": "account",
          "type": "address"
        }
      ],
      "name": "grantRole",
      "outputs": [],
      "stateMutability": "nonpayable",
      "type": "function"
    },
    {
      "inputs": [
        {
          "internalType": "bytes32",
          "name": "role",
          "type": "bytes32"
        },
        {
          "internalType": "address",
          "name": "account",
          "type": "address"
        }
      ],
      "name": "hasRole",
      "outputs": [
        {
          "internalType": "bool",
          "name": "",
          "type": "bool"
        }
      ],
      "stateMutability": "view",
      "type": "function"
    },
    {
      "inputs": [
        {
          "internalType": "uint256",
          "name": "",
          "type": "uint256"
        }
      ],
      "name": "inUse",
      "outputs": [
        {
          "internalType": "bool",
          "name": "",
          "type": "bool"
        }
      ],
      "stateMutability": "view",
      "type": "function"
    },
    {
      "inputs": [
        {
          "internalType": "uint256",
          "name": "_lockId",
          "type": "uint256"
        },
        {
          "internalType": "uint256",
          "name": "_value",
          "type": "uint256"
        }
      ],
      "name": "increaseAmount",
      "outputs": [],
      "stateMutability": "nonpayable",
      "type": "function"
    },
    {
      "inputs": [
        {
          "internalType": "uint256",
          "name": "_lockId",
          "type": "uint256"
        },
        {
          "internalType": "uint256",
          "name": "_unlockWeeks",
          "type": "uint256"
        }
      ],
      "name": "increaseUnlockTime",
      "outputs": [],
      "stateMutability": "nonpayable",
      "type": "function"
    },
    {
      "inputs": [
        {
          "internalType": "address",
          "name": "_tos",
          "type": "address"
        },
        {
          "internalType": "uint256",
          "name": "_epochUnit",
          "type": "uint256"
        },
        {
          "internalType": "uint256",
          "name": "_maxTime",
          "type": "uint256"
        }
      ],
      "name": "initialize",
      "outputs": [],
      "stateMutability": "nonpayable",
      "type": "function"
    },
    {
      "inputs": [
        {
          "internalType": "address",
          "name": "account",
          "type": "address"
        }
      ],
      "name": "isAdmin",
      "outputs": [
        {
          "internalType": "bool",
          "name": "",
          "type": "bool"
        }
      ],
      "stateMutability": "view",
      "type": "function"
    },
    {
      "inputs": [],
      "name": "lockIdCounter",
      "outputs": [
        {
          "internalType": "uint256",
          "name": "",
          "type": "uint256"
        }
      ],
      "stateMutability": "view",
      "type": "function"
    },
    {
      "inputs": [
        {
          "internalType": "uint256",
          "name": "",
          "type": "uint256"
        },
        {
          "internalType": "uint256",
          "name": "",
          "type": "uint256"
        }
      ],
      "name": "lockPointHistory",
      "outputs": [
        {
          "internalType": "int256",
          "name": "bias",
          "type": "int256"
        },
        {
          "internalType": "int256",
          "name": "slope",
          "type": "int256"
        },
        {
          "internalType": "uint256",
          "name": "timestamp",
          "type": "uint256"
        }
      ],
      "stateMutability": "view",
      "type": "function"
    },
    {
      "inputs": [
        {
          "internalType": "address",
          "name": "",
          "type": "address"
        },
        {
          "internalType": "uint256",
          "name": "",
          "type": "uint256"
        }
      ],
      "name": "lockedBalances",
      "outputs": [
        {
          "internalType": "uint256",
          "name": "start",
          "type": "uint256"
        },
        {
          "internalType": "uint256",
          "name": "end",
          "type": "uint256"
        },
        {
          "internalType": "uint256",
          "name": "amount",
          "type": "uint256"
        },
        {
          "internalType": "bool",
          "name": "withdrawn",
          "type": "bool"
        }
      ],
      "stateMutability": "view",
      "type": "function"
    },
    {
      "inputs": [
        {
          "internalType": "uint256",
          "name": "_lockId",
          "type": "uint256"
        }
      ],
      "name": "locksInfo",
      "outputs": [
        {
          "internalType": "uint256",
          "name": "start",
          "type": "uint256"
        },
        {
          "internalType": "uint256",
          "name": "end",
          "type": "uint256"
        },
        {
          "internalType": "uint256",
          "name": "amount",
          "type": "uint256"
        }
      ],
      "stateMutability": "view",
      "type": "function"
    },
    {
      "inputs": [
        {
          "internalType": "address",
          "name": "_addr",
          "type": "address"
        }
      ],
      "name": "locksOf",
      "outputs": [
        {
          "internalType": "uint256[]",
          "name": "",
          "type": "uint256[]"
        }
      ],
      "stateMutability": "view",
      "type": "function"
    },
    {
      "inputs": [],
      "name": "maxTime",
      "outputs": [
        {
          "internalType": "uint256",
          "name": "",
          "type": "uint256"
        }
      ],
      "stateMutability": "view",
      "type": "function"
    },
    {
      "inputs": [],
      "name": "migratedL2",
      "outputs": [
        {
          "internalType": "bool",
          "name": "",
          "type": "bool"
        }
      ],
      "stateMutability": "view",
      "type": "function"
    },
    {
      "inputs": [],
      "name": "needCheckpoint",
      "outputs": [
        {
          "internalType": "bool",
          "name": "need",
          "type": "bool"
        }
      ],
      "stateMutability": "view",
      "type": "function"
    },
    {
      "inputs": [],
      "name": "pauseProxy",
      "outputs": [
        {
          "internalType": "bool",
          "name": "",
          "type": "bool"
        }
      ],
      "stateMutability": "view",
      "type": "function"
    },
    {
      "inputs": [
        {
          "internalType": "uint256",
          "name": "",
          "type": "uint256"
        }
      ],
      "name": "pointHistory",
      "outputs": [
        {
          "internalType": "int256",
          "name": "bias",
          "type": "int256"
        },
        {
          "internalType": "int256",
          "name": "slope",
          "type": "int256"
        },
        {
          "internalType": "uint256",
          "name": "timestamp",
          "type": "uint256"
        }
      ],
      "stateMutability": "view",
      "type": "function"
    },
    {
      "inputs": [
        {
          "internalType": "uint256",
          "name": "_lockId",
          "type": "uint256"
        }
      ],
      "name": "pointHistoryOf",
      "outputs": [
        {
          "components": [
            {
              "internalType": "int256",
              "name": "bias",
              "type": "int256"
            },
            {
              "internalType": "int256",
              "name": "slope",
              "type": "int256"
            },
            {
              "internalType": "uint256",
              "name": "timestamp",
              "type": "uint256"
            }
          ],
          "internalType": "struct LibLockTOS.Point[]",
          "name": "",
          "type": "tuple[]"
        }
      ],
      "stateMutability": "view",
      "type": "function"
    },
    {
      "inputs": [
        {
          "internalType": "address",
          "name": "account",
          "type": "address"
        }
      ],
      "name": "removeAdmin",
      "outputs": [],
      "stateMutability": "nonpayable",
      "type": "function"
    },
    {
      "inputs": [
        {
          "internalType": "bytes32",
          "name": "role",
          "type": "bytes32"
        },
        {
          "internalType": "address",
          "name": "account",
          "type": "address"
        }
      ],
      "name": "renounceRole",
      "outputs": [],
      "stateMutability": "nonpayable",
      "type": "function"
    },
    {
      "inputs": [
        {
          "internalType": "bytes32",
          "name": "role",
          "type": "bytes32"
        },
        {
          "internalType": "address",
          "name": "account",
          "type": "address"
        }
      ],
      "name": "revokeRole",
      "outputs": [],
      "stateMutability": "nonpayable",
      "type": "function"
    },
    {
      "inputs": [
        {
          "internalType": "uint256",
          "name": "_maxTime",
          "type": "uint256"
        }
      ],
      "name": "setMaxTime",
      "outputs": [],
      "stateMutability": "nonpayable",
      "type": "function"
    },
    {
      "inputs": [
        {
          "internalType": "uint256",
          "name": "",
          "type": "uint256"
        }
      ],
      "name": "slopeChanges",
      "outputs": [
        {
          "internalType": "int256",
          "name": "",
          "type": "int256"
        }
      ],
      "stateMutability": "view",
      "type": "function"
    },
    {
      "inputs": [],
      "name": "stakeRegistry",
      "outputs": [
        {
          "internalType": "address",
          "name": "",
          "type": "address"
        }
      ],
      "stateMutability": "view",
      "type": "function"
    },
    {
      "inputs": [
        {
          "internalType": "bytes4",
          "name": "interfaceId",
          "type": "bytes4"
        }
      ],
      "name": "supportsInterface",
      "outputs": [
        {
          "internalType": "bool",
          "name": "",
          "type": "bool"
        }
      ],
      "stateMutability": "view",
      "type": "function"
    },
    {
      "inputs": [],
      "name": "tos",
      "outputs": [
        {
          "internalType": "address",
          "name": "",
          "type": "address"
        }
      ],
      "stateMutability": "view",
      "type": "function"
    },
    {
      "inputs": [
        {
          "internalType": "address",
          "name": "_addr",
          "type": "address"
        }
      ],
      "name": "totalLockedAmountOf",
      "outputs": [
        {
          "internalType": "uint256",
          "name": "",
          "type": "uint256"
        }
      ],
      "stateMutability": "view",
      "type": "function"
    },
    {
      "inputs": [],
      "name": "totalSupply",
      "outputs": [
        {
          "internalType": "uint256",
          "name": "",
          "type": "uint256"
        }
      ],
      "stateMutability": "view",
      "type": "function"
    },
    {
      "inputs": [
        {
          "internalType": "uint256",
          "name": "_timestamp",
          "type": "uint256"
        }
      ],
      "name": "totalSupplyAt",
      "outputs": [
        {
          "internalType": "uint256",
          "name": "",
          "type": "uint256"
        }
      ],
      "stateMutability": "view",
      "type": "function"
    },
    {
      "inputs": [
        {
          "internalType": "address",
          "name": "newAdmin",
          "type": "address"
        }
      ],
      "name": "transferAdmin",
      "outputs": [],
      "stateMutability": "nonpayable",
      "type": "function"
    },
    {
      "inputs": [
        {
          "internalType": "uint256",
          "name": "",
          "type": "uint256"
        }
      ],
      "name": "uniqueUsers",
      "outputs": [
        {
          "internalType": "address",
          "name": "",
          "type": "address"
        }
      ],
      "stateMutability": "view",
      "type": "function"
    },
    {
      "inputs": [
        {
          "internalType": "address",
          "name": "",
          "type": "address"
        },
        {
          "internalType": "uint256",
          "name": "",
          "type": "uint256"
        }
      ],
      "name": "userLocks",
      "outputs": [
        {
          "internalType": "uint256",
          "name": "",
          "type": "uint256"
        }
      ],
      "stateMutability": "view",
      "type": "function"
    },
    {
      "inputs": [
        {
          "internalType": "uint256",
          "name": "_lockId",
          "type": "uint256"
        }
      ],
      "name": "withdraw",
      "outputs": [],
      "stateMutability": "nonpayable",
      "type": "function"
    },
    {
      "inputs": [],
      "name": "withdrawAll",
      "outputs": [],
      "stateMutability": "nonpayable",
      "type": "function"
    },
    {
      "inputs": [
        {
          "internalType": "address",
          "name": "_addr",
          "type": "address"
        }
      ],
      "name": "withdrawableAmountOf",
      "outputs": [
        {
          "internalType": "uint256",
          "name": "",
          "type": "uint256"
        }
      ],
      "stateMutability": "view",
      "type": "function"
    },
    {
      "inputs": [
        {
          "internalType": "address",
          "name": "_addr",
          "type": "address"
        }
      ],
      "name": "withdrawableLocksOf",
      "outputs": [
        {
          "internalType": "uint256[]",
          "name": "",
          "type": "uint256[]"
        }
      ],
      "stateMutability": "view",
      "type": "function"
    }
  ],
  "bytecode": "0x608060405260016007553480156200001657600080fd5b506200003260008051602062004af58339815191528062000062565b6200004d60008051602062004af583398151915233620000ad565b60006004819055600581905560065562000161565b600082815260106020526040808220600101805490849055905190918391839186917fbd79b86ffe0ab8e8776151514217cd7cacd52c909f66475c3af44e129f0b00ff9190a4505050565b620000b98282620000bd565b5050565b60008281526010602090815260408083206001600160a01b038516845290915290205460ff16620000b95760008281526010602090815260408083206001600160a01b03851684529091529020805460ff191660011790556200011d3390565b6001600160a01b0316816001600160a01b0316837f2f8788117e7eff1d82e926ec794901d17c78024a50270940304540a733656f0d60405160405180910390a45050565b61498480620001716000396000f3fe608060405234801561001057600080fd5b50600436106103995760003560e01c8063853828b6116101e9578063b94419e01161010f578063d547741f116100ad578063eb86b3421161007c578063eb86b342146108b2578063ed50c699146108c5578063f52a36f7146108d8578063fd2dcecf146108f857600080fd5b8063d547741f14610871578063dd38339414610884578063e43cb66614610897578063ea31e895146108aa57600080fd5b8063c5dc1e5f116100e9578063c5dc1e5f1461081d578063c79acdda1461083d578063c80a3aa614610860578063cd29ca0e1461086857600080fd5b8063b94419e0146107d5578063c3f9ab58146107e8578063c57736561461080857600080fd5b80639d507b8b11610187578063afae883e11610156578063afae883e1461079d578063b2383e55146107a6578063b52c05fe146107b9578063b534ad56146107cc57600080fd5b80639d507b8b14610749578063a1f5f50e1461075c578063a217fddf14610782578063aa33fedb1461078a57600080fd5b806391d14854116101c357806391d14854146106bd578063981b24d0146106f657806398b777e7146107095780639ce563051461071c57600080fd5b8063853828b61461068f57806389f395de146106975780638ad4c447146106aa57600080fd5b806336568abe116102ce578063642cf6491161026c57806375829def1161023b57806375829def1461062f57806375b238fc146106425780637a1ac61e146106695780638372cd7e1461067c57600080fd5b8063642cf649146105c657806368304835146105d9578063704802751461060957806370a082311461061c57600080fd5b80634ee2cd7e116102a85780634ee2cd7e146105095780635d16a6f91461051c57806363a8fd891461058157806363d5a3d91461058e57600080fd5b806336568abe146104b5578063367b7b23146104c85780634cf5fbf5146104f657600080fd5b8063229852461161033b57806324d7806c1161031557806324d7806c1461047657806329cb924d146104895780632e1a7d4d1461048f5780632f2ff15d146104a257600080fd5b8063229852461461042357806322e67e711461044a578063248a9ca31461045357600080fd5b80630b7858ba116103775780630b7858ba146103f65780631785f53c146103fe57806318160ddd146104135780631ac40e661461041b57600080fd5b806301ffc9a71461039e578063059f8b16146103c6578063086c46f4146103e3575b600080fd5b6103b16103ac366004614287565b610901565b60405190151581526020015b60405180910390f35b6103d5670de0b6b3a764000081565b6040519081526020016103bd565b6103d56103f13660046142cd565b610938565b6103b1610a0e565b61041161040c3660046142cd565b610a69565b005b6103d5610afb565b610411610c23565b6103d57ffb5864e8ff833c3cb2d2d08505e82ff02a43554c74a35d4f5a64e8526127831181565b6103d560025481565b6103d56104613660046142e8565b60009081526010602052604090206001015490565b6103b16104843660046142cd565b610c2b565b426103d5565b61041161049d3660046142e8565b610c6b565b6104116104b0366004614301565b610d20565b6104116104c3366004614301565b610d4a565b6104db6104d636600461432d565b610dd6565b604080519384526020840192909252908201526060016103bd565b61041161050436600461434f565b610e18565b6103d5610517366004614382565b611009565b61055f61052a366004614382565b600b60209081526000928352604080842090915290825290208054600182015460028301546003909301549192909160ff1684565b60408051948552602085019390935291830152151560608201526080016103bd565b6000546103b19060ff1681565b61055f61059c3660046142e8565b600c6020526000908152604090208054600182015460028301546003909301549192909160ff1684565b6103d56105d436600461432d565b6110d3565b6000546105f19061010090046001600160a01b031681565b6040516001600160a01b0390911681526020016103bd565b6104116106173660046142cd565b61114c565b6103d561062a3660046142cd565b6111d6565b61041161063d3660046142cd565b611296565b6103d57fdf8b4c520ffe197c5343c6f5aec59570151ef9a492f2c624fd45ddde6135ec4281565b61041161067736600461434f565b6113f8565b6103d561068a3660046143ac565b6114e7565b610411611585565b6003546105f1906001600160a01b031681565b6104db6106b83660046142e8565b61171c565b6103b16106cb366004614301565b60009182526010602090815260408084206001600160a01b0393909316845291905290205460ff1690565b6103d56107043660046142e8565b61174f565b6104116107173660046142e8565b611813565b6104db61072a3660046142e8565b6000908152600c60205260409020805460018201546002909201549092565b61041161075736600461432d565b611878565b6000546103b1907501000000000000000000000000000000000000000000900460ff1681565b6103d5600081565b6103d5610798366004614382565b611b00565b6103d560045481565b6104116107b436600461432d565b611b31565b6103d56107c736600461432d565b611b3c565b6103d560055481565b6103d56107e33660046142e8565b611dae565b6107fb6107f63660046142cd565b61207f565b6040516103bd9190614405565b6108106120eb565b6040516103bd9190614449565b61083061082b3660046142e8565b6122ba565b6040516103bd919061448a565b6103b161084b3660046142e8565b600f6020526000908152604090205460ff1681565b61081061234a565b6103d560065481565b61041161087f366004614301565b6123ac565b6107fb6108923660046142cd565b6123d1565b6107fb6108a53660046142cd565b612618565b6103d5612818565b6103d56108c03660046142cd565b61288a565b6105f16108d33660046142e8565b612985565b6103d56108e63660046142e8565b600e6020526000908152604090205481565b6103d560015481565b60006001600160e01b03198216637965db0b60e01b148061093257506301ffc9a760e01b6001600160e01b03198316145b92915050565b6001600160a01b0381166000908152600d602052604081205481805b82811015610a06576001600160a01b0385166000908152600d60205260408120805483908110610986576109866144e3565b60009182526020808320909101546001600160a01b0389168352600b8252604080842082855283529283902083516080810185528154815260018201549381019390935260028101549383018490526003015460ff16151560608301529250906109f19085906129af565b93505050806109ff9061450f565b9050610954565b509392505050565b600954600090808203610a2357600191505090565b6001546009600183610a359190614528565b81548110610a4557610a456144e3565b90600052602060002090600302016002015442610a629190614528565b1191505090565b610a7233610c2b565b610ace5760405162461bcd60e51b815260206004820152602260248201527f41636365737369626c653a2043616c6c6572206973206e6f7420616e2061646d60448201526134b760f11b60648201526084015b60405180910390fd5b610af87fdf8b4c520ffe197c5343c6f5aec59570151ef9a492f2c624fd45ddde6135ec4282610d4a565b50565b6009546000908103610b0d5750600090565b610b2f6040518060600160405280602b815260200161494d602b9139426129c2565b60098054600091610b9391610b4690600190614528565b81548110610b5657610b566144e3565b9060005260206000209060030201604051806060016040529081600082015481526020016001820154815260200160028201548152505042612a07565b9050610bbb6040518060600160405280602e815260200161479b602e913982604001516129c2565b6000610bea610bdf610bda846040015142612d5790919063ffffffff16565b612d63565b602084015190612dea565b9050610c1c670de0b6b3a764000082846000015113610c0a576000610c16565b8351610c169084612df6565b90612e02565b9250505090565b610af8612e0e565b6001600160a01b03811660009081527fd21a66949a5a04345f8aa6b0aa7498342fb6c8e348649481fc08549acf865726602052604081205460ff16610932565b600754600114610cbd5760405162461bcd60e51b815260206004820152601860248201527f4c6f636b496420697320616c726561647920696e2075736500000000000000006044820152606401610ac5565b600060075580610d0f5760405162461bcd60e51b815260206004820152600f60248201527f5f6c6f636b4964206973207a65726f00000000000000000000000000000000006044820152606401610ac5565b610d188161318b565b506001600755565b600082815260106020526040902060010154610d3b81613479565b610d458383613483565b505050565b6001600160a01b0381163314610dc85760405162461bcd60e51b815260206004820152602f60248201527f416363657373436f6e74726f6c3a2063616e206f6e6c792072656e6f756e636560448201527f20726f6c657320666f722073656c6600000000000000000000000000000000006064820152608401610ac5565b610dd28282613525565b5050565b600a6020528160005260406000208181548110610df257600080fd5b600091825260209091206003909102018054600182015460029092015490935090915083565b60008111610e685760405162461bcd60e51b815260206004820152601f60248201527f56616c7565206c6f636b65642073686f756c64206265206e6f6e2d7a65726f006044820152606401610ac5565b6001600160a01b0383166000908152600b6020908152604080832085845282529182902082516080810184528154815260018201549281019290925260028101549282019290925260039091015460ff161580156060830152610f0d5760405162461bcd60e51b815260206004820152601160248201527f4c6f636b2069732077697468647261776e0000000000000000000000000000006044820152606401610ac5565b8051610f515760405162461bcd60e51b8152602060048201526013602482015272131bd8dac8191bd95cc81b9bdd08195e1a5cdd606a1b6044820152606401610ac5565b42816020015111610fa45760405162461bcd60e51b815260206004820152601560248201527f4c6f636b2074696d652069732066696e697368656400000000000000000000006044820152606401610ac5565b600654610fb190836129af565b600655610fc184848460006135a8565b60408051338152602081018590529081018390527fea44bc904f77b1be47cd5b840b00f19b7238f88d7524fa5a86629282bfe6bcc5906060015b60405180910390a150505050565b6001600160a01b0382166000908152600d602090815260408083208054825181850281018501909352808352849383018282801561106657602002820191906000526020600020905b815481526020019060010190808311611052575b505050505090508051600003611080576000915050610932565b60005b81518110156110cb576110b96110b28383815181106110a4576110a46144e3565b6020026020010151866110d3565b84906129af565b92506110c48161450f565b9050611083565b505092915050565b6000828152600a60205260408120819081906110ef90856138ac565b915091508161110357600092505050610932565b6000611122610bdf610bda846040015188612d5790919063ffffffff16565b9050611142670de0b6b3a764000082846000015113610c0a576000610c16565b9695505050505050565b61115533610c2b565b6111ac5760405162461bcd60e51b815260206004820152602260248201527f41636365737369626c653a2043616c6c6572206973206e6f7420616e2061646d60448201526134b760f11b6064820152608401610ac5565b610af87fdf8b4c520ffe197c5343c6f5aec59570151ef9a492f2c624fd45ddde6135ec4282610d20565b6001600160a01b0381166000908152600d602090815260408083208054825181850281018501909352808352849383018282801561123357602002820191906000526020600020905b81548152602001906001019080831161121f575b50505050509050805160000361124c5750600092915050565b60005b815181101561128f5761127d6110b2838381518110611270576112706144e3565b6020026020010151611dae565b92506112888161450f565b905061124f565b5050919050565b61129f33610c2b565b6112f65760405162461bcd60e51b815260206004820152602260248201527f41636365737369626c653a2043616c6c6572206973206e6f7420616e2061646d60448201526134b760f11b6064820152608401610ac5565b6001600160a01b03811661134c5760405162461bcd60e51b815260206004820152601860248201527f41636365737369626c653a207a65726f206164647265737300000000000000006044820152606401610ac5565b6001600160a01b03811633036113a45760405162461bcd60e51b815260206004820152601660248201527f41636365737369626c653a2073616d652061646d696e000000000000000000006044820152606401610ac5565b6113ce7fdf8b4c520ffe197c5343c6f5aec59570151ef9a492f2c624fd45ddde6135ec4282610d20565b610af87fdf8b4c520ffe197c5343c6f5aec59570151ef9a492f2c624fd45ddde6135ec4233610d4a565b61140133610c2b565b6114585760405162461bcd60e51b815260206004820152602260248201527f41636365737369626c653a2043616c6c6572206973206e6f7420616e2061646d60448201526134b760f11b6064820152608401610ac5565b6003546001600160a01b0316156114b15760405162461bcd60e51b815260206004820152601360248201527f416c726561647920696e697469616c697a6564000000000000000000000000006044820152606401610ac5565b6003805473ffffffffffffffffffffffffffffffffffffffff19166001600160a01b039490941693909317909255600155600255565b60035460405163d505accf60e01b8152336004820152306024820152604481018890526064810186905260ff8516608482015260a4810184905260c481018390526000916001600160a01b03169063d505accf9060e401600060405180830381600087803b15801561155857600080fd5b505af115801561156c573d6000803e3d6000fd5b5050505061157a8787611b3c565b979650505050505050565b6007546001146115d75760405162461bcd60e51b815260206004820152601860248201527f4c6f636b496420697320616c726561647920696e2075736500000000000000006044820152606401610ac5565b60006007819055338152600d6020526040812080549091036115f95750611715565b60005b8154811015611712576000600c600084848154811061161d5761161d6144e3565b6000918252602080832090910154835282810193909352604091820190208151608081018352815481526001820154938101939093526002810154918301919091526003015460ff16158015606083018190529192509061169a5750600083838154811061168d5761168d6144e3565b9060005260206000200154115b80156116aa575060008160400151115b80156116b65750805115155b80156116c6575060008160200151115b80156116d55750428160200151105b156116ff576116ff8383815481106116ef576116ef6144e3565b906000526020600020015461318b565b508061170a8161450f565b9150506115fc565b50505b6001600755565b6009818154811061172c57600080fd5b600091825260209091206003909102018054600182015460029092015490925083565b600954600090810361176357506000919050565b6117856040518060600160405280602e815260200161476d602e9139836129c2565b6000806117936009856138ac565b91509150816117a6575060009392505050565b6117b08185612a07565b905060006117ce610bda836040015187612d5790919063ffffffff16565b82602001516117dd919061453b565b905061180a670de0b6b3a7640000828460000151136117fd576000610c16565b8351610c1690849061456b565b95945050505050565b61181c33610c2b565b6118735760405162461bcd60e51b815260206004820152602260248201527f41636365737369626c653a2043616c6c6572206973206e6f7420616e2061646d60448201526134b760f11b6064820152608401610ac5565b600255565b600081116118c85760405162461bcd60e51b815260206004820152601e60248201527f556e6c6f636b20706572696f64206c657373207468616e2061207765656b00006044820152606401610ac5565b6005546118d590826129af565b600555336000908152600b602090815260408083208584528252808320815160808101835281548152600180830154948201949094526002820154928101929092526003015460ff16151560608201529054909190611944906119399085906139dc565b6020840151906129af565b60015490915061195e906119588382612e02565b906139dc565b60025490915061196e4283614528565b106119bb5760405162461bcd60e51b815260206004820152601a60248201527f4d617820756e6c6f636b2074696d6520697320332079656172730000000000006044820152606401610ac5565b42826020015111611a0e5760405162461bcd60e51b815260206004820152601a60248201527f4c6f636b2074696d6520616c72656164792066696e69736865640000000000006044820152606401610ac5565b80826020015110611a615760405162461bcd60e51b815260206004820152601d60248201527f4e6577206c6f636b2074696d65206d75737420626520677265617465720000006044820152606401610ac5565b6000826040015111611ab55760405162461bcd60e51b815260206004820152601660248201527f4e6f206578697374696e67206c6f636b656420544f53000000000000000000006044820152606401610ac5565b611ac233856000846135a8565b60408051338152602081018690529081018290527fb8596b0e78133666b86648f60233cc2d078144d06df7874ea9f612a3ccc3e2fb90606001610ffb565b600d6020528160005260406000208181548110611b1c57600080fd5b90600052602060002001600091509150505481565b610dd2338383610e18565b6000808311611b8d5760405162461bcd60e51b815260206004820152601f60248201527f56616c7565206c6f636b65642073686f756c64206265206e6f6e2d7a65726f006044820152606401610ac5565b60008211611bdd5760405162461bcd60e51b815260206004820152601e60248201527f556e6c6f636b20706572696f64206c657373207468616e2061207765656b00006044820152606401610ac5565b600554611bea90836129af565b600555600654611bfa90846129af565b600655600154600090611c1990611c129085906139dc565b42906129af565b600154909150611c2d906119588382612e02565b600254909150611c3d4283614528565b1115611c8b5760405162461bcd60e51b815260206004820152601a60248201527f4d617820756e6c6f636b2074696d6520697320332079656172730000000000006044820152606401610ac5565b336000908152600d60205260408120549003611cf157600880546001810182556000919091527ff3f7a9fe364faab93b216da50a3214154f22a0a2b415b23a84c8169e8b636ee301805473ffffffffffffffffffffffffffffffffffffffff1916331790555b600454611cff9060016129af565b60048190556040805180820190915260098152686c6f636b496420257360b81b6020820152909250611d3190836129c2565b611d3d338386846135a8565b336000818152600d60209081526040808320805460018101825590845292829020909201859055815192835282018490528101859052606081018290527f71fc552ee832a9004ea0bdb07cb6dd9d641eb2cb53b3cfe88c8fdcff886734a09060800160405180910390a15092915050565b6000818152600a6020526040812054808203611dcd5750600092915050565b6000838152600a60205260408120611de6600184614528565b81548110611df657611df66144e3565b906000526020600020906003020160405180606001604052908160008201548152602001600182015481526020016002820154815250509050611e6e6040518060400160405280601081526020017f62616c616e63654f664c6f636b20257300000000000000000000000000000000815250856129c2565b611eac6040518060400160405280601981526020017f62616c616e63654f664c6f636b20706f696e742e736c6f7065000000000000008152506139e8565b611eb98160200151613a2b565b611ef76040518060400160405280601881526020017f62616c616e63654f664c6f636b20706f696e742e6269617300000000000000008152506139e8565b8051611f0290613a2b565b611f406040518060400160405280601d81526020017f62616c616e63654f664c6f636b20706f696e742e74696d657374616d700000008152506139e8565b611f4d8160400151613a70565b611f8c6040518060400160405280601281526020017f626c6f636b2e74696d657374616d702025730000000000000000000000000000815250426129c2565b6000611fab610bdf610bda846040015142612d5790919063ffffffff16565b9050611feb6040518060400160405280601981526020017f62616c616e63654f664c6f636b2063757272656e7442696173000000000000008152506139e8565b611ff481613a2b565b600081836000015113612008576000612014565b82516120149083612df6565b90506120556040518060400160405280601c81526020017f62616c616e63654f664c6f636b2063757272656e744269617320257300000000815250826129c2565b611142670de0b6b3a764000083856000015113612073576000610c16565b8451610c169085612df6565b6001600160a01b0381166000908152600d60209081526040918290208054835181840281018401909452808452606093928301828280156120df57602002820191906000526020600020905b8154815260200190600101908083116120cb575b50505050509050919050565b60085460609060009067ffffffffffffffff81111561210c5761210c614592565b604051908082528060200260200182016040528015612135578160200160208202803683370190505b5090506000805b6008548110156121c55760006121786008838154811061215e5761215e6144e3565b6000918252602090912001546001600160a01b0316612618565b8051909150156121b4578261218c8161450f565b93505060018483815181106121a3576121a36144e3565b911515602092830291909101909101525b506121be8161450f565b905061213c565b5060008167ffffffffffffffff8111156121e1576121e1614592565b60405190808252806020026020018201604052801561220a578160200160208202803683370190505b5090506000805b6008548110156122b05784818151811061222d5761222d6144e3565b6020026020010151156122a0576008818154811061224d5761224d6144e3565b6000918252602090912001546001600160a01b0316838361226d8161450f565b94508151811061227f5761227f6144e3565b60200260200101906001600160a01b031690816001600160a01b0316815250505b6122a98161450f565b9050612211565b5090949350505050565b6060600a6000838152602001908152602001600020805480602002602001604051908101604052809291908181526020016000905b8282101561233f57838290600052602060002090600302016040518060600160405290816000820154815260200160018201548152602001600282015481525050815260200190600101906122ef565b505050509050919050565b606060088054806020026020016040519081016040528092919081815260200182805480156123a257602002820191906000526020600020905b81546001600160a01b03168152600190910190602001808311612384575b5050505050905090565b6000828152601060205260409020600101546123c781613479565b610d458383613525565b6001600160a01b0381166000908152600d6020526040812054606091805b828110156124c9576001600160a01b0385166000908152600d60205260408120805483908110612421576124216144e3565b60009182526020808320909101546001600160a01b0389168352600b8252604080842082855283529283902083516080810185528154815260018201549381018490526002820154948101949094526003015460ff161515606084015292504210801590612493575060008160400151115b80156124a157506060810151155b156124b457836124b08161450f565b9450505b505080806124c19061450f565b9150506123ef565b5060008167ffffffffffffffff8111156124e5576124e5614592565b60405190808252806020026020018201604052801561250e578160200160208202803683370190505b5090506000915060005b8381101561260f576001600160a01b0386166000908152600d6020526040812080548390811061254a5761254a6144e3565b60009182526020808320909101546001600160a01b038a168352600b8252604080842082855283529283902083516080810185528154815260018201549381018490526002820154948101949094526003015460ff1615156060840152925042108015906125bc575060008160400151115b80156125ca57506060810151155b156125fa578184866125db8161450f565b9750815181106125ed576125ed6144e3565b6020026020010181815250505b505080806126079061450f565b915050612518565b50949350505050565b6001600160a01b0381166000908152600d6020526040812054606091805b828110156126f1576001600160a01b0385166000908152600d60205260408120805483908110612668576126686144e3565b60009182526020808320909101546001600160a01b0389168352600b8252604080842082855283529283902083516080810185528154815260018201549381018490526002820154948101949094526003015460ff161515606084015292504210156126dc57836126d88161450f565b9450505b505080806126e99061450f565b915050612636565b5060008167ffffffffffffffff81111561270d5761270d614592565b604051908082528060200260200182016040528015612736578160200160208202803683370190505b5090506000915060005b8381101561260f576001600160a01b0386166000908152600d60205260408120805483908110612772576127726144e3565b60009182526020808320909101546001600160a01b038a168352600b8252604080842082855283529283902083516080810185528154815260018201549381018490526002820154948101949094526003015460ff16151560608401529250421015612803578184866127e48161450f565b9750815181106127f6576127f66144e3565b6020026020010181815250505b505080806128109061450f565b915050612740565b6003546040516370a0823160e01b81523060048201526000916001600160a01b0316906370a0823190602401602060405180830381865afa158015612861573d6000803e3d6000fd5b505050506040513d601f19601f8201168201806040525081019061288591906145a8565b905090565b6001600160a01b0381166000908152600d602052604081205481805b82811015610a06576001600160a01b0385166000908152600d602052604081208054839081106128d8576128d86144e3565b60009182526020808320909101546001600160a01b0389168352600b8252604080842082855283529283902083516080810185528154815260018201549381018490526002820154948101949094526003015460ff16151560608401529250421080159061294a575060008160400151115b801561295857506060810151155b1561297057604081015161296d9085906129af565b93505b5050808061297d9061450f565b9150506128a6565b6008818154811061299557600080fd5b6000918252602090912001546001600160a01b0316905081565b60006129bb82846145c1565b9392505050565b610dd282826040516024016129d8929190614624565b60408051601f198184030181529190526020810180516001600160e01b0316632d839cb360e21b179052613ab1565b612a2b60405180606001604052806000815260200160008152602001600081525090565b612a6a6040518060400160405280601c81526020017f5f66696c6c5265636f7264476170732074696d657374616d7020257300000000815250836129c2565b6001546040840151600091612a83916119589082612e02565b9050612aa76040518060600160405280602981526020016148df60299139826129c2565b612ad26040518060400160405280600a8152602001697765656b2e736c6f706560b01b8152506139e8565b612adf8460200151613a2b565b612b09604051806040016040528060098152602001687765656b2e6269617360b81b8152506139e8565b8351612b1490613a2b565b612b4b604051806040016040528060118152602001707765656b2e74696d657374616d7020257360781b81525085604001516129c2565b828114612d4f57612b70612b6a600154836129af90919063ffffffff16565b84613ad2565b9050612b946040518060600160405280602d8152602001614864602d9139826129c2565b6000818152600e60205260408082205490860151909190612bc690610bda90612bbe908690612d57565b600154613ad2565b9050612bf36040518060400160405280600a81526020016964656c7461536c6f706560b01b8152506139e8565b612bfc82613a2b565b612c266040518060400160405280600981526020016864656c746154696d6560b81b8152506139e8565b612c2f81613a2b565b6020860151612c4a90612c429083612dea565b875190612df6565b86526040805180820190915260098152687765656b2e6269617360b81b6020820152612c75906139e8565b8551612c8090613a2b565b6020860151612c8f9083613ae8565b866020018181525050612cc36040518060400160405280600a8152602001697765656b2e736c6f706560b01b8152506139e8565b612cd08660200151613a2b565b8551600012612ce0576000612ce3565b85515b86526020860151600012612cf8576000612cfe565b85602001515b86602001818152505082866040018181525050612d48604051806040016040528060118152602001707765656b2e74696d657374616d7020257360781b81525087604001516129c2565b5050612b4b565b509192915050565b60006129bb8284614528565b60007f7fffffffffffffffffffffffffffffffffffffffffffffffffffffffffffffff821115612de65760405162461bcd60e51b815260206004820152602860248201527f53616665436173743a2076616c756520646f65736e27742066697420696e2061604482015267371034b73a191a9b60c11b6064820152608401610ac5565b5090565b60006129bb828461453b565b60006129bb828461456b565b60006129bb8284614646565b612e3260405180606001604052806000815260200160008152602001600081525090565b6000429050612e5960405180606001604052806021815260200161492c60219139826129c2565b60095415612ebf5760098054612e7190600190614528565b81548110612e8157612e816144e3565b906000526020600020906003020160405180606001604052908160008201548152602001600182015481526020016002820154815250509150612edf565b604051806060016040528060008152602001600081526020018281525091505b612f036040518060600160405280602b8152602001614891602b91396009546129c2565b6001546040830151600091612f1c916119589082612e02565b9050612f5d6040518060400160405280601981526020017f706f696e7454696d657374616d704974657261746f7220257300000000000000815250826129c2565b81811461310257612f82612f7c600154836129af90919063ffffffff16565b83613ad2565b9050612fa66040518060600160405280602d81526020016147ed602d9139826129c2565b6000818152600e60205260408082205490850151909190612fd090610bda90612bbe908690612d57565b9050612ff4612fec828760200151612dea90919063ffffffff16565b865190612df6565b855260208501516130059083613ae8565b6020860152845160001261301a57600061301d565b84515b85526020850151600012613032576000613038565b84602001515b6020808701919091526040808701859052805160608101909152602780825261306c9261481a9083013986604001516129c2565b50506009805460018101825560009190915283517f6e1540171b6c0c960b71a7020d9f60077f6af931a8bbf590da0223dacf75c7af60039092029182015560208401517f6e1540171b6c0c960b71a7020d9f60077f6af931a8bbf590da0223dacf75c7b082015560408401517f6e1540171b6c0c960b71a7020d9f60077f6af931a8bbf590da0223dacf75c7b190910155612f5d565b60408051808201909152601681527f706f696e74486973746f72792e6c656e67746820257300000000000000000000602082015260095461314391906129c2565b6131866040518060400160405280600b81526020017f6c6173745765656b20257300000000000000000000000000000000000000000081525084604001516129c2565b505090565b336000908152600b6020908152604080832084845282529182902082516080810184528154815260018201549281019290925260028101549282019290925260039091015460ff1615801560608301526132275760405162461bcd60e51b815260206004820152601160248201527f416c72656164792077697468647261776e0000000000000000000000000000006044820152606401610ac5565b805161326b5760405162461bcd60e51b8152602060048201526013602482015272131bd8dac8191bd95cc81b9bdd08195e1a5cdd606a1b6044820152606401610ac5565b428160200151106132be5760405162461bcd60e51b815260206004820152601660248201527f4c6f636b2074696d65206e6f742066696e6973686564000000000000000000006044820152606401610ac5565b60008160400151116133125760405162461bcd60e51b815260206004820152601560248201527f4e6f20616d6f756e7420746f20776974686472617700000000000000000000006044820152606401610ac5565b6040805160808101825260008082526020820181905291810191909152600160608201526133408183613af4565b604082810151336000818152600b60209081528482208883528152848220865181558682018051600180840191909155888801805160028086019190915560608b0180516003968701805491151560ff19928316179055600c909752968a90208b5181559351928401929092555190820155925192810180549315159390921692909217905554925163a9059cbb60e01b815260048101919091526024810182905290916001600160a01b03169063a9059cbb906044016020604051808303816000875af1158015613416573d6000803e3d6000fd5b505050506040513d601f19601f8201168201806040525081019061343a9190614668565b5060408051338152602081018690529081018290527ff1206247bdd5e2e0cfc00bea4cf05fb8dc479ebee686f9549043179cc7013b3090606001610ffb565b610af88133613dee565b60008281526010602090815260408083206001600160a01b038516845290915290205460ff16610dd25760008281526010602090815260408083206001600160a01b03851684529091529020805460ff191660011790556134e13390565b6001600160a01b0316816001600160a01b0316837f2f8788117e7eff1d82e926ec794901d17c78024a50270940304540a733656f0d60405160405180910390a45050565b60008281526010602090815260408083206001600160a01b038516845290915290205460ff1615610dd25760008281526010602090815260408083206001600160a01b0385168085529252808320805460ff1916905551339285917ff6391f5c32d9c69d2a47ea670b442974b53935d1edc7fd64eb21e047a839171b9190a45050565b6007546001146135fa5760405162461bcd60e51b815260206004820152601860248201527f4c6f636b496420697320616c726561647920696e2075736500000000000000006044820152606401610ac5565b600060078190556001600160a01b0385168152600b602090815260408083208684528252808320815160808082018452825482526001830154828601908152600284015483860190815260039094015460ff161515606080850191909152855192830186528351835290519582019590955291519282018390529281019390935290919061368890856129af565b6040820152821561369b57602081018390525b80516000036136a8574281525b6136b28183613af4565b6001600160a01b0386166000908152600b60209081526040808320888452825280832084518155828501805160018084019190915583870180516002808601919091556060890180516003968701805491151560ff19928316179055600c909852958820895181559351928401929092555182820181905593519190920180549115159190941617909255905461375a91610bda9190610c1690670de0b6b3a76400006139dc565b9050600061378261377b610bda428660200151612d5790919063ffffffff16565b8390612dea565b6040805160608101825282815260208082018681524283850190815260008d8152600a84528581208054600180820183559183529490912085516003958602909101908155925190830155516002909101555491516323b872dd60e01b8152336004820152306024820152604481018a9052929350916001600160a01b03909116906323b872dd906064016020604051808303816000875af115801561382c573d6000803e3d6000fd5b505050506040513d601f19601f820116820180604052508101906138509190614668565b61389c5760405162461bcd60e51b815260206004820152601a60248201527f4c6f636b544f533a206661696c207472616e7366657246726f6d0000000000006044820152606401610ac5565b5050600160075550505050505050565b60006138d260405180606001604052806000815260200160008152602001600081525090565b83546000036138e457600091506139d5565b83546000905b806138f68360016145c1565b101561394b57600061390d6002610c1685856129af565b905085878281548110613922576139226144e3565b9060005260206000209060030201600201541161394157809250613945565b8091505b506138ea565b8486838154811061395e5761395e6144e3565b906000526020600020906003020160020154116139ce576001868381548110613989576139896144e3565b906000526020600020906003020180604051806060016040529081600082015481526020016001820154815260200160028201548152505090509350935050506139d5565b6000935050505b9250929050565b60006129bb828461468a565b610af8816040516024016139fc91906146a1565b60408051601f198184030181529190526020810180516001600160e01b031663104c13eb60e21b179052613ab1565b610af881604051602401613a4191815260200190565b60408051601f198184030181529190526020810180516001600160e01b0316632d5b6cb960e01b179052613ab1565b610af881604051602401613a8691815260200190565b60408051601f198184030181529190526020810180516001600160e01b031663f82c50f160e01b1790525b80516a636f6e736f6c652e6c6f67602083016000808483855afa5050505050565b6000818310613ae157816129bb565b5090919050565b60006129bb82846146b4565b60408051606080820183526000808352602080840182905283850182905284519283018552818352828101829052938201529184015142929083108015613b3f575060008560400151115b15613b9757613b6c610bda600254610c16670de0b6b3a764000089604001516139dc90919063ffffffff16565b602080840191909152850151613b8a90610bdf90610bda9086612d57565b8252602085015160408301525b828460200151118015613bae575060008460400151115b15613c1157613bdb610bda600254610c16670de0b6b3a764000088604001516139dc90919063ffffffff16565b602080830191909152840151613c0490613bf990610bda9086612d57565b602083015190612dea565b8152602084015160408201525b6000613c1b612e0e565b82518451919250613c3791613c2f91612df6565b825190613ae8565b815260208083015190840151613c5c91613c519190612df6565b602083015190613ae8565b60208201528051600012613c71576000613c74565b80515b81526020810151600012613c89576000613c8f565b80602001515b602082015260098054829190613ca790600190614528565b81548110613cb757613cb76144e3565b9060005260206000209060030201600082015181600001556020820151816001015560408201518160020155905050613d366040518060400160405280601681526020017f706f696e74486973746f72792020696e646578202573000000000000000000008152506001600980549050613d319190614528565b6129c2565b613d5b604051806040016040528060048152602001636269617360e01b8152506139e8565b8051613d6690613a2b565b613d8c60405180604001604052806005815260200164736c6f706560d81b8152506139e8565b613d998160200151613a2b565b613ddc6040518060400160405280601981526020017f706f696e74486973746f72792e74696d657374616d702025730000000000000081525082604001516129c2565b613de68383613e63565b505050505050565b60008281526010602090815260408083206001600160a01b038516845290915290205460ff16610dd257613e21816140cc565b613e2c8360206140de565b604051602001613e3d9291906146d4565b60408051601f198184030181529082905262461bcd60e51b8252610ac5916004016146a1565b613ea16040518060400160405280601381526020017f5f757064617465536c6f70654368616e676573000000000000000000000000008152506139e8565b613ee46040518060400160405280601781526020017f6368616e67654e65772e6368616e676554696d6520257300000000000000000081525083604001516129c2565b613f276040518060400160405280601781526020017f6368616e67654f6c642e6368616e676554696d6520257300000000000000000081525082604001516129c2565b6000600e600084604001518152602001908152602001600020549050613f64604051806060016040528060238152602001614841602391396139e8565b613f6d81613a2b565b6000600e600084604001518152602001908152602001600020549050613faa6040518060600160405280602381526020016148bc602391396139e8565b613fb381613a2b565b4283604001511115614008576020830151613fcf908290613ae8565b90508360400151836040015103613ff3576020840151613ff0908290612df6565b90505b6040808401516000908152600e602052208190555b6140296040518060600160405280602481526020016147c9602491396139e8565b6040808401516000908152600e602052205461404490613a2b565b42846040015111801561405e575082604001518460400151115b1561408a576020840151614073908390612df6565b6040808601516000908152600e6020522081905591505b6140ab604051806060016040528060248152602001614908602491396139e8565b6040808501516000908152600e60205220546140c690613a2b565b50505050565b60606109326001600160a01b03831660145b606060006140ed83600261468a565b6140f89060026145c1565b67ffffffffffffffff81111561411057614110614592565b6040519080825280601f01601f19166020018201604052801561413a576020820181803683370190505b509050600360fc1b81600081518110614155576141556144e3565b60200101906001600160f81b031916908160001a905350600f60fb1b81600181518110614184576141846144e3565b60200101906001600160f81b031916908160001a90535060006141a884600261468a565b6141b39060016145c1565b90505b6001811115614238577f303132333435363738396162636465660000000000000000000000000000000085600f16601081106141f4576141f46144e3565b1a60f81b82828151811061420a5761420a6144e3565b60200101906001600160f81b031916908160001a90535060049490941c9361423181614755565b90506141b6565b5083156129bb5760405162461bcd60e51b815260206004820181905260248201527f537472696e67733a20686578206c656e67746820696e73756666696369656e746044820152606401610ac5565b60006020828403121561429957600080fd5b81356001600160e01b0319811681146129bb57600080fd5b80356001600160a01b03811681146142c857600080fd5b919050565b6000602082840312156142df57600080fd5b6129bb826142b1565b6000602082840312156142fa57600080fd5b5035919050565b6000806040838503121561431457600080fd5b82359150614324602084016142b1565b90509250929050565b6000806040838503121561434057600080fd5b50508035926020909101359150565b60008060006060848603121561436457600080fd5b61436d846142b1565b95602085013595506040909401359392505050565b6000806040838503121561439557600080fd5b61439e836142b1565b946020939093013593505050565b60008060008060008060c087890312156143c557600080fd5b863595506020870135945060408701359350606087013560ff811681146143eb57600080fd5b9598949750929560808101359460a0909101359350915050565b6020808252825182820181905260009190848201906040850190845b8181101561443d57835183529284019291840191600101614421565b50909695505050505050565b6020808252825182820181905260009190848201906040850190845b8181101561443d5783516001600160a01b031683529284019291840191600101614465565b602080825282518282018190526000919060409081850190868401855b828110156144d657815180518552868101518786015285015185850152606090930192908501906001016144a7565b5091979650505050505050565b634e487b7160e01b600052603260045260246000fd5b634e487b7160e01b600052601160045260246000fd5b600060018201614521576145216144f9565b5060010190565b81810381811115610932576109326144f9565b80820260008212600160ff1b84141615614557576145576144f9565b8181058314821517610932576109326144f9565b818103600083128015838313168383128216171561458b5761458b6144f9565b5092915050565b634e487b7160e01b600052604160045260246000fd5b6000602082840312156145ba57600080fd5b5051919050565b80820180821115610932576109326144f9565b60005b838110156145ef5781810151838201526020016145d7565b50506000910152565b600081518084526146108160208601602086016145d4565b601f01601f19169290920160200192915050565b60408152600061463760408301856145f8565b90508260208301529392505050565b60008261466357634e487b7160e01b600052601260045260246000fd5b500490565b60006020828403121561467a57600080fd5b815180151581146129bb57600080fd5b8082028115828204841417610932576109326144f9565b6020815260006129bb60208301846145f8565b80820182811260008312801582168215821617156110cb576110cb6144f9565b7f416363657373436f6e74726f6c3a206163636f756e742000000000000000000081526000835161470c8160178501602088016145d4565b7f206973206d697373696e6720726f6c652000000000000000000000000000000060179184019182015283516147498160288401602088016145d4565b01602801949350505050565b600081614764576147646144f9565b50600019019056fe2d2d2d2d2d2d2d2d2d2d2d2d2d2d2d2d2d2d2d746f74616c537570706c794174205f74696d657374616d70202573746f74616c537570706c79205f66696c6c5265636f72644761707320706f696e742e74696d657374616d702025732d2d736c6f70654368616e6765735b6368616e67654f6c642e6368616e676554696d655d706f696e7454696d657374616d704974657261746f72204d6174682e6d696e2874696d657374616d7029202573706f696e74486973746f72792e70757368206c6173745765656b2e74696d657374616d70202573736c6f70654368616e6765735b6368616e67654e65772e6368616e676554696d655d205f66696c6c5265636f726447617073206d696e20706f696e7454696d657374616d704974657261746f722025735f7265636f7264486973746f7279506f696e747320706f696e74486973746f72792e6c656e677468202573736c6f70654368616e6765735b6368616e67654f6c642e6368616e676554696d655d205f66696c6c5265636f72644761707320706f696e7454696d657374616d704974657261746f722025732d2d736c6f70654368616e6765735b6368616e67654e65772e6368616e676554696d655d5f7265636f7264486973746f7279506f696e74732074696d657374616d702025732d2d2d2d2d2d2d2d2d2d2d2d2d2d2d2d2d2d2d746f74616c537570706c792074696d657374616d70202573a164736f6c6343000812000adf8b4c520ffe197c5343c6f5aec59570151ef9a492f2c624fd45ddde6135ec42",
  "linkReferences": {},
  "deployedLinkReferences": {}
}