{
  "_format": "hh-sol-artifact-1",
  "contractName": "L2NonScheduleVaultA",
  "sourceName": "contracts/L2/vaults/L2NonScheduleVaultA.sol",
  "abi": [
    {
      "anonymous": false,
      "inputs": [
        {
          "indexed": false,
          "internalType": "address",
          "name": "l2Token",
          "type": "address"
        },
        {
          "indexed": false,
          "internalType": "address",
          "name": "to",
          "type": "address"
        },
        {
          "indexed": false,
          "internalType": "uint256",
          "name": "amount",
          "type": "uint256"
        }
      ],
      "name": "Claimed",
      "type": "event"
    },
    {
      "anonymous": false,
      "inputs": [
        {
          "indexed": true,
          "internalType": "bytes32",
          "name": "role",
          "type": "bytes32"
        },
        {
          "indexed": true,
          "internalType": "bytes32",
          "name": "previousAdminRole",
          "type": "bytes32"
        },
        {
          "indexed": true,
          "internalType": "bytes32",
          "name": "newAdminRole",
          "type": "bytes32"
        }
      ],
      "name": "RoleAdminChanged",
      "type": "event"
    },
    {
      "anonymous": false,
      "inputs": [
        {
          "indexed": true,
          "internalType": "bytes32",
          "name": "role",
          "type": "bytes32"
        },
        {
          "indexed": true,
          "internalType": "address",
          "name": "account",
          "type": "address"
        },
        {
          "indexed": true,
          "internalType": "address",
          "name": "sender",
          "type": "address"
        }
      ],
      "name": "RoleGranted",
      "type": "event"
    },
    {
      "anonymous": false,
      "inputs": [
        {
          "indexed": true,
          "internalType": "bytes32",
          "name": "role",
          "type": "bytes32"
        },
        {
          "indexed": true,
          "internalType": "address",
          "name": "account",
          "type": "address"
        },
        {
          "indexed": true,
          "internalType": "address",
          "name": "sender",
          "type": "address"
        }
      ],
      "name": "RoleRevoked",
      "type": "event"
    },
    {
      "anonymous": false,
      "inputs": [
        {
          "indexed": false,
          "internalType": "address",
          "name": "newInitializer",
          "type": "address"
        }
      ],
      "name": "SetInitializer",
      "type": "event"
    },
    {
      "anonymous": false,
      "inputs": [
        {
          "indexed": false,
          "internalType": "address",
          "name": "l2Token",
          "type": "address"
        },
        {
          "indexed": false,
          "internalType": "address",
          "name": "newAdmin",
          "type": "address"
        }
      ],
      "name": "SetVaultAdmin",
      "type": "event"
    },
    {
      "inputs": [],
      "name": "ADMIN_ROLE",
      "outputs": [
        {
          "internalType": "bytes32",
          "name": "",
          "type": "bytes32"
        }
      ],
      "stateMutability": "view",
      "type": "function"
    },
    {
      "inputs": [],
      "name": "DEFAULT_ADMIN_ROLE",
      "outputs": [
        {
          "internalType": "bytes32",
          "name": "",
          "type": "bytes32"
        }
      ],
      "stateMutability": "view",
      "type": "function"
    },
    {
      "inputs": [],
      "name": "POLICY_ROLE",
      "outputs": [
        {
          "internalType": "bytes32",
          "name": "",
          "type": "bytes32"
        }
      ],
      "stateMutability": "view",
      "type": "function"
    },
    {
      "inputs": [
        {
          "internalType": "address",
          "name": "account",
          "type": "address"
        }
      ],
      "name": "addAdmin",
      "outputs": [],
      "stateMutability": "nonpayable",
      "type": "function"
    },
    {
      "inputs": [
        {
          "internalType": "address",
          "name": "",
          "type": "address"
        }
      ],
      "name": "aliveImplementation",
      "outputs": [
        {
          "internalType": "bool",
          "name": "",
          "type": "bool"
        }
      ],
      "stateMutability": "view",
      "type": "function"
    },
    {
      "inputs": [
        {
          "internalType": "address",
          "name": "l2Token",
          "type": "address"
        },
        {
          "internalType": "uint256",
          "name": "amount",
          "type": "uint256"
        }
      ],
      "name": "claim",
      "outputs": [],
      "stateMutability": "nonpayable",
      "type": "function"
    },
    {
      "inputs": [
        {
          "internalType": "bytes32",
          "name": "role",
          "type": "bytes32"
        }
      ],
      "name": "getRoleAdmin",
      "outputs": [
        {
          "internalType": "bytes32",
          "name": "",
          "type": "bytes32"
        }
      ],
      "stateMutability": "view",
      "type": "function"
    },
    {
      "inputs": [
        {
          "internalType": "bytes32",
          "name": "role",
          "type": "bytes32"
        },
        {
          "internalType": "address",
          "name": "account",
          "type": "address"
        }
      ],
      "name": "grantRole",
      "outputs": [],
      "stateMutability": "nonpayable",
      "type": "function"
    },
    {
      "inputs": [
        {
          "internalType": "bytes32",
          "name": "role",
          "type": "bytes32"
        },
        {
          "internalType": "address",
          "name": "account",
          "type": "address"
        }
      ],
      "name": "hasRole",
      "outputs": [
        {
          "internalType": "bool",
          "name": "",
          "type": "bool"
        }
      ],
      "stateMutability": "view",
      "type": "function"
    },
    {
      "inputs": [],
      "name": "initializer",
      "outputs": [
        {
          "internalType": "address",
          "name": "",
          "type": "address"
        }
      ],
      "stateMutability": "view",
      "type": "function"
    },
    {
      "inputs": [
        {
          "internalType": "address",
          "name": "account",
          "type": "address"
        }
      ],
      "name": "isAdmin",
      "outputs": [
        {
          "internalType": "bool",
          "name": "",
          "type": "bool"
        }
      ],
      "stateMutability": "view",
      "type": "function"
    },
    {
      "inputs": [
        {
          "internalType": "address",
          "name": "l2Token",
          "type": "address"
        },
        {
          "internalType": "address",
          "name": "account",
          "type": "address"
        }
      ],
      "name": "isVaultAdmin",
      "outputs": [
        {
          "internalType": "bool",
          "name": "",
          "type": "bool"
        }
      ],
      "stateMutability": "view",
      "type": "function"
    },
    {
      "inputs": [],
      "name": "l2ProjectManager",
      "outputs": [
        {
          "internalType": "address",
          "name": "",
          "type": "address"
        }
      ],
      "stateMutability": "view",
      "type": "function"
    },
    {
      "inputs": [],
      "name": "pauseProxy",
      "outputs": [
        {
          "internalType": "bool",
          "name": "",
          "type": "bool"
        }
      ],
      "stateMutability": "view",
      "type": "function"
    },
    {
      "inputs": [
        {
          "internalType": "uint256",
          "name": "",
          "type": "uint256"
        }
      ],
      "name": "proxyImplementation",
      "outputs": [
        {
          "internalType": "address",
          "name": "",
          "type": "address"
        }
      ],
      "stateMutability": "view",
      "type": "function"
    },
    {
      "inputs": [
        {
          "internalType": "address",
          "name": "account",
          "type": "address"
        }
      ],
      "name": "removeAdmin",
      "outputs": [],
      "stateMutability": "nonpayable",
      "type": "function"
    },
    {
      "inputs": [
        {
          "internalType": "bytes32",
          "name": "role",
          "type": "bytes32"
        },
        {
          "internalType": "address",
          "name": "account",
          "type": "address"
        }
      ],
      "name": "renounceRole",
      "outputs": [],
      "stateMutability": "nonpayable",
      "type": "function"
    },
    {
      "inputs": [
        {
          "internalType": "bytes32",
          "name": "role",
          "type": "bytes32"
        },
        {
          "internalType": "address",
          "name": "account",
          "type": "address"
        }
      ],
      "name": "revokeRole",
      "outputs": [],
      "stateMutability": "nonpayable",
      "type": "function"
    },
    {
      "inputs": [
        {
          "internalType": "bytes4",
          "name": "",
          "type": "bytes4"
        }
      ],
      "name": "selectorImplementation",
      "outputs": [
        {
          "internalType": "address",
          "name": "",
          "type": "address"
        }
      ],
      "stateMutability": "view",
      "type": "function"
    },
    {
      "inputs": [
        {
          "internalType": "address",
          "name": "_initializer",
          "type": "address"
        }
      ],
      "name": "setInitializer",
      "outputs": [],
      "stateMutability": "nonpayable",
      "type": "function"
    },
    {
      "inputs": [
        {
          "internalType": "address",
          "name": "_l2ProjectManager",
          "type": "address"
        }
      ],
      "name": "setL2ProjectManager",
      "outputs": [],
      "stateMutability": "nonpayable",
      "type": "function"
    },
    {
      "inputs": [
        {
          "internalType": "address",
          "name": "l2Token",
          "type": "address"
        },
        {
          "internalType": "address",
          "name": "_newAdmin",
          "type": "address"
        }
      ],
      "name": "setVaultAdmin",
      "outputs": [],
      "stateMutability": "nonpayable",
      "type": "function"
    },
    {
      "inputs": [
        {
          "internalType": "bytes4",
          "name": "interfaceId",
          "type": "bytes4"
        }
      ],
      "name": "supportsInterface",
      "outputs": [
        {
          "internalType": "bool",
          "name": "",
          "type": "bool"
        }
      ],
      "stateMutability": "view",
      "type": "function"
    },
    {
      "inputs": [
        {
          "internalType": "address",
          "name": "newAdmin",
          "type": "address"
        }
      ],
      "name": "transferAdmin",
      "outputs": [],
      "stateMutability": "nonpayable",
      "type": "function"
    },
    {
      "inputs": [
        {
          "internalType": "address",
          "name": "",
          "type": "address"
        }
      ],
      "name": "vaultAdminOfToken",
      "outputs": [
        {
          "internalType": "address",
          "name": "",
          "type": "address"
        }
      ],
      "stateMutability": "view",
      "type": "function"
    }
  ],
  "bytecode": "0x60806040526005805460ff1916600117905534801561001d57600080fd5b506116068061002d6000396000f3fe608060405234801561001057600080fd5b50600436106101a35760003560e01c80635c24b074116100ee57806391d1485411610097578063a418234311610071578063a418234314610402578063aad3ec9614610415578063b911135f14610428578063d547741f1461045157600080fd5b806391d14854146103ae5780639ce110d7146103e7578063a217fddf146103fa57600080fd5b806375829def116100c857806375829def1461034b57806375b238fc1461035e5780637fc46ba81461038557600080fd5b80635c24b0741461031857806363a8fd891461032b578063704802751461033857600080fd5b806335b9ac661161015057806351e8152a1161012a57806351e8152a146102ca57806352351e85146102dd578063550d01a3146102f557600080fd5b806335b9ac661461026357806336568abe1461027657806350d2a2761461028957600080fd5b8063248a9ca311610181578063248a9ca31461021a57806324d7806c1461023d5780632f2ff15d1461025057600080fd5b806301ffc9a7146101a85780631785f53c146101d057806322985246146101e5575b600080fd5b6101bb6101b636600461134d565b610464565b60405190151581526020015b60405180910390f35b6101e36101de366004611393565b61049b565b005b61020c7ffb5864e8ff833c3cb2d2d08505e82ff02a43554c74a35d4f5a64e8526127831181565b6040519081526020016101c7565b61020c6102283660046113ae565b60009081526004602052604090206001015490565b6101bb61024b366004611393565b61052d565b6101e361025e3660046113c7565b61056d565b6101e36102713660046113f3565b610597565b6101e36102843660046113c7565b610758565b6102b261029736600461134d565b6003602052600090815260409020546001600160a01b031681565b6040516001600160a01b0390911681526020016101c7565b6101bb6102d83660046113f3565b6107e4565b6005546102b29061010090046001600160a01b031681565b6101bb610303366004611393565b60026020526000908152604090205460ff1681565b6101e3610326366004611393565b610821565b6000546101bb9060ff1681565b6101e3610346366004611393565b610965565b6101e3610359366004611393565b6109ef565b61020c7fdf8b4c520ffe197c5343c6f5aec59570151ef9a492f2c624fd45ddde6135ec4281565b6102b2610393366004611393565b6007602052600090815260409020546001600160a01b031681565b6101bb6103bc3660046113c7565b60009182526004602090815260408084206001600160a01b0393909316845291905290205460ff1690565b6006546102b2906001600160a01b031681565b61020c600081565b6101e3610410366004611393565b610b51565b6101e361042336600461141d565b610c6e565b6102b26104363660046113ae565b6001602052600090815260409020546001600160a01b031681565b6101e361045f3660046113c7565b610e99565b60006001600160e01b03198216637965db0b60e01b148061049557506301ffc9a760e01b6001600160e01b03198316145b92915050565b6104a43361052d565b6105005760405162461bcd60e51b815260206004820152602260248201527f41636365737369626c653a2043616c6c6572206973206e6f7420616e2061646d60448201526134b760f11b60648201526084015b60405180910390fd5b61052a7fdf8b4c520ffe197c5343c6f5aec59570151ef9a492f2c624fd45ddde6135ec4282610758565b50565b6001600160a01b03811660009081527f2fb794d17134dfdec181ddbac1babb5ab1eb140204ef4d982f294e7fc8b69022602052604081205460ff16610495565b60008281526004602052604090206001015461058881610ebe565b6105928383610ec8565b505050565b816001600160a01b0381166105d35760405162461bcd60e51b81526020600482015260026024820152612d1960f11b60448201526064016104f7565b816001600160a01b03811661060f5760405162461bcd60e51b81526020600482015260026024820152612d1960f11b60448201526064016104f7565b60055461010090046001600160a01b03161580159061063d575060055461010090046001600160a01b031633145b6106895760405162461bcd60e51b815260206004820152601e60248201527f63616c6c6572206973206e6f74206c3250726f6a6563744d616e61676572000060448201526064016104f7565b6001600160a01b038481166000908152600760205260409020548185169116036106de5760405162461bcd60e51b81526004016104f79060208082526004908201526373616d6560e01b604082015260600190565b6001600160a01b03848116600081815260076020908152604091829020805473ffffffffffffffffffffffffffffffffffffffff1916948816948517905581519283528201929092527fb00bb4c229aff6156cc8e2c767c571665e1927c09fe083ec055956a5a4026193910160405180910390a150505050565b6001600160a01b03811633146107d65760405162461bcd60e51b815260206004820152602f60248201527f416363657373436f6e74726f6c3a2063616e206f6e6c792072656e6f756e636560448201527f20726f6c657320666f722073656c66000000000000000000000000000000000060648201526084016104f7565b6107e08282610f6a565b5050565b60006001600160a01b0382161580159061081a57506001600160a01b038381166000908152600760205260409020548116908316145b9392505050565b806001600160a01b03811661085d5760405162461bcd60e51b81526020600482015260026024820152612d1960f11b60448201526064016104f7565b6108663361052d565b6108bd5760405162461bcd60e51b815260206004820152602260248201527f41636365737369626c653a2043616c6c6572206973206e6f7420616e2061646d60448201526134b760f11b60648201526084016104f7565b6006546001600160a01b038084169116036109035760405162461bcd60e51b81526004016104f79060208082526004908201526373616d6560e01b604082015260600190565b6006805473ffffffffffffffffffffffffffffffffffffffff19166001600160a01b0384169081179091556040519081527f2a2bf2572e82958ab47f7049e07d49aab236a5f6d26b804b1ce51da119c6d9d09060200160405180910390a15050565b61096e3361052d565b6109c55760405162461bcd60e51b815260206004820152602260248201527f41636365737369626c653a2043616c6c6572206973206e6f7420616e2061646d60448201526134b760f11b60648201526084016104f7565b61052a7fdf8b4c520ffe197c5343c6f5aec59570151ef9a492f2c624fd45ddde6135ec428261056d565b6109f83361052d565b610a4f5760405162461bcd60e51b815260206004820152602260248201527f41636365737369626c653a2043616c6c6572206973206e6f7420616e2061646d60448201526134b760f11b60648201526084016104f7565b6001600160a01b038116610aa55760405162461bcd60e51b815260206004820152601860248201527f41636365737369626c653a207a65726f2061646472657373000000000000000060448201526064016104f7565b6001600160a01b0381163303610afd5760405162461bcd60e51b815260206004820152601660248201527f41636365737369626c653a2073616d652061646d696e0000000000000000000060448201526064016104f7565b610b277fdf8b4c520ffe197c5343c6f5aec59570151ef9a492f2c624fd45ddde6135ec428261056d565b61052a7fdf8b4c520ffe197c5343c6f5aec59570151ef9a492f2c624fd45ddde6135ec4233610758565b806001600160a01b038116610b8d5760405162461bcd60e51b81526020600482015260026024820152612d1960f11b60448201526064016104f7565b610b963361052d565b610bed5760405162461bcd60e51b815260206004820152602260248201527f41636365737369626c653a2043616c6c6572206973206e6f7420616e2061646d60448201526134b760f11b60648201526084016104f7565b6005546001600160a01b038084166101009092041603610c385760405162461bcd60e51b81526004016104f79060208082526004908201526373616d6560e01b604082015260600190565b50600580546001600160a01b039092166101000274ffffffffffffffffffffffffffffffffffffffff0019909216919091179055565b6001600160a01b0380831660009081526007602052604090205483911615801590610cb257506001600160a01b038181166000908152600760205260409020541633145b610d0c5760405162461bcd60e51b815260206004820152602560248201527f63616c6c6572206973206e6f742061207661756c7441646d696e204f66206c326044820152642a37b5b2b760d91b60648201526084016104f7565b826001600160a01b038116610d485760405162461bcd60e51b81526020600482015260026024820152612d1960f11b60448201526064016104f7565b8280600003610d7e5760405162461bcd60e51b81526020600482015260026024820152615a3160f01b60448201526064016104f7565b6040516370a0823160e01b81523060048201526001600160a01b038616906370a0823190602401602060405180830381865afa158015610dc2573d6000803e3d6000fd5b505050506040513d601f19601f82011682018060405250810190610de69190611447565b841115610e355760405162461bcd60e51b815260206004820152601860248201527f62616c616e636520697320696e73756666696369656e742e000000000000000060448201526064016104f7565b610e496001600160a01b0386163386610fed565b604080516001600160a01b03871681523360208201529081018590527ff7a40077ff7a04c7e61f6f26fb13774259ddf1b6bce9ecf26a8276cdd39926839060600160405180910390a15050505050565b600082815260046020526040902060010154610eb481610ebe565b6105928383610f6a565b61052a813361111d565b60008281526004602090815260408083206001600160a01b038516845290915290205460ff166107e05760008281526004602090815260408083206001600160a01b03851684529091529020805460ff19166001179055610f263390565b6001600160a01b0316816001600160a01b0316837f2f8788117e7eff1d82e926ec794901d17c78024a50270940304540a733656f0d60405160405180910390a45050565b60008281526004602090815260408083206001600160a01b038516845290915290205460ff16156107e05760008281526004602090815260408083206001600160a01b0385168085529252808320805460ff1916905551339285917ff6391f5c32d9c69d2a47ea670b442974b53935d1edc7fd64eb21e047a839171b9190a45050565b604080516001600160a01b038481166024830152604480830185905283518084039091018152606490920183526020820180517bffffffffffffffffffffffffffffffffffffffffffffffffffffffff1663a9059cbb60e01b179052915160009283929087169161105e9190611484565b6000604051808303816000865af19150503d806000811461109b576040519150601f19603f3d011682016040523d82523d6000602084013e6110a0565b606091505b50915091508180156110ca5750805115806110ca5750808060200190518101906110ca91906114a0565b6111165760405162461bcd60e51b815260206004820152600f60248201527f5452414e534645525f4641494c4544000000000000000000000000000000000060448201526064016104f7565b5050505050565b60008281526004602090815260408083206001600160a01b038516845290915290205460ff166107e05761115081611192565b61115b8360206111a4565b60405160200161116c9291906114c2565b60408051601f198184030181529082905262461bcd60e51b82526104f791600401611543565b60606104956001600160a01b03831660145b606060006111b383600261158c565b6111be9060026115a3565b67ffffffffffffffff8111156111d6576111d66115b6565b6040519080825280601f01601f191660200182016040528015611200576020820181803683370190505b509050600360fc1b8160008151811061121b5761121b6115cc565b60200101906001600160f81b031916908160001a905350600f60fb1b8160018151811061124a5761124a6115cc565b60200101906001600160f81b031916908160001a905350600061126e84600261158c565b6112799060016115a3565b90505b60018111156112fe577f303132333435363738396162636465660000000000000000000000000000000085600f16601081106112ba576112ba6115cc565b1a60f81b8282815181106112d0576112d06115cc565b60200101906001600160f81b031916908160001a90535060049490941c936112f7816115e2565b905061127c565b50831561081a5760405162461bcd60e51b815260206004820181905260248201527f537472696e67733a20686578206c656e67746820696e73756666696369656e7460448201526064016104f7565b60006020828403121561135f57600080fd5b81356001600160e01b03198116811461081a57600080fd5b80356001600160a01b038116811461138e57600080fd5b919050565b6000602082840312156113a557600080fd5b61081a82611377565b6000602082840312156113c057600080fd5b5035919050565b600080604083850312156113da57600080fd5b823591506113ea60208401611377565b90509250929050565b6000806040838503121561140657600080fd5b61140f83611377565b91506113ea60208401611377565b6000806040838503121561143057600080fd5b61143983611377565b946020939093013593505050565b60006020828403121561145957600080fd5b5051919050565b60005b8381101561147b578181015183820152602001611463565b50506000910152565b60008251611496818460208701611460565b9190910192915050565b6000602082840312156114b257600080fd5b8151801515811461081a57600080fd5b7f416363657373436f6e74726f6c3a206163636f756e74200000000000000000008152600083516114fa816017850160208801611460565b7f206973206d697373696e6720726f6c65200000000000000000000000000000006017918401918201528351611537816028840160208801611460565b01602801949350505050565b6020815260008251806020840152611562816040850160208701611460565b601f01601f19169190910160400192915050565b634e487b7160e01b600052601160045260246000fd5b808202811582820484141761049557610495611576565b8082018082111561049557610495611576565b634e487b7160e01b600052604160045260246000fd5b634e487b7160e01b600052603260045260246000fd5b6000816115f1576115f1611576565b50600019019056fea164736f6c6343000812000a",
  "linkReferences": {},
  "deployedLinkReferences": {}
}