{
  "_format": "hh-sol-artifact-1",
  "contractName": "L2NonScheduleVaultA",
  "sourceName": "contracts/L2/vaults/L2NonScheduleVaultA.sol",
  "abi": [
    {
      "anonymous": false,
      "inputs": [
        {
          "indexed": false,
          "internalType": "address",
          "name": "l2Token",
          "type": "address"
        },
        {
          "indexed": false,
          "internalType": "address",
          "name": "newAdmin",
          "type": "address"
        },
        {
          "indexed": false,
          "internalType": "uint256",
          "name": "amount",
          "type": "uint256"
        }
      ],
      "name": "AllocatedTokenAndAdminInVault",
      "type": "event"
    },
    {
      "anonymous": false,
      "inputs": [
        {
          "indexed": false,
          "internalType": "address",
          "name": "l2Token",
          "type": "address"
        },
        {
          "indexed": false,
          "internalType": "address",
          "name": "to",
          "type": "address"
        },
        {
          "indexed": false,
          "internalType": "uint256",
          "name": "amount",
          "type": "uint256"
        }
      ],
      "name": "Claimed",
      "type": "event"
    },
    {
      "anonymous": false,
      "inputs": [
        {
          "indexed": true,
          "internalType": "bytes32",
          "name": "role",
          "type": "bytes32"
        },
        {
          "indexed": true,
          "internalType": "bytes32",
          "name": "previousAdminRole",
          "type": "bytes32"
        },
        {
          "indexed": true,
          "internalType": "bytes32",
          "name": "newAdminRole",
          "type": "bytes32"
        }
      ],
      "name": "RoleAdminChanged",
      "type": "event"
    },
    {
      "anonymous": false,
      "inputs": [
        {
          "indexed": true,
          "internalType": "bytes32",
          "name": "role",
          "type": "bytes32"
        },
        {
          "indexed": true,
          "internalType": "address",
          "name": "account",
          "type": "address"
        },
        {
          "indexed": true,
          "internalType": "address",
          "name": "sender",
          "type": "address"
        }
      ],
      "name": "RoleGranted",
      "type": "event"
    },
    {
      "anonymous": false,
      "inputs": [
        {
          "indexed": true,
          "internalType": "bytes32",
          "name": "role",
          "type": "bytes32"
        },
        {
          "indexed": true,
          "internalType": "address",
          "name": "account",
          "type": "address"
        },
        {
          "indexed": true,
          "internalType": "address",
          "name": "sender",
          "type": "address"
        }
      ],
      "name": "RoleRevoked",
      "type": "event"
    },
    {
      "anonymous": false,
      "inputs": [
        {
          "indexed": false,
          "internalType": "address",
          "name": "newInitializer",
          "type": "address"
        }
      ],
      "name": "SetInitializer",
      "type": "event"
    },
    {
      "anonymous": false,
      "inputs": [
        {
          "indexed": false,
          "internalType": "address",
          "name": "l2Token",
          "type": "address"
        },
        {
          "indexed": false,
          "internalType": "address",
          "name": "newAdmin",
          "type": "address"
        }
      ],
      "name": "SetVaultAdmin",
      "type": "event"
    },
    {
      "inputs": [],
      "name": "ADMIN_ROLE",
      "outputs": [
        {
          "internalType": "bytes32",
          "name": "",
          "type": "bytes32"
        }
      ],
      "stateMutability": "view",
      "type": "function"
    },
    {
      "inputs": [],
      "name": "DEFAULT_ADMIN_ROLE",
      "outputs": [
        {
          "internalType": "bytes32",
          "name": "",
          "type": "bytes32"
        }
      ],
      "stateMutability": "view",
      "type": "function"
    },
    {
      "inputs": [],
      "name": "POLICY_ROLE",
      "outputs": [
        {
          "internalType": "bytes32",
          "name": "",
          "type": "bytes32"
        }
      ],
      "stateMutability": "view",
      "type": "function"
    },
    {
      "inputs": [
        {
          "internalType": "address",
          "name": "account",
          "type": "address"
        }
      ],
      "name": "addAdmin",
      "outputs": [],
      "stateMutability": "nonpayable",
      "type": "function"
    },
    {
      "inputs": [
        {
          "internalType": "address",
          "name": "",
          "type": "address"
        }
      ],
      "name": "aliveImplementation",
      "outputs": [
        {
          "internalType": "bool",
          "name": "",
          "type": "bool"
        }
      ],
      "stateMutability": "view",
      "type": "function"
    },
    {
      "inputs": [
        {
          "internalType": "address",
          "name": "l2Token",
          "type": "address"
        },
        {
          "internalType": "address",
          "name": "_newAdmin",
          "type": "address"
        },
        {
          "internalType": "uint256",
          "name": "amount",
          "type": "uint256"
        }
      ],
      "name": "allocateTokenAndAdmin",
      "outputs": [],
      "stateMutability": "nonpayable",
      "type": "function"
    },
    {
      "inputs": [
        {
          "internalType": "address",
          "name": "l2Token",
          "type": "address"
        },
        {
          "internalType": "uint256",
          "name": "amount",
          "type": "uint256"
        }
      ],
      "name": "claim",
      "outputs": [],
      "stateMutability": "nonpayable",
      "type": "function"
    },
    {
      "inputs": [
        {
          "internalType": "bytes32",
          "name": "role",
          "type": "bytes32"
        }
      ],
      "name": "getRoleAdmin",
      "outputs": [
        {
          "internalType": "bytes32",
          "name": "",
          "type": "bytes32"
        }
      ],
      "stateMutability": "view",
      "type": "function"
    },
    {
      "inputs": [
        {
          "internalType": "bytes32",
          "name": "role",
          "type": "bytes32"
        },
        {
          "internalType": "address",
          "name": "account",
          "type": "address"
        }
      ],
      "name": "grantRole",
      "outputs": [],
      "stateMutability": "nonpayable",
      "type": "function"
    },
    {
      "inputs": [
        {
          "internalType": "bytes32",
          "name": "role",
          "type": "bytes32"
        },
        {
          "internalType": "address",
          "name": "account",
          "type": "address"
        }
      ],
      "name": "hasRole",
      "outputs": [
        {
          "internalType": "bool",
          "name": "",
          "type": "bool"
        }
      ],
      "stateMutability": "view",
      "type": "function"
    },
    {
      "inputs": [],
      "name": "initializer",
      "outputs": [
        {
          "internalType": "address",
          "name": "",
          "type": "address"
        }
      ],
      "stateMutability": "view",
      "type": "function"
    },
    {
      "inputs": [
        {
          "internalType": "address",
          "name": "account",
          "type": "address"
        }
      ],
      "name": "isAdmin",
      "outputs": [
        {
          "internalType": "bool",
          "name": "",
          "type": "bool"
        }
      ],
      "stateMutability": "view",
      "type": "function"
    },
    {
      "inputs": [
        {
          "internalType": "address",
          "name": "l2Token",
          "type": "address"
        },
        {
          "internalType": "address",
          "name": "account",
          "type": "address"
        }
      ],
      "name": "isVaultAdmin",
      "outputs": [
        {
          "internalType": "bool",
          "name": "",
          "type": "bool"
        }
      ],
      "stateMutability": "view",
      "type": "function"
    },
    {
      "inputs": [],
      "name": "l2ProjectManager",
      "outputs": [
        {
          "internalType": "address",
          "name": "",
          "type": "address"
        }
      ],
      "stateMutability": "view",
      "type": "function"
    },
    {
      "inputs": [],
      "name": "pauseProxy",
      "outputs": [
        {
          "internalType": "bool",
          "name": "",
          "type": "bool"
        }
      ],
      "stateMutability": "view",
      "type": "function"
    },
    {
      "inputs": [
        {
          "internalType": "uint256",
          "name": "",
          "type": "uint256"
        }
      ],
      "name": "proxyImplementation",
      "outputs": [
        {
          "internalType": "address",
          "name": "",
          "type": "address"
        }
      ],
      "stateMutability": "view",
      "type": "function"
    },
    {
      "inputs": [
        {
          "internalType": "address",
          "name": "account",
          "type": "address"
        }
      ],
      "name": "removeAdmin",
      "outputs": [],
      "stateMutability": "nonpayable",
      "type": "function"
    },
    {
      "inputs": [
        {
          "internalType": "bytes32",
          "name": "role",
          "type": "bytes32"
        },
        {
          "internalType": "address",
          "name": "account",
          "type": "address"
        }
      ],
      "name": "renounceRole",
      "outputs": [],
      "stateMutability": "nonpayable",
      "type": "function"
    },
    {
      "inputs": [
        {
          "internalType": "bytes32",
          "name": "role",
          "type": "bytes32"
        },
        {
          "internalType": "address",
          "name": "account",
          "type": "address"
        }
      ],
      "name": "revokeRole",
      "outputs": [],
      "stateMutability": "nonpayable",
      "type": "function"
    },
    {
      "inputs": [
        {
          "internalType": "bytes4",
          "name": "",
          "type": "bytes4"
        }
      ],
      "name": "selectorImplementation",
      "outputs": [
        {
          "internalType": "address",
          "name": "",
          "type": "address"
        }
      ],
      "stateMutability": "view",
      "type": "function"
    },
    {
      "inputs": [
        {
          "internalType": "address",
          "name": "_initializer",
          "type": "address"
        }
      ],
      "name": "setInitializer",
      "outputs": [],
      "stateMutability": "nonpayable",
      "type": "function"
    },
    {
      "inputs": [
        {
          "internalType": "address",
          "name": "_l2ProjectManager",
          "type": "address"
        }
      ],
      "name": "setL2ProjectManager",
      "outputs": [],
      "stateMutability": "nonpayable",
      "type": "function"
    },
    {
      "inputs": [
        {
          "internalType": "address",
          "name": "l2Token",
          "type": "address"
        },
        {
          "internalType": "address",
          "name": "_newAdmin",
          "type": "address"
        }
      ],
      "name": "setVaultAdmin",
      "outputs": [],
      "stateMutability": "nonpayable",
      "type": "function"
    },
    {
      "inputs": [
        {
          "internalType": "bytes4",
          "name": "interfaceId",
          "type": "bytes4"
        }
      ],
      "name": "supportsInterface",
      "outputs": [
        {
          "internalType": "bool",
          "name": "",
          "type": "bool"
        }
      ],
      "stateMutability": "view",
      "type": "function"
    },
    {
      "inputs": [
        {
          "internalType": "address",
          "name": "newAdmin",
          "type": "address"
        }
      ],
      "name": "transferAdmin",
      "outputs": [],
      "stateMutability": "nonpayable",
      "type": "function"
    },
    {
      "inputs": [
        {
          "internalType": "address",
          "name": "",
          "type": "address"
        }
      ],
      "name": "vaultAdminOfToken",
      "outputs": [
        {
          "internalType": "address",
          "name": "",
          "type": "address"
        }
      ],
      "stateMutability": "view",
      "type": "function"
    }
  ],
  "bytecode": "0x60806040526005805460ff1916600117905534801561001d57600080fd5b50611a2b8061002d6000396000f3fe608060405234801561001057600080fd5b50600436106101ae5760003560e01c806363a8fd89116100ee57806391d1485411610097578063a418234311610071578063a418234314610420578063aad3ec9614610433578063b911135f14610446578063d547741f1461046f57600080fd5b806391d14854146103cc5780639ce110d714610405578063a217fddf1461041857600080fd5b806375b238fc116100c857806375b238fc146103695780637fc46ba8146103905780638d35b35c146103b957600080fd5b806363a8fd8914610336578063704802751461034357806375829def1461035657600080fd5b806335b9ac661161015b57806351e8152a1161013557806351e8152a146102d557806352351e85146102e8578063550d01a3146103005780635c24b0741461032357600080fd5b806335b9ac661461026e57806336568abe1461028157806350d2a2761461029457600080fd5b8063248a9ca31161018c578063248a9ca31461022557806324d7806c146102485780632f2ff15d1461025b57600080fd5b806301ffc9a7146101b35780631785f53c146101db57806322985246146101f0575b600080fd5b6101c66101c1366004611736565b610482565b60405190151581526020015b60405180910390f35b6101ee6101e936600461177c565b6104b9565b005b6102177ffb5864e8ff833c3cb2d2d08505e82ff02a43554c74a35d4f5a64e8526127831181565b6040519081526020016101d2565b610217610233366004611797565b60009081526004602052604090206001015490565b6101c661025636600461177c565b61054b565b6101ee6102693660046117b0565b61058b565b6101ee61027c3660046117dc565b6105b5565b6101ee61028f3660046117b0565b610769565b6102bd6102a2366004611736565b6003602052600090815260409020546001600160a01b031681565b6040516001600160a01b0390911681526020016101d2565b6101c66102e33660046117dc565b6107f5565b6005546102bd9061010090046001600160a01b031681565b6101c661030e36600461177c565b60026020526000908152604090205460ff1681565b6101ee61033136600461177c565b610832565b6000546101c69060ff1681565b6101ee61035136600461177c565b610969565b6101ee61036436600461177c565b6109f3565b6102177fdf8b4c520ffe197c5343c6f5aec59570151ef9a492f2c624fd45ddde6135ec4281565b6102bd61039e36600461177c565b6007602052600090815260409020546001600160a01b031681565b6101ee6103c7366004611806565b610b55565b6101c66103da3660046117b0565b60009182526004602090815260408084206001600160a01b0393909316845291905290205460ff1690565b6006546102bd906001600160a01b031681565b610217600081565b6101ee61042e36600461177c565b610e2b565b6101ee610441366004611842565b610f48565b6102bd610454366004611797565b6001602052600090815260409020546001600160a01b031681565b6101ee61047d3660046117b0565b611173565b60006001600160e01b03198216637965db0b60e01b14806104b357506301ffc9a760e01b6001600160e01b03198316145b92915050565b6104c23361054b565b61051e5760405162461bcd60e51b815260206004820152602260248201527f41636365737369626c653a2043616c6c6572206973206e6f7420616e2061646d60448201526134b760f11b60648201526084015b60405180910390fd5b6105487fdf8b4c520ffe197c5343c6f5aec59570151ef9a492f2c624fd45ddde6135ec4282610769565b50565b6001600160a01b03811660009081527f2fb794d17134dfdec181ddbac1babb5ab1eb140204ef4d982f294e7fc8b69022602052604081205460ff166104b3565b6000828152600460205260409020600101546105a681611198565b6105b083836111a2565b505050565b816001600160a01b0381166105f15760405162461bcd60e51b81526020600482015260026024820152612d1960f11b6044820152606401610515565b816001600160a01b03811661062d5760405162461bcd60e51b81526020600482015260026024820152612d1960f11b6044820152606401610515565b60055461010090046001600160a01b03161580159061065b575060055461010090046001600160a01b031633145b6106a75760405162461bcd60e51b815260206004820152601e60248201527f63616c6c6572206973206e6f74206c3250726f6a6563744d616e6167657200006044820152606401610515565b6001600160a01b038481166000908152600760205260409020548185169116036106fc5760405162461bcd60e51b81526004016105159060208082526004908201526373616d6560e01b604082015260600190565b6001600160a01b0384811660008181526007602090815260409182902080546001600160a01b031916948816948517905581519283528201929092527fb00bb4c229aff6156cc8e2c767c571665e1927c09fe083ec055956a5a4026193910160405180910390a150505050565b6001600160a01b03811633146107e75760405162461bcd60e51b815260206004820152602f60248201527f416363657373436f6e74726f6c3a2063616e206f6e6c792072656e6f756e636560448201527f20726f6c657320666f722073656c6600000000000000000000000000000000006064820152608401610515565b6107f18282611244565b5050565b60006001600160a01b0382161580159061082b57506001600160a01b038381166000908152600760205260409020548116908316145b9392505050565b806001600160a01b03811661086e5760405162461bcd60e51b81526020600482015260026024820152612d1960f11b6044820152606401610515565b6108773361054b565b6108ce5760405162461bcd60e51b815260206004820152602260248201527f41636365737369626c653a2043616c6c6572206973206e6f7420616e2061646d60448201526134b760f11b6064820152608401610515565b6006546001600160a01b038084169116036109145760405162461bcd60e51b81526004016105159060208082526004908201526373616d6560e01b604082015260600190565b600680546001600160a01b0319166001600160a01b0384169081179091556040519081527f2a2bf2572e82958ab47f7049e07d49aab236a5f6d26b804b1ce51da119c6d9d09060200160405180910390a15050565b6109723361054b565b6109c95760405162461bcd60e51b815260206004820152602260248201527f41636365737369626c653a2043616c6c6572206973206e6f7420616e2061646d60448201526134b760f11b6064820152608401610515565b6105487fdf8b4c520ffe197c5343c6f5aec59570151ef9a492f2c624fd45ddde6135ec428261058b565b6109fc3361054b565b610a535760405162461bcd60e51b815260206004820152602260248201527f41636365737369626c653a2043616c6c6572206973206e6f7420616e2061646d60448201526134b760f11b6064820152608401610515565b6001600160a01b038116610aa95760405162461bcd60e51b815260206004820152601860248201527f41636365737369626c653a207a65726f206164647265737300000000000000006044820152606401610515565b6001600160a01b0381163303610b015760405162461bcd60e51b815260206004820152601660248201527f41636365737369626c653a2073616d652061646d696e000000000000000000006044820152606401610515565b610b2b7fdf8b4c520ffe197c5343c6f5aec59570151ef9a492f2c624fd45ddde6135ec428261058b565b6105487fdf8b4c520ffe197c5343c6f5aec59570151ef9a492f2c624fd45ddde6135ec4233610769565b60055461010090046001600160a01b031615801590610b83575060055461010090046001600160a01b031633145b610bcf5760405162461bcd60e51b815260206004820152601e60248201527f63616c6c6572206973206e6f74206c3250726f6a6563744d616e6167657200006044820152606401610515565b826001600160a01b038116610c0b5760405162461bcd60e51b81526020600482015260026024820152612d1960f11b6044820152606401610515565b826001600160a01b038116610c475760405162461bcd60e51b81526020600482015260026024820152612d1960f11b6044820152606401610515565b8280600003610c7d5760405162461bcd60e51b81526020600482015260026024820152615a3160f01b6044820152606401610515565b6001600160a01b03868116600090815260076020526040902054818716911603610cd65760405162461bcd60e51b815260206004820152600a60248201526939b0b6b29030b236b4b760b11b6044820152606401610515565b6005546040516370a0823160e01b81526101009091046001600160a01b0390811660048301528716906370a0823190602401602060405180830381865afa158015610d25573d6000803e3d6000fd5b505050506040513d601f19601f82011682018060405250810190610d49919061186c565b841115610d985760405162461bcd60e51b815260206004820152601860248201527f62616c616e636520697320696e73756666696369656e742e00000000000000006044820152606401610515565b6001600160a01b03868116600081815260076020526040902080546001600160a01b031916888416179055600554610dd8926101009091041630876112c7565b604080516001600160a01b038089168252871660208201529081018590527fe1c1818f614984fce9c731fd04034b7c1b22bcc9f2469662dabb9657cb1ec8cf9060600160405180910390a1505050505050565b806001600160a01b038116610e675760405162461bcd60e51b81526020600482015260026024820152612d1960f11b6044820152606401610515565b610e703361054b565b610ec75760405162461bcd60e51b815260206004820152602260248201527f41636365737369626c653a2043616c6c6572206973206e6f7420616e2061646d60448201526134b760f11b6064820152608401610515565b6005546001600160a01b038084166101009092041603610f125760405162461bcd60e51b81526004016105159060208082526004908201526373616d6560e01b604082015260600190565b50600580546001600160a01b039092166101000274ffffffffffffffffffffffffffffffffffffffff0019909216919091179055565b6001600160a01b0380831660009081526007602052604090205483911615801590610f8c57506001600160a01b038181166000908152600760205260409020541633145b610fe65760405162461bcd60e51b815260206004820152602560248201527f63616c6c6572206973206e6f742061207661756c7441646d696e204f66206c326044820152642a37b5b2b760d91b6064820152608401610515565b826001600160a01b0381166110225760405162461bcd60e51b81526020600482015260026024820152612d1960f11b6044820152606401610515565b82806000036110585760405162461bcd60e51b81526020600482015260026024820152615a3160f01b6044820152606401610515565b6040516370a0823160e01b81523060048201526001600160a01b038616906370a0823190602401602060405180830381865afa15801561109c573d6000803e3d6000fd5b505050506040513d601f19601f820116820180604052508101906110c0919061186c565b84111561110f5760405162461bcd60e51b815260206004820152601860248201527f62616c616e636520697320696e73756666696369656e742e00000000000000006044820152606401610515565b6111236001600160a01b03861633866113eb565b604080516001600160a01b03871681523360208201529081018590527ff7a40077ff7a04c7e61f6f26fb13774259ddf1b6bce9ecf26a8276cdd39926839060600160405180910390a15050505050565b60008281526004602052604090206001015461118e81611198565b6105b08383611244565b6105488133611506565b60008281526004602090815260408083206001600160a01b038516845290915290205460ff166107f15760008281526004602090815260408083206001600160a01b03851684529091529020805460ff191660011790556112003390565b6001600160a01b0316816001600160a01b0316837f2f8788117e7eff1d82e926ec794901d17c78024a50270940304540a733656f0d60405160405180910390a45050565b60008281526004602090815260408083206001600160a01b038516845290915290205460ff16156107f15760008281526004602090815260408083206001600160a01b0385168085529252808320805460ff1916905551339285917ff6391f5c32d9c69d2a47ea670b442974b53935d1edc7fd64eb21e047a839171b9190a45050565b604080516001600160a01b0385811660248301528481166044830152606480830185905283518084039091018152608490920183526020820180516001600160e01b03166323b872dd60e01b179052915160009283929088169161132b91906118a9565b6000604051808303816000865af19150503d8060008114611368576040519150601f19603f3d011682016040523d82523d6000602084013e61136d565b606091505b509150915081801561139757508051158061139757508080602001905181019061139791906118c5565b6113e35760405162461bcd60e51b815260206004820152601460248201527f5452414e534645525f46524f4d5f4641494c45440000000000000000000000006044820152606401610515565b505050505050565b604080516001600160a01b038481166024830152604480830185905283518084039091018152606490920183526020820180516001600160e01b031663a9059cbb60e01b179052915160009283929087169161144791906118a9565b6000604051808303816000865af19150503d8060008114611484576040519150601f19603f3d011682016040523d82523d6000602084013e611489565b606091505b50915091508180156114b35750805115806114b35750808060200190518101906114b391906118c5565b6114ff5760405162461bcd60e51b815260206004820152600f60248201527f5452414e534645525f4641494c454400000000000000000000000000000000006044820152606401610515565b5050505050565b60008281526004602090815260408083206001600160a01b038516845290915290205460ff166107f1576115398161157b565b61154483602061158d565b6040516020016115559291906118e7565b60408051601f198184030181529082905262461bcd60e51b825261051591600401611968565b60606104b36001600160a01b03831660145b6060600061159c8360026119b1565b6115a79060026119c8565b67ffffffffffffffff8111156115bf576115bf6119db565b6040519080825280601f01601f1916602001820160405280156115e9576020820181803683370190505b509050600360fc1b81600081518110611604576116046119f1565b60200101906001600160f81b031916908160001a905350600f60fb1b81600181518110611633576116336119f1565b60200101906001600160f81b031916908160001a90535060006116578460026119b1565b6116629060016119c8565b90505b60018111156116e7577f303132333435363738396162636465660000000000000000000000000000000085600f16601081106116a3576116a36119f1565b1a60f81b8282815181106116b9576116b96119f1565b60200101906001600160f81b031916908160001a90535060049490941c936116e081611a07565b9050611665565b50831561082b5760405162461bcd60e51b815260206004820181905260248201527f537472696e67733a20686578206c656e67746820696e73756666696369656e746044820152606401610515565b60006020828403121561174857600080fd5b81356001600160e01b03198116811461082b57600080fd5b80356001600160a01b038116811461177757600080fd5b919050565b60006020828403121561178e57600080fd5b61082b82611760565b6000602082840312156117a957600080fd5b5035919050565b600080604083850312156117c357600080fd5b823591506117d360208401611760565b90509250929050565b600080604083850312156117ef57600080fd5b6117f883611760565b91506117d360208401611760565b60008060006060848603121561181b57600080fd5b61182484611760565b925061183260208501611760565b9150604084013590509250925092565b6000806040838503121561185557600080fd5b61185e83611760565b946020939093013593505050565b60006020828403121561187e57600080fd5b5051919050565b60005b838110156118a0578181015183820152602001611888565b50506000910152565b600082516118bb818460208701611885565b9190910192915050565b6000602082840312156118d757600080fd5b8151801515811461082b57600080fd5b7f416363657373436f6e74726f6c3a206163636f756e742000000000000000000081526000835161191f816017850160208801611885565b7f206973206d697373696e6720726f6c6520000000000000000000000000000000601791840191820152835161195c816028840160208801611885565b01602801949350505050565b6020815260008251806020840152611987816040850160208701611885565b601f01601f19169190910160400192915050565b634e487b7160e01b600052601160045260246000fd5b80820281158282048414176104b3576104b361199b565b808201808211156104b3576104b361199b565b634e487b7160e01b600052604160045260246000fd5b634e487b7160e01b600052603260045260246000fd5b600081611a1657611a1661199b565b50600019019056fea164736f6c6343000812000a",
  "linkReferences": {},
  "deployedLinkReferences": {}
}