{
  "_format": "hh-sol-artifact-1",
  "contractName": "L1ProjectManagerProxy",
  "sourceName": "contracts/L1/L1ProjectManagerProxy.sol",
  "abi": [
    {
      "anonymous": false,
      "inputs": [
        {
          "indexed": true,
          "internalType": "bytes32",
          "name": "role",
          "type": "bytes32"
        },
        {
          "indexed": true,
          "internalType": "bytes32",
          "name": "previousAdminRole",
          "type": "bytes32"
        },
        {
          "indexed": true,
          "internalType": "bytes32",
          "name": "newAdminRole",
          "type": "bytes32"
        }
      ],
      "name": "RoleAdminChanged",
      "type": "event"
    },
    {
      "anonymous": false,
      "inputs": [
        {
          "indexed": true,
          "internalType": "bytes32",
          "name": "role",
          "type": "bytes32"
        },
        {
          "indexed": true,
          "internalType": "address",
          "name": "account",
          "type": "address"
        },
        {
          "indexed": true,
          "internalType": "address",
          "name": "sender",
          "type": "address"
        }
      ],
      "name": "RoleGranted",
      "type": "event"
    },
    {
      "anonymous": false,
      "inputs": [
        {
          "indexed": true,
          "internalType": "bytes32",
          "name": "role",
          "type": "bytes32"
        },
        {
          "indexed": true,
          "internalType": "address",
          "name": "account",
          "type": "address"
        },
        {
          "indexed": true,
          "internalType": "address",
          "name": "sender",
          "type": "address"
        }
      ],
      "name": "RoleRevoked",
      "type": "event"
    },
    {
      "anonymous": false,
      "inputs": [
        {
          "indexed": true,
          "internalType": "address",
          "name": "impl",
          "type": "address"
        },
        {
          "indexed": false,
          "internalType": "bool",
          "name": "alive",
          "type": "bool"
        }
      ],
      "name": "SetAliveImplementation",
      "type": "event"
    },
    {
      "anonymous": false,
      "inputs": [
        {
          "indexed": true,
          "internalType": "bytes4",
          "name": "selector",
          "type": "bytes4"
        },
        {
          "indexed": true,
          "internalType": "address",
          "name": "impl",
          "type": "address"
        }
      ],
      "name": "SetSelectorImplementation",
      "type": "event"
    },
    {
      "anonymous": false,
      "inputs": [
        {
          "indexed": true,
          "internalType": "address",
          "name": "implementation",
          "type": "address"
        }
      ],
      "name": "Upgraded",
      "type": "event"
    },
    {
      "stateMutability": "payable",
      "type": "fallback"
    },
    {
      "inputs": [],
      "name": "ADMIN_ROLE",
      "outputs": [
        {
          "internalType": "bytes32",
          "name": "",
          "type": "bytes32"
        }
      ],
      "stateMutability": "view",
      "type": "function"
    },
    {
      "inputs": [],
      "name": "DEFAULT_ADMIN_ROLE",
      "outputs": [
        {
          "internalType": "bytes32",
          "name": "",
          "type": "bytes32"
        }
      ],
      "stateMutability": "view",
      "type": "function"
    },
    {
      "inputs": [],
      "name": "POLICY_ROLE",
      "outputs": [
        {
          "internalType": "bytes32",
          "name": "",
          "type": "bytes32"
        }
      ],
      "stateMutability": "view",
      "type": "function"
    },
    {
      "inputs": [
        {
          "internalType": "address",
          "name": "account",
          "type": "address"
        }
      ],
      "name": "addAdmin",
      "outputs": [],
      "stateMutability": "nonpayable",
      "type": "function"
    },
    {
      "inputs": [
        {
          "internalType": "address",
          "name": "",
          "type": "address"
        }
      ],
      "name": "aliveImplementation",
      "outputs": [
        {
          "internalType": "bool",
          "name": "",
          "type": "bool"
        }
      ],
      "stateMutability": "view",
      "type": "function"
    },
    {
      "inputs": [
        {
          "internalType": "bytes32",
          "name": "role",
          "type": "bytes32"
        }
      ],
      "name": "getRoleAdmin",
      "outputs": [
        {
          "internalType": "bytes32",
          "name": "",
          "type": "bytes32"
        }
      ],
      "stateMutability": "view",
      "type": "function"
    },
    {
      "inputs": [
        {
          "internalType": "bytes4",
          "name": "_selector",
          "type": "bytes4"
        }
      ],
      "name": "getSelectorImplementation2",
      "outputs": [
        {
          "internalType": "address",
          "name": "impl",
          "type": "address"
        }
      ],
      "stateMutability": "view",
      "type": "function"
    },
    {
      "inputs": [
        {
          "internalType": "bytes32",
          "name": "role",
          "type": "bytes32"
        },
        {
          "internalType": "address",
          "name": "account",
          "type": "address"
        }
      ],
      "name": "grantRole",
      "outputs": [],
      "stateMutability": "nonpayable",
      "type": "function"
    },
    {
      "inputs": [
        {
          "internalType": "bytes32",
          "name": "role",
          "type": "bytes32"
        },
        {
          "internalType": "address",
          "name": "account",
          "type": "address"
        }
      ],
      "name": "hasRole",
      "outputs": [
        {
          "internalType": "bool",
          "name": "",
          "type": "bool"
        }
      ],
      "stateMutability": "view",
      "type": "function"
    },
    {
      "inputs": [],
      "name": "implementation",
      "outputs": [
        {
          "internalType": "address",
          "name": "",
          "type": "address"
        }
      ],
      "stateMutability": "view",
      "type": "function"
    },
    {
      "inputs": [
        {
          "internalType": "uint256",
          "name": "_index",
          "type": "uint256"
        }
      ],
      "name": "implementation2",
      "outputs": [
        {
          "internalType": "address",
          "name": "",
          "type": "address"
        }
      ],
      "stateMutability": "view",
      "type": "function"
    },
    {
      "inputs": [
        {
          "internalType": "address",
          "name": "account",
          "type": "address"
        }
      ],
      "name": "isAdmin",
      "outputs": [
        {
          "internalType": "bool",
          "name": "",
          "type": "bool"
        }
      ],
      "stateMutability": "view",
      "type": "function"
    },
    {
      "inputs": [
        {
          "internalType": "uint8",
          "name": "",
          "type": "uint8"
        }
      ],
      "name": "l1TokenFactory",
      "outputs": [
        {
          "internalType": "address",
          "name": "",
          "type": "address"
        }
      ],
      "stateMutability": "view",
      "type": "function"
    },
    {
      "inputs": [
        {
          "internalType": "uint8",
          "name": "",
          "type": "uint8"
        }
      ],
      "name": "l2ProjectManager",
      "outputs": [
        {
          "internalType": "address",
          "name": "",
          "type": "address"
        }
      ],
      "stateMutability": "view",
      "type": "function"
    },
    {
      "inputs": [
        {
          "internalType": "uint8",
          "name": "",
          "type": "uint8"
        }
      ],
      "name": "l2TokenFactory",
      "outputs": [
        {
          "internalType": "address",
          "name": "",
          "type": "address"
        }
      ],
      "stateMutability": "view",
      "type": "function"
    },
    {
      "inputs": [],
      "name": "pauseProxy",
      "outputs": [
        {
          "internalType": "bool",
          "name": "",
          "type": "bool"
        }
      ],
      "stateMutability": "view",
      "type": "function"
    },
    {
      "inputs": [],
      "name": "projectCount",
      "outputs": [
        {
          "internalType": "uint256",
          "name": "",
          "type": "uint256"
        }
      ],
      "stateMutability": "view",
      "type": "function"
    },
    {
      "inputs": [
        {
          "internalType": "address",
          "name": "",
          "type": "address"
        }
      ],
      "name": "projectTokens",
      "outputs": [
        {
          "internalType": "uint256",
          "name": "",
          "type": "uint256"
        }
      ],
      "stateMutability": "view",
      "type": "function"
    },
    {
      "inputs": [
        {
          "internalType": "uint256",
          "name": "",
          "type": "uint256"
        }
      ],
      "name": "projects",
      "outputs": [
        {
          "internalType": "address",
          "name": "projectOwner",
          "type": "address"
        },
        {
          "internalType": "address",
          "name": "tokenOwner",
          "type": "address"
        },
        {
          "internalType": "address",
          "name": "l1Token",
          "type": "address"
        },
        {
          "internalType": "address",
          "name": "l2Token",
          "type": "address"
        },
        {
          "internalType": "address",
          "name": "addressManager",
          "type": "address"
        },
        {
          "internalType": "uint256",
          "name": "initialTotalSupply",
          "type": "uint256"
        },
        {
          "internalType": "uint8",
          "name": "tokenType",
          "type": "uint8"
        },
        {
          "internalType": "uint8",
          "name": "l2Type",
          "type": "uint8"
        },
        {
          "internalType": "string",
          "name": "projectName",
          "type": "string"
        }
      ],
      "stateMutability": "view",
      "type": "function"
    },
    {
      "inputs": [
        {
          "internalType": "uint256",
          "name": "",
          "type": "uint256"
        }
      ],
      "name": "proxyImplementation",
      "outputs": [
        {
          "internalType": "address",
          "name": "",
          "type": "address"
        }
      ],
      "stateMutability": "view",
      "type": "function"
    },
    {
      "inputs": [
        {
          "internalType": "address",
          "name": "account",
          "type": "address"
        }
      ],
      "name": "removeAdmin",
      "outputs": [],
      "stateMutability": "nonpayable",
      "type": "function"
    },
    {
      "inputs": [
        {
          "internalType": "bytes32",
          "name": "role",
          "type": "bytes32"
        },
        {
          "internalType": "address",
          "name": "account",
          "type": "address"
        }
      ],
      "name": "renounceRole",
      "outputs": [],
      "stateMutability": "nonpayable",
      "type": "function"
    },
    {
      "inputs": [
        {
          "internalType": "bytes32",
          "name": "role",
          "type": "bytes32"
        },
        {
          "internalType": "address",
          "name": "account",
          "type": "address"
        }
      ],
      "name": "revokeRole",
      "outputs": [],
      "stateMutability": "nonpayable",
      "type": "function"
    },
    {
      "inputs": [
        {
          "internalType": "bytes4",
          "name": "",
          "type": "bytes4"
        }
      ],
      "name": "selectorImplementation",
      "outputs": [
        {
          "internalType": "address",
          "name": "",
          "type": "address"
        }
      ],
      "stateMutability": "view",
      "type": "function"
    },
    {
      "inputs": [
        {
          "internalType": "address",
          "name": "newImplementation",
          "type": "address"
        },
        {
          "internalType": "bool",
          "name": "_alive",
          "type": "bool"
        }
      ],
      "name": "setAliveImplementation2",
      "outputs": [],
      "stateMutability": "nonpayable",
      "type": "function"
    },
    {
      "inputs": [
        {
          "internalType": "address",
          "name": "newImplementation",
          "type": "address"
        },
        {
          "internalType": "uint256",
          "name": "_index",
          "type": "uint256"
        },
        {
          "internalType": "bool",
          "name": "_alive",
          "type": "bool"
        }
      ],
      "name": "setImplementation2",
      "outputs": [],
      "stateMutability": "nonpayable",
      "type": "function"
    },
    {
      "inputs": [
        {
          "internalType": "bool",
          "name": "_pause",
          "type": "bool"
        }
      ],
      "name": "setProxyPause",
      "outputs": [],
      "stateMutability": "nonpayable",
      "type": "function"
    },
    {
      "inputs": [
        {
          "internalType": "bytes4[]",
          "name": "_selectors",
          "type": "bytes4[]"
        },
        {
          "internalType": "address",
          "name": "_imp",
          "type": "address"
        }
      ],
      "name": "setSelectorImplementations2",
      "outputs": [],
      "stateMutability": "nonpayable",
      "type": "function"
    },
    {
      "inputs": [
        {
          "internalType": "bytes4",
          "name": "interfaceId",
          "type": "bytes4"
        }
      ],
      "name": "supportsInterface",
      "outputs": [
        {
          "internalType": "bool",
          "name": "",
          "type": "bool"
        }
      ],
      "stateMutability": "view",
      "type": "function"
    },
    {
      "inputs": [
        {
          "internalType": "address",
          "name": "newAdmin",
          "type": "address"
        }
      ],
      "name": "transferAdmin",
      "outputs": [],
      "stateMutability": "nonpayable",
      "type": "function"
    },
    {
      "inputs": [
        {
          "internalType": "address",
          "name": "impl",
          "type": "address"
        }
      ],
      "name": "upgradeTo",
      "outputs": [],
      "stateMutability": "nonpayable",
      "type": "function"
    },
    {
      "stateMutability": "payable",
      "type": "receive"
    }
  ],
  "bytecode": "0x60806040526005805460ff191660011790553480156200001e57600080fd5b506200003a60008051602062001ca2833981519152806200005b565b6200005560008051602062001ca283398151915233620000a6565b6200015a565b600082815260046020526040808220600101805490849055905190918391839186917fbd79b86ffe0ab8e8776151514217cd7cacd52c909f66475c3af44e129f0b00ff9190a4505050565b620000b28282620000b6565b5050565b60008281526004602090815260408083206001600160a01b038516845290915290205460ff16620000b25760008281526004602090815260408083206001600160a01b03851684529091529020805460ff19166001179055620001163390565b6001600160a01b0316816001600160a01b0316837f2f8788117e7eff1d82e926ec794901d17c78024a50270940304540a733656f0d60405160405180910390a45050565b611b38806200016a6000396000f3fe6080604052600436106101dc5760003560e01c806360a56387116101025780638d4fdb4011610095578063b4a35e0f11610064578063b4a35e0f1461069a578063b911135f146106d0578063d547741f14610706578063ea705fe1146107265761022e565b80638d4fdb40146105f257806391d14854146106125780639cba984814610658578063a217fddf146106855761022e565b806375b238fc116100d157806375b238fc1461055e5780637cb00d25146105925780637cd5f663146105b25780638b8f4a65146105d25761022e565b806360a56387146104ce57806363a8fd8914610504578063704802751461051e57806375829def1461053e5761022e565b806336568abe1161017a57806350d2a2761161014957806350d2a276146103ea578063550d01a3146104385780635c60da1b146104685780635cc797d8146104ae5761022e565b806336568abe146103745780633659cfe61461039457806336fbad26146103b45780634a5df50f146103ca5761022e565b806322985246116101b657806322985246146102c2578063248a9ca31461030457806324d7806c146103345780632f2ff15d146103545761022e565b806301ffc9a714610238578063107046bd1461026d5780631785f53c146102a25761022e565b3661022e5760405162461bcd60e51b815260206004820152601460248201527f63616e6e6f74207265636569766520457468657200000000000000000000000060448201526064015b60405180910390fd5b61023661075c565b005b34801561024457600080fd5b50610258610253366004611713565b610805565b60405190151581526020015b60405180910390f35b34801561027957600080fd5b5061028d61028836600461173d565b61083c565b604051610264999897969594939291906117a6565b3480156102ae57600080fd5b506102366102bd36600461182b565b61092c565b3480156102ce57600080fd5b506102f67ffb5864e8ff833c3cb2d2d08505e82ff02a43554c74a35d4f5a64e8526127831181565b604051908152602001610264565b34801561031057600080fd5b506102f661031f36600461173d565b60009081526004602052604090206001015490565b34801561034057600080fd5b5061025861034f36600461182b565b6109a7565b34801561036057600080fd5b5061023661036f366004611846565b6109e7565b34801561038057600080fd5b5061023661038f366004611846565b610a0c565b3480156103a057600080fd5b506102366103af36600461182b565b610a98565b3480156103c057600080fd5b506102f660065481565b3480156103d657600080fd5b506102366103e5366004611872565b610bf1565b3480156103f657600080fd5b50610420610405366004611713565b6003602052600090815260409020546001600160a01b031681565b6040516001600160a01b039091168152602001610264565b34801561044457600080fd5b5061025861045336600461182b565b60026020526000908152604090205460ff1681565b34801561047457600080fd5b506000805260016020527fa6eef7e35abe7026729641147f7915573c7e97b47efa546f5f6e3230263bcb49546001600160a01b0316610420565b3480156104ba57600080fd5b506102366104c9366004611906565b610e9e565b3480156104da57600080fd5b506104206104e9366004611930565b600a602052600090815260409020546001600160a01b031681565b34801561051057600080fd5b506000546102589060ff1681565b34801561052a57600080fd5b5061023661053936600461182b565b610ef6565b34801561054a57600080fd5b5061023661055936600461182b565b610f6e565b34801561056a57600080fd5b506102f67fdf8b4c520ffe197c5343c6f5aec59570151ef9a492f2c624fd45ddde6135ec4281565b34801561059e57600080fd5b506102366105ad366004611953565b6110be565b3480156105be57600080fd5b506102366105cd36600461196e565b61111f565b3480156105de57600080fd5b506104206105ed36600461173d565b611178565b3480156105fe57600080fd5b5061042061060d366004611713565b611195565b34801561061e57600080fd5b5061025861062d366004611846565b60009182526004602090815260408084206001600160a01b0393909316845291905290205460ff1690565b34801561066457600080fd5b506102f661067336600461182b565b60086020526000908152604090205481565b34801561069157600080fd5b506102f6600081565b3480156106a657600080fd5b506104206106b5366004611930565b600b602052600090815260409020546001600160a01b031681565b3480156106dc57600080fd5b506104206106eb36600461173d565b6001602052600090815260409020546001600160a01b031681565b34801561071257600080fd5b50610236610721366004611846565b611291565b34801561073257600080fd5b50610420610741366004611930565b6009602052600090815260409020546001600160a01b031681565b60006107736000356001600160e01b031916611195565b90506001600160a01b03811615801590610790575060005460ff16155b6107dc5760405162461bcd60e51b815260206004820152601d60248201527f50726f78793a20696d706c204f522070726f78792069732066616c73650000006044820152606401610225565b3660008037600080366000845af43d6000803e8080156107fb573d6000f35b3d6000fd5b505050565b60006001600160e01b03198216637965db0b60e01b148061083657506301ffc9a760e01b6001600160e01b03198316145b92915050565b6007602081905260009182526040909120805460018201546002830154600384015460048501546005860154600687015497870180546001600160a01b03978816999688169895881697948516969390941694919360ff808516946101009004169291906108a9906119a1565b80601f01602080910402602001604051908101604052809291908181526020018280546108d5906119a1565b80156109225780601f106108f757610100808354040283529160200191610922565b820191906000526020600020905b81548152906001019060200180831161090557829003601f168201915b5050505050905089565b610935336109a7565b61097a5760405162461bcd60e51b81526020600482015260226024820152600080516020611b0c83398151915260448201526134b760f11b6064820152608401610225565b6109a47fdf8b4c520ffe197c5343c6f5aec59570151ef9a492f2c624fd45ddde6135ec4282610a0c565b50565b6001600160a01b03811660009081527f2fb794d17134dfdec181ddbac1babb5ab1eb140204ef4d982f294e7fc8b69022602052604081205460ff16610836565b600082815260046020526040902060010154610a02816112b6565b61080083836112c0565b6001600160a01b0381163314610a8a5760405162461bcd60e51b815260206004820152602f60248201527f416363657373436f6e74726f6c3a2063616e206f6e6c792072656e6f756e636560448201527f20726f6c657320666f722073656c6600000000000000000000000000000000006064820152608401610225565b610a948282611362565b5050565b610aa1336109a7565b610ae65760405162461bcd60e51b81526020600482015260226024820152600080516020611b0c83398151915260448201526134b760f11b6064820152608401610225565b6001600160a01b038116610b3c5760405162461bcd60e51b815260206004820152600d60248201527f696e707574206973207a65726f000000000000000000000000000000000000006044820152606401610225565b6000805260016020527fa6eef7e35abe7026729641147f7915573c7e97b47efa546f5f6e3230263bcb49546001600160a01b03828116911603610bad5760405162461bcd60e51b815260206004820152600960248201526839b0b6b29030b2323960b91b6044820152606401610225565b610bba81600060016113e5565b6040516001600160a01b038216907fbc7cd75a20ee27fd9adebab32041f755214dbc6bffa90cc0225b39da2e5c2d3b90600090a250565b610bfa336109a7565b610c3f5760405162461bcd60e51b81526020600482015260226024820152600080516020611b0c83398151915260448201526134b760f11b6064820152608401610225565b81610c8c5760405162461bcd60e51b815260206004820181905260248201527f50726f78793a205f73656c6563746f727327732073697a65206973207a65726f6044820152606401610225565b6001600160a01b03811660009081526002602052604090205460ff16610cf45760405162461bcd60e51b815260206004820152601860248201527f50726f78793a205f696d70206973206e6f7420616c69766500000000000000006044820152606401610225565b60005b82811015610e9857816001600160a01b031660036000868685818110610d1f57610d1f6119db565b9050602002016020810190610d349190611713565b6001600160e01b03191681526020810191909152604001600020546001600160a01b031603610da55760405162461bcd60e51b815260206004820152601d60248201527f4c69717569646974795661756c7450726f78793a2073616d6520696d700000006044820152606401610225565b8160036000868685818110610dbc57610dbc6119db565b9050602002016020810190610dd19190611713565b6001600160e01b03191681526020810191909152604001600020805473ffffffffffffffffffffffffffffffffffffffff19166001600160a01b039283161790558216848483818110610e2657610e266119db565b9050602002016020810190610e3b9190611713565b7bffffffffffffffffffffffffffffffffffffffffffffffffffffffff19167f14ebc1c32aa68f4d766e89f3e546cee249f7df25183fc10ab1568d91c2ce9b7b60405160405180910390a380610e9081611a07565b915050610cf7565b50505050565b610ea7336109a7565b610eec5760405162461bcd60e51b81526020600482015260226024820152600080516020611b0c83398151915260448201526134b760f11b6064820152608401610225565b610a94828261147d565b610eff336109a7565b610f445760405162461bcd60e51b81526020600482015260226024820152600080516020611b0c83398151915260448201526134b760f11b6064820152608401610225565b6109a47fdf8b4c520ffe197c5343c6f5aec59570151ef9a492f2c624fd45ddde6135ec42826109e7565b610f77336109a7565b610fbc5760405162461bcd60e51b81526020600482015260226024820152600080516020611b0c83398151915260448201526134b760f11b6064820152608401610225565b6001600160a01b0381166110125760405162461bcd60e51b815260206004820152601860248201527f41636365737369626c653a207a65726f206164647265737300000000000000006044820152606401610225565b6001600160a01b038116330361106a5760405162461bcd60e51b815260206004820152601660248201527f41636365737369626c653a2073616d652061646d696e000000000000000000006044820152606401610225565b6110947fdf8b4c520ffe197c5343c6f5aec59570151ef9a492f2c624fd45ddde6135ec42826109e7565b6109a47fdf8b4c520ffe197c5343c6f5aec59570151ef9a492f2c624fd45ddde6135ec4233610a0c565b6110c7336109a7565b61110c5760405162461bcd60e51b81526020600482015260226024820152600080516020611b0c83398151915260448201526134b760f11b6064820152608401610225565b6000805460ff1916911515919091179055565b611128336109a7565b61116d5760405162461bcd60e51b81526020600482015260226024820152600080516020611b0c83398151915260448201526134b760f11b6064820152608401610225565b6108008383836113e5565b6000818152600160205260408120546001600160a01b0316610836565b6001600160e01b031981166000908152600360205260408120546001600160a01b03166111f55750506000805260016020527fa6eef7e35abe7026729641147f7915573c7e97b47efa546f5f6e3230263bcb49546001600160a01b031690565b6001600160e01b031982166000908152600360209081526040808320546001600160a01b03168352600290915290205460ff161561125357506001600160e01b0319166000908152600360205260409020546001600160a01b031690565b50506000805260016020527fa6eef7e35abe7026729641147f7915573c7e97b47efa546f5f6e3230263bcb49546001600160a01b031690565b919050565b6000828152600460205260409020600101546112ac816112b6565b6108008383611362565b6109a481336114dc565b60008281526004602090815260408083206001600160a01b038516845290915290205460ff16610a945760008281526004602090815260408083206001600160a01b03851684529091529020805460ff1916600117905561131e3390565b6001600160a01b0316816001600160a01b0316837f2f8788117e7eff1d82e926ec794901d17c78024a50270940304540a733656f0d60405160405180910390a45050565b60008281526004602090815260408083206001600160a01b038516845290915290205460ff1615610a945760008281526004602090815260408083206001600160a01b0385168085529252808320805460ff1916905551339285917ff6391f5c32d9c69d2a47ea670b442974b53935d1edc7fd64eb21e047a839171b9190a45050565b6001600160a01b0383163b61143c5760405162461bcd60e51b815260206004820152601b60248201527f50726f78793a206e6f7420636f6e7472616374206164647265737300000000006044820152606401610225565b8015611477576000828152600160205260409020805473ffffffffffffffffffffffffffffffffffffffff19166001600160a01b0385161790555b61080083825b6001600160a01b038216600081815260026020908152604091829020805460ff191685151590811790915591519182527f72558d9bfba4210f9ef095c782589484151f6d90f7a81bb3cb9b33efc695d324910160405180910390a25050565b60008281526004602090815260408083206001600160a01b038516845290915290205460ff16610a945761150f81611551565b61151a836020611563565b60405160200161152b929190611a20565b60408051601f198184030181529082905262461bcd60e51b825261022591600401611aa1565b60606108366001600160a01b03831660145b60606000611572836002611ab4565b61157d906002611acb565b67ffffffffffffffff81111561159557611595611ade565b6040519080825280601f01601f1916602001820160405280156115bf576020820181803683370190505b509050600360fc1b816000815181106115da576115da6119db565b60200101906001600160f81b031916908160001a905350600f60fb1b81600181518110611609576116096119db565b60200101906001600160f81b031916908160001a905350600061162d846002611ab4565b611638906001611acb565b90505b60018111156116bd577f303132333435363738396162636465660000000000000000000000000000000085600f1660108110611679576116796119db565b1a60f81b82828151811061168f5761168f6119db565b60200101906001600160f81b031916908160001a90535060049490941c936116b681611af4565b905061163b565b50831561170c5760405162461bcd60e51b815260206004820181905260248201527f537472696e67733a20686578206c656e67746820696e73756666696369656e746044820152606401610225565b9392505050565b60006020828403121561172557600080fd5b81356001600160e01b03198116811461170c57600080fd5b60006020828403121561174f57600080fd5b5035919050565b60005b83811015611771578181015183820152602001611759565b50506000910152565b60008151808452611792816020860160208601611756565b601f01601f19169290920160200192915050565b60006101206001600160a01b03808d168452808c166020850152808b166040850152808a1660608501528089166080850152508660a084015260ff861660c084015260ff851660e0840152806101008401526118048184018561177a565b9c9b505050505050505050505050565b80356001600160a01b038116811461128c57600080fd5b60006020828403121561183d57600080fd5b61170c82611814565b6000806040838503121561185957600080fd5b8235915061186960208401611814565b90509250929050565b60008060006040848603121561188757600080fd5b833567ffffffffffffffff8082111561189f57600080fd5b818601915086601f8301126118b357600080fd5b8135818111156118c257600080fd5b8760208260051b85010111156118d757600080fd5b6020928301955093506118ed9186019050611814565b90509250925092565b8035801515811461128c57600080fd5b6000806040838503121561191957600080fd5b61192283611814565b9150611869602084016118f6565b60006020828403121561194257600080fd5b813560ff8116811461170c57600080fd5b60006020828403121561196557600080fd5b61170c826118f6565b60008060006060848603121561198357600080fd5b61198c84611814565b9250602084013591506118ed604085016118f6565b600181811c908216806119b557607f821691505b6020821081036119d557634e487b7160e01b600052602260045260246000fd5b50919050565b634e487b7160e01b600052603260045260246000fd5b634e487b7160e01b600052601160045260246000fd5b600060018201611a1957611a196119f1565b5060010190565b7f416363657373436f6e74726f6c3a206163636f756e7420000000000000000000815260008351611a58816017850160208801611756565b7f206973206d697373696e6720726f6c65200000000000000000000000000000006017918401918201528351611a95816028840160208801611756565b01602801949350505050565b60208152600061170c602083018461177a565b8082028115828204841417610836576108366119f1565b80820180821115610836576108366119f1565b634e487b7160e01b600052604160045260246000fd5b600081611b0357611b036119f1565b50600019019056fe41636365737369626c653a2043616c6c6572206973206e6f7420616e2061646da164736f6c6343000812000adf8b4c520ffe197c5343c6f5aec59570151ef9a492f2c624fd45ddde6135ec42",
  "linkReferences": {},
  "deployedLinkReferences": {}
}