{
  "_format": "hh-sol-artifact-1",
  "contractName": "L1ProjectManagerProxy",
  "sourceName": "contracts/L1/L1ProjectManagerProxy.sol",
  "abi": [
    {
      "anonymous": false,
      "inputs": [
        {
          "indexed": true,
          "internalType": "bytes32",
          "name": "role",
          "type": "bytes32"
        },
        {
          "indexed": true,
          "internalType": "bytes32",
          "name": "previousAdminRole",
          "type": "bytes32"
        },
        {
          "indexed": true,
          "internalType": "bytes32",
          "name": "newAdminRole",
          "type": "bytes32"
        }
      ],
      "name": "RoleAdminChanged",
      "type": "event"
    },
    {
      "anonymous": false,
      "inputs": [
        {
          "indexed": true,
          "internalType": "bytes32",
          "name": "role",
          "type": "bytes32"
        },
        {
          "indexed": true,
          "internalType": "address",
          "name": "account",
          "type": "address"
        },
        {
          "indexed": true,
          "internalType": "address",
          "name": "sender",
          "type": "address"
        }
      ],
      "name": "RoleGranted",
      "type": "event"
    },
    {
      "anonymous": false,
      "inputs": [
        {
          "indexed": true,
          "internalType": "bytes32",
          "name": "role",
          "type": "bytes32"
        },
        {
          "indexed": true,
          "internalType": "address",
          "name": "account",
          "type": "address"
        },
        {
          "indexed": true,
          "internalType": "address",
          "name": "sender",
          "type": "address"
        }
      ],
      "name": "RoleRevoked",
      "type": "event"
    },
    {
      "anonymous": false,
      "inputs": [
        {
          "indexed": true,
          "internalType": "address",
          "name": "impl",
          "type": "address"
        },
        {
          "indexed": false,
          "internalType": "bool",
          "name": "alive",
          "type": "bool"
        }
      ],
      "name": "SetAliveImplementation",
      "type": "event"
    },
    {
      "anonymous": false,
      "inputs": [
        {
          "indexed": true,
          "internalType": "bytes4",
          "name": "selector",
          "type": "bytes4"
        },
        {
          "indexed": true,
          "internalType": "address",
          "name": "impl",
          "type": "address"
        }
      ],
      "name": "SetSelectorImplementation",
      "type": "event"
    },
    {
      "anonymous": false,
      "inputs": [
        {
          "indexed": true,
          "internalType": "address",
          "name": "implementation",
          "type": "address"
        }
      ],
      "name": "Upgraded",
      "type": "event"
    },
    {
      "stateMutability": "payable",
      "type": "fallback"
    },
    {
      "inputs": [],
      "name": "ADMIN_ROLE",
      "outputs": [
        {
          "internalType": "bytes32",
          "name": "",
          "type": "bytes32"
        }
      ],
      "stateMutability": "view",
      "type": "function"
    },
    {
      "inputs": [],
      "name": "DEFAULT_ADMIN_ROLE",
      "outputs": [
        {
          "internalType": "bytes32",
          "name": "",
          "type": "bytes32"
        }
      ],
      "stateMutability": "view",
      "type": "function"
    },
    {
      "inputs": [],
      "name": "POLICY_ROLE",
      "outputs": [
        {
          "internalType": "bytes32",
          "name": "",
          "type": "bytes32"
        }
      ],
      "stateMutability": "view",
      "type": "function"
    },
    {
      "inputs": [
        {
          "internalType": "address",
          "name": "account",
          "type": "address"
        }
      ],
      "name": "addAdmin",
      "outputs": [],
      "stateMutability": "nonpayable",
      "type": "function"
    },
    {
      "inputs": [
        {
          "internalType": "address",
          "name": "",
          "type": "address"
        }
      ],
      "name": "aliveImplementation",
      "outputs": [
        {
          "internalType": "bool",
          "name": "",
          "type": "bool"
        }
      ],
      "stateMutability": "view",
      "type": "function"
    },
    {
      "inputs": [
        {
          "internalType": "bytes32",
          "name": "role",
          "type": "bytes32"
        }
      ],
      "name": "getRoleAdmin",
      "outputs": [
        {
          "internalType": "bytes32",
          "name": "",
          "type": "bytes32"
        }
      ],
      "stateMutability": "view",
      "type": "function"
    },
    {
      "inputs": [
        {
          "internalType": "bytes4",
          "name": "_selector",
          "type": "bytes4"
        }
      ],
      "name": "getSelectorImplementation2",
      "outputs": [
        {
          "internalType": "address",
          "name": "impl",
          "type": "address"
        }
      ],
      "stateMutability": "view",
      "type": "function"
    },
    {
      "inputs": [
        {
          "internalType": "bytes32",
          "name": "role",
          "type": "bytes32"
        },
        {
          "internalType": "address",
          "name": "account",
          "type": "address"
        }
      ],
      "name": "grantRole",
      "outputs": [],
      "stateMutability": "nonpayable",
      "type": "function"
    },
    {
      "inputs": [
        {
          "internalType": "bytes32",
          "name": "role",
          "type": "bytes32"
        },
        {
          "internalType": "address",
          "name": "account",
          "type": "address"
        }
      ],
      "name": "hasRole",
      "outputs": [
        {
          "internalType": "bool",
          "name": "",
          "type": "bool"
        }
      ],
      "stateMutability": "view",
      "type": "function"
    },
    {
      "inputs": [],
      "name": "implementation",
      "outputs": [
        {
          "internalType": "address",
          "name": "",
          "type": "address"
        }
      ],
      "stateMutability": "view",
      "type": "function"
    },
    {
      "inputs": [
        {
          "internalType": "uint256",
          "name": "_index",
          "type": "uint256"
        }
      ],
      "name": "implementation2",
      "outputs": [
        {
          "internalType": "address",
          "name": "",
          "type": "address"
        }
      ],
      "stateMutability": "view",
      "type": "function"
    },
    {
      "inputs": [
        {
          "internalType": "address",
          "name": "account",
          "type": "address"
        }
      ],
      "name": "isAdmin",
      "outputs": [
        {
          "internalType": "bool",
          "name": "",
          "type": "bool"
        }
      ],
      "stateMutability": "view",
      "type": "function"
    },
    {
      "inputs": [
        {
          "internalType": "uint8",
          "name": "",
          "type": "uint8"
        }
      ],
      "name": "l1TokenFactory",
      "outputs": [
        {
          "internalType": "address",
          "name": "",
          "type": "address"
        }
      ],
      "stateMutability": "view",
      "type": "function"
    },
    {
      "inputs": [
        {
          "internalType": "uint8",
          "name": "",
          "type": "uint8"
        }
      ],
      "name": "l2Info",
      "outputs": [
        {
          "internalType": "address",
          "name": "l2TokenFactory",
          "type": "address"
        },
        {
          "internalType": "address",
          "name": "l2ProjectManager",
          "type": "address"
        },
        {
          "internalType": "uint32",
          "name": "depositMinGasLimit",
          "type": "uint32"
        },
        {
          "internalType": "uint32",
          "name": "sendMsgMinGasLimit",
          "type": "uint32"
        }
      ],
      "stateMutability": "view",
      "type": "function"
    },
    {
      "inputs": [],
      "name": "pauseProxy",
      "outputs": [
        {
          "internalType": "bool",
          "name": "",
          "type": "bool"
        }
      ],
      "stateMutability": "view",
      "type": "function"
    },
    {
      "inputs": [],
      "name": "projectCount",
      "outputs": [
        {
          "internalType": "uint256",
          "name": "",
          "type": "uint256"
        }
      ],
      "stateMutability": "view",
      "type": "function"
    },
    {
      "inputs": [
        {
          "internalType": "address",
          "name": "",
          "type": "address"
        }
      ],
      "name": "projectTokens",
      "outputs": [
        {
          "internalType": "uint256",
          "name": "",
          "type": "uint256"
        }
      ],
      "stateMutability": "view",
      "type": "function"
    },
    {
      "inputs": [
        {
          "internalType": "uint256",
          "name": "",
          "type": "uint256"
        }
      ],
      "name": "projects",
      "outputs": [
        {
          "internalType": "address",
          "name": "projectOwner",
          "type": "address"
        },
        {
          "internalType": "address",
          "name": "tokenOwner",
          "type": "address"
        },
        {
          "internalType": "address",
          "name": "l1Token",
          "type": "address"
        },
        {
          "internalType": "address",
          "name": "l2Token",
          "type": "address"
        },
        {
          "internalType": "address",
          "name": "addressManager",
          "type": "address"
        },
        {
          "internalType": "uint256",
          "name": "initialTotalSupply",
          "type": "uint256"
        },
        {
          "internalType": "uint8",
          "name": "tokenType",
          "type": "uint8"
        },
        {
          "internalType": "uint8",
          "name": "l2Type",
          "type": "uint8"
        },
        {
          "internalType": "string",
          "name": "projectName",
          "type": "string"
        }
      ],
      "stateMutability": "view",
      "type": "function"
    },
    {
      "inputs": [
        {
          "internalType": "uint256",
          "name": "",
          "type": "uint256"
        }
      ],
      "name": "proxyImplementation",
      "outputs": [
        {
          "internalType": "address",
          "name": "",
          "type": "address"
        }
      ],
      "stateMutability": "view",
      "type": "function"
    },
    {
      "inputs": [
        {
          "internalType": "address",
          "name": "account",
          "type": "address"
        }
      ],
      "name": "removeAdmin",
      "outputs": [],
      "stateMutability": "nonpayable",
      "type": "function"
    },
    {
      "inputs": [
        {
          "internalType": "bytes32",
          "name": "role",
          "type": "bytes32"
        },
        {
          "internalType": "address",
          "name": "account",
          "type": "address"
        }
      ],
      "name": "renounceRole",
      "outputs": [],
      "stateMutability": "nonpayable",
      "type": "function"
    },
    {
      "inputs": [
        {
          "internalType": "bytes32",
          "name": "role",
          "type": "bytes32"
        },
        {
          "internalType": "address",
          "name": "account",
          "type": "address"
        }
      ],
      "name": "revokeRole",
      "outputs": [],
      "stateMutability": "nonpayable",
      "type": "function"
    },
    {
      "inputs": [
        {
          "internalType": "bytes4",
          "name": "",
          "type": "bytes4"
        }
      ],
      "name": "selectorImplementation",
      "outputs": [
        {
          "internalType": "address",
          "name": "",
          "type": "address"
        }
      ],
      "stateMutability": "view",
      "type": "function"
    },
    {
      "inputs": [
        {
          "internalType": "address",
          "name": "newImplementation",
          "type": "address"
        },
        {
          "internalType": "bool",
          "name": "_alive",
          "type": "bool"
        }
      ],
      "name": "setAliveImplementation2",
      "outputs": [],
      "stateMutability": "nonpayable",
      "type": "function"
    },
    {
      "inputs": [
        {
          "internalType": "address",
          "name": "newImplementation",
          "type": "address"
        },
        {
          "internalType": "uint256",
          "name": "_index",
          "type": "uint256"
        },
        {
          "internalType": "bool",
          "name": "_alive",
          "type": "bool"
        }
      ],
      "name": "setImplementation2",
      "outputs": [],
      "stateMutability": "nonpayable",
      "type": "function"
    },
    {
      "inputs": [
        {
          "internalType": "bool",
          "name": "_pause",
          "type": "bool"
        }
      ],
      "name": "setProxyPause",
      "outputs": [],
      "stateMutability": "nonpayable",
      "type": "function"
    },
    {
      "inputs": [
        {
          "internalType": "bytes4[]",
          "name": "_selectors",
          "type": "bytes4[]"
        },
        {
          "internalType": "address",
          "name": "_imp",
          "type": "address"
        }
      ],
      "name": "setSelectorImplementations2",
      "outputs": [],
      "stateMutability": "nonpayable",
      "type": "function"
    },
    {
      "inputs": [
        {
          "internalType": "bytes4",
          "name": "interfaceId",
          "type": "bytes4"
        }
      ],
      "name": "supportsInterface",
      "outputs": [
        {
          "internalType": "bool",
          "name": "",
          "type": "bool"
        }
      ],
      "stateMutability": "view",
      "type": "function"
    },
    {
      "inputs": [
        {
          "internalType": "address",
          "name": "newAdmin",
          "type": "address"
        }
      ],
      "name": "transferAdmin",
      "outputs": [],
      "stateMutability": "nonpayable",
      "type": "function"
    },
    {
      "inputs": [
        {
          "internalType": "address",
          "name": "impl",
          "type": "address"
        }
      ],
      "name": "upgradeTo",
      "outputs": [],
      "stateMutability": "nonpayable",
      "type": "function"
    },
    {
      "stateMutability": "payable",
      "type": "receive"
    }
  ],
  "bytecode": "0x60806040526005805460ff191660011790553480156200001e57600080fd5b506200003a60008051602062001ccb833981519152806200005b565b6200005560008051602062001ccb83398151915233620000a6565b6200015a565b600082815260046020526040808220600101805490849055905190918391839186917fbd79b86ffe0ab8e8776151514217cd7cacd52c909f66475c3af44e129f0b00ff9190a4505050565b620000b28282620000b6565b5050565b60008281526004602090815260408083206001600160a01b038516845290915290205460ff16620000b25760008281526004602090815260408083206001600160a01b03851684529091529020805460ff19166001179055620001163390565b6001600160a01b0316816001600160a01b0316837f2f8788117e7eff1d82e926ec794901d17c78024a50270940304540a733656f0d60405160405180910390a45050565b611b61806200016a6000396000f3fe6080604052600436106101d15760003560e01c806363a8fd89116100f75780638d4fdb4011610095578063a217fddf11610064578063a217fddf146106e6578063b4a35e0f146106fb578063b911135f14610731578063d547741f1461076757610223565b80638d4fdb40146105b1578063902293ab146105d157806391d14854146106735780639cba9848146106b957610223565b806375b238fc116100d157806375b238fc1461051d5780637cb00d25146105515780637cd5f663146105715780638b8f4a651461059157610223565b806363a8fd89146104c357806370480275146104dd57806375829def146104fd57610223565b806336568abe1161016f57806350d2a2761161013e57806350d2a276146103df578063550d01a31461042d5780635c60da1b1461045d5780635cc797d8146104a357610223565b806336568abe146103695780633659cfe61461038957806336fbad26146103a95780634a5df50f146103bf57610223565b806322985246116101ab57806322985246146102b7578063248a9ca3146102f957806324d7806c146103295780632f2ff15d1461034957610223565b806301ffc9a71461022d578063107046bd146102625780631785f53c1461029757610223565b366102235760405162461bcd60e51b815260206004820152601460248201527f63616e6e6f74207265636569766520457468657200000000000000000000000060448201526064015b60405180910390fd5b61022b610787565b005b34801561023957600080fd5b5061024d61024836600461173c565b610830565b60405190151581526020015b60405180910390f35b34801561026e57600080fd5b5061028261027d366004611766565b610867565b604051610259999897969594939291906117cf565b3480156102a357600080fd5b5061022b6102b2366004611854565b610955565b3480156102c357600080fd5b506102eb7ffb5864e8ff833c3cb2d2d08505e82ff02a43554c74a35d4f5a64e8526127831181565b604051908152602001610259565b34801561030557600080fd5b506102eb610314366004611766565b60009081526004602052604090206001015490565b34801561033557600080fd5b5061024d610344366004611854565b6109d0565b34801561035557600080fd5b5061022b61036436600461186f565b610a10565b34801561037557600080fd5b5061022b61038436600461186f565b610a35565b34801561039557600080fd5b5061022b6103a4366004611854565b610ac1565b3480156103b557600080fd5b506102eb60065481565b3480156103cb57600080fd5b5061022b6103da36600461189b565b610c1a565b3480156103eb57600080fd5b506104156103fa36600461173c565b6003602052600090815260409020546001600160a01b031681565b6040516001600160a01b039091168152602001610259565b34801561043957600080fd5b5061024d610448366004611854565b60026020526000908152604090205460ff1681565b34801561046957600080fd5b506000805260016020527fa6eef7e35abe7026729641147f7915573c7e97b47efa546f5f6e3230263bcb49546001600160a01b0316610415565b3480156104af57600080fd5b5061022b6104be36600461192f565b610ec7565b3480156104cf57600080fd5b5060005461024d9060ff1681565b3480156104e957600080fd5b5061022b6104f8366004611854565b610f1f565b34801561050957600080fd5b5061022b610518366004611854565b610f97565b34801561052957600080fd5b506102eb7fdf8b4c520ffe197c5343c6f5aec59570151ef9a492f2c624fd45ddde6135ec4281565b34801561055d57600080fd5b5061022b61056c366004611959565b6110e7565b34801561057d57600080fd5b5061022b61058c366004611974565b611148565b34801561059d57600080fd5b506104156105ac366004611766565b6111a1565b3480156105bd57600080fd5b506104156105cc36600461173c565b6111be565b3480156105dd57600080fd5b5061063c6105ec3660046119a7565b600a60205260009081526040902080546001909101546001600160a01b039182169181169063ffffffff740100000000000000000000000000000000000000008204811691600160c01b90041684565b604080516001600160a01b03958616815294909316602085015263ffffffff91821692840192909252166060820152608001610259565b34801561067f57600080fd5b5061024d61068e36600461186f565b60009182526004602090815260408084206001600160a01b0393909316845291905290205460ff1690565b3480156106c557600080fd5b506102eb6106d4366004611854565b60096020526000908152604090205481565b3480156106f257600080fd5b506102eb600081565b34801561070757600080fd5b506104156107163660046119a7565b6007602052600090815260409020546001600160a01b031681565b34801561073d57600080fd5b5061041561074c366004611766565b6001602052600090815260409020546001600160a01b031681565b34801561077357600080fd5b5061022b61078236600461186f565b6112ba565b600061079e6000356001600160e01b0319166111be565b90506001600160a01b038116158015906107bb575060005460ff16155b6108075760405162461bcd60e51b815260206004820152601d60248201527f50726f78793a20696d706c204f522070726f78792069732066616c7365000000604482015260640161021a565b3660008037600080366000845af43d6000803e808015610826573d6000f35b3d6000fd5b505050565b60006001600160e01b03198216637965db0b60e01b148061086157506301ffc9a760e01b6001600160e01b03198316145b92915050565b600860205260009081526040902080546001820154600283015460038401546004850154600586015460068701546007880180546001600160a01b039889169997891698968716979587169690941694929360ff80841694610100909404169291906108d2906119ca565b80601f01602080910402602001604051908101604052809291908181526020018280546108fe906119ca565b801561094b5780601f106109205761010080835404028352916020019161094b565b820191906000526020600020905b81548152906001019060200180831161092e57829003601f168201915b5050505050905089565b61095e336109d0565b6109a35760405162461bcd60e51b81526020600482015260226024820152600080516020611b3583398151915260448201526134b760f11b606482015260840161021a565b6109cd7fdf8b4c520ffe197c5343c6f5aec59570151ef9a492f2c624fd45ddde6135ec4282610a35565b50565b6001600160a01b03811660009081527f2fb794d17134dfdec181ddbac1babb5ab1eb140204ef4d982f294e7fc8b69022602052604081205460ff16610861565b600082815260046020526040902060010154610a2b816112df565b61082b83836112e9565b6001600160a01b0381163314610ab35760405162461bcd60e51b815260206004820152602f60248201527f416363657373436f6e74726f6c3a2063616e206f6e6c792072656e6f756e636560448201527f20726f6c657320666f722073656c660000000000000000000000000000000000606482015260840161021a565b610abd828261138b565b5050565b610aca336109d0565b610b0f5760405162461bcd60e51b81526020600482015260226024820152600080516020611b3583398151915260448201526134b760f11b606482015260840161021a565b6001600160a01b038116610b655760405162461bcd60e51b815260206004820152600d60248201527f696e707574206973207a65726f00000000000000000000000000000000000000604482015260640161021a565b6000805260016020527fa6eef7e35abe7026729641147f7915573c7e97b47efa546f5f6e3230263bcb49546001600160a01b03828116911603610bd65760405162461bcd60e51b815260206004820152600960248201526839b0b6b29030b2323960b91b604482015260640161021a565b610be3816000600161140e565b6040516001600160a01b038216907fbc7cd75a20ee27fd9adebab32041f755214dbc6bffa90cc0225b39da2e5c2d3b90600090a250565b610c23336109d0565b610c685760405162461bcd60e51b81526020600482015260226024820152600080516020611b3583398151915260448201526134b760f11b606482015260840161021a565b81610cb55760405162461bcd60e51b815260206004820181905260248201527f50726f78793a205f73656c6563746f727327732073697a65206973207a65726f604482015260640161021a565b6001600160a01b03811660009081526002602052604090205460ff16610d1d5760405162461bcd60e51b815260206004820152601860248201527f50726f78793a205f696d70206973206e6f7420616c6976650000000000000000604482015260640161021a565b60005b82811015610ec157816001600160a01b031660036000868685818110610d4857610d48611a04565b9050602002016020810190610d5d919061173c565b6001600160e01b03191681526020810191909152604001600020546001600160a01b031603610dce5760405162461bcd60e51b815260206004820152601d60248201527f4c69717569646974795661756c7450726f78793a2073616d6520696d70000000604482015260640161021a565b8160036000868685818110610de557610de5611a04565b9050602002016020810190610dfa919061173c565b6001600160e01b03191681526020810191909152604001600020805473ffffffffffffffffffffffffffffffffffffffff19166001600160a01b039283161790558216848483818110610e4f57610e4f611a04565b9050602002016020810190610e64919061173c565b7bffffffffffffffffffffffffffffffffffffffffffffffffffffffff19167f14ebc1c32aa68f4d766e89f3e546cee249f7df25183fc10ab1568d91c2ce9b7b60405160405180910390a380610eb981611a30565b915050610d20565b50505050565b610ed0336109d0565b610f155760405162461bcd60e51b81526020600482015260226024820152600080516020611b3583398151915260448201526134b760f11b606482015260840161021a565b610abd82826114a6565b610f28336109d0565b610f6d5760405162461bcd60e51b81526020600482015260226024820152600080516020611b3583398151915260448201526134b760f11b606482015260840161021a565b6109cd7fdf8b4c520ffe197c5343c6f5aec59570151ef9a492f2c624fd45ddde6135ec4282610a10565b610fa0336109d0565b610fe55760405162461bcd60e51b81526020600482015260226024820152600080516020611b3583398151915260448201526134b760f11b606482015260840161021a565b6001600160a01b03811661103b5760405162461bcd60e51b815260206004820152601860248201527f41636365737369626c653a207a65726f20616464726573730000000000000000604482015260640161021a565b6001600160a01b03811633036110935760405162461bcd60e51b815260206004820152601660248201527f41636365737369626c653a2073616d652061646d696e00000000000000000000604482015260640161021a565b6110bd7fdf8b4c520ffe197c5343c6f5aec59570151ef9a492f2c624fd45ddde6135ec4282610a10565b6109cd7fdf8b4c520ffe197c5343c6f5aec59570151ef9a492f2c624fd45ddde6135ec4233610a35565b6110f0336109d0565b6111355760405162461bcd60e51b81526020600482015260226024820152600080516020611b3583398151915260448201526134b760f11b606482015260840161021a565b6000805460ff1916911515919091179055565b611151336109d0565b6111965760405162461bcd60e51b81526020600482015260226024820152600080516020611b3583398151915260448201526134b760f11b606482015260840161021a565b61082b83838361140e565b6000818152600160205260408120546001600160a01b0316610861565b6001600160e01b031981166000908152600360205260408120546001600160a01b031661121e5750506000805260016020527fa6eef7e35abe7026729641147f7915573c7e97b47efa546f5f6e3230263bcb49546001600160a01b031690565b6001600160e01b031982166000908152600360209081526040808320546001600160a01b03168352600290915290205460ff161561127c57506001600160e01b0319166000908152600360205260409020546001600160a01b031690565b50506000805260016020527fa6eef7e35abe7026729641147f7915573c7e97b47efa546f5f6e3230263bcb49546001600160a01b031690565b919050565b6000828152600460205260409020600101546112d5816112df565b61082b838361138b565b6109cd8133611505565b60008281526004602090815260408083206001600160a01b038516845290915290205460ff16610abd5760008281526004602090815260408083206001600160a01b03851684529091529020805460ff191660011790556113473390565b6001600160a01b0316816001600160a01b0316837f2f8788117e7eff1d82e926ec794901d17c78024a50270940304540a733656f0d60405160405180910390a45050565b60008281526004602090815260408083206001600160a01b038516845290915290205460ff1615610abd5760008281526004602090815260408083206001600160a01b0385168085529252808320805460ff1916905551339285917ff6391f5c32d9c69d2a47ea670b442974b53935d1edc7fd64eb21e047a839171b9190a45050565b6001600160a01b0383163b6114655760405162461bcd60e51b815260206004820152601b60248201527f50726f78793a206e6f7420636f6e747261637420616464726573730000000000604482015260640161021a565b80156114a0576000828152600160205260409020805473ffffffffffffffffffffffffffffffffffffffff19166001600160a01b0385161790555b61082b83825b6001600160a01b038216600081815260026020908152604091829020805460ff191685151590811790915591519182527f72558d9bfba4210f9ef095c782589484151f6d90f7a81bb3cb9b33efc695d324910160405180910390a25050565b60008281526004602090815260408083206001600160a01b038516845290915290205460ff16610abd576115388161157a565b61154383602061158c565b604051602001611554929190611a49565b60408051601f198184030181529082905262461bcd60e51b825261021a91600401611aca565b60606108616001600160a01b03831660145b6060600061159b836002611add565b6115a6906002611af4565b67ffffffffffffffff8111156115be576115be611b07565b6040519080825280601f01601f1916602001820160405280156115e8576020820181803683370190505b509050600360fc1b8160008151811061160357611603611a04565b60200101906001600160f81b031916908160001a905350600f60fb1b8160018151811061163257611632611a04565b60200101906001600160f81b031916908160001a9053506000611656846002611add565b611661906001611af4565b90505b60018111156116e6577f303132333435363738396162636465660000000000000000000000000000000085600f16601081106116a2576116a2611a04565b1a60f81b8282815181106116b8576116b8611a04565b60200101906001600160f81b031916908160001a90535060049490941c936116df81611b1d565b9050611664565b5083156117355760405162461bcd60e51b815260206004820181905260248201527f537472696e67733a20686578206c656e67746820696e73756666696369656e74604482015260640161021a565b9392505050565b60006020828403121561174e57600080fd5b81356001600160e01b03198116811461173557600080fd5b60006020828403121561177857600080fd5b5035919050565b60005b8381101561179a578181015183820152602001611782565b50506000910152565b600081518084526117bb81602086016020860161177f565b601f01601f19169290920160200192915050565b60006101206001600160a01b03808d168452808c166020850152808b166040850152808a1660608501528089166080850152508660a084015260ff861660c084015260ff851660e08401528061010084015261182d818401856117a3565b9c9b505050505050505050505050565b80356001600160a01b03811681146112b557600080fd5b60006020828403121561186657600080fd5b6117358261183d565b6000806040838503121561188257600080fd5b823591506118926020840161183d565b90509250929050565b6000806000604084860312156118b057600080fd5b833567ffffffffffffffff808211156118c857600080fd5b818601915086601f8301126118dc57600080fd5b8135818111156118eb57600080fd5b8760208260051b850101111561190057600080fd5b602092830195509350611916918601905061183d565b90509250925092565b803580151581146112b557600080fd5b6000806040838503121561194257600080fd5b61194b8361183d565b91506118926020840161191f565b60006020828403121561196b57600080fd5b6117358261191f565b60008060006060848603121561198957600080fd5b6119928461183d565b9250602084013591506119166040850161191f565b6000602082840312156119b957600080fd5b813560ff8116811461173557600080fd5b600181811c908216806119de57607f821691505b6020821081036119fe57634e487b7160e01b600052602260045260246000fd5b50919050565b634e487b7160e01b600052603260045260246000fd5b634e487b7160e01b600052601160045260246000fd5b600060018201611a4257611a42611a1a565b5060010190565b7f416363657373436f6e74726f6c3a206163636f756e7420000000000000000000815260008351611a8181601785016020880161177f565b7f206973206d697373696e6720726f6c65200000000000000000000000000000006017918401918201528351611abe81602884016020880161177f565b01602801949350505050565b60208152600061173560208301846117a3565b808202811582820484141761086157610861611a1a565b8082018082111561086157610861611a1a565b634e487b7160e01b600052604160045260246000fd5b600081611b2c57611b2c611a1a565b50600019019056fe41636365737369626c653a2043616c6c6572206973206e6f7420616e2061646da164736f6c6343000812000adf8b4c520ffe197c5343c6f5aec59570151ef9a492f2c624fd45ddde6135ec42",
  "linkReferences": {},
  "deployedLinkReferences": {}
}