{
  "_format": "hh-sol-artifact-1",
  "contractName": "MockL2Messenger",
  "sourceName": "contracts/test/MockL2Messenger.sol",
  "abi": [
    {
      "inputs": [],
      "stateMutability": "nonpayable",
      "type": "constructor"
    },
    {
      "anonymous": false,
      "inputs": [
        {
          "indexed": true,
          "internalType": "address",
          "name": "target",
          "type": "address"
        },
        {
          "indexed": false,
          "internalType": "address",
          "name": "sender",
          "type": "address"
        },
        {
          "indexed": false,
          "internalType": "bytes",
          "name": "message",
          "type": "bytes"
        },
        {
          "indexed": false,
          "internalType": "uint256",
          "name": "messageNonce",
          "type": "uint256"
        }
      ],
      "name": "FailedRelayedMessage",
      "type": "event"
    },
    {
      "anonymous": false,
      "inputs": [
        {
          "indexed": true,
          "internalType": "address",
          "name": "target",
          "type": "address"
        },
        {
          "indexed": false,
          "internalType": "address",
          "name": "sender",
          "type": "address"
        },
        {
          "indexed": false,
          "internalType": "bytes",
          "name": "message",
          "type": "bytes"
        },
        {
          "indexed": false,
          "internalType": "uint256",
          "name": "messageNonce",
          "type": "uint256"
        }
      ],
      "name": "RelayedMessage",
      "type": "event"
    },
    {
      "inputs": [],
      "name": "l1CrossDomainMessenger",
      "outputs": [
        {
          "internalType": "address",
          "name": "",
          "type": "address"
        }
      ],
      "stateMutability": "view",
      "type": "function"
    },
    {
      "inputs": [],
      "name": "messageNonce",
      "outputs": [
        {
          "internalType": "uint256",
          "name": "",
          "type": "uint256"
        }
      ],
      "stateMutability": "view",
      "type": "function"
    },
    {
      "inputs": [
        {
          "internalType": "address",
          "name": "_target",
          "type": "address"
        },
        {
          "internalType": "address",
          "name": "_sender",
          "type": "address"
        },
        {
          "internalType": "bytes",
          "name": "_message",
          "type": "bytes"
        },
        {
          "internalType": "uint256",
          "name": "_messageNonce",
          "type": "uint256"
        }
      ],
      "name": "relayMessage",
      "outputs": [],
      "stateMutability": "nonpayable",
      "type": "function"
    },
    {
      "inputs": [],
      "name": "xDomainMessageSender",
      "outputs": [
        {
          "internalType": "address",
          "name": "",
          "type": "address"
        }
      ],
      "stateMutability": "view",
      "type": "function"
    }
  ],
  "bytecode": "0x608060405234801561001057600080fd5b50610409806100206000396000f3fe608060405234801561001057600080fd5b506004361061004c5760003560e01c80636e296e4514610051578063a711986914610076578063cbd4ece914610089578063ecc704281461009e575b600080fd5b6100596100b5565b6040516001600160a01b0390911681526020015b60405180910390f35b600254610059906001600160a01b031681565b61009c610097366004610297565b610124565b005b6100a760005481565b60405190815260200161006d565b6001546000906001600160a01b03166101145760405162461bcd60e51b815260206004820152601f60248201527f78446f6d61696e4d65737361676553656e646572206973206e6f742073657400604482015260640160405180910390fd5b506001546001600160a01b031690565b6001805473ffffffffffffffffffffffffffffffffffffffff19166001600160a01b0385811691909117909155604051600091861690610165908590610395565b6000604051808303816000865af19150503d80600081146101a2576040519150601f19603f3d011682016040523d82523d6000602084013e6101a7565b606091505b50506001805473ffffffffffffffffffffffffffffffffffffffff191690559050801561021857846001600160a01b03167ff77d5e215680ad3bd959cfe50b061882f87372d624f0b8a3902f9e28e26a0f4485858560405161020b939291906103b1565b60405180910390a261025e565b846001600160a01b03167fbb1b04e7ba678c8e5e1ec56b66250631575c321f7c2a13e4e5b3abb7f375af1b858585604051610255939291906103b1565b60405180910390a25b5050505050565b80356001600160a01b038116811461027c57600080fd5b919050565b634e487b7160e01b600052604160045260246000fd5b600080600080608085870312156102ad57600080fd5b6102b685610265565b93506102c460208601610265565b9250604085013567ffffffffffffffff808211156102e157600080fd5b818701915087601f8301126102f557600080fd5b81358181111561030757610307610281565b604051601f8201601f19908116603f0116810190838211818310171561032f5761032f610281565b816040528281528a602084870101111561034857600080fd5b826020860160208301376000928101602001929092525095989497509495606001359450505050565b60005b8381101561038c578181015183820152602001610374565b50506000910152565b600082516103a7818460208701610371565b9190910192915050565b6001600160a01b038416815260606020820152600083518060608401526103df816080850160208801610371565b604083019390935250601f91909101601f1916016080019291505056fea164736f6c6343000812000a",
  "linkReferences": {},
  "deployedLinkReferences": {}
}