{
  "_format": "hh-sol-artifact-1",
  "contractName": "LockIdStorage",
  "sourceName": "contracts/stos/LockIdStorage.sol",
  "abi": [
    {
      "inputs": [],
      "name": "MULTIPLIER",
      "outputs": [
        {
          "internalType": "uint256",
          "name": "",
          "type": "uint256"
        }
      ],
      "stateMutability": "view",
      "type": "function"
    },
    {
      "inputs": [],
      "name": "epochUnit",
      "outputs": [
        {
          "internalType": "uint256",
          "name": "",
          "type": "uint256"
        }
      ],
      "stateMutability": "view",
      "type": "function"
    },
    {
      "inputs": [
        {
          "internalType": "uint256",
          "name": "",
          "type": "uint256"
        }
      ],
      "name": "existedLockPeriod",
      "outputs": [
        {
          "internalType": "bool",
          "name": "",
          "type": "bool"
        }
      ],
      "stateMutability": "view",
      "type": "function"
    },
    {
      "inputs": [
        {
          "internalType": "uint256",
          "name": "",
          "type": "uint256"
        }
      ],
      "name": "indexCheckOfTimeset",
      "outputs": [
        {
          "internalType": "bool",
          "name": "",
          "type": "bool"
        }
      ],
      "stateMutability": "view",
      "type": "function"
    },
    {
      "inputs": [
        {
          "internalType": "uint256",
          "name": "",
          "type": "uint256"
        },
        {
          "internalType": "uint256",
          "name": "",
          "type": "uint256"
        }
      ],
      "name": "indexCheckOfTimesetForLockEnd",
      "outputs": [
        {
          "internalType": "bool",
          "name": "",
          "type": "bool"
        }
      ],
      "stateMutability": "view",
      "type": "function"
    },
    {
      "inputs": [
        {
          "internalType": "uint256",
          "name": "",
          "type": "uint256"
        }
      ],
      "name": "indexCheckOfTimesetForUnlimited",
      "outputs": [
        {
          "internalType": "bool",
          "name": "",
          "type": "bool"
        }
      ],
      "stateMutability": "view",
      "type": "function"
    },
    {
      "inputs": [
        {
          "internalType": "uint256",
          "name": "",
          "type": "uint256"
        }
      ],
      "name": "indexOfTimeset",
      "outputs": [
        {
          "internalType": "uint256",
          "name": "",
          "type": "uint256"
        }
      ],
      "stateMutability": "view",
      "type": "function"
    },
    {
      "inputs": [
        {
          "internalType": "uint256",
          "name": "",
          "type": "uint256"
        },
        {
          "internalType": "uint256",
          "name": "",
          "type": "uint256"
        }
      ],
      "name": "indexOfTimesetForLockEnd",
      "outputs": [
        {
          "internalType": "uint256",
          "name": "",
          "type": "uint256"
        }
      ],
      "stateMutability": "view",
      "type": "function"
    },
    {
      "inputs": [
        {
          "internalType": "uint256",
          "name": "",
          "type": "uint256"
        }
      ],
      "name": "indexOfTimesetForUnlimited",
      "outputs": [
        {
          "internalType": "uint256",
          "name": "",
          "type": "uint256"
        }
      ],
      "stateMutability": "view",
      "type": "function"
    },
    {
      "inputs": [
        {
          "internalType": "uint256",
          "name": "",
          "type": "uint256"
        }
      ],
      "name": "lockIdInfos",
      "outputs": [
        {
          "internalType": "uint256",
          "name": "start",
          "type": "uint256"
        },
        {
          "internalType": "uint256",
          "name": "end",
          "type": "uint256"
        },
        {
          "internalType": "uint256",
          "name": "amount",
          "type": "uint256"
        },
        {
          "internalType": "uint256",
          "name": "withdrawlTime",
          "type": "uint256"
        }
      ],
      "stateMutability": "view",
      "type": "function"
    },
    {
      "inputs": [
        {
          "internalType": "uint256",
          "name": "",
          "type": "uint256"
        }
      ],
      "name": "lockPeriod",
      "outputs": [
        {
          "internalType": "uint256",
          "name": "",
          "type": "uint256"
        }
      ],
      "stateMutability": "view",
      "type": "function"
    },
    {
      "inputs": [],
      "name": "maxTime",
      "outputs": [
        {
          "internalType": "uint256",
          "name": "",
          "type": "uint256"
        }
      ],
      "stateMutability": "view",
      "type": "function"
    },
    {
      "inputs": [],
      "name": "maxTokenId",
      "outputs": [
        {
          "internalType": "uint256",
          "name": "",
          "type": "uint256"
        }
      ],
      "stateMutability": "view",
      "type": "function"
    },
    {
      "inputs": [
        {
          "internalType": "uint256",
          "name": "",
          "type": "uint256"
        },
        {
          "internalType": "uint256",
          "name": "",
          "type": "uint256"
        }
      ],
      "name": "pointHistoryByLockId",
      "outputs": [
        {
          "internalType": "int256",
          "name": "slope",
          "type": "int256"
        },
        {
          "internalType": "int256",
          "name": "bias",
          "type": "int256"
        },
        {
          "internalType": "uint256",
          "name": "timestamp",
          "type": "uint256"
        }
      ],
      "stateMutability": "view",
      "type": "function"
    },
    {
      "inputs": [
        {
          "internalType": "uint256",
          "name": "",
          "type": "uint256"
        },
        {
          "internalType": "uint256",
          "name": "",
          "type": "uint256"
        }
      ],
      "name": "pointHistoryByWeek",
      "outputs": [
        {
          "internalType": "int256",
          "name": "slope",
          "type": "int256"
        },
        {
          "internalType": "int256",
          "name": "bias",
          "type": "int256"
        },
        {
          "internalType": "uint256",
          "name": "timestamp",
          "type": "uint256"
        }
      ],
      "stateMutability": "view",
      "type": "function"
    },
    {
      "inputs": [
        {
          "internalType": "uint256",
          "name": "",
          "type": "uint256"
        },
        {
          "internalType": "uint256",
          "name": "",
          "type": "uint256"
        }
      ],
      "name": "slopeByLockEndTime",
      "outputs": [
        {
          "internalType": "int256",
          "name": "",
          "type": "int256"
        }
      ],
      "stateMutability": "view",
      "type": "function"
    },
    {
      "inputs": [],
      "name": "tos",
      "outputs": [
        {
          "internalType": "address",
          "name": "",
          "type": "address"
        }
      ],
      "stateMutability": "view",
      "type": "function"
    },
    {
      "inputs": [
        {
          "internalType": "address",
          "name": "",
          "type": "address"
        },
        {
          "internalType": "uint256",
          "name": "",
          "type": "uint256"
        }
      ],
      "name": "unlimitedAmountByAccount",
      "outputs": [
        {
          "internalType": "uint32",
          "name": "timestamp",
          "type": "uint32"
        },
        {
          "internalType": "uint256",
          "name": "amount",
          "type": "uint256"
        }
      ],
      "stateMutability": "view",
      "type": "function"
    },
    {
      "inputs": [
        {
          "internalType": "uint256",
          "name": "",
          "type": "uint256"
        },
        {
          "internalType": "uint256",
          "name": "",
          "type": "uint256"
        }
      ],
      "name": "unlimitedHistoryByWeek",
      "outputs": [
        {
          "internalType": "uint32",
          "name": "timestamp",
          "type": "uint32"
        },
        {
          "internalType": "uint256",
          "name": "amount",
          "type": "uint256"
        }
      ],
      "stateMutability": "view",
      "type": "function"
    }
  ],
  "bytecode": "0x608060405234801561001057600080fd5b50610563806100206000396000f3fe608060405234801561001057600080fd5b50600436106101515760003560e01c80638e9d05bc116100cd578063d0fef6d911610081578063ef27c77311610066578063ef27c77314610343578063fd2dcecf14610356578063fea3d59d1461035f57600080fd5b8063d0fef6d914610305578063e178ee201461033057600080fd5b8063993b6ef9116100b2578063993b6ef9146102bc578063b8355a4b146102cf578063cea823cd146102e257600080fd5b80638e9d05bc1461029057806391ba317a146102b357600080fd5b806334ee79c8116101245780637267ad63116101095780637267ad6314610213578063872d01091461024257806389f395de1461026557600080fd5b806334ee79c8146101c25780637207e7431461020057600080fd5b8063059f8b161461015657806310c113601461017857806322e67e711461018b57806328f02c6814610194575b600080fd5b610165670de0b6b3a764000081565b6040519081526020015b60405180910390f35b6101656101863660046104e3565b6103b4565b61016560025481565b6101a76101a23660046104fc565b6103d5565b6040805193845260208401929092529082015260600161016f565b6101f06101d03660046104fc565b601160209081526000928352604080842090915290825290205460ff1681565b604051901515815260200161016f565b61016561020e3660046104fc565b610417565b6102266102213660046104fc565b610448565b6040805163ffffffff909316835260208301919091520161016f565b6101f06102503660046104e3565b600c6020526000908152604090205460ff1681565b600054610278906001600160a01b031681565b6040516001600160a01b03909116815260200161016f565b6101f061029e3660046104e3565b600e6020526000908152604090205460ff1681565b61016560035481565b6102266102ca36600461051e565b61048b565b6101656102dd3660046104e3565b6104a7565b6101f06102f03660046104e3565b60096020526000908152604090205460ff1681565b6101656103133660046104fc565b600f60209081526000928352604080842090915290825290205481565b6101a761033e3660046104fc565b6104b7565b6101656103513660046104e3565b6104d3565b61016560015481565b61039461036d3660046104e3565b60046020526000908152604090208054600182015460028301546003909301549192909184565b60408051948552602085019390935291830152606082015260800161016f565b600881815481106103c457600080fd5b600091825260209091200154905081565b600660205281600052604060002081815481106103f157600080fd5b600091825260209091206003909102018054600182015460029092015490935090915083565b6010602052816000526040600020818154811061043357600080fd5b90600052602060002001600091509150505481565b6007602052816000526040600020818154811061046457600080fd5b60009182526020909120600290910201805460019091015463ffffffff9091169250905082565b600a602052816000526040600020818154811061046457600080fd5b600b81815481106103c457600080fd5b600560205281600052604060002081815481106103f157600080fd5b600d81815481106103c457600080fd5b6000602082840312156104f557600080fd5b5035919050565b6000806040838503121561050f57600080fd5b50508035926020909101359150565b6000806040838503121561053157600080fd5b82356001600160a01b038116811461054857600080fd5b94602093909301359350505056fea164736f6c6343000812000a",
  "linkReferences": {},
  "deployedLinkReferences": {}
}