{
  "_format": "hh-sol-artifact-1",
  "contractName": "LockIdStorage",
  "sourceName": "contracts/stos/LockIdStorage.sol",
  "abi": [
    {
      "inputs": [],
      "name": "MULTIPLIER",
      "outputs": [
        {
          "internalType": "uint256",
          "name": "",
          "type": "uint256"
        }
      ],
      "stateMutability": "view",
      "type": "function"
    },
    {
      "inputs": [],
      "name": "epochUnit",
      "outputs": [
        {
          "internalType": "uint256",
          "name": "",
          "type": "uint256"
        }
      ],
      "stateMutability": "view",
      "type": "function"
    },
    {
      "inputs": [
        {
          "internalType": "uint256",
          "name": "",
          "type": "uint256"
        }
      ],
      "name": "indexCheckOfTimeset",
      "outputs": [
        {
          "internalType": "bool",
          "name": "",
          "type": "bool"
        }
      ],
      "stateMutability": "view",
      "type": "function"
    },
    {
      "inputs": [
        {
          "internalType": "uint256",
          "name": "",
          "type": "uint256"
        }
      ],
      "name": "indexOfTimeset",
      "outputs": [
        {
          "internalType": "uint256",
          "name": "",
          "type": "uint256"
        }
      ],
      "stateMutability": "view",
      "type": "function"
    },
    {
      "inputs": [
        {
          "internalType": "uint256",
          "name": "",
          "type": "uint256"
        }
      ],
      "name": "lockIdInfos",
      "outputs": [
        {
          "internalType": "uint256",
          "name": "start",
          "type": "uint256"
        },
        {
          "internalType": "uint256",
          "name": "end",
          "type": "uint256"
        },
        {
          "internalType": "uint256",
          "name": "amount",
          "type": "uint256"
        },
        {
          "internalType": "address",
          "name": "owner",
          "type": "address"
        },
        {
          "internalType": "bool",
          "name": "withdrawn",
          "type": "bool"
        }
      ],
      "stateMutability": "view",
      "type": "function"
    },
    {
      "inputs": [],
      "name": "maxTime",
      "outputs": [
        {
          "internalType": "uint256",
          "name": "",
          "type": "uint256"
        }
      ],
      "stateMutability": "view",
      "type": "function"
    },
    {
      "inputs": [],
      "name": "maxTokenId",
      "outputs": [
        {
          "internalType": "uint256",
          "name": "",
          "type": "uint256"
        }
      ],
      "stateMutability": "view",
      "type": "function"
    },
    {
      "inputs": [
        {
          "internalType": "uint256",
          "name": "",
          "type": "uint256"
        },
        {
          "internalType": "uint256",
          "name": "",
          "type": "uint256"
        }
      ],
      "name": "pointHistoryByLockId",
      "outputs": [
        {
          "internalType": "int256",
          "name": "slope",
          "type": "int256"
        },
        {
          "internalType": "int256",
          "name": "bias",
          "type": "int256"
        },
        {
          "internalType": "uint256",
          "name": "timestamp",
          "type": "uint256"
        }
      ],
      "stateMutability": "view",
      "type": "function"
    },
    {
      "inputs": [
        {
          "internalType": "uint256",
          "name": "",
          "type": "uint256"
        },
        {
          "internalType": "uint256",
          "name": "",
          "type": "uint256"
        }
      ],
      "name": "pointHistoryByWeek",
      "outputs": [
        {
          "internalType": "int256",
          "name": "slope",
          "type": "int256"
        },
        {
          "internalType": "int256",
          "name": "bias",
          "type": "int256"
        },
        {
          "internalType": "uint256",
          "name": "timestamp",
          "type": "uint256"
        }
      ],
      "stateMutability": "view",
      "type": "function"
    },
    {
      "inputs": [],
      "name": "tos",
      "outputs": [
        {
          "internalType": "address",
          "name": "",
          "type": "address"
        }
      ],
      "stateMutability": "view",
      "type": "function"
    }
  ],
  "bytecode": "0x608060405234801561001057600080fd5b50610307806100206000396000f3fe608060405234801561001057600080fd5b50600436106100be5760003560e01c806391ba317a11610076578063e178ee201161005b578063e178ee2014610196578063fd2dcecf146101a9578063fea3d59d146101b257600080fd5b806391ba317a1461015a578063cea823cd1461016357600080fd5b806322e67e71116100a757806322e67e71146100f857806328f02c681461010157806389f395de1461012f57600080fd5b8063059f8b16146100c357806310c11360146100e5575b600080fd5b6100d2670de0b6b3a764000081565b6040519081526020015b60405180910390f35b6100d26100f33660046102bf565b610240565b6100d260025481565b61011461010f3660046102d8565b610261565b604080519384526020840192909252908201526060016100dc565b600054610142906001600160a01b031681565b6040516001600160a01b0390911681526020016100dc565b6100d260035481565b6101866101713660046102bf565b60086020526000908152604090205460ff1681565b60405190151581526020016100dc565b6101146101a43660046102d8565b6102a3565b6100d260015481565b61020d6101c03660046102bf565b6004602052600090815260409020805460018201546002830154600390930154919290916001600160a01b0381169074010000000000000000000000000000000000000000900460ff1685565b604080519586526020860194909452928401919091526001600160a01b031660608301521515608082015260a0016100dc565b6007818154811061025057600080fd5b600091825260209091200154905081565b6006602052816000526040600020818154811061027d57600080fd5b600091825260209091206003909102018054600182015460029092015490935090915083565b6005602052816000526040600020818154811061027d57600080fd5b6000602082840312156102d157600080fd5b5035919050565b600080604083850312156102eb57600080fd5b5050803592602090910135915056fea164736f6c6343000812000a",
  "linkReferences": {},
  "deployedLinkReferences": {}
}