{
  "_format": "hh-sol-artifact-1",
  "contractName": "MockL1Bridge",
  "sourceName": "contracts/test/MockL1Bridge.sol",
  "abi": [
    {
      "inputs": [],
      "stateMutability": "nonpayable",
      "type": "constructor"
    },
    {
      "anonymous": false,
      "inputs": [
        {
          "indexed": true,
          "internalType": "address",
          "name": "_l1Token",
          "type": "address"
        },
        {
          "indexed": true,
          "internalType": "address",
          "name": "_l2Token",
          "type": "address"
        },
        {
          "indexed": true,
          "internalType": "address",
          "name": "_from",
          "type": "address"
        },
        {
          "indexed": false,
          "internalType": "address",
          "name": "_to",
          "type": "address"
        },
        {
          "indexed": false,
          "internalType": "uint256",
          "name": "_amount",
          "type": "uint256"
        },
        {
          "indexed": false,
          "internalType": "bytes",
          "name": "_data",
          "type": "bytes"
        }
      ],
      "name": "ERC20DepositInitiated",
      "type": "event"
    },
    {
      "anonymous": false,
      "inputs": [
        {
          "indexed": true,
          "internalType": "address",
          "name": "previousOwner",
          "type": "address"
        },
        {
          "indexed": true,
          "internalType": "address",
          "name": "newOwner",
          "type": "address"
        }
      ],
      "name": "OwnershipTransferred",
      "type": "event"
    },
    {
      "inputs": [
        {
          "internalType": "address",
          "name": "_l1Token",
          "type": "address"
        },
        {
          "internalType": "address",
          "name": "_l2Token",
          "type": "address"
        },
        {
          "internalType": "uint256",
          "name": "_amount",
          "type": "uint256"
        },
        {
          "internalType": "uint32",
          "name": "_l2Gas",
          "type": "uint32"
        },
        {
          "internalType": "bytes",
          "name": "_data",
          "type": "bytes"
        }
      ],
      "name": "depositERC20",
      "outputs": [],
      "stateMutability": "nonpayable",
      "type": "function"
    },
    {
      "inputs": [
        {
          "internalType": "address",
          "name": "_l1Token",
          "type": "address"
        },
        {
          "internalType": "address",
          "name": "_l2Token",
          "type": "address"
        },
        {
          "internalType": "address",
          "name": "_to",
          "type": "address"
        },
        {
          "internalType": "uint256",
          "name": "_amount",
          "type": "uint256"
        },
        {
          "internalType": "uint32",
          "name": "_l2Gas",
          "type": "uint32"
        },
        {
          "internalType": "bytes",
          "name": "_data",
          "type": "bytes"
        }
      ],
      "name": "depositERC20To",
      "outputs": [],
      "stateMutability": "nonpayable",
      "type": "function"
    },
    {
      "inputs": [
        {
          "internalType": "address",
          "name": "",
          "type": "address"
        },
        {
          "internalType": "address",
          "name": "",
          "type": "address"
        }
      ],
      "name": "deposits",
      "outputs": [
        {
          "internalType": "uint256",
          "name": "",
          "type": "uint256"
        }
      ],
      "stateMutability": "view",
      "type": "function"
    },
    {
      "inputs": [
        {
          "internalType": "address",
          "name": "_l1Token",
          "type": "address"
        },
        {
          "internalType": "address",
          "name": "_l2Token",
          "type": "address"
        },
        {
          "internalType": "address",
          "name": "_from",
          "type": "address"
        },
        {
          "internalType": "address",
          "name": "_to",
          "type": "address"
        },
        {
          "internalType": "uint256",
          "name": "_amount",
          "type": "uint256"
        },
        {
          "internalType": "bytes",
          "name": "_data",
          "type": "bytes"
        },
        {
          "internalType": "uint256",
          "name": "_nonce",
          "type": "uint256"
        }
      ],
      "name": "finalizeERC20Withdrawal",
      "outputs": [],
      "stateMutability": "nonpayable",
      "type": "function"
    },
    {
      "inputs": [],
      "name": "l1Messenger",
      "outputs": [
        {
          "internalType": "address",
          "name": "",
          "type": "address"
        }
      ],
      "stateMutability": "view",
      "type": "function"
    },
    {
      "inputs": [],
      "name": "l2TokenBridge",
      "outputs": [
        {
          "internalType": "address",
          "name": "",
          "type": "address"
        }
      ],
      "stateMutability": "view",
      "type": "function"
    },
    {
      "inputs": [],
      "name": "owner",
      "outputs": [
        {
          "internalType": "address",
          "name": "",
          "type": "address"
        }
      ],
      "stateMutability": "view",
      "type": "function"
    },
    {
      "inputs": [],
      "name": "renounceOwnership",
      "outputs": [],
      "stateMutability": "nonpayable",
      "type": "function"
    },
    {
      "inputs": [
        {
          "internalType": "address",
          "name": "_l1Messenger",
          "type": "address"
        },
        {
          "internalType": "address",
          "name": "_l2TokenBridge",
          "type": "address"
        }
      ],
      "name": "setAddress",
      "outputs": [],
      "stateMutability": "nonpayable",
      "type": "function"
    },
    {
      "inputs": [
        {
          "internalType": "address",
          "name": "newOwner",
          "type": "address"
        }
      ],
      "name": "transferOwnership",
      "outputs": [],
      "stateMutability": "nonpayable",
      "type": "function"
    }
  ],
  "bytecode": "0x608060405234801561001057600080fd5b5061001a3361001f565b61006f565b600080546001600160a01b038381166001600160a01b0319831681178455604051919092169283917f8be0079c531659141344cd1fd0a4f28419497f9722a3daafe3b4186f6b6457e09190a35050565b6110178061007e6000396000f3fe608060405234801561001057600080fd5b50600436106100be5760003560e01c80638da5cb5b1161007657806390d613b21161005b57806390d613b21461018057806391c49bf814610193578063f2fde38b146101a657600080fd5b80638da5cb5b146101365780638f601f661461014757600080fd5b80636140e0e6116100a75780636140e0e6146100eb578063715018a61461011b578063838b25201461012357600080fd5b80633b58524d146100c357806358a997f6146100d8575b600080fd5b6100d66100d1366004610b5f565b6101b9565b005b6100d66100e6366004610bef565b6101fc565b6001546100fe906001600160a01b031681565b6040516001600160a01b0390911681526020015b60405180910390f35b6100d6610268565b6100d6610131366004610c6e565b61027c565b6000546001600160a01b03166100fe565b610172610155366004610b5f565b600360209081526000928352604080842090915290825290205481565b604051908152602001610112565b6100d661018e366004610d14565b610295565b6002546100fe906001600160a01b031681565b6100d66101b4366004610e1b565b6105e0565b6101c1610659565b600180546001600160a01b0393841673ffffffffffffffffffffffffffffffffffffffff199182161790915560028054929093169116179055565b333b156102505760405162461bcd60e51b815260206004820152600f60248201527f4163636f756e74206e6f7420454f41000000000000000000000000000000000060448201526064015b60405180910390fd5b61026086863333888888886106b3565b505050505050565b610270610659565b61027a60006107de565b565b61028c87873388888888886106b3565b50505050505050565b600063a9f9e67560e01b8888888888886040516024016102ba96959493929190610e8d565b60408051601f198184030181529181526020820180516001600160e01b03166001600160e01b031990941693909317909252600254915190925060009163cbd4ece960e01b9161031e9130916001600160a01b039091169086908890602401610edb565b60408051601f198184030181529181526020820180516001600160e01b03166001600160e01b03199094169390931783528151909220600154925163b1b1b20960e01b8152919350916001600160a01b03169063b1b1b2099061038990849060040190815260200190565b602060405180830381865afa1580156103a6573d6000803e3d6000fd5b505050506040513d601f19601f820116820180604052508101906103ca9190610f18565b156104175760405162461bcd60e51b815260206004820152600c60248201527f616c726561647920646f6e6500000000000000000000000000000000000000006044820152606401610247565b6040516370a0823160e01b81523060048201526000906001600160a01b038c16906370a0823190602401602060405180830381865afa15801561045e573d6000803e3d6000fd5b505050506040513d601f19601f820116820180604052508101906104829190610f3a565b9050868110156104d45760405162461bcd60e51b815260206004820152601760248201527f62616c616e636520697320696e73756666696369656e740000000000000000006044820152606401610247565b6001600160a01b03808c166000908152600360209081526040808320938e1683529290522054871015610559576001600160a01b03808c166000908152600360209081526040808320938e1683529290522054610532908890610f69565b6001600160a01b03808d166000908152600360209081526040808320938f16835292905220555b6001805460405163292200a960e01b81526004810185905260248101929092526001600160a01b03169063292200a990604401600060405180830381600087803b1580156105a657600080fd5b505af11580156105ba573d6000803e3d6000fd5b506105d3925050506001600160a01b038c16898961083b565b5050505050505050505050565b6105e8610659565b6001600160a01b03811661064d5760405162461bcd60e51b815260206004820152602660248201527f4f776e61626c653a206e6577206f776e657220697320746865207a65726f206160448201526564647265737360d01b6064820152608401610247565b610656816107de565b50565b6000546001600160a01b0316331461027a5760405162461bcd60e51b815260206004820181905260248201527f4f776e61626c653a2063616c6c6572206973206e6f7420746865206f776e65726044820152606401610247565b6106c86001600160a01b0389168730876108a3565b600254604051630d41ee5b60e41b81526001600160a01b0389811660048301528781166024830152604482018790529091169063d41ee5b090606401600060405180830381600087803b15801561071e57600080fd5b505af1158015610732573d6000803e3d6000fd5b5050506001600160a01b03808a166000908152600360209081526040808320938c168352929052205461076791508590610f82565b6001600160a01b03808a1660008181526003602090815260408083208d8616808552925291829020949094555191891692917f718594027abd4eaed59f95162563e0cc6d0e8d5b86b1c7be8b1b0ac3343d0396906107cc908a908a9089908990610f95565b60405180910390a45050505050505050565b600080546001600160a01b0383811673ffffffffffffffffffffffffffffffffffffffff19831681178455604051919092169283917f8be0079c531659141344cd1fd0a4f28419497f9722a3daafe3b4186f6b6457e09190a35050565b6040516001600160a01b03831660248201526044810182905261089e90849063a9059cbb60e01b906064015b60408051601f198184030181529190526020810180516001600160e01b03166001600160e01b0319909316929092179091526108e1565b505050565b6040516001600160a01b03808516602483015283166044820152606481018290526108db9085906323b872dd60e01b90608401610867565b50505050565b6000610936826040518060400160405280602081526020017f5361666545524332303a206c6f772d6c6576656c2063616c6c206661696c6564815250856001600160a01b03166109b39092919063ffffffff16565b80519091501561089e57808060200190518101906109549190610f18565b61089e5760405162461bcd60e51b815260206004820152602a60248201527f5361666545524332303a204552433230206f7065726174696f6e20646964206e6044820152691bdd081cdd58d8d9595960b21b6064820152608401610247565b60606109c284846000856109ca565b949350505050565b606082471015610a2b5760405162461bcd60e51b815260206004820152602660248201527f416464726573733a20696e73756666696369656e742062616c616e636520666f6044820152651c8818d85b1b60d21b6064820152608401610247565b600080866001600160a01b03168587604051610a479190610fdb565b60006040518083038185875af1925050503d8060008114610a84576040519150601f19603f3d011682016040523d82523d6000602084013e610a89565b606091505b5091509150610a9a87838387610aa5565b979650505050505050565b60608315610b14578251600003610b0d576001600160a01b0385163b610b0d5760405162461bcd60e51b815260206004820152601d60248201527f416464726573733a2063616c6c20746f206e6f6e2d636f6e74726163740000006044820152606401610247565b50816109c2565b6109c28383815115610b295781518083602001fd5b8060405162461bcd60e51b81526004016102479190610ff7565b80356001600160a01b0381168114610b5a57600080fd5b919050565b60008060408385031215610b7257600080fd5b610b7b83610b43565b9150610b8960208401610b43565b90509250929050565b803563ffffffff81168114610b5a57600080fd5b60008083601f840112610bb857600080fd5b50813567ffffffffffffffff811115610bd057600080fd5b602083019150836020828501011115610be857600080fd5b9250929050565b60008060008060008060a08789031215610c0857600080fd5b610c1187610b43565b9550610c1f60208801610b43565b945060408701359350610c3460608801610b92565b9250608087013567ffffffffffffffff811115610c5057600080fd5b610c5c89828a01610ba6565b979a9699509497509295939492505050565b600080600080600080600060c0888a031215610c8957600080fd5b610c9288610b43565b9650610ca060208901610b43565b9550610cae60408901610b43565b945060608801359350610cc360808901610b92565b925060a088013567ffffffffffffffff811115610cdf57600080fd5b610ceb8a828b01610ba6565b989b979a50959850939692959293505050565b634e487b7160e01b600052604160045260246000fd5b600080600080600080600060e0888a031215610d2f57600080fd5b610d3888610b43565b9650610d4660208901610b43565b9550610d5460408901610b43565b9450610d6260608901610b43565b93506080880135925060a088013567ffffffffffffffff80821115610d8657600080fd5b818a0191508a601f830112610d9a57600080fd5b813581811115610dac57610dac610cfe565b604051601f8201601f19908116603f01168101908382118183101715610dd457610dd4610cfe565b816040528281528d6020848701011115610ded57600080fd5b82602086016020830137600060208483010152809650505050505060c0880135905092959891949750929550565b600060208284031215610e2d57600080fd5b610e3682610b43565b9392505050565b60005b83811015610e58578181015183820152602001610e40565b50506000910152565b60008151808452610e79816020860160208601610e3d565b601f01601f19169290920160200192915050565b60006001600160a01b0380891683528088166020840152808716604084015280861660608401525083608083015260c060a0830152610ecf60c0830184610e61565b98975050505050505050565b60006001600160a01b03808716835280861660208401525060806040830152610f076080830185610e61565b905082606083015295945050505050565b600060208284031215610f2a57600080fd5b81518015158114610e3657600080fd5b600060208284031215610f4c57600080fd5b5051919050565b634e487b7160e01b600052601160045260246000fd5b81810381811115610f7c57610f7c610f53565b92915050565b80820180821115610f7c57610f7c610f53565b6001600160a01b038516815283602082015260606040820152816060820152818360808301376000818301608090810191909152601f909201601f191601019392505050565b60008251610fed818460208701610e3d565b9190910192915050565b602081526000610e366020830184610e6156fea164736f6c6343000812000a",
  "linkReferences": {},
  "deployedLinkReferences": {}
}