{
  "_format": "hh-sol-artifact-1",
  "contractName": "L1ERC20B_TokenFactory",
  "sourceName": "contracts/L1/factory/L1ERC20B_TokenFactory.sol",
  "abi": [
    {
      "anonymous": false,
      "inputs": [
        {
          "indexed": false,
          "internalType": "address",
          "name": "contractAddress",
          "type": "address"
        },
        {
          "indexed": false,
          "internalType": "string",
          "name": "name",
          "type": "string"
        },
        {
          "indexed": false,
          "internalType": "string",
          "name": "symbol",
          "type": "string"
        },
        {
          "indexed": false,
          "internalType": "uint256",
          "name": "initialSupply",
          "type": "uint256"
        },
        {
          "indexed": false,
          "internalType": "address",
          "name": "owner",
          "type": "address"
        }
      ],
      "name": "CreatedERC20B",
      "type": "event"
    },
    {
      "inputs": [
        {
          "internalType": "string",
          "name": "name",
          "type": "string"
        },
        {
          "internalType": "string",
          "name": "symbol",
          "type": "string"
        },
        {
          "internalType": "uint256",
          "name": "initialSupply",
          "type": "uint256"
        },
        {
          "internalType": "address",
          "name": "owner",
          "type": "address"
        }
      ],
      "name": "create",
      "outputs": [
        {
          "internalType": "address",
          "name": "",
          "type": "address"
        }
      ],
      "stateMutability": "nonpayable",
      "type": "function"
    },
    {
      "inputs": [
        {
          "internalType": "uint256",
          "name": "",
          "type": "uint256"
        }
      ],
      "name": "createdContracts",
      "outputs": [
        {
          "internalType": "address",
          "name": "contractAddress",
          "type": "address"
        },
        {
          "internalType": "string",
          "name": "name",
          "type": "string"
        },
        {
          "internalType": "string",
          "name": "symbol",
          "type": "string"
        }
      ],
      "stateMutability": "view",
      "type": "function"
    },
    {
      "inputs": [
        {
          "internalType": "uint256",
          "name": "_index",
          "type": "uint256"
        }
      ],
      "name": "getContracts",
      "outputs": [
        {
          "internalType": "address",
          "name": "contractAddress",
          "type": "address"
        },
        {
          "internalType": "string",
          "name": "name",
          "type": "string"
        },
        {
          "internalType": "string",
          "name": "symbol",
          "type": "string"
        }
      ],
      "stateMutability": "view",
      "type": "function"
    },
    {
      "inputs": [],
      "name": "lastestCreated",
      "outputs": [
        {
          "internalType": "address",
          "name": "contractAddress",
          "type": "address"
        },
        {
          "internalType": "string",
          "name": "name",
          "type": "string"
        },
        {
          "internalType": "string",
          "name": "symbol",
          "type": "string"
        }
      ],
      "stateMutability": "view",
      "type": "function"
    },
    {
      "inputs": [],
      "name": "totalCreatedContracts",
      "outputs": [
        {
          "internalType": "uint256",
          "name": "",
          "type": "uint256"
        }
      ],
      "stateMutability": "view",
      "type": "function"
    }
  ],
  "bytecode": "0x608060405234801561001057600080fd5b5060008055612d82806100246000396000f3fe60806040523480156200001157600080fd5b50600436106200006f5760003560e01c8063439e23fd1162000056578063439e23fd14620000af5780634692ed6714620000c6578063d052618714620000f657600080fd5b8063088113971462000074578063338bad5f14620000a5575b600080fd5b6200008b62000085366004620008c9565b6200010f565b6040516200009c939291906200092b565b60405180910390f35b6200008b6200025d565b6200008b620000c0366004620008c9565b62000441565b620000dd620000d7366004620009b9565b620005d7565b6040516001600160a01b0390911681526020016200009c565b6200010060005481565b6040519081526020016200009c565b6001602081905260009182526040909120805491810180546001600160a01b03909316926200013e9062000a59565b80601f01602080910402602001604051908101604052809291908181526020018280546200016c9062000a59565b8015620001bd5780601f106200019157610100808354040283529160200191620001bd565b820191906000526020600020905b8154815290600101906020018083116200019f57829003601f168201915b505050505090806002018054620001d49062000a59565b80601f0160208091040260200160405190810160405280929190818152602001828054620002029062000a59565b8015620002535780601f10620002275761010080835404028352916020019162000253565b820191906000526020600020905b8154815290600101906020018083116200023557829003601f168201915b5050505050905083565b60006060806000805411156200041d5760016000600160005462000282919062000aab565b8152602081019190915260400160009081205481546001600160a01b0390911691600191620002b390839062000aab565b8152602001908152602001600020600101600160006001600054620002d9919062000aab565b8152602001908152602001600020600201818054620002f89062000a59565b80601f0160208091040260200160405190810160405280929190818152602001828054620003269062000a59565b8015620003775780601f106200034b5761010080835404028352916020019162000377565b820191906000526020600020905b8154815290600101906020018083116200035957829003601f168201915b505050505091508080546200038c9062000a59565b80601f0160208091040260200160405190810160405280929190818152602001828054620003ba9062000a59565b80156200040b5780601f10620003df576101008083540402835291602001916200040b565b820191906000526020600020905b815481529060010190602001808311620003ed57829003601f168201915b50505050509050925092509250909192565b50506040805160208082018352600080835283519182019093528281529193909250565b6000606080600054841015620005ae576000848152600160208190526040909120805491810180546001600160a01b03909316929091600201908290620004889062000a59565b80601f0160208091040260200160405190810160405280929190818152602001828054620004b69062000a59565b8015620005075780601f10620004db5761010080835404028352916020019162000507565b820191906000526020600020905b815481529060010190602001808311620004e957829003601f168201915b505050505091508080546200051c9062000a59565b80601f01602080910402602001604051908101604052809291908181526020018280546200054a9062000a59565b80156200059b5780601f106200056f576101008083540402835291602001916200059b565b820191906000526020600020905b8154815290600101906020018083116200057d57829003601f168201915b50505050509050925092509250620005d0565b5050604080516020808201835260008083528351918201909352828152919250905b9193909250565b60006001600160a01b038216620006355760405162461bcd60e51b815260206004820152601560248201527f6f776e65722061646472657373206973207a65726f000000000000000000000060448201526064015b60405180910390fd5b85620006845760405162461bcd60e51b815260206004820152600d60248201527f6e616d6520697320656d7074790000000000000000000000000000000000000060448201526064016200062c565b83620006d35760405162461bcd60e51b815260206004820152600f60248201527f73796d626f6c20697320656d707479000000000000000000000000000000000060448201526064016200062c565b6000878787878787604051620006e990620008bb565b620006fa9695949392919062000af0565b604051809103906000f08015801562000717573d6000803e3d6000fd5b5090506001600160a01b0381166200075f5760405162461bcd60e51b815260206004820152600a602482015269746f6b656e207a65726f60b01b60448201526064016200062c565b6040518060600160405280826001600160a01b0316815260200189898080601f016020809104026020016040519081016040528093929190818152602001838380828437600092019190915250505090825250604080516020601f8a01819004810282018101909252888152918101919089908990819084018382808284376000920182905250939094525050805481526001602081815260409092208451815473ffffffffffffffffffffffffffffffffffffffff19166001600160a01b03909116178155918401519192508201906200083b908262000ba7565b506040820151600282019062000852908262000ba7565b505060008054915080620008668362000c74565b91905055507f244289d04813fff808a458ed4e840905f1f9caf51dfdd032bebeef9a476054b881898989898989604051620008a8979695949392919062000c90565b60405180910390a1979650505050505050565b61208d8062000ce983390190565b600060208284031215620008dc57600080fd5b5035919050565b6000815180845260005b818110156200090b57602081850181015186830182015201620008ed565b506000602082860101526020601f19601f83011685010191505092915050565b6001600160a01b03841681526060602082015260006200094f6060830185620008e3565b8281036040840152620009638185620008e3565b9695505050505050565b60008083601f8401126200098057600080fd5b50813567ffffffffffffffff8111156200099957600080fd5b602083019150836020828501011115620009b257600080fd5b9250929050565b60008060008060008060808789031215620009d357600080fd5b863567ffffffffffffffff80821115620009ec57600080fd5b620009fa8a838b016200096d565b9098509650602089013591508082111562000a1457600080fd5b5062000a2389828a016200096d565b9095509350506040870135915060608701356001600160a01b038116811462000a4b57600080fd5b809150509295509295509295565b600181811c9082168062000a6e57607f821691505b60208210810362000a8f57634e487b7160e01b600052602260045260246000fd5b50919050565b634e487b7160e01b600052601160045260246000fd5b8181038181111562000ac15762000ac162000a95565b92915050565b81835281816020850137506000828201602090810191909152601f909101601f19169091010190565b60808152600062000b0660808301888a62000ac7565b828103602084015262000b1b81878962000ac7565b9150508360408301526001600160a01b0383166060830152979650505050505050565b634e487b7160e01b600052604160045260246000fd5b601f82111562000ba257600081815260208120601f850160051c8101602086101562000b7d5750805b601f850160051c820191505b8181101562000b9e5782815560010162000b89565b5050505b505050565b815167ffffffffffffffff81111562000bc45762000bc462000b3e565b62000bdc8162000bd5845462000a59565b8462000b54565b602080601f83116001811462000c14576000841562000bfb5750858301515b600019600386901b1c1916600185901b17855562000b9e565b600085815260208120601f198616915b8281101562000c455788860151825594840194600190910190840162000c24565b508582101562000c645787850151600019600388901b60f8161c191681555b5050505050600190811b01905550565b60006001820162000c895762000c8962000a95565b5060010190565b60006001600160a01b03808a16835260a0602084015262000cb660a08401898b62000ac7565b838103604085015262000ccb81888a62000ac7565b60608501969096525092909216608090910152509594505050505056fe60806040523480156200001157600080fd5b506040516200208d3803806200208d833981016040819052620000349162000410565b8383600462000044838262000533565b50600562000053828262000533565b506200006a9150636578737160e01b9050620000f1565b6200007c6301ffc9a760e01b620000f1565b81156200008f576200008f818362000176565b6200009c6000806200023c565b620000a960008262000287565b620000d57f9f2df0fed2c77648de5860a4cc508cd0818c85b8b8a1ab4ceeef8d981c8956a68262000287565b620000e7634fc3585960e01b620000f1565b5050505062000621565b6001600160e01b03198082169003620001515760405162461bcd60e51b815260206004820152601c60248201527f4552433136353a20696e76616c696420696e746572666163652069640000000060448201526064015b60405180910390fd5b6001600160e01b0319166000908152600660205260409020805460ff19166001179055565b6001600160a01b038216620001ce5760405162461bcd60e51b815260206004820152601f60248201527f45524332303a206d696e7420746f20746865207a65726f206164647265737300604482015260640162000148565b8060036000828254620001e29190620005ff565b90915550506001600160a01b0382166000818152600160209081526040808320805486019055518481527fddf252ad1be2c89b69c2b068fc378daa952ba7f163c4a11628f55a4df523b3ef910160405180910390a35b5050565b600082815260208190526040808220600101805490849055905190918391839186917fbd79b86ffe0ab8e8776151514217cd7cacd52c909f66475c3af44e129f0b00ff9190a4505050565b62000238828262000298565b505050565b620002a4828262000320565b62000238576000828152602081815260408083206001600160a01b03851684529091529020805460ff19166001179055620002dc3390565b6001600160a01b0316816001600160a01b0316837f2f8788117e7eff1d82e926ec794901d17c78024a50270940304540a733656f0d60405160405180910390a45050565b6000828152602081815260408083206001600160a01b038516845290915290205460ff165b92915050565b634e487b7160e01b600052604160045260246000fd5b600082601f8301126200037357600080fd5b81516001600160401b03808211156200039057620003906200034b565b604051601f8301601f19908116603f01168101908282118183101715620003bb57620003bb6200034b565b81604052838152602092508683858801011115620003d857600080fd5b600091505b83821015620003fc5785820183015181830184015290820190620003dd565b600093810190920192909252949350505050565b600080600080608085870312156200042757600080fd5b84516001600160401b03808211156200043f57600080fd5b6200044d8883890162000361565b955060208701519150808211156200046457600080fd5b50620004738782880162000361565b60408701516060880151919550935090506001600160a01b03811681146200049a57600080fd5b939692955090935050565b600181811c90821680620004ba57607f821691505b602082108103620004db57634e487b7160e01b600052602260045260246000fd5b50919050565b601f8211156200029357600081815260208120601f850160051c810160208610156200050a5750805b601f850160051c820191505b818110156200052b5782815560010162000516565b505050505050565b81516001600160401b038111156200054f576200054f6200034b565b6200056781620005608454620004a5565b84620004e1565b602080601f8311600181146200059f5760008415620005865750858301515b600019600386901b1c1916600185901b1785556200052b565b600085815260208120601f198616915b82811015620005d057888601518255948401946001909101908401620005af565b5085821015620005ef5787850151600019600388901b60f8161c191681555b5050505050600190811b01905550565b808201808211156200034557634e487b7160e01b600052601160045260246000fd5b611a5c80620006316000396000f3fe608060405234801561001057600080fd5b50600436106101cf5760003560e01c806370a0823111610104578063a9059cbb116100a2578063d547741f11610071578063d547741f1461041f578063dd62ed3e14610432578063eb7955491461046b578063ef1944351461047e57600080fd5b8063a9059cbb146103bf578063b88d4fde146103d2578063cae9ca51146103e5578063d5391393146103f857600080fd5b80639321478c116100de5780639321478c1461037557806395d89b411461039c578063a217fddf146103a4578063a457c2d7146103ac57600080fd5b806370a082311461030257806379cc67901461032b57806391d148541461033e57600080fd5b8063313ce5671161017157806340c10f191161014b57806340c10f19146102b6578063423f6cef146102c957806342842e0e146102dc57806342966c68146102ef57600080fd5b8063313ce5671461028157806336568abe1461029057806339509351146102a357600080fd5b806318160ddd116101ad57806318160ddd1461022457806323b872dd14610236578063248a9ca3146102495780632f2ff15d1461026c57600080fd5b806301ffc9a7146101d457806306fdde03146101fc578063095ea7b314610211575b600080fd5b6101e76101e23660046115c4565b6104a1565b60405190151581526020015b60405180910390f35b6102046104d3565b6040516101f39190611631565b6101e761021f366004611660565b610565565b6003545b6040519081526020016101f3565b6101e761024436600461168a565b61057d565b6102286102573660046116c6565b60009081526020819052604090206001015490565b61027f61027a3660046116df565b6105a1565b005b604051601281526020016101f3565b61027f61029e3660046116df565b6105cb565b6101e76102b1366004611660565b61065c565b6101e76102c4366004611660565b61069b565b61027f6102d7366004611660565b6106d1565b61027f6102ea36600461168a565b6106eb565b61027f6102fd3660046116c6565b610706565b61022861031036600461170b565b6001600160a01b031660009081526001602052604090205490565b61027f610339366004611660565b610713565b6101e761034c3660046116df565b6000918252602082815260408084206001600160a01b0393909316845291905290205460ff1690565b610383636578737160e01b81565b6040516001600160e01b031990911681526020016101f3565b610204610794565b610228600081565b6101e76103ba366004611660565b6107a3565b6101e76103cd366004611660565b610835565b61027f6103e03660046117c9565b610843565b6101e76103f3366004611831565b6108c6565b6102287f9f2df0fed2c77648de5860a4cc508cd0818c85b8b8a1ab4ceeef8d981c8956a681565b61027f61042d3660046116df565b6108e7565b610228610440366004611888565b6001600160a01b03918216600090815260026020908152604080832093909416825291909152205490565b61027f610479366004611831565b61090c565b6101e761048c3660046115c4565b60066020526000908152604090205460ff1681565b6001600160e01b0319811660009081526006602052604081205460ff16806104cd57506104cd82610988565b92915050565b6060600480546104e2906118b2565b80601f016020809104026020016040519081016040528092919081815260200182805461050e906118b2565b801561055b5780601f106105305761010080835404028352916020019161055b565b820191906000526020600020905b81548152906001019060200180831161053e57829003601f168201915b5050505050905090565b6000336105738185856109bd565b5060019392505050565b60003361058b858285610ae1565b610596858585610b6d565b506001949350505050565b6000828152602081905260409020600101546105bc81610d18565b6105c68383610d22565b505050565b6001600160a01b038116331461064e5760405162461bcd60e51b815260206004820152602f60248201527f416363657373436f6e74726f6c3a2063616e206f6e6c792072656e6f756e636560448201527f20726f6c657320666f722073656c66000000000000000000000000000000000060648201526084015b60405180910390fd5b6106588282610dc0565b5050565b3360008181526002602090815260408083206001600160a01b03871684529091528120549091906105739082908690610696908790611902565b6109bd565b60007f9f2df0fed2c77648de5860a4cc508cd0818c85b8b8a1ab4ceeef8d981c8956a66106c781610d18565b6105738484610e3f565b61065882826040518060200160405280600081525061090c565b6105c683838360405180602001604052806000815250610843565b6107103382610f00565b50565b600061071f8333610440565b90508181101561077d5760405162461bcd60e51b8152602060048201526024808201527f45524332303a206275726e20616d6f756e74206578636565647320616c6c6f77604482015263616e636560e01b6064820152608401610645565b61078a83338484036109bd565b6105c68383610f00565b6060600580546104e2906118b2565b3360008181526002602090815260408083206001600160a01b0387168452909152812054909190838110156108285760405162461bcd60e51b815260206004820152602560248201527f45524332303a2064656372656173656420616c6c6f77616e63652062656c6f77604482015264207a65726f60d81b6064820152608401610645565b61059682868684036109bd565b600033610573818585610b6d565b61084e84848461057d565b5061085b84848484611034565b6108c05760405162461bcd60e51b815260206004820152603060248201527f45524332303a207472616e7366657220746f206e6f6e2045524332305265636560448201526f34bb32b91034b6b83632b6b2b73a32b960811b6064820152608401610645565b50505050565b60006108d28484610565565b6108db57600080fd5b610573338585856110e4565b60008281526020819052604090206001015461090281610d18565b6105c68383610dc0565b6109168383610835565b5061092333848484611034565b6105c65760405162461bcd60e51b815260206004820152603060248201527f45524332303a207472616e7366657220746f206e6f6e2045524332305265636560448201526f34bb32b91034b6b83632b6b2b73a32b960811b6064820152608401610645565b60006001600160e01b03198216637965db0b60e01b14806104cd57506301ffc9a760e01b6001600160e01b03198316146104cd565b6001600160a01b038316610a1f5760405162461bcd60e51b8152602060048201526024808201527f45524332303a20617070726f76652066726f6d20746865207a65726f206164646044820152637265737360e01b6064820152608401610645565b6001600160a01b038216610a805760405162461bcd60e51b815260206004820152602260248201527f45524332303a20617070726f766520746f20746865207a65726f206164647265604482015261737360f01b6064820152608401610645565b6001600160a01b0383811660008181526002602090815260408083209487168084529482529182902085905590518481527f8c5be1e5ebec7d5bd14f71427d1e84f3dd0314c0f7b2291e5b200ac8c7c3b925910160405180910390a3505050565b6001600160a01b0383811660009081526002602090815260408083209386168352929052205460001981146108c05781811015610b605760405162461bcd60e51b815260206004820152601d60248201527f45524332303a20696e73756666696369656e7420616c6c6f77616e63650000006044820152606401610645565b6108c084848484036109bd565b6001600160a01b038316610bd15760405162461bcd60e51b815260206004820152602560248201527f45524332303a207472616e736665722066726f6d20746865207a65726f206164604482015264647265737360d81b6064820152608401610645565b6001600160a01b038216610c335760405162461bcd60e51b815260206004820152602360248201527f45524332303a207472616e7366657220746f20746865207a65726f206164647260448201526265737360e81b6064820152608401610645565b6001600160a01b03831660009081526001602052604090205481811015610cab5760405162461bcd60e51b815260206004820152602660248201527f45524332303a207472616e7366657220616d6f756e7420657863656564732062604482015265616c616e636560d01b6064820152608401610645565b6001600160a01b0380851660008181526001602052604080822086860390559286168082529083902080548601905591517fddf252ad1be2c89b69c2b068fc378daa952ba7f163c4a11628f55a4df523b3ef90610d0b9086815260200190565b60405180910390a36108c0565b61071081336112a1565b6000828152602081815260408083206001600160a01b038516845290915290205460ff16610658576000828152602081815260408083206001600160a01b03851684529091529020805460ff19166001179055610d7c3390565b6001600160a01b0316816001600160a01b0316837f2f8788117e7eff1d82e926ec794901d17c78024a50270940304540a733656f0d60405160405180910390a45050565b6000828152602081815260408083206001600160a01b038516845290915290205460ff1615610658576000828152602081815260408083206001600160a01b0385168085529252808320805460ff1916905551339285917ff6391f5c32d9c69d2a47ea670b442974b53935d1edc7fd64eb21e047a839171b9190a45050565b6001600160a01b038216610e955760405162461bcd60e51b815260206004820152601f60248201527f45524332303a206d696e7420746f20746865207a65726f2061646472657373006044820152606401610645565b8060036000828254610ea79190611902565b90915550506001600160a01b0382166000818152600160209081526040808320805486019055518481527fddf252ad1be2c89b69c2b068fc378daa952ba7f163c4a11628f55a4df523b3ef910160405180910390a35050565b6001600160a01b038216610f605760405162461bcd60e51b815260206004820152602160248201527f45524332303a206275726e2066726f6d20746865207a65726f206164647265736044820152607360f81b6064820152608401610645565b6001600160a01b03821660009081526001602052604090205481811015610fd45760405162461bcd60e51b815260206004820152602260248201527f45524332303a206275726e20616d6f756e7420657863656564732062616c616e604482015261636560f01b6064820152608401610645565b6001600160a01b03831660008181526001602090815260408083208686039055600380548790039055518581529192917fddf252ad1be2c89b69c2b068fc378daa952ba7f163c4a11628f55a4df523b3ef910160405180910390a3505050565b60006001600160a01b0384163b61104d575060016110dc565b604051634fc3585960e01b81526000906001600160a01b03861690634fc35859906110829033908a9089908990600401611915565b6020604051808303816000875af11580156110a1573d6000803e3d6000fd5b505050506040513d601f19601f820116820180604052508101906110c59190611951565b6001600160e01b031916634fc3585960e01b149150505b949350505050565b632139e50b60e11b6110f68482611314565b6111685760405162461bcd60e51b815260206004820152603160248201527f617070726f7665416e6443616c6c3a207370656e64657220646f65736e27742060448201527f737570706f7274206f6e417070726f76650000000000000000000000000000006064820152608401610645565b600080856001600160a01b0316838888888860405160240161118d9493929190611915565b60408051601f198184030181529181526020820180516001600160e01b03166001600160e01b03199094169390931790925290516111cb919061196e565b6000604051808303816000865af19150503d8060008114611208576040519150601f19603f3d011682016040523d82523d6000602084013e61120d565b606091505b50915091508181906112325760405162461bcd60e51b81526004016106459190611631565b5060208101519150816112985760405162461bcd60e51b815260206004820152602860248201527f617070726f7665416e6443616c6c3a206661696c656420746f2063616c6c206f6044820152676e417070726f766560c01b6064820152608401610645565b50505050505050565b6000828152602081815260408083206001600160a01b038516845290915290205460ff16610658576112d281611337565b6112dd836020611349565b6040516020016112ee92919061198a565b60408051601f198184030181529082905262461bcd60e51b825261064591600401611631565b600061131f836114f2565b801561133057506113308383611525565b9392505050565b60606104cd6001600160a01b03831660145b60606000611358836002611a0b565b611363906002611902565b67ffffffffffffffff81111561137b5761137b611726565b6040519080825280601f01601f1916602001820160405280156113a5576020820181803683370190505b509050600360fc1b816000815181106113c0576113c0611a22565b60200101906001600160f81b031916908160001a905350600f60fb1b816001815181106113ef576113ef611a22565b60200101906001600160f81b031916908160001a9053506000611413846002611a0b565b61141e906001611902565b90505b60018111156114a3577f303132333435363738396162636465660000000000000000000000000000000085600f166010811061145f5761145f611a22565b1a60f81b82828151811061147557611475611a22565b60200101906001600160f81b031916908160001a90535060049490941c9361149c81611a38565b9050611421565b5083156113305760405162461bcd60e51b815260206004820181905260248201527f537472696e67733a20686578206c656e67746820696e73756666696369656e746044820152606401610645565b6000611505826301ffc9a760e01b611525565b80156104cd575061151e826001600160e01b0319611525565b1592915050565b604080516001600160e01b03198316602480830191909152825180830390910181526044909101909152602080820180516001600160e01b03166301ffc9a760e01b178152825160009392849283928392918391908a617530fa92503d91506000519050828015611597575060208210155b80156115a35750600081115b979650505050505050565b6001600160e01b03198116811461071057600080fd5b6000602082840312156115d657600080fd5b8135611330816115ae565b60005b838110156115fc5781810151838201526020016115e4565b50506000910152565b6000815180845261161d8160208601602086016115e1565b601f01601f19169290920160200192915050565b6020815260006113306020830184611605565b80356001600160a01b038116811461165b57600080fd5b919050565b6000806040838503121561167357600080fd5b61167c83611644565b946020939093013593505050565b60008060006060848603121561169f57600080fd5b6116a884611644565b92506116b660208501611644565b9150604084013590509250925092565b6000602082840312156116d857600080fd5b5035919050565b600080604083850312156116f257600080fd5b8235915061170260208401611644565b90509250929050565b60006020828403121561171d57600080fd5b61133082611644565b634e487b7160e01b600052604160045260246000fd5b600082601f83011261174d57600080fd5b813567ffffffffffffffff8082111561176857611768611726565b604051601f8301601f19908116603f0116810190828211818310171561179057611790611726565b816040528381528660208588010111156117a957600080fd5b836020870160208301376000602085830101528094505050505092915050565b600080600080608085870312156117df57600080fd5b6117e885611644565b93506117f660208601611644565b925060408501359150606085013567ffffffffffffffff81111561181957600080fd5b6118258782880161173c565b91505092959194509250565b60008060006060848603121561184657600080fd5b61184f84611644565b925060208401359150604084013567ffffffffffffffff81111561187257600080fd5b61187e8682870161173c565b9150509250925092565b6000806040838503121561189b57600080fd5b6118a483611644565b915061170260208401611644565b600181811c908216806118c657607f821691505b6020821081036118e657634e487b7160e01b600052602260045260246000fd5b50919050565b634e487b7160e01b600052601160045260246000fd5b808201808211156104cd576104cd6118ec565b60006001600160a01b038087168352808616602084015250836040830152608060608301526119476080830184611605565b9695505050505050565b60006020828403121561196357600080fd5b8151611330816115ae565b600082516119808184602087016115e1565b9190910192915050565b7f416363657373436f6e74726f6c3a206163636f756e74200000000000000000008152600083516119c28160178501602088016115e1565b7f206973206d697373696e6720726f6c652000000000000000000000000000000060179184019182015283516119ff8160288401602088016115e1565b01602801949350505050565b80820281158282048414176104cd576104cd6118ec565b634e487b7160e01b600052603260045260246000fd5b600081611a4757611a476118ec565b50600019019056fea164736f6c6343000812000aa164736f6c6343000812000a",
  "linkReferences": {},
  "deployedLinkReferences": {}
}