{
  "_format": "hh-sol-artifact-1",
  "contractName": "Proxy3",
  "sourceName": "contracts/proxy/Proxy3.sol",
  "abi": [
    {
      "inputs": [],
      "stateMutability": "nonpayable",
      "type": "constructor"
    },
    {
      "anonymous": false,
      "inputs": [
        {
          "indexed": true,
          "internalType": "bytes32",
          "name": "role",
          "type": "bytes32"
        },
        {
          "indexed": true,
          "internalType": "bytes32",
          "name": "previousAdminRole",
          "type": "bytes32"
        },
        {
          "indexed": true,
          "internalType": "bytes32",
          "name": "newAdminRole",
          "type": "bytes32"
        }
      ],
      "name": "RoleAdminChanged",
      "type": "event"
    },
    {
      "anonymous": false,
      "inputs": [
        {
          "indexed": true,
          "internalType": "bytes32",
          "name": "role",
          "type": "bytes32"
        },
        {
          "indexed": true,
          "internalType": "address",
          "name": "account",
          "type": "address"
        },
        {
          "indexed": true,
          "internalType": "address",
          "name": "sender",
          "type": "address"
        }
      ],
      "name": "RoleGranted",
      "type": "event"
    },
    {
      "anonymous": false,
      "inputs": [
        {
          "indexed": true,
          "internalType": "bytes32",
          "name": "role",
          "type": "bytes32"
        },
        {
          "indexed": true,
          "internalType": "address",
          "name": "account",
          "type": "address"
        },
        {
          "indexed": true,
          "internalType": "address",
          "name": "sender",
          "type": "address"
        }
      ],
      "name": "RoleRevoked",
      "type": "event"
    },
    {
      "anonymous": false,
      "inputs": [
        {
          "indexed": true,
          "internalType": "address",
          "name": "impl",
          "type": "address"
        },
        {
          "indexed": false,
          "internalType": "bool",
          "name": "alive",
          "type": "bool"
        }
      ],
      "name": "SetAliveImplementation",
      "type": "event"
    },
    {
      "anonymous": false,
      "inputs": [
        {
          "indexed": true,
          "internalType": "bytes4",
          "name": "selector",
          "type": "bytes4"
        },
        {
          "indexed": true,
          "internalType": "address",
          "name": "impl",
          "type": "address"
        }
      ],
      "name": "SetSelectorImplementation",
      "type": "event"
    },
    {
      "anonymous": false,
      "inputs": [
        {
          "indexed": true,
          "internalType": "address",
          "name": "implementation",
          "type": "address"
        }
      ],
      "name": "Upgraded",
      "type": "event"
    },
    {
      "stateMutability": "payable",
      "type": "fallback"
    },
    {
      "inputs": [],
      "name": "ADMIN_ROLE",
      "outputs": [
        {
          "internalType": "bytes32",
          "name": "",
          "type": "bytes32"
        }
      ],
      "stateMutability": "view",
      "type": "function"
    },
    {
      "inputs": [],
      "name": "DEFAULT_ADMIN_ROLE",
      "outputs": [
        {
          "internalType": "bytes32",
          "name": "",
          "type": "bytes32"
        }
      ],
      "stateMutability": "view",
      "type": "function"
    },
    {
      "inputs": [],
      "name": "POLICY_ROLE",
      "outputs": [
        {
          "internalType": "bytes32",
          "name": "",
          "type": "bytes32"
        }
      ],
      "stateMutability": "view",
      "type": "function"
    },
    {
      "inputs": [
        {
          "internalType": "address",
          "name": "account",
          "type": "address"
        }
      ],
      "name": "addAdmin",
      "outputs": [],
      "stateMutability": "nonpayable",
      "type": "function"
    },
    {
      "inputs": [
        {
          "internalType": "address",
          "name": "",
          "type": "address"
        }
      ],
      "name": "aliveImplementation",
      "outputs": [
        {
          "internalType": "bool",
          "name": "",
          "type": "bool"
        }
      ],
      "stateMutability": "view",
      "type": "function"
    },
    {
      "inputs": [
        {
          "internalType": "bytes32",
          "name": "role",
          "type": "bytes32"
        }
      ],
      "name": "getRoleAdmin",
      "outputs": [
        {
          "internalType": "bytes32",
          "name": "",
          "type": "bytes32"
        }
      ],
      "stateMutability": "view",
      "type": "function"
    },
    {
      "inputs": [
        {
          "internalType": "bytes4",
          "name": "_selector",
          "type": "bytes4"
        }
      ],
      "name": "getSelectorImplementation2",
      "outputs": [
        {
          "internalType": "address",
          "name": "impl",
          "type": "address"
        }
      ],
      "stateMutability": "view",
      "type": "function"
    },
    {
      "inputs": [
        {
          "internalType": "bytes32",
          "name": "role",
          "type": "bytes32"
        },
        {
          "internalType": "address",
          "name": "account",
          "type": "address"
        }
      ],
      "name": "grantRole",
      "outputs": [],
      "stateMutability": "nonpayable",
      "type": "function"
    },
    {
      "inputs": [
        {
          "internalType": "bytes32",
          "name": "role",
          "type": "bytes32"
        },
        {
          "internalType": "address",
          "name": "account",
          "type": "address"
        }
      ],
      "name": "hasRole",
      "outputs": [
        {
          "internalType": "bool",
          "name": "",
          "type": "bool"
        }
      ],
      "stateMutability": "view",
      "type": "function"
    },
    {
      "inputs": [],
      "name": "implementation",
      "outputs": [
        {
          "internalType": "address",
          "name": "",
          "type": "address"
        }
      ],
      "stateMutability": "view",
      "type": "function"
    },
    {
      "inputs": [
        {
          "internalType": "uint256",
          "name": "_index",
          "type": "uint256"
        }
      ],
      "name": "implementation2",
      "outputs": [
        {
          "internalType": "address",
          "name": "",
          "type": "address"
        }
      ],
      "stateMutability": "view",
      "type": "function"
    },
    {
      "inputs": [
        {
          "internalType": "address",
          "name": "account",
          "type": "address"
        }
      ],
      "name": "isAdmin",
      "outputs": [
        {
          "internalType": "bool",
          "name": "",
          "type": "bool"
        }
      ],
      "stateMutability": "view",
      "type": "function"
    },
    {
      "inputs": [],
      "name": "pauseProxy",
      "outputs": [
        {
          "internalType": "bool",
          "name": "",
          "type": "bool"
        }
      ],
      "stateMutability": "view",
      "type": "function"
    },
    {
      "inputs": [
        {
          "internalType": "uint256",
          "name": "",
          "type": "uint256"
        }
      ],
      "name": "proxyImplementation",
      "outputs": [
        {
          "internalType": "address",
          "name": "",
          "type": "address"
        }
      ],
      "stateMutability": "view",
      "type": "function"
    },
    {
      "inputs": [
        {
          "internalType": "address",
          "name": "account",
          "type": "address"
        }
      ],
      "name": "removeAdmin",
      "outputs": [],
      "stateMutability": "nonpayable",
      "type": "function"
    },
    {
      "inputs": [
        {
          "internalType": "bytes32",
          "name": "role",
          "type": "bytes32"
        },
        {
          "internalType": "address",
          "name": "account",
          "type": "address"
        }
      ],
      "name": "renounceRole",
      "outputs": [],
      "stateMutability": "nonpayable",
      "type": "function"
    },
    {
      "inputs": [
        {
          "internalType": "bytes32",
          "name": "role",
          "type": "bytes32"
        },
        {
          "internalType": "address",
          "name": "account",
          "type": "address"
        }
      ],
      "name": "revokeRole",
      "outputs": [],
      "stateMutability": "nonpayable",
      "type": "function"
    },
    {
      "inputs": [
        {
          "internalType": "bytes4",
          "name": "",
          "type": "bytes4"
        }
      ],
      "name": "selectorImplementation",
      "outputs": [
        {
          "internalType": "address",
          "name": "",
          "type": "address"
        }
      ],
      "stateMutability": "view",
      "type": "function"
    },
    {
      "inputs": [
        {
          "internalType": "address",
          "name": "newImplementation",
          "type": "address"
        },
        {
          "internalType": "bool",
          "name": "_alive",
          "type": "bool"
        }
      ],
      "name": "setAliveImplementation2",
      "outputs": [],
      "stateMutability": "nonpayable",
      "type": "function"
    },
    {
      "inputs": [
        {
          "internalType": "address",
          "name": "newImplementation",
          "type": "address"
        },
        {
          "internalType": "uint256",
          "name": "_index",
          "type": "uint256"
        },
        {
          "internalType": "bool",
          "name": "_alive",
          "type": "bool"
        }
      ],
      "name": "setImplementation2",
      "outputs": [],
      "stateMutability": "nonpayable",
      "type": "function"
    },
    {
      "inputs": [
        {
          "internalType": "bool",
          "name": "_pause",
          "type": "bool"
        }
      ],
      "name": "setProxyPause",
      "outputs": [],
      "stateMutability": "nonpayable",
      "type": "function"
    },
    {
      "inputs": [
        {
          "internalType": "bytes4[]",
          "name": "_selectors",
          "type": "bytes4[]"
        },
        {
          "internalType": "address",
          "name": "_imp",
          "type": "address"
        }
      ],
      "name": "setSelectorImplementations2",
      "outputs": [],
      "stateMutability": "nonpayable",
      "type": "function"
    },
    {
      "inputs": [
        {
          "internalType": "bytes4",
          "name": "interfaceId",
          "type": "bytes4"
        }
      ],
      "name": "supportsInterface",
      "outputs": [
        {
          "internalType": "bool",
          "name": "",
          "type": "bool"
        }
      ],
      "stateMutability": "view",
      "type": "function"
    },
    {
      "inputs": [
        {
          "internalType": "address",
          "name": "newAdmin",
          "type": "address"
        }
      ],
      "name": "transferAdmin",
      "outputs": [],
      "stateMutability": "nonpayable",
      "type": "function"
    },
    {
      "inputs": [
        {
          "internalType": "address",
          "name": "impl",
          "type": "address"
        }
      ],
      "name": "upgradeTo",
      "outputs": [],
      "stateMutability": "nonpayable",
      "type": "function"
    },
    {
      "stateMutability": "payable",
      "type": "receive"
    }
  ],
  "bytecode": "0x60806040523480156200001157600080fd5b506200002d6000805160206200192c833981519152806200004e565b620000486000805160206200192c8339815191523362000099565b6200014d565b600082815260046020526040808220600101805490849055905190918391839186917fbd79b86ffe0ab8e8776151514217cd7cacd52c909f66475c3af44e129f0b00ff9190a4505050565b620000a58282620000a9565b5050565b60008281526004602090815260408083206001600160a01b038516845290915290205460ff16620000a55760008281526004602090815260408083206001600160a01b03851684529091529020805460ff19166001179055620001093390565b6001600160a01b0316816001600160a01b0316837f2f8788117e7eff1d82e926ec794901d17c78024a50270940304540a733656f0d60405160405180910390a45050565b6117cf806200015d6000396000f3fe60806040526004361061019a5760003560e01c80635cc797d8116100e15780637cd5f6631161008a57806391d148541161006457806391d1485414610504578063a217fddf1461054a578063b911135f1461055f578063d547741f14610595576101a1565b80637cd5f663146104a45780638b8f4a65146104c45780638d4fdb40146104e4576101a1565b806375829def116100bb57806375829def1461043057806375b238fc146104505780637cb00d2514610484576101a1565b80635cc797d8146103d657806363a8fd89146103f65780637048027514610410576101a1565b806336568abe1161014357806350d2a2761161011d57806350d2a27614610312578063550d01a3146103605780635c60da1b14610390576101a1565b806336568abe146102b25780633659cfe6146102d25780634a5df50f146102f2576101a1565b8063248a9ca311610174578063248a9ca31461024257806324d7806c146102725780632f2ff15d14610292576101a1565b806301ffc9a7146101ab5780631785f53c146101e05780632298524614610200576101a1565b366101a157005b6101a96105b5565b005b3480156101b757600080fd5b506101cb6101c6366004611481565b610663565b60405190151581526020015b60405180910390f35b3480156101ec57600080fd5b506101a96101fb3660046114c2565b61069a565b34801561020c57600080fd5b506102347ffb5864e8ff833c3cb2d2d08505e82ff02a43554c74a35d4f5a64e8526127831181565b6040519081526020016101d7565b34801561024e57600080fd5b5061023461025d3660046114dd565b60009081526004602052604090206001015490565b34801561027e57600080fd5b506101cb61028d3660046114c2565b610715565b34801561029e57600080fd5b506101a96102ad3660046114f6565b610755565b3480156102be57600080fd5b506101a96102cd3660046114f6565b61077a565b3480156102de57600080fd5b506101a96102ed3660046114c2565b610806565b3480156102fe57600080fd5b506101a961030d366004611522565b61095f565b34801561031e57600080fd5b5061034861032d366004611481565b6003602052600090815260409020546001600160a01b031681565b6040516001600160a01b0390911681526020016101d7565b34801561036c57600080fd5b506101cb61037b3660046114c2565b60026020526000908152604090205460ff1681565b34801561039c57600080fd5b506000805260016020527fa6eef7e35abe7026729641147f7915573c7e97b47efa546f5f6e3230263bcb49546001600160a01b0316610348565b3480156103e257600080fd5b506101a96103f13660046115b6565b610c0c565b34801561040257600080fd5b506000546101cb9060ff1681565b34801561041c57600080fd5b506101a961042b3660046114c2565b610c64565b34801561043c57600080fd5b506101a961044b3660046114c2565b610cdc565b34801561045c57600080fd5b506102347fdf8b4c520ffe197c5343c6f5aec59570151ef9a492f2c624fd45ddde6135ec4281565b34801561049057600080fd5b506101a961049f3660046115e0565b610e2c565b3480156104b057600080fd5b506101a96104bf3660046115fb565b610e8d565b3480156104d057600080fd5b506103486104df3660046114dd565b610ee6565b3480156104f057600080fd5b506103486104ff366004611481565b610f03565b34801561051057600080fd5b506101cb61051f3660046114f6565b60009182526004602090815260408084206001600160a01b0393909316845291905290205460ff1690565b34801561055657600080fd5b50610234600081565b34801561056b57600080fd5b5061034861057a3660046114dd565b6001602052600090815260409020546001600160a01b031681565b3480156105a157600080fd5b506101a96105b03660046114f6565b610fff565b60006105cc6000356001600160e01b031916610f03565b90506001600160a01b038116158015906105e9575060005460ff16155b61063a5760405162461bcd60e51b815260206004820152601d60248201527f50726f78793a20696d706c204f522070726f78792069732066616c736500000060448201526064015b60405180910390fd5b3660008037600080366000845af43d6000803e808015610659573d6000f35b3d6000fd5b505050565b60006001600160e01b03198216637965db0b60e01b148061069457506301ffc9a760e01b6001600160e01b03198316145b92915050565b6106a333610715565b6106e85760405162461bcd60e51b815260206004820152602260248201526000805160206117a383398151915260448201526134b760f11b6064820152608401610631565b6107127fdf8b4c520ffe197c5343c6f5aec59570151ef9a492f2c624fd45ddde6135ec428261077a565b50565b6001600160a01b03811660009081527f2fb794d17134dfdec181ddbac1babb5ab1eb140204ef4d982f294e7fc8b69022602052604081205460ff16610694565b60008281526004602052604090206001015461077081611024565b61065e838361102e565b6001600160a01b03811633146107f85760405162461bcd60e51b815260206004820152602f60248201527f416363657373436f6e74726f6c3a2063616e206f6e6c792072656e6f756e636560448201527f20726f6c657320666f722073656c6600000000000000000000000000000000006064820152608401610631565b61080282826110d0565b5050565b61080f33610715565b6108545760405162461bcd60e51b815260206004820152602260248201526000805160206117a383398151915260448201526134b760f11b6064820152608401610631565b6001600160a01b0381166108aa5760405162461bcd60e51b815260206004820152600d60248201527f696e707574206973207a65726f000000000000000000000000000000000000006044820152606401610631565b6000805260016020527fa6eef7e35abe7026729641147f7915573c7e97b47efa546f5f6e3230263bcb49546001600160a01b0382811691160361091b5760405162461bcd60e51b815260206004820152600960248201526839b0b6b29030b2323960b91b6044820152606401610631565b6109288160006001611153565b6040516001600160a01b038216907fbc7cd75a20ee27fd9adebab32041f755214dbc6bffa90cc0225b39da2e5c2d3b90600090a250565b61096833610715565b6109ad5760405162461bcd60e51b815260206004820152602260248201526000805160206117a383398151915260448201526134b760f11b6064820152608401610631565b816109fa5760405162461bcd60e51b815260206004820181905260248201527f50726f78793a205f73656c6563746f727327732073697a65206973207a65726f6044820152606401610631565b6001600160a01b03811660009081526002602052604090205460ff16610a625760405162461bcd60e51b815260206004820152601860248201527f50726f78793a205f696d70206973206e6f7420616c69766500000000000000006044820152606401610631565b60005b82811015610c0657816001600160a01b031660036000868685818110610a8d57610a8d61162e565b9050602002016020810190610aa29190611481565b6001600160e01b03191681526020810191909152604001600020546001600160a01b031603610b135760405162461bcd60e51b815260206004820152601d60248201527f4c69717569646974795661756c7450726f78793a2073616d6520696d700000006044820152606401610631565b8160036000868685818110610b2a57610b2a61162e565b9050602002016020810190610b3f9190611481565b6001600160e01b03191681526020810191909152604001600020805473ffffffffffffffffffffffffffffffffffffffff19166001600160a01b039283161790558216848483818110610b9457610b9461162e565b9050602002016020810190610ba99190611481565b7bffffffffffffffffffffffffffffffffffffffffffffffffffffffff19167f14ebc1c32aa68f4d766e89f3e546cee249f7df25183fc10ab1568d91c2ce9b7b60405160405180910390a380610bfe8161165a565b915050610a65565b50505050565b610c1533610715565b610c5a5760405162461bcd60e51b815260206004820152602260248201526000805160206117a383398151915260448201526134b760f11b6064820152608401610631565b61080282826111eb565b610c6d33610715565b610cb25760405162461bcd60e51b815260206004820152602260248201526000805160206117a383398151915260448201526134b760f11b6064820152608401610631565b6107127fdf8b4c520ffe197c5343c6f5aec59570151ef9a492f2c624fd45ddde6135ec4282610755565b610ce533610715565b610d2a5760405162461bcd60e51b815260206004820152602260248201526000805160206117a383398151915260448201526134b760f11b6064820152608401610631565b6001600160a01b038116610d805760405162461bcd60e51b815260206004820152601860248201527f41636365737369626c653a207a65726f206164647265737300000000000000006044820152606401610631565b6001600160a01b0381163303610dd85760405162461bcd60e51b815260206004820152601660248201527f41636365737369626c653a2073616d652061646d696e000000000000000000006044820152606401610631565b610e027fdf8b4c520ffe197c5343c6f5aec59570151ef9a492f2c624fd45ddde6135ec4282610755565b6107127fdf8b4c520ffe197c5343c6f5aec59570151ef9a492f2c624fd45ddde6135ec423361077a565b610e3533610715565b610e7a5760405162461bcd60e51b815260206004820152602260248201526000805160206117a383398151915260448201526134b760f11b6064820152608401610631565b6000805460ff1916911515919091179055565b610e9633610715565b610edb5760405162461bcd60e51b815260206004820152602260248201526000805160206117a383398151915260448201526134b760f11b6064820152608401610631565b61065e838383611153565b6000818152600160205260408120546001600160a01b0316610694565b6001600160e01b031981166000908152600360205260408120546001600160a01b0316610f635750506000805260016020527fa6eef7e35abe7026729641147f7915573c7e97b47efa546f5f6e3230263bcb49546001600160a01b031690565b6001600160e01b031982166000908152600360209081526040808320546001600160a01b03168352600290915290205460ff1615610fc157506001600160e01b0319166000908152600360205260409020546001600160a01b031690565b50506000805260016020527fa6eef7e35abe7026729641147f7915573c7e97b47efa546f5f6e3230263bcb49546001600160a01b031690565b919050565b60008281526004602052604090206001015461101a81611024565b61065e83836110d0565b610712813361124a565b60008281526004602090815260408083206001600160a01b038516845290915290205460ff166108025760008281526004602090815260408083206001600160a01b03851684529091529020805460ff1916600117905561108c3390565b6001600160a01b0316816001600160a01b0316837f2f8788117e7eff1d82e926ec794901d17c78024a50270940304540a733656f0d60405160405180910390a45050565b60008281526004602090815260408083206001600160a01b038516845290915290205460ff16156108025760008281526004602090815260408083206001600160a01b0385168085529252808320805460ff1916905551339285917ff6391f5c32d9c69d2a47ea670b442974b53935d1edc7fd64eb21e047a839171b9190a45050565b6001600160a01b0383163b6111aa5760405162461bcd60e51b815260206004820152601b60248201527f50726f78793a206e6f7420636f6e7472616374206164647265737300000000006044820152606401610631565b80156111e5576000828152600160205260409020805473ffffffffffffffffffffffffffffffffffffffff19166001600160a01b0385161790555b61065e83825b6001600160a01b038216600081815260026020908152604091829020805460ff191685151590811790915591519182527f72558d9bfba4210f9ef095c782589484151f6d90f7a81bb3cb9b33efc695d324910160405180910390a25050565b60008281526004602090815260408083206001600160a01b038516845290915290205460ff166108025761127d816112bf565b6112888360206112d1565b604051602001611299929190611697565b60408051601f198184030181529082905262461bcd60e51b825261063191600401611718565b60606106946001600160a01b03831660145b606060006112e083600261174b565b6112eb906002611762565b67ffffffffffffffff81111561130357611303611775565b6040519080825280601f01601f19166020018201604052801561132d576020820181803683370190505b509050600360fc1b816000815181106113485761134861162e565b60200101906001600160f81b031916908160001a905350600f60fb1b816001815181106113775761137761162e565b60200101906001600160f81b031916908160001a905350600061139b84600261174b565b6113a6906001611762565b90505b600181111561142b577f303132333435363738396162636465660000000000000000000000000000000085600f16601081106113e7576113e761162e565b1a60f81b8282815181106113fd576113fd61162e565b60200101906001600160f81b031916908160001a90535060049490941c936114248161178b565b90506113a9565b50831561147a5760405162461bcd60e51b815260206004820181905260248201527f537472696e67733a20686578206c656e67746820696e73756666696369656e746044820152606401610631565b9392505050565b60006020828403121561149357600080fd5b81356001600160e01b03198116811461147a57600080fd5b80356001600160a01b0381168114610ffa57600080fd5b6000602082840312156114d457600080fd5b61147a826114ab565b6000602082840312156114ef57600080fd5b5035919050565b6000806040838503121561150957600080fd5b82359150611519602084016114ab565b90509250929050565b60008060006040848603121561153757600080fd5b833567ffffffffffffffff8082111561154f57600080fd5b818601915086601f83011261156357600080fd5b81358181111561157257600080fd5b8760208260051b850101111561158757600080fd5b60209283019550935061159d91860190506114ab565b90509250925092565b80358015158114610ffa57600080fd5b600080604083850312156115c957600080fd5b6115d2836114ab565b9150611519602084016115a6565b6000602082840312156115f257600080fd5b61147a826115a6565b60008060006060848603121561161057600080fd5b611619846114ab565b92506020840135915061159d604085016115a6565b634e487b7160e01b600052603260045260246000fd5b634e487b7160e01b600052601160045260246000fd5b60006001820161166c5761166c611644565b5060010190565b60005b8381101561168e578181015183820152602001611676565b50506000910152565b7f416363657373436f6e74726f6c3a206163636f756e74200000000000000000008152600083516116cf816017850160208801611673565b7f206973206d697373696e6720726f6c6520000000000000000000000000000000601791840191820152835161170c816028840160208801611673565b01602801949350505050565b6020815260008251806020840152611737816040850160208701611673565b601f01601f19169190910160400192915050565b808202811582820484141761069457610694611644565b8082018082111561069457610694611644565b634e487b7160e01b600052604160045260246000fd5b60008161179a5761179a611644565b50600019019056fe41636365737369626c653a2043616c6c6572206973206e6f7420616e2061646da164736f6c6343000812000adf8b4c520ffe197c5343c6f5aec59570151ef9a492f2c624fd45ddde6135ec42",
  "linkReferences": {},
  "deployedLinkReferences": {}
}