{
  "_format": "hh-sol-artifact-1",
  "contractName": "L2ProjectManagerStorage",
  "sourceName": "contracts/L2/L2ProjectManagerStorage.sol",
  "abi": [
    {
      "inputs": [],
      "name": "initialLiquidityVault",
      "outputs": [
        {
          "internalType": "address",
          "name": "",
          "type": "address"
        }
      ],
      "stateMutability": "view",
      "type": "function"
    },
    {
      "inputs": [],
      "name": "l1ProjectManager",
      "outputs": [
        {
          "internalType": "address",
          "name": "",
          "type": "address"
        }
      ],
      "stateMutability": "view",
      "type": "function"
    },
    {
      "inputs": [],
      "name": "l2CrossDomainMessenger",
      "outputs": [
        {
          "internalType": "address",
          "name": "",
          "type": "address"
        }
      ],
      "stateMutability": "view",
      "type": "function"
    },
    {
      "inputs": [],
      "name": "l2TokenFactory",
      "outputs": [
        {
          "internalType": "address",
          "name": "",
          "type": "address"
        }
      ],
      "stateMutability": "view",
      "type": "function"
    },
    {
      "inputs": [],
      "name": "liquidityRewardVault",
      "outputs": [
        {
          "internalType": "address",
          "name": "",
          "type": "address"
        }
      ],
      "stateMutability": "view",
      "type": "function"
    },
    {
      "inputs": [],
      "name": "nonScheduleVault",
      "outputs": [
        {
          "internalType": "address",
          "name": "",
          "type": "address"
        }
      ],
      "stateMutability": "view",
      "type": "function"
    },
    {
      "inputs": [],
      "name": "poolFee",
      "outputs": [
        {
          "internalType": "uint24",
          "name": "",
          "type": "uint24"
        }
      ],
      "stateMutability": "view",
      "type": "function"
    },
    {
      "inputs": [
        {
          "internalType": "address",
          "name": "",
          "type": "address"
        }
      ],
      "name": "projects",
      "outputs": [
        {
          "internalType": "uint256",
          "name": "projectId",
          "type": "uint256"
        },
        {
          "internalType": "address",
          "name": "projectOwner",
          "type": "address"
        },
        {
          "internalType": "address",
          "name": "l1Token",
          "type": "address"
        },
        {
          "internalType": "address",
          "name": "l2Token",
          "type": "address"
        },
        {
          "internalType": "string",
          "name": "projectName",
          "type": "string"
        }
      ],
      "stateMutability": "view",
      "type": "function"
    },
    {
      "inputs": [],
      "name": "publicSaleVault",
      "outputs": [
        {
          "internalType": "address",
          "name": "",
          "type": "address"
        }
      ],
      "stateMutability": "view",
      "type": "function"
    },
    {
      "inputs": [],
      "name": "scheduleVault",
      "outputs": [
        {
          "internalType": "address",
          "name": "",
          "type": "address"
        }
      ],
      "stateMutability": "view",
      "type": "function"
    },
    {
      "inputs": [
        {
          "internalType": "address",
          "name": "",
          "type": "address"
        }
      ],
      "name": "tokenMaps",
      "outputs": [
        {
          "internalType": "address",
          "name": "",
          "type": "address"
        }
      ],
      "stateMutability": "view",
      "type": "function"
    },
    {
      "inputs": [],
      "name": "tonAirdropVault",
      "outputs": [
        {
          "internalType": "address",
          "name": "",
          "type": "address"
        }
      ],
      "stateMutability": "view",
      "type": "function"
    },
    {
      "inputs": [],
      "name": "tos",
      "outputs": [
        {
          "internalType": "address",
          "name": "",
          "type": "address"
        }
      ],
      "stateMutability": "view",
      "type": "function"
    },
    {
      "inputs": [],
      "name": "tosAirdropVault",
      "outputs": [
        {
          "internalType": "address",
          "name": "",
          "type": "address"
        }
      ],
      "stateMutability": "view",
      "type": "function"
    },
    {
      "inputs": [],
      "name": "wton",
      "outputs": [
        {
          "internalType": "address",
          "name": "",
          "type": "address"
        }
      ],
      "stateMutability": "view",
      "type": "function"
    }
  ],
  "bytecode": "0x60806040526000805460ff1916600117905534801561001d57600080fd5b506104408061002d6000396000f3fe608060405234801561001057600080fd5b50600436106100f55760003560e01c806389f395de11610097578063c5b53e6811610066578063c5b53e6814610226578063eca7b8361461024f578063eddd5e8214610262578063fbef005a1461027557600080fd5b806389f395de146101da5780638d62d949146101ed578063c519eeac14610200578063c51c773a1461021357600080fd5b80636e53f427116100d35780636e53f427146101785780636e6e85731461018b57806374a9f5c11461019e578063840e78fd146101b657600080fd5b8063089fe6aa146100fa5780632966c4dd1461013a5780632c8917c814610165575b600080fd5b6004546101219074010000000000000000000000000000000000000000900462ffffff1681565b60405162ffffff90911681526020015b60405180910390f35b60075461014d906001600160a01b031681565b6040516001600160a01b039091168152602001610131565b60055461014d906001600160a01b031681565b60085461014d906001600160a01b031681565b600b5461014d906001600160a01b031681565b60005461014d9061010090046001600160a01b031681565b6101c96101c436600461034f565b610288565b60405161013195949392919061037f565b60035461014d906001600160a01b031681565b60045461014d906001600160a01b031681565b600a5461014d906001600160a01b031681565b60065461014d906001600160a01b031681565b61014d61023436600461034f565b600d602052600090815260409020546001600160a01b031681565b60095461014d906001600160a01b031681565b60015461014d906001600160a01b031681565b60025461014d906001600160a01b031681565b600c602052600090815260409020805460018201546002830154600384015460048501805494956001600160a01b039485169593851694909216926102cc906103f9565b80601f01602080910402602001604051908101604052809291908181526020018280546102f8906103f9565b80156103455780601f1061031a57610100808354040283529160200191610345565b820191906000526020600020905b81548152906001019060200180831161032857829003601f168201915b5050505050905085565b60006020828403121561036157600080fd5b81356001600160a01b038116811461037857600080fd5b9392505050565b858152600060206001600160a01b0380881682850152808716604085015280861660608501525060a0608084015283518060a085015260005b818110156103d45785810183015185820160c0015282016103b8565b50600060c0828601015260c0601f19601f830116850101925050509695505050505050565b600181811c9082168061040d57607f821691505b60208210810361042d57634e487b7160e01b600052602260045260246000fd5b5091905056fea164736f6c6343000812000a",
  "linkReferences": {},
  "deployedLinkReferences": {}
}