{
  "_format": "hh-sol-artifact-1",
  "contractName": "L2ProjectManagerStorage",
  "sourceName": "contracts/L2/L2ProjectManagerStorage.sol",
  "abi": [
    {
      "inputs": [],
      "name": "initialLiquidityVault",
      "outputs": [
        {
          "internalType": "address",
          "name": "",
          "type": "address"
        }
      ],
      "stateMutability": "view",
      "type": "function"
    },
    {
      "inputs": [],
      "name": "l1ProjectManager",
      "outputs": [
        {
          "internalType": "address",
          "name": "",
          "type": "address"
        }
      ],
      "stateMutability": "view",
      "type": "function"
    },
    {
      "inputs": [],
      "name": "l2CrossDomainMessenger",
      "outputs": [
        {
          "internalType": "address",
          "name": "",
          "type": "address"
        }
      ],
      "stateMutability": "view",
      "type": "function"
    },
    {
      "inputs": [],
      "name": "l2TokenFactory",
      "outputs": [
        {
          "internalType": "address",
          "name": "",
          "type": "address"
        }
      ],
      "stateMutability": "view",
      "type": "function"
    },
    {
      "inputs": [],
      "name": "liquidityRewardVault",
      "outputs": [
        {
          "internalType": "address",
          "name": "",
          "type": "address"
        }
      ],
      "stateMutability": "view",
      "type": "function"
    },
    {
      "inputs": [],
      "name": "nonScheduleVault",
      "outputs": [
        {
          "internalType": "address",
          "name": "",
          "type": "address"
        }
      ],
      "stateMutability": "view",
      "type": "function"
    },
    {
      "inputs": [
        {
          "internalType": "address",
          "name": "",
          "type": "address"
        }
      ],
      "name": "projects",
      "outputs": [
        {
          "internalType": "uint256",
          "name": "projectId",
          "type": "uint256"
        },
        {
          "internalType": "address",
          "name": "projectOwner",
          "type": "address"
        },
        {
          "internalType": "address",
          "name": "l1Token",
          "type": "address"
        },
        {
          "internalType": "address",
          "name": "l2Token",
          "type": "address"
        },
        {
          "internalType": "string",
          "name": "projectName",
          "type": "string"
        }
      ],
      "stateMutability": "view",
      "type": "function"
    },
    {
      "inputs": [],
      "name": "publicSaleVault",
      "outputs": [
        {
          "internalType": "address",
          "name": "",
          "type": "address"
        }
      ],
      "stateMutability": "view",
      "type": "function"
    },
    {
      "inputs": [],
      "name": "scheduleVault",
      "outputs": [
        {
          "internalType": "address",
          "name": "",
          "type": "address"
        }
      ],
      "stateMutability": "view",
      "type": "function"
    },
    {
      "inputs": [
        {
          "internalType": "address",
          "name": "",
          "type": "address"
        }
      ],
      "name": "tokenMaps",
      "outputs": [
        {
          "internalType": "address",
          "name": "",
          "type": "address"
        }
      ],
      "stateMutability": "view",
      "type": "function"
    },
    {
      "inputs": [],
      "name": "tonAirdropVault",
      "outputs": [
        {
          "internalType": "address",
          "name": "",
          "type": "address"
        }
      ],
      "stateMutability": "view",
      "type": "function"
    },
    {
      "inputs": [],
      "name": "tosAirdropVault",
      "outputs": [
        {
          "internalType": "address",
          "name": "",
          "type": "address"
        }
      ],
      "stateMutability": "view",
      "type": "function"
    }
  ],
  "bytecode": "0x60806040526000805460ff1916600117905534801561001d57600080fd5b506103be8061002d6000396000f3fe608060405234801561001057600080fd5b50600436106100d45760003560e01c8063c519eeac11610081578063eca7b8361161005b578063eca7b836146101cd578063eddd5e82146101e0578063fbef005a146101f357600080fd5b8063c519eeac1461017e578063c51c773a14610191578063c5b53e68146101a457600080fd5b80636e6e8573116100b25780636e6e85731461012f57806374a9f5c114610142578063840e78fd1461015a57600080fd5b80632966c4dd146100d95780632c8917c8146101095780636e53f4271461011c575b600080fd5b6005546100ec906001600160a01b031681565b6040516001600160a01b0390911681526020015b60405180910390f35b6003546100ec906001600160a01b031681565b6006546100ec906001600160a01b031681565b6009546100ec906001600160a01b031681565b6000546100ec9061010090046001600160a01b031681565b61016d6101683660046102cd565b610206565b6040516101009594939291906102fd565b6008546100ec906001600160a01b031681565b6004546100ec906001600160a01b031681565b6100ec6101b23660046102cd565b600b602052600090815260409020546001600160a01b031681565b6007546100ec906001600160a01b031681565b6001546100ec906001600160a01b031681565b6002546100ec906001600160a01b031681565b600a602052600090815260409020805460018201546002830154600384015460048501805494956001600160a01b0394851695938516949092169261024a90610377565b80601f016020809104026020016040519081016040528092919081815260200182805461027690610377565b80156102c35780601f10610298576101008083540402835291602001916102c3565b820191906000526020600020905b8154815290600101906020018083116102a657829003601f168201915b5050505050905085565b6000602082840312156102df57600080fd5b81356001600160a01b03811681146102f657600080fd5b9392505050565b858152600060206001600160a01b0380881682850152808716604085015280861660608501525060a0608084015283518060a085015260005b818110156103525785810183015185820160c001528201610336565b50600060c0828601015260c0601f19601f830116850101925050509695505050505050565b600181811c9082168061038b57607f821691505b6020821081036103ab57634e487b7160e01b600052602260045260246000fd5b5091905056fea164736f6c6343000812000a",
  "linkReferences": {},
  "deployedLinkReferences": {}
}