{
  "address": "0x5FC8d32690cc91D4c39d9d3abcBD16989F875707",
  "abi": [
    {
      "inputs": [],
      "stateMutability": "nonpayable",
      "type": "constructor"
    },
    {
      "anonymous": false,
      "inputs": [
        {
          "indexed": false,
          "internalType": "uint256",
          "name": "projectId",
          "type": "uint256"
        },
        {
          "indexed": false,
          "internalType": "address",
          "name": "l1Token",
          "type": "address"
        },
        {
          "indexed": false,
          "internalType": "string",
          "name": "projectName",
          "type": "string"
        },
        {
          "indexed": false,
          "internalType": "address",
          "name": "projectOwner",
          "type": "address"
        },
        {
          "indexed": false,
          "internalType": "string",
          "name": "tokenName",
          "type": "string"
        },
        {
          "indexed": false,
          "internalType": "string",
          "name": "tokenSymbol",
          "type": "string"
        },
        {
          "indexed": false,
          "internalType": "uint256",
          "name": "initialTotalSupply",
          "type": "uint256"
        }
      ],
      "name": "CreatedProject",
      "type": "event"
    },
    {
      "anonymous": false,
      "inputs": [
        {
          "indexed": true,
          "internalType": "bytes32",
          "name": "role",
          "type": "bytes32"
        },
        {
          "indexed": true,
          "internalType": "bytes32",
          "name": "previousAdminRole",
          "type": "bytes32"
        },
        {
          "indexed": true,
          "internalType": "bytes32",
          "name": "newAdminRole",
          "type": "bytes32"
        }
      ],
      "name": "RoleAdminChanged",
      "type": "event"
    },
    {
      "anonymous": false,
      "inputs": [
        {
          "indexed": true,
          "internalType": "bytes32",
          "name": "role",
          "type": "bytes32"
        },
        {
          "indexed": true,
          "internalType": "address",
          "name": "account",
          "type": "address"
        },
        {
          "indexed": true,
          "internalType": "address",
          "name": "sender",
          "type": "address"
        }
      ],
      "name": "RoleGranted",
      "type": "event"
    },
    {
      "anonymous": false,
      "inputs": [
        {
          "indexed": true,
          "internalType": "bytes32",
          "name": "role",
          "type": "bytes32"
        },
        {
          "indexed": true,
          "internalType": "address",
          "name": "account",
          "type": "address"
        },
        {
          "indexed": true,
          "internalType": "address",
          "name": "sender",
          "type": "address"
        }
      ],
      "name": "RoleRevoked",
      "type": "event"
    },
    {
      "anonymous": false,
      "inputs": [
        {
          "indexed": false,
          "internalType": "uint256",
          "name": "projectId",
          "type": "uint256"
        },
        {
          "indexed": false,
          "internalType": "uint8",
          "name": "l2Type",
          "type": "uint8"
        },
        {
          "indexed": false,
          "internalType": "address",
          "name": "addressManager",
          "type": "address"
        },
        {
          "indexed": false,
          "internalType": "address",
          "name": "l2Token",
          "type": "address"
        }
      ],
      "name": "SetL2Token",
      "type": "event"
    },
    {
      "anonymous": false,
      "inputs": [
        {
          "indexed": false,
          "internalType": "uint8",
          "name": "l2Type",
          "type": "uint8"
        },
        {
          "indexed": false,
          "internalType": "address",
          "name": "_l2TokenFactory",
          "type": "address"
        }
      ],
      "name": "SetL2TokenFactory",
      "type": "event"
    },
    {
      "inputs": [],
      "name": "ADMIN_ROLE",
      "outputs": [
        {
          "internalType": "bytes32",
          "name": "",
          "type": "bytes32"
        }
      ],
      "stateMutability": "view",
      "type": "function"
    },
    {
      "inputs": [],
      "name": "DEFAULT_ADMIN_ROLE",
      "outputs": [
        {
          "internalType": "bytes32",
          "name": "",
          "type": "bytes32"
        }
      ],
      "stateMutability": "view",
      "type": "function"
    },
    {
      "inputs": [],
      "name": "POLICY_ROLE",
      "outputs": [
        {
          "internalType": "bytes32",
          "name": "",
          "type": "bytes32"
        }
      ],
      "stateMutability": "view",
      "type": "function"
    },
    {
      "inputs": [
        {
          "internalType": "address",
          "name": "account",
          "type": "address"
        }
      ],
      "name": "addAdmin",
      "outputs": [],
      "stateMutability": "nonpayable",
      "type": "function"
    },
    {
      "inputs": [
        {
          "internalType": "address",
          "name": "tokenOwner",
          "type": "address"
        },
        {
          "internalType": "address",
          "name": "projectOwner",
          "type": "address"
        },
        {
          "internalType": "uint256",
          "name": "initialTotalSupply",
          "type": "uint256"
        },
        {
          "internalType": "uint8",
          "name": "tokenType",
          "type": "uint8"
        },
        {
          "internalType": "string",
          "name": "projectName",
          "type": "string"
        },
        {
          "internalType": "string",
          "name": "tokenName",
          "type": "string"
        },
        {
          "internalType": "string",
          "name": "tokenSymbol",
          "type": "string"
        }
      ],
      "name": "createProject",
      "outputs": [
        {
          "internalType": "uint256",
          "name": "",
          "type": "uint256"
        }
      ],
      "stateMutability": "nonpayable",
      "type": "function"
    },
    {
      "inputs": [
        {
          "internalType": "uint256",
          "name": "projectId",
          "type": "uint256"
        },
        {
          "internalType": "uint256",
          "name": "amount",
          "type": "uint256"
        },
        {
          "internalType": "uint32",
          "name": "_depositMinGasLimit",
          "type": "uint32"
        },
        {
          "internalType": "uint32",
          "name": "_setMinGasLimit",
          "type": "uint32"
        }
      ],
      "name": "depositAndSetL2Vaults",
      "outputs": [],
      "stateMutability": "nonpayable",
      "type": "function"
    },
    {
      "inputs": [
        {
          "internalType": "uint256",
          "name": "projectId",
          "type": "uint256"
        },
        {
          "internalType": "uint256",
          "name": "amount",
          "type": "uint256"
        },
        {
          "internalType": "uint32",
          "name": "_minGasLimit",
          "type": "uint32"
        }
      ],
      "name": "depositL1TokenToL2",
      "outputs": [],
      "stateMutability": "nonpayable",
      "type": "function"
    },
    {
      "inputs": [
        {
          "internalType": "bytes32",
          "name": "role",
          "type": "bytes32"
        }
      ],
      "name": "getRoleAdmin",
      "outputs": [
        {
          "internalType": "bytes32",
          "name": "",
          "type": "bytes32"
        }
      ],
      "stateMutability": "view",
      "type": "function"
    },
    {
      "inputs": [
        {
          "internalType": "bytes32",
          "name": "role",
          "type": "bytes32"
        },
        {
          "internalType": "address",
          "name": "account",
          "type": "address"
        }
      ],
      "name": "grantRole",
      "outputs": [],
      "stateMutability": "nonpayable",
      "type": "function"
    },
    {
      "inputs": [
        {
          "internalType": "bytes32",
          "name": "role",
          "type": "bytes32"
        },
        {
          "internalType": "address",
          "name": "account",
          "type": "address"
        }
      ],
      "name": "hasRole",
      "outputs": [
        {
          "internalType": "bool",
          "name": "",
          "type": "bool"
        }
      ],
      "stateMutability": "view",
      "type": "function"
    },
    {
      "inputs": [
        {
          "internalType": "address",
          "name": "account",
          "type": "address"
        }
      ],
      "name": "isAdmin",
      "outputs": [
        {
          "internalType": "bool",
          "name": "",
          "type": "bool"
        }
      ],
      "stateMutability": "view",
      "type": "function"
    },
    {
      "inputs": [
        {
          "internalType": "uint8",
          "name": "",
          "type": "uint8"
        }
      ],
      "name": "l1TokenFactory",
      "outputs": [
        {
          "internalType": "address",
          "name": "",
          "type": "address"
        }
      ],
      "stateMutability": "view",
      "type": "function"
    },
    {
      "inputs": [
        {
          "internalType": "uint8",
          "name": "",
          "type": "uint8"
        }
      ],
      "name": "l2ProjectManager",
      "outputs": [
        {
          "internalType": "address",
          "name": "",
          "type": "address"
        }
      ],
      "stateMutability": "view",
      "type": "function"
    },
    {
      "inputs": [
        {
          "internalType": "uint8",
          "name": "",
          "type": "uint8"
        }
      ],
      "name": "l2TokenFactory",
      "outputs": [
        {
          "internalType": "address",
          "name": "",
          "type": "address"
        }
      ],
      "stateMutability": "view",
      "type": "function"
    },
    {
      "inputs": [],
      "name": "projectCount",
      "outputs": [
        {
          "internalType": "uint256",
          "name": "",
          "type": "uint256"
        }
      ],
      "stateMutability": "view",
      "type": "function"
    },
    {
      "inputs": [
        {
          "internalType": "address",
          "name": "",
          "type": "address"
        }
      ],
      "name": "projectTokens",
      "outputs": [
        {
          "internalType": "uint256",
          "name": "",
          "type": "uint256"
        }
      ],
      "stateMutability": "view",
      "type": "function"
    },
    {
      "inputs": [
        {
          "internalType": "uint256",
          "name": "",
          "type": "uint256"
        }
      ],
      "name": "projects",
      "outputs": [
        {
          "internalType": "address",
          "name": "projectOwner",
          "type": "address"
        },
        {
          "internalType": "address",
          "name": "tokenOwner",
          "type": "address"
        },
        {
          "internalType": "address",
          "name": "l1Token",
          "type": "address"
        },
        {
          "internalType": "address",
          "name": "l2Token",
          "type": "address"
        },
        {
          "internalType": "address",
          "name": "addressManager",
          "type": "address"
        },
        {
          "internalType": "uint256",
          "name": "initialTotalSupply",
          "type": "uint256"
        },
        {
          "internalType": "uint8",
          "name": "tokenType",
          "type": "uint8"
        },
        {
          "internalType": "uint8",
          "name": "l2Type",
          "type": "uint8"
        },
        {
          "internalType": "string",
          "name": "projectName",
          "type": "string"
        }
      ],
      "stateMutability": "view",
      "type": "function"
    },
    {
      "inputs": [
        {
          "internalType": "address",
          "name": "account",
          "type": "address"
        }
      ],
      "name": "removeAdmin",
      "outputs": [],
      "stateMutability": "nonpayable",
      "type": "function"
    },
    {
      "inputs": [
        {
          "internalType": "bytes32",
          "name": "role",
          "type": "bytes32"
        },
        {
          "internalType": "address",
          "name": "account",
          "type": "address"
        }
      ],
      "name": "renounceRole",
      "outputs": [],
      "stateMutability": "nonpayable",
      "type": "function"
    },
    {
      "inputs": [
        {
          "internalType": "bytes32",
          "name": "role",
          "type": "bytes32"
        },
        {
          "internalType": "address",
          "name": "account",
          "type": "address"
        }
      ],
      "name": "revokeRole",
      "outputs": [],
      "stateMutability": "nonpayable",
      "type": "function"
    },
    {
      "inputs": [
        {
          "internalType": "uint8[]",
          "name": "tokenTypes",
          "type": "uint8[]"
        },
        {
          "internalType": "address[]",
          "name": "_l1TokenFactorys",
          "type": "address[]"
        }
      ],
      "name": "setL1TokenFactories",
      "outputs": [],
      "stateMutability": "nonpayable",
      "type": "function"
    },
    {
      "inputs": [
        {
          "internalType": "uint256",
          "name": "projectId",
          "type": "uint256"
        }
      ],
      "name": "setL1Vaults",
      "outputs": [],
      "stateMutability": "nonpayable",
      "type": "function"
    },
    {
      "inputs": [
        {
          "internalType": "uint8",
          "name": "l2Type",
          "type": "uint8"
        },
        {
          "internalType": "address",
          "name": "_l2ProjectManager",
          "type": "address"
        }
      ],
      "name": "setL2ProjectManager",
      "outputs": [],
      "stateMutability": "nonpayable",
      "type": "function"
    },
    {
      "inputs": [
        {
          "internalType": "uint256",
          "name": "projectId",
          "type": "uint256"
        },
        {
          "internalType": "uint8",
          "name": "l2Type",
          "type": "uint8"
        },
        {
          "internalType": "address",
          "name": "addressManager",
          "type": "address"
        },
        {
          "internalType": "address",
          "name": "l2Token",
          "type": "address"
        }
      ],
      "name": "setL2Token",
      "outputs": [],
      "stateMutability": "nonpayable",
      "type": "function"
    },
    {
      "inputs": [
        {
          "internalType": "uint8",
          "name": "l2Type",
          "type": "uint8"
        },
        {
          "internalType": "address",
          "name": "_l2TokenFactory",
          "type": "address"
        }
      ],
      "name": "setL2TokenFactory",
      "outputs": [],
      "stateMutability": "nonpayable",
      "type": "function"
    },
    {
      "inputs": [
        {
          "internalType": "uint256",
          "name": "projectId",
          "type": "uint256"
        },
        {
          "internalType": "uint32",
          "name": "_minGasLimit",
          "type": "uint32"
        }
      ],
      "name": "setL2Vaults",
      "outputs": [],
      "stateMutability": "nonpayable",
      "type": "function"
    },
    {
      "inputs": [
        {
          "internalType": "bytes4",
          "name": "interfaceId",
          "type": "bytes4"
        }
      ],
      "name": "supportsInterface",
      "outputs": [
        {
          "internalType": "bool",
          "name": "",
          "type": "bool"
        }
      ],
      "stateMutability": "view",
      "type": "function"
    },
    {
      "inputs": [
        {
          "internalType": "address",
          "name": "newAdmin",
          "type": "address"
        }
      ],
      "name": "transferAdmin",
      "outputs": [],
      "stateMutability": "nonpayable",
      "type": "function"
    }
  ],
  "transactionHash": "0x2ab5016c9bd6bcde3e772c9933d369a71f800951aecf1e298b6ee4df359bbbac",
  "args": [],
  "numDeployments": 1,
  "solcInputHash": "49d4d6fa1f28c6687a57dc146405b07c",
  "bytecode": "0x60806040526001805460ff1916811790553480156200001d57600080fd5b506200003960008051602062002b58833981519152806200005a565b6200005460008051602062002b5883398151915233620000a5565b62000155565b600082815260208190526040808220600101805490849055905190918391839186917fbd79b86ffe0ab8e8776151514217cd7cacd52c909f66475c3af44e129f0b00ff9190a4505050565b620000b18282620000b5565b5050565b6000828152602081815260408083206001600160a01b038516845290915290205460ff16620000b1576000828152602081815260408083206001600160a01b03851684529091529020805460ff19166001179055620001113390565b6001600160a01b0316816001600160a01b0316837f2f8788117e7eff1d82e926ec794901d17c78024a50270940304540a733656f0d60405160405180910390a45050565b6129f380620001656000396000f3fe608060405234801561001057600080fd5b50600436106101c45760003560e01c80634c37d170116100f957806391d1485411610097578063b4a35e0f11610071578063b4a35e0f1461044d578063b98b44be14610476578063d547741f14610489578063ea705fe11461049c57600080fd5b806391d14854146103ee5780639cba984814610425578063a217fddf1461044557600080fd5b806370480275116100d3578063704802751461038e57806375829def146103a157806375b238fc146103b4578063846fa8f8146103db57600080fd5b80634c37d1701461032757806360a563871461033a5780636b26075f1461037b57600080fd5b806324d7806c116101665780633471fd62116101405780633471fd62146102e557806336568abe146102f857806336fbad261461030b5780633fe77b521461031457600080fd5b806324d7806c146102ac5780632f2ff15d146102bf57806331cea852146102d257600080fd5b80631081056d116101a25780631081056d1461022e5780631785f53c146102415780632298524614610254578063248a9ca31461028957600080fd5b806301ffc9a7146101c957806306f97c6b146101f1578063107046bd14610206575b600080fd5b6101dc6101d7366004612065565b6104c5565b60405190151581526020015b60405180910390f35b6102046101ff3660046120ba565b6104fc565b005b6102196102143660046120f1565b6106a7565b6040516101e89998979695949392919061215a565b61020461023c3660046121dc565b610798565b61020461024f366004612222565b6107b3565b61027b7ffb5864e8ff833c3cb2d2d08505e82ff02a43554c74a35d4f5a64e8526127831181565b6040519081526020016101e8565b61027b6102973660046120f1565b60009081526020819052604090206001015490565b6101dc6102ba366004612222565b610840565b6102046102cd36600461223f565b610880565b6102046102e03660046120ba565b6108aa565b6102046102f33660046120f1565b610a47565b61020461030636600461223f565b610ad5565b61027b60025481565b61027b61032236600461231b565b610b5d565b6102046103353660046123e3565b61101e565b61036361034836600461240f565b6006602052600090815260409020546001600160a01b031681565b6040516001600160a01b0390911681526020016101e8565b61020461038936600461242a565b6112d9565b61020461039c366004612222565b61151d565b6102046103af366004612222565b6115a7565b61027b7fdf8b4c520ffe197c5343c6f5aec59570151ef9a492f2c624fd45ddde6135ec4281565b6102046103e9366004612513565b611709565b6101dc6103fc36600461223f565b6000918252602082815260408084206001600160a01b0393909316845291905290205460ff1690565b61027b610433366004612222565b60046020526000908152604090205481565b61027b600081565b61036361045b36600461240f565b6007602052600090815260409020546001600160a01b031681565b6102046104843660046125d3565b611972565b61020461049736600461223f565b611ce4565b6103636104aa36600461240f565b6005602052600090815260409020546001600160a01b031681565b60006001600160e01b03198216637965db0b60e01b14806104f657506301ffc9a760e01b6001600160e01b03198316145b92915050565b806001600160a01b03811661053d5760405162461bcd60e51b81526020600482015260026024820152612d1960f11b60448201526064015b60405180910390fd5b61054633610840565b61059d5760405162461bcd60e51b815260206004820152602260248201527f41636365737369626c653a2043616c6c6572206973206e6f7420616e2061646d60448201526134b760f11b6064820152608401610534565b600260ff8416106105e55760405162461bcd60e51b8152602060048201526012602482015271756e737570706f72746564206c325479706560701b6044820152606401610534565b60ff83166000908152600560205260409020546001600160a01b0380841691160361063b5760405162461bcd60e51b81526004016105349060208082526004908201526373616d6560e01b604082015260600190565b60ff831660008181526005602090815260409182902080546001600160a01b0319166001600160a01b0387169081179091558251938452908301527f4ce5841de2ab44f9233226712ac91f4f817aaf31f171cff2e729cd275c997c1591015b60405180910390a1505050565b6003602081905260009182526040909120805460018201546002830154938301546004840154600585015460068601546007870180546001600160a01b03978816999688169896881697958616969590941694929360ff808416946101009094041692919061071590612608565b80601f016020809104026020016040519081016040528092919081815260200182805461074190612608565b801561078e5780601f106107635761010080835404028352916020019161078e565b820191906000526020600020905b81548152906001019060200180831161077157829003601f168201915b5050505050905089565b6107a3848484611972565b6107ad848261101e565b50505050565b6107bc33610840565b6108135760405162461bcd60e51b815260206004820152602260248201527f41636365737369626c653a2043616c6c6572206973206e6f7420616e2061646d60448201526134b760f11b6064820152608401610534565b61083d7fdf8b4c520ffe197c5343c6f5aec59570151ef9a492f2c624fd45ddde6135ec4282610ad5565b50565b6001600160a01b03811660009081527f5cbfc8ee58ca47855df7bcf648dd304ddb6b932f9b87878bdf6318d7ec7ee5b7602052604081205460ff166104f6565b60008281526020819052604090206001015461089b81611d09565b6108a58383611d13565b505050565b806001600160a01b0381166108e65760405162461bcd60e51b81526020600482015260026024820152612d1960f11b6044820152606401610534565b6108ef33610840565b6109465760405162461bcd60e51b815260206004820152602260248201527f41636365737369626c653a2043616c6c6572206973206e6f7420616e2061646d60448201526134b760f11b6064820152608401610534565b600260ff84161061098e5760405162461bcd60e51b8152602060048201526012602482015271756e737570706f72746564206c325479706560701b6044820152606401610534565b60ff83166000908152600660205260409020546001600160a01b038084169116036109e45760405162461bcd60e51b81526004016105349060208082526004908201526373616d6560e01b604082015260600190565b60ff831660008181526006602090815260409182902080546001600160a01b0319166001600160a01b0387169081179091558251938452908301527f4ce5841de2ab44f9233226712ac91f4f817aaf31f171cff2e729cd275c997c15910161069a565b60008181526003602052604090205481906001600160a01b031615801590610a8557506000818152600360205260409020546001600160a01b031633145b610ad15760405162461bcd60e51b815260206004820152601b60248201527f63616c6c6572206973206e6f742070726f6a6563744f776e65722e00000000006044820152606401610534565b5050565b6001600160a01b0381163314610b535760405162461bcd60e51b815260206004820152602f60248201527f416363657373436f6e74726f6c3a2063616e206f6e6c792072656e6f756e636560448201527f20726f6c657320666f722073656c6600000000000000000000000000000000006064820152608401610534565b610ad18282611db1565b60008351600003610bb05760405162461bcd60e51b815260206004820152601360248201527f70726f6a6563744e616d65206973206e756c6c000000000000000000000000006044820152606401610534565b8251600003610c015760405162461bcd60e51b815260206004820152601160248201527f746f6b656e4e616d65206973206e756c6c0000000000000000000000000000006044820152606401610534565b8151600003610c525760405162461bcd60e51b815260206004820152601360248201527f746f6b656e53796d626f6c206973206e756c6c000000000000000000000000006044820152606401610534565b600460ff8616108015610c7f575060ff85166000908152600760205260409020546001600160a01b031615155b610cda5760405162461bcd60e51b815260206004820152602660248201527f77726f6e6720746f6b656e54797065206f72207a65726f206c31546f6b656e466044820152656163746f727960d01b6064820152608401610534565b60ff8516600090815260076020526040808220549051634692ed6760e01b81526001600160a01b0390911690634692ed6790610d2090879087908c903090600401612642565b6020604051808303816000875af1158015610d3f573d6000803e3d6000fd5b505050506040513d601f19601f82011682018060405250810190610d639190612688565b90506001600160a01b038116610dbb5760405162461bcd60e51b815260206004820152601160248201527f7a65726f2070726f6a656374546f6b656e0000000000000000000000000000006044820152606401610534565b6000600260008154610dcc906126bb565b91905081905590506040518061012001604052808a6001600160a01b031681526020018b6001600160a01b03168152602001836001600160a01b0316815260200160006001600160a01b0316815260200160006001600160a01b031681526020018981526020018860ff168152602001600060ff168152602001878152506003600083815260200190815260200160002060008201518160000160006101000a8154816001600160a01b0302191690836001600160a01b0316021790555060208201518160010160006101000a8154816001600160a01b0302191690836001600160a01b0316021790555060408201518160020160006101000a8154816001600160a01b0302191690836001600160a01b0316021790555060608201518160030160006101000a8154816001600160a01b0302191690836001600160a01b0316021790555060808201518160040160006101000a8154816001600160a01b0302191690836001600160a01b0316021790555060a0820151816005015560c08201518160060160006101000a81548160ff021916908360ff16021790555060e08201518160060160016101000a81548160ff021916908360ff160217905550610100820151816007019081610fa09190612722565b509050508060046000846001600160a01b03166001600160a01b03168152602001908152602001600020819055507fad546778b372cf07d504d745ff3f6617a7cb979f81dcaa5dec9285d4f352f4a48183888c89898e60405161100997969594939291906127e2565b60405180910390a19998505050505050505050565b6000828152600360209081526040808320600690810154610100900460ff1684529091529020546001600160a01b0316806110805760405162461bcd60e51b81526020600482015260026024820152612d1960f11b6044820152606401610534565b60008381526003602052604090205483906001600160a01b0316158015906110be57506000818152600360205260409020546001600160a01b031633145b61110a5760405162461bcd60e51b815260206004820152601b60248201527f63616c6c6572206973206e6f742070726f6a6563744f776e65722e00000000006044820152606401610534565b600084815260036020526040808220600490810154915163507c8bd160e01b81526001600160a01b0390921690820152735FbDB2315678afecb367f032d93F642f64180aa39063507c8bd190602401602060405180830381865af4158015611176573d6000803e3d6000fd5b505050506040513d601f19601f8201168201806040525081019061119a9190612688565b90506001600160a01b0381166111f25760405162461bcd60e51b815260206004820152601a60248201527f6c314d657373656e676572206973205a65726f416464726573730000000000006044820152606401610534565b60008581526003602081815260408084209283015481516001600160a01b03918216602480830191909152835180830390910181526044909101835280840180517bffffffffffffffffffffffffffffffffffffffffffffffffffffffff166370a0823160e01b179052600694850154610100900460ff1686529390925292839020549251633dbb202b60e01b8152919284821692633dbb202b9261129f92169085908a9060040161284f565b600060405180830381600087803b1580156112b957600080fd5b505af11580156112cd573d6000803e3d6000fd5b50505050505050505050565b816001600160a01b0381166113155760405162461bcd60e51b81526020600482015260026024820152612d1960f11b6044820152606401610534565b816001600160a01b0381166113515760405162461bcd60e51b81526020600482015260026024820152612d1960f11b6044820152606401610534565b60008681526003602052604090205486906001600160a01b03161580159061138f57506000818152600360205260409020546001600160a01b031633145b6113db5760405162461bcd60e51b815260206004820152601b60248201527f63616c6c6572206973206e6f742070726f6a6563744f776e65722e00000000006044820152606401610534565b600260ff8716106114235760405162461bcd60e51b8152602060048201526012602482015271756e737570706f72746564206c325479706560701b6044820152606401610534565b600087815260036020526040902060048101546001600160a01b038781169116141580611460575060038101546001600160a01b03868116911614155b6114965760405162461bcd60e51b815260206004820152600760248201526639b0b6b290261960c91b6044820152606401610534565b6004810180546001600160a01b038881166001600160a01b03199283168117909355600384018054918916919092168117909155604080518b815260ff8b1660208201529081019290925260608201527feef668b97de8f00ed775f0550c05cafbbf888c91387a9db4bca845d9da5fbf709060800160405180910390a15050505050505050565b61152633610840565b61157d5760405162461bcd60e51b815260206004820152602260248201527f41636365737369626c653a2043616c6c6572206973206e6f7420616e2061646d60448201526134b760f11b6064820152608401610534565b61083d7fdf8b4c520ffe197c5343c6f5aec59570151ef9a492f2c624fd45ddde6135ec4282610880565b6115b033610840565b6116075760405162461bcd60e51b815260206004820152602260248201527f41636365737369626c653a2043616c6c6572206973206e6f7420616e2061646d60448201526134b760f11b6064820152608401610534565b6001600160a01b03811661165d5760405162461bcd60e51b815260206004820152601860248201527f41636365737369626c653a207a65726f206164647265737300000000000000006044820152606401610534565b6001600160a01b03811633036116b55760405162461bcd60e51b815260206004820152601660248201527f41636365737369626c653a2073616d652061646d696e000000000000000000006044820152606401610534565b6116df7fdf8b4c520ffe197c5343c6f5aec59570151ef9a492f2c624fd45ddde6135ec4282610880565b61083d7fdf8b4c520ffe197c5343c6f5aec59570151ef9a492f2c624fd45ddde6135ec4233610ad5565b61171233610840565b6117695760405162461bcd60e51b815260206004820152602260248201527f41636365737369626c653a2043616c6c6572206973206e6f7420616e2061646d60448201526134b760f11b6064820152608401610534565b81511580159061177a575080518251145b6117c65760405162461bcd60e51b815260206004820152600c60248201527f77726f6e67206c656e67746800000000000000000000000000000000000000006044820152606401610534565b815160005b818110156107ad57600460ff168482815181106117ea576117ea612887565b602002602001015160ff16106118425760405162461bcd60e51b815260206004820152601660248201527f756e737570706f7274656420746f6b656e2074797065000000000000000000006044820152606401610534565b82818151811061185457611854612887565b60200260200101516001600160a01b03166007600086848151811061187b5761187b612887565b60209081029190910181015160ff168252810191909152604001600020546001600160a01b0316036118ef5760405162461bcd60e51b815260206004820152600c60248201527f73616d65206164647265737300000000000000000000000000000000000000006044820152606401610534565b82818151811061190157611901612887565b60200260200101516007600086848151811061191f5761191f612887565b602002602001015160ff1660ff16815260200190815260200160002060006101000a8154816001600160a01b0302191690836001600160a01b03160217905550808061196a906126bb565b9150506117cb565b6000838152600360209081526040808320600690810154610100900460ff1684529091529020546001600160a01b0316806119d45760405162461bcd60e51b81526020600482015260026024820152612d1960f11b6044820152606401610534565b600084815260036020819052604090912001546001600160a01b031680611a225760405162461bcd60e51b81526020600482015260026024820152612d1960f11b6044820152606401610534565b60008581526003602052604090205485906001600160a01b031615801590611a6057506000818152600360205260409020546001600160a01b031633145b611aac5760405162461bcd60e51b815260206004820152601b60248201527f63616c6c6572206973206e6f742070726f6a6563744f776e65722e00000000006044820152606401610534565b6000868152600360205260408082206004908101549151639da3176160e01b81526001600160a01b0390921690820152735FbDB2315678afecb367f032d93F642f64180aa390639da3176190602401602060405180830381865af4158015611b18573d6000803e3d6000fd5b505050506040513d601f19601f82011682018060405250810190611b3c9190612688565b90506001600160a01b038116611b945760405162461bcd60e51b815260206004820152601760248201527f6c31427269646765206973205a65726f416464726573730000000000000000006044820152606401610534565b600087815260036020526040908190206002810154600590910154915163095ea7b360e01b81526001600160a01b038481166004830152602482019390935291169063095ea7b3906044016020604051808303816000875af1158015611bfe573d6000803e3d6000fd5b505050506040513d601f19601f82011682018060405250810190611c22919061289d565b506000878152600360208181526040808420600281015493810154600691820154610100900460ff168652908352938190205481518084018d9052825180820390940184528083019283905263041c592960e51b9092526001600160a01b038681169563838b252095611ca995908316949183169392909216918d918d91906044016128bf565b600060405180830381600087803b158015611cc357600080fd5b505af1158015611cd7573d6000803e3d6000fd5b5050505050505050505050565b600082815260208190526040902060010154611cff81611d09565b6108a58383611db1565b61083d8133611e30565b6000828152602081815260408083206001600160a01b038516845290915290205460ff16610ad1576000828152602081815260408083206001600160a01b03851684529091529020805460ff19166001179055611d6d3390565b6001600160a01b0316816001600160a01b0316837f2f8788117e7eff1d82e926ec794901d17c78024a50270940304540a733656f0d60405160405180910390a45050565b6000828152602081815260408083206001600160a01b038516845290915290205460ff1615610ad1576000828152602081815260408083206001600160a01b0385168085529252808320805460ff1916905551339285917ff6391f5c32d9c69d2a47ea670b442974b53935d1edc7fd64eb21e047a839171b9190a45050565b6000828152602081815260408083206001600160a01b038516845290915290205460ff16610ad157611e6181611ea3565b611e6c836020611eb5565b604051602001611e7d929190612911565b60408051601f198184030181529082905262461bcd60e51b825261053491600401612992565b60606104f66001600160a01b03831660145b60606000611ec48360026129a5565b611ecf9060026129bc565b67ffffffffffffffff811115611ee757611ee7612264565b6040519080825280601f01601f191660200182016040528015611f11576020820181803683370190505b509050600360fc1b81600081518110611f2c57611f2c612887565b60200101906001600160f81b031916908160001a905350600f60fb1b81600181518110611f5b57611f5b612887565b60200101906001600160f81b031916908160001a9053506000611f7f8460026129a5565b611f8a9060016129bc565b90505b600181111561200f577f303132333435363738396162636465660000000000000000000000000000000085600f1660108110611fcb57611fcb612887565b1a60f81b828281518110611fe157611fe1612887565b60200101906001600160f81b031916908160001a90535060049490941c93612008816129cf565b9050611f8d565b50831561205e5760405162461bcd60e51b815260206004820181905260248201527f537472696e67733a20686578206c656e67746820696e73756666696369656e746044820152606401610534565b9392505050565b60006020828403121561207757600080fd5b81356001600160e01b03198116811461205e57600080fd5b803560ff811681146120a057600080fd5b919050565b6001600160a01b038116811461083d57600080fd5b600080604083850312156120cd57600080fd5b6120d68361208f565b915060208301356120e6816120a5565b809150509250929050565b60006020828403121561210357600080fd5b5035919050565b60005b8381101561212557818101518382015260200161210d565b50506000910152565b6000815180845261214681602086016020860161210a565b601f01601f19169290920160200192915050565b60006101206001600160a01b03808d168452808c166020850152808b166040850152808a1660608501528089166080850152508660a084015260ff861660c084015260ff851660e0840152806101008401526121b88184018561212e565b9c9b505050505050505050505050565b803563ffffffff811681146120a057600080fd5b600080600080608085870312156121f257600080fd5b8435935060208501359250612209604086016121c8565b9150612217606086016121c8565b905092959194509250565b60006020828403121561223457600080fd5b813561205e816120a5565b6000806040838503121561225257600080fd5b8235915060208301356120e6816120a5565b634e487b7160e01b600052604160045260246000fd5b604051601f8201601f1916810167ffffffffffffffff811182821017156122a3576122a3612264565b604052919050565b600082601f8301126122bc57600080fd5b813567ffffffffffffffff8111156122d6576122d6612264565b6122e9601f8201601f191660200161227a565b8181528460208386010111156122fe57600080fd5b816020850160208301376000918101602001919091529392505050565b600080600080600080600060e0888a03121561233657600080fd5b8735612341816120a5565b96506020880135612351816120a5565b9550604088013594506123666060890161208f565b9350608088013567ffffffffffffffff8082111561238357600080fd5b61238f8b838c016122ab565b945060a08a01359150808211156123a557600080fd5b6123b18b838c016122ab565b935060c08a01359150808211156123c757600080fd5b506123d48a828b016122ab565b91505092959891949750929550565b600080604083850312156123f657600080fd5b82359150612406602084016121c8565b90509250929050565b60006020828403121561242157600080fd5b61205e8261208f565b6000806000806080858703121561244057600080fd5b843593506124506020860161208f565b92506040850135612460816120a5565b91506060850135612470816120a5565b939692955090935050565b600067ffffffffffffffff82111561249557612495612264565b5060051b60200190565b600082601f8301126124b057600080fd5b813560206124c56124c08361247b565b61227a565b82815260059290921b840181019181810190868411156124e457600080fd5b8286015b848110156125085780356124fb816120a5565b83529183019183016124e8565b509695505050505050565b6000806040838503121561252657600080fd5b823567ffffffffffffffff8082111561253e57600080fd5b818501915085601f83011261255257600080fd5b813560206125626124c08361247b565b82815260059290921b8401810191818101908984111561258157600080fd5b948201945b838610156125a6576125978661208f565b82529482019490820190612586565b965050860135925050808211156125bc57600080fd5b506125c98582860161249f565b9150509250929050565b6000806000606084860312156125e857600080fd5b83359250602084013591506125ff604085016121c8565b90509250925092565b600181811c9082168061261c57607f821691505b60208210810361263c57634e487b7160e01b600052602260045260246000fd5b50919050565b608081526000612655608083018761212e565b8281036020840152612667818761212e565b9150508360408301526001600160a01b038316606083015295945050505050565b60006020828403121561269a57600080fd5b815161205e816120a5565b634e487b7160e01b600052601160045260246000fd5b6000600182016126cd576126cd6126a5565b5060010190565b601f8211156108a557600081815260208120601f850160051c810160208610156126fb5750805b601f850160051c820191505b8181101561271a57828155600101612707565b505050505050565b815167ffffffffffffffff81111561273c5761273c612264565b6127508161274a8454612608565b846126d4565b602080601f831160018114612785576000841561276d5750858301515b600019600386901b1c1916600185901b17855561271a565b600085815260208120601f198616915b828110156127b457888601518255948401946001909101908401612795565b50858210156127d25787850151600019600388901b60f8161c191681555b5050505050600190811b01905550565b87815260006001600160a01b03808916602084015260e0604084015261280b60e084018961212e565b81881660608501528381036080850152612825818861212e565b91505082810360a084015261283a818661212e565b9150508260c083015298975050505050505050565b6001600160a01b0384168152606060208201526000612871606083018561212e565b905063ffffffff83166040830152949350505050565b634e487b7160e01b600052603260045260246000fd5b6000602082840312156128af57600080fd5b8151801515811461205e57600080fd5b60006001600160a01b038089168352808816602084015280871660408401525084606083015263ffffffff8416608083015260c060a083015261290560c083018461212e565b98975050505050505050565b7f416363657373436f6e74726f6c3a206163636f756e742000000000000000000081526000835161294981601785016020880161210a565b7f206973206d697373696e6720726f6c6520000000000000000000000000000000601791840191820152835161298681602884016020880161210a565b01602801949350505050565b60208152600061205e602083018461212e565b80820281158282048414176104f6576104f66126a5565b808201808211156104f6576104f66126a5565b6000816129de576129de6126a5565b50600019019056fea164736f6c6343000812000adf8b4c520ffe197c5343c6f5aec59570151ef9a492f2c624fd45ddde6135ec42",
  "deployedBytecode": "0x608060405234801561001057600080fd5b50600436106101c45760003560e01c80634c37d170116100f957806391d1485411610097578063b4a35e0f11610071578063b4a35e0f1461044d578063b98b44be14610476578063d547741f14610489578063ea705fe11461049c57600080fd5b806391d14854146103ee5780639cba984814610425578063a217fddf1461044557600080fd5b806370480275116100d3578063704802751461038e57806375829def146103a157806375b238fc146103b4578063846fa8f8146103db57600080fd5b80634c37d1701461032757806360a563871461033a5780636b26075f1461037b57600080fd5b806324d7806c116101665780633471fd62116101405780633471fd62146102e557806336568abe146102f857806336fbad261461030b5780633fe77b521461031457600080fd5b806324d7806c146102ac5780632f2ff15d146102bf57806331cea852146102d257600080fd5b80631081056d116101a25780631081056d1461022e5780631785f53c146102415780632298524614610254578063248a9ca31461028957600080fd5b806301ffc9a7146101c957806306f97c6b146101f1578063107046bd14610206575b600080fd5b6101dc6101d7366004612065565b6104c5565b60405190151581526020015b60405180910390f35b6102046101ff3660046120ba565b6104fc565b005b6102196102143660046120f1565b6106a7565b6040516101e89998979695949392919061215a565b61020461023c3660046121dc565b610798565b61020461024f366004612222565b6107b3565b61027b7ffb5864e8ff833c3cb2d2d08505e82ff02a43554c74a35d4f5a64e8526127831181565b6040519081526020016101e8565b61027b6102973660046120f1565b60009081526020819052604090206001015490565b6101dc6102ba366004612222565b610840565b6102046102cd36600461223f565b610880565b6102046102e03660046120ba565b6108aa565b6102046102f33660046120f1565b610a47565b61020461030636600461223f565b610ad5565b61027b60025481565b61027b61032236600461231b565b610b5d565b6102046103353660046123e3565b61101e565b61036361034836600461240f565b6006602052600090815260409020546001600160a01b031681565b6040516001600160a01b0390911681526020016101e8565b61020461038936600461242a565b6112d9565b61020461039c366004612222565b61151d565b6102046103af366004612222565b6115a7565b61027b7fdf8b4c520ffe197c5343c6f5aec59570151ef9a492f2c624fd45ddde6135ec4281565b6102046103e9366004612513565b611709565b6101dc6103fc36600461223f565b6000918252602082815260408084206001600160a01b0393909316845291905290205460ff1690565b61027b610433366004612222565b60046020526000908152604090205481565b61027b600081565b61036361045b36600461240f565b6007602052600090815260409020546001600160a01b031681565b6102046104843660046125d3565b611972565b61020461049736600461223f565b611ce4565b6103636104aa36600461240f565b6005602052600090815260409020546001600160a01b031681565b60006001600160e01b03198216637965db0b60e01b14806104f657506301ffc9a760e01b6001600160e01b03198316145b92915050565b806001600160a01b03811661053d5760405162461bcd60e51b81526020600482015260026024820152612d1960f11b60448201526064015b60405180910390fd5b61054633610840565b61059d5760405162461bcd60e51b815260206004820152602260248201527f41636365737369626c653a2043616c6c6572206973206e6f7420616e2061646d60448201526134b760f11b6064820152608401610534565b600260ff8416106105e55760405162461bcd60e51b8152602060048201526012602482015271756e737570706f72746564206c325479706560701b6044820152606401610534565b60ff83166000908152600560205260409020546001600160a01b0380841691160361063b5760405162461bcd60e51b81526004016105349060208082526004908201526373616d6560e01b604082015260600190565b60ff831660008181526005602090815260409182902080546001600160a01b0319166001600160a01b0387169081179091558251938452908301527f4ce5841de2ab44f9233226712ac91f4f817aaf31f171cff2e729cd275c997c1591015b60405180910390a1505050565b6003602081905260009182526040909120805460018201546002830154938301546004840154600585015460068601546007870180546001600160a01b03978816999688169896881697958616969590941694929360ff808416946101009094041692919061071590612608565b80601f016020809104026020016040519081016040528092919081815260200182805461074190612608565b801561078e5780601f106107635761010080835404028352916020019161078e565b820191906000526020600020905b81548152906001019060200180831161077157829003601f168201915b5050505050905089565b6107a3848484611972565b6107ad848261101e565b50505050565b6107bc33610840565b6108135760405162461bcd60e51b815260206004820152602260248201527f41636365737369626c653a2043616c6c6572206973206e6f7420616e2061646d60448201526134b760f11b6064820152608401610534565b61083d7fdf8b4c520ffe197c5343c6f5aec59570151ef9a492f2c624fd45ddde6135ec4282610ad5565b50565b6001600160a01b03811660009081527f5cbfc8ee58ca47855df7bcf648dd304ddb6b932f9b87878bdf6318d7ec7ee5b7602052604081205460ff166104f6565b60008281526020819052604090206001015461089b81611d09565b6108a58383611d13565b505050565b806001600160a01b0381166108e65760405162461bcd60e51b81526020600482015260026024820152612d1960f11b6044820152606401610534565b6108ef33610840565b6109465760405162461bcd60e51b815260206004820152602260248201527f41636365737369626c653a2043616c6c6572206973206e6f7420616e2061646d60448201526134b760f11b6064820152608401610534565b600260ff84161061098e5760405162461bcd60e51b8152602060048201526012602482015271756e737570706f72746564206c325479706560701b6044820152606401610534565b60ff83166000908152600660205260409020546001600160a01b038084169116036109e45760405162461bcd60e51b81526004016105349060208082526004908201526373616d6560e01b604082015260600190565b60ff831660008181526006602090815260409182902080546001600160a01b0319166001600160a01b0387169081179091558251938452908301527f4ce5841de2ab44f9233226712ac91f4f817aaf31f171cff2e729cd275c997c15910161069a565b60008181526003602052604090205481906001600160a01b031615801590610a8557506000818152600360205260409020546001600160a01b031633145b610ad15760405162461bcd60e51b815260206004820152601b60248201527f63616c6c6572206973206e6f742070726f6a6563744f776e65722e00000000006044820152606401610534565b5050565b6001600160a01b0381163314610b535760405162461bcd60e51b815260206004820152602f60248201527f416363657373436f6e74726f6c3a2063616e206f6e6c792072656e6f756e636560448201527f20726f6c657320666f722073656c6600000000000000000000000000000000006064820152608401610534565b610ad18282611db1565b60008351600003610bb05760405162461bcd60e51b815260206004820152601360248201527f70726f6a6563744e616d65206973206e756c6c000000000000000000000000006044820152606401610534565b8251600003610c015760405162461bcd60e51b815260206004820152601160248201527f746f6b656e4e616d65206973206e756c6c0000000000000000000000000000006044820152606401610534565b8151600003610c525760405162461bcd60e51b815260206004820152601360248201527f746f6b656e53796d626f6c206973206e756c6c000000000000000000000000006044820152606401610534565b600460ff8616108015610c7f575060ff85166000908152600760205260409020546001600160a01b031615155b610cda5760405162461bcd60e51b815260206004820152602660248201527f77726f6e6720746f6b656e54797065206f72207a65726f206c31546f6b656e466044820152656163746f727960d01b6064820152608401610534565b60ff8516600090815260076020526040808220549051634692ed6760e01b81526001600160a01b0390911690634692ed6790610d2090879087908c903090600401612642565b6020604051808303816000875af1158015610d3f573d6000803e3d6000fd5b505050506040513d601f19601f82011682018060405250810190610d639190612688565b90506001600160a01b038116610dbb5760405162461bcd60e51b815260206004820152601160248201527f7a65726f2070726f6a656374546f6b656e0000000000000000000000000000006044820152606401610534565b6000600260008154610dcc906126bb565b91905081905590506040518061012001604052808a6001600160a01b031681526020018b6001600160a01b03168152602001836001600160a01b0316815260200160006001600160a01b0316815260200160006001600160a01b031681526020018981526020018860ff168152602001600060ff168152602001878152506003600083815260200190815260200160002060008201518160000160006101000a8154816001600160a01b0302191690836001600160a01b0316021790555060208201518160010160006101000a8154816001600160a01b0302191690836001600160a01b0316021790555060408201518160020160006101000a8154816001600160a01b0302191690836001600160a01b0316021790555060608201518160030160006101000a8154816001600160a01b0302191690836001600160a01b0316021790555060808201518160040160006101000a8154816001600160a01b0302191690836001600160a01b0316021790555060a0820151816005015560c08201518160060160006101000a81548160ff021916908360ff16021790555060e08201518160060160016101000a81548160ff021916908360ff160217905550610100820151816007019081610fa09190612722565b509050508060046000846001600160a01b03166001600160a01b03168152602001908152602001600020819055507fad546778b372cf07d504d745ff3f6617a7cb979f81dcaa5dec9285d4f352f4a48183888c89898e60405161100997969594939291906127e2565b60405180910390a19998505050505050505050565b6000828152600360209081526040808320600690810154610100900460ff1684529091529020546001600160a01b0316806110805760405162461bcd60e51b81526020600482015260026024820152612d1960f11b6044820152606401610534565b60008381526003602052604090205483906001600160a01b0316158015906110be57506000818152600360205260409020546001600160a01b031633145b61110a5760405162461bcd60e51b815260206004820152601b60248201527f63616c6c6572206973206e6f742070726f6a6563744f776e65722e00000000006044820152606401610534565b600084815260036020526040808220600490810154915163507c8bd160e01b81526001600160a01b039092169082015273__$cb71ff78b7d0daed659dceebb5ba3373a7$__9063507c8bd190602401602060405180830381865af4158015611176573d6000803e3d6000fd5b505050506040513d601f19601f8201168201806040525081019061119a9190612688565b90506001600160a01b0381166111f25760405162461bcd60e51b815260206004820152601a60248201527f6c314d657373656e676572206973205a65726f416464726573730000000000006044820152606401610534565b60008581526003602081815260408084209283015481516001600160a01b03918216602480830191909152835180830390910181526044909101835280840180517bffffffffffffffffffffffffffffffffffffffffffffffffffffffff166370a0823160e01b179052600694850154610100900460ff1686529390925292839020549251633dbb202b60e01b8152919284821692633dbb202b9261129f92169085908a9060040161284f565b600060405180830381600087803b1580156112b957600080fd5b505af11580156112cd573d6000803e3d6000fd5b50505050505050505050565b816001600160a01b0381166113155760405162461bcd60e51b81526020600482015260026024820152612d1960f11b6044820152606401610534565b816001600160a01b0381166113515760405162461bcd60e51b81526020600482015260026024820152612d1960f11b6044820152606401610534565b60008681526003602052604090205486906001600160a01b03161580159061138f57506000818152600360205260409020546001600160a01b031633145b6113db5760405162461bcd60e51b815260206004820152601b60248201527f63616c6c6572206973206e6f742070726f6a6563744f776e65722e00000000006044820152606401610534565b600260ff8716106114235760405162461bcd60e51b8152602060048201526012602482015271756e737570706f72746564206c325479706560701b6044820152606401610534565b600087815260036020526040902060048101546001600160a01b038781169116141580611460575060038101546001600160a01b03868116911614155b6114965760405162461bcd60e51b815260206004820152600760248201526639b0b6b290261960c91b6044820152606401610534565b6004810180546001600160a01b038881166001600160a01b03199283168117909355600384018054918916919092168117909155604080518b815260ff8b1660208201529081019290925260608201527feef668b97de8f00ed775f0550c05cafbbf888c91387a9db4bca845d9da5fbf709060800160405180910390a15050505050505050565b61152633610840565b61157d5760405162461bcd60e51b815260206004820152602260248201527f41636365737369626c653a2043616c6c6572206973206e6f7420616e2061646d60448201526134b760f11b6064820152608401610534565b61083d7fdf8b4c520ffe197c5343c6f5aec59570151ef9a492f2c624fd45ddde6135ec4282610880565b6115b033610840565b6116075760405162461bcd60e51b815260206004820152602260248201527f41636365737369626c653a2043616c6c6572206973206e6f7420616e2061646d60448201526134b760f11b6064820152608401610534565b6001600160a01b03811661165d5760405162461bcd60e51b815260206004820152601860248201527f41636365737369626c653a207a65726f206164647265737300000000000000006044820152606401610534565b6001600160a01b03811633036116b55760405162461bcd60e51b815260206004820152601660248201527f41636365737369626c653a2073616d652061646d696e000000000000000000006044820152606401610534565b6116df7fdf8b4c520ffe197c5343c6f5aec59570151ef9a492f2c624fd45ddde6135ec4282610880565b61083d7fdf8b4c520ffe197c5343c6f5aec59570151ef9a492f2c624fd45ddde6135ec4233610ad5565b61171233610840565b6117695760405162461bcd60e51b815260206004820152602260248201527f41636365737369626c653a2043616c6c6572206973206e6f7420616e2061646d60448201526134b760f11b6064820152608401610534565b81511580159061177a575080518251145b6117c65760405162461bcd60e51b815260206004820152600c60248201527f77726f6e67206c656e67746800000000000000000000000000000000000000006044820152606401610534565b815160005b818110156107ad57600460ff168482815181106117ea576117ea612887565b602002602001015160ff16106118425760405162461bcd60e51b815260206004820152601660248201527f756e737570706f7274656420746f6b656e2074797065000000000000000000006044820152606401610534565b82818151811061185457611854612887565b60200260200101516001600160a01b03166007600086848151811061187b5761187b612887565b60209081029190910181015160ff168252810191909152604001600020546001600160a01b0316036118ef5760405162461bcd60e51b815260206004820152600c60248201527f73616d65206164647265737300000000000000000000000000000000000000006044820152606401610534565b82818151811061190157611901612887565b60200260200101516007600086848151811061191f5761191f612887565b602002602001015160ff1660ff16815260200190815260200160002060006101000a8154816001600160a01b0302191690836001600160a01b03160217905550808061196a906126bb565b9150506117cb565b6000838152600360209081526040808320600690810154610100900460ff1684529091529020546001600160a01b0316806119d45760405162461bcd60e51b81526020600482015260026024820152612d1960f11b6044820152606401610534565b600084815260036020819052604090912001546001600160a01b031680611a225760405162461bcd60e51b81526020600482015260026024820152612d1960f11b6044820152606401610534565b60008581526003602052604090205485906001600160a01b031615801590611a6057506000818152600360205260409020546001600160a01b031633145b611aac5760405162461bcd60e51b815260206004820152601b60248201527f63616c6c6572206973206e6f742070726f6a6563744f776e65722e00000000006044820152606401610534565b6000868152600360205260408082206004908101549151639da3176160e01b81526001600160a01b039092169082015273__$cb71ff78b7d0daed659dceebb5ba3373a7$__90639da3176190602401602060405180830381865af4158015611b18573d6000803e3d6000fd5b505050506040513d601f19601f82011682018060405250810190611b3c9190612688565b90506001600160a01b038116611b945760405162461bcd60e51b815260206004820152601760248201527f6c31427269646765206973205a65726f416464726573730000000000000000006044820152606401610534565b600087815260036020526040908190206002810154600590910154915163095ea7b360e01b81526001600160a01b038481166004830152602482019390935291169063095ea7b3906044016020604051808303816000875af1158015611bfe573d6000803e3d6000fd5b505050506040513d601f19601f82011682018060405250810190611c22919061289d565b506000878152600360208181526040808420600281015493810154600691820154610100900460ff168652908352938190205481518084018d9052825180820390940184528083019283905263041c592960e51b9092526001600160a01b038681169563838b252095611ca995908316949183169392909216918d918d91906044016128bf565b600060405180830381600087803b158015611cc357600080fd5b505af1158015611cd7573d6000803e3d6000fd5b5050505050505050505050565b600082815260208190526040902060010154611cff81611d09565b6108a58383611db1565b61083d8133611e30565b6000828152602081815260408083206001600160a01b038516845290915290205460ff16610ad1576000828152602081815260408083206001600160a01b03851684529091529020805460ff19166001179055611d6d3390565b6001600160a01b0316816001600160a01b0316837f2f8788117e7eff1d82e926ec794901d17c78024a50270940304540a733656f0d60405160405180910390a45050565b6000828152602081815260408083206001600160a01b038516845290915290205460ff1615610ad1576000828152602081815260408083206001600160a01b0385168085529252808320805460ff1916905551339285917ff6391f5c32d9c69d2a47ea670b442974b53935d1edc7fd64eb21e047a839171b9190a45050565b6000828152602081815260408083206001600160a01b038516845290915290205460ff16610ad157611e6181611ea3565b611e6c836020611eb5565b604051602001611e7d929190612911565b60408051601f198184030181529082905262461bcd60e51b825261053491600401612992565b60606104f66001600160a01b03831660145b60606000611ec48360026129a5565b611ecf9060026129bc565b67ffffffffffffffff811115611ee757611ee7612264565b6040519080825280601f01601f191660200182016040528015611f11576020820181803683370190505b509050600360fc1b81600081518110611f2c57611f2c612887565b60200101906001600160f81b031916908160001a905350600f60fb1b81600181518110611f5b57611f5b612887565b60200101906001600160f81b031916908160001a9053506000611f7f8460026129a5565b611f8a9060016129bc565b90505b600181111561200f577f303132333435363738396162636465660000000000000000000000000000000085600f1660108110611fcb57611fcb612887565b1a60f81b828281518110611fe157611fe1612887565b60200101906001600160f81b031916908160001a90535060049490941c93612008816129cf565b9050611f8d565b50831561205e5760405162461bcd60e51b815260206004820181905260248201527f537472696e67733a20686578206c656e67746820696e73756666696369656e746044820152606401610534565b9392505050565b60006020828403121561207757600080fd5b81356001600160e01b03198116811461205e57600080fd5b803560ff811681146120a057600080fd5b919050565b6001600160a01b038116811461083d57600080fd5b600080604083850312156120cd57600080fd5b6120d68361208f565b915060208301356120e6816120a5565b809150509250929050565b60006020828403121561210357600080fd5b5035919050565b60005b8381101561212557818101518382015260200161210d565b50506000910152565b6000815180845261214681602086016020860161210a565b601f01601f19169290920160200192915050565b60006101206001600160a01b03808d168452808c166020850152808b166040850152808a1660608501528089166080850152508660a084015260ff861660c084015260ff851660e0840152806101008401526121b88184018561212e565b9c9b505050505050505050505050565b803563ffffffff811681146120a057600080fd5b600080600080608085870312156121f257600080fd5b8435935060208501359250612209604086016121c8565b9150612217606086016121c8565b905092959194509250565b60006020828403121561223457600080fd5b813561205e816120a5565b6000806040838503121561225257600080fd5b8235915060208301356120e6816120a5565b634e487b7160e01b600052604160045260246000fd5b604051601f8201601f1916810167ffffffffffffffff811182821017156122a3576122a3612264565b604052919050565b600082601f8301126122bc57600080fd5b813567ffffffffffffffff8111156122d6576122d6612264565b6122e9601f8201601f191660200161227a565b8181528460208386010111156122fe57600080fd5b816020850160208301376000918101602001919091529392505050565b600080600080600080600060e0888a03121561233657600080fd5b8735612341816120a5565b96506020880135612351816120a5565b9550604088013594506123666060890161208f565b9350608088013567ffffffffffffffff8082111561238357600080fd5b61238f8b838c016122ab565b945060a08a01359150808211156123a557600080fd5b6123b18b838c016122ab565b935060c08a01359150808211156123c757600080fd5b506123d48a828b016122ab565b91505092959891949750929550565b600080604083850312156123f657600080fd5b82359150612406602084016121c8565b90509250929050565b60006020828403121561242157600080fd5b61205e8261208f565b6000806000806080858703121561244057600080fd5b843593506124506020860161208f565b92506040850135612460816120a5565b91506060850135612470816120a5565b939692955090935050565b600067ffffffffffffffff82111561249557612495612264565b5060051b60200190565b600082601f8301126124b057600080fd5b813560206124c56124c08361247b565b61227a565b82815260059290921b840181019181810190868411156124e457600080fd5b8286015b848110156125085780356124fb816120a5565b83529183019183016124e8565b509695505050505050565b6000806040838503121561252657600080fd5b823567ffffffffffffffff8082111561253e57600080fd5b818501915085601f83011261255257600080fd5b813560206125626124c08361247b565b82815260059290921b8401810191818101908984111561258157600080fd5b948201945b838610156125a6576125978661208f565b82529482019490820190612586565b965050860135925050808211156125bc57600080fd5b506125c98582860161249f565b9150509250929050565b6000806000606084860312156125e857600080fd5b83359250602084013591506125ff604085016121c8565b90509250925092565b600181811c9082168061261c57607f821691505b60208210810361263c57634e487b7160e01b600052602260045260246000fd5b50919050565b608081526000612655608083018761212e565b8281036020840152612667818761212e565b9150508360408301526001600160a01b038316606083015295945050505050565b60006020828403121561269a57600080fd5b815161205e816120a5565b634e487b7160e01b600052601160045260246000fd5b6000600182016126cd576126cd6126a5565b5060010190565b601f8211156108a557600081815260208120601f850160051c810160208610156126fb5750805b601f850160051c820191505b8181101561271a57828155600101612707565b505050505050565b815167ffffffffffffffff81111561273c5761273c612264565b6127508161274a8454612608565b846126d4565b602080601f831160018114612785576000841561276d5750858301515b600019600386901b1c1916600185901b17855561271a565b600085815260208120601f198616915b828110156127b457888601518255948401946001909101908401612795565b50858210156127d25787850151600019600388901b60f8161c191681555b5050505050600190811b01905550565b87815260006001600160a01b03808916602084015260e0604084015261280b60e084018961212e565b81881660608501528381036080850152612825818861212e565b91505082810360a084015261283a818661212e565b9150508260c083015298975050505050505050565b6001600160a01b0384168152606060208201526000612871606083018561212e565b905063ffffffff83166040830152949350505050565b634e487b7160e01b600052603260045260246000fd5b6000602082840312156128af57600080fd5b8151801515811461205e57600080fd5b60006001600160a01b038089168352808816602084015280871660408401525084606083015263ffffffff8416608083015260c060a083015261290560c083018461212e565b98975050505050505050565b7f416363657373436f6e74726f6c3a206163636f756e742000000000000000000081526000835161294981601785016020880161210a565b7f206973206d697373696e6720726f6c6520000000000000000000000000000000601791840191820152835161298681602884016020880161210a565b01602801949350505050565b60208152600061205e602083018461212e565b80820281158282048414176104f6576104f66126a5565b808201808211156104f6576104f66126a5565b6000816129de576129de6126a5565b50600019019056fea164736f6c6343000812000a",
  "libraries": {
    "LibProject": "0x5FbDB2315678afecb367f032d93F642f64180aa3"
  },
  "devdoc": {
    "events": {
      "RoleAdminChanged(bytes32,bytes32,bytes32)": {
        "details": "Emitted when `newAdminRole` is set as ``role``'s admin role, replacing `previousAdminRole` `DEFAULT_ADMIN_ROLE` is the starting admin for all roles, despite {RoleAdminChanged} not being emitted signaling this. _Available since v3.1._"
      },
      "RoleGranted(bytes32,address,address)": {
        "details": "Emitted when `account` is granted `role`. `sender` is the account that originated the contract call, an admin role bearer except when using {AccessControl-_setupRole}."
      },
      "RoleRevoked(bytes32,address,address)": {
        "details": "Emitted when `account` is revoked `role`. `sender` is the account that originated the contract call:   - if using `revokeRole`, it is the admin role bearer   - if using `renounceRole`, it is the role bearer (i.e. `account`)"
      }
    },
    "kind": "dev",
    "methods": {
      "addAdmin(address)": {
        "details": "add admin",
        "params": {
          "account": "address to add"
        }
      },
      "createProject(address,address,uint256,uint8,string,string,string)": {
        "details": " "
      },
      "getRoleAdmin(bytes32)": {
        "details": "Returns the admin role that controls `role`. See {grantRole} and {revokeRole}. To change a role's admin, use {_setRoleAdmin}."
      },
      "grantRole(bytes32,address)": {
        "details": "Grants `role` to `account`. If `account` had not been already granted `role`, emits a {RoleGranted} event. Requirements: - the caller must have ``role``'s admin role. May emit a {RoleGranted} event."
      },
      "hasRole(bytes32,address)": {
        "details": "Returns `true` if `account` has been granted `role`."
      },
      "isAdmin(address)": {
        "details": "whether admin",
        "params": {
          "account": "address to check"
        }
      },
      "removeAdmin(address)": {
        "details": "remove admin",
        "params": {
          "account": "address to remove"
        }
      },
      "renounceRole(bytes32,address)": {
        "details": "Revokes `role` from the calling account. Roles are often managed via {grantRole} and {revokeRole}: this function's purpose is to provide a mechanism for accounts to lose their privileges if they are compromised (such as when a trusted device is misplaced). If the calling account had been revoked `role`, emits a {RoleRevoked} event. Requirements: - the caller must be `account`. May emit a {RoleRevoked} event."
      },
      "revokeRole(bytes32,address)": {
        "details": "Revokes `role` from `account`. If `account` had been granted `role`, emits a {RoleRevoked} event. Requirements: - the caller must have ``role``'s admin role. May emit a {RoleRevoked} event."
      },
      "setL1Vaults(uint256)": {
        "details": "L1      "
      },
      "setL2Token(uint256,uint8,address,address)": {
        "details": " "
      },
      "setL2TokenFactory(uint8,address)": {
        "details": "l2TokenFactory  "
      },
      "supportsInterface(bytes4)": {
        "details": "See {IERC165-supportsInterface}."
      },
      "transferAdmin(address)": {
        "details": "transfer admin",
        "params": {
          "newAdmin": "new admin address"
        }
      }
    },
    "title": "L1ProjectManager",
    "version": 1
  },
  "userdoc": {
    "kind": "user",
    "methods": {},
    "version": 1
  },
  "storageLayout": {
    "storage": [
      {
        "astId": 24,
        "contract": "contracts/L1/L1ProjectManager.sol:L1ProjectManager",
        "label": "_roles",
        "offset": 0,
        "slot": "0",
        "type": "t_mapping(t_bytes32,t_struct(RoleData)19_storage)"
      },
      {
        "astId": 3493,
        "contract": "contracts/L1/L1ProjectManager.sol:L1ProjectManager",
        "label": "free",
        "offset": 0,
        "slot": "1",
        "type": "t_bool"
      },
      {
        "astId": 3495,
        "contract": "contracts/L1/L1ProjectManager.sol:L1ProjectManager",
        "label": "projectCount",
        "offset": 0,
        "slot": "2",
        "type": "t_uint256"
      },
      {
        "astId": 3500,
        "contract": "contracts/L1/L1ProjectManager.sol:L1ProjectManager",
        "label": "projects",
        "offset": 0,
        "slot": "3",
        "type": "t_mapping(t_uint256,t_struct(ProjectInfo)3490_storage)"
      },
      {
        "astId": 3504,
        "contract": "contracts/L1/L1ProjectManager.sol:L1ProjectManager",
        "label": "projectTokens",
        "offset": 0,
        "slot": "4",
        "type": "t_mapping(t_address,t_uint256)"
      },
      {
        "astId": 3508,
        "contract": "contracts/L1/L1ProjectManager.sol:L1ProjectManager",
        "label": "l2TokenFactory",
        "offset": 0,
        "slot": "5",
        "type": "t_mapping(t_uint8,t_address)"
      },
      {
        "astId": 3512,
        "contract": "contracts/L1/L1ProjectManager.sol:L1ProjectManager",
        "label": "l2ProjectManager",
        "offset": 0,
        "slot": "6",
        "type": "t_mapping(t_uint8,t_address)"
      },
      {
        "astId": 3516,
        "contract": "contracts/L1/L1ProjectManager.sol:L1ProjectManager",
        "label": "l1TokenFactory",
        "offset": 0,
        "slot": "7",
        "type": "t_mapping(t_uint8,t_address)"
      }
    ],
    "types": {
      "t_address": {
        "encoding": "inplace",
        "label": "address",
        "numberOfBytes": "20"
      },
      "t_bool": {
        "encoding": "inplace",
        "label": "bool",
        "numberOfBytes": "1"
      },
      "t_bytes32": {
        "encoding": "inplace",
        "label": "bytes32",
        "numberOfBytes": "32"
      },
      "t_mapping(t_address,t_bool)": {
        "encoding": "mapping",
        "key": "t_address",
        "label": "mapping(address => bool)",
        "numberOfBytes": "32",
        "value": "t_bool"
      },
      "t_mapping(t_address,t_uint256)": {
        "encoding": "mapping",
        "key": "t_address",
        "label": "mapping(address => uint256)",
        "numberOfBytes": "32",
        "value": "t_uint256"
      },
      "t_mapping(t_bytes32,t_struct(RoleData)19_storage)": {
        "encoding": "mapping",
        "key": "t_bytes32",
        "label": "mapping(bytes32 => struct AccessControl.RoleData)",
        "numberOfBytes": "32",
        "value": "t_struct(RoleData)19_storage"
      },
      "t_mapping(t_uint256,t_struct(ProjectInfo)3490_storage)": {
        "encoding": "mapping",
        "key": "t_uint256",
        "label": "mapping(uint256 => struct L1ProjectManager.ProjectInfo)",
        "numberOfBytes": "32",
        "value": "t_struct(ProjectInfo)3490_storage"
      },
      "t_mapping(t_uint8,t_address)": {
        "encoding": "mapping",
        "key": "t_uint8",
        "label": "mapping(uint8 => address)",
        "numberOfBytes": "32",
        "value": "t_address"
      },
      "t_string_storage": {
        "encoding": "bytes",
        "label": "string",
        "numberOfBytes": "32"
      },
      "t_struct(ProjectInfo)3490_storage": {
        "encoding": "inplace",
        "label": "struct L1ProjectManager.ProjectInfo",
        "members": [
          {
            "astId": 3473,
            "contract": "contracts/L1/L1ProjectManager.sol:L1ProjectManager",
            "label": "projectOwner",
            "offset": 0,
            "slot": "0",
            "type": "t_address"
          },
          {
            "astId": 3475,
            "contract": "contracts/L1/L1ProjectManager.sol:L1ProjectManager",
            "label": "tokenOwner",
            "offset": 0,
            "slot": "1",
            "type": "t_address"
          },
          {
            "astId": 3477,
            "contract": "contracts/L1/L1ProjectManager.sol:L1ProjectManager",
            "label": "l1Token",
            "offset": 0,
            "slot": "2",
            "type": "t_address"
          },
          {
            "astId": 3479,
            "contract": "contracts/L1/L1ProjectManager.sol:L1ProjectManager",
            "label": "l2Token",
            "offset": 0,
            "slot": "3",
            "type": "t_address"
          },
          {
            "astId": 3481,
            "contract": "contracts/L1/L1ProjectManager.sol:L1ProjectManager",
            "label": "addressManager",
            "offset": 0,
            "slot": "4",
            "type": "t_address"
          },
          {
            "astId": 3483,
            "contract": "contracts/L1/L1ProjectManager.sol:L1ProjectManager",
            "label": "initialTotalSupply",
            "offset": 0,
            "slot": "5",
            "type": "t_uint256"
          },
          {
            "astId": 3485,
            "contract": "contracts/L1/L1ProjectManager.sol:L1ProjectManager",
            "label": "tokenType",
            "offset": 0,
            "slot": "6",
            "type": "t_uint8"
          },
          {
            "astId": 3487,
            "contract": "contracts/L1/L1ProjectManager.sol:L1ProjectManager",
            "label": "l2Type",
            "offset": 1,
            "slot": "6",
            "type": "t_uint8"
          },
          {
            "astId": 3489,
            "contract": "contracts/L1/L1ProjectManager.sol:L1ProjectManager",
            "label": "projectName",
            "offset": 0,
            "slot": "7",
            "type": "t_string_storage"
          }
        ],
        "numberOfBytes": "256"
      },
      "t_struct(RoleData)19_storage": {
        "encoding": "inplace",
        "label": "struct AccessControl.RoleData",
        "members": [
          {
            "astId": 16,
            "contract": "contracts/L1/L1ProjectManager.sol:L1ProjectManager",
            "label": "members",
            "offset": 0,
            "slot": "0",
            "type": "t_mapping(t_address,t_bool)"
          },
          {
            "astId": 18,
            "contract": "contracts/L1/L1ProjectManager.sol:L1ProjectManager",
            "label": "adminRole",
            "offset": 0,
            "slot": "1",
            "type": "t_bytes32"
          }
        ],
        "numberOfBytes": "64"
      },
      "t_uint256": {
        "encoding": "inplace",
        "label": "uint256",
        "numberOfBytes": "32"
      },
      "t_uint8": {
        "encoding": "inplace",
        "label": "uint8",
        "numberOfBytes": "1"
      }
    }
  }
}