{
  "address": "0xa513E6E4b8f2a923D98304ec87F64353C4D5C853",
  "abi": [
    {
      "inputs": [],
      "stateMutability": "nonpayable",
      "type": "constructor"
    },
    {
      "anonymous": false,
      "inputs": [
        {
          "indexed": true,
          "internalType": "address",
          "name": "l1Token",
          "type": "address"
        },
        {
          "indexed": true,
          "internalType": "address",
          "name": "l2Token",
          "type": "address"
        },
        {
          "indexed": false,
          "internalType": "address",
          "name": "projectOwner",
          "type": "address"
        },
        {
          "indexed": false,
          "internalType": "string",
          "name": "projectName",
          "type": "string"
        }
      ],
      "name": "AddedProject",
      "type": "event"
    },
    {
      "anonymous": false,
      "inputs": [
        {
          "indexed": false,
          "internalType": "address",
          "name": "l2Token",
          "type": "address"
        },
        {
          "indexed": false,
          "internalType": "uint256",
          "name": "amount",
          "type": "uint256"
        }
      ],
      "name": "BalacneOf",
      "type": "event"
    },
    {
      "anonymous": false,
      "inputs": [
        {
          "indexed": false,
          "internalType": "string",
          "name": "",
          "type": "string"
        }
      ],
      "name": "Hello",
      "type": "event"
    },
    {
      "anonymous": false,
      "inputs": [
        {
          "indexed": true,
          "internalType": "bytes32",
          "name": "role",
          "type": "bytes32"
        },
        {
          "indexed": true,
          "internalType": "bytes32",
          "name": "previousAdminRole",
          "type": "bytes32"
        },
        {
          "indexed": true,
          "internalType": "bytes32",
          "name": "newAdminRole",
          "type": "bytes32"
        }
      ],
      "name": "RoleAdminChanged",
      "type": "event"
    },
    {
      "anonymous": false,
      "inputs": [
        {
          "indexed": true,
          "internalType": "bytes32",
          "name": "role",
          "type": "bytes32"
        },
        {
          "indexed": true,
          "internalType": "address",
          "name": "account",
          "type": "address"
        },
        {
          "indexed": true,
          "internalType": "address",
          "name": "sender",
          "type": "address"
        }
      ],
      "name": "RoleGranted",
      "type": "event"
    },
    {
      "anonymous": false,
      "inputs": [
        {
          "indexed": true,
          "internalType": "bytes32",
          "name": "role",
          "type": "bytes32"
        },
        {
          "indexed": true,
          "internalType": "address",
          "name": "account",
          "type": "address"
        },
        {
          "indexed": true,
          "internalType": "address",
          "name": "sender",
          "type": "address"
        }
      ],
      "name": "RoleRevoked",
      "type": "event"
    },
    {
      "inputs": [],
      "name": "ADMIN_ROLE",
      "outputs": [
        {
          "internalType": "bytes32",
          "name": "",
          "type": "bytes32"
        }
      ],
      "stateMutability": "view",
      "type": "function"
    },
    {
      "inputs": [],
      "name": "DEFAULT_ADMIN_ROLE",
      "outputs": [
        {
          "internalType": "bytes32",
          "name": "",
          "type": "bytes32"
        }
      ],
      "stateMutability": "view",
      "type": "function"
    },
    {
      "inputs": [],
      "name": "POLICY_ROLE",
      "outputs": [
        {
          "internalType": "bytes32",
          "name": "",
          "type": "bytes32"
        }
      ],
      "stateMutability": "view",
      "type": "function"
    },
    {
      "inputs": [
        {
          "internalType": "address",
          "name": "account",
          "type": "address"
        }
      ],
      "name": "addAdmin",
      "outputs": [],
      "stateMutability": "nonpayable",
      "type": "function"
    },
    {
      "inputs": [
        {
          "internalType": "address",
          "name": "projectOwner",
          "type": "address"
        },
        {
          "internalType": "address",
          "name": "l1Token",
          "type": "address"
        },
        {
          "internalType": "address",
          "name": "l2Token",
          "type": "address"
        },
        {
          "internalType": "string",
          "name": "projectName",
          "type": "string"
        }
      ],
      "name": "addProject",
      "outputs": [],
      "stateMutability": "nonpayable",
      "type": "function"
    },
    {
      "inputs": [
        {
          "internalType": "address",
          "name": "l2Token",
          "type": "address"
        }
      ],
      "name": "balanceOf",
      "outputs": [],
      "stateMutability": "nonpayable",
      "type": "function"
    },
    {
      "inputs": [
        {
          "internalType": "bytes32",
          "name": "role",
          "type": "bytes32"
        }
      ],
      "name": "getRoleAdmin",
      "outputs": [
        {
          "internalType": "bytes32",
          "name": "",
          "type": "bytes32"
        }
      ],
      "stateMutability": "view",
      "type": "function"
    },
    {
      "inputs": [
        {
          "internalType": "bytes32",
          "name": "role",
          "type": "bytes32"
        },
        {
          "internalType": "address",
          "name": "account",
          "type": "address"
        }
      ],
      "name": "grantRole",
      "outputs": [],
      "stateMutability": "nonpayable",
      "type": "function"
    },
    {
      "inputs": [
        {
          "internalType": "bytes32",
          "name": "role",
          "type": "bytes32"
        },
        {
          "internalType": "address",
          "name": "account",
          "type": "address"
        }
      ],
      "name": "hasRole",
      "outputs": [
        {
          "internalType": "bool",
          "name": "",
          "type": "bool"
        }
      ],
      "stateMutability": "view",
      "type": "function"
    },
    {
      "inputs": [
        {
          "internalType": "string",
          "name": "_msg",
          "type": "string"
        }
      ],
      "name": "hello",
      "outputs": [],
      "stateMutability": "nonpayable",
      "type": "function"
    },
    {
      "inputs": [
        {
          "internalType": "address",
          "name": "account",
          "type": "address"
        }
      ],
      "name": "isAdmin",
      "outputs": [
        {
          "internalType": "bool",
          "name": "",
          "type": "bool"
        }
      ],
      "stateMutability": "view",
      "type": "function"
    },
    {
      "inputs": [],
      "name": "l1ProjectManager",
      "outputs": [
        {
          "internalType": "address",
          "name": "",
          "type": "address"
        }
      ],
      "stateMutability": "view",
      "type": "function"
    },
    {
      "inputs": [],
      "name": "l2TokenFactory",
      "outputs": [
        {
          "internalType": "address",
          "name": "",
          "type": "address"
        }
      ],
      "stateMutability": "view",
      "type": "function"
    },
    {
      "inputs": [
        {
          "internalType": "address",
          "name": "",
          "type": "address"
        }
      ],
      "name": "projects",
      "outputs": [
        {
          "internalType": "address",
          "name": "projectOwner",
          "type": "address"
        },
        {
          "internalType": "address",
          "name": "l1Token",
          "type": "address"
        },
        {
          "internalType": "address",
          "name": "l2Token",
          "type": "address"
        },
        {
          "internalType": "string",
          "name": "projectName",
          "type": "string"
        }
      ],
      "stateMutability": "view",
      "type": "function"
    },
    {
      "inputs": [
        {
          "internalType": "address",
          "name": "account",
          "type": "address"
        }
      ],
      "name": "removeAdmin",
      "outputs": [],
      "stateMutability": "nonpayable",
      "type": "function"
    },
    {
      "inputs": [
        {
          "internalType": "bytes32",
          "name": "role",
          "type": "bytes32"
        },
        {
          "internalType": "address",
          "name": "account",
          "type": "address"
        }
      ],
      "name": "renounceRole",
      "outputs": [],
      "stateMutability": "nonpayable",
      "type": "function"
    },
    {
      "inputs": [
        {
          "internalType": "bytes32",
          "name": "role",
          "type": "bytes32"
        },
        {
          "internalType": "address",
          "name": "account",
          "type": "address"
        }
      ],
      "name": "revokeRole",
      "outputs": [],
      "stateMutability": "nonpayable",
      "type": "function"
    },
    {
      "inputs": [
        {
          "internalType": "address",
          "name": "_l1ProjectManager",
          "type": "address"
        }
      ],
      "name": "setL1ProjectManager",
      "outputs": [],
      "stateMutability": "nonpayable",
      "type": "function"
    },
    {
      "inputs": [
        {
          "internalType": "address",
          "name": "_l2TokenFactory",
          "type": "address"
        }
      ],
      "name": "setL2TokenFactory",
      "outputs": [],
      "stateMutability": "nonpayable",
      "type": "function"
    },
    {
      "inputs": [
        {
          "internalType": "bytes4",
          "name": "interfaceId",
          "type": "bytes4"
        }
      ],
      "name": "supportsInterface",
      "outputs": [
        {
          "internalType": "bool",
          "name": "",
          "type": "bool"
        }
      ],
      "stateMutability": "view",
      "type": "function"
    },
    {
      "inputs": [
        {
          "internalType": "address",
          "name": "newAdmin",
          "type": "address"
        }
      ],
      "name": "transferAdmin",
      "outputs": [],
      "stateMutability": "nonpayable",
      "type": "function"
    }
  ],
  "transactionHash": "0xf51a92e3ae6c5058a9ac1363514d220c8041c1e885eec70768a9bb7e6f169e5e",
  "args": [],
  "numDeployments": 1,
  "solcInputHash": "49d4d6fa1f28c6687a57dc146405b07c",
  "bytecode": "0x60806040526001805460ff1916811790553480156200001d57600080fd5b5062000039600080516020620017dc833981519152806200005a565b62000054600080516020620017dc83398151915233620000a5565b62000155565b600082815260208190526040808220600101805490849055905190918391839186917fbd79b86ffe0ab8e8776151514217cd7cacd52c909f66475c3af44e129f0b00ff9190a4505050565b620000b18282620000b5565b5050565b6000828152602081815260408083206001600160a01b038516845290915290205460ff16620000b1576000828152602081815260408083206001600160a01b03851684529091529020805460ff19166001179055620001113390565b6001600160a01b0316816001600160a01b0316837f2f8788117e7eff1d82e926ec794901d17c78024a50270940304540a733656f0d60405160405180910390a45050565b61167780620001656000396000f3fe608060405234801561001057600080fd5b50600436106101775760003560e01c806370a08231116100d857806391d148541161008c578063bb3f397a11610066578063bb3f397a14610375578063d547741f14610388578063eddd5e821461039b57600080fd5b806391d1485414610323578063a217fddf1461035a578063a777d0dc1461036257600080fd5b806375829def116100bd57806375829def146102c657806375b238fc146102d9578063840e78fd1461030057600080fd5b806370a082311461028357806374a9f5c11461029657600080fd5b806326777bb31161012f57806336568abe1161011457806336568abe1461024a5780635f2144301461025d578063704802751461027057600080fd5b806326777bb3146102245780632f2ff15d1461023757600080fd5b8063229852461161016057806322985246146101b9578063248a9ca3146101ee57806324d7806c1461021157600080fd5b806301ffc9a71461017c5780631785f53c146101a4575b600080fd5b61018f61018a36600461112c565b6103ae565b60405190151581526020015b60405180910390f35b6101b76101b2366004611172565b6103e5565b005b6101e07ffb5864e8ff833c3cb2d2d08505e82ff02a43554c74a35d4f5a64e8526127831181565b60405190815260200161019b565b6101e06101fc36600461118d565b60009081526020819052604090206001015490565b61018f61021f366004611172565b610477565b6101b76102323660046111a6565b6104b7565b6101b7610245366004611248565b610729565b6101b7610258366004611248565b610753565b6101b761026b366004611172565b6107df565b6101b761027e366004611172565b6108fc565b6101b7610291366004611172565b610986565b6001546102ae9061010090046001600160a01b031681565b6040516001600160a01b03909116815260200161019b565b6101b76102d4366004611172565b610a3a565b6101e07fdf8b4c520ffe197c5343c6f5aec59570151ef9a492f2c624fd45ddde6135ec4281565b61031361030e366004611172565b610b9c565b60405161019b94939291906112c4565b61018f610331366004611248565b6000918252602082815260408084206001600160a01b0393909316845291905290205460ff1690565b6101e0600081565b6101b7610370366004611318565b610c5f565b6101b7610383366004611172565b610c99565b6101b7610396366004611248565b610dab565b6002546102ae906001600160a01b031681565b60006001600160e01b03198216637965db0b60e01b14806103df57506301ffc9a760e01b6001600160e01b03198316145b92915050565b6103ee33610477565b61044a5760405162461bcd60e51b815260206004820152602260248201527f41636365737369626c653a2043616c6c6572206973206e6f7420616e2061646d60448201526134b760f11b60648201526084015b60405180910390fd5b6104747fdf8b4c520ffe197c5343c6f5aec59570151ef9a492f2c624fd45ddde6135ec4282610753565b50565b6001600160a01b03811660009081527f5cbfc8ee58ca47855df7bcf648dd304ddb6b932f9b87878bdf6318d7ec7ee5b7602052604081205460ff166103df565b6002546001600160a01b0316158015906104db57506002546001600160a01b031633145b6105275760405162461bcd60e51b815260206004820152601c60248201527f63616c6c6572206973206e6f74206c32546f6b656e466163746f7279000000006044820152606401610441565b60008190036105785760405162461bcd60e51b815260206004820152601360248201527f70726f6a6563744e616d65206973206e756c6c000000000000000000000000006044820152606401610441565b6001600160a01b0383811660009081526003602052604090206001015416156105e35760405162461bcd60e51b815260206004820152600d60248201527f616c7265616479206164646564000000000000000000000000000000000000006044820152606401610441565b6040518060800160405280866001600160a01b03168152602001856001600160a01b03168152602001846001600160a01b0316815260200183838080601f01602080910402602001604051908101604052809392919081815260200183838082843760009201829052509390945250506001600160a01b038087168252600360208181526040938490208651815490851673ffffffffffffffffffffffffffffffffffffffff1991821617825591870151600182018054918616918416919091179055938601516002850180549190941691161790915560608401519192508201906106cf9082611451565b50905050826001600160a01b0316846001600160a01b03167f58ae756aa8d188a7a73ab9c91ba1fc01873f70313fc07bee626c5f3c7d9b6cf787858560405161071a93929190611511565b60405180910390a35050505050565b60008281526020819052604090206001015461074481610dd0565b61074e8383610dda565b505050565b6001600160a01b03811633146107d15760405162461bcd60e51b815260206004820152602f60248201527f416363657373436f6e74726f6c3a2063616e206f6e6c792072656e6f756e636560448201527f20726f6c657320666f722073656c6600000000000000000000000000000000006064820152608401610441565b6107db8282610e78565b5050565b806001600160a01b03811661081b5760405162461bcd60e51b81526020600482015260026024820152612d1960f11b6044820152606401610441565b61082433610477565b61087b5760405162461bcd60e51b815260206004820152602260248201527f41636365737369626c653a2043616c6c6572206973206e6f7420616e2061646d60448201526134b760f11b6064820152608401610441565b6001546001600160a01b0380841661010090920416036108c65760405162461bcd60e51b81526004016104419060208082526004908201526373616d6560e01b604082015260600190565b50600180546001600160a01b039092166101000274ffffffffffffffffffffffffffffffffffffffff0019909216919091179055565b61090533610477565b61095c5760405162461bcd60e51b815260206004820152602260248201527f41636365737369626c653a2043616c6c6572206973206e6f7420616e2061646d60448201526134b760f11b6064820152608401610441565b6104747fdf8b4c520ffe197c5343c6f5aec59570151ef9a492f2c624fd45ddde6135ec4282610729565b6040516370a0823160e01b81523060048201526000906001600160a01b038316906370a0823190602401602060405180830381865afa1580156109cd573d6000803e3d6000fd5b505050506040513d601f19601f820116820180604052508101906109f19190611550565b604080516001600160a01b0385168152602081018390529192507fa32950f82af24a851f47f9030ed6766af1eb4fb93719569652b9509f5bc5038e910160405180910390a15050565b610a4333610477565b610a9a5760405162461bcd60e51b815260206004820152602260248201527f41636365737369626c653a2043616c6c6572206973206e6f7420616e2061646d60448201526134b760f11b6064820152608401610441565b6001600160a01b038116610af05760405162461bcd60e51b815260206004820152601860248201527f41636365737369626c653a207a65726f206164647265737300000000000000006044820152606401610441565b6001600160a01b0381163303610b485760405162461bcd60e51b815260206004820152601660248201527f41636365737369626c653a2073616d652061646d696e000000000000000000006044820152606401610441565b610b727fdf8b4c520ffe197c5343c6f5aec59570151ef9a492f2c624fd45ddde6135ec4282610729565b6104747fdf8b4c520ffe197c5343c6f5aec59570151ef9a492f2c624fd45ddde6135ec4233610753565b600360208190526000918252604090912080546001820154600283015493830180546001600160a01b0393841695928416949290931692610bdc906113c9565b80601f0160208091040260200160405190810160405280929190818152602001828054610c08906113c9565b8015610c555780601f10610c2a57610100808354040283529160200191610c55565b820191906000526020600020905b815481529060010190602001808311610c3857829003601f168201915b5050505050905084565b7fe762c7c6ad44bf64dd9f998228fe1bf5218e470864dcfff5544c541c5b6c649d81604051610c8e9190611569565b60405180910390a150565b806001600160a01b038116610cd55760405162461bcd60e51b81526020600482015260026024820152612d1960f11b6044820152606401610441565b610cde33610477565b610d355760405162461bcd60e51b815260206004820152602260248201527f41636365737369626c653a2043616c6c6572206973206e6f7420616e2061646d60448201526134b760f11b6064820152608401610441565b6002546001600160a01b03808416911603610d7b5760405162461bcd60e51b81526004016104419060208082526004908201526373616d6560e01b604082015260600190565b506002805473ffffffffffffffffffffffffffffffffffffffff19166001600160a01b0392909216919091179055565b600082815260208190526040902060010154610dc681610dd0565b61074e8383610e78565b6104748133610ef7565b6000828152602081815260408083206001600160a01b038516845290915290205460ff166107db576000828152602081815260408083206001600160a01b03851684529091529020805460ff19166001179055610e343390565b6001600160a01b0316816001600160a01b0316837f2f8788117e7eff1d82e926ec794901d17c78024a50270940304540a733656f0d60405160405180910390a45050565b6000828152602081815260408083206001600160a01b038516845290915290205460ff16156107db576000828152602081815260408083206001600160a01b0385168085529252808320805460ff1916905551339285917ff6391f5c32d9c69d2a47ea670b442974b53935d1edc7fd64eb21e047a839171b9190a45050565b6000828152602081815260408083206001600160a01b038516845290915290205460ff166107db57610f2881610f6a565b610f33836020610f7c565b604051602001610f4492919061157c565b60408051601f198184030181529082905262461bcd60e51b825261044191600401611569565b60606103df6001600160a01b03831660145b60606000610f8b836002611613565b610f9690600261162a565b67ffffffffffffffff811115610fae57610fae611302565b6040519080825280601f01601f191660200182016040528015610fd8576020820181803683370190505b509050600360fc1b81600081518110610ff357610ff361163d565b60200101906001600160f81b031916908160001a905350600f60fb1b816001815181106110225761102261163d565b60200101906001600160f81b031916908160001a9053506000611046846002611613565b61105190600161162a565b90505b60018111156110d6577f303132333435363738396162636465660000000000000000000000000000000085600f16601081106110925761109261163d565b1a60f81b8282815181106110a8576110a861163d565b60200101906001600160f81b031916908160001a90535060049490941c936110cf81611653565b9050611054565b5083156111255760405162461bcd60e51b815260206004820181905260248201527f537472696e67733a20686578206c656e67746820696e73756666696369656e746044820152606401610441565b9392505050565b60006020828403121561113e57600080fd5b81356001600160e01b03198116811461112557600080fd5b80356001600160a01b038116811461116d57600080fd5b919050565b60006020828403121561118457600080fd5b61112582611156565b60006020828403121561119f57600080fd5b5035919050565b6000806000806000608086880312156111be57600080fd5b6111c786611156565b94506111d560208701611156565b93506111e360408701611156565b9250606086013567ffffffffffffffff8082111561120057600080fd5b818801915088601f83011261121457600080fd5b81358181111561122357600080fd5b89602082850101111561123557600080fd5b9699959850939650602001949392505050565b6000806040838503121561125b57600080fd5b8235915061126b60208401611156565b90509250929050565b60005b8381101561128f578181015183820152602001611277565b50506000910152565b600081518084526112b0816020860160208601611274565b601f01601f19169290920160200192915050565b60006001600160a01b0380871683528086166020840152808516604084015250608060608301526112f86080830184611298565b9695505050505050565b634e487b7160e01b600052604160045260246000fd5b60006020828403121561132a57600080fd5b813567ffffffffffffffff8082111561134257600080fd5b818401915084601f83011261135657600080fd5b81358181111561136857611368611302565b604051601f8201601f19908116603f0116810190838211818310171561139057611390611302565b816040528281528760208487010111156113a957600080fd5b826020860160208301376000928101602001929092525095945050505050565b600181811c908216806113dd57607f821691505b6020821081036113fd57634e487b7160e01b600052602260045260246000fd5b50919050565b601f82111561074e57600081815260208120601f850160051c8101602086101561142a5750805b601f850160051c820191505b8181101561144957828155600101611436565b505050505050565b815167ffffffffffffffff81111561146b5761146b611302565b61147f8161147984546113c9565b84611403565b602080601f8311600181146114b4576000841561149c5750858301515b600019600386901b1c1916600185901b178555611449565b600085815260208120601f198616915b828110156114e3578886015182559484019460019091019084016114c4565b50858210156115015787850151600019600388901b60f8161c191681555b5050505050600190811b01905550565b6001600160a01b038416815260406020820152816040820152818360608301376000818301606090810191909152601f909201601f1916010192915050565b60006020828403121561156257600080fd5b5051919050565b6020815260006111256020830184611298565b7f416363657373436f6e74726f6c3a206163636f756e74200000000000000000008152600083516115b4816017850160208801611274565b7f206973206d697373696e6720726f6c652000000000000000000000000000000060179184019182015283516115f1816028840160208801611274565b01602801949350505050565b634e487b7160e01b600052601160045260246000fd5b80820281158282048414176103df576103df6115fd565b808201808211156103df576103df6115fd565b634e487b7160e01b600052603260045260246000fd5b600081611662576116626115fd565b50600019019056fea164736f6c6343000812000adf8b4c520ffe197c5343c6f5aec59570151ef9a492f2c624fd45ddde6135ec42",
  "devdoc": {
    "events": {
      "RoleAdminChanged(bytes32,bytes32,bytes32)": {
        "details": "Emitted when `newAdminRole` is set as ``role``'s admin role, replacing `previousAdminRole` `DEFAULT_ADMIN_ROLE` is the starting admin for all roles, despite {RoleAdminChanged} not being emitted signaling this. _Available since v3.1._"
      },
      "RoleGranted(bytes32,address,address)": {
        "details": "Emitted when `account` is granted `role`. `sender` is the account that originated the contract call, an admin role bearer except when using {AccessControl-_setupRole}."
      },
      "RoleRevoked(bytes32,address,address)": {
        "details": "Emitted when `account` is revoked `role`. `sender` is the account that originated the contract call:   - if using `revokeRole`, it is the admin role bearer   - if using `renounceRole`, it is the role bearer (i.e. `account`)"
      }
    },
    "kind": "dev",
    "methods": {
      "addAdmin(address)": {
        "details": "add admin",
        "params": {
          "account": "address to add"
        }
      },
      "addProject(address,address,address,string)": {
        "details": " "
      },
      "getRoleAdmin(bytes32)": {
        "details": "Returns the admin role that controls `role`. See {grantRole} and {revokeRole}. To change a role's admin, use {_setRoleAdmin}."
      },
      "grantRole(bytes32,address)": {
        "details": "Grants `role` to `account`. If `account` had not been already granted `role`, emits a {RoleGranted} event. Requirements: - the caller must have ``role``'s admin role. May emit a {RoleGranted} event."
      },
      "hasRole(bytes32,address)": {
        "details": "Returns `true` if `account` has been granted `role`."
      },
      "isAdmin(address)": {
        "details": "whether admin",
        "params": {
          "account": "address to check"
        }
      },
      "removeAdmin(address)": {
        "details": "remove admin",
        "params": {
          "account": "address to remove"
        }
      },
      "renounceRole(bytes32,address)": {
        "details": "Revokes `role` from the calling account. Roles are often managed via {grantRole} and {revokeRole}: this function's purpose is to provide a mechanism for accounts to lose their privileges if they are compromised (such as when a trusted device is misplaced). If the calling account had been revoked `role`, emits a {RoleRevoked} event. Requirements: - the caller must be `account`. May emit a {RoleRevoked} event."
      },
      "revokeRole(bytes32,address)": {
        "details": "Revokes `role` from `account`. If `account` had been granted `role`, emits a {RoleRevoked} event. Requirements: - the caller must have ``role``'s admin role. May emit a {RoleRevoked} event."
      },
      "setL1ProjectManager(address)": {
        "details": "l1ProjectManager  "
      },
      "setL2TokenFactory(address)": {
        "details": "l2TokenFactory  "
      },
      "supportsInterface(bytes4)": {
        "details": "See {IERC165-supportsInterface}."
      },
      "transferAdmin(address)": {
        "details": "transfer admin",
        "params": {
          "newAdmin": "new admin address"
        }
      }
    },
    "title": "L2ProjectManager",
    "version": 1
  },
  "userdoc": {
    "kind": "user",
    "methods": {},
    "version": 1
  },
  "storageLayout": {
    "storage": [
      {
        "astId": 24,
        "contract": "contracts/L2/L2ProjectManager.sol:L2ProjectManager",
        "label": "_roles",
        "offset": 0,
        "slot": "0",
        "type": "t_mapping(t_bytes32,t_struct(RoleData)19_storage)"
      },
      {
        "astId": 6739,
        "contract": "contracts/L2/L2ProjectManager.sol:L2ProjectManager",
        "label": "free",
        "offset": 0,
        "slot": "1",
        "type": "t_bool"
      },
      {
        "astId": 6741,
        "contract": "contracts/L2/L2ProjectManager.sol:L2ProjectManager",
        "label": "l1ProjectManager",
        "offset": 1,
        "slot": "1",
        "type": "t_address"
      },
      {
        "astId": 6743,
        "contract": "contracts/L2/L2ProjectManager.sol:L2ProjectManager",
        "label": "l2TokenFactory",
        "offset": 0,
        "slot": "2",
        "type": "t_address"
      },
      {
        "astId": 6748,
        "contract": "contracts/L2/L2ProjectManager.sol:L2ProjectManager",
        "label": "projects",
        "offset": 0,
        "slot": "3",
        "type": "t_mapping(t_address,t_struct(ProjectInfo)6736_storage)"
      }
    ],
    "types": {
      "t_address": {
        "encoding": "inplace",
        "label": "address",
        "numberOfBytes": "20"
      },
      "t_bool": {
        "encoding": "inplace",
        "label": "bool",
        "numberOfBytes": "1"
      },
      "t_bytes32": {
        "encoding": "inplace",
        "label": "bytes32",
        "numberOfBytes": "32"
      },
      "t_mapping(t_address,t_bool)": {
        "encoding": "mapping",
        "key": "t_address",
        "label": "mapping(address => bool)",
        "numberOfBytes": "32",
        "value": "t_bool"
      },
      "t_mapping(t_address,t_struct(ProjectInfo)6736_storage)": {
        "encoding": "mapping",
        "key": "t_address",
        "label": "mapping(address => struct L2ProjectManager.ProjectInfo)",
        "numberOfBytes": "32",
        "value": "t_struct(ProjectInfo)6736_storage"
      },
      "t_mapping(t_bytes32,t_struct(RoleData)19_storage)": {
        "encoding": "mapping",
        "key": "t_bytes32",
        "label": "mapping(bytes32 => struct AccessControl.RoleData)",
        "numberOfBytes": "32",
        "value": "t_struct(RoleData)19_storage"
      },
      "t_string_storage": {
        "encoding": "bytes",
        "label": "string",
        "numberOfBytes": "32"
      },
      "t_struct(ProjectInfo)6736_storage": {
        "encoding": "inplace",
        "label": "struct L2ProjectManager.ProjectInfo",
        "members": [
          {
            "astId": 6729,
            "contract": "contracts/L2/L2ProjectManager.sol:L2ProjectManager",
            "label": "projectOwner",
            "offset": 0,
            "slot": "0",
            "type": "t_address"
          },
          {
            "astId": 6731,
            "contract": "contracts/L2/L2ProjectManager.sol:L2ProjectManager",
            "label": "l1Token",
            "offset": 0,
            "slot": "1",
            "type": "t_address"
          },
          {
            "astId": 6733,
            "contract": "contracts/L2/L2ProjectManager.sol:L2ProjectManager",
            "label": "l2Token",
            "offset": 0,
            "slot": "2",
            "type": "t_address"
          },
          {
            "astId": 6735,
            "contract": "contracts/L2/L2ProjectManager.sol:L2ProjectManager",
            "label": "projectName",
            "offset": 0,
            "slot": "3",
            "type": "t_string_storage"
          }
        ],
        "numberOfBytes": "128"
      },
      "t_struct(RoleData)19_storage": {
        "encoding": "inplace",
        "label": "struct AccessControl.RoleData",
        "members": [
          {
            "astId": 16,
            "contract": "contracts/L2/L2ProjectManager.sol:L2ProjectManager",
            "label": "members",
            "offset": 0,
            "slot": "0",
            "type": "t_mapping(t_address,t_bool)"
          },
          {
            "astId": 18,
            "contract": "contracts/L2/L2ProjectManager.sol:L2ProjectManager",
            "label": "adminRole",
            "offset": 0,
            "slot": "1",
            "type": "t_bytes32"
          }
        ],
        "numberOfBytes": "64"
      }
    }
  }
}