{
  "_format": "hh-sol-artifact-1",
  "contractName": "LockIdNftTransferable",
  "sourceName": "contracts/stos/LockIdNftTransferable.sol",
  "abi": [
    {
      "inputs": [
        {
          "internalType": "string",
          "name": "name_",
          "type": "string"
        },
        {
          "internalType": "string",
          "name": "symbol_",
          "type": "string"
        },
        {
          "internalType": "address",
          "name": "managerAddress",
          "type": "address"
        },
        {
          "internalType": "uint256",
          "name": "epochUnit_",
          "type": "uint256"
        },
        {
          "internalType": "uint256",
          "name": "maxTime_",
          "type": "uint256"
        },
        {
          "internalType": "address",
          "name": "tosAddress",
          "type": "address"
        }
      ],
      "stateMutability": "nonpayable",
      "type": "constructor"
    },
    {
      "anonymous": false,
      "inputs": [
        {
          "indexed": true,
          "internalType": "address",
          "name": "owner",
          "type": "address"
        },
        {
          "indexed": true,
          "internalType": "address",
          "name": "approved",
          "type": "address"
        },
        {
          "indexed": true,
          "internalType": "uint256",
          "name": "tokenId",
          "type": "uint256"
        }
      ],
      "name": "Approval",
      "type": "event"
    },
    {
      "anonymous": false,
      "inputs": [
        {
          "indexed": true,
          "internalType": "address",
          "name": "owner",
          "type": "address"
        },
        {
          "indexed": true,
          "internalType": "address",
          "name": "operator",
          "type": "address"
        },
        {
          "indexed": false,
          "internalType": "bool",
          "name": "approved",
          "type": "bool"
        }
      ],
      "name": "ApprovalForAll",
      "type": "event"
    },
    {
      "anonymous": false,
      "inputs": [
        {
          "indexed": false,
          "internalType": "address",
          "name": "account",
          "type": "address"
        },
        {
          "indexed": false,
          "internalType": "uint256",
          "name": "amount",
          "type": "uint256"
        }
      ],
      "name": "DecreasedUnlimitedLock",
      "type": "event"
    },
    {
      "anonymous": false,
      "inputs": [
        {
          "indexed": false,
          "internalType": "address",
          "name": "account",
          "type": "address"
        },
        {
          "indexed": false,
          "internalType": "uint256",
          "name": "lockId",
          "type": "uint256"
        },
        {
          "indexed": false,
          "internalType": "uint256",
          "name": "value",
          "type": "uint256"
        },
        {
          "indexed": false,
          "internalType": "uint256",
          "name": "unlockTime",
          "type": "uint256"
        }
      ],
      "name": "IncreasedLock",
      "type": "event"
    },
    {
      "anonymous": false,
      "inputs": [
        {
          "indexed": false,
          "internalType": "address",
          "name": "account",
          "type": "address"
        },
        {
          "indexed": false,
          "internalType": "uint256",
          "name": "amount",
          "type": "uint256"
        }
      ],
      "name": "IncreasedUnlimitedLock",
      "type": "event"
    },
    {
      "anonymous": false,
      "inputs": [
        {
          "indexed": false,
          "internalType": "address",
          "name": "account",
          "type": "address"
        },
        {
          "indexed": false,
          "internalType": "uint256",
          "name": "lockId",
          "type": "uint256"
        },
        {
          "indexed": false,
          "internalType": "uint256",
          "name": "amount",
          "type": "uint256"
        },
        {
          "indexed": false,
          "internalType": "uint256",
          "name": "unlockTime",
          "type": "uint256"
        }
      ],
      "name": "LockCreated",
      "type": "event"
    },
    {
      "anonymous": false,
      "inputs": [
        {
          "indexed": false,
          "internalType": "address",
          "name": "account",
          "type": "address"
        },
        {
          "indexed": false,
          "internalType": "uint256",
          "name": "lockId",
          "type": "uint256"
        },
        {
          "indexed": false,
          "internalType": "uint256",
          "name": "value",
          "type": "uint256"
        }
      ],
      "name": "LockDeposited",
      "type": "event"
    },
    {
      "anonymous": false,
      "inputs": [
        {
          "indexed": true,
          "internalType": "address",
          "name": "from",
          "type": "address"
        },
        {
          "indexed": true,
          "internalType": "address",
          "name": "to",
          "type": "address"
        },
        {
          "indexed": true,
          "internalType": "uint256",
          "name": "tokenId",
          "type": "uint256"
        }
      ],
      "name": "Transfer",
      "type": "event"
    },
    {
      "anonymous": false,
      "inputs": [
        {
          "indexed": false,
          "internalType": "address",
          "name": "from",
          "type": "address"
        },
        {
          "indexed": false,
          "internalType": "address",
          "name": "to",
          "type": "address"
        },
        {
          "indexed": false,
          "internalType": "uint256",
          "name": "oldLockId",
          "type": "uint256"
        },
        {
          "indexed": false,
          "internalType": "uint256",
          "name": "tokenId",
          "type": "uint256"
        },
        {
          "indexed": false,
          "internalType": "uint256",
          "name": "amount",
          "type": "uint256"
        },
        {
          "indexed": false,
          "internalType": "uint256",
          "name": "end",
          "type": "uint256"
        }
      ],
      "name": "TransferLock",
      "type": "event"
    },
    {
      "anonymous": false,
      "inputs": [
        {
          "indexed": false,
          "internalType": "address",
          "name": "from",
          "type": "address"
        },
        {
          "indexed": false,
          "internalType": "address",
          "name": "to",
          "type": "address"
        },
        {
          "indexed": false,
          "internalType": "uint256",
          "name": "amount",
          "type": "uint256"
        }
      ],
      "name": "TransferUnlimitedLock",
      "type": "event"
    },
    {
      "inputs": [],
      "name": "MULTIPLIER",
      "outputs": [
        {
          "internalType": "uint256",
          "name": "",
          "type": "uint256"
        }
      ],
      "stateMutability": "view",
      "type": "function"
    },
    {
      "inputs": [],
      "name": "_ERC721_RECEIVED",
      "outputs": [
        {
          "internalType": "bytes4",
          "name": "",
          "type": "bytes4"
        }
      ],
      "stateMutability": "view",
      "type": "function"
    },
    {
      "inputs": [],
      "name": "_INTERFACE_ID_ERC721",
      "outputs": [
        {
          "internalType": "bytes4",
          "name": "",
          "type": "bytes4"
        }
      ],
      "stateMutability": "view",
      "type": "function"
    },
    {
      "inputs": [],
      "name": "_INTERFACE_ID_ERC721_ENUMERABLE",
      "outputs": [
        {
          "internalType": "bytes4",
          "name": "",
          "type": "bytes4"
        }
      ],
      "stateMutability": "view",
      "type": "function"
    },
    {
      "inputs": [],
      "name": "_INTERFACE_ID_ERC721_METADATA",
      "outputs": [
        {
          "internalType": "bytes4",
          "name": "",
          "type": "bytes4"
        }
      ],
      "stateMutability": "view",
      "type": "function"
    },
    {
      "inputs": [
        {
          "internalType": "uint256",
          "name": "",
          "type": "uint256"
        }
      ],
      "name": "_allTokens",
      "outputs": [
        {
          "internalType": "uint256",
          "name": "",
          "type": "uint256"
        }
      ],
      "stateMutability": "view",
      "type": "function"
    },
    {
      "inputs": [
        {
          "internalType": "uint256",
          "name": "",
          "type": "uint256"
        }
      ],
      "name": "_allTokensIndex",
      "outputs": [
        {
          "internalType": "uint256",
          "name": "",
          "type": "uint256"
        }
      ],
      "stateMutability": "view",
      "type": "function"
    },
    {
      "inputs": [],
      "name": "_baseURI",
      "outputs": [
        {
          "internalType": "string",
          "name": "",
          "type": "string"
        }
      ],
      "stateMutability": "view",
      "type": "function"
    },
    {
      "inputs": [
        {
          "internalType": "uint256",
          "name": "_timestamp",
          "type": "uint256"
        }
      ],
      "name": "_findClosestTimeindex",
      "outputs": [
        {
          "internalType": "bool",
          "name": "success",
          "type": "bool"
        },
        {
          "internalType": "uint256",
          "name": "timeindex",
          "type": "uint256"
        }
      ],
      "stateMutability": "view",
      "type": "function"
    },
    {
      "inputs": [],
      "name": "_manager",
      "outputs": [
        {
          "internalType": "address",
          "name": "",
          "type": "address"
        }
      ],
      "stateMutability": "view",
      "type": "function"
    },
    {
      "inputs": [],
      "name": "_name",
      "outputs": [
        {
          "internalType": "string",
          "name": "",
          "type": "string"
        }
      ],
      "stateMutability": "view",
      "type": "function"
    },
    {
      "inputs": [
        {
          "internalType": "address",
          "name": "",
          "type": "address"
        },
        {
          "internalType": "address",
          "name": "",
          "type": "address"
        }
      ],
      "name": "_operatorApprovals",
      "outputs": [
        {
          "internalType": "bool",
          "name": "",
          "type": "bool"
        }
      ],
      "stateMutability": "view",
      "type": "function"
    },
    {
      "inputs": [
        {
          "internalType": "address",
          "name": "",
          "type": "address"
        },
        {
          "internalType": "uint256",
          "name": "",
          "type": "uint256"
        }
      ],
      "name": "_ownedTokens",
      "outputs": [
        {
          "internalType": "uint256",
          "name": "",
          "type": "uint256"
        }
      ],
      "stateMutability": "view",
      "type": "function"
    },
    {
      "inputs": [
        {
          "internalType": "address",
          "name": "",
          "type": "address"
        }
      ],
      "name": "_ownedTokensCount",
      "outputs": [
        {
          "internalType": "uint256",
          "name": "",
          "type": "uint256"
        }
      ],
      "stateMutability": "view",
      "type": "function"
    },
    {
      "inputs": [
        {
          "internalType": "uint256",
          "name": "",
          "type": "uint256"
        }
      ],
      "name": "_ownedTokensIndex",
      "outputs": [
        {
          "internalType": "uint256",
          "name": "",
          "type": "uint256"
        }
      ],
      "stateMutability": "view",
      "type": "function"
    },
    {
      "inputs": [],
      "name": "_owner",
      "outputs": [
        {
          "internalType": "address",
          "name": "",
          "type": "address"
        }
      ],
      "stateMutability": "view",
      "type": "function"
    },
    {
      "inputs": [],
      "name": "_symbol",
      "outputs": [
        {
          "internalType": "string",
          "name": "",
          "type": "string"
        }
      ],
      "stateMutability": "view",
      "type": "function"
    },
    {
      "inputs": [
        {
          "internalType": "uint256",
          "name": "",
          "type": "uint256"
        }
      ],
      "name": "_tokenApprovals",
      "outputs": [
        {
          "internalType": "address",
          "name": "",
          "type": "address"
        }
      ],
      "stateMutability": "view",
      "type": "function"
    },
    {
      "inputs": [
        {
          "internalType": "uint256",
          "name": "",
          "type": "uint256"
        }
      ],
      "name": "_tokenAttributes",
      "outputs": [
        {
          "internalType": "uint8",
          "name": "",
          "type": "uint8"
        }
      ],
      "stateMutability": "view",
      "type": "function"
    },
    {
      "inputs": [
        {
          "internalType": "uint256",
          "name": "",
          "type": "uint256"
        }
      ],
      "name": "_tokenOwner",
      "outputs": [
        {
          "internalType": "address",
          "name": "",
          "type": "address"
        }
      ],
      "stateMutability": "view",
      "type": "function"
    },
    {
      "inputs": [
        {
          "internalType": "uint256",
          "name": "",
          "type": "uint256"
        }
      ],
      "name": "_tokenURIs",
      "outputs": [
        {
          "internalType": "string",
          "name": "",
          "type": "string"
        }
      ],
      "stateMutability": "view",
      "type": "function"
    },
    {
      "inputs": [
        {
          "internalType": "uint256",
          "name": "howManyWeeks",
          "type": "uint256"
        }
      ],
      "name": "addLockPeriod",
      "outputs": [],
      "stateMutability": "nonpayable",
      "type": "function"
    },
    {
      "inputs": [
        {
          "internalType": "address",
          "name": "",
          "type": "address"
        }
      ],
      "name": "aliveImplementation",
      "outputs": [
        {
          "internalType": "bool",
          "name": "",
          "type": "bool"
        }
      ],
      "stateMutability": "view",
      "type": "function"
    },
    {
      "inputs": [],
      "name": "allIndexOfTimes",
      "outputs": [
        {
          "internalType": "uint256[]",
          "name": "",
          "type": "uint256[]"
        }
      ],
      "stateMutability": "view",
      "type": "function"
    },
    {
      "inputs": [],
      "name": "allIndexOfUnlimitedTimes",
      "outputs": [
        {
          "internalType": "uint256[]",
          "name": "",
          "type": "uint256[]"
        }
      ],
      "stateMutability": "view",
      "type": "function"
    },
    {
      "inputs": [],
      "name": "allTokens",
      "outputs": [
        {
          "internalType": "uint256[]",
          "name": "",
          "type": "uint256[]"
        }
      ],
      "stateMutability": "view",
      "type": "function"
    },
    {
      "inputs": [
        {
          "internalType": "address",
          "name": "to",
          "type": "address"
        },
        {
          "internalType": "uint256",
          "name": "tokenId",
          "type": "uint256"
        }
      ],
      "name": "approve",
      "outputs": [],
      "stateMutability": "nonpayable",
      "type": "function"
    },
    {
      "inputs": [
        {
          "internalType": "address",
          "name": "owner_",
          "type": "address"
        }
      ],
      "name": "balanceOf",
      "outputs": [
        {
          "internalType": "uint256",
          "name": "",
          "type": "uint256"
        }
      ],
      "stateMutability": "view",
      "type": "function"
    },
    {
      "inputs": [
        {
          "internalType": "address",
          "name": "_addr",
          "type": "address"
        }
      ],
      "name": "balanceOfAccount",
      "outputs": [
        {
          "internalType": "uint256",
          "name": "balance",
          "type": "uint256"
        }
      ],
      "stateMutability": "view",
      "type": "function"
    },
    {
      "inputs": [
        {
          "internalType": "address",
          "name": "_addr",
          "type": "address"
        },
        {
          "internalType": "uint256",
          "name": "_timestamp",
          "type": "uint256"
        }
      ],
      "name": "balanceOfAccountAt",
      "outputs": [
        {
          "internalType": "uint256",
          "name": "balance",
          "type": "uint256"
        }
      ],
      "stateMutability": "view",
      "type": "function"
    },
    {
      "inputs": [
        {
          "internalType": "address",
          "name": "_addr",
          "type": "address"
        }
      ],
      "name": "balanceOfLock",
      "outputs": [
        {
          "internalType": "uint256",
          "name": "balance",
          "type": "uint256"
        }
      ],
      "stateMutability": "view",
      "type": "function"
    },
    {
      "inputs": [
        {
          "internalType": "uint256",
          "name": "_lockId",
          "type": "uint256"
        }
      ],
      "name": "balanceOfLock",
      "outputs": [
        {
          "internalType": "uint256",
          "name": "amount",
          "type": "uint256"
        }
      ],
      "stateMutability": "view",
      "type": "function"
    },
    {
      "inputs": [
        {
          "internalType": "address",
          "name": "_addr",
          "type": "address"
        },
        {
          "internalType": "uint256",
          "name": "_timestamp",
          "type": "uint256"
        }
      ],
      "name": "balanceOfLockAt",
      "outputs": [
        {
          "internalType": "uint256",
          "name": "balance",
          "type": "uint256"
        }
      ],
      "stateMutability": "view",
      "type": "function"
    },
    {
      "inputs": [
        {
          "internalType": "uint256",
          "name": "_lockId",
          "type": "uint256"
        },
        {
          "internalType": "uint256",
          "name": "_timestamp",
          "type": "uint256"
        }
      ],
      "name": "balanceOfLockAt",
      "outputs": [
        {
          "internalType": "uint256",
          "name": "amount",
          "type": "uint256"
        }
      ],
      "stateMutability": "view",
      "type": "function"
    },
    {
      "inputs": [
        {
          "components": [
            {
              "internalType": "int256",
              "name": "slope",
              "type": "int256"
            },
            {
              "internalType": "int256",
              "name": "bias",
              "type": "int256"
            },
            {
              "internalType": "uint256",
              "name": "timestamp",
              "type": "uint256"
            }
          ],
          "internalType": "struct LibLockIdTransferable.Point",
          "name": "point",
          "type": "tuple"
        },
        {
          "internalType": "uint256",
          "name": "timestamp",
          "type": "uint256"
        }
      ],
      "name": "balanceOfPoint",
      "outputs": [
        {
          "internalType": "uint256",
          "name": "",
          "type": "uint256"
        }
      ],
      "stateMutability": "view",
      "type": "function"
    },
    {
      "inputs": [
        {
          "components": [
            {
              "internalType": "int256",
              "name": "slope",
              "type": "int256"
            },
            {
              "internalType": "int256",
              "name": "bias",
              "type": "int256"
            },
            {
              "internalType": "uint256",
              "name": "timestamp",
              "type": "uint256"
            }
          ],
          "internalType": "struct LibLockIdTransferable.Point",
          "name": "point",
          "type": "tuple"
        },
        {
          "internalType": "uint256",
          "name": "timestamp",
          "type": "uint256"
        }
      ],
      "name": "balanceOfPointId",
      "outputs": [
        {
          "internalType": "uint256",
          "name": "",
          "type": "uint256"
        }
      ],
      "stateMutability": "view",
      "type": "function"
    },
    {
      "inputs": [
        {
          "components": [
            {
              "internalType": "uint32",
              "name": "timestamp",
              "type": "uint32"
            },
            {
              "internalType": "uint256",
              "name": "amount",
              "type": "uint256"
            }
          ],
          "internalType": "struct LibLockIdTransferable.UnlimitedAmount",
          "name": "point",
          "type": "tuple"
        },
        {
          "internalType": "uint256",
          "name": "timestamp",
          "type": "uint256"
        }
      ],
      "name": "balanceOfUnlimited",
      "outputs": [
        {
          "internalType": "uint256",
          "name": "",
          "type": "uint256"
        }
      ],
      "stateMutability": "view",
      "type": "function"
    },
    {
      "inputs": [
        {
          "internalType": "address",
          "name": "_addr",
          "type": "address"
        }
      ],
      "name": "balanceOfUnlimitedLock",
      "outputs": [
        {
          "internalType": "uint256",
          "name": "balance",
          "type": "uint256"
        }
      ],
      "stateMutability": "view",
      "type": "function"
    },
    {
      "inputs": [
        {
          "internalType": "address",
          "name": "_addr",
          "type": "address"
        },
        {
          "internalType": "uint256",
          "name": "_timestamp",
          "type": "uint256"
        }
      ],
      "name": "balanceOfUnlimitedLockAt",
      "outputs": [
        {
          "internalType": "uint256",
          "name": "balance",
          "type": "uint256"
        }
      ],
      "stateMutability": "view",
      "type": "function"
    },
    {
      "inputs": [],
      "name": "baseURI",
      "outputs": [
        {
          "internalType": "string",
          "name": "",
          "type": "string"
        }
      ],
      "stateMutability": "view",
      "type": "function"
    },
    {
      "inputs": [
        {
          "internalType": "uint256",
          "name": "_amount",
          "type": "uint256"
        },
        {
          "internalType": "uint256",
          "name": "_unlockWeeks",
          "type": "uint256"
        }
      ],
      "name": "createLock",
      "outputs": [
        {
          "internalType": "uint256",
          "name": "lockId",
          "type": "uint256"
        }
      ],
      "stateMutability": "nonpayable",
      "type": "function"
    },
    {
      "inputs": [
        {
          "internalType": "uint256",
          "name": "",
          "type": "uint256"
        }
      ],
      "name": "deleteSlopeCumuluative",
      "outputs": [
        {
          "internalType": "int256",
          "name": "slope",
          "type": "int256"
        },
        {
          "internalType": "int256",
          "name": "bias",
          "type": "int256"
        },
        {
          "internalType": "uint256",
          "name": "timestamp",
          "type": "uint256"
        }
      ],
      "stateMutability": "view",
      "type": "function"
    },
    {
      "inputs": [
        {
          "internalType": "address",
          "name": "_addr",
          "type": "address"
        },
        {
          "internalType": "uint256",
          "name": "_lockId",
          "type": "uint256"
        },
        {
          "internalType": "uint256",
          "name": "_value",
          "type": "uint256"
        }
      ],
      "name": "depositFor",
      "outputs": [],
      "stateMutability": "nonpayable",
      "type": "function"
    },
    {
      "inputs": [],
      "name": "epochUnit",
      "outputs": [
        {
          "internalType": "uint256",
          "name": "",
          "type": "uint256"
        }
      ],
      "stateMutability": "view",
      "type": "function"
    },
    {
      "inputs": [
        {
          "internalType": "uint256",
          "name": "",
          "type": "uint256"
        }
      ],
      "name": "existedLockPeriod",
      "outputs": [
        {
          "internalType": "bool",
          "name": "",
          "type": "bool"
        }
      ],
      "stateMutability": "view",
      "type": "function"
    },
    {
      "inputs": [
        {
          "internalType": "uint256",
          "name": "tokenId",
          "type": "uint256"
        }
      ],
      "name": "getApproved",
      "outputs": [
        {
          "internalType": "address",
          "name": "",
          "type": "address"
        }
      ],
      "stateMutability": "view",
      "type": "function"
    },
    {
      "inputs": [
        {
          "internalType": "address",
          "name": "_addr",
          "type": "address"
        },
        {
          "internalType": "uint256",
          "name": "_lockId",
          "type": "uint256"
        },
        {
          "internalType": "uint256",
          "name": "_unlockWeeks",
          "type": "uint256"
        }
      ],
      "name": "increaseLock",
      "outputs": [],
      "stateMutability": "nonpayable",
      "type": "function"
    },
    {
      "inputs": [
        {
          "internalType": "uint256",
          "name": "",
          "type": "uint256"
        }
      ],
      "name": "indexCheckOfTimeset",
      "outputs": [
        {
          "internalType": "bool",
          "name": "",
          "type": "bool"
        }
      ],
      "stateMutability": "view",
      "type": "function"
    },
    {
      "inputs": [
        {
          "internalType": "uint256",
          "name": "",
          "type": "uint256"
        },
        {
          "internalType": "uint256",
          "name": "",
          "type": "uint256"
        }
      ],
      "name": "indexCheckOfTimesetForLockEnd",
      "outputs": [
        {
          "internalType": "bool",
          "name": "",
          "type": "bool"
        }
      ],
      "stateMutability": "view",
      "type": "function"
    },
    {
      "inputs": [
        {
          "internalType": "uint256",
          "name": "",
          "type": "uint256"
        }
      ],
      "name": "indexCheckOfTimesetForUnlimited",
      "outputs": [
        {
          "internalType": "bool",
          "name": "",
          "type": "bool"
        }
      ],
      "stateMutability": "view",
      "type": "function"
    },
    {
      "inputs": [
        {
          "internalType": "uint256",
          "name": "",
          "type": "uint256"
        }
      ],
      "name": "indexOfTimeset",
      "outputs": [
        {
          "internalType": "uint256",
          "name": "",
          "type": "uint256"
        }
      ],
      "stateMutability": "view",
      "type": "function"
    },
    {
      "inputs": [
        {
          "internalType": "uint256",
          "name": "",
          "type": "uint256"
        },
        {
          "internalType": "uint256",
          "name": "",
          "type": "uint256"
        }
      ],
      "name": "indexOfTimesetForLockEnd",
      "outputs": [
        {
          "internalType": "uint256",
          "name": "",
          "type": "uint256"
        }
      ],
      "stateMutability": "view",
      "type": "function"
    },
    {
      "inputs": [
        {
          "internalType": "uint256",
          "name": "",
          "type": "uint256"
        }
      ],
      "name": "indexOfTimesetForUnlimited",
      "outputs": [
        {
          "internalType": "uint256",
          "name": "",
          "type": "uint256"
        }
      ],
      "stateMutability": "view",
      "type": "function"
    },
    {
      "inputs": [
        {
          "internalType": "address",
          "name": "owner_",
          "type": "address"
        },
        {
          "internalType": "address",
          "name": "operator",
          "type": "address"
        }
      ],
      "name": "isApprovedForAll",
      "outputs": [
        {
          "internalType": "bool",
          "name": "",
          "type": "bool"
        }
      ],
      "stateMutability": "view",
      "type": "function"
    },
    {
      "inputs": [
        {
          "internalType": "address",
          "name": "addr",
          "type": "address"
        }
      ],
      "name": "isManager",
      "outputs": [
        {
          "internalType": "bool",
          "name": "",
          "type": "bool"
        }
      ],
      "stateMutability": "view",
      "type": "function"
    },
    {
      "inputs": [],
      "name": "lastIndexOfTimeset",
      "outputs": [
        {
          "internalType": "uint256",
          "name": "index",
          "type": "uint256"
        }
      ],
      "stateMutability": "view",
      "type": "function"
    },
    {
      "inputs": [],
      "name": "lastIndexOfTimesetForUnlimited",
      "outputs": [
        {
          "internalType": "uint256",
          "name": "index",
          "type": "uint256"
        }
      ],
      "stateMutability": "view",
      "type": "function"
    },
    {
      "inputs": [
        {
          "internalType": "uint256",
          "name": "_index",
          "type": "uint256"
        }
      ],
      "name": "lastPointOfTimeIndex",
      "outputs": [
        {
          "components": [
            {
              "internalType": "int256",
              "name": "slope",
              "type": "int256"
            },
            {
              "internalType": "int256",
              "name": "bias",
              "type": "int256"
            },
            {
              "internalType": "uint256",
              "name": "timestamp",
              "type": "uint256"
            }
          ],
          "internalType": "struct LibLockIdTransferable.Point",
          "name": "",
          "type": "tuple"
        }
      ],
      "stateMutability": "view",
      "type": "function"
    },
    {
      "inputs": [
        {
          "internalType": "uint256",
          "name": "_index",
          "type": "uint256"
        }
      ],
      "name": "lastPointOfTimeIndexForUnlimited",
      "outputs": [
        {
          "components": [
            {
              "internalType": "uint32",
              "name": "timestamp",
              "type": "uint32"
            },
            {
              "internalType": "uint256",
              "name": "amount",
              "type": "uint256"
            }
          ],
          "internalType": "struct LibLockIdTransferable.UnlimitedAmount",
          "name": "",
          "type": "tuple"
        }
      ],
      "stateMutability": "view",
      "type": "function"
    },
    {
      "inputs": [
        {
          "internalType": "uint256",
          "name": "",
          "type": "uint256"
        }
      ],
      "name": "lockIdInfos",
      "outputs": [
        {
          "internalType": "uint256",
          "name": "start",
          "type": "uint256"
        },
        {
          "internalType": "uint256",
          "name": "end",
          "type": "uint256"
        },
        {
          "internalType": "uint256",
          "name": "unlockWeeks",
          "type": "uint256"
        },
        {
          "internalType": "uint256",
          "name": "withdrawalTime",
          "type": "uint256"
        },
        {
          "internalType": "uint256",
          "name": "amount",
          "type": "uint256"
        }
      ],
      "stateMutability": "view",
      "type": "function"
    },
    {
      "inputs": [
        {
          "internalType": "uint256",
          "name": "",
          "type": "uint256"
        }
      ],
      "name": "lockPeriod",
      "outputs": [
        {
          "internalType": "uint256",
          "name": "",
          "type": "uint256"
        }
      ],
      "stateMutability": "view",
      "type": "function"
    },
    {
      "inputs": [],
      "name": "manager",
      "outputs": [
        {
          "internalType": "address",
          "name": "",
          "type": "address"
        }
      ],
      "stateMutability": "view",
      "type": "function"
    },
    {
      "inputs": [],
      "name": "maxTime",
      "outputs": [
        {
          "internalType": "uint256",
          "name": "",
          "type": "uint256"
        }
      ],
      "stateMutability": "view",
      "type": "function"
    },
    {
      "inputs": [],
      "name": "maxTokenId",
      "outputs": [
        {
          "internalType": "uint256",
          "name": "",
          "type": "uint256"
        }
      ],
      "stateMutability": "view",
      "type": "function"
    },
    {
      "inputs": [],
      "name": "name",
      "outputs": [
        {
          "internalType": "string",
          "name": "",
          "type": "string"
        }
      ],
      "stateMutability": "view",
      "type": "function"
    },
    {
      "inputs": [
        {
          "internalType": "uint256",
          "name": "_stime",
          "type": "uint256"
        }
      ],
      "name": "nextTimeIndex",
      "outputs": [
        {
          "internalType": "uint256",
          "name": "",
          "type": "uint256"
        }
      ],
      "stateMutability": "view",
      "type": "function"
    },
    {
      "inputs": [
        {
          "internalType": "uint256",
          "name": "tokenId",
          "type": "uint256"
        }
      ],
      "name": "ownerOf",
      "outputs": [
        {
          "internalType": "address",
          "name": "",
          "type": "address"
        }
      ],
      "stateMutability": "view",
      "type": "function"
    },
    {
      "inputs": [],
      "name": "pauseProxy",
      "outputs": [
        {
          "internalType": "bool",
          "name": "",
          "type": "bool"
        }
      ],
      "stateMutability": "view",
      "type": "function"
    },
    {
      "inputs": [
        {
          "internalType": "uint256",
          "name": "",
          "type": "uint256"
        },
        {
          "internalType": "uint256",
          "name": "",
          "type": "uint256"
        }
      ],
      "name": "pointHistoryByLockId",
      "outputs": [
        {
          "internalType": "int256",
          "name": "slope",
          "type": "int256"
        },
        {
          "internalType": "int256",
          "name": "bias",
          "type": "int256"
        },
        {
          "internalType": "uint256",
          "name": "timestamp",
          "type": "uint256"
        }
      ],
      "stateMutability": "view",
      "type": "function"
    },
    {
      "inputs": [
        {
          "internalType": "uint256",
          "name": "",
          "type": "uint256"
        },
        {
          "internalType": "uint256",
          "name": "",
          "type": "uint256"
        }
      ],
      "name": "pointHistoryByWeek",
      "outputs": [
        {
          "internalType": "int256",
          "name": "slope",
          "type": "int256"
        },
        {
          "internalType": "int256",
          "name": "bias",
          "type": "int256"
        },
        {
          "internalType": "uint256",
          "name": "timestamp",
          "type": "uint256"
        }
      ],
      "stateMutability": "view",
      "type": "function"
    },
    {
      "inputs": [
        {
          "internalType": "uint256",
          "name": "_lockId",
          "type": "uint256"
        }
      ],
      "name": "pointHistoryOfId",
      "outputs": [
        {
          "components": [
            {
              "internalType": "int256",
              "name": "slope",
              "type": "int256"
            },
            {
              "internalType": "int256",
              "name": "bias",
              "type": "int256"
            },
            {
              "internalType": "uint256",
              "name": "timestamp",
              "type": "uint256"
            }
          ],
          "internalType": "struct LibLockIdTransferable.Point[]",
          "name": "",
          "type": "tuple[]"
        }
      ],
      "stateMutability": "view",
      "type": "function"
    },
    {
      "inputs": [
        {
          "internalType": "uint256",
          "name": "_timeIndex",
          "type": "uint256"
        }
      ],
      "name": "pointHistoryOfTimeIndex",
      "outputs": [
        {
          "components": [
            {
              "internalType": "int256",
              "name": "slope",
              "type": "int256"
            },
            {
              "internalType": "int256",
              "name": "bias",
              "type": "int256"
            },
            {
              "internalType": "uint256",
              "name": "timestamp",
              "type": "uint256"
            }
          ],
          "internalType": "struct LibLockIdTransferable.Point[]",
          "name": "",
          "type": "tuple[]"
        }
      ],
      "stateMutability": "view",
      "type": "function"
    },
    {
      "inputs": [
        {
          "internalType": "uint256",
          "name": "_timeIndex",
          "type": "uint256"
        }
      ],
      "name": "pointHistoryOfTimeIndexForUnlimited",
      "outputs": [
        {
          "components": [
            {
              "internalType": "uint32",
              "name": "timestamp",
              "type": "uint32"
            },
            {
              "internalType": "uint256",
              "name": "amount",
              "type": "uint256"
            }
          ],
          "internalType": "struct LibLockIdTransferable.UnlimitedAmount[]",
          "name": "",
          "type": "tuple[]"
        }
      ],
      "stateMutability": "view",
      "type": "function"
    },
    {
      "inputs": [
        {
          "internalType": "address",
          "name": "_addr",
          "type": "address"
        }
      ],
      "name": "pointHistoryOfUnlimited",
      "outputs": [
        {
          "components": [
            {
              "internalType": "uint32",
              "name": "timestamp",
              "type": "uint32"
            },
            {
              "internalType": "uint256",
              "name": "amount",
              "type": "uint256"
            }
          ],
          "internalType": "struct LibLockIdTransferable.UnlimitedAmount[]",
          "name": "",
          "type": "tuple[]"
        }
      ],
      "stateMutability": "view",
      "type": "function"
    },
    {
      "inputs": [],
      "name": "pointOfLastTimeIndex",
      "outputs": [
        {
          "components": [
            {
              "internalType": "int256",
              "name": "slope",
              "type": "int256"
            },
            {
              "internalType": "int256",
              "name": "bias",
              "type": "int256"
            },
            {
              "internalType": "uint256",
              "name": "timestamp",
              "type": "uint256"
            }
          ],
          "internalType": "struct LibLockIdTransferable.Point",
          "name": "",
          "type": "tuple"
        }
      ],
      "stateMutability": "view",
      "type": "function"
    },
    {
      "inputs": [],
      "name": "pointOfLastTimeIndexForUnlimited",
      "outputs": [
        {
          "components": [
            {
              "internalType": "uint32",
              "name": "timestamp",
              "type": "uint32"
            },
            {
              "internalType": "uint256",
              "name": "amount",
              "type": "uint256"
            }
          ],
          "internalType": "struct LibLockIdTransferable.UnlimitedAmount",
          "name": "",
          "type": "tuple"
        }
      ],
      "stateMutability": "view",
      "type": "function"
    },
    {
      "inputs": [
        {
          "internalType": "uint256",
          "name": "",
          "type": "uint256"
        }
      ],
      "name": "proxyImplementation",
      "outputs": [
        {
          "internalType": "address",
          "name": "",
          "type": "address"
        }
      ],
      "stateMutability": "view",
      "type": "function"
    },
    {
      "inputs": [
        {
          "internalType": "address",
          "name": "from",
          "type": "address"
        },
        {
          "internalType": "address",
          "name": "to",
          "type": "address"
        },
        {
          "internalType": "uint256",
          "name": "tokenId",
          "type": "uint256"
        }
      ],
      "name": "safeTransferFrom",
      "outputs": [],
      "stateMutability": "nonpayable",
      "type": "function"
    },
    {
      "inputs": [
        {
          "internalType": "address",
          "name": "from",
          "type": "address"
        },
        {
          "internalType": "address",
          "name": "to",
          "type": "address"
        },
        {
          "internalType": "uint256",
          "name": "tokenId",
          "type": "uint256"
        },
        {
          "internalType": "bytes",
          "name": "_data",
          "type": "bytes"
        }
      ],
      "name": "safeTransferFrom",
      "outputs": [],
      "stateMutability": "nonpayable",
      "type": "function"
    },
    {
      "inputs": [
        {
          "internalType": "bytes4",
          "name": "",
          "type": "bytes4"
        }
      ],
      "name": "selectorImplementation",
      "outputs": [
        {
          "internalType": "address",
          "name": "",
          "type": "address"
        }
      ],
      "stateMutability": "view",
      "type": "function"
    },
    {
      "inputs": [
        {
          "internalType": "address",
          "name": "operator",
          "type": "address"
        },
        {
          "internalType": "bool",
          "name": "approved",
          "type": "bool"
        }
      ],
      "name": "setApprovalForAll",
      "outputs": [],
      "stateMutability": "nonpayable",
      "type": "function"
    },
    {
      "inputs": [
        {
          "internalType": "uint256",
          "name": "",
          "type": "uint256"
        },
        {
          "internalType": "uint256",
          "name": "",
          "type": "uint256"
        }
      ],
      "name": "slopeByLockEndTime",
      "outputs": [
        {
          "internalType": "int256",
          "name": "",
          "type": "int256"
        }
      ],
      "stateMutability": "view",
      "type": "function"
    },
    {
      "inputs": [
        {
          "internalType": "uint256",
          "name": "",
          "type": "uint256"
        }
      ],
      "name": "slopeChanges",
      "outputs": [
        {
          "internalType": "int256",
          "name": "",
          "type": "int256"
        }
      ],
      "stateMutability": "view",
      "type": "function"
    },
    {
      "inputs": [],
      "name": "staker",
      "outputs": [
        {
          "internalType": "address",
          "name": "",
          "type": "address"
        }
      ],
      "stateMutability": "view",
      "type": "function"
    },
    {
      "inputs": [
        {
          "internalType": "bytes4",
          "name": "interfaceId",
          "type": "bytes4"
        }
      ],
      "name": "supportsInterface",
      "outputs": [
        {
          "internalType": "bool",
          "name": "",
          "type": "bool"
        }
      ],
      "stateMutability": "view",
      "type": "function"
    },
    {
      "inputs": [],
      "name": "symbol",
      "outputs": [
        {
          "internalType": "string",
          "name": "",
          "type": "string"
        }
      ],
      "stateMutability": "view",
      "type": "function"
    },
    {
      "inputs": [
        {
          "internalType": "uint256",
          "name": "index",
          "type": "uint256"
        }
      ],
      "name": "tokenByIndex",
      "outputs": [
        {
          "internalType": "uint256",
          "name": "",
          "type": "uint256"
        }
      ],
      "stateMutability": "view",
      "type": "function"
    },
    {
      "inputs": [
        {
          "internalType": "address",
          "name": "owner_",
          "type": "address"
        },
        {
          "internalType": "uint256",
          "name": "index",
          "type": "uint256"
        }
      ],
      "name": "tokenOfOwnerByIndex",
      "outputs": [
        {
          "internalType": "uint256",
          "name": "",
          "type": "uint256"
        }
      ],
      "stateMutability": "view",
      "type": "function"
    },
    {
      "inputs": [
        {
          "internalType": "uint256",
          "name": "tokenId",
          "type": "uint256"
        }
      ],
      "name": "tokenURI",
      "outputs": [
        {
          "internalType": "string",
          "name": "",
          "type": "string"
        }
      ],
      "stateMutability": "view",
      "type": "function"
    },
    {
      "inputs": [
        {
          "internalType": "address",
          "name": "owner_",
          "type": "address"
        }
      ],
      "name": "tokensOfOwner",
      "outputs": [
        {
          "internalType": "uint256[]",
          "name": "",
          "type": "uint256[]"
        }
      ],
      "stateMutability": "view",
      "type": "function"
    },
    {
      "inputs": [],
      "name": "tos",
      "outputs": [
        {
          "internalType": "address",
          "name": "",
          "type": "address"
        }
      ],
      "stateMutability": "view",
      "type": "function"
    },
    {
      "inputs": [],
      "name": "totalSupply",
      "outputs": [
        {
          "internalType": "uint256",
          "name": "",
          "type": "uint256"
        }
      ],
      "stateMutability": "view",
      "type": "function"
    },
    {
      "inputs": [],
      "name": "totalSupplyAll",
      "outputs": [
        {
          "internalType": "uint256",
          "name": "amount",
          "type": "uint256"
        }
      ],
      "stateMutability": "view",
      "type": "function"
    },
    {
      "inputs": [
        {
          "internalType": "uint256",
          "name": "_timestamp",
          "type": "uint256"
        }
      ],
      "name": "totalSupplyAllAt",
      "outputs": [
        {
          "internalType": "uint256",
          "name": "amount",
          "type": "uint256"
        }
      ],
      "stateMutability": "view",
      "type": "function"
    },
    {
      "inputs": [],
      "name": "totalSupplyLocks",
      "outputs": [
        {
          "internalType": "uint256",
          "name": "amount",
          "type": "uint256"
        }
      ],
      "stateMutability": "view",
      "type": "function"
    },
    {
      "inputs": [
        {
          "internalType": "uint256",
          "name": "_timestamp",
          "type": "uint256"
        }
      ],
      "name": "totalSupplyLocksAt",
      "outputs": [
        {
          "internalType": "uint256",
          "name": "amount",
          "type": "uint256"
        }
      ],
      "stateMutability": "view",
      "type": "function"
    },
    {
      "inputs": [],
      "name": "totalSupplyUnlimited",
      "outputs": [
        {
          "internalType": "uint256",
          "name": "amount",
          "type": "uint256"
        }
      ],
      "stateMutability": "view",
      "type": "function"
    },
    {
      "inputs": [
        {
          "internalType": "uint256",
          "name": "_timestamp",
          "type": "uint256"
        }
      ],
      "name": "totalSupplyUnlimitedAt",
      "outputs": [
        {
          "internalType": "uint256",
          "name": "amount",
          "type": "uint256"
        }
      ],
      "stateMutability": "view",
      "type": "function"
    },
    {
      "inputs": [
        {
          "internalType": "address",
          "name": "from",
          "type": "address"
        },
        {
          "internalType": "address",
          "name": "to",
          "type": "address"
        },
        {
          "internalType": "uint256",
          "name": "tokenId",
          "type": "uint256"
        }
      ],
      "name": "transferFrom",
      "outputs": [],
      "stateMutability": "nonpayable",
      "type": "function"
    },
    {
      "inputs": [
        {
          "internalType": "address",
          "name": "",
          "type": "address"
        },
        {
          "internalType": "uint256",
          "name": "",
          "type": "uint256"
        }
      ],
      "name": "unlimitedAmountByAccount",
      "outputs": [
        {
          "internalType": "uint32",
          "name": "timestamp",
          "type": "uint32"
        },
        {
          "internalType": "uint256",
          "name": "amount",
          "type": "uint256"
        }
      ],
      "stateMutability": "view",
      "type": "function"
    },
    {
      "inputs": [
        {
          "internalType": "uint256",
          "name": "",
          "type": "uint256"
        },
        {
          "internalType": "uint256",
          "name": "",
          "type": "uint256"
        }
      ],
      "name": "unlimitedHistoryByWeek",
      "outputs": [
        {
          "internalType": "uint32",
          "name": "timestamp",
          "type": "uint32"
        },
        {
          "internalType": "uint256",
          "name": "amount",
          "type": "uint256"
        }
      ],
      "stateMutability": "view",
      "type": "function"
    }
  ],
  "bytecode": "0x60806040523480156200001157600080fd5b5060405162005aaf38038062005aaf83398101604081905262000034916200021e565b620000466301ffc9a760e01b620000b8565b600580546001600160a01b0319166001600160a01b03861617905560076200006f87826200034e565b5060086200007e86826200034e565b50601592909255601655601480546001600160a01b0390921661010002610100600160a81b0319909216919091179055506200041a915050565b6001600160e01b03198082169003620001175760405162461bcd60e51b815260206004820152601c60248201527f4552433136353a20696e76616c696420696e7465726661636520696400000000604482015260640160405180910390fd5b6001600160e01b0319166000908152600460205260409020805460ff19166001179055565b634e487b7160e01b600052604160045260246000fd5b600082601f8301126200016457600080fd5b81516001600160401b03808211156200018157620001816200013c565b604051601f8301601f19908116603f01168101908282118183101715620001ac57620001ac6200013c565b81604052838152602092508683858801011115620001c957600080fd5b600091505b83821015620001ed5785820183015181830184015290820190620001ce565b600093810190920192909252949350505050565b80516001600160a01b03811681146200021957600080fd5b919050565b60008060008060008060c087890312156200023857600080fd5b86516001600160401b03808211156200025057600080fd5b6200025e8a838b0162000152565b975060208901519150808211156200027557600080fd5b506200028489828a0162000152565b955050620002956040880162000201565b93506060870151925060808701519150620002b360a0880162000201565b90509295509295509295565b600181811c90821680620002d457607f821691505b602082108103620002f557634e487b7160e01b600052602260045260246000fd5b50919050565b601f8211156200034957600081815260208120601f850160051c81016020861015620003245750805b601f850160051c820191505b81811015620003455782815560010162000330565b5050505b505050565b81516001600160401b038111156200036a576200036a6200013c565b62000382816200037b8454620002bf565b84620002fb565b602080601f831160018114620003ba5760008415620003a15750858301515b600019600386901b1c1916600185901b17855562000345565b600085815260208120601f198616915b82811015620003eb57888601518255948401946001909101908401620003ca565b50858210156200040a5787850151600019600388901b60f8161c191681555b5050505050600190811b01905550565b615685806200042a6000396000f3fe608060405234801561001057600080fd5b50600436106106675760003560e01c806391ba317a11610350578063c237d392116101c8578063e985e9c511610104578063f3ae2415116100ad578063f88d1fef11610087578063f88d1fef14610f48578063f975d9f314610f50578063fd2dcecf14610f63578063fea3d59d14610f6c57600080fd5b8063f3ae241514610ef5578063f52a36f714610f08578063f663171814610f2857600080fd5b8063edc3bc3f116100de578063edc3bc3f14610ea1578063ef27c77314610ecf578063f0329f6b14610ee257600080fd5b8063e985e9c514610e32578063ea0a569314610e6e578063eb05681914610e8e57600080fd5b8063d0fef6d911610171578063de6961801161014b578063de69618014610df6578063dece685414610dfe578063e178ee2014610e0c578063e50388a614610e1f57600080fd5b8063d0fef6d914610daf578063d28d885214610dda578063db23690914610de257600080fd5b8063c87b56dd116101a2578063c87b56dd14610d66578063cdc4717c14610d79578063cea823cd14610d8c57600080fd5b8063c237d39214610d2d578063c3585eef14610d40578063c4b475e414610d5357600080fd5b8063aa88652b11610297578063b52c05fe11610240578063b911135f1161021a578063b911135f14610cbe578063b94419e014610ce7578063ba209fcf14610cfa578063bb881b2e14610d1a57600080fd5b8063b52c05fe14610c85578063b8355a4b14610c98578063b88d4fde14610cab57600080fd5b8063b09f126611610271578063b09f126614610c62578063b2bdfa7b14610c6a578063b42394f114610c7d57600080fd5b8063aa88652b14610c21578063abd4c0d514610c41578063b01ac59114610c5457600080fd5b8063a22cb465116102f9578063a7cc0136116102d3578063a7cc013614610bdd578063a898e9fa14610c06578063aa5965ae14610c0e57600080fd5b8063a22cb46514610b8a578063a2e9b43914610b9d578063a726366514610bbd57600080fd5b806396aa4a291161032a57806396aa4a2914610b5c57806398ff208814610b64578063993b6ef914610b7757600080fd5b806391ba317a14610b3d57806394a509dd14610b4657806395d89b4114610b5457600080fd5b80634f3c5f06116104e35780636ff97f1d1161042a5780637acc9b29116103d3578063872d0109116103ad578063872d010914610ab957806388290adc14610adb57806389f395de14610b025780638e9d05bc14610b1a57600080fd5b80637acc9b2914610a805780637b6dbf2014610a935780638462151c14610aa657600080fd5b80637267ad63116104045780637267ad6314610a20578063743976a014610a4f578063796db31214610a5757600080fd5b80636ff97f1d146109f257806370a08231146109fa5780637207e74314610a0d57600080fd5b80635a2fc1fc1161048c57806363a8fd891161046657806363a8fd89146109b2578063642cf649146109d75780636c0360eb146109ea57600080fd5b80635a2fc1fc146109845780635ebaf1db1461098c5780636352211e1461099f57600080fd5b806351b10224116104bd57806351b102241461092457806353495ddc1461094e578063550d01a31461096157600080fd5b80634f3c5f06146108d55780634f6ccce7146108e857806350d2a276146108fb57600080fd5b806323b872dd116105b25780633850da9c1161055b57806342842e0e1161053557806342842e0e1461088b578063481c6a751461089e57806349d1e042146108af5780634cf5fbf5146108c257600080fd5b80633850da9c146108505780633e47a4b11461086557806341668abe1461087857600080fd5b80632f745c591161058c5780632f745c591461080757806334067c3c1461081a57806334ee79c81461082257600080fd5b806323b872dd146107b357806328f02c68146107c65780632a9dc836146107f457600080fd5b80630bb78ec11161061457806317a3a79c116105ee57806317a3a79c1461076d57806318160ddd146107a257806322e67e71146107aa57600080fd5b80630bb78ec1146107275780630dc4b5511461073a57806310c113601461075a57600080fd5b8063081812fc11610645578063081812fc146106e0578063095ea7b31461070b57806309bd78611461072057600080fd5b806301ffc9a71461066c578063059f8b16146106ae57806306fdde03146106cb575b600080fd5b61069961067a366004614e74565b6001600160e01b03191660009081526004602052604090205460ff1690565b60405190151581526020015b60405180910390f35b6106bd670de0b6b3a764000081565b6040519081526020016106a5565b6106d3610fd1565b6040516106a59190614eee565b6106f36106ee366004614f01565b611063565b6040516001600160a01b0390911681526020016106a5565b61071e610719366004614f31565b611100565b005b60006106bd565b6106d3610735366004614f01565b611229565b61074d610748366004614f01565b6112c3565b6040516106a59190614f5b565b6106bd610768366004614f01565b61140d565b61079061077b366004614f01565b600a6020526000908152604090205460ff1681565b60405160ff90911681526020016106a5565b6012546106bd565b6106bd60165481565b61071e6107c1366004614f78565b61142e565b6107d96107d4366004614fb4565b6114a1565b604080519384526020840192909252908201526060016106a5565b6106bd610802366004614f01565b6114e3565b6106bd610815366004614f31565b6114ff565b6106bd6115a1565b610699610830366004614fb4565b602660209081526000928352604080842090915290825290205460ff1681565b6108586115e4565b6040516106a59190614fd6565b6106bd61087336600461501a565b61163b565b6106bd610886366004614f31565b6116a4565b61071e610899366004614f78565b61170f565b6005546001600160a01b03166106f3565b6106bd6108bd366004614f01565b61172a565b61071e6108d0366004615035565b61178e565b6106bd6108e3366004614f31565b6119d3565b6106bd6108f6366004614f01565b611a04565b6106f3610909366004614e74565b6003602052600090815260409020546001600160a01b031681565b610937610932366004614f01565b611a90565b6040805192151583526020830191909152016106a5565b6106bd61095c366004614f31565b611b99565b61069961096f36600461501a565b60026020526000908152604090205460ff1681565b61074d611bc0565b6006546106f3906001600160a01b031681565b6106f36109ad366004614f01565b611bdf565b6000546106999074010000000000000000000000000000000000000000900460ff1681565b6106bd6109e5366004614fb4565b611c6a565b6106d3611d3b565b610858611d4a565b6106bd610a0836600461501a565b611da0565b6106bd610a1b366004614fb4565b611e3a565b610a33610a2e366004614fb4565b611e56565b6040805163ffffffff90931683526020830191909152016106a5565b6106d3611e99565b6106f3610a65366004614f01565b600c602052600090815260409020546001600160a01b031681565b6106bd610a8e36600461501a565b611ea6565b61071e610aa1366004615035565b611f40565b610858610ab436600461501a565b612277565b610699610ac7366004614f01565b602080526000908152604090205460ff1681565b610ae9630a85bd0160e11b81565b6040516001600160e01b031990911681526020016106a5565b6014546106f39061010090046001600160a01b031681565b610699610b28366004614f01565b60226020526000908152604090205460ff1681565b6106bd60175481565b610ae9635b5e139f60e01b81565b6106d36122e3565b6106bd6122f2565b6106bd610b723660046150af565b612314565b610a33610b85366004614f31565b612380565b61071e610b98366004615125565b61239c565b6106bd610bab366004614f01565b60116020526000908152604090205481565b6106bd610bcb366004614f01565b60136020526000908152604090205481565b6106f3610beb366004614f01565b600d602052600090815260409020546001600160a01b031681565b610858612460565b6106bd610c1c366004614f01565b6124b6565b610c34610c2f366004614f01565b6124c6565b6040516106a59190615161565b6106bd610c4f366004615182565b612667565b610ae963780e9d6360e01b81565b6106d36128e1565b6000546106f3906001600160a01b031681565b6106bd6128ee565b6106bd610c93366004614fb4565b612903565b6106bd610ca6366004614f01565b612b24565b61071e610cb93660046151f0565b612b34565b6106f3610ccc366004614f01565b6001602052600090815260409020546001600160a01b031681565b6106bd610cf5366004614f01565b612bae565b610d0d610d08366004614f01565b612ccd565b6040516106a591906152b0565b6107d9610d28366004614f01565b612d5d565b6106bd610d3b36600461501a565b612d90565b6106bd610d4e366004614f31565b612da4565b61071e610d61366004614f01565b612dee565b6106d3610d74366004614f01565b612f4e565b6106bd610d87366004614f01565b6130b7565b610699610d9a366004614f01565b601d6020526000908152604090205460ff1681565b6106bd610dbd366004614fb4565b602460209081526000928352604080842090915290825290205481565b6106d36130dc565b6106bd610df0366004614f01565b50600090565b6106bd6130e9565b610ae96380ac58cd60e01b81565b6107d9610e1a366004614fb4565b6130fc565b6106bd610e2d366004615182565b613118565b610699610e40366004615306565b6001600160a01b039182166000908152600f6020908152604080832093909416825291909152205460ff1690565b610e81610e7c36600461501a565b61356c565b6040516106a59190615339565b610e81610e9c366004614f01565b6135e9565b610699610eaf366004615306565b600f60209081526000928352604080842090915290825290205460ff1681565b6106bd610edd366004614f01565b613659565b6005546106f3906001600160a01b031681565b610699610f0336600461501a565b613669565b6106bd610f16366004614f01565b60236020526000908152604090205481565b6106bd610f3636600461501a565b600e6020526000908152604090205481565b610c34613691565b610d0d610f5e366004614f01565b6136c0565b6106bd60155481565b610fa9610f7a366004614f01565b601860205260009081526040902080546001820154600283015460038401546004909401549293919290919085565b604080519586526020860194909452928401919091526060830152608082015260a0016106a5565b606060078054610fe090615396565b80601f016020809104026020016040519081016040528092919081815260200182805461100c90615396565b80156110595780601f1061102e57610100808354040283529160200191611059565b820191906000526020600020905b81548152906001019060200180831161103c57829003601f168201915b5050505050905090565b6000818152600c60205260408120546001600160a01b03166110e45760405162461bcd60e51b815260206004820152602f60248201527f4c6f636b49644e46543a20617070726f76656420717565727920666f72206e6f60448201526e3732bc34b9ba32b73a103a37b5b2b760891b60648201526084015b60405180910390fd5b506000908152600d60205260409020546001600160a01b031690565b600061110b82611bdf565b9050806001600160a01b0316836001600160a01b03160361116e5760405162461bcd60e51b815260206004820152601960248201527f617070726f76616c20746f2063757272656e74206f776e65720000000000000060448201526064016110db565b336001600160a01b03821614806111a857506001600160a01b0381166000908152600f6020908152604080832033845290915290205460ff165b61121a5760405162461bcd60e51b815260206004820152603060248201527f617070726f76652063616c6c6572206973206e6f74206f776e6572206e6f722060448201527f617070726f76656420666f7220616c6c0000000000000000000000000000000060648201526084016110db565b611224838361373b565b505050565b6009602052600090815260409020805461124290615396565b80601f016020809104026020016040519081016040528092919081815260200182805461126e90615396565b80156112bb5780601f10611290576101008083540402835291602001916112bb565b820191906000526020600020905b81548152906001019060200180831161129e57829003601f168201915b505050505081565b604080518082019091526000808252602082015281156113ef576000828152601b6020908152604080832080548251818502810185019093528083529192909190849084015b8282101561134e5760008481526020908190206040805180820190915260028502909101805463ffffffff168252600190810154828401529083529092019101611309565b50505050905080516000146113d4576040518060400160405280826001845161137791906153e0565b81518110611387576113876153f3565b60200260200101516000015163ffffffff16815260200182600184516113ad91906153e0565b815181106113bd576113bd6153f3565b602002602001015160200151815250915050919050565b50506040805180820190915260008082526020820152919050565b5050604080518082019091526000808252602082015290565b919050565b601c818154811061141d57600080fd5b600091825260209091200154905081565b61143833826137b6565b6114965760405162461bcd60e51b815260206004820152602960248201527f7472616e736665722063616c6c6572206973206e6f74206f776e6572206e6f7260448201526808185c1c1c9bdd995960ba1b60648201526084016110db565b6112248383836138ac565b601a60205281600052604060002081815481106114bd57600080fd5b600091825260209091206003909102018054600182015460029092015490935090915083565b6000806114ef8361172a565b6114f99190615409565b92915050565b600061150a83611da0565b82106115645760405162461bcd60e51b8152602060048201526024808201527f4c6f636b49644e46543a206f776e657220696e646578206f7574206f6620626f604482015263756e647360e01b60648201526084016110db565b6001600160a01b038316600090815260106020526040902080548390811061158e5761158e6153f3565b9060005260206000200154905092915050565b601c5460009081036115b35750600090565b601c80546115c3906001906153e0565b815481106115d3576115d36153f3565b90600052602060002001545b905090565b6060601f80548060200260200160405190810160405280929190818152602001828054801561105957602002820191906000526020600020905b81548152602001906001019080831161161e575050505050905090565b60008061164783612277565b9050805160001461169e5760005b815181101561169c57611680828281518110611673576116736153f3565b6020026020010151612bae565b61168a9084615409565b92506116958161541c565b9050611655565b505b50919050565b6000806116b084612277565b905080516000146117085760005b8151811015611706576116ea8282815181106116dc576116dc6153f3565b602002602001015185611c6a565b6116f49084615409565b92506116ff8161541c565b90506116be565b505b5092915050565b61122483838360405180602001604052806000815250612b34565b600080600061173884611a90565b915091508161174b575060009392505050565b6000818152601a6020526040812081906117659087613ba6565b915091508161177a5750600095945050505050565b6117848187613118565b9695505050505050565b80806000036117cc5760405162461bcd60e51b815260206004820152600a6024820152697a65726f2076616c756560b01b60448201526064016110db565b6000838152600c60205260409020546001600160a01b03166118245760405162461bcd60e51b81526020600482015260116024820152703737b732bc34b9ba32b73a103a37b5b2b760791b60448201526064016110db565b6000838152600c60205260409020546001600160a01b03858116911614801561185557506001600160a01b03841615155b61188d5760405162461bcd60e51b81526020600482015260096024820152683737ba1037bbb732b960b91b60448201526064016110db565b600083815260186020908152604091829020825160a08101845281548152600182015492810192909252600281015492820192909252600382015460608201819052600490920154608082015290156119285760405162461bcd60e51b815260206004820152601860248201527f49742069732077697468647261776e20616c72656164792e000000000000000060448201526064016110db565b428160200151116119735760405162461bcd60e51b8152602060048201526015602482015274131bd8dac81d1a5b59481a5cc8199a5b9a5cda1959605a1b60448201526064016110db565b61198a858585846040015185602001516001613cff565b60408051338152602081018690529081018490527fea44bc904f77b1be47cd5b840b00f19b7238f88d7524fa5a86629282bfe6bcc5906060015b60405180910390a15050505050565b601060205281600052604060002081815481106119ef57600080fd5b90600052602060002001600091509150505481565b6000611a0f60125490565b8210611a6b5760405162461bcd60e51b815260206004820152602560248201527f4c6f636b49644e46543a20676c6f62616c20696e646578206f7574206f6620626044820152646f756e647360d81b60648201526084016110db565b60128281548110611a7e57611a7e6153f3565b90600052602060002001549050919050565b601c546015546000918291829080611aa88188615409565b611ab29190615435565b611abc919061544c565b905081600003611ad3575060009485945092505050565b6000825b80611ae3836001615409565b1015611b395760006002611af78385615409565b611b01919061544c565b905083601c8281548110611b1757611b176153f3565b906000526020600020015411611b2f57809250611b33565b8091505b50611ad7565b82601c8381548110611b4d57611b4d6153f3565b906000526020600020015411611b8a576001601c8381548110611b7257611b726153f3565b90600052602060002001549550955050505050915091565b50600096879650945050505050565b6000611ba583836116a4565b611baf8484612da4565b611bb99190615409565b9392505050565b60408051808201909152600080825260208201526115df6107486122f2565b6000818152600c60205260408120546001600160a01b0316806114f95760405162461bcd60e51b815260206004820152602c60248201527f4c6f636b49644e46543a206f776e657220717565727920666f72206e6f6e657860448201527f697374656e7420746f6b656e000000000000000000000000000000000000000060648201526084016110db565b6000828152601860209081526040808320815160a08101835281548152600182015493810193909352600281015491830191909152600381015460608301819052600490910154608083015215801590611cc8575082816060015111155b15611cd75760009150506114f9565b602081015115801590611ced5750828160200151105b15611cfc5760009150506114f9565b60008481526019602052604081208190611d169086613ba6565b915091508115611d2f57611d2a8186612667565b611784565b60009695505050505050565b6060600b8054610fe090615396565b60606012805480602002602001604051908101604052809291908181526020018280548015611059576020028201919060005260206000209081548152602001906001019080831161161e575050505050905090565b60006001600160a01b038216611e1e5760405162461bcd60e51b815260206004820152602d60248201527f4c6f636b49644e46543a2062616c616e636520717565727920666f722074686560448201527f207a65726f20616464726573730000000000000000000000000000000000000060648201526084016110db565b506001600160a01b03166000908152600e602052604090205490565b602560205281600052604060002081815481106119ef57600080fd5b601b6020528160005260406000208181548110611e7257600080fd5b60009182526020909120600290910201805460019091015463ffffffff9091169250905082565b600b805461124290615396565b6001600160a01b0381166000908152601e60205260408120548015611f37576001600160a01b0383166000908152601e60205260409020611f3290611eec6001846153e0565b81548110611efc57611efc6153f3565b600091825260209182902060408051808201909152600290920201805463ffffffff168252600101549181019190915242612314565b611bb9565b60009392505050565b80600003611f7d5760405162461bcd60e51b815260206004820152600a6024820152697a65726f2076616c756560b01b60448201526064016110db565b6000828152600c60205260409020546001600160a01b0316611fd55760405162461bcd60e51b81526020600482015260116024820152703737b732bc34b9ba32b73a103a37b5b2b760791b60448201526064016110db565b6000828152600c60205260409020546001600160a01b03848116911614801561200657506001600160a01b03831615155b61203e5760405162461bcd60e51b81526020600482015260096024820152683737ba1037bbb732b960b91b60448201526064016110db565b600082815260186020908152604091829020825160a0810184528154808252600183015493820193909352600282015493810193909352600381015460608401526004015460808301526120c05760405162461bcd60e51b81526020600482015260096024820152681b9bdd08195e1a5cdd60ba1b60448201526064016110db565b6060810151156121125760405162461bcd60e51b815260206004820152601860248201527f49742069732077697468647261776e20616c72656164792e000000000000000060448201526064016110db565b4281602001511161215d5760405162461bcd60e51b8152602060048201526015602482015274131bd8dac81d1a5b59481a5cc8199a5b9a5cda1959605a1b60448201526064016110db565b6000821561221b5760008481526018602052604090206002015483146121925760008481526018602052604090206002018390555b601554806121a08186615435565b6121aa9042615409565b6121b4919061544c565b6121be9190615435565b6016549091506121ce42836153e0565b1061221b5760405162461bcd60e51b815260206004820152601b60248201527f4d617820756e6c6f636b2074696d65206973206578636565646564000000000060448201526064016110db565b61222f858560008560400151856001613cff565b6040805133815260208101869052600091810191909152606081018290527f5f892c194d8c6e1843b07f17cf9f74a948c12db2d661de24241b1231715bc79f906080016119c4565b6001600160a01b0381166000908152601060209081526040918290208054835181840281018401909452808452606093928301828280156122d757602002820191906000526020600020905b8154815260200190600101908083116122c3575b50505050509050919050565b606060088054610fe090615396565b601f5460009081036123045750600090565b601f80546115c3906001906153e0565b815160009063ffffffff1682108061232e57506020830151155b1561233b575060006114f9565b670de0b6b3a7640000601654601654670de0b6b3a764000086602001516123629190615435565b61236c919061544c565b6123769190615435565b611bb9919061544c565b601e6020528160005260406000208181548110611e7257600080fd5b336001600160a01b038316036123f45760405162461bcd60e51b815260206004820152601160248201527f617070726f766520746f2063616c6c657200000000000000000000000000000060448201526064016110db565b336000818152600f602090815260408083206001600160a01b03871680855290835292819020805460ff191686151590811790915590519081529192917f17307eab39ab6107e8899845ad3d59bd9653f200f220920489ca2b5937696c31910160405180910390a35050565b6060601c805480602002602001604051908101604052809291908181526020018280548015611059576020028201919060005260206000209081548152602001906001019080831161161e575050505050905090565b6012818154811061141d57600080fd5b6124ea60405180606001604052806000815260200160008152602001600081525090565b8115612642576000828152601a6020908152604080832080548251818502810185019093528083529192909190849084015b8282101561256c578382906000526020600020906003020160405180606001604052908160008201548152602001600182015481526020016002820154815250508152602001906001019061251c565b505050509050805160001461261c576040518060600160405280826001845161259591906153e0565b815181106125a5576125a56153f3565b602002602001015160000151815260200182600184516125c591906153e0565b815181106125d5576125d56153f3565b602002602001015160200151815260200182600184516125f591906153e0565b81518110612605576126056153f3565b602002602001015160400151815250915050919050565b604051806060016040528060008152602001600081526020016000815250915050919050565b6040518060600160405280600081526020016000815260200160008152509050919050565b600061268f6040518060600160405280602381526020016155cc602391398460400151614190565b6126ce6040518060400160405280601d81526020017f62616c616e63654f66506f696e7449642074696d657374616d7020257300000081525083614190565b6127116040518060400160405280601f81526020017f62616c616e63654f66506f696e74496420706f696e742e736c6f7065202573008152508460000151614190565b6127546040518060400160405280601e81526020017f62616c616e63654f66506f696e74496420706f696e742e6269617320257300008152508460200151614190565b600083604001518361276691906153e0565b8451612772919061546e565b90506127b36040518060400160405280601881526020017f62616c616e63654f66506f696e7449642070617373202573000000000000000081525082614190565b6128146040518060400160405280601881526020017f62616c616e63654f66506f696e7449642073746f732025730000000000000000815250670de0b6b3a7640000838760200151612805919061549e565b61280f919061544c565b614190565b6000670de0b6b3a764000082866020015113612831576000612841565b828660200151612841919061549e565b61284b919061544c565b905061288c6040518060400160405280601681526020017f62616c616e63654f66506f696e7449642061612025730000000000000000000081525082614190565b84604001518410156128a3576000925050506114f9565b670de0b6b3a7640000828660200151136128be5760006128ce565b8286602001516128ce919061549e565b6128d8919061544c565b95945050505050565b6008805461124290615396565b6000806128f96130e9565b6115df9190615409565b600082806000036129435760405162461bcd60e51b815260206004820152600a6024820152697a65726f2076616c756560b01b60448201526064016110db565b82806000036129815760405162461bcd60e51b815260206004820152600a6024820152697a65726f2076616c756560b01b60448201526064016110db565b60145460ff1615156001036129c15760405162461bcd60e51b8152602060048201526006602482015265696e2075736560d01b60448201526064016110db565b6014805460ff19166001179055601554600090806129df8188615435565b6129e99042615409565b6129f3919061544c565b6129fd9190615435565b601654909150612a0d42836153e0565b1115612a5b5760405162461bcd60e51b815260206004820152601b60248201527f4d617820756e6c6f636b2074696d65206973206578636565646564000000000060448201526064016110db565b612a9a6040518060400160405280600d81526020017f756e6c6f636b54696d652025730000000000000000000000000000000000000081525082614190565b601760008154612aa99061541c565b91829055509350612abf338588888560016141d9565b612ac933856143a8565b6040805133815260208101869052908101879052606081018290527f71fc552ee832a9004ea0bdb07cb6dd9d641eb2cb53b3cfe88c8fdcff886734a09060800160405180910390a150506014805460ff191690555092915050565b601f818154811061141d57600080fd5b612b3e33836137b6565b612b9c5760405162461bcd60e51b815260206004820152602960248201527f7472616e736665722063616c6c6572206973206e6f74206f776e6572206e6f7260448201526808185c1c1c9bdd995960ba1b60648201526084016110db565b612ba8848484846143c2565b50505050565b6000818152601860209081526040808320815160a08101835281548152600182015493810193909352600281015491830191909152600381015460608301819052600490910154608083015215801590612c0c575042816060015111155b15612c1a5750600092915050565b602081015115801590612c305750428160200151105b15612c3e5750600092915050565b6000838152601960205260409020548015612cc2576000848152601960205260409020612cbd90612c706001846153e0565b81548110612c8057612c806153f3565b9060005260206000209060030201604051806060016040529081600082015481526020016001820154815260200160028201548152505042612667565b612cc5565b60005b949350505050565b606060196000838152602001908152602001600020805480602002602001604051908101604052809291908181526020016000905b82821015612d525783829060005260206000209060030201604051806060016040529081600082015481526020016001820154815260200160028201548152505081526020019060010190612d02565b505050509050919050565b60278181548110612d6d57600080fd5b600091825260209091206003909102018054600182015460029092015490925083565b6000612d9b8261163b565b6114ef83611ea6565b6001600160a01b0382166000908152601e6020526040812081908190612dca90856143cd565b915091508115612de357612dde8185612314565b6128d8565b600095945050505050565b6005546001600160a01b03163314612e485760405162461bcd60e51b815260206004820152600b60248201527f6e6f74206d616e6167657200000000000000000000000000000000000000000060448201526064016110db565b60145460ff161515600103612e885760405162461bcd60e51b8152602060048201526006602482015265696e2075736560d01b60448201526064016110db565b6014805460ff1916600117905560008181526022602052604090205460ff1615612ef45760405162461bcd60e51b815260206004820152601260248201527f65786973746564204c6f636b506572696f64000000000000000000000000000060448201526064016110db565b60008181526022602052604081208054600160ff1991821681179092556021805492830181559092527f3a6357012c1a3ae0a17d304c9920310382d968ebcc4b1771f41c6b304205b5700191909155601480549091169055565b6000818152600c60205260409020546060906001600160a01b0316612fb55760405162461bcd60e51b815260206004820152601c60248201527f4c6f636b49644e46543a206e6f6e6578697374656e7420746f6b656e0000000060448201526064016110db565b60008281526009602052604081208054612fce90615396565b80601f0160208091040260200160405190810160405280929190818152602001828054612ffa90615396565b80156130475780601f1061301c57610100808354040283529160200191613047565b820191906000526020600020905b81548152906001019060200180831161302a57829003601f168201915b505050505090506000613058611d3b565b9050805160000361306a575092915050565b81511561309c5780826040516020016130849291906154be565b60405160208183030381529060405292505050919050565b806130a6856144e9565b6040516020016130849291906154be565b601554600090806130c88185615409565b6130d2919061544c565b6114f99190615435565b6007805461124290615396565b60006115df6130f6613691565b42613118565b601960205281600052604060002081815481106114bd57600080fd5b600061314760405180606001604052806039815260200161559360399139845160208601516040870151614589565b6131866040518060400160405280600d81526020017f2074696d657374616d702025730000000000000000000000000000000000000081525083614190565b826040015182101561319a575060006114f9565b60008360400151836131ac91906153e0565b84516131b8919061546e565b90506131f96040518060400160405280601081526020017f2063757272656e7442696173312025730000000000000000000000000000000081525082614190565b60005b602154811015613406576000806132916025600060218681548110613223576132236153f3565b9060005260206000200154815260200190815260200160002080548060200260200160405190810160405280929190818152602001828054801561328657602002820191906000526020600020905b815481526020019060010190808311613272575b5050505050876145d2565b9150915061329e826146c5565b6132dd6040518060400160405280601b81526020017f62616c616e63654f66506f696e742074696d65696e646578202573000000000081525082614190565b81156133f157600060246000602186815481106132fc576132fc6153f3565b9060005260206000200154815260200190815260200160002060008381526020019081526020016000205490506133686040518060400160405280601981526020017f62616c616e63654f66506f696e7420656e64536c6f702025730000000000000081525082614190565b818711156133ef57600061337c83896153e0565b613386908361546e565b90506133c76040518060400160405280601981526020017f62616c616e63654f66506f696e7420656e64426961732025730000000000000081525082614190565b6133d181876154ed565b9550818960000151136133ed57600096505050505050506114f9565b505b505b505080806133fe9061541c565b9150506131fc565b506000806134896027805480602002602001604051908101604052809291908181526020016000905b8282101561347f578382906000526020600020906003020160405180606001604052908160008201548152602001600182015481526020016002820154815250508152602001906001019061342f565b5050505086614709565b9150915081801561349e575080604001518510155b156134f8576134e66040518060400160405280601481526020017f6c61737444656c506f696e742e626961732025730000000000000000000000008152508260200151614190565b60208101516134f590846154ed565b92505b6135376040518060400160405280601081526020017f2063757272656e7442696173322025730000000000000000000000000000000081525084614190565b670de0b6b3a764000083876020015113613552576000613562565b838760200151613562919061549e565b611784919061544c565b6001600160a01b0381166000908152601e60209081526040808320805482518185028101850190935280835260609492939192909184015b82821015612d525760008481526020908190206040805180820190915260028502909101805463ffffffff1682526001908101548284015290835290920191016135a4565b6000818152601b60209081526040808320805482518185028101850190935280835260609492939192909184018215612d525760008481526020908190206040805180820190915260028502909101805463ffffffff1682526001908101548284015290835290920191016135a4565b6021818154811061141d57600080fd5b6005546000906001600160a01b0380841691160361368957506001919050565b506000919050565b6136b560405180606001604052806000815260200160008152602001600081525090565b6115df610c2f6115a1565b6000818152601a60209081526040808320805482518185028101850190935280835260609492939192909184018215612d525783829060005260206000209060030201604051806060016040529081600082015481526020016001820154815260200160028201548152505081526020019060010190612d02565b6000818152600d60205260409020805473ffffffffffffffffffffffffffffffffffffffff19166001600160a01b038416908117909155819061377d82611bdf565b6001600160a01b03167f8c5be1e5ebec7d5bd14f71427d1e84f3dd0314c0f7b2291e5b200ac8c7c3b92560405160405180910390a45050565b6000818152600c60205260408120546001600160a01b03166138325760405162461bcd60e51b815260206004820152602f60248201527f4c6f636b49644e46543a206f70657261746f7220717565727920666f72206e6f60448201526e3732bc34b9ba32b73a103a37b5b2b760891b60648201526084016110db565b600061383d83611bdf565b9050806001600160a01b0316846001600160a01b031614806138785750836001600160a01b031661386d84611063565b6001600160a01b0316145b80612cc557506001600160a01b038082166000908152600f602090815260408083209388168352929052205460ff16612cc5565b826001600160a01b03166138bf82611bdf565b6001600160a01b03161461393b5760405162461bcd60e51b815260206004820152602f60248201527f50726f6a656374546f6b656e3a207472616e73666572206f6620746f6b656e2060448201527f74686174206973206e6f74206f776e000000000000000000000000000000000060648201526084016110db565b6001600160a01b0382166139a45760405162461bcd60e51b815260206004820152602a60248201527f50726f6a656374546f6b656e3a207472616e7366657220746f20746865207a65604482015269726f206164647265737360b01b60648201526084016110db565b600081815260186020908152604091829020825160a0810184528154815260018201549281019290925260028101549282019290925260038201546060820181905260049092015460808201529015613a3f5760405162461bcd60e51b815260206004820152601860248201527f49742069732077697468647261776e20616c72656164792e000000000000000060448201526064016110db565b42816020015111613a8a5760405162461bcd60e51b8152602060048201526015602482015274131bd8dac81d1a5b59481a5cc8199a5b9a5cda1959605a1b60448201526064016110db565b600082815260186020526040812063ffffffff4216600390910155601780548290613ab49061541c565b91829055509050613ac584826143a8565b613ae0848284608001518560400151866020015160006141d9565b608082810151602080850151604080516001600160a01b03808c1682528a16938101939093528201879052606082018590529281019190915260a08101919091527f3735b555e9da79141fb2ad9096fdecd4f67d5c44cea447489f3e239da35026a09060c00160405180910390a1608080830151602080850151604080516001600160a01b038a16815292830186905282019290925260608101919091527f71fc552ee832a9004ea0bdb07cb6dd9d641eb2cb53b3cfe88c8fdcff886734a091016119c4565b6000613bcc60405180606001604052806000815260200160008152602001600081525090565b8354600003613c0057613bf760405180606001604052806034815260200161555f6034913984614190565b60009150613cf8565b83546000905b80613c12836001615409565b1015613c6e5760006002613c268385615409565b613c30919061544c565b905085878281548110613c4557613c456153f3565b90600052602060002090600302016002015411613c6457809250613c68565b8091505b50613c06565b84868381548110613c8157613c816153f3565b90600052602060002090600302016002015411613cf1576001868381548110613cac57613cac6153f3565b90600052602060002090600302018060405180606001604052908160008201548152602001600182015481526020016002820154815250509050935093505050613cf8565b6000935050505b9250929050565b60145460ff161515600103613d3f5760405162461bcd60e51b8152602060048201526006602482015265696e2075736560d01b60448201526064016110db565b6014805460ff191660019081179091556000868152601860209081526040808320815160a0808201845282548252958201548185019081526002830154828501908152600384015460608085019190915260049094015460808085019182528651998a01875284518a529251968901969096525193870193909352908501849052915191939190820190613dd4908990615409565b905290508315613de657602081018490525b8051600003613df3574281525b600087815260186020908152604091829020835181558184015160018201558284015160028201556060840151600382015560808401516004909101558151808301909252601082527f5f616464496e4c6f636b20696e2025730000000000000000000000000000000090820152613e6b9088614190565b6000878152601960209081526040808320548151606081018352848152928301849052908201929092528115613f02576000898152601960205260409020613eb46001846153e0565b81548110613ec457613ec46153f3565b906000526020600020906003020160405180606001604052908160008201548152602001600182015481526020016002820154815250509050613f22565b604051806060016040528060008152602001600081526020014281525090505b60006040518060600160405280601654670de0b6b3a76400008760800151613f4a9190615435565b613f54919061544c565b815260200160008152602001428152509050613fa96040518060400160405280601681526020017f706f696e74427949644f6c642e736c6f706520202573000000000000000000008152508360000151614190565b6000826040015142613fbb91906153e0565b8351613fc7919061546e565b90506140086040518060400160405280600b81526020017f706173734269617320257300000000000000000000000000000000000000000081525082614190565b600081846020015161401a919061549e565b90506140486040518060400160405280600a8152602001696375724269617320257360b01b81525082614190565b42866020015161405891906153e0565b8351614064919061546e565b61406e90826154ed565b8360200181815250506140ba6040518060400160405280601581526020017f706f696e74427949644e65772e626961732020257300000000000000000000008152508460200151614190565b60008c8152601960209081526040808320805460018181018355918552938390208751600390950201938455918601519183019190915584015160029091015587156141775760006040518060600160405280601654670de0b6b3a76400008f6141249190615435565b61412e919061544c565b81526020018487602001518760200151614148919061549e565b61415291906154ed565b815260200142815250905061416681614804565b6141758b8b8660000151614a31565b505b50506014805460ff191690555050505050505050505050565b6141d582826040516024016141a692919061550d565b60408051601f198184030181529190526020810180516001600160e01b0316632d839cb360e21b179052614b5b565b5050565b60008381526022602052604090205460ff166142375760405162461bcd60e51b815260206004820152601860248201527f756e737570706f7274656420756e6c6f636b207765656b73000000000000000060448201526064016110db565b6040805160a08101825263ffffffff42168152602080820185815282840187815260006060808601828152608087018c81528d845260189096528783208751815594516001860155925160028501559151600384015583516004909301929092558451908101909452601654915192939092909182916142c090670de0b6b3a764000090615435565b6142ca919061544c565b8152602001600081526020014281525090504282602001516142ec91906153e0565b81516142f8919061546e565b8160200181815250506143406040518060400160405280601b81526020017f637265617465206c6f636b2074696d657374616d70203a20257320000000000081525042614190565b60008781526019602090815260408083208054600181810183559185529383902085516003909502019384559184015191830191909155820151600290910155821561439e5761438f81614804565b61439e85858360000151614a31565b5050505050505050565b6141d5828260405180602001604052806000815250614b7c565b612ba88484846138ac565b604080518082019091526000808252602082018190529083546000036143f65760009150613cf8565b83546000905b80614408836001615409565b1015614469576000600261441c8385615409565b614426919061544c565b90508587828154811061443b5761443b6153f3565b600091825260209091206002909102015463ffffffff161161445f57809250614463565b8091505b506143fc565b8486838154811061447c5761447c6153f3565b600091825260209091206002909102015463ffffffff1611613cf15760018683815481106144ac576144ac6153f3565b600091825260209182902060408051808201909152600290920201805463ffffffff16825260010154918101919091529094509250613cf8915050565b606060006144f683614c52565b600101905060008167ffffffffffffffff81111561451657614516615068565b6040519080825280601f01601f191660200182016040528015614540576020820181803683370190505b5090508181016020015b600019017f3031323334353637383961626364656600000000000000000000000000000000600a86061a8153600a850494508461454a57509392505050565b612ba8848484846040516024016145a3949392919061552f565b60408051601f198184030181529190526020810180516001600160e01b031663a7a8785360e01b179052614b5b565b8151601554600091829182906145e8818761544c565b6145f29190615435565b90508160000361460a57600080935093505050613cf8565b6000825b8061461a836001615409565b101561466c576000600261462e8385615409565b614638919061544c565b90508389828151811061464d5761464d6153f3565b60200260200101511161466257809250614666565b8091505b5061460e565b8288838151811061467f5761467f6153f3565b6020026020010151116146b55760018883815181106146a0576146a06153f3565b60200260200101519550955050505050613cf8565b5060009788975095505050505050565b60405181151560248201526147069060440160408051601f198184030181529190526020810180516001600160e01b03166332458eed60e01b179052614b5b565b50565b600061472f60405180606001604052806000815260200160008152602001600081525090565b83516000819003614744576000925050613cf8565b6000815b80614754836001615409565b10156147aa57600060026147688385615409565b614772919061544c565b905086888281518110614787576147876153f3565b602002602001015160400151116147a0578092506147a4565b8091505b50614748565b858783815181106147bd576147bd6153f3565b602002602001015160400151116147f65760018783815181106147e2576147e26153f3565b602002602001015194509450505050613cf8565b600094505050509250929050565b600061480f426130b7565b90506148336040518060600160405280603781526020016155ef6037913982614190565b6000818152601a6020908152604080832054815160608101835284815292830184905290820192909252816000036148745761486d613691565b90506148d7565b6000838152601a6020526040902061488d6001846153e0565b8154811061489d5761489d6153f3565b9060005260206000209060030201604051806060016040529081600082015481526020016001820154815260200160028201548152505090505b6148fa6040518060600160405280602d815260200161564c602d91398251614190565b600081604001514261490c91906153e0565b8251614918919061546e565b905061493c6040518060600160405280602681526020016156266026913982614190565b600060405180606001604052808760000151856000015161495d91906154ed565b8152602001838860200151866020015161497791906154ed565b614981919061549e565b8152426020918201526000878152601a825260408082208054600181810183559184528484208651600390920201908155858501519181019190915581850151600290910155888252601d909252205490915060ff16614a29576000858152601d60205260408120805460ff19166001908117909155601c805491820181559091527f0e4562a10381dec21b205ed72637e6b1b523bdd0e4d4d50af5cd23dd4500a211018590555b505050505050565b600083815260266020908152604080832085845290915281205460ff169081614b26576000858152602560205260409020548015614ae4576000868152602560205260408120614a826001846153e0565b81548110614a9257614a926153f3565b9060005260206000200154905085811015614ae257600087815260246020908152604080832084845290915280822054888352908220805491955085929091614adc9084906154ed565b90915550505b505b5060008581526026602090815260408083208784528252808320805460ff19166001908117909155888452602583529083208054918201815583529120018490555b600085815260246020908152604080832087845290915281208054859290614b4f9084906154ed565b90915550505050505050565b80516a636f6e736f6c652e6c6f67602083016000808483855afa5050505050565b81600003614bcc5760405162461bcd60e51b815260206004820152601360248201527f6e6f7420616c6c6f77656420746f6b656e49640000000000000000000000000060448201526064016110db565b614bd68383614d34565b506001600160a01b039190911660009081526010602090815260408083208054858552601184528285208190556001808201835591855283852001859055601280548686526013909452918420839055820181559091527fbb8a6a4669ba250d26cd7a459eca9d215f8307e33aebe50379bc5a3617ec34440155565b6000807a184f03e93ff9f4daa797ed6e38ed64bf6a1f0100000000000000008310614c9b577a184f03e93ff9f4daa797ed6e38ed64bf6a1f010000000000000000830492506040015b6d04ee2d6d415b85acef81000000008310614cc7576d04ee2d6d415b85acef8100000000830492506020015b662386f26fc100008310614ce557662386f26fc10000830492506010015b6305f5e1008310614cfd576305f5e100830492506008015b6127108310614d1157612710830492506004015b60648310614d23576064830492506002015b600a83106114f95760010192915050565b6001600160a01b038216614d965760405162461bcd60e51b815260206004820152602360248201527f4c6f636b49644e46543a206d696e7420746f20746865207a65726f206164647260448201526265737360e81b60648201526084016110db565b6000818152600c60205260409020546001600160a01b031615614dfb5760405162461bcd60e51b815260206004820152601f60248201527f4c6f636b49644e46543a20746f6b656e20616c7265616479206d696e7465640060448201526064016110db565b6000818152600c60209081526040808320805473ffffffffffffffffffffffffffffffffffffffff19166001600160a01b038716908117909155808452600e90925280832080546001019055518392907fddf252ad1be2c89b69c2b068fc378daa952ba7f163c4a11628f55a4df523b3ef908290a45050565b600060208284031215614e8657600080fd5b81356001600160e01b031981168114611bb957600080fd5b60005b83811015614eb9578181015183820152602001614ea1565b50506000910152565b60008151808452614eda816020860160208601614e9e565b601f01601f19169290920160200192915050565b602081526000611bb96020830184614ec2565b600060208284031215614f1357600080fd5b5035919050565b80356001600160a01b038116811461140857600080fd5b60008060408385031215614f4457600080fd5b614f4d83614f1a565b946020939093013593505050565b815163ffffffff16815260208083015190820152604081016114f9565b600080600060608486031215614f8d57600080fd5b614f9684614f1a565b9250614fa460208501614f1a565b9150604084013590509250925092565b60008060408385031215614fc757600080fd5b50508035926020909101359150565b6020808252825182820181905260009190848201906040850190845b8181101561500e57835183529284019291840191600101614ff2565b50909695505050505050565b60006020828403121561502c57600080fd5b611bb982614f1a565b60008060006060848603121561504a57600080fd5b61505384614f1a565b95602085013595506040909401359392505050565b634e487b7160e01b600052604160045260246000fd5b604051601f8201601f1916810167ffffffffffffffff811182821017156150a7576150a7615068565b604052919050565b60008082840360608112156150c357600080fd5b60408112156150d157600080fd5b506040516040810181811067ffffffffffffffff821117156150f5576150f5615068565b604052833563ffffffff8116811461510c57600080fd5b8152602084810135908201529460409093013593505050565b6000806040838503121561513857600080fd5b61514183614f1a565b91506020830135801515811461515657600080fd5b809150509250929050565b815181526020808301519082015260408083015190820152606081016114f9565b600080828403608081121561519657600080fd5b60608112156151a457600080fd5b506040516060810181811067ffffffffffffffff821117156151c8576151c8615068565b6040908152843582526020808601359083015284810135908201529460609093013593505050565b6000806000806080858703121561520657600080fd5b61520f85614f1a565b9350602061521e818701614f1a565b935060408601359250606086013567ffffffffffffffff8082111561524257600080fd5b818801915088601f83011261525657600080fd5b81358181111561526857615268615068565b61527a601f8201601f1916850161507e565b9150808252898482850101111561529057600080fd5b808484018584013760008482840101525080935050505092959194509250565b6020808252825182820181905260009190848201906040850190845b8181101561500e576152f38385518051825260208082015190830152604090810151910152565b92840192606092909201916001016152cc565b6000806040838503121561531957600080fd5b61532283614f1a565b915061533060208401614f1a565b90509250929050565b602080825282518282018190526000919060409081850190868401855b8281101561538957615379848351805163ffffffff168252602090810151910152565b9284019290850190600101615356565b5091979650505050505050565b600181811c908216806153aa57607f821691505b60208210810361169e57634e487b7160e01b600052602260045260246000fd5b634e487b7160e01b600052601160045260246000fd5b818103818111156114f9576114f96153ca565b634e487b7160e01b600052603260045260246000fd5b808201808211156114f9576114f96153ca565b60006001820161542e5761542e6153ca565b5060010190565b80820281158282048414176114f9576114f96153ca565b60008261546957634e487b7160e01b600052601260045260246000fd5b500490565b80820260008212600160ff1b8414161561548a5761548a6153ca565b81810583148215176114f9576114f96153ca565b8181036000831280158383131683831282161715611708576117086153ca565b600083516154d0818460208801614e9e565b8351908301906154e4818360208801614e9e565b01949350505050565b8082018281126000831280158216821582161715611706576117066153ca565b6040815260006155206040830185614ec2565b90508260208301529392505050565b6080815260006155426080830187614ec2565b602083019590955250604081019290925260609091015291905056fe5f66696e64436c6f73657374506f696e74205f686973746f72792e6c656e677468203d3d2030205f74696d657374616d702025732a2a62616c616e63654f66506f696e7420706f696e7420736c6f70653a2025732c20626961733a2025732c2074696d657374616d702025732c62616c616e63654f66506f696e74496420706f696e742e74696d657374616d702025735f696e736573727443756d756c6174697665416464506f696e74206e65787454696d65496e6465784f66546f74616c506f696e742025735f696e736573727443756d756c6174697665416464506f696e742070617373426961732025735f696e736573727443756d756c6174697665416464506f696e7420706f696e744c61737420736c6f7065202573a164736f6c6343000812000a",
  "linkReferences": {},
  "deployedLinkReferences": {}
}