{
  "_format": "hh-sol-artifact-1",
  "contractName": "L2CustomVaultBaseProxy",
  "sourceName": "contracts/L2/vaults/L2CustomVaultBaseProxy.sol",
  "abi": [
    {
      "anonymous": false,
      "inputs": [
        {
          "indexed": true,
          "internalType": "bytes32",
          "name": "role",
          "type": "bytes32"
        },
        {
          "indexed": true,
          "internalType": "bytes32",
          "name": "previousAdminRole",
          "type": "bytes32"
        },
        {
          "indexed": true,
          "internalType": "bytes32",
          "name": "newAdminRole",
          "type": "bytes32"
        }
      ],
      "name": "RoleAdminChanged",
      "type": "event"
    },
    {
      "anonymous": false,
      "inputs": [
        {
          "indexed": true,
          "internalType": "bytes32",
          "name": "role",
          "type": "bytes32"
        },
        {
          "indexed": true,
          "internalType": "address",
          "name": "account",
          "type": "address"
        },
        {
          "indexed": true,
          "internalType": "address",
          "name": "sender",
          "type": "address"
        }
      ],
      "name": "RoleGranted",
      "type": "event"
    },
    {
      "anonymous": false,
      "inputs": [
        {
          "indexed": true,
          "internalType": "bytes32",
          "name": "role",
          "type": "bytes32"
        },
        {
          "indexed": true,
          "internalType": "address",
          "name": "account",
          "type": "address"
        },
        {
          "indexed": true,
          "internalType": "address",
          "name": "sender",
          "type": "address"
        }
      ],
      "name": "RoleRevoked",
      "type": "event"
    },
    {
      "anonymous": false,
      "inputs": [
        {
          "indexed": true,
          "internalType": "address",
          "name": "impl",
          "type": "address"
        },
        {
          "indexed": false,
          "internalType": "bool",
          "name": "alive",
          "type": "bool"
        }
      ],
      "name": "SetAliveImplementation",
      "type": "event"
    },
    {
      "anonymous": false,
      "inputs": [
        {
          "indexed": true,
          "internalType": "bytes4",
          "name": "selector",
          "type": "bytes4"
        },
        {
          "indexed": true,
          "internalType": "address",
          "name": "impl",
          "type": "address"
        }
      ],
      "name": "SetSelectorImplementation",
      "type": "event"
    },
    {
      "anonymous": false,
      "inputs": [
        {
          "indexed": false,
          "internalType": "address",
          "name": "l2Token",
          "type": "address"
        },
        {
          "indexed": false,
          "internalType": "address",
          "name": "newAdmin",
          "type": "address"
        }
      ],
      "name": "SetVaultAdmin",
      "type": "event"
    },
    {
      "anonymous": false,
      "inputs": [
        {
          "indexed": true,
          "internalType": "address",
          "name": "implementation",
          "type": "address"
        }
      ],
      "name": "Upgraded",
      "type": "event"
    },
    {
      "stateMutability": "payable",
      "type": "fallback"
    },
    {
      "inputs": [],
      "name": "ADMIN_ROLE",
      "outputs": [
        {
          "internalType": "bytes32",
          "name": "",
          "type": "bytes32"
        }
      ],
      "stateMutability": "view",
      "type": "function"
    },
    {
      "inputs": [],
      "name": "DEFAULT_ADMIN_ROLE",
      "outputs": [
        {
          "internalType": "bytes32",
          "name": "",
          "type": "bytes32"
        }
      ],
      "stateMutability": "view",
      "type": "function"
    },
    {
      "inputs": [],
      "name": "POLICY_ROLE",
      "outputs": [
        {
          "internalType": "bytes32",
          "name": "",
          "type": "bytes32"
        }
      ],
      "stateMutability": "view",
      "type": "function"
    },
    {
      "inputs": [
        {
          "internalType": "address",
          "name": "account",
          "type": "address"
        }
      ],
      "name": "addAdmin",
      "outputs": [],
      "stateMutability": "nonpayable",
      "type": "function"
    },
    {
      "inputs": [
        {
          "internalType": "address",
          "name": "",
          "type": "address"
        }
      ],
      "name": "aliveImplementation",
      "outputs": [
        {
          "internalType": "bool",
          "name": "",
          "type": "bool"
        }
      ],
      "stateMutability": "view",
      "type": "function"
    },
    {
      "inputs": [
        {
          "internalType": "bytes32",
          "name": "role",
          "type": "bytes32"
        }
      ],
      "name": "getRoleAdmin",
      "outputs": [
        {
          "internalType": "bytes32",
          "name": "",
          "type": "bytes32"
        }
      ],
      "stateMutability": "view",
      "type": "function"
    },
    {
      "inputs": [
        {
          "internalType": "bytes4",
          "name": "_selector",
          "type": "bytes4"
        }
      ],
      "name": "getSelectorImplementation2",
      "outputs": [
        {
          "internalType": "address",
          "name": "impl",
          "type": "address"
        }
      ],
      "stateMutability": "view",
      "type": "function"
    },
    {
      "inputs": [
        {
          "internalType": "bytes32",
          "name": "role",
          "type": "bytes32"
        },
        {
          "internalType": "address",
          "name": "account",
          "type": "address"
        }
      ],
      "name": "grantRole",
      "outputs": [],
      "stateMutability": "nonpayable",
      "type": "function"
    },
    {
      "inputs": [
        {
          "internalType": "bytes32",
          "name": "role",
          "type": "bytes32"
        },
        {
          "internalType": "address",
          "name": "account",
          "type": "address"
        }
      ],
      "name": "hasRole",
      "outputs": [
        {
          "internalType": "bool",
          "name": "",
          "type": "bool"
        }
      ],
      "stateMutability": "view",
      "type": "function"
    },
    {
      "inputs": [],
      "name": "implementation",
      "outputs": [
        {
          "internalType": "address",
          "name": "",
          "type": "address"
        }
      ],
      "stateMutability": "view",
      "type": "function"
    },
    {
      "inputs": [
        {
          "internalType": "uint256",
          "name": "_index",
          "type": "uint256"
        }
      ],
      "name": "implementation2",
      "outputs": [
        {
          "internalType": "address",
          "name": "",
          "type": "address"
        }
      ],
      "stateMutability": "view",
      "type": "function"
    },
    {
      "inputs": [
        {
          "internalType": "address",
          "name": "account",
          "type": "address"
        }
      ],
      "name": "isAdmin",
      "outputs": [
        {
          "internalType": "bool",
          "name": "",
          "type": "bool"
        }
      ],
      "stateMutability": "view",
      "type": "function"
    },
    {
      "inputs": [],
      "name": "l2ProjectManager",
      "outputs": [
        {
          "internalType": "address",
          "name": "",
          "type": "address"
        }
      ],
      "stateMutability": "view",
      "type": "function"
    },
    {
      "inputs": [],
      "name": "pauseProxy",
      "outputs": [
        {
          "internalType": "bool",
          "name": "",
          "type": "bool"
        }
      ],
      "stateMutability": "view",
      "type": "function"
    },
    {
      "inputs": [
        {
          "internalType": "uint256",
          "name": "",
          "type": "uint256"
        }
      ],
      "name": "proxyImplementation",
      "outputs": [
        {
          "internalType": "address",
          "name": "",
          "type": "address"
        }
      ],
      "stateMutability": "view",
      "type": "function"
    },
    {
      "inputs": [
        {
          "internalType": "address",
          "name": "account",
          "type": "address"
        }
      ],
      "name": "removeAdmin",
      "outputs": [],
      "stateMutability": "nonpayable",
      "type": "function"
    },
    {
      "inputs": [
        {
          "internalType": "bytes32",
          "name": "role",
          "type": "bytes32"
        },
        {
          "internalType": "address",
          "name": "account",
          "type": "address"
        }
      ],
      "name": "renounceRole",
      "outputs": [],
      "stateMutability": "nonpayable",
      "type": "function"
    },
    {
      "inputs": [
        {
          "internalType": "bytes32",
          "name": "role",
          "type": "bytes32"
        },
        {
          "internalType": "address",
          "name": "account",
          "type": "address"
        }
      ],
      "name": "revokeRole",
      "outputs": [],
      "stateMutability": "nonpayable",
      "type": "function"
    },
    {
      "inputs": [
        {
          "internalType": "bytes4",
          "name": "",
          "type": "bytes4"
        }
      ],
      "name": "selectorImplementation",
      "outputs": [
        {
          "internalType": "address",
          "name": "",
          "type": "address"
        }
      ],
      "stateMutability": "view",
      "type": "function"
    },
    {
      "inputs": [
        {
          "internalType": "address",
          "name": "newImplementation",
          "type": "address"
        },
        {
          "internalType": "bool",
          "name": "_alive",
          "type": "bool"
        }
      ],
      "name": "setAliveImplementation2",
      "outputs": [],
      "stateMutability": "nonpayable",
      "type": "function"
    },
    {
      "inputs": [
        {
          "internalType": "address",
          "name": "newImplementation",
          "type": "address"
        },
        {
          "internalType": "uint256",
          "name": "_index",
          "type": "uint256"
        },
        {
          "internalType": "bool",
          "name": "_alive",
          "type": "bool"
        }
      ],
      "name": "setImplementation2",
      "outputs": [],
      "stateMutability": "nonpayable",
      "type": "function"
    },
    {
      "inputs": [
        {
          "internalType": "bool",
          "name": "_pause",
          "type": "bool"
        }
      ],
      "name": "setProxyPause",
      "outputs": [],
      "stateMutability": "nonpayable",
      "type": "function"
    },
    {
      "inputs": [
        {
          "internalType": "bytes4[]",
          "name": "_selectors",
          "type": "bytes4[]"
        },
        {
          "internalType": "address",
          "name": "_imp",
          "type": "address"
        }
      ],
      "name": "setSelectorImplementations2",
      "outputs": [],
      "stateMutability": "nonpayable",
      "type": "function"
    },
    {
      "inputs": [
        {
          "internalType": "bytes4",
          "name": "interfaceId",
          "type": "bytes4"
        }
      ],
      "name": "supportsInterface",
      "outputs": [
        {
          "internalType": "bool",
          "name": "",
          "type": "bool"
        }
      ],
      "stateMutability": "view",
      "type": "function"
    },
    {
      "inputs": [
        {
          "internalType": "address",
          "name": "newAdmin",
          "type": "address"
        }
      ],
      "name": "transferAdmin",
      "outputs": [],
      "stateMutability": "nonpayable",
      "type": "function"
    },
    {
      "inputs": [
        {
          "internalType": "address",
          "name": "impl",
          "type": "address"
        }
      ],
      "name": "upgradeTo",
      "outputs": [],
      "stateMutability": "nonpayable",
      "type": "function"
    },
    {
      "inputs": [
        {
          "internalType": "address",
          "name": "",
          "type": "address"
        }
      ],
      "name": "vaultAdminOfToken",
      "outputs": [
        {
          "internalType": "address",
          "name": "",
          "type": "address"
        }
      ],
      "stateMutability": "view",
      "type": "function"
    },
    {
      "stateMutability": "payable",
      "type": "receive"
    }
  ],
  "bytecode": "0x60806040526005805460ff191660011790553480156200001e57600080fd5b506200003a600080516020620019f0833981519152806200005b565b62000055600080516020620019f083398151915233620000a6565b6200015a565b600082815260046020526040808220600101805490849055905190918391839186917fbd79b86ffe0ab8e8776151514217cd7cacd52c909f66475c3af44e129f0b00ff9190a4505050565b620000b28282620000b6565b5050565b60008281526004602090815260408083206001600160a01b038516845290915290205460ff16620000b25760008281526004602090815260408083206001600160a01b03851684529091529020805460ff19166001179055620001163390565b6001600160a01b0316816001600160a01b0316837f2f8788117e7eff1d82e926ec794901d17c78024a50270940304540a733656f0d60405160405180910390a45050565b611886806200016a6000396000f3fe6080604052600436106101b05760003560e01c80635cc797d8116100ec5780637fc46ba81161008a57806391d148541161006457806391d14854146105c0578063a217fddf14610606578063b911135f1461061b578063d547741f1461065157610202565b80637fc46ba81461054a5780638b8f4a65146105805780638d4fdb40146105a057610202565b806375829def116100c657806375829def146104b657806375b238fc146104d65780637cb00d251461050a5780637cd5f6631461052a57610202565b80635cc797d81461045c57806363a8fd891461047c578063704802751461049657610202565b806336568abe1161015957806350d2a2761161013357806350d2a2761461037357806352351e85146103c1578063550d01a3146103e65780635c60da1b1461041657610202565b806336568abe146103135780633659cfe6146103335780634a5df50f1461035357610202565b8063248a9ca31161018a578063248a9ca3146102a357806324d7806c146102d35780632f2ff15d146102f357610202565b806301ffc9a71461020c5780631785f53c14610241578063229852461461026157610202565b366102025760405162461bcd60e51b815260206004820152601460248201527f63616e6e6f74207265636569766520457468657200000000000000000000000060448201526064015b60405180910390fd5b61020a610671565b005b34801561021857600080fd5b5061022c610227366004611538565b61071a565b60405190151581526020015b60405180910390f35b34801561024d57600080fd5b5061020a61025c366004611579565b610751565b34801561026d57600080fd5b506102957ffb5864e8ff833c3cb2d2d08505e82ff02a43554c74a35d4f5a64e8526127831181565b604051908152602001610238565b3480156102af57600080fd5b506102956102be366004611594565b60009081526004602052604090206001015490565b3480156102df57600080fd5b5061022c6102ee366004611579565b6107cc565b3480156102ff57600080fd5b5061020a61030e3660046115ad565b61080c565b34801561031f57600080fd5b5061020a61032e3660046115ad565b610831565b34801561033f57600080fd5b5061020a61034e366004611579565b6108bd565b34801561035f57600080fd5b5061020a61036e3660046115d9565b610a16565b34801561037f57600080fd5b506103a961038e366004611538565b6003602052600090815260409020546001600160a01b031681565b6040516001600160a01b039091168152602001610238565b3480156103cd57600080fd5b506005546103a99061010090046001600160a01b031681565b3480156103f257600080fd5b5061022c610401366004611579565b60026020526000908152604090205460ff1681565b34801561042257600080fd5b506000805260016020527fa6eef7e35abe7026729641147f7915573c7e97b47efa546f5f6e3230263bcb49546001600160a01b03166103a9565b34801561046857600080fd5b5061020a61047736600461166d565b610cc3565b34801561048857600080fd5b5060005461022c9060ff1681565b3480156104a257600080fd5b5061020a6104b1366004611579565b610d1b565b3480156104c257600080fd5b5061020a6104d1366004611579565b610d93565b3480156104e257600080fd5b506102957fdf8b4c520ffe197c5343c6f5aec59570151ef9a492f2c624fd45ddde6135ec4281565b34801561051657600080fd5b5061020a610525366004611697565b610ee3565b34801561053657600080fd5b5061020a6105453660046116b2565b610f44565b34801561055657600080fd5b506103a9610565366004611579565b6006602052600090815260409020546001600160a01b031681565b34801561058c57600080fd5b506103a961059b366004611594565b610f9d565b3480156105ac57600080fd5b506103a96105bb366004611538565b610fba565b3480156105cc57600080fd5b5061022c6105db3660046115ad565b60009182526004602090815260408084206001600160a01b0393909316845291905290205460ff1690565b34801561061257600080fd5b50610295600081565b34801561062757600080fd5b506103a9610636366004611594565b6001602052600090815260409020546001600160a01b031681565b34801561065d57600080fd5b5061020a61066c3660046115ad565b6110b6565b60006106886000356001600160e01b031916610fba565b90506001600160a01b038116158015906106a5575060005460ff16155b6106f15760405162461bcd60e51b815260206004820152601d60248201527f50726f78793a20696d706c204f522070726f78792069732066616c736500000060448201526064016101f9565b3660008037600080366000845af43d6000803e808015610710573d6000f35b3d6000fd5b505050565b60006001600160e01b03198216637965db0b60e01b148061074b57506301ffc9a760e01b6001600160e01b03198316145b92915050565b61075a336107cc565b61079f5760405162461bcd60e51b8152602060048201526022602482015260008051602061185a83398151915260448201526134b760f11b60648201526084016101f9565b6107c97fdf8b4c520ffe197c5343c6f5aec59570151ef9a492f2c624fd45ddde6135ec4282610831565b50565b6001600160a01b03811660009081527f2fb794d17134dfdec181ddbac1babb5ab1eb140204ef4d982f294e7fc8b69022602052604081205460ff1661074b565b600082815260046020526040902060010154610827816110db565b61071583836110e5565b6001600160a01b03811633146108af5760405162461bcd60e51b815260206004820152602f60248201527f416363657373436f6e74726f6c3a2063616e206f6e6c792072656e6f756e636560448201527f20726f6c657320666f722073656c66000000000000000000000000000000000060648201526084016101f9565b6108b98282611187565b5050565b6108c6336107cc565b61090b5760405162461bcd60e51b8152602060048201526022602482015260008051602061185a83398151915260448201526134b760f11b60648201526084016101f9565b6001600160a01b0381166109615760405162461bcd60e51b815260206004820152600d60248201527f696e707574206973207a65726f0000000000000000000000000000000000000060448201526064016101f9565b6000805260016020527fa6eef7e35abe7026729641147f7915573c7e97b47efa546f5f6e3230263bcb49546001600160a01b038281169116036109d25760405162461bcd60e51b815260206004820152600960248201526839b0b6b29030b2323960b91b60448201526064016101f9565b6109df816000600161120a565b6040516001600160a01b038216907fbc7cd75a20ee27fd9adebab32041f755214dbc6bffa90cc0225b39da2e5c2d3b90600090a250565b610a1f336107cc565b610a645760405162461bcd60e51b8152602060048201526022602482015260008051602061185a83398151915260448201526134b760f11b60648201526084016101f9565b81610ab15760405162461bcd60e51b815260206004820181905260248201527f50726f78793a205f73656c6563746f727327732073697a65206973207a65726f60448201526064016101f9565b6001600160a01b03811660009081526002602052604090205460ff16610b195760405162461bcd60e51b815260206004820152601860248201527f50726f78793a205f696d70206973206e6f7420616c697665000000000000000060448201526064016101f9565b60005b82811015610cbd57816001600160a01b031660036000868685818110610b4457610b446116e5565b9050602002016020810190610b599190611538565b6001600160e01b03191681526020810191909152604001600020546001600160a01b031603610bca5760405162461bcd60e51b815260206004820152601d60248201527f4c69717569646974795661756c7450726f78793a2073616d6520696d7000000060448201526064016101f9565b8160036000868685818110610be157610be16116e5565b9050602002016020810190610bf69190611538565b6001600160e01b03191681526020810191909152604001600020805473ffffffffffffffffffffffffffffffffffffffff19166001600160a01b039283161790558216848483818110610c4b57610c4b6116e5565b9050602002016020810190610c609190611538565b7bffffffffffffffffffffffffffffffffffffffffffffffffffffffff19167f14ebc1c32aa68f4d766e89f3e546cee249f7df25183fc10ab1568d91c2ce9b7b60405160405180910390a380610cb581611711565b915050610b1c565b50505050565b610ccc336107cc565b610d115760405162461bcd60e51b8152602060048201526022602482015260008051602061185a83398151915260448201526134b760f11b60648201526084016101f9565b6108b982826112a2565b610d24336107cc565b610d695760405162461bcd60e51b8152602060048201526022602482015260008051602061185a83398151915260448201526134b760f11b60648201526084016101f9565b6107c97fdf8b4c520ffe197c5343c6f5aec59570151ef9a492f2c624fd45ddde6135ec428261080c565b610d9c336107cc565b610de15760405162461bcd60e51b8152602060048201526022602482015260008051602061185a83398151915260448201526134b760f11b60648201526084016101f9565b6001600160a01b038116610e375760405162461bcd60e51b815260206004820152601860248201527f41636365737369626c653a207a65726f2061646472657373000000000000000060448201526064016101f9565b6001600160a01b0381163303610e8f5760405162461bcd60e51b815260206004820152601660248201527f41636365737369626c653a2073616d652061646d696e0000000000000000000060448201526064016101f9565b610eb97fdf8b4c520ffe197c5343c6f5aec59570151ef9a492f2c624fd45ddde6135ec428261080c565b6107c97fdf8b4c520ffe197c5343c6f5aec59570151ef9a492f2c624fd45ddde6135ec4233610831565b610eec336107cc565b610f315760405162461bcd60e51b8152602060048201526022602482015260008051602061185a83398151915260448201526134b760f11b60648201526084016101f9565b6000805460ff1916911515919091179055565b610f4d336107cc565b610f925760405162461bcd60e51b8152602060048201526022602482015260008051602061185a83398151915260448201526134b760f11b60648201526084016101f9565b61071583838361120a565b6000818152600160205260408120546001600160a01b031661074b565b6001600160e01b031981166000908152600360205260408120546001600160a01b031661101a5750506000805260016020527fa6eef7e35abe7026729641147f7915573c7e97b47efa546f5f6e3230263bcb49546001600160a01b031690565b6001600160e01b031982166000908152600360209081526040808320546001600160a01b03168352600290915290205460ff161561107857506001600160e01b0319166000908152600360205260409020546001600160a01b031690565b50506000805260016020527fa6eef7e35abe7026729641147f7915573c7e97b47efa546f5f6e3230263bcb49546001600160a01b031690565b919050565b6000828152600460205260409020600101546110d1816110db565b6107158383611187565b6107c98133611301565b60008281526004602090815260408083206001600160a01b038516845290915290205460ff166108b95760008281526004602090815260408083206001600160a01b03851684529091529020805460ff191660011790556111433390565b6001600160a01b0316816001600160a01b0316837f2f8788117e7eff1d82e926ec794901d17c78024a50270940304540a733656f0d60405160405180910390a45050565b60008281526004602090815260408083206001600160a01b038516845290915290205460ff16156108b95760008281526004602090815260408083206001600160a01b0385168085529252808320805460ff1916905551339285917ff6391f5c32d9c69d2a47ea670b442974b53935d1edc7fd64eb21e047a839171b9190a45050565b6001600160a01b0383163b6112615760405162461bcd60e51b815260206004820152601b60248201527f50726f78793a206e6f7420636f6e74726163742061646472657373000000000060448201526064016101f9565b801561129c576000828152600160205260409020805473ffffffffffffffffffffffffffffffffffffffff19166001600160a01b0385161790555b61071583825b6001600160a01b038216600081815260026020908152604091829020805460ff191685151590811790915591519182527f72558d9bfba4210f9ef095c782589484151f6d90f7a81bb3cb9b33efc695d324910160405180910390a25050565b60008281526004602090815260408083206001600160a01b038516845290915290205460ff166108b95761133481611376565b61133f836020611388565b60405160200161135092919061174e565b60408051601f198184030181529082905262461bcd60e51b82526101f9916004016117cf565b606061074b6001600160a01b03831660145b60606000611397836002611802565b6113a2906002611819565b67ffffffffffffffff8111156113ba576113ba61182c565b6040519080825280601f01601f1916602001820160405280156113e4576020820181803683370190505b509050600360fc1b816000815181106113ff576113ff6116e5565b60200101906001600160f81b031916908160001a905350600f60fb1b8160018151811061142e5761142e6116e5565b60200101906001600160f81b031916908160001a9053506000611452846002611802565b61145d906001611819565b90505b60018111156114e2577f303132333435363738396162636465660000000000000000000000000000000085600f166010811061149e5761149e6116e5565b1a60f81b8282815181106114b4576114b46116e5565b60200101906001600160f81b031916908160001a90535060049490941c936114db81611842565b9050611460565b5083156115315760405162461bcd60e51b815260206004820181905260248201527f537472696e67733a20686578206c656e67746820696e73756666696369656e7460448201526064016101f9565b9392505050565b60006020828403121561154a57600080fd5b81356001600160e01b03198116811461153157600080fd5b80356001600160a01b03811681146110b157600080fd5b60006020828403121561158b57600080fd5b61153182611562565b6000602082840312156115a657600080fd5b5035919050565b600080604083850312156115c057600080fd5b823591506115d060208401611562565b90509250929050565b6000806000604084860312156115ee57600080fd5b833567ffffffffffffffff8082111561160657600080fd5b818601915086601f83011261161a57600080fd5b81358181111561162957600080fd5b8760208260051b850101111561163e57600080fd5b6020928301955093506116549186019050611562565b90509250925092565b803580151581146110b157600080fd5b6000806040838503121561168057600080fd5b61168983611562565b91506115d06020840161165d565b6000602082840312156116a957600080fd5b6115318261165d565b6000806000606084860312156116c757600080fd5b6116d084611562565b9250602084013591506116546040850161165d565b634e487b7160e01b600052603260045260246000fd5b634e487b7160e01b600052601160045260246000fd5b600060018201611723576117236116fb565b5060010190565b60005b8381101561174557818101518382015260200161172d565b50506000910152565b7f416363657373436f6e74726f6c3a206163636f756e742000000000000000000081526000835161178681601785016020880161172a565b7f206973206d697373696e6720726f6c652000000000000000000000000000000060179184019182015283516117c381602884016020880161172a565b01602801949350505050565b60208152600082518060208401526117ee81604085016020870161172a565b601f01601f19169190910160400192915050565b808202811582820484141761074b5761074b6116fb565b8082018082111561074b5761074b6116fb565b634e487b7160e01b600052604160045260246000fd5b600081611851576118516116fb565b50600019019056fe41636365737369626c653a2043616c6c6572206973206e6f7420616e2061646da164736f6c6343000812000adf8b4c520ffe197c5343c6f5aec59570151ef9a492f2c624fd45ddde6135ec42",
  "linkReferences": {},
  "deployedLinkReferences": {}
}