{
  "_format": "hh-sol-artifact-1",
  "contractName": "L2CustomVaultBaseProxy",
  "sourceName": "contracts/L2/vaults/L2CustomVaultBaseProxy.sol",
  "abi": [
    {
      "anonymous": false,
      "inputs": [
        {
          "indexed": false,
          "internalType": "address",
          "name": "l2Token",
          "type": "address"
        },
        {
          "indexed": false,
          "internalType": "address",
          "name": "to",
          "type": "address"
        },
        {
          "indexed": false,
          "internalType": "uint256",
          "name": "amount",
          "type": "uint256"
        }
      ],
      "name": "Claimed",
      "type": "event"
    },
    {
      "anonymous": false,
      "inputs": [
        {
          "indexed": true,
          "internalType": "bytes32",
          "name": "role",
          "type": "bytes32"
        },
        {
          "indexed": true,
          "internalType": "bytes32",
          "name": "previousAdminRole",
          "type": "bytes32"
        },
        {
          "indexed": true,
          "internalType": "bytes32",
          "name": "newAdminRole",
          "type": "bytes32"
        }
      ],
      "name": "RoleAdminChanged",
      "type": "event"
    },
    {
      "anonymous": false,
      "inputs": [
        {
          "indexed": true,
          "internalType": "bytes32",
          "name": "role",
          "type": "bytes32"
        },
        {
          "indexed": true,
          "internalType": "address",
          "name": "account",
          "type": "address"
        },
        {
          "indexed": true,
          "internalType": "address",
          "name": "sender",
          "type": "address"
        }
      ],
      "name": "RoleGranted",
      "type": "event"
    },
    {
      "anonymous": false,
      "inputs": [
        {
          "indexed": true,
          "internalType": "bytes32",
          "name": "role",
          "type": "bytes32"
        },
        {
          "indexed": true,
          "internalType": "address",
          "name": "account",
          "type": "address"
        },
        {
          "indexed": true,
          "internalType": "address",
          "name": "sender",
          "type": "address"
        }
      ],
      "name": "RoleRevoked",
      "type": "event"
    },
    {
      "anonymous": false,
      "inputs": [
        {
          "indexed": true,
          "internalType": "address",
          "name": "impl",
          "type": "address"
        },
        {
          "indexed": false,
          "internalType": "bool",
          "name": "alive",
          "type": "bool"
        }
      ],
      "name": "SetAliveImplementation",
      "type": "event"
    },
    {
      "anonymous": false,
      "inputs": [
        {
          "indexed": false,
          "internalType": "address",
          "name": "newInitializer",
          "type": "address"
        }
      ],
      "name": "SetInitializer",
      "type": "event"
    },
    {
      "anonymous": false,
      "inputs": [
        {
          "indexed": true,
          "internalType": "bytes4",
          "name": "selector",
          "type": "bytes4"
        },
        {
          "indexed": true,
          "internalType": "address",
          "name": "impl",
          "type": "address"
        }
      ],
      "name": "SetSelectorImplementation",
      "type": "event"
    },
    {
      "anonymous": false,
      "inputs": [
        {
          "indexed": false,
          "internalType": "address",
          "name": "l2Token",
          "type": "address"
        },
        {
          "indexed": false,
          "internalType": "address",
          "name": "newAdmin",
          "type": "address"
        }
      ],
      "name": "SetVaultAdmin",
      "type": "event"
    },
    {
      "anonymous": false,
      "inputs": [
        {
          "indexed": true,
          "internalType": "address",
          "name": "implementation",
          "type": "address"
        }
      ],
      "name": "Upgraded",
      "type": "event"
    },
    {
      "stateMutability": "payable",
      "type": "fallback"
    },
    {
      "inputs": [],
      "name": "ADMIN_ROLE",
      "outputs": [
        {
          "internalType": "bytes32",
          "name": "",
          "type": "bytes32"
        }
      ],
      "stateMutability": "view",
      "type": "function"
    },
    {
      "inputs": [],
      "name": "DEFAULT_ADMIN_ROLE",
      "outputs": [
        {
          "internalType": "bytes32",
          "name": "",
          "type": "bytes32"
        }
      ],
      "stateMutability": "view",
      "type": "function"
    },
    {
      "inputs": [],
      "name": "POLICY_ROLE",
      "outputs": [
        {
          "internalType": "bytes32",
          "name": "",
          "type": "bytes32"
        }
      ],
      "stateMutability": "view",
      "type": "function"
    },
    {
      "inputs": [
        {
          "internalType": "address",
          "name": "account",
          "type": "address"
        }
      ],
      "name": "addAdmin",
      "outputs": [],
      "stateMutability": "nonpayable",
      "type": "function"
    },
    {
      "inputs": [
        {
          "internalType": "address",
          "name": "",
          "type": "address"
        }
      ],
      "name": "aliveImplementation",
      "outputs": [
        {
          "internalType": "bool",
          "name": "",
          "type": "bool"
        }
      ],
      "stateMutability": "view",
      "type": "function"
    },
    {
      "inputs": [
        {
          "internalType": "bytes32",
          "name": "role",
          "type": "bytes32"
        }
      ],
      "name": "getRoleAdmin",
      "outputs": [
        {
          "internalType": "bytes32",
          "name": "",
          "type": "bytes32"
        }
      ],
      "stateMutability": "view",
      "type": "function"
    },
    {
      "inputs": [
        {
          "internalType": "bytes4",
          "name": "_selector",
          "type": "bytes4"
        }
      ],
      "name": "getSelectorImplementation2",
      "outputs": [
        {
          "internalType": "address",
          "name": "impl",
          "type": "address"
        }
      ],
      "stateMutability": "view",
      "type": "function"
    },
    {
      "inputs": [
        {
          "internalType": "bytes32",
          "name": "role",
          "type": "bytes32"
        },
        {
          "internalType": "address",
          "name": "account",
          "type": "address"
        }
      ],
      "name": "grantRole",
      "outputs": [],
      "stateMutability": "nonpayable",
      "type": "function"
    },
    {
      "inputs": [
        {
          "internalType": "bytes32",
          "name": "role",
          "type": "bytes32"
        },
        {
          "internalType": "address",
          "name": "account",
          "type": "address"
        }
      ],
      "name": "hasRole",
      "outputs": [
        {
          "internalType": "bool",
          "name": "",
          "type": "bool"
        }
      ],
      "stateMutability": "view",
      "type": "function"
    },
    {
      "inputs": [],
      "name": "implementation",
      "outputs": [
        {
          "internalType": "address",
          "name": "",
          "type": "address"
        }
      ],
      "stateMutability": "view",
      "type": "function"
    },
    {
      "inputs": [
        {
          "internalType": "uint256",
          "name": "_index",
          "type": "uint256"
        }
      ],
      "name": "implementation2",
      "outputs": [
        {
          "internalType": "address",
          "name": "",
          "type": "address"
        }
      ],
      "stateMutability": "view",
      "type": "function"
    },
    {
      "inputs": [],
      "name": "initializer",
      "outputs": [
        {
          "internalType": "address",
          "name": "",
          "type": "address"
        }
      ],
      "stateMutability": "view",
      "type": "function"
    },
    {
      "inputs": [
        {
          "internalType": "address",
          "name": "account",
          "type": "address"
        }
      ],
      "name": "isAdmin",
      "outputs": [
        {
          "internalType": "bool",
          "name": "",
          "type": "bool"
        }
      ],
      "stateMutability": "view",
      "type": "function"
    },
    {
      "inputs": [],
      "name": "l2ProjectManager",
      "outputs": [
        {
          "internalType": "address",
          "name": "",
          "type": "address"
        }
      ],
      "stateMutability": "view",
      "type": "function"
    },
    {
      "inputs": [],
      "name": "pauseProxy",
      "outputs": [
        {
          "internalType": "bool",
          "name": "",
          "type": "bool"
        }
      ],
      "stateMutability": "view",
      "type": "function"
    },
    {
      "inputs": [
        {
          "internalType": "uint256",
          "name": "",
          "type": "uint256"
        }
      ],
      "name": "proxyImplementation",
      "outputs": [
        {
          "internalType": "address",
          "name": "",
          "type": "address"
        }
      ],
      "stateMutability": "view",
      "type": "function"
    },
    {
      "inputs": [
        {
          "internalType": "address",
          "name": "account",
          "type": "address"
        }
      ],
      "name": "removeAdmin",
      "outputs": [],
      "stateMutability": "nonpayable",
      "type": "function"
    },
    {
      "inputs": [
        {
          "internalType": "bytes32",
          "name": "role",
          "type": "bytes32"
        },
        {
          "internalType": "address",
          "name": "account",
          "type": "address"
        }
      ],
      "name": "renounceRole",
      "outputs": [],
      "stateMutability": "nonpayable",
      "type": "function"
    },
    {
      "inputs": [
        {
          "internalType": "bytes32",
          "name": "role",
          "type": "bytes32"
        },
        {
          "internalType": "address",
          "name": "account",
          "type": "address"
        }
      ],
      "name": "revokeRole",
      "outputs": [],
      "stateMutability": "nonpayable",
      "type": "function"
    },
    {
      "inputs": [
        {
          "internalType": "bytes4",
          "name": "",
          "type": "bytes4"
        }
      ],
      "name": "selectorImplementation",
      "outputs": [
        {
          "internalType": "address",
          "name": "",
          "type": "address"
        }
      ],
      "stateMutability": "view",
      "type": "function"
    },
    {
      "inputs": [
        {
          "internalType": "address",
          "name": "newImplementation",
          "type": "address"
        },
        {
          "internalType": "bool",
          "name": "_alive",
          "type": "bool"
        }
      ],
      "name": "setAliveImplementation2",
      "outputs": [],
      "stateMutability": "nonpayable",
      "type": "function"
    },
    {
      "inputs": [
        {
          "internalType": "address",
          "name": "newImplementation",
          "type": "address"
        },
        {
          "internalType": "uint256",
          "name": "_index",
          "type": "uint256"
        },
        {
          "internalType": "bool",
          "name": "_alive",
          "type": "bool"
        }
      ],
      "name": "setImplementation2",
      "outputs": [],
      "stateMutability": "nonpayable",
      "type": "function"
    },
    {
      "inputs": [
        {
          "internalType": "bool",
          "name": "_pause",
          "type": "bool"
        }
      ],
      "name": "setProxyPause",
      "outputs": [],
      "stateMutability": "nonpayable",
      "type": "function"
    },
    {
      "inputs": [
        {
          "internalType": "bytes4[]",
          "name": "_selectors",
          "type": "bytes4[]"
        },
        {
          "internalType": "address",
          "name": "_imp",
          "type": "address"
        }
      ],
      "name": "setSelectorImplementations2",
      "outputs": [],
      "stateMutability": "nonpayable",
      "type": "function"
    },
    {
      "inputs": [
        {
          "internalType": "bytes4",
          "name": "interfaceId",
          "type": "bytes4"
        }
      ],
      "name": "supportsInterface",
      "outputs": [
        {
          "internalType": "bool",
          "name": "",
          "type": "bool"
        }
      ],
      "stateMutability": "view",
      "type": "function"
    },
    {
      "inputs": [
        {
          "internalType": "address",
          "name": "newAdmin",
          "type": "address"
        }
      ],
      "name": "transferAdmin",
      "outputs": [],
      "stateMutability": "nonpayable",
      "type": "function"
    },
    {
      "inputs": [
        {
          "internalType": "address",
          "name": "impl",
          "type": "address"
        }
      ],
      "name": "upgradeTo",
      "outputs": [],
      "stateMutability": "nonpayable",
      "type": "function"
    },
    {
      "inputs": [
        {
          "internalType": "address",
          "name": "",
          "type": "address"
        }
      ],
      "name": "vaultAdminOfToken",
      "outputs": [
        {
          "internalType": "address",
          "name": "",
          "type": "address"
        }
      ],
      "stateMutability": "view",
      "type": "function"
    },
    {
      "stateMutability": "payable",
      "type": "receive"
    }
  ],
  "bytecode": "0x60806040526005805460ff191660011790553480156200001e57600080fd5b506200003a60008051602062001a1b833981519152806200005b565b6200005560008051602062001a1b83398151915233620000a6565b6200015a565b600082815260046020526040808220600101805490849055905190918391839186917fbd79b86ffe0ab8e8776151514217cd7cacd52c909f66475c3af44e129f0b00ff9190a4505050565b620000b28282620000b6565b5050565b60008281526004602090815260408083206001600160a01b038516845290915290205460ff16620000b25760008281526004602090815260408083206001600160a01b03851684529091529020805460ff19166001179055620001163390565b6001600160a01b0316816001600160a01b0316837f2f8788117e7eff1d82e926ec794901d17c78024a50270940304540a733656f0d60405160405180910390a45050565b6118b1806200016a6000396000f3fe6080604052600436106101bb5760003560e01c806363a8fd89116100ec5780638b8f4a651161008a5780639ce110d7116100645780639ce110d714610611578063a217fddf14610631578063b911135f14610646578063d547741f1461067c5761020d565b80638b8f4a651461058b5780638d4fdb40146105ab57806391d14854146105cb5761020d565b806375b238fc116100c657806375b238fc146104e15780637cb00d25146105155780637cd5f663146105355780637fc46ba8146105555761020d565b806363a8fd891461048757806370480275146104a157806375829def146104c15761020d565b80633659cfe61161015957806352351e851161013357806352351e85146103cc578063550d01a3146103f15780635c60da1b146104215780635cc797d8146104675761020d565b80633659cfe61461033e5780634a5df50f1461035e57806350d2a2761461037e5761020d565b8063248a9ca311610195578063248a9ca3146102ae57806324d7806c146102de5780632f2ff15d146102fe57806336568abe1461031e5761020d565b806301ffc9a7146102175780631785f53c1461024c578063229852461461026c5761020d565b3661020d5760405162461bcd60e51b815260206004820152601460248201527f63616e6e6f74207265636569766520457468657200000000000000000000000060448201526064015b60405180910390fd5b61021561069c565b005b34801561022357600080fd5b50610237610232366004611563565b610745565b60405190151581526020015b60405180910390f35b34801561025857600080fd5b506102156102673660046115a4565b61077c565b34801561027857600080fd5b506102a07ffb5864e8ff833c3cb2d2d08505e82ff02a43554c74a35d4f5a64e8526127831181565b604051908152602001610243565b3480156102ba57600080fd5b506102a06102c93660046115bf565b60009081526004602052604090206001015490565b3480156102ea57600080fd5b506102376102f93660046115a4565b6107f7565b34801561030a57600080fd5b506102156103193660046115d8565b610837565b34801561032a57600080fd5b506102156103393660046115d8565b61085c565b34801561034a57600080fd5b506102156103593660046115a4565b6108e8565b34801561036a57600080fd5b50610215610379366004611604565b610a41565b34801561038a57600080fd5b506103b4610399366004611563565b6003602052600090815260409020546001600160a01b031681565b6040516001600160a01b039091168152602001610243565b3480156103d857600080fd5b506005546103b49061010090046001600160a01b031681565b3480156103fd57600080fd5b5061023761040c3660046115a4565b60026020526000908152604090205460ff1681565b34801561042d57600080fd5b506000805260016020527fa6eef7e35abe7026729641147f7915573c7e97b47efa546f5f6e3230263bcb49546001600160a01b03166103b4565b34801561047357600080fd5b50610215610482366004611698565b610cee565b34801561049357600080fd5b506000546102379060ff1681565b3480156104ad57600080fd5b506102156104bc3660046115a4565b610d46565b3480156104cd57600080fd5b506102156104dc3660046115a4565b610dbe565b3480156104ed57600080fd5b506102a07fdf8b4c520ffe197c5343c6f5aec59570151ef9a492f2c624fd45ddde6135ec4281565b34801561052157600080fd5b506102156105303660046116c2565b610f0e565b34801561054157600080fd5b506102156105503660046116dd565b610f6f565b34801561056157600080fd5b506103b46105703660046115a4565b6007602052600090815260409020546001600160a01b031681565b34801561059757600080fd5b506103b46105a63660046115bf565b610fc8565b3480156105b757600080fd5b506103b46105c6366004611563565b610fe5565b3480156105d757600080fd5b506102376105e63660046115d8565b60009182526004602090815260408084206001600160a01b0393909316845291905290205460ff1690565b34801561061d57600080fd5b506006546103b4906001600160a01b031681565b34801561063d57600080fd5b506102a0600081565b34801561065257600080fd5b506103b46106613660046115bf565b6001602052600090815260409020546001600160a01b031681565b34801561068857600080fd5b506102156106973660046115d8565b6110e1565b60006106b36000356001600160e01b031916610fe5565b90506001600160a01b038116158015906106d0575060005460ff16155b61071c5760405162461bcd60e51b815260206004820152601d60248201527f50726f78793a20696d706c204f522070726f78792069732066616c73650000006044820152606401610204565b3660008037600080366000845af43d6000803e80801561073b573d6000f35b3d6000fd5b505050565b60006001600160e01b03198216637965db0b60e01b148061077657506301ffc9a760e01b6001600160e01b03198316145b92915050565b610785336107f7565b6107ca5760405162461bcd60e51b8152602060048201526022602482015260008051602061188583398151915260448201526134b760f11b6064820152608401610204565b6107f47fdf8b4c520ffe197c5343c6f5aec59570151ef9a492f2c624fd45ddde6135ec428261085c565b50565b6001600160a01b03811660009081527f2fb794d17134dfdec181ddbac1babb5ab1eb140204ef4d982f294e7fc8b69022602052604081205460ff16610776565b60008281526004602052604090206001015461085281611106565b6107408383611110565b6001600160a01b03811633146108da5760405162461bcd60e51b815260206004820152602f60248201527f416363657373436f6e74726f6c3a2063616e206f6e6c792072656e6f756e636560448201527f20726f6c657320666f722073656c6600000000000000000000000000000000006064820152608401610204565b6108e482826111b2565b5050565b6108f1336107f7565b6109365760405162461bcd60e51b8152602060048201526022602482015260008051602061188583398151915260448201526134b760f11b6064820152608401610204565b6001600160a01b03811661098c5760405162461bcd60e51b815260206004820152600d60248201527f696e707574206973207a65726f000000000000000000000000000000000000006044820152606401610204565b6000805260016020527fa6eef7e35abe7026729641147f7915573c7e97b47efa546f5f6e3230263bcb49546001600160a01b038281169116036109fd5760405162461bcd60e51b815260206004820152600960248201526839b0b6b29030b2323960b91b6044820152606401610204565b610a0a8160006001611235565b6040516001600160a01b038216907fbc7cd75a20ee27fd9adebab32041f755214dbc6bffa90cc0225b39da2e5c2d3b90600090a250565b610a4a336107f7565b610a8f5760405162461bcd60e51b8152602060048201526022602482015260008051602061188583398151915260448201526134b760f11b6064820152608401610204565b81610adc5760405162461bcd60e51b815260206004820181905260248201527f50726f78793a205f73656c6563746f727327732073697a65206973207a65726f6044820152606401610204565b6001600160a01b03811660009081526002602052604090205460ff16610b445760405162461bcd60e51b815260206004820152601860248201527f50726f78793a205f696d70206973206e6f7420616c69766500000000000000006044820152606401610204565b60005b82811015610ce857816001600160a01b031660036000868685818110610b6f57610b6f611710565b9050602002016020810190610b849190611563565b6001600160e01b03191681526020810191909152604001600020546001600160a01b031603610bf55760405162461bcd60e51b815260206004820152601d60248201527f4c69717569646974795661756c7450726f78793a2073616d6520696d700000006044820152606401610204565b8160036000868685818110610c0c57610c0c611710565b9050602002016020810190610c219190611563565b6001600160e01b03191681526020810191909152604001600020805473ffffffffffffffffffffffffffffffffffffffff19166001600160a01b039283161790558216848483818110610c7657610c76611710565b9050602002016020810190610c8b9190611563565b7bffffffffffffffffffffffffffffffffffffffffffffffffffffffff19167f14ebc1c32aa68f4d766e89f3e546cee249f7df25183fc10ab1568d91c2ce9b7b60405160405180910390a380610ce08161173c565b915050610b47565b50505050565b610cf7336107f7565b610d3c5760405162461bcd60e51b8152602060048201526022602482015260008051602061188583398151915260448201526134b760f11b6064820152608401610204565b6108e482826112cd565b610d4f336107f7565b610d945760405162461bcd60e51b8152602060048201526022602482015260008051602061188583398151915260448201526134b760f11b6064820152608401610204565b6107f47fdf8b4c520ffe197c5343c6f5aec59570151ef9a492f2c624fd45ddde6135ec4282610837565b610dc7336107f7565b610e0c5760405162461bcd60e51b8152602060048201526022602482015260008051602061188583398151915260448201526134b760f11b6064820152608401610204565b6001600160a01b038116610e625760405162461bcd60e51b815260206004820152601860248201527f41636365737369626c653a207a65726f206164647265737300000000000000006044820152606401610204565b6001600160a01b0381163303610eba5760405162461bcd60e51b815260206004820152601660248201527f41636365737369626c653a2073616d652061646d696e000000000000000000006044820152606401610204565b610ee47fdf8b4c520ffe197c5343c6f5aec59570151ef9a492f2c624fd45ddde6135ec4282610837565b6107f47fdf8b4c520ffe197c5343c6f5aec59570151ef9a492f2c624fd45ddde6135ec423361085c565b610f17336107f7565b610f5c5760405162461bcd60e51b8152602060048201526022602482015260008051602061188583398151915260448201526134b760f11b6064820152608401610204565b6000805460ff1916911515919091179055565b610f78336107f7565b610fbd5760405162461bcd60e51b8152602060048201526022602482015260008051602061188583398151915260448201526134b760f11b6064820152608401610204565b610740838383611235565b6000818152600160205260408120546001600160a01b0316610776565b6001600160e01b031981166000908152600360205260408120546001600160a01b03166110455750506000805260016020527fa6eef7e35abe7026729641147f7915573c7e97b47efa546f5f6e3230263bcb49546001600160a01b031690565b6001600160e01b031982166000908152600360209081526040808320546001600160a01b03168352600290915290205460ff16156110a357506001600160e01b0319166000908152600360205260409020546001600160a01b031690565b50506000805260016020527fa6eef7e35abe7026729641147f7915573c7e97b47efa546f5f6e3230263bcb49546001600160a01b031690565b919050565b6000828152600460205260409020600101546110fc81611106565b61074083836111b2565b6107f4813361132c565b60008281526004602090815260408083206001600160a01b038516845290915290205460ff166108e45760008281526004602090815260408083206001600160a01b03851684529091529020805460ff1916600117905561116e3390565b6001600160a01b0316816001600160a01b0316837f2f8788117e7eff1d82e926ec794901d17c78024a50270940304540a733656f0d60405160405180910390a45050565b60008281526004602090815260408083206001600160a01b038516845290915290205460ff16156108e45760008281526004602090815260408083206001600160a01b0385168085529252808320805460ff1916905551339285917ff6391f5c32d9c69d2a47ea670b442974b53935d1edc7fd64eb21e047a839171b9190a45050565b6001600160a01b0383163b61128c5760405162461bcd60e51b815260206004820152601b60248201527f50726f78793a206e6f7420636f6e7472616374206164647265737300000000006044820152606401610204565b80156112c7576000828152600160205260409020805473ffffffffffffffffffffffffffffffffffffffff19166001600160a01b0385161790555b61074083825b6001600160a01b038216600081815260026020908152604091829020805460ff191685151590811790915591519182527f72558d9bfba4210f9ef095c782589484151f6d90f7a81bb3cb9b33efc695d324910160405180910390a25050565b60008281526004602090815260408083206001600160a01b038516845290915290205460ff166108e45761135f816113a1565b61136a8360206113b3565b60405160200161137b929190611779565b60408051601f198184030181529082905262461bcd60e51b8252610204916004016117fa565b60606107766001600160a01b03831660145b606060006113c283600261182d565b6113cd906002611844565b67ffffffffffffffff8111156113e5576113e5611857565b6040519080825280601f01601f19166020018201604052801561140f576020820181803683370190505b509050600360fc1b8160008151811061142a5761142a611710565b60200101906001600160f81b031916908160001a905350600f60fb1b8160018151811061145957611459611710565b60200101906001600160f81b031916908160001a905350600061147d84600261182d565b611488906001611844565b90505b600181111561150d577f303132333435363738396162636465660000000000000000000000000000000085600f16601081106114c9576114c9611710565b1a60f81b8282815181106114df576114df611710565b60200101906001600160f81b031916908160001a90535060049490941c936115068161186d565b905061148b565b50831561155c5760405162461bcd60e51b815260206004820181905260248201527f537472696e67733a20686578206c656e67746820696e73756666696369656e746044820152606401610204565b9392505050565b60006020828403121561157557600080fd5b81356001600160e01b03198116811461155c57600080fd5b80356001600160a01b03811681146110dc57600080fd5b6000602082840312156115b657600080fd5b61155c8261158d565b6000602082840312156115d157600080fd5b5035919050565b600080604083850312156115eb57600080fd5b823591506115fb6020840161158d565b90509250929050565b60008060006040848603121561161957600080fd5b833567ffffffffffffffff8082111561163157600080fd5b818601915086601f83011261164557600080fd5b81358181111561165457600080fd5b8760208260051b850101111561166957600080fd5b60209283019550935061167f918601905061158d565b90509250925092565b803580151581146110dc57600080fd5b600080604083850312156116ab57600080fd5b6116b48361158d565b91506115fb60208401611688565b6000602082840312156116d457600080fd5b61155c82611688565b6000806000606084860312156116f257600080fd5b6116fb8461158d565b92506020840135915061167f60408501611688565b634e487b7160e01b600052603260045260246000fd5b634e487b7160e01b600052601160045260246000fd5b60006001820161174e5761174e611726565b5060010190565b60005b83811015611770578181015183820152602001611758565b50506000910152565b7f416363657373436f6e74726f6c3a206163636f756e74200000000000000000008152600083516117b1816017850160208801611755565b7f206973206d697373696e6720726f6c652000000000000000000000000000000060179184019182015283516117ee816028840160208801611755565b01602801949350505050565b6020815260008251806020840152611819816040850160208701611755565b601f01601f19169190910160400192915050565b808202811582820484141761077657610776611726565b8082018082111561077657610776611726565b634e487b7160e01b600052604160045260246000fd5b60008161187c5761187c611726565b50600019019056fe41636365737369626c653a2043616c6c6572206973206e6f7420616e2061646da164736f6c6343000812000adf8b4c520ffe197c5343c6f5aec59570151ef9a492f2c624fd45ddde6135ec42",
  "linkReferences": {},
  "deployedLinkReferences": {}
}