{
  "_format": "hh-sol-artifact-1",
  "contractName": "AccessiblePlusCommon",
  "sourceName": "contracts/common/AccessiblePlusCommon.sol",
  "abi": [
    {
      "anonymous": false,
      "inputs": [
        {
          "indexed": true,
          "internalType": "bytes32",
          "name": "role",
          "type": "bytes32"
        },
        {
          "indexed": true,
          "internalType": "bytes32",
          "name": "previousAdminRole",
          "type": "bytes32"
        },
        {
          "indexed": true,
          "internalType": "bytes32",
          "name": "newAdminRole",
          "type": "bytes32"
        }
      ],
      "name": "RoleAdminChanged",
      "type": "event"
    },
    {
      "anonymous": false,
      "inputs": [
        {
          "indexed": true,
          "internalType": "bytes32",
          "name": "role",
          "type": "bytes32"
        },
        {
          "indexed": true,
          "internalType": "address",
          "name": "account",
          "type": "address"
        },
        {
          "indexed": true,
          "internalType": "address",
          "name": "sender",
          "type": "address"
        }
      ],
      "name": "RoleGranted",
      "type": "event"
    },
    {
      "anonymous": false,
      "inputs": [
        {
          "indexed": true,
          "internalType": "bytes32",
          "name": "role",
          "type": "bytes32"
        },
        {
          "indexed": true,
          "internalType": "address",
          "name": "account",
          "type": "address"
        },
        {
          "indexed": true,
          "internalType": "address",
          "name": "sender",
          "type": "address"
        }
      ],
      "name": "RoleRevoked",
      "type": "event"
    },
    {
      "inputs": [],
      "name": "ADMIN_ROLE",
      "outputs": [
        {
          "internalType": "bytes32",
          "name": "",
          "type": "bytes32"
        }
      ],
      "stateMutability": "view",
      "type": "function"
    },
    {
      "inputs": [],
      "name": "BURNER_ROLE",
      "outputs": [
        {
          "internalType": "bytes32",
          "name": "",
          "type": "bytes32"
        }
      ],
      "stateMutability": "view",
      "type": "function"
    },
    {
      "inputs": [],
      "name": "DEFAULT_ADMIN_ROLE",
      "outputs": [
        {
          "internalType": "bytes32",
          "name": "",
          "type": "bytes32"
        }
      ],
      "stateMutability": "view",
      "type": "function"
    },
    {
      "inputs": [],
      "name": "MINTER_ROLE",
      "outputs": [
        {
          "internalType": "bytes32",
          "name": "",
          "type": "bytes32"
        }
      ],
      "stateMutability": "view",
      "type": "function"
    },
    {
      "inputs": [],
      "name": "POLICY_ROLE",
      "outputs": [
        {
          "internalType": "bytes32",
          "name": "",
          "type": "bytes32"
        }
      ],
      "stateMutability": "view",
      "type": "function"
    },
    {
      "inputs": [
        {
          "internalType": "address",
          "name": "account",
          "type": "address"
        }
      ],
      "name": "addAdmin",
      "outputs": [],
      "stateMutability": "nonpayable",
      "type": "function"
    },
    {
      "inputs": [
        {
          "internalType": "address",
          "name": "account",
          "type": "address"
        }
      ],
      "name": "addBurner",
      "outputs": [],
      "stateMutability": "nonpayable",
      "type": "function"
    },
    {
      "inputs": [
        {
          "internalType": "address",
          "name": "account",
          "type": "address"
        }
      ],
      "name": "addMinter",
      "outputs": [],
      "stateMutability": "nonpayable",
      "type": "function"
    },
    {
      "inputs": [
        {
          "internalType": "bytes32",
          "name": "role",
          "type": "bytes32"
        }
      ],
      "name": "getRoleAdmin",
      "outputs": [
        {
          "internalType": "bytes32",
          "name": "",
          "type": "bytes32"
        }
      ],
      "stateMutability": "view",
      "type": "function"
    },
    {
      "inputs": [
        {
          "internalType": "bytes32",
          "name": "role",
          "type": "bytes32"
        },
        {
          "internalType": "address",
          "name": "account",
          "type": "address"
        }
      ],
      "name": "grantRole",
      "outputs": [],
      "stateMutability": "nonpayable",
      "type": "function"
    },
    {
      "inputs": [
        {
          "internalType": "bytes32",
          "name": "role",
          "type": "bytes32"
        },
        {
          "internalType": "address",
          "name": "account",
          "type": "address"
        }
      ],
      "name": "hasRole",
      "outputs": [
        {
          "internalType": "bool",
          "name": "",
          "type": "bool"
        }
      ],
      "stateMutability": "view",
      "type": "function"
    },
    {
      "inputs": [
        {
          "internalType": "address",
          "name": "account",
          "type": "address"
        }
      ],
      "name": "isAdmin",
      "outputs": [
        {
          "internalType": "bool",
          "name": "",
          "type": "bool"
        }
      ],
      "stateMutability": "view",
      "type": "function"
    },
    {
      "inputs": [
        {
          "internalType": "address",
          "name": "account",
          "type": "address"
        }
      ],
      "name": "isBurner",
      "outputs": [
        {
          "internalType": "bool",
          "name": "",
          "type": "bool"
        }
      ],
      "stateMutability": "view",
      "type": "function"
    },
    {
      "inputs": [
        {
          "internalType": "address",
          "name": "account",
          "type": "address"
        }
      ],
      "name": "isMinter",
      "outputs": [
        {
          "internalType": "bool",
          "name": "",
          "type": "bool"
        }
      ],
      "stateMutability": "view",
      "type": "function"
    },
    {
      "inputs": [
        {
          "internalType": "address",
          "name": "account",
          "type": "address"
        }
      ],
      "name": "removeAdmin",
      "outputs": [],
      "stateMutability": "nonpayable",
      "type": "function"
    },
    {
      "inputs": [
        {
          "internalType": "address",
          "name": "account",
          "type": "address"
        }
      ],
      "name": "removeBurner",
      "outputs": [],
      "stateMutability": "nonpayable",
      "type": "function"
    },
    {
      "inputs": [
        {
          "internalType": "address",
          "name": "account",
          "type": "address"
        }
      ],
      "name": "removeMinter",
      "outputs": [],
      "stateMutability": "nonpayable",
      "type": "function"
    },
    {
      "inputs": [
        {
          "internalType": "bytes32",
          "name": "role",
          "type": "bytes32"
        },
        {
          "internalType": "address",
          "name": "account",
          "type": "address"
        }
      ],
      "name": "renounceRole",
      "outputs": [],
      "stateMutability": "nonpayable",
      "type": "function"
    },
    {
      "inputs": [
        {
          "internalType": "bytes32",
          "name": "role",
          "type": "bytes32"
        },
        {
          "internalType": "address",
          "name": "account",
          "type": "address"
        }
      ],
      "name": "revokeRole",
      "outputs": [],
      "stateMutability": "nonpayable",
      "type": "function"
    },
    {
      "inputs": [
        {
          "internalType": "bytes4",
          "name": "interfaceId",
          "type": "bytes4"
        }
      ],
      "name": "supportsInterface",
      "outputs": [
        {
          "internalType": "bool",
          "name": "",
          "type": "bool"
        }
      ],
      "stateMutability": "view",
      "type": "function"
    },
    {
      "inputs": [
        {
          "internalType": "address",
          "name": "newAdmin",
          "type": "address"
        }
      ],
      "name": "transferAdmin",
      "outputs": [],
      "stateMutability": "nonpayable",
      "type": "function"
    }
  ],
  "bytecode": "0x608060405234801561001057600080fd5b50610f8b806100206000396000f3fe608060405234801561001057600080fd5b50600436106101775760003560e01c80634334614a116100d8578063983b2d561161008c578063d539139311610066578063d53913931461035c578063d547741f14610383578063f44637ba1461039657600080fd5b8063983b2d561461032e578063a217fddf14610341578063aa271e1a1461034957600080fd5b806375829def116100bd57806375829def146102bd57806375b238fc146102d057806391d14854146102f757600080fd5b80634334614a1461029757806370480275146102aa57600080fd5b806324d7806c1161012f5780632f2ff15d116101145780632f2ff15d1461025e5780633092afd51461027157806336568abe1461028457600080fd5b806324d7806c14610224578063282c51f31461023757600080fd5b80631785f53c116101605780631785f53c146101b957806322985246146101cc578063248a9ca31461020157600080fd5b806301ffc9a71461017c57806302846858146101a4575b600080fd5b61018f61018a366004610d7d565b6103a9565b60405190151581526020015b60405180910390f35b6101b76101b2366004610dc3565b6103e0565b005b6101b76101c7366004610dc3565b610472565b6101f37ffb5864e8ff833c3cb2d2d08505e82ff02a43554c74a35d4f5a64e8526127831181565b60405190815260200161019b565b6101f361020f366004610dde565b60009081526020819052604090206001015490565b61018f610232366004610dc3565b6104fc565b6101f37f9667e80708b6eeeb0053fa0cca44e028ff548e2a9f029edfeac87c118b08b7c881565b6101b761026c366004610df7565b61053c565b6101b761027f366004610dc3565b610566565b6101b7610292366004610df7565b6105f0565b61018f6102a5366004610dc3565b61067c565b6101b76102b8366004610dc3565b6106bc565b6101b76102cb366004610dc3565b610746565b6101f37fdf8b4c520ffe197c5343c6f5aec59570151ef9a492f2c624fd45ddde6135ec4281565b61018f610305366004610df7565b6000918252602082815260408084206001600160a01b0393909316845291905290205460ff1690565b6101b761033c366004610dc3565b6108a8565b6101f3600081565b61018f610357366004610dc3565b610932565b6101f37ff0887ba65ee2024ea881d91b74c2450ef19e1557f03bed3ea9f16b037cbe2dc981565b6101b7610391366004610df7565b610972565b6101b76103a4366004610dc3565b610997565b60006001600160e01b03198216637965db0b60e01b14806103da57506301ffc9a760e01b6001600160e01b03198316145b92915050565b6103e9336104fc565b6104455760405162461bcd60e51b815260206004820152602260248201527f41636365737369626c653a2043616c6c6572206973206e6f7420616e2061646d60448201526134b760f11b60648201526084015b60405180910390fd5b61046f7f9667e80708b6eeeb0053fa0cca44e028ff548e2a9f029edfeac87c118b08b7c882610972565b50565b61047b336104fc565b6104d25760405162461bcd60e51b815260206004820152602260248201527f41636365737369626c653a2043616c6c6572206973206e6f7420616e2061646d60448201526134b760f11b606482015260840161043c565b61046f7fdf8b4c520ffe197c5343c6f5aec59570151ef9a492f2c624fd45ddde6135ec42826105f0565b6001600160a01b03811660009081527f5cbfc8ee58ca47855df7bcf648dd304ddb6b932f9b87878bdf6318d7ec7ee5b7602052604081205460ff166103da565b60008281526020819052604090206001015461055781610a21565b6105618383610a2b565b505050565b61056f336104fc565b6105c65760405162461bcd60e51b815260206004820152602260248201527f41636365737369626c653a2043616c6c6572206973206e6f7420616e2061646d60448201526134b760f11b606482015260840161043c565b61046f7ff0887ba65ee2024ea881d91b74c2450ef19e1557f03bed3ea9f16b037cbe2dc982610972565b6001600160a01b038116331461066e5760405162461bcd60e51b815260206004820152602f60248201527f416363657373436f6e74726f6c3a2063616e206f6e6c792072656e6f756e636560448201527f20726f6c657320666f722073656c660000000000000000000000000000000000606482015260840161043c565b6106788282610ac9565b5050565b6001600160a01b03811660009081527fa183958c000cf56a4394cb845eaca1d40020849c6fc7b1afc321eae460ef09e2602052604081205460ff166103da565b6106c5336104fc565b61071c5760405162461bcd60e51b815260206004820152602260248201527f41636365737369626c653a2043616c6c6572206973206e6f7420616e2061646d60448201526134b760f11b606482015260840161043c565b61046f7fdf8b4c520ffe197c5343c6f5aec59570151ef9a492f2c624fd45ddde6135ec428261053c565b61074f336104fc565b6107a65760405162461bcd60e51b815260206004820152602260248201527f41636365737369626c653a2043616c6c6572206973206e6f7420616e2061646d60448201526134b760f11b606482015260840161043c565b6001600160a01b0381166107fc5760405162461bcd60e51b815260206004820152601860248201527f41636365737369626c653a207a65726f20616464726573730000000000000000604482015260640161043c565b6001600160a01b03811633036108545760405162461bcd60e51b815260206004820152601660248201527f41636365737369626c653a2073616d652061646d696e00000000000000000000604482015260640161043c565b61087e7fdf8b4c520ffe197c5343c6f5aec59570151ef9a492f2c624fd45ddde6135ec428261053c565b61046f7fdf8b4c520ffe197c5343c6f5aec59570151ef9a492f2c624fd45ddde6135ec42336105f0565b6108b1336104fc565b6109085760405162461bcd60e51b815260206004820152602260248201527f41636365737369626c653a2043616c6c6572206973206e6f7420616e2061646d60448201526134b760f11b606482015260840161043c565b61046f7ff0887ba65ee2024ea881d91b74c2450ef19e1557f03bed3ea9f16b037cbe2dc98261053c565b6001600160a01b03811660009081527f213adc0a84cc939081f025f2b699be0ed944ae23aa7816da33f513ef6fc3cdfb602052604081205460ff166103da565b60008281526020819052604090206001015461098d81610a21565b6105618383610ac9565b6109a0336104fc565b6109f75760405162461bcd60e51b815260206004820152602260248201527f41636365737369626c653a2043616c6c6572206973206e6f7420616e2061646d60448201526134b760f11b606482015260840161043c565b61046f7f9667e80708b6eeeb0053fa0cca44e028ff548e2a9f029edfeac87c118b08b7c88261053c565b61046f8133610b48565b6000828152602081815260408083206001600160a01b038516845290915290205460ff16610678576000828152602081815260408083206001600160a01b03851684529091529020805460ff19166001179055610a853390565b6001600160a01b0316816001600160a01b0316837f2f8788117e7eff1d82e926ec794901d17c78024a50270940304540a733656f0d60405160405180910390a45050565b6000828152602081815260408083206001600160a01b038516845290915290205460ff1615610678576000828152602081815260408083206001600160a01b0385168085529252808320805460ff1916905551339285917ff6391f5c32d9c69d2a47ea670b442974b53935d1edc7fd64eb21e047a839171b9190a45050565b6000828152602081815260408083206001600160a01b038516845290915290205460ff1661067857610b7981610bbb565b610b84836020610bcd565b604051602001610b95929190610e47565b60408051601f198184030181529082905262461bcd60e51b825261043c91600401610ec8565b60606103da6001600160a01b03831660145b60606000610bdc836002610f11565b610be7906002610f28565b67ffffffffffffffff811115610bff57610bff610f3b565b6040519080825280601f01601f191660200182016040528015610c29576020820181803683370190505b509050600360fc1b81600081518110610c4457610c44610f51565b60200101906001600160f81b031916908160001a905350600f60fb1b81600181518110610c7357610c73610f51565b60200101906001600160f81b031916908160001a9053506000610c97846002610f11565b610ca2906001610f28565b90505b6001811115610d27577f303132333435363738396162636465660000000000000000000000000000000085600f1660108110610ce357610ce3610f51565b1a60f81b828281518110610cf957610cf9610f51565b60200101906001600160f81b031916908160001a90535060049490941c93610d2081610f67565b9050610ca5565b508315610d765760405162461bcd60e51b815260206004820181905260248201527f537472696e67733a20686578206c656e67746820696e73756666696369656e74604482015260640161043c565b9392505050565b600060208284031215610d8f57600080fd5b81356001600160e01b031981168114610d7657600080fd5b80356001600160a01b0381168114610dbe57600080fd5b919050565b600060208284031215610dd557600080fd5b610d7682610da7565b600060208284031215610df057600080fd5b5035919050565b60008060408385031215610e0a57600080fd5b82359150610e1a60208401610da7565b90509250929050565b60005b83811015610e3e578181015183820152602001610e26565b50506000910152565b7f416363657373436f6e74726f6c3a206163636f756e7420000000000000000000815260008351610e7f816017850160208801610e23565b7f206973206d697373696e6720726f6c65200000000000000000000000000000006017918401918201528351610ebc816028840160208801610e23565b01602801949350505050565b6020815260008251806020840152610ee7816040850160208701610e23565b601f01601f19169190910160400192915050565b634e487b7160e01b600052601160045260246000fd5b80820281158282048414176103da576103da610efb565b808201808211156103da576103da610efb565b634e487b7160e01b600052604160045260246000fd5b634e487b7160e01b600052603260045260246000fd5b600081610f7657610f76610efb565b50600019019056fea164736f6c6343000812000a",
  "linkReferences": {},
  "deployedLinkReferences": {}
}