{
  "address": "0xF9f789156DE91Af15ca6e5D65c50Bfe92bC999eb",
  "abi": [
    {
      "inputs": [],
      "stateMutability": "nonpayable",
      "type": "constructor"
    },
    {
      "anonymous": false,
      "inputs": [
        {
          "indexed": false,
          "internalType": "address",
          "name": "l1Token",
          "type": "address"
        },
        {
          "indexed": false,
          "internalType": "uint256",
          "name": "projectId",
          "type": "uint256"
        },
        {
          "indexed": false,
          "internalType": "address",
          "name": "tokenOwner",
          "type": "address"
        },
        {
          "indexed": false,
          "internalType": "address",
          "name": "projectOwner",
          "type": "address"
        },
        {
          "indexed": false,
          "internalType": "address",
          "name": "addressManager",
          "type": "address"
        },
        {
          "indexed": false,
          "internalType": "uint256",
          "name": "initialTotalSupply",
          "type": "uint256"
        },
        {
          "indexed": false,
          "internalType": "string",
          "name": "projectName",
          "type": "string"
        },
        {
          "indexed": false,
          "internalType": "string",
          "name": "tokenName",
          "type": "string"
        },
        {
          "indexed": false,
          "internalType": "string",
          "name": "tokenSymbol",
          "type": "string"
        }
      ],
      "name": "CreatedProject",
      "type": "event"
    },
    {
      "anonymous": false,
      "inputs": [
        {
          "indexed": false,
          "internalType": "uint256",
          "name": "projectId",
          "type": "uint256"
        },
        {
          "indexed": false,
          "internalType": "address",
          "name": "l1Token",
          "type": "address"
        },
        {
          "indexed": false,
          "internalType": "address",
          "name": "l2Token",
          "type": "address"
        },
        {
          "indexed": false,
          "internalType": "uint256",
          "name": "totalAmount",
          "type": "uint256"
        }
      ],
      "name": "LaunchedProject",
      "type": "event"
    },
    {
      "anonymous": false,
      "inputs": [
        {
          "indexed": true,
          "internalType": "bytes32",
          "name": "role",
          "type": "bytes32"
        },
        {
          "indexed": true,
          "internalType": "bytes32",
          "name": "previousAdminRole",
          "type": "bytes32"
        },
        {
          "indexed": true,
          "internalType": "bytes32",
          "name": "newAdminRole",
          "type": "bytes32"
        }
      ],
      "name": "RoleAdminChanged",
      "type": "event"
    },
    {
      "anonymous": false,
      "inputs": [
        {
          "indexed": true,
          "internalType": "bytes32",
          "name": "role",
          "type": "bytes32"
        },
        {
          "indexed": true,
          "internalType": "address",
          "name": "account",
          "type": "address"
        },
        {
          "indexed": true,
          "internalType": "address",
          "name": "sender",
          "type": "address"
        }
      ],
      "name": "RoleGranted",
      "type": "event"
    },
    {
      "anonymous": false,
      "inputs": [
        {
          "indexed": true,
          "internalType": "bytes32",
          "name": "role",
          "type": "bytes32"
        },
        {
          "indexed": true,
          "internalType": "address",
          "name": "account",
          "type": "address"
        },
        {
          "indexed": true,
          "internalType": "address",
          "name": "sender",
          "type": "address"
        }
      ],
      "name": "RoleRevoked",
      "type": "event"
    },
    {
      "anonymous": false,
      "inputs": [
        {
          "indexed": false,
          "internalType": "uint8",
          "name": "l2Type",
          "type": "uint8"
        },
        {
          "indexed": false,
          "internalType": "address",
          "name": "l2TokenFactory",
          "type": "address"
        },
        {
          "indexed": false,
          "internalType": "address",
          "name": "l2ProjectManager",
          "type": "address"
        },
        {
          "indexed": false,
          "internalType": "uint32",
          "name": "depositMinGasLimit",
          "type": "uint32"
        },
        {
          "indexed": false,
          "internalType": "uint32",
          "name": "sendMsgMinGasLimit",
          "type": "uint32"
        }
      ],
      "name": "SetL2Infos",
      "type": "event"
    },
    {
      "anonymous": false,
      "inputs": [
        {
          "indexed": false,
          "internalType": "uint256",
          "name": "projectId",
          "type": "uint256"
        },
        {
          "indexed": false,
          "internalType": "uint8",
          "name": "l2Type",
          "type": "uint8"
        },
        {
          "indexed": false,
          "internalType": "address",
          "name": "addressManager",
          "type": "address"
        },
        {
          "indexed": false,
          "internalType": "address",
          "name": "l2Token",
          "type": "address"
        }
      ],
      "name": "SetL2Token",
      "type": "event"
    },
    {
      "inputs": [],
      "name": "ADMIN_ROLE",
      "outputs": [
        {
          "internalType": "bytes32",
          "name": "",
          "type": "bytes32"
        }
      ],
      "stateMutability": "view",
      "type": "function"
    },
    {
      "inputs": [],
      "name": "DEFAULT_ADMIN_ROLE",
      "outputs": [
        {
          "internalType": "bytes32",
          "name": "",
          "type": "bytes32"
        }
      ],
      "stateMutability": "view",
      "type": "function"
    },
    {
      "inputs": [],
      "name": "POLICY_ROLE",
      "outputs": [
        {
          "internalType": "bytes32",
          "name": "",
          "type": "bytes32"
        }
      ],
      "stateMutability": "view",
      "type": "function"
    },
    {
      "inputs": [
        {
          "internalType": "address",
          "name": "account",
          "type": "address"
        }
      ],
      "name": "addAdmin",
      "outputs": [],
      "stateMutability": "nonpayable",
      "type": "function"
    },
    {
      "inputs": [
        {
          "internalType": "address",
          "name": "",
          "type": "address"
        }
      ],
      "name": "aliveImplementation",
      "outputs": [
        {
          "internalType": "bool",
          "name": "",
          "type": "bool"
        }
      ],
      "stateMutability": "view",
      "type": "function"
    },
    {
      "inputs": [
        {
          "internalType": "address",
          "name": "tokenOwner",
          "type": "address"
        },
        {
          "internalType": "address",
          "name": "projectOwner",
          "type": "address"
        },
        {
          "internalType": "address",
          "name": "addressManager",
          "type": "address"
        },
        {
          "internalType": "uint256",
          "name": "initialTotalSupply",
          "type": "uint256"
        },
        {
          "internalType": "uint8",
          "name": "tokenType",
          "type": "uint8"
        },
        {
          "internalType": "string",
          "name": "projectName",
          "type": "string"
        },
        {
          "internalType": "string",
          "name": "tokenName",
          "type": "string"
        },
        {
          "internalType": "string",
          "name": "tokenSymbol",
          "type": "string"
        }
      ],
      "name": "createProject",
      "outputs": [
        {
          "internalType": "uint256",
          "name": "",
          "type": "uint256"
        }
      ],
      "stateMutability": "nonpayable",
      "type": "function"
    },
    {
      "inputs": [
        {
          "internalType": "bytes32",
          "name": "role",
          "type": "bytes32"
        }
      ],
      "name": "getRoleAdmin",
      "outputs": [
        {
          "internalType": "bytes32",
          "name": "",
          "type": "bytes32"
        }
      ],
      "stateMutability": "view",
      "type": "function"
    },
    {
      "inputs": [
        {
          "internalType": "bytes32",
          "name": "role",
          "type": "bytes32"
        },
        {
          "internalType": "address",
          "name": "account",
          "type": "address"
        }
      ],
      "name": "grantRole",
      "outputs": [],
      "stateMutability": "nonpayable",
      "type": "function"
    },
    {
      "inputs": [
        {
          "internalType": "bytes32",
          "name": "role",
          "type": "bytes32"
        },
        {
          "internalType": "address",
          "name": "account",
          "type": "address"
        }
      ],
      "name": "hasRole",
      "outputs": [
        {
          "internalType": "bool",
          "name": "",
          "type": "bool"
        }
      ],
      "stateMutability": "view",
      "type": "function"
    },
    {
      "inputs": [
        {
          "internalType": "address",
          "name": "account",
          "type": "address"
        }
      ],
      "name": "isAdmin",
      "outputs": [
        {
          "internalType": "bool",
          "name": "",
          "type": "bool"
        }
      ],
      "stateMutability": "view",
      "type": "function"
    },
    {
      "inputs": [
        {
          "internalType": "uint8",
          "name": "",
          "type": "uint8"
        }
      ],
      "name": "l1TokenFactory",
      "outputs": [
        {
          "internalType": "address",
          "name": "",
          "type": "address"
        }
      ],
      "stateMutability": "view",
      "type": "function"
    },
    {
      "inputs": [
        {
          "internalType": "uint8",
          "name": "",
          "type": "uint8"
        }
      ],
      "name": "l2Info",
      "outputs": [
        {
          "internalType": "address",
          "name": "l2TokenFactory",
          "type": "address"
        },
        {
          "internalType": "address",
          "name": "l2ProjectManager",
          "type": "address"
        },
        {
          "internalType": "uint32",
          "name": "depositMinGasLimit",
          "type": "uint32"
        },
        {
          "internalType": "uint32",
          "name": "sendMsgMinGasLimit",
          "type": "uint32"
        }
      ],
      "stateMutability": "view",
      "type": "function"
    },
    {
      "inputs": [
        {
          "internalType": "uint256",
          "name": "projectId",
          "type": "uint256"
        },
        {
          "internalType": "address",
          "name": "l2Token",
          "type": "address"
        },
        {
          "internalType": "uint256",
          "name": "totalAmount",
          "type": "uint256"
        },
        {
          "components": [
            {
              "components": [
                {
                  "components": [
                    {
                      "internalType": "uint256",
                      "name": "stosTier1",
                      "type": "uint256"
                    },
                    {
                      "internalType": "uint256",
                      "name": "stosTier2",
                      "type": "uint256"
                    },
                    {
                      "internalType": "uint256",
                      "name": "stosTier3",
                      "type": "uint256"
                    },
                    {
                      "internalType": "uint256",
                      "name": "stosTier4",
                      "type": "uint256"
                    },
                    {
                      "internalType": "uint256",
                      "name": "tier1Percents",
                      "type": "uint256"
                    },
                    {
                      "internalType": "uint256",
                      "name": "tier2Percents",
                      "type": "uint256"
                    },
                    {
                      "internalType": "uint256",
                      "name": "tier3Percents",
                      "type": "uint256"
                    },
                    {
                      "internalType": "uint256",
                      "name": "tier4Percents",
                      "type": "uint256"
                    },
                    {
                      "internalType": "uint256",
                      "name": "total1roundSaleAmount",
                      "type": "uint256"
                    },
                    {
                      "internalType": "uint256",
                      "name": "total2roundSaleAmount",
                      "type": "uint256"
                    },
                    {
                      "internalType": "uint256",
                      "name": "saleTokenPrice",
                      "type": "uint256"
                    },
                    {
                      "internalType": "uint256",
                      "name": "payTokenPrice",
                      "type": "uint256"
                    },
                    {
                      "internalType": "uint256",
                      "name": "hardcapAmount",
                      "type": "uint256"
                    },
                    {
                      "internalType": "uint256",
                      "name": "changeTOSPercent",
                      "type": "uint256"
                    },
                    {
                      "internalType": "uint256",
                      "name": "startWhiteTime",
                      "type": "uint256"
                    },
                    {
                      "internalType": "uint256",
                      "name": "endWhiteTime",
                      "type": "uint256"
                    },
                    {
                      "internalType": "uint256",
                      "name": "start1roundTime",
                      "type": "uint256"
                    },
                    {
                      "internalType": "uint256",
                      "name": "end1roundTime",
                      "type": "uint256"
                    },
                    {
                      "internalType": "uint256",
                      "name": "snapshotTime",
                      "type": "uint256"
                    },
                    {
                      "internalType": "uint256",
                      "name": "start2roundTime",
                      "type": "uint256"
                    },
                    {
                      "internalType": "uint256",
                      "name": "end2roundTime",
                      "type": "uint256"
                    }
                  ],
                  "internalType": "struct LibProject.InitalParameterPublicSaleVault",
                  "name": "vaultParams",
                  "type": "tuple"
                },
                {
                  "components": [
                    {
                      "internalType": "uint256",
                      "name": "claimCounts",
                      "type": "uint256"
                    },
                    {
                      "internalType": "uint256",
                      "name": "firstClaimPercent",
                      "type": "uint256"
                    },
                    {
                      "internalType": "uint256",
                      "name": "firstClaimTime",
                      "type": "uint256"
                    },
                    {
                      "internalType": "uint256",
                      "name": "secondClaimTime",
                      "type": "uint256"
                    },
                    {
                      "internalType": "uint256",
                      "name": "roundInterval",
                      "type": "uint256"
                    }
                  ],
                  "internalType": "struct LibProject.InitalParameterPublicSaleClaim",
                  "name": "claimParams",
                  "type": "tuple"
                },
                {
                  "components": [
                    {
                      "internalType": "address",
                      "name": "receiveAddress",
                      "type": "address"
                    },
                    {
                      "internalType": "uint256",
                      "name": "totalClaimCount",
                      "type": "uint256"
                    },
                    {
                      "internalType": "uint256",
                      "name": "firstClaimPercent",
                      "type": "uint256"
                    },
                    {
                      "internalType": "uint256",
                      "name": "firstClaimTime",
                      "type": "uint256"
                    },
                    {
                      "internalType": "uint256",
                      "name": "secondClaimTime",
                      "type": "uint256"
                    },
                    {
                      "internalType": "uint256",
                      "name": "roundIntervalTime",
                      "type": "uint256"
                    },
                    {
                      "internalType": "uint24",
                      "name": "fee",
                      "type": "uint24"
                    }
                  ],
                  "internalType": "struct LibProject.InitalParameterVestingFundVault",
                  "name": "vestingParams",
                  "type": "tuple"
                }
              ],
              "internalType": "struct LibProject.InitalParameterPublicSale",
              "name": "publicSaleParams",
              "type": "tuple"
            },
            {
              "components": [
                {
                  "internalType": "uint256",
                  "name": "totalAllocatedAmount",
                  "type": "uint256"
                },
                {
                  "internalType": "uint256",
                  "name": "tosPrice",
                  "type": "uint256"
                },
                {
                  "internalType": "uint256",
                  "name": "tokenPrice",
                  "type": "uint256"
                },
                {
                  "internalType": "uint256",
                  "name": "initSqrtPrice",
                  "type": "uint256"
                },
                {
                  "internalType": "uint32",
                  "name": "startTime",
                  "type": "uint32"
                },
                {
                  "internalType": "uint16",
                  "name": "fee",
                  "type": "uint16"
                }
              ],
              "internalType": "struct LibProject.InitalParameterInitialLiquidityVault",
              "name": "initialVaultParams",
              "type": "tuple"
            },
            {
              "components": [
                {
                  "components": [
                    {
                      "internalType": "address",
                      "name": "token0",
                      "type": "address"
                    },
                    {
                      "internalType": "address",
                      "name": "token1",
                      "type": "address"
                    },
                    {
                      "internalType": "uint24",
                      "name": "fee",
                      "type": "uint24"
                    }
                  ],
                  "internalType": "struct LibPool.PoolInfo",
                  "name": "poolParams",
                  "type": "tuple"
                },
                {
                  "components": [
                    {
                      "internalType": "address",
                      "name": "claimer",
                      "type": "address"
                    },
                    {
                      "internalType": "uint256",
                      "name": "totalAllocatedAmount",
                      "type": "uint256"
                    },
                    {
                      "internalType": "uint256",
                      "name": "totalClaimCount",
                      "type": "uint256"
                    },
                    {
                      "internalType": "uint256",
                      "name": "firstClaimAmount",
                      "type": "uint256"
                    },
                    {
                      "internalType": "uint32",
                      "name": "firstClaimTime",
                      "type": "uint32"
                    },
                    {
                      "internalType": "uint32",
                      "name": "secondClaimTime",
                      "type": "uint32"
                    },
                    {
                      "internalType": "uint32",
                      "name": "roundIntervalTime",
                      "type": "uint32"
                    }
                  ],
                  "internalType": "struct LibProject.InitalParameterScheduleVault",
                  "name": "params",
                  "type": "tuple"
                }
              ],
              "internalType": "struct LibProject.InitalParameterLiquidityRewardVault",
              "name": "rewardTonTosPoolParams",
              "type": "tuple"
            },
            {
              "components": [
                {
                  "components": [
                    {
                      "internalType": "address",
                      "name": "token0",
                      "type": "address"
                    },
                    {
                      "internalType": "address",
                      "name": "token1",
                      "type": "address"
                    },
                    {
                      "internalType": "uint24",
                      "name": "fee",
                      "type": "uint24"
                    }
                  ],
                  "internalType": "struct LibPool.PoolInfo",
                  "name": "poolParams",
                  "type": "tuple"
                },
                {
                  "components": [
                    {
                      "internalType": "address",
                      "name": "claimer",
                      "type": "address"
                    },
                    {
                      "internalType": "uint256",
                      "name": "totalAllocatedAmount",
                      "type": "uint256"
                    },
                    {
                      "internalType": "uint256",
                      "name": "totalClaimCount",
                      "type": "uint256"
                    },
                    {
                      "internalType": "uint256",
                      "name": "firstClaimAmount",
                      "type": "uint256"
                    },
                    {
                      "internalType": "uint32",
                      "name": "firstClaimTime",
                      "type": "uint32"
                    },
                    {
                      "internalType": "uint32",
                      "name": "secondClaimTime",
                      "type": "uint32"
                    },
                    {
                      "internalType": "uint32",
                      "name": "roundIntervalTime",
                      "type": "uint32"
                    }
                  ],
                  "internalType": "struct LibProject.InitalParameterScheduleVault",
                  "name": "params",
                  "type": "tuple"
                }
              ],
              "internalType": "struct LibProject.InitalParameterLiquidityRewardVault",
              "name": "rewardProjectTosPoolParams",
              "type": "tuple"
            },
            {
              "components": [
                {
                  "internalType": "address",
                  "name": "claimer",
                  "type": "address"
                },
                {
                  "internalType": "uint256",
                  "name": "totalAllocatedAmount",
                  "type": "uint256"
                },
                {
                  "internalType": "uint256",
                  "name": "totalClaimCount",
                  "type": "uint256"
                },
                {
                  "internalType": "uint256",
                  "name": "firstClaimAmount",
                  "type": "uint256"
                },
                {
                  "internalType": "uint32",
                  "name": "firstClaimTime",
                  "type": "uint32"
                },
                {
                  "internalType": "uint32",
                  "name": "secondClaimTime",
                  "type": "uint32"
                },
                {
                  "internalType": "uint32",
                  "name": "roundIntervalTime",
                  "type": "uint32"
                }
              ],
              "internalType": "struct LibProject.InitalParameterScheduleVault",
              "name": "tosAirdropParams",
              "type": "tuple"
            },
            {
              "components": [
                {
                  "internalType": "address",
                  "name": "claimer",
                  "type": "address"
                },
                {
                  "internalType": "uint256",
                  "name": "totalAllocatedAmount",
                  "type": "uint256"
                },
                {
                  "internalType": "uint256",
                  "name": "totalClaimCount",
                  "type": "uint256"
                },
                {
                  "internalType": "uint256",
                  "name": "firstClaimAmount",
                  "type": "uint256"
                },
                {
                  "internalType": "uint32",
                  "name": "firstClaimTime",
                  "type": "uint32"
                },
                {
                  "internalType": "uint32",
                  "name": "secondClaimTime",
                  "type": "uint32"
                },
                {
                  "internalType": "uint32",
                  "name": "roundIntervalTime",
                  "type": "uint32"
                }
              ],
              "internalType": "struct LibProject.InitalParameterScheduleVault",
              "name": "tonAirdropParams",
              "type": "tuple"
            }
          ],
          "internalType": "struct LibProject.TokamakVaults",
          "name": "tokamakVaults",
          "type": "tuple"
        },
        {
          "components": [
            {
              "internalType": "string",
              "name": "vaultName",
              "type": "string"
            },
            {
              "components": [
                {
                  "internalType": "address",
                  "name": "claimer",
                  "type": "address"
                },
                {
                  "internalType": "uint256",
                  "name": "totalAllocatedAmount",
                  "type": "uint256"
                },
                {
                  "internalType": "uint256",
                  "name": "totalClaimCount",
                  "type": "uint256"
                },
                {
                  "internalType": "uint256",
                  "name": "firstClaimAmount",
                  "type": "uint256"
                },
                {
                  "internalType": "uint32",
                  "name": "firstClaimTime",
                  "type": "uint32"
                },
                {
                  "internalType": "uint32",
                  "name": "secondClaimTime",
                  "type": "uint32"
                },
                {
                  "internalType": "uint32",
                  "name": "roundIntervalTime",
                  "type": "uint32"
                }
              ],
              "internalType": "struct LibProject.InitalParameterScheduleVault",
              "name": "params",
              "type": "tuple"
            }
          ],
          "internalType": "struct LibProject.InitalParameterSchedule[]",
          "name": "customScheduleVaults",
          "type": "tuple[]"
        },
        {
          "components": [
            {
              "internalType": "string",
              "name": "vaultName",
              "type": "string"
            },
            {
              "internalType": "address",
              "name": "claimer",
              "type": "address"
            },
            {
              "internalType": "uint256",
              "name": "totalAllocatedAmount",
              "type": "uint256"
            }
          ],
          "internalType": "struct LibProject.InitalParameterNonScheduleVault[]",
          "name": "customNonScheduleVaults",
          "type": "tuple[]"
        }
      ],
      "name": "launchProject",
      "outputs": [],
      "stateMutability": "nonpayable",
      "type": "function"
    },
    {
      "inputs": [],
      "name": "pauseProxy",
      "outputs": [
        {
          "internalType": "bool",
          "name": "",
          "type": "bool"
        }
      ],
      "stateMutability": "view",
      "type": "function"
    },
    {
      "inputs": [],
      "name": "projectCount",
      "outputs": [
        {
          "internalType": "uint256",
          "name": "",
          "type": "uint256"
        }
      ],
      "stateMutability": "view",
      "type": "function"
    },
    {
      "inputs": [
        {
          "internalType": "address",
          "name": "",
          "type": "address"
        }
      ],
      "name": "projectTokens",
      "outputs": [
        {
          "internalType": "uint256",
          "name": "",
          "type": "uint256"
        }
      ],
      "stateMutability": "view",
      "type": "function"
    },
    {
      "inputs": [
        {
          "internalType": "uint256",
          "name": "",
          "type": "uint256"
        }
      ],
      "name": "projects",
      "outputs": [
        {
          "internalType": "address",
          "name": "projectOwner",
          "type": "address"
        },
        {
          "internalType": "address",
          "name": "tokenOwner",
          "type": "address"
        },
        {
          "internalType": "address",
          "name": "l1Token",
          "type": "address"
        },
        {
          "internalType": "address",
          "name": "l2Token",
          "type": "address"
        },
        {
          "internalType": "address",
          "name": "addressManager",
          "type": "address"
        },
        {
          "internalType": "uint256",
          "name": "initialTotalSupply",
          "type": "uint256"
        },
        {
          "internalType": "uint8",
          "name": "tokenType",
          "type": "uint8"
        },
        {
          "internalType": "uint8",
          "name": "l2Type",
          "type": "uint8"
        },
        {
          "internalType": "string",
          "name": "projectName",
          "type": "string"
        }
      ],
      "stateMutability": "view",
      "type": "function"
    },
    {
      "inputs": [
        {
          "internalType": "uint256",
          "name": "",
          "type": "uint256"
        }
      ],
      "name": "proxyImplementation",
      "outputs": [
        {
          "internalType": "address",
          "name": "",
          "type": "address"
        }
      ],
      "stateMutability": "view",
      "type": "function"
    },
    {
      "inputs": [
        {
          "internalType": "uint8",
          "name": "",
          "type": "uint8"
        }
      ],
      "name": "publicInfo",
      "outputs": [
        {
          "internalType": "uint8",
          "name": "minPercents",
          "type": "uint8"
        },
        {
          "internalType": "uint8",
          "name": "maxPercents",
          "type": "uint8"
        },
        {
          "internalType": "uint256",
          "name": "delayTime",
          "type": "uint256"
        }
      ],
      "stateMutability": "view",
      "type": "function"
    },
    {
      "inputs": [
        {
          "internalType": "address",
          "name": "account",
          "type": "address"
        }
      ],
      "name": "removeAdmin",
      "outputs": [],
      "stateMutability": "nonpayable",
      "type": "function"
    },
    {
      "inputs": [
        {
          "internalType": "bytes32",
          "name": "role",
          "type": "bytes32"
        },
        {
          "internalType": "address",
          "name": "account",
          "type": "address"
        }
      ],
      "name": "renounceRole",
      "outputs": [],
      "stateMutability": "nonpayable",
      "type": "function"
    },
    {
      "inputs": [
        {
          "internalType": "bytes32",
          "name": "role",
          "type": "bytes32"
        },
        {
          "internalType": "address",
          "name": "account",
          "type": "address"
        }
      ],
      "name": "revokeRole",
      "outputs": [],
      "stateMutability": "nonpayable",
      "type": "function"
    },
    {
      "inputs": [
        {
          "internalType": "bytes4",
          "name": "",
          "type": "bytes4"
        }
      ],
      "name": "selectorImplementation",
      "outputs": [
        {
          "internalType": "address",
          "name": "",
          "type": "address"
        }
      ],
      "stateMutability": "view",
      "type": "function"
    },
    {
      "inputs": [
        {
          "internalType": "uint8[]",
          "name": "tokenTypes",
          "type": "uint8[]"
        },
        {
          "internalType": "address[]",
          "name": "_l1TokenFactorys",
          "type": "address[]"
        }
      ],
      "name": "setL1TokenFactories",
      "outputs": [],
      "stateMutability": "nonpayable",
      "type": "function"
    },
    {
      "inputs": [
        {
          "internalType": "uint8",
          "name": "l2Type",
          "type": "uint8"
        },
        {
          "internalType": "address",
          "name": "_l2TokenFactory",
          "type": "address"
        },
        {
          "internalType": "address",
          "name": "_l2ProjectManager",
          "type": "address"
        },
        {
          "internalType": "uint32",
          "name": "_depositMinGasLimit",
          "type": "uint32"
        },
        {
          "internalType": "uint32",
          "name": "_sendMsgMinGasLimit",
          "type": "uint32"
        }
      ],
      "name": "setL2Infos",
      "outputs": [],
      "stateMutability": "nonpayable",
      "type": "function"
    },
    {
      "inputs": [
        {
          "internalType": "uint8",
          "name": "_min",
          "type": "uint8"
        },
        {
          "internalType": "uint8",
          "name": "_max",
          "type": "uint8"
        },
        {
          "internalType": "uint256",
          "name": "_delayTime",
          "type": "uint256"
        }
      ],
      "name": "setL2PublicSaleValue",
      "outputs": [],
      "stateMutability": "nonpayable",
      "type": "function"
    },
    {
      "inputs": [
        {
          "internalType": "bytes4",
          "name": "interfaceId",
          "type": "bytes4"
        }
      ],
      "name": "supportsInterface",
      "outputs": [
        {
          "internalType": "bool",
          "name": "",
          "type": "bool"
        }
      ],
      "stateMutability": "view",
      "type": "function"
    },
    {
      "inputs": [
        {
          "internalType": "address",
          "name": "newAdmin",
          "type": "address"
        }
      ],
      "name": "transferAdmin",
      "outputs": [],
      "stateMutability": "nonpayable",
      "type": "function"
    },
    {
      "inputs": [
        {
          "components": [
            {
              "components": [
                {
                  "components": [
                    {
                      "internalType": "uint256",
                      "name": "stosTier1",
                      "type": "uint256"
                    },
                    {
                      "internalType": "uint256",
                      "name": "stosTier2",
                      "type": "uint256"
                    },
                    {
                      "internalType": "uint256",
                      "name": "stosTier3",
                      "type": "uint256"
                    },
                    {
                      "internalType": "uint256",
                      "name": "stosTier4",
                      "type": "uint256"
                    },
                    {
                      "internalType": "uint256",
                      "name": "tier1Percents",
                      "type": "uint256"
                    },
                    {
                      "internalType": "uint256",
                      "name": "tier2Percents",
                      "type": "uint256"
                    },
                    {
                      "internalType": "uint256",
                      "name": "tier3Percents",
                      "type": "uint256"
                    },
                    {
                      "internalType": "uint256",
                      "name": "tier4Percents",
                      "type": "uint256"
                    },
                    {
                      "internalType": "uint256",
                      "name": "total1roundSaleAmount",
                      "type": "uint256"
                    },
                    {
                      "internalType": "uint256",
                      "name": "total2roundSaleAmount",
                      "type": "uint256"
                    },
                    {
                      "internalType": "uint256",
                      "name": "saleTokenPrice",
                      "type": "uint256"
                    },
                    {
                      "internalType": "uint256",
                      "name": "payTokenPrice",
                      "type": "uint256"
                    },
                    {
                      "internalType": "uint256",
                      "name": "hardcapAmount",
                      "type": "uint256"
                    },
                    {
                      "internalType": "uint256",
                      "name": "changeTOSPercent",
                      "type": "uint256"
                    },
                    {
                      "internalType": "uint256",
                      "name": "startWhiteTime",
                      "type": "uint256"
                    },
                    {
                      "internalType": "uint256",
                      "name": "endWhiteTime",
                      "type": "uint256"
                    },
                    {
                      "internalType": "uint256",
                      "name": "start1roundTime",
                      "type": "uint256"
                    },
                    {
                      "internalType": "uint256",
                      "name": "end1roundTime",
                      "type": "uint256"
                    },
                    {
                      "internalType": "uint256",
                      "name": "snapshotTime",
                      "type": "uint256"
                    },
                    {
                      "internalType": "uint256",
                      "name": "start2roundTime",
                      "type": "uint256"
                    },
                    {
                      "internalType": "uint256",
                      "name": "end2roundTime",
                      "type": "uint256"
                    }
                  ],
                  "internalType": "struct LibProject.InitalParameterPublicSaleVault",
                  "name": "vaultParams",
                  "type": "tuple"
                },
                {
                  "components": [
                    {
                      "internalType": "uint256",
                      "name": "claimCounts",
                      "type": "uint256"
                    },
                    {
                      "internalType": "uint256",
                      "name": "firstClaimPercent",
                      "type": "uint256"
                    },
                    {
                      "internalType": "uint256",
                      "name": "firstClaimTime",
                      "type": "uint256"
                    },
                    {
                      "internalType": "uint256",
                      "name": "secondClaimTime",
                      "type": "uint256"
                    },
                    {
                      "internalType": "uint256",
                      "name": "roundInterval",
                      "type": "uint256"
                    }
                  ],
                  "internalType": "struct LibProject.InitalParameterPublicSaleClaim",
                  "name": "claimParams",
                  "type": "tuple"
                },
                {
                  "components": [
                    {
                      "internalType": "address",
                      "name": "receiveAddress",
                      "type": "address"
                    },
                    {
                      "internalType": "uint256",
                      "name": "totalClaimCount",
                      "type": "uint256"
                    },
                    {
                      "internalType": "uint256",
                      "name": "firstClaimPercent",
                      "type": "uint256"
                    },
                    {
                      "internalType": "uint256",
                      "name": "firstClaimTime",
                      "type": "uint256"
                    },
                    {
                      "internalType": "uint256",
                      "name": "secondClaimTime",
                      "type": "uint256"
                    },
                    {
                      "internalType": "uint256",
                      "name": "roundIntervalTime",
                      "type": "uint256"
                    },
                    {
                      "internalType": "uint24",
                      "name": "fee",
                      "type": "uint24"
                    }
                  ],
                  "internalType": "struct LibProject.InitalParameterVestingFundVault",
                  "name": "vestingParams",
                  "type": "tuple"
                }
              ],
              "internalType": "struct LibProject.InitalParameterPublicSale",
              "name": "publicSaleParams",
              "type": "tuple"
            },
            {
              "components": [
                {
                  "internalType": "uint256",
                  "name": "totalAllocatedAmount",
                  "type": "uint256"
                },
                {
                  "internalType": "uint256",
                  "name": "tosPrice",
                  "type": "uint256"
                },
                {
                  "internalType": "uint256",
                  "name": "tokenPrice",
                  "type": "uint256"
                },
                {
                  "internalType": "uint256",
                  "name": "initSqrtPrice",
                  "type": "uint256"
                },
                {
                  "internalType": "uint32",
                  "name": "startTime",
                  "type": "uint32"
                },
                {
                  "internalType": "uint16",
                  "name": "fee",
                  "type": "uint16"
                }
              ],
              "internalType": "struct LibProject.InitalParameterInitialLiquidityVault",
              "name": "initialVaultParams",
              "type": "tuple"
            },
            {
              "components": [
                {
                  "components": [
                    {
                      "internalType": "address",
                      "name": "token0",
                      "type": "address"
                    },
                    {
                      "internalType": "address",
                      "name": "token1",
                      "type": "address"
                    },
                    {
                      "internalType": "uint24",
                      "name": "fee",
                      "type": "uint24"
                    }
                  ],
                  "internalType": "struct LibPool.PoolInfo",
                  "name": "poolParams",
                  "type": "tuple"
                },
                {
                  "components": [
                    {
                      "internalType": "address",
                      "name": "claimer",
                      "type": "address"
                    },
                    {
                      "internalType": "uint256",
                      "name": "totalAllocatedAmount",
                      "type": "uint256"
                    },
                    {
                      "internalType": "uint256",
                      "name": "totalClaimCount",
                      "type": "uint256"
                    },
                    {
                      "internalType": "uint256",
                      "name": "firstClaimAmount",
                      "type": "uint256"
                    },
                    {
                      "internalType": "uint32",
                      "name": "firstClaimTime",
                      "type": "uint32"
                    },
                    {
                      "internalType": "uint32",
                      "name": "secondClaimTime",
                      "type": "uint32"
                    },
                    {
                      "internalType": "uint32",
                      "name": "roundIntervalTime",
                      "type": "uint32"
                    }
                  ],
                  "internalType": "struct LibProject.InitalParameterScheduleVault",
                  "name": "params",
                  "type": "tuple"
                }
              ],
              "internalType": "struct LibProject.InitalParameterLiquidityRewardVault",
              "name": "rewardTonTosPoolParams",
              "type": "tuple"
            },
            {
              "components": [
                {
                  "components": [
                    {
                      "internalType": "address",
                      "name": "token0",
                      "type": "address"
                    },
                    {
                      "internalType": "address",
                      "name": "token1",
                      "type": "address"
                    },
                    {
                      "internalType": "uint24",
                      "name": "fee",
                      "type": "uint24"
                    }
                  ],
                  "internalType": "struct LibPool.PoolInfo",
                  "name": "poolParams",
                  "type": "tuple"
                },
                {
                  "components": [
                    {
                      "internalType": "address",
                      "name": "claimer",
                      "type": "address"
                    },
                    {
                      "internalType": "uint256",
                      "name": "totalAllocatedAmount",
                      "type": "uint256"
                    },
                    {
                      "internalType": "uint256",
                      "name": "totalClaimCount",
                      "type": "uint256"
                    },
                    {
                      "internalType": "uint256",
                      "name": "firstClaimAmount",
                      "type": "uint256"
                    },
                    {
                      "internalType": "uint32",
                      "name": "firstClaimTime",
                      "type": "uint32"
                    },
                    {
                      "internalType": "uint32",
                      "name": "secondClaimTime",
                      "type": "uint32"
                    },
                    {
                      "internalType": "uint32",
                      "name": "roundIntervalTime",
                      "type": "uint32"
                    }
                  ],
                  "internalType": "struct LibProject.InitalParameterScheduleVault",
                  "name": "params",
                  "type": "tuple"
                }
              ],
              "internalType": "struct LibProject.InitalParameterLiquidityRewardVault",
              "name": "rewardProjectTosPoolParams",
              "type": "tuple"
            },
            {
              "components": [
                {
                  "internalType": "address",
                  "name": "claimer",
                  "type": "address"
                },
                {
                  "internalType": "uint256",
                  "name": "totalAllocatedAmount",
                  "type": "uint256"
                },
                {
                  "internalType": "uint256",
                  "name": "totalClaimCount",
                  "type": "uint256"
                },
                {
                  "internalType": "uint256",
                  "name": "firstClaimAmount",
                  "type": "uint256"
                },
                {
                  "internalType": "uint32",
                  "name": "firstClaimTime",
                  "type": "uint32"
                },
                {
                  "internalType": "uint32",
                  "name": "secondClaimTime",
                  "type": "uint32"
                },
                {
                  "internalType": "uint32",
                  "name": "roundIntervalTime",
                  "type": "uint32"
                }
              ],
              "internalType": "struct LibProject.InitalParameterScheduleVault",
              "name": "tosAirdropParams",
              "type": "tuple"
            },
            {
              "components": [
                {
                  "internalType": "address",
                  "name": "claimer",
                  "type": "address"
                },
                {
                  "internalType": "uint256",
                  "name": "totalAllocatedAmount",
                  "type": "uint256"
                },
                {
                  "internalType": "uint256",
                  "name": "totalClaimCount",
                  "type": "uint256"
                },
                {
                  "internalType": "uint256",
                  "name": "firstClaimAmount",
                  "type": "uint256"
                },
                {
                  "internalType": "uint32",
                  "name": "firstClaimTime",
                  "type": "uint32"
                },
                {
                  "internalType": "uint32",
                  "name": "secondClaimTime",
                  "type": "uint32"
                },
                {
                  "internalType": "uint32",
                  "name": "roundIntervalTime",
                  "type": "uint32"
                }
              ],
              "internalType": "struct LibProject.InitalParameterScheduleVault",
              "name": "tonAirdropParams",
              "type": "tuple"
            }
          ],
          "internalType": "struct LibProject.TokamakVaults",
          "name": "tokamakVaults",
          "type": "tuple"
        }
      ],
      "name": "validateTokamakVaults",
      "outputs": [
        {
          "internalType": "bool",
          "name": "boolValidate",
          "type": "bool"
        },
        {
          "internalType": "uint256",
          "name": "totalAmount",
          "type": "uint256"
        },
        {
          "internalType": "string",
          "name": "errMsg",
          "type": "string"
        }
      ],
      "stateMutability": "pure",
      "type": "function"
    },
    {
      "inputs": [
        {
          "components": [
            {
              "components": [
                {
                  "internalType": "uint256",
                  "name": "stosTier1",
                  "type": "uint256"
                },
                {
                  "internalType": "uint256",
                  "name": "stosTier2",
                  "type": "uint256"
                },
                {
                  "internalType": "uint256",
                  "name": "stosTier3",
                  "type": "uint256"
                },
                {
                  "internalType": "uint256",
                  "name": "stosTier4",
                  "type": "uint256"
                },
                {
                  "internalType": "uint256",
                  "name": "tier1Percents",
                  "type": "uint256"
                },
                {
                  "internalType": "uint256",
                  "name": "tier2Percents",
                  "type": "uint256"
                },
                {
                  "internalType": "uint256",
                  "name": "tier3Percents",
                  "type": "uint256"
                },
                {
                  "internalType": "uint256",
                  "name": "tier4Percents",
                  "type": "uint256"
                },
                {
                  "internalType": "uint256",
                  "name": "total1roundSaleAmount",
                  "type": "uint256"
                },
                {
                  "internalType": "uint256",
                  "name": "total2roundSaleAmount",
                  "type": "uint256"
                },
                {
                  "internalType": "uint256",
                  "name": "saleTokenPrice",
                  "type": "uint256"
                },
                {
                  "internalType": "uint256",
                  "name": "payTokenPrice",
                  "type": "uint256"
                },
                {
                  "internalType": "uint256",
                  "name": "hardcapAmount",
                  "type": "uint256"
                },
                {
                  "internalType": "uint256",
                  "name": "changeTOSPercent",
                  "type": "uint256"
                },
                {
                  "internalType": "uint256",
                  "name": "startWhiteTime",
                  "type": "uint256"
                },
                {
                  "internalType": "uint256",
                  "name": "endWhiteTime",
                  "type": "uint256"
                },
                {
                  "internalType": "uint256",
                  "name": "start1roundTime",
                  "type": "uint256"
                },
                {
                  "internalType": "uint256",
                  "name": "end1roundTime",
                  "type": "uint256"
                },
                {
                  "internalType": "uint256",
                  "name": "snapshotTime",
                  "type": "uint256"
                },
                {
                  "internalType": "uint256",
                  "name": "start2roundTime",
                  "type": "uint256"
                },
                {
                  "internalType": "uint256",
                  "name": "end2roundTime",
                  "type": "uint256"
                }
              ],
              "internalType": "struct LibProject.InitalParameterPublicSaleVault",
              "name": "vaultParams",
              "type": "tuple"
            },
            {
              "components": [
                {
                  "internalType": "uint256",
                  "name": "claimCounts",
                  "type": "uint256"
                },
                {
                  "internalType": "uint256",
                  "name": "firstClaimPercent",
                  "type": "uint256"
                },
                {
                  "internalType": "uint256",
                  "name": "firstClaimTime",
                  "type": "uint256"
                },
                {
                  "internalType": "uint256",
                  "name": "secondClaimTime",
                  "type": "uint256"
                },
                {
                  "internalType": "uint256",
                  "name": "roundInterval",
                  "type": "uint256"
                }
              ],
              "internalType": "struct LibProject.InitalParameterPublicSaleClaim",
              "name": "claimParams",
              "type": "tuple"
            },
            {
              "components": [
                {
                  "internalType": "address",
                  "name": "receiveAddress",
                  "type": "address"
                },
                {
                  "internalType": "uint256",
                  "name": "totalClaimCount",
                  "type": "uint256"
                },
                {
                  "internalType": "uint256",
                  "name": "firstClaimPercent",
                  "type": "uint256"
                },
                {
                  "internalType": "uint256",
                  "name": "firstClaimTime",
                  "type": "uint256"
                },
                {
                  "internalType": "uint256",
                  "name": "secondClaimTime",
                  "type": "uint256"
                },
                {
                  "internalType": "uint256",
                  "name": "roundIntervalTime",
                  "type": "uint256"
                },
                {
                  "internalType": "uint24",
                  "name": "fee",
                  "type": "uint24"
                }
              ],
              "internalType": "struct LibProject.InitalParameterVestingFundVault",
              "name": "vestingParams",
              "type": "tuple"
            }
          ],
          "internalType": "struct LibProject.InitalParameterPublicSale",
          "name": "publicSaleParams",
          "type": "tuple"
        }
      ],
      "name": "validationPublicSaleVaults",
      "outputs": [
        {
          "internalType": "bool",
          "name": "valid",
          "type": "bool"
        },
        {
          "internalType": "string",
          "name": "resean",
          "type": "string"
        }
      ],
      "stateMutability": "view",
      "type": "function"
    },
    {
      "inputs": [
        {
          "internalType": "uint256",
          "name": "totalAmount",
          "type": "uint256"
        },
        {
          "components": [
            {
              "components": [
                {
                  "components": [
                    {
                      "internalType": "uint256",
                      "name": "stosTier1",
                      "type": "uint256"
                    },
                    {
                      "internalType": "uint256",
                      "name": "stosTier2",
                      "type": "uint256"
                    },
                    {
                      "internalType": "uint256",
                      "name": "stosTier3",
                      "type": "uint256"
                    },
                    {
                      "internalType": "uint256",
                      "name": "stosTier4",
                      "type": "uint256"
                    },
                    {
                      "internalType": "uint256",
                      "name": "tier1Percents",
                      "type": "uint256"
                    },
                    {
                      "internalType": "uint256",
                      "name": "tier2Percents",
                      "type": "uint256"
                    },
                    {
                      "internalType": "uint256",
                      "name": "tier3Percents",
                      "type": "uint256"
                    },
                    {
                      "internalType": "uint256",
                      "name": "tier4Percents",
                      "type": "uint256"
                    },
                    {
                      "internalType": "uint256",
                      "name": "total1roundSaleAmount",
                      "type": "uint256"
                    },
                    {
                      "internalType": "uint256",
                      "name": "total2roundSaleAmount",
                      "type": "uint256"
                    },
                    {
                      "internalType": "uint256",
                      "name": "saleTokenPrice",
                      "type": "uint256"
                    },
                    {
                      "internalType": "uint256",
                      "name": "payTokenPrice",
                      "type": "uint256"
                    },
                    {
                      "internalType": "uint256",
                      "name": "hardcapAmount",
                      "type": "uint256"
                    },
                    {
                      "internalType": "uint256",
                      "name": "changeTOSPercent",
                      "type": "uint256"
                    },
                    {
                      "internalType": "uint256",
                      "name": "startWhiteTime",
                      "type": "uint256"
                    },
                    {
                      "internalType": "uint256",
                      "name": "endWhiteTime",
                      "type": "uint256"
                    },
                    {
                      "internalType": "uint256",
                      "name": "start1roundTime",
                      "type": "uint256"
                    },
                    {
                      "internalType": "uint256",
                      "name": "end1roundTime",
                      "type": "uint256"
                    },
                    {
                      "internalType": "uint256",
                      "name": "snapshotTime",
                      "type": "uint256"
                    },
                    {
                      "internalType": "uint256",
                      "name": "start2roundTime",
                      "type": "uint256"
                    },
                    {
                      "internalType": "uint256",
                      "name": "end2roundTime",
                      "type": "uint256"
                    }
                  ],
                  "internalType": "struct LibProject.InitalParameterPublicSaleVault",
                  "name": "vaultParams",
                  "type": "tuple"
                },
                {
                  "components": [
                    {
                      "internalType": "uint256",
                      "name": "claimCounts",
                      "type": "uint256"
                    },
                    {
                      "internalType": "uint256",
                      "name": "firstClaimPercent",
                      "type": "uint256"
                    },
                    {
                      "internalType": "uint256",
                      "name": "firstClaimTime",
                      "type": "uint256"
                    },
                    {
                      "internalType": "uint256",
                      "name": "secondClaimTime",
                      "type": "uint256"
                    },
                    {
                      "internalType": "uint256",
                      "name": "roundInterval",
                      "type": "uint256"
                    }
                  ],
                  "internalType": "struct LibProject.InitalParameterPublicSaleClaim",
                  "name": "claimParams",
                  "type": "tuple"
                },
                {
                  "components": [
                    {
                      "internalType": "address",
                      "name": "receiveAddress",
                      "type": "address"
                    },
                    {
                      "internalType": "uint256",
                      "name": "totalClaimCount",
                      "type": "uint256"
                    },
                    {
                      "internalType": "uint256",
                      "name": "firstClaimPercent",
                      "type": "uint256"
                    },
                    {
                      "internalType": "uint256",
                      "name": "firstClaimTime",
                      "type": "uint256"
                    },
                    {
                      "internalType": "uint256",
                      "name": "secondClaimTime",
                      "type": "uint256"
                    },
                    {
                      "internalType": "uint256",
                      "name": "roundIntervalTime",
                      "type": "uint256"
                    },
                    {
                      "internalType": "uint24",
                      "name": "fee",
                      "type": "uint24"
                    }
                  ],
                  "internalType": "struct LibProject.InitalParameterVestingFundVault",
                  "name": "vestingParams",
                  "type": "tuple"
                }
              ],
              "internalType": "struct LibProject.InitalParameterPublicSale",
              "name": "publicSaleParams",
              "type": "tuple"
            },
            {
              "components": [
                {
                  "internalType": "uint256",
                  "name": "totalAllocatedAmount",
                  "type": "uint256"
                },
                {
                  "internalType": "uint256",
                  "name": "tosPrice",
                  "type": "uint256"
                },
                {
                  "internalType": "uint256",
                  "name": "tokenPrice",
                  "type": "uint256"
                },
                {
                  "internalType": "uint256",
                  "name": "initSqrtPrice",
                  "type": "uint256"
                },
                {
                  "internalType": "uint32",
                  "name": "startTime",
                  "type": "uint32"
                },
                {
                  "internalType": "uint16",
                  "name": "fee",
                  "type": "uint16"
                }
              ],
              "internalType": "struct LibProject.InitalParameterInitialLiquidityVault",
              "name": "initialVaultParams",
              "type": "tuple"
            },
            {
              "components": [
                {
                  "components": [
                    {
                      "internalType": "address",
                      "name": "token0",
                      "type": "address"
                    },
                    {
                      "internalType": "address",
                      "name": "token1",
                      "type": "address"
                    },
                    {
                      "internalType": "uint24",
                      "name": "fee",
                      "type": "uint24"
                    }
                  ],
                  "internalType": "struct LibPool.PoolInfo",
                  "name": "poolParams",
                  "type": "tuple"
                },
                {
                  "components": [
                    {
                      "internalType": "address",
                      "name": "claimer",
                      "type": "address"
                    },
                    {
                      "internalType": "uint256",
                      "name": "totalAllocatedAmount",
                      "type": "uint256"
                    },
                    {
                      "internalType": "uint256",
                      "name": "totalClaimCount",
                      "type": "uint256"
                    },
                    {
                      "internalType": "uint256",
                      "name": "firstClaimAmount",
                      "type": "uint256"
                    },
                    {
                      "internalType": "uint32",
                      "name": "firstClaimTime",
                      "type": "uint32"
                    },
                    {
                      "internalType": "uint32",
                      "name": "secondClaimTime",
                      "type": "uint32"
                    },
                    {
                      "internalType": "uint32",
                      "name": "roundIntervalTime",
                      "type": "uint32"
                    }
                  ],
                  "internalType": "struct LibProject.InitalParameterScheduleVault",
                  "name": "params",
                  "type": "tuple"
                }
              ],
              "internalType": "struct LibProject.InitalParameterLiquidityRewardVault",
              "name": "rewardTonTosPoolParams",
              "type": "tuple"
            },
            {
              "components": [
                {
                  "components": [
                    {
                      "internalType": "address",
                      "name": "token0",
                      "type": "address"
                    },
                    {
                      "internalType": "address",
                      "name": "token1",
                      "type": "address"
                    },
                    {
                      "internalType": "uint24",
                      "name": "fee",
                      "type": "uint24"
                    }
                  ],
                  "internalType": "struct LibPool.PoolInfo",
                  "name": "poolParams",
                  "type": "tuple"
                },
                {
                  "components": [
                    {
                      "internalType": "address",
                      "name": "claimer",
                      "type": "address"
                    },
                    {
                      "internalType": "uint256",
                      "name": "totalAllocatedAmount",
                      "type": "uint256"
                    },
                    {
                      "internalType": "uint256",
                      "name": "totalClaimCount",
                      "type": "uint256"
                    },
                    {
                      "internalType": "uint256",
                      "name": "firstClaimAmount",
                      "type": "uint256"
                    },
                    {
                      "internalType": "uint32",
                      "name": "firstClaimTime",
                      "type": "uint32"
                    },
                    {
                      "internalType": "uint32",
                      "name": "secondClaimTime",
                      "type": "uint32"
                    },
                    {
                      "internalType": "uint32",
                      "name": "roundIntervalTime",
                      "type": "uint32"
                    }
                  ],
                  "internalType": "struct LibProject.InitalParameterScheduleVault",
                  "name": "params",
                  "type": "tuple"
                }
              ],
              "internalType": "struct LibProject.InitalParameterLiquidityRewardVault",
              "name": "rewardProjectTosPoolParams",
              "type": "tuple"
            },
            {
              "components": [
                {
                  "internalType": "address",
                  "name": "claimer",
                  "type": "address"
                },
                {
                  "internalType": "uint256",
                  "name": "totalAllocatedAmount",
                  "type": "uint256"
                },
                {
                  "internalType": "uint256",
                  "name": "totalClaimCount",
                  "type": "uint256"
                },
                {
                  "internalType": "uint256",
                  "name": "firstClaimAmount",
                  "type": "uint256"
                },
                {
                  "internalType": "uint32",
                  "name": "firstClaimTime",
                  "type": "uint32"
                },
                {
                  "internalType": "uint32",
                  "name": "secondClaimTime",
                  "type": "uint32"
                },
                {
                  "internalType": "uint32",
                  "name": "roundIntervalTime",
                  "type": "uint32"
                }
              ],
              "internalType": "struct LibProject.InitalParameterScheduleVault",
              "name": "tosAirdropParams",
              "type": "tuple"
            },
            {
              "components": [
                {
                  "internalType": "address",
                  "name": "claimer",
                  "type": "address"
                },
                {
                  "internalType": "uint256",
                  "name": "totalAllocatedAmount",
                  "type": "uint256"
                },
                {
                  "internalType": "uint256",
                  "name": "totalClaimCount",
                  "type": "uint256"
                },
                {
                  "internalType": "uint256",
                  "name": "firstClaimAmount",
                  "type": "uint256"
                },
                {
                  "internalType": "uint32",
                  "name": "firstClaimTime",
                  "type": "uint32"
                },
                {
                  "internalType": "uint32",
                  "name": "secondClaimTime",
                  "type": "uint32"
                },
                {
                  "internalType": "uint32",
                  "name": "roundIntervalTime",
                  "type": "uint32"
                }
              ],
              "internalType": "struct LibProject.InitalParameterScheduleVault",
              "name": "tonAirdropParams",
              "type": "tuple"
            }
          ],
          "internalType": "struct LibProject.TokamakVaults",
          "name": "tokamakVaults",
          "type": "tuple"
        },
        {
          "components": [
            {
              "internalType": "string",
              "name": "vaultName",
              "type": "string"
            },
            {
              "components": [
                {
                  "internalType": "address",
                  "name": "claimer",
                  "type": "address"
                },
                {
                  "internalType": "uint256",
                  "name": "totalAllocatedAmount",
                  "type": "uint256"
                },
                {
                  "internalType": "uint256",
                  "name": "totalClaimCount",
                  "type": "uint256"
                },
                {
                  "internalType": "uint256",
                  "name": "firstClaimAmount",
                  "type": "uint256"
                },
                {
                  "internalType": "uint32",
                  "name": "firstClaimTime",
                  "type": "uint32"
                },
                {
                  "internalType": "uint32",
                  "name": "secondClaimTime",
                  "type": "uint32"
                },
                {
                  "internalType": "uint32",
                  "name": "roundIntervalTime",
                  "type": "uint32"
                }
              ],
              "internalType": "struct LibProject.InitalParameterScheduleVault",
              "name": "params",
              "type": "tuple"
            }
          ],
          "internalType": "struct LibProject.InitalParameterSchedule[]",
          "name": "customScheduleVaults",
          "type": "tuple[]"
        },
        {
          "components": [
            {
              "internalType": "string",
              "name": "vaultName",
              "type": "string"
            },
            {
              "internalType": "address",
              "name": "claimer",
              "type": "address"
            },
            {
              "internalType": "uint256",
              "name": "totalAllocatedAmount",
              "type": "uint256"
            }
          ],
          "internalType": "struct LibProject.InitalParameterNonScheduleVault[]",
          "name": "customNonScheduleVaults",
          "type": "tuple[]"
        }
      ],
      "name": "validationVaultsParameters",
      "outputs": [
        {
          "internalType": "bool",
          "name": "valid",
          "type": "bool"
        },
        {
          "internalType": "string",
          "name": "resean",
          "type": "string"
        }
      ],
      "stateMutability": "view",
      "type": "function"
    },
    {
      "inputs": [
        {
          "internalType": "uint8",
          "name": "_l2Type",
          "type": "uint8"
        }
      ],
      "name": "viewL2Info",
      "outputs": [
        {
          "components": [
            {
              "internalType": "address",
              "name": "l2TokenFactory",
              "type": "address"
            },
            {
              "internalType": "address",
              "name": "l2ProjectManager",
              "type": "address"
            },
            {
              "internalType": "uint32",
              "name": "depositMinGasLimit",
              "type": "uint32"
            },
            {
              "internalType": "uint32",
              "name": "sendMsgMinGasLimit",
              "type": "uint32"
            }
          ],
          "internalType": "struct LibProject.L2Info",
          "name": "",
          "type": "tuple"
        }
      ],
      "stateMutability": "view",
      "type": "function"
    }
  ],
  "transactionHash": "0xdd667c0f2d6806871a7242a3b2b3c843782b15bc78bb980d92530d2db5c86532",
  "args": [],
  "numDeployments": 1,
  "solcInputHash": "a4408d8a8a7e0a34035b2440a2241515",
  "bytecode": "0x60806040526005805460ff1916600117905534801561001d57600080fd5b50614eae8061002d6000396000f3fe608060405234801561001057600080fd5b50600436106101f05760003560e01c8063704802751161010f578063a217fddf116100a2578063b911135f11610071578063b911135f14610675578063c7163a221461069e578063d547741f146106c0578063eeff1eb2146106d357600080fd5b8063a217fddf14610550578063a902c63a14610558578063b4a35e0f1461056b578063b851550c1461059457600080fd5b8063846fa8f8116100de578063846fa8f814610460578063902293ab1461047357806391d14854146104f75780639cba98481461053057600080fd5b8063704802751461040057806374918e841461041357806375829def1461042657806375b238fc1461043957600080fd5b806324d7806c1161018757806350d2a2761161015657806350d2a2761461037c578063550d01a3146103bd57806363a8fd89146103e057806368f52eb3146103ed57600080fd5b806324d7806c1461033a5780632f2ff15d1461034d57806336568abe1461036057806336fbad261461037357600080fd5b806320a32b63116101c357806320a32b631461027b578063229852461461028e578063248a9ca3146102c357806324d3e647146102e657600080fd5b806301ffc9a7146101f55780630e8a82051461021d578063107046bd1461023e5780631785f53c14610266575b600080fd5b610208610203366004613670565b6106e6565b60405190151581526020015b60405180910390f35b61023061022b3660046139f3565b61071d565b604051610214929190613a60565b61025161024c366004613a83565b610843565b60405161021499989796959493929190613a9c565b610279610274366004613b0a565b610931565b005b610279610289366004613f66565b6109c3565b6102b57ffb5864e8ff833c3cb2d2d08505e82ff02a43554c74a35d4f5a64e8526127831181565b604051908152602001610214565b6102b56102d1366004613a83565b60009081526004602052604090206001015490565b61031a6102f4366004614014565b600b602052600090815260409020805460019091015460ff808316926101009004169083565b6040805160ff948516815293909216602084015290820152606001610214565b610208610348366004613b0a565b611573565b61027961035b36600461402f565b6115b3565b61027961036e36600461402f565b6115dd565b6102b560065481565b6103a561038a366004613670565b6003602052600090815260409020546001600160a01b031681565b6040516001600160a01b039091168152602001610214565b6102086103cb366004613b0a565b60026020526000908152604090205460ff1681565b6000546102089060ff1681565b6102796103fb36600461405f565b611669565b61027961040e366004613b0a565b611a77565b6102b56104213660046140c8565b611b01565b610279610434366004613b0a565b612037565b6102b57fdf8b4c520ffe197c5343c6f5aec59570151ef9a492f2c624fd45ddde6135ec4281565b61027961046e366004614201565b612199565b6104c0610481366004614014565b600a60205260009081526040902080546001909101546001600160a01b039182169181169063ffffffff600160a01b8204811691600160c01b90041684565b604080516001600160a01b03958616815294909316602085015263ffffffff91821692840192909252166060820152608001610214565b61020861050536600461402f565b60009182526004602090815260408084206001600160a01b0393909316845291905290205460ff1690565b6102b561053e366004613b0a565b60096020526000908152604090205481565b6102b5600081565b6102796105663660046142c1565b612408565b6103a5610579366004614014565b6007602052600090815260409020546001600160a01b031681565b61062a6105a2366004614014565b6040805160808101825260008082526020820181905291810182905260608101919091525060ff166000908152600a6020908152604091829020825160808101845281546001600160a01b0390811682526001909201549182169281019290925263ffffffff600160a01b8204811693830193909352600160c01b9004909116606082015290565b6040805182516001600160a01b039081168252602080850151909116908201528282015163ffffffff9081169282019290925260609283015190911691810191909152608001610214565b6103a5610683366004613a83565b6001602052600090815260409020546001600160a01b031681565b6106b16106ac3660046142fd565b6124f8565b6040516102149392919061431a565b6102796106ce36600461402f565b612e3f565b6102306106e1366004614344565b612e64565b60006001600160e01b03198216637965db0b60e01b148061071757506301ffc9a760e01b6001600160e01b03198316145b92915050565b6000808052600b602090815260408051606081810183527fdf7de25b7f1fd6d0b5205f0e18f1f35bd7b8d84cce336588d184533ce43a6f765460ff81811680855261010090920416948301949094527fdf7de25b7f1fd6d0b5205f0e18f1f35bd7b8d84cce336588d184533ce43a6f77549282019290925284516101a001519192909110806107b8575083516101a00151602082015160ff16105b156107e457600060405180604001604052806002815260200161463160f01b8152509250925050915091565b83516101c0015160408201516107fa90426143dc565b111561082757600060405180604001604052806002815260200161463160f01b8152509250925050915091565b6001604051806020016040528060008152509250925050915091565b600860205260009081526040902080546001820154600283015460038401546004850154600586015460068701546007880180546001600160a01b039889169997891698968716979587169690941694929360ff80841694610100909404169291906108ae906143ef565b80601f01602080910402602001604051908101604052809291908181526020018280546108da906143ef565b80156109275780601f106108fc57610100808354040283529160200191610927565b820191906000526020600020905b81548152906001019060200180831161090a57829003601f168201915b5050505050905089565b61093a33611573565b6109965760405162461bcd60e51b815260206004820152602260248201527f41636365737369626c653a2043616c6c6572206973206e6f7420616e2061646d60448201526134b760f11b60648201526084015b60405180910390fd5b6109c07fdf8b4c520ffe197c5343c6f5aec59570151ef9a492f2c624fd45ddde6135ec42826115dd565b50565b846001600160a01b0381166109ff5760405162461bcd60e51b81526020600482015260026024820152612d1960f11b604482015260640161098d565b8480600003610a355760405162461bcd60e51b81526020600482015260026024820152615a3160f01b604482015260640161098d565b600088815260086020908152604080832081516101208101835281546001600160a01b0390811682526001830154811694820194909452600282015484169281019290925260038101548316606083015260048101549092166080820152600582015460a0820152600682015460ff80821660c0840152610100918290041660e083015260078301805492939291840191610acf906143ef565b80601f0160208091040260200160405190810160405280929190818152602001828054610afb906143ef565b8015610b485780601f10610b1d57610100808354040283529160200191610b48565b820191906000526020600020905b815481529060010190602001808311610b2b57829003601f168201915b5050509190925250508151919250506001600160a01b031615801590610b77575080516001600160a01b031633145b610bc35760405162461bcd60e51b815260206004820152601b60248201527f63616c6c6572206973206e6f742070726f6a6563744f776e65722e0000000000604482015260640161098d565b60608101516001600160a01b031615610c1e5760405162461bcd60e51b815260206004820152601060248201527f616c7265616479206c61756e6368656400000000000000000000000000000000604482015260640161098d565b6040808201516001600160a01b03166000908152600960205220548914610c875760405162461bcd60e51b815260206004820152600d60248201527f77726f6e67206c31546f6b656e00000000000000000000000000000000000000604482015260640161098d565b608081015160405163507c8bd160e01b81526001600160a01b03909116600482015260009073541da88B395B05064A9B0d4Af189c4Fac5fe53619063507c8bd190602401602060405180830381865af4158015610ce8573d6000803e3d6000fd5b505050506040513d601f19601f82011682018060405250810190610d0c9190614429565b90506001600160a01b038116610d645760405162461bcd60e51b815260206004820152601a60248201527f6c314d657373656e676572206973205a65726f41646472657373000000000000604482015260640161098d565b600063589b8ec960e01b83604001518b8d8c8c8c8c604051602401610d8f9796959493929190614618565b60408051601f198184030181529190526020810180517bffffffffffffffffffffffffffffffffffffffffffffffffffffffff166001600160e01b031990931692909217909152905060008080610de58b6124f8565b509150915081610e375760405162461bcd60e51b815260206004820152601b60248201527f546f6b616d616b5661756c7473207661696c64617465206661696c0000000000604482015260640161098d565b6000610e468c6000015161071d565b50905080610e965760405162461bcd60e51b815260206004820152601960248201527f5075626c69635661756c74207661696c64617465206661696c00000000000000604482015260640161098d565b610ea082856143dc565b93508a51600014610f905760008073541da88B395B05064A9B0d4Af189c4Fac5fe53616308d8b1ac8e6040518263ffffffff1660e01b8152600401610ee59190614958565b6040805180830381865af4158015610f01573d6000803e3d6000fd5b505050506040513d601f19601f82011682018060405250810190610f259190614a41565b9150915081610f815760405162461bcd60e51b815260206004820152602260248201527f637573746f6d5363686564756c655661756c7473207661696c646174652066616044820152611a5b60f21b606482015260840161098d565b610f8b81876143dc565b955050505b89511561107f5760008073541da88B395B05064A9B0d4Af189c4Fac5fe536163a95614d68d6040518263ffffffff1660e01b8152600401610fd19190614a6d565b6040805180830381865af4158015610fed573d6000803e3d6000fd5b505050506040513d601f19601f820116820180604052508101906110119190614a41565b91509150816110705760405162461bcd60e51b815260206004820152602560248201527f637573746f6d4e6f6e5363686564756c655661756c7473207661696c646174656044820152640819985a5b60da1b606482015260840161098d565b61107a81876143dc565b955050505b8c84146110f45760405162461bcd60e51b815260206004820152603560248201527f746f74616c416d6f756e7420697320646966666572656e742066726f6d20766160448201527f756c747320616c6c6f636174656420616d6f756e740000000000000000000000606482015260840161098d565b60008f90508e6008600083815260200190815260200160002060030160006101000a8154816001600160a01b0302191690836001600160a01b031602179055508e88606001906001600160a01b031690816001600160a01b03168152505060006008600083815260200190815260200160002060020160009054906101000a90046001600160a01b03166001600160a01b03166370a08231306040518263ffffffff1660e01b81526004016111b891906001600160a01b0391909116815260200190565b602060405180830381865afa1580156111d5573d6000803e3d6000fd5b505050506040513d601f19601f820116820180604052508101906111f99190614af7565b90508860a001518111158015611215575060c089015160ff1615155b1561131b5788604001516001600160a01b03166340c10f1930838c60a0015161123e9190614b10565b6040516001600160e01b031960e085901b1681526001600160a01b0390921660048301526024820152604401600060405180830381600087803b15801561128457600080fd5b505af1158015611298573d6000803e3d6000fd5b505050600083815260086020526040908190206002015490516370a0823160e01b81523060048201526001600160a01b0390911691506370a0823190602401602060405180830381865afa1580156112f4573d6000803e3d6000fd5b505050506040513d601f19601f820116820180604052508101906113189190614af7565b90505b8860a0015181101561136f5760405162461bcd60e51b815260206004820152601760248201527f62616c616e636520697320696e73756666696369656e74000000000000000000604482015260640161098d565b6000600a60008b60e0015160ff1660ff1681526020019081526020016000206040518060800160405290816000820160009054906101000a90046001600160a01b03166001600160a01b03166001600160a01b031681526020016001820160009054906101000a90046001600160a01b03166001600160a01b03166001600160a01b031681526020016001820160149054906101000a900463ffffffff1663ffffffff1663ffffffff1681526020016001820160189054906101000a900463ffffffff1663ffffffff1663ffffffff1681525050905061148d8a608001518b604001518c6060015184602001518e60a0015186604001518960405160200161147991815260200190565b6040516020818303038152906040526130cc565b60208101516060820151604051633dbb202b60e01b81526001600160a01b038c1692633dbb202b926114c4928d9190600401614b23565b600060405180830381600087803b1580156114de57600080fd5b505af11580156114f2573d6000803e3d6000fd5b505050507f79fdfe585876a2a3eed99468134317d55495d4fd731029da495b24da1266fa70838b604001518c606001518d60a0015160405161155794939291909384526001600160a01b03928316602085015291166040830152606082015260800190565b60405180910390a1505050505050505050505050505050505050565b6001600160a01b03811660009081527f2fb794d17134dfdec181ddbac1babb5ab1eb140204ef4d982f294e7fc8b69022602052604081205460ff16610717565b6000828152600460205260409020600101546115ce8161330a565b6115d88383613314565b505050565b6001600160a01b038116331461165b5760405162461bcd60e51b815260206004820152602f60248201527f416363657373436f6e74726f6c3a2063616e206f6e6c792072656e6f756e636560448201527f20726f6c657320666f722073656c660000000000000000000000000000000000606482015260840161098d565b61166582826133b6565b5050565b836001600160a01b0381166116a55760405162461bcd60e51b81526020600482015260026024820152612d1960f11b604482015260640161098d565b836001600160a01b0381166116e15760405162461bcd60e51b81526020600482015260026024820152612d1960f11b604482015260640161098d565b8363ffffffff168060000361171d5760405162461bcd60e51b81526020600482015260026024820152615a3160f01b604482015260640161098d565b8363ffffffff16806000036117595760405162461bcd60e51b81526020600482015260026024820152615a3160f01b604482015260640161098d565b61176233611573565b6117b95760405162461bcd60e51b815260206004820152602260248201527f41636365737369626c653a2043616c6c6572206973206e6f7420616e2061646d60448201526134b760f11b606482015260840161098d565b600260ff8a161061180c5760405162461bcd60e51b815260206004820152601260248201527f756e737570706f72746564206c32547970650000000000000000000000000000604482015260640161098d565b60ff89166000908152600a60205260409020546001600160a01b03898116911614158061185a575060ff89166000908152600a60205260409020600101546001600160a01b03888116911614155b8061188a575060ff89166000908152600a602052604090206001015463ffffffff878116600160a01b9092041614155b806118ba575060ff89166000908152600a602052604090206001015463ffffffff868116600160c01b9092041614155b6118ef5760405162461bcd60e51b815260040161098d9060208082526004908201526373616d6560e01b604082015260600190565b600060405180608001604052808a6001600160a01b03168152602001896001600160a01b031681526020018863ffffffff1681526020018763ffffffff16815250905080600a60008c60ff1660ff16815260200190815260200160002060008201518160000160006101000a8154816001600160a01b0302191690836001600160a01b0316021790555060208201518160010160006101000a8154816001600160a01b0302191690836001600160a01b0316021790555060408201518160010160146101000a81548163ffffffff021916908363ffffffff16021790555060608201518160010160186101000a81548163ffffffff021916908363ffffffff1602179055509050507f5e8ef59fdf78b3376941ed3157b8c3d49139b1f4c1857bf531766c1c1e3a97c98a8a8a8a8a604051611a6395949392919060ff9590951685526001600160a01b03938416602086015291909216604084015263ffffffff918216606084015216608082015260a00190565b60405180910390a150505050505050505050565b611a8033611573565b611ad75760405162461bcd60e51b815260206004820152602260248201527f41636365737369626c653a2043616c6c6572206973206e6f7420616e2061646d60448201526134b760f11b606482015260840161098d565b6109c07fdf8b4c520ffe197c5343c6f5aec59570151ef9a492f2c624fd45ddde6135ec42826115b3565b60006001600160a01b03891615801590611b2357506001600160a01b03881615155b8015611b3757506001600160a01b03871615155b611b835760405162461bcd60e51b815260206004820152600c60248201527f7a65726f20616464726573730000000000000000000000000000000000000000604482015260640161098d565b8351600003611bd45760405162461bcd60e51b815260206004820152601360248201527f70726f6a6563744e616d65206973206e756c6c00000000000000000000000000604482015260640161098d565b8251600003611c255760405162461bcd60e51b815260206004820152601160248201527f746f6b656e4e616d65206973206e756c6c000000000000000000000000000000604482015260640161098d565b8151600003611c765760405162461bcd60e51b815260206004820152601360248201527f746f6b656e53796d626f6c206973206e756c6c00000000000000000000000000604482015260640161098d565b600460ff8616108015611ca3575060ff85166000908152600760205260409020546001600160a01b031615155b611cfe5760405162461bcd60e51b815260206004820152602660248201527f77726f6e6720746f6b656e54797065206f72207a65726f206c31546f6b656e466044820152656163746f727960d01b606482015260840161098d565b60ff8516600090815260076020526040808220549051634692ed6760e01b81526001600160a01b0390911690634692ed6790611d4490879087908c903090600401614b5b565b6020604051808303816000875af1158015611d63573d6000803e3d6000fd5b505050506040513d601f19601f82011682018060405250810190611d879190614429565b90506001600160a01b038116611ddf5760405162461bcd60e51b815260206004820152601160248201527f7a65726f2070726f6a656374546f6b656e000000000000000000000000000000604482015260640161098d565b6000600660008154611df090614ba1565b91905081905590506040518061012001604052808b6001600160a01b031681526020018c6001600160a01b03168152602001836001600160a01b0316815260200160006001600160a01b031681526020018a6001600160a01b031681526020018981526020018860ff168152602001600060ff168152602001878152506008600083815260200190815260200160002060008201518160000160006101000a8154816001600160a01b0302191690836001600160a01b0316021790555060208201518160010160006101000a8154816001600160a01b0302191690836001600160a01b0316021790555060408201518160020160006101000a8154816001600160a01b0302191690836001600160a01b0316021790555060608201518160030160006101000a8154816001600160a01b0302191690836001600160a01b0316021790555060808201518160040160006101000a8154816001600160a01b0302191690836001600160a01b0316021790555060a0820151816005015560c08201518160060160006101000a81548160ff021916908360ff16021790555060e08201518160060160016101000a81548160ff021916908360ff160217905550610100820151816007019081611fc39190614c08565b5050506001600160a01b03821660009081526009602052604090819020829055517fe6f52bbfc9201025b3af0483a2cb6b38980deee467b4cea0217319cae691d3a39061202190849084908f908f908f908f908e908e908e90614cc8565b60405180910390a19a9950505050505050505050565b61204033611573565b6120975760405162461bcd60e51b815260206004820152602260248201527f41636365737369626c653a2043616c6c6572206973206e6f7420616e2061646d60448201526134b760f11b606482015260840161098d565b6001600160a01b0381166120ed5760405162461bcd60e51b815260206004820152601860248201527f41636365737369626c653a207a65726f20616464726573730000000000000000604482015260640161098d565b6001600160a01b03811633036121455760405162461bcd60e51b815260206004820152601660248201527f41636365737369626c653a2073616d652061646d696e00000000000000000000604482015260640161098d565b61216f7fdf8b4c520ffe197c5343c6f5aec59570151ef9a492f2c624fd45ddde6135ec42826115b3565b6109c07fdf8b4c520ffe197c5343c6f5aec59570151ef9a492f2c624fd45ddde6135ec42336115dd565b6121a233611573565b6121f95760405162461bcd60e51b815260206004820152602260248201527f41636365737369626c653a2043616c6c6572206973206e6f7420616e2061646d60448201526134b760f11b606482015260840161098d565b81511580159061220a575080518251145b6122565760405162461bcd60e51b815260206004820152600c60248201527f77726f6e67206c656e6774680000000000000000000000000000000000000000604482015260640161098d565b815160005b8181101561240257600460ff1684828151811061227a5761227a614d3a565b602002602001015160ff16106122d25760405162461bcd60e51b815260206004820152601660248201527f756e737570706f7274656420746f6b656e207479706500000000000000000000604482015260640161098d565b8281815181106122e4576122e4614d3a565b60200260200101516001600160a01b03166007600086848151811061230b5761230b614d3a565b60209081029190910181015160ff168252810191909152604001600020546001600160a01b03160361237f5760405162461bcd60e51b815260206004820152600c60248201527f73616d6520616464726573730000000000000000000000000000000000000000604482015260640161098d565b82818151811061239157612391614d3a565b6020026020010151600760008684815181106123af576123af614d3a565b602002602001015160ff1660ff16815260200190815260200160002060006101000a8154816001600160a01b0302191690836001600160a01b0316021790555080806123fa90614ba1565b91505061225b565b50505050565b61241133611573565b6124685760405162461bcd60e51b815260206004820152602260248201527f41636365737369626c653a2043616c6c6572206973206e6f7420616e2061646d60448201526134b760f11b606482015260840161098d565b6040805160608101825260ff9485168152928416602080850191825291840192835260008052600b90915291517fdf7de25b7f1fd6d0b5205f0e18f1f35bd7b8d84cce336588d184533ce43a6f768054935185166101000261ffff19909416919094161791909117909155517fdf7de25b7f1fd6d0b5205f0e18f1f35bd7b8d84cce336588d184533ce43a6f7755565b6040805160208101909152600080825282515161012081015161010090910151919283929091612527916143dc565b15806125365750602084015151155b8061254d5750836040015160200151602001516000145b806125645750836060015160200151602001516000145b806125755750608084015160200151155b80612586575060a084015160200151155b156125aa5750604080518082019091526002815261453160f01b6020820152612e38565b602080850151015115806125c45750602084015160400151155b806125d55750602084015160600151155b806125ec575060208401516080015163ffffffff16155b806126015750602084015160a0015161ffff16155b156126255750604080518082019091526002815261229960f11b6020820152612e38565b604084015151516001600160a01b031615806126515750604084015151602001516001600160a01b0316155b80612667575060408085015151015162ffffff16155b8061267b5750604080850151602001510151155b80612690575060408401516020015160600151155b806126ab57506040840151602001516080015163ffffffff16155b806126c6575060408401516020015160a0015163ffffffff16155b806126e1575060408401516020015160c0015163ffffffff16155b156127055750604080518082019091526002815261453360f01b6020820152612e38565b606084015151516001600160a01b031615806127315750606084015151602001516001600160a01b0316155b8061274857506060840151516040015162ffffff16155b8061275d575060608401516020015160400151155b806127715750606080850151602001510151155b8061278c57506060840151602001516080015163ffffffff16155b806127a7575060608401516020015160a0015163ffffffff16155b806127c2575060608401516020015160c0015163ffffffff16155b156127e65750604080518082019091526002815261114d60f21b6020820152612e38565b60808401516040015115806128015750608084015160600151155b806128175750608080850151015163ffffffff16155b8061282e5750608084015160a0015163ffffffff16155b806128455750608084015160c0015163ffffffff16155b156128695750604080518082019091526002815261453560f01b6020820152612e38565b60a0840151604001511580612884575060a084015160600151155b8061289b575060a08401516080015163ffffffff16155b806128b1575060a080850151015163ffffffff16155b806128c8575060a084015160c0015163ffffffff16155b156128ec5750604080518082019091526002815261229b60f11b6020820152612e38565b604084015160200151608081015160a09091015163ffffffff918216911610806129315750606084015160200151608081015160a09091015163ffffffff9182169116105b80612957575083608001516080015163ffffffff16846080015160a0015163ffffffff16105b8061297d57508360a001516080015163ffffffff168460a0015160a0015163ffffffff16105b156129a15750604080518082019091526002815261453760f01b6020820152612e38565b8351515115806129b5575083515160200151155b806129c4575083515160400151155b806129d3575083515160600151155b806129e2575083515160800151155b806129f1575083515160a00151155b80612a00575083515160c00151155b80612a0f575083515160e00151155b80612a1f57508351516101000151155b80612a2f57508351516101200151155b80612a3f57508351516101400151155b80612a4f57508351516101600151155b80612a5f57508351516101a00151155b80612a6f57508351516101c00151155b80612a7f57508351516101e00151155b80612a8f57508351516102000151155b80612a9f57508351516102200151155b80612aaf57508351516102400151155b80612abf57508351516102600151155b80612acf57508351516102800151155b80612ade575083516020015151155b80612af0575083516020908101510151155b80612b02575083516020015160400151155b80612b14575083516020015160600151155b80612b26575083516020015160800151155b80612b38575083516040015160200151155b80612b4a575083516040908101510151155b80612b5c575083516040015160600151155b80612b6e575083516040015160800151155b80612b80575083516040015160a00151155b80612b97575083516040015160c0015162ffffff16155b15612bbb575060408051808201909152600281526108a760f31b6020820152612e38565b83515160e081015160c082015160a083015160809093015191929091612be191906143dc565b612beb91906143dc565b612bf591906143dc565b61271014612c1c5750604080518082019091526002815261453960f01b6020820152612e38565b835151610140810151610160820151610180909201519091612c3d91614d50565b612c479190614d67565b84515161012081015161010090910151612c6191906143dc565b1015612c87575060408051808201909152600381526204531360ec1b6020820152612e38565b8351516101c08101516101e0909101511080612cb057508351516101e081015161020090910151105b80612cc8575083515161020081015161022090910151105b80612ce0575083515161022081015161026090910151105b80612cf8575083515161026081015161028090910151105b80612d13575083518051610280015160209091015160400151105b80612d2c57508351602001516040810151606090910151105b15612d51575060408051808201909152600381526245313160e81b6020820152612e38565b83516040015160608101516080909101511015612d88575060408051808201909152600381526222989960e91b6020820152612e38565b60a084015160209081015160808601518201516060870151830151830151604088015184015184015193880151518851516101208101516101009091015194959394929392612dd791906143dc565b612de191906143dc565b612deb91906143dc565b612df591906143dc565b612dff91906143dc565b612e0991906143dc565b915081600003612e33575060408051808201909152600381526245313360e81b6020820152612e38565b600192505b9193909250565b600082815260046020526040902060010154612e5a8161330a565b6115d883836133b6565b60006060600080806000612e77896124f8565b92509250925082612e91576000955093506130c392505050565b6000612ea08a6000015161071d565b50905080612ed95760405162461bcd60e51b815260040161098d9060208082526004908201526346312d3160e01b604082015260600190565b612ee383866143dc565b94508851600014612fae5760008073541da88B395B05064A9B0d4Af189c4Fac5fe53616308d8b1ac8c6040518263ffffffff1660e01b8152600401612f289190614958565b6040805180830381865af4158015612f44573d6000803e3d6000fd5b505050506040513d601f19601f82011682018060405250810190612f689190614a41565b9092509050612f7781886143dc565b965081612fab57600060405180604001604052806002815260200161231960f11b81525098509850505050505050506130c3565b50505b8851156130755760008073541da88B395B05064A9B0d4Af189c4Fac5fe536163a95614d68b6040518263ffffffff1660e01b8152600401612fef9190614a6d565b6040805180830381865af415801561300b573d6000803e3d6000fd5b505050506040513d601f19601f8201168201806040525081019061302f9190614a41565b909250905061303e81886143dc565b96508161307257600060405180604001604052806002815260200161463360f01b81525098509850505050505050506130c3565b50505b848b146130a757600060405180604001604052806002815260200161118d60f21b8152509650965050505050506130c3565b6001604051806020016040528060008152509650965050505050505b94509492505050565b604051639da3176160e01b81526001600160a01b038816600482015260009073541da88B395B05064A9B0d4Af189c4Fac5fe536190639da3176190602401602060405180830381865af4158015613127573d6000803e3d6000fd5b505050506040513d601f19601f8201168201806040525081019061314b9190614429565b90506001600160a01b0381166131a35760405162461bcd60e51b815260206004820152601760248201527f6c31427269646765206973205a65726f41646472657373000000000000000000604482015260640161098d565b604051636eb1769f60e11b81523060048201526001600160a01b0382811660248301526000919089169063dd62ed3e90604401602060405180830381865afa1580156131f3573d6000803e3d6000fd5b505050506040513d601f19601f820116820180604052508101906132179190614af7565b9050848110156132975760405163095ea7b360e01b81526001600160a01b038381166004830152600019602483015289169063095ea7b3906044016020604051808303816000875af1158015613271573d6000803e3d6000fd5b505050506040513d601f19601f820116820180604052508101906132959190614d89565b505b60405163041c592960e51b81526001600160a01b0383169063838b2520906132cd908b908b908b908b908b908b90600401614da4565b600060405180830381600087803b1580156132e757600080fd5b505af11580156132fb573d6000803e3d6000fd5b50505050505050505050505050565b6109c08133613439565b60008281526004602090815260408083206001600160a01b038516845290915290205460ff166116655760008281526004602090815260408083206001600160a01b03851684529091529020805460ff191660011790556133723390565b6001600160a01b0316816001600160a01b0316837f2f8788117e7eff1d82e926ec794901d17c78024a50270940304540a733656f0d60405160405180910390a45050565b60008281526004602090815260408083206001600160a01b038516845290915290205460ff16156116655760008281526004602090815260408083206001600160a01b0385168085529252808320805460ff1916905551339285917ff6391f5c32d9c69d2a47ea670b442974b53935d1edc7fd64eb21e047a839171b9190a45050565b60008281526004602090815260408083206001600160a01b038516845290915290205460ff166116655761346c816134ae565b6134778360206134c0565b604051602001613488929190614df6565b60408051601f198184030181529082905262461bcd60e51b825261098d91600401614e77565b60606107176001600160a01b03831660145b606060006134cf836002614d50565b6134da9060026143dc565b67ffffffffffffffff8111156134f2576134f261369a565b6040519080825280601f01601f19166020018201604052801561351c576020820181803683370190505b509050600360fc1b8160008151811061353757613537614d3a565b60200101906001600160f81b031916908160001a905350600f60fb1b8160018151811061356657613566614d3a565b60200101906001600160f81b031916908160001a905350600061358a846002614d50565b6135959060016143dc565b90505b600181111561361a577f303132333435363738396162636465660000000000000000000000000000000085600f16601081106135d6576135d6614d3a565b1a60f81b8282815181106135ec576135ec614d3a565b60200101906001600160f81b031916908160001a90535060049490941c9361361381614e8a565b9050613598565b5083156136695760405162461bcd60e51b815260206004820181905260248201527f537472696e67733a20686578206c656e67746820696e73756666696369656e74604482015260640161098d565b9392505050565b60006020828403121561368257600080fd5b81356001600160e01b03198116811461366957600080fd5b634e487b7160e01b600052604160045260246000fd5b60405160e0810167ffffffffffffffff811182821017156136d3576136d361369a565b60405290565b6040516060810167ffffffffffffffff811182821017156136d3576136d361369a565b6040516102a0810167ffffffffffffffff811182821017156136d3576136d361369a565b6040805190810167ffffffffffffffff811182821017156136d3576136d361369a565b60405160c0810167ffffffffffffffff811182821017156136d3576136d361369a565b604051601f8201601f1916810167ffffffffffffffff8111828210171561378f5761378f61369a565b604052919050565b600060a082840312156137a957600080fd5b60405160a0810181811067ffffffffffffffff821117156137cc576137cc61369a565b806040525080915082358152602083013560208201526040830135604082015260608301356060820152608083013560808201525092915050565b6001600160a01b03811681146109c057600080fd5b803561382781613807565b919050565b803562ffffff8116811461382757600080fd5b600060e0828403121561385157600080fd5b6138596136b0565b9050813561386681613807565b808252506020820135602082015260408201356040820152606082013560608201526080820135608082015260a082013560a08201526138a860c0830161382c565b60c082015292915050565b60008183036104208112156138c757600080fd5b6138cf6136d9565b91506102a0808212156138e157600080fd5b6138e96136fc565b843581526020808601359082015260408086013590820152606080860135908201526080808601359082015260a0808601359082015260c0808601359082015260e08086013590820152610100808601359082015261012080860135908201526101408086013590820152610160808601359082015261018080860135908201526101a080860135908201526101c080860135908201526101e080860135908201526102008086013590820152610220808601359082015261024080860135908201526102608086013590820152610280808601359082015280845291506139d385828601613797565b602084015250506139e883610340840161383f565b604082015292915050565b60006104208284031215613a0657600080fd5b61366983836138b3565b60005b83811015613a2b578181015183820152602001613a13565b50506000910152565b60008151808452613a4c816020860160208601613a10565b601f01601f19169290920160200192915050565b8215158152604060208201526000613a7b6040830184613a34565b949350505050565b600060208284031215613a9557600080fd5b5035919050565b60006101206001600160a01b03808d168452808c166020850152808b166040850152808a1660608501528089166080850152508660a084015260ff861660c084015260ff851660e084015280610100840152613afa81840185613a34565b9c9b505050505050505050505050565b600060208284031215613b1c57600080fd5b813561366981613807565b803563ffffffff8116811461382757600080fd5b600060e08284031215613b4d57600080fd5b613b556136b0565b90508135613b6281613807565b80825250602082013560208201526040820135604082015260608201356060820152613b9060808301613b27565b6080820152613ba160a08301613b27565b60a08201526138a860c08301613b27565b6000818303610140811215613bc657600080fd5b613bce613720565b91506060811215613bde57600080fd5b50613be76136d9565b8235613bf281613807565b81526020830135613c0281613807565b6020820152613c136040840161382c565b60408201528152613c278360608401613b3b565b602082015292915050565b6000818303610920811215613c4657600080fd5b613c4e613743565b9150613c5a84846138b3565b825260c061041f1982011215613c6f57600080fd5b50613c78613743565b6104208301358152610440830135602082015261046083013560408201526104808301356060820152613cae6104a08401613b27565b60808201526104c083013561ffff81168114613cc957600080fd5b60a08201526020820152613ce1836104e08401613bb2565b6040820152613cf4836106208401613bb2565b6060820152613d07836107608401613b3b565b6080820152613d1a836108408401613b3b565b60a082015292915050565b600067ffffffffffffffff821115613d3f57613d3f61369a565b5060051b60200190565b600082601f830112613d5a57600080fd5b813567ffffffffffffffff811115613d7457613d7461369a565b613d87601f8201601f1916602001613766565b818152846020838601011115613d9c57600080fd5b816020850160208301376000918101602001919091529392505050565b600082601f830112613dca57600080fd5b81356020613ddf613dda83613d25565b613766565b82815260059290921b84018101918181019086841115613dfe57600080fd5b8286015b84811015613e8857803567ffffffffffffffff80821115613e235760008081fd5b90880190610100828b03601f19011215613e3d5760008081fd5b613e45613720565b8683013582811115613e575760008081fd5b613e658c8983870101613d49565b825250613e758b60408501613b3b565b8188015285525050918301918301613e02565b509695505050505050565b600082601f830112613ea457600080fd5b81356020613eb4613dda83613d25565b82815260059290921b84018101918181019086841115613ed357600080fd5b8286015b84811015613e8857803567ffffffffffffffff80821115613ef85760008081fd5b908801906060828b03601f1901811315613f125760008081fd5b613f1a6136d9565b8784013583811115613f2c5760008081fd5b613f3a8d8a83880101613d49565b8252506040925082840135613f4e81613807565b81890152920135908201528352918301918301613ed7565b6000806000806000806109c08789031215613f8057600080fd5b863595506020870135613f9281613807565b945060408701359350613fa88860608901613c32565b925061098087013567ffffffffffffffff80821115613fc657600080fd5b613fd28a838b01613db9565b93506109a0890135915080821115613fe957600080fd5b50613ff689828a01613e93565b9150509295509295509295565b803560ff8116811461382757600080fd5b60006020828403121561402657600080fd5b61366982614003565b6000806040838503121561404257600080fd5b82359150602083013561405481613807565b809150509250929050565b600080600080600060a0868803121561407757600080fd5b61408086614003565b9450602086013561409081613807565b935060408601356140a081613807565b92506140ae60608701613b27565b91506140bc60808701613b27565b90509295509295909350565b600080600080600080600080610100898b0312156140e557600080fd5b6140ee8961381c565b97506140fc60208a0161381c565b965061410a60408a0161381c565b95506060890135945061411f60808a01614003565b935060a089013567ffffffffffffffff8082111561413c57600080fd5b6141488c838d01613d49565b945060c08b013591508082111561415e57600080fd5b61416a8c838d01613d49565b935060e08b013591508082111561418057600080fd5b5061418d8b828c01613d49565b9150509295985092959890939650565b600082601f8301126141ae57600080fd5b813560206141be613dda83613d25565b82815260059290921b840181019181810190868411156141dd57600080fd5b8286015b84811015613e885780356141f481613807565b83529183019183016141e1565b6000806040838503121561421457600080fd5b823567ffffffffffffffff8082111561422c57600080fd5b818501915085601f83011261424057600080fd5b81356020614250613dda83613d25565b82815260059290921b8401810191818101908984111561426f57600080fd5b948201945b838610156142945761428586614003565b82529482019490820190614274565b965050860135925050808211156142aa57600080fd5b506142b78582860161419d565b9150509250929050565b6000806000606084860312156142d657600080fd5b6142df84614003565b92506142ed60208501614003565b9150604084013590509250925092565b6000610920828403121561431057600080fd5b6136698383613c32565b831515815282602082015260606040820152600061433b6060830184613a34565b95945050505050565b600080600080610980858703121561435b57600080fd5b8435935061436c8660208701613c32565b925061094085013567ffffffffffffffff8082111561438a57600080fd5b61439688838901613db9565b93506109608701359150808211156143ad57600080fd5b506143ba87828801613e93565b91505092959194509250565b634e487b7160e01b600052601160045260246000fd5b80820180821115610717576107176143c6565b600181811c9082168061440357607f821691505b60208210810361442357634e487b7160e01b600052602260045260246000fd5b50919050565b60006020828403121561443b57600080fd5b815161366981613807565b80516001600160a01b038082511684528060208301511660208501525062ffffff60408201511660408401525060208101516115d860608401826001600160a01b038151168252602081015160208301526040810151604083015260608101516060830152608081015163ffffffff80821660808501528060a08401511660a08501528060c08401511660c085015250505050565b600081518084526020808501808196508360051b8101915082860160005b8581101561459a5782840389528151610100815181875261451c82880182613a34565b915050868201519150614587878701836001600160a01b038151168252602081015160208301526040810151604083015260608101516060830152608081015163ffffffff80821660808501528060a08401511660a08501528060c08401511660c085015250505050565b99860199945050908401906001016144f9565b5091979650505050505050565b600081518084526020808501808196508360051b8101915082860160005b8581101561459a5782840389528151606081518187526145e782880182613a34565b838901516001600160a01b0316888a01526040938401519390970192909252505097840197908401906001016145c5565b60006109e06001600160a01b03808b168452808a166020850152508760408401528660608401528551805180516080860152602081015160a0860152604081015160c0860152606081015160e08601526080810151610100818188015260a08301519150610120828189015260c0840151925061014083818a015260e0850151935061016084818b0152838601519450610180935084848b01528286015194506101a0925084838b01528186015194506101c0915084828b0152808601519450506101e084818b0152838601519450610200935084848b0152828601519450610220925084838b0152818601519450610240915084828b01528086015194505061026084818b0152838601519450610280935084848b0152828601516102a08b0152818601516102c08b0152808601516102e08b015250505080830151610300880152505050602081015161479c61032086018280518252602081015160208301526040810151604083015260608101516060830152608081015160808301525050565b5060409081015180516001600160a01b03166103c08601526020808201516103e08701528183015161040087015260608083015161042088015260808084015161044089015260a0808501516104608a015260c09094015162ffffff166104808901528a83015180516104a08a0152928301516104c0890152828501516104e08901529082015161050088015281015163ffffffff16610520870152015161ffff16610540850152860151614855610560850182614446565b5060608601516148696106a0850182614446565b5060808681015180516001600160a01b039081166107e08701526020808301516108008801526040808401516108208901526060808501516108408a01528486015163ffffffff9081166108608b015260a08087015182166108808c015260c09687015182166108a08c0152808e015180519096166108c08c0152938501516108e08b0152918401516109008a015283015161092089015293820151841661094088015281015183166109608701520151166109808401526109a08301819052614935818401866144db565b90508281036109c084015261494a81856145a7565b9a9950505050505050505050565b6000602080830181845280855180835260408601915060408160051b870101925083870160005b82811015614a2457603f19888603018452815161010081518188526149a682890182613a34565b915050878201519150614a11888801836001600160a01b038151168252602081015160208301526040810151604083015260608101516060830152608081015163ffffffff80821660808501528060a08401511660a08501528060c08401511660c085015250505050565b955050928501929085019060010161497f565b5092979650505050505050565b8051801515811461382757600080fd5b60008060408385031215614a5457600080fd5b614a5d83614a31565b9150602083015190509250929050565b60006020808301818452808551808352604092508286019150828160051b87010184880160005b83811015614ae957603f19898403018552815160608151818652614aba82870182613a34565b838b01516001600160a01b0316878c015292890151958901959095525094870194925090860190600101614a94565b509098975050505050505050565b600060208284031215614b0957600080fd5b5051919050565b81810381811115610717576107176143c6565b6001600160a01b0384168152606060208201526000614b456060830185613a34565b905063ffffffff83166040830152949350505050565b608081526000614b6e6080830187613a34565b8281036020840152614b808187613a34565b9150508360408301526001600160a01b038316606083015295945050505050565b600060018201614bb357614bb36143c6565b5060010190565b601f8211156115d857600081815260208120601f850160051c81016020861015614be15750805b601f850160051c820191505b81811015614c0057828155600101614bed565b505050505050565b815167ffffffffffffffff811115614c2257614c2261369a565b614c3681614c3084546143ef565b84614bba565b602080601f831160018114614c6b5760008415614c535750858301515b600019600386901b1c1916600185901b178555614c00565b600085815260208120601f198616915b82811015614c9a57888601518255948401946001909101908401614c7b565b5085821015614cb85787850151600019600388901b60f8161c191681555b5050505050600190811b01905550565b60006101206001600160a01b03808d1684528b6020850152808b166040850152808a1660608501528089166080850152508660a08401528060c0840152614d1181840187613a34565b905082810360e0840152614d258186613a34565b9050828103610100840152613afa8185613a34565b634e487b7160e01b600052603260045260246000fd5b8082028115828204841417610717576107176143c6565b600082614d8457634e487b7160e01b600052601260045260246000fd5b500490565b600060208284031215614d9b57600080fd5b61366982614a31565b60006001600160a01b038089168352808816602084015280871660408401525084606083015263ffffffff8416608083015260c060a0830152614dea60c0830184613a34565b98975050505050505050565b7f416363657373436f6e74726f6c3a206163636f756e7420000000000000000000815260008351614e2e816017850160208801613a10565b7f206973206d697373696e6720726f6c65200000000000000000000000000000006017918401918201528351614e6b816028840160208801613a10565b01602801949350505050565b6020815260006136696020830184613a34565b600081614e9957614e996143c6565b50600019019056fea164736f6c6343000812000a",
  "deployedBytecode": "0x608060405234801561001057600080fd5b50600436106101f05760003560e01c8063704802751161010f578063a217fddf116100a2578063b911135f11610071578063b911135f14610675578063c7163a221461069e578063d547741f146106c0578063eeff1eb2146106d357600080fd5b8063a217fddf14610550578063a902c63a14610558578063b4a35e0f1461056b578063b851550c1461059457600080fd5b8063846fa8f8116100de578063846fa8f814610460578063902293ab1461047357806391d14854146104f75780639cba98481461053057600080fd5b8063704802751461040057806374918e841461041357806375829def1461042657806375b238fc1461043957600080fd5b806324d7806c1161018757806350d2a2761161015657806350d2a2761461037c578063550d01a3146103bd57806363a8fd89146103e057806368f52eb3146103ed57600080fd5b806324d7806c1461033a5780632f2ff15d1461034d57806336568abe1461036057806336fbad261461037357600080fd5b806320a32b63116101c357806320a32b631461027b578063229852461461028e578063248a9ca3146102c357806324d3e647146102e657600080fd5b806301ffc9a7146101f55780630e8a82051461021d578063107046bd1461023e5780631785f53c14610266575b600080fd5b610208610203366004613670565b6106e6565b60405190151581526020015b60405180910390f35b61023061022b3660046139f3565b61071d565b604051610214929190613a60565b61025161024c366004613a83565b610843565b60405161021499989796959493929190613a9c565b610279610274366004613b0a565b610931565b005b610279610289366004613f66565b6109c3565b6102b57ffb5864e8ff833c3cb2d2d08505e82ff02a43554c74a35d4f5a64e8526127831181565b604051908152602001610214565b6102b56102d1366004613a83565b60009081526004602052604090206001015490565b61031a6102f4366004614014565b600b602052600090815260409020805460019091015460ff808316926101009004169083565b6040805160ff948516815293909216602084015290820152606001610214565b610208610348366004613b0a565b611573565b61027961035b36600461402f565b6115b3565b61027961036e36600461402f565b6115dd565b6102b560065481565b6103a561038a366004613670565b6003602052600090815260409020546001600160a01b031681565b6040516001600160a01b039091168152602001610214565b6102086103cb366004613b0a565b60026020526000908152604090205460ff1681565b6000546102089060ff1681565b6102796103fb36600461405f565b611669565b61027961040e366004613b0a565b611a77565b6102b56104213660046140c8565b611b01565b610279610434366004613b0a565b612037565b6102b57fdf8b4c520ffe197c5343c6f5aec59570151ef9a492f2c624fd45ddde6135ec4281565b61027961046e366004614201565b612199565b6104c0610481366004614014565b600a60205260009081526040902080546001909101546001600160a01b039182169181169063ffffffff600160a01b8204811691600160c01b90041684565b604080516001600160a01b03958616815294909316602085015263ffffffff91821692840192909252166060820152608001610214565b61020861050536600461402f565b60009182526004602090815260408084206001600160a01b0393909316845291905290205460ff1690565b6102b561053e366004613b0a565b60096020526000908152604090205481565b6102b5600081565b6102796105663660046142c1565b612408565b6103a5610579366004614014565b6007602052600090815260409020546001600160a01b031681565b61062a6105a2366004614014565b6040805160808101825260008082526020820181905291810182905260608101919091525060ff166000908152600a6020908152604091829020825160808101845281546001600160a01b0390811682526001909201549182169281019290925263ffffffff600160a01b8204811693830193909352600160c01b9004909116606082015290565b6040805182516001600160a01b039081168252602080850151909116908201528282015163ffffffff9081169282019290925260609283015190911691810191909152608001610214565b6103a5610683366004613a83565b6001602052600090815260409020546001600160a01b031681565b6106b16106ac3660046142fd565b6124f8565b6040516102149392919061431a565b6102796106ce36600461402f565b612e3f565b6102306106e1366004614344565b612e64565b60006001600160e01b03198216637965db0b60e01b148061071757506301ffc9a760e01b6001600160e01b03198316145b92915050565b6000808052600b602090815260408051606081810183527fdf7de25b7f1fd6d0b5205f0e18f1f35bd7b8d84cce336588d184533ce43a6f765460ff81811680855261010090920416948301949094527fdf7de25b7f1fd6d0b5205f0e18f1f35bd7b8d84cce336588d184533ce43a6f77549282019290925284516101a001519192909110806107b8575083516101a00151602082015160ff16105b156107e457600060405180604001604052806002815260200161463160f01b8152509250925050915091565b83516101c0015160408201516107fa90426143dc565b111561082757600060405180604001604052806002815260200161463160f01b8152509250925050915091565b6001604051806020016040528060008152509250925050915091565b600860205260009081526040902080546001820154600283015460038401546004850154600586015460068701546007880180546001600160a01b039889169997891698968716979587169690941694929360ff80841694610100909404169291906108ae906143ef565b80601f01602080910402602001604051908101604052809291908181526020018280546108da906143ef565b80156109275780601f106108fc57610100808354040283529160200191610927565b820191906000526020600020905b81548152906001019060200180831161090a57829003601f168201915b5050505050905089565b61093a33611573565b6109965760405162461bcd60e51b815260206004820152602260248201527f41636365737369626c653a2043616c6c6572206973206e6f7420616e2061646d60448201526134b760f11b60648201526084015b60405180910390fd5b6109c07fdf8b4c520ffe197c5343c6f5aec59570151ef9a492f2c624fd45ddde6135ec42826115dd565b50565b846001600160a01b0381166109ff5760405162461bcd60e51b81526020600482015260026024820152612d1960f11b604482015260640161098d565b8480600003610a355760405162461bcd60e51b81526020600482015260026024820152615a3160f01b604482015260640161098d565b600088815260086020908152604080832081516101208101835281546001600160a01b0390811682526001830154811694820194909452600282015484169281019290925260038101548316606083015260048101549092166080820152600582015460a0820152600682015460ff80821660c0840152610100918290041660e083015260078301805492939291840191610acf906143ef565b80601f0160208091040260200160405190810160405280929190818152602001828054610afb906143ef565b8015610b485780601f10610b1d57610100808354040283529160200191610b48565b820191906000526020600020905b815481529060010190602001808311610b2b57829003601f168201915b5050509190925250508151919250506001600160a01b031615801590610b77575080516001600160a01b031633145b610bc35760405162461bcd60e51b815260206004820152601b60248201527f63616c6c6572206973206e6f742070726f6a6563744f776e65722e0000000000604482015260640161098d565b60608101516001600160a01b031615610c1e5760405162461bcd60e51b815260206004820152601060248201527f616c7265616479206c61756e6368656400000000000000000000000000000000604482015260640161098d565b6040808201516001600160a01b03166000908152600960205220548914610c875760405162461bcd60e51b815260206004820152600d60248201527f77726f6e67206c31546f6b656e00000000000000000000000000000000000000604482015260640161098d565b608081015160405163507c8bd160e01b81526001600160a01b03909116600482015260009073__$b2d160aea0e65d5e83164dd2e3c22b89ec$__9063507c8bd190602401602060405180830381865af4158015610ce8573d6000803e3d6000fd5b505050506040513d601f19601f82011682018060405250810190610d0c9190614429565b90506001600160a01b038116610d645760405162461bcd60e51b815260206004820152601a60248201527f6c314d657373656e676572206973205a65726f41646472657373000000000000604482015260640161098d565b600063589b8ec960e01b83604001518b8d8c8c8c8c604051602401610d8f9796959493929190614618565b60408051601f198184030181529190526020810180517bffffffffffffffffffffffffffffffffffffffffffffffffffffffff166001600160e01b031990931692909217909152905060008080610de58b6124f8565b509150915081610e375760405162461bcd60e51b815260206004820152601b60248201527f546f6b616d616b5661756c7473207661696c64617465206661696c0000000000604482015260640161098d565b6000610e468c6000015161071d565b50905080610e965760405162461bcd60e51b815260206004820152601960248201527f5075626c69635661756c74207661696c64617465206661696c00000000000000604482015260640161098d565b610ea082856143dc565b93508a51600014610f905760008073__$b2d160aea0e65d5e83164dd2e3c22b89ec$__6308d8b1ac8e6040518263ffffffff1660e01b8152600401610ee59190614958565b6040805180830381865af4158015610f01573d6000803e3d6000fd5b505050506040513d601f19601f82011682018060405250810190610f259190614a41565b9150915081610f815760405162461bcd60e51b815260206004820152602260248201527f637573746f6d5363686564756c655661756c7473207661696c646174652066616044820152611a5b60f21b606482015260840161098d565b610f8b81876143dc565b955050505b89511561107f5760008073__$b2d160aea0e65d5e83164dd2e3c22b89ec$__63a95614d68d6040518263ffffffff1660e01b8152600401610fd19190614a6d565b6040805180830381865af4158015610fed573d6000803e3d6000fd5b505050506040513d601f19601f820116820180604052508101906110119190614a41565b91509150816110705760405162461bcd60e51b815260206004820152602560248201527f637573746f6d4e6f6e5363686564756c655661756c7473207661696c646174656044820152640819985a5b60da1b606482015260840161098d565b61107a81876143dc565b955050505b8c84146110f45760405162461bcd60e51b815260206004820152603560248201527f746f74616c416d6f756e7420697320646966666572656e742066726f6d20766160448201527f756c747320616c6c6f636174656420616d6f756e740000000000000000000000606482015260840161098d565b60008f90508e6008600083815260200190815260200160002060030160006101000a8154816001600160a01b0302191690836001600160a01b031602179055508e88606001906001600160a01b031690816001600160a01b03168152505060006008600083815260200190815260200160002060020160009054906101000a90046001600160a01b03166001600160a01b03166370a08231306040518263ffffffff1660e01b81526004016111b891906001600160a01b0391909116815260200190565b602060405180830381865afa1580156111d5573d6000803e3d6000fd5b505050506040513d601f19601f820116820180604052508101906111f99190614af7565b90508860a001518111158015611215575060c089015160ff1615155b1561131b5788604001516001600160a01b03166340c10f1930838c60a0015161123e9190614b10565b6040516001600160e01b031960e085901b1681526001600160a01b0390921660048301526024820152604401600060405180830381600087803b15801561128457600080fd5b505af1158015611298573d6000803e3d6000fd5b505050600083815260086020526040908190206002015490516370a0823160e01b81523060048201526001600160a01b0390911691506370a0823190602401602060405180830381865afa1580156112f4573d6000803e3d6000fd5b505050506040513d601f19601f820116820180604052508101906113189190614af7565b90505b8860a0015181101561136f5760405162461bcd60e51b815260206004820152601760248201527f62616c616e636520697320696e73756666696369656e74000000000000000000604482015260640161098d565b6000600a60008b60e0015160ff1660ff1681526020019081526020016000206040518060800160405290816000820160009054906101000a90046001600160a01b03166001600160a01b03166001600160a01b031681526020016001820160009054906101000a90046001600160a01b03166001600160a01b03166001600160a01b031681526020016001820160149054906101000a900463ffffffff1663ffffffff1663ffffffff1681526020016001820160189054906101000a900463ffffffff1663ffffffff1663ffffffff1681525050905061148d8a608001518b604001518c6060015184602001518e60a0015186604001518960405160200161147991815260200190565b6040516020818303038152906040526130cc565b60208101516060820151604051633dbb202b60e01b81526001600160a01b038c1692633dbb202b926114c4928d9190600401614b23565b600060405180830381600087803b1580156114de57600080fd5b505af11580156114f2573d6000803e3d6000fd5b505050507f79fdfe585876a2a3eed99468134317d55495d4fd731029da495b24da1266fa70838b604001518c606001518d60a0015160405161155794939291909384526001600160a01b03928316602085015291166040830152606082015260800190565b60405180910390a1505050505050505050505050505050505050565b6001600160a01b03811660009081527f2fb794d17134dfdec181ddbac1babb5ab1eb140204ef4d982f294e7fc8b69022602052604081205460ff16610717565b6000828152600460205260409020600101546115ce8161330a565b6115d88383613314565b505050565b6001600160a01b038116331461165b5760405162461bcd60e51b815260206004820152602f60248201527f416363657373436f6e74726f6c3a2063616e206f6e6c792072656e6f756e636560448201527f20726f6c657320666f722073656c660000000000000000000000000000000000606482015260840161098d565b61166582826133b6565b5050565b836001600160a01b0381166116a55760405162461bcd60e51b81526020600482015260026024820152612d1960f11b604482015260640161098d565b836001600160a01b0381166116e15760405162461bcd60e51b81526020600482015260026024820152612d1960f11b604482015260640161098d565b8363ffffffff168060000361171d5760405162461bcd60e51b81526020600482015260026024820152615a3160f01b604482015260640161098d565b8363ffffffff16806000036117595760405162461bcd60e51b81526020600482015260026024820152615a3160f01b604482015260640161098d565b61176233611573565b6117b95760405162461bcd60e51b815260206004820152602260248201527f41636365737369626c653a2043616c6c6572206973206e6f7420616e2061646d60448201526134b760f11b606482015260840161098d565b600260ff8a161061180c5760405162461bcd60e51b815260206004820152601260248201527f756e737570706f72746564206c32547970650000000000000000000000000000604482015260640161098d565b60ff89166000908152600a60205260409020546001600160a01b03898116911614158061185a575060ff89166000908152600a60205260409020600101546001600160a01b03888116911614155b8061188a575060ff89166000908152600a602052604090206001015463ffffffff878116600160a01b9092041614155b806118ba575060ff89166000908152600a602052604090206001015463ffffffff868116600160c01b9092041614155b6118ef5760405162461bcd60e51b815260040161098d9060208082526004908201526373616d6560e01b604082015260600190565b600060405180608001604052808a6001600160a01b03168152602001896001600160a01b031681526020018863ffffffff1681526020018763ffffffff16815250905080600a60008c60ff1660ff16815260200190815260200160002060008201518160000160006101000a8154816001600160a01b0302191690836001600160a01b0316021790555060208201518160010160006101000a8154816001600160a01b0302191690836001600160a01b0316021790555060408201518160010160146101000a81548163ffffffff021916908363ffffffff16021790555060608201518160010160186101000a81548163ffffffff021916908363ffffffff1602179055509050507f5e8ef59fdf78b3376941ed3157b8c3d49139b1f4c1857bf531766c1c1e3a97c98a8a8a8a8a604051611a6395949392919060ff9590951685526001600160a01b03938416602086015291909216604084015263ffffffff918216606084015216608082015260a00190565b60405180910390a150505050505050505050565b611a8033611573565b611ad75760405162461bcd60e51b815260206004820152602260248201527f41636365737369626c653a2043616c6c6572206973206e6f7420616e2061646d60448201526134b760f11b606482015260840161098d565b6109c07fdf8b4c520ffe197c5343c6f5aec59570151ef9a492f2c624fd45ddde6135ec42826115b3565b60006001600160a01b03891615801590611b2357506001600160a01b03881615155b8015611b3757506001600160a01b03871615155b611b835760405162461bcd60e51b815260206004820152600c60248201527f7a65726f20616464726573730000000000000000000000000000000000000000604482015260640161098d565b8351600003611bd45760405162461bcd60e51b815260206004820152601360248201527f70726f6a6563744e616d65206973206e756c6c00000000000000000000000000604482015260640161098d565b8251600003611c255760405162461bcd60e51b815260206004820152601160248201527f746f6b656e4e616d65206973206e756c6c000000000000000000000000000000604482015260640161098d565b8151600003611c765760405162461bcd60e51b815260206004820152601360248201527f746f6b656e53796d626f6c206973206e756c6c00000000000000000000000000604482015260640161098d565b600460ff8616108015611ca3575060ff85166000908152600760205260409020546001600160a01b031615155b611cfe5760405162461bcd60e51b815260206004820152602660248201527f77726f6e6720746f6b656e54797065206f72207a65726f206c31546f6b656e466044820152656163746f727960d01b606482015260840161098d565b60ff8516600090815260076020526040808220549051634692ed6760e01b81526001600160a01b0390911690634692ed6790611d4490879087908c903090600401614b5b565b6020604051808303816000875af1158015611d63573d6000803e3d6000fd5b505050506040513d601f19601f82011682018060405250810190611d879190614429565b90506001600160a01b038116611ddf5760405162461bcd60e51b815260206004820152601160248201527f7a65726f2070726f6a656374546f6b656e000000000000000000000000000000604482015260640161098d565b6000600660008154611df090614ba1565b91905081905590506040518061012001604052808b6001600160a01b031681526020018c6001600160a01b03168152602001836001600160a01b0316815260200160006001600160a01b031681526020018a6001600160a01b031681526020018981526020018860ff168152602001600060ff168152602001878152506008600083815260200190815260200160002060008201518160000160006101000a8154816001600160a01b0302191690836001600160a01b0316021790555060208201518160010160006101000a8154816001600160a01b0302191690836001600160a01b0316021790555060408201518160020160006101000a8154816001600160a01b0302191690836001600160a01b0316021790555060608201518160030160006101000a8154816001600160a01b0302191690836001600160a01b0316021790555060808201518160040160006101000a8154816001600160a01b0302191690836001600160a01b0316021790555060a0820151816005015560c08201518160060160006101000a81548160ff021916908360ff16021790555060e08201518160060160016101000a81548160ff021916908360ff160217905550610100820151816007019081611fc39190614c08565b5050506001600160a01b03821660009081526009602052604090819020829055517fe6f52bbfc9201025b3af0483a2cb6b38980deee467b4cea0217319cae691d3a39061202190849084908f908f908f908f908e908e908e90614cc8565b60405180910390a19a9950505050505050505050565b61204033611573565b6120975760405162461bcd60e51b815260206004820152602260248201527f41636365737369626c653a2043616c6c6572206973206e6f7420616e2061646d60448201526134b760f11b606482015260840161098d565b6001600160a01b0381166120ed5760405162461bcd60e51b815260206004820152601860248201527f41636365737369626c653a207a65726f20616464726573730000000000000000604482015260640161098d565b6001600160a01b03811633036121455760405162461bcd60e51b815260206004820152601660248201527f41636365737369626c653a2073616d652061646d696e00000000000000000000604482015260640161098d565b61216f7fdf8b4c520ffe197c5343c6f5aec59570151ef9a492f2c624fd45ddde6135ec42826115b3565b6109c07fdf8b4c520ffe197c5343c6f5aec59570151ef9a492f2c624fd45ddde6135ec42336115dd565b6121a233611573565b6121f95760405162461bcd60e51b815260206004820152602260248201527f41636365737369626c653a2043616c6c6572206973206e6f7420616e2061646d60448201526134b760f11b606482015260840161098d565b81511580159061220a575080518251145b6122565760405162461bcd60e51b815260206004820152600c60248201527f77726f6e67206c656e6774680000000000000000000000000000000000000000604482015260640161098d565b815160005b8181101561240257600460ff1684828151811061227a5761227a614d3a565b602002602001015160ff16106122d25760405162461bcd60e51b815260206004820152601660248201527f756e737570706f7274656420746f6b656e207479706500000000000000000000604482015260640161098d565b8281815181106122e4576122e4614d3a565b60200260200101516001600160a01b03166007600086848151811061230b5761230b614d3a565b60209081029190910181015160ff168252810191909152604001600020546001600160a01b03160361237f5760405162461bcd60e51b815260206004820152600c60248201527f73616d6520616464726573730000000000000000000000000000000000000000604482015260640161098d565b82818151811061239157612391614d3a565b6020026020010151600760008684815181106123af576123af614d3a565b602002602001015160ff1660ff16815260200190815260200160002060006101000a8154816001600160a01b0302191690836001600160a01b0316021790555080806123fa90614ba1565b91505061225b565b50505050565b61241133611573565b6124685760405162461bcd60e51b815260206004820152602260248201527f41636365737369626c653a2043616c6c6572206973206e6f7420616e2061646d60448201526134b760f11b606482015260840161098d565b6040805160608101825260ff9485168152928416602080850191825291840192835260008052600b90915291517fdf7de25b7f1fd6d0b5205f0e18f1f35bd7b8d84cce336588d184533ce43a6f768054935185166101000261ffff19909416919094161791909117909155517fdf7de25b7f1fd6d0b5205f0e18f1f35bd7b8d84cce336588d184533ce43a6f7755565b6040805160208101909152600080825282515161012081015161010090910151919283929091612527916143dc565b15806125365750602084015151155b8061254d5750836040015160200151602001516000145b806125645750836060015160200151602001516000145b806125755750608084015160200151155b80612586575060a084015160200151155b156125aa5750604080518082019091526002815261453160f01b6020820152612e38565b602080850151015115806125c45750602084015160400151155b806125d55750602084015160600151155b806125ec575060208401516080015163ffffffff16155b806126015750602084015160a0015161ffff16155b156126255750604080518082019091526002815261229960f11b6020820152612e38565b604084015151516001600160a01b031615806126515750604084015151602001516001600160a01b0316155b80612667575060408085015151015162ffffff16155b8061267b5750604080850151602001510151155b80612690575060408401516020015160600151155b806126ab57506040840151602001516080015163ffffffff16155b806126c6575060408401516020015160a0015163ffffffff16155b806126e1575060408401516020015160c0015163ffffffff16155b156127055750604080518082019091526002815261453360f01b6020820152612e38565b606084015151516001600160a01b031615806127315750606084015151602001516001600160a01b0316155b8061274857506060840151516040015162ffffff16155b8061275d575060608401516020015160400151155b806127715750606080850151602001510151155b8061278c57506060840151602001516080015163ffffffff16155b806127a7575060608401516020015160a0015163ffffffff16155b806127c2575060608401516020015160c0015163ffffffff16155b156127e65750604080518082019091526002815261114d60f21b6020820152612e38565b60808401516040015115806128015750608084015160600151155b806128175750608080850151015163ffffffff16155b8061282e5750608084015160a0015163ffffffff16155b806128455750608084015160c0015163ffffffff16155b156128695750604080518082019091526002815261453560f01b6020820152612e38565b60a0840151604001511580612884575060a084015160600151155b8061289b575060a08401516080015163ffffffff16155b806128b1575060a080850151015163ffffffff16155b806128c8575060a084015160c0015163ffffffff16155b156128ec5750604080518082019091526002815261229b60f11b6020820152612e38565b604084015160200151608081015160a09091015163ffffffff918216911610806129315750606084015160200151608081015160a09091015163ffffffff9182169116105b80612957575083608001516080015163ffffffff16846080015160a0015163ffffffff16105b8061297d57508360a001516080015163ffffffff168460a0015160a0015163ffffffff16105b156129a15750604080518082019091526002815261453760f01b6020820152612e38565b8351515115806129b5575083515160200151155b806129c4575083515160400151155b806129d3575083515160600151155b806129e2575083515160800151155b806129f1575083515160a00151155b80612a00575083515160c00151155b80612a0f575083515160e00151155b80612a1f57508351516101000151155b80612a2f57508351516101200151155b80612a3f57508351516101400151155b80612a4f57508351516101600151155b80612a5f57508351516101a00151155b80612a6f57508351516101c00151155b80612a7f57508351516101e00151155b80612a8f57508351516102000151155b80612a9f57508351516102200151155b80612aaf57508351516102400151155b80612abf57508351516102600151155b80612acf57508351516102800151155b80612ade575083516020015151155b80612af0575083516020908101510151155b80612b02575083516020015160400151155b80612b14575083516020015160600151155b80612b26575083516020015160800151155b80612b38575083516040015160200151155b80612b4a575083516040908101510151155b80612b5c575083516040015160600151155b80612b6e575083516040015160800151155b80612b80575083516040015160a00151155b80612b97575083516040015160c0015162ffffff16155b15612bbb575060408051808201909152600281526108a760f31b6020820152612e38565b83515160e081015160c082015160a083015160809093015191929091612be191906143dc565b612beb91906143dc565b612bf591906143dc565b61271014612c1c5750604080518082019091526002815261453960f01b6020820152612e38565b835151610140810151610160820151610180909201519091612c3d91614d50565b612c479190614d67565b84515161012081015161010090910151612c6191906143dc565b1015612c87575060408051808201909152600381526204531360ec1b6020820152612e38565b8351516101c08101516101e0909101511080612cb057508351516101e081015161020090910151105b80612cc8575083515161020081015161022090910151105b80612ce0575083515161022081015161026090910151105b80612cf8575083515161026081015161028090910151105b80612d13575083518051610280015160209091015160400151105b80612d2c57508351602001516040810151606090910151105b15612d51575060408051808201909152600381526245313160e81b6020820152612e38565b83516040015160608101516080909101511015612d88575060408051808201909152600381526222989960e91b6020820152612e38565b60a084015160209081015160808601518201516060870151830151830151604088015184015184015193880151518851516101208101516101009091015194959394929392612dd791906143dc565b612de191906143dc565b612deb91906143dc565b612df591906143dc565b612dff91906143dc565b612e0991906143dc565b915081600003612e33575060408051808201909152600381526245313360e81b6020820152612e38565b600192505b9193909250565b600082815260046020526040902060010154612e5a8161330a565b6115d883836133b6565b60006060600080806000612e77896124f8565b92509250925082612e91576000955093506130c392505050565b6000612ea08a6000015161071d565b50905080612ed95760405162461bcd60e51b815260040161098d9060208082526004908201526346312d3160e01b604082015260600190565b612ee383866143dc565b94508851600014612fae5760008073__$b2d160aea0e65d5e83164dd2e3c22b89ec$__6308d8b1ac8c6040518263ffffffff1660e01b8152600401612f289190614958565b6040805180830381865af4158015612f44573d6000803e3d6000fd5b505050506040513d601f19601f82011682018060405250810190612f689190614a41565b9092509050612f7781886143dc565b965081612fab57600060405180604001604052806002815260200161231960f11b81525098509850505050505050506130c3565b50505b8851156130755760008073__$b2d160aea0e65d5e83164dd2e3c22b89ec$__63a95614d68b6040518263ffffffff1660e01b8152600401612fef9190614a6d565b6040805180830381865af415801561300b573d6000803e3d6000fd5b505050506040513d601f19601f8201168201806040525081019061302f9190614a41565b909250905061303e81886143dc565b96508161307257600060405180604001604052806002815260200161463360f01b81525098509850505050505050506130c3565b50505b848b146130a757600060405180604001604052806002815260200161118d60f21b8152509650965050505050506130c3565b6001604051806020016040528060008152509650965050505050505b94509492505050565b604051639da3176160e01b81526001600160a01b038816600482015260009073__$b2d160aea0e65d5e83164dd2e3c22b89ec$__90639da3176190602401602060405180830381865af4158015613127573d6000803e3d6000fd5b505050506040513d601f19601f8201168201806040525081019061314b9190614429565b90506001600160a01b0381166131a35760405162461bcd60e51b815260206004820152601760248201527f6c31427269646765206973205a65726f41646472657373000000000000000000604482015260640161098d565b604051636eb1769f60e11b81523060048201526001600160a01b0382811660248301526000919089169063dd62ed3e90604401602060405180830381865afa1580156131f3573d6000803e3d6000fd5b505050506040513d601f19601f820116820180604052508101906132179190614af7565b9050848110156132975760405163095ea7b360e01b81526001600160a01b038381166004830152600019602483015289169063095ea7b3906044016020604051808303816000875af1158015613271573d6000803e3d6000fd5b505050506040513d601f19601f820116820180604052508101906132959190614d89565b505b60405163041c592960e51b81526001600160a01b0383169063838b2520906132cd908b908b908b908b908b908b90600401614da4565b600060405180830381600087803b1580156132e757600080fd5b505af11580156132fb573d6000803e3d6000fd5b50505050505050505050505050565b6109c08133613439565b60008281526004602090815260408083206001600160a01b038516845290915290205460ff166116655760008281526004602090815260408083206001600160a01b03851684529091529020805460ff191660011790556133723390565b6001600160a01b0316816001600160a01b0316837f2f8788117e7eff1d82e926ec794901d17c78024a50270940304540a733656f0d60405160405180910390a45050565b60008281526004602090815260408083206001600160a01b038516845290915290205460ff16156116655760008281526004602090815260408083206001600160a01b0385168085529252808320805460ff1916905551339285917ff6391f5c32d9c69d2a47ea670b442974b53935d1edc7fd64eb21e047a839171b9190a45050565b60008281526004602090815260408083206001600160a01b038516845290915290205460ff166116655761346c816134ae565b6134778360206134c0565b604051602001613488929190614df6565b60408051601f198184030181529082905262461bcd60e51b825261098d91600401614e77565b60606107176001600160a01b03831660145b606060006134cf836002614d50565b6134da9060026143dc565b67ffffffffffffffff8111156134f2576134f261369a565b6040519080825280601f01601f19166020018201604052801561351c576020820181803683370190505b509050600360fc1b8160008151811061353757613537614d3a565b60200101906001600160f81b031916908160001a905350600f60fb1b8160018151811061356657613566614d3a565b60200101906001600160f81b031916908160001a905350600061358a846002614d50565b6135959060016143dc565b90505b600181111561361a577f303132333435363738396162636465660000000000000000000000000000000085600f16601081106135d6576135d6614d3a565b1a60f81b8282815181106135ec576135ec614d3a565b60200101906001600160f81b031916908160001a90535060049490941c9361361381614e8a565b9050613598565b5083156136695760405162461bcd60e51b815260206004820181905260248201527f537472696e67733a20686578206c656e67746820696e73756666696369656e74604482015260640161098d565b9392505050565b60006020828403121561368257600080fd5b81356001600160e01b03198116811461366957600080fd5b634e487b7160e01b600052604160045260246000fd5b60405160e0810167ffffffffffffffff811182821017156136d3576136d361369a565b60405290565b6040516060810167ffffffffffffffff811182821017156136d3576136d361369a565b6040516102a0810167ffffffffffffffff811182821017156136d3576136d361369a565b6040805190810167ffffffffffffffff811182821017156136d3576136d361369a565b60405160c0810167ffffffffffffffff811182821017156136d3576136d361369a565b604051601f8201601f1916810167ffffffffffffffff8111828210171561378f5761378f61369a565b604052919050565b600060a082840312156137a957600080fd5b60405160a0810181811067ffffffffffffffff821117156137cc576137cc61369a565b806040525080915082358152602083013560208201526040830135604082015260608301356060820152608083013560808201525092915050565b6001600160a01b03811681146109c057600080fd5b803561382781613807565b919050565b803562ffffff8116811461382757600080fd5b600060e0828403121561385157600080fd5b6138596136b0565b9050813561386681613807565b808252506020820135602082015260408201356040820152606082013560608201526080820135608082015260a082013560a08201526138a860c0830161382c565b60c082015292915050565b60008183036104208112156138c757600080fd5b6138cf6136d9565b91506102a0808212156138e157600080fd5b6138e96136fc565b843581526020808601359082015260408086013590820152606080860135908201526080808601359082015260a0808601359082015260c0808601359082015260e08086013590820152610100808601359082015261012080860135908201526101408086013590820152610160808601359082015261018080860135908201526101a080860135908201526101c080860135908201526101e080860135908201526102008086013590820152610220808601359082015261024080860135908201526102608086013590820152610280808601359082015280845291506139d385828601613797565b602084015250506139e883610340840161383f565b604082015292915050565b60006104208284031215613a0657600080fd5b61366983836138b3565b60005b83811015613a2b578181015183820152602001613a13565b50506000910152565b60008151808452613a4c816020860160208601613a10565b601f01601f19169290920160200192915050565b8215158152604060208201526000613a7b6040830184613a34565b949350505050565b600060208284031215613a9557600080fd5b5035919050565b60006101206001600160a01b03808d168452808c166020850152808b166040850152808a1660608501528089166080850152508660a084015260ff861660c084015260ff851660e084015280610100840152613afa81840185613a34565b9c9b505050505050505050505050565b600060208284031215613b1c57600080fd5b813561366981613807565b803563ffffffff8116811461382757600080fd5b600060e08284031215613b4d57600080fd5b613b556136b0565b90508135613b6281613807565b80825250602082013560208201526040820135604082015260608201356060820152613b9060808301613b27565b6080820152613ba160a08301613b27565b60a08201526138a860c08301613b27565b6000818303610140811215613bc657600080fd5b613bce613720565b91506060811215613bde57600080fd5b50613be76136d9565b8235613bf281613807565b81526020830135613c0281613807565b6020820152613c136040840161382c565b60408201528152613c278360608401613b3b565b602082015292915050565b6000818303610920811215613c4657600080fd5b613c4e613743565b9150613c5a84846138b3565b825260c061041f1982011215613c6f57600080fd5b50613c78613743565b6104208301358152610440830135602082015261046083013560408201526104808301356060820152613cae6104a08401613b27565b60808201526104c083013561ffff81168114613cc957600080fd5b60a08201526020820152613ce1836104e08401613bb2565b6040820152613cf4836106208401613bb2565b6060820152613d07836107608401613b3b565b6080820152613d1a836108408401613b3b565b60a082015292915050565b600067ffffffffffffffff821115613d3f57613d3f61369a565b5060051b60200190565b600082601f830112613d5a57600080fd5b813567ffffffffffffffff811115613d7457613d7461369a565b613d87601f8201601f1916602001613766565b818152846020838601011115613d9c57600080fd5b816020850160208301376000918101602001919091529392505050565b600082601f830112613dca57600080fd5b81356020613ddf613dda83613d25565b613766565b82815260059290921b84018101918181019086841115613dfe57600080fd5b8286015b84811015613e8857803567ffffffffffffffff80821115613e235760008081fd5b90880190610100828b03601f19011215613e3d5760008081fd5b613e45613720565b8683013582811115613e575760008081fd5b613e658c8983870101613d49565b825250613e758b60408501613b3b565b8188015285525050918301918301613e02565b509695505050505050565b600082601f830112613ea457600080fd5b81356020613eb4613dda83613d25565b82815260059290921b84018101918181019086841115613ed357600080fd5b8286015b84811015613e8857803567ffffffffffffffff80821115613ef85760008081fd5b908801906060828b03601f1901811315613f125760008081fd5b613f1a6136d9565b8784013583811115613f2c5760008081fd5b613f3a8d8a83880101613d49565b8252506040925082840135613f4e81613807565b81890152920135908201528352918301918301613ed7565b6000806000806000806109c08789031215613f8057600080fd5b863595506020870135613f9281613807565b945060408701359350613fa88860608901613c32565b925061098087013567ffffffffffffffff80821115613fc657600080fd5b613fd28a838b01613db9565b93506109a0890135915080821115613fe957600080fd5b50613ff689828a01613e93565b9150509295509295509295565b803560ff8116811461382757600080fd5b60006020828403121561402657600080fd5b61366982614003565b6000806040838503121561404257600080fd5b82359150602083013561405481613807565b809150509250929050565b600080600080600060a0868803121561407757600080fd5b61408086614003565b9450602086013561409081613807565b935060408601356140a081613807565b92506140ae60608701613b27565b91506140bc60808701613b27565b90509295509295909350565b600080600080600080600080610100898b0312156140e557600080fd5b6140ee8961381c565b97506140fc60208a0161381c565b965061410a60408a0161381c565b95506060890135945061411f60808a01614003565b935060a089013567ffffffffffffffff8082111561413c57600080fd5b6141488c838d01613d49565b945060c08b013591508082111561415e57600080fd5b61416a8c838d01613d49565b935060e08b013591508082111561418057600080fd5b5061418d8b828c01613d49565b9150509295985092959890939650565b600082601f8301126141ae57600080fd5b813560206141be613dda83613d25565b82815260059290921b840181019181810190868411156141dd57600080fd5b8286015b84811015613e885780356141f481613807565b83529183019183016141e1565b6000806040838503121561421457600080fd5b823567ffffffffffffffff8082111561422c57600080fd5b818501915085601f83011261424057600080fd5b81356020614250613dda83613d25565b82815260059290921b8401810191818101908984111561426f57600080fd5b948201945b838610156142945761428586614003565b82529482019490820190614274565b965050860135925050808211156142aa57600080fd5b506142b78582860161419d565b9150509250929050565b6000806000606084860312156142d657600080fd5b6142df84614003565b92506142ed60208501614003565b9150604084013590509250925092565b6000610920828403121561431057600080fd5b6136698383613c32565b831515815282602082015260606040820152600061433b6060830184613a34565b95945050505050565b600080600080610980858703121561435b57600080fd5b8435935061436c8660208701613c32565b925061094085013567ffffffffffffffff8082111561438a57600080fd5b61439688838901613db9565b93506109608701359150808211156143ad57600080fd5b506143ba87828801613e93565b91505092959194509250565b634e487b7160e01b600052601160045260246000fd5b80820180821115610717576107176143c6565b600181811c9082168061440357607f821691505b60208210810361442357634e487b7160e01b600052602260045260246000fd5b50919050565b60006020828403121561443b57600080fd5b815161366981613807565b80516001600160a01b038082511684528060208301511660208501525062ffffff60408201511660408401525060208101516115d860608401826001600160a01b038151168252602081015160208301526040810151604083015260608101516060830152608081015163ffffffff80821660808501528060a08401511660a08501528060c08401511660c085015250505050565b600081518084526020808501808196508360051b8101915082860160005b8581101561459a5782840389528151610100815181875261451c82880182613a34565b915050868201519150614587878701836001600160a01b038151168252602081015160208301526040810151604083015260608101516060830152608081015163ffffffff80821660808501528060a08401511660a08501528060c08401511660c085015250505050565b99860199945050908401906001016144f9565b5091979650505050505050565b600081518084526020808501808196508360051b8101915082860160005b8581101561459a5782840389528151606081518187526145e782880182613a34565b838901516001600160a01b0316888a01526040938401519390970192909252505097840197908401906001016145c5565b60006109e06001600160a01b03808b168452808a166020850152508760408401528660608401528551805180516080860152602081015160a0860152604081015160c0860152606081015160e08601526080810151610100818188015260a08301519150610120828189015260c0840151925061014083818a015260e0850151935061016084818b0152838601519450610180935084848b01528286015194506101a0925084838b01528186015194506101c0915084828b0152808601519450506101e084818b0152838601519450610200935084848b0152828601519450610220925084838b0152818601519450610240915084828b01528086015194505061026084818b0152838601519450610280935084848b0152828601516102a08b0152818601516102c08b0152808601516102e08b015250505080830151610300880152505050602081015161479c61032086018280518252602081015160208301526040810151604083015260608101516060830152608081015160808301525050565b5060409081015180516001600160a01b03166103c08601526020808201516103e08701528183015161040087015260608083015161042088015260808084015161044089015260a0808501516104608a015260c09094015162ffffff166104808901528a83015180516104a08a0152928301516104c0890152828501516104e08901529082015161050088015281015163ffffffff16610520870152015161ffff16610540850152860151614855610560850182614446565b5060608601516148696106a0850182614446565b5060808681015180516001600160a01b039081166107e08701526020808301516108008801526040808401516108208901526060808501516108408a01528486015163ffffffff9081166108608b015260a08087015182166108808c015260c09687015182166108a08c0152808e015180519096166108c08c0152938501516108e08b0152918401516109008a015283015161092089015293820151841661094088015281015183166109608701520151166109808401526109a08301819052614935818401866144db565b90508281036109c084015261494a81856145a7565b9a9950505050505050505050565b6000602080830181845280855180835260408601915060408160051b870101925083870160005b82811015614a2457603f19888603018452815161010081518188526149a682890182613a34565b915050878201519150614a11888801836001600160a01b038151168252602081015160208301526040810151604083015260608101516060830152608081015163ffffffff80821660808501528060a08401511660a08501528060c08401511660c085015250505050565b955050928501929085019060010161497f565b5092979650505050505050565b8051801515811461382757600080fd5b60008060408385031215614a5457600080fd5b614a5d83614a31565b9150602083015190509250929050565b60006020808301818452808551808352604092508286019150828160051b87010184880160005b83811015614ae957603f19898403018552815160608151818652614aba82870182613a34565b838b01516001600160a01b0316878c015292890151958901959095525094870194925090860190600101614a94565b509098975050505050505050565b600060208284031215614b0957600080fd5b5051919050565b81810381811115610717576107176143c6565b6001600160a01b0384168152606060208201526000614b456060830185613a34565b905063ffffffff83166040830152949350505050565b608081526000614b6e6080830187613a34565b8281036020840152614b808187613a34565b9150508360408301526001600160a01b038316606083015295945050505050565b600060018201614bb357614bb36143c6565b5060010190565b601f8211156115d857600081815260208120601f850160051c81016020861015614be15750805b601f850160051c820191505b81811015614c0057828155600101614bed565b505050505050565b815167ffffffffffffffff811115614c2257614c2261369a565b614c3681614c3084546143ef565b84614bba565b602080601f831160018114614c6b5760008415614c535750858301515b600019600386901b1c1916600185901b178555614c00565b600085815260208120601f198616915b82811015614c9a57888601518255948401946001909101908401614c7b565b5085821015614cb85787850151600019600388901b60f8161c191681555b5050505050600190811b01905550565b60006101206001600160a01b03808d1684528b6020850152808b166040850152808a1660608501528089166080850152508660a08401528060c0840152614d1181840187613a34565b905082810360e0840152614d258186613a34565b9050828103610100840152613afa8185613a34565b634e487b7160e01b600052603260045260246000fd5b8082028115828204841417610717576107176143c6565b600082614d8457634e487b7160e01b600052601260045260246000fd5b500490565b600060208284031215614d9b57600080fd5b61366982614a31565b60006001600160a01b038089168352808816602084015280871660408401525084606083015263ffffffff8416608083015260c060a0830152614dea60c0830184613a34565b98975050505050505050565b7f416363657373436f6e74726f6c3a206163636f756e7420000000000000000000815260008351614e2e816017850160208801613a10565b7f206973206d697373696e6720726f6c65200000000000000000000000000000006017918401918201528351614e6b816028840160208801613a10565b01602801949350505050565b6020815260006136696020830184613a34565b600081614e9957614e996143c6565b50600019019056fea164736f6c6343000812000a",
  "libraries": {
    "LibProject": "0x541da88B395B05064A9B0d4Af189c4Fac5fe5361"
  },
  "devdoc": {
    "events": {
      "RoleAdminChanged(bytes32,bytes32,bytes32)": {
        "details": "Emitted when `newAdminRole` is set as ``role``'s admin role, replacing `previousAdminRole` `DEFAULT_ADMIN_ROLE` is the starting admin for all roles, despite {RoleAdminChanged} not being emitted signaling this. _Available since v3.1._"
      },
      "RoleGranted(bytes32,address,address)": {
        "details": "Emitted when `account` is granted `role`. `sender` is the account that originated the contract call, an admin role bearer except when using {AccessControl-_setupRole}."
      },
      "RoleRevoked(bytes32,address,address)": {
        "details": "Emitted when `account` is revoked `role`. `sender` is the account that originated the contract call:   - if using `revokeRole`, it is the admin role bearer   - if using `renounceRole`, it is the role bearer (i.e. `account`)"
      }
    },
    "kind": "dev",
    "methods": {
      "addAdmin(address)": {
        "details": "add admin",
        "params": {
          "account": "address to add"
        }
      },
      "createProject(address,address,address,uint256,uint8,string,string,string)": {
        "details": " "
      },
      "getRoleAdmin(bytes32)": {
        "details": "Returns the admin role that controls `role`. See {grantRole} and {revokeRole}. To change a role's admin, use {_setRoleAdmin}."
      },
      "grantRole(bytes32,address)": {
        "details": "Grants `role` to `account`. If `account` had not been already granted `role`, emits a {RoleGranted} event. Requirements: - the caller must have ``role``'s admin role. May emit a {RoleGranted} event."
      },
      "hasRole(bytes32,address)": {
        "details": "Returns `true` if `account` has been granted `role`."
      },
      "isAdmin(address)": {
        "details": "whether admin",
        "params": {
          "account": "address to check"
        }
      },
      "removeAdmin(address)": {
        "details": "remove admin",
        "params": {
          "account": "address to remove"
        }
      },
      "renounceRole(bytes32,address)": {
        "details": "Revokes `role` from the calling account. Roles are often managed via {grantRole} and {revokeRole}: this function's purpose is to provide a mechanism for accounts to lose their privileges if they are compromised (such as when a trusted device is misplaced). If the calling account had been revoked `role`, emits a {RoleRevoked} event. Requirements: - the caller must be `account`. May emit a {RoleRevoked} event."
      },
      "revokeRole(bytes32,address)": {
        "details": "Revokes `role` from `account`. If `account` had been granted `role`, emits a {RoleRevoked} event. Requirements: - the caller must have ``role``'s admin role. May emit a {RoleRevoked} event."
      },
      "supportsInterface(bytes4)": {
        "details": "See {IERC165-supportsInterface}."
      },
      "transferAdmin(address)": {
        "details": "transfer admin",
        "params": {
          "newAdmin": "new admin address"
        }
      }
    },
    "title": "L1ProjectManager",
    "version": 1
  },
  "userdoc": {
    "kind": "user",
    "methods": {},
    "version": 1
  },
  "storageLayout": {
    "storage": [
      {
        "astId": 5138,
        "contract": "contracts/L1/L1ProjectManager.sol:L1ProjectManager",
        "label": "pauseProxy",
        "offset": 0,
        "slot": "0",
        "type": "t_bool"
      },
      {
        "astId": 5142,
        "contract": "contracts/L1/L1ProjectManager.sol:L1ProjectManager",
        "label": "proxyImplementation",
        "offset": 0,
        "slot": "1",
        "type": "t_mapping(t_uint256,t_address)"
      },
      {
        "astId": 5146,
        "contract": "contracts/L1/L1ProjectManager.sol:L1ProjectManager",
        "label": "aliveImplementation",
        "offset": 0,
        "slot": "2",
        "type": "t_mapping(t_address,t_bool)"
      },
      {
        "astId": 5150,
        "contract": "contracts/L1/L1ProjectManager.sol:L1ProjectManager",
        "label": "selectorImplementation",
        "offset": 0,
        "slot": "3",
        "type": "t_mapping(t_bytes4,t_address)"
      },
      {
        "astId": 24,
        "contract": "contracts/L1/L1ProjectManager.sol:L1ProjectManager",
        "label": "_roles",
        "offset": 0,
        "slot": "4",
        "type": "t_mapping(t_bytes32,t_struct(RoleData)19_storage)"
      },
      {
        "astId": 3384,
        "contract": "contracts/L1/L1ProjectManager.sol:L1ProjectManager",
        "label": "free",
        "offset": 0,
        "slot": "5",
        "type": "t_bool"
      },
      {
        "astId": 3386,
        "contract": "contracts/L1/L1ProjectManager.sol:L1ProjectManager",
        "label": "projectCount",
        "offset": 0,
        "slot": "6",
        "type": "t_uint256"
      },
      {
        "astId": 3390,
        "contract": "contracts/L1/L1ProjectManager.sol:L1ProjectManager",
        "label": "l1TokenFactory",
        "offset": 0,
        "slot": "7",
        "type": "t_mapping(t_uint8,t_address)"
      },
      {
        "astId": 3395,
        "contract": "contracts/L1/L1ProjectManager.sol:L1ProjectManager",
        "label": "projects",
        "offset": 0,
        "slot": "8",
        "type": "t_mapping(t_uint256,t_struct(ProjectInfo)3775_storage)"
      },
      {
        "astId": 3399,
        "contract": "contracts/L1/L1ProjectManager.sol:L1ProjectManager",
        "label": "projectTokens",
        "offset": 0,
        "slot": "9",
        "type": "t_mapping(t_address,t_uint256)"
      },
      {
        "astId": 3404,
        "contract": "contracts/L1/L1ProjectManager.sol:L1ProjectManager",
        "label": "l2Info",
        "offset": 0,
        "slot": "10",
        "type": "t_mapping(t_uint8,t_struct(L2Info)3784_storage)"
      },
      {
        "astId": 3409,
        "contract": "contracts/L1/L1ProjectManager.sol:L1ProjectManager",
        "label": "publicInfo",
        "offset": 0,
        "slot": "11",
        "type": "t_mapping(t_uint8,t_struct(PublicSaleSet)3948_storage)"
      }
    ],
    "types": {
      "t_address": {
        "encoding": "inplace",
        "label": "address",
        "numberOfBytes": "20"
      },
      "t_bool": {
        "encoding": "inplace",
        "label": "bool",
        "numberOfBytes": "1"
      },
      "t_bytes32": {
        "encoding": "inplace",
        "label": "bytes32",
        "numberOfBytes": "32"
      },
      "t_bytes4": {
        "encoding": "inplace",
        "label": "bytes4",
        "numberOfBytes": "4"
      },
      "t_mapping(t_address,t_bool)": {
        "encoding": "mapping",
        "key": "t_address",
        "label": "mapping(address => bool)",
        "numberOfBytes": "32",
        "value": "t_bool"
      },
      "t_mapping(t_address,t_uint256)": {
        "encoding": "mapping",
        "key": "t_address",
        "label": "mapping(address => uint256)",
        "numberOfBytes": "32",
        "value": "t_uint256"
      },
      "t_mapping(t_bytes32,t_struct(RoleData)19_storage)": {
        "encoding": "mapping",
        "key": "t_bytes32",
        "label": "mapping(bytes32 => struct AccessControl.RoleData)",
        "numberOfBytes": "32",
        "value": "t_struct(RoleData)19_storage"
      },
      "t_mapping(t_bytes4,t_address)": {
        "encoding": "mapping",
        "key": "t_bytes4",
        "label": "mapping(bytes4 => address)",
        "numberOfBytes": "32",
        "value": "t_address"
      },
      "t_mapping(t_uint256,t_address)": {
        "encoding": "mapping",
        "key": "t_uint256",
        "label": "mapping(uint256 => address)",
        "numberOfBytes": "32",
        "value": "t_address"
      },
      "t_mapping(t_uint256,t_struct(ProjectInfo)3775_storage)": {
        "encoding": "mapping",
        "key": "t_uint256",
        "label": "mapping(uint256 => struct LibProject.ProjectInfo)",
        "numberOfBytes": "32",
        "value": "t_struct(ProjectInfo)3775_storage"
      },
      "t_mapping(t_uint8,t_address)": {
        "encoding": "mapping",
        "key": "t_uint8",
        "label": "mapping(uint8 => address)",
        "numberOfBytes": "32",
        "value": "t_address"
      },
      "t_mapping(t_uint8,t_struct(L2Info)3784_storage)": {
        "encoding": "mapping",
        "key": "t_uint8",
        "label": "mapping(uint8 => struct LibProject.L2Info)",
        "numberOfBytes": "32",
        "value": "t_struct(L2Info)3784_storage"
      },
      "t_mapping(t_uint8,t_struct(PublicSaleSet)3948_storage)": {
        "encoding": "mapping",
        "key": "t_uint8",
        "label": "mapping(uint8 => struct LibProject.PublicSaleSet)",
        "numberOfBytes": "32",
        "value": "t_struct(PublicSaleSet)3948_storage"
      },
      "t_string_storage": {
        "encoding": "bytes",
        "label": "string",
        "numberOfBytes": "32"
      },
      "t_struct(L2Info)3784_storage": {
        "encoding": "inplace",
        "label": "struct LibProject.L2Info",
        "members": [
          {
            "astId": 3777,
            "contract": "contracts/L1/L1ProjectManager.sol:L1ProjectManager",
            "label": "l2TokenFactory",
            "offset": 0,
            "slot": "0",
            "type": "t_address"
          },
          {
            "astId": 3779,
            "contract": "contracts/L1/L1ProjectManager.sol:L1ProjectManager",
            "label": "l2ProjectManager",
            "offset": 0,
            "slot": "1",
            "type": "t_address"
          },
          {
            "astId": 3781,
            "contract": "contracts/L1/L1ProjectManager.sol:L1ProjectManager",
            "label": "depositMinGasLimit",
            "offset": 20,
            "slot": "1",
            "type": "t_uint32"
          },
          {
            "astId": 3783,
            "contract": "contracts/L1/L1ProjectManager.sol:L1ProjectManager",
            "label": "sendMsgMinGasLimit",
            "offset": 24,
            "slot": "1",
            "type": "t_uint32"
          }
        ],
        "numberOfBytes": "64"
      },
      "t_struct(ProjectInfo)3775_storage": {
        "encoding": "inplace",
        "label": "struct LibProject.ProjectInfo",
        "members": [
          {
            "astId": 3758,
            "contract": "contracts/L1/L1ProjectManager.sol:L1ProjectManager",
            "label": "projectOwner",
            "offset": 0,
            "slot": "0",
            "type": "t_address"
          },
          {
            "astId": 3760,
            "contract": "contracts/L1/L1ProjectManager.sol:L1ProjectManager",
            "label": "tokenOwner",
            "offset": 0,
            "slot": "1",
            "type": "t_address"
          },
          {
            "astId": 3762,
            "contract": "contracts/L1/L1ProjectManager.sol:L1ProjectManager",
            "label": "l1Token",
            "offset": 0,
            "slot": "2",
            "type": "t_address"
          },
          {
            "astId": 3764,
            "contract": "contracts/L1/L1ProjectManager.sol:L1ProjectManager",
            "label": "l2Token",
            "offset": 0,
            "slot": "3",
            "type": "t_address"
          },
          {
            "astId": 3766,
            "contract": "contracts/L1/L1ProjectManager.sol:L1ProjectManager",
            "label": "addressManager",
            "offset": 0,
            "slot": "4",
            "type": "t_address"
          },
          {
            "astId": 3768,
            "contract": "contracts/L1/L1ProjectManager.sol:L1ProjectManager",
            "label": "initialTotalSupply",
            "offset": 0,
            "slot": "5",
            "type": "t_uint256"
          },
          {
            "astId": 3770,
            "contract": "contracts/L1/L1ProjectManager.sol:L1ProjectManager",
            "label": "tokenType",
            "offset": 0,
            "slot": "6",
            "type": "t_uint8"
          },
          {
            "astId": 3772,
            "contract": "contracts/L1/L1ProjectManager.sol:L1ProjectManager",
            "label": "l2Type",
            "offset": 1,
            "slot": "6",
            "type": "t_uint8"
          },
          {
            "astId": 3774,
            "contract": "contracts/L1/L1ProjectManager.sol:L1ProjectManager",
            "label": "projectName",
            "offset": 0,
            "slot": "7",
            "type": "t_string_storage"
          }
        ],
        "numberOfBytes": "256"
      },
      "t_struct(PublicSaleSet)3948_storage": {
        "encoding": "inplace",
        "label": "struct LibProject.PublicSaleSet",
        "members": [
          {
            "astId": 3943,
            "contract": "contracts/L1/L1ProjectManager.sol:L1ProjectManager",
            "label": "minPercents",
            "offset": 0,
            "slot": "0",
            "type": "t_uint8"
          },
          {
            "astId": 3945,
            "contract": "contracts/L1/L1ProjectManager.sol:L1ProjectManager",
            "label": "maxPercents",
            "offset": 1,
            "slot": "0",
            "type": "t_uint8"
          },
          {
            "astId": 3947,
            "contract": "contracts/L1/L1ProjectManager.sol:L1ProjectManager",
            "label": "delayTime",
            "offset": 0,
            "slot": "1",
            "type": "t_uint256"
          }
        ],
        "numberOfBytes": "64"
      },
      "t_struct(RoleData)19_storage": {
        "encoding": "inplace",
        "label": "struct AccessControl.RoleData",
        "members": [
          {
            "astId": 16,
            "contract": "contracts/L1/L1ProjectManager.sol:L1ProjectManager",
            "label": "members",
            "offset": 0,
            "slot": "0",
            "type": "t_mapping(t_address,t_bool)"
          },
          {
            "astId": 18,
            "contract": "contracts/L1/L1ProjectManager.sol:L1ProjectManager",
            "label": "adminRole",
            "offset": 0,
            "slot": "1",
            "type": "t_bytes32"
          }
        ],
        "numberOfBytes": "64"
      },
      "t_uint256": {
        "encoding": "inplace",
        "label": "uint256",
        "numberOfBytes": "32"
      },
      "t_uint32": {
        "encoding": "inplace",
        "label": "uint32",
        "numberOfBytes": "4"
      },
      "t_uint8": {
        "encoding": "inplace",
        "label": "uint8",
        "numberOfBytes": "1"
      }
    }
  }
}