{
  "_format": "hh-sol-artifact-1",
  "contractName": "L1TotalStosStorage",
  "sourceName": "contracts/L1/L1TotalStosStorage.sol",
  "abi": [
    {
      "inputs": [
        {
          "internalType": "uint256",
          "name": "",
          "type": "uint256"
        }
      ],
      "name": "allLocks",
      "outputs": [
        {
          "internalType": "uint256",
          "name": "start",
          "type": "uint256"
        },
        {
          "internalType": "uint256",
          "name": "end",
          "type": "uint256"
        },
        {
          "internalType": "uint256",
          "name": "amount",
          "type": "uint256"
        },
        {
          "internalType": "bool",
          "name": "withdrawn",
          "type": "bool"
        }
      ],
      "stateMutability": "view",
      "type": "function"
    },
    {
      "inputs": [
        {
          "internalType": "uint256",
          "name": "",
          "type": "uint256"
        }
      ],
      "name": "l2Infos",
      "outputs": [
        {
          "internalType": "address",
          "name": "l1Messanger",
          "type": "address"
        },
        {
          "internalType": "address",
          "name": "l2TotalStos",
          "type": "address"
        },
        {
          "internalType": "string",
          "name": "name",
          "type": "string"
        }
      ],
      "stateMutability": "view",
      "type": "function"
    },
    {
      "inputs": [],
      "name": "l2TotalCount",
      "outputs": [
        {
          "internalType": "uint256",
          "name": "",
          "type": "uint256"
        }
      ],
      "stateMutability": "view",
      "type": "function"
    },
    {
      "inputs": [],
      "name": "lockIdCounter",
      "outputs": [
        {
          "internalType": "uint256",
          "name": "",
          "type": "uint256"
        }
      ],
      "stateMutability": "view",
      "type": "function"
    },
    {
      "inputs": [
        {
          "internalType": "uint256",
          "name": "",
          "type": "uint256"
        },
        {
          "internalType": "uint256",
          "name": "",
          "type": "uint256"
        }
      ],
      "name": "lockPointHistory",
      "outputs": [
        {
          "internalType": "int256",
          "name": "bias",
          "type": "int256"
        },
        {
          "internalType": "int256",
          "name": "slope",
          "type": "int256"
        },
        {
          "internalType": "uint256",
          "name": "timestamp",
          "type": "uint256"
        }
      ],
      "stateMutability": "view",
      "type": "function"
    },
    {
      "inputs": [
        {
          "internalType": "address",
          "name": "",
          "type": "address"
        },
        {
          "internalType": "uint256",
          "name": "",
          "type": "uint256"
        }
      ],
      "name": "lockedBalances",
      "outputs": [
        {
          "internalType": "uint256",
          "name": "start",
          "type": "uint256"
        },
        {
          "internalType": "uint256",
          "name": "end",
          "type": "uint256"
        },
        {
          "internalType": "uint256",
          "name": "amount",
          "type": "uint256"
        },
        {
          "internalType": "bool",
          "name": "withdrawn",
          "type": "bool"
        }
      ],
      "stateMutability": "view",
      "type": "function"
    },
    {
      "inputs": [
        {
          "internalType": "uint256",
          "name": "",
          "type": "uint256"
        }
      ],
      "name": "pointHistory",
      "outputs": [
        {
          "internalType": "int256",
          "name": "bias",
          "type": "int256"
        },
        {
          "internalType": "int256",
          "name": "slope",
          "type": "int256"
        },
        {
          "internalType": "uint256",
          "name": "timestamp",
          "type": "uint256"
        }
      ],
      "stateMutability": "view",
      "type": "function"
    },
    {
      "inputs": [
        {
          "internalType": "address",
          "name": "",
          "type": "address"
        },
        {
          "internalType": "uint256",
          "name": "",
          "type": "uint256"
        }
      ],
      "name": "userLocks",
      "outputs": [
        {
          "internalType": "uint256",
          "name": "",
          "type": "uint256"
        }
      ],
      "stateMutability": "view",
      "type": "function"
    },
    {
      "inputs": [
        {
          "internalType": "address",
          "name": "",
          "type": "address"
        },
        {
          "internalType": "uint256",
          "name": "",
          "type": "uint256"
        }
      ],
      "name": "userStos",
      "outputs": [
        {
          "internalType": "uint32",
          "name": "syncTime",
          "type": "uint32"
        },
        {
          "internalType": "uint256",
          "name": "amount",
          "type": "uint256"
        }
      ],
      "stateMutability": "view",
      "type": "function"
    }
  ],
  "bytecode": "0x608060405234801561001057600080fd5b506104bc806100206000396000f3fe608060405234801561001057600080fd5b50600436106100a35760003560e01c806382f7a5dd11610076578063a693a3ab1161005b578063a693a3ab14610204578063aa33fedb1461021b578063afae883e1461022e57600080fd5b806382f7a5dd1461019a5780638ad4c447146101f157600080fd5b8063367b7b23146100a85780635d16a6f9146100db57806363d5a3d91461014057806376ec1cf514610178575b600080fd5b6100bb6100b6366004610397565b610237565b604080519384526020840192909252908201526060015b60405180910390f35b61011e6100e93660046103b9565b600560209081526000928352604080842090915290825290208054600182015460028301546003909301549192909160ff1684565b60408051948552602085019390935291830152151560608201526080016100d2565b61011e61014e3660046103f1565b60066020526000908152604090208054600182015460028301546003909301549192909160ff1684565b61018b6101863660046103f1565b610279565b6040516100d29392919061040a565b6101d56101a83660046103b9565b60026020908152600092835260408084209091529082529020805460019091015463ffffffff9091169082565b6040805163ffffffff90931683526020830191909152016100d2565b6100bb6101ff3660046103f1565b610333565b61020d60005481565b6040519081526020016100d2565b61020d6102293660046103b9565b610366565b61020d60085481565b6004602052816000526040600020818154811061025357600080fd5b600091825260209091206003909102018054600182015460029092015490935090915083565b60016020819052600091825260409091208054918101546002820180546001600160a01b039485169490921692916102b090610475565b80601f01602080910402602001604051908101604052809291908181526020018280546102dc90610475565b80156103295780601f106102fe57610100808354040283529160200191610329565b820191906000526020600020905b81548152906001019060200180831161030c57829003601f168201915b5050505050905083565b6003818154811061034357600080fd5b600091825260209091206003909102018054600182015460029092015490925083565b6007602052816000526040600020818154811061038257600080fd5b90600052602060002001600091509150505481565b600080604083850312156103aa57600080fd5b50508035926020909101359150565b600080604083850312156103cc57600080fd5b82356001600160a01b03811681146103e357600080fd5b946020939093013593505050565b60006020828403121561040357600080fd5b5035919050565b60006001600160a01b038086168352602081861681850152606060408501528451915081606085015260005b8281101561045257858101820151858201608001528101610436565b50506000608082850101526080601f19601f830116840101915050949350505050565b600181811c9082168061048957607f821691505b6020821081036104a957634e487b7160e01b600052602260045260246000fd5b5091905056fea164736f6c6343000812000a",
  "linkReferences": {},
  "deployedLinkReferences": {}
}