{
  "_format": "hh-sol-artifact-1",
  "contractName": "L1TotalStosStorage",
  "sourceName": "contracts/L1/L1TotalStosStorage.sol",
  "abi": [
    {
      "inputs": [
        {
          "internalType": "uint256",
          "name": "",
          "type": "uint256"
        },
        {
          "internalType": "uint256",
          "name": "",
          "type": "uint256"
        }
      ],
      "name": "allLocks",
      "outputs": [
        {
          "internalType": "uint256",
          "name": "start",
          "type": "uint256"
        },
        {
          "internalType": "uint256",
          "name": "end",
          "type": "uint256"
        },
        {
          "internalType": "uint256",
          "name": "amount",
          "type": "uint256"
        },
        {
          "internalType": "bool",
          "name": "withdrawn",
          "type": "bool"
        }
      ],
      "stateMutability": "view",
      "type": "function"
    },
    {
      "inputs": [
        {
          "internalType": "uint256",
          "name": "",
          "type": "uint256"
        }
      ],
      "name": "l2Infos",
      "outputs": [
        {
          "internalType": "address",
          "name": "l1Messanger",
          "type": "address"
        },
        {
          "internalType": "address",
          "name": "l2TotalStos",
          "type": "address"
        },
        {
          "internalType": "string",
          "name": "name",
          "type": "string"
        }
      ],
      "stateMutability": "view",
      "type": "function"
    },
    {
      "inputs": [],
      "name": "l2TotalCount",
      "outputs": [
        {
          "internalType": "uint256",
          "name": "",
          "type": "uint256"
        }
      ],
      "stateMutability": "view",
      "type": "function"
    },
    {
      "inputs": [
        {
          "internalType": "uint256",
          "name": "",
          "type": "uint256"
        }
      ],
      "name": "lockIdCounter",
      "outputs": [
        {
          "internalType": "uint256",
          "name": "",
          "type": "uint256"
        }
      ],
      "stateMutability": "view",
      "type": "function"
    },
    {
      "inputs": [
        {
          "internalType": "uint256",
          "name": "",
          "type": "uint256"
        },
        {
          "internalType": "uint256",
          "name": "",
          "type": "uint256"
        },
        {
          "internalType": "uint256",
          "name": "",
          "type": "uint256"
        }
      ],
      "name": "lockPointHistory",
      "outputs": [
        {
          "internalType": "int256",
          "name": "bias",
          "type": "int256"
        },
        {
          "internalType": "int256",
          "name": "slope",
          "type": "int256"
        },
        {
          "internalType": "uint256",
          "name": "timestamp",
          "type": "uint256"
        }
      ],
      "stateMutability": "view",
      "type": "function"
    },
    {
      "inputs": [
        {
          "internalType": "uint256",
          "name": "",
          "type": "uint256"
        },
        {
          "internalType": "uint256",
          "name": "",
          "type": "uint256"
        }
      ],
      "name": "pointHistory",
      "outputs": [
        {
          "internalType": "int256",
          "name": "bias",
          "type": "int256"
        },
        {
          "internalType": "int256",
          "name": "slope",
          "type": "int256"
        },
        {
          "internalType": "uint256",
          "name": "timestamp",
          "type": "uint256"
        }
      ],
      "stateMutability": "view",
      "type": "function"
    },
    {
      "inputs": [
        {
          "internalType": "uint256",
          "name": "",
          "type": "uint256"
        },
        {
          "internalType": "uint256",
          "name": "",
          "type": "uint256"
        }
      ],
      "name": "slopeChanges",
      "outputs": [
        {
          "internalType": "int256",
          "name": "",
          "type": "int256"
        }
      ],
      "stateMutability": "view",
      "type": "function"
    },
    {
      "inputs": [
        {
          "internalType": "address",
          "name": "",
          "type": "address"
        },
        {
          "internalType": "uint256",
          "name": "",
          "type": "uint256"
        },
        {
          "internalType": "uint256",
          "name": "",
          "type": "uint256"
        }
      ],
      "name": "userLocks",
      "outputs": [
        {
          "internalType": "uint256",
          "name": "",
          "type": "uint256"
        }
      ],
      "stateMutability": "view",
      "type": "function"
    },
    {
      "inputs": [
        {
          "internalType": "address",
          "name": "",
          "type": "address"
        },
        {
          "internalType": "uint256",
          "name": "",
          "type": "uint256"
        }
      ],
      "name": "userStos",
      "outputs": [
        {
          "internalType": "uint32",
          "name": "syncTime",
          "type": "uint32"
        },
        {
          "internalType": "uint256",
          "name": "amount",
          "type": "uint256"
        }
      ],
      "stateMutability": "view",
      "type": "function"
    }
  ],
  "bytecode": "0x608060405234801561001057600080fd5b5061055d806100206000396000f3fe608060405234801561001057600080fd5b50600436106100a35760003560e01c80638ff76b8a11610076578063a693a3ab1161005b578063a693a3ab146101fa578063b1d8fb5614610203578063c26e98f91461021657600080fd5b80638ff76b8a146101b9578063a1ba88eb146101cc57600080fd5b806320f06c8c146100a85780635e52ee461461011257806376ec1cf51461014057806382f7a5dd14610162575b600080fd5b6100eb6100b63660046103cb565b600660209081526000928352604080842090915290825290208054600182015460028301546003909301549192909160ff1684565b60408051948552602085019390935291830152151560608201526080015b60405180910390f35b6101326101203660046103ed565b60086020526000908152604090205481565b604051908152602001610109565b61015361014e3660046103ed565b610241565b60405161010993929190610406565b61019d61017036600461048d565b60026020908152600092835260408084209091529082529020805460019091015463ffffffff9091169082565b6040805163ffffffff9093168352602083019190915201610109565b6101326101c73660046104b7565b6102fb565b6101df6101da3660046103cb565b610339565b60408051938452602084019290925290820152606001610109565b61013260005481565b6101df6102113660046104ea565b61037b565b6101326102243660046103cb565b600560209081526000928352604080842090915290825290205481565b60016020819052600091825260409091208054918101546002820180546001600160a01b0394851694909216929161027890610516565b80601f01602080910402602001604051908101604052809291908181526020018280546102a490610516565b80156102f15780601f106102c6576101008083540402835291602001916102f1565b820191906000526020600020905b8154815290600101906020018083116102d457829003601f168201915b5050505050905083565b6007602052826000526040600020602052816000526040600020818154811061032357600080fd5b9060005260206000200160009250925050505481565b6003602052816000526040600020818154811061035557600080fd5b600091825260209091206003909102018054600182015460029092015490935090915083565b600460205282600052604060002060205281600052604060002081815481106103a357600080fd5b6000918252602090912060039091020180546001820154600290920154909450909250905083565b600080604083850312156103de57600080fd5b50508035926020909101359150565b6000602082840312156103ff57600080fd5b5035919050565b60006001600160a01b038086168352602081861681850152606060408501528451915081606085015260005b8281101561044e57858101820151858201608001528101610432565b50506000608082850101526080601f19601f830116840101915050949350505050565b80356001600160a01b038116811461048857600080fd5b919050565b600080604083850312156104a057600080fd5b6104a983610471565b946020939093013593505050565b6000806000606084860312156104cc57600080fd5b6104d584610471565b95602085013595506040909401359392505050565b6000806000606084860312156104ff57600080fd5b505081359360208301359350604090920135919050565b600181811c9082168061052a57607f821691505b60208210810361054a57634e487b7160e01b600052602260045260246000fd5b5091905056fea164736f6c6343000812000a",
  "linkReferences": {},
  "deployedLinkReferences": {}
}