{
  "_format": "hh-sol-artifact-1",
  "contractName": "L2PowerTon",
  "sourceName": "contracts/L2/powerton/L2PowerTon.sol",
  "abi": [
    {
      "inputs": [],
      "name": "_owner",
      "outputs": [
        {
          "internalType": "address",
          "name": "",
          "type": "address"
        }
      ],
      "stateMutability": "view",
      "type": "function"
    },
    {
      "inputs": [
        {
          "internalType": "address",
          "name": "",
          "type": "address"
        }
      ],
      "name": "aliveImplementation",
      "outputs": [
        {
          "internalType": "bool",
          "name": "",
          "type": "bool"
        }
      ],
      "stateMutability": "view",
      "type": "function"
    },
    {
      "inputs": [
        {
          "internalType": "address",
          "name": "token",
          "type": "address"
        }
      ],
      "name": "distribute",
      "outputs": [],
      "stateMutability": "nonpayable",
      "type": "function"
    },
    {
      "inputs": [
        {
          "internalType": "address",
          "name": "_l2DividendPoolForStos",
          "type": "address"
        },
        {
          "internalType": "address",
          "name": "_universalStos",
          "type": "address"
        }
      ],
      "name": "initialize",
      "outputs": [],
      "stateMutability": "nonpayable",
      "type": "function"
    },
    {
      "inputs": [],
      "name": "l2DividendPoolForStos",
      "outputs": [
        {
          "internalType": "address",
          "name": "",
          "type": "address"
        }
      ],
      "stateMutability": "view",
      "type": "function"
    },
    {
      "inputs": [],
      "name": "pauseProxy",
      "outputs": [
        {
          "internalType": "bool",
          "name": "",
          "type": "bool"
        }
      ],
      "stateMutability": "view",
      "type": "function"
    },
    {
      "inputs": [
        {
          "internalType": "uint256",
          "name": "",
          "type": "uint256"
        }
      ],
      "name": "proxyImplementation",
      "outputs": [
        {
          "internalType": "address",
          "name": "",
          "type": "address"
        }
      ],
      "stateMutability": "view",
      "type": "function"
    },
    {
      "inputs": [
        {
          "internalType": "bytes4",
          "name": "",
          "type": "bytes4"
        }
      ],
      "name": "selectorImplementation",
      "outputs": [
        {
          "internalType": "address",
          "name": "",
          "type": "address"
        }
      ],
      "stateMutability": "view",
      "type": "function"
    },
    {
      "inputs": [
        {
          "internalType": "address",
          "name": "_l2DividendPoolForStos",
          "type": "address"
        }
      ],
      "name": "setL2DividendPoolForStos",
      "outputs": [],
      "stateMutability": "nonpayable",
      "type": "function"
    },
    {
      "inputs": [],
      "name": "universalStos",
      "outputs": [
        {
          "internalType": "address",
          "name": "",
          "type": "address"
        }
      ],
      "stateMutability": "view",
      "type": "function"
    }
  ],
  "bytecode": "0x608060405234801561001057600080fd5b5061078e806100206000396000f3fe608060405234801561001057600080fd5b50600436106100be5760003560e01c8063726befc511610076578063b911135f1161005b578063b911135f146101af578063c65ba19d146101d8578063c83d3c47146101eb57600080fd5b8063726befc514610189578063b2bdfa7b1461019c57600080fd5b8063550d01a3116100a7578063550d01a31461011e57806363453ae11461015157806363a8fd891461016457600080fd5b8063485cc955146100c357806350d2a276146100d8575b600080fd5b6100d66100d1366004610689565b6101fe565b005b6101016100e63660046106bc565b6003602052600090815260409020546001600160a01b031681565b6040516001600160a01b0390911681526020015b60405180910390f35b61014161012c366004610705565b60026020526000908152604090205460ff1681565b6040519015158152602001610115565b6100d661015f366004610705565b610284565b6000546101419074010000000000000000000000000000000000000000900460ff1681565b600454610101906001600160a01b031681565b600054610101906001600160a01b031681565b6101016101bd366004610720565b6001602052600090815260409020546001600160a01b031681565b6100d66101e6366004610705565b6105b2565b600554610101906001600160a01b031681565b6000546001600160a01b031633146102495760405162461bcd60e51b81526020600482015260096024820152683737ba1037bbb732b960b91b60448201526064015b60405180910390fd5b600480546001600160a01b0393841673ffffffffffffffffffffffffffffffffffffffff199182161790915560058054929093169116179055565b600554604080516318160ddd60e01b815290516000926001600160a01b0316916318160ddd9160048083019260209291908290030181865afa1580156102ce573d6000803e3d6000fd5b505050506040513d601f19601f820116820180604052508101906102f29190610739565b905080156105ae576001600160a01b03821673deaddeaddeaddeaddeaddeaddeaddeaddead00001461044f576040516370a0823160e01b81523060048201526000906001600160a01b038416906370a0823190602401602060405180830381865afa158015610365573d6000803e3d6000fd5b505050506040513d601f19601f820116820180604052508101906103899190610739565b9050670de0b6b3a764000081116103e25760405162461bcd60e51b815260206004820152601d60248201527f62616c616e6365206973206c657373207468616e20312065746865722e0000006044820152606401610240565b60048054604051631f72642160e31b81526001600160a01b03868116938201939093526024810184905291169063fb93210890604401600060405180830381600087803b15801561043257600080fd5b505af1158015610446573d6000803e3d6000fd5b50505050505050565b4760008190036104a15760405162461bcd60e51b815260206004820152600c60248201527f7a65726f2062616c616e636500000000000000000000000000000000000000006044820152606401610240565b604080516001600160a01b038581166024830152604480830185905283518084039091018152606490920183526020820180517bffffffffffffffffffffffffffffffffffffffffffffffffffffffff16631f72642160e31b179052600454925191926000929116908490610517908590610752565b60006040518083038185875af1925050503d8060008114610554576040519150601f19603f3d011682016040523d82523d6000602084013e610559565b606091505b50509050806105aa5760405162461bcd60e51b815260206004820152600f60248201527f6661696c206469737472696275746500000000000000000000000000000000006044820152606401610240565b5050505b5050565b6000546001600160a01b031633146105f85760405162461bcd60e51b81526020600482015260096024820152683737ba1037bbb732b960b91b6044820152606401610240565b6004546001600160a01b0380831691160361063e5760405162461bcd60e51b81526004016102409060208082526004908201526373616d6560e01b604082015260600190565b6004805473ffffffffffffffffffffffffffffffffffffffff19166001600160a01b0392909216919091179055565b80356001600160a01b038116811461068457600080fd5b919050565b6000806040838503121561069c57600080fd5b6106a58361066d565b91506106b36020840161066d565b90509250929050565b6000602082840312156106ce57600080fd5b81357fffffffff00000000000000000000000000000000000000000000000000000000811681146106fe57600080fd5b9392505050565b60006020828403121561071757600080fd5b6106fe8261066d565b60006020828403121561073257600080fd5b5035919050565b60006020828403121561074b57600080fd5b5051919050565b6000825160005b818110156107735760208186018101518583015201610759565b50600092019182525091905056fea164736f6c6343000812000a",
  "linkReferences": {},
  "deployedLinkReferences": {}
}