{
  "_format": "hh-sol-artifact-1",
  "contractName": "AccessibleCommon",
  "sourceName": "contracts/common/AccessibleCommon.sol",
  "abi": [
    {
      "anonymous": false,
      "inputs": [
        {
          "indexed": true,
          "internalType": "bytes32",
          "name": "role",
          "type": "bytes32"
        },
        {
          "indexed": true,
          "internalType": "bytes32",
          "name": "previousAdminRole",
          "type": "bytes32"
        },
        {
          "indexed": true,
          "internalType": "bytes32",
          "name": "newAdminRole",
          "type": "bytes32"
        }
      ],
      "name": "RoleAdminChanged",
      "type": "event"
    },
    {
      "anonymous": false,
      "inputs": [
        {
          "indexed": true,
          "internalType": "bytes32",
          "name": "role",
          "type": "bytes32"
        },
        {
          "indexed": true,
          "internalType": "address",
          "name": "account",
          "type": "address"
        },
        {
          "indexed": true,
          "internalType": "address",
          "name": "sender",
          "type": "address"
        }
      ],
      "name": "RoleGranted",
      "type": "event"
    },
    {
      "anonymous": false,
      "inputs": [
        {
          "indexed": true,
          "internalType": "bytes32",
          "name": "role",
          "type": "bytes32"
        },
        {
          "indexed": true,
          "internalType": "address",
          "name": "account",
          "type": "address"
        },
        {
          "indexed": true,
          "internalType": "address",
          "name": "sender",
          "type": "address"
        }
      ],
      "name": "RoleRevoked",
      "type": "event"
    },
    {
      "inputs": [],
      "name": "ADMIN_ROLE",
      "outputs": [
        {
          "internalType": "bytes32",
          "name": "",
          "type": "bytes32"
        }
      ],
      "stateMutability": "view",
      "type": "function"
    },
    {
      "inputs": [],
      "name": "DEFAULT_ADMIN_ROLE",
      "outputs": [
        {
          "internalType": "bytes32",
          "name": "",
          "type": "bytes32"
        }
      ],
      "stateMutability": "view",
      "type": "function"
    },
    {
      "inputs": [],
      "name": "POLICY_ROLE",
      "outputs": [
        {
          "internalType": "bytes32",
          "name": "",
          "type": "bytes32"
        }
      ],
      "stateMutability": "view",
      "type": "function"
    },
    {
      "inputs": [
        {
          "internalType": "address",
          "name": "account",
          "type": "address"
        }
      ],
      "name": "addAdmin",
      "outputs": [],
      "stateMutability": "nonpayable",
      "type": "function"
    },
    {
      "inputs": [
        {
          "internalType": "bytes32",
          "name": "role",
          "type": "bytes32"
        }
      ],
      "name": "getRoleAdmin",
      "outputs": [
        {
          "internalType": "bytes32",
          "name": "",
          "type": "bytes32"
        }
      ],
      "stateMutability": "view",
      "type": "function"
    },
    {
      "inputs": [
        {
          "internalType": "bytes32",
          "name": "role",
          "type": "bytes32"
        },
        {
          "internalType": "address",
          "name": "account",
          "type": "address"
        }
      ],
      "name": "grantRole",
      "outputs": [],
      "stateMutability": "nonpayable",
      "type": "function"
    },
    {
      "inputs": [
        {
          "internalType": "bytes32",
          "name": "role",
          "type": "bytes32"
        },
        {
          "internalType": "address",
          "name": "account",
          "type": "address"
        }
      ],
      "name": "hasRole",
      "outputs": [
        {
          "internalType": "bool",
          "name": "",
          "type": "bool"
        }
      ],
      "stateMutability": "view",
      "type": "function"
    },
    {
      "inputs": [
        {
          "internalType": "address",
          "name": "account",
          "type": "address"
        }
      ],
      "name": "isAdmin",
      "outputs": [
        {
          "internalType": "bool",
          "name": "",
          "type": "bool"
        }
      ],
      "stateMutability": "view",
      "type": "function"
    },
    {
      "inputs": [
        {
          "internalType": "address",
          "name": "account",
          "type": "address"
        }
      ],
      "name": "removeAdmin",
      "outputs": [],
      "stateMutability": "nonpayable",
      "type": "function"
    },
    {
      "inputs": [
        {
          "internalType": "bytes32",
          "name": "role",
          "type": "bytes32"
        },
        {
          "internalType": "address",
          "name": "account",
          "type": "address"
        }
      ],
      "name": "renounceRole",
      "outputs": [],
      "stateMutability": "nonpayable",
      "type": "function"
    },
    {
      "inputs": [
        {
          "internalType": "bytes32",
          "name": "role",
          "type": "bytes32"
        },
        {
          "internalType": "address",
          "name": "account",
          "type": "address"
        }
      ],
      "name": "revokeRole",
      "outputs": [],
      "stateMutability": "nonpayable",
      "type": "function"
    },
    {
      "inputs": [
        {
          "internalType": "bytes4",
          "name": "interfaceId",
          "type": "bytes4"
        }
      ],
      "name": "supportsInterface",
      "outputs": [
        {
          "internalType": "bool",
          "name": "",
          "type": "bool"
        }
      ],
      "stateMutability": "view",
      "type": "function"
    },
    {
      "inputs": [
        {
          "internalType": "address",
          "name": "newAdmin",
          "type": "address"
        }
      ],
      "name": "transferAdmin",
      "outputs": [],
      "stateMutability": "nonpayable",
      "type": "function"
    }
  ],
  "bytecode": "0x608060405234801561001057600080fd5b50610b8b806100206000396000f3fe608060405234801561001057600080fd5b50600436106100df5760003560e01c806336568abe1161008c57806375b238fc1161006657806375b238fc146101d857806391d14854146101ff578063a217fddf14610236578063d547741f1461023e57600080fd5b806336568abe1461019f57806370480275146101b257806375829def146101c557600080fd5b8063248a9ca3116100bd578063248a9ca31461015657806324d7806c146101795780632f2ff15d1461018c57600080fd5b806301ffc9a7146100e45780631785f53c1461010c5780632298524614610121575b600080fd5b6100f76100f236600461097d565b610251565b60405190151581526020015b60405180910390f35b61011f61011a3660046109c3565b610288565b005b6101487ffb5864e8ff833c3cb2d2d08505e82ff02a43554c74a35d4f5a64e8526127831181565b604051908152602001610103565b6101486101643660046109de565b60009081526020819052604090206001015490565b6100f76101873660046109c3565b61031a565b61011f61019a3660046109f7565b61035a565b61011f6101ad3660046109f7565b610384565b61011f6101c03660046109c3565b610410565b61011f6101d33660046109c3565b61049a565b6101487fdf8b4c520ffe197c5343c6f5aec59570151ef9a492f2c624fd45ddde6135ec4281565b6100f761020d3660046109f7565b6000918252602082815260408084206001600160a01b0393909316845291905290205460ff1690565b610148600081565b61011f61024c3660046109f7565b6105fc565b60006001600160e01b03198216637965db0b60e01b148061028257506301ffc9a760e01b6001600160e01b03198316145b92915050565b6102913361031a565b6102ed5760405162461bcd60e51b815260206004820152602260248201527f41636365737369626c653a2043616c6c6572206973206e6f7420616e2061646d60448201526134b760f11b60648201526084015b60405180910390fd5b6103177fdf8b4c520ffe197c5343c6f5aec59570151ef9a492f2c624fd45ddde6135ec4282610384565b50565b6001600160a01b03811660009081527f5cbfc8ee58ca47855df7bcf648dd304ddb6b932f9b87878bdf6318d7ec7ee5b7602052604081205460ff16610282565b60008281526020819052604090206001015461037581610621565b61037f838361062b565b505050565b6001600160a01b03811633146104025760405162461bcd60e51b815260206004820152602f60248201527f416363657373436f6e74726f6c3a2063616e206f6e6c792072656e6f756e636560448201527f20726f6c657320666f722073656c66000000000000000000000000000000000060648201526084016102e4565b61040c82826106c9565b5050565b6104193361031a565b6104705760405162461bcd60e51b815260206004820152602260248201527f41636365737369626c653a2043616c6c6572206973206e6f7420616e2061646d60448201526134b760f11b60648201526084016102e4565b6103177fdf8b4c520ffe197c5343c6f5aec59570151ef9a492f2c624fd45ddde6135ec428261035a565b6104a33361031a565b6104fa5760405162461bcd60e51b815260206004820152602260248201527f41636365737369626c653a2043616c6c6572206973206e6f7420616e2061646d60448201526134b760f11b60648201526084016102e4565b6001600160a01b0381166105505760405162461bcd60e51b815260206004820152601860248201527f41636365737369626c653a207a65726f2061646472657373000000000000000060448201526064016102e4565b6001600160a01b03811633036105a85760405162461bcd60e51b815260206004820152601660248201527f41636365737369626c653a2073616d652061646d696e0000000000000000000060448201526064016102e4565b6105d27fdf8b4c520ffe197c5343c6f5aec59570151ef9a492f2c624fd45ddde6135ec428261035a565b6103177fdf8b4c520ffe197c5343c6f5aec59570151ef9a492f2c624fd45ddde6135ec4233610384565b60008281526020819052604090206001015461061781610621565b61037f83836106c9565b6103178133610748565b6000828152602081815260408083206001600160a01b038516845290915290205460ff1661040c576000828152602081815260408083206001600160a01b03851684529091529020805460ff191660011790556106853390565b6001600160a01b0316816001600160a01b0316837f2f8788117e7eff1d82e926ec794901d17c78024a50270940304540a733656f0d60405160405180910390a45050565b6000828152602081815260408083206001600160a01b038516845290915290205460ff161561040c576000828152602081815260408083206001600160a01b0385168085529252808320805460ff1916905551339285917ff6391f5c32d9c69d2a47ea670b442974b53935d1edc7fd64eb21e047a839171b9190a45050565b6000828152602081815260408083206001600160a01b038516845290915290205460ff1661040c57610779816107bb565b6107848360206107cd565b604051602001610795929190610a47565b60408051601f198184030181529082905262461bcd60e51b82526102e491600401610ac8565b60606102826001600160a01b03831660145b606060006107dc836002610b11565b6107e7906002610b28565b67ffffffffffffffff8111156107ff576107ff610b3b565b6040519080825280601f01601f191660200182016040528015610829576020820181803683370190505b509050600360fc1b8160008151811061084457610844610b51565b60200101906001600160f81b031916908160001a905350600f60fb1b8160018151811061087357610873610b51565b60200101906001600160f81b031916908160001a9053506000610897846002610b11565b6108a2906001610b28565b90505b6001811115610927577f303132333435363738396162636465660000000000000000000000000000000085600f16601081106108e3576108e3610b51565b1a60f81b8282815181106108f9576108f9610b51565b60200101906001600160f81b031916908160001a90535060049490941c9361092081610b67565b90506108a5565b5083156109765760405162461bcd60e51b815260206004820181905260248201527f537472696e67733a20686578206c656e67746820696e73756666696369656e7460448201526064016102e4565b9392505050565b60006020828403121561098f57600080fd5b81356001600160e01b03198116811461097657600080fd5b80356001600160a01b03811681146109be57600080fd5b919050565b6000602082840312156109d557600080fd5b610976826109a7565b6000602082840312156109f057600080fd5b5035919050565b60008060408385031215610a0a57600080fd5b82359150610a1a602084016109a7565b90509250929050565b60005b83811015610a3e578181015183820152602001610a26565b50506000910152565b7f416363657373436f6e74726f6c3a206163636f756e7420000000000000000000815260008351610a7f816017850160208801610a23565b7f206973206d697373696e6720726f6c65200000000000000000000000000000006017918401918201528351610abc816028840160208801610a23565b01602801949350505050565b6020815260008251806020840152610ae7816040850160208701610a23565b601f01601f19169190910160400192915050565b634e487b7160e01b600052601160045260246000fd5b808202811582820484141761028257610282610afb565b8082018082111561028257610282610afb565b634e487b7160e01b600052604160045260246000fd5b634e487b7160e01b600052603260045260246000fd5b600081610b7657610b76610afb565b50600019019056fea164736f6c6343000812000a",
  "linkReferences": {},
  "deployedLinkReferences": {}
}