{
  "_format": "hh-sol-artifact-1",
  "contractName": "LockTOSv2Storage",
  "sourceName": "contracts/stos/LockTOSv2Storage.sol",
  "abi": [
    {
      "inputs": [],
      "name": "MULTIPLIER",
      "outputs": [
        {
          "internalType": "uint256",
          "name": "",
          "type": "uint256"
        }
      ],
      "stateMutability": "view",
      "type": "function"
    },
    {
      "inputs": [
        {
          "internalType": "address",
          "name": "",
          "type": "address"
        },
        {
          "internalType": "address",
          "name": "",
          "type": "address"
        }
      ],
      "name": "_operatorApprovals",
      "outputs": [
        {
          "internalType": "bool",
          "name": "",
          "type": "bool"
        }
      ],
      "stateMutability": "view",
      "type": "function"
    },
    {
      "inputs": [
        {
          "internalType": "uint256",
          "name": "",
          "type": "uint256"
        }
      ],
      "name": "_tokenApprovals",
      "outputs": [
        {
          "internalType": "address",
          "name": "",
          "type": "address"
        }
      ],
      "stateMutability": "view",
      "type": "function"
    },
    {
      "inputs": [
        {
          "internalType": "uint256",
          "name": "",
          "type": "uint256"
        }
      ],
      "name": "allLocks",
      "outputs": [
        {
          "internalType": "address",
          "name": "owner",
          "type": "address"
        },
        {
          "internalType": "uint256",
          "name": "start",
          "type": "uint256"
        },
        {
          "internalType": "uint256",
          "name": "end",
          "type": "uint256"
        },
        {
          "internalType": "uint256",
          "name": "amount",
          "type": "uint256"
        },
        {
          "internalType": "uint256",
          "name": "withdrawalTime",
          "type": "uint256"
        }
      ],
      "stateMutability": "view",
      "type": "function"
    },
    {
      "inputs": [],
      "name": "baseURI",
      "outputs": [
        {
          "internalType": "string",
          "name": "",
          "type": "string"
        }
      ],
      "stateMutability": "view",
      "type": "function"
    },
    {
      "inputs": [],
      "name": "cumulativeEpochUnit",
      "outputs": [
        {
          "internalType": "uint256",
          "name": "",
          "type": "uint256"
        }
      ],
      "stateMutability": "view",
      "type": "function"
    },
    {
      "inputs": [],
      "name": "cumulativeTOSAmount",
      "outputs": [
        {
          "internalType": "uint256",
          "name": "",
          "type": "uint256"
        }
      ],
      "stateMutability": "view",
      "type": "function"
    },
    {
      "inputs": [],
      "name": "epochUnit",
      "outputs": [
        {
          "internalType": "uint256",
          "name": "",
          "type": "uint256"
        }
      ],
      "stateMutability": "view",
      "type": "function"
    },
    {
      "inputs": [
        {
          "internalType": "uint256",
          "name": "",
          "type": "uint256"
        }
      ],
      "name": "inUse",
      "outputs": [
        {
          "internalType": "bool",
          "name": "",
          "type": "bool"
        }
      ],
      "stateMutability": "view",
      "type": "function"
    },
    {
      "inputs": [
        {
          "internalType": "uint256",
          "name": "",
          "type": "uint256"
        }
      ],
      "name": "indexCheckOfTimesetForUnlimited",
      "outputs": [
        {
          "internalType": "bool",
          "name": "",
          "type": "bool"
        }
      ],
      "stateMutability": "view",
      "type": "function"
    },
    {
      "inputs": [
        {
          "internalType": "uint256",
          "name": "",
          "type": "uint256"
        }
      ],
      "name": "indexOfTimesetForUnlimited",
      "outputs": [
        {
          "internalType": "uint256",
          "name": "",
          "type": "uint256"
        }
      ],
      "stateMutability": "view",
      "type": "function"
    },
    {
      "inputs": [],
      "name": "lockIdCounter",
      "outputs": [
        {
          "internalType": "uint256",
          "name": "",
          "type": "uint256"
        }
      ],
      "stateMutability": "view",
      "type": "function"
    },
    {
      "inputs": [
        {
          "internalType": "uint256",
          "name": "",
          "type": "uint256"
        },
        {
          "internalType": "uint256",
          "name": "",
          "type": "uint256"
        }
      ],
      "name": "lockPointHistory",
      "outputs": [
        {
          "internalType": "int256",
          "name": "bias",
          "type": "int256"
        },
        {
          "internalType": "int256",
          "name": "slope",
          "type": "int256"
        },
        {
          "internalType": "uint256",
          "name": "timestamp",
          "type": "uint256"
        }
      ],
      "stateMutability": "view",
      "type": "function"
    },
    {
      "inputs": [],
      "name": "maxTime",
      "outputs": [
        {
          "internalType": "uint256",
          "name": "",
          "type": "uint256"
        }
      ],
      "stateMutability": "view",
      "type": "function"
    },
    {
      "inputs": [],
      "name": "name",
      "outputs": [
        {
          "internalType": "string",
          "name": "",
          "type": "string"
        }
      ],
      "stateMutability": "view",
      "type": "function"
    },
    {
      "inputs": [],
      "name": "pauseProxy",
      "outputs": [
        {
          "internalType": "bool",
          "name": "",
          "type": "bool"
        }
      ],
      "stateMutability": "view",
      "type": "function"
    },
    {
      "inputs": [
        {
          "internalType": "uint256",
          "name": "",
          "type": "uint256"
        }
      ],
      "name": "pointHistory",
      "outputs": [
        {
          "internalType": "int256",
          "name": "bias",
          "type": "int256"
        },
        {
          "internalType": "int256",
          "name": "slope",
          "type": "int256"
        },
        {
          "internalType": "uint256",
          "name": "timestamp",
          "type": "uint256"
        }
      ],
      "stateMutability": "view",
      "type": "function"
    },
    {
      "inputs": [
        {
          "internalType": "uint256",
          "name": "",
          "type": "uint256"
        }
      ],
      "name": "slopeChanges",
      "outputs": [
        {
          "internalType": "int256",
          "name": "",
          "type": "int256"
        }
      ],
      "stateMutability": "view",
      "type": "function"
    },
    {
      "inputs": [],
      "name": "symbol",
      "outputs": [
        {
          "internalType": "string",
          "name": "",
          "type": "string"
        }
      ],
      "stateMutability": "view",
      "type": "function"
    },
    {
      "inputs": [
        {
          "internalType": "uint256",
          "name": "",
          "type": "uint256"
        }
      ],
      "name": "tokenURIs",
      "outputs": [
        {
          "internalType": "string",
          "name": "",
          "type": "string"
        }
      ],
      "stateMutability": "view",
      "type": "function"
    },
    {
      "inputs": [],
      "name": "tos",
      "outputs": [
        {
          "internalType": "address",
          "name": "",
          "type": "address"
        }
      ],
      "stateMutability": "view",
      "type": "function"
    },
    {
      "inputs": [
        {
          "internalType": "address",
          "name": "",
          "type": "address"
        },
        {
          "internalType": "uint256",
          "name": "",
          "type": "uint256"
        }
      ],
      "name": "unlimitedAmountByAccount",
      "outputs": [
        {
          "internalType": "uint32",
          "name": "timestamp",
          "type": "uint32"
        },
        {
          "internalType": "uint256",
          "name": "amount",
          "type": "uint256"
        }
      ],
      "stateMutability": "view",
      "type": "function"
    },
    {
      "inputs": [
        {
          "internalType": "uint256",
          "name": "",
          "type": "uint256"
        },
        {
          "internalType": "uint256",
          "name": "",
          "type": "uint256"
        }
      ],
      "name": "unlimitedHistoryByWeek",
      "outputs": [
        {
          "internalType": "uint32",
          "name": "timestamp",
          "type": "uint32"
        },
        {
          "internalType": "uint256",
          "name": "amount",
          "type": "uint256"
        }
      ],
      "stateMutability": "view",
      "type": "function"
    },
    {
      "inputs": [
        {
          "internalType": "address",
          "name": "",
          "type": "address"
        },
        {
          "internalType": "uint256",
          "name": "",
          "type": "uint256"
        }
      ],
      "name": "userLocks",
      "outputs": [
        {
          "internalType": "uint256",
          "name": "",
          "type": "uint256"
        }
      ],
      "stateMutability": "view",
      "type": "function"
    },
    {
      "inputs": [
        {
          "internalType": "address",
          "name": "",
          "type": "address"
        },
        {
          "internalType": "uint256",
          "name": "",
          "type": "uint256"
        }
      ],
      "name": "userLocksCheck",
      "outputs": [
        {
          "internalType": "bool",
          "name": "",
          "type": "bool"
        }
      ],
      "stateMutability": "view",
      "type": "function"
    }
  ],
  "bytecode": "0x6080604052600160185534801561001557600080fd5b506107b4806100256000396000f3fe608060405234801561001057600080fd5b50600436106101a35760003560e01c806395d89b41116100ee578063b8355a4b11610097578063cd29ca0e11610071578063cd29ca0e14610424578063edc3bc3f1461042d578063f52a36f71461045b578063fd2dcecf1461047b57600080fd5b8063b8355a4b146103c0578063b9f2679b146103d3578063c79acdda1461040157600080fd5b8063aa33fedb116100c8578063aa33fedb1461039b578063afae883e146103ae578063b534ad56146103b757600080fd5b806395d89b4114610357578063993b6ef91461035f578063a7cc01361461037257600080fd5b80636c0360eb11610150578063872d01091161012a578063872d0109146102f657806389f395de146103195780638ad4c4471461034457600080fd5b80636c0360eb146102ac5780636c8b703f146102b45780637267ad63146102c757600080fd5b8063367b7b2311610181578063367b7b23146101e857806363a8fd891461021657806363d5a3d91461023357600080fd5b8063059f8b16146101a857806306fdde03146101ca57806322e67e71146101df575b600080fd5b6101b7670de0b6b3a764000081565b6040519081526020015b60405180910390f35b6101d2610484565b6040516101c1919061066b565b6101b760025481565b6101fb6101f63660046106b9565b610512565b604080519384526020840192909252908201526060016101c1565b6000546102239060ff1681565b60405190151581526020016101c1565b61027a6102413660046106db565b600e60205260009081526040902080546001820154600283015460038401546004909401546001600160a01b0390931693919290919085565b604080516001600160a01b0390961686526020860194909452928401919091526060830152608082015260a0016101c1565b6101d2610554565b6101d26102c23660046106db565b610561565b6102da6102d53660046106b9565b61057a565b6040805163ffffffff90931683526020830191909152016101c1565b6102236103043660046106db565b60176020526000908152604090205460ff1681565b60035461032c906001600160a01b031681565b6040516001600160a01b0390911681526020016101c1565b6101fb6103523660046106db565b6105bd565b6101d26105f0565b6102da61036d366004610710565b6105fd565b61032c6103803660046106db565b6012602052600090815260409020546001600160a01b031681565b6101b76103a9366004610710565b610619565b6101b760045481565b6101b760055481565b6101b76103ce3660046106db565b61064a565b6102236103e1366004610710565b600d60209081526000928352604080842090915290825290205460ff1681565b61022361040f3660046106db565b60116020526000908152604090205460ff1681565b6101b760065481565b61022361043b36600461073a565b601360209081526000928352604080842090915290825290205460ff1681565b6101b76104693660046106db565b60106020526000908152604090205481565b6101b760015481565b600780546104919061076d565b80601f01602080910402602001604051908101604052809291908181526020018280546104bd9061076d565b801561050a5780601f106104df5761010080835404028352916020019161050a565b820191906000526020600020905b8154815290600101906020018083116104ed57829003601f168201915b505050505081565b600c602052816000526040600020818154811061052e57600080fd5b600091825260209091206003909102018054600182015460029092015490935090915083565b600a80546104919061076d565b600960205260009081526040902080546104919061076d565b6015602052816000526040600020818154811061059657600080fd5b60009182526020909120600290910201805460019091015463ffffffff9091169250905082565b600b81815481106105cd57600080fd5b600091825260209091206003909102018054600182015460029092015490925083565b600880546104919061076d565b6014602052816000526040600020818154811061059657600080fd5b600f602052816000526040600020818154811061063557600080fd5b90600052602060002001600091509150505481565b6016818154811061065a57600080fd5b600091825260209091200154905081565b600060208083528351808285015260005b818110156106985785810183015185820160400152820161067c565b506000604082860101526040601f19601f8301168501019250505092915050565b600080604083850312156106cc57600080fd5b50508035926020909101359150565b6000602082840312156106ed57600080fd5b5035919050565b80356001600160a01b038116811461070b57600080fd5b919050565b6000806040838503121561072357600080fd5b61072c836106f4565b946020939093013593505050565b6000806040838503121561074d57600080fd5b610756836106f4565b9150610764602084016106f4565b90509250929050565b600181811c9082168061078157607f821691505b6020821081036107a157634e487b7160e01b600052602260045260246000fd5b5091905056fea164736f6c6343000812000a",
  "linkReferences": {},
  "deployedLinkReferences": {}
}