{
  "_format": "hh-sol-artifact-1",
  "contractName": "ProxyAccessCommon",
  "sourceName": "contracts/common/ProxyAccessCommon.sol",
  "abi": [
    {
      "anonymous": false,
      "inputs": [
        {
          "indexed": true,
          "internalType": "bytes32",
          "name": "role",
          "type": "bytes32"
        },
        {
          "indexed": true,
          "internalType": "bytes32",
          "name": "previousAdminRole",
          "type": "bytes32"
        },
        {
          "indexed": true,
          "internalType": "bytes32",
          "name": "newAdminRole",
          "type": "bytes32"
        }
      ],
      "name": "RoleAdminChanged",
      "type": "event"
    },
    {
      "anonymous": false,
      "inputs": [
        {
          "indexed": true,
          "internalType": "bytes32",
          "name": "role",
          "type": "bytes32"
        },
        {
          "indexed": true,
          "internalType": "address",
          "name": "account",
          "type": "address"
        },
        {
          "indexed": true,
          "internalType": "address",
          "name": "sender",
          "type": "address"
        }
      ],
      "name": "RoleGranted",
      "type": "event"
    },
    {
      "anonymous": false,
      "inputs": [
        {
          "indexed": true,
          "internalType": "bytes32",
          "name": "role",
          "type": "bytes32"
        },
        {
          "indexed": true,
          "internalType": "address",
          "name": "account",
          "type": "address"
        },
        {
          "indexed": true,
          "internalType": "address",
          "name": "sender",
          "type": "address"
        }
      ],
      "name": "RoleRevoked",
      "type": "event"
    },
    {
      "inputs": [],
      "name": "ADMIN_ROLE",
      "outputs": [
        {
          "internalType": "bytes32",
          "name": "",
          "type": "bytes32"
        }
      ],
      "stateMutability": "view",
      "type": "function"
    },
    {
      "inputs": [],
      "name": "DEFAULT_ADMIN_ROLE",
      "outputs": [
        {
          "internalType": "bytes32",
          "name": "",
          "type": "bytes32"
        }
      ],
      "stateMutability": "view",
      "type": "function"
    },
    {
      "inputs": [],
      "name": "POLICY_ROLE",
      "outputs": [
        {
          "internalType": "bytes32",
          "name": "",
          "type": "bytes32"
        }
      ],
      "stateMutability": "view",
      "type": "function"
    },
    {
      "inputs": [
        {
          "internalType": "address",
          "name": "account",
          "type": "address"
        }
      ],
      "name": "addAdmin",
      "outputs": [],
      "stateMutability": "nonpayable",
      "type": "function"
    },
    {
      "inputs": [
        {
          "internalType": "address",
          "name": "_account",
          "type": "address"
        }
      ],
      "name": "addPolicy",
      "outputs": [],
      "stateMutability": "nonpayable",
      "type": "function"
    },
    {
      "inputs": [
        {
          "internalType": "address",
          "name": "_owner",
          "type": "address"
        }
      ],
      "name": "addProxyAdmin",
      "outputs": [],
      "stateMutability": "nonpayable",
      "type": "function"
    },
    {
      "inputs": [
        {
          "internalType": "address",
          "name": "_account",
          "type": "address"
        }
      ],
      "name": "deletePolicy",
      "outputs": [],
      "stateMutability": "nonpayable",
      "type": "function"
    },
    {
      "inputs": [
        {
          "internalType": "bytes32",
          "name": "role",
          "type": "bytes32"
        }
      ],
      "name": "getRoleAdmin",
      "outputs": [
        {
          "internalType": "bytes32",
          "name": "",
          "type": "bytes32"
        }
      ],
      "stateMutability": "view",
      "type": "function"
    },
    {
      "inputs": [
        {
          "internalType": "bytes32",
          "name": "role",
          "type": "bytes32"
        },
        {
          "internalType": "address",
          "name": "account",
          "type": "address"
        }
      ],
      "name": "grantRole",
      "outputs": [],
      "stateMutability": "nonpayable",
      "type": "function"
    },
    {
      "inputs": [
        {
          "internalType": "bytes32",
          "name": "role",
          "type": "bytes32"
        },
        {
          "internalType": "address",
          "name": "account",
          "type": "address"
        }
      ],
      "name": "hasRole",
      "outputs": [
        {
          "internalType": "bool",
          "name": "",
          "type": "bool"
        }
      ],
      "stateMutability": "view",
      "type": "function"
    },
    {
      "inputs": [
        {
          "internalType": "address",
          "name": "account",
          "type": "address"
        }
      ],
      "name": "isAdmin",
      "outputs": [
        {
          "internalType": "bool",
          "name": "",
          "type": "bool"
        }
      ],
      "stateMutability": "view",
      "type": "function"
    },
    {
      "inputs": [
        {
          "internalType": "address",
          "name": "account",
          "type": "address"
        }
      ],
      "name": "isPolicy",
      "outputs": [
        {
          "internalType": "bool",
          "name": "",
          "type": "bool"
        }
      ],
      "stateMutability": "view",
      "type": "function"
    },
    {
      "inputs": [
        {
          "internalType": "address",
          "name": "account",
          "type": "address"
        }
      ],
      "name": "isProxyAdmin",
      "outputs": [
        {
          "internalType": "bool",
          "name": "",
          "type": "bool"
        }
      ],
      "stateMutability": "view",
      "type": "function"
    },
    {
      "inputs": [],
      "name": "removeAdmin",
      "outputs": [],
      "stateMutability": "nonpayable",
      "type": "function"
    },
    {
      "inputs": [],
      "name": "removePolicy",
      "outputs": [],
      "stateMutability": "nonpayable",
      "type": "function"
    },
    {
      "inputs": [],
      "name": "removeProxyAdmin",
      "outputs": [],
      "stateMutability": "nonpayable",
      "type": "function"
    },
    {
      "inputs": [
        {
          "internalType": "bytes32",
          "name": "role",
          "type": "bytes32"
        },
        {
          "internalType": "address",
          "name": "account",
          "type": "address"
        }
      ],
      "name": "renounceRole",
      "outputs": [],
      "stateMutability": "nonpayable",
      "type": "function"
    },
    {
      "inputs": [
        {
          "internalType": "bytes32",
          "name": "role",
          "type": "bytes32"
        },
        {
          "internalType": "address",
          "name": "account",
          "type": "address"
        }
      ],
      "name": "revokeRole",
      "outputs": [],
      "stateMutability": "nonpayable",
      "type": "function"
    },
    {
      "inputs": [
        {
          "internalType": "bytes4",
          "name": "interfaceId",
          "type": "bytes4"
        }
      ],
      "name": "supportsInterface",
      "outputs": [
        {
          "internalType": "bool",
          "name": "",
          "type": "bool"
        }
      ],
      "stateMutability": "view",
      "type": "function"
    },
    {
      "inputs": [
        {
          "internalType": "address",
          "name": "newAdmin",
          "type": "address"
        }
      ],
      "name": "transferAdmin",
      "outputs": [],
      "stateMutability": "nonpayable",
      "type": "function"
    },
    {
      "inputs": [
        {
          "internalType": "address",
          "name": "newAdmin",
          "type": "address"
        }
      ],
      "name": "transferProxyAdmin",
      "outputs": [],
      "stateMutability": "nonpayable",
      "type": "function"
    }
  ],
  "bytecode": "0x608060405234801561001057600080fd5b50611107806100206000396000f3fe608060405234801561001057600080fd5b50600436106101775760003560e01c806375b238fc116100d8578063a217fddf1161008c578063d547741f11610066578063d547741f14610327578063f47f2f1d1461033a578063fad1c85c1461034d57600080fd5b8063a217fddf14610304578063b84ef0811461030c578063be72f2d31461031f57600080fd5b806391d14854116100bd57806391d14854146102b257806396f1557c146102e95780639a202d47146102fc57600080fd5b806375b238fc146102785780638356ca4f1461029f57600080fd5b806336568abe1161012f57806365cb3a831161011457806365cb3a831461024a578063704802751461025257806375829def1461026557600080fd5b806336568abe146102245780635fabdf7c1461023757600080fd5b8063248a9ca311610160578063248a9ca3146101d957806324d7806c146101fc5780632f2ff15d1461020f57600080fd5b806301ffc9a71461017c57806322985246146101a4575b600080fd5b61018f61018a366004610ef9565b610360565b60405190151581526020015b60405180910390f35b6101cb7ffb5864e8ff833c3cb2d2d08505e82ff02a43554c74a35d4f5a64e8526127831181565b60405190815260200161019b565b6101cb6101e7366004610f23565b60009081526020819052604090206001015490565b61018f61020a366004610f58565b610397565b61022261021d366004610f73565b6103d7565b005b610222610232366004610f73565b610401565b610222610245366004610f58565b610492565b610222610525565b610222610260366004610f58565b6105b8565b610222610273366004610f58565b610648565b6101cb7fdf8b4c520ffe197c5343c6f5aec59570151ef9a492f2c624fd45ddde6135ec4281565b6102226102ad366004610f58565b6107b9565b61018f6102c0366004610f73565b6000918252602082815260408084206001600160a01b0393909316845291905290205460ff1690565b6102226102f7366004610f58565b6108e3565b610222610954565b6101cb600081565b61022261031a366004610f58565b6109ed565b610222610a7d565b610222610335366004610f73565b610aee565b61018f610348366004610f58565b610b13565b61018f61035b366004610f58565b610b53565b60006001600160e01b03198216637965db0b60e01b148061039157506301ffc9a760e01b6001600160e01b03198316145b92915050565b6001600160a01b03811660009081527f5cbfc8ee58ca47855df7bcf648dd304ddb6b932f9b87878bdf6318d7ec7ee5b7602052604081205460ff16610391565b6000828152602081905260409020600101546103f281610b93565b6103fc8383610b9d565b505050565b6001600160a01b03811633146104845760405162461bcd60e51b815260206004820152602f60248201527f416363657373436f6e74726f6c3a2063616e206f6e6c792072656e6f756e636560448201527f20726f6c657320666f722073656c66000000000000000000000000000000000060648201526084015b60405180910390fd5b61048e8282610c3b565b5050565b61049b33610b13565b6104f85760405162461bcd60e51b815260206004820152602860248201527f41636365737369626c653a2043616c6c6572206973206e6f7420616e2070726f6044820152673c3c9030b236b4b760c11b606482015260840161047b565b6105227ffb5864e8ff833c3cb2d2d08505e82ff02a43554c74a35d4f5a64e8526127831182610aee565b50565b61052e33610b53565b61058c5760405162461bcd60e51b815260206004820152602960248201527f41636365737369626c653a2043616c6c6572206973206e6f7420616e20706f6c60448201526834b1bc9030b236b4b760b91b606482015260840161047b565b6105b67ffb5864e8ff833c3cb2d2d08505e82ff02a43554c74a35d4f5a64e8526127831133610401565b565b6105c133610b13565b61061e5760405162461bcd60e51b815260206004820152602860248201527f41636365737369626c653a2043616c6c6572206973206e6f7420616e2070726f6044820152673c3c9030b236b4b760c11b606482015260840161047b565b6105227fdf8b4c520ffe197c5343c6f5aec59570151ef9a492f2c624fd45ddde6135ec42826103d7565b61065133610397565b80610660575061066033610b13565b6106b75760405162461bcd60e51b815260206004820152602260248201527f41636365737369626c653a2043616c6c6572206973206e6f7420616e2061646d60448201526134b760f11b606482015260840161047b565b6001600160a01b03811661070d5760405162461bcd60e51b815260206004820152601860248201527f41636365737369626c653a207a65726f20616464726573730000000000000000604482015260640161047b565b6001600160a01b03811633036107655760405162461bcd60e51b815260206004820152601660248201527f41636365737369626c653a2073616d652061646d696e00000000000000000000604482015260640161047b565b61078f7fdf8b4c520ffe197c5343c6f5aec59570151ef9a492f2c624fd45ddde6135ec42826103d7565b6105227fdf8b4c520ffe197c5343c6f5aec59570151ef9a492f2c624fd45ddde6135ec4233610401565b6107c233610b13565b61081f5760405162461bcd60e51b815260206004820152602860248201527f41636365737369626c653a2043616c6c6572206973206e6f7420616e2070726f6044820152673c3c9030b236b4b760c11b606482015260840161047b565b6001600160a01b0381166108755760405162461bcd60e51b815260206004820152601860248201527f41636365737369626c653a207a65726f20616464726573730000000000000000604482015260640161047b565b6001600160a01b03811633036108cd5760405162461bcd60e51b815260206004820152601660248201527f41636365737369626c653a2073616d652061646d696e00000000000000000000604482015260640161047b565b6108d86000826103d7565b610522600033610401565b6108ec33610b13565b6109495760405162461bcd60e51b815260206004820152602860248201527f41636365737369626c653a2043616c6c6572206973206e6f7420616e2070726f6044820152673c3c9030b236b4b760c11b606482015260840161047b565b610522600082610cba565b61095d33610397565b8061096c575061096c33610b13565b6109c35760405162461bcd60e51b815260206004820152602260248201527f41636365737369626c653a2043616c6c6572206973206e6f7420616e2061646d60448201526134b760f11b606482015260840161047b565b6105b67fdf8b4c520ffe197c5343c6f5aec59570151ef9a492f2c624fd45ddde6135ec4233610401565b6109f633610b13565b610a535760405162461bcd60e51b815260206004820152602860248201527f41636365737369626c653a2043616c6c6572206973206e6f7420616e2070726f6044820152673c3c9030b236b4b760c11b606482015260840161047b565b6105227ffb5864e8ff833c3cb2d2d08505e82ff02a43554c74a35d4f5a64e85261278311826103d7565b610a8633610b13565b610ae35760405162461bcd60e51b815260206004820152602860248201527f41636365737369626c653a2043616c6c6572206973206e6f7420616e2070726f6044820152673c3c9030b236b4b760c11b606482015260840161047b565b6105b6600033610401565b600082815260208190526040902060010154610b0981610b93565b6103fc8383610c3b565b6001600160a01b03811660009081527fad3228b676f7d3cd4284a5443f17f1962b36e491b30a40b2405849e597ba5fb5602052604081205460ff16610391565b6001600160a01b03811660009081527f0c04d32de920659c4e17776678bb1549241e67cf1288598a77d82b72bdd31f1e602052604081205460ff16610391565b6105228133610cc4565b6000828152602081815260408083206001600160a01b038516845290915290205460ff1661048e576000828152602081815260408083206001600160a01b03851684529091529020805460ff19166001179055610bf73390565b6001600160a01b0316816001600160a01b0316837f2f8788117e7eff1d82e926ec794901d17c78024a50270940304540a733656f0d60405160405180910390a45050565b6000828152602081815260408083206001600160a01b038516845290915290205460ff161561048e576000828152602081815260408083206001600160a01b0385168085529252808320805460ff1916905551339285917ff6391f5c32d9c69d2a47ea670b442974b53935d1edc7fd64eb21e047a839171b9190a45050565b61048e8282610b9d565b6000828152602081815260408083206001600160a01b038516845290915290205460ff1661048e57610cf581610d37565b610d00836020610d49565b604051602001610d11929190610fc3565b60408051601f198184030181529082905262461bcd60e51b825261047b91600401611044565b60606103916001600160a01b03831660145b60606000610d5883600261108d565b610d639060026110a4565b67ffffffffffffffff811115610d7b57610d7b6110b7565b6040519080825280601f01601f191660200182016040528015610da5576020820181803683370190505b509050600360fc1b81600081518110610dc057610dc06110cd565b60200101906001600160f81b031916908160001a905350600f60fb1b81600181518110610def57610def6110cd565b60200101906001600160f81b031916908160001a9053506000610e1384600261108d565b610e1e9060016110a4565b90505b6001811115610ea3577f303132333435363738396162636465660000000000000000000000000000000085600f1660108110610e5f57610e5f6110cd565b1a60f81b828281518110610e7557610e756110cd565b60200101906001600160f81b031916908160001a90535060049490941c93610e9c816110e3565b9050610e21565b508315610ef25760405162461bcd60e51b815260206004820181905260248201527f537472696e67733a20686578206c656e67746820696e73756666696369656e74604482015260640161047b565b9392505050565b600060208284031215610f0b57600080fd5b81356001600160e01b031981168114610ef257600080fd5b600060208284031215610f3557600080fd5b5035919050565b80356001600160a01b0381168114610f5357600080fd5b919050565b600060208284031215610f6a57600080fd5b610ef282610f3c565b60008060408385031215610f8657600080fd5b82359150610f9660208401610f3c565b90509250929050565b60005b83811015610fba578181015183820152602001610fa2565b50506000910152565b7f416363657373436f6e74726f6c3a206163636f756e7420000000000000000000815260008351610ffb816017850160208801610f9f565b7f206973206d697373696e6720726f6c65200000000000000000000000000000006017918401918201528351611038816028840160208801610f9f565b01602801949350505050565b6020815260008251806020840152611063816040850160208701610f9f565b601f01601f19169190910160400192915050565b634e487b7160e01b600052601160045260246000fd5b808202811582820484141761039157610391611077565b8082018082111561039157610391611077565b634e487b7160e01b600052604160045260246000fd5b634e487b7160e01b600052603260045260246000fd5b6000816110f2576110f2611077565b50600019019056fea164736f6c6343000812000a",
  "linkReferences": {},
  "deployedLinkReferences": {}
}