{
  "_format": "hh-sol-artifact-1",
  "contractName": "LibProject",
  "sourceName": "contracts/libraries/LibProject.sol",
  "abi": [
    {
      "inputs": [
        {
          "internalType": "address",
          "name": "addressManager",
          "type": "address"
        }
      ],
      "name": "getL1Bridge",
      "outputs": [
        {
          "internalType": "address",
          "name": "_address",
          "type": "address"
        }
      ],
      "stateMutability": "view",
      "type": "function"
    },
    {
      "inputs": [
        {
          "internalType": "address",
          "name": "addressManager",
          "type": "address"
        }
      ],
      "name": "getL1CommunicationMessenger",
      "outputs": [
        {
          "internalType": "address",
          "name": "_address",
          "type": "address"
        }
      ],
      "stateMutability": "view",
      "type": "function"
    },
    {
      "inputs": [
        {
          "components": [
            {
              "internalType": "string",
              "name": "vaultName",
              "type": "string"
            },
            {
              "internalType": "address",
              "name": "claimer",
              "type": "address"
            },
            {
              "internalType": "uint256",
              "name": "totalAllocatedAmount",
              "type": "uint256"
            }
          ],
          "internalType": "struct LibProject.InitalParameterNonScheduleVault[]",
          "name": "customs",
          "type": "tuple[]"
        }
      ],
      "name": "validateNonScheduleVault",
      "outputs": [
        {
          "internalType": "bool",
          "name": "boolValidate",
          "type": "bool"
        },
        {
          "internalType": "uint256",
          "name": "totalAmount",
          "type": "uint256"
        }
      ],
      "stateMutability": "pure",
      "type": "function"
    },
    {
      "inputs": [
        {
          "components": [
            {
              "internalType": "string",
              "name": "vaultName",
              "type": "string"
            },
            {
              "components": [
                {
                  "internalType": "address",
                  "name": "claimer",
                  "type": "address"
                },
                {
                  "internalType": "uint256",
                  "name": "totalAllocatedAmount",
                  "type": "uint256"
                },
                {
                  "internalType": "uint256",
                  "name": "totalClaimCount",
                  "type": "uint256"
                },
                {
                  "internalType": "uint256",
                  "name": "firstClaimAmount",
                  "type": "uint256"
                },
                {
                  "internalType": "uint32",
                  "name": "firstClaimTime",
                  "type": "uint32"
                },
                {
                  "internalType": "uint32",
                  "name": "secondClaimTime",
                  "type": "uint32"
                },
                {
                  "internalType": "uint32",
                  "name": "roundIntervalTime",
                  "type": "uint32"
                }
              ],
              "internalType": "struct LibProject.InitalParameterScheduleVault",
              "name": "params",
              "type": "tuple"
            }
          ],
          "internalType": "struct LibProject.InitalParameterSchedule[]",
          "name": "customs",
          "type": "tuple[]"
        }
      ],
      "name": "validateScheduleVault",
      "outputs": [
        {
          "internalType": "bool",
          "name": "boolValidate",
          "type": "bool"
        },
        {
          "internalType": "uint256",
          "name": "totalAmount",
          "type": "uint256"
        }
      ],
      "stateMutability": "pure",
      "type": "function"
    },
    {
      "inputs": [
        {
          "components": [
            {
              "components": [
                {
                  "components": [
                    {
                      "internalType": "uint256",
                      "name": "stosTier1",
                      "type": "uint256"
                    },
                    {
                      "internalType": "uint256",
                      "name": "stosTier2",
                      "type": "uint256"
                    },
                    {
                      "internalType": "uint256",
                      "name": "stosTier3",
                      "type": "uint256"
                    },
                    {
                      "internalType": "uint256",
                      "name": "stosTier4",
                      "type": "uint256"
                    },
                    {
                      "internalType": "uint256",
                      "name": "tier1Percents",
                      "type": "uint256"
                    },
                    {
                      "internalType": "uint256",
                      "name": "tier2Percents",
                      "type": "uint256"
                    },
                    {
                      "internalType": "uint256",
                      "name": "tier3Percents",
                      "type": "uint256"
                    },
                    {
                      "internalType": "uint256",
                      "name": "tier4Percents",
                      "type": "uint256"
                    },
                    {
                      "internalType": "uint256",
                      "name": "total1roundSaleAmount",
                      "type": "uint256"
                    },
                    {
                      "internalType": "uint256",
                      "name": "total2roundSaleAmount",
                      "type": "uint256"
                    },
                    {
                      "internalType": "uint256",
                      "name": "saleTokenPrice",
                      "type": "uint256"
                    },
                    {
                      "internalType": "uint256",
                      "name": "payTokenPrice",
                      "type": "uint256"
                    },
                    {
                      "internalType": "uint256",
                      "name": "hardcapAmount",
                      "type": "uint256"
                    },
                    {
                      "internalType": "uint256",
                      "name": "changeTOSPercent",
                      "type": "uint256"
                    },
                    {
                      "internalType": "uint256",
                      "name": "startWhiteTime",
                      "type": "uint256"
                    },
                    {
                      "internalType": "uint256",
                      "name": "endWhiteTime",
                      "type": "uint256"
                    },
                    {
                      "internalType": "uint256",
                      "name": "start1roundTime",
                      "type": "uint256"
                    },
                    {
                      "internalType": "uint256",
                      "name": "end1roundTime",
                      "type": "uint256"
                    },
                    {
                      "internalType": "uint256",
                      "name": "snapshotTime",
                      "type": "uint256"
                    },
                    {
                      "internalType": "uint256",
                      "name": "start2roundTime",
                      "type": "uint256"
                    },
                    {
                      "internalType": "uint256",
                      "name": "end2roundTime",
                      "type": "uint256"
                    }
                  ],
                  "internalType": "struct LibProject.InitalParameterPublicSaleVault",
                  "name": "vaultParams",
                  "type": "tuple"
                },
                {
                  "components": [
                    {
                      "internalType": "uint256",
                      "name": "claimCounts",
                      "type": "uint256"
                    },
                    {
                      "internalType": "uint256",
                      "name": "firstClaimPercent",
                      "type": "uint256"
                    },
                    {
                      "internalType": "uint256",
                      "name": "firstClaimTime",
                      "type": "uint256"
                    },
                    {
                      "internalType": "uint256",
                      "name": "secondClaimTime",
                      "type": "uint256"
                    },
                    {
                      "internalType": "uint256",
                      "name": "roundInterval",
                      "type": "uint256"
                    }
                  ],
                  "internalType": "struct LibProject.InitalParameterPublicSaleClaim",
                  "name": "claimParams",
                  "type": "tuple"
                },
                {
                  "components": [
                    {
                      "internalType": "address",
                      "name": "receiveAddress",
                      "type": "address"
                    },
                    {
                      "internalType": "uint256",
                      "name": "totalClaimCount",
                      "type": "uint256"
                    },
                    {
                      "internalType": "uint256",
                      "name": "firstClaimPercent",
                      "type": "uint256"
                    },
                    {
                      "internalType": "uint256",
                      "name": "firstClaimTime",
                      "type": "uint256"
                    },
                    {
                      "internalType": "uint256",
                      "name": "secondClaimTime",
                      "type": "uint256"
                    },
                    {
                      "internalType": "uint256",
                      "name": "roundIntervalTime",
                      "type": "uint256"
                    },
                    {
                      "internalType": "uint24",
                      "name": "fee",
                      "type": "uint24"
                    }
                  ],
                  "internalType": "struct LibProject.InitalParameterVestingFundVault",
                  "name": "vestingParams",
                  "type": "tuple"
                }
              ],
              "internalType": "struct LibProject.InitalParameterPublicSale",
              "name": "publicSaleParams",
              "type": "tuple"
            },
            {
              "components": [
                {
                  "internalType": "uint256",
                  "name": "totalAllocatedAmount",
                  "type": "uint256"
                },
                {
                  "internalType": "uint256",
                  "name": "tosPrice",
                  "type": "uint256"
                },
                {
                  "internalType": "uint256",
                  "name": "tokenPrice",
                  "type": "uint256"
                },
                {
                  "internalType": "uint256",
                  "name": "initSqrtPrice",
                  "type": "uint256"
                },
                {
                  "internalType": "uint32",
                  "name": "startTime",
                  "type": "uint32"
                },
                {
                  "internalType": "uint16",
                  "name": "fee",
                  "type": "uint16"
                }
              ],
              "internalType": "struct LibProject.InitalParameterInitialLiquidityVault",
              "name": "initialVaultParams",
              "type": "tuple"
            },
            {
              "components": [
                {
                  "components": [
                    {
                      "internalType": "address",
                      "name": "token0",
                      "type": "address"
                    },
                    {
                      "internalType": "address",
                      "name": "token1",
                      "type": "address"
                    },
                    {
                      "internalType": "uint24",
                      "name": "fee",
                      "type": "uint24"
                    }
                  ],
                  "internalType": "struct LibPool.PoolInfo",
                  "name": "poolParams",
                  "type": "tuple"
                },
                {
                  "components": [
                    {
                      "internalType": "address",
                      "name": "claimer",
                      "type": "address"
                    },
                    {
                      "internalType": "uint256",
                      "name": "totalAllocatedAmount",
                      "type": "uint256"
                    },
                    {
                      "internalType": "uint256",
                      "name": "totalClaimCount",
                      "type": "uint256"
                    },
                    {
                      "internalType": "uint256",
                      "name": "firstClaimAmount",
                      "type": "uint256"
                    },
                    {
                      "internalType": "uint32",
                      "name": "firstClaimTime",
                      "type": "uint32"
                    },
                    {
                      "internalType": "uint32",
                      "name": "secondClaimTime",
                      "type": "uint32"
                    },
                    {
                      "internalType": "uint32",
                      "name": "roundIntervalTime",
                      "type": "uint32"
                    }
                  ],
                  "internalType": "struct LibProject.InitalParameterScheduleVault",
                  "name": "params",
                  "type": "tuple"
                }
              ],
              "internalType": "struct LibProject.InitalParameterLiquidityRewardVault",
              "name": "rewardTonTosPoolParams",
              "type": "tuple"
            },
            {
              "components": [
                {
                  "components": [
                    {
                      "internalType": "address",
                      "name": "token0",
                      "type": "address"
                    },
                    {
                      "internalType": "address",
                      "name": "token1",
                      "type": "address"
                    },
                    {
                      "internalType": "uint24",
                      "name": "fee",
                      "type": "uint24"
                    }
                  ],
                  "internalType": "struct LibPool.PoolInfo",
                  "name": "poolParams",
                  "type": "tuple"
                },
                {
                  "components": [
                    {
                      "internalType": "address",
                      "name": "claimer",
                      "type": "address"
                    },
                    {
                      "internalType": "uint256",
                      "name": "totalAllocatedAmount",
                      "type": "uint256"
                    },
                    {
                      "internalType": "uint256",
                      "name": "totalClaimCount",
                      "type": "uint256"
                    },
                    {
                      "internalType": "uint256",
                      "name": "firstClaimAmount",
                      "type": "uint256"
                    },
                    {
                      "internalType": "uint32",
                      "name": "firstClaimTime",
                      "type": "uint32"
                    },
                    {
                      "internalType": "uint32",
                      "name": "secondClaimTime",
                      "type": "uint32"
                    },
                    {
                      "internalType": "uint32",
                      "name": "roundIntervalTime",
                      "type": "uint32"
                    }
                  ],
                  "internalType": "struct LibProject.InitalParameterScheduleVault",
                  "name": "params",
                  "type": "tuple"
                }
              ],
              "internalType": "struct LibProject.InitalParameterLiquidityRewardVault",
              "name": "rewardProjectTosPoolParams",
              "type": "tuple"
            },
            {
              "components": [
                {
                  "internalType": "address",
                  "name": "claimer",
                  "type": "address"
                },
                {
                  "internalType": "uint256",
                  "name": "totalAllocatedAmount",
                  "type": "uint256"
                },
                {
                  "internalType": "uint256",
                  "name": "totalClaimCount",
                  "type": "uint256"
                },
                {
                  "internalType": "uint256",
                  "name": "firstClaimAmount",
                  "type": "uint256"
                },
                {
                  "internalType": "uint32",
                  "name": "firstClaimTime",
                  "type": "uint32"
                },
                {
                  "internalType": "uint32",
                  "name": "secondClaimTime",
                  "type": "uint32"
                },
                {
                  "internalType": "uint32",
                  "name": "roundIntervalTime",
                  "type": "uint32"
                }
              ],
              "internalType": "struct LibProject.InitalParameterScheduleVault",
              "name": "tosAirdropParams",
              "type": "tuple"
            },
            {
              "components": [
                {
                  "internalType": "address",
                  "name": "claimer",
                  "type": "address"
                },
                {
                  "internalType": "uint256",
                  "name": "totalAllocatedAmount",
                  "type": "uint256"
                },
                {
                  "internalType": "uint256",
                  "name": "totalClaimCount",
                  "type": "uint256"
                },
                {
                  "internalType": "uint256",
                  "name": "firstClaimAmount",
                  "type": "uint256"
                },
                {
                  "internalType": "uint32",
                  "name": "firstClaimTime",
                  "type": "uint32"
                },
                {
                  "internalType": "uint32",
                  "name": "secondClaimTime",
                  "type": "uint32"
                },
                {
                  "internalType": "uint32",
                  "name": "roundIntervalTime",
                  "type": "uint32"
                }
              ],
              "internalType": "struct LibProject.InitalParameterScheduleVault",
              "name": "tonAirdropParams",
              "type": "tuple"
            }
          ],
          "internalType": "struct LibProject.TokamakVaults",
          "name": "tokamakVaults",
          "type": "tuple"
        }
      ],
      "name": "validateTokamakVaults",
      "outputs": [
        {
          "internalType": "bool",
          "name": "boolValidate",
          "type": "bool"
        },
        {
          "internalType": "uint256",
          "name": "totalAmount",
          "type": "uint256"
        }
      ],
      "stateMutability": "pure",
      "type": "function"
    }
  ],
  "bytecode": "0x61154e61003a600b82828239805160001a60731461002d57634e487b7160e01b600052600060045260246000fd5b30600052607381538281f3fe73000000000000000000000000000000000000000030146080604052600436106100715760003560e01c80639da317611161005a5780639da31761146100d0578063a95614d6146100e3578063f6266b74146100f657600080fd5b806308d8b1ac14610076578063507c8bd1146100a5575b600080fd5b610089610084366004610ee7565b610109565b6040805192151583526020830191909152015b60405180910390f35b6100b86100b3366004610fe3565b6102e3565b6040516001600160a01b03909116815260200161009c565b6100b86100de366004610fe3565b6103d9565b6100896100f1366004611007565b61044b565b6100896101043660046112d6565b6104cb565b60008082516000146102de5760005b83518110156102d8578381815181106101335761013361148d565b6020026020010151602001516020015160001480610172575083818151811061015e5761015e61148d565b602002602001015160200151604001516000145b8061019e575083818151811061018a5761018a61148d565b602002602001015160200151606001516000145b806101d057508381815181106101b6576101b661148d565b6020026020010151602001516080015163ffffffff166000145b8061020257508381815181106101e8576101e861148d565b60200260200101516020015160a0015163ffffffff166000145b80610234575083818151811061021a5761021a61148d565b60200260200101516020015160c0015163ffffffff166000145b8061028c575083818151811061024c5761024c61148d565b6020026020010151602001516080015163ffffffff168482815181106102745761027461148d565b60200260200101516020015160a0015163ffffffff16105b156102975750915091565b8381815181106102a9576102a961148d565b60200260200101516020015160200151826102c491906114b9565b9150806102d0816114d2565b915050610118565b50600191505b915091565b60006001600160a01b0382166102fb57506000919050565b60405163bf40fac160e01b815260206004820152602160248201527f50726f78795f5f4f564d5f4c3143726f7373446f6d61696e4d657373656e67656044820152603960f91b60648201526001600160a01b0383169063bf40fac1906084015b602060405180830381865afa925050508015610394575060408051601f3d908101601f19168201909252610391918101906114eb565b60015b6103d1573d8080156103c2576040519150601f19603f3d011682016040523d82523d6000602084013e6103c7565b606091505b5060009392505050565b90505b919050565b60006001600160a01b0382166103f157506000919050565b60405163bf40fac160e01b815260206004820152601b60248201527f50726f78795f5f4f564d5f4c315374616e64617264427269646765000000000060448201526001600160a01b0383169063bf40fac19060640161035b565b60008082516000146102de5760005b83518110156102d8578381815181106104755761047561148d565b60200260200101516040015160000361048e5750915091565b8381815181106104a0576104a061148d565b602002602001015160400151826104b791906114b9565b9150806104c3816114d2565b91505061045a565b8051516101208101516101009091015160009182916104ea91906114b9565b15806104f95750602083015151155b806105105750826040015160200151602001516000145b806105275750826060015160200151602001516000145b806105385750608083015160200151155b80610549575060a083015160200151155b1561055357915091565b6020808401510151158061056d5750602083015160400151155b8061057e5750602083015160600151155b80610595575060208301516080015163ffffffff16155b806105aa5750602083015160a0015161ffff16155b156105b457915091565b604083015151516001600160a01b031615806105e05750604083015151602001516001600160a01b0316155b806105f6575060408084015151015162ffffff16155b8061060a5750604080840151602001510151155b8061061f575060408301516020015160600151155b8061063a57506040830151602001516080015163ffffffff16155b80610655575060408301516020015160a0015163ffffffff16155b80610670575060408301516020015160c0015163ffffffff16155b1561067a57915091565b606083015151516001600160a01b031615806106a65750606083015151602001516001600160a01b0316155b806106bd57506060830151516040015162ffffff16155b806106d2575060608301516020015160400151155b806106e65750606080840151602001510151155b8061070157506060830151602001516080015163ffffffff16155b8061071c575060608301516020015160a0015163ffffffff16155b80610737575060608301516020015160c0015163ffffffff16155b1561074157915091565b608083015160400151158061075c5750608083015160600151155b806107725750608080840151015163ffffffff16155b806107895750608083015160a0015163ffffffff16155b806107a05750608083015160c0015163ffffffff16155b156107aa57915091565b60a08301516040015115806107c5575060a083015160600151155b806107dc575060a08301516080015163ffffffff16155b806107f2575060a080840151015163ffffffff16155b80610809575060a083015160c0015163ffffffff16155b1561081357915091565b604083015160200151608081015160a09091015163ffffffff918216911610806108585750606083015160200151608081015160a09091015163ffffffff9182169116105b8061087e575082608001516080015163ffffffff16836080015160a0015163ffffffff16105b806108a457508260a001516080015163ffffffff168360a0015160a0015163ffffffff16105b156108ae57915091565b8251515115806108c2575082515160200151155b806108d1575082515160400151155b806108e0575082515160600151155b806108ef575082515160800151155b806108fe575082515160a00151155b8061090d575082515160c00151155b8061091c575082515160e00151155b8061092c57508251516101200151155b8061093c57508251516101200151155b8061094c57508251516101400151155b8061095c57508251516101600151155b8061096c57508251516101a00151155b8061097c57508251516101c00151155b8061098c57508251516101e00151155b8061099c57508251516102000151155b806109ac57508251516102200151155b806109bc57508251516102400151155b806109cc57508251516102600151155b806109dc57508251516102800151155b806109eb575082516020015151155b806109fd575082516020908101510151155b80610a0f575082516020015160400151155b80610a21575082516020015160600151155b80610a33575082516020015160800151155b80610a45575082516040015160200151155b80610a57575082516040908101510151155b80610a69575082516040015160600151155b80610a7b575082516040015160800151155b80610a8d575082516040015160a00151155b80610aa4575082516040015160c0015162ffffff16155b15610aae57915091565b82515160e081015160c082015160a083015160809093015191929091610ad491906114b9565b610ade91906114b9565b610ae891906114b9565b61271014610af557915091565b825151610140810151610160820151610180909201519091610b1691611508565b610b20919061151f565b83515161012081015161010090910151610b3a91906114b9565b10610b4457915091565b8251516101c08101516101e0909101511080610b6d57508251516101e081015161020090910151105b80610b85575082515161020081015161022090910151105b80610b9d575082515161022081015161026090910151105b80610bb5575082515161026081015161028090910151105b80610bd0575082518051610280015160209091015160400151105b80610be957508251602001516040810151606090910151105b15610bf357915091565b82516040015160608101516080909101511015610c0f57915091565b60a083015160209081015160808501518201516060860151830151830151604087015184015184015193870151518751516101208101516101009091015194959394929392610c5e91906114b9565b610c6891906114b9565b610c7291906114b9565b610c7c91906114b9565b610c8691906114b9565b610c9091906114b9565b905080600003610c9f57915091565b60019150915091565b634e487b7160e01b600052604160045260246000fd5b60405160e0810167ffffffffffffffff81118282101715610ce157610ce1610ca8565b60405290565b6040805190810167ffffffffffffffff81118282101715610ce157610ce1610ca8565b6040516060810167ffffffffffffffff81118282101715610ce157610ce1610ca8565b60405160c0810167ffffffffffffffff81118282101715610ce157610ce1610ca8565b6040516102a0810167ffffffffffffffff81118282101715610ce157610ce1610ca8565b604051601f8201601f1916810167ffffffffffffffff81118282101715610d9d57610d9d610ca8565b604052919050565b600067ffffffffffffffff821115610dbf57610dbf610ca8565b5060051b60200190565b600082601f830112610dda57600080fd5b813567ffffffffffffffff811115610df457610df4610ca8565b610e07601f8201601f1916602001610d74565b818152846020838601011115610e1c57600080fd5b816020850160208301376000918101602001919091529392505050565b6001600160a01b0381168114610e4e57600080fd5b50565b803563ffffffff811681146103d457600080fd5b600060e08284031215610e7757600080fd5b610e7f610cbe565b90508135610e8c81610e39565b80825250602082013560208201526040820135604082015260608201356060820152610eba60808301610e51565b6080820152610ecb60a08301610e51565b60a0820152610edc60c08301610e51565b60c082015292915050565b60006020808385031215610efa57600080fd5b823567ffffffffffffffff80821115610f1257600080fd5b818501915085601f830112610f2657600080fd5b8135610f39610f3482610da5565b610d74565b81815260059190911b83018401908481019088831115610f5857600080fd5b8585015b83811015610fd657803585811115610f745760008081fd5b8601610100818c03601f19011215610f8c5760008081fd5b610f94610ce7565b8882013587811115610fa65760008081fd5b610fb48d8b83860101610dc9565b825250610fc48c60408401610e65565b818a0152845250918601918601610f5c565b5098975050505050505050565b600060208284031215610ff557600080fd5b813561100081610e39565b9392505050565b6000602080838503121561101a57600080fd5b823567ffffffffffffffff8082111561103257600080fd5b818501915085601f83011261104657600080fd5b8135611054610f3482610da5565b81815260059190911b8301840190848101908883111561107357600080fd5b8585015b83811015610fd65780358581111561108f5760008081fd5b86016060818c03601f19018113156110a75760008081fd5b6110af610d0a565b89830135888111156110c15760008081fd5b6110cf8e8c83870101610dc9565b8252506040808401356110e181610e39565b8b8301529190920135908201528352918601918601611077565b600060a0828403121561110d57600080fd5b60405160a0810181811067ffffffffffffffff8211171561113057611130610ca8565b806040525080915082358152602083013560208201526040830135604082015260608301356060820152608083013560808201525092915050565b803562ffffff811681146103d457600080fd5b600060e0828403121561119057600080fd5b611198610cbe565b905081356111a581610e39565b808252506020820135602082015260408201356040820152606082013560608201526080820135608082015260a082013560a0820152610edc60c0830161116b565b600060c082840312156111f957600080fd5b611201610d2d565b90508135815260208201356020820152604082013560408201526060820135606082015261123160808301610e51565b608082015260a082013561ffff8116811461124b57600080fd5b60a082015292915050565b600081830361014081121561126a57600080fd5b611272610ce7565b9150606081121561128257600080fd5b5061128b610d0a565b823561129681610e39565b815260208301356112a681610e39565b60208201526112b76040840161116b565b604082015281526112cb8360608401610e65565b602082015292915050565b60008183036109208112156112ea57600080fd5b6112f2610d2d565b6104208083121561130257600080fd5b61130a610d0a565b6102a08085121561131a57600080fd5b611322610d50565b873581526020808901359082015260408089013590820152606080890135908201526080808901359082015260a0808901359082015260c0808901359082015260e08089013590820152610100808901359082015261012080890135908201526101408089013590820152610160808901359082015261018080890135908201526101a080890135908201526101c080890135908201526101e0808901359082015261020080890135908201526102208089013590820152610240808901359082015261026080890135908201526102808089013590820152808352945061140c888289016110fb565b60208301525061142087610340880161117e565b60408201528252611433868683016111e7565b602083015250611447856104e08601611256565b604082015261145a856106208601611256565b606082015261146d856107608601610e65565b6080820152611480856108408601610e65565b60a0820152949350505050565b634e487b7160e01b600052603260045260246000fd5b634e487b7160e01b600052601160045260246000fd5b808201808211156114cc576114cc6114a3565b92915050565b6000600182016114e4576114e46114a3565b5060010190565b6000602082840312156114fd57600080fd5b815161100081610e39565b80820281158282048414176114cc576114cc6114a3565b60008261153c57634e487b7160e01b600052601260045260246000fd5b50049056fea164736f6c6343000812000a",
  "linkReferences": {},
  "deployedLinkReferences": {}
}