{
  "_format": "hh-sol-artifact-1",
  "contractName": "LibProject",
  "sourceName": "contracts/libraries/LibProject.sol",
  "abi": [
    {
      "inputs": [
        {
          "internalType": "address",
          "name": "addressManager",
          "type": "address"
        }
      ],
      "name": "getL1Bridge",
      "outputs": [
        {
          "internalType": "address",
          "name": "_address",
          "type": "address"
        }
      ],
      "stateMutability": "view",
      "type": "function"
    },
    {
      "inputs": [
        {
          "internalType": "address",
          "name": "addressManager",
          "type": "address"
        }
      ],
      "name": "getL1CommunicationMessenger",
      "outputs": [
        {
          "internalType": "address",
          "name": "_address",
          "type": "address"
        }
      ],
      "stateMutability": "view",
      "type": "function"
    },
    {
      "inputs": [
        {
          "components": [
            {
              "internalType": "uint256",
              "name": "totalAllocatedAmount",
              "type": "uint256"
            }
          ],
          "internalType": "struct LibProject.InitalParameterNonScheduleVault[]",
          "name": "customs",
          "type": "tuple[]"
        }
      ],
      "name": "validateNonScheduleVault",
      "outputs": [
        {
          "internalType": "bool",
          "name": "boolValidate",
          "type": "bool"
        },
        {
          "internalType": "uint256",
          "name": "totalAmount",
          "type": "uint256"
        }
      ],
      "stateMutability": "pure",
      "type": "function"
    },
    {
      "inputs": [
        {
          "components": [
            {
              "internalType": "uint256",
              "name": "totalAllocatedAmount",
              "type": "uint256"
            },
            {
              "internalType": "uint256",
              "name": "totalClaimCount",
              "type": "uint256"
            },
            {
              "internalType": "uint256",
              "name": "firstClaimAmount",
              "type": "uint256"
            },
            {
              "internalType": "uint32",
              "name": "firstClaimTime",
              "type": "uint32"
            },
            {
              "internalType": "uint32",
              "name": "secondClaimTime",
              "type": "uint32"
            },
            {
              "internalType": "uint32",
              "name": "roundIntervalTime",
              "type": "uint32"
            }
          ],
          "internalType": "struct LibProject.InitalParameterScheduleVault[]",
          "name": "customs",
          "type": "tuple[]"
        }
      ],
      "name": "validateScheduleVault",
      "outputs": [
        {
          "internalType": "bool",
          "name": "boolValidate",
          "type": "bool"
        },
        {
          "internalType": "uint256",
          "name": "totalAmount",
          "type": "uint256"
        }
      ],
      "stateMutability": "pure",
      "type": "function"
    },
    {
      "inputs": [
        {
          "components": [
            {
              "components": [
                {
                  "internalType": "uint256",
                  "name": "totalAllocatedAmount",
                  "type": "uint256"
                }
              ],
              "internalType": "struct LibProject.InitalParameterPublicSaleVault",
              "name": "publicSaleParams",
              "type": "tuple"
            },
            {
              "components": [
                {
                  "internalType": "uint256",
                  "name": "totalAllocatedAmount",
                  "type": "uint256"
                },
                {
                  "internalType": "uint256",
                  "name": "tosPrice",
                  "type": "uint256"
                },
                {
                  "internalType": "uint256",
                  "name": "tokenPrice",
                  "type": "uint256"
                },
                {
                  "internalType": "uint256",
                  "name": "initSqrtPrice",
                  "type": "uint256"
                },
                {
                  "internalType": "uint256",
                  "name": "startTime",
                  "type": "uint256"
                },
                {
                  "internalType": "uint16",
                  "name": "fee",
                  "type": "uint16"
                }
              ],
              "internalType": "struct LibProject.InitalParameterInitialLiquidityVault",
              "name": "initialVaultParams",
              "type": "tuple"
            },
            {
              "components": [
                {
                  "internalType": "address",
                  "name": "poolAddress",
                  "type": "address"
                },
                {
                  "components": [
                    {
                      "internalType": "uint256",
                      "name": "totalAllocatedAmount",
                      "type": "uint256"
                    },
                    {
                      "internalType": "uint256",
                      "name": "totalClaimCount",
                      "type": "uint256"
                    },
                    {
                      "internalType": "uint256",
                      "name": "firstClaimAmount",
                      "type": "uint256"
                    },
                    {
                      "internalType": "uint32",
                      "name": "firstClaimTime",
                      "type": "uint32"
                    },
                    {
                      "internalType": "uint32",
                      "name": "secondClaimTime",
                      "type": "uint32"
                    },
                    {
                      "internalType": "uint32",
                      "name": "roundIntervalTime",
                      "type": "uint32"
                    }
                  ],
                  "internalType": "struct LibProject.InitalParameterScheduleVault",
                  "name": "params",
                  "type": "tuple"
                }
              ],
              "internalType": "struct LibProject.InitalParameterLiquidityRewardVault",
              "name": "rewardParams",
              "type": "tuple"
            },
            {
              "components": [
                {
                  "internalType": "uint256",
                  "name": "totalAllocatedAmount",
                  "type": "uint256"
                },
                {
                  "internalType": "uint256",
                  "name": "totalClaimCount",
                  "type": "uint256"
                },
                {
                  "internalType": "uint256",
                  "name": "firstClaimAmount",
                  "type": "uint256"
                },
                {
                  "internalType": "uint32",
                  "name": "firstClaimTime",
                  "type": "uint32"
                },
                {
                  "internalType": "uint32",
                  "name": "secondClaimTime",
                  "type": "uint32"
                },
                {
                  "internalType": "uint32",
                  "name": "roundIntervalTime",
                  "type": "uint32"
                }
              ],
              "internalType": "struct LibProject.InitalParameterScheduleVault",
              "name": "tosAirdropParams",
              "type": "tuple"
            },
            {
              "components": [
                {
                  "internalType": "uint256",
                  "name": "totalAllocatedAmount",
                  "type": "uint256"
                },
                {
                  "internalType": "uint256",
                  "name": "totalClaimCount",
                  "type": "uint256"
                },
                {
                  "internalType": "uint256",
                  "name": "firstClaimAmount",
                  "type": "uint256"
                },
                {
                  "internalType": "uint32",
                  "name": "firstClaimTime",
                  "type": "uint32"
                },
                {
                  "internalType": "uint32",
                  "name": "secondClaimTime",
                  "type": "uint32"
                },
                {
                  "internalType": "uint32",
                  "name": "roundIntervalTime",
                  "type": "uint32"
                }
              ],
              "internalType": "struct LibProject.InitalParameterScheduleVault",
              "name": "tonAirdropParams",
              "type": "tuple"
            }
          ],
          "internalType": "struct LibProject.TokamakVaults",
          "name": "tokamakVaults",
          "type": "tuple"
        }
      ],
      "name": "validateTokamakVaults",
      "outputs": [
        {
          "internalType": "bool",
          "name": "boolValidate",
          "type": "bool"
        },
        {
          "internalType": "uint256",
          "name": "totalAmount",
          "type": "uint256"
        }
      ],
      "stateMutability": "pure",
      "type": "function"
    }
  ],
  "bytecode": "0x610b6761003a600b82828239805160001a60731461002d57634e487b7160e01b600052600060045260246000fd5b30600052607381538281f3fe73000000000000000000000000000000000000000030146080604052600436106100715760003560e01c80639da317611161005a5780639da31761146100d0578063a95614d6146100e3578063f6266b74146100f657600080fd5b80630d1ad27514610076578063507c8bd1146100a5575b600080fd5b6100896100843660046107f4565b610109565b6040805192151583526020830191909152015b60405180910390f35b6100b86100b33660046108ab565b61026f565b6040516001600160a01b03909116815260200161009c565b6100b86100de3660046108ab565b610365565b6100896100f1366004610911565b6103d7565b610089610104366004610a0b565b610457565b600080825160001461026a5760005b83518110156102645783818151811061013357610133610adf565b6020026020010151600001516000148061016a575083818151811061015a5761015a610adf565b6020026020010151602001516000145b80610192575083818151811061018257610182610adf565b6020026020010151604001516000145b806101c057508381815181106101aa576101aa610adf565b60200260200101516060015163ffffffff166000145b806101ee57508381815181106101d8576101d8610adf565b60200260200101516080015163ffffffff166000145b8061021c575083818151811061020657610206610adf565b602002602001015160a0015163ffffffff166000145b156102275750915091565b83818151811061023957610239610adf565b602002602001015160000151826102509190610b0b565b91508061025c81610b24565b915050610118565b50600191505b915091565b60006001600160a01b03821661028757506000919050565b60405163bf40fac160e01b815260206004820152602160248201527f50726f78795f5f4f564d5f4c3143726f7373446f6d61696e4d657373656e67656044820152603960f91b60648201526001600160a01b0383169063bf40fac1906084015b602060405180830381865afa925050508015610320575060408051601f3d908101601f1916820190925261031d91810190610b3d565b60015b61035d573d80801561034e576040519150601f19603f3d011682016040523d82523d6000602084013e610353565b606091505b5060009392505050565b90505b919050565b60006001600160a01b03821661037d57506000919050565b60405163bf40fac160e01b815260206004820152601b60248201527f50726f78795f5f4f564d5f4c315374616e64617264427269646765000000000060448201526001600160a01b0383169063bf40fac1906064016102e7565b600080825160001461026a5760005b83518110156102645783818151811061040157610401610adf565b60200260200101516000015160000361041a5750915091565b83818151811061042c5761042c610adf565b602002602001015160000151826104439190610b0b565b91508061044f81610b24565b9150506103e6565b8051516000908190158061046e5750602083015151155b80610480575060408301516020015151155b8061048e5750606083015151155b8061049c5750608083015151155b156104a657915091565b602080840151015115806104c05750602083015160400151155b806104d15750602083015160600151155b806104e25750602083015160800151155b806104f75750602083015160a0015161ffff16155b1561050157915091565b6040830151516001600160a01b031615806105285750826040015160200151602001516000145b8061053c5750604080840151602001510151155b8061055757506040830151602001516060015163ffffffff16155b8061057257506040830151602001516080015163ffffffff16155b8061058d575060408301516020015160a0015163ffffffff16155b1561059757915091565b60608301516020015115806105b25750606083015160400151155b806105c85750606080840151015163ffffffff16155b806105df575060608301516080015163ffffffff16155b806105f65750606083015160a0015163ffffffff16155b1561060057915091565b608083015160200151158061061b5750608083015160400151155b80610632575060808301516060015163ffffffff16155b806106485750608080840151015163ffffffff16155b8061065f5750608083015160a0015163ffffffff16155b1561066957915091565b6080830151516060840151516040850151602090810151519086015151865151600196506106979190610b0b565b6106a19190610b0b565b6106ab9190610b0b565b6106b59190610b0b565b9050915091565b634e487b7160e01b600052604160045260246000fd5b60405160c0810167ffffffffffffffff811182821017156106f5576106f56106bc565b60405290565b60405160a0810167ffffffffffffffff811182821017156106f5576106f56106bc565b604051601f8201601f1916810167ffffffffffffffff81118282101715610747576107476106bc565b604052919050565b600067ffffffffffffffff821115610769576107696106bc565b5060051b60200190565b803563ffffffff8116811461036057600080fd5b600060c0828403121561079957600080fd5b6107a16106d2565b90508135815260208201356020820152604082013560408201526107c760608301610773565b60608201526107d860808301610773565b60808201526107e960a08301610773565b60a082015292915050565b6000602080838503121561080757600080fd5b823567ffffffffffffffff81111561081e57600080fd5b8301601f8101851361082f57600080fd5b803561084261083d8261074f565b61071e565b81815260c0918202830184019184820191908884111561086157600080fd5b938501935b83851015610887576108788986610787565b83529384019391850191610866565b50979650505050505050565b6001600160a01b03811681146108a857600080fd5b50565b6000602082840312156108bd57600080fd5b81356108c881610893565b9392505050565b6000602082840312156108e157600080fd5b6040516020810181811067ffffffffffffffff82111715610904576109046106bc565b6040529135825250919050565b6000602080838503121561092457600080fd5b823567ffffffffffffffff81111561093b57600080fd5b8301601f8101851361094c57600080fd5b803561095a61083d8261074f565b81815260059190911b8201830190838101908783111561097957600080fd5b928401925b8284101561099f5761099088856108cf565b8252928401929084019061097e565b979650505050505050565b600060e082840312156109bc57600080fd5b6040516040810181811067ffffffffffffffff821117156109df576109df6106bc565b60405290508082356109f081610893565b81526109ff8460208501610787565b60208201525092915050565b6000818303610340811215610a1f57600080fd5b610a276106fb565b610a3185856108cf565b815260c0601f1983011215610a4557600080fd5b610a4d6106d2565b91506020840135825260408401356020830152606084013560408301526080840135606083015260a0840135608083015260c084013561ffff81168114610a9357600080fd5b60a083015260208101829052610aac8560e086016109aa565b6040820152610abf856101c08601610787565b6060820152610ad2856102808601610787565b6080820152949350505050565b634e487b7160e01b600052603260045260246000fd5b634e487b7160e01b600052601160045260246000fd5b80820180821115610b1e57610b1e610af5565b92915050565b600060018201610b3657610b36610af5565b5060010190565b600060208284031215610b4f57600080fd5b81516108c88161089356fea164736f6c6343000812000a",
  "linkReferences": {},
  "deployedLinkReferences": {}
}