{
  "_format": "hh-sol-artifact-1",
  "contractName": "LibProject",
  "sourceName": "contracts/libraries/LibProject.sol",
  "abi": [
    {
      "inputs": [
        {
          "internalType": "address",
          "name": "addressManager",
          "type": "address"
        }
      ],
      "name": "getL1Bridge",
      "outputs": [
        {
          "internalType": "address",
          "name": "_address",
          "type": "address"
        }
      ],
      "stateMutability": "view",
      "type": "function"
    },
    {
      "inputs": [
        {
          "internalType": "address",
          "name": "addressManager",
          "type": "address"
        }
      ],
      "name": "getL1CommunicationMessenger",
      "outputs": [
        {
          "internalType": "address",
          "name": "_address",
          "type": "address"
        }
      ],
      "stateMutability": "view",
      "type": "function"
    }
  ],
  "bytecode": "0x61025361003a600b82828239805160001a60731461002d57634e487b7160e01b600052600060045260246000fd5b30600052607381538281f3fe73000000000000000000000000000000000000000030146080604052600436106100405760003560e01c8063507c8bd1146100455780639da3176114610074575b600080fd5b610058610053366004610205565b610087565b6040516001600160a01b03909116815260200160405180910390f35b610058610082366004610205565b61017b565b60006001600160a01b03821661009f57506000919050565b60405163bf40fac160e01b815260206004820152602160248201527f50726f78795f5f4f564d5f4c3143726f7373446f6d61696e4d657373656e67656044820152603960f91b60648201526001600160a01b0383169063bf40fac1906084015b602060405180830381865afa925050508015610138575060408051601f3d908101601f1916820190925261013591810190610229565b60015b610175573d808015610166576040519150601f19603f3d011682016040523d82523d6000602084013e61016b565b606091505b5060009392505050565b92915050565b60006001600160a01b03821661019357506000919050565b60405163bf40fac160e01b815260206004820152601b60248201527f50726f78795f5f4f564d5f4c315374616e64617264427269646765000000000060448201526001600160a01b0383169063bf40fac1906064016100ff565b6001600160a01b038116811461020257600080fd5b50565b60006020828403121561021757600080fd5b8135610222816101ed565b9392505050565b60006020828403121561023b57600080fd5b8151610222816101ed56fea164736f6c6343000812000a",
  "linkReferences": {},
  "deployedLinkReferences": {}
}