{
  "_format": "hh-sol-artifact-1",
  "contractName": "L2PowerTonProxy",
  "sourceName": "contracts/L2/powerton/L2PowerTonProxy.sol",
  "abi": [
    {
      "anonymous": false,
      "inputs": [
        {
          "indexed": true,
          "internalType": "bytes32",
          "name": "role",
          "type": "bytes32"
        },
        {
          "indexed": true,
          "internalType": "bytes32",
          "name": "previousAdminRole",
          "type": "bytes32"
        },
        {
          "indexed": true,
          "internalType": "bytes32",
          "name": "newAdminRole",
          "type": "bytes32"
        }
      ],
      "name": "RoleAdminChanged",
      "type": "event"
    },
    {
      "anonymous": false,
      "inputs": [
        {
          "indexed": true,
          "internalType": "bytes32",
          "name": "role",
          "type": "bytes32"
        },
        {
          "indexed": true,
          "internalType": "address",
          "name": "account",
          "type": "address"
        },
        {
          "indexed": true,
          "internalType": "address",
          "name": "sender",
          "type": "address"
        }
      ],
      "name": "RoleGranted",
      "type": "event"
    },
    {
      "anonymous": false,
      "inputs": [
        {
          "indexed": true,
          "internalType": "bytes32",
          "name": "role",
          "type": "bytes32"
        },
        {
          "indexed": true,
          "internalType": "address",
          "name": "account",
          "type": "address"
        },
        {
          "indexed": true,
          "internalType": "address",
          "name": "sender",
          "type": "address"
        }
      ],
      "name": "RoleRevoked",
      "type": "event"
    },
    {
      "anonymous": false,
      "inputs": [
        {
          "indexed": true,
          "internalType": "address",
          "name": "impl",
          "type": "address"
        },
        {
          "indexed": false,
          "internalType": "bool",
          "name": "alive",
          "type": "bool"
        }
      ],
      "name": "SetAliveImplementation",
      "type": "event"
    },
    {
      "anonymous": false,
      "inputs": [
        {
          "indexed": true,
          "internalType": "bytes4",
          "name": "selector",
          "type": "bytes4"
        },
        {
          "indexed": true,
          "internalType": "address",
          "name": "impl",
          "type": "address"
        }
      ],
      "name": "SetSelectorImplementation",
      "type": "event"
    },
    {
      "anonymous": false,
      "inputs": [
        {
          "indexed": true,
          "internalType": "address",
          "name": "implementation",
          "type": "address"
        }
      ],
      "name": "Upgraded",
      "type": "event"
    },
    {
      "stateMutability": "payable",
      "type": "fallback"
    },
    {
      "inputs": [],
      "name": "ADMIN_ROLE",
      "outputs": [
        {
          "internalType": "bytes32",
          "name": "",
          "type": "bytes32"
        }
      ],
      "stateMutability": "view",
      "type": "function"
    },
    {
      "inputs": [],
      "name": "DEFAULT_ADMIN_ROLE",
      "outputs": [
        {
          "internalType": "bytes32",
          "name": "",
          "type": "bytes32"
        }
      ],
      "stateMutability": "view",
      "type": "function"
    },
    {
      "inputs": [],
      "name": "POLICY_ROLE",
      "outputs": [
        {
          "internalType": "bytes32",
          "name": "",
          "type": "bytes32"
        }
      ],
      "stateMutability": "view",
      "type": "function"
    },
    {
      "inputs": [
        {
          "internalType": "address",
          "name": "account",
          "type": "address"
        }
      ],
      "name": "addAdmin",
      "outputs": [],
      "stateMutability": "nonpayable",
      "type": "function"
    },
    {
      "inputs": [
        {
          "internalType": "address",
          "name": "",
          "type": "address"
        }
      ],
      "name": "aliveImplementation",
      "outputs": [
        {
          "internalType": "bool",
          "name": "",
          "type": "bool"
        }
      ],
      "stateMutability": "view",
      "type": "function"
    },
    {
      "inputs": [
        {
          "internalType": "bytes32",
          "name": "role",
          "type": "bytes32"
        }
      ],
      "name": "getRoleAdmin",
      "outputs": [
        {
          "internalType": "bytes32",
          "name": "",
          "type": "bytes32"
        }
      ],
      "stateMutability": "view",
      "type": "function"
    },
    {
      "inputs": [
        {
          "internalType": "bytes4",
          "name": "_selector",
          "type": "bytes4"
        }
      ],
      "name": "getSelectorImplementation2",
      "outputs": [
        {
          "internalType": "address",
          "name": "impl",
          "type": "address"
        }
      ],
      "stateMutability": "view",
      "type": "function"
    },
    {
      "inputs": [
        {
          "internalType": "bytes32",
          "name": "role",
          "type": "bytes32"
        },
        {
          "internalType": "address",
          "name": "account",
          "type": "address"
        }
      ],
      "name": "grantRole",
      "outputs": [],
      "stateMutability": "nonpayable",
      "type": "function"
    },
    {
      "inputs": [
        {
          "internalType": "bytes32",
          "name": "role",
          "type": "bytes32"
        },
        {
          "internalType": "address",
          "name": "account",
          "type": "address"
        }
      ],
      "name": "hasRole",
      "outputs": [
        {
          "internalType": "bool",
          "name": "",
          "type": "bool"
        }
      ],
      "stateMutability": "view",
      "type": "function"
    },
    {
      "inputs": [],
      "name": "implementation",
      "outputs": [
        {
          "internalType": "address",
          "name": "",
          "type": "address"
        }
      ],
      "stateMutability": "view",
      "type": "function"
    },
    {
      "inputs": [
        {
          "internalType": "uint256",
          "name": "_index",
          "type": "uint256"
        }
      ],
      "name": "implementation2",
      "outputs": [
        {
          "internalType": "address",
          "name": "",
          "type": "address"
        }
      ],
      "stateMutability": "view",
      "type": "function"
    },
    {
      "inputs": [
        {
          "internalType": "address",
          "name": "account",
          "type": "address"
        }
      ],
      "name": "isAdmin",
      "outputs": [
        {
          "internalType": "bool",
          "name": "",
          "type": "bool"
        }
      ],
      "stateMutability": "view",
      "type": "function"
    },
    {
      "inputs": [],
      "name": "l2DividendPoolForStos",
      "outputs": [
        {
          "internalType": "address",
          "name": "",
          "type": "address"
        }
      ],
      "stateMutability": "view",
      "type": "function"
    },
    {
      "inputs": [],
      "name": "pauseProxy",
      "outputs": [
        {
          "internalType": "bool",
          "name": "",
          "type": "bool"
        }
      ],
      "stateMutability": "view",
      "type": "function"
    },
    {
      "inputs": [
        {
          "internalType": "uint256",
          "name": "",
          "type": "uint256"
        }
      ],
      "name": "proxyImplementation",
      "outputs": [
        {
          "internalType": "address",
          "name": "",
          "type": "address"
        }
      ],
      "stateMutability": "view",
      "type": "function"
    },
    {
      "inputs": [
        {
          "internalType": "address",
          "name": "account",
          "type": "address"
        }
      ],
      "name": "removeAdmin",
      "outputs": [],
      "stateMutability": "nonpayable",
      "type": "function"
    },
    {
      "inputs": [
        {
          "internalType": "bytes32",
          "name": "role",
          "type": "bytes32"
        },
        {
          "internalType": "address",
          "name": "account",
          "type": "address"
        }
      ],
      "name": "renounceRole",
      "outputs": [],
      "stateMutability": "nonpayable",
      "type": "function"
    },
    {
      "inputs": [
        {
          "internalType": "bytes32",
          "name": "role",
          "type": "bytes32"
        },
        {
          "internalType": "address",
          "name": "account",
          "type": "address"
        }
      ],
      "name": "revokeRole",
      "outputs": [],
      "stateMutability": "nonpayable",
      "type": "function"
    },
    {
      "inputs": [
        {
          "internalType": "bytes4",
          "name": "",
          "type": "bytes4"
        }
      ],
      "name": "selectorImplementation",
      "outputs": [
        {
          "internalType": "address",
          "name": "",
          "type": "address"
        }
      ],
      "stateMutability": "view",
      "type": "function"
    },
    {
      "inputs": [
        {
          "internalType": "address",
          "name": "newImplementation",
          "type": "address"
        },
        {
          "internalType": "bool",
          "name": "_alive",
          "type": "bool"
        }
      ],
      "name": "setAliveImplementation2",
      "outputs": [],
      "stateMutability": "nonpayable",
      "type": "function"
    },
    {
      "inputs": [
        {
          "internalType": "address",
          "name": "newImplementation",
          "type": "address"
        },
        {
          "internalType": "uint256",
          "name": "_index",
          "type": "uint256"
        },
        {
          "internalType": "bool",
          "name": "_alive",
          "type": "bool"
        }
      ],
      "name": "setImplementation2",
      "outputs": [],
      "stateMutability": "nonpayable",
      "type": "function"
    },
    {
      "inputs": [
        {
          "internalType": "bool",
          "name": "_pause",
          "type": "bool"
        }
      ],
      "name": "setProxyPause",
      "outputs": [],
      "stateMutability": "nonpayable",
      "type": "function"
    },
    {
      "inputs": [
        {
          "internalType": "bytes4[]",
          "name": "_selectors",
          "type": "bytes4[]"
        },
        {
          "internalType": "address",
          "name": "_imp",
          "type": "address"
        }
      ],
      "name": "setSelectorImplementations2",
      "outputs": [],
      "stateMutability": "nonpayable",
      "type": "function"
    },
    {
      "inputs": [
        {
          "internalType": "bytes4",
          "name": "interfaceId",
          "type": "bytes4"
        }
      ],
      "name": "supportsInterface",
      "outputs": [
        {
          "internalType": "bool",
          "name": "",
          "type": "bool"
        }
      ],
      "stateMutability": "view",
      "type": "function"
    },
    {
      "inputs": [
        {
          "internalType": "address",
          "name": "newAdmin",
          "type": "address"
        }
      ],
      "name": "transferAdmin",
      "outputs": [],
      "stateMutability": "nonpayable",
      "type": "function"
    },
    {
      "inputs": [],
      "name": "universalStos",
      "outputs": [
        {
          "internalType": "address",
          "name": "",
          "type": "address"
        }
      ],
      "stateMutability": "view",
      "type": "function"
    },
    {
      "inputs": [
        {
          "internalType": "address",
          "name": "impl",
          "type": "address"
        }
      ],
      "name": "upgradeTo",
      "outputs": [],
      "stateMutability": "nonpayable",
      "type": "function"
    },
    {
      "stateMutability": "payable",
      "type": "receive"
    }
  ],
  "bytecode": "0x60806040523480156200001157600080fd5b506200002d600080516020620019c8833981519152806200004e565b62000048600080516020620019c88339815191523362000099565b6200014d565b600082815260046020526040808220600101805490849055905190918391839186917fbd79b86ffe0ab8e8776151514217cd7cacd52c909f66475c3af44e129f0b00ff9190a4505050565b620000a58282620000a9565b5050565b60008281526004602090815260408083206001600160a01b038516845290915290205460ff16620000a55760008281526004602090815260408083206001600160a01b03851684529091529020805460ff19166001179055620001093390565b6001600160a01b0316816001600160a01b0316837f2f8788117e7eff1d82e926ec794901d17c78024a50270940304540a733656f0d60405160405180910390a45050565b61186b806200015d6000396000f3fe6080604052600436106101b05760003560e01c806363a8fd89116100ec5780638b8f4a651161008a578063a217fddf11610064578063a217fddf146105cb578063b911135f146105e0578063c83d3c4714610616578063d547741f1461063657610202565b80638b8f4a65146105455780638d4fdb401461056557806391d148541461058557610202565b806375829def116100c657806375829def146104b157806375b238fc146104d15780637cb00d25146105055780637cd5f6631461052557610202565b806363a8fd89146104575780637048027514610471578063726befc51461049157610202565b806336568abe1161015957806350d2a2761161013357806350d2a27614610373578063550d01a3146103c15780635c60da1b146103f15780635cc797d81461043757610202565b806336568abe146103135780633659cfe6146103335780634a5df50f1461035357610202565b8063248a9ca31161018a578063248a9ca3146102a357806324d7806c146102d35780632f2ff15d146102f357610202565b806301ffc9a71461020c5780631785f53c14610241578063229852461461026157610202565b366102025760405162461bcd60e51b815260206004820152601460248201527f63616e6e6f74207265636569766520457468657200000000000000000000000060448201526064015b60405180910390fd5b61020a610656565b005b34801561021857600080fd5b5061022c61022736600461151d565b6106ff565b60405190151581526020015b60405180910390f35b34801561024d57600080fd5b5061020a61025c36600461155e565b610736565b34801561026d57600080fd5b506102957ffb5864e8ff833c3cb2d2d08505e82ff02a43554c74a35d4f5a64e8526127831181565b604051908152602001610238565b3480156102af57600080fd5b506102956102be366004611579565b60009081526004602052604090206001015490565b3480156102df57600080fd5b5061022c6102ee36600461155e565b6107b1565b3480156102ff57600080fd5b5061020a61030e366004611592565b6107f1565b34801561031f57600080fd5b5061020a61032e366004611592565b610816565b34801561033f57600080fd5b5061020a61034e36600461155e565b6108a2565b34801561035f57600080fd5b5061020a61036e3660046115be565b6109fb565b34801561037f57600080fd5b506103a961038e36600461151d565b6003602052600090815260409020546001600160a01b031681565b6040516001600160a01b039091168152602001610238565b3480156103cd57600080fd5b5061022c6103dc36600461155e565b60026020526000908152604090205460ff1681565b3480156103fd57600080fd5b506000805260016020527fa6eef7e35abe7026729641147f7915573c7e97b47efa546f5f6e3230263bcb49546001600160a01b03166103a9565b34801561044357600080fd5b5061020a610452366004611652565b610ca8565b34801561046357600080fd5b5060005461022c9060ff1681565b34801561047d57600080fd5b5061020a61048c36600461155e565b610d00565b34801561049d57600080fd5b506005546103a9906001600160a01b031681565b3480156104bd57600080fd5b5061020a6104cc36600461155e565b610d78565b3480156104dd57600080fd5b506102957fdf8b4c520ffe197c5343c6f5aec59570151ef9a492f2c624fd45ddde6135ec4281565b34801561051157600080fd5b5061020a61052036600461167c565b610ec8565b34801561053157600080fd5b5061020a610540366004611697565b610f29565b34801561055157600080fd5b506103a9610560366004611579565b610f82565b34801561057157600080fd5b506103a961058036600461151d565b610f9f565b34801561059157600080fd5b5061022c6105a0366004611592565b60009182526004602090815260408084206001600160a01b0393909316845291905290205460ff1690565b3480156105d757600080fd5b50610295600081565b3480156105ec57600080fd5b506103a96105fb366004611579565b6001602052600090815260409020546001600160a01b031681565b34801561062257600080fd5b506006546103a9906001600160a01b031681565b34801561064257600080fd5b5061020a610651366004611592565b61109b565b600061066d6000356001600160e01b031916610f9f565b90506001600160a01b0381161580159061068a575060005460ff16155b6106d65760405162461bcd60e51b815260206004820152601d60248201527f50726f78793a20696d706c204f522070726f78792069732066616c736500000060448201526064016101f9565b3660008037600080366000845af43d6000803e8080156106f5573d6000f35b3d6000fd5b505050565b60006001600160e01b03198216637965db0b60e01b148061073057506301ffc9a760e01b6001600160e01b03198316145b92915050565b61073f336107b1565b6107845760405162461bcd60e51b8152602060048201526022602482015260008051602061183f83398151915260448201526134b760f11b60648201526084016101f9565b6107ae7fdf8b4c520ffe197c5343c6f5aec59570151ef9a492f2c624fd45ddde6135ec4282610816565b50565b6001600160a01b03811660009081527f2fb794d17134dfdec181ddbac1babb5ab1eb140204ef4d982f294e7fc8b69022602052604081205460ff16610730565b60008281526004602052604090206001015461080c816110c0565b6106fa83836110ca565b6001600160a01b03811633146108945760405162461bcd60e51b815260206004820152602f60248201527f416363657373436f6e74726f6c3a2063616e206f6e6c792072656e6f756e636560448201527f20726f6c657320666f722073656c66000000000000000000000000000000000060648201526084016101f9565b61089e828261116c565b5050565b6108ab336107b1565b6108f05760405162461bcd60e51b8152602060048201526022602482015260008051602061183f83398151915260448201526134b760f11b60648201526084016101f9565b6001600160a01b0381166109465760405162461bcd60e51b815260206004820152600d60248201527f696e707574206973207a65726f0000000000000000000000000000000000000060448201526064016101f9565b6000805260016020527fa6eef7e35abe7026729641147f7915573c7e97b47efa546f5f6e3230263bcb49546001600160a01b038281169116036109b75760405162461bcd60e51b815260206004820152600960248201526839b0b6b29030b2323960b91b60448201526064016101f9565b6109c481600060016111ef565b6040516001600160a01b038216907fbc7cd75a20ee27fd9adebab32041f755214dbc6bffa90cc0225b39da2e5c2d3b90600090a250565b610a04336107b1565b610a495760405162461bcd60e51b8152602060048201526022602482015260008051602061183f83398151915260448201526134b760f11b60648201526084016101f9565b81610a965760405162461bcd60e51b815260206004820181905260248201527f50726f78793a205f73656c6563746f727327732073697a65206973207a65726f60448201526064016101f9565b6001600160a01b03811660009081526002602052604090205460ff16610afe5760405162461bcd60e51b815260206004820152601860248201527f50726f78793a205f696d70206973206e6f7420616c697665000000000000000060448201526064016101f9565b60005b82811015610ca257816001600160a01b031660036000868685818110610b2957610b296116ca565b9050602002016020810190610b3e919061151d565b6001600160e01b03191681526020810191909152604001600020546001600160a01b031603610baf5760405162461bcd60e51b815260206004820152601d60248201527f4c69717569646974795661756c7450726f78793a2073616d6520696d7000000060448201526064016101f9565b8160036000868685818110610bc657610bc66116ca565b9050602002016020810190610bdb919061151d565b6001600160e01b03191681526020810191909152604001600020805473ffffffffffffffffffffffffffffffffffffffff19166001600160a01b039283161790558216848483818110610c3057610c306116ca565b9050602002016020810190610c45919061151d565b7bffffffffffffffffffffffffffffffffffffffffffffffffffffffff19167f14ebc1c32aa68f4d766e89f3e546cee249f7df25183fc10ab1568d91c2ce9b7b60405160405180910390a380610c9a816116f6565b915050610b01565b50505050565b610cb1336107b1565b610cf65760405162461bcd60e51b8152602060048201526022602482015260008051602061183f83398151915260448201526134b760f11b60648201526084016101f9565b61089e8282611287565b610d09336107b1565b610d4e5760405162461bcd60e51b8152602060048201526022602482015260008051602061183f83398151915260448201526134b760f11b60648201526084016101f9565b6107ae7fdf8b4c520ffe197c5343c6f5aec59570151ef9a492f2c624fd45ddde6135ec42826107f1565b610d81336107b1565b610dc65760405162461bcd60e51b8152602060048201526022602482015260008051602061183f83398151915260448201526134b760f11b60648201526084016101f9565b6001600160a01b038116610e1c5760405162461bcd60e51b815260206004820152601860248201527f41636365737369626c653a207a65726f2061646472657373000000000000000060448201526064016101f9565b6001600160a01b0381163303610e745760405162461bcd60e51b815260206004820152601660248201527f41636365737369626c653a2073616d652061646d696e0000000000000000000060448201526064016101f9565b610e9e7fdf8b4c520ffe197c5343c6f5aec59570151ef9a492f2c624fd45ddde6135ec42826107f1565b6107ae7fdf8b4c520ffe197c5343c6f5aec59570151ef9a492f2c624fd45ddde6135ec4233610816565b610ed1336107b1565b610f165760405162461bcd60e51b8152602060048201526022602482015260008051602061183f83398151915260448201526134b760f11b60648201526084016101f9565b6000805460ff1916911515919091179055565b610f32336107b1565b610f775760405162461bcd60e51b8152602060048201526022602482015260008051602061183f83398151915260448201526134b760f11b60648201526084016101f9565b6106fa8383836111ef565b6000818152600160205260408120546001600160a01b0316610730565b6001600160e01b031981166000908152600360205260408120546001600160a01b0316610fff5750506000805260016020527fa6eef7e35abe7026729641147f7915573c7e97b47efa546f5f6e3230263bcb49546001600160a01b031690565b6001600160e01b031982166000908152600360209081526040808320546001600160a01b03168352600290915290205460ff161561105d57506001600160e01b0319166000908152600360205260409020546001600160a01b031690565b50506000805260016020527fa6eef7e35abe7026729641147f7915573c7e97b47efa546f5f6e3230263bcb49546001600160a01b031690565b919050565b6000828152600460205260409020600101546110b6816110c0565b6106fa838361116c565b6107ae81336112e6565b60008281526004602090815260408083206001600160a01b038516845290915290205460ff1661089e5760008281526004602090815260408083206001600160a01b03851684529091529020805460ff191660011790556111283390565b6001600160a01b0316816001600160a01b0316837f2f8788117e7eff1d82e926ec794901d17c78024a50270940304540a733656f0d60405160405180910390a45050565b60008281526004602090815260408083206001600160a01b038516845290915290205460ff161561089e5760008281526004602090815260408083206001600160a01b0385168085529252808320805460ff1916905551339285917ff6391f5c32d9c69d2a47ea670b442974b53935d1edc7fd64eb21e047a839171b9190a45050565b6001600160a01b0383163b6112465760405162461bcd60e51b815260206004820152601b60248201527f50726f78793a206e6f7420636f6e74726163742061646472657373000000000060448201526064016101f9565b8015611281576000828152600160205260409020805473ffffffffffffffffffffffffffffffffffffffff19166001600160a01b0385161790555b6106fa83825b6001600160a01b038216600081815260026020908152604091829020805460ff191685151590811790915591519182527f72558d9bfba4210f9ef095c782589484151f6d90f7a81bb3cb9b33efc695d324910160405180910390a25050565b60008281526004602090815260408083206001600160a01b038516845290915290205460ff1661089e576113198161135b565b61132483602061136d565b604051602001611335929190611733565b60408051601f198184030181529082905262461bcd60e51b82526101f9916004016117b4565b60606107306001600160a01b03831660145b6060600061137c8360026117e7565b6113879060026117fe565b67ffffffffffffffff81111561139f5761139f611811565b6040519080825280601f01601f1916602001820160405280156113c9576020820181803683370190505b509050600360fc1b816000815181106113e4576113e46116ca565b60200101906001600160f81b031916908160001a905350600f60fb1b81600181518110611413576114136116ca565b60200101906001600160f81b031916908160001a90535060006114378460026117e7565b6114429060016117fe565b90505b60018111156114c7577f303132333435363738396162636465660000000000000000000000000000000085600f1660108110611483576114836116ca565b1a60f81b828281518110611499576114996116ca565b60200101906001600160f81b031916908160001a90535060049490941c936114c081611827565b9050611445565b5083156115165760405162461bcd60e51b815260206004820181905260248201527f537472696e67733a20686578206c656e67746820696e73756666696369656e7460448201526064016101f9565b9392505050565b60006020828403121561152f57600080fd5b81356001600160e01b03198116811461151657600080fd5b80356001600160a01b038116811461109657600080fd5b60006020828403121561157057600080fd5b61151682611547565b60006020828403121561158b57600080fd5b5035919050565b600080604083850312156115a557600080fd5b823591506115b560208401611547565b90509250929050565b6000806000604084860312156115d357600080fd5b833567ffffffffffffffff808211156115eb57600080fd5b818601915086601f8301126115ff57600080fd5b81358181111561160e57600080fd5b8760208260051b850101111561162357600080fd5b6020928301955093506116399186019050611547565b90509250925092565b8035801515811461109657600080fd5b6000806040838503121561166557600080fd5b61166e83611547565b91506115b560208401611642565b60006020828403121561168e57600080fd5b61151682611642565b6000806000606084860312156116ac57600080fd5b6116b584611547565b92506020840135915061163960408501611642565b634e487b7160e01b600052603260045260246000fd5b634e487b7160e01b600052601160045260246000fd5b600060018201611708576117086116e0565b5060010190565b60005b8381101561172a578181015183820152602001611712565b50506000910152565b7f416363657373436f6e74726f6c3a206163636f756e742000000000000000000081526000835161176b81601785016020880161170f565b7f206973206d697373696e6720726f6c652000000000000000000000000000000060179184019182015283516117a881602884016020880161170f565b01602801949350505050565b60208152600082518060208401526117d381604085016020870161170f565b601f01601f19169190910160400192915050565b8082028115828204841417610730576107306116e0565b80820180821115610730576107306116e0565b634e487b7160e01b600052604160045260246000fd5b600081611836576118366116e0565b50600019019056fe41636365737369626c653a2043616c6c6572206973206e6f7420616e2061646da164736f6c6343000812000adf8b4c520ffe197c5343c6f5aec59570151ef9a492f2c624fd45ddde6135ec42",
  "linkReferences": {},
  "deployedLinkReferences": {}
}