{
  "_format": "hh-sol-artifact-1",
  "contractName": "L2LpRewardVaultProxy",
  "sourceName": "contracts/L2/vaults/L2LpRewardVaultProxy.sol",
  "abi": [
    {
      "anonymous": false,
      "inputs": [
        {
          "indexed": true,
          "internalType": "bytes32",
          "name": "role",
          "type": "bytes32"
        },
        {
          "indexed": true,
          "internalType": "bytes32",
          "name": "previousAdminRole",
          "type": "bytes32"
        },
        {
          "indexed": true,
          "internalType": "bytes32",
          "name": "newAdminRole",
          "type": "bytes32"
        }
      ],
      "name": "RoleAdminChanged",
      "type": "event"
    },
    {
      "anonymous": false,
      "inputs": [
        {
          "indexed": true,
          "internalType": "bytes32",
          "name": "role",
          "type": "bytes32"
        },
        {
          "indexed": true,
          "internalType": "address",
          "name": "account",
          "type": "address"
        },
        {
          "indexed": true,
          "internalType": "address",
          "name": "sender",
          "type": "address"
        }
      ],
      "name": "RoleGranted",
      "type": "event"
    },
    {
      "anonymous": false,
      "inputs": [
        {
          "indexed": true,
          "internalType": "bytes32",
          "name": "role",
          "type": "bytes32"
        },
        {
          "indexed": true,
          "internalType": "address",
          "name": "account",
          "type": "address"
        },
        {
          "indexed": true,
          "internalType": "address",
          "name": "sender",
          "type": "address"
        }
      ],
      "name": "RoleRevoked",
      "type": "event"
    },
    {
      "anonymous": false,
      "inputs": [
        {
          "indexed": true,
          "internalType": "address",
          "name": "impl",
          "type": "address"
        },
        {
          "indexed": false,
          "internalType": "bool",
          "name": "alive",
          "type": "bool"
        }
      ],
      "name": "SetAliveImplementation",
      "type": "event"
    },
    {
      "anonymous": false,
      "inputs": [
        {
          "indexed": true,
          "internalType": "bytes4",
          "name": "selector",
          "type": "bytes4"
        },
        {
          "indexed": true,
          "internalType": "address",
          "name": "impl",
          "type": "address"
        }
      ],
      "name": "SetSelectorImplementation",
      "type": "event"
    },
    {
      "anonymous": false,
      "inputs": [
        {
          "indexed": false,
          "internalType": "address",
          "name": "l2Token",
          "type": "address"
        },
        {
          "indexed": false,
          "internalType": "address",
          "name": "newAdmin",
          "type": "address"
        }
      ],
      "name": "SetVaultAdmin",
      "type": "event"
    },
    {
      "anonymous": false,
      "inputs": [
        {
          "indexed": true,
          "internalType": "address",
          "name": "implementation",
          "type": "address"
        }
      ],
      "name": "Upgraded",
      "type": "event"
    },
    {
      "stateMutability": "payable",
      "type": "fallback"
    },
    {
      "inputs": [],
      "name": "ADMIN_ROLE",
      "outputs": [
        {
          "internalType": "bytes32",
          "name": "",
          "type": "bytes32"
        }
      ],
      "stateMutability": "view",
      "type": "function"
    },
    {
      "inputs": [],
      "name": "DEFAULT_ADMIN_ROLE",
      "outputs": [
        {
          "internalType": "bytes32",
          "name": "",
          "type": "bytes32"
        }
      ],
      "stateMutability": "view",
      "type": "function"
    },
    {
      "inputs": [],
      "name": "POLICY_ROLE",
      "outputs": [
        {
          "internalType": "bytes32",
          "name": "",
          "type": "bytes32"
        }
      ],
      "stateMutability": "view",
      "type": "function"
    },
    {
      "inputs": [
        {
          "internalType": "address",
          "name": "account",
          "type": "address"
        }
      ],
      "name": "addAdmin",
      "outputs": [],
      "stateMutability": "nonpayable",
      "type": "function"
    },
    {
      "inputs": [
        {
          "internalType": "address",
          "name": "",
          "type": "address"
        }
      ],
      "name": "aliveImplementation",
      "outputs": [
        {
          "internalType": "bool",
          "name": "",
          "type": "bool"
        }
      ],
      "stateMutability": "view",
      "type": "function"
    },
    {
      "inputs": [
        {
          "internalType": "bytes32",
          "name": "role",
          "type": "bytes32"
        }
      ],
      "name": "getRoleAdmin",
      "outputs": [
        {
          "internalType": "bytes32",
          "name": "",
          "type": "bytes32"
        }
      ],
      "stateMutability": "view",
      "type": "function"
    },
    {
      "inputs": [
        {
          "internalType": "bytes4",
          "name": "_selector",
          "type": "bytes4"
        }
      ],
      "name": "getSelectorImplementation2",
      "outputs": [
        {
          "internalType": "address",
          "name": "impl",
          "type": "address"
        }
      ],
      "stateMutability": "view",
      "type": "function"
    },
    {
      "inputs": [
        {
          "internalType": "bytes32",
          "name": "role",
          "type": "bytes32"
        },
        {
          "internalType": "address",
          "name": "account",
          "type": "address"
        }
      ],
      "name": "grantRole",
      "outputs": [],
      "stateMutability": "nonpayable",
      "type": "function"
    },
    {
      "inputs": [
        {
          "internalType": "bytes32",
          "name": "role",
          "type": "bytes32"
        },
        {
          "internalType": "address",
          "name": "account",
          "type": "address"
        }
      ],
      "name": "hasRole",
      "outputs": [
        {
          "internalType": "bool",
          "name": "",
          "type": "bool"
        }
      ],
      "stateMutability": "view",
      "type": "function"
    },
    {
      "inputs": [],
      "name": "implementation",
      "outputs": [
        {
          "internalType": "address",
          "name": "",
          "type": "address"
        }
      ],
      "stateMutability": "view",
      "type": "function"
    },
    {
      "inputs": [
        {
          "internalType": "uint256",
          "name": "_index",
          "type": "uint256"
        }
      ],
      "name": "implementation2",
      "outputs": [
        {
          "internalType": "address",
          "name": "",
          "type": "address"
        }
      ],
      "stateMutability": "view",
      "type": "function"
    },
    {
      "inputs": [
        {
          "internalType": "address",
          "name": "account",
          "type": "address"
        }
      ],
      "name": "isAdmin",
      "outputs": [
        {
          "internalType": "bool",
          "name": "",
          "type": "bool"
        }
      ],
      "stateMutability": "view",
      "type": "function"
    },
    {
      "inputs": [],
      "name": "l2ProjectManager",
      "outputs": [
        {
          "internalType": "address",
          "name": "",
          "type": "address"
        }
      ],
      "stateMutability": "view",
      "type": "function"
    },
    {
      "inputs": [],
      "name": "pauseProxy",
      "outputs": [
        {
          "internalType": "bool",
          "name": "",
          "type": "bool"
        }
      ],
      "stateMutability": "view",
      "type": "function"
    },
    {
      "inputs": [
        {
          "internalType": "address",
          "name": "",
          "type": "address"
        }
      ],
      "name": "poolInfo",
      "outputs": [
        {
          "internalType": "address",
          "name": "token0",
          "type": "address"
        },
        {
          "internalType": "address",
          "name": "token1",
          "type": "address"
        },
        {
          "internalType": "uint24",
          "name": "fee",
          "type": "uint24"
        }
      ],
      "stateMutability": "view",
      "type": "function"
    },
    {
      "inputs": [
        {
          "internalType": "uint256",
          "name": "",
          "type": "uint256"
        }
      ],
      "name": "proxyImplementation",
      "outputs": [
        {
          "internalType": "address",
          "name": "",
          "type": "address"
        }
      ],
      "stateMutability": "view",
      "type": "function"
    },
    {
      "inputs": [],
      "name": "recipient",
      "outputs": [
        {
          "internalType": "address",
          "name": "",
          "type": "address"
        }
      ],
      "stateMutability": "view",
      "type": "function"
    },
    {
      "inputs": [
        {
          "internalType": "address",
          "name": "account",
          "type": "address"
        }
      ],
      "name": "removeAdmin",
      "outputs": [],
      "stateMutability": "nonpayable",
      "type": "function"
    },
    {
      "inputs": [
        {
          "internalType": "bytes32",
          "name": "role",
          "type": "bytes32"
        },
        {
          "internalType": "address",
          "name": "account",
          "type": "address"
        }
      ],
      "name": "renounceRole",
      "outputs": [],
      "stateMutability": "nonpayable",
      "type": "function"
    },
    {
      "inputs": [
        {
          "internalType": "bytes32",
          "name": "role",
          "type": "bytes32"
        },
        {
          "internalType": "address",
          "name": "account",
          "type": "address"
        }
      ],
      "name": "revokeRole",
      "outputs": [],
      "stateMutability": "nonpayable",
      "type": "function"
    },
    {
      "inputs": [
        {
          "internalType": "bytes4",
          "name": "",
          "type": "bytes4"
        }
      ],
      "name": "selectorImplementation",
      "outputs": [
        {
          "internalType": "address",
          "name": "",
          "type": "address"
        }
      ],
      "stateMutability": "view",
      "type": "function"
    },
    {
      "inputs": [
        {
          "internalType": "address",
          "name": "newImplementation",
          "type": "address"
        },
        {
          "internalType": "bool",
          "name": "_alive",
          "type": "bool"
        }
      ],
      "name": "setAliveImplementation2",
      "outputs": [],
      "stateMutability": "nonpayable",
      "type": "function"
    },
    {
      "inputs": [
        {
          "internalType": "address",
          "name": "newImplementation",
          "type": "address"
        },
        {
          "internalType": "uint256",
          "name": "_index",
          "type": "uint256"
        },
        {
          "internalType": "bool",
          "name": "_alive",
          "type": "bool"
        }
      ],
      "name": "setImplementation2",
      "outputs": [],
      "stateMutability": "nonpayable",
      "type": "function"
    },
    {
      "inputs": [
        {
          "internalType": "bool",
          "name": "_pause",
          "type": "bool"
        }
      ],
      "name": "setProxyPause",
      "outputs": [],
      "stateMutability": "nonpayable",
      "type": "function"
    },
    {
      "inputs": [
        {
          "internalType": "bytes4[]",
          "name": "_selectors",
          "type": "bytes4[]"
        },
        {
          "internalType": "address",
          "name": "_imp",
          "type": "address"
        }
      ],
      "name": "setSelectorImplementations2",
      "outputs": [],
      "stateMutability": "nonpayable",
      "type": "function"
    },
    {
      "inputs": [
        {
          "internalType": "bytes4",
          "name": "interfaceId",
          "type": "bytes4"
        }
      ],
      "name": "supportsInterface",
      "outputs": [
        {
          "internalType": "bool",
          "name": "",
          "type": "bool"
        }
      ],
      "stateMutability": "view",
      "type": "function"
    },
    {
      "inputs": [
        {
          "internalType": "address",
          "name": "newAdmin",
          "type": "address"
        }
      ],
      "name": "transferAdmin",
      "outputs": [],
      "stateMutability": "nonpayable",
      "type": "function"
    },
    {
      "inputs": [],
      "name": "uniswapV3Factory",
      "outputs": [
        {
          "internalType": "address",
          "name": "",
          "type": "address"
        }
      ],
      "stateMutability": "view",
      "type": "function"
    },
    {
      "inputs": [
        {
          "internalType": "address",
          "name": "impl",
          "type": "address"
        }
      ],
      "name": "upgradeTo",
      "outputs": [],
      "stateMutability": "nonpayable",
      "type": "function"
    },
    {
      "inputs": [
        {
          "internalType": "address",
          "name": "",
          "type": "address"
        }
      ],
      "name": "vaultAdminOfToken",
      "outputs": [
        {
          "internalType": "address",
          "name": "",
          "type": "address"
        }
      ],
      "stateMutability": "view",
      "type": "function"
    },
    {
      "inputs": [
        {
          "internalType": "address",
          "name": "",
          "type": "address"
        },
        {
          "internalType": "address",
          "name": "",
          "type": "address"
        }
      ],
      "name": "vaultInfo",
      "outputs": [
        {
          "internalType": "address",
          "name": "claimer",
          "type": "address"
        },
        {
          "internalType": "uint256",
          "name": "totalAllocatedAmount",
          "type": "uint256"
        },
        {
          "internalType": "uint256",
          "name": "totalClaimCount",
          "type": "uint256"
        },
        {
          "internalType": "uint256",
          "name": "totalClaimedAmount",
          "type": "uint256"
        },
        {
          "internalType": "uint256",
          "name": "firstClaimAmount",
          "type": "uint256"
        },
        {
          "internalType": "uint32",
          "name": "firstClaimTime",
          "type": "uint32"
        },
        {
          "internalType": "uint32",
          "name": "secondClaimTime",
          "type": "uint32"
        },
        {
          "internalType": "uint32",
          "name": "roundInterval",
          "type": "uint32"
        },
        {
          "internalType": "uint32",
          "name": "latestClaimedRound",
          "type": "uint32"
        }
      ],
      "stateMutability": "view",
      "type": "function"
    },
    {
      "stateMutability": "payable",
      "type": "receive"
    }
  ],
  "bytecode": "0x60806040526005805460ff191660011790553480156200001e57600080fd5b506200003a60008051602062001c07833981519152806200005b565b6200005560008051602062001c0783398151915233620000a6565b6200015a565b600082815260046020526040808220600101805490849055905190918391839186917fbd79b86ffe0ab8e8776151514217cd7cacd52c909f66475c3af44e129f0b00ff9190a4505050565b620000b28282620000b6565b5050565b60008281526004602090815260408083206001600160a01b038516845290915290205460ff16620000b25760008281526004602090815260408083206001600160a01b03851684529091529020805460ff19166001179055620001163390565b6001600160a01b0316816001600160a01b0316837f2f8788117e7eff1d82e926ec794901d17c78024a50270940304540a733656f0d60405160405180910390a45050565b611a9d806200016a6000396000f3fe6080604052600436106101dc5760003560e01c806363a8fd89116101025780638b8f4a6511610095578063a217fddf11610064578063a217fddf146106fd578063b911135f14610712578063d547741f14610748578063fb300884146107685761022e565b80638b8f4a65146105ec5780638d4fdb401461060c57806391d148541461062c5780639a7b5f11146106725761022e565b806375b238fc116100d157806375b238fc146105425780637cb00d25146105765780637cd5f663146105965780637fc46ba8146105b65761022e565b806363a8fd89146104c857806366d003ac146104e2578063704802751461050257806375829def146105225761022e565b80633659cfe61161017a578063550d01a311610149578063550d01a3146104125780635b549182146104425780635c60da1b146104625780635cc797d8146104a85761022e565b80633659cfe61461035f5780634a5df50f1461037f57806350d2a2761461039f57806352351e85146103ed5761022e565b8063248a9ca3116101b6578063248a9ca3146102cf57806324d7806c146102ff5780632f2ff15d1461031f57806336568abe1461033f5761022e565b806301ffc9a7146102385780631785f53c1461026d578063229852461461028d5761022e565b3661022e5760405162461bcd60e51b815260206004820152601460248201527f63616e6e6f74207265636569766520457468657200000000000000000000000060448201526064015b60405180910390fd5b61023661085e565b005b34801561024457600080fd5b50610258610253366004611725565b610907565b60405190151581526020015b60405180910390f35b34801561027957600080fd5b50610236610288366004611766565b61093e565b34801561029957600080fd5b506102c17ffb5864e8ff833c3cb2d2d08505e82ff02a43554c74a35d4f5a64e8526127831181565b604051908152602001610264565b3480156102db57600080fd5b506102c16102ea366004611781565b60009081526004602052604090206001015490565b34801561030b57600080fd5b5061025861031a366004611766565b6109b9565b34801561032b57600080fd5b5061023661033a36600461179a565b6109f9565b34801561034b57600080fd5b5061023661035a36600461179a565b610a1e565b34801561036b57600080fd5b5061023661037a366004611766565b610aaa565b34801561038b57600080fd5b5061023661039a3660046117c6565b610c03565b3480156103ab57600080fd5b506103d56103ba366004611725565b6003602052600090815260409020546001600160a01b031681565b6040516001600160a01b039091168152602001610264565b3480156103f957600080fd5b506005546103d59061010090046001600160a01b031681565b34801561041e57600080fd5b5061025861042d366004611766565b60026020526000908152604090205460ff1681565b34801561044e57600080fd5b506007546103d5906001600160a01b031681565b34801561046e57600080fd5b506000805260016020527fa6eef7e35abe7026729641147f7915573c7e97b47efa546f5f6e3230263bcb49546001600160a01b03166103d5565b3480156104b457600080fd5b506102366104c336600461185a565b610eb0565b3480156104d457600080fd5b506000546102589060ff1681565b3480156104ee57600080fd5b506008546103d5906001600160a01b031681565b34801561050e57600080fd5b5061023661051d366004611766565b610f08565b34801561052e57600080fd5b5061023661053d366004611766565b610f80565b34801561054e57600080fd5b506102c17fdf8b4c520ffe197c5343c6f5aec59570151ef9a492f2c624fd45ddde6135ec4281565b34801561058257600080fd5b50610236610591366004611884565b6110d0565b3480156105a257600080fd5b506102366105b136600461189f565b611131565b3480156105c257600080fd5b506103d56105d1366004611766565b6006602052600090815260409020546001600160a01b031681565b3480156105f857600080fd5b506103d5610607366004611781565b61118a565b34801561061857600080fd5b506103d5610627366004611725565b6111a7565b34801561063857600080fd5b5061025861064736600461179a565b60009182526004602090815260408084206001600160a01b0393909316845291905290205460ff1690565b34801561067e57600080fd5b506106d261068d366004611766565b600a60205260009081526040902080546001909101546001600160a01b039182169181169074010000000000000000000000000000000000000000900462ffffff1683565b604080516001600160a01b03948516815293909216602084015262ffffff1690820152606001610264565b34801561070957600080fd5b506102c1600081565b34801561071e57600080fd5b506103d561072d366004611781565b6001602052600090815260409020546001600160a01b031681565b34801561075457600080fd5b5061023661076336600461179a565b6112a3565b34801561077457600080fd5b506108016107833660046118d2565b60096020908152600092835260408084209091529082529020805460018201546002830154600384015460048501546005909501546001600160a01b039094169492939192909163ffffffff8082169164010000000081048216916801000000000000000082048116916c0100000000000000000000000090041689565b604080516001600160a01b03909a168a5260208a0198909852968801959095526060870193909352608086019190915263ffffffff90811660a086015290811660c085015290811660e08401521661010082015261012001610264565b60006108756000356001600160e01b0319166111a7565b90506001600160a01b03811615801590610892575060005460ff16155b6108de5760405162461bcd60e51b815260206004820152601d60248201527f50726f78793a20696d706c204f522070726f78792069732066616c73650000006044820152606401610225565b3660008037600080366000845af43d6000803e8080156108fd573d6000f35b3d6000fd5b505050565b60006001600160e01b03198216637965db0b60e01b148061093857506301ffc9a760e01b6001600160e01b03198316145b92915050565b610947336109b9565b61098c5760405162461bcd60e51b81526020600482015260226024820152600080516020611a7183398151915260448201526134b760f11b6064820152608401610225565b6109b67fdf8b4c520ffe197c5343c6f5aec59570151ef9a492f2c624fd45ddde6135ec4282610a1e565b50565b6001600160a01b03811660009081527f2fb794d17134dfdec181ddbac1babb5ab1eb140204ef4d982f294e7fc8b69022602052604081205460ff16610938565b600082815260046020526040902060010154610a14816112c8565b61090283836112d2565b6001600160a01b0381163314610a9c5760405162461bcd60e51b815260206004820152602f60248201527f416363657373436f6e74726f6c3a2063616e206f6e6c792072656e6f756e636560448201527f20726f6c657320666f722073656c6600000000000000000000000000000000006064820152608401610225565b610aa68282611374565b5050565b610ab3336109b9565b610af85760405162461bcd60e51b81526020600482015260226024820152600080516020611a7183398151915260448201526134b760f11b6064820152608401610225565b6001600160a01b038116610b4e5760405162461bcd60e51b815260206004820152600d60248201527f696e707574206973207a65726f000000000000000000000000000000000000006044820152606401610225565b6000805260016020527fa6eef7e35abe7026729641147f7915573c7e97b47efa546f5f6e3230263bcb49546001600160a01b03828116911603610bbf5760405162461bcd60e51b815260206004820152600960248201526839b0b6b29030b2323960b91b6044820152606401610225565b610bcc81600060016113f7565b6040516001600160a01b038216907fbc7cd75a20ee27fd9adebab32041f755214dbc6bffa90cc0225b39da2e5c2d3b90600090a250565b610c0c336109b9565b610c515760405162461bcd60e51b81526020600482015260226024820152600080516020611a7183398151915260448201526134b760f11b6064820152608401610225565b81610c9e5760405162461bcd60e51b815260206004820181905260248201527f50726f78793a205f73656c6563746f727327732073697a65206973207a65726f6044820152606401610225565b6001600160a01b03811660009081526002602052604090205460ff16610d065760405162461bcd60e51b815260206004820152601860248201527f50726f78793a205f696d70206973206e6f7420616c69766500000000000000006044820152606401610225565b60005b82811015610eaa57816001600160a01b031660036000868685818110610d3157610d316118fc565b9050602002016020810190610d469190611725565b6001600160e01b03191681526020810191909152604001600020546001600160a01b031603610db75760405162461bcd60e51b815260206004820152601d60248201527f4c69717569646974795661756c7450726f78793a2073616d6520696d700000006044820152606401610225565b8160036000868685818110610dce57610dce6118fc565b9050602002016020810190610de39190611725565b6001600160e01b03191681526020810191909152604001600020805473ffffffffffffffffffffffffffffffffffffffff19166001600160a01b039283161790558216848483818110610e3857610e386118fc565b9050602002016020810190610e4d9190611725565b7bffffffffffffffffffffffffffffffffffffffffffffffffffffffff19167f14ebc1c32aa68f4d766e89f3e546cee249f7df25183fc10ab1568d91c2ce9b7b60405160405180910390a380610ea281611928565b915050610d09565b50505050565b610eb9336109b9565b610efe5760405162461bcd60e51b81526020600482015260226024820152600080516020611a7183398151915260448201526134b760f11b6064820152608401610225565b610aa6828261148f565b610f11336109b9565b610f565760405162461bcd60e51b81526020600482015260226024820152600080516020611a7183398151915260448201526134b760f11b6064820152608401610225565b6109b67fdf8b4c520ffe197c5343c6f5aec59570151ef9a492f2c624fd45ddde6135ec42826109f9565b610f89336109b9565b610fce5760405162461bcd60e51b81526020600482015260226024820152600080516020611a7183398151915260448201526134b760f11b6064820152608401610225565b6001600160a01b0381166110245760405162461bcd60e51b815260206004820152601860248201527f41636365737369626c653a207a65726f206164647265737300000000000000006044820152606401610225565b6001600160a01b038116330361107c5760405162461bcd60e51b815260206004820152601660248201527f41636365737369626c653a2073616d652061646d696e000000000000000000006044820152606401610225565b6110a67fdf8b4c520ffe197c5343c6f5aec59570151ef9a492f2c624fd45ddde6135ec42826109f9565b6109b67fdf8b4c520ffe197c5343c6f5aec59570151ef9a492f2c624fd45ddde6135ec4233610a1e565b6110d9336109b9565b61111e5760405162461bcd60e51b81526020600482015260226024820152600080516020611a7183398151915260448201526134b760f11b6064820152608401610225565b6000805460ff1916911515919091179055565b61113a336109b9565b61117f5760405162461bcd60e51b81526020600482015260226024820152600080516020611a7183398151915260448201526134b760f11b6064820152608401610225565b6109028383836113f7565b6000818152600160205260408120546001600160a01b0316610938565b6001600160e01b031981166000908152600360205260408120546001600160a01b03166112075750506000805260016020527fa6eef7e35abe7026729641147f7915573c7e97b47efa546f5f6e3230263bcb49546001600160a01b031690565b6001600160e01b031982166000908152600360209081526040808320546001600160a01b03168352600290915290205460ff161561126557506001600160e01b0319166000908152600360205260409020546001600160a01b031690565b50506000805260016020527fa6eef7e35abe7026729641147f7915573c7e97b47efa546f5f6e3230263bcb49546001600160a01b031690565b919050565b6000828152600460205260409020600101546112be816112c8565b6109028383611374565b6109b681336114ee565b60008281526004602090815260408083206001600160a01b038516845290915290205460ff16610aa65760008281526004602090815260408083206001600160a01b03851684529091529020805460ff191660011790556113303390565b6001600160a01b0316816001600160a01b0316837f2f8788117e7eff1d82e926ec794901d17c78024a50270940304540a733656f0d60405160405180910390a45050565b60008281526004602090815260408083206001600160a01b038516845290915290205460ff1615610aa65760008281526004602090815260408083206001600160a01b0385168085529252808320805460ff1916905551339285917ff6391f5c32d9c69d2a47ea670b442974b53935d1edc7fd64eb21e047a839171b9190a45050565b6001600160a01b0383163b61144e5760405162461bcd60e51b815260206004820152601b60248201527f50726f78793a206e6f7420636f6e7472616374206164647265737300000000006044820152606401610225565b8015611489576000828152600160205260409020805473ffffffffffffffffffffffffffffffffffffffff19166001600160a01b0385161790555b61090283825b6001600160a01b038216600081815260026020908152604091829020805460ff191685151590811790915591519182527f72558d9bfba4210f9ef095c782589484151f6d90f7a81bb3cb9b33efc695d324910160405180910390a25050565b60008281526004602090815260408083206001600160a01b038516845290915290205460ff16610aa65761152181611563565b61152c836020611575565b60405160200161153d929190611965565b60408051601f198184030181529082905262461bcd60e51b8252610225916004016119e6565b60606109386001600160a01b03831660145b60606000611584836002611a19565b61158f906002611a30565b67ffffffffffffffff8111156115a7576115a7611a43565b6040519080825280601f01601f1916602001820160405280156115d1576020820181803683370190505b509050600360fc1b816000815181106115ec576115ec6118fc565b60200101906001600160f81b031916908160001a905350600f60fb1b8160018151811061161b5761161b6118fc565b60200101906001600160f81b031916908160001a905350600061163f846002611a19565b61164a906001611a30565b90505b60018111156116cf577f303132333435363738396162636465660000000000000000000000000000000085600f166010811061168b5761168b6118fc565b1a60f81b8282815181106116a1576116a16118fc565b60200101906001600160f81b031916908160001a90535060049490941c936116c881611a59565b905061164d565b50831561171e5760405162461bcd60e51b815260206004820181905260248201527f537472696e67733a20686578206c656e67746820696e73756666696369656e746044820152606401610225565b9392505050565b60006020828403121561173757600080fd5b81356001600160e01b03198116811461171e57600080fd5b80356001600160a01b038116811461129e57600080fd5b60006020828403121561177857600080fd5b61171e8261174f565b60006020828403121561179357600080fd5b5035919050565b600080604083850312156117ad57600080fd5b823591506117bd6020840161174f565b90509250929050565b6000806000604084860312156117db57600080fd5b833567ffffffffffffffff808211156117f357600080fd5b818601915086601f83011261180757600080fd5b81358181111561181657600080fd5b8760208260051b850101111561182b57600080fd5b602092830195509350611841918601905061174f565b90509250925092565b8035801515811461129e57600080fd5b6000806040838503121561186d57600080fd5b6118768361174f565b91506117bd6020840161184a565b60006020828403121561189657600080fd5b61171e8261184a565b6000806000606084860312156118b457600080fd5b6118bd8461174f565b9250602084013591506118416040850161184a565b600080604083850312156118e557600080fd5b6118ee8361174f565b91506117bd6020840161174f565b634e487b7160e01b600052603260045260246000fd5b634e487b7160e01b600052601160045260246000fd5b60006001820161193a5761193a611912565b5060010190565b60005b8381101561195c578181015183820152602001611944565b50506000910152565b7f416363657373436f6e74726f6c3a206163636f756e742000000000000000000081526000835161199d816017850160208801611941565b7f206973206d697373696e6720726f6c652000000000000000000000000000000060179184019182015283516119da816028840160208801611941565b01602801949350505050565b6020815260008251806020840152611a05816040850160208701611941565b601f01601f19169190910160400192915050565b808202811582820484141761093857610938611912565b8082018082111561093857610938611912565b634e487b7160e01b600052604160045260246000fd5b600081611a6857611a68611912565b50600019019056fe41636365737369626c653a2043616c6c6572206973206e6f7420616e2061646da164736f6c6343000812000adf8b4c520ffe197c5343c6f5aec59570151ef9a492f2c624fd45ddde6135ec42",
  "linkReferences": {},
  "deployedLinkReferences": {}
}