{
  "_format": "hh-sol-artifact-1",
  "contractName": "L2LpRewardVaultProxy",
  "sourceName": "contracts/L2/vaults/L2LpRewardVaultProxy.sol",
  "abi": [
    {
      "anonymous": false,
      "inputs": [
        {
          "indexed": true,
          "internalType": "bytes32",
          "name": "role",
          "type": "bytes32"
        },
        {
          "indexed": true,
          "internalType": "bytes32",
          "name": "previousAdminRole",
          "type": "bytes32"
        },
        {
          "indexed": true,
          "internalType": "bytes32",
          "name": "newAdminRole",
          "type": "bytes32"
        }
      ],
      "name": "RoleAdminChanged",
      "type": "event"
    },
    {
      "anonymous": false,
      "inputs": [
        {
          "indexed": true,
          "internalType": "bytes32",
          "name": "role",
          "type": "bytes32"
        },
        {
          "indexed": true,
          "internalType": "address",
          "name": "account",
          "type": "address"
        },
        {
          "indexed": true,
          "internalType": "address",
          "name": "sender",
          "type": "address"
        }
      ],
      "name": "RoleGranted",
      "type": "event"
    },
    {
      "anonymous": false,
      "inputs": [
        {
          "indexed": true,
          "internalType": "bytes32",
          "name": "role",
          "type": "bytes32"
        },
        {
          "indexed": true,
          "internalType": "address",
          "name": "account",
          "type": "address"
        },
        {
          "indexed": true,
          "internalType": "address",
          "name": "sender",
          "type": "address"
        }
      ],
      "name": "RoleRevoked",
      "type": "event"
    },
    {
      "anonymous": false,
      "inputs": [
        {
          "indexed": true,
          "internalType": "address",
          "name": "impl",
          "type": "address"
        },
        {
          "indexed": false,
          "internalType": "bool",
          "name": "alive",
          "type": "bool"
        }
      ],
      "name": "SetAliveImplementation",
      "type": "event"
    },
    {
      "anonymous": false,
      "inputs": [
        {
          "indexed": true,
          "internalType": "bytes4",
          "name": "selector",
          "type": "bytes4"
        },
        {
          "indexed": true,
          "internalType": "address",
          "name": "impl",
          "type": "address"
        }
      ],
      "name": "SetSelectorImplementation",
      "type": "event"
    },
    {
      "anonymous": false,
      "inputs": [
        {
          "indexed": false,
          "internalType": "address",
          "name": "l2Token",
          "type": "address"
        },
        {
          "indexed": false,
          "internalType": "address",
          "name": "newAdmin",
          "type": "address"
        }
      ],
      "name": "SetVaultAdmin",
      "type": "event"
    },
    {
      "anonymous": false,
      "inputs": [
        {
          "indexed": true,
          "internalType": "address",
          "name": "implementation",
          "type": "address"
        }
      ],
      "name": "Upgraded",
      "type": "event"
    },
    {
      "stateMutability": "payable",
      "type": "fallback"
    },
    {
      "inputs": [],
      "name": "ADMIN_ROLE",
      "outputs": [
        {
          "internalType": "bytes32",
          "name": "",
          "type": "bytes32"
        }
      ],
      "stateMutability": "view",
      "type": "function"
    },
    {
      "inputs": [],
      "name": "DEFAULT_ADMIN_ROLE",
      "outputs": [
        {
          "internalType": "bytes32",
          "name": "",
          "type": "bytes32"
        }
      ],
      "stateMutability": "view",
      "type": "function"
    },
    {
      "inputs": [],
      "name": "POLICY_ROLE",
      "outputs": [
        {
          "internalType": "bytes32",
          "name": "",
          "type": "bytes32"
        }
      ],
      "stateMutability": "view",
      "type": "function"
    },
    {
      "inputs": [
        {
          "internalType": "address",
          "name": "account",
          "type": "address"
        }
      ],
      "name": "addAdmin",
      "outputs": [],
      "stateMutability": "nonpayable",
      "type": "function"
    },
    {
      "inputs": [
        {
          "internalType": "address",
          "name": "",
          "type": "address"
        }
      ],
      "name": "aliveImplementation",
      "outputs": [
        {
          "internalType": "bool",
          "name": "",
          "type": "bool"
        }
      ],
      "stateMutability": "view",
      "type": "function"
    },
    {
      "inputs": [
        {
          "internalType": "bytes32",
          "name": "role",
          "type": "bytes32"
        }
      ],
      "name": "getRoleAdmin",
      "outputs": [
        {
          "internalType": "bytes32",
          "name": "",
          "type": "bytes32"
        }
      ],
      "stateMutability": "view",
      "type": "function"
    },
    {
      "inputs": [
        {
          "internalType": "bytes4",
          "name": "_selector",
          "type": "bytes4"
        }
      ],
      "name": "getSelectorImplementation2",
      "outputs": [
        {
          "internalType": "address",
          "name": "impl",
          "type": "address"
        }
      ],
      "stateMutability": "view",
      "type": "function"
    },
    {
      "inputs": [
        {
          "internalType": "bytes32",
          "name": "role",
          "type": "bytes32"
        },
        {
          "internalType": "address",
          "name": "account",
          "type": "address"
        }
      ],
      "name": "grantRole",
      "outputs": [],
      "stateMutability": "nonpayable",
      "type": "function"
    },
    {
      "inputs": [
        {
          "internalType": "bytes32",
          "name": "role",
          "type": "bytes32"
        },
        {
          "internalType": "address",
          "name": "account",
          "type": "address"
        }
      ],
      "name": "hasRole",
      "outputs": [
        {
          "internalType": "bool",
          "name": "",
          "type": "bool"
        }
      ],
      "stateMutability": "view",
      "type": "function"
    },
    {
      "inputs": [],
      "name": "implementation",
      "outputs": [
        {
          "internalType": "address",
          "name": "",
          "type": "address"
        }
      ],
      "stateMutability": "view",
      "type": "function"
    },
    {
      "inputs": [
        {
          "internalType": "uint256",
          "name": "_index",
          "type": "uint256"
        }
      ],
      "name": "implementation2",
      "outputs": [
        {
          "internalType": "address",
          "name": "",
          "type": "address"
        }
      ],
      "stateMutability": "view",
      "type": "function"
    },
    {
      "inputs": [
        {
          "internalType": "address",
          "name": "account",
          "type": "address"
        }
      ],
      "name": "isAdmin",
      "outputs": [
        {
          "internalType": "bool",
          "name": "",
          "type": "bool"
        }
      ],
      "stateMutability": "view",
      "type": "function"
    },
    {
      "inputs": [],
      "name": "l2ProjectManager",
      "outputs": [
        {
          "internalType": "address",
          "name": "",
          "type": "address"
        }
      ],
      "stateMutability": "view",
      "type": "function"
    },
    {
      "inputs": [],
      "name": "pauseProxy",
      "outputs": [
        {
          "internalType": "bool",
          "name": "",
          "type": "bool"
        }
      ],
      "stateMutability": "view",
      "type": "function"
    },
    {
      "inputs": [
        {
          "internalType": "address",
          "name": "",
          "type": "address"
        }
      ],
      "name": "poolInfo",
      "outputs": [
        {
          "internalType": "address",
          "name": "token0",
          "type": "address"
        },
        {
          "internalType": "address",
          "name": "token1",
          "type": "address"
        },
        {
          "internalType": "uint24",
          "name": "fee",
          "type": "uint24"
        }
      ],
      "stateMutability": "view",
      "type": "function"
    },
    {
      "inputs": [],
      "name": "pool_init_code_hash",
      "outputs": [
        {
          "internalType": "bytes32",
          "name": "",
          "type": "bytes32"
        }
      ],
      "stateMutability": "view",
      "type": "function"
    },
    {
      "inputs": [
        {
          "internalType": "uint256",
          "name": "",
          "type": "uint256"
        }
      ],
      "name": "proxyImplementation",
      "outputs": [
        {
          "internalType": "address",
          "name": "",
          "type": "address"
        }
      ],
      "stateMutability": "view",
      "type": "function"
    },
    {
      "inputs": [],
      "name": "recipient",
      "outputs": [
        {
          "internalType": "address",
          "name": "",
          "type": "address"
        }
      ],
      "stateMutability": "view",
      "type": "function"
    },
    {
      "inputs": [
        {
          "internalType": "address",
          "name": "account",
          "type": "address"
        }
      ],
      "name": "removeAdmin",
      "outputs": [],
      "stateMutability": "nonpayable",
      "type": "function"
    },
    {
      "inputs": [
        {
          "internalType": "bytes32",
          "name": "role",
          "type": "bytes32"
        },
        {
          "internalType": "address",
          "name": "account",
          "type": "address"
        }
      ],
      "name": "renounceRole",
      "outputs": [],
      "stateMutability": "nonpayable",
      "type": "function"
    },
    {
      "inputs": [
        {
          "internalType": "bytes32",
          "name": "role",
          "type": "bytes32"
        },
        {
          "internalType": "address",
          "name": "account",
          "type": "address"
        }
      ],
      "name": "revokeRole",
      "outputs": [],
      "stateMutability": "nonpayable",
      "type": "function"
    },
    {
      "inputs": [
        {
          "internalType": "bytes4",
          "name": "",
          "type": "bytes4"
        }
      ],
      "name": "selectorImplementation",
      "outputs": [
        {
          "internalType": "address",
          "name": "",
          "type": "address"
        }
      ],
      "stateMutability": "view",
      "type": "function"
    },
    {
      "inputs": [
        {
          "internalType": "address",
          "name": "newImplementation",
          "type": "address"
        },
        {
          "internalType": "bool",
          "name": "_alive",
          "type": "bool"
        }
      ],
      "name": "setAliveImplementation2",
      "outputs": [],
      "stateMutability": "nonpayable",
      "type": "function"
    },
    {
      "inputs": [
        {
          "internalType": "address",
          "name": "newImplementation",
          "type": "address"
        },
        {
          "internalType": "uint256",
          "name": "_index",
          "type": "uint256"
        },
        {
          "internalType": "bool",
          "name": "_alive",
          "type": "bool"
        }
      ],
      "name": "setImplementation2",
      "outputs": [],
      "stateMutability": "nonpayable",
      "type": "function"
    },
    {
      "inputs": [
        {
          "internalType": "bool",
          "name": "_pause",
          "type": "bool"
        }
      ],
      "name": "setProxyPause",
      "outputs": [],
      "stateMutability": "nonpayable",
      "type": "function"
    },
    {
      "inputs": [
        {
          "internalType": "bytes4[]",
          "name": "_selectors",
          "type": "bytes4[]"
        },
        {
          "internalType": "address",
          "name": "_imp",
          "type": "address"
        }
      ],
      "name": "setSelectorImplementations2",
      "outputs": [],
      "stateMutability": "nonpayable",
      "type": "function"
    },
    {
      "inputs": [
        {
          "internalType": "bytes4",
          "name": "interfaceId",
          "type": "bytes4"
        }
      ],
      "name": "supportsInterface",
      "outputs": [
        {
          "internalType": "bool",
          "name": "",
          "type": "bool"
        }
      ],
      "stateMutability": "view",
      "type": "function"
    },
    {
      "inputs": [
        {
          "internalType": "address",
          "name": "newAdmin",
          "type": "address"
        }
      ],
      "name": "transferAdmin",
      "outputs": [],
      "stateMutability": "nonpayable",
      "type": "function"
    },
    {
      "inputs": [],
      "name": "uniswapV3Factory",
      "outputs": [
        {
          "internalType": "address",
          "name": "",
          "type": "address"
        }
      ],
      "stateMutability": "view",
      "type": "function"
    },
    {
      "inputs": [
        {
          "internalType": "address",
          "name": "impl",
          "type": "address"
        }
      ],
      "name": "upgradeTo",
      "outputs": [],
      "stateMutability": "nonpayable",
      "type": "function"
    },
    {
      "inputs": [
        {
          "internalType": "address",
          "name": "",
          "type": "address"
        }
      ],
      "name": "vaultAdminOfToken",
      "outputs": [
        {
          "internalType": "address",
          "name": "",
          "type": "address"
        }
      ],
      "stateMutability": "view",
      "type": "function"
    },
    {
      "inputs": [
        {
          "internalType": "address",
          "name": "",
          "type": "address"
        },
        {
          "internalType": "address",
          "name": "",
          "type": "address"
        }
      ],
      "name": "vaultInfo",
      "outputs": [
        {
          "internalType": "address",
          "name": "claimer",
          "type": "address"
        },
        {
          "internalType": "uint256",
          "name": "totalAllocatedAmount",
          "type": "uint256"
        },
        {
          "internalType": "uint256",
          "name": "totalClaimCount",
          "type": "uint256"
        },
        {
          "internalType": "uint256",
          "name": "totalClaimedAmount",
          "type": "uint256"
        },
        {
          "internalType": "uint256",
          "name": "firstClaimAmount",
          "type": "uint256"
        },
        {
          "internalType": "uint32",
          "name": "firstClaimTime",
          "type": "uint32"
        },
        {
          "internalType": "uint32",
          "name": "secondClaimTime",
          "type": "uint32"
        },
        {
          "internalType": "uint32",
          "name": "roundInterval",
          "type": "uint32"
        },
        {
          "internalType": "uint32",
          "name": "latestClaimedRound",
          "type": "uint32"
        }
      ],
      "stateMutability": "view",
      "type": "function"
    },
    {
      "stateMutability": "payable",
      "type": "receive"
    }
  ],
  "bytecode": "0x60806040526005805460ff191660011790553480156200001e57600080fd5b506200003a60008051602062001c28833981519152806200005b565b6200005560008051602062001c2883398151915233620000a6565b6200015a565b600082815260046020526040808220600101805490849055905190918391839186917fbd79b86ffe0ab8e8776151514217cd7cacd52c909f66475c3af44e129f0b00ff9190a4505050565b620000b28282620000b6565b5050565b60008281526004602090815260408083206001600160a01b038516845290915290205460ff16620000b25760008281526004602090815260408083206001600160a01b03851684529091529020805460ff19166001179055620001163390565b6001600160a01b0316816001600160a01b0316837f2f8788117e7eff1d82e926ec794901d17c78024a50270940304540a733656f0d60405160405180910390a45050565b611abe806200016a6000396000f3fe6080604052600436106101e75760003560e01c806366d003ac116101025780638d4fdb4011610095578063b911135f11610064578063b911135f1461071d578063d547741f14610753578063df1a026214610773578063fb3008841461078957610239565b80638d4fdb401461061757806391d14854146106375780639a7b5f111461067d578063a217fddf1461070857610239565b80637cb00d25116100d15780637cb00d25146105815780637cd5f663146105a15780637fc46ba8146105c15780638b8f4a65146105f757610239565b806366d003ac146104ed578063704802751461050d57806375829def1461052d57806375b238fc1461054d57610239565b80634a5df50f1161017a5780635b549182116101495780635b5491821461044d5780635c60da1b1461046d5780635cc797d8146104b357806363a8fd89146104d357610239565b80634a5df50f1461038a57806350d2a276146103aa57806352351e85146103f8578063550d01a31461041d57610239565b806324d7806c116101b657806324d7806c1461030a5780632f2ff15d1461032a57806336568abe1461034a5780633659cfe61461036a57610239565b806301ffc9a7146102435780631785f53c146102785780632298524614610298578063248a9ca3146102da57610239565b366102395760405162461bcd60e51b815260206004820152601460248201527f63616e6e6f74207265636569766520457468657200000000000000000000000060448201526064015b60405180910390fd5b61024161087f565b005b34801561024f57600080fd5b5061026361025e366004611746565b610928565b60405190151581526020015b60405180910390f35b34801561028457600080fd5b50610241610293366004611787565b61095f565b3480156102a457600080fd5b506102cc7ffb5864e8ff833c3cb2d2d08505e82ff02a43554c74a35d4f5a64e8526127831181565b60405190815260200161026f565b3480156102e657600080fd5b506102cc6102f53660046117a2565b60009081526004602052604090206001015490565b34801561031657600080fd5b50610263610325366004611787565b6109da565b34801561033657600080fd5b506102416103453660046117bb565b610a1a565b34801561035657600080fd5b506102416103653660046117bb565b610a3f565b34801561037657600080fd5b50610241610385366004611787565b610acb565b34801561039657600080fd5b506102416103a53660046117e7565b610c24565b3480156103b657600080fd5b506103e06103c5366004611746565b6003602052600090815260409020546001600160a01b031681565b6040516001600160a01b03909116815260200161026f565b34801561040457600080fd5b506005546103e09061010090046001600160a01b031681565b34801561042957600080fd5b50610263610438366004611787565b60026020526000908152604090205460ff1681565b34801561045957600080fd5b506008546103e0906001600160a01b031681565b34801561047957600080fd5b506000805260016020527fa6eef7e35abe7026729641147f7915573c7e97b47efa546f5f6e3230263bcb49546001600160a01b03166103e0565b3480156104bf57600080fd5b506102416104ce36600461187b565b610ed1565b3480156104df57600080fd5b506000546102639060ff1681565b3480156104f957600080fd5b506009546103e0906001600160a01b031681565b34801561051957600080fd5b50610241610528366004611787565b610f29565b34801561053957600080fd5b50610241610548366004611787565b610fa1565b34801561055957600080fd5b506102cc7fdf8b4c520ffe197c5343c6f5aec59570151ef9a492f2c624fd45ddde6135ec4281565b34801561058d57600080fd5b5061024161059c3660046118a5565b6110f1565b3480156105ad57600080fd5b506102416105bc3660046118c0565b611152565b3480156105cd57600080fd5b506103e06105dc366004611787565b6006602052600090815260409020546001600160a01b031681565b34801561060357600080fd5b506103e06106123660046117a2565b6111ab565b34801561062357600080fd5b506103e0610632366004611746565b6111c8565b34801561064357600080fd5b506102636106523660046117bb565b60009182526004602090815260408084206001600160a01b0393909316845291905290205460ff1690565b34801561068957600080fd5b506106dd610698366004611787565b600b60205260009081526040902080546001909101546001600160a01b039182169181169074010000000000000000000000000000000000000000900462ffffff1683565b604080516001600160a01b03948516815293909216602084015262ffffff169082015260600161026f565b34801561071457600080fd5b506102cc600081565b34801561072957600080fd5b506103e06107383660046117a2565b6001602052600090815260409020546001600160a01b031681565b34801561075f57600080fd5b5061024161076e3660046117bb565b6112c4565b34801561077f57600080fd5b506102cc60075481565b34801561079557600080fd5b506108226107a43660046118f3565b600a6020908152600092835260408084209091529082529020805460018201546002830154600384015460048501546005909501546001600160a01b039094169492939192909163ffffffff8082169164010000000081048216916801000000000000000082048116916c0100000000000000000000000090041689565b604080516001600160a01b03909a168a5260208a0198909852968801959095526060870193909352608086019190915263ffffffff90811660a086015290811660c085015290811660e0840152166101008201526101200161026f565b60006108966000356001600160e01b0319166111c8565b90506001600160a01b038116158015906108b3575060005460ff16155b6108ff5760405162461bcd60e51b815260206004820152601d60248201527f50726f78793a20696d706c204f522070726f78792069732066616c73650000006044820152606401610230565b3660008037600080366000845af43d6000803e80801561091e573d6000f35b3d6000fd5b505050565b60006001600160e01b03198216637965db0b60e01b148061095957506301ffc9a760e01b6001600160e01b03198316145b92915050565b610968336109da565b6109ad5760405162461bcd60e51b81526020600482015260226024820152600080516020611a9283398151915260448201526134b760f11b6064820152608401610230565b6109d77fdf8b4c520ffe197c5343c6f5aec59570151ef9a492f2c624fd45ddde6135ec4282610a3f565b50565b6001600160a01b03811660009081527f2fb794d17134dfdec181ddbac1babb5ab1eb140204ef4d982f294e7fc8b69022602052604081205460ff16610959565b600082815260046020526040902060010154610a35816112e9565b61092383836112f3565b6001600160a01b0381163314610abd5760405162461bcd60e51b815260206004820152602f60248201527f416363657373436f6e74726f6c3a2063616e206f6e6c792072656e6f756e636560448201527f20726f6c657320666f722073656c6600000000000000000000000000000000006064820152608401610230565b610ac78282611395565b5050565b610ad4336109da565b610b195760405162461bcd60e51b81526020600482015260226024820152600080516020611a9283398151915260448201526134b760f11b6064820152608401610230565b6001600160a01b038116610b6f5760405162461bcd60e51b815260206004820152600d60248201527f696e707574206973207a65726f000000000000000000000000000000000000006044820152606401610230565b6000805260016020527fa6eef7e35abe7026729641147f7915573c7e97b47efa546f5f6e3230263bcb49546001600160a01b03828116911603610be05760405162461bcd60e51b815260206004820152600960248201526839b0b6b29030b2323960b91b6044820152606401610230565b610bed8160006001611418565b6040516001600160a01b038216907fbc7cd75a20ee27fd9adebab32041f755214dbc6bffa90cc0225b39da2e5c2d3b90600090a250565b610c2d336109da565b610c725760405162461bcd60e51b81526020600482015260226024820152600080516020611a9283398151915260448201526134b760f11b6064820152608401610230565b81610cbf5760405162461bcd60e51b815260206004820181905260248201527f50726f78793a205f73656c6563746f727327732073697a65206973207a65726f6044820152606401610230565b6001600160a01b03811660009081526002602052604090205460ff16610d275760405162461bcd60e51b815260206004820152601860248201527f50726f78793a205f696d70206973206e6f7420616c69766500000000000000006044820152606401610230565b60005b82811015610ecb57816001600160a01b031660036000868685818110610d5257610d5261191d565b9050602002016020810190610d679190611746565b6001600160e01b03191681526020810191909152604001600020546001600160a01b031603610dd85760405162461bcd60e51b815260206004820152601d60248201527f4c69717569646974795661756c7450726f78793a2073616d6520696d700000006044820152606401610230565b8160036000868685818110610def57610def61191d565b9050602002016020810190610e049190611746565b6001600160e01b03191681526020810191909152604001600020805473ffffffffffffffffffffffffffffffffffffffff19166001600160a01b039283161790558216848483818110610e5957610e5961191d565b9050602002016020810190610e6e9190611746565b7bffffffffffffffffffffffffffffffffffffffffffffffffffffffff19167f14ebc1c32aa68f4d766e89f3e546cee249f7df25183fc10ab1568d91c2ce9b7b60405160405180910390a380610ec381611949565b915050610d2a565b50505050565b610eda336109da565b610f1f5760405162461bcd60e51b81526020600482015260226024820152600080516020611a9283398151915260448201526134b760f11b6064820152608401610230565b610ac782826114b0565b610f32336109da565b610f775760405162461bcd60e51b81526020600482015260226024820152600080516020611a9283398151915260448201526134b760f11b6064820152608401610230565b6109d77fdf8b4c520ffe197c5343c6f5aec59570151ef9a492f2c624fd45ddde6135ec4282610a1a565b610faa336109da565b610fef5760405162461bcd60e51b81526020600482015260226024820152600080516020611a9283398151915260448201526134b760f11b6064820152608401610230565b6001600160a01b0381166110455760405162461bcd60e51b815260206004820152601860248201527f41636365737369626c653a207a65726f206164647265737300000000000000006044820152606401610230565b6001600160a01b038116330361109d5760405162461bcd60e51b815260206004820152601660248201527f41636365737369626c653a2073616d652061646d696e000000000000000000006044820152606401610230565b6110c77fdf8b4c520ffe197c5343c6f5aec59570151ef9a492f2c624fd45ddde6135ec4282610a1a565b6109d77fdf8b4c520ffe197c5343c6f5aec59570151ef9a492f2c624fd45ddde6135ec4233610a3f565b6110fa336109da565b61113f5760405162461bcd60e51b81526020600482015260226024820152600080516020611a9283398151915260448201526134b760f11b6064820152608401610230565b6000805460ff1916911515919091179055565b61115b336109da565b6111a05760405162461bcd60e51b81526020600482015260226024820152600080516020611a9283398151915260448201526134b760f11b6064820152608401610230565b610923838383611418565b6000818152600160205260408120546001600160a01b0316610959565b6001600160e01b031981166000908152600360205260408120546001600160a01b03166112285750506000805260016020527fa6eef7e35abe7026729641147f7915573c7e97b47efa546f5f6e3230263bcb49546001600160a01b031690565b6001600160e01b031982166000908152600360209081526040808320546001600160a01b03168352600290915290205460ff161561128657506001600160e01b0319166000908152600360205260409020546001600160a01b031690565b50506000805260016020527fa6eef7e35abe7026729641147f7915573c7e97b47efa546f5f6e3230263bcb49546001600160a01b031690565b919050565b6000828152600460205260409020600101546112df816112e9565b6109238383611395565b6109d7813361150f565b60008281526004602090815260408083206001600160a01b038516845290915290205460ff16610ac75760008281526004602090815260408083206001600160a01b03851684529091529020805460ff191660011790556113513390565b6001600160a01b0316816001600160a01b0316837f2f8788117e7eff1d82e926ec794901d17c78024a50270940304540a733656f0d60405160405180910390a45050565b60008281526004602090815260408083206001600160a01b038516845290915290205460ff1615610ac75760008281526004602090815260408083206001600160a01b0385168085529252808320805460ff1916905551339285917ff6391f5c32d9c69d2a47ea670b442974b53935d1edc7fd64eb21e047a839171b9190a45050565b6001600160a01b0383163b61146f5760405162461bcd60e51b815260206004820152601b60248201527f50726f78793a206e6f7420636f6e7472616374206164647265737300000000006044820152606401610230565b80156114aa576000828152600160205260409020805473ffffffffffffffffffffffffffffffffffffffff19166001600160a01b0385161790555b61092383825b6001600160a01b038216600081815260026020908152604091829020805460ff191685151590811790915591519182527f72558d9bfba4210f9ef095c782589484151f6d90f7a81bb3cb9b33efc695d324910160405180910390a25050565b60008281526004602090815260408083206001600160a01b038516845290915290205460ff16610ac75761154281611584565b61154d836020611596565b60405160200161155e929190611986565b60408051601f198184030181529082905262461bcd60e51b825261023091600401611a07565b60606109596001600160a01b03831660145b606060006115a5836002611a3a565b6115b0906002611a51565b67ffffffffffffffff8111156115c8576115c8611a64565b6040519080825280601f01601f1916602001820160405280156115f2576020820181803683370190505b509050600360fc1b8160008151811061160d5761160d61191d565b60200101906001600160f81b031916908160001a905350600f60fb1b8160018151811061163c5761163c61191d565b60200101906001600160f81b031916908160001a9053506000611660846002611a3a565b61166b906001611a51565b90505b60018111156116f0577f303132333435363738396162636465660000000000000000000000000000000085600f16601081106116ac576116ac61191d565b1a60f81b8282815181106116c2576116c261191d565b60200101906001600160f81b031916908160001a90535060049490941c936116e981611a7a565b905061166e565b50831561173f5760405162461bcd60e51b815260206004820181905260248201527f537472696e67733a20686578206c656e67746820696e73756666696369656e746044820152606401610230565b9392505050565b60006020828403121561175857600080fd5b81356001600160e01b03198116811461173f57600080fd5b80356001600160a01b03811681146112bf57600080fd5b60006020828403121561179957600080fd5b61173f82611770565b6000602082840312156117b457600080fd5b5035919050565b600080604083850312156117ce57600080fd5b823591506117de60208401611770565b90509250929050565b6000806000604084860312156117fc57600080fd5b833567ffffffffffffffff8082111561181457600080fd5b818601915086601f83011261182857600080fd5b81358181111561183757600080fd5b8760208260051b850101111561184c57600080fd5b6020928301955093506118629186019050611770565b90509250925092565b803580151581146112bf57600080fd5b6000806040838503121561188e57600080fd5b61189783611770565b91506117de6020840161186b565b6000602082840312156118b757600080fd5b61173f8261186b565b6000806000606084860312156118d557600080fd5b6118de84611770565b9250602084013591506118626040850161186b565b6000806040838503121561190657600080fd5b61190f83611770565b91506117de60208401611770565b634e487b7160e01b600052603260045260246000fd5b634e487b7160e01b600052601160045260246000fd5b60006001820161195b5761195b611933565b5060010190565b60005b8381101561197d578181015183820152602001611965565b50506000910152565b7f416363657373436f6e74726f6c3a206163636f756e74200000000000000000008152600083516119be816017850160208801611962565b7f206973206d697373696e6720726f6c652000000000000000000000000000000060179184019182015283516119fb816028840160208801611962565b01602801949350505050565b6020815260008251806020840152611a26816040850160208701611962565b601f01601f19169190910160400192915050565b808202811582820484141761095957610959611933565b8082018082111561095957610959611933565b634e487b7160e01b600052604160045260246000fd5b600081611a8957611a89611933565b50600019019056fe41636365737369626c653a2043616c6c6572206973206e6f7420616e2061646da164736f6c6343000812000adf8b4c520ffe197c5343c6f5aec59570151ef9a492f2c624fd45ddde6135ec42",
  "linkReferences": {},
  "deployedLinkReferences": {}
}