{
  "_format": "hh-sol-artifact-1",
  "contractName": "L2PublicSaleProxy",
  "sourceName": "contracts/L2/vaults/L2PublicSaleProxy.sol",
  "abi": [
    {
      "anonymous": false,
      "inputs": [
        {
          "indexed": false,
          "internalType": "address",
          "name": "l2Token",
          "type": "address"
        },
        {
          "indexed": true,
          "internalType": "address",
          "name": "from",
          "type": "address"
        },
        {
          "indexed": false,
          "internalType": "uint256",
          "name": "tier",
          "type": "uint256"
        }
      ],
      "name": "AddedWhiteList",
      "type": "event"
    },
    {
      "anonymous": false,
      "inputs": [
        {
          "indexed": false,
          "internalType": "address",
          "name": "l2Token",
          "type": "address"
        },
        {
          "indexed": true,
          "internalType": "address",
          "name": "from",
          "type": "address"
        },
        {
          "indexed": false,
          "internalType": "uint256",
          "name": "amount",
          "type": "uint256"
        }
      ],
      "name": "Claimed",
      "type": "event"
    },
    {
      "anonymous": false,
      "inputs": [
        {
          "indexed": false,
          "internalType": "address",
          "name": "l2Token",
          "type": "address"
        },
        {
          "indexed": true,
          "internalType": "address",
          "name": "from",
          "type": "address"
        },
        {
          "indexed": false,
          "internalType": "uint256",
          "name": "amount",
          "type": "uint256"
        },
        {
          "indexed": false,
          "internalType": "uint256",
          "name": "liquidityAmount",
          "type": "uint256"
        }
      ],
      "name": "DepositWithdrawal",
      "type": "event"
    },
    {
      "anonymous": false,
      "inputs": [
        {
          "indexed": false,
          "internalType": "address",
          "name": "l2Token",
          "type": "address"
        },
        {
          "indexed": true,
          "internalType": "address",
          "name": "from",
          "type": "address"
        },
        {
          "indexed": false,
          "internalType": "uint256",
          "name": "amount",
          "type": "uint256"
        }
      ],
      "name": "Deposited",
      "type": "event"
    },
    {
      "anonymous": false,
      "inputs": [
        {
          "indexed": false,
          "internalType": "address",
          "name": "l2Token",
          "type": "address"
        },
        {
          "indexed": true,
          "internalType": "address",
          "name": "from",
          "type": "address"
        },
        {
          "indexed": false,
          "internalType": "uint256",
          "name": "amountIn",
          "type": "uint256"
        },
        {
          "indexed": false,
          "internalType": "uint256",
          "name": "amountOut",
          "type": "uint256"
        }
      ],
      "name": "ExchangeSwap",
      "type": "event"
    },
    {
      "anonymous": false,
      "inputs": [
        {
          "indexed": false,
          "internalType": "address",
          "name": "l2Token",
          "type": "address"
        },
        {
          "indexed": true,
          "internalType": "address",
          "name": "from",
          "type": "address"
        },
        {
          "indexed": false,
          "internalType": "uint256",
          "name": "amount",
          "type": "uint256"
        }
      ],
      "name": "ExclusiveSaled",
      "type": "event"
    },
    {
      "anonymous": false,
      "inputs": [
        {
          "indexed": false,
          "internalType": "address",
          "name": "l2Token",
          "type": "address"
        },
        {
          "indexed": true,
          "internalType": "address",
          "name": "from",
          "type": "address"
        },
        {
          "indexed": false,
          "internalType": "uint256",
          "name": "amount",
          "type": "uint256"
        }
      ],
      "name": "Refunded",
      "type": "event"
    },
    {
      "anonymous": false,
      "inputs": [
        {
          "indexed": true,
          "internalType": "bytes32",
          "name": "role",
          "type": "bytes32"
        },
        {
          "indexed": true,
          "internalType": "bytes32",
          "name": "previousAdminRole",
          "type": "bytes32"
        },
        {
          "indexed": true,
          "internalType": "bytes32",
          "name": "newAdminRole",
          "type": "bytes32"
        }
      ],
      "name": "RoleAdminChanged",
      "type": "event"
    },
    {
      "anonymous": false,
      "inputs": [
        {
          "indexed": true,
          "internalType": "bytes32",
          "name": "role",
          "type": "bytes32"
        },
        {
          "indexed": true,
          "internalType": "address",
          "name": "account",
          "type": "address"
        },
        {
          "indexed": true,
          "internalType": "address",
          "name": "sender",
          "type": "address"
        }
      ],
      "name": "RoleGranted",
      "type": "event"
    },
    {
      "anonymous": false,
      "inputs": [
        {
          "indexed": true,
          "internalType": "bytes32",
          "name": "role",
          "type": "bytes32"
        },
        {
          "indexed": true,
          "internalType": "address",
          "name": "account",
          "type": "address"
        },
        {
          "indexed": true,
          "internalType": "address",
          "name": "sender",
          "type": "address"
        }
      ],
      "name": "RoleRevoked",
      "type": "event"
    },
    {
      "anonymous": false,
      "inputs": [
        {
          "indexed": false,
          "internalType": "address",
          "name": "newInitializer",
          "type": "address"
        }
      ],
      "name": "SetInitializer",
      "type": "event"
    },
    {
      "anonymous": false,
      "inputs": [
        {
          "indexed": false,
          "internalType": "address",
          "name": "l2Token",
          "type": "address"
        },
        {
          "indexed": false,
          "internalType": "address",
          "name": "newAdmin",
          "type": "address"
        }
      ],
      "name": "SetVaultAdmin",
      "type": "event"
    },
    {
      "inputs": [],
      "name": "ADMIN_ROLE",
      "outputs": [
        {
          "internalType": "bytes32",
          "name": "",
          "type": "bytes32"
        }
      ],
      "stateMutability": "view",
      "type": "function"
    },
    {
      "inputs": [],
      "name": "DEFAULT_ADMIN_ROLE",
      "outputs": [
        {
          "internalType": "bytes32",
          "name": "",
          "type": "bytes32"
        }
      ],
      "stateMutability": "view",
      "type": "function"
    },
    {
      "inputs": [],
      "name": "POLICY_ROLE",
      "outputs": [
        {
          "internalType": "bytes32",
          "name": "",
          "type": "bytes32"
        }
      ],
      "stateMutability": "view",
      "type": "function"
    },
    {
      "inputs": [],
      "name": "_WETH",
      "outputs": [
        {
          "internalType": "contract IWETH",
          "name": "",
          "type": "address"
        }
      ],
      "stateMutability": "view",
      "type": "function"
    },
    {
      "inputs": [
        {
          "internalType": "address",
          "name": "account",
          "type": "address"
        }
      ],
      "name": "addAdmin",
      "outputs": [],
      "stateMutability": "nonpayable",
      "type": "function"
    },
    {
      "inputs": [
        {
          "internalType": "address",
          "name": "",
          "type": "address"
        }
      ],
      "name": "aliveImplementation",
      "outputs": [
        {
          "internalType": "bool",
          "name": "",
          "type": "bool"
        }
      ],
      "stateMutability": "view",
      "type": "function"
    },
    {
      "inputs": [],
      "name": "changeTick",
      "outputs": [
        {
          "internalType": "int24",
          "name": "",
          "type": "int24"
        }
      ],
      "stateMutability": "view",
      "type": "function"
    },
    {
      "inputs": [
        {
          "internalType": "address",
          "name": "",
          "type": "address"
        }
      ],
      "name": "claimInfo",
      "outputs": [
        {
          "internalType": "uint256",
          "name": "totalClaimCounts",
          "type": "uint256"
        },
        {
          "internalType": "uint256",
          "name": "firstClaimPercent",
          "type": "uint256"
        },
        {
          "internalType": "uint256",
          "name": "firstClaimTime",
          "type": "uint256"
        },
        {
          "internalType": "uint256",
          "name": "secondClaimTime",
          "type": "uint256"
        },
        {
          "internalType": "uint256",
          "name": "claimInterval",
          "type": "uint256"
        }
      ],
      "stateMutability": "view",
      "type": "function"
    },
    {
      "inputs": [
        {
          "internalType": "address",
          "name": "",
          "type": "address"
        },
        {
          "internalType": "uint256",
          "name": "",
          "type": "uint256"
        }
      ],
      "name": "claimPercents",
      "outputs": [
        {
          "internalType": "uint256",
          "name": "",
          "type": "uint256"
        }
      ],
      "stateMutability": "view",
      "type": "function"
    },
    {
      "inputs": [
        {
          "internalType": "address",
          "name": "",
          "type": "address"
        },
        {
          "internalType": "uint256",
          "name": "",
          "type": "uint256"
        }
      ],
      "name": "claimTimes",
      "outputs": [
        {
          "internalType": "uint256",
          "name": "",
          "type": "uint256"
        }
      ],
      "stateMutability": "view",
      "type": "function"
    },
    {
      "inputs": [],
      "name": "delayTime",
      "outputs": [
        {
          "internalType": "uint256",
          "name": "",
          "type": "uint256"
        }
      ],
      "stateMutability": "view",
      "type": "function"
    },
    {
      "inputs": [
        {
          "internalType": "address",
          "name": "",
          "type": "address"
        },
        {
          "internalType": "uint256",
          "name": "",
          "type": "uint256"
        }
      ],
      "name": "depositors",
      "outputs": [
        {
          "internalType": "address",
          "name": "",
          "type": "address"
        }
      ],
      "stateMutability": "view",
      "type": "function"
    },
    {
      "inputs": [
        {
          "internalType": "bytes32",
          "name": "role",
          "type": "bytes32"
        }
      ],
      "name": "getRoleAdmin",
      "outputs": [
        {
          "internalType": "bytes32",
          "name": "",
          "type": "bytes32"
        }
      ],
      "stateMutability": "view",
      "type": "function"
    },
    {
      "inputs": [
        {
          "internalType": "bytes32",
          "name": "role",
          "type": "bytes32"
        },
        {
          "internalType": "address",
          "name": "account",
          "type": "address"
        }
      ],
      "name": "grantRole",
      "outputs": [],
      "stateMutability": "nonpayable",
      "type": "function"
    },
    {
      "inputs": [
        {
          "internalType": "bytes32",
          "name": "role",
          "type": "bytes32"
        },
        {
          "internalType": "address",
          "name": "account",
          "type": "address"
        }
      ],
      "name": "hasRole",
      "outputs": [
        {
          "internalType": "bool",
          "name": "",
          "type": "bool"
        }
      ],
      "stateMutability": "view",
      "type": "function"
    },
    {
      "inputs": [
        {
          "internalType": "address[7]",
          "name": "_setAddress",
          "type": "address[7]"
        },
        {
          "internalType": "uint8",
          "name": "_min",
          "type": "uint8"
        },
        {
          "internalType": "uint8",
          "name": "_max",
          "type": "uint8"
        },
        {
          "internalType": "uint256",
          "name": "_tier1",
          "type": "uint256"
        },
        {
          "internalType": "uint256",
          "name": "_tier2",
          "type": "uint256"
        },
        {
          "internalType": "uint256",
          "name": "_tier3",
          "type": "uint256"
        },
        {
          "internalType": "uint256",
          "name": "_tier4",
          "type": "uint256"
        },
        {
          "internalType": "uint256",
          "name": "_delayTime",
          "type": "uint256"
        }
      ],
      "name": "initialize",
      "outputs": [],
      "stateMutability": "nonpayable",
      "type": "function"
    },
    {
      "inputs": [
        {
          "internalType": "address",
          "name": "account",
          "type": "address"
        }
      ],
      "name": "isAdmin",
      "outputs": [
        {
          "internalType": "bool",
          "name": "",
          "type": "bool"
        }
      ],
      "stateMutability": "view",
      "type": "function"
    },
    {
      "inputs": [],
      "name": "isL2ProjectManager",
      "outputs": [
        {
          "internalType": "bool",
          "name": "",
          "type": "bool"
        }
      ],
      "stateMutability": "view",
      "type": "function"
    },
    {
      "inputs": [
        {
          "internalType": "address",
          "name": "l2Token",
          "type": "address"
        }
      ],
      "name": "isL2Token",
      "outputs": [
        {
          "internalType": "bool",
          "name": "",
          "type": "bool"
        }
      ],
      "stateMutability": "view",
      "type": "function"
    },
    {
      "inputs": [
        {
          "internalType": "address",
          "name": "l2Token",
          "type": "address"
        },
        {
          "internalType": "address",
          "name": "account",
          "type": "address"
        }
      ],
      "name": "isVaultAdmin",
      "outputs": [
        {
          "internalType": "bool",
          "name": "",
          "type": "bool"
        }
      ],
      "stateMutability": "view",
      "type": "function"
    },
    {
      "inputs": [],
      "name": "l1burnVault",
      "outputs": [
        {
          "internalType": "address",
          "name": "",
          "type": "address"
        }
      ],
      "stateMutability": "view",
      "type": "function"
    },
    {
      "inputs": [],
      "name": "l2Bridge",
      "outputs": [
        {
          "internalType": "address",
          "name": "",
          "type": "address"
        }
      ],
      "stateMutability": "view",
      "type": "function"
    },
    {
      "inputs": [],
      "name": "l2ProjectManager",
      "outputs": [
        {
          "internalType": "address",
          "name": "",
          "type": "address"
        }
      ],
      "stateMutability": "view",
      "type": "function"
    },
    {
      "inputs": [],
      "name": "liquidityVault",
      "outputs": [
        {
          "internalType": "address",
          "name": "",
          "type": "address"
        }
      ],
      "stateMutability": "view",
      "type": "function"
    },
    {
      "inputs": [],
      "name": "lockTOS",
      "outputs": [
        {
          "internalType": "address",
          "name": "",
          "type": "address"
        }
      ],
      "stateMutability": "view",
      "type": "function"
    },
    {
      "inputs": [
        {
          "internalType": "address",
          "name": "",
          "type": "address"
        }
      ],
      "name": "manageInfo",
      "outputs": [
        {
          "internalType": "uint256",
          "name": "set1rdTokenAmount",
          "type": "uint256"
        },
        {
          "internalType": "uint256",
          "name": "set2rdTokenAmount",
          "type": "uint256"
        },
        {
          "internalType": "uint256",
          "name": "saleTokenPrice",
          "type": "uint256"
        },
        {
          "internalType": "uint256",
          "name": "tonPrice",
          "type": "uint256"
        },
        {
          "internalType": "uint256",
          "name": "hardCap",
          "type": "uint256"
        },
        {
          "internalType": "uint256",
          "name": "changeTOS",
          "type": "uint256"
        },
        {
          "internalType": "uint256",
          "name": "remainTON",
          "type": "uint256"
        },
        {
          "internalType": "int24",
          "name": "changeTick",
          "type": "int24"
        },
        {
          "internalType": "bool",
          "name": "exchangeTOS",
          "type": "bool"
        },
        {
          "internalType": "bool",
          "name": "adminWithdraw",
          "type": "bool"
        }
      ],
      "stateMutability": "view",
      "type": "function"
    },
    {
      "inputs": [],
      "name": "maxPer",
      "outputs": [
        {
          "internalType": "uint8",
          "name": "",
          "type": "uint8"
        }
      ],
      "stateMutability": "view",
      "type": "function"
    },
    {
      "inputs": [],
      "name": "minPer",
      "outputs": [
        {
          "internalType": "uint8",
          "name": "",
          "type": "uint8"
        }
      ],
      "stateMutability": "view",
      "type": "function"
    },
    {
      "inputs": [],
      "name": "pauseProxy",
      "outputs": [
        {
          "internalType": "bool",
          "name": "",
          "type": "bool"
        }
      ],
      "stateMutability": "view",
      "type": "function"
    },
    {
      "inputs": [],
      "name": "poolFee",
      "outputs": [
        {
          "internalType": "uint24",
          "name": "",
          "type": "uint24"
        }
      ],
      "stateMutability": "view",
      "type": "function"
    },
    {
      "inputs": [
        {
          "internalType": "uint256",
          "name": "",
          "type": "uint256"
        }
      ],
      "name": "proxyImplementation",
      "outputs": [
        {
          "internalType": "address",
          "name": "",
          "type": "address"
        }
      ],
      "stateMutability": "view",
      "type": "function"
    },
    {
      "inputs": [],
      "name": "quoter",
      "outputs": [
        {
          "internalType": "address",
          "name": "",
          "type": "address"
        }
      ],
      "stateMutability": "view",
      "type": "function"
    },
    {
      "inputs": [
        {
          "internalType": "address",
          "name": "account",
          "type": "address"
        }
      ],
      "name": "removeAdmin",
      "outputs": [],
      "stateMutability": "nonpayable",
      "type": "function"
    },
    {
      "inputs": [
        {
          "internalType": "bytes32",
          "name": "role",
          "type": "bytes32"
        },
        {
          "internalType": "address",
          "name": "account",
          "type": "address"
        }
      ],
      "name": "renounceRole",
      "outputs": [],
      "stateMutability": "nonpayable",
      "type": "function"
    },
    {
      "inputs": [
        {
          "internalType": "bytes32",
          "name": "role",
          "type": "bytes32"
        },
        {
          "internalType": "address",
          "name": "account",
          "type": "address"
        }
      ],
      "name": "revokeRole",
      "outputs": [],
      "stateMutability": "nonpayable",
      "type": "function"
    },
    {
      "inputs": [
        {
          "internalType": "address",
          "name": "",
          "type": "address"
        }
      ],
      "name": "saleInfo",
      "outputs": [
        {
          "internalType": "uint256",
          "name": "total1rdSaleAmount",
          "type": "uint256"
        },
        {
          "internalType": "uint256",
          "name": "total1rdTONAmount",
          "type": "uint256"
        },
        {
          "internalType": "uint256",
          "name": "totalUsers",
          "type": "uint256"
        },
        {
          "internalType": "uint256",
          "name": "total1rdUsers",
          "type": "uint256"
        },
        {
          "internalType": "uint256",
          "name": "total2rdUsers",
          "type": "uint256"
        },
        {
          "internalType": "uint256",
          "name": "total2rdUsersClaim",
          "type": "uint256"
        }
      ],
      "stateMutability": "view",
      "type": "function"
    },
    {
      "inputs": [
        {
          "internalType": "bytes4",
          "name": "",
          "type": "bytes4"
        }
      ],
      "name": "selectorImplementation",
      "outputs": [
        {
          "internalType": "address",
          "name": "",
          "type": "address"
        }
      ],
      "stateMutability": "view",
      "type": "function"
    },
    {
      "inputs": [
        {
          "internalType": "address",
          "name": "_l2token",
          "type": "address"
        },
        {
          "internalType": "uint256",
          "name": "_startAddWhiteTime",
          "type": "uint256"
        },
        {
          "internalType": "uint256",
          "name": "_endAddWhiteTime",
          "type": "uint256"
        },
        {
          "internalType": "uint256",
          "name": "_startExclusiveTime",
          "type": "uint256"
        },
        {
          "internalType": "uint256",
          "name": "_endExclusiveTime",
          "type": "uint256"
        }
      ],
      "name": "set1RoundTime",
      "outputs": [],
      "stateMutability": "nonpayable",
      "type": "function"
    },
    {
      "inputs": [
        {
          "internalType": "address",
          "name": "_l2token",
          "type": "address"
        },
        {
          "internalType": "uint256",
          "name": "_snapshot",
          "type": "uint256"
        },
        {
          "internalType": "uint256",
          "name": "_startDepositTime",
          "type": "uint256"
        },
        {
          "internalType": "uint256",
          "name": "_endDepositTime",
          "type": "uint256"
        }
      ],
      "name": "set2RoundTime",
      "outputs": [],
      "stateMutability": "nonpayable",
      "type": "function"
    },
    {
      "inputs": [
        {
          "internalType": "address[7]",
          "name": "_setAddress",
          "type": "address[7]"
        }
      ],
      "name": "setAddress",
      "outputs": [],
      "stateMutability": "nonpayable",
      "type": "function"
    },
    {
      "inputs": [
        {
          "internalType": "address",
          "name": "_l2token",
          "type": "address"
        },
        {
          "internalType": "uint256",
          "name": "_totalExpectSaleAmount",
          "type": "uint256"
        },
        {
          "internalType": "uint256",
          "name": "_totalExpectOpenSaleAmount",
          "type": "uint256"
        },
        {
          "internalType": "uint256",
          "name": "_saleTokenPrice",
          "type": "uint256"
        },
        {
          "internalType": "uint256",
          "name": "_payTokenPrice",
          "type": "uint256"
        },
        {
          "internalType": "uint256",
          "name": "_hardcapAmount",
          "type": "uint256"
        },
        {
          "internalType": "uint256",
          "name": "_changePercent",
          "type": "uint256"
        },
        {
          "internalType": "uint256",
          "name": "_changeTick",
          "type": "uint256"
        }
      ],
      "name": "setAllAmount",
      "outputs": [],
      "stateMutability": "nonpayable",
      "type": "function"
    },
    {
      "inputs": [
        {
          "internalType": "address",
          "name": "_l2Bridge",
          "type": "address"
        },
        {
          "internalType": "address",
          "name": "_l1burnVault",
          "type": "address"
        }
      ],
      "name": "setBurnBridge",
      "outputs": [],
      "stateMutability": "nonpayable",
      "type": "function"
    },
    {
      "inputs": [
        {
          "internalType": "address",
          "name": "_l2token",
          "type": "address"
        },
        {
          "internalType": "uint256",
          "name": "_claimCounts",
          "type": "uint256"
        },
        {
          "internalType": "uint256",
          "name": "_firstClaimPercents",
          "type": "uint256"
        },
        {
          "internalType": "uint256",
          "name": "_firstClaimTime",
          "type": "uint256"
        },
        {
          "internalType": "uint256",
          "name": "_secondClaimTime",
          "type": "uint256"
        },
        {
          "internalType": "uint256",
          "name": "_roundInterval",
          "type": "uint256"
        }
      ],
      "name": "setClaimTime",
      "outputs": [],
      "stateMutability": "nonpayable",
      "type": "function"
    },
    {
      "inputs": [
        {
          "internalType": "uint256",
          "name": "_delay",
          "type": "uint256"
        }
      ],
      "name": "setDelayTime",
      "outputs": [],
      "stateMutability": "nonpayable",
      "type": "function"
    },
    {
      "inputs": [
        {
          "internalType": "address",
          "name": "_l2ProjectManager",
          "type": "address"
        }
      ],
      "name": "setL2ProjectManager",
      "outputs": [],
      "stateMutability": "nonpayable",
      "type": "function"
    },
    {
      "inputs": [
        {
          "internalType": "uint8",
          "name": "_min",
          "type": "uint8"
        },
        {
          "internalType": "uint8",
          "name": "_max",
          "type": "uint8"
        }
      ],
      "name": "setMaxMinPercent",
      "outputs": [],
      "stateMutability": "nonpayable",
      "type": "function"
    },
    {
      "inputs": [
        {
          "internalType": "uint256",
          "name": "_tier1",
          "type": "uint256"
        },
        {
          "internalType": "uint256",
          "name": "_tier2",
          "type": "uint256"
        },
        {
          "internalType": "uint256",
          "name": "_tier3",
          "type": "uint256"
        },
        {
          "internalType": "uint256",
          "name": "_tier4",
          "type": "uint256"
        }
      ],
      "name": "setSTOSstandard",
      "outputs": [],
      "stateMutability": "nonpayable",
      "type": "function"
    },
    {
      "inputs": [
        {
          "internalType": "address",
          "name": "_l2token",
          "type": "address"
        },
        {
          "internalType": "uint256",
          "name": "_tier1",
          "type": "uint256"
        },
        {
          "internalType": "uint256",
          "name": "_tier2",
          "type": "uint256"
        },
        {
          "internalType": "uint256",
          "name": "_tier3",
          "type": "uint256"
        },
        {
          "internalType": "uint256",
          "name": "_tier4",
          "type": "uint256"
        }
      ],
      "name": "setTier",
      "outputs": [],
      "stateMutability": "nonpayable",
      "type": "function"
    },
    {
      "inputs": [
        {
          "internalType": "address",
          "name": "_l2token",
          "type": "address"
        },
        {
          "internalType": "uint256",
          "name": "_tier1Percents",
          "type": "uint256"
        },
        {
          "internalType": "uint256",
          "name": "_tier2Percents",
          "type": "uint256"
        },
        {
          "internalType": "uint256",
          "name": "_tier3Percents",
          "type": "uint256"
        },
        {
          "internalType": "uint256",
          "name": "_tier4Percents",
          "type": "uint256"
        }
      ],
      "name": "setTierPercents",
      "outputs": [],
      "stateMutability": "nonpayable",
      "type": "function"
    },
    {
      "inputs": [
        {
          "internalType": "address",
          "name": "l2Token",
          "type": "address"
        },
        {
          "internalType": "address",
          "name": "_newAdmin",
          "type": "address"
        }
      ],
      "name": "setVaultAdmin",
      "outputs": [],
      "stateMutability": "nonpayable",
      "type": "function"
    },
    {
      "inputs": [],
      "name": "stanTier1",
      "outputs": [
        {
          "internalType": "uint256",
          "name": "",
          "type": "uint256"
        }
      ],
      "stateMutability": "view",
      "type": "function"
    },
    {
      "inputs": [],
      "name": "stanTier2",
      "outputs": [
        {
          "internalType": "uint256",
          "name": "",
          "type": "uint256"
        }
      ],
      "stateMutability": "view",
      "type": "function"
    },
    {
      "inputs": [],
      "name": "stanTier3",
      "outputs": [
        {
          "internalType": "uint256",
          "name": "",
          "type": "uint256"
        }
      ],
      "stateMutability": "view",
      "type": "function"
    },
    {
      "inputs": [],
      "name": "stanTier4",
      "outputs": [
        {
          "internalType": "uint256",
          "name": "",
          "type": "uint256"
        }
      ],
      "stateMutability": "view",
      "type": "function"
    },
    {
      "inputs": [
        {
          "internalType": "bytes4",
          "name": "interfaceId",
          "type": "bytes4"
        }
      ],
      "name": "supportsInterface",
      "outputs": [
        {
          "internalType": "bool",
          "name": "",
          "type": "bool"
        }
      ],
      "stateMutability": "view",
      "type": "function"
    },
    {
      "inputs": [
        {
          "internalType": "address",
          "name": "",
          "type": "address"
        },
        {
          "internalType": "uint8",
          "name": "",
          "type": "uint8"
        }
      ],
      "name": "tiers",
      "outputs": [
        {
          "internalType": "uint256",
          "name": "",
          "type": "uint256"
        }
      ],
      "stateMutability": "view",
      "type": "function"
    },
    {
      "inputs": [
        {
          "internalType": "address",
          "name": "",
          "type": "address"
        },
        {
          "internalType": "uint8",
          "name": "",
          "type": "uint8"
        }
      ],
      "name": "tiers1stAccount",
      "outputs": [
        {
          "internalType": "uint256",
          "name": "",
          "type": "uint256"
        }
      ],
      "stateMutability": "view",
      "type": "function"
    },
    {
      "inputs": [
        {
          "internalType": "address",
          "name": "",
          "type": "address"
        },
        {
          "internalType": "uint8",
          "name": "",
          "type": "uint8"
        }
      ],
      "name": "tiersCalculAccount",
      "outputs": [
        {
          "internalType": "uint256",
          "name": "",
          "type": "uint256"
        }
      ],
      "stateMutability": "view",
      "type": "function"
    },
    {
      "inputs": [
        {
          "internalType": "address",
          "name": "",
          "type": "address"
        },
        {
          "internalType": "uint8",
          "name": "",
          "type": "uint8"
        }
      ],
      "name": "tiersPercents",
      "outputs": [
        {
          "internalType": "uint256",
          "name": "",
          "type": "uint256"
        }
      ],
      "stateMutability": "view",
      "type": "function"
    },
    {
      "inputs": [
        {
          "internalType": "address",
          "name": "",
          "type": "address"
        },
        {
          "internalType": "uint8",
          "name": "",
          "type": "uint8"
        }
      ],
      "name": "tiersWhiteList",
      "outputs": [
        {
          "internalType": "uint256",
          "name": "",
          "type": "uint256"
        }
      ],
      "stateMutability": "view",
      "type": "function"
    },
    {
      "inputs": [
        {
          "internalType": "address",
          "name": "",
          "type": "address"
        }
      ],
      "name": "timeInfo",
      "outputs": [
        {
          "internalType": "uint256",
          "name": "deployTime",
          "type": "uint256"
        },
        {
          "internalType": "uint256",
          "name": "snapshot",
          "type": "uint256"
        },
        {
          "internalType": "uint256",
          "name": "whiteListStartTime",
          "type": "uint256"
        },
        {
          "internalType": "uint256",
          "name": "whiteListEndTime",
          "type": "uint256"
        },
        {
          "internalType": "uint256",
          "name": "round1StartTime",
          "type": "uint256"
        },
        {
          "internalType": "uint256",
          "name": "round1EndTime",
          "type": "uint256"
        },
        {
          "internalType": "uint256",
          "name": "round2StartTime",
          "type": "uint256"
        },
        {
          "internalType": "uint256",
          "name": "round2EndTime",
          "type": "uint256"
        }
      ],
      "stateMutability": "view",
      "type": "function"
    },
    {
      "inputs": [],
      "name": "ton",
      "outputs": [
        {
          "internalType": "address",
          "name": "",
          "type": "address"
        }
      ],
      "stateMutability": "view",
      "type": "function"
    },
    {
      "inputs": [],
      "name": "tos",
      "outputs": [
        {
          "internalType": "address",
          "name": "",
          "type": "address"
        }
      ],
      "stateMutability": "view",
      "type": "function"
    },
    {
      "inputs": [
        {
          "internalType": "address",
          "name": "",
          "type": "address"
        }
      ],
      "name": "totalDepositAmount",
      "outputs": [
        {
          "internalType": "uint256",
          "name": "",
          "type": "uint256"
        }
      ],
      "stateMutability": "view",
      "type": "function"
    },
    {
      "inputs": [
        {
          "internalType": "address",
          "name": "newAdmin",
          "type": "address"
        }
      ],
      "name": "transferAdmin",
      "outputs": [],
      "stateMutability": "nonpayable",
      "type": "function"
    },
    {
      "inputs": [],
      "name": "uniswapRouter",
      "outputs": [
        {
          "internalType": "address",
          "name": "",
          "type": "address"
        }
      ],
      "stateMutability": "view",
      "type": "function"
    },
    {
      "inputs": [
        {
          "internalType": "address",
          "name": "",
          "type": "address"
        },
        {
          "internalType": "address",
          "name": "",
          "type": "address"
        }
      ],
      "name": "user1rd",
      "outputs": [
        {
          "internalType": "bool",
          "name": "join",
          "type": "bool"
        },
        {
          "internalType": "uint8",
          "name": "tier",
          "type": "uint8"
        },
        {
          "internalType": "uint256",
          "name": "payAmount",
          "type": "uint256"
        },
        {
          "internalType": "uint256",
          "name": "saleAmount",
          "type": "uint256"
        }
      ],
      "stateMutability": "view",
      "type": "function"
    },
    {
      "inputs": [
        {
          "internalType": "address",
          "name": "",
          "type": "address"
        },
        {
          "internalType": "address",
          "name": "",
          "type": "address"
        }
      ],
      "name": "user2rd",
      "outputs": [
        {
          "internalType": "bool",
          "name": "join",
          "type": "bool"
        },
        {
          "internalType": "uint256",
          "name": "depositAmount",
          "type": "uint256"
        }
      ],
      "stateMutability": "view",
      "type": "function"
    },
    {
      "inputs": [
        {
          "internalType": "address",
          "name": "",
          "type": "address"
        },
        {
          "internalType": "address",
          "name": "",
          "type": "address"
        }
      ],
      "name": "userClaim",
      "outputs": [
        {
          "internalType": "bool",
          "name": "refund",
          "type": "bool"
        },
        {
          "internalType": "uint256",
          "name": "claimAmount",
          "type": "uint256"
        },
        {
          "internalType": "uint256",
          "name": "refundAmount",
          "type": "uint256"
        },
        {
          "internalType": "uint256",
          "name": "latestClaimedRound",
          "type": "uint256"
        }
      ],
      "stateMutability": "view",
      "type": "function"
    },
    {
      "inputs": [
        {
          "internalType": "address",
          "name": "",
          "type": "address"
        }
      ],
      "name": "vaultAdminOfToken",
      "outputs": [
        {
          "internalType": "address",
          "name": "",
          "type": "address"
        }
      ],
      "stateMutability": "view",
      "type": "function"
    },
    {
      "inputs": [
        {
          "internalType": "address",
          "name": "_l2token",
          "type": "address"
        },
        {
          "components": [
            {
              "internalType": "uint256",
              "name": "stosTier1",
              "type": "uint256"
            },
            {
              "internalType": "uint256",
              "name": "stosTier2",
              "type": "uint256"
            },
            {
              "internalType": "uint256",
              "name": "stosTier3",
              "type": "uint256"
            },
            {
              "internalType": "uint256",
              "name": "stosTier4",
              "type": "uint256"
            },
            {
              "internalType": "uint256",
              "name": "tier1Percents",
              "type": "uint256"
            },
            {
              "internalType": "uint256",
              "name": "tier2Percents",
              "type": "uint256"
            },
            {
              "internalType": "uint256",
              "name": "tier3Percents",
              "type": "uint256"
            },
            {
              "internalType": "uint256",
              "name": "tier4Percents",
              "type": "uint256"
            },
            {
              "internalType": "uint256",
              "name": "total1roundSaleAmount",
              "type": "uint256"
            },
            {
              "internalType": "uint256",
              "name": "total2roundSaleAmount",
              "type": "uint256"
            },
            {
              "internalType": "uint256",
              "name": "saleTokenPrice",
              "type": "uint256"
            },
            {
              "internalType": "uint256",
              "name": "payTokenPrice",
              "type": "uint256"
            },
            {
              "internalType": "uint256",
              "name": "hardcapAmount",
              "type": "uint256"
            },
            {
              "internalType": "uint256",
              "name": "changeTOSPercent",
              "type": "uint256"
            },
            {
              "internalType": "uint256",
              "name": "startWhiteTime",
              "type": "uint256"
            },
            {
              "internalType": "uint256",
              "name": "endWhiteTime",
              "type": "uint256"
            },
            {
              "internalType": "uint256",
              "name": "start1roundTime",
              "type": "uint256"
            },
            {
              "internalType": "uint256",
              "name": "end1roundTime",
              "type": "uint256"
            },
            {
              "internalType": "uint256",
              "name": "snapshotTime",
              "type": "uint256"
            },
            {
              "internalType": "uint256",
              "name": "start2roundTime",
              "type": "uint256"
            },
            {
              "internalType": "uint256",
              "name": "end2roundTime",
              "type": "uint256"
            }
          ],
          "internalType": "struct LibProject.InitalParameterPublicSaleVault",
          "name": "params",
          "type": "tuple"
        },
        {
          "components": [
            {
              "internalType": "uint256",
              "name": "claimCounts",
              "type": "uint256"
            },
            {
              "internalType": "uint256",
              "name": "firstClaimPercent",
              "type": "uint256"
            },
            {
              "internalType": "uint256",
              "name": "firstClaimTime",
              "type": "uint256"
            },
            {
              "internalType": "uint256",
              "name": "secondClaimTime",
              "type": "uint256"
            },
            {
              "internalType": "uint256",
              "name": "roundInterval",
              "type": "uint256"
            }
          ],
          "internalType": "struct LibProject.InitalParameterPublicSaleClaim",
          "name": "params2",
          "type": "tuple"
        },
        {
          "components": [
            {
              "internalType": "address",
              "name": "receiveAddress",
              "type": "address"
            },
            {
              "internalType": "uint256",
              "name": "totalClaimCount",
              "type": "uint256"
            },
            {
              "internalType": "uint256",
              "name": "firstClaimPercent",
              "type": "uint256"
            },
            {
              "internalType": "uint256",
              "name": "firstClaimTime",
              "type": "uint256"
            },
            {
              "internalType": "uint256",
              "name": "secondClaimTime",
              "type": "uint256"
            },
            {
              "internalType": "uint256",
              "name": "roundIntervalTime",
              "type": "uint256"
            },
            {
              "internalType": "uint24",
              "name": "fee",
              "type": "uint24"
            }
          ],
          "internalType": "struct LibProject.InitalParameterVestingFundVault",
          "name": "params3",
          "type": "tuple"
        }
      ],
      "name": "vaultInitialize",
      "outputs": [],
      "stateMutability": "nonpayable",
      "type": "function"
    },
    {
      "inputs": [],
      "name": "vestingFund",
      "outputs": [
        {
          "internalType": "address",
          "name": "",
          "type": "address"
        }
      ],
      "stateMutability": "view",
      "type": "function"
    },
    {
      "inputs": [
        {
          "internalType": "address",
          "name": "",
          "type": "address"
        },
        {
          "internalType": "uint256",
          "name": "",
          "type": "uint256"
        }
      ],
      "name": "whitelists",
      "outputs": [
        {
          "internalType": "address",
          "name": "",
          "type": "address"
        }
      ],
      "stateMutability": "view",
      "type": "function"
    },
    {
      "inputs": [],
      "name": "wton",
      "outputs": [
        {
          "internalType": "address",
          "name": "",
          "type": "address"
        }
      ],
      "stateMutability": "view",
      "type": "function"
    }
  ],
  "bytecode": "0x60806040526015805463ff0000001916630100000017905534801561002357600080fd5b506140df806100336000396000f3fe608060405234801561001057600080fd5b50600436106104de5760003560e01c8063768b821f11610286578063ae1f6aaf1161016b578063d13da444116100e3578063e0af361611610097578063ea28ef181161007c578063ea28ef1814610e5b578063f3b08cb914610e63578063f5a96ccf14610e7657600080fd5b8063e0af361614610e1a578063e1ff729b14610e2d57600080fd5b8063d7b0b29d116100c8578063d7b0b29d14610d3c578063d97830b114610dac578063dc560fcd14610e1157600080fd5b8063d13da44414610cfe578063d547741f14610d2957600080fd5b8063c0f22d4b1161013a578063cc48b9471161011f578063cc48b94714610cb8578063cf437a8f14610ccb578063d01481a114610ceb57600080fd5b8063c0f22d4b14610c92578063c6bbd5a714610ca557600080fd5b8063ae1f6aaf14610bb7578063b005ed9114610bca578063b18aaf5814610c56578063b911135f14610c6957600080fd5b806391d14854116101fe578063a217fddf116101cd578063a4182343116101b2578063a418234314610b7e578063ac3c467614610b91578063ae148b8714610ba457600080fd5b8063a217fddf14610b62578063a389595f14610b6a57600080fd5b806391d1485414610ad557806397d7859514610b0e5780639f32b29a14610b2e5780639f87b77f14610b5957600080fd5b80637fc46ba8116102555780638951ed181161023a5780638951ed1814610a9457806389f395de14610aa75780638d62d94914610aba57600080fd5b80637fc46ba814610a0357806389293f6514610a2c57600080fd5b8063768b821f146109cb578063790f317f146109d45780637ce4166b146109e75780637e2eee53146109fa57600080fd5b8063466c01b8116103c757806355d6d39b1161033f57806370480275116102f3578063735de9f7116102d8578063735de9f71461097e57806375829def1461099157806375b238fc146109a457600080fd5b80637048027514610958578063708666ad1461096b57600080fd5b80635bb04f70116103245780635bb04f701461092557806363a8fd891461093857806366e7cb921461094557600080fd5b806355d6d39b146108e75780635b19e2941461091257600080fd5b806351e8152a1161039657806352351e851161037b57806352351e851461089e57806353ad4046146108b1578063550d01a3146108c457600080fd5b806351e8152a1461088257806351ebde6d1461089557600080fd5b8063466c01b81461082057806349f5f564146108335780634e6c44661461084657806350d2a2761461085957600080fd5b8063229852461161045a5780632ac9bab61161042957806333efca3d1161040e57806333efca3d146107ab57806335b9ac66146107fa57806336568abe1461080d57600080fd5b80632ac9bab61461076d5780632f2ff15d1461079857600080fd5b806322985246146106fd57806323abde1114610724578063248a9ca31461073757806324d7806c1461075a57600080fd5b806312269758116104b15780631785f53c116104965780631785f53c1461065e5780631916e534146106715780631c53f256146106d757600080fd5b80631226975814610610578063123411181461064957600080fd5b806301ffc9a7146104e3578063089fe6aa1461050b57806308ac3fcb146105285780630b7459eb146105e5575b600080fd5b6104f66104f13660046138d7565b610e89565b60405190151581526020015b60405180910390f35b610514610bb881565b60405162ffffff9091168152602001610502565b61059461053636600461391d565b601d6020526000908152604090208054600182015460028084015460038501546004860154600587015460068801546007909801549697959693959294919390929181900b9060ff630100000082048116916401000000009004168a565b604080519a8b5260208b0199909952978901969096526060880194909452608087019290925260a086015260c085015260020b60e08401521515610100830152151561012082015261014001610502565b6006546105f8906001600160a01b031681565b6040516001600160a01b039091168152602001610502565b61063b61061e366004613949565b602460209081526000928352604080842090915290825290205481565b604051908152602001610502565b61065c61065736600461397c565b610ec0565b005b61065c61066c36600461391d565b6111ad565b6106b561067f3660046139c6565b6022602090815260009283526040808420909152908252902080546001820154600283015460039093015460ff90921692909184565b6040805194151585526020850193909352918301526060820152608001610502565b600f546106eb90600160a81b900460ff1681565b60405160ff9091168152602001610502565b61063b7ffb5864e8ff833c3cb2d2d08505e82ff02a43554c74a35d4f5a64e8526127831181565b61065c6107323660046139f0565b611228565b61063b610745366004613a32565b60009081526004602052604090206001015490565b6104f661076836600461391d565b6115e4565b61063b61077b366004613949565b602760209081526000928352604080842090915290825290205481565b61065c6107a6366004613a4b565b611624565b6107e36107b93660046139c6565b60216020908152600092835260408084209091529082529020805460019091015460ff9091169082565b604080519215158352602083019190915201610502565b61065c6108083660046139c6565b61164e565b61065c61081b366004613a4b565b6118da565b6105f861082e366004613a6e565b611966565b61065c610841366004613a98565b61199e565b6009546105f8906001600160a01b031681565b6105f86108673660046138d7565b6003602052600090815260409020546001600160a01b031681565b6104f66108903660046139c6565b611e45565b61063b60125481565b600d546105f8906001600160a01b031681565b61065c6108bf366004613c6b565b611e82565b6104f66108d236600461391d565b60026020526000908152604090205460ff1681565b61063b6108f5366004613949565b602560209081526000928352604080842090915290825290205481565b6105f8610920366004613a6e565b61212f565b61065c6109333660046139c6565b61214b565b6000546104f69060ff1681565b61065c6109533660046139f0565b61222b565b61065c61096636600461391d565b61254e565b6007546105f8906001600160a01b031681565b6008546105f8906001600160a01b031681565b61065c61099f36600461391d565b6125c6565b61063b7fdf8b4c520ffe197c5343c6f5aec59570151ef9a492f2c624fd45ddde6135ec4281565b61063b60115481565b61065c6109e2366004613dd9565b612716565b61065c6109f5366004613e51565b612796565b61063b60145481565b6105f8610a1136600461391d565b6017602052600090815260409020546001600160a01b031681565b610a70610a3a3660046139c6565b60208080526000928352604080842090915290825290208054600182015460029092015460ff8083169361010090930416919084565b60408051941515855260ff9093166020850152918301526060820152608001610502565b61065c610aa2366004613a32565b6129a8565b600a546105f8906001600160a01b031681565b6105f873c4a11aaf6ea915ed7ac194161d2fc9384f15bff281565b6104f6610ae3366004613a4b565b60009182526004602090815260408084206001600160a01b0393909316845291905290205460ff1690565b61063b610b1c36600461391d565b60166020526000908152604090205481565b61063b610b3c366004613949565b602660209081526000928352604080842090915290825290205481565b61063b60105481565b61063b600081565b600f546106eb90600160a01b900460ff1681565b61065c610b8c36600461391d565b612a4c565b61065c610b9f366004613e6d565b612b3f565b61065c610bb2366004613e9f565b612c06565b600e546105f8906001600160a01b031681565b610c1b610bd836600461391d565b601c602052600090815260409020805460018201546002830154600384015460048501546005860154600687015460079097015495969495939492939192909188565b604080519889526020890197909752958701949094526060860192909252608085015260a084015260c083015260e082015261010001610502565b61065c610c64366004613ebb565b612d12565b6105f8610c77366004613a32565b6001602052600090815260409020546001600160a01b031681565b61063b610ca0366004613a6e565b613016565b6005546105f8906001600160a01b031681565b600b546105f8906001600160a01b031681565b601554610cd89060020b81565b60405160029190910b8152602001610502565b600f546105f8906001600160a01b031681565b61063b610d0c366004613949565b602360209081526000928352604080842090915290825290205481565b61065c610d37366004613a4b565b613047565b610d7f610d4a36600461391d565b601f60205260009081526040902080546001820154600283015460038401546004850154600590950154939492939192909186565b604080519687526020870195909552938501929092526060840152608083015260a082015260c001610502565b610de9610dba36600461391d565b601e60205260009081526040902080546001820154600283015460038401546004909401549293919290919085565b604080519586526020860194909452928401919091526060830152608082015260a001610502565b61063b60135481565b600c546105f8906001600160a01b031681565b6104f6610e3b36600461391d565b6001600160a01b0390811660009081526017602052604090205416151590565b6104f661306c565b61063b610e71366004613a6e565b613098565b61065c610e843660046139f0565b6130b4565b60006001600160e01b03198216637965db0b60e01b1480610eba57506301ffc9a760e01b6001600160e01b03198316145b92915050565b6001600160a01b0380871660009081526017602052604090205487911615801590610f0457506001600160a01b038181166000908152601760205260409020541633145b80610f195750600d546001600160a01b031633145b610f785760405162461bcd60e51b815260206004820152602560248201527f63616c6c6572206973206e6f742061207661756c7441646d696e204f66206c326044820152642a37b5b2b760d91b60648201526084015b60405180910390fd5b8580600003610fae5760405162461bcd60e51b81526020600482015260026024820152615a3160f01b6044820152606401610f6f565b6001600160a01b0388166000908152601c60209081526040918290208251610100810184528154815260018201549281019290925260028101549282018390526003810154606083015260048101546080830152600581015460a0830152600681015460c08301526007015460e08201528991158061103f57506000816040015111801561103f5750806040015142105b61108b5760405162461bcd60e51b815260206004820152601c60248201527f6e6f74206265666f726577686974654c697374537461727454696d65000000006044820152606401610f6f565b6001600160a01b038a166000908152601e602052604090204388116110f25760405162461bcd60e51b815260206004820152601760248201527f666972737420636c61696d2074696d65207061737365640000000000000000006044820152606401610f6f565b876000036111425760405162461bcd60e51b815260206004820152601860248201527f6669727374636c61696d54696d652076616c75652065727200000000000000006044820152606401610f6f565b8054156111885761115161306c565b6111885760405162461bcd60e51b81526020600482015260086024820152676f6e6c792044414f60c01b6044820152606401610f6f565b9889555050505060018501939093556002840191909155600383015560049091015550565b6111b6336115e4565b6111fb5760405162461bcd60e51b815260206004820152602260248201526000805160206140b383398151915260448201526134b760f11b6064820152608401610f6f565b6112257fdf8b4c520ffe197c5343c6f5aec59570151ef9a492f2c624fd45ddde6135ec42826118da565b50565b6001600160a01b038086166000908152601760205260409020548691161580159061126c57506001600160a01b038181166000908152601760205260409020541633145b806112815750600d546001600160a01b031633145b6112db5760405162461bcd60e51b815260206004820152602560248201527f63616c6c6572206973206e6f742061207661756c7441646d696e204f66206c326044820152642a37b5b2b760d91b6064820152608401610f6f565b84806000036113115760405162461bcd60e51b81526020600482015260026024820152615a3160f01b6044820152606401610f6f565b84806000036113475760405162461bcd60e51b81526020600482015260026024820152615a3160f01b6044820152606401610f6f565b848060000361137d5760405162461bcd60e51b81526020600482015260026024820152615a3160f01b6044820152606401610f6f565b84806000036113b35760405162461bcd60e51b81526020600482015260026024820152615a3160f01b6044820152606401610f6f565b6001600160a01b038a166000908152601c60209081526040918290208251610100810184528154815260018201549281019290925260028101549282018390526003810154606083015260048101546080830152600581015460a0830152600681015460c08301526007015460e08201528b9115806114445750600081604001511180156114445750806040015142105b6114905760405162461bcd60e51b815260206004820152601c60248201527f6e6f74206265666f726577686974654c697374537461727454696d65000000006044820152606401610f6f565b6001600160a01b038c166000908152601c602052604090208a8c1080156114b65750898b105b80156114c15750888a105b61150d5760405162461bcd60e51b815260206004820152600d60248201527f526f756e6454696d6520657272000000000000000000000000000000000000006044820152606401610f6f565b8054156115585761151c61306c565b6115535760405162461bcd60e51b81526020600482015260086024820152676f6e6c792044414f60c01b6044820152606401610f6f565b61155c565b4281555b60145481548d9161156c91613f0a565b106115b95760405162461bcd60e51b815260206004820152601360248201527f736e617073686f74206e656564206c61746572000000000000000000000000006044820152606401610f6f565b600281019b909b55505050506003870195909555505060048401919091556005909201919091555050565b6001600160a01b03811660009081527f2fb794d17134dfdec181ddbac1babb5ab1eb140204ef4d982f294e7fc8b69022602052604081205460ff16610eba565b60008281526004602052604090206001015461163f81613447565b6116498383613451565b505050565b816001600160a01b03811661168a5760405162461bcd60e51b81526020600482015260026024820152612d1960f11b6044820152606401610f6f565b816001600160a01b0381166116c65760405162461bcd60e51b81526020600482015260026024820152612d1960f11b6044820152606401610f6f565b600d546001600160a01b0316158015906116ea5750600d546001600160a01b031633145b6117365760405162461bcd60e51b815260206004820152601e60248201527f63616c6c6572206973206e6f74206c3250726f6a6563744d616e6167657200006044820152606401610f6f565b6001600160a01b0384811660009081526017602052604090205481851691160361178b5760405162461bcd60e51b8152600401610f6f9060208082526004908201526373616d6560e01b604082015260600190565b6001600160a01b038481166000818152601760205260409081902080546001600160a01b03191687851690811790915560065491516328f40a9560e11b815260048101939093526024830152909116906351e8152a90604401602060405180830381865afa158015611801573d6000803e3d6000fd5b505050506040513d601f19601f820116820180604052508101906118259190613f1d565b61189157600654604051631adcd63360e11b81526001600160a01b0386811660048301528581166024830152909116906335b9ac6690604401600060405180830381600087803b15801561187857600080fd5b505af115801561188c573d6000803e3d6000fd5b505050505b604080516001600160a01b038087168252851660208201527fb00bb4c229aff6156cc8e2c767c571665e1927c09fe083ec055956a5a4026193910160405180910390a150505050565b6001600160a01b03811633146119585760405162461bcd60e51b815260206004820152602f60248201527f416363657373436f6e74726f6c3a2063616e206f6e6c792072656e6f756e636560448201527f20726f6c657320666f722073656c6600000000000000000000000000000000006064820152608401610f6f565b61196282826134f3565b5050565b6018602052816000526040600020818154811061198257600080fd5b6000918252602090912001546001600160a01b03169150829050565b6001600160a01b03808916600090815260176020526040902054899116158015906119e257506001600160a01b038181166000908152601760205260409020541633145b806119f75750600d546001600160a01b031633145b611a515760405162461bcd60e51b815260206004820152602560248201527f63616c6c6572206973206e6f742061207661756c7441646d696e204f66206c326044820152642a37b5b2b760d91b6064820152608401610f6f565b6001600160a01b0389166000908152601c60209081526040918290208251610100810184528154815260018201549281019290925260028101549282018390526003810154606083015260048101546080830152600581015460a0830152600681015460c08301526007015460e08201528a911580611ae2575060008160400151118015611ae25750806040015142105b611b2e5760405162461bcd60e51b815260206004820152601c60248201527f6e6f74206265666f726577686974654c697374537461727454696d65000000006044820152606401610f6f565b6040516370a0823160e01b81523060048201526000906001600160a01b038d16906370a0823190602401602060405180830381865afa158015611b75573d6000803e3d6000fd5b505050506040513d601f19601f82011682018060405250810190611b999190613f3f565b905080600003611c4357600d54611bd8906001600160a01b031630611bbe8d8f613f0a565b8f6001600160a01b0316613576909392919063ffffffff16565b6040516370a0823160e01b81523060048201526001600160a01b038d16906370a0823190602401602060405180830381865afa158015611c1c573d6000803e3d6000fd5b505050506040513d601f19601f82011682018060405250810190611c409190613f3f565b90505b80611c4e8b8d613f0a565b11158015611c64575080670de0b6b3a764000011155b611cb05760405162461bcd60e51b815260206004820152600f60248201527f6e6f7420696e70757420746f6b656e00000000000000000000000000000000006044820152606401610f6f565b600f54600160a81b900460ff168611801590611cd85750600f54600160a01b900460ff168610155b611d245760405162461bcd60e51b815260206004820152601360248201527f6e65656420746f20736574206d696e2c6d6178000000000000000000000000006044820152606401610f6f565b88611d2f8989613f58565b611d399190613f6f565b611d438b8d613f0a565b1015611d915760405162461bcd60e51b815260206004820152600c60248201527f6f766572206861726463617000000000000000000000000000000000000000006044820152606401610f6f565b6001600160a01b038c166000908152601d60205260409020805415611def57611db861306c565b611def5760405162461bcd60e51b81526020600482015260086024820152676f6e6c792044414f60c01b6044820152606401610f6f565b8b8155600181018b905560028082018b9055600382018a905560048201899055600582018890556007820154900b600003611e365760078101805462ffffff191660121790555b50505050505050505050505050565b60006001600160a01b03821615801590611e7b57506001600160a01b038381166000908152601760205260409020548116908316145b9392505050565b6001600160a01b0380851660009081526017602052604090205485911615801590611ec657506001600160a01b038181166000908152601760205260409020541633145b80611edb5750600d546001600160a01b031633145b611f355760405162461bcd60e51b815260206004820152602560248201527f63616c6c6572206973206e6f742061207661756c7441646d696e204f66206c326044820152642a37b5b2b760d91b6064820152608401610f6f565b611f5285856000015186602001518760400151886060015161222b565b611f6f8585608001518660a001518760c001518860e001516130b4565b611f9e858561010001518661012001518761014001518861016001518961018001518a6101a00151600061199e565b611fbf85856101c00151866101e00151876102000151886102200151611228565b611fda85856102400151866102600151876102800151612d12565b611ffc8584600001518560200151866040015187606001518860800151610ec0565b600654825160208401516040808601516060870151608088015160a089015160c08a01519451632078091160e11b81526001600160a01b038e81166004830152978816602482015260448101969096526064860193909352608485019190915260a484015260c483015262ffffff1660e48201529116906340f012229061010401600060405180830381600087803b15801561209757600080fd5b505af11580156120ab573d6000803e3d6000fd5b5050600e5460405163095ea7b360e01b81526001600160a01b0391821660048201526000196024820152908816925063095ea7b391506044016020604051808303816000875af1158015612103573d6000803e3d6000fd5b505050506040513d601f19601f820116820180604052508101906121279190613f1d565b505050505050565b6019602052816000526040600020818154811061198257600080fd5b612154336115e4565b6121995760405162461bcd60e51b815260206004820152602260248201526000805160206140b383398151915260448201526134b760f11b6064820152608401610f6f565b600e546001600160a01b038381169116148015906121c55750600f546001600160a01b03828116911614155b6121fd5760405162461bcd60e51b815260206004820152600960248201526839b0b6b29030b2323960b91b6044820152606401610f6f565b600e80546001600160a01b039384166001600160a01b031991821617909155600f8054929093169116179055565b6001600160a01b038086166000908152601760205260409020548691161580159061226f57506001600160a01b038181166000908152601760205260409020541633145b806122845750600d546001600160a01b031633145b6122de5760405162461bcd60e51b815260206004820152602560248201527f63616c6c6572206973206e6f742061207661756c7441646d696e204f66206c326044820152642a37b5b2b760d91b6064820152608401610f6f565b84806000036123145760405162461bcd60e51b81526020600482015260026024820152615a3160f01b6044820152606401610f6f565b848060000361234a5760405162461bcd60e51b81526020600482015260026024820152615a3160f01b6044820152606401610f6f565b84806000036123805760405162461bcd60e51b81526020600482015260026024820152615a3160f01b6044820152606401610f6f565b84806000036123b65760405162461bcd60e51b81526020600482015260026024820152615a3160f01b6044820152606401610f6f565b6001600160a01b038a166000908152601c60209081526040918290208251610100810184528154815260018201549281019290925260028101549282018390526003810154606083015260048101546080830152600581015460a0830152600681015460c08301526007015460e08201528b9115806124475750600081604001511180156124475750806040015142105b6124935760405162461bcd60e51b815260206004820152601c60248201527f6e6f74206265666f726577686974654c697374537461727454696d65000000006044820152606401610f6f565b6001600160a01b038c16600090815260236020908152604080832060018452909152902054156124fc576124c561306c565b6124fc5760405162461bcd60e51b81526020600482015260086024820152676f6e6c792044414f60c01b6044820152606401610f6f565b505050506001600160a01b039790971660009081526023602090815260408083206001845290915280822097909755600281528681209590955550506003835283832091909155600482529190205550565b612557336115e4565b61259c5760405162461bcd60e51b815260206004820152602260248201526000805160206140b383398151915260448201526134b760f11b6064820152608401610f6f565b6112257fdf8b4c520ffe197c5343c6f5aec59570151ef9a492f2c624fd45ddde6135ec4282611624565b6125cf336115e4565b6126145760405162461bcd60e51b815260206004820152602260248201526000805160206140b383398151915260448201526134b760f11b6064820152608401610f6f565b6001600160a01b03811661266a5760405162461bcd60e51b815260206004820152601860248201527f41636365737369626c653a207a65726f206164647265737300000000000000006044820152606401610f6f565b6001600160a01b03811633036126c25760405162461bcd60e51b815260206004820152601660248201527f41636365737369626c653a2073616d652061646d696e000000000000000000006044820152606401610f6f565b6126ec7fdf8b4c520ffe197c5343c6f5aec59570151ef9a492f2c624fd45ddde6135ec4282611624565b6112257fdf8b4c520ffe197c5343c6f5aec59570151ef9a492f2c624fd45ddde6135ec42336118da565b61271f336115e4565b6127645760405162461bcd60e51b815260206004820152602260248201526000805160206140b383398151915260448201526134b760f11b6064820152608401610f6f565b61276d88612796565b6127778787612c06565b61278385858585612b3f565b61278c816129a8565b5050505050505050565b61279f336115e4565b6127e45760405162461bcd60e51b815260206004820152602260248201526000805160206140b383398151915260448201526134b760f11b6064820152608401610f6f565b6127f1602082018261391d565b600580546001600160a01b0319166001600160a01b0392909216919091179055612821604082016020830161391d565b600680546001600160a01b0319166001600160a01b0392909216919091179055612851606082016040830161391d565b600780546001600160a01b0319166001600160a01b0392909216919091179055612881608082016060830161391d565b600880546001600160a01b0319166001600160a01b03929092169190911790556128b160a082016080830161391d565b600980546001600160a01b0319166001600160a01b03929092169190911790556128e160c0820160a0830161391d565b600a80546001600160a01b0319166001600160a01b039290921691909117905561291160e0820160c0830161391d565b600b80546001600160a01b039283166001600160a01b03199182168117909255600c80549091168217905560085460405163095ea7b360e01b81529216600483015260001960248301529063095ea7b3906044016020604051808303816000875af1158015612984573d6000803e3d6000fd5b505050506040513d601f19601f820116820180604052508101906119629190613f1d565b6129b1336115e4565b6129f65760405162461bcd60e51b815260206004820152602260248201526000805160206140b383398151915260448201526134b760f11b6064820152608401610f6f565b8060145403612a475760405162461bcd60e51b815260206004820152600e60248201527f73616d652064656c617954696d650000000000000000000000000000000000006044820152606401610f6f565b601455565b806001600160a01b038116612a885760405162461bcd60e51b81526020600482015260026024820152612d1960f11b6044820152606401610f6f565b612a91336115e4565b612ad65760405162461bcd60e51b815260206004820152602260248201526000805160206140b383398151915260448201526134b760f11b6064820152608401610f6f565b600d546001600160a01b03808416911603612b1c5760405162461bcd60e51b8152600401610f6f9060208082526004908201526373616d6560e01b604082015260600190565b50600d80546001600160a01b0319166001600160a01b0392909216919091179055565b612b48336115e4565b612b8d5760405162461bcd60e51b815260206004820152602260248201526000805160206140b383398151915260448201526134b760f11b6064820152608401610f6f565b8284108015612b9b57508183105b8015612ba657508082105b612bf25760405162461bcd60e51b815260206004820152600e60248201527f7469657220736574206572726f720000000000000000000000000000000000006044820152606401610f6f565b601093909355601191909155601255601355565b612c0f336115e4565b612c545760405162461bcd60e51b815260206004820152602260248201526000805160206140b383398151915260448201526134b760f11b6064820152608401610f6f565b8060ff168260ff1610612ca95760405162461bcd60e51b815260206004820152600e60248201527f6e656564206d696e203c206d61780000000000000000000000000000000000006044820152606401610f6f565b600f80547fffffffffffffffffffff0000ffffffffffffffffffffffffffffffffffffffff16600160a01b60ff948516027fffffffffffffffffffff00ffffffffffffffffffffffffffffffffffffffffff1617600160a81b9290931691909102919091179055565b6001600160a01b0380851660009081526017602052604090205485911615801590612d5657506001600160a01b038181166000908152601760205260409020541633145b80612d6b5750600d546001600160a01b031633145b612dc55760405162461bcd60e51b815260206004820152602560248201527f63616c6c6572206973206e6f742061207661756c7441646d696e204f66206c326044820152642a37b5b2b760d91b6064820152608401610f6f565b8380600003612dfb5760405162461bcd60e51b81526020600482015260026024820152615a3160f01b6044820152606401610f6f565b8380600003612e315760405162461bcd60e51b81526020600482015260026024820152615a3160f01b6044820152606401610f6f565b8380600003612e675760405162461bcd60e51b81526020600482015260026024820152615a3160f01b6044820152606401610f6f565b6001600160a01b0388166000908152601c60209081526040918290208251610100810184528154815260018201549281019290925260028101549282018390526003810154606083015260048101546080830152600581015460a0830152600681015460c08301526007015460e082015289911580612ef8575060008160400151118015612ef85750806040015142105b612f445760405162461bcd60e51b815260206004820152601c60248201527f6e6f74206265666f726577686974654c697374537461727454696d65000000006044820152606401610f6f565b6001600160a01b038a166000908152601c60205260409020600181015415612fa557612f6e61306c565b612fa55760405162461bcd60e51b81526020600482015260086024820152676f6e6c792044414f60c01b6044820152606401610f6f565b878910612ff45760405162461bcd60e51b815260206004820152600e60248201527f526f756e643274696d65206572720000000000000000000000000000000000006044820152606401610f6f565b6001810199909955505050506006850193909355506007909201919091555050565b601a602052816000526040600020818154811061303257600080fd5b90600052602060002001600091509150505481565b60008281526004602052604090206001015461306281613447565b61164983836134f3565b600d546000906001600160a01b0316158015906130935750600d546001600160a01b031633145b905090565b601b602052816000526040600020818154811061303257600080fd5b6001600160a01b03808616600090815260176020526040902054869116158015906130f857506001600160a01b038181166000908152601760205260409020541633145b8061310d5750600d546001600160a01b031633145b6131675760405162461bcd60e51b815260206004820152602560248201527f63616c6c6572206973206e6f742061207661756c7441646d696e204f66206c326044820152642a37b5b2b760d91b6064820152608401610f6f565b848060000361319d5760405162461bcd60e51b81526020600482015260026024820152615a3160f01b6044820152606401610f6f565b84806000036131d35760405162461bcd60e51b81526020600482015260026024820152615a3160f01b6044820152606401610f6f565b84806000036132095760405162461bcd60e51b81526020600482015260026024820152615a3160f01b6044820152606401610f6f565b848060000361323f5760405162461bcd60e51b81526020600482015260026024820152615a3160f01b6044820152606401610f6f565b6001600160a01b038a166000908152601c60209081526040918290208251610100810184528154815260018201549281019290925260028101549282018390526003810154606083015260048101546080830152600581015460a0830152600681015460c08301526007015460e08201528b9115806132d05750600081604001511180156132d05750806040015142105b61331c5760405162461bcd60e51b815260206004820152601c60248201527f6e6f74206265666f726577686974654c697374537461727454696d65000000006044820152606401610f6f565b6001600160a01b038c16600090815260246020908152604080832060018452909152902054156133855761334e61306c565b6133855760405162461bcd60e51b81526020600482015260086024820152676f6e6c792044414f60c01b6044820152606401610f6f565b87896133918c8e613f0a565b61339b9190613f0a565b6133a59190613f0a565b612710146133f55760405162461bcd60e51b815260206004820152600e60248201527f53756d206e6565642031303030300000000000000000000000000000000000006044820152606401610f6f565b505050506001600160a01b039790971660009081526024602090815260408083206001845290915280822097909755600281528681209590955550506003835283832091909155600482529190205550565b61122581336136a7565b60008281526004602090815260408083206001600160a01b038516845290915290205460ff166119625760008281526004602090815260408083206001600160a01b03851684529091529020805460ff191660011790556134af3390565b6001600160a01b0316816001600160a01b0316837f2f8788117e7eff1d82e926ec794901d17c78024a50270940304540a733656f0d60405160405180910390a45050565b60008281526004602090815260408083206001600160a01b038516845290915290205460ff16156119625760008281526004602090815260408083206001600160a01b0385168085529252808320805460ff1916905551339285917ff6391f5c32d9c69d2a47ea670b442974b53935d1edc7fd64eb21e047a839171b9190a45050565b604080516001600160a01b0385811660248301528481166044830152606480830185905283518084039091018152608490920183526020820180517bffffffffffffffffffffffffffffffffffffffffffffffffffffffff166323b872dd60e01b17905291516000928392908816916135ef9190613fcb565b6000604051808303816000865af19150503d806000811461362c576040519150601f19603f3d011682016040523d82523d6000602084013e613631565b606091505b509150915081801561365b57508051158061365b57508080602001905181019061365b9190613f1d565b6121275760405162461bcd60e51b815260206004820152601460248201527f5452414e534645525f46524f4d5f4641494c45440000000000000000000000006044820152606401610f6f565b60008281526004602090815260408083206001600160a01b038516845290915290205460ff16611962576136da8161371c565b6136e583602061372e565b6040516020016136f6929190613fe7565b60408051601f198184030181529082905262461bcd60e51b8252610f6f91600401614068565b6060610eba6001600160a01b03831660145b6060600061373d836002613f58565b613748906002613f0a565b67ffffffffffffffff81111561376057613760613af4565b6040519080825280601f01601f19166020018201604052801561378a576020820181803683370190505b509050600360fc1b816000815181106137a5576137a5613f91565b60200101906001600160f81b031916908160001a905350600f60fb1b816001815181106137d4576137d4613f91565b60200101906001600160f81b031916908160001a90535060006137f8846002613f58565b613803906001613f0a565b90505b6001811115613888577f303132333435363738396162636465660000000000000000000000000000000085600f166010811061384457613844613f91565b1a60f81b82828151811061385a5761385a613f91565b60200101906001600160f81b031916908160001a90535060049490941c936138818161409b565b9050613806565b508315611e7b5760405162461bcd60e51b815260206004820181905260248201527f537472696e67733a20686578206c656e67746820696e73756666696369656e746044820152606401610f6f565b6000602082840312156138e957600080fd5b81356001600160e01b031981168114611e7b57600080fd5b80356001600160a01b038116811461391857600080fd5b919050565b60006020828403121561392f57600080fd5b611e7b82613901565b803560ff8116811461391857600080fd5b6000806040838503121561395c57600080fd5b61396583613901565b915061397360208401613938565b90509250929050565b60008060008060008060c0878903121561399557600080fd5b61399e87613901565b9860208801359850604088013597606081013597506080810135965060a00135945092505050565b600080604083850312156139d957600080fd5b6139e283613901565b915061397360208401613901565b600080600080600060a08688031215613a0857600080fd5b613a1186613901565b97602087013597506040870135966060810135965060800135945092505050565b600060208284031215613a4457600080fd5b5035919050565b60008060408385031215613a5e57600080fd5b8235915061397360208401613901565b60008060408385031215613a8157600080fd5b613a8a83613901565b946020939093013593505050565b600080600080600080600080610100898b031215613ab557600080fd5b613abe89613901565b9a60208a01359a5060408a013599606081013599506080810135985060a0810135975060c0810135965060e00135945092505050565b634e487b7160e01b600052604160045260246000fd5b60405160e0810167ffffffffffffffff81118282101715613b3b57634e487b7160e01b600052604160045260246000fd5b60405290565b6040516102a0810167ffffffffffffffff81118282101715613b3b57634e487b7160e01b600052604160045260246000fd5b600060a08284031215613b8557600080fd5b60405160a0810181811067ffffffffffffffff82111715613bb657634e487b7160e01b600052604160045260246000fd5b806040525080915082358152602083013560208201526040830135604082015260608301356060820152608083013560808201525092915050565b600060e08284031215613c0357600080fd5b613c0b613b0a565b9050613c1682613901565b81526020820135602082015260408201356040820152606082013560608201526080820135608082015260a082013560a082015260c082013562ffffff81168114613c6057600080fd5b60c082015292915050565b600080600080848603610440811215613c8357600080fd5b613c8c86613901565b94506102a080601f1983011215613ca257600080fd5b613caa613b41565b91506020870135825260408701356020830152606087013560408301526080870135606083015260a0870135608083015260c087013560a083015260e087013560c08301526101008088013560e084015261012080890135828501526101409150818901358185015250610160808901358285015261018091508189013581850152506101a080890135828501526101c091508189013581850152506101e08089013582850152610200915081890135818501525061022080890135828501526102409150818901358185015250610260808901358285015261028091508189013581850152508188013581840152505080935050613dad866102c08701613b73565b9150613dbd866103608701613bf1565b905092959194509250565b8060e08101831015610eba57600080fd5b6000806000806000806000806101c0898b031215613df657600080fd5b613e008a8a613dc8565b9750613e0e60e08a01613938565b9650613e1d6101008a01613938565b979a9699509697610120810135975061014081013596610160820135965061018082013595506101a0909101359350915050565b600060e08284031215613e6357600080fd5b611e7b8383613dc8565b60008060008060808587031215613e8357600080fd5b5050823594602084013594506040840135936060013592509050565b60008060408385031215613eb257600080fd5b61396583613938565b60008060008060808587031215613ed157600080fd5b613eda85613901565b966020860135965060408601359560600135945092505050565b634e487b7160e01b600052601160045260246000fd5b80820180821115610eba57610eba613ef4565b600060208284031215613f2f57600080fd5b81518015158114611e7b57600080fd5b600060208284031215613f5157600080fd5b5051919050565b8082028115828204841417610eba57610eba613ef4565b600082613f8c57634e487b7160e01b600052601260045260246000fd5b500490565b634e487b7160e01b600052603260045260246000fd5b60005b83811015613fc2578181015183820152602001613faa565b50506000910152565b60008251613fdd818460208701613fa7565b9190910192915050565b7f416363657373436f6e74726f6c3a206163636f756e742000000000000000000081526000835161401f816017850160208801613fa7565b7f206973206d697373696e6720726f6c6520000000000000000000000000000000601791840191820152835161405c816028840160208801613fa7565b01602801949350505050565b6020815260008251806020840152614087816040850160208701613fa7565b601f01601f19169190910160400192915050565b6000816140aa576140aa613ef4565b50600019019056fe41636365737369626c653a2043616c6c6572206973206e6f7420616e2061646da164736f6c6343000812000a",
  "linkReferences": {},
  "deployedLinkReferences": {}
}