{
  "_format": "hh-sol-artifact-1",
  "contractName": "L2PublicSaleProxy",
  "sourceName": "contracts/L2/vaults/L2PublicSaleProxy.sol",
  "abi": [
    {
      "anonymous": false,
      "inputs": [
        {
          "indexed": false,
          "internalType": "address",
          "name": "l2Token",
          "type": "address"
        },
        {
          "indexed": true,
          "internalType": "address",
          "name": "from",
          "type": "address"
        },
        {
          "indexed": false,
          "internalType": "uint256",
          "name": "tier",
          "type": "uint256"
        }
      ],
      "name": "AddedWhiteList",
      "type": "event"
    },
    {
      "anonymous": false,
      "inputs": [
        {
          "indexed": false,
          "internalType": "address",
          "name": "l2Token",
          "type": "address"
        },
        {
          "indexed": true,
          "internalType": "address",
          "name": "from",
          "type": "address"
        },
        {
          "indexed": false,
          "internalType": "uint256",
          "name": "amount",
          "type": "uint256"
        }
      ],
      "name": "Claimed",
      "type": "event"
    },
    {
      "anonymous": false,
      "inputs": [
        {
          "indexed": false,
          "internalType": "address",
          "name": "l2Token",
          "type": "address"
        },
        {
          "indexed": true,
          "internalType": "address",
          "name": "from",
          "type": "address"
        },
        {
          "indexed": false,
          "internalType": "uint256",
          "name": "amount",
          "type": "uint256"
        },
        {
          "indexed": false,
          "internalType": "uint256",
          "name": "liquidityAmount",
          "type": "uint256"
        }
      ],
      "name": "DepositWithdrawal",
      "type": "event"
    },
    {
      "anonymous": false,
      "inputs": [
        {
          "indexed": false,
          "internalType": "address",
          "name": "l2Token",
          "type": "address"
        },
        {
          "indexed": true,
          "internalType": "address",
          "name": "from",
          "type": "address"
        },
        {
          "indexed": false,
          "internalType": "uint256",
          "name": "amount",
          "type": "uint256"
        }
      ],
      "name": "Deposited",
      "type": "event"
    },
    {
      "anonymous": false,
      "inputs": [
        {
          "indexed": false,
          "internalType": "address",
          "name": "l2Token",
          "type": "address"
        },
        {
          "indexed": true,
          "internalType": "address",
          "name": "from",
          "type": "address"
        },
        {
          "indexed": false,
          "internalType": "uint256",
          "name": "amountIn",
          "type": "uint256"
        },
        {
          "indexed": false,
          "internalType": "uint256",
          "name": "amountOut",
          "type": "uint256"
        }
      ],
      "name": "ExchangeSwap",
      "type": "event"
    },
    {
      "anonymous": false,
      "inputs": [
        {
          "indexed": false,
          "internalType": "address",
          "name": "l2Token",
          "type": "address"
        },
        {
          "indexed": true,
          "internalType": "address",
          "name": "from",
          "type": "address"
        },
        {
          "indexed": false,
          "internalType": "uint256",
          "name": "amount",
          "type": "uint256"
        }
      ],
      "name": "ExclusiveSaled",
      "type": "event"
    },
    {
      "anonymous": false,
      "inputs": [
        {
          "indexed": false,
          "internalType": "address",
          "name": "l2Token",
          "type": "address"
        },
        {
          "indexed": true,
          "internalType": "address",
          "name": "from",
          "type": "address"
        },
        {
          "indexed": false,
          "internalType": "uint256",
          "name": "amount",
          "type": "uint256"
        }
      ],
      "name": "Refunded",
      "type": "event"
    },
    {
      "anonymous": false,
      "inputs": [
        {
          "indexed": true,
          "internalType": "bytes32",
          "name": "role",
          "type": "bytes32"
        },
        {
          "indexed": true,
          "internalType": "bytes32",
          "name": "previousAdminRole",
          "type": "bytes32"
        },
        {
          "indexed": true,
          "internalType": "bytes32",
          "name": "newAdminRole",
          "type": "bytes32"
        }
      ],
      "name": "RoleAdminChanged",
      "type": "event"
    },
    {
      "anonymous": false,
      "inputs": [
        {
          "indexed": true,
          "internalType": "bytes32",
          "name": "role",
          "type": "bytes32"
        },
        {
          "indexed": true,
          "internalType": "address",
          "name": "account",
          "type": "address"
        },
        {
          "indexed": true,
          "internalType": "address",
          "name": "sender",
          "type": "address"
        }
      ],
      "name": "RoleGranted",
      "type": "event"
    },
    {
      "anonymous": false,
      "inputs": [
        {
          "indexed": true,
          "internalType": "bytes32",
          "name": "role",
          "type": "bytes32"
        },
        {
          "indexed": true,
          "internalType": "address",
          "name": "account",
          "type": "address"
        },
        {
          "indexed": true,
          "internalType": "address",
          "name": "sender",
          "type": "address"
        }
      ],
      "name": "RoleRevoked",
      "type": "event"
    },
    {
      "anonymous": false,
      "inputs": [
        {
          "indexed": false,
          "internalType": "address",
          "name": "newInitializer",
          "type": "address"
        }
      ],
      "name": "SetInitializer",
      "type": "event"
    },
    {
      "anonymous": false,
      "inputs": [
        {
          "indexed": false,
          "internalType": "address",
          "name": "l2Token",
          "type": "address"
        },
        {
          "indexed": false,
          "internalType": "address",
          "name": "newAdmin",
          "type": "address"
        }
      ],
      "name": "SetVaultAdmin",
      "type": "event"
    },
    {
      "inputs": [],
      "name": "ADMIN_ROLE",
      "outputs": [
        {
          "internalType": "bytes32",
          "name": "",
          "type": "bytes32"
        }
      ],
      "stateMutability": "view",
      "type": "function"
    },
    {
      "inputs": [],
      "name": "DEFAULT_ADMIN_ROLE",
      "outputs": [
        {
          "internalType": "bytes32",
          "name": "",
          "type": "bytes32"
        }
      ],
      "stateMutability": "view",
      "type": "function"
    },
    {
      "inputs": [],
      "name": "POLICY_ROLE",
      "outputs": [
        {
          "internalType": "bytes32",
          "name": "",
          "type": "bytes32"
        }
      ],
      "stateMutability": "view",
      "type": "function"
    },
    {
      "inputs": [
        {
          "internalType": "address",
          "name": "account",
          "type": "address"
        }
      ],
      "name": "addAdmin",
      "outputs": [],
      "stateMutability": "nonpayable",
      "type": "function"
    },
    {
      "inputs": [
        {
          "internalType": "address",
          "name": "",
          "type": "address"
        }
      ],
      "name": "aliveImplementation",
      "outputs": [
        {
          "internalType": "bool",
          "name": "",
          "type": "bool"
        }
      ],
      "stateMutability": "view",
      "type": "function"
    },
    {
      "inputs": [],
      "name": "changeTick",
      "outputs": [
        {
          "internalType": "int24",
          "name": "",
          "type": "int24"
        }
      ],
      "stateMutability": "view",
      "type": "function"
    },
    {
      "inputs": [
        {
          "internalType": "address",
          "name": "",
          "type": "address"
        }
      ],
      "name": "claimInfo",
      "outputs": [
        {
          "internalType": "uint256",
          "name": "totalClaimCounts",
          "type": "uint256"
        },
        {
          "internalType": "uint256",
          "name": "firstClaimPercent",
          "type": "uint256"
        },
        {
          "internalType": "uint256",
          "name": "firstClaimTime",
          "type": "uint256"
        },
        {
          "internalType": "uint256",
          "name": "secondClaimTime",
          "type": "uint256"
        },
        {
          "internalType": "uint256",
          "name": "claimInterval",
          "type": "uint256"
        }
      ],
      "stateMutability": "view",
      "type": "function"
    },
    {
      "inputs": [
        {
          "internalType": "address",
          "name": "",
          "type": "address"
        },
        {
          "internalType": "uint256",
          "name": "",
          "type": "uint256"
        }
      ],
      "name": "claimPercents",
      "outputs": [
        {
          "internalType": "uint256",
          "name": "",
          "type": "uint256"
        }
      ],
      "stateMutability": "view",
      "type": "function"
    },
    {
      "inputs": [
        {
          "internalType": "address",
          "name": "",
          "type": "address"
        },
        {
          "internalType": "uint256",
          "name": "",
          "type": "uint256"
        }
      ],
      "name": "claimTimes",
      "outputs": [
        {
          "internalType": "uint256",
          "name": "",
          "type": "uint256"
        }
      ],
      "stateMutability": "view",
      "type": "function"
    },
    {
      "inputs": [],
      "name": "delayTime",
      "outputs": [
        {
          "internalType": "uint256",
          "name": "",
          "type": "uint256"
        }
      ],
      "stateMutability": "view",
      "type": "function"
    },
    {
      "inputs": [
        {
          "internalType": "address",
          "name": "",
          "type": "address"
        },
        {
          "internalType": "uint256",
          "name": "",
          "type": "uint256"
        }
      ],
      "name": "depositors",
      "outputs": [
        {
          "internalType": "address",
          "name": "",
          "type": "address"
        }
      ],
      "stateMutability": "view",
      "type": "function"
    },
    {
      "inputs": [
        {
          "internalType": "bytes32",
          "name": "role",
          "type": "bytes32"
        }
      ],
      "name": "getRoleAdmin",
      "outputs": [
        {
          "internalType": "bytes32",
          "name": "",
          "type": "bytes32"
        }
      ],
      "stateMutability": "view",
      "type": "function"
    },
    {
      "inputs": [
        {
          "internalType": "bytes32",
          "name": "role",
          "type": "bytes32"
        },
        {
          "internalType": "address",
          "name": "account",
          "type": "address"
        }
      ],
      "name": "grantRole",
      "outputs": [],
      "stateMutability": "nonpayable",
      "type": "function"
    },
    {
      "inputs": [
        {
          "internalType": "bytes32",
          "name": "role",
          "type": "bytes32"
        },
        {
          "internalType": "address",
          "name": "account",
          "type": "address"
        }
      ],
      "name": "hasRole",
      "outputs": [
        {
          "internalType": "bool",
          "name": "",
          "type": "bool"
        }
      ],
      "stateMutability": "view",
      "type": "function"
    },
    {
      "inputs": [
        {
          "internalType": "address[7]",
          "name": "_setAddress",
          "type": "address[7]"
        },
        {
          "internalType": "uint8",
          "name": "_min",
          "type": "uint8"
        },
        {
          "internalType": "uint8",
          "name": "_max",
          "type": "uint8"
        },
        {
          "internalType": "uint256",
          "name": "_tier1",
          "type": "uint256"
        },
        {
          "internalType": "uint256",
          "name": "_tier2",
          "type": "uint256"
        },
        {
          "internalType": "uint256",
          "name": "_tier3",
          "type": "uint256"
        },
        {
          "internalType": "uint256",
          "name": "_tier4",
          "type": "uint256"
        },
        {
          "internalType": "uint256",
          "name": "_delayTime",
          "type": "uint256"
        }
      ],
      "name": "initialize",
      "outputs": [],
      "stateMutability": "nonpayable",
      "type": "function"
    },
    {
      "inputs": [
        {
          "internalType": "address",
          "name": "account",
          "type": "address"
        }
      ],
      "name": "isAdmin",
      "outputs": [
        {
          "internalType": "bool",
          "name": "",
          "type": "bool"
        }
      ],
      "stateMutability": "view",
      "type": "function"
    },
    {
      "inputs": [],
      "name": "isL2ProjectManager",
      "outputs": [
        {
          "internalType": "bool",
          "name": "",
          "type": "bool"
        }
      ],
      "stateMutability": "view",
      "type": "function"
    },
    {
      "inputs": [
        {
          "internalType": "address",
          "name": "l2Token",
          "type": "address"
        }
      ],
      "name": "isL2Token",
      "outputs": [
        {
          "internalType": "bool",
          "name": "",
          "type": "bool"
        }
      ],
      "stateMutability": "view",
      "type": "function"
    },
    {
      "inputs": [
        {
          "internalType": "address",
          "name": "l2Token",
          "type": "address"
        },
        {
          "internalType": "address",
          "name": "account",
          "type": "address"
        }
      ],
      "name": "isVaultAdmin",
      "outputs": [
        {
          "internalType": "bool",
          "name": "",
          "type": "bool"
        }
      ],
      "stateMutability": "view",
      "type": "function"
    },
    {
      "inputs": [],
      "name": "l1burnVault",
      "outputs": [
        {
          "internalType": "address",
          "name": "",
          "type": "address"
        }
      ],
      "stateMutability": "view",
      "type": "function"
    },
    {
      "inputs": [],
      "name": "l2Bridge",
      "outputs": [
        {
          "internalType": "address",
          "name": "",
          "type": "address"
        }
      ],
      "stateMutability": "view",
      "type": "function"
    },
    {
      "inputs": [],
      "name": "l2ProjectManager",
      "outputs": [
        {
          "internalType": "address",
          "name": "",
          "type": "address"
        }
      ],
      "stateMutability": "view",
      "type": "function"
    },
    {
      "inputs": [],
      "name": "liquidityVault",
      "outputs": [
        {
          "internalType": "address",
          "name": "",
          "type": "address"
        }
      ],
      "stateMutability": "view",
      "type": "function"
    },
    {
      "inputs": [],
      "name": "lockTOS",
      "outputs": [
        {
          "internalType": "address",
          "name": "",
          "type": "address"
        }
      ],
      "stateMutability": "view",
      "type": "function"
    },
    {
      "inputs": [
        {
          "internalType": "address",
          "name": "",
          "type": "address"
        }
      ],
      "name": "manageInfo",
      "outputs": [
        {
          "internalType": "uint256",
          "name": "set1rdTokenAmount",
          "type": "uint256"
        },
        {
          "internalType": "uint256",
          "name": "set2rdTokenAmount",
          "type": "uint256"
        },
        {
          "internalType": "uint256",
          "name": "saleTokenPrice",
          "type": "uint256"
        },
        {
          "internalType": "uint256",
          "name": "tonPrice",
          "type": "uint256"
        },
        {
          "internalType": "uint256",
          "name": "hardCap",
          "type": "uint256"
        },
        {
          "internalType": "uint256",
          "name": "changeTOS",
          "type": "uint256"
        },
        {
          "internalType": "uint256",
          "name": "remainTON",
          "type": "uint256"
        },
        {
          "internalType": "int24",
          "name": "changeTick",
          "type": "int24"
        },
        {
          "internalType": "bool",
          "name": "exchangeTOS",
          "type": "bool"
        },
        {
          "internalType": "bool",
          "name": "adminWithdraw",
          "type": "bool"
        }
      ],
      "stateMutability": "view",
      "type": "function"
    },
    {
      "inputs": [],
      "name": "maxPer",
      "outputs": [
        {
          "internalType": "uint8",
          "name": "",
          "type": "uint8"
        }
      ],
      "stateMutability": "view",
      "type": "function"
    },
    {
      "inputs": [],
      "name": "minPer",
      "outputs": [
        {
          "internalType": "uint8",
          "name": "",
          "type": "uint8"
        }
      ],
      "stateMutability": "view",
      "type": "function"
    },
    {
      "inputs": [],
      "name": "pauseProxy",
      "outputs": [
        {
          "internalType": "bool",
          "name": "",
          "type": "bool"
        }
      ],
      "stateMutability": "view",
      "type": "function"
    },
    {
      "inputs": [],
      "name": "poolFee",
      "outputs": [
        {
          "internalType": "uint24",
          "name": "",
          "type": "uint24"
        }
      ],
      "stateMutability": "view",
      "type": "function"
    },
    {
      "inputs": [
        {
          "internalType": "uint256",
          "name": "",
          "type": "uint256"
        }
      ],
      "name": "proxyImplementation",
      "outputs": [
        {
          "internalType": "address",
          "name": "",
          "type": "address"
        }
      ],
      "stateMutability": "view",
      "type": "function"
    },
    {
      "inputs": [],
      "name": "quoter",
      "outputs": [
        {
          "internalType": "address",
          "name": "",
          "type": "address"
        }
      ],
      "stateMutability": "view",
      "type": "function"
    },
    {
      "inputs": [
        {
          "internalType": "address",
          "name": "account",
          "type": "address"
        }
      ],
      "name": "removeAdmin",
      "outputs": [],
      "stateMutability": "nonpayable",
      "type": "function"
    },
    {
      "inputs": [
        {
          "internalType": "bytes32",
          "name": "role",
          "type": "bytes32"
        },
        {
          "internalType": "address",
          "name": "account",
          "type": "address"
        }
      ],
      "name": "renounceRole",
      "outputs": [],
      "stateMutability": "nonpayable",
      "type": "function"
    },
    {
      "inputs": [
        {
          "internalType": "bytes32",
          "name": "role",
          "type": "bytes32"
        },
        {
          "internalType": "address",
          "name": "account",
          "type": "address"
        }
      ],
      "name": "revokeRole",
      "outputs": [],
      "stateMutability": "nonpayable",
      "type": "function"
    },
    {
      "inputs": [
        {
          "internalType": "address",
          "name": "",
          "type": "address"
        }
      ],
      "name": "saleInfo",
      "outputs": [
        {
          "internalType": "uint256",
          "name": "total1rdSaleAmount",
          "type": "uint256"
        },
        {
          "internalType": "uint256",
          "name": "total1rdTONAmount",
          "type": "uint256"
        },
        {
          "internalType": "uint256",
          "name": "totalUsers",
          "type": "uint256"
        },
        {
          "internalType": "uint256",
          "name": "total1rdUsers",
          "type": "uint256"
        },
        {
          "internalType": "uint256",
          "name": "total2rdUsers",
          "type": "uint256"
        },
        {
          "internalType": "uint256",
          "name": "total2rdUsersClaim",
          "type": "uint256"
        }
      ],
      "stateMutability": "view",
      "type": "function"
    },
    {
      "inputs": [
        {
          "internalType": "bytes4",
          "name": "",
          "type": "bytes4"
        }
      ],
      "name": "selectorImplementation",
      "outputs": [
        {
          "internalType": "address",
          "name": "",
          "type": "address"
        }
      ],
      "stateMutability": "view",
      "type": "function"
    },
    {
      "inputs": [
        {
          "internalType": "address",
          "name": "_l2token",
          "type": "address"
        },
        {
          "internalType": "uint256",
          "name": "_startAddWhiteTime",
          "type": "uint256"
        },
        {
          "internalType": "uint256",
          "name": "_endAddWhiteTime",
          "type": "uint256"
        },
        {
          "internalType": "uint256",
          "name": "_startExclusiveTime",
          "type": "uint256"
        },
        {
          "internalType": "uint256",
          "name": "_endExclusiveTime",
          "type": "uint256"
        }
      ],
      "name": "set1RoundTime",
      "outputs": [],
      "stateMutability": "nonpayable",
      "type": "function"
    },
    {
      "inputs": [
        {
          "internalType": "address",
          "name": "_l2token",
          "type": "address"
        },
        {
          "internalType": "uint256",
          "name": "_snapshot",
          "type": "uint256"
        },
        {
          "internalType": "uint256",
          "name": "_startDepositTime",
          "type": "uint256"
        },
        {
          "internalType": "uint256",
          "name": "_endDepositTime",
          "type": "uint256"
        }
      ],
      "name": "set2RoundTime",
      "outputs": [],
      "stateMutability": "nonpayable",
      "type": "function"
    },
    {
      "inputs": [
        {
          "internalType": "address[7]",
          "name": "_setAddress",
          "type": "address[7]"
        }
      ],
      "name": "setAddress",
      "outputs": [],
      "stateMutability": "nonpayable",
      "type": "function"
    },
    {
      "inputs": [
        {
          "internalType": "address",
          "name": "_l2token",
          "type": "address"
        },
        {
          "internalType": "uint256",
          "name": "_totalExpectSaleAmount",
          "type": "uint256"
        },
        {
          "internalType": "uint256",
          "name": "_totalExpectOpenSaleAmount",
          "type": "uint256"
        },
        {
          "internalType": "uint256",
          "name": "_saleTokenPrice",
          "type": "uint256"
        },
        {
          "internalType": "uint256",
          "name": "_payTokenPrice",
          "type": "uint256"
        },
        {
          "internalType": "uint256",
          "name": "_hardcapAmount",
          "type": "uint256"
        },
        {
          "internalType": "uint256",
          "name": "_changePercent",
          "type": "uint256"
        },
        {
          "internalType": "uint256",
          "name": "_changeTick",
          "type": "uint256"
        }
      ],
      "name": "setAllAmount",
      "outputs": [],
      "stateMutability": "nonpayable",
      "type": "function"
    },
    {
      "inputs": [
        {
          "internalType": "address",
          "name": "_l2Bridge",
          "type": "address"
        },
        {
          "internalType": "address",
          "name": "_l1burnVault",
          "type": "address"
        }
      ],
      "name": "setBurnBridge",
      "outputs": [],
      "stateMutability": "nonpayable",
      "type": "function"
    },
    {
      "inputs": [
        {
          "internalType": "address",
          "name": "_l2token",
          "type": "address"
        },
        {
          "internalType": "uint256",
          "name": "_claimCounts",
          "type": "uint256"
        },
        {
          "internalType": "uint256",
          "name": "_firstClaimPercents",
          "type": "uint256"
        },
        {
          "internalType": "uint256",
          "name": "_firstClaimTime",
          "type": "uint256"
        },
        {
          "internalType": "uint256",
          "name": "_secondClaimTime",
          "type": "uint256"
        },
        {
          "internalType": "uint256",
          "name": "_roundInterval",
          "type": "uint256"
        }
      ],
      "name": "setClaimTime",
      "outputs": [],
      "stateMutability": "nonpayable",
      "type": "function"
    },
    {
      "inputs": [
        {
          "internalType": "uint256",
          "name": "_delay",
          "type": "uint256"
        }
      ],
      "name": "setDelayTime",
      "outputs": [],
      "stateMutability": "nonpayable",
      "type": "function"
    },
    {
      "inputs": [
        {
          "internalType": "address",
          "name": "_l2ProjectManager",
          "type": "address"
        }
      ],
      "name": "setL2ProjectManager",
      "outputs": [],
      "stateMutability": "nonpayable",
      "type": "function"
    },
    {
      "inputs": [
        {
          "internalType": "uint8",
          "name": "_min",
          "type": "uint8"
        },
        {
          "internalType": "uint8",
          "name": "_max",
          "type": "uint8"
        }
      ],
      "name": "setMaxMinPercent",
      "outputs": [],
      "stateMutability": "nonpayable",
      "type": "function"
    },
    {
      "inputs": [
        {
          "internalType": "uint256",
          "name": "_tier1",
          "type": "uint256"
        },
        {
          "internalType": "uint256",
          "name": "_tier2",
          "type": "uint256"
        },
        {
          "internalType": "uint256",
          "name": "_tier3",
          "type": "uint256"
        },
        {
          "internalType": "uint256",
          "name": "_tier4",
          "type": "uint256"
        }
      ],
      "name": "setSTOSstandard",
      "outputs": [],
      "stateMutability": "nonpayable",
      "type": "function"
    },
    {
      "inputs": [
        {
          "internalType": "address",
          "name": "_l2token",
          "type": "address"
        },
        {
          "internalType": "uint256",
          "name": "_tier1",
          "type": "uint256"
        },
        {
          "internalType": "uint256",
          "name": "_tier2",
          "type": "uint256"
        },
        {
          "internalType": "uint256",
          "name": "_tier3",
          "type": "uint256"
        },
        {
          "internalType": "uint256",
          "name": "_tier4",
          "type": "uint256"
        }
      ],
      "name": "setTier",
      "outputs": [],
      "stateMutability": "nonpayable",
      "type": "function"
    },
    {
      "inputs": [
        {
          "internalType": "address",
          "name": "_l2token",
          "type": "address"
        },
        {
          "internalType": "uint256",
          "name": "_tier1Percents",
          "type": "uint256"
        },
        {
          "internalType": "uint256",
          "name": "_tier2Percents",
          "type": "uint256"
        },
        {
          "internalType": "uint256",
          "name": "_tier3Percents",
          "type": "uint256"
        },
        {
          "internalType": "uint256",
          "name": "_tier4Percents",
          "type": "uint256"
        }
      ],
      "name": "setTierPercents",
      "outputs": [],
      "stateMutability": "nonpayable",
      "type": "function"
    },
    {
      "inputs": [
        {
          "internalType": "address",
          "name": "l2Token",
          "type": "address"
        },
        {
          "internalType": "address",
          "name": "_newAdmin",
          "type": "address"
        }
      ],
      "name": "setVaultAdmin",
      "outputs": [],
      "stateMutability": "nonpayable",
      "type": "function"
    },
    {
      "inputs": [],
      "name": "stanTier1",
      "outputs": [
        {
          "internalType": "uint256",
          "name": "",
          "type": "uint256"
        }
      ],
      "stateMutability": "view",
      "type": "function"
    },
    {
      "inputs": [],
      "name": "stanTier2",
      "outputs": [
        {
          "internalType": "uint256",
          "name": "",
          "type": "uint256"
        }
      ],
      "stateMutability": "view",
      "type": "function"
    },
    {
      "inputs": [],
      "name": "stanTier3",
      "outputs": [
        {
          "internalType": "uint256",
          "name": "",
          "type": "uint256"
        }
      ],
      "stateMutability": "view",
      "type": "function"
    },
    {
      "inputs": [],
      "name": "stanTier4",
      "outputs": [
        {
          "internalType": "uint256",
          "name": "",
          "type": "uint256"
        }
      ],
      "stateMutability": "view",
      "type": "function"
    },
    {
      "inputs": [
        {
          "internalType": "bytes4",
          "name": "interfaceId",
          "type": "bytes4"
        }
      ],
      "name": "supportsInterface",
      "outputs": [
        {
          "internalType": "bool",
          "name": "",
          "type": "bool"
        }
      ],
      "stateMutability": "view",
      "type": "function"
    },
    {
      "inputs": [
        {
          "internalType": "address",
          "name": "",
          "type": "address"
        },
        {
          "internalType": "uint8",
          "name": "",
          "type": "uint8"
        }
      ],
      "name": "tiers",
      "outputs": [
        {
          "internalType": "uint256",
          "name": "",
          "type": "uint256"
        }
      ],
      "stateMutability": "view",
      "type": "function"
    },
    {
      "inputs": [
        {
          "internalType": "address",
          "name": "",
          "type": "address"
        },
        {
          "internalType": "uint8",
          "name": "",
          "type": "uint8"
        }
      ],
      "name": "tiers1stAccount",
      "outputs": [
        {
          "internalType": "uint256",
          "name": "",
          "type": "uint256"
        }
      ],
      "stateMutability": "view",
      "type": "function"
    },
    {
      "inputs": [
        {
          "internalType": "address",
          "name": "",
          "type": "address"
        },
        {
          "internalType": "uint8",
          "name": "",
          "type": "uint8"
        }
      ],
      "name": "tiersCalculAccount",
      "outputs": [
        {
          "internalType": "uint256",
          "name": "",
          "type": "uint256"
        }
      ],
      "stateMutability": "view",
      "type": "function"
    },
    {
      "inputs": [
        {
          "internalType": "address",
          "name": "",
          "type": "address"
        },
        {
          "internalType": "uint8",
          "name": "",
          "type": "uint8"
        }
      ],
      "name": "tiersPercents",
      "outputs": [
        {
          "internalType": "uint256",
          "name": "",
          "type": "uint256"
        }
      ],
      "stateMutability": "view",
      "type": "function"
    },
    {
      "inputs": [
        {
          "internalType": "address",
          "name": "",
          "type": "address"
        },
        {
          "internalType": "uint8",
          "name": "",
          "type": "uint8"
        }
      ],
      "name": "tiersWhiteList",
      "outputs": [
        {
          "internalType": "uint256",
          "name": "",
          "type": "uint256"
        }
      ],
      "stateMutability": "view",
      "type": "function"
    },
    {
      "inputs": [
        {
          "internalType": "address",
          "name": "",
          "type": "address"
        }
      ],
      "name": "timeInfo",
      "outputs": [
        {
          "internalType": "uint256",
          "name": "deployTime",
          "type": "uint256"
        },
        {
          "internalType": "uint256",
          "name": "snapshot",
          "type": "uint256"
        },
        {
          "internalType": "uint256",
          "name": "whiteListStartTime",
          "type": "uint256"
        },
        {
          "internalType": "uint256",
          "name": "whiteListEndTime",
          "type": "uint256"
        },
        {
          "internalType": "uint256",
          "name": "round1StartTime",
          "type": "uint256"
        },
        {
          "internalType": "uint256",
          "name": "round1EndTime",
          "type": "uint256"
        },
        {
          "internalType": "uint256",
          "name": "round2StartTime",
          "type": "uint256"
        },
        {
          "internalType": "uint256",
          "name": "round2EndTime",
          "type": "uint256"
        }
      ],
      "stateMutability": "view",
      "type": "function"
    },
    {
      "inputs": [],
      "name": "ton",
      "outputs": [
        {
          "internalType": "address",
          "name": "",
          "type": "address"
        }
      ],
      "stateMutability": "view",
      "type": "function"
    },
    {
      "inputs": [],
      "name": "tos",
      "outputs": [
        {
          "internalType": "address",
          "name": "",
          "type": "address"
        }
      ],
      "stateMutability": "view",
      "type": "function"
    },
    {
      "inputs": [
        {
          "internalType": "address",
          "name": "",
          "type": "address"
        }
      ],
      "name": "totalDepositAmount",
      "outputs": [
        {
          "internalType": "uint256",
          "name": "",
          "type": "uint256"
        }
      ],
      "stateMutability": "view",
      "type": "function"
    },
    {
      "inputs": [
        {
          "internalType": "address",
          "name": "newAdmin",
          "type": "address"
        }
      ],
      "name": "transferAdmin",
      "outputs": [],
      "stateMutability": "nonpayable",
      "type": "function"
    },
    {
      "inputs": [],
      "name": "uniswapRouter",
      "outputs": [
        {
          "internalType": "address",
          "name": "",
          "type": "address"
        }
      ],
      "stateMutability": "view",
      "type": "function"
    },
    {
      "inputs": [
        {
          "internalType": "address",
          "name": "",
          "type": "address"
        },
        {
          "internalType": "address",
          "name": "",
          "type": "address"
        }
      ],
      "name": "user1rd",
      "outputs": [
        {
          "internalType": "bool",
          "name": "join",
          "type": "bool"
        },
        {
          "internalType": "uint8",
          "name": "tier",
          "type": "uint8"
        },
        {
          "internalType": "uint256",
          "name": "payAmount",
          "type": "uint256"
        },
        {
          "internalType": "uint256",
          "name": "saleAmount",
          "type": "uint256"
        }
      ],
      "stateMutability": "view",
      "type": "function"
    },
    {
      "inputs": [
        {
          "internalType": "address",
          "name": "",
          "type": "address"
        },
        {
          "internalType": "address",
          "name": "",
          "type": "address"
        }
      ],
      "name": "user2rd",
      "outputs": [
        {
          "internalType": "bool",
          "name": "join",
          "type": "bool"
        },
        {
          "internalType": "uint256",
          "name": "depositAmount",
          "type": "uint256"
        }
      ],
      "stateMutability": "view",
      "type": "function"
    },
    {
      "inputs": [
        {
          "internalType": "address",
          "name": "",
          "type": "address"
        },
        {
          "internalType": "address",
          "name": "",
          "type": "address"
        }
      ],
      "name": "userClaim",
      "outputs": [
        {
          "internalType": "bool",
          "name": "refund",
          "type": "bool"
        },
        {
          "internalType": "uint256",
          "name": "claimAmount",
          "type": "uint256"
        },
        {
          "internalType": "uint256",
          "name": "refundAmount",
          "type": "uint256"
        },
        {
          "internalType": "uint256",
          "name": "latestClaimedRound",
          "type": "uint256"
        }
      ],
      "stateMutability": "view",
      "type": "function"
    },
    {
      "inputs": [
        {
          "internalType": "address",
          "name": "",
          "type": "address"
        }
      ],
      "name": "vaultAdminOfToken",
      "outputs": [
        {
          "internalType": "address",
          "name": "",
          "type": "address"
        }
      ],
      "stateMutability": "view",
      "type": "function"
    },
    {
      "inputs": [
        {
          "internalType": "address",
          "name": "_l2token",
          "type": "address"
        },
        {
          "components": [
            {
              "internalType": "uint256",
              "name": "stosTier1",
              "type": "uint256"
            },
            {
              "internalType": "uint256",
              "name": "stosTier2",
              "type": "uint256"
            },
            {
              "internalType": "uint256",
              "name": "stosTier3",
              "type": "uint256"
            },
            {
              "internalType": "uint256",
              "name": "stosTier4",
              "type": "uint256"
            },
            {
              "internalType": "uint256",
              "name": "tier1Percents",
              "type": "uint256"
            },
            {
              "internalType": "uint256",
              "name": "tier2Percents",
              "type": "uint256"
            },
            {
              "internalType": "uint256",
              "name": "tier3Percents",
              "type": "uint256"
            },
            {
              "internalType": "uint256",
              "name": "tier4Percents",
              "type": "uint256"
            },
            {
              "internalType": "uint256",
              "name": "total1roundSaleAmount",
              "type": "uint256"
            },
            {
              "internalType": "uint256",
              "name": "total2roundSaleAmount",
              "type": "uint256"
            },
            {
              "internalType": "uint256",
              "name": "saleTokenPrice",
              "type": "uint256"
            },
            {
              "internalType": "uint256",
              "name": "payTokenPrice",
              "type": "uint256"
            },
            {
              "internalType": "uint256",
              "name": "hardcapAmount",
              "type": "uint256"
            },
            {
              "internalType": "uint256",
              "name": "changeTOSPercent",
              "type": "uint256"
            },
            {
              "internalType": "uint256",
              "name": "startWhiteTime",
              "type": "uint256"
            },
            {
              "internalType": "uint256",
              "name": "endWhiteTime",
              "type": "uint256"
            },
            {
              "internalType": "uint256",
              "name": "start1roundTime",
              "type": "uint256"
            },
            {
              "internalType": "uint256",
              "name": "end1roundTime",
              "type": "uint256"
            },
            {
              "internalType": "uint256",
              "name": "snapshotTime",
              "type": "uint256"
            },
            {
              "internalType": "uint256",
              "name": "start2roundTime",
              "type": "uint256"
            },
            {
              "internalType": "uint256",
              "name": "end2roundTime",
              "type": "uint256"
            }
          ],
          "internalType": "struct LibProject.InitalParameterPublicSaleVault",
          "name": "params",
          "type": "tuple"
        },
        {
          "components": [
            {
              "internalType": "uint256",
              "name": "claimCounts",
              "type": "uint256"
            },
            {
              "internalType": "uint256",
              "name": "firstClaimPercent",
              "type": "uint256"
            },
            {
              "internalType": "uint256",
              "name": "firstClaimTime",
              "type": "uint256"
            },
            {
              "internalType": "uint256",
              "name": "secondClaimTime",
              "type": "uint256"
            },
            {
              "internalType": "uint256",
              "name": "roundInterval",
              "type": "uint256"
            }
          ],
          "internalType": "struct LibProject.InitalParameterPublicSaleClaim",
          "name": "params2",
          "type": "tuple"
        },
        {
          "components": [
            {
              "internalType": "address",
              "name": "receiveAddress",
              "type": "address"
            },
            {
              "internalType": "uint256",
              "name": "totalClaimCount",
              "type": "uint256"
            },
            {
              "internalType": "uint256",
              "name": "firstClaimPercent",
              "type": "uint256"
            },
            {
              "internalType": "uint256",
              "name": "firstClaimTime",
              "type": "uint256"
            },
            {
              "internalType": "uint256",
              "name": "secondClaimTime",
              "type": "uint256"
            },
            {
              "internalType": "uint256",
              "name": "roundIntervalTime",
              "type": "uint256"
            },
            {
              "internalType": "uint24",
              "name": "fee",
              "type": "uint24"
            }
          ],
          "internalType": "struct LibProject.InitalParameterVestingFundVault",
          "name": "params3",
          "type": "tuple"
        }
      ],
      "name": "vaultInitialize",
      "outputs": [],
      "stateMutability": "nonpayable",
      "type": "function"
    },
    {
      "inputs": [],
      "name": "vestingFund",
      "outputs": [
        {
          "internalType": "address",
          "name": "",
          "type": "address"
        }
      ],
      "stateMutability": "view",
      "type": "function"
    },
    {
      "inputs": [
        {
          "internalType": "address",
          "name": "",
          "type": "address"
        },
        {
          "internalType": "uint256",
          "name": "",
          "type": "uint256"
        }
      ],
      "name": "whitelists",
      "outputs": [
        {
          "internalType": "address",
          "name": "",
          "type": "address"
        }
      ],
      "stateMutability": "view",
      "type": "function"
    },
    {
      "inputs": [],
      "name": "wton",
      "outputs": [
        {
          "internalType": "address",
          "name": "",
          "type": "address"
        }
      ],
      "stateMutability": "view",
      "type": "function"
    }
  ],
  "bytecode": "0x60806040526014805463ff0000001916630100000017905534801561002357600080fd5b506140a5806100336000396000f3fe608060405234801561001057600080fd5b50600436106104c35760003560e01c806375b238fc11610286578063ae148b871161016b578063d01481a1116100e3578063dc560fcd11610097578063ea28ef181161007c578063ea28ef1814610e2d578063f3b08cb914610e35578063f5a96ccf14610e4857600080fd5b8063dc560fcd14610df6578063e1ff729b14610dff57600080fd5b8063d547741f116100c8578063d547741f14610d0e578063d7b0b29d14610d21578063d97830b114610d9157600080fd5b8063d01481a114610cd0578063d13da44414610ce357600080fd5b8063b911135f1161013a578063c6bbd5a71161011f578063c6bbd5a714610c8a578063cc48b94714610c9d578063cf437a8f14610cb057600080fd5b8063b911135f14610c4e578063c0f22d4b14610c7757600080fd5b8063ae148b8714610b89578063ae1f6aaf14610b9c578063b005ed9114610baf578063b18aaf5814610c3b57600080fd5b80638d62d949116101fe5780639f87b77f116101cd578063a389595f116101b2578063a389595f14610b4f578063a418234314610b63578063ac3c467614610b7657600080fd5b80639f87b77f14610b3e578063a217fddf14610b4757600080fd5b80638d62d94914610a9f57806391d1485414610aba57806397d7859514610af35780639f32b29a14610b1357600080fd5b80637e2eee531161025557806389293f651161023a57806389293f6514610a0f5780638951ed1814610a7957806389f395de14610a8c57600080fd5b80637e2eee53146109dd5780637fc46ba8146109e657600080fd5b806375b238fc14610987578063768b821f146109ae578063790f317f146109b75780637ce4166b146109ca57600080fd5b8063466c01b8116103ac57806355d6d39b1161032457806366e7cb92116102f3578063708666ad116102d8578063708666ad1461094e578063735de9f71461096157806375829def1461097457600080fd5b806366e7cb9214610928578063704802751461093b57600080fd5b806355d6d39b146108ca5780635b19e294146108f55780635bb04f701461090857806363a8fd891461091b57600080fd5b806351e8152a1161037b57806352351e851161036057806352351e851461088157806353ad404614610894578063550d01a3146108a757600080fd5b806351e8152a1461086557806351ebde6d1461087857600080fd5b8063466c01b81461080357806349f5f564146108165780634e6c44661461082957806350d2a2761461083c57600080fd5b8063229852461161043f5780632ac9bab61161040e57806333efca3d116103f357806333efca3d1461079057806335b9ac66146107dd57806336568abe146107f057600080fd5b80632ac9bab6146107525780632f2ff15d1461077d57600080fd5b806322985246146106e257806323abde1114610709578063248a9ca31461071c57806324d7806c1461073f57600080fd5b806312269758116104965780631785f53c1161047b5780631785f53c146106435780631916e534146106565780631c53f256146106bc57600080fd5b806312269758146105f5578063123411181461062e57600080fd5b806301ffc9a7146104c8578063089fe6aa146104f057806308ac3fcb1461050d5780630b7459eb146105ca575b600080fd5b6104db6104d636600461389d565b610e5b565b60405190151581526020015b60405180910390f35b6104f9610bb881565b60405162ffffff90911681526020016104e7565b61057961051b3660046138e3565b601c6020526000908152604090208054600182015460028084015460038501546004860154600587015460068801546007909801549697959693959294919390929181900b9060ff630100000082048116916401000000009004168a565b604080519a8b5260208b0199909952978901969096526060880194909452608087019290925260a086015260c085015260020b60e084015215156101008301521515610120820152610140016104e7565b6006546105dd906001600160a01b031681565b6040516001600160a01b0390911681526020016104e7565b61062061060336600461390f565b602360209081526000928352604080842090915290825290205481565b6040519081526020016104e7565b61064161063c366004613942565b610e92565b005b6106416106513660046138e3565b61117f565b61069a61066436600461398c565b6021602090815260009283526040808420909152908252902080546001820154600283015460039093015460ff90921692909184565b60408051941515855260208501939093529183015260608201526080016104e7565b600e546106d090600160a81b900460ff1681565b60405160ff90911681526020016104e7565b6106207ffb5864e8ff833c3cb2d2d08505e82ff02a43554c74a35d4f5a64e8526127831181565b6106416107173660046139b6565b6111fa565b61062061072a3660046139f8565b60009081526004602052604090206001015490565b6104db61074d3660046138e3565b6115b6565b61062061076036600461390f565b602660209081526000928352604080842090915290825290205481565b61064161078b366004613a11565b6115f6565b6107c661079e36600461398c565b6020808052600092835260408084209091529082529020805460019091015460ff9091169082565b6040805192151583526020830191909152016104e7565b6106416107eb36600461398c565b611620565b6106416107fe366004613a11565b6118ac565b6105dd610811366004613a34565b611938565b610641610824366004613a5e565b611970565b6009546105dd906001600160a01b031681565b6105dd61084a36600461389d565b6003602052600090815260409020546001600160a01b031681565b6104db61087336600461398c565b611e17565b61062060115481565b600c546105dd906001600160a01b031681565b6106416108a2366004613c31565b611e54565b6104db6108b53660046138e3565b60026020526000908152604090205460ff1681565b6106206108d836600461390f565b602460209081526000928352604080842090915290825290205481565b6105dd610903366004613a34565b612101565b61064161091636600461398c565b61211d565b6000546104db9060ff1681565b6106416109363660046139b6565b6121fd565b6106416109493660046138e3565b612520565b6007546105dd906001600160a01b031681565b6008546105dd906001600160a01b031681565b6106416109823660046138e3565b612598565b6106207fdf8b4c520ffe197c5343c6f5aec59570151ef9a492f2c624fd45ddde6135ec4281565b61062060105481565b6106416109c5366004613d9f565b6126e8565b6106416109d8366004613e17565b612768565b61062060135481565b6105dd6109f43660046138e3565b6016602052600090815260409020546001600160a01b031681565b610a55610a1d36600461398c565b601f60209081526000928352604080842090915290825290208054600182015460029092015460ff8083169361010090930416919084565b60408051941515855260ff90931660208501529183015260608201526080016104e7565b610641610a873660046139f8565b61296e565b600a546105dd906001600160a01b031681565b6105dd73c4a11aaf6ea915ed7ac194161d2fc9384f15bff281565b6104db610ac8366004613a11565b60009182526004602090815260408084206001600160a01b0393909316845291905290205460ff1690565b610620610b013660046138e3565b60156020526000908152604090205481565b610620610b2136600461390f565b602560209081526000928352604080842090915290825290205481565b610620600f5481565b610620600081565b600e546106d090600160a01b900460ff1681565b610641610b713660046138e3565b612a12565b610641610b84366004613e33565b612b05565b610641610b97366004613e65565b612bcc565b600d546105dd906001600160a01b031681565b610c00610bbd3660046138e3565b601b602052600090815260409020805460018201546002830154600384015460048501546005860154600687015460079097015495969495939492939192909188565b604080519889526020890197909752958701949094526060860192909252608085015260a084015260c083015260e0820152610100016104e7565b610641610c49366004613e81565b612cd8565b6105dd610c5c3660046139f8565b6001602052600090815260409020546001600160a01b031681565b610620610c85366004613a34565b612fdc565b6005546105dd906001600160a01b031681565b600b546105dd906001600160a01b031681565b601454610cbd9060020b81565b60405160029190910b81526020016104e7565b600e546105dd906001600160a01b031681565b610620610cf136600461390f565b602260209081526000928352604080842090915290825290205481565b610641610d1c366004613a11565b61300d565b610d64610d2f3660046138e3565b601e60205260009081526040902080546001820154600283015460038401546004850154600590950154939492939192909186565b604080519687526020870195909552938501929092526060840152608083015260a082015260c0016104e7565b610dce610d9f3660046138e3565b601d60205260009081526040902080546001820154600283015460038401546004909401549293919290919085565b604080519586526020860194909452928401919091526060830152608082015260a0016104e7565b61062060125481565b6104db610e0d3660046138e3565b6001600160a01b0390811660009081526016602052604090205416151590565b6104db613032565b610620610e43366004613a34565b61305e565b610641610e563660046139b6565b61307a565b60006001600160e01b03198216637965db0b60e01b1480610e8c57506301ffc9a760e01b6001600160e01b03198316145b92915050565b6001600160a01b0380871660009081526016602052604090205487911615801590610ed657506001600160a01b038181166000908152601660205260409020541633145b80610eeb5750600c546001600160a01b031633145b610f4a5760405162461bcd60e51b815260206004820152602560248201527f63616c6c6572206973206e6f742061207661756c7441646d696e204f66206c326044820152642a37b5b2b760d91b60648201526084015b60405180910390fd5b8580600003610f805760405162461bcd60e51b81526020600482015260026024820152615a3160f01b6044820152606401610f41565b6001600160a01b0388166000908152601b60209081526040918290208251610100810184528154815260018201549281019290925260028101549282018390526003810154606083015260048101546080830152600581015460a0830152600681015460c08301526007015460e0820152899115806110115750600081604001511180156110115750806040015142105b61105d5760405162461bcd60e51b815260206004820152601c60248201527f6e6f74206265666f726577686974654c697374537461727454696d65000000006044820152606401610f41565b6001600160a01b038a166000908152601d602052604090204388116110c45760405162461bcd60e51b815260206004820152601760248201527f666972737420636c61696d2074696d65207061737365640000000000000000006044820152606401610f41565b876000036111145760405162461bcd60e51b815260206004820152601860248201527f6669727374636c61696d54696d652076616c75652065727200000000000000006044820152606401610f41565b80541561115a57611123613032565b61115a5760405162461bcd60e51b81526020600482015260086024820152676f6e6c792044414f60c01b6044820152606401610f41565b9889555050505060018501939093556002840191909155600383015560049091015550565b611188336115b6565b6111cd5760405162461bcd60e51b8152602060048201526022602482015260008051602061407983398151915260448201526134b760f11b6064820152608401610f41565b6111f77fdf8b4c520ffe197c5343c6f5aec59570151ef9a492f2c624fd45ddde6135ec42826118ac565b50565b6001600160a01b038086166000908152601660205260409020548691161580159061123e57506001600160a01b038181166000908152601660205260409020541633145b806112535750600c546001600160a01b031633145b6112ad5760405162461bcd60e51b815260206004820152602560248201527f63616c6c6572206973206e6f742061207661756c7441646d696e204f66206c326044820152642a37b5b2b760d91b6064820152608401610f41565b84806000036112e35760405162461bcd60e51b81526020600482015260026024820152615a3160f01b6044820152606401610f41565b84806000036113195760405162461bcd60e51b81526020600482015260026024820152615a3160f01b6044820152606401610f41565b848060000361134f5760405162461bcd60e51b81526020600482015260026024820152615a3160f01b6044820152606401610f41565b84806000036113855760405162461bcd60e51b81526020600482015260026024820152615a3160f01b6044820152606401610f41565b6001600160a01b038a166000908152601b60209081526040918290208251610100810184528154815260018201549281019290925260028101549282018390526003810154606083015260048101546080830152600581015460a0830152600681015460c08301526007015460e08201528b9115806114165750600081604001511180156114165750806040015142105b6114625760405162461bcd60e51b815260206004820152601c60248201527f6e6f74206265666f726577686974654c697374537461727454696d65000000006044820152606401610f41565b6001600160a01b038c166000908152601b602052604090208a8c1080156114885750898b105b80156114935750888a105b6114df5760405162461bcd60e51b815260206004820152600d60248201527f526f756e6454696d6520657272000000000000000000000000000000000000006044820152606401610f41565b80541561152a576114ee613032565b6115255760405162461bcd60e51b81526020600482015260086024820152676f6e6c792044414f60c01b6044820152606401610f41565b61152e565b4281555b60135481548d9161153e91613ed0565b1061158b5760405162461bcd60e51b815260206004820152601360248201527f736e617073686f74206e656564206c61746572000000000000000000000000006044820152606401610f41565b600281019b909b55505050506003870195909555505060048401919091556005909201919091555050565b6001600160a01b03811660009081527f2fb794d17134dfdec181ddbac1babb5ab1eb140204ef4d982f294e7fc8b69022602052604081205460ff16610e8c565b6000828152600460205260409020600101546116118161340d565b61161b8383613417565b505050565b816001600160a01b03811661165c5760405162461bcd60e51b81526020600482015260026024820152612d1960f11b6044820152606401610f41565b816001600160a01b0381166116985760405162461bcd60e51b81526020600482015260026024820152612d1960f11b6044820152606401610f41565b600c546001600160a01b0316158015906116bc5750600c546001600160a01b031633145b6117085760405162461bcd60e51b815260206004820152601e60248201527f63616c6c6572206973206e6f74206c3250726f6a6563744d616e6167657200006044820152606401610f41565b6001600160a01b0384811660009081526016602052604090205481851691160361175d5760405162461bcd60e51b8152600401610f419060208082526004908201526373616d6560e01b604082015260600190565b6001600160a01b038481166000818152601660205260409081902080546001600160a01b03191687851690811790915560065491516328f40a9560e11b815260048101939093526024830152909116906351e8152a90604401602060405180830381865afa1580156117d3573d6000803e3d6000fd5b505050506040513d601f19601f820116820180604052508101906117f79190613ee3565b61186357600654604051631adcd63360e11b81526001600160a01b0386811660048301528581166024830152909116906335b9ac6690604401600060405180830381600087803b15801561184a57600080fd5b505af115801561185e573d6000803e3d6000fd5b505050505b604080516001600160a01b038087168252851660208201527fb00bb4c229aff6156cc8e2c767c571665e1927c09fe083ec055956a5a4026193910160405180910390a150505050565b6001600160a01b038116331461192a5760405162461bcd60e51b815260206004820152602f60248201527f416363657373436f6e74726f6c3a2063616e206f6e6c792072656e6f756e636560448201527f20726f6c657320666f722073656c6600000000000000000000000000000000006064820152608401610f41565b61193482826134b9565b5050565b6017602052816000526040600020818154811061195457600080fd5b6000918252602090912001546001600160a01b03169150829050565b6001600160a01b03808916600090815260166020526040902054899116158015906119b457506001600160a01b038181166000908152601660205260409020541633145b806119c95750600c546001600160a01b031633145b611a235760405162461bcd60e51b815260206004820152602560248201527f63616c6c6572206973206e6f742061207661756c7441646d696e204f66206c326044820152642a37b5b2b760d91b6064820152608401610f41565b6001600160a01b0389166000908152601b60209081526040918290208251610100810184528154815260018201549281019290925260028101549282018390526003810154606083015260048101546080830152600581015460a0830152600681015460c08301526007015460e08201528a911580611ab4575060008160400151118015611ab45750806040015142105b611b005760405162461bcd60e51b815260206004820152601c60248201527f6e6f74206265666f726577686974654c697374537461727454696d65000000006044820152606401610f41565b6040516370a0823160e01b81523060048201526000906001600160a01b038d16906370a0823190602401602060405180830381865afa158015611b47573d6000803e3d6000fd5b505050506040513d601f19601f82011682018060405250810190611b6b9190613f05565b905080600003611c1557600c54611baa906001600160a01b031630611b908d8f613ed0565b8f6001600160a01b031661353c909392919063ffffffff16565b6040516370a0823160e01b81523060048201526001600160a01b038d16906370a0823190602401602060405180830381865afa158015611bee573d6000803e3d6000fd5b505050506040513d601f19601f82011682018060405250810190611c129190613f05565b90505b80611c208b8d613ed0565b11158015611c36575080670de0b6b3a764000011155b611c825760405162461bcd60e51b815260206004820152600f60248201527f6e6f7420696e70757420746f6b656e00000000000000000000000000000000006044820152606401610f41565b600e54600160a81b900460ff168611801590611caa5750600e54600160a01b900460ff168610155b611cf65760405162461bcd60e51b815260206004820152601360248201527f6e65656420746f20736574206d696e2c6d6178000000000000000000000000006044820152606401610f41565b88611d018989613f1e565b611d0b9190613f35565b611d158b8d613ed0565b1015611d635760405162461bcd60e51b815260206004820152600c60248201527f6f766572206861726463617000000000000000000000000000000000000000006044820152606401610f41565b6001600160a01b038c166000908152601c60205260409020805415611dc157611d8a613032565b611dc15760405162461bcd60e51b81526020600482015260086024820152676f6e6c792044414f60c01b6044820152606401610f41565b8b8155600181018b905560028082018b9055600382018a905560048201899055600582018890556007820154900b600003611e085760078101805462ffffff191660121790555b50505050505050505050505050565b60006001600160a01b03821615801590611e4d57506001600160a01b038381166000908152601660205260409020548116908316145b9392505050565b6001600160a01b0380851660009081526016602052604090205485911615801590611e9857506001600160a01b038181166000908152601660205260409020541633145b80611ead5750600c546001600160a01b031633145b611f075760405162461bcd60e51b815260206004820152602560248201527f63616c6c6572206973206e6f742061207661756c7441646d696e204f66206c326044820152642a37b5b2b760d91b6064820152608401610f41565b611f248585600001518660200151876040015188606001516121fd565b611f418585608001518660a001518760c001518860e0015161307a565b611f70858561010001518661012001518761014001518861016001518961018001518a6101a001516000611970565b611f9185856101c00151866101e001518761020001518861022001516111fa565b611fac85856102400151866102600151876102800151612cd8565b611fce8584600001518560200151866040015187606001518860800151610e92565b600654825160208401516040808601516060870151608088015160a089015160c08a01519451632078091160e11b81526001600160a01b038e81166004830152978816602482015260448101969096526064860193909352608485019190915260a484015260c483015262ffffff1660e48201529116906340f012229061010401600060405180830381600087803b15801561206957600080fd5b505af115801561207d573d6000803e3d6000fd5b5050600d5460405163095ea7b360e01b81526001600160a01b0391821660048201526000196024820152908816925063095ea7b391506044016020604051808303816000875af11580156120d5573d6000803e3d6000fd5b505050506040513d601f19601f820116820180604052508101906120f99190613ee3565b505050505050565b6018602052816000526040600020818154811061195457600080fd5b612126336115b6565b61216b5760405162461bcd60e51b8152602060048201526022602482015260008051602061407983398151915260448201526134b760f11b6064820152608401610f41565b600d546001600160a01b038381169116148015906121975750600e546001600160a01b03828116911614155b6121cf5760405162461bcd60e51b815260206004820152600960248201526839b0b6b29030b2323960b91b6044820152606401610f41565b600d80546001600160a01b039384166001600160a01b031991821617909155600e8054929093169116179055565b6001600160a01b038086166000908152601660205260409020548691161580159061224157506001600160a01b038181166000908152601660205260409020541633145b806122565750600c546001600160a01b031633145b6122b05760405162461bcd60e51b815260206004820152602560248201527f63616c6c6572206973206e6f742061207661756c7441646d696e204f66206c326044820152642a37b5b2b760d91b6064820152608401610f41565b84806000036122e65760405162461bcd60e51b81526020600482015260026024820152615a3160f01b6044820152606401610f41565b848060000361231c5760405162461bcd60e51b81526020600482015260026024820152615a3160f01b6044820152606401610f41565b84806000036123525760405162461bcd60e51b81526020600482015260026024820152615a3160f01b6044820152606401610f41565b84806000036123885760405162461bcd60e51b81526020600482015260026024820152615a3160f01b6044820152606401610f41565b6001600160a01b038a166000908152601b60209081526040918290208251610100810184528154815260018201549281019290925260028101549282018390526003810154606083015260048101546080830152600581015460a0830152600681015460c08301526007015460e08201528b9115806124195750600081604001511180156124195750806040015142105b6124655760405162461bcd60e51b815260206004820152601c60248201527f6e6f74206265666f726577686974654c697374537461727454696d65000000006044820152606401610f41565b6001600160a01b038c16600090815260226020908152604080832060018452909152902054156124ce57612497613032565b6124ce5760405162461bcd60e51b81526020600482015260086024820152676f6e6c792044414f60c01b6044820152606401610f41565b505050506001600160a01b039790971660009081526022602090815260408083206001845290915280822097909755600281528681209590955550506003835283832091909155600482529190205550565b612529336115b6565b61256e5760405162461bcd60e51b8152602060048201526022602482015260008051602061407983398151915260448201526134b760f11b6064820152608401610f41565b6111f77fdf8b4c520ffe197c5343c6f5aec59570151ef9a492f2c624fd45ddde6135ec42826115f6565b6125a1336115b6565b6125e65760405162461bcd60e51b8152602060048201526022602482015260008051602061407983398151915260448201526134b760f11b6064820152608401610f41565b6001600160a01b03811661263c5760405162461bcd60e51b815260206004820152601860248201527f41636365737369626c653a207a65726f206164647265737300000000000000006044820152606401610f41565b6001600160a01b03811633036126945760405162461bcd60e51b815260206004820152601660248201527f41636365737369626c653a2073616d652061646d696e000000000000000000006044820152606401610f41565b6126be7fdf8b4c520ffe197c5343c6f5aec59570151ef9a492f2c624fd45ddde6135ec42826115f6565b6111f77fdf8b4c520ffe197c5343c6f5aec59570151ef9a492f2c624fd45ddde6135ec42336118ac565b6126f1336115b6565b6127365760405162461bcd60e51b8152602060048201526022602482015260008051602061407983398151915260448201526134b760f11b6064820152608401610f41565b61273f88612768565b6127498787612bcc565b61275585858585612b05565b61275e8161296e565b5050505050505050565b612771336115b6565b6127b65760405162461bcd60e51b8152602060048201526022602482015260008051602061407983398151915260448201526134b760f11b6064820152608401610f41565b6127c360208201826138e3565b600580546001600160a01b0319166001600160a01b03929092169190911790556127f360408201602083016138e3565b600680546001600160a01b0319166001600160a01b039290921691909117905561282360608201604083016138e3565b600780546001600160a01b0319166001600160a01b039290921691909117905561285360808201606083016138e3565b600880546001600160a01b0319166001600160a01b039290921691909117905561288360a08201608083016138e3565b600980546001600160a01b0319166001600160a01b03929092169190911790556128b360c0820160a083016138e3565b600a80546001600160a01b0319166001600160a01b03929092169190911790556128e360e0820160c083016138e3565b600b80546001600160a01b0319166001600160a01b0392831690811790915560085460405163095ea7b360e01b81529216600483015260001960248301529063095ea7b3906044016020604051808303816000875af115801561294a573d6000803e3d6000fd5b505050506040513d601f19601f820116820180604052508101906119349190613ee3565b612977336115b6565b6129bc5760405162461bcd60e51b8152602060048201526022602482015260008051602061407983398151915260448201526134b760f11b6064820152608401610f41565b8060135403612a0d5760405162461bcd60e51b815260206004820152600e60248201527f73616d652064656c617954696d650000000000000000000000000000000000006044820152606401610f41565b601355565b806001600160a01b038116612a4e5760405162461bcd60e51b81526020600482015260026024820152612d1960f11b6044820152606401610f41565b612a57336115b6565b612a9c5760405162461bcd60e51b8152602060048201526022602482015260008051602061407983398151915260448201526134b760f11b6064820152608401610f41565b600c546001600160a01b03808416911603612ae25760405162461bcd60e51b8152600401610f419060208082526004908201526373616d6560e01b604082015260600190565b50600c80546001600160a01b0319166001600160a01b0392909216919091179055565b612b0e336115b6565b612b535760405162461bcd60e51b8152602060048201526022602482015260008051602061407983398151915260448201526134b760f11b6064820152608401610f41565b8284108015612b6157508183105b8015612b6c57508082105b612bb85760405162461bcd60e51b815260206004820152600e60248201527f7469657220736574206572726f720000000000000000000000000000000000006044820152606401610f41565b600f93909355601091909155601155601255565b612bd5336115b6565b612c1a5760405162461bcd60e51b8152602060048201526022602482015260008051602061407983398151915260448201526134b760f11b6064820152608401610f41565b8060ff168260ff1610612c6f5760405162461bcd60e51b815260206004820152600e60248201527f6e656564206d696e203c206d61780000000000000000000000000000000000006044820152606401610f41565b600e80547fffffffffffffffffffff0000ffffffffffffffffffffffffffffffffffffffff16600160a01b60ff948516027fffffffffffffffffffff00ffffffffffffffffffffffffffffffffffffffffff1617600160a81b9290931691909102919091179055565b6001600160a01b0380851660009081526016602052604090205485911615801590612d1c57506001600160a01b038181166000908152601660205260409020541633145b80612d315750600c546001600160a01b031633145b612d8b5760405162461bcd60e51b815260206004820152602560248201527f63616c6c6572206973206e6f742061207661756c7441646d696e204f66206c326044820152642a37b5b2b760d91b6064820152608401610f41565b8380600003612dc15760405162461bcd60e51b81526020600482015260026024820152615a3160f01b6044820152606401610f41565b8380600003612df75760405162461bcd60e51b81526020600482015260026024820152615a3160f01b6044820152606401610f41565b8380600003612e2d5760405162461bcd60e51b81526020600482015260026024820152615a3160f01b6044820152606401610f41565b6001600160a01b0388166000908152601b60209081526040918290208251610100810184528154815260018201549281019290925260028101549282018390526003810154606083015260048101546080830152600581015460a0830152600681015460c08301526007015460e082015289911580612ebe575060008160400151118015612ebe5750806040015142105b612f0a5760405162461bcd60e51b815260206004820152601c60248201527f6e6f74206265666f726577686974654c697374537461727454696d65000000006044820152606401610f41565b6001600160a01b038a166000908152601b60205260409020600181015415612f6b57612f34613032565b612f6b5760405162461bcd60e51b81526020600482015260086024820152676f6e6c792044414f60c01b6044820152606401610f41565b878910612fba5760405162461bcd60e51b815260206004820152600e60248201527f526f756e643274696d65206572720000000000000000000000000000000000006044820152606401610f41565b6001810199909955505050506006850193909355506007909201919091555050565b60196020528160005260406000208181548110612ff857600080fd5b90600052602060002001600091509150505481565b6000828152600460205260409020600101546130288161340d565b61161b83836134b9565b600c546000906001600160a01b0316158015906130595750600c546001600160a01b031633145b905090565b601a6020528160005260406000208181548110612ff857600080fd5b6001600160a01b03808616600090815260166020526040902054869116158015906130be57506001600160a01b038181166000908152601660205260409020541633145b806130d35750600c546001600160a01b031633145b61312d5760405162461bcd60e51b815260206004820152602560248201527f63616c6c6572206973206e6f742061207661756c7441646d696e204f66206c326044820152642a37b5b2b760d91b6064820152608401610f41565b84806000036131635760405162461bcd60e51b81526020600482015260026024820152615a3160f01b6044820152606401610f41565b84806000036131995760405162461bcd60e51b81526020600482015260026024820152615a3160f01b6044820152606401610f41565b84806000036131cf5760405162461bcd60e51b81526020600482015260026024820152615a3160f01b6044820152606401610f41565b84806000036132055760405162461bcd60e51b81526020600482015260026024820152615a3160f01b6044820152606401610f41565b6001600160a01b038a166000908152601b60209081526040918290208251610100810184528154815260018201549281019290925260028101549282018390526003810154606083015260048101546080830152600581015460a0830152600681015460c08301526007015460e08201528b9115806132965750600081604001511180156132965750806040015142105b6132e25760405162461bcd60e51b815260206004820152601c60248201527f6e6f74206265666f726577686974654c697374537461727454696d65000000006044820152606401610f41565b6001600160a01b038c166000908152602360209081526040808320600184529091529020541561334b57613314613032565b61334b5760405162461bcd60e51b81526020600482015260086024820152676f6e6c792044414f60c01b6044820152606401610f41565b87896133578c8e613ed0565b6133619190613ed0565b61336b9190613ed0565b612710146133bb5760405162461bcd60e51b815260206004820152600e60248201527f53756d206e6565642031303030300000000000000000000000000000000000006044820152606401610f41565b505050506001600160a01b039790971660009081526023602090815260408083206001845290915280822097909755600281528681209590955550506003835283832091909155600482529190205550565b6111f7813361366d565b60008281526004602090815260408083206001600160a01b038516845290915290205460ff166119345760008281526004602090815260408083206001600160a01b03851684529091529020805460ff191660011790556134753390565b6001600160a01b0316816001600160a01b0316837f2f8788117e7eff1d82e926ec794901d17c78024a50270940304540a733656f0d60405160405180910390a45050565b60008281526004602090815260408083206001600160a01b038516845290915290205460ff16156119345760008281526004602090815260408083206001600160a01b0385168085529252808320805460ff1916905551339285917ff6391f5c32d9c69d2a47ea670b442974b53935d1edc7fd64eb21e047a839171b9190a45050565b604080516001600160a01b0385811660248301528481166044830152606480830185905283518084039091018152608490920183526020820180517bffffffffffffffffffffffffffffffffffffffffffffffffffffffff166323b872dd60e01b17905291516000928392908816916135b59190613f91565b6000604051808303816000865af19150503d80600081146135f2576040519150601f19603f3d011682016040523d82523d6000602084013e6135f7565b606091505b50915091508180156136215750805115806136215750808060200190518101906136219190613ee3565b6120f95760405162461bcd60e51b815260206004820152601460248201527f5452414e534645525f46524f4d5f4641494c45440000000000000000000000006044820152606401610f41565b60008281526004602090815260408083206001600160a01b038516845290915290205460ff16611934576136a0816136e2565b6136ab8360206136f4565b6040516020016136bc929190613fad565b60408051601f198184030181529082905262461bcd60e51b8252610f419160040161402e565b6060610e8c6001600160a01b03831660145b60606000613703836002613f1e565b61370e906002613ed0565b67ffffffffffffffff81111561372657613726613aba565b6040519080825280601f01601f191660200182016040528015613750576020820181803683370190505b509050600360fc1b8160008151811061376b5761376b613f57565b60200101906001600160f81b031916908160001a905350600f60fb1b8160018151811061379a5761379a613f57565b60200101906001600160f81b031916908160001a90535060006137be846002613f1e565b6137c9906001613ed0565b90505b600181111561384e577f303132333435363738396162636465660000000000000000000000000000000085600f166010811061380a5761380a613f57565b1a60f81b82828151811061382057613820613f57565b60200101906001600160f81b031916908160001a90535060049490941c9361384781614061565b90506137cc565b508315611e4d5760405162461bcd60e51b815260206004820181905260248201527f537472696e67733a20686578206c656e67746820696e73756666696369656e746044820152606401610f41565b6000602082840312156138af57600080fd5b81356001600160e01b031981168114611e4d57600080fd5b80356001600160a01b03811681146138de57600080fd5b919050565b6000602082840312156138f557600080fd5b611e4d826138c7565b803560ff811681146138de57600080fd5b6000806040838503121561392257600080fd5b61392b836138c7565b9150613939602084016138fe565b90509250929050565b60008060008060008060c0878903121561395b57600080fd5b613964876138c7565b9860208801359850604088013597606081013597506080810135965060a00135945092505050565b6000806040838503121561399f57600080fd5b6139a8836138c7565b9150613939602084016138c7565b600080600080600060a086880312156139ce57600080fd5b6139d7866138c7565b97602087013597506040870135966060810135965060800135945092505050565b600060208284031215613a0a57600080fd5b5035919050565b60008060408385031215613a2457600080fd5b82359150613939602084016138c7565b60008060408385031215613a4757600080fd5b613a50836138c7565b946020939093013593505050565b600080600080600080600080610100898b031215613a7b57600080fd5b613a84896138c7565b9a60208a01359a5060408a013599606081013599506080810135985060a0810135975060c0810135965060e00135945092505050565b634e487b7160e01b600052604160045260246000fd5b60405160e0810167ffffffffffffffff81118282101715613b0157634e487b7160e01b600052604160045260246000fd5b60405290565b6040516102a0810167ffffffffffffffff81118282101715613b0157634e487b7160e01b600052604160045260246000fd5b600060a08284031215613b4b57600080fd5b60405160a0810181811067ffffffffffffffff82111715613b7c57634e487b7160e01b600052604160045260246000fd5b806040525080915082358152602083013560208201526040830135604082015260608301356060820152608083013560808201525092915050565b600060e08284031215613bc957600080fd5b613bd1613ad0565b9050613bdc826138c7565b81526020820135602082015260408201356040820152606082013560608201526080820135608082015260a082013560a082015260c082013562ffffff81168114613c2657600080fd5b60c082015292915050565b600080600080848603610440811215613c4957600080fd5b613c52866138c7565b94506102a080601f1983011215613c6857600080fd5b613c70613b07565b91506020870135825260408701356020830152606087013560408301526080870135606083015260a0870135608083015260c087013560a083015260e087013560c08301526101008088013560e084015261012080890135828501526101409150818901358185015250610160808901358285015261018091508189013581850152506101a080890135828501526101c091508189013581850152506101e08089013582850152610200915081890135818501525061022080890135828501526102409150818901358185015250610260808901358285015261028091508189013581850152508188013581840152505080935050613d73866102c08701613b39565b9150613d83866103608701613bb7565b905092959194509250565b8060e08101831015610e8c57600080fd5b6000806000806000806000806101c0898b031215613dbc57600080fd5b613dc68a8a613d8e565b9750613dd460e08a016138fe565b9650613de36101008a016138fe565b979a9699509697610120810135975061014081013596610160820135965061018082013595506101a0909101359350915050565b600060e08284031215613e2957600080fd5b611e4d8383613d8e565b60008060008060808587031215613e4957600080fd5b5050823594602084013594506040840135936060013592509050565b60008060408385031215613e7857600080fd5b61392b836138fe565b60008060008060808587031215613e9757600080fd5b613ea0856138c7565b966020860135965060408601359560600135945092505050565b634e487b7160e01b600052601160045260246000fd5b80820180821115610e8c57610e8c613eba565b600060208284031215613ef557600080fd5b81518015158114611e4d57600080fd5b600060208284031215613f1757600080fd5b5051919050565b8082028115828204841417610e8c57610e8c613eba565b600082613f5257634e487b7160e01b600052601260045260246000fd5b500490565b634e487b7160e01b600052603260045260246000fd5b60005b83811015613f88578181015183820152602001613f70565b50506000910152565b60008251613fa3818460208701613f6d565b9190910192915050565b7f416363657373436f6e74726f6c3a206163636f756e7420000000000000000000815260008351613fe5816017850160208801613f6d565b7f206973206d697373696e6720726f6c65200000000000000000000000000000006017918401918201528351614022816028840160208801613f6d565b01602801949350505050565b602081526000825180602084015261404d816040850160208701613f6d565b601f01601f19169190910160400192915050565b60008161407057614070613eba565b50600019019056fe41636365737369626c653a2043616c6c6572206973206e6f7420616e2061646da164736f6c6343000812000a",
  "linkReferences": {},
  "deployedLinkReferences": {}
}