{
  "_format": "hh-sol-artifact-1",
  "contractName": "MockL1Messenger",
  "sourceName": "contracts/test/MockL1Messenger.sol",
  "abi": [
    {
      "inputs": [],
      "stateMutability": "nonpayable",
      "type": "constructor"
    },
    {
      "anonymous": false,
      "inputs": [
        {
          "indexed": true,
          "internalType": "address",
          "name": "target",
          "type": "address"
        },
        {
          "indexed": false,
          "internalType": "address",
          "name": "sender",
          "type": "address"
        },
        {
          "indexed": false,
          "internalType": "bytes",
          "name": "message",
          "type": "bytes"
        },
        {
          "indexed": false,
          "internalType": "uint256",
          "name": "messageNonce",
          "type": "uint256"
        },
        {
          "indexed": false,
          "internalType": "uint256",
          "name": "gasLimit",
          "type": "uint256"
        }
      ],
      "name": "SentMessage",
      "type": "event"
    },
    {
      "inputs": [],
      "name": "messageNonce",
      "outputs": [
        {
          "internalType": "uint256",
          "name": "",
          "type": "uint256"
        }
      ],
      "stateMutability": "view",
      "type": "function"
    },
    {
      "inputs": [
        {
          "internalType": "address",
          "name": "_target",
          "type": "address"
        },
        {
          "internalType": "bytes",
          "name": "_message",
          "type": "bytes"
        },
        {
          "internalType": "uint32",
          "name": "_gasLimit",
          "type": "uint32"
        }
      ],
      "name": "sendMessage",
      "outputs": [],
      "stateMutability": "nonpayable",
      "type": "function"
    },
    {
      "inputs": [
        {
          "internalType": "bytes32",
          "name": "_hashMessages",
          "type": "bytes32"
        },
        {
          "internalType": "bool",
          "name": "_bool",
          "type": "bool"
        }
      ],
      "name": "setSuccessfulMessages",
      "outputs": [],
      "stateMutability": "nonpayable",
      "type": "function"
    },
    {
      "inputs": [
        {
          "internalType": "bytes32",
          "name": "",
          "type": "bytes32"
        }
      ],
      "name": "successfulMessages",
      "outputs": [
        {
          "internalType": "bool",
          "name": "",
          "type": "bool"
        }
      ],
      "stateMutability": "view",
      "type": "function"
    }
  ],
  "bytecode": "0x608060405234801561001057600080fd5b50610346806100206000396000f3fe608060405234801561001057600080fd5b506004361061004c5760003560e01c8063292200a9146100515780633dbb202b14610081578063b1b1b20914610094578063ecc70428146100cc575b600080fd5b61007f61005f366004610142565b600091825260208290526040909120805460ff1916911515919091179055565b005b61007f61008f3660046101a6565b6100e3565b6100b76100a2366004610286565b60006020819052908152604090205460ff1681565b60405190151581526020015b60405180910390f35b6100d560015481565b6040519081526020016100c3565b826001600160a01b03167fcb0f7ffd78f9aee47a248fae8db181db6eee833039123e026dcbff529522e52a338460016000815461011f9061029f565b91829055506040516101359392919087906102c6565b60405180910390a2505050565b6000806040838503121561015557600080fd5b823591506020830135801515811461016c57600080fd5b809150509250929050565b634e487b7160e01b600052604160045260246000fd5b803563ffffffff811681146101a157600080fd5b919050565b6000806000606084860312156101bb57600080fd5b83356001600160a01b03811681146101d257600080fd5b9250602084013567ffffffffffffffff808211156101ef57600080fd5b818601915086601f83011261020357600080fd5b81358181111561021557610215610177565b604051601f8201601f19908116603f0116810190838211818310171561023d5761023d610177565b8160405282815289602084870101111561025657600080fd5b82602086016020830137600060208483010152809650505050505061027d6040850161018d565b90509250925092565b60006020828403121561029857600080fd5b5035919050565b6000600182016102bf57634e487b7160e01b600052601160045260246000fd5b5060010190565b6001600160a01b038516815260006020608081840152855180608085015260005b818110156103035787810183015185820160a0015282016102e7565b50600060a0828601015260a0601f19601f8301168501019250505083604083015263ffffffff831660608301529594505050505056fea164736f6c6343000812000a",
  "linkReferences": {},
  "deployedLinkReferences": {}
}