{
  "_format": "hh-sol-artifact-1",
  "contractName": "MockL1Messenger",
  "sourceName": "contracts/test/MockL1Messenger.sol",
  "abi": [
    {
      "inputs": [],
      "stateMutability": "nonpayable",
      "type": "constructor"
    },
    {
      "anonymous": false,
      "inputs": [
        {
          "indexed": true,
          "internalType": "address",
          "name": "target",
          "type": "address"
        },
        {
          "indexed": false,
          "internalType": "address",
          "name": "sender",
          "type": "address"
        },
        {
          "indexed": false,
          "internalType": "bytes",
          "name": "message",
          "type": "bytes"
        },
        {
          "indexed": false,
          "internalType": "uint256",
          "name": "messageNonce",
          "type": "uint256"
        },
        {
          "indexed": false,
          "internalType": "uint256",
          "name": "gasLimit",
          "type": "uint256"
        }
      ],
      "name": "SentMessage",
      "type": "event"
    },
    {
      "inputs": [],
      "name": "l2messenger",
      "outputs": [
        {
          "internalType": "address",
          "name": "",
          "type": "address"
        }
      ],
      "stateMutability": "view",
      "type": "function"
    },
    {
      "inputs": [],
      "name": "messageNonce",
      "outputs": [
        {
          "internalType": "uint256",
          "name": "",
          "type": "uint256"
        }
      ],
      "stateMutability": "view",
      "type": "function"
    },
    {
      "inputs": [
        {
          "internalType": "address",
          "name": "_target",
          "type": "address"
        },
        {
          "internalType": "bytes",
          "name": "_message",
          "type": "bytes"
        },
        {
          "internalType": "uint32",
          "name": "_gasLimit",
          "type": "uint32"
        }
      ],
      "name": "sendMessage",
      "outputs": [],
      "stateMutability": "nonpayable",
      "type": "function"
    },
    {
      "inputs": [
        {
          "internalType": "address",
          "name": "_l2messagenger",
          "type": "address"
        }
      ],
      "name": "setL2messenger",
      "outputs": [],
      "stateMutability": "nonpayable",
      "type": "function"
    },
    {
      "inputs": [
        {
          "internalType": "bytes32",
          "name": "_hashMessages",
          "type": "bytes32"
        },
        {
          "internalType": "bool",
          "name": "_bool",
          "type": "bool"
        }
      ],
      "name": "setSuccessfulMessages",
      "outputs": [],
      "stateMutability": "nonpayable",
      "type": "function"
    },
    {
      "inputs": [
        {
          "internalType": "bytes32",
          "name": "",
          "type": "bytes32"
        }
      ],
      "name": "successfulMessages",
      "outputs": [
        {
          "internalType": "bool",
          "name": "",
          "type": "bool"
        }
      ],
      "stateMutability": "view",
      "type": "function"
    }
  ],
  "bytecode": "0x608060405234801561001057600080fd5b50610692806100206000396000f3fe608060405234801561001057600080fd5b50600436106100725760003560e01c806370f8169d1161005057806370f8169d146100cd578063b1b1b209146100fd578063ecc704281461013057600080fd5b80632753f6a414610077578063292200a91461008c5780633dbb202b146100ba575b600080fd5b61008a6100853660046103ab565b610147565b005b61008a61009a3660046103cd565b600091825260208290526040909120805460ff1916911515919091179055565b61008a6100c836600461042c565b6101d3565b6002546100e0906001600160a01b031681565b6040516001600160a01b0390911681526020015b60405180910390f35b61012061010b3660046104fe565b60006020819052908152604090205460ff1681565b60405190151581526020016100f4565b61013960015481565b6040519081526020016100f4565b6002546001600160a01b0316156101a45760405162461bcd60e51b815260206004820152600b60248201527f616c726561647920736574000000000000000000000000000000000000000000604482015260640160405180910390fd5b6002805473ffffffffffffffffffffffffffffffffffffffff19166001600160a01b0392909216919091179055565b6101f560405180606001604052806026815260200161063f60269139846102df565b826001600160a01b03167fcb0f7ffd78f9aee47a248fae8db181db6eee833039123e026dcbff529522e52a338460016000815461023190610517565b9182905550604051610247939291908790610584565b60405180910390a260025460015460405163cbd4ece960e01b81526001600160a01b039092169163cbd4ece99161028791879133918891906004016105c3565b600060405180830381600087803b1580156102a157600080fd5b505af11580156102b5573d6000803e3d6000fd5b505050506102da60405180606001604052806021815260200161066560219139610328565b505050565b61032482826040516024016102f5929190610600565b60408051601f198184030181529190526020810180516001600160e01b031663319af33360e01b17905261036e565b5050565b61036b8160405160240161033c919061062b565b60408051601f198184030181529190526020810180516001600160e01b031663104c13eb60e21b17905261036e565b50565b80516a636f6e736f6c652e6c6f67602083016000808483855afa5050505050565b80356001600160a01b03811681146103a657600080fd5b919050565b6000602082840312156103bd57600080fd5b6103c68261038f565b9392505050565b600080604083850312156103e057600080fd5b82359150602083013580151581146103f757600080fd5b809150509250929050565b634e487b7160e01b600052604160045260246000fd5b803563ffffffff811681146103a657600080fd5b60008060006060848603121561044157600080fd5b61044a8461038f565b9250602084013567ffffffffffffffff8082111561046757600080fd5b818601915086601f83011261047b57600080fd5b81358181111561048d5761048d610402565b604051601f8201601f19908116603f011681019083821181831017156104b5576104b5610402565b816040528281528960208487010111156104ce57600080fd5b8260208601602083013760006020848301015280965050505050506104f560408501610418565b90509250925092565b60006020828403121561051057600080fd5b5035919050565b60006001820161053757634e487b7160e01b600052601160045260246000fd5b5060010190565b6000815180845260005b8181101561056457602081850181015186830182015201610548565b506000602082860101526020601f19601f83011685010191505092915050565b6001600160a01b03851681526080602082015260006105a6608083018661053e565b905083604083015263ffffffff8316606083015295945050505050565b60006001600160a01b038087168352808616602084015250608060408301526105ef608083018561053e565b905082606083015295945050505050565b604081526000610613604083018561053e565b90506001600160a01b03831660208301529392505050565b6020815260006103c6602083018461053e56fe4d6f636b4c314d657373656e6765722073656e644d657373616765205f7461726765742025734d6f636b4c314d657373656e6765722073656e644d65737361676520656e642020a164736f6c6343000812000a",
  "linkReferences": {},
  "deployedLinkReferences": {}
}