{
  "_format": "hh-sol-artifact-1",
  "contractName": "L1TotalStosProxy",
  "sourceName": "contracts/L1/L1TotalStosProxy.sol",
  "abi": [
    {
      "anonymous": false,
      "inputs": [
        {
          "indexed": true,
          "internalType": "bytes32",
          "name": "role",
          "type": "bytes32"
        },
        {
          "indexed": true,
          "internalType": "bytes32",
          "name": "previousAdminRole",
          "type": "bytes32"
        },
        {
          "indexed": true,
          "internalType": "bytes32",
          "name": "newAdminRole",
          "type": "bytes32"
        }
      ],
      "name": "RoleAdminChanged",
      "type": "event"
    },
    {
      "anonymous": false,
      "inputs": [
        {
          "indexed": true,
          "internalType": "bytes32",
          "name": "role",
          "type": "bytes32"
        },
        {
          "indexed": true,
          "internalType": "address",
          "name": "account",
          "type": "address"
        },
        {
          "indexed": true,
          "internalType": "address",
          "name": "sender",
          "type": "address"
        }
      ],
      "name": "RoleGranted",
      "type": "event"
    },
    {
      "anonymous": false,
      "inputs": [
        {
          "indexed": true,
          "internalType": "bytes32",
          "name": "role",
          "type": "bytes32"
        },
        {
          "indexed": true,
          "internalType": "address",
          "name": "account",
          "type": "address"
        },
        {
          "indexed": true,
          "internalType": "address",
          "name": "sender",
          "type": "address"
        }
      ],
      "name": "RoleRevoked",
      "type": "event"
    },
    {
      "anonymous": false,
      "inputs": [
        {
          "indexed": true,
          "internalType": "address",
          "name": "impl",
          "type": "address"
        },
        {
          "indexed": false,
          "internalType": "bool",
          "name": "alive",
          "type": "bool"
        }
      ],
      "name": "SetAliveImplementation",
      "type": "event"
    },
    {
      "anonymous": false,
      "inputs": [
        {
          "indexed": true,
          "internalType": "bytes4",
          "name": "selector",
          "type": "bytes4"
        },
        {
          "indexed": true,
          "internalType": "address",
          "name": "impl",
          "type": "address"
        }
      ],
      "name": "SetSelectorImplementation",
      "type": "event"
    },
    {
      "anonymous": false,
      "inputs": [
        {
          "indexed": true,
          "internalType": "address",
          "name": "implementation",
          "type": "address"
        }
      ],
      "name": "Upgraded",
      "type": "event"
    },
    {
      "stateMutability": "payable",
      "type": "fallback"
    },
    {
      "inputs": [],
      "name": "ADMIN_ROLE",
      "outputs": [
        {
          "internalType": "bytes32",
          "name": "",
          "type": "bytes32"
        }
      ],
      "stateMutability": "view",
      "type": "function"
    },
    {
      "inputs": [],
      "name": "DEFAULT_ADMIN_ROLE",
      "outputs": [
        {
          "internalType": "bytes32",
          "name": "",
          "type": "bytes32"
        }
      ],
      "stateMutability": "view",
      "type": "function"
    },
    {
      "inputs": [],
      "name": "POLICY_ROLE",
      "outputs": [
        {
          "internalType": "bytes32",
          "name": "",
          "type": "bytes32"
        }
      ],
      "stateMutability": "view",
      "type": "function"
    },
    {
      "inputs": [
        {
          "internalType": "address",
          "name": "account",
          "type": "address"
        }
      ],
      "name": "addAdmin",
      "outputs": [],
      "stateMutability": "nonpayable",
      "type": "function"
    },
    {
      "inputs": [
        {
          "internalType": "address",
          "name": "",
          "type": "address"
        }
      ],
      "name": "aliveImplementation",
      "outputs": [
        {
          "internalType": "bool",
          "name": "",
          "type": "bool"
        }
      ],
      "stateMutability": "view",
      "type": "function"
    },
    {
      "inputs": [
        {
          "internalType": "uint256",
          "name": "",
          "type": "uint256"
        }
      ],
      "name": "allLocks",
      "outputs": [
        {
          "internalType": "uint256",
          "name": "start",
          "type": "uint256"
        },
        {
          "internalType": "uint256",
          "name": "end",
          "type": "uint256"
        },
        {
          "internalType": "uint256",
          "name": "amount",
          "type": "uint256"
        },
        {
          "internalType": "bool",
          "name": "withdrawn",
          "type": "bool"
        }
      ],
      "stateMutability": "view",
      "type": "function"
    },
    {
      "inputs": [
        {
          "internalType": "bytes32",
          "name": "role",
          "type": "bytes32"
        }
      ],
      "name": "getRoleAdmin",
      "outputs": [
        {
          "internalType": "bytes32",
          "name": "",
          "type": "bytes32"
        }
      ],
      "stateMutability": "view",
      "type": "function"
    },
    {
      "inputs": [
        {
          "internalType": "bytes4",
          "name": "_selector",
          "type": "bytes4"
        }
      ],
      "name": "getSelectorImplementation2",
      "outputs": [
        {
          "internalType": "address",
          "name": "impl",
          "type": "address"
        }
      ],
      "stateMutability": "view",
      "type": "function"
    },
    {
      "inputs": [
        {
          "internalType": "bytes32",
          "name": "role",
          "type": "bytes32"
        },
        {
          "internalType": "address",
          "name": "account",
          "type": "address"
        }
      ],
      "name": "grantRole",
      "outputs": [],
      "stateMutability": "nonpayable",
      "type": "function"
    },
    {
      "inputs": [
        {
          "internalType": "bytes32",
          "name": "role",
          "type": "bytes32"
        },
        {
          "internalType": "address",
          "name": "account",
          "type": "address"
        }
      ],
      "name": "hasRole",
      "outputs": [
        {
          "internalType": "bool",
          "name": "",
          "type": "bool"
        }
      ],
      "stateMutability": "view",
      "type": "function"
    },
    {
      "inputs": [],
      "name": "implementation",
      "outputs": [
        {
          "internalType": "address",
          "name": "",
          "type": "address"
        }
      ],
      "stateMutability": "view",
      "type": "function"
    },
    {
      "inputs": [
        {
          "internalType": "uint256",
          "name": "_index",
          "type": "uint256"
        }
      ],
      "name": "implementation2",
      "outputs": [
        {
          "internalType": "address",
          "name": "",
          "type": "address"
        }
      ],
      "stateMutability": "view",
      "type": "function"
    },
    {
      "inputs": [
        {
          "internalType": "address",
          "name": "account",
          "type": "address"
        }
      ],
      "name": "isAdmin",
      "outputs": [
        {
          "internalType": "bool",
          "name": "",
          "type": "bool"
        }
      ],
      "stateMutability": "view",
      "type": "function"
    },
    {
      "inputs": [
        {
          "internalType": "uint256",
          "name": "",
          "type": "uint256"
        }
      ],
      "name": "l2Infos",
      "outputs": [
        {
          "internalType": "address",
          "name": "l1Messanger",
          "type": "address"
        },
        {
          "internalType": "address",
          "name": "l2TotalStos",
          "type": "address"
        },
        {
          "internalType": "string",
          "name": "name",
          "type": "string"
        }
      ],
      "stateMutability": "view",
      "type": "function"
    },
    {
      "inputs": [],
      "name": "l2TotalCount",
      "outputs": [
        {
          "internalType": "uint256",
          "name": "",
          "type": "uint256"
        }
      ],
      "stateMutability": "view",
      "type": "function"
    },
    {
      "inputs": [],
      "name": "lockIdCounter",
      "outputs": [
        {
          "internalType": "uint256",
          "name": "",
          "type": "uint256"
        }
      ],
      "stateMutability": "view",
      "type": "function"
    },
    {
      "inputs": [
        {
          "internalType": "uint256",
          "name": "",
          "type": "uint256"
        },
        {
          "internalType": "uint256",
          "name": "",
          "type": "uint256"
        }
      ],
      "name": "lockPointHistory",
      "outputs": [
        {
          "internalType": "int256",
          "name": "bias",
          "type": "int256"
        },
        {
          "internalType": "int256",
          "name": "slope",
          "type": "int256"
        },
        {
          "internalType": "uint256",
          "name": "timestamp",
          "type": "uint256"
        }
      ],
      "stateMutability": "view",
      "type": "function"
    },
    {
      "inputs": [
        {
          "internalType": "address",
          "name": "",
          "type": "address"
        },
        {
          "internalType": "uint256",
          "name": "",
          "type": "uint256"
        }
      ],
      "name": "lockedBalances",
      "outputs": [
        {
          "internalType": "uint256",
          "name": "start",
          "type": "uint256"
        },
        {
          "internalType": "uint256",
          "name": "end",
          "type": "uint256"
        },
        {
          "internalType": "uint256",
          "name": "amount",
          "type": "uint256"
        },
        {
          "internalType": "bool",
          "name": "withdrawn",
          "type": "bool"
        }
      ],
      "stateMutability": "view",
      "type": "function"
    },
    {
      "inputs": [],
      "name": "pauseProxy",
      "outputs": [
        {
          "internalType": "bool",
          "name": "",
          "type": "bool"
        }
      ],
      "stateMutability": "view",
      "type": "function"
    },
    {
      "inputs": [
        {
          "internalType": "uint256",
          "name": "",
          "type": "uint256"
        }
      ],
      "name": "pointHistory",
      "outputs": [
        {
          "internalType": "int256",
          "name": "bias",
          "type": "int256"
        },
        {
          "internalType": "int256",
          "name": "slope",
          "type": "int256"
        },
        {
          "internalType": "uint256",
          "name": "timestamp",
          "type": "uint256"
        }
      ],
      "stateMutability": "view",
      "type": "function"
    },
    {
      "inputs": [
        {
          "internalType": "uint256",
          "name": "",
          "type": "uint256"
        }
      ],
      "name": "proxyImplementation",
      "outputs": [
        {
          "internalType": "address",
          "name": "",
          "type": "address"
        }
      ],
      "stateMutability": "view",
      "type": "function"
    },
    {
      "inputs": [
        {
          "internalType": "address",
          "name": "account",
          "type": "address"
        }
      ],
      "name": "removeAdmin",
      "outputs": [],
      "stateMutability": "nonpayable",
      "type": "function"
    },
    {
      "inputs": [
        {
          "internalType": "bytes32",
          "name": "role",
          "type": "bytes32"
        },
        {
          "internalType": "address",
          "name": "account",
          "type": "address"
        }
      ],
      "name": "renounceRole",
      "outputs": [],
      "stateMutability": "nonpayable",
      "type": "function"
    },
    {
      "inputs": [
        {
          "internalType": "bytes32",
          "name": "role",
          "type": "bytes32"
        },
        {
          "internalType": "address",
          "name": "account",
          "type": "address"
        }
      ],
      "name": "revokeRole",
      "outputs": [],
      "stateMutability": "nonpayable",
      "type": "function"
    },
    {
      "inputs": [
        {
          "internalType": "bytes4",
          "name": "",
          "type": "bytes4"
        }
      ],
      "name": "selectorImplementation",
      "outputs": [
        {
          "internalType": "address",
          "name": "",
          "type": "address"
        }
      ],
      "stateMutability": "view",
      "type": "function"
    },
    {
      "inputs": [
        {
          "internalType": "address",
          "name": "newImplementation",
          "type": "address"
        },
        {
          "internalType": "bool",
          "name": "_alive",
          "type": "bool"
        }
      ],
      "name": "setAliveImplementation2",
      "outputs": [],
      "stateMutability": "nonpayable",
      "type": "function"
    },
    {
      "inputs": [
        {
          "internalType": "address",
          "name": "newImplementation",
          "type": "address"
        },
        {
          "internalType": "uint256",
          "name": "_index",
          "type": "uint256"
        },
        {
          "internalType": "bool",
          "name": "_alive",
          "type": "bool"
        }
      ],
      "name": "setImplementation2",
      "outputs": [],
      "stateMutability": "nonpayable",
      "type": "function"
    },
    {
      "inputs": [
        {
          "internalType": "bool",
          "name": "_pause",
          "type": "bool"
        }
      ],
      "name": "setProxyPause",
      "outputs": [],
      "stateMutability": "nonpayable",
      "type": "function"
    },
    {
      "inputs": [
        {
          "internalType": "bytes4[]",
          "name": "_selectors",
          "type": "bytes4[]"
        },
        {
          "internalType": "address",
          "name": "_imp",
          "type": "address"
        }
      ],
      "name": "setSelectorImplementations2",
      "outputs": [],
      "stateMutability": "nonpayable",
      "type": "function"
    },
    {
      "inputs": [
        {
          "internalType": "bytes4",
          "name": "interfaceId",
          "type": "bytes4"
        }
      ],
      "name": "supportsInterface",
      "outputs": [
        {
          "internalType": "bool",
          "name": "",
          "type": "bool"
        }
      ],
      "stateMutability": "view",
      "type": "function"
    },
    {
      "inputs": [
        {
          "internalType": "address",
          "name": "newAdmin",
          "type": "address"
        }
      ],
      "name": "transferAdmin",
      "outputs": [],
      "stateMutability": "nonpayable",
      "type": "function"
    },
    {
      "inputs": [
        {
          "internalType": "address",
          "name": "impl",
          "type": "address"
        }
      ],
      "name": "upgradeTo",
      "outputs": [],
      "stateMutability": "nonpayable",
      "type": "function"
    },
    {
      "inputs": [
        {
          "internalType": "address",
          "name": "",
          "type": "address"
        },
        {
          "internalType": "uint256",
          "name": "",
          "type": "uint256"
        }
      ],
      "name": "userLocks",
      "outputs": [
        {
          "internalType": "uint256",
          "name": "",
          "type": "uint256"
        }
      ],
      "stateMutability": "view",
      "type": "function"
    },
    {
      "inputs": [
        {
          "internalType": "address",
          "name": "",
          "type": "address"
        },
        {
          "internalType": "uint256",
          "name": "",
          "type": "uint256"
        }
      ],
      "name": "userStos",
      "outputs": [
        {
          "internalType": "uint32",
          "name": "syncTime",
          "type": "uint32"
        },
        {
          "internalType": "uint256",
          "name": "amount",
          "type": "uint256"
        }
      ],
      "stateMutability": "view",
      "type": "function"
    },
    {
      "stateMutability": "payable",
      "type": "receive"
    }
  ],
  "bytecode": "0x60806040523480156200001157600080fd5b506200002d60008051602062001e0b833981519152806200004e565b6200004860008051602062001e0b8339815191523362000099565b6200014d565b600082815260046020526040808220600101805490849055905190918391839186917fbd79b86ffe0ab8e8776151514217cd7cacd52c909f66475c3af44e129f0b00ff9190a4505050565b620000a58282620000a9565b5050565b60008281526004602090815260408083206001600160a01b038516845290915290205460ff16620000a55760008281526004602090815260408083206001600160a01b03851684529091529020805460ff19166001179055620001093390565b6001600160a01b0316816001600160a01b0316837f2f8788117e7eff1d82e926ec794901d17c78024a50270940304540a733656f0d60405160405180910390a45050565b611cae806200015d6000396000f3fe60806040526004361061021d5760003560e01c8063704802751161011d5780638b8f4a65116100b0578063a693a3ab1161007f578063afae883e11610064578063afae883e14610808578063b911135f1461081e578063d547741f146108545761026f565b8063a693a3ab146107d2578063aa33fedb146107e85761026f565b80638b8f4a65146107375780638d4fdb401461075757806391d1485414610777578063a217fddf146107bd5761026f565b80637cb00d25116100ec5780637cb00d25146106735780637cd5f6631461069357806382f7a5dd146106b35780638ad4c447146107175761026f565b806370480275146105d057806375829def146105f057806375b238fc1461061057806376ec1cf5146106445761026f565b8063367b7b23116101b05780635c60da1b1161017f5780635d16a6f9116101645780635d16a6f9146104ff57806363a8fd891461057157806363d5a3d91461058b5761026f565b80635c60da1b146104995780635cc797d8146104df5761026f565b8063367b7b23146103c05780634a5df50f146103fb57806350d2a2761461041b578063550d01a3146104695761026f565b806324d7806c116101ec57806324d7806c146103405780632f2ff15d1461036057806336568abe146103805780633659cfe6146103a05761026f565b806301ffc9a7146102795780631785f53c146102ae57806322985246146102ce578063248a9ca3146103105761026f565b3661026f5760405162461bcd60e51b815260206004820152601460248201527f63616e6e6f74207265636569766520457468657200000000000000000000000060448201526064015b60405180910390fd5b610277610874565b005b34801561028557600080fd5b50610299610294366004611899565b61091d565b60405190151581526020015b60405180910390f35b3480156102ba57600080fd5b506102776102c93660046118da565b610954565b3480156102da57600080fd5b506103027ffb5864e8ff833c3cb2d2d08505e82ff02a43554c74a35d4f5a64e8526127831181565b6040519081526020016102a5565b34801561031c57600080fd5b5061030261032b3660046118f5565b60009081526004602052604090206001015490565b34801561034c57600080fd5b5061029961035b3660046118da565b6109cf565b34801561036c57600080fd5b5061027761037b36600461190e565b610a0f565b34801561038c57600080fd5b5061027761039b36600461190e565b610a34565b3480156103ac57600080fd5b506102776103bb3660046118da565b610ac0565b3480156103cc57600080fd5b506103e06103db36600461193a565b610c19565b604080519384526020840192909252908201526060016102a5565b34801561040757600080fd5b5061027761041636600461195c565b610c5b565b34801561042757600080fd5b50610451610436366004611899565b6003602052600090815260409020546001600160a01b031681565b6040516001600160a01b0390911681526020016102a5565b34801561047557600080fd5b506102996104843660046118da565b60026020526000908152604090205460ff1681565b3480156104a557600080fd5b506000805260016020527fa6eef7e35abe7026729641147f7915573c7e97b47efa546f5f6e3230263bcb49546001600160a01b0316610451565b3480156104eb57600080fd5b506102776104fa3660046119f0565b610f08565b34801561050b57600080fd5b5061054f61051a366004611a1a565b600a60209081526000928352604080842090915290825290208054600182015460028301546003909301549192909160ff1684565b60408051948552602085019390935291830152151560608201526080016102a5565b34801561057d57600080fd5b506000546102999060ff1681565b34801561059757600080fd5b5061054f6105a63660046118f5565b600b6020526000908152604090208054600182015460028301546003909301549192909160ff1684565b3480156105dc57600080fd5b506102776105eb3660046118da565b610f60565b3480156105fc57600080fd5b5061027761060b3660046118da565b610fd8565b34801561061c57600080fd5b506103027fdf8b4c520ffe197c5343c6f5aec59570151ef9a492f2c624fd45ddde6135ec4281565b34801561065057600080fd5b5061066461065f3660046118f5565b611128565b6040516102a593929190611a94565b34801561067f57600080fd5b5061027761068e366004611ac9565b6111e0565b34801561069f57600080fd5b506102776106ae366004611ae4565b611241565b3480156106bf57600080fd5b506106fb6106ce366004611a1a565b60076020908152600092835260408084209091529082529020805460019091015463ffffffff9091169082565b6040805163ffffffff90931683526020830191909152016102a5565b34801561072357600080fd5b506103e06107323660046118f5565b61129a565b34801561074357600080fd5b506104516107523660046118f5565b6112cd565b34801561076357600080fd5b50610451610772366004611899565b6112ea565b34801561078357600080fd5b5061029961079236600461190e565b60009182526004602090815260408084206001600160a01b0393909316845291905290205460ff1690565b3480156107c957600080fd5b50610302600081565b3480156107de57600080fd5b5061030260055481565b3480156107f457600080fd5b50610302610803366004611a1a565b6113e6565b34801561081457600080fd5b50610302600d5481565b34801561082a57600080fd5b506104516108393660046118f5565b6001602052600090815260409020546001600160a01b031681565b34801561086057600080fd5b5061027761086f36600461190e565b611417565b600061088b6000356001600160e01b0319166112ea565b90506001600160a01b038116158015906108a8575060005460ff16155b6108f45760405162461bcd60e51b815260206004820152601d60248201527f50726f78793a20696d706c204f522070726f78792069732066616c73650000006044820152606401610266565b3660008037600080366000845af43d6000803e808015610913573d6000f35b3d6000fd5b505050565b60006001600160e01b03198216637965db0b60e01b148061094e57506301ffc9a760e01b6001600160e01b03198316145b92915050565b61095d336109cf565b6109a25760405162461bcd60e51b81526020600482015260226024820152600080516020611c8283398151915260448201526134b760f11b6064820152608401610266565b6109cc7fdf8b4c520ffe197c5343c6f5aec59570151ef9a492f2c624fd45ddde6135ec4282610a34565b50565b6001600160a01b03811660009081527f2fb794d17134dfdec181ddbac1babb5ab1eb140204ef4d982f294e7fc8b69022602052604081205460ff1661094e565b600082815260046020526040902060010154610a2a8161143c565b6109188383611446565b6001600160a01b0381163314610ab25760405162461bcd60e51b815260206004820152602f60248201527f416363657373436f6e74726f6c3a2063616e206f6e6c792072656e6f756e636560448201527f20726f6c657320666f722073656c6600000000000000000000000000000000006064820152608401610266565b610abc82826114e8565b5050565b610ac9336109cf565b610b0e5760405162461bcd60e51b81526020600482015260226024820152600080516020611c8283398151915260448201526134b760f11b6064820152608401610266565b6001600160a01b038116610b645760405162461bcd60e51b815260206004820152600d60248201527f696e707574206973207a65726f000000000000000000000000000000000000006044820152606401610266565b6000805260016020527fa6eef7e35abe7026729641147f7915573c7e97b47efa546f5f6e3230263bcb49546001600160a01b03828116911603610bd55760405162461bcd60e51b815260206004820152600960248201526839b0b6b29030b2323960b91b6044820152606401610266565b610be2816000600161156b565b6040516001600160a01b038216907fbc7cd75a20ee27fd9adebab32041f755214dbc6bffa90cc0225b39da2e5c2d3b90600090a250565b60096020528160005260406000208181548110610c3557600080fd5b600091825260209091206003909102018054600182015460029092015490935090915083565b610c64336109cf565b610ca95760405162461bcd60e51b81526020600482015260226024820152600080516020611c8283398151915260448201526134b760f11b6064820152608401610266565b81610cf65760405162461bcd60e51b815260206004820181905260248201527f50726f78793a205f73656c6563746f727327732073697a65206973207a65726f6044820152606401610266565b6001600160a01b03811660009081526002602052604090205460ff16610d5e5760405162461bcd60e51b815260206004820152601860248201527f50726f78793a205f696d70206973206e6f7420616c69766500000000000000006044820152606401610266565b60005b82811015610f0257816001600160a01b031660036000868685818110610d8957610d89611b17565b9050602002016020810190610d9e9190611899565b6001600160e01b03191681526020810191909152604001600020546001600160a01b031603610e0f5760405162461bcd60e51b815260206004820152601d60248201527f4c69717569646974795661756c7450726f78793a2073616d6520696d700000006044820152606401610266565b8160036000868685818110610e2657610e26611b17565b9050602002016020810190610e3b9190611899565b6001600160e01b03191681526020810191909152604001600020805473ffffffffffffffffffffffffffffffffffffffff19166001600160a01b039283161790558216848483818110610e9057610e90611b17565b9050602002016020810190610ea59190611899565b7bffffffffffffffffffffffffffffffffffffffffffffffffffffffff19167f14ebc1c32aa68f4d766e89f3e546cee249f7df25183fc10ab1568d91c2ce9b7b60405160405180910390a380610efa81611b43565b915050610d61565b50505050565b610f11336109cf565b610f565760405162461bcd60e51b81526020600482015260226024820152600080516020611c8283398151915260448201526134b760f11b6064820152608401610266565b610abc8282611603565b610f69336109cf565b610fae5760405162461bcd60e51b81526020600482015260226024820152600080516020611c8283398151915260448201526134b760f11b6064820152608401610266565b6109cc7fdf8b4c520ffe197c5343c6f5aec59570151ef9a492f2c624fd45ddde6135ec4282610a0f565b610fe1336109cf565b6110265760405162461bcd60e51b81526020600482015260226024820152600080516020611c8283398151915260448201526134b760f11b6064820152608401610266565b6001600160a01b03811661107c5760405162461bcd60e51b815260206004820152601860248201527f41636365737369626c653a207a65726f206164647265737300000000000000006044820152606401610266565b6001600160a01b03811633036110d45760405162461bcd60e51b815260206004820152601660248201527f41636365737369626c653a2073616d652061646d696e000000000000000000006044820152606401610266565b6110fe7fdf8b4c520ffe197c5343c6f5aec59570151ef9a492f2c624fd45ddde6135ec4282610a0f565b6109cc7fdf8b4c520ffe197c5343c6f5aec59570151ef9a492f2c624fd45ddde6135ec4233610a34565b6006602052600090815260409020805460018201546002830180546001600160a01b0393841694929093169261115d90611b5c565b80601f016020809104026020016040519081016040528092919081815260200182805461118990611b5c565b80156111d65780601f106111ab576101008083540402835291602001916111d6565b820191906000526020600020905b8154815290600101906020018083116111b957829003601f168201915b5050505050905083565b6111e9336109cf565b61122e5760405162461bcd60e51b81526020600482015260226024820152600080516020611c8283398151915260448201526134b760f11b6064820152608401610266565b6000805460ff1916911515919091179055565b61124a336109cf565b61128f5760405162461bcd60e51b81526020600482015260226024820152600080516020611c8283398151915260448201526134b760f11b6064820152608401610266565b61091883838361156b565b600881815481106112aa57600080fd5b600091825260209091206003909102018054600182015460029092015490925083565b6000818152600160205260408120546001600160a01b031661094e565b6001600160e01b031981166000908152600360205260408120546001600160a01b031661134a5750506000805260016020527fa6eef7e35abe7026729641147f7915573c7e97b47efa546f5f6e3230263bcb49546001600160a01b031690565b6001600160e01b031982166000908152600360209081526040808320546001600160a01b03168352600290915290205460ff16156113a857506001600160e01b0319166000908152600360205260409020546001600160a01b031690565b50506000805260016020527fa6eef7e35abe7026729641147f7915573c7e97b47efa546f5f6e3230263bcb49546001600160a01b031690565b919050565b600c602052816000526040600020818154811061140257600080fd5b90600052602060002001600091509150505481565b6000828152600460205260409020600101546114328161143c565b61091883836114e8565b6109cc8133611662565b60008281526004602090815260408083206001600160a01b038516845290915290205460ff16610abc5760008281526004602090815260408083206001600160a01b03851684529091529020805460ff191660011790556114a43390565b6001600160a01b0316816001600160a01b0316837f2f8788117e7eff1d82e926ec794901d17c78024a50270940304540a733656f0d60405160405180910390a45050565b60008281526004602090815260408083206001600160a01b038516845290915290205460ff1615610abc5760008281526004602090815260408083206001600160a01b0385168085529252808320805460ff1916905551339285917ff6391f5c32d9c69d2a47ea670b442974b53935d1edc7fd64eb21e047a839171b9190a45050565b6001600160a01b0383163b6115c25760405162461bcd60e51b815260206004820152601b60248201527f50726f78793a206e6f7420636f6e7472616374206164647265737300000000006044820152606401610266565b80156115fd576000828152600160205260409020805473ffffffffffffffffffffffffffffffffffffffff19166001600160a01b0385161790555b61091883825b6001600160a01b038216600081815260026020908152604091829020805460ff191685151590811790915591519182527f72558d9bfba4210f9ef095c782589484151f6d90f7a81bb3cb9b33efc695d324910160405180910390a25050565b60008281526004602090815260408083206001600160a01b038516845290915290205460ff16610abc57611695816116d7565b6116a08360206116e9565b6040516020016116b1929190611b96565b60408051601f198184030181529082905262461bcd60e51b825261026691600401611c17565b606061094e6001600160a01b03831660145b606060006116f8836002611c2a565b611703906002611c41565b67ffffffffffffffff81111561171b5761171b611c54565b6040519080825280601f01601f191660200182016040528015611745576020820181803683370190505b509050600360fc1b8160008151811061176057611760611b17565b60200101906001600160f81b031916908160001a905350600f60fb1b8160018151811061178f5761178f611b17565b60200101906001600160f81b031916908160001a90535060006117b3846002611c2a565b6117be906001611c41565b90505b6001811115611843577f303132333435363738396162636465660000000000000000000000000000000085600f16601081106117ff576117ff611b17565b1a60f81b82828151811061181557611815611b17565b60200101906001600160f81b031916908160001a90535060049490941c9361183c81611c6a565b90506117c1565b5083156118925760405162461bcd60e51b815260206004820181905260248201527f537472696e67733a20686578206c656e67746820696e73756666696369656e746044820152606401610266565b9392505050565b6000602082840312156118ab57600080fd5b81356001600160e01b03198116811461189257600080fd5b80356001600160a01b03811681146113e157600080fd5b6000602082840312156118ec57600080fd5b611892826118c3565b60006020828403121561190757600080fd5b5035919050565b6000806040838503121561192157600080fd5b82359150611931602084016118c3565b90509250929050565b6000806040838503121561194d57600080fd5b50508035926020909101359150565b60008060006040848603121561197157600080fd5b833567ffffffffffffffff8082111561198957600080fd5b818601915086601f83011261199d57600080fd5b8135818111156119ac57600080fd5b8760208260051b85010111156119c157600080fd5b6020928301955093506119d791860190506118c3565b90509250925092565b803580151581146113e157600080fd5b60008060408385031215611a0357600080fd5b611a0c836118c3565b9150611931602084016119e0565b60008060408385031215611a2d57600080fd5b611a36836118c3565b946020939093013593505050565b60005b83811015611a5f578181015183820152602001611a47565b50506000910152565b60008151808452611a80816020860160208601611a44565b601f01601f19169290920160200192915050565b60006001600160a01b03808616835280851660208401525060606040830152611ac06060830184611a68565b95945050505050565b600060208284031215611adb57600080fd5b611892826119e0565b600080600060608486031215611af957600080fd5b611b02846118c3565b9250602084013591506119d7604085016119e0565b634e487b7160e01b600052603260045260246000fd5b634e487b7160e01b600052601160045260246000fd5b600060018201611b5557611b55611b2d565b5060010190565b600181811c90821680611b7057607f821691505b602082108103611b9057634e487b7160e01b600052602260045260246000fd5b50919050565b7f416363657373436f6e74726f6c3a206163636f756e7420000000000000000000815260008351611bce816017850160208801611a44565b7f206973206d697373696e6720726f6c65200000000000000000000000000000006017918401918201528351611c0b816028840160208801611a44565b01602801949350505050565b6020815260006118926020830184611a68565b808202811582820484141761094e5761094e611b2d565b8082018082111561094e5761094e611b2d565b634e487b7160e01b600052604160045260246000fd5b600081611c7957611c79611b2d565b50600019019056fe41636365737369626c653a2043616c6c6572206973206e6f7420616e2061646da164736f6c6343000812000adf8b4c520ffe197c5343c6f5aec59570151ef9a492f2c624fd45ddde6135ec42",
  "linkReferences": {},
  "deployedLinkReferences": {}
}