{
  "_format": "hh-sol-artifact-1",
  "contractName": "L1TotalStosProxy",
  "sourceName": "contracts/L1/L1TotalStosProxy.sol",
  "abi": [
    {
      "anonymous": false,
      "inputs": [
        {
          "indexed": true,
          "internalType": "bytes32",
          "name": "role",
          "type": "bytes32"
        },
        {
          "indexed": true,
          "internalType": "bytes32",
          "name": "previousAdminRole",
          "type": "bytes32"
        },
        {
          "indexed": true,
          "internalType": "bytes32",
          "name": "newAdminRole",
          "type": "bytes32"
        }
      ],
      "name": "RoleAdminChanged",
      "type": "event"
    },
    {
      "anonymous": false,
      "inputs": [
        {
          "indexed": true,
          "internalType": "bytes32",
          "name": "role",
          "type": "bytes32"
        },
        {
          "indexed": true,
          "internalType": "address",
          "name": "account",
          "type": "address"
        },
        {
          "indexed": true,
          "internalType": "address",
          "name": "sender",
          "type": "address"
        }
      ],
      "name": "RoleGranted",
      "type": "event"
    },
    {
      "anonymous": false,
      "inputs": [
        {
          "indexed": true,
          "internalType": "bytes32",
          "name": "role",
          "type": "bytes32"
        },
        {
          "indexed": true,
          "internalType": "address",
          "name": "account",
          "type": "address"
        },
        {
          "indexed": true,
          "internalType": "address",
          "name": "sender",
          "type": "address"
        }
      ],
      "name": "RoleRevoked",
      "type": "event"
    },
    {
      "anonymous": false,
      "inputs": [
        {
          "indexed": true,
          "internalType": "address",
          "name": "impl",
          "type": "address"
        },
        {
          "indexed": false,
          "internalType": "bool",
          "name": "alive",
          "type": "bool"
        }
      ],
      "name": "SetAliveImplementation",
      "type": "event"
    },
    {
      "anonymous": false,
      "inputs": [
        {
          "indexed": true,
          "internalType": "bytes4",
          "name": "selector",
          "type": "bytes4"
        },
        {
          "indexed": true,
          "internalType": "address",
          "name": "impl",
          "type": "address"
        }
      ],
      "name": "SetSelectorImplementation",
      "type": "event"
    },
    {
      "anonymous": false,
      "inputs": [
        {
          "indexed": true,
          "internalType": "address",
          "name": "implementation",
          "type": "address"
        }
      ],
      "name": "Upgraded",
      "type": "event"
    },
    {
      "stateMutability": "payable",
      "type": "fallback"
    },
    {
      "inputs": [],
      "name": "ADMIN_ROLE",
      "outputs": [
        {
          "internalType": "bytes32",
          "name": "",
          "type": "bytes32"
        }
      ],
      "stateMutability": "view",
      "type": "function"
    },
    {
      "inputs": [],
      "name": "DEFAULT_ADMIN_ROLE",
      "outputs": [
        {
          "internalType": "bytes32",
          "name": "",
          "type": "bytes32"
        }
      ],
      "stateMutability": "view",
      "type": "function"
    },
    {
      "inputs": [],
      "name": "POLICY_ROLE",
      "outputs": [
        {
          "internalType": "bytes32",
          "name": "",
          "type": "bytes32"
        }
      ],
      "stateMutability": "view",
      "type": "function"
    },
    {
      "inputs": [
        {
          "internalType": "address",
          "name": "account",
          "type": "address"
        }
      ],
      "name": "addAdmin",
      "outputs": [],
      "stateMutability": "nonpayable",
      "type": "function"
    },
    {
      "inputs": [
        {
          "internalType": "address",
          "name": "",
          "type": "address"
        }
      ],
      "name": "aliveImplementation",
      "outputs": [
        {
          "internalType": "bool",
          "name": "",
          "type": "bool"
        }
      ],
      "stateMutability": "view",
      "type": "function"
    },
    {
      "inputs": [
        {
          "internalType": "uint256",
          "name": "",
          "type": "uint256"
        },
        {
          "internalType": "uint256",
          "name": "",
          "type": "uint256"
        }
      ],
      "name": "allLocks",
      "outputs": [
        {
          "internalType": "uint256",
          "name": "start",
          "type": "uint256"
        },
        {
          "internalType": "uint256",
          "name": "end",
          "type": "uint256"
        },
        {
          "internalType": "uint256",
          "name": "amount",
          "type": "uint256"
        },
        {
          "internalType": "bool",
          "name": "withdrawn",
          "type": "bool"
        }
      ],
      "stateMutability": "view",
      "type": "function"
    },
    {
      "inputs": [
        {
          "internalType": "bytes32",
          "name": "role",
          "type": "bytes32"
        }
      ],
      "name": "getRoleAdmin",
      "outputs": [
        {
          "internalType": "bytes32",
          "name": "",
          "type": "bytes32"
        }
      ],
      "stateMutability": "view",
      "type": "function"
    },
    {
      "inputs": [
        {
          "internalType": "bytes4",
          "name": "_selector",
          "type": "bytes4"
        }
      ],
      "name": "getSelectorImplementation2",
      "outputs": [
        {
          "internalType": "address",
          "name": "impl",
          "type": "address"
        }
      ],
      "stateMutability": "view",
      "type": "function"
    },
    {
      "inputs": [
        {
          "internalType": "bytes32",
          "name": "role",
          "type": "bytes32"
        },
        {
          "internalType": "address",
          "name": "account",
          "type": "address"
        }
      ],
      "name": "grantRole",
      "outputs": [],
      "stateMutability": "nonpayable",
      "type": "function"
    },
    {
      "inputs": [
        {
          "internalType": "bytes32",
          "name": "role",
          "type": "bytes32"
        },
        {
          "internalType": "address",
          "name": "account",
          "type": "address"
        }
      ],
      "name": "hasRole",
      "outputs": [
        {
          "internalType": "bool",
          "name": "",
          "type": "bool"
        }
      ],
      "stateMutability": "view",
      "type": "function"
    },
    {
      "inputs": [],
      "name": "implementation",
      "outputs": [
        {
          "internalType": "address",
          "name": "",
          "type": "address"
        }
      ],
      "stateMutability": "view",
      "type": "function"
    },
    {
      "inputs": [
        {
          "internalType": "uint256",
          "name": "_index",
          "type": "uint256"
        }
      ],
      "name": "implementation2",
      "outputs": [
        {
          "internalType": "address",
          "name": "",
          "type": "address"
        }
      ],
      "stateMutability": "view",
      "type": "function"
    },
    {
      "inputs": [
        {
          "internalType": "address",
          "name": "account",
          "type": "address"
        }
      ],
      "name": "isAdmin",
      "outputs": [
        {
          "internalType": "bool",
          "name": "",
          "type": "bool"
        }
      ],
      "stateMutability": "view",
      "type": "function"
    },
    {
      "inputs": [
        {
          "internalType": "uint256",
          "name": "",
          "type": "uint256"
        }
      ],
      "name": "l2Infos",
      "outputs": [
        {
          "internalType": "address",
          "name": "l1Messanger",
          "type": "address"
        },
        {
          "internalType": "address",
          "name": "l2TotalStos",
          "type": "address"
        },
        {
          "internalType": "string",
          "name": "name",
          "type": "string"
        }
      ],
      "stateMutability": "view",
      "type": "function"
    },
    {
      "inputs": [],
      "name": "l2TotalCount",
      "outputs": [
        {
          "internalType": "uint256",
          "name": "",
          "type": "uint256"
        }
      ],
      "stateMutability": "view",
      "type": "function"
    },
    {
      "inputs": [
        {
          "internalType": "uint256",
          "name": "",
          "type": "uint256"
        }
      ],
      "name": "lockIdCounter",
      "outputs": [
        {
          "internalType": "uint256",
          "name": "",
          "type": "uint256"
        }
      ],
      "stateMutability": "view",
      "type": "function"
    },
    {
      "inputs": [
        {
          "internalType": "uint256",
          "name": "",
          "type": "uint256"
        },
        {
          "internalType": "uint256",
          "name": "",
          "type": "uint256"
        },
        {
          "internalType": "uint256",
          "name": "",
          "type": "uint256"
        }
      ],
      "name": "lockPointHistory",
      "outputs": [
        {
          "internalType": "int256",
          "name": "bias",
          "type": "int256"
        },
        {
          "internalType": "int256",
          "name": "slope",
          "type": "int256"
        },
        {
          "internalType": "uint256",
          "name": "timestamp",
          "type": "uint256"
        }
      ],
      "stateMutability": "view",
      "type": "function"
    },
    {
      "inputs": [],
      "name": "pauseProxy",
      "outputs": [
        {
          "internalType": "bool",
          "name": "",
          "type": "bool"
        }
      ],
      "stateMutability": "view",
      "type": "function"
    },
    {
      "inputs": [
        {
          "internalType": "uint256",
          "name": "",
          "type": "uint256"
        },
        {
          "internalType": "uint256",
          "name": "",
          "type": "uint256"
        }
      ],
      "name": "pointHistory",
      "outputs": [
        {
          "internalType": "int256",
          "name": "bias",
          "type": "int256"
        },
        {
          "internalType": "int256",
          "name": "slope",
          "type": "int256"
        },
        {
          "internalType": "uint256",
          "name": "timestamp",
          "type": "uint256"
        }
      ],
      "stateMutability": "view",
      "type": "function"
    },
    {
      "inputs": [
        {
          "internalType": "uint256",
          "name": "",
          "type": "uint256"
        }
      ],
      "name": "proxyImplementation",
      "outputs": [
        {
          "internalType": "address",
          "name": "",
          "type": "address"
        }
      ],
      "stateMutability": "view",
      "type": "function"
    },
    {
      "inputs": [
        {
          "internalType": "address",
          "name": "account",
          "type": "address"
        }
      ],
      "name": "removeAdmin",
      "outputs": [],
      "stateMutability": "nonpayable",
      "type": "function"
    },
    {
      "inputs": [
        {
          "internalType": "bytes32",
          "name": "role",
          "type": "bytes32"
        },
        {
          "internalType": "address",
          "name": "account",
          "type": "address"
        }
      ],
      "name": "renounceRole",
      "outputs": [],
      "stateMutability": "nonpayable",
      "type": "function"
    },
    {
      "inputs": [
        {
          "internalType": "bytes32",
          "name": "role",
          "type": "bytes32"
        },
        {
          "internalType": "address",
          "name": "account",
          "type": "address"
        }
      ],
      "name": "revokeRole",
      "outputs": [],
      "stateMutability": "nonpayable",
      "type": "function"
    },
    {
      "inputs": [
        {
          "internalType": "bytes4",
          "name": "",
          "type": "bytes4"
        }
      ],
      "name": "selectorImplementation",
      "outputs": [
        {
          "internalType": "address",
          "name": "",
          "type": "address"
        }
      ],
      "stateMutability": "view",
      "type": "function"
    },
    {
      "inputs": [
        {
          "internalType": "address",
          "name": "newImplementation",
          "type": "address"
        },
        {
          "internalType": "bool",
          "name": "_alive",
          "type": "bool"
        }
      ],
      "name": "setAliveImplementation2",
      "outputs": [],
      "stateMutability": "nonpayable",
      "type": "function"
    },
    {
      "inputs": [
        {
          "internalType": "address",
          "name": "newImplementation",
          "type": "address"
        },
        {
          "internalType": "uint256",
          "name": "_index",
          "type": "uint256"
        },
        {
          "internalType": "bool",
          "name": "_alive",
          "type": "bool"
        }
      ],
      "name": "setImplementation2",
      "outputs": [],
      "stateMutability": "nonpayable",
      "type": "function"
    },
    {
      "inputs": [
        {
          "internalType": "bool",
          "name": "_pause",
          "type": "bool"
        }
      ],
      "name": "setProxyPause",
      "outputs": [],
      "stateMutability": "nonpayable",
      "type": "function"
    },
    {
      "inputs": [
        {
          "internalType": "bytes4[]",
          "name": "_selectors",
          "type": "bytes4[]"
        },
        {
          "internalType": "address",
          "name": "_imp",
          "type": "address"
        }
      ],
      "name": "setSelectorImplementations2",
      "outputs": [],
      "stateMutability": "nonpayable",
      "type": "function"
    },
    {
      "inputs": [
        {
          "internalType": "uint256",
          "name": "",
          "type": "uint256"
        },
        {
          "internalType": "uint256",
          "name": "",
          "type": "uint256"
        }
      ],
      "name": "slopeChanges",
      "outputs": [
        {
          "internalType": "int256",
          "name": "",
          "type": "int256"
        }
      ],
      "stateMutability": "view",
      "type": "function"
    },
    {
      "inputs": [
        {
          "internalType": "bytes4",
          "name": "interfaceId",
          "type": "bytes4"
        }
      ],
      "name": "supportsInterface",
      "outputs": [
        {
          "internalType": "bool",
          "name": "",
          "type": "bool"
        }
      ],
      "stateMutability": "view",
      "type": "function"
    },
    {
      "inputs": [
        {
          "internalType": "address",
          "name": "newAdmin",
          "type": "address"
        }
      ],
      "name": "transferAdmin",
      "outputs": [],
      "stateMutability": "nonpayable",
      "type": "function"
    },
    {
      "inputs": [
        {
          "internalType": "address",
          "name": "impl",
          "type": "address"
        }
      ],
      "name": "upgradeTo",
      "outputs": [],
      "stateMutability": "nonpayable",
      "type": "function"
    },
    {
      "inputs": [
        {
          "internalType": "address",
          "name": "",
          "type": "address"
        },
        {
          "internalType": "uint256",
          "name": "",
          "type": "uint256"
        },
        {
          "internalType": "uint256",
          "name": "",
          "type": "uint256"
        }
      ],
      "name": "userLocks",
      "outputs": [
        {
          "internalType": "uint256",
          "name": "",
          "type": "uint256"
        }
      ],
      "stateMutability": "view",
      "type": "function"
    },
    {
      "inputs": [
        {
          "internalType": "address",
          "name": "",
          "type": "address"
        },
        {
          "internalType": "uint256",
          "name": "",
          "type": "uint256"
        }
      ],
      "name": "userStos",
      "outputs": [
        {
          "internalType": "uint32",
          "name": "syncTime",
          "type": "uint32"
        },
        {
          "internalType": "uint256",
          "name": "amount",
          "type": "uint256"
        }
      ],
      "stateMutability": "view",
      "type": "function"
    },
    {
      "stateMutability": "payable",
      "type": "receive"
    }
  ],
  "bytecode": "0x60806040523480156200001157600080fd5b506200002d60008051602062001e9e833981519152806200004e565b6200004860008051602062001e9e8339815191523362000099565b6200014d565b600082815260046020526040808220600101805490849055905190918391839186917fbd79b86ffe0ab8e8776151514217cd7cacd52c909f66475c3af44e129f0b00ff9190a4505050565b620000a58282620000a9565b5050565b60008281526004602090815260408083206001600160a01b038516845290915290205460ff16620000a55760008281526004602090815260408083206001600160a01b03851684529091529020805460ff19166001179055620001093390565b6001600160a01b0316816001600160a01b0316837f2f8788117e7eff1d82e926ec794901d17c78024a50270940304540a733656f0d60405160405180910390a45050565b611d41806200015d6000396000f3fe60806040526004361061021d5760003560e01c806375829def1161011d5780638ff76b8a116100b0578063a693a3ab1161007f578063b911135f11610064578063b911135f146107f0578063c26e98f914610826578063d547741f1461085e5761026f565b8063a693a3ab146107ba578063b1d8fb56146107d05761026f565b80638ff76b8a1461070457806391d1485414610724578063a1ba88eb1461076a578063a217fddf146107a55761026f565b80637cd5f663116100ec5780637cd5f6631461064057806382f7a5dd146106605780638b8f4a65146106c45780638d4fdb40146106e45761026f565b806375829def1461059d57806375b238fc146105bd57806376ec1cf5146105f15780637cb00d25146106205761026f565b80633659cfe6116101b05780635c60da1b1161017f5780635e52ee46116101645780635e52ee461461053657806363a8fd8914610563578063704802751461057d5761026f565b80635c60da1b146104d05780635cc797d8146105165761026f565b80633659cfe6146104125780634a5df50f1461043257806350d2a27614610452578063550d01a3146104a05761026f565b8063248a9ca3116101ec578063248a9ca31461038257806324d7806c146103b25780632f2ff15d146103d257806336568abe146103f25761026f565b806301ffc9a7146102795780631785f53c146102ae57806320f06c8c146102ce57806322985246146103405761026f565b3661026f5760405162461bcd60e51b815260206004820152601460248201527f63616e6e6f74207265636569766520457468657200000000000000000000000060448201526064015b60405180910390fd5b61027761087e565b005b34801561028557600080fd5b506102996102943660046118cd565b610927565b60405190151581526020015b60405180910390f35b3480156102ba57600080fd5b506102776102c936600461190e565b61095e565b3480156102da57600080fd5b5061031e6102e9366004611929565b600b60209081526000928352604080842090915290825290208054600182015460028301546003909301549192909160ff1684565b60408051948552602085019390935291830152151560608201526080016102a5565b34801561034c57600080fd5b506103747ffb5864e8ff833c3cb2d2d08505e82ff02a43554c74a35d4f5a64e8526127831181565b6040519081526020016102a5565b34801561038e57600080fd5b5061037461039d36600461194b565b60009081526004602052604090206001015490565b3480156103be57600080fd5b506102996103cd36600461190e565b6109d9565b3480156103de57600080fd5b506102776103ed366004611964565b610a19565b3480156103fe57600080fd5b5061027761040d366004611964565b610a3e565b34801561041e57600080fd5b5061027761042d36600461190e565b610aca565b34801561043e57600080fd5b5061027761044d366004611990565b610c23565b34801561045e57600080fd5b5061048861046d3660046118cd565b6003602052600090815260409020546001600160a01b031681565b6040516001600160a01b0390911681526020016102a5565b3480156104ac57600080fd5b506102996104bb36600461190e565b60026020526000908152604090205460ff1681565b3480156104dc57600080fd5b506000805260016020527fa6eef7e35abe7026729641147f7915573c7e97b47efa546f5f6e3230263bcb49546001600160a01b0316610488565b34801561052257600080fd5b50610277610531366004611a24565b610ed0565b34801561054257600080fd5b5061037461055136600461194b565b600d6020526000908152604090205481565b34801561056f57600080fd5b506000546102999060ff1681565b34801561058957600080fd5b5061027761059836600461190e565b610f28565b3480156105a957600080fd5b506102776105b836600461190e565b610fa0565b3480156105c957600080fd5b506103747fdf8b4c520ffe197c5343c6f5aec59570151ef9a492f2c624fd45ddde6135ec4281565b3480156105fd57600080fd5b5061061161060c36600461194b565b6110f0565b6040516102a593929190611a9e565b34801561062c57600080fd5b5061027761063b366004611ad3565b6111a8565b34801561064c57600080fd5b5061027761065b366004611aee565b611209565b34801561066c57600080fd5b506106a861067b366004611b21565b60076020908152600092835260408084209091529082529020805460019091015463ffffffff9091169082565b6040805163ffffffff90931683526020830191909152016102a5565b3480156106d057600080fd5b506104886106df36600461194b565b611262565b3480156106f057600080fd5b506104886106ff3660046118cd565b61127f565b34801561071057600080fd5b5061037461071f366004611b4b565b61137b565b34801561073057600080fd5b5061029961073f366004611964565b60009182526004602090815260408084206001600160a01b0393909316845291905290205460ff1690565b34801561077657600080fd5b5061078a610785366004611929565b6113b9565b604080519384526020840192909252908201526060016102a5565b3480156107b157600080fd5b50610374600081565b3480156107c657600080fd5b5061037460055481565b3480156107dc57600080fd5b5061078a6107eb366004611b7e565b6113fb565b3480156107fc57600080fd5b5061048861080b36600461194b565b6001602052600090815260409020546001600160a01b031681565b34801561083257600080fd5b50610374610841366004611929565b600a60209081526000928352604080842090915290825290205481565b34801561086a57600080fd5b50610277610879366004611964565b61144b565b60006108956000356001600160e01b03191661127f565b90506001600160a01b038116158015906108b2575060005460ff16155b6108fe5760405162461bcd60e51b815260206004820152601d60248201527f50726f78793a20696d706c204f522070726f78792069732066616c73650000006044820152606401610266565b3660008037600080366000845af43d6000803e80801561091d573d6000f35b3d6000fd5b505050565b60006001600160e01b03198216637965db0b60e01b148061095857506301ffc9a760e01b6001600160e01b03198316145b92915050565b610967336109d9565b6109ac5760405162461bcd60e51b81526020600482015260226024820152600080516020611d1583398151915260448201526134b760f11b6064820152608401610266565b6109d67fdf8b4c520ffe197c5343c6f5aec59570151ef9a492f2c624fd45ddde6135ec4282610a3e565b50565b6001600160a01b03811660009081527f2fb794d17134dfdec181ddbac1babb5ab1eb140204ef4d982f294e7fc8b69022602052604081205460ff16610958565b600082815260046020526040902060010154610a3481611470565b610922838361147a565b6001600160a01b0381163314610abc5760405162461bcd60e51b815260206004820152602f60248201527f416363657373436f6e74726f6c3a2063616e206f6e6c792072656e6f756e636560448201527f20726f6c657320666f722073656c6600000000000000000000000000000000006064820152608401610266565b610ac6828261151c565b5050565b610ad3336109d9565b610b185760405162461bcd60e51b81526020600482015260226024820152600080516020611d1583398151915260448201526134b760f11b6064820152608401610266565b6001600160a01b038116610b6e5760405162461bcd60e51b815260206004820152600d60248201527f696e707574206973207a65726f000000000000000000000000000000000000006044820152606401610266565b6000805260016020527fa6eef7e35abe7026729641147f7915573c7e97b47efa546f5f6e3230263bcb49546001600160a01b03828116911603610bdf5760405162461bcd60e51b815260206004820152600960248201526839b0b6b29030b2323960b91b6044820152606401610266565b610bec816000600161159f565b6040516001600160a01b038216907fbc7cd75a20ee27fd9adebab32041f755214dbc6bffa90cc0225b39da2e5c2d3b90600090a250565b610c2c336109d9565b610c715760405162461bcd60e51b81526020600482015260226024820152600080516020611d1583398151915260448201526134b760f11b6064820152608401610266565b81610cbe5760405162461bcd60e51b815260206004820181905260248201527f50726f78793a205f73656c6563746f727327732073697a65206973207a65726f6044820152606401610266565b6001600160a01b03811660009081526002602052604090205460ff16610d265760405162461bcd60e51b815260206004820152601860248201527f50726f78793a205f696d70206973206e6f7420616c69766500000000000000006044820152606401610266565b60005b82811015610eca57816001600160a01b031660036000868685818110610d5157610d51611baa565b9050602002016020810190610d6691906118cd565b6001600160e01b03191681526020810191909152604001600020546001600160a01b031603610dd75760405162461bcd60e51b815260206004820152601d60248201527f4c69717569646974795661756c7450726f78793a2073616d6520696d700000006044820152606401610266565b8160036000868685818110610dee57610dee611baa565b9050602002016020810190610e0391906118cd565b6001600160e01b03191681526020810191909152604001600020805473ffffffffffffffffffffffffffffffffffffffff19166001600160a01b039283161790558216848483818110610e5857610e58611baa565b9050602002016020810190610e6d91906118cd565b7bffffffffffffffffffffffffffffffffffffffffffffffffffffffff19167f14ebc1c32aa68f4d766e89f3e546cee249f7df25183fc10ab1568d91c2ce9b7b60405160405180910390a380610ec281611bd6565b915050610d29565b50505050565b610ed9336109d9565b610f1e5760405162461bcd60e51b81526020600482015260226024820152600080516020611d1583398151915260448201526134b760f11b6064820152608401610266565b610ac68282611637565b610f31336109d9565b610f765760405162461bcd60e51b81526020600482015260226024820152600080516020611d1583398151915260448201526134b760f11b6064820152608401610266565b6109d67fdf8b4c520ffe197c5343c6f5aec59570151ef9a492f2c624fd45ddde6135ec4282610a19565b610fa9336109d9565b610fee5760405162461bcd60e51b81526020600482015260226024820152600080516020611d1583398151915260448201526134b760f11b6064820152608401610266565b6001600160a01b0381166110445760405162461bcd60e51b815260206004820152601860248201527f41636365737369626c653a207a65726f206164647265737300000000000000006044820152606401610266565b6001600160a01b038116330361109c5760405162461bcd60e51b815260206004820152601660248201527f41636365737369626c653a2073616d652061646d696e000000000000000000006044820152606401610266565b6110c67fdf8b4c520ffe197c5343c6f5aec59570151ef9a492f2c624fd45ddde6135ec4282610a19565b6109d67fdf8b4c520ffe197c5343c6f5aec59570151ef9a492f2c624fd45ddde6135ec4233610a3e565b6006602052600090815260409020805460018201546002830180546001600160a01b0393841694929093169261112590611bef565b80601f016020809104026020016040519081016040528092919081815260200182805461115190611bef565b801561119e5780601f106111735761010080835404028352916020019161119e565b820191906000526020600020905b81548152906001019060200180831161118157829003601f168201915b5050505050905083565b6111b1336109d9565b6111f65760405162461bcd60e51b81526020600482015260226024820152600080516020611d1583398151915260448201526134b760f11b6064820152608401610266565b6000805460ff1916911515919091179055565b611212336109d9565b6112575760405162461bcd60e51b81526020600482015260226024820152600080516020611d1583398151915260448201526134b760f11b6064820152608401610266565b61092283838361159f565b6000818152600160205260408120546001600160a01b0316610958565b6001600160e01b031981166000908152600360205260408120546001600160a01b03166112df5750506000805260016020527fa6eef7e35abe7026729641147f7915573c7e97b47efa546f5f6e3230263bcb49546001600160a01b031690565b6001600160e01b031982166000908152600360209081526040808320546001600160a01b03168352600290915290205460ff161561133d57506001600160e01b0319166000908152600360205260409020546001600160a01b031690565b50506000805260016020527fa6eef7e35abe7026729641147f7915573c7e97b47efa546f5f6e3230263bcb49546001600160a01b031690565b919050565b600c60205282600052604060002060205281600052604060002081815481106113a357600080fd5b9060005260206000200160009250925050505481565b600860205281600052604060002081815481106113d557600080fd5b600091825260209091206003909102018054600182015460029092015490935090915083565b6009602052826000526040600020602052816000526040600020818154811061142357600080fd5b6000918252602090912060039091020180546001820154600290920154909450909250905083565b60008281526004602052604090206001015461146681611470565b610922838361151c565b6109d68133611696565b60008281526004602090815260408083206001600160a01b038516845290915290205460ff16610ac65760008281526004602090815260408083206001600160a01b03851684529091529020805460ff191660011790556114d83390565b6001600160a01b0316816001600160a01b0316837f2f8788117e7eff1d82e926ec794901d17c78024a50270940304540a733656f0d60405160405180910390a45050565b60008281526004602090815260408083206001600160a01b038516845290915290205460ff1615610ac65760008281526004602090815260408083206001600160a01b0385168085529252808320805460ff1916905551339285917ff6391f5c32d9c69d2a47ea670b442974b53935d1edc7fd64eb21e047a839171b9190a45050565b6001600160a01b0383163b6115f65760405162461bcd60e51b815260206004820152601b60248201527f50726f78793a206e6f7420636f6e7472616374206164647265737300000000006044820152606401610266565b8015611631576000828152600160205260409020805473ffffffffffffffffffffffffffffffffffffffff19166001600160a01b0385161790555b61092283825b6001600160a01b038216600081815260026020908152604091829020805460ff191685151590811790915591519182527f72558d9bfba4210f9ef095c782589484151f6d90f7a81bb3cb9b33efc695d324910160405180910390a25050565b60008281526004602090815260408083206001600160a01b038516845290915290205460ff16610ac6576116c98161170b565b6116d483602061171d565b6040516020016116e5929190611c29565b60408051601f198184030181529082905262461bcd60e51b825261026691600401611caa565b60606109586001600160a01b03831660145b6060600061172c836002611cbd565b611737906002611cd4565b67ffffffffffffffff81111561174f5761174f611ce7565b6040519080825280601f01601f191660200182016040528015611779576020820181803683370190505b509050600360fc1b8160008151811061179457611794611baa565b60200101906001600160f81b031916908160001a905350600f60fb1b816001815181106117c3576117c3611baa565b60200101906001600160f81b031916908160001a90535060006117e7846002611cbd565b6117f2906001611cd4565b90505b6001811115611877577f303132333435363738396162636465660000000000000000000000000000000085600f166010811061183357611833611baa565b1a60f81b82828151811061184957611849611baa565b60200101906001600160f81b031916908160001a90535060049490941c9361187081611cfd565b90506117f5565b5083156118c65760405162461bcd60e51b815260206004820181905260248201527f537472696e67733a20686578206c656e67746820696e73756666696369656e746044820152606401610266565b9392505050565b6000602082840312156118df57600080fd5b81356001600160e01b0319811681146118c657600080fd5b80356001600160a01b038116811461137657600080fd5b60006020828403121561192057600080fd5b6118c6826118f7565b6000806040838503121561193c57600080fd5b50508035926020909101359150565b60006020828403121561195d57600080fd5b5035919050565b6000806040838503121561197757600080fd5b82359150611987602084016118f7565b90509250929050565b6000806000604084860312156119a557600080fd5b833567ffffffffffffffff808211156119bd57600080fd5b818601915086601f8301126119d157600080fd5b8135818111156119e057600080fd5b8760208260051b85010111156119f557600080fd5b602092830195509350611a0b91860190506118f7565b90509250925092565b8035801515811461137657600080fd5b60008060408385031215611a3757600080fd5b611a40836118f7565b915061198760208401611a14565b60005b83811015611a69578181015183820152602001611a51565b50506000910152565b60008151808452611a8a816020860160208601611a4e565b601f01601f19169290920160200192915050565b60006001600160a01b03808616835280851660208401525060606040830152611aca6060830184611a72565b95945050505050565b600060208284031215611ae557600080fd5b6118c682611a14565b600080600060608486031215611b0357600080fd5b611b0c846118f7565b925060208401359150611a0b60408501611a14565b60008060408385031215611b3457600080fd5b611b3d836118f7565b946020939093013593505050565b600080600060608486031215611b6057600080fd5b611b69846118f7565b95602085013595506040909401359392505050565b600080600060608486031215611b9357600080fd5b505081359360208301359350604090920135919050565b634e487b7160e01b600052603260045260246000fd5b634e487b7160e01b600052601160045260246000fd5b600060018201611be857611be8611bc0565b5060010190565b600181811c90821680611c0357607f821691505b602082108103611c2357634e487b7160e01b600052602260045260246000fd5b50919050565b7f416363657373436f6e74726f6c3a206163636f756e7420000000000000000000815260008351611c61816017850160208801611a4e565b7f206973206d697373696e6720726f6c65200000000000000000000000000000006017918401918201528351611c9e816028840160208801611a4e565b01602801949350505050565b6020815260006118c66020830184611a72565b808202811582820484141761095857610958611bc0565b8082018082111561095857610958611bc0565b634e487b7160e01b600052604160045260246000fd5b600081611d0c57611d0c611bc0565b50600019019056fe41636365737369626c653a2043616c6c6572206973206e6f7420616e2061646da164736f6c6343000812000adf8b4c520ffe197c5343c6f5aec59570151ef9a492f2c624fd45ddde6135ec42",
  "linkReferences": {},
  "deployedLinkReferences": {}
}