{
  "_format": "hh-sol-artifact-1",
  "contractName": "L1StosToL2Proxy",
  "sourceName": "contracts/L1/L1StosToL2Proxy.sol",
  "abi": [
    {
      "inputs": [
        {
          "internalType": "address",
          "name": "manager_",
          "type": "address"
        }
      ],
      "stateMutability": "nonpayable",
      "type": "constructor"
    },
    {
      "anonymous": false,
      "inputs": [
        {
          "indexed": true,
          "internalType": "address",
          "name": "previousManager",
          "type": "address"
        },
        {
          "indexed": true,
          "internalType": "address",
          "name": "newManager",
          "type": "address"
        }
      ],
      "name": "ManagershipTransferred",
      "type": "event"
    },
    {
      "anonymous": false,
      "inputs": [
        {
          "indexed": true,
          "internalType": "address",
          "name": "previousOwner",
          "type": "address"
        },
        {
          "indexed": true,
          "internalType": "address",
          "name": "newOwner",
          "type": "address"
        }
      ],
      "name": "OwnershipTransferred",
      "type": "event"
    },
    {
      "anonymous": false,
      "inputs": [
        {
          "indexed": true,
          "internalType": "address",
          "name": "impl",
          "type": "address"
        },
        {
          "indexed": false,
          "internalType": "bool",
          "name": "alive",
          "type": "bool"
        }
      ],
      "name": "SetAliveImplementation",
      "type": "event"
    },
    {
      "anonymous": false,
      "inputs": [
        {
          "indexed": true,
          "internalType": "bytes4",
          "name": "selector",
          "type": "bytes4"
        },
        {
          "indexed": true,
          "internalType": "address",
          "name": "impl",
          "type": "address"
        }
      ],
      "name": "SetSelectorImplementation",
      "type": "event"
    },
    {
      "anonymous": false,
      "inputs": [
        {
          "indexed": true,
          "internalType": "address",
          "name": "implementation",
          "type": "address"
        }
      ],
      "name": "Upgraded",
      "type": "event"
    },
    {
      "stateMutability": "payable",
      "type": "fallback"
    },
    {
      "inputs": [],
      "name": "_manager",
      "outputs": [
        {
          "internalType": "address",
          "name": "",
          "type": "address"
        }
      ],
      "stateMutability": "view",
      "type": "function"
    },
    {
      "inputs": [],
      "name": "_owner",
      "outputs": [
        {
          "internalType": "address",
          "name": "",
          "type": "address"
        }
      ],
      "stateMutability": "view",
      "type": "function"
    },
    {
      "inputs": [],
      "name": "addressManager",
      "outputs": [
        {
          "internalType": "address",
          "name": "",
          "type": "address"
        }
      ],
      "stateMutability": "view",
      "type": "function"
    },
    {
      "inputs": [
        {
          "internalType": "address",
          "name": "",
          "type": "address"
        }
      ],
      "name": "aliveImplementation",
      "outputs": [
        {
          "internalType": "bool",
          "name": "",
          "type": "bool"
        }
      ],
      "stateMutability": "view",
      "type": "function"
    },
    {
      "inputs": [
        {
          "internalType": "bytes4",
          "name": "_selector",
          "type": "bytes4"
        }
      ],
      "name": "getSelectorImplementation2",
      "outputs": [
        {
          "internalType": "address",
          "name": "impl",
          "type": "address"
        }
      ],
      "stateMutability": "view",
      "type": "function"
    },
    {
      "inputs": [],
      "name": "implementation",
      "outputs": [
        {
          "internalType": "address",
          "name": "",
          "type": "address"
        }
      ],
      "stateMutability": "view",
      "type": "function"
    },
    {
      "inputs": [
        {
          "internalType": "uint256",
          "name": "_index",
          "type": "uint256"
        }
      ],
      "name": "implementation2",
      "outputs": [
        {
          "internalType": "address",
          "name": "",
          "type": "address"
        }
      ],
      "stateMutability": "view",
      "type": "function"
    },
    {
      "inputs": [],
      "name": "l2Register",
      "outputs": [
        {
          "internalType": "address",
          "name": "",
          "type": "address"
        }
      ],
      "stateMutability": "view",
      "type": "function"
    },
    {
      "inputs": [],
      "name": "lockTos",
      "outputs": [
        {
          "internalType": "address",
          "name": "",
          "type": "address"
        }
      ],
      "stateMutability": "view",
      "type": "function"
    },
    {
      "inputs": [],
      "name": "maxLockCountPerRegister",
      "outputs": [
        {
          "internalType": "uint256",
          "name": "",
          "type": "uint256"
        }
      ],
      "stateMutability": "view",
      "type": "function"
    },
    {
      "inputs": [],
      "name": "pauseProxy",
      "outputs": [
        {
          "internalType": "bool",
          "name": "",
          "type": "bool"
        }
      ],
      "stateMutability": "view",
      "type": "function"
    },
    {
      "inputs": [
        {
          "internalType": "uint256",
          "name": "",
          "type": "uint256"
        }
      ],
      "name": "proxyImplementation",
      "outputs": [
        {
          "internalType": "address",
          "name": "",
          "type": "address"
        }
      ],
      "stateMutability": "view",
      "type": "function"
    },
    {
      "inputs": [],
      "name": "renounceManagership",
      "outputs": [],
      "stateMutability": "nonpayable",
      "type": "function"
    },
    {
      "inputs": [],
      "name": "renounceOwnership",
      "outputs": [],
      "stateMutability": "nonpayable",
      "type": "function"
    },
    {
      "inputs": [
        {
          "internalType": "bytes4",
          "name": "",
          "type": "bytes4"
        }
      ],
      "name": "selectorImplementation",
      "outputs": [
        {
          "internalType": "address",
          "name": "",
          "type": "address"
        }
      ],
      "stateMutability": "view",
      "type": "function"
    },
    {
      "inputs": [
        {
          "internalType": "address",
          "name": "addressManagerAddress",
          "type": "address"
        }
      ],
      "name": "setAddressManager",
      "outputs": [],
      "stateMutability": "nonpayable",
      "type": "function"
    },
    {
      "inputs": [
        {
          "internalType": "address",
          "name": "newImplementation",
          "type": "address"
        },
        {
          "internalType": "bool",
          "name": "_alive",
          "type": "bool"
        }
      ],
      "name": "setAliveImplementation2",
      "outputs": [],
      "stateMutability": "nonpayable",
      "type": "function"
    },
    {
      "inputs": [
        {
          "internalType": "address",
          "name": "newImplementation",
          "type": "address"
        },
        {
          "internalType": "uint256",
          "name": "_index",
          "type": "uint256"
        },
        {
          "internalType": "bool",
          "name": "_alive",
          "type": "bool"
        }
      ],
      "name": "setImplementation2",
      "outputs": [],
      "stateMutability": "nonpayable",
      "type": "function"
    },
    {
      "inputs": [
        {
          "internalType": "address",
          "name": "l2Register_",
          "type": "address"
        }
      ],
      "name": "setL2Register",
      "outputs": [],
      "stateMutability": "nonpayable",
      "type": "function"
    },
    {
      "inputs": [
        {
          "internalType": "address",
          "name": "lockTosAddress",
          "type": "address"
        }
      ],
      "name": "setLockTos",
      "outputs": [],
      "stateMutability": "nonpayable",
      "type": "function"
    },
    {
      "inputs": [
        {
          "internalType": "uint256",
          "name": "maxLockCountPerRegister_",
          "type": "uint256"
        }
      ],
      "name": "setMaxLockCountPerRegister",
      "outputs": [],
      "stateMutability": "nonpayable",
      "type": "function"
    },
    {
      "inputs": [
        {
          "internalType": "bool",
          "name": "_pause",
          "type": "bool"
        }
      ],
      "name": "setProxyPause",
      "outputs": [],
      "stateMutability": "nonpayable",
      "type": "function"
    },
    {
      "inputs": [
        {
          "internalType": "bytes4[]",
          "name": "_selectors",
          "type": "bytes4[]"
        },
        {
          "internalType": "address",
          "name": "_imp",
          "type": "address"
        }
      ],
      "name": "setSelectorImplementations2",
      "outputs": [],
      "stateMutability": "nonpayable",
      "type": "function"
    },
    {
      "inputs": [
        {
          "internalType": "uint256",
          "name": "",
          "type": "uint256"
        }
      ],
      "name": "syncInfoOfLockId",
      "outputs": [
        {
          "internalType": "int256",
          "name": "slope",
          "type": "int256"
        },
        {
          "internalType": "int256",
          "name": "bias",
          "type": "int256"
        },
        {
          "internalType": "uint32",
          "name": "timestamp",
          "type": "uint32"
        },
        {
          "internalType": "uint32",
          "name": "syncTime",
          "type": "uint32"
        }
      ],
      "stateMutability": "view",
      "type": "function"
    },
    {
      "inputs": [
        {
          "internalType": "address",
          "name": "newManager",
          "type": "address"
        }
      ],
      "name": "transferManagership",
      "outputs": [],
      "stateMutability": "nonpayable",
      "type": "function"
    },
    {
      "inputs": [
        {
          "internalType": "address",
          "name": "newOwner",
          "type": "address"
        }
      ],
      "name": "transferOwnership",
      "outputs": [],
      "stateMutability": "nonpayable",
      "type": "function"
    },
    {
      "inputs": [
        {
          "internalType": "address",
          "name": "impl",
          "type": "address"
        }
      ],
      "name": "upgradeTo",
      "outputs": [],
      "stateMutability": "nonpayable",
      "type": "function"
    },
    {
      "inputs": [
        {
          "internalType": "address",
          "name": "_implementation",
          "type": "address"
        },
        {
          "internalType": "bytes",
          "name": "_data",
          "type": "bytes"
        }
      ],
      "name": "upgradeToAndCall",
      "outputs": [
        {
          "internalType": "bytes",
          "name": "",
          "type": "bytes"
        }
      ],
      "stateMutability": "payable",
      "type": "function"
    },
    {
      "stateMutability": "payable",
      "type": "receive"
    }
  ],
  "bytecode": "0x608060405234801561001057600080fd5b5060405161188a38038061188a83398101604081905261002f91610093565b600080546001600160a01b0319163390811782556040519091907f8be0079c531659141344cd1fd0a4f28419497f9722a3daafe3b4186f6b6457e0908290a3600580546001600160a01b0319166001600160a01b03929092169190911790556100c3565b6000602082840312156100a557600080fd5b81516001600160a01b03811681146100bc57600080fd5b9392505050565b6117b8806100d26000396000f3fe6080604052600436106101bb5760003560e01c80637aa7794a116100ec578063b911135f1161008a578063ccc3990911610064578063ccc3990914610605578063f0329f6b14610625578063f2fde38b14610645578063f9381ee4146106655761020d565b8063b911135f14610535578063bc897ae81461056b578063be60b2141461058b5761020d565b80638b8f4a65116100c65780638b8f4a651461049b5780638d4fdb40146104d1578063b2bdfa7b146104f1578063b8493556146105115761020d565b80637aa7794a1461043b5780637cb00d251461045b5780637cd5f6631461047b5761020d565b806350d2a276116101595780635cc797d8116101335780635cc797d8146103d057806363a8fd89146103f05780636c146d9b14610411578063715018a6146104265761020d565b806350d2a27614610314578063550d01a31461034a5780635c60da1b1461038a5761020d565b80633dfc795b116101955780633dfc795b14610294578063472d1f71146102b45780634a5df50f146102d45780634f1ef286146102f45761020d565b80630652b57a146102175780633659cfe6146102375780633ab76e9f146102575761020d565b3661020d5760405162461bcd60e51b815260206004820152601460248201527f63616e6e6f74207265636569766520457468657200000000000000000000000060448201526064015b60405180910390fd5b610215610685565b005b34801561022357600080fd5b50610215610232366004611513565b610735565b34801561024357600080fd5b50610215610252366004611513565b6107e5565b34801561026357600080fd5b50600654610277906001600160a01b031681565b6040516001600160a01b0390911681526020015b60405180910390f35b3480156102a057600080fd5b506102156102af366004611513565b610936565b3480156102c057600080fd5b50600854610277906001600160a01b031681565b3480156102e057600080fd5b506102156102ef366004611535565b6109e6565b6103076103023660046115b9565b610c7e565b60405161028b919061163c565b34801561032057600080fd5b5061027761032f36600461168a565b6003602052600090815260409020546001600160a01b031681565b34801561035657600080fd5b5061037a610365366004611513565b60026020526000908152604090205460ff1681565b604051901515815260200161028b565b34801561039657600080fd5b506000805260016020527fa6eef7e35abe7026729641147f7915573c7e97b47efa546f5f6e3230263bcb49546001600160a01b0316610277565b3480156103dc57600080fd5b506102156103eb3660046116c4565b610db2565b3480156103fc57600080fd5b5060005461037a90600160a01b900460ff1681565b34801561041d57600080fd5b50610215610e06565b34801561043257600080fd5b50610215610e98565b34801561044757600080fd5b50600754610277906001600160a01b031681565b34801561046757600080fd5b506102156104763660046116f7565b610f28565b34801561048757600080fd5b50610215610496366004611712565b610f9d565b3480156104a757600080fd5b506102776104b6366004611745565b6000908152600160205260409020546001600160a01b031690565b3480156104dd57600080fd5b506102776104ec36600461168a565b610fee565b3480156104fd57600080fd5b50600054610277906001600160a01b031681565b34801561051d57600080fd5b5061052760045481565b60405190815260200161028b565b34801561054157600080fd5b50610277610550366004611745565b6001602052600090815260409020546001600160a01b031681565b34801561057757600080fd5b50610215610586366004611745565b6110ea565b34801561059757600080fd5b506105d96105a6366004611745565b60096020526000908152604090208054600182015460029092015490919063ffffffff8082169164010000000090041684565b60408051948552602085019390935263ffffffff9182169284019290925216606082015260800161028b565b34801561061157600080fd5b50610215610620366004611513565b611171565b34801561063157600080fd5b50600554610277906001600160a01b031681565b34801561065157600080fd5b50610215610660366004611513565b61126b565b34801561067157600080fd5b50610215610680366004611513565b611362565b600061069c6000356001600160e01b031916610fee565b90506001600160a01b038116158015906106c05750600054600160a01b900460ff16155b61070c5760405162461bcd60e51b815260206004820152601d60248201527f50726f78793a20696d706c204f522070726f78792069732066616c73650000006044820152606401610204565b3660008037600080366000845af43d6000803e80801561072b573d6000f35b3d6000fd5b505050565b6005546001600160a01b0316331461077d5760405162461bcd60e51b815260206004820152600b60248201526a3737ba1036b0b730b3b2b960a91b6044820152606401610204565b6006546001600160a01b038083169116036107c35760405162461bcd60e51b81526004016102049060208082526004908201526373616d6560e01b604082015260600190565b600680546001600160a01b0319166001600160a01b0392909216919091179055565b6000546001600160a01b0316331461082b5760405162461bcd60e51b81526020600482015260096024820152683737ba1037bbb732b960b91b6044820152606401610204565b6001600160a01b0381166108815760405162461bcd60e51b815260206004820152600d60248201527f696e707574206973207a65726f000000000000000000000000000000000000006044820152606401610204565b6000805260016020527fa6eef7e35abe7026729641147f7915573c7e97b47efa546f5f6e3230263bcb49546001600160a01b038281169116036108f25760405162461bcd60e51b815260206004820152600960248201526839b0b6b29030b2323960b91b6044820152606401610204565b6108ff8160006001611412565b6040516001600160a01b038216907fbc7cd75a20ee27fd9adebab32041f755214dbc6bffa90cc0225b39da2e5c2d3b90600090a250565b6005546001600160a01b0316331461097e5760405162461bcd60e51b815260206004820152600b60248201526a3737ba1036b0b730b3b2b960a91b6044820152606401610204565b6008546001600160a01b038083169116036109c45760405162461bcd60e51b81526004016102049060208082526004908201526373616d6560e01b604082015260600190565b600880546001600160a01b0319166001600160a01b0392909216919091179055565b6000546001600160a01b03163314610a2c5760405162461bcd60e51b81526020600482015260096024820152683737ba1037bbb732b960b91b6044820152606401610204565b81610a795760405162461bcd60e51b815260206004820181905260248201527f50726f78793a205f73656c6563746f727327732073697a65206973207a65726f6044820152606401610204565b6001600160a01b03811660009081526002602052604090205460ff16610ae15760405162461bcd60e51b815260206004820152601860248201527f50726f78793a205f696d70206973206e6f7420616c69766500000000000000006044820152606401610204565b60005b82811015610c7857816001600160a01b031660036000868685818110610b0c57610b0c61175e565b9050602002016020810190610b21919061168a565b6001600160e01b03191681526020810191909152604001600020546001600160a01b031603610b925760405162461bcd60e51b815260206004820152601d60248201527f4c69717569646974795661756c7450726f78793a2073616d6520696d700000006044820152606401610204565b8160036000868685818110610ba957610ba961175e565b9050602002016020810190610bbe919061168a565b6001600160e01b0319168152602081019190915260400160002080546001600160a01b0319166001600160a01b039283161790558216848483818110610c0657610c0661175e565b9050602002016020810190610c1b919061168a565b7bffffffffffffffffffffffffffffffffffffffffffffffffffffffff19167f14ebc1c32aa68f4d766e89f3e546cee249f7df25183fc10ab1568d91c2ce9b7b60405160405180910390a380610c7081611774565b915050610ae4565b50505050565b6000546060906001600160a01b03163314610cc75760405162461bcd60e51b81526020600482015260096024820152683737ba1037bbb732b960b91b6044820152606401610204565b610cd48460006001611412565b600080856001600160a01b03168585604051610cf192919061179b565b600060405180830381855af49150503d8060008114610d2c576040519150601f19603f3d011682016040523d82523d6000602084013e610d31565b606091505b509150915081610da95760405162461bcd60e51b815260206004820152603960248201527f50726f78793a2064656c656761746563616c6c20746f206e657720696d706c6560448201527f6d656e746174696f6e20636f6e7472616374206661696c6564000000000000006064820152608401610204565b95945050505050565b6000546001600160a01b03163314610df85760405162461bcd60e51b81526020600482015260096024820152683737ba1037bbb732b960b91b6044820152606401610204565b610e02828261149d565b5050565b6005546001600160a01b03163314610e4e5760405162461bcd60e51b815260206004820152600b60248201526a3737ba1036b0b730b3b2b960a91b6044820152606401610204565b6005546040516000916001600160a01b0316907f697e4e68d3879b0dd3414a88905117bac8f0a54b0cd8e7779f909bf1a1cf5683908390a3600580546001600160a01b0319169055565b6000546001600160a01b03163314610ede5760405162461bcd60e51b81526020600482015260096024820152683737ba1037bbb732b960b91b6044820152606401610204565b600080546040516001600160a01b03909116907f8be0079c531659141344cd1fd0a4f28419497f9722a3daafe3b4186f6b6457e0908390a3600080546001600160a01b0319169055565b6000546001600160a01b03163314610f6e5760405162461bcd60e51b81526020600482015260096024820152683737ba1037bbb732b960b91b6044820152606401610204565b60008054911515600160a01b0274ff000000000000000000000000000000000000000019909216919091179055565b6000546001600160a01b03163314610fe35760405162461bcd60e51b81526020600482015260096024820152683737ba1037bbb732b960b91b6044820152606401610204565b610730838383611412565b6001600160e01b031981166000908152600360205260408120546001600160a01b031661104e5750506000805260016020527fa6eef7e35abe7026729641147f7915573c7e97b47efa546f5f6e3230263bcb49546001600160a01b031690565b6001600160e01b031982166000908152600360209081526040808320546001600160a01b03168352600290915290205460ff16156110ac57506001600160e01b0319166000908152600360205260409020546001600160a01b031690565b50506000805260016020527fa6eef7e35abe7026729641147f7915573c7e97b47efa546f5f6e3230263bcb49546001600160a01b031690565b919050565b6005546001600160a01b031633146111325760405162461bcd60e51b815260206004820152600b60248201526a3737ba1036b0b730b3b2b960a91b6044820152606401610204565b806004540361116c5760405162461bcd60e51b81526004016102049060208082526004908201526373616d6560e01b604082015260600190565b600455565b6005546001600160a01b031633146111b95760405162461bcd60e51b815260206004820152600b60248201526a3737ba1036b0b730b3b2b960a91b6044820152606401610204565b6001600160a01b03811661120f5760405162461bcd60e51b815260206004820152601f60248201527f6e6577206d616e6167657220697320746865207a65726f2061646472657373006044820152606401610204565b6005546040516001600160a01b038084169216907f697e4e68d3879b0dd3414a88905117bac8f0a54b0cd8e7779f909bf1a1cf568390600090a3600580546001600160a01b0319166001600160a01b0392909216919091179055565b6000546001600160a01b031633146112b15760405162461bcd60e51b81526020600482015260096024820152683737ba1037bbb732b960b91b6044820152606401610204565b6001600160a01b0381166113075760405162461bcd60e51b815260206004820152601d60248201527f6e6577206f776e657220697320746865207a65726f20616464726573730000006044820152606401610204565b600080546040516001600160a01b03808516939216917f8be0079c531659141344cd1fd0a4f28419497f9722a3daafe3b4186f6b6457e091a3600080546001600160a01b0319166001600160a01b0392909216919091179055565b6005546001600160a01b031633146113aa5760405162461bcd60e51b815260206004820152600b60248201526a3737ba1036b0b730b3b2b960a91b6044820152606401610204565b6007546001600160a01b038083169116036113f05760405162461bcd60e51b81526004016102049060208082526004908201526373616d6560e01b604082015260600190565b600780546001600160a01b0319166001600160a01b0392909216919091179055565b6001600160a01b0383163b6114695760405162461bcd60e51b815260206004820152601b60248201527f50726f78793a206e6f7420636f6e7472616374206164647265737300000000006044820152606401610204565b801561149757600082815260016020526040902080546001600160a01b0319166001600160a01b0385161790555b61073083825b6001600160a01b038216600081815260026020908152604091829020805460ff191685151590811790915591519182527f72558d9bfba4210f9ef095c782589484151f6d90f7a81bb3cb9b33efc695d324910160405180910390a25050565b80356001600160a01b03811681146110e557600080fd5b60006020828403121561152557600080fd5b61152e826114fc565b9392505050565b60008060006040848603121561154a57600080fd5b833567ffffffffffffffff8082111561156257600080fd5b818601915086601f83011261157657600080fd5b81358181111561158557600080fd5b8760208260051b850101111561159a57600080fd5b6020928301955093506115b091860190506114fc565b90509250925092565b6000806000604084860312156115ce57600080fd5b6115d7846114fc565b9250602084013567ffffffffffffffff808211156115f457600080fd5b818601915086601f83011261160857600080fd5b81358181111561161757600080fd5b87602082850101111561162957600080fd5b6020830194508093505050509250925092565b600060208083528351808285015260005b818110156116695785810183015185820160400152820161164d565b506000604082860101526040601f19601f8301168501019250505092915050565b60006020828403121561169c57600080fd5b81356001600160e01b03198116811461152e57600080fd5b803580151581146110e557600080fd5b600080604083850312156116d757600080fd5b6116e0836114fc565b91506116ee602084016116b4565b90509250929050565b60006020828403121561170957600080fd5b61152e826116b4565b60008060006060848603121561172757600080fd5b611730846114fc565b9250602084013591506115b0604085016116b4565b60006020828403121561175757600080fd5b5035919050565b634e487b7160e01b600052603260045260246000fd5b60006001820161179457634e487b7160e01b600052601160045260246000fd5b5060010190565b818382376000910190815291905056fea164736f6c6343000812000a",
  "linkReferences": {},
  "deployedLinkReferences": {}
}