{
  "_format": "hh-sol-artifact-1",
  "contractName": "L1ProjectManagerStorage",
  "sourceName": "contracts/L1/L1ProjectManagerStorage.sol",
  "abi": [
    {
      "inputs": [
        {
          "internalType": "uint8",
          "name": "",
          "type": "uint8"
        }
      ],
      "name": "l1TokenFactory",
      "outputs": [
        {
          "internalType": "address",
          "name": "",
          "type": "address"
        }
      ],
      "stateMutability": "view",
      "type": "function"
    },
    {
      "inputs": [
        {
          "internalType": "uint8",
          "name": "",
          "type": "uint8"
        }
      ],
      "name": "l2Info",
      "outputs": [
        {
          "internalType": "address",
          "name": "l2TokenFactory",
          "type": "address"
        },
        {
          "internalType": "address",
          "name": "l2ProjectManager",
          "type": "address"
        },
        {
          "internalType": "uint32",
          "name": "depositMinGasLimit",
          "type": "uint32"
        },
        {
          "internalType": "uint32",
          "name": "sendMsgMinGasLimit",
          "type": "uint32"
        }
      ],
      "stateMutability": "view",
      "type": "function"
    },
    {
      "inputs": [],
      "name": "projectCount",
      "outputs": [
        {
          "internalType": "uint256",
          "name": "",
          "type": "uint256"
        }
      ],
      "stateMutability": "view",
      "type": "function"
    },
    {
      "inputs": [
        {
          "internalType": "address",
          "name": "",
          "type": "address"
        }
      ],
      "name": "projectTokens",
      "outputs": [
        {
          "internalType": "uint256",
          "name": "",
          "type": "uint256"
        }
      ],
      "stateMutability": "view",
      "type": "function"
    },
    {
      "inputs": [
        {
          "internalType": "uint256",
          "name": "",
          "type": "uint256"
        }
      ],
      "name": "projects",
      "outputs": [
        {
          "internalType": "address",
          "name": "projectOwner",
          "type": "address"
        },
        {
          "internalType": "address",
          "name": "tokenOwner",
          "type": "address"
        },
        {
          "internalType": "address",
          "name": "l1Token",
          "type": "address"
        },
        {
          "internalType": "address",
          "name": "l2Token",
          "type": "address"
        },
        {
          "internalType": "address",
          "name": "addressManager",
          "type": "address"
        },
        {
          "internalType": "uint256",
          "name": "initialTotalSupply",
          "type": "uint256"
        },
        {
          "internalType": "uint8",
          "name": "tokenType",
          "type": "uint8"
        },
        {
          "internalType": "uint8",
          "name": "l2Type",
          "type": "uint8"
        },
        {
          "internalType": "string",
          "name": "projectName",
          "type": "string"
        }
      ],
      "stateMutability": "view",
      "type": "function"
    },
    {
      "inputs": [
        {
          "internalType": "uint8",
          "name": "",
          "type": "uint8"
        }
      ],
      "name": "publicInfo",
      "outputs": [
        {
          "internalType": "uint8",
          "name": "minPercents",
          "type": "uint8"
        },
        {
          "internalType": "uint8",
          "name": "maxPercents",
          "type": "uint8"
        },
        {
          "internalType": "uint256",
          "name": "delayTime",
          "type": "uint256"
        }
      ],
      "stateMutability": "view",
      "type": "function"
    }
  ],
  "bytecode": "0x60806040526000805460ff1916600117905534801561001d57600080fd5b506104588061002d6000396000f3fe608060405234801561001057600080fd5b50600436106100725760003560e01c8063902293ab11610050578063902293ab146101135780639cba9848146101a8578063b4a35e0f146101c857600080fd5b8063107046bd1461007757806324d3e647146100a857806336fbad26146100fc575b600080fd5b61008a6100853660046102fa565b610209565b60405161009f99989796959493929190610313565b60405180910390f35b6100dc6100b63660046103be565b6006602052600090815260409020805460019091015460ff808316926101009004169083565b6040805160ff94851681529390921660208401529082015260600161009f565b61010560015481565b60405190815260200161009f565b6101716101213660046103be565b600560205260009081526040902080546001909101546001600160a01b039182169181169063ffffffff740100000000000000000000000000000000000000008204811691600160c01b90041684565b604080516001600160a01b03958616815294909316602085015263ffffffff9182169284019290925216606082015260800161009f565b6101056101b63660046103e8565b60046020526000908152604090205481565b6101f16101d63660046103be565b6002602052600090815260409020546001600160a01b031681565b6040516001600160a01b03909116815260200161009f565b6003602081905260009182526040909120805460018201546002830154938301546004840154600585015460068601546007870180546001600160a01b03978816999688169896881697958616969590941694929360ff808416946101009094041692919061027790610411565b80601f01602080910402602001604051908101604052809291908181526020018280546102a390610411565b80156102f05780601f106102c5576101008083540402835291602001916102f0565b820191906000526020600020905b8154815290600101906020018083116102d357829003601f168201915b5050505050905089565b60006020828403121561030c57600080fd5b5035919050565b60006101206001600160a01b03808d1684526020818d1681860152818c166040860152818b166060860152818a1660808601528860a086015260ff881660c086015260ff871660e086015282610100860152855191508183860152600092505b8183101561039257858301810151858401610140015291820191610373565b506101409150600082828601015281601f19601f830116850101925050509a9950505050505050505050565b6000602082840312156103d057600080fd5b813560ff811681146103e157600080fd5b9392505050565b6000602082840312156103fa57600080fd5b81356001600160a01b03811681146103e157600080fd5b600181811c9082168061042557607f821691505b60208210810361044557634e487b7160e01b600052602260045260246000fd5b5091905056fea164736f6c6343000812000a",
  "linkReferences": {},
  "deployedLinkReferences": {}
}