{
  "_format": "hh-sol-artifact-1",
  "contractName": "L1ProjectManagerStorage",
  "sourceName": "contracts/L1/L1ProjectManagerStorage.sol",
  "abi": [
    {
      "inputs": [
        {
          "internalType": "uint8",
          "name": "",
          "type": "uint8"
        }
      ],
      "name": "l1TokenFactory",
      "outputs": [
        {
          "internalType": "address",
          "name": "",
          "type": "address"
        }
      ],
      "stateMutability": "view",
      "type": "function"
    },
    {
      "inputs": [
        {
          "internalType": "uint8",
          "name": "",
          "type": "uint8"
        }
      ],
      "name": "l2Info",
      "outputs": [
        {
          "internalType": "address",
          "name": "l2TokenFactory",
          "type": "address"
        },
        {
          "internalType": "address",
          "name": "l2ProjectManager",
          "type": "address"
        },
        {
          "internalType": "uint32",
          "name": "depositMinGasLimit",
          "type": "uint32"
        },
        {
          "internalType": "uint32",
          "name": "sendMsgMinGasLimit",
          "type": "uint32"
        }
      ],
      "stateMutability": "view",
      "type": "function"
    },
    {
      "inputs": [],
      "name": "projectCount",
      "outputs": [
        {
          "internalType": "uint256",
          "name": "",
          "type": "uint256"
        }
      ],
      "stateMutability": "view",
      "type": "function"
    },
    {
      "inputs": [
        {
          "internalType": "address",
          "name": "",
          "type": "address"
        }
      ],
      "name": "projectTokens",
      "outputs": [
        {
          "internalType": "uint256",
          "name": "",
          "type": "uint256"
        }
      ],
      "stateMutability": "view",
      "type": "function"
    },
    {
      "inputs": [
        {
          "internalType": "uint256",
          "name": "",
          "type": "uint256"
        }
      ],
      "name": "projects",
      "outputs": [
        {
          "internalType": "address",
          "name": "projectOwner",
          "type": "address"
        },
        {
          "internalType": "address",
          "name": "tokenOwner",
          "type": "address"
        },
        {
          "internalType": "address",
          "name": "l1Token",
          "type": "address"
        },
        {
          "internalType": "address",
          "name": "l2Token",
          "type": "address"
        },
        {
          "internalType": "address",
          "name": "addressManager",
          "type": "address"
        },
        {
          "internalType": "uint256",
          "name": "initialTotalSupply",
          "type": "uint256"
        },
        {
          "internalType": "uint8",
          "name": "tokenType",
          "type": "uint8"
        },
        {
          "internalType": "uint8",
          "name": "l2Type",
          "type": "uint8"
        },
        {
          "internalType": "string",
          "name": "projectName",
          "type": "string"
        }
      ],
      "stateMutability": "view",
      "type": "function"
    }
  ],
  "bytecode": "0x60806040526000805460ff1916600117905534801561001d57600080fd5b506103f98061002d6000396000f3fe608060405234801561001057600080fd5b50600436106100675760003560e01c8063902293ab11610050578063902293ab146100b45780639cba984814610149578063b4a35e0f1461016957600080fd5b8063107046bd1461006c57806336fbad261461009d575b600080fd5b61007f61007a36600461029b565b6101aa565b604051610094999897969594939291906102b4565b60405180910390f35b6100a660015481565b604051908152602001610094565b6101126100c236600461035f565b600560205260009081526040902080546001909101546001600160a01b039182169181169063ffffffff740100000000000000000000000000000000000000008204811691600160c01b90041684565b604080516001600160a01b03958616815294909316602085015263ffffffff91821692840192909252166060820152608001610094565b6100a6610157366004610389565b60046020526000908152604090205481565b61019261017736600461035f565b6002602052600090815260409020546001600160a01b031681565b6040516001600160a01b039091168152602001610094565b6003602081905260009182526040909120805460018201546002830154938301546004840154600585015460068601546007870180546001600160a01b03978816999688169896881697958616969590941694929360ff8084169461010090940416929190610218906103b2565b80601f0160208091040260200160405190810160405280929190818152602001828054610244906103b2565b80156102915780601f1061026657610100808354040283529160200191610291565b820191906000526020600020905b81548152906001019060200180831161027457829003601f168201915b5050505050905089565b6000602082840312156102ad57600080fd5b5035919050565b60006101206001600160a01b03808d1684526020818d1681860152818c166040860152818b166060860152818a1660808601528860a086015260ff881660c086015260ff871660e086015282610100860152855191508183860152600092505b8183101561033357858301810151858401610140015291820191610314565b506101409150600082828601015281601f19601f830116850101925050509a9950505050505050505050565b60006020828403121561037157600080fd5b813560ff8116811461038257600080fd5b9392505050565b60006020828403121561039b57600080fd5b81356001600160a01b038116811461038257600080fd5b600181811c908216806103c657607f821691505b6020821081036103e657634e487b7160e01b600052602260045260246000fd5b5091905056fea164736f6c6343000812000a",
  "linkReferences": {},
  "deployedLinkReferences": {}
}