{
  "_format": "hh-sol-artifact-1",
  "contractName": "L1ProjectManagerStorage",
  "sourceName": "contracts/L1/L1ProjectManagerStorage.sol",
  "abi": [
    {
      "inputs": [
        {
          "internalType": "uint8",
          "name": "",
          "type": "uint8"
        }
      ],
      "name": "l1TokenFactory",
      "outputs": [
        {
          "internalType": "address",
          "name": "",
          "type": "address"
        }
      ],
      "stateMutability": "view",
      "type": "function"
    },
    {
      "inputs": [
        {
          "internalType": "uint8",
          "name": "",
          "type": "uint8"
        }
      ],
      "name": "l2ProjectManager",
      "outputs": [
        {
          "internalType": "address",
          "name": "",
          "type": "address"
        }
      ],
      "stateMutability": "view",
      "type": "function"
    },
    {
      "inputs": [
        {
          "internalType": "uint8",
          "name": "",
          "type": "uint8"
        }
      ],
      "name": "l2TokenFactory",
      "outputs": [
        {
          "internalType": "address",
          "name": "",
          "type": "address"
        }
      ],
      "stateMutability": "view",
      "type": "function"
    },
    {
      "inputs": [],
      "name": "projectCount",
      "outputs": [
        {
          "internalType": "uint256",
          "name": "",
          "type": "uint256"
        }
      ],
      "stateMutability": "view",
      "type": "function"
    },
    {
      "inputs": [
        {
          "internalType": "address",
          "name": "",
          "type": "address"
        }
      ],
      "name": "projectTokens",
      "outputs": [
        {
          "internalType": "uint256",
          "name": "",
          "type": "uint256"
        }
      ],
      "stateMutability": "view",
      "type": "function"
    },
    {
      "inputs": [
        {
          "internalType": "uint256",
          "name": "",
          "type": "uint256"
        }
      ],
      "name": "projects",
      "outputs": [
        {
          "internalType": "address",
          "name": "projectOwner",
          "type": "address"
        },
        {
          "internalType": "address",
          "name": "tokenOwner",
          "type": "address"
        },
        {
          "internalType": "address",
          "name": "l1Token",
          "type": "address"
        },
        {
          "internalType": "address",
          "name": "l2Token",
          "type": "address"
        },
        {
          "internalType": "address",
          "name": "addressManager",
          "type": "address"
        },
        {
          "internalType": "uint256",
          "name": "initialTotalSupply",
          "type": "uint256"
        },
        {
          "internalType": "uint8",
          "name": "tokenType",
          "type": "uint8"
        },
        {
          "internalType": "uint8",
          "name": "l2Type",
          "type": "uint8"
        },
        {
          "internalType": "string",
          "name": "projectName",
          "type": "string"
        }
      ],
      "stateMutability": "view",
      "type": "function"
    }
  ],
  "bytecode": "0x60806040526000805460ff1916600117905534801561001d57600080fd5b506103c08061002d6000396000f3fe608060405234801561001057600080fd5b50600436106100725760003560e01c80639cba9848116100505780639cba984814610100578063b4a35e0f14610120578063ea705fe11461014957600080fd5b8063107046bd1461007757806336fbad26146100a857806360a56387146100bf575b600080fd5b61008a610085366004610262565b610172565b60405161009f9998979695949392919061027b565b60405180910390f35b6100b160015481565b60405190815260200161009f565b6100e86100cd366004610326565b6005602052600090815260409020546001600160a01b031681565b6040516001600160a01b03909116815260200161009f565b6100b161010e366004610350565b60036020526000908152604090205481565b6100e861012e366004610326565b6006602052600090815260409020546001600160a01b031681565b6100e8610157366004610326565b6004602052600090815260409020546001600160a01b031681565b6002602081905260009182526040909120805460018201549282015460038301546004840154600585015460068601546007870180546001600160a01b039788169988169896881697958616969590941694929360ff80841694610100909404169291906101df90610379565b80601f016020809104026020016040519081016040528092919081815260200182805461020b90610379565b80156102585780601f1061022d57610100808354040283529160200191610258565b820191906000526020600020905b81548152906001019060200180831161023b57829003601f168201915b5050505050905089565b60006020828403121561027457600080fd5b5035919050565b60006101206001600160a01b03808d1684526020818d1681860152818c166040860152818b166060860152818a1660808601528860a086015260ff881660c086015260ff871660e086015282610100860152855191508183860152600092505b818310156102fa578583018101518584016101400152918201916102db565b506101409150600082828601015281601f19601f830116850101925050509a9950505050505050505050565b60006020828403121561033857600080fd5b813560ff8116811461034957600080fd5b9392505050565b60006020828403121561036257600080fd5b81356001600160a01b038116811461034957600080fd5b600181811c9082168061038d57607f821691505b6020821081036103ad57634e487b7160e01b600052602260045260246000fd5b5091905056fea164736f6c6343000812000a",
  "linkReferences": {},
  "deployedLinkReferences": {}
}