{
  "_format": "hh-sol-artifact-1",
  "contractName": "L1ProjectManager",
  "sourceName": "contracts/L1/L1ProjectManager.sol",
  "abi": [
    {
      "inputs": [],
      "stateMutability": "nonpayable",
      "type": "constructor"
    },
    {
      "anonymous": false,
      "inputs": [
        {
          "indexed": false,
          "internalType": "address",
          "name": "l1Token",
          "type": "address"
        },
        {
          "indexed": false,
          "internalType": "uint256",
          "name": "projectId",
          "type": "uint256"
        },
        {
          "indexed": false,
          "internalType": "address",
          "name": "tokenOwner",
          "type": "address"
        },
        {
          "indexed": false,
          "internalType": "address",
          "name": "projectOwner",
          "type": "address"
        },
        {
          "indexed": false,
          "internalType": "address",
          "name": "addressManager",
          "type": "address"
        },
        {
          "indexed": false,
          "internalType": "uint256",
          "name": "initialTotalSupply",
          "type": "uint256"
        },
        {
          "indexed": false,
          "internalType": "string",
          "name": "projectName",
          "type": "string"
        },
        {
          "indexed": false,
          "internalType": "string",
          "name": "tokenName",
          "type": "string"
        },
        {
          "indexed": false,
          "internalType": "string",
          "name": "tokenSymbol",
          "type": "string"
        }
      ],
      "name": "CreatedProject",
      "type": "event"
    },
    {
      "anonymous": false,
      "inputs": [
        {
          "indexed": false,
          "internalType": "uint256",
          "name": "projectId",
          "type": "uint256"
        },
        {
          "indexed": false,
          "internalType": "address",
          "name": "l1Token",
          "type": "address"
        },
        {
          "indexed": false,
          "internalType": "address",
          "name": "l2Token",
          "type": "address"
        },
        {
          "indexed": false,
          "internalType": "uint256",
          "name": "totalAmount",
          "type": "uint256"
        }
      ],
      "name": "LaunchedProject",
      "type": "event"
    },
    {
      "anonymous": false,
      "inputs": [
        {
          "indexed": true,
          "internalType": "bytes32",
          "name": "role",
          "type": "bytes32"
        },
        {
          "indexed": true,
          "internalType": "bytes32",
          "name": "previousAdminRole",
          "type": "bytes32"
        },
        {
          "indexed": true,
          "internalType": "bytes32",
          "name": "newAdminRole",
          "type": "bytes32"
        }
      ],
      "name": "RoleAdminChanged",
      "type": "event"
    },
    {
      "anonymous": false,
      "inputs": [
        {
          "indexed": true,
          "internalType": "bytes32",
          "name": "role",
          "type": "bytes32"
        },
        {
          "indexed": true,
          "internalType": "address",
          "name": "account",
          "type": "address"
        },
        {
          "indexed": true,
          "internalType": "address",
          "name": "sender",
          "type": "address"
        }
      ],
      "name": "RoleGranted",
      "type": "event"
    },
    {
      "anonymous": false,
      "inputs": [
        {
          "indexed": true,
          "internalType": "bytes32",
          "name": "role",
          "type": "bytes32"
        },
        {
          "indexed": true,
          "internalType": "address",
          "name": "account",
          "type": "address"
        },
        {
          "indexed": true,
          "internalType": "address",
          "name": "sender",
          "type": "address"
        }
      ],
      "name": "RoleRevoked",
      "type": "event"
    },
    {
      "anonymous": false,
      "inputs": [
        {
          "indexed": false,
          "internalType": "uint8",
          "name": "l2Type",
          "type": "uint8"
        },
        {
          "indexed": false,
          "internalType": "address",
          "name": "l2TokenFactory",
          "type": "address"
        },
        {
          "indexed": false,
          "internalType": "address",
          "name": "l2ProjectManager",
          "type": "address"
        },
        {
          "indexed": false,
          "internalType": "uint32",
          "name": "depositMinGasLimit",
          "type": "uint32"
        },
        {
          "indexed": false,
          "internalType": "uint32",
          "name": "sendMsgMinGasLimit",
          "type": "uint32"
        }
      ],
      "name": "SetL2Infos",
      "type": "event"
    },
    {
      "anonymous": false,
      "inputs": [
        {
          "indexed": false,
          "internalType": "uint256",
          "name": "projectId",
          "type": "uint256"
        },
        {
          "indexed": false,
          "internalType": "uint8",
          "name": "l2Type",
          "type": "uint8"
        },
        {
          "indexed": false,
          "internalType": "address",
          "name": "addressManager",
          "type": "address"
        },
        {
          "indexed": false,
          "internalType": "address",
          "name": "l2Token",
          "type": "address"
        }
      ],
      "name": "SetL2Token",
      "type": "event"
    },
    {
      "inputs": [],
      "name": "ADMIN_ROLE",
      "outputs": [
        {
          "internalType": "bytes32",
          "name": "",
          "type": "bytes32"
        }
      ],
      "stateMutability": "view",
      "type": "function"
    },
    {
      "inputs": [],
      "name": "DEFAULT_ADMIN_ROLE",
      "outputs": [
        {
          "internalType": "bytes32",
          "name": "",
          "type": "bytes32"
        }
      ],
      "stateMutability": "view",
      "type": "function"
    },
    {
      "inputs": [],
      "name": "POLICY_ROLE",
      "outputs": [
        {
          "internalType": "bytes32",
          "name": "",
          "type": "bytes32"
        }
      ],
      "stateMutability": "view",
      "type": "function"
    },
    {
      "inputs": [
        {
          "internalType": "address",
          "name": "account",
          "type": "address"
        }
      ],
      "name": "addAdmin",
      "outputs": [],
      "stateMutability": "nonpayable",
      "type": "function"
    },
    {
      "inputs": [
        {
          "internalType": "address",
          "name": "",
          "type": "address"
        }
      ],
      "name": "aliveImplementation",
      "outputs": [
        {
          "internalType": "bool",
          "name": "",
          "type": "bool"
        }
      ],
      "stateMutability": "view",
      "type": "function"
    },
    {
      "inputs": [
        {
          "internalType": "address",
          "name": "tokenOwner",
          "type": "address"
        },
        {
          "internalType": "address",
          "name": "projectOwner",
          "type": "address"
        },
        {
          "internalType": "address",
          "name": "addressManager",
          "type": "address"
        },
        {
          "internalType": "uint256",
          "name": "initialTotalSupply",
          "type": "uint256"
        },
        {
          "internalType": "uint8",
          "name": "tokenType",
          "type": "uint8"
        },
        {
          "internalType": "string",
          "name": "projectName",
          "type": "string"
        },
        {
          "internalType": "string",
          "name": "tokenName",
          "type": "string"
        },
        {
          "internalType": "string",
          "name": "tokenSymbol",
          "type": "string"
        }
      ],
      "name": "createProject",
      "outputs": [
        {
          "internalType": "uint256",
          "name": "",
          "type": "uint256"
        }
      ],
      "stateMutability": "nonpayable",
      "type": "function"
    },
    {
      "inputs": [
        {
          "internalType": "bytes32",
          "name": "role",
          "type": "bytes32"
        }
      ],
      "name": "getRoleAdmin",
      "outputs": [
        {
          "internalType": "bytes32",
          "name": "",
          "type": "bytes32"
        }
      ],
      "stateMutability": "view",
      "type": "function"
    },
    {
      "inputs": [
        {
          "internalType": "bytes32",
          "name": "role",
          "type": "bytes32"
        },
        {
          "internalType": "address",
          "name": "account",
          "type": "address"
        }
      ],
      "name": "grantRole",
      "outputs": [],
      "stateMutability": "nonpayable",
      "type": "function"
    },
    {
      "inputs": [
        {
          "internalType": "bytes32",
          "name": "role",
          "type": "bytes32"
        },
        {
          "internalType": "address",
          "name": "account",
          "type": "address"
        }
      ],
      "name": "hasRole",
      "outputs": [
        {
          "internalType": "bool",
          "name": "",
          "type": "bool"
        }
      ],
      "stateMutability": "view",
      "type": "function"
    },
    {
      "inputs": [
        {
          "internalType": "address",
          "name": "account",
          "type": "address"
        }
      ],
      "name": "isAdmin",
      "outputs": [
        {
          "internalType": "bool",
          "name": "",
          "type": "bool"
        }
      ],
      "stateMutability": "view",
      "type": "function"
    },
    {
      "inputs": [
        {
          "internalType": "uint8",
          "name": "",
          "type": "uint8"
        }
      ],
      "name": "l1TokenFactory",
      "outputs": [
        {
          "internalType": "address",
          "name": "",
          "type": "address"
        }
      ],
      "stateMutability": "view",
      "type": "function"
    },
    {
      "inputs": [
        {
          "internalType": "uint8",
          "name": "",
          "type": "uint8"
        }
      ],
      "name": "l2Info",
      "outputs": [
        {
          "internalType": "address",
          "name": "l2TokenFactory",
          "type": "address"
        },
        {
          "internalType": "address",
          "name": "l2ProjectManager",
          "type": "address"
        },
        {
          "internalType": "uint32",
          "name": "depositMinGasLimit",
          "type": "uint32"
        },
        {
          "internalType": "uint32",
          "name": "sendMsgMinGasLimit",
          "type": "uint32"
        }
      ],
      "stateMutability": "view",
      "type": "function"
    },
    {
      "inputs": [
        {
          "internalType": "uint256",
          "name": "projectId",
          "type": "uint256"
        },
        {
          "internalType": "address",
          "name": "l2Token",
          "type": "address"
        },
        {
          "internalType": "uint256",
          "name": "totalAmount",
          "type": "uint256"
        },
        {
          "components": [
            {
              "components": [
                {
                  "components": [
                    {
                      "internalType": "uint256",
                      "name": "stosTier1",
                      "type": "uint256"
                    },
                    {
                      "internalType": "uint256",
                      "name": "stosTier2",
                      "type": "uint256"
                    },
                    {
                      "internalType": "uint256",
                      "name": "stosTier3",
                      "type": "uint256"
                    },
                    {
                      "internalType": "uint256",
                      "name": "stosTier4",
                      "type": "uint256"
                    },
                    {
                      "internalType": "uint256",
                      "name": "tier1Percents",
                      "type": "uint256"
                    },
                    {
                      "internalType": "uint256",
                      "name": "tier2Percents",
                      "type": "uint256"
                    },
                    {
                      "internalType": "uint256",
                      "name": "tier3Percents",
                      "type": "uint256"
                    },
                    {
                      "internalType": "uint256",
                      "name": "tier4Percents",
                      "type": "uint256"
                    },
                    {
                      "internalType": "uint256",
                      "name": "total1roundSaleAmount",
                      "type": "uint256"
                    },
                    {
                      "internalType": "uint256",
                      "name": "total2roundSaleAmount",
                      "type": "uint256"
                    },
                    {
                      "internalType": "uint256",
                      "name": "saleTokenPrice",
                      "type": "uint256"
                    },
                    {
                      "internalType": "uint256",
                      "name": "payTokenPrice",
                      "type": "uint256"
                    },
                    {
                      "internalType": "uint256",
                      "name": "hardcapAmount",
                      "type": "uint256"
                    },
                    {
                      "internalType": "uint256",
                      "name": "changeTOSPercent",
                      "type": "uint256"
                    },
                    {
                      "internalType": "uint256",
                      "name": "startWhiteTime",
                      "type": "uint256"
                    },
                    {
                      "internalType": "uint256",
                      "name": "endWhiteTime",
                      "type": "uint256"
                    },
                    {
                      "internalType": "uint256",
                      "name": "start1roundTime",
                      "type": "uint256"
                    },
                    {
                      "internalType": "uint256",
                      "name": "end1roundTime",
                      "type": "uint256"
                    },
                    {
                      "internalType": "uint256",
                      "name": "snapshotTime",
                      "type": "uint256"
                    },
                    {
                      "internalType": "uint256",
                      "name": "start2roundTime",
                      "type": "uint256"
                    },
                    {
                      "internalType": "uint256",
                      "name": "end2roundTime",
                      "type": "uint256"
                    }
                  ],
                  "internalType": "struct LibProject.InitalParameterPublicSaleVault",
                  "name": "vaultParams",
                  "type": "tuple"
                },
                {
                  "components": [
                    {
                      "internalType": "uint256",
                      "name": "claimCounts",
                      "type": "uint256"
                    },
                    {
                      "internalType": "uint256",
                      "name": "firstClaimPercent",
                      "type": "uint256"
                    },
                    {
                      "internalType": "uint256",
                      "name": "firstClaimTime",
                      "type": "uint256"
                    },
                    {
                      "internalType": "uint256",
                      "name": "secondClaimTime",
                      "type": "uint256"
                    },
                    {
                      "internalType": "uint256",
                      "name": "roundInterval",
                      "type": "uint256"
                    }
                  ],
                  "internalType": "struct LibProject.InitalParameterPublicSaleClaim",
                  "name": "claimParams",
                  "type": "tuple"
                },
                {
                  "components": [
                    {
                      "internalType": "address",
                      "name": "receiveAddress",
                      "type": "address"
                    },
                    {
                      "internalType": "uint256",
                      "name": "totalClaimCount",
                      "type": "uint256"
                    },
                    {
                      "internalType": "uint256",
                      "name": "firstClaimPercent",
                      "type": "uint256"
                    },
                    {
                      "internalType": "uint256",
                      "name": "firstClaimTime",
                      "type": "uint256"
                    },
                    {
                      "internalType": "uint256",
                      "name": "secondClaimTime",
                      "type": "uint256"
                    },
                    {
                      "internalType": "uint256",
                      "name": "roundIntervalTime",
                      "type": "uint256"
                    },
                    {
                      "internalType": "uint24",
                      "name": "fee",
                      "type": "uint24"
                    }
                  ],
                  "internalType": "struct LibProject.InitalParameterVestingFundVault",
                  "name": "vestingParams",
                  "type": "tuple"
                }
              ],
              "internalType": "struct LibProject.InitalParameterPublicSale",
              "name": "publicSaleParams",
              "type": "tuple"
            },
            {
              "components": [
                {
                  "internalType": "uint256",
                  "name": "totalAllocatedAmount",
                  "type": "uint256"
                },
                {
                  "internalType": "uint256",
                  "name": "tosPrice",
                  "type": "uint256"
                },
                {
                  "internalType": "uint256",
                  "name": "tokenPrice",
                  "type": "uint256"
                },
                {
                  "internalType": "uint256",
                  "name": "initSqrtPrice",
                  "type": "uint256"
                },
                {
                  "internalType": "uint32",
                  "name": "startTime",
                  "type": "uint32"
                },
                {
                  "internalType": "uint16",
                  "name": "fee",
                  "type": "uint16"
                }
              ],
              "internalType": "struct LibProject.InitalParameterInitialLiquidityVault",
              "name": "initialVaultParams",
              "type": "tuple"
            },
            {
              "components": [
                {
                  "components": [
                    {
                      "internalType": "address",
                      "name": "token0",
                      "type": "address"
                    },
                    {
                      "internalType": "address",
                      "name": "token1",
                      "type": "address"
                    },
                    {
                      "internalType": "uint24",
                      "name": "fee",
                      "type": "uint24"
                    }
                  ],
                  "internalType": "struct LibPool.PoolInfo",
                  "name": "poolParams",
                  "type": "tuple"
                },
                {
                  "components": [
                    {
                      "internalType": "address",
                      "name": "claimer",
                      "type": "address"
                    },
                    {
                      "internalType": "uint256",
                      "name": "totalAllocatedAmount",
                      "type": "uint256"
                    },
                    {
                      "internalType": "uint256",
                      "name": "totalClaimCount",
                      "type": "uint256"
                    },
                    {
                      "internalType": "uint256",
                      "name": "firstClaimAmount",
                      "type": "uint256"
                    },
                    {
                      "internalType": "uint32",
                      "name": "firstClaimTime",
                      "type": "uint32"
                    },
                    {
                      "internalType": "uint32",
                      "name": "secondClaimTime",
                      "type": "uint32"
                    },
                    {
                      "internalType": "uint32",
                      "name": "roundIntervalTime",
                      "type": "uint32"
                    }
                  ],
                  "internalType": "struct LibProject.InitalParameterScheduleVault",
                  "name": "params",
                  "type": "tuple"
                }
              ],
              "internalType": "struct LibProject.InitalParameterLiquidityRewardVault",
              "name": "rewardTonTosPoolParams",
              "type": "tuple"
            },
            {
              "components": [
                {
                  "components": [
                    {
                      "internalType": "address",
                      "name": "token0",
                      "type": "address"
                    },
                    {
                      "internalType": "address",
                      "name": "token1",
                      "type": "address"
                    },
                    {
                      "internalType": "uint24",
                      "name": "fee",
                      "type": "uint24"
                    }
                  ],
                  "internalType": "struct LibPool.PoolInfo",
                  "name": "poolParams",
                  "type": "tuple"
                },
                {
                  "components": [
                    {
                      "internalType": "address",
                      "name": "claimer",
                      "type": "address"
                    },
                    {
                      "internalType": "uint256",
                      "name": "totalAllocatedAmount",
                      "type": "uint256"
                    },
                    {
                      "internalType": "uint256",
                      "name": "totalClaimCount",
                      "type": "uint256"
                    },
                    {
                      "internalType": "uint256",
                      "name": "firstClaimAmount",
                      "type": "uint256"
                    },
                    {
                      "internalType": "uint32",
                      "name": "firstClaimTime",
                      "type": "uint32"
                    },
                    {
                      "internalType": "uint32",
                      "name": "secondClaimTime",
                      "type": "uint32"
                    },
                    {
                      "internalType": "uint32",
                      "name": "roundIntervalTime",
                      "type": "uint32"
                    }
                  ],
                  "internalType": "struct LibProject.InitalParameterScheduleVault",
                  "name": "params",
                  "type": "tuple"
                }
              ],
              "internalType": "struct LibProject.InitalParameterLiquidityRewardVault",
              "name": "rewardProjectTosPoolParams",
              "type": "tuple"
            },
            {
              "components": [
                {
                  "internalType": "address",
                  "name": "claimer",
                  "type": "address"
                },
                {
                  "internalType": "uint256",
                  "name": "totalAllocatedAmount",
                  "type": "uint256"
                },
                {
                  "internalType": "uint256",
                  "name": "totalClaimCount",
                  "type": "uint256"
                },
                {
                  "internalType": "uint256",
                  "name": "firstClaimAmount",
                  "type": "uint256"
                },
                {
                  "internalType": "uint32",
                  "name": "firstClaimTime",
                  "type": "uint32"
                },
                {
                  "internalType": "uint32",
                  "name": "secondClaimTime",
                  "type": "uint32"
                },
                {
                  "internalType": "uint32",
                  "name": "roundIntervalTime",
                  "type": "uint32"
                }
              ],
              "internalType": "struct LibProject.InitalParameterScheduleVault",
              "name": "tosAirdropParams",
              "type": "tuple"
            },
            {
              "components": [
                {
                  "internalType": "address",
                  "name": "claimer",
                  "type": "address"
                },
                {
                  "internalType": "uint256",
                  "name": "totalAllocatedAmount",
                  "type": "uint256"
                },
                {
                  "internalType": "uint256",
                  "name": "totalClaimCount",
                  "type": "uint256"
                },
                {
                  "internalType": "uint256",
                  "name": "firstClaimAmount",
                  "type": "uint256"
                },
                {
                  "internalType": "uint32",
                  "name": "firstClaimTime",
                  "type": "uint32"
                },
                {
                  "internalType": "uint32",
                  "name": "secondClaimTime",
                  "type": "uint32"
                },
                {
                  "internalType": "uint32",
                  "name": "roundIntervalTime",
                  "type": "uint32"
                }
              ],
              "internalType": "struct LibProject.InitalParameterScheduleVault",
              "name": "tonAirdropParams",
              "type": "tuple"
            }
          ],
          "internalType": "struct LibProject.TokamakVaults",
          "name": "tokamakVaults",
          "type": "tuple"
        },
        {
          "components": [
            {
              "internalType": "string",
              "name": "vaultName",
              "type": "string"
            },
            {
              "components": [
                {
                  "internalType": "address",
                  "name": "claimer",
                  "type": "address"
                },
                {
                  "internalType": "uint256",
                  "name": "totalAllocatedAmount",
                  "type": "uint256"
                },
                {
                  "internalType": "uint256",
                  "name": "totalClaimCount",
                  "type": "uint256"
                },
                {
                  "internalType": "uint256",
                  "name": "firstClaimAmount",
                  "type": "uint256"
                },
                {
                  "internalType": "uint32",
                  "name": "firstClaimTime",
                  "type": "uint32"
                },
                {
                  "internalType": "uint32",
                  "name": "secondClaimTime",
                  "type": "uint32"
                },
                {
                  "internalType": "uint32",
                  "name": "roundIntervalTime",
                  "type": "uint32"
                }
              ],
              "internalType": "struct LibProject.InitalParameterScheduleVault",
              "name": "params",
              "type": "tuple"
            }
          ],
          "internalType": "struct LibProject.InitalParameterSchedule[]",
          "name": "customScheduleVaults",
          "type": "tuple[]"
        },
        {
          "components": [
            {
              "internalType": "string",
              "name": "vaultName",
              "type": "string"
            },
            {
              "internalType": "address",
              "name": "claimer",
              "type": "address"
            },
            {
              "internalType": "uint256",
              "name": "totalAllocatedAmount",
              "type": "uint256"
            }
          ],
          "internalType": "struct LibProject.InitalParameterNonScheduleVault[]",
          "name": "customNonScheduleVaults",
          "type": "tuple[]"
        }
      ],
      "name": "launchProject",
      "outputs": [],
      "stateMutability": "nonpayable",
      "type": "function"
    },
    {
      "inputs": [],
      "name": "pauseProxy",
      "outputs": [
        {
          "internalType": "bool",
          "name": "",
          "type": "bool"
        }
      ],
      "stateMutability": "view",
      "type": "function"
    },
    {
      "inputs": [],
      "name": "projectCount",
      "outputs": [
        {
          "internalType": "uint256",
          "name": "",
          "type": "uint256"
        }
      ],
      "stateMutability": "view",
      "type": "function"
    },
    {
      "inputs": [
        {
          "internalType": "address",
          "name": "",
          "type": "address"
        }
      ],
      "name": "projectTokens",
      "outputs": [
        {
          "internalType": "uint256",
          "name": "",
          "type": "uint256"
        }
      ],
      "stateMutability": "view",
      "type": "function"
    },
    {
      "inputs": [
        {
          "internalType": "uint256",
          "name": "",
          "type": "uint256"
        }
      ],
      "name": "projects",
      "outputs": [
        {
          "internalType": "address",
          "name": "projectOwner",
          "type": "address"
        },
        {
          "internalType": "address",
          "name": "tokenOwner",
          "type": "address"
        },
        {
          "internalType": "address",
          "name": "l1Token",
          "type": "address"
        },
        {
          "internalType": "address",
          "name": "l2Token",
          "type": "address"
        },
        {
          "internalType": "address",
          "name": "addressManager",
          "type": "address"
        },
        {
          "internalType": "uint256",
          "name": "initialTotalSupply",
          "type": "uint256"
        },
        {
          "internalType": "uint8",
          "name": "tokenType",
          "type": "uint8"
        },
        {
          "internalType": "uint8",
          "name": "l2Type",
          "type": "uint8"
        },
        {
          "internalType": "string",
          "name": "projectName",
          "type": "string"
        }
      ],
      "stateMutability": "view",
      "type": "function"
    },
    {
      "inputs": [
        {
          "internalType": "uint256",
          "name": "",
          "type": "uint256"
        }
      ],
      "name": "proxyImplementation",
      "outputs": [
        {
          "internalType": "address",
          "name": "",
          "type": "address"
        }
      ],
      "stateMutability": "view",
      "type": "function"
    },
    {
      "inputs": [
        {
          "internalType": "address",
          "name": "account",
          "type": "address"
        }
      ],
      "name": "removeAdmin",
      "outputs": [],
      "stateMutability": "nonpayable",
      "type": "function"
    },
    {
      "inputs": [
        {
          "internalType": "bytes32",
          "name": "role",
          "type": "bytes32"
        },
        {
          "internalType": "address",
          "name": "account",
          "type": "address"
        }
      ],
      "name": "renounceRole",
      "outputs": [],
      "stateMutability": "nonpayable",
      "type": "function"
    },
    {
      "inputs": [
        {
          "internalType": "bytes32",
          "name": "role",
          "type": "bytes32"
        },
        {
          "internalType": "address",
          "name": "account",
          "type": "address"
        }
      ],
      "name": "revokeRole",
      "outputs": [],
      "stateMutability": "nonpayable",
      "type": "function"
    },
    {
      "inputs": [
        {
          "internalType": "bytes4",
          "name": "",
          "type": "bytes4"
        }
      ],
      "name": "selectorImplementation",
      "outputs": [
        {
          "internalType": "address",
          "name": "",
          "type": "address"
        }
      ],
      "stateMutability": "view",
      "type": "function"
    },
    {
      "inputs": [
        {
          "internalType": "uint8[]",
          "name": "tokenTypes",
          "type": "uint8[]"
        },
        {
          "internalType": "address[]",
          "name": "_l1TokenFactorys",
          "type": "address[]"
        }
      ],
      "name": "setL1TokenFactories",
      "outputs": [],
      "stateMutability": "nonpayable",
      "type": "function"
    },
    {
      "inputs": [
        {
          "internalType": "uint8",
          "name": "l2Type",
          "type": "uint8"
        },
        {
          "internalType": "address",
          "name": "_l2TokenFactory",
          "type": "address"
        },
        {
          "internalType": "address",
          "name": "_l2ProjectManager",
          "type": "address"
        },
        {
          "internalType": "uint32",
          "name": "_depositMinGasLimit",
          "type": "uint32"
        },
        {
          "internalType": "uint32",
          "name": "_sendMsgMinGasLimit",
          "type": "uint32"
        }
      ],
      "name": "setL2Infos",
      "outputs": [],
      "stateMutability": "nonpayable",
      "type": "function"
    },
    {
      "inputs": [
        {
          "internalType": "bytes4",
          "name": "interfaceId",
          "type": "bytes4"
        }
      ],
      "name": "supportsInterface",
      "outputs": [
        {
          "internalType": "bool",
          "name": "",
          "type": "bool"
        }
      ],
      "stateMutability": "view",
      "type": "function"
    },
    {
      "inputs": [
        {
          "internalType": "address",
          "name": "newAdmin",
          "type": "address"
        }
      ],
      "name": "transferAdmin",
      "outputs": [],
      "stateMutability": "nonpayable",
      "type": "function"
    },
    {
      "inputs": [
        {
          "internalType": "uint256",
          "name": "totalAmount",
          "type": "uint256"
        },
        {
          "components": [
            {
              "components": [
                {
                  "components": [
                    {
                      "internalType": "uint256",
                      "name": "stosTier1",
                      "type": "uint256"
                    },
                    {
                      "internalType": "uint256",
                      "name": "stosTier2",
                      "type": "uint256"
                    },
                    {
                      "internalType": "uint256",
                      "name": "stosTier3",
                      "type": "uint256"
                    },
                    {
                      "internalType": "uint256",
                      "name": "stosTier4",
                      "type": "uint256"
                    },
                    {
                      "internalType": "uint256",
                      "name": "tier1Percents",
                      "type": "uint256"
                    },
                    {
                      "internalType": "uint256",
                      "name": "tier2Percents",
                      "type": "uint256"
                    },
                    {
                      "internalType": "uint256",
                      "name": "tier3Percents",
                      "type": "uint256"
                    },
                    {
                      "internalType": "uint256",
                      "name": "tier4Percents",
                      "type": "uint256"
                    },
                    {
                      "internalType": "uint256",
                      "name": "total1roundSaleAmount",
                      "type": "uint256"
                    },
                    {
                      "internalType": "uint256",
                      "name": "total2roundSaleAmount",
                      "type": "uint256"
                    },
                    {
                      "internalType": "uint256",
                      "name": "saleTokenPrice",
                      "type": "uint256"
                    },
                    {
                      "internalType": "uint256",
                      "name": "payTokenPrice",
                      "type": "uint256"
                    },
                    {
                      "internalType": "uint256",
                      "name": "hardcapAmount",
                      "type": "uint256"
                    },
                    {
                      "internalType": "uint256",
                      "name": "changeTOSPercent",
                      "type": "uint256"
                    },
                    {
                      "internalType": "uint256",
                      "name": "startWhiteTime",
                      "type": "uint256"
                    },
                    {
                      "internalType": "uint256",
                      "name": "endWhiteTime",
                      "type": "uint256"
                    },
                    {
                      "internalType": "uint256",
                      "name": "start1roundTime",
                      "type": "uint256"
                    },
                    {
                      "internalType": "uint256",
                      "name": "end1roundTime",
                      "type": "uint256"
                    },
                    {
                      "internalType": "uint256",
                      "name": "snapshotTime",
                      "type": "uint256"
                    },
                    {
                      "internalType": "uint256",
                      "name": "start2roundTime",
                      "type": "uint256"
                    },
                    {
                      "internalType": "uint256",
                      "name": "end2roundTime",
                      "type": "uint256"
                    }
                  ],
                  "internalType": "struct LibProject.InitalParameterPublicSaleVault",
                  "name": "vaultParams",
                  "type": "tuple"
                },
                {
                  "components": [
                    {
                      "internalType": "uint256",
                      "name": "claimCounts",
                      "type": "uint256"
                    },
                    {
                      "internalType": "uint256",
                      "name": "firstClaimPercent",
                      "type": "uint256"
                    },
                    {
                      "internalType": "uint256",
                      "name": "firstClaimTime",
                      "type": "uint256"
                    },
                    {
                      "internalType": "uint256",
                      "name": "secondClaimTime",
                      "type": "uint256"
                    },
                    {
                      "internalType": "uint256",
                      "name": "roundInterval",
                      "type": "uint256"
                    }
                  ],
                  "internalType": "struct LibProject.InitalParameterPublicSaleClaim",
                  "name": "claimParams",
                  "type": "tuple"
                },
                {
                  "components": [
                    {
                      "internalType": "address",
                      "name": "receiveAddress",
                      "type": "address"
                    },
                    {
                      "internalType": "uint256",
                      "name": "totalClaimCount",
                      "type": "uint256"
                    },
                    {
                      "internalType": "uint256",
                      "name": "firstClaimPercent",
                      "type": "uint256"
                    },
                    {
                      "internalType": "uint256",
                      "name": "firstClaimTime",
                      "type": "uint256"
                    },
                    {
                      "internalType": "uint256",
                      "name": "secondClaimTime",
                      "type": "uint256"
                    },
                    {
                      "internalType": "uint256",
                      "name": "roundIntervalTime",
                      "type": "uint256"
                    },
                    {
                      "internalType": "uint24",
                      "name": "fee",
                      "type": "uint24"
                    }
                  ],
                  "internalType": "struct LibProject.InitalParameterVestingFundVault",
                  "name": "vestingParams",
                  "type": "tuple"
                }
              ],
              "internalType": "struct LibProject.InitalParameterPublicSale",
              "name": "publicSaleParams",
              "type": "tuple"
            },
            {
              "components": [
                {
                  "internalType": "uint256",
                  "name": "totalAllocatedAmount",
                  "type": "uint256"
                },
                {
                  "internalType": "uint256",
                  "name": "tosPrice",
                  "type": "uint256"
                },
                {
                  "internalType": "uint256",
                  "name": "tokenPrice",
                  "type": "uint256"
                },
                {
                  "internalType": "uint256",
                  "name": "initSqrtPrice",
                  "type": "uint256"
                },
                {
                  "internalType": "uint32",
                  "name": "startTime",
                  "type": "uint32"
                },
                {
                  "internalType": "uint16",
                  "name": "fee",
                  "type": "uint16"
                }
              ],
              "internalType": "struct LibProject.InitalParameterInitialLiquidityVault",
              "name": "initialVaultParams",
              "type": "tuple"
            },
            {
              "components": [
                {
                  "components": [
                    {
                      "internalType": "address",
                      "name": "token0",
                      "type": "address"
                    },
                    {
                      "internalType": "address",
                      "name": "token1",
                      "type": "address"
                    },
                    {
                      "internalType": "uint24",
                      "name": "fee",
                      "type": "uint24"
                    }
                  ],
                  "internalType": "struct LibPool.PoolInfo",
                  "name": "poolParams",
                  "type": "tuple"
                },
                {
                  "components": [
                    {
                      "internalType": "address",
                      "name": "claimer",
                      "type": "address"
                    },
                    {
                      "internalType": "uint256",
                      "name": "totalAllocatedAmount",
                      "type": "uint256"
                    },
                    {
                      "internalType": "uint256",
                      "name": "totalClaimCount",
                      "type": "uint256"
                    },
                    {
                      "internalType": "uint256",
                      "name": "firstClaimAmount",
                      "type": "uint256"
                    },
                    {
                      "internalType": "uint32",
                      "name": "firstClaimTime",
                      "type": "uint32"
                    },
                    {
                      "internalType": "uint32",
                      "name": "secondClaimTime",
                      "type": "uint32"
                    },
                    {
                      "internalType": "uint32",
                      "name": "roundIntervalTime",
                      "type": "uint32"
                    }
                  ],
                  "internalType": "struct LibProject.InitalParameterScheduleVault",
                  "name": "params",
                  "type": "tuple"
                }
              ],
              "internalType": "struct LibProject.InitalParameterLiquidityRewardVault",
              "name": "rewardTonTosPoolParams",
              "type": "tuple"
            },
            {
              "components": [
                {
                  "components": [
                    {
                      "internalType": "address",
                      "name": "token0",
                      "type": "address"
                    },
                    {
                      "internalType": "address",
                      "name": "token1",
                      "type": "address"
                    },
                    {
                      "internalType": "uint24",
                      "name": "fee",
                      "type": "uint24"
                    }
                  ],
                  "internalType": "struct LibPool.PoolInfo",
                  "name": "poolParams",
                  "type": "tuple"
                },
                {
                  "components": [
                    {
                      "internalType": "address",
                      "name": "claimer",
                      "type": "address"
                    },
                    {
                      "internalType": "uint256",
                      "name": "totalAllocatedAmount",
                      "type": "uint256"
                    },
                    {
                      "internalType": "uint256",
                      "name": "totalClaimCount",
                      "type": "uint256"
                    },
                    {
                      "internalType": "uint256",
                      "name": "firstClaimAmount",
                      "type": "uint256"
                    },
                    {
                      "internalType": "uint32",
                      "name": "firstClaimTime",
                      "type": "uint32"
                    },
                    {
                      "internalType": "uint32",
                      "name": "secondClaimTime",
                      "type": "uint32"
                    },
                    {
                      "internalType": "uint32",
                      "name": "roundIntervalTime",
                      "type": "uint32"
                    }
                  ],
                  "internalType": "struct LibProject.InitalParameterScheduleVault",
                  "name": "params",
                  "type": "tuple"
                }
              ],
              "internalType": "struct LibProject.InitalParameterLiquidityRewardVault",
              "name": "rewardProjectTosPoolParams",
              "type": "tuple"
            },
            {
              "components": [
                {
                  "internalType": "address",
                  "name": "claimer",
                  "type": "address"
                },
                {
                  "internalType": "uint256",
                  "name": "totalAllocatedAmount",
                  "type": "uint256"
                },
                {
                  "internalType": "uint256",
                  "name": "totalClaimCount",
                  "type": "uint256"
                },
                {
                  "internalType": "uint256",
                  "name": "firstClaimAmount",
                  "type": "uint256"
                },
                {
                  "internalType": "uint32",
                  "name": "firstClaimTime",
                  "type": "uint32"
                },
                {
                  "internalType": "uint32",
                  "name": "secondClaimTime",
                  "type": "uint32"
                },
                {
                  "internalType": "uint32",
                  "name": "roundIntervalTime",
                  "type": "uint32"
                }
              ],
              "internalType": "struct LibProject.InitalParameterScheduleVault",
              "name": "tosAirdropParams",
              "type": "tuple"
            },
            {
              "components": [
                {
                  "internalType": "address",
                  "name": "claimer",
                  "type": "address"
                },
                {
                  "internalType": "uint256",
                  "name": "totalAllocatedAmount",
                  "type": "uint256"
                },
                {
                  "internalType": "uint256",
                  "name": "totalClaimCount",
                  "type": "uint256"
                },
                {
                  "internalType": "uint256",
                  "name": "firstClaimAmount",
                  "type": "uint256"
                },
                {
                  "internalType": "uint32",
                  "name": "firstClaimTime",
                  "type": "uint32"
                },
                {
                  "internalType": "uint32",
                  "name": "secondClaimTime",
                  "type": "uint32"
                },
                {
                  "internalType": "uint32",
                  "name": "roundIntervalTime",
                  "type": "uint32"
                }
              ],
              "internalType": "struct LibProject.InitalParameterScheduleVault",
              "name": "tonAirdropParams",
              "type": "tuple"
            }
          ],
          "internalType": "struct LibProject.TokamakVaults",
          "name": "tokamakVaults",
          "type": "tuple"
        },
        {
          "components": [
            {
              "internalType": "string",
              "name": "vaultName",
              "type": "string"
            },
            {
              "components": [
                {
                  "internalType": "address",
                  "name": "claimer",
                  "type": "address"
                },
                {
                  "internalType": "uint256",
                  "name": "totalAllocatedAmount",
                  "type": "uint256"
                },
                {
                  "internalType": "uint256",
                  "name": "totalClaimCount",
                  "type": "uint256"
                },
                {
                  "internalType": "uint256",
                  "name": "firstClaimAmount",
                  "type": "uint256"
                },
                {
                  "internalType": "uint32",
                  "name": "firstClaimTime",
                  "type": "uint32"
                },
                {
                  "internalType": "uint32",
                  "name": "secondClaimTime",
                  "type": "uint32"
                },
                {
                  "internalType": "uint32",
                  "name": "roundIntervalTime",
                  "type": "uint32"
                }
              ],
              "internalType": "struct LibProject.InitalParameterScheduleVault",
              "name": "params",
              "type": "tuple"
            }
          ],
          "internalType": "struct LibProject.InitalParameterSchedule[]",
          "name": "customScheduleVaults",
          "type": "tuple[]"
        },
        {
          "components": [
            {
              "internalType": "string",
              "name": "vaultName",
              "type": "string"
            },
            {
              "internalType": "address",
              "name": "claimer",
              "type": "address"
            },
            {
              "internalType": "uint256",
              "name": "totalAllocatedAmount",
              "type": "uint256"
            }
          ],
          "internalType": "struct LibProject.InitalParameterNonScheduleVault[]",
          "name": "customNonScheduleVaults",
          "type": "tuple[]"
        }
      ],
      "name": "validationVaultsParameters",
      "outputs": [
        {
          "internalType": "bool",
          "name": "valid",
          "type": "bool"
        },
        {
          "internalType": "string",
          "name": "resean",
          "type": "string"
        }
      ],
      "stateMutability": "pure",
      "type": "function"
    },
    {
      "inputs": [
        {
          "internalType": "uint8",
          "name": "_l2Type",
          "type": "uint8"
        }
      ],
      "name": "viewL2Info",
      "outputs": [
        {
          "components": [
            {
              "internalType": "address",
              "name": "l2TokenFactory",
              "type": "address"
            },
            {
              "internalType": "address",
              "name": "l2ProjectManager",
              "type": "address"
            },
            {
              "internalType": "uint32",
              "name": "depositMinGasLimit",
              "type": "uint32"
            },
            {
              "internalType": "uint32",
              "name": "sendMsgMinGasLimit",
              "type": "uint32"
            }
          ],
          "internalType": "struct LibProject.L2Info",
          "name": "",
          "type": "tuple"
        }
      ],
      "stateMutability": "view",
      "type": "function"
    }
  ],
  "bytecode": "0x60806040526005805460ff1916600117905534801561001d57600080fd5b506141af8061002d6000396000f3fe608060405234801561001057600080fd5b50600436106101c45760003560e01c806370480275116100f95780639cba984811610097578063b851550c11610071578063b851550c146104e0578063b911135f146105c1578063d547741f146105ea578063eeff1eb2146105fd57600080fd5b80639cba98481461048f578063a217fddf146104af578063b4a35e0f146104b757600080fd5b806375b238fc116100d357806375b238fc14610398578063846fa8f8146103bf578063902293ab146103d257806391d148541461045657600080fd5b8063704802751461035f57806374918e841461037257806375829def1461038557600080fd5b80632f2ff15d1161016657806350d2a2761161014057806350d2a276146102db578063550d01a31461031c57806363a8fd891461033f57806368f52eb31461034c57600080fd5b80632f2ff15d146102ac57806336568abe146102bf57806336fbad26146102d257600080fd5b806320a32b63116101a257806320a32b631461022e5780632298524614610241578063248a9ca31461027657806324d7806c1461029957600080fd5b806301ffc9a7146101c9578063107046bd146101f15780631785f53c14610219575b600080fd5b6101dc6101d7366004612a78565b61061e565b60405190151581526020015b60405180910390f35b6102046101ff366004612aa2565b610655565b6040516101e899989796959493929190612b0b565b61022c610227366004612b9e565b610743565b005b61022c61023c366004613317565b6107d5565b6102687ffb5864e8ff833c3cb2d2d08505e82ff02a43554c74a35d4f5a64e8526127831181565b6040519081526020016101e8565b610268610284366004612aa2565b60009081526004602052604090206001015490565b6101dc6102a7366004612b9e565b61137e565b61022c6102ba3660046133b4565b6113be565b61022c6102cd3660046133b4565b6113e8565b61026860065481565b6103046102e9366004612a78565b6003602052600090815260409020546001600160a01b031681565b6040516001600160a01b0390911681526020016101e8565b6101dc61032a366004612b9e565b60026020526000908152604090205460ff1681565b6000546101dc9060ff1681565b61022c61035a3660046133f5565b611474565b61022c61036d366004612b9e565b611882565b61026861038036600461345e565b61190c565b61022c610393366004612b9e565b611e42565b6102687fdf8b4c520ffe197c5343c6f5aec59570151ef9a492f2c624fd45ddde6135ec4281565b61022c6103cd366004613597565b611fa4565b61041f6103e0366004613657565b600a60205260009081526040902080546001909101546001600160a01b039182169181169063ffffffff600160a01b8204811691600160c01b90041684565b604080516001600160a01b03958616815294909316602085015263ffffffff918216928401929092521660608201526080016101e8565b6101dc6104643660046133b4565b60009182526004602090815260408084206001600160a01b0393909316845291905290205460ff1690565b61026861049d366004612b9e565b60096020526000908152604090205481565b610268600081565b6103046104c5366004613657565b6007602052600090815260409020546001600160a01b031681565b6105766104ee366004613657565b6040805160808101825260008082526020820181905291810182905260608101919091525060ff166000908152600a6020908152604091829020825160808101845281546001600160a01b0390811682526001909201549182169281019290925263ffffffff600160a01b8204811693830193909352600160c01b9004909116606082015290565b6040805182516001600160a01b039081168252602080850151909116908201528282015163ffffffff90811692820192909252606092830151909116918101919091526080016101e8565b6103046105cf366004612aa2565b6001602052600090815260409020546001600160a01b031681565b61022c6105f83660046133b4565b612213565b61061061060b366004613672565b612238565b6040516101e89291906136f4565b60006001600160e01b03198216637965db0b60e01b148061064f57506301ffc9a760e01b6001600160e01b03198316145b92915050565b600860205260009081526040902080546001820154600283015460038401546004850154600586015460068701546007880180546001600160a01b039889169997891698968716979587169690941694929360ff80841694610100909404169291906106c090613717565b80601f01602080910402602001604051908101604052809291908181526020018280546106ec90613717565b80156107395780601f1061070e57610100808354040283529160200191610739565b820191906000526020600020905b81548152906001019060200180831161071c57829003601f168201915b5050505050905089565b61074c3361137e565b6107a85760405162461bcd60e51b815260206004820152602260248201527f41636365737369626c653a2043616c6c6572206973206e6f7420616e2061646d60448201526134b760f11b60648201526084015b60405180910390fd5b6107d27fdf8b4c520ffe197c5343c6f5aec59570151ef9a492f2c624fd45ddde6135ec42826113e8565b50565b846001600160a01b0381166108115760405162461bcd60e51b81526020600482015260026024820152612d1960f11b604482015260640161079f565b84806000036108475760405162461bcd60e51b81526020600482015260026024820152615a3160f01b604482015260640161079f565b600088815260086020908152604080832081516101208101835281546001600160a01b0390811682526001830154811694820194909452600282015484169281019290925260038101548316606083015260048101549092166080820152600582015460a0820152600682015460ff80821660c0840152610100918290041660e0830152600783018054929392918401916108e190613717565b80601f016020809104026020016040519081016040528092919081815260200182805461090d90613717565b801561095a5780601f1061092f5761010080835404028352916020019161095a565b820191906000526020600020905b81548152906001019060200180831161093d57829003601f168201915b5050509190925250508151919250506001600160a01b031615801590610989575080516001600160a01b031633145b6109d55760405162461bcd60e51b815260206004820152601b60248201527f63616c6c6572206973206e6f742070726f6a6563744f776e65722e0000000000604482015260640161079f565b60608101516001600160a01b031615610a305760405162461bcd60e51b815260206004820152601060248201527f616c7265616479206c61756e6368656400000000000000000000000000000000604482015260640161079f565b6040808201516001600160a01b03166000908152600960205220548914610a995760405162461bcd60e51b815260206004820152600d60248201527f77726f6e67206c31546f6b656e00000000000000000000000000000000000000604482015260640161079f565b608081015160405163507c8bd160e01b81526001600160a01b03909116600482015260009073__$b2d160aea0e65d5e83164dd2e3c22b89ec$__9063507c8bd190602401602060405180830381865af4158015610afa573d6000803e3d6000fd5b505050506040513d601f19601f82011682018060405250810190610b1e9190613751565b90506001600160a01b038116610b765760405162461bcd60e51b815260206004820152601a60248201527f6c314d657373656e676572206973205a65726f41646472657373000000000000604482015260640161079f565b600063589b8ec960e01b83604001518b8d8c8c8c8c604051602401610ba197969594939291906139c9565b604051602081830303815290604052906001600160e01b0319166020820180516001600160e01b03838183161783525050505090506000808073__$b2d160aea0e65d5e83164dd2e3c22b89ec$__63f6266b748c6040518263ffffffff1660e01b8152600401610c119190613b61565b6040805180830381865af4158015610c2d573d6000803e3d6000fd5b505050506040513d601f19601f82011682018060405250810190610c519190613cb8565b9150915081610ca25760405162461bcd60e51b815260206004820152601b60248201527f546f6b616d616b5661756c7473207661696c64617465206661696c0000000000604482015260640161079f565b610cac8184613cfa565b92508951600014610d9c5760008073__$b2d160aea0e65d5e83164dd2e3c22b89ec$__6308d8b1ac8d6040518263ffffffff1660e01b8152600401610cf19190613d0d565b6040805180830381865af4158015610d0d573d6000803e3d6000fd5b505050506040513d601f19601f82011682018060405250810190610d319190613cb8565b9150915081610d8d5760405162461bcd60e51b815260206004820152602260248201527f637573746f6d5363686564756c655661756c7473207661696c646174652066616044820152611a5b60f21b606482015260840161079f565b610d978186613cfa565b945050505b895115610e8b5760008073__$b2d160aea0e65d5e83164dd2e3c22b89ec$__63a95614d68c6040518263ffffffff1660e01b8152600401610ddd9190613d90565b6040805180830381865af4158015610df9573d6000803e3d6000fd5b505050506040513d601f19601f82011682018060405250810190610e1d9190613cb8565b9150915081610e7c5760405162461bcd60e51b815260206004820152602560248201527f637573746f6d4e6f6e5363686564756c655661756c7473207661696c646174656044820152640819985a5b60da1b606482015260840161079f565b610e868186613cfa565b945050505b8b8314610f005760405162461bcd60e51b815260206004820152603560248201527f746f74616c416d6f756e7420697320646966666572656e742066726f6d20766160448201527f756c747320616c6c6f636174656420616d6f756e740000000000000000000000606482015260840161079f565b60008e90508d6008600083815260200190815260200160002060030160006101000a8154816001600160a01b0302191690836001600160a01b031602179055508d87606001906001600160a01b031690816001600160a01b03168152505060006008600083815260200190815260200160002060020160009054906101000a90046001600160a01b03166001600160a01b03166370a08231306040518263ffffffff1660e01b8152600401610fc491906001600160a01b0391909116815260200190565b602060405180830381865afa158015610fe1573d6000803e3d6000fd5b505050506040513d601f19601f820116820180604052508101906110059190613e1a565b90508760a001518111158015611021575060c088015160ff1615155b156111275787604001516001600160a01b03166340c10f1930838b60a0015161104a9190613e33565b6040516001600160e01b031960e085901b1681526001600160a01b0390921660048301526024820152604401600060405180830381600087803b15801561109057600080fd5b505af11580156110a4573d6000803e3d6000fd5b505050600083815260086020526040908190206002015490516370a0823160e01b81523060048201526001600160a01b0390911691506370a0823190602401602060405180830381865afa158015611100573d6000803e3d6000fd5b505050506040513d601f19601f820116820180604052508101906111249190613e1a565b90505b8760a0015181101561117b5760405162461bcd60e51b815260206004820152601760248201527f62616c616e636520697320696e73756666696369656e74000000000000000000604482015260640161079f565b6000600a60008a60e0015160ff1660ff1681526020019081526020016000206040518060800160405290816000820160009054906101000a90046001600160a01b03166001600160a01b03166001600160a01b031681526020016001820160009054906101000a90046001600160a01b03166001600160a01b03166001600160a01b031681526020016001820160149054906101000a900463ffffffff1663ffffffff1663ffffffff1681526020016001820160189054906101000a900463ffffffff1663ffffffff1663ffffffff1681525050905061129989608001518a604001518b6060015184602001518d60a0015186604001518960405160200161128591815260200190565b6040516020818303038152906040526124d4565b60208101516060820151604051633dbb202b60e01b81526001600160a01b038b1692633dbb202b926112d0928c9190600401613e46565b600060405180830381600087803b1580156112ea57600080fd5b505af11580156112fe573d6000803e3d6000fd5b505050507f79fdfe585876a2a3eed99468134317d55495d4fd731029da495b24da1266fa70838a604001518b606001518c60a0015160405161136394939291909384526001600160a01b03928316602085015291166040830152606082015260800190565b60405180910390a15050505050505050505050505050505050565b6001600160a01b03811660009081527f2fb794d17134dfdec181ddbac1babb5ab1eb140204ef4d982f294e7fc8b69022602052604081205460ff1661064f565b6000828152600460205260409020600101546113d981612712565b6113e3838361271c565b505050565b6001600160a01b03811633146114665760405162461bcd60e51b815260206004820152602f60248201527f416363657373436f6e74726f6c3a2063616e206f6e6c792072656e6f756e636560448201527f20726f6c657320666f722073656c660000000000000000000000000000000000606482015260840161079f565b61147082826127be565b5050565b836001600160a01b0381166114b05760405162461bcd60e51b81526020600482015260026024820152612d1960f11b604482015260640161079f565b836001600160a01b0381166114ec5760405162461bcd60e51b81526020600482015260026024820152612d1960f11b604482015260640161079f565b8363ffffffff16806000036115285760405162461bcd60e51b81526020600482015260026024820152615a3160f01b604482015260640161079f565b8363ffffffff16806000036115645760405162461bcd60e51b81526020600482015260026024820152615a3160f01b604482015260640161079f565b61156d3361137e565b6115c45760405162461bcd60e51b815260206004820152602260248201527f41636365737369626c653a2043616c6c6572206973206e6f7420616e2061646d60448201526134b760f11b606482015260840161079f565b600260ff8a16106116175760405162461bcd60e51b815260206004820152601260248201527f756e737570706f72746564206c32547970650000000000000000000000000000604482015260640161079f565b60ff89166000908152600a60205260409020546001600160a01b038981169116141580611665575060ff89166000908152600a60205260409020600101546001600160a01b03888116911614155b80611695575060ff89166000908152600a602052604090206001015463ffffffff878116600160a01b9092041614155b806116c5575060ff89166000908152600a602052604090206001015463ffffffff868116600160c01b9092041614155b6116fa5760405162461bcd60e51b815260040161079f9060208082526004908201526373616d6560e01b604082015260600190565b600060405180608001604052808a6001600160a01b03168152602001896001600160a01b031681526020018863ffffffff1681526020018763ffffffff16815250905080600a60008c60ff1660ff16815260200190815260200160002060008201518160000160006101000a8154816001600160a01b0302191690836001600160a01b0316021790555060208201518160010160006101000a8154816001600160a01b0302191690836001600160a01b0316021790555060408201518160010160146101000a81548163ffffffff021916908363ffffffff16021790555060608201518160010160186101000a81548163ffffffff021916908363ffffffff1602179055509050507f5e8ef59fdf78b3376941ed3157b8c3d49139b1f4c1857bf531766c1c1e3a97c98a8a8a8a8a60405161186e95949392919060ff9590951685526001600160a01b03938416602086015291909216604084015263ffffffff918216606084015216608082015260a00190565b60405180910390a150505050505050505050565b61188b3361137e565b6118e25760405162461bcd60e51b815260206004820152602260248201527f41636365737369626c653a2043616c6c6572206973206e6f7420616e2061646d60448201526134b760f11b606482015260840161079f565b6107d27fdf8b4c520ffe197c5343c6f5aec59570151ef9a492f2c624fd45ddde6135ec42826113be565b60006001600160a01b0389161580159061192e57506001600160a01b03881615155b801561194257506001600160a01b03871615155b61198e5760405162461bcd60e51b815260206004820152600c60248201527f7a65726f20616464726573730000000000000000000000000000000000000000604482015260640161079f565b83516000036119df5760405162461bcd60e51b815260206004820152601360248201527f70726f6a6563744e616d65206973206e756c6c00000000000000000000000000604482015260640161079f565b8251600003611a305760405162461bcd60e51b815260206004820152601160248201527f746f6b656e4e616d65206973206e756c6c000000000000000000000000000000604482015260640161079f565b8151600003611a815760405162461bcd60e51b815260206004820152601360248201527f746f6b656e53796d626f6c206973206e756c6c00000000000000000000000000604482015260640161079f565b600460ff8616108015611aae575060ff85166000908152600760205260409020546001600160a01b031615155b611b095760405162461bcd60e51b815260206004820152602660248201527f77726f6e6720746f6b656e54797065206f72207a65726f206c31546f6b656e466044820152656163746f727960d01b606482015260840161079f565b60ff8516600090815260076020526040808220549051634692ed6760e01b81526001600160a01b0390911690634692ed6790611b4f90879087908c903090600401613e7e565b6020604051808303816000875af1158015611b6e573d6000803e3d6000fd5b505050506040513d601f19601f82011682018060405250810190611b929190613751565b90506001600160a01b038116611bea5760405162461bcd60e51b815260206004820152601160248201527f7a65726f2070726f6a656374546f6b656e000000000000000000000000000000604482015260640161079f565b6000600660008154611bfb90613ec4565b91905081905590506040518061012001604052808b6001600160a01b031681526020018c6001600160a01b03168152602001836001600160a01b0316815260200160006001600160a01b031681526020018a6001600160a01b031681526020018981526020018860ff168152602001600060ff168152602001878152506008600083815260200190815260200160002060008201518160000160006101000a8154816001600160a01b0302191690836001600160a01b0316021790555060208201518160010160006101000a8154816001600160a01b0302191690836001600160a01b0316021790555060408201518160020160006101000a8154816001600160a01b0302191690836001600160a01b0316021790555060608201518160030160006101000a8154816001600160a01b0302191690836001600160a01b0316021790555060808201518160040160006101000a8154816001600160a01b0302191690836001600160a01b0316021790555060a0820151816005015560c08201518160060160006101000a81548160ff021916908360ff16021790555060e08201518160060160016101000a81548160ff021916908360ff160217905550610100820151816007019081611dce9190613f2b565b5050506001600160a01b03821660009081526009602052604090819020829055517fe6f52bbfc9201025b3af0483a2cb6b38980deee467b4cea0217319cae691d3a390611e2c90849084908f908f908f908f908e908e908e90613feb565b60405180910390a19a9950505050505050505050565b611e4b3361137e565b611ea25760405162461bcd60e51b815260206004820152602260248201527f41636365737369626c653a2043616c6c6572206973206e6f7420616e2061646d60448201526134b760f11b606482015260840161079f565b6001600160a01b038116611ef85760405162461bcd60e51b815260206004820152601860248201527f41636365737369626c653a207a65726f20616464726573730000000000000000604482015260640161079f565b6001600160a01b0381163303611f505760405162461bcd60e51b815260206004820152601660248201527f41636365737369626c653a2073616d652061646d696e00000000000000000000604482015260640161079f565b611f7a7fdf8b4c520ffe197c5343c6f5aec59570151ef9a492f2c624fd45ddde6135ec42826113be565b6107d27fdf8b4c520ffe197c5343c6f5aec59570151ef9a492f2c624fd45ddde6135ec42336113e8565b611fad3361137e565b6120045760405162461bcd60e51b815260206004820152602260248201527f41636365737369626c653a2043616c6c6572206973206e6f7420616e2061646d60448201526134b760f11b606482015260840161079f565b815115801590612015575080518251145b6120615760405162461bcd60e51b815260206004820152600c60248201527f77726f6e67206c656e6774680000000000000000000000000000000000000000604482015260640161079f565b815160005b8181101561220d57600460ff168482815181106120855761208561405d565b602002602001015160ff16106120dd5760405162461bcd60e51b815260206004820152601660248201527f756e737570706f7274656420746f6b656e207479706500000000000000000000604482015260640161079f565b8281815181106120ef576120ef61405d565b60200260200101516001600160a01b0316600760008684815181106121165761211661405d565b60209081029190910181015160ff168252810191909152604001600020546001600160a01b03160361218a5760405162461bcd60e51b815260206004820152600c60248201527f73616d6520616464726573730000000000000000000000000000000000000000604482015260640161079f565b82818151811061219c5761219c61405d565b6020026020010151600760008684815181106121ba576121ba61405d565b602002602001015160ff1660ff16815260200190815260200160002060006101000a8154816001600160a01b0302191690836001600160a01b03160217905550808061220590613ec4565b915050612066565b50505050565b60008281526004602052604090206001015461222e81612712565b6113e383836127be565b600060606000808073__$b2d160aea0e65d5e83164dd2e3c22b89ec$__63f6266b74896040518263ffffffff1660e01b81526004016122779190613b61565b6040805180830381865af4158015612293573d6000803e3d6000fd5b505050506040513d601f19601f820116820180604052508101906122b79190613cb8565b91509150816122e957600060405180604001604052806002815260200161463160f01b815250945094505050506124cb565b6122f38184613cfa565b925086516000146123bc5760008073__$b2d160aea0e65d5e83164dd2e3c22b89ec$__6308d8b1ac8a6040518263ffffffff1660e01b81526004016123389190613d0d565b6040805180830381865af4158015612354573d6000803e3d6000fd5b505050506040513d601f19601f820116820180604052508101906123789190613cb8565b90925090506123878186613cfa565b9450816123b957600060405180604001604052806002815260200161231960f11b8152509650965050505050506124cb565b50505b8651156124815760008073__$b2d160aea0e65d5e83164dd2e3c22b89ec$__63a95614d6896040518263ffffffff1660e01b81526004016123fd9190613d90565b6040805180830381865af4158015612419573d6000803e3d6000fd5b505050506040513d601f19601f8201168201806040525081019061243d9190613cb8565b909250905061244c8186613cfa565b94508161247e57600060405180604001604052806002815260200161463360f01b8152509650965050505050506124cb565b50505b8289146124b157600060405180604001604052806002815260200161118d60f21b815250945094505050506124cb565b600160405180602001604052806000815250945094505050505b94509492505050565b604051639da3176160e01b81526001600160a01b038816600482015260009073__$b2d160aea0e65d5e83164dd2e3c22b89ec$__90639da3176190602401602060405180830381865af415801561252f573d6000803e3d6000fd5b505050506040513d601f19601f820116820180604052508101906125539190613751565b90506001600160a01b0381166125ab5760405162461bcd60e51b815260206004820152601760248201527f6c31427269646765206973205a65726f41646472657373000000000000000000604482015260640161079f565b604051636eb1769f60e11b81523060048201526001600160a01b0382811660248301526000919089169063dd62ed3e90604401602060405180830381865afa1580156125fb573d6000803e3d6000fd5b505050506040513d601f19601f8201168201806040525081019061261f9190613e1a565b90508481101561269f5760405163095ea7b360e01b81526001600160a01b038381166004830152600019602483015289169063095ea7b3906044016020604051808303816000875af1158015612679573d6000803e3d6000fd5b505050506040513d601f19601f8201168201806040525081019061269d9190614073565b505b60405163041c592960e51b81526001600160a01b0383169063838b2520906126d5908b908b908b908b908b908b9060040161408e565b600060405180830381600087803b1580156126ef57600080fd5b505af1158015612703573d6000803e3d6000fd5b50505050505050505050505050565b6107d28133612841565b60008281526004602090815260408083206001600160a01b038516845290915290205460ff166114705760008281526004602090815260408083206001600160a01b03851684529091529020805460ff1916600117905561277a3390565b6001600160a01b0316816001600160a01b0316837f2f8788117e7eff1d82e926ec794901d17c78024a50270940304540a733656f0d60405160405180910390a45050565b60008281526004602090815260408083206001600160a01b038516845290915290205460ff16156114705760008281526004602090815260408083206001600160a01b0385168085529252808320805460ff1916905551339285917ff6391f5c32d9c69d2a47ea670b442974b53935d1edc7fd64eb21e047a839171b9190a45050565b60008281526004602090815260408083206001600160a01b038516845290915290205460ff1661147057612874816128b6565b61287f8360206128c8565b6040516020016128909291906140e0565b60408051601f198184030181529082905262461bcd60e51b825261079f91600401614161565b606061064f6001600160a01b03831660145b606060006128d7836002614174565b6128e2906002613cfa565b67ffffffffffffffff8111156128fa576128fa612bbb565b6040519080825280601f01601f191660200182016040528015612924576020820181803683370190505b509050600360fc1b8160008151811061293f5761293f61405d565b60200101906001600160f81b031916908160001a905350600f60fb1b8160018151811061296e5761296e61405d565b60200101906001600160f81b031916908160001a9053506000612992846002614174565b61299d906001613cfa565b90505b6001811115612a22577f303132333435363738396162636465660000000000000000000000000000000085600f16601081106129de576129de61405d565b1a60f81b8282815181106129f4576129f461405d565b60200101906001600160f81b031916908160001a90535060049490941c93612a1b8161418b565b90506129a0565b508315612a715760405162461bcd60e51b815260206004820181905260248201527f537472696e67733a20686578206c656e67746820696e73756666696369656e74604482015260640161079f565b9392505050565b600060208284031215612a8a57600080fd5b81356001600160e01b031981168114612a7157600080fd5b600060208284031215612ab457600080fd5b5035919050565b60005b83811015612ad6578181015183820152602001612abe565b50506000910152565b60008151808452612af7816020860160208601612abb565b601f01601f19169290920160200192915050565b60006101206001600160a01b03808d168452808c166020850152808b166040850152808a1660608501528089166080850152508660a084015260ff861660c084015260ff851660e084015280610100840152612b6981840185612adf565b9c9b505050505050505050505050565b6001600160a01b03811681146107d257600080fd5b8035612b9981612b79565b919050565b600060208284031215612bb057600080fd5b8135612a7181612b79565b634e487b7160e01b600052604160045260246000fd5b60405160e0810167ffffffffffffffff81118282101715612bf457612bf4612bbb565b60405290565b60405160c0810167ffffffffffffffff81118282101715612bf457612bf4612bbb565b6040805190810167ffffffffffffffff81118282101715612bf457612bf4612bbb565b6040516060810167ffffffffffffffff81118282101715612bf457612bf4612bbb565b6040516102a0810167ffffffffffffffff81118282101715612bf457612bf4612bbb565b604051601f8201601f1916810167ffffffffffffffff81118282101715612cb057612cb0612bbb565b604052919050565b600060a08284031215612cca57600080fd5b60405160a0810181811067ffffffffffffffff82111715612ced57612ced612bbb565b806040525080915082358152602083013560208201526040830135604082015260608301356060820152608083013560808201525092915050565b803562ffffff81168114612b9957600080fd5b600060e08284031215612d4d57600080fd5b612d55612bd1565b90508135612d6281612b79565b808252506020820135602082015260408201356040820152606082013560608201526080820135608082015260a082013560a0820152612da460c08301612d28565b60c082015292915050565b803563ffffffff81168114612b9957600080fd5b600060c08284031215612dd557600080fd5b612ddd612bfa565b905081358152602082013560208201526040820135604082015260608201356060820152612e0d60808301612daf565b608082015260a082013561ffff81168114612e2757600080fd5b60a082015292915050565b600060e08284031215612e4457600080fd5b612e4c612bd1565b90508135612e5981612b79565b80825250602082013560208201526040820135604082015260608201356060820152612e8760808301612daf565b6080820152612e9860a08301612daf565b60a0820152612da460c08301612daf565b6000818303610140811215612ebd57600080fd5b612ec5612c1d565b91506060811215612ed557600080fd5b50612ede612c40565b8235612ee981612b79565b81526020830135612ef981612b79565b6020820152612f0a60408401612d28565b60408201528152612f1e8360608401612e32565b602082015292915050565b6000818303610920811215612f3d57600080fd5b612f45612bfa565b915061042080821215612f5757600080fd5b612f5f612c40565b6102a080841215612f6f57600080fd5b612f77612c63565b863581526020808801359082015260408088013590820152606080880135908201526080808801359082015260a0808801359082015260c0808801359082015260e08088013590820152610100808801359082015261012080880135908201526101408088013590820152610160808801359082015261018080880135908201526101a080880135908201526101c080880135908201526101e0808801359082015261020080880135908201526102208088013590820152610240808801359082015261026080880135908201526102808088013590820152808352935061306187828801612cb8565b602083015250613075866103408701612d3b565b6040820152835261308885858301612dc3565b6020840152505061309d836104e08401612ea9565b60408201526130b0836106208401612ea9565b60608201526130c3836107608401612e32565b6080820152612e27836108408401612e32565b600067ffffffffffffffff8211156130f0576130f0612bbb565b5060051b60200190565b600082601f83011261310b57600080fd5b813567ffffffffffffffff81111561312557613125612bbb565b613138601f8201601f1916602001612c87565b81815284602083860101111561314d57600080fd5b816020850160208301376000918101602001919091529392505050565b600082601f83011261317b57600080fd5b8135602061319061318b836130d6565b612c87565b82815260059290921b840181019181810190868411156131af57600080fd5b8286015b8481101561323957803567ffffffffffffffff808211156131d45760008081fd5b90880190610100828b03601f190112156131ee5760008081fd5b6131f6612c1d565b86830135828111156132085760008081fd5b6132168c89838701016130fa565b8252506132268b60408501612e32565b81880152855250509183019183016131b3565b509695505050505050565b600082601f83011261325557600080fd5b8135602061326561318b836130d6565b82815260059290921b8401810191818101908684111561328457600080fd5b8286015b8481101561323957803567ffffffffffffffff808211156132a95760008081fd5b908801906060828b03601f19018113156132c35760008081fd5b6132cb612c40565b87840135838111156132dd5760008081fd5b6132eb8d8a838801016130fa565b82525060409250828401356132ff81612b79565b81890152920135908201528352918301918301613288565b6000806000806000806109c0878903121561333157600080fd5b86359550602087013561334381612b79565b9450604087013593506133598860608901612f29565b925061098087013567ffffffffffffffff8082111561337757600080fd5b6133838a838b0161316a565b93506109a089013591508082111561339a57600080fd5b506133a789828a01613244565b9150509295509295509295565b600080604083850312156133c757600080fd5b8235915060208301356133d981612b79565b809150509250929050565b803560ff81168114612b9957600080fd5b600080600080600060a0868803121561340d57600080fd5b613416866133e4565b9450602086013561342681612b79565b9350604086013561343681612b79565b925061344460608701612daf565b915061345260808701612daf565b90509295509295909350565b600080600080600080600080610100898b03121561347b57600080fd5b61348489612b8e565b975061349260208a01612b8e565b96506134a060408a01612b8e565b9550606089013594506134b560808a016133e4565b935060a089013567ffffffffffffffff808211156134d257600080fd5b6134de8c838d016130fa565b945060c08b01359150808211156134f457600080fd5b6135008c838d016130fa565b935060e08b013591508082111561351657600080fd5b506135238b828c016130fa565b9150509295985092959890939650565b600082601f83011261354457600080fd5b8135602061355461318b836130d6565b82815260059290921b8401810191818101908684111561357357600080fd5b8286015b8481101561323957803561358a81612b79565b8352918301918301613577565b600080604083850312156135aa57600080fd5b823567ffffffffffffffff808211156135c257600080fd5b818501915085601f8301126135d657600080fd5b813560206135e661318b836130d6565b82815260059290921b8401810191818101908984111561360557600080fd5b948201945b8386101561362a5761361b866133e4565b8252948201949082019061360a565b9650508601359250508082111561364057600080fd5b5061364d85828601613533565b9150509250929050565b60006020828403121561366957600080fd5b612a71826133e4565b600080600080610980858703121561368957600080fd5b8435935061369a8660208701612f29565b925061094085013567ffffffffffffffff808211156136b857600080fd5b6136c48883890161316a565b93506109608701359150808211156136db57600080fd5b506136e887828801613244565b91505092959194509250565b821515815260406020820152600061370f6040830184612adf565b949350505050565b600181811c9082168061372b57607f821691505b60208210810361374b57634e487b7160e01b600052602260045260246000fd5b50919050565b60006020828403121561376357600080fd5b8151612a7181612b79565b805182526020808201519083015260408082015190830152606080820151908301526080808201519083015260a0808201519083015260c0808201519083015260e08082015190830152610100808201519083015261012080820151908301526101408082015190830152610160808201519083015261018080820151908301526101a080820151908301526101c080820151908301526101e08082015190830152610200808201519083015261022080820151908301526102408082015190830152610260808201519083015261028090810151910152565b6001600160a01b038151168252602081015160208301526040810151604083015260608101516060830152608081015163ffffffff80821660808501528060a08401511660a08501528060c08401511660c085015250505050565b80516001600160a01b038082511684528060208301511660208501525062ffffff60408201511660408401525060208101516113e36060840182613848565b600081518084526020808501808196508360051b8101915082860160005b8581101561394b5782840389528151610100815181875261392382880182612adf565b91505086820151915061393887870183613848565b9986019994505090840190600101613900565b5091979650505050505050565b600081518084526020808501808196508360051b8101915082860160005b8581101561394b57828403895281516060815181875261399882880182612adf565b838901516001600160a01b0316888a0152604093840151939097019290925250509784019790840190600101613976565b60006109e06001600160a01b03808b168452808a166020850152508760408401528660608401528551613a0060808501825161376e565b6020818101518051610320870152808201516103408701526040808201516103608801526060808301516103808901526080928301516103a08901529381015180516001600160a01b03166103c0890152808401516103e089015280820151610400890152808501516104208901528083015161044089015260a0808201516104608a015260c09091015162ffffff166104808901528a84015180516104a08a0152938401516104c0890152838201516104e0890152938301516105008801529082015163ffffffff1661052087015291015161ffff16610540850152860151613aee6105608501826138a3565b506060860151613b026106a08501826138a3565b506080860151613b166107e0850182613848565b5060a0860151613b2a6108c0850182613848565b50806109a0840152613b3e818401866138e2565b90508281036109c0840152613b538185613958565b9a9950505050505050505050565b6000610920820190508251613b7783825161376e565b60208181015180516102a0860152808201516102c08601526040808201516102e08701526060808301516103008801526080928301516103208801529381015180516001600160a01b03166103408801528084015161036088015280820151610380880152808501516103a0880152808301516103c088015260a0808201516103e089015260c09091015162ffffff166104008801528784015180516104208901529384015161044088015283820151610460880152938301516104808701529082015163ffffffff166104a086015291015161ffff166104c0840152830151613c656104e08401826138a3565b506060830151613c796106208401826138a3565b506080830151613c8d610760840182613848565b5060a0830151613ca1610840840182613848565b5092915050565b80518015158114612b9957600080fd5b60008060408385031215613ccb57600080fd5b613cd483613ca8565b9150602083015190509250929050565b634e487b7160e01b600052601160045260246000fd5b8082018082111561064f5761064f613ce4565b6000602080830181845280855180835260408601915060408160051b870101925083870160005b82811015613d8357603f1988860301845281516101008151818852613d5b82890182612adf565b915050878201519150613d7088880183613848565b9550509285019290850190600101613d34565b5092979650505050505050565b60006020808301818452808551808352604092508286019150828160051b87010184880160005b83811015613e0c57603f19898403018552815160608151818652613ddd82870182612adf565b838b01516001600160a01b0316878c015292890151958901959095525094870194925090860190600101613db7565b509098975050505050505050565b600060208284031215613e2c57600080fd5b5051919050565b8181038181111561064f5761064f613ce4565b6001600160a01b0384168152606060208201526000613e686060830185612adf565b905063ffffffff83166040830152949350505050565b608081526000613e916080830187612adf565b8281036020840152613ea38187612adf565b9150508360408301526001600160a01b038316606083015295945050505050565b600060018201613ed657613ed6613ce4565b5060010190565b601f8211156113e357600081815260208120601f850160051c81016020861015613f045750805b601f850160051c820191505b81811015613f2357828155600101613f10565b505050505050565b815167ffffffffffffffff811115613f4557613f45612bbb565b613f5981613f538454613717565b84613edd565b602080601f831160018114613f8e5760008415613f765750858301515b600019600386901b1c1916600185901b178555613f23565b600085815260208120601f198616915b82811015613fbd57888601518255948401946001909101908401613f9e565b5085821015613fdb5787850151600019600388901b60f8161c191681555b5050505050600190811b01905550565b60006101206001600160a01b03808d1684528b6020850152808b166040850152808a1660608501528089166080850152508660a08401528060c084015261403481840187612adf565b905082810360e08401526140488186612adf565b9050828103610100840152612b698185612adf565b634e487b7160e01b600052603260045260246000fd5b60006020828403121561408557600080fd5b612a7182613ca8565b60006001600160a01b038089168352808816602084015280871660408401525084606083015263ffffffff8416608083015260c060a08301526140d460c0830184612adf565b98975050505050505050565b7f416363657373436f6e74726f6c3a206163636f756e7420000000000000000000815260008351614118816017850160208801612abb565b7f206973206d697373696e6720726f6c65200000000000000000000000000000006017918401918201528351614155816028840160208801612abb565b01602801949350505050565b602081526000612a716020830184612adf565b808202811582820484141761064f5761064f613ce4565b60008161419a5761419a613ce4565b50600019019056fea164736f6c6343000812000a",
  "linkReferences": {
    "contracts/libraries/LibProject.sol": {
      "LibProject": [
        {
          "length": 20,
          "start": 2797
        },
        {
          "length": 20,
          "start": 3081
        },
        {
          "length": 20,
          "start": 3305
        },
        {
          "length": 20,
          "start": 3541
        },
        {
          "length": 20,
          "start": 8815
        },
        {
          "length": 20,
          "start": 9008
        },
        {
          "length": 20,
          "start": 9205
        },
        {
          "length": 20,
          "start": 9506
        }
      ]
    }
  },
  "deployedLinkReferences": {
    "contracts/libraries/LibProject.sol": {
      "LibProject": [
        {
          "length": 20,
          "start": 2752
        },
        {
          "length": 20,
          "start": 3036
        },
        {
          "length": 20,
          "start": 3260
        },
        {
          "length": 20,
          "start": 3496
        },
        {
          "length": 20,
          "start": 8770
        },
        {
          "length": 20,
          "start": 8963
        },
        {
          "length": 20,
          "start": 9160
        },
        {
          "length": 20,
          "start": 9461
        }
      ]
    }
  }
}