{
  "_format": "hh-sol-artifact-1",
  "contractName": "L1ProjectManager",
  "sourceName": "contracts/L1/L1ProjectManager.sol",
  "abi": [
    {
      "inputs": [],
      "stateMutability": "nonpayable",
      "type": "constructor"
    },
    {
      "anonymous": false,
      "inputs": [
        {
          "indexed": false,
          "internalType": "uint256",
          "name": "projectId",
          "type": "uint256"
        },
        {
          "indexed": false,
          "internalType": "address",
          "name": "l1Token",
          "type": "address"
        },
        {
          "indexed": false,
          "internalType": "string",
          "name": "projectName",
          "type": "string"
        },
        {
          "indexed": false,
          "internalType": "address",
          "name": "projectOwner",
          "type": "address"
        },
        {
          "indexed": false,
          "internalType": "string",
          "name": "tokenName",
          "type": "string"
        },
        {
          "indexed": false,
          "internalType": "string",
          "name": "tokenSymbol",
          "type": "string"
        },
        {
          "indexed": false,
          "internalType": "uint256",
          "name": "initialTotalSupply",
          "type": "uint256"
        }
      ],
      "name": "CreatedProject",
      "type": "event"
    },
    {
      "anonymous": false,
      "inputs": [
        {
          "indexed": true,
          "internalType": "bytes32",
          "name": "role",
          "type": "bytes32"
        },
        {
          "indexed": true,
          "internalType": "bytes32",
          "name": "previousAdminRole",
          "type": "bytes32"
        },
        {
          "indexed": true,
          "internalType": "bytes32",
          "name": "newAdminRole",
          "type": "bytes32"
        }
      ],
      "name": "RoleAdminChanged",
      "type": "event"
    },
    {
      "anonymous": false,
      "inputs": [
        {
          "indexed": true,
          "internalType": "bytes32",
          "name": "role",
          "type": "bytes32"
        },
        {
          "indexed": true,
          "internalType": "address",
          "name": "account",
          "type": "address"
        },
        {
          "indexed": true,
          "internalType": "address",
          "name": "sender",
          "type": "address"
        }
      ],
      "name": "RoleGranted",
      "type": "event"
    },
    {
      "anonymous": false,
      "inputs": [
        {
          "indexed": true,
          "internalType": "bytes32",
          "name": "role",
          "type": "bytes32"
        },
        {
          "indexed": true,
          "internalType": "address",
          "name": "account",
          "type": "address"
        },
        {
          "indexed": true,
          "internalType": "address",
          "name": "sender",
          "type": "address"
        }
      ],
      "name": "RoleRevoked",
      "type": "event"
    },
    {
      "anonymous": false,
      "inputs": [
        {
          "indexed": false,
          "internalType": "uint8",
          "name": "l2Type",
          "type": "uint8"
        },
        {
          "indexed": false,
          "internalType": "address",
          "name": "l2TokenFactory",
          "type": "address"
        },
        {
          "indexed": false,
          "internalType": "address",
          "name": "l2ProjectManager",
          "type": "address"
        },
        {
          "indexed": false,
          "internalType": "uint32",
          "name": "depositMinGasLimit",
          "type": "uint32"
        },
        {
          "indexed": false,
          "internalType": "uint32",
          "name": "sendMsgMinGasLimit",
          "type": "uint32"
        }
      ],
      "name": "SetL2Infos",
      "type": "event"
    },
    {
      "anonymous": false,
      "inputs": [
        {
          "indexed": false,
          "internalType": "uint256",
          "name": "projectId",
          "type": "uint256"
        },
        {
          "indexed": false,
          "internalType": "uint8",
          "name": "l2Type",
          "type": "uint8"
        },
        {
          "indexed": false,
          "internalType": "address",
          "name": "addressManager",
          "type": "address"
        },
        {
          "indexed": false,
          "internalType": "address",
          "name": "l2Token",
          "type": "address"
        }
      ],
      "name": "SetL2Token",
      "type": "event"
    },
    {
      "inputs": [],
      "name": "ADMIN_ROLE",
      "outputs": [
        {
          "internalType": "bytes32",
          "name": "",
          "type": "bytes32"
        }
      ],
      "stateMutability": "view",
      "type": "function"
    },
    {
      "inputs": [],
      "name": "DEFAULT_ADMIN_ROLE",
      "outputs": [
        {
          "internalType": "bytes32",
          "name": "",
          "type": "bytes32"
        }
      ],
      "stateMutability": "view",
      "type": "function"
    },
    {
      "inputs": [],
      "name": "POLICY_ROLE",
      "outputs": [
        {
          "internalType": "bytes32",
          "name": "",
          "type": "bytes32"
        }
      ],
      "stateMutability": "view",
      "type": "function"
    },
    {
      "inputs": [
        {
          "internalType": "address",
          "name": "account",
          "type": "address"
        }
      ],
      "name": "addAdmin",
      "outputs": [],
      "stateMutability": "nonpayable",
      "type": "function"
    },
    {
      "inputs": [
        {
          "internalType": "address",
          "name": "",
          "type": "address"
        }
      ],
      "name": "aliveImplementation",
      "outputs": [
        {
          "internalType": "bool",
          "name": "",
          "type": "bool"
        }
      ],
      "stateMutability": "view",
      "type": "function"
    },
    {
      "inputs": [
        {
          "internalType": "address",
          "name": "tokenOwner",
          "type": "address"
        },
        {
          "internalType": "address",
          "name": "projectOwner",
          "type": "address"
        },
        {
          "internalType": "uint256",
          "name": "initialTotalSupply",
          "type": "uint256"
        },
        {
          "internalType": "uint8",
          "name": "tokenType",
          "type": "uint8"
        },
        {
          "internalType": "string",
          "name": "projectName",
          "type": "string"
        },
        {
          "internalType": "string",
          "name": "tokenName",
          "type": "string"
        },
        {
          "internalType": "string",
          "name": "tokenSymbol",
          "type": "string"
        }
      ],
      "name": "createProject",
      "outputs": [
        {
          "internalType": "uint256",
          "name": "",
          "type": "uint256"
        }
      ],
      "stateMutability": "nonpayable",
      "type": "function"
    },
    {
      "inputs": [
        {
          "internalType": "bytes32",
          "name": "role",
          "type": "bytes32"
        }
      ],
      "name": "getRoleAdmin",
      "outputs": [
        {
          "internalType": "bytes32",
          "name": "",
          "type": "bytes32"
        }
      ],
      "stateMutability": "view",
      "type": "function"
    },
    {
      "inputs": [
        {
          "internalType": "bytes32",
          "name": "role",
          "type": "bytes32"
        },
        {
          "internalType": "address",
          "name": "account",
          "type": "address"
        }
      ],
      "name": "grantRole",
      "outputs": [],
      "stateMutability": "nonpayable",
      "type": "function"
    },
    {
      "inputs": [
        {
          "internalType": "bytes32",
          "name": "role",
          "type": "bytes32"
        },
        {
          "internalType": "address",
          "name": "account",
          "type": "address"
        }
      ],
      "name": "hasRole",
      "outputs": [
        {
          "internalType": "bool",
          "name": "",
          "type": "bool"
        }
      ],
      "stateMutability": "view",
      "type": "function"
    },
    {
      "inputs": [
        {
          "internalType": "address",
          "name": "account",
          "type": "address"
        }
      ],
      "name": "isAdmin",
      "outputs": [
        {
          "internalType": "bool",
          "name": "",
          "type": "bool"
        }
      ],
      "stateMutability": "view",
      "type": "function"
    },
    {
      "inputs": [
        {
          "internalType": "uint8",
          "name": "",
          "type": "uint8"
        }
      ],
      "name": "l1TokenFactory",
      "outputs": [
        {
          "internalType": "address",
          "name": "",
          "type": "address"
        }
      ],
      "stateMutability": "view",
      "type": "function"
    },
    {
      "inputs": [
        {
          "internalType": "uint8",
          "name": "",
          "type": "uint8"
        }
      ],
      "name": "l2Info",
      "outputs": [
        {
          "internalType": "address",
          "name": "l2TokenFactory",
          "type": "address"
        },
        {
          "internalType": "address",
          "name": "l2ProjectManager",
          "type": "address"
        },
        {
          "internalType": "uint32",
          "name": "depositMinGasLimit",
          "type": "uint32"
        },
        {
          "internalType": "uint32",
          "name": "sendMsgMinGasLimit",
          "type": "uint32"
        }
      ],
      "stateMutability": "view",
      "type": "function"
    },
    {
      "inputs": [
        {
          "internalType": "uint256",
          "name": "projectId",
          "type": "uint256"
        },
        {
          "internalType": "address",
          "name": "l2Token",
          "type": "address"
        },
        {
          "internalType": "uint256",
          "name": "totalAmount",
          "type": "uint256"
        },
        {
          "components": [
            {
              "components": [
                {
                  "internalType": "uint256",
                  "name": "totalAllocatedAmount",
                  "type": "uint256"
                }
              ],
              "internalType": "struct LibProject.InitalParameterPublicSaleVault",
              "name": "publicSaleParams",
              "type": "tuple"
            },
            {
              "components": [
                {
                  "internalType": "uint256",
                  "name": "totalAllocatedAmount",
                  "type": "uint256"
                },
                {
                  "internalType": "uint256",
                  "name": "tosPrice",
                  "type": "uint256"
                },
                {
                  "internalType": "uint256",
                  "name": "tokenPrice",
                  "type": "uint256"
                },
                {
                  "internalType": "uint256",
                  "name": "initSqrtPrice",
                  "type": "uint256"
                },
                {
                  "internalType": "uint256",
                  "name": "startTime",
                  "type": "uint256"
                },
                {
                  "internalType": "uint16",
                  "name": "fee",
                  "type": "uint16"
                }
              ],
              "internalType": "struct LibProject.InitalParameterInitialLiquidityVault",
              "name": "initialVaultParams",
              "type": "tuple"
            },
            {
              "components": [
                {
                  "internalType": "address",
                  "name": "poolAddress",
                  "type": "address"
                },
                {
                  "components": [
                    {
                      "internalType": "uint256",
                      "name": "totalAllocatedAmount",
                      "type": "uint256"
                    },
                    {
                      "internalType": "uint256",
                      "name": "totalClaimCount",
                      "type": "uint256"
                    },
                    {
                      "internalType": "uint256",
                      "name": "firstClaimAmount",
                      "type": "uint256"
                    },
                    {
                      "internalType": "uint32",
                      "name": "firstClaimTime",
                      "type": "uint32"
                    },
                    {
                      "internalType": "uint32",
                      "name": "secondClaimTime",
                      "type": "uint32"
                    },
                    {
                      "internalType": "uint32",
                      "name": "roundIntervalTime",
                      "type": "uint32"
                    }
                  ],
                  "internalType": "struct LibProject.InitalParameterScheduleVault",
                  "name": "params",
                  "type": "tuple"
                }
              ],
              "internalType": "struct LibProject.InitalParameterLiquidityRewardVault",
              "name": "rewardParams",
              "type": "tuple"
            },
            {
              "components": [
                {
                  "internalType": "uint256",
                  "name": "totalAllocatedAmount",
                  "type": "uint256"
                },
                {
                  "internalType": "uint256",
                  "name": "totalClaimCount",
                  "type": "uint256"
                },
                {
                  "internalType": "uint256",
                  "name": "firstClaimAmount",
                  "type": "uint256"
                },
                {
                  "internalType": "uint32",
                  "name": "firstClaimTime",
                  "type": "uint32"
                },
                {
                  "internalType": "uint32",
                  "name": "secondClaimTime",
                  "type": "uint32"
                },
                {
                  "internalType": "uint32",
                  "name": "roundIntervalTime",
                  "type": "uint32"
                }
              ],
              "internalType": "struct LibProject.InitalParameterScheduleVault",
              "name": "tosAirdropParams",
              "type": "tuple"
            },
            {
              "components": [
                {
                  "internalType": "uint256",
                  "name": "totalAllocatedAmount",
                  "type": "uint256"
                },
                {
                  "internalType": "uint256",
                  "name": "totalClaimCount",
                  "type": "uint256"
                },
                {
                  "internalType": "uint256",
                  "name": "firstClaimAmount",
                  "type": "uint256"
                },
                {
                  "internalType": "uint32",
                  "name": "firstClaimTime",
                  "type": "uint32"
                },
                {
                  "internalType": "uint32",
                  "name": "secondClaimTime",
                  "type": "uint32"
                },
                {
                  "internalType": "uint32",
                  "name": "roundIntervalTime",
                  "type": "uint32"
                }
              ],
              "internalType": "struct LibProject.InitalParameterScheduleVault",
              "name": "tonAirdropParams",
              "type": "tuple"
            }
          ],
          "internalType": "struct LibProject.TokamakVaults",
          "name": "tokamakVaults",
          "type": "tuple"
        },
        {
          "components": [
            {
              "internalType": "uint256",
              "name": "totalAllocatedAmount",
              "type": "uint256"
            },
            {
              "internalType": "uint256",
              "name": "totalClaimCount",
              "type": "uint256"
            },
            {
              "internalType": "uint256",
              "name": "firstClaimAmount",
              "type": "uint256"
            },
            {
              "internalType": "uint32",
              "name": "firstClaimTime",
              "type": "uint32"
            },
            {
              "internalType": "uint32",
              "name": "secondClaimTime",
              "type": "uint32"
            },
            {
              "internalType": "uint32",
              "name": "roundIntervalTime",
              "type": "uint32"
            }
          ],
          "internalType": "struct LibProject.InitalParameterScheduleVault[]",
          "name": "customScheduleVaults",
          "type": "tuple[]"
        },
        {
          "components": [
            {
              "internalType": "uint256",
              "name": "totalAllocatedAmount",
              "type": "uint256"
            }
          ],
          "internalType": "struct LibProject.InitalParameterNonScheduleVault[]",
          "name": "customNonScheduleVaults",
          "type": "tuple[]"
        }
      ],
      "name": "launchProject",
      "outputs": [],
      "stateMutability": "nonpayable",
      "type": "function"
    },
    {
      "inputs": [],
      "name": "pauseProxy",
      "outputs": [
        {
          "internalType": "bool",
          "name": "",
          "type": "bool"
        }
      ],
      "stateMutability": "view",
      "type": "function"
    },
    {
      "inputs": [],
      "name": "projectCount",
      "outputs": [
        {
          "internalType": "uint256",
          "name": "",
          "type": "uint256"
        }
      ],
      "stateMutability": "view",
      "type": "function"
    },
    {
      "inputs": [
        {
          "internalType": "address",
          "name": "",
          "type": "address"
        }
      ],
      "name": "projectTokens",
      "outputs": [
        {
          "internalType": "uint256",
          "name": "",
          "type": "uint256"
        }
      ],
      "stateMutability": "view",
      "type": "function"
    },
    {
      "inputs": [
        {
          "internalType": "uint256",
          "name": "",
          "type": "uint256"
        }
      ],
      "name": "projects",
      "outputs": [
        {
          "internalType": "address",
          "name": "projectOwner",
          "type": "address"
        },
        {
          "internalType": "address",
          "name": "tokenOwner",
          "type": "address"
        },
        {
          "internalType": "address",
          "name": "l1Token",
          "type": "address"
        },
        {
          "internalType": "address",
          "name": "l2Token",
          "type": "address"
        },
        {
          "internalType": "address",
          "name": "addressManager",
          "type": "address"
        },
        {
          "internalType": "uint256",
          "name": "initialTotalSupply",
          "type": "uint256"
        },
        {
          "internalType": "uint8",
          "name": "tokenType",
          "type": "uint8"
        },
        {
          "internalType": "uint8",
          "name": "l2Type",
          "type": "uint8"
        },
        {
          "internalType": "string",
          "name": "projectName",
          "type": "string"
        }
      ],
      "stateMutability": "view",
      "type": "function"
    },
    {
      "inputs": [
        {
          "internalType": "uint256",
          "name": "",
          "type": "uint256"
        }
      ],
      "name": "proxyImplementation",
      "outputs": [
        {
          "internalType": "address",
          "name": "",
          "type": "address"
        }
      ],
      "stateMutability": "view",
      "type": "function"
    },
    {
      "inputs": [
        {
          "internalType": "address",
          "name": "account",
          "type": "address"
        }
      ],
      "name": "removeAdmin",
      "outputs": [],
      "stateMutability": "nonpayable",
      "type": "function"
    },
    {
      "inputs": [
        {
          "internalType": "bytes32",
          "name": "role",
          "type": "bytes32"
        },
        {
          "internalType": "address",
          "name": "account",
          "type": "address"
        }
      ],
      "name": "renounceRole",
      "outputs": [],
      "stateMutability": "nonpayable",
      "type": "function"
    },
    {
      "inputs": [
        {
          "internalType": "bytes32",
          "name": "role",
          "type": "bytes32"
        },
        {
          "internalType": "address",
          "name": "account",
          "type": "address"
        }
      ],
      "name": "revokeRole",
      "outputs": [],
      "stateMutability": "nonpayable",
      "type": "function"
    },
    {
      "inputs": [
        {
          "internalType": "bytes4",
          "name": "",
          "type": "bytes4"
        }
      ],
      "name": "selectorImplementation",
      "outputs": [
        {
          "internalType": "address",
          "name": "",
          "type": "address"
        }
      ],
      "stateMutability": "view",
      "type": "function"
    },
    {
      "inputs": [
        {
          "internalType": "uint8[]",
          "name": "tokenTypes",
          "type": "uint8[]"
        },
        {
          "internalType": "address[]",
          "name": "_l1TokenFactorys",
          "type": "address[]"
        }
      ],
      "name": "setL1TokenFactories",
      "outputs": [],
      "stateMutability": "nonpayable",
      "type": "function"
    },
    {
      "inputs": [
        {
          "internalType": "uint8",
          "name": "l2Type",
          "type": "uint8"
        },
        {
          "internalType": "address",
          "name": "_l2TokenFactory",
          "type": "address"
        },
        {
          "internalType": "address",
          "name": "_l2ProjectManager",
          "type": "address"
        },
        {
          "internalType": "uint32",
          "name": "_depositMinGasLimit",
          "type": "uint32"
        },
        {
          "internalType": "uint32",
          "name": "_sendMsgMinGasLimit",
          "type": "uint32"
        }
      ],
      "name": "setL2Infos",
      "outputs": [],
      "stateMutability": "nonpayable",
      "type": "function"
    },
    {
      "inputs": [
        {
          "internalType": "bytes4",
          "name": "interfaceId",
          "type": "bytes4"
        }
      ],
      "name": "supportsInterface",
      "outputs": [
        {
          "internalType": "bool",
          "name": "",
          "type": "bool"
        }
      ],
      "stateMutability": "view",
      "type": "function"
    },
    {
      "inputs": [
        {
          "internalType": "address",
          "name": "newAdmin",
          "type": "address"
        }
      ],
      "name": "transferAdmin",
      "outputs": [],
      "stateMutability": "nonpayable",
      "type": "function"
    },
    {
      "inputs": [
        {
          "internalType": "uint8",
          "name": "_l2Type",
          "type": "uint8"
        }
      ],
      "name": "viewL2Info",
      "outputs": [
        {
          "components": [
            {
              "internalType": "address",
              "name": "l2TokenFactory",
              "type": "address"
            },
            {
              "internalType": "address",
              "name": "l2ProjectManager",
              "type": "address"
            },
            {
              "internalType": "uint32",
              "name": "depositMinGasLimit",
              "type": "uint32"
            },
            {
              "internalType": "uint32",
              "name": "sendMsgMinGasLimit",
              "type": "uint32"
            }
          ],
          "internalType": "struct LibProject.L2Info",
          "name": "",
          "type": "tuple"
        }
      ],
      "stateMutability": "view",
      "type": "function"
    }
  ],
  "bytecode": "0x60806040526005805460ff1916600117905534801561001d57600080fd5b506138068061002d6000396000f3fe608060405234801561001057600080fd5b50600436106101b95760003560e01c806368f52eb3116100f957806391d1485411610097578063b4a35e0f11610071578063b4a35e0f146104ac578063b851550c146104d5578063b911135f146105b6578063d547741f146105df57600080fd5b806391d148541461044b5780639cba984814610484578063a217fddf146104a457600080fd5b806375829def116100d357806375829def1461037a57806375b238fc1461038d578063846fa8f8146103b4578063902293ab146103c757600080fd5b806368f52eb3146103415780636f13f8db14610354578063704802751461036757600080fd5b80632f2ff15d116101665780633fe77b52116101405780633fe77b52146102bd57806350d2a276146102d0578063550d01a31461031157806363a8fd891461033457600080fd5b80632f2ff15d1461028e57806336568abe146102a157806336fbad26146102b457600080fd5b806322985246116101975780632298524614610223578063248a9ca31461025857806324d7806c1461027b57600080fd5b806301ffc9a7146101be578063107046bd146101e65780631785f53c1461020e575b600080fd5b6101d16101cc3660046126d7565b6105f2565b60405190151581526020015b60405180910390f35b6101f96101f4366004612701565b610629565b6040516101dd9998979695949392919061276a565b61022161021c3660046127ed565b610717565b005b61024a7ffb5864e8ff833c3cb2d2d08505e82ff02a43554c74a35d4f5a64e8526127831181565b6040519081526020016101dd565b61024a610266366004612701565b60009081526004602052604090206001015490565b6101d16102893660046127ed565b6107a9565b61022161029c36600461280a565b6107e9565b6102216102af36600461280a565b610813565b61024a60065481565b61024a6102cb366004612953565b61089f565b6102f96102de3660046126d7565b6003602052600090815260409020546001600160a01b031681565b6040516001600160a01b0390911681526020016101dd565b6101d161031f3660046127ed565b60026020526000908152604090205460ff1681565b6000546101d19060ff1681565b61022161034f366004612a2f565b610d60565b610221610362366004612caf565b61116e565b6102216103753660046127ed565b611cb2565b6102216103883660046127ed565b611d3c565b61024a7fdf8b4c520ffe197c5343c6f5aec59570151ef9a492f2c624fd45ddde6135ec4281565b6102216103c2366004612e76565b611e9e565b6104146103d5366004612f36565b600a60205260009081526040902080546001909101546001600160a01b039182169181169063ffffffff600160a01b8204811691600160c01b90041684565b604080516001600160a01b03958616815294909316602085015263ffffffff918216928401929092521660608201526080016101dd565b6101d161045936600461280a565b60009182526004602090815260408084206001600160a01b0393909316845291905290205460ff1690565b61024a6104923660046127ed565b60096020526000908152604090205481565b61024a600081565b6102f96104ba366004612f36565b6007602052600090815260409020546001600160a01b031681565b61056b6104e3366004612f36565b6040805160808101825260008082526020820181905291810182905260608101919091525060ff166000908152600a6020908152604091829020825160808101845281546001600160a01b0390811682526001909201549182169281019290925263ffffffff600160a01b8204811693830193909352600160c01b9004909116606082015290565b6040805182516001600160a01b039081168252602080850151909116908201528282015163ffffffff90811692820192909252606092830151909116918101919091526080016101dd565b6102f96105c4366004612701565b6001602052600090815260409020546001600160a01b031681565b6102216105ed36600461280a565b61210d565b60006001600160e01b03198216637965db0b60e01b148061062357506301ffc9a760e01b6001600160e01b03198316145b92915050565b600860205260009081526040902080546001820154600283015460038401546004850154600586015460068701546007880180546001600160a01b039889169997891698968716979587169690941694929360ff808416946101009094041692919061069490612f51565b80601f01602080910402602001604051908101604052809291908181526020018280546106c090612f51565b801561070d5780601f106106e25761010080835404028352916020019161070d565b820191906000526020600020905b8154815290600101906020018083116106f057829003601f168201915b5050505050905089565b610720336107a9565b61077c5760405162461bcd60e51b815260206004820152602260248201527f41636365737369626c653a2043616c6c6572206973206e6f7420616e2061646d60448201526134b760f11b60648201526084015b60405180910390fd5b6107a67fdf8b4c520ffe197c5343c6f5aec59570151ef9a492f2c624fd45ddde6135ec4282610813565b50565b6001600160a01b03811660009081527f2fb794d17134dfdec181ddbac1babb5ab1eb140204ef4d982f294e7fc8b69022602052604081205460ff16610623565b60008281526004602052604090206001015461080481612132565b61080e838361213c565b505050565b6001600160a01b03811633146108915760405162461bcd60e51b815260206004820152602f60248201527f416363657373436f6e74726f6c3a2063616e206f6e6c792072656e6f756e636560448201527f20726f6c657320666f722073656c6600000000000000000000000000000000006064820152608401610773565b61089b82826121de565b5050565b600083516000036108f25760405162461bcd60e51b815260206004820152601360248201527f70726f6a6563744e616d65206973206e756c6c000000000000000000000000006044820152606401610773565b82516000036109435760405162461bcd60e51b815260206004820152601160248201527f746f6b656e4e616d65206973206e756c6c0000000000000000000000000000006044820152606401610773565b81516000036109945760405162461bcd60e51b815260206004820152601360248201527f746f6b656e53796d626f6c206973206e756c6c000000000000000000000000006044820152606401610773565b600460ff86161080156109c1575060ff85166000908152600760205260409020546001600160a01b031615155b610a1c5760405162461bcd60e51b815260206004820152602660248201527f77726f6e6720746f6b656e54797065206f72207a65726f206c31546f6b656e466044820152656163746f727960d01b6064820152608401610773565b60ff8516600090815260076020526040808220549051634692ed6760e01b81526001600160a01b0390911690634692ed6790610a6290879087908c903090600401612f8b565b6020604051808303816000875af1158015610a81573d6000803e3d6000fd5b505050506040513d601f19601f82011682018060405250810190610aa59190612fd1565b90506001600160a01b038116610afd5760405162461bcd60e51b815260206004820152601160248201527f7a65726f2070726f6a656374546f6b656e0000000000000000000000000000006044820152606401610773565b6000600660008154610b0e90613004565b91905081905590506040518061012001604052808a6001600160a01b031681526020018b6001600160a01b03168152602001836001600160a01b0316815260200160006001600160a01b0316815260200160006001600160a01b031681526020018981526020018860ff168152602001600060ff168152602001878152506008600083815260200190815260200160002060008201518160000160006101000a8154816001600160a01b0302191690836001600160a01b0316021790555060208201518160010160006101000a8154816001600160a01b0302191690836001600160a01b0316021790555060408201518160020160006101000a8154816001600160a01b0302191690836001600160a01b0316021790555060608201518160030160006101000a8154816001600160a01b0302191690836001600160a01b0316021790555060808201518160040160006101000a8154816001600160a01b0302191690836001600160a01b0316021790555060a0820151816005015560c08201518160060160006101000a81548160ff021916908360ff16021790555060e08201518160060160016101000a81548160ff021916908360ff160217905550610100820151816007019081610ce2919061306b565b509050508060096000846001600160a01b03166001600160a01b03168152602001908152602001600020819055507fad546778b372cf07d504d745ff3f6617a7cb979f81dcaa5dec9285d4f352f4a48183888c89898e604051610d4b979695949392919061312b565b60405180910390a19998505050505050505050565b836001600160a01b038116610d9c5760405162461bcd60e51b81526020600482015260026024820152612d1960f11b6044820152606401610773565b836001600160a01b038116610dd85760405162461bcd60e51b81526020600482015260026024820152612d1960f11b6044820152606401610773565b8363ffffffff1680600003610e145760405162461bcd60e51b81526020600482015260026024820152615a3160f01b6044820152606401610773565b8363ffffffff1680600003610e505760405162461bcd60e51b81526020600482015260026024820152615a3160f01b6044820152606401610773565b610e59336107a9565b610eb05760405162461bcd60e51b815260206004820152602260248201527f41636365737369626c653a2043616c6c6572206973206e6f7420616e2061646d60448201526134b760f11b6064820152608401610773565b600260ff8a1610610f035760405162461bcd60e51b815260206004820152601260248201527f756e737570706f72746564206c325479706500000000000000000000000000006044820152606401610773565b60ff89166000908152600a60205260409020546001600160a01b038981169116141580610f51575060ff89166000908152600a60205260409020600101546001600160a01b03888116911614155b80610f81575060ff89166000908152600a602052604090206001015463ffffffff878116600160a01b9092041614155b80610fb1575060ff89166000908152600a602052604090206001015463ffffffff868116600160c01b9092041614155b610fe65760405162461bcd60e51b81526004016107739060208082526004908201526373616d6560e01b604082015260600190565b600060405180608001604052808a6001600160a01b03168152602001896001600160a01b031681526020018863ffffffff1681526020018763ffffffff16815250905080600a60008c60ff1660ff16815260200190815260200160002060008201518160000160006101000a8154816001600160a01b0302191690836001600160a01b0316021790555060208201518160010160006101000a8154816001600160a01b0302191690836001600160a01b0316021790555060408201518160010160146101000a81548163ffffffff021916908363ffffffff16021790555060608201518160010160186101000a81548163ffffffff021916908363ffffffff1602179055509050507f5e8ef59fdf78b3376941ed3157b8c3d49139b1f4c1857bf531766c1c1e3a97c98a8a8a8a8a60405161115a95949392919060ff9590951685526001600160a01b03938416602086015291909216604084015263ffffffff918216606084015216608082015260a00190565b60405180910390a150505050505050505050565b846001600160a01b0381166111aa5760405162461bcd60e51b81526020600482015260026024820152612d1960f11b6044820152606401610773565b84806000036111e05760405162461bcd60e51b81526020600482015260026024820152615a3160f01b6044820152606401610773565b600088815260086020908152604080832081516101208101835281546001600160a01b0390811682526001830154811694820194909452600282015484169281019290925260038101548316606083015260048101549092166080820152600582015460a0820152600682015460ff80821660c0840152610100918290041660e08301526007830180549293929184019161127a90612f51565b80601f01602080910402602001604051908101604052809291908181526020018280546112a690612f51565b80156112f35780601f106112c8576101008083540402835291602001916112f3565b820191906000526020600020905b8154815290600101906020018083116112d657829003601f168201915b5050509190925250508151919250506001600160a01b031615801590611322575080516001600160a01b031633145b61136e5760405162461bcd60e51b815260206004820152601b60248201527f63616c6c6572206973206e6f742070726f6a6563744f776e65722e00000000006044820152606401610773565b60608101516001600160a01b0316156113c95760405162461bcd60e51b815260206004820152601060248201527f616c7265616479206c61756e63686564000000000000000000000000000000006044820152606401610773565b6040808201516001600160a01b031660009081526009602052205489146114325760405162461bcd60e51b815260206004820152600d60248201527f77726f6e67206c31546f6b656e000000000000000000000000000000000000006044820152606401610773565b608081015160405163507c8bd160e01b81526001600160a01b03909116600482015260009073__$b2d160aea0e65d5e83164dd2e3c22b89ec$__9063507c8bd190602401602060405180830381865af4158015611493573d6000803e3d6000fd5b505050506040513d601f19601f820116820180604052508101906114b79190612fd1565b90506001600160a01b03811661150f5760405162461bcd60e51b815260206004820152601a60248201527f6c314d657373656e676572206973205a65726f416464726573730000000000006044820152606401610773565b6000808073__$b2d160aea0e65d5e83164dd2e3c22b89ec$__63f6266b748b6040518263ffffffff1660e01b815260040161154a9190613198565b6040805180830381865af4158015611566573d6000803e3d6000fd5b505050506040513d601f19601f8201168201806040525081019061158a91906132f2565b91509150816115db5760405162461bcd60e51b815260206004820152601b60248201527f546f6b616d616b5661756c7473207661696c64617465206661696c00000000006044820152606401610773565b6115e5818461331e565b925088516000146116d55760008073__$b2d160aea0e65d5e83164dd2e3c22b89ec$__630d1ad2758c6040518263ffffffff1660e01b815260040161162a9190613331565b6040805180830381865af4158015611646573d6000803e3d6000fd5b505050506040513d601f19601f8201168201806040525081019061166a91906132f2565b91509150816116c65760405162461bcd60e51b815260206004820152602260248201527f637573746f6d5363686564756c655661756c7473207661696c646174652066616044820152611a5b60f21b6064820152608401610773565b6116d0818661331e565b945050505b8851156117c45760008073__$b2d160aea0e65d5e83164dd2e3c22b89ec$__63a95614d68b6040518263ffffffff1660e01b815260040161171691906133c2565b6040805180830381865af4158015611732573d6000803e3d6000fd5b505050506040513d601f19601f8201168201806040525081019061175691906132f2565b91509150816117b55760405162461bcd60e51b815260206004820152602560248201527f637573746f6d4e6f6e5363686564756c655661756c7473207661696c646174656044820152640819985a5b60da1b6064820152608401610773565b6117bf818661331e565b945050505b8a83146118395760405162461bcd60e51b815260206004820152603560248201527f746f74616c416d6f756e7420697320646966666572656e742066726f6d20766160448201527f756c747320616c6c6f636174656420616d6f756e7400000000000000000000006064820152608401610773565b60008d90508c6008600083815260200190815260200160002060030160006101000a8154816001600160a01b0302191690836001600160a01b031602179055508c86606001906001600160a01b031690816001600160a01b031681525050600086604001518760600151838f8f8f8f6040516020016118be97969594939291906134b4565b60408051808303601f1901815282825260008581526008602052918220600201546370a0823160e01b845230600485015290935090916001600160a01b03909116906370a0823190602401602060405180830381865afa158015611926573d6000803e3d6000fd5b505050506040513d601f19601f8201168201806040525081019061194a9190613650565b90508760a001518111158015611966575060c088015160ff1615155b15611a6c5787604001516001600160a01b03166340c10f1930838b60a0015161198f9190613669565b6040516001600160e01b031960e085901b1681526001600160a01b0390921660048301526024820152604401600060405180830381600087803b1580156119d557600080fd5b505af11580156119e9573d6000803e3d6000fd5b505050600084815260086020526040908190206002015490516370a0823160e01b81523060048201526001600160a01b0390911691506370a0823190602401602060405180830381865afa158015611a45573d6000803e3d6000fd5b505050506040513d601f19601f82011682018060405250810190611a699190613650565b90505b8760a00151811015611ac05760405162461bcd60e51b815260206004820152601760248201527f62616c616e636520697320696e73756666696369656e740000000000000000006044820152606401610773565b6000600a60008a60e0015160ff1660ff1681526020019081526020016000206040518060800160405290816000820160009054906101000a90046001600160a01b03166001600160a01b03166001600160a01b031681526020016001820160009054906101000a90046001600160a01b03166001600160a01b03166001600160a01b031681526020016001820160149054906101000a900463ffffffff1663ffffffff1663ffffffff1681526020016001820160189054906101000a900463ffffffff1663ffffffff1663ffffffff16815250509050611bdf308a608001518b604001518c6060015185602001518e60a0015187604001518b604051602001611bcb91815260200190565b604051602081830303815290604052612261565b876001600160a01b0316633dbb202b826020015163142ef79660e01b86604051602401611c0c919061367c565b60408051601f198184030181529181526020820180517bffffffffffffffffffffffffffffffffffffffffffffffffffffffff166001600160e01b03199485161790526060870151905160e086901b9093168352611c6d939260040161368f565b600060405180830381600087803b158015611c8757600080fd5b505af1158015611c9b573d6000803e3d6000fd5b505050505050505050505050505050505050505050565b611cbb336107a9565b611d125760405162461bcd60e51b815260206004820152602260248201527f41636365737369626c653a2043616c6c6572206973206e6f7420616e2061646d60448201526134b760f11b6064820152608401610773565b6107a67fdf8b4c520ffe197c5343c6f5aec59570151ef9a492f2c624fd45ddde6135ec42826107e9565b611d45336107a9565b611d9c5760405162461bcd60e51b815260206004820152602260248201527f41636365737369626c653a2043616c6c6572206973206e6f7420616e2061646d60448201526134b760f11b6064820152608401610773565b6001600160a01b038116611df25760405162461bcd60e51b815260206004820152601860248201527f41636365737369626c653a207a65726f206164647265737300000000000000006044820152606401610773565b6001600160a01b0381163303611e4a5760405162461bcd60e51b815260206004820152601660248201527f41636365737369626c653a2073616d652061646d696e000000000000000000006044820152606401610773565b611e747fdf8b4c520ffe197c5343c6f5aec59570151ef9a492f2c624fd45ddde6135ec42826107e9565b6107a67fdf8b4c520ffe197c5343c6f5aec59570151ef9a492f2c624fd45ddde6135ec4233610813565b611ea7336107a9565b611efe5760405162461bcd60e51b815260206004820152602260248201527f41636365737369626c653a2043616c6c6572206973206e6f7420616e2061646d60448201526134b760f11b6064820152608401610773565b815115801590611f0f575080518251145b611f5b5760405162461bcd60e51b815260206004820152600c60248201527f77726f6e67206c656e67746800000000000000000000000000000000000000006044820152606401610773565b815160005b8181101561210757600460ff16848281518110611f7f57611f7f6136c7565b602002602001015160ff1610611fd75760405162461bcd60e51b815260206004820152601660248201527f756e737570706f7274656420746f6b656e2074797065000000000000000000006044820152606401610773565b828181518110611fe957611fe96136c7565b60200260200101516001600160a01b031660076000868481518110612010576120106136c7565b60209081029190910181015160ff168252810191909152604001600020546001600160a01b0316036120845760405162461bcd60e51b815260206004820152600c60248201527f73616d65206164647265737300000000000000000000000000000000000000006044820152606401610773565b828181518110612096576120966136c7565b6020026020010151600760008684815181106120b4576120b46136c7565b602002602001015160ff1660ff16815260200190815260200160002060006101000a8154816001600160a01b0302191690836001600160a01b0316021790555080806120ff90613004565b915050611f60565b50505050565b60008281526004602052604090206001015461212881612132565b61080e83836121de565b6107a681336124a0565b60008281526004602090815260408083206001600160a01b038516845290915290205460ff1661089b5760008281526004602090815260408083206001600160a01b03851684529091529020805460ff1916600117905561219a3390565b6001600160a01b0316816001600160a01b0316837f2f8788117e7eff1d82e926ec794901d17c78024a50270940304540a733656f0d60405160405180910390a45050565b60008281526004602090815260408083206001600160a01b038516845290915290205460ff161561089b5760008281526004602090815260408083206001600160a01b0385168085529252808320805460ff1916905551339285917ff6391f5c32d9c69d2a47ea670b442974b53935d1edc7fd64eb21e047a839171b9190a45050565b604051639da3176160e01b81526001600160a01b038816600482015260009073__$b2d160aea0e65d5e83164dd2e3c22b89ec$__90639da3176190602401602060405180830381865af41580156122bc573d6000803e3d6000fd5b505050506040513d601f19601f820116820180604052508101906122e09190612fd1565b90506001600160a01b0381166123385760405162461bcd60e51b815260206004820152601760248201527f6c31427269646765206973205a65726f416464726573730000000000000000006044820152606401610773565b604051636eb1769f60e11b81523060048201526001600160a01b0382811660248301526000919089169063dd62ed3e90604401602060405180830381865afa158015612388573d6000803e3d6000fd5b505050506040513d601f19601f820116820180604052508101906123ac9190613650565b90508481101561242c5760405163095ea7b360e01b81526001600160a01b038381166004830152600019602483015289169063095ea7b3906044016020604051808303816000875af1158015612406573d6000803e3d6000fd5b505050506040513d601f19601f8201168201806040525081019061242a91906136dd565b505b60405163041c592960e51b81526001600160a01b0383169063838b252090612462908b908b908b908b908b908b906004016136f8565b600060405180830381600087803b15801561247c57600080fd5b505af1158015612490573d6000803e3d6000fd5b5050505050505050505050505050565b60008281526004602090815260408083206001600160a01b038516845290915290205460ff1661089b576124d381612515565b6124de836020612527565b6040516020016124ef92919061374a565b60408051601f198184030181529082905262461bcd60e51b82526107739160040161367c565b60606106236001600160a01b03831660145b606060006125368360026137cb565b61254190600261331e565b67ffffffffffffffff81111561255957612559612850565b6040519080825280601f01601f191660200182016040528015612583576020820181803683370190505b509050600360fc1b8160008151811061259e5761259e6136c7565b60200101906001600160f81b031916908160001a905350600f60fb1b816001815181106125cd576125cd6136c7565b60200101906001600160f81b031916908160001a90535060006125f18460026137cb565b6125fc90600161331e565b90505b6001811115612681577f303132333435363738396162636465660000000000000000000000000000000085600f166010811061263d5761263d6136c7565b1a60f81b828281518110612653576126536136c7565b60200101906001600160f81b031916908160001a90535060049490941c9361267a816137e2565b90506125ff565b5083156126d05760405162461bcd60e51b815260206004820181905260248201527f537472696e67733a20686578206c656e67746820696e73756666696369656e746044820152606401610773565b9392505050565b6000602082840312156126e957600080fd5b81356001600160e01b0319811681146126d057600080fd5b60006020828403121561271357600080fd5b5035919050565b60005b8381101561273557818101518382015260200161271d565b50506000910152565b6000815180845261275681602086016020860161271a565b601f01601f19169290920160200192915050565b60006101206001600160a01b03808d168452808c166020850152808b166040850152808a1660608501528089166080850152508660a084015260ff861660c084015260ff851660e0840152806101008401526127c88184018561273e565b9c9b505050505050505050505050565b6001600160a01b03811681146107a657600080fd5b6000602082840312156127ff57600080fd5b81356126d0816127d8565b6000806040838503121561281d57600080fd5b82359150602083013561282f816127d8565b809150509250929050565b803560ff8116811461284b57600080fd5b919050565b634e487b7160e01b600052604160045260246000fd5b60405160c0810167ffffffffffffffff8111828210171561288957612889612850565b60405290565b60405160a0810167ffffffffffffffff8111828210171561288957612889612850565b604051601f8201601f1916810167ffffffffffffffff811182821017156128db576128db612850565b604052919050565b600082601f8301126128f457600080fd5b813567ffffffffffffffff81111561290e5761290e612850565b612921601f8201601f19166020016128b2565b81815284602083860101111561293657600080fd5b816020850160208301376000918101602001919091529392505050565b600080600080600080600060e0888a03121561296e57600080fd5b8735612979816127d8565b96506020880135612989816127d8565b95506040880135945061299e6060890161283a565b9350608088013567ffffffffffffffff808211156129bb57600080fd5b6129c78b838c016128e3565b945060a08a01359150808211156129dd57600080fd5b6129e98b838c016128e3565b935060c08a01359150808211156129ff57600080fd5b50612a0c8a828b016128e3565b91505092959891949750929550565b803563ffffffff8116811461284b57600080fd5b600080600080600060a08688031215612a4757600080fd5b612a508661283a565b94506020860135612a60816127d8565b93506040860135612a70816127d8565b9250612a7e60608701612a1b565b9150612a8c60808701612a1b565b90509295509295909350565b600060208284031215612aaa57600080fd5b6040516020810181811067ffffffffffffffff82111715612acd57612acd612850565b6040529135825250919050565b600060c08284031215612aec57600080fd5b612af4612866565b9050813581526020820135602082015260408201356040820152612b1a60608301612a1b565b6060820152612b2b60808301612a1b565b6080820152612b3c60a08301612a1b565b60a082015292915050565b600060e08284031215612b5957600080fd5b6040516040810181811067ffffffffffffffff82111715612b7c57612b7c612850565b6040529050808235612b8d816127d8565b8152612b9c8460208501612ada565b60208201525092915050565b600067ffffffffffffffff821115612bc257612bc2612850565b5060051b60200190565b600082601f830112612bdd57600080fd5b81356020612bf2612bed83612ba8565b6128b2565b82815260c09283028501820192828201919087851115612c1157600080fd5b8387015b85811015612c3457612c278982612ada565b8452928401928101612c15565b5090979650505050505050565b600082601f830112612c5257600080fd5b81356020612c62612bed83612ba8565b82815260059290921b84018101918181019086841115612c8157600080fd5b8286015b84811015612ca457612c978882612a98565b8352918301918301612c85565b509695505050505050565b6000806000806000808688036103e0811215612cca57600080fd5b873596506020880135612cdc816127d8565b955060408801359450610340605f1982011215612cf857600080fd5b612d0061288f565b612d0d8a60608b01612a98565b815260c0607f1983011215612d2157600080fd5b612d29612866565b91506080890135825260a0890135602083015260c0890135604083015260e08901356060830152610100890135608083015261012089013561ffff81168114612d7157600080fd5b60a083015260208101829052612d8b8a6101408b01612b47565b6040820152612d9e8a6102208b01612ada565b6060820152612db18a6102e08b01612ada565b60808201529350506103a087013567ffffffffffffffff80821115612dd557600080fd5b612de18a838b01612bcc565b93506103c0890135915080821115612df857600080fd5b50612e0589828a01612c41565b9150509295509295509295565b600082601f830112612e2357600080fd5b81356020612e33612bed83612ba8565b82815260059290921b84018101918181019086841115612e5257600080fd5b8286015b84811015612ca4578035612e69816127d8565b8352918301918301612e56565b60008060408385031215612e8957600080fd5b823567ffffffffffffffff80821115612ea157600080fd5b818501915085601f830112612eb557600080fd5b81356020612ec5612bed83612ba8565b82815260059290921b84018101918181019089841115612ee457600080fd5b948201945b83861015612f0957612efa8661283a565b82529482019490820190612ee9565b96505086013592505080821115612f1f57600080fd5b50612f2c85828601612e12565b9150509250929050565b600060208284031215612f4857600080fd5b6126d08261283a565b600181811c90821680612f6557607f821691505b602082108103612f8557634e487b7160e01b600052602260045260246000fd5b50919050565b608081526000612f9e608083018761273e565b8281036020840152612fb0818761273e565b9150508360408301526001600160a01b038316606083015295945050505050565b600060208284031215612fe357600080fd5b81516126d0816127d8565b634e487b7160e01b600052601160045260246000fd5b60006001820161301657613016612fee565b5060010190565b601f82111561080e57600081815260208120601f850160051c810160208610156130445750805b601f850160051c820191505b8181101561306357828155600101613050565b505050505050565b815167ffffffffffffffff81111561308557613085612850565b613099816130938454612f51565b8461301d565b602080601f8311600181146130ce57600084156130b65750858301515b600019600386901b1c1916600185901b178555613063565b600085815260208120601f198616915b828110156130fd578886015182559484019460019091019084016130de565b508582101561311b5787850151600019600388901b60f8161c191681555b5050505050600190811b01905550565b87815260006001600160a01b03808916602084015260e0604084015261315460e084018961273e565b8188166060850152838103608085015261316e818861273e565b91505082810360a0840152613183818661273e565b9150508260c083015298975050505050505050565b81515181526020808301516103408301916131ee90840182805182526020810151602083015260408101516040830152606081015160608301526080810151608083015261ffff60a08201511660a08301525050565b5060408381015180516001600160a01b031660e08501526020908101518051610100860152808201516101208601528083015161014086015260608082015163ffffffff908116610160880152608080840151821661018089015260a09384015182166101a08901528289015180516101c08a0152808601516101e08a0152808701516102008a01528084015183166102208a01528082015183166102408a01528401518216610260890152978801518051610280890152938401516102a0880152938301516102c087015282015183166102e0860152948101518216610300850152909301519092166103209091015290565b8051801515811461284b57600080fd5b6000806040838503121561330557600080fd5b61330e836132e2565b9150602083015190509250929050565b8082018082111561062357610623612fee565b6020808252825182820181905260009190848201906040850190845b818110156133b6576133a3838551805182526020810151602083015260408101516040830152606081015163ffffffff80821660608501528060808401511660808501528060a08401511660a085015250505050565b9284019260c0929092019160010161334d565b50909695505050505050565b6020808252825182820181905260009190848201906040850190845b818110156133b657835151835292840192918401916001016133de565b600081518084526020808501945080840160005b8381101561347857613465878351805182526020810151602083015260408101516040830152606081015163ffffffff80821660608501528060808401511660808501528060a08401511660a085015250505050565b60c096909601959082019060010161340f565b509495945050505050565b600081518084526020808501945080840160005b838110156134785781515187529582019590820190600101613497565b60006104006001600160a01b03808b168452808a1660208501528860408501528760608501528651516080850152602087015161352d60a0860182805182526020810151602083015260408101516040830152606081015160608301526080810151608083015261ffff60a08201511660a08301525050565b506040878101518051929092166101608601526020918201518051610180870152808301516101a0870152808201516101c087015260608082015163ffffffff9081166101e089015260808084015182166102008a015260a09384015182166102208a0152828c015180516102408b0152808701516102608b0152808601516102808b01528084015183166102a08b01528082015183166102c08b015284015182166102e08a0152808c015180516103008b0152958601516103208a0152938501516103408901529084015181166103608801529183015182166103808701529190910151166103a08401526103c0830181905261362d818401866133fb565b90508281036103e08401526136428185613483565b9a9950505050505050505050565b60006020828403121561366257600080fd5b5051919050565b8181038181111561062357610623612fee565b6020815260006126d0602083018461273e565b6001600160a01b03841681526060602082015260006136b1606083018561273e565b905063ffffffff83166040830152949350505050565b634e487b7160e01b600052603260045260246000fd5b6000602082840312156136ef57600080fd5b6126d0826132e2565b60006001600160a01b038089168352808816602084015280871660408401525084606083015263ffffffff8416608083015260c060a083015261373e60c083018461273e565b98975050505050505050565b7f416363657373436f6e74726f6c3a206163636f756e742000000000000000000081526000835161378281601785016020880161271a565b7f206973206d697373696e6720726f6c652000000000000000000000000000000060179184019182015283516137bf81602884016020880161271a565b01602801949350505050565b808202811582820484141761062357610623612fee565b6000816137f1576137f1612fee565b50600019019056fea164736f6c6343000812000a",
  "linkReferences": {
    "contracts/libraries/LibProject.sol": {
      "LibProject": [
        {
          "length": 20,
          "start": 5254
        },
        {
          "length": 20,
          "start": 5442
        },
        {
          "length": 20,
          "start": 5666
        },
        {
          "length": 20,
          "start": 5902
        },
        {
          "length": 20,
          "start": 8879
        }
      ]
    }
  },
  "deployedLinkReferences": {
    "contracts/libraries/LibProject.sol": {
      "LibProject": [
        {
          "length": 20,
          "start": 5209
        },
        {
          "length": 20,
          "start": 5397
        },
        {
          "length": 20,
          "start": 5621
        },
        {
          "length": 20,
          "start": 5857
        },
        {
          "length": 20,
          "start": 8834
        }
      ]
    }
  }
}