{
  "_format": "hh-sol-artifact-1",
  "contractName": "L1ProjectManager",
  "sourceName": "contracts/L1/L1ProjectManager.sol",
  "abi": [
    {
      "inputs": [],
      "stateMutability": "nonpayable",
      "type": "constructor"
    },
    {
      "anonymous": false,
      "inputs": [
        {
          "indexed": false,
          "internalType": "uint256",
          "name": "projectId",
          "type": "uint256"
        },
        {
          "indexed": false,
          "internalType": "address",
          "name": "l1Token",
          "type": "address"
        },
        {
          "indexed": false,
          "internalType": "string",
          "name": "projectName",
          "type": "string"
        },
        {
          "indexed": false,
          "internalType": "address",
          "name": "projectOwner",
          "type": "address"
        },
        {
          "indexed": false,
          "internalType": "string",
          "name": "tokenName",
          "type": "string"
        },
        {
          "indexed": false,
          "internalType": "string",
          "name": "tokenSymbol",
          "type": "string"
        },
        {
          "indexed": false,
          "internalType": "uint256",
          "name": "initialTotalSupply",
          "type": "uint256"
        }
      ],
      "name": "CreatedProject",
      "type": "event"
    },
    {
      "anonymous": false,
      "inputs": [
        {
          "indexed": true,
          "internalType": "bytes32",
          "name": "role",
          "type": "bytes32"
        },
        {
          "indexed": true,
          "internalType": "bytes32",
          "name": "previousAdminRole",
          "type": "bytes32"
        },
        {
          "indexed": true,
          "internalType": "bytes32",
          "name": "newAdminRole",
          "type": "bytes32"
        }
      ],
      "name": "RoleAdminChanged",
      "type": "event"
    },
    {
      "anonymous": false,
      "inputs": [
        {
          "indexed": true,
          "internalType": "bytes32",
          "name": "role",
          "type": "bytes32"
        },
        {
          "indexed": true,
          "internalType": "address",
          "name": "account",
          "type": "address"
        },
        {
          "indexed": true,
          "internalType": "address",
          "name": "sender",
          "type": "address"
        }
      ],
      "name": "RoleGranted",
      "type": "event"
    },
    {
      "anonymous": false,
      "inputs": [
        {
          "indexed": true,
          "internalType": "bytes32",
          "name": "role",
          "type": "bytes32"
        },
        {
          "indexed": true,
          "internalType": "address",
          "name": "account",
          "type": "address"
        },
        {
          "indexed": true,
          "internalType": "address",
          "name": "sender",
          "type": "address"
        }
      ],
      "name": "RoleRevoked",
      "type": "event"
    },
    {
      "anonymous": false,
      "inputs": [
        {
          "indexed": false,
          "internalType": "uint256",
          "name": "projectId",
          "type": "uint256"
        },
        {
          "indexed": false,
          "internalType": "uint8",
          "name": "l2Type",
          "type": "uint8"
        },
        {
          "indexed": false,
          "internalType": "address",
          "name": "addressManager",
          "type": "address"
        },
        {
          "indexed": false,
          "internalType": "address",
          "name": "l2Token",
          "type": "address"
        }
      ],
      "name": "SetL2Token",
      "type": "event"
    },
    {
      "anonymous": false,
      "inputs": [
        {
          "indexed": false,
          "internalType": "uint8",
          "name": "l2Type",
          "type": "uint8"
        },
        {
          "indexed": false,
          "internalType": "address",
          "name": "_l2TokenFactory",
          "type": "address"
        }
      ],
      "name": "SetL2TokenFactory",
      "type": "event"
    },
    {
      "inputs": [],
      "name": "ADMIN_ROLE",
      "outputs": [
        {
          "internalType": "bytes32",
          "name": "",
          "type": "bytes32"
        }
      ],
      "stateMutability": "view",
      "type": "function"
    },
    {
      "inputs": [],
      "name": "DEFAULT_ADMIN_ROLE",
      "outputs": [
        {
          "internalType": "bytes32",
          "name": "",
          "type": "bytes32"
        }
      ],
      "stateMutability": "view",
      "type": "function"
    },
    {
      "inputs": [],
      "name": "POLICY_ROLE",
      "outputs": [
        {
          "internalType": "bytes32",
          "name": "",
          "type": "bytes32"
        }
      ],
      "stateMutability": "view",
      "type": "function"
    },
    {
      "inputs": [
        {
          "internalType": "address",
          "name": "account",
          "type": "address"
        }
      ],
      "name": "addAdmin",
      "outputs": [],
      "stateMutability": "nonpayable",
      "type": "function"
    },
    {
      "inputs": [
        {
          "internalType": "address",
          "name": "",
          "type": "address"
        }
      ],
      "name": "aliveImplementation",
      "outputs": [
        {
          "internalType": "bool",
          "name": "",
          "type": "bool"
        }
      ],
      "stateMutability": "view",
      "type": "function"
    },
    {
      "inputs": [
        {
          "internalType": "address",
          "name": "tokenOwner",
          "type": "address"
        },
        {
          "internalType": "address",
          "name": "projectOwner",
          "type": "address"
        },
        {
          "internalType": "uint256",
          "name": "initialTotalSupply",
          "type": "uint256"
        },
        {
          "internalType": "uint8",
          "name": "tokenType",
          "type": "uint8"
        },
        {
          "internalType": "string",
          "name": "projectName",
          "type": "string"
        },
        {
          "internalType": "string",
          "name": "tokenName",
          "type": "string"
        },
        {
          "internalType": "string",
          "name": "tokenSymbol",
          "type": "string"
        }
      ],
      "name": "createProject",
      "outputs": [
        {
          "internalType": "uint256",
          "name": "",
          "type": "uint256"
        }
      ],
      "stateMutability": "nonpayable",
      "type": "function"
    },
    {
      "inputs": [
        {
          "internalType": "address",
          "name": "tokenOwner",
          "type": "address"
        },
        {
          "internalType": "address",
          "name": "projectOwner",
          "type": "address"
        },
        {
          "internalType": "uint256",
          "name": "initialTotalSupply",
          "type": "uint256"
        },
        {
          "internalType": "uint8",
          "name": "tokenType",
          "type": "uint8"
        },
        {
          "internalType": "string",
          "name": "projectName",
          "type": "string"
        },
        {
          "internalType": "string",
          "name": "tokenName",
          "type": "string"
        },
        {
          "internalType": "string",
          "name": "tokenSymbol",
          "type": "string"
        }
      ],
      "name": "createProjectTest",
      "outputs": [
        {
          "internalType": "uint256",
          "name": "",
          "type": "uint256"
        }
      ],
      "stateMutability": "nonpayable",
      "type": "function"
    },
    {
      "inputs": [
        {
          "internalType": "uint256",
          "name": "projectId",
          "type": "uint256"
        },
        {
          "internalType": "uint256",
          "name": "amount",
          "type": "uint256"
        },
        {
          "internalType": "uint32",
          "name": "_depositMinGasLimit",
          "type": "uint32"
        },
        {
          "internalType": "uint32",
          "name": "_setMinGasLimit",
          "type": "uint32"
        }
      ],
      "name": "depositAndSetL2Vaults",
      "outputs": [],
      "stateMutability": "nonpayable",
      "type": "function"
    },
    {
      "inputs": [
        {
          "internalType": "uint256",
          "name": "projectId",
          "type": "uint256"
        },
        {
          "internalType": "uint256",
          "name": "amount",
          "type": "uint256"
        },
        {
          "internalType": "uint32",
          "name": "_minGasLimit",
          "type": "uint32"
        }
      ],
      "name": "depositL1TokenToL2",
      "outputs": [],
      "stateMutability": "nonpayable",
      "type": "function"
    },
    {
      "inputs": [
        {
          "internalType": "bytes32",
          "name": "role",
          "type": "bytes32"
        }
      ],
      "name": "getRoleAdmin",
      "outputs": [
        {
          "internalType": "bytes32",
          "name": "",
          "type": "bytes32"
        }
      ],
      "stateMutability": "view",
      "type": "function"
    },
    {
      "inputs": [
        {
          "internalType": "bytes32",
          "name": "role",
          "type": "bytes32"
        },
        {
          "internalType": "address",
          "name": "account",
          "type": "address"
        }
      ],
      "name": "grantRole",
      "outputs": [],
      "stateMutability": "nonpayable",
      "type": "function"
    },
    {
      "inputs": [
        {
          "internalType": "bytes32",
          "name": "role",
          "type": "bytes32"
        },
        {
          "internalType": "address",
          "name": "account",
          "type": "address"
        }
      ],
      "name": "hasRole",
      "outputs": [
        {
          "internalType": "bool",
          "name": "",
          "type": "bool"
        }
      ],
      "stateMutability": "view",
      "type": "function"
    },
    {
      "inputs": [
        {
          "internalType": "address",
          "name": "account",
          "type": "address"
        }
      ],
      "name": "isAdmin",
      "outputs": [
        {
          "internalType": "bool",
          "name": "",
          "type": "bool"
        }
      ],
      "stateMutability": "view",
      "type": "function"
    },
    {
      "inputs": [
        {
          "internalType": "uint8",
          "name": "",
          "type": "uint8"
        }
      ],
      "name": "l1TokenFactory",
      "outputs": [
        {
          "internalType": "address",
          "name": "",
          "type": "address"
        }
      ],
      "stateMutability": "view",
      "type": "function"
    },
    {
      "inputs": [
        {
          "internalType": "uint8",
          "name": "",
          "type": "uint8"
        }
      ],
      "name": "l2ProjectManager",
      "outputs": [
        {
          "internalType": "address",
          "name": "",
          "type": "address"
        }
      ],
      "stateMutability": "view",
      "type": "function"
    },
    {
      "inputs": [
        {
          "internalType": "uint8",
          "name": "",
          "type": "uint8"
        }
      ],
      "name": "l2TokenFactory",
      "outputs": [
        {
          "internalType": "address",
          "name": "",
          "type": "address"
        }
      ],
      "stateMutability": "view",
      "type": "function"
    },
    {
      "inputs": [],
      "name": "pauseProxy",
      "outputs": [
        {
          "internalType": "bool",
          "name": "",
          "type": "bool"
        }
      ],
      "stateMutability": "view",
      "type": "function"
    },
    {
      "inputs": [],
      "name": "projectCount",
      "outputs": [
        {
          "internalType": "uint256",
          "name": "",
          "type": "uint256"
        }
      ],
      "stateMutability": "view",
      "type": "function"
    },
    {
      "inputs": [
        {
          "internalType": "address",
          "name": "",
          "type": "address"
        }
      ],
      "name": "projectTokens",
      "outputs": [
        {
          "internalType": "uint256",
          "name": "",
          "type": "uint256"
        }
      ],
      "stateMutability": "view",
      "type": "function"
    },
    {
      "inputs": [
        {
          "internalType": "uint256",
          "name": "",
          "type": "uint256"
        }
      ],
      "name": "projects",
      "outputs": [
        {
          "internalType": "address",
          "name": "projectOwner",
          "type": "address"
        },
        {
          "internalType": "address",
          "name": "tokenOwner",
          "type": "address"
        },
        {
          "internalType": "address",
          "name": "l1Token",
          "type": "address"
        },
        {
          "internalType": "address",
          "name": "l2Token",
          "type": "address"
        },
        {
          "internalType": "address",
          "name": "addressManager",
          "type": "address"
        },
        {
          "internalType": "uint256",
          "name": "initialTotalSupply",
          "type": "uint256"
        },
        {
          "internalType": "uint8",
          "name": "tokenType",
          "type": "uint8"
        },
        {
          "internalType": "uint8",
          "name": "l2Type",
          "type": "uint8"
        },
        {
          "internalType": "string",
          "name": "projectName",
          "type": "string"
        }
      ],
      "stateMutability": "view",
      "type": "function"
    },
    {
      "inputs": [
        {
          "internalType": "uint256",
          "name": "",
          "type": "uint256"
        }
      ],
      "name": "proxyImplementation",
      "outputs": [
        {
          "internalType": "address",
          "name": "",
          "type": "address"
        }
      ],
      "stateMutability": "view",
      "type": "function"
    },
    {
      "inputs": [
        {
          "internalType": "address",
          "name": "account",
          "type": "address"
        }
      ],
      "name": "removeAdmin",
      "outputs": [],
      "stateMutability": "nonpayable",
      "type": "function"
    },
    {
      "inputs": [
        {
          "internalType": "bytes32",
          "name": "role",
          "type": "bytes32"
        },
        {
          "internalType": "address",
          "name": "account",
          "type": "address"
        }
      ],
      "name": "renounceRole",
      "outputs": [],
      "stateMutability": "nonpayable",
      "type": "function"
    },
    {
      "inputs": [
        {
          "internalType": "bytes32",
          "name": "role",
          "type": "bytes32"
        },
        {
          "internalType": "address",
          "name": "account",
          "type": "address"
        }
      ],
      "name": "revokeRole",
      "outputs": [],
      "stateMutability": "nonpayable",
      "type": "function"
    },
    {
      "inputs": [
        {
          "internalType": "bytes4",
          "name": "",
          "type": "bytes4"
        }
      ],
      "name": "selectorImplementation",
      "outputs": [
        {
          "internalType": "address",
          "name": "",
          "type": "address"
        }
      ],
      "stateMutability": "view",
      "type": "function"
    },
    {
      "inputs": [
        {
          "internalType": "uint8[]",
          "name": "tokenTypes",
          "type": "uint8[]"
        },
        {
          "internalType": "address[]",
          "name": "_l1TokenFactorys",
          "type": "address[]"
        }
      ],
      "name": "setL1TokenFactories",
      "outputs": [],
      "stateMutability": "nonpayable",
      "type": "function"
    },
    {
      "inputs": [
        {
          "internalType": "uint256",
          "name": "projectId",
          "type": "uint256"
        }
      ],
      "name": "setL1Vaults",
      "outputs": [],
      "stateMutability": "nonpayable",
      "type": "function"
    },
    {
      "inputs": [
        {
          "internalType": "uint8",
          "name": "l2Type",
          "type": "uint8"
        },
        {
          "internalType": "address",
          "name": "_l2ProjectManager",
          "type": "address"
        }
      ],
      "name": "setL2ProjectManager",
      "outputs": [],
      "stateMutability": "nonpayable",
      "type": "function"
    },
    {
      "inputs": [
        {
          "internalType": "uint256",
          "name": "projectId",
          "type": "uint256"
        },
        {
          "internalType": "uint8",
          "name": "l2Type",
          "type": "uint8"
        },
        {
          "internalType": "address",
          "name": "addressManager",
          "type": "address"
        },
        {
          "internalType": "address",
          "name": "l2Token",
          "type": "address"
        }
      ],
      "name": "setL2Token",
      "outputs": [],
      "stateMutability": "nonpayable",
      "type": "function"
    },
    {
      "inputs": [
        {
          "internalType": "uint8",
          "name": "l2Type",
          "type": "uint8"
        },
        {
          "internalType": "address",
          "name": "_l2TokenFactory",
          "type": "address"
        }
      ],
      "name": "setL2TokenFactory",
      "outputs": [],
      "stateMutability": "nonpayable",
      "type": "function"
    },
    {
      "inputs": [
        {
          "internalType": "uint256",
          "name": "projectId",
          "type": "uint256"
        },
        {
          "internalType": "uint32",
          "name": "_minGasLimit",
          "type": "uint32"
        }
      ],
      "name": "setL2Vaults",
      "outputs": [],
      "stateMutability": "nonpayable",
      "type": "function"
    },
    {
      "inputs": [
        {
          "internalType": "bytes4",
          "name": "interfaceId",
          "type": "bytes4"
        }
      ],
      "name": "supportsInterface",
      "outputs": [
        {
          "internalType": "bool",
          "name": "",
          "type": "bool"
        }
      ],
      "stateMutability": "view",
      "type": "function"
    },
    {
      "inputs": [
        {
          "internalType": "address",
          "name": "newAdmin",
          "type": "address"
        }
      ],
      "name": "transferAdmin",
      "outputs": [],
      "stateMutability": "nonpayable",
      "type": "function"
    }
  ],
  "bytecode": "0x60806040526005805460ff1916600117905534801561001d57600080fd5b50612c5e8061002d6000396000f3fe608060405234801561001057600080fd5b506004361061020b5760003560e01c806350d2a2761161012a578063846fa8f8116100bd578063b4a35e0f1161008c578063b98b44be11610071578063b98b44be14610554578063d547741f14610567578063ea705fe11461057a57600080fd5b8063b4a35e0f14610502578063b911135f1461052b57600080fd5b8063846fa8f81461048e57806391d14854146104a15780639cba9848146104da578063a217fddf146104fa57600080fd5b80636b26075f116100f95780636b26075f1461042e578063704802751461044157806375829def1461045457806375b238fc1461046757600080fd5b806350d2a27614610394578063550d01a3146103d557806360a56387146103f857806363a8fd891461042157600080fd5b806324d7806c116101a257806336568abe1161017157806336568abe1461035257806336fbad26146103655780633fe77b521461036e5780634c37d1701461038157600080fd5b806324d7806c146103065780632f2ff15d1461031957806331cea8521461032c5780633471fd621461033f57600080fd5b80631081056d116101de5780631081056d146102965780631785f53c146102a957806322985246146102bc578063248a9ca3146102e357600080fd5b806301ffc9a71461021057806305b54f761461023857806306f97c6b14610259578063107046bd1461026e575b600080fd5b61022361021e3660046122d0565b6105a3565b60405190151581526020015b60405180910390f35b61024b6102463660046123dc565b6105da565b60405190815260200161022f565b61026c6102673660046124a4565b610a80565b005b61028161027c3660046124db565b610c26565b60405161022f99989796959493929190612544565b61026c6102a43660046125c6565b610d16565b61026c6102b736600461260c565b610d31565b61024b7ffb5864e8ff833c3cb2d2d08505e82ff02a43554c74a35d4f5a64e8526127831181565b61024b6102f13660046124db565b60009081526004602052604090206001015490565b61022361031436600461260c565b610dbe565b61026c610327366004612629565b610dfe565b61026c61033a3660046124a4565b610e28565b61026c61034d3660046124db565b610fc5565b61026c610360366004612629565b611053565b61024b60065481565b61024b61037c3660046123dc565b6110db565b61026c61038f36600461264e565b61127e565b6103bd6103a23660046122d0565b6003602052600090815260409020546001600160a01b031681565b6040516001600160a01b03909116815260200161022f565b6102236103e336600461260c565b60026020526000908152604090205460ff1681565b6103bd61040636600461267a565b600a602052600090815260409020546001600160a01b031681565b6000546102239060ff1681565b61026c61043c366004612695565b61153a565b61026c61044f36600461260c565b61177e565b61026c61046236600461260c565b611808565b61024b7fdf8b4c520ffe197c5343c6f5aec59570151ef9a492f2c624fd45ddde6135ec4281565b61026c61049c36600461277e565b61196a565b6102236104af366004612629565b60009182526004602090815260408084206001600160a01b0393909316845291905290205460ff1690565b61024b6104e836600461260c565b60086020526000908152604090205481565b61024b600081565b6103bd61051036600461267a565b600b602052600090815260409020546001600160a01b031681565b6103bd6105393660046124db565b6001602052600090815260409020546001600160a01b031681565b61026c61056236600461283e565b611bd3565b61026c610575366004612629565b611f45565b6103bd61058836600461267a565b6009602052600090815260409020546001600160a01b031681565b60006001600160e01b03198216637965db0b60e01b14806105d457506301ffc9a760e01b6001600160e01b03198316145b92915050565b600083516000036106285760405162461bcd60e51b81526020600482015260136024820152721c1c9bda9958dd13985b59481a5cc81b9d5b1b606a1b60448201526064015b60405180910390fd5b825160000361066d5760405162461bcd60e51b81526020600482015260116024820152701d1bdad95b93985b59481a5cc81b9d5b1b607a1b604482015260640161061f565b81516000036106b45760405162461bcd60e51b81526020600482015260136024820152721d1bdad95b94de5b589bdb081a5cc81b9d5b1b606a1b604482015260640161061f565b600460ff86161080156106e1575060ff85166000908152600b60205260409020546001600160a01b031615155b61073c5760405162461bcd60e51b815260206004820152602660248201527f77726f6e6720746f6b656e54797065206f72207a65726f206c31546f6b656e466044820152656163746f727960d01b606482015260840161061f565b60ff85166000908152600b6020526040808220549051634692ed6760e01b81526001600160a01b0390911690634692ed679061078290879087908c908f90600401612873565b6020604051808303816000875af11580156107a1573d6000803e3d6000fd5b505050506040513d601f19601f820116820180604052508101906107c591906128b9565b90506001600160a01b03811661081d5760405162461bcd60e51b815260206004820152601160248201527f7a65726f2070726f6a656374546f6b656e000000000000000000000000000000604482015260640161061f565b600060066000815461082e906128ec565b91905081905590506040518061012001604052808a6001600160a01b031681526020018b6001600160a01b03168152602001836001600160a01b0316815260200160006001600160a01b0316815260200160006001600160a01b031681526020018981526020018860ff168152602001600060ff168152602001878152506007600083815260200190815260200160002060008201518160000160006101000a8154816001600160a01b0302191690836001600160a01b0316021790555060208201518160010160006101000a8154816001600160a01b0302191690836001600160a01b0316021790555060408201518160020160006101000a8154816001600160a01b0302191690836001600160a01b0316021790555060608201518160030160006101000a8154816001600160a01b0302191690836001600160a01b0316021790555060808201518160040160006101000a8154816001600160a01b0302191690836001600160a01b0316021790555060a0820151816005015560c08201518160060160006101000a81548160ff021916908360ff16021790555060e08201518160060160016101000a81548160ff021916908360ff160217905550610100820151816007019081610a02919061298d565b509050508060086000846001600160a01b03166001600160a01b03168152602001908152602001600020819055507fad546778b372cf07d504d745ff3f6617a7cb979f81dcaa5dec9285d4f352f4a48183888c89898e604051610a6b9796959493929190612a4d565b60405180910390a19998505050505050505050565b806001600160a01b038116610abc5760405162461bcd60e51b81526020600482015260026024820152612d1960f11b604482015260640161061f565b610ac533610dbe565b610b1c5760405162461bcd60e51b815260206004820152602260248201527f41636365737369626c653a2043616c6c6572206973206e6f7420616e2061646d60448201526134b760f11b606482015260840161061f565b600260ff841610610b645760405162461bcd60e51b8152602060048201526012602482015271756e737570706f72746564206c325479706560701b604482015260640161061f565b60ff83166000908152600960205260409020546001600160a01b03808416911603610bba5760405162461bcd60e51b815260040161061f9060208082526004908201526373616d6560e01b604082015260600190565b60ff831660008181526009602090815260409182902080546001600160a01b0319166001600160a01b0387169081179091558251938452908301527f4ce5841de2ab44f9233226712ac91f4f817aaf31f171cff2e729cd275c997c1591015b60405180910390a1505050565b6007602081905260009182526040909120805460018201546002830154600384015460048501546005860154600687015497870180546001600160a01b03978816999688169895881697948516969390941694919360ff80851694610100900416929190610c9390612905565b80601f0160208091040260200160405190810160405280929190818152602001828054610cbf90612905565b8015610d0c5780601f10610ce157610100808354040283529160200191610d0c565b820191906000526020600020905b815481529060010190602001808311610cef57829003601f168201915b5050505050905089565b610d21848484611bd3565b610d2b848261127e565b50505050565b610d3a33610dbe565b610d915760405162461bcd60e51b815260206004820152602260248201527f41636365737369626c653a2043616c6c6572206973206e6f7420616e2061646d60448201526134b760f11b606482015260840161061f565b610dbb7fdf8b4c520ffe197c5343c6f5aec59570151ef9a492f2c624fd45ddde6135ec4282611053565b50565b6001600160a01b03811660009081527f2fb794d17134dfdec181ddbac1babb5ab1eb140204ef4d982f294e7fc8b69022602052604081205460ff166105d4565b600082815260046020526040902060010154610e1981611f6a565b610e238383611f74565b505050565b806001600160a01b038116610e645760405162461bcd60e51b81526020600482015260026024820152612d1960f11b604482015260640161061f565b610e6d33610dbe565b610ec45760405162461bcd60e51b815260206004820152602260248201527f41636365737369626c653a2043616c6c6572206973206e6f7420616e2061646d60448201526134b760f11b606482015260840161061f565b600260ff841610610f0c5760405162461bcd60e51b8152602060048201526012602482015271756e737570706f72746564206c325479706560701b604482015260640161061f565b60ff83166000908152600a60205260409020546001600160a01b03808416911603610f625760405162461bcd60e51b815260040161061f9060208082526004908201526373616d6560e01b604082015260600190565b60ff83166000818152600a602090815260409182902080546001600160a01b0319166001600160a01b0387169081179091558251938452908301527f4ce5841de2ab44f9233226712ac91f4f817aaf31f171cff2e729cd275c997c159101610c19565b60008181526007602052604090205481906001600160a01b03161580159061100357506000818152600760205260409020546001600160a01b031633145b61104f5760405162461bcd60e51b815260206004820152601b60248201527f63616c6c6572206973206e6f742070726f6a6563744f776e65722e0000000000604482015260640161061f565b5050565b6001600160a01b03811633146110d15760405162461bcd60e51b815260206004820152602f60248201527f416363657373436f6e74726f6c3a2063616e206f6e6c792072656e6f756e636560448201527f20726f6c657320666f722073656c660000000000000000000000000000000000606482015260840161061f565b61104f8282612016565b600083516000036111245760405162461bcd60e51b81526020600482015260136024820152721c1c9bda9958dd13985b59481a5cc81b9d5b1b606a1b604482015260640161061f565b82516000036111695760405162461bcd60e51b81526020600482015260116024820152701d1bdad95b93985b59481a5cc81b9d5b1b607a1b604482015260640161061f565b81516000036111b05760405162461bcd60e51b81526020600482015260136024820152721d1bdad95b94de5b589bdb081a5cc81b9d5b1b606a1b604482015260640161061f565b600460ff86161080156111dd575060ff85166000908152600b60205260409020546001600160a01b031615155b6112385760405162461bcd60e51b815260206004820152602660248201527f77726f6e6720746f6b656e54797065206f72207a65726f206c31546f6b656e466044820152656163746f727960d01b606482015260840161061f565b60ff85166000908152600b6020526040808220549051634692ed6760e01b81526001600160a01b0390911690634692ed679061078290879087908c903090600401612873565b600082815260076020908152604080832060060154610100900460ff168352600a9091529020546001600160a01b0316806112e05760405162461bcd60e51b81526020600482015260026024820152612d1960f11b604482015260640161061f565b60008381526007602052604090205483906001600160a01b03161580159061131e57506000818152600760205260409020546001600160a01b031633145b61136a5760405162461bcd60e51b815260206004820152601b60248201527f63616c6c6572206973206e6f742070726f6a6563744f776e65722e0000000000604482015260640161061f565b600084815260076020526040808220600490810154915163507c8bd160e01b81526001600160a01b039092169082015273__$b2d160aea0e65d5e83164dd2e3c22b89ec$__9063507c8bd190602401602060405180830381865af41580156113d6573d6000803e3d6000fd5b505050506040513d601f19601f820116820180604052508101906113fa91906128b9565b90506001600160a01b0381166114525760405162461bcd60e51b815260206004820152601a60248201527f6c314d657373656e676572206973205a65726f41646472657373000000000000604482015260640161061f565b6000858152600760209081526040808320600381015482516001600160a01b03918216602480830191909152845180830390910181526044909101845280850180517bffffffffffffffffffffffffffffffffffffffffffffffffffffffff166370a0823160e01b179052600690920154610100900460ff168552600a90935292819020549051633dbb202b60e01b815284831692633dbb202b926115009291169085908a90600401612aba565b600060405180830381600087803b15801561151a57600080fd5b505af115801561152e573d6000803e3d6000fd5b50505050505050505050565b816001600160a01b0381166115765760405162461bcd60e51b81526020600482015260026024820152612d1960f11b604482015260640161061f565b816001600160a01b0381166115b25760405162461bcd60e51b81526020600482015260026024820152612d1960f11b604482015260640161061f565b60008681526007602052604090205486906001600160a01b0316158015906115f057506000818152600760205260409020546001600160a01b031633145b61163c5760405162461bcd60e51b815260206004820152601b60248201527f63616c6c6572206973206e6f742070726f6a6563744f776e65722e0000000000604482015260640161061f565b600260ff8716106116845760405162461bcd60e51b8152602060048201526012602482015271756e737570706f72746564206c325479706560701b604482015260640161061f565b600087815260076020526040902060048101546001600160a01b0387811691161415806116c1575060038101546001600160a01b03868116911614155b6116f75760405162461bcd60e51b815260206004820152600760248201526639b0b6b290261960c91b604482015260640161061f565b6004810180546001600160a01b038881166001600160a01b03199283168117909355600384018054918916919092168117909155604080518b815260ff8b1660208201529081019290925260608201527feef668b97de8f00ed775f0550c05cafbbf888c91387a9db4bca845d9da5fbf709060800160405180910390a15050505050505050565b61178733610dbe565b6117de5760405162461bcd60e51b815260206004820152602260248201527f41636365737369626c653a2043616c6c6572206973206e6f7420616e2061646d60448201526134b760f11b606482015260840161061f565b610dbb7fdf8b4c520ffe197c5343c6f5aec59570151ef9a492f2c624fd45ddde6135ec4282610dfe565b61181133610dbe565b6118685760405162461bcd60e51b815260206004820152602260248201527f41636365737369626c653a2043616c6c6572206973206e6f7420616e2061646d60448201526134b760f11b606482015260840161061f565b6001600160a01b0381166118be5760405162461bcd60e51b815260206004820152601860248201527f41636365737369626c653a207a65726f20616464726573730000000000000000604482015260640161061f565b6001600160a01b03811633036119165760405162461bcd60e51b815260206004820152601660248201527f41636365737369626c653a2073616d652061646d696e00000000000000000000604482015260640161061f565b6119407fdf8b4c520ffe197c5343c6f5aec59570151ef9a492f2c624fd45ddde6135ec4282610dfe565b610dbb7fdf8b4c520ffe197c5343c6f5aec59570151ef9a492f2c624fd45ddde6135ec4233611053565b61197333610dbe565b6119ca5760405162461bcd60e51b815260206004820152602260248201527f41636365737369626c653a2043616c6c6572206973206e6f7420616e2061646d60448201526134b760f11b606482015260840161061f565b8151158015906119db575080518251145b611a275760405162461bcd60e51b815260206004820152600c60248201527f77726f6e67206c656e6774680000000000000000000000000000000000000000604482015260640161061f565b815160005b81811015610d2b57600460ff16848281518110611a4b57611a4b612af2565b602002602001015160ff1610611aa35760405162461bcd60e51b815260206004820152601660248201527f756e737570706f7274656420746f6b656e207479706500000000000000000000604482015260640161061f565b828181518110611ab557611ab5612af2565b60200260200101516001600160a01b0316600b6000868481518110611adc57611adc612af2565b60209081029190910181015160ff168252810191909152604001600020546001600160a01b031603611b505760405162461bcd60e51b815260206004820152600c60248201527f73616d6520616464726573730000000000000000000000000000000000000000604482015260640161061f565b828181518110611b6257611b62612af2565b6020026020010151600b6000868481518110611b8057611b80612af2565b602002602001015160ff1660ff16815260200190815260200160002060006101000a8154816001600160a01b0302191690836001600160a01b031602179055508080611bcb906128ec565b915050611a2c565b600083815260076020908152604080832060060154610100900460ff168352600a9091529020546001600160a01b031680611c355760405162461bcd60e51b81526020600482015260026024820152612d1960f11b604482015260640161061f565b6000848152600760205260409020600301546001600160a01b031680611c825760405162461bcd60e51b81526020600482015260026024820152612d1960f11b604482015260640161061f565b60008581526007602052604090205485906001600160a01b031615801590611cc057506000818152600760205260409020546001600160a01b031633145b611d0c5760405162461bcd60e51b815260206004820152601b60248201527f63616c6c6572206973206e6f742070726f6a6563744f776e65722e0000000000604482015260640161061f565b6000868152600760205260408082206004908101549151639da3176160e01b81526001600160a01b039092169082015273__$b2d160aea0e65d5e83164dd2e3c22b89ec$__90639da3176190602401602060405180830381865af4158015611d78573d6000803e3d6000fd5b505050506040513d601f19601f82011682018060405250810190611d9c91906128b9565b90506001600160a01b038116611df45760405162461bcd60e51b815260206004820152601760248201527f6c31427269646765206973205a65726f41646472657373000000000000000000604482015260640161061f565b600087815260076020526040908190206002810154600590910154915163095ea7b360e01b81526001600160a01b038481166004830152602482019390935291169063095ea7b3906044016020604051808303816000875af1158015611e5e573d6000803e3d6000fd5b505050506040513d601f19601f82011682018060405250810190611e829190612b08565b50600087815260076020908152604080832060028101546003820154600690920154610100900460ff168552600a8452938290205482518085018d9052835180820390950185528084019384905263041c592960e51b9093526001600160a01b038681169563838b252095611f0a959183169483169392909216918d918d9190604401612b2a565b600060405180830381600087803b158015611f2457600080fd5b505af1158015611f38573d6000803e3d6000fd5b5050505050505050505050565b600082815260046020526040902060010154611f6081611f6a565b610e238383612016565b610dbb8133612099565b60008281526004602090815260408083206001600160a01b038516845290915290205460ff1661104f5760008281526004602090815260408083206001600160a01b03851684529091529020805460ff19166001179055611fd23390565b6001600160a01b0316816001600160a01b0316837f2f8788117e7eff1d82e926ec794901d17c78024a50270940304540a733656f0d60405160405180910390a45050565b60008281526004602090815260408083206001600160a01b038516845290915290205460ff161561104f5760008281526004602090815260408083206001600160a01b0385168085529252808320805460ff1916905551339285917ff6391f5c32d9c69d2a47ea670b442974b53935d1edc7fd64eb21e047a839171b9190a45050565b60008281526004602090815260408083206001600160a01b038516845290915290205460ff1661104f576120cc8161210e565b6120d7836020612120565b6040516020016120e8929190612b7c565b60408051601f198184030181529082905262461bcd60e51b825261061f91600401612bfd565b60606105d46001600160a01b03831660145b6060600061212f836002612c10565b61213a906002612c27565b67ffffffffffffffff81111561215257612152612325565b6040519080825280601f01601f19166020018201604052801561217c576020820181803683370190505b509050600360fc1b8160008151811061219757612197612af2565b60200101906001600160f81b031916908160001a905350600f60fb1b816001815181106121c6576121c6612af2565b60200101906001600160f81b031916908160001a90535060006121ea846002612c10565b6121f5906001612c27565b90505b600181111561227a577f303132333435363738396162636465660000000000000000000000000000000085600f166010811061223657612236612af2565b1a60f81b82828151811061224c5761224c612af2565b60200101906001600160f81b031916908160001a90535060049490941c9361227381612c3a565b90506121f8565b5083156122c95760405162461bcd60e51b815260206004820181905260248201527f537472696e67733a20686578206c656e67746820696e73756666696369656e74604482015260640161061f565b9392505050565b6000602082840312156122e257600080fd5b81356001600160e01b0319811681146122c957600080fd5b6001600160a01b0381168114610dbb57600080fd5b803560ff8116811461232057600080fd5b919050565b634e487b7160e01b600052604160045260246000fd5b604051601f8201601f1916810167ffffffffffffffff8111828210171561236457612364612325565b604052919050565b600082601f83011261237d57600080fd5b813567ffffffffffffffff81111561239757612397612325565b6123aa601f8201601f191660200161233b565b8181528460208386010111156123bf57600080fd5b816020850160208301376000918101602001919091529392505050565b600080600080600080600060e0888a0312156123f757600080fd5b8735612402816122fa565b96506020880135612412816122fa565b9550604088013594506124276060890161230f565b9350608088013567ffffffffffffffff8082111561244457600080fd5b6124508b838c0161236c565b945060a08a013591508082111561246657600080fd5b6124728b838c0161236c565b935060c08a013591508082111561248857600080fd5b506124958a828b0161236c565b91505092959891949750929550565b600080604083850312156124b757600080fd5b6124c08361230f565b915060208301356124d0816122fa565b809150509250929050565b6000602082840312156124ed57600080fd5b5035919050565b60005b8381101561250f5781810151838201526020016124f7565b50506000910152565b600081518084526125308160208601602086016124f4565b601f01601f19169290920160200192915050565b60006101206001600160a01b03808d168452808c166020850152808b166040850152808a1660608501528089166080850152508660a084015260ff861660c084015260ff851660e0840152806101008401526125a281840185612518565b9c9b505050505050505050505050565b803563ffffffff8116811461232057600080fd5b600080600080608085870312156125dc57600080fd5b84359350602085013592506125f3604086016125b2565b9150612601606086016125b2565b905092959194509250565b60006020828403121561261e57600080fd5b81356122c9816122fa565b6000806040838503121561263c57600080fd5b8235915060208301356124d0816122fa565b6000806040838503121561266157600080fd5b82359150612671602084016125b2565b90509250929050565b60006020828403121561268c57600080fd5b6122c98261230f565b600080600080608085870312156126ab57600080fd5b843593506126bb6020860161230f565b925060408501356126cb816122fa565b915060608501356126db816122fa565b939692955090935050565b600067ffffffffffffffff82111561270057612700612325565b5060051b60200190565b600082601f83011261271b57600080fd5b8135602061273061272b836126e6565b61233b565b82815260059290921b8401810191818101908684111561274f57600080fd5b8286015b84811015612773578035612766816122fa565b8352918301918301612753565b509695505050505050565b6000806040838503121561279157600080fd5b823567ffffffffffffffff808211156127a957600080fd5b818501915085601f8301126127bd57600080fd5b813560206127cd61272b836126e6565b82815260059290921b840181019181810190898411156127ec57600080fd5b948201945b83861015612811576128028661230f565b825294820194908201906127f1565b9650508601359250508082111561282757600080fd5b506128348582860161270a565b9150509250929050565b60008060006060848603121561285357600080fd5b833592506020840135915061286a604085016125b2565b90509250925092565b6080815260006128866080830187612518565b82810360208401526128988187612518565b9150508360408301526001600160a01b038316606083015295945050505050565b6000602082840312156128cb57600080fd5b81516122c9816122fa565b634e487b7160e01b600052601160045260246000fd5b6000600182016128fe576128fe6128d6565b5060010190565b600181811c9082168061291957607f821691505b60208210810361293957634e487b7160e01b600052602260045260246000fd5b50919050565b601f821115610e2357600081815260208120601f850160051c810160208610156129665750805b601f850160051c820191505b8181101561298557828155600101612972565b505050505050565b815167ffffffffffffffff8111156129a7576129a7612325565b6129bb816129b58454612905565b8461293f565b602080601f8311600181146129f057600084156129d85750858301515b600019600386901b1c1916600185901b178555612985565b600085815260208120601f198616915b82811015612a1f57888601518255948401946001909101908401612a00565b5085821015612a3d5787850151600019600388901b60f8161c191681555b5050505050600190811b01905550565b87815260006001600160a01b03808916602084015260e06040840152612a7660e0840189612518565b81881660608501528381036080850152612a908188612518565b91505082810360a0840152612aa58186612518565b9150508260c083015298975050505050505050565b6001600160a01b0384168152606060208201526000612adc6060830185612518565b905063ffffffff83166040830152949350505050565b634e487b7160e01b600052603260045260246000fd5b600060208284031215612b1a57600080fd5b815180151581146122c957600080fd5b60006001600160a01b038089168352808816602084015280871660408401525084606083015263ffffffff8416608083015260c060a0830152612b7060c0830184612518565b98975050505050505050565b7f416363657373436f6e74726f6c3a206163636f756e7420000000000000000000815260008351612bb48160178501602088016124f4565b7f206973206d697373696e6720726f6c65200000000000000000000000000000006017918401918201528351612bf18160288401602088016124f4565b01602801949350505050565b6020815260006122c96020830184612518565b80820281158282048414176105d4576105d46128d6565b808201808211156105d4576105d46128d6565b600081612c4957612c496128d6565b50600019019056fea164736f6c6343000812000a",
  "linkReferences": {
    "contracts/libraries/LibProject.sol": {
      "LibProject": [
        {
          "length": 20,
          "start": 5065
        },
        {
          "length": 20,
          "start": 7531
        }
      ]
    }
  },
  "deployedLinkReferences": {
    "contracts/libraries/LibProject.sol": {
      "LibProject": [
        {
          "length": 20,
          "start": 5020
        },
        {
          "length": 20,
          "start": 7486
        }
      ]
    }
  }
}