{
  "_format": "hh-sol-artifact-1",
  "contractName": "L1ProjectManager",
  "sourceName": "contracts/L1/L1ProjectManager.sol",
  "abi": [
    {
      "inputs": [],
      "stateMutability": "nonpayable",
      "type": "constructor"
    },
    {
      "anonymous": false,
      "inputs": [
        {
          "indexed": false,
          "internalType": "address",
          "name": "l1Token",
          "type": "address"
        },
        {
          "indexed": false,
          "internalType": "uint256",
          "name": "projectId",
          "type": "uint256"
        },
        {
          "indexed": false,
          "internalType": "address",
          "name": "tokenOwner",
          "type": "address"
        },
        {
          "indexed": false,
          "internalType": "address",
          "name": "projectOwner",
          "type": "address"
        },
        {
          "indexed": false,
          "internalType": "address",
          "name": "addressManager",
          "type": "address"
        },
        {
          "indexed": false,
          "internalType": "uint256",
          "name": "initialTotalSupply",
          "type": "uint256"
        },
        {
          "indexed": false,
          "internalType": "string",
          "name": "projectName",
          "type": "string"
        },
        {
          "indexed": false,
          "internalType": "string",
          "name": "tokenName",
          "type": "string"
        },
        {
          "indexed": false,
          "internalType": "string",
          "name": "tokenSymbol",
          "type": "string"
        }
      ],
      "name": "CreatedProject",
      "type": "event"
    },
    {
      "anonymous": false,
      "inputs": [
        {
          "indexed": false,
          "internalType": "uint256",
          "name": "projectId",
          "type": "uint256"
        },
        {
          "indexed": false,
          "internalType": "address",
          "name": "l1Token",
          "type": "address"
        },
        {
          "indexed": false,
          "internalType": "address",
          "name": "l2Token",
          "type": "address"
        },
        {
          "indexed": false,
          "internalType": "uint256",
          "name": "totalAmount",
          "type": "uint256"
        }
      ],
      "name": "LaunchedProject",
      "type": "event"
    },
    {
      "anonymous": false,
      "inputs": [
        {
          "indexed": true,
          "internalType": "bytes32",
          "name": "role",
          "type": "bytes32"
        },
        {
          "indexed": true,
          "internalType": "bytes32",
          "name": "previousAdminRole",
          "type": "bytes32"
        },
        {
          "indexed": true,
          "internalType": "bytes32",
          "name": "newAdminRole",
          "type": "bytes32"
        }
      ],
      "name": "RoleAdminChanged",
      "type": "event"
    },
    {
      "anonymous": false,
      "inputs": [
        {
          "indexed": true,
          "internalType": "bytes32",
          "name": "role",
          "type": "bytes32"
        },
        {
          "indexed": true,
          "internalType": "address",
          "name": "account",
          "type": "address"
        },
        {
          "indexed": true,
          "internalType": "address",
          "name": "sender",
          "type": "address"
        }
      ],
      "name": "RoleGranted",
      "type": "event"
    },
    {
      "anonymous": false,
      "inputs": [
        {
          "indexed": true,
          "internalType": "bytes32",
          "name": "role",
          "type": "bytes32"
        },
        {
          "indexed": true,
          "internalType": "address",
          "name": "account",
          "type": "address"
        },
        {
          "indexed": true,
          "internalType": "address",
          "name": "sender",
          "type": "address"
        }
      ],
      "name": "RoleRevoked",
      "type": "event"
    },
    {
      "anonymous": false,
      "inputs": [
        {
          "indexed": false,
          "internalType": "uint8",
          "name": "l2Type",
          "type": "uint8"
        },
        {
          "indexed": false,
          "internalType": "address",
          "name": "l2TokenFactory",
          "type": "address"
        },
        {
          "indexed": false,
          "internalType": "address",
          "name": "l2ProjectManager",
          "type": "address"
        },
        {
          "indexed": false,
          "internalType": "uint32",
          "name": "depositMinGasLimit",
          "type": "uint32"
        },
        {
          "indexed": false,
          "internalType": "uint32",
          "name": "sendMsgMinGasLimit",
          "type": "uint32"
        }
      ],
      "name": "SetL2Infos",
      "type": "event"
    },
    {
      "anonymous": false,
      "inputs": [
        {
          "indexed": false,
          "internalType": "uint256",
          "name": "projectId",
          "type": "uint256"
        },
        {
          "indexed": false,
          "internalType": "uint8",
          "name": "l2Type",
          "type": "uint8"
        },
        {
          "indexed": false,
          "internalType": "address",
          "name": "addressManager",
          "type": "address"
        },
        {
          "indexed": false,
          "internalType": "address",
          "name": "l2Token",
          "type": "address"
        }
      ],
      "name": "SetL2Token",
      "type": "event"
    },
    {
      "inputs": [],
      "name": "ADMIN_ROLE",
      "outputs": [
        {
          "internalType": "bytes32",
          "name": "",
          "type": "bytes32"
        }
      ],
      "stateMutability": "view",
      "type": "function"
    },
    {
      "inputs": [],
      "name": "DEFAULT_ADMIN_ROLE",
      "outputs": [
        {
          "internalType": "bytes32",
          "name": "",
          "type": "bytes32"
        }
      ],
      "stateMutability": "view",
      "type": "function"
    },
    {
      "inputs": [],
      "name": "POLICY_ROLE",
      "outputs": [
        {
          "internalType": "bytes32",
          "name": "",
          "type": "bytes32"
        }
      ],
      "stateMutability": "view",
      "type": "function"
    },
    {
      "inputs": [
        {
          "internalType": "address",
          "name": "account",
          "type": "address"
        }
      ],
      "name": "addAdmin",
      "outputs": [],
      "stateMutability": "nonpayable",
      "type": "function"
    },
    {
      "inputs": [
        {
          "internalType": "address",
          "name": "",
          "type": "address"
        }
      ],
      "name": "aliveImplementation",
      "outputs": [
        {
          "internalType": "bool",
          "name": "",
          "type": "bool"
        }
      ],
      "stateMutability": "view",
      "type": "function"
    },
    {
      "inputs": [
        {
          "internalType": "address",
          "name": "tokenOwner",
          "type": "address"
        },
        {
          "internalType": "address",
          "name": "projectOwner",
          "type": "address"
        },
        {
          "internalType": "address",
          "name": "addressManager",
          "type": "address"
        },
        {
          "internalType": "uint256",
          "name": "initialTotalSupply",
          "type": "uint256"
        },
        {
          "internalType": "uint8",
          "name": "tokenType",
          "type": "uint8"
        },
        {
          "internalType": "string",
          "name": "projectName",
          "type": "string"
        },
        {
          "internalType": "string",
          "name": "tokenName",
          "type": "string"
        },
        {
          "internalType": "string",
          "name": "tokenSymbol",
          "type": "string"
        }
      ],
      "name": "createProject",
      "outputs": [
        {
          "internalType": "uint256",
          "name": "",
          "type": "uint256"
        }
      ],
      "stateMutability": "nonpayable",
      "type": "function"
    },
    {
      "inputs": [
        {
          "internalType": "bytes32",
          "name": "role",
          "type": "bytes32"
        }
      ],
      "name": "getRoleAdmin",
      "outputs": [
        {
          "internalType": "bytes32",
          "name": "",
          "type": "bytes32"
        }
      ],
      "stateMutability": "view",
      "type": "function"
    },
    {
      "inputs": [
        {
          "internalType": "bytes32",
          "name": "role",
          "type": "bytes32"
        },
        {
          "internalType": "address",
          "name": "account",
          "type": "address"
        }
      ],
      "name": "grantRole",
      "outputs": [],
      "stateMutability": "nonpayable",
      "type": "function"
    },
    {
      "inputs": [
        {
          "internalType": "bytes32",
          "name": "role",
          "type": "bytes32"
        },
        {
          "internalType": "address",
          "name": "account",
          "type": "address"
        }
      ],
      "name": "hasRole",
      "outputs": [
        {
          "internalType": "bool",
          "name": "",
          "type": "bool"
        }
      ],
      "stateMutability": "view",
      "type": "function"
    },
    {
      "inputs": [
        {
          "internalType": "address",
          "name": "account",
          "type": "address"
        }
      ],
      "name": "isAdmin",
      "outputs": [
        {
          "internalType": "bool",
          "name": "",
          "type": "bool"
        }
      ],
      "stateMutability": "view",
      "type": "function"
    },
    {
      "inputs": [
        {
          "internalType": "uint8",
          "name": "",
          "type": "uint8"
        }
      ],
      "name": "l1TokenFactory",
      "outputs": [
        {
          "internalType": "address",
          "name": "",
          "type": "address"
        }
      ],
      "stateMutability": "view",
      "type": "function"
    },
    {
      "inputs": [
        {
          "internalType": "uint8",
          "name": "",
          "type": "uint8"
        }
      ],
      "name": "l2Info",
      "outputs": [
        {
          "internalType": "address",
          "name": "l2TokenFactory",
          "type": "address"
        },
        {
          "internalType": "address",
          "name": "l2ProjectManager",
          "type": "address"
        },
        {
          "internalType": "uint32",
          "name": "depositMinGasLimit",
          "type": "uint32"
        },
        {
          "internalType": "uint32",
          "name": "sendMsgMinGasLimit",
          "type": "uint32"
        }
      ],
      "stateMutability": "view",
      "type": "function"
    },
    {
      "inputs": [
        {
          "internalType": "uint256",
          "name": "projectId",
          "type": "uint256"
        },
        {
          "internalType": "address",
          "name": "l2Token",
          "type": "address"
        },
        {
          "internalType": "uint256",
          "name": "totalAmount",
          "type": "uint256"
        },
        {
          "components": [
            {
              "components": [
                {
                  "components": [
                    {
                      "internalType": "uint256",
                      "name": "stosTier1",
                      "type": "uint256"
                    },
                    {
                      "internalType": "uint256",
                      "name": "stosTier2",
                      "type": "uint256"
                    },
                    {
                      "internalType": "uint256",
                      "name": "stosTier3",
                      "type": "uint256"
                    },
                    {
                      "internalType": "uint256",
                      "name": "stosTier4",
                      "type": "uint256"
                    },
                    {
                      "internalType": "uint256",
                      "name": "tier1Percents",
                      "type": "uint256"
                    },
                    {
                      "internalType": "uint256",
                      "name": "tier2Percents",
                      "type": "uint256"
                    },
                    {
                      "internalType": "uint256",
                      "name": "tier3Percents",
                      "type": "uint256"
                    },
                    {
                      "internalType": "uint256",
                      "name": "tier4Percents",
                      "type": "uint256"
                    },
                    {
                      "internalType": "uint256",
                      "name": "total1roundSaleAmount",
                      "type": "uint256"
                    },
                    {
                      "internalType": "uint256",
                      "name": "total2roundSaleAmount",
                      "type": "uint256"
                    },
                    {
                      "internalType": "uint256",
                      "name": "saleTokenPrice",
                      "type": "uint256"
                    },
                    {
                      "internalType": "uint256",
                      "name": "payTokenPrice",
                      "type": "uint256"
                    },
                    {
                      "internalType": "uint256",
                      "name": "hardcapAmount",
                      "type": "uint256"
                    },
                    {
                      "internalType": "uint256",
                      "name": "changeTOSPercent",
                      "type": "uint256"
                    },
                    {
                      "internalType": "uint256",
                      "name": "startWhiteTime",
                      "type": "uint256"
                    },
                    {
                      "internalType": "uint256",
                      "name": "endWhiteTime",
                      "type": "uint256"
                    },
                    {
                      "internalType": "uint256",
                      "name": "start1roundTime",
                      "type": "uint256"
                    },
                    {
                      "internalType": "uint256",
                      "name": "end1roundTime",
                      "type": "uint256"
                    },
                    {
                      "internalType": "uint256",
                      "name": "snapshotTime",
                      "type": "uint256"
                    },
                    {
                      "internalType": "uint256",
                      "name": "start2roundTime",
                      "type": "uint256"
                    },
                    {
                      "internalType": "uint256",
                      "name": "end2roundTime",
                      "type": "uint256"
                    },
                    {
                      "internalType": "uint256",
                      "name": "claimCounts",
                      "type": "uint256"
                    }
                  ],
                  "internalType": "struct LibProject.InitalParameterPublicSaleVault",
                  "name": "vaultParams",
                  "type": "tuple"
                },
                {
                  "components": [
                    {
                      "internalType": "uint256[]",
                      "name": "claimTimes",
                      "type": "uint256[]"
                    },
                    {
                      "internalType": "uint256[]",
                      "name": "claimPercents",
                      "type": "uint256[]"
                    }
                  ],
                  "internalType": "struct LibProject.InitalParameterPublicSaleClaim",
                  "name": "claimParams",
                  "type": "tuple"
                }
              ],
              "internalType": "struct LibProject.InitalParameterPublicSale",
              "name": "publicSaleParams",
              "type": "tuple"
            },
            {
              "components": [
                {
                  "internalType": "uint256",
                  "name": "totalAllocatedAmount",
                  "type": "uint256"
                },
                {
                  "internalType": "uint256",
                  "name": "tosPrice",
                  "type": "uint256"
                },
                {
                  "internalType": "uint256",
                  "name": "tokenPrice",
                  "type": "uint256"
                },
                {
                  "internalType": "uint256",
                  "name": "initSqrtPrice",
                  "type": "uint256"
                },
                {
                  "internalType": "uint32",
                  "name": "startTime",
                  "type": "uint32"
                },
                {
                  "internalType": "uint16",
                  "name": "fee",
                  "type": "uint16"
                }
              ],
              "internalType": "struct LibProject.InitalParameterInitialLiquidityVault",
              "name": "initialVaultParams",
              "type": "tuple"
            },
            {
              "components": [
                {
                  "components": [
                    {
                      "internalType": "address",
                      "name": "token0",
                      "type": "address"
                    },
                    {
                      "internalType": "address",
                      "name": "token1",
                      "type": "address"
                    },
                    {
                      "internalType": "uint24",
                      "name": "fee",
                      "type": "uint24"
                    }
                  ],
                  "internalType": "struct LibPool.PoolInfo",
                  "name": "poolParams",
                  "type": "tuple"
                },
                {
                  "components": [
                    {
                      "internalType": "address",
                      "name": "claimer",
                      "type": "address"
                    },
                    {
                      "internalType": "uint256",
                      "name": "totalAllocatedAmount",
                      "type": "uint256"
                    },
                    {
                      "internalType": "uint256",
                      "name": "totalClaimCount",
                      "type": "uint256"
                    },
                    {
                      "internalType": "uint256",
                      "name": "firstClaimAmount",
                      "type": "uint256"
                    },
                    {
                      "internalType": "uint32",
                      "name": "firstClaimTime",
                      "type": "uint32"
                    },
                    {
                      "internalType": "uint32",
                      "name": "secondClaimTime",
                      "type": "uint32"
                    },
                    {
                      "internalType": "uint32",
                      "name": "roundIntervalTime",
                      "type": "uint32"
                    }
                  ],
                  "internalType": "struct LibProject.InitalParameterScheduleVault",
                  "name": "params",
                  "type": "tuple"
                }
              ],
              "internalType": "struct LibProject.InitalParameterLiquidityRewardVault",
              "name": "rewardParams",
              "type": "tuple"
            },
            {
              "components": [
                {
                  "internalType": "address",
                  "name": "claimer",
                  "type": "address"
                },
                {
                  "internalType": "uint256",
                  "name": "totalAllocatedAmount",
                  "type": "uint256"
                },
                {
                  "internalType": "uint256",
                  "name": "totalClaimCount",
                  "type": "uint256"
                },
                {
                  "internalType": "uint256",
                  "name": "firstClaimAmount",
                  "type": "uint256"
                },
                {
                  "internalType": "uint32",
                  "name": "firstClaimTime",
                  "type": "uint32"
                },
                {
                  "internalType": "uint32",
                  "name": "secondClaimTime",
                  "type": "uint32"
                },
                {
                  "internalType": "uint32",
                  "name": "roundIntervalTime",
                  "type": "uint32"
                }
              ],
              "internalType": "struct LibProject.InitalParameterScheduleVault",
              "name": "tosAirdropParams",
              "type": "tuple"
            },
            {
              "components": [
                {
                  "internalType": "address",
                  "name": "claimer",
                  "type": "address"
                },
                {
                  "internalType": "uint256",
                  "name": "totalAllocatedAmount",
                  "type": "uint256"
                },
                {
                  "internalType": "uint256",
                  "name": "totalClaimCount",
                  "type": "uint256"
                },
                {
                  "internalType": "uint256",
                  "name": "firstClaimAmount",
                  "type": "uint256"
                },
                {
                  "internalType": "uint32",
                  "name": "firstClaimTime",
                  "type": "uint32"
                },
                {
                  "internalType": "uint32",
                  "name": "secondClaimTime",
                  "type": "uint32"
                },
                {
                  "internalType": "uint32",
                  "name": "roundIntervalTime",
                  "type": "uint32"
                }
              ],
              "internalType": "struct LibProject.InitalParameterScheduleVault",
              "name": "tonAirdropParams",
              "type": "tuple"
            }
          ],
          "internalType": "struct LibProject.TokamakVaults",
          "name": "tokamakVaults",
          "type": "tuple"
        },
        {
          "components": [
            {
              "internalType": "string",
              "name": "vaultName",
              "type": "string"
            },
            {
              "components": [
                {
                  "internalType": "address",
                  "name": "claimer",
                  "type": "address"
                },
                {
                  "internalType": "uint256",
                  "name": "totalAllocatedAmount",
                  "type": "uint256"
                },
                {
                  "internalType": "uint256",
                  "name": "totalClaimCount",
                  "type": "uint256"
                },
                {
                  "internalType": "uint256",
                  "name": "firstClaimAmount",
                  "type": "uint256"
                },
                {
                  "internalType": "uint32",
                  "name": "firstClaimTime",
                  "type": "uint32"
                },
                {
                  "internalType": "uint32",
                  "name": "secondClaimTime",
                  "type": "uint32"
                },
                {
                  "internalType": "uint32",
                  "name": "roundIntervalTime",
                  "type": "uint32"
                }
              ],
              "internalType": "struct LibProject.InitalParameterScheduleVault",
              "name": "params",
              "type": "tuple"
            }
          ],
          "internalType": "struct LibProject.InitalParameterSchedule[]",
          "name": "customScheduleVaults",
          "type": "tuple[]"
        },
        {
          "components": [
            {
              "internalType": "string",
              "name": "vaultName",
              "type": "string"
            },
            {
              "internalType": "address",
              "name": "claimer",
              "type": "address"
            },
            {
              "internalType": "uint256",
              "name": "totalAllocatedAmount",
              "type": "uint256"
            }
          ],
          "internalType": "struct LibProject.InitalParameterNonScheduleVault[]",
          "name": "customNonScheduleVaults",
          "type": "tuple[]"
        }
      ],
      "name": "launchProject",
      "outputs": [],
      "stateMutability": "nonpayable",
      "type": "function"
    },
    {
      "inputs": [],
      "name": "pauseProxy",
      "outputs": [
        {
          "internalType": "bool",
          "name": "",
          "type": "bool"
        }
      ],
      "stateMutability": "view",
      "type": "function"
    },
    {
      "inputs": [],
      "name": "projectCount",
      "outputs": [
        {
          "internalType": "uint256",
          "name": "",
          "type": "uint256"
        }
      ],
      "stateMutability": "view",
      "type": "function"
    },
    {
      "inputs": [
        {
          "internalType": "address",
          "name": "",
          "type": "address"
        }
      ],
      "name": "projectTokens",
      "outputs": [
        {
          "internalType": "uint256",
          "name": "",
          "type": "uint256"
        }
      ],
      "stateMutability": "view",
      "type": "function"
    },
    {
      "inputs": [
        {
          "internalType": "uint256",
          "name": "",
          "type": "uint256"
        }
      ],
      "name": "projects",
      "outputs": [
        {
          "internalType": "address",
          "name": "projectOwner",
          "type": "address"
        },
        {
          "internalType": "address",
          "name": "tokenOwner",
          "type": "address"
        },
        {
          "internalType": "address",
          "name": "l1Token",
          "type": "address"
        },
        {
          "internalType": "address",
          "name": "l2Token",
          "type": "address"
        },
        {
          "internalType": "address",
          "name": "addressManager",
          "type": "address"
        },
        {
          "internalType": "uint256",
          "name": "initialTotalSupply",
          "type": "uint256"
        },
        {
          "internalType": "uint8",
          "name": "tokenType",
          "type": "uint8"
        },
        {
          "internalType": "uint8",
          "name": "l2Type",
          "type": "uint8"
        },
        {
          "internalType": "string",
          "name": "projectName",
          "type": "string"
        }
      ],
      "stateMutability": "view",
      "type": "function"
    },
    {
      "inputs": [
        {
          "internalType": "uint256",
          "name": "",
          "type": "uint256"
        }
      ],
      "name": "proxyImplementation",
      "outputs": [
        {
          "internalType": "address",
          "name": "",
          "type": "address"
        }
      ],
      "stateMutability": "view",
      "type": "function"
    },
    {
      "inputs": [
        {
          "internalType": "address",
          "name": "account",
          "type": "address"
        }
      ],
      "name": "removeAdmin",
      "outputs": [],
      "stateMutability": "nonpayable",
      "type": "function"
    },
    {
      "inputs": [
        {
          "internalType": "bytes32",
          "name": "role",
          "type": "bytes32"
        },
        {
          "internalType": "address",
          "name": "account",
          "type": "address"
        }
      ],
      "name": "renounceRole",
      "outputs": [],
      "stateMutability": "nonpayable",
      "type": "function"
    },
    {
      "inputs": [
        {
          "internalType": "bytes32",
          "name": "role",
          "type": "bytes32"
        },
        {
          "internalType": "address",
          "name": "account",
          "type": "address"
        }
      ],
      "name": "revokeRole",
      "outputs": [],
      "stateMutability": "nonpayable",
      "type": "function"
    },
    {
      "inputs": [
        {
          "internalType": "bytes4",
          "name": "",
          "type": "bytes4"
        }
      ],
      "name": "selectorImplementation",
      "outputs": [
        {
          "internalType": "address",
          "name": "",
          "type": "address"
        }
      ],
      "stateMutability": "view",
      "type": "function"
    },
    {
      "inputs": [
        {
          "internalType": "uint8[]",
          "name": "tokenTypes",
          "type": "uint8[]"
        },
        {
          "internalType": "address[]",
          "name": "_l1TokenFactorys",
          "type": "address[]"
        }
      ],
      "name": "setL1TokenFactories",
      "outputs": [],
      "stateMutability": "nonpayable",
      "type": "function"
    },
    {
      "inputs": [
        {
          "internalType": "uint8",
          "name": "l2Type",
          "type": "uint8"
        },
        {
          "internalType": "address",
          "name": "_l2TokenFactory",
          "type": "address"
        },
        {
          "internalType": "address",
          "name": "_l2ProjectManager",
          "type": "address"
        },
        {
          "internalType": "uint32",
          "name": "_depositMinGasLimit",
          "type": "uint32"
        },
        {
          "internalType": "uint32",
          "name": "_sendMsgMinGasLimit",
          "type": "uint32"
        }
      ],
      "name": "setL2Infos",
      "outputs": [],
      "stateMutability": "nonpayable",
      "type": "function"
    },
    {
      "inputs": [
        {
          "internalType": "bytes4",
          "name": "interfaceId",
          "type": "bytes4"
        }
      ],
      "name": "supportsInterface",
      "outputs": [
        {
          "internalType": "bool",
          "name": "",
          "type": "bool"
        }
      ],
      "stateMutability": "view",
      "type": "function"
    },
    {
      "inputs": [
        {
          "internalType": "address",
          "name": "newAdmin",
          "type": "address"
        }
      ],
      "name": "transferAdmin",
      "outputs": [],
      "stateMutability": "nonpayable",
      "type": "function"
    },
    {
      "inputs": [
        {
          "internalType": "uint8",
          "name": "_l2Type",
          "type": "uint8"
        }
      ],
      "name": "viewL2Info",
      "outputs": [
        {
          "components": [
            {
              "internalType": "address",
              "name": "l2TokenFactory",
              "type": "address"
            },
            {
              "internalType": "address",
              "name": "l2ProjectManager",
              "type": "address"
            },
            {
              "internalType": "uint32",
              "name": "depositMinGasLimit",
              "type": "uint32"
            },
            {
              "internalType": "uint32",
              "name": "sendMsgMinGasLimit",
              "type": "uint32"
            }
          ],
          "internalType": "struct LibProject.L2Info",
          "name": "",
          "type": "tuple"
        }
      ],
      "stateMutability": "view",
      "type": "function"
    }
  ],
  "bytecode": "0x60806040526005805460ff1916600117905534801561001d57600080fd5b50613e248061002d6000396000f3fe608060405234801561001057600080fd5b50600436106101b95760003560e01c806370480275116100f95780639cba984811610097578063b851550c11610071578063b851550c146104c2578063b911135f146105a3578063d547741f146105cc578063ffe2d4e7146105df57600080fd5b80639cba984814610471578063a217fddf14610491578063b4a35e0f1461049957600080fd5b806375b238fc116100d357806375b238fc1461037a578063846fa8f8146103a1578063902293ab146103b457806391d148541461043857600080fd5b8063704802751461034157806374918e841461035457806375829def1461036757600080fd5b80632f2ff15d1161016657806350d2a2761161014057806350d2a276146102bd578063550d01a3146102fe57806363a8fd891461032157806368f52eb31461032e57600080fd5b80632f2ff15d1461028e57806336568abe146102a157806336fbad26146102b457600080fd5b806322985246116101975780632298524614610223578063248a9ca31461025857806324d7806c1461027b57600080fd5b806301ffc9a7146101be578063107046bd146101e65780631785f53c1461020e575b600080fd5b6101d16101cc3660046127b2565b6105f2565b60405190151581526020015b60405180910390f35b6101f96101f43660046127dc565b610629565b6040516101dd99989796959493929190612845565b61022161021c3660046128d8565b610717565b005b61024a7ffb5864e8ff833c3cb2d2d08505e82ff02a43554c74a35d4f5a64e8526127831181565b6040519081526020016101dd565b61024a6102663660046127dc565b60009081526004602052604090206001015490565b6101d16102893660046128d8565b6107a9565b61022161029c3660046128f5565b6107e9565b6102216102af3660046128f5565b610813565b61024a60065481565b6102e66102cb3660046127b2565b6003602052600090815260409020546001600160a01b031681565b6040516001600160a01b0390911681526020016101dd565b6101d161030c3660046128d8565b60026020526000908152604090205460ff1681565b6000546101d19060ff1681565b61022161033c36600461294a565b61089f565b61022161034f3660046128d8565b610cad565b61024a610362366004612afd565b610d37565b6102216103753660046128d8565b61126d565b61024a7fdf8b4c520ffe197c5343c6f5aec59570151ef9a492f2c624fd45ddde6135ec4281565b6102216103af366004612c6a565b6113cf565b6104016103c2366004612d2a565b600a60205260009081526040902080546001909101546001600160a01b039182169181169063ffffffff600160a01b8204811691600160c01b90041684565b604080516001600160a01b03958616815294909316602085015263ffffffff918216928401929092521660608201526080016101dd565b6101d16104463660046128f5565b60009182526004602090815260408084206001600160a01b0393909316845291905290205460ff1690565b61024a61047f3660046128d8565b60096020526000908152604090205481565b61024a600081565b6102e66104a7366004612d2a565b6007602052600090815260409020546001600160a01b031681565b6105586104d0366004612d2a565b6040805160808101825260008082526020820181905291810182905260608101919091525060ff166000908152600a6020908152604091829020825160808101845281546001600160a01b0390811682526001909201549182169281019290925263ffffffff600160a01b8204811693830193909352600160c01b9004909116606082015290565b6040805182516001600160a01b039081168252602080850151909116908201528282015163ffffffff90811692820192909252606092830151909116918101919091526080016101dd565b6102e66105b13660046127dc565b6001602052600090815260409020546001600160a01b031681565b6102216105da3660046128f5565b61163e565b6102216105ed36600461316a565b611663565b60006001600160e01b03198216637965db0b60e01b148061062357506301ffc9a760e01b6001600160e01b03198316145b92915050565b600860205260009081526040902080546001820154600283015460038401546004850154600586015460068701546007880180546001600160a01b039889169997891698968716979587169690941694929360ff8084169461010090940416929190610694906133d7565b80601f01602080910402602001604051908101604052809291908181526020018280546106c0906133d7565b801561070d5780601f106106e25761010080835404028352916020019161070d565b820191906000526020600020905b8154815290600101906020018083116106f057829003601f168201915b5050505050905089565b610720336107a9565b61077c5760405162461bcd60e51b815260206004820152602260248201527f41636365737369626c653a2043616c6c6572206973206e6f7420616e2061646d60448201526134b760f11b60648201526084015b60405180910390fd5b6107a67fdf8b4c520ffe197c5343c6f5aec59570151ef9a492f2c624fd45ddde6135ec4282610813565b50565b6001600160a01b03811660009081527f2fb794d17134dfdec181ddbac1babb5ab1eb140204ef4d982f294e7fc8b69022602052604081205460ff16610623565b6000828152600460205260409020600101546108048161220d565b61080e8383612217565b505050565b6001600160a01b03811633146108915760405162461bcd60e51b815260206004820152602f60248201527f416363657373436f6e74726f6c3a2063616e206f6e6c792072656e6f756e636560448201527f20726f6c657320666f722073656c6600000000000000000000000000000000006064820152608401610773565b61089b82826122b9565b5050565b836001600160a01b0381166108db5760405162461bcd60e51b81526020600482015260026024820152612d1960f11b6044820152606401610773565b836001600160a01b0381166109175760405162461bcd60e51b81526020600482015260026024820152612d1960f11b6044820152606401610773565b8363ffffffff16806000036109535760405162461bcd60e51b81526020600482015260026024820152615a3160f01b6044820152606401610773565b8363ffffffff168060000361098f5760405162461bcd60e51b81526020600482015260026024820152615a3160f01b6044820152606401610773565b610998336107a9565b6109ef5760405162461bcd60e51b815260206004820152602260248201527f41636365737369626c653a2043616c6c6572206973206e6f7420616e2061646d60448201526134b760f11b6064820152608401610773565b600260ff8a1610610a425760405162461bcd60e51b815260206004820152601260248201527f756e737570706f72746564206c325479706500000000000000000000000000006044820152606401610773565b60ff89166000908152600a60205260409020546001600160a01b038981169116141580610a90575060ff89166000908152600a60205260409020600101546001600160a01b03888116911614155b80610ac0575060ff89166000908152600a602052604090206001015463ffffffff878116600160a01b9092041614155b80610af0575060ff89166000908152600a602052604090206001015463ffffffff868116600160c01b9092041614155b610b255760405162461bcd60e51b81526004016107739060208082526004908201526373616d6560e01b604082015260600190565b600060405180608001604052808a6001600160a01b03168152602001896001600160a01b031681526020018863ffffffff1681526020018763ffffffff16815250905080600a60008c60ff1660ff16815260200190815260200160002060008201518160000160006101000a8154816001600160a01b0302191690836001600160a01b0316021790555060208201518160010160006101000a8154816001600160a01b0302191690836001600160a01b0316021790555060408201518160010160146101000a81548163ffffffff021916908363ffffffff16021790555060608201518160010160186101000a81548163ffffffff021916908363ffffffff1602179055509050507f5e8ef59fdf78b3376941ed3157b8c3d49139b1f4c1857bf531766c1c1e3a97c98a8a8a8a8a604051610c9995949392919060ff9590951685526001600160a01b03938416602086015291909216604084015263ffffffff918216606084015216608082015260a00190565b60405180910390a150505050505050505050565b610cb6336107a9565b610d0d5760405162461bcd60e51b815260206004820152602260248201527f41636365737369626c653a2043616c6c6572206973206e6f7420616e2061646d60448201526134b760f11b6064820152608401610773565b6107a67fdf8b4c520ffe197c5343c6f5aec59570151ef9a492f2c624fd45ddde6135ec42826107e9565b60006001600160a01b03891615801590610d5957506001600160a01b03881615155b8015610d6d57506001600160a01b03871615155b610db95760405162461bcd60e51b815260206004820152600c60248201527f7a65726f206164647265737300000000000000000000000000000000000000006044820152606401610773565b8351600003610e0a5760405162461bcd60e51b815260206004820152601360248201527f70726f6a6563744e616d65206973206e756c6c000000000000000000000000006044820152606401610773565b8251600003610e5b5760405162461bcd60e51b815260206004820152601160248201527f746f6b656e4e616d65206973206e756c6c0000000000000000000000000000006044820152606401610773565b8151600003610eac5760405162461bcd60e51b815260206004820152601360248201527f746f6b656e53796d626f6c206973206e756c6c000000000000000000000000006044820152606401610773565b600460ff8616108015610ed9575060ff85166000908152600760205260409020546001600160a01b031615155b610f345760405162461bcd60e51b815260206004820152602660248201527f77726f6e6720746f6b656e54797065206f72207a65726f206c31546f6b656e466044820152656163746f727960d01b6064820152608401610773565b60ff8516600090815260076020526040808220549051634692ed6760e01b81526001600160a01b0390911690634692ed6790610f7a90879087908c903090600401613411565b6020604051808303816000875af1158015610f99573d6000803e3d6000fd5b505050506040513d601f19601f82011682018060405250810190610fbd9190613457565b90506001600160a01b0381166110155760405162461bcd60e51b815260206004820152601160248201527f7a65726f2070726f6a656374546f6b656e0000000000000000000000000000006044820152606401610773565b60006006600081546110269061348a565b91905081905590506040518061012001604052808b6001600160a01b031681526020018c6001600160a01b03168152602001836001600160a01b0316815260200160006001600160a01b031681526020018a6001600160a01b031681526020018981526020018860ff168152602001600060ff168152602001878152506008600083815260200190815260200160002060008201518160000160006101000a8154816001600160a01b0302191690836001600160a01b0316021790555060208201518160010160006101000a8154816001600160a01b0302191690836001600160a01b0316021790555060408201518160020160006101000a8154816001600160a01b0302191690836001600160a01b0316021790555060608201518160030160006101000a8154816001600160a01b0302191690836001600160a01b0316021790555060808201518160040160006101000a8154816001600160a01b0302191690836001600160a01b0316021790555060a0820151816005015560c08201518160060160006101000a81548160ff021916908360ff16021790555060e08201518160060160016101000a81548160ff021916908360ff1602179055506101008201518160070190816111f991906134f1565b5050506001600160a01b03821660009081526009602052604090819020829055517fe6f52bbfc9201025b3af0483a2cb6b38980deee467b4cea0217319cae691d3a39061125790849084908f908f908f908f908e908e908e906135b1565b60405180910390a19a9950505050505050505050565b611276336107a9565b6112cd5760405162461bcd60e51b815260206004820152602260248201527f41636365737369626c653a2043616c6c6572206973206e6f7420616e2061646d60448201526134b760f11b6064820152608401610773565b6001600160a01b0381166113235760405162461bcd60e51b815260206004820152601860248201527f41636365737369626c653a207a65726f206164647265737300000000000000006044820152606401610773565b6001600160a01b038116330361137b5760405162461bcd60e51b815260206004820152601660248201527f41636365737369626c653a2073616d652061646d696e000000000000000000006044820152606401610773565b6113a57fdf8b4c520ffe197c5343c6f5aec59570151ef9a492f2c624fd45ddde6135ec42826107e9565b6107a67fdf8b4c520ffe197c5343c6f5aec59570151ef9a492f2c624fd45ddde6135ec4233610813565b6113d8336107a9565b61142f5760405162461bcd60e51b815260206004820152602260248201527f41636365737369626c653a2043616c6c6572206973206e6f7420616e2061646d60448201526134b760f11b6064820152608401610773565b815115801590611440575080518251145b61148c5760405162461bcd60e51b815260206004820152600c60248201527f77726f6e67206c656e67746800000000000000000000000000000000000000006044820152606401610773565b815160005b8181101561163857600460ff168482815181106114b0576114b0613623565b602002602001015160ff16106115085760405162461bcd60e51b815260206004820152601660248201527f756e737570706f7274656420746f6b656e2074797065000000000000000000006044820152606401610773565b82818151811061151a5761151a613623565b60200260200101516001600160a01b03166007600086848151811061154157611541613623565b60209081029190910181015160ff168252810191909152604001600020546001600160a01b0316036115b55760405162461bcd60e51b815260206004820152600c60248201527f73616d65206164647265737300000000000000000000000000000000000000006044820152606401610773565b8281815181106115c7576115c7613623565b6020026020010151600760008684815181106115e5576115e5613623565b602002602001015160ff1660ff16815260200190815260200160002060006101000a8154816001600160a01b0302191690836001600160a01b0316021790555080806116309061348a565b915050611491565b50505050565b6000828152600460205260409020600101546116598161220d565b61080e83836122b9565b846001600160a01b03811661169f5760405162461bcd60e51b81526020600482015260026024820152612d1960f11b6044820152606401610773565b84806000036116d55760405162461bcd60e51b81526020600482015260026024820152615a3160f01b6044820152606401610773565b600088815260086020908152604080832081516101208101835281546001600160a01b0390811682526001830154811694820194909452600282015484169281019290925260038101548316606083015260048101549092166080820152600582015460a0820152600682015460ff80821660c0840152610100918290041660e08301526007830180549293929184019161176f906133d7565b80601f016020809104026020016040519081016040528092919081815260200182805461179b906133d7565b80156117e85780601f106117bd576101008083540402835291602001916117e8565b820191906000526020600020905b8154815290600101906020018083116117cb57829003601f168201915b5050509190925250508151919250506001600160a01b031615801590611817575080516001600160a01b031633145b6118635760405162461bcd60e51b815260206004820152601b60248201527f63616c6c6572206973206e6f742070726f6a6563744f776e65722e00000000006044820152606401610773565b60608101516001600160a01b0316156118be5760405162461bcd60e51b815260206004820152601060248201527f616c7265616479206c61756e63686564000000000000000000000000000000006044820152606401610773565b6040808201516001600160a01b031660009081526009602052205489146119275760405162461bcd60e51b815260206004820152600d60248201527f77726f6e67206c31546f6b656e000000000000000000000000000000000000006044820152606401610773565b608081015160405163507c8bd160e01b81526001600160a01b03909116600482015260009073__$b2d160aea0e65d5e83164dd2e3c22b89ec$__9063507c8bd190602401602060405180830381865af4158015611988573d6000803e3d6000fd5b505050506040513d601f19601f820116820180604052508101906119ac9190613457565b90506001600160a01b038116611a045760405162461bcd60e51b815260206004820152601a60248201527f6c314d657373656e676572206973205a65726f416464726573730000000000006044820152606401610773565b600063974fb36860e01b83604001518b8d8c8c8c8c604051602401611a2f97969594939291906138da565b604051602081830303815290604052906001600160e01b0319166020820180516001600160e01b03838183161783525050505090506000808073__$b2d160aea0e65d5e83164dd2e3c22b89ec$__63f6266b748c6040518263ffffffff1660e01b8152600401611a9f9190613a2b565b6040805180830381865af4158015611abb573d6000803e3d6000fd5b505050506040513d601f19601f82011682018060405250810190611adf9190613b38565b9150915081611b305760405162461bcd60e51b815260206004820152601b60248201527f546f6b616d616b5661756c7473207661696c64617465206661696c00000000006044820152606401610773565b611b3a8184613b64565b92508951600014611c2a5760008073__$b2d160aea0e65d5e83164dd2e3c22b89ec$__6308d8b1ac8d6040518263ffffffff1660e01b8152600401611b7f9190613b77565b6040805180830381865af4158015611b9b573d6000803e3d6000fd5b505050506040513d601f19601f82011682018060405250810190611bbf9190613b38565b9150915081611c1b5760405162461bcd60e51b815260206004820152602260248201527f637573746f6d5363686564756c655661756c7473207661696c646174652066616044820152611a5b60f21b6064820152608401610773565b611c258186613b64565b945050505b895115611d195760008073__$b2d160aea0e65d5e83164dd2e3c22b89ec$__63a95614d68c6040518263ffffffff1660e01b8152600401611c6b9190613bfa565b6040805180830381865af4158015611c87573d6000803e3d6000fd5b505050506040513d601f19601f82011682018060405250810190611cab9190613b38565b9150915081611d0a5760405162461bcd60e51b815260206004820152602560248201527f637573746f6d4e6f6e5363686564756c655661756c7473207661696c646174656044820152640819985a5b60da1b6064820152608401610773565b611d148186613b64565b945050505b8b8314611d8e5760405162461bcd60e51b815260206004820152603560248201527f746f74616c416d6f756e7420697320646966666572656e742066726f6d20766160448201527f756c747320616c6c6f636174656420616d6f756e7400000000000000000000006064820152608401610773565b60008e90508d6008600083815260200190815260200160002060030160006101000a8154816001600160a01b0302191690836001600160a01b031602179055508d87606001906001600160a01b031690816001600160a01b03168152505060006008600083815260200190815260200160002060020160009054906101000a90046001600160a01b03166001600160a01b03166370a08231306040518263ffffffff1660e01b8152600401611e5291906001600160a01b0391909116815260200190565b602060405180830381865afa158015611e6f573d6000803e3d6000fd5b505050506040513d601f19601f82011682018060405250810190611e939190613c84565b90508760a001518111158015611eaf575060c088015160ff1615155b15611fb55787604001516001600160a01b03166340c10f1930838b60a00151611ed89190613c9d565b6040516001600160e01b031960e085901b1681526001600160a01b0390921660048301526024820152604401600060405180830381600087803b158015611f1e57600080fd5b505af1158015611f32573d6000803e3d6000fd5b505050600083815260086020526040908190206002015490516370a0823160e01b81523060048201526001600160a01b0390911691506370a0823190602401602060405180830381865afa158015611f8e573d6000803e3d6000fd5b505050506040513d601f19601f82011682018060405250810190611fb29190613c84565b90505b8760a001518110156120095760405162461bcd60e51b815260206004820152601760248201527f62616c616e636520697320696e73756666696369656e740000000000000000006044820152606401610773565b6000600a60008a60e0015160ff1660ff1681526020019081526020016000206040518060800160405290816000820160009054906101000a90046001600160a01b03166001600160a01b03166001600160a01b031681526020016001820160009054906101000a90046001600160a01b03166001600160a01b03166001600160a01b031681526020016001820160149054906101000a900463ffffffff1663ffffffff1663ffffffff1681526020016001820160189054906101000a900463ffffffff1663ffffffff1663ffffffff16815250509050612128308a608001518b604001518c6060015185602001518e60a0015187604001518a60405160200161211491815260200190565b60405160208183030381529060405261233c565b60208101516060820151604051633dbb202b60e01b81526001600160a01b038b1692633dbb202b9261215f928c9190600401613cb0565b600060405180830381600087803b15801561217957600080fd5b505af115801561218d573d6000803e3d6000fd5b505050507f79fdfe585876a2a3eed99468134317d55495d4fd731029da495b24da1266fa70838a604001518b606001518c60a001516040516121f294939291909384526001600160a01b03928316602085015291166040830152606082015260800190565b60405180910390a15050505050505050505050505050505050565b6107a6813361257b565b60008281526004602090815260408083206001600160a01b038516845290915290205460ff1661089b5760008281526004602090815260408083206001600160a01b03851684529091529020805460ff191660011790556122753390565b6001600160a01b0316816001600160a01b0316837f2f8788117e7eff1d82e926ec794901d17c78024a50270940304540a733656f0d60405160405180910390a45050565b60008281526004602090815260408083206001600160a01b038516845290915290205460ff161561089b5760008281526004602090815260408083206001600160a01b0385168085529252808320805460ff1916905551339285917ff6391f5c32d9c69d2a47ea670b442974b53935d1edc7fd64eb21e047a839171b9190a45050565b604051639da3176160e01b81526001600160a01b038816600482015260009073__$b2d160aea0e65d5e83164dd2e3c22b89ec$__90639da3176190602401602060405180830381865af4158015612397573d6000803e3d6000fd5b505050506040513d601f19601f820116820180604052508101906123bb9190613457565b90506001600160a01b0381166124135760405162461bcd60e51b815260206004820152601760248201527f6c31427269646765206973205a65726f416464726573730000000000000000006044820152606401610773565b604051636eb1769f60e11b81523060048201526001600160a01b0382811660248301526000919089169063dd62ed3e90604401602060405180830381865afa158015612463573d6000803e3d6000fd5b505050506040513d601f19601f820116820180604052508101906124879190613c84565b9050848110156125075760405163095ea7b360e01b81526001600160a01b038381166004830152600019602483015289169063095ea7b3906044016020604051808303816000875af11580156124e1573d6000803e3d6000fd5b505050506040513d601f19601f820116820180604052508101906125059190613ce8565b505b60405163041c592960e51b81526001600160a01b0383169063838b25209061253d908b908b908b908b908b908b90600401613d03565b600060405180830381600087803b15801561255757600080fd5b505af115801561256b573d6000803e3d6000fd5b5050505050505050505050505050565b60008281526004602090815260408083206001600160a01b038516845290915290205460ff1661089b576125ae816125f0565b6125b9836020612602565b6040516020016125ca929190613d55565b60408051601f198184030181529082905262461bcd60e51b825261077391600401613dd6565b60606106236001600160a01b03831660145b60606000612611836002613de9565b61261c906002613b64565b67ffffffffffffffff811115612634576126346129b3565b6040519080825280601f01601f19166020018201604052801561265e576020820181803683370190505b509050600360fc1b8160008151811061267957612679613623565b60200101906001600160f81b031916908160001a905350600f60fb1b816001815181106126a8576126a8613623565b60200101906001600160f81b031916908160001a90535060006126cc846002613de9565b6126d7906001613b64565b90505b600181111561275c577f303132333435363738396162636465660000000000000000000000000000000085600f166010811061271857612718613623565b1a60f81b82828151811061272e5761272e613623565b60200101906001600160f81b031916908160001a90535060049490941c9361275581613e00565b90506126da565b5083156127ab5760405162461bcd60e51b815260206004820181905260248201527f537472696e67733a20686578206c656e67746820696e73756666696369656e746044820152606401610773565b9392505050565b6000602082840312156127c457600080fd5b81356001600160e01b0319811681146127ab57600080fd5b6000602082840312156127ee57600080fd5b5035919050565b60005b838110156128105781810151838201526020016127f8565b50506000910152565b600081518084526128318160208601602086016127f5565b601f01601f19169290920160200192915050565b60006101206001600160a01b03808d168452808c166020850152808b166040850152808a1660608501528089166080850152508660a084015260ff861660c084015260ff851660e0840152806101008401526128a381840185612819565b9c9b505050505050505050505050565b6001600160a01b03811681146107a657600080fd5b80356128d3816128b3565b919050565b6000602082840312156128ea57600080fd5b81356127ab816128b3565b6000806040838503121561290857600080fd5b82359150602083013561291a816128b3565b809150509250929050565b803560ff811681146128d357600080fd5b803563ffffffff811681146128d357600080fd5b600080600080600060a0868803121561296257600080fd5b61296b86612925565b9450602086013561297b816128b3565b9350604086013561298b816128b3565b925061299960608701612936565b91506129a760808701612936565b90509295509295909350565b634e487b7160e01b600052604160045260246000fd5b6040805190810167ffffffffffffffff811182821017156129ec576129ec6129b3565b60405290565b6040516060810167ffffffffffffffff811182821017156129ec576129ec6129b3565b60405160a0810167ffffffffffffffff811182821017156129ec576129ec6129b3565b6040516102c0810167ffffffffffffffff811182821017156129ec576129ec6129b3565b604051601f8201601f1916810167ffffffffffffffff81118282101715612a8557612a856129b3565b604052919050565b600082601f830112612a9e57600080fd5b813567ffffffffffffffff811115612ab857612ab86129b3565b612acb601f8201601f1916602001612a5c565b818152846020838601011115612ae057600080fd5b816020850160208301376000918101602001919091529392505050565b600080600080600080600080610100898b031215612b1a57600080fd5b612b23896128c8565b9750612b3160208a016128c8565b9650612b3f60408a016128c8565b955060608901359450612b5460808a01612925565b935060a089013567ffffffffffffffff80821115612b7157600080fd5b612b7d8c838d01612a8d565b945060c08b0135915080821115612b9357600080fd5b612b9f8c838d01612a8d565b935060e08b0135915080821115612bb557600080fd5b50612bc28b828c01612a8d565b9150509295985092959890939650565b600067ffffffffffffffff821115612bec57612bec6129b3565b5060051b60200190565b600082601f830112612c0757600080fd5b81356020612c1c612c1783612bd2565b612a5c565b82815260059290921b84018101918181019086841115612c3b57600080fd5b8286015b84811015612c5f578035612c52816128b3565b8352918301918301612c3f565b509695505050505050565b60008060408385031215612c7d57600080fd5b823567ffffffffffffffff80821115612c9557600080fd5b818501915085601f830112612ca957600080fd5b81356020612cb9612c1783612bd2565b82815260059290921b84018101918181019089841115612cd857600080fd5b948201945b83861015612cfd57612cee86612925565b82529482019490820190612cdd565b96505086013592505080821115612d1357600080fd5b50612d2085828601612bf6565b9150509250929050565b600060208284031215612d3c57600080fd5b6127ab82612925565b600082601f830112612d5657600080fd5b81356020612d66612c1783612bd2565b82815260059290921b84018101918181019086841115612d8557600080fd5b8286015b84811015612c5f5780358352918301918301612d89565b600060408284031215612db257600080fd5b612dba6129c9565b9050813567ffffffffffffffff80821115612dd457600080fd5b612de085838601612d45565b83526020840135915080821115612df657600080fd5b50612e0384828501612d45565b60208301525092915050565b600060c08284031215612e2157600080fd5b60405160c0810181811067ffffffffffffffff82111715612e4457612e446129b3565b806040525080915082358152602083013560208201526040830135604082015260608301356060820152612e7a60808401612936565b608082015260a083013561ffff81168114612e9457600080fd5b60a0919091015292915050565b600060e08284031215612eb357600080fd5b60405160e0810181811067ffffffffffffffff82111715612ed657612ed66129b3565b6040529050808235612ee7816128b3565b80825250602083013560208201526040830135604082015260608301356060820152612f1560808401612936565b6080820152612f2660a08401612936565b60a0820152612f3760c08401612936565b60c08201525092915050565b6000818303610140811215612f5757600080fd5b612f5f6129c9565b91506060811215612f6f57600080fd5b50612f786129f2565b8235612f83816128b3565b81526020830135612f93816128b3565b6020820152604083013562ffffff81168114612fae57600080fd5b60408201528152612fc28360608401612ea1565b602082015292915050565b600082601f830112612fde57600080fd5b81356020612fee612c1783612bd2565b82815260059290921b8401810191818101908684111561300d57600080fd5b8286015b84811015612c5f57803567ffffffffffffffff808211156130325760008081fd5b90880190610100828b03601f1901121561304c5760008081fd5b6130546129c9565b86830135828111156130665760008081fd5b6130748c8983870101612a8d565b8252506130848b60408501612ea1565b8188015285525050918301918301613011565b600082601f8301126130a857600080fd5b813560206130b8612c1783612bd2565b82815260059290921b840181019181810190868411156130d757600080fd5b8286015b84811015612c5f57803567ffffffffffffffff808211156130fc5760008081fd5b908801906060828b03601f19018113156131165760008081fd5b61311e6129f2565b87840135838111156131305760008081fd5b61313e8d8a83880101612a8d565b8252506040925082840135613152816128b3565b818901529201359082015283529183019183016130db565b60008060008060008060c0878903121561318357600080fd5b863595506020870135613195816128b3565b945060408701359350606087013567ffffffffffffffff808211156131b957600080fd5b908801906103e0828b0312156131ce57600080fd5b6131d6612a15565b8235828111156131e557600080fd5b8301808c036102e08112156131f957600080fd5b6132016129c9565b6102c082121561321057600080fd5b613218612a38565b9150823582526020830135602083015260408301356040830152606083013560608301526080830135608083015260a083013560a083015260c083013560c083015260e083013560e08301526101008301356101008301526101208301356101208301526101408301356101408301526101608301356101608301526101808301356101808301526101a08301356101a08301526101c08301356101c08301526101e08301356101e083015261020083013561020083015261022080840135818401526102408401356102408401526102608401356102608401526102808401356102808401526102a08401356102a08401528282526102c084013592508583111561332357600080fd5b61332f8f848601612da0565b60208301528185526133448f60208901612e0f565b60208601526133568f60e08901612f43565b60408601526133678f828901612ea1565b60608601525050505061337e8b6103008501612ea1565b608082015280955050608089013591508082111561339b57600080fd5b6133a78a838b01612fcd565b935060a08901359150808211156133bd57600080fd5b506133ca89828a01613097565b9150509295509295509295565b600181811c908216806133eb57607f821691505b60208210810361340b57634e487b7160e01b600052602260045260246000fd5b50919050565b6080815260006134246080830187612819565b82810360208401526134368187612819565b9150508360408301526001600160a01b038316606083015295945050505050565b60006020828403121561346957600080fd5b81516127ab816128b3565b634e487b7160e01b600052601160045260246000fd5b60006001820161349c5761349c613474565b5060010190565b601f82111561080e57600081815260208120601f850160051c810160208610156134ca5750805b601f850160051c820191505b818110156134e9578281556001016134d6565b505050505050565b815167ffffffffffffffff81111561350b5761350b6129b3565b61351f8161351984546133d7565b846134a3565b602080601f831160018114613554576000841561353c5750858301515b600019600386901b1c1916600185901b1785556134e9565b600085815260208120601f198616915b8281101561358357888601518255948401946001909101908401613564565b50858210156135a15787850151600019600388901b60f8161c191681555b5050505050600190811b01905550565b60006101206001600160a01b03808d1684528b6020850152808b166040850152808a1660608501528089166080850152508660a08401528060c08401526135fa81840187612819565b905082810360e084015261360e8186612819565b90508281036101008401526128a38185612819565b634e487b7160e01b600052603260045260246000fd5b805182526020808201519083015260408082015190830152606080820151908301526080808201519083015260a0808201519083015260c0808201519083015260e08082015190830152610100808201519083015261012080820151908301526101408082015190830152610160808201519083015261018080820151908301526101a080820151908301526101c080820151908301526101e08082015190830152610200808201519083015261022080820151908301526102408082015190830152610260808201519083015261028080820151908301526102a090810151910152565b600081518084526020808501945080840160005b8381101561374e57815187529582019590820190600101613732565b509495945050505050565b6001600160a01b038151168252602081015160208301526040810151604083015260608101516060830152608081015163ffffffff80821660808501528060a08401511660a08501528060c08401511660c085015250505050565b80516001600160a01b038082511684528060208301511660208501525062ffffff604082015116604084015250602081015161080e6060840182613759565b600081518084526020808501808196508360051b8101915082860160005b8581101561385c5782840389528151610100815181875261383482880182612819565b91505086820151915061384987870183613759565b9986019994505090840190600101613811565b5091979650505050505050565b600081518084526020808501808196508360051b8101915082860160005b8581101561385c5782840389528151606081518187526138a982880182612819565b838901516001600160a01b0316888a0152604093840151939097019290925250509784019790840190600101613887565b60006001600160a01b03808a16835280891660208401525086604083015285606083015260e0608083015284516103e08060e085015261391f6104c085018351613639565b602082015191506102e0610780850152815160406107a08601526139476107e086018261371e565b90506020830151925061079f19858203016107c0860152613968818461371e565b60208981015180516101008901529081015161012088015260408101516101408801526060810151610160880152608081015163ffffffff1661018088015260a081015161ffff166101a088015290935090505060408701516139cf6101c08601826137b4565b5060608701516139e3610300860182613759565b5060808701516139f582860182613759565b505082810360a0840152613a0981866137f3565b905082810360c0840152613a1d8185613869565b9a9950505050505050505050565b60208152600082516103e06020840152613a4a61040084018251613639565b602001516102e06106c0840152805160406106e0850152613a6f61072085018261371e565b9050602082015191506106df1984820301610700850152613a90818361371e565b9150506020840151613ae460408501828051825260208101516020830152604081015160408301526060810151606083015263ffffffff608082015116608083015261ffff60a08201511660a08301525050565b506040840151613af86101008501826137b4565b506060840151613b0c610240850182613759565b506080840151613b20610320850182613759565b509392505050565b805180151581146128d357600080fd5b60008060408385031215613b4b57600080fd5b613b5483613b28565b9150602083015190509250929050565b8082018082111561062357610623613474565b6000602080830181845280855180835260408601915060408160051b870101925083870160005b82811015613bed57603f1988860301845281516101008151818852613bc582890182612819565b915050878201519150613bda88880183613759565b9550509285019290850190600101613b9e565b5092979650505050505050565b60006020808301818452808551808352604092508286019150828160051b87010184880160005b83811015613c7657603f19898403018552815160608151818652613c4782870182612819565b838b01516001600160a01b0316878c015292890151958901959095525094870194925090860190600101613c21565b509098975050505050505050565b600060208284031215613c9657600080fd5b5051919050565b8181038181111561062357610623613474565b6001600160a01b0384168152606060208201526000613cd26060830185612819565b905063ffffffff83166040830152949350505050565b600060208284031215613cfa57600080fd5b6127ab82613b28565b60006001600160a01b038089168352808816602084015280871660408401525084606083015263ffffffff8416608083015260c060a0830152613d4960c0830184612819565b98975050505050505050565b7f416363657373436f6e74726f6c3a206163636f756e7420000000000000000000815260008351613d8d8160178501602088016127f5565b7f206973206d697373696e6720726f6c65200000000000000000000000000000006017918401918201528351613dca8160288401602088016127f5565b01602801949350505050565b6020815260006127ab6020830184612819565b808202811582820484141761062357610623613474565b600081613e0f57613e0f613474565b50600019019056fea164736f6c6343000812000a",
  "linkReferences": {
    "contracts/libraries/LibProject.sol": {
      "LibProject": [
        {
          "length": 20,
          "start": 6523
        },
        {
          "length": 20,
          "start": 6807
        },
        {
          "length": 20,
          "start": 7031
        },
        {
          "length": 20,
          "start": 7267
        },
        {
          "length": 20,
          "start": 9098
        }
      ]
    }
  },
  "deployedLinkReferences": {
    "contracts/libraries/LibProject.sol": {
      "LibProject": [
        {
          "length": 20,
          "start": 6478
        },
        {
          "length": 20,
          "start": 6762
        },
        {
          "length": 20,
          "start": 6986
        },
        {
          "length": 20,
          "start": 7222
        },
        {
          "length": 20,
          "start": 9053
        }
      ]
    }
  }
}