{
  "_format": "hh-sol-artifact-1",
  "contractName": "L2VestingFundVault",
  "sourceName": "contracts/L2/vaults/L2VestingFundVault.sol",
  "abi": [
    {
      "inputs": [],
      "stateMutability": "nonpayable",
      "type": "constructor"
    },
    {
      "anonymous": false,
      "inputs": [
        {
          "indexed": false,
          "internalType": "address",
          "name": "l2Token",
          "type": "address"
        },
        {
          "indexed": false,
          "internalType": "address",
          "name": "to",
          "type": "address"
        },
        {
          "indexed": false,
          "internalType": "uint256",
          "name": "amount",
          "type": "uint256"
        }
      ],
      "name": "Claimed",
      "type": "event"
    },
    {
      "anonymous": false,
      "inputs": [
        {
          "indexed": false,
          "internalType": "address",
          "name": "from",
          "type": "address"
        },
        {
          "indexed": false,
          "internalType": "uint256",
          "name": "amount",
          "type": "uint256"
        }
      ],
      "name": "Funded",
      "type": "event"
    },
    {
      "anonymous": false,
      "inputs": [
        {
          "indexed": false,
          "internalType": "address",
          "name": "l2Token",
          "type": "address"
        },
        {
          "indexed": false,
          "internalType": "uint256",
          "name": "totalClaimCount",
          "type": "uint256"
        },
        {
          "indexed": false,
          "internalType": "uint256",
          "name": "firstClaimPercents",
          "type": "uint256"
        },
        {
          "indexed": false,
          "internalType": "uint256",
          "name": "firstClaimTime",
          "type": "uint256"
        },
        {
          "indexed": false,
          "internalType": "uint256",
          "name": "secondClaimTime",
          "type": "uint256"
        },
        {
          "indexed": false,
          "internalType": "uint256",
          "name": "roundInterval",
          "type": "uint256"
        }
      ],
      "name": "InitializedL2VestingFundVault",
      "type": "event"
    },
    {
      "anonymous": false,
      "inputs": [
        {
          "indexed": true,
          "internalType": "bytes32",
          "name": "role",
          "type": "bytes32"
        },
        {
          "indexed": true,
          "internalType": "bytes32",
          "name": "previousAdminRole",
          "type": "bytes32"
        },
        {
          "indexed": true,
          "internalType": "bytes32",
          "name": "newAdminRole",
          "type": "bytes32"
        }
      ],
      "name": "RoleAdminChanged",
      "type": "event"
    },
    {
      "anonymous": false,
      "inputs": [
        {
          "indexed": true,
          "internalType": "bytes32",
          "name": "role",
          "type": "bytes32"
        },
        {
          "indexed": true,
          "internalType": "address",
          "name": "account",
          "type": "address"
        },
        {
          "indexed": true,
          "internalType": "address",
          "name": "sender",
          "type": "address"
        }
      ],
      "name": "RoleGranted",
      "type": "event"
    },
    {
      "anonymous": false,
      "inputs": [
        {
          "indexed": true,
          "internalType": "bytes32",
          "name": "role",
          "type": "bytes32"
        },
        {
          "indexed": true,
          "internalType": "address",
          "name": "account",
          "type": "address"
        },
        {
          "indexed": true,
          "internalType": "address",
          "name": "sender",
          "type": "address"
        }
      ],
      "name": "RoleRevoked",
      "type": "event"
    },
    {
      "anonymous": false,
      "inputs": [
        {
          "indexed": false,
          "internalType": "address",
          "name": "newInitializer",
          "type": "address"
        }
      ],
      "name": "SetInitializer",
      "type": "event"
    },
    {
      "anonymous": false,
      "inputs": [
        {
          "indexed": false,
          "internalType": "address",
          "name": "l2Token",
          "type": "address"
        },
        {
          "indexed": false,
          "internalType": "address",
          "name": "newAdmin",
          "type": "address"
        }
      ],
      "name": "SetVaultAdmin",
      "type": "event"
    },
    {
      "inputs": [],
      "name": "ADMIN_ROLE",
      "outputs": [
        {
          "internalType": "bytes32",
          "name": "",
          "type": "bytes32"
        }
      ],
      "stateMutability": "view",
      "type": "function"
    },
    {
      "inputs": [],
      "name": "DEFAULT_ADMIN_ROLE",
      "outputs": [
        {
          "internalType": "bytes32",
          "name": "",
          "type": "bytes32"
        }
      ],
      "stateMutability": "view",
      "type": "function"
    },
    {
      "inputs": [],
      "name": "POLICY_ROLE",
      "outputs": [
        {
          "internalType": "bytes32",
          "name": "",
          "type": "bytes32"
        }
      ],
      "stateMutability": "view",
      "type": "function"
    },
    {
      "inputs": [
        {
          "internalType": "address",
          "name": "account",
          "type": "address"
        }
      ],
      "name": "addAdmin",
      "outputs": [],
      "stateMutability": "nonpayable",
      "type": "function"
    },
    {
      "inputs": [
        {
          "internalType": "address",
          "name": "",
          "type": "address"
        }
      ],
      "name": "aliveImplementation",
      "outputs": [
        {
          "internalType": "bool",
          "name": "",
          "type": "bool"
        }
      ],
      "stateMutability": "view",
      "type": "function"
    },
    {
      "inputs": [
        {
          "internalType": "address",
          "name": "_l2Token",
          "type": "address"
        }
      ],
      "name": "calculClaimAmount",
      "outputs": [
        {
          "internalType": "uint256",
          "name": "amount",
          "type": "uint256"
        }
      ],
      "stateMutability": "view",
      "type": "function"
    },
    {
      "inputs": [
        {
          "internalType": "address",
          "name": "_l2Token",
          "type": "address"
        },
        {
          "internalType": "address",
          "name": "_receivedAddress",
          "type": "address"
        }
      ],
      "name": "changeReceivedAddress",
      "outputs": [],
      "stateMutability": "nonpayable",
      "type": "function"
    },
    {
      "inputs": [
        {
          "internalType": "address",
          "name": "_l2Token",
          "type": "address"
        }
      ],
      "name": "claim",
      "outputs": [],
      "stateMutability": "nonpayable",
      "type": "function"
    },
    {
      "inputs": [
        {
          "internalType": "address",
          "name": "",
          "type": "address"
        },
        {
          "internalType": "uint256",
          "name": "",
          "type": "uint256"
        }
      ],
      "name": "claimAmounts",
      "outputs": [
        {
          "internalType": "uint256",
          "name": "",
          "type": "uint256"
        }
      ],
      "stateMutability": "view",
      "type": "function"
    },
    {
      "inputs": [
        {
          "internalType": "address",
          "name": "",
          "type": "address"
        },
        {
          "internalType": "uint256",
          "name": "",
          "type": "uint256"
        }
      ],
      "name": "claimTimes",
      "outputs": [
        {
          "internalType": "uint256",
          "name": "",
          "type": "uint256"
        }
      ],
      "stateMutability": "view",
      "type": "function"
    },
    {
      "inputs": [
        {
          "internalType": "address",
          "name": "_l2Token",
          "type": "address"
        }
      ],
      "name": "currentRound",
      "outputs": [
        {
          "internalType": "uint256",
          "name": "round",
          "type": "uint256"
        }
      ],
      "stateMutability": "view",
      "type": "function"
    },
    {
      "inputs": [
        {
          "internalType": "address",
          "name": "_l2Token",
          "type": "address"
        }
      ],
      "name": "currentSqrtPriceX96",
      "outputs": [
        {
          "internalType": "uint160",
          "name": "sqrtPriceX96",
          "type": "uint160"
        }
      ],
      "stateMutability": "view",
      "type": "function"
    },
    {
      "inputs": [
        {
          "internalType": "address",
          "name": "",
          "type": "address"
        }
      ],
      "name": "fees",
      "outputs": [
        {
          "internalType": "uint24",
          "name": "",
          "type": "uint24"
        }
      ],
      "stateMutability": "view",
      "type": "function"
    },
    {
      "inputs": [
        {
          "internalType": "address",
          "name": "_l2Token",
          "type": "address"
        }
      ],
      "name": "funding",
      "outputs": [],
      "stateMutability": "payable",
      "type": "function"
    },
    {
      "inputs": [
        {
          "internalType": "address",
          "name": "_l2Token",
          "type": "address"
        }
      ],
      "name": "getPoolAddress",
      "outputs": [
        {
          "internalType": "address",
          "name": "pool",
          "type": "address"
        }
      ],
      "stateMutability": "view",
      "type": "function"
    },
    {
      "inputs": [
        {
          "internalType": "bytes32",
          "name": "role",
          "type": "bytes32"
        }
      ],
      "name": "getRoleAdmin",
      "outputs": [
        {
          "internalType": "bytes32",
          "name": "",
          "type": "bytes32"
        }
      ],
      "stateMutability": "view",
      "type": "function"
    },
    {
      "inputs": [
        {
          "internalType": "bytes32",
          "name": "role",
          "type": "bytes32"
        },
        {
          "internalType": "address",
          "name": "account",
          "type": "address"
        }
      ],
      "name": "grantRole",
      "outputs": [],
      "stateMutability": "nonpayable",
      "type": "function"
    },
    {
      "inputs": [
        {
          "internalType": "bytes32",
          "name": "role",
          "type": "bytes32"
        },
        {
          "internalType": "address",
          "name": "account",
          "type": "address"
        }
      ],
      "name": "hasRole",
      "outputs": [
        {
          "internalType": "bool",
          "name": "",
          "type": "bool"
        }
      ],
      "stateMutability": "view",
      "type": "function"
    },
    {
      "inputs": [
        {
          "internalType": "address",
          "name": "_l2Token",
          "type": "address"
        },
        {
          "internalType": "address",
          "name": "_receivedAddress",
          "type": "address"
        },
        {
          "internalType": "uint256",
          "name": "_claimCounts",
          "type": "uint256"
        },
        {
          "internalType": "uint256",
          "name": "_firstClaimPercents",
          "type": "uint256"
        },
        {
          "internalType": "uint256",
          "name": "_firstClaimTime",
          "type": "uint256"
        },
        {
          "internalType": "uint256",
          "name": "_secondClaimTime",
          "type": "uint256"
        },
        {
          "internalType": "uint256",
          "name": "_roundInterval",
          "type": "uint256"
        },
        {
          "internalType": "uint24",
          "name": "_fee",
          "type": "uint24"
        }
      ],
      "name": "initialize",
      "outputs": [],
      "stateMutability": "nonpayable",
      "type": "function"
    },
    {
      "inputs": [
        {
          "internalType": "address",
          "name": "account",
          "type": "address"
        }
      ],
      "name": "isAdmin",
      "outputs": [
        {
          "internalType": "bool",
          "name": "",
          "type": "bool"
        }
      ],
      "stateMutability": "view",
      "type": "function"
    },
    {
      "inputs": [
        {
          "internalType": "address",
          "name": "_addr",
          "type": "address"
        }
      ],
      "name": "isContract",
      "outputs": [
        {
          "internalType": "bool",
          "name": "_isContract",
          "type": "bool"
        }
      ],
      "stateMutability": "view",
      "type": "function"
    },
    {
      "inputs": [
        {
          "internalType": "address",
          "name": "l2Token",
          "type": "address"
        },
        {
          "internalType": "address",
          "name": "account",
          "type": "address"
        }
      ],
      "name": "isVaultAdmin",
      "outputs": [
        {
          "internalType": "bool",
          "name": "",
          "type": "bool"
        }
      ],
      "stateMutability": "view",
      "type": "function"
    },
    {
      "inputs": [],
      "name": "l2ProjectManager",
      "outputs": [
        {
          "internalType": "address",
          "name": "",
          "type": "address"
        }
      ],
      "stateMutability": "view",
      "type": "function"
    },
    {
      "inputs": [
        {
          "internalType": "address",
          "name": "",
          "type": "address"
        }
      ],
      "name": "nowClaimRound",
      "outputs": [
        {
          "internalType": "uint256",
          "name": "",
          "type": "uint256"
        }
      ],
      "stateMutability": "view",
      "type": "function"
    },
    {
      "inputs": [
        {
          "internalType": "address",
          "name": "_l2Token",
          "type": "address"
        },
        {
          "internalType": "uint256",
          "name": "_claimCounts",
          "type": "uint256"
        },
        {
          "internalType": "uint256",
          "name": "_firstClaimPercents",
          "type": "uint256"
        },
        {
          "internalType": "uint256",
          "name": "_firstClaimTime",
          "type": "uint256"
        },
        {
          "internalType": "uint256",
          "name": "_secondClaimTime",
          "type": "uint256"
        },
        {
          "internalType": "uint256",
          "name": "_roundInterval",
          "type": "uint256"
        }
      ],
      "name": "ownerSetting",
      "outputs": [],
      "stateMutability": "nonpayable",
      "type": "function"
    },
    {
      "inputs": [],
      "name": "pauseProxy",
      "outputs": [
        {
          "internalType": "bool",
          "name": "",
          "type": "bool"
        }
      ],
      "stateMutability": "view",
      "type": "function"
    },
    {
      "inputs": [
        {
          "internalType": "uint256",
          "name": "",
          "type": "uint256"
        }
      ],
      "name": "proxyImplementation",
      "outputs": [
        {
          "internalType": "address",
          "name": "",
          "type": "address"
        }
      ],
      "stateMutability": "view",
      "type": "function"
    },
    {
      "inputs": [],
      "name": "publicSaleVault",
      "outputs": [
        {
          "internalType": "address",
          "name": "",
          "type": "address"
        }
      ],
      "stateMutability": "view",
      "type": "function"
    },
    {
      "inputs": [
        {
          "internalType": "address",
          "name": "",
          "type": "address"
        }
      ],
      "name": "receivedAddress",
      "outputs": [
        {
          "internalType": "address",
          "name": "",
          "type": "address"
        }
      ],
      "stateMutability": "view",
      "type": "function"
    },
    {
      "inputs": [
        {
          "internalType": "address",
          "name": "_l2Token",
          "type": "address"
        }
      ],
      "name": "remainAmount",
      "outputs": [
        {
          "internalType": "uint256",
          "name": "amount",
          "type": "uint256"
        }
      ],
      "stateMutability": "view",
      "type": "function"
    },
    {
      "inputs": [
        {
          "internalType": "address",
          "name": "account",
          "type": "address"
        }
      ],
      "name": "removeAdmin",
      "outputs": [],
      "stateMutability": "nonpayable",
      "type": "function"
    },
    {
      "inputs": [
        {
          "internalType": "bytes32",
          "name": "role",
          "type": "bytes32"
        },
        {
          "internalType": "address",
          "name": "account",
          "type": "address"
        }
      ],
      "name": "renounceRole",
      "outputs": [],
      "stateMutability": "nonpayable",
      "type": "function"
    },
    {
      "inputs": [
        {
          "internalType": "bytes32",
          "name": "role",
          "type": "bytes32"
        },
        {
          "internalType": "address",
          "name": "account",
          "type": "address"
        }
      ],
      "name": "revokeRole",
      "outputs": [],
      "stateMutability": "nonpayable",
      "type": "function"
    },
    {
      "inputs": [
        {
          "internalType": "bytes4",
          "name": "",
          "type": "bytes4"
        }
      ],
      "name": "selectorImplementation",
      "outputs": [
        {
          "internalType": "address",
          "name": "",
          "type": "address"
        }
      ],
      "stateMutability": "view",
      "type": "function"
    },
    {
      "inputs": [
        {
          "internalType": "address",
          "name": "",
          "type": "address"
        }
      ],
      "name": "settingChecks",
      "outputs": [
        {
          "internalType": "bool",
          "name": "",
          "type": "bool"
        }
      ],
      "stateMutability": "view",
      "type": "function"
    },
    {
      "inputs": [
        {
          "internalType": "bytes4",
          "name": "interfaceId",
          "type": "bytes4"
        }
      ],
      "name": "supportsInterface",
      "outputs": [
        {
          "internalType": "bool",
          "name": "",
          "type": "bool"
        }
      ],
      "stateMutability": "view",
      "type": "function"
    },
    {
      "inputs": [],
      "name": "tonToken",
      "outputs": [
        {
          "internalType": "address",
          "name": "",
          "type": "address"
        }
      ],
      "stateMutability": "view",
      "type": "function"
    },
    {
      "inputs": [],
      "name": "tosToken",
      "outputs": [
        {
          "internalType": "address",
          "name": "",
          "type": "address"
        }
      ],
      "stateMutability": "view",
      "type": "function"
    },
    {
      "inputs": [
        {
          "internalType": "address",
          "name": "",
          "type": "address"
        }
      ],
      "name": "totalAllocatedAmount",
      "outputs": [
        {
          "internalType": "uint256",
          "name": "",
          "type": "uint256"
        }
      ],
      "stateMutability": "view",
      "type": "function"
    },
    {
      "inputs": [
        {
          "internalType": "address",
          "name": "",
          "type": "address"
        }
      ],
      "name": "totalClaimsAmount",
      "outputs": [
        {
          "internalType": "uint256",
          "name": "",
          "type": "uint256"
        }
      ],
      "stateMutability": "view",
      "type": "function"
    },
    {
      "inputs": [
        {
          "internalType": "address",
          "name": "newAdmin",
          "type": "address"
        }
      ],
      "name": "transferAdmin",
      "outputs": [],
      "stateMutability": "nonpayable",
      "type": "function"
    },
    {
      "inputs": [],
      "name": "uniswapV3Factory",
      "outputs": [
        {
          "internalType": "address",
          "name": "",
          "type": "address"
        }
      ],
      "stateMutability": "view",
      "type": "function"
    },
    {
      "inputs": [
        {
          "internalType": "address",
          "name": "",
          "type": "address"
        }
      ],
      "name": "vaultAdminOfToken",
      "outputs": [
        {
          "internalType": "address",
          "name": "",
          "type": "address"
        }
      ],
      "stateMutability": "view",
      "type": "function"
    },
    {
      "inputs": [
        {
          "internalType": "address",
          "name": "",
          "type": "address"
        }
      ],
      "name": "vaultInfo",
      "outputs": [
        {
          "internalType": "uint256",
          "name": "totalClaimCount",
          "type": "uint256"
        },
        {
          "internalType": "uint256",
          "name": "firstClaimPercents",
          "type": "uint256"
        },
        {
          "internalType": "uint256",
          "name": "firstClaimTime",
          "type": "uint256"
        },
        {
          "internalType": "uint256",
          "name": "secondClaimTime",
          "type": "uint256"
        },
        {
          "internalType": "uint256",
          "name": "roundInterval",
          "type": "uint256"
        }
      ],
      "stateMutability": "view",
      "type": "function"
    }
  ],
  "bytecode": "0x60806040526005805460ff1916600117905534801561001d57600080fd5b506125d88061002d6000396000f3fe6080604052600436106102e75760003560e01c8063550d01a311610184578063925c3e64116100d6578063b911135f1161008a578063f5af342b11610064578063f5af342b14610986578063faaebd21146109a6578063ff946053146109ec57600080fd5b8063b911135f14610910578063c0f22d4b14610946578063d547741f1461096657600080fd5b8063a4004108116100bb578063a40041081461088d578063a7b23fcf146108c3578063aa2c8147146108e357600080fd5b8063925c3e6414610858578063a217fddf1461087857600080fd5b806375b238fc11610138578063877aaf4f11610112578063877aaf4f146107805780639164359a146107a057806391d148541461081257600080fd5b806375b238fc146106f6578063781a48521461072a5780637fc46ba81461074a57600080fd5b806363a8fd891161016957806363a8fd891461069c57806370480275146106b657806375829def146106d657600080fd5b8063550d01a31461064c5780635b5491821461067c57600080fd5b806324d7806c1161023d57806340f01222116101f157806350d2a276116101cb57806350d2a276146105d157806351e8152a1461060757806352351e851461062757600080fd5b806340f0122214610571578063465864b6146105915780634ab82f77146105b157600080fd5b80632f2ff15d116102225780632f2ff15d1461050457806335eee5831461052457806336568abe1461055157600080fd5b806324d7806c146104c45780632c8917c8146104e457600080fd5b80631785f53c1161029f5780632298524611610279578063229852461461044057806322d6302314610474578063248a9ca31461049457600080fd5b80631785f53c146103c55780631ce2b85e146103e55780631e83409a1461042057600080fd5b806304b6a0f5116102d057806304b6a0f5146103365780631228cbee14610366578063162790551461039e57600080fd5b806301ffc9a7146102ec578063049f2d8a14610321575b600080fd5b3480156102f857600080fd5b5061030c610307366004612177565b610a0c565b60405190151581526020015b60405180910390f35b61033461032f3660046121b6565b610a43565b005b34801561034257600080fd5b5061030c6103513660046121b6565b600d6020526000908152604090205460ff1681565b34801561037257600080fd5b506103866103813660046121b6565b610c7e565b6040516001600160a01b039091168152602001610318565b3480156103aa57600080fd5b5061030c6103b93660046121b6565b3b63ffffffff16151590565b3480156103d157600080fd5b506103346103e03660046121b6565b610df5565b3480156103f157600080fd5b506104126104003660046121b6565b60126020526000908152604090205481565b604051908152602001610318565b34801561042c57600080fd5b5061033461043b3660046121b6565b610e82565b34801561044c57600080fd5b506104127ffb5864e8ff833c3cb2d2d08505e82ff02a43554c74a35d4f5a64e8526127831181565b34801561048057600080fd5b5061038661048f3660046121b6565b610fb1565b3480156104a057600080fd5b506104126104af3660046121d3565b60009081526004602052604090206001015490565b3480156104d057600080fd5b5061030c6104df3660046121b6565b611054565b3480156104f057600080fd5b50600654610386906001600160a01b031681565b34801561051057600080fd5b5061033461051f3660046121ec565b611094565b34801561053057600080fd5b5061041261053f3660046121b6565b60116020526000908152604090205481565b34801561055d57600080fd5b5061033461056c3660046121ec565b6110b9565b34801561057d57600080fd5b5061033461058c36600461221c565b611141565b34801561059d57600080fd5b506103346105ac3660046122a0565b611328565b3480156105bd57600080fd5b506104126105cc3660046121b6565b61143f565b3480156105dd57600080fd5b506103866105ec366004612177565b6003602052600090815260409020546001600160a01b031681565b34801561061357600080fd5b5061030c6106223660046122a0565b61146d565b34801561063357600080fd5b506005546103869061010090046001600160a01b031681565b34801561065857600080fd5b5061030c6106673660046121b6565b60026020526000908152604090205460ff1681565b34801561068857600080fd5b50600954610386906001600160a01b031681565b3480156106a857600080fd5b5060005461030c9060ff1681565b3480156106c257600080fd5b506103346106d13660046121b6565b6114aa565b3480156106e257600080fd5b506103346106f13660046121b6565b611534565b34801561070257600080fd5b506104127fdf8b4c520ffe197c5343c6f5aec59570151ef9a492f2c624fd45ddde6135ec4281565b34801561073657600080fd5b50600754610386906001600160a01b031681565b34801561075657600080fd5b506103866107653660046121b6565b600a602052600090815260409020546001600160a01b031681565b34801561078c57600080fd5b50600854610386906001600160a01b031681565b3480156107ac57600080fd5b506107ea6107bb3660046121b6565b601360205260009081526040902080546001820154600283015460038401546004909401549293919290919085565b604080519586526020860194909452928401919091526060830152608082015260a001610318565b34801561081e57600080fd5b5061030c61082d3660046121ec565b60009182526004602090815260408084206001600160a01b0393909316845291905290205460ff1690565b34801561086457600080fd5b506103346108733660046122ce565b611696565b34801561088457600080fd5b50610412600081565b34801561089957600080fd5b506103866108a83660046121b6565b600b602052600090815260409020546001600160a01b031681565b3480156108cf57600080fd5b506104126108de3660046121b6565b611755565b3480156108ef57600080fd5b506104126108fe3660046121b6565b60106020526000908152604090205481565b34801561091c57600080fd5b5061038661092b3660046121d3565b6001602052600090815260409020546001600160a01b031681565b34801561095257600080fd5b5061041261096136600461231a565b611845565b34801561097257600080fd5b506103346109813660046121ec565b611876565b34801561099257600080fd5b506104126109a13660046121b6565b61189b565b3480156109b257600080fd5b506109d86109c13660046121b6565b600c6020526000908152604090205462ffffff1681565b60405162ffffff9091168152602001610318565b3480156109f857600080fd5b50610412610a0736600461231a565b611a62565b60006001600160e01b03198216637965db0b60e01b1480610a3d57506301ffc9a760e01b6001600160e01b03198316145b92915050565b6006546001600160a01b031615801590610a6757506006546001600160a01b031633145b610ab85760405162461bcd60e51b815260206004820152601a60248201527f63616c6c6572206973206e6f74204c325075626c696353616c6500000000000060448201526064015b60405180910390fd5b6001600160a01b0381166000908152601360209081526040808320815160a0810183528154808252600183015494820194909452600282015492810192909252600381015460608301526004015460808201529103610b595760405162461bcd60e51b815260206004820181905260248201527f736574207570206120636c61696d20726f756e6420666f722076657374696e676044820152606401610aaf565b6006546001600160a01b03163314610bb35760405162461bcd60e51b815260206004820152601e60248201527f63616c6c6572206973206e6f74207075626c696353616c655661756c742e00006044820152606401610aaf565b6001600160a01b03821660009081526010602052604081208054349290610bdb90849061235c565b9091555050604080513381523460208201527f5af8184bef8e4b45eb9f6ed7734d04da38ced226495548f46e0c8ff8d7d9a524910160405180910390a16000610c2383611755565b9050600081118015610c3d57506000610c3b8461189b565b115b8015610c6b57506001600160a01b038316600090815260126020908152604080832054601090925290912054115b15610c7957610c7983611a7e565b505050565b6008546000907fe34f199b19b2b4f47f68442619d555527d244f78a3297ea89325f843f87b8b54906001600160a01b03161580610cc257506001600160a01b038316155b80610ce857506001600160a01b0383166000908152600c602052604090205462ffffff16155b80610cfc57506009546001600160a01b0316155b15610d0a5750600092915050565b6008546001600160a01b039081169084908116821115610d3557505060085483906001600160a01b03165b6009546001600160a01b039586166000908152600c602090815260409182902054825195891686830152939097168482015262ffffff9092166060808501919091528251808503820181526080850184528051908801207fff0000000000000000000000000000000000000000000000000000000000000060a086015291901b6bffffffffffffffffffffffff191660a184015260b583015260d5808301939093528051808303909301835260f590910190528051920191909120919050565b610dfe33611054565b610e555760405162461bcd60e51b815260206004820152602260248201527f41636365737369626c653a2043616c6c6572206973206e6f7420616e2061646d60448201526134b760f11b6064820152608401610aaf565b610e7f7fdf8b4c520ffe197c5343c6f5aec59570151ef9a492f2c624fd45ddde6135ec42826110b9565b50565b6001600160a01b038116600090815260136020908152604091829020825160a081018452815481526001820154928101929092526002810154928201839052600381015460608301526004015460808201529015801590610ee65750806040015142115b610f325760405162461bcd60e51b815260206004820152601660248201527f5661756c743a206e6f74207374617274656420796574000000000000000000006044820152606401610aaf565b6001600160a01b03821660009081526012602090815260408083205460109092529091205411610fa45760405162461bcd60e51b815260206004820152601660248201527f5661756c743a20616c726561647920416c6c20676574000000000000000000006044820152606401610aaf565b610fad82611a7e565b5050565b600080610fbd83610c7e565b90506001600160a01b03811615801590610fdd5750803b63ffffffff1615155b1561104e57806001600160a01b0316633850c7bd6040518163ffffffff1660e01b815260040160e060405180830381865afa158015611020573d6000803e3d6000fd5b505050506040513d601f19601f820116820180604052508101906110449190612396565b5094965050505050505b50919050565b6001600160a01b03811660009081527f2fb794d17134dfdec181ddbac1babb5ab1eb140204ef4d982f294e7fc8b69022602052604081205460ff16610a3d565b6000828152600460205260409020600101546110af81611d22565b610c798383611d2c565b6001600160a01b03811633146111375760405162461bcd60e51b815260206004820152602f60248201527f416363657373436f6e74726f6c3a2063616e206f6e6c792072656e6f756e636560448201527f20726f6c657320666f722073656c6600000000000000000000000000000000006064820152608401610aaf565b610fad8282611dce565b876001600160a01b03811661117d5760405162461bcd60e51b81526020600482015260026024820152612d1960f11b6044820152606401610aaf565b876001600160a01b0381166111b95760405162461bcd60e51b81526020600482015260026024820152612d1960f11b6044820152606401610aaf565b6006546001600160a01b0316158015906111dd57506006546001600160a01b031633145b6112295760405162461bcd60e51b815260206004820152601a60248201527f63616c6c6572206973206e6f74204c325075626c696353616c650000000000006044820152606401610aaf565b6001600160a01b038a166000908152600d602052604090205460ff1615156001036112965760405162461bcd60e51b815260206004820152601260248201527f416c726561647920696e6974616c697a656400000000000000000000000000006044820152606401610aaf565b6001600160a01b038a81166000908152600b60209081526040808320805473ffffffffffffffffffffffffffffffffffffffff1916948e1694909417909355600c905220805462ffffff191662ffffff85161790556112f98a8989898989611e51565b5050506001600160a01b039096166000908152600d60205260409020805460ff19166001179055505050505050565b806001600160a01b0381166113645760405162461bcd60e51b81526020600482015260026024820152612d1960f11b6044820152606401610aaf565b6001600160a01b038381166000908152600b6020526040902054163314806113915750611391833361146d565b6114035760405162461bcd60e51b815260206004820152602b60248201527f63616c6c6572206973206e6f7420726563656976656441646472657373206f7260448201527f207661756c7441646d696e0000000000000000000000000000000000000000006064820152608401610aaf565b506001600160a01b039182166000908152600b60205260409020805473ffffffffffffffffffffffffffffffffffffffff191691909216179055565b6001600160a01b0381166000908152601260209081526040808320546010909252822054610a3d9190612430565b60006001600160a01b038216158015906114a357506001600160a01b038381166000908152600a60205260409020548116908316145b9392505050565b6114b333611054565b61150a5760405162461bcd60e51b815260206004820152602260248201527f41636365737369626c653a2043616c6c6572206973206e6f7420616e2061646d60448201526134b760f11b6064820152608401610aaf565b610e7f7fdf8b4c520ffe197c5343c6f5aec59570151ef9a492f2c624fd45ddde6135ec4282611094565b61153d33611054565b6115945760405162461bcd60e51b815260206004820152602260248201527f41636365737369626c653a2043616c6c6572206973206e6f7420616e2061646d60448201526134b760f11b6064820152608401610aaf565b6001600160a01b0381166115ea5760405162461bcd60e51b815260206004820152601860248201527f41636365737369626c653a207a65726f206164647265737300000000000000006044820152606401610aaf565b6001600160a01b03811633036116425760405162461bcd60e51b815260206004820152601660248201527f41636365737369626c653a2073616d652061646d696e000000000000000000006044820152606401610aaf565b61166c7fdf8b4c520ffe197c5343c6f5aec59570151ef9a492f2c624fd45ddde6135ec4282611094565b610e7f7fdf8b4c520ffe197c5343c6f5aec59570151ef9a492f2c624fd45ddde6135ec42336110b9565b61169f33611054565b6116f65760405162461bcd60e51b815260206004820152602260248201527f41636365737369626c653a2043616c6c6572206973206e6f7420616e2061646d60448201526134b760f11b6064820152608401610aaf565b611704868686868686611e51565b6001600160a01b0386166000908152600d602052604090205460ff16151560011461174d576001600160a01b0386166000908152600d60205260409020805460ff191660011790555b505050505050565b6001600160a01b0381166000908152601360209081526040808320815160a0810183528154815260018201549381019390935260028101549183018290526003810154606084015260040154608083015282036117b55750600092915050565b42816040015111156117ca5750600092915050565b6040810151158015906117e1575042816040015111155b80156117f05750806060015142105b156117fe5760019150611835565b42816060015111611835576080810151606082015161181d9042612430565b6118279190612443565b61183290600261235c565b91505b805182111561104e575192915050565b600e602052816000526040600020818154811061186157600080fd5b90600052602060002001600091509150505481565b60008281526004602052604090206001015461189181611d22565b610c798383611dce565b6000806118a783611755565b9050806000036118ba5750600092915050565b6001600160a01b0383166000818152601360209081526040808320815160a081018352815481526001820154818501526002820154818401526003820154606082015260049091015460808201529383526011909152902054821115611a5b5781600103611972576001600160a01b0384166000908152601260209081526040808320548483015160109093529220546127109161195791612465565b6119619190612443565b61196b9190612430565b9250611a5b565b8051821015611a29576020808201516001600160a01b03861660009081526010909252604090912054612710916119a891612465565b6119b29190612443565b6001600160a01b0385166000908152601260205260409020549093506119d9600184612430565b82516119e790600190612430565b6001600160a01b038716600090815260106020526040902054611a0b908790612430565b611a159190612443565b611a1f9190612465565b611961908561235c565b6001600160a01b038416600090815260126020908152604080832054601090925290912054611a589190612430565b92505b5050919050565b600f602052816000526040600020818154811061186157600080fd5b6000611a8982611755565b90506000611a968361189b565b905060008111611ae85760405162461bcd60e51b815260206004820152601860248201527f636c61696d61626c6520616d6f756e74206973207a65726f00000000000000006044820152606401610aaf565b6007546040516370a0823160e01b815230600482015282916001600160a01b0316906370a0823190602401602060405180830381865afa158015611b30573d6000803e3d6000fd5b505050506040513d601f19601f82011682018060405250810190611b54919061247c565b1015611ba25760405162461bcd60e51b815260206004820152601b60248201527f5661756c743a20696e73756666696369656e742062616c616e636500000000006044820152606401610aaf565b80611bac8461143f565b1015611bfa5760405162461bcd60e51b815260206004820152601a60248201527f5661756c743a206f7665722072656d61696e2062616c616e63650000000000006044820152606401610aaf565b6001600160a01b03831660009081526011602090815260408083208590556012909152902054611c2b90829061235c565b6001600160a01b03848116600090815260126020908152604080832094909455600754600b9091529083902054925163a9059cbb60e01b8152928216600484015260248301849052169063a9059cbb906044016020604051808303816000875af1158015611c9d573d6000803e3d6000fd5b505050506040513d601f19601f82011682018060405250810190611cc19190612495565b506001600160a01b038381166000908152600b602090815260409182902054825133815293169083015281018290527ff7a40077ff7a04c7e61f6f26fb13774259ddf1b6bce9ecf26a8276cdd39926839060600160405180910390a1505050565b610e7f8133611f47565b60008281526004602090815260408083206001600160a01b038516845290915290205460ff16610fad5760008281526004602090815260408083206001600160a01b03851684529091529020805460ff19166001179055611d8a3390565b6001600160a01b0316816001600160a01b0316837f2f8788117e7eff1d82e926ec794901d17c78024a50270940304540a733656f0d60405160405180910390a45050565b60008281526004602090815260408083206001600160a01b038516845290915290205460ff1615610fad5760008281526004602090815260408083206001600160a01b0385168085529252808320805460ff1916905551339285917ff6391f5c32d9c69d2a47ea670b442974b53935d1edc7fd64eb21e047a839171b9190a45050565b84600003611eaf5760405162461bcd60e51b815260206004820152602560248201527f636c61696d436f756e7473206d7573742062652067726561746572207468616e604482015264207a65726f60d81b6064820152608401610aaf565b6001600160a01b038616600081815260136020908152604091829020888155600181018890556002810187905560038101869055600481018590558251938452908301889052908201869052606082018590526080820184905260a08201839052907f6386a376abc06f4c32c67ba8b0f9ad3c1298ba7514feee1bb154d0707595837d9060c00160405180910390a150505050505050565b60008281526004602090815260408083206001600160a01b038516845290915290205460ff16610fad57611f7a81611fbc565b611f85836020611fce565b604051602001611f969291906124d4565b60408051601f198184030181529082905262461bcd60e51b8252610aaf91600401612555565b6060610a3d6001600160a01b03831660145b60606000611fdd836002612465565b611fe890600261235c565b67ffffffffffffffff81111561200057612000612588565b6040519080825280601f01601f19166020018201604052801561202a576020820181803683370190505b509050600360fc1b816000815181106120455761204561259e565b60200101906001600160f81b031916908160001a905350600f60fb1b816001815181106120745761207461259e565b60200101906001600160f81b031916908160001a9053506000612098846002612465565b6120a390600161235c565b90505b6001811115612128577f303132333435363738396162636465660000000000000000000000000000000085600f16601081106120e4576120e461259e565b1a60f81b8282815181106120fa576120fa61259e565b60200101906001600160f81b031916908160001a90535060049490941c93612121816125b4565b90506120a6565b5083156114a35760405162461bcd60e51b815260206004820181905260248201527f537472696e67733a20686578206c656e67746820696e73756666696369656e746044820152606401610aaf565b60006020828403121561218957600080fd5b81356001600160e01b0319811681146114a357600080fd5b6001600160a01b0381168114610e7f57600080fd5b6000602082840312156121c857600080fd5b81356114a3816121a1565b6000602082840312156121e557600080fd5b5035919050565b600080604083850312156121ff57600080fd5b823591506020830135612211816121a1565b809150509250929050565b600080600080600080600080610100898b03121561223957600080fd5b8835612244816121a1565b97506020890135612254816121a1565b965060408901359550606089013594506080890135935060a0890135925060c0890135915060e089013562ffffff8116811461228f57600080fd5b809150509295985092959890939650565b600080604083850312156122b357600080fd5b82356122be816121a1565b91506020830135612211816121a1565b60008060008060008060c087890312156122e757600080fd5b86356122f2816121a1565b9860208801359850604088013597606081013597506080810135965060a00135945092505050565b6000806040838503121561232d57600080fd5b8235612338816121a1565b946020939093013593505050565b634e487b7160e01b600052601160045260246000fd5b80820180821115610a3d57610a3d612346565b805161ffff8116811461238157600080fd5b919050565b8051801515811461238157600080fd5b600080600080600080600060e0888a0312156123b157600080fd5b87516123bc816121a1565b8097505060208801518060020b81146123d457600080fd5b95506123e26040890161236f565b94506123f06060890161236f565b93506123fe6080890161236f565b925060a088015160ff8116811461241457600080fd5b915061242260c08901612386565b905092959891949750929550565b81810381811115610a3d57610a3d612346565b60008261246057634e487b7160e01b600052601260045260246000fd5b500490565b8082028115828204841417610a3d57610a3d612346565b60006020828403121561248e57600080fd5b5051919050565b6000602082840312156124a757600080fd5b6114a382612386565b60005b838110156124cb5781810151838201526020016124b3565b50506000910152565b7f416363657373436f6e74726f6c3a206163636f756e742000000000000000000081526000835161250c8160178501602088016124b0565b7f206973206d697373696e6720726f6c652000000000000000000000000000000060179184019182015283516125498160288401602088016124b0565b01602801949350505050565b60208152600082518060208401526125748160408501602087016124b0565b601f01601f19169190910160400192915050565b634e487b7160e01b600052604160045260246000fd5b634e487b7160e01b600052603260045260246000fd5b6000816125c3576125c3612346565b50600019019056fea164736f6c6343000812000a",
  "linkReferences": {},
  "deployedLinkReferences": {}
}