{
  "_format": "hh-sol-artifact-1",
  "contractName": "L1BurnVault",
  "sourceName": "contracts/L1/L1BurnVault.sol",
  "abi": [
    {
      "anonymous": false,
      "inputs": [
        {
          "indexed": false,
          "internalType": "address",
          "name": "l2Token",
          "type": "address"
        },
        {
          "indexed": false,
          "internalType": "uint256",
          "name": "amount",
          "type": "uint256"
        }
      ],
      "name": "Burnd",
      "type": "event"
    },
    {
      "anonymous": false,
      "inputs": [
        {
          "indexed": true,
          "internalType": "bytes32",
          "name": "role",
          "type": "bytes32"
        },
        {
          "indexed": true,
          "internalType": "bytes32",
          "name": "previousAdminRole",
          "type": "bytes32"
        },
        {
          "indexed": true,
          "internalType": "bytes32",
          "name": "newAdminRole",
          "type": "bytes32"
        }
      ],
      "name": "RoleAdminChanged",
      "type": "event"
    },
    {
      "anonymous": false,
      "inputs": [
        {
          "indexed": true,
          "internalType": "bytes32",
          "name": "role",
          "type": "bytes32"
        },
        {
          "indexed": true,
          "internalType": "address",
          "name": "account",
          "type": "address"
        },
        {
          "indexed": true,
          "internalType": "address",
          "name": "sender",
          "type": "address"
        }
      ],
      "name": "RoleGranted",
      "type": "event"
    },
    {
      "anonymous": false,
      "inputs": [
        {
          "indexed": true,
          "internalType": "bytes32",
          "name": "role",
          "type": "bytes32"
        },
        {
          "indexed": true,
          "internalType": "address",
          "name": "account",
          "type": "address"
        },
        {
          "indexed": true,
          "internalType": "address",
          "name": "sender",
          "type": "address"
        }
      ],
      "name": "RoleRevoked",
      "type": "event"
    },
    {
      "anonymous": false,
      "inputs": [
        {
          "indexed": false,
          "internalType": "address",
          "name": "l2Token",
          "type": "address"
        },
        {
          "indexed": false,
          "internalType": "address",
          "name": "newAdmin",
          "type": "address"
        }
      ],
      "name": "SetVaultAdmin",
      "type": "event"
    },
    {
      "inputs": [],
      "name": "ADMIN_ROLE",
      "outputs": [
        {
          "internalType": "bytes32",
          "name": "",
          "type": "bytes32"
        }
      ],
      "stateMutability": "view",
      "type": "function"
    },
    {
      "inputs": [],
      "name": "DEFAULT_ADMIN_ROLE",
      "outputs": [
        {
          "internalType": "bytes32",
          "name": "",
          "type": "bytes32"
        }
      ],
      "stateMutability": "view",
      "type": "function"
    },
    {
      "inputs": [],
      "name": "POLICY_ROLE",
      "outputs": [
        {
          "internalType": "bytes32",
          "name": "",
          "type": "bytes32"
        }
      ],
      "stateMutability": "view",
      "type": "function"
    },
    {
      "inputs": [
        {
          "internalType": "address",
          "name": "account",
          "type": "address"
        }
      ],
      "name": "addAdmin",
      "outputs": [],
      "stateMutability": "nonpayable",
      "type": "function"
    },
    {
      "inputs": [
        {
          "internalType": "address",
          "name": "",
          "type": "address"
        }
      ],
      "name": "aliveImplementation",
      "outputs": [
        {
          "internalType": "bool",
          "name": "",
          "type": "bool"
        }
      ],
      "stateMutability": "view",
      "type": "function"
    },
    {
      "inputs": [
        {
          "internalType": "bytes32",
          "name": "role",
          "type": "bytes32"
        }
      ],
      "name": "getRoleAdmin",
      "outputs": [
        {
          "internalType": "bytes32",
          "name": "",
          "type": "bytes32"
        }
      ],
      "stateMutability": "view",
      "type": "function"
    },
    {
      "inputs": [
        {
          "internalType": "bytes32",
          "name": "role",
          "type": "bytes32"
        },
        {
          "internalType": "address",
          "name": "account",
          "type": "address"
        }
      ],
      "name": "grantRole",
      "outputs": [],
      "stateMutability": "nonpayable",
      "type": "function"
    },
    {
      "inputs": [
        {
          "internalType": "bytes32",
          "name": "role",
          "type": "bytes32"
        },
        {
          "internalType": "address",
          "name": "account",
          "type": "address"
        }
      ],
      "name": "hasRole",
      "outputs": [
        {
          "internalType": "bool",
          "name": "",
          "type": "bool"
        }
      ],
      "stateMutability": "view",
      "type": "function"
    },
    {
      "inputs": [
        {
          "internalType": "address",
          "name": "account",
          "type": "address"
        }
      ],
      "name": "isAdmin",
      "outputs": [
        {
          "internalType": "bool",
          "name": "",
          "type": "bool"
        }
      ],
      "stateMutability": "view",
      "type": "function"
    },
    {
      "inputs": [
        {
          "internalType": "address",
          "name": "l2Token",
          "type": "address"
        },
        {
          "internalType": "address",
          "name": "account",
          "type": "address"
        }
      ],
      "name": "isVaultAdmin",
      "outputs": [
        {
          "internalType": "bool",
          "name": "",
          "type": "bool"
        }
      ],
      "stateMutability": "view",
      "type": "function"
    },
    {
      "inputs": [],
      "name": "l2ProjectManager",
      "outputs": [
        {
          "internalType": "address",
          "name": "",
          "type": "address"
        }
      ],
      "stateMutability": "view",
      "type": "function"
    },
    {
      "inputs": [],
      "name": "pauseProxy",
      "outputs": [
        {
          "internalType": "bool",
          "name": "",
          "type": "bool"
        }
      ],
      "stateMutability": "view",
      "type": "function"
    },
    {
      "inputs": [
        {
          "internalType": "uint256",
          "name": "",
          "type": "uint256"
        }
      ],
      "name": "proxyImplementation",
      "outputs": [
        {
          "internalType": "address",
          "name": "",
          "type": "address"
        }
      ],
      "stateMutability": "view",
      "type": "function"
    },
    {
      "inputs": [
        {
          "internalType": "address",
          "name": "account",
          "type": "address"
        }
      ],
      "name": "removeAdmin",
      "outputs": [],
      "stateMutability": "nonpayable",
      "type": "function"
    },
    {
      "inputs": [
        {
          "internalType": "bytes32",
          "name": "role",
          "type": "bytes32"
        },
        {
          "internalType": "address",
          "name": "account",
          "type": "address"
        }
      ],
      "name": "renounceRole",
      "outputs": [],
      "stateMutability": "nonpayable",
      "type": "function"
    },
    {
      "inputs": [
        {
          "internalType": "bytes32",
          "name": "role",
          "type": "bytes32"
        },
        {
          "internalType": "address",
          "name": "account",
          "type": "address"
        }
      ],
      "name": "revokeRole",
      "outputs": [],
      "stateMutability": "nonpayable",
      "type": "function"
    },
    {
      "inputs": [
        {
          "internalType": "bytes4",
          "name": "",
          "type": "bytes4"
        }
      ],
      "name": "selectorImplementation",
      "outputs": [
        {
          "internalType": "address",
          "name": "",
          "type": "address"
        }
      ],
      "stateMutability": "view",
      "type": "function"
    },
    {
      "inputs": [
        {
          "internalType": "address",
          "name": "_l2ProjectManager",
          "type": "address"
        }
      ],
      "name": "setL2ProjectManager",
      "outputs": [],
      "stateMutability": "nonpayable",
      "type": "function"
    },
    {
      "inputs": [
        {
          "internalType": "address",
          "name": "l2Token",
          "type": "address"
        },
        {
          "internalType": "address",
          "name": "_newAdmin",
          "type": "address"
        }
      ],
      "name": "setVaultAdmin",
      "outputs": [],
      "stateMutability": "nonpayable",
      "type": "function"
    },
    {
      "inputs": [
        {
          "internalType": "bytes4",
          "name": "interfaceId",
          "type": "bytes4"
        }
      ],
      "name": "supportsInterface",
      "outputs": [
        {
          "internalType": "bool",
          "name": "",
          "type": "bool"
        }
      ],
      "stateMutability": "view",
      "type": "function"
    },
    {
      "inputs": [
        {
          "internalType": "address",
          "name": "l2Token",
          "type": "address"
        }
      ],
      "name": "tokenBurn",
      "outputs": [],
      "stateMutability": "nonpayable",
      "type": "function"
    },
    {
      "inputs": [
        {
          "internalType": "address",
          "name": "newAdmin",
          "type": "address"
        }
      ],
      "name": "transferAdmin",
      "outputs": [],
      "stateMutability": "nonpayable",
      "type": "function"
    },
    {
      "inputs": [
        {
          "internalType": "address",
          "name": "",
          "type": "address"
        }
      ],
      "name": "vaultAdminOfToken",
      "outputs": [
        {
          "internalType": "address",
          "name": "",
          "type": "address"
        }
      ],
      "stateMutability": "view",
      "type": "function"
    }
  ],
  "bytecode": "0x60806040526005805460ff1916600117905534801561001d57600080fd5b506112b38061002d6000396000f3fe608060405234801561001057600080fd5b506004361061018d5760003560e01c806352351e85116100e35780637fc46ba81161008c578063a418234311610066578063a4182343146103d9578063b911135f146103ec578063d547741f1461041557600080fd5b80637fc46ba81461036f57806391d1485414610398578063a217fddf146103d157600080fd5b806370480275116100bd578063704802751461032257806375829def1461033557806375b238fc1461034857600080fd5b806352351e85146102da578063550d01a3146102f257806363a8fd891461031557600080fd5b806324d7806c1161014557806336568abe1161011f57806336568abe1461027357806350d2a2761461028657806351e8152a146102c757600080fd5b806324d7806c1461023a5780632f2ff15d1461024d57806335b9ac661461026057600080fd5b8063204303181161017657806320430318146101cf57806322985246146101e2578063248a9ca31461021757600080fd5b806301ffc9a7146101925780631785f53c146101ba575b600080fd5b6101a56101a0366004611034565b610428565b60405190151581526020015b60405180910390f35b6101cd6101c836600461107a565b61045f565b005b6101cd6101dd36600461107a565b6104f1565b6102097ffb5864e8ff833c3cb2d2d08505e82ff02a43554c74a35d4f5a64e8526127831181565b6040519081526020016101b1565b610209610225366004611095565b60009081526004602052604090206001015490565b6101a561024836600461107a565b610638565b6101cd61025b3660046110ae565b610678565b6101cd61026e3660046110da565b6106a2565b6101cd6102813660046110ae565b610863565b6102af610294366004611034565b6003602052600090815260409020546001600160a01b031681565b6040516001600160a01b0390911681526020016101b1565b6101a56102d53660046110da565b6108ef565b6005546102af9061010090046001600160a01b031681565b6101a561030036600461107a565b60026020526000908152604090205460ff1681565b6000546101a59060ff1681565b6101cd61033036600461107a565b61092c565b6101cd61034336600461107a565b6109b6565b6102097fdf8b4c520ffe197c5343c6f5aec59570151ef9a492f2c624fd45ddde6135ec4281565b6102af61037d36600461107a565b6006602052600090815260409020546001600160a01b031681565b6101a56103a63660046110ae565b60009182526004602090815260408084206001600160a01b0393909316845291905290205460ff1690565b610209600081565b6101cd6103e736600461107a565b610b18565b6102af6103fa366004611095565b6001602052600090815260409020546001600160a01b031681565b6101cd6104233660046110ae565b610c35565b60006001600160e01b03198216637965db0b60e01b148061045957506301ffc9a760e01b6001600160e01b03198316145b92915050565b61046833610638565b6104c45760405162461bcd60e51b815260206004820152602260248201527f41636365737369626c653a2043616c6c6572206973206e6f7420616e2061646d60448201526134b760f11b60648201526084015b60405180910390fd5b6104ee7fdf8b4c520ffe197c5343c6f5aec59570151ef9a492f2c624fd45ddde6135ec4282610863565b50565b806001600160a01b03811661052d5760405162461bcd60e51b81526020600482015260026024820152612d1960f11b60448201526064016104bb565b6040516370a0823160e01b81523060048201526000906001600160a01b038416906370a0823190602401602060405180830381865afa158015610574573d6000803e3d6000fd5b505050506040513d601f19601f820116820180604052508101906105989190611104565b90506105d96040518060400160405280600c81526020017f6275726e416d6f756e74203a000000000000000000000000000000000000000081525082610c5a565b604051630852cd8d60e31b8152600481018290526001600160a01b038416906342966c6890602401600060405180830381600087803b15801561061b57600080fd5b505af115801561062f573d6000803e3d6000fd5b50505050505050565b6001600160a01b03811660009081527f2fb794d17134dfdec181ddbac1babb5ab1eb140204ef4d982f294e7fc8b69022602052604081205460ff16610459565b60008281526004602052604090206001015461069381610cb4565b61069d8383610cbe565b505050565b816001600160a01b0381166106de5760405162461bcd60e51b81526020600482015260026024820152612d1960f11b60448201526064016104bb565b816001600160a01b03811661071a5760405162461bcd60e51b81526020600482015260026024820152612d1960f11b60448201526064016104bb565b60055461010090046001600160a01b031615801590610748575060055461010090046001600160a01b031633145b6107945760405162461bcd60e51b815260206004820152601e60248201527f63616c6c6572206973206e6f74206c3250726f6a6563744d616e61676572000060448201526064016104bb565b6001600160a01b038481166000908152600660205260409020548185169116036107e95760405162461bcd60e51b81526004016104bb9060208082526004908201526373616d6560e01b604082015260600190565b6001600160a01b03848116600081815260066020908152604091829020805473ffffffffffffffffffffffffffffffffffffffff1916948816948517905581519283528201929092527fb00bb4c229aff6156cc8e2c767c571665e1927c09fe083ec055956a5a4026193910160405180910390a150505050565b6001600160a01b03811633146108e15760405162461bcd60e51b815260206004820152602f60248201527f416363657373436f6e74726f6c3a2063616e206f6e6c792072656e6f756e636560448201527f20726f6c657320666f722073656c66000000000000000000000000000000000060648201526084016104bb565b6108eb8282610d60565b5050565b60006001600160a01b0382161580159061092557506001600160a01b038381166000908152600660205260409020548116908316145b9392505050565b61093533610638565b61098c5760405162461bcd60e51b815260206004820152602260248201527f41636365737369626c653a2043616c6c6572206973206e6f7420616e2061646d60448201526134b760f11b60648201526084016104bb565b6104ee7fdf8b4c520ffe197c5343c6f5aec59570151ef9a492f2c624fd45ddde6135ec4282610678565b6109bf33610638565b610a165760405162461bcd60e51b815260206004820152602260248201527f41636365737369626c653a2043616c6c6572206973206e6f7420616e2061646d60448201526134b760f11b60648201526084016104bb565b6001600160a01b038116610a6c5760405162461bcd60e51b815260206004820152601860248201527f41636365737369626c653a207a65726f2061646472657373000000000000000060448201526064016104bb565b6001600160a01b0381163303610ac45760405162461bcd60e51b815260206004820152601660248201527f41636365737369626c653a2073616d652061646d696e0000000000000000000060448201526064016104bb565b610aee7fdf8b4c520ffe197c5343c6f5aec59570151ef9a492f2c624fd45ddde6135ec4282610678565b6104ee7fdf8b4c520ffe197c5343c6f5aec59570151ef9a492f2c624fd45ddde6135ec4233610863565b806001600160a01b038116610b545760405162461bcd60e51b81526020600482015260026024820152612d1960f11b60448201526064016104bb565b610b5d33610638565b610bb45760405162461bcd60e51b815260206004820152602260248201527f41636365737369626c653a2043616c6c6572206973206e6f7420616e2061646d60448201526134b760f11b60648201526084016104bb565b6005546001600160a01b038084166101009092041603610bff5760405162461bcd60e51b81526004016104bb9060208082526004908201526373616d6560e01b604082015260600190565b50600580546001600160a01b039092166101000274ffffffffffffffffffffffffffffffffffffffff0019909216919091179055565b600082815260046020526040902060010154610c5081610cb4565b61069d8383610d60565b6108eb8282604051602401610c7092919061116d565b60408051601f198184030181529190526020810180517bffffffffffffffffffffffffffffffffffffffffffffffffffffffff16632d839cb360e21b179052610de3565b6104ee8133610e04565b60008281526004602090815260408083206001600160a01b038516845290915290205460ff166108eb5760008281526004602090815260408083206001600160a01b03851684529091529020805460ff19166001179055610d1c3390565b6001600160a01b0316816001600160a01b0316837f2f8788117e7eff1d82e926ec794901d17c78024a50270940304540a733656f0d60405160405180910390a45050565b60008281526004602090815260408083206001600160a01b038516845290915290205460ff16156108eb5760008281526004602090815260408083206001600160a01b0385168085529252808320805460ff1916905551339285917ff6391f5c32d9c69d2a47ea670b442974b53935d1edc7fd64eb21e047a839171b9190a45050565b80516a636f6e736f6c652e6c6f67602083016000808483855afa5050505050565b60008281526004602090815260408083206001600160a01b038516845290915290205460ff166108eb57610e3781610e79565b610e42836020610e8b565b604051602001610e5392919061118f565b60408051601f198184030181529082905262461bcd60e51b82526104bb91600401611210565b60606104596001600160a01b03831660145b60606000610e9a836002611239565b610ea5906002611250565b67ffffffffffffffff811115610ebd57610ebd611263565b6040519080825280601f01601f191660200182016040528015610ee7576020820181803683370190505b509050600360fc1b81600081518110610f0257610f02611279565b60200101906001600160f81b031916908160001a905350600f60fb1b81600181518110610f3157610f31611279565b60200101906001600160f81b031916908160001a9053506000610f55846002611239565b610f60906001611250565b90505b6001811115610fe5577f303132333435363738396162636465660000000000000000000000000000000085600f1660108110610fa157610fa1611279565b1a60f81b828281518110610fb757610fb7611279565b60200101906001600160f81b031916908160001a90535060049490941c93610fde8161128f565b9050610f63565b5083156109255760405162461bcd60e51b815260206004820181905260248201527f537472696e67733a20686578206c656e67746820696e73756666696369656e7460448201526064016104bb565b60006020828403121561104657600080fd5b81356001600160e01b03198116811461092557600080fd5b80356001600160a01b038116811461107557600080fd5b919050565b60006020828403121561108c57600080fd5b6109258261105e565b6000602082840312156110a757600080fd5b5035919050565b600080604083850312156110c157600080fd5b823591506110d16020840161105e565b90509250929050565b600080604083850312156110ed57600080fd5b6110f68361105e565b91506110d16020840161105e565b60006020828403121561111657600080fd5b5051919050565b60005b83811015611138578181015183820152602001611120565b50506000910152565b6000815180845261115981602086016020860161111d565b601f01601f19169290920160200192915050565b6040815260006111806040830185611141565b90508260208301529392505050565b7f416363657373436f6e74726f6c3a206163636f756e74200000000000000000008152600083516111c781601785016020880161111d565b7f206973206d697373696e6720726f6c6520000000000000000000000000000000601791840191820152835161120481602884016020880161111d565b01602801949350505050565b6020815260006109256020830184611141565b634e487b7160e01b600052601160045260246000fd5b808202811582820484141761045957610459611223565b8082018082111561045957610459611223565b634e487b7160e01b600052604160045260246000fd5b634e487b7160e01b600052603260045260246000fd5b60008161129e5761129e611223565b50600019019056fea164736f6c6343000812000a",
  "linkReferences": {},
  "deployedLinkReferences": {}
}