{
  "_format": "hh-sol-artifact-1",
  "contractName": "LockIdNftForRegisterProxy",
  "sourceName": "contracts/stos/LockIdNftForRegisterProxy.sol",
  "abi": [
    {
      "inputs": [],
      "stateMutability": "nonpayable",
      "type": "constructor"
    },
    {
      "anonymous": false,
      "inputs": [
        {
          "indexed": true,
          "internalType": "address",
          "name": "previousManager",
          "type": "address"
        },
        {
          "indexed": true,
          "internalType": "address",
          "name": "newManager",
          "type": "address"
        }
      ],
      "name": "ManagershipTransferred",
      "type": "event"
    },
    {
      "anonymous": false,
      "inputs": [
        {
          "indexed": true,
          "internalType": "address",
          "name": "previousOwner",
          "type": "address"
        },
        {
          "indexed": true,
          "internalType": "address",
          "name": "newOwner",
          "type": "address"
        }
      ],
      "name": "OwnershipTransferred",
      "type": "event"
    },
    {
      "anonymous": false,
      "inputs": [
        {
          "indexed": true,
          "internalType": "address",
          "name": "impl",
          "type": "address"
        },
        {
          "indexed": false,
          "internalType": "bool",
          "name": "alive",
          "type": "bool"
        }
      ],
      "name": "SetAliveImplementation",
      "type": "event"
    },
    {
      "anonymous": false,
      "inputs": [
        {
          "indexed": true,
          "internalType": "bytes4",
          "name": "selector",
          "type": "bytes4"
        },
        {
          "indexed": true,
          "internalType": "address",
          "name": "impl",
          "type": "address"
        }
      ],
      "name": "SetSelectorImplementation",
      "type": "event"
    },
    {
      "anonymous": false,
      "inputs": [
        {
          "indexed": true,
          "internalType": "address",
          "name": "implementation",
          "type": "address"
        }
      ],
      "name": "Upgraded",
      "type": "event"
    },
    {
      "stateMutability": "payable",
      "type": "fallback"
    },
    {
      "inputs": [],
      "name": "MULTIPLIER",
      "outputs": [
        {
          "internalType": "uint256",
          "name": "",
          "type": "uint256"
        }
      ],
      "stateMutability": "view",
      "type": "function"
    },
    {
      "inputs": [],
      "name": "_ERC721_RECEIVED",
      "outputs": [
        {
          "internalType": "bytes4",
          "name": "",
          "type": "bytes4"
        }
      ],
      "stateMutability": "view",
      "type": "function"
    },
    {
      "inputs": [],
      "name": "_INTERFACE_ID_ERC721",
      "outputs": [
        {
          "internalType": "bytes4",
          "name": "",
          "type": "bytes4"
        }
      ],
      "stateMutability": "view",
      "type": "function"
    },
    {
      "inputs": [],
      "name": "_INTERFACE_ID_ERC721_ENUMERABLE",
      "outputs": [
        {
          "internalType": "bytes4",
          "name": "",
          "type": "bytes4"
        }
      ],
      "stateMutability": "view",
      "type": "function"
    },
    {
      "inputs": [],
      "name": "_INTERFACE_ID_ERC721_METADATA",
      "outputs": [
        {
          "internalType": "bytes4",
          "name": "",
          "type": "bytes4"
        }
      ],
      "stateMutability": "view",
      "type": "function"
    },
    {
      "inputs": [
        {
          "internalType": "uint256",
          "name": "",
          "type": "uint256"
        }
      ],
      "name": "_allTokens",
      "outputs": [
        {
          "internalType": "uint256",
          "name": "",
          "type": "uint256"
        }
      ],
      "stateMutability": "view",
      "type": "function"
    },
    {
      "inputs": [
        {
          "internalType": "uint256",
          "name": "",
          "type": "uint256"
        }
      ],
      "name": "_allTokensIndex",
      "outputs": [
        {
          "internalType": "uint256",
          "name": "",
          "type": "uint256"
        }
      ],
      "stateMutability": "view",
      "type": "function"
    },
    {
      "inputs": [],
      "name": "_baseURI",
      "outputs": [
        {
          "internalType": "string",
          "name": "",
          "type": "string"
        }
      ],
      "stateMutability": "view",
      "type": "function"
    },
    {
      "inputs": [],
      "name": "_manager",
      "outputs": [
        {
          "internalType": "address",
          "name": "",
          "type": "address"
        }
      ],
      "stateMutability": "view",
      "type": "function"
    },
    {
      "inputs": [],
      "name": "_name",
      "outputs": [
        {
          "internalType": "string",
          "name": "",
          "type": "string"
        }
      ],
      "stateMutability": "view",
      "type": "function"
    },
    {
      "inputs": [
        {
          "internalType": "address",
          "name": "",
          "type": "address"
        },
        {
          "internalType": "address",
          "name": "",
          "type": "address"
        }
      ],
      "name": "_operatorApprovals",
      "outputs": [
        {
          "internalType": "bool",
          "name": "",
          "type": "bool"
        }
      ],
      "stateMutability": "view",
      "type": "function"
    },
    {
      "inputs": [
        {
          "internalType": "address",
          "name": "",
          "type": "address"
        },
        {
          "internalType": "uint256",
          "name": "",
          "type": "uint256"
        }
      ],
      "name": "_ownedTokens",
      "outputs": [
        {
          "internalType": "uint256",
          "name": "",
          "type": "uint256"
        }
      ],
      "stateMutability": "view",
      "type": "function"
    },
    {
      "inputs": [
        {
          "internalType": "address",
          "name": "",
          "type": "address"
        }
      ],
      "name": "_ownedTokensCount",
      "outputs": [
        {
          "internalType": "uint256",
          "name": "",
          "type": "uint256"
        }
      ],
      "stateMutability": "view",
      "type": "function"
    },
    {
      "inputs": [
        {
          "internalType": "uint256",
          "name": "",
          "type": "uint256"
        }
      ],
      "name": "_ownedTokensIndex",
      "outputs": [
        {
          "internalType": "uint256",
          "name": "",
          "type": "uint256"
        }
      ],
      "stateMutability": "view",
      "type": "function"
    },
    {
      "inputs": [],
      "name": "_owner",
      "outputs": [
        {
          "internalType": "address",
          "name": "",
          "type": "address"
        }
      ],
      "stateMutability": "view",
      "type": "function"
    },
    {
      "inputs": [],
      "name": "_symbol",
      "outputs": [
        {
          "internalType": "string",
          "name": "",
          "type": "string"
        }
      ],
      "stateMutability": "view",
      "type": "function"
    },
    {
      "inputs": [
        {
          "internalType": "uint256",
          "name": "",
          "type": "uint256"
        }
      ],
      "name": "_tokenApprovals",
      "outputs": [
        {
          "internalType": "address",
          "name": "",
          "type": "address"
        }
      ],
      "stateMutability": "view",
      "type": "function"
    },
    {
      "inputs": [
        {
          "internalType": "uint256",
          "name": "",
          "type": "uint256"
        }
      ],
      "name": "_tokenAttributes",
      "outputs": [
        {
          "internalType": "uint8",
          "name": "",
          "type": "uint8"
        }
      ],
      "stateMutability": "view",
      "type": "function"
    },
    {
      "inputs": [
        {
          "internalType": "uint256",
          "name": "",
          "type": "uint256"
        }
      ],
      "name": "_tokenOwner",
      "outputs": [
        {
          "internalType": "address",
          "name": "",
          "type": "address"
        }
      ],
      "stateMutability": "view",
      "type": "function"
    },
    {
      "inputs": [
        {
          "internalType": "uint256",
          "name": "",
          "type": "uint256"
        }
      ],
      "name": "_tokenURIs",
      "outputs": [
        {
          "internalType": "string",
          "name": "",
          "type": "string"
        }
      ],
      "stateMutability": "view",
      "type": "function"
    },
    {
      "inputs": [
        {
          "internalType": "address",
          "name": "",
          "type": "address"
        }
      ],
      "name": "aliveImplementation",
      "outputs": [
        {
          "internalType": "bool",
          "name": "",
          "type": "bool"
        }
      ],
      "stateMutability": "view",
      "type": "function"
    },
    {
      "inputs": [],
      "name": "epochUnit",
      "outputs": [
        {
          "internalType": "uint256",
          "name": "",
          "type": "uint256"
        }
      ],
      "stateMutability": "view",
      "type": "function"
    },
    {
      "inputs": [
        {
          "internalType": "bytes4",
          "name": "_selector",
          "type": "bytes4"
        }
      ],
      "name": "getSelectorImplementation2",
      "outputs": [
        {
          "internalType": "address",
          "name": "impl",
          "type": "address"
        }
      ],
      "stateMutability": "view",
      "type": "function"
    },
    {
      "inputs": [],
      "name": "implementation",
      "outputs": [
        {
          "internalType": "address",
          "name": "",
          "type": "address"
        }
      ],
      "stateMutability": "view",
      "type": "function"
    },
    {
      "inputs": [
        {
          "internalType": "uint256",
          "name": "_index",
          "type": "uint256"
        }
      ],
      "name": "implementation2",
      "outputs": [
        {
          "internalType": "address",
          "name": "",
          "type": "address"
        }
      ],
      "stateMutability": "view",
      "type": "function"
    },
    {
      "inputs": [
        {
          "internalType": "uint256",
          "name": "",
          "type": "uint256"
        }
      ],
      "name": "indexCheckOfTimeset",
      "outputs": [
        {
          "internalType": "bool",
          "name": "",
          "type": "bool"
        }
      ],
      "stateMutability": "view",
      "type": "function"
    },
    {
      "inputs": [
        {
          "internalType": "uint256",
          "name": "",
          "type": "uint256"
        }
      ],
      "name": "indexOfTimeset",
      "outputs": [
        {
          "internalType": "uint256",
          "name": "",
          "type": "uint256"
        }
      ],
      "stateMutability": "view",
      "type": "function"
    },
    {
      "inputs": [],
      "name": "maxTime",
      "outputs": [
        {
          "internalType": "uint256",
          "name": "",
          "type": "uint256"
        }
      ],
      "stateMutability": "view",
      "type": "function"
    },
    {
      "inputs": [],
      "name": "pauseProxy",
      "outputs": [
        {
          "internalType": "bool",
          "name": "",
          "type": "bool"
        }
      ],
      "stateMutability": "view",
      "type": "function"
    },
    {
      "inputs": [
        {
          "internalType": "uint256",
          "name": "",
          "type": "uint256"
        },
        {
          "internalType": "uint256",
          "name": "",
          "type": "uint256"
        }
      ],
      "name": "pointHistoryByLockId",
      "outputs": [
        {
          "internalType": "int256",
          "name": "slope",
          "type": "int256"
        },
        {
          "internalType": "int256",
          "name": "bias",
          "type": "int256"
        },
        {
          "internalType": "uint32",
          "name": "timestamp",
          "type": "uint32"
        },
        {
          "internalType": "uint32",
          "name": "syncTime",
          "type": "uint32"
        }
      ],
      "stateMutability": "view",
      "type": "function"
    },
    {
      "inputs": [
        {
          "internalType": "uint256",
          "name": "",
          "type": "uint256"
        },
        {
          "internalType": "uint256",
          "name": "",
          "type": "uint256"
        }
      ],
      "name": "pointHistoryByWeek",
      "outputs": [
        {
          "internalType": "int256",
          "name": "slope",
          "type": "int256"
        },
        {
          "internalType": "int256",
          "name": "bias",
          "type": "int256"
        },
        {
          "internalType": "uint32",
          "name": "timestamp",
          "type": "uint32"
        },
        {
          "internalType": "uint32",
          "name": "syncTime",
          "type": "uint32"
        }
      ],
      "stateMutability": "view",
      "type": "function"
    },
    {
      "inputs": [
        {
          "internalType": "uint256",
          "name": "",
          "type": "uint256"
        }
      ],
      "name": "proxyImplementation",
      "outputs": [
        {
          "internalType": "address",
          "name": "",
          "type": "address"
        }
      ],
      "stateMutability": "view",
      "type": "function"
    },
    {
      "inputs": [],
      "name": "renounceManagership",
      "outputs": [],
      "stateMutability": "nonpayable",
      "type": "function"
    },
    {
      "inputs": [],
      "name": "renounceOwnership",
      "outputs": [],
      "stateMutability": "nonpayable",
      "type": "function"
    },
    {
      "inputs": [
        {
          "internalType": "bytes4",
          "name": "",
          "type": "bytes4"
        }
      ],
      "name": "selectorImplementation",
      "outputs": [
        {
          "internalType": "address",
          "name": "",
          "type": "address"
        }
      ],
      "stateMutability": "view",
      "type": "function"
    },
    {
      "inputs": [
        {
          "internalType": "address",
          "name": "newImplementation",
          "type": "address"
        },
        {
          "internalType": "bool",
          "name": "_alive",
          "type": "bool"
        }
      ],
      "name": "setAliveImplementation2",
      "outputs": [],
      "stateMutability": "nonpayable",
      "type": "function"
    },
    {
      "inputs": [
        {
          "internalType": "address",
          "name": "newImplementation",
          "type": "address"
        },
        {
          "internalType": "uint256",
          "name": "_index",
          "type": "uint256"
        },
        {
          "internalType": "bool",
          "name": "_alive",
          "type": "bool"
        }
      ],
      "name": "setImplementation2",
      "outputs": [],
      "stateMutability": "nonpayable",
      "type": "function"
    },
    {
      "inputs": [
        {
          "internalType": "bool",
          "name": "_pause",
          "type": "bool"
        }
      ],
      "name": "setProxyPause",
      "outputs": [],
      "stateMutability": "nonpayable",
      "type": "function"
    },
    {
      "inputs": [
        {
          "internalType": "bytes4[]",
          "name": "_selectors",
          "type": "bytes4[]"
        },
        {
          "internalType": "address",
          "name": "_imp",
          "type": "address"
        }
      ],
      "name": "setSelectorImplementations2",
      "outputs": [],
      "stateMutability": "nonpayable",
      "type": "function"
    },
    {
      "inputs": [
        {
          "internalType": "bytes4",
          "name": "interfaceId",
          "type": "bytes4"
        }
      ],
      "name": "supportsInterface",
      "outputs": [
        {
          "internalType": "bool",
          "name": "",
          "type": "bool"
        }
      ],
      "stateMutability": "view",
      "type": "function"
    },
    {
      "inputs": [
        {
          "internalType": "address",
          "name": "newManager",
          "type": "address"
        }
      ],
      "name": "transferManagership",
      "outputs": [],
      "stateMutability": "nonpayable",
      "type": "function"
    },
    {
      "inputs": [
        {
          "internalType": "address",
          "name": "newOwner",
          "type": "address"
        }
      ],
      "name": "transferOwnership",
      "outputs": [],
      "stateMutability": "nonpayable",
      "type": "function"
    },
    {
      "inputs": [
        {
          "internalType": "address",
          "name": "impl",
          "type": "address"
        }
      ],
      "name": "upgradeTo",
      "outputs": [],
      "stateMutability": "nonpayable",
      "type": "function"
    },
    {
      "inputs": [
        {
          "internalType": "address",
          "name": "_implementation",
          "type": "address"
        },
        {
          "internalType": "bytes",
          "name": "_data",
          "type": "bytes"
        }
      ],
      "name": "upgradeToAndCall",
      "outputs": [
        {
          "internalType": "bytes",
          "name": "",
          "type": "bytes"
        }
      ],
      "stateMutability": "payable",
      "type": "function"
    },
    {
      "stateMutability": "payable",
      "type": "receive"
    }
  ],
  "bytecode": "0x608060405234801561001057600080fd5b50600080546001600160a01b0319163390811782556040519091907f8be0079c531659141344cd1fd0a4f28419497f9722a3daafe3b4186f6b6457e0908290a36100606301ffc9a760e01b610077565b600580546001600160a01b031916331790556100fa565b6001600160e01b031980821690036100d55760405162461bcd60e51b815260206004820152601c60248201527f4552433136353a20696e76616c696420696e7465726661636520696400000000604482015260640160405180910390fd5b6001600160e01b0319166000908152600460205260409020805460ff19166001179055565b611b01806101096000396000f3fe6080604052600436106102eb5760003560e01c806388290adc11610184578063b911135f116100d6578063e178ee201161008a578063f2fde38b11610064578063f2fde38b146109b4578063f6631718146109d4578063fd2dcecf14610a015761033d565b8063e178ee2014610939578063edc3bc3f14610959578063f0329f6b146109945761033d565b8063cea823cd116100bb578063cea823cd146108d9578063d28d885214610909578063dece68541461091e5761033d565b8063b911135f14610883578063ccc39909146108b95761033d565b8063a726366511610138578063b01ac59111610112578063b01ac59114610833578063b09f12661461084e578063b2bdfa7b146108635761033d565b8063a7263665146107b0578063a7cc0136146107dd578063aa5965ae146108135761033d565b80638d4fdb40116101695780638d4fdb401461074857806394a509dd14610768578063a2e9b439146107835761033d565b806388290adc146106de5780638b8f4a65146107125761033d565b806350d2a2761161023d5780636c146d9b116101f1578063796db312116101cb578063796db312146106685780637cb00d251461069e5780637cd5f663146106be5761033d565b80636c146d9b14610629578063715018a61461063e578063743976a0146106535761033d565b80635c60da1b116102225780635c60da1b146105a25780635cc797d8146105e857806363a8fd89146106085761033d565b806350d2a27614610524578063550d01a3146105725761033d565b806322e67e711161029f5780634a5df50f116102795780634a5df50f146104d15780634f1ef286146104f15780634f3c5f06146105045761033d565b806322e67e711461044f57806328f02c68146104655780633659cfe6146104b15761033d565b80630bb78ec1116102d05780630bb78ec1146103c057806310c11360146103ed57806317a3a79c1461040d5761033d565b806301ffc9a714610347578063059f8b16146103965761033d565b3661033d5760405162461bcd60e51b815260206004820152601460248201527f63616e6e6f74207265636569766520457468657200000000000000000000000060448201526064015b60405180910390fd5b610345610a17565b005b34801561035357600080fd5b5061038161036236600461178a565b6001600160e01b03191660009081526004602052604090205460ff1690565b60405190151581526020015b60405180910390f35b3480156103a257600080fd5b506103b2670de0b6b3a764000081565b60405190815260200161038d565b3480156103cc57600080fd5b506103e06103db3660046117bb565b610ac7565b60405161038d919061181a565b3480156103f957600080fd5b506103b26104083660046117bb565b610b61565b34801561041957600080fd5b5061043d6104283660046117bb565b60096020526000908152604090205460ff1681565b60405160ff909116815260200161038d565b34801561045b57600080fd5b506103b260155481565b34801561047157600080fd5b5061048561048036600461182d565b610b82565b60408051948552602085019390935263ffffffff9182169284019290925216606082015260800161038d565b3480156104bd57600080fd5b506103456104cc366004611866565b610bd6565b3480156104dd57600080fd5b506103456104ec366004611881565b610d27565b6103e06104ff366004611905565b610fbf565b34801561051057600080fd5b506103b261051f366004611988565b6110f3565b34801561053057600080fd5b5061055a61053f36600461178a565b6003602052600090815260409020546001600160a01b031681565b6040516001600160a01b03909116815260200161038d565b34801561057e57600080fd5b5061038161058d366004611866565b60026020526000908152604090205460ff1681565b3480156105ae57600080fd5b506000805260016020527fa6eef7e35abe7026729641147f7915573c7e97b47efa546f5f6e3230263bcb49546001600160a01b031661055a565b3480156105f457600080fd5b506103456106033660046119c2565b611124565b34801561061457600080fd5b5060005461038190600160a01b900460ff1681565b34801561063557600080fd5b50610345611178565b34801561064a57600080fd5b5061034561120a565b34801561065f57600080fd5b506103e061129a565b34801561067457600080fd5b5061055a6106833660046117bb565b600b602052600090815260409020546001600160a01b031681565b3480156106aa57600080fd5b506103456106b93660046119f5565b6112a7565b3480156106ca57600080fd5b506103456106d9366004611a10565b61131c565b3480156106ea57600080fd5b506106f9630a85bd0160e11b81565b6040516001600160e01b0319909116815260200161038d565b34801561071e57600080fd5b5061055a61072d3660046117bb565b6000908152600160205260409020546001600160a01b031690565b34801561075457600080fd5b5061055a61076336600461178a565b61136d565b34801561077457600080fd5b506106f9635b5e139f60e01b81565b34801561078f57600080fd5b506103b261079e3660046117bb565b60106020526000908152604090205481565b3480156107bc57600080fd5b506103b26107cb3660046117bb565b60126020526000908152604090205481565b3480156107e957600080fd5b5061055a6107f83660046117bb565b600c602052600090815260409020546001600160a01b031681565b34801561081f57600080fd5b506103b261082e3660046117bb565b611469565b34801561083f57600080fd5b506106f963780e9d6360e01b81565b34801561085a57600080fd5b506103e0611479565b34801561086f57600080fd5b5060005461055a906001600160a01b031681565b34801561088f57600080fd5b5061055a61089e3660046117bb565b6001602052600090815260409020546001600160a01b031681565b3480156108c557600080fd5b506103456108d4366004611866565b611486565b3480156108e557600080fd5b506103816108f43660046117bb565b60196020526000908152604090205460ff1681565b34801561091557600080fd5b506103e0611580565b34801561092a57600080fd5b506106f96380ac58cd60e01b81565b34801561094557600080fd5b5061048561095436600461182d565b61158d565b34801561096557600080fd5b50610381610974366004611a43565b600e60209081526000928352604080842090915290825290205460ff1681565b3480156109a057600080fd5b5060055461055a906001600160a01b031681565b3480156109c057600080fd5b506103456109cf366004611866565b6115a9565b3480156109e057600080fd5b506103b26109ef366004611866565b600d6020526000908152604090205481565b348015610a0d57600080fd5b506103b260145481565b6000610a2e6000356001600160e01b03191661136d565b90506001600160a01b03811615801590610a525750600054600160a01b900460ff16155b610a9e5760405162461bcd60e51b815260206004820152601d60248201527f50726f78793a20696d706c204f522070726f78792069732066616c73650000006044820152606401610334565b3660008037600080366000845af43d6000803e808015610abd573d6000f35b3d6000fd5b505050565b60086020526000908152604090208054610ae090611a6d565b80601f0160208091040260200160405190810160405280929190818152602001828054610b0c90611a6d565b8015610b595780601f10610b2e57610100808354040283529160200191610b59565b820191906000526020600020905b815481529060010190602001808311610b3c57829003601f168201915b505050505081565b60188181548110610b7157600080fd5b600091825260209091200154905081565b60176020528160005260406000208181548110610b9e57600080fd5b600091825260209091206003909102018054600182015460029092015490935090915063ffffffff8082169164010000000090041684565b6000546001600160a01b03163314610c1c5760405162461bcd60e51b81526020600482015260096024820152683737ba1037bbb732b960b91b6044820152606401610334565b6001600160a01b038116610c725760405162461bcd60e51b815260206004820152600d60248201527f696e707574206973207a65726f000000000000000000000000000000000000006044820152606401610334565b6000805260016020527fa6eef7e35abe7026729641147f7915573c7e97b47efa546f5f6e3230263bcb49546001600160a01b03828116911603610ce35760405162461bcd60e51b815260206004820152600960248201526839b0b6b29030b2323960b91b6044820152606401610334565b610cf081600060016116a0565b6040516001600160a01b038216907fbc7cd75a20ee27fd9adebab32041f755214dbc6bffa90cc0225b39da2e5c2d3b90600090a250565b6000546001600160a01b03163314610d6d5760405162461bcd60e51b81526020600482015260096024820152683737ba1037bbb732b960b91b6044820152606401610334565b81610dba5760405162461bcd60e51b815260206004820181905260248201527f50726f78793a205f73656c6563746f727327732073697a65206973207a65726f6044820152606401610334565b6001600160a01b03811660009081526002602052604090205460ff16610e225760405162461bcd60e51b815260206004820152601860248201527f50726f78793a205f696d70206973206e6f7420616c69766500000000000000006044820152606401610334565b60005b82811015610fb957816001600160a01b031660036000868685818110610e4d57610e4d611aa7565b9050602002016020810190610e62919061178a565b6001600160e01b03191681526020810191909152604001600020546001600160a01b031603610ed35760405162461bcd60e51b815260206004820152601d60248201527f4c69717569646974795661756c7450726f78793a2073616d6520696d700000006044820152606401610334565b8160036000868685818110610eea57610eea611aa7565b9050602002016020810190610eff919061178a565b6001600160e01b0319168152602081019190915260400160002080546001600160a01b0319166001600160a01b039283161790558216848483818110610f4757610f47611aa7565b9050602002016020810190610f5c919061178a565b7bffffffffffffffffffffffffffffffffffffffffffffffffffffffff19167f14ebc1c32aa68f4d766e89f3e546cee249f7df25183fc10ab1568d91c2ce9b7b60405160405180910390a380610fb181611abd565b915050610e25565b50505050565b6000546060906001600160a01b031633146110085760405162461bcd60e51b81526020600482015260096024820152683737ba1037bbb732b960b91b6044820152606401610334565b61101584600060016116a0565b600080856001600160a01b03168585604051611032929190611ae4565b600060405180830381855af49150503d806000811461106d576040519150601f19603f3d011682016040523d82523d6000602084013e611072565b606091505b5091509150816110ea5760405162461bcd60e51b815260206004820152603960248201527f50726f78793a2064656c656761746563616c6c20746f206e657720696d706c6560448201527f6d656e746174696f6e20636f6e7472616374206661696c6564000000000000006064820152608401610334565b95945050505050565b600f602052816000526040600020818154811061110f57600080fd5b90600052602060002001600091509150505481565b6000546001600160a01b0316331461116a5760405162461bcd60e51b81526020600482015260096024820152683737ba1037bbb732b960b91b6044820152606401610334565b611174828261172b565b5050565b6005546001600160a01b031633146111c05760405162461bcd60e51b815260206004820152600b60248201526a3737ba1036b0b730b3b2b960a91b6044820152606401610334565b6005546040516000916001600160a01b0316907f697e4e68d3879b0dd3414a88905117bac8f0a54b0cd8e7779f909bf1a1cf5683908390a3600580546001600160a01b0319169055565b6000546001600160a01b031633146112505760405162461bcd60e51b81526020600482015260096024820152683737ba1037bbb732b960b91b6044820152606401610334565b600080546040516001600160a01b03909116907f8be0079c531659141344cd1fd0a4f28419497f9722a3daafe3b4186f6b6457e0908390a3600080546001600160a01b0319169055565b600a8054610ae090611a6d565b6000546001600160a01b031633146112ed5760405162461bcd60e51b81526020600482015260096024820152683737ba1037bbb732b960b91b6044820152606401610334565b60008054911515600160a01b0274ff000000000000000000000000000000000000000019909216919091179055565b6000546001600160a01b031633146113625760405162461bcd60e51b81526020600482015260096024820152683737ba1037bbb732b960b91b6044820152606401610334565b610ac28383836116a0565b6001600160e01b031981166000908152600360205260408120546001600160a01b03166113cd5750506000805260016020527fa6eef7e35abe7026729641147f7915573c7e97b47efa546f5f6e3230263bcb49546001600160a01b031690565b6001600160e01b031982166000908152600360209081526040808320546001600160a01b03168352600290915290205460ff161561142b57506001600160e01b0319166000908152600360205260409020546001600160a01b031690565b50506000805260016020527fa6eef7e35abe7026729641147f7915573c7e97b47efa546f5f6e3230263bcb49546001600160a01b031690565b919050565b60118181548110610b7157600080fd5b60078054610ae090611a6d565b6005546001600160a01b031633146114ce5760405162461bcd60e51b815260206004820152600b60248201526a3737ba1036b0b730b3b2b960a91b6044820152606401610334565b6001600160a01b0381166115245760405162461bcd60e51b815260206004820152601f60248201527f6e6577206d616e6167657220697320746865207a65726f2061646472657373006044820152606401610334565b6005546040516001600160a01b038084169216907f697e4e68d3879b0dd3414a88905117bac8f0a54b0cd8e7779f909bf1a1cf568390600090a3600580546001600160a01b0319166001600160a01b0392909216919091179055565b60068054610ae090611a6d565b60166020528160005260406000208181548110610b9e57600080fd5b6000546001600160a01b031633146115ef5760405162461bcd60e51b81526020600482015260096024820152683737ba1037bbb732b960b91b6044820152606401610334565b6001600160a01b0381166116455760405162461bcd60e51b815260206004820152601d60248201527f6e6577206f776e657220697320746865207a65726f20616464726573730000006044820152606401610334565b600080546040516001600160a01b03808516939216917f8be0079c531659141344cd1fd0a4f28419497f9722a3daafe3b4186f6b6457e091a3600080546001600160a01b0319166001600160a01b0392909216919091179055565b6001600160a01b0383163b6116f75760405162461bcd60e51b815260206004820152601b60248201527f50726f78793a206e6f7420636f6e7472616374206164647265737300000000006044820152606401610334565b801561172557600082815260016020526040902080546001600160a01b0319166001600160a01b0385161790555b610ac283825b6001600160a01b038216600081815260026020908152604091829020805460ff191685151590811790915591519182527f72558d9bfba4210f9ef095c782589484151f6d90f7a81bb3cb9b33efc695d324910160405180910390a25050565b60006020828403121561179c57600080fd5b81356001600160e01b0319811681146117b457600080fd5b9392505050565b6000602082840312156117cd57600080fd5b5035919050565b6000815180845260005b818110156117fa576020818501810151868301820152016117de565b506000602082860101526020601f19601f83011685010191505092915050565b6020815260006117b460208301846117d4565b6000806040838503121561184057600080fd5b50508035926020909101359150565b80356001600160a01b038116811461146457600080fd5b60006020828403121561187857600080fd5b6117b48261184f565b60008060006040848603121561189657600080fd5b833567ffffffffffffffff808211156118ae57600080fd5b818601915086601f8301126118c257600080fd5b8135818111156118d157600080fd5b8760208260051b85010111156118e657600080fd5b6020928301955093506118fc918601905061184f565b90509250925092565b60008060006040848603121561191a57600080fd5b6119238461184f565b9250602084013567ffffffffffffffff8082111561194057600080fd5b818601915086601f83011261195457600080fd5b81358181111561196357600080fd5b87602082850101111561197557600080fd5b6020830194508093505050509250925092565b6000806040838503121561199b57600080fd5b6119a48361184f565b946020939093013593505050565b8035801515811461146457600080fd5b600080604083850312156119d557600080fd5b6119de8361184f565b91506119ec602084016119b2565b90509250929050565b600060208284031215611a0757600080fd5b6117b4826119b2565b600080600060608486031215611a2557600080fd5b611a2e8461184f565b9250602084013591506118fc604085016119b2565b60008060408385031215611a5657600080fd5b611a5f8361184f565b91506119ec6020840161184f565b600181811c90821680611a8157607f821691505b602082108103611aa157634e487b7160e01b600052602260045260246000fd5b50919050565b634e487b7160e01b600052603260045260246000fd5b600060018201611add57634e487b7160e01b600052601160045260246000fd5b5060010190565b818382376000910190815291905056fea164736f6c6343000812000a",
  "linkReferences": {},
  "deployedLinkReferences": {}
}