{
  "_format": "hh-sol-artifact-1",
  "contractName": "L2AirdropTonVault",
  "sourceName": "contracts/L2/vaults/L2AirdropTonVault.sol",
  "abi": [
    {
      "anonymous": false,
      "inputs": [
        {
          "indexed": false,
          "internalType": "address",
          "name": "l2Token",
          "type": "address"
        },
        {
          "indexed": false,
          "internalType": "uint256",
          "name": "amount",
          "type": "uint256"
        }
      ],
      "name": "ClaimedInVault",
      "type": "event"
    },
    {
      "anonymous": false,
      "inputs": [
        {
          "indexed": false,
          "internalType": "address",
          "name": "l2Token",
          "type": "address"
        },
        {
          "components": [
            {
              "internalType": "address",
              "name": "claimer",
              "type": "address"
            },
            {
              "internalType": "uint256",
              "name": "totalAllocatedAmount",
              "type": "uint256"
            },
            {
              "internalType": "uint256",
              "name": "totalClaimCount",
              "type": "uint256"
            },
            {
              "internalType": "uint256",
              "name": "firstClaimAmount",
              "type": "uint256"
            },
            {
              "internalType": "uint32",
              "name": "firstClaimTime",
              "type": "uint32"
            },
            {
              "internalType": "uint32",
              "name": "secondClaimTime",
              "type": "uint32"
            },
            {
              "internalType": "uint32",
              "name": "roundIntervalTime",
              "type": "uint32"
            }
          ],
          "indexed": false,
          "internalType": "struct LibProject.InitalParameterScheduleVault",
          "name": "parmas",
          "type": "tuple"
        }
      ],
      "name": "InitializedL2AirdropTonVault",
      "type": "event"
    },
    {
      "anonymous": false,
      "inputs": [
        {
          "indexed": true,
          "internalType": "bytes32",
          "name": "role",
          "type": "bytes32"
        },
        {
          "indexed": true,
          "internalType": "bytes32",
          "name": "previousAdminRole",
          "type": "bytes32"
        },
        {
          "indexed": true,
          "internalType": "bytes32",
          "name": "newAdminRole",
          "type": "bytes32"
        }
      ],
      "name": "RoleAdminChanged",
      "type": "event"
    },
    {
      "anonymous": false,
      "inputs": [
        {
          "indexed": true,
          "internalType": "bytes32",
          "name": "role",
          "type": "bytes32"
        },
        {
          "indexed": true,
          "internalType": "address",
          "name": "account",
          "type": "address"
        },
        {
          "indexed": true,
          "internalType": "address",
          "name": "sender",
          "type": "address"
        }
      ],
      "name": "RoleGranted",
      "type": "event"
    },
    {
      "anonymous": false,
      "inputs": [
        {
          "indexed": true,
          "internalType": "bytes32",
          "name": "role",
          "type": "bytes32"
        },
        {
          "indexed": true,
          "internalType": "address",
          "name": "account",
          "type": "address"
        },
        {
          "indexed": true,
          "internalType": "address",
          "name": "sender",
          "type": "address"
        }
      ],
      "name": "RoleRevoked",
      "type": "event"
    },
    {
      "anonymous": false,
      "inputs": [
        {
          "indexed": false,
          "internalType": "address",
          "name": "newDividendPool",
          "type": "address"
        }
      ],
      "name": "SetDividendPool",
      "type": "event"
    },
    {
      "anonymous": false,
      "inputs": [
        {
          "indexed": false,
          "internalType": "address",
          "name": "l2Token",
          "type": "address"
        },
        {
          "indexed": false,
          "internalType": "address",
          "name": "newAdmin",
          "type": "address"
        }
      ],
      "name": "SetVaultAdmin",
      "type": "event"
    },
    {
      "inputs": [],
      "name": "ADMIN_ROLE",
      "outputs": [
        {
          "internalType": "bytes32",
          "name": "",
          "type": "bytes32"
        }
      ],
      "stateMutability": "view",
      "type": "function"
    },
    {
      "inputs": [],
      "name": "DEFAULT_ADMIN_ROLE",
      "outputs": [
        {
          "internalType": "bytes32",
          "name": "",
          "type": "bytes32"
        }
      ],
      "stateMutability": "view",
      "type": "function"
    },
    {
      "inputs": [],
      "name": "POLICY_ROLE",
      "outputs": [
        {
          "internalType": "bytes32",
          "name": "",
          "type": "bytes32"
        }
      ],
      "stateMutability": "view",
      "type": "function"
    },
    {
      "inputs": [
        {
          "internalType": "address",
          "name": "account",
          "type": "address"
        }
      ],
      "name": "addAdmin",
      "outputs": [],
      "stateMutability": "nonpayable",
      "type": "function"
    },
    {
      "inputs": [
        {
          "internalType": "address",
          "name": "",
          "type": "address"
        }
      ],
      "name": "aliveImplementation",
      "outputs": [
        {
          "internalType": "bool",
          "name": "",
          "type": "bool"
        }
      ],
      "stateMutability": "view",
      "type": "function"
    },
    {
      "inputs": [
        {
          "internalType": "address",
          "name": "l2Token",
          "type": "address"
        }
      ],
      "name": "availableClaimAmount",
      "outputs": [
        {
          "internalType": "uint256",
          "name": "amount",
          "type": "uint256"
        }
      ],
      "stateMutability": "view",
      "type": "function"
    },
    {
      "inputs": [
        {
          "internalType": "address",
          "name": "l2Token",
          "type": "address"
        }
      ],
      "name": "claim",
      "outputs": [],
      "stateMutability": "nonpayable",
      "type": "function"
    },
    {
      "inputs": [],
      "name": "dividendPool",
      "outputs": [
        {
          "internalType": "address",
          "name": "",
          "type": "address"
        }
      ],
      "stateMutability": "view",
      "type": "function"
    },
    {
      "inputs": [
        {
          "internalType": "address",
          "name": "l2Token",
          "type": "address"
        }
      ],
      "name": "getCurrentRound",
      "outputs": [
        {
          "internalType": "uint256",
          "name": "round",
          "type": "uint256"
        }
      ],
      "stateMutability": "view",
      "type": "function"
    },
    {
      "inputs": [
        {
          "internalType": "bytes32",
          "name": "role",
          "type": "bytes32"
        }
      ],
      "name": "getRoleAdmin",
      "outputs": [
        {
          "internalType": "bytes32",
          "name": "",
          "type": "bytes32"
        }
      ],
      "stateMutability": "view",
      "type": "function"
    },
    {
      "inputs": [
        {
          "internalType": "bytes32",
          "name": "role",
          "type": "bytes32"
        },
        {
          "internalType": "address",
          "name": "account",
          "type": "address"
        }
      ],
      "name": "grantRole",
      "outputs": [],
      "stateMutability": "nonpayable",
      "type": "function"
    },
    {
      "inputs": [
        {
          "internalType": "bytes32",
          "name": "role",
          "type": "bytes32"
        },
        {
          "internalType": "address",
          "name": "account",
          "type": "address"
        }
      ],
      "name": "hasRole",
      "outputs": [
        {
          "internalType": "bool",
          "name": "",
          "type": "bool"
        }
      ],
      "stateMutability": "view",
      "type": "function"
    },
    {
      "inputs": [
        {
          "internalType": "address",
          "name": "l2Token",
          "type": "address"
        },
        {
          "components": [
            {
              "internalType": "address",
              "name": "claimer",
              "type": "address"
            },
            {
              "internalType": "uint256",
              "name": "totalAllocatedAmount",
              "type": "uint256"
            },
            {
              "internalType": "uint256",
              "name": "totalClaimCount",
              "type": "uint256"
            },
            {
              "internalType": "uint256",
              "name": "firstClaimAmount",
              "type": "uint256"
            },
            {
              "internalType": "uint32",
              "name": "firstClaimTime",
              "type": "uint32"
            },
            {
              "internalType": "uint32",
              "name": "secondClaimTime",
              "type": "uint32"
            },
            {
              "internalType": "uint32",
              "name": "roundIntervalTime",
              "type": "uint32"
            }
          ],
          "internalType": "struct LibProject.InitalParameterScheduleVault",
          "name": "params",
          "type": "tuple"
        }
      ],
      "name": "initialize",
      "outputs": [],
      "stateMutability": "nonpayable",
      "type": "function"
    },
    {
      "inputs": [
        {
          "internalType": "address",
          "name": "account",
          "type": "address"
        }
      ],
      "name": "isAdmin",
      "outputs": [
        {
          "internalType": "bool",
          "name": "",
          "type": "bool"
        }
      ],
      "stateMutability": "view",
      "type": "function"
    },
    {
      "inputs": [
        {
          "internalType": "address",
          "name": "l2Token",
          "type": "address"
        },
        {
          "internalType": "address",
          "name": "account",
          "type": "address"
        }
      ],
      "name": "isVaultAdmin",
      "outputs": [
        {
          "internalType": "bool",
          "name": "",
          "type": "bool"
        }
      ],
      "stateMutability": "view",
      "type": "function"
    },
    {
      "inputs": [],
      "name": "l2ProjectManager",
      "outputs": [
        {
          "internalType": "address",
          "name": "",
          "type": "address"
        }
      ],
      "stateMutability": "view",
      "type": "function"
    },
    {
      "inputs": [],
      "name": "pauseProxy",
      "outputs": [
        {
          "internalType": "bool",
          "name": "",
          "type": "bool"
        }
      ],
      "stateMutability": "view",
      "type": "function"
    },
    {
      "inputs": [
        {
          "internalType": "uint256",
          "name": "",
          "type": "uint256"
        }
      ],
      "name": "proxyImplementation",
      "outputs": [
        {
          "internalType": "address",
          "name": "",
          "type": "address"
        }
      ],
      "stateMutability": "view",
      "type": "function"
    },
    {
      "inputs": [
        {
          "internalType": "address",
          "name": "account",
          "type": "address"
        }
      ],
      "name": "removeAdmin",
      "outputs": [],
      "stateMutability": "nonpayable",
      "type": "function"
    },
    {
      "inputs": [
        {
          "internalType": "bytes32",
          "name": "role",
          "type": "bytes32"
        },
        {
          "internalType": "address",
          "name": "account",
          "type": "address"
        }
      ],
      "name": "renounceRole",
      "outputs": [],
      "stateMutability": "nonpayable",
      "type": "function"
    },
    {
      "inputs": [
        {
          "internalType": "bytes32",
          "name": "role",
          "type": "bytes32"
        },
        {
          "internalType": "address",
          "name": "account",
          "type": "address"
        }
      ],
      "name": "revokeRole",
      "outputs": [],
      "stateMutability": "nonpayable",
      "type": "function"
    },
    {
      "inputs": [
        {
          "internalType": "bytes4",
          "name": "",
          "type": "bytes4"
        }
      ],
      "name": "selectorImplementation",
      "outputs": [
        {
          "internalType": "address",
          "name": "",
          "type": "address"
        }
      ],
      "stateMutability": "view",
      "type": "function"
    },
    {
      "inputs": [
        {
          "internalType": "address",
          "name": "_newDividendPool",
          "type": "address"
        }
      ],
      "name": "setDividendPool",
      "outputs": [],
      "stateMutability": "nonpayable",
      "type": "function"
    },
    {
      "inputs": [
        {
          "internalType": "address",
          "name": "_l2ProjectManager",
          "type": "address"
        }
      ],
      "name": "setL2ProjectManager",
      "outputs": [],
      "stateMutability": "nonpayable",
      "type": "function"
    },
    {
      "inputs": [
        {
          "internalType": "address",
          "name": "l2Token",
          "type": "address"
        },
        {
          "internalType": "address",
          "name": "_newAdmin",
          "type": "address"
        }
      ],
      "name": "setVaultAdmin",
      "outputs": [],
      "stateMutability": "nonpayable",
      "type": "function"
    },
    {
      "inputs": [
        {
          "internalType": "bytes4",
          "name": "interfaceId",
          "type": "bytes4"
        }
      ],
      "name": "supportsInterface",
      "outputs": [
        {
          "internalType": "bool",
          "name": "",
          "type": "bool"
        }
      ],
      "stateMutability": "view",
      "type": "function"
    },
    {
      "inputs": [
        {
          "internalType": "address",
          "name": "newAdmin",
          "type": "address"
        }
      ],
      "name": "transferAdmin",
      "outputs": [],
      "stateMutability": "nonpayable",
      "type": "function"
    },
    {
      "inputs": [
        {
          "internalType": "address",
          "name": "l2Token",
          "type": "address"
        },
        {
          "internalType": "address",
          "name": "_newAdmin",
          "type": "address"
        }
      ],
      "name": "transferVaultAdmin",
      "outputs": [],
      "stateMutability": "nonpayable",
      "type": "function"
    },
    {
      "inputs": [
        {
          "internalType": "address",
          "name": "",
          "type": "address"
        }
      ],
      "name": "vaultAdminOfToken",
      "outputs": [
        {
          "internalType": "address",
          "name": "",
          "type": "address"
        }
      ],
      "stateMutability": "view",
      "type": "function"
    },
    {
      "inputs": [
        {
          "internalType": "address",
          "name": "",
          "type": "address"
        }
      ],
      "name": "vaultInfo",
      "outputs": [
        {
          "internalType": "address",
          "name": "claimer",
          "type": "address"
        },
        {
          "internalType": "uint256",
          "name": "totalAllocatedAmount",
          "type": "uint256"
        },
        {
          "internalType": "uint256",
          "name": "totalClaimCount",
          "type": "uint256"
        },
        {
          "internalType": "uint256",
          "name": "totalClaimedAmount",
          "type": "uint256"
        },
        {
          "internalType": "uint256",
          "name": "firstClaimAmount",
          "type": "uint256"
        },
        {
          "internalType": "uint32",
          "name": "firstClaimTime",
          "type": "uint32"
        },
        {
          "internalType": "uint32",
          "name": "secondClaimTime",
          "type": "uint32"
        },
        {
          "internalType": "uint32",
          "name": "roundInterval",
          "type": "uint32"
        },
        {
          "internalType": "uint32",
          "name": "latestClaimedRound",
          "type": "uint32"
        }
      ],
      "stateMutability": "view",
      "type": "function"
    },
    {
      "inputs": [
        {
          "internalType": "address",
          "name": "l2Token",
          "type": "address"
        }
      ],
      "name": "viewVaultInfo",
      "outputs": [
        {
          "components": [
            {
              "internalType": "address",
              "name": "claimer",
              "type": "address"
            },
            {
              "internalType": "uint256",
              "name": "totalAllocatedAmount",
              "type": "uint256"
            },
            {
              "internalType": "uint256",
              "name": "totalClaimCount",
              "type": "uint256"
            },
            {
              "internalType": "uint256",
              "name": "totalClaimedAmount",
              "type": "uint256"
            },
            {
              "internalType": "uint256",
              "name": "firstClaimAmount",
              "type": "uint256"
            },
            {
              "internalType": "uint32",
              "name": "firstClaimTime",
              "type": "uint32"
            },
            {
              "internalType": "uint32",
              "name": "secondClaimTime",
              "type": "uint32"
            },
            {
              "internalType": "uint32",
              "name": "roundInterval",
              "type": "uint32"
            },
            {
              "internalType": "uint32",
              "name": "latestClaimedRound",
              "type": "uint32"
            }
          ],
          "internalType": "struct LibScheduleVault.VaultInfo",
          "name": "",
          "type": "tuple"
        }
      ],
      "stateMutability": "view",
      "type": "function"
    }
  ],
  "bytecode": "0x60806040526005805460ff1916600117905534801561001d57600080fd5b506125058061002d6000396000f3fe608060405234801561001057600080fd5b50600436106101e55760003560e01c8063550d01a31161010f57806391d14854116100a2578063ad4c325a11610071578063ad4c325a14610573578063b911135f14610586578063d547741f146105af578063dc861da6146105c257600080fd5b806391d148541461050c578063a217fddf14610545578063a41823431461054d578063a7bd3e9d1461056057600080fd5b806375829def116100de57806375829def146103d957806375b238fc146103ec5780637fc46ba8146104135780639164359a1461043c57600080fd5b8063550d01a314610383578063565b1a25146103a657806363a8fd89146103b957806370480275146103c657600080fd5b80632f2ff15d11610187578063390d15d211610156578063390d15d21461031c57806350d2a2761461032f57806351e8152a1461035857806352351e851461036b57600080fd5b80632f2ff15d146102b857806330d172d5146102cb57806335b9ac66146102f657806336568abe1461030957600080fd5b80631e8948c3116101c35780631e8948c31461023a578063229852461461024d578063248a9ca31461028257806324d7806c146102a557600080fd5b806301ffc9a7146101ea5780631785f53c146102125780631e83409a14610227575b600080fd5b6101fd6101f83660046120c9565b6106c0565b60405190151581526020015b60405180910390f35b61022561022036600461210f565b6106f7565b005b61022561023536600461210f565b610789565b61022561024836600461212a565b610ab3565b6102747ffb5864e8ff833c3cb2d2d08505e82ff02a43554c74a35d4f5a64e8526127831181565b604051908152602001610209565b61027461029036600461215d565b60009081526004602052604090206001015490565b6101fd6102b336600461210f565b610c8d565b6102256102c6366004612176565b610ccd565b6008546102de906001600160a01b031681565b6040516001600160a01b039091168152602001610209565b61022561030436600461212a565b610cf7565b610225610317366004612176565b610ea2565b61027461032a36600461210f565b610f2e565b6102de61033d3660046120c9565b6003602052600090815260409020546001600160a01b031681565b6101fd61036636600461212a565b610f39565b6005546102de9061010090046001600160a01b031681565b6101fd61039136600461210f565b60026020526000908152604090205460ff1681565b6102746103b436600461210f565b610f76565b6000546101fd9060ff1681565b6102256103d436600461210f565b610f81565b6102256103e736600461210f565b61100b565b6102747fdf8b4c520ffe197c5343c6f5aec59570151ef9a492f2c624fd45ddde6135ec4281565b6102de61042136600461210f565b6006602052600090815260409020546001600160a01b031681565b6104af61044a36600461210f565b6007602052600090815260409020805460018201546002830154600384015460048501546005909501546001600160a01b039094169492939192909163ffffffff808216916401000000008104821691600160401b8204811691600160601b90041689565b604080516001600160a01b03909a168a5260208a0198909852968801959095526060870193909352608086019190915263ffffffff90811660a086015290811660c085015290811660e08401521661010082015261012001610209565b6101fd61051a366004612176565b60009182526004602090815260408084206001600160a01b0393909316845291905290205460ff1690565b610274600081565b61022561055b36600461210f565b61116d565b61022561056e36600461210f565b61128a565b6102256105813660046121c3565b6113c1565b6102de61059436600461215d565b6001602052600090815260409020546001600160a01b031681565b6102256105bd366004612176565b611975565b6106b36105d036600461210f565b6040805161012081018252600080825260208201819052918101829052606081018290526080810182905260a0810182905260c0810182905260e08101829052610100810191909152506001600160a01b039081166000908152600760209081526040918290208251610120810184528154909416845260018101549184019190915260028101549183019190915260038101546060830152600481015460808301526005015463ffffffff80821660a08401526401000000008204811660c0840152600160401b8204811660e0840152600160601b9091041661010082015290565b6040516102099190612294565b60006001600160e01b03198216637965db0b60e01b14806106f157506301ffc9a760e01b6001600160e01b03198316145b92915050565b61070033610c8d565b61075c5760405162461bcd60e51b815260206004820152602260248201527f41636365737369626c653a2043616c6c6572206973206e6f7420616e2061646d60448201526134b760f11b60648201526084015b60405180910390fd5b6107867fdf8b4c520ffe197c5343c6f5aec59570151ef9a492f2c624fd45ddde6135ec4282610ea2565b50565b806001600160a01b0381166107c55760405162461bcd60e51b81526020600482015260026024820152612d1960f11b6044820152606401610753565b60006107d08361199a565b9050806000036108225760405162461bcd60e51b815260206004820152601360248201527f6e6f20636c61696d61626c6520616d6f756e74000000000000000000000000006044820152606401610753565b6040516370a0823160e01b81523060048201526001600160a01b038416906370a0823190602401602060405180830381865afa158015610866573d6000803e3d6000fd5b505050506040513d601f19601f8201168201806040525081019061088a9190612327565b8111156108d95760405162461bcd60e51b815260206004820152601460248201527f696e73756666696369656e742062616c616e63650000000000000000000000006044820152606401610753565b6001600160a01b03831660009081526007602052604081206003018054839290610904908490612356565b9091555050600854604051636eb1769f60e11b81523060048201526001600160a01b03918216602482015260009185169063dd62ed3e90604401602060405180830381865afa15801561095b573d6000803e3d6000fd5b505050506040513d601f19601f8201168201806040525081019061097f9190612327565b905081811015610a035760085460405163095ea7b360e01b81526001600160a01b03918216600482015260001960248201529085169063095ea7b3906044016020604051808303816000875af11580156109dd573d6000803e3d6000fd5b505050506040513d601f19601f82011682018060405250810190610a019190612369565b505b600854604051631f72642160e31b81526001600160a01b038681166004830152602482018590529091169063fb93210890604401600060405180830381600087803b158015610a5157600080fd5b505af1158015610a65573d6000803e3d6000fd5b5050604080516001600160a01b0388168152602081018690527f89086dafc339c6f74b6f950c45520e5904b16cf96c7cd2f4702c7f9e46ce060493500190505b60405180910390a150505050565b816001600160a01b038116610aef5760405162461bcd60e51b81526020600482015260026024820152612d1960f11b6044820152606401610753565b816001600160a01b038116610b2b5760405162461bcd60e51b81526020600482015260026024820152612d1960f11b6044820152606401610753565b6001600160a01b0380851660009081526006602052604090205485911615801590610b6f57506001600160a01b038181166000908152600660205260409020541633145b610bc95760405162461bcd60e51b815260206004820152602560248201527f63616c6c6572206973206e6f742061207661756c7441646d696e204f66206c326044820152642a37b5b2b760d91b6064820152608401610753565b6001600160a01b03858116600090815260066020526040902054818616911603610c1e5760405162461bcd60e51b81526004016107539060208082526004908201526373616d6560e01b604082015260600190565b6001600160a01b0385811660008181526006602090815260409182902080546001600160a01b031916948916948517905581519283528201929092527fb00bb4c229aff6156cc8e2c767c571665e1927c09fe083ec055956a5a402619391015b60405180910390a15050505050565b6001600160a01b03811660009081527f2fb794d17134dfdec181ddbac1babb5ab1eb140204ef4d982f294e7fc8b69022602052604081205460ff166106f1565b600082815260046020526040902060010154610ce881611afb565b610cf28383611b05565b505050565b816001600160a01b038116610d335760405162461bcd60e51b81526020600482015260026024820152612d1960f11b6044820152606401610753565b816001600160a01b038116610d6f5760405162461bcd60e51b81526020600482015260026024820152612d1960f11b6044820152606401610753565b60055461010090046001600160a01b031615801590610d9d575060055461010090046001600160a01b031633145b610de95760405162461bcd60e51b815260206004820152601e60248201527f63616c6c6572206973206e6f74206c3250726f6a6563744d616e6167657200006044820152606401610753565b6001600160a01b03848116600090815260066020526040902054818516911603610e3e5760405162461bcd60e51b81526004016107539060208082526004908201526373616d6560e01b604082015260600190565b6001600160a01b0384811660008181526006602090815260409182902080546001600160a01b031916948816948517905581519283528201929092527fb00bb4c229aff6156cc8e2c767c571665e1927c09fe083ec055956a5a40261939101610aa5565b6001600160a01b0381163314610f205760405162461bcd60e51b815260206004820152602f60248201527f416363657373436f6e74726f6c3a2063616e206f6e6c792072656e6f756e636560448201527f20726f6c657320666f722073656c6600000000000000000000000000000000006064820152608401610753565b610f2a8282611ba7565b5050565b60006106f18261199a565b60006001600160a01b03821615801590610f6f57506001600160a01b038381166000908152600660205260409020548116908316145b9392505050565b60006106f182611c2a565b610f8a33610c8d565b610fe15760405162461bcd60e51b815260206004820152602260248201527f41636365737369626c653a2043616c6c6572206973206e6f7420616e2061646d60448201526134b760f11b6064820152608401610753565b6107867fdf8b4c520ffe197c5343c6f5aec59570151ef9a492f2c624fd45ddde6135ec4282610ccd565b61101433610c8d565b61106b5760405162461bcd60e51b815260206004820152602260248201527f41636365737369626c653a2043616c6c6572206973206e6f7420616e2061646d60448201526134b760f11b6064820152608401610753565b6001600160a01b0381166110c15760405162461bcd60e51b815260206004820152601860248201527f41636365737369626c653a207a65726f206164647265737300000000000000006044820152606401610753565b6001600160a01b03811633036111195760405162461bcd60e51b815260206004820152601660248201527f41636365737369626c653a2073616d652061646d696e000000000000000000006044820152606401610753565b6111437fdf8b4c520ffe197c5343c6f5aec59570151ef9a492f2c624fd45ddde6135ec4282610ccd565b6107867fdf8b4c520ffe197c5343c6f5aec59570151ef9a492f2c624fd45ddde6135ec4233610ea2565b806001600160a01b0381166111a95760405162461bcd60e51b81526020600482015260026024820152612d1960f11b6044820152606401610753565b6111b233610c8d565b6112095760405162461bcd60e51b815260206004820152602260248201527f41636365737369626c653a2043616c6c6572206973206e6f7420616e2061646d60448201526134b760f11b6064820152608401610753565b6005546001600160a01b0380841661010090920416036112545760405162461bcd60e51b81526004016107539060208082526004908201526373616d6560e01b604082015260600190565b50600580546001600160a01b039092166101000274ffffffffffffffffffffffffffffffffffffffff0019909216919091179055565b61129333610c8d565b6112ea5760405162461bcd60e51b815260206004820152602260248201527f41636365737369626c653a2043616c6c6572206973206e6f7420616e2061646d60448201526134b760f11b6064820152608401610753565b806001600160a01b0381166113265760405162461bcd60e51b81526020600482015260026024820152612d1960f11b6044820152606401610753565b6008546001600160a01b0380841691160361136c5760405162461bcd60e51b81526004016107539060208082526004908201526373616d6560e01b604082015260600190565b600880546001600160a01b0319166001600160a01b0384169081179091556040519081527f6e7ce59c579ce0cb4e3fca384521cc28064dfb08050aa555bf67c3853acf40cb9060200160405180910390a15050565b600554829061010090046001600160a01b031633148061141e57506001600160a01b03818116600090815260066020526040902054161580159061141e57506001600160a01b038181166000908152600660205260409020541633145b6114905760405162461bcd60e51b815260206004820152602c60248201527f63616c6c6572206973206e6f742061207661756c7441646d696e206f7220507260448201527f6f6a6563744d616e6167657200000000000000000000000000000000000000006064820152608401610753565b43826080015163ffffffff16116114e95760405162461bcd60e51b815260206004820152601760248201527f666972737420636c61696d2074696d65207061737365640000000000000000006044820152606401610753565b6020820151158015906114ff5750604082015115155b8015611514575060c082015163ffffffff1615155b6115605760405162461bcd60e51b815260206004820152600b60248201527f77726f6e672076616c75650000000000000000000000000000000000000000006044820152606401610753565b6001826040015111156115d057816080015163ffffffff168260a0015163ffffffff16116115d05760405162461bcd60e51b815260206004820152601b60248201527f77726f6e6720746865207365636f6e6420636c61696d2074696d6500000000006044820152606401610753565b81606001518260200151116116275760405162461bcd60e51b815260206004820152601c60248201527f77726f6e672074686520666972737420636c61696d20616d6f756e74000000006044820152606401610753565b6001600160a01b03808416600090815260076020908152604091829020825161012081018452815490941684526001810154918401829052600281015492840192909252600382015460608401526004820154608084015260059091015463ffffffff80821660a08501526401000000008204811660c0850152600160401b8204811660e0850152600160601b909104166101008301521561170b5760405162461bcd60e51b815260206004820152601360248201527f616c726561647920696e697469616c697a6564000000000000000000000000006044820152606401610753565b600060405180610120016040528085600001516001600160a01b0316815260200185602001518152602001856040015181526020016000815260200185606001518152602001856080015163ffffffff1681526020018560a0015163ffffffff1681526020018560c0015163ffffffff168152602001600063ffffffff1681525090508060076000876001600160a01b03166001600160a01b0316815260200190815260200160002060008201518160000160006101000a8154816001600160a01b0302191690836001600160a01b031602179055506020820151816001015560408201518160020155606082015181600301556080820151816004015560a08201518160050160006101000a81548163ffffffff021916908363ffffffff16021790555060c08201518160050160046101000a81548163ffffffff021916908363ffffffff16021790555060e08201518160050160086101000a81548163ffffffff021916908363ffffffff16021790555061010082015181600501600c6101000a81548163ffffffff021916908363ffffffff1602179055509050506118e2600560019054906101000a90046001600160a01b0316308660200151886001600160a01b0316611d60909392919063ffffffff16565b604080516001600160a01b038088168252865116602080830191909152860151818301529085015160608083019190915285015160808083019190915285015163ffffffff90811660a080840191909152860151811660c0808401919091528601511660e08201527f34e91bd8ea5a5bd0abd7bc8748579337d986685a194405c80b1bbc62746ac1479061010001610c7e565b60008281526004602052604090206001015461199081611afb565b610cf28383611ba7565b6001600160a01b0380821660009081526007602090815260408083208151610120810183528154909516855260018101549285019290925260028201549084015260038101546060840152600481015460808401526005015463ffffffff80821660a08501526401000000008204811660c0850152600160401b8204811660e0850152600160601b909104166101008301529081611a3784611c2a565b90508082610100015163ffffffff161015611af45780600103611a6f5781606001518260800151611a68919061238b565b9250611af4565b8160400151811015611add576060820151611a8b60018361238b565b60018460400151611a9c919061238b565b84608001518560200151611ab0919061238b565b611aba919061239e565b611ac491906123c0565b8360800151611ad39190612356565b611a68919061238b565b81606001518260200151611af1919061238b565b92505b5050919050565b6107868133611e99565b60008281526004602090815260408083206001600160a01b038516845290915290205460ff16610f2a5760008281526004602090815260408083206001600160a01b03851684529091529020805460ff19166001179055611b633390565b6001600160a01b0316816001600160a01b0316837f2f8788117e7eff1d82e926ec794901d17c78024a50270940304540a733656f0d60405160405180910390a45050565b60008281526004602090815260408083206001600160a01b038516845290915290205460ff1615610f2a5760008281526004602090815260408083206001600160a01b0385168085529252808320805460ff1916905551339285917ff6391f5c32d9c69d2a47ea670b442974b53935d1edc7fd64eb21e047a839171b9190a45050565b6001600160a01b0380821660009081526007602090815260408083208151610120810183528154909516855260018101549285019290925260028201549084015260038101546060840152600481015460808401526005015463ffffffff80821660a085018190526401000000008304821660c0860152600160401b8304821660e0860152600160601b9092041661010084015290919015801590611cd95750428160a0015163ffffffff1611155b8015611cee57508060c0015163ffffffff1642105b15611cfc5760019150611d46565b428160c0015163ffffffff1611611d46578060e0015163ffffffff168160c0015163ffffffff1642611d2e919061238b565b611d38919061239e565b611d43906002612356565b91505b8060400151821115611d5a57806040015191505b50919050565b604080516001600160a01b0385811660248301528481166044830152606480830185905283518084039091018152608490920183526020820180517bffffffffffffffffffffffffffffffffffffffffffffffffffffffff166323b872dd60e01b1790529151600092839290881691611dd991906123fb565b6000604051808303816000865af19150503d8060008114611e16576040519150601f19603f3d011682016040523d82523d6000602084013e611e1b565b606091505b5091509150818015611e45575080511580611e45575080806020019051810190611e459190612369565b611e915760405162461bcd60e51b815260206004820152601460248201527f5452414e534645525f46524f4d5f4641494c45440000000000000000000000006044820152606401610753565b505050505050565b60008281526004602090815260408083206001600160a01b038516845290915290205460ff16610f2a57611ecc81611f0e565b611ed7836020611f20565b604051602001611ee8929190612417565b60408051601f198184030181529082905262461bcd60e51b825261075391600401612498565b60606106f16001600160a01b03831660145b60606000611f2f8360026123c0565b611f3a906002612356565b67ffffffffffffffff811115611f5257611f52612199565b6040519080825280601f01601f191660200182016040528015611f7c576020820181803683370190505b509050600360fc1b81600081518110611f9757611f976124cb565b60200101906001600160f81b031916908160001a905350600f60fb1b81600181518110611fc657611fc66124cb565b60200101906001600160f81b031916908160001a9053506000611fea8460026123c0565b611ff5906001612356565b90505b600181111561207a577f303132333435363738396162636465660000000000000000000000000000000085600f1660108110612036576120366124cb565b1a60f81b82828151811061204c5761204c6124cb565b60200101906001600160f81b031916908160001a90535060049490941c93612073816124e1565b9050611ff8565b508315610f6f5760405162461bcd60e51b815260206004820181905260248201527f537472696e67733a20686578206c656e67746820696e73756666696369656e746044820152606401610753565b6000602082840312156120db57600080fd5b81356001600160e01b031981168114610f6f57600080fd5b80356001600160a01b038116811461210a57600080fd5b919050565b60006020828403121561212157600080fd5b610f6f826120f3565b6000806040838503121561213d57600080fd5b612146836120f3565b9150612154602084016120f3565b90509250929050565b60006020828403121561216f57600080fd5b5035919050565b6000806040838503121561218957600080fd5b82359150612154602084016120f3565b634e487b7160e01b600052604160045260246000fd5b803563ffffffff8116811461210a57600080fd5b6000808284036101008112156121d857600080fd5b6121e1846120f3565b925060e0601f19820112156121f557600080fd5b5060405160e0810181811067ffffffffffffffff8211171561222757634e487b7160e01b600052604160045260246000fd5b604052612236602085016120f3565b815260408401356020820152606084013560408201526080840135606082015261226260a085016121af565b608082015261227360c085016121af565b60a082015261228460e085016121af565b60c0820152809150509250929050565b6000610120820190506001600160a01b0383511682526020830151602083015260408301516040830152606083015160608301526080830151608083015263ffffffff60a08401511660a083015260c08301516122f960c084018263ffffffff169052565b5060e083015161231160e084018263ffffffff169052565b506101009283015163ffffffff16919092015290565b60006020828403121561233957600080fd5b5051919050565b634e487b7160e01b600052601160045260246000fd5b808201808211156106f1576106f1612340565b60006020828403121561237b57600080fd5b81518015158114610f6f57600080fd5b818103818111156106f1576106f1612340565b6000826123bb57634e487b7160e01b600052601260045260246000fd5b500490565b80820281158282048414176106f1576106f1612340565b60005b838110156123f25781810151838201526020016123da565b50506000910152565b6000825161240d8184602087016123d7565b9190910192915050565b7f416363657373436f6e74726f6c3a206163636f756e742000000000000000000081526000835161244f8160178501602088016123d7565b7f206973206d697373696e6720726f6c6520000000000000000000000000000000601791840191820152835161248c8160288401602088016123d7565b01602801949350505050565b60208152600082518060208401526124b78160408501602087016123d7565b601f01601f19169190910160400192915050565b634e487b7160e01b600052603260045260246000fd5b6000816124f0576124f0612340565b50600019019056fea164736f6c6343000812000a",
  "linkReferences": {},
  "deployedLinkReferences": {}
}