{
  "_format": "hh-sol-artifact-1",
  "contractName": "L2AirdropTonVault",
  "sourceName": "contracts/L2/vaults/L2AirdropTonVault.sol",
  "abi": [
    {
      "anonymous": false,
      "inputs": [
        {
          "indexed": false,
          "internalType": "address",
          "name": "l2Token",
          "type": "address"
        },
        {
          "indexed": false,
          "internalType": "uint256",
          "name": "amount",
          "type": "uint256"
        }
      ],
      "name": "ClaimedInVault",
      "type": "event"
    },
    {
      "anonymous": false,
      "inputs": [
        {
          "indexed": false,
          "internalType": "address",
          "name": "l2Token",
          "type": "address"
        },
        {
          "components": [
            {
              "internalType": "address",
              "name": "claimer",
              "type": "address"
            },
            {
              "internalType": "uint256",
              "name": "totalAllocatedAmount",
              "type": "uint256"
            },
            {
              "internalType": "uint256",
              "name": "totalClaimCount",
              "type": "uint256"
            },
            {
              "internalType": "uint256",
              "name": "firstClaimAmount",
              "type": "uint256"
            },
            {
              "internalType": "uint32",
              "name": "firstClaimTime",
              "type": "uint32"
            },
            {
              "internalType": "uint32",
              "name": "secondClaimTime",
              "type": "uint32"
            },
            {
              "internalType": "uint32",
              "name": "roundIntervalTime",
              "type": "uint32"
            }
          ],
          "indexed": false,
          "internalType": "struct LibProject.InitalParameterScheduleVault",
          "name": "parmas",
          "type": "tuple"
        }
      ],
      "name": "InitializedL2AirdropTonVault",
      "type": "event"
    },
    {
      "anonymous": false,
      "inputs": [
        {
          "indexed": true,
          "internalType": "bytes32",
          "name": "role",
          "type": "bytes32"
        },
        {
          "indexed": true,
          "internalType": "bytes32",
          "name": "previousAdminRole",
          "type": "bytes32"
        },
        {
          "indexed": true,
          "internalType": "bytes32",
          "name": "newAdminRole",
          "type": "bytes32"
        }
      ],
      "name": "RoleAdminChanged",
      "type": "event"
    },
    {
      "anonymous": false,
      "inputs": [
        {
          "indexed": true,
          "internalType": "bytes32",
          "name": "role",
          "type": "bytes32"
        },
        {
          "indexed": true,
          "internalType": "address",
          "name": "account",
          "type": "address"
        },
        {
          "indexed": true,
          "internalType": "address",
          "name": "sender",
          "type": "address"
        }
      ],
      "name": "RoleGranted",
      "type": "event"
    },
    {
      "anonymous": false,
      "inputs": [
        {
          "indexed": true,
          "internalType": "bytes32",
          "name": "role",
          "type": "bytes32"
        },
        {
          "indexed": true,
          "internalType": "address",
          "name": "account",
          "type": "address"
        },
        {
          "indexed": true,
          "internalType": "address",
          "name": "sender",
          "type": "address"
        }
      ],
      "name": "RoleRevoked",
      "type": "event"
    },
    {
      "anonymous": false,
      "inputs": [
        {
          "indexed": false,
          "internalType": "address",
          "name": "newDividendPool",
          "type": "address"
        }
      ],
      "name": "SetDividendPool",
      "type": "event"
    },
    {
      "anonymous": false,
      "inputs": [
        {
          "indexed": false,
          "internalType": "address",
          "name": "l2Token",
          "type": "address"
        },
        {
          "indexed": false,
          "internalType": "address",
          "name": "newAdmin",
          "type": "address"
        }
      ],
      "name": "SetVaultAdmin",
      "type": "event"
    },
    {
      "inputs": [],
      "name": "ADMIN_ROLE",
      "outputs": [
        {
          "internalType": "bytes32",
          "name": "",
          "type": "bytes32"
        }
      ],
      "stateMutability": "view",
      "type": "function"
    },
    {
      "inputs": [],
      "name": "DEFAULT_ADMIN_ROLE",
      "outputs": [
        {
          "internalType": "bytes32",
          "name": "",
          "type": "bytes32"
        }
      ],
      "stateMutability": "view",
      "type": "function"
    },
    {
      "inputs": [],
      "name": "POLICY_ROLE",
      "outputs": [
        {
          "internalType": "bytes32",
          "name": "",
          "type": "bytes32"
        }
      ],
      "stateMutability": "view",
      "type": "function"
    },
    {
      "inputs": [
        {
          "internalType": "address",
          "name": "account",
          "type": "address"
        }
      ],
      "name": "addAdmin",
      "outputs": [],
      "stateMutability": "nonpayable",
      "type": "function"
    },
    {
      "inputs": [
        {
          "internalType": "address",
          "name": "",
          "type": "address"
        }
      ],
      "name": "aliveImplementation",
      "outputs": [
        {
          "internalType": "bool",
          "name": "",
          "type": "bool"
        }
      ],
      "stateMutability": "view",
      "type": "function"
    },
    {
      "inputs": [
        {
          "internalType": "address",
          "name": "l2Token",
          "type": "address"
        }
      ],
      "name": "availableClaimAmount",
      "outputs": [
        {
          "internalType": "uint256",
          "name": "amount",
          "type": "uint256"
        }
      ],
      "stateMutability": "view",
      "type": "function"
    },
    {
      "inputs": [
        {
          "internalType": "address",
          "name": "l2Token",
          "type": "address"
        }
      ],
      "name": "claim",
      "outputs": [],
      "stateMutability": "nonpayable",
      "type": "function"
    },
    {
      "inputs": [],
      "name": "dividendPool",
      "outputs": [
        {
          "internalType": "address",
          "name": "",
          "type": "address"
        }
      ],
      "stateMutability": "view",
      "type": "function"
    },
    {
      "inputs": [],
      "name": "ext",
      "outputs": [
        {
          "internalType": "address",
          "name": "",
          "type": "address"
        }
      ],
      "stateMutability": "view",
      "type": "function"
    },
    {
      "inputs": [
        {
          "internalType": "address",
          "name": "l2Token",
          "type": "address"
        }
      ],
      "name": "getCurrentRound",
      "outputs": [
        {
          "internalType": "uint256",
          "name": "round",
          "type": "uint256"
        }
      ],
      "stateMutability": "view",
      "type": "function"
    },
    {
      "inputs": [
        {
          "internalType": "bytes32",
          "name": "role",
          "type": "bytes32"
        }
      ],
      "name": "getRoleAdmin",
      "outputs": [
        {
          "internalType": "bytes32",
          "name": "",
          "type": "bytes32"
        }
      ],
      "stateMutability": "view",
      "type": "function"
    },
    {
      "inputs": [
        {
          "internalType": "bytes32",
          "name": "role",
          "type": "bytes32"
        },
        {
          "internalType": "address",
          "name": "account",
          "type": "address"
        }
      ],
      "name": "grantRole",
      "outputs": [],
      "stateMutability": "nonpayable",
      "type": "function"
    },
    {
      "inputs": [
        {
          "internalType": "bytes32",
          "name": "role",
          "type": "bytes32"
        },
        {
          "internalType": "address",
          "name": "account",
          "type": "address"
        }
      ],
      "name": "hasRole",
      "outputs": [
        {
          "internalType": "bool",
          "name": "",
          "type": "bool"
        }
      ],
      "stateMutability": "view",
      "type": "function"
    },
    {
      "inputs": [
        {
          "internalType": "address",
          "name": "l2Token",
          "type": "address"
        },
        {
          "components": [
            {
              "internalType": "address",
              "name": "claimer",
              "type": "address"
            },
            {
              "internalType": "uint256",
              "name": "totalAllocatedAmount",
              "type": "uint256"
            },
            {
              "internalType": "uint256",
              "name": "totalClaimCount",
              "type": "uint256"
            },
            {
              "internalType": "uint256",
              "name": "firstClaimAmount",
              "type": "uint256"
            },
            {
              "internalType": "uint32",
              "name": "firstClaimTime",
              "type": "uint32"
            },
            {
              "internalType": "uint32",
              "name": "secondClaimTime",
              "type": "uint32"
            },
            {
              "internalType": "uint32",
              "name": "roundIntervalTime",
              "type": "uint32"
            }
          ],
          "internalType": "struct LibProject.InitalParameterScheduleVault",
          "name": "params",
          "type": "tuple"
        }
      ],
      "name": "initialize",
      "outputs": [],
      "stateMutability": "nonpayable",
      "type": "function"
    },
    {
      "inputs": [
        {
          "internalType": "address",
          "name": "account",
          "type": "address"
        }
      ],
      "name": "isAdmin",
      "outputs": [
        {
          "internalType": "bool",
          "name": "",
          "type": "bool"
        }
      ],
      "stateMutability": "view",
      "type": "function"
    },
    {
      "inputs": [
        {
          "internalType": "address",
          "name": "l2Token",
          "type": "address"
        },
        {
          "internalType": "address",
          "name": "account",
          "type": "address"
        }
      ],
      "name": "isVaultAdmin",
      "outputs": [
        {
          "internalType": "bool",
          "name": "",
          "type": "bool"
        }
      ],
      "stateMutability": "view",
      "type": "function"
    },
    {
      "inputs": [],
      "name": "l2ProjectManager",
      "outputs": [
        {
          "internalType": "address",
          "name": "",
          "type": "address"
        }
      ],
      "stateMutability": "view",
      "type": "function"
    },
    {
      "inputs": [],
      "name": "pauseProxy",
      "outputs": [
        {
          "internalType": "bool",
          "name": "",
          "type": "bool"
        }
      ],
      "stateMutability": "view",
      "type": "function"
    },
    {
      "inputs": [
        {
          "internalType": "uint256",
          "name": "",
          "type": "uint256"
        }
      ],
      "name": "proxyImplementation",
      "outputs": [
        {
          "internalType": "address",
          "name": "",
          "type": "address"
        }
      ],
      "stateMutability": "view",
      "type": "function"
    },
    {
      "inputs": [
        {
          "internalType": "address",
          "name": "account",
          "type": "address"
        }
      ],
      "name": "removeAdmin",
      "outputs": [],
      "stateMutability": "nonpayable",
      "type": "function"
    },
    {
      "inputs": [
        {
          "internalType": "bytes32",
          "name": "role",
          "type": "bytes32"
        },
        {
          "internalType": "address",
          "name": "account",
          "type": "address"
        }
      ],
      "name": "renounceRole",
      "outputs": [],
      "stateMutability": "nonpayable",
      "type": "function"
    },
    {
      "inputs": [
        {
          "internalType": "bytes32",
          "name": "role",
          "type": "bytes32"
        },
        {
          "internalType": "address",
          "name": "account",
          "type": "address"
        }
      ],
      "name": "revokeRole",
      "outputs": [],
      "stateMutability": "nonpayable",
      "type": "function"
    },
    {
      "inputs": [
        {
          "internalType": "bytes4",
          "name": "",
          "type": "bytes4"
        }
      ],
      "name": "selectorImplementation",
      "outputs": [
        {
          "internalType": "address",
          "name": "",
          "type": "address"
        }
      ],
      "stateMutability": "view",
      "type": "function"
    },
    {
      "inputs": [
        {
          "internalType": "address",
          "name": "_newDividendPool",
          "type": "address"
        }
      ],
      "name": "setDividendPool",
      "outputs": [],
      "stateMutability": "nonpayable",
      "type": "function"
    },
    {
      "inputs": [
        {
          "internalType": "address",
          "name": "_l2ProjectManager",
          "type": "address"
        }
      ],
      "name": "setL2ProjectManager",
      "outputs": [],
      "stateMutability": "nonpayable",
      "type": "function"
    },
    {
      "inputs": [
        {
          "internalType": "address",
          "name": "l2Token",
          "type": "address"
        },
        {
          "internalType": "address",
          "name": "_newAdmin",
          "type": "address"
        }
      ],
      "name": "setVaultAdmin",
      "outputs": [],
      "stateMutability": "nonpayable",
      "type": "function"
    },
    {
      "inputs": [
        {
          "internalType": "bytes4",
          "name": "interfaceId",
          "type": "bytes4"
        }
      ],
      "name": "supportsInterface",
      "outputs": [
        {
          "internalType": "bool",
          "name": "",
          "type": "bool"
        }
      ],
      "stateMutability": "view",
      "type": "function"
    },
    {
      "inputs": [
        {
          "internalType": "address",
          "name": "newAdmin",
          "type": "address"
        }
      ],
      "name": "transferAdmin",
      "outputs": [],
      "stateMutability": "nonpayable",
      "type": "function"
    },
    {
      "inputs": [
        {
          "internalType": "address",
          "name": "l2Token",
          "type": "address"
        },
        {
          "internalType": "address",
          "name": "_newAdmin",
          "type": "address"
        }
      ],
      "name": "transferVaultAdmin",
      "outputs": [],
      "stateMutability": "nonpayable",
      "type": "function"
    },
    {
      "inputs": [
        {
          "internalType": "address",
          "name": "",
          "type": "address"
        }
      ],
      "name": "vaultAdminOfToken",
      "outputs": [
        {
          "internalType": "address",
          "name": "",
          "type": "address"
        }
      ],
      "stateMutability": "view",
      "type": "function"
    },
    {
      "inputs": [
        {
          "internalType": "address",
          "name": "",
          "type": "address"
        }
      ],
      "name": "vaultInfo",
      "outputs": [
        {
          "internalType": "address",
          "name": "claimer",
          "type": "address"
        },
        {
          "internalType": "uint256",
          "name": "totalAllocatedAmount",
          "type": "uint256"
        },
        {
          "internalType": "uint256",
          "name": "totalClaimCount",
          "type": "uint256"
        },
        {
          "internalType": "uint256",
          "name": "totalClaimedAmount",
          "type": "uint256"
        },
        {
          "internalType": "uint256",
          "name": "firstClaimAmount",
          "type": "uint256"
        },
        {
          "internalType": "uint32",
          "name": "firstClaimTime",
          "type": "uint32"
        },
        {
          "internalType": "uint32",
          "name": "secondClaimTime",
          "type": "uint32"
        },
        {
          "internalType": "uint32",
          "name": "roundInterval",
          "type": "uint32"
        },
        {
          "internalType": "uint32",
          "name": "latestClaimedRound",
          "type": "uint32"
        }
      ],
      "stateMutability": "view",
      "type": "function"
    },
    {
      "inputs": [
        {
          "internalType": "address",
          "name": "l2Token",
          "type": "address"
        }
      ],
      "name": "viewVaultInfo",
      "outputs": [
        {
          "components": [
            {
              "internalType": "address",
              "name": "claimer",
              "type": "address"
            },
            {
              "internalType": "uint256",
              "name": "totalAllocatedAmount",
              "type": "uint256"
            },
            {
              "internalType": "uint256",
              "name": "totalClaimCount",
              "type": "uint256"
            },
            {
              "internalType": "uint256",
              "name": "totalClaimedAmount",
              "type": "uint256"
            },
            {
              "internalType": "uint256",
              "name": "firstClaimAmount",
              "type": "uint256"
            },
            {
              "internalType": "uint32",
              "name": "firstClaimTime",
              "type": "uint32"
            },
            {
              "internalType": "uint32",
              "name": "secondClaimTime",
              "type": "uint32"
            },
            {
              "internalType": "uint32",
              "name": "roundInterval",
              "type": "uint32"
            },
            {
              "internalType": "uint32",
              "name": "latestClaimedRound",
              "type": "uint32"
            }
          ],
          "internalType": "struct LibScheduleVault.VaultInfo",
          "name": "",
          "type": "tuple"
        }
      ],
      "stateMutability": "view",
      "type": "function"
    }
  ],
  "bytecode": "0x60806040526005805460ff1916600117905534801561001d57600080fd5b506125298061002d6000396000f3fe608060405234801561001057600080fd5b50600436106101f05760003560e01c8063565b1a251161010f578063a217fddf116100a2578063b911135f11610071578063b911135f14610591578063cf9f23b5146105ba578063d547741f146105cd578063dc861da6146105e057600080fd5b8063a217fddf14610550578063a418234314610558578063a7bd3e9d1461056b578063ad4c325a1461057e57600080fd5b806375b238fc116100de57806375b238fc146103f75780637fc46ba81461041e5780639164359a1461044757806391d148541461051757600080fd5b8063565b1a25146103b157806363a8fd89146103c457806370480275146103d157806375829def146103e457600080fd5b806330d172d51161018757806350d2a2761161015657806350d2a2761461033a57806351e8152a1461036357806352351e8514610376578063550d01a31461038e57600080fd5b806330d172d5146102d657806335b9ac661461030157806336568abe14610314578063390d15d21461032757600080fd5b806322985246116101c35780632298524614610258578063248a9ca31461028d57806324d7806c146102b05780632f2ff15d146102c357600080fd5b806301ffc9a7146101f55780631785f53c1461021d5780631e83409a146102325780631e8948c314610245575b600080fd5b6102086102033660046120ed565b6106de565b60405190151581526020015b60405180910390f35b61023061022b366004612133565b610715565b005b610230610240366004612133565b6107a7565b61023061025336600461214e565b610ad1565b61027f7ffb5864e8ff833c3cb2d2d08505e82ff02a43554c74a35d4f5a64e8526127831181565b604051908152602001610214565b61027f61029b366004612181565b60009081526004602052604090206001015490565b6102086102be366004612133565b610cab565b6102306102d136600461219a565b610ceb565b6008546102e9906001600160a01b031681565b6040516001600160a01b039091168152602001610214565b61023061030f36600461214e565b610d15565b61023061032236600461219a565b610ec0565b61027f610335366004612133565b610f4c565b6102e96103483660046120ed565b6003602052600090815260409020546001600160a01b031681565b61020861037136600461214e565b610f57565b6005546102e99061010090046001600160a01b031681565b61020861039c366004612133565b60026020526000908152604090205460ff1681565b61027f6103bf366004612133565b610f94565b6000546102089060ff1681565b6102306103df366004612133565b610f9f565b6102306103f2366004612133565b611029565b61027f7fdf8b4c520ffe197c5343c6f5aec59570151ef9a492f2c624fd45ddde6135ec4281565b6102e961042c366004612133565b6006602052600090815260409020546001600160a01b031681565b6104ba610455366004612133565b6007602052600090815260409020805460018201546002830154600384015460048501546005909501546001600160a01b039094169492939192909163ffffffff808216916401000000008104821691600160401b8204811691600160601b90041689565b604080516001600160a01b03909a168a5260208a0198909852968801959095526060870193909352608086019190915263ffffffff90811660a086015290811660c085015290811660e08401521661010082015261012001610214565b61020861052536600461219a565b60009182526004602090815260408084206001600160a01b0393909316845291905290205460ff1690565b61027f600081565b610230610566366004612133565b61118b565b610230610579366004612133565b6112a8565b61023061058c3660046121e7565b6113df565b6102e961059f366004612181565b6001602052600090815260409020546001600160a01b031681565b6009546102e9906001600160a01b031681565b6102306105db36600461219a565b611999565b6106d16105ee366004612133565b6040805161012081018252600080825260208201819052918101829052606081018290526080810182905260a0810182905260c0810182905260e08101829052610100810191909152506001600160a01b039081166000908152600760209081526040918290208251610120810184528154909416845260018101549184019190915260028101549183019190915260038101546060830152600481015460808301526005015463ffffffff80821660a08401526401000000008204811660c0840152600160401b8204811660e0840152600160601b9091041661010082015290565b60405161021491906122b8565b60006001600160e01b03198216637965db0b60e01b148061070f57506301ffc9a760e01b6001600160e01b03198316145b92915050565b61071e33610cab565b61077a5760405162461bcd60e51b815260206004820152602260248201527f41636365737369626c653a2043616c6c6572206973206e6f7420616e2061646d60448201526134b760f11b60648201526084015b60405180910390fd5b6107a47fdf8b4c520ffe197c5343c6f5aec59570151ef9a492f2c624fd45ddde6135ec4282610ec0565b50565b806001600160a01b0381166107e35760405162461bcd60e51b81526020600482015260026024820152612d1960f11b6044820152606401610771565b60006107ee836119be565b9050806000036108405760405162461bcd60e51b815260206004820152601360248201527f6e6f20636c61696d61626c6520616d6f756e74000000000000000000000000006044820152606401610771565b6040516370a0823160e01b81523060048201526001600160a01b038416906370a0823190602401602060405180830381865afa158015610884573d6000803e3d6000fd5b505050506040513d601f19601f820116820180604052508101906108a8919061234b565b8111156108f75760405162461bcd60e51b815260206004820152601460248201527f696e73756666696369656e742062616c616e63650000000000000000000000006044820152606401610771565b6001600160a01b0383166000908152600760205260408120600301805483929061092290849061237a565b9091555050600854604051636eb1769f60e11b81523060048201526001600160a01b03918216602482015260009185169063dd62ed3e90604401602060405180830381865afa158015610979573d6000803e3d6000fd5b505050506040513d601f19601f8201168201806040525081019061099d919061234b565b905081811015610a215760085460405163095ea7b360e01b81526001600160a01b03918216600482015260001960248201529085169063095ea7b3906044016020604051808303816000875af11580156109fb573d6000803e3d6000fd5b505050506040513d601f19601f82011682018060405250810190610a1f919061238d565b505b600854604051631f72642160e31b81526001600160a01b038681166004830152602482018590529091169063fb93210890604401600060405180830381600087803b158015610a6f57600080fd5b505af1158015610a83573d6000803e3d6000fd5b5050604080516001600160a01b0388168152602081018690527f89086dafc339c6f74b6f950c45520e5904b16cf96c7cd2f4702c7f9e46ce060493500190505b60405180910390a150505050565b816001600160a01b038116610b0d5760405162461bcd60e51b81526020600482015260026024820152612d1960f11b6044820152606401610771565b816001600160a01b038116610b495760405162461bcd60e51b81526020600482015260026024820152612d1960f11b6044820152606401610771565b6001600160a01b0380851660009081526006602052604090205485911615801590610b8d57506001600160a01b038181166000908152600660205260409020541633145b610be75760405162461bcd60e51b815260206004820152602560248201527f63616c6c6572206973206e6f742061207661756c7441646d696e204f66206c326044820152642a37b5b2b760d91b6064820152608401610771565b6001600160a01b03858116600090815260066020526040902054818616911603610c3c5760405162461bcd60e51b81526004016107719060208082526004908201526373616d6560e01b604082015260600190565b6001600160a01b0385811660008181526006602090815260409182902080546001600160a01b031916948916948517905581519283528201929092527fb00bb4c229aff6156cc8e2c767c571665e1927c09fe083ec055956a5a402619391015b60405180910390a15050505050565b6001600160a01b03811660009081527f2fb794d17134dfdec181ddbac1babb5ab1eb140204ef4d982f294e7fc8b69022602052604081205460ff1661070f565b600082815260046020526040902060010154610d0681611b1f565b610d108383611b29565b505050565b816001600160a01b038116610d515760405162461bcd60e51b81526020600482015260026024820152612d1960f11b6044820152606401610771565b816001600160a01b038116610d8d5760405162461bcd60e51b81526020600482015260026024820152612d1960f11b6044820152606401610771565b60055461010090046001600160a01b031615801590610dbb575060055461010090046001600160a01b031633145b610e075760405162461bcd60e51b815260206004820152601e60248201527f63616c6c6572206973206e6f74206c3250726f6a6563744d616e6167657200006044820152606401610771565b6001600160a01b03848116600090815260066020526040902054818516911603610e5c5760405162461bcd60e51b81526004016107719060208082526004908201526373616d6560e01b604082015260600190565b6001600160a01b0384811660008181526006602090815260409182902080546001600160a01b031916948816948517905581519283528201929092527fb00bb4c229aff6156cc8e2c767c571665e1927c09fe083ec055956a5a40261939101610ac3565b6001600160a01b0381163314610f3e5760405162461bcd60e51b815260206004820152602f60248201527f416363657373436f6e74726f6c3a2063616e206f6e6c792072656e6f756e636560448201527f20726f6c657320666f722073656c6600000000000000000000000000000000006064820152608401610771565b610f488282611bcb565b5050565b600061070f826119be565b60006001600160a01b03821615801590610f8d57506001600160a01b038381166000908152600660205260409020548116908316145b9392505050565b600061070f82611c4e565b610fa833610cab565b610fff5760405162461bcd60e51b815260206004820152602260248201527f41636365737369626c653a2043616c6c6572206973206e6f7420616e2061646d60448201526134b760f11b6064820152608401610771565b6107a47fdf8b4c520ffe197c5343c6f5aec59570151ef9a492f2c624fd45ddde6135ec4282610ceb565b61103233610cab565b6110895760405162461bcd60e51b815260206004820152602260248201527f41636365737369626c653a2043616c6c6572206973206e6f7420616e2061646d60448201526134b760f11b6064820152608401610771565b6001600160a01b0381166110df5760405162461bcd60e51b815260206004820152601860248201527f41636365737369626c653a207a65726f206164647265737300000000000000006044820152606401610771565b6001600160a01b03811633036111375760405162461bcd60e51b815260206004820152601660248201527f41636365737369626c653a2073616d652061646d696e000000000000000000006044820152606401610771565b6111617fdf8b4c520ffe197c5343c6f5aec59570151ef9a492f2c624fd45ddde6135ec4282610ceb565b6107a47fdf8b4c520ffe197c5343c6f5aec59570151ef9a492f2c624fd45ddde6135ec4233610ec0565b806001600160a01b0381166111c75760405162461bcd60e51b81526020600482015260026024820152612d1960f11b6044820152606401610771565b6111d033610cab565b6112275760405162461bcd60e51b815260206004820152602260248201527f41636365737369626c653a2043616c6c6572206973206e6f7420616e2061646d60448201526134b760f11b6064820152608401610771565b6005546001600160a01b0380841661010090920416036112725760405162461bcd60e51b81526004016107719060208082526004908201526373616d6560e01b604082015260600190565b50600580546001600160a01b039092166101000274ffffffffffffffffffffffffffffffffffffffff0019909216919091179055565b6112b133610cab565b6113085760405162461bcd60e51b815260206004820152602260248201527f41636365737369626c653a2043616c6c6572206973206e6f7420616e2061646d60448201526134b760f11b6064820152608401610771565b806001600160a01b0381166113445760405162461bcd60e51b81526020600482015260026024820152612d1960f11b6044820152606401610771565b6008546001600160a01b0380841691160361138a5760405162461bcd60e51b81526004016107719060208082526004908201526373616d6560e01b604082015260600190565b600880546001600160a01b0319166001600160a01b0384169081179091556040519081527f6e7ce59c579ce0cb4e3fca384521cc28064dfb08050aa555bf67c3853acf40cb9060200160405180910390a15050565b600554829061010090046001600160a01b031633148061143c57506001600160a01b03818116600090815260066020526040902054161580159061143c57506001600160a01b038181166000908152600660205260409020541633145b6114ae5760405162461bcd60e51b815260206004820152602c60248201527f63616c6c6572206973206e6f742061207661756c7441646d696e206f7220507260448201527f6f6a6563744d616e6167657200000000000000000000000000000000000000006064820152608401610771565b4263ffffffff16826080015163ffffffff161161150d5760405162461bcd60e51b815260206004820152601760248201527f666972737420636c61696d2074696d65207061737365640000000000000000006044820152606401610771565b6020820151158015906115235750604082015115155b8015611538575060c082015163ffffffff1615155b6115845760405162461bcd60e51b815260206004820152600b60248201527f77726f6e672076616c75650000000000000000000000000000000000000000006044820152606401610771565b6001826040015111156115f457816080015163ffffffff168260a0015163ffffffff16116115f45760405162461bcd60e51b815260206004820152601b60248201527f77726f6e6720746865207365636f6e6420636c61696d2074696d6500000000006044820152606401610771565b816060015182602001511161164b5760405162461bcd60e51b815260206004820152601c60248201527f77726f6e672074686520666972737420636c61696d20616d6f756e74000000006044820152606401610771565b6001600160a01b03808416600090815260076020908152604091829020825161012081018452815490941684526001810154918401829052600281015492840192909252600382015460608401526004820154608084015260059091015463ffffffff80821660a08501526401000000008204811660c0850152600160401b8204811660e0850152600160601b909104166101008301521561172f5760405162461bcd60e51b815260206004820152601360248201527f616c726561647920696e697469616c697a6564000000000000000000000000006044820152606401610771565b600060405180610120016040528085600001516001600160a01b0316815260200185602001518152602001856040015181526020016000815260200185606001518152602001856080015163ffffffff1681526020018560a0015163ffffffff1681526020018560c0015163ffffffff168152602001600063ffffffff1681525090508060076000876001600160a01b03166001600160a01b0316815260200190815260200160002060008201518160000160006101000a8154816001600160a01b0302191690836001600160a01b031602179055506020820151816001015560408201518160020155606082015181600301556080820151816004015560a08201518160050160006101000a81548163ffffffff021916908363ffffffff16021790555060c08201518160050160046101000a81548163ffffffff021916908363ffffffff16021790555060e08201518160050160086101000a81548163ffffffff021916908363ffffffff16021790555061010082015181600501600c6101000a81548163ffffffff021916908363ffffffff160217905550905050611906600560019054906101000a90046001600160a01b0316308660200151886001600160a01b0316611d84909392919063ffffffff16565b604080516001600160a01b038088168252865116602080830191909152860151818301529085015160608083019190915285015160808083019190915285015163ffffffff90811660a080840191909152860151811660c0808401919091528601511660e08201527f34e91bd8ea5a5bd0abd7bc8748579337d986685a194405c80b1bbc62746ac1479061010001610c9c565b6000828152600460205260409020600101546119b481611b1f565b610d108383611bcb565b6001600160a01b0380821660009081526007602090815260408083208151610120810183528154909516855260018101549285019290925260028201549084015260038101546060840152600481015460808401526005015463ffffffff80821660a08501526401000000008204811660c0850152600160401b8204811660e0850152600160601b909104166101008301529081611a5b84611c4e565b90508082610100015163ffffffff161015611b185780600103611a935781606001518260800151611a8c91906123af565b9250611b18565b8160400151811015611b01576060820151611aaf6001836123af565b60018460400151611ac091906123af565b84608001518560200151611ad491906123af565b611ade91906123c2565b611ae891906123e4565b8360800151611af7919061237a565b611a8c91906123af565b81606001518260200151611b1591906123af565b92505b5050919050565b6107a48133611ebd565b60008281526004602090815260408083206001600160a01b038516845290915290205460ff16610f485760008281526004602090815260408083206001600160a01b03851684529091529020805460ff19166001179055611b873390565b6001600160a01b0316816001600160a01b0316837f2f8788117e7eff1d82e926ec794901d17c78024a50270940304540a733656f0d60405160405180910390a45050565b60008281526004602090815260408083206001600160a01b038516845290915290205460ff1615610f485760008281526004602090815260408083206001600160a01b0385168085529252808320805460ff1916905551339285917ff6391f5c32d9c69d2a47ea670b442974b53935d1edc7fd64eb21e047a839171b9190a45050565b6001600160a01b0380821660009081526007602090815260408083208151610120810183528154909516855260018101549285019290925260028201549084015260038101546060840152600481015460808401526005015463ffffffff80821660a085018190526401000000008304821660c0860152600160401b8304821660e0860152600160601b9092041661010084015290919015801590611cfd5750428160a0015163ffffffff1611155b8015611d1257508060c0015163ffffffff1642105b15611d205760019150611d6a565b428160c0015163ffffffff1611611d6a578060e0015163ffffffff168160c0015163ffffffff1642611d5291906123af565b611d5c91906123c2565b611d6790600261237a565b91505b8060400151821115611d7e57806040015191505b50919050565b604080516001600160a01b0385811660248301528481166044830152606480830185905283518084039091018152608490920183526020820180517bffffffffffffffffffffffffffffffffffffffffffffffffffffffff166323b872dd60e01b1790529151600092839290881691611dfd919061241f565b6000604051808303816000865af19150503d8060008114611e3a576040519150601f19603f3d011682016040523d82523d6000602084013e611e3f565b606091505b5091509150818015611e69575080511580611e69575080806020019051810190611e69919061238d565b611eb55760405162461bcd60e51b815260206004820152601460248201527f5452414e534645525f46524f4d5f4641494c45440000000000000000000000006044820152606401610771565b505050505050565b60008281526004602090815260408083206001600160a01b038516845290915290205460ff16610f4857611ef081611f32565b611efb836020611f44565b604051602001611f0c92919061243b565b60408051601f198184030181529082905262461bcd60e51b8252610771916004016124bc565b606061070f6001600160a01b03831660145b60606000611f538360026123e4565b611f5e90600261237a565b67ffffffffffffffff811115611f7657611f766121bd565b6040519080825280601f01601f191660200182016040528015611fa0576020820181803683370190505b509050600360fc1b81600081518110611fbb57611fbb6124ef565b60200101906001600160f81b031916908160001a905350600f60fb1b81600181518110611fea57611fea6124ef565b60200101906001600160f81b031916908160001a905350600061200e8460026123e4565b61201990600161237a565b90505b600181111561209e577f303132333435363738396162636465660000000000000000000000000000000085600f166010811061205a5761205a6124ef565b1a60f81b828281518110612070576120706124ef565b60200101906001600160f81b031916908160001a90535060049490941c9361209781612505565b905061201c565b508315610f8d5760405162461bcd60e51b815260206004820181905260248201527f537472696e67733a20686578206c656e67746820696e73756666696369656e746044820152606401610771565b6000602082840312156120ff57600080fd5b81356001600160e01b031981168114610f8d57600080fd5b80356001600160a01b038116811461212e57600080fd5b919050565b60006020828403121561214557600080fd5b610f8d82612117565b6000806040838503121561216157600080fd5b61216a83612117565b915061217860208401612117565b90509250929050565b60006020828403121561219357600080fd5b5035919050565b600080604083850312156121ad57600080fd5b8235915061217860208401612117565b634e487b7160e01b600052604160045260246000fd5b803563ffffffff8116811461212e57600080fd5b6000808284036101008112156121fc57600080fd5b61220584612117565b925060e0601f198201121561221957600080fd5b5060405160e0810181811067ffffffffffffffff8211171561224b57634e487b7160e01b600052604160045260246000fd5b60405261225a60208501612117565b815260408401356020820152606084013560408201526080840135606082015261228660a085016121d3565b608082015261229760c085016121d3565b60a08201526122a860e085016121d3565b60c0820152809150509250929050565b6000610120820190506001600160a01b0383511682526020830151602083015260408301516040830152606083015160608301526080830151608083015263ffffffff60a08401511660a083015260c083015161231d60c084018263ffffffff169052565b5060e083015161233560e084018263ffffffff169052565b506101009283015163ffffffff16919092015290565b60006020828403121561235d57600080fd5b5051919050565b634e487b7160e01b600052601160045260246000fd5b8082018082111561070f5761070f612364565b60006020828403121561239f57600080fd5b81518015158114610f8d57600080fd5b8181038181111561070f5761070f612364565b6000826123df57634e487b7160e01b600052601260045260246000fd5b500490565b808202811582820484141761070f5761070f612364565b60005b838110156124165781810151838201526020016123fe565b50506000910152565b600082516124318184602087016123fb565b9190910192915050565b7f416363657373436f6e74726f6c3a206163636f756e74200000000000000000008152600083516124738160178501602088016123fb565b7f206973206d697373696e6720726f6c652000000000000000000000000000000060179184019182015283516124b08160288401602088016123fb565b01602801949350505050565b60208152600082518060208401526124db8160408501602087016123fb565b601f01601f19169190910160400192915050565b634e487b7160e01b600052603260045260246000fd5b60008161251457612514612364565b50600019019056fea164736f6c6343000812000a",
  "linkReferences": {},
  "deployedLinkReferences": {}
}