{
  "_format": "hh-sol-artifact-1",
  "contractName": "L1toL2Message",
  "sourceName": "contracts/L1/L1toL2Message.sol",
  "abi": [
    {
      "inputs": [],
      "stateMutability": "nonpayable",
      "type": "constructor"
    },
    {
      "inputs": [
        {
          "internalType": "address",
          "name": "addressManager",
          "type": "address"
        },
        {
          "internalType": "address",
          "name": "l1Token",
          "type": "address"
        },
        {
          "internalType": "address",
          "name": "l2Token",
          "type": "address"
        },
        {
          "internalType": "address",
          "name": "depositAndCallTarget",
          "type": "address"
        },
        {
          "internalType": "uint256",
          "name": "amount",
          "type": "uint256"
        },
        {
          "internalType": "uint32",
          "name": "minGasLimitForDeposit",
          "type": "uint32"
        },
        {
          "internalType": "uint32",
          "name": "minGasLimitForCall",
          "type": "uint32"
        },
        {
          "internalType": "bytes",
          "name": "callData",
          "type": "bytes"
        }
      ],
      "name": "depositAndCall",
      "outputs": [],
      "stateMutability": "nonpayable",
      "type": "function"
    },
    {
      "inputs": [
        {
          "internalType": "address",
          "name": "addressManager",
          "type": "address"
        },
        {
          "internalType": "address",
          "name": "l1Token",
          "type": "address"
        },
        {
          "internalType": "address",
          "name": "l2Token",
          "type": "address"
        },
        {
          "internalType": "address",
          "name": "depositTo",
          "type": "address"
        },
        {
          "internalType": "uint256",
          "name": "amount",
          "type": "uint256"
        },
        {
          "internalType": "uint32",
          "name": "_minGasLimit",
          "type": "uint32"
        }
      ],
      "name": "depositL1TokenToL2",
      "outputs": [],
      "stateMutability": "nonpayable",
      "type": "function"
    },
    {
      "inputs": [
        {
          "internalType": "address",
          "name": "addressManager",
          "type": "address"
        },
        {
          "internalType": "address",
          "name": "l1Token",
          "type": "address"
        },
        {
          "internalType": "address",
          "name": "l2Token",
          "type": "address"
        },
        {
          "components": [
            {
              "internalType": "address",
              "name": "to",
              "type": "address"
            },
            {
              "internalType": "uint256",
              "name": "amount",
              "type": "uint256"
            },
            {
              "internalType": "uint32",
              "name": "minGasLimit",
              "type": "uint32"
            }
          ],
          "internalType": "struct L1toL2Message.DepositTo[]",
          "name": "depositTos",
          "type": "tuple[]"
        }
      ],
      "name": "depositToMany",
      "outputs": [],
      "stateMutability": "nonpayable",
      "type": "function"
    },
    {
      "inputs": [
        {
          "internalType": "address",
          "name": "addressManager",
          "type": "address"
        },
        {
          "components": [
            {
              "internalType": "address",
              "name": "l1Token",
              "type": "address"
            },
            {
              "internalType": "address",
              "name": "l2Token",
              "type": "address"
            },
            {
              "components": [
                {
                  "internalType": "address",
                  "name": "to",
                  "type": "address"
                },
                {
                  "internalType": "uint256",
                  "name": "amount",
                  "type": "uint256"
                },
                {
                  "internalType": "uint32",
                  "name": "minGasLimit",
                  "type": "uint32"
                }
              ],
              "internalType": "struct L1toL2Message.DepositTo[]",
              "name": "depositTos",
              "type": "tuple[]"
            }
          ],
          "internalType": "struct L1toL2Message.DepositMessage[]",
          "name": "depositMessages",
          "type": "tuple[]"
        }
      ],
      "name": "deposits",
      "outputs": [],
      "stateMutability": "nonpayable",
      "type": "function"
    },
    {
      "inputs": [
        {
          "internalType": "address",
          "name": "addressManager",
          "type": "address"
        },
        {
          "components": [
            {
              "internalType": "address",
              "name": "l1Token",
              "type": "address"
            },
            {
              "internalType": "address",
              "name": "l2Token",
              "type": "address"
            },
            {
              "components": [
                {
                  "internalType": "address",
                  "name": "to",
                  "type": "address"
                },
                {
                  "internalType": "uint256",
                  "name": "amount",
                  "type": "uint256"
                },
                {
                  "internalType": "uint32",
                  "name": "minGasLimit",
                  "type": "uint32"
                }
              ],
              "internalType": "struct L1toL2Message.DepositTo[]",
              "name": "depositTos",
              "type": "tuple[]"
            }
          ],
          "internalType": "struct L1toL2Message.DepositMessage[]",
          "name": "depositMassages",
          "type": "tuple[]"
        },
        {
          "components": [
            {
              "internalType": "address",
              "name": "target",
              "type": "address"
            },
            {
              "internalType": "bytes",
              "name": "message",
              "type": "bytes"
            },
            {
              "internalType": "uint32",
              "name": "minGasLimit",
              "type": "uint32"
            }
          ],
          "internalType": "struct L1toL2Message.CallMessage[]",
          "name": "callMessages",
          "type": "tuple[]"
        }
      ],
      "name": "depositsAndMessages",
      "outputs": [],
      "stateMutability": "nonpayable",
      "type": "function"
    },
    {
      "inputs": [
        {
          "internalType": "address",
          "name": "addressManager",
          "type": "address"
        },
        {
          "components": [
            {
              "internalType": "address",
              "name": "target",
              "type": "address"
            },
            {
              "internalType": "bytes",
              "name": "message",
              "type": "bytes"
            },
            {
              "internalType": "uint32",
              "name": "minGasLimit",
              "type": "uint32"
            }
          ],
          "internalType": "struct L1toL2Message.CallMessage[]",
          "name": "callMessages",
          "type": "tuple[]"
        }
      ],
      "name": "l2SendMessage",
      "outputs": [],
      "stateMutability": "nonpayable",
      "type": "function"
    },
    {
      "inputs": [
        {
          "internalType": "address",
          "name": "sender",
          "type": "address"
        },
        {
          "internalType": "address",
          "name": "spender",
          "type": "address"
        },
        {
          "internalType": "uint256",
          "name": "amount",
          "type": "uint256"
        },
        {
          "internalType": "bytes",
          "name": "data",
          "type": "bytes"
        }
      ],
      "name": "onApprove",
      "outputs": [
        {
          "internalType": "bool",
          "name": "",
          "type": "bool"
        }
      ],
      "stateMutability": "nonpayable",
      "type": "function"
    },
    {
      "inputs": [
        {
          "internalType": "bytes4",
          "name": "interfaceId",
          "type": "bytes4"
        }
      ],
      "name": "supportsInterface",
      "outputs": [
        {
          "internalType": "bool",
          "name": "",
          "type": "bool"
        }
      ],
      "stateMutability": "view",
      "type": "function"
    }
  ],
  "bytecode": "0x608060405234801561001057600080fd5b50610021632139e50b60e11b610026565b6100a9565b6001600160e01b031980821690036100845760405162461bcd60e51b815260206004820152601c60248201527f4552433136353a20696e76616c696420696e7465726661636520696400000000604482015260640160405180910390fd5b6001600160e01b0319166000908152602081905260409020805460ff19166001179055565b612314806100b86000396000f3fe608060405234801561001057600080fd5b50600436106100885760003560e01c80634273ca161161005b5780634273ca16146100ef57806378d997fb146101025780638dec3ef414610115578063ef61f4f81461012857600080fd5b806301ffc9a71461008d57806302828929146100b45780630eb865f3146100c95780633f453eac146100dc575b600080fd5b6100a061009b366004611a32565b61013b565b604051901515815260200160405180910390f35b6100c76100c2366004611e06565b61017b565b005b6100c76100d7366004611e7c565b610195565b6100c76100ea366004611ecc565b6101e1565b6100a06100fd366004611f41565b6101f8565b6100c7610110366004611fe0565b61059e565b6100c7610123366004612093565b6106f1565b6100c7610136366004612108565b610704565b60006301ffc9a760e01b6001600160e01b03198316148061017557506001600160e01b0319821660009081526020819052604090205460ff165b92915050565b610186338484610a05565b6101908382610704565b505050565b816001600160a01b0381166101d65760405162461bcd60e51b81526020600482015260026024820152612d1960f11b60448201526064015b60405180910390fd5b610190338484610a05565b6101f033878787878787610bde565b505050505050565b6000605882116102375760405162461bcd60e51b815260206004820152600a60248201526977726f6e67206461746160b01b60448201526064016101cd565b600061027d600085858080601f0160208091040260200160405190810160405280939291908181526020018383808284376000920191909152509293925050610fc49050565b905060006102c5603c86868080601f0160208091040260200160405190810160405280939291908181526020018383808284376000920191909152509293925050610fc49050565b905060008690506000610312601488888080601f0160208091040260200160405190810160405280939291908181526020018383808284376000920191909152509293925050610fc49050565b9050600061035a602889898080601f0160208091040260200160405190810160405280939291908181526020018383808284376000920191909152509293925050610fc49050565b905060006103a260508a8a8080601f01602080910402602001604051908101604052809392919081815260200183838082843760009201919091525092939250506110949050565b905060006103ea60548b8b8080601f01602080910402602001604051908101604052809392919081815260200183838082843760009201919091525092939250506110949050565b9050600061043d60586103fd818d612164565b8d8d8080601f0160208091040260200160405190810160405280939291908181526020018383808284376000920191909152509294939250506111549050565b60405163507c8bd160e01b81526001600160a01b038a16600482015290915060009073__$b2d160aea0e65d5e83164dd2e3c22b89ec$__9063507c8bd190602401602060405180830381865af415801561049b573d6000803e3d6000fd5b505050506040513d601f19601f820116820180604052508101906104bf9190612177565b90506001600160a01b0381166105175760405162461bcd60e51b815260206004820152601a60248201527f6c314d657373656e676572206973205a65726f4164647265737300000000000060448201526064016101cd565b6105268f8a88888c8c8a610bde565b604051633dbb202b60e01b81526001600160a01b03821690633dbb202b90610556908b90869088906004016121e4565b600060405180830381600087803b15801561057057600080fd5b505af1158015610584573d6000803e3d6000fd5b505050506001995050505050505050505095945050505050565b60405163507c8bd160e01b81526001600160a01b038916600482015260009073__$b2d160aea0e65d5e83164dd2e3c22b89ec$__9063507c8bd190602401602060405180830381865af41580156105f9573d6000803e3d6000fd5b505050506040513d601f19601f8201168201806040525081019061061d9190612177565b90506001600160a01b0381166106755760405162461bcd60e51b815260206004820152601a60248201527f6c314d657373656e676572206973205a65726f4164647265737300000000000060448201526064016101cd565b610684338a8a8a8a8a8a610bde565b604051633dbb202b60e01b81526001600160a01b03821690633dbb202b906106b4908990869088906004016121e4565b600060405180830381600087803b1580156106ce57600080fd5b505af11580156106e2573d6000803e3d6000fd5b50505050505050505050505050565b6106fe33858585856112b7565b50505050565b60405163507c8bd160e01b81526001600160a01b038316600482015260009073__$b2d160aea0e65d5e83164dd2e3c22b89ec$__9063507c8bd190602401602060405180830381865af415801561075f573d6000803e3d6000fd5b505050506040513d601f19601f820116820180604052508101906107839190612177565b90506001600160a01b0381166107db5760405162461bcd60e51b815260206004820152601a60248201527f6c314d657373656e676572206973205a65726f4164647265737300000000000060448201526064016101cd565b815160000361082c5760405162461bcd60e51b815260206004820152601160248201527f7a65726f2063616c6c206d65737361676500000000000000000000000000000060448201526064016101cd565b815160005b818110156109265760006001600160a01b03168482815181106108565761085661221c565b6020026020010151600001516001600160a01b03161415801561089857508381815181106108865761088661221c565b60200260200101516020015151600014155b80156108c857508381815181106108b1576108b161221c565b60200260200101516040015163ffffffff16600014155b6109145760405162461bcd60e51b815260206004820152600f60248201527f696e76616c6964206d657373616765000000000000000000000000000000000060448201526064016101cd565b8061091e81612232565b915050610831565b5060005b818110156109fe57826001600160a01b0316633dbb202b8583815181106109535761095361221c565b6020026020010151600001518684815181106109715761097161221c565b60200260200101516020015187858151811061098f5761098f61221c565b6020026020010151604001516040518463ffffffff1660e01b81526004016109b9939291906121e4565b600060405180830381600087803b1580156109d357600080fd5b505af11580156109e7573d6000803e3d6000fd5b5050505080806109f690612232565b91505061092a565b5050505050565b8051600003610a565760405162461bcd60e51b815260206004820152601460248201527f7a65726f206465706f7369744d6573736167657300000000000000000000000060448201526064016101cd565b805160005b81811015610b5c5760006001600160a01b0316838281518110610a8057610a8061221c565b6020026020010151600001516001600160a01b031614158015610ad3575060006001600160a01b0316838281518110610abb57610abb61221c565b6020026020010151602001516001600160a01b031614155b8015610afe5750828181518110610aec57610aec61221c565b60200260200101516040015151600014155b610b4a5760405162461bcd60e51b815260206004820152601760248201527f696e76616c6964206465706f7369744d6573736167657300000000000000000060448201526064016101cd565b80610b5481612232565b915050610a5b565b5060005b818110156109fe57610bcc8585858481518110610b7f57610b7f61221c565b602002602001015160000151868581518110610b9d57610b9d61221c565b602002602001015160200151878681518110610bbb57610bbb61221c565b6020026020010151604001516112b7565b80610bd681612232565b915050610b60565b604051639da3176160e01b81526001600160a01b038716600482015260009073__$b2d160aea0e65d5e83164dd2e3c22b89ec$__90639da3176190602401602060405180830381865af4158015610c39573d6000803e3d6000fd5b505050506040513d601f19601f82011682018060405250810190610c5d9190612177565b90506001600160a01b038116610cb55760405162461bcd60e51b815260206004820152601760248201527f6c31427269646765206973205a65726f4164647265737300000000000000000060448201526064016101cd565b6040516370a0823160e01b81526001600160a01b0389811660048301528491908816906370a0823190602401602060405180830381865afa158015610cfe573d6000803e3d6000fd5b505050506040513d601f19601f82011682018060405250810190610d22919061224b565b1015610d705760405162461bcd60e51b815260206004820152601f60248201527f6c31546f6b656e2062616c616e636520697320696e73756666696369656e740060448201526064016101cd565b604051636eb1769f60e11b81526001600160a01b03898116600483015230602483015284919088169063dd62ed3e90604401602060405180830381865afa158015610dbf573d6000803e3d6000fd5b505050506040513d601f19601f82011682018060405250810190610de3919061224b565b1015610e3b5760405162461bcd60e51b815260206004820152602160248201527f6c31546f6b656e20616c6c6f77616e636520697320696e73756666696369656e6044820152601d60fa1b60648201526084016101cd565b604051636eb1769f60e11b81523060048201526001600160a01b0382811660248301526000919088169063dd62ed3e90604401602060405180830381865afa158015610e8b573d6000803e3d6000fd5b505050506040513d601f19601f82011682018060405250810190610eaf919061224b565b905083811015610f2f5760405163095ea7b360e01b81526001600160a01b038381166004830152600019602483015288169063095ea7b3906044016020604051808303816000875af1158015610f09573d6000803e3d6000fd5b505050506040513d601f19601f82011682018060405250810190610f2d9190612264565b505b610f446001600160a01b0388168a3087611901565b816001600160a01b031663838b252088888888888d8d8d8d604051602001610f9494939291906001600160a01b039485168152928416602084015292166040820152606081019190915260800190565b6040516020818303038152906040526040518763ffffffff1660e01b81526004016106b496959493929190612286565b600081610fd28160146122d8565b10156110205760405162461bcd60e51b815260206004820152601260248201527f746f416464726573735f6f766572666c6f77000000000000000000000000000060448201526064016101cd565b61102b8260146122d8565b8351101561107b5760405162461bcd60e51b815260206004820152601560248201527f746f416464726573735f6f75744f66426f756e6473000000000000000000000060448201526064016101cd565b5001602001516c01000000000000000000000000900490565b6000816110a28160046122d8565b10156110f05760405162461bcd60e51b815260206004820152601160248201527f746f55696e7433325f6f766572666c6f7700000000000000000000000000000060448201526064016101cd565b6110fb8260046122d8565b8351101561114b5760405162461bcd60e51b815260206004820152601460248201527f746f55696e7433325f6f75744f66426f756e647300000000000000000000000060448201526064016101cd565b50016004015190565b60608161116281601f6122d8565b10156111a15760405162461bcd60e51b815260206004820152600e60248201526d736c6963655f6f766572666c6f7760901b60448201526064016101cd565b826111ac83826122d8565b10156111eb5760405162461bcd60e51b815260206004820152600e60248201526d736c6963655f6f766572666c6f7760901b60448201526064016101cd565b6111f582846122d8565b845110156112455760405162461bcd60e51b815260206004820152601160248201527f736c6963655f6f75744f66426f756e647300000000000000000000000000000060448201526064016101cd565b60608215801561126457604051915060008252602082016040526112ae565b6040519150601f8416801560200281840101858101878315602002848b0101015b8183101561129d578051835260209283019201611285565b5050858452601f01601f1916604052505b50949350505050565b604051639da3176160e01b81526001600160a01b038516600482015260009073__$b2d160aea0e65d5e83164dd2e3c22b89ec$__90639da3176190602401602060405180830381865af4158015611312573d6000803e3d6000fd5b505050506040513d601f19601f820116820180604052508101906113369190612177565b90506001600160a01b03811661138e5760405162461bcd60e51b815260206004820152601760248201527f6c31427269646765206973205a65726f4164647265737300000000000000000060448201526064016101cd565b81516000036113df5760405162461bcd60e51b815260206004820152600e60248201527f7a65726f206465706f736974546f00000000000000000000000000000000000060448201526064016101cd565b81516000805b828110156115045760006001600160a01b031685828151811061140a5761140a61221c565b6020026020010151600001516001600160a01b03161415801561144b575084818151811061143a5761143a61221c565b602002602001015160200151600014155b801561147b57508481815181106114645761146461221c565b60200260200101516040015163ffffffff16600014155b6114c75760405162461bcd60e51b815260206004820152601260248201527f696e76616c6964206465706f736974546f73000000000000000000000000000060448201526064016101cd565b8481815181106114d9576114d961221c565b602002602001015160200151826114f091906122d8565b9150806114fc81612232565b9150506113e5565b506040516370a0823160e01b81526001600160a01b0389811660048301528291908816906370a0823190602401602060405180830381865afa15801561154e573d6000803e3d6000fd5b505050506040513d601f19601f82011682018060405250810190611572919061224b565b10156115c05760405162461bcd60e51b815260206004820152601f60248201527f6c31546f6b656e2062616c616e636520697320696e73756666696369656e740060448201526064016101cd565b604051636eb1769f60e11b81526001600160a01b03898116600483015230602483015282919088169063dd62ed3e90604401602060405180830381865afa15801561160f573d6000803e3d6000fd5b505050506040513d601f19601f82011682018060405250810190611633919061224b565b101561168b5760405162461bcd60e51b815260206004820152602160248201527f6c31546f6b656e20616c6c6f77616e636520697320696e73756666696369656e6044820152601d60fa1b60648201526084016101cd565b604051636eb1769f60e11b81523060048201526001600160a01b0384811660248301526000919088169063dd62ed3e90604401602060405180830381865afa1580156116db573d6000803e3d6000fd5b505050506040513d601f19601f820116820180604052508101906116ff919061224b565b90508181101561177f5760405163095ea7b360e01b81526001600160a01b038581166004830152600019602483015288169063095ea7b3906044016020604051808303816000875af1158015611759573d6000803e3d6000fd5b505050506040513d601f19601f8201168201806040525081019061177d9190612264565b505b6117946001600160a01b0388168a3085611901565b60005b838110156118f557846001600160a01b031663838b252089898985815181106117c2576117c261221c565b6020026020010151600001518a86815181106117e0576117e061221c565b6020026020010151602001518b87815181106117fe576117fe61221c565b6020026020010151604001518e8e8e8a8151811061181e5761181e61221c565b6020026020010151600001518f8b8151811061183c5761183c61221c565b60200260200101516020015160405160200161188094939291906001600160a01b039485168152928416602084015292166040820152606081019190915260800190565b6040516020818303038152906040526040518763ffffffff1660e01b81526004016118b096959493929190612286565b600060405180830381600087803b1580156118ca57600080fd5b505af11580156118de573d6000803e3d6000fd5b5050505080806118ed90612232565b915050611797565b50505050505050505050565b604080516001600160a01b0385811660248301528481166044830152606480830185905283518084039091018152608490920183526020820180517bffffffffffffffffffffffffffffffffffffffffffffffffffffffff166323b872dd60e01b179052915160009283929088169161197a91906122eb565b6000604051808303816000865af19150503d80600081146119b7576040519150601f19603f3d011682016040523d82523d6000602084013e6119bc565b606091505b50915091508180156119e65750805115806119e65750808060200190518101906119e69190612264565b6101f05760405162461bcd60e51b815260206004820152601460248201527f5452414e534645525f46524f4d5f4641494c454400000000000000000000000060448201526064016101cd565b600060208284031215611a4457600080fd5b81356001600160e01b031981168114611a5c57600080fd5b9392505050565b6001600160a01b0381168114611a7857600080fd5b50565b634e487b7160e01b600052604160045260246000fd5b6040516060810167ffffffffffffffff81118282101715611ab457611ab4611a7b565b60405290565b604051601f8201601f1916810167ffffffffffffffff81118282101715611ae357611ae3611a7b565b604052919050565b600067ffffffffffffffff821115611b0557611b05611a7b565b5060051b60200190565b803563ffffffff81168114611b2357600080fd5b919050565b600082601f830112611b3957600080fd5b81356020611b4e611b4983611aeb565b611aba565b82815260609283028501820192828201919087851115611b6d57600080fd5b8387015b85811015611bc45781818a031215611b895760008081fd5b611b91611a91565b8135611b9c81611a63565b815281860135868201526040611bb3818401611b0f565b908201528452928401928101611b71565b5090979650505050505050565b600082601f830112611be257600080fd5b81356020611bf2611b4983611aeb565b82815260059290921b84018101918181019086841115611c1157600080fd5b8286015b84811015611caf57803567ffffffffffffffff80821115611c365760008081fd5b908801906060828b03601f1901811315611c505760008081fd5b611c58611a91565b87840135611c6581611a63565b8152604084810135611c7681611a63565b828a0152918401359183831115611c8d5760008081fd5b611c9b8d8a85880101611b28565b908201528652505050918301918301611c15565b509695505050505050565b600082601f830112611ccb57600080fd5b813567ffffffffffffffff811115611ce557611ce5611a7b565b611cf8601f8201601f1916602001611aba565b818152846020838601011115611d0d57600080fd5b816020850160208301376000918101602001919091529392505050565b600082601f830112611d3b57600080fd5b81356020611d4b611b4983611aeb565b82815260059290921b84018101918181019086841115611d6a57600080fd5b8286015b84811015611caf57803567ffffffffffffffff80821115611d8f5760008081fd5b908801906060828b03601f1901811315611da95760008081fd5b611db1611a91565b87840135611dbe81611a63565b815260408481013584811115611dd45760008081fd5b611de28e8b83890101611cba565b8a84015250611df2838601611b0f565b908201528652505050918301918301611d6e565b600080600060608486031215611e1b57600080fd5b8335611e2681611a63565b9250602084013567ffffffffffffffff80821115611e4357600080fd5b611e4f87838801611bd1565b93506040860135915080821115611e6557600080fd5b50611e7286828701611d2a565b9150509250925092565b60008060408385031215611e8f57600080fd5b8235611e9a81611a63565b9150602083013567ffffffffffffffff811115611eb657600080fd5b611ec285828601611bd1565b9150509250929050565b60008060008060008060c08789031215611ee557600080fd5b8635611ef081611a63565b95506020870135611f0081611a63565b94506040870135611f1081611a63565b93506060870135611f2081611a63565b925060808701359150611f3560a08801611b0f565b90509295509295509295565b600080600080600060808688031215611f5957600080fd5b8535611f6481611a63565b94506020860135611f7481611a63565b935060408601359250606086013567ffffffffffffffff80821115611f9857600080fd5b818801915088601f830112611fac57600080fd5b813581811115611fbb57600080fd5b896020828501011115611fcd57600080fd5b9699959850939650602001949392505050565b600080600080600080600080610100898b031215611ffd57600080fd5b883561200881611a63565b9750602089013561201881611a63565b9650604089013561202881611a63565b9550606089013561203881611a63565b94506080890135935061204d60a08a01611b0f565b925061205b60c08a01611b0f565b915060e089013567ffffffffffffffff81111561207757600080fd5b6120838b828c01611cba565b9150509295985092959890939650565b600080600080608085870312156120a957600080fd5b84356120b481611a63565b935060208501356120c481611a63565b925060408501356120d481611a63565b9150606085013567ffffffffffffffff8111156120f057600080fd5b6120fc87828801611b28565b91505092959194509250565b6000806040838503121561211b57600080fd5b823561212681611a63565b9150602083013567ffffffffffffffff81111561214257600080fd5b611ec285828601611d2a565b634e487b7160e01b600052601160045260246000fd5b818103818111156101755761017561214e565b60006020828403121561218957600080fd5b8151611a5c81611a63565b60005b838110156121af578181015183820152602001612197565b50506000910152565b600081518084526121d0816020860160208601612194565b601f01601f19169290920160200192915050565b6001600160a01b038416815260606020820152600061220660608301856121b8565b905063ffffffff83166040830152949350505050565b634e487b7160e01b600052603260045260246000fd5b6000600182016122445761224461214e565b5060010190565b60006020828403121561225d57600080fd5b5051919050565b60006020828403121561227657600080fd5b81518015158114611a5c57600080fd5b60006001600160a01b038089168352808816602084015280871660408401525084606083015263ffffffff8416608083015260c060a08301526122cc60c08301846121b8565b98975050505050505050565b808201808211156101755761017561214e565b600082516122fd818460208701612194565b919091019291505056fea164736f6c6343000812000a",
  "linkReferences": {
    "contracts/libraries/LibProject.sol": {
      "LibProject": [
        {
          "length": 20,
          "start": 1305
        },
        {
          "length": 20,
          "start": 1655
        },
        {
          "length": 20,
          "start": 2013
        },
        {
          "length": 20,
          "start": 3255
        },
        {
          "length": 20,
          "start": 5008
        }
      ]
    }
  },
  "deployedLinkReferences": {
    "contracts/libraries/LibProject.sol": {
      "LibProject": [
        {
          "length": 20,
          "start": 1121
        },
        {
          "length": 20,
          "start": 1471
        },
        {
          "length": 20,
          "start": 1829
        },
        {
          "length": 20,
          "start": 3071
        },
        {
          "length": 20,
          "start": 4824
        }
      ]
    }
  }
}