{
  "_format": "hh-sol-artifact-1",
  "contractName": "L1toL2Message",
  "sourceName": "contracts/L1/L1toL2Message.sol",
  "abi": [
    {
      "inputs": [],
      "stateMutability": "nonpayable",
      "type": "constructor"
    },
    {
      "inputs": [
        {
          "internalType": "address",
          "name": "addressManager",
          "type": "address"
        },
        {
          "internalType": "address",
          "name": "l1Token",
          "type": "address"
        },
        {
          "internalType": "address",
          "name": "l2Token",
          "type": "address"
        },
        {
          "internalType": "address",
          "name": "depositAndCallTarget",
          "type": "address"
        },
        {
          "internalType": "uint256",
          "name": "amount",
          "type": "uint256"
        },
        {
          "internalType": "uint32",
          "name": "minGasLimitForDeposit",
          "type": "uint32"
        },
        {
          "internalType": "uint32",
          "name": "minGasLimitForCall",
          "type": "uint32"
        },
        {
          "internalType": "bytes",
          "name": "callData",
          "type": "bytes"
        }
      ],
      "name": "depositAndCall",
      "outputs": [],
      "stateMutability": "nonpayable",
      "type": "function"
    },
    {
      "inputs": [
        {
          "internalType": "address",
          "name": "addressManager",
          "type": "address"
        },
        {
          "internalType": "address",
          "name": "l1Token",
          "type": "address"
        },
        {
          "internalType": "address",
          "name": "l2Token",
          "type": "address"
        },
        {
          "internalType": "address",
          "name": "depositTo",
          "type": "address"
        },
        {
          "internalType": "uint256",
          "name": "amount",
          "type": "uint256"
        },
        {
          "internalType": "uint32",
          "name": "_minGasLimit",
          "type": "uint32"
        }
      ],
      "name": "depositL1TokenToL2",
      "outputs": [],
      "stateMutability": "nonpayable",
      "type": "function"
    },
    {
      "inputs": [
        {
          "internalType": "address",
          "name": "addressManager",
          "type": "address"
        },
        {
          "internalType": "address",
          "name": "l1Token",
          "type": "address"
        },
        {
          "internalType": "address",
          "name": "l2Token",
          "type": "address"
        },
        {
          "components": [
            {
              "internalType": "address",
              "name": "to",
              "type": "address"
            },
            {
              "internalType": "uint256",
              "name": "amount",
              "type": "uint256"
            },
            {
              "internalType": "uint32",
              "name": "minGasLimit",
              "type": "uint32"
            }
          ],
          "internalType": "struct L1toL2Message.DepositTo[]",
          "name": "depositTos",
          "type": "tuple[]"
        }
      ],
      "name": "depositToMany",
      "outputs": [],
      "stateMutability": "nonpayable",
      "type": "function"
    },
    {
      "inputs": [
        {
          "internalType": "address",
          "name": "addressManager",
          "type": "address"
        },
        {
          "components": [
            {
              "internalType": "address",
              "name": "l1Token",
              "type": "address"
            },
            {
              "internalType": "address",
              "name": "l2Token",
              "type": "address"
            },
            {
              "components": [
                {
                  "internalType": "address",
                  "name": "to",
                  "type": "address"
                },
                {
                  "internalType": "uint256",
                  "name": "amount",
                  "type": "uint256"
                },
                {
                  "internalType": "uint32",
                  "name": "minGasLimit",
                  "type": "uint32"
                }
              ],
              "internalType": "struct L1toL2Message.DepositTo[]",
              "name": "depositTos",
              "type": "tuple[]"
            }
          ],
          "internalType": "struct L1toL2Message.DepositMessage[]",
          "name": "depositMessages",
          "type": "tuple[]"
        }
      ],
      "name": "deposits",
      "outputs": [],
      "stateMutability": "nonpayable",
      "type": "function"
    },
    {
      "inputs": [
        {
          "internalType": "address",
          "name": "addressManager",
          "type": "address"
        },
        {
          "components": [
            {
              "internalType": "address",
              "name": "l1Token",
              "type": "address"
            },
            {
              "internalType": "address",
              "name": "l2Token",
              "type": "address"
            },
            {
              "components": [
                {
                  "internalType": "address",
                  "name": "to",
                  "type": "address"
                },
                {
                  "internalType": "uint256",
                  "name": "amount",
                  "type": "uint256"
                },
                {
                  "internalType": "uint32",
                  "name": "minGasLimit",
                  "type": "uint32"
                }
              ],
              "internalType": "struct L1toL2Message.DepositTo[]",
              "name": "depositTos",
              "type": "tuple[]"
            }
          ],
          "internalType": "struct L1toL2Message.DepositMessage[]",
          "name": "depositMassages",
          "type": "tuple[]"
        },
        {
          "components": [
            {
              "internalType": "address",
              "name": "target",
              "type": "address"
            },
            {
              "internalType": "bytes",
              "name": "message",
              "type": "bytes"
            },
            {
              "internalType": "uint32",
              "name": "minGasLimit",
              "type": "uint32"
            }
          ],
          "internalType": "struct L1toL2Message.CallMessage[]",
          "name": "callMessages",
          "type": "tuple[]"
        }
      ],
      "name": "depositsAndMessages",
      "outputs": [],
      "stateMutability": "nonpayable",
      "type": "function"
    },
    {
      "inputs": [
        {
          "internalType": "address",
          "name": "addressManager",
          "type": "address"
        },
        {
          "components": [
            {
              "internalType": "address",
              "name": "target",
              "type": "address"
            },
            {
              "internalType": "bytes",
              "name": "message",
              "type": "bytes"
            },
            {
              "internalType": "uint32",
              "name": "minGasLimit",
              "type": "uint32"
            }
          ],
          "internalType": "struct L1toL2Message.CallMessage[]",
          "name": "callMessages",
          "type": "tuple[]"
        }
      ],
      "name": "l2SendMessage",
      "outputs": [],
      "stateMutability": "nonpayable",
      "type": "function"
    },
    {
      "inputs": [
        {
          "internalType": "bytes4",
          "name": "interfaceId",
          "type": "bytes4"
        }
      ],
      "name": "supportsInterface",
      "outputs": [
        {
          "internalType": "bool",
          "name": "",
          "type": "bool"
        }
      ],
      "stateMutability": "view",
      "type": "function"
    }
  ],
  "bytecode": "0x608060405234801561001057600080fd5b50610021632139e50b60e11b610026565b6100a9565b6001600160e01b031980821690036100845760405162461bcd60e51b815260206004820152601c60248201527f4552433136353a20696e76616c696420696e7465726661636520696400000000604482015260640160405180910390fd5b6001600160e01b0319166000908152602081905260409020805460ff19166001179055565b611bab806100b86000396000f3fe608060405234801561001057600080fd5b506004361061007d5760003560e01c80633f453eac1161005b5780633f453eac146100d157806378d997fb146100e45780638dec3ef4146100f7578063ef61f4f81461010a57600080fd5b806301ffc9a71461008257806302828929146100a95780630eb865f3146100be575b600080fd5b61009561009036600461137b565b61011d565b604051901515815260200160405180910390f35b6100bc6100b736600461174f565b61015d565b005b6100bc6100cc3660046117c5565b610177565b6100bc6100df366004611815565b6101c3565b6100bc6100f236600461188a565b6101da565b6100bc61010536600461193d565b61032d565b6100bc6101183660046119b2565b610340565b60006301ffc9a760e01b6001600160e01b03198316148061015757506001600160e01b0319821660009081526020819052604090205460ff165b92915050565b610168338484610641565b6101728382610340565b505050565b816001600160a01b0381166101b85760405162461bcd60e51b81526020600482015260026024820152612d1960f11b60448201526064015b60405180910390fd5b610172338484610641565b6101d23387878787878761081a565b505050505050565b60405163507c8bd160e01b81526001600160a01b038916600482015260009073__$b2d160aea0e65d5e83164dd2e3c22b89ec$__9063507c8bd190602401602060405180830381865af4158015610235573d6000803e3d6000fd5b505050506040513d601f19601f8201168201806040525081019061025991906119f8565b90506001600160a01b0381166102b15760405162461bcd60e51b815260206004820152601a60248201527f6c314d657373656e676572206973205a65726f4164647265737300000000000060448201526064016101af565b6102c0338a8a8a8a8a8a61081a565b604051633dbb202b60e01b81526001600160a01b03821690633dbb202b906102f090899086908890600401611a65565b600060405180830381600087803b15801561030a57600080fd5b505af115801561031e573d6000803e3d6000fd5b50505050505050505050505050565b61033a3385858585610c00565b50505050565b60405163507c8bd160e01b81526001600160a01b038316600482015260009073__$b2d160aea0e65d5e83164dd2e3c22b89ec$__9063507c8bd190602401602060405180830381865af415801561039b573d6000803e3d6000fd5b505050506040513d601f19601f820116820180604052508101906103bf91906119f8565b90506001600160a01b0381166104175760405162461bcd60e51b815260206004820152601a60248201527f6c314d657373656e676572206973205a65726f4164647265737300000000000060448201526064016101af565b81516000036104685760405162461bcd60e51b815260206004820152601160248201527f7a65726f2063616c6c206d65737361676500000000000000000000000000000060448201526064016101af565b815160005b818110156105625760006001600160a01b031684828151811061049257610492611a9d565b6020026020010151600001516001600160a01b0316141580156104d457508381815181106104c2576104c2611a9d565b60200260200101516020015151600014155b801561050457508381815181106104ed576104ed611a9d565b60200260200101516040015163ffffffff16600014155b6105505760405162461bcd60e51b815260206004820152600f60248201527f696e76616c6964206d657373616765000000000000000000000000000000000060448201526064016101af565b8061055a81611ac9565b91505061046d565b5060005b8181101561063a57826001600160a01b0316633dbb202b85838151811061058f5761058f611a9d565b6020026020010151600001518684815181106105ad576105ad611a9d565b6020026020010151602001518785815181106105cb576105cb611a9d565b6020026020010151604001516040518463ffffffff1660e01b81526004016105f593929190611a65565b600060405180830381600087803b15801561060f57600080fd5b505af1158015610623573d6000803e3d6000fd5b50505050808061063290611ac9565b915050610566565b5050505050565b80516000036106925760405162461bcd60e51b815260206004820152601460248201527f7a65726f206465706f7369744d6573736167657300000000000000000000000060448201526064016101af565b805160005b818110156107985760006001600160a01b03168382815181106106bc576106bc611a9d565b6020026020010151600001516001600160a01b03161415801561070f575060006001600160a01b03168382815181106106f7576106f7611a9d565b6020026020010151602001516001600160a01b031614155b801561073a575082818151811061072857610728611a9d565b60200260200101516040015151600014155b6107865760405162461bcd60e51b815260206004820152601760248201527f696e76616c6964206465706f7369744d6573736167657300000000000000000060448201526064016101af565b8061079081611ac9565b915050610697565b5060005b8181101561063a5761080885858584815181106107bb576107bb611a9d565b6020026020010151600001518685815181106107d9576107d9611a9d565b6020026020010151602001518786815181106107f7576107f7611a9d565b602002602001015160400151610c00565b8061081281611ac9565b91505061079c565b604051639da3176160e01b81526001600160a01b038716600482015260009073__$b2d160aea0e65d5e83164dd2e3c22b89ec$__90639da3176190602401602060405180830381865af4158015610875573d6000803e3d6000fd5b505050506040513d601f19601f8201168201806040525081019061089991906119f8565b90506001600160a01b0381166108f15760405162461bcd60e51b815260206004820152601760248201527f6c31427269646765206973205a65726f4164647265737300000000000000000060448201526064016101af565b6040516370a0823160e01b81526001600160a01b0389811660048301528491908816906370a0823190602401602060405180830381865afa15801561093a573d6000803e3d6000fd5b505050506040513d601f19601f8201168201806040525081019061095e9190611ae2565b10156109ac5760405162461bcd60e51b815260206004820152601f60248201527f6c31546f6b656e2062616c616e636520697320696e73756666696369656e740060448201526064016101af565b604051636eb1769f60e11b81526001600160a01b03898116600483015230602483015284919088169063dd62ed3e90604401602060405180830381865afa1580156109fb573d6000803e3d6000fd5b505050506040513d601f19601f82011682018060405250810190610a1f9190611ae2565b1015610a775760405162461bcd60e51b815260206004820152602160248201527f6c31546f6b656e20616c6c6f77616e636520697320696e73756666696369656e6044820152601d60fa1b60648201526084016101af565b604051636eb1769f60e11b81523060048201526001600160a01b0382811660248301526000919088169063dd62ed3e90604401602060405180830381865afa158015610ac7573d6000803e3d6000fd5b505050506040513d601f19601f82011682018060405250810190610aeb9190611ae2565b905083811015610b6b5760405163095ea7b360e01b81526001600160a01b038381166004830152600019602483015288169063095ea7b3906044016020604051808303816000875af1158015610b45573d6000803e3d6000fd5b505050506040513d601f19601f82011682018060405250810190610b699190611afb565b505b610b806001600160a01b0388168a308761124a565b816001600160a01b031663838b252088888888888d8d8d8d604051602001610bd094939291906001600160a01b039485168152928416602084015292166040820152606081019190915260800190565b6040516020818303038152906040526040518763ffffffff1660e01b81526004016102f096959493929190611b1d565b604051639da3176160e01b81526001600160a01b038516600482015260009073__$b2d160aea0e65d5e83164dd2e3c22b89ec$__90639da3176190602401602060405180830381865af4158015610c5b573d6000803e3d6000fd5b505050506040513d601f19601f82011682018060405250810190610c7f91906119f8565b90506001600160a01b038116610cd75760405162461bcd60e51b815260206004820152601760248201527f6c31427269646765206973205a65726f4164647265737300000000000000000060448201526064016101af565b8151600003610d285760405162461bcd60e51b815260206004820152600e60248201527f7a65726f206465706f736974546f00000000000000000000000000000000000060448201526064016101af565b81516000805b82811015610e4d5760006001600160a01b0316858281518110610d5357610d53611a9d565b6020026020010151600001516001600160a01b031614158015610d945750848181518110610d8357610d83611a9d565b602002602001015160200151600014155b8015610dc45750848181518110610dad57610dad611a9d565b60200260200101516040015163ffffffff16600014155b610e105760405162461bcd60e51b815260206004820152601260248201527f696e76616c6964206465706f736974546f73000000000000000000000000000060448201526064016101af565b848181518110610e2257610e22611a9d565b60200260200101516020015182610e399190611b6f565b915080610e4581611ac9565b915050610d2e565b506040516370a0823160e01b81526001600160a01b0389811660048301528291908816906370a0823190602401602060405180830381865afa158015610e97573d6000803e3d6000fd5b505050506040513d601f19601f82011682018060405250810190610ebb9190611ae2565b1015610f095760405162461bcd60e51b815260206004820152601f60248201527f6c31546f6b656e2062616c616e636520697320696e73756666696369656e740060448201526064016101af565b604051636eb1769f60e11b81526001600160a01b03898116600483015230602483015282919088169063dd62ed3e90604401602060405180830381865afa158015610f58573d6000803e3d6000fd5b505050506040513d601f19601f82011682018060405250810190610f7c9190611ae2565b1015610fd45760405162461bcd60e51b815260206004820152602160248201527f6c31546f6b656e20616c6c6f77616e636520697320696e73756666696369656e6044820152601d60fa1b60648201526084016101af565b604051636eb1769f60e11b81523060048201526001600160a01b0384811660248301526000919088169063dd62ed3e90604401602060405180830381865afa158015611024573d6000803e3d6000fd5b505050506040513d601f19601f820116820180604052508101906110489190611ae2565b9050818110156110c85760405163095ea7b360e01b81526001600160a01b038581166004830152600019602483015288169063095ea7b3906044016020604051808303816000875af11580156110a2573d6000803e3d6000fd5b505050506040513d601f19601f820116820180604052508101906110c69190611afb565b505b6110dd6001600160a01b0388168a308561124a565b60005b8381101561123e57846001600160a01b031663838b2520898989858151811061110b5761110b611a9d565b6020026020010151600001518a868151811061112957611129611a9d565b6020026020010151602001518b878151811061114757611147611a9d565b6020026020010151604001518e8e8e8a8151811061116757611167611a9d565b6020026020010151600001518f8b8151811061118557611185611a9d565b6020026020010151602001516040516020016111c994939291906001600160a01b039485168152928416602084015292166040820152606081019190915260800190565b6040516020818303038152906040526040518763ffffffff1660e01b81526004016111f996959493929190611b1d565b600060405180830381600087803b15801561121357600080fd5b505af1158015611227573d6000803e3d6000fd5b50505050808061123690611ac9565b9150506110e0565b50505050505050505050565b604080516001600160a01b0385811660248301528481166044830152606480830185905283518084039091018152608490920183526020820180517bffffffffffffffffffffffffffffffffffffffffffffffffffffffff166323b872dd60e01b17905291516000928392908816916112c39190611b82565b6000604051808303816000865af19150503d8060008114611300576040519150601f19603f3d011682016040523d82523d6000602084013e611305565b606091505b509150915081801561132f57508051158061132f57508080602001905181019061132f9190611afb565b6101d25760405162461bcd60e51b815260206004820152601460248201527f5452414e534645525f46524f4d5f4641494c454400000000000000000000000060448201526064016101af565b60006020828403121561138d57600080fd5b81356001600160e01b0319811681146113a557600080fd5b9392505050565b6001600160a01b03811681146113c157600080fd5b50565b634e487b7160e01b600052604160045260246000fd5b6040516060810167ffffffffffffffff811182821017156113fd576113fd6113c4565b60405290565b604051601f8201601f1916810167ffffffffffffffff8111828210171561142c5761142c6113c4565b604052919050565b600067ffffffffffffffff82111561144e5761144e6113c4565b5060051b60200190565b803563ffffffff8116811461146c57600080fd5b919050565b600082601f83011261148257600080fd5b8135602061149761149283611434565b611403565b828152606092830285018201928282019190878511156114b657600080fd5b8387015b8581101561150d5781818a0312156114d25760008081fd5b6114da6113da565b81356114e5816113ac565b8152818601358682015260406114fc818401611458565b9082015284529284019281016114ba565b5090979650505050505050565b600082601f83011261152b57600080fd5b8135602061153b61149283611434565b82815260059290921b8401810191818101908684111561155a57600080fd5b8286015b848110156115f857803567ffffffffffffffff8082111561157f5760008081fd5b908801906060828b03601f19018113156115995760008081fd5b6115a16113da565b878401356115ae816113ac565b81526040848101356115bf816113ac565b828a01529184013591838311156115d65760008081fd5b6115e48d8a85880101611471565b90820152865250505091830191830161155e565b509695505050505050565b600082601f83011261161457600080fd5b813567ffffffffffffffff81111561162e5761162e6113c4565b611641601f8201601f1916602001611403565b81815284602083860101111561165657600080fd5b816020850160208301376000918101602001919091529392505050565b600082601f83011261168457600080fd5b8135602061169461149283611434565b82815260059290921b840181019181810190868411156116b357600080fd5b8286015b848110156115f857803567ffffffffffffffff808211156116d85760008081fd5b908801906060828b03601f19018113156116f25760008081fd5b6116fa6113da565b87840135611707816113ac565b81526040848101358481111561171d5760008081fd5b61172b8e8b83890101611603565b8a8401525061173b838601611458565b9082015286525050509183019183016116b7565b60008060006060848603121561176457600080fd5b833561176f816113ac565b9250602084013567ffffffffffffffff8082111561178c57600080fd5b6117988783880161151a565b935060408601359150808211156117ae57600080fd5b506117bb86828701611673565b9150509250925092565b600080604083850312156117d857600080fd5b82356117e3816113ac565b9150602083013567ffffffffffffffff8111156117ff57600080fd5b61180b8582860161151a565b9150509250929050565b60008060008060008060c0878903121561182e57600080fd5b8635611839816113ac565b95506020870135611849816113ac565b94506040870135611859816113ac565b93506060870135611869816113ac565b92506080870135915061187e60a08801611458565b90509295509295509295565b600080600080600080600080610100898b0312156118a757600080fd5b88356118b2816113ac565b975060208901356118c2816113ac565b965060408901356118d2816113ac565b955060608901356118e2816113ac565b9450608089013593506118f760a08a01611458565b925061190560c08a01611458565b915060e089013567ffffffffffffffff81111561192157600080fd5b61192d8b828c01611603565b9150509295985092959890939650565b6000806000806080858703121561195357600080fd5b843561195e816113ac565b9350602085013561196e816113ac565b9250604085013561197e816113ac565b9150606085013567ffffffffffffffff81111561199a57600080fd5b6119a687828801611471565b91505092959194509250565b600080604083850312156119c557600080fd5b82356119d0816113ac565b9150602083013567ffffffffffffffff8111156119ec57600080fd5b61180b85828601611673565b600060208284031215611a0a57600080fd5b81516113a5816113ac565b60005b83811015611a30578181015183820152602001611a18565b50506000910152565b60008151808452611a51816020860160208601611a15565b601f01601f19169290920160200192915050565b6001600160a01b0384168152606060208201526000611a876060830185611a39565b905063ffffffff83166040830152949350505050565b634e487b7160e01b600052603260045260246000fd5b634e487b7160e01b600052601160045260246000fd5b600060018201611adb57611adb611ab3565b5060010190565b600060208284031215611af457600080fd5b5051919050565b600060208284031215611b0d57600080fd5b815180151581146113a557600080fd5b60006001600160a01b038089168352808816602084015280871660408401525084606083015263ffffffff8416608083015260c060a0830152611b6360c0830184611a39565b98975050505050505050565b8082018082111561015757610157611ab3565b60008251611b94818460208701611a15565b919091019291505056fea164736f6c6343000812000a",
  "linkReferences": {
    "contracts/libraries/LibProject.sol": {
      "LibProject": [
        {
          "length": 20,
          "start": 691
        },
        {
          "length": 20,
          "start": 1049
        },
        {
          "length": 20,
          "start": 2291
        },
        {
          "length": 20,
          "start": 3289
        }
      ]
    }
  },
  "deployedLinkReferences": {
    "contracts/libraries/LibProject.sol": {
      "LibProject": [
        {
          "length": 20,
          "start": 507
        },
        {
          "length": 20,
          "start": 865
        },
        {
          "length": 20,
          "start": 2107
        },
        {
          "length": 20,
          "start": 3105
        }
      ]
    }
  }
}