{
  "_format": "hh-sol-artifact-1",
  "contractName": "L1toL2Message",
  "sourceName": "contracts/L1/L1toL2Message.sol",
  "abi": [
    {
      "inputs": [
        {
          "internalType": "address",
          "name": "addressManager",
          "type": "address"
        },
        {
          "internalType": "address",
          "name": "l1Token",
          "type": "address"
        },
        {
          "internalType": "address",
          "name": "l2Token",
          "type": "address"
        },
        {
          "internalType": "address",
          "name": "depositTo",
          "type": "address"
        },
        {
          "internalType": "uint256",
          "name": "amount",
          "type": "uint256"
        },
        {
          "internalType": "uint32",
          "name": "_minGasLimit",
          "type": "uint32"
        }
      ],
      "name": "depositL1TokenToL2",
      "outputs": [],
      "stateMutability": "nonpayable",
      "type": "function"
    },
    {
      "inputs": [
        {
          "internalType": "address",
          "name": "addressManager",
          "type": "address"
        },
        {
          "internalType": "address",
          "name": "l1Token",
          "type": "address"
        },
        {
          "internalType": "address",
          "name": "l2Token",
          "type": "address"
        },
        {
          "components": [
            {
              "internalType": "address",
              "name": "to",
              "type": "address"
            },
            {
              "internalType": "uint256",
              "name": "amount",
              "type": "uint256"
            },
            {
              "internalType": "uint32",
              "name": "minGasLimit",
              "type": "uint32"
            }
          ],
          "internalType": "struct L1toL2Message.DepositTo[]",
          "name": "depositTos",
          "type": "tuple[]"
        }
      ],
      "name": "depositToMany",
      "outputs": [],
      "stateMutability": "nonpayable",
      "type": "function"
    },
    {
      "inputs": [
        {
          "internalType": "address",
          "name": "addressManager",
          "type": "address"
        },
        {
          "components": [
            {
              "internalType": "address",
              "name": "l1Token",
              "type": "address"
            },
            {
              "internalType": "address",
              "name": "l2Token",
              "type": "address"
            },
            {
              "components": [
                {
                  "internalType": "address",
                  "name": "to",
                  "type": "address"
                },
                {
                  "internalType": "uint256",
                  "name": "amount",
                  "type": "uint256"
                },
                {
                  "internalType": "uint32",
                  "name": "minGasLimit",
                  "type": "uint32"
                }
              ],
              "internalType": "struct L1toL2Message.DepositTo[]",
              "name": "depositTos",
              "type": "tuple[]"
            }
          ],
          "internalType": "struct L1toL2Message.DepositMessage[]",
          "name": "depositMessages",
          "type": "tuple[]"
        }
      ],
      "name": "deposits",
      "outputs": [],
      "stateMutability": "nonpayable",
      "type": "function"
    },
    {
      "inputs": [
        {
          "internalType": "address",
          "name": "addressManager",
          "type": "address"
        },
        {
          "components": [
            {
              "internalType": "address",
              "name": "l1Token",
              "type": "address"
            },
            {
              "internalType": "address",
              "name": "l2Token",
              "type": "address"
            },
            {
              "components": [
                {
                  "internalType": "address",
                  "name": "to",
                  "type": "address"
                },
                {
                  "internalType": "uint256",
                  "name": "amount",
                  "type": "uint256"
                },
                {
                  "internalType": "uint32",
                  "name": "minGasLimit",
                  "type": "uint32"
                }
              ],
              "internalType": "struct L1toL2Message.DepositTo[]",
              "name": "depositTos",
              "type": "tuple[]"
            }
          ],
          "internalType": "struct L1toL2Message.DepositMessage[]",
          "name": "depositMassages",
          "type": "tuple[]"
        },
        {
          "components": [
            {
              "internalType": "address",
              "name": "target",
              "type": "address"
            },
            {
              "internalType": "bytes",
              "name": "message",
              "type": "bytes"
            },
            {
              "internalType": "uint32",
              "name": "minGasLimit",
              "type": "uint32"
            }
          ],
          "internalType": "struct L1toL2Message.CallMessage[]",
          "name": "callMessages",
          "type": "tuple[]"
        }
      ],
      "name": "depositsAndMessages",
      "outputs": [],
      "stateMutability": "nonpayable",
      "type": "function"
    },
    {
      "inputs": [
        {
          "internalType": "address",
          "name": "addressManager",
          "type": "address"
        },
        {
          "components": [
            {
              "internalType": "address",
              "name": "target",
              "type": "address"
            },
            {
              "internalType": "bytes",
              "name": "message",
              "type": "bytes"
            },
            {
              "internalType": "uint32",
              "name": "minGasLimit",
              "type": "uint32"
            }
          ],
          "internalType": "struct L1toL2Message.CallMessage[]",
          "name": "callMessages",
          "type": "tuple[]"
        }
      ],
      "name": "l2SendMessage",
      "outputs": [],
      "stateMutability": "nonpayable",
      "type": "function"
    }
  ],
  "bytecode": "0x608060405234801561001057600080fd5b506118d6806100206000396000f3fe608060405234801561001057600080fd5b50600436106100675760003560e01c80633f453eac116100505780633f453eac146100945780638dec3ef4146100a7578063ef61f4f8146100ba57600080fd5b8063028289291461006c5780630eb865f314610081575b600080fd5b61007f61007a366004611520565b6100cd565b005b61007f61008f366004611596565b6100e6565b61007f6100a23660046115e6565b610306565b61007f6100b536600461165b565b610722565b61007f6100c83660046116d0565b610d65565b6100d783836100e6565b6100e18382610d65565b505050565b816001600160a01b0381166101275760405162461bcd60e51b81526020600482015260026024820152612d1960f11b60448201526064015b60405180910390fd5b81516000036101785760405162461bcd60e51b815260206004820152601460248201527f7a65726f206465706f7369744d65737361676573000000000000000000000000604482015260640161011e565b815160005b8181101561027e5760006001600160a01b03168482815181106101a2576101a2611716565b6020026020010151600001516001600160a01b0316141580156101f5575060006001600160a01b03168482815181106101dd576101dd611716565b6020026020010151602001516001600160a01b031614155b8015610220575083818151811061020e5761020e611716565b60200260200101516040015151600014155b61026c5760405162461bcd60e51b815260206004820152601760248201527f696e76616c6964206465706f7369744d65737361676573000000000000000000604482015260640161011e565b8061027681611742565b91505061017d565b5060005b818110156102ff576102ed858583815181106102a0576102a0611716565b6020026020010151600001518684815181106102be576102be611716565b6020026020010151602001518785815181106102dc576102dc611716565b602002602001015160400151610722565b806102f781611742565b915050610282565b5050505050565b604051639da3176160e01b81526001600160a01b038716600482015260009073__$b2d160aea0e65d5e83164dd2e3c22b89ec$__90639da3176190602401602060405180830381865af4158015610361573d6000803e3d6000fd5b505050506040513d601f19601f82011682018060405250810190610385919061175b565b90506001600160a01b0381166103dd5760405162461bcd60e51b815260206004820152601760248201527f6c31427269646765206973205a65726f41646472657373000000000000000000604482015260640161011e565b6040516370a0823160e01b815233600482015283906001600160a01b038816906370a0823190602401602060405180830381865afa158015610423573d6000803e3d6000fd5b505050506040513d601f19601f82011682018060405250810190610447919061177f565b10156104955760405162461bcd60e51b815260206004820152601f60248201527f6c31546f6b656e2062616c616e636520697320696e73756666696369656e7400604482015260640161011e565b604051636eb1769f60e11b815233600482015230602482015283906001600160a01b0388169063dd62ed3e90604401602060405180830381865afa1580156104e1573d6000803e3d6000fd5b505050506040513d601f19601f82011682018060405250810190610505919061177f565b101561055d5760405162461bcd60e51b815260206004820152602160248201527f6c31546f6b656e20616c6c6f77616e636520697320696e73756666696369656e6044820152601d60fa1b606482015260840161011e565b604051636eb1769f60e11b81523060048201526001600160a01b0382811660248301526000919088169063dd62ed3e90604401602060405180830381865afa1580156105ad573d6000803e3d6000fd5b505050506040513d601f19601f820116820180604052508101906105d1919061177f565b9050838110156106515760405163095ea7b360e01b81526001600160a01b038381166004830152600019602483015288169063095ea7b3906044016020604051808303816000875af115801561062b573d6000803e3d6000fd5b505050506040513d601f19601f8201168201806040525081019061064f9190611798565b505b6106666001600160a01b03881633308761105f565b816001600160a01b031663838b252088888888888d8d8d8d6040516020016106b694939291906001600160a01b039485168152928416602084015292166040820152606081019190915260800190565b6040516020818303038152906040526040518763ffffffff1660e01b81526004016106e69695949392919061180a565b600060405180830381600087803b15801561070057600080fd5b505af1158015610714573d6000803e3d6000fd5b505050505050505050505050565b604051639da3176160e01b81526001600160a01b038516600482015260009073__$b2d160aea0e65d5e83164dd2e3c22b89ec$__90639da3176190602401602060405180830381865af415801561077d573d6000803e3d6000fd5b505050506040513d601f19601f820116820180604052508101906107a1919061175b565b90506001600160a01b0381166107f95760405162461bcd60e51b815260206004820152601760248201527f6c31427269646765206973205a65726f41646472657373000000000000000000604482015260640161011e565b815160000361084a5760405162461bcd60e51b815260206004820152600e60248201527f7a65726f206465706f736974546f000000000000000000000000000000000000604482015260640161011e565b81516000805b8281101561096f5760006001600160a01b031685828151811061087557610875611716565b6020026020010151600001516001600160a01b0316141580156108b657508481815181106108a5576108a5611716565b602002602001015160200151600014155b80156108e657508481815181106108cf576108cf611716565b60200260200101516040015163ffffffff16600014155b6109325760405162461bcd60e51b815260206004820152601260248201527f696e76616c6964206465706f736974546f730000000000000000000000000000604482015260640161011e565b84818151811061094457610944611716565b6020026020010151602001518261095b919061185c565b91508061096781611742565b915050610850565b506040516370a0823160e01b815233600482015281906001600160a01b038816906370a0823190602401602060405180830381865afa1580156109b6573d6000803e3d6000fd5b505050506040513d601f19601f820116820180604052508101906109da919061177f565b1015610a285760405162461bcd60e51b815260206004820152601f60248201527f6c31546f6b656e2062616c616e636520697320696e73756666696369656e7400604482015260640161011e565b604051636eb1769f60e11b815233600482015230602482015281906001600160a01b0388169063dd62ed3e90604401602060405180830381865afa158015610a74573d6000803e3d6000fd5b505050506040513d601f19601f82011682018060405250810190610a98919061177f565b1015610af05760405162461bcd60e51b815260206004820152602160248201527f6c31546f6b656e20616c6c6f77616e636520697320696e73756666696369656e6044820152601d60fa1b606482015260840161011e565b604051636eb1769f60e11b81523060048201526001600160a01b0384811660248301526000919088169063dd62ed3e90604401602060405180830381865afa158015610b40573d6000803e3d6000fd5b505050506040513d601f19601f82011682018060405250810190610b64919061177f565b905081811015610be45760405163095ea7b360e01b81526001600160a01b038581166004830152600019602483015288169063095ea7b3906044016020604051808303816000875af1158015610bbe573d6000803e3d6000fd5b505050506040513d601f19601f82011682018060405250810190610be29190611798565b505b610bf96001600160a01b03881633308561105f565b60005b83811015610d5a57846001600160a01b031663838b25208989898581518110610c2757610c27611716565b6020026020010151600001518a8681518110610c4557610c45611716565b6020026020010151602001518b8781518110610c6357610c63611716565b6020026020010151604001518e8e8e8a81518110610c8357610c83611716565b6020026020010151600001518f8b81518110610ca157610ca1611716565b602002602001015160200151604051602001610ce594939291906001600160a01b039485168152928416602084015292166040820152606081019190915260800190565b6040516020818303038152906040526040518763ffffffff1660e01b8152600401610d159695949392919061180a565b600060405180830381600087803b158015610d2f57600080fd5b505af1158015610d43573d6000803e3d6000fd5b505050508080610d5290611742565b915050610bfc565b505050505050505050565b60405163507c8bd160e01b81526001600160a01b038316600482015260009073__$b2d160aea0e65d5e83164dd2e3c22b89ec$__9063507c8bd190602401602060405180830381865af4158015610dc0573d6000803e3d6000fd5b505050506040513d601f19601f82011682018060405250810190610de4919061175b565b90506001600160a01b038116610e3c5760405162461bcd60e51b815260206004820152601a60248201527f6c314d657373656e676572206973205a65726f41646472657373000000000000604482015260640161011e565b8151600003610e8d5760405162461bcd60e51b815260206004820152601160248201527f7a65726f2063616c6c206d657373616765000000000000000000000000000000604482015260640161011e565b815160005b81811015610f875760006001600160a01b0316848281518110610eb757610eb7611716565b6020026020010151600001516001600160a01b031614158015610ef95750838181518110610ee757610ee7611716565b60200260200101516020015151600014155b8015610f295750838181518110610f1257610f12611716565b60200260200101516040015163ffffffff16600014155b610f755760405162461bcd60e51b815260206004820152600f60248201527f696e76616c6964206d6573736167650000000000000000000000000000000000604482015260640161011e565b80610f7f81611742565b915050610e92565b5060005b818110156102ff57826001600160a01b0316633dbb202b858381518110610fb457610fb4611716565b602002602001015160000151868481518110610fd257610fd2611716565b602002602001015160200151878581518110610ff057610ff0611716565b6020026020010151604001516040518463ffffffff1660e01b815260040161101a93929190611875565b600060405180830381600087803b15801561103457600080fd5b505af1158015611048573d6000803e3d6000fd5b50505050808061105790611742565b915050610f8b565b604080516001600160a01b0385811660248301528481166044830152606480830185905283518084039091018152608490920183526020820180517bffffffffffffffffffffffffffffffffffffffffffffffffffffffff166323b872dd60e01b17905291516000928392908816916110d891906118ad565b6000604051808303816000865af19150503d8060008114611115576040519150601f19603f3d011682016040523d82523d6000602084013e61111a565b606091505b50915091508180156111445750805115806111445750808060200190518101906111449190611798565b6111905760405162461bcd60e51b815260206004820152601460248201527f5452414e534645525f46524f4d5f4641494c4544000000000000000000000000604482015260640161011e565b505050505050565b6001600160a01b03811681146111ad57600080fd5b50565b634e487b7160e01b600052604160045260246000fd5b6040516060810167ffffffffffffffff811182821017156111e9576111e96111b0565b60405290565b604051601f8201601f1916810167ffffffffffffffff81118282101715611218576112186111b0565b604052919050565b600067ffffffffffffffff82111561123a5761123a6111b0565b5060051b60200190565b803563ffffffff8116811461125857600080fd5b919050565b600082601f83011261126e57600080fd5b8135602061128361127e83611220565b6111ef565b828152606092830285018201928282019190878511156112a257600080fd5b8387015b858110156112f95781818a0312156112be5760008081fd5b6112c66111c6565b81356112d181611198565b8152818601358682015260406112e8818401611244565b9082015284529284019281016112a6565b5090979650505050505050565b600082601f83011261131757600080fd5b8135602061132761127e83611220565b82815260059290921b8401810191818101908684111561134657600080fd5b8286015b848110156113e457803567ffffffffffffffff8082111561136b5760008081fd5b908801906060828b03601f19018113156113855760008081fd5b61138d6111c6565b8784013561139a81611198565b81526040848101356113ab81611198565b828a01529184013591838311156113c25760008081fd5b6113d08d8a8588010161125d565b90820152865250505091830191830161134a565b509695505050505050565b600082601f83011261140057600080fd5b8135602061141061127e83611220565b82815260059290921b8401810191818101908684111561142f57600080fd5b8286015b848110156113e457803567ffffffffffffffff808211156114545760008081fd5b908801906060601f19838c03810182131561146f5760008081fd5b6114776111c6565b8885013561148481611198565b81526040858101358581111561149a5760008081fd5b8601603f81018f136114ac5760008081fd5b8a810135868111156114c0576114c06111b0565b6114d08c86601f840116016111ef565b96508087528f838284010111156114e957600094508485fd5b808383018d89013760008c82890101525050848a83015261150b848701611244565b90820152875250505092840192508301611433565b60008060006060848603121561153557600080fd5b833561154081611198565b9250602084013567ffffffffffffffff8082111561155d57600080fd5b61156987838801611306565b9350604086013591508082111561157f57600080fd5b5061158c868287016113ef565b9150509250925092565b600080604083850312156115a957600080fd5b82356115b481611198565b9150602083013567ffffffffffffffff8111156115d057600080fd5b6115dc85828601611306565b9150509250929050565b60008060008060008060c087890312156115ff57600080fd5b863561160a81611198565b9550602087013561161a81611198565b9450604087013561162a81611198565b9350606087013561163a81611198565b92506080870135915061164f60a08801611244565b90509295509295509295565b6000806000806080858703121561167157600080fd5b843561167c81611198565b9350602085013561168c81611198565b9250604085013561169c81611198565b9150606085013567ffffffffffffffff8111156116b857600080fd5b6116c48782880161125d565b91505092959194509250565b600080604083850312156116e357600080fd5b82356116ee81611198565b9150602083013567ffffffffffffffff81111561170a57600080fd5b6115dc858286016113ef565b634e487b7160e01b600052603260045260246000fd5b634e487b7160e01b600052601160045260246000fd5b6000600182016117545761175461172c565b5060010190565b60006020828403121561176d57600080fd5b815161177881611198565b9392505050565b60006020828403121561179157600080fd5b5051919050565b6000602082840312156117aa57600080fd5b8151801515811461177857600080fd5b60005b838110156117d55781810151838201526020016117bd565b50506000910152565b600081518084526117f68160208601602086016117ba565b601f01601f19169290920160200192915050565b60006001600160a01b038089168352808816602084015280871660408401525084606083015263ffffffff8416608083015260c060a083015261185060c08301846117de565b98975050505050505050565b8082018082111561186f5761186f61172c565b92915050565b6001600160a01b038416815260606020820152600061189760608301856117de565b905063ffffffff83166040830152949350505050565b600082516118bf8184602087016117ba565b919091019291505056fea164736f6c6343000812000a",
  "linkReferences": {
    "contracts/libraries/LibProject.sol": {
      "LibProject": [
        {
          "length": 20,
          "start": 839
        },
        {
          "length": 20,
          "start": 1891
        },
        {
          "length": 20,
          "start": 3494
        }
      ]
    }
  },
  "deployedLinkReferences": {
    "contracts/libraries/LibProject.sol": {
      "LibProject": [
        {
          "length": 20,
          "start": 807
        },
        {
          "length": 20,
          "start": 1859
        },
        {
          "length": 20,
          "start": 3462
        }
      ]
    }
  }
}