{
  "_format": "hh-sol-artifact-1",
  "contractName": "L2NonScheduleVault",
  "sourceName": "contracts/L2/vaults/L2NonScheduleVault.sol",
  "abi": [
    {
      "anonymous": false,
      "inputs": [
        {
          "indexed": false,
          "internalType": "address",
          "name": "l2Token",
          "type": "address"
        },
        {
          "indexed": false,
          "internalType": "string",
          "name": "name",
          "type": "string"
        },
        {
          "indexed": false,
          "internalType": "address",
          "name": "to",
          "type": "address"
        },
        {
          "indexed": false,
          "internalType": "uint256",
          "name": "amount",
          "type": "uint256"
        }
      ],
      "name": "ClaimedInVault",
      "type": "event"
    },
    {
      "anonymous": false,
      "inputs": [
        {
          "indexed": false,
          "internalType": "address",
          "name": "l2Token",
          "type": "address"
        },
        {
          "indexed": false,
          "internalType": "string",
          "name": "name",
          "type": "string"
        },
        {
          "indexed": false,
          "internalType": "uint256",
          "name": "totalAllocatedAmount",
          "type": "uint256"
        }
      ],
      "name": "InitializedL2NonScheduleVault",
      "type": "event"
    },
    {
      "anonymous": false,
      "inputs": [
        {
          "indexed": true,
          "internalType": "bytes32",
          "name": "role",
          "type": "bytes32"
        },
        {
          "indexed": true,
          "internalType": "bytes32",
          "name": "previousAdminRole",
          "type": "bytes32"
        },
        {
          "indexed": true,
          "internalType": "bytes32",
          "name": "newAdminRole",
          "type": "bytes32"
        }
      ],
      "name": "RoleAdminChanged",
      "type": "event"
    },
    {
      "anonymous": false,
      "inputs": [
        {
          "indexed": true,
          "internalType": "bytes32",
          "name": "role",
          "type": "bytes32"
        },
        {
          "indexed": true,
          "internalType": "address",
          "name": "account",
          "type": "address"
        },
        {
          "indexed": true,
          "internalType": "address",
          "name": "sender",
          "type": "address"
        }
      ],
      "name": "RoleGranted",
      "type": "event"
    },
    {
      "anonymous": false,
      "inputs": [
        {
          "indexed": true,
          "internalType": "bytes32",
          "name": "role",
          "type": "bytes32"
        },
        {
          "indexed": true,
          "internalType": "address",
          "name": "account",
          "type": "address"
        },
        {
          "indexed": true,
          "internalType": "address",
          "name": "sender",
          "type": "address"
        }
      ],
      "name": "RoleRevoked",
      "type": "event"
    },
    {
      "anonymous": false,
      "inputs": [
        {
          "indexed": false,
          "internalType": "address",
          "name": "l2Token",
          "type": "address"
        },
        {
          "indexed": false,
          "internalType": "address",
          "name": "newAdmin",
          "type": "address"
        }
      ],
      "name": "SetVaultAdmin",
      "type": "event"
    },
    {
      "inputs": [],
      "name": "ADMIN_ROLE",
      "outputs": [
        {
          "internalType": "bytes32",
          "name": "",
          "type": "bytes32"
        }
      ],
      "stateMutability": "view",
      "type": "function"
    },
    {
      "inputs": [],
      "name": "DEFAULT_ADMIN_ROLE",
      "outputs": [
        {
          "internalType": "bytes32",
          "name": "",
          "type": "bytes32"
        }
      ],
      "stateMutability": "view",
      "type": "function"
    },
    {
      "inputs": [],
      "name": "POLICY_ROLE",
      "outputs": [
        {
          "internalType": "bytes32",
          "name": "",
          "type": "bytes32"
        }
      ],
      "stateMutability": "view",
      "type": "function"
    },
    {
      "inputs": [
        {
          "internalType": "address",
          "name": "account",
          "type": "address"
        }
      ],
      "name": "addAdmin",
      "outputs": [],
      "stateMutability": "nonpayable",
      "type": "function"
    },
    {
      "inputs": [
        {
          "internalType": "address",
          "name": "",
          "type": "address"
        }
      ],
      "name": "aliveImplementation",
      "outputs": [
        {
          "internalType": "bool",
          "name": "",
          "type": "bool"
        }
      ],
      "stateMutability": "view",
      "type": "function"
    },
    {
      "inputs": [
        {
          "internalType": "address",
          "name": "l2Token",
          "type": "address"
        },
        {
          "internalType": "string",
          "name": "vaultName",
          "type": "string"
        },
        {
          "internalType": "uint256",
          "name": "amount",
          "type": "uint256"
        }
      ],
      "name": "claim",
      "outputs": [],
      "stateMutability": "nonpayable",
      "type": "function"
    },
    {
      "inputs": [
        {
          "internalType": "bytes32",
          "name": "role",
          "type": "bytes32"
        }
      ],
      "name": "getRoleAdmin",
      "outputs": [
        {
          "internalType": "bytes32",
          "name": "",
          "type": "bytes32"
        }
      ],
      "stateMutability": "view",
      "type": "function"
    },
    {
      "inputs": [
        {
          "internalType": "bytes32",
          "name": "role",
          "type": "bytes32"
        },
        {
          "internalType": "address",
          "name": "account",
          "type": "address"
        }
      ],
      "name": "grantRole",
      "outputs": [],
      "stateMutability": "nonpayable",
      "type": "function"
    },
    {
      "inputs": [
        {
          "internalType": "bytes32",
          "name": "role",
          "type": "bytes32"
        },
        {
          "internalType": "address",
          "name": "account",
          "type": "address"
        }
      ],
      "name": "hasRole",
      "outputs": [
        {
          "internalType": "bool",
          "name": "",
          "type": "bool"
        }
      ],
      "stateMutability": "view",
      "type": "function"
    },
    {
      "inputs": [
        {
          "internalType": "address",
          "name": "l2Token",
          "type": "address"
        },
        {
          "internalType": "string",
          "name": "vaultName",
          "type": "string"
        },
        {
          "internalType": "uint256",
          "name": "_totalAllocatedAmount",
          "type": "uint256"
        }
      ],
      "name": "initialize",
      "outputs": [],
      "stateMutability": "nonpayable",
      "type": "function"
    },
    {
      "inputs": [
        {
          "internalType": "address",
          "name": "account",
          "type": "address"
        }
      ],
      "name": "isAdmin",
      "outputs": [
        {
          "internalType": "bool",
          "name": "",
          "type": "bool"
        }
      ],
      "stateMutability": "view",
      "type": "function"
    },
    {
      "inputs": [
        {
          "internalType": "address",
          "name": "l2Token",
          "type": "address"
        },
        {
          "internalType": "address",
          "name": "account",
          "type": "address"
        }
      ],
      "name": "isVaultAdmin",
      "outputs": [
        {
          "internalType": "bool",
          "name": "",
          "type": "bool"
        }
      ],
      "stateMutability": "view",
      "type": "function"
    },
    {
      "inputs": [],
      "name": "l2ProjectManager",
      "outputs": [
        {
          "internalType": "address",
          "name": "",
          "type": "address"
        }
      ],
      "stateMutability": "view",
      "type": "function"
    },
    {
      "inputs": [],
      "name": "pauseProxy",
      "outputs": [
        {
          "internalType": "bool",
          "name": "",
          "type": "bool"
        }
      ],
      "stateMutability": "view",
      "type": "function"
    },
    {
      "inputs": [
        {
          "internalType": "uint256",
          "name": "",
          "type": "uint256"
        }
      ],
      "name": "proxyImplementation",
      "outputs": [
        {
          "internalType": "address",
          "name": "",
          "type": "address"
        }
      ],
      "stateMutability": "view",
      "type": "function"
    },
    {
      "inputs": [
        {
          "internalType": "address",
          "name": "account",
          "type": "address"
        }
      ],
      "name": "removeAdmin",
      "outputs": [],
      "stateMutability": "nonpayable",
      "type": "function"
    },
    {
      "inputs": [
        {
          "internalType": "bytes32",
          "name": "role",
          "type": "bytes32"
        },
        {
          "internalType": "address",
          "name": "account",
          "type": "address"
        }
      ],
      "name": "renounceRole",
      "outputs": [],
      "stateMutability": "nonpayable",
      "type": "function"
    },
    {
      "inputs": [
        {
          "internalType": "bytes32",
          "name": "role",
          "type": "bytes32"
        },
        {
          "internalType": "address",
          "name": "account",
          "type": "address"
        }
      ],
      "name": "revokeRole",
      "outputs": [],
      "stateMutability": "nonpayable",
      "type": "function"
    },
    {
      "inputs": [
        {
          "internalType": "bytes4",
          "name": "",
          "type": "bytes4"
        }
      ],
      "name": "selectorImplementation",
      "outputs": [
        {
          "internalType": "address",
          "name": "",
          "type": "address"
        }
      ],
      "stateMutability": "view",
      "type": "function"
    },
    {
      "inputs": [
        {
          "internalType": "address",
          "name": "_l2ProjectManager",
          "type": "address"
        }
      ],
      "name": "setL2ProjectManager",
      "outputs": [],
      "stateMutability": "nonpayable",
      "type": "function"
    },
    {
      "inputs": [
        {
          "internalType": "address",
          "name": "l2Token",
          "type": "address"
        },
        {
          "internalType": "address",
          "name": "_newAdmin",
          "type": "address"
        }
      ],
      "name": "setVaultAdmin",
      "outputs": [],
      "stateMutability": "nonpayable",
      "type": "function"
    },
    {
      "inputs": [
        {
          "internalType": "bytes4",
          "name": "interfaceId",
          "type": "bytes4"
        }
      ],
      "name": "supportsInterface",
      "outputs": [
        {
          "internalType": "bool",
          "name": "",
          "type": "bool"
        }
      ],
      "stateMutability": "view",
      "type": "function"
    },
    {
      "inputs": [
        {
          "internalType": "address",
          "name": "newAdmin",
          "type": "address"
        }
      ],
      "name": "transferAdmin",
      "outputs": [],
      "stateMutability": "nonpayable",
      "type": "function"
    },
    {
      "inputs": [
        {
          "internalType": "address",
          "name": "l2Token",
          "type": "address"
        },
        {
          "internalType": "address",
          "name": "_newAdmin",
          "type": "address"
        }
      ],
      "name": "transferVaultAdmin",
      "outputs": [],
      "stateMutability": "nonpayable",
      "type": "function"
    },
    {
      "inputs": [
        {
          "internalType": "address",
          "name": "",
          "type": "address"
        }
      ],
      "name": "vaultAdminOfToken",
      "outputs": [
        {
          "internalType": "address",
          "name": "",
          "type": "address"
        }
      ],
      "stateMutability": "view",
      "type": "function"
    },
    {
      "inputs": [
        {
          "internalType": "address",
          "name": "",
          "type": "address"
        },
        {
          "internalType": "bytes32",
          "name": "",
          "type": "bytes32"
        }
      ],
      "name": "vaultInfo",
      "outputs": [
        {
          "internalType": "uint256",
          "name": "totalAllocatedAmount",
          "type": "uint256"
        },
        {
          "internalType": "uint256",
          "name": "totalClaimedAmount",
          "type": "uint256"
        }
      ],
      "stateMutability": "view",
      "type": "function"
    },
    {
      "inputs": [
        {
          "internalType": "address",
          "name": "l2Token",
          "type": "address"
        },
        {
          "internalType": "string",
          "name": "vaultName",
          "type": "string"
        }
      ],
      "name": "viewVaultInfo",
      "outputs": [
        {
          "components": [
            {
              "internalType": "uint256",
              "name": "totalAllocatedAmount",
              "type": "uint256"
            },
            {
              "internalType": "uint256",
              "name": "totalClaimedAmount",
              "type": "uint256"
            }
          ],
          "internalType": "struct LibNonScheduleVault.VaultInfo",
          "name": "",
          "type": "tuple"
        }
      ],
      "stateMutability": "view",
      "type": "function"
    }
  ],
  "bytecode": "0x60806040526005805460ff1916600117905534801561001d57600080fd5b50611d0b8061002d6000396000f3fe608060405234801561001057600080fd5b50600436106101b95760003560e01c8063550d01a3116100f957806391d1485411610097578063b40d735011610071578063b40d7350146104a8578063b911135f146104ef578063d547741f14610518578063d8f1ef241461052b57600080fd5b806391d1485414610454578063a217fddf1461048d578063a41823431461049557600080fd5b806375829def116100d357806375829def146103de57806375b238fc146103f15780637fc46ba8146104185780638dac9bbc1461044157600080fd5b8063550d01a31461039b57806363a8fd89146103be57806370480275146103cb57600080fd5b806324d7806c1161016657806336568abe1161014057806336568abe1461031c57806350d2a2761461032f57806351e8152a1461037057806352351e851461038357600080fd5b806324d7806c146102e35780632f2ff15d146102f657806335b9ac661461030957600080fd5b80631e8948c3116101975780631e8948c314610278578063229852461461028b578063248a9ca3146102c057600080fd5b806301ffc9a7146101be5780630eb76bd3146101e65780631785f53c14610263575b600080fd5b6101d16101cc36600461189a565b61053e565b60405190151581526020015b60405180910390f35b6102486101f4366004611983565b604080518082018252600080825260209182018190526001600160a01b0394909416845260078152818420835193820193909320845291825291829020825180840190935280548352600101549082015290565b604080518251815260209283015192810192909252016101dd565b6102766102713660046119d1565b610575565b005b6102766102863660046119ec565b610607565b6102b27ffb5864e8ff833c3cb2d2d08505e82ff02a43554c74a35d4f5a64e8526127831181565b6040519081526020016101dd565b6102b26102ce366004611a1f565b60009081526004602052604090206001015490565b6101d16102f13660046119d1565b6107ed565b610276610304366004611a38565b61082d565b6102766103173660046119ec565b610857565b61027661032a366004611a38565b610a18565b61035861033d36600461189a565b6003602052600090815260409020546001600160a01b031681565b6040516001600160a01b0390911681526020016101dd565b6101d161037e3660046119ec565b610aa4565b6005546103589061010090046001600160a01b031681565b6101d16103a93660046119d1565b60026020526000908152604090205460ff1681565b6000546101d19060ff1681565b6102766103d93660046119d1565b610ae1565b6102766103ec3660046119d1565b610b6b565b6102b27fdf8b4c520ffe197c5343c6f5aec59570151ef9a492f2c624fd45ddde6135ec4281565b6103586104263660046119d1565b6006602052600090815260409020546001600160a01b031681565b61027661044f366004611a5b565b610ccd565b6101d1610462366004611a38565b60009182526004602090815260408084206001600160a01b0393909316845291905290205460ff1690565b6102b2600081565b6102766104a33660046119d1565b610efe565b6104da6104b6366004611ab2565b60076020908152600092835260408084209091529082529020805460019091015482565b604080519283526020830191909152016101dd565b6103586104fd366004611a1f565b6001602052600090815260409020546001600160a01b031681565b610276610526366004611a38565b61101b565b610276610539366004611a5b565b611040565b60006001600160e01b03198216637965db0b60e01b148061056f57506301ffc9a760e01b6001600160e01b03198316145b92915050565b61057e336107ed565b6105da5760405162461bcd60e51b815260206004820152602260248201527f41636365737369626c653a2043616c6c6572206973206e6f7420616e2061646d60448201526134b760f11b60648201526084015b60405180910390fd5b6106047fdf8b4c520ffe197c5343c6f5aec59570151ef9a492f2c624fd45ddde6135ec4282610a18565b50565b816001600160a01b0381166106435760405162461bcd60e51b81526020600482015260026024820152612d1960f11b60448201526064016105d1565b816001600160a01b03811661067f5760405162461bcd60e51b81526020600482015260026024820152612d1960f11b60448201526064016105d1565b6001600160a01b03808516600090815260066020526040902054859116158015906106c357506001600160a01b038181166000908152600660205260409020541633145b61071d5760405162461bcd60e51b815260206004820152602560248201527f63616c6c6572206973206e6f742061207661756c7441646d696e204f66206c326044820152642a37b5b2b760d91b60648201526084016105d1565b6001600160a01b038581166000908152600660205260409020548186169116036107725760405162461bcd60e51b81526004016105d19060208082526004908201526373616d6560e01b604082015260600190565b6001600160a01b03858116600081815260066020908152604091829020805473ffffffffffffffffffffffffffffffffffffffff1916948916948517905581519283528201929092527fb00bb4c229aff6156cc8e2c767c571665e1927c09fe083ec055956a5a4026193910160405180910390a15050505050565b6001600160a01b03811660009081527f2fb794d17134dfdec181ddbac1babb5ab1eb140204ef4d982f294e7fc8b69022602052604081205460ff1661056f565b600082815260046020526040902060010154610848816112fc565b6108528383611306565b505050565b816001600160a01b0381166108935760405162461bcd60e51b81526020600482015260026024820152612d1960f11b60448201526064016105d1565b816001600160a01b0381166108cf5760405162461bcd60e51b81526020600482015260026024820152612d1960f11b60448201526064016105d1565b60055461010090046001600160a01b0316158015906108fd575060055461010090046001600160a01b031633145b6109495760405162461bcd60e51b815260206004820152601e60248201527f63616c6c6572206973206e6f74206c3250726f6a6563744d616e61676572000060448201526064016105d1565b6001600160a01b0384811660009081526006602052604090205481851691160361099e5760405162461bcd60e51b81526004016105d19060208082526004908201526373616d6560e01b604082015260600190565b6001600160a01b03848116600081815260066020908152604091829020805473ffffffffffffffffffffffffffffffffffffffff1916948816948517905581519283528201929092527fb00bb4c229aff6156cc8e2c767c571665e1927c09fe083ec055956a5a4026193910160405180910390a150505050565b6001600160a01b0381163314610a965760405162461bcd60e51b815260206004820152602f60248201527f416363657373436f6e74726f6c3a2063616e206f6e6c792072656e6f756e636560448201527f20726f6c657320666f722073656c66000000000000000000000000000000000060648201526084016105d1565b610aa082826113a8565b5050565b60006001600160a01b03821615801590610ada57506001600160a01b038381166000908152600660205260409020548116908316145b9392505050565b610aea336107ed565b610b415760405162461bcd60e51b815260206004820152602260248201527f41636365737369626c653a2043616c6c6572206973206e6f7420616e2061646d60448201526134b760f11b60648201526084016105d1565b6106047fdf8b4c520ffe197c5343c6f5aec59570151ef9a492f2c624fd45ddde6135ec428261082d565b610b74336107ed565b610bcb5760405162461bcd60e51b815260206004820152602260248201527f41636365737369626c653a2043616c6c6572206973206e6f7420616e2061646d60448201526134b760f11b60648201526084016105d1565b6001600160a01b038116610c215760405162461bcd60e51b815260206004820152601860248201527f41636365737369626c653a207a65726f2061646472657373000000000000000060448201526064016105d1565b6001600160a01b0381163303610c795760405162461bcd60e51b815260206004820152601660248201527f41636365737369626c653a2073616d652061646d696e0000000000000000000060448201526064016105d1565b610ca37fdf8b4c520ffe197c5343c6f5aec59570151ef9a492f2c624fd45ddde6135ec428261082d565b6106047fdf8b4c520ffe197c5343c6f5aec59570151ef9a492f2c624fd45ddde6135ec4233610a18565b600554839061010090046001600160a01b0316331480610d2a57506001600160a01b038181166000908152600660205260409020541615801590610d2a57506001600160a01b038181166000908152600660205260409020541633145b610d9c5760405162461bcd60e51b815260206004820152602c60248201527f63616c6c6572206973206e6f742061207661756c7441646d696e206f7220507260448201527f6f6a6563744d616e61676572000000000000000000000000000000000000000060648201526084016105d1565b825160208401206000839003610df45760405162461bcd60e51b815260206004820152601960248201527f7a65726f20746f74616c416c6c6f6361746564416d6f756e740000000000000060448201526064016105d1565b6001600160a01b0385166000908152600760209081526040808320848452825291829020825180840190935280548084526001909101549183019190915215610e7f5760405162461bcd60e51b815260206004820152601360248201527f616c726561647920696e697469616c697a65640000000000000000000000000060448201526064016105d1565b6001600160a01b0380871660008181526007602090815260408083208784529091529020869055600554610ebb9261010090910416308761142b565b7fb67cb8840ee13b4897ba8cece8a0bee0c05b3ccdd509a2a58a55bdee6f59be78868686604051610eee93929190611b2c565b60405180910390a1505050505050565b806001600160a01b038116610f3a5760405162461bcd60e51b81526020600482015260026024820152612d1960f11b60448201526064016105d1565b610f43336107ed565b610f9a5760405162461bcd60e51b815260206004820152602260248201527f41636365737369626c653a2043616c6c6572206973206e6f7420616e2061646d60448201526134b760f11b60648201526084016105d1565b6005546001600160a01b038084166101009092041603610fe55760405162461bcd60e51b81526004016105d19060208082526004908201526373616d6560e01b604082015260600190565b50600580546001600160a01b039092166101000274ffffffffffffffffffffffffffffffffffffffff0019909216919091179055565b600082815260046020526040902060010154611036816112fc565b61085283836113a8565b6001600160a01b038084166000908152600660205260409020548491161580159061108457506001600160a01b038181166000908152600660205260409020541633145b6110de5760405162461bcd60e51b815260206004820152602560248201527f63616c6c6572206973206e6f742061207661756c7441646d696e204f66206c326044820152642a37b5b2b760d91b60648201526084016105d1565b836001600160a01b03811661111a5760405162461bcd60e51b81526020600482015260026024820152612d1960f11b60448201526064016105d1565b82806000036111505760405162461bcd60e51b81526020600482015260026024820152615a3160f01b60448201526064016105d1565b84516020808701919091206001600160a01b038816600090815260078352604080822083835284529081902081518083019092528054808352600190910154938201849052919290916111a39190611b74565b861115801561121957506040516370a0823160e01b81523060048201526001600160a01b038916906370a0823190602401602060405180830381865afa1580156111f1573d6000803e3d6000fd5b505050506040513d601f19601f820116820180604052508101906112159190611b87565b8611155b6112655760405162461bcd60e51b815260206004820152601460248201527f696e73756666696369656e742062616c616e636500000000000000000000000060448201526064016105d1565b6001600160a01b03881660009081526007602090815260408083208584529091528120600101805488929061129b908490611ba0565b909155506112b590506001600160a01b038916338861154f565b7fca22eeecfd9befea639efcc7bc0f6d548698260714f080f97a29487ca7362de8888833896040516112ea9493929190611bb3565b60405180910390a15050505050505050565b610604813361166a565b60008281526004602090815260408083206001600160a01b038516845290915290205460ff16610aa05760008281526004602090815260408083206001600160a01b03851684529091529020805460ff191660011790556113643390565b6001600160a01b0316816001600160a01b0316837f2f8788117e7eff1d82e926ec794901d17c78024a50270940304540a733656f0d60405160405180910390a45050565b60008281526004602090815260408083206001600160a01b038516845290915290205460ff1615610aa05760008281526004602090815260408083206001600160a01b0385168085529252808320805460ff1916905551339285917ff6391f5c32d9c69d2a47ea670b442974b53935d1edc7fd64eb21e047a839171b9190a45050565b604080516001600160a01b0385811660248301528481166044830152606480830185905283518084039091018152608490920183526020820180516001600160e01b03166323b872dd60e01b179052915160009283929088169161148f9190611be8565b6000604051808303816000865af19150503d80600081146114cc576040519150601f19603f3d011682016040523d82523d6000602084013e6114d1565b606091505b50915091508180156114fb5750805115806114fb5750808060200190518101906114fb9190611c04565b6115475760405162461bcd60e51b815260206004820152601460248201527f5452414e534645525f46524f4d5f4641494c454400000000000000000000000060448201526064016105d1565b505050505050565b604080516001600160a01b038481166024830152604480830185905283518084039091018152606490920183526020820180516001600160e01b031663a9059cbb60e01b17905291516000928392908716916115ab9190611be8565b6000604051808303816000865af19150503d80600081146115e8576040519150601f19603f3d011682016040523d82523d6000602084013e6115ed565b606091505b50915091508180156116175750805115806116175750808060200190518101906116179190611c04565b6116635760405162461bcd60e51b815260206004820152600f60248201527f5452414e534645525f4641494c4544000000000000000000000000000000000060448201526064016105d1565b5050505050565b60008281526004602090815260408083206001600160a01b038516845290915290205460ff16610aa05761169d816116df565b6116a88360206116f1565b6040516020016116b9929190611c26565b60408051601f198184030181529082905262461bcd60e51b82526105d191600401611ca7565b606061056f6001600160a01b03831660145b60606000611700836002611cba565b61170b906002611ba0565b67ffffffffffffffff811115611723576117236118e0565b6040519080825280601f01601f19166020018201604052801561174d576020820181803683370190505b509050600360fc1b8160008151811061176857611768611cd1565b60200101906001600160f81b031916908160001a905350600f60fb1b8160018151811061179757611797611cd1565b60200101906001600160f81b031916908160001a90535060006117bb846002611cba565b6117c6906001611ba0565b90505b600181111561184b577f303132333435363738396162636465660000000000000000000000000000000085600f166010811061180757611807611cd1565b1a60f81b82828151811061181d5761181d611cd1565b60200101906001600160f81b031916908160001a90535060049490941c9361184481611ce7565b90506117c9565b508315610ada5760405162461bcd60e51b815260206004820181905260248201527f537472696e67733a20686578206c656e67746820696e73756666696369656e7460448201526064016105d1565b6000602082840312156118ac57600080fd5b81356001600160e01b031981168114610ada57600080fd5b80356001600160a01b03811681146118db57600080fd5b919050565b634e487b7160e01b600052604160045260246000fd5b600082601f83011261190757600080fd5b813567ffffffffffffffff80821115611922576119226118e0565b604051601f8301601f19908116603f0116810190828211818310171561194a5761194a6118e0565b8160405283815286602085880101111561196357600080fd5b836020870160208301376000602085830101528094505050505092915050565b6000806040838503121561199657600080fd5b61199f836118c4565b9150602083013567ffffffffffffffff8111156119bb57600080fd5b6119c7858286016118f6565b9150509250929050565b6000602082840312156119e357600080fd5b610ada826118c4565b600080604083850312156119ff57600080fd5b611a08836118c4565b9150611a16602084016118c4565b90509250929050565b600060208284031215611a3157600080fd5b5035919050565b60008060408385031215611a4b57600080fd5b82359150611a16602084016118c4565b600080600060608486031215611a7057600080fd5b611a79846118c4565b9250602084013567ffffffffffffffff811115611a9557600080fd5b611aa1868287016118f6565b925050604084013590509250925092565b60008060408385031215611ac557600080fd5b611ace836118c4565b946020939093013593505050565b60005b83811015611af7578181015183820152602001611adf565b50506000910152565b60008151808452611b18816020860160208601611adc565b601f01601f19169290920160200192915050565b6001600160a01b0384168152606060208201526000611b4e6060830185611b00565b9050826040830152949350505050565b634e487b7160e01b600052601160045260246000fd5b8181038181111561056f5761056f611b5e565b600060208284031215611b9957600080fd5b5051919050565b8082018082111561056f5761056f611b5e565b60006001600160a01b03808716835260806020840152611bd66080840187611b00565b94166040830152506060015292915050565b60008251611bfa818460208701611adc565b9190910192915050565b600060208284031215611c1657600080fd5b81518015158114610ada57600080fd5b7f416363657373436f6e74726f6c3a206163636f756e7420000000000000000000815260008351611c5e816017850160208801611adc565b7f206973206d697373696e6720726f6c65200000000000000000000000000000006017918401918201528351611c9b816028840160208801611adc565b01602801949350505050565b602081526000610ada6020830184611b00565b808202811582820484141761056f5761056f611b5e565b634e487b7160e01b600052603260045260246000fd5b600081611cf657611cf6611b5e565b50600019019056fea164736f6c6343000812000a",
  "linkReferences": {},
  "deployedLinkReferences": {}
}