{
  "_format": "hh-sol-artifact-1",
  "contractName": "L2NonScheduleVault",
  "sourceName": "contracts/L2/vaults/L2NonScheduleVault.sol",
  "abi": [
    {
      "anonymous": false,
      "inputs": [
        {
          "indexed": false,
          "internalType": "address",
          "name": "l2Token",
          "type": "address"
        },
        {
          "indexed": false,
          "internalType": "string",
          "name": "name",
          "type": "string"
        },
        {
          "indexed": false,
          "internalType": "uint256",
          "name": "totalAllocatedAmount",
          "type": "uint256"
        }
      ],
      "name": "InitializedL2NonScheduleVault",
      "type": "event"
    },
    {
      "anonymous": false,
      "inputs": [
        {
          "indexed": true,
          "internalType": "bytes32",
          "name": "role",
          "type": "bytes32"
        },
        {
          "indexed": true,
          "internalType": "bytes32",
          "name": "previousAdminRole",
          "type": "bytes32"
        },
        {
          "indexed": true,
          "internalType": "bytes32",
          "name": "newAdminRole",
          "type": "bytes32"
        }
      ],
      "name": "RoleAdminChanged",
      "type": "event"
    },
    {
      "anonymous": false,
      "inputs": [
        {
          "indexed": true,
          "internalType": "bytes32",
          "name": "role",
          "type": "bytes32"
        },
        {
          "indexed": true,
          "internalType": "address",
          "name": "account",
          "type": "address"
        },
        {
          "indexed": true,
          "internalType": "address",
          "name": "sender",
          "type": "address"
        }
      ],
      "name": "RoleGranted",
      "type": "event"
    },
    {
      "anonymous": false,
      "inputs": [
        {
          "indexed": true,
          "internalType": "bytes32",
          "name": "role",
          "type": "bytes32"
        },
        {
          "indexed": true,
          "internalType": "address",
          "name": "account",
          "type": "address"
        },
        {
          "indexed": true,
          "internalType": "address",
          "name": "sender",
          "type": "address"
        }
      ],
      "name": "RoleRevoked",
      "type": "event"
    },
    {
      "anonymous": false,
      "inputs": [
        {
          "indexed": false,
          "internalType": "address",
          "name": "newInitializer",
          "type": "address"
        }
      ],
      "name": "SetInitializer",
      "type": "event"
    },
    {
      "anonymous": false,
      "inputs": [
        {
          "indexed": false,
          "internalType": "address",
          "name": "l2Token",
          "type": "address"
        },
        {
          "indexed": false,
          "internalType": "address",
          "name": "newAdmin",
          "type": "address"
        }
      ],
      "name": "SetVaultAdmin",
      "type": "event"
    },
    {
      "inputs": [],
      "name": "ADMIN_ROLE",
      "outputs": [
        {
          "internalType": "bytes32",
          "name": "",
          "type": "bytes32"
        }
      ],
      "stateMutability": "view",
      "type": "function"
    },
    {
      "inputs": [],
      "name": "DEFAULT_ADMIN_ROLE",
      "outputs": [
        {
          "internalType": "bytes32",
          "name": "",
          "type": "bytes32"
        }
      ],
      "stateMutability": "view",
      "type": "function"
    },
    {
      "inputs": [],
      "name": "POLICY_ROLE",
      "outputs": [
        {
          "internalType": "bytes32",
          "name": "",
          "type": "bytes32"
        }
      ],
      "stateMutability": "view",
      "type": "function"
    },
    {
      "inputs": [
        {
          "internalType": "address",
          "name": "account",
          "type": "address"
        }
      ],
      "name": "addAdmin",
      "outputs": [],
      "stateMutability": "nonpayable",
      "type": "function"
    },
    {
      "inputs": [
        {
          "internalType": "address",
          "name": "",
          "type": "address"
        }
      ],
      "name": "aliveImplementation",
      "outputs": [
        {
          "internalType": "bool",
          "name": "",
          "type": "bool"
        }
      ],
      "stateMutability": "view",
      "type": "function"
    },
    {
      "inputs": [
        {
          "internalType": "address",
          "name": "l2Token",
          "type": "address"
        },
        {
          "internalType": "string",
          "name": "vaultName",
          "type": "string"
        },
        {
          "internalType": "uint256",
          "name": "amount",
          "type": "uint256"
        }
      ],
      "name": "claim",
      "outputs": [],
      "stateMutability": "nonpayable",
      "type": "function"
    },
    {
      "inputs": [
        {
          "internalType": "bytes32",
          "name": "role",
          "type": "bytes32"
        }
      ],
      "name": "getRoleAdmin",
      "outputs": [
        {
          "internalType": "bytes32",
          "name": "",
          "type": "bytes32"
        }
      ],
      "stateMutability": "view",
      "type": "function"
    },
    {
      "inputs": [
        {
          "internalType": "bytes32",
          "name": "role",
          "type": "bytes32"
        },
        {
          "internalType": "address",
          "name": "account",
          "type": "address"
        }
      ],
      "name": "grantRole",
      "outputs": [],
      "stateMutability": "nonpayable",
      "type": "function"
    },
    {
      "inputs": [
        {
          "internalType": "bytes32",
          "name": "role",
          "type": "bytes32"
        },
        {
          "internalType": "address",
          "name": "account",
          "type": "address"
        }
      ],
      "name": "hasRole",
      "outputs": [
        {
          "internalType": "bool",
          "name": "",
          "type": "bool"
        }
      ],
      "stateMutability": "view",
      "type": "function"
    },
    {
      "inputs": [
        {
          "internalType": "address",
          "name": "l2Token",
          "type": "address"
        },
        {
          "internalType": "string",
          "name": "vaultName",
          "type": "string"
        },
        {
          "internalType": "uint256",
          "name": "totalAllocatedAmount",
          "type": "uint256"
        }
      ],
      "name": "initialize",
      "outputs": [],
      "stateMutability": "nonpayable",
      "type": "function"
    },
    {
      "inputs": [],
      "name": "initializer",
      "outputs": [
        {
          "internalType": "address",
          "name": "",
          "type": "address"
        }
      ],
      "stateMutability": "view",
      "type": "function"
    },
    {
      "inputs": [
        {
          "internalType": "address",
          "name": "account",
          "type": "address"
        }
      ],
      "name": "isAdmin",
      "outputs": [
        {
          "internalType": "bool",
          "name": "",
          "type": "bool"
        }
      ],
      "stateMutability": "view",
      "type": "function"
    },
    {
      "inputs": [
        {
          "internalType": "address",
          "name": "l2Token",
          "type": "address"
        },
        {
          "internalType": "address",
          "name": "account",
          "type": "address"
        }
      ],
      "name": "isVaultAdmin",
      "outputs": [
        {
          "internalType": "bool",
          "name": "",
          "type": "bool"
        }
      ],
      "stateMutability": "view",
      "type": "function"
    },
    {
      "inputs": [],
      "name": "l2ProjectManager",
      "outputs": [
        {
          "internalType": "address",
          "name": "",
          "type": "address"
        }
      ],
      "stateMutability": "view",
      "type": "function"
    },
    {
      "inputs": [],
      "name": "pauseProxy",
      "outputs": [
        {
          "internalType": "bool",
          "name": "",
          "type": "bool"
        }
      ],
      "stateMutability": "view",
      "type": "function"
    },
    {
      "inputs": [
        {
          "internalType": "uint256",
          "name": "",
          "type": "uint256"
        }
      ],
      "name": "proxyImplementation",
      "outputs": [
        {
          "internalType": "address",
          "name": "",
          "type": "address"
        }
      ],
      "stateMutability": "view",
      "type": "function"
    },
    {
      "inputs": [
        {
          "internalType": "address",
          "name": "account",
          "type": "address"
        }
      ],
      "name": "removeAdmin",
      "outputs": [],
      "stateMutability": "nonpayable",
      "type": "function"
    },
    {
      "inputs": [
        {
          "internalType": "bytes32",
          "name": "role",
          "type": "bytes32"
        },
        {
          "internalType": "address",
          "name": "account",
          "type": "address"
        }
      ],
      "name": "renounceRole",
      "outputs": [],
      "stateMutability": "nonpayable",
      "type": "function"
    },
    {
      "inputs": [
        {
          "internalType": "bytes32",
          "name": "role",
          "type": "bytes32"
        },
        {
          "internalType": "address",
          "name": "account",
          "type": "address"
        }
      ],
      "name": "revokeRole",
      "outputs": [],
      "stateMutability": "nonpayable",
      "type": "function"
    },
    {
      "inputs": [
        {
          "internalType": "bytes4",
          "name": "",
          "type": "bytes4"
        }
      ],
      "name": "selectorImplementation",
      "outputs": [
        {
          "internalType": "address",
          "name": "",
          "type": "address"
        }
      ],
      "stateMutability": "view",
      "type": "function"
    },
    {
      "inputs": [
        {
          "internalType": "address",
          "name": "_initializer",
          "type": "address"
        }
      ],
      "name": "setInitializer",
      "outputs": [],
      "stateMutability": "nonpayable",
      "type": "function"
    },
    {
      "inputs": [
        {
          "internalType": "address",
          "name": "_l2ProjectManager",
          "type": "address"
        }
      ],
      "name": "setL2ProjectManager",
      "outputs": [],
      "stateMutability": "nonpayable",
      "type": "function"
    },
    {
      "inputs": [
        {
          "internalType": "address",
          "name": "l2Token",
          "type": "address"
        },
        {
          "internalType": "address",
          "name": "_newAdmin",
          "type": "address"
        }
      ],
      "name": "setVaultAdmin",
      "outputs": [],
      "stateMutability": "nonpayable",
      "type": "function"
    },
    {
      "inputs": [
        {
          "internalType": "bytes4",
          "name": "interfaceId",
          "type": "bytes4"
        }
      ],
      "name": "supportsInterface",
      "outputs": [
        {
          "internalType": "bool",
          "name": "",
          "type": "bool"
        }
      ],
      "stateMutability": "view",
      "type": "function"
    },
    {
      "inputs": [
        {
          "internalType": "address",
          "name": "newAdmin",
          "type": "address"
        }
      ],
      "name": "transferAdmin",
      "outputs": [],
      "stateMutability": "nonpayable",
      "type": "function"
    },
    {
      "inputs": [
        {
          "internalType": "address",
          "name": "",
          "type": "address"
        }
      ],
      "name": "vaultAdminOfToken",
      "outputs": [
        {
          "internalType": "address",
          "name": "",
          "type": "address"
        }
      ],
      "stateMutability": "view",
      "type": "function"
    },
    {
      "inputs": [
        {
          "internalType": "address",
          "name": "",
          "type": "address"
        },
        {
          "internalType": "bytes32",
          "name": "",
          "type": "bytes32"
        }
      ],
      "name": "vaultInfo",
      "outputs": [
        {
          "internalType": "uint256",
          "name": "totalAllocatedAmount",
          "type": "uint256"
        },
        {
          "internalType": "uint256",
          "name": "totalClaimedAmount",
          "type": "uint256"
        }
      ],
      "stateMutability": "view",
      "type": "function"
    }
  ],
  "bytecode": "0x60806040526005805460ff1916600117905534801561001d57600080fd5b50611b7a8061002d6000396000f3fe608060405234801561001057600080fd5b50600436106101b95760003560e01c806363a8fd89116100f95780639ce110d711610097578063b40d735011610071578063b40d73501461043e578063b911135f14610485578063d547741f146104ae578063d8f1ef24146104c157600080fd5b80639ce110d714610410578063a217fddf14610423578063a41823431461042b57600080fd5b806375b238fc116100d357806375b238fc146103745780637fc46ba81461039b5780638dac9bbc146103c457806391d14854146103d757600080fd5b806363a8fd8914610341578063704802751461034e57806375829def1461036157600080fd5b806335b9ac661161016657806351e8152a1161014057806351e8152a146102e057806352351e85146102f3578063550d01a31461030b5780635c24b0741461032e57600080fd5b806335b9ac661461027957806336568abe1461028c57806350d2a2761461029f57600080fd5b8063248a9ca311610197578063248a9ca31461023057806324d7806c146102535780632f2ff15d1461026657600080fd5b806301ffc9a7146101be5780631785f53c146101e657806322985246146101fb575b600080fd5b6101d16101cc366004611772565b6104d4565b60405190151581526020015b60405180910390f35b6101f96101f43660046117b8565b61050b565b005b6102227ffb5864e8ff833c3cb2d2d08505e82ff02a43554c74a35d4f5a64e8526127831181565b6040519081526020016101dd565b61022261023e3660046117d3565b60009081526004602052604090206001015490565b6101d16102613660046117b8565b61059d565b6101f96102743660046117ec565b6105dd565b6101f9610287366004611818565b610607565b6101f961029a3660046117ec565b61081d565b6102c86102ad366004611772565b6003602052600090815260409020546001600160a01b031681565b6040516001600160a01b0390911681526020016101dd565b6101d16102ee366004611818565b6108a9565b6005546102c89061010090046001600160a01b031681565b6101d16103193660046117b8565b60026020526000908152604090205460ff1681565b6101f961033c3660046117b8565b6108e6565b6000546101d19060ff1681565b6101f961035c3660046117b8565b610a2a565b6101f961036f3660046117b8565b610ab4565b6102227fdf8b4c520ffe197c5343c6f5aec59570151ef9a492f2c624fd45ddde6135ec4281565b6102c86103a93660046117b8565b6007602052600090815260409020546001600160a01b031681565b6101f96103d2366004611858565b610c16565b6101d16103e53660046117ec565b60009182526004602090815260408084206001600160a01b0393909316845291905290205460ff1690565b6006546102c8906001600160a01b031681565b610222600081565b6101f96104393660046117b8565b610dab565b61047061044c366004611923565b60086020908152600092835260408084209091529082529020805460019091015482565b604080519283526020830191909152016101dd565b6102c86104933660046117d3565b6001602052600090815260409020546001600160a01b031681565b6101f96104bc3660046117ec565b610ec8565b6101f96104cf366004611858565b610eed565b60006001600160e01b03198216637965db0b60e01b148061050557506301ffc9a760e01b6001600160e01b03198316145b92915050565b6105143361059d565b6105705760405162461bcd60e51b815260206004820152602260248201527f41636365737369626c653a2043616c6c6572206973206e6f7420616e2061646d60448201526134b760f11b60648201526084015b60405180910390fd5b61059a7fdf8b4c520ffe197c5343c6f5aec59570151ef9a492f2c624fd45ddde6135ec428261081d565b50565b6001600160a01b03811660009081527f2fb794d17134dfdec181ddbac1babb5ab1eb140204ef4d982f294e7fc8b69022602052604081205460ff16610505565b6000828152600460205260409020600101546105f88161116c565b6106028383611176565b505050565b816001600160a01b0381166106435760405162461bcd60e51b81526020600482015260026024820152612d1960f11b6044820152606401610567565b816001600160a01b03811661067f5760405162461bcd60e51b81526020600482015260026024820152612d1960f11b6044820152606401610567565b6106d46040518060400160405280601a81526020017f6f6e6c794c3250726f6a6563744d616e6167657220257320257300000000000081525033600560019054906101000a90046001600160a01b0316611218565b60055461010090046001600160a01b031615801590610702575060055461010090046001600160a01b031633145b61074e5760405162461bcd60e51b815260206004820152601e60248201527f63616c6c6572206973206e6f74206c3250726f6a6563744d616e6167657200006044820152606401610567565b6001600160a01b038481166000908152600760205260409020548185169116036107a35760405162461bcd60e51b81526004016105679060208082526004908201526373616d6560e01b604082015260600190565b6001600160a01b03848116600081815260076020908152604091829020805473ffffffffffffffffffffffffffffffffffffffff1916948816948517905581519283528201929092527fb00bb4c229aff6156cc8e2c767c571665e1927c09fe083ec055956a5a4026193910160405180910390a150505050565b6001600160a01b038116331461089b5760405162461bcd60e51b815260206004820152602f60248201527f416363657373436f6e74726f6c3a2063616e206f6e6c792072656e6f756e636560448201527f20726f6c657320666f722073656c6600000000000000000000000000000000006064820152608401610567565b6108a5828261125f565b5050565b60006001600160a01b038216158015906108df57506001600160a01b038381166000908152600760205260409020548116908316145b9392505050565b806001600160a01b0381166109225760405162461bcd60e51b81526020600482015260026024820152612d1960f11b6044820152606401610567565b61092b3361059d565b6109825760405162461bcd60e51b815260206004820152602260248201527f41636365737369626c653a2043616c6c6572206973206e6f7420616e2061646d60448201526134b760f11b6064820152608401610567565b6006546001600160a01b038084169116036109c85760405162461bcd60e51b81526004016105679060208082526004908201526373616d6560e01b604082015260600190565b6006805473ffffffffffffffffffffffffffffffffffffffff19166001600160a01b0384169081179091556040519081527f2a2bf2572e82958ab47f7049e07d49aab236a5f6d26b804b1ce51da119c6d9d09060200160405180910390a15050565b610a333361059d565b610a8a5760405162461bcd60e51b815260206004820152602260248201527f41636365737369626c653a2043616c6c6572206973206e6f7420616e2061646d60448201526134b760f11b6064820152608401610567565b61059a7fdf8b4c520ffe197c5343c6f5aec59570151ef9a492f2c624fd45ddde6135ec42826105dd565b610abd3361059d565b610b145760405162461bcd60e51b815260206004820152602260248201527f41636365737369626c653a2043616c6c6572206973206e6f7420616e2061646d60448201526134b760f11b6064820152608401610567565b6001600160a01b038116610b6a5760405162461bcd60e51b815260206004820152601860248201527f41636365737369626c653a207a65726f206164647265737300000000000000006044820152606401610567565b6001600160a01b0381163303610bc25760405162461bcd60e51b815260206004820152601660248201527f41636365737369626c653a2073616d652061646d696e000000000000000000006044820152606401610567565b610bec7fdf8b4c520ffe197c5343c6f5aec59570151ef9a492f2c624fd45ddde6135ec42826105dd565b61059a7fdf8b4c520ffe197c5343c6f5aec59570151ef9a492f2c624fd45ddde6135ec423361081d565b6001600160a01b0380841660009081526007602052604090205484911615801590610c6e57506006546001600160a01b0316331480610c6e57506001600160a01b038181166000908152600760205260409020541633145b610cc85760405162461bcd60e51b815260206004820152602560248201527f63616c6c6572206973206e6f742061207661756c7441646d696e204f66206c326044820152642a37b5b2b760d91b6064820152608401610567565b825160208401206000839003610d205760405162461bcd60e51b815260206004820152600b60248201527f77726f6e672076616c75650000000000000000000000000000000000000000006044820152606401610567565b600554610d40906001600160a01b038781169161010090041630866112e2565b6001600160a01b03851660009081526008602090815260408083208484529091529081902084815590517fb67cb8840ee13b4897ba8cece8a0bee0c05b3ccdd509a2a58a55bdee6f59be7890610d9b9088908890889061199d565b60405180910390a1505050505050565b806001600160a01b038116610de75760405162461bcd60e51b81526020600482015260026024820152612d1960f11b6044820152606401610567565b610df03361059d565b610e475760405162461bcd60e51b815260206004820152602260248201527f41636365737369626c653a2043616c6c6572206973206e6f7420616e2061646d60448201526134b760f11b6064820152608401610567565b6005546001600160a01b038084166101009092041603610e925760405162461bcd60e51b81526004016105679060208082526004908201526373616d6560e01b604082015260600190565b50600580546001600160a01b039092166101000274ffffffffffffffffffffffffffffffffffffffff0019909216919091179055565b600082815260046020526040902060010154610ee38161116c565b610602838361125f565b6001600160a01b0380841660009081526007602052604090205484911615801590610f3157506001600160a01b038181166000908152600760205260409020541633145b610f8b5760405162461bcd60e51b815260206004820152602560248201527f63616c6c6572206973206e6f742061207661756c7441646d696e204f66206c326044820152642a37b5b2b760d91b6064820152608401610567565b836001600160a01b038116610fc75760405162461bcd60e51b81526020600482015260026024820152612d1960f11b6044820152606401610567565b8280600003610ffd5760405162461bcd60e51b81526020600482015260026024820152615a3160f01b6044820152606401610567565b84516020808701919091206001600160a01b0388166000908152600883526040808220838352845290819020815180830190925280548083526001909101549382018490529192909161105091906119e5565b86111580156110c657506040516370a0823160e01b81523060048201526001600160a01b038916906370a0823190602401602060405180830381865afa15801561109e573d6000803e3d6000fd5b505050506040513d601f19601f820116820180604052508101906110c291906119f8565b8611155b6111125760405162461bcd60e51b815260206004820152600d60248201527f696e73756666696369656e742e000000000000000000000000000000000000006044820152606401610567565b6001600160a01b038816600090815260086020908152604080832085845290915281206001018054889290611148908490611a11565b9091555061116290506001600160a01b0389163388611406565b5050505050505050565b61059a8133611521565b60008281526004602090815260408083206001600160a01b038516845290915290205460ff166108a55760008281526004602090815260408083206001600160a01b03851684529091529020805460ff191660011790556111d43390565b6001600160a01b0316816001600160a01b0316837f2f8788117e7eff1d82e926ec794901d17c78024a50270940304540a733656f0d60405160405180910390a45050565b61060283838360405160240161123093929190611a24565b60408051601f198184030181529190526020810180516001600160e01b03166307e763af60e51b179052611596565b60008281526004602090815260408083206001600160a01b038516845290915290205460ff16156108a55760008281526004602090815260408083206001600160a01b0385168085529252808320805460ff1916905551339285917ff6391f5c32d9c69d2a47ea670b442974b53935d1edc7fd64eb21e047a839171b9190a45050565b604080516001600160a01b0385811660248301528481166044830152606480830185905283518084039091018152608490920183526020820180516001600160e01b03166323b872dd60e01b17905291516000928392908816916113469190611a57565b6000604051808303816000865af19150503d8060008114611383576040519150601f19603f3d011682016040523d82523d6000602084013e611388565b606091505b50915091508180156113b25750805115806113b25750808060200190518101906113b29190611a73565b6113fe5760405162461bcd60e51b815260206004820152601460248201527f5452414e534645525f46524f4d5f4641494c45440000000000000000000000006044820152606401610567565b505050505050565b604080516001600160a01b038481166024830152604480830185905283518084039091018152606490920183526020820180516001600160e01b031663a9059cbb60e01b17905291516000928392908716916114629190611a57565b6000604051808303816000865af19150503d806000811461149f576040519150601f19603f3d011682016040523d82523d6000602084013e6114a4565b606091505b50915091508180156114ce5750805115806114ce5750808060200190518101906114ce9190611a73565b61151a5760405162461bcd60e51b815260206004820152600f60248201527f5452414e534645525f4641494c454400000000000000000000000000000000006044820152606401610567565b5050505050565b60008281526004602090815260408083206001600160a01b038516845290915290205460ff166108a557611554816115b7565b61155f8360206115c9565b604051602001611570929190611a95565b60408051601f198184030181529082905262461bcd60e51b825261056791600401611b16565b80516a636f6e736f6c652e6c6f67602083016000808483855afa5050505050565b60606105056001600160a01b03831660145b606060006115d8836002611b29565b6115e3906002611a11565b67ffffffffffffffff8111156115fb576115fb611842565b6040519080825280601f01601f191660200182016040528015611625576020820181803683370190505b509050600360fc1b8160008151811061164057611640611b40565b60200101906001600160f81b031916908160001a905350600f60fb1b8160018151811061166f5761166f611b40565b60200101906001600160f81b031916908160001a9053506000611693846002611b29565b61169e906001611a11565b90505b6001811115611723577f303132333435363738396162636465660000000000000000000000000000000085600f16601081106116df576116df611b40565b1a60f81b8282815181106116f5576116f5611b40565b60200101906001600160f81b031916908160001a90535060049490941c9361171c81611b56565b90506116a1565b5083156108df5760405162461bcd60e51b815260206004820181905260248201527f537472696e67733a20686578206c656e67746820696e73756666696369656e746044820152606401610567565b60006020828403121561178457600080fd5b81356001600160e01b0319811681146108df57600080fd5b80356001600160a01b03811681146117b357600080fd5b919050565b6000602082840312156117ca57600080fd5b6108df8261179c565b6000602082840312156117e557600080fd5b5035919050565b600080604083850312156117ff57600080fd5b8235915061180f6020840161179c565b90509250929050565b6000806040838503121561182b57600080fd5b6118348361179c565b915061180f6020840161179c565b634e487b7160e01b600052604160045260246000fd5b60008060006060848603121561186d57600080fd5b6118768461179c565b9250602084013567ffffffffffffffff8082111561189357600080fd5b818601915086601f8301126118a757600080fd5b8135818111156118b9576118b9611842565b604051601f8201601f19908116603f011681019083821181831017156118e1576118e1611842565b816040528281528960208487010111156118fa57600080fd5b826020860160208301376000602084830101528096505050505050604084013590509250925092565b6000806040838503121561193657600080fd5b61193f8361179c565b946020939093013593505050565b60005b83811015611968578181015183820152602001611950565b50506000910152565b6000815180845261198981602086016020860161194d565b601f01601f19169290920160200192915050565b6001600160a01b03841681526060602082015260006119bf6060830185611971565b9050826040830152949350505050565b634e487b7160e01b600052601160045260246000fd5b81810381811115610505576105056119cf565b600060208284031215611a0a57600080fd5b5051919050565b80820180821115610505576105056119cf565b606081526000611a376060830186611971565b6001600160a01b0394851660208401529290931660409091015292915050565b60008251611a6981846020870161194d565b9190910192915050565b600060208284031215611a8557600080fd5b815180151581146108df57600080fd5b7f416363657373436f6e74726f6c3a206163636f756e7420000000000000000000815260008351611acd81601785016020880161194d565b7f206973206d697373696e6720726f6c65200000000000000000000000000000006017918401918201528351611b0a81602884016020880161194d565b01602801949350505050565b6020815260006108df6020830184611971565b8082028115828204841417610505576105056119cf565b634e487b7160e01b600052603260045260246000fd5b600081611b6557611b656119cf565b50600019019056fea164736f6c6343000812000a",
  "linkReferences": {},
  "deployedLinkReferences": {}
}