{
  "_format": "hh-sol-artifact-1",
  "contractName": "L2NonScheduleVault",
  "sourceName": "contracts/L2/vaults/L2NonScheduleVault.sol",
  "abi": [
    {
      "anonymous": false,
      "inputs": [
        {
          "indexed": false,
          "internalType": "address",
          "name": "l2Token",
          "type": "address"
        },
        {
          "indexed": false,
          "internalType": "string",
          "name": "name",
          "type": "string"
        },
        {
          "indexed": false,
          "internalType": "uint256",
          "name": "totalAllocatedAmount",
          "type": "uint256"
        }
      ],
      "name": "InitializedL2NonScheduleVault",
      "type": "event"
    },
    {
      "anonymous": false,
      "inputs": [
        {
          "indexed": true,
          "internalType": "bytes32",
          "name": "role",
          "type": "bytes32"
        },
        {
          "indexed": true,
          "internalType": "bytes32",
          "name": "previousAdminRole",
          "type": "bytes32"
        },
        {
          "indexed": true,
          "internalType": "bytes32",
          "name": "newAdminRole",
          "type": "bytes32"
        }
      ],
      "name": "RoleAdminChanged",
      "type": "event"
    },
    {
      "anonymous": false,
      "inputs": [
        {
          "indexed": true,
          "internalType": "bytes32",
          "name": "role",
          "type": "bytes32"
        },
        {
          "indexed": true,
          "internalType": "address",
          "name": "account",
          "type": "address"
        },
        {
          "indexed": true,
          "internalType": "address",
          "name": "sender",
          "type": "address"
        }
      ],
      "name": "RoleGranted",
      "type": "event"
    },
    {
      "anonymous": false,
      "inputs": [
        {
          "indexed": true,
          "internalType": "bytes32",
          "name": "role",
          "type": "bytes32"
        },
        {
          "indexed": true,
          "internalType": "address",
          "name": "account",
          "type": "address"
        },
        {
          "indexed": true,
          "internalType": "address",
          "name": "sender",
          "type": "address"
        }
      ],
      "name": "RoleRevoked",
      "type": "event"
    },
    {
      "anonymous": false,
      "inputs": [
        {
          "indexed": false,
          "internalType": "address",
          "name": "l2Token",
          "type": "address"
        },
        {
          "indexed": false,
          "internalType": "address",
          "name": "newAdmin",
          "type": "address"
        }
      ],
      "name": "SetVaultAdmin",
      "type": "event"
    },
    {
      "inputs": [],
      "name": "ADMIN_ROLE",
      "outputs": [
        {
          "internalType": "bytes32",
          "name": "",
          "type": "bytes32"
        }
      ],
      "stateMutability": "view",
      "type": "function"
    },
    {
      "inputs": [],
      "name": "DEFAULT_ADMIN_ROLE",
      "outputs": [
        {
          "internalType": "bytes32",
          "name": "",
          "type": "bytes32"
        }
      ],
      "stateMutability": "view",
      "type": "function"
    },
    {
      "inputs": [],
      "name": "POLICY_ROLE",
      "outputs": [
        {
          "internalType": "bytes32",
          "name": "",
          "type": "bytes32"
        }
      ],
      "stateMutability": "view",
      "type": "function"
    },
    {
      "inputs": [
        {
          "internalType": "address",
          "name": "account",
          "type": "address"
        }
      ],
      "name": "addAdmin",
      "outputs": [],
      "stateMutability": "nonpayable",
      "type": "function"
    },
    {
      "inputs": [
        {
          "internalType": "address",
          "name": "",
          "type": "address"
        }
      ],
      "name": "aliveImplementation",
      "outputs": [
        {
          "internalType": "bool",
          "name": "",
          "type": "bool"
        }
      ],
      "stateMutability": "view",
      "type": "function"
    },
    {
      "inputs": [
        {
          "internalType": "address",
          "name": "l2Token",
          "type": "address"
        },
        {
          "internalType": "string",
          "name": "vaultName",
          "type": "string"
        },
        {
          "internalType": "uint256",
          "name": "amount",
          "type": "uint256"
        }
      ],
      "name": "claim",
      "outputs": [],
      "stateMutability": "nonpayable",
      "type": "function"
    },
    {
      "inputs": [
        {
          "internalType": "bytes32",
          "name": "role",
          "type": "bytes32"
        }
      ],
      "name": "getRoleAdmin",
      "outputs": [
        {
          "internalType": "bytes32",
          "name": "",
          "type": "bytes32"
        }
      ],
      "stateMutability": "view",
      "type": "function"
    },
    {
      "inputs": [
        {
          "internalType": "bytes32",
          "name": "role",
          "type": "bytes32"
        },
        {
          "internalType": "address",
          "name": "account",
          "type": "address"
        }
      ],
      "name": "grantRole",
      "outputs": [],
      "stateMutability": "nonpayable",
      "type": "function"
    },
    {
      "inputs": [
        {
          "internalType": "bytes32",
          "name": "role",
          "type": "bytes32"
        },
        {
          "internalType": "address",
          "name": "account",
          "type": "address"
        }
      ],
      "name": "hasRole",
      "outputs": [
        {
          "internalType": "bool",
          "name": "",
          "type": "bool"
        }
      ],
      "stateMutability": "view",
      "type": "function"
    },
    {
      "inputs": [
        {
          "internalType": "address",
          "name": "l2Token",
          "type": "address"
        },
        {
          "internalType": "string",
          "name": "vaultName",
          "type": "string"
        },
        {
          "internalType": "uint256",
          "name": "totalAllocatedAmount",
          "type": "uint256"
        }
      ],
      "name": "initialize",
      "outputs": [],
      "stateMutability": "nonpayable",
      "type": "function"
    },
    {
      "inputs": [
        {
          "internalType": "address",
          "name": "account",
          "type": "address"
        }
      ],
      "name": "isAdmin",
      "outputs": [
        {
          "internalType": "bool",
          "name": "",
          "type": "bool"
        }
      ],
      "stateMutability": "view",
      "type": "function"
    },
    {
      "inputs": [
        {
          "internalType": "address",
          "name": "l2Token",
          "type": "address"
        },
        {
          "internalType": "address",
          "name": "account",
          "type": "address"
        }
      ],
      "name": "isVaultAdmin",
      "outputs": [
        {
          "internalType": "bool",
          "name": "",
          "type": "bool"
        }
      ],
      "stateMutability": "view",
      "type": "function"
    },
    {
      "inputs": [],
      "name": "l2ProjectManager",
      "outputs": [
        {
          "internalType": "address",
          "name": "",
          "type": "address"
        }
      ],
      "stateMutability": "view",
      "type": "function"
    },
    {
      "inputs": [],
      "name": "pauseProxy",
      "outputs": [
        {
          "internalType": "bool",
          "name": "",
          "type": "bool"
        }
      ],
      "stateMutability": "view",
      "type": "function"
    },
    {
      "inputs": [
        {
          "internalType": "uint256",
          "name": "",
          "type": "uint256"
        }
      ],
      "name": "proxyImplementation",
      "outputs": [
        {
          "internalType": "address",
          "name": "",
          "type": "address"
        }
      ],
      "stateMutability": "view",
      "type": "function"
    },
    {
      "inputs": [
        {
          "internalType": "address",
          "name": "account",
          "type": "address"
        }
      ],
      "name": "removeAdmin",
      "outputs": [],
      "stateMutability": "nonpayable",
      "type": "function"
    },
    {
      "inputs": [
        {
          "internalType": "bytes32",
          "name": "role",
          "type": "bytes32"
        },
        {
          "internalType": "address",
          "name": "account",
          "type": "address"
        }
      ],
      "name": "renounceRole",
      "outputs": [],
      "stateMutability": "nonpayable",
      "type": "function"
    },
    {
      "inputs": [
        {
          "internalType": "bytes32",
          "name": "role",
          "type": "bytes32"
        },
        {
          "internalType": "address",
          "name": "account",
          "type": "address"
        }
      ],
      "name": "revokeRole",
      "outputs": [],
      "stateMutability": "nonpayable",
      "type": "function"
    },
    {
      "inputs": [
        {
          "internalType": "bytes4",
          "name": "",
          "type": "bytes4"
        }
      ],
      "name": "selectorImplementation",
      "outputs": [
        {
          "internalType": "address",
          "name": "",
          "type": "address"
        }
      ],
      "stateMutability": "view",
      "type": "function"
    },
    {
      "inputs": [
        {
          "internalType": "address",
          "name": "_l2ProjectManager",
          "type": "address"
        }
      ],
      "name": "setL2ProjectManager",
      "outputs": [],
      "stateMutability": "nonpayable",
      "type": "function"
    },
    {
      "inputs": [
        {
          "internalType": "address",
          "name": "l2Token",
          "type": "address"
        },
        {
          "internalType": "address",
          "name": "_newAdmin",
          "type": "address"
        }
      ],
      "name": "setVaultAdmin",
      "outputs": [],
      "stateMutability": "nonpayable",
      "type": "function"
    },
    {
      "inputs": [
        {
          "internalType": "bytes4",
          "name": "interfaceId",
          "type": "bytes4"
        }
      ],
      "name": "supportsInterface",
      "outputs": [
        {
          "internalType": "bool",
          "name": "",
          "type": "bool"
        }
      ],
      "stateMutability": "view",
      "type": "function"
    },
    {
      "inputs": [
        {
          "internalType": "address",
          "name": "newAdmin",
          "type": "address"
        }
      ],
      "name": "transferAdmin",
      "outputs": [],
      "stateMutability": "nonpayable",
      "type": "function"
    },
    {
      "inputs": [
        {
          "internalType": "address",
          "name": "",
          "type": "address"
        }
      ],
      "name": "vaultAdminOfToken",
      "outputs": [
        {
          "internalType": "address",
          "name": "",
          "type": "address"
        }
      ],
      "stateMutability": "view",
      "type": "function"
    },
    {
      "inputs": [
        {
          "internalType": "address",
          "name": "",
          "type": "address"
        },
        {
          "internalType": "bytes32",
          "name": "",
          "type": "bytes32"
        }
      ],
      "name": "vaultInfo",
      "outputs": [
        {
          "internalType": "uint256",
          "name": "totalAllocatedAmount",
          "type": "uint256"
        },
        {
          "internalType": "uint256",
          "name": "totalClaimedAmount",
          "type": "uint256"
        }
      ],
      "stateMutability": "view",
      "type": "function"
    }
  ],
  "bytecode": "0x60806040526005805460ff1916600117905534801561001d57600080fd5b506119278061002d6000396000f3fe608060405234801561001057600080fd5b50600436106101a35760003560e01c806363a8fd89116100ee57806391d1485411610097578063b40d735011610071578063b40d735014610402578063b911135f14610449578063d547741f14610472578063d8f1ef241461048557600080fd5b806391d14854146103ae578063a217fddf146103e7578063a4182343146103ef57600080fd5b806375b238fc116100c857806375b238fc1461034b5780637fc46ba8146103725780638dac9bbc1461039b57600080fd5b806363a8fd8914610318578063704802751461032557806375829def1461033857600080fd5b806335b9ac661161015057806351e8152a1161012a57806351e8152a146102ca57806352351e85146102dd578063550d01a3146102f557600080fd5b806335b9ac661461026357806336568abe1461027657806350d2a2761461028957600080fd5b8063248a9ca311610181578063248a9ca31461021a57806324d7806c1461023d5780632f2ff15d1461025057600080fd5b806301ffc9a7146101a85780631785f53c146101d057806322985246146101e5575b600080fd5b6101bb6101b6366004611552565b610498565b60405190151581526020015b60405180910390f35b6101e36101de366004611598565b6104cf565b005b61020c7ffb5864e8ff833c3cb2d2d08505e82ff02a43554c74a35d4f5a64e8526127831181565b6040519081526020016101c7565b61020c6102283660046115b3565b60009081526004602052604090206001015490565b6101bb61024b366004611598565b610561565b6101e361025e3660046115cc565b6105a1565b6101e36102713660046115f8565b6105cb565b6101e36102843660046115cc565b61078c565b6102b2610297366004611552565b6003602052600090815260409020546001600160a01b031681565b6040516001600160a01b0390911681526020016101c7565b6101bb6102d83660046115f8565b610818565b6005546102b29061010090046001600160a01b031681565b6101bb610303366004611598565b60026020526000908152604090205460ff1681565b6000546101bb9060ff1681565b6101e3610333366004611598565b610855565b6101e3610346366004611598565b6108df565b61020c7fdf8b4c520ffe197c5343c6f5aec59570151ef9a492f2c624fd45ddde6135ec4281565b6102b2610380366004611598565b6006602052600090815260409020546001600160a01b031681565b6101e36103a9366004611638565b610a41565b6101bb6103bc3660046115cc565b60009182526004602090815260408084206001600160a01b0393909316845291905290205460ff1690565b61020c600081565b6101e36103fd366004611598565b610bf3565b610434610410366004611703565b60076020908152600092835260408084209091529082529020805460019091015482565b604080519283526020830191909152016101c7565b6102b26104573660046115b3565b6001602052600090815260409020546001600160a01b031681565b6101e36104803660046115cc565b610d10565b6101e3610493366004611638565b610d35565b60006001600160e01b03198216637965db0b60e01b14806104c957506301ffc9a760e01b6001600160e01b03198316145b92915050565b6104d833610561565b6105345760405162461bcd60e51b815260206004820152602260248201527f41636365737369626c653a2043616c6c6572206973206e6f7420616e2061646d60448201526134b760f11b60648201526084015b60405180910390fd5b61055e7fdf8b4c520ffe197c5343c6f5aec59570151ef9a492f2c624fd45ddde6135ec428261078c565b50565b6001600160a01b03811660009081527f2fb794d17134dfdec181ddbac1babb5ab1eb140204ef4d982f294e7fc8b69022602052604081205460ff166104c9565b6000828152600460205260409020600101546105bc81610fb4565b6105c68383610fbe565b505050565b816001600160a01b0381166106075760405162461bcd60e51b81526020600482015260026024820152612d1960f11b604482015260640161052b565b816001600160a01b0381166106435760405162461bcd60e51b81526020600482015260026024820152612d1960f11b604482015260640161052b565b60055461010090046001600160a01b031615801590610671575060055461010090046001600160a01b031633145b6106bd5760405162461bcd60e51b815260206004820152601e60248201527f63616c6c6572206973206e6f74206c3250726f6a6563744d616e616765720000604482015260640161052b565b6001600160a01b038481166000908152600660205260409020548185169116036107125760405162461bcd60e51b815260040161052b9060208082526004908201526373616d6560e01b604082015260600190565b6001600160a01b03848116600081815260066020908152604091829020805473ffffffffffffffffffffffffffffffffffffffff1916948816948517905581519283528201929092527fb00bb4c229aff6156cc8e2c767c571665e1927c09fe083ec055956a5a4026193910160405180910390a150505050565b6001600160a01b038116331461080a5760405162461bcd60e51b815260206004820152602f60248201527f416363657373436f6e74726f6c3a2063616e206f6e6c792072656e6f756e636560448201527f20726f6c657320666f722073656c660000000000000000000000000000000000606482015260840161052b565b6108148282611060565b5050565b60006001600160a01b0382161580159061084e57506001600160a01b038381166000908152600660205260409020548116908316145b9392505050565b61085e33610561565b6108b55760405162461bcd60e51b815260206004820152602260248201527f41636365737369626c653a2043616c6c6572206973206e6f7420616e2061646d60448201526134b760f11b606482015260840161052b565b61055e7fdf8b4c520ffe197c5343c6f5aec59570151ef9a492f2c624fd45ddde6135ec42826105a1565b6108e833610561565b61093f5760405162461bcd60e51b815260206004820152602260248201527f41636365737369626c653a2043616c6c6572206973206e6f7420616e2061646d60448201526134b760f11b606482015260840161052b565b6001600160a01b0381166109955760405162461bcd60e51b815260206004820152601860248201527f41636365737369626c653a207a65726f20616464726573730000000000000000604482015260640161052b565b6001600160a01b03811633036109ed5760405162461bcd60e51b815260206004820152601660248201527f41636365737369626c653a2073616d652061646d696e00000000000000000000604482015260640161052b565b610a177fdf8b4c520ffe197c5343c6f5aec59570151ef9a492f2c624fd45ddde6135ec42826105a1565b61055e7fdf8b4c520ffe197c5343c6f5aec59570151ef9a492f2c624fd45ddde6135ec423361078c565b600554839061010090046001600160a01b0316331480610a9e57506001600160a01b038181166000908152600660205260409020541615801590610a9e57506001600160a01b038181166000908152600660205260409020541633145b610b105760405162461bcd60e51b815260206004820152602c60248201527f63616c6c6572206973206e6f742061207661756c7441646d696e206f7220507260448201527f6f6a6563744d616e616765720000000000000000000000000000000000000000606482015260840161052b565b825160208401206000839003610b685760405162461bcd60e51b815260206004820152600b60248201527f77726f6e672076616c7565000000000000000000000000000000000000000000604482015260640161052b565b600554610b88906001600160a01b038781169161010090041630866110e3565b6001600160a01b03851660009081526007602090815260408083208484529091529081902084815590517fb67cb8840ee13b4897ba8cece8a0bee0c05b3ccdd509a2a58a55bdee6f59be7890610be39088908890889061177d565b60405180910390a1505050505050565b806001600160a01b038116610c2f5760405162461bcd60e51b81526020600482015260026024820152612d1960f11b604482015260640161052b565b610c3833610561565b610c8f5760405162461bcd60e51b815260206004820152602260248201527f41636365737369626c653a2043616c6c6572206973206e6f7420616e2061646d60448201526134b760f11b606482015260840161052b565b6005546001600160a01b038084166101009092041603610cda5760405162461bcd60e51b815260040161052b9060208082526004908201526373616d6560e01b604082015260600190565b50600580546001600160a01b039092166101000274ffffffffffffffffffffffffffffffffffffffff0019909216919091179055565b600082815260046020526040902060010154610d2b81610fb4565b6105c68383611060565b6001600160a01b0380841660009081526006602052604090205484911615801590610d7957506001600160a01b038181166000908152600660205260409020541633145b610dd35760405162461bcd60e51b815260206004820152602560248201527f63616c6c6572206973206e6f742061207661756c7441646d696e204f66206c326044820152642a37b5b2b760d91b606482015260840161052b565b836001600160a01b038116610e0f5760405162461bcd60e51b81526020600482015260026024820152612d1960f11b604482015260640161052b565b8280600003610e455760405162461bcd60e51b81526020600482015260026024820152615a3160f01b604482015260640161052b565b84516020808701919091206001600160a01b03881660009081526007835260408082208383528452908190208151808301909252805480835260019091015493820184905291929091610e9891906117c5565b8611158015610f0e57506040516370a0823160e01b81523060048201526001600160a01b038916906370a0823190602401602060405180830381865afa158015610ee6573d6000803e3d6000fd5b505050506040513d601f19601f82011682018060405250810190610f0a91906117d8565b8611155b610f5a5760405162461bcd60e51b815260206004820152600d60248201527f696e73756666696369656e742e00000000000000000000000000000000000000604482015260640161052b565b6001600160a01b038816600090815260076020908152604080832085845290915281206001018054889290610f909084906117f1565b90915550610faa90506001600160a01b0389163388611207565b5050505050505050565b61055e8133611322565b60008281526004602090815260408083206001600160a01b038516845290915290205460ff166108145760008281526004602090815260408083206001600160a01b03851684529091529020805460ff1916600117905561101c3390565b6001600160a01b0316816001600160a01b0316837f2f8788117e7eff1d82e926ec794901d17c78024a50270940304540a733656f0d60405160405180910390a45050565b60008281526004602090815260408083206001600160a01b038516845290915290205460ff16156108145760008281526004602090815260408083206001600160a01b0385168085529252808320805460ff1916905551339285917ff6391f5c32d9c69d2a47ea670b442974b53935d1edc7fd64eb21e047a839171b9190a45050565b604080516001600160a01b0385811660248301528481166044830152606480830185905283518084039091018152608490920183526020820180516001600160e01b03166323b872dd60e01b17905291516000928392908816916111479190611804565b6000604051808303816000865af19150503d8060008114611184576040519150601f19603f3d011682016040523d82523d6000602084013e611189565b606091505b50915091508180156111b35750805115806111b35750808060200190518101906111b39190611820565b6111ff5760405162461bcd60e51b815260206004820152601460248201527f5452414e534645525f46524f4d5f4641494c4544000000000000000000000000604482015260640161052b565b505050505050565b604080516001600160a01b038481166024830152604480830185905283518084039091018152606490920183526020820180516001600160e01b031663a9059cbb60e01b17905291516000928392908716916112639190611804565b6000604051808303816000865af19150503d80600081146112a0576040519150601f19603f3d011682016040523d82523d6000602084013e6112a5565b606091505b50915091508180156112cf5750805115806112cf5750808060200190518101906112cf9190611820565b61131b5760405162461bcd60e51b815260206004820152600f60248201527f5452414e534645525f4641494c45440000000000000000000000000000000000604482015260640161052b565b5050505050565b60008281526004602090815260408083206001600160a01b038516845290915290205460ff166108145761135581611397565b6113608360206113a9565b604051602001611371929190611842565b60408051601f198184030181529082905262461bcd60e51b825261052b916004016118c3565b60606104c96001600160a01b03831660145b606060006113b88360026118d6565b6113c39060026117f1565b67ffffffffffffffff8111156113db576113db611622565b6040519080825280601f01601f191660200182016040528015611405576020820181803683370190505b509050600360fc1b81600081518110611420576114206118ed565b60200101906001600160f81b031916908160001a905350600f60fb1b8160018151811061144f5761144f6118ed565b60200101906001600160f81b031916908160001a90535060006114738460026118d6565b61147e9060016117f1565b90505b6001811115611503577f303132333435363738396162636465660000000000000000000000000000000085600f16601081106114bf576114bf6118ed565b1a60f81b8282815181106114d5576114d56118ed565b60200101906001600160f81b031916908160001a90535060049490941c936114fc81611903565b9050611481565b50831561084e5760405162461bcd60e51b815260206004820181905260248201527f537472696e67733a20686578206c656e67746820696e73756666696369656e74604482015260640161052b565b60006020828403121561156457600080fd5b81356001600160e01b03198116811461084e57600080fd5b80356001600160a01b038116811461159357600080fd5b919050565b6000602082840312156115aa57600080fd5b61084e8261157c565b6000602082840312156115c557600080fd5b5035919050565b600080604083850312156115df57600080fd5b823591506115ef6020840161157c565b90509250929050565b6000806040838503121561160b57600080fd5b6116148361157c565b91506115ef6020840161157c565b634e487b7160e01b600052604160045260246000fd5b60008060006060848603121561164d57600080fd5b6116568461157c565b9250602084013567ffffffffffffffff8082111561167357600080fd5b818601915086601f83011261168757600080fd5b81358181111561169957611699611622565b604051601f8201601f19908116603f011681019083821181831017156116c1576116c1611622565b816040528281528960208487010111156116da57600080fd5b826020860160208301376000602084830101528096505050505050604084013590509250925092565b6000806040838503121561171657600080fd5b61171f8361157c565b946020939093013593505050565b60005b83811015611748578181015183820152602001611730565b50506000910152565b6000815180845261176981602086016020860161172d565b601f01601f19169290920160200192915050565b6001600160a01b038416815260606020820152600061179f6060830185611751565b9050826040830152949350505050565b634e487b7160e01b600052601160045260246000fd5b818103818111156104c9576104c96117af565b6000602082840312156117ea57600080fd5b5051919050565b808201808211156104c9576104c96117af565b6000825161181681846020870161172d565b9190910192915050565b60006020828403121561183257600080fd5b8151801515811461084e57600080fd5b7f416363657373436f6e74726f6c3a206163636f756e742000000000000000000081526000835161187a81601785016020880161172d565b7f206973206d697373696e6720726f6c652000000000000000000000000000000060179184019182015283516118b781602884016020880161172d565b01602801949350505050565b60208152600061084e6020830184611751565b80820281158282048414176104c9576104c96117af565b634e487b7160e01b600052603260045260246000fd5b600081611912576119126117af565b50600019019056fea164736f6c6343000812000a",
  "linkReferences": {},
  "deployedLinkReferences": {}
}