{
  "_format": "hh-sol-artifact-1",
  "contractName": "L2NonScheduleVault",
  "sourceName": "contracts/L2/vaults/L2NonScheduleVault.sol",
  "abi": [
    {
      "anonymous": false,
      "inputs": [
        {
          "indexed": false,
          "internalType": "address",
          "name": "l2Token",
          "type": "address"
        },
        {
          "indexed": false,
          "internalType": "address",
          "name": "newAdmin",
          "type": "address"
        },
        {
          "indexed": false,
          "internalType": "uint256",
          "name": "amount",
          "type": "uint256"
        }
      ],
      "name": "AllocatedTokenAndAdminInVault",
      "type": "event"
    },
    {
      "anonymous": false,
      "inputs": [
        {
          "indexed": false,
          "internalType": "address",
          "name": "l2Token",
          "type": "address"
        },
        {
          "indexed": false,
          "internalType": "string",
          "name": "name",
          "type": "string"
        },
        {
          "indexed": false,
          "internalType": "uint256",
          "name": "totalAllocatedAmount",
          "type": "uint256"
        }
      ],
      "name": "InitializedL2NonScheduleVault",
      "type": "event"
    },
    {
      "anonymous": false,
      "inputs": [
        {
          "indexed": true,
          "internalType": "bytes32",
          "name": "role",
          "type": "bytes32"
        },
        {
          "indexed": true,
          "internalType": "bytes32",
          "name": "previousAdminRole",
          "type": "bytes32"
        },
        {
          "indexed": true,
          "internalType": "bytes32",
          "name": "newAdminRole",
          "type": "bytes32"
        }
      ],
      "name": "RoleAdminChanged",
      "type": "event"
    },
    {
      "anonymous": false,
      "inputs": [
        {
          "indexed": true,
          "internalType": "bytes32",
          "name": "role",
          "type": "bytes32"
        },
        {
          "indexed": true,
          "internalType": "address",
          "name": "account",
          "type": "address"
        },
        {
          "indexed": true,
          "internalType": "address",
          "name": "sender",
          "type": "address"
        }
      ],
      "name": "RoleGranted",
      "type": "event"
    },
    {
      "anonymous": false,
      "inputs": [
        {
          "indexed": true,
          "internalType": "bytes32",
          "name": "role",
          "type": "bytes32"
        },
        {
          "indexed": true,
          "internalType": "address",
          "name": "account",
          "type": "address"
        },
        {
          "indexed": true,
          "internalType": "address",
          "name": "sender",
          "type": "address"
        }
      ],
      "name": "RoleRevoked",
      "type": "event"
    },
    {
      "anonymous": false,
      "inputs": [
        {
          "indexed": false,
          "internalType": "address",
          "name": "newInitializer",
          "type": "address"
        }
      ],
      "name": "SetInitializer",
      "type": "event"
    },
    {
      "anonymous": false,
      "inputs": [
        {
          "indexed": false,
          "internalType": "address",
          "name": "l2Token",
          "type": "address"
        },
        {
          "indexed": false,
          "internalType": "address",
          "name": "newAdmin",
          "type": "address"
        }
      ],
      "name": "SetVaultAdmin",
      "type": "event"
    },
    {
      "inputs": [],
      "name": "ADMIN_ROLE",
      "outputs": [
        {
          "internalType": "bytes32",
          "name": "",
          "type": "bytes32"
        }
      ],
      "stateMutability": "view",
      "type": "function"
    },
    {
      "inputs": [],
      "name": "DEFAULT_ADMIN_ROLE",
      "outputs": [
        {
          "internalType": "bytes32",
          "name": "",
          "type": "bytes32"
        }
      ],
      "stateMutability": "view",
      "type": "function"
    },
    {
      "inputs": [],
      "name": "POLICY_ROLE",
      "outputs": [
        {
          "internalType": "bytes32",
          "name": "",
          "type": "bytes32"
        }
      ],
      "stateMutability": "view",
      "type": "function"
    },
    {
      "inputs": [
        {
          "internalType": "address",
          "name": "account",
          "type": "address"
        }
      ],
      "name": "addAdmin",
      "outputs": [],
      "stateMutability": "nonpayable",
      "type": "function"
    },
    {
      "inputs": [
        {
          "internalType": "address",
          "name": "",
          "type": "address"
        }
      ],
      "name": "aliveImplementation",
      "outputs": [
        {
          "internalType": "bool",
          "name": "",
          "type": "bool"
        }
      ],
      "stateMutability": "view",
      "type": "function"
    },
    {
      "inputs": [
        {
          "internalType": "address",
          "name": "l2Token",
          "type": "address"
        },
        {
          "internalType": "address",
          "name": "_newAdmin",
          "type": "address"
        },
        {
          "internalType": "uint256",
          "name": "amount",
          "type": "uint256"
        }
      ],
      "name": "allocateTokenAndAdmin",
      "outputs": [],
      "stateMutability": "nonpayable",
      "type": "function"
    },
    {
      "inputs": [
        {
          "internalType": "address",
          "name": "l2Token",
          "type": "address"
        },
        {
          "internalType": "string",
          "name": "vaultName",
          "type": "string"
        },
        {
          "internalType": "uint256",
          "name": "amount",
          "type": "uint256"
        }
      ],
      "name": "claim",
      "outputs": [],
      "stateMutability": "nonpayable",
      "type": "function"
    },
    {
      "inputs": [
        {
          "internalType": "bytes32",
          "name": "role",
          "type": "bytes32"
        }
      ],
      "name": "getRoleAdmin",
      "outputs": [
        {
          "internalType": "bytes32",
          "name": "",
          "type": "bytes32"
        }
      ],
      "stateMutability": "view",
      "type": "function"
    },
    {
      "inputs": [
        {
          "internalType": "bytes32",
          "name": "role",
          "type": "bytes32"
        },
        {
          "internalType": "address",
          "name": "account",
          "type": "address"
        }
      ],
      "name": "grantRole",
      "outputs": [],
      "stateMutability": "nonpayable",
      "type": "function"
    },
    {
      "inputs": [
        {
          "internalType": "bytes32",
          "name": "role",
          "type": "bytes32"
        },
        {
          "internalType": "address",
          "name": "account",
          "type": "address"
        }
      ],
      "name": "hasRole",
      "outputs": [
        {
          "internalType": "bool",
          "name": "",
          "type": "bool"
        }
      ],
      "stateMutability": "view",
      "type": "function"
    },
    {
      "inputs": [
        {
          "internalType": "address",
          "name": "l2Token",
          "type": "address"
        },
        {
          "internalType": "string",
          "name": "vaultName",
          "type": "string"
        },
        {
          "internalType": "uint256",
          "name": "totalAllocatedAmount",
          "type": "uint256"
        }
      ],
      "name": "initialize",
      "outputs": [],
      "stateMutability": "nonpayable",
      "type": "function"
    },
    {
      "inputs": [],
      "name": "initializer",
      "outputs": [
        {
          "internalType": "address",
          "name": "",
          "type": "address"
        }
      ],
      "stateMutability": "view",
      "type": "function"
    },
    {
      "inputs": [
        {
          "internalType": "address",
          "name": "account",
          "type": "address"
        }
      ],
      "name": "isAdmin",
      "outputs": [
        {
          "internalType": "bool",
          "name": "",
          "type": "bool"
        }
      ],
      "stateMutability": "view",
      "type": "function"
    },
    {
      "inputs": [
        {
          "internalType": "address",
          "name": "l2Token",
          "type": "address"
        },
        {
          "internalType": "address",
          "name": "account",
          "type": "address"
        }
      ],
      "name": "isVaultAdmin",
      "outputs": [
        {
          "internalType": "bool",
          "name": "",
          "type": "bool"
        }
      ],
      "stateMutability": "view",
      "type": "function"
    },
    {
      "inputs": [],
      "name": "l2ProjectManager",
      "outputs": [
        {
          "internalType": "address",
          "name": "",
          "type": "address"
        }
      ],
      "stateMutability": "view",
      "type": "function"
    },
    {
      "inputs": [],
      "name": "pauseProxy",
      "outputs": [
        {
          "internalType": "bool",
          "name": "",
          "type": "bool"
        }
      ],
      "stateMutability": "view",
      "type": "function"
    },
    {
      "inputs": [
        {
          "internalType": "uint256",
          "name": "",
          "type": "uint256"
        }
      ],
      "name": "proxyImplementation",
      "outputs": [
        {
          "internalType": "address",
          "name": "",
          "type": "address"
        }
      ],
      "stateMutability": "view",
      "type": "function"
    },
    {
      "inputs": [
        {
          "internalType": "address",
          "name": "account",
          "type": "address"
        }
      ],
      "name": "removeAdmin",
      "outputs": [],
      "stateMutability": "nonpayable",
      "type": "function"
    },
    {
      "inputs": [
        {
          "internalType": "bytes32",
          "name": "role",
          "type": "bytes32"
        },
        {
          "internalType": "address",
          "name": "account",
          "type": "address"
        }
      ],
      "name": "renounceRole",
      "outputs": [],
      "stateMutability": "nonpayable",
      "type": "function"
    },
    {
      "inputs": [
        {
          "internalType": "bytes32",
          "name": "role",
          "type": "bytes32"
        },
        {
          "internalType": "address",
          "name": "account",
          "type": "address"
        }
      ],
      "name": "revokeRole",
      "outputs": [],
      "stateMutability": "nonpayable",
      "type": "function"
    },
    {
      "inputs": [
        {
          "internalType": "bytes4",
          "name": "",
          "type": "bytes4"
        }
      ],
      "name": "selectorImplementation",
      "outputs": [
        {
          "internalType": "address",
          "name": "",
          "type": "address"
        }
      ],
      "stateMutability": "view",
      "type": "function"
    },
    {
      "inputs": [
        {
          "internalType": "address",
          "name": "_initializer",
          "type": "address"
        }
      ],
      "name": "setInitializer",
      "outputs": [],
      "stateMutability": "nonpayable",
      "type": "function"
    },
    {
      "inputs": [
        {
          "internalType": "address",
          "name": "_l2ProjectManager",
          "type": "address"
        }
      ],
      "name": "setL2ProjectManager",
      "outputs": [],
      "stateMutability": "nonpayable",
      "type": "function"
    },
    {
      "inputs": [
        {
          "internalType": "address",
          "name": "l2Token",
          "type": "address"
        },
        {
          "internalType": "address",
          "name": "_newAdmin",
          "type": "address"
        }
      ],
      "name": "setVaultAdmin",
      "outputs": [],
      "stateMutability": "nonpayable",
      "type": "function"
    },
    {
      "inputs": [
        {
          "internalType": "bytes4",
          "name": "interfaceId",
          "type": "bytes4"
        }
      ],
      "name": "supportsInterface",
      "outputs": [
        {
          "internalType": "bool",
          "name": "",
          "type": "bool"
        }
      ],
      "stateMutability": "view",
      "type": "function"
    },
    {
      "inputs": [
        {
          "internalType": "address",
          "name": "newAdmin",
          "type": "address"
        }
      ],
      "name": "transferAdmin",
      "outputs": [],
      "stateMutability": "nonpayable",
      "type": "function"
    },
    {
      "inputs": [
        {
          "internalType": "address",
          "name": "",
          "type": "address"
        }
      ],
      "name": "vaultAdminOfToken",
      "outputs": [
        {
          "internalType": "address",
          "name": "",
          "type": "address"
        }
      ],
      "stateMutability": "view",
      "type": "function"
    },
    {
      "inputs": [
        {
          "internalType": "address",
          "name": "",
          "type": "address"
        },
        {
          "internalType": "bytes32",
          "name": "",
          "type": "bytes32"
        }
      ],
      "name": "vaultInfo",
      "outputs": [
        {
          "internalType": "uint256",
          "name": "totalAllocatedAmount",
          "type": "uint256"
        },
        {
          "internalType": "uint256",
          "name": "totalClaimedAmount",
          "type": "uint256"
        }
      ],
      "stateMutability": "view",
      "type": "function"
    }
  ],
  "bytecode": "0x60806040526005805460ff1916600117905534801561001d57600080fd5b50611d918061002d6000396000f3fe608060405234801561001057600080fd5b50600436106101c45760003560e01c806370480275116100f95780639ce110d711610097578063b40d735011610071578063b40d73501461045c578063b911135f146104a3578063d547741f146104cc578063d8f1ef24146104df57600080fd5b80639ce110d71461042e578063a217fddf14610441578063a41823431461044957600080fd5b80637fc46ba8116100d35780637fc46ba8146103a65780638d35b35c146103cf5780638dac9bbc146103e257806391d14854146103f557600080fd5b8063704802751461035957806375829def1461036c57806375b238fc1461037f57600080fd5b806336568abe1161016657806352351e851161014057806352351e85146102fe578063550d01a3146103165780635c24b0741461033957806363a8fd891461034c57600080fd5b806336568abe1461029757806350d2a276146102aa57806351e8152a146102eb57600080fd5b8063248a9ca3116101a2578063248a9ca31461023b57806324d7806c1461025e5780632f2ff15d1461027157806335b9ac661461028457600080fd5b806301ffc9a7146101c95780631785f53c146101f15780632298524614610206575b600080fd5b6101dc6101d7366004611980565b6104f2565b60405190151581526020015b60405180910390f35b6102046101ff3660046119c6565b610529565b005b61022d7ffb5864e8ff833c3cb2d2d08505e82ff02a43554c74a35d4f5a64e8526127831181565b6040519081526020016101e8565b61022d6102493660046119e1565b60009081526004602052604090206001015490565b6101dc61026c3660046119c6565b6105bb565b61020461027f3660046119fa565b6105fb565b610204610292366004611a26565b610625565b6102046102a53660046119fa565b6107d9565b6102d36102b8366004611980565b6003602052600090815260409020546001600160a01b031681565b6040516001600160a01b0390911681526020016101e8565b6101dc6102f9366004611a26565b610865565b6005546102d39061010090046001600160a01b031681565b6101dc6103243660046119c6565b60026020526000908152604090205460ff1681565b6102046103473660046119c6565b6108a2565b6000546101dc9060ff1681565b6102046103673660046119c6565b6109d9565b61020461037a3660046119c6565b610a63565b61022d7fdf8b4c520ffe197c5343c6f5aec59570151ef9a492f2c624fd45ddde6135ec4281565b6102d36103b43660046119c6565b6007602052600090815260409020546001600160a01b031681565b6102046103dd366004611a50565b610bc5565b6102046103f0366004611aa2565b610e9c565b6101dc6104033660046119fa565b60009182526004602090815260408084206001600160a01b0393909316845291905290205460ff1690565b6006546102d3906001600160a01b031681565b61022d600081565b6102046104573660046119c6565b611021565b61048e61046a366004611b6d565b60086020908152600092835260408084209091529082529020805460019091015482565b604080519283526020830191909152016101e8565b6102d36104b13660046119e1565b6001602052600090815260409020546001600160a01b031681565b6102046104da3660046119fa565b61113e565b6102046104ed366004611aa2565b611163565b60006001600160e01b03198216637965db0b60e01b148061052357506301ffc9a760e01b6001600160e01b03198316145b92915050565b610532336105bb565b61058e5760405162461bcd60e51b815260206004820152602260248201527f41636365737369626c653a2043616c6c6572206973206e6f7420616e2061646d60448201526134b760f11b60648201526084015b60405180910390fd5b6105b87fdf8b4c520ffe197c5343c6f5aec59570151ef9a492f2c624fd45ddde6135ec42826107d9565b50565b6001600160a01b03811660009081527f2fb794d17134dfdec181ddbac1babb5ab1eb140204ef4d982f294e7fc8b69022602052604081205460ff16610523565b600082815260046020526040902060010154610616816113e2565b61062083836113ec565b505050565b816001600160a01b0381166106615760405162461bcd60e51b81526020600482015260026024820152612d1960f11b6044820152606401610585565b816001600160a01b03811661069d5760405162461bcd60e51b81526020600482015260026024820152612d1960f11b6044820152606401610585565b60055461010090046001600160a01b0316158015906106cb575060055461010090046001600160a01b031633145b6107175760405162461bcd60e51b815260206004820152601e60248201527f63616c6c6572206973206e6f74206c3250726f6a6563744d616e6167657200006044820152606401610585565b6001600160a01b0384811660009081526007602052604090205481851691160361076c5760405162461bcd60e51b81526004016105859060208082526004908201526373616d6560e01b604082015260600190565b6001600160a01b0384811660008181526007602090815260409182902080546001600160a01b031916948816948517905581519283528201929092527fb00bb4c229aff6156cc8e2c767c571665e1927c09fe083ec055956a5a4026193910160405180910390a150505050565b6001600160a01b03811633146108575760405162461bcd60e51b815260206004820152602f60248201527f416363657373436f6e74726f6c3a2063616e206f6e6c792072656e6f756e636560448201527f20726f6c657320666f722073656c6600000000000000000000000000000000006064820152608401610585565b610861828261148e565b5050565b60006001600160a01b0382161580159061089b57506001600160a01b038381166000908152600760205260409020548116908316145b9392505050565b806001600160a01b0381166108de5760405162461bcd60e51b81526020600482015260026024820152612d1960f11b6044820152606401610585565b6108e7336105bb565b61093e5760405162461bcd60e51b815260206004820152602260248201527f41636365737369626c653a2043616c6c6572206973206e6f7420616e2061646d60448201526134b760f11b6064820152608401610585565b6006546001600160a01b038084169116036109845760405162461bcd60e51b81526004016105859060208082526004908201526373616d6560e01b604082015260600190565b600680546001600160a01b0319166001600160a01b0384169081179091556040519081527f2a2bf2572e82958ab47f7049e07d49aab236a5f6d26b804b1ce51da119c6d9d09060200160405180910390a15050565b6109e2336105bb565b610a395760405162461bcd60e51b815260206004820152602260248201527f41636365737369626c653a2043616c6c6572206973206e6f7420616e2061646d60448201526134b760f11b6064820152608401610585565b6105b87fdf8b4c520ffe197c5343c6f5aec59570151ef9a492f2c624fd45ddde6135ec42826105fb565b610a6c336105bb565b610ac35760405162461bcd60e51b815260206004820152602260248201527f41636365737369626c653a2043616c6c6572206973206e6f7420616e2061646d60448201526134b760f11b6064820152608401610585565b6001600160a01b038116610b195760405162461bcd60e51b815260206004820152601860248201527f41636365737369626c653a207a65726f206164647265737300000000000000006044820152606401610585565b6001600160a01b0381163303610b715760405162461bcd60e51b815260206004820152601660248201527f41636365737369626c653a2073616d652061646d696e000000000000000000006044820152606401610585565b610b9b7fdf8b4c520ffe197c5343c6f5aec59570151ef9a492f2c624fd45ddde6135ec42826105fb565b6105b87fdf8b4c520ffe197c5343c6f5aec59570151ef9a492f2c624fd45ddde6135ec42336107d9565b60055461010090046001600160a01b031615801590610bf3575060055461010090046001600160a01b031633145b610c3f5760405162461bcd60e51b815260206004820152601e60248201527f63616c6c6572206973206e6f74206c3250726f6a6563744d616e6167657200006044820152606401610585565b826001600160a01b038116610c7b5760405162461bcd60e51b81526020600482015260026024820152612d1960f11b6044820152606401610585565b826001600160a01b038116610cb75760405162461bcd60e51b81526020600482015260026024820152612d1960f11b6044820152606401610585565b8280600003610ced5760405162461bcd60e51b81526020600482015260026024820152615a3160f01b6044820152606401610585565b6001600160a01b03868116600090815260076020526040902054818716911603610d465760405162461bcd60e51b815260206004820152600a60248201526939b0b6b29030b236b4b760b11b6044820152606401610585565b6005546040516370a0823160e01b81526101009091046001600160a01b0390811660048301528716906370a0823190602401602060405180830381865afa158015610d95573d6000803e3d6000fd5b505050506040513d601f19601f82011682018060405250810190610db99190611b97565b841115610e085760405162461bcd60e51b815260206004820152601860248201527f62616c616e636520697320696e73756666696369656e742e00000000000000006044820152606401610585565b6001600160a01b03868116600081815260076020526040902080546001600160a01b031916888416179055600554610e4892610100909104163087611511565b604080516001600160a01b038089168252871660208201529081018590527fe1c1818f614984fce9c731fd04034b7c1b22bcc9f2469662dabb9657cb1ec8cf906060015b60405180910390a1505050505050565b6001600160a01b0380841660009081526007602052604090205484911615801590610ef457506006546001600160a01b0316331480610ef457506001600160a01b038181166000908152600760205260409020541633145b610f4e5760405162461bcd60e51b815260206004820152602560248201527f63616c6c6572206973206e6f742061207661756c7441646d696e204f66206c326044820152642a37b5b2b760d91b6064820152608401610585565b825160208401206000839003610fa65760405162461bcd60e51b815260206004820152600b60248201527f77726f6e672076616c75650000000000000000000000000000000000000000006044820152606401610585565b600554610fc6906001600160a01b03878116916101009004163086611511565b6001600160a01b03851660009081526008602090815260408083208484529091529081902084815590517fb67cb8840ee13b4897ba8cece8a0bee0c05b3ccdd509a2a58a55bdee6f59be7890610e8c90889088908890611c00565b806001600160a01b03811661105d5760405162461bcd60e51b81526020600482015260026024820152612d1960f11b6044820152606401610585565b611066336105bb565b6110bd5760405162461bcd60e51b815260206004820152602260248201527f41636365737369626c653a2043616c6c6572206973206e6f7420616e2061646d60448201526134b760f11b6064820152608401610585565b6005546001600160a01b0380841661010090920416036111085760405162461bcd60e51b81526004016105859060208082526004908201526373616d6560e01b604082015260600190565b50600580546001600160a01b039092166101000274ffffffffffffffffffffffffffffffffffffffff0019909216919091179055565b600082815260046020526040902060010154611159816113e2565b610620838361148e565b6001600160a01b03808416600090815260076020526040902054849116158015906111a757506001600160a01b038181166000908152600760205260409020541633145b6112015760405162461bcd60e51b815260206004820152602560248201527f63616c6c6572206973206e6f742061207661756c7441646d696e204f66206c326044820152642a37b5b2b760d91b6064820152608401610585565b836001600160a01b03811661123d5760405162461bcd60e51b81526020600482015260026024820152612d1960f11b6044820152606401610585565b82806000036112735760405162461bcd60e51b81526020600482015260026024820152615a3160f01b6044820152606401610585565b84516020808701919091206001600160a01b038816600090815260088352604080822083835284529081902081518083019092528054808352600190910154938201849052919290916112c69190611c48565b861115801561133c57506040516370a0823160e01b81523060048201526001600160a01b038916906370a0823190602401602060405180830381865afa158015611314573d6000803e3d6000fd5b505050506040513d601f19601f820116820180604052508101906113389190611b97565b8611155b6113885760405162461bcd60e51b815260206004820152600d60248201527f696e73756666696369656e742e000000000000000000000000000000000000006044820152606401610585565b6001600160a01b0388166000908152600860209081526040808320858452909152812060010180548892906113be908490611c5b565b909155506113d890506001600160a01b0389163388611635565b5050505050505050565b6105b88133611750565b60008281526004602090815260408083206001600160a01b038516845290915290205460ff166108615760008281526004602090815260408083206001600160a01b03851684529091529020805460ff1916600117905561144a3390565b6001600160a01b0316816001600160a01b0316837f2f8788117e7eff1d82e926ec794901d17c78024a50270940304540a733656f0d60405160405180910390a45050565b60008281526004602090815260408083206001600160a01b038516845290915290205460ff16156108615760008281526004602090815260408083206001600160a01b0385168085529252808320805460ff1916905551339285917ff6391f5c32d9c69d2a47ea670b442974b53935d1edc7fd64eb21e047a839171b9190a45050565b604080516001600160a01b0385811660248301528481166044830152606480830185905283518084039091018152608490920183526020820180516001600160e01b03166323b872dd60e01b17905291516000928392908816916115759190611c6e565b6000604051808303816000865af19150503d80600081146115b2576040519150601f19603f3d011682016040523d82523d6000602084013e6115b7565b606091505b50915091508180156115e15750805115806115e15750808060200190518101906115e19190611c8a565b61162d5760405162461bcd60e51b815260206004820152601460248201527f5452414e534645525f46524f4d5f4641494c45440000000000000000000000006044820152606401610585565b505050505050565b604080516001600160a01b038481166024830152604480830185905283518084039091018152606490920183526020820180516001600160e01b031663a9059cbb60e01b17905291516000928392908716916116919190611c6e565b6000604051808303816000865af19150503d80600081146116ce576040519150601f19603f3d011682016040523d82523d6000602084013e6116d3565b606091505b50915091508180156116fd5750805115806116fd5750808060200190518101906116fd9190611c8a565b6117495760405162461bcd60e51b815260206004820152600f60248201527f5452414e534645525f4641494c454400000000000000000000000000000000006044820152606401610585565b5050505050565b60008281526004602090815260408083206001600160a01b038516845290915290205460ff1661086157611783816117c5565b61178e8360206117d7565b60405160200161179f929190611cac565b60408051601f198184030181529082905262461bcd60e51b825261058591600401611d2d565b60606105236001600160a01b03831660145b606060006117e6836002611d40565b6117f1906002611c5b565b67ffffffffffffffff81111561180957611809611a8c565b6040519080825280601f01601f191660200182016040528015611833576020820181803683370190505b509050600360fc1b8160008151811061184e5761184e611d57565b60200101906001600160f81b031916908160001a905350600f60fb1b8160018151811061187d5761187d611d57565b60200101906001600160f81b031916908160001a90535060006118a1846002611d40565b6118ac906001611c5b565b90505b6001811115611931577f303132333435363738396162636465660000000000000000000000000000000085600f16601081106118ed576118ed611d57565b1a60f81b82828151811061190357611903611d57565b60200101906001600160f81b031916908160001a90535060049490941c9361192a81611d6d565b90506118af565b50831561089b5760405162461bcd60e51b815260206004820181905260248201527f537472696e67733a20686578206c656e67746820696e73756666696369656e746044820152606401610585565b60006020828403121561199257600080fd5b81356001600160e01b03198116811461089b57600080fd5b80356001600160a01b03811681146119c157600080fd5b919050565b6000602082840312156119d857600080fd5b61089b826119aa565b6000602082840312156119f357600080fd5b5035919050565b60008060408385031215611a0d57600080fd5b82359150611a1d602084016119aa565b90509250929050565b60008060408385031215611a3957600080fd5b611a42836119aa565b9150611a1d602084016119aa565b600080600060608486031215611a6557600080fd5b611a6e846119aa565b9250611a7c602085016119aa565b9150604084013590509250925092565b634e487b7160e01b600052604160045260246000fd5b600080600060608486031215611ab757600080fd5b611ac0846119aa565b9250602084013567ffffffffffffffff80821115611add57600080fd5b818601915086601f830112611af157600080fd5b813581811115611b0357611b03611a8c565b604051601f8201601f19908116603f01168101908382118183101715611b2b57611b2b611a8c565b81604052828152896020848701011115611b4457600080fd5b826020860160208301376000602084830101528096505050505050604084013590509250925092565b60008060408385031215611b8057600080fd5b611b89836119aa565b946020939093013593505050565b600060208284031215611ba957600080fd5b5051919050565b60005b83811015611bcb578181015183820152602001611bb3565b50506000910152565b60008151808452611bec816020860160208601611bb0565b601f01601f19169290920160200192915050565b6001600160a01b0384168152606060208201526000611c226060830185611bd4565b9050826040830152949350505050565b634e487b7160e01b600052601160045260246000fd5b8181038181111561052357610523611c32565b8082018082111561052357610523611c32565b60008251611c80818460208701611bb0565b9190910192915050565b600060208284031215611c9c57600080fd5b8151801515811461089b57600080fd5b7f416363657373436f6e74726f6c3a206163636f756e7420000000000000000000815260008351611ce4816017850160208801611bb0565b7f206973206d697373696e6720726f6c65200000000000000000000000000000006017918401918201528351611d21816028840160208801611bb0565b01602801949350505050565b60208152600061089b6020830184611bd4565b808202811582820484141761052357610523611c32565b634e487b7160e01b600052603260045260246000fd5b600081611d7c57611d7c611c32565b50600019019056fea164736f6c6343000812000a",
  "linkReferences": {},
  "deployedLinkReferences": {}
}