{
  "_format": "hh-sol-artifact-1",
  "contractName": "ERC20C",
  "sourceName": "contracts/L1/tokens/ERC20C.sol",
  "abi": [
    {
      "inputs": [
        {
          "internalType": "string",
          "name": "_name",
          "type": "string"
        },
        {
          "internalType": "string",
          "name": "_symbol",
          "type": "string"
        },
        {
          "internalType": "uint256",
          "name": "initialSupply",
          "type": "uint256"
        },
        {
          "internalType": "address",
          "name": "_owner",
          "type": "address"
        }
      ],
      "stateMutability": "nonpayable",
      "type": "constructor"
    },
    {
      "anonymous": false,
      "inputs": [
        {
          "indexed": true,
          "internalType": "address",
          "name": "owner",
          "type": "address"
        },
        {
          "indexed": true,
          "internalType": "address",
          "name": "spender",
          "type": "address"
        },
        {
          "indexed": false,
          "internalType": "uint256",
          "name": "value",
          "type": "uint256"
        }
      ],
      "name": "Approval",
      "type": "event"
    },
    {
      "anonymous": false,
      "inputs": [
        {
          "indexed": true,
          "internalType": "bytes32",
          "name": "role",
          "type": "bytes32"
        },
        {
          "indexed": true,
          "internalType": "bytes32",
          "name": "previousAdminRole",
          "type": "bytes32"
        },
        {
          "indexed": true,
          "internalType": "bytes32",
          "name": "newAdminRole",
          "type": "bytes32"
        }
      ],
      "name": "RoleAdminChanged",
      "type": "event"
    },
    {
      "anonymous": false,
      "inputs": [
        {
          "indexed": true,
          "internalType": "bytes32",
          "name": "role",
          "type": "bytes32"
        },
        {
          "indexed": true,
          "internalType": "address",
          "name": "account",
          "type": "address"
        },
        {
          "indexed": true,
          "internalType": "address",
          "name": "sender",
          "type": "address"
        }
      ],
      "name": "RoleGranted",
      "type": "event"
    },
    {
      "anonymous": false,
      "inputs": [
        {
          "indexed": true,
          "internalType": "bytes32",
          "name": "role",
          "type": "bytes32"
        },
        {
          "indexed": true,
          "internalType": "address",
          "name": "account",
          "type": "address"
        },
        {
          "indexed": true,
          "internalType": "address",
          "name": "sender",
          "type": "address"
        }
      ],
      "name": "RoleRevoked",
      "type": "event"
    },
    {
      "anonymous": false,
      "inputs": [
        {
          "indexed": false,
          "internalType": "uint256",
          "name": "id",
          "type": "uint256"
        }
      ],
      "name": "Snapshot",
      "type": "event"
    },
    {
      "anonymous": false,
      "inputs": [
        {
          "indexed": true,
          "internalType": "address",
          "name": "from",
          "type": "address"
        },
        {
          "indexed": true,
          "internalType": "address",
          "name": "to",
          "type": "address"
        },
        {
          "indexed": false,
          "internalType": "uint256",
          "name": "value",
          "type": "uint256"
        }
      ],
      "name": "Transfer",
      "type": "event"
    },
    {
      "inputs": [],
      "name": "DEFAULT_ADMIN_ROLE",
      "outputs": [
        {
          "internalType": "bytes32",
          "name": "",
          "type": "bytes32"
        }
      ],
      "stateMutability": "view",
      "type": "function"
    },
    {
      "inputs": [],
      "name": "SNAPSHOT_ROLE",
      "outputs": [
        {
          "internalType": "bytes32",
          "name": "",
          "type": "bytes32"
        }
      ],
      "stateMutability": "view",
      "type": "function"
    },
    {
      "inputs": [],
      "name": "_INTERFACE_ID_ERC20",
      "outputs": [
        {
          "internalType": "bytes4",
          "name": "",
          "type": "bytes4"
        }
      ],
      "stateMutability": "view",
      "type": "function"
    },
    {
      "inputs": [
        {
          "internalType": "bytes4",
          "name": "",
          "type": "bytes4"
        }
      ],
      "name": "_supportedInterfaces",
      "outputs": [
        {
          "internalType": "bool",
          "name": "",
          "type": "bool"
        }
      ],
      "stateMutability": "view",
      "type": "function"
    },
    {
      "inputs": [
        {
          "internalType": "address",
          "name": "owner",
          "type": "address"
        },
        {
          "internalType": "address",
          "name": "spender",
          "type": "address"
        }
      ],
      "name": "allowance",
      "outputs": [
        {
          "internalType": "uint256",
          "name": "",
          "type": "uint256"
        }
      ],
      "stateMutability": "view",
      "type": "function"
    },
    {
      "inputs": [
        {
          "internalType": "address",
          "name": "spender",
          "type": "address"
        },
        {
          "internalType": "uint256",
          "name": "amount",
          "type": "uint256"
        }
      ],
      "name": "approve",
      "outputs": [
        {
          "internalType": "bool",
          "name": "",
          "type": "bool"
        }
      ],
      "stateMutability": "nonpayable",
      "type": "function"
    },
    {
      "inputs": [
        {
          "internalType": "address",
          "name": "spender",
          "type": "address"
        },
        {
          "internalType": "uint256",
          "name": "amount",
          "type": "uint256"
        },
        {
          "internalType": "bytes",
          "name": "data",
          "type": "bytes"
        }
      ],
      "name": "approveAndCall",
      "outputs": [
        {
          "internalType": "bool",
          "name": "",
          "type": "bool"
        }
      ],
      "stateMutability": "nonpayable",
      "type": "function"
    },
    {
      "inputs": [
        {
          "internalType": "address",
          "name": "account",
          "type": "address"
        }
      ],
      "name": "balanceOf",
      "outputs": [
        {
          "internalType": "uint256",
          "name": "",
          "type": "uint256"
        }
      ],
      "stateMutability": "view",
      "type": "function"
    },
    {
      "inputs": [
        {
          "internalType": "address",
          "name": "account",
          "type": "address"
        },
        {
          "internalType": "uint256",
          "name": "snapshotId",
          "type": "uint256"
        }
      ],
      "name": "balanceOfAt",
      "outputs": [
        {
          "internalType": "uint256",
          "name": "",
          "type": "uint256"
        }
      ],
      "stateMutability": "view",
      "type": "function"
    },
    {
      "inputs": [
        {
          "internalType": "uint256",
          "name": "amount",
          "type": "uint256"
        }
      ],
      "name": "burn",
      "outputs": [],
      "stateMutability": "nonpayable",
      "type": "function"
    },
    {
      "inputs": [
        {
          "internalType": "address",
          "name": "account",
          "type": "address"
        },
        {
          "internalType": "uint256",
          "name": "amount",
          "type": "uint256"
        }
      ],
      "name": "burnFrom",
      "outputs": [],
      "stateMutability": "nonpayable",
      "type": "function"
    },
    {
      "inputs": [],
      "name": "currentSnapshotId",
      "outputs": [
        {
          "internalType": "uint256",
          "name": "",
          "type": "uint256"
        }
      ],
      "stateMutability": "view",
      "type": "function"
    },
    {
      "inputs": [],
      "name": "decimals",
      "outputs": [
        {
          "internalType": "uint8",
          "name": "",
          "type": "uint8"
        }
      ],
      "stateMutability": "view",
      "type": "function"
    },
    {
      "inputs": [
        {
          "internalType": "address",
          "name": "spender",
          "type": "address"
        },
        {
          "internalType": "uint256",
          "name": "subtractedValue",
          "type": "uint256"
        }
      ],
      "name": "decreaseAllowance",
      "outputs": [
        {
          "internalType": "bool",
          "name": "",
          "type": "bool"
        }
      ],
      "stateMutability": "nonpayable",
      "type": "function"
    },
    {
      "inputs": [
        {
          "internalType": "bytes32",
          "name": "role",
          "type": "bytes32"
        }
      ],
      "name": "getRoleAdmin",
      "outputs": [
        {
          "internalType": "bytes32",
          "name": "",
          "type": "bytes32"
        }
      ],
      "stateMutability": "view",
      "type": "function"
    },
    {
      "inputs": [
        {
          "internalType": "bytes32",
          "name": "role",
          "type": "bytes32"
        },
        {
          "internalType": "address",
          "name": "account",
          "type": "address"
        }
      ],
      "name": "grantRole",
      "outputs": [],
      "stateMutability": "nonpayable",
      "type": "function"
    },
    {
      "inputs": [
        {
          "internalType": "bytes32",
          "name": "role",
          "type": "bytes32"
        },
        {
          "internalType": "address",
          "name": "account",
          "type": "address"
        }
      ],
      "name": "hasRole",
      "outputs": [
        {
          "internalType": "bool",
          "name": "",
          "type": "bool"
        }
      ],
      "stateMutability": "view",
      "type": "function"
    },
    {
      "inputs": [
        {
          "internalType": "address",
          "name": "spender",
          "type": "address"
        },
        {
          "internalType": "uint256",
          "name": "addedValue",
          "type": "uint256"
        }
      ],
      "name": "increaseAllowance",
      "outputs": [
        {
          "internalType": "bool",
          "name": "",
          "type": "bool"
        }
      ],
      "stateMutability": "nonpayable",
      "type": "function"
    },
    {
      "inputs": [],
      "name": "name",
      "outputs": [
        {
          "internalType": "string",
          "name": "",
          "type": "string"
        }
      ],
      "stateMutability": "view",
      "type": "function"
    },
    {
      "inputs": [
        {
          "internalType": "bytes32",
          "name": "role",
          "type": "bytes32"
        },
        {
          "internalType": "address",
          "name": "account",
          "type": "address"
        }
      ],
      "name": "renounceRole",
      "outputs": [],
      "stateMutability": "nonpayable",
      "type": "function"
    },
    {
      "inputs": [
        {
          "internalType": "bytes32",
          "name": "role",
          "type": "bytes32"
        },
        {
          "internalType": "address",
          "name": "account",
          "type": "address"
        }
      ],
      "name": "revokeRole",
      "outputs": [],
      "stateMutability": "nonpayable",
      "type": "function"
    },
    {
      "inputs": [
        {
          "internalType": "address",
          "name": "recipient",
          "type": "address"
        },
        {
          "internalType": "uint256",
          "name": "amount",
          "type": "uint256"
        }
      ],
      "name": "safeTransfer",
      "outputs": [],
      "stateMutability": "nonpayable",
      "type": "function"
    },
    {
      "inputs": [
        {
          "internalType": "address",
          "name": "recipient",
          "type": "address"
        },
        {
          "internalType": "uint256",
          "name": "amount",
          "type": "uint256"
        },
        {
          "internalType": "bytes",
          "name": "data",
          "type": "bytes"
        }
      ],
      "name": "safeTransfer",
      "outputs": [],
      "stateMutability": "nonpayable",
      "type": "function"
    },
    {
      "inputs": [
        {
          "internalType": "address",
          "name": "sender",
          "type": "address"
        },
        {
          "internalType": "address",
          "name": "recipient",
          "type": "address"
        },
        {
          "internalType": "uint256",
          "name": "amount",
          "type": "uint256"
        }
      ],
      "name": "safeTransferFrom",
      "outputs": [],
      "stateMutability": "nonpayable",
      "type": "function"
    },
    {
      "inputs": [
        {
          "internalType": "address",
          "name": "sender",
          "type": "address"
        },
        {
          "internalType": "address",
          "name": "recipient",
          "type": "address"
        },
        {
          "internalType": "uint256",
          "name": "amount",
          "type": "uint256"
        },
        {
          "internalType": "bytes",
          "name": "data",
          "type": "bytes"
        }
      ],
      "name": "safeTransferFrom",
      "outputs": [],
      "stateMutability": "nonpayable",
      "type": "function"
    },
    {
      "inputs": [],
      "name": "snapshot",
      "outputs": [
        {
          "internalType": "uint256",
          "name": "",
          "type": "uint256"
        }
      ],
      "stateMutability": "nonpayable",
      "type": "function"
    },
    {
      "inputs": [
        {
          "internalType": "bytes4",
          "name": "interfaceId",
          "type": "bytes4"
        }
      ],
      "name": "supportsInterface",
      "outputs": [
        {
          "internalType": "bool",
          "name": "",
          "type": "bool"
        }
      ],
      "stateMutability": "view",
      "type": "function"
    },
    {
      "inputs": [],
      "name": "symbol",
      "outputs": [
        {
          "internalType": "string",
          "name": "",
          "type": "string"
        }
      ],
      "stateMutability": "view",
      "type": "function"
    },
    {
      "inputs": [],
      "name": "totalSupply",
      "outputs": [
        {
          "internalType": "uint256",
          "name": "",
          "type": "uint256"
        }
      ],
      "stateMutability": "view",
      "type": "function"
    },
    {
      "inputs": [
        {
          "internalType": "uint256",
          "name": "snapshotId",
          "type": "uint256"
        }
      ],
      "name": "totalSupplyAt",
      "outputs": [
        {
          "internalType": "uint256",
          "name": "",
          "type": "uint256"
        }
      ],
      "stateMutability": "view",
      "type": "function"
    },
    {
      "inputs": [
        {
          "internalType": "address",
          "name": "to",
          "type": "address"
        },
        {
          "internalType": "uint256",
          "name": "amount",
          "type": "uint256"
        }
      ],
      "name": "transfer",
      "outputs": [
        {
          "internalType": "bool",
          "name": "",
          "type": "bool"
        }
      ],
      "stateMutability": "nonpayable",
      "type": "function"
    },
    {
      "inputs": [
        {
          "internalType": "address",
          "name": "from",
          "type": "address"
        },
        {
          "internalType": "address",
          "name": "to",
          "type": "address"
        },
        {
          "internalType": "uint256",
          "name": "amount",
          "type": "uint256"
        }
      ],
      "name": "transferFrom",
      "outputs": [
        {
          "internalType": "bool",
          "name": "",
          "type": "bool"
        }
      ],
      "stateMutability": "nonpayable",
      "type": "function"
    }
  ],
  "bytecode": "0x60806040523480156200001157600080fd5b50604051620025be380380620025be8339810160408190526200003491620005df565b8351849084906200004d90600490602085019062000486565b5080516200006390600590602084019062000486565b506200007a9150636578737160e01b9050620000f4565b6200008c6301ffc9a760e01b620000f4565b81156200009f576200009f818362000179565b620000ac6000826200024d565b620000d87f5fdbd35e8da83ee755d5e62a539e5ed7f47126abede0b8b10f9ea43dc6eed07f826200024d565b620000ea634fc3585960e01b620000f4565b505050506200070e565b6001600160e01b03198082161415620001545760405162461bcd60e51b815260206004820152601c60248201527f4552433136353a20696e76616c696420696e746572666163652069640000000060448201526064015b60405180910390fd5b6001600160e01b0319166000908152600660205260409020805460ff19166001179055565b6001600160a01b038216620001d15760405162461bcd60e51b815260206004820152601f60248201527f45524332303a206d696e7420746f20746865207a65726f20616464726573730060448201526064016200014b565b620001df6000838362000259565b8060036000828254620001f3919062000670565b90915550506001600160a01b0382166000818152600160209081526040808320805486019055518481527fddf252ad1be2c89b69c2b068fc378daa952ba7f163c4a11628f55a4df523b3ef910160405180910390a35b5050565b620002498282620002ca565b620002718383836200029560201b6200060a1760201c565b6001600160a01b0383166200029a576200028b826200036a565b62000295620003af565b505050565b6001600160a01b038216620002b4576200028b836200036a565b620002bf836200036a565b62000295826200036a565b6000828152602081815260408083206001600160a01b038516845290915290205460ff1662000249576000828152602081815260408083206001600160a01b03851684529091529020805460ff19166001179055620003263390565b6001600160a01b0316816001600160a01b0316837f2f8788117e7eff1d82e926ec794901d17c78024a50270940304540a733656f0d60405160405180910390a45050565b620003ac6200038d826001600160a01b0316600090815260076020526040902090565b6001600160a01b038316600090815260016020526040902054620003c0565b50565b620003be6008600354620003c0565b565b6000620003cc6200040f565b905080620003da846200042d565b101562000295578254600180820185556000858152602080822090930193909355938401805494850181558252902090910155565b600062000428600a6200048260201b62000a4a1760201c565b905090565b80546000906200043f57506000919050565b8154829062000451906001906200068b565b815481106200047057634e487b7160e01b600052603260045260246000fd5b90600052602060002001549050919050565b5490565b8280546200049490620006a5565b90600052602060002090601f016020900481019282620004b8576000855562000503565b82601f10620004d357805160ff191683800117855562000503565b8280016001018555821562000503579182015b8281111562000503578251825591602001919060010190620004e6565b506200051192915062000515565b5090565b5b8082111562000511576000815560010162000516565b600082601f8301126200053d578081fd5b81516001600160401b03808211156200055a576200055a620006f8565b604051601f8301601f19908116603f01168101908282118183101715620005855762000585620006f8565b81604052838152602092508683858801011115620005a1578485fd5b8491505b83821015620005c45785820183015181830184015290820190620005a5565b83821115620005d557848385830101525b9695505050505050565b60008060008060808587031215620005f5578384fd5b84516001600160401b03808211156200060c578586fd5b6200061a888389016200052c565b9550602087015191508082111562000630578485fd5b506200063f878288016200052c565b60408701516060880151919550935090506001600160a01b038116811462000665578182fd5b939692955090935050565b60008219821115620006865762000686620006e2565b500190565b600082821015620006a057620006a0620006e2565b500390565b600181811c90821680620006ba57607f821691505b60208210811415620006dc57634e487b7160e01b600052602260045260246000fd5b50919050565b634e487b7160e01b600052601160045260246000fd5b634e487b7160e01b600052604160045260246000fd5b611ea0806200071e6000396000f3fe608060405234801561001057600080fd5b50600436106101f05760003560e01c806379cc67901161010f578063a457c2d7116100a2578063d547741f11610071578063d547741f14610463578063dd62ed3e14610476578063eb795549146104af578063ef194435146104c257600080fd5b8063a457c2d714610417578063a9059cbb1461042a578063b88d4fde1461043d578063cae9ca511461045057600080fd5b8063970875ce116100de578063970875ce146103ec5780639711715a146103f4578063981b24d0146103fc578063a217fddf1461040f57600080fd5b806379cc67901461037357806391d14854146103865780639321478c146103bd57806395d89b41146103e457600080fd5b806336568abe1161018757806342966c681161015657806342966c68146102fd5780634ee2cd7e146103105780637028e2cd1461032357806370a082311461034a57600080fd5b806336568abe146102b157806339509351146102c4578063423f6cef146102d757806342842e0e146102ea57600080fd5b806323b872dd116101c357806323b872dd14610257578063248a9ca31461026a5780632f2ff15d1461028d578063313ce567146102a257600080fd5b806301ffc9a7146101f557806306fdde031461021d578063095ea7b31461023257806318160ddd14610245575b600080fd5b610208610203366004611c15565b6104e5565b60405190151581526020015b60405180910390f35b610225610517565b6040516102149190611d52565b610208610240366004611b5d565b6105a9565b6003545b604051908152602001610214565b610208610265366004611abc565b6105c1565b610249610278366004611bdb565b60009081526020819052604090206001015490565b6102a061029b366004611bf3565b6105e5565b005b60405160128152602001610214565b6102a06102bf366004611bf3565b61060f565b6102086102d2366004611b5d565b6106a0565b6102a06102e5366004611b5d565b6106df565b6102a06102f8366004611abc565b6106f9565b6102a061030b366004611bdb565b610714565b61024961031e366004611b5d565b610721565b6102497f5fdbd35e8da83ee755d5e62a539e5ed7f47126abede0b8b10f9ea43dc6eed07f81565b610249610358366004611a70565b6001600160a01b031660009081526001602052604090205490565b6102a0610381366004611b5d565b610762565b610208610394366004611bf3565b6000918252602082815260408084206001600160a01b0393909316845291905290205460ff1690565b6103cb636578737160e01b81565b6040516001600160e01b03199091168152602001610214565b6102256107e3565b6102496107f2565b610249610802565b61024961040a366004611bdb565b61083c565b610249600081565b610208610425366004611b5d565b610865565b610208610438366004611b5d565b6108f7565b6102a061044b366004611af7565b610905565b61020861045e366004611b86565b610988565b6102a0610471366004611bf3565b6109a9565b610249610484366004611a8a565b6001600160a01b03918216600090815260026020908152604080832093909416825291909152205490565b6102a06104bd366004611b86565b6109ce565b6102086104d0366004611c15565b60066020526000908152604090205460ff1681565b6001600160e01b0319811660009081526006602052604081205460ff1680610511575061051182610a4e565b92915050565b60606004805461052690611e16565b80601f016020809104026020016040519081016040528092919081815260200182805461055290611e16565b801561059f5780601f106105745761010080835404028352916020019161059f565b820191906000526020600020905b81548152906001019060200180831161058257829003601f168201915b5050505050905090565b6000336105b7818585610a83565b5060019392505050565b6000336105cf858285610ba7565b6105da858585610c33565b506001949350505050565b60008281526020819052604090206001015461060081610de9565b61060a8383610df3565b505050565b6001600160a01b03811633146106925760405162461bcd60e51b815260206004820152602f60248201527f416363657373436f6e74726f6c3a2063616e206f6e6c792072656e6f756e636560448201527f20726f6c657320666f722073656c66000000000000000000000000000000000060648201526084015b60405180910390fd5b61069c8282610e91565b5050565b3360008181526002602090815260408083206001600160a01b03871684529091528120549091906105b790829086906106da908790611d65565b610a83565b61069c8282604051806020016040528060008152506109ce565b61060a83838360405180602001604052806000815250610905565b61071e3382610f10565b50565b60008060006107308585611050565b9150915081610757576001600160a01b038516600090815260016020526040902054610759565b805b95945050505050565b600061076e8333610484565b9050818110156107cc5760405162461bcd60e51b8152602060048201526024808201527f45524332303a206275726e20616d6f756e74206578636565647320616c6c6f77604482015263616e636560e01b6064820152608401610689565b6107d98333848403610a83565b61060a8383610f10565b60606005805461052690611e16565b60006107fd600a5490565b905090565b60007f5fdbd35e8da83ee755d5e62a539e5ed7f47126abede0b8b10f9ea43dc6eed07f61082e81610de9565b610836611088565b91505090565b600080600061084a846110e2565b915091508161085b5760035461085d565b805b949350505050565b3360008181526002602090815260408083206001600160a01b0387168452909152812054909190838110156108ea5760405162461bcd60e51b815260206004820152602560248201527f45524332303a2064656372656173656420616c6c6f77616e63652062656c6f77604482015264207a65726f60d81b6064820152608401610689565b6105da8286868403610a83565b6000336105b7818585610c33565b6109108484846105c1565b5061091d848484846110ff565b6109825760405162461bcd60e51b815260206004820152603060248201527f45524332303a207472616e7366657220746f206e6f6e2045524332305265636560448201526f34bb32b91034b6b83632b6b2b73a32b960811b6064820152608401610689565b50505050565b600061099484846105a9565b61099d57600080fd5b6105b7338585856111bd565b6000828152602081905260409020600101546109c481610de9565b61060a8383610e91565b6109d883836108f7565b506109e5338484846110ff565b61060a5760405162461bcd60e51b815260206004820152603060248201527f45524332303a207472616e7366657220746f206e6f6e2045524332305265636560448201526f34bb32b91034b6b83632b6b2b73a32b960811b6064820152608401610689565b5490565b60006001600160e01b03198216637965db0b60e01b148061051157506301ffc9a760e01b6001600160e01b0319831614610511565b6001600160a01b038316610ae55760405162461bcd60e51b8152602060048201526024808201527f45524332303a20617070726f76652066726f6d20746865207a65726f206164646044820152637265737360e01b6064820152608401610689565b6001600160a01b038216610b465760405162461bcd60e51b815260206004820152602260248201527f45524332303a20617070726f766520746f20746865207a65726f206164647265604482015261737360f01b6064820152608401610689565b6001600160a01b0383811660008181526002602090815260408083209487168084529482529182902085905590518481527f8c5be1e5ebec7d5bd14f71427d1e84f3dd0314c0f7b2291e5b200ac8c7c3b925910160405180910390a3505050565b6001600160a01b0383811660009081526002602090815260408083209386168352929052205460001981146109825781811015610c265760405162461bcd60e51b815260206004820152601d60248201527f45524332303a20696e73756666696369656e7420616c6c6f77616e63650000006044820152606401610689565b6109828484848403610a83565b6001600160a01b038316610c975760405162461bcd60e51b815260206004820152602560248201527f45524332303a207472616e736665722066726f6d20746865207a65726f206164604482015264647265737360d81b6064820152608401610689565b6001600160a01b038216610cf95760405162461bcd60e51b815260206004820152602360248201527f45524332303a207472616e7366657220746f20746865207a65726f206164647260448201526265737360e81b6064820152608401610689565b610d0483838361137a565b6001600160a01b03831660009081526001602052604090205481811015610d7c5760405162461bcd60e51b815260206004820152602660248201527f45524332303a207472616e7366657220616d6f756e7420657863656564732062604482015265616c616e636560d01b6064820152608401610689565b6001600160a01b0380851660008181526001602052604080822086860390559286168082529083902080548601905591517fddf252ad1be2c89b69c2b068fc378daa952ba7f163c4a11628f55a4df523b3ef90610ddc9086815260200190565b60405180910390a3610982565b61071e81336113c2565b6000828152602081815260408083206001600160a01b038516845290915290205460ff1661069c576000828152602081815260408083206001600160a01b03851684529091529020805460ff19166001179055610e4d3390565b6001600160a01b0316816001600160a01b0316837f2f8788117e7eff1d82e926ec794901d17c78024a50270940304540a733656f0d60405160405180910390a45050565b6000828152602081815260408083206001600160a01b038516845290915290205460ff161561069c576000828152602081815260408083206001600160a01b0385168085529252808320805460ff1916905551339285917ff6391f5c32d9c69d2a47ea670b442974b53935d1edc7fd64eb21e047a839171b9190a45050565b6001600160a01b038216610f705760405162461bcd60e51b815260206004820152602160248201527f45524332303a206275726e2066726f6d20746865207a65726f206164647265736044820152607360f81b6064820152608401610689565b610f7c8260008361137a565b6001600160a01b03821660009081526001602052604090205481811015610ff05760405162461bcd60e51b815260206004820152602260248201527f45524332303a206275726e20616d6f756e7420657863656564732062616c616e604482015261636560f01b6064820152608401610689565b6001600160a01b03831660008181526001602090815260408083208686039055600380548790039055518581529192917fddf252ad1be2c89b69c2b068fc378daa952ba7f163c4a11628f55a4df523b3ef910160405180910390a3505050565b6001600160a01b0382166000908152600760205260408120819081908190611079908690611435565b909450925050505b9250929050565b6000611098600a80546001019055565b60006110a26107f2565b90507f8030e83b04d87bef53480e26263266d6ca66863aa8506aca6f2559d18aa1cb67816040516110d591815260200190565b60405180910390a1919050565b6000806000806110f3856008611435565b90969095509350505050565b60006001600160a01b0384163b6111185750600161085d565b604051634fc3585960e01b81526000906001600160a01b03861690634fc358599061114d9033908a9089908990600401611d16565b602060405180830381600087803b15801561116757600080fd5b505af115801561117b573d6000803e3d6000fd5b505050506040513d601f19601f8201168201806040525081019061119f9190611c31565b6001600160e01b031916634fc3585960e01b14915050949350505050565b632139e50b60e11b6111cf848261153e565b6112415760405162461bcd60e51b815260206004820152603160248201527f617070726f7665416e6443616c6c3a207370656e64657220646f65736e27742060448201527f737570706f7274206f6e417070726f76650000000000000000000000000000006064820152608401610689565b600080856001600160a01b031683888888886040516024016112669493929190611d16565b60408051601f198184030181529181526020820180516001600160e01b03166001600160e01b03199094169390931790925290516112a49190611c79565b6000604051808303816000865af19150503d80600081146112e1576040519150601f19603f3d011682016040523d82523d6000602084013e6112e6565b606091505b509150915081819061130b5760405162461bcd60e51b81526004016106899190611d52565b5060208101519150816113715760405162461bcd60e51b815260206004820152602860248201527f617070726f7665416e6443616c6c3a206661696c656420746f2063616c6c206f6044820152676e417070726f766560c01b6064820152608401610689565b50505050505050565b6001600160a01b0383166113995761139182611561565b61060a6115a0565b6001600160a01b0382166113b05761139183611561565b6113b983611561565b61060a82611561565b6000828152602081815260408083206001600160a01b038516845290915290205460ff1661069c576113f3816115af565b6113fe8360206115c1565b60405160200161140f929190611c95565b60408051601f198184030181529082905262461bcd60e51b825261068991600401611d52565b600080600084116114885760405162461bcd60e51b815260206004820152601660248201527f4552433230536e617073686f743a2069642069732030000000000000000000006044820152606401610689565b6114906107f2565b8411156114df5760405162461bcd60e51b815260206004820152601d60248201527f4552433230536e617073686f743a206e6f6e6578697374656e742069640000006044820152606401610689565b60006114eb84866117b0565b8454909150811415611504576000809250925050611081565b600184600101828154811061152957634e487b7160e01b600052603260045260246000fd5b90600052602060002001549250925050611081565b60006115498361185b565b801561155a575061155a838361188e565b9392505050565b61071e611582826001600160a01b0316600090815260076020526040902090565b6001600160a01b038316600090815260016020526040902054611917565b6115ad6008600354611917565b565b60606105116001600160a01b03831660145b606060006115d0836002611d9d565b6115db906002611d65565b67ffffffffffffffff81111561160157634e487b7160e01b600052604160045260246000fd5b6040519080825280601f01601f19166020018201604052801561162b576020820181803683370190505b509050600360fc1b8160008151811061165457634e487b7160e01b600052603260045260246000fd5b60200101906001600160f81b031916908160001a905350600f60fb1b8160018151811061169157634e487b7160e01b600052603260045260246000fd5b60200101906001600160f81b031916908160001a90535060006116b5846002611d9d565b6116c0906001611d65565b90505b6001811115611761577f303132333435363738396162636465660000000000000000000000000000000085600f166010811061170f57634e487b7160e01b600052603260045260246000fd5b1a60f81b82828151811061173357634e487b7160e01b600052603260045260246000fd5b60200101906001600160f81b031916908160001a90535060049490941c9361175a81611dff565b90506116c3565b50831561155a5760405162461bcd60e51b815260206004820181905260248201527f537472696e67733a20686578206c656e67746820696e73756666696369656e746044820152606401610689565b81546000906117c157506000610511565b82546000905b8082101561180e5760006117db8383611961565b600087815260209020909150859082015411156117fa57809150611808565b611805816001611d65565b92505b506117c7565b60008211801561183a57508361183786611829600186611dbc565b600091825260209091200190565b54145b156118535761184a600183611dbc565b92505050610511565b509050610511565b600061186e826301ffc9a760e01b61188e565b80156105115750611887826001600160e01b031961188e565b1592915050565b604080516001600160e01b03198316602480830191909152825180830390910181526044909101909152602080820180516001600160e01b03166301ffc9a760e01b178152825160009392849283928392918391908a617530fa92503d91506000519050828015611900575060208210155b801561190c5750600081115b979650505050505050565b60006119216107f2565b90508061192d8461197c565b101561060a578254600180820185556000858152602080822090930193909355938401805494850181558252902090910155565b60006119706002848418611d7d565b61155a90848416611d65565b805460009061198d57506000919050565b8154829061199d90600190611dbc565b815481106119bb57634e487b7160e01b600052603260045260246000fd5b90600052602060002001549050919050565b919050565b80356001600160a01b03811681146119cd57600080fd5b600082601f8301126119f9578081fd5b813567ffffffffffffffff80821115611a1457611a14611e67565b604051601f8301601f19908116603f01168101908282118183101715611a3c57611a3c611e67565b81604052838152866020858801011115611a54578485fd5b8360208701602083013792830160200193909352509392505050565b600060208284031215611a81578081fd5b61155a826119d2565b60008060408385031215611a9c578081fd5b611aa5836119d2565b9150611ab3602084016119d2565b90509250929050565b600080600060608486031215611ad0578081fd5b611ad9846119d2565b9250611ae7602085016119d2565b9150604084013590509250925092565b60008060008060808587031215611b0c578081fd5b611b15856119d2565b9350611b23602086016119d2565b925060408501359150606085013567ffffffffffffffff811115611b45578182fd5b611b51878288016119e9565b91505092959194509250565b60008060408385031215611b6f578182fd5b611b78836119d2565b946020939093013593505050565b600080600060608486031215611b9a578283fd5b611ba3846119d2565b925060208401359150604084013567ffffffffffffffff811115611bc5578182fd5b611bd1868287016119e9565b9150509250925092565b600060208284031215611bec578081fd5b5035919050565b60008060408385031215611c05578182fd5b82359150611ab3602084016119d2565b600060208284031215611c26578081fd5b813561155a81611e7d565b600060208284031215611c42578081fd5b815161155a81611e7d565b60008151808452611c65816020860160208601611dd3565b601f01601f19169290920160200192915050565b60008251611c8b818460208701611dd3565b9190910192915050565b7f416363657373436f6e74726f6c3a206163636f756e7420000000000000000000815260008351611ccd816017850160208801611dd3565b7f206973206d697373696e6720726f6c65200000000000000000000000000000006017918401918201528351611d0a816028840160208801611dd3565b01602801949350505050565b60006001600160a01b03808716835280861660208401525083604083015260806060830152611d486080830184611c4d565b9695505050505050565b60208152600061155a6020830184611c4d565b60008219821115611d7857611d78611e51565b500190565b600082611d9857634e487b7160e01b81526012600452602481fd5b500490565b6000816000190483118215151615611db757611db7611e51565b500290565b600082821015611dce57611dce611e51565b500390565b60005b83811015611dee578181015183820152602001611dd6565b838111156109825750506000910152565b600081611e0e57611e0e611e51565b506000190190565b600181811c90821680611e2a57607f821691505b60208210811415611e4b57634e487b7160e01b600052602260045260246000fd5b50919050565b634e487b7160e01b600052601160045260246000fd5b634e487b7160e01b600052604160045260246000fd5b6001600160e01b03198116811461071e57600080fdfea164736f6c6343000804000a",
  "linkReferences": {},
  "deployedLinkReferences": {}
}