{
  "_format": "hh-sol-artifact-1",
  "contractName": "TokamakPaymaster",
  "sourceName": "contracts/TokamakPaymaster.sol",
  "abi": [
    {
      "inputs": [
        {
          "internalType": "contract IEntryPoint",
          "name": "_entryPoint",
          "type": "address"
        }
      ],
      "stateMutability": "nonpayable",
      "type": "constructor"
    },
    {
      "anonymous": false,
      "inputs": [
        {
          "indexed": false,
          "internalType": "address",
          "name": "token",
          "type": "address"
        },
        {
          "indexed": false,
          "internalType": "address",
          "name": "account",
          "type": "address"
        },
        {
          "indexed": false,
          "internalType": "uint256",
          "name": "amount",
          "type": "uint256"
        }
      ],
      "name": "AddedDepositFor",
      "type": "event"
    },
    {
      "anonymous": false,
      "inputs": [
        {
          "indexed": false,
          "internalType": "address",
          "name": "token",
          "type": "address"
        },
        {
          "indexed": false,
          "internalType": "address",
          "name": "oracle",
          "type": "address"
        }
      ],
      "name": "AddedToken",
      "type": "event"
    },
    {
      "anonymous": false,
      "inputs": [
        {
          "indexed": false,
          "internalType": "address",
          "name": "token",
          "type": "address"
        },
        {
          "indexed": false,
          "internalType": "address",
          "name": "oracle",
          "type": "address"
        }
      ],
      "name": "ChnagedOracle",
      "type": "event"
    },
    {
      "anonymous": false,
      "inputs": [
        {
          "indexed": false,
          "internalType": "address",
          "name": "account",
          "type": "address"
        },
        {
          "indexed": false,
          "internalType": "address",
          "name": "token",
          "type": "address"
        },
        {
          "indexed": false,
          "internalType": "uint256",
          "name": "amount",
          "type": "uint256"
        }
      ],
      "name": "InsufficientDepositToken",
      "type": "event"
    },
    {
      "anonymous": false,
      "inputs": [
        {
          "indexed": true,
          "internalType": "address",
          "name": "previousOwner",
          "type": "address"
        },
        {
          "indexed": true,
          "internalType": "address",
          "name": "newOwner",
          "type": "address"
        }
      ],
      "name": "OwnershipTransferred",
      "type": "event"
    },
    {
      "anonymous": false,
      "inputs": [
        {
          "indexed": false,
          "internalType": "enum IPaymaster.PostOpMode",
          "name": "mode",
          "type": "uint8"
        },
        {
          "indexed": false,
          "internalType": "address",
          "name": "account",
          "type": "address"
        },
        {
          "indexed": false,
          "internalType": "address",
          "name": "token",
          "type": "address"
        },
        {
          "indexed": false,
          "internalType": "uint256",
          "name": "gasPricePostOp",
          "type": "uint256"
        },
        {
          "indexed": false,
          "internalType": "uint256",
          "name": "maxTokenCost",
          "type": "uint256"
        },
        {
          "indexed": false,
          "internalType": "uint256",
          "name": "maxCost",
          "type": "uint256"
        },
        {
          "indexed": false,
          "internalType": "uint256",
          "name": "actualGasCost",
          "type": "uint256"
        }
      ],
      "name": "PostOp",
      "type": "event"
    },
    {
      "anonymous": false,
      "inputs": [
        {
          "indexed": false,
          "internalType": "address",
          "name": "token",
          "type": "address"
        },
        {
          "indexed": false,
          "internalType": "address",
          "name": "target",
          "type": "address"
        },
        {
          "indexed": false,
          "internalType": "uint256",
          "name": "amount",
          "type": "uint256"
        }
      ],
      "name": "WithdrawTokensTo",
      "type": "event"
    },
    {
      "inputs": [],
      "name": "COST_OF_POST",
      "outputs": [
        {
          "internalType": "uint256",
          "name": "",
          "type": "uint256"
        }
      ],
      "stateMutability": "view",
      "type": "function"
    },
    {
      "inputs": [
        {
          "internalType": "contract IERC20",
          "name": "token",
          "type": "address"
        },
        {
          "internalType": "address",
          "name": "account",
          "type": "address"
        },
        {
          "internalType": "uint256",
          "name": "amount",
          "type": "uint256"
        }
      ],
      "name": "addDepositFor",
      "outputs": [],
      "stateMutability": "nonpayable",
      "type": "function"
    },
    {
      "inputs": [
        {
          "internalType": "uint32",
          "name": "unstakeDelaySec",
          "type": "uint32"
        }
      ],
      "name": "addStake",
      "outputs": [],
      "stateMutability": "payable",
      "type": "function"
    },
    {
      "inputs": [
        {
          "internalType": "contract IERC20",
          "name": "token",
          "type": "address"
        },
        {
          "internalType": "contract IOracle",
          "name": "tokenPriceOracle",
          "type": "address"
        }
      ],
      "name": "addToken",
      "outputs": [],
      "stateMutability": "nonpayable",
      "type": "function"
    },
    {
      "inputs": [
        {
          "internalType": "contract IERC20",
          "name": "",
          "type": "address"
        },
        {
          "internalType": "address",
          "name": "",
          "type": "address"
        }
      ],
      "name": "balances",
      "outputs": [
        {
          "internalType": "uint256",
          "name": "",
          "type": "uint256"
        }
      ],
      "stateMutability": "view",
      "type": "function"
    },
    {
      "inputs": [],
      "name": "deposit",
      "outputs": [],
      "stateMutability": "payable",
      "type": "function"
    },
    {
      "inputs": [
        {
          "internalType": "contract IERC20",
          "name": "token",
          "type": "address"
        },
        {
          "internalType": "address",
          "name": "account",
          "type": "address"
        }
      ],
      "name": "depositInfo",
      "outputs": [
        {
          "internalType": "uint256",
          "name": "amount",
          "type": "uint256"
        },
        {
          "internalType": "uint256",
          "name": "_unlockBlock",
          "type": "uint256"
        }
      ],
      "stateMutability": "view",
      "type": "function"
    },
    {
      "inputs": [],
      "name": "entryPoint",
      "outputs": [
        {
          "internalType": "contract IEntryPoint",
          "name": "",
          "type": "address"
        }
      ],
      "stateMutability": "view",
      "type": "function"
    },
    {
      "inputs": [],
      "name": "getDeposit",
      "outputs": [
        {
          "internalType": "uint256",
          "name": "",
          "type": "uint256"
        }
      ],
      "stateMutability": "view",
      "type": "function"
    },
    {
      "inputs": [],
      "name": "lockTokenDeposit",
      "outputs": [],
      "stateMutability": "nonpayable",
      "type": "function"
    },
    {
      "inputs": [
        {
          "internalType": "contract IERC20",
          "name": "",
          "type": "address"
        }
      ],
      "name": "oracles",
      "outputs": [
        {
          "internalType": "contract IOracle",
          "name": "",
          "type": "address"
        }
      ],
      "stateMutability": "view",
      "type": "function"
    },
    {
      "inputs": [],
      "name": "owner",
      "outputs": [
        {
          "internalType": "address",
          "name": "",
          "type": "address"
        }
      ],
      "stateMutability": "view",
      "type": "function"
    },
    {
      "inputs": [
        {
          "internalType": "enum IPaymaster.PostOpMode",
          "name": "mode",
          "type": "uint8"
        },
        {
          "internalType": "bytes",
          "name": "context",
          "type": "bytes"
        },
        {
          "internalType": "uint256",
          "name": "actualGasCost",
          "type": "uint256"
        }
      ],
      "name": "postOp",
      "outputs": [],
      "stateMutability": "nonpayable",
      "type": "function"
    },
    {
      "inputs": [],
      "name": "renounceOwnership",
      "outputs": [],
      "stateMutability": "nonpayable",
      "type": "function"
    },
    {
      "inputs": [
        {
          "internalType": "address",
          "name": "newOwner",
          "type": "address"
        }
      ],
      "name": "transferOwnership",
      "outputs": [],
      "stateMutability": "nonpayable",
      "type": "function"
    },
    {
      "inputs": [
        {
          "internalType": "address",
          "name": "",
          "type": "address"
        }
      ],
      "name": "unlockBlock",
      "outputs": [
        {
          "internalType": "uint256",
          "name": "",
          "type": "uint256"
        }
      ],
      "stateMutability": "view",
      "type": "function"
    },
    {
      "inputs": [],
      "name": "unlockStake",
      "outputs": [],
      "stateMutability": "nonpayable",
      "type": "function"
    },
    {
      "inputs": [],
      "name": "unlockTokenDeposit",
      "outputs": [],
      "stateMutability": "nonpayable",
      "type": "function"
    },
    {
      "inputs": [
        {
          "components": [
            {
              "internalType": "address",
              "name": "sender",
              "type": "address"
            },
            {
              "internalType": "uint256",
              "name": "nonce",
              "type": "uint256"
            },
            {
              "internalType": "bytes",
              "name": "initCode",
              "type": "bytes"
            },
            {
              "internalType": "bytes",
              "name": "callData",
              "type": "bytes"
            },
            {
              "internalType": "uint256",
              "name": "callGasLimit",
              "type": "uint256"
            },
            {
              "internalType": "uint256",
              "name": "verificationGasLimit",
              "type": "uint256"
            },
            {
              "internalType": "uint256",
              "name": "preVerificationGas",
              "type": "uint256"
            },
            {
              "internalType": "uint256",
              "name": "maxFeePerGas",
              "type": "uint256"
            },
            {
              "internalType": "uint256",
              "name": "maxPriorityFeePerGas",
              "type": "uint256"
            },
            {
              "internalType": "bytes",
              "name": "paymasterAndData",
              "type": "bytes"
            },
            {
              "internalType": "bytes",
              "name": "signature",
              "type": "bytes"
            }
          ],
          "internalType": "struct UserOperation",
          "name": "userOp",
          "type": "tuple"
        },
        {
          "internalType": "bytes32",
          "name": "userOpHash",
          "type": "bytes32"
        },
        {
          "internalType": "uint256",
          "name": "maxCost",
          "type": "uint256"
        }
      ],
      "name": "validatePaymasterUserOp",
      "outputs": [
        {
          "internalType": "bytes",
          "name": "context",
          "type": "bytes"
        },
        {
          "internalType": "uint256",
          "name": "validationData",
          "type": "uint256"
        }
      ],
      "stateMutability": "nonpayable",
      "type": "function"
    },
    {
      "inputs": [
        {
          "internalType": "address payable",
          "name": "withdrawAddress",
          "type": "address"
        }
      ],
      "name": "withdrawStake",
      "outputs": [],
      "stateMutability": "nonpayable",
      "type": "function"
    },
    {
      "inputs": [
        {
          "internalType": "address payable",
          "name": "withdrawAddress",
          "type": "address"
        },
        {
          "internalType": "uint256",
          "name": "amount",
          "type": "uint256"
        }
      ],
      "name": "withdrawTo",
      "outputs": [],
      "stateMutability": "nonpayable",
      "type": "function"
    },
    {
      "inputs": [
        {
          "internalType": "contract IERC20",
          "name": "token",
          "type": "address"
        },
        {
          "internalType": "address",
          "name": "target",
          "type": "address"
        },
        {
          "internalType": "uint256",
          "name": "amount",
          "type": "uint256"
        }
      ],
      "name": "withdrawTokensTo",
      "outputs": [],
      "stateMutability": "nonpayable",
      "type": "function"
    }
  ],
  "bytecode": "0x60a06040523480156200001157600080fd5b5060405162001ea938038062001ea98339810160408190526200003491620000bb565b8062000040336200006b565b6001600160a01b031660805262000064336000908152600360205260409020439055565b50620000ed565b600080546001600160a01b038381166001600160a01b0319831681178455604051919092169283917f8be0079c531659141344cd1fd0a4f28419497f9722a3daafe3b4186f6b6457e09190a35050565b600060208284031215620000ce57600080fd5b81516001600160a01b0381168114620000e657600080fd5b9392505050565b608051611d6f6200013a6000396000818161033f0152818161049d0152818161053401528181610845015281816108d90152818161095001528181610ae70152610cdd0152611d6f6000f3fe6080604052600436106101355760003560e01c8063addd5099116100ab578063c399ec881161006f578063c399ec88146103ce578063cc9c837c146103e3578063cd8f80c214610403578063d0e30db014610425578063f2fde38b1461042d578063f465c77e1461044d57600080fd5b8063addd5099146102f7578063b0d691fe1461032d578063bb9fe6bf14610361578063c23a5cea14610376578063c23f001f1461039657600080fd5b80635476bd72116100fd5780635476bd7214610236578063715018a614610256578063796d43711461026b5780638da5cb5b146102815780639ed0fb68146102b3578063a9a23409146102d757600080fd5b80630396cb601461013a578063205c28781461014f578063382edd9e1461016f578063493b01701461018f5780634a6f84cf146101fb575b600080fd5b61014d61014836600461185f565b61047b565b005b34801561015b57600080fd5b5061014d61016a36600461189a565b610506565b34801561017b57600080fd5b5061014d61018a3660046118c6565b610578565b34801561019b57600080fd5b506101e16101aa366004611907565b6001600160a01b03918216600090815260026020908152604080832093909416825291825282812054600390925291909120549091565b604080519283526020830191909152015b60405180910390f35b34801561020757600080fd5b50610228610216366004611940565b60036020526000908152604090205481565b6040519081526020016101f2565b34801561024257600080fd5b5061014d610251366004611907565b61068e565b34801561026257600080fd5b5061014d61080d565b34801561027757600080fd5b506102286188b881565b34801561028d57600080fd5b506000546001600160a01b03165b6040516001600160a01b0390911681526020016101f2565b3480156102bf57600080fd5b5061014d336000908152600360205260409020439055565b3480156102e357600080fd5b5061014d6102f236600461195d565b610821565b34801561030357600080fd5b5061029b610312366004611940565b6001602052600090815260409020546001600160a01b031681565b34801561033957600080fd5b5061029b7f000000000000000000000000000000000000000000000000000000000000000081565b34801561036d57600080fd5b5061014d61083b565b34801561038257600080fd5b5061014d610391366004611940565b6108b2565b3480156103a257600080fd5b506102286103b1366004611907565b600260209081526000928352604080842090915290825290205481565b3480156103da57600080fd5b50610228610938565b3480156103ef57600080fd5b5061014d6103fe3660046118c6565b6109c8565b34801561040f57600080fd5b5061014d33600090815260036020526040812055565b61014d610ad2565b34801561043957600080fd5b5061014d610448366004611940565b610b34565b34801561045957600080fd5b5061046d6104683660046119ec565b610bad565b6040516101f2929190611a98565b610483610bd0565b604051621cb65b60e51b815263ffffffff821660048201527f00000000000000000000000000000000000000000000000000000000000000006001600160a01b031690630396cb609034906024016000604051808303818588803b1580156104ea57600080fd5b505af11580156104fe573d6000803e3d6000fd5b505050505050565b61050e610bd0565b60405163040b850f60e31b81526001600160a01b038381166004830152602482018390527f0000000000000000000000000000000000000000000000000000000000000000169063205c287890604401600060405180830381600087803b1580156104ea57600080fd5b6001600160a01b03838116600090815260016020526040902054166105d85760405162461bcd60e51b81526020600482015260116024820152703ab739bab83837b93a32b2103a37b5b2b760791b60448201526064015b60405180910390fd5b6105ed6001600160a01b038416333084610c2a565b6001600160a01b03808416600090815260026020908152604080832093861683529290529081208054839290610624908490611ad0565b90915550506001600160a01b038216330361064e5761064e33600090815260036020526040812055565b7f0ab8578ff65626ad8321804f7cb288ea085cf656aeeba75c88157050a28c0bcb83838360405161068193929190611ae8565b60405180910390a1505050565b610696610bd0565b6001600160a01b0381166106da5760405162461bcd60e51b815260206004820152600b60248201526a7a65726f206f7261636c6560a81b60448201526064016105cf565b6001600160a01b038281166000908152600160205260409020548183169116036107345760405162461bcd60e51b815260206004820152600b60248201526a73616d65206f7261636c6560a81b60448201526064016105cf565b6001600160a01b038281166000908152600160205260409020541661079b57604080516001600160a01b038085168252831660208201527fb688caad5e1d3e1a0fe69a509504a4849096cc519f7c542e07b8a9dbc7993e56910160405180910390a16107df565b604080516001600160a01b038085168252831660208201527f0aba602979185f8791e742b105a5e7d4a7885e9b09876cf328b9d215777b8385910160405180910390a15b6001600160a01b03918216600090815260016020526040902080546001600160a01b03191691909216179055565b610815610bd0565b61081f6000610c82565b565b610829610cd2565b61083584848484610d42565b50505050565b610843610bd0565b7f00000000000000000000000000000000000000000000000000000000000000006001600160a01b031663bb9fe6bf6040518163ffffffff1660e01b8152600401600060405180830381600087803b15801561089e57600080fd5b505af1158015610835573d6000803e3d6000fd5b6108ba610bd0565b60405163611d2e7560e11b81526001600160a01b0382811660048301527f0000000000000000000000000000000000000000000000000000000000000000169063c23a5cea90602401600060405180830381600087803b15801561091d57600080fd5b505af1158015610931573d6000803e3d6000fd5b5050505050565b6040516370a0823160e01b81523060048201526000907f00000000000000000000000000000000000000000000000000000000000000006001600160a01b0316906370a0823190602401602060405180830381865afa15801561099f573d6000803e3d6000fd5b505050506040513d601f19601f820116820180604052508101906109c39190611b0c565b905090565b33600090815260036020526040902054158015906109f457503360009081526003602052604090205443115b610a525760405162461bcd60e51b815260206004820152602960248201527f4465706f7369745061796d61737465723a206d75737420756e6c6f636b546f6b604482015268195b91195c1bdcda5d60ba1b60648201526084016105cf565b6001600160a01b038316600090815260026020908152604080832033845290915281208054839290610a85908490611b25565b90915550610a9f90506001600160a01b0384168383611134565b7fdfeb8faeaaf240b55dc136db1ffeb54618ed0272375af959b42b4558c2e7d6da83838360405161068193929190611ae8565b60405163b760faf960e01b81523060048201527f00000000000000000000000000000000000000000000000000000000000000006001600160a01b03169063b760faf99034906024016000604051808303818588803b15801561091d57600080fd5b610b3c610bd0565b6001600160a01b038116610ba15760405162461bcd60e51b815260206004820152602660248201527f4f776e61626c653a206e6577206f776e657220697320746865207a65726f206160448201526564647265737360d01b60648201526084016105cf565b610baa81610c82565b50565b60606000610bb9610cd2565b610bc4858585611169565b91509150935093915050565b6000546001600160a01b0316331461081f5760405162461bcd60e51b815260206004820181905260248201527f4f776e61626c653a2063616c6c6572206973206e6f7420746865206f776e657260448201526064016105cf565b610835846323b872dd60e01b858585604051602401610c4b93929190611ae8565b60408051601f198184030181529190526020810180516001600160e01b03166001600160e01b0319909316929092179091526114dc565b600080546001600160a01b038381166001600160a01b0319831681178455604051919092169283917f8be0079c531659141344cd1fd0a4f28419497f9722a3daafe3b4186f6b6457e09190a35050565b336001600160a01b037f0000000000000000000000000000000000000000000000000000000000000000161461081f5760405162461bcd60e51b815260206004820152601560248201527414d95b99195c881b9bdd08115b9d1c9e541bda5b9d605a1b60448201526064016105cf565b600080808080610d5487890189611b3c565b9450945094509450945060008183856188b8610d709190611b8d565b610d7a908a611ad0565b610d849190611b8d565b610d8e9190611bac565b6040516370a0823160e01b81526001600160a01b0388811660048301529192506000918716906370a0823190602401602060405180830381865afa158015610dda573d6000803e3d6000fd5b505050506040513d601f19601f82011682018060405250810190610dfe9190611b0c565b604051636eb1769f60e11b81526001600160a01b03898116600483015230602483015291925060009188169063dd62ed3e90604401602060405180830381865afa158015610e50573d6000803e3d6000fd5b505050506040513d601f19601f82011682018060405250810190610e749190611b0c565b905060028c6002811115610e8a57610e8a611bce565b14610f7d5782811015610f0c576001600160a01b038088166000908152600260209081526040808320938c1683529290522054831115610f0c5760405162461bcd60e51b815260206004820152601860248201527f546f6b656e4465706f736974496e73756666696369656e74000000000000000060448201526064016105cf565b828110158015610f1c5750828210155b15610f3b57610f366001600160a01b038816893086610c2a565b611081565b6001600160a01b038088166000908152600260209081526040808320938c1683529290529081208054859290610f72908490611b25565b909155506110819050565b6001600160a01b038088166000908152600260209081526040808320938c1683529290522054831115611044576001600160a01b038088166000908152600260209081526040808320938c16835292905220547f085b32eef15e4f477464d44f62b721faaf2b66ae1b68215e69ed5d4dcff7580090899089906110009087611b25565b60405161100f93929190611ae8565b60405180910390a16001600160a01b038088166000908152600260209081526040808320938c16835292905290812055611081565b6001600160a01b038088166000908152600260209081526040808320938c168352929052908120805485929061107b908490611b25565b90915550505b6001600160a01b038716600090815260026020526040812084916110ad6000546001600160a01b031690565b6001600160a01b03166001600160a01b0316815260200190815260200160002060008282546110dc9190611ad0565b925050819055507fcbfe5d4ee225b641c69926bfc10df05a27142ac62b79a1e3272afd44aaaeeb4e8c89898989898f60405161111e9796959493929190611be4565b60405180910390a1505050505050505050505050565b6040516001600160a01b03831660248201526044810182905261116490849063a9059cbb60e01b90606401610c4b565b505050565b606060006188b88560a00135116111d35760405162461bcd60e51b815260206004820152602860248201527f4465706f7369745061796d61737465723a2067617320746f6f206c6f7720666f60448201526707220706f73744f760c41b60648201526084016105cf565b3660006111e4610120880188611c3b565b9092509050602881146112575760405162461bcd60e51b815260206004820152603560248201527f4465706f7369745061796d61737465723a207061796d6173746572416e6444616044820152743a309036bab9ba1039b832b1b4b33c903a37b5b2b760591b60648201526084016105cf565b60006112668260148186611c89565b61126f91611cb3565b60601c90508735600061128283896115b1565b9050600061128f8b611698565b6001600160a01b038416600090815260036020526040902054909150156113045760405162461bcd60e51b8152602060048201526024808201527f4465706f7369745061796d61737465723a206465706f736974206e6f74206c6f60448201526318dad95960e21b60648201526084016105cf565b6001600160a01b0380851660009081526002602090815260408083209387168352929052205482111561148e57604051636eb1769f60e11b81526001600160a01b03848116600483015230602483015283919086169063dd62ed3e90604401602060405180830381865afa158015611380573d6000803e3d6000fd5b505050506040513d601f19601f820116820180604052508101906113a49190611b0c565b1015801561141c57506040516370a0823160e01b81526001600160a01b0384811660048301528391908616906370a0823190602401602060405180830381865afa1580156113f6573d6000803e3d6000fd5b505050506040513d601f19601f8201168201806040525081019061141a9190611b0c565b115b61148e5760405162461bcd60e51b815260206004820152603f60248201527f4465706f7369745061796d61737465723a20616c6c6f77616e63652862616c6160448201527f6e636529206f72206465706f73697420697320696e73756666696369656e740060648201526084016105cf565b604080516001600160a01b03948516602082015294909316848401526060840152608083015260a0808301979097528051808303909701875260c09091019052509295600095509350505050565b6000611531826040518060400160405280602081526020017f5361666545524332303a206c6f772d6c6576656c2063616c6c206661696c6564815250856001600160a01b03166116bf9092919063ffffffff16565b90508051600014806115525750808060200190518101906115529190611ce8565b6111645760405162461bcd60e51b815260206004820152602a60248201527f5361666545524332303a204552433230206f7065726174696f6e20646964206e6044820152691bdd081cdd58d8d9595960b21b60648201526084016105cf565b6001600160a01b03808316600090815260016020526040812054909116806116275760405162461bcd60e51b815260206004820152602360248201527f4465706f7369745061796d61737465723a20756e737570706f7274656420746f60448201526235b2b760e91b60648201526084016105cf565b60405163d1eca9cf60e01b8152600481018490526001600160a01b0382169063d1eca9cf90602401602060405180830381865afa15801561166c573d6000803e3d6000fd5b505050506040513d601f19601f820116820180604052508101906116909190611b0c565b949350505050565b600060e08201356101008301358082036116b3575092915050565b611690824883016116ce565b606061169084846000856116e6565b60008183106116dd57816116df565b825b9392505050565b6060824710156117475760405162461bcd60e51b815260206004820152602660248201527f416464726573733a20696e73756666696369656e742062616c616e636520666f6044820152651c8818d85b1b60d21b60648201526084016105cf565b600080866001600160a01b031685876040516117639190611d0a565b60006040518083038185875af1925050503d80600081146117a0576040519150601f19603f3d011682016040523d82523d6000602084013e6117a5565b606091505b50915091506117b6878383876117c1565b979650505050505050565b60608315611830578251600003611829576001600160a01b0385163b6118295760405162461bcd60e51b815260206004820152601d60248201527f416464726573733a2063616c6c20746f206e6f6e2d636f6e747261637400000060448201526064016105cf565b5081611690565b61169083838151156118455781518083602001fd5b8060405162461bcd60e51b81526004016105cf9190611d26565b60006020828403121561187157600080fd5b813563ffffffff811681146116df57600080fd5b6001600160a01b0381168114610baa57600080fd5b600080604083850312156118ad57600080fd5b82356118b881611885565b946020939093013593505050565b6000806000606084860312156118db57600080fd5b83356118e681611885565b925060208401356118f681611885565b929592945050506040919091013590565b6000806040838503121561191a57600080fd5b823561192581611885565b9150602083013561193581611885565b809150509250929050565b60006020828403121561195257600080fd5b81356116df81611885565b6000806000806060858703121561197357600080fd5b84356003811061198257600080fd5b9350602085013567ffffffffffffffff8082111561199f57600080fd5b818701915087601f8301126119b357600080fd5b8135818111156119c257600080fd5b8860208285010111156119d457600080fd5b95986020929092019750949560400135945092505050565b600080600060608486031215611a0157600080fd5b833567ffffffffffffffff811115611a1857600080fd5b84016101608187031215611a2b57600080fd5b95602085013595506040909401359392505050565b60005b83811015611a5b578181015183820152602001611a43565b838111156108355750506000910152565b60008151808452611a84816020860160208601611a40565b601f01601f19169290920160200192915050565b604081526000611aab6040830185611a6c565b90508260208301529392505050565b634e487b7160e01b600052601160045260246000fd5b60008219821115611ae357611ae3611aba565b500190565b6001600160a01b039384168152919092166020820152604081019190915260600190565b600060208284031215611b1e57600080fd5b5051919050565b600082821015611b3757611b37611aba565b500390565b600080600080600060a08688031215611b5457600080fd5b8535611b5f81611885565b94506020860135611b6f81611885565b94979496505050506040830135926060810135926080909101359150565b6000816000190483118215151615611ba757611ba7611aba565b500290565b600082611bc957634e487b7160e01b600052601260045260246000fd5b500490565b634e487b7160e01b600052602160045260246000fd5b60e0810160038910611c0657634e487b7160e01b600052602160045260246000fd5b9781526001600160a01b0396871660208201529490951660408501526060840192909252608083015260a082015260c0015290565b6000808335601e19843603018112611c5257600080fd5b83018035915067ffffffffffffffff821115611c6d57600080fd5b602001915036819003821315611c8257600080fd5b9250929050565b60008085851115611c9957600080fd5b83861115611ca657600080fd5b5050820193919092039150565b6bffffffffffffffffffffffff198135818116916014851015611ce05780818660140360031b1b83161692505b505092915050565b600060208284031215611cfa57600080fd5b815180151581146116df57600080fd5b60008251611d1c818460208701611a40565b9190910192915050565b6020815260006116df6020830184611a6c56fea264697066735822122054bff59e453e3ec1a46cc319ee9a6f031d1b0796899db0c10f60a348c22752f864736f6c634300080f0033",
  "linkReferences": {},
  "deployedLinkReferences": {}
}