{
  "_format": "hh-sol-artifact-1",
  "contractName": "L1TotalStos",
  "sourceName": "contracts/L1/L1TotalStos.sol",
  "abi": [
    {
      "inputs": [],
      "stateMutability": "nonpayable",
      "type": "constructor"
    },
    {
      "anonymous": false,
      "inputs": [
        {
          "indexed": true,
          "internalType": "bytes32",
          "name": "role",
          "type": "bytes32"
        },
        {
          "indexed": true,
          "internalType": "bytes32",
          "name": "previousAdminRole",
          "type": "bytes32"
        },
        {
          "indexed": true,
          "internalType": "bytes32",
          "name": "newAdminRole",
          "type": "bytes32"
        }
      ],
      "name": "RoleAdminChanged",
      "type": "event"
    },
    {
      "anonymous": false,
      "inputs": [
        {
          "indexed": true,
          "internalType": "bytes32",
          "name": "role",
          "type": "bytes32"
        },
        {
          "indexed": true,
          "internalType": "address",
          "name": "account",
          "type": "address"
        },
        {
          "indexed": true,
          "internalType": "address",
          "name": "sender",
          "type": "address"
        }
      ],
      "name": "RoleGranted",
      "type": "event"
    },
    {
      "anonymous": false,
      "inputs": [
        {
          "indexed": true,
          "internalType": "bytes32",
          "name": "role",
          "type": "bytes32"
        },
        {
          "indexed": true,
          "internalType": "address",
          "name": "account",
          "type": "address"
        },
        {
          "indexed": true,
          "internalType": "address",
          "name": "sender",
          "type": "address"
        }
      ],
      "name": "RoleRevoked",
      "type": "event"
    },
    {
      "inputs": [],
      "name": "ADMIN_ROLE",
      "outputs": [
        {
          "internalType": "bytes32",
          "name": "",
          "type": "bytes32"
        }
      ],
      "stateMutability": "view",
      "type": "function"
    },
    {
      "inputs": [],
      "name": "DEFAULT_ADMIN_ROLE",
      "outputs": [
        {
          "internalType": "bytes32",
          "name": "",
          "type": "bytes32"
        }
      ],
      "stateMutability": "view",
      "type": "function"
    },
    {
      "inputs": [],
      "name": "POLICY_ROLE",
      "outputs": [
        {
          "internalType": "bytes32",
          "name": "",
          "type": "bytes32"
        }
      ],
      "stateMutability": "view",
      "type": "function"
    },
    {
      "inputs": [
        {
          "internalType": "address",
          "name": "account",
          "type": "address"
        }
      ],
      "name": "addAdmin",
      "outputs": [],
      "stateMutability": "nonpayable",
      "type": "function"
    },
    {
      "inputs": [
        {
          "internalType": "address",
          "name": "",
          "type": "address"
        }
      ],
      "name": "aliveImplementation",
      "outputs": [
        {
          "internalType": "bool",
          "name": "",
          "type": "bool"
        }
      ],
      "stateMutability": "view",
      "type": "function"
    },
    {
      "inputs": [
        {
          "internalType": "uint256",
          "name": "",
          "type": "uint256"
        },
        {
          "internalType": "uint256",
          "name": "",
          "type": "uint256"
        }
      ],
      "name": "allLocks",
      "outputs": [
        {
          "internalType": "uint256",
          "name": "start",
          "type": "uint256"
        },
        {
          "internalType": "uint256",
          "name": "end",
          "type": "uint256"
        },
        {
          "internalType": "uint256",
          "name": "amount",
          "type": "uint256"
        },
        {
          "internalType": "bool",
          "name": "withdrawn",
          "type": "bool"
        }
      ],
      "stateMutability": "view",
      "type": "function"
    },
    {
      "inputs": [
        {
          "internalType": "bytes32",
          "name": "role",
          "type": "bytes32"
        }
      ],
      "name": "getRoleAdmin",
      "outputs": [
        {
          "internalType": "bytes32",
          "name": "",
          "type": "bytes32"
        }
      ],
      "stateMutability": "view",
      "type": "function"
    },
    {
      "inputs": [
        {
          "internalType": "bytes32",
          "name": "role",
          "type": "bytes32"
        },
        {
          "internalType": "address",
          "name": "account",
          "type": "address"
        }
      ],
      "name": "grantRole",
      "outputs": [],
      "stateMutability": "nonpayable",
      "type": "function"
    },
    {
      "inputs": [
        {
          "internalType": "bytes32",
          "name": "role",
          "type": "bytes32"
        },
        {
          "internalType": "address",
          "name": "account",
          "type": "address"
        }
      ],
      "name": "hasRole",
      "outputs": [
        {
          "internalType": "bool",
          "name": "",
          "type": "bool"
        }
      ],
      "stateMutability": "view",
      "type": "function"
    },
    {
      "inputs": [
        {
          "internalType": "address",
          "name": "account",
          "type": "address"
        }
      ],
      "name": "isAdmin",
      "outputs": [
        {
          "internalType": "bool",
          "name": "",
          "type": "bool"
        }
      ],
      "stateMutability": "view",
      "type": "function"
    },
    {
      "inputs": [
        {
          "internalType": "uint256",
          "name": "",
          "type": "uint256"
        }
      ],
      "name": "l2Infos",
      "outputs": [
        {
          "internalType": "address",
          "name": "l1Messanger",
          "type": "address"
        },
        {
          "internalType": "address",
          "name": "l2TotalStos",
          "type": "address"
        },
        {
          "internalType": "string",
          "name": "name",
          "type": "string"
        }
      ],
      "stateMutability": "view",
      "type": "function"
    },
    {
      "inputs": [],
      "name": "l2TotalCount",
      "outputs": [
        {
          "internalType": "uint256",
          "name": "",
          "type": "uint256"
        }
      ],
      "stateMutability": "view",
      "type": "function"
    },
    {
      "inputs": [
        {
          "internalType": "uint256",
          "name": "",
          "type": "uint256"
        }
      ],
      "name": "lockIdCounter",
      "outputs": [
        {
          "internalType": "uint256",
          "name": "",
          "type": "uint256"
        }
      ],
      "stateMutability": "view",
      "type": "function"
    },
    {
      "inputs": [
        {
          "internalType": "uint256",
          "name": "",
          "type": "uint256"
        },
        {
          "internalType": "uint256",
          "name": "",
          "type": "uint256"
        },
        {
          "internalType": "uint256",
          "name": "",
          "type": "uint256"
        }
      ],
      "name": "lockPointHistory",
      "outputs": [
        {
          "internalType": "int256",
          "name": "bias",
          "type": "int256"
        },
        {
          "internalType": "int256",
          "name": "slope",
          "type": "int256"
        },
        {
          "internalType": "uint256",
          "name": "timestamp",
          "type": "uint256"
        }
      ],
      "stateMutability": "view",
      "type": "function"
    },
    {
      "inputs": [],
      "name": "pauseProxy",
      "outputs": [
        {
          "internalType": "bool",
          "name": "",
          "type": "bool"
        }
      ],
      "stateMutability": "view",
      "type": "function"
    },
    {
      "inputs": [
        {
          "internalType": "uint256",
          "name": "",
          "type": "uint256"
        },
        {
          "internalType": "uint256",
          "name": "",
          "type": "uint256"
        }
      ],
      "name": "pointHistory",
      "outputs": [
        {
          "internalType": "int256",
          "name": "bias",
          "type": "int256"
        },
        {
          "internalType": "int256",
          "name": "slope",
          "type": "int256"
        },
        {
          "internalType": "uint256",
          "name": "timestamp",
          "type": "uint256"
        }
      ],
      "stateMutability": "view",
      "type": "function"
    },
    {
      "inputs": [
        {
          "internalType": "uint256",
          "name": "",
          "type": "uint256"
        }
      ],
      "name": "proxyImplementation",
      "outputs": [
        {
          "internalType": "address",
          "name": "",
          "type": "address"
        }
      ],
      "stateMutability": "view",
      "type": "function"
    },
    {
      "inputs": [
        {
          "internalType": "address",
          "name": "account",
          "type": "address"
        }
      ],
      "name": "removeAdmin",
      "outputs": [],
      "stateMutability": "nonpayable",
      "type": "function"
    },
    {
      "inputs": [
        {
          "internalType": "bytes32",
          "name": "role",
          "type": "bytes32"
        },
        {
          "internalType": "address",
          "name": "account",
          "type": "address"
        }
      ],
      "name": "renounceRole",
      "outputs": [],
      "stateMutability": "nonpayable",
      "type": "function"
    },
    {
      "inputs": [
        {
          "internalType": "bytes32",
          "name": "role",
          "type": "bytes32"
        },
        {
          "internalType": "address",
          "name": "account",
          "type": "address"
        }
      ],
      "name": "revokeRole",
      "outputs": [],
      "stateMutability": "nonpayable",
      "type": "function"
    },
    {
      "inputs": [
        {
          "internalType": "bytes4",
          "name": "",
          "type": "bytes4"
        }
      ],
      "name": "selectorImplementation",
      "outputs": [
        {
          "internalType": "address",
          "name": "",
          "type": "address"
        }
      ],
      "stateMutability": "view",
      "type": "function"
    },
    {
      "inputs": [
        {
          "internalType": "uint256",
          "name": "",
          "type": "uint256"
        },
        {
          "internalType": "uint256",
          "name": "",
          "type": "uint256"
        }
      ],
      "name": "slopeChanges",
      "outputs": [
        {
          "internalType": "int256",
          "name": "",
          "type": "int256"
        }
      ],
      "stateMutability": "view",
      "type": "function"
    },
    {
      "inputs": [
        {
          "internalType": "bytes4",
          "name": "interfaceId",
          "type": "bytes4"
        }
      ],
      "name": "supportsInterface",
      "outputs": [
        {
          "internalType": "bool",
          "name": "",
          "type": "bool"
        }
      ],
      "stateMutability": "view",
      "type": "function"
    },
    {
      "inputs": [
        {
          "internalType": "address",
          "name": "newAdmin",
          "type": "address"
        }
      ],
      "name": "transferAdmin",
      "outputs": [],
      "stateMutability": "nonpayable",
      "type": "function"
    },
    {
      "inputs": [
        {
          "internalType": "address",
          "name": "",
          "type": "address"
        },
        {
          "internalType": "uint256",
          "name": "",
          "type": "uint256"
        },
        {
          "internalType": "uint256",
          "name": "",
          "type": "uint256"
        }
      ],
      "name": "userLocks",
      "outputs": [
        {
          "internalType": "uint256",
          "name": "",
          "type": "uint256"
        }
      ],
      "stateMutability": "view",
      "type": "function"
    },
    {
      "inputs": [
        {
          "internalType": "address",
          "name": "",
          "type": "address"
        },
        {
          "internalType": "uint256",
          "name": "",
          "type": "uint256"
        }
      ],
      "name": "userStos",
      "outputs": [
        {
          "internalType": "uint32",
          "name": "syncTime",
          "type": "uint32"
        },
        {
          "internalType": "uint256",
          "name": "amount",
          "type": "uint256"
        }
      ],
      "stateMutability": "view",
      "type": "function"
    }
  ],
  "bytecode": "0x608060405234801561001057600080fd5b50611134806100206000396000f3fe608060405234801561001057600080fd5b50600436106101ae5760003560e01c806375829def116100ee578063a1ba88eb11610097578063b1d8fb5611610071578063b1d8fb56146104c8578063b911135f146104db578063c26e98f914610504578063d547741f1461052f57600080fd5b8063a1ba88eb14610489578063a217fddf146104b7578063a693a3ab146104bf57600080fd5b806382f7a5dd116100c857806382f7a5dd146103e65780638ff76b8a1461043d57806391d148541461045057600080fd5b806375829def1461038a57806375b238fc1461039d57806376ec1cf5146103c457600080fd5b80632f2ff15d1161015b578063550d01a311610135578063550d01a3146103275780635e52ee461461034a57806363a8fd891461036a578063704802751461037757600080fd5b80632f2ff15d146102c057806336568abe146102d357806350d2a276146102e657600080fd5b8063229852461161018c5780632298524614610255578063248a9ca31461028a57806324d7806c146102ad57600080fd5b806301ffc9a7146101b35780631785f53c146101db57806320f06c8c146101f0575b600080fd5b6101c66101c1366004610e00565b610542565b60405190151581526020015b60405180910390f35b6101ee6101e9366004610e46565b610579565b005b6102336101fe366004610e61565b600b60209081526000928352604080842090915290825290208054600182015460028301546003909301549192909160ff1684565b60408051948552602085019390935291830152151560608201526080016101d2565b61027c7ffb5864e8ff833c3cb2d2d08505e82ff02a43554c74a35d4f5a64e8526127831181565b6040519081526020016101d2565b61027c610298366004610e83565b60009081526004602052604090206001015490565b6101c66102bb366004610e46565b61060b565b6101ee6102ce366004610e9c565b61064b565b6101ee6102e1366004610e9c565b610675565b61030f6102f4366004610e00565b6003602052600090815260409020546001600160a01b031681565b6040516001600160a01b0390911681526020016101d2565b6101c6610335366004610e46565b60026020526000908152604090205460ff1681565b61027c610358366004610e83565b600d6020526000908152604090205481565b6000546101c69060ff1681565b6101ee610385366004610e46565b610701565b6101ee610398366004610e46565b61078b565b61027c7fdf8b4c520ffe197c5343c6f5aec59570151ef9a492f2c624fd45ddde6135ec4281565b6103d76103d2366004610e83565b6108ed565b6040516101d293929190610f18565b6104216103f4366004610f4d565b60076020908152600092835260408084209091529082529020805460019091015463ffffffff9091169082565b6040805163ffffffff90931683526020830191909152016101d2565b61027c61044b366004610f77565b6109a5565b6101c661045e366004610e9c565b60009182526004602090815260408084206001600160a01b0393909316845291905290205460ff1690565b61049c610497366004610e61565b6109e3565b604080519384526020840192909252908201526060016101d2565b61027c600081565b61027c60055481565b61049c6104d6366004610faa565b610a25565b61030f6104e9366004610e83565b6001602052600090815260409020546001600160a01b031681565b61027c610512366004610e61565b600a60209081526000928352604080842090915290825290205481565b6101ee61053d366004610e9c565b610a75565b60006001600160e01b03198216637965db0b60e01b148061057357506301ffc9a760e01b6001600160e01b03198316145b92915050565b6105823361060b565b6105de5760405162461bcd60e51b815260206004820152602260248201527f41636365737369626c653a2043616c6c6572206973206e6f7420616e2061646d60448201526134b760f11b60648201526084015b60405180910390fd5b6106087fdf8b4c520ffe197c5343c6f5aec59570151ef9a492f2c624fd45ddde6135ec4282610675565b50565b6001600160a01b03811660009081527f2fb794d17134dfdec181ddbac1babb5ab1eb140204ef4d982f294e7fc8b69022602052604081205460ff16610573565b60008281526004602052604090206001015461066681610a9a565b6106708383610aa4565b505050565b6001600160a01b03811633146106f35760405162461bcd60e51b815260206004820152602f60248201527f416363657373436f6e74726f6c3a2063616e206f6e6c792072656e6f756e636560448201527f20726f6c657320666f722073656c66000000000000000000000000000000000060648201526084016105d5565b6106fd8282610b46565b5050565b61070a3361060b565b6107615760405162461bcd60e51b815260206004820152602260248201527f41636365737369626c653a2043616c6c6572206973206e6f7420616e2061646d60448201526134b760f11b60648201526084016105d5565b6106087fdf8b4c520ffe197c5343c6f5aec59570151ef9a492f2c624fd45ddde6135ec428261064b565b6107943361060b565b6107eb5760405162461bcd60e51b815260206004820152602260248201527f41636365737369626c653a2043616c6c6572206973206e6f7420616e2061646d60448201526134b760f11b60648201526084016105d5565b6001600160a01b0381166108415760405162461bcd60e51b815260206004820152601860248201527f41636365737369626c653a207a65726f2061646472657373000000000000000060448201526064016105d5565b6001600160a01b03811633036108995760405162461bcd60e51b815260206004820152601660248201527f41636365737369626c653a2073616d652061646d696e0000000000000000000060448201526064016105d5565b6108c37fdf8b4c520ffe197c5343c6f5aec59570151ef9a492f2c624fd45ddde6135ec428261064b565b6106087fdf8b4c520ffe197c5343c6f5aec59570151ef9a492f2c624fd45ddde6135ec4233610675565b6006602052600090815260409020805460018201546002830180546001600160a01b0393841694929093169261092290610fd6565b80601f016020809104026020016040519081016040528092919081815260200182805461094e90610fd6565b801561099b5780601f106109705761010080835404028352916020019161099b565b820191906000526020600020905b81548152906001019060200180831161097e57829003601f168201915b5050505050905083565b600c60205282600052604060002060205281600052604060002081815481106109cd57600080fd5b9060005260206000200160009250925050505481565b600860205281600052604060002081815481106109ff57600080fd5b600091825260209091206003909102018054600182015460029092015490935090915083565b60096020528260005260406000206020528160005260406000208181548110610a4d57600080fd5b6000918252602090912060039091020180546001820154600290920154909450909250905083565b600082815260046020526040902060010154610a9081610a9a565b6106708383610b46565b6106088133610bc9565b60008281526004602090815260408083206001600160a01b038516845290915290205460ff166106fd5760008281526004602090815260408083206001600160a01b03851684529091529020805460ff19166001179055610b023390565b6001600160a01b0316816001600160a01b0316837f2f8788117e7eff1d82e926ec794901d17c78024a50270940304540a733656f0d60405160405180910390a45050565b60008281526004602090815260408083206001600160a01b038516845290915290205460ff16156106fd5760008281526004602090815260408083206001600160a01b0385168085529252808320805460ff1916905551339285917ff6391f5c32d9c69d2a47ea670b442974b53935d1edc7fd64eb21e047a839171b9190a45050565b60008281526004602090815260408083206001600160a01b038516845290915290205460ff166106fd57610bfc81610c3e565b610c07836020610c50565b604051602001610c18929190611010565b60408051601f198184030181529082905262461bcd60e51b82526105d591600401611091565b60606105736001600160a01b03831660145b60606000610c5f8360026110ba565b610c6a9060026110d1565b67ffffffffffffffff811115610c8257610c826110e4565b6040519080825280601f01601f191660200182016040528015610cac576020820181803683370190505b509050600360fc1b81600081518110610cc757610cc76110fa565b60200101906001600160f81b031916908160001a905350600f60fb1b81600181518110610cf657610cf66110fa565b60200101906001600160f81b031916908160001a9053506000610d1a8460026110ba565b610d259060016110d1565b90505b6001811115610daa577f303132333435363738396162636465660000000000000000000000000000000085600f1660108110610d6657610d666110fa565b1a60f81b828281518110610d7c57610d7c6110fa565b60200101906001600160f81b031916908160001a90535060049490941c93610da381611110565b9050610d28565b508315610df95760405162461bcd60e51b815260206004820181905260248201527f537472696e67733a20686578206c656e67746820696e73756666696369656e7460448201526064016105d5565b9392505050565b600060208284031215610e1257600080fd5b81356001600160e01b031981168114610df957600080fd5b80356001600160a01b0381168114610e4157600080fd5b919050565b600060208284031215610e5857600080fd5b610df982610e2a565b60008060408385031215610e7457600080fd5b50508035926020909101359150565b600060208284031215610e9557600080fd5b5035919050565b60008060408385031215610eaf57600080fd5b82359150610ebf60208401610e2a565b90509250929050565b60005b83811015610ee3578181015183820152602001610ecb565b50506000910152565b60008151808452610f04816020860160208601610ec8565b601f01601f19169290920160200192915050565b60006001600160a01b03808616835280851660208401525060606040830152610f446060830184610eec565b95945050505050565b60008060408385031215610f6057600080fd5b610f6983610e2a565b946020939093013593505050565b600080600060608486031215610f8c57600080fd5b610f9584610e2a565b95602085013595506040909401359392505050565b600080600060608486031215610fbf57600080fd5b505081359360208301359350604090920135919050565b600181811c90821680610fea57607f821691505b60208210810361100a57634e487b7160e01b600052602260045260246000fd5b50919050565b7f416363657373436f6e74726f6c3a206163636f756e7420000000000000000000815260008351611048816017850160208801610ec8565b7f206973206d697373696e6720726f6c65200000000000000000000000000000006017918401918201528351611085816028840160208801610ec8565b01602801949350505050565b602081526000610df96020830184610eec565b634e487b7160e01b600052601160045260246000fd5b8082028115828204841417610573576105736110a4565b80820180821115610573576105736110a4565b634e487b7160e01b600052604160045260246000fd5b634e487b7160e01b600052603260045260246000fd5b60008161111f5761111f6110a4565b50600019019056fea164736f6c6343000812000a",
  "linkReferences": {},
  "deployedLinkReferences": {}
}