{
  "_format": "hh-sol-artifact-1",
  "contractName": "L1TotalStos",
  "sourceName": "contracts/L1/L1TotalStos.sol",
  "abi": [
    {
      "inputs": [],
      "stateMutability": "nonpayable",
      "type": "constructor"
    },
    {
      "anonymous": false,
      "inputs": [
        {
          "indexed": true,
          "internalType": "bytes32",
          "name": "role",
          "type": "bytes32"
        },
        {
          "indexed": true,
          "internalType": "bytes32",
          "name": "previousAdminRole",
          "type": "bytes32"
        },
        {
          "indexed": true,
          "internalType": "bytes32",
          "name": "newAdminRole",
          "type": "bytes32"
        }
      ],
      "name": "RoleAdminChanged",
      "type": "event"
    },
    {
      "anonymous": false,
      "inputs": [
        {
          "indexed": true,
          "internalType": "bytes32",
          "name": "role",
          "type": "bytes32"
        },
        {
          "indexed": true,
          "internalType": "address",
          "name": "account",
          "type": "address"
        },
        {
          "indexed": true,
          "internalType": "address",
          "name": "sender",
          "type": "address"
        }
      ],
      "name": "RoleGranted",
      "type": "event"
    },
    {
      "anonymous": false,
      "inputs": [
        {
          "indexed": true,
          "internalType": "bytes32",
          "name": "role",
          "type": "bytes32"
        },
        {
          "indexed": true,
          "internalType": "address",
          "name": "account",
          "type": "address"
        },
        {
          "indexed": true,
          "internalType": "address",
          "name": "sender",
          "type": "address"
        }
      ],
      "name": "RoleRevoked",
      "type": "event"
    },
    {
      "inputs": [],
      "name": "ADMIN_ROLE",
      "outputs": [
        {
          "internalType": "bytes32",
          "name": "",
          "type": "bytes32"
        }
      ],
      "stateMutability": "view",
      "type": "function"
    },
    {
      "inputs": [],
      "name": "DEFAULT_ADMIN_ROLE",
      "outputs": [
        {
          "internalType": "bytes32",
          "name": "",
          "type": "bytes32"
        }
      ],
      "stateMutability": "view",
      "type": "function"
    },
    {
      "inputs": [],
      "name": "POLICY_ROLE",
      "outputs": [
        {
          "internalType": "bytes32",
          "name": "",
          "type": "bytes32"
        }
      ],
      "stateMutability": "view",
      "type": "function"
    },
    {
      "inputs": [
        {
          "internalType": "address",
          "name": "account",
          "type": "address"
        }
      ],
      "name": "addAdmin",
      "outputs": [],
      "stateMutability": "nonpayable",
      "type": "function"
    },
    {
      "inputs": [
        {
          "internalType": "address",
          "name": "",
          "type": "address"
        }
      ],
      "name": "aliveImplementation",
      "outputs": [
        {
          "internalType": "bool",
          "name": "",
          "type": "bool"
        }
      ],
      "stateMutability": "view",
      "type": "function"
    },
    {
      "inputs": [
        {
          "internalType": "uint256",
          "name": "",
          "type": "uint256"
        }
      ],
      "name": "allLocks",
      "outputs": [
        {
          "internalType": "uint256",
          "name": "start",
          "type": "uint256"
        },
        {
          "internalType": "uint256",
          "name": "end",
          "type": "uint256"
        },
        {
          "internalType": "uint256",
          "name": "amount",
          "type": "uint256"
        },
        {
          "internalType": "bool",
          "name": "withdrawn",
          "type": "bool"
        }
      ],
      "stateMutability": "view",
      "type": "function"
    },
    {
      "inputs": [
        {
          "internalType": "bytes32",
          "name": "role",
          "type": "bytes32"
        }
      ],
      "name": "getRoleAdmin",
      "outputs": [
        {
          "internalType": "bytes32",
          "name": "",
          "type": "bytes32"
        }
      ],
      "stateMutability": "view",
      "type": "function"
    },
    {
      "inputs": [
        {
          "internalType": "bytes32",
          "name": "role",
          "type": "bytes32"
        },
        {
          "internalType": "address",
          "name": "account",
          "type": "address"
        }
      ],
      "name": "grantRole",
      "outputs": [],
      "stateMutability": "nonpayable",
      "type": "function"
    },
    {
      "inputs": [
        {
          "internalType": "bytes32",
          "name": "role",
          "type": "bytes32"
        },
        {
          "internalType": "address",
          "name": "account",
          "type": "address"
        }
      ],
      "name": "hasRole",
      "outputs": [
        {
          "internalType": "bool",
          "name": "",
          "type": "bool"
        }
      ],
      "stateMutability": "view",
      "type": "function"
    },
    {
      "inputs": [
        {
          "internalType": "address",
          "name": "account",
          "type": "address"
        }
      ],
      "name": "isAdmin",
      "outputs": [
        {
          "internalType": "bool",
          "name": "",
          "type": "bool"
        }
      ],
      "stateMutability": "view",
      "type": "function"
    },
    {
      "inputs": [
        {
          "internalType": "uint256",
          "name": "",
          "type": "uint256"
        }
      ],
      "name": "l2Infos",
      "outputs": [
        {
          "internalType": "address",
          "name": "l1Messanger",
          "type": "address"
        },
        {
          "internalType": "address",
          "name": "l2TotalStos",
          "type": "address"
        },
        {
          "internalType": "string",
          "name": "name",
          "type": "string"
        }
      ],
      "stateMutability": "view",
      "type": "function"
    },
    {
      "inputs": [],
      "name": "l2TotalCount",
      "outputs": [
        {
          "internalType": "uint256",
          "name": "",
          "type": "uint256"
        }
      ],
      "stateMutability": "view",
      "type": "function"
    },
    {
      "inputs": [],
      "name": "lockIdCounter",
      "outputs": [
        {
          "internalType": "uint256",
          "name": "",
          "type": "uint256"
        }
      ],
      "stateMutability": "view",
      "type": "function"
    },
    {
      "inputs": [
        {
          "internalType": "uint256",
          "name": "",
          "type": "uint256"
        },
        {
          "internalType": "uint256",
          "name": "",
          "type": "uint256"
        }
      ],
      "name": "lockPointHistory",
      "outputs": [
        {
          "internalType": "int256",
          "name": "bias",
          "type": "int256"
        },
        {
          "internalType": "int256",
          "name": "slope",
          "type": "int256"
        },
        {
          "internalType": "uint256",
          "name": "timestamp",
          "type": "uint256"
        }
      ],
      "stateMutability": "view",
      "type": "function"
    },
    {
      "inputs": [
        {
          "internalType": "address",
          "name": "",
          "type": "address"
        },
        {
          "internalType": "uint256",
          "name": "",
          "type": "uint256"
        }
      ],
      "name": "lockedBalances",
      "outputs": [
        {
          "internalType": "uint256",
          "name": "start",
          "type": "uint256"
        },
        {
          "internalType": "uint256",
          "name": "end",
          "type": "uint256"
        },
        {
          "internalType": "uint256",
          "name": "amount",
          "type": "uint256"
        },
        {
          "internalType": "bool",
          "name": "withdrawn",
          "type": "bool"
        }
      ],
      "stateMutability": "view",
      "type": "function"
    },
    {
      "inputs": [],
      "name": "pauseProxy",
      "outputs": [
        {
          "internalType": "bool",
          "name": "",
          "type": "bool"
        }
      ],
      "stateMutability": "view",
      "type": "function"
    },
    {
      "inputs": [
        {
          "internalType": "uint256",
          "name": "",
          "type": "uint256"
        }
      ],
      "name": "pointHistory",
      "outputs": [
        {
          "internalType": "int256",
          "name": "bias",
          "type": "int256"
        },
        {
          "internalType": "int256",
          "name": "slope",
          "type": "int256"
        },
        {
          "internalType": "uint256",
          "name": "timestamp",
          "type": "uint256"
        }
      ],
      "stateMutability": "view",
      "type": "function"
    },
    {
      "inputs": [
        {
          "internalType": "uint256",
          "name": "",
          "type": "uint256"
        }
      ],
      "name": "proxyImplementation",
      "outputs": [
        {
          "internalType": "address",
          "name": "",
          "type": "address"
        }
      ],
      "stateMutability": "view",
      "type": "function"
    },
    {
      "inputs": [
        {
          "internalType": "address",
          "name": "account",
          "type": "address"
        }
      ],
      "name": "removeAdmin",
      "outputs": [],
      "stateMutability": "nonpayable",
      "type": "function"
    },
    {
      "inputs": [
        {
          "internalType": "bytes32",
          "name": "role",
          "type": "bytes32"
        },
        {
          "internalType": "address",
          "name": "account",
          "type": "address"
        }
      ],
      "name": "renounceRole",
      "outputs": [],
      "stateMutability": "nonpayable",
      "type": "function"
    },
    {
      "inputs": [
        {
          "internalType": "bytes32",
          "name": "role",
          "type": "bytes32"
        },
        {
          "internalType": "address",
          "name": "account",
          "type": "address"
        }
      ],
      "name": "revokeRole",
      "outputs": [],
      "stateMutability": "nonpayable",
      "type": "function"
    },
    {
      "inputs": [
        {
          "internalType": "bytes4",
          "name": "",
          "type": "bytes4"
        }
      ],
      "name": "selectorImplementation",
      "outputs": [
        {
          "internalType": "address",
          "name": "",
          "type": "address"
        }
      ],
      "stateMutability": "view",
      "type": "function"
    },
    {
      "inputs": [
        {
          "internalType": "bytes4",
          "name": "interfaceId",
          "type": "bytes4"
        }
      ],
      "name": "supportsInterface",
      "outputs": [
        {
          "internalType": "bool",
          "name": "",
          "type": "bool"
        }
      ],
      "stateMutability": "view",
      "type": "function"
    },
    {
      "inputs": [
        {
          "internalType": "address",
          "name": "newAdmin",
          "type": "address"
        }
      ],
      "name": "transferAdmin",
      "outputs": [],
      "stateMutability": "nonpayable",
      "type": "function"
    },
    {
      "inputs": [
        {
          "internalType": "address",
          "name": "",
          "type": "address"
        },
        {
          "internalType": "uint256",
          "name": "",
          "type": "uint256"
        }
      ],
      "name": "userLocks",
      "outputs": [
        {
          "internalType": "uint256",
          "name": "",
          "type": "uint256"
        }
      ],
      "stateMutability": "view",
      "type": "function"
    },
    {
      "inputs": [
        {
          "internalType": "address",
          "name": "",
          "type": "address"
        },
        {
          "internalType": "uint256",
          "name": "",
          "type": "uint256"
        }
      ],
      "name": "userStos",
      "outputs": [
        {
          "internalType": "uint32",
          "name": "syncTime",
          "type": "uint32"
        },
        {
          "internalType": "uint256",
          "name": "amount",
          "type": "uint256"
        }
      ],
      "stateMutability": "view",
      "type": "function"
    }
  ],
  "bytecode": "0x608060405234801561001057600080fd5b506110a1806100206000396000f3fe608060405234801561001057600080fd5b50600436106101ae5760003560e01c806370480275116100ee57806391d1485411610097578063aa33fedb11610071578063aa33fedb146104e0578063afae883e146104f3578063b911135f146104fc578063d547741f1461052557600080fd5b806391d1485414610496578063a217fddf146104cf578063a693a3ab146104d757600080fd5b806376ec1cf5116100c857806376ec1cf51461040a57806382f7a5dd1461042c5780638ad4c4471461048357600080fd5b806370480275146103bd57806375829def146103d057806375b238fc146103e357600080fd5b806336568abe1161015b578063550d01a311610135578063550d01a3146102f05780635d16a6f91461031357806363a8fd891461037857806363d5a3d91461038557600080fd5b806336568abe1461026e578063367b7b231461028157806350d2a276146102af57600080fd5b8063248a9ca31161018c578063248a9ca31461022557806324d7806c146102485780632f2ff15d1461025b57600080fd5b806301ffc9a7146101b35780631785f53c146101db57806322985246146101f0575b600080fd5b6101c66101c1366004610dcc565b610538565b60405190151581526020015b60405180910390f35b6101ee6101e9366004610e12565b61056f565b005b6102177ffb5864e8ff833c3cb2d2d08505e82ff02a43554c74a35d4f5a64e8526127831181565b6040519081526020016101d2565b610217610233366004610e2d565b60009081526004602052604090206001015490565b6101c6610256366004610e12565b610601565b6101ee610269366004610e46565b610641565b6101ee61027c366004610e46565b61066b565b61029461028f366004610e72565b6106f7565b604080519384526020840192909252908201526060016101d2565b6102d86102bd366004610dcc565b6003602052600090815260409020546001600160a01b031681565b6040516001600160a01b0390911681526020016101d2565b6101c66102fe366004610e12565b60026020526000908152604090205460ff1681565b610356610321366004610e94565b600a60209081526000928352604080842090915290825290208054600182015460028301546003909301549192909160ff1684565b60408051948552602085019390935291830152151560608201526080016101d2565b6000546101c69060ff1681565b610356610393366004610e2d565b600b6020526000908152604090208054600182015460028301546003909301549192909160ff1684565b6101ee6103cb366004610e12565b610739565b6101ee6103de366004610e12565b6107c3565b6102177fdf8b4c520ffe197c5343c6f5aec59570151ef9a492f2c624fd45ddde6135ec4281565b61041d610418366004610e2d565b610925565b6040516101d293929190610f0e565b61046761043a366004610e94565b60076020908152600092835260408084209091529082529020805460019091015463ffffffff9091169082565b6040805163ffffffff90931683526020830191909152016101d2565b610294610491366004610e2d565b6109dd565b6101c66104a4366004610e46565b60009182526004602090815260408084206001600160a01b0393909316845291905290205460ff1690565b610217600081565b61021760055481565b6102176104ee366004610e94565b610a10565b610217600d5481565b6102d861050a366004610e2d565b6001602052600090815260409020546001600160a01b031681565b6101ee610533366004610e46565b610a41565b60006001600160e01b03198216637965db0b60e01b148061056957506301ffc9a760e01b6001600160e01b03198316145b92915050565b61057833610601565b6105d45760405162461bcd60e51b815260206004820152602260248201527f41636365737369626c653a2043616c6c6572206973206e6f7420616e2061646d60448201526134b760f11b60648201526084015b60405180910390fd5b6105fe7fdf8b4c520ffe197c5343c6f5aec59570151ef9a492f2c624fd45ddde6135ec428261066b565b50565b6001600160a01b03811660009081527f2fb794d17134dfdec181ddbac1babb5ab1eb140204ef4d982f294e7fc8b69022602052604081205460ff16610569565b60008281526004602052604090206001015461065c81610a66565b6106668383610a70565b505050565b6001600160a01b03811633146106e95760405162461bcd60e51b815260206004820152602f60248201527f416363657373436f6e74726f6c3a2063616e206f6e6c792072656e6f756e636560448201527f20726f6c657320666f722073656c66000000000000000000000000000000000060648201526084016105cb565b6106f38282610b12565b5050565b6009602052816000526040600020818154811061071357600080fd5b600091825260209091206003909102018054600182015460029092015490935090915083565b61074233610601565b6107995760405162461bcd60e51b815260206004820152602260248201527f41636365737369626c653a2043616c6c6572206973206e6f7420616e2061646d60448201526134b760f11b60648201526084016105cb565b6105fe7fdf8b4c520ffe197c5343c6f5aec59570151ef9a492f2c624fd45ddde6135ec4282610641565b6107cc33610601565b6108235760405162461bcd60e51b815260206004820152602260248201527f41636365737369626c653a2043616c6c6572206973206e6f7420616e2061646d60448201526134b760f11b60648201526084016105cb565b6001600160a01b0381166108795760405162461bcd60e51b815260206004820152601860248201527f41636365737369626c653a207a65726f2061646472657373000000000000000060448201526064016105cb565b6001600160a01b03811633036108d15760405162461bcd60e51b815260206004820152601660248201527f41636365737369626c653a2073616d652061646d696e0000000000000000000060448201526064016105cb565b6108fb7fdf8b4c520ffe197c5343c6f5aec59570151ef9a492f2c624fd45ddde6135ec4282610641565b6105fe7fdf8b4c520ffe197c5343c6f5aec59570151ef9a492f2c624fd45ddde6135ec423361066b565b6006602052600090815260409020805460018201546002830180546001600160a01b0393841694929093169261095a90610f43565b80601f016020809104026020016040519081016040528092919081815260200182805461098690610f43565b80156109d35780601f106109a8576101008083540402835291602001916109d3565b820191906000526020600020905b8154815290600101906020018083116109b657829003601f168201915b5050505050905083565b600881815481106109ed57600080fd5b600091825260209091206003909102018054600182015460029092015490925083565b600c6020528160005260406000208181548110610a2c57600080fd5b90600052602060002001600091509150505481565b600082815260046020526040902060010154610a5c81610a66565b6106668383610b12565b6105fe8133610b95565b60008281526004602090815260408083206001600160a01b038516845290915290205460ff166106f35760008281526004602090815260408083206001600160a01b03851684529091529020805460ff19166001179055610ace3390565b6001600160a01b0316816001600160a01b0316837f2f8788117e7eff1d82e926ec794901d17c78024a50270940304540a733656f0d60405160405180910390a45050565b60008281526004602090815260408083206001600160a01b038516845290915290205460ff16156106f35760008281526004602090815260408083206001600160a01b0385168085529252808320805460ff1916905551339285917ff6391f5c32d9c69d2a47ea670b442974b53935d1edc7fd64eb21e047a839171b9190a45050565b60008281526004602090815260408083206001600160a01b038516845290915290205460ff166106f357610bc881610c0a565b610bd3836020610c1c565b604051602001610be4929190610f7d565b60408051601f198184030181529082905262461bcd60e51b82526105cb91600401610ffe565b60606105696001600160a01b03831660145b60606000610c2b836002611027565b610c3690600261103e565b67ffffffffffffffff811115610c4e57610c4e611051565b6040519080825280601f01601f191660200182016040528015610c78576020820181803683370190505b509050600360fc1b81600081518110610c9357610c93611067565b60200101906001600160f81b031916908160001a905350600f60fb1b81600181518110610cc257610cc2611067565b60200101906001600160f81b031916908160001a9053506000610ce6846002611027565b610cf190600161103e565b90505b6001811115610d76577f303132333435363738396162636465660000000000000000000000000000000085600f1660108110610d3257610d32611067565b1a60f81b828281518110610d4857610d48611067565b60200101906001600160f81b031916908160001a90535060049490941c93610d6f8161107d565b9050610cf4565b508315610dc55760405162461bcd60e51b815260206004820181905260248201527f537472696e67733a20686578206c656e67746820696e73756666696369656e7460448201526064016105cb565b9392505050565b600060208284031215610dde57600080fd5b81356001600160e01b031981168114610dc557600080fd5b80356001600160a01b0381168114610e0d57600080fd5b919050565b600060208284031215610e2457600080fd5b610dc582610df6565b600060208284031215610e3f57600080fd5b5035919050565b60008060408385031215610e5957600080fd5b82359150610e6960208401610df6565b90509250929050565b60008060408385031215610e8557600080fd5b50508035926020909101359150565b60008060408385031215610ea757600080fd5b610eb083610df6565b946020939093013593505050565b60005b83811015610ed9578181015183820152602001610ec1565b50506000910152565b60008151808452610efa816020860160208601610ebe565b601f01601f19169290920160200192915050565b60006001600160a01b03808616835280851660208401525060606040830152610f3a6060830184610ee2565b95945050505050565b600181811c90821680610f5757607f821691505b602082108103610f7757634e487b7160e01b600052602260045260246000fd5b50919050565b7f416363657373436f6e74726f6c3a206163636f756e7420000000000000000000815260008351610fb5816017850160208801610ebe565b7f206973206d697373696e6720726f6c65200000000000000000000000000000006017918401918201528351610ff2816028840160208801610ebe565b01602801949350505050565b602081526000610dc56020830184610ee2565b634e487b7160e01b600052601160045260246000fd5b808202811582820484141761056957610569611011565b8082018082111561056957610569611011565b634e487b7160e01b600052604160045260246000fd5b634e487b7160e01b600052603260045260246000fd5b60008161108c5761108c611011565b50600019019056fea164736f6c6343000812000a",
  "linkReferences": {},
  "deployedLinkReferences": {}
}