{
  "_format": "hh-sol-artifact-1",
  "contractName": "L2StandardTokenFactory",
  "sourceName": "contracts/test/L2StandardTokenFactory.sol",
  "abi": [
    {
      "anonymous": false,
      "inputs": [
        {
          "indexed": true,
          "internalType": "address",
          "name": "_l1Token",
          "type": "address"
        },
        {
          "indexed": true,
          "internalType": "address",
          "name": "_l2Token",
          "type": "address"
        }
      ],
      "name": "StandardL2TokenCreated",
      "type": "event"
    },
    {
      "inputs": [
        {
          "internalType": "address",
          "name": "_l1Token",
          "type": "address"
        },
        {
          "internalType": "string",
          "name": "_name",
          "type": "string"
        },
        {
          "internalType": "string",
          "name": "_symbol",
          "type": "string"
        }
      ],
      "name": "createStandardL2Token",
      "outputs": [],
      "stateMutability": "nonpayable",
      "type": "function"
    }
  ],
  "bytecode": "0x608060405234801561001057600080fd5b5061143e806100206000396000f3fe608060405234801561001057600080fd5b506004361061002b5760003560e01c8063896f93d114610030575b600080fd5b61004361003e3660046101e7565b610045565b005b6001600160a01b03831661009f5760405162461bcd60e51b815260206004820152601d60248201527f4d7573742070726f76696465204c3120746f6b656e2061646472657373000000604482015260640160405180910390fd5b60007342000000000000000000000000000000000000108484846040516100c590610137565b6100d294939291906102af565b604051809103906000f0801580156100ee573d6000803e3d6000fd5b509050806001600160a01b0316846001600160a01b03167fceeb8e7d520d7f3b65fc11a262b91066940193b05d4f93df07cfdced0eb551cf60405160405180910390a350505050565b611139806102f983390190565b634e487b7160e01b600052604160045260246000fd5b600082601f83011261016b57600080fd5b813567ffffffffffffffff8082111561018657610186610144565b604051601f8301601f19908116603f011681019082821181831017156101ae576101ae610144565b816040528381528660208588010111156101c757600080fd5b836020870160208301376000602085830101528094505050505092915050565b6000806000606084860312156101fc57600080fd5b83356001600160a01b038116811461021357600080fd5b9250602084013567ffffffffffffffff8082111561023057600080fd5b61023c8783880161015a565b9350604086013591508082111561025257600080fd5b5061025f8682870161015a565b9150509250925092565b6000815180845260005b8181101561028f57602081850181015186830182015201610273565b506000602082860101526020601f19601f83011685010191505092915050565b60006001600160a01b038087168352808616602084015250608060408301526102db6080830185610269565b82810360608401526102ed8185610269565b97965050505050505056fe60806040523480156200001157600080fd5b506040516200113938038062001139833981016040819052620000349162000171565b8181600362000044838262000290565b50600462000053828262000290565b5050600580546001600160a01b039586166001600160a01b0319918216179091556006805496909516951694909417909255506200035c915050565b80516001600160a01b0381168114620000a757600080fd5b919050565b634e487b7160e01b600052604160045260246000fd5b600082601f830112620000d457600080fd5b81516001600160401b0380821115620000f157620000f1620000ac565b604051601f8301601f19908116603f011681019082821181831017156200011c576200011c620000ac565b816040528381526020925086838588010111156200013957600080fd5b600091505b838210156200015d57858201830151818301840152908201906200013e565b600093810190920192909252949350505050565b600080600080608085870312156200018857600080fd5b62000193856200008f565b9350620001a3602086016200008f565b60408601519093506001600160401b0380821115620001c157600080fd5b620001cf88838901620000c2565b93506060870151915080821115620001e657600080fd5b50620001f587828801620000c2565b91505092959194509250565b600181811c908216806200021657607f821691505b6020821081036200023757634e487b7160e01b600052602260045260246000fd5b50919050565b601f8211156200028b57600081815260208120601f850160051c81016020861015620002665750805b601f850160051c820191505b81811015620002875782815560010162000272565b5050505b505050565b81516001600160401b03811115620002ac57620002ac620000ac565b620002c481620002bd845462000201565b846200023d565b602080601f831160018114620002fc5760008415620002e35750858301515b600019600386901b1c1916600185901b17855562000287565b600085815260208120601f198616915b828110156200032d578886015182559484019460019091019084016200030c565b50858210156200034c5787850151600019600388901b60f8161c191681555b5050505050600190811b01905550565b610dcd806200036c6000396000f3fe608060405234801561001057600080fd5b50600436106101365760003560e01c806370a08231116100b2578063a457c2d711610081578063ae1f6aaf11610066578063ae1f6aaf1461028f578063c01e1bd6146102a2578063dd62ed3e146102b557600080fd5b8063a457c2d714610269578063a9059cbb1461027c57600080fd5b806370a08231146101fa57806395d89b4114610223578063969b53da1461022b5780639dc29fac1461025657600080fd5b80631a05037611610109578063313ce567116100ee578063313ce567146101c557806339509351146101d457806340c10f19146101e757600080fd5b80631a0503761461019d57806323b872dd146101b257600080fd5b806301ffc9a71461013b57806306fdde0314610163578063095ea7b31461017857806318160ddd1461018b575b600080fd5b61014e610149366004610c16565b6102ee565b60405190151581526020015b60405180910390f35b61016b61034c565b60405161015a9190610c47565b61014e610186366004610cb1565b6103de565b6002545b60405190815260200161015a565b6101b06101ab366004610cdb565b6103f8565b005b61014e6101c0366004610cf6565b610476565b6040516012815260200161015a565b61014e6101e2366004610cb1565b61049a565b6101b06101f5366004610cb1565b6104d9565b61018f610208366004610cdb565b6001600160a01b031660009081526020819052604090205490565b61016b610584565b60075461023e906001600160a01b031681565b6040516001600160a01b03909116815260200161015a565b6101b0610264366004610cb1565b610593565b61014e610277366004610cb1565b610632565b61014e61028a366004610cb1565b6106c4565b60065461023e906001600160a01b031681565b60055461023e906001600160a01b031681565b61018f6102c3366004610d32565b6001600160a01b03918216600090815260016020908152604080832093909416825291909152205490565b60007f01ffc9a7a5cef8baa21ed3c5c0d7e23accb804b619e9333b597f47a0d84076e2631d1d8b6360e01b6001600160e01b031984166301ffc9a760e01b148061034457506001600160e01b0319848116908216145b949350505050565b60606003805461035b90610d65565b80601f016020809104026020016040519081016040528092919081815260200182805461038790610d65565b80156103d45780601f106103a9576101008083540402835291602001916103d4565b820191906000526020600020905b8154815290600101906020018083116103b757829003601f168201915b5050505050905090565b6000336103ec8185856106d2565b60019150505b92915050565b6007546001600160a01b038083169116036104475760405162461bcd60e51b815260040161043e9060208082526004908201526373616d6560e01b604082015260600190565b60405180910390fd5b6007805473ffffffffffffffffffffffffffffffffffffffff19166001600160a01b0392909216919091179055565b6000336104848582856107f7565b61048f858585610889565b506001949350505050565b3360008181526001602090815260408083206001600160a01b03871684529091528120549091906103ec90829086906104d4908790610d9f565b6106d2565b6006546001600160a01b031633146105335760405162461bcd60e51b815260206004820181905260248201527f4f6e6c79204c32204272696467652063616e206d696e7420616e64206275726e604482015260640161043e565b61053d8282610a2d565b816001600160a01b03167f0f6798a560793a54c3bcfe86a93cde1e73087d944c0ea20544137d41213968858260405161057891815260200190565b60405180910390a25050565b60606004805461035b90610d65565b6006546001600160a01b031633146105ed5760405162461bcd60e51b815260206004820181905260248201527f4f6e6c79204c32204272696467652063616e206d696e7420616e64206275726e604482015260640161043e565b6105f78282610aec565b816001600160a01b03167fcc16f5dbb4873280815c1ee09dbd06736cffcc184412cf7a71a0fdb75d397ca58260405161057891815260200190565b3360008181526001602090815260408083206001600160a01b0387168452909152812054909190838110156106b75760405162461bcd60e51b815260206004820152602560248201527f45524332303a2064656372656173656420616c6c6f77616e63652062656c6f77604482015264207a65726f60d81b606482015260840161043e565b61048f82868684036106d2565b6000336103ec818585610889565b6001600160a01b0383166107345760405162461bcd60e51b8152602060048201526024808201527f45524332303a20617070726f76652066726f6d20746865207a65726f206164646044820152637265737360e01b606482015260840161043e565b6001600160a01b0382166107955760405162461bcd60e51b815260206004820152602260248201527f45524332303a20617070726f766520746f20746865207a65726f206164647265604482015261737360f01b606482015260840161043e565b6001600160a01b0383811660008181526001602090815260408083209487168084529482529182902085905590518481527f8c5be1e5ebec7d5bd14f71427d1e84f3dd0314c0f7b2291e5b200ac8c7c3b92591015b60405180910390a3505050565b6001600160a01b03838116600090815260016020908152604080832093861683529290522054600019811461088357818110156108765760405162461bcd60e51b815260206004820152601d60248201527f45524332303a20696e73756666696369656e7420616c6c6f77616e6365000000604482015260640161043e565b61088384848484036106d2565b50505050565b6001600160a01b0383166108ed5760405162461bcd60e51b815260206004820152602560248201527f45524332303a207472616e736665722066726f6d20746865207a65726f206164604482015264647265737360d81b606482015260840161043e565b6001600160a01b03821661094f5760405162461bcd60e51b815260206004820152602360248201527f45524332303a207472616e7366657220746f20746865207a65726f206164647260448201526265737360e81b606482015260840161043e565b6001600160a01b038316600090815260208190526040902054818110156109c75760405162461bcd60e51b815260206004820152602660248201527f45524332303a207472616e7366657220616d6f756e7420657863656564732062604482015265616c616e636560d01b606482015260840161043e565b6001600160a01b03848116600081815260208181526040808320878703905593871680835291849020805487019055925185815290927fddf252ad1be2c89b69c2b068fc378daa952ba7f163c4a11628f55a4df523b3ef910160405180910390a3610883565b6001600160a01b038216610a835760405162461bcd60e51b815260206004820152601f60248201527f45524332303a206d696e7420746f20746865207a65726f206164647265737300604482015260640161043e565b8060026000828254610a959190610d9f565b90915550506001600160a01b038216600081815260208181526040808320805486019055518481527fddf252ad1be2c89b69c2b068fc378daa952ba7f163c4a11628f55a4df523b3ef910160405180910390a35050565b6001600160a01b038216610b4c5760405162461bcd60e51b815260206004820152602160248201527f45524332303a206275726e2066726f6d20746865207a65726f206164647265736044820152607360f81b606482015260840161043e565b6001600160a01b03821660009081526020819052604090205481811015610bc05760405162461bcd60e51b815260206004820152602260248201527f45524332303a206275726e20616d6f756e7420657863656564732062616c616e604482015261636560f01b606482015260840161043e565b6001600160a01b0383166000818152602081815260408083208686039055600280548790039055518581529192917fddf252ad1be2c89b69c2b068fc378daa952ba7f163c4a11628f55a4df523b3ef91016107ea565b600060208284031215610c2857600080fd5b81356001600160e01b031981168114610c4057600080fd5b9392505050565b600060208083528351808285015260005b81811015610c7457858101830151858201604001528201610c58565b506000604082860101526040601f19601f8301168501019250505092915050565b80356001600160a01b0381168114610cac57600080fd5b919050565b60008060408385031215610cc457600080fd5b610ccd83610c95565b946020939093013593505050565b600060208284031215610ced57600080fd5b610c4082610c95565b600080600060608486031215610d0b57600080fd5b610d1484610c95565b9250610d2260208501610c95565b9150604084013590509250925092565b60008060408385031215610d4557600080fd5b610d4e83610c95565b9150610d5c60208401610c95565b90509250929050565b600181811c90821680610d7957607f821691505b602082108103610d9957634e487b7160e01b600052602260045260246000fd5b50919050565b808201808211156103f257634e487b7160e01b600052601160045260246000fdfea164736f6c6343000812000aa164736f6c6343000812000a",
  "linkReferences": {},
  "deployedLinkReferences": {}
}