{
  "_format": "hh-sol-artifact-1",
  "contractName": "LockIdNFT",
  "sourceName": "contracts/stos/LockIdNFT.sol",
  "abi": [
    {
      "inputs": [
        {
          "internalType": "string",
          "name": "name_",
          "type": "string"
        },
        {
          "internalType": "string",
          "name": "symbol_",
          "type": "string"
        },
        {
          "internalType": "address",
          "name": "managerAddress",
          "type": "address"
        },
        {
          "internalType": "uint256",
          "name": "epochUnit_",
          "type": "uint256"
        },
        {
          "internalType": "uint256",
          "name": "maxTime_",
          "type": "uint256"
        },
        {
          "internalType": "address",
          "name": "tosAddress",
          "type": "address"
        }
      ],
      "stateMutability": "nonpayable",
      "type": "constructor"
    },
    {
      "anonymous": false,
      "inputs": [
        {
          "indexed": true,
          "internalType": "address",
          "name": "owner",
          "type": "address"
        },
        {
          "indexed": true,
          "internalType": "address",
          "name": "approved",
          "type": "address"
        },
        {
          "indexed": true,
          "internalType": "uint256",
          "name": "tokenId",
          "type": "uint256"
        }
      ],
      "name": "Approval",
      "type": "event"
    },
    {
      "anonymous": false,
      "inputs": [
        {
          "indexed": true,
          "internalType": "address",
          "name": "owner",
          "type": "address"
        },
        {
          "indexed": true,
          "internalType": "address",
          "name": "operator",
          "type": "address"
        },
        {
          "indexed": false,
          "internalType": "bool",
          "name": "approved",
          "type": "bool"
        }
      ],
      "name": "ApprovalForAll",
      "type": "event"
    },
    {
      "anonymous": false,
      "inputs": [
        {
          "indexed": false,
          "internalType": "address",
          "name": "account",
          "type": "address"
        },
        {
          "indexed": false,
          "internalType": "uint256",
          "name": "lockId",
          "type": "uint256"
        },
        {
          "indexed": false,
          "internalType": "uint256",
          "name": "value",
          "type": "uint256"
        },
        {
          "indexed": false,
          "internalType": "uint256",
          "name": "unlockTime",
          "type": "uint256"
        }
      ],
      "name": "IncreasedLock",
      "type": "event"
    },
    {
      "anonymous": false,
      "inputs": [
        {
          "indexed": false,
          "internalType": "address",
          "name": "account",
          "type": "address"
        },
        {
          "indexed": false,
          "internalType": "uint256",
          "name": "lockId",
          "type": "uint256"
        },
        {
          "indexed": false,
          "internalType": "uint256",
          "name": "amount",
          "type": "uint256"
        },
        {
          "indexed": false,
          "internalType": "uint256",
          "name": "unlockTime",
          "type": "uint256"
        }
      ],
      "name": "LockCreated",
      "type": "event"
    },
    {
      "anonymous": false,
      "inputs": [
        {
          "indexed": false,
          "internalType": "address",
          "name": "account",
          "type": "address"
        },
        {
          "indexed": false,
          "internalType": "uint256",
          "name": "lockId",
          "type": "uint256"
        },
        {
          "indexed": false,
          "internalType": "uint256",
          "name": "value",
          "type": "uint256"
        }
      ],
      "name": "LockDeposited",
      "type": "event"
    },
    {
      "anonymous": false,
      "inputs": [
        {
          "indexed": true,
          "internalType": "address",
          "name": "from",
          "type": "address"
        },
        {
          "indexed": true,
          "internalType": "address",
          "name": "to",
          "type": "address"
        },
        {
          "indexed": true,
          "internalType": "uint256",
          "name": "tokenId",
          "type": "uint256"
        }
      ],
      "name": "Transfer",
      "type": "event"
    },
    {
      "inputs": [],
      "name": "MULTIPLIER",
      "outputs": [
        {
          "internalType": "uint256",
          "name": "",
          "type": "uint256"
        }
      ],
      "stateMutability": "view",
      "type": "function"
    },
    {
      "inputs": [],
      "name": "_ERC721_RECEIVED",
      "outputs": [
        {
          "internalType": "bytes4",
          "name": "",
          "type": "bytes4"
        }
      ],
      "stateMutability": "view",
      "type": "function"
    },
    {
      "inputs": [],
      "name": "_INTERFACE_ID_ERC721",
      "outputs": [
        {
          "internalType": "bytes4",
          "name": "",
          "type": "bytes4"
        }
      ],
      "stateMutability": "view",
      "type": "function"
    },
    {
      "inputs": [],
      "name": "_INTERFACE_ID_ERC721_ENUMERABLE",
      "outputs": [
        {
          "internalType": "bytes4",
          "name": "",
          "type": "bytes4"
        }
      ],
      "stateMutability": "view",
      "type": "function"
    },
    {
      "inputs": [],
      "name": "_INTERFACE_ID_ERC721_METADATA",
      "outputs": [
        {
          "internalType": "bytes4",
          "name": "",
          "type": "bytes4"
        }
      ],
      "stateMutability": "view",
      "type": "function"
    },
    {
      "inputs": [
        {
          "internalType": "uint256",
          "name": "",
          "type": "uint256"
        }
      ],
      "name": "_allTokens",
      "outputs": [
        {
          "internalType": "uint256",
          "name": "",
          "type": "uint256"
        }
      ],
      "stateMutability": "view",
      "type": "function"
    },
    {
      "inputs": [
        {
          "internalType": "uint256",
          "name": "",
          "type": "uint256"
        }
      ],
      "name": "_allTokensIndex",
      "outputs": [
        {
          "internalType": "uint256",
          "name": "",
          "type": "uint256"
        }
      ],
      "stateMutability": "view",
      "type": "function"
    },
    {
      "inputs": [],
      "name": "_baseURI",
      "outputs": [
        {
          "internalType": "string",
          "name": "",
          "type": "string"
        }
      ],
      "stateMutability": "view",
      "type": "function"
    },
    {
      "inputs": [],
      "name": "_manager",
      "outputs": [
        {
          "internalType": "address",
          "name": "",
          "type": "address"
        }
      ],
      "stateMutability": "view",
      "type": "function"
    },
    {
      "inputs": [],
      "name": "_name",
      "outputs": [
        {
          "internalType": "string",
          "name": "",
          "type": "string"
        }
      ],
      "stateMutability": "view",
      "type": "function"
    },
    {
      "inputs": [
        {
          "internalType": "address",
          "name": "",
          "type": "address"
        },
        {
          "internalType": "address",
          "name": "",
          "type": "address"
        }
      ],
      "name": "_operatorApprovals",
      "outputs": [
        {
          "internalType": "bool",
          "name": "",
          "type": "bool"
        }
      ],
      "stateMutability": "view",
      "type": "function"
    },
    {
      "inputs": [
        {
          "internalType": "address",
          "name": "",
          "type": "address"
        },
        {
          "internalType": "uint256",
          "name": "",
          "type": "uint256"
        }
      ],
      "name": "_ownedTokens",
      "outputs": [
        {
          "internalType": "uint256",
          "name": "",
          "type": "uint256"
        }
      ],
      "stateMutability": "view",
      "type": "function"
    },
    {
      "inputs": [
        {
          "internalType": "address",
          "name": "",
          "type": "address"
        }
      ],
      "name": "_ownedTokensCount",
      "outputs": [
        {
          "internalType": "uint256",
          "name": "",
          "type": "uint256"
        }
      ],
      "stateMutability": "view",
      "type": "function"
    },
    {
      "inputs": [
        {
          "internalType": "uint256",
          "name": "",
          "type": "uint256"
        }
      ],
      "name": "_ownedTokensIndex",
      "outputs": [
        {
          "internalType": "uint256",
          "name": "",
          "type": "uint256"
        }
      ],
      "stateMutability": "view",
      "type": "function"
    },
    {
      "inputs": [],
      "name": "_owner",
      "outputs": [
        {
          "internalType": "address",
          "name": "",
          "type": "address"
        }
      ],
      "stateMutability": "view",
      "type": "function"
    },
    {
      "inputs": [],
      "name": "_symbol",
      "outputs": [
        {
          "internalType": "string",
          "name": "",
          "type": "string"
        }
      ],
      "stateMutability": "view",
      "type": "function"
    },
    {
      "inputs": [
        {
          "internalType": "uint256",
          "name": "",
          "type": "uint256"
        }
      ],
      "name": "_tokenApprovals",
      "outputs": [
        {
          "internalType": "address",
          "name": "",
          "type": "address"
        }
      ],
      "stateMutability": "view",
      "type": "function"
    },
    {
      "inputs": [
        {
          "internalType": "uint256",
          "name": "",
          "type": "uint256"
        }
      ],
      "name": "_tokenAttributes",
      "outputs": [
        {
          "internalType": "uint8",
          "name": "",
          "type": "uint8"
        }
      ],
      "stateMutability": "view",
      "type": "function"
    },
    {
      "inputs": [
        {
          "internalType": "uint256",
          "name": "",
          "type": "uint256"
        }
      ],
      "name": "_tokenOwner",
      "outputs": [
        {
          "internalType": "address",
          "name": "",
          "type": "address"
        }
      ],
      "stateMutability": "view",
      "type": "function"
    },
    {
      "inputs": [
        {
          "internalType": "uint256",
          "name": "",
          "type": "uint256"
        }
      ],
      "name": "_tokenURIs",
      "outputs": [
        {
          "internalType": "string",
          "name": "",
          "type": "string"
        }
      ],
      "stateMutability": "view",
      "type": "function"
    },
    {
      "inputs": [
        {
          "internalType": "address",
          "name": "",
          "type": "address"
        }
      ],
      "name": "aliveImplementation",
      "outputs": [
        {
          "internalType": "bool",
          "name": "",
          "type": "bool"
        }
      ],
      "stateMutability": "view",
      "type": "function"
    },
    {
      "inputs": [],
      "name": "allIndexOfTimes",
      "outputs": [
        {
          "internalType": "uint256[]",
          "name": "",
          "type": "uint256[]"
        }
      ],
      "stateMutability": "view",
      "type": "function"
    },
    {
      "inputs": [],
      "name": "allTokens",
      "outputs": [
        {
          "internalType": "uint256[]",
          "name": "",
          "type": "uint256[]"
        }
      ],
      "stateMutability": "view",
      "type": "function"
    },
    {
      "inputs": [
        {
          "internalType": "address",
          "name": "to",
          "type": "address"
        },
        {
          "internalType": "uint256",
          "name": "tokenId",
          "type": "uint256"
        }
      ],
      "name": "approve",
      "outputs": [],
      "stateMutability": "nonpayable",
      "type": "function"
    },
    {
      "inputs": [
        {
          "internalType": "address",
          "name": "owner_",
          "type": "address"
        }
      ],
      "name": "balanceOf",
      "outputs": [
        {
          "internalType": "uint256",
          "name": "",
          "type": "uint256"
        }
      ],
      "stateMutability": "view",
      "type": "function"
    },
    {
      "inputs": [
        {
          "internalType": "address",
          "name": "_addr",
          "type": "address"
        }
      ],
      "name": "balanceOfLock",
      "outputs": [
        {
          "internalType": "uint256",
          "name": "balance",
          "type": "uint256"
        }
      ],
      "stateMutability": "view",
      "type": "function"
    },
    {
      "inputs": [
        {
          "internalType": "uint256",
          "name": "_lockId",
          "type": "uint256"
        }
      ],
      "name": "balanceOfLock",
      "outputs": [
        {
          "internalType": "uint256",
          "name": "amount",
          "type": "uint256"
        }
      ],
      "stateMutability": "view",
      "type": "function"
    },
    {
      "inputs": [
        {
          "internalType": "address",
          "name": "_addr",
          "type": "address"
        },
        {
          "internalType": "uint256",
          "name": "_timestamp",
          "type": "uint256"
        }
      ],
      "name": "balanceOfLockAt",
      "outputs": [
        {
          "internalType": "uint256",
          "name": "balance",
          "type": "uint256"
        }
      ],
      "stateMutability": "view",
      "type": "function"
    },
    {
      "inputs": [
        {
          "internalType": "uint256",
          "name": "_lockId",
          "type": "uint256"
        },
        {
          "internalType": "uint256",
          "name": "_timestamp",
          "type": "uint256"
        }
      ],
      "name": "balanceOfLockAt",
      "outputs": [
        {
          "internalType": "uint256",
          "name": "amount",
          "type": "uint256"
        }
      ],
      "stateMutability": "view",
      "type": "function"
    },
    {
      "inputs": [
        {
          "components": [
            {
              "internalType": "int256",
              "name": "slope",
              "type": "int256"
            },
            {
              "internalType": "int256",
              "name": "bias",
              "type": "int256"
            },
            {
              "internalType": "uint256",
              "name": "timestamp",
              "type": "uint256"
            }
          ],
          "internalType": "struct LibLockId.Point",
          "name": "point",
          "type": "tuple"
        },
        {
          "internalType": "uint256",
          "name": "timestamp",
          "type": "uint256"
        }
      ],
      "name": "balanceOfPoint",
      "outputs": [
        {
          "internalType": "uint256",
          "name": "",
          "type": "uint256"
        }
      ],
      "stateMutability": "pure",
      "type": "function"
    },
    {
      "inputs": [],
      "name": "baseURI",
      "outputs": [
        {
          "internalType": "string",
          "name": "",
          "type": "string"
        }
      ],
      "stateMutability": "view",
      "type": "function"
    },
    {
      "inputs": [
        {
          "internalType": "uint256",
          "name": "_amount",
          "type": "uint256"
        },
        {
          "internalType": "uint256",
          "name": "_unlockWeeks",
          "type": "uint256"
        }
      ],
      "name": "createLock",
      "outputs": [
        {
          "internalType": "uint256",
          "name": "lockId",
          "type": "uint256"
        }
      ],
      "stateMutability": "nonpayable",
      "type": "function"
    },
    {
      "inputs": [
        {
          "internalType": "address",
          "name": "_addr",
          "type": "address"
        },
        {
          "internalType": "uint256",
          "name": "_lockId",
          "type": "uint256"
        },
        {
          "internalType": "uint256",
          "name": "_value",
          "type": "uint256"
        }
      ],
      "name": "depositFor",
      "outputs": [],
      "stateMutability": "nonpayable",
      "type": "function"
    },
    {
      "inputs": [],
      "name": "epochUnit",
      "outputs": [
        {
          "internalType": "uint256",
          "name": "",
          "type": "uint256"
        }
      ],
      "stateMutability": "view",
      "type": "function"
    },
    {
      "inputs": [
        {
          "internalType": "uint256",
          "name": "tokenId",
          "type": "uint256"
        }
      ],
      "name": "getApproved",
      "outputs": [
        {
          "internalType": "address",
          "name": "",
          "type": "address"
        }
      ],
      "stateMutability": "view",
      "type": "function"
    },
    {
      "inputs": [
        {
          "internalType": "address",
          "name": "_addr",
          "type": "address"
        },
        {
          "internalType": "uint256",
          "name": "_lockId",
          "type": "uint256"
        },
        {
          "internalType": "uint256",
          "name": "_value",
          "type": "uint256"
        },
        {
          "internalType": "uint256",
          "name": "_unlockWeeks",
          "type": "uint256"
        }
      ],
      "name": "increaseLock",
      "outputs": [],
      "stateMutability": "nonpayable",
      "type": "function"
    },
    {
      "inputs": [
        {
          "internalType": "uint256",
          "name": "",
          "type": "uint256"
        }
      ],
      "name": "indexCheckOfTimeset",
      "outputs": [
        {
          "internalType": "bool",
          "name": "",
          "type": "bool"
        }
      ],
      "stateMutability": "view",
      "type": "function"
    },
    {
      "inputs": [
        {
          "internalType": "uint256",
          "name": "",
          "type": "uint256"
        }
      ],
      "name": "indexOfTimeset",
      "outputs": [
        {
          "internalType": "uint256",
          "name": "",
          "type": "uint256"
        }
      ],
      "stateMutability": "view",
      "type": "function"
    },
    {
      "inputs": [
        {
          "internalType": "address",
          "name": "owner_",
          "type": "address"
        },
        {
          "internalType": "address",
          "name": "operator",
          "type": "address"
        }
      ],
      "name": "isApprovedForAll",
      "outputs": [
        {
          "internalType": "bool",
          "name": "",
          "type": "bool"
        }
      ],
      "stateMutability": "view",
      "type": "function"
    },
    {
      "inputs": [
        {
          "internalType": "address",
          "name": "addr",
          "type": "address"
        }
      ],
      "name": "isManager",
      "outputs": [
        {
          "internalType": "bool",
          "name": "",
          "type": "bool"
        }
      ],
      "stateMutability": "view",
      "type": "function"
    },
    {
      "inputs": [],
      "name": "lastIndexOfTimeset",
      "outputs": [
        {
          "internalType": "uint256",
          "name": "index",
          "type": "uint256"
        }
      ],
      "stateMutability": "view",
      "type": "function"
    },
    {
      "inputs": [
        {
          "internalType": "uint256",
          "name": "_index",
          "type": "uint256"
        }
      ],
      "name": "lastPointOfTimeIndex",
      "outputs": [
        {
          "components": [
            {
              "internalType": "int256",
              "name": "slope",
              "type": "int256"
            },
            {
              "internalType": "int256",
              "name": "bias",
              "type": "int256"
            },
            {
              "internalType": "uint256",
              "name": "timestamp",
              "type": "uint256"
            }
          ],
          "internalType": "struct LibLockId.Point",
          "name": "",
          "type": "tuple"
        }
      ],
      "stateMutability": "view",
      "type": "function"
    },
    {
      "inputs": [
        {
          "internalType": "uint256",
          "name": "",
          "type": "uint256"
        }
      ],
      "name": "lockIdInfos",
      "outputs": [
        {
          "internalType": "uint256",
          "name": "start",
          "type": "uint256"
        },
        {
          "internalType": "uint256",
          "name": "end",
          "type": "uint256"
        },
        {
          "internalType": "uint256",
          "name": "amount",
          "type": "uint256"
        },
        {
          "internalType": "address",
          "name": "owner",
          "type": "address"
        },
        {
          "internalType": "bool",
          "name": "withdrawn",
          "type": "bool"
        }
      ],
      "stateMutability": "view",
      "type": "function"
    },
    {
      "inputs": [],
      "name": "manager",
      "outputs": [
        {
          "internalType": "address",
          "name": "",
          "type": "address"
        }
      ],
      "stateMutability": "view",
      "type": "function"
    },
    {
      "inputs": [],
      "name": "maxTime",
      "outputs": [
        {
          "internalType": "uint256",
          "name": "",
          "type": "uint256"
        }
      ],
      "stateMutability": "view",
      "type": "function"
    },
    {
      "inputs": [],
      "name": "maxTokenId",
      "outputs": [
        {
          "internalType": "uint256",
          "name": "",
          "type": "uint256"
        }
      ],
      "stateMutability": "view",
      "type": "function"
    },
    {
      "inputs": [],
      "name": "name",
      "outputs": [
        {
          "internalType": "string",
          "name": "",
          "type": "string"
        }
      ],
      "stateMutability": "view",
      "type": "function"
    },
    {
      "inputs": [
        {
          "internalType": "uint256",
          "name": "_stime",
          "type": "uint256"
        }
      ],
      "name": "nextTimeIndex",
      "outputs": [
        {
          "internalType": "uint256",
          "name": "",
          "type": "uint256"
        }
      ],
      "stateMutability": "view",
      "type": "function"
    },
    {
      "inputs": [
        {
          "internalType": "uint256",
          "name": "tokenId",
          "type": "uint256"
        }
      ],
      "name": "ownerOf",
      "outputs": [
        {
          "internalType": "address",
          "name": "",
          "type": "address"
        }
      ],
      "stateMutability": "view",
      "type": "function"
    },
    {
      "inputs": [],
      "name": "pauseProxy",
      "outputs": [
        {
          "internalType": "bool",
          "name": "",
          "type": "bool"
        }
      ],
      "stateMutability": "view",
      "type": "function"
    },
    {
      "inputs": [
        {
          "internalType": "uint256",
          "name": "",
          "type": "uint256"
        },
        {
          "internalType": "uint256",
          "name": "",
          "type": "uint256"
        }
      ],
      "name": "pointHistoryByLockId",
      "outputs": [
        {
          "internalType": "int256",
          "name": "slope",
          "type": "int256"
        },
        {
          "internalType": "int256",
          "name": "bias",
          "type": "int256"
        },
        {
          "internalType": "uint256",
          "name": "timestamp",
          "type": "uint256"
        }
      ],
      "stateMutability": "view",
      "type": "function"
    },
    {
      "inputs": [
        {
          "internalType": "uint256",
          "name": "",
          "type": "uint256"
        },
        {
          "internalType": "uint256",
          "name": "",
          "type": "uint256"
        }
      ],
      "name": "pointHistoryByWeek",
      "outputs": [
        {
          "internalType": "int256",
          "name": "slope",
          "type": "int256"
        },
        {
          "internalType": "int256",
          "name": "bias",
          "type": "int256"
        },
        {
          "internalType": "uint256",
          "name": "timestamp",
          "type": "uint256"
        }
      ],
      "stateMutability": "view",
      "type": "function"
    },
    {
      "inputs": [
        {
          "internalType": "uint256",
          "name": "_lockId",
          "type": "uint256"
        }
      ],
      "name": "pointHistoryOfId",
      "outputs": [
        {
          "components": [
            {
              "internalType": "int256",
              "name": "slope",
              "type": "int256"
            },
            {
              "internalType": "int256",
              "name": "bias",
              "type": "int256"
            },
            {
              "internalType": "uint256",
              "name": "timestamp",
              "type": "uint256"
            }
          ],
          "internalType": "struct LibLockId.Point[]",
          "name": "",
          "type": "tuple[]"
        }
      ],
      "stateMutability": "view",
      "type": "function"
    },
    {
      "inputs": [
        {
          "internalType": "uint256",
          "name": "_timeIndex",
          "type": "uint256"
        }
      ],
      "name": "pointHistoryOfTimeIndex",
      "outputs": [
        {
          "components": [
            {
              "internalType": "int256",
              "name": "slope",
              "type": "int256"
            },
            {
              "internalType": "int256",
              "name": "bias",
              "type": "int256"
            },
            {
              "internalType": "uint256",
              "name": "timestamp",
              "type": "uint256"
            }
          ],
          "internalType": "struct LibLockId.Point[]",
          "name": "",
          "type": "tuple[]"
        }
      ],
      "stateMutability": "view",
      "type": "function"
    },
    {
      "inputs": [],
      "name": "pointOfLastTimeIndex",
      "outputs": [
        {
          "components": [
            {
              "internalType": "int256",
              "name": "slope",
              "type": "int256"
            },
            {
              "internalType": "int256",
              "name": "bias",
              "type": "int256"
            },
            {
              "internalType": "uint256",
              "name": "timestamp",
              "type": "uint256"
            }
          ],
          "internalType": "struct LibLockId.Point",
          "name": "",
          "type": "tuple"
        }
      ],
      "stateMutability": "view",
      "type": "function"
    },
    {
      "inputs": [
        {
          "internalType": "uint256",
          "name": "",
          "type": "uint256"
        }
      ],
      "name": "proxyImplementation",
      "outputs": [
        {
          "internalType": "address",
          "name": "",
          "type": "address"
        }
      ],
      "stateMutability": "view",
      "type": "function"
    },
    {
      "inputs": [
        {
          "internalType": "address",
          "name": "from",
          "type": "address"
        },
        {
          "internalType": "address",
          "name": "to",
          "type": "address"
        },
        {
          "internalType": "uint256",
          "name": "tokenId",
          "type": "uint256"
        }
      ],
      "name": "safeTransferFrom",
      "outputs": [],
      "stateMutability": "nonpayable",
      "type": "function"
    },
    {
      "inputs": [
        {
          "internalType": "address",
          "name": "from",
          "type": "address"
        },
        {
          "internalType": "address",
          "name": "to",
          "type": "address"
        },
        {
          "internalType": "uint256",
          "name": "tokenId",
          "type": "uint256"
        },
        {
          "internalType": "bytes",
          "name": "_data",
          "type": "bytes"
        }
      ],
      "name": "safeTransferFrom",
      "outputs": [],
      "stateMutability": "nonpayable",
      "type": "function"
    },
    {
      "inputs": [
        {
          "internalType": "bytes4",
          "name": "",
          "type": "bytes4"
        }
      ],
      "name": "selectorImplementation",
      "outputs": [
        {
          "internalType": "address",
          "name": "",
          "type": "address"
        }
      ],
      "stateMutability": "view",
      "type": "function"
    },
    {
      "inputs": [
        {
          "internalType": "address",
          "name": "operator",
          "type": "address"
        },
        {
          "internalType": "bool",
          "name": "approved",
          "type": "bool"
        }
      ],
      "name": "setApprovalForAll",
      "outputs": [],
      "stateMutability": "nonpayable",
      "type": "function"
    },
    {
      "inputs": [
        {
          "internalType": "string",
          "name": "baseURI_",
          "type": "string"
        }
      ],
      "name": "setBaseURI",
      "outputs": [],
      "stateMutability": "nonpayable",
      "type": "function"
    },
    {
      "inputs": [
        {
          "internalType": "uint256",
          "name": "tokenId",
          "type": "uint256"
        },
        {
          "internalType": "string",
          "name": "_tokenURI",
          "type": "string"
        }
      ],
      "name": "setTokenURI",
      "outputs": [],
      "stateMutability": "nonpayable",
      "type": "function"
    },
    {
      "inputs": [
        {
          "internalType": "uint256[]",
          "name": "tokenIds",
          "type": "uint256[]"
        },
        {
          "internalType": "string[]",
          "name": "_tokenURIs",
          "type": "string[]"
        }
      ],
      "name": "setTokenURI",
      "outputs": [],
      "stateMutability": "nonpayable",
      "type": "function"
    },
    {
      "inputs": [],
      "name": "staker",
      "outputs": [
        {
          "internalType": "address",
          "name": "",
          "type": "address"
        }
      ],
      "stateMutability": "view",
      "type": "function"
    },
    {
      "inputs": [
        {
          "internalType": "bytes4",
          "name": "interfaceId",
          "type": "bytes4"
        }
      ],
      "name": "supportsInterface",
      "outputs": [
        {
          "internalType": "bool",
          "name": "",
          "type": "bool"
        }
      ],
      "stateMutability": "view",
      "type": "function"
    },
    {
      "inputs": [],
      "name": "symbol",
      "outputs": [
        {
          "internalType": "string",
          "name": "",
          "type": "string"
        }
      ],
      "stateMutability": "view",
      "type": "function"
    },
    {
      "inputs": [
        {
          "internalType": "uint256",
          "name": "index",
          "type": "uint256"
        }
      ],
      "name": "tokenByIndex",
      "outputs": [
        {
          "internalType": "uint256",
          "name": "",
          "type": "uint256"
        }
      ],
      "stateMutability": "view",
      "type": "function"
    },
    {
      "inputs": [
        {
          "internalType": "address",
          "name": "owner_",
          "type": "address"
        },
        {
          "internalType": "uint256",
          "name": "index",
          "type": "uint256"
        }
      ],
      "name": "tokenOfOwnerByIndex",
      "outputs": [
        {
          "internalType": "uint256",
          "name": "",
          "type": "uint256"
        }
      ],
      "stateMutability": "view",
      "type": "function"
    },
    {
      "inputs": [
        {
          "internalType": "uint256",
          "name": "tokenId",
          "type": "uint256"
        }
      ],
      "name": "tokenURI",
      "outputs": [
        {
          "internalType": "string",
          "name": "",
          "type": "string"
        }
      ],
      "stateMutability": "view",
      "type": "function"
    },
    {
      "inputs": [
        {
          "internalType": "address",
          "name": "owner_",
          "type": "address"
        }
      ],
      "name": "tokensOfOwner",
      "outputs": [
        {
          "internalType": "uint256[]",
          "name": "",
          "type": "uint256[]"
        }
      ],
      "stateMutability": "view",
      "type": "function"
    },
    {
      "inputs": [],
      "name": "tos",
      "outputs": [
        {
          "internalType": "address",
          "name": "",
          "type": "address"
        }
      ],
      "stateMutability": "view",
      "type": "function"
    },
    {
      "inputs": [],
      "name": "totalSupply",
      "outputs": [
        {
          "internalType": "uint256",
          "name": "",
          "type": "uint256"
        }
      ],
      "stateMutability": "view",
      "type": "function"
    },
    {
      "inputs": [],
      "name": "totalSupplyLocks",
      "outputs": [
        {
          "internalType": "uint256",
          "name": "amount",
          "type": "uint256"
        }
      ],
      "stateMutability": "view",
      "type": "function"
    },
    {
      "inputs": [
        {
          "internalType": "uint256",
          "name": "_timestamp",
          "type": "uint256"
        }
      ],
      "name": "totalSupplyLocksAt",
      "outputs": [
        {
          "internalType": "uint256",
          "name": "amount",
          "type": "uint256"
        }
      ],
      "stateMutability": "view",
      "type": "function"
    },
    {
      "inputs": [
        {
          "internalType": "address",
          "name": "from",
          "type": "address"
        },
        {
          "internalType": "address",
          "name": "to",
          "type": "address"
        },
        {
          "internalType": "uint256",
          "name": "tokenId",
          "type": "uint256"
        }
      ],
      "name": "transferFrom",
      "outputs": [],
      "stateMutability": "nonpayable",
      "type": "function"
    }
  ],
  "bytecode": "0x60806040523480156200001157600080fd5b5060405162003ec238038062003ec283398101604081905262000034916200021e565b620000466301ffc9a760e01b620000b8565b600580546001600160a01b0319166001600160a01b03861617905560076200006f87826200034e565b5060086200007e86826200034e565b50601592909255601655601480546001600160a01b0390921661010002610100600160a81b0319909216919091179055506200041a915050565b6001600160e01b03198082169003620001175760405162461bcd60e51b815260206004820152601c60248201527f4552433136353a20696e76616c696420696e7465726661636520696400000000604482015260640160405180910390fd5b6001600160e01b0319166000908152600460205260409020805460ff19166001179055565b634e487b7160e01b600052604160045260246000fd5b600082601f8301126200016457600080fd5b81516001600160401b03808211156200018157620001816200013c565b604051601f8301601f19908116603f01168101908282118183101715620001ac57620001ac6200013c565b81604052838152602092508683858801011115620001c957600080fd5b600091505b83821015620001ed5785820183015181830184015290820190620001ce565b600093810190920192909252949350505050565b80516001600160a01b03811681146200021957600080fd5b919050565b60008060008060008060c087890312156200023857600080fd5b86516001600160401b03808211156200025057600080fd5b6200025e8a838b0162000152565b975060208901519150808211156200027557600080fd5b506200028489828a0162000152565b955050620002956040880162000201565b93506060870151925060808701519150620002b360a0880162000201565b90509295509295509295565b600181811c90821680620002d457607f821691505b602082108103620002f557634e487b7160e01b600052602260045260246000fd5b50919050565b601f8211156200034957600081815260208120601f850160051c81016020861015620003245750805b601f850160051c820191505b81811015620003455782815560010162000330565b5050505b505050565b81516001600160401b038111156200036a576200036a6200013c565b62000382816200037b8454620002bf565b84620002fb565b602080601f831160018114620003ba5760008415620003a15750858301515b600019600386901b1c1916600185901b17855562000345565b600085815260208120601f198616915b82811015620003eb57888601518255948401946001909101908401620003ca565b50858210156200040a5787850151600019600388901b60f8161c191681555b5050505050600190811b01905550565b613a98806200042a6000396000f3fe608060405234801561001057600080fd5b50600436106104f95760003560e01c806389f395de116102a1578063ba209fcf1161016b578063e985e9c5116100e3578063f663171811610097578063f975d9f31161007c578063f975d9f314610b69578063fd2dcecf14610b7c578063fea3d59d14610b8557600080fd5b8063f663171814610b41578063f88d1fef14610b6157600080fd5b8063f0329f6b116100c8578063f0329f6b14610b08578063f1e47d3d14610b1b578063f3ae241514610b2e57600080fd5b8063e985e9c514610a9e578063edc3bc3f14610ada57600080fd5b8063d28d88521161013a578063dece68541161011f578063dece685414610a6a578063e178ee2014610a78578063e50388a614610a8b57600080fd5b8063d28d885214610a5a578063de69618014610a6257600080fd5b8063ba209fcf146109f1578063c87b56dd14610a11578063cdc4717c14610a24578063cea823cd14610a3757600080fd5b8063aa5965ae11610219578063b2bdfa7b116101cd578063b88d4fde116101b2578063b88d4fde146109a1578063b911135f146109b5578063b94419e0146109de57600080fd5b8063b2bdfa7b1461097b578063b52c05fe1461098e57600080fd5b8063aafb2d44116101fe578063aafb2d4414610952578063b01ac59114610965578063b09f12661461097357600080fd5b8063aa5965ae1461091f578063aa88652b1461093257600080fd5b8063a22cb46511610270578063a726366511610255578063a7263665146108ce578063a7cc0136146108ee578063a898e9fa1461091757600080fd5b8063a22cb465146108a0578063a2e9b439146108ae57600080fd5b806389f395de1461086957806391ba317a1461088157806394a509dd1461088a57806395d89b411461089857600080fd5b8063481c6a75116103e25780636352211e1161035a57806370a082311161030e578063796db312116102f3578063796db312146108065780638462151c1461082f57806388290adc1461084257600080fd5b806370a08231146107eb578063743976a0146107fe57600080fd5b8063642cf6491161033f578063642cf649146107bb5780636c0360eb146107ce5780636ff97f1d146107d657600080fd5b80636352211e1461079457806363a8fd89146107a757600080fd5b80634f6ccce7116103b1578063550d01a311610396578063550d01a31461074b57806355f804b31461076e5780635ebaf1db1461078157600080fd5b80634f6ccce71461070f57806350d2a2761461072257600080fd5b8063481c6a75146106c557806349d1e042146106d65780634cf5fbf5146106e95780634f3c5f06146106fc57600080fd5b806318160ddd116104755780632f745c59116104445780633e47a4b1116104295780633e47a4b11461068c57806341668abe1461069f57806342842e0e146106b257600080fd5b80632f745c591461067157806334067c3c1461068457600080fd5b806318160ddd1461061f57806322e67e711461062757806323b872dd1461063057806328f02c681461064357600080fd5b8063095ea7b3116104cc57806310c11360116104b157806310c11360146105c4578063162094c4146105d757806317a3a79c146105ea57600080fd5b8063095ea7b31461059d5780630bb78ec1146105b157600080fd5b806301ffc9a7146104fe578063059f8b161461054057806306fdde031461055d578063081812fc14610572575b600080fd5b61052b61050c3660046130e8565b6001600160e01b03191660009081526004602052604090205460ff1690565b60405190151581526020015b60405180910390f35b61054f670de0b6b3a764000081565b604051908152602001610537565b610565610c02565b6040516105379190613155565b610585610580366004613168565b610c94565b6040516001600160a01b039091168152602001610537565b6105af6105ab366004613198565b5050565b005b6105656105bf366004613168565b610d3f565b61054f6105d2366004613168565b610dd9565b6105af6105e5366004613281565b610dfa565b61060d6105f8366004613168565b600a6020526000908152604090205460ff1681565b60405160ff9091168152602001610537565b60125461054f565b61054f60165481565b6105af61063e3660046132c8565b505050565b610656610651366004613304565b610ea7565b60408051938452602084019290925290820152606001610537565b61054f61067f366004613198565b610ee9565b61054f610f8c565b61054f61069a366004613326565b610fcf565b61054f6106ad366004613198565b611040565b6105af6106c03660046132c8565b6110b4565b6005546001600160a01b0316610585565b61054f6106e4366004613168565b6110c8565b6105af6106f7366004613341565b61112c565b61054f61070a366004613198565b61135a565b61054f61071d366004613168565b61138b565b6105856107303660046130e8565b6003602052600090815260409020546001600160a01b031681565b61052b610759366004613326565b60026020526000908152604090205460ff1681565b6105af61077c366004613374565b611417565b600654610585906001600160a01b031681565b6105856107a2366004613168565b6114c2565b60005461052b90600160a01b900460ff1681565b61054f6107c9366004613304565b61154d565b61056561158e565b6107de61159d565b60405161053791906133a9565b61054f6107f9366004613326565b6115f4565b61056561168e565b610585610814366004613168565b600c602052600090815260409020546001600160a01b031681565b6107de61083d366004613326565b61169b565b610850630a85bd0160e11b81565b6040516001600160e01b03199091168152602001610537565b6014546105859061010090046001600160a01b031681565b61054f60175481565b610850635b5e139f60e01b81565b610565611707565b6105af6105ab3660046133ed565b61054f6108bc366004613168565b60116020526000908152604090205481565b61054f6108dc366004613168565b60136020526000908152604090205481565b6105856108fc366004613168565b600d602052600090815260409020546001600160a01b031681565b6107de611716565b61054f61092d366004613168565b61176c565b610945610940366004613168565b61177c565b6040516105379190613429565b6105af6109603660046134fe565b611922565b61085063780e9d6360e01b81565b610565611a7d565b600054610585906001600160a01b031681565b61054f61099c366004613304565b611a8a565b6105af6109af3660046135ad565b50505050565b6105856109c3366004613168565b6001602052600090815260409020546001600160a01b031681565b61054f6109ec366004613168565b611c12565b610a046109ff366004613168565b611ca0565b6040516105379190613629565b610565610a1f366004613168565b611d30565b61054f610a32366004613168565b611e99565b61052b610a45366004613168565b601c6020526000908152604090205460ff1681565b610565611ebd565b61054f611eca565b6108506380ac58cd60e01b81565b610656610a86366004613304565b611edd565b61054f610a9936600461367f565b611ef9565b61052b610aac3660046136ed565b6001600160a01b039182166000908152600f6020908152604080832093909416825291909152205460ff1690565b61052b610ae83660046136ed565b600f60209081526000928352604080842090915290825290205460ff1681565b600554610585906001600160a01b031681565b6105af610b29366004613720565b611f6c565b61052b610b3c366004613326565b61224e565b61054f610b4f366004613326565b600e6020526000908152604090205481565b610945612276565b610a04610b77366004613168565b6122a5565b61054f60155481565b610bcf610b93366004613168565b6018602052600090815260409020805460018201546002830154600390930154919290916001600160a01b03811690600160a01b900460ff1685565b604080519586526020860194909452928401919091526001600160a01b031660608301521515608082015260a001610537565b606060078054610c1190613759565b80601f0160208091040260200160405190810160405280929190818152602001828054610c3d90613759565b8015610c8a5780601f10610c5f57610100808354040283529160200191610c8a565b820191906000526020600020905b815481529060010190602001808311610c6d57829003601f168201915b5050505050905090565b6000818152600c60205260408120546001600160a01b0316610d235760405162461bcd60e51b815260206004820152602f60248201527f4c6f636b49644e46543a20617070726f76656420717565727920666f72206e6f60448201527f6e6578697374656e7420746f6b656e000000000000000000000000000000000060648201526084015b60405180910390fd5b506000908152600d60205260409020546001600160a01b031690565b60096020526000908152604090208054610d5890613759565b80601f0160208091040260200160405190810160405280929190818152602001828054610d8490613759565b8015610dd15780601f10610da657610100808354040283529160200191610dd1565b820191906000526020600020905b815481529060010190602001808311610db457829003601f168201915b505050505081565b601b8181548110610de957600080fd5b600091825260209091200154905081565b6005546001600160a01b03163314610e425760405162461bcd60e51b815260206004820152600b60248201526a3737ba1036b0b730b3b2b960a91b6044820152606401610d1a565b60145460ff161515600103610e825760405162461bcd60e51b8152602060048201526006602482015265696e2075736560d01b6044820152606401610d1a565b6014805460ff19166001179055610e998282612320565b50506014805460ff19169055565b601a6020528160005260406000208181548110610ec357600080fd5b600091825260209091206003909102018054600182015460029092015490935090915083565b6000610ef4836115f4565b8210610f4e5760405162461bcd60e51b8152602060048201526024808201527f4c6f636b49644e46543a206f776e657220696e646578206f7574206f6620626f604482015263756e647360e01b6064820152608401610d1a565b6001600160a01b0383166000908152601060205260409020805483908110610f7857610f78613793565b906000526020600020015490505b92915050565b601b546000908103610f9e5750600090565b601b8054610fae906001906137bf565b81548110610fbe57610fbe613793565b90600052602060002001545b905090565b600080610fdb8361169b565b90508051600003610fef5750600092915050565b60005b81518110156110395761101d82828151811061101057611010613793565b6020026020010151611c12565b61102790846137d2565b9250611032816137e5565b9050610ff2565b5050919050565b60008061104c8461169b565b90508051600003611061576000915050610f86565b60005b81518110156110ac5761109082828151811061108257611082613793565b60200260200101518561154d565b61109a90846137d2565b92506110a5816137e5565b9050611064565b505092915050565b604080516020810190915260009052505050565b60008060006110d6846123ab565b91509150816110e9575060009392505050565b6000818152601a60205260408120819061110390876124b4565b91509150816111185750600095945050505050565b6111228187611ef9565b9695505050505050565b808060000361116a5760405162461bcd60e51b815260206004820152600a6024820152697a65726f2076616c756560b01b6044820152606401610d1a565b600083815260186020908152604091829020825160a081018452815481526001820154928101929092526002810154928201929092526003909101546001600160a01b03811660608301819052600160a01b90910460ff1615156080830152158015906111d75750805115155b61120f5760405162461bcd60e51b81526020600482015260096024820152681b9bdd08195e1a5cdd60ba1b6044820152606401610d1a565b6080810151156112615760405162461bcd60e51b815260206004820152601860248201527f49742069732077697468647261776e20616c72656164792e00000000000000006044820152606401610d1a565b428160200151116112b45760405162461bcd60e51b815260206004820152601560248201527f4c6f636b2074696d652069732066696e697368656400000000000000000000006044820152606401610d1a565b846001600160a01b031681606001516001600160a01b0316146113055760405162461bcd60e51b81526020600482015260096024820152683737ba1037bbb732b960b91b6044820152606401610d1a565b61131285858560006125eb565b60408051338152602081018690529081018490527fea44bc904f77b1be47cd5b840b00f19b7238f88d7524fa5a86629282bfe6bcc59060600160405180910390a15050505050565b6010602052816000526040600020818154811061137657600080fd5b90600052602060002001600091509150505481565b600061139660125490565b82106113f25760405162461bcd60e51b815260206004820152602560248201527f4c6f636b49644e46543a20676c6f62616c20696e646578206f7574206f6620626044820152646f756e647360d81b6064820152608401610d1a565b6012828154811061140557611405613793565b90600052602060002001549050919050565b6005546001600160a01b0316331461145f5760405162461bcd60e51b815260206004820152600b60248201526a3737ba1036b0b730b3b2b960a91b6044820152606401610d1a565b60145460ff16151560010361149f5760405162461bcd60e51b8152602060048201526006602482015265696e2075736560d01b6044820152606401610d1a565b6014805460ff191660011790556114b581612aa3565b506014805460ff19169055565b6000818152600c60205260408120546001600160a01b031680610f865760405162461bcd60e51b815260206004820152602c60248201527f4c6f636b49644e46543a206f776e657220717565727920666f72206e6f6e657860448201527f697374656e7420746f6b656e00000000000000000000000000000000000000006064820152608401610d1a565b60008281526019602052604081208190819061156990856124b4565b9150915081156115825761157d8185611ef9565b611585565b60005b95945050505050565b6060600b8054610c1190613759565b60606012805480602002602001604051908101604052809291908181526020018280548015610c8a57602002820191906000526020600020905b8154815260200190600101908083116115d7575050505050905090565b60006001600160a01b0382166116725760405162461bcd60e51b815260206004820152602d60248201527f4c6f636b49644e46543a2062616c616e636520717565727920666f722074686560448201527f207a65726f2061646472657373000000000000000000000000000000000000006064820152608401610d1a565b506001600160a01b03166000908152600e602052604090205490565b600b8054610d5890613759565b6001600160a01b0381166000908152601060209081526040918290208054835181840281018401909452808452606093928301828280156116fb57602002820191906000526020600020905b8154815260200190600101908083116116e7575b50505050509050919050565b606060088054610c1190613759565b6060601b805480602002602001604051908101604052809291908181526020018280548015610c8a57602002820191906000526020600020908154815260200190600101908083116115d7575050505050905090565b60128181548110610de957600080fd5b6117a060405180606001604052806000815260200160008152602001600081525090565b81156118f8576000828152601a6020908152604080832080548251818502810185019093528083529192909190849084015b8282101561182257838290600052602060002090600302016040518060600160405290816000820154815260200160018201548152602001600282015481525050815260200190600101906117d2565b50505050905080516000146118d2576040518060600160405280826001845161184b91906137bf565b8151811061185b5761185b613793565b6020026020010151600001518152602001826001845161187b91906137bf565b8151811061188b5761188b613793565b602002602001015160200151815260200182600184516118ab91906137bf565b815181106118bb576118bb613793565b602002602001015160400151815250915050919050565b604051806060016040528060008152602001600081526020016000815250915050919050565b6040518060600160405280600081526020016000815260200160008152509050919050565b919050565b6005546001600160a01b0316331461196a5760405162461bcd60e51b815260206004820152600b60248201526a3737ba1036b0b730b3b2b960a91b6044820152606401610d1a565b60145460ff1615156001036119aa5760405162461bcd60e51b8152602060048201526006602482015265696e2075736560d01b6044820152606401610d1a565b6014805460ff191660011790558151158015906119c8575080518251145b611a145760405162461bcd60e51b815260206004820152600c60248201527f77726f6e67206c656e67746800000000000000000000000000000000000000006044820152606401610d1a565b60005b8251811015611a6e57611a5c838281518110611a3557611a35613793565b6020026020010151838381518110611a4f57611a4f613793565b6020026020010151612320565b80611a66816137e5565b915050611a17565b50506014805460ff1916905550565b60088054610d5890613759565b60008280600003611aca5760405162461bcd60e51b815260206004820152600a6024820152697a65726f2076616c756560b01b6044820152606401610d1a565b8280600003611b085760405162461bcd60e51b815260206004820152600a6024820152697a65726f2076616c756560b01b6044820152606401610d1a565b60155460009080611b1981886137fe565b611b2390426137d2565b611b2d9190613815565b611b3791906137fe565b601654909150611b4742836137bf565b1115611b955760405162461bcd60e51b815260206004820152601b60248201527f4d617820756e6c6f636b2074696d6520697320657863656564656400000000006044820152606401610d1a565b601760008154611ba4906137e5565b91829055509350611bb53385612aaf565b611bc1338588846125eb565b6040805133815260208101869052908101879052606081018290527f71fc552ee832a9004ea0bdb07cb6dd9d641eb2cb53b3cfe88c8fdcff886734a09060800160405180910390a150505092915050565b6000818152601960205260408120548015611c96576000838152601960205260409020611c9190611c446001846137bf565b81548110611c5457611c54613793565b9060005260206000209060030201604051806060016040529081600082015481526020016001820154815260200160028201548152505042611ef9565b611c99565b60005b9392505050565b606060196000838152602001908152602001600020805480602002602001604051908101604052809291908181526020016000905b82821015611d255783829060005260206000209060030201604051806060016040529081600082015481526020016001820154815260200160028201548152505081526020019060010190611cd5565b505050509050919050565b6000818152600c60205260409020546060906001600160a01b0316611d975760405162461bcd60e51b815260206004820152601c60248201527f4c6f636b49644e46543a206e6f6e6578697374656e7420746f6b656e000000006044820152606401610d1a565b60008281526009602052604081208054611db090613759565b80601f0160208091040260200160405190810160405280929190818152602001828054611ddc90613759565b8015611e295780601f10611dfe57610100808354040283529160200191611e29565b820191906000526020600020905b815481529060010190602001808311611e0c57829003601f168201915b505050505090506000611e3a61158e565b90508051600003611e4c575092915050565b815115611e7e578082604051602001611e66929190613837565b60405160208183030381529060405292505050919050565b80611e8885612ac9565b604051602001611e66929190613837565b601554600090611ea98180613815565b611eb391906137fe565b610f8690836137d2565b60078054610d5890613759565b6000610fca611ed7612276565b42611ef9565b60196020528160005260406000208181548110610ec357600080fd5b60008260400151821015611f0f57506000610f86565b6000836040015183611f2191906137bf565b8451611f2d9190613866565b9050670de0b6b3a764000081856020015113611f4a576000611f5a565b818560200151611f5a9190613896565b611f649190613815565b949350505050565b81151580611f7957508015155b611fb25760405162461bcd60e51b815260206004820152600a6024820152697a65726f2076616c756560b01b6044820152606401610d1a565b600083815260186020908152604091829020825160a081018452815481526001820154928101929092526002810154928201929092526003909101546001600160a01b03811660608301819052600160a01b90910460ff16151560808301521580159061201f5750805115155b6120575760405162461bcd60e51b81526020600482015260096024820152681b9bdd08195e1a5cdd60ba1b6044820152606401610d1a565b60608101516001600160a01b03163314801561207b57506001600160a01b03851633145b6120b35760405162461bcd60e51b81526020600482015260096024820152683737ba1037bbb732b960b91b6044820152606401610d1a565b6080810151156121055760405162461bcd60e51b815260206004820152601860248201527f49742069732077697468647261776e20616c72656164792e00000000000000006044820152606401610d1a565b428160200151116121585760405162461bcd60e51b815260206004820152601560248201527f4c6f636b2074696d652069732066696e697368656400000000000000000000006044820152606401610d1a565b600082156121ee576015548061216e81866137fe565b846020015161217d91906137d2565b6121879190613815565b61219191906137fe565b6016549091506121a142836137bf565b106121ee5760405162461bcd60e51b815260206004820152601b60248201527f4d617820756e6c6f636b2074696d6520697320657863656564656400000000006044820152606401610d1a565b6121fe82606001518686846125eb565b6040805133815260208101879052908101859052606081018290527f5f892c194d8c6e1843b07f17cf9f74a948c12db2d661de24241b1231715bc79f9060800160405180910390a1505050505050565b6005546000906001600160a01b0380841691160361226e57506001919050565b506000919050565b61229a60405180606001604052806000815260200160008152602001600081525090565b610fca610940610f8c565b6000818152601a60209081526040808320805482518185028101850190935280835260609492939192909184018215611d255783829060005260206000209060030201604051806060016040529081600082015481526020016001820154815260200160028201548152505081526020019060010190611cd5565b6000828152600c60205260409020546001600160a01b03166123935760405162461bcd60e51b815260206004820152602660248201527f546974616e4e46543a2055524920736574206f66206e6f6e6578697374656e74604482015265103a37b5b2b760d11b6064820152608401610d1a565b600082815260096020526040902061063e828261390b565b601b5460155460009182918290806123c381886137d2565b6123cd91906137fe565b6123d79190613815565b9050816000036123ee575060009485945092505050565b6000825b806123fe8360016137d2565b1015612454576000600261241283856137d2565b61241c9190613815565b905083601b828154811061243257612432613793565b90600052602060002001541161244a5780925061244e565b8091505b506123f2565b82601b838154811061246857612468613793565b9060005260206000200154116124a5576001601b838154811061248d5761248d613793565b90600052602060002001549550955050505050915091565b50600096879650945050505050565b60006124da60405180606001604052806000815260200160008152602001600081525090565b83546000036124ec57600091506125e4565b83546000905b806124fe8360016137d2565b101561255a576000600261251283856137d2565b61251c9190613815565b90508587828154811061253157612531613793565b9060005260206000209060030201600201541161255057809250612554565b8091505b506124f2565b8486838154811061256d5761256d613793565b906000526020600020906003020160020154116125dd57600186838154811061259857612598613793565b906000526020600020906003020180604051806060016040529081600082015481526020016001820154815260200160028201548152505090509350935050506125e4565b6000935050505b9250929050565b60145460ff16151560010361262b5760405162461bcd60e51b8152602060048201526006602482015265696e2075736560d01b6044820152606401610d1a565b6014805460ff191660019081179091556000848152601860209081526040808320815160a08082018452825482529582015481850190815260028301548285019081526003909301546001600160a01b0381166060840152600160a01b900460ff16151560808301528351968701845281518752519386019390935251919391908201906126ba9087906137d2565b81526001600160a01b03881660208201526000604090910152905082156126e357602081018390525b80516000036126f0574281525b6000858152601860209081526040808320845181558285015160018201558185015160028201556060808601516003909201805460808801511515600160a01b0274ffffffffffffffffffffffffffffffffffffffffff199091166001600160a01b039094169390931792909217909155601983528184205482519182018352848252928101849052908101929092529060006040518060600160405280601654670de0b6b3a764000087604001516127a991906137fe565b6127b39190613815565b8152602001600081526020014281525090504284602001516127d591906137bf565b81516127e19190613866565b602082015282156128535760008881526019602052604090206128056001856137bf565b8154811061281557612815613793565b906000526020600020906003020160405180606001604052908160008201548152602001600182015481526020016002820154815250509150612873565b604051806060016040528060008152602001600081526020014281525091505b60006040518060600160405280846000015184600001516128949190613896565b8152602001846020015184602001516128ad9190613896565b815242602091820181905260008c8152601983526040808220805460018181018355918452858420895160039092020190815594880151908501558601516002909301929092559192509061290190611e99565b6000818152601a60209081526040808320548151606081018352848152928301849052908201839052929350908290036129445761293d612276565b90506129a7565b6000838152601a6020526040902061295d6001846137bf565b8154811061296d5761296d613793565b9060005260206000209060030201604051806060016040529081600082015481526020016001820154815260200160028201548152505090505b60006040518060600160405280866000015184600001516129c891906139cb565b8152602001866020015184602001516129e191906139cb565b8152426020918201526000868152601a825260408082208054600181810183559184528484208651600390920201908155858501519181019190915581850151600290910155878252601c909252205490915060ff16612a89576000848152601c60205260408120805460ff19166001908117909155601b805491820181559091527f3ad8aa4f87544323a9d1e5dd902f40c356527a7955687113db5f9a85ad579dc1018490555b50506014805460ff19169055505050505050505050505050565b600b6105ab828261390b565b6105ab828260405180602001604052806000815250612b69565b60606000612ad683612cb9565b600101905060008167ffffffffffffffff811115612af657612af66131c2565b6040519080825280601f01601f191660200182016040528015612b20576020820181803683370190505b5090508181016020015b600019017f3031323334353637383961626364656600000000000000000000000000000000600a86061a8153600a8504945084612b2a57509392505050565b81600003612bb95760405162461bcd60e51b815260206004820152601360248201527f6e6f7420616c6c6f77656420746f6b656e4964000000000000000000000000006044820152606401610d1a565b612bc38383612d9b565b6001600160a01b038316600090815260106020908152604080832080548685526011845282852081905560018082018355918552838520018690556012805487865260139094529184208390558201815582527fbb8a6a4669ba250d26cd7a459eca9d215f8307e33aebe50379bc5a3617ec344401839055612c4790848484612edb565b61063e5760405162461bcd60e51b815260206004820152603560248201527f4c6f636b49644e46543a207472616e7366657220746f206e6f6e20455243373260448201527f31526563656976657220696d706c656d656e74657200000000000000000000006064820152608401610d1a565b6000807a184f03e93ff9f4daa797ed6e38ed64bf6a1f0100000000000000008310612d02577a184f03e93ff9f4daa797ed6e38ed64bf6a1f010000000000000000830492506040015b6d04ee2d6d415b85acef81000000008310612d2e576d04ee2d6d415b85acef8100000000830492506020015b662386f26fc100008310612d4c57662386f26fc10000830492506010015b6305f5e1008310612d64576305f5e100830492506008015b6127108310612d7857612710830492506004015b60648310612d8a576064830492506002015b600a8310610f865760010192915050565b6001600160a01b038216612dfd5760405162461bcd60e51b815260206004820152602360248201527f4c6f636b49644e46543a206d696e7420746f20746865207a65726f206164647260448201526265737360e81b6064820152608401610d1a565b6000818152600c60205260409020546001600160a01b031615612e625760405162461bcd60e51b815260206004820152601f60248201527f4c6f636b49644e46543a20746f6b656e20616c7265616479206d696e746564006044820152606401610d1a565b6000818152600c60209081526040808320805473ffffffffffffffffffffffffffffffffffffffff19166001600160a01b038716908117909155808452600e90925280832080546001019055518392907fddf252ad1be2c89b69c2b068fc378daa952ba7f163c4a11628f55a4df523b3ef908290a45050565b60006001600160a01b0384163b612ef457506001611f64565b6000612f7563150b7a0260e01b33888787604051602401612f1894939291906139eb565b604051602081830303815290604052906001600160e01b0319166020820180516001600160e01b038381831617835250505050604051806060016040528060358152602001613a57603591396001600160a01b0388169190612fac565b9050600081806020019051810190612f8d9190613a1d565b6001600160e01b031916630a85bd0160e11b1492505050949350505050565b6060611f64848460008585600080866001600160a01b03168587604051612fd39190613a3a565b60006040518083038185875af1925050503d8060008114613010576040519150601f19603f3d011682016040523d82523d6000602084013e613015565b606091505b509150915061302687838387613031565b979650505050505050565b606083156130a0578251600003613099576001600160a01b0385163b6130995760405162461bcd60e51b815260206004820152601d60248201527f416464726573733a2063616c6c20746f206e6f6e2d636f6e74726163740000006044820152606401610d1a565b5081611f64565b611f6483838151156130b55781518083602001fd5b8060405162461bcd60e51b8152600401610d1a9190613155565b6001600160e01b0319811681146130e557600080fd5b50565b6000602082840312156130fa57600080fd5b8135611c99816130cf565b60005b83811015613120578181015183820152602001613108565b50506000910152565b60008151808452613141816020860160208601613105565b601f01601f19169290920160200192915050565b602081526000611c996020830184613129565b60006020828403121561317a57600080fd5b5035919050565b80356001600160a01b038116811461191d57600080fd5b600080604083850312156131ab57600080fd5b6131b483613181565b946020939093013593505050565b634e487b7160e01b600052604160045260246000fd5b604051601f8201601f1916810167ffffffffffffffff81118282101715613201576132016131c2565b604052919050565b600067ffffffffffffffff831115613223576132236131c2565b613236601f8401601f19166020016131d8565b905082815283838301111561324a57600080fd5b828260208301376000602084830101529392505050565b600082601f83011261327257600080fd5b611c9983833560208501613209565b6000806040838503121561329457600080fd5b82359150602083013567ffffffffffffffff8111156132b257600080fd5b6132be85828601613261565b9150509250929050565b6000806000606084860312156132dd57600080fd5b6132e684613181565b92506132f460208501613181565b9150604084013590509250925092565b6000806040838503121561331757600080fd5b50508035926020909101359150565b60006020828403121561333857600080fd5b611c9982613181565b60008060006060848603121561335657600080fd5b61335f84613181565b95602085013595506040909401359392505050565b60006020828403121561338657600080fd5b813567ffffffffffffffff81111561339d57600080fd5b611f6484828501613261565b6020808252825182820181905260009190848201906040850190845b818110156133e1578351835292840192918401916001016133c5565b50909695505050505050565b6000806040838503121561340057600080fd5b61340983613181565b91506020830135801515811461341e57600080fd5b809150509250929050565b81518152602080830151908201526040808301519082015260608101610f86565b600067ffffffffffffffff821115613464576134646131c2565b5060051b60200190565b600082601f83011261347f57600080fd5b8135602061349461348f8361344a565b6131d8565b82815260059290921b840181019181810190868411156134b357600080fd5b8286015b848110156134f357803567ffffffffffffffff8111156134d75760008081fd5b6134e58986838b0101613261565b8452509183019183016134b7565b509695505050505050565b6000806040838503121561351157600080fd5b823567ffffffffffffffff8082111561352957600080fd5b818501915085601f83011261353d57600080fd5b8135602061354d61348f8361344a565b82815260059290921b8401810191818101908984111561356c57600080fd5b948201945b8386101561358a57853582529482019490820190613571565b965050860135925050808211156135a057600080fd5b506132be8582860161346e565b600080600080608085870312156135c357600080fd5b6135cc85613181565b93506135da60208601613181565b925060408501359150606085013567ffffffffffffffff8111156135fd57600080fd5b8501601f8101871361360e57600080fd5b61361d87823560208401613209565b91505092959194509250565b6020808252825182820181905260009190848201906040850190845b818110156133e15761366c8385518051825260208082015190830152604090810151910152565b9284019260609290920191600101613645565b600080828403608081121561369357600080fd5b60608112156136a157600080fd5b506040516060810181811067ffffffffffffffff821117156136c5576136c56131c2565b6040908152843582526020808601359083015284810135908201529460609093013593505050565b6000806040838503121561370057600080fd5b61370983613181565b915061371760208401613181565b90509250929050565b6000806000806080858703121561373657600080fd5b61373f85613181565b966020860135965060408601359560600135945092505050565b600181811c9082168061376d57607f821691505b60208210810361378d57634e487b7160e01b600052602260045260246000fd5b50919050565b634e487b7160e01b600052603260045260246000fd5b634e487b7160e01b600052601160045260246000fd5b81810381811115610f8657610f866137a9565b80820180821115610f8657610f866137a9565b6000600182016137f7576137f76137a9565b5060010190565b8082028115828204841417610f8657610f866137a9565b60008261383257634e487b7160e01b600052601260045260246000fd5b500490565b60008351613849818460208801613105565b83519083019061385d818360208801613105565b01949350505050565b80820260008212600160ff1b84141615613882576138826137a9565b8181058314821517610f8657610f866137a9565b81810360008312801583831316838312821617156138b6576138b66137a9565b5092915050565b601f82111561063e57600081815260208120601f850160051c810160208610156138e45750805b601f850160051c820191505b81811015613903578281556001016138f0565b505050505050565b815167ffffffffffffffff811115613925576139256131c2565b613939816139338454613759565b846138bd565b602080601f83116001811461396e57600084156139565750858301515b600019600386901b1c1916600185901b178555613903565b600085815260208120601f198616915b8281101561399d5788860151825594840194600190910190840161397e565b50858210156139bb5787850151600019600388901b60f8161c191681555b5050505050600190811b01905550565b80820182811260008312801582168215821617156110ac576110ac6137a9565b60006001600160a01b038087168352808616602084015250836040830152608060608301526111226080830184613129565b600060208284031215613a2f57600080fd5b8151611c99816130cf565b60008251613a4c818460208701613105565b919091019291505056fe4c6f636b49644e46543a207472616e7366657220746f206e6f6e20455243373231526563656976657220696d706c656d656e746572a164736f6c6343000812000a",
  "linkReferences": {},
  "deployedLinkReferences": {}
}