{
  "_format": "hh-sol-artifact-1",
  "contractName": "LockIdNFT",
  "sourceName": "contracts/stos/LockIdNFT.sol",
  "abi": [
    {
      "inputs": [
        {
          "internalType": "string",
          "name": "name_",
          "type": "string"
        },
        {
          "internalType": "string",
          "name": "symbol_",
          "type": "string"
        },
        {
          "internalType": "address",
          "name": "managerAddress",
          "type": "address"
        },
        {
          "internalType": "uint256",
          "name": "epochUnit_",
          "type": "uint256"
        },
        {
          "internalType": "uint256",
          "name": "maxTime_",
          "type": "uint256"
        },
        {
          "internalType": "address",
          "name": "tosAddress",
          "type": "address"
        }
      ],
      "stateMutability": "nonpayable",
      "type": "constructor"
    },
    {
      "anonymous": false,
      "inputs": [
        {
          "indexed": true,
          "internalType": "address",
          "name": "owner",
          "type": "address"
        },
        {
          "indexed": true,
          "internalType": "address",
          "name": "approved",
          "type": "address"
        },
        {
          "indexed": true,
          "internalType": "uint256",
          "name": "tokenId",
          "type": "uint256"
        }
      ],
      "name": "Approval",
      "type": "event"
    },
    {
      "anonymous": false,
      "inputs": [
        {
          "indexed": true,
          "internalType": "address",
          "name": "owner",
          "type": "address"
        },
        {
          "indexed": true,
          "internalType": "address",
          "name": "operator",
          "type": "address"
        },
        {
          "indexed": false,
          "internalType": "bool",
          "name": "approved",
          "type": "bool"
        }
      ],
      "name": "ApprovalForAll",
      "type": "event"
    },
    {
      "anonymous": false,
      "inputs": [
        {
          "indexed": false,
          "internalType": "address",
          "name": "account",
          "type": "address"
        },
        {
          "indexed": false,
          "internalType": "uint256",
          "name": "lockId",
          "type": "uint256"
        },
        {
          "indexed": false,
          "internalType": "uint256",
          "name": "value",
          "type": "uint256"
        },
        {
          "indexed": false,
          "internalType": "uint256",
          "name": "unlockTime",
          "type": "uint256"
        }
      ],
      "name": "IncreasedLock",
      "type": "event"
    },
    {
      "anonymous": false,
      "inputs": [
        {
          "indexed": false,
          "internalType": "address",
          "name": "account",
          "type": "address"
        },
        {
          "indexed": false,
          "internalType": "uint256",
          "name": "lockId",
          "type": "uint256"
        },
        {
          "indexed": false,
          "internalType": "uint256",
          "name": "amount",
          "type": "uint256"
        },
        {
          "indexed": false,
          "internalType": "uint256",
          "name": "unlockTime",
          "type": "uint256"
        }
      ],
      "name": "LockCreated",
      "type": "event"
    },
    {
      "anonymous": false,
      "inputs": [
        {
          "indexed": false,
          "internalType": "address",
          "name": "account",
          "type": "address"
        },
        {
          "indexed": false,
          "internalType": "uint256",
          "name": "lockId",
          "type": "uint256"
        },
        {
          "indexed": false,
          "internalType": "uint256",
          "name": "value",
          "type": "uint256"
        }
      ],
      "name": "LockDeposited",
      "type": "event"
    },
    {
      "anonymous": false,
      "inputs": [
        {
          "indexed": false,
          "internalType": "address",
          "name": "account",
          "type": "address"
        },
        {
          "indexed": false,
          "internalType": "uint256",
          "name": "lockId",
          "type": "uint256"
        },
        {
          "indexed": false,
          "internalType": "uint256",
          "name": "value",
          "type": "uint256"
        }
      ],
      "name": "LockWithdrawn",
      "type": "event"
    },
    {
      "anonymous": false,
      "inputs": [
        {
          "indexed": true,
          "internalType": "address",
          "name": "from",
          "type": "address"
        },
        {
          "indexed": true,
          "internalType": "address",
          "name": "to",
          "type": "address"
        },
        {
          "indexed": true,
          "internalType": "uint256",
          "name": "tokenId",
          "type": "uint256"
        }
      ],
      "name": "Transfer",
      "type": "event"
    },
    {
      "inputs": [],
      "name": "MULTIPLIER",
      "outputs": [
        {
          "internalType": "uint256",
          "name": "",
          "type": "uint256"
        }
      ],
      "stateMutability": "view",
      "type": "function"
    },
    {
      "inputs": [],
      "name": "_ERC721_RECEIVED",
      "outputs": [
        {
          "internalType": "bytes4",
          "name": "",
          "type": "bytes4"
        }
      ],
      "stateMutability": "view",
      "type": "function"
    },
    {
      "inputs": [],
      "name": "_INTERFACE_ID_ERC721",
      "outputs": [
        {
          "internalType": "bytes4",
          "name": "",
          "type": "bytes4"
        }
      ],
      "stateMutability": "view",
      "type": "function"
    },
    {
      "inputs": [],
      "name": "_INTERFACE_ID_ERC721_ENUMERABLE",
      "outputs": [
        {
          "internalType": "bytes4",
          "name": "",
          "type": "bytes4"
        }
      ],
      "stateMutability": "view",
      "type": "function"
    },
    {
      "inputs": [],
      "name": "_INTERFACE_ID_ERC721_METADATA",
      "outputs": [
        {
          "internalType": "bytes4",
          "name": "",
          "type": "bytes4"
        }
      ],
      "stateMutability": "view",
      "type": "function"
    },
    {
      "inputs": [
        {
          "internalType": "uint256",
          "name": "",
          "type": "uint256"
        }
      ],
      "name": "_allTokens",
      "outputs": [
        {
          "internalType": "uint256",
          "name": "",
          "type": "uint256"
        }
      ],
      "stateMutability": "view",
      "type": "function"
    },
    {
      "inputs": [
        {
          "internalType": "uint256",
          "name": "",
          "type": "uint256"
        }
      ],
      "name": "_allTokensIndex",
      "outputs": [
        {
          "internalType": "uint256",
          "name": "",
          "type": "uint256"
        }
      ],
      "stateMutability": "view",
      "type": "function"
    },
    {
      "inputs": [],
      "name": "_baseURI",
      "outputs": [
        {
          "internalType": "string",
          "name": "",
          "type": "string"
        }
      ],
      "stateMutability": "view",
      "type": "function"
    },
    {
      "inputs": [],
      "name": "_manager",
      "outputs": [
        {
          "internalType": "address",
          "name": "",
          "type": "address"
        }
      ],
      "stateMutability": "view",
      "type": "function"
    },
    {
      "inputs": [],
      "name": "_name",
      "outputs": [
        {
          "internalType": "string",
          "name": "",
          "type": "string"
        }
      ],
      "stateMutability": "view",
      "type": "function"
    },
    {
      "inputs": [
        {
          "internalType": "address",
          "name": "",
          "type": "address"
        },
        {
          "internalType": "address",
          "name": "",
          "type": "address"
        }
      ],
      "name": "_operatorApprovals",
      "outputs": [
        {
          "internalType": "bool",
          "name": "",
          "type": "bool"
        }
      ],
      "stateMutability": "view",
      "type": "function"
    },
    {
      "inputs": [
        {
          "internalType": "address",
          "name": "",
          "type": "address"
        },
        {
          "internalType": "uint256",
          "name": "",
          "type": "uint256"
        }
      ],
      "name": "_ownedTokens",
      "outputs": [
        {
          "internalType": "uint256",
          "name": "",
          "type": "uint256"
        }
      ],
      "stateMutability": "view",
      "type": "function"
    },
    {
      "inputs": [
        {
          "internalType": "address",
          "name": "",
          "type": "address"
        }
      ],
      "name": "_ownedTokensCount",
      "outputs": [
        {
          "internalType": "uint256",
          "name": "",
          "type": "uint256"
        }
      ],
      "stateMutability": "view",
      "type": "function"
    },
    {
      "inputs": [
        {
          "internalType": "uint256",
          "name": "",
          "type": "uint256"
        }
      ],
      "name": "_ownedTokensIndex",
      "outputs": [
        {
          "internalType": "uint256",
          "name": "",
          "type": "uint256"
        }
      ],
      "stateMutability": "view",
      "type": "function"
    },
    {
      "inputs": [],
      "name": "_owner",
      "outputs": [
        {
          "internalType": "address",
          "name": "",
          "type": "address"
        }
      ],
      "stateMutability": "view",
      "type": "function"
    },
    {
      "inputs": [],
      "name": "_symbol",
      "outputs": [
        {
          "internalType": "string",
          "name": "",
          "type": "string"
        }
      ],
      "stateMutability": "view",
      "type": "function"
    },
    {
      "inputs": [
        {
          "internalType": "uint256",
          "name": "",
          "type": "uint256"
        }
      ],
      "name": "_tokenApprovals",
      "outputs": [
        {
          "internalType": "address",
          "name": "",
          "type": "address"
        }
      ],
      "stateMutability": "view",
      "type": "function"
    },
    {
      "inputs": [
        {
          "internalType": "uint256",
          "name": "",
          "type": "uint256"
        }
      ],
      "name": "_tokenAttributes",
      "outputs": [
        {
          "internalType": "uint8",
          "name": "",
          "type": "uint8"
        }
      ],
      "stateMutability": "view",
      "type": "function"
    },
    {
      "inputs": [
        {
          "internalType": "uint256",
          "name": "",
          "type": "uint256"
        }
      ],
      "name": "_tokenOwner",
      "outputs": [
        {
          "internalType": "address",
          "name": "",
          "type": "address"
        }
      ],
      "stateMutability": "view",
      "type": "function"
    },
    {
      "inputs": [
        {
          "internalType": "uint256",
          "name": "",
          "type": "uint256"
        }
      ],
      "name": "_tokenURIs",
      "outputs": [
        {
          "internalType": "string",
          "name": "",
          "type": "string"
        }
      ],
      "stateMutability": "view",
      "type": "function"
    },
    {
      "inputs": [
        {
          "internalType": "address",
          "name": "",
          "type": "address"
        }
      ],
      "name": "aliveImplementation",
      "outputs": [
        {
          "internalType": "bool",
          "name": "",
          "type": "bool"
        }
      ],
      "stateMutability": "view",
      "type": "function"
    },
    {
      "inputs": [],
      "name": "allIndexOfTimes",
      "outputs": [
        {
          "internalType": "uint256[]",
          "name": "",
          "type": "uint256[]"
        }
      ],
      "stateMutability": "view",
      "type": "function"
    },
    {
      "inputs": [],
      "name": "allTokens",
      "outputs": [
        {
          "internalType": "uint256[]",
          "name": "",
          "type": "uint256[]"
        }
      ],
      "stateMutability": "view",
      "type": "function"
    },
    {
      "inputs": [
        {
          "internalType": "address",
          "name": "to",
          "type": "address"
        },
        {
          "internalType": "uint256",
          "name": "tokenId",
          "type": "uint256"
        }
      ],
      "name": "approve",
      "outputs": [],
      "stateMutability": "nonpayable",
      "type": "function"
    },
    {
      "inputs": [
        {
          "internalType": "address",
          "name": "owner_",
          "type": "address"
        }
      ],
      "name": "balanceOf",
      "outputs": [
        {
          "internalType": "uint256",
          "name": "",
          "type": "uint256"
        }
      ],
      "stateMutability": "view",
      "type": "function"
    },
    {
      "inputs": [
        {
          "internalType": "address",
          "name": "_addr",
          "type": "address"
        }
      ],
      "name": "balanceOfLock",
      "outputs": [
        {
          "internalType": "uint256",
          "name": "balance",
          "type": "uint256"
        }
      ],
      "stateMutability": "view",
      "type": "function"
    },
    {
      "inputs": [
        {
          "internalType": "uint256",
          "name": "_lockId",
          "type": "uint256"
        }
      ],
      "name": "balanceOfLock",
      "outputs": [
        {
          "internalType": "uint256",
          "name": "amount",
          "type": "uint256"
        }
      ],
      "stateMutability": "view",
      "type": "function"
    },
    {
      "inputs": [
        {
          "internalType": "address",
          "name": "_addr",
          "type": "address"
        },
        {
          "internalType": "uint256",
          "name": "_timestamp",
          "type": "uint256"
        }
      ],
      "name": "balanceOfLockAt",
      "outputs": [
        {
          "internalType": "uint256",
          "name": "balance",
          "type": "uint256"
        }
      ],
      "stateMutability": "view",
      "type": "function"
    },
    {
      "inputs": [
        {
          "internalType": "uint256",
          "name": "_lockId",
          "type": "uint256"
        },
        {
          "internalType": "uint256",
          "name": "_timestamp",
          "type": "uint256"
        }
      ],
      "name": "balanceOfLockAt",
      "outputs": [
        {
          "internalType": "uint256",
          "name": "amount",
          "type": "uint256"
        }
      ],
      "stateMutability": "view",
      "type": "function"
    },
    {
      "inputs": [
        {
          "components": [
            {
              "internalType": "int256",
              "name": "slope",
              "type": "int256"
            },
            {
              "internalType": "int256",
              "name": "bias",
              "type": "int256"
            },
            {
              "internalType": "uint256",
              "name": "timestamp",
              "type": "uint256"
            }
          ],
          "internalType": "struct LibLockId.Point",
          "name": "point",
          "type": "tuple"
        },
        {
          "internalType": "uint256",
          "name": "timestamp",
          "type": "uint256"
        }
      ],
      "name": "balanceOfPoint",
      "outputs": [
        {
          "internalType": "uint256",
          "name": "",
          "type": "uint256"
        }
      ],
      "stateMutability": "pure",
      "type": "function"
    },
    {
      "inputs": [],
      "name": "baseURI",
      "outputs": [
        {
          "internalType": "string",
          "name": "",
          "type": "string"
        }
      ],
      "stateMutability": "view",
      "type": "function"
    },
    {
      "inputs": [
        {
          "internalType": "uint256",
          "name": "_amount",
          "type": "uint256"
        },
        {
          "internalType": "uint256",
          "name": "_unlockWeeks",
          "type": "uint256"
        }
      ],
      "name": "createLock",
      "outputs": [
        {
          "internalType": "uint256",
          "name": "lockId",
          "type": "uint256"
        }
      ],
      "stateMutability": "nonpayable",
      "type": "function"
    },
    {
      "inputs": [
        {
          "internalType": "address",
          "name": "_addr",
          "type": "address"
        },
        {
          "internalType": "uint256",
          "name": "_lockId",
          "type": "uint256"
        },
        {
          "internalType": "uint256",
          "name": "_value",
          "type": "uint256"
        }
      ],
      "name": "depositFor",
      "outputs": [],
      "stateMutability": "nonpayable",
      "type": "function"
    },
    {
      "inputs": [],
      "name": "epochUnit",
      "outputs": [
        {
          "internalType": "uint256",
          "name": "",
          "type": "uint256"
        }
      ],
      "stateMutability": "view",
      "type": "function"
    },
    {
      "inputs": [
        {
          "internalType": "uint256",
          "name": "tokenId",
          "type": "uint256"
        }
      ],
      "name": "getApproved",
      "outputs": [
        {
          "internalType": "address",
          "name": "",
          "type": "address"
        }
      ],
      "stateMutability": "view",
      "type": "function"
    },
    {
      "inputs": [
        {
          "internalType": "address",
          "name": "_addr",
          "type": "address"
        },
        {
          "internalType": "uint256",
          "name": "_lockId",
          "type": "uint256"
        },
        {
          "internalType": "uint256",
          "name": "_value",
          "type": "uint256"
        },
        {
          "internalType": "uint256",
          "name": "_unlockWeeks",
          "type": "uint256"
        }
      ],
      "name": "increaseLock",
      "outputs": [],
      "stateMutability": "nonpayable",
      "type": "function"
    },
    {
      "inputs": [
        {
          "internalType": "uint256",
          "name": "",
          "type": "uint256"
        }
      ],
      "name": "indexCheckOfTimeset",
      "outputs": [
        {
          "internalType": "bool",
          "name": "",
          "type": "bool"
        }
      ],
      "stateMutability": "view",
      "type": "function"
    },
    {
      "inputs": [
        {
          "internalType": "uint256",
          "name": "",
          "type": "uint256"
        }
      ],
      "name": "indexOfTimeset",
      "outputs": [
        {
          "internalType": "uint256",
          "name": "",
          "type": "uint256"
        }
      ],
      "stateMutability": "view",
      "type": "function"
    },
    {
      "inputs": [
        {
          "internalType": "address",
          "name": "owner_",
          "type": "address"
        },
        {
          "internalType": "address",
          "name": "operator",
          "type": "address"
        }
      ],
      "name": "isApprovedForAll",
      "outputs": [
        {
          "internalType": "bool",
          "name": "",
          "type": "bool"
        }
      ],
      "stateMutability": "view",
      "type": "function"
    },
    {
      "inputs": [
        {
          "internalType": "address",
          "name": "addr",
          "type": "address"
        }
      ],
      "name": "isManager",
      "outputs": [
        {
          "internalType": "bool",
          "name": "",
          "type": "bool"
        }
      ],
      "stateMutability": "view",
      "type": "function"
    },
    {
      "inputs": [],
      "name": "lastIndexOfTimeset",
      "outputs": [
        {
          "internalType": "uint256",
          "name": "index",
          "type": "uint256"
        }
      ],
      "stateMutability": "view",
      "type": "function"
    },
    {
      "inputs": [
        {
          "internalType": "uint256",
          "name": "_index",
          "type": "uint256"
        }
      ],
      "name": "lastPointOfTimeIndex",
      "outputs": [
        {
          "components": [
            {
              "internalType": "int256",
              "name": "slope",
              "type": "int256"
            },
            {
              "internalType": "int256",
              "name": "bias",
              "type": "int256"
            },
            {
              "internalType": "uint256",
              "name": "timestamp",
              "type": "uint256"
            }
          ],
          "internalType": "struct LibLockId.Point",
          "name": "",
          "type": "tuple"
        }
      ],
      "stateMutability": "view",
      "type": "function"
    },
    {
      "inputs": [
        {
          "internalType": "uint256",
          "name": "",
          "type": "uint256"
        }
      ],
      "name": "lockIdInfos",
      "outputs": [
        {
          "internalType": "uint256",
          "name": "start",
          "type": "uint256"
        },
        {
          "internalType": "uint256",
          "name": "end",
          "type": "uint256"
        },
        {
          "internalType": "uint256",
          "name": "amount",
          "type": "uint256"
        },
        {
          "internalType": "address",
          "name": "owner",
          "type": "address"
        },
        {
          "internalType": "bool",
          "name": "withdrawn",
          "type": "bool"
        }
      ],
      "stateMutability": "view",
      "type": "function"
    },
    {
      "inputs": [],
      "name": "manager",
      "outputs": [
        {
          "internalType": "address",
          "name": "",
          "type": "address"
        }
      ],
      "stateMutability": "view",
      "type": "function"
    },
    {
      "inputs": [],
      "name": "maxTime",
      "outputs": [
        {
          "internalType": "uint256",
          "name": "",
          "type": "uint256"
        }
      ],
      "stateMutability": "view",
      "type": "function"
    },
    {
      "inputs": [],
      "name": "maxTokenId",
      "outputs": [
        {
          "internalType": "uint256",
          "name": "",
          "type": "uint256"
        }
      ],
      "stateMutability": "view",
      "type": "function"
    },
    {
      "inputs": [],
      "name": "name",
      "outputs": [
        {
          "internalType": "string",
          "name": "",
          "type": "string"
        }
      ],
      "stateMutability": "view",
      "type": "function"
    },
    {
      "inputs": [
        {
          "internalType": "uint256",
          "name": "_stime",
          "type": "uint256"
        }
      ],
      "name": "nextTimeIndex",
      "outputs": [
        {
          "internalType": "uint256",
          "name": "",
          "type": "uint256"
        }
      ],
      "stateMutability": "view",
      "type": "function"
    },
    {
      "inputs": [
        {
          "internalType": "uint256",
          "name": "tokenId",
          "type": "uint256"
        }
      ],
      "name": "ownerOf",
      "outputs": [
        {
          "internalType": "address",
          "name": "",
          "type": "address"
        }
      ],
      "stateMutability": "view",
      "type": "function"
    },
    {
      "inputs": [],
      "name": "pauseProxy",
      "outputs": [
        {
          "internalType": "bool",
          "name": "",
          "type": "bool"
        }
      ],
      "stateMutability": "view",
      "type": "function"
    },
    {
      "inputs": [
        {
          "internalType": "uint256",
          "name": "",
          "type": "uint256"
        },
        {
          "internalType": "uint256",
          "name": "",
          "type": "uint256"
        }
      ],
      "name": "pointHistoryByLockId",
      "outputs": [
        {
          "internalType": "int256",
          "name": "slope",
          "type": "int256"
        },
        {
          "internalType": "int256",
          "name": "bias",
          "type": "int256"
        },
        {
          "internalType": "uint256",
          "name": "timestamp",
          "type": "uint256"
        }
      ],
      "stateMutability": "view",
      "type": "function"
    },
    {
      "inputs": [
        {
          "internalType": "uint256",
          "name": "",
          "type": "uint256"
        },
        {
          "internalType": "uint256",
          "name": "",
          "type": "uint256"
        }
      ],
      "name": "pointHistoryByWeek",
      "outputs": [
        {
          "internalType": "int256",
          "name": "slope",
          "type": "int256"
        },
        {
          "internalType": "int256",
          "name": "bias",
          "type": "int256"
        },
        {
          "internalType": "uint256",
          "name": "timestamp",
          "type": "uint256"
        }
      ],
      "stateMutability": "view",
      "type": "function"
    },
    {
      "inputs": [
        {
          "internalType": "uint256",
          "name": "_lockId",
          "type": "uint256"
        }
      ],
      "name": "pointHistoryOfId",
      "outputs": [
        {
          "components": [
            {
              "internalType": "int256",
              "name": "slope",
              "type": "int256"
            },
            {
              "internalType": "int256",
              "name": "bias",
              "type": "int256"
            },
            {
              "internalType": "uint256",
              "name": "timestamp",
              "type": "uint256"
            }
          ],
          "internalType": "struct LibLockId.Point[]",
          "name": "",
          "type": "tuple[]"
        }
      ],
      "stateMutability": "view",
      "type": "function"
    },
    {
      "inputs": [
        {
          "internalType": "uint256",
          "name": "_timeIndex",
          "type": "uint256"
        }
      ],
      "name": "pointHistoryOfTimeIndex",
      "outputs": [
        {
          "components": [
            {
              "internalType": "int256",
              "name": "slope",
              "type": "int256"
            },
            {
              "internalType": "int256",
              "name": "bias",
              "type": "int256"
            },
            {
              "internalType": "uint256",
              "name": "timestamp",
              "type": "uint256"
            }
          ],
          "internalType": "struct LibLockId.Point[]",
          "name": "",
          "type": "tuple[]"
        }
      ],
      "stateMutability": "view",
      "type": "function"
    },
    {
      "inputs": [],
      "name": "pointOfLastTimeIndex",
      "outputs": [
        {
          "components": [
            {
              "internalType": "int256",
              "name": "slope",
              "type": "int256"
            },
            {
              "internalType": "int256",
              "name": "bias",
              "type": "int256"
            },
            {
              "internalType": "uint256",
              "name": "timestamp",
              "type": "uint256"
            }
          ],
          "internalType": "struct LibLockId.Point",
          "name": "",
          "type": "tuple"
        }
      ],
      "stateMutability": "view",
      "type": "function"
    },
    {
      "inputs": [
        {
          "internalType": "uint256",
          "name": "",
          "type": "uint256"
        }
      ],
      "name": "proxyImplementation",
      "outputs": [
        {
          "internalType": "address",
          "name": "",
          "type": "address"
        }
      ],
      "stateMutability": "view",
      "type": "function"
    },
    {
      "inputs": [
        {
          "internalType": "address",
          "name": "from",
          "type": "address"
        },
        {
          "internalType": "address",
          "name": "to",
          "type": "address"
        },
        {
          "internalType": "uint256",
          "name": "tokenId",
          "type": "uint256"
        }
      ],
      "name": "safeTransferFrom",
      "outputs": [],
      "stateMutability": "nonpayable",
      "type": "function"
    },
    {
      "inputs": [
        {
          "internalType": "address",
          "name": "from",
          "type": "address"
        },
        {
          "internalType": "address",
          "name": "to",
          "type": "address"
        },
        {
          "internalType": "uint256",
          "name": "tokenId",
          "type": "uint256"
        },
        {
          "internalType": "bytes",
          "name": "_data",
          "type": "bytes"
        }
      ],
      "name": "safeTransferFrom",
      "outputs": [],
      "stateMutability": "nonpayable",
      "type": "function"
    },
    {
      "inputs": [
        {
          "internalType": "bytes4",
          "name": "",
          "type": "bytes4"
        }
      ],
      "name": "selectorImplementation",
      "outputs": [
        {
          "internalType": "address",
          "name": "",
          "type": "address"
        }
      ],
      "stateMutability": "view",
      "type": "function"
    },
    {
      "inputs": [
        {
          "internalType": "address",
          "name": "operator",
          "type": "address"
        },
        {
          "internalType": "bool",
          "name": "approved",
          "type": "bool"
        }
      ],
      "name": "setApprovalForAll",
      "outputs": [],
      "stateMutability": "nonpayable",
      "type": "function"
    },
    {
      "inputs": [
        {
          "internalType": "string",
          "name": "baseURI_",
          "type": "string"
        }
      ],
      "name": "setBaseURI",
      "outputs": [],
      "stateMutability": "nonpayable",
      "type": "function"
    },
    {
      "inputs": [
        {
          "internalType": "uint256",
          "name": "tokenId",
          "type": "uint256"
        },
        {
          "internalType": "string",
          "name": "_tokenURI",
          "type": "string"
        }
      ],
      "name": "setTokenURI",
      "outputs": [],
      "stateMutability": "nonpayable",
      "type": "function"
    },
    {
      "inputs": [
        {
          "internalType": "uint256[]",
          "name": "tokenIds",
          "type": "uint256[]"
        },
        {
          "internalType": "string[]",
          "name": "_tokenURIs",
          "type": "string[]"
        }
      ],
      "name": "setTokenURI",
      "outputs": [],
      "stateMutability": "nonpayable",
      "type": "function"
    },
    {
      "inputs": [
        {
          "internalType": "bytes4",
          "name": "interfaceId",
          "type": "bytes4"
        }
      ],
      "name": "supportsInterface",
      "outputs": [
        {
          "internalType": "bool",
          "name": "",
          "type": "bool"
        }
      ],
      "stateMutability": "view",
      "type": "function"
    },
    {
      "inputs": [],
      "name": "symbol",
      "outputs": [
        {
          "internalType": "string",
          "name": "",
          "type": "string"
        }
      ],
      "stateMutability": "view",
      "type": "function"
    },
    {
      "inputs": [
        {
          "internalType": "uint256",
          "name": "index",
          "type": "uint256"
        }
      ],
      "name": "tokenByIndex",
      "outputs": [
        {
          "internalType": "uint256",
          "name": "",
          "type": "uint256"
        }
      ],
      "stateMutability": "view",
      "type": "function"
    },
    {
      "inputs": [
        {
          "internalType": "address",
          "name": "owner_",
          "type": "address"
        },
        {
          "internalType": "uint256",
          "name": "index",
          "type": "uint256"
        }
      ],
      "name": "tokenOfOwnerByIndex",
      "outputs": [
        {
          "internalType": "uint256",
          "name": "",
          "type": "uint256"
        }
      ],
      "stateMutability": "view",
      "type": "function"
    },
    {
      "inputs": [
        {
          "internalType": "uint256",
          "name": "tokenId",
          "type": "uint256"
        }
      ],
      "name": "tokenURI",
      "outputs": [
        {
          "internalType": "string",
          "name": "",
          "type": "string"
        }
      ],
      "stateMutability": "view",
      "type": "function"
    },
    {
      "inputs": [
        {
          "internalType": "address",
          "name": "owner_",
          "type": "address"
        }
      ],
      "name": "tokensOfOwner",
      "outputs": [
        {
          "internalType": "uint256[]",
          "name": "",
          "type": "uint256[]"
        }
      ],
      "stateMutability": "view",
      "type": "function"
    },
    {
      "inputs": [],
      "name": "tos",
      "outputs": [
        {
          "internalType": "address",
          "name": "",
          "type": "address"
        }
      ],
      "stateMutability": "view",
      "type": "function"
    },
    {
      "inputs": [],
      "name": "totalSupply",
      "outputs": [
        {
          "internalType": "uint256",
          "name": "",
          "type": "uint256"
        }
      ],
      "stateMutability": "view",
      "type": "function"
    },
    {
      "inputs": [],
      "name": "totalSupplyLocks",
      "outputs": [
        {
          "internalType": "uint256",
          "name": "amount",
          "type": "uint256"
        }
      ],
      "stateMutability": "view",
      "type": "function"
    },
    {
      "inputs": [
        {
          "internalType": "uint256",
          "name": "_timestamp",
          "type": "uint256"
        }
      ],
      "name": "totalSupplyLocksAt",
      "outputs": [
        {
          "internalType": "uint256",
          "name": "amount",
          "type": "uint256"
        }
      ],
      "stateMutability": "view",
      "type": "function"
    },
    {
      "inputs": [
        {
          "internalType": "address",
          "name": "from",
          "type": "address"
        },
        {
          "internalType": "address",
          "name": "to",
          "type": "address"
        },
        {
          "internalType": "uint256",
          "name": "tokenId",
          "type": "uint256"
        }
      ],
      "name": "transferFrom",
      "outputs": [],
      "stateMutability": "nonpayable",
      "type": "function"
    }
  ],
  "bytecode": "0x60806040523480156200001157600080fd5b5060405162003f8b38038062003f8b83398101604081905262000034916200021e565b620000466301ffc9a760e01b620000b8565b600580546001600160a01b0319166001600160a01b03861617905560066200006f87826200034e565b5060076200007e86826200034e565b50601492909255601555601380546001600160a01b0390921661010002610100600160a81b0319909216919091179055506200041a915050565b6001600160e01b03198082169003620001175760405162461bcd60e51b815260206004820152601c60248201527f4552433136353a20696e76616c696420696e7465726661636520696400000000604482015260640160405180910390fd5b6001600160e01b0319166000908152600460205260409020805460ff19166001179055565b634e487b7160e01b600052604160045260246000fd5b600082601f8301126200016457600080fd5b81516001600160401b03808211156200018157620001816200013c565b604051601f8301601f19908116603f01168101908282118183101715620001ac57620001ac6200013c565b81604052838152602092508683858801011115620001c957600080fd5b600091505b83821015620001ed5785820183015181830184015290820190620001ce565b600093810190920192909252949350505050565b80516001600160a01b03811681146200021957600080fd5b919050565b60008060008060008060c087890312156200023857600080fd5b86516001600160401b03808211156200025057600080fd5b6200025e8a838b0162000152565b975060208901519150808211156200027557600080fd5b506200028489828a0162000152565b955050620002956040880162000201565b93506060870151925060808701519150620002b360a0880162000201565b90509295509295509295565b600181811c90821680620002d457607f821691505b602082108103620002f557634e487b7160e01b600052602260045260246000fd5b50919050565b601f8211156200034957600081815260208120601f850160051c81016020861015620003245750805b601f850160051c820191505b81811015620003455782815560010162000330565b5050505b505050565b81516001600160401b038111156200036a576200036a6200013c565b62000382816200037b8454620002bf565b84620002fb565b602080601f831160018114620003ba5760008415620003a15750858301515b600019600386901b1c1916600185901b17855562000345565b600085815260208120601f198616915b82811015620003eb57888601518255948401946001909101908401620003ca565b50858210156200040a5787850151600019600388901b60f8161c191681555b5050505050600190811b01905550565b613b61806200042a6000396000f3fe608060405234801561001057600080fd5b50600436106104de5760003560e01c806391ba317a11610286578063ba209fcf1161016b578063e985e9c5116100e3578063f663171811610097578063f975d9f31161007c578063f975d9f314610b3b578063fd2dcecf14610b4e578063fea3d59d14610b5757600080fd5b8063f663171814610b13578063f88d1fef14610b3357600080fd5b8063f0329f6b116100c8578063f0329f6b14610ada578063f1e47d3d14610aed578063f3ae241514610b0057600080fd5b8063e985e9c514610a70578063edc3bc3f14610aac57600080fd5b8063d28d88521161013a578063dece68541161011f578063dece685414610a3c578063e178ee2014610a4a578063e50388a614610a5d57600080fd5b8063d28d885214610a2c578063de69618014610a3457600080fd5b8063ba209fcf146109c3578063c87b56dd146109e3578063cdc4717c146109f6578063cea823cd14610a0957600080fd5b8063aa88652b116101fe578063b2bdfa7b116101cd578063b88d4fde116101b2578063b88d4fde14610973578063b911135f14610987578063b94419e0146109b057600080fd5b8063b2bdfa7b1461094d578063b52c05fe1461096057600080fd5b8063aa88652b14610904578063aafb2d4414610924578063b01ac59114610937578063b09f12661461094557600080fd5b8063a2e9b43911610255578063a7cc01361161023a578063a7cc0136146108c0578063a898e9fa146108e9578063aa5965ae146108f157600080fd5b8063a2e9b43914610880578063a7263665146108a057600080fd5b806391ba317a1461085357806394a509dd1461085c57806395d89b411461086a578063a22cb4651461087257600080fd5b8063481c6a75116103c757806363a8fd891161033f578063743976a0116102f35780638462151c116102d85780638462151c1461080157806388290adc1461081457806389f395de1461083b57600080fd5b8063743976a0146107d0578063796db312146107d857600080fd5b80636c0360eb116103245780636c0360eb146107a05780636ff97f1d146107a857806370a08231146107bd57600080fd5b806363a8fd8914610779578063642cf6491461078d57600080fd5b80634f6ccce711610396578063550d01a31161037b578063550d01a31461073057806355f804b3146107535780636352211e1461076657600080fd5b80634f6ccce7146106f457806350d2a2761461070757600080fd5b8063481c6a75146106aa57806349d1e042146106bb5780634cf5fbf5146106ce5780634f3c5f06146106e157600080fd5b806318160ddd1161045a5780632f745c59116104295780633e47a4b11161040e5780633e47a4b11461067157806341668abe1461068457806342842e0e1461069757600080fd5b80632f745c591461065657806334067c3c1461066957600080fd5b806318160ddd1461060457806322e67e711461060c57806323b872dd1461061557806328f02c681461062857600080fd5b8063095ea7b3116104b157806310c113601161049657806310c11360146105a9578063162094c4146105bc57806317a3a79c146105cf57600080fd5b8063095ea7b3146105825780630bb78ec11461059657600080fd5b806301ffc9a7146104e3578063059f8b161461052557806306fdde0314610542578063081812fc14610557575b600080fd5b6105106104f136600461318b565b6001600160e01b03191660009081526004602052604090205460ff1690565b60405190151581526020015b60405180910390f35b610534670de0b6b3a764000081565b60405190815260200161051c565b61054a610bd4565b60405161051c91906131f8565b61056a61056536600461320b565b610c66565b6040516001600160a01b03909116815260200161051c565b61059461059036600461323b565b5050565b005b61054a6105a436600461320b565b610d11565b6105346105b736600461320b565b610dab565b6105946105ca366004613324565b610dcc565b6105f26105dd36600461320b565b60096020526000908152604090205460ff1681565b60405160ff909116815260200161051c565b601154610534565b61053460155481565b61059461062336600461336b565b505050565b61063b6106363660046133a7565b610e79565b6040805193845260208401929092529082015260600161051c565b61053461066436600461323b565b610ebb565b610534610f5e565b61053461067f3660046133c9565b610fa1565b61053461069236600461323b565b611012565b6105946106a536600461336b565b611086565b6005546001600160a01b031661056a565b6105346106c936600461320b565b61109a565b6105946106dc3660046133e4565b6110fe565b6105346106ef36600461323b565b61132c565b61053461070236600461320b565b61135d565b61056a61071536600461318b565b6003602052600090815260409020546001600160a01b031681565b61051061073e3660046133c9565b60026020526000908152604090205460ff1681565b610594610761366004613417565b6113e9565b61056a61077436600461320b565b611494565b60005461051090600160a01b900460ff1681565b61053461079b3660046133a7565b61151f565b61054a611560565b6107b061156f565b60405161051c919061344c565b6105346107cb3660046133c9565b6115c6565b61054a611660565b61056a6107e636600461320b565b600b602052600090815260409020546001600160a01b031681565b6107b061080f3660046133c9565b61166d565b610822630a85bd0160e11b81565b6040516001600160e01b0319909116815260200161051c565b60135461056a9061010090046001600160a01b031681565b61053460165481565b610822635b5e139f60e01b81565b61054a6116d9565b61059461059036600461349e565b61053461088e36600461320b565b60106020526000908152604090205481565b6105346108ae36600461320b565b60126020526000908152604090205481565b61056a6108ce36600461320b565b600c602052600090815260409020546001600160a01b031681565b6107b06116e8565b6105346108ff36600461320b565b61173e565b61091761091236600461320b565b61174e565b60405161051c91906134d5565b6105946109323660046135aa565b6118f4565b61082263780e9d6360e01b81565b61054a611a4f565b60005461056a906001600160a01b031681565b61053461096e3660046133a7565b611a5c565b610594610981366004613659565b50505050565b61056a61099536600461320b565b6001602052600090815260409020546001600160a01b031681565b6105346109be36600461320b565b611be4565b6109d66109d136600461320b565b611c72565b60405161051c91906136d5565b61054a6109f136600461320b565b611d02565b610534610a0436600461320b565b611e6b565b610510610a1736600461320b565b601b6020526000908152604090205460ff1681565b61054a611e8f565b610534611e9c565b6108226380ac58cd60e01b81565b61063b610a583660046133a7565b611eaf565b610534610a6b36600461372b565b611ecb565b610510610a7e366004613799565b6001600160a01b039182166000908152600e6020908152604080832093909416825291909152205460ff1690565b610510610aba366004613799565b600e60209081526000928352604080842090915290825290205460ff1681565b60055461056a906001600160a01b031681565b610594610afb3660046137cc565b611f3e565b610510610b0e3660046133c9565b612220565b610534610b213660046133c9565b600d6020526000908152604090205481565b610917612248565b6109d6610b4936600461320b565b612277565b61053460145481565b610ba1610b6536600461320b565b6017602052600090815260409020805460018201546002830154600390930154919290916001600160a01b03811690600160a01b900460ff1685565b604080519586526020860194909452928401919091526001600160a01b031660608301521515608082015260a00161051c565b606060068054610be390613805565b80601f0160208091040260200160405190810160405280929190818152602001828054610c0f90613805565b8015610c5c5780601f10610c3157610100808354040283529160200191610c5c565b820191906000526020600020905b815481529060010190602001808311610c3f57829003601f168201915b5050505050905090565b6000818152600b60205260408120546001600160a01b0316610cf55760405162461bcd60e51b815260206004820152602f60248201527f4c6f636b49644e46543a20617070726f76656420717565727920666f72206e6f60448201527f6e6578697374656e7420746f6b656e000000000000000000000000000000000060648201526084015b60405180910390fd5b506000908152600c60205260409020546001600160a01b031690565b60086020526000908152604090208054610d2a90613805565b80601f0160208091040260200160405190810160405280929190818152602001828054610d5690613805565b8015610da35780601f10610d7857610100808354040283529160200191610da3565b820191906000526020600020905b815481529060010190602001808311610d8657829003601f168201915b505050505081565b601a8181548110610dbb57600080fd5b600091825260209091200154905081565b6005546001600160a01b03163314610e145760405162461bcd60e51b815260206004820152600b60248201526a3737ba1036b0b730b3b2b960a91b6044820152606401610cec565b60135460ff161515600103610e545760405162461bcd60e51b8152602060048201526006602482015265696e2075736560d01b6044820152606401610cec565b6013805460ff19166001179055610e6b82826122f2565b50506013805460ff19169055565b60196020528160005260406000208181548110610e9557600080fd5b600091825260209091206003909102018054600182015460029092015490935090915083565b6000610ec6836115c6565b8210610f205760405162461bcd60e51b8152602060048201526024808201527f4c6f636b49644e46543a206f776e657220696e646578206f7574206f6620626f604482015263756e647360e01b6064820152608401610cec565b6001600160a01b0383166000908152600f60205260409020805483908110610f4a57610f4a61383f565b906000526020600020015490505b92915050565b601a546000908103610f705750600090565b601a8054610f809060019061386b565b81548110610f9057610f9061383f565b90600052602060002001545b905090565b600080610fad8361166d565b90508051600003610fc15750600092915050565b60005b815181101561100b57610fef828281518110610fe257610fe261383f565b6020026020010151611be4565b610ff9908461387e565b925061100481613891565b9050610fc4565b5050919050565b60008061101e8461166d565b90508051600003611033576000915050610f58565b60005b815181101561107e576110628282815181106110545761105461383f565b60200260200101518561151f565b61106c908461387e565b925061107781613891565b9050611036565b505092915050565b604080516020810190915260009052505050565b60008060006110a88461237d565b91509150816110bb575060009392505050565b600081815260196020526040812081906110d59087612486565b91509150816110ea5750600095945050505050565b6110f48187611ecb565b9695505050505050565b808060000361113c5760405162461bcd60e51b815260206004820152600a6024820152697a65726f2076616c756560b01b6044820152606401610cec565b600083815260176020908152604091829020825160a081018452815481526001820154928101929092526002810154928201929092526003909101546001600160a01b03811660608301819052600160a01b90910460ff1615156080830152158015906111a95750805115155b6111e15760405162461bcd60e51b81526020600482015260096024820152681b9bdd08195e1a5cdd60ba1b6044820152606401610cec565b6080810151156112335760405162461bcd60e51b815260206004820152601860248201527f49742069732077697468647261776e20616c72656164792e00000000000000006044820152606401610cec565b428160200151116112865760405162461bcd60e51b815260206004820152601560248201527f4c6f636b2074696d652069732066696e697368656400000000000000000000006044820152606401610cec565b846001600160a01b031681606001516001600160a01b0316146112d75760405162461bcd60e51b81526020600482015260096024820152683737ba1037bbb732b960b91b6044820152606401610cec565b6112e485858560006125bd565b60408051338152602081018690529081018490527fea44bc904f77b1be47cd5b840b00f19b7238f88d7524fa5a86629282bfe6bcc59060600160405180910390a15050505050565b600f602052816000526040600020818154811061134857600080fd5b90600052602060002001600091509150505481565b600061136860115490565b82106113c45760405162461bcd60e51b815260206004820152602560248201527f4c6f636b49644e46543a20676c6f62616c20696e646578206f7574206f6620626044820152646f756e647360d81b6064820152608401610cec565b601182815481106113d7576113d761383f565b90600052602060002001549050919050565b6005546001600160a01b031633146114315760405162461bcd60e51b815260206004820152600b60248201526a3737ba1036b0b730b3b2b960a91b6044820152606401610cec565b60135460ff1615156001036114715760405162461bcd60e51b8152602060048201526006602482015265696e2075736560d01b6044820152606401610cec565b6013805460ff1916600117905561148781612b46565b506013805460ff19169055565b6000818152600b60205260408120546001600160a01b031680610f585760405162461bcd60e51b815260206004820152602c60248201527f4c6f636b49644e46543a206f776e657220717565727920666f72206e6f6e657860448201527f697374656e7420746f6b656e00000000000000000000000000000000000000006064820152608401610cec565b60008281526018602052604081208190819061153b9085612486565b9150915081156115545761154f8185611ecb565b611557565b60005b95945050505050565b6060600a8054610be390613805565b60606011805480602002602001604051908101604052809291908181526020018280548015610c5c57602002820191906000526020600020905b8154815260200190600101908083116115a9575050505050905090565b60006001600160a01b0382166116445760405162461bcd60e51b815260206004820152602d60248201527f4c6f636b49644e46543a2062616c616e636520717565727920666f722074686560448201527f207a65726f2061646472657373000000000000000000000000000000000000006064820152608401610cec565b506001600160a01b03166000908152600d602052604090205490565b600a8054610d2a90613805565b6001600160a01b0381166000908152600f60209081526040918290208054835181840281018401909452808452606093928301828280156116cd57602002820191906000526020600020905b8154815260200190600101908083116116b9575b50505050509050919050565b606060078054610be390613805565b6060601a805480602002602001604051908101604052809291908181526020018280548015610c5c57602002820191906000526020600020908154815260200190600101908083116115a9575050505050905090565b60118181548110610dbb57600080fd5b61177260405180606001604052806000815260200160008152602001600081525090565b81156118ca57600082815260196020908152604080832080548251818502810185019093528083529192909190849084015b828210156117f457838290600052602060002090600302016040518060600160405290816000820154815260200160018201548152602001600282015481525050815260200190600101906117a4565b50505050905080516000146118a4576040518060600160405280826001845161181d919061386b565b8151811061182d5761182d61383f565b6020026020010151600001518152602001826001845161184d919061386b565b8151811061185d5761185d61383f565b6020026020010151602001518152602001826001845161187d919061386b565b8151811061188d5761188d61383f565b602002602001015160400151815250915050919050565b604051806060016040528060008152602001600081526020016000815250915050919050565b6040518060600160405280600081526020016000815260200160008152509050919050565b919050565b6005546001600160a01b0316331461193c5760405162461bcd60e51b815260206004820152600b60248201526a3737ba1036b0b730b3b2b960a91b6044820152606401610cec565b60135460ff16151560010361197c5760405162461bcd60e51b8152602060048201526006602482015265696e2075736560d01b6044820152606401610cec565b6013805460ff1916600117905581511580159061199a575080518251145b6119e65760405162461bcd60e51b815260206004820152600c60248201527f77726f6e67206c656e67746800000000000000000000000000000000000000006044820152606401610cec565b60005b8251811015611a4057611a2e838281518110611a0757611a0761383f565b6020026020010151838381518110611a2157611a2161383f565b60200260200101516122f2565b80611a3881613891565b9150506119e9565b50506013805460ff1916905550565b60078054610d2a90613805565b60008280600003611a9c5760405162461bcd60e51b815260206004820152600a6024820152697a65726f2076616c756560b01b6044820152606401610cec565b8280600003611ada5760405162461bcd60e51b815260206004820152600a6024820152697a65726f2076616c756560b01b6044820152606401610cec565b60145460009080611aeb81886138aa565b611af5904261387e565b611aff91906138c1565b611b0991906138aa565b601554909150611b19428361386b565b1115611b675760405162461bcd60e51b815260206004820152601b60248201527f4d617820756e6c6f636b2074696d6520697320657863656564656400000000006044820152606401610cec565b601660008154611b7690613891565b91829055509350611b873385612b52565b611b93338588846125bd565b6040805133815260208101869052908101879052606081018290527f71fc552ee832a9004ea0bdb07cb6dd9d641eb2cb53b3cfe88c8fdcff886734a09060800160405180910390a150505092915050565b6000818152601860205260408120548015611c68576000838152601860205260409020611c6390611c1660018461386b565b81548110611c2657611c2661383f565b9060005260206000209060030201604051806060016040529081600082015481526020016001820154815260200160028201548152505042611ecb565b611c6b565b60005b9392505050565b606060186000838152602001908152602001600020805480602002602001604051908101604052809291908181526020016000905b82821015611cf75783829060005260206000209060030201604051806060016040529081600082015481526020016001820154815260200160028201548152505081526020019060010190611ca7565b505050509050919050565b6000818152600b60205260409020546060906001600160a01b0316611d695760405162461bcd60e51b815260206004820152601c60248201527f4c6f636b49644e46543a206e6f6e6578697374656e7420746f6b656e000000006044820152606401610cec565b60008281526008602052604081208054611d8290613805565b80601f0160208091040260200160405190810160405280929190818152602001828054611dae90613805565b8015611dfb5780601f10611dd057610100808354040283529160200191611dfb565b820191906000526020600020905b815481529060010190602001808311611dde57829003601f168201915b505050505090506000611e0c611560565b90508051600003611e1e575092915050565b815115611e50578082604051602001611e389291906138e3565b60405160208183030381529060405292505050919050565b80611e5a85612b6c565b604051602001611e389291906138e3565b601454600090611e7b81806138c1565b611e8591906138aa565b610f58908361387e565b60068054610d2a90613805565b6000610f9c611ea9612248565b42611ecb565b60186020528160005260406000208181548110610e9557600080fd5b60008260400151821015611ee157506000610f58565b6000836040015183611ef3919061386b565b8451611eff9190613912565b9050670de0b6b3a764000081856020015113611f1c576000611f2c565b818560200151611f2c9190613942565b611f3691906138c1565b949350505050565b81151580611f4b57508015155b611f845760405162461bcd60e51b815260206004820152600a6024820152697a65726f2076616c756560b01b6044820152606401610cec565b600083815260176020908152604091829020825160a081018452815481526001820154928101929092526002810154928201929092526003909101546001600160a01b03811660608301819052600160a01b90910460ff161515608083015215801590611ff15750805115155b6120295760405162461bcd60e51b81526020600482015260096024820152681b9bdd08195e1a5cdd60ba1b6044820152606401610cec565b60608101516001600160a01b03163314801561204d57506001600160a01b03851633145b6120855760405162461bcd60e51b81526020600482015260096024820152683737ba1037bbb732b960b91b6044820152606401610cec565b6080810151156120d75760405162461bcd60e51b815260206004820152601860248201527f49742069732077697468647261776e20616c72656164792e00000000000000006044820152606401610cec565b4281602001511161212a5760405162461bcd60e51b815260206004820152601560248201527f4c6f636b2074696d652069732066696e697368656400000000000000000000006044820152606401610cec565b600082156121c0576014548061214081866138aa565b846020015161214f919061387e565b61215991906138c1565b61216391906138aa565b601554909150612173428361386b565b106121c05760405162461bcd60e51b815260206004820152601b60248201527f4d617820756e6c6f636b2074696d6520697320657863656564656400000000006044820152606401610cec565b6121d082606001518686846125bd565b6040805133815260208101879052908101859052606081018290527f5f892c194d8c6e1843b07f17cf9f74a948c12db2d661de24241b1231715bc79f9060800160405180910390a1505050505050565b6005546000906001600160a01b0380841691160361224057506001919050565b506000919050565b61226c60405180606001604052806000815260200160008152602001600081525090565b610f9c610912610f5e565b6000818152601960209081526040808320805482518185028101850190935280835260609492939192909184018215611cf75783829060005260206000209060030201604051806060016040529081600082015481526020016001820154815260200160028201548152505081526020019060010190611ca7565b6000828152600b60205260409020546001600160a01b03166123655760405162461bcd60e51b815260206004820152602660248201527f546974616e4e46543a2055524920736574206f66206e6f6e6578697374656e74604482015265103a37b5b2b760d11b6064820152608401610cec565b600082815260086020526040902061062382826139b7565b601a546014546000918291829080612395818861387e565b61239f91906138aa565b6123a991906138c1565b9050816000036123c0575060009485945092505050565b6000825b806123d083600161387e565b101561242657600060026123e4838561387e565b6123ee91906138c1565b905083601a82815481106124045761240461383f565b90600052602060002001541161241c57809250612420565b8091505b506123c4565b82601a838154811061243a5761243a61383f565b906000526020600020015411612477576001601a838154811061245f5761245f61383f565b90600052602060002001549550955050505050915091565b50600096879650945050505050565b60006124ac60405180606001604052806000815260200160008152602001600081525090565b83546000036124be57600091506125b6565b83546000905b806124d083600161387e565b101561252c57600060026124e4838561387e565b6124ee91906138c1565b9050858782815481106125035761250361383f565b9060005260206000209060030201600201541161252257809250612526565b8091505b506124c4565b8486838154811061253f5761253f61383f565b906000526020600020906003020160020154116125af57600186838154811061256a5761256a61383f565b906000526020600020906003020180604051806060016040529081600082015481526020016001820154815260200160028201548152505090509350935050506125b6565b6000935050505b9250929050565b60135460ff1615156001036125fd5760405162461bcd60e51b8152602060048201526006602482015265696e2075736560d01b6044820152606401610cec565b6013805460ff191660019081179091556000848152601760209081526040808320815160a08082018452825482529582015481850190815260028301548285019081526003909301546001600160a01b0381166060840152600160a01b900460ff161515608083015283519687018452815187525193860193909352519193919082019061268c90879061387e565b81526001600160a01b03881660208201526000604090910152905082156126b557602081018390525b80516000036126c2574281525b6000858152601760209081526040808320845181558285015160018201558185015160028201556060808601516003909201805460808801511515600160a01b0274ffffffffffffffffffffffffffffffffffffffffff199091166001600160a01b039094169390931792909217909155601883528184205482519182018352848252928101849052908101929092529060006040518060600160405280601554670de0b6b3a7640000876040015161277b91906138aa565b61278591906138c1565b8152602001600081526020014281525090504284602001516127a7919061386b565b81516127b39190613912565b602082015282156128255760008881526018602052604090206127d760018561386b565b815481106127e7576127e761383f565b906000526020600020906003020160405180606001604052908160008201548152602001600182015481526020016002820154815250509150612845565b604051806060016040528060008152602001600081526020014281525091505b60006040518060600160405280846000015184600001516128669190613942565b81526020018460200151846020015161287f9190613942565b815242602091820181905260008c815260188352604080822080546001818101835591845285842089516003909202019081559488015190850155860151600290930192909255919250906128d390611e6b565b6000818152601960209081526040808320548151606081018352848152928301849052908201839052929350908290036129165761290f612248565b9050612979565b600083815260196020526040902061292f60018461386b565b8154811061293f5761293f61383f565b9060005260206000209060030201604051806060016040529081600082015481526020016001820154815260200160028201548152505090505b600060405180606001604052808660000151846000015161299a9190613a77565b8152602001866020015184602001516129b39190613a77565b81524260209182015260008681526019825260408082208054600181810183559184528484208651600390920201908155858501519181019190915581850151600290910155878252601b909252205490915060ff16612a5b576000848152601b60205260408120805460ff19166001908117909155601a805491820181559091527f057c384a7d1c54f3a1b2e5e67b2617b8224fdfd1ea7234eea573a6ff665ff63e018490555b8b15612b2c576013546040516323b872dd60e01b8152336004820152306024820152604481018e90526101009091046001600160a01b0316906323b872dd906064016020604051808303816000875af1158015612abc573d6000803e3d6000fd5b505050506040513d601f19601f82011682018060405250810190612ae09190613a97565b612b2c5760405162461bcd60e51b815260206004820152601c60248201527f4c6f636b49644e46543a206661696c207472616e7366657246726f6d000000006044820152606401610cec565b50506013805460ff19169055505050505050505050505050565b600a61059082826139b7565b610590828260405180602001604052806000815250612c0c565b60606000612b7983612d5c565b600101905060008167ffffffffffffffff811115612b9957612b99613265565b6040519080825280601f01601f191660200182016040528015612bc3576020820181803683370190505b5090508181016020015b600019017f3031323334353637383961626364656600000000000000000000000000000000600a86061a8153600a8504945084612bcd57509392505050565b81600003612c5c5760405162461bcd60e51b815260206004820152601360248201527f6e6f7420616c6c6f77656420746f6b656e4964000000000000000000000000006044820152606401610cec565b612c668383612e3e565b6001600160a01b0383166000908152600f6020908152604080832080548685526010845282852081905560018082018355918552838520018690556011805487865260129094529184208390558201815582527f31ecc21a745e3968a04e9570e4425bc18fa8019c68028196b546d1669c200c6801839055612cea90848484612f7e565b6106235760405162461bcd60e51b815260206004820152603560248201527f4c6f636b49644e46543a207472616e7366657220746f206e6f6e20455243373260448201527f31526563656976657220696d706c656d656e74657200000000000000000000006064820152608401610cec565b6000807a184f03e93ff9f4daa797ed6e38ed64bf6a1f0100000000000000008310612da5577a184f03e93ff9f4daa797ed6e38ed64bf6a1f010000000000000000830492506040015b6d04ee2d6d415b85acef81000000008310612dd1576d04ee2d6d415b85acef8100000000830492506020015b662386f26fc100008310612def57662386f26fc10000830492506010015b6305f5e1008310612e07576305f5e100830492506008015b6127108310612e1b57612710830492506004015b60648310612e2d576064830492506002015b600a8310610f585760010192915050565b6001600160a01b038216612ea05760405162461bcd60e51b815260206004820152602360248201527f4c6f636b49644e46543a206d696e7420746f20746865207a65726f206164647260448201526265737360e81b6064820152608401610cec565b6000818152600b60205260409020546001600160a01b031615612f055760405162461bcd60e51b815260206004820152601f60248201527f4c6f636b49644e46543a20746f6b656e20616c7265616479206d696e746564006044820152606401610cec565b6000818152600b60209081526040808320805473ffffffffffffffffffffffffffffffffffffffff19166001600160a01b038716908117909155808452600d90925280832080546001019055518392907fddf252ad1be2c89b69c2b068fc378daa952ba7f163c4a11628f55a4df523b3ef908290a45050565b60006001600160a01b0384163b612f9757506001611f36565b600061301863150b7a0260e01b33888787604051602401612fbb9493929190613ab4565b604051602081830303815290604052906001600160e01b0319166020820180516001600160e01b038381831617835250505050604051806060016040528060358152602001613b20603591396001600160a01b038816919061304f565b90506000818060200190518101906130309190613ae6565b6001600160e01b031916630a85bd0160e11b1492505050949350505050565b6060611f36848460008585600080866001600160a01b031685876040516130769190613b03565b60006040518083038185875af1925050503d80600081146130b3576040519150601f19603f3d011682016040523d82523d6000602084013e6130b8565b606091505b50915091506130c9878383876130d4565b979650505050505050565b6060831561314357825160000361313c576001600160a01b0385163b61313c5760405162461bcd60e51b815260206004820152601d60248201527f416464726573733a2063616c6c20746f206e6f6e2d636f6e74726163740000006044820152606401610cec565b5081611f36565b611f3683838151156131585781518083602001fd5b8060405162461bcd60e51b8152600401610cec91906131f8565b6001600160e01b03198116811461318857600080fd5b50565b60006020828403121561319d57600080fd5b8135611c6b81613172565b60005b838110156131c35781810151838201526020016131ab565b50506000910152565b600081518084526131e48160208601602086016131a8565b601f01601f19169290920160200192915050565b602081526000611c6b60208301846131cc565b60006020828403121561321d57600080fd5b5035919050565b80356001600160a01b03811681146118ef57600080fd5b6000806040838503121561324e57600080fd5b61325783613224565b946020939093013593505050565b634e487b7160e01b600052604160045260246000fd5b604051601f8201601f1916810167ffffffffffffffff811182821017156132a4576132a4613265565b604052919050565b600067ffffffffffffffff8311156132c6576132c6613265565b6132d9601f8401601f191660200161327b565b90508281528383830111156132ed57600080fd5b828260208301376000602084830101529392505050565b600082601f83011261331557600080fd5b611c6b838335602085016132ac565b6000806040838503121561333757600080fd5b82359150602083013567ffffffffffffffff81111561335557600080fd5b61336185828601613304565b9150509250929050565b60008060006060848603121561338057600080fd5b61338984613224565b925061339760208501613224565b9150604084013590509250925092565b600080604083850312156133ba57600080fd5b50508035926020909101359150565b6000602082840312156133db57600080fd5b611c6b82613224565b6000806000606084860312156133f957600080fd5b61340284613224565b95602085013595506040909401359392505050565b60006020828403121561342957600080fd5b813567ffffffffffffffff81111561344057600080fd5b611f3684828501613304565b6020808252825182820181905260009190848201906040850190845b8181101561348457835183529284019291840191600101613468565b50909695505050505050565b801515811461318857600080fd5b600080604083850312156134b157600080fd5b6134ba83613224565b915060208301356134ca81613490565b809150509250929050565b81518152602080830151908201526040808301519082015260608101610f58565b600067ffffffffffffffff82111561351057613510613265565b5060051b60200190565b600082601f83011261352b57600080fd5b8135602061354061353b836134f6565b61327b565b82815260059290921b8401810191818101908684111561355f57600080fd5b8286015b8481101561359f57803567ffffffffffffffff8111156135835760008081fd5b6135918986838b0101613304565b845250918301918301613563565b509695505050505050565b600080604083850312156135bd57600080fd5b823567ffffffffffffffff808211156135d557600080fd5b818501915085601f8301126135e957600080fd5b813560206135f961353b836134f6565b82815260059290921b8401810191818101908984111561361857600080fd5b948201945b838610156136365785358252948201949082019061361d565b9650508601359250508082111561364c57600080fd5b506133618582860161351a565b6000806000806080858703121561366f57600080fd5b61367885613224565b935061368660208601613224565b925060408501359150606085013567ffffffffffffffff8111156136a957600080fd5b8501601f810187136136ba57600080fd5b6136c9878235602084016132ac565b91505092959194509250565b6020808252825182820181905260009190848201906040850190845b81811015613484576137188385518051825260208082015190830152604090810151910152565b92840192606092909201916001016136f1565b600080828403608081121561373f57600080fd5b606081121561374d57600080fd5b506040516060810181811067ffffffffffffffff8211171561377157613771613265565b6040908152843582526020808601359083015284810135908201529460609093013593505050565b600080604083850312156137ac57600080fd5b6137b583613224565b91506137c360208401613224565b90509250929050565b600080600080608085870312156137e257600080fd5b6137eb85613224565b966020860135965060408601359560600135945092505050565b600181811c9082168061381957607f821691505b60208210810361383957634e487b7160e01b600052602260045260246000fd5b50919050565b634e487b7160e01b600052603260045260246000fd5b634e487b7160e01b600052601160045260246000fd5b81810381811115610f5857610f58613855565b80820180821115610f5857610f58613855565b6000600182016138a3576138a3613855565b5060010190565b8082028115828204841417610f5857610f58613855565b6000826138de57634e487b7160e01b600052601260045260246000fd5b500490565b600083516138f58184602088016131a8565b8351908301906139098183602088016131a8565b01949350505050565b80820260008212600160ff1b8414161561392e5761392e613855565b8181058314821517610f5857610f58613855565b818103600083128015838313168383128216171561396257613962613855565b5092915050565b601f82111561062357600081815260208120601f850160051c810160208610156139905750805b601f850160051c820191505b818110156139af5782815560010161399c565b505050505050565b815167ffffffffffffffff8111156139d1576139d1613265565b6139e5816139df8454613805565b84613969565b602080601f831160018114613a1a5760008415613a025750858301515b600019600386901b1c1916600185901b1785556139af565b600085815260208120601f198616915b82811015613a4957888601518255948401946001909101908401613a2a565b5085821015613a675787850151600019600388901b60f8161c191681555b5050505050600190811b01905550565b808201828112600083128015821682158216171561107e5761107e613855565b600060208284031215613aa957600080fd5b8151611c6b81613490565b60006001600160a01b038087168352808616602084015250836040830152608060608301526110f460808301846131cc565b600060208284031215613af857600080fd5b8151611c6b81613172565b60008251613b158184602087016131a8565b919091019291505056fe4c6f636b49644e46543a207472616e7366657220746f206e6f6e20455243373231526563656976657220696d706c656d656e746572a164736f6c6343000812000a",
  "linkReferences": {},
  "deployedLinkReferences": {}
}