{
  "_format": "hh-sol-artifact-1",
  "contractName": "LockIdNFT",
  "sourceName": "contracts/stos/LockIdNFT.sol",
  "abi": [
    {
      "inputs": [
        {
          "internalType": "string",
          "name": "name_",
          "type": "string"
        },
        {
          "internalType": "string",
          "name": "symbol_",
          "type": "string"
        },
        {
          "internalType": "address",
          "name": "managerAddress",
          "type": "address"
        },
        {
          "internalType": "uint256",
          "name": "epochUnit_",
          "type": "uint256"
        },
        {
          "internalType": "uint256",
          "name": "maxTime_",
          "type": "uint256"
        },
        {
          "internalType": "address",
          "name": "tosAddress",
          "type": "address"
        }
      ],
      "stateMutability": "nonpayable",
      "type": "constructor"
    },
    {
      "anonymous": false,
      "inputs": [
        {
          "indexed": true,
          "internalType": "address",
          "name": "owner",
          "type": "address"
        },
        {
          "indexed": true,
          "internalType": "address",
          "name": "approved",
          "type": "address"
        },
        {
          "indexed": true,
          "internalType": "uint256",
          "name": "tokenId",
          "type": "uint256"
        }
      ],
      "name": "Approval",
      "type": "event"
    },
    {
      "anonymous": false,
      "inputs": [
        {
          "indexed": true,
          "internalType": "address",
          "name": "owner",
          "type": "address"
        },
        {
          "indexed": true,
          "internalType": "address",
          "name": "operator",
          "type": "address"
        },
        {
          "indexed": false,
          "internalType": "bool",
          "name": "approved",
          "type": "bool"
        }
      ],
      "name": "ApprovalForAll",
      "type": "event"
    },
    {
      "anonymous": false,
      "inputs": [
        {
          "indexed": false,
          "internalType": "address",
          "name": "account",
          "type": "address"
        },
        {
          "indexed": false,
          "internalType": "uint256",
          "name": "lockId",
          "type": "uint256"
        },
        {
          "indexed": false,
          "internalType": "uint256",
          "name": "value",
          "type": "uint256"
        },
        {
          "indexed": false,
          "internalType": "uint256",
          "name": "unlockTime",
          "type": "uint256"
        }
      ],
      "name": "IncreasedLock",
      "type": "event"
    },
    {
      "anonymous": false,
      "inputs": [
        {
          "indexed": false,
          "internalType": "address",
          "name": "account",
          "type": "address"
        },
        {
          "indexed": false,
          "internalType": "uint256",
          "name": "lockId",
          "type": "uint256"
        },
        {
          "indexed": false,
          "internalType": "uint256",
          "name": "amount",
          "type": "uint256"
        },
        {
          "indexed": false,
          "internalType": "uint256",
          "name": "unlockTime",
          "type": "uint256"
        }
      ],
      "name": "LockCreated",
      "type": "event"
    },
    {
      "anonymous": false,
      "inputs": [
        {
          "indexed": false,
          "internalType": "address",
          "name": "account",
          "type": "address"
        },
        {
          "indexed": false,
          "internalType": "uint256",
          "name": "lockId",
          "type": "uint256"
        },
        {
          "indexed": false,
          "internalType": "uint256",
          "name": "value",
          "type": "uint256"
        }
      ],
      "name": "LockDeposited",
      "type": "event"
    },
    {
      "anonymous": false,
      "inputs": [
        {
          "indexed": true,
          "internalType": "address",
          "name": "from",
          "type": "address"
        },
        {
          "indexed": true,
          "internalType": "address",
          "name": "to",
          "type": "address"
        },
        {
          "indexed": true,
          "internalType": "uint256",
          "name": "tokenId",
          "type": "uint256"
        }
      ],
      "name": "Transfer",
      "type": "event"
    },
    {
      "inputs": [],
      "name": "MULTIPLIER",
      "outputs": [
        {
          "internalType": "uint256",
          "name": "",
          "type": "uint256"
        }
      ],
      "stateMutability": "view",
      "type": "function"
    },
    {
      "inputs": [],
      "name": "_ERC721_RECEIVED",
      "outputs": [
        {
          "internalType": "bytes4",
          "name": "",
          "type": "bytes4"
        }
      ],
      "stateMutability": "view",
      "type": "function"
    },
    {
      "inputs": [],
      "name": "_INTERFACE_ID_ERC721",
      "outputs": [
        {
          "internalType": "bytes4",
          "name": "",
          "type": "bytes4"
        }
      ],
      "stateMutability": "view",
      "type": "function"
    },
    {
      "inputs": [],
      "name": "_INTERFACE_ID_ERC721_ENUMERABLE",
      "outputs": [
        {
          "internalType": "bytes4",
          "name": "",
          "type": "bytes4"
        }
      ],
      "stateMutability": "view",
      "type": "function"
    },
    {
      "inputs": [],
      "name": "_INTERFACE_ID_ERC721_METADATA",
      "outputs": [
        {
          "internalType": "bytes4",
          "name": "",
          "type": "bytes4"
        }
      ],
      "stateMutability": "view",
      "type": "function"
    },
    {
      "inputs": [
        {
          "internalType": "uint256",
          "name": "",
          "type": "uint256"
        }
      ],
      "name": "_allTokens",
      "outputs": [
        {
          "internalType": "uint256",
          "name": "",
          "type": "uint256"
        }
      ],
      "stateMutability": "view",
      "type": "function"
    },
    {
      "inputs": [
        {
          "internalType": "uint256",
          "name": "",
          "type": "uint256"
        }
      ],
      "name": "_allTokensIndex",
      "outputs": [
        {
          "internalType": "uint256",
          "name": "",
          "type": "uint256"
        }
      ],
      "stateMutability": "view",
      "type": "function"
    },
    {
      "inputs": [],
      "name": "_baseURI",
      "outputs": [
        {
          "internalType": "string",
          "name": "",
          "type": "string"
        }
      ],
      "stateMutability": "view",
      "type": "function"
    },
    {
      "inputs": [],
      "name": "_manager",
      "outputs": [
        {
          "internalType": "address",
          "name": "",
          "type": "address"
        }
      ],
      "stateMutability": "view",
      "type": "function"
    },
    {
      "inputs": [],
      "name": "_name",
      "outputs": [
        {
          "internalType": "string",
          "name": "",
          "type": "string"
        }
      ],
      "stateMutability": "view",
      "type": "function"
    },
    {
      "inputs": [
        {
          "internalType": "address",
          "name": "",
          "type": "address"
        },
        {
          "internalType": "address",
          "name": "",
          "type": "address"
        }
      ],
      "name": "_operatorApprovals",
      "outputs": [
        {
          "internalType": "bool",
          "name": "",
          "type": "bool"
        }
      ],
      "stateMutability": "view",
      "type": "function"
    },
    {
      "inputs": [
        {
          "internalType": "address",
          "name": "",
          "type": "address"
        },
        {
          "internalType": "uint256",
          "name": "",
          "type": "uint256"
        }
      ],
      "name": "_ownedTokens",
      "outputs": [
        {
          "internalType": "uint256",
          "name": "",
          "type": "uint256"
        }
      ],
      "stateMutability": "view",
      "type": "function"
    },
    {
      "inputs": [
        {
          "internalType": "address",
          "name": "",
          "type": "address"
        }
      ],
      "name": "_ownedTokensCount",
      "outputs": [
        {
          "internalType": "uint256",
          "name": "",
          "type": "uint256"
        }
      ],
      "stateMutability": "view",
      "type": "function"
    },
    {
      "inputs": [
        {
          "internalType": "uint256",
          "name": "",
          "type": "uint256"
        }
      ],
      "name": "_ownedTokensIndex",
      "outputs": [
        {
          "internalType": "uint256",
          "name": "",
          "type": "uint256"
        }
      ],
      "stateMutability": "view",
      "type": "function"
    },
    {
      "inputs": [],
      "name": "_owner",
      "outputs": [
        {
          "internalType": "address",
          "name": "",
          "type": "address"
        }
      ],
      "stateMutability": "view",
      "type": "function"
    },
    {
      "inputs": [],
      "name": "_symbol",
      "outputs": [
        {
          "internalType": "string",
          "name": "",
          "type": "string"
        }
      ],
      "stateMutability": "view",
      "type": "function"
    },
    {
      "inputs": [
        {
          "internalType": "uint256",
          "name": "",
          "type": "uint256"
        }
      ],
      "name": "_tokenApprovals",
      "outputs": [
        {
          "internalType": "address",
          "name": "",
          "type": "address"
        }
      ],
      "stateMutability": "view",
      "type": "function"
    },
    {
      "inputs": [
        {
          "internalType": "uint256",
          "name": "",
          "type": "uint256"
        }
      ],
      "name": "_tokenAttributes",
      "outputs": [
        {
          "internalType": "uint8",
          "name": "",
          "type": "uint8"
        }
      ],
      "stateMutability": "view",
      "type": "function"
    },
    {
      "inputs": [
        {
          "internalType": "uint256",
          "name": "",
          "type": "uint256"
        }
      ],
      "name": "_tokenOwner",
      "outputs": [
        {
          "internalType": "address",
          "name": "",
          "type": "address"
        }
      ],
      "stateMutability": "view",
      "type": "function"
    },
    {
      "inputs": [
        {
          "internalType": "uint256",
          "name": "",
          "type": "uint256"
        }
      ],
      "name": "_tokenURIs",
      "outputs": [
        {
          "internalType": "string",
          "name": "",
          "type": "string"
        }
      ],
      "stateMutability": "view",
      "type": "function"
    },
    {
      "inputs": [
        {
          "internalType": "address",
          "name": "",
          "type": "address"
        }
      ],
      "name": "aliveImplementation",
      "outputs": [
        {
          "internalType": "bool",
          "name": "",
          "type": "bool"
        }
      ],
      "stateMutability": "view",
      "type": "function"
    },
    {
      "inputs": [],
      "name": "allIndexOfTimes",
      "outputs": [
        {
          "internalType": "uint256[]",
          "name": "",
          "type": "uint256[]"
        }
      ],
      "stateMutability": "view",
      "type": "function"
    },
    {
      "inputs": [],
      "name": "allTokens",
      "outputs": [
        {
          "internalType": "uint256[]",
          "name": "",
          "type": "uint256[]"
        }
      ],
      "stateMutability": "view",
      "type": "function"
    },
    {
      "inputs": [
        {
          "internalType": "address",
          "name": "to",
          "type": "address"
        },
        {
          "internalType": "uint256",
          "name": "tokenId",
          "type": "uint256"
        }
      ],
      "name": "approve",
      "outputs": [],
      "stateMutability": "nonpayable",
      "type": "function"
    },
    {
      "inputs": [
        {
          "internalType": "address",
          "name": "owner_",
          "type": "address"
        }
      ],
      "name": "balanceOf",
      "outputs": [
        {
          "internalType": "uint256",
          "name": "",
          "type": "uint256"
        }
      ],
      "stateMutability": "view",
      "type": "function"
    },
    {
      "inputs": [
        {
          "internalType": "address",
          "name": "_addr",
          "type": "address"
        }
      ],
      "name": "balanceOfLock",
      "outputs": [
        {
          "internalType": "uint256",
          "name": "balance",
          "type": "uint256"
        }
      ],
      "stateMutability": "view",
      "type": "function"
    },
    {
      "inputs": [
        {
          "internalType": "uint256",
          "name": "_lockId",
          "type": "uint256"
        }
      ],
      "name": "balanceOfLock",
      "outputs": [
        {
          "internalType": "uint256",
          "name": "amount",
          "type": "uint256"
        }
      ],
      "stateMutability": "view",
      "type": "function"
    },
    {
      "inputs": [
        {
          "internalType": "address",
          "name": "_addr",
          "type": "address"
        },
        {
          "internalType": "uint256",
          "name": "_timestamp",
          "type": "uint256"
        }
      ],
      "name": "balanceOfLockAt",
      "outputs": [
        {
          "internalType": "uint256",
          "name": "balance",
          "type": "uint256"
        }
      ],
      "stateMutability": "view",
      "type": "function"
    },
    {
      "inputs": [
        {
          "internalType": "uint256",
          "name": "_lockId",
          "type": "uint256"
        },
        {
          "internalType": "uint256",
          "name": "_timestamp",
          "type": "uint256"
        }
      ],
      "name": "balanceOfLockAt",
      "outputs": [
        {
          "internalType": "uint256",
          "name": "amount",
          "type": "uint256"
        }
      ],
      "stateMutability": "view",
      "type": "function"
    },
    {
      "inputs": [
        {
          "components": [
            {
              "internalType": "int256",
              "name": "slope",
              "type": "int256"
            },
            {
              "internalType": "int256",
              "name": "bias",
              "type": "int256"
            },
            {
              "internalType": "uint256",
              "name": "timestamp",
              "type": "uint256"
            }
          ],
          "internalType": "struct LibLockId.Point",
          "name": "point",
          "type": "tuple"
        },
        {
          "internalType": "uint256",
          "name": "timestamp",
          "type": "uint256"
        }
      ],
      "name": "balanceOfPoint",
      "outputs": [
        {
          "internalType": "uint256",
          "name": "",
          "type": "uint256"
        }
      ],
      "stateMutability": "pure",
      "type": "function"
    },
    {
      "inputs": [],
      "name": "baseURI",
      "outputs": [
        {
          "internalType": "string",
          "name": "",
          "type": "string"
        }
      ],
      "stateMutability": "view",
      "type": "function"
    },
    {
      "inputs": [
        {
          "internalType": "uint256",
          "name": "_amount",
          "type": "uint256"
        },
        {
          "internalType": "uint256",
          "name": "_unlockWeeks",
          "type": "uint256"
        }
      ],
      "name": "createLock",
      "outputs": [
        {
          "internalType": "uint256",
          "name": "lockId",
          "type": "uint256"
        }
      ],
      "stateMutability": "nonpayable",
      "type": "function"
    },
    {
      "inputs": [
        {
          "internalType": "address",
          "name": "_addr",
          "type": "address"
        },
        {
          "internalType": "uint256",
          "name": "_lockId",
          "type": "uint256"
        },
        {
          "internalType": "uint256",
          "name": "_value",
          "type": "uint256"
        }
      ],
      "name": "depositFor",
      "outputs": [],
      "stateMutability": "nonpayable",
      "type": "function"
    },
    {
      "inputs": [],
      "name": "epochUnit",
      "outputs": [
        {
          "internalType": "uint256",
          "name": "",
          "type": "uint256"
        }
      ],
      "stateMutability": "view",
      "type": "function"
    },
    {
      "inputs": [
        {
          "internalType": "uint256",
          "name": "",
          "type": "uint256"
        }
      ],
      "name": "existedLockPeriod",
      "outputs": [
        {
          "internalType": "bool",
          "name": "",
          "type": "bool"
        }
      ],
      "stateMutability": "view",
      "type": "function"
    },
    {
      "inputs": [
        {
          "internalType": "uint256",
          "name": "tokenId",
          "type": "uint256"
        }
      ],
      "name": "getApproved",
      "outputs": [
        {
          "internalType": "address",
          "name": "",
          "type": "address"
        }
      ],
      "stateMutability": "view",
      "type": "function"
    },
    {
      "inputs": [
        {
          "internalType": "address",
          "name": "_addr",
          "type": "address"
        },
        {
          "internalType": "uint256",
          "name": "_lockId",
          "type": "uint256"
        },
        {
          "internalType": "uint256",
          "name": "_value",
          "type": "uint256"
        },
        {
          "internalType": "uint256",
          "name": "_unlockWeeks",
          "type": "uint256"
        }
      ],
      "name": "increaseLock",
      "outputs": [],
      "stateMutability": "nonpayable",
      "type": "function"
    },
    {
      "inputs": [
        {
          "internalType": "uint256",
          "name": "",
          "type": "uint256"
        }
      ],
      "name": "indexCheckOfTimeset",
      "outputs": [
        {
          "internalType": "bool",
          "name": "",
          "type": "bool"
        }
      ],
      "stateMutability": "view",
      "type": "function"
    },
    {
      "inputs": [
        {
          "internalType": "uint256",
          "name": "",
          "type": "uint256"
        },
        {
          "internalType": "uint256",
          "name": "",
          "type": "uint256"
        }
      ],
      "name": "indexCheckOfTimesetForLockEnd",
      "outputs": [
        {
          "internalType": "bool",
          "name": "",
          "type": "bool"
        }
      ],
      "stateMutability": "view",
      "type": "function"
    },
    {
      "inputs": [
        {
          "internalType": "uint256",
          "name": "",
          "type": "uint256"
        }
      ],
      "name": "indexCheckOfTimesetForUnlimited",
      "outputs": [
        {
          "internalType": "bool",
          "name": "",
          "type": "bool"
        }
      ],
      "stateMutability": "view",
      "type": "function"
    },
    {
      "inputs": [
        {
          "internalType": "uint256",
          "name": "",
          "type": "uint256"
        }
      ],
      "name": "indexOfTimeset",
      "outputs": [
        {
          "internalType": "uint256",
          "name": "",
          "type": "uint256"
        }
      ],
      "stateMutability": "view",
      "type": "function"
    },
    {
      "inputs": [
        {
          "internalType": "uint256",
          "name": "",
          "type": "uint256"
        },
        {
          "internalType": "uint256",
          "name": "",
          "type": "uint256"
        }
      ],
      "name": "indexOfTimesetForLockEnd",
      "outputs": [
        {
          "internalType": "uint256",
          "name": "",
          "type": "uint256"
        }
      ],
      "stateMutability": "view",
      "type": "function"
    },
    {
      "inputs": [
        {
          "internalType": "uint256",
          "name": "",
          "type": "uint256"
        }
      ],
      "name": "indexOfTimesetForUnlimited",
      "outputs": [
        {
          "internalType": "uint256",
          "name": "",
          "type": "uint256"
        }
      ],
      "stateMutability": "view",
      "type": "function"
    },
    {
      "inputs": [
        {
          "internalType": "address",
          "name": "owner_",
          "type": "address"
        },
        {
          "internalType": "address",
          "name": "operator",
          "type": "address"
        }
      ],
      "name": "isApprovedForAll",
      "outputs": [
        {
          "internalType": "bool",
          "name": "",
          "type": "bool"
        }
      ],
      "stateMutability": "view",
      "type": "function"
    },
    {
      "inputs": [
        {
          "internalType": "address",
          "name": "addr",
          "type": "address"
        }
      ],
      "name": "isManager",
      "outputs": [
        {
          "internalType": "bool",
          "name": "",
          "type": "bool"
        }
      ],
      "stateMutability": "view",
      "type": "function"
    },
    {
      "inputs": [],
      "name": "lastIndexOfTimeset",
      "outputs": [
        {
          "internalType": "uint256",
          "name": "index",
          "type": "uint256"
        }
      ],
      "stateMutability": "view",
      "type": "function"
    },
    {
      "inputs": [
        {
          "internalType": "uint256",
          "name": "_index",
          "type": "uint256"
        }
      ],
      "name": "lastPointOfTimeIndex",
      "outputs": [
        {
          "components": [
            {
              "internalType": "int256",
              "name": "slope",
              "type": "int256"
            },
            {
              "internalType": "int256",
              "name": "bias",
              "type": "int256"
            },
            {
              "internalType": "uint256",
              "name": "timestamp",
              "type": "uint256"
            }
          ],
          "internalType": "struct LibLockId.Point",
          "name": "",
          "type": "tuple"
        }
      ],
      "stateMutability": "view",
      "type": "function"
    },
    {
      "inputs": [
        {
          "internalType": "uint256",
          "name": "",
          "type": "uint256"
        }
      ],
      "name": "lockIdInfos",
      "outputs": [
        {
          "internalType": "uint256",
          "name": "start",
          "type": "uint256"
        },
        {
          "internalType": "uint256",
          "name": "end",
          "type": "uint256"
        },
        {
          "internalType": "uint256",
          "name": "amount",
          "type": "uint256"
        },
        {
          "internalType": "uint256",
          "name": "withdrawlTime",
          "type": "uint256"
        }
      ],
      "stateMutability": "view",
      "type": "function"
    },
    {
      "inputs": [
        {
          "internalType": "uint256",
          "name": "",
          "type": "uint256"
        }
      ],
      "name": "lockPeriod",
      "outputs": [
        {
          "internalType": "uint256",
          "name": "",
          "type": "uint256"
        }
      ],
      "stateMutability": "view",
      "type": "function"
    },
    {
      "inputs": [],
      "name": "manager",
      "outputs": [
        {
          "internalType": "address",
          "name": "",
          "type": "address"
        }
      ],
      "stateMutability": "view",
      "type": "function"
    },
    {
      "inputs": [],
      "name": "maxTime",
      "outputs": [
        {
          "internalType": "uint256",
          "name": "",
          "type": "uint256"
        }
      ],
      "stateMutability": "view",
      "type": "function"
    },
    {
      "inputs": [],
      "name": "maxTokenId",
      "outputs": [
        {
          "internalType": "uint256",
          "name": "",
          "type": "uint256"
        }
      ],
      "stateMutability": "view",
      "type": "function"
    },
    {
      "inputs": [],
      "name": "name",
      "outputs": [
        {
          "internalType": "string",
          "name": "",
          "type": "string"
        }
      ],
      "stateMutability": "view",
      "type": "function"
    },
    {
      "inputs": [
        {
          "internalType": "uint256",
          "name": "_stime",
          "type": "uint256"
        }
      ],
      "name": "nextTimeIndex",
      "outputs": [
        {
          "internalType": "uint256",
          "name": "",
          "type": "uint256"
        }
      ],
      "stateMutability": "view",
      "type": "function"
    },
    {
      "inputs": [
        {
          "internalType": "uint256",
          "name": "tokenId",
          "type": "uint256"
        }
      ],
      "name": "ownerOf",
      "outputs": [
        {
          "internalType": "address",
          "name": "",
          "type": "address"
        }
      ],
      "stateMutability": "view",
      "type": "function"
    },
    {
      "inputs": [],
      "name": "pauseProxy",
      "outputs": [
        {
          "internalType": "bool",
          "name": "",
          "type": "bool"
        }
      ],
      "stateMutability": "view",
      "type": "function"
    },
    {
      "inputs": [
        {
          "internalType": "uint256",
          "name": "",
          "type": "uint256"
        },
        {
          "internalType": "uint256",
          "name": "",
          "type": "uint256"
        }
      ],
      "name": "pointHistoryByLockId",
      "outputs": [
        {
          "internalType": "int256",
          "name": "slope",
          "type": "int256"
        },
        {
          "internalType": "int256",
          "name": "bias",
          "type": "int256"
        },
        {
          "internalType": "uint256",
          "name": "timestamp",
          "type": "uint256"
        }
      ],
      "stateMutability": "view",
      "type": "function"
    },
    {
      "inputs": [
        {
          "internalType": "uint256",
          "name": "",
          "type": "uint256"
        },
        {
          "internalType": "uint256",
          "name": "",
          "type": "uint256"
        }
      ],
      "name": "pointHistoryByWeek",
      "outputs": [
        {
          "internalType": "int256",
          "name": "slope",
          "type": "int256"
        },
        {
          "internalType": "int256",
          "name": "bias",
          "type": "int256"
        },
        {
          "internalType": "uint256",
          "name": "timestamp",
          "type": "uint256"
        }
      ],
      "stateMutability": "view",
      "type": "function"
    },
    {
      "inputs": [
        {
          "internalType": "uint256",
          "name": "_lockId",
          "type": "uint256"
        }
      ],
      "name": "pointHistoryOfId",
      "outputs": [
        {
          "components": [
            {
              "internalType": "int256",
              "name": "slope",
              "type": "int256"
            },
            {
              "internalType": "int256",
              "name": "bias",
              "type": "int256"
            },
            {
              "internalType": "uint256",
              "name": "timestamp",
              "type": "uint256"
            }
          ],
          "internalType": "struct LibLockId.Point[]",
          "name": "",
          "type": "tuple[]"
        }
      ],
      "stateMutability": "view",
      "type": "function"
    },
    {
      "inputs": [
        {
          "internalType": "uint256",
          "name": "_timeIndex",
          "type": "uint256"
        }
      ],
      "name": "pointHistoryOfTimeIndex",
      "outputs": [
        {
          "components": [
            {
              "internalType": "int256",
              "name": "slope",
              "type": "int256"
            },
            {
              "internalType": "int256",
              "name": "bias",
              "type": "int256"
            },
            {
              "internalType": "uint256",
              "name": "timestamp",
              "type": "uint256"
            }
          ],
          "internalType": "struct LibLockId.Point[]",
          "name": "",
          "type": "tuple[]"
        }
      ],
      "stateMutability": "view",
      "type": "function"
    },
    {
      "inputs": [],
      "name": "pointOfLastTimeIndex",
      "outputs": [
        {
          "components": [
            {
              "internalType": "int256",
              "name": "slope",
              "type": "int256"
            },
            {
              "internalType": "int256",
              "name": "bias",
              "type": "int256"
            },
            {
              "internalType": "uint256",
              "name": "timestamp",
              "type": "uint256"
            }
          ],
          "internalType": "struct LibLockId.Point",
          "name": "",
          "type": "tuple"
        }
      ],
      "stateMutability": "view",
      "type": "function"
    },
    {
      "inputs": [
        {
          "internalType": "uint256",
          "name": "",
          "type": "uint256"
        }
      ],
      "name": "proxyImplementation",
      "outputs": [
        {
          "internalType": "address",
          "name": "",
          "type": "address"
        }
      ],
      "stateMutability": "view",
      "type": "function"
    },
    {
      "inputs": [
        {
          "internalType": "address",
          "name": "from",
          "type": "address"
        },
        {
          "internalType": "address",
          "name": "to",
          "type": "address"
        },
        {
          "internalType": "uint256",
          "name": "tokenId",
          "type": "uint256"
        }
      ],
      "name": "safeTransferFrom",
      "outputs": [],
      "stateMutability": "nonpayable",
      "type": "function"
    },
    {
      "inputs": [
        {
          "internalType": "address",
          "name": "from",
          "type": "address"
        },
        {
          "internalType": "address",
          "name": "to",
          "type": "address"
        },
        {
          "internalType": "uint256",
          "name": "tokenId",
          "type": "uint256"
        },
        {
          "internalType": "bytes",
          "name": "_data",
          "type": "bytes"
        }
      ],
      "name": "safeTransferFrom",
      "outputs": [],
      "stateMutability": "nonpayable",
      "type": "function"
    },
    {
      "inputs": [
        {
          "internalType": "bytes4",
          "name": "",
          "type": "bytes4"
        }
      ],
      "name": "selectorImplementation",
      "outputs": [
        {
          "internalType": "address",
          "name": "",
          "type": "address"
        }
      ],
      "stateMutability": "view",
      "type": "function"
    },
    {
      "inputs": [
        {
          "internalType": "address",
          "name": "operator",
          "type": "address"
        },
        {
          "internalType": "bool",
          "name": "approved",
          "type": "bool"
        }
      ],
      "name": "setApprovalForAll",
      "outputs": [],
      "stateMutability": "nonpayable",
      "type": "function"
    },
    {
      "inputs": [
        {
          "internalType": "string",
          "name": "baseURI_",
          "type": "string"
        }
      ],
      "name": "setBaseURI",
      "outputs": [],
      "stateMutability": "nonpayable",
      "type": "function"
    },
    {
      "inputs": [
        {
          "internalType": "uint256",
          "name": "tokenId",
          "type": "uint256"
        },
        {
          "internalType": "string",
          "name": "_tokenURI",
          "type": "string"
        }
      ],
      "name": "setTokenURI",
      "outputs": [],
      "stateMutability": "nonpayable",
      "type": "function"
    },
    {
      "inputs": [
        {
          "internalType": "uint256[]",
          "name": "tokenIds",
          "type": "uint256[]"
        },
        {
          "internalType": "string[]",
          "name": "_tokenURIs",
          "type": "string[]"
        }
      ],
      "name": "setTokenURI",
      "outputs": [],
      "stateMutability": "nonpayable",
      "type": "function"
    },
    {
      "inputs": [
        {
          "internalType": "uint256",
          "name": "",
          "type": "uint256"
        },
        {
          "internalType": "uint256",
          "name": "",
          "type": "uint256"
        }
      ],
      "name": "slopeByLockEndTime",
      "outputs": [
        {
          "internalType": "int256",
          "name": "",
          "type": "int256"
        }
      ],
      "stateMutability": "view",
      "type": "function"
    },
    {
      "inputs": [],
      "name": "staker",
      "outputs": [
        {
          "internalType": "address",
          "name": "",
          "type": "address"
        }
      ],
      "stateMutability": "view",
      "type": "function"
    },
    {
      "inputs": [
        {
          "internalType": "bytes4",
          "name": "interfaceId",
          "type": "bytes4"
        }
      ],
      "name": "supportsInterface",
      "outputs": [
        {
          "internalType": "bool",
          "name": "",
          "type": "bool"
        }
      ],
      "stateMutability": "view",
      "type": "function"
    },
    {
      "inputs": [],
      "name": "symbol",
      "outputs": [
        {
          "internalType": "string",
          "name": "",
          "type": "string"
        }
      ],
      "stateMutability": "view",
      "type": "function"
    },
    {
      "inputs": [
        {
          "internalType": "uint256",
          "name": "index",
          "type": "uint256"
        }
      ],
      "name": "tokenByIndex",
      "outputs": [
        {
          "internalType": "uint256",
          "name": "",
          "type": "uint256"
        }
      ],
      "stateMutability": "view",
      "type": "function"
    },
    {
      "inputs": [
        {
          "internalType": "address",
          "name": "owner_",
          "type": "address"
        },
        {
          "internalType": "uint256",
          "name": "index",
          "type": "uint256"
        }
      ],
      "name": "tokenOfOwnerByIndex",
      "outputs": [
        {
          "internalType": "uint256",
          "name": "",
          "type": "uint256"
        }
      ],
      "stateMutability": "view",
      "type": "function"
    },
    {
      "inputs": [
        {
          "internalType": "uint256",
          "name": "tokenId",
          "type": "uint256"
        }
      ],
      "name": "tokenURI",
      "outputs": [
        {
          "internalType": "string",
          "name": "",
          "type": "string"
        }
      ],
      "stateMutability": "view",
      "type": "function"
    },
    {
      "inputs": [
        {
          "internalType": "address",
          "name": "owner_",
          "type": "address"
        }
      ],
      "name": "tokensOfOwner",
      "outputs": [
        {
          "internalType": "uint256[]",
          "name": "",
          "type": "uint256[]"
        }
      ],
      "stateMutability": "view",
      "type": "function"
    },
    {
      "inputs": [],
      "name": "tos",
      "outputs": [
        {
          "internalType": "address",
          "name": "",
          "type": "address"
        }
      ],
      "stateMutability": "view",
      "type": "function"
    },
    {
      "inputs": [],
      "name": "totalSupply",
      "outputs": [
        {
          "internalType": "uint256",
          "name": "",
          "type": "uint256"
        }
      ],
      "stateMutability": "view",
      "type": "function"
    },
    {
      "inputs": [],
      "name": "totalSupplyLocks",
      "outputs": [
        {
          "internalType": "uint256",
          "name": "amount",
          "type": "uint256"
        }
      ],
      "stateMutability": "view",
      "type": "function"
    },
    {
      "inputs": [
        {
          "internalType": "uint256",
          "name": "_timestamp",
          "type": "uint256"
        }
      ],
      "name": "totalSupplyLocksAt",
      "outputs": [
        {
          "internalType": "uint256",
          "name": "amount",
          "type": "uint256"
        }
      ],
      "stateMutability": "view",
      "type": "function"
    },
    {
      "inputs": [
        {
          "internalType": "address",
          "name": "from",
          "type": "address"
        },
        {
          "internalType": "address",
          "name": "to",
          "type": "address"
        },
        {
          "internalType": "uint256",
          "name": "tokenId",
          "type": "uint256"
        }
      ],
      "name": "transferFrom",
      "outputs": [],
      "stateMutability": "nonpayable",
      "type": "function"
    },
    {
      "inputs": [
        {
          "internalType": "address",
          "name": "",
          "type": "address"
        },
        {
          "internalType": "uint256",
          "name": "",
          "type": "uint256"
        }
      ],
      "name": "unlimitedAmountByAccount",
      "outputs": [
        {
          "internalType": "uint32",
          "name": "timestamp",
          "type": "uint32"
        },
        {
          "internalType": "uint256",
          "name": "amount",
          "type": "uint256"
        }
      ],
      "stateMutability": "view",
      "type": "function"
    },
    {
      "inputs": [
        {
          "internalType": "uint256",
          "name": "",
          "type": "uint256"
        },
        {
          "internalType": "uint256",
          "name": "",
          "type": "uint256"
        }
      ],
      "name": "unlimitedHistoryByWeek",
      "outputs": [
        {
          "internalType": "uint32",
          "name": "timestamp",
          "type": "uint32"
        },
        {
          "internalType": "uint256",
          "name": "amount",
          "type": "uint256"
        }
      ],
      "stateMutability": "view",
      "type": "function"
    }
  ],
  "bytecode": "0x60806040523480156200001157600080fd5b50604051620040ea380380620040ea83398101604081905262000034916200021e565b620000466301ffc9a760e01b620000b8565b600580546001600160a01b0319166001600160a01b03861617905560076200006f87826200034e565b5060086200007e86826200034e565b50601592909255601655601480546001600160a01b0390921661010002610100600160a81b0319909216919091179055506200041a915050565b6001600160e01b03198082169003620001175760405162461bcd60e51b815260206004820152601c60248201527f4552433136353a20696e76616c696420696e7465726661636520696400000000604482015260640160405180910390fd5b6001600160e01b0319166000908152600460205260409020805460ff19166001179055565b634e487b7160e01b600052604160045260246000fd5b600082601f8301126200016457600080fd5b81516001600160401b03808211156200018157620001816200013c565b604051601f8301601f19908116603f01168101908282118183101715620001ac57620001ac6200013c565b81604052838152602092508683858801011115620001c957600080fd5b600091505b83821015620001ed5785820183015181830184015290820190620001ce565b600093810190920192909252949350505050565b80516001600160a01b03811681146200021957600080fd5b919050565b60008060008060008060c087890312156200023857600080fd5b86516001600160401b03808211156200025057600080fd5b6200025e8a838b0162000152565b975060208901519150808211156200027557600080fd5b506200028489828a0162000152565b955050620002956040880162000201565b93506060870151925060808701519150620002b360a0880162000201565b90509295509295509295565b600181811c90821680620002d457607f821691505b602082108103620002f557634e487b7160e01b600052602260045260246000fd5b50919050565b601f8211156200034957600081815260208120601f850160051c81016020861015620003245750805b601f850160051c820191505b81811015620003455782815560010162000330565b5050505b505050565b81516001600160401b038111156200036a576200036a6200013c565b62000382816200037b8454620002bf565b84620002fb565b602080601f831160018114620003ba5760008415620003a15750858301515b600019600386901b1c1916600185901b17855562000345565b600085815260208120601f198616915b82811015620003eb57888601518255948401946001909101908401620003ca565b50858210156200040a5787850151600019600388901b60f8161c191681555b5050505050600190811b01905550565b613cc0806200042a6000396000f3fe608060405234801561001057600080fd5b50600436106105ac5760003560e01c80638e9d05bc116102ed578063ba209fcf11610191578063e985e9c5116100ee578063f3ae2415116100a2578063f975d9f31161007c578063f975d9f314610d46578063fd2dcecf14610d59578063fea3d59d14610d6257600080fd5b8063f3ae241514610d0b578063f663171814610d1e578063f88d1fef14610d3e57600080fd5b8063ef27c773116100d3578063ef27c77314610cd2578063f0329f6b14610ce5578063f1e47d3d14610cf857600080fd5b8063e985e9c514610c68578063edc3bc3f14610ca457600080fd5b8063d28d885211610145578063dece68541161012a578063dece685414610c34578063e178ee2014610c42578063e50388a614610c5557600080fd5b8063d28d885214610c24578063de69618014610c2c57600080fd5b8063cdc4717c11610176578063cdc4717c14610bc3578063cea823cd14610bd6578063d0fef6d914610bf957600080fd5b8063ba209fcf14610b90578063c87b56dd14610bb057600080fd5b8063aa5965ae1161024a578063b2bdfa7b116101fe578063b88d4fde116101d8578063b88d4fde14610b40578063b911135f14610b54578063b94419e014610b7d57600080fd5b8063b2bdfa7b14610b07578063b52c05fe14610b1a578063b8355a4b14610b2d57600080fd5b8063aafb2d441161022f578063aafb2d4414610ade578063b01ac59114610af1578063b09f126614610aff57600080fd5b8063aa5965ae14610aab578063aa88652b14610abe57600080fd5b8063a22cb465116102a1578063a726366511610286578063a726366514610a5a578063a7cc013614610a7a578063a898e9fa14610aa357600080fd5b8063a22cb46514610a2c578063a2e9b43914610a3a57600080fd5b806394a509dd116102d257806394a509dd14610a0357806395d89b4114610a11578063993b6ef914610a1957600080fd5b80638e9d05bc146109d757806391ba317a146109fa57600080fd5b80634cf5fbf5116104545780636c0360eb116103b1578063743976a011610365578063872d01091161033f578063872d01091461097657806388290adc1461099857806389f395de146109bf57600080fd5b8063743976a014610932578063796db3121461093a5780638462151c1461096357600080fd5b806370a082311161039657806370a08231146108dd5780637207e743146108f05780637267ad631461090357600080fd5b80636c0360eb146108c05780636ff97f1d146108c857600080fd5b806355f804b3116104085780636352211e116103ed5780636352211e1461087557806363a8fd8914610888578063642cf649146108ad57600080fd5b806355f804b31461084f5780635ebaf1db1461086257600080fd5b80634f6ccce7116104395780634f6ccce7146107f057806350d2a27614610803578063550d01a31461082c57600080fd5b80634cf5fbf5146107ca5780634f3c5f06146107dd57600080fd5b806322e67e711161050d57806334ee79c8116104c157806342842e0e1161049b57806342842e0e14610793578063481c6a75146107a657806349d1e042146107b757600080fd5b806334ee79c81461073f5780633e47a4b11461076d57806341668abe1461078057600080fd5b806328f02c68116104f257806328f02c68146106f65780632f745c591461072457806334067c3c1461073757600080fd5b806322e67e71146106da57806323b872dd146106e357600080fd5b80630bb78ec111610564578063162094c411610549578063162094c41461068a57806317a3a79c1461069d57806318160ddd146106d257600080fd5b80630bb78ec11461066457806310c113601461067757600080fd5b806306fdde031161059557806306fdde0314610610578063081812fc14610625578063095ea7b31461065057600080fd5b806301ffc9a7146105b1578063059f8b16146105f3575b600080fd5b6105de6105bf366004613310565b6001600160e01b03191660009081526004602052604090205460ff1690565b60405190151581526020015b60405180910390f35b610602670de0b6b3a764000081565b6040519081526020016105ea565b610618610db7565b6040516105ea919061337d565b610638610633366004613390565b610e49565b6040516001600160a01b0390911681526020016105ea565b61066261065e3660046133c0565b5050565b005b610618610672366004613390565b610ef4565b610602610685366004613390565b610f8e565b6106626106983660046134a9565b610faf565b6106c06106ab366004613390565b600a6020526000908152604090205460ff1681565b60405160ff90911681526020016105ea565b601254610602565b61060260165481565b6106626106f13660046134f0565b505050565b61070961070436600461352c565b61105c565b604080519384526020840192909252908201526060016105ea565b6106026107323660046133c0565b61109e565b610602611141565b6105de61074d36600461352c565b602560209081526000928352604080842090915290825290205460ff1681565b61060261077b36600461354e565b611184565b61060261078e3660046133c0565b6111f5565b6106626107a13660046134f0565b611269565b6005546001600160a01b0316610638565b6106026107c5366004613390565b61127d565b6106626107d8366004613569565b6112e1565b6106026107eb3660046133c0565b611518565b6106026107fe366004613390565b611549565b610638610811366004613310565b6003602052600090815260409020546001600160a01b031681565b6105de61083a36600461354e565b60026020526000908152604090205460ff1681565b61066261085d36600461359c565b6115d5565b600654610638906001600160a01b031681565b610638610883366004613390565b611680565b6000546105de9074010000000000000000000000000000000000000000900460ff1681565b6106026108bb36600461352c565b61170b565b61061861174c565b6108d061175b565b6040516105ea91906135d1565b6106026108eb36600461354e565b6117b2565b6106026108fe36600461352c565b61184c565b61091661091136600461352c565b611868565b6040805163ffffffff90931683526020830191909152016105ea565b6106186118ab565b610638610948366004613390565b600c602052600090815260409020546001600160a01b031681565b6108d061097136600461354e565b6118b8565b6105de610984366004613390565b602080526000908152604090205460ff1681565b6109a6630a85bd0160e11b81565b6040516001600160e01b031990911681526020016105ea565b6014546106389061010090046001600160a01b031681565b6105de6109e5366004613390565b60226020526000908152604090205460ff1681565b61060260175481565b6109a6635b5e139f60e01b81565b610618611924565b610916610a273660046133c0565b611933565b61066261065e366004613615565b610602610a48366004613390565b60116020526000908152604090205481565b610602610a68366004613390565b60136020526000908152604090205481565b610638610a88366004613390565b600d602052600090815260409020546001600160a01b031681565b6108d061194f565b610602610ab9366004613390565b6119a5565b610ad1610acc366004613390565b6119b5565b6040516105ea9190613651565b610662610aec366004613726565b611b5b565b6109a663780e9d6360e01b81565b610618611cb6565b600054610638906001600160a01b031681565b610602610b2836600461352c565b611cc3565b610602610b3b366004613390565b611e4b565b610662610b4e3660046137d5565b50505050565b610638610b62366004613390565b6001602052600090815260409020546001600160a01b031681565b610602610b8b366004613390565b611e5b565b610ba3610b9e366004613390565b611ee9565b6040516105ea9190613851565b610618610bbe366004613390565b611f79565b610602610bd1366004613390565b6120e2565b6105de610be4366004613390565b601d6020526000908152604090205460ff1681565b610602610c0736600461352c565b602360209081526000928352604080842090915290825290205481565b610618612106565b610602612113565b6109a66380ac58cd60e01b81565b610709610c5036600461352c565b612126565b610602610c633660046138a7565b612142565b6105de610c76366004613915565b6001600160a01b039182166000908152600f6020908152604080832093909416825291909152205460ff1690565b6105de610cb2366004613915565b600f60209081526000928352604080842090915290825290205460ff1681565b610602610ce0366004613390565b6121b5565b600554610638906001600160a01b031681565b610662610d06366004613948565b6121c5565b6105de610d1936600461354e565b6124db565b610602610d2c36600461354e565b600e6020526000908152604090205481565b610ad1612503565b610ba3610d54366004613390565b612532565b61060260155481565b610d97610d70366004613390565b60186020526000908152604090208054600182015460028301546003909301549192909184565b6040805194855260208501939093529183015260608201526080016105ea565b606060078054610dc690613981565b80601f0160208091040260200160405190810160405280929190818152602001828054610df290613981565b8015610e3f5780601f10610e1457610100808354040283529160200191610e3f565b820191906000526020600020905b815481529060010190602001808311610e2257829003601f168201915b5050505050905090565b6000818152600c60205260408120546001600160a01b0316610ed85760405162461bcd60e51b815260206004820152602f60248201527f4c6f636b49644e46543a20617070726f76656420717565727920666f72206e6f60448201527f6e6578697374656e7420746f6b656e000000000000000000000000000000000060648201526084015b60405180910390fd5b506000908152600d60205260409020546001600160a01b031690565b60096020526000908152604090208054610f0d90613981565b80601f0160208091040260200160405190810160405280929190818152602001828054610f3990613981565b8015610f865780601f10610f5b57610100808354040283529160200191610f86565b820191906000526020600020905b815481529060010190602001808311610f6957829003601f168201915b505050505081565b601c8181548110610f9e57600080fd5b600091825260209091200154905081565b6005546001600160a01b03163314610ff75760405162461bcd60e51b815260206004820152600b60248201526a3737ba1036b0b730b3b2b960a91b6044820152606401610ecf565b60145460ff1615156001036110375760405162461bcd60e51b8152602060048201526006602482015265696e2075736560d01b6044820152606401610ecf565b6014805460ff1916600117905561104e82826125ad565b50506014805460ff19169055565b601a602052816000526040600020818154811061107857600080fd5b600091825260209091206003909102018054600182015460029092015490935090915083565b60006110a9836117b2565b82106111035760405162461bcd60e51b8152602060048201526024808201527f4c6f636b49644e46543a206f776e657220696e646578206f7574206f6620626f604482015263756e647360e01b6064820152608401610ecf565b6001600160a01b038316600090815260106020526040902080548390811061112d5761112d6139bb565b906000526020600020015490505b92915050565b601c5460009081036111535750600090565b601c8054611163906001906139e7565b81548110611173576111736139bb565b90600052602060002001545b905090565b600080611190836118b8565b905080516000036111a45750600092915050565b60005b81518110156111ee576111d28282815181106111c5576111c56139bb565b6020026020010151611e5b565b6111dc90846139fa565b92506111e781613a0d565b90506111a7565b5050919050565b600080611201846118b8565b9050805160000361121657600091505061113b565b60005b815181101561126157611245828281518110611237576112376139bb565b60200260200101518561170b565b61124f90846139fa565b925061125a81613a0d565b9050611219565b505092915050565b604080516020810190915260009052505050565b600080600061128b84612638565b915091508161129e575060009392505050565b6000818152601a6020526040812081906112b89087612741565b91509150816112cd5750600095945050505050565b6112d78187612142565b9695505050505050565b808060000361131f5760405162461bcd60e51b815260206004820152600a6024820152697a65726f2076616c756560b01b6044820152606401610ecf565b6000838152600c60205260409020546001600160a01b03166113775760405162461bcd60e51b81526020600482015260116024820152703737b732bc34b9ba32b73a103a37b5b2b760791b6044820152606401610ecf565b6000838152600c60205260409020546001600160a01b0385811691161480156113a857506001600160a01b03841615155b6113e05760405162461bcd60e51b81526020600482015260096024820152683737ba1037bbb732b960b91b6044820152606401610ecf565b60008381526018602090815260409182902082516080810184528154815260018201549281019290925260028101549282019290925260039091015460608201819052156114705760405162461bcd60e51b815260206004820152601860248201527f49742069732077697468647261776e20616c72656164792e00000000000000006044820152606401610ecf565b428160200151116114c35760405162461bcd60e51b815260206004820152601560248201527f4c6f636b2074696d652069732066696e697368656400000000000000000000006044820152606401610ecf565b6114d08585856000612878565b60408051338152602081018690529081018490527fea44bc904f77b1be47cd5b840b00f19b7238f88d7524fa5a86629282bfe6bcc59060600160405180910390a15050505050565b6010602052816000526040600020818154811061153457600080fd5b90600052602060002001600091509150505481565b600061155460125490565b82106115b05760405162461bcd60e51b815260206004820152602560248201527f4c6f636b49644e46543a20676c6f62616c20696e646578206f7574206f6620626044820152646f756e647360d81b6064820152608401610ecf565b601282815481106115c3576115c36139bb565b90600052602060002001549050919050565b6005546001600160a01b0316331461161d5760405162461bcd60e51b815260206004820152600b60248201526a3737ba1036b0b730b3b2b960a91b6044820152606401610ecf565b60145460ff16151560010361165d5760405162461bcd60e51b8152602060048201526006602482015265696e2075736560d01b6044820152606401610ecf565b6014805460ff1916600117905561167381612ccb565b506014805460ff19169055565b6000818152600c60205260408120546001600160a01b03168061113b5760405162461bcd60e51b815260206004820152602c60248201527f4c6f636b49644e46543a206f776e657220717565727920666f72206e6f6e657860448201527f697374656e7420746f6b656e00000000000000000000000000000000000000006064820152608401610ecf565b6000828152601960205260408120819081906117279085612741565b9150915081156117405761173b8185612142565b611743565b60005b95945050505050565b6060600b8054610dc690613981565b60606012805480602002602001604051908101604052809291908181526020018280548015610e3f57602002820191906000526020600020905b815481526020019060010190808311611795575050505050905090565b60006001600160a01b0382166118305760405162461bcd60e51b815260206004820152602d60248201527f4c6f636b49644e46543a2062616c616e636520717565727920666f722074686560448201527f207a65726f2061646472657373000000000000000000000000000000000000006064820152608401610ecf565b506001600160a01b03166000908152600e602052604090205490565b6024602052816000526040600020818154811061153457600080fd5b601b602052816000526040600020818154811061188457600080fd5b60009182526020909120600290910201805460019091015463ffffffff9091169250905082565b600b8054610f0d90613981565b6001600160a01b03811660009081526010602090815260409182902080548351818402810184019094528084526060939283018282801561191857602002820191906000526020600020905b815481526020019060010190808311611904575b50505050509050919050565b606060088054610dc690613981565b601e602052816000526040600020818154811061188457600080fd5b6060601c805480602002602001604051908101604052809291908181526020018280548015610e3f5760200282019190600052602060002090815481526020019060010190808311611795575050505050905090565b60128181548110610f9e57600080fd5b6119d960405180606001604052806000815260200160008152602001600081525090565b8115611b31576000828152601a6020908152604080832080548251818502810185019093528083529192909190849084015b82821015611a5b5783829060005260206000209060030201604051806060016040529081600082015481526020016001820154815260200160028201548152505081526020019060010190611a0b565b5050505090508051600014611b0b5760405180606001604052808260018451611a8491906139e7565b81518110611a9457611a946139bb565b60200260200101516000015181526020018260018451611ab491906139e7565b81518110611ac457611ac46139bb565b60200260200101516020015181526020018260018451611ae491906139e7565b81518110611af457611af46139bb565b602002602001015160400151815250915050919050565b604051806060016040528060008152602001600081526020016000815250915050919050565b6040518060600160405280600081526020016000815260200160008152509050919050565b919050565b6005546001600160a01b03163314611ba35760405162461bcd60e51b815260206004820152600b60248201526a3737ba1036b0b730b3b2b960a91b6044820152606401610ecf565b60145460ff161515600103611be35760405162461bcd60e51b8152602060048201526006602482015265696e2075736560d01b6044820152606401610ecf565b6014805460ff19166001179055815115801590611c01575080518251145b611c4d5760405162461bcd60e51b815260206004820152600c60248201527f77726f6e67206c656e67746800000000000000000000000000000000000000006044820152606401610ecf565b60005b8251811015611ca757611c95838281518110611c6e57611c6e6139bb565b6020026020010151838381518110611c8857611c886139bb565b60200260200101516125ad565b80611c9f81613a0d565b915050611c50565b50506014805460ff1916905550565b60088054610f0d90613981565b60008280600003611d035760405162461bcd60e51b815260206004820152600a6024820152697a65726f2076616c756560b01b6044820152606401610ecf565b8280600003611d415760405162461bcd60e51b815260206004820152600a6024820152697a65726f2076616c756560b01b6044820152606401610ecf565b60155460009080611d528188613a26565b611d5c90426139fa565b611d669190613a3d565b611d709190613a26565b601654909150611d8042836139e7565b1115611dce5760405162461bcd60e51b815260206004820152601b60248201527f4d617820756e6c6f636b2074696d6520697320657863656564656400000000006044820152606401610ecf565b601760008154611ddd90613a0d565b91829055509350611dee3385612cd7565b611dfa33858884612878565b6040805133815260208101869052908101879052606081018290527f71fc552ee832a9004ea0bdb07cb6dd9d641eb2cb53b3cfe88c8fdcff886734a09060800160405180910390a150505092915050565b601f8181548110610f9e57600080fd5b6000818152601960205260408120548015611edf576000838152601960205260409020611eda90611e8d6001846139e7565b81548110611e9d57611e9d6139bb565b9060005260206000209060030201604051806060016040529081600082015481526020016001820154815260200160028201548152505042612142565b611ee2565b60005b9392505050565b606060196000838152602001908152602001600020805480602002602001604051908101604052809291908181526020016000905b82821015611f6e5783829060005260206000209060030201604051806060016040529081600082015481526020016001820154815260200160028201548152505081526020019060010190611f1e565b505050509050919050565b6000818152600c60205260409020546060906001600160a01b0316611fe05760405162461bcd60e51b815260206004820152601c60248201527f4c6f636b49644e46543a206e6f6e6578697374656e7420746f6b656e000000006044820152606401610ecf565b60008281526009602052604081208054611ff990613981565b80601f016020809104026020016040519081016040528092919081815260200182805461202590613981565b80156120725780601f1061204757610100808354040283529160200191612072565b820191906000526020600020905b81548152906001019060200180831161205557829003601f168201915b50505050509050600061208361174c565b90508051600003612095575092915050565b8151156120c75780826040516020016120af929190613a5f565b60405160208183030381529060405292505050919050565b806120d185612cf1565b6040516020016120af929190613a5f565b6015546000906120f28180613a3d565b6120fc9190613a26565b61113b90836139fa565b60078054610f0d90613981565b600061117f612120612503565b42612142565b6019602052816000526040600020818154811061107857600080fd5b600082604001518210156121585750600061113b565b600083604001518361216a91906139e7565b84516121769190613a8e565b9050670de0b6b3a7640000818560200151136121935760006121a3565b8185602001516121a39190613abe565b6121ad9190613a3d565b949350505050565b60218181548110610f9e57600080fd5b811515806121d257508015155b61220b5760405162461bcd60e51b815260206004820152600a6024820152697a65726f2076616c756560b01b6044820152606401610ecf565b6000838152600c60205260409020546001600160a01b03166122635760405162461bcd60e51b81526020600482015260116024820152703737b732bc34b9ba32b73a103a37b5b2b760791b6044820152606401610ecf565b6000838152600c60205260409020546001600160a01b03858116911614801561229457506001600160a01b03841615155b6122cc5760405162461bcd60e51b81526020600482015260096024820152683737ba1037bbb732b960b91b6044820152606401610ecf565b600083815260186020908152604091829020825160808101845281548082526001830154938201939093526002820154938101939093526003015460608301526123445760405162461bcd60e51b81526020600482015260096024820152681b9bdd08195e1a5cdd60ba1b6044820152606401610ecf565b6060810151156123965760405162461bcd60e51b815260206004820152601860248201527f49742069732077697468647261776e20616c72656164792e00000000000000006044820152606401610ecf565b428160200151116123e95760405162461bcd60e51b815260206004820152601560248201527f4c6f636b2074696d652069732066696e697368656400000000000000000000006044820152606401610ecf565b6000821561247f57601554806123ff8186613a26565b846020015161240e91906139fa565b6124189190613a3d565b6124229190613a26565b60165490915061243242836139e7565b1061247f5760405162461bcd60e51b815260206004820152601b60248201527f4d617820756e6c6f636b2074696d6520697320657863656564656400000000006044820152606401610ecf565b61248b86868684612878565b6040805133815260208101879052908101859052606081018290527f5f892c194d8c6e1843b07f17cf9f74a948c12db2d661de24241b1231715bc79f9060800160405180910390a1505050505050565b6005546000906001600160a01b038084169116036124fb57506001919050565b506000919050565b61252760405180606001604052806000815260200160008152602001600081525090565b61117f610acc611141565b6000818152601a60209081526040808320805482518185028101850190935280835260609492939192909184018215611f6e5783829060005260206000209060030201604051806060016040529081600082015481526020016001820154815260200160028201548152505081526020019060010190611f1e565b6000828152600c60205260409020546001600160a01b03166126205760405162461bcd60e51b815260206004820152602660248201527f546974616e4e46543a2055524920736574206f66206e6f6e6578697374656e74604482015265103a37b5b2b760d11b6064820152608401610ecf565b60008281526009602052604090206106f18282613b33565b601c54601554600091829182908061265081886139fa565b61265a9190613a26565b6126649190613a3d565b90508160000361267b575060009485945092505050565b6000825b8061268b8360016139fa565b10156126e1576000600261269f83856139fa565b6126a99190613a3d565b905083601c82815481106126bf576126bf6139bb565b9060005260206000200154116126d7578092506126db565b8091505b5061267f565b82601c83815481106126f5576126f56139bb565b906000526020600020015411612732576001601c838154811061271a5761271a6139bb565b90600052602060002001549550955050505050915091565b50600096879650945050505050565b600061276760405180606001604052806000815260200160008152602001600081525090565b83546000036127795760009150612871565b83546000905b8061278b8360016139fa565b10156127e7576000600261279f83856139fa565b6127a99190613a3d565b9050858782815481106127be576127be6139bb565b906000526020600020906003020160020154116127dd578092506127e1565b8091505b5061277f565b848683815481106127fa576127fa6139bb565b9060005260206000209060030201600201541161286a576001868381548110612825576128256139bb565b90600052602060002090600302018060405180606001604052908160008201548152602001600182015481526020016002820154815250509050935093505050612871565b6000935050505b9250929050565b60145460ff1615156001036128b85760405162461bcd60e51b8152602060048201526006602482015265696e2075736560d01b6044820152606401610ecf565b6014805460ff19166001908117909155600084815260186020908152604080832081516080808201845282548252958201548185019081526002830154828501908152600390930154606083015283519687018452815187525193860193909352519193919082019061292c9087906139fa565b815260006020909101529050821561294657602081018390525b8051600003612953574281525b600085815260186020908152604080832084518155828501516001820155818501516002820155606080860151600390920191909155601983528184205482519182018352848252928101849052908101929092529060006040518060600160405280601654670de0b6b3a764000087604001516129d19190613a26565b6129db9190613a3d565b8152602001600081526020014281525090504284602001516129fd91906139e7565b8151612a099190613a8e565b60208201528215612a7b576000888152601960205260409020612a2d6001856139e7565b81548110612a3d57612a3d6139bb565b906000526020600020906003020160405180606001604052908160008201548152602001600182015481526020016002820154815250509150612a9b565b604051806060016040528060008152602001600081526020014281525091505b6000604051806060016040528084600001518460000151612abc9190613abe565b815260200184602001518460200151612ad59190613abe565b815242602091820181905260008c81526019835260408082208054600181810183559184528584208951600390920201908155948801519085015586015160029093019290925591925090612b29906120e2565b6000818152601a6020908152604080832054815160608101835284815292830184905290820183905292935090829003612b6c57612b65612503565b9050612bcf565b6000838152601a60205260409020612b856001846139e7565b81548110612b9557612b956139bb565b9060005260206000209060030201604051806060016040529081600082015481526020016001820154815260200160028201548152505090505b6000604051806060016040528086600001518460000151612bf09190613bf3565b815260200186602001518460200151612c099190613bf3565b8152426020918201526000868152601a825260408082208054600181810183559184528484208651600390920201908155858501519181019190915581850151600290910155878252601d909252205490915060ff16612cb1576000848152601d60205260408120805460ff19166001908117909155601c805491820181559091527f0e4562a10381dec21b205ed72637e6b1b523bdd0e4d4d50af5cd23dd4500a211018490555b50506014805460ff19169055505050505050505050505050565b600b61065e8282613b33565b61065e828260405180602001604052806000815250612d91565b60606000612cfe83612ee1565b600101905060008167ffffffffffffffff811115612d1e57612d1e6133ea565b6040519080825280601f01601f191660200182016040528015612d48576020820181803683370190505b5090508181016020015b600019017f3031323334353637383961626364656600000000000000000000000000000000600a86061a8153600a8504945084612d5257509392505050565b81600003612de15760405162461bcd60e51b815260206004820152601360248201527f6e6f7420616c6c6f77656420746f6b656e4964000000000000000000000000006044820152606401610ecf565b612deb8383612fc3565b6001600160a01b038316600090815260106020908152604080832080548685526011845282852081905560018082018355918552838520018690556012805487865260139094529184208390558201815582527fbb8a6a4669ba250d26cd7a459eca9d215f8307e33aebe50379bc5a3617ec344401839055612e6f90848484613103565b6106f15760405162461bcd60e51b815260206004820152603560248201527f4c6f636b49644e46543a207472616e7366657220746f206e6f6e20455243373260448201527f31526563656976657220696d706c656d656e74657200000000000000000000006064820152608401610ecf565b6000807a184f03e93ff9f4daa797ed6e38ed64bf6a1f0100000000000000008310612f2a577a184f03e93ff9f4daa797ed6e38ed64bf6a1f010000000000000000830492506040015b6d04ee2d6d415b85acef81000000008310612f56576d04ee2d6d415b85acef8100000000830492506020015b662386f26fc100008310612f7457662386f26fc10000830492506010015b6305f5e1008310612f8c576305f5e100830492506008015b6127108310612fa057612710830492506004015b60648310612fb2576064830492506002015b600a831061113b5760010192915050565b6001600160a01b0382166130255760405162461bcd60e51b815260206004820152602360248201527f4c6f636b49644e46543a206d696e7420746f20746865207a65726f206164647260448201526265737360e81b6064820152608401610ecf565b6000818152600c60205260409020546001600160a01b03161561308a5760405162461bcd60e51b815260206004820152601f60248201527f4c6f636b49644e46543a20746f6b656e20616c7265616479206d696e746564006044820152606401610ecf565b6000818152600c60209081526040808320805473ffffffffffffffffffffffffffffffffffffffff19166001600160a01b038716908117909155808452600e90925280832080546001019055518392907fddf252ad1be2c89b69c2b068fc378daa952ba7f163c4a11628f55a4df523b3ef908290a45050565b60006001600160a01b0384163b61311c575060016121ad565b600061319d63150b7a0260e01b338887876040516024016131409493929190613c13565b604051602081830303815290604052906001600160e01b0319166020820180516001600160e01b038381831617835250505050604051806060016040528060358152602001613c7f603591396001600160a01b03881691906131d4565b90506000818060200190518101906131b59190613c45565b6001600160e01b031916630a85bd0160e11b1492505050949350505050565b60606121ad848460008585600080866001600160a01b031685876040516131fb9190613c62565b60006040518083038185875af1925050503d8060008114613238576040519150601f19603f3d011682016040523d82523d6000602084013e61323d565b606091505b509150915061324e87838387613259565b979650505050505050565b606083156132c85782516000036132c1576001600160a01b0385163b6132c15760405162461bcd60e51b815260206004820152601d60248201527f416464726573733a2063616c6c20746f206e6f6e2d636f6e74726163740000006044820152606401610ecf565b50816121ad565b6121ad83838151156132dd5781518083602001fd5b8060405162461bcd60e51b8152600401610ecf919061337d565b6001600160e01b03198116811461330d57600080fd5b50565b60006020828403121561332257600080fd5b8135611ee2816132f7565b60005b83811015613348578181015183820152602001613330565b50506000910152565b6000815180845261336981602086016020860161332d565b601f01601f19169290920160200192915050565b602081526000611ee26020830184613351565b6000602082840312156133a257600080fd5b5035919050565b80356001600160a01b0381168114611b5657600080fd5b600080604083850312156133d357600080fd5b6133dc836133a9565b946020939093013593505050565b634e487b7160e01b600052604160045260246000fd5b604051601f8201601f1916810167ffffffffffffffff81118282101715613429576134296133ea565b604052919050565b600067ffffffffffffffff83111561344b5761344b6133ea565b61345e601f8401601f1916602001613400565b905082815283838301111561347257600080fd5b828260208301376000602084830101529392505050565b600082601f83011261349a57600080fd5b611ee283833560208501613431565b600080604083850312156134bc57600080fd5b82359150602083013567ffffffffffffffff8111156134da57600080fd5b6134e685828601613489565b9150509250929050565b60008060006060848603121561350557600080fd5b61350e846133a9565b925061351c602085016133a9565b9150604084013590509250925092565b6000806040838503121561353f57600080fd5b50508035926020909101359150565b60006020828403121561356057600080fd5b611ee2826133a9565b60008060006060848603121561357e57600080fd5b613587846133a9565b95602085013595506040909401359392505050565b6000602082840312156135ae57600080fd5b813567ffffffffffffffff8111156135c557600080fd5b6121ad84828501613489565b6020808252825182820181905260009190848201906040850190845b81811015613609578351835292840192918401916001016135ed565b50909695505050505050565b6000806040838503121561362857600080fd5b613631836133a9565b91506020830135801515811461364657600080fd5b809150509250929050565b8151815260208083015190820152604080830151908201526060810161113b565b600067ffffffffffffffff82111561368c5761368c6133ea565b5060051b60200190565b600082601f8301126136a757600080fd5b813560206136bc6136b783613672565b613400565b82815260059290921b840181019181810190868411156136db57600080fd5b8286015b8481101561371b57803567ffffffffffffffff8111156136ff5760008081fd5b61370d8986838b0101613489565b8452509183019183016136df565b509695505050505050565b6000806040838503121561373957600080fd5b823567ffffffffffffffff8082111561375157600080fd5b818501915085601f83011261376557600080fd5b813560206137756136b783613672565b82815260059290921b8401810191818101908984111561379457600080fd5b948201945b838610156137b257853582529482019490820190613799565b965050860135925050808211156137c857600080fd5b506134e685828601613696565b600080600080608085870312156137eb57600080fd5b6137f4856133a9565b9350613802602086016133a9565b925060408501359150606085013567ffffffffffffffff81111561382557600080fd5b8501601f8101871361383657600080fd5b61384587823560208401613431565b91505092959194509250565b6020808252825182820181905260009190848201906040850190845b81811015613609576138948385518051825260208082015190830152604090810151910152565b928401926060929092019160010161386d565b60008082840360808112156138bb57600080fd5b60608112156138c957600080fd5b506040516060810181811067ffffffffffffffff821117156138ed576138ed6133ea565b6040908152843582526020808601359083015284810135908201529460609093013593505050565b6000806040838503121561392857600080fd5b613931836133a9565b915061393f602084016133a9565b90509250929050565b6000806000806080858703121561395e57600080fd5b613967856133a9565b966020860135965060408601359560600135945092505050565b600181811c9082168061399557607f821691505b6020821081036139b557634e487b7160e01b600052602260045260246000fd5b50919050565b634e487b7160e01b600052603260045260246000fd5b634e487b7160e01b600052601160045260246000fd5b8181038181111561113b5761113b6139d1565b8082018082111561113b5761113b6139d1565b600060018201613a1f57613a1f6139d1565b5060010190565b808202811582820484141761113b5761113b6139d1565b600082613a5a57634e487b7160e01b600052601260045260246000fd5b500490565b60008351613a7181846020880161332d565b835190830190613a8581836020880161332d565b01949350505050565b80820260008212600160ff1b84141615613aaa57613aaa6139d1565b818105831482151761113b5761113b6139d1565b8181036000831280158383131683831282161715613ade57613ade6139d1565b5092915050565b601f8211156106f157600081815260208120601f850160051c81016020861015613b0c5750805b601f850160051c820191505b81811015613b2b57828155600101613b18565b505050505050565b815167ffffffffffffffff811115613b4d57613b4d6133ea565b613b6181613b5b8454613981565b84613ae5565b602080601f831160018114613b965760008415613b7e5750858301515b600019600386901b1c1916600185901b178555613b2b565b600085815260208120601f198616915b82811015613bc557888601518255948401946001909101908401613ba6565b5085821015613be35787850151600019600388901b60f8161c191681555b5050505050600190811b01905550565b8082018281126000831280158216821582161715611261576112616139d1565b60006001600160a01b038087168352808616602084015250836040830152608060608301526112d76080830184613351565b600060208284031215613c5757600080fd5b8151611ee2816132f7565b60008251613c7481846020870161332d565b919091019291505056fe4c6f636b49644e46543a207472616e7366657220746f206e6f6e20455243373231526563656976657220696d706c656d656e746572a164736f6c6343000812000a",
  "linkReferences": {},
  "deployedLinkReferences": {}
}