{
  "_format": "hh-sol-artifact-1",
  "contractName": "L1StosToL2Storage",
  "sourceName": "contracts/L1/L1StosToL2Storage.sol",
  "abi": [
    {
      "inputs": [],
      "name": "_manager",
      "outputs": [
        {
          "internalType": "address",
          "name": "",
          "type": "address"
        }
      ],
      "stateMutability": "view",
      "type": "function"
    },
    {
      "inputs": [],
      "name": "addressManager",
      "outputs": [
        {
          "internalType": "address",
          "name": "",
          "type": "address"
        }
      ],
      "stateMutability": "view",
      "type": "function"
    },
    {
      "inputs": [],
      "name": "l2Register",
      "outputs": [
        {
          "internalType": "address",
          "name": "",
          "type": "address"
        }
      ],
      "stateMutability": "view",
      "type": "function"
    },
    {
      "inputs": [],
      "name": "lockTos",
      "outputs": [
        {
          "internalType": "address",
          "name": "",
          "type": "address"
        }
      ],
      "stateMutability": "view",
      "type": "function"
    },
    {
      "inputs": [],
      "name": "maxLockCountPerRegister",
      "outputs": [
        {
          "internalType": "uint256",
          "name": "",
          "type": "uint256"
        }
      ],
      "stateMutability": "view",
      "type": "function"
    },
    {
      "inputs": [
        {
          "internalType": "uint256",
          "name": "",
          "type": "uint256"
        }
      ],
      "name": "syncInfoOfLockId",
      "outputs": [
        {
          "internalType": "int256",
          "name": "slope",
          "type": "int256"
        },
        {
          "internalType": "int256",
          "name": "bias",
          "type": "int256"
        },
        {
          "internalType": "uint32",
          "name": "timestamp",
          "type": "uint32"
        },
        {
          "internalType": "uint32",
          "name": "syncTime",
          "type": "uint32"
        }
      ],
      "stateMutability": "view",
      "type": "function"
    }
  ],
  "bytecode": "0x608060405234801561001057600080fd5b5061018a806100206000396000f3fe608060405234801561001057600080fd5b50600436106100725760003560e01c8063b849355611610050578063b8493556146100cd578063be60b214146100e4578063f0329f6b1461015157600080fd5b80633ab76e9f14610077578063472d1f71146100a75780637aa7794a146100ba575b600080fd5b60025461008a906001600160a01b031681565b6040516001600160a01b0390911681526020015b60405180910390f35b60045461008a906001600160a01b031681565b60035461008a906001600160a01b031681565b6100d660005481565b60405190815260200161009e565b6101256100f2366004610164565b60056020526000908152604090208054600182015460029092015490919063ffffffff8082169164010000000090041684565b60408051948552602085019390935263ffffffff9182169284019290925216606082015260800161009e565b60015461008a906001600160a01b031681565b60006020828403121561017657600080fd5b503591905056fea164736f6c6343000812000a",
  "linkReferences": {},
  "deployedLinkReferences": {}
}