{
  "_format": "hh-sol-artifact-1",
  "contractName": "L2TokenFactory",
  "sourceName": "contracts/stos/factory/LayerLockIdFactory.sol",
  "abi": [
    {
      "inputs": [],
      "stateMutability": "nonpayable",
      "type": "constructor"
    },
    {
      "anonymous": false,
      "inputs": [
        {
          "indexed": true,
          "internalType": "bytes32",
          "name": "role",
          "type": "bytes32"
        },
        {
          "indexed": true,
          "internalType": "bytes32",
          "name": "previousAdminRole",
          "type": "bytes32"
        },
        {
          "indexed": true,
          "internalType": "bytes32",
          "name": "newAdminRole",
          "type": "bytes32"
        }
      ],
      "name": "RoleAdminChanged",
      "type": "event"
    },
    {
      "anonymous": false,
      "inputs": [
        {
          "indexed": true,
          "internalType": "bytes32",
          "name": "role",
          "type": "bytes32"
        },
        {
          "indexed": true,
          "internalType": "address",
          "name": "account",
          "type": "address"
        },
        {
          "indexed": true,
          "internalType": "address",
          "name": "sender",
          "type": "address"
        }
      ],
      "name": "RoleGranted",
      "type": "event"
    },
    {
      "anonymous": false,
      "inputs": [
        {
          "indexed": true,
          "internalType": "bytes32",
          "name": "role",
          "type": "bytes32"
        },
        {
          "indexed": true,
          "internalType": "address",
          "name": "account",
          "type": "address"
        },
        {
          "indexed": true,
          "internalType": "address",
          "name": "sender",
          "type": "address"
        }
      ],
      "name": "RoleRevoked",
      "type": "event"
    },
    {
      "anonymous": false,
      "inputs": [
        {
          "indexed": true,
          "internalType": "address",
          "name": "l1Token",
          "type": "address"
        },
        {
          "indexed": true,
          "internalType": "address",
          "name": "l2Token",
          "type": "address"
        }
      ],
      "name": "StandardL2TokenCreated",
      "type": "event"
    },
    {
      "inputs": [],
      "name": "ADMIN_ROLE",
      "outputs": [
        {
          "internalType": "bytes32",
          "name": "",
          "type": "bytes32"
        }
      ],
      "stateMutability": "view",
      "type": "function"
    },
    {
      "inputs": [],
      "name": "DEFAULT_ADMIN_ROLE",
      "outputs": [
        {
          "internalType": "bytes32",
          "name": "",
          "type": "bytes32"
        }
      ],
      "stateMutability": "view",
      "type": "function"
    },
    {
      "inputs": [],
      "name": "POLICY_ROLE",
      "outputs": [
        {
          "internalType": "bytes32",
          "name": "",
          "type": "bytes32"
        }
      ],
      "stateMutability": "view",
      "type": "function"
    },
    {
      "inputs": [
        {
          "internalType": "address",
          "name": "account",
          "type": "address"
        }
      ],
      "name": "addAdmin",
      "outputs": [],
      "stateMutability": "nonpayable",
      "type": "function"
    },
    {
      "inputs": [
        {
          "internalType": "address",
          "name": "projectOwner",
          "type": "address"
        },
        {
          "internalType": "address",
          "name": "_l1Token",
          "type": "address"
        },
        {
          "internalType": "string",
          "name": "_name",
          "type": "string"
        },
        {
          "internalType": "string",
          "name": "_symbol",
          "type": "string"
        },
        {
          "internalType": "string",
          "name": "projectName",
          "type": "string"
        }
      ],
      "name": "createL2Token",
      "outputs": [],
      "stateMutability": "nonpayable",
      "type": "function"
    },
    {
      "inputs": [
        {
          "internalType": "bytes32",
          "name": "role",
          "type": "bytes32"
        }
      ],
      "name": "getRoleAdmin",
      "outputs": [
        {
          "internalType": "bytes32",
          "name": "",
          "type": "bytes32"
        }
      ],
      "stateMutability": "view",
      "type": "function"
    },
    {
      "inputs": [
        {
          "internalType": "bytes32",
          "name": "role",
          "type": "bytes32"
        },
        {
          "internalType": "address",
          "name": "account",
          "type": "address"
        }
      ],
      "name": "grantRole",
      "outputs": [],
      "stateMutability": "nonpayable",
      "type": "function"
    },
    {
      "inputs": [
        {
          "internalType": "bytes32",
          "name": "role",
          "type": "bytes32"
        },
        {
          "internalType": "address",
          "name": "account",
          "type": "address"
        }
      ],
      "name": "hasRole",
      "outputs": [
        {
          "internalType": "bool",
          "name": "",
          "type": "bool"
        }
      ],
      "stateMutability": "view",
      "type": "function"
    },
    {
      "inputs": [
        {
          "internalType": "address",
          "name": "account",
          "type": "address"
        }
      ],
      "name": "isAdmin",
      "outputs": [
        {
          "internalType": "bool",
          "name": "",
          "type": "bool"
        }
      ],
      "stateMutability": "view",
      "type": "function"
    },
    {
      "inputs": [],
      "name": "l2ProjectManager",
      "outputs": [
        {
          "internalType": "address",
          "name": "",
          "type": "address"
        }
      ],
      "stateMutability": "view",
      "type": "function"
    },
    {
      "inputs": [
        {
          "internalType": "address",
          "name": "account",
          "type": "address"
        }
      ],
      "name": "removeAdmin",
      "outputs": [],
      "stateMutability": "nonpayable",
      "type": "function"
    },
    {
      "inputs": [
        {
          "internalType": "bytes32",
          "name": "role",
          "type": "bytes32"
        },
        {
          "internalType": "address",
          "name": "account",
          "type": "address"
        }
      ],
      "name": "renounceRole",
      "outputs": [],
      "stateMutability": "nonpayable",
      "type": "function"
    },
    {
      "inputs": [
        {
          "internalType": "bytes32",
          "name": "role",
          "type": "bytes32"
        },
        {
          "internalType": "address",
          "name": "account",
          "type": "address"
        }
      ],
      "name": "revokeRole",
      "outputs": [],
      "stateMutability": "nonpayable",
      "type": "function"
    },
    {
      "inputs": [
        {
          "internalType": "address",
          "name": "_l2ProjectManager",
          "type": "address"
        }
      ],
      "name": "setL2ProjectManager",
      "outputs": [],
      "stateMutability": "nonpayable",
      "type": "function"
    },
    {
      "inputs": [
        {
          "internalType": "bytes4",
          "name": "interfaceId",
          "type": "bytes4"
        }
      ],
      "name": "supportsInterface",
      "outputs": [
        {
          "internalType": "bool",
          "name": "",
          "type": "bool"
        }
      ],
      "stateMutability": "view",
      "type": "function"
    },
    {
      "inputs": [
        {
          "internalType": "address",
          "name": "newAdmin",
          "type": "address"
        }
      ],
      "name": "transferAdmin",
      "outputs": [],
      "stateMutability": "nonpayable",
      "type": "function"
    }
  ],
  "bytecode": "0x608060405234801561001057600080fd5b5061002a6000805160206200241983398151915280610048565b6100436000805160206200241983398151915233610093565b61013f565b600082815260208190526040808220600101805490849055905190918391839186917fbd79b86ffe0ab8e8776151514217cd7cacd52c909f66475c3af44e129f0b00ff9190a4505050565b61009d82826100a1565b5050565b6000828152602081815260408083206001600160a01b038516845290915290205460ff1661009d576000828152602081815260408083206001600160a01b03851684529091529020805460ff191660011790556100fb3390565b6001600160a01b0316816001600160a01b0316837f2f8788117e7eff1d82e926ec794901d17c78024a50270940304540a733656f0d60405160405180910390a45050565b6122ca806200014f6000396000f3fe60806040523480156200001157600080fd5b5060043610620001155760003560e01c80637048027511620000a3578063a217fddf116200006e578063a217fddf14620002be578063a418234314620002c7578063c6317f8c14620002de578063d547741f14620002f557600080fd5b806370480275146200022e57806375829def146200024557806375b238fc146200025c57806391d14854146200028457600080fd5b806324d7806c11620000e457806324d7806c14620001bc5780632f2ff15d14620001d357806336568abe14620001ea57806352351e85146200020157600080fd5b806301ffc9a7146200011a5780631785f53c146200014657806322985246146200015f578063248a9ca31462000196575b600080fd5b620001316200012b36600462000e6c565b6200030c565b60405190151581526020015b60405180910390f35b6200015d6200015736600462000eb5565b62000344565b005b620001877ffb5864e8ff833c3cb2d2d08505e82ff02a43554c74a35d4f5a64e8526127831181565b6040519081526020016200013d565b62000187620001a736600462000ed3565b60009081526020819052604090206001015490565b62000131620001cd36600462000eb5565b620003db565b6200015d620001e436600462000eed565b6200041c565b6200015d620001fb36600462000eed565b6200044a565b60015462000215906001600160a01b031681565b6040516001600160a01b0390911681526020016200013d565b6200015d6200023f36600462000eb5565b620004da565b6200015d6200025636600462000eb5565b6200056a565b620001877fdf8b4c520ffe197c5343c6f5aec59570151ef9a492f2c624fd45ddde6135ec4281565b620001316200029536600462000eed565b6000918252602082815260408084206001600160a01b0393909316845291905290205460ff1690565b62000187600081565b6200015d620002d836600462000eb5565b620006d8565b6200015d620002ef36600462000f68565b620007f2565b6200015d6200030636600462000eed565b62000aac565b60006001600160e01b03198216637965db0b60e01b14806200033e57506301ffc9a760e01b6001600160e01b03198316145b92915050565b6200034f33620003db565b620003ac5760405162461bcd60e51b815260206004820152602260248201527f41636365737369626c653a2043616c6c6572206973206e6f7420616e2061646d60448201526134b760f11b60648201526084015b60405180910390fd5b620003d87fdf8b4c520ffe197c5343c6f5aec59570151ef9a492f2c624fd45ddde6135ec42826200044a565b50565b6001600160a01b03811660009081527f5cbfc8ee58ca47855df7bcf648dd304ddb6b932f9b87878bdf6318d7ec7ee5b7602052604081205460ff166200033e565b600082815260208190526040902060010154620004398162000ad5565b62000445838362000ae1565b505050565b6001600160a01b0381163314620004ca5760405162461bcd60e51b815260206004820152602f60248201527f416363657373436f6e74726f6c3a2063616e206f6e6c792072656e6f756e636560448201527f20726f6c657320666f722073656c6600000000000000000000000000000000006064820152608401620003a3565b620004d6828262000b81565b5050565b620004e533620003db565b6200053e5760405162461bcd60e51b815260206004820152602260248201527f41636365737369626c653a2043616c6c6572206973206e6f7420616e2061646d60448201526134b760f11b6064820152608401620003a3565b620003d87fdf8b4c520ffe197c5343c6f5aec59570151ef9a492f2c624fd45ddde6135ec42826200041c565b6200057533620003db565b620005ce5760405162461bcd60e51b815260206004820152602260248201527f41636365737369626c653a2043616c6c6572206973206e6f7420616e2061646d60448201526134b760f11b6064820152608401620003a3565b6001600160a01b038116620006265760405162461bcd60e51b815260206004820152601860248201527f41636365737369626c653a207a65726f206164647265737300000000000000006044820152606401620003a3565b6001600160a01b0381163303620006805760405162461bcd60e51b815260206004820152601660248201527f41636365737369626c653a2073616d652061646d696e000000000000000000006044820152606401620003a3565b620006ac7fdf8b4c520ffe197c5343c6f5aec59570151ef9a492f2c624fd45ddde6135ec42826200041c565b620003d87fdf8b4c520ffe197c5343c6f5aec59570151ef9a492f2c624fd45ddde6135ec42336200044a565b806001600160a01b038116620007165760405162461bcd60e51b81526020600482015260026024820152612d1960f11b6044820152606401620003a3565b6200072133620003db565b6200077a5760405162461bcd60e51b815260206004820152602260248201527f41636365737369626c653a2043616c6c6572206973206e6f7420616e2061646d60448201526134b760f11b6064820152608401620003a3565b6001546001600160a01b03808416911603620007c25760405162461bcd60e51b8152600401620003a39060208082526004908201526373616d6560e01b604082015260600190565b506001805473ffffffffffffffffffffffffffffffffffffffff19166001600160a01b0392909216919091179055565b6001600160a01b0387166200084a5760405162461bcd60e51b815260206004820152601d60248201527f4d7573742070726f76696465204c3120746f6b656e20616464726573730000006044820152606401620003a3565b6001600160a01b038816620008a25760405162461bcd60e51b815260206004820152601160248201527f7a65726f2070726f6a6563744f776e65720000000000000000000000000000006044820152606401620003a3565b6000859003620008f55760405162461bcd60e51b815260206004820152600c60248201527f6e616d65206973206e756c6c00000000000000000000000000000000000000006044820152606401620003a3565b6000839003620009485760405162461bcd60e51b815260206004820152600e60248201527f73796d626f6c206973206e756c6c0000000000000000000000000000000000006044820152606401620003a3565b60007342000000000000000000000000000000000000108888888888604051620009729062000e5e565b62000983969594939291906200105a565b604051809103906000f080158015620009a0573d6000803e3d6000fd5b5090506001600160a01b038116620009fb5760405162461bcd60e51b815260206004820152600c60248201527f7a65726f206c32546f6b656e00000000000000000000000000000000000000006044820152606401620003a3565b6001546040516326777bb360e01b81526001600160a01b03909116906326777bb39062000a35908c908c90869089908990600401620010ab565b600060405180830381600087803b15801562000a5057600080fd5b505af115801562000a65573d6000803e3d6000fd5b50506040516001600160a01b0380851693508b1691507fceeb8e7d520d7f3b65fc11a262b91066940193b05d4f93df07cfdced0eb551cf90600090a3505050505050505050565b60008281526020819052604090206001015462000ac98162000ad5565b62000445838362000b81565b620003d8813362000c01565b6000828152602081815260408083206001600160a01b038516845290915290205460ff16620004d6576000828152602081815260408083206001600160a01b03851684529091529020805460ff1916600117905562000b3d3390565b6001600160a01b0316816001600160a01b0316837f2f8788117e7eff1d82e926ec794901d17c78024a50270940304540a733656f0d60405160405180910390a45050565b6000828152602081815260408083206001600160a01b038516845290915290205460ff1615620004d6576000828152602081815260408083206001600160a01b0385168085529252808320805460ff1916905551339285917ff6391f5c32d9c69d2a47ea670b442974b53935d1edc7fd64eb21e047a839171b9190a45050565b6000828152602081815260408083206001600160a01b038516845290915290205460ff16620004d65762000c358162000c7d565b62000c4283602062000c90565b60405160200162000c5592919062001113565b60408051601f198184030181529082905262461bcd60e51b8252620003a39160040162001198565b60606200033e6001600160a01b03831660145b6060600062000ca1836002620011e3565b62000cae906002620011fd565b67ffffffffffffffff81111562000cc95762000cc962001213565b6040519080825280601f01601f19166020018201604052801562000cf4576020820181803683370190505b509050600360fc1b8160008151811062000d125762000d1262001229565b60200101906001600160f81b031916908160001a905350600f60fb1b8160018151811062000d445762000d4462001229565b60200101906001600160f81b031916908160001a905350600062000d6a846002620011e3565b62000d77906001620011fd565b90505b600181111562000e06577f303132333435363738396162636465660000000000000000000000000000000085600f166010811062000dbc5762000dbc62001229565b1a60f81b82828151811062000dd55762000dd562001229565b60200101906001600160f81b031916908160001a90535060049490941c9362000dfe816200123f565b905062000d7a565b50831562000e575760405162461bcd60e51b815260206004820181905260248201527f537472696e67733a20686578206c656e67746820696e73756666696369656e746044820152606401620003a3565b9392505050565b611064806200125a83390190565b60006020828403121562000e7f57600080fd5b81356001600160e01b03198116811462000e5757600080fd5b80356001600160a01b038116811462000eb057600080fd5b919050565b60006020828403121562000ec857600080fd5b62000e578262000e98565b60006020828403121562000ee657600080fd5b5035919050565b6000806040838503121562000f0157600080fd5b8235915062000f136020840162000e98565b90509250929050565b60008083601f84011262000f2f57600080fd5b50813567ffffffffffffffff81111562000f4857600080fd5b60208301915083602082850101111562000f6157600080fd5b9250929050565b60008060008060008060008060a0898b03121562000f8557600080fd5b62000f908962000e98565b975062000fa060208a0162000e98565b9650604089013567ffffffffffffffff8082111562000fbe57600080fd5b62000fcc8c838d0162000f1c565b909850965060608b013591508082111562000fe657600080fd5b62000ff48c838d0162000f1c565b909650945060808b01359150808211156200100e57600080fd5b506200101d8b828c0162000f1c565b999c989b5096995094979396929594505050565b81835281816020850137506000828201602090810191909152601f909101601f19169091010190565b60006001600160a01b038089168352808816602084015250608060408301526200108960808301868862001031565b82810360608401526200109e81858762001031565b9998505050505050505050565b60006001600160a01b038088168352808716602084015280861660408401525060806060830152620010e260808301848662001031565b979650505050505050565b60005b838110156200110a578181015183820152602001620010f0565b50506000910152565b7f416363657373436f6e74726f6c3a206163636f756e74200000000000000000008152600083516200114d816017850160208801620010ed565b7f206973206d697373696e6720726f6c652000000000000000000000000000000060179184019182015283516200118c816028840160208801620010ed565b01602801949350505050565b6020815260008251806020840152620011b9816040850160208701620010ed565b601f01601f19169190910160400192915050565b634e487b7160e01b600052601160045260246000fd5b80820281158282048414176200033e576200033e620011cd565b808201808211156200033e576200033e620011cd565b634e487b7160e01b600052604160045260246000fd5b634e487b7160e01b600052603260045260246000fd5b600081620012515762001251620011cd565b50600019019056fe60806040523480156200001157600080fd5b506040516200106438038062001064833981016040819052620000349162000171565b8181600362000044838262000290565b50600462000053828262000290565b5050600580546001600160a01b039586166001600160a01b0319918216179091556006805496909516951694909417909255506200035c915050565b80516001600160a01b0381168114620000a757600080fd5b919050565b634e487b7160e01b600052604160045260246000fd5b600082601f830112620000d457600080fd5b81516001600160401b0380821115620000f157620000f1620000ac565b604051601f8301601f19908116603f011681019082821181831017156200011c576200011c620000ac565b816040528381526020925086838588010111156200013957600080fd5b600091505b838210156200015d57858201830151818301840152908201906200013e565b600093810190920192909252949350505050565b600080600080608085870312156200018857600080fd5b62000193856200008f565b9350620001a3602086016200008f565b60408601519093506001600160401b0380821115620001c157600080fd5b620001cf88838901620000c2565b93506060870151915080821115620001e657600080fd5b50620001f587828801620000c2565b91505092959194509250565b600181811c908216806200021657607f821691505b6020821081036200023757634e487b7160e01b600052602260045260246000fd5b50919050565b601f8211156200028b57600081815260208120601f850160051c81016020861015620002665750805b601f850160051c820191505b81811015620002875782815560010162000272565b5050505b505050565b81516001600160401b03811115620002ac57620002ac620000ac565b620002c481620002bd845462000201565b846200023d565b602080601f831160018114620002fc5760008415620002e35750858301515b600019600386901b1c1916600185901b17855562000287565b600085815260208120601f198616915b828110156200032d578886015182559484019460019091019084016200030c565b50858210156200034c5787850151600019600388901b60f8161c191681555b5050505050600190811b01905550565b610cf8806200036c6000396000f3fe608060405234801561001057600080fd5b50600436106101005760003560e01c806370a0823111610097578063a9059cbb11610066578063a9059cbb14610208578063ae1f6aaf1461021b578063c01e1bd614610246578063dd62ed3e1461025957600080fd5b806370a08231146101b157806395d89b41146101da5780639dc29fac146101e2578063a457c2d7146101f557600080fd5b806323b872dd116100d357806323b872dd14610167578063313ce5671461017a578063395093511461018957806340c10f191461019c57600080fd5b806301ffc9a71461010557806306fdde031461012d578063095ea7b31461014257806318160ddd14610155575b600080fd5b610118610113366004610b41565b610292565b60405190151581526020015b60405180910390f35b6101356102f0565b6040516101249190610b72565b610118610150366004610bdc565b610382565b6002545b604051908152602001610124565b610118610175366004610c06565b61039c565b60405160128152602001610124565b610118610197366004610bdc565b6103c0565b6101af6101aa366004610bdc565b6103ff565b005b6101596101bf366004610c42565b6001600160a01b031660009081526020819052604090205490565b6101356104af565b6101af6101f0366004610bdc565b6104be565b610118610203366004610bdc565b61055d565b610118610216366004610bdc565b6105ef565b60065461022e906001600160a01b031681565b6040516001600160a01b039091168152602001610124565b60055461022e906001600160a01b031681565b610159610267366004610c5d565b6001600160a01b03918216600090815260016020908152604080832093909416825291909152205490565b60007f01ffc9a7a5cef8baa21ed3c5c0d7e23accb804b619e9333b597f47a0d84076e2631d1d8b6360e01b6001600160e01b031984166301ffc9a760e01b14806102e857506001600160e01b0319848116908216145b949350505050565b6060600380546102ff90610c90565b80601f016020809104026020016040519081016040528092919081815260200182805461032b90610c90565b80156103785780601f1061034d57610100808354040283529160200191610378565b820191906000526020600020905b81548152906001019060200180831161035b57829003601f168201915b5050505050905090565b6000336103908185856105fd565b60019150505b92915050565b6000336103aa858285610722565b6103b58585856107b4565b506001949350505050565b3360008181526001602090815260408083206001600160a01b038716845290915281205490919061039090829086906103fa908790610cca565b6105fd565b6006546001600160a01b0316331461045e5760405162461bcd60e51b815260206004820181905260248201527f4f6e6c79204c32204272696467652063616e206d696e7420616e64206275726e60448201526064015b60405180910390fd5b6104688282610958565b816001600160a01b03167f0f6798a560793a54c3bcfe86a93cde1e73087d944c0ea20544137d4121396885826040516104a391815260200190565b60405180910390a25050565b6060600480546102ff90610c90565b6006546001600160a01b031633146105185760405162461bcd60e51b815260206004820181905260248201527f4f6e6c79204c32204272696467652063616e206d696e7420616e64206275726e6044820152606401610455565b6105228282610a17565b816001600160a01b03167fcc16f5dbb4873280815c1ee09dbd06736cffcc184412cf7a71a0fdb75d397ca5826040516104a391815260200190565b3360008181526001602090815260408083206001600160a01b0387168452909152812054909190838110156105e25760405162461bcd60e51b815260206004820152602560248201527f45524332303a2064656372656173656420616c6c6f77616e63652062656c6f77604482015264207a65726f60d81b6064820152608401610455565b6103b582868684036105fd565b6000336103908185856107b4565b6001600160a01b03831661065f5760405162461bcd60e51b8152602060048201526024808201527f45524332303a20617070726f76652066726f6d20746865207a65726f206164646044820152637265737360e01b6064820152608401610455565b6001600160a01b0382166106c05760405162461bcd60e51b815260206004820152602260248201527f45524332303a20617070726f766520746f20746865207a65726f206164647265604482015261737360f01b6064820152608401610455565b6001600160a01b0383811660008181526001602090815260408083209487168084529482529182902085905590518481527f8c5be1e5ebec7d5bd14f71427d1e84f3dd0314c0f7b2291e5b200ac8c7c3b92591015b60405180910390a3505050565b6001600160a01b0383811660009081526001602090815260408083209386168352929052205460001981146107ae57818110156107a15760405162461bcd60e51b815260206004820152601d60248201527f45524332303a20696e73756666696369656e7420616c6c6f77616e63650000006044820152606401610455565b6107ae84848484036105fd565b50505050565b6001600160a01b0383166108185760405162461bcd60e51b815260206004820152602560248201527f45524332303a207472616e736665722066726f6d20746865207a65726f206164604482015264647265737360d81b6064820152608401610455565b6001600160a01b03821661087a5760405162461bcd60e51b815260206004820152602360248201527f45524332303a207472616e7366657220746f20746865207a65726f206164647260448201526265737360e81b6064820152608401610455565b6001600160a01b038316600090815260208190526040902054818110156108f25760405162461bcd60e51b815260206004820152602660248201527f45524332303a207472616e7366657220616d6f756e7420657863656564732062604482015265616c616e636560d01b6064820152608401610455565b6001600160a01b03848116600081815260208181526040808320878703905593871680835291849020805487019055925185815290927fddf252ad1be2c89b69c2b068fc378daa952ba7f163c4a11628f55a4df523b3ef910160405180910390a36107ae565b6001600160a01b0382166109ae5760405162461bcd60e51b815260206004820152601f60248201527f45524332303a206d696e7420746f20746865207a65726f2061646472657373006044820152606401610455565b80600260008282546109c09190610cca565b90915550506001600160a01b038216600081815260208181526040808320805486019055518481527fddf252ad1be2c89b69c2b068fc378daa952ba7f163c4a11628f55a4df523b3ef910160405180910390a35050565b6001600160a01b038216610a775760405162461bcd60e51b815260206004820152602160248201527f45524332303a206275726e2066726f6d20746865207a65726f206164647265736044820152607360f81b6064820152608401610455565b6001600160a01b03821660009081526020819052604090205481811015610aeb5760405162461bcd60e51b815260206004820152602260248201527f45524332303a206275726e20616d6f756e7420657863656564732062616c616e604482015261636560f01b6064820152608401610455565b6001600160a01b0383166000818152602081815260408083208686039055600280548790039055518581529192917fddf252ad1be2c89b69c2b068fc378daa952ba7f163c4a11628f55a4df523b3ef9101610715565b600060208284031215610b5357600080fd5b81356001600160e01b031981168114610b6b57600080fd5b9392505050565b600060208083528351808285015260005b81811015610b9f57858101830151858201604001528201610b83565b506000604082860101526040601f19601f8301168501019250505092915050565b80356001600160a01b0381168114610bd757600080fd5b919050565b60008060408385031215610bef57600080fd5b610bf883610bc0565b946020939093013593505050565b600080600060608486031215610c1b57600080fd5b610c2484610bc0565b9250610c3260208501610bc0565b9150604084013590509250925092565b600060208284031215610c5457600080fd5b610b6b82610bc0565b60008060408385031215610c7057600080fd5b610c7983610bc0565b9150610c8760208401610bc0565b90509250929050565b600181811c90821680610ca457607f821691505b602082108103610cc457634e487b7160e01b600052602260045260246000fd5b50919050565b8082018082111561039657634e487b7160e01b600052601160045260246000fdfea164736f6c6343000812000aa164736f6c6343000812000adf8b4c520ffe197c5343c6f5aec59570151ef9a492f2c624fd45ddde6135ec42",
  "linkReferences": {},
  "deployedLinkReferences": {}
}