{
  "_format": "hh-sol-artifact-1",
  "contractName": "ERC20C",
  "sourceName": "contracts/L1/tokens/ERC20C.sol",
  "abi": [
    {
      "inputs": [
        {
          "internalType": "string",
          "name": "_name",
          "type": "string"
        },
        {
          "internalType": "string",
          "name": "_symbol",
          "type": "string"
        },
        {
          "internalType": "uint256",
          "name": "initialSupply",
          "type": "uint256"
        },
        {
          "internalType": "address",
          "name": "_owner",
          "type": "address"
        }
      ],
      "stateMutability": "nonpayable",
      "type": "constructor"
    },
    {
      "anonymous": false,
      "inputs": [
        {
          "indexed": true,
          "internalType": "address",
          "name": "owner",
          "type": "address"
        },
        {
          "indexed": true,
          "internalType": "address",
          "name": "spender",
          "type": "address"
        },
        {
          "indexed": false,
          "internalType": "uint256",
          "name": "value",
          "type": "uint256"
        }
      ],
      "name": "Approval",
      "type": "event"
    },
    {
      "anonymous": false,
      "inputs": [
        {
          "indexed": true,
          "internalType": "bytes32",
          "name": "role",
          "type": "bytes32"
        },
        {
          "indexed": true,
          "internalType": "bytes32",
          "name": "previousAdminRole",
          "type": "bytes32"
        },
        {
          "indexed": true,
          "internalType": "bytes32",
          "name": "newAdminRole",
          "type": "bytes32"
        }
      ],
      "name": "RoleAdminChanged",
      "type": "event"
    },
    {
      "anonymous": false,
      "inputs": [
        {
          "indexed": true,
          "internalType": "bytes32",
          "name": "role",
          "type": "bytes32"
        },
        {
          "indexed": true,
          "internalType": "address",
          "name": "account",
          "type": "address"
        },
        {
          "indexed": true,
          "internalType": "address",
          "name": "sender",
          "type": "address"
        }
      ],
      "name": "RoleGranted",
      "type": "event"
    },
    {
      "anonymous": false,
      "inputs": [
        {
          "indexed": true,
          "internalType": "bytes32",
          "name": "role",
          "type": "bytes32"
        },
        {
          "indexed": true,
          "internalType": "address",
          "name": "account",
          "type": "address"
        },
        {
          "indexed": true,
          "internalType": "address",
          "name": "sender",
          "type": "address"
        }
      ],
      "name": "RoleRevoked",
      "type": "event"
    },
    {
      "anonymous": false,
      "inputs": [
        {
          "indexed": false,
          "internalType": "uint256",
          "name": "id",
          "type": "uint256"
        }
      ],
      "name": "Snapshot",
      "type": "event"
    },
    {
      "anonymous": false,
      "inputs": [
        {
          "indexed": true,
          "internalType": "address",
          "name": "from",
          "type": "address"
        },
        {
          "indexed": true,
          "internalType": "address",
          "name": "to",
          "type": "address"
        },
        {
          "indexed": false,
          "internalType": "uint256",
          "name": "value",
          "type": "uint256"
        }
      ],
      "name": "Transfer",
      "type": "event"
    },
    {
      "inputs": [],
      "name": "DEFAULT_ADMIN_ROLE",
      "outputs": [
        {
          "internalType": "bytes32",
          "name": "",
          "type": "bytes32"
        }
      ],
      "stateMutability": "view",
      "type": "function"
    },
    {
      "inputs": [],
      "name": "SNAPSHOT_ROLE",
      "outputs": [
        {
          "internalType": "bytes32",
          "name": "",
          "type": "bytes32"
        }
      ],
      "stateMutability": "view",
      "type": "function"
    },
    {
      "inputs": [],
      "name": "_INTERFACE_ID_ERC20",
      "outputs": [
        {
          "internalType": "bytes4",
          "name": "",
          "type": "bytes4"
        }
      ],
      "stateMutability": "view",
      "type": "function"
    },
    {
      "inputs": [
        {
          "internalType": "bytes4",
          "name": "",
          "type": "bytes4"
        }
      ],
      "name": "_supportedInterfaces",
      "outputs": [
        {
          "internalType": "bool",
          "name": "",
          "type": "bool"
        }
      ],
      "stateMutability": "view",
      "type": "function"
    },
    {
      "inputs": [
        {
          "internalType": "address",
          "name": "owner",
          "type": "address"
        },
        {
          "internalType": "address",
          "name": "spender",
          "type": "address"
        }
      ],
      "name": "allowance",
      "outputs": [
        {
          "internalType": "uint256",
          "name": "",
          "type": "uint256"
        }
      ],
      "stateMutability": "view",
      "type": "function"
    },
    {
      "inputs": [
        {
          "internalType": "address",
          "name": "spender",
          "type": "address"
        },
        {
          "internalType": "uint256",
          "name": "amount",
          "type": "uint256"
        }
      ],
      "name": "approve",
      "outputs": [
        {
          "internalType": "bool",
          "name": "",
          "type": "bool"
        }
      ],
      "stateMutability": "nonpayable",
      "type": "function"
    },
    {
      "inputs": [
        {
          "internalType": "address",
          "name": "spender",
          "type": "address"
        },
        {
          "internalType": "uint256",
          "name": "amount",
          "type": "uint256"
        },
        {
          "internalType": "bytes",
          "name": "data",
          "type": "bytes"
        }
      ],
      "name": "approveAndCall",
      "outputs": [
        {
          "internalType": "bool",
          "name": "",
          "type": "bool"
        }
      ],
      "stateMutability": "nonpayable",
      "type": "function"
    },
    {
      "inputs": [
        {
          "internalType": "address",
          "name": "account",
          "type": "address"
        }
      ],
      "name": "balanceOf",
      "outputs": [
        {
          "internalType": "uint256",
          "name": "",
          "type": "uint256"
        }
      ],
      "stateMutability": "view",
      "type": "function"
    },
    {
      "inputs": [
        {
          "internalType": "address",
          "name": "account",
          "type": "address"
        },
        {
          "internalType": "uint256",
          "name": "snapshotId",
          "type": "uint256"
        }
      ],
      "name": "balanceOfAt",
      "outputs": [
        {
          "internalType": "uint256",
          "name": "",
          "type": "uint256"
        }
      ],
      "stateMutability": "view",
      "type": "function"
    },
    {
      "inputs": [
        {
          "internalType": "uint256",
          "name": "amount",
          "type": "uint256"
        }
      ],
      "name": "burn",
      "outputs": [],
      "stateMutability": "nonpayable",
      "type": "function"
    },
    {
      "inputs": [
        {
          "internalType": "address",
          "name": "account",
          "type": "address"
        },
        {
          "internalType": "uint256",
          "name": "amount",
          "type": "uint256"
        }
      ],
      "name": "burnFrom",
      "outputs": [],
      "stateMutability": "nonpayable",
      "type": "function"
    },
    {
      "inputs": [],
      "name": "currentSnapshotId",
      "outputs": [
        {
          "internalType": "uint256",
          "name": "",
          "type": "uint256"
        }
      ],
      "stateMutability": "view",
      "type": "function"
    },
    {
      "inputs": [],
      "name": "decimals",
      "outputs": [
        {
          "internalType": "uint8",
          "name": "",
          "type": "uint8"
        }
      ],
      "stateMutability": "view",
      "type": "function"
    },
    {
      "inputs": [
        {
          "internalType": "address",
          "name": "spender",
          "type": "address"
        },
        {
          "internalType": "uint256",
          "name": "subtractedValue",
          "type": "uint256"
        }
      ],
      "name": "decreaseAllowance",
      "outputs": [
        {
          "internalType": "bool",
          "name": "",
          "type": "bool"
        }
      ],
      "stateMutability": "nonpayable",
      "type": "function"
    },
    {
      "inputs": [
        {
          "internalType": "bytes32",
          "name": "role",
          "type": "bytes32"
        }
      ],
      "name": "getRoleAdmin",
      "outputs": [
        {
          "internalType": "bytes32",
          "name": "",
          "type": "bytes32"
        }
      ],
      "stateMutability": "view",
      "type": "function"
    },
    {
      "inputs": [
        {
          "internalType": "bytes32",
          "name": "role",
          "type": "bytes32"
        },
        {
          "internalType": "address",
          "name": "account",
          "type": "address"
        }
      ],
      "name": "grantRole",
      "outputs": [],
      "stateMutability": "nonpayable",
      "type": "function"
    },
    {
      "inputs": [
        {
          "internalType": "bytes32",
          "name": "role",
          "type": "bytes32"
        },
        {
          "internalType": "address",
          "name": "account",
          "type": "address"
        }
      ],
      "name": "hasRole",
      "outputs": [
        {
          "internalType": "bool",
          "name": "",
          "type": "bool"
        }
      ],
      "stateMutability": "view",
      "type": "function"
    },
    {
      "inputs": [
        {
          "internalType": "address",
          "name": "spender",
          "type": "address"
        },
        {
          "internalType": "uint256",
          "name": "addedValue",
          "type": "uint256"
        }
      ],
      "name": "increaseAllowance",
      "outputs": [
        {
          "internalType": "bool",
          "name": "",
          "type": "bool"
        }
      ],
      "stateMutability": "nonpayable",
      "type": "function"
    },
    {
      "inputs": [],
      "name": "name",
      "outputs": [
        {
          "internalType": "string",
          "name": "",
          "type": "string"
        }
      ],
      "stateMutability": "view",
      "type": "function"
    },
    {
      "inputs": [
        {
          "internalType": "bytes32",
          "name": "role",
          "type": "bytes32"
        },
        {
          "internalType": "address",
          "name": "account",
          "type": "address"
        }
      ],
      "name": "renounceRole",
      "outputs": [],
      "stateMutability": "nonpayable",
      "type": "function"
    },
    {
      "inputs": [
        {
          "internalType": "bytes32",
          "name": "role",
          "type": "bytes32"
        },
        {
          "internalType": "address",
          "name": "account",
          "type": "address"
        }
      ],
      "name": "revokeRole",
      "outputs": [],
      "stateMutability": "nonpayable",
      "type": "function"
    },
    {
      "inputs": [
        {
          "internalType": "address",
          "name": "recipient",
          "type": "address"
        },
        {
          "internalType": "uint256",
          "name": "amount",
          "type": "uint256"
        }
      ],
      "name": "safeTransfer",
      "outputs": [],
      "stateMutability": "nonpayable",
      "type": "function"
    },
    {
      "inputs": [
        {
          "internalType": "address",
          "name": "recipient",
          "type": "address"
        },
        {
          "internalType": "uint256",
          "name": "amount",
          "type": "uint256"
        },
        {
          "internalType": "bytes",
          "name": "data",
          "type": "bytes"
        }
      ],
      "name": "safeTransfer",
      "outputs": [],
      "stateMutability": "nonpayable",
      "type": "function"
    },
    {
      "inputs": [
        {
          "internalType": "address",
          "name": "sender",
          "type": "address"
        },
        {
          "internalType": "address",
          "name": "recipient",
          "type": "address"
        },
        {
          "internalType": "uint256",
          "name": "amount",
          "type": "uint256"
        }
      ],
      "name": "safeTransferFrom",
      "outputs": [],
      "stateMutability": "nonpayable",
      "type": "function"
    },
    {
      "inputs": [
        {
          "internalType": "address",
          "name": "sender",
          "type": "address"
        },
        {
          "internalType": "address",
          "name": "recipient",
          "type": "address"
        },
        {
          "internalType": "uint256",
          "name": "amount",
          "type": "uint256"
        },
        {
          "internalType": "bytes",
          "name": "data",
          "type": "bytes"
        }
      ],
      "name": "safeTransferFrom",
      "outputs": [],
      "stateMutability": "nonpayable",
      "type": "function"
    },
    {
      "inputs": [],
      "name": "snapshot",
      "outputs": [
        {
          "internalType": "uint256",
          "name": "",
          "type": "uint256"
        }
      ],
      "stateMutability": "nonpayable",
      "type": "function"
    },
    {
      "inputs": [
        {
          "internalType": "bytes4",
          "name": "interfaceId",
          "type": "bytes4"
        }
      ],
      "name": "supportsInterface",
      "outputs": [
        {
          "internalType": "bool",
          "name": "",
          "type": "bool"
        }
      ],
      "stateMutability": "view",
      "type": "function"
    },
    {
      "inputs": [],
      "name": "symbol",
      "outputs": [
        {
          "internalType": "string",
          "name": "",
          "type": "string"
        }
      ],
      "stateMutability": "view",
      "type": "function"
    },
    {
      "inputs": [],
      "name": "totalSupply",
      "outputs": [
        {
          "internalType": "uint256",
          "name": "",
          "type": "uint256"
        }
      ],
      "stateMutability": "view",
      "type": "function"
    },
    {
      "inputs": [
        {
          "internalType": "uint256",
          "name": "snapshotId",
          "type": "uint256"
        }
      ],
      "name": "totalSupplyAt",
      "outputs": [
        {
          "internalType": "uint256",
          "name": "",
          "type": "uint256"
        }
      ],
      "stateMutability": "view",
      "type": "function"
    },
    {
      "inputs": [
        {
          "internalType": "address",
          "name": "to",
          "type": "address"
        },
        {
          "internalType": "uint256",
          "name": "amount",
          "type": "uint256"
        }
      ],
      "name": "transfer",
      "outputs": [
        {
          "internalType": "bool",
          "name": "",
          "type": "bool"
        }
      ],
      "stateMutability": "nonpayable",
      "type": "function"
    },
    {
      "inputs": [
        {
          "internalType": "address",
          "name": "from",
          "type": "address"
        },
        {
          "internalType": "address",
          "name": "to",
          "type": "address"
        },
        {
          "internalType": "uint256",
          "name": "amount",
          "type": "uint256"
        }
      ],
      "name": "transferFrom",
      "outputs": [
        {
          "internalType": "bool",
          "name": "",
          "type": "bool"
        }
      ],
      "stateMutability": "nonpayable",
      "type": "function"
    }
  ],
  "bytecode": "0x60806040523480156200001157600080fd5b50604051620026353803806200263583398101604081905262000034916200059c565b83836004620000448382620006bf565b506005620000538282620006bf565b506200006a9150636578737160e01b9050620000f1565b6200007c6301ffc9a760e01b620000f1565b81156200008f576200008f818362000176565b6200009c6000806200024a565b620000a960008262000295565b620000d57f5fdbd35e8da83ee755d5e62a539e5ed7f47126abede0b8b10f9ea43dc6eed07f8262000295565b620000e7634fc3585960e01b620000f1565b50505050620007e3565b6001600160e01b03198082169003620001515760405162461bcd60e51b815260206004820152601c60248201527f4552433136353a20696e76616c696420696e746572666163652069640000000060448201526064015b60405180910390fd5b6001600160e01b0319166000908152600660205260409020805460ff19166001179055565b6001600160a01b038216620001ce5760405162461bcd60e51b815260206004820152601f60248201527f45524332303a206d696e7420746f20746865207a65726f206164647265737300604482015260640162000148565b620001dc60008383620002a1565b8060036000828254620001f09190620007a1565b90915550506001600160a01b0382166000818152600160209081526040808320805486019055518481527fddf252ad1be2c89b69c2b068fc378daa952ba7f163c4a11628f55a4df523b3ef910160405180910390a35b5050565b600082815260208190526040808220600101805490849055905190918391839186917fbd79b86ffe0ab8e8776151514217cd7cacd52c909f66475c3af44e129f0b00ff9190a4505050565b62000246828262000312565b620002b9838383620002dd60201b6200060a1760201c565b6001600160a01b038316620002e257620002d3826200039a565b620002dd620003df565b505050565b6001600160a01b038216620002fc57620002d3836200039a565b62000307836200039a565b620002dd826200039a565b6200031e8282620003f0565b62000246576000828152602081815260408083206001600160a01b03851684529091529020805460ff19166001179055620003563390565b6001600160a01b0316816001600160a01b0316837f2f8788117e7eff1d82e926ec794901d17c78024a50270940304540a733656f0d60405160405180910390a45050565b620003dc620003bd826001600160a01b0316600090815260076020526040902090565b6001600160a01b0383166000908152600160205260409020546200041b565b50565b620003ee60086003546200041b565b565b6000828152602081815260408083206001600160a01b038516845290915290205460ff165b92915050565b6000620004276200046a565b905080620004358462000488565b1015620002dd578254600180820185556000858152602080822090930193909355938401805494850181558252902090910155565b600062000483600a620004d360201b62000a4a1760201c565b905090565b805460009081036200049c57506000919050565b81548290620004ae90600190620007b7565b81548110620004c157620004c1620007cd565b90600052602060002001549050919050565b5490565b634e487b7160e01b600052604160045260246000fd5b600082601f830112620004ff57600080fd5b81516001600160401b03808211156200051c576200051c620004d7565b604051601f8301601f19908116603f01168101908282118183101715620005475762000547620004d7565b816040528381526020925086838588010111156200056457600080fd5b600091505b8382101562000588578582018301518183018401529082019062000569565b600093810190920192909252949350505050565b60008060008060808587031215620005b357600080fd5b84516001600160401b0380821115620005cb57600080fd5b620005d988838901620004ed565b95506020870151915080821115620005f057600080fd5b50620005ff87828801620004ed565b60408701516060880151919550935090506001600160a01b03811681146200062657600080fd5b939692955090935050565b600181811c908216806200064657607f821691505b6020821081036200066757634e487b7160e01b600052602260045260246000fd5b50919050565b601f821115620002dd57600081815260208120601f850160051c81016020861015620006965750805b601f850160051c820191505b81811015620006b757828155600101620006a2565b505050505050565b81516001600160401b03811115620006db57620006db620004d7565b620006f381620006ec845462000631565b846200066d565b602080601f8311600181146200072b5760008415620007125750858301515b600019600386901b1c1916600185901b178555620006b7565b600085815260208120601f198616915b828110156200075c578886015182559484019460019091019084016200073b565b50858210156200077b5787850151600019600388901b60f8161c191681555b5050505050600190811b01905550565b634e487b7160e01b600052601160045260246000fd5b808201808211156200041557620004156200078b565b818103818111156200041557620004156200078b565b634e487b7160e01b600052603260045260246000fd5b611e4280620007f36000396000f3fe608060405234801561001057600080fd5b50600436106101f05760003560e01c806379cc67901161010f578063a457c2d7116100a2578063d547741f11610071578063d547741f14610463578063dd62ed3e14610476578063eb795549146104af578063ef194435146104c257600080fd5b8063a457c2d714610417578063a9059cbb1461042a578063b88d4fde1461043d578063cae9ca511461045057600080fd5b8063970875ce116100de578063970875ce146103ec5780639711715a146103f4578063981b24d0146103fc578063a217fddf1461040f57600080fd5b806379cc67901461037357806391d14854146103865780639321478c146103bd57806395d89b41146103e457600080fd5b806336568abe1161018757806342966c681161015657806342966c68146102fd5780634ee2cd7e146103105780637028e2cd1461032357806370a082311461034a57600080fd5b806336568abe146102b157806339509351146102c4578063423f6cef146102d757806342842e0e146102ea57600080fd5b806323b872dd116101c357806323b872dd14610257578063248a9ca31461026a5780632f2ff15d1461028d578063313ce567146102a257600080fd5b806301ffc9a7146101f557806306fdde031461021d578063095ea7b31461023257806318160ddd14610245575b600080fd5b61020861020336600461197a565b6104e5565b60405190151581526020015b60405180910390f35b610225610517565b60405161021491906119e7565b610208610240366004611a11565b6105a9565b6003545b604051908152602001610214565b610208610265366004611a3b565b6105c1565b610249610278366004611a77565b60009081526020819052604090206001015490565b6102a061029b366004611a90565b6105e5565b005b60405160128152602001610214565b6102a06102bf366004611a90565b61060f565b6102086102d2366004611a11565b6106a0565b6102a06102e5366004611a11565b6106df565b6102a06102f8366004611a3b565b6106f9565b6102a061030b366004611a77565b610714565b61024961031e366004611a11565b610721565b6102497f5fdbd35e8da83ee755d5e62a539e5ed7f47126abede0b8b10f9ea43dc6eed07f81565b610249610358366004611abc565b6001600160a01b031660009081526001602052604090205490565b6102a0610381366004611a11565b610762565b610208610394366004611a90565b6000918252602082815260408084206001600160a01b0393909316845291905290205460ff1690565b6103cb636578737160e01b81565b6040516001600160e01b03199091168152602001610214565b6102256107e3565b6102496107f2565b610249610802565b61024961040a366004611a77565b61083c565b610249600081565b610208610425366004611a11565b610865565b610208610438366004611a11565b6108f7565b6102a061044b366004611b7a565b610905565b61020861045e366004611be2565b610988565b6102a0610471366004611a90565b6109a9565b610249610484366004611c39565b6001600160a01b03918216600090815260026020908152604080832093909416825291909152205490565b6102a06104bd366004611be2565b6109ce565b6102086104d036600461197a565b60066020526000908152604090205460ff1681565b6001600160e01b0319811660009081526006602052604081205460ff1680610511575061051182610a4e565b92915050565b60606004805461052690611c63565b80601f016020809104026020016040519081016040528092919081815260200182805461055290611c63565b801561059f5780601f106105745761010080835404028352916020019161059f565b820191906000526020600020905b81548152906001019060200180831161058257829003601f168201915b5050505050905090565b6000336105b7818585610a83565b5060019392505050565b6000336105cf858285610ba7565b6105da858585610c33565b506001949350505050565b60008281526020819052604090206001015461060081610de9565b61060a8383610df3565b505050565b6001600160a01b03811633146106925760405162461bcd60e51b815260206004820152602f60248201527f416363657373436f6e74726f6c3a2063616e206f6e6c792072656e6f756e636560448201527f20726f6c657320666f722073656c66000000000000000000000000000000000060648201526084015b60405180910390fd5b61069c8282610e91565b5050565b3360008181526002602090815260408083206001600160a01b03871684529091528120549091906105b790829086906106da908790611cb3565b610a83565b61069c8282604051806020016040528060008152506109ce565b61060a83838360405180602001604052806000815250610905565b61071e3382610f10565b50565b60008060006107308585611050565b9150915081610757576001600160a01b038516600090815260016020526040902054610759565b805b95945050505050565b600061076e8333610484565b9050818110156107cc5760405162461bcd60e51b8152602060048201526024808201527f45524332303a206275726e20616d6f756e74206578636565647320616c6c6f77604482015263616e636560e01b6064820152608401610689565b6107d98333848403610a83565b61060a8383610f10565b60606005805461052690611c63565b60006107fd600a5490565b905090565b60007f5fdbd35e8da83ee755d5e62a539e5ed7f47126abede0b8b10f9ea43dc6eed07f61082e81610de9565b610836611088565b91505090565b600080600061084a846110e2565b915091508161085b5760035461085d565b805b949350505050565b3360008181526002602090815260408083206001600160a01b0387168452909152812054909190838110156108ea5760405162461bcd60e51b815260206004820152602560248201527f45524332303a2064656372656173656420616c6c6f77616e63652062656c6f77604482015264207a65726f60d81b6064820152608401610689565b6105da8286868403610a83565b6000336105b7818585610c33565b6109108484846105c1565b5061091d848484846110ff565b6109825760405162461bcd60e51b815260206004820152603060248201527f45524332303a207472616e7366657220746f206e6f6e2045524332305265636560448201526f34bb32b91034b6b83632b6b2b73a32b960811b6064820152608401610689565b50505050565b600061099484846105a9565b61099d57600080fd5b6105b7338585856111ae565b6000828152602081905260409020600101546109c481610de9565b61060a8383610e91565b6109d883836108f7565b506109e5338484846110ff565b61060a5760405162461bcd60e51b815260206004820152603060248201527f45524332303a207472616e7366657220746f206e6f6e2045524332305265636560448201526f34bb32b91034b6b83632b6b2b73a32b960811b6064820152608401610689565b5490565b60006001600160e01b03198216637965db0b60e01b148061051157506301ffc9a760e01b6001600160e01b0319831614610511565b6001600160a01b038316610ae55760405162461bcd60e51b8152602060048201526024808201527f45524332303a20617070726f76652066726f6d20746865207a65726f206164646044820152637265737360e01b6064820152608401610689565b6001600160a01b038216610b465760405162461bcd60e51b815260206004820152602260248201527f45524332303a20617070726f766520746f20746865207a65726f206164647265604482015261737360f01b6064820152608401610689565b6001600160a01b0383811660008181526002602090815260408083209487168084529482529182902085905590518481527f8c5be1e5ebec7d5bd14f71427d1e84f3dd0314c0f7b2291e5b200ac8c7c3b925910160405180910390a3505050565b6001600160a01b0383811660009081526002602090815260408083209386168352929052205460001981146109825781811015610c265760405162461bcd60e51b815260206004820152601d60248201527f45524332303a20696e73756666696369656e7420616c6c6f77616e63650000006044820152606401610689565b6109828484848403610a83565b6001600160a01b038316610c975760405162461bcd60e51b815260206004820152602560248201527f45524332303a207472616e736665722066726f6d20746865207a65726f206164604482015264647265737360d81b6064820152608401610689565b6001600160a01b038216610cf95760405162461bcd60e51b815260206004820152602360248201527f45524332303a207472616e7366657220746f20746865207a65726f206164647260448201526265737360e81b6064820152608401610689565b610d0483838361136b565b6001600160a01b03831660009081526001602052604090205481811015610d7c5760405162461bcd60e51b815260206004820152602660248201527f45524332303a207472616e7366657220616d6f756e7420657863656564732062604482015265616c616e636560d01b6064820152608401610689565b6001600160a01b0380851660008181526001602052604080822086860390559286168082529083902080548601905591517fddf252ad1be2c89b69c2b068fc378daa952ba7f163c4a11628f55a4df523b3ef90610ddc9086815260200190565b60405180910390a3610982565b61071e81336113b3565b6000828152602081815260408083206001600160a01b038516845290915290205460ff1661069c576000828152602081815260408083206001600160a01b03851684529091529020805460ff19166001179055610e4d3390565b6001600160a01b0316816001600160a01b0316837f2f8788117e7eff1d82e926ec794901d17c78024a50270940304540a733656f0d60405160405180910390a45050565b6000828152602081815260408083206001600160a01b038516845290915290205460ff161561069c576000828152602081815260408083206001600160a01b0385168085529252808320805460ff1916905551339285917ff6391f5c32d9c69d2a47ea670b442974b53935d1edc7fd64eb21e047a839171b9190a45050565b6001600160a01b038216610f705760405162461bcd60e51b815260206004820152602160248201527f45524332303a206275726e2066726f6d20746865207a65726f206164647265736044820152607360f81b6064820152608401610689565b610f7c8260008361136b565b6001600160a01b03821660009081526001602052604090205481811015610ff05760405162461bcd60e51b815260206004820152602260248201527f45524332303a206275726e20616d6f756e7420657863656564732062616c616e604482015261636560f01b6064820152608401610689565b6001600160a01b03831660008181526001602090815260408083208686039055600380548790039055518581529192917fddf252ad1be2c89b69c2b068fc378daa952ba7f163c4a11628f55a4df523b3ef910160405180910390a3505050565b6001600160a01b0382166000908152600760205260408120819081908190611079908690611426565b909450925050505b9250929050565b6000611098600a80546001019055565b60006110a26107f2565b90507f8030e83b04d87bef53480e26263266d6ca66863aa8506aca6f2559d18aa1cb67816040516110d591815260200190565b60405180910390a1919050565b6000806000806110f3856008611426565b90969095509350505050565b60006001600160a01b0384163b6111185750600161085d565b604051634fc3585960e01b81526000906001600160a01b03861690634fc358599061114d9033908a9089908990600401611cc6565b6020604051808303816000875af115801561116c573d6000803e3d6000fd5b505050506040513d601f19601f820116820180604052508101906111909190611d02565b6001600160e01b031916634fc3585960e01b14915050949350505050565b632139e50b60e11b6111c08482611520565b6112325760405162461bcd60e51b815260206004820152603160248201527f617070726f7665416e6443616c6c3a207370656e64657220646f65736e27742060448201527f737570706f7274206f6e417070726f76650000000000000000000000000000006064820152608401610689565b600080856001600160a01b031683888888886040516024016112579493929190611cc6565b60408051601f198184030181529181526020820180516001600160e01b03166001600160e01b03199094169390931790925290516112959190611d1f565b6000604051808303816000865af19150503d80600081146112d2576040519150601f19603f3d011682016040523d82523d6000602084013e6112d7565b606091505b50915091508181906112fc5760405162461bcd60e51b815260040161068991906119e7565b5060208101519150816113625760405162461bcd60e51b815260206004820152602860248201527f617070726f7665416e6443616c6c3a206661696c656420746f2063616c6c206f6044820152676e417070726f766560c01b6064820152608401610689565b50505050505050565b6001600160a01b03831661138a5761138282611543565b61060a611582565b6001600160a01b0382166113a15761138283611543565b6113aa83611543565b61060a82611543565b6000828152602081815260408083206001600160a01b038516845290915290205460ff1661069c576113e481611591565b6113ef8360206115a3565b604051602001611400929190611d3b565b60408051601f198184030181529082905262461bcd60e51b8252610689916004016119e7565b600080600084116114795760405162461bcd60e51b815260206004820152601660248201527f4552433230536e617073686f743a2069642069732030000000000000000000006044820152606401610689565b6114816107f2565b8411156114d05760405162461bcd60e51b815260206004820152601d60248201527f4552433230536e617073686f743a206e6f6e6578697374656e742069640000006044820152606401610689565b60006114dc848661174c565b845490915081036114f4576000809250925050611081565b600184600101828154811061150b5761150b611dbc565b90600052602060002001549250925050611081565b600061152b836117f9565b801561153c575061153c838361182c565b9392505050565b61071e611564826001600160a01b0316600090815260076020526040902090565b6001600160a01b0383166000908152600160205260409020546118b5565b61158f60086003546118b5565b565b60606105116001600160a01b03831660145b606060006115b2836002611dd2565b6115bd906002611cb3565b67ffffffffffffffff8111156115d5576115d5611ad7565b6040519080825280601f01601f1916602001820160405280156115ff576020820181803683370190505b509050600360fc1b8160008151811061161a5761161a611dbc565b60200101906001600160f81b031916908160001a905350600f60fb1b8160018151811061164957611649611dbc565b60200101906001600160f81b031916908160001a905350600061166d846002611dd2565b611678906001611cb3565b90505b60018111156116fd577f303132333435363738396162636465660000000000000000000000000000000085600f16601081106116b9576116b9611dbc565b1a60f81b8282815181106116cf576116cf611dbc565b60200101906001600160f81b031916908160001a90535060049490941c936116f681611de9565b905061167b565b50831561153c5760405162461bcd60e51b815260206004820181905260248201527f537472696e67733a20686578206c656e67746820696e73756666696369656e746044820152606401610689565b8154600090810361175f57506000610511565b82546000905b808210156117ac57600061177983836118ff565b60008781526020902090915085908201541115611798578091506117a6565b6117a3816001611cb3565b92505b50611765565b6000821180156117d85750836117d5866117c7600186611e00565b600091825260209091200190565b54145b156117f1576117e8600183611e00565b92505050610511565b509050610511565b600061180c826301ffc9a760e01b61182c565b80156105115750611825826001600160e01b031961182c565b1592915050565b604080516001600160e01b03198316602480830191909152825180830390910181526044909101909152602080820180516001600160e01b03166301ffc9a760e01b178152825160009392849283928392918391908a617530fa92503d9150600051905082801561189e575060208210155b80156118aa5750600081115b979650505050505050565b60006118bf6107f2565b9050806118cb8461191a565b101561060a578254600180820185556000858152602080822090930193909355938401805494850181558252902090910155565b600061190e6002848418611e13565b61153c90848416611cb3565b8054600090810361192d57506000919050565b8154829061193d90600190611e00565b8154811061194d5761194d611dbc565b90600052602060002001549050919050565b919050565b6001600160e01b03198116811461071e57600080fd5b60006020828403121561198c57600080fd5b813561153c81611964565b60005b838110156119b257818101518382015260200161199a565b50506000910152565b600081518084526119d3816020860160208601611997565b601f01601f19169290920160200192915050565b60208152600061153c60208301846119bb565b80356001600160a01b038116811461195f57600080fd5b60008060408385031215611a2457600080fd5b611a2d836119fa565b946020939093013593505050565b600080600060608486031215611a5057600080fd5b611a59846119fa565b9250611a67602085016119fa565b9150604084013590509250925092565b600060208284031215611a8957600080fd5b5035919050565b60008060408385031215611aa357600080fd5b82359150611ab3602084016119fa565b90509250929050565b600060208284031215611ace57600080fd5b61153c826119fa565b634e487b7160e01b600052604160045260246000fd5b600082601f830112611afe57600080fd5b813567ffffffffffffffff80821115611b1957611b19611ad7565b604051601f8301601f19908116603f01168101908282118183101715611b4157611b41611ad7565b81604052838152866020858801011115611b5a57600080fd5b836020870160208301376000602085830101528094505050505092915050565b60008060008060808587031215611b9057600080fd5b611b99856119fa565b9350611ba7602086016119fa565b925060408501359150606085013567ffffffffffffffff811115611bca57600080fd5b611bd687828801611aed565b91505092959194509250565b600080600060608486031215611bf757600080fd5b611c00846119fa565b925060208401359150604084013567ffffffffffffffff811115611c2357600080fd5b611c2f86828701611aed565b9150509250925092565b60008060408385031215611c4c57600080fd5b611c55836119fa565b9150611ab3602084016119fa565b600181811c90821680611c7757607f821691505b602082108103611c9757634e487b7160e01b600052602260045260246000fd5b50919050565b634e487b7160e01b600052601160045260246000fd5b8082018082111561051157610511611c9d565b60006001600160a01b03808716835280861660208401525083604083015260806060830152611cf860808301846119bb565b9695505050505050565b600060208284031215611d1457600080fd5b815161153c81611964565b60008251611d31818460208701611997565b9190910192915050565b7f416363657373436f6e74726f6c3a206163636f756e7420000000000000000000815260008351611d73816017850160208801611997565b7f206973206d697373696e6720726f6c65200000000000000000000000000000006017918401918201528351611db0816028840160208801611997565b01602801949350505050565b634e487b7160e01b600052603260045260246000fd5b808202811582820484141761051157610511611c9d565b600081611df857611df8611c9d565b506000190190565b8181038181111561051157610511611c9d565b600082611e3057634e487b7160e01b600052601260045260246000fd5b50049056fea164736f6c6343000812000a",
  "linkReferences": {},
  "deployedLinkReferences": {}
}