{
  "_format": "hh-sol-artifact-1",
  "contractName": "Proxy",
  "sourceName": "contracts/proxy/Proxy.sol",
  "abi": [
    {
      "inputs": [],
      "stateMutability": "nonpayable",
      "type": "constructor"
    },
    {
      "anonymous": false,
      "inputs": [
        {
          "indexed": true,
          "internalType": "bytes32",
          "name": "role",
          "type": "bytes32"
        },
        {
          "indexed": true,
          "internalType": "bytes32",
          "name": "previousAdminRole",
          "type": "bytes32"
        },
        {
          "indexed": true,
          "internalType": "bytes32",
          "name": "newAdminRole",
          "type": "bytes32"
        }
      ],
      "name": "RoleAdminChanged",
      "type": "event"
    },
    {
      "anonymous": false,
      "inputs": [
        {
          "indexed": true,
          "internalType": "bytes32",
          "name": "role",
          "type": "bytes32"
        },
        {
          "indexed": true,
          "internalType": "address",
          "name": "account",
          "type": "address"
        },
        {
          "indexed": true,
          "internalType": "address",
          "name": "sender",
          "type": "address"
        }
      ],
      "name": "RoleGranted",
      "type": "event"
    },
    {
      "anonymous": false,
      "inputs": [
        {
          "indexed": true,
          "internalType": "bytes32",
          "name": "role",
          "type": "bytes32"
        },
        {
          "indexed": true,
          "internalType": "address",
          "name": "account",
          "type": "address"
        },
        {
          "indexed": true,
          "internalType": "address",
          "name": "sender",
          "type": "address"
        }
      ],
      "name": "RoleRevoked",
      "type": "event"
    },
    {
      "anonymous": false,
      "inputs": [
        {
          "indexed": true,
          "internalType": "address",
          "name": "impl",
          "type": "address"
        },
        {
          "indexed": false,
          "internalType": "bool",
          "name": "alive",
          "type": "bool"
        }
      ],
      "name": "SetAliveImplementation",
      "type": "event"
    },
    {
      "anonymous": false,
      "inputs": [
        {
          "indexed": true,
          "internalType": "bytes4",
          "name": "selector",
          "type": "bytes4"
        },
        {
          "indexed": true,
          "internalType": "address",
          "name": "impl",
          "type": "address"
        }
      ],
      "name": "SetSelectorImplementation",
      "type": "event"
    },
    {
      "anonymous": false,
      "inputs": [
        {
          "indexed": true,
          "internalType": "address",
          "name": "implementation",
          "type": "address"
        }
      ],
      "name": "Upgraded",
      "type": "event"
    },
    {
      "stateMutability": "payable",
      "type": "fallback"
    },
    {
      "inputs": [],
      "name": "ADMIN_ROLE",
      "outputs": [
        {
          "internalType": "bytes32",
          "name": "",
          "type": "bytes32"
        }
      ],
      "stateMutability": "view",
      "type": "function"
    },
    {
      "inputs": [],
      "name": "DEFAULT_ADMIN_ROLE",
      "outputs": [
        {
          "internalType": "bytes32",
          "name": "",
          "type": "bytes32"
        }
      ],
      "stateMutability": "view",
      "type": "function"
    },
    {
      "inputs": [],
      "name": "POLICY_ROLE",
      "outputs": [
        {
          "internalType": "bytes32",
          "name": "",
          "type": "bytes32"
        }
      ],
      "stateMutability": "view",
      "type": "function"
    },
    {
      "inputs": [
        {
          "internalType": "address",
          "name": "account",
          "type": "address"
        }
      ],
      "name": "addAdmin",
      "outputs": [],
      "stateMutability": "nonpayable",
      "type": "function"
    },
    {
      "inputs": [
        {
          "internalType": "address",
          "name": "",
          "type": "address"
        }
      ],
      "name": "aliveImplementation",
      "outputs": [
        {
          "internalType": "bool",
          "name": "",
          "type": "bool"
        }
      ],
      "stateMutability": "view",
      "type": "function"
    },
    {
      "inputs": [
        {
          "internalType": "bytes32",
          "name": "role",
          "type": "bytes32"
        }
      ],
      "name": "getRoleAdmin",
      "outputs": [
        {
          "internalType": "bytes32",
          "name": "",
          "type": "bytes32"
        }
      ],
      "stateMutability": "view",
      "type": "function"
    },
    {
      "inputs": [
        {
          "internalType": "bytes4",
          "name": "_selector",
          "type": "bytes4"
        }
      ],
      "name": "getSelectorImplementation2",
      "outputs": [
        {
          "internalType": "address",
          "name": "impl",
          "type": "address"
        }
      ],
      "stateMutability": "view",
      "type": "function"
    },
    {
      "inputs": [
        {
          "internalType": "bytes32",
          "name": "role",
          "type": "bytes32"
        },
        {
          "internalType": "address",
          "name": "account",
          "type": "address"
        }
      ],
      "name": "grantRole",
      "outputs": [],
      "stateMutability": "nonpayable",
      "type": "function"
    },
    {
      "inputs": [
        {
          "internalType": "bytes32",
          "name": "role",
          "type": "bytes32"
        },
        {
          "internalType": "address",
          "name": "account",
          "type": "address"
        }
      ],
      "name": "hasRole",
      "outputs": [
        {
          "internalType": "bool",
          "name": "",
          "type": "bool"
        }
      ],
      "stateMutability": "view",
      "type": "function"
    },
    {
      "inputs": [],
      "name": "implementation",
      "outputs": [
        {
          "internalType": "address",
          "name": "",
          "type": "address"
        }
      ],
      "stateMutability": "view",
      "type": "function"
    },
    {
      "inputs": [
        {
          "internalType": "uint256",
          "name": "_index",
          "type": "uint256"
        }
      ],
      "name": "implementation2",
      "outputs": [
        {
          "internalType": "address",
          "name": "",
          "type": "address"
        }
      ],
      "stateMutability": "view",
      "type": "function"
    },
    {
      "inputs": [
        {
          "internalType": "address",
          "name": "account",
          "type": "address"
        }
      ],
      "name": "isAdmin",
      "outputs": [
        {
          "internalType": "bool",
          "name": "",
          "type": "bool"
        }
      ],
      "stateMutability": "view",
      "type": "function"
    },
    {
      "inputs": [],
      "name": "pauseProxy",
      "outputs": [
        {
          "internalType": "bool",
          "name": "",
          "type": "bool"
        }
      ],
      "stateMutability": "view",
      "type": "function"
    },
    {
      "inputs": [
        {
          "internalType": "uint256",
          "name": "",
          "type": "uint256"
        }
      ],
      "name": "proxyImplementation",
      "outputs": [
        {
          "internalType": "address",
          "name": "",
          "type": "address"
        }
      ],
      "stateMutability": "view",
      "type": "function"
    },
    {
      "inputs": [
        {
          "internalType": "address",
          "name": "account",
          "type": "address"
        }
      ],
      "name": "removeAdmin",
      "outputs": [],
      "stateMutability": "nonpayable",
      "type": "function"
    },
    {
      "inputs": [
        {
          "internalType": "bytes32",
          "name": "role",
          "type": "bytes32"
        },
        {
          "internalType": "address",
          "name": "account",
          "type": "address"
        }
      ],
      "name": "renounceRole",
      "outputs": [],
      "stateMutability": "nonpayable",
      "type": "function"
    },
    {
      "inputs": [
        {
          "internalType": "bytes32",
          "name": "role",
          "type": "bytes32"
        },
        {
          "internalType": "address",
          "name": "account",
          "type": "address"
        }
      ],
      "name": "revokeRole",
      "outputs": [],
      "stateMutability": "nonpayable",
      "type": "function"
    },
    {
      "inputs": [
        {
          "internalType": "bytes4",
          "name": "",
          "type": "bytes4"
        }
      ],
      "name": "selectorImplementation",
      "outputs": [
        {
          "internalType": "address",
          "name": "",
          "type": "address"
        }
      ],
      "stateMutability": "view",
      "type": "function"
    },
    {
      "inputs": [
        {
          "internalType": "address",
          "name": "newImplementation",
          "type": "address"
        },
        {
          "internalType": "bool",
          "name": "_alive",
          "type": "bool"
        }
      ],
      "name": "setAliveImplementation2",
      "outputs": [],
      "stateMutability": "nonpayable",
      "type": "function"
    },
    {
      "inputs": [
        {
          "internalType": "address",
          "name": "newImplementation",
          "type": "address"
        },
        {
          "internalType": "uint256",
          "name": "_index",
          "type": "uint256"
        },
        {
          "internalType": "bool",
          "name": "_alive",
          "type": "bool"
        }
      ],
      "name": "setImplementation2",
      "outputs": [],
      "stateMutability": "nonpayable",
      "type": "function"
    },
    {
      "inputs": [
        {
          "internalType": "bool",
          "name": "_pause",
          "type": "bool"
        }
      ],
      "name": "setProxyPause",
      "outputs": [],
      "stateMutability": "nonpayable",
      "type": "function"
    },
    {
      "inputs": [
        {
          "internalType": "bytes4[]",
          "name": "_selectors",
          "type": "bytes4[]"
        },
        {
          "internalType": "address",
          "name": "_imp",
          "type": "address"
        }
      ],
      "name": "setSelectorImplementations2",
      "outputs": [],
      "stateMutability": "nonpayable",
      "type": "function"
    },
    {
      "inputs": [
        {
          "internalType": "bytes4",
          "name": "interfaceId",
          "type": "bytes4"
        }
      ],
      "name": "supportsInterface",
      "outputs": [
        {
          "internalType": "bool",
          "name": "",
          "type": "bool"
        }
      ],
      "stateMutability": "view",
      "type": "function"
    },
    {
      "inputs": [
        {
          "internalType": "address",
          "name": "newAdmin",
          "type": "address"
        }
      ],
      "name": "transferAdmin",
      "outputs": [],
      "stateMutability": "nonpayable",
      "type": "function"
    },
    {
      "inputs": [
        {
          "internalType": "address",
          "name": "impl",
          "type": "address"
        }
      ],
      "name": "upgradeTo",
      "outputs": [],
      "stateMutability": "nonpayable",
      "type": "function"
    },
    {
      "stateMutability": "payable",
      "type": "receive"
    }
  ],
  "bytecode": "0x60806040523480156200001157600080fd5b506200002d60008051602062001972833981519152806200004e565b62000048600080516020620019728339815191523362000099565b6200014d565b600082815260046020526040808220600101805490849055905190918391839186917fbd79b86ffe0ab8e8776151514217cd7cacd52c909f66475c3af44e129f0b00ff9190a4505050565b620000a58282620000a9565b5050565b60008281526004602090815260408083206001600160a01b038516845290915290205460ff16620000a55760008281526004602090815260408083206001600160a01b03851684529091529020805460ff19166001179055620001093390565b6001600160a01b0316816001600160a01b0316837f2f8788117e7eff1d82e926ec794901d17c78024a50270940304540a733656f0d60405160405180910390a45050565b611815806200015d6000396000f3fe60806040526004361061019a5760003560e01c80635cc797d8116100e15780637cd5f6631161008a57806391d148541161006457806391d148541461054f578063a217fddf14610595578063b911135f146105aa578063d547741f146105e0576101ec565b80637cd5f663146104ef5780638b8f4a651461050f5780638d4fdb401461052f576101ec565b806375829def116100bb57806375829def1461047b57806375b238fc1461049b5780637cb00d25146104cf576101ec565b80635cc797d81461042157806363a8fd8914610441578063704802751461045b576101ec565b806336568abe1161014357806350d2a2761161011d57806350d2a2761461035d578063550d01a3146103ab5780635c60da1b146103db576101ec565b806336568abe146102fd5780633659cfe61461031d5780634a5df50f1461033d576101ec565b8063248a9ca311610174578063248a9ca31461028d57806324d7806c146102bd5780632f2ff15d146102dd576101ec565b806301ffc9a7146101f65780631785f53c1461022b578063229852461461024b576101ec565b366101ec5760405162461bcd60e51b815260206004820152601460248201527f63616e6e6f74207265636569766520457468657200000000000000000000000060448201526064015b60405180910390fd5b6101f4610600565b005b34801561020257600080fd5b506102166102113660046114c7565b6106a9565b60405190151581526020015b60405180910390f35b34801561023757600080fd5b506101f4610246366004611508565b6106e0565b34801561025757600080fd5b5061027f7ffb5864e8ff833c3cb2d2d08505e82ff02a43554c74a35d4f5a64e8526127831181565b604051908152602001610222565b34801561029957600080fd5b5061027f6102a8366004611523565b60009081526004602052604090206001015490565b3480156102c957600080fd5b506102166102d8366004611508565b61075b565b3480156102e957600080fd5b506101f46102f836600461153c565b61079b565b34801561030957600080fd5b506101f461031836600461153c565b6107c0565b34801561032957600080fd5b506101f4610338366004611508565b61084c565b34801561034957600080fd5b506101f4610358366004611568565b6109a5565b34801561036957600080fd5b506103936103783660046114c7565b6003602052600090815260409020546001600160a01b031681565b6040516001600160a01b039091168152602001610222565b3480156103b757600080fd5b506102166103c6366004611508565b60026020526000908152604090205460ff1681565b3480156103e757600080fd5b506000805260016020527fa6eef7e35abe7026729641147f7915573c7e97b47efa546f5f6e3230263bcb49546001600160a01b0316610393565b34801561042d57600080fd5b506101f461043c3660046115fc565b610c52565b34801561044d57600080fd5b506000546102169060ff1681565b34801561046757600080fd5b506101f4610476366004611508565b610caa565b34801561048757600080fd5b506101f4610496366004611508565b610d22565b3480156104a757600080fd5b5061027f7fdf8b4c520ffe197c5343c6f5aec59570151ef9a492f2c624fd45ddde6135ec4281565b3480156104db57600080fd5b506101f46104ea366004611626565b610e72565b3480156104fb57600080fd5b506101f461050a366004611641565b610ed3565b34801561051b57600080fd5b5061039361052a366004611523565b610f2c565b34801561053b57600080fd5b5061039361054a3660046114c7565b610f49565b34801561055b57600080fd5b5061021661056a36600461153c565b60009182526004602090815260408084206001600160a01b0393909316845291905290205460ff1690565b3480156105a157600080fd5b5061027f600081565b3480156105b657600080fd5b506103936105c5366004611523565b6001602052600090815260409020546001600160a01b031681565b3480156105ec57600080fd5b506101f46105fb36600461153c565b611045565b60006106176000356001600160e01b031916610f49565b90506001600160a01b03811615801590610634575060005460ff16155b6106805760405162461bcd60e51b815260206004820152601d60248201527f50726f78793a20696d706c204f522070726f78792069732066616c736500000060448201526064016101e3565b3660008037600080366000845af43d6000803e80801561069f573d6000f35b3d6000fd5b505050565b60006001600160e01b03198216637965db0b60e01b14806106da57506301ffc9a760e01b6001600160e01b03198316145b92915050565b6106e93361075b565b61072e5760405162461bcd60e51b815260206004820152602260248201526000805160206117e983398151915260448201526134b760f11b60648201526084016101e3565b6107587fdf8b4c520ffe197c5343c6f5aec59570151ef9a492f2c624fd45ddde6135ec42826107c0565b50565b6001600160a01b03811660009081527f2fb794d17134dfdec181ddbac1babb5ab1eb140204ef4d982f294e7fc8b69022602052604081205460ff166106da565b6000828152600460205260409020600101546107b68161106a565b6106a48383611074565b6001600160a01b038116331461083e5760405162461bcd60e51b815260206004820152602f60248201527f416363657373436f6e74726f6c3a2063616e206f6e6c792072656e6f756e636560448201527f20726f6c657320666f722073656c66000000000000000000000000000000000060648201526084016101e3565b6108488282611116565b5050565b6108553361075b565b61089a5760405162461bcd60e51b815260206004820152602260248201526000805160206117e983398151915260448201526134b760f11b60648201526084016101e3565b6001600160a01b0381166108f05760405162461bcd60e51b815260206004820152600d60248201527f696e707574206973207a65726f0000000000000000000000000000000000000060448201526064016101e3565b6000805260016020527fa6eef7e35abe7026729641147f7915573c7e97b47efa546f5f6e3230263bcb49546001600160a01b038281169116036109615760405162461bcd60e51b815260206004820152600960248201526839b0b6b29030b2323960b91b60448201526064016101e3565b61096e8160006001611199565b6040516001600160a01b038216907fbc7cd75a20ee27fd9adebab32041f755214dbc6bffa90cc0225b39da2e5c2d3b90600090a250565b6109ae3361075b565b6109f35760405162461bcd60e51b815260206004820152602260248201526000805160206117e983398151915260448201526134b760f11b60648201526084016101e3565b81610a405760405162461bcd60e51b815260206004820181905260248201527f50726f78793a205f73656c6563746f727327732073697a65206973207a65726f60448201526064016101e3565b6001600160a01b03811660009081526002602052604090205460ff16610aa85760405162461bcd60e51b815260206004820152601860248201527f50726f78793a205f696d70206973206e6f7420616c697665000000000000000060448201526064016101e3565b60005b82811015610c4c57816001600160a01b031660036000868685818110610ad357610ad3611674565b9050602002016020810190610ae891906114c7565b6001600160e01b03191681526020810191909152604001600020546001600160a01b031603610b595760405162461bcd60e51b815260206004820152601d60248201527f4c69717569646974795661756c7450726f78793a2073616d6520696d7000000060448201526064016101e3565b8160036000868685818110610b7057610b70611674565b9050602002016020810190610b8591906114c7565b6001600160e01b03191681526020810191909152604001600020805473ffffffffffffffffffffffffffffffffffffffff19166001600160a01b039283161790558216848483818110610bda57610bda611674565b9050602002016020810190610bef91906114c7565b7bffffffffffffffffffffffffffffffffffffffffffffffffffffffff19167f14ebc1c32aa68f4d766e89f3e546cee249f7df25183fc10ab1568d91c2ce9b7b60405160405180910390a380610c44816116a0565b915050610aab565b50505050565b610c5b3361075b565b610ca05760405162461bcd60e51b815260206004820152602260248201526000805160206117e983398151915260448201526134b760f11b60648201526084016101e3565b6108488282611231565b610cb33361075b565b610cf85760405162461bcd60e51b815260206004820152602260248201526000805160206117e983398151915260448201526134b760f11b60648201526084016101e3565b6107587fdf8b4c520ffe197c5343c6f5aec59570151ef9a492f2c624fd45ddde6135ec428261079b565b610d2b3361075b565b610d705760405162461bcd60e51b815260206004820152602260248201526000805160206117e983398151915260448201526134b760f11b60648201526084016101e3565b6001600160a01b038116610dc65760405162461bcd60e51b815260206004820152601860248201527f41636365737369626c653a207a65726f2061646472657373000000000000000060448201526064016101e3565b6001600160a01b0381163303610e1e5760405162461bcd60e51b815260206004820152601660248201527f41636365737369626c653a2073616d652061646d696e0000000000000000000060448201526064016101e3565b610e487fdf8b4c520ffe197c5343c6f5aec59570151ef9a492f2c624fd45ddde6135ec428261079b565b6107587fdf8b4c520ffe197c5343c6f5aec59570151ef9a492f2c624fd45ddde6135ec42336107c0565b610e7b3361075b565b610ec05760405162461bcd60e51b815260206004820152602260248201526000805160206117e983398151915260448201526134b760f11b60648201526084016101e3565b6000805460ff1916911515919091179055565b610edc3361075b565b610f215760405162461bcd60e51b815260206004820152602260248201526000805160206117e983398151915260448201526134b760f11b60648201526084016101e3565b6106a4838383611199565b6000818152600160205260408120546001600160a01b03166106da565b6001600160e01b031981166000908152600360205260408120546001600160a01b0316610fa95750506000805260016020527fa6eef7e35abe7026729641147f7915573c7e97b47efa546f5f6e3230263bcb49546001600160a01b031690565b6001600160e01b031982166000908152600360209081526040808320546001600160a01b03168352600290915290205460ff161561100757506001600160e01b0319166000908152600360205260409020546001600160a01b031690565b50506000805260016020527fa6eef7e35abe7026729641147f7915573c7e97b47efa546f5f6e3230263bcb49546001600160a01b031690565b919050565b6000828152600460205260409020600101546110608161106a565b6106a48383611116565b6107588133611290565b60008281526004602090815260408083206001600160a01b038516845290915290205460ff166108485760008281526004602090815260408083206001600160a01b03851684529091529020805460ff191660011790556110d23390565b6001600160a01b0316816001600160a01b0316837f2f8788117e7eff1d82e926ec794901d17c78024a50270940304540a733656f0d60405160405180910390a45050565b60008281526004602090815260408083206001600160a01b038516845290915290205460ff16156108485760008281526004602090815260408083206001600160a01b0385168085529252808320805460ff1916905551339285917ff6391f5c32d9c69d2a47ea670b442974b53935d1edc7fd64eb21e047a839171b9190a45050565b6001600160a01b0383163b6111f05760405162461bcd60e51b815260206004820152601b60248201527f50726f78793a206e6f7420636f6e74726163742061646472657373000000000060448201526064016101e3565b801561122b576000828152600160205260409020805473ffffffffffffffffffffffffffffffffffffffff19166001600160a01b0385161790555b6106a483825b6001600160a01b038216600081815260026020908152604091829020805460ff191685151590811790915591519182527f72558d9bfba4210f9ef095c782589484151f6d90f7a81bb3cb9b33efc695d324910160405180910390a25050565b60008281526004602090815260408083206001600160a01b038516845290915290205460ff16610848576112c381611305565b6112ce836020611317565b6040516020016112df9291906116dd565b60408051601f198184030181529082905262461bcd60e51b82526101e39160040161175e565b60606106da6001600160a01b03831660145b60606000611326836002611791565b6113319060026117a8565b67ffffffffffffffff811115611349576113496117bb565b6040519080825280601f01601f191660200182016040528015611373576020820181803683370190505b509050600360fc1b8160008151811061138e5761138e611674565b60200101906001600160f81b031916908160001a905350600f60fb1b816001815181106113bd576113bd611674565b60200101906001600160f81b031916908160001a90535060006113e1846002611791565b6113ec9060016117a8565b90505b6001811115611471577f303132333435363738396162636465660000000000000000000000000000000085600f166010811061142d5761142d611674565b1a60f81b82828151811061144357611443611674565b60200101906001600160f81b031916908160001a90535060049490941c9361146a816117d1565b90506113ef565b5083156114c05760405162461bcd60e51b815260206004820181905260248201527f537472696e67733a20686578206c656e67746820696e73756666696369656e7460448201526064016101e3565b9392505050565b6000602082840312156114d957600080fd5b81356001600160e01b0319811681146114c057600080fd5b80356001600160a01b038116811461104057600080fd5b60006020828403121561151a57600080fd5b6114c0826114f1565b60006020828403121561153557600080fd5b5035919050565b6000806040838503121561154f57600080fd5b8235915061155f602084016114f1565b90509250929050565b60008060006040848603121561157d57600080fd5b833567ffffffffffffffff8082111561159557600080fd5b818601915086601f8301126115a957600080fd5b8135818111156115b857600080fd5b8760208260051b85010111156115cd57600080fd5b6020928301955093506115e391860190506114f1565b90509250925092565b8035801515811461104057600080fd5b6000806040838503121561160f57600080fd5b611618836114f1565b915061155f602084016115ec565b60006020828403121561163857600080fd5b6114c0826115ec565b60008060006060848603121561165657600080fd5b61165f846114f1565b9250602084013591506115e3604085016115ec565b634e487b7160e01b600052603260045260246000fd5b634e487b7160e01b600052601160045260246000fd5b6000600182016116b2576116b261168a565b5060010190565b60005b838110156116d45781810151838201526020016116bc565b50506000910152565b7f416363657373436f6e74726f6c3a206163636f756e74200000000000000000008152600083516117158160178501602088016116b9565b7f206973206d697373696e6720726f6c652000000000000000000000000000000060179184019182015283516117528160288401602088016116b9565b01602801949350505050565b602081526000825180602084015261177d8160408501602087016116b9565b601f01601f19169190910160400192915050565b80820281158282048414176106da576106da61168a565b808201808211156106da576106da61168a565b634e487b7160e01b600052604160045260246000fd5b6000816117e0576117e061168a565b50600019019056fe41636365737369626c653a2043616c6c6572206973206e6f7420616e2061646da164736f6c6343000812000adf8b4c520ffe197c5343c6f5aec59570151ef9a492f2c624fd45ddde6135ec42",
  "linkReferences": {},
  "deployedLinkReferences": {}
}