{
  "address": "0x1B6fEc76b0760b620687008e998831C3A26128fA",
  "abi": [
    {
      "anonymous": false,
      "inputs": [
        {
          "indexed": false,
          "internalType": "address",
          "name": "l2Token",
          "type": "address"
        },
        {
          "indexed": true,
          "internalType": "address",
          "name": "from",
          "type": "address"
        },
        {
          "indexed": false,
          "internalType": "uint256",
          "name": "tier",
          "type": "uint256"
        }
      ],
      "name": "AddedWhiteList",
      "type": "event"
    },
    {
      "anonymous": false,
      "inputs": [
        {
          "indexed": false,
          "internalType": "address",
          "name": "l2Token",
          "type": "address"
        },
        {
          "indexed": true,
          "internalType": "address",
          "name": "from",
          "type": "address"
        },
        {
          "indexed": false,
          "internalType": "uint256",
          "name": "amount",
          "type": "uint256"
        }
      ],
      "name": "Claimed",
      "type": "event"
    },
    {
      "anonymous": false,
      "inputs": [
        {
          "indexed": false,
          "internalType": "address",
          "name": "l2Token",
          "type": "address"
        },
        {
          "indexed": true,
          "internalType": "address",
          "name": "from",
          "type": "address"
        },
        {
          "indexed": false,
          "internalType": "uint256",
          "name": "amount",
          "type": "uint256"
        },
        {
          "indexed": false,
          "internalType": "uint256",
          "name": "liquidityAmount",
          "type": "uint256"
        }
      ],
      "name": "DepositWithdrawal",
      "type": "event"
    },
    {
      "anonymous": false,
      "inputs": [
        {
          "indexed": false,
          "internalType": "address",
          "name": "l2Token",
          "type": "address"
        },
        {
          "indexed": true,
          "internalType": "address",
          "name": "from",
          "type": "address"
        },
        {
          "indexed": false,
          "internalType": "uint256",
          "name": "amount",
          "type": "uint256"
        }
      ],
      "name": "Deposited",
      "type": "event"
    },
    {
      "anonymous": false,
      "inputs": [
        {
          "indexed": false,
          "internalType": "address",
          "name": "l2Token",
          "type": "address"
        },
        {
          "indexed": true,
          "internalType": "address",
          "name": "from",
          "type": "address"
        },
        {
          "indexed": false,
          "internalType": "uint256",
          "name": "amountIn",
          "type": "uint256"
        },
        {
          "indexed": false,
          "internalType": "uint256",
          "name": "amountOut",
          "type": "uint256"
        }
      ],
      "name": "ExchangeSwap",
      "type": "event"
    },
    {
      "anonymous": false,
      "inputs": [
        {
          "indexed": false,
          "internalType": "address",
          "name": "l2Token",
          "type": "address"
        },
        {
          "indexed": true,
          "internalType": "address",
          "name": "from",
          "type": "address"
        },
        {
          "indexed": false,
          "internalType": "uint256",
          "name": "amount",
          "type": "uint256"
        }
      ],
      "name": "ExclusiveSaled",
      "type": "event"
    },
    {
      "anonymous": false,
      "inputs": [
        {
          "indexed": false,
          "internalType": "address",
          "name": "l2Token",
          "type": "address"
        },
        {
          "indexed": true,
          "internalType": "address",
          "name": "from",
          "type": "address"
        },
        {
          "indexed": false,
          "internalType": "uint256",
          "name": "amount",
          "type": "uint256"
        }
      ],
      "name": "Refunded",
      "type": "event"
    },
    {
      "anonymous": false,
      "inputs": [
        {
          "indexed": true,
          "internalType": "bytes32",
          "name": "role",
          "type": "bytes32"
        },
        {
          "indexed": true,
          "internalType": "bytes32",
          "name": "previousAdminRole",
          "type": "bytes32"
        },
        {
          "indexed": true,
          "internalType": "bytes32",
          "name": "newAdminRole",
          "type": "bytes32"
        }
      ],
      "name": "RoleAdminChanged",
      "type": "event"
    },
    {
      "anonymous": false,
      "inputs": [
        {
          "indexed": true,
          "internalType": "bytes32",
          "name": "role",
          "type": "bytes32"
        },
        {
          "indexed": true,
          "internalType": "address",
          "name": "account",
          "type": "address"
        },
        {
          "indexed": true,
          "internalType": "address",
          "name": "sender",
          "type": "address"
        }
      ],
      "name": "RoleGranted",
      "type": "event"
    },
    {
      "anonymous": false,
      "inputs": [
        {
          "indexed": true,
          "internalType": "bytes32",
          "name": "role",
          "type": "bytes32"
        },
        {
          "indexed": true,
          "internalType": "address",
          "name": "account",
          "type": "address"
        },
        {
          "indexed": true,
          "internalType": "address",
          "name": "sender",
          "type": "address"
        }
      ],
      "name": "RoleRevoked",
      "type": "event"
    },
    {
      "anonymous": false,
      "inputs": [
        {
          "indexed": false,
          "internalType": "address",
          "name": "newInitializer",
          "type": "address"
        }
      ],
      "name": "SetInitializer",
      "type": "event"
    },
    {
      "anonymous": false,
      "inputs": [
        {
          "indexed": false,
          "internalType": "address",
          "name": "l2Token",
          "type": "address"
        },
        {
          "indexed": false,
          "internalType": "address",
          "name": "newAdmin",
          "type": "address"
        }
      ],
      "name": "SetVaultAdmin",
      "type": "event"
    },
    {
      "inputs": [],
      "name": "ADMIN_ROLE",
      "outputs": [
        {
          "internalType": "bytes32",
          "name": "",
          "type": "bytes32"
        }
      ],
      "stateMutability": "view",
      "type": "function"
    },
    {
      "inputs": [],
      "name": "DEFAULT_ADMIN_ROLE",
      "outputs": [
        {
          "internalType": "bytes32",
          "name": "",
          "type": "bytes32"
        }
      ],
      "stateMutability": "view",
      "type": "function"
    },
    {
      "inputs": [],
      "name": "POLICY_ROLE",
      "outputs": [
        {
          "internalType": "bytes32",
          "name": "",
          "type": "bytes32"
        }
      ],
      "stateMutability": "view",
      "type": "function"
    },
    {
      "inputs": [],
      "name": "_WETH",
      "outputs": [
        {
          "internalType": "contract IWETH",
          "name": "",
          "type": "address"
        }
      ],
      "stateMutability": "view",
      "type": "function"
    },
    {
      "inputs": [
        {
          "internalType": "address",
          "name": "account",
          "type": "address"
        }
      ],
      "name": "addAdmin",
      "outputs": [],
      "stateMutability": "nonpayable",
      "type": "function"
    },
    {
      "inputs": [
        {
          "internalType": "address",
          "name": "",
          "type": "address"
        }
      ],
      "name": "aliveImplementation",
      "outputs": [
        {
          "internalType": "bool",
          "name": "",
          "type": "bool"
        }
      ],
      "stateMutability": "view",
      "type": "function"
    },
    {
      "inputs": [],
      "name": "changeTick",
      "outputs": [
        {
          "internalType": "int24",
          "name": "",
          "type": "int24"
        }
      ],
      "stateMutability": "view",
      "type": "function"
    },
    {
      "inputs": [
        {
          "internalType": "address",
          "name": "",
          "type": "address"
        }
      ],
      "name": "claimInfo",
      "outputs": [
        {
          "internalType": "uint256",
          "name": "totalClaimCounts",
          "type": "uint256"
        },
        {
          "internalType": "uint256",
          "name": "firstClaimPercent",
          "type": "uint256"
        },
        {
          "internalType": "uint256",
          "name": "firstClaimTime",
          "type": "uint256"
        },
        {
          "internalType": "uint256",
          "name": "secondClaimTime",
          "type": "uint256"
        },
        {
          "internalType": "uint256",
          "name": "claimInterval",
          "type": "uint256"
        }
      ],
      "stateMutability": "view",
      "type": "function"
    },
    {
      "inputs": [
        {
          "internalType": "address",
          "name": "",
          "type": "address"
        },
        {
          "internalType": "uint256",
          "name": "",
          "type": "uint256"
        }
      ],
      "name": "claimPercents",
      "outputs": [
        {
          "internalType": "uint256",
          "name": "",
          "type": "uint256"
        }
      ],
      "stateMutability": "view",
      "type": "function"
    },
    {
      "inputs": [
        {
          "internalType": "address",
          "name": "",
          "type": "address"
        },
        {
          "internalType": "uint256",
          "name": "",
          "type": "uint256"
        }
      ],
      "name": "claimTimes",
      "outputs": [
        {
          "internalType": "uint256",
          "name": "",
          "type": "uint256"
        }
      ],
      "stateMutability": "view",
      "type": "function"
    },
    {
      "inputs": [],
      "name": "delayTime",
      "outputs": [
        {
          "internalType": "uint256",
          "name": "",
          "type": "uint256"
        }
      ],
      "stateMutability": "view",
      "type": "function"
    },
    {
      "inputs": [
        {
          "internalType": "address",
          "name": "",
          "type": "address"
        },
        {
          "internalType": "uint256",
          "name": "",
          "type": "uint256"
        }
      ],
      "name": "depositors",
      "outputs": [
        {
          "internalType": "address",
          "name": "",
          "type": "address"
        }
      ],
      "stateMutability": "view",
      "type": "function"
    },
    {
      "inputs": [
        {
          "internalType": "bytes32",
          "name": "role",
          "type": "bytes32"
        }
      ],
      "name": "getRoleAdmin",
      "outputs": [
        {
          "internalType": "bytes32",
          "name": "",
          "type": "bytes32"
        }
      ],
      "stateMutability": "view",
      "type": "function"
    },
    {
      "inputs": [
        {
          "internalType": "bytes32",
          "name": "role",
          "type": "bytes32"
        },
        {
          "internalType": "address",
          "name": "account",
          "type": "address"
        }
      ],
      "name": "grantRole",
      "outputs": [],
      "stateMutability": "nonpayable",
      "type": "function"
    },
    {
      "inputs": [
        {
          "internalType": "bytes32",
          "name": "role",
          "type": "bytes32"
        },
        {
          "internalType": "address",
          "name": "account",
          "type": "address"
        }
      ],
      "name": "hasRole",
      "outputs": [
        {
          "internalType": "bool",
          "name": "",
          "type": "bool"
        }
      ],
      "stateMutability": "view",
      "type": "function"
    },
    {
      "inputs": [
        {
          "internalType": "address[7]",
          "name": "_setAddress",
          "type": "address[7]"
        },
        {
          "internalType": "uint8",
          "name": "_min",
          "type": "uint8"
        },
        {
          "internalType": "uint8",
          "name": "_max",
          "type": "uint8"
        },
        {
          "internalType": "uint256",
          "name": "_tier1",
          "type": "uint256"
        },
        {
          "internalType": "uint256",
          "name": "_tier2",
          "type": "uint256"
        },
        {
          "internalType": "uint256",
          "name": "_tier3",
          "type": "uint256"
        },
        {
          "internalType": "uint256",
          "name": "_tier4",
          "type": "uint256"
        },
        {
          "internalType": "uint256",
          "name": "_delayTime",
          "type": "uint256"
        }
      ],
      "name": "initialize",
      "outputs": [],
      "stateMutability": "nonpayable",
      "type": "function"
    },
    {
      "inputs": [
        {
          "internalType": "address",
          "name": "account",
          "type": "address"
        }
      ],
      "name": "isAdmin",
      "outputs": [
        {
          "internalType": "bool",
          "name": "",
          "type": "bool"
        }
      ],
      "stateMutability": "view",
      "type": "function"
    },
    {
      "inputs": [],
      "name": "isL2ProjectManager",
      "outputs": [
        {
          "internalType": "bool",
          "name": "",
          "type": "bool"
        }
      ],
      "stateMutability": "view",
      "type": "function"
    },
    {
      "inputs": [
        {
          "internalType": "address",
          "name": "l2Token",
          "type": "address"
        }
      ],
      "name": "isL2Token",
      "outputs": [
        {
          "internalType": "bool",
          "name": "",
          "type": "bool"
        }
      ],
      "stateMutability": "view",
      "type": "function"
    },
    {
      "inputs": [
        {
          "internalType": "address",
          "name": "l2Token",
          "type": "address"
        },
        {
          "internalType": "address",
          "name": "account",
          "type": "address"
        }
      ],
      "name": "isVaultAdmin",
      "outputs": [
        {
          "internalType": "bool",
          "name": "",
          "type": "bool"
        }
      ],
      "stateMutability": "view",
      "type": "function"
    },
    {
      "inputs": [],
      "name": "l1burnVault",
      "outputs": [
        {
          "internalType": "address",
          "name": "",
          "type": "address"
        }
      ],
      "stateMutability": "view",
      "type": "function"
    },
    {
      "inputs": [],
      "name": "l2Bridge",
      "outputs": [
        {
          "internalType": "address",
          "name": "",
          "type": "address"
        }
      ],
      "stateMutability": "view",
      "type": "function"
    },
    {
      "inputs": [],
      "name": "l2ProjectManager",
      "outputs": [
        {
          "internalType": "address",
          "name": "",
          "type": "address"
        }
      ],
      "stateMutability": "view",
      "type": "function"
    },
    {
      "inputs": [],
      "name": "liquidityVault",
      "outputs": [
        {
          "internalType": "address",
          "name": "",
          "type": "address"
        }
      ],
      "stateMutability": "view",
      "type": "function"
    },
    {
      "inputs": [],
      "name": "lockTOS",
      "outputs": [
        {
          "internalType": "address",
          "name": "",
          "type": "address"
        }
      ],
      "stateMutability": "view",
      "type": "function"
    },
    {
      "inputs": [
        {
          "internalType": "address",
          "name": "",
          "type": "address"
        }
      ],
      "name": "manageInfo",
      "outputs": [
        {
          "internalType": "uint256",
          "name": "set1rdTokenAmount",
          "type": "uint256"
        },
        {
          "internalType": "uint256",
          "name": "set2rdTokenAmount",
          "type": "uint256"
        },
        {
          "internalType": "uint256",
          "name": "saleTokenPrice",
          "type": "uint256"
        },
        {
          "internalType": "uint256",
          "name": "tonPrice",
          "type": "uint256"
        },
        {
          "internalType": "uint256",
          "name": "hardCap",
          "type": "uint256"
        },
        {
          "internalType": "uint256",
          "name": "changeTOS",
          "type": "uint256"
        },
        {
          "internalType": "uint256",
          "name": "remainTON",
          "type": "uint256"
        },
        {
          "internalType": "int24",
          "name": "changeTick",
          "type": "int24"
        },
        {
          "internalType": "bool",
          "name": "exchangeTOS",
          "type": "bool"
        },
        {
          "internalType": "bool",
          "name": "adminWithdraw",
          "type": "bool"
        }
      ],
      "stateMutability": "view",
      "type": "function"
    },
    {
      "inputs": [],
      "name": "maxPer",
      "outputs": [
        {
          "internalType": "uint8",
          "name": "",
          "type": "uint8"
        }
      ],
      "stateMutability": "view",
      "type": "function"
    },
    {
      "inputs": [],
      "name": "minPer",
      "outputs": [
        {
          "internalType": "uint8",
          "name": "",
          "type": "uint8"
        }
      ],
      "stateMutability": "view",
      "type": "function"
    },
    {
      "inputs": [],
      "name": "pauseProxy",
      "outputs": [
        {
          "internalType": "bool",
          "name": "",
          "type": "bool"
        }
      ],
      "stateMutability": "view",
      "type": "function"
    },
    {
      "inputs": [],
      "name": "poolFee",
      "outputs": [
        {
          "internalType": "uint24",
          "name": "",
          "type": "uint24"
        }
      ],
      "stateMutability": "view",
      "type": "function"
    },
    {
      "inputs": [
        {
          "internalType": "uint256",
          "name": "",
          "type": "uint256"
        }
      ],
      "name": "proxyImplementation",
      "outputs": [
        {
          "internalType": "address",
          "name": "",
          "type": "address"
        }
      ],
      "stateMutability": "view",
      "type": "function"
    },
    {
      "inputs": [],
      "name": "quoter",
      "outputs": [
        {
          "internalType": "address",
          "name": "",
          "type": "address"
        }
      ],
      "stateMutability": "view",
      "type": "function"
    },
    {
      "inputs": [
        {
          "internalType": "address",
          "name": "account",
          "type": "address"
        }
      ],
      "name": "removeAdmin",
      "outputs": [],
      "stateMutability": "nonpayable",
      "type": "function"
    },
    {
      "inputs": [
        {
          "internalType": "bytes32",
          "name": "role",
          "type": "bytes32"
        },
        {
          "internalType": "address",
          "name": "account",
          "type": "address"
        }
      ],
      "name": "renounceRole",
      "outputs": [],
      "stateMutability": "nonpayable",
      "type": "function"
    },
    {
      "inputs": [
        {
          "internalType": "bytes32",
          "name": "role",
          "type": "bytes32"
        },
        {
          "internalType": "address",
          "name": "account",
          "type": "address"
        }
      ],
      "name": "revokeRole",
      "outputs": [],
      "stateMutability": "nonpayable",
      "type": "function"
    },
    {
      "inputs": [
        {
          "internalType": "address",
          "name": "",
          "type": "address"
        }
      ],
      "name": "saleInfo",
      "outputs": [
        {
          "internalType": "uint256",
          "name": "total1rdSaleAmount",
          "type": "uint256"
        },
        {
          "internalType": "uint256",
          "name": "total1rdTONAmount",
          "type": "uint256"
        },
        {
          "internalType": "uint256",
          "name": "totalUsers",
          "type": "uint256"
        },
        {
          "internalType": "uint256",
          "name": "total1rdUsers",
          "type": "uint256"
        },
        {
          "internalType": "uint256",
          "name": "total2rdUsers",
          "type": "uint256"
        },
        {
          "internalType": "uint256",
          "name": "total2rdUsersClaim",
          "type": "uint256"
        }
      ],
      "stateMutability": "view",
      "type": "function"
    },
    {
      "inputs": [
        {
          "internalType": "bytes4",
          "name": "",
          "type": "bytes4"
        }
      ],
      "name": "selectorImplementation",
      "outputs": [
        {
          "internalType": "address",
          "name": "",
          "type": "address"
        }
      ],
      "stateMutability": "view",
      "type": "function"
    },
    {
      "inputs": [
        {
          "internalType": "address",
          "name": "_l2token",
          "type": "address"
        },
        {
          "internalType": "uint256",
          "name": "_startAddWhiteTime",
          "type": "uint256"
        },
        {
          "internalType": "uint256",
          "name": "_endAddWhiteTime",
          "type": "uint256"
        },
        {
          "internalType": "uint256",
          "name": "_startExclusiveTime",
          "type": "uint256"
        },
        {
          "internalType": "uint256",
          "name": "_endExclusiveTime",
          "type": "uint256"
        }
      ],
      "name": "set1RoundTime",
      "outputs": [],
      "stateMutability": "nonpayable",
      "type": "function"
    },
    {
      "inputs": [
        {
          "internalType": "address",
          "name": "_l2token",
          "type": "address"
        },
        {
          "internalType": "uint256",
          "name": "_snapshot",
          "type": "uint256"
        },
        {
          "internalType": "uint256",
          "name": "_startDepositTime",
          "type": "uint256"
        },
        {
          "internalType": "uint256",
          "name": "_endDepositTime",
          "type": "uint256"
        }
      ],
      "name": "set2RoundTime",
      "outputs": [],
      "stateMutability": "nonpayable",
      "type": "function"
    },
    {
      "inputs": [
        {
          "internalType": "address[7]",
          "name": "_setAddress",
          "type": "address[7]"
        }
      ],
      "name": "setAddress",
      "outputs": [],
      "stateMutability": "nonpayable",
      "type": "function"
    },
    {
      "inputs": [
        {
          "internalType": "address",
          "name": "_l2token",
          "type": "address"
        },
        {
          "internalType": "uint256",
          "name": "_totalExpectSaleAmount",
          "type": "uint256"
        },
        {
          "internalType": "uint256",
          "name": "_totalExpectOpenSaleAmount",
          "type": "uint256"
        },
        {
          "internalType": "uint256",
          "name": "_saleTokenPrice",
          "type": "uint256"
        },
        {
          "internalType": "uint256",
          "name": "_payTokenPrice",
          "type": "uint256"
        },
        {
          "internalType": "uint256",
          "name": "_hardcapAmount",
          "type": "uint256"
        },
        {
          "internalType": "uint256",
          "name": "_changePercent",
          "type": "uint256"
        },
        {
          "internalType": "uint256",
          "name": "_changeTick",
          "type": "uint256"
        }
      ],
      "name": "setAllAmount",
      "outputs": [],
      "stateMutability": "nonpayable",
      "type": "function"
    },
    {
      "inputs": [
        {
          "internalType": "address",
          "name": "_l2Bridge",
          "type": "address"
        },
        {
          "internalType": "address",
          "name": "_l1burnVault",
          "type": "address"
        }
      ],
      "name": "setBurnBridge",
      "outputs": [],
      "stateMutability": "nonpayable",
      "type": "function"
    },
    {
      "inputs": [
        {
          "internalType": "address",
          "name": "_l2token",
          "type": "address"
        },
        {
          "internalType": "uint256",
          "name": "_claimCounts",
          "type": "uint256"
        },
        {
          "internalType": "uint256",
          "name": "_firstClaimPercents",
          "type": "uint256"
        },
        {
          "internalType": "uint256",
          "name": "_firstClaimTime",
          "type": "uint256"
        },
        {
          "internalType": "uint256",
          "name": "_secondClaimTime",
          "type": "uint256"
        },
        {
          "internalType": "uint256",
          "name": "_roundInterval",
          "type": "uint256"
        }
      ],
      "name": "setClaimTime",
      "outputs": [],
      "stateMutability": "nonpayable",
      "type": "function"
    },
    {
      "inputs": [
        {
          "internalType": "uint256",
          "name": "_delay",
          "type": "uint256"
        }
      ],
      "name": "setDelayTime",
      "outputs": [],
      "stateMutability": "nonpayable",
      "type": "function"
    },
    {
      "inputs": [
        {
          "internalType": "address",
          "name": "_l2ProjectManager",
          "type": "address"
        }
      ],
      "name": "setL2ProjectManager",
      "outputs": [],
      "stateMutability": "nonpayable",
      "type": "function"
    },
    {
      "inputs": [
        {
          "internalType": "uint8",
          "name": "_min",
          "type": "uint8"
        },
        {
          "internalType": "uint8",
          "name": "_max",
          "type": "uint8"
        }
      ],
      "name": "setMaxMinPercent",
      "outputs": [],
      "stateMutability": "nonpayable",
      "type": "function"
    },
    {
      "inputs": [
        {
          "internalType": "uint256",
          "name": "_tier1",
          "type": "uint256"
        },
        {
          "internalType": "uint256",
          "name": "_tier2",
          "type": "uint256"
        },
        {
          "internalType": "uint256",
          "name": "_tier3",
          "type": "uint256"
        },
        {
          "internalType": "uint256",
          "name": "_tier4",
          "type": "uint256"
        }
      ],
      "name": "setSTOSstandard",
      "outputs": [],
      "stateMutability": "nonpayable",
      "type": "function"
    },
    {
      "inputs": [
        {
          "internalType": "address",
          "name": "_l2token",
          "type": "address"
        },
        {
          "internalType": "uint256",
          "name": "_tier1",
          "type": "uint256"
        },
        {
          "internalType": "uint256",
          "name": "_tier2",
          "type": "uint256"
        },
        {
          "internalType": "uint256",
          "name": "_tier3",
          "type": "uint256"
        },
        {
          "internalType": "uint256",
          "name": "_tier4",
          "type": "uint256"
        }
      ],
      "name": "setTier",
      "outputs": [],
      "stateMutability": "nonpayable",
      "type": "function"
    },
    {
      "inputs": [
        {
          "internalType": "address",
          "name": "_l2token",
          "type": "address"
        },
        {
          "internalType": "uint256",
          "name": "_tier1Percents",
          "type": "uint256"
        },
        {
          "internalType": "uint256",
          "name": "_tier2Percents",
          "type": "uint256"
        },
        {
          "internalType": "uint256",
          "name": "_tier3Percents",
          "type": "uint256"
        },
        {
          "internalType": "uint256",
          "name": "_tier4Percents",
          "type": "uint256"
        }
      ],
      "name": "setTierPercents",
      "outputs": [],
      "stateMutability": "nonpayable",
      "type": "function"
    },
    {
      "inputs": [
        {
          "internalType": "address",
          "name": "l2Token",
          "type": "address"
        },
        {
          "internalType": "address",
          "name": "_newAdmin",
          "type": "address"
        }
      ],
      "name": "setVaultAdmin",
      "outputs": [],
      "stateMutability": "nonpayable",
      "type": "function"
    },
    {
      "inputs": [],
      "name": "stanTier1",
      "outputs": [
        {
          "internalType": "uint256",
          "name": "",
          "type": "uint256"
        }
      ],
      "stateMutability": "view",
      "type": "function"
    },
    {
      "inputs": [],
      "name": "stanTier2",
      "outputs": [
        {
          "internalType": "uint256",
          "name": "",
          "type": "uint256"
        }
      ],
      "stateMutability": "view",
      "type": "function"
    },
    {
      "inputs": [],
      "name": "stanTier3",
      "outputs": [
        {
          "internalType": "uint256",
          "name": "",
          "type": "uint256"
        }
      ],
      "stateMutability": "view",
      "type": "function"
    },
    {
      "inputs": [],
      "name": "stanTier4",
      "outputs": [
        {
          "internalType": "uint256",
          "name": "",
          "type": "uint256"
        }
      ],
      "stateMutability": "view",
      "type": "function"
    },
    {
      "inputs": [
        {
          "internalType": "bytes4",
          "name": "interfaceId",
          "type": "bytes4"
        }
      ],
      "name": "supportsInterface",
      "outputs": [
        {
          "internalType": "bool",
          "name": "",
          "type": "bool"
        }
      ],
      "stateMutability": "view",
      "type": "function"
    },
    {
      "inputs": [
        {
          "internalType": "address",
          "name": "",
          "type": "address"
        },
        {
          "internalType": "uint8",
          "name": "",
          "type": "uint8"
        }
      ],
      "name": "tiers",
      "outputs": [
        {
          "internalType": "uint256",
          "name": "",
          "type": "uint256"
        }
      ],
      "stateMutability": "view",
      "type": "function"
    },
    {
      "inputs": [
        {
          "internalType": "address",
          "name": "",
          "type": "address"
        },
        {
          "internalType": "uint8",
          "name": "",
          "type": "uint8"
        }
      ],
      "name": "tiers1stAccount",
      "outputs": [
        {
          "internalType": "uint256",
          "name": "",
          "type": "uint256"
        }
      ],
      "stateMutability": "view",
      "type": "function"
    },
    {
      "inputs": [
        {
          "internalType": "address",
          "name": "",
          "type": "address"
        },
        {
          "internalType": "uint8",
          "name": "",
          "type": "uint8"
        }
      ],
      "name": "tiersCalculAccount",
      "outputs": [
        {
          "internalType": "uint256",
          "name": "",
          "type": "uint256"
        }
      ],
      "stateMutability": "view",
      "type": "function"
    },
    {
      "inputs": [
        {
          "internalType": "address",
          "name": "",
          "type": "address"
        },
        {
          "internalType": "uint8",
          "name": "",
          "type": "uint8"
        }
      ],
      "name": "tiersPercents",
      "outputs": [
        {
          "internalType": "uint256",
          "name": "",
          "type": "uint256"
        }
      ],
      "stateMutability": "view",
      "type": "function"
    },
    {
      "inputs": [
        {
          "internalType": "address",
          "name": "",
          "type": "address"
        },
        {
          "internalType": "uint8",
          "name": "",
          "type": "uint8"
        }
      ],
      "name": "tiersWhiteList",
      "outputs": [
        {
          "internalType": "uint256",
          "name": "",
          "type": "uint256"
        }
      ],
      "stateMutability": "view",
      "type": "function"
    },
    {
      "inputs": [
        {
          "internalType": "address",
          "name": "",
          "type": "address"
        }
      ],
      "name": "timeInfo",
      "outputs": [
        {
          "internalType": "uint256",
          "name": "deployTime",
          "type": "uint256"
        },
        {
          "internalType": "uint256",
          "name": "snapshot",
          "type": "uint256"
        },
        {
          "internalType": "uint256",
          "name": "whiteListStartTime",
          "type": "uint256"
        },
        {
          "internalType": "uint256",
          "name": "whiteListEndTime",
          "type": "uint256"
        },
        {
          "internalType": "uint256",
          "name": "round1StartTime",
          "type": "uint256"
        },
        {
          "internalType": "uint256",
          "name": "round1EndTime",
          "type": "uint256"
        },
        {
          "internalType": "uint256",
          "name": "round2StartTime",
          "type": "uint256"
        },
        {
          "internalType": "uint256",
          "name": "round2EndTime",
          "type": "uint256"
        }
      ],
      "stateMutability": "view",
      "type": "function"
    },
    {
      "inputs": [],
      "name": "ton",
      "outputs": [
        {
          "internalType": "address",
          "name": "",
          "type": "address"
        }
      ],
      "stateMutability": "view",
      "type": "function"
    },
    {
      "inputs": [],
      "name": "tos",
      "outputs": [
        {
          "internalType": "address",
          "name": "",
          "type": "address"
        }
      ],
      "stateMutability": "view",
      "type": "function"
    },
    {
      "inputs": [
        {
          "internalType": "address",
          "name": "",
          "type": "address"
        }
      ],
      "name": "totalDepositAmount",
      "outputs": [
        {
          "internalType": "uint256",
          "name": "",
          "type": "uint256"
        }
      ],
      "stateMutability": "view",
      "type": "function"
    },
    {
      "inputs": [
        {
          "internalType": "address",
          "name": "newAdmin",
          "type": "address"
        }
      ],
      "name": "transferAdmin",
      "outputs": [],
      "stateMutability": "nonpayable",
      "type": "function"
    },
    {
      "inputs": [],
      "name": "uniswapRouter",
      "outputs": [
        {
          "internalType": "address",
          "name": "",
          "type": "address"
        }
      ],
      "stateMutability": "view",
      "type": "function"
    },
    {
      "inputs": [
        {
          "internalType": "address",
          "name": "",
          "type": "address"
        },
        {
          "internalType": "address",
          "name": "",
          "type": "address"
        }
      ],
      "name": "user1rd",
      "outputs": [
        {
          "internalType": "bool",
          "name": "join",
          "type": "bool"
        },
        {
          "internalType": "uint8",
          "name": "tier",
          "type": "uint8"
        },
        {
          "internalType": "uint256",
          "name": "payAmount",
          "type": "uint256"
        },
        {
          "internalType": "uint256",
          "name": "saleAmount",
          "type": "uint256"
        }
      ],
      "stateMutability": "view",
      "type": "function"
    },
    {
      "inputs": [
        {
          "internalType": "address",
          "name": "",
          "type": "address"
        },
        {
          "internalType": "address",
          "name": "",
          "type": "address"
        }
      ],
      "name": "user2rd",
      "outputs": [
        {
          "internalType": "bool",
          "name": "join",
          "type": "bool"
        },
        {
          "internalType": "uint256",
          "name": "depositAmount",
          "type": "uint256"
        }
      ],
      "stateMutability": "view",
      "type": "function"
    },
    {
      "inputs": [
        {
          "internalType": "address",
          "name": "",
          "type": "address"
        },
        {
          "internalType": "address",
          "name": "",
          "type": "address"
        }
      ],
      "name": "userClaim",
      "outputs": [
        {
          "internalType": "bool",
          "name": "refund",
          "type": "bool"
        },
        {
          "internalType": "uint256",
          "name": "claimAmount",
          "type": "uint256"
        },
        {
          "internalType": "uint256",
          "name": "refundAmount",
          "type": "uint256"
        },
        {
          "internalType": "uint256",
          "name": "latestClaimedRound",
          "type": "uint256"
        }
      ],
      "stateMutability": "view",
      "type": "function"
    },
    {
      "inputs": [
        {
          "internalType": "address",
          "name": "",
          "type": "address"
        }
      ],
      "name": "vaultAdminOfToken",
      "outputs": [
        {
          "internalType": "address",
          "name": "",
          "type": "address"
        }
      ],
      "stateMutability": "view",
      "type": "function"
    },
    {
      "inputs": [
        {
          "internalType": "address",
          "name": "_l2token",
          "type": "address"
        },
        {
          "components": [
            {
              "internalType": "uint256",
              "name": "stosTier1",
              "type": "uint256"
            },
            {
              "internalType": "uint256",
              "name": "stosTier2",
              "type": "uint256"
            },
            {
              "internalType": "uint256",
              "name": "stosTier3",
              "type": "uint256"
            },
            {
              "internalType": "uint256",
              "name": "stosTier4",
              "type": "uint256"
            },
            {
              "internalType": "uint256",
              "name": "tier1Percents",
              "type": "uint256"
            },
            {
              "internalType": "uint256",
              "name": "tier2Percents",
              "type": "uint256"
            },
            {
              "internalType": "uint256",
              "name": "tier3Percents",
              "type": "uint256"
            },
            {
              "internalType": "uint256",
              "name": "tier4Percents",
              "type": "uint256"
            },
            {
              "internalType": "uint256",
              "name": "total1roundSaleAmount",
              "type": "uint256"
            },
            {
              "internalType": "uint256",
              "name": "total2roundSaleAmount",
              "type": "uint256"
            },
            {
              "internalType": "uint256",
              "name": "saleTokenPrice",
              "type": "uint256"
            },
            {
              "internalType": "uint256",
              "name": "payTokenPrice",
              "type": "uint256"
            },
            {
              "internalType": "uint256",
              "name": "hardcapAmount",
              "type": "uint256"
            },
            {
              "internalType": "uint256",
              "name": "changeTOSPercent",
              "type": "uint256"
            },
            {
              "internalType": "uint256",
              "name": "startWhiteTime",
              "type": "uint256"
            },
            {
              "internalType": "uint256",
              "name": "endWhiteTime",
              "type": "uint256"
            },
            {
              "internalType": "uint256",
              "name": "start1roundTime",
              "type": "uint256"
            },
            {
              "internalType": "uint256",
              "name": "end1roundTime",
              "type": "uint256"
            },
            {
              "internalType": "uint256",
              "name": "snapshotTime",
              "type": "uint256"
            },
            {
              "internalType": "uint256",
              "name": "start2roundTime",
              "type": "uint256"
            },
            {
              "internalType": "uint256",
              "name": "end2roundTime",
              "type": "uint256"
            }
          ],
          "internalType": "struct LibProject.InitalParameterPublicSaleVault",
          "name": "params",
          "type": "tuple"
        },
        {
          "components": [
            {
              "internalType": "uint256",
              "name": "claimCounts",
              "type": "uint256"
            },
            {
              "internalType": "uint256",
              "name": "firstClaimPercent",
              "type": "uint256"
            },
            {
              "internalType": "uint256",
              "name": "firstClaimTime",
              "type": "uint256"
            },
            {
              "internalType": "uint256",
              "name": "secondClaimTime",
              "type": "uint256"
            },
            {
              "internalType": "uint256",
              "name": "roundInterval",
              "type": "uint256"
            }
          ],
          "internalType": "struct LibProject.InitalParameterPublicSaleClaim",
          "name": "params2",
          "type": "tuple"
        },
        {
          "components": [
            {
              "internalType": "address",
              "name": "receiveAddress",
              "type": "address"
            },
            {
              "internalType": "uint256",
              "name": "totalClaimCount",
              "type": "uint256"
            },
            {
              "internalType": "uint256",
              "name": "firstClaimPercent",
              "type": "uint256"
            },
            {
              "internalType": "uint256",
              "name": "firstClaimTime",
              "type": "uint256"
            },
            {
              "internalType": "uint256",
              "name": "secondClaimTime",
              "type": "uint256"
            },
            {
              "internalType": "uint256",
              "name": "roundIntervalTime",
              "type": "uint256"
            },
            {
              "internalType": "uint24",
              "name": "fee",
              "type": "uint24"
            }
          ],
          "internalType": "struct LibProject.InitalParameterVestingFundVault",
          "name": "params3",
          "type": "tuple"
        }
      ],
      "name": "vaultInitialize",
      "outputs": [],
      "stateMutability": "nonpayable",
      "type": "function"
    },
    {
      "inputs": [],
      "name": "vestingFund",
      "outputs": [
        {
          "internalType": "address",
          "name": "",
          "type": "address"
        }
      ],
      "stateMutability": "view",
      "type": "function"
    },
    {
      "inputs": [
        {
          "internalType": "address",
          "name": "",
          "type": "address"
        },
        {
          "internalType": "uint256",
          "name": "",
          "type": "uint256"
        }
      ],
      "name": "whitelists",
      "outputs": [
        {
          "internalType": "address",
          "name": "",
          "type": "address"
        }
      ],
      "stateMutability": "view",
      "type": "function"
    },
    {
      "inputs": [],
      "name": "wton",
      "outputs": [
        {
          "internalType": "address",
          "name": "",
          "type": "address"
        }
      ],
      "stateMutability": "view",
      "type": "function"
    }
  ],
  "transactionHash": "0x1e100686103889b7518c111f5f6e645da3528ade9ab17065f29ab049e08b4616",
  "args": [],
  "numDeployments": 1,
  "solcInputHash": "a39f960ad7ae7b0e89cbcab2979ae2a3",
  "bytecode": "0x60806040526015805463ff0000001916630100000017905534801561002357600080fd5b5061418b806100336000396000f3fe608060405234801561001057600080fd5b50600436106104de5760003560e01c8063768b821f11610286578063ae1f6aaf1161016b578063d13da444116100e3578063e0af361611610097578063ea28ef181161007c578063ea28ef1814610e5b578063f3b08cb914610e63578063f5a96ccf14610e7657600080fd5b8063e0af361614610e1a578063e1ff729b14610e2d57600080fd5b8063d7b0b29d116100c8578063d7b0b29d14610d3c578063d97830b114610dac578063dc560fcd14610e1157600080fd5b8063d13da44414610cfe578063d547741f14610d2957600080fd5b8063c0f22d4b1161013a578063cc48b9471161011f578063cc48b94714610cb8578063cf437a8f14610ccb578063d01481a114610ceb57600080fd5b8063c0f22d4b14610c92578063c6bbd5a714610ca557600080fd5b8063ae1f6aaf14610bb7578063b005ed9114610bca578063b18aaf5814610c56578063b911135f14610c6957600080fd5b806391d14854116101fe578063a217fddf116101cd578063a4182343116101b2578063a418234314610b7e578063ac3c467614610b91578063ae148b8714610ba457600080fd5b8063a217fddf14610b62578063a389595f14610b6a57600080fd5b806391d1485414610ad557806397d7859514610b0e5780639f32b29a14610b2e5780639f87b77f14610b5957600080fd5b80637fc46ba8116102555780638951ed181161023a5780638951ed1814610a9457806389f395de14610aa75780638d62d94914610aba57600080fd5b80637fc46ba814610a0357806389293f6514610a2c57600080fd5b8063768b821f146109cb578063790f317f146109d45780637ce4166b146109e75780637e2eee53146109fa57600080fd5b8063466c01b8116103c757806355d6d39b1161033f57806370480275116102f3578063735de9f7116102d8578063735de9f71461097e57806375829def1461099157806375b238fc146109a457600080fd5b80637048027514610958578063708666ad1461096b57600080fd5b80635bb04f70116103245780635bb04f701461092557806363a8fd891461093857806366e7cb921461094557600080fd5b806355d6d39b146108e75780635b19e2941461091257600080fd5b806351e8152a1161039657806352351e851161037b57806352351e851461089e57806353ad4046146108b1578063550d01a3146108c457600080fd5b806351e8152a1461088257806351ebde6d1461089557600080fd5b8063466c01b81461082057806349f5f564146108335780634e6c44661461084657806350d2a2761461085957600080fd5b8063229852461161045a5780632ac9bab61161042957806333efca3d1161040e57806333efca3d146107ab57806335b9ac66146107fa57806336568abe1461080d57600080fd5b80632ac9bab61461076d5780632f2ff15d1461079857600080fd5b806322985246146106fd57806323abde1114610724578063248a9ca31461073757806324d7806c1461075a57600080fd5b806312269758116104b15780631785f53c116104965780631785f53c1461065e5780631916e534146106715780631c53f256146106d757600080fd5b80631226975814610610578063123411181461064957600080fd5b806301ffc9a7146104e3578063089fe6aa1461050b57806308ac3fcb146105285780630b7459eb146105e5575b600080fd5b6104f66104f1366004613983565b610e89565b60405190151581526020015b60405180910390f35b610514610bb881565b60405162ffffff9091168152602001610502565b6105946105363660046139c9565b601d6020526000908152604090208054600182015460028084015460038501546004860154600587015460068801546007909801549697959693959294919390929181900b9060ff630100000082048116916401000000009004168a565b604080519a8b5260208b0199909952978901969096526060880194909452608087019290925260a086015260c085015260020b60e08401521515610100830152151561012082015261014001610502565b6006546105f8906001600160a01b031681565b6040516001600160a01b039091168152602001610502565b61063b61061e3660046139f5565b602460209081526000928352604080842090915290825290205481565b604051908152602001610502565b61065c610657366004613a28565b610ec0565b005b61065c61066c3660046139c9565b61110e565b6106b561067f366004613a72565b6022602090815260009283526040808420909152908252902080546001820154600283015460039093015460ff90921692909184565b6040805194151585526020850193909352918301526060820152608001610502565b600f546106eb90600160a81b900460ff1681565b60405160ff9091168152602001610502565b61063b7ffb5864e8ff833c3cb2d2d08505e82ff02a43554c74a35d4f5a64e8526127831181565b61065c610732366004613a9c565b611189565b61063b610745366004613ade565b60009081526004602052604090206001015490565b6104f66107683660046139c9565b6114e0565b61063b61077b3660046139f5565b602760209081526000928352604080842090915290825290205481565b61065c6107a6366004613af7565b611520565b6107e36107b9366004613a72565b60216020908152600092835260408084209091529082529020805460019091015460ff9091169082565b604080519215158352602083019190915201610502565b61065c610808366004613a72565b61154a565b61065c61081b366004613af7565b6117d6565b6105f861082e366004613b1a565b611862565b61065c610841366004613b44565b61189a565b6009546105f8906001600160a01b031681565b6105f8610867366004613983565b6003602052600090815260409020546001600160a01b031681565b6104f6610890366004613a72565b611d41565b61063b60125481565b600d546105f8906001600160a01b031681565b61065c6108bf366004613d17565b611d7e565b6104f66108d23660046139c9565b60026020526000908152604090205460ff1681565b61063b6108f53660046139f5565b602560209081526000928352604080842090915290825290205481565b6105f8610920366004613b1a565b6121ae565b61065c610933366004613a72565b6121ca565b6000546104f69060ff1681565b61065c610953366004613a9c565b6122aa565b61065c6109663660046139c9565b612649565b6007546105f8906001600160a01b031681565b6008546105f8906001600160a01b031681565b61065c61099f3660046139c9565b6126c1565b61063b7fdf8b4c520ffe197c5343c6f5aec59570151ef9a492f2c624fd45ddde6135ec4281565b61063b60115481565b61065c6109e2366004613e85565b612811565b61065c6109f5366004613efd565b612891565b61063b60145481565b6105f8610a113660046139c9565b6017602052600090815260409020546001600160a01b031681565b610a70610a3a366004613a72565b60208080526000928352604080842090915290825290208054600182015460029092015460ff8083169361010090930416919084565b60408051941515855260ff9093166020850152918301526060820152608001610502565b61065c610aa2366004613ade565b612aa3565b600a546105f8906001600160a01b031681565b6105f873c4a11aaf6ea915ed7ac194161d2fc9384f15bff281565b6104f6610ae3366004613af7565b60009182526004602090815260408084206001600160a01b0393909316845291905290205460ff1690565b61063b610b1c3660046139c9565b60166020526000908152604090205481565b61063b610b3c3660046139f5565b602660209081526000928352604080842090915290825290205481565b61063b60105481565b61063b600081565b600f546106eb90600160a01b900460ff1681565b61065c610b8c3660046139c9565b612b47565b61065c610b9f366004613f19565b612c3a565b61065c610bb2366004613f4b565b612d01565b600e546105f8906001600160a01b031681565b610c1b610bd83660046139c9565b601c602052600090815260409020805460018201546002830154600384015460048501546005860154600687015460079097015495969495939492939192909188565b604080519889526020890197909752958701949094526060860192909252608085015260a084015260c083015260e082015261010001610502565b61065c610c64366004613f67565b612e0d565b6105f8610c77366004613ade565b6001602052600090815260409020546001600160a01b031681565b61063b610ca0366004613b1a565b6130c2565b6005546105f8906001600160a01b031681565b600b546105f8906001600160a01b031681565b601554610cd89060020b81565b60405160029190910b8152602001610502565b600f546105f8906001600160a01b031681565b61063b610d0c3660046139f5565b602360209081526000928352604080842090915290825290205481565b61065c610d37366004613af7565b6130f3565b610d7f610d4a3660046139c9565b601f60205260009081526040902080546001820154600283015460038401546004850154600590950154939492939192909186565b604080519687526020870195909552938501929092526060840152608083015260a082015260c001610502565b610de9610dba3660046139c9565b601e60205260009081526040902080546001820154600283015460038401546004909401549293919290919085565b604080519586526020860194909452928401919091526060830152608082015260a001610502565b61063b60135481565b600c546105f8906001600160a01b031681565b6104f6610e3b3660046139c9565b6001600160a01b0390811660009081526017602052604090205416151590565b6104f6613118565b61063b610e71366004613b1a565b613144565b61065c610e84366004613a9c565b613160565b60006001600160e01b03198216637965db0b60e01b1480610eba57506301ffc9a760e01b6001600160e01b03198316145b92915050565b6001600160a01b0380871660009081526017602052604090205487911615801590610f0457506001600160a01b038181166000908152601760205260409020541633145b80610f195750600d546001600160a01b031633145b610f785760405162461bcd60e51b815260206004820152602560248201527f63616c6c6572206973206e6f742061207661756c7441646d696e204f66206c326044820152642a37b5b2b760d91b60648201526084015b60405180910390fd5b8580600003610fae5760405162461bcd60e51b81526020600482015260026024820152615a3160f01b6044820152606401610f6f565b6001600160a01b0388166000908152601c60209081526040918290208251610100810184528154815260018201549281019290925260028101549282018390526003810154606083015260048101546080830152600581015460a0830152600681015460c08301526007015460e08201528991158061103f57506000816040015111801561103f5750806040015142105b61108b5760405162461bcd60e51b815260206004820152601c60248201527f6e6f74206265666f726577686974654c697374537461727454696d65000000006044820152606401610f6f565b6001600160a01b038a166000908152601e602052604090208054156110e9576110b2613118565b6110e95760405162461bcd60e51b81526020600482015260086024820152676f6e6c792044414f60c01b6044820152606401610f6f565b9889555050505060018501939093556002840191909155600383015560049091015550565b611117336114e0565b61115c5760405162461bcd60e51b8152602060048201526022602482015260008051602061415f83398151915260448201526134b760f11b6064820152608401610f6f565b6111867fdf8b4c520ffe197c5343c6f5aec59570151ef9a492f2c624fd45ddde6135ec42826117d6565b50565b6001600160a01b03808616600090815260176020526040902054869116158015906111cd57506001600160a01b038181166000908152601760205260409020541633145b806111e25750600d546001600160a01b031633145b61123c5760405162461bcd60e51b815260206004820152602560248201527f63616c6c6572206973206e6f742061207661756c7441646d696e204f66206c326044820152642a37b5b2b760d91b6064820152608401610f6f565b84806000036112725760405162461bcd60e51b81526020600482015260026024820152615a3160f01b6044820152606401610f6f565b84806000036112a85760405162461bcd60e51b81526020600482015260026024820152615a3160f01b6044820152606401610f6f565b84806000036112de5760405162461bcd60e51b81526020600482015260026024820152615a3160f01b6044820152606401610f6f565b84806000036113145760405162461bcd60e51b81526020600482015260026024820152615a3160f01b6044820152606401610f6f565b6001600160a01b038a166000908152601c60209081526040918290208251610100810184528154815260018201549281019290925260028101549282018390526003810154606083015260048101546080830152600581015460a0830152600681015460c08301526007015460e08201528b9115806113a55750600081604001511180156113a55750806040015142105b6113f15760405162461bcd60e51b815260206004820152601c60248201527f6e6f74206265666f726577686974654c697374537461727454696d65000000006044820152606401610f6f565b6001600160a01b038c166000908152601c6020526040902080541561145457611418613118565b61144f5760405162461bcd60e51b81526020600482015260086024820152676f6e6c792044414f60c01b6044820152606401610f6f565b611458565b4281555b60145481548d9161146891613fb6565b106114b55760405162461bcd60e51b815260206004820152601360248201527f736e617073686f74206e656564206c61746572000000000000000000000000006044820152606401610f6f565b600281019b909b55505050506003870195909555505060048401919091556005909201919091555050565b6001600160a01b03811660009081527f2fb794d17134dfdec181ddbac1babb5ab1eb140204ef4d982f294e7fc8b69022602052604081205460ff16610eba565b60008281526004602052604090206001015461153b816134f3565b61154583836134fd565b505050565b816001600160a01b0381166115865760405162461bcd60e51b81526020600482015260026024820152612d1960f11b6044820152606401610f6f565b816001600160a01b0381166115c25760405162461bcd60e51b81526020600482015260026024820152612d1960f11b6044820152606401610f6f565b600d546001600160a01b0316158015906115e65750600d546001600160a01b031633145b6116325760405162461bcd60e51b815260206004820152601e60248201527f63616c6c6572206973206e6f74206c3250726f6a6563744d616e6167657200006044820152606401610f6f565b6001600160a01b038481166000908152601760205260409020548185169116036116875760405162461bcd60e51b8152600401610f6f9060208082526004908201526373616d6560e01b604082015260600190565b6001600160a01b038481166000818152601760205260409081902080546001600160a01b03191687851690811790915560065491516328f40a9560e11b815260048101939093526024830152909116906351e8152a90604401602060405180830381865afa1580156116fd573d6000803e3d6000fd5b505050506040513d601f19601f820116820180604052508101906117219190613fc9565b61178d57600654604051631adcd63360e11b81526001600160a01b0386811660048301528581166024830152909116906335b9ac6690604401600060405180830381600087803b15801561177457600080fd5b505af1158015611788573d6000803e3d6000fd5b505050505b604080516001600160a01b038087168252851660208201527fb00bb4c229aff6156cc8e2c767c571665e1927c09fe083ec055956a5a4026193910160405180910390a150505050565b6001600160a01b03811633146118545760405162461bcd60e51b815260206004820152602f60248201527f416363657373436f6e74726f6c3a2063616e206f6e6c792072656e6f756e636560448201527f20726f6c657320666f722073656c6600000000000000000000000000000000006064820152608401610f6f565b61185e828261359f565b5050565b6018602052816000526040600020818154811061187e57600080fd5b6000918252602090912001546001600160a01b03169150829050565b6001600160a01b03808916600090815260176020526040902054899116158015906118de57506001600160a01b038181166000908152601760205260409020541633145b806118f35750600d546001600160a01b031633145b61194d5760405162461bcd60e51b815260206004820152602560248201527f63616c6c6572206973206e6f742061207661756c7441646d696e204f66206c326044820152642a37b5b2b760d91b6064820152608401610f6f565b6001600160a01b0389166000908152601c60209081526040918290208251610100810184528154815260018201549281019290925260028101549282018390526003810154606083015260048101546080830152600581015460a0830152600681015460c08301526007015460e08201528a9115806119de5750600081604001511180156119de5750806040015142105b611a2a5760405162461bcd60e51b815260206004820152601c60248201527f6e6f74206265666f726577686974654c697374537461727454696d65000000006044820152606401610f6f565b6040516370a0823160e01b81523060048201526000906001600160a01b038d16906370a0823190602401602060405180830381865afa158015611a71573d6000803e3d6000fd5b505050506040513d601f19601f82011682018060405250810190611a959190613feb565b905080600003611b3f57600d54611ad4906001600160a01b031630611aba8d8f613fb6565b8f6001600160a01b0316613622909392919063ffffffff16565b6040516370a0823160e01b81523060048201526001600160a01b038d16906370a0823190602401602060405180830381865afa158015611b18573d6000803e3d6000fd5b505050506040513d601f19601f82011682018060405250810190611b3c9190613feb565b90505b80611b4a8b8d613fb6565b11158015611b60575080670de0b6b3a764000011155b611bac5760405162461bcd60e51b815260206004820152600f60248201527f6e6f7420696e70757420746f6b656e00000000000000000000000000000000006044820152606401610f6f565b600f54600160a81b900460ff168611801590611bd45750600f54600160a01b900460ff168610155b611c205760405162461bcd60e51b815260206004820152601360248201527f6e65656420746f20736574206d696e2c6d6178000000000000000000000000006044820152606401610f6f565b88611c2b8989614004565b611c35919061401b565b611c3f8b8d613fb6565b1015611c8d5760405162461bcd60e51b815260206004820152600c60248201527f6f766572206861726463617000000000000000000000000000000000000000006044820152606401610f6f565b6001600160a01b038c166000908152601d60205260409020805415611ceb57611cb4613118565b611ceb5760405162461bcd60e51b81526020600482015260086024820152676f6e6c792044414f60c01b6044820152606401610f6f565b8b8155600181018b905560028082018b9055600382018a905560048201899055600582018890556007820154900b600003611d325760078101805462ffffff191660121790555b50505050505050505050505050565b60006001600160a01b03821615801590611d7757506001600160a01b038381166000908152601760205260409020548116908316145b9392505050565b6001600160a01b0380851660009081526017602052604090205485911615801590611dc257506001600160a01b038181166000908152601760205260409020541633145b80611dd75750600d546001600160a01b031633145b611e315760405162461bcd60e51b815260206004820152602560248201527f63616c6c6572206973206e6f742061207661756c7441646d696e204f66206c326044820152642a37b5b2b760d91b6064820152608401610f6f565b836101e00151846101c00151108015611e535750836102000151846101e00151105b8015611e685750836102200151846102000151105b8015611e7d5750836102600151846102200151105b8015611e925750836102800151846102600151105b611ede5760405162461bcd60e51b815260206004820152600d60248201527f526f756e6454696d6520657272000000000000000000000000000000000000006044820152606401610f6f565b8260400151846102800151108015611efd575082606001518360400151105b611f495760405162461bcd60e51b815260206004820152600d60248201527f636c61696d54696d6520657272000000000000000000000000000000000000006044820152606401610f6f565b8160600151846102800151108015611f68575081608001518260600151105b611fb45760405162461bcd60e51b815260206004820152601460248201527f56657374696e67436c61696d54696d65206572720000000000000000000000006044820152606401610f6f565b611fd18585600001518660200151876040015188606001516122aa565b611fee8585608001518660a001518760c001518860e00151613160565b61201d858561010001518661012001518761014001518861016001518961018001518a6101a00151600061189a565b61203e85856101c00151866101e00151876102000151886102200151611189565b61205985856102400151866102600151876102800151612e0d565b61207b8584600001518560200151866040015187606001518860800151610ec0565b600654825160208401516040808601516060870151608088015160a089015160c08a01519451632078091160e11b81526001600160a01b038e81166004830152978816602482015260448101969096526064860193909352608485019190915260a484015260c483015262ffffff1660e48201529116906340f012229061010401600060405180830381600087803b15801561211657600080fd5b505af115801561212a573d6000803e3d6000fd5b5050600e5460405163095ea7b360e01b81526001600160a01b0391821660048201526000196024820152908816925063095ea7b391506044016020604051808303816000875af1158015612182573d6000803e3d6000fd5b505050506040513d601f19601f820116820180604052508101906121a69190613fc9565b505050505050565b6019602052816000526040600020818154811061187e57600080fd5b6121d3336114e0565b6122185760405162461bcd60e51b8152602060048201526022602482015260008051602061415f83398151915260448201526134b760f11b6064820152608401610f6f565b600e546001600160a01b038381169116148015906122445750600f546001600160a01b03828116911614155b61227c5760405162461bcd60e51b815260206004820152600960248201526839b0b6b29030b2323960b91b6044820152606401610f6f565b600e80546001600160a01b039384166001600160a01b031991821617909155600f8054929093169116179055565b6001600160a01b03808616600090815260176020526040902054869116158015906122ee57506001600160a01b038181166000908152601760205260409020541633145b806123035750600d546001600160a01b031633145b61235d5760405162461bcd60e51b815260206004820152602560248201527f63616c6c6572206973206e6f742061207661756c7441646d696e204f66206c326044820152642a37b5b2b760d91b6064820152608401610f6f565b84806000036123935760405162461bcd60e51b81526020600482015260026024820152615a3160f01b6044820152606401610f6f565b84806000036123c95760405162461bcd60e51b81526020600482015260026024820152615a3160f01b6044820152606401610f6f565b84806000036123ff5760405162461bcd60e51b81526020600482015260026024820152615a3160f01b6044820152606401610f6f565b84806000036124355760405162461bcd60e51b81526020600482015260026024820152615a3160f01b6044820152606401610f6f565b6001600160a01b038a166000908152601c60209081526040918290208251610100810184528154815260018201549281019290925260028101549282018390526003810154606083015260048101546080830152600581015460a0830152600681015460c08301526007015460e08201528b9115806124c65750600081604001511180156124c65750806040015142105b6125125760405162461bcd60e51b815260206004820152601c60248201527f6e6f74206265666f726577686974654c697374537461727454696d65000000006044820152606401610f6f565b6001600160a01b038c166000908152602360209081526040808320600184529091529020541561257b57612544613118565b61257b5760405162461bcd60e51b81526020600482015260086024820152676f6e6c792044414f60c01b6044820152606401610f6f565b8a6010541115801561258f57508960115411155b801561259d57508860125411155b80156125ab57508760135411155b6125f75760405162461bcd60e51b815260206004820152600e60248201527f5469657220736574206572726f720000000000000000000000000000000000006044820152606401610f6f565b505050506001600160a01b039790971660009081526023602090815260408083206001845290915280822097909755600281528681209590955550506003835283832091909155600482529190205550565b612652336114e0565b6126975760405162461bcd60e51b8152602060048201526022602482015260008051602061415f83398151915260448201526134b760f11b6064820152608401610f6f565b6111867fdf8b4c520ffe197c5343c6f5aec59570151ef9a492f2c624fd45ddde6135ec4282611520565b6126ca336114e0565b61270f5760405162461bcd60e51b8152602060048201526022602482015260008051602061415f83398151915260448201526134b760f11b6064820152608401610f6f565b6001600160a01b0381166127655760405162461bcd60e51b815260206004820152601860248201527f41636365737369626c653a207a65726f206164647265737300000000000000006044820152606401610f6f565b6001600160a01b03811633036127bd5760405162461bcd60e51b815260206004820152601660248201527f41636365737369626c653a2073616d652061646d696e000000000000000000006044820152606401610f6f565b6127e77fdf8b4c520ffe197c5343c6f5aec59570151ef9a492f2c624fd45ddde6135ec4282611520565b6111867fdf8b4c520ffe197c5343c6f5aec59570151ef9a492f2c624fd45ddde6135ec42336117d6565b61281a336114e0565b61285f5760405162461bcd60e51b8152602060048201526022602482015260008051602061415f83398151915260448201526134b760f11b6064820152608401610f6f565b61286888612891565b6128728787612d01565b61287e85858585612c3a565b61288781612aa3565b5050505050505050565b61289a336114e0565b6128df5760405162461bcd60e51b8152602060048201526022602482015260008051602061415f83398151915260448201526134b760f11b6064820152608401610f6f565b6128ec60208201826139c9565b600580546001600160a01b0319166001600160a01b039290921691909117905561291c60408201602083016139c9565b600680546001600160a01b0319166001600160a01b039290921691909117905561294c60608201604083016139c9565b600780546001600160a01b0319166001600160a01b039290921691909117905561297c60808201606083016139c9565b600880546001600160a01b0319166001600160a01b03929092169190911790556129ac60a08201608083016139c9565b600980546001600160a01b0319166001600160a01b03929092169190911790556129dc60c0820160a083016139c9565b600a80546001600160a01b0319166001600160a01b0392909216919091179055612a0c60e0820160c083016139c9565b600b80546001600160a01b039283166001600160a01b03199182168117909255600c80549091168217905560085460405163095ea7b360e01b81529216600483015260001960248301529063095ea7b3906044016020604051808303816000875af1158015612a7f573d6000803e3d6000fd5b505050506040513d601f19601f8201168201806040525081019061185e9190613fc9565b612aac336114e0565b612af15760405162461bcd60e51b8152602060048201526022602482015260008051602061415f83398151915260448201526134b760f11b6064820152608401610f6f565b8060145403612b425760405162461bcd60e51b815260206004820152600e60248201527f73616d652064656c617954696d650000000000000000000000000000000000006044820152606401610f6f565b601455565b806001600160a01b038116612b835760405162461bcd60e51b81526020600482015260026024820152612d1960f11b6044820152606401610f6f565b612b8c336114e0565b612bd15760405162461bcd60e51b8152602060048201526022602482015260008051602061415f83398151915260448201526134b760f11b6064820152608401610f6f565b600d546001600160a01b03808416911603612c175760405162461bcd60e51b8152600401610f6f9060208082526004908201526373616d6560e01b604082015260600190565b50600d80546001600160a01b0319166001600160a01b0392909216919091179055565b612c43336114e0565b612c885760405162461bcd60e51b8152602060048201526022602482015260008051602061415f83398151915260448201526134b760f11b6064820152608401610f6f565b8284108015612c9657508183105b8015612ca157508082105b612ced5760405162461bcd60e51b815260206004820152600e60248201527f7469657220736574206572726f720000000000000000000000000000000000006044820152606401610f6f565b601093909355601191909155601255601355565b612d0a336114e0565b612d4f5760405162461bcd60e51b8152602060048201526022602482015260008051602061415f83398151915260448201526134b760f11b6064820152608401610f6f565b8060ff168260ff1610612da45760405162461bcd60e51b815260206004820152600e60248201527f6e656564206d696e203c206d61780000000000000000000000000000000000006044820152606401610f6f565b600f80547fffffffffffffffffffff0000ffffffffffffffffffffffffffffffffffffffff16600160a01b60ff948516027fffffffffffffffffffff00ffffffffffffffffffffffffffffffffffffffffff1617600160a81b9290931691909102919091179055565b6001600160a01b0380851660009081526017602052604090205485911615801590612e5157506001600160a01b038181166000908152601760205260409020541633145b80612e665750600d546001600160a01b031633145b612ec05760405162461bcd60e51b815260206004820152602560248201527f63616c6c6572206973206e6f742061207661756c7441646d696e204f66206c326044820152642a37b5b2b760d91b6064820152608401610f6f565b8380600003612ef65760405162461bcd60e51b81526020600482015260026024820152615a3160f01b6044820152606401610f6f565b8380600003612f2c5760405162461bcd60e51b81526020600482015260026024820152615a3160f01b6044820152606401610f6f565b8380600003612f625760405162461bcd60e51b81526020600482015260026024820152615a3160f01b6044820152606401610f6f565b6001600160a01b0388166000908152601c60209081526040918290208251610100810184528154815260018201549281019290925260028101549282018390526003810154606083015260048101546080830152600581015460a0830152600681015460c08301526007015460e082015289911580612ff3575060008160400151118015612ff35750806040015142105b61303f5760405162461bcd60e51b815260206004820152601c60248201527f6e6f74206265666f726577686974654c697374537461727454696d65000000006044820152606401610f6f565b6001600160a01b038a166000908152601c602052604090206001810154156130a057613069613118565b6130a05760405162461bcd60e51b81526020600482015260086024820152676f6e6c792044414f60c01b6044820152606401610f6f565b6001810199909955505050506006850193909355506007909201919091555050565b601a60205281600052604060002081815481106130de57600080fd5b90600052602060002001600091509150505481565b60008281526004602052604090206001015461310e816134f3565b611545838361359f565b600d546000906001600160a01b03161580159061313f5750600d546001600160a01b031633145b905090565b601b60205281600052604060002081815481106130de57600080fd5b6001600160a01b03808616600090815260176020526040902054869116158015906131a457506001600160a01b038181166000908152601760205260409020541633145b806131b95750600d546001600160a01b031633145b6132135760405162461bcd60e51b815260206004820152602560248201527f63616c6c6572206973206e6f742061207661756c7441646d696e204f66206c326044820152642a37b5b2b760d91b6064820152608401610f6f565b84806000036132495760405162461bcd60e51b81526020600482015260026024820152615a3160f01b6044820152606401610f6f565b848060000361327f5760405162461bcd60e51b81526020600482015260026024820152615a3160f01b6044820152606401610f6f565b84806000036132b55760405162461bcd60e51b81526020600482015260026024820152615a3160f01b6044820152606401610f6f565b84806000036132eb5760405162461bcd60e51b81526020600482015260026024820152615a3160f01b6044820152606401610f6f565b6001600160a01b038a166000908152601c60209081526040918290208251610100810184528154815260018201549281019290925260028101549282018390526003810154606083015260048101546080830152600581015460a0830152600681015460c08301526007015460e08201528b91158061337c57506000816040015111801561337c5750806040015142105b6133c85760405162461bcd60e51b815260206004820152601c60248201527f6e6f74206265666f726577686974654c697374537461727454696d65000000006044820152606401610f6f565b6001600160a01b038c1660009081526024602090815260408083206001845290915290205415613431576133fa613118565b6134315760405162461bcd60e51b81526020600482015260086024820152676f6e6c792044414f60c01b6044820152606401610f6f565b878961343d8c8e613fb6565b6134479190613fb6565b6134519190613fb6565b612710146134a15760405162461bcd60e51b815260206004820152600e60248201527f53756d206e6565642031303030300000000000000000000000000000000000006044820152606401610f6f565b505050506001600160a01b039790971660009081526024602090815260408083206001845290915280822097909755600281528681209590955550506003835283832091909155600482529190205550565b6111868133613753565b60008281526004602090815260408083206001600160a01b038516845290915290205460ff1661185e5760008281526004602090815260408083206001600160a01b03851684529091529020805460ff1916600117905561355b3390565b6001600160a01b0316816001600160a01b0316837f2f8788117e7eff1d82e926ec794901d17c78024a50270940304540a733656f0d60405160405180910390a45050565b60008281526004602090815260408083206001600160a01b038516845290915290205460ff161561185e5760008281526004602090815260408083206001600160a01b0385168085529252808320805460ff1916905551339285917ff6391f5c32d9c69d2a47ea670b442974b53935d1edc7fd64eb21e047a839171b9190a45050565b604080516001600160a01b0385811660248301528481166044830152606480830185905283518084039091018152608490920183526020820180517bffffffffffffffffffffffffffffffffffffffffffffffffffffffff166323b872dd60e01b179052915160009283929088169161369b9190614077565b6000604051808303816000865af19150503d80600081146136d8576040519150601f19603f3d011682016040523d82523d6000602084013e6136dd565b606091505b50915091508180156137075750805115806137075750808060200190518101906137079190613fc9565b6121a65760405162461bcd60e51b815260206004820152601460248201527f5452414e534645525f46524f4d5f4641494c45440000000000000000000000006044820152606401610f6f565b60008281526004602090815260408083206001600160a01b038516845290915290205460ff1661185e57613786816137c8565b6137918360206137da565b6040516020016137a2929190614093565b60408051601f198184030181529082905262461bcd60e51b8252610f6f91600401614114565b6060610eba6001600160a01b03831660145b606060006137e9836002614004565b6137f4906002613fb6565b67ffffffffffffffff81111561380c5761380c613ba0565b6040519080825280601f01601f191660200182016040528015613836576020820181803683370190505b509050600360fc1b816000815181106138515761385161403d565b60200101906001600160f81b031916908160001a905350600f60fb1b816001815181106138805761388061403d565b60200101906001600160f81b031916908160001a90535060006138a4846002614004565b6138af906001613fb6565b90505b6001811115613934577f303132333435363738396162636465660000000000000000000000000000000085600f16601081106138f0576138f061403d565b1a60f81b8282815181106139065761390661403d565b60200101906001600160f81b031916908160001a90535060049490941c9361392d81614147565b90506138b2565b508315611d775760405162461bcd60e51b815260206004820181905260248201527f537472696e67733a20686578206c656e67746820696e73756666696369656e746044820152606401610f6f565b60006020828403121561399557600080fd5b81356001600160e01b031981168114611d7757600080fd5b80356001600160a01b03811681146139c457600080fd5b919050565b6000602082840312156139db57600080fd5b611d77826139ad565b803560ff811681146139c457600080fd5b60008060408385031215613a0857600080fd5b613a11836139ad565b9150613a1f602084016139e4565b90509250929050565b60008060008060008060c08789031215613a4157600080fd5b613a4a876139ad565b9860208801359850604088013597606081013597506080810135965060a00135945092505050565b60008060408385031215613a8557600080fd5b613a8e836139ad565b9150613a1f602084016139ad565b600080600080600060a08688031215613ab457600080fd5b613abd866139ad565b97602087013597506040870135966060810135965060800135945092505050565b600060208284031215613af057600080fd5b5035919050565b60008060408385031215613b0a57600080fd5b82359150613a1f602084016139ad565b60008060408385031215613b2d57600080fd5b613b36836139ad565b946020939093013593505050565b600080600080600080600080610100898b031215613b6157600080fd5b613b6a896139ad565b9a60208a01359a5060408a013599606081013599506080810135985060a0810135975060c0810135965060e00135945092505050565b634e487b7160e01b600052604160045260246000fd5b60405160e0810167ffffffffffffffff81118282101715613be757634e487b7160e01b600052604160045260246000fd5b60405290565b6040516102a0810167ffffffffffffffff81118282101715613be757634e487b7160e01b600052604160045260246000fd5b600060a08284031215613c3157600080fd5b60405160a0810181811067ffffffffffffffff82111715613c6257634e487b7160e01b600052604160045260246000fd5b806040525080915082358152602083013560208201526040830135604082015260608301356060820152608083013560808201525092915050565b600060e08284031215613caf57600080fd5b613cb7613bb6565b9050613cc2826139ad565b81526020820135602082015260408201356040820152606082013560608201526080820135608082015260a082013560a082015260c082013562ffffff81168114613d0c57600080fd5b60c082015292915050565b600080600080848603610440811215613d2f57600080fd5b613d38866139ad565b94506102a080601f1983011215613d4e57600080fd5b613d56613bed565b91506020870135825260408701356020830152606087013560408301526080870135606083015260a0870135608083015260c087013560a083015260e087013560c08301526101008088013560e084015261012080890135828501526101409150818901358185015250610160808901358285015261018091508189013581850152506101a080890135828501526101c091508189013581850152506101e08089013582850152610200915081890135818501525061022080890135828501526102409150818901358185015250610260808901358285015261028091508189013581850152508188013581840152505080935050613e59866102c08701613c1f565b9150613e69866103608701613c9d565b905092959194509250565b8060e08101831015610eba57600080fd5b6000806000806000806000806101c0898b031215613ea257600080fd5b613eac8a8a613e74565b9750613eba60e08a016139e4565b9650613ec96101008a016139e4565b979a9699509697610120810135975061014081013596610160820135965061018082013595506101a0909101359350915050565b600060e08284031215613f0f57600080fd5b611d778383613e74565b60008060008060808587031215613f2f57600080fd5b5050823594602084013594506040840135936060013592509050565b60008060408385031215613f5e57600080fd5b613a11836139e4565b60008060008060808587031215613f7d57600080fd5b613f86856139ad565b966020860135965060408601359560600135945092505050565b634e487b7160e01b600052601160045260246000fd5b80820180821115610eba57610eba613fa0565b600060208284031215613fdb57600080fd5b81518015158114611d7757600080fd5b600060208284031215613ffd57600080fd5b5051919050565b8082028115828204841417610eba57610eba613fa0565b60008261403857634e487b7160e01b600052601260045260246000fd5b500490565b634e487b7160e01b600052603260045260246000fd5b60005b8381101561406e578181015183820152602001614056565b50506000910152565b60008251614089818460208701614053565b9190910192915050565b7f416363657373436f6e74726f6c3a206163636f756e74200000000000000000008152600083516140cb816017850160208801614053565b7f206973206d697373696e6720726f6c65200000000000000000000000000000006017918401918201528351614108816028840160208801614053565b01602801949350505050565b6020815260008251806020840152614133816040850160208701614053565b601f01601f19169190910160400192915050565b60008161415657614156613fa0565b50600019019056fe41636365737369626c653a2043616c6c6572206973206e6f7420616e2061646da164736f6c6343000812000a",
  "devdoc": {
    "events": {
      "RoleAdminChanged(bytes32,bytes32,bytes32)": {
        "details": "Emitted when `newAdminRole` is set as ``role``'s admin role, replacing `previousAdminRole` `DEFAULT_ADMIN_ROLE` is the starting admin for all roles, despite {RoleAdminChanged} not being emitted signaling this. _Available since v3.1._"
      },
      "RoleGranted(bytes32,address,address)": {
        "details": "Emitted when `account` is granted `role`. `sender` is the account that originated the contract call, an admin role bearer except when using {AccessControl-_setupRole}."
      },
      "RoleRevoked(bytes32,address,address)": {
        "details": "Emitted when `account` is revoked `role`. `sender` is the account that originated the contract call:   - if using `revokeRole`, it is the admin role bearer   - if using `renounceRole`, it is the role bearer (i.e. `account`)"
      }
    },
    "kind": "dev",
    "methods": {
      "addAdmin(address)": {
        "details": "add admin",
        "params": {
          "account": "address to add"
        }
      },
      "getRoleAdmin(bytes32)": {
        "details": "Returns the admin role that controls `role`. See {grantRole} and {revokeRole}. To change a role's admin, use {_setRoleAdmin}."
      },
      "grantRole(bytes32,address)": {
        "details": "Grants `role` to `account`. If `account` had not been already granted `role`, emits a {RoleGranted} event. Requirements: - the caller must have ``role``'s admin role. May emit a {RoleGranted} event."
      },
      "hasRole(bytes32,address)": {
        "details": "Returns `true` if `account` has been granted `role`."
      },
      "isAdmin(address)": {
        "details": "whether admin",
        "params": {
          "account": "address to check"
        }
      },
      "removeAdmin(address)": {
        "details": "remove admin",
        "params": {
          "account": "address to remove"
        }
      },
      "renounceRole(bytes32,address)": {
        "details": "Revokes `role` from the calling account. Roles are often managed via {grantRole} and {revokeRole}: this function's purpose is to provide a mechanism for accounts to lose their privileges if they are compromised (such as when a trusted device is misplaced). If the calling account had been revoked `role`, emits a {RoleRevoked} event. Requirements: - the caller must be `account`. May emit a {RoleRevoked} event."
      },
      "revokeRole(bytes32,address)": {
        "details": "Revokes `role` from `account`. If `account` had been granted `role`, emits a {RoleRevoked} event. Requirements: - the caller must have ``role``'s admin role. May emit a {RoleRevoked} event."
      },
      "supportsInterface(bytes4)": {
        "details": "See {IERC165-supportsInterface}."
      },
      "transferAdmin(address)": {
        "details": "transfer admin",
        "params": {
          "newAdmin": "new admin address"
        }
      }
    },
    "version": 1
  },
  "userdoc": {
    "kind": "user",
    "methods": {},
    "version": 1
  },
  "storageLayout": {
    "storage": [
      {
        "astId": 10792,
        "contract": "contracts/L2/vaults/L2PublicSaleProxy.sol:L2PublicSaleProxy",
        "label": "pauseProxy",
        "offset": 0,
        "slot": "0",
        "type": "t_bool"
      },
      {
        "astId": 10796,
        "contract": "contracts/L2/vaults/L2PublicSaleProxy.sol:L2PublicSaleProxy",
        "label": "proxyImplementation",
        "offset": 0,
        "slot": "1",
        "type": "t_mapping(t_uint256,t_address)"
      },
      {
        "astId": 10800,
        "contract": "contracts/L2/vaults/L2PublicSaleProxy.sol:L2PublicSaleProxy",
        "label": "aliveImplementation",
        "offset": 0,
        "slot": "2",
        "type": "t_mapping(t_address,t_bool)"
      },
      {
        "astId": 10804,
        "contract": "contracts/L2/vaults/L2PublicSaleProxy.sol:L2PublicSaleProxy",
        "label": "selectorImplementation",
        "offset": 0,
        "slot": "3",
        "type": "t_mapping(t_bytes4,t_address)"
      },
      {
        "astId": 24,
        "contract": "contracts/L2/vaults/L2PublicSaleProxy.sol:L2PublicSaleProxy",
        "label": "_roles",
        "offset": 0,
        "slot": "4",
        "type": "t_mapping(t_bytes32,t_struct(RoleData)19_storage)"
      },
      {
        "astId": 5824,
        "contract": "contracts/L2/vaults/L2PublicSaleProxy.sol:L2PublicSaleProxy",
        "label": "quoter",
        "offset": 0,
        "slot": "5",
        "type": "t_address"
      },
      {
        "astId": 5826,
        "contract": "contracts/L2/vaults/L2PublicSaleProxy.sol:L2PublicSaleProxy",
        "label": "vestingFund",
        "offset": 0,
        "slot": "6",
        "type": "t_address"
      },
      {
        "astId": 5828,
        "contract": "contracts/L2/vaults/L2PublicSaleProxy.sol:L2PublicSaleProxy",
        "label": "liquidityVault",
        "offset": 0,
        "slot": "7",
        "type": "t_address"
      },
      {
        "astId": 5830,
        "contract": "contracts/L2/vaults/L2PublicSaleProxy.sol:L2PublicSaleProxy",
        "label": "uniswapRouter",
        "offset": 0,
        "slot": "8",
        "type": "t_address"
      },
      {
        "astId": 5832,
        "contract": "contracts/L2/vaults/L2PublicSaleProxy.sol:L2PublicSaleProxy",
        "label": "lockTOS",
        "offset": 0,
        "slot": "9",
        "type": "t_address"
      },
      {
        "astId": 5834,
        "contract": "contracts/L2/vaults/L2PublicSaleProxy.sol:L2PublicSaleProxy",
        "label": "tos",
        "offset": 0,
        "slot": "10",
        "type": "t_address"
      },
      {
        "astId": 5836,
        "contract": "contracts/L2/vaults/L2PublicSaleProxy.sol:L2PublicSaleProxy",
        "label": "ton",
        "offset": 0,
        "slot": "11",
        "type": "t_address"
      },
      {
        "astId": 5839,
        "contract": "contracts/L2/vaults/L2PublicSaleProxy.sol:L2PublicSaleProxy",
        "label": "_WETH",
        "offset": 0,
        "slot": "12",
        "type": "t_contract(IWETH)2037"
      },
      {
        "astId": 5841,
        "contract": "contracts/L2/vaults/L2PublicSaleProxy.sol:L2PublicSaleProxy",
        "label": "l2ProjectManager",
        "offset": 0,
        "slot": "13",
        "type": "t_address"
      },
      {
        "astId": 5843,
        "contract": "contracts/L2/vaults/L2PublicSaleProxy.sol:L2PublicSaleProxy",
        "label": "l2Bridge",
        "offset": 0,
        "slot": "14",
        "type": "t_address"
      },
      {
        "astId": 5845,
        "contract": "contracts/L2/vaults/L2PublicSaleProxy.sol:L2PublicSaleProxy",
        "label": "l1burnVault",
        "offset": 0,
        "slot": "15",
        "type": "t_address"
      },
      {
        "astId": 5847,
        "contract": "contracts/L2/vaults/L2PublicSaleProxy.sol:L2PublicSaleProxy",
        "label": "minPer",
        "offset": 20,
        "slot": "15",
        "type": "t_uint8"
      },
      {
        "astId": 5849,
        "contract": "contracts/L2/vaults/L2PublicSaleProxy.sol:L2PublicSaleProxy",
        "label": "maxPer",
        "offset": 21,
        "slot": "15",
        "type": "t_uint8"
      },
      {
        "astId": 5851,
        "contract": "contracts/L2/vaults/L2PublicSaleProxy.sol:L2PublicSaleProxy",
        "label": "stanTier1",
        "offset": 0,
        "slot": "16",
        "type": "t_uint256"
      },
      {
        "astId": 5853,
        "contract": "contracts/L2/vaults/L2PublicSaleProxy.sol:L2PublicSaleProxy",
        "label": "stanTier2",
        "offset": 0,
        "slot": "17",
        "type": "t_uint256"
      },
      {
        "astId": 5855,
        "contract": "contracts/L2/vaults/L2PublicSaleProxy.sol:L2PublicSaleProxy",
        "label": "stanTier3",
        "offset": 0,
        "slot": "18",
        "type": "t_uint256"
      },
      {
        "astId": 5857,
        "contract": "contracts/L2/vaults/L2PublicSaleProxy.sol:L2PublicSaleProxy",
        "label": "stanTier4",
        "offset": 0,
        "slot": "19",
        "type": "t_uint256"
      },
      {
        "astId": 5859,
        "contract": "contracts/L2/vaults/L2PublicSaleProxy.sol:L2PublicSaleProxy",
        "label": "delayTime",
        "offset": 0,
        "slot": "20",
        "type": "t_uint256"
      },
      {
        "astId": 5861,
        "contract": "contracts/L2/vaults/L2PublicSaleProxy.sol:L2PublicSaleProxy",
        "label": "changeTick",
        "offset": 0,
        "slot": "21",
        "type": "t_int24"
      },
      {
        "astId": 5864,
        "contract": "contracts/L2/vaults/L2PublicSaleProxy.sol:L2PublicSaleProxy",
        "label": "free",
        "offset": 3,
        "slot": "21",
        "type": "t_bool"
      },
      {
        "astId": 5868,
        "contract": "contracts/L2/vaults/L2PublicSaleProxy.sol:L2PublicSaleProxy",
        "label": "totalDepositAmount",
        "offset": 0,
        "slot": "22",
        "type": "t_mapping(t_address,t_uint256)"
      },
      {
        "astId": 5872,
        "contract": "contracts/L2/vaults/L2PublicSaleProxy.sol:L2PublicSaleProxy",
        "label": "vaultAdminOfToken",
        "offset": 0,
        "slot": "23",
        "type": "t_mapping(t_address,t_address)"
      },
      {
        "astId": 5877,
        "contract": "contracts/L2/vaults/L2PublicSaleProxy.sol:L2PublicSaleProxy",
        "label": "depositors",
        "offset": 0,
        "slot": "24",
        "type": "t_mapping(t_address,t_array(t_address)dyn_storage)"
      },
      {
        "astId": 5882,
        "contract": "contracts/L2/vaults/L2PublicSaleProxy.sol:L2PublicSaleProxy",
        "label": "whitelists",
        "offset": 0,
        "slot": "25",
        "type": "t_mapping(t_address,t_array(t_address)dyn_storage)"
      },
      {
        "astId": 5887,
        "contract": "contracts/L2/vaults/L2PublicSaleProxy.sol:L2PublicSaleProxy",
        "label": "claimTimes",
        "offset": 0,
        "slot": "26",
        "type": "t_mapping(t_address,t_array(t_uint256)dyn_storage)"
      },
      {
        "astId": 5892,
        "contract": "contracts/L2/vaults/L2PublicSaleProxy.sol:L2PublicSaleProxy",
        "label": "claimPercents",
        "offset": 0,
        "slot": "27",
        "type": "t_mapping(t_address,t_array(t_uint256)dyn_storage)"
      },
      {
        "astId": 5897,
        "contract": "contracts/L2/vaults/L2PublicSaleProxy.sol:L2PublicSaleProxy",
        "label": "timeInfo",
        "offset": 0,
        "slot": "28",
        "type": "t_mapping(t_address,t_struct(TokenTimeManage)9089_storage)"
      },
      {
        "astId": 5902,
        "contract": "contracts/L2/vaults/L2PublicSaleProxy.sol:L2PublicSaleProxy",
        "label": "manageInfo",
        "offset": 0,
        "slot": "29",
        "type": "t_mapping(t_address,t_struct(TokenSaleManage)9110_storage)"
      },
      {
        "astId": 5907,
        "contract": "contracts/L2/vaults/L2PublicSaleProxy.sol:L2PublicSaleProxy",
        "label": "claimInfo",
        "offset": 0,
        "slot": "30",
        "type": "t_mapping(t_address,t_struct(TokenSaleClaim)9121_storage)"
      },
      {
        "astId": 5912,
        "contract": "contracts/L2/vaults/L2PublicSaleProxy.sol:L2PublicSaleProxy",
        "label": "saleInfo",
        "offset": 0,
        "slot": "31",
        "type": "t_mapping(t_address,t_struct(TokenSaleInfo)9134_storage)"
      },
      {
        "astId": 5919,
        "contract": "contracts/L2/vaults/L2PublicSaleProxy.sol:L2PublicSaleProxy",
        "label": "user1rd",
        "offset": 0,
        "slot": "32",
        "type": "t_mapping(t_address,t_mapping(t_address,t_struct(UserInfo1rd)9143_storage))"
      },
      {
        "astId": 5926,
        "contract": "contracts/L2/vaults/L2PublicSaleProxy.sol:L2PublicSaleProxy",
        "label": "user2rd",
        "offset": 0,
        "slot": "33",
        "type": "t_mapping(t_address,t_mapping(t_address,t_struct(UserInfo2rd)9148_storage))"
      },
      {
        "astId": 5933,
        "contract": "contracts/L2/vaults/L2PublicSaleProxy.sol:L2PublicSaleProxy",
        "label": "userClaim",
        "offset": 0,
        "slot": "34",
        "type": "t_mapping(t_address,t_mapping(t_address,t_struct(UserClaim)9157_storage))"
      },
      {
        "astId": 5939,
        "contract": "contracts/L2/vaults/L2PublicSaleProxy.sol:L2PublicSaleProxy",
        "label": "tiers",
        "offset": 0,
        "slot": "35",
        "type": "t_mapping(t_address,t_mapping(t_uint8,t_uint256))"
      },
      {
        "astId": 5945,
        "contract": "contracts/L2/vaults/L2PublicSaleProxy.sol:L2PublicSaleProxy",
        "label": "tiersPercents",
        "offset": 0,
        "slot": "36",
        "type": "t_mapping(t_address,t_mapping(t_uint8,t_uint256))"
      },
      {
        "astId": 5951,
        "contract": "contracts/L2/vaults/L2PublicSaleProxy.sol:L2PublicSaleProxy",
        "label": "tiersWhiteList",
        "offset": 0,
        "slot": "37",
        "type": "t_mapping(t_address,t_mapping(t_uint8,t_uint256))"
      },
      {
        "astId": 5957,
        "contract": "contracts/L2/vaults/L2PublicSaleProxy.sol:L2PublicSaleProxy",
        "label": "tiersCalculAccount",
        "offset": 0,
        "slot": "38",
        "type": "t_mapping(t_address,t_mapping(t_uint8,t_uint256))"
      },
      {
        "astId": 5963,
        "contract": "contracts/L2/vaults/L2PublicSaleProxy.sol:L2PublicSaleProxy",
        "label": "tiers1stAccount",
        "offset": 0,
        "slot": "39",
        "type": "t_mapping(t_address,t_mapping(t_uint8,t_uint256))"
      }
    ],
    "types": {
      "t_address": {
        "encoding": "inplace",
        "label": "address",
        "numberOfBytes": "20"
      },
      "t_array(t_address)dyn_storage": {
        "base": "t_address",
        "encoding": "dynamic_array",
        "label": "address[]",
        "numberOfBytes": "32"
      },
      "t_array(t_uint256)dyn_storage": {
        "base": "t_uint256",
        "encoding": "dynamic_array",
        "label": "uint256[]",
        "numberOfBytes": "32"
      },
      "t_bool": {
        "encoding": "inplace",
        "label": "bool",
        "numberOfBytes": "1"
      },
      "t_bytes32": {
        "encoding": "inplace",
        "label": "bytes32",
        "numberOfBytes": "32"
      },
      "t_bytes4": {
        "encoding": "inplace",
        "label": "bytes4",
        "numberOfBytes": "4"
      },
      "t_contract(IWETH)2037": {
        "encoding": "inplace",
        "label": "contract IWETH",
        "numberOfBytes": "20"
      },
      "t_int24": {
        "encoding": "inplace",
        "label": "int24",
        "numberOfBytes": "3"
      },
      "t_mapping(t_address,t_address)": {
        "encoding": "mapping",
        "key": "t_address",
        "label": "mapping(address => address)",
        "numberOfBytes": "32",
        "value": "t_address"
      },
      "t_mapping(t_address,t_array(t_address)dyn_storage)": {
        "encoding": "mapping",
        "key": "t_address",
        "label": "mapping(address => address[])",
        "numberOfBytes": "32",
        "value": "t_array(t_address)dyn_storage"
      },
      "t_mapping(t_address,t_array(t_uint256)dyn_storage)": {
        "encoding": "mapping",
        "key": "t_address",
        "label": "mapping(address => uint256[])",
        "numberOfBytes": "32",
        "value": "t_array(t_uint256)dyn_storage"
      },
      "t_mapping(t_address,t_bool)": {
        "encoding": "mapping",
        "key": "t_address",
        "label": "mapping(address => bool)",
        "numberOfBytes": "32",
        "value": "t_bool"
      },
      "t_mapping(t_address,t_mapping(t_address,t_struct(UserClaim)9157_storage))": {
        "encoding": "mapping",
        "key": "t_address",
        "label": "mapping(address => mapping(address => struct LibPublicSaleVault.UserClaim))",
        "numberOfBytes": "32",
        "value": "t_mapping(t_address,t_struct(UserClaim)9157_storage)"
      },
      "t_mapping(t_address,t_mapping(t_address,t_struct(UserInfo1rd)9143_storage))": {
        "encoding": "mapping",
        "key": "t_address",
        "label": "mapping(address => mapping(address => struct LibPublicSaleVault.UserInfo1rd))",
        "numberOfBytes": "32",
        "value": "t_mapping(t_address,t_struct(UserInfo1rd)9143_storage)"
      },
      "t_mapping(t_address,t_mapping(t_address,t_struct(UserInfo2rd)9148_storage))": {
        "encoding": "mapping",
        "key": "t_address",
        "label": "mapping(address => mapping(address => struct LibPublicSaleVault.UserInfo2rd))",
        "numberOfBytes": "32",
        "value": "t_mapping(t_address,t_struct(UserInfo2rd)9148_storage)"
      },
      "t_mapping(t_address,t_mapping(t_uint8,t_uint256))": {
        "encoding": "mapping",
        "key": "t_address",
        "label": "mapping(address => mapping(uint8 => uint256))",
        "numberOfBytes": "32",
        "value": "t_mapping(t_uint8,t_uint256)"
      },
      "t_mapping(t_address,t_struct(TokenSaleClaim)9121_storage)": {
        "encoding": "mapping",
        "key": "t_address",
        "label": "mapping(address => struct LibPublicSaleVault.TokenSaleClaim)",
        "numberOfBytes": "32",
        "value": "t_struct(TokenSaleClaim)9121_storage"
      },
      "t_mapping(t_address,t_struct(TokenSaleInfo)9134_storage)": {
        "encoding": "mapping",
        "key": "t_address",
        "label": "mapping(address => struct LibPublicSaleVault.TokenSaleInfo)",
        "numberOfBytes": "32",
        "value": "t_struct(TokenSaleInfo)9134_storage"
      },
      "t_mapping(t_address,t_struct(TokenSaleManage)9110_storage)": {
        "encoding": "mapping",
        "key": "t_address",
        "label": "mapping(address => struct LibPublicSaleVault.TokenSaleManage)",
        "numberOfBytes": "32",
        "value": "t_struct(TokenSaleManage)9110_storage"
      },
      "t_mapping(t_address,t_struct(TokenTimeManage)9089_storage)": {
        "encoding": "mapping",
        "key": "t_address",
        "label": "mapping(address => struct LibPublicSaleVault.TokenTimeManage)",
        "numberOfBytes": "32",
        "value": "t_struct(TokenTimeManage)9089_storage"
      },
      "t_mapping(t_address,t_struct(UserClaim)9157_storage)": {
        "encoding": "mapping",
        "key": "t_address",
        "label": "mapping(address => struct LibPublicSaleVault.UserClaim)",
        "numberOfBytes": "32",
        "value": "t_struct(UserClaim)9157_storage"
      },
      "t_mapping(t_address,t_struct(UserInfo1rd)9143_storage)": {
        "encoding": "mapping",
        "key": "t_address",
        "label": "mapping(address => struct LibPublicSaleVault.UserInfo1rd)",
        "numberOfBytes": "32",
        "value": "t_struct(UserInfo1rd)9143_storage"
      },
      "t_mapping(t_address,t_struct(UserInfo2rd)9148_storage)": {
        "encoding": "mapping",
        "key": "t_address",
        "label": "mapping(address => struct LibPublicSaleVault.UserInfo2rd)",
        "numberOfBytes": "32",
        "value": "t_struct(UserInfo2rd)9148_storage"
      },
      "t_mapping(t_address,t_uint256)": {
        "encoding": "mapping",
        "key": "t_address",
        "label": "mapping(address => uint256)",
        "numberOfBytes": "32",
        "value": "t_uint256"
      },
      "t_mapping(t_bytes32,t_struct(RoleData)19_storage)": {
        "encoding": "mapping",
        "key": "t_bytes32",
        "label": "mapping(bytes32 => struct AccessControl.RoleData)",
        "numberOfBytes": "32",
        "value": "t_struct(RoleData)19_storage"
      },
      "t_mapping(t_bytes4,t_address)": {
        "encoding": "mapping",
        "key": "t_bytes4",
        "label": "mapping(bytes4 => address)",
        "numberOfBytes": "32",
        "value": "t_address"
      },
      "t_mapping(t_uint256,t_address)": {
        "encoding": "mapping",
        "key": "t_uint256",
        "label": "mapping(uint256 => address)",
        "numberOfBytes": "32",
        "value": "t_address"
      },
      "t_mapping(t_uint8,t_uint256)": {
        "encoding": "mapping",
        "key": "t_uint8",
        "label": "mapping(uint8 => uint256)",
        "numberOfBytes": "32",
        "value": "t_uint256"
      },
      "t_struct(RoleData)19_storage": {
        "encoding": "inplace",
        "label": "struct AccessControl.RoleData",
        "members": [
          {
            "astId": 16,
            "contract": "contracts/L2/vaults/L2PublicSaleProxy.sol:L2PublicSaleProxy",
            "label": "members",
            "offset": 0,
            "slot": "0",
            "type": "t_mapping(t_address,t_bool)"
          },
          {
            "astId": 18,
            "contract": "contracts/L2/vaults/L2PublicSaleProxy.sol:L2PublicSaleProxy",
            "label": "adminRole",
            "offset": 0,
            "slot": "1",
            "type": "t_bytes32"
          }
        ],
        "numberOfBytes": "64"
      },
      "t_struct(TokenSaleClaim)9121_storage": {
        "encoding": "inplace",
        "label": "struct LibPublicSaleVault.TokenSaleClaim",
        "members": [
          {
            "astId": 9112,
            "contract": "contracts/L2/vaults/L2PublicSaleProxy.sol:L2PublicSaleProxy",
            "label": "totalClaimCounts",
            "offset": 0,
            "slot": "0",
            "type": "t_uint256"
          },
          {
            "astId": 9114,
            "contract": "contracts/L2/vaults/L2PublicSaleProxy.sol:L2PublicSaleProxy",
            "label": "firstClaimPercent",
            "offset": 0,
            "slot": "1",
            "type": "t_uint256"
          },
          {
            "astId": 9116,
            "contract": "contracts/L2/vaults/L2PublicSaleProxy.sol:L2PublicSaleProxy",
            "label": "firstClaimTime",
            "offset": 0,
            "slot": "2",
            "type": "t_uint256"
          },
          {
            "astId": 9118,
            "contract": "contracts/L2/vaults/L2PublicSaleProxy.sol:L2PublicSaleProxy",
            "label": "secondClaimTime",
            "offset": 0,
            "slot": "3",
            "type": "t_uint256"
          },
          {
            "astId": 9120,
            "contract": "contracts/L2/vaults/L2PublicSaleProxy.sol:L2PublicSaleProxy",
            "label": "claimInterval",
            "offset": 0,
            "slot": "4",
            "type": "t_uint256"
          }
        ],
        "numberOfBytes": "160"
      },
      "t_struct(TokenSaleInfo)9134_storage": {
        "encoding": "inplace",
        "label": "struct LibPublicSaleVault.TokenSaleInfo",
        "members": [
          {
            "astId": 9123,
            "contract": "contracts/L2/vaults/L2PublicSaleProxy.sol:L2PublicSaleProxy",
            "label": "total1rdSaleAmount",
            "offset": 0,
            "slot": "0",
            "type": "t_uint256"
          },
          {
            "astId": 9125,
            "contract": "contracts/L2/vaults/L2PublicSaleProxy.sol:L2PublicSaleProxy",
            "label": "total1rdTONAmount",
            "offset": 0,
            "slot": "1",
            "type": "t_uint256"
          },
          {
            "astId": 9127,
            "contract": "contracts/L2/vaults/L2PublicSaleProxy.sol:L2PublicSaleProxy",
            "label": "totalUsers",
            "offset": 0,
            "slot": "2",
            "type": "t_uint256"
          },
          {
            "astId": 9129,
            "contract": "contracts/L2/vaults/L2PublicSaleProxy.sol:L2PublicSaleProxy",
            "label": "total1rdUsers",
            "offset": 0,
            "slot": "3",
            "type": "t_uint256"
          },
          {
            "astId": 9131,
            "contract": "contracts/L2/vaults/L2PublicSaleProxy.sol:L2PublicSaleProxy",
            "label": "total2rdUsers",
            "offset": 0,
            "slot": "4",
            "type": "t_uint256"
          },
          {
            "astId": 9133,
            "contract": "contracts/L2/vaults/L2PublicSaleProxy.sol:L2PublicSaleProxy",
            "label": "total2rdUsersClaim",
            "offset": 0,
            "slot": "5",
            "type": "t_uint256"
          }
        ],
        "numberOfBytes": "192"
      },
      "t_struct(TokenSaleManage)9110_storage": {
        "encoding": "inplace",
        "label": "struct LibPublicSaleVault.TokenSaleManage",
        "members": [
          {
            "astId": 9091,
            "contract": "contracts/L2/vaults/L2PublicSaleProxy.sol:L2PublicSaleProxy",
            "label": "set1rdTokenAmount",
            "offset": 0,
            "slot": "0",
            "type": "t_uint256"
          },
          {
            "astId": 9093,
            "contract": "contracts/L2/vaults/L2PublicSaleProxy.sol:L2PublicSaleProxy",
            "label": "set2rdTokenAmount",
            "offset": 0,
            "slot": "1",
            "type": "t_uint256"
          },
          {
            "astId": 9095,
            "contract": "contracts/L2/vaults/L2PublicSaleProxy.sol:L2PublicSaleProxy",
            "label": "saleTokenPrice",
            "offset": 0,
            "slot": "2",
            "type": "t_uint256"
          },
          {
            "astId": 9097,
            "contract": "contracts/L2/vaults/L2PublicSaleProxy.sol:L2PublicSaleProxy",
            "label": "tonPrice",
            "offset": 0,
            "slot": "3",
            "type": "t_uint256"
          },
          {
            "astId": 9099,
            "contract": "contracts/L2/vaults/L2PublicSaleProxy.sol:L2PublicSaleProxy",
            "label": "hardCap",
            "offset": 0,
            "slot": "4",
            "type": "t_uint256"
          },
          {
            "astId": 9101,
            "contract": "contracts/L2/vaults/L2PublicSaleProxy.sol:L2PublicSaleProxy",
            "label": "changeTOS",
            "offset": 0,
            "slot": "5",
            "type": "t_uint256"
          },
          {
            "astId": 9103,
            "contract": "contracts/L2/vaults/L2PublicSaleProxy.sol:L2PublicSaleProxy",
            "label": "remainTON",
            "offset": 0,
            "slot": "6",
            "type": "t_uint256"
          },
          {
            "astId": 9105,
            "contract": "contracts/L2/vaults/L2PublicSaleProxy.sol:L2PublicSaleProxy",
            "label": "changeTick",
            "offset": 0,
            "slot": "7",
            "type": "t_int24"
          },
          {
            "astId": 9107,
            "contract": "contracts/L2/vaults/L2PublicSaleProxy.sol:L2PublicSaleProxy",
            "label": "exchangeTOS",
            "offset": 3,
            "slot": "7",
            "type": "t_bool"
          },
          {
            "astId": 9109,
            "contract": "contracts/L2/vaults/L2PublicSaleProxy.sol:L2PublicSaleProxy",
            "label": "adminWithdraw",
            "offset": 4,
            "slot": "7",
            "type": "t_bool"
          }
        ],
        "numberOfBytes": "256"
      },
      "t_struct(TokenTimeManage)9089_storage": {
        "encoding": "inplace",
        "label": "struct LibPublicSaleVault.TokenTimeManage",
        "members": [
          {
            "astId": 9074,
            "contract": "contracts/L2/vaults/L2PublicSaleProxy.sol:L2PublicSaleProxy",
            "label": "deployTime",
            "offset": 0,
            "slot": "0",
            "type": "t_uint256"
          },
          {
            "astId": 9076,
            "contract": "contracts/L2/vaults/L2PublicSaleProxy.sol:L2PublicSaleProxy",
            "label": "snapshot",
            "offset": 0,
            "slot": "1",
            "type": "t_uint256"
          },
          {
            "astId": 9078,
            "contract": "contracts/L2/vaults/L2PublicSaleProxy.sol:L2PublicSaleProxy",
            "label": "whiteListStartTime",
            "offset": 0,
            "slot": "2",
            "type": "t_uint256"
          },
          {
            "astId": 9080,
            "contract": "contracts/L2/vaults/L2PublicSaleProxy.sol:L2PublicSaleProxy",
            "label": "whiteListEndTime",
            "offset": 0,
            "slot": "3",
            "type": "t_uint256"
          },
          {
            "astId": 9082,
            "contract": "contracts/L2/vaults/L2PublicSaleProxy.sol:L2PublicSaleProxy",
            "label": "round1StartTime",
            "offset": 0,
            "slot": "4",
            "type": "t_uint256"
          },
          {
            "astId": 9084,
            "contract": "contracts/L2/vaults/L2PublicSaleProxy.sol:L2PublicSaleProxy",
            "label": "round1EndTime",
            "offset": 0,
            "slot": "5",
            "type": "t_uint256"
          },
          {
            "astId": 9086,
            "contract": "contracts/L2/vaults/L2PublicSaleProxy.sol:L2PublicSaleProxy",
            "label": "round2StartTime",
            "offset": 0,
            "slot": "6",
            "type": "t_uint256"
          },
          {
            "astId": 9088,
            "contract": "contracts/L2/vaults/L2PublicSaleProxy.sol:L2PublicSaleProxy",
            "label": "round2EndTime",
            "offset": 0,
            "slot": "7",
            "type": "t_uint256"
          }
        ],
        "numberOfBytes": "256"
      },
      "t_struct(UserClaim)9157_storage": {
        "encoding": "inplace",
        "label": "struct LibPublicSaleVault.UserClaim",
        "members": [
          {
            "astId": 9150,
            "contract": "contracts/L2/vaults/L2PublicSaleProxy.sol:L2PublicSaleProxy",
            "label": "refund",
            "offset": 0,
            "slot": "0",
            "type": "t_bool"
          },
          {
            "astId": 9152,
            "contract": "contracts/L2/vaults/L2PublicSaleProxy.sol:L2PublicSaleProxy",
            "label": "claimAmount",
            "offset": 0,
            "slot": "1",
            "type": "t_uint256"
          },
          {
            "astId": 9154,
            "contract": "contracts/L2/vaults/L2PublicSaleProxy.sol:L2PublicSaleProxy",
            "label": "refundAmount",
            "offset": 0,
            "slot": "2",
            "type": "t_uint256"
          },
          {
            "astId": 9156,
            "contract": "contracts/L2/vaults/L2PublicSaleProxy.sol:L2PublicSaleProxy",
            "label": "latestClaimedRound",
            "offset": 0,
            "slot": "3",
            "type": "t_uint256"
          }
        ],
        "numberOfBytes": "128"
      },
      "t_struct(UserInfo1rd)9143_storage": {
        "encoding": "inplace",
        "label": "struct LibPublicSaleVault.UserInfo1rd",
        "members": [
          {
            "astId": 9136,
            "contract": "contracts/L2/vaults/L2PublicSaleProxy.sol:L2PublicSaleProxy",
            "label": "join",
            "offset": 0,
            "slot": "0",
            "type": "t_bool"
          },
          {
            "astId": 9138,
            "contract": "contracts/L2/vaults/L2PublicSaleProxy.sol:L2PublicSaleProxy",
            "label": "tier",
            "offset": 1,
            "slot": "0",
            "type": "t_uint8"
          },
          {
            "astId": 9140,
            "contract": "contracts/L2/vaults/L2PublicSaleProxy.sol:L2PublicSaleProxy",
            "label": "payAmount",
            "offset": 0,
            "slot": "1",
            "type": "t_uint256"
          },
          {
            "astId": 9142,
            "contract": "contracts/L2/vaults/L2PublicSaleProxy.sol:L2PublicSaleProxy",
            "label": "saleAmount",
            "offset": 0,
            "slot": "2",
            "type": "t_uint256"
          }
        ],
        "numberOfBytes": "96"
      },
      "t_struct(UserInfo2rd)9148_storage": {
        "encoding": "inplace",
        "label": "struct LibPublicSaleVault.UserInfo2rd",
        "members": [
          {
            "astId": 9145,
            "contract": "contracts/L2/vaults/L2PublicSaleProxy.sol:L2PublicSaleProxy",
            "label": "join",
            "offset": 0,
            "slot": "0",
            "type": "t_bool"
          },
          {
            "astId": 9147,
            "contract": "contracts/L2/vaults/L2PublicSaleProxy.sol:L2PublicSaleProxy",
            "label": "depositAmount",
            "offset": 0,
            "slot": "1",
            "type": "t_uint256"
          }
        ],
        "numberOfBytes": "64"
      },
      "t_uint256": {
        "encoding": "inplace",
        "label": "uint256",
        "numberOfBytes": "32"
      },
      "t_uint8": {
        "encoding": "inplace",
        "label": "uint8",
        "numberOfBytes": "1"
      }
    }
  }
}