{
  "address": "0x444e1e36Ac056f2A2767fcB234e78A08307bEA69",
  "abi": [
    {
      "anonymous": false,
      "inputs": [
        {
          "indexed": false,
          "internalType": "address",
          "name": "l2Token",
          "type": "address"
        },
        {
          "indexed": false,
          "internalType": "address",
          "name": "to",
          "type": "address"
        },
        {
          "indexed": false,
          "internalType": "uint256",
          "name": "amount",
          "type": "uint256"
        }
      ],
      "name": "Claimed",
      "type": "event"
    },
    {
      "anonymous": false,
      "inputs": [
        {
          "indexed": false,
          "internalType": "address",
          "name": "from",
          "type": "address"
        },
        {
          "indexed": false,
          "internalType": "uint256",
          "name": "amount",
          "type": "uint256"
        }
      ],
      "name": "Funded",
      "type": "event"
    },
    {
      "anonymous": false,
      "inputs": [
        {
          "indexed": false,
          "internalType": "address",
          "name": "l2Token",
          "type": "address"
        },
        {
          "indexed": false,
          "internalType": "uint256",
          "name": "totalClaimCount",
          "type": "uint256"
        },
        {
          "indexed": false,
          "internalType": "uint256",
          "name": "firstClaimPercents",
          "type": "uint256"
        },
        {
          "indexed": false,
          "internalType": "uint256",
          "name": "firstClaimTime",
          "type": "uint256"
        },
        {
          "indexed": false,
          "internalType": "uint256",
          "name": "secondClaimTime",
          "type": "uint256"
        },
        {
          "indexed": false,
          "internalType": "uint256",
          "name": "roundInterval",
          "type": "uint256"
        }
      ],
      "name": "InitializedL2VestingFundVault",
      "type": "event"
    },
    {
      "anonymous": false,
      "inputs": [
        {
          "indexed": true,
          "internalType": "bytes32",
          "name": "role",
          "type": "bytes32"
        },
        {
          "indexed": true,
          "internalType": "bytes32",
          "name": "previousAdminRole",
          "type": "bytes32"
        },
        {
          "indexed": true,
          "internalType": "bytes32",
          "name": "newAdminRole",
          "type": "bytes32"
        }
      ],
      "name": "RoleAdminChanged",
      "type": "event"
    },
    {
      "anonymous": false,
      "inputs": [
        {
          "indexed": true,
          "internalType": "bytes32",
          "name": "role",
          "type": "bytes32"
        },
        {
          "indexed": true,
          "internalType": "address",
          "name": "account",
          "type": "address"
        },
        {
          "indexed": true,
          "internalType": "address",
          "name": "sender",
          "type": "address"
        }
      ],
      "name": "RoleGranted",
      "type": "event"
    },
    {
      "anonymous": false,
      "inputs": [
        {
          "indexed": true,
          "internalType": "bytes32",
          "name": "role",
          "type": "bytes32"
        },
        {
          "indexed": true,
          "internalType": "address",
          "name": "account",
          "type": "address"
        },
        {
          "indexed": true,
          "internalType": "address",
          "name": "sender",
          "type": "address"
        }
      ],
      "name": "RoleRevoked",
      "type": "event"
    },
    {
      "anonymous": false,
      "inputs": [
        {
          "indexed": true,
          "internalType": "address",
          "name": "impl",
          "type": "address"
        },
        {
          "indexed": false,
          "internalType": "bool",
          "name": "alive",
          "type": "bool"
        }
      ],
      "name": "SetAliveImplementation",
      "type": "event"
    },
    {
      "anonymous": false,
      "inputs": [
        {
          "indexed": false,
          "internalType": "address",
          "name": "newInitializer",
          "type": "address"
        }
      ],
      "name": "SetInitializer",
      "type": "event"
    },
    {
      "anonymous": false,
      "inputs": [
        {
          "indexed": true,
          "internalType": "bytes4",
          "name": "selector",
          "type": "bytes4"
        },
        {
          "indexed": true,
          "internalType": "address",
          "name": "impl",
          "type": "address"
        }
      ],
      "name": "SetSelectorImplementation",
      "type": "event"
    },
    {
      "anonymous": false,
      "inputs": [
        {
          "indexed": false,
          "internalType": "address",
          "name": "l2Token",
          "type": "address"
        },
        {
          "indexed": false,
          "internalType": "address",
          "name": "newAdmin",
          "type": "address"
        }
      ],
      "name": "SetVaultAdmin",
      "type": "event"
    },
    {
      "anonymous": false,
      "inputs": [
        {
          "indexed": true,
          "internalType": "address",
          "name": "implementation",
          "type": "address"
        }
      ],
      "name": "Upgraded",
      "type": "event"
    },
    {
      "stateMutability": "payable",
      "type": "fallback"
    },
    {
      "inputs": [],
      "name": "ADMIN_ROLE",
      "outputs": [
        {
          "internalType": "bytes32",
          "name": "",
          "type": "bytes32"
        }
      ],
      "stateMutability": "view",
      "type": "function"
    },
    {
      "inputs": [],
      "name": "DEFAULT_ADMIN_ROLE",
      "outputs": [
        {
          "internalType": "bytes32",
          "name": "",
          "type": "bytes32"
        }
      ],
      "stateMutability": "view",
      "type": "function"
    },
    {
      "inputs": [],
      "name": "POLICY_ROLE",
      "outputs": [
        {
          "internalType": "bytes32",
          "name": "",
          "type": "bytes32"
        }
      ],
      "stateMutability": "view",
      "type": "function"
    },
    {
      "inputs": [
        {
          "internalType": "address",
          "name": "account",
          "type": "address"
        }
      ],
      "name": "addAdmin",
      "outputs": [],
      "stateMutability": "nonpayable",
      "type": "function"
    },
    {
      "inputs": [
        {
          "internalType": "address",
          "name": "",
          "type": "address"
        }
      ],
      "name": "aliveImplementation",
      "outputs": [
        {
          "internalType": "bool",
          "name": "",
          "type": "bool"
        }
      ],
      "stateMutability": "view",
      "type": "function"
    },
    {
      "inputs": [
        {
          "internalType": "address",
          "name": "",
          "type": "address"
        },
        {
          "internalType": "uint256",
          "name": "",
          "type": "uint256"
        }
      ],
      "name": "claimAmounts",
      "outputs": [
        {
          "internalType": "uint256",
          "name": "",
          "type": "uint256"
        }
      ],
      "stateMutability": "view",
      "type": "function"
    },
    {
      "inputs": [
        {
          "internalType": "address",
          "name": "",
          "type": "address"
        },
        {
          "internalType": "uint256",
          "name": "",
          "type": "uint256"
        }
      ],
      "name": "claimTimes",
      "outputs": [
        {
          "internalType": "uint256",
          "name": "",
          "type": "uint256"
        }
      ],
      "stateMutability": "view",
      "type": "function"
    },
    {
      "inputs": [
        {
          "internalType": "address",
          "name": "",
          "type": "address"
        }
      ],
      "name": "fees",
      "outputs": [
        {
          "internalType": "uint24",
          "name": "",
          "type": "uint24"
        }
      ],
      "stateMutability": "view",
      "type": "function"
    },
    {
      "inputs": [
        {
          "internalType": "bytes32",
          "name": "role",
          "type": "bytes32"
        }
      ],
      "name": "getRoleAdmin",
      "outputs": [
        {
          "internalType": "bytes32",
          "name": "",
          "type": "bytes32"
        }
      ],
      "stateMutability": "view",
      "type": "function"
    },
    {
      "inputs": [
        {
          "internalType": "bytes4",
          "name": "_selector",
          "type": "bytes4"
        }
      ],
      "name": "getSelectorImplementation2",
      "outputs": [
        {
          "internalType": "address",
          "name": "impl",
          "type": "address"
        }
      ],
      "stateMutability": "view",
      "type": "function"
    },
    {
      "inputs": [
        {
          "internalType": "bytes32",
          "name": "role",
          "type": "bytes32"
        },
        {
          "internalType": "address",
          "name": "account",
          "type": "address"
        }
      ],
      "name": "grantRole",
      "outputs": [],
      "stateMutability": "nonpayable",
      "type": "function"
    },
    {
      "inputs": [
        {
          "internalType": "bytes32",
          "name": "role",
          "type": "bytes32"
        },
        {
          "internalType": "address",
          "name": "account",
          "type": "address"
        }
      ],
      "name": "hasRole",
      "outputs": [
        {
          "internalType": "bool",
          "name": "",
          "type": "bool"
        }
      ],
      "stateMutability": "view",
      "type": "function"
    },
    {
      "inputs": [],
      "name": "implementation",
      "outputs": [
        {
          "internalType": "address",
          "name": "",
          "type": "address"
        }
      ],
      "stateMutability": "view",
      "type": "function"
    },
    {
      "inputs": [
        {
          "internalType": "uint256",
          "name": "_index",
          "type": "uint256"
        }
      ],
      "name": "implementation2",
      "outputs": [
        {
          "internalType": "address",
          "name": "",
          "type": "address"
        }
      ],
      "stateMutability": "view",
      "type": "function"
    },
    {
      "inputs": [
        {
          "internalType": "address",
          "name": "account",
          "type": "address"
        }
      ],
      "name": "isAdmin",
      "outputs": [
        {
          "internalType": "bool",
          "name": "",
          "type": "bool"
        }
      ],
      "stateMutability": "view",
      "type": "function"
    },
    {
      "inputs": [],
      "name": "l2ProjectManager",
      "outputs": [
        {
          "internalType": "address",
          "name": "",
          "type": "address"
        }
      ],
      "stateMutability": "view",
      "type": "function"
    },
    {
      "inputs": [
        {
          "internalType": "address",
          "name": "",
          "type": "address"
        }
      ],
      "name": "nowClaimRound",
      "outputs": [
        {
          "internalType": "uint256",
          "name": "",
          "type": "uint256"
        }
      ],
      "stateMutability": "view",
      "type": "function"
    },
    {
      "inputs": [],
      "name": "pauseProxy",
      "outputs": [
        {
          "internalType": "bool",
          "name": "",
          "type": "bool"
        }
      ],
      "stateMutability": "view",
      "type": "function"
    },
    {
      "inputs": [
        {
          "internalType": "uint256",
          "name": "",
          "type": "uint256"
        }
      ],
      "name": "proxyImplementation",
      "outputs": [
        {
          "internalType": "address",
          "name": "",
          "type": "address"
        }
      ],
      "stateMutability": "view",
      "type": "function"
    },
    {
      "inputs": [],
      "name": "publicSaleVault",
      "outputs": [
        {
          "internalType": "address",
          "name": "",
          "type": "address"
        }
      ],
      "stateMutability": "view",
      "type": "function"
    },
    {
      "inputs": [
        {
          "internalType": "address",
          "name": "",
          "type": "address"
        }
      ],
      "name": "receivedAddress",
      "outputs": [
        {
          "internalType": "address",
          "name": "",
          "type": "address"
        }
      ],
      "stateMutability": "view",
      "type": "function"
    },
    {
      "inputs": [
        {
          "internalType": "address",
          "name": "account",
          "type": "address"
        }
      ],
      "name": "removeAdmin",
      "outputs": [],
      "stateMutability": "nonpayable",
      "type": "function"
    },
    {
      "inputs": [
        {
          "internalType": "bytes32",
          "name": "role",
          "type": "bytes32"
        },
        {
          "internalType": "address",
          "name": "account",
          "type": "address"
        }
      ],
      "name": "renounceRole",
      "outputs": [],
      "stateMutability": "nonpayable",
      "type": "function"
    },
    {
      "inputs": [
        {
          "internalType": "bytes32",
          "name": "role",
          "type": "bytes32"
        },
        {
          "internalType": "address",
          "name": "account",
          "type": "address"
        }
      ],
      "name": "revokeRole",
      "outputs": [],
      "stateMutability": "nonpayable",
      "type": "function"
    },
    {
      "inputs": [
        {
          "internalType": "bytes4",
          "name": "",
          "type": "bytes4"
        }
      ],
      "name": "selectorImplementation",
      "outputs": [
        {
          "internalType": "address",
          "name": "",
          "type": "address"
        }
      ],
      "stateMutability": "view",
      "type": "function"
    },
    {
      "inputs": [
        {
          "internalType": "address",
          "name": "newImplementation",
          "type": "address"
        },
        {
          "internalType": "bool",
          "name": "_alive",
          "type": "bool"
        }
      ],
      "name": "setAliveImplementation2",
      "outputs": [],
      "stateMutability": "nonpayable",
      "type": "function"
    },
    {
      "inputs": [
        {
          "internalType": "address",
          "name": "_tonToken",
          "type": "address"
        },
        {
          "internalType": "address",
          "name": "_tosToken",
          "type": "address"
        },
        {
          "internalType": "address",
          "name": "_l2ProjectManager",
          "type": "address"
        },
        {
          "internalType": "address",
          "name": "_publicSaleVault",
          "type": "address"
        },
        {
          "internalType": "address",
          "name": "_uniswapV3Factory",
          "type": "address"
        }
      ],
      "name": "setBaseInfoProxy",
      "outputs": [],
      "stateMutability": "nonpayable",
      "type": "function"
    },
    {
      "inputs": [
        {
          "internalType": "address",
          "name": "newImplementation",
          "type": "address"
        },
        {
          "internalType": "uint256",
          "name": "_index",
          "type": "uint256"
        },
        {
          "internalType": "bool",
          "name": "_alive",
          "type": "bool"
        }
      ],
      "name": "setImplementation2",
      "outputs": [],
      "stateMutability": "nonpayable",
      "type": "function"
    },
    {
      "inputs": [
        {
          "internalType": "bool",
          "name": "_pause",
          "type": "bool"
        }
      ],
      "name": "setProxyPause",
      "outputs": [],
      "stateMutability": "nonpayable",
      "type": "function"
    },
    {
      "inputs": [
        {
          "internalType": "bytes4[]",
          "name": "_selectors",
          "type": "bytes4[]"
        },
        {
          "internalType": "address",
          "name": "_imp",
          "type": "address"
        }
      ],
      "name": "setSelectorImplementations2",
      "outputs": [],
      "stateMutability": "nonpayable",
      "type": "function"
    },
    {
      "inputs": [
        {
          "internalType": "address",
          "name": "l2Token",
          "type": "address"
        },
        {
          "internalType": "address",
          "name": "_newAdmin",
          "type": "address"
        }
      ],
      "name": "setVaultAdmin",
      "outputs": [],
      "stateMutability": "nonpayable",
      "type": "function"
    },
    {
      "inputs": [
        {
          "internalType": "address",
          "name": "",
          "type": "address"
        }
      ],
      "name": "settingChecks",
      "outputs": [
        {
          "internalType": "bool",
          "name": "",
          "type": "bool"
        }
      ],
      "stateMutability": "view",
      "type": "function"
    },
    {
      "inputs": [
        {
          "internalType": "bytes4",
          "name": "interfaceId",
          "type": "bytes4"
        }
      ],
      "name": "supportsInterface",
      "outputs": [
        {
          "internalType": "bool",
          "name": "",
          "type": "bool"
        }
      ],
      "stateMutability": "view",
      "type": "function"
    },
    {
      "inputs": [],
      "name": "tonToken",
      "outputs": [
        {
          "internalType": "address",
          "name": "",
          "type": "address"
        }
      ],
      "stateMutability": "view",
      "type": "function"
    },
    {
      "inputs": [],
      "name": "tosToken",
      "outputs": [
        {
          "internalType": "address",
          "name": "",
          "type": "address"
        }
      ],
      "stateMutability": "view",
      "type": "function"
    },
    {
      "inputs": [
        {
          "internalType": "address",
          "name": "",
          "type": "address"
        }
      ],
      "name": "totalAllocatedAmount",
      "outputs": [
        {
          "internalType": "uint256",
          "name": "",
          "type": "uint256"
        }
      ],
      "stateMutability": "view",
      "type": "function"
    },
    {
      "inputs": [
        {
          "internalType": "address",
          "name": "",
          "type": "address"
        }
      ],
      "name": "totalClaimsAmount",
      "outputs": [
        {
          "internalType": "uint256",
          "name": "",
          "type": "uint256"
        }
      ],
      "stateMutability": "view",
      "type": "function"
    },
    {
      "inputs": [
        {
          "internalType": "address",
          "name": "newAdmin",
          "type": "address"
        }
      ],
      "name": "transferAdmin",
      "outputs": [],
      "stateMutability": "nonpayable",
      "type": "function"
    },
    {
      "inputs": [],
      "name": "uniswapV3Factory",
      "outputs": [
        {
          "internalType": "address",
          "name": "",
          "type": "address"
        }
      ],
      "stateMutability": "view",
      "type": "function"
    },
    {
      "inputs": [
        {
          "internalType": "address",
          "name": "impl",
          "type": "address"
        }
      ],
      "name": "upgradeTo",
      "outputs": [],
      "stateMutability": "nonpayable",
      "type": "function"
    },
    {
      "inputs": [
        {
          "internalType": "address",
          "name": "",
          "type": "address"
        }
      ],
      "name": "vaultAdminOfToken",
      "outputs": [
        {
          "internalType": "address",
          "name": "",
          "type": "address"
        }
      ],
      "stateMutability": "view",
      "type": "function"
    },
    {
      "inputs": [
        {
          "internalType": "address",
          "name": "",
          "type": "address"
        }
      ],
      "name": "vaultInfo",
      "outputs": [
        {
          "internalType": "uint256",
          "name": "totalClaimCount",
          "type": "uint256"
        },
        {
          "internalType": "uint256",
          "name": "firstClaimPercents",
          "type": "uint256"
        },
        {
          "internalType": "uint256",
          "name": "firstClaimTime",
          "type": "uint256"
        },
        {
          "internalType": "uint256",
          "name": "secondClaimTime",
          "type": "uint256"
        },
        {
          "internalType": "uint256",
          "name": "roundInterval",
          "type": "uint256"
        }
      ],
      "stateMutability": "view",
      "type": "function"
    },
    {
      "stateMutability": "payable",
      "type": "receive"
    }
  ],
  "transactionHash": "0xfae5d6cca7cb6ed8be4c62ef066b00e73b75a1c221f1a70ce84997b9333ca165",
  "args": [],
  "numDeployments": 1,
  "solcInputHash": "a39f960ad7ae7b0e89cbcab2979ae2a3",
  "bytecode": "0x60806040526005805460ff191660011790553480156200001e57600080fd5b506200003a60008051602062002206833981519152806200005b565b620000556000805160206200220683398151915233620000a6565b6200015a565b600082815260046020526040808220600101805490849055905190918391839186917fbd79b86ffe0ab8e8776151514217cd7cacd52c909f66475c3af44e129f0b00ff9190a4505050565b620000b28282620000b6565b5050565b60008281526004602090815260408083206001600160a01b038516845290915290205460ff16620000b25760008281526004602090815260408083206001600160a01b03851684529091529020805460ff19166001179055620001163390565b6001600160a01b0316816001600160a01b0316837f2f8788117e7eff1d82e926ec794901d17c78024a50270940304540a733656f0d60405160405180910390a45050565b61209c806200016a6000396000f3fe6080604052600436106102d55760003560e01c80636fc6fc70116101795780638d4fdb40116100d6578063aa2c81471161008a578063d547741f11610064578063d547741f1461096a578063faaebd211461098a578063ff946053146109d0576102dc565b8063aa2c8147146108e7578063b911135f14610914578063c0f22d4b1461094a576102dc565b806391d14854116100bb57806391d1485414610856578063a217fddf1461089c578063a4004108146108b1576102dc565b80638d4fdb40146107c45780639164359a146107e4576102dc565b80637cb00d251161012d5780637fc46ba8116101125780637fc46ba81461074e578063877aaf4f146107845780638b8f4a65146107a4576102dc565b80637cb00d251461070e5780637cd5f6631461072e576102dc565b806375829def1161015e57806375829def1461069a57806375b238fc146106ba578063781a4852146106ee576102dc565b80636fc6fc701461065a578063704802751461067a576102dc565b806335eee5831161023257806352351e85116101e65780635c60da1b116101c05780635c60da1b146105da5780635cc797d81461062057806363a8fd8914610640576102dc565b806352351e8514610565578063550d01a31461058a5780635b549182146105ba576102dc565b80633659cfe6116102175780633659cfe6146104ef5780634a5df50f1461050f57806350d2a2761461052f576102dc565b806335eee583146104a257806336568abe146104cf576102dc565b8063248a9ca3116102895780632c8917c81161026e5780632c8917c81461042a5780632f2ff15d1461046257806335b9ac6614610482576102dc565b8063248a9ca3146103da57806324d7806c1461040a576102dc565b80631785f53c116102ba5780631785f53c1461034b5780631ce2b85e1461036b57806322985246146103a6576102dc565b806301ffc9a7146102e657806304b6a0f51461031b576102dc565b366102dc57005b6102e46109f0565b005b3480156102f257600080fd5b50610306610301366004611c95565b610a9e565b60405190151581526020015b60405180910390f35b34801561032757600080fd5b50610306610336366004611cd6565b600d6020526000908152604090205460ff1681565b34801561035757600080fd5b506102e4610366366004611cd6565b610ad5565b34801561037757600080fd5b50610398610386366004611cd6565b60126020526000908152604090205481565b604051908152602001610312565b3480156103b257600080fd5b506103987ffb5864e8ff833c3cb2d2d08505e82ff02a43554c74a35d4f5a64e8526127831181565b3480156103e657600080fd5b506103986103f5366004611cf1565b60009081526004602052604090206001015490565b34801561041657600080fd5b50610306610425366004611cd6565b610b50565b34801561043657600080fd5b5060065461044a906001600160a01b031681565b6040516001600160a01b039091168152602001610312565b34801561046e57600080fd5b506102e461047d366004611d0a565b610b90565b34801561048e57600080fd5b506102e461049d366004611d36565b610bb5565b3480156104ae57600080fd5b506103986104bd366004611cd6565b60116020526000908152604090205481565b3480156104db57600080fd5b506102e46104ea366004611d0a565b610d5f565b3480156104fb57600080fd5b506102e461050a366004611cd6565b610deb565b34801561051b57600080fd5b506102e461052a366004611d60565b610f44565b34801561053b57600080fd5b5061044a61054a366004611c95565b6003602052600090815260409020546001600160a01b031681565b34801561057157600080fd5b5060055461044a9061010090046001600160a01b031681565b34801561059657600080fd5b506103066105a5366004611cd6565b60026020526000908152604090205460ff1681565b3480156105c657600080fd5b5060095461044a906001600160a01b031681565b3480156105e657600080fd5b506000805260016020527fa6eef7e35abe7026729641147f7915573c7e97b47efa546f5f6e3230263bcb49546001600160a01b031661044a565b34801561062c57600080fd5b506102e461063b366004611df4565b6111e4565b34801561064c57600080fd5b506000546103069060ff1681565b34801561066657600080fd5b506102e4610675366004611e1e565b61123c565b34801561068657600080fd5b506102e4610695366004611cd6565b611438565b3480156106a657600080fd5b506102e46106b5366004611cd6565b6114b0565b3480156106c657600080fd5b506103987fdf8b4c520ffe197c5343c6f5aec59570151ef9a492f2c624fd45ddde6135ec4281565b3480156106fa57600080fd5b5060075461044a906001600160a01b031681565b34801561071a57600080fd5b506102e4610729366004611e83565b611600565b34801561073a57600080fd5b506102e4610749366004611e9e565b611661565b34801561075a57600080fd5b5061044a610769366004611cd6565b600a602052600090815260409020546001600160a01b031681565b34801561079057600080fd5b5060085461044a906001600160a01b031681565b3480156107b057600080fd5b5061044a6107bf366004611cf1565b6116ba565b3480156107d057600080fd5b5061044a6107df366004611c95565b6116d7565b3480156107f057600080fd5b5061082e6107ff366004611cd6565b601360205260009081526040902080546001820154600283015460038401546004909401549293919290919085565b604080519586526020860194909452928401919091526060830152608082015260a001610312565b34801561086257600080fd5b50610306610871366004611d0a565b60009182526004602090815260408084206001600160a01b0393909316845291905290205460ff1690565b3480156108a857600080fd5b50610398600081565b3480156108bd57600080fd5b5061044a6108cc366004611cd6565b600b602052600090815260409020546001600160a01b031681565b3480156108f357600080fd5b50610398610902366004611cd6565b60106020526000908152604090205481565b34801561092057600080fd5b5061044a61092f366004611cf1565b6001602052600090815260409020546001600160a01b031681565b34801561095657600080fd5b50610398610965366004611ed1565b6117d3565b34801561097657600080fd5b506102e4610985366004611d0a565b611804565b34801561099657600080fd5b506109bc6109a5366004611cd6565b600c6020526000908152604090205462ffffff1681565b60405162ffffff9091168152602001610312565b3480156109dc57600080fd5b506103986109eb366004611ed1565b611829565b6000610a076000356001600160e01b0319166116d7565b90506001600160a01b03811615801590610a24575060005460ff16155b610a755760405162461bcd60e51b815260206004820152601d60248201527f50726f78793a20696d706c204f522070726f78792069732066616c736500000060448201526064015b60405180910390fd5b3660008037600080366000845af43d6000803e808015610a94573d6000f35b3d6000fd5b505050565b60006001600160e01b03198216637965db0b60e01b1480610acf57506301ffc9a760e01b6001600160e01b03198316145b92915050565b610ade33610b50565b610b235760405162461bcd60e51b8152602060048201526022602482015260008051602061207083398151915260448201526134b760f11b6064820152608401610a6c565b610b4d7fdf8b4c520ffe197c5343c6f5aec59570151ef9a492f2c624fd45ddde6135ec4282610d5f565b50565b6001600160a01b03811660009081527f2fb794d17134dfdec181ddbac1babb5ab1eb140204ef4d982f294e7fc8b69022602052604081205460ff16610acf565b600082815260046020526040902060010154610bab81611845565b610a99838361184f565b816001600160a01b038116610bf15760405162461bcd60e51b81526020600482015260026024820152612d1960f11b6044820152606401610a6c565b816001600160a01b038116610c2d5760405162461bcd60e51b81526020600482015260026024820152612d1960f11b6044820152606401610a6c565b6006546001600160a01b031615801590610c5157506006546001600160a01b031633145b610c9d5760405162461bcd60e51b815260206004820152601a60248201527f63616c6c6572206973206e6f74204c325075626c696353616c650000000000006044820152606401610a6c565b6001600160a01b038481166000908152600a6020526040902054818516911603610cf25760405162461bcd60e51b8152600401610a6c9060208082526004908201526373616d6560e01b604082015260600190565b6001600160a01b038481166000818152600a602090815260409182902080546001600160a01b031916948816948517905581519283528201929092527fb00bb4c229aff6156cc8e2c767c571665e1927c09fe083ec055956a5a4026193910160405180910390a150505050565b6001600160a01b0381163314610ddd5760405162461bcd60e51b815260206004820152602f60248201527f416363657373436f6e74726f6c3a2063616e206f6e6c792072656e6f756e636560448201527f20726f6c657320666f722073656c6600000000000000000000000000000000006064820152608401610a6c565b610de782826118f1565b5050565b610df433610b50565b610e395760405162461bcd60e51b8152602060048201526022602482015260008051602061207083398151915260448201526134b760f11b6064820152608401610a6c565b6001600160a01b038116610e8f5760405162461bcd60e51b815260206004820152600d60248201527f696e707574206973207a65726f000000000000000000000000000000000000006044820152606401610a6c565b6000805260016020527fa6eef7e35abe7026729641147f7915573c7e97b47efa546f5f6e3230263bcb49546001600160a01b03828116911603610f005760405162461bcd60e51b815260206004820152600960248201526839b0b6b29030b2323960b91b6044820152606401610a6c565b610f0d8160006001611974565b6040516001600160a01b038216907fbc7cd75a20ee27fd9adebab32041f755214dbc6bffa90cc0225b39da2e5c2d3b90600090a250565b610f4d33610b50565b610f925760405162461bcd60e51b8152602060048201526022602482015260008051602061207083398151915260448201526134b760f11b6064820152608401610a6c565b81610fdf5760405162461bcd60e51b815260206004820181905260248201527f50726f78793a205f73656c6563746f727327732073697a65206973207a65726f6044820152606401610a6c565b6001600160a01b03811660009081526002602052604090205460ff166110475760405162461bcd60e51b815260206004820152601860248201527f50726f78793a205f696d70206973206e6f7420616c69766500000000000000006044820152606401610a6c565b60005b828110156111de57816001600160a01b03166003600086868581811061107257611072611efb565b90506020020160208101906110879190611c95565b6001600160e01b03191681526020810191909152604001600020546001600160a01b0316036110f85760405162461bcd60e51b815260206004820152601d60248201527f4c69717569646974795661756c7450726f78793a2073616d6520696d700000006044820152606401610a6c565b816003600086868581811061110f5761110f611efb565b90506020020160208101906111249190611c95565b6001600160e01b0319168152602081019190915260400160002080546001600160a01b0319166001600160a01b03928316179055821684848381811061116c5761116c611efb565b90506020020160208101906111819190611c95565b7bffffffffffffffffffffffffffffffffffffffffffffffffffffffff19167f14ebc1c32aa68f4d766e89f3e546cee249f7df25183fc10ab1568d91c2ce9b7b60405160405180910390a3806111d681611f27565b91505061104a565b50505050565b6111ed33610b50565b6112325760405162461bcd60e51b8152602060048201526022602482015260008051602061207083398151915260448201526134b760f11b6064820152608401610a6c565b610de782826119ff565b846001600160a01b0381166112785760405162461bcd60e51b81526020600482015260026024820152612d1960f11b6044820152606401610a6c565b846001600160a01b0381166112b45760405162461bcd60e51b81526020600482015260026024820152612d1960f11b6044820152606401610a6c565b846001600160a01b0381166112f05760405162461bcd60e51b81526020600482015260026024820152612d1960f11b6044820152606401610a6c565b846001600160a01b03811661132c5760405162461bcd60e51b81526020600482015260026024820152612d1960f11b6044820152606401610a6c565b846001600160a01b0381166113685760405162461bcd60e51b81526020600482015260026024820152612d1960f11b6044820152606401610a6c565b61137133610b50565b6113b65760405162461bcd60e51b8152602060048201526022602482015260008051602061207083398151915260448201526134b760f11b6064820152608401610a6c565b5050600780546001600160a01b03199081166001600160a01b039a8b1617909155600880548216988a169890981790975550506005805474ffffffffffffffffffffffffffffffffffffffff00191661010095881695909502949094179093556006805485169286169290921790915560098054909316931692909217905550565b61144133610b50565b6114865760405162461bcd60e51b8152602060048201526022602482015260008051602061207083398151915260448201526134b760f11b6064820152608401610a6c565b610b4d7fdf8b4c520ffe197c5343c6f5aec59570151ef9a492f2c624fd45ddde6135ec4282610b90565b6114b933610b50565b6114fe5760405162461bcd60e51b8152602060048201526022602482015260008051602061207083398151915260448201526134b760f11b6064820152608401610a6c565b6001600160a01b0381166115545760405162461bcd60e51b815260206004820152601860248201527f41636365737369626c653a207a65726f206164647265737300000000000000006044820152606401610a6c565b6001600160a01b03811633036115ac5760405162461bcd60e51b815260206004820152601660248201527f41636365737369626c653a2073616d652061646d696e000000000000000000006044820152606401610a6c565b6115d67fdf8b4c520ffe197c5343c6f5aec59570151ef9a492f2c624fd45ddde6135ec4282610b90565b610b4d7fdf8b4c520ffe197c5343c6f5aec59570151ef9a492f2c624fd45ddde6135ec4233610d5f565b61160933610b50565b61164e5760405162461bcd60e51b8152602060048201526022602482015260008051602061207083398151915260448201526134b760f11b6064820152608401610a6c565b6000805460ff1916911515919091179055565b61166a33610b50565b6116af5760405162461bcd60e51b8152602060048201526022602482015260008051602061207083398151915260448201526134b760f11b6064820152608401610a6c565b610a99838383611974565b6000818152600160205260408120546001600160a01b0316610acf565b6001600160e01b031981166000908152600360205260408120546001600160a01b03166117375750506000805260016020527fa6eef7e35abe7026729641147f7915573c7e97b47efa546f5f6e3230263bcb49546001600160a01b031690565b6001600160e01b031982166000908152600360209081526040808320546001600160a01b03168352600290915290205460ff161561179557506001600160e01b0319166000908152600360205260409020546001600160a01b031690565b50506000805260016020527fa6eef7e35abe7026729641147f7915573c7e97b47efa546f5f6e3230263bcb49546001600160a01b031690565b919050565b600e60205281600052604060002081815481106117ef57600080fd5b90600052602060002001600091509150505481565b60008281526004602052604090206001015461181f81611845565b610a9983836118f1565b600f60205281600052604060002081815481106117ef57600080fd5b610b4d8133611a5e565b60008281526004602090815260408083206001600160a01b038516845290915290205460ff16610de75760008281526004602090815260408083206001600160a01b03851684529091529020805460ff191660011790556118ad3390565b6001600160a01b0316816001600160a01b0316837f2f8788117e7eff1d82e926ec794901d17c78024a50270940304540a733656f0d60405160405180910390a45050565b60008281526004602090815260408083206001600160a01b038516845290915290205460ff1615610de75760008281526004602090815260408083206001600160a01b0385168085529252808320805460ff1916905551339285917ff6391f5c32d9c69d2a47ea670b442974b53935d1edc7fd64eb21e047a839171b9190a45050565b6001600160a01b0383163b6119cb5760405162461bcd60e51b815260206004820152601b60248201527f50726f78793a206e6f7420636f6e7472616374206164647265737300000000006044820152606401610a6c565b80156119f957600082815260016020526040902080546001600160a01b0319166001600160a01b0385161790555b610a9983825b6001600160a01b038216600081815260026020908152604091829020805460ff191685151590811790915591519182527f72558d9bfba4210f9ef095c782589484151f6d90f7a81bb3cb9b33efc695d324910160405180910390a25050565b60008281526004602090815260408083206001600160a01b038516845290915290205460ff16610de757611a9181611ad3565b611a9c836020611ae5565b604051602001611aad929190611f64565b60408051601f198184030181529082905262461bcd60e51b8252610a6c91600401611fe5565b6060610acf6001600160a01b03831660145b60606000611af4836002612018565b611aff90600261202f565b67ffffffffffffffff811115611b1757611b17612042565b6040519080825280601f01601f191660200182016040528015611b41576020820181803683370190505b509050600360fc1b81600081518110611b5c57611b5c611efb565b60200101906001600160f81b031916908160001a905350600f60fb1b81600181518110611b8b57611b8b611efb565b60200101906001600160f81b031916908160001a9053506000611baf846002612018565b611bba90600161202f565b90505b6001811115611c3f577f303132333435363738396162636465660000000000000000000000000000000085600f1660108110611bfb57611bfb611efb565b1a60f81b828281518110611c1157611c11611efb565b60200101906001600160f81b031916908160001a90535060049490941c93611c3881612058565b9050611bbd565b508315611c8e5760405162461bcd60e51b815260206004820181905260248201527f537472696e67733a20686578206c656e67746820696e73756666696369656e746044820152606401610a6c565b9392505050565b600060208284031215611ca757600080fd5b81356001600160e01b031981168114611c8e57600080fd5b80356001600160a01b03811681146117ce57600080fd5b600060208284031215611ce857600080fd5b611c8e82611cbf565b600060208284031215611d0357600080fd5b5035919050565b60008060408385031215611d1d57600080fd5b82359150611d2d60208401611cbf565b90509250929050565b60008060408385031215611d4957600080fd5b611d5283611cbf565b9150611d2d60208401611cbf565b600080600060408486031215611d7557600080fd5b833567ffffffffffffffff80821115611d8d57600080fd5b818601915086601f830112611da157600080fd5b813581811115611db057600080fd5b8760208260051b8501011115611dc557600080fd5b602092830195509350611ddb9186019050611cbf565b90509250925092565b803580151581146117ce57600080fd5b60008060408385031215611e0757600080fd5b611e1083611cbf565b9150611d2d60208401611de4565b600080600080600060a08688031215611e3657600080fd5b611e3f86611cbf565b9450611e4d60208701611cbf565b9350611e5b60408701611cbf565b9250611e6960608701611cbf565b9150611e7760808701611cbf565b90509295509295909350565b600060208284031215611e9557600080fd5b611c8e82611de4565b600080600060608486031215611eb357600080fd5b611ebc84611cbf565b925060208401359150611ddb60408501611de4565b60008060408385031215611ee457600080fd5b611eed83611cbf565b946020939093013593505050565b634e487b7160e01b600052603260045260246000fd5b634e487b7160e01b600052601160045260246000fd5b600060018201611f3957611f39611f11565b5060010190565b60005b83811015611f5b578181015183820152602001611f43565b50506000910152565b7f416363657373436f6e74726f6c3a206163636f756e7420000000000000000000815260008351611f9c816017850160208801611f40565b7f206973206d697373696e6720726f6c65200000000000000000000000000000006017918401918201528351611fd9816028840160208801611f40565b01602801949350505050565b6020815260008251806020840152612004816040850160208701611f40565b601f01601f19169190910160400192915050565b8082028115828204841417610acf57610acf611f11565b80820180821115610acf57610acf611f11565b634e487b7160e01b600052604160045260246000fd5b60008161206757612067611f11565b50600019019056fe41636365737369626c653a2043616c6c6572206973206e6f7420616e2061646da164736f6c6343000812000adf8b4c520ffe197c5343c6f5aec59570151ef9a492f2c624fd45ddde6135ec42",
  "devdoc": {
    "events": {
      "RoleAdminChanged(bytes32,bytes32,bytes32)": {
        "details": "Emitted when `newAdminRole` is set as ``role``'s admin role, replacing `previousAdminRole` `DEFAULT_ADMIN_ROLE` is the starting admin for all roles, despite {RoleAdminChanged} not being emitted signaling this. _Available since v3.1._"
      },
      "RoleGranted(bytes32,address,address)": {
        "details": "Emitted when `account` is granted `role`. `sender` is the account that originated the contract call, an admin role bearer except when using {AccessControl-_setupRole}."
      },
      "RoleRevoked(bytes32,address,address)": {
        "details": "Emitted when `account` is revoked `role`. `sender` is the account that originated the contract call:   - if using `revokeRole`, it is the admin role bearer   - if using `renounceRole`, it is the role bearer (i.e. `account`)"
      }
    },
    "kind": "dev",
    "methods": {
      "addAdmin(address)": {
        "details": "add admin",
        "params": {
          "account": "address to add"
        }
      },
      "getRoleAdmin(bytes32)": {
        "details": "Returns the admin role that controls `role`. See {grantRole} and {revokeRole}. To change a role's admin, use {_setRoleAdmin}."
      },
      "getSelectorImplementation2(bytes4)": {
        "details": "view implementation address of selector of function",
        "params": {
          "_selector": "selector of function"
        },
        "returns": {
          "impl": "address of the implementation"
        }
      },
      "grantRole(bytes32,address)": {
        "details": "Grants `role` to `account`. If `account` had not been already granted `role`, emits a {RoleGranted} event. Requirements: - the caller must have ``role``'s admin role. May emit a {RoleGranted} event."
      },
      "hasRole(bytes32,address)": {
        "details": "Returns `true` if `account` has been granted `role`."
      },
      "implementation()": {
        "details": "returns the implementation"
      },
      "implementation2(uint256)": {
        "details": "view implementation address of the proxy[index]",
        "params": {
          "_index": "index of proxy"
        },
        "returns": {
          "_0": "address of the implementation"
        }
      },
      "isAdmin(address)": {
        "details": "whether admin",
        "params": {
          "account": "address to check"
        }
      },
      "removeAdmin(address)": {
        "details": "remove admin",
        "params": {
          "account": "address to remove"
        }
      },
      "renounceRole(bytes32,address)": {
        "details": "Revokes `role` from the calling account. Roles are often managed via {grantRole} and {revokeRole}: this function's purpose is to provide a mechanism for accounts to lose their privileges if they are compromised (such as when a trusted device is misplaced). If the calling account had been revoked `role`, emits a {RoleRevoked} event. Requirements: - the caller must be `account`. May emit a {RoleRevoked} event."
      },
      "revokeRole(bytes32,address)": {
        "details": "Revokes `role` from `account`. If `account` had been granted `role`, emits a {RoleRevoked} event. Requirements: - the caller must have ``role``'s admin role. May emit a {RoleRevoked} event."
      },
      "setAliveImplementation2(address,bool)": {
        "details": "set alive status of implementation",
        "params": {
          "_alive": "alive status",
          "newImplementation": "Address of the new implementation."
        }
      },
      "setImplementation2(address,uint256,bool)": {
        "details": "set the implementation address and status of the proxy[index]",
        "params": {
          "_alive": "_alive",
          "_index": "index",
          "newImplementation": "Address of the new implementation."
        }
      },
      "setProxyPause(bool)": {
        "params": {
          "_pause": "true:pause or false:resume"
        }
      },
      "setSelectorImplementations2(bytes4[],address)": {
        "details": "set selectors of Implementation",
        "params": {
          "_imp": "implementation address",
          "_selectors": "being added selectors"
        }
      },
      "supportsInterface(bytes4)": {
        "details": "See {IERC165-supportsInterface}."
      },
      "transferAdmin(address)": {
        "details": "transfer admin",
        "params": {
          "newAdmin": "new admin address"
        }
      },
      "upgradeTo(address)": {
        "params": {
          "impl": "New implementation contract address"
        }
      }
    },
    "version": 1
  },
  "userdoc": {
    "kind": "user",
    "methods": {
      "setProxyPause(bool)": {
        "notice": "Set pause state"
      },
      "upgradeTo(address)": {
        "notice": "Set implementation contract"
      }
    },
    "version": 1
  },
  "storageLayout": {
    "storage": [
      {
        "astId": 10792,
        "contract": "contracts/L2/vaults/L2VestingFundVaultProxy.sol:L2VestingFundVaultProxy",
        "label": "pauseProxy",
        "offset": 0,
        "slot": "0",
        "type": "t_bool"
      },
      {
        "astId": 10796,
        "contract": "contracts/L2/vaults/L2VestingFundVaultProxy.sol:L2VestingFundVaultProxy",
        "label": "proxyImplementation",
        "offset": 0,
        "slot": "1",
        "type": "t_mapping(t_uint256,t_address)"
      },
      {
        "astId": 10800,
        "contract": "contracts/L2/vaults/L2VestingFundVaultProxy.sol:L2VestingFundVaultProxy",
        "label": "aliveImplementation",
        "offset": 0,
        "slot": "2",
        "type": "t_mapping(t_address,t_bool)"
      },
      {
        "astId": 10804,
        "contract": "contracts/L2/vaults/L2VestingFundVaultProxy.sol:L2VestingFundVaultProxy",
        "label": "selectorImplementation",
        "offset": 0,
        "slot": "3",
        "type": "t_mapping(t_bytes4,t_address)"
      },
      {
        "astId": 24,
        "contract": "contracts/L2/vaults/L2VestingFundVaultProxy.sol:L2VestingFundVaultProxy",
        "label": "_roles",
        "offset": 0,
        "slot": "4",
        "type": "t_mapping(t_bytes32,t_struct(RoleData)19_storage)"
      },
      {
        "astId": 7125,
        "contract": "contracts/L2/vaults/L2VestingFundVaultProxy.sol:L2VestingFundVaultProxy",
        "label": "free",
        "offset": 0,
        "slot": "5",
        "type": "t_bool"
      },
      {
        "astId": 7127,
        "contract": "contracts/L2/vaults/L2VestingFundVaultProxy.sol:L2VestingFundVaultProxy",
        "label": "l2ProjectManager",
        "offset": 1,
        "slot": "5",
        "type": "t_address"
      },
      {
        "astId": 7129,
        "contract": "contracts/L2/vaults/L2VestingFundVaultProxy.sol:L2VestingFundVaultProxy",
        "label": "publicSaleVault",
        "offset": 0,
        "slot": "6",
        "type": "t_address"
      },
      {
        "astId": 7131,
        "contract": "contracts/L2/vaults/L2VestingFundVaultProxy.sol:L2VestingFundVaultProxy",
        "label": "tonToken",
        "offset": 0,
        "slot": "7",
        "type": "t_address"
      },
      {
        "astId": 7133,
        "contract": "contracts/L2/vaults/L2VestingFundVaultProxy.sol:L2VestingFundVaultProxy",
        "label": "tosToken",
        "offset": 0,
        "slot": "8",
        "type": "t_address"
      },
      {
        "astId": 7135,
        "contract": "contracts/L2/vaults/L2VestingFundVaultProxy.sol:L2VestingFundVaultProxy",
        "label": "uniswapV3Factory",
        "offset": 0,
        "slot": "9",
        "type": "t_address"
      },
      {
        "astId": 7139,
        "contract": "contracts/L2/vaults/L2VestingFundVaultProxy.sol:L2VestingFundVaultProxy",
        "label": "vaultAdminOfToken",
        "offset": 0,
        "slot": "10",
        "type": "t_mapping(t_address,t_address)"
      },
      {
        "astId": 7143,
        "contract": "contracts/L2/vaults/L2VestingFundVaultProxy.sol:L2VestingFundVaultProxy",
        "label": "receivedAddress",
        "offset": 0,
        "slot": "11",
        "type": "t_mapping(t_address,t_address)"
      },
      {
        "astId": 7147,
        "contract": "contracts/L2/vaults/L2VestingFundVaultProxy.sol:L2VestingFundVaultProxy",
        "label": "fees",
        "offset": 0,
        "slot": "12",
        "type": "t_mapping(t_address,t_uint24)"
      },
      {
        "astId": 7151,
        "contract": "contracts/L2/vaults/L2VestingFundVaultProxy.sol:L2VestingFundVaultProxy",
        "label": "settingChecks",
        "offset": 0,
        "slot": "13",
        "type": "t_mapping(t_address,t_bool)"
      },
      {
        "astId": 7156,
        "contract": "contracts/L2/vaults/L2VestingFundVaultProxy.sol:L2VestingFundVaultProxy",
        "label": "claimTimes",
        "offset": 0,
        "slot": "14",
        "type": "t_mapping(t_address,t_array(t_uint256)dyn_storage)"
      },
      {
        "astId": 7161,
        "contract": "contracts/L2/vaults/L2VestingFundVaultProxy.sol:L2VestingFundVaultProxy",
        "label": "claimAmounts",
        "offset": 0,
        "slot": "15",
        "type": "t_mapping(t_address,t_array(t_uint256)dyn_storage)"
      },
      {
        "astId": 7165,
        "contract": "contracts/L2/vaults/L2VestingFundVaultProxy.sol:L2VestingFundVaultProxy",
        "label": "totalAllocatedAmount",
        "offset": 0,
        "slot": "16",
        "type": "t_mapping(t_address,t_uint256)"
      },
      {
        "astId": 7169,
        "contract": "contracts/L2/vaults/L2VestingFundVaultProxy.sol:L2VestingFundVaultProxy",
        "label": "nowClaimRound",
        "offset": 0,
        "slot": "17",
        "type": "t_mapping(t_address,t_uint256)"
      },
      {
        "astId": 7173,
        "contract": "contracts/L2/vaults/L2VestingFundVaultProxy.sol:L2VestingFundVaultProxy",
        "label": "totalClaimsAmount",
        "offset": 0,
        "slot": "18",
        "type": "t_mapping(t_address,t_uint256)"
      },
      {
        "astId": 7178,
        "contract": "contracts/L2/vaults/L2VestingFundVaultProxy.sol:L2VestingFundVaultProxy",
        "label": "vaultInfo",
        "offset": 0,
        "slot": "19",
        "type": "t_mapping(t_address,t_struct(VaultInfo)9498_storage)"
      }
    ],
    "types": {
      "t_address": {
        "encoding": "inplace",
        "label": "address",
        "numberOfBytes": "20"
      },
      "t_array(t_uint256)dyn_storage": {
        "base": "t_uint256",
        "encoding": "dynamic_array",
        "label": "uint256[]",
        "numberOfBytes": "32"
      },
      "t_bool": {
        "encoding": "inplace",
        "label": "bool",
        "numberOfBytes": "1"
      },
      "t_bytes32": {
        "encoding": "inplace",
        "label": "bytes32",
        "numberOfBytes": "32"
      },
      "t_bytes4": {
        "encoding": "inplace",
        "label": "bytes4",
        "numberOfBytes": "4"
      },
      "t_mapping(t_address,t_address)": {
        "encoding": "mapping",
        "key": "t_address",
        "label": "mapping(address => address)",
        "numberOfBytes": "32",
        "value": "t_address"
      },
      "t_mapping(t_address,t_array(t_uint256)dyn_storage)": {
        "encoding": "mapping",
        "key": "t_address",
        "label": "mapping(address => uint256[])",
        "numberOfBytes": "32",
        "value": "t_array(t_uint256)dyn_storage"
      },
      "t_mapping(t_address,t_bool)": {
        "encoding": "mapping",
        "key": "t_address",
        "label": "mapping(address => bool)",
        "numberOfBytes": "32",
        "value": "t_bool"
      },
      "t_mapping(t_address,t_struct(VaultInfo)9498_storage)": {
        "encoding": "mapping",
        "key": "t_address",
        "label": "mapping(address => struct LibVestingFundVault.VaultInfo)",
        "numberOfBytes": "32",
        "value": "t_struct(VaultInfo)9498_storage"
      },
      "t_mapping(t_address,t_uint24)": {
        "encoding": "mapping",
        "key": "t_address",
        "label": "mapping(address => uint24)",
        "numberOfBytes": "32",
        "value": "t_uint24"
      },
      "t_mapping(t_address,t_uint256)": {
        "encoding": "mapping",
        "key": "t_address",
        "label": "mapping(address => uint256)",
        "numberOfBytes": "32",
        "value": "t_uint256"
      },
      "t_mapping(t_bytes32,t_struct(RoleData)19_storage)": {
        "encoding": "mapping",
        "key": "t_bytes32",
        "label": "mapping(bytes32 => struct AccessControl.RoleData)",
        "numberOfBytes": "32",
        "value": "t_struct(RoleData)19_storage"
      },
      "t_mapping(t_bytes4,t_address)": {
        "encoding": "mapping",
        "key": "t_bytes4",
        "label": "mapping(bytes4 => address)",
        "numberOfBytes": "32",
        "value": "t_address"
      },
      "t_mapping(t_uint256,t_address)": {
        "encoding": "mapping",
        "key": "t_uint256",
        "label": "mapping(uint256 => address)",
        "numberOfBytes": "32",
        "value": "t_address"
      },
      "t_struct(RoleData)19_storage": {
        "encoding": "inplace",
        "label": "struct AccessControl.RoleData",
        "members": [
          {
            "astId": 16,
            "contract": "contracts/L2/vaults/L2VestingFundVaultProxy.sol:L2VestingFundVaultProxy",
            "label": "members",
            "offset": 0,
            "slot": "0",
            "type": "t_mapping(t_address,t_bool)"
          },
          {
            "astId": 18,
            "contract": "contracts/L2/vaults/L2VestingFundVaultProxy.sol:L2VestingFundVaultProxy",
            "label": "adminRole",
            "offset": 0,
            "slot": "1",
            "type": "t_bytes32"
          }
        ],
        "numberOfBytes": "64"
      },
      "t_struct(VaultInfo)9498_storage": {
        "encoding": "inplace",
        "label": "struct LibVestingFundVault.VaultInfo",
        "members": [
          {
            "astId": 9489,
            "contract": "contracts/L2/vaults/L2VestingFundVaultProxy.sol:L2VestingFundVaultProxy",
            "label": "totalClaimCount",
            "offset": 0,
            "slot": "0",
            "type": "t_uint256"
          },
          {
            "astId": 9491,
            "contract": "contracts/L2/vaults/L2VestingFundVaultProxy.sol:L2VestingFundVaultProxy",
            "label": "firstClaimPercents",
            "offset": 0,
            "slot": "1",
            "type": "t_uint256"
          },
          {
            "astId": 9493,
            "contract": "contracts/L2/vaults/L2VestingFundVaultProxy.sol:L2VestingFundVaultProxy",
            "label": "firstClaimTime",
            "offset": 0,
            "slot": "2",
            "type": "t_uint256"
          },
          {
            "astId": 9495,
            "contract": "contracts/L2/vaults/L2VestingFundVaultProxy.sol:L2VestingFundVaultProxy",
            "label": "secondClaimTime",
            "offset": 0,
            "slot": "3",
            "type": "t_uint256"
          },
          {
            "astId": 9497,
            "contract": "contracts/L2/vaults/L2VestingFundVaultProxy.sol:L2VestingFundVaultProxy",
            "label": "roundInterval",
            "offset": 0,
            "slot": "4",
            "type": "t_uint256"
          }
        ],
        "numberOfBytes": "160"
      },
      "t_uint24": {
        "encoding": "inplace",
        "label": "uint24",
        "numberOfBytes": "3"
      },
      "t_uint256": {
        "encoding": "inplace",
        "label": "uint256",
        "numberOfBytes": "32"
      }
    }
  }
}