{
  "_format": "hh-sol-artifact-1",
  "contractName": "L2ScheduleVaultB",
  "sourceName": "contracts/L2/vaults/L2ScheduleVaultB.sol",
  "abi": [
    {
      "anonymous": false,
      "inputs": [
        {
          "indexed": false,
          "internalType": "address",
          "name": "l2Token",
          "type": "address"
        },
        {
          "indexed": false,
          "internalType": "address",
          "name": "to",
          "type": "address"
        },
        {
          "indexed": false,
          "internalType": "uint256",
          "name": "amount",
          "type": "uint256"
        }
      ],
      "name": "Claimed",
      "type": "event"
    },
    {
      "anonymous": false,
      "inputs": [
        {
          "indexed": false,
          "internalType": "address",
          "name": "l2Token",
          "type": "address"
        },
        {
          "indexed": false,
          "internalType": "uint256",
          "name": "totalAllocatedAmount",
          "type": "uint256"
        },
        {
          "indexed": false,
          "internalType": "uint256",
          "name": "totalClaimCount",
          "type": "uint256"
        },
        {
          "indexed": false,
          "internalType": "uint256",
          "name": "firstClaimAmount",
          "type": "uint256"
        },
        {
          "indexed": false,
          "internalType": "uint32",
          "name": "firstClaimTime",
          "type": "uint32"
        },
        {
          "indexed": false,
          "internalType": "uint32",
          "name": "secondClaimTime",
          "type": "uint32"
        },
        {
          "indexed": false,
          "internalType": "uint32",
          "name": "roundInterval",
          "type": "uint32"
        }
      ],
      "name": "InitializedL2ScheduleVaultB",
      "type": "event"
    },
    {
      "anonymous": false,
      "inputs": [
        {
          "indexed": true,
          "internalType": "bytes32",
          "name": "role",
          "type": "bytes32"
        },
        {
          "indexed": true,
          "internalType": "bytes32",
          "name": "previousAdminRole",
          "type": "bytes32"
        },
        {
          "indexed": true,
          "internalType": "bytes32",
          "name": "newAdminRole",
          "type": "bytes32"
        }
      ],
      "name": "RoleAdminChanged",
      "type": "event"
    },
    {
      "anonymous": false,
      "inputs": [
        {
          "indexed": true,
          "internalType": "bytes32",
          "name": "role",
          "type": "bytes32"
        },
        {
          "indexed": true,
          "internalType": "address",
          "name": "account",
          "type": "address"
        },
        {
          "indexed": true,
          "internalType": "address",
          "name": "sender",
          "type": "address"
        }
      ],
      "name": "RoleGranted",
      "type": "event"
    },
    {
      "anonymous": false,
      "inputs": [
        {
          "indexed": true,
          "internalType": "bytes32",
          "name": "role",
          "type": "bytes32"
        },
        {
          "indexed": true,
          "internalType": "address",
          "name": "account",
          "type": "address"
        },
        {
          "indexed": true,
          "internalType": "address",
          "name": "sender",
          "type": "address"
        }
      ],
      "name": "RoleRevoked",
      "type": "event"
    },
    {
      "anonymous": false,
      "inputs": [
        {
          "indexed": false,
          "internalType": "address",
          "name": "newInitializer",
          "type": "address"
        }
      ],
      "name": "SetInitializer",
      "type": "event"
    },
    {
      "anonymous": false,
      "inputs": [
        {
          "indexed": false,
          "internalType": "address",
          "name": "l2Token",
          "type": "address"
        },
        {
          "indexed": false,
          "internalType": "address",
          "name": "newAdmin",
          "type": "address"
        }
      ],
      "name": "SetVaultAdmin",
      "type": "event"
    },
    {
      "inputs": [],
      "name": "ADMIN_ROLE",
      "outputs": [
        {
          "internalType": "bytes32",
          "name": "",
          "type": "bytes32"
        }
      ],
      "stateMutability": "view",
      "type": "function"
    },
    {
      "inputs": [],
      "name": "DEFAULT_ADMIN_ROLE",
      "outputs": [
        {
          "internalType": "bytes32",
          "name": "",
          "type": "bytes32"
        }
      ],
      "stateMutability": "view",
      "type": "function"
    },
    {
      "inputs": [],
      "name": "POLICY_ROLE",
      "outputs": [
        {
          "internalType": "bytes32",
          "name": "",
          "type": "bytes32"
        }
      ],
      "stateMutability": "view",
      "type": "function"
    },
    {
      "inputs": [
        {
          "internalType": "address",
          "name": "account",
          "type": "address"
        }
      ],
      "name": "addAdmin",
      "outputs": [],
      "stateMutability": "nonpayable",
      "type": "function"
    },
    {
      "inputs": [
        {
          "internalType": "address",
          "name": "",
          "type": "address"
        }
      ],
      "name": "aliveImplementation",
      "outputs": [
        {
          "internalType": "bool",
          "name": "",
          "type": "bool"
        }
      ],
      "stateMutability": "view",
      "type": "function"
    },
    {
      "inputs": [
        {
          "internalType": "address",
          "name": "l2Token",
          "type": "address"
        }
      ],
      "name": "availableClaimAmount",
      "outputs": [
        {
          "internalType": "uint256",
          "name": "amount",
          "type": "uint256"
        }
      ],
      "stateMutability": "view",
      "type": "function"
    },
    {
      "inputs": [
        {
          "internalType": "address",
          "name": "l2Token",
          "type": "address"
        }
      ],
      "name": "claim",
      "outputs": [],
      "stateMutability": "nonpayable",
      "type": "function"
    },
    {
      "inputs": [
        {
          "internalType": "address",
          "name": "l2Token",
          "type": "address"
        }
      ],
      "name": "getCurrentRound",
      "outputs": [
        {
          "internalType": "uint256",
          "name": "round",
          "type": "uint256"
        }
      ],
      "stateMutability": "view",
      "type": "function"
    },
    {
      "inputs": [
        {
          "internalType": "bytes32",
          "name": "role",
          "type": "bytes32"
        }
      ],
      "name": "getRoleAdmin",
      "outputs": [
        {
          "internalType": "bytes32",
          "name": "",
          "type": "bytes32"
        }
      ],
      "stateMutability": "view",
      "type": "function"
    },
    {
      "inputs": [
        {
          "internalType": "bytes32",
          "name": "role",
          "type": "bytes32"
        },
        {
          "internalType": "address",
          "name": "account",
          "type": "address"
        }
      ],
      "name": "grantRole",
      "outputs": [],
      "stateMutability": "nonpayable",
      "type": "function"
    },
    {
      "inputs": [
        {
          "internalType": "bytes32",
          "name": "role",
          "type": "bytes32"
        },
        {
          "internalType": "address",
          "name": "account",
          "type": "address"
        }
      ],
      "name": "hasRole",
      "outputs": [
        {
          "internalType": "bool",
          "name": "",
          "type": "bool"
        }
      ],
      "stateMutability": "view",
      "type": "function"
    },
    {
      "inputs": [
        {
          "internalType": "address",
          "name": "l2Token",
          "type": "address"
        },
        {
          "internalType": "uint256",
          "name": "totalAllocatedAmount",
          "type": "uint256"
        },
        {
          "internalType": "uint256",
          "name": "totalClaimCount",
          "type": "uint256"
        },
        {
          "internalType": "uint256",
          "name": "firstClaimAmount",
          "type": "uint256"
        },
        {
          "internalType": "uint32",
          "name": "firstClaimTime",
          "type": "uint32"
        },
        {
          "internalType": "uint32",
          "name": "secondClaimTime",
          "type": "uint32"
        },
        {
          "internalType": "uint32",
          "name": "roundInterval",
          "type": "uint32"
        }
      ],
      "name": "initialize",
      "outputs": [],
      "stateMutability": "nonpayable",
      "type": "function"
    },
    {
      "inputs": [],
      "name": "initializer",
      "outputs": [
        {
          "internalType": "address",
          "name": "",
          "type": "address"
        }
      ],
      "stateMutability": "view",
      "type": "function"
    },
    {
      "inputs": [
        {
          "internalType": "address",
          "name": "account",
          "type": "address"
        }
      ],
      "name": "isAdmin",
      "outputs": [
        {
          "internalType": "bool",
          "name": "",
          "type": "bool"
        }
      ],
      "stateMutability": "view",
      "type": "function"
    },
    {
      "inputs": [
        {
          "internalType": "address",
          "name": "l2Token",
          "type": "address"
        },
        {
          "internalType": "address",
          "name": "account",
          "type": "address"
        }
      ],
      "name": "isVaultAdmin",
      "outputs": [
        {
          "internalType": "bool",
          "name": "",
          "type": "bool"
        }
      ],
      "stateMutability": "view",
      "type": "function"
    },
    {
      "inputs": [],
      "name": "l2ProjectManager",
      "outputs": [
        {
          "internalType": "address",
          "name": "",
          "type": "address"
        }
      ],
      "stateMutability": "view",
      "type": "function"
    },
    {
      "inputs": [],
      "name": "pauseProxy",
      "outputs": [
        {
          "internalType": "bool",
          "name": "",
          "type": "bool"
        }
      ],
      "stateMutability": "view",
      "type": "function"
    },
    {
      "inputs": [
        {
          "internalType": "uint256",
          "name": "",
          "type": "uint256"
        }
      ],
      "name": "proxyImplementation",
      "outputs": [
        {
          "internalType": "address",
          "name": "",
          "type": "address"
        }
      ],
      "stateMutability": "view",
      "type": "function"
    },
    {
      "inputs": [
        {
          "internalType": "address",
          "name": "account",
          "type": "address"
        }
      ],
      "name": "removeAdmin",
      "outputs": [],
      "stateMutability": "nonpayable",
      "type": "function"
    },
    {
      "inputs": [
        {
          "internalType": "bytes32",
          "name": "role",
          "type": "bytes32"
        },
        {
          "internalType": "address",
          "name": "account",
          "type": "address"
        }
      ],
      "name": "renounceRole",
      "outputs": [],
      "stateMutability": "nonpayable",
      "type": "function"
    },
    {
      "inputs": [
        {
          "internalType": "bytes32",
          "name": "role",
          "type": "bytes32"
        },
        {
          "internalType": "address",
          "name": "account",
          "type": "address"
        }
      ],
      "name": "revokeRole",
      "outputs": [],
      "stateMutability": "nonpayable",
      "type": "function"
    },
    {
      "inputs": [
        {
          "internalType": "bytes4",
          "name": "",
          "type": "bytes4"
        }
      ],
      "name": "selectorImplementation",
      "outputs": [
        {
          "internalType": "address",
          "name": "",
          "type": "address"
        }
      ],
      "stateMutability": "view",
      "type": "function"
    },
    {
      "inputs": [
        {
          "internalType": "address",
          "name": "_initializer",
          "type": "address"
        }
      ],
      "name": "setInitializer",
      "outputs": [],
      "stateMutability": "nonpayable",
      "type": "function"
    },
    {
      "inputs": [
        {
          "internalType": "address",
          "name": "_l2ProjectManager",
          "type": "address"
        }
      ],
      "name": "setL2ProjectManager",
      "outputs": [],
      "stateMutability": "nonpayable",
      "type": "function"
    },
    {
      "inputs": [
        {
          "internalType": "address",
          "name": "l2Token",
          "type": "address"
        },
        {
          "internalType": "address",
          "name": "_newAdmin",
          "type": "address"
        }
      ],
      "name": "setVaultAdmin",
      "outputs": [],
      "stateMutability": "nonpayable",
      "type": "function"
    },
    {
      "inputs": [
        {
          "internalType": "bytes4",
          "name": "interfaceId",
          "type": "bytes4"
        }
      ],
      "name": "supportsInterface",
      "outputs": [
        {
          "internalType": "bool",
          "name": "",
          "type": "bool"
        }
      ],
      "stateMutability": "view",
      "type": "function"
    },
    {
      "inputs": [
        {
          "internalType": "address",
          "name": "newAdmin",
          "type": "address"
        }
      ],
      "name": "transferAdmin",
      "outputs": [],
      "stateMutability": "nonpayable",
      "type": "function"
    },
    {
      "inputs": [
        {
          "internalType": "address",
          "name": "",
          "type": "address"
        }
      ],
      "name": "vaultAdminOfToken",
      "outputs": [
        {
          "internalType": "address",
          "name": "",
          "type": "address"
        }
      ],
      "stateMutability": "view",
      "type": "function"
    },
    {
      "inputs": [
        {
          "internalType": "address",
          "name": "",
          "type": "address"
        }
      ],
      "name": "vaultInfo",
      "outputs": [
        {
          "internalType": "uint256",
          "name": "totalAllocatedAmount",
          "type": "uint256"
        },
        {
          "internalType": "uint256",
          "name": "totalClaimCount",
          "type": "uint256"
        },
        {
          "internalType": "uint256",
          "name": "totalClaimedAmount",
          "type": "uint256"
        },
        {
          "internalType": "uint256",
          "name": "firstClaimAmount",
          "type": "uint256"
        },
        {
          "internalType": "uint32",
          "name": "firstClaimTime",
          "type": "uint32"
        },
        {
          "internalType": "uint32",
          "name": "secondClaimTime",
          "type": "uint32"
        },
        {
          "internalType": "uint32",
          "name": "roundInterval",
          "type": "uint32"
        },
        {
          "internalType": "uint32",
          "name": "latestClaimedRound",
          "type": "uint32"
        }
      ],
      "stateMutability": "view",
      "type": "function"
    }
  ],
  "bytecode": "0x60806040526005805460ff1916600117905534801561001d57600080fd5b50611ea68061002d6000396000f3fe608060405234801561001057600080fd5b50600436106101cf5760003560e01c8063565b1a25116101045780639164359a116100a2578063a418234311610071578063a418234314610514578063b911135f14610527578063d35dd1c614610550578063d547741f1461056357600080fd5b80639164359a1461041357806391d14854146104c05780639ce110d7146104f9578063a217fddf1461050c57600080fd5b806370480275116100de578063704802751461039d57806375829def146103b057806375b238fc146103c35780637fc46ba8146103ea57600080fd5b8063565b1a251461036a5780635c24b0741461037d57806363a8fd891461039057600080fd5b806335b9ac661161017157806350d2a2761161014b57806350d2a276146102db57806351e8152a1461031c57806352351e851461032f578063550d01a31461034757600080fd5b806335b9ac66146102a257806336568abe146102b5578063390d15d2146102c857600080fd5b806322985246116101ad5780632298524614610224578063248a9ca31461025957806324d7806c1461027c5780632f2ff15d1461028f57600080fd5b806301ffc9a7146101d45780631785f53c146101fc5780631e83409a14610211575b600080fd5b6101e76101e2366004611b5d565b610576565b60405190151581526020015b60405180910390f35b61020f61020a366004611ba3565b6105ad565b005b61020f61021f366004611ba3565b61063f565b61024b7ffb5864e8ff833c3cb2d2d08505e82ff02a43554c74a35d4f5a64e8526127831181565b6040519081526020016101f3565b61024b610267366004611bbe565b60009081526004602052604090206001015490565b6101e761028a366004611ba3565b610842565b61020f61029d366004611bd7565b610882565b61020f6102b0366004611c03565b6108ac565b61020f6102c3366004611bd7565b610a64565b61024b6102d6366004611ba3565b610af0565b6103046102e9366004611b5d565b6003602052600090815260409020546001600160a01b031681565b6040516001600160a01b0390911681526020016101f3565b6101e761032a366004611c03565b610c3d565b6005546103049061010090046001600160a01b031681565b6101e7610355366004611ba3565b60026020526000908152604090205460ff1681565b61024b610378366004611ba3565b610c7a565b61020f61038b366004611ba3565b610da1565b6000546101e79060ff1681565b61020f6103ab366004611ba3565b610ee5565b61020f6103be366004611ba3565b610f6f565b61024b7fdf8b4c520ffe197c5343c6f5aec59570151ef9a492f2c624fd45ddde6135ec4281565b6103046103f8366004611ba3565b6007602052600090815260409020546001600160a01b031681565b610476610421366004611ba3565b600860205260009081526040902080546001820154600283015460038401546004909401549293919290919063ffffffff808216916401000000008104821691600160401b8204811691600160601b90041688565b60408051988952602089019790975295870194909452606086019290925263ffffffff908116608086015290811660a085015290811660c08401521660e0820152610100016101f3565b6101e76104ce366004611bd7565b60009182526004602090815260408084206001600160a01b0393909316845291905290205460ff1690565b600654610304906001600160a01b031681565b61024b600081565b61020f610522366004611ba3565b6110d1565b610304610535366004611bbe565b6001602052600090815260409020546001600160a01b031681565b61020f61055e366004611c41565b6111ee565b61020f610571366004611bd7565b61159a565b60006001600160e01b03198216637965db0b60e01b14806105a757506301ffc9a760e01b6001600160e01b03198316145b92915050565b6105b633610842565b6106125760405162461bcd60e51b815260206004820152602260248201527f41636365737369626c653a2043616c6c6572206973206e6f7420616e2061646d60448201526134b760f11b60648201526084015b60405180910390fd5b61063c7fdf8b4c520ffe197c5343c6f5aec59570151ef9a492f2c624fd45ddde6135ec4282610a64565b50565b806001600160a01b03811661067b5760405162461bcd60e51b81526020600482015260026024820152612d1960f11b6044820152606401610609565b6001600160a01b03808316600090815260076020526040902054839116158015906106bf57506001600160a01b038181166000908152600760205260409020541633145b6107195760405162461bcd60e51b815260206004820152602560248201527f63616c6c6572206973206e6f742061207661756c7441646d696e204f66206c326044820152642a37b5b2b760d91b6064820152608401610609565b600061072484610af0565b6040516370a0823160e01b81523060048201529091506001600160a01b038516906370a0823190602401602060405180830381865afa15801561076b573d6000803e3d6000fd5b505050506040513d601f19601f8201168201806040525081019061078f9190611cb2565b8111156107de5760405162461bcd60e51b815260206004820152601760248201527f62616c616e636520697320696e73756666696369656e740000000000000000006044820152606401610609565b6107f26001600160a01b03851633836115bf565b604080516001600160a01b03861681523360208201529081018290527ff7a40077ff7a04c7e61f6f26fb13774259ddf1b6bce9ecf26a8276cdd3992683906060015b60405180910390a150505050565b6001600160a01b03811660009081527f2fb794d17134dfdec181ddbac1babb5ab1eb140204ef4d982f294e7fc8b69022602052604081205460ff166105a7565b60008281526004602052604090206001015461089d816116da565b6108a783836116e4565b505050565b816001600160a01b0381166108e85760405162461bcd60e51b81526020600482015260026024820152612d1960f11b6044820152606401610609565b816001600160a01b0381166109245760405162461bcd60e51b81526020600482015260026024820152612d1960f11b6044820152606401610609565b60055461010090046001600160a01b031615801590610952575060055461010090046001600160a01b031633145b61099e5760405162461bcd60e51b815260206004820152601e60248201527f63616c6c6572206973206e6f74206c3250726f6a6563744d616e6167657200006044820152606401610609565b6001600160a01b038481166000908152600760205260409020548185169116036109f35760405162461bcd60e51b81526004016106099060208082526004908201526373616d6560e01b604082015260600190565b6001600160a01b03848116600081815260076020908152604091829020805473ffffffffffffffffffffffffffffffffffffffff1916948816948517905581519283528201929092527fb00bb4c229aff6156cc8e2c767c571665e1927c09fe083ec055956a5a40261939101610834565b6001600160a01b0381163314610ae25760405162461bcd60e51b815260206004820152602f60248201527f416363657373436f6e74726f6c3a2063616e206f6e6c792072656e6f756e636560448201527f20726f6c657320666f722073656c6600000000000000000000000000000000006064820152608401610609565b610aec8282611786565b5050565b6001600160a01b038116600090815260086020908152604080832081516101008101835281548152600182015493810193909352600281015491830191909152600381015460608301526004015463ffffffff80821660808401526401000000008204811660a0840152600160401b8204811660c0840152600160601b9091041660e082015281610b8084610c7a565b9050808260e0015163ffffffff161015610c365780600103610bb75781604001518260600151610bb09190611ce1565b9250610c36565b8160200151811015610c22576040820151610bd3600183611ce1565b60018460200151610be49190611ce1565b60608501518551610bf59190611ce1565b610bff9190611cf4565b610c099190611d16565b8360600151610c189190611d2d565b610bb09190611ce1565b60408201518251610c339190611ce1565b92505b5050919050565b60006001600160a01b03821615801590610c7357506001600160a01b038381166000908152600760205260409020548116908316145b9392505050565b6001600160a01b038116600090815260086020908152604080832081516101008101835281548152600182015493810193909352600281015491830191909152600381015460608301526004015463ffffffff808216608084018190526401000000008304821660a0850152600160401b8304821660c0850152600160601b9092041660e083015215801590610d1a575042816080015163ffffffff1611155b8015610d2f57508060a0015163ffffffff1642105b15610d3d5760019150610d87565b428160a0015163ffffffff1611610d87578060c0015163ffffffff168160a0015163ffffffff1642610d6f9190611ce1565b610d799190611cf4565b610d84906002611d2d565b91505b8060200151821115610d9b57806020015191505b50919050565b806001600160a01b038116610ddd5760405162461bcd60e51b81526020600482015260026024820152612d1960f11b6044820152606401610609565b610de633610842565b610e3d5760405162461bcd60e51b815260206004820152602260248201527f41636365737369626c653a2043616c6c6572206973206e6f7420616e2061646d60448201526134b760f11b6064820152608401610609565b6006546001600160a01b03808416911603610e835760405162461bcd60e51b81526004016106099060208082526004908201526373616d6560e01b604082015260600190565b6006805473ffffffffffffffffffffffffffffffffffffffff19166001600160a01b0384169081179091556040519081527f2a2bf2572e82958ab47f7049e07d49aab236a5f6d26b804b1ce51da119c6d9d09060200160405180910390a15050565b610eee33610842565b610f455760405162461bcd60e51b815260206004820152602260248201527f41636365737369626c653a2043616c6c6572206973206e6f7420616e2061646d60448201526134b760f11b6064820152608401610609565b61063c7fdf8b4c520ffe197c5343c6f5aec59570151ef9a492f2c624fd45ddde6135ec4282610882565b610f7833610842565b610fcf5760405162461bcd60e51b815260206004820152602260248201527f41636365737369626c653a2043616c6c6572206973206e6f7420616e2061646d60448201526134b760f11b6064820152608401610609565b6001600160a01b0381166110255760405162461bcd60e51b815260206004820152601860248201527f41636365737369626c653a207a65726f206164647265737300000000000000006044820152606401610609565b6001600160a01b038116330361107d5760405162461bcd60e51b815260206004820152601660248201527f41636365737369626c653a2073616d652061646d696e000000000000000000006044820152606401610609565b6110a77fdf8b4c520ffe197c5343c6f5aec59570151ef9a492f2c624fd45ddde6135ec4282610882565b61063c7fdf8b4c520ffe197c5343c6f5aec59570151ef9a492f2c624fd45ddde6135ec4233610a64565b806001600160a01b03811661110d5760405162461bcd60e51b81526020600482015260026024820152612d1960f11b6044820152606401610609565b61111633610842565b61116d5760405162461bcd60e51b815260206004820152602260248201527f41636365737369626c653a2043616c6c6572206973206e6f7420616e2061646d60448201526134b760f11b6064820152608401610609565b6005546001600160a01b0380841661010090920416036111b85760405162461bcd60e51b81526004016106099060208082526004908201526373616d6560e01b604082015260600190565b50600580546001600160a01b039092166101000274ffffffffffffffffffffffffffffffffffffffff0019909216919091179055565b6001600160a01b038088166000908152600760205260409020548891161580159061124657506006546001600160a01b031633148061124657506001600160a01b038181166000908152600760205260409020541633145b6112a05760405162461bcd60e51b815260206004820152602560248201527f63616c6c6572206973206e6f742061207661756c7441646d696e204f66206c326044820152642a37b5b2b760d91b6064820152608401610609565b6001600160a01b03881660009081526008602052604090206004015463ffffffff161561130f5760405162461bcd60e51b815260206004820152601360248201527f616c726561647920696e697469616c697a6564000000000000000000000000006044820152606401610609565b438463ffffffff16116113645760405162461bcd60e51b815260206004820152601760248201527f666972737420636c61696d2074696d65207061737365640000000000000000006044820152606401610609565b861580159061137257508515155b8015611383575063ffffffff821615155b6113cf5760405162461bcd60e51b815260206004820152600b60248201527f77726f6e672076616c75650000000000000000000000000000000000000000006044820152606401610609565b6001861115611433578363ffffffff168363ffffffff16116114335760405162461bcd60e51b815260206004820152601b60248201527f77726f6e6720746865207365636f6e6420636c61696d2074696d6500000000006044820152606401610609565b8487116114825760405162461bcd60e51b815260206004820152601c60248201527f77726f6e672074686520666972737420636c61696d20616d6f756e74000000006044820152606401610609565b6005546114a2906001600160a01b038a811691610100900416308a611809565b6001600160a01b03881660008181526008602090815260408083208b8155600181018b90556002810193909355600383018990556004830180546fffffffff0000000000000000000000001963ffffffff898116600160401b8102929092166fffffffffffffffff0000000000000000198c8316640100000000810267ffffffffffffffff19909616938f1693841795909517161790935583519687529386018d90529185018b9052606085018a9052608085015260a084015260c0830152907f33df8dc315450597c5685cadec644def9dabe91510ad90b72aa1ef69f8558f1a9060e00160405180910390a1505050505050505050565b6000828152600460205260409020600101546115b5816116da565b6108a78383611786565b604080516001600160a01b038481166024830152604480830185905283518084039091018152606490920183526020820180516001600160e01b031663a9059cbb60e01b179052915160009283929087169161161b9190611d64565b6000604051808303816000865af19150503d8060008114611658576040519150601f19603f3d011682016040523d82523d6000602084013e61165d565b606091505b50915091508180156116875750805115806116875750808060200190518101906116879190611d80565b6116d35760405162461bcd60e51b815260206004820152600f60248201527f5452414e534645525f4641494c454400000000000000000000000000000000006044820152606401610609565b5050505050565b61063c813361192d565b60008281526004602090815260408083206001600160a01b038516845290915290205460ff16610aec5760008281526004602090815260408083206001600160a01b03851684529091529020805460ff191660011790556117423390565b6001600160a01b0316816001600160a01b0316837f2f8788117e7eff1d82e926ec794901d17c78024a50270940304540a733656f0d60405160405180910390a45050565b60008281526004602090815260408083206001600160a01b038516845290915290205460ff1615610aec5760008281526004602090815260408083206001600160a01b0385168085529252808320805460ff1916905551339285917ff6391f5c32d9c69d2a47ea670b442974b53935d1edc7fd64eb21e047a839171b9190a45050565b604080516001600160a01b0385811660248301528481166044830152606480830185905283518084039091018152608490920183526020820180516001600160e01b03166323b872dd60e01b179052915160009283929088169161186d9190611d64565b6000604051808303816000865af19150503d80600081146118aa576040519150601f19603f3d011682016040523d82523d6000602084013e6118af565b606091505b50915091508180156118d95750805115806118d95750808060200190518101906118d99190611d80565b6119255760405162461bcd60e51b815260206004820152601460248201527f5452414e534645525f46524f4d5f4641494c45440000000000000000000000006044820152606401610609565b505050505050565b60008281526004602090815260408083206001600160a01b038516845290915290205460ff16610aec57611960816119a2565b61196b8360206119b4565b60405160200161197c929190611da2565b60408051601f198184030181529082905262461bcd60e51b825261060991600401611e23565b60606105a76001600160a01b03831660145b606060006119c3836002611d16565b6119ce906002611d2d565b67ffffffffffffffff8111156119e6576119e6611e56565b6040519080825280601f01601f191660200182016040528015611a10576020820181803683370190505b509050600360fc1b81600081518110611a2b57611a2b611e6c565b60200101906001600160f81b031916908160001a905350600f60fb1b81600181518110611a5a57611a5a611e6c565b60200101906001600160f81b031916908160001a9053506000611a7e846002611d16565b611a89906001611d2d565b90505b6001811115611b0e577f303132333435363738396162636465660000000000000000000000000000000085600f1660108110611aca57611aca611e6c565b1a60f81b828281518110611ae057611ae0611e6c565b60200101906001600160f81b031916908160001a90535060049490941c93611b0781611e82565b9050611a8c565b508315610c735760405162461bcd60e51b815260206004820181905260248201527f537472696e67733a20686578206c656e67746820696e73756666696369656e746044820152606401610609565b600060208284031215611b6f57600080fd5b81356001600160e01b031981168114610c7357600080fd5b80356001600160a01b0381168114611b9e57600080fd5b919050565b600060208284031215611bb557600080fd5b610c7382611b87565b600060208284031215611bd057600080fd5b5035919050565b60008060408385031215611bea57600080fd5b82359150611bfa60208401611b87565b90509250929050565b60008060408385031215611c1657600080fd5b611c1f83611b87565b9150611bfa60208401611b87565b803563ffffffff81168114611b9e57600080fd5b600080600080600080600060e0888a031215611c5c57600080fd5b611c6588611b87565b9650602088013595506040880135945060608801359350611c8860808901611c2d565b9250611c9660a08901611c2d565b9150611ca460c08901611c2d565b905092959891949750929550565b600060208284031215611cc457600080fd5b5051919050565b634e487b7160e01b600052601160045260246000fd5b818103818111156105a7576105a7611ccb565b600082611d1157634e487b7160e01b600052601260045260246000fd5b500490565b80820281158282048414176105a7576105a7611ccb565b808201808211156105a7576105a7611ccb565b60005b83811015611d5b578181015183820152602001611d43565b50506000910152565b60008251611d76818460208701611d40565b9190910192915050565b600060208284031215611d9257600080fd5b81518015158114610c7357600080fd5b7f416363657373436f6e74726f6c3a206163636f756e7420000000000000000000815260008351611dda816017850160208801611d40565b7f206973206d697373696e6720726f6c65200000000000000000000000000000006017918401918201528351611e17816028840160208801611d40565b01602801949350505050565b6020815260008251806020840152611e42816040850160208701611d40565b601f01601f19169190910160400192915050565b634e487b7160e01b600052604160045260246000fd5b634e487b7160e01b600052603260045260246000fd5b600081611e9157611e91611ccb565b50600019019056fea164736f6c6343000812000a",
  "linkReferences": {},
  "deployedLinkReferences": {}
}