{
  "_format": "hh-sol-artifact-1",
  "contractName": "L2ScheduleVaultB",
  "sourceName": "contracts/L2/vaults/L2ScheduleVaultB.sol",
  "abi": [
    {
      "anonymous": false,
      "inputs": [
        {
          "indexed": false,
          "internalType": "address",
          "name": "l2Token",
          "type": "address"
        },
        {
          "indexed": false,
          "internalType": "address",
          "name": "newAdmin",
          "type": "address"
        },
        {
          "indexed": false,
          "internalType": "uint256",
          "name": "amount",
          "type": "uint256"
        }
      ],
      "name": "AllocatedTokenAndAdminInVault",
      "type": "event"
    },
    {
      "anonymous": false,
      "inputs": [
        {
          "indexed": false,
          "internalType": "address",
          "name": "l2Token",
          "type": "address"
        },
        {
          "indexed": false,
          "internalType": "address",
          "name": "to",
          "type": "address"
        },
        {
          "indexed": false,
          "internalType": "uint256",
          "name": "amount",
          "type": "uint256"
        }
      ],
      "name": "Claimed",
      "type": "event"
    },
    {
      "anonymous": false,
      "inputs": [
        {
          "indexed": false,
          "internalType": "address",
          "name": "l2Token",
          "type": "address"
        },
        {
          "indexed": false,
          "internalType": "string",
          "name": "name",
          "type": "string"
        },
        {
          "indexed": false,
          "internalType": "uint256",
          "name": "totalAllocatedAmount",
          "type": "uint256"
        },
        {
          "indexed": false,
          "internalType": "uint256",
          "name": "totalClaimCount",
          "type": "uint256"
        },
        {
          "indexed": false,
          "internalType": "uint256",
          "name": "firstClaimAmount",
          "type": "uint256"
        },
        {
          "indexed": false,
          "internalType": "uint32",
          "name": "firstClaimTime",
          "type": "uint32"
        },
        {
          "indexed": false,
          "internalType": "uint32",
          "name": "secondClaimTime",
          "type": "uint32"
        },
        {
          "indexed": false,
          "internalType": "uint32",
          "name": "roundInterval",
          "type": "uint32"
        }
      ],
      "name": "InitializedL2ScheduleVaultB",
      "type": "event"
    },
    {
      "anonymous": false,
      "inputs": [
        {
          "indexed": true,
          "internalType": "bytes32",
          "name": "role",
          "type": "bytes32"
        },
        {
          "indexed": true,
          "internalType": "bytes32",
          "name": "previousAdminRole",
          "type": "bytes32"
        },
        {
          "indexed": true,
          "internalType": "bytes32",
          "name": "newAdminRole",
          "type": "bytes32"
        }
      ],
      "name": "RoleAdminChanged",
      "type": "event"
    },
    {
      "anonymous": false,
      "inputs": [
        {
          "indexed": true,
          "internalType": "bytes32",
          "name": "role",
          "type": "bytes32"
        },
        {
          "indexed": true,
          "internalType": "address",
          "name": "account",
          "type": "address"
        },
        {
          "indexed": true,
          "internalType": "address",
          "name": "sender",
          "type": "address"
        }
      ],
      "name": "RoleGranted",
      "type": "event"
    },
    {
      "anonymous": false,
      "inputs": [
        {
          "indexed": true,
          "internalType": "bytes32",
          "name": "role",
          "type": "bytes32"
        },
        {
          "indexed": true,
          "internalType": "address",
          "name": "account",
          "type": "address"
        },
        {
          "indexed": true,
          "internalType": "address",
          "name": "sender",
          "type": "address"
        }
      ],
      "name": "RoleRevoked",
      "type": "event"
    },
    {
      "anonymous": false,
      "inputs": [
        {
          "indexed": false,
          "internalType": "address",
          "name": "newInitializer",
          "type": "address"
        }
      ],
      "name": "SetInitializer",
      "type": "event"
    },
    {
      "anonymous": false,
      "inputs": [
        {
          "indexed": false,
          "internalType": "address",
          "name": "l2Token",
          "type": "address"
        },
        {
          "indexed": false,
          "internalType": "address",
          "name": "newAdmin",
          "type": "address"
        }
      ],
      "name": "SetVaultAdmin",
      "type": "event"
    },
    {
      "inputs": [],
      "name": "ADMIN_ROLE",
      "outputs": [
        {
          "internalType": "bytes32",
          "name": "",
          "type": "bytes32"
        }
      ],
      "stateMutability": "view",
      "type": "function"
    },
    {
      "inputs": [],
      "name": "DEFAULT_ADMIN_ROLE",
      "outputs": [
        {
          "internalType": "bytes32",
          "name": "",
          "type": "bytes32"
        }
      ],
      "stateMutability": "view",
      "type": "function"
    },
    {
      "inputs": [],
      "name": "POLICY_ROLE",
      "outputs": [
        {
          "internalType": "bytes32",
          "name": "",
          "type": "bytes32"
        }
      ],
      "stateMutability": "view",
      "type": "function"
    },
    {
      "inputs": [
        {
          "internalType": "address",
          "name": "account",
          "type": "address"
        }
      ],
      "name": "addAdmin",
      "outputs": [],
      "stateMutability": "nonpayable",
      "type": "function"
    },
    {
      "inputs": [
        {
          "internalType": "address",
          "name": "",
          "type": "address"
        }
      ],
      "name": "aliveImplementation",
      "outputs": [
        {
          "internalType": "bool",
          "name": "",
          "type": "bool"
        }
      ],
      "stateMutability": "view",
      "type": "function"
    },
    {
      "inputs": [
        {
          "internalType": "address",
          "name": "l2Token",
          "type": "address"
        },
        {
          "internalType": "address",
          "name": "_newAdmin",
          "type": "address"
        },
        {
          "internalType": "uint256",
          "name": "amount",
          "type": "uint256"
        }
      ],
      "name": "allocateTokenAndAdmin",
      "outputs": [],
      "stateMutability": "nonpayable",
      "type": "function"
    },
    {
      "inputs": [
        {
          "internalType": "address",
          "name": "l2Token",
          "type": "address"
        },
        {
          "internalType": "string",
          "name": "vaultName",
          "type": "string"
        }
      ],
      "name": "availableClaimAmount",
      "outputs": [
        {
          "internalType": "uint256",
          "name": "amount",
          "type": "uint256"
        }
      ],
      "stateMutability": "view",
      "type": "function"
    },
    {
      "inputs": [
        {
          "internalType": "address",
          "name": "l2Token",
          "type": "address"
        },
        {
          "internalType": "string",
          "name": "vaultName",
          "type": "string"
        }
      ],
      "name": "claim",
      "outputs": [],
      "stateMutability": "nonpayable",
      "type": "function"
    },
    {
      "inputs": [
        {
          "internalType": "address",
          "name": "l2Token",
          "type": "address"
        },
        {
          "internalType": "string",
          "name": "vaultName",
          "type": "string"
        }
      ],
      "name": "getCurrentRound",
      "outputs": [
        {
          "internalType": "uint256",
          "name": "round",
          "type": "uint256"
        }
      ],
      "stateMutability": "view",
      "type": "function"
    },
    {
      "inputs": [
        {
          "internalType": "bytes32",
          "name": "role",
          "type": "bytes32"
        }
      ],
      "name": "getRoleAdmin",
      "outputs": [
        {
          "internalType": "bytes32",
          "name": "",
          "type": "bytes32"
        }
      ],
      "stateMutability": "view",
      "type": "function"
    },
    {
      "inputs": [
        {
          "internalType": "bytes32",
          "name": "role",
          "type": "bytes32"
        },
        {
          "internalType": "address",
          "name": "account",
          "type": "address"
        }
      ],
      "name": "grantRole",
      "outputs": [],
      "stateMutability": "nonpayable",
      "type": "function"
    },
    {
      "inputs": [
        {
          "internalType": "bytes32",
          "name": "role",
          "type": "bytes32"
        },
        {
          "internalType": "address",
          "name": "account",
          "type": "address"
        }
      ],
      "name": "hasRole",
      "outputs": [
        {
          "internalType": "bool",
          "name": "",
          "type": "bool"
        }
      ],
      "stateMutability": "view",
      "type": "function"
    },
    {
      "inputs": [
        {
          "internalType": "address",
          "name": "l2Token",
          "type": "address"
        },
        {
          "internalType": "string",
          "name": "vaultName",
          "type": "string"
        },
        {
          "components": [
            {
              "internalType": "uint256",
              "name": "totalAllocatedAmount",
              "type": "uint256"
            },
            {
              "internalType": "uint256",
              "name": "totalClaimCount",
              "type": "uint256"
            },
            {
              "internalType": "uint256",
              "name": "firstClaimAmount",
              "type": "uint256"
            },
            {
              "internalType": "uint32",
              "name": "firstClaimTime",
              "type": "uint32"
            },
            {
              "internalType": "uint32",
              "name": "secondClaimTime",
              "type": "uint32"
            },
            {
              "internalType": "uint32",
              "name": "roundIntervalTime",
              "type": "uint32"
            }
          ],
          "internalType": "struct LibProject.InitalParameterScheduleVault",
          "name": "params",
          "type": "tuple"
        }
      ],
      "name": "initialize",
      "outputs": [],
      "stateMutability": "nonpayable",
      "type": "function"
    },
    {
      "inputs": [],
      "name": "initializer",
      "outputs": [
        {
          "internalType": "address",
          "name": "",
          "type": "address"
        }
      ],
      "stateMutability": "view",
      "type": "function"
    },
    {
      "inputs": [
        {
          "internalType": "address",
          "name": "account",
          "type": "address"
        }
      ],
      "name": "isAdmin",
      "outputs": [
        {
          "internalType": "bool",
          "name": "",
          "type": "bool"
        }
      ],
      "stateMutability": "view",
      "type": "function"
    },
    {
      "inputs": [
        {
          "internalType": "address",
          "name": "l2Token",
          "type": "address"
        },
        {
          "internalType": "address",
          "name": "account",
          "type": "address"
        }
      ],
      "name": "isVaultAdmin",
      "outputs": [
        {
          "internalType": "bool",
          "name": "",
          "type": "bool"
        }
      ],
      "stateMutability": "view",
      "type": "function"
    },
    {
      "inputs": [],
      "name": "l2ProjectManager",
      "outputs": [
        {
          "internalType": "address",
          "name": "",
          "type": "address"
        }
      ],
      "stateMutability": "view",
      "type": "function"
    },
    {
      "inputs": [],
      "name": "pauseProxy",
      "outputs": [
        {
          "internalType": "bool",
          "name": "",
          "type": "bool"
        }
      ],
      "stateMutability": "view",
      "type": "function"
    },
    {
      "inputs": [
        {
          "internalType": "uint256",
          "name": "",
          "type": "uint256"
        }
      ],
      "name": "proxyImplementation",
      "outputs": [
        {
          "internalType": "address",
          "name": "",
          "type": "address"
        }
      ],
      "stateMutability": "view",
      "type": "function"
    },
    {
      "inputs": [
        {
          "internalType": "address",
          "name": "account",
          "type": "address"
        }
      ],
      "name": "removeAdmin",
      "outputs": [],
      "stateMutability": "nonpayable",
      "type": "function"
    },
    {
      "inputs": [
        {
          "internalType": "bytes32",
          "name": "role",
          "type": "bytes32"
        },
        {
          "internalType": "address",
          "name": "account",
          "type": "address"
        }
      ],
      "name": "renounceRole",
      "outputs": [],
      "stateMutability": "nonpayable",
      "type": "function"
    },
    {
      "inputs": [
        {
          "internalType": "bytes32",
          "name": "role",
          "type": "bytes32"
        },
        {
          "internalType": "address",
          "name": "account",
          "type": "address"
        }
      ],
      "name": "revokeRole",
      "outputs": [],
      "stateMutability": "nonpayable",
      "type": "function"
    },
    {
      "inputs": [
        {
          "internalType": "bytes4",
          "name": "",
          "type": "bytes4"
        }
      ],
      "name": "selectorImplementation",
      "outputs": [
        {
          "internalType": "address",
          "name": "",
          "type": "address"
        }
      ],
      "stateMutability": "view",
      "type": "function"
    },
    {
      "inputs": [
        {
          "internalType": "address",
          "name": "_initializer",
          "type": "address"
        }
      ],
      "name": "setInitializer",
      "outputs": [],
      "stateMutability": "nonpayable",
      "type": "function"
    },
    {
      "inputs": [
        {
          "internalType": "address",
          "name": "_l2ProjectManager",
          "type": "address"
        }
      ],
      "name": "setL2ProjectManager",
      "outputs": [],
      "stateMutability": "nonpayable",
      "type": "function"
    },
    {
      "inputs": [
        {
          "internalType": "address",
          "name": "l2Token",
          "type": "address"
        },
        {
          "internalType": "address",
          "name": "_newAdmin",
          "type": "address"
        }
      ],
      "name": "setVaultAdmin",
      "outputs": [],
      "stateMutability": "nonpayable",
      "type": "function"
    },
    {
      "inputs": [
        {
          "internalType": "bytes4",
          "name": "interfaceId",
          "type": "bytes4"
        }
      ],
      "name": "supportsInterface",
      "outputs": [
        {
          "internalType": "bool",
          "name": "",
          "type": "bool"
        }
      ],
      "stateMutability": "view",
      "type": "function"
    },
    {
      "inputs": [
        {
          "internalType": "address",
          "name": "newAdmin",
          "type": "address"
        }
      ],
      "name": "transferAdmin",
      "outputs": [],
      "stateMutability": "nonpayable",
      "type": "function"
    },
    {
      "inputs": [
        {
          "internalType": "address",
          "name": "",
          "type": "address"
        }
      ],
      "name": "vaultAdminOfToken",
      "outputs": [
        {
          "internalType": "address",
          "name": "",
          "type": "address"
        }
      ],
      "stateMutability": "view",
      "type": "function"
    },
    {
      "inputs": [
        {
          "internalType": "address",
          "name": "",
          "type": "address"
        },
        {
          "internalType": "bytes32",
          "name": "",
          "type": "bytes32"
        }
      ],
      "name": "vaultInfo",
      "outputs": [
        {
          "internalType": "uint256",
          "name": "totalAllocatedAmount",
          "type": "uint256"
        },
        {
          "internalType": "uint256",
          "name": "totalClaimCount",
          "type": "uint256"
        },
        {
          "internalType": "uint256",
          "name": "totalClaimedAmount",
          "type": "uint256"
        },
        {
          "internalType": "uint256",
          "name": "firstClaimAmount",
          "type": "uint256"
        },
        {
          "internalType": "uint32",
          "name": "firstClaimTime",
          "type": "uint32"
        },
        {
          "internalType": "uint32",
          "name": "secondClaimTime",
          "type": "uint32"
        },
        {
          "internalType": "uint32",
          "name": "roundInterval",
          "type": "uint32"
        },
        {
          "internalType": "uint32",
          "name": "latestClaimedRound",
          "type": "uint32"
        }
      ],
      "stateMutability": "view",
      "type": "function"
    }
  ],
  "bytecode": "0x60806040526005805460ff1916600117905534801561001d57600080fd5b5061247d8061002d6000396000f3fe608060405234801561001057600080fd5b50600436106101da5760003560e01c806363a8fd89116101045780639ce110d7116100a2578063ab4299b511610071578063ab4299b514610498578063b40d7350146104ab578063b911135f14610563578063d547741f1461058c57600080fd5b80639ce110d714610457578063a217fddf1461046a578063a418234314610472578063a8d95fb21461048557600080fd5b806375b238fc116100de57806375b238fc146103bb5780637fc46ba8146103e25780638d35b35c1461040b57806391d148541461041e57600080fd5b806363a8fd8914610388578063704802751461039557806375829def146103a857600080fd5b806335b9ac661161017c57806352351e851161014b57806352351e8514610327578063550d01a31461033f578063560fd778146103625780635c24b0741461037557600080fd5b806335b9ac66146102ad57806336568abe146102c057806350d2a276146102d357806351e8152a1461031457600080fd5b8063248a9ca3116101b8578063248a9ca31461025157806324d7806c146102745780632f2ff15d14610287578063321efaa11461029a57600080fd5b806301ffc9a7146101df5780631785f53c14610207578063229852461461021c575b600080fd5b6101f26101ed366004611eca565b61059f565b60405190151581526020015b60405180910390f35b61021a610215366004611f10565b6105d6565b005b6102437ffb5864e8ff833c3cb2d2d08505e82ff02a43554c74a35d4f5a64e8526127831181565b6040519081526020016101fe565b61024361025f366004611f2b565b60009081526004602052604090206001015490565b6101f2610282366004611f10565b610668565b61021a610295366004611f44565b6106a8565b6102436102a8366004611f70565b6106d2565b61021a6102bb366004611ff3565b610823565b61021a6102ce366004611f44565b6109d7565b6102fc6102e1366004611eca565b6003602052600090815260409020546001600160a01b031681565b6040516001600160a01b0390911681526020016101fe565b6101f2610322366004611ff3565b610a63565b6005546102fc9061010090046001600160a01b031681565b6101f261034d366004611f10565b60026020526000908152604090205460ff1681565b610243610370366004611f70565b610aa0565b61021a610383366004611f10565b610c16565b6000546101f29060ff1681565b61021a6103a3366004611f10565b610d4d565b61021a6103b6366004611f10565b610dd7565b6102437fdf8b4c520ffe197c5343c6f5aec59570151ef9a492f2c624fd45ddde6135ec4281565b6102fc6103f0366004611f10565b6007602052600090815260409020546001600160a01b031681565b61021a61041936600461201d565b610f39565b6101f261042c366004611f44565b60009182526004602090815260408084206001600160a01b0393909316845291905290205460ff1690565b6006546102fc906001600160a01b031681565b610243600081565b61021a610480366004611f10565b611210565b61021a610493366004611f70565b61132d565b61021a6104a6366004612143565b611528565b6105196104b93660046121fb565b6008602090815260009283526040808420909152908252902080546001820154600283015460038401546004909401549293919290919063ffffffff808216916401000000008104821691600160401b8204811691600160601b90041688565b60408051988952602089019790975295870194909452606086019290925263ffffffff908116608086015290811660a085015290811660c08401521660e0820152610100016101fe565b6102fc610571366004611f2b565b6001602052600090815260409020546001600160a01b031681565b61021a61059a366004611f44565b611907565b60006001600160e01b03198216637965db0b60e01b14806105d057506301ffc9a760e01b6001600160e01b03198316145b92915050565b6105df33610668565b61063b5760405162461bcd60e51b815260206004820152602260248201527f41636365737369626c653a2043616c6c6572206973206e6f7420616e2061646d60448201526134b760f11b60648201526084015b60405180910390fd5b6106657fdf8b4c520ffe197c5343c6f5aec59570151ef9a492f2c624fd45ddde6135ec42826109d7565b50565b6001600160a01b03811660009081527f2fb794d17134dfdec181ddbac1babb5ab1eb140204ef4d982f294e7fc8b69022602052604081205460ff166105d0565b6000828152600460205260409020600101546106c38161192c565b6106cd8383611936565b505050565b60008083836040516106e5929190612225565b604080519182900382206001600160a01b03881660009081526008602090815283822083835281529083902061010085018452805485526001810154918501919091526002810154928401929092526003820154606084015260049091015463ffffffff808216608085018190526401000000008304821660a0860152600160401b8304821660c0860152600160601b9092041660e084015290925015801590610799575042816080015163ffffffff1611155b80156107ae57508060a0015163ffffffff1642105b156107bc5760019250610806565b428160a0015163ffffffff1611610806578060c0015163ffffffff168160a0015163ffffffff16426107ee919061224b565b6107f8919061225e565b610803906002612280565b92505b806020015183111561081a57806020015192505b50509392505050565b816001600160a01b03811661085f5760405162461bcd60e51b81526020600482015260026024820152612d1960f11b6044820152606401610632565b816001600160a01b03811661089b5760405162461bcd60e51b81526020600482015260026024820152612d1960f11b6044820152606401610632565b60055461010090046001600160a01b0316158015906108c9575060055461010090046001600160a01b031633145b6109155760405162461bcd60e51b815260206004820152601e60248201527f63616c6c6572206973206e6f74206c3250726f6a6563744d616e6167657200006044820152606401610632565b6001600160a01b0384811660009081526007602052604090205481851691160361096a5760405162461bcd60e51b81526004016106329060208082526004908201526373616d6560e01b604082015260600190565b6001600160a01b0384811660008181526007602090815260409182902080546001600160a01b031916948816948517905581519283528201929092527fb00bb4c229aff6156cc8e2c767c571665e1927c09fe083ec055956a5a4026193910160405180910390a150505050565b6001600160a01b0381163314610a555760405162461bcd60e51b815260206004820152602f60248201527f416363657373436f6e74726f6c3a2063616e206f6e6c792072656e6f756e636560448201527f20726f6c657320666f722073656c6600000000000000000000000000000000006064820152608401610632565b610a5f82826119d8565b5050565b60006001600160a01b03821615801590610a9957506001600160a01b038381166000908152600760205260409020548116908316145b9392505050565b6000808383604051610ab3929190612225565b604080519182900382206001600160a01b038816600090815260086020908152838220838352815283822061010086018552805486526001810154918601919091526002810154938501939093526003830154606085015260049092015463ffffffff80821660808601526401000000008204811660a0860152600160401b8204811660c0860152600160601b9091041660e08401529250610b568787876106d2565b9050808260e0015163ffffffff161015610c0c5780600103610b8d5781604001518260600151610b86919061224b565b9350610c0c565b8160200151811015610bf8576040820151610ba960018361224b565b60018460200151610bba919061224b565b60608501518551610bcb919061224b565b610bd5919061225e565b610bdf9190612293565b8360600151610bee9190612280565b610b86919061224b565b60408201518251610c09919061224b565b93505b5050509392505050565b806001600160a01b038116610c525760405162461bcd60e51b81526020600482015260026024820152612d1960f11b6044820152606401610632565b610c5b33610668565b610cb25760405162461bcd60e51b815260206004820152602260248201527f41636365737369626c653a2043616c6c6572206973206e6f7420616e2061646d60448201526134b760f11b6064820152608401610632565b6006546001600160a01b03808416911603610cf85760405162461bcd60e51b81526004016106329060208082526004908201526373616d6560e01b604082015260600190565b600680546001600160a01b0319166001600160a01b0384169081179091556040519081527f2a2bf2572e82958ab47f7049e07d49aab236a5f6d26b804b1ce51da119c6d9d09060200160405180910390a15050565b610d5633610668565b610dad5760405162461bcd60e51b815260206004820152602260248201527f41636365737369626c653a2043616c6c6572206973206e6f7420616e2061646d60448201526134b760f11b6064820152608401610632565b6106657fdf8b4c520ffe197c5343c6f5aec59570151ef9a492f2c624fd45ddde6135ec42826106a8565b610de033610668565b610e375760405162461bcd60e51b815260206004820152602260248201527f41636365737369626c653a2043616c6c6572206973206e6f7420616e2061646d60448201526134b760f11b6064820152608401610632565b6001600160a01b038116610e8d5760405162461bcd60e51b815260206004820152601860248201527f41636365737369626c653a207a65726f206164647265737300000000000000006044820152606401610632565b6001600160a01b0381163303610ee55760405162461bcd60e51b815260206004820152601660248201527f41636365737369626c653a2073616d652061646d696e000000000000000000006044820152606401610632565b610f0f7fdf8b4c520ffe197c5343c6f5aec59570151ef9a492f2c624fd45ddde6135ec42826106a8565b6106657fdf8b4c520ffe197c5343c6f5aec59570151ef9a492f2c624fd45ddde6135ec42336109d7565b60055461010090046001600160a01b031615801590610f67575060055461010090046001600160a01b031633145b610fb35760405162461bcd60e51b815260206004820152601e60248201527f63616c6c6572206973206e6f74206c3250726f6a6563744d616e6167657200006044820152606401610632565b826001600160a01b038116610fef5760405162461bcd60e51b81526020600482015260026024820152612d1960f11b6044820152606401610632565b826001600160a01b03811661102b5760405162461bcd60e51b81526020600482015260026024820152612d1960f11b6044820152606401610632565b82806000036110615760405162461bcd60e51b81526020600482015260026024820152615a3160f01b6044820152606401610632565b6001600160a01b038681166000908152600760205260409020548187169116036110ba5760405162461bcd60e51b815260206004820152600a60248201526939b0b6b29030b236b4b760b11b6044820152606401610632565b6005546040516370a0823160e01b81526101009091046001600160a01b0390811660048301528716906370a0823190602401602060405180830381865afa158015611109573d6000803e3d6000fd5b505050506040513d601f19601f8201168201806040525081019061112d91906122aa565b84111561117c5760405162461bcd60e51b815260206004820152601860248201527f62616c616e636520697320696e73756666696369656e742e00000000000000006044820152606401610632565b6001600160a01b03868116600081815260076020526040902080546001600160a01b0319168884161790556005546111bc92610100909104163087611a5b565b604080516001600160a01b038089168252871660208201529081018590527fe1c1818f614984fce9c731fd04034b7c1b22bcc9f2469662dabb9657cb1ec8cf906060015b60405180910390a1505050505050565b806001600160a01b03811661124c5760405162461bcd60e51b81526020600482015260026024820152612d1960f11b6044820152606401610632565b61125533610668565b6112ac5760405162461bcd60e51b815260206004820152602260248201527f41636365737369626c653a2043616c6c6572206973206e6f7420616e2061646d60448201526134b760f11b6064820152608401610632565b6005546001600160a01b0380841661010090920416036112f75760405162461bcd60e51b81526004016106329060208082526004908201526373616d6560e01b604082015260600190565b50600580546001600160a01b039092166101000274ffffffffffffffffffffffffffffffffffffffff0019909216919091179055565b826001600160a01b0381166113695760405162461bcd60e51b81526020600482015260026024820152612d1960f11b6044820152606401610632565b6001600160a01b03808516600090815260076020526040902054859116158015906113ad57506001600160a01b038181166000908152600760205260409020541633145b6114075760405162461bcd60e51b815260206004820152602560248201527f63616c6c6572206973206e6f742061207661756c7441646d696e204f66206c326044820152642a37b5b2b760d91b6064820152608401610632565b6000611414868686610aa0565b6040516370a0823160e01b81523060048201529091506001600160a01b038716906370a0823190602401602060405180830381865afa15801561145b573d6000803e3d6000fd5b505050506040513d601f19601f8201168201806040525081019061147f91906122aa565b8111156114ce5760405162461bcd60e51b815260206004820152601760248201527f62616c616e636520697320696e73756666696369656e740000000000000000006044820152606401610632565b6114e26001600160a01b0387163383611b7f565b604080516001600160a01b03881681523360208201529081018290527ff7a40077ff7a04c7e61f6f26fb13774259ddf1b6bce9ecf26a8276cdd399268390606001611200565b6001600160a01b038084166000908152600760205260409020548491161580159061158057506006546001600160a01b031633148061158057506001600160a01b038181166000908152600760205260409020541633145b6115da5760405162461bcd60e51b815260206004820152602560248201527f63616c6c6572206973206e6f742061207661756c7441646d696e204f66206c326044820152642a37b5b2b760d91b6064820152608401610632565b82516020808501919091206001600160a01b0386166000908152600883526040808220838352909352919091206004015463ffffffff161561165e5760405162461bcd60e51b815260206004820152601360248201527f616c726561647920696e697469616c697a6564000000000000000000000000006044820152606401610632565b43836060015163ffffffff16116116b75760405162461bcd60e51b815260206004820152601760248201527f666972737420636c61696d2074696d65207061737365640000000000000000006044820152606401610632565b8251158015906116ca5750602083015115155b80156116df575060a083015163ffffffff1615155b61172b5760405162461bcd60e51b815260206004820152600b60248201527f77726f6e672076616c75650000000000000000000000000000000000000000006044820152606401610632565b60018360200151111561179b57826060015163ffffffff16836080015163ffffffff161161179b5760405162461bcd60e51b815260206004820152601b60248201527f77726f6e6720746865207365636f6e6420636c61696d2074696d6500000000006044820152606401610632565b60408301518351116117ef5760405162461bcd60e51b815260206004820152601c60248201527f77726f6e672074686520666972737420636c61696d20616d6f756e74000000006044820152606401610632565b6005548351611813916001600160a01b038881169261010090920416903090611a5b565b6001600160a01b038516600090815260086020908152604080832084845282528083208651808255928701516001820181905560028201949094558682015160038201819055606088015160048301805460808b015160a08c015163ffffffff80861667ffffffffffffffff199094169390931764010000000084841602176fffffffffffffffff00000000000000001916600160401b938216939093026fffffffff000000000000000000000000191692909217909255945193967fe815b408cbb0984f71dbfea82f53c813967f622bd68f3a18a13a7ad4bc20fa7c96611200968e968e96929593949293929190612313565b6000828152600460205260409020600101546119228161192c565b6106cd83836119d8565b6106658133611c9a565b60008281526004602090815260408083206001600160a01b038516845290915290205460ff16610a5f5760008281526004602090815260408083206001600160a01b03851684529091529020805460ff191660011790556119943390565b6001600160a01b0316816001600160a01b0316837f2f8788117e7eff1d82e926ec794901d17c78024a50270940304540a733656f0d60405160405180910390a45050565b60008281526004602090815260408083206001600160a01b038516845290915290205460ff1615610a5f5760008281526004602090815260408083206001600160a01b0385168085529252808320805460ff1916905551339285917ff6391f5c32d9c69d2a47ea670b442974b53935d1edc7fd64eb21e047a839171b9190a45050565b604080516001600160a01b0385811660248301528481166044830152606480830185905283518084039091018152608490920183526020820180516001600160e01b03166323b872dd60e01b1790529151600092839290881691611abf9190612371565b6000604051808303816000865af19150503d8060008114611afc576040519150601f19603f3d011682016040523d82523d6000602084013e611b01565b606091505b5091509150818015611b2b575080511580611b2b575080806020019051810190611b2b919061238d565b611b775760405162461bcd60e51b815260206004820152601460248201527f5452414e534645525f46524f4d5f4641494c45440000000000000000000000006044820152606401610632565b505050505050565b604080516001600160a01b038481166024830152604480830185905283518084039091018152606490920183526020820180516001600160e01b031663a9059cbb60e01b1790529151600092839290871691611bdb9190612371565b6000604051808303816000865af19150503d8060008114611c18576040519150601f19603f3d011682016040523d82523d6000602084013e611c1d565b606091505b5091509150818015611c47575080511580611c47575080806020019051810190611c47919061238d565b611c935760405162461bcd60e51b815260206004820152600f60248201527f5452414e534645525f4641494c454400000000000000000000000000000000006044820152606401610632565b5050505050565b60008281526004602090815260408083206001600160a01b038516845290915290205460ff16610a5f57611ccd81611d0f565b611cd8836020611d21565b604051602001611ce99291906123af565b60408051601f198184030181529082905262461bcd60e51b825261063291600401612430565b60606105d06001600160a01b03831660145b60606000611d30836002612293565b611d3b906002612280565b67ffffffffffffffff811115611d5357611d53612059565b6040519080825280601f01601f191660200182016040528015611d7d576020820181803683370190505b509050600360fc1b81600081518110611d9857611d98612443565b60200101906001600160f81b031916908160001a905350600f60fb1b81600181518110611dc757611dc7612443565b60200101906001600160f81b031916908160001a9053506000611deb846002612293565b611df6906001612280565b90505b6001811115611e7b577f303132333435363738396162636465660000000000000000000000000000000085600f1660108110611e3757611e37612443565b1a60f81b828281518110611e4d57611e4d612443565b60200101906001600160f81b031916908160001a90535060049490941c93611e7481612459565b9050611df9565b508315610a995760405162461bcd60e51b815260206004820181905260248201527f537472696e67733a20686578206c656e67746820696e73756666696369656e746044820152606401610632565b600060208284031215611edc57600080fd5b81356001600160e01b031981168114610a9957600080fd5b80356001600160a01b0381168114611f0b57600080fd5b919050565b600060208284031215611f2257600080fd5b610a9982611ef4565b600060208284031215611f3d57600080fd5b5035919050565b60008060408385031215611f5757600080fd5b82359150611f6760208401611ef4565b90509250929050565b600080600060408486031215611f8557600080fd5b611f8e84611ef4565b9250602084013567ffffffffffffffff80821115611fab57600080fd5b818601915086601f830112611fbf57600080fd5b813581811115611fce57600080fd5b876020828501011115611fe057600080fd5b6020830194508093505050509250925092565b6000806040838503121561200657600080fd5b61200f83611ef4565b9150611f6760208401611ef4565b60008060006060848603121561203257600080fd5b61203b84611ef4565b925061204960208501611ef4565b9150604084013590509250925092565b634e487b7160e01b600052604160045260246000fd5b604051601f8201601f1916810167ffffffffffffffff8111828210171561209857612098612059565b604052919050565b803563ffffffff81168114611f0b57600080fd5b600060c082840312156120c657600080fd5b60405160c0810181811067ffffffffffffffff821117156120e9576120e9612059565b8060405250809150823581526020830135602082015260408301356040820152612115606084016120a0565b6060820152612126608084016120a0565b608082015261213760a084016120a0565b60a08201525092915050565b6000806000610100848603121561215957600080fd5b61216284611ef4565b925060208085013567ffffffffffffffff8082111561218057600080fd5b818701915087601f83011261219457600080fd5b8135818111156121a6576121a6612059565b6121b8601f8201601f1916850161206f565b915080825288848285010111156121ce57600080fd5b80848401858401376000848284010152508094505050506121f285604086016120b4565b90509250925092565b6000806040838503121561220e57600080fd5b61221783611ef4565b946020939093013593505050565b8183823760009101908152919050565b634e487b7160e01b600052601160045260246000fd5b818103818111156105d0576105d0612235565b60008261227b57634e487b7160e01b600052601260045260246000fd5b500490565b808201808211156105d0576105d0612235565b80820281158282048414176105d0576105d0612235565b6000602082840312156122bc57600080fd5b5051919050565b60005b838110156122de5781810151838201526020016122c6565b50506000910152565b600081518084526122ff8160208601602086016122c3565b601f01601f19169290920160200192915050565b60006101006001600160a01b038b1683528060208401526123368184018b6122e7565b604084019990995250506060810195909552608085019390935263ffffffff91821660a0850152811660c08401521660e09091015292915050565b600082516123838184602087016122c3565b9190910192915050565b60006020828403121561239f57600080fd5b81518015158114610a9957600080fd5b7f416363657373436f6e74726f6c3a206163636f756e74200000000000000000008152600083516123e78160178501602088016122c3565b7f206973206d697373696e6720726f6c652000000000000000000000000000000060179184019182015283516124248160288401602088016122c3565b01602801949350505050565b602081526000610a9960208301846122e7565b634e487b7160e01b600052603260045260246000fd5b60008161246857612468612235565b50600019019056fea164736f6c6343000812000a",
  "linkReferences": {},
  "deployedLinkReferences": {}
}