{
  "_format": "hh-sol-artifact-1",
  "contractName": "L2AirdropStosVaultProxy",
  "sourceName": "contracts/L2/vaults/L2AirdropStosVaultProxy.sol",
  "abi": [
    {
      "anonymous": false,
      "inputs": [
        {
          "indexed": true,
          "internalType": "bytes32",
          "name": "role",
          "type": "bytes32"
        },
        {
          "indexed": true,
          "internalType": "bytes32",
          "name": "previousAdminRole",
          "type": "bytes32"
        },
        {
          "indexed": true,
          "internalType": "bytes32",
          "name": "newAdminRole",
          "type": "bytes32"
        }
      ],
      "name": "RoleAdminChanged",
      "type": "event"
    },
    {
      "anonymous": false,
      "inputs": [
        {
          "indexed": true,
          "internalType": "bytes32",
          "name": "role",
          "type": "bytes32"
        },
        {
          "indexed": true,
          "internalType": "address",
          "name": "account",
          "type": "address"
        },
        {
          "indexed": true,
          "internalType": "address",
          "name": "sender",
          "type": "address"
        }
      ],
      "name": "RoleGranted",
      "type": "event"
    },
    {
      "anonymous": false,
      "inputs": [
        {
          "indexed": true,
          "internalType": "bytes32",
          "name": "role",
          "type": "bytes32"
        },
        {
          "indexed": true,
          "internalType": "address",
          "name": "account",
          "type": "address"
        },
        {
          "indexed": true,
          "internalType": "address",
          "name": "sender",
          "type": "address"
        }
      ],
      "name": "RoleRevoked",
      "type": "event"
    },
    {
      "anonymous": false,
      "inputs": [
        {
          "indexed": true,
          "internalType": "address",
          "name": "impl",
          "type": "address"
        },
        {
          "indexed": false,
          "internalType": "bool",
          "name": "alive",
          "type": "bool"
        }
      ],
      "name": "SetAliveImplementation",
      "type": "event"
    },
    {
      "anonymous": false,
      "inputs": [
        {
          "indexed": true,
          "internalType": "bytes4",
          "name": "selector",
          "type": "bytes4"
        },
        {
          "indexed": true,
          "internalType": "address",
          "name": "impl",
          "type": "address"
        }
      ],
      "name": "SetSelectorImplementation",
      "type": "event"
    },
    {
      "anonymous": false,
      "inputs": [
        {
          "indexed": false,
          "internalType": "address",
          "name": "l2Token",
          "type": "address"
        },
        {
          "indexed": false,
          "internalType": "address",
          "name": "newAdmin",
          "type": "address"
        }
      ],
      "name": "SetVaultAdmin",
      "type": "event"
    },
    {
      "anonymous": false,
      "inputs": [
        {
          "indexed": true,
          "internalType": "address",
          "name": "implementation",
          "type": "address"
        }
      ],
      "name": "Upgraded",
      "type": "event"
    },
    {
      "stateMutability": "payable",
      "type": "fallback"
    },
    {
      "inputs": [],
      "name": "ADMIN_ROLE",
      "outputs": [
        {
          "internalType": "bytes32",
          "name": "",
          "type": "bytes32"
        }
      ],
      "stateMutability": "view",
      "type": "function"
    },
    {
      "inputs": [],
      "name": "DEFAULT_ADMIN_ROLE",
      "outputs": [
        {
          "internalType": "bytes32",
          "name": "",
          "type": "bytes32"
        }
      ],
      "stateMutability": "view",
      "type": "function"
    },
    {
      "inputs": [],
      "name": "POLICY_ROLE",
      "outputs": [
        {
          "internalType": "bytes32",
          "name": "",
          "type": "bytes32"
        }
      ],
      "stateMutability": "view",
      "type": "function"
    },
    {
      "inputs": [
        {
          "internalType": "address",
          "name": "account",
          "type": "address"
        }
      ],
      "name": "addAdmin",
      "outputs": [],
      "stateMutability": "nonpayable",
      "type": "function"
    },
    {
      "inputs": [
        {
          "internalType": "address",
          "name": "",
          "type": "address"
        }
      ],
      "name": "aliveImplementation",
      "outputs": [
        {
          "internalType": "bool",
          "name": "",
          "type": "bool"
        }
      ],
      "stateMutability": "view",
      "type": "function"
    },
    {
      "inputs": [],
      "name": "dividendPool",
      "outputs": [
        {
          "internalType": "address",
          "name": "",
          "type": "address"
        }
      ],
      "stateMutability": "view",
      "type": "function"
    },
    {
      "inputs": [
        {
          "internalType": "bytes32",
          "name": "role",
          "type": "bytes32"
        }
      ],
      "name": "getRoleAdmin",
      "outputs": [
        {
          "internalType": "bytes32",
          "name": "",
          "type": "bytes32"
        }
      ],
      "stateMutability": "view",
      "type": "function"
    },
    {
      "inputs": [
        {
          "internalType": "bytes4",
          "name": "_selector",
          "type": "bytes4"
        }
      ],
      "name": "getSelectorImplementation2",
      "outputs": [
        {
          "internalType": "address",
          "name": "impl",
          "type": "address"
        }
      ],
      "stateMutability": "view",
      "type": "function"
    },
    {
      "inputs": [
        {
          "internalType": "bytes32",
          "name": "role",
          "type": "bytes32"
        },
        {
          "internalType": "address",
          "name": "account",
          "type": "address"
        }
      ],
      "name": "grantRole",
      "outputs": [],
      "stateMutability": "nonpayable",
      "type": "function"
    },
    {
      "inputs": [
        {
          "internalType": "bytes32",
          "name": "role",
          "type": "bytes32"
        },
        {
          "internalType": "address",
          "name": "account",
          "type": "address"
        }
      ],
      "name": "hasRole",
      "outputs": [
        {
          "internalType": "bool",
          "name": "",
          "type": "bool"
        }
      ],
      "stateMutability": "view",
      "type": "function"
    },
    {
      "inputs": [],
      "name": "implementation",
      "outputs": [
        {
          "internalType": "address",
          "name": "",
          "type": "address"
        }
      ],
      "stateMutability": "view",
      "type": "function"
    },
    {
      "inputs": [
        {
          "internalType": "uint256",
          "name": "_index",
          "type": "uint256"
        }
      ],
      "name": "implementation2",
      "outputs": [
        {
          "internalType": "address",
          "name": "",
          "type": "address"
        }
      ],
      "stateMutability": "view",
      "type": "function"
    },
    {
      "inputs": [
        {
          "internalType": "address",
          "name": "account",
          "type": "address"
        }
      ],
      "name": "isAdmin",
      "outputs": [
        {
          "internalType": "bool",
          "name": "",
          "type": "bool"
        }
      ],
      "stateMutability": "view",
      "type": "function"
    },
    {
      "inputs": [],
      "name": "l2ProjectManager",
      "outputs": [
        {
          "internalType": "address",
          "name": "",
          "type": "address"
        }
      ],
      "stateMutability": "view",
      "type": "function"
    },
    {
      "inputs": [],
      "name": "pauseProxy",
      "outputs": [
        {
          "internalType": "bool",
          "name": "",
          "type": "bool"
        }
      ],
      "stateMutability": "view",
      "type": "function"
    },
    {
      "inputs": [
        {
          "internalType": "uint256",
          "name": "",
          "type": "uint256"
        }
      ],
      "name": "proxyImplementation",
      "outputs": [
        {
          "internalType": "address",
          "name": "",
          "type": "address"
        }
      ],
      "stateMutability": "view",
      "type": "function"
    },
    {
      "inputs": [
        {
          "internalType": "address",
          "name": "account",
          "type": "address"
        }
      ],
      "name": "removeAdmin",
      "outputs": [],
      "stateMutability": "nonpayable",
      "type": "function"
    },
    {
      "inputs": [
        {
          "internalType": "bytes32",
          "name": "role",
          "type": "bytes32"
        },
        {
          "internalType": "address",
          "name": "account",
          "type": "address"
        }
      ],
      "name": "renounceRole",
      "outputs": [],
      "stateMutability": "nonpayable",
      "type": "function"
    },
    {
      "inputs": [
        {
          "internalType": "bytes32",
          "name": "role",
          "type": "bytes32"
        },
        {
          "internalType": "address",
          "name": "account",
          "type": "address"
        }
      ],
      "name": "revokeRole",
      "outputs": [],
      "stateMutability": "nonpayable",
      "type": "function"
    },
    {
      "inputs": [
        {
          "internalType": "bytes4",
          "name": "",
          "type": "bytes4"
        }
      ],
      "name": "selectorImplementation",
      "outputs": [
        {
          "internalType": "address",
          "name": "",
          "type": "address"
        }
      ],
      "stateMutability": "view",
      "type": "function"
    },
    {
      "inputs": [
        {
          "internalType": "address",
          "name": "newImplementation",
          "type": "address"
        },
        {
          "internalType": "bool",
          "name": "_alive",
          "type": "bool"
        }
      ],
      "name": "setAliveImplementation2",
      "outputs": [],
      "stateMutability": "nonpayable",
      "type": "function"
    },
    {
      "inputs": [
        {
          "internalType": "address",
          "name": "newImplementation",
          "type": "address"
        },
        {
          "internalType": "uint256",
          "name": "_index",
          "type": "uint256"
        },
        {
          "internalType": "bool",
          "name": "_alive",
          "type": "bool"
        }
      ],
      "name": "setImplementation2",
      "outputs": [],
      "stateMutability": "nonpayable",
      "type": "function"
    },
    {
      "inputs": [
        {
          "internalType": "bool",
          "name": "_pause",
          "type": "bool"
        }
      ],
      "name": "setProxyPause",
      "outputs": [],
      "stateMutability": "nonpayable",
      "type": "function"
    },
    {
      "inputs": [
        {
          "internalType": "bytes4[]",
          "name": "_selectors",
          "type": "bytes4[]"
        },
        {
          "internalType": "address",
          "name": "_imp",
          "type": "address"
        }
      ],
      "name": "setSelectorImplementations2",
      "outputs": [],
      "stateMutability": "nonpayable",
      "type": "function"
    },
    {
      "inputs": [
        {
          "internalType": "bytes4",
          "name": "interfaceId",
          "type": "bytes4"
        }
      ],
      "name": "supportsInterface",
      "outputs": [
        {
          "internalType": "bool",
          "name": "",
          "type": "bool"
        }
      ],
      "stateMutability": "view",
      "type": "function"
    },
    {
      "inputs": [
        {
          "internalType": "address",
          "name": "newAdmin",
          "type": "address"
        }
      ],
      "name": "transferAdmin",
      "outputs": [],
      "stateMutability": "nonpayable",
      "type": "function"
    },
    {
      "inputs": [
        {
          "internalType": "address",
          "name": "impl",
          "type": "address"
        }
      ],
      "name": "upgradeTo",
      "outputs": [],
      "stateMutability": "nonpayable",
      "type": "function"
    },
    {
      "inputs": [
        {
          "internalType": "address",
          "name": "",
          "type": "address"
        }
      ],
      "name": "vaultAdminOfToken",
      "outputs": [
        {
          "internalType": "address",
          "name": "",
          "type": "address"
        }
      ],
      "stateMutability": "view",
      "type": "function"
    },
    {
      "inputs": [
        {
          "internalType": "address",
          "name": "",
          "type": "address"
        }
      ],
      "name": "vaultInfo",
      "outputs": [
        {
          "internalType": "address",
          "name": "claimer",
          "type": "address"
        },
        {
          "internalType": "uint256",
          "name": "totalAllocatedAmount",
          "type": "uint256"
        },
        {
          "internalType": "uint256",
          "name": "totalClaimCount",
          "type": "uint256"
        },
        {
          "internalType": "uint256",
          "name": "totalClaimedAmount",
          "type": "uint256"
        },
        {
          "internalType": "uint256",
          "name": "firstClaimAmount",
          "type": "uint256"
        },
        {
          "internalType": "uint32",
          "name": "firstClaimTime",
          "type": "uint32"
        },
        {
          "internalType": "uint32",
          "name": "secondClaimTime",
          "type": "uint32"
        },
        {
          "internalType": "uint32",
          "name": "roundInterval",
          "type": "uint32"
        },
        {
          "internalType": "uint32",
          "name": "latestClaimedRound",
          "type": "uint32"
        }
      ],
      "stateMutability": "view",
      "type": "function"
    },
    {
      "stateMutability": "payable",
      "type": "receive"
    }
  ],
  "bytecode": "0x60806040526005805460ff191660011790553480156200001e57600080fd5b506200003a60008051602062001b11833981519152806200005b565b6200005560008051602062001b1183398151915233620000a6565b6200015a565b600082815260046020526040808220600101805490849055905190918391839186917fbd79b86ffe0ab8e8776151514217cd7cacd52c909f66475c3af44e129f0b00ff9190a4505050565b620000b28282620000b6565b5050565b60008281526004602090815260408083206001600160a01b038516845290915290205460ff16620000b25760008281526004602090815260408083206001600160a01b03851684529091529020805460ff19166001179055620001163390565b6001600160a01b0316816001600160a01b0316837f2f8788117e7eff1d82e926ec794901d17c78024a50270940304540a733656f0d60405160405180910390a45050565b6119a7806200016a6000396000f3fe6080604052600436106101c65760003560e01c80635cc797d8116100f75780637fc46ba81161009557806391d148541161006457806391d14854146106e1578063a217fddf14610727578063b911135f1461073c578063d547741f1461077257610218565b80637fc46ba8146105805780638b8f4a65146105b65780638d4fdb40146105d65780639164359a146105f657610218565b806375829def116100d157806375829def146104ec57806375b238fc1461050c5780637cb00d25146105405780637cd5f6631461056057610218565b80635cc797d81461049257806363a8fd89146104b257806370480275146104cc57610218565b806336568abe1161016457806350d2a2761161013e57806350d2a276146103c157806352351e85146103f7578063550d01a31461041c5780635c60da1b1461044c57610218565b806336568abe146103615780633659cfe6146103815780634a5df50f146103a157610218565b8063248a9ca3116101a0578063248a9ca3146102b957806324d7806c146102e95780632f2ff15d1461030957806330d172d51461032957610218565b806301ffc9a7146102225780631785f53c14610257578063229852461461027757610218565b366102185760405162461bcd60e51b815260206004820152601460248201527f63616e6e6f74207265636569766520457468657200000000000000000000000060448201526064015b60405180910390fd5b610220610792565b005b34801561022e57600080fd5b5061024261023d366004611659565b61083b565b60405190151581526020015b60405180910390f35b34801561026357600080fd5b5061022061027236600461169a565b610872565b34801561028357600080fd5b506102ab7ffb5864e8ff833c3cb2d2d08505e82ff02a43554c74a35d4f5a64e8526127831181565b60405190815260200161024e565b3480156102c557600080fd5b506102ab6102d43660046116b5565b60009081526004602052604090206001015490565b3480156102f557600080fd5b5061024261030436600461169a565b6108ed565b34801561031557600080fd5b506102206103243660046116ce565b61092d565b34801561033557600080fd5b50600854610349906001600160a01b031681565b6040516001600160a01b03909116815260200161024e565b34801561036d57600080fd5b5061022061037c3660046116ce565b610952565b34801561038d57600080fd5b5061022061039c36600461169a565b6109de565b3480156103ad57600080fd5b506102206103bc3660046116fa565b610b37565b3480156103cd57600080fd5b506103496103dc366004611659565b6003602052600090815260409020546001600160a01b031681565b34801561040357600080fd5b506005546103499061010090046001600160a01b031681565b34801561042857600080fd5b5061024261043736600461169a565b60026020526000908152604090205460ff1681565b34801561045857600080fd5b506000805260016020527fa6eef7e35abe7026729641147f7915573c7e97b47efa546f5f6e3230263bcb49546001600160a01b0316610349565b34801561049e57600080fd5b506102206104ad36600461178e565b610de4565b3480156104be57600080fd5b506000546102429060ff1681565b3480156104d857600080fd5b506102206104e736600461169a565b610e3c565b3480156104f857600080fd5b5061022061050736600461169a565b610eb4565b34801561051857600080fd5b506102ab7fdf8b4c520ffe197c5343c6f5aec59570151ef9a492f2c624fd45ddde6135ec4281565b34801561054c57600080fd5b5061022061055b3660046117b8565b611004565b34801561056c57600080fd5b5061022061057b3660046117d3565b611065565b34801561058c57600080fd5b5061034961059b36600461169a565b6006602052600090815260409020546001600160a01b031681565b3480156105c257600080fd5b506103496105d13660046116b5565b6110be565b3480156105e257600080fd5b506103496105f1366004611659565b6110db565b34801561060257600080fd5b5061068461061136600461169a565b6007602052600090815260409020805460018201546002830154600384015460048501546005909501546001600160a01b039094169492939192909163ffffffff8082169164010000000081048216916801000000000000000082048116916c0100000000000000000000000090041689565b604080516001600160a01b03909a168a5260208a0198909852968801959095526060870193909352608086019190915263ffffffff90811660a086015290811660c085015290811660e0840152166101008201526101200161024e565b3480156106ed57600080fd5b506102426106fc3660046116ce565b60009182526004602090815260408084206001600160a01b0393909316845291905290205460ff1690565b34801561073357600080fd5b506102ab600081565b34801561074857600080fd5b506103496107573660046116b5565b6001602052600090815260409020546001600160a01b031681565b34801561077e57600080fd5b5061022061078d3660046116ce565b6111d7565b60006107a96000356001600160e01b0319166110db565b90506001600160a01b038116158015906107c6575060005460ff16155b6108125760405162461bcd60e51b815260206004820152601d60248201527f50726f78793a20696d706c204f522070726f78792069732066616c7365000000604482015260640161020f565b3660008037600080366000845af43d6000803e808015610831573d6000f35b3d6000fd5b505050565b60006001600160e01b03198216637965db0b60e01b148061086c57506301ffc9a760e01b6001600160e01b03198316145b92915050565b61087b336108ed565b6108c05760405162461bcd60e51b8152602060048201526022602482015260008051602061197b83398151915260448201526134b760f11b606482015260840161020f565b6108ea7fdf8b4c520ffe197c5343c6f5aec59570151ef9a492f2c624fd45ddde6135ec4282610952565b50565b6001600160a01b03811660009081527f2fb794d17134dfdec181ddbac1babb5ab1eb140204ef4d982f294e7fc8b69022602052604081205460ff1661086c565b600082815260046020526040902060010154610948816111fc565b6108368383611206565b6001600160a01b03811633146109d05760405162461bcd60e51b815260206004820152602f60248201527f416363657373436f6e74726f6c3a2063616e206f6e6c792072656e6f756e636560448201527f20726f6c657320666f722073656c660000000000000000000000000000000000606482015260840161020f565b6109da82826112a8565b5050565b6109e7336108ed565b610a2c5760405162461bcd60e51b8152602060048201526022602482015260008051602061197b83398151915260448201526134b760f11b606482015260840161020f565b6001600160a01b038116610a825760405162461bcd60e51b815260206004820152600d60248201527f696e707574206973207a65726f00000000000000000000000000000000000000604482015260640161020f565b6000805260016020527fa6eef7e35abe7026729641147f7915573c7e97b47efa546f5f6e3230263bcb49546001600160a01b03828116911603610af35760405162461bcd60e51b815260206004820152600960248201526839b0b6b29030b2323960b91b604482015260640161020f565b610b00816000600161132b565b6040516001600160a01b038216907fbc7cd75a20ee27fd9adebab32041f755214dbc6bffa90cc0225b39da2e5c2d3b90600090a250565b610b40336108ed565b610b855760405162461bcd60e51b8152602060048201526022602482015260008051602061197b83398151915260448201526134b760f11b606482015260840161020f565b81610bd25760405162461bcd60e51b815260206004820181905260248201527f50726f78793a205f73656c6563746f727327732073697a65206973207a65726f604482015260640161020f565b6001600160a01b03811660009081526002602052604090205460ff16610c3a5760405162461bcd60e51b815260206004820152601860248201527f50726f78793a205f696d70206973206e6f7420616c6976650000000000000000604482015260640161020f565b60005b82811015610dde57816001600160a01b031660036000868685818110610c6557610c65611806565b9050602002016020810190610c7a9190611659565b6001600160e01b03191681526020810191909152604001600020546001600160a01b031603610ceb5760405162461bcd60e51b815260206004820152601d60248201527f4c69717569646974795661756c7450726f78793a2073616d6520696d70000000604482015260640161020f565b8160036000868685818110610d0257610d02611806565b9050602002016020810190610d179190611659565b6001600160e01b03191681526020810191909152604001600020805473ffffffffffffffffffffffffffffffffffffffff19166001600160a01b039283161790558216848483818110610d6c57610d6c611806565b9050602002016020810190610d819190611659565b7bffffffffffffffffffffffffffffffffffffffffffffffffffffffff19167f14ebc1c32aa68f4d766e89f3e546cee249f7df25183fc10ab1568d91c2ce9b7b60405160405180910390a380610dd681611832565b915050610c3d565b50505050565b610ded336108ed565b610e325760405162461bcd60e51b8152602060048201526022602482015260008051602061197b83398151915260448201526134b760f11b606482015260840161020f565b6109da82826113c3565b610e45336108ed565b610e8a5760405162461bcd60e51b8152602060048201526022602482015260008051602061197b83398151915260448201526134b760f11b606482015260840161020f565b6108ea7fdf8b4c520ffe197c5343c6f5aec59570151ef9a492f2c624fd45ddde6135ec428261092d565b610ebd336108ed565b610f025760405162461bcd60e51b8152602060048201526022602482015260008051602061197b83398151915260448201526134b760f11b606482015260840161020f565b6001600160a01b038116610f585760405162461bcd60e51b815260206004820152601860248201527f41636365737369626c653a207a65726f20616464726573730000000000000000604482015260640161020f565b6001600160a01b0381163303610fb05760405162461bcd60e51b815260206004820152601660248201527f41636365737369626c653a2073616d652061646d696e00000000000000000000604482015260640161020f565b610fda7fdf8b4c520ffe197c5343c6f5aec59570151ef9a492f2c624fd45ddde6135ec428261092d565b6108ea7fdf8b4c520ffe197c5343c6f5aec59570151ef9a492f2c624fd45ddde6135ec4233610952565b61100d336108ed565b6110525760405162461bcd60e51b8152602060048201526022602482015260008051602061197b83398151915260448201526134b760f11b606482015260840161020f565b6000805460ff1916911515919091179055565b61106e336108ed565b6110b35760405162461bcd60e51b8152602060048201526022602482015260008051602061197b83398151915260448201526134b760f11b606482015260840161020f565b61083683838361132b565b6000818152600160205260408120546001600160a01b031661086c565b6001600160e01b031981166000908152600360205260408120546001600160a01b031661113b5750506000805260016020527fa6eef7e35abe7026729641147f7915573c7e97b47efa546f5f6e3230263bcb49546001600160a01b031690565b6001600160e01b031982166000908152600360209081526040808320546001600160a01b03168352600290915290205460ff161561119957506001600160e01b0319166000908152600360205260409020546001600160a01b031690565b50506000805260016020527fa6eef7e35abe7026729641147f7915573c7e97b47efa546f5f6e3230263bcb49546001600160a01b031690565b919050565b6000828152600460205260409020600101546111f2816111fc565b61083683836112a8565b6108ea8133611422565b60008281526004602090815260408083206001600160a01b038516845290915290205460ff166109da5760008281526004602090815260408083206001600160a01b03851684529091529020805460ff191660011790556112643390565b6001600160a01b0316816001600160a01b0316837f2f8788117e7eff1d82e926ec794901d17c78024a50270940304540a733656f0d60405160405180910390a45050565b60008281526004602090815260408083206001600160a01b038516845290915290205460ff16156109da5760008281526004602090815260408083206001600160a01b0385168085529252808320805460ff1916905551339285917ff6391f5c32d9c69d2a47ea670b442974b53935d1edc7fd64eb21e047a839171b9190a45050565b6001600160a01b0383163b6113825760405162461bcd60e51b815260206004820152601b60248201527f50726f78793a206e6f7420636f6e747261637420616464726573730000000000604482015260640161020f565b80156113bd576000828152600160205260409020805473ffffffffffffffffffffffffffffffffffffffff19166001600160a01b0385161790555b61083683825b6001600160a01b038216600081815260026020908152604091829020805460ff191685151590811790915591519182527f72558d9bfba4210f9ef095c782589484151f6d90f7a81bb3cb9b33efc695d324910160405180910390a25050565b60008281526004602090815260408083206001600160a01b038516845290915290205460ff166109da5761145581611497565b6114608360206114a9565b60405160200161147192919061186f565b60408051601f198184030181529082905262461bcd60e51b825261020f916004016118f0565b606061086c6001600160a01b03831660145b606060006114b8836002611923565b6114c390600261193a565b67ffffffffffffffff8111156114db576114db61194d565b6040519080825280601f01601f191660200182016040528015611505576020820181803683370190505b509050600360fc1b8160008151811061152057611520611806565b60200101906001600160f81b031916908160001a905350600f60fb1b8160018151811061154f5761154f611806565b60200101906001600160f81b031916908160001a9053506000611573846002611923565b61157e90600161193a565b90505b6001811115611603577f303132333435363738396162636465660000000000000000000000000000000085600f16601081106115bf576115bf611806565b1a60f81b8282815181106115d5576115d5611806565b60200101906001600160f81b031916908160001a90535060049490941c936115fc81611963565b9050611581565b5083156116525760405162461bcd60e51b815260206004820181905260248201527f537472696e67733a20686578206c656e67746820696e73756666696369656e74604482015260640161020f565b9392505050565b60006020828403121561166b57600080fd5b81356001600160e01b03198116811461165257600080fd5b80356001600160a01b03811681146111d257600080fd5b6000602082840312156116ac57600080fd5b61165282611683565b6000602082840312156116c757600080fd5b5035919050565b600080604083850312156116e157600080fd5b823591506116f160208401611683565b90509250929050565b60008060006040848603121561170f57600080fd5b833567ffffffffffffffff8082111561172757600080fd5b818601915086601f83011261173b57600080fd5b81358181111561174a57600080fd5b8760208260051b850101111561175f57600080fd5b6020928301955093506117759186019050611683565b90509250925092565b803580151581146111d257600080fd5b600080604083850312156117a157600080fd5b6117aa83611683565b91506116f16020840161177e565b6000602082840312156117ca57600080fd5b6116528261177e565b6000806000606084860312156117e857600080fd5b6117f184611683565b9250602084013591506117756040850161177e565b634e487b7160e01b600052603260045260246000fd5b634e487b7160e01b600052601160045260246000fd5b6000600182016118445761184461181c565b5060010190565b60005b8381101561186657818101518382015260200161184e565b50506000910152565b7f416363657373436f6e74726f6c3a206163636f756e74200000000000000000008152600083516118a781601785016020880161184b565b7f206973206d697373696e6720726f6c652000000000000000000000000000000060179184019182015283516118e481602884016020880161184b565b01602801949350505050565b602081526000825180602084015261190f81604085016020870161184b565b601f01601f19169190910160400192915050565b808202811582820484141761086c5761086c61181c565b8082018082111561086c5761086c61181c565b634e487b7160e01b600052604160045260246000fd5b6000816119725761197261181c565b50600019019056fe41636365737369626c653a2043616c6c6572206973206e6f7420616e2061646da164736f6c6343000812000adf8b4c520ffe197c5343c6f5aec59570151ef9a492f2c624fd45ddde6135ec42",
  "linkReferences": {},
  "deployedLinkReferences": {}
}