{
  "_format": "hh-sol-artifact-1",
  "contractName": "L1StosToL2",
  "sourceName": "contracts/L1/L1StosToL2.sol",
  "abi": [
    {
      "inputs": [
        {
          "internalType": "address",
          "name": "managerAddress",
          "type": "address"
        },
        {
          "internalType": "address",
          "name": "lockTosAddress",
          "type": "address"
        },
        {
          "internalType": "address",
          "name": "addressManagerAddress",
          "type": "address"
        },
        {
          "internalType": "uint256",
          "name": "maxLockCountPerRegister_",
          "type": "uint256"
        },
        {
          "internalType": "uint32",
          "name": "minGasLimitRegister_",
          "type": "uint32"
        }
      ],
      "stateMutability": "nonpayable",
      "type": "constructor"
    },
    {
      "inputs": [],
      "name": "_manager",
      "outputs": [
        {
          "internalType": "address",
          "name": "",
          "type": "address"
        }
      ],
      "stateMutability": "view",
      "type": "function"
    },
    {
      "inputs": [],
      "name": "_owner",
      "outputs": [
        {
          "internalType": "address",
          "name": "",
          "type": "address"
        }
      ],
      "stateMutability": "view",
      "type": "function"
    },
    {
      "inputs": [],
      "name": "addressManager",
      "outputs": [
        {
          "internalType": "address",
          "name": "",
          "type": "address"
        }
      ],
      "stateMutability": "view",
      "type": "function"
    },
    {
      "inputs": [
        {
          "internalType": "address",
          "name": "",
          "type": "address"
        }
      ],
      "name": "aliveImplementation",
      "outputs": [
        {
          "internalType": "bool",
          "name": "",
          "type": "bool"
        }
      ],
      "stateMutability": "view",
      "type": "function"
    },
    {
      "inputs": [],
      "name": "l2Register",
      "outputs": [
        {
          "internalType": "address",
          "name": "",
          "type": "address"
        }
      ],
      "stateMutability": "view",
      "type": "function"
    },
    {
      "inputs": [],
      "name": "lockTos",
      "outputs": [
        {
          "internalType": "address",
          "name": "",
          "type": "address"
        }
      ],
      "stateMutability": "view",
      "type": "function"
    },
    {
      "inputs": [],
      "name": "maxLockCountPerRegister",
      "outputs": [
        {
          "internalType": "uint256",
          "name": "",
          "type": "uint256"
        }
      ],
      "stateMutability": "view",
      "type": "function"
    },
    {
      "inputs": [
        {
          "internalType": "address",
          "name": "account",
          "type": "address"
        }
      ],
      "name": "needSyncList",
      "outputs": [
        {
          "internalType": "uint256[]",
          "name": "lockIds",
          "type": "uint256[]"
        }
      ],
      "stateMutability": "view",
      "type": "function"
    },
    {
      "inputs": [],
      "name": "pauseProxy",
      "outputs": [
        {
          "internalType": "bool",
          "name": "",
          "type": "bool"
        }
      ],
      "stateMutability": "view",
      "type": "function"
    },
    {
      "inputs": [
        {
          "internalType": "uint256",
          "name": "",
          "type": "uint256"
        }
      ],
      "name": "proxyImplementation",
      "outputs": [
        {
          "internalType": "address",
          "name": "",
          "type": "address"
        }
      ],
      "stateMutability": "view",
      "type": "function"
    },
    {
      "inputs": [
        {
          "internalType": "address",
          "name": "account",
          "type": "address"
        }
      ],
      "name": "register",
      "outputs": [],
      "stateMutability": "nonpayable",
      "type": "function"
    },
    {
      "inputs": [
        {
          "internalType": "address",
          "name": "account",
          "type": "address"
        },
        {
          "internalType": "uint256[]",
          "name": "lockIds",
          "type": "uint256[]"
        }
      ],
      "name": "register",
      "outputs": [],
      "stateMutability": "nonpayable",
      "type": "function"
    },
    {
      "inputs": [
        {
          "internalType": "bytes4",
          "name": "",
          "type": "bytes4"
        }
      ],
      "name": "selectorImplementation",
      "outputs": [
        {
          "internalType": "address",
          "name": "",
          "type": "address"
        }
      ],
      "stateMutability": "view",
      "type": "function"
    },
    {
      "inputs": [
        {
          "internalType": "address",
          "name": "l2Register_",
          "type": "address"
        }
      ],
      "name": "setL2Register",
      "outputs": [],
      "stateMutability": "nonpayable",
      "type": "function"
    },
    {
      "inputs": [
        {
          "internalType": "uint256",
          "name": "",
          "type": "uint256"
        }
      ],
      "name": "syncInfoOfLockId",
      "outputs": [
        {
          "internalType": "int256",
          "name": "slope",
          "type": "int256"
        },
        {
          "internalType": "int256",
          "name": "bias",
          "type": "int256"
        },
        {
          "internalType": "uint32",
          "name": "timestamp",
          "type": "uint32"
        },
        {
          "internalType": "uint32",
          "name": "syncTime",
          "type": "uint32"
        }
      ],
      "stateMutability": "view",
      "type": "function"
    },
    {
      "inputs": [
        {
          "internalType": "uint256",
          "name": "lockId",
          "type": "uint256"
        }
      ],
      "name": "viewRegisterInfoOfLockId",
      "outputs": [
        {
          "components": [
            {
              "internalType": "int256",
              "name": "slope",
              "type": "int256"
            },
            {
              "internalType": "int256",
              "name": "bias",
              "type": "int256"
            },
            {
              "internalType": "uint32",
              "name": "timestamp",
              "type": "uint32"
            },
            {
              "internalType": "uint32",
              "name": "syncTime",
              "type": "uint32"
            }
          ],
          "internalType": "struct LibLockId.SyncInfo",
          "name": "",
          "type": "tuple"
        }
      ],
      "stateMutability": "view",
      "type": "function"
    }
  ],
  "bytecode": "0x60806040523480156200001157600080fd5b506040516200172e3803806200172e8339810160408190526200003491620000c0565b600580546001600160a01b03199081166001600160a01b0397881617909155600780548216958716959095179094556006805490941692909416919091179091556004556008805463ffffffff60a01b1916600160a01b63ffffffff9093169290920291909117905562000133565b80516001600160a01b0381168114620000bb57600080fd5b919050565b600080600080600060a08688031215620000d957600080fd5b620000e486620000a3565b9450620000f460208701620000a3565b93506200010460408701620000a3565b925060608601519150608086015163ffffffff811681146200012557600080fd5b809150509295509295909350565b6115eb80620001436000396000f3fe608060405234801561001057600080fd5b50600436106101005760003560e01c80637aa7794a11610097578063b849355611610066578063b8493556146102f2578063b911135f14610309578063be60b21414610332578063f0329f6b1461039f57600080fd5b80637aa7794a146102995780637f5823af146102ac5780639d060c0a146102bf578063b2bdfa7b146102df57600080fd5b806350d2a276116100d357806350d2a27614610170578063550d01a3146101995780635f17529f146101cc57806363a8fd891461028557600080fd5b80633ab76e9f146101055780633dfc795b146101355780634420e4861461014a578063472d1f711461015d575b600080fd5b600654610118906001600160a01b031681565b6040516001600160a01b0390911681526020015b60405180910390f35b6101486101433660046110fa565b6103b2565b005b6101486101583660046110fa565b610486565b600854610118906001600160a01b031681565b61011861017e36600461111e565b6003602052600090815260409020546001600160a01b031681565b6101bc6101a73660046110fa565b60026020526000908152604090205460ff1681565b604051901515815260200161012c565b6102486101da366004611148565b604080516080808201835260008083526020808401829052838501829052606093840182905294815260098552839020835191820184528054825260018101549482019490945260029093015463ffffffff8082169385019390935264010000000090049091169082015290565b6040805182518152602080840151908201528282015163ffffffff908116928201929092526060928301519091169181019190915260800161012c565b6000546101bc90600160a01b900460ff1681565b600754610118906001600160a01b031681565b6101486102ba3660046111f5565b6105b1565b6102d26102cd3660046110fa565b610834565b60405161012c91906112a0565b600054610118906001600160a01b031681565b6102fb60045481565b60405190815260200161012c565b610118610317366004611148565b6001602052600090815260409020546001600160a01b031681565b610373610340366004611148565b60096020526000908152604090208054600182015460029092015490919063ffffffff8082169164010000000090041684565b60408051948552602085019390935263ffffffff9182169284019290925216606082015260800161012c565b600554610118906001600160a01b031681565b6005546001600160a01b031633146104115760405162461bcd60e51b815260206004820152600b60248201527f6e6f74206d616e6167657200000000000000000000000000000000000000000060448201526064015b60405180910390fd5b6008546001600160a01b038083169116036104575760405162461bcd60e51b81526004016104089060208082526004908201526373616d6560e01b604082015260600190565b6008805473ffffffffffffffffffffffffffffffffffffffff19166001600160a01b0392909216919091179055565b60075460405163187f356b60e31b81526001600160a01b038381166004830152600092169063c3f9ab5890602401600060405180830381865afa1580156104d1573d6000803e3d6000fd5b505050506040513d6000823e601f3d908101601f191682016040526104f991908101906112e4565b9050805160000361053f5760405162461bcd60e51b815260206004820152601060248201526f6e6f207265676973746572206461746160801b6044820152606401610408565b600454815111156105a35760405162461bcd60e51b815260206004820152602860248201527f657863656564656420746865206d6178696d756d206e756d626572206f66207260448201526732b3b4b9ba32b91760c11b6064820152608401610408565b6105ad8282610b22565b5050565b600454815111156106155760405162461bcd60e51b815260206004820152602860248201527f657863656564656420746865206d6178696d756d206e756d626572206f66207260448201526732b3b4b9ba32b91760c11b6064820152608401610408565b80516000036106595760405162461bcd60e51b815260206004820152601060248201526f6e6f207265676973746572206461746160801b6044820152606401610408565b60075460405163187f356b60e31b81526001600160a01b038481166004830152600092169063c3f9ab5890602401600060405180830381865afa1580156106a4573d6000803e3d6000fd5b505050506040513d6000823e601f3d908101601f191682016040526106cc91908101906112e4565b905060005b825181101561082457600160005b83518110156107c2578381815181106106fa576106fa611375565b602002602001015185848151811061071457610714611375565b6020026020010151036107b057600091506001845161073391906113a1565b81101561078057836001855161074991906113a1565b8151811061075957610759611375565b602002602001015184828151811061077357610773611375565b6020026020010181815250505b836001855161078f91906113a1565b8151811061079f5761079f611375565b6020026020010160008152506107c2565b806107ba816113ba565b9150506106df565b5080156108115760405162461bcd60e51b815260206004820152601460248201527f6f776e6572206973206e6f74206163636f756e740000000000000000000000006044820152606401610408565b508061081c816113ba565b9150506106d1565b5061082f8383610b22565b505050565b60075460405163187f356b60e31b81526001600160a01b03838116600483015260609260009291169063c3f9ab5890602401600060405180830381865afa158015610883573d6000803e3d6000fd5b505050506040513d6000823e601f3d908101601f191682016040526108ab91908101906112e4565b905060005b8151811015610b1b576000600960008484815181106108d1576108d1611375565b602090810291909101810151825281810192909252604090810160009081208251608081018452815481526001820154948101949094526002015463ffffffff80821693850193909352640100000000900490911660608301526007548551929350909182916001600160a01b031690639ce563059087908790811061095957610959611375565b60200260200101516040518263ffffffff1660e01b815260040161097f91815260200190565b606060405180830381865afa15801561099c573d6000803e3d6000fd5b505050506040513d601f19601f820116820180604052508101906109c091906113d3565b9250925050806000141580156109d557508142105b15610b055760075485516000916001600160a01b03169063c5dc1e5f90889088908110610a0457610a04611375565b60200260200101516040518263ffffffff1660e01b8152600401610a2a91815260200190565b600060405180830381865afa158015610a47573d6000803e3d6000fd5b505050506040513d6000823e601f3d908101601f19168201604052610a6f9190810190611401565b90508051600014610b035760008160018351610a8b91906113a1565b81518110610a9b57610a9b611375565b602002602001015190508060400151856040015163ffffffff161015610b0157868681518110610acd57610acd611375565b60200260200101518860018a51610ae491906113a1565b81518110610af457610af4611375565b6020026020010181815250505b505b505b5050508080610b13906113ba565b9150506108b0565b5050919050565b60606000805b8351811015610ea657600060096000868481518110610b4957610b49611375565b602090810291909101810151825281810192909252604090810160009081208251608081018452815481526001820154948101949094526002015463ffffffff80821693850193909352640100000000900490911660608301526007548751929350909182916001600160a01b031690639ce5630590899087908110610bd157610bd1611375565b60200260200101516040518263ffffffff1660e01b8152600401610bf791815260200190565b606060405180830381865afa158015610c14573d6000803e3d6000fd5b505050506040513d601f19601f82011682018060405250810190610c3891906113d3565b925092505080600014158015610c4d57508142105b15610e905760075487516000916001600160a01b03169063c5dc1e5f908a9088908110610c7c57610c7c611375565b60200260200101516040518263ffffffff1660e01b8152600401610ca291815260200190565b600060405180830381865afa158015610cbf573d6000803e3d6000fd5b505050506040513d6000823e601f3d908101601f19168201604052610ce79190810190611401565b90508051600014610e8e5760008160018351610d0391906113a1565b81518110610d1357610d13611375565b602002602001015190508060400151856040015163ffffffff161015610e8c57600060405180608001604052808360200151815260200183600001518152602001836040015163ffffffff1681526020014263ffffffff16815250905080600960008c8a81518110610d8757610d87611375565b6020908102919091018101518252818101929092526040908101600020835181559183015160018301558201516002909101805460609093015163ffffffff9081166401000000000267ffffffffffffffff1990941692169190911791909117905587610df3816113ba565b985050888a8881518110610e0957610e09611375565b602090810291909101810151835184830151604080870151606080890151835197880196909652918601939093528401526001600160e01b031960e091821b8116608085015291901b16608482015260880160408051601f1981840301815290829052610e7992916020016114e3565b6040516020818303038152906040529850505b505b505b5050508080610e9e906113ba565b915050610b28565b506000825111610eeb5760405162461bcd60e51b815260206004820152601060248201526f6e6f207265676973746572206461746160801b6044820152606401610408565b600854604051610f34916001600160a01b031690610f0f9087908690602001611512565b60408051808303601f19018152919052600854600160a01b900463ffffffff16610f3a565b50505050565b60065460405163507c8bd160e01b81526001600160a01b03909116600482015260009073__$b2d160aea0e65d5e83164dd2e3c22b89ec$__9063507c8bd190602401602060405180830381865af4158015610f99573d6000803e3d6000fd5b505050506040513d601f19601f82011682018060405250810190610fbd919061154a565b90506001600160a01b0381166110155760405162461bcd60e51b815260206004820152601a60248201527f6c314d657373656e676572206973205a65726f416464726573730000000000006044820152606401610408565b60006382fbdc9c60e01b846040516024016110309190611593565b60408051601f198184030181529181526020820180517bffffffffffffffffffffffffffffffffffffffffffffffffffffffff166001600160e01b0319909416939093179092529051633dbb202b60e01b81529091506001600160a01b03831690633dbb202b906110a9908890859088906004016115a6565b600060405180830381600087803b1580156110c357600080fd5b505af11580156110d7573d6000803e3d6000fd5b505050505050505050565b6001600160a01b03811681146110f757600080fd5b50565b60006020828403121561110c57600080fd5b8135611117816110e2565b9392505050565b60006020828403121561113057600080fd5b81356001600160e01b03198116811461111757600080fd5b60006020828403121561115a57600080fd5b5035919050565b634e487b7160e01b600052604160045260246000fd5b6040516060810167ffffffffffffffff8111828210171561119a5761119a611161565b60405290565b604051601f8201601f1916810167ffffffffffffffff811182821017156111c9576111c9611161565b604052919050565b600067ffffffffffffffff8211156111eb576111eb611161565b5060051b60200190565b6000806040838503121561120857600080fd5b8235611213816110e2565b915060208381013567ffffffffffffffff81111561123057600080fd5b8401601f8101861361124157600080fd5b803561125461124f826111d1565b6111a0565b81815260059190911b8201830190838101908883111561127357600080fd5b928401925b8284101561129157833582529284019290840190611278565b80955050505050509250929050565b6020808252825182820181905260009190848201906040850190845b818110156112d8578351835292840192918401916001016112bc565b50909695505050505050565b600060208083850312156112f757600080fd5b825167ffffffffffffffff81111561130e57600080fd5b8301601f8101851361131f57600080fd5b805161132d61124f826111d1565b81815260059190911b8201830190838101908783111561134c57600080fd5b928401925b8284101561136a57835182529284019290840190611351565b979650505050505050565b634e487b7160e01b600052603260045260246000fd5b634e487b7160e01b600052601160045260246000fd5b818103818111156113b4576113b461138b565b92915050565b6000600182016113cc576113cc61138b565b5060010190565b6000806000606084860312156113e857600080fd5b8351925060208401519150604084015190509250925092565b6000602080838503121561141457600080fd5b825167ffffffffffffffff81111561142b57600080fd5b8301601f8101851361143c57600080fd5b805161144a61124f826111d1565b8181526060918202830184019184820191908884111561146957600080fd5b938501935b838510156114b35780858a0312156114865760008081fd5b61148e611177565b855181528686015187820152604080870151908201528352938401939185019161146e565b50979650505050505050565b60005b838110156114da5781810151838201526020016114c2565b50506000910152565b600083516114f58184602088016114bf565b8351908301906115098183602088016114bf565b01949350505050565b6bffffffffffffffffffffffff198360601b1681526000825161153c8160148501602087016114bf565b919091016014019392505050565b60006020828403121561155c57600080fd5b8151611117816110e2565b6000815180845261157f8160208601602086016114bf565b601f01601f19169290920160200192915050565b6020815260006111176020830184611567565b6001600160a01b03841681526060602082015260006115c86060830185611567565b905063ffffffff8316604083015294935050505056fea164736f6c6343000812000a",
  "linkReferences": {
    "contracts/libraries/LibProject.sol": {
      "LibProject": [
        {
          "length": 20,
          "start": 4258
        }
      ]
    }
  },
  "deployedLinkReferences": {
    "contracts/libraries/LibProject.sol": {
      "LibProject": [
        {
          "length": 20,
          "start": 3935
        }
      ]
    }
  }
}