{
  "_format": "hh-sol-artifact-1",
  "contractName": "L1StosToL2",
  "sourceName": "contracts/L1/L1StosToL2.sol",
  "abi": [
    {
      "inputs": [],
      "stateMutability": "nonpayable",
      "type": "constructor"
    },
    {
      "inputs": [],
      "name": "_manager",
      "outputs": [
        {
          "internalType": "address",
          "name": "",
          "type": "address"
        }
      ],
      "stateMutability": "view",
      "type": "function"
    },
    {
      "inputs": [],
      "name": "_owner",
      "outputs": [
        {
          "internalType": "address",
          "name": "",
          "type": "address"
        }
      ],
      "stateMutability": "view",
      "type": "function"
    },
    {
      "inputs": [],
      "name": "addressManager",
      "outputs": [
        {
          "internalType": "address",
          "name": "",
          "type": "address"
        }
      ],
      "stateMutability": "view",
      "type": "function"
    },
    {
      "inputs": [
        {
          "internalType": "address",
          "name": "",
          "type": "address"
        }
      ],
      "name": "aliveImplementation",
      "outputs": [
        {
          "internalType": "bool",
          "name": "",
          "type": "bool"
        }
      ],
      "stateMutability": "view",
      "type": "function"
    },
    {
      "inputs": [
        {
          "internalType": "address",
          "name": "managerAddress",
          "type": "address"
        },
        {
          "internalType": "address",
          "name": "lockTosAddress",
          "type": "address"
        },
        {
          "internalType": "address",
          "name": "addressManagerAddress",
          "type": "address"
        },
        {
          "internalType": "uint256",
          "name": "maxLockCountPerRegister_",
          "type": "uint256"
        },
        {
          "internalType": "uint32",
          "name": "minGasLimitRegister_",
          "type": "uint32"
        }
      ],
      "name": "initialize",
      "outputs": [],
      "stateMutability": "nonpayable",
      "type": "function"
    },
    {
      "inputs": [],
      "name": "l2Register",
      "outputs": [
        {
          "internalType": "address",
          "name": "",
          "type": "address"
        }
      ],
      "stateMutability": "view",
      "type": "function"
    },
    {
      "inputs": [],
      "name": "lockTos",
      "outputs": [
        {
          "internalType": "address",
          "name": "",
          "type": "address"
        }
      ],
      "stateMutability": "view",
      "type": "function"
    },
    {
      "inputs": [],
      "name": "maxLockCountPerRegister",
      "outputs": [
        {
          "internalType": "uint256",
          "name": "",
          "type": "uint256"
        }
      ],
      "stateMutability": "view",
      "type": "function"
    },
    {
      "inputs": [
        {
          "internalType": "address",
          "name": "account",
          "type": "address"
        }
      ],
      "name": "needSyncList",
      "outputs": [
        {
          "internalType": "uint256[]",
          "name": "lockIds",
          "type": "uint256[]"
        }
      ],
      "stateMutability": "view",
      "type": "function"
    },
    {
      "inputs": [],
      "name": "pauseProxy",
      "outputs": [
        {
          "internalType": "bool",
          "name": "",
          "type": "bool"
        }
      ],
      "stateMutability": "view",
      "type": "function"
    },
    {
      "inputs": [
        {
          "internalType": "uint256",
          "name": "",
          "type": "uint256"
        }
      ],
      "name": "proxyImplementation",
      "outputs": [
        {
          "internalType": "address",
          "name": "",
          "type": "address"
        }
      ],
      "stateMutability": "view",
      "type": "function"
    },
    {
      "inputs": [
        {
          "internalType": "address",
          "name": "account",
          "type": "address"
        }
      ],
      "name": "register",
      "outputs": [],
      "stateMutability": "nonpayable",
      "type": "function"
    },
    {
      "inputs": [
        {
          "internalType": "address",
          "name": "account",
          "type": "address"
        },
        {
          "internalType": "uint256[]",
          "name": "lockIds",
          "type": "uint256[]"
        }
      ],
      "name": "register",
      "outputs": [],
      "stateMutability": "nonpayable",
      "type": "function"
    },
    {
      "inputs": [
        {
          "internalType": "bytes4",
          "name": "",
          "type": "bytes4"
        }
      ],
      "name": "selectorImplementation",
      "outputs": [
        {
          "internalType": "address",
          "name": "",
          "type": "address"
        }
      ],
      "stateMutability": "view",
      "type": "function"
    },
    {
      "inputs": [
        {
          "internalType": "address",
          "name": "l2Register_",
          "type": "address"
        }
      ],
      "name": "setL2Register",
      "outputs": [],
      "stateMutability": "nonpayable",
      "type": "function"
    },
    {
      "inputs": [
        {
          "internalType": "uint256",
          "name": "",
          "type": "uint256"
        }
      ],
      "name": "syncInfoOfLockId",
      "outputs": [
        {
          "internalType": "int256",
          "name": "slope",
          "type": "int256"
        },
        {
          "internalType": "int256",
          "name": "bias",
          "type": "int256"
        },
        {
          "internalType": "uint32",
          "name": "timestamp",
          "type": "uint32"
        },
        {
          "internalType": "uint32",
          "name": "syncTime",
          "type": "uint32"
        }
      ],
      "stateMutability": "view",
      "type": "function"
    },
    {
      "inputs": [
        {
          "internalType": "uint256",
          "name": "lockId",
          "type": "uint256"
        }
      ],
      "name": "viewRegisterInfoOfLockId",
      "outputs": [
        {
          "components": [
            {
              "internalType": "int256",
              "name": "slope",
              "type": "int256"
            },
            {
              "internalType": "int256",
              "name": "bias",
              "type": "int256"
            },
            {
              "internalType": "uint32",
              "name": "timestamp",
              "type": "uint32"
            },
            {
              "internalType": "uint32",
              "name": "syncTime",
              "type": "uint32"
            }
          ],
          "internalType": "struct LibLockId.SyncInfo",
          "name": "",
          "type": "tuple"
        }
      ],
      "stateMutability": "view",
      "type": "function"
    }
  ],
  "bytecode": "0x608060405234801561001057600080fd5b50611760806100206000396000f3fe608060405234801561001057600080fd5b506004361061011b5760003560e01c806366c4ab23116100b2578063b2bdfa7b11610081578063b911135f11610066578063b911135f14610337578063be60b21414610360578063f0329f6b146103cd57600080fd5b8063b2bdfa7b1461030d578063b84935561461032057600080fd5b806366c4ab23146102b45780637aa7794a146102c75780637f5823af146102da5780639d060c0a146102ed57600080fd5b806350d2a276116100ee57806350d2a2761461018b578063550d01a3146101b45780635f17529f146101e757806363a8fd89146102a057600080fd5b80633ab76e9f146101205780633dfc795b146101505780634420e48614610165578063472d1f7114610178575b600080fd5b600654610133906001600160a01b031681565b6040516001600160a01b0390911681526020015b60405180910390f35b61016361015e3660046111fe565b6103e0565b005b6101636101733660046111fe565b6104b4565b600854610133906001600160a01b031681565b610133610199366004611222565b6003602052600090815260409020546001600160a01b031681565b6101d76101c23660046111fe565b60026020526000908152604090205460ff1681565b6040519015158152602001610147565b6102636101f536600461124c565b604080516080808201835260008083526020808401829052838501829052606093840182905294815260098552839020835191820184528054825260018101549482019490945260029093015463ffffffff8082169385019390935264010000000090049091169082015290565b6040805182518152602080840151908201528282015163ffffffff9081169282019290925260609283015190911691810191909152608001610147565b6000546101d790600160a01b900460ff1681565b6101636102c2366004611265565b6105df565b600754610133906001600160a01b031681565b6101636102e836600461136a565b6106b5565b6103006102fb3660046111fe565b610938565b6040516101479190611415565b600054610133906001600160a01b031681565b61032960045481565b604051908152602001610147565b61013361034536600461124c565b6001602052600090815260409020546001600160a01b031681565b6103a161036e36600461124c565b60096020526000908152604090208054600182015460029092015490919063ffffffff8082169164010000000090041684565b60408051948552602085019390935263ffffffff91821692840192909252166060820152608001610147565b600554610133906001600160a01b031681565b6005546001600160a01b0316331461043f5760405162461bcd60e51b815260206004820152600b60248201527f6e6f74206d616e6167657200000000000000000000000000000000000000000060448201526064015b60405180910390fd5b6008546001600160a01b038083169116036104855760405162461bcd60e51b81526004016104369060208082526004908201526373616d6560e01b604082015260600190565b6008805473ffffffffffffffffffffffffffffffffffffffff19166001600160a01b0392909216919091179055565b60075460405163187f356b60e31b81526001600160a01b038381166004830152600092169063c3f9ab5890602401600060405180830381865afa1580156104ff573d6000803e3d6000fd5b505050506040513d6000823e601f3d908101601f191682016040526105279190810190611459565b9050805160000361056d5760405162461bcd60e51b815260206004820152601060248201526f6e6f207265676973746572206461746160801b6044820152606401610436565b600454815111156105d15760405162461bcd60e51b815260206004820152602860248201527f657863656564656420746865206d6178696d756d206e756d626572206f66207260448201526732b3b4b9ba32b91760c11b6064820152608401610436565b6105db8282610c26565b5050565b6000546001600160a01b031633146106255760405162461bcd60e51b81526020600482015260096024820152683737ba1037bbb732b960b91b6044820152606401610436565b6005805473ffffffffffffffffffffffffffffffffffffffff199081166001600160a01b039788161790915560078054821695871695909517909455600680549094169290941691909117909155600455600880547fffffffffffffffff00000000ffffffffffffffffffffffffffffffffffffffff16600160a01b63ffffffff90931692909202919091179055565b600454815111156107195760405162461bcd60e51b815260206004820152602860248201527f657863656564656420746865206d6178696d756d206e756d626572206f66207260448201526732b3b4b9ba32b91760c11b6064820152608401610436565b805160000361075d5760405162461bcd60e51b815260206004820152601060248201526f6e6f207265676973746572206461746160801b6044820152606401610436565b60075460405163187f356b60e31b81526001600160a01b038481166004830152600092169063c3f9ab5890602401600060405180830381865afa1580156107a8573d6000803e3d6000fd5b505050506040513d6000823e601f3d908101601f191682016040526107d09190810190611459565b905060005b825181101561092857600160005b83518110156108c6578381815181106107fe576107fe6114ea565b6020026020010151858481518110610818576108186114ea565b6020026020010151036108b45760009150600184516108379190611516565b81101561088457836001855161084d9190611516565b8151811061085d5761085d6114ea565b6020026020010151848281518110610877576108776114ea565b6020026020010181815250505b83600185516108939190611516565b815181106108a3576108a36114ea565b6020026020010160008152506108c6565b806108be8161152f565b9150506107e3565b5080156109155760405162461bcd60e51b815260206004820152601460248201527f6f776e6572206973206e6f74206163636f756e740000000000000000000000006044820152606401610436565b50806109208161152f565b9150506107d5565b506109338383610c26565b505050565b60075460405163187f356b60e31b81526001600160a01b03838116600483015260609260009291169063c3f9ab5890602401600060405180830381865afa158015610987573d6000803e3d6000fd5b505050506040513d6000823e601f3d908101601f191682016040526109af9190810190611459565b905060005b8151811015610c1f576000600960008484815181106109d5576109d56114ea565b602090810291909101810151825281810192909252604090810160009081208251608081018452815481526001820154948101949094526002015463ffffffff80821693850193909352640100000000900490911660608301526007548551929350909182916001600160a01b031690639ce5630590879087908110610a5d57610a5d6114ea565b60200260200101516040518263ffffffff1660e01b8152600401610a8391815260200190565b606060405180830381865afa158015610aa0573d6000803e3d6000fd5b505050506040513d601f19601f82011682018060405250810190610ac49190611548565b925092505080600014158015610ad957508142105b15610c095760075485516000916001600160a01b03169063c5dc1e5f90889088908110610b0857610b086114ea565b60200260200101516040518263ffffffff1660e01b8152600401610b2e91815260200190565b600060405180830381865afa158015610b4b573d6000803e3d6000fd5b505050506040513d6000823e601f3d908101601f19168201604052610b739190810190611576565b90508051600014610c075760008160018351610b8f9190611516565b81518110610b9f57610b9f6114ea565b602002602001015190508060400151856040015163ffffffff161015610c0557868681518110610bd157610bd16114ea565b60200260200101518860018a51610be89190611516565b81518110610bf857610bf86114ea565b6020026020010181815250505b505b505b5050508080610c179061152f565b9150506109b4565b5050919050565b60606000805b8351811015610faa57600060096000868481518110610c4d57610c4d6114ea565b602090810291909101810151825281810192909252604090810160009081208251608081018452815481526001820154948101949094526002015463ffffffff80821693850193909352640100000000900490911660608301526007548751929350909182916001600160a01b031690639ce5630590899087908110610cd557610cd56114ea565b60200260200101516040518263ffffffff1660e01b8152600401610cfb91815260200190565b606060405180830381865afa158015610d18573d6000803e3d6000fd5b505050506040513d601f19601f82011682018060405250810190610d3c9190611548565b925092505080600014158015610d5157508142105b15610f945760075487516000916001600160a01b03169063c5dc1e5f908a9088908110610d8057610d806114ea565b60200260200101516040518263ffffffff1660e01b8152600401610da691815260200190565b600060405180830381865afa158015610dc3573d6000803e3d6000fd5b505050506040513d6000823e601f3d908101601f19168201604052610deb9190810190611576565b90508051600014610f925760008160018351610e079190611516565b81518110610e1757610e176114ea565b602002602001015190508060400151856040015163ffffffff161015610f9057600060405180608001604052808360200151815260200183600001518152602001836040015163ffffffff1681526020014263ffffffff16815250905080600960008c8a81518110610e8b57610e8b6114ea565b6020908102919091018101518252818101929092526040908101600020835181559183015160018301558201516002909101805460609093015163ffffffff9081166401000000000267ffffffffffffffff1990941692169190911791909117905587610ef78161152f565b985050888a8881518110610f0d57610f0d6114ea565b602090810291909101810151835184830151604080870151606080890151835197880196909652918601939093528401526001600160e01b031960e091821b8116608085015291901b16608482015260880160408051601f1981840301815290829052610f7d9291602001611658565b6040516020818303038152906040529850505b505b505b5050508080610fa29061152f565b915050610c2c565b506000825111610fef5760405162461bcd60e51b815260206004820152601060248201526f6e6f207265676973746572206461746160801b6044820152606401610436565b600854604051611038916001600160a01b0316906110139087908690602001611687565b60408051808303601f19018152919052600854600160a01b900463ffffffff1661103e565b50505050565b60065460405163507c8bd160e01b81526001600160a01b03909116600482015260009073__$b2d160aea0e65d5e83164dd2e3c22b89ec$__9063507c8bd190602401602060405180830381865af415801561109d573d6000803e3d6000fd5b505050506040513d601f19601f820116820180604052508101906110c191906116bf565b90506001600160a01b0381166111195760405162461bcd60e51b815260206004820152601a60248201527f6c314d657373656e676572206973205a65726f416464726573730000000000006044820152606401610436565b60006382fbdc9c60e01b846040516024016111349190611708565b60408051601f198184030181529181526020820180517bffffffffffffffffffffffffffffffffffffffffffffffffffffffff166001600160e01b0319909416939093179092529051633dbb202b60e01b81529091506001600160a01b03831690633dbb202b906111ad9088908590889060040161171b565b600060405180830381600087803b1580156111c757600080fd5b505af11580156111db573d6000803e3d6000fd5b505050505050505050565b6001600160a01b03811681146111fb57600080fd5b50565b60006020828403121561121057600080fd5b813561121b816111e6565b9392505050565b60006020828403121561123457600080fd5b81356001600160e01b03198116811461121b57600080fd5b60006020828403121561125e57600080fd5b5035919050565b600080600080600060a0868803121561127d57600080fd5b8535611288816111e6565b94506020860135611298816111e6565b935060408601356112a8816111e6565b925060608601359150608086013563ffffffff811681146112c857600080fd5b809150509295509295909350565b634e487b7160e01b600052604160045260246000fd5b6040516060810167ffffffffffffffff8111828210171561130f5761130f6112d6565b60405290565b604051601f8201601f1916810167ffffffffffffffff8111828210171561133e5761133e6112d6565b604052919050565b600067ffffffffffffffff821115611360576113606112d6565b5060051b60200190565b6000806040838503121561137d57600080fd5b8235611388816111e6565b915060208381013567ffffffffffffffff8111156113a557600080fd5b8401601f810186136113b657600080fd5b80356113c96113c482611346565b611315565b81815260059190911b820183019083810190888311156113e857600080fd5b928401925b82841015611406578335825292840192908401906113ed565b80955050505050509250929050565b6020808252825182820181905260009190848201906040850190845b8181101561144d57835183529284019291840191600101611431565b50909695505050505050565b6000602080838503121561146c57600080fd5b825167ffffffffffffffff81111561148357600080fd5b8301601f8101851361149457600080fd5b80516114a26113c482611346565b81815260059190911b820183019083810190878311156114c157600080fd5b928401925b828410156114df578351825292840192908401906114c6565b979650505050505050565b634e487b7160e01b600052603260045260246000fd5b634e487b7160e01b600052601160045260246000fd5b8181038181111561152957611529611500565b92915050565b60006001820161154157611541611500565b5060010190565b60008060006060848603121561155d57600080fd5b8351925060208401519150604084015190509250925092565b6000602080838503121561158957600080fd5b825167ffffffffffffffff8111156115a057600080fd5b8301601f810185136115b157600080fd5b80516115bf6113c482611346565b818152606091820283018401918482019190888411156115de57600080fd5b938501935b838510156116285780858a0312156115fb5760008081fd5b6116036112ec565b85518152868601518782015260408087015190820152835293840193918501916115e3565b50979650505050505050565b60005b8381101561164f578181015183820152602001611637565b50506000910152565b6000835161166a818460208801611634565b83519083019061167e818360208801611634565b01949350505050565b6bffffffffffffffffffffffff198360601b168152600082516116b1816014850160208701611634565b919091016014019392505050565b6000602082840312156116d157600080fd5b815161121b816111e6565b600081518084526116f4816020860160208601611634565b601f01601f19169290920160200192915050565b60208152600061121b60208301846116dc565b6001600160a01b038416815260606020820152600061173d60608301856116dc565b905063ffffffff8316604083015294935050505056fea164736f6c6343000812000a",
  "linkReferences": {
    "contracts/libraries/LibProject.sol": {
      "LibProject": [
        {
          "length": 20,
          "start": 4227
        }
      ]
    }
  },
  "deployedLinkReferences": {
    "contracts/libraries/LibProject.sol": {
      "LibProject": [
        {
          "length": 20,
          "start": 4195
        }
      ]
    }
  }
}