{
  "_format": "hh-sol-artifact-1",
  "contractName": "TOS",
  "sourceName": "contracts/test/TOS.sol",
  "abi": [
    {
      "inputs": [
        {
          "internalType": "string",
          "name": "name_",
          "type": "string"
        },
        {
          "internalType": "string",
          "name": "symbol_",
          "type": "string"
        },
        {
          "internalType": "string",
          "name": "version_",
          "type": "string"
        }
      ],
      "stateMutability": "nonpayable",
      "type": "constructor"
    },
    {
      "anonymous": false,
      "inputs": [
        {
          "indexed": true,
          "internalType": "address",
          "name": "owner",
          "type": "address"
        },
        {
          "indexed": true,
          "internalType": "address",
          "name": "spender",
          "type": "address"
        },
        {
          "indexed": false,
          "internalType": "uint256",
          "name": "value",
          "type": "uint256"
        }
      ],
      "name": "Approval",
      "type": "event"
    },
    {
      "anonymous": false,
      "inputs": [
        {
          "indexed": true,
          "internalType": "bytes32",
          "name": "role",
          "type": "bytes32"
        },
        {
          "indexed": true,
          "internalType": "bytes32",
          "name": "previousAdminRole",
          "type": "bytes32"
        },
        {
          "indexed": true,
          "internalType": "bytes32",
          "name": "newAdminRole",
          "type": "bytes32"
        }
      ],
      "name": "RoleAdminChanged",
      "type": "event"
    },
    {
      "anonymous": false,
      "inputs": [
        {
          "indexed": true,
          "internalType": "bytes32",
          "name": "role",
          "type": "bytes32"
        },
        {
          "indexed": true,
          "internalType": "address",
          "name": "account",
          "type": "address"
        },
        {
          "indexed": true,
          "internalType": "address",
          "name": "sender",
          "type": "address"
        }
      ],
      "name": "RoleGranted",
      "type": "event"
    },
    {
      "anonymous": false,
      "inputs": [
        {
          "indexed": true,
          "internalType": "bytes32",
          "name": "role",
          "type": "bytes32"
        },
        {
          "indexed": true,
          "internalType": "address",
          "name": "account",
          "type": "address"
        },
        {
          "indexed": true,
          "internalType": "address",
          "name": "sender",
          "type": "address"
        }
      ],
      "name": "RoleRevoked",
      "type": "event"
    },
    {
      "anonymous": false,
      "inputs": [
        {
          "indexed": true,
          "internalType": "address",
          "name": "from",
          "type": "address"
        },
        {
          "indexed": true,
          "internalType": "address",
          "name": "to",
          "type": "address"
        },
        {
          "indexed": false,
          "internalType": "uint256",
          "name": "value",
          "type": "uint256"
        }
      ],
      "name": "Transfer",
      "type": "event"
    },
    {
      "inputs": [],
      "name": "ADMIN_ROLE",
      "outputs": [
        {
          "internalType": "bytes32",
          "name": "",
          "type": "bytes32"
        }
      ],
      "stateMutability": "view",
      "type": "function"
    },
    {
      "inputs": [],
      "name": "BURNER_ROLE",
      "outputs": [
        {
          "internalType": "bytes32",
          "name": "",
          "type": "bytes32"
        }
      ],
      "stateMutability": "view",
      "type": "function"
    },
    {
      "inputs": [],
      "name": "DEFAULT_ADMIN_ROLE",
      "outputs": [
        {
          "internalType": "bytes32",
          "name": "",
          "type": "bytes32"
        }
      ],
      "stateMutability": "view",
      "type": "function"
    },
    {
      "inputs": [],
      "name": "DOMAIN_SEPARATOR",
      "outputs": [
        {
          "internalType": "bytes32",
          "name": "",
          "type": "bytes32"
        }
      ],
      "stateMutability": "view",
      "type": "function"
    },
    {
      "inputs": [],
      "name": "MINTER_ROLE",
      "outputs": [
        {
          "internalType": "bytes32",
          "name": "",
          "type": "bytes32"
        }
      ],
      "stateMutability": "view",
      "type": "function"
    },
    {
      "inputs": [],
      "name": "PERMIT_TYPEHASH",
      "outputs": [
        {
          "internalType": "bytes32",
          "name": "",
          "type": "bytes32"
        }
      ],
      "stateMutability": "view",
      "type": "function"
    },
    {
      "inputs": [],
      "name": "POLICY_ROLE",
      "outputs": [
        {
          "internalType": "bytes32",
          "name": "",
          "type": "bytes32"
        }
      ],
      "stateMutability": "view",
      "type": "function"
    },
    {
      "inputs": [
        {
          "internalType": "address",
          "name": "account",
          "type": "address"
        }
      ],
      "name": "addAdmin",
      "outputs": [],
      "stateMutability": "nonpayable",
      "type": "function"
    },
    {
      "inputs": [
        {
          "internalType": "address",
          "name": "account",
          "type": "address"
        }
      ],
      "name": "addBurner",
      "outputs": [],
      "stateMutability": "nonpayable",
      "type": "function"
    },
    {
      "inputs": [
        {
          "internalType": "address",
          "name": "account",
          "type": "address"
        }
      ],
      "name": "addMinter",
      "outputs": [],
      "stateMutability": "nonpayable",
      "type": "function"
    },
    {
      "inputs": [
        {
          "internalType": "address",
          "name": "owner",
          "type": "address"
        },
        {
          "internalType": "address",
          "name": "spender",
          "type": "address"
        }
      ],
      "name": "allowance",
      "outputs": [
        {
          "internalType": "uint256",
          "name": "",
          "type": "uint256"
        }
      ],
      "stateMutability": "view",
      "type": "function"
    },
    {
      "inputs": [
        {
          "internalType": "address",
          "name": "spender",
          "type": "address"
        },
        {
          "internalType": "uint256",
          "name": "amount",
          "type": "uint256"
        }
      ],
      "name": "approve",
      "outputs": [
        {
          "internalType": "bool",
          "name": "",
          "type": "bool"
        }
      ],
      "stateMutability": "nonpayable",
      "type": "function"
    },
    {
      "inputs": [
        {
          "internalType": "address",
          "name": "account",
          "type": "address"
        }
      ],
      "name": "balanceOf",
      "outputs": [
        {
          "internalType": "uint256",
          "name": "",
          "type": "uint256"
        }
      ],
      "stateMutability": "view",
      "type": "function"
    },
    {
      "inputs": [
        {
          "internalType": "address",
          "name": "from",
          "type": "address"
        },
        {
          "internalType": "uint256",
          "name": "amount",
          "type": "uint256"
        }
      ],
      "name": "burn",
      "outputs": [
        {
          "internalType": "bool",
          "name": "",
          "type": "bool"
        }
      ],
      "stateMutability": "nonpayable",
      "type": "function"
    },
    {
      "inputs": [],
      "name": "decimals",
      "outputs": [
        {
          "internalType": "uint8",
          "name": "",
          "type": "uint8"
        }
      ],
      "stateMutability": "view",
      "type": "function"
    },
    {
      "inputs": [
        {
          "internalType": "address",
          "name": "spender",
          "type": "address"
        },
        {
          "internalType": "uint256",
          "name": "subtractedValue",
          "type": "uint256"
        }
      ],
      "name": "decreaseAllowance",
      "outputs": [
        {
          "internalType": "bool",
          "name": "",
          "type": "bool"
        }
      ],
      "stateMutability": "nonpayable",
      "type": "function"
    },
    {
      "inputs": [
        {
          "internalType": "bytes32",
          "name": "role",
          "type": "bytes32"
        }
      ],
      "name": "getRoleAdmin",
      "outputs": [
        {
          "internalType": "bytes32",
          "name": "",
          "type": "bytes32"
        }
      ],
      "stateMutability": "view",
      "type": "function"
    },
    {
      "inputs": [
        {
          "internalType": "bytes32",
          "name": "role",
          "type": "bytes32"
        },
        {
          "internalType": "address",
          "name": "account",
          "type": "address"
        }
      ],
      "name": "grantRole",
      "outputs": [],
      "stateMutability": "nonpayable",
      "type": "function"
    },
    {
      "inputs": [
        {
          "internalType": "bytes32",
          "name": "role",
          "type": "bytes32"
        },
        {
          "internalType": "address",
          "name": "account",
          "type": "address"
        }
      ],
      "name": "hasRole",
      "outputs": [
        {
          "internalType": "bool",
          "name": "",
          "type": "bool"
        }
      ],
      "stateMutability": "view",
      "type": "function"
    },
    {
      "inputs": [
        {
          "internalType": "address",
          "name": "owner",
          "type": "address"
        },
        {
          "internalType": "address",
          "name": "spender",
          "type": "address"
        },
        {
          "internalType": "uint256",
          "name": "value",
          "type": "uint256"
        },
        {
          "internalType": "uint256",
          "name": "deadline",
          "type": "uint256"
        },
        {
          "internalType": "uint256",
          "name": "_nounce",
          "type": "uint256"
        }
      ],
      "name": "hashPermit",
      "outputs": [
        {
          "internalType": "bytes32",
          "name": "",
          "type": "bytes32"
        }
      ],
      "stateMutability": "view",
      "type": "function"
    },
    {
      "inputs": [
        {
          "internalType": "address",
          "name": "spender",
          "type": "address"
        },
        {
          "internalType": "uint256",
          "name": "addedValue",
          "type": "uint256"
        }
      ],
      "name": "increaseAllowance",
      "outputs": [
        {
          "internalType": "bool",
          "name": "",
          "type": "bool"
        }
      ],
      "stateMutability": "nonpayable",
      "type": "function"
    },
    {
      "inputs": [
        {
          "internalType": "address",
          "name": "account",
          "type": "address"
        }
      ],
      "name": "isAdmin",
      "outputs": [
        {
          "internalType": "bool",
          "name": "",
          "type": "bool"
        }
      ],
      "stateMutability": "view",
      "type": "function"
    },
    {
      "inputs": [
        {
          "internalType": "address",
          "name": "account",
          "type": "address"
        }
      ],
      "name": "isBurner",
      "outputs": [
        {
          "internalType": "bool",
          "name": "",
          "type": "bool"
        }
      ],
      "stateMutability": "view",
      "type": "function"
    },
    {
      "inputs": [
        {
          "internalType": "address",
          "name": "account",
          "type": "address"
        }
      ],
      "name": "isMinter",
      "outputs": [
        {
          "internalType": "bool",
          "name": "",
          "type": "bool"
        }
      ],
      "stateMutability": "view",
      "type": "function"
    },
    {
      "inputs": [
        {
          "internalType": "address",
          "name": "to",
          "type": "address"
        },
        {
          "internalType": "uint256",
          "name": "amount",
          "type": "uint256"
        }
      ],
      "name": "mint",
      "outputs": [
        {
          "internalType": "bool",
          "name": "",
          "type": "bool"
        }
      ],
      "stateMutability": "nonpayable",
      "type": "function"
    },
    {
      "inputs": [],
      "name": "name",
      "outputs": [
        {
          "internalType": "string",
          "name": "",
          "type": "string"
        }
      ],
      "stateMutability": "view",
      "type": "function"
    },
    {
      "inputs": [
        {
          "internalType": "address",
          "name": "",
          "type": "address"
        }
      ],
      "name": "nonces",
      "outputs": [
        {
          "internalType": "uint256",
          "name": "",
          "type": "uint256"
        }
      ],
      "stateMutability": "view",
      "type": "function"
    },
    {
      "inputs": [
        {
          "internalType": "address",
          "name": "owner",
          "type": "address"
        },
        {
          "internalType": "address",
          "name": "spender",
          "type": "address"
        },
        {
          "internalType": "uint256",
          "name": "value",
          "type": "uint256"
        },
        {
          "internalType": "uint256",
          "name": "deadline",
          "type": "uint256"
        },
        {
          "internalType": "uint8",
          "name": "v",
          "type": "uint8"
        },
        {
          "internalType": "bytes32",
          "name": "r",
          "type": "bytes32"
        },
        {
          "internalType": "bytes32",
          "name": "s",
          "type": "bytes32"
        }
      ],
      "name": "permit",
      "outputs": [],
      "stateMutability": "nonpayable",
      "type": "function"
    },
    {
      "inputs": [
        {
          "internalType": "address",
          "name": "account",
          "type": "address"
        }
      ],
      "name": "removeAdmin",
      "outputs": [],
      "stateMutability": "nonpayable",
      "type": "function"
    },
    {
      "inputs": [
        {
          "internalType": "address",
          "name": "account",
          "type": "address"
        }
      ],
      "name": "removeBurner",
      "outputs": [],
      "stateMutability": "nonpayable",
      "type": "function"
    },
    {
      "inputs": [
        {
          "internalType": "address",
          "name": "account",
          "type": "address"
        }
      ],
      "name": "removeMinter",
      "outputs": [],
      "stateMutability": "nonpayable",
      "type": "function"
    },
    {
      "inputs": [
        {
          "internalType": "bytes32",
          "name": "role",
          "type": "bytes32"
        },
        {
          "internalType": "address",
          "name": "account",
          "type": "address"
        }
      ],
      "name": "renounceRole",
      "outputs": [],
      "stateMutability": "nonpayable",
      "type": "function"
    },
    {
      "inputs": [
        {
          "internalType": "bytes32",
          "name": "role",
          "type": "bytes32"
        },
        {
          "internalType": "address",
          "name": "account",
          "type": "address"
        }
      ],
      "name": "revokeRole",
      "outputs": [],
      "stateMutability": "nonpayable",
      "type": "function"
    },
    {
      "inputs": [
        {
          "internalType": "bytes4",
          "name": "interfaceId",
          "type": "bytes4"
        }
      ],
      "name": "supportsInterface",
      "outputs": [
        {
          "internalType": "bool",
          "name": "",
          "type": "bool"
        }
      ],
      "stateMutability": "view",
      "type": "function"
    },
    {
      "inputs": [],
      "name": "symbol",
      "outputs": [
        {
          "internalType": "string",
          "name": "",
          "type": "string"
        }
      ],
      "stateMutability": "view",
      "type": "function"
    },
    {
      "inputs": [],
      "name": "totalSupply",
      "outputs": [
        {
          "internalType": "uint256",
          "name": "",
          "type": "uint256"
        }
      ],
      "stateMutability": "view",
      "type": "function"
    },
    {
      "inputs": [
        {
          "internalType": "address",
          "name": "to",
          "type": "address"
        },
        {
          "internalType": "uint256",
          "name": "amount",
          "type": "uint256"
        }
      ],
      "name": "transfer",
      "outputs": [
        {
          "internalType": "bool",
          "name": "",
          "type": "bool"
        }
      ],
      "stateMutability": "nonpayable",
      "type": "function"
    },
    {
      "inputs": [
        {
          "internalType": "address",
          "name": "newAdmin",
          "type": "address"
        }
      ],
      "name": "transferAdmin",
      "outputs": [],
      "stateMutability": "nonpayable",
      "type": "function"
    },
    {
      "inputs": [
        {
          "internalType": "address",
          "name": "from",
          "type": "address"
        },
        {
          "internalType": "address",
          "name": "to",
          "type": "address"
        },
        {
          "internalType": "uint256",
          "name": "amount",
          "type": "uint256"
        }
      ],
      "name": "transferFrom",
      "outputs": [
        {
          "internalType": "bool",
          "name": "",
          "type": "bool"
        }
      ],
      "stateMutability": "nonpayable",
      "type": "function"
    },
    {
      "inputs": [
        {
          "internalType": "address",
          "name": "owner",
          "type": "address"
        },
        {
          "internalType": "address",
          "name": "spender",
          "type": "address"
        },
        {
          "internalType": "uint256",
          "name": "value",
          "type": "uint256"
        },
        {
          "internalType": "uint256",
          "name": "deadline",
          "type": "uint256"
        },
        {
          "internalType": "uint256",
          "name": "_nounce",
          "type": "uint256"
        },
        {
          "internalType": "bytes32",
          "name": "sigR",
          "type": "bytes32"
        },
        {
          "internalType": "bytes32",
          "name": "sigS",
          "type": "bytes32"
        },
        {
          "internalType": "uint8",
          "name": "sigV",
          "type": "uint8"
        }
      ],
      "name": "verify",
      "outputs": [
        {
          "internalType": "bool",
          "name": "",
          "type": "bool"
        }
      ],
      "stateMutability": "view",
      "type": "function"
    }
  ],
  "bytecode": "0x60806040523480156200001157600080fd5b50604051620026d3380380620026d383398101604081905262000034916200037b565b828260036200004483826200049b565b5060046200005382826200049b565b50508351602080860191909120835184830120604080517f8b73c3c69bb8fe3d512ecc4cf759cc79239f7b179b0ffacaa9a75d522b39400f94810194909452830191909152606082015246608082018190523060a0830152915060c00160408051601f198184030181529190528051602090910120600655620000e6600080516020620026b383398151915280620001b7565b620001217f9667e80708b6eeeb0053fa0cca44e028ff548e2a9f029edfeac87c118b08b7c8600080516020620026b3833981519152620001b7565b6200014b60008051602062002693833981519152600080516020620026b3833981519152620001b7565b62000166600080516020620026b38339815191523362000202565b620001927f9667e80708b6eeeb0053fa0cca44e028ff548e2a9f029edfeac87c118b08b7c83362000202565b620001ad600080516020620026938339815191523362000202565b5050505062000567565b600082815260056020526040808220600101805490849055905190918391839186917fbd79b86ffe0ab8e8776151514217cd7cacd52c909f66475c3af44e129f0b00ff9190a4505050565b6200020e828262000212565b5050565b60008281526005602090815260408083206001600160a01b038516845290915290205460ff166200020e5760008281526005602090815260408083206001600160a01b03851684529091529020805460ff19166001179055620002723390565b6001600160a01b0316816001600160a01b0316837f2f8788117e7eff1d82e926ec794901d17c78024a50270940304540a733656f0d60405160405180910390a45050565b634e487b7160e01b600052604160045260246000fd5b600082601f830112620002de57600080fd5b81516001600160401b0380821115620002fb57620002fb620002b6565b604051601f8301601f19908116603f01168101908282118183101715620003265762000326620002b6565b816040528381526020925086838588010111156200034357600080fd5b600091505b8382101562000367578582018301518183018401529082019062000348565b600093810190920192909252949350505050565b6000806000606084860312156200039157600080fd5b83516001600160401b0380821115620003a957600080fd5b620003b787838801620002cc565b94506020860151915080821115620003ce57600080fd5b620003dc87838801620002cc565b93506040860151915080821115620003f357600080fd5b506200040286828701620002cc565b9150509250925092565b600181811c908216806200042157607f821691505b6020821081036200044257634e487b7160e01b600052602260045260246000fd5b50919050565b601f8211156200049657600081815260208120601f850160051c81016020861015620004715750805b601f850160051c820191505b8181101562000492578281556001016200047d565b5050505b505050565b81516001600160401b03811115620004b757620004b7620002b6565b620004cf81620004c884546200040c565b8462000448565b602080601f831160018114620005075760008415620004ee5750858301515b600019600386901b1c1916600185901b17855562000492565b600085815260208120601f198616915b82811015620005385788860151825594840194600190910190840162000517565b5085821015620005575787850151600019600388901b60f8161c191681555b5050505050600190811b01905550565b61211c80620005776000396000f3fe608060405234801561001057600080fd5b50600436106102c85760003560e01c80635025d1dd1161017b578063a217fddf116100d8578063d53913931161008c578063dcdd8a0411610071578063dcdd8a041461063d578063dd62ed3e14610650578063f44637ba1461068957600080fd5b8063d539139314610603578063d547741f1461062a57600080fd5b8063a9059cbb116100bd578063a9059cbb146105ca578063aa271e1a146105dd578063d505accf146105f057600080fd5b8063a217fddf146105af578063a457c2d7146105b757600080fd5b80637ecebe001161012f57806395d89b411161011457806395d89b4114610581578063983b2d56146105895780639dc29fac1461059c57600080fd5b80637ecebe001461052857806391d148541461054857600080fd5b806370a082311161016057806370a08231146104c557806375829def146104ee57806375b238fc1461050157600080fd5b80635025d1dd1461049f57806370480275146104b257600080fd5b8063282c51f3116102295780633644e515116101dd57806339509351116101c2578063395093511461046657806340c10f19146104795780634334614a1461048c57600080fd5b80633644e5151461044a57806336568abe1461045357600080fd5b80633092afd51161020e5780633092afd51461040157806330adf81f14610414578063313ce5671461043b57600080fd5b8063282c51f3146103c75780632f2ff15d146103ee57600080fd5b806318160ddd1161028057806323b872dd1161026557806323b872dd1461037e578063248a9ca31461039157806324d7806c146103b457600080fd5b806318160ddd14610345578063229852461461035757600080fd5b806306fdde03116102b157806306fdde031461030a578063095ea7b31461031f5780631785f53c1461033257600080fd5b806301ffc9a7146102cd57806302846858146102f5575b600080fd5b6102e06102db366004611cb8565b61069c565b60405190151581526020015b60405180910390f35b610308610303366004611cfe565b6106d3565b005b610312610765565b6040516102ec9190611d69565b6102e061032d366004611d7c565b6107f7565b610308610340366004611cfe565b61080f565b6002545b6040519081526020016102ec565b6103497ffb5864e8ff833c3cb2d2d08505e82ff02a43554c74a35d4f5a64e8526127831181565b6102e061038c366004611da6565b610899565b61034961039f366004611de2565b60009081526005602052604090206001015490565b6102e06103c2366004611cfe565b6108bd565b6103497f9667e80708b6eeeb0053fa0cca44e028ff548e2a9f029edfeac87c118b08b7c881565b6103086103fc366004611dfb565b6108fd565b61030861040f366004611cfe565b610927565b6103497f6e71edae12b1b97f4d1f60370fef10105fa2faae0126114a169c64845d6126c981565b604051601281526020016102ec565b61034960065481565b610308610461366004611dfb565b6109b1565b6102e0610474366004611d7c565b610a3d565b6102e0610487366004611d7c565b610a7c565b6102e061049a366004611cfe565b610b0c565b6102e06104ad366004611e38565b610b4c565b6103086104c0366004611cfe565b610bd7565b6103496104d3366004611cfe565b6001600160a01b031660009081526020819052604090205490565b6103086104fc366004611cfe565b610c61565b6103497fdf8b4c520ffe197c5343c6f5aec59570151ef9a492f2c624fd45ddde6135ec4281565b610349610536366004611cfe565b60076020526000908152604090205481565b6102e0610556366004611dfb565b60009182526005602090815260408084206001600160a01b0393909316845291905290205460ff1690565b610312610dc3565b610308610597366004611cfe565b610dd2565b6102e06105aa366004611d7c565b610e5c565b610349600081565b6102e06105c5366004611d7c565b610ee3565b6102e06105d8366004611d7c565b610f75565b6102e06105eb366004611cfe565b610f83565b6103086105fe366004611eac565b610fc3565b6103497ff0887ba65ee2024ea881d91b74c2450ef19e1557f03bed3ea9f16b037cbe2dc981565b610308610638366004611dfb565b61121c565b61034961064b366004611f16565b611241565b61034961065e366004611f63565b6001600160a01b03918216600090815260016020908152604080832093909416825291909152205490565b610308610697366004611cfe565b611302565b60006001600160e01b03198216637965db0b60e01b14806106cd57506301ffc9a760e01b6001600160e01b03198316145b92915050565b6106dc336108bd565b6107385760405162461bcd60e51b815260206004820152602260248201527f41636365737369626c653a2043616c6c6572206973206e6f7420616e2061646d60448201526134b760f11b60648201526084015b60405180910390fd5b6107627f9667e80708b6eeeb0053fa0cca44e028ff548e2a9f029edfeac87c118b08b7c88261121c565b50565b60606003805461077490611f8d565b80601f01602080910402602001604051908101604052809291908181526020018280546107a090611f8d565b80156107ed5780601f106107c2576101008083540402835291602001916107ed565b820191906000526020600020905b8154815290600101906020018083116107d057829003601f168201915b5050505050905090565b60003361080581858561138c565b5060019392505050565b610818336108bd565b61086f5760405162461bcd60e51b815260206004820152602260248201527f41636365737369626c653a2043616c6c6572206973206e6f7420616e2061646d60448201526134b760f11b606482015260840161072f565b6107627fdf8b4c520ffe197c5343c6f5aec59570151ef9a492f2c624fd45ddde6135ec42826109b1565b6000336108a78582856114b0565b6108b2858585611542565b506001949350505050565b6001600160a01b03811660009081527f09f04f5809d5be59813a33617d16f069caae874a6b34f03139f63d934daddae6602052604081205460ff166106cd565b600082815260056020526040902060010154610918816116e6565b61092283836116f0565b505050565b610930336108bd565b6109875760405162461bcd60e51b815260206004820152602260248201527f41636365737369626c653a2043616c6c6572206973206e6f7420616e2061646d60448201526134b760f11b606482015260840161072f565b6107627ff0887ba65ee2024ea881d91b74c2450ef19e1557f03bed3ea9f16b037cbe2dc98261121c565b6001600160a01b0381163314610a2f5760405162461bcd60e51b815260206004820152602f60248201527f416363657373436f6e74726f6c3a2063616e206f6e6c792072656e6f756e636560448201527f20726f6c657320666f722073656c660000000000000000000000000000000000606482015260840161072f565b610a398282611792565b5050565b3360008181526001602090815260408083206001600160a01b03871684529091528120549091906108059082908690610a77908790611fdd565b61138c565b6000610a8733610f83565b610af95760405162461bcd60e51b815260206004820152602c60248201527f41636365737369626c65506c7573436f6d6d6f6e3a2043616c6c65722069732060448201527f6e6f742061206d696e7465720000000000000000000000000000000000000000606482015260840161072f565b610b038383611815565b50600192915050565b6001600160a01b03811660009081527fb78e05ed46ac3f55f5044ab350c03ad97e72b402832cde15af4bf807d98d0a96602052604081205460ff166106cd565b60006001610b5d8a8a8a8a8a611241565b6040805160008152602081018083529290925260ff851690820152606081018690526080810185905260a0016020604051602081039080840390855afa158015610bab573d6000803e3d6000fd5b505050602060405103516001600160a01b0316896001600160a01b031614905098975050505050505050565b610be0336108bd565b610c375760405162461bcd60e51b815260206004820152602260248201527f41636365737369626c653a2043616c6c6572206973206e6f7420616e2061646d60448201526134b760f11b606482015260840161072f565b6107627fdf8b4c520ffe197c5343c6f5aec59570151ef9a492f2c624fd45ddde6135ec42826108fd565b610c6a336108bd565b610cc15760405162461bcd60e51b815260206004820152602260248201527f41636365737369626c653a2043616c6c6572206973206e6f7420616e2061646d60448201526134b760f11b606482015260840161072f565b6001600160a01b038116610d175760405162461bcd60e51b815260206004820152601860248201527f41636365737369626c653a207a65726f20616464726573730000000000000000604482015260640161072f565b6001600160a01b0381163303610d6f5760405162461bcd60e51b815260206004820152601660248201527f41636365737369626c653a2073616d652061646d696e00000000000000000000604482015260640161072f565b610d997fdf8b4c520ffe197c5343c6f5aec59570151ef9a492f2c624fd45ddde6135ec42826108fd565b6107627fdf8b4c520ffe197c5343c6f5aec59570151ef9a492f2c624fd45ddde6135ec42336109b1565b60606004805461077490611f8d565b610ddb336108bd565b610e325760405162461bcd60e51b815260206004820152602260248201527f41636365737369626c653a2043616c6c6572206973206e6f7420616e2061646d60448201526134b760f11b606482015260840161072f565b6107627ff0887ba65ee2024ea881d91b74c2450ef19e1557f03bed3ea9f16b037cbe2dc9826108fd565b6000610e6733610b0c565b610ed95760405162461bcd60e51b815260206004820152602c60248201527f41636365737369626c65506c7573436f6d6d6f6e3a2043616c6c65722069732060448201527f6e6f742061206275726e65720000000000000000000000000000000000000000606482015260840161072f565b610b0383836118d4565b3360008181526001602090815260408083206001600160a01b038716845290915281205490919083811015610f685760405162461bcd60e51b815260206004820152602560248201527f45524332303a2064656372656173656420616c6c6f77616e63652062656c6f77604482015264207a65726f60d81b606482015260840161072f565b6108b2828686840361138c565b600033610805818585611542565b6001600160a01b03811660009081527fca0a2f641ec05ca23127d994cf03ffc453db616acae0b86cb56bb95304d06854602052604081205460ff166106cd565b428410156110135760405162461bcd60e51b815260206004820152601360248201527f544f533a207065726d6974204558504952454400000000000000000000000000604482015260640161072f565b6001600160a01b0387166000908152600760205260408120805461104c918a918a918a918a918761104383611ff0565b91905055611241565b9050866001600160a01b0316886001600160a01b0316036110af5760405162461bcd60e51b815260206004820152601e60248201527f544f533a20617070726f76616c20746f2063757272656e74206f776e65720000604482015260640161072f565b6040805160008082526020820180845284905260ff871692820192909252606081018590526080810184905260019060a0016020604051602081039080840390855afa158015611103573d6000803e3d6000fd5b5050604051601f1901519150506001600160a01b0381166111665760405162461bcd60e51b815260206004820152601660248201527f544f533a20496e76616c6964207369676e617475726500000000000000000000604482015260640161072f565b6111a56040518060400160405280600b81526020017f616464726573733a20257300000000000000000000000000000000000000000081525082611a06565b886001600160a01b0316816001600160a01b0316146112065760405162461bcd60e51b815260206004820152601160248201527f544f533a20556e617574686f72697a6564000000000000000000000000000000604482015260640161072f565b61121189898961138c565b505050505050505050565b600082815260056020526040902060010154611237816116e6565b6109228383611792565b600654604080517f6e71edae12b1b97f4d1f60370fef10105fa2faae0126114a169c64845d6126c960208201526001600160a01b038089169282019290925290861660608201526080810185905260a0810183905260c081018490526000919060e001604051602081830303815290604052805190602001206040516020016112e192919061190160f01b81526002810192909252602282015260420190565b60405160208183030381529060405280519060200120905095945050505050565b61130b336108bd565b6113625760405162461bcd60e51b815260206004820152602260248201527f41636365737369626c653a2043616c6c6572206973206e6f7420616e2061646d60448201526134b760f11b606482015260840161072f565b6107627f9667e80708b6eeeb0053fa0cca44e028ff548e2a9f029edfeac87c118b08b7c8826108fd565b6001600160a01b0383166113ee5760405162461bcd60e51b8152602060048201526024808201527f45524332303a20617070726f76652066726f6d20746865207a65726f206164646044820152637265737360e01b606482015260840161072f565b6001600160a01b03821661144f5760405162461bcd60e51b815260206004820152602260248201527f45524332303a20617070726f766520746f20746865207a65726f206164647265604482015261737360f01b606482015260840161072f565b6001600160a01b0383811660008181526001602090815260408083209487168084529482529182902085905590518481527f8c5be1e5ebec7d5bd14f71427d1e84f3dd0314c0f7b2291e5b200ac8c7c3b925910160405180910390a3505050565b6001600160a01b03838116600090815260016020908152604080832093861683529290522054600019811461153c578181101561152f5760405162461bcd60e51b815260206004820152601d60248201527f45524332303a20696e73756666696369656e7420616c6c6f77616e6365000000604482015260640161072f565b61153c848484840361138c565b50505050565b6001600160a01b0383166115a65760405162461bcd60e51b815260206004820152602560248201527f45524332303a207472616e736665722066726f6d20746865207a65726f206164604482015264647265737360d81b606482015260840161072f565b6001600160a01b0382166116085760405162461bcd60e51b815260206004820152602360248201527f45524332303a207472616e7366657220746f20746865207a65726f206164647260448201526265737360e81b606482015260840161072f565b6001600160a01b038316600090815260208190526040902054818110156116805760405162461bcd60e51b815260206004820152602660248201527f45524332303a207472616e7366657220616d6f756e7420657863656564732062604482015265616c616e636560d01b606482015260840161072f565b6001600160a01b03848116600081815260208181526040808320878703905593871680835291849020805487019055925185815290927fddf252ad1be2c89b69c2b068fc378daa952ba7f163c4a11628f55a4df523b3ef910160405180910390a361153c565b6107628133611a60565b60008281526005602090815260408083206001600160a01b038516845290915290205460ff16610a395760008281526005602090815260408083206001600160a01b03851684529091529020805460ff1916600117905561174e3390565b6001600160a01b0316816001600160a01b0316837f2f8788117e7eff1d82e926ec794901d17c78024a50270940304540a733656f0d60405160405180910390a45050565b60008281526005602090815260408083206001600160a01b038516845290915290205460ff1615610a395760008281526005602090815260408083206001600160a01b0385168085529252808320805460ff1916905551339285917ff6391f5c32d9c69d2a47ea670b442974b53935d1edc7fd64eb21e047a839171b9190a45050565b6001600160a01b03821661186b5760405162461bcd60e51b815260206004820152601f60248201527f45524332303a206d696e7420746f20746865207a65726f206164647265737300604482015260640161072f565b806002600082825461187d9190611fdd565b90915550506001600160a01b038216600081815260208181526040808320805486019055518481527fddf252ad1be2c89b69c2b068fc378daa952ba7f163c4a11628f55a4df523b3ef910160405180910390a35050565b6001600160a01b0382166119345760405162461bcd60e51b815260206004820152602160248201527f45524332303a206275726e2066726f6d20746865207a65726f206164647265736044820152607360f81b606482015260840161072f565b6001600160a01b038216600090815260208190526040902054818110156119a85760405162461bcd60e51b815260206004820152602260248201527f45524332303a206275726e20616d6f756e7420657863656564732062616c616e604482015261636560f01b606482015260840161072f565b6001600160a01b0383166000818152602081815260408083208686039055600280548790039055518581529192917fddf252ad1be2c89b69c2b068fc378daa952ba7f163c4a11628f55a4df523b3ef910160405180910390a3505050565b610a398282604051602401611a1c929190612009565b60408051601f198184030181529190526020810180517bffffffffffffffffffffffffffffffffffffffffffffffffffffffff1663319af33360e01b179052611ad5565b60008281526005602090815260408083206001600160a01b038516845290915290205460ff16610a3957611a9381611af6565b611a9e836020611b08565b604051602001611aaf929190612034565b60408051601f198184030181529082905262461bcd60e51b825261072f91600401611d69565b80516a636f6e736f6c652e6c6f67602083016000808483855afa5050505050565b60606106cd6001600160a01b03831660145b60606000611b178360026120b5565b611b22906002611fdd565b67ffffffffffffffff811115611b3a57611b3a6120cc565b6040519080825280601f01601f191660200182016040528015611b64576020820181803683370190505b509050600360fc1b81600081518110611b7f57611b7f6120e2565b60200101906001600160f81b031916908160001a905350600f60fb1b81600181518110611bae57611bae6120e2565b60200101906001600160f81b031916908160001a9053506000611bd28460026120b5565b611bdd906001611fdd565b90505b6001811115611c62577f303132333435363738396162636465660000000000000000000000000000000085600f1660108110611c1e57611c1e6120e2565b1a60f81b828281518110611c3457611c346120e2565b60200101906001600160f81b031916908160001a90535060049490941c93611c5b816120f8565b9050611be0565b508315611cb15760405162461bcd60e51b815260206004820181905260248201527f537472696e67733a20686578206c656e67746820696e73756666696369656e74604482015260640161072f565b9392505050565b600060208284031215611cca57600080fd5b81356001600160e01b031981168114611cb157600080fd5b80356001600160a01b0381168114611cf957600080fd5b919050565b600060208284031215611d1057600080fd5b611cb182611ce2565b60005b83811015611d34578181015183820152602001611d1c565b50506000910152565b60008151808452611d55816020860160208601611d19565b601f01601f19169290920160200192915050565b602081526000611cb16020830184611d3d565b60008060408385031215611d8f57600080fd5b611d9883611ce2565b946020939093013593505050565b600080600060608486031215611dbb57600080fd5b611dc484611ce2565b9250611dd260208501611ce2565b9150604084013590509250925092565b600060208284031215611df457600080fd5b5035919050565b60008060408385031215611e0e57600080fd5b82359150611e1e60208401611ce2565b90509250929050565b803560ff81168114611cf957600080fd5b600080600080600080600080610100898b031215611e5557600080fd5b611e5e89611ce2565b9750611e6c60208a01611ce2565b965060408901359550606089013594506080890135935060a0890135925060c08901359150611e9d60e08a01611e27565b90509295985092959890939650565b600080600080600080600060e0888a031215611ec757600080fd5b611ed088611ce2565b9650611ede60208901611ce2565b95506040880135945060608801359350611efa60808901611e27565b925060a0880135915060c0880135905092959891949750929550565b600080600080600060a08688031215611f2e57600080fd5b611f3786611ce2565b9450611f4560208701611ce2565b94979496505050506040830135926060810135926080909101359150565b60008060408385031215611f7657600080fd5b611f7f83611ce2565b9150611e1e60208401611ce2565b600181811c90821680611fa157607f821691505b602082108103611fc157634e487b7160e01b600052602260045260246000fd5b50919050565b634e487b7160e01b600052601160045260246000fd5b808201808211156106cd576106cd611fc7565b60006001820161200257612002611fc7565b5060010190565b60408152600061201c6040830185611d3d565b90506001600160a01b03831660208301529392505050565b7f416363657373436f6e74726f6c3a206163636f756e742000000000000000000081526000835161206c816017850160208801611d19565b7f206973206d697373696e6720726f6c652000000000000000000000000000000060179184019182015283516120a9816028840160208801611d19565b01602801949350505050565b80820281158282048414176106cd576106cd611fc7565b634e487b7160e01b600052604160045260246000fd5b634e487b7160e01b600052603260045260246000fd5b60008161210757612107611fc7565b50600019019056fea164736f6c6343000812000af0887ba65ee2024ea881d91b74c2450ef19e1557f03bed3ea9f16b037cbe2dc9df8b4c520ffe197c5343c6f5aec59570151ef9a492f2c624fd45ddde6135ec42",
  "linkReferences": {},
  "deployedLinkReferences": {}
}