{
  "_format": "hh-sol-artifact-1",
  "contractName": "ERC20B",
  "sourceName": "contracts/L1/tokens/ERC20B.sol",
  "abi": [
    {
      "inputs": [
        {
          "internalType": "string",
          "name": "_name",
          "type": "string"
        },
        {
          "internalType": "string",
          "name": "_symbol",
          "type": "string"
        },
        {
          "internalType": "uint256",
          "name": "initialSupply",
          "type": "uint256"
        },
        {
          "internalType": "address",
          "name": "_owner",
          "type": "address"
        }
      ],
      "stateMutability": "nonpayable",
      "type": "constructor"
    },
    {
      "anonymous": false,
      "inputs": [
        {
          "indexed": true,
          "internalType": "address",
          "name": "owner",
          "type": "address"
        },
        {
          "indexed": true,
          "internalType": "address",
          "name": "spender",
          "type": "address"
        },
        {
          "indexed": false,
          "internalType": "uint256",
          "name": "value",
          "type": "uint256"
        }
      ],
      "name": "Approval",
      "type": "event"
    },
    {
      "anonymous": false,
      "inputs": [
        {
          "indexed": true,
          "internalType": "bytes32",
          "name": "role",
          "type": "bytes32"
        },
        {
          "indexed": true,
          "internalType": "bytes32",
          "name": "previousAdminRole",
          "type": "bytes32"
        },
        {
          "indexed": true,
          "internalType": "bytes32",
          "name": "newAdminRole",
          "type": "bytes32"
        }
      ],
      "name": "RoleAdminChanged",
      "type": "event"
    },
    {
      "anonymous": false,
      "inputs": [
        {
          "indexed": true,
          "internalType": "bytes32",
          "name": "role",
          "type": "bytes32"
        },
        {
          "indexed": true,
          "internalType": "address",
          "name": "account",
          "type": "address"
        },
        {
          "indexed": true,
          "internalType": "address",
          "name": "sender",
          "type": "address"
        }
      ],
      "name": "RoleGranted",
      "type": "event"
    },
    {
      "anonymous": false,
      "inputs": [
        {
          "indexed": true,
          "internalType": "bytes32",
          "name": "role",
          "type": "bytes32"
        },
        {
          "indexed": true,
          "internalType": "address",
          "name": "account",
          "type": "address"
        },
        {
          "indexed": true,
          "internalType": "address",
          "name": "sender",
          "type": "address"
        }
      ],
      "name": "RoleRevoked",
      "type": "event"
    },
    {
      "anonymous": false,
      "inputs": [
        {
          "indexed": true,
          "internalType": "address",
          "name": "from",
          "type": "address"
        },
        {
          "indexed": true,
          "internalType": "address",
          "name": "to",
          "type": "address"
        },
        {
          "indexed": false,
          "internalType": "uint256",
          "name": "value",
          "type": "uint256"
        }
      ],
      "name": "Transfer",
      "type": "event"
    },
    {
      "inputs": [],
      "name": "DEFAULT_ADMIN_ROLE",
      "outputs": [
        {
          "internalType": "bytes32",
          "name": "",
          "type": "bytes32"
        }
      ],
      "stateMutability": "view",
      "type": "function"
    },
    {
      "inputs": [],
      "name": "MINTER_ROLE",
      "outputs": [
        {
          "internalType": "bytes32",
          "name": "",
          "type": "bytes32"
        }
      ],
      "stateMutability": "view",
      "type": "function"
    },
    {
      "inputs": [],
      "name": "_INTERFACE_ID_ERC20",
      "outputs": [
        {
          "internalType": "bytes4",
          "name": "",
          "type": "bytes4"
        }
      ],
      "stateMutability": "view",
      "type": "function"
    },
    {
      "inputs": [
        {
          "internalType": "bytes4",
          "name": "",
          "type": "bytes4"
        }
      ],
      "name": "_supportedInterfaces",
      "outputs": [
        {
          "internalType": "bool",
          "name": "",
          "type": "bool"
        }
      ],
      "stateMutability": "view",
      "type": "function"
    },
    {
      "inputs": [
        {
          "internalType": "address",
          "name": "owner",
          "type": "address"
        },
        {
          "internalType": "address",
          "name": "spender",
          "type": "address"
        }
      ],
      "name": "allowance",
      "outputs": [
        {
          "internalType": "uint256",
          "name": "",
          "type": "uint256"
        }
      ],
      "stateMutability": "view",
      "type": "function"
    },
    {
      "inputs": [
        {
          "internalType": "address",
          "name": "spender",
          "type": "address"
        },
        {
          "internalType": "uint256",
          "name": "amount",
          "type": "uint256"
        }
      ],
      "name": "approve",
      "outputs": [
        {
          "internalType": "bool",
          "name": "",
          "type": "bool"
        }
      ],
      "stateMutability": "nonpayable",
      "type": "function"
    },
    {
      "inputs": [
        {
          "internalType": "address",
          "name": "spender",
          "type": "address"
        },
        {
          "internalType": "uint256",
          "name": "amount",
          "type": "uint256"
        },
        {
          "internalType": "bytes",
          "name": "data",
          "type": "bytes"
        }
      ],
      "name": "approveAndCall",
      "outputs": [
        {
          "internalType": "bool",
          "name": "",
          "type": "bool"
        }
      ],
      "stateMutability": "nonpayable",
      "type": "function"
    },
    {
      "inputs": [
        {
          "internalType": "address",
          "name": "account",
          "type": "address"
        }
      ],
      "name": "balanceOf",
      "outputs": [
        {
          "internalType": "uint256",
          "name": "",
          "type": "uint256"
        }
      ],
      "stateMutability": "view",
      "type": "function"
    },
    {
      "inputs": [
        {
          "internalType": "uint256",
          "name": "amount",
          "type": "uint256"
        }
      ],
      "name": "burn",
      "outputs": [],
      "stateMutability": "nonpayable",
      "type": "function"
    },
    {
      "inputs": [
        {
          "internalType": "address",
          "name": "account",
          "type": "address"
        },
        {
          "internalType": "uint256",
          "name": "amount",
          "type": "uint256"
        }
      ],
      "name": "burnFrom",
      "outputs": [],
      "stateMutability": "nonpayable",
      "type": "function"
    },
    {
      "inputs": [],
      "name": "decimals",
      "outputs": [
        {
          "internalType": "uint8",
          "name": "",
          "type": "uint8"
        }
      ],
      "stateMutability": "view",
      "type": "function"
    },
    {
      "inputs": [
        {
          "internalType": "address",
          "name": "spender",
          "type": "address"
        },
        {
          "internalType": "uint256",
          "name": "subtractedValue",
          "type": "uint256"
        }
      ],
      "name": "decreaseAllowance",
      "outputs": [
        {
          "internalType": "bool",
          "name": "",
          "type": "bool"
        }
      ],
      "stateMutability": "nonpayable",
      "type": "function"
    },
    {
      "inputs": [
        {
          "internalType": "bytes32",
          "name": "role",
          "type": "bytes32"
        }
      ],
      "name": "getRoleAdmin",
      "outputs": [
        {
          "internalType": "bytes32",
          "name": "",
          "type": "bytes32"
        }
      ],
      "stateMutability": "view",
      "type": "function"
    },
    {
      "inputs": [
        {
          "internalType": "bytes32",
          "name": "role",
          "type": "bytes32"
        },
        {
          "internalType": "address",
          "name": "account",
          "type": "address"
        }
      ],
      "name": "grantRole",
      "outputs": [],
      "stateMutability": "nonpayable",
      "type": "function"
    },
    {
      "inputs": [
        {
          "internalType": "bytes32",
          "name": "role",
          "type": "bytes32"
        },
        {
          "internalType": "address",
          "name": "account",
          "type": "address"
        }
      ],
      "name": "hasRole",
      "outputs": [
        {
          "internalType": "bool",
          "name": "",
          "type": "bool"
        }
      ],
      "stateMutability": "view",
      "type": "function"
    },
    {
      "inputs": [
        {
          "internalType": "address",
          "name": "spender",
          "type": "address"
        },
        {
          "internalType": "uint256",
          "name": "addedValue",
          "type": "uint256"
        }
      ],
      "name": "increaseAllowance",
      "outputs": [
        {
          "internalType": "bool",
          "name": "",
          "type": "bool"
        }
      ],
      "stateMutability": "nonpayable",
      "type": "function"
    },
    {
      "inputs": [
        {
          "internalType": "address",
          "name": "account",
          "type": "address"
        },
        {
          "internalType": "uint256",
          "name": "amount",
          "type": "uint256"
        }
      ],
      "name": "mint",
      "outputs": [
        {
          "internalType": "bool",
          "name": "",
          "type": "bool"
        }
      ],
      "stateMutability": "nonpayable",
      "type": "function"
    },
    {
      "inputs": [],
      "name": "name",
      "outputs": [
        {
          "internalType": "string",
          "name": "",
          "type": "string"
        }
      ],
      "stateMutability": "view",
      "type": "function"
    },
    {
      "inputs": [
        {
          "internalType": "bytes32",
          "name": "role",
          "type": "bytes32"
        },
        {
          "internalType": "address",
          "name": "account",
          "type": "address"
        }
      ],
      "name": "renounceRole",
      "outputs": [],
      "stateMutability": "nonpayable",
      "type": "function"
    },
    {
      "inputs": [
        {
          "internalType": "bytes32",
          "name": "role",
          "type": "bytes32"
        },
        {
          "internalType": "address",
          "name": "account",
          "type": "address"
        }
      ],
      "name": "revokeRole",
      "outputs": [],
      "stateMutability": "nonpayable",
      "type": "function"
    },
    {
      "inputs": [
        {
          "internalType": "address",
          "name": "recipient",
          "type": "address"
        },
        {
          "internalType": "uint256",
          "name": "amount",
          "type": "uint256"
        }
      ],
      "name": "safeTransfer",
      "outputs": [],
      "stateMutability": "nonpayable",
      "type": "function"
    },
    {
      "inputs": [
        {
          "internalType": "address",
          "name": "recipient",
          "type": "address"
        },
        {
          "internalType": "uint256",
          "name": "amount",
          "type": "uint256"
        },
        {
          "internalType": "bytes",
          "name": "data",
          "type": "bytes"
        }
      ],
      "name": "safeTransfer",
      "outputs": [],
      "stateMutability": "nonpayable",
      "type": "function"
    },
    {
      "inputs": [
        {
          "internalType": "address",
          "name": "sender",
          "type": "address"
        },
        {
          "internalType": "address",
          "name": "recipient",
          "type": "address"
        },
        {
          "internalType": "uint256",
          "name": "amount",
          "type": "uint256"
        }
      ],
      "name": "safeTransferFrom",
      "outputs": [],
      "stateMutability": "nonpayable",
      "type": "function"
    },
    {
      "inputs": [
        {
          "internalType": "address",
          "name": "sender",
          "type": "address"
        },
        {
          "internalType": "address",
          "name": "recipient",
          "type": "address"
        },
        {
          "internalType": "uint256",
          "name": "amount",
          "type": "uint256"
        },
        {
          "internalType": "bytes",
          "name": "data",
          "type": "bytes"
        }
      ],
      "name": "safeTransferFrom",
      "outputs": [],
      "stateMutability": "nonpayable",
      "type": "function"
    },
    {
      "inputs": [
        {
          "internalType": "bytes4",
          "name": "interfaceId",
          "type": "bytes4"
        }
      ],
      "name": "supportsInterface",
      "outputs": [
        {
          "internalType": "bool",
          "name": "",
          "type": "bool"
        }
      ],
      "stateMutability": "view",
      "type": "function"
    },
    {
      "inputs": [],
      "name": "symbol",
      "outputs": [
        {
          "internalType": "string",
          "name": "",
          "type": "string"
        }
      ],
      "stateMutability": "view",
      "type": "function"
    },
    {
      "inputs": [],
      "name": "totalSupply",
      "outputs": [
        {
          "internalType": "uint256",
          "name": "",
          "type": "uint256"
        }
      ],
      "stateMutability": "view",
      "type": "function"
    },
    {
      "inputs": [
        {
          "internalType": "address",
          "name": "to",
          "type": "address"
        },
        {
          "internalType": "uint256",
          "name": "amount",
          "type": "uint256"
        }
      ],
      "name": "transfer",
      "outputs": [
        {
          "internalType": "bool",
          "name": "",
          "type": "bool"
        }
      ],
      "stateMutability": "nonpayable",
      "type": "function"
    },
    {
      "inputs": [
        {
          "internalType": "address",
          "name": "from",
          "type": "address"
        },
        {
          "internalType": "address",
          "name": "to",
          "type": "address"
        },
        {
          "internalType": "uint256",
          "name": "amount",
          "type": "uint256"
        }
      ],
      "name": "transferFrom",
      "outputs": [
        {
          "internalType": "bool",
          "name": "",
          "type": "bool"
        }
      ],
      "stateMutability": "nonpayable",
      "type": "function"
    }
  ],
  "bytecode": "0x60806040523480156200001157600080fd5b5060405162001ff638038062001ff683398101604081905262000034916200043e565b8351849084906200004d906004906020850190620002e5565b50805162000063906005906020840190620002e5565b506200007a9150636578737160e01b9050620000f4565b6200008c6301ffc9a760e01b620000f4565b81156200009f576200009f818362000179565b620000ac6000826200023f565b620000d87f9f2df0fed2c77648de5860a4cc508cd0818c85b8b8a1ab4ceeef8d981c8956a6826200023f565b620000ea634fc3585960e01b620000f4565b5050505062000547565b6001600160e01b03198082161415620001545760405162461bcd60e51b815260206004820152601c60248201527f4552433136353a20696e76616c696420696e746572666163652069640000000060448201526064015b60405180910390fd5b6001600160e01b0319166000908152600660205260409020805460ff19166001179055565b6001600160a01b038216620001d15760405162461bcd60e51b815260206004820152601f60248201527f45524332303a206d696e7420746f20746865207a65726f20616464726573730060448201526064016200014b565b8060036000828254620001e59190620004cf565b90915550506001600160a01b0382166000818152600160209081526040808320805486019055518481527fddf252ad1be2c89b69c2b068fc378daa952ba7f163c4a11628f55a4df523b3ef910160405180910390a35b5050565b6200023b82826000828152602081815260408083206001600160a01b038516845290915290205460ff166200023b576000828152602081815260408083206001600160a01b03851684529091529020805460ff19166001179055620002a13390565b6001600160a01b0316816001600160a01b0316837f2f8788117e7eff1d82e926ec794901d17c78024a50270940304540a733656f0d60405160405180910390a45050565b828054620002f390620004f4565b90600052602060002090601f01602090048101928262000317576000855562000362565b82601f106200033257805160ff191683800117855562000362565b8280016001018555821562000362579182015b828111156200036257825182559160200191906001019062000345565b506200037092915062000374565b5090565b5b8082111562000370576000815560010162000375565b600082601f8301126200039c578081fd5b81516001600160401b0380821115620003b957620003b962000531565b604051601f8301601f19908116603f01168101908282118183101715620003e457620003e462000531565b8160405283815260209250868385880101111562000400578485fd5b8491505b8382101562000423578582018301518183018401529082019062000404565b838211156200043457848385830101525b9695505050505050565b6000806000806080858703121562000454578384fd5b84516001600160401b03808211156200046b578586fd5b62000479888389016200038b565b955060208701519150808211156200048f578485fd5b506200049e878288016200038b565b60408701516060880151919550935090506001600160a01b0381168114620004c4578182fd5b939692955090935050565b60008219821115620004ef57634e487b7160e01b81526011600452602481fd5b500190565b600181811c908216806200050957607f821691505b602082108114156200052b57634e487b7160e01b600052602260045260246000fd5b50919050565b634e487b7160e01b600052604160045260246000fd5b611a9f80620005576000396000f3fe608060405234801561001057600080fd5b50600436106101cf5760003560e01c806370a0823111610104578063a9059cbb116100a2578063d547741f11610071578063d547741f1461041f578063dd62ed3e14610432578063eb7955491461046b578063ef1944351461047e57600080fd5b8063a9059cbb146103bf578063b88d4fde146103d2578063cae9ca51146103e5578063d5391393146103f857600080fd5b80639321478c116100de5780639321478c1461037557806395d89b411461039c578063a217fddf146103a4578063a457c2d7146103ac57600080fd5b806370a082311461030257806379cc67901461032b57806391d148541461033e57600080fd5b8063313ce5671161017157806340c10f191161014b57806340c10f19146102b6578063423f6cef146102c957806342842e0e146102dc57806342966c68146102ef57600080fd5b8063313ce5671461028157806336568abe1461029057806339509351146102a357600080fd5b806318160ddd116101ad57806318160ddd1461022457806323b872dd14610236578063248a9ca3146102495780632f2ff15d1461026c57600080fd5b806301ffc9a7146101d457806306fdde03146101fc578063095ea7b314610211575b600080fd5b6101e76101e236600461184b565b6104a1565b60405190151581526020015b60405180910390f35b6102046104d3565b6040516101f39190611988565b6101e761021f366004611793565b610565565b6003545b6040519081526020016101f3565b6101e76102443660046116f2565b61057d565b610228610257366004611811565b60009081526020819052604090206001015490565b61027f61027a366004611829565b6105a1565b005b604051601281526020016101f3565b61027f61029e366004611829565b6105cb565b6101e76102b1366004611793565b61065c565b6101e76102c4366004611793565b61069b565b61027f6102d7366004611793565b6106d1565b61027f6102ea3660046116f2565b6106eb565b61027f6102fd366004611811565b610706565b6102286103103660046116a6565b6001600160a01b031660009081526001602052604090205490565b61027f610339366004611793565b610713565b6101e761034c366004611829565b6000918252602082815260408084206001600160a01b0393909316845291905290205460ff1690565b610383636578737160e01b81565b6040516001600160e01b031990911681526020016101f3565b610204610794565b610228600081565b6101e76103ba366004611793565b6107a3565b6101e76103cd366004611793565b610835565b61027f6103e036600461172d565b610843565b6101e76103f33660046117bc565b6108c6565b6102287f9f2df0fed2c77648de5860a4cc508cd0818c85b8b8a1ab4ceeef8d981c8956a681565b61027f61042d366004611829565b6108e7565b6102286104403660046116c0565b6001600160a01b03918216600090815260026020908152604080832093909416825291909152205490565b61027f6104793660046117bc565b61090c565b6101e761048c36600461184b565b60066020526000908152604090205460ff1681565b6001600160e01b0319811660009081526006602052604081205460ff16806104cd57506104cd82610988565b92915050565b6060600480546104e290611a15565b80601f016020809104026020016040519081016040528092919081815260200182805461050e90611a15565b801561055b5780601f106105305761010080835404028352916020019161055b565b820191906000526020600020905b81548152906001019060200180831161053e57829003601f168201915b5050505050905090565b6000336105738185856109bd565b5060019392505050565b60003361058b858285610ae1565b610596858585610b6d565b506001949350505050565b6000828152602081905260409020600101546105bc81610d18565b6105c68383610d22565b505050565b6001600160a01b038116331461064e5760405162461bcd60e51b815260206004820152602f60248201527f416363657373436f6e74726f6c3a2063616e206f6e6c792072656e6f756e636560448201527f20726f6c657320666f722073656c66000000000000000000000000000000000060648201526084015b60405180910390fd5b6106588282610dc0565b5050565b3360008181526002602090815260408083206001600160a01b0387168452909152812054909190610573908290869061069690879061199b565b6109bd565b60007f9f2df0fed2c77648de5860a4cc508cd0818c85b8b8a1ab4ceeef8d981c8956a66106c781610d18565b6105738484610e3f565b61065882826040518060200160405280600081525061090c565b6105c683838360405180602001604052806000815250610843565b6107103382610f00565b50565b600061071f8333610440565b90508181101561077d5760405162461bcd60e51b8152602060048201526024808201527f45524332303a206275726e20616d6f756e74206578636565647320616c6c6f77604482015263616e636560e01b6064820152608401610645565b61078a83338484036109bd565b6105c68383610f00565b6060600580546104e290611a15565b3360008181526002602090815260408083206001600160a01b0387168452909152812054909190838110156108285760405162461bcd60e51b815260206004820152602560248201527f45524332303a2064656372656173656420616c6c6f77616e63652062656c6f77604482015264207a65726f60d81b6064820152608401610645565b61059682868684036109bd565b600033610573818585610b6d565b61084e84848461057d565b5061085b84848484611034565b6108c05760405162461bcd60e51b815260206004820152603060248201527f45524332303a207472616e7366657220746f206e6f6e2045524332305265636560448201526f34bb32b91034b6b83632b6b2b73a32b960811b6064820152608401610645565b50505050565b60006108d28484610565565b6108db57600080fd5b610573338585856110f3565b60008281526020819052604090206001015461090281610d18565b6105c68383610dc0565b6109168383610835565b5061092333848484611034565b6105c65760405162461bcd60e51b815260206004820152603060248201527f45524332303a207472616e7366657220746f206e6f6e2045524332305265636560448201526f34bb32b91034b6b83632b6b2b73a32b960811b6064820152608401610645565b60006001600160e01b03198216637965db0b60e01b14806104cd57506301ffc9a760e01b6001600160e01b03198316146104cd565b6001600160a01b038316610a1f5760405162461bcd60e51b8152602060048201526024808201527f45524332303a20617070726f76652066726f6d20746865207a65726f206164646044820152637265737360e01b6064820152608401610645565b6001600160a01b038216610a805760405162461bcd60e51b815260206004820152602260248201527f45524332303a20617070726f766520746f20746865207a65726f206164647265604482015261737360f01b6064820152608401610645565b6001600160a01b0383811660008181526002602090815260408083209487168084529482529182902085905590518481527f8c5be1e5ebec7d5bd14f71427d1e84f3dd0314c0f7b2291e5b200ac8c7c3b925910160405180910390a3505050565b6001600160a01b0383811660009081526002602090815260408083209386168352929052205460001981146108c05781811015610b605760405162461bcd60e51b815260206004820152601d60248201527f45524332303a20696e73756666696369656e7420616c6c6f77616e63650000006044820152606401610645565b6108c084848484036109bd565b6001600160a01b038316610bd15760405162461bcd60e51b815260206004820152602560248201527f45524332303a207472616e736665722066726f6d20746865207a65726f206164604482015264647265737360d81b6064820152608401610645565b6001600160a01b038216610c335760405162461bcd60e51b815260206004820152602360248201527f45524332303a207472616e7366657220746f20746865207a65726f206164647260448201526265737360e81b6064820152608401610645565b6001600160a01b03831660009081526001602052604090205481811015610cab5760405162461bcd60e51b815260206004820152602660248201527f45524332303a207472616e7366657220616d6f756e7420657863656564732062604482015265616c616e636560d01b6064820152608401610645565b6001600160a01b0380851660008181526001602052604080822086860390559286168082529083902080548601905591517fddf252ad1be2c89b69c2b068fc378daa952ba7f163c4a11628f55a4df523b3ef90610d0b9086815260200190565b60405180910390a36108c0565b61071081336112b0565b6000828152602081815260408083206001600160a01b038516845290915290205460ff16610658576000828152602081815260408083206001600160a01b03851684529091529020805460ff19166001179055610d7c3390565b6001600160a01b0316816001600160a01b0316837f2f8788117e7eff1d82e926ec794901d17c78024a50270940304540a733656f0d60405160405180910390a45050565b6000828152602081815260408083206001600160a01b038516845290915290205460ff1615610658576000828152602081815260408083206001600160a01b0385168085529252808320805460ff1916905551339285917ff6391f5c32d9c69d2a47ea670b442974b53935d1edc7fd64eb21e047a839171b9190a45050565b6001600160a01b038216610e955760405162461bcd60e51b815260206004820152601f60248201527f45524332303a206d696e7420746f20746865207a65726f2061646472657373006044820152606401610645565b8060036000828254610ea7919061199b565b90915550506001600160a01b0382166000818152600160209081526040808320805486019055518481527fddf252ad1be2c89b69c2b068fc378daa952ba7f163c4a11628f55a4df523b3ef910160405180910390a35050565b6001600160a01b038216610f605760405162461bcd60e51b815260206004820152602160248201527f45524332303a206275726e2066726f6d20746865207a65726f206164647265736044820152607360f81b6064820152608401610645565b6001600160a01b03821660009081526001602052604090205481811015610fd45760405162461bcd60e51b815260206004820152602260248201527f45524332303a206275726e20616d6f756e7420657863656564732062616c616e604482015261636560f01b6064820152608401610645565b6001600160a01b03831660008181526001602090815260408083208686039055600380548790039055518581529192917fddf252ad1be2c89b69c2b068fc378daa952ba7f163c4a11628f55a4df523b3ef910160405180910390a3505050565b60006001600160a01b0384163b61104d575060016110eb565b604051634fc3585960e01b81526000906001600160a01b03861690634fc35859906110829033908a908990899060040161194c565b602060405180830381600087803b15801561109c57600080fd5b505af11580156110b0573d6000803e3d6000fd5b505050506040513d601f19601f820116820180604052508101906110d49190611867565b6001600160e01b031916634fc3585960e01b149150505b949350505050565b632139e50b60e11b6111058482611323565b6111775760405162461bcd60e51b815260206004820152603160248201527f617070726f7665416e6443616c6c3a207370656e64657220646f65736e27742060448201527f737570706f7274206f6e417070726f76650000000000000000000000000000006064820152608401610645565b600080856001600160a01b0316838888888860405160240161119c949392919061194c565b60408051601f198184030181529181526020820180516001600160e01b03166001600160e01b03199094169390931790925290516111da91906118af565b6000604051808303816000865af19150503d8060008114611217576040519150601f19603f3d011682016040523d82523d6000602084013e61121c565b606091505b50915091508181906112415760405162461bcd60e51b81526004016106459190611988565b5060208101519150816112a75760405162461bcd60e51b815260206004820152602860248201527f617070726f7665416e6443616c6c3a206661696c656420746f2063616c6c206f6044820152676e417070726f766560c01b6064820152608401610645565b50505050505050565b6000828152602081815260408083206001600160a01b038516845290915290205460ff16610658576112e181611346565b6112ec836020611358565b6040516020016112fd9291906118cb565b60408051601f198184030181529082905262461bcd60e51b825261064591600401611988565b600061132e83611547565b801561133f575061133f838361157a565b9392505050565b60606104cd6001600160a01b03831660145b606060006113678360026119b3565b61137290600261199b565b67ffffffffffffffff81111561139857634e487b7160e01b600052604160045260246000fd5b6040519080825280601f01601f1916602001820160405280156113c2576020820181803683370190505b509050600360fc1b816000815181106113eb57634e487b7160e01b600052603260045260246000fd5b60200101906001600160f81b031916908160001a905350600f60fb1b8160018151811061142857634e487b7160e01b600052603260045260246000fd5b60200101906001600160f81b031916908160001a905350600061144c8460026119b3565b61145790600161199b565b90505b60018111156114f8577f303132333435363738396162636465660000000000000000000000000000000085600f16601081106114a657634e487b7160e01b600052603260045260246000fd5b1a60f81b8282815181106114ca57634e487b7160e01b600052603260045260246000fd5b60200101906001600160f81b031916908160001a90535060049490941c936114f1816119fe565b905061145a565b50831561133f5760405162461bcd60e51b815260206004820181905260248201527f537472696e67733a20686578206c656e67746820696e73756666696369656e746044820152606401610645565b600061155a826301ffc9a760e01b61157a565b80156104cd5750611573826001600160e01b031961157a565b1592915050565b604080516001600160e01b03198316602480830191909152825180830390910181526044909101909152602080820180516001600160e01b03166301ffc9a760e01b178152825160009392849283928392918391908a617530fa92503d915060005190508280156115ec575060208210155b80156115f85750600081115b979650505050505050565b80356001600160a01b038116811461161a57600080fd5b919050565b600082601f83011261162f578081fd5b813567ffffffffffffffff8082111561164a5761164a611a66565b604051601f8301601f19908116603f0116810190828211818310171561167257611672611a66565b8160405283815286602085880101111561168a578485fd5b8360208701602083013792830160200193909352509392505050565b6000602082840312156116b7578081fd5b61133f82611603565b600080604083850312156116d2578081fd5b6116db83611603565b91506116e960208401611603565b90509250929050565b600080600060608486031215611706578081fd5b61170f84611603565b925061171d60208501611603565b9150604084013590509250925092565b60008060008060808587031215611742578081fd5b61174b85611603565b935061175960208601611603565b925060408501359150606085013567ffffffffffffffff81111561177b578182fd5b6117878782880161161f565b91505092959194509250565b600080604083850312156117a5578182fd5b6117ae83611603565b946020939093013593505050565b6000806000606084860312156117d0578283fd5b6117d984611603565b925060208401359150604084013567ffffffffffffffff8111156117fb578182fd5b6118078682870161161f565b9150509250925092565b600060208284031215611822578081fd5b5035919050565b6000806040838503121561183b578182fd5b823591506116e960208401611603565b60006020828403121561185c578081fd5b813561133f81611a7c565b600060208284031215611878578081fd5b815161133f81611a7c565b6000815180845261189b8160208601602086016119d2565b601f01601f19169290920160200192915050565b600082516118c18184602087016119d2565b9190910192915050565b7f416363657373436f6e74726f6c3a206163636f756e74200000000000000000008152600083516119038160178501602088016119d2565b7f206973206d697373696e6720726f6c652000000000000000000000000000000060179184019182015283516119408160288401602088016119d2565b01602801949350505050565b60006001600160a01b0380871683528086166020840152508360408301526080606083015261197e6080830184611883565b9695505050505050565b60208152600061133f6020830184611883565b600082198211156119ae576119ae611a50565b500190565b60008160001904831182151516156119cd576119cd611a50565b500290565b60005b838110156119ed5781810151838201526020016119d5565b838111156108c05750506000910152565b600081611a0d57611a0d611a50565b506000190190565b600181811c90821680611a2957607f821691505b60208210811415611a4a57634e487b7160e01b600052602260045260246000fd5b50919050565b634e487b7160e01b600052601160045260246000fd5b634e487b7160e01b600052604160045260246000fd5b6001600160e01b03198116811461071057600080fdfea164736f6c6343000804000a",
  "linkReferences": {},
  "deployedLinkReferences": {}
}