{
  "_format": "hh-sol-artifact-1",
  "contractName": "ERC20A",
  "sourceName": "contracts/L1/tokens/ERC20A.sol",
  "abi": [
    {
      "inputs": [
        {
          "internalType": "string",
          "name": "_name",
          "type": "string"
        },
        {
          "internalType": "string",
          "name": "_symbol",
          "type": "string"
        },
        {
          "internalType": "uint256",
          "name": "initialSupply",
          "type": "uint256"
        },
        {
          "internalType": "address",
          "name": "to",
          "type": "address"
        }
      ],
      "stateMutability": "nonpayable",
      "type": "constructor"
    },
    {
      "anonymous": false,
      "inputs": [
        {
          "indexed": true,
          "internalType": "address",
          "name": "owner",
          "type": "address"
        },
        {
          "indexed": true,
          "internalType": "address",
          "name": "spender",
          "type": "address"
        },
        {
          "indexed": false,
          "internalType": "uint256",
          "name": "value",
          "type": "uint256"
        }
      ],
      "name": "Approval",
      "type": "event"
    },
    {
      "anonymous": false,
      "inputs": [
        {
          "indexed": true,
          "internalType": "address",
          "name": "from",
          "type": "address"
        },
        {
          "indexed": true,
          "internalType": "address",
          "name": "to",
          "type": "address"
        },
        {
          "indexed": false,
          "internalType": "uint256",
          "name": "value",
          "type": "uint256"
        }
      ],
      "name": "Transfer",
      "type": "event"
    },
    {
      "inputs": [],
      "name": "_INTERFACE_ID_ERC20",
      "outputs": [
        {
          "internalType": "bytes4",
          "name": "",
          "type": "bytes4"
        }
      ],
      "stateMutability": "view",
      "type": "function"
    },
    {
      "inputs": [
        {
          "internalType": "bytes4",
          "name": "",
          "type": "bytes4"
        }
      ],
      "name": "_supportedInterfaces",
      "outputs": [
        {
          "internalType": "bool",
          "name": "",
          "type": "bool"
        }
      ],
      "stateMutability": "view",
      "type": "function"
    },
    {
      "inputs": [
        {
          "internalType": "address",
          "name": "owner",
          "type": "address"
        },
        {
          "internalType": "address",
          "name": "spender",
          "type": "address"
        }
      ],
      "name": "allowance",
      "outputs": [
        {
          "internalType": "uint256",
          "name": "",
          "type": "uint256"
        }
      ],
      "stateMutability": "view",
      "type": "function"
    },
    {
      "inputs": [
        {
          "internalType": "address",
          "name": "spender",
          "type": "address"
        },
        {
          "internalType": "uint256",
          "name": "amount",
          "type": "uint256"
        }
      ],
      "name": "approve",
      "outputs": [
        {
          "internalType": "bool",
          "name": "",
          "type": "bool"
        }
      ],
      "stateMutability": "nonpayable",
      "type": "function"
    },
    {
      "inputs": [
        {
          "internalType": "address",
          "name": "spender",
          "type": "address"
        },
        {
          "internalType": "uint256",
          "name": "amount",
          "type": "uint256"
        },
        {
          "internalType": "bytes",
          "name": "data",
          "type": "bytes"
        }
      ],
      "name": "approveAndCall",
      "outputs": [
        {
          "internalType": "bool",
          "name": "",
          "type": "bool"
        }
      ],
      "stateMutability": "nonpayable",
      "type": "function"
    },
    {
      "inputs": [
        {
          "internalType": "address",
          "name": "account",
          "type": "address"
        }
      ],
      "name": "balanceOf",
      "outputs": [
        {
          "internalType": "uint256",
          "name": "",
          "type": "uint256"
        }
      ],
      "stateMutability": "view",
      "type": "function"
    },
    {
      "inputs": [
        {
          "internalType": "uint256",
          "name": "amount",
          "type": "uint256"
        }
      ],
      "name": "burn",
      "outputs": [],
      "stateMutability": "nonpayable",
      "type": "function"
    },
    {
      "inputs": [
        {
          "internalType": "address",
          "name": "account",
          "type": "address"
        },
        {
          "internalType": "uint256",
          "name": "amount",
          "type": "uint256"
        }
      ],
      "name": "burnFrom",
      "outputs": [],
      "stateMutability": "nonpayable",
      "type": "function"
    },
    {
      "inputs": [],
      "name": "decimals",
      "outputs": [
        {
          "internalType": "uint8",
          "name": "",
          "type": "uint8"
        }
      ],
      "stateMutability": "view",
      "type": "function"
    },
    {
      "inputs": [
        {
          "internalType": "address",
          "name": "spender",
          "type": "address"
        },
        {
          "internalType": "uint256",
          "name": "subtractedValue",
          "type": "uint256"
        }
      ],
      "name": "decreaseAllowance",
      "outputs": [
        {
          "internalType": "bool",
          "name": "",
          "type": "bool"
        }
      ],
      "stateMutability": "nonpayable",
      "type": "function"
    },
    {
      "inputs": [
        {
          "internalType": "address",
          "name": "spender",
          "type": "address"
        },
        {
          "internalType": "uint256",
          "name": "addedValue",
          "type": "uint256"
        }
      ],
      "name": "increaseAllowance",
      "outputs": [
        {
          "internalType": "bool",
          "name": "",
          "type": "bool"
        }
      ],
      "stateMutability": "nonpayable",
      "type": "function"
    },
    {
      "inputs": [],
      "name": "name",
      "outputs": [
        {
          "internalType": "string",
          "name": "",
          "type": "string"
        }
      ],
      "stateMutability": "view",
      "type": "function"
    },
    {
      "inputs": [
        {
          "internalType": "address",
          "name": "recipient",
          "type": "address"
        },
        {
          "internalType": "uint256",
          "name": "amount",
          "type": "uint256"
        }
      ],
      "name": "safeTransfer",
      "outputs": [],
      "stateMutability": "nonpayable",
      "type": "function"
    },
    {
      "inputs": [
        {
          "internalType": "address",
          "name": "recipient",
          "type": "address"
        },
        {
          "internalType": "uint256",
          "name": "amount",
          "type": "uint256"
        },
        {
          "internalType": "bytes",
          "name": "data",
          "type": "bytes"
        }
      ],
      "name": "safeTransfer",
      "outputs": [],
      "stateMutability": "nonpayable",
      "type": "function"
    },
    {
      "inputs": [
        {
          "internalType": "address",
          "name": "sender",
          "type": "address"
        },
        {
          "internalType": "address",
          "name": "recipient",
          "type": "address"
        },
        {
          "internalType": "uint256",
          "name": "amount",
          "type": "uint256"
        }
      ],
      "name": "safeTransferFrom",
      "outputs": [],
      "stateMutability": "nonpayable",
      "type": "function"
    },
    {
      "inputs": [
        {
          "internalType": "address",
          "name": "sender",
          "type": "address"
        },
        {
          "internalType": "address",
          "name": "recipient",
          "type": "address"
        },
        {
          "internalType": "uint256",
          "name": "amount",
          "type": "uint256"
        },
        {
          "internalType": "bytes",
          "name": "data",
          "type": "bytes"
        }
      ],
      "name": "safeTransferFrom",
      "outputs": [],
      "stateMutability": "nonpayable",
      "type": "function"
    },
    {
      "inputs": [
        {
          "internalType": "bytes4",
          "name": "interfaceId",
          "type": "bytes4"
        }
      ],
      "name": "supportsInterface",
      "outputs": [
        {
          "internalType": "bool",
          "name": "",
          "type": "bool"
        }
      ],
      "stateMutability": "view",
      "type": "function"
    },
    {
      "inputs": [],
      "name": "symbol",
      "outputs": [
        {
          "internalType": "string",
          "name": "",
          "type": "string"
        }
      ],
      "stateMutability": "view",
      "type": "function"
    },
    {
      "inputs": [],
      "name": "totalSupply",
      "outputs": [
        {
          "internalType": "uint256",
          "name": "",
          "type": "uint256"
        }
      ],
      "stateMutability": "view",
      "type": "function"
    },
    {
      "inputs": [
        {
          "internalType": "address",
          "name": "to",
          "type": "address"
        },
        {
          "internalType": "uint256",
          "name": "amount",
          "type": "uint256"
        }
      ],
      "name": "transfer",
      "outputs": [
        {
          "internalType": "bool",
          "name": "",
          "type": "bool"
        }
      ],
      "stateMutability": "nonpayable",
      "type": "function"
    },
    {
      "inputs": [
        {
          "internalType": "address",
          "name": "from",
          "type": "address"
        },
        {
          "internalType": "address",
          "name": "to",
          "type": "address"
        },
        {
          "internalType": "uint256",
          "name": "amount",
          "type": "uint256"
        }
      ],
      "name": "transferFrom",
      "outputs": [
        {
          "internalType": "bool",
          "name": "",
          "type": "bool"
        }
      ],
      "stateMutability": "nonpayable",
      "type": "function"
    }
  ],
  "bytecode": "0x60806040523480156200001157600080fd5b506040516200174b3803806200174b83398101604081905262000034916200035c565b8351849084906200004d90600390602085019062000203565b5080516200006390600490602084019062000203565b506200007a9150636578737160e01b9050620000bb565b6200008c6301ffc9a760e01b620000bb565b81156200009f576200009f818362000140565b620000b1634fc3585960e01b620000bb565b5050505062000465565b6001600160e01b031980821614156200011b5760405162461bcd60e51b815260206004820152601c60248201527f4552433136353a20696e76616c696420696e746572666163652069640000000060448201526064015b60405180910390fd5b6001600160e01b0319166000908152600560205260409020805460ff19166001179055565b6001600160a01b038216620001985760405162461bcd60e51b815260206004820152601f60248201527f45524332303a206d696e7420746f20746865207a65726f206164647265737300604482015260640162000112565b8060026000828254620001ac9190620003ed565b90915550506001600160a01b038216600081815260208181526040808320805486019055518481527fddf252ad1be2c89b69c2b068fc378daa952ba7f163c4a11628f55a4df523b3ef910160405180910390a35050565b828054620002119062000412565b90600052602060002090601f01602090048101928262000235576000855562000280565b82601f106200025057805160ff191683800117855562000280565b8280016001018555821562000280579182015b828111156200028057825182559160200191906001019062000263565b506200028e92915062000292565b5090565b5b808211156200028e576000815560010162000293565b600082601f830112620002ba578081fd5b81516001600160401b0380821115620002d757620002d76200044f565b604051601f8301601f19908116603f011681019082821181831017156200030257620003026200044f565b816040528381526020925086838588010111156200031e578485fd5b8491505b8382101562000341578582018301518183018401529082019062000322565b838211156200035257848385830101525b9695505050505050565b6000806000806080858703121562000372578384fd5b84516001600160401b038082111562000389578586fd5b6200039788838901620002a9565b95506020870151915080821115620003ad578485fd5b50620003bc87828801620002a9565b60408701516060880151919550935090506001600160a01b0381168114620003e2578182fd5b939692955090935050565b600082198211156200040d57634e487b7160e01b81526011600452602481fd5b500190565b600181811c908216806200042757607f821691505b602082108114156200044957634e487b7160e01b600052602260045260246000fd5b50919050565b634e487b7160e01b600052604160045260246000fd5b6112d680620004756000396000f3fe608060405234801561001057600080fd5b50600436106101775760003560e01c806370a08231116100d8578063a9059cbb1161008c578063dd62ed3e11610066578063dd62ed3e1461031f578063eb79554914610358578063ef1944351461036b57600080fd5b8063a9059cbb146102e6578063b88d4fde146102f9578063cae9ca511461030c57600080fd5b80639321478c116100bd5780639321478c146102a457806395d89b41146102cb578063a457c2d7146102d357600080fd5b806370a082311461026857806379cc67901461029157600080fd5b8063313ce5671161012f578063423f6cef11610114578063423f6cef1461022d57806342842e0e1461024257806342966c681461025557600080fd5b8063313ce5671461020b578063395093511461021a57600080fd5b8063095ea7b311610160578063095ea7b3146101d357806318160ddd146101e657806323b872dd146101f857600080fd5b806301ffc9a71461017c57806306fdde03146101be575b600080fd5b6101a961018a36600461112b565b6001600160e01b03191660009081526005602052604090205460ff1690565b60405190151581526020015b60405180910390f35b6101c661038e565b6040516101b591906111ff565b6101a96101e13660046110ad565b610420565b6002545b6040519081526020016101b5565b6101a961020636600461100c565b610438565b604051601281526020016101b5565b6101a96102283660046110ad565b61045c565b61024061023b3660046110ad565b61049b565b005b61024061025036600461100c565b6104b9565b610240610263366004611163565b6104d9565b6101ea610276366004610fc0565b6001600160a01b031660009081526020819052604090205490565b61024061029f3660046110ad565b6104e6565b6102b2636578737160e01b81565b6040516001600160e01b031990911681526020016101b5565b6101c661056c565b6101a96102e13660046110ad565b61057b565b6101a96102f43660046110ad565b61060d565b610240610307366004611047565b61061b565b6101a961031a3660046110d6565b61069e565b6101ea61032d366004610fda565b6001600160a01b03918216600090815260016020908152604080832093909416825291909152205490565b6102406103663660046110d6565b6106bf565b6101a961037936600461112b565b60056020526000908152604090205460ff1681565b60606003805461039d90611262565b80601f01602080910402602001604051908101604052809291908181526020018280546103c990611262565b80156104165780601f106103eb57610100808354040283529160200191610416565b820191906000526020600020905b8154815290600101906020018083116103f957829003601f168201915b5050505050905090565b60003361042e81858561073b565b5060019392505050565b60003361044685828561085f565b6104518585856108eb565b506001949350505050565b3360008181526001602090815260408083206001600160a01b038716845290915281205490919061042e9082908690610496908790611212565b61073b565b6104b58282604051806020016040528060008152506106bf565b5050565b6104d48383836040518060200160405280600081525061061b565b505050565b6104e33382610a8f565b50565b60006104f2833361032d565b9050818110156105555760405162461bcd60e51b8152602060048201526024808201527f45524332303a206275726e20616d6f756e74206578636565647320616c6c6f77604482015263616e636560e01b60648201526084015b60405180910390fd5b610562833384840361073b565b6104d48383610a8f565b60606004805461039d90611262565b3360008181526001602090815260408083206001600160a01b0387168452909152812054909190838110156106005760405162461bcd60e51b815260206004820152602560248201527f45524332303a2064656372656173656420616c6c6f77616e63652062656c6f77604482015264207a65726f60d81b606482015260840161054c565b610451828686840361073b565b60003361042e8185856108eb565b610626848484610438565b5061063384848484610bc1565b6106985760405162461bcd60e51b815260206004820152603060248201527f45524332303a207472616e7366657220746f206e6f6e2045524332305265636560448201526f34bb32b91034b6b83632b6b2b73a32b960811b606482015260840161054c565b50505050565b60006106aa8484610420565b6106b357600080fd5b61042e33858585610c80565b6106c9838361060d565b506106d633848484610bc1565b6104d45760405162461bcd60e51b815260206004820152603060248201527f45524332303a207472616e7366657220746f206e6f6e2045524332305265636560448201526f34bb32b91034b6b83632b6b2b73a32b960811b606482015260840161054c565b6001600160a01b03831661079d5760405162461bcd60e51b8152602060048201526024808201527f45524332303a20617070726f76652066726f6d20746865207a65726f206164646044820152637265737360e01b606482015260840161054c565b6001600160a01b0382166107fe5760405162461bcd60e51b815260206004820152602260248201527f45524332303a20617070726f766520746f20746865207a65726f206164647265604482015261737360f01b606482015260840161054c565b6001600160a01b0383811660008181526001602090815260408083209487168084529482529182902085905590518481527f8c5be1e5ebec7d5bd14f71427d1e84f3dd0314c0f7b2291e5b200ac8c7c3b925910160405180910390a3505050565b6001600160a01b03838116600090815260016020908152604080832093861683529290522054600019811461069857818110156108de5760405162461bcd60e51b815260206004820152601d60248201527f45524332303a20696e73756666696369656e7420616c6c6f77616e6365000000604482015260640161054c565b610698848484840361073b565b6001600160a01b03831661094f5760405162461bcd60e51b815260206004820152602560248201527f45524332303a207472616e736665722066726f6d20746865207a65726f206164604482015264647265737360d81b606482015260840161054c565b6001600160a01b0382166109b15760405162461bcd60e51b815260206004820152602360248201527f45524332303a207472616e7366657220746f20746865207a65726f206164647260448201526265737360e81b606482015260840161054c565b6001600160a01b03831660009081526020819052604090205481811015610a295760405162461bcd60e51b815260206004820152602660248201527f45524332303a207472616e7366657220616d6f756e7420657863656564732062604482015265616c616e636560d01b606482015260840161054c565b6001600160a01b03848116600081815260208181526040808320878703905593871680835291849020805487019055925185815290927fddf252ad1be2c89b69c2b068fc378daa952ba7f163c4a11628f55a4df523b3ef910160405180910390a3610698565b6001600160a01b038216610aef5760405162461bcd60e51b815260206004820152602160248201527f45524332303a206275726e2066726f6d20746865207a65726f206164647265736044820152607360f81b606482015260840161054c565b6001600160a01b03821660009081526020819052604090205481811015610b635760405162461bcd60e51b815260206004820152602260248201527f45524332303a206275726e20616d6f756e7420657863656564732062616c616e604482015261636560f01b606482015260840161054c565b6001600160a01b0383166000818152602081815260408083208686039055600280548790039055518581529192917fddf252ad1be2c89b69c2b068fc378daa952ba7f163c4a11628f55a4df523b3ef910160405180910390a3505050565b60006001600160a01b0384163b610bda57506001610c78565b604051634fc3585960e01b81526000906001600160a01b03861690634fc3585990610c0f9033908a90899089906004016111c3565b602060405180830381600087803b158015610c2957600080fd5b505af1158015610c3d573d6000803e3d6000fd5b505050506040513d601f19601f82011682018060405250810190610c619190611147565b6001600160e01b031916634fc3585960e01b149150505b949350505050565b632139e50b60e11b610c928482610e3d565b610d045760405162461bcd60e51b815260206004820152603160248201527f617070726f7665416e6443616c6c3a207370656e64657220646f65736e27742060448201527f737570706f7274206f6e417070726f7665000000000000000000000000000000606482015260840161054c565b600080856001600160a01b03168388888888604051602401610d2994939291906111c3565b60408051601f198184030181529181526020820180516001600160e01b03166001600160e01b0319909416939093179092529051610d6791906111a7565b6000604051808303816000865af19150503d8060008114610da4576040519150601f19603f3d011682016040523d82523d6000602084013e610da9565b606091505b5091509150818190610dce5760405162461bcd60e51b815260040161054c91906111ff565b506020810151915081610e345760405162461bcd60e51b815260206004820152602860248201527f617070726f7665416e6443616c6c3a206661696c656420746f2063616c6c206f6044820152676e417070726f766560c01b606482015260840161054c565b50505050505050565b6000610e4883610e60565b8015610e595750610e598383610e94565b9392505050565b6000610e73826301ffc9a760e01b610e94565b8015610e8e5750610e8c826001600160e01b0319610e94565b155b92915050565b604080516001600160e01b03198316602480830191909152825180830390910181526044909101909152602080820180516001600160e01b03166301ffc9a760e01b178152825160009392849283928392918391908a617530fa92503d91506000519050828015610f06575060208210155b8015610f125750600081115b979650505050505050565b80356001600160a01b0381168114610f3457600080fd5b919050565b600082601f830112610f49578081fd5b813567ffffffffffffffff80821115610f6457610f6461129d565b604051601f8301601f19908116603f01168101908282118183101715610f8c57610f8c61129d565b81604052838152866020858801011115610fa4578485fd5b8360208701602083013792830160200193909352509392505050565b600060208284031215610fd1578081fd5b610e5982610f1d565b60008060408385031215610fec578081fd5b610ff583610f1d565b915061100360208401610f1d565b90509250929050565b600080600060608486031215611020578081fd5b61102984610f1d565b925061103760208501610f1d565b9150604084013590509250925092565b6000806000806080858703121561105c578081fd5b61106585610f1d565b935061107360208601610f1d565b925060408501359150606085013567ffffffffffffffff811115611095578182fd5b6110a187828801610f39565b91505092959194509250565b600080604083850312156110bf578182fd5b6110c883610f1d565b946020939093013593505050565b6000806000606084860312156110ea578283fd5b6110f384610f1d565b925060208401359150604084013567ffffffffffffffff811115611115578182fd5b61112186828701610f39565b9150509250925092565b60006020828403121561113c578081fd5b8135610e59816112b3565b600060208284031215611158578081fd5b8151610e59816112b3565b600060208284031215611174578081fd5b5035919050565b60008151808452611193816020860160208601611236565b601f01601f19169290920160200192915050565b600082516111b9818460208701611236565b9190910192915050565b60006001600160a01b038087168352808616602084015250836040830152608060608301526111f5608083018461117b565b9695505050505050565b602081526000610e59602083018461117b565b6000821982111561123157634e487b7160e01b81526011600452602481fd5b500190565b60005b83811015611251578181015183820152602001611239565b838111156106985750506000910152565b600181811c9082168061127657607f821691505b6020821081141561129757634e487b7160e01b600052602260045260246000fd5b50919050565b634e487b7160e01b600052604160045260246000fd5b6001600160e01b0319811681146104e357600080fdfea164736f6c6343000804000a",
  "linkReferences": {},
  "deployedLinkReferences": {}
}