{
  "_format": "hh-sol-artifact-1",
  "contractName": "ERC20D",
  "sourceName": "contracts/L1/tokens/ERC20D.sol",
  "abi": [
    {
      "inputs": [
        {
          "internalType": "string",
          "name": "_name",
          "type": "string"
        },
        {
          "internalType": "string",
          "name": "_symbol",
          "type": "string"
        },
        {
          "internalType": "uint256",
          "name": "initialSupply",
          "type": "uint256"
        },
        {
          "internalType": "address",
          "name": "_owner",
          "type": "address"
        }
      ],
      "stateMutability": "nonpayable",
      "type": "constructor"
    },
    {
      "anonymous": false,
      "inputs": [
        {
          "indexed": true,
          "internalType": "address",
          "name": "owner",
          "type": "address"
        },
        {
          "indexed": true,
          "internalType": "address",
          "name": "spender",
          "type": "address"
        },
        {
          "indexed": false,
          "internalType": "uint256",
          "name": "value",
          "type": "uint256"
        }
      ],
      "name": "Approval",
      "type": "event"
    },
    {
      "anonymous": false,
      "inputs": [
        {
          "indexed": true,
          "internalType": "bytes32",
          "name": "role",
          "type": "bytes32"
        },
        {
          "indexed": true,
          "internalType": "bytes32",
          "name": "previousAdminRole",
          "type": "bytes32"
        },
        {
          "indexed": true,
          "internalType": "bytes32",
          "name": "newAdminRole",
          "type": "bytes32"
        }
      ],
      "name": "RoleAdminChanged",
      "type": "event"
    },
    {
      "anonymous": false,
      "inputs": [
        {
          "indexed": true,
          "internalType": "bytes32",
          "name": "role",
          "type": "bytes32"
        },
        {
          "indexed": true,
          "internalType": "address",
          "name": "account",
          "type": "address"
        },
        {
          "indexed": true,
          "internalType": "address",
          "name": "sender",
          "type": "address"
        }
      ],
      "name": "RoleGranted",
      "type": "event"
    },
    {
      "anonymous": false,
      "inputs": [
        {
          "indexed": true,
          "internalType": "bytes32",
          "name": "role",
          "type": "bytes32"
        },
        {
          "indexed": true,
          "internalType": "address",
          "name": "account",
          "type": "address"
        },
        {
          "indexed": true,
          "internalType": "address",
          "name": "sender",
          "type": "address"
        }
      ],
      "name": "RoleRevoked",
      "type": "event"
    },
    {
      "anonymous": false,
      "inputs": [
        {
          "indexed": false,
          "internalType": "uint256",
          "name": "id",
          "type": "uint256"
        }
      ],
      "name": "Snapshot",
      "type": "event"
    },
    {
      "anonymous": false,
      "inputs": [
        {
          "indexed": true,
          "internalType": "address",
          "name": "from",
          "type": "address"
        },
        {
          "indexed": true,
          "internalType": "address",
          "name": "to",
          "type": "address"
        },
        {
          "indexed": false,
          "internalType": "uint256",
          "name": "value",
          "type": "uint256"
        }
      ],
      "name": "Transfer",
      "type": "event"
    },
    {
      "inputs": [],
      "name": "DEFAULT_ADMIN_ROLE",
      "outputs": [
        {
          "internalType": "bytes32",
          "name": "",
          "type": "bytes32"
        }
      ],
      "stateMutability": "view",
      "type": "function"
    },
    {
      "inputs": [],
      "name": "MINTER_ROLE",
      "outputs": [
        {
          "internalType": "bytes32",
          "name": "",
          "type": "bytes32"
        }
      ],
      "stateMutability": "view",
      "type": "function"
    },
    {
      "inputs": [],
      "name": "SNAPSHOT_ROLE",
      "outputs": [
        {
          "internalType": "bytes32",
          "name": "",
          "type": "bytes32"
        }
      ],
      "stateMutability": "view",
      "type": "function"
    },
    {
      "inputs": [],
      "name": "_INTERFACE_ID_ERC20",
      "outputs": [
        {
          "internalType": "bytes4",
          "name": "",
          "type": "bytes4"
        }
      ],
      "stateMutability": "view",
      "type": "function"
    },
    {
      "inputs": [
        {
          "internalType": "bytes4",
          "name": "",
          "type": "bytes4"
        }
      ],
      "name": "_supportedInterfaces",
      "outputs": [
        {
          "internalType": "bool",
          "name": "",
          "type": "bool"
        }
      ],
      "stateMutability": "view",
      "type": "function"
    },
    {
      "inputs": [
        {
          "internalType": "address",
          "name": "owner",
          "type": "address"
        },
        {
          "internalType": "address",
          "name": "spender",
          "type": "address"
        }
      ],
      "name": "allowance",
      "outputs": [
        {
          "internalType": "uint256",
          "name": "",
          "type": "uint256"
        }
      ],
      "stateMutability": "view",
      "type": "function"
    },
    {
      "inputs": [
        {
          "internalType": "address",
          "name": "spender",
          "type": "address"
        },
        {
          "internalType": "uint256",
          "name": "amount",
          "type": "uint256"
        }
      ],
      "name": "approve",
      "outputs": [
        {
          "internalType": "bool",
          "name": "",
          "type": "bool"
        }
      ],
      "stateMutability": "nonpayable",
      "type": "function"
    },
    {
      "inputs": [
        {
          "internalType": "address",
          "name": "spender",
          "type": "address"
        },
        {
          "internalType": "uint256",
          "name": "amount",
          "type": "uint256"
        },
        {
          "internalType": "bytes",
          "name": "data",
          "type": "bytes"
        }
      ],
      "name": "approveAndCall",
      "outputs": [
        {
          "internalType": "bool",
          "name": "",
          "type": "bool"
        }
      ],
      "stateMutability": "nonpayable",
      "type": "function"
    },
    {
      "inputs": [
        {
          "internalType": "address",
          "name": "account",
          "type": "address"
        }
      ],
      "name": "balanceOf",
      "outputs": [
        {
          "internalType": "uint256",
          "name": "",
          "type": "uint256"
        }
      ],
      "stateMutability": "view",
      "type": "function"
    },
    {
      "inputs": [
        {
          "internalType": "address",
          "name": "account",
          "type": "address"
        },
        {
          "internalType": "uint256",
          "name": "snapshotId",
          "type": "uint256"
        }
      ],
      "name": "balanceOfAt",
      "outputs": [
        {
          "internalType": "uint256",
          "name": "",
          "type": "uint256"
        }
      ],
      "stateMutability": "view",
      "type": "function"
    },
    {
      "inputs": [
        {
          "internalType": "uint256",
          "name": "amount",
          "type": "uint256"
        }
      ],
      "name": "burn",
      "outputs": [],
      "stateMutability": "nonpayable",
      "type": "function"
    },
    {
      "inputs": [
        {
          "internalType": "address",
          "name": "account",
          "type": "address"
        },
        {
          "internalType": "uint256",
          "name": "amount",
          "type": "uint256"
        }
      ],
      "name": "burnFrom",
      "outputs": [],
      "stateMutability": "nonpayable",
      "type": "function"
    },
    {
      "inputs": [],
      "name": "currentSnapshotId",
      "outputs": [
        {
          "internalType": "uint256",
          "name": "",
          "type": "uint256"
        }
      ],
      "stateMutability": "view",
      "type": "function"
    },
    {
      "inputs": [],
      "name": "decimals",
      "outputs": [
        {
          "internalType": "uint8",
          "name": "",
          "type": "uint8"
        }
      ],
      "stateMutability": "view",
      "type": "function"
    },
    {
      "inputs": [
        {
          "internalType": "address",
          "name": "spender",
          "type": "address"
        },
        {
          "internalType": "uint256",
          "name": "subtractedValue",
          "type": "uint256"
        }
      ],
      "name": "decreaseAllowance",
      "outputs": [
        {
          "internalType": "bool",
          "name": "",
          "type": "bool"
        }
      ],
      "stateMutability": "nonpayable",
      "type": "function"
    },
    {
      "inputs": [
        {
          "internalType": "bytes32",
          "name": "role",
          "type": "bytes32"
        }
      ],
      "name": "getRoleAdmin",
      "outputs": [
        {
          "internalType": "bytes32",
          "name": "",
          "type": "bytes32"
        }
      ],
      "stateMutability": "view",
      "type": "function"
    },
    {
      "inputs": [
        {
          "internalType": "bytes32",
          "name": "role",
          "type": "bytes32"
        },
        {
          "internalType": "address",
          "name": "account",
          "type": "address"
        }
      ],
      "name": "grantRole",
      "outputs": [],
      "stateMutability": "nonpayable",
      "type": "function"
    },
    {
      "inputs": [
        {
          "internalType": "bytes32",
          "name": "role",
          "type": "bytes32"
        },
        {
          "internalType": "address",
          "name": "account",
          "type": "address"
        }
      ],
      "name": "hasRole",
      "outputs": [
        {
          "internalType": "bool",
          "name": "",
          "type": "bool"
        }
      ],
      "stateMutability": "view",
      "type": "function"
    },
    {
      "inputs": [
        {
          "internalType": "address",
          "name": "spender",
          "type": "address"
        },
        {
          "internalType": "uint256",
          "name": "addedValue",
          "type": "uint256"
        }
      ],
      "name": "increaseAllowance",
      "outputs": [
        {
          "internalType": "bool",
          "name": "",
          "type": "bool"
        }
      ],
      "stateMutability": "nonpayable",
      "type": "function"
    },
    {
      "inputs": [
        {
          "internalType": "address",
          "name": "account",
          "type": "address"
        },
        {
          "internalType": "uint256",
          "name": "amount",
          "type": "uint256"
        }
      ],
      "name": "mint",
      "outputs": [
        {
          "internalType": "bool",
          "name": "",
          "type": "bool"
        }
      ],
      "stateMutability": "nonpayable",
      "type": "function"
    },
    {
      "inputs": [],
      "name": "name",
      "outputs": [
        {
          "internalType": "string",
          "name": "",
          "type": "string"
        }
      ],
      "stateMutability": "view",
      "type": "function"
    },
    {
      "inputs": [
        {
          "internalType": "bytes32",
          "name": "role",
          "type": "bytes32"
        },
        {
          "internalType": "address",
          "name": "account",
          "type": "address"
        }
      ],
      "name": "renounceRole",
      "outputs": [],
      "stateMutability": "nonpayable",
      "type": "function"
    },
    {
      "inputs": [
        {
          "internalType": "bytes32",
          "name": "role",
          "type": "bytes32"
        },
        {
          "internalType": "address",
          "name": "account",
          "type": "address"
        }
      ],
      "name": "revokeRole",
      "outputs": [],
      "stateMutability": "nonpayable",
      "type": "function"
    },
    {
      "inputs": [
        {
          "internalType": "address",
          "name": "recipient",
          "type": "address"
        },
        {
          "internalType": "uint256",
          "name": "amount",
          "type": "uint256"
        }
      ],
      "name": "safeTransfer",
      "outputs": [],
      "stateMutability": "nonpayable",
      "type": "function"
    },
    {
      "inputs": [
        {
          "internalType": "address",
          "name": "recipient",
          "type": "address"
        },
        {
          "internalType": "uint256",
          "name": "amount",
          "type": "uint256"
        },
        {
          "internalType": "bytes",
          "name": "data",
          "type": "bytes"
        }
      ],
      "name": "safeTransfer",
      "outputs": [],
      "stateMutability": "nonpayable",
      "type": "function"
    },
    {
      "inputs": [
        {
          "internalType": "address",
          "name": "sender",
          "type": "address"
        },
        {
          "internalType": "address",
          "name": "recipient",
          "type": "address"
        },
        {
          "internalType": "uint256",
          "name": "amount",
          "type": "uint256"
        }
      ],
      "name": "safeTransferFrom",
      "outputs": [],
      "stateMutability": "nonpayable",
      "type": "function"
    },
    {
      "inputs": [
        {
          "internalType": "address",
          "name": "sender",
          "type": "address"
        },
        {
          "internalType": "address",
          "name": "recipient",
          "type": "address"
        },
        {
          "internalType": "uint256",
          "name": "amount",
          "type": "uint256"
        },
        {
          "internalType": "bytes",
          "name": "data",
          "type": "bytes"
        }
      ],
      "name": "safeTransferFrom",
      "outputs": [],
      "stateMutability": "nonpayable",
      "type": "function"
    },
    {
      "inputs": [],
      "name": "snapshot",
      "outputs": [
        {
          "internalType": "uint256",
          "name": "",
          "type": "uint256"
        }
      ],
      "stateMutability": "nonpayable",
      "type": "function"
    },
    {
      "inputs": [
        {
          "internalType": "bytes4",
          "name": "interfaceId",
          "type": "bytes4"
        }
      ],
      "name": "supportsInterface",
      "outputs": [
        {
          "internalType": "bool",
          "name": "",
          "type": "bool"
        }
      ],
      "stateMutability": "view",
      "type": "function"
    },
    {
      "inputs": [],
      "name": "symbol",
      "outputs": [
        {
          "internalType": "string",
          "name": "",
          "type": "string"
        }
      ],
      "stateMutability": "view",
      "type": "function"
    },
    {
      "inputs": [],
      "name": "totalSupply",
      "outputs": [
        {
          "internalType": "uint256",
          "name": "",
          "type": "uint256"
        }
      ],
      "stateMutability": "view",
      "type": "function"
    },
    {
      "inputs": [
        {
          "internalType": "uint256",
          "name": "snapshotId",
          "type": "uint256"
        }
      ],
      "name": "totalSupplyAt",
      "outputs": [
        {
          "internalType": "uint256",
          "name": "",
          "type": "uint256"
        }
      ],
      "stateMutability": "view",
      "type": "function"
    },
    {
      "inputs": [
        {
          "internalType": "address",
          "name": "to",
          "type": "address"
        },
        {
          "internalType": "uint256",
          "name": "amount",
          "type": "uint256"
        }
      ],
      "name": "transfer",
      "outputs": [
        {
          "internalType": "bool",
          "name": "",
          "type": "bool"
        }
      ],
      "stateMutability": "nonpayable",
      "type": "function"
    },
    {
      "inputs": [
        {
          "internalType": "address",
          "name": "from",
          "type": "address"
        },
        {
          "internalType": "address",
          "name": "to",
          "type": "address"
        },
        {
          "internalType": "uint256",
          "name": "amount",
          "type": "uint256"
        }
      ],
      "name": "transferFrom",
      "outputs": [
        {
          "internalType": "bool",
          "name": "",
          "type": "bool"
        }
      ],
      "stateMutability": "nonpayable",
      "type": "function"
    }
  ],
  "bytecode": "0x60806040523480156200001157600080fd5b506040516200275d3803806200275d83398101604081905262000034916200060b565b8351849084906200004d906004906020850190620004b2565b50805162000063906005906020840190620004b2565b506200007a9150636578737160e01b905062000120565b6200008c6301ffc9a760e01b62000120565b81156200009f576200009f8183620001a5565b620000ac60008262000279565b620000d87f9f2df0fed2c77648de5860a4cc508cd0818c85b8b8a1ab4ceeef8d981c8956a68262000279565b620001047f5fdbd35e8da83ee755d5e62a539e5ed7f47126abede0b8b10f9ea43dc6eed07f8262000279565b62000116634fc3585960e01b62000120565b505050506200073a565b6001600160e01b03198082161415620001805760405162461bcd60e51b815260206004820152601c60248201527f4552433136353a20696e76616c696420696e746572666163652069640000000060448201526064015b60405180910390fd5b6001600160e01b0319166000908152600660205260409020805460ff19166001179055565b6001600160a01b038216620001fd5760405162461bcd60e51b815260206004820152601f60248201527f45524332303a206d696e7420746f20746865207a65726f206164647265737300604482015260640162000177565b6200020b6000838362000285565b80600360008282546200021f91906200069c565b90915550506001600160a01b0382166000818152600160209081526040808320805486019055518481527fddf252ad1be2c89b69c2b068fc378daa952ba7f163c4a11628f55a4df523b3ef910160405180910390a35b5050565b620002758282620002f6565b6200029d838383620002c160201b6200067a1760201c565b6001600160a01b038316620002c657620002b78262000396565b620002c1620003db565b505050565b6001600160a01b038216620002e057620002b78362000396565b620002eb8362000396565b620002c18262000396565b6000828152602081815260408083206001600160a01b038516845290915290205460ff1662000275576000828152602081815260408083206001600160a01b03851684529091529020805460ff19166001179055620003523390565b6001600160a01b0316816001600160a01b0316837f2f8788117e7eff1d82e926ec794901d17c78024a50270940304540a733656f0d60405160405180910390a45050565b620003d8620003b9826001600160a01b0316600090815260076020526040902090565b6001600160a01b038316600090815260016020526040902054620003ec565b50565b620003ea6008600354620003ec565b565b6000620003f86200043b565b905080620004068462000459565b1015620002c1578254600180820185556000858152602080822090930193909355938401805494850181558252902090910155565b600062000454600a620004ae60201b62000af01760201c565b905090565b80546000906200046b57506000919050565b815482906200047d90600190620006b7565b815481106200049c57634e487b7160e01b600052603260045260246000fd5b90600052602060002001549050919050565b5490565b828054620004c090620006d1565b90600052602060002090601f016020900481019282620004e457600085556200052f565b82601f10620004ff57805160ff19168380011785556200052f565b828001600101855582156200052f579182015b828111156200052f57825182559160200191906001019062000512565b506200053d92915062000541565b5090565b5b808211156200053d576000815560010162000542565b600082601f83011262000569578081fd5b81516001600160401b038082111562000586576200058662000724565b604051601f8301601f19908116603f01168101908282118183101715620005b157620005b162000724565b81604052838152602092508683858801011115620005cd578485fd5b8491505b83821015620005f05785820183015181830184015290820190620005d1565b838211156200060157848385830101525b9695505050505050565b6000806000806080858703121562000621578384fd5b84516001600160401b038082111562000638578586fd5b620006468883890162000558565b955060208701519150808211156200065c578485fd5b506200066b8782880162000558565b60408701516060880151919550935090506001600160a01b038116811462000691578182fd5b939692955090935050565b60008219821115620006b257620006b26200070e565b500190565b600082821015620006cc57620006cc6200070e565b500390565b600181811c90821680620006e657607f821691505b602082108114156200070857634e487b7160e01b600052602260045260246000fd5b50919050565b634e487b7160e01b600052601160045260246000fd5b634e487b7160e01b600052604160045260246000fd5b612013806200074a6000396000f3fe608060405234801561001057600080fd5b50600436106102265760003560e01c806379cc67901161012a578063a457c2d7116100bd578063d53913931161008c578063dd62ed3e11610071578063dd62ed3e146104e6578063eb7955491461051f578063ef1944351461053257600080fd5b8063d5391393146104ac578063d547741f146104d357600080fd5b8063a457c2d714610460578063a9059cbb14610473578063b88d4fde14610486578063cae9ca511461049957600080fd5b8063970875ce116100f9578063970875ce146104355780639711715a1461043d578063981b24d014610445578063a217fddf1461045857600080fd5b806379cc6790146103bc57806391d14854146103cf5780639321478c1461040657806395d89b411461042d57600080fd5b806336568abe116101bd57806342842e0e1161018c5780634ee2cd7e116101715780634ee2cd7e146103595780637028e2cd1461036c57806370a082311461039357600080fd5b806342842e0e1461033357806342966c681461034657600080fd5b806336568abe146102e757806339509351146102fa57806340c10f191461030d578063423f6cef1461032057600080fd5b806323b872dd116101f957806323b872dd1461028d578063248a9ca3146102a05780632f2ff15d146102c3578063313ce567146102d857600080fd5b806301ffc9a71461022b57806306fdde0314610253578063095ea7b31461026857806318160ddd1461027b575b600080fd5b61023e610239366004611d88565b610555565b60405190151581526020015b60405180910390f35b61025b610587565b60405161024a9190611ec5565b61023e610276366004611cd0565b610619565b6003545b60405190815260200161024a565b61023e61029b366004611c2f565b610631565b61027f6102ae366004611d4e565b60009081526020819052604090206001015490565b6102d66102d1366004611d66565b610655565b005b6040516012815260200161024a565b6102d66102f5366004611d66565b61067f565b61023e610308366004611cd0565b610710565b61023e61031b366004611cd0565b61074f565b6102d661032e366004611cd0565b610785565b6102d6610341366004611c2f565b61079f565b6102d6610354366004611d4e565b6107ba565b61027f610367366004611cd0565b6107c7565b61027f7f5fdbd35e8da83ee755d5e62a539e5ed7f47126abede0b8b10f9ea43dc6eed07f81565b61027f6103a1366004611be3565b6001600160a01b031660009081526001602052604090205490565b6102d66103ca366004611cd0565b610808565b61023e6103dd366004611d66565b6000918252602082815260408084206001600160a01b0393909316845291905290205460ff1690565b610414636578737160e01b81565b6040516001600160e01b0319909116815260200161024a565b61025b610889565b61027f610898565b61027f6108a8565b61027f610453366004611d4e565b6108e2565b61027f600081565b61023e61046e366004611cd0565b61090b565b61023e610481366004611cd0565b61099d565b6102d6610494366004611c6a565b6109ab565b61023e6104a7366004611cf9565b610a2e565b61027f7f9f2df0fed2c77648de5860a4cc508cd0818c85b8b8a1ab4ceeef8d981c8956a681565b6102d66104e1366004611d66565b610a4f565b61027f6104f4366004611bfd565b6001600160a01b03918216600090815260026020908152604080832093909416825291909152205490565b6102d661052d366004611cf9565b610a74565b61023e610540366004611d88565b60066020526000908152604090205460ff1681565b6001600160e01b0319811660009081526006602052604081205460ff1680610581575061058182610af4565b92915050565b60606004805461059690611f89565b80601f01602080910402602001604051908101604052809291908181526020018280546105c290611f89565b801561060f5780601f106105e45761010080835404028352916020019161060f565b820191906000526020600020905b8154815290600101906020018083116105f257829003601f168201915b5050505050905090565b600033610627818585610b29565b5060019392505050565b60003361063f858285610c4d565b61064a858585610cd9565b506001949350505050565b60008281526020819052604090206001015461067081610e8f565b61067a8383610e99565b505050565b6001600160a01b03811633146107025760405162461bcd60e51b815260206004820152602f60248201527f416363657373436f6e74726f6c3a2063616e206f6e6c792072656e6f756e636560448201527f20726f6c657320666f722073656c66000000000000000000000000000000000060648201526084015b60405180910390fd5b61070c8282610f37565b5050565b3360008181526002602090815260408083206001600160a01b0387168452909152812054909190610627908290869061074a908790611ed8565b610b29565b60007f9f2df0fed2c77648de5860a4cc508cd0818c85b8b8a1ab4ceeef8d981c8956a661077b81610e8f565b6106278484610fb6565b61070c828260405180602001604052806000815250610a74565b61067a838383604051806020016040528060008152506109ab565b6107c43382611083565b50565b60008060006107d685856111c3565b91509150816107fd576001600160a01b0385166000908152600160205260409020546107ff565b805b95945050505050565b600061081483336104f4565b9050818110156108725760405162461bcd60e51b8152602060048201526024808201527f45524332303a206275726e20616d6f756e74206578636565647320616c6c6f77604482015263616e636560e01b60648201526084016106f9565b61087f8333848403610b29565b61067a8383611083565b60606005805461059690611f89565b60006108a3600a5490565b905090565b60007f5fdbd35e8da83ee755d5e62a539e5ed7f47126abede0b8b10f9ea43dc6eed07f6108d481610e8f565b6108dc6111fb565b91505090565b60008060006108f084611255565b915091508161090157600354610903565b805b949350505050565b3360008181526002602090815260408083206001600160a01b0387168452909152812054909190838110156109905760405162461bcd60e51b815260206004820152602560248201527f45524332303a2064656372656173656420616c6c6f77616e63652062656c6f77604482015264207a65726f60d81b60648201526084016106f9565b61064a8286868403610b29565b600033610627818585610cd9565b6109b6848484610631565b506109c384848484611272565b610a285760405162461bcd60e51b815260206004820152603060248201527f45524332303a207472616e7366657220746f206e6f6e2045524332305265636560448201526f34bb32b91034b6b83632b6b2b73a32b960811b60648201526084016106f9565b50505050565b6000610a3a8484610619565b610a4357600080fd5b61062733858585611330565b600082815260208190526040902060010154610a6a81610e8f565b61067a8383610f37565b610a7e838361099d565b50610a8b33848484611272565b61067a5760405162461bcd60e51b815260206004820152603060248201527f45524332303a207472616e7366657220746f206e6f6e2045524332305265636560448201526f34bb32b91034b6b83632b6b2b73a32b960811b60648201526084016106f9565b5490565b60006001600160e01b03198216637965db0b60e01b148061058157506301ffc9a760e01b6001600160e01b0319831614610581565b6001600160a01b038316610b8b5760405162461bcd60e51b8152602060048201526024808201527f45524332303a20617070726f76652066726f6d20746865207a65726f206164646044820152637265737360e01b60648201526084016106f9565b6001600160a01b038216610bec5760405162461bcd60e51b815260206004820152602260248201527f45524332303a20617070726f766520746f20746865207a65726f206164647265604482015261737360f01b60648201526084016106f9565b6001600160a01b0383811660008181526002602090815260408083209487168084529482529182902085905590518481527f8c5be1e5ebec7d5bd14f71427d1e84f3dd0314c0f7b2291e5b200ac8c7c3b925910160405180910390a3505050565b6001600160a01b038381166000908152600260209081526040808320938616835292905220546000198114610a285781811015610ccc5760405162461bcd60e51b815260206004820152601d60248201527f45524332303a20696e73756666696369656e7420616c6c6f77616e636500000060448201526064016106f9565b610a288484848403610b29565b6001600160a01b038316610d3d5760405162461bcd60e51b815260206004820152602560248201527f45524332303a207472616e736665722066726f6d20746865207a65726f206164604482015264647265737360d81b60648201526084016106f9565b6001600160a01b038216610d9f5760405162461bcd60e51b815260206004820152602360248201527f45524332303a207472616e7366657220746f20746865207a65726f206164647260448201526265737360e81b60648201526084016106f9565b610daa8383836114ed565b6001600160a01b03831660009081526001602052604090205481811015610e225760405162461bcd60e51b815260206004820152602660248201527f45524332303a207472616e7366657220616d6f756e7420657863656564732062604482015265616c616e636560d01b60648201526084016106f9565b6001600160a01b0380851660008181526001602052604080822086860390559286168082529083902080548601905591517fddf252ad1be2c89b69c2b068fc378daa952ba7f163c4a11628f55a4df523b3ef90610e829086815260200190565b60405180910390a3610a28565b6107c48133611535565b6000828152602081815260408083206001600160a01b038516845290915290205460ff1661070c576000828152602081815260408083206001600160a01b03851684529091529020805460ff19166001179055610ef33390565b6001600160a01b0316816001600160a01b0316837f2f8788117e7eff1d82e926ec794901d17c78024a50270940304540a733656f0d60405160405180910390a45050565b6000828152602081815260408083206001600160a01b038516845290915290205460ff161561070c576000828152602081815260408083206001600160a01b0385168085529252808320805460ff1916905551339285917ff6391f5c32d9c69d2a47ea670b442974b53935d1edc7fd64eb21e047a839171b9190a45050565b6001600160a01b03821661100c5760405162461bcd60e51b815260206004820152601f60248201527f45524332303a206d696e7420746f20746865207a65726f20616464726573730060448201526064016106f9565b611018600083836114ed565b806003600082825461102a9190611ed8565b90915550506001600160a01b0382166000818152600160209081526040808320805486019055518481527fddf252ad1be2c89b69c2b068fc378daa952ba7f163c4a11628f55a4df523b3ef910160405180910390a35050565b6001600160a01b0382166110e35760405162461bcd60e51b815260206004820152602160248201527f45524332303a206275726e2066726f6d20746865207a65726f206164647265736044820152607360f81b60648201526084016106f9565b6110ef826000836114ed565b6001600160a01b038216600090815260016020526040902054818110156111635760405162461bcd60e51b815260206004820152602260248201527f45524332303a206275726e20616d6f756e7420657863656564732062616c616e604482015261636560f01b60648201526084016106f9565b6001600160a01b03831660008181526001602090815260408083208686039055600380548790039055518581529192917fddf252ad1be2c89b69c2b068fc378daa952ba7f163c4a11628f55a4df523b3ef910160405180910390a3505050565b6001600160a01b03821660009081526007602052604081208190819081906111ec9086906115a8565b909450925050505b9250929050565b600061120b600a80546001019055565b6000611215610898565b90507f8030e83b04d87bef53480e26263266d6ca66863aa8506aca6f2559d18aa1cb678160405161124891815260200190565b60405180910390a1919050565b6000806000806112668560086115a8565b90969095509350505050565b60006001600160a01b0384163b61128b57506001610903565b604051634fc3585960e01b81526000906001600160a01b03861690634fc35859906112c09033908a9089908990600401611e89565b602060405180830381600087803b1580156112da57600080fd5b505af11580156112ee573d6000803e3d6000fd5b505050506040513d601f19601f820116820180604052508101906113129190611da4565b6001600160e01b031916634fc3585960e01b14915050949350505050565b632139e50b60e11b61134284826116b1565b6113b45760405162461bcd60e51b815260206004820152603160248201527f617070726f7665416e6443616c6c3a207370656e64657220646f65736e27742060448201527f737570706f7274206f6e417070726f766500000000000000000000000000000060648201526084016106f9565b600080856001600160a01b031683888888886040516024016113d99493929190611e89565b60408051601f198184030181529181526020820180516001600160e01b03166001600160e01b03199094169390931790925290516114179190611dec565b6000604051808303816000865af19150503d8060008114611454576040519150601f19603f3d011682016040523d82523d6000602084013e611459565b606091505b509150915081819061147e5760405162461bcd60e51b81526004016106f99190611ec5565b5060208101519150816114e45760405162461bcd60e51b815260206004820152602860248201527f617070726f7665416e6443616c6c3a206661696c656420746f2063616c6c206f6044820152676e417070726f766560c01b60648201526084016106f9565b50505050505050565b6001600160a01b03831661150c57611504826116d4565b61067a611713565b6001600160a01b03821661152357611504836116d4565b61152c836116d4565b61067a826116d4565b6000828152602081815260408083206001600160a01b038516845290915290205460ff1661070c5761156681611722565b611571836020611734565b604051602001611582929190611e08565b60408051601f198184030181529082905262461bcd60e51b82526106f991600401611ec5565b600080600084116115fb5760405162461bcd60e51b815260206004820152601660248201527f4552433230536e617073686f743a20696420697320300000000000000000000060448201526064016106f9565b611603610898565b8411156116525760405162461bcd60e51b815260206004820152601d60248201527f4552433230536e617073686f743a206e6f6e6578697374656e7420696400000060448201526064016106f9565b600061165e8486611923565b84549091508114156116775760008092509250506111f4565b600184600101828154811061169c57634e487b7160e01b600052603260045260246000fd5b906000526020600020015492509250506111f4565b60006116bc836119ce565b80156116cd57506116cd8383611a01565b9392505050565b6107c46116f5826001600160a01b0316600090815260076020526040902090565b6001600160a01b038316600090815260016020526040902054611a8a565b6117206008600354611a8a565b565b60606105816001600160a01b03831660145b60606000611743836002611f10565b61174e906002611ed8565b67ffffffffffffffff81111561177457634e487b7160e01b600052604160045260246000fd5b6040519080825280601f01601f19166020018201604052801561179e576020820181803683370190505b509050600360fc1b816000815181106117c757634e487b7160e01b600052603260045260246000fd5b60200101906001600160f81b031916908160001a905350600f60fb1b8160018151811061180457634e487b7160e01b600052603260045260246000fd5b60200101906001600160f81b031916908160001a9053506000611828846002611f10565b611833906001611ed8565b90505b60018111156118d4577f303132333435363738396162636465660000000000000000000000000000000085600f166010811061188257634e487b7160e01b600052603260045260246000fd5b1a60f81b8282815181106118a657634e487b7160e01b600052603260045260246000fd5b60200101906001600160f81b031916908160001a90535060049490941c936118cd81611f72565b9050611836565b5083156116cd5760405162461bcd60e51b815260206004820181905260248201527f537472696e67733a20686578206c656e67746820696e73756666696369656e7460448201526064016106f9565b815460009061193457506000610581565b82546000905b8082101561198157600061194e8383611ad4565b6000878152602090209091508590820154111561196d5780915061197b565b611978816001611ed8565b92505b5061193a565b6000821180156119ad5750836119aa8661199c600186611f2f565b600091825260209091200190565b54145b156119c6576119bd600183611f2f565b92505050610581565b509050610581565b60006119e1826301ffc9a760e01b611a01565b801561058157506119fa826001600160e01b0319611a01565b1592915050565b604080516001600160e01b03198316602480830191909152825180830390910181526044909101909152602080820180516001600160e01b03166301ffc9a760e01b178152825160009392849283928392918391908a617530fa92503d91506000519050828015611a73575060208210155b8015611a7f5750600081115b979650505050505050565b6000611a94610898565b905080611aa084611aef565b101561067a578254600180820185556000858152602080822090930193909355938401805494850181558252902090910155565b6000611ae36002848418611ef0565b6116cd90848416611ed8565b8054600090611b0057506000919050565b81548290611b1090600190611f2f565b81548110611b2e57634e487b7160e01b600052603260045260246000fd5b90600052602060002001549050919050565b919050565b80356001600160a01b0381168114611b4057600080fd5b600082601f830112611b6c578081fd5b813567ffffffffffffffff80821115611b8757611b87611fda565b604051601f8301601f19908116603f01168101908282118183101715611baf57611baf611fda565b81604052838152866020858801011115611bc7578485fd5b8360208701602083013792830160200193909352509392505050565b600060208284031215611bf4578081fd5b6116cd82611b45565b60008060408385031215611c0f578081fd5b611c1883611b45565b9150611c2660208401611b45565b90509250929050565b600080600060608486031215611c43578081fd5b611c4c84611b45565b9250611c5a60208501611b45565b9150604084013590509250925092565b60008060008060808587031215611c7f578081fd5b611c8885611b45565b9350611c9660208601611b45565b925060408501359150606085013567ffffffffffffffff811115611cb8578182fd5b611cc487828801611b5c565b91505092959194509250565b60008060408385031215611ce2578182fd5b611ceb83611b45565b946020939093013593505050565b600080600060608486031215611d0d578283fd5b611d1684611b45565b925060208401359150604084013567ffffffffffffffff811115611d38578182fd5b611d4486828701611b5c565b9150509250925092565b600060208284031215611d5f578081fd5b5035919050565b60008060408385031215611d78578182fd5b82359150611c2660208401611b45565b600060208284031215611d99578081fd5b81356116cd81611ff0565b600060208284031215611db5578081fd5b81516116cd81611ff0565b60008151808452611dd8816020860160208601611f46565b601f01601f19169290920160200192915050565b60008251611dfe818460208701611f46565b9190910192915050565b7f416363657373436f6e74726f6c3a206163636f756e7420000000000000000000815260008351611e40816017850160208801611f46565b7f206973206d697373696e6720726f6c65200000000000000000000000000000006017918401918201528351611e7d816028840160208801611f46565b01602801949350505050565b60006001600160a01b03808716835280861660208401525083604083015260806060830152611ebb6080830184611dc0565b9695505050505050565b6020815260006116cd6020830184611dc0565b60008219821115611eeb57611eeb611fc4565b500190565b600082611f0b57634e487b7160e01b81526012600452602481fd5b500490565b6000816000190483118215151615611f2a57611f2a611fc4565b500290565b600082821015611f4157611f41611fc4565b500390565b60005b83811015611f61578181015183820152602001611f49565b83811115610a285750506000910152565b600081611f8157611f81611fc4565b506000190190565b600181811c90821680611f9d57607f821691505b60208210811415611fbe57634e487b7160e01b600052602260045260246000fd5b50919050565b634e487b7160e01b600052601160045260246000fd5b634e487b7160e01b600052604160045260246000fd5b6001600160e01b0319811681146107c457600080fdfea164736f6c6343000804000a",
  "linkReferences": {},
  "deployedLinkReferences": {}
}