{
  "_format": "hh-sol-artifact-1",
  "contractName": "L1CrossDomainMessengerFast",
  "sourceName": "contracts/L1/messaging/L1CrossDomainMessengerFast.sol",
  "abi": [
    {
      "inputs": [],
      "stateMutability": "nonpayable",
      "type": "constructor"
    },
    {
      "anonymous": false,
      "inputs": [
        {
          "indexed": true,
          "internalType": "bytes32",
          "name": "msgHash",
          "type": "bytes32"
        }
      ],
      "name": "FailedRelayedMessage",
      "type": "event"
    },
    {
      "anonymous": false,
      "inputs": [
        {
          "indexed": false,
          "internalType": "uint8",
          "name": "version",
          "type": "uint8"
        }
      ],
      "name": "Initialized",
      "type": "event"
    },
    {
      "anonymous": false,
      "inputs": [
        {
          "indexed": true,
          "internalType": "bytes32",
          "name": "_xDomainCalldataHash",
          "type": "bytes32"
        }
      ],
      "name": "MessageAllowed",
      "type": "event"
    },
    {
      "anonymous": false,
      "inputs": [
        {
          "indexed": true,
          "internalType": "bytes32",
          "name": "_xDomainCalldataHash",
          "type": "bytes32"
        }
      ],
      "name": "MessageBlocked",
      "type": "event"
    },
    {
      "anonymous": false,
      "inputs": [
        {
          "indexed": true,
          "internalType": "address",
          "name": "previousOwner",
          "type": "address"
        },
        {
          "indexed": true,
          "internalType": "address",
          "name": "newOwner",
          "type": "address"
        }
      ],
      "name": "OwnershipTransferred",
      "type": "event"
    },
    {
      "anonymous": false,
      "inputs": [
        {
          "indexed": false,
          "internalType": "address",
          "name": "account",
          "type": "address"
        }
      ],
      "name": "Paused",
      "type": "event"
    },
    {
      "anonymous": false,
      "inputs": [
        {
          "indexed": true,
          "internalType": "bytes32",
          "name": "msgHash",
          "type": "bytes32"
        }
      ],
      "name": "RelayedMessage",
      "type": "event"
    },
    {
      "anonymous": false,
      "inputs": [
        {
          "indexed": true,
          "internalType": "address",
          "name": "target",
          "type": "address"
        },
        {
          "indexed": false,
          "internalType": "address",
          "name": "sender",
          "type": "address"
        },
        {
          "indexed": false,
          "internalType": "bytes",
          "name": "message",
          "type": "bytes"
        },
        {
          "indexed": false,
          "internalType": "uint256",
          "name": "messageNonce",
          "type": "uint256"
        },
        {
          "indexed": false,
          "internalType": "uint256",
          "name": "gasLimit",
          "type": "uint256"
        }
      ],
      "name": "SentMessage",
      "type": "event"
    },
    {
      "anonymous": false,
      "inputs": [
        {
          "indexed": false,
          "internalType": "address",
          "name": "account",
          "type": "address"
        }
      ],
      "name": "Unpaused",
      "type": "event"
    },
    {
      "inputs": [
        {
          "internalType": "bytes32",
          "name": "_xDomainCalldataHash",
          "type": "bytes32"
        }
      ],
      "name": "allowMessage",
      "outputs": [],
      "stateMutability": "nonpayable",
      "type": "function"
    },
    {
      "inputs": [
        {
          "components": [
            {
              "internalType": "address",
              "name": "target",
              "type": "address"
            },
            {
              "internalType": "address",
              "name": "sender",
              "type": "address"
            },
            {
              "internalType": "bytes",
              "name": "message",
              "type": "bytes"
            },
            {
              "internalType": "uint256",
              "name": "messageNonce",
              "type": "uint256"
            },
            {
              "components": [
                {
                  "internalType": "bytes32",
                  "name": "stateRoot",
                  "type": "bytes32"
                },
                {
                  "components": [
                    {
                      "internalType": "uint256",
                      "name": "batchIndex",
                      "type": "uint256"
                    },
                    {
                      "internalType": "bytes32",
                      "name": "batchRoot",
                      "type": "bytes32"
                    },
                    {
                      "internalType": "uint256",
                      "name": "batchSize",
                      "type": "uint256"
                    },
                    {
                      "internalType": "uint256",
                      "name": "prevTotalElements",
                      "type": "uint256"
                    },
                    {
                      "internalType": "bytes",
                      "name": "extraData",
                      "type": "bytes"
                    }
                  ],
                  "internalType": "struct Lib_OVMCodec.ChainBatchHeader",
                  "name": "stateRootBatchHeader",
                  "type": "tuple"
                },
                {
                  "components": [
                    {
                      "internalType": "uint256",
                      "name": "index",
                      "type": "uint256"
                    },
                    {
                      "internalType": "bytes32[]",
                      "name": "siblings",
                      "type": "bytes32[]"
                    }
                  ],
                  "internalType": "struct Lib_OVMCodec.ChainInclusionProof",
                  "name": "stateRootProof",
                  "type": "tuple"
                },
                {
                  "internalType": "bytes",
                  "name": "stateTrieWitness",
                  "type": "bytes"
                },
                {
                  "internalType": "bytes",
                  "name": "storageTrieWitness",
                  "type": "bytes"
                }
              ],
              "internalType": "struct IL1CrossDomainMessenger.L2MessageInclusionProof",
              "name": "proof",
              "type": "tuple"
            }
          ],
          "internalType": "struct IL1CrossDomainMessenger.L2ToL1Message[]",
          "name": "_messages",
          "type": "tuple[]"
        }
      ],
      "name": "batchRelayMessages",
      "outputs": [],
      "stateMutability": "nonpayable",
      "type": "function"
    },
    {
      "inputs": [
        {
          "internalType": "bytes32",
          "name": "_xDomainCalldataHash",
          "type": "bytes32"
        }
      ],
      "name": "blockMessage",
      "outputs": [],
      "stateMutability": "nonpayable",
      "type": "function"
    },
    {
      "inputs": [
        {
          "internalType": "bytes32",
          "name": "",
          "type": "bytes32"
        }
      ],
      "name": "blockedMessages",
      "outputs": [
        {
          "internalType": "bool",
          "name": "",
          "type": "bool"
        }
      ],
      "stateMutability": "view",
      "type": "function"
    },
    {
      "inputs": [
        {
          "internalType": "bytes32",
          "name": "",
          "type": "bytes32"
        }
      ],
      "name": "failedMessages",
      "outputs": [
        {
          "internalType": "bool",
          "name": "",
          "type": "bool"
        }
      ],
      "stateMutability": "view",
      "type": "function"
    },
    {
      "inputs": [
        {
          "internalType": "address",
          "name": "_libAddressManager",
          "type": "address"
        }
      ],
      "name": "initialize",
      "outputs": [],
      "stateMutability": "nonpayable",
      "type": "function"
    },
    {
      "inputs": [],
      "name": "libAddressManager",
      "outputs": [
        {
          "internalType": "contract Lib_AddressManager",
          "name": "",
          "type": "address"
        }
      ],
      "stateMutability": "view",
      "type": "function"
    },
    {
      "inputs": [],
      "name": "owner",
      "outputs": [
        {
          "internalType": "address",
          "name": "",
          "type": "address"
        }
      ],
      "stateMutability": "view",
      "type": "function"
    },
    {
      "inputs": [],
      "name": "pause",
      "outputs": [],
      "stateMutability": "nonpayable",
      "type": "function"
    },
    {
      "inputs": [],
      "name": "paused",
      "outputs": [
        {
          "internalType": "bool",
          "name": "",
          "type": "bool"
        }
      ],
      "stateMutability": "view",
      "type": "function"
    },
    {
      "inputs": [
        {
          "internalType": "address",
          "name": "_target",
          "type": "address"
        },
        {
          "internalType": "address",
          "name": "_sender",
          "type": "address"
        },
        {
          "internalType": "bytes",
          "name": "_message",
          "type": "bytes"
        },
        {
          "internalType": "uint256",
          "name": "_messageNonce",
          "type": "uint256"
        },
        {
          "components": [
            {
              "internalType": "bytes32",
              "name": "stateRoot",
              "type": "bytes32"
            },
            {
              "components": [
                {
                  "internalType": "uint256",
                  "name": "batchIndex",
                  "type": "uint256"
                },
                {
                  "internalType": "bytes32",
                  "name": "batchRoot",
                  "type": "bytes32"
                },
                {
                  "internalType": "uint256",
                  "name": "batchSize",
                  "type": "uint256"
                },
                {
                  "internalType": "uint256",
                  "name": "prevTotalElements",
                  "type": "uint256"
                },
                {
                  "internalType": "bytes",
                  "name": "extraData",
                  "type": "bytes"
                }
              ],
              "internalType": "struct Lib_OVMCodec.ChainBatchHeader",
              "name": "stateRootBatchHeader",
              "type": "tuple"
            },
            {
              "components": [
                {
                  "internalType": "uint256",
                  "name": "index",
                  "type": "uint256"
                },
                {
                  "internalType": "bytes32[]",
                  "name": "siblings",
                  "type": "bytes32[]"
                }
              ],
              "internalType": "struct Lib_OVMCodec.ChainInclusionProof",
              "name": "stateRootProof",
              "type": "tuple"
            },
            {
              "internalType": "bytes",
              "name": "stateTrieWitness",
              "type": "bytes"
            },
            {
              "internalType": "bytes",
              "name": "storageTrieWitness",
              "type": "bytes"
            }
          ],
          "internalType": "struct IL1CrossDomainMessenger.L2MessageInclusionProof",
          "name": "_proof",
          "type": "tuple"
        }
      ],
      "name": "relayMessage",
      "outputs": [],
      "stateMutability": "nonpayable",
      "type": "function"
    },
    {
      "inputs": [
        {
          "internalType": "bytes32",
          "name": "",
          "type": "bytes32"
        }
      ],
      "name": "relayedMessages",
      "outputs": [
        {
          "internalType": "bool",
          "name": "",
          "type": "bool"
        }
      ],
      "stateMutability": "view",
      "type": "function"
    },
    {
      "inputs": [],
      "name": "renounceOwnership",
      "outputs": [],
      "stateMutability": "nonpayable",
      "type": "function"
    },
    {
      "inputs": [
        {
          "internalType": "address",
          "name": "_target",
          "type": "address"
        },
        {
          "internalType": "address",
          "name": "_sender",
          "type": "address"
        },
        {
          "internalType": "bytes",
          "name": "_message",
          "type": "bytes"
        },
        {
          "internalType": "uint256",
          "name": "_queueIndex",
          "type": "uint256"
        },
        {
          "internalType": "uint32",
          "name": "_oldGasLimit",
          "type": "uint32"
        },
        {
          "internalType": "uint32",
          "name": "_newGasLimit",
          "type": "uint32"
        }
      ],
      "name": "replayMessage",
      "outputs": [],
      "stateMutability": "nonpayable",
      "type": "function"
    },
    {
      "inputs": [
        {
          "internalType": "string",
          "name": "_name",
          "type": "string"
        }
      ],
      "name": "resolve",
      "outputs": [
        {
          "internalType": "address",
          "name": "",
          "type": "address"
        }
      ],
      "stateMutability": "view",
      "type": "function"
    },
    {
      "inputs": [
        {
          "internalType": "address",
          "name": "_target",
          "type": "address"
        },
        {
          "internalType": "bytes",
          "name": "_message",
          "type": "bytes"
        },
        {
          "internalType": "uint32",
          "name": "_gasLimit",
          "type": "uint32"
        }
      ],
      "name": "sendMessage",
      "outputs": [],
      "stateMutability": "nonpayable",
      "type": "function"
    },
    {
      "inputs": [
        {
          "internalType": "bytes32",
          "name": "",
          "type": "bytes32"
        }
      ],
      "name": "successfulMessages",
      "outputs": [
        {
          "internalType": "bool",
          "name": "",
          "type": "bool"
        }
      ],
      "stateMutability": "view",
      "type": "function"
    },
    {
      "inputs": [
        {
          "internalType": "address",
          "name": "newOwner",
          "type": "address"
        }
      ],
      "name": "transferOwnership",
      "outputs": [],
      "stateMutability": "nonpayable",
      "type": "function"
    },
    {
      "inputs": [],
      "name": "unpause",
      "outputs": [],
      "stateMutability": "nonpayable",
      "type": "function"
    },
    {
      "inputs": [],
      "name": "xDomainMessageSender",
      "outputs": [
        {
          "internalType": "address",
          "name": "",
          "type": "address"
        }
      ],
      "stateMutability": "view",
      "type": "function"
    }
  ],
  "bytecode": "0x608060405260cd80546001600160a01b03191661dead17905534801561002457600080fd5b50600080546001600160a01b03191690556136a5806100446000396000f3fe608060405234801561001057600080fd5b506004361061016c5760003560e01c8063715018a6116100cd578063b1b1b20911610081578063c6b94ab011610066578063c6b94ab0146102ff578063d7fd19dd14610322578063f2fde38b1461033557600080fd5b8063b1b1b209146102c9578063c4d66de8146102ec57600080fd5b80638456cb59116100b25780638456cb59146102805780638da5cb5b14610288578063a4e7f8bd146102a657600080fd5b8063715018a61461026557806381ada46c1461026d57600080fd5b80633f4ba83a116101245780635c975abb116101095780635c975abb146102445780636e296e451461024f5780636f1c8d471461025757600080fd5b80633f4ba83a14610229578063461a44781461023157600080fd5b806321d800ec1161015557806321d800ec14610199578063299ca478146101d15780633dbb202b1461021657600080fd5b80630ecf2eea1461017157806316e9cd9b14610186575b600080fd5b61018461017f366004612bbf565b610348565b005b610184610194366004612bd8565b610393565b6101bc6101a7366004612bbf565b60ca6020526000908152604090205460ff1681565b60405190151581526020015b60405180910390f35b6000546101f19073ffffffffffffffffffffffffffffffffffffffff1681565b60405173ffffffffffffffffffffffffffffffffffffffff90911681526020016101c8565b610184610224366004612dac565b610511565b61018461057f565b6101f161023f366004612e0c565b610591565b60655460ff166101bc565b6101f161063e565b610184610224366004612e5d565b6101846106c8565b61018461027b366004612bbf565b6106da565b610184610722565b60335473ffffffffffffffffffffffffffffffffffffffff166101f1565b6101bc6102b4366004612bbf565b60cc6020526000908152604090205460ff1681565b6101bc6102d7366004612bbf565b60cb6020526000908152604090205460ff1681565b6101846102fa366004612ee9565b610732565b6101bc61030d366004612bbf565b60c96020526000908152604090205460ff1681565b6101846103303660046130e9565b610a0a565b610184610343366004612ee9565b610e95565b610350610f32565b600081815260c96020526040808220805460ff191660011790555182917ff52508d5339edf0d7e5060a416df98db067af561bdc60872d29c0439eaa13a0291a250565b6103d16040518060400160405280600e81526020017f4d65737361676552656c61796572000000000000000000000000000000000000815250610591565b73ffffffffffffffffffffffffffffffffffffffff163373ffffffffffffffffffffffffffffffffffffffff161461049c5760405162461bcd60e51b815260206004820152604d60248201527f4c3143726f7373446f6d61696e4d657373656e676572466173743a2046756e6360448201527f74696f6e2063616e206f6e6c792062652063616c6c656420627920746865204d60648201527f65737361676552656c6179657200000000000000000000000000000000000000608482015260a4015b60405180910390fd5b60005b8181101561050c5760008383838181106104bb576104bb61317c565b90506020028101906104cd91906131ab565b6104d6906131e9565b90506104f981600001518260200151836040015184606001518560800151610a0a565b5080610504816132a9565b91505061049f565b505050565b60405162461bcd60e51b815260206004820152602660248201527f53656e64696e67207669612074686973206d657373656e67657220697320646960448201527f7361626c656400000000000000000000000000000000000000000000000000006064820152608401610493565b610587610f32565b61058f610f99565b565b600080546040517fbf40fac100000000000000000000000000000000000000000000000000000000815273ffffffffffffffffffffffffffffffffffffffff9091169063bf40fac1906105e890859060040161333e565b60206040518083038186803b15801561060057600080fd5b505afa158015610614573d6000803e3d6000fd5b505050506040513d601f19601f820116820180604052508101906106389190613351565b92915050565b60cd5460009073ffffffffffffffffffffffffffffffffffffffff1661dead14156106ab5760405162461bcd60e51b815260206004820152601f60248201527f78446f6d61696e4d65737361676553656e646572206973206e6f7420736574006044820152606401610493565b5060cd5473ffffffffffffffffffffffffffffffffffffffff1690565b6106d0610f32565b61058f6000610ff8565b6106e2610f32565b600081815260c96020526040808220805460ff191690555182917f52c8a2680a9f4cc0ad0bf88f32096eadbebf0646ea611d93a0ce6a29a024040591a250565b61072a610f32565b61058f61106f565b6000547501000000000000000000000000000000000000000000900460ff161580801561077d575060005460017401000000000000000000000000000000000000000090910460ff16105b806107af5750303b1580156107af575060005474010000000000000000000000000000000000000000900460ff166001145b6108215760405162461bcd60e51b815260206004820152602e60248201527f496e697469616c697a61626c653a20636f6e747261637420697320616c72656160448201527f647920696e697469616c697a65640000000000000000000000000000000000006064820152608401610493565b600080547fffffffffffffffffffffff00ffffffffffffffffffffffffffffffffffffffff167401000000000000000000000000000000000000000017905580156108a757600080547fffffffffffffffffffff00ffffffffffffffffffffffffffffffffffffffffff1675010000000000000000000000000000000000000000001790555b60005473ffffffffffffffffffffffffffffffffffffffff16156109335760405162461bcd60e51b815260206004820152602a60248201527f4c3143726f7373446f6d61696e4d657373656e67657220616c7265616479206960448201527f6e7469616c697a65642e000000000000000000000000000000000000000000006064820152608401610493565b6000805473ffffffffffffffffffffffffffffffffffffffff84167fffffffffffffffffffffffff00000000000000000000000000000000000000009182161790915560cd805490911661dead17905561098b6110ac565b61099361113d565b61099b6111d7565b6109a3611274565b8015610a0657600080547fffffffffffffffffffff00ffffffffffffffffffffffffffffffffffffffffff169055604051600181527f7f26b83ff96e1f2b6a682f133852f6798a09c465da95921460cefb38474024989060200160405180910390a15b5050565b60026097541415610a5d5760405162461bcd60e51b815260206004820152601f60248201527f5265656e7472616e637947756172643a207265656e7472616e742063616c6c006044820152606401610493565b6002609755610a6a61130c565b6000610a788686868661135f565b9050610a8481836113da565b1515600114610afb5760405162461bcd60e51b815260206004820152602760248201527f50726f7669646564206d65737361676520636f756c64206e6f7420626520766560448201527f7269666965642e000000000000000000000000000000000000000000000000006064820152608401610493565b8051602080830191909120600081815260cb90925260409091205460ff1615610b8c5760405162461bcd60e51b815260206004820152602b60248201527f50726f7669646564206d6573736167652068617320616c72656164792062656560448201527f6e2072656365697665642e0000000000000000000000000000000000000000006064820152608401610493565b600081815260c9602052604090205460ff1615610c115760405162461bcd60e51b815260206004820152602260248201527f50726f7669646564206d65737361676520686173206265656e20626c6f636b6560448201527f642e0000000000000000000000000000000000000000000000000000000000006064820152608401610493565b610c4f6040518060400160405280601981526020017f43616e6f6e6963616c5472616e73616374696f6e436861696e00000000000000815250610591565b73ffffffffffffffffffffffffffffffffffffffff168773ffffffffffffffffffffffffffffffffffffffff161415610cf05760405162461bcd60e51b815260206004820152603360248201527f43616e6e6f742073656e64204c322d3e4c31206d6573736167657320746f204c60448201527f312073797374656d20636f6e7472616374732e000000000000000000000000006064820152608401610493565b60cd80547fffffffffffffffffffffffff00000000000000000000000000000000000000001673ffffffffffffffffffffffffffffffffffffffff88811691909117909155604051600091891690610d4990889061336e565b6000604051808303816000865af19150503d8060008114610d86576040519150601f19603f3d011682016040523d82523d6000602084013e610d8b565b606091505b505060cd80547fffffffffffffffffffffffff00000000000000000000000000000000000000001661dead179055905080151560011415610e0b57600082815260cb6020526040808220805460ff191660011790555183917f4641df4a962071e12719d8c8c8e5ac7fc4d97b927346a3d7a335b1f7517e133c91a2610e3e565b600082815260cc60205260405183917f99d0e048484baa1b1540b1367cb128acd7ab2946d1ed91ec10e3c85e4bf51b8f91a25b6000833343604051602001610e5593929190613380565b60408051601f198184030181529181528151602092830120600090815260ca9092529020805460ff19166001908117909155609755505050505050505050565b610e9d610f32565b73ffffffffffffffffffffffffffffffffffffffff8116610f265760405162461bcd60e51b815260206004820152602660248201527f4f776e61626c653a206e6577206f776e657220697320746865207a65726f206160448201527f64647265737300000000000000000000000000000000000000000000000000006064820152608401610493565b610f2f81610ff8565b50565b60335473ffffffffffffffffffffffffffffffffffffffff16331461058f5760405162461bcd60e51b815260206004820181905260248201527f4f776e61626c653a2063616c6c6572206973206e6f7420746865206f776e65726044820152606401610493565b610fa16113fd565b6065805460ff191690557f5db9ee0a495bf2e6ff9c91a7834c1ba4fdd244a5e8aa4e537bd38aeae4b073aa335b60405173ffffffffffffffffffffffffffffffffffffffff909116815260200160405180910390a1565b6033805473ffffffffffffffffffffffffffffffffffffffff8381167fffffffffffffffffffffffff0000000000000000000000000000000000000000831681179093556040519116919082907f8be0079c531659141344cd1fd0a4f28419497f9722a3daafe3b4186f6b6457e090600090a35050565b61107761130c565b6065805460ff191660011790557f62e78cea01bee320cd4e420270b5ea74000d11b0c9f74754ebdbfc544b05a258610fce3390565b6000547501000000000000000000000000000000000000000000900460ff1661058f5760405162461bcd60e51b815260206004820152602b60248201527f496e697469616c697a61626c653a20636f6e7472616374206973206e6f74206960448201527f6e697469616c697a696e670000000000000000000000000000000000000000006064820152608401610493565b6000547501000000000000000000000000000000000000000000900460ff166111ce5760405162461bcd60e51b815260206004820152602b60248201527f496e697469616c697a61626c653a20636f6e7472616374206973206e6f74206960448201527f6e697469616c697a696e670000000000000000000000000000000000000000006064820152608401610493565b61058f33610ff8565b6000547501000000000000000000000000000000000000000000900460ff166112685760405162461bcd60e51b815260206004820152602b60248201527f496e697469616c697a61626c653a20636f6e7472616374206973206e6f74206960448201527f6e697469616c697a696e670000000000000000000000000000000000000000006064820152608401610493565b6065805460ff19169055565b6000547501000000000000000000000000000000000000000000900460ff166113055760405162461bcd60e51b815260206004820152602b60248201527f496e697469616c697a61626c653a20636f6e7472616374206973206e6f74206960448201527f6e697469616c697a696e670000000000000000000000000000000000000000006064820152608401610493565b6001609755565b60655460ff161561058f5760405162461bcd60e51b815260206004820152601060248201527f5061757361626c653a20706175736564000000000000000000000000000000006044820152606401610493565b60608484848460405160240161137894939291906133d2565b60408051601f198184030181529190526020810180517bffffffffffffffffffffffffffffffffffffffffffffffffffffffff167fcbd4ece9000000000000000000000000000000000000000000000000000000001790529050949350505050565b60006113e58261144f565b80156113f657506113f68383611543565b9392505050565b60655460ff1661058f5760405162461bcd60e51b815260206004820152601460248201527f5061757361626c653a206e6f74207061757365640000000000000000000000006044820152606401610493565b6000806114906040518060400160405280601481526020017f5374617465436f6d6d69746d656e74436861696e000000000000000000000000815250610591565b8351602085015160408087015190517f4d69ee5700000000000000000000000000000000000000000000000000000000815293945073ffffffffffffffffffffffffffffffffffffffff851693634d69ee57936114f3939092909160040161341c565b60206040518083038186803b15801561150b57600080fd5b505afa15801561151f573d6000803e3d6000fd5b505050506040513d601f19601f820116820180604052508101906113f691906134c7565b6000808373420000000000000000000000000000000000000760405160200161156d9291906134e9565b60408051601f1981840301815282825280516020918201209083015260009082015260600160408051601f198184030181529082905280516020918201207f420000000000000000000000000000000000000000000000000000000000000091830191909152915060009081906115fd9060340160408051601f1981840301815291905260608701518751611727565b90925090506001821515146116a05760405162461bcd60e51b815260206004820152604d60248201527f4d6573736167652070617373696e67207072656465706c6f7920686173206e6f60448201527f74206265656e20696e697469616c697a6564206f7220696e76616c696420707260648201527f6f6f662070726f76696465642e00000000000000000000000000000000000000608482015260a401610493565b60006116ab82611750565b905061171c846040516020016116c391815260200190565b60408051601f19818403018152908290527f010000000000000000000000000000000000000000000000000000000000000060208301529060210160405160208183030381529060405288608001518460400151611814565b979650505050505050565b60006060600061173686611838565b905061174381868661186a565b9250925050935093915050565b60408051608081018252600080825260208201819052918101829052606081018290529061177d83611945565b905060405180608001604052806117ad836000815181106117a0576117a061317c565b6020026020010151611978565b81526020016117c8836001815181106117a0576117a061317c565b81526020016117f0836002815181106117e3576117e361317c565b602002602001015161197f565b815260200161180b836003815181106117e3576117e361317c565b90529392505050565b60008061182086611838565b905061182e81868686611a81565b9695505050505050565b6060818051906020012060405160200161185491815260200190565b6040516020818303038152906040529050919050565b60006060600061187985611ab7565b9050600080600061188b848a89611bb2565b8151929550909350915015808061189f5750815b6118eb5760405162461bcd60e51b815260206004820152601a60248201527f50726f76696465642070726f6f6620697320696e76616c69642e0000000000006044820152606401610493565b6000816119075760405180602001604052806000815250611933565b61193386611916600188613533565b815181106119265761192661317c565b602002602001015161204d565b919b919a509098505050505050505050565b60408051808201825260008082526020918201528151808301909252825182528083019082015260609061063890612077565b6000610638825b60006021826000015111156119d65760405162461bcd60e51b815260206004820152601a60248201527f496e76616c696420524c5020627974657333322076616c75652e0000000000006044820152606401610493565b60008060006119e485612276565b9194509250905060008160018111156119ff576119ff61354a565b14611a4c5760405162461bcd60e51b815260206004820152601a60248201527f496e76616c696420524c5020627974657333322076616c75652e0000000000006044820152606401610493565b6000838660200151611a5e9190613579565b8051909150602084101561182e5760208490036101000a90049695505050505050565b6000806000611a9187868661186a565b9150915081801561171c575080516020808301919091208751918801919091201461171c565b60606000611ac483611945565b90506000815167ffffffffffffffff811115611ae257611ae2612c6f565b604051908082528060200260200182016040528015611b2757816020015b6040805180820190915260608082526020820152815260200190600190039081611b005790505b50905060005b8251811015611baa576000611b5a848381518110611b4d57611b4d61317c565b60200260200101516125c7565b90506040518060400160405280828152602001611b7683611945565b815250838381518110611b8b57611b8b61317c565b6020026020010181905250508080611ba2906132a9565b915050611b2d565b509392505050565b60006060818080611bc287612657565b90506000869050600080611be9604051806040016040528060608152602001606081525090565b60005b8c51811015612009578c8181518110611c0757611c0761317c565b602002602001015191508284611c1d9190613579565b9350611c2a600188613579565b965083611c8e57815180516020909101208514611c895760405162461bcd60e51b815260206004820152601160248201527f496e76616c696420726f6f7420686173680000000000000000000000000000006044820152606401610493565b611d4b565b815151602011611cf057815180516020909101208514611c895760405162461bcd60e51b815260206004820152601b60248201527f496e76616c6964206c6172676520696e7465726e616c206861736800000000006044820152606401610493565b84611cfe83600001516127da565b14611d4b5760405162461bcd60e51b815260206004820152601a60248201527f496e76616c696420696e7465726e616c206e6f646520686173680000000000006044820152606401610493565b611d5760106001613579565b8260200151511415611dd0578551841415611d7157612009565b6000868581518110611d8557611d8561317c565b602001015160f81c60f81b60f81c9050600083602001518260ff1681518110611db057611db061317c565b60200260200101519050611dc381612802565b9650600194505050611ff7565b60028260200151511415611faf576000611de983612838565b9050600081600081518110611e0057611e0061317c565b016020015160f81c90506000611e176002836135c0565b611e229060026135e2565b90506000611e33848360ff1661285c565b90506000611e418b8a61285c565b90506000611e4f8383612892565b905060ff851660021480611e66575060ff85166003145b15611ebc57808351148015611e7b5750808251145b15611e8d57611e8a818b613579565b99505b507f80000000000000000000000000000000000000000000000000000000000000009950612009945050505050565b60ff85161580611ecf575060ff85166001145b15611f415782518114611f0b57507f80000000000000000000000000000000000000000000000000000000000000009950612009945050505050565b611f328860200151600181518110611f2557611f2561317c565b6020026020010151612802565b9a509750611ff7945050505050565b60405162461bcd60e51b815260206004820152602660248201527f52656365697665642061206e6f6465207769746820616e20756e6b6e6f776e2060448201527f70726566697800000000000000000000000000000000000000000000000000006064820152608401610493565b60405162461bcd60e51b815260206004820152601d60248201527f526563656976656420616e20756e706172736561626c65206e6f64652e0000006044820152606401610493565b80612001816132a9565b915050611bec565b507f8000000000000000000000000000000000000000000000000000000000000000841486612038878661285c565b909e909d50909b509950505050505050505050565b602081015180516060916106389161206790600190613533565b81518110611b4d57611b4d61317c565b606060008061208584612276565b919350909150600190508160018111156120a1576120a161354a565b146120ee5760405162461bcd60e51b815260206004820152601760248201527f496e76616c696420524c50206c6973742076616c75652e0000000000000000006044820152606401610493565b6040805160208082526104208201909252600091816020015b60408051808201909152600080825260208201528152602001906001900390816121075790505090506000835b865181101561226b57602082106121b35760405162461bcd60e51b815260206004820152602a60248201527f50726f766964656420524c50206c6973742065786365656473206d6178206c6960448201527f7374206c656e6774682e000000000000000000000000000000000000000000006064820152608401610493565b6000806121f06040518060400160405280858c600001516121d49190613533565b8152602001858c602001516121e99190613579565b9052612276565b50915091506040518060400160405280838361220c9190613579565b8152602001848b602001516122219190613579565b8152508585815181106122365761223661317c565b602090810291909101015261224c600185613579565b93506122588183613579565b6122629084613579565b92505050612134565b508152949350505050565b6000806000808460000151116122ce5760405162461bcd60e51b815260206004820152601860248201527f524c50206974656d2063616e6e6f74206265206e756c6c2e00000000000000006044820152606401610493565b6020840151805160001a607f81116122f35760006001600094509450945050506125c0565b60b7811161236f576000612308608083613533565b90508087600001511161235d5760405162461bcd60e51b815260206004820152601960248201527f496e76616c696420524c502073686f727420737472696e672e000000000000006044820152606401610493565b600195509350600092506125c0915050565b60bf811161245e57600061238460b783613533565b9050808760000151116123d95760405162461bcd60e51b815260206004820152601f60248201527f496e76616c696420524c50206c6f6e6720737472696e67206c656e6774682e006044820152606401610493565b600183015160208290036101000a90046123f38183613579565b8851116124425760405162461bcd60e51b815260206004820152601860248201527f496e76616c696420524c50206c6f6e6720737472696e672e00000000000000006044820152606401610493565b61244d826001613579565b96509450600093506125c092505050565b60f781116124d957600061247360c083613533565b9050808760000151116124c85760405162461bcd60e51b815260206004820152601760248201527f496e76616c696420524c502073686f7274206c6973742e0000000000000000006044820152606401610493565b6001955093508492506125c0915050565b60006124e660f783613533565b90508087600001511161253b5760405162461bcd60e51b815260206004820152601d60248201527f496e76616c696420524c50206c6f6e67206c697374206c656e6774682e0000006044820152606401610493565b600183015160208290036101000a90046125558183613579565b8851116125a45760405162461bcd60e51b815260206004820152601660248201527f496e76616c696420524c50206c6f6e67206c6973742e000000000000000000006044820152606401610493565b6125af826001613579565b96509450600193506125c092505050565b9193909250565b606060008060006125d785612276565b9194509250905060008160018111156125f2576125f261354a565b1461263f5760405162461bcd60e51b815260206004820152601860248201527f496e76616c696420524c502062797465732076616c75652e00000000000000006044820152606401610493565b61264e8560200151848461293e565b95945050505050565b60606000825160026126699190613605565b67ffffffffffffffff81111561268157612681612c6f565b6040519080825280601f01601f1916602001820160405280156126ab576020820181803683370190505b50905060005b83518110156127d35760048482815181106126ce576126ce61317c565b01602001517fff0000000000000000000000000000000000000000000000000000000000000016901c82612703836002613605565b815181106127135761271361317c565b60200101907effffffffffffffffffffffffffffffffffffffffffffffffffffffffffffff1916908160001a90535060108482815181106127565761275661317c565b0160200151612768919060f81c6135c0565b60f81b82612777836002613605565b612782906001613579565b815181106127925761279261317c565b60200101907effffffffffffffffffffffffffffffffffffffffffffffffffffffffffffff1916908160001a905350806127cb816132a9565b9150506126b1565b5092915050565b60006020825110156127ee57506020015190565b818060200190518101906106389190613642565b600060606020836000015110156128235761281c83612a1d565b905061282f565b61282c836125c7565b90505b6113f6816127da565b60606106386128578360200151600081518110611b4d57611b4d61317c565b612657565b60608251821061287b5750604080516020810190915260008152610638565b6113f6838384865161288d9190613533565b612a28565b6000805b8084511180156128a65750808351115b801561292757508281815181106128bf576128bf61317c565b602001015160f81c60f81b7effffffffffffffffffffffffffffffffffffffffffffffffffffffffffffff19168482815181106128fe576128fe61317c565b01602001517fff0000000000000000000000000000000000000000000000000000000000000016145b156113f65780612936816132a9565b915050612896565b606060008267ffffffffffffffff81111561295b5761295b612c6f565b6040519080825280601f01601f191660200182016040528015612985576020820181803683370190505b5090508051600014156129995790506113f6565b60006129a58587613579565b90506020820160005b6129b960208761365b565b8110156129f057825182526129cf602084613579565b92506129dc602083613579565b9150806129e8816132a9565b9150506129ae565b5060006001602087066020036101000a039050808251168119845116178252839450505050509392505050565b606061063882612ba9565b606081612a3681601f613579565b1015612a845760405162461bcd60e51b815260206004820152600e60248201527f736c6963655f6f766572666c6f770000000000000000000000000000000000006044820152606401610493565b82612a8f8382613579565b1015612add5760405162461bcd60e51b815260206004820152600e60248201527f736c6963655f6f766572666c6f770000000000000000000000000000000000006044820152606401610493565b612ae78284613579565b84511015612b375760405162461bcd60e51b815260206004820152601160248201527f736c6963655f6f75744f66426f756e64730000000000000000000000000000006044820152606401610493565b606082158015612b565760405191506000825260208201604052612ba0565b6040519150601f8416801560200281840101858101878315602002848b0101015b81831015612b8f578051835260209283019201612b77565b5050858452601f01601f1916604052505b50949350505050565b606061063882602001516000846000015161293e565b600060208284031215612bd157600080fd5b5035919050565b60008060208385031215612beb57600080fd5b823567ffffffffffffffff80821115612c0357600080fd5b818501915085601f830112612c1757600080fd5b813581811115612c2657600080fd5b8660208260051b8501011115612c3b57600080fd5b60209290920196919550909350505050565b73ffffffffffffffffffffffffffffffffffffffff81168114610f2f57600080fd5b7f4e487b7100000000000000000000000000000000000000000000000000000000600052604160045260246000fd5b60405160a0810167ffffffffffffffff81118282101715612cc157612cc1612c6f565b60405290565b6040805190810167ffffffffffffffff81118282101715612cc157612cc1612c6f565b604051601f8201601f1916810167ffffffffffffffff81118282101715612d1357612d13612c6f565b604052919050565b600067ffffffffffffffff831115612d3557612d35612c6f565b612d486020601f19601f86011601612cea565b9050828152838383011115612d5c57600080fd5b828260208301376000602084830101529392505050565b600082601f830112612d8457600080fd5b6113f683833560208501612d1b565b803563ffffffff81168114612da757600080fd5b919050565b600080600060608486031215612dc157600080fd5b8335612dcc81612c4d565b9250602084013567ffffffffffffffff811115612de857600080fd5b612df486828701612d73565b925050612e0360408501612d93565b90509250925092565b600060208284031215612e1e57600080fd5b813567ffffffffffffffff811115612e3557600080fd5b8201601f81018413612e4657600080fd5b612e5584823560208401612d1b565b949350505050565b60008060008060008060c08789031215612e7657600080fd5b8635612e8181612c4d565b95506020870135612e9181612c4d565b9450604087013567ffffffffffffffff811115612ead57600080fd5b612eb989828a01612d73565b94505060608701359250612ecf60808801612d93565b9150612edd60a08801612d93565b90509295509295509295565b600060208284031215612efb57600080fd5b81356113f681612c4d565b600060a08284031215612f1857600080fd5b612f20612c9e565b905081358152602082013560208201526040820135604082015260608201356060820152608082013567ffffffffffffffff811115612f5e57600080fd5b612f6a84828501612d73565b60808301525092915050565b600060408284031215612f8857600080fd5b612f90612cc7565b90508135815260208083013567ffffffffffffffff80821115612fb257600080fd5b818501915085601f830112612fc657600080fd5b813581811115612fd857612fd8612c6f565b8060051b9150612fe9848301612cea565b818152918301840191848101908884111561300357600080fd5b938501935b8385101561302157843582529385019390850190613008565b808688015250505050505092915050565b600060a0828403121561304457600080fd5b61304c612c9e565b905081358152602082013567ffffffffffffffff8082111561306d57600080fd5b61307985838601612f06565b6020840152604084013591508082111561309257600080fd5b61309e85838601612f76565b604084015260608401359150808211156130b757600080fd5b6130c385838601612d73565b606084015260808401359150808211156130dc57600080fd5b50612f6a84828501612d73565b600080600080600060a0868803121561310157600080fd5b853561310c81612c4d565b9450602086013561311c81612c4d565b9350604086013567ffffffffffffffff8082111561313957600080fd5b61314589838a01612d73565b945060608801359350608088013591508082111561316257600080fd5b5061316f88828901613032565b9150509295509295909350565b7f4e487b7100000000000000000000000000000000000000000000000000000000600052603260045260246000fd5b600082357fffffffffffffffffffffffffffffffffffffffffffffffffffffffffffffff618336030181126131df57600080fd5b9190910192915050565b600060a082360312156131fb57600080fd5b613203612c9e565b823561320e81612c4d565b8152602083013561321e81612c4d565b6020820152604083013567ffffffffffffffff8082111561323e57600080fd5b61324a36838701612d73565b604084015260608501356060840152608085013591508082111561326d57600080fd5b50612f6a36828601613032565b7f4e487b7100000000000000000000000000000000000000000000000000000000600052601160045260246000fd5b60007fffffffffffffffffffffffffffffffffffffffffffffffffffffffffffffffff8214156132db576132db61327a565b5060010190565b60005b838110156132fd5781810151838201526020016132e5565b8381111561330c576000848401525b50505050565b6000815180845261332a8160208601602086016132e2565b601f01601f19169290920160200192915050565b6020815260006113f66020830184613312565b60006020828403121561336357600080fd5b81516113f681612c4d565b600082516131df8184602087016132e2565b600084516133928184602089016132e2565b60609490941b7fffffffffffffffffffffffffffffffffffffffff0000000000000000000000001691909301908152601481019190915260340192915050565b600073ffffffffffffffffffffffffffffffffffffffff80871683528086166020840152506080604083015261340b6080830185613312565b905082606083015295945050505050565b8381526000602060608184015284516060840152808501516080840152604085015160a0840152606085015160c0840152608085015160a060e0850152613467610100850182613312565b905083810360408501526040810185518252828601516040848401528181518084526060850191508583019450600093505b808410156134b95784518252938501936001939093019290850190613499565b509998505050505050505050565b6000602082840312156134d957600080fd5b815180151581146113f657600080fd5b600083516134fb8184602088016132e2565b60609390931b7fffffffffffffffffffffffffffffffffffffffff000000000000000000000000169190920190815260140192915050565b6000828210156135455761354561327a565b500390565b7f4e487b7100000000000000000000000000000000000000000000000000000000600052602160045260246000fd5b6000821982111561358c5761358c61327a565b500190565b7f4e487b7100000000000000000000000000000000000000000000000000000000600052601260045260246000fd5b600060ff8316806135d3576135d3613591565b8060ff84160691505092915050565b600060ff821660ff8416808210156135fc576135fc61327a565b90039392505050565b6000817fffffffffffffffffffffffffffffffffffffffffffffffffffffffffffffffff048311821515161561363d5761363d61327a565b500290565b60006020828403121561365457600080fd5b5051919050565b60008261366a5761366a613591565b50049056fea2646970667358221220db148c0d889d087b96bf450906cbc5bc2d6c5d03241af572ce4c54c6a3441ce364736f6c63430008090033",
  "linkReferences": {},
  "deployedLinkReferences": {}
}