{
  "_format": "hh-sol-artifact-1",
  "contractName": "L2ProjectManager",
  "sourceName": "contracts/L2/L2ProjectManager.sol",
  "abi": [
    {
      "inputs": [],
      "stateMutability": "nonpayable",
      "type": "constructor"
    },
    {
      "anonymous": false,
      "inputs": [
        {
          "indexed": true,
          "internalType": "address",
          "name": "l1Token",
          "type": "address"
        },
        {
          "indexed": true,
          "internalType": "address",
          "name": "l2Token",
          "type": "address"
        },
        {
          "indexed": false,
          "internalType": "address",
          "name": "projectOwner",
          "type": "address"
        },
        {
          "indexed": false,
          "internalType": "string",
          "name": "projectName",
          "type": "string"
        }
      ],
      "name": "CreatedL2Project",
      "type": "event"
    },
    {
      "anonymous": false,
      "inputs": [
        {
          "indexed": false,
          "internalType": "address",
          "name": "l1Token",
          "type": "address"
        },
        {
          "indexed": false,
          "internalType": "address",
          "name": "l2Token",
          "type": "address"
        },
        {
          "indexed": false,
          "internalType": "uint256",
          "name": "projectId",
          "type": "uint256"
        },
        {
          "indexed": false,
          "internalType": "uint256",
          "name": "totalAmount",
          "type": "uint256"
        }
      ],
      "name": "DistributedL2Token",
      "type": "event"
    },
    {
      "anonymous": false,
      "inputs": [
        {
          "indexed": true,
          "internalType": "bytes32",
          "name": "role",
          "type": "bytes32"
        },
        {
          "indexed": true,
          "internalType": "bytes32",
          "name": "previousAdminRole",
          "type": "bytes32"
        },
        {
          "indexed": true,
          "internalType": "bytes32",
          "name": "newAdminRole",
          "type": "bytes32"
        }
      ],
      "name": "RoleAdminChanged",
      "type": "event"
    },
    {
      "anonymous": false,
      "inputs": [
        {
          "indexed": true,
          "internalType": "bytes32",
          "name": "role",
          "type": "bytes32"
        },
        {
          "indexed": true,
          "internalType": "address",
          "name": "account",
          "type": "address"
        },
        {
          "indexed": true,
          "internalType": "address",
          "name": "sender",
          "type": "address"
        }
      ],
      "name": "RoleGranted",
      "type": "event"
    },
    {
      "anonymous": false,
      "inputs": [
        {
          "indexed": true,
          "internalType": "bytes32",
          "name": "role",
          "type": "bytes32"
        },
        {
          "indexed": true,
          "internalType": "address",
          "name": "account",
          "type": "address"
        },
        {
          "indexed": true,
          "internalType": "address",
          "name": "sender",
          "type": "address"
        }
      ],
      "name": "RoleRevoked",
      "type": "event"
    },
    {
      "inputs": [],
      "name": "ADMIN_ROLE",
      "outputs": [
        {
          "internalType": "bytes32",
          "name": "",
          "type": "bytes32"
        }
      ],
      "stateMutability": "view",
      "type": "function"
    },
    {
      "inputs": [],
      "name": "DEFAULT_ADMIN_ROLE",
      "outputs": [
        {
          "internalType": "bytes32",
          "name": "",
          "type": "bytes32"
        }
      ],
      "stateMutability": "view",
      "type": "function"
    },
    {
      "inputs": [],
      "name": "POLICY_ROLE",
      "outputs": [
        {
          "internalType": "bytes32",
          "name": "",
          "type": "bytes32"
        }
      ],
      "stateMutability": "view",
      "type": "function"
    },
    {
      "inputs": [
        {
          "internalType": "address",
          "name": "account",
          "type": "address"
        }
      ],
      "name": "addAdmin",
      "outputs": [],
      "stateMutability": "nonpayable",
      "type": "function"
    },
    {
      "inputs": [
        {
          "internalType": "address",
          "name": "",
          "type": "address"
        }
      ],
      "name": "aliveImplementation",
      "outputs": [
        {
          "internalType": "bool",
          "name": "",
          "type": "bool"
        }
      ],
      "stateMutability": "view",
      "type": "function"
    },
    {
      "inputs": [
        {
          "internalType": "address",
          "name": "projectOwner",
          "type": "address"
        },
        {
          "internalType": "address",
          "name": "l1Token",
          "type": "address"
        },
        {
          "internalType": "address",
          "name": "l2Token",
          "type": "address"
        },
        {
          "internalType": "string",
          "name": "projectName",
          "type": "string"
        }
      ],
      "name": "createL2Project",
      "outputs": [],
      "stateMutability": "nonpayable",
      "type": "function"
    },
    {
      "inputs": [
        {
          "internalType": "address",
          "name": "l1Token",
          "type": "address"
        },
        {
          "internalType": "address",
          "name": "l2Token",
          "type": "address"
        },
        {
          "internalType": "uint256",
          "name": "projectId",
          "type": "uint256"
        },
        {
          "internalType": "uint256",
          "name": "totalAmount",
          "type": "uint256"
        },
        {
          "components": [
            {
              "components": [
                {
                  "components": [
                    {
                      "internalType": "uint256",
                      "name": "stosTier1",
                      "type": "uint256"
                    },
                    {
                      "internalType": "uint256",
                      "name": "stosTier2",
                      "type": "uint256"
                    },
                    {
                      "internalType": "uint256",
                      "name": "stosTier3",
                      "type": "uint256"
                    },
                    {
                      "internalType": "uint256",
                      "name": "stosTier4",
                      "type": "uint256"
                    },
                    {
                      "internalType": "uint256",
                      "name": "tier1Percents",
                      "type": "uint256"
                    },
                    {
                      "internalType": "uint256",
                      "name": "tier2Percents",
                      "type": "uint256"
                    },
                    {
                      "internalType": "uint256",
                      "name": "tier3Percents",
                      "type": "uint256"
                    },
                    {
                      "internalType": "uint256",
                      "name": "tier4Percents",
                      "type": "uint256"
                    },
                    {
                      "internalType": "uint256",
                      "name": "total1roundSaleAmount",
                      "type": "uint256"
                    },
                    {
                      "internalType": "uint256",
                      "name": "total2roundSaleAmount",
                      "type": "uint256"
                    },
                    {
                      "internalType": "uint256",
                      "name": "saleTokenPrice",
                      "type": "uint256"
                    },
                    {
                      "internalType": "uint256",
                      "name": "payTokenPrice",
                      "type": "uint256"
                    },
                    {
                      "internalType": "uint256",
                      "name": "hardcapAmount",
                      "type": "uint256"
                    },
                    {
                      "internalType": "uint256",
                      "name": "changeTOSPercent",
                      "type": "uint256"
                    },
                    {
                      "internalType": "uint256",
                      "name": "startWhiteTime",
                      "type": "uint256"
                    },
                    {
                      "internalType": "uint256",
                      "name": "endWhiteTime",
                      "type": "uint256"
                    },
                    {
                      "internalType": "uint256",
                      "name": "start1roundTime",
                      "type": "uint256"
                    },
                    {
                      "internalType": "uint256",
                      "name": "end1roundTime",
                      "type": "uint256"
                    },
                    {
                      "internalType": "uint256",
                      "name": "snapshotTime",
                      "type": "uint256"
                    },
                    {
                      "internalType": "uint256",
                      "name": "start2roundTime",
                      "type": "uint256"
                    },
                    {
                      "internalType": "uint256",
                      "name": "end2roundTime",
                      "type": "uint256"
                    },
                    {
                      "internalType": "uint256",
                      "name": "claimCounts",
                      "type": "uint256"
                    }
                  ],
                  "internalType": "struct LibProject.InitalParameterPublicSaleVault",
                  "name": "vaultParams",
                  "type": "tuple"
                },
                {
                  "components": [
                    {
                      "internalType": "uint256[]",
                      "name": "claimTimes",
                      "type": "uint256[]"
                    },
                    {
                      "internalType": "uint256[]",
                      "name": "claimPercents",
                      "type": "uint256[]"
                    }
                  ],
                  "internalType": "struct LibProject.InitalParameterPublicSaleClaim",
                  "name": "claimParams",
                  "type": "tuple"
                }
              ],
              "internalType": "struct LibProject.InitalParameterPublicSale",
              "name": "publicSaleParams",
              "type": "tuple"
            },
            {
              "components": [
                {
                  "internalType": "uint256",
                  "name": "totalAllocatedAmount",
                  "type": "uint256"
                },
                {
                  "internalType": "uint256",
                  "name": "tosPrice",
                  "type": "uint256"
                },
                {
                  "internalType": "uint256",
                  "name": "tokenPrice",
                  "type": "uint256"
                },
                {
                  "internalType": "uint256",
                  "name": "initSqrtPrice",
                  "type": "uint256"
                },
                {
                  "internalType": "uint32",
                  "name": "startTime",
                  "type": "uint32"
                },
                {
                  "internalType": "uint16",
                  "name": "fee",
                  "type": "uint16"
                }
              ],
              "internalType": "struct LibProject.InitalParameterInitialLiquidityVault",
              "name": "initialVaultParams",
              "type": "tuple"
            },
            {
              "components": [
                {
                  "internalType": "address",
                  "name": "poolAddress",
                  "type": "address"
                },
                {
                  "components": [
                    {
                      "internalType": "address",
                      "name": "claimer",
                      "type": "address"
                    },
                    {
                      "internalType": "uint256",
                      "name": "totalAllocatedAmount",
                      "type": "uint256"
                    },
                    {
                      "internalType": "uint256",
                      "name": "totalClaimCount",
                      "type": "uint256"
                    },
                    {
                      "internalType": "uint256",
                      "name": "firstClaimAmount",
                      "type": "uint256"
                    },
                    {
                      "internalType": "uint32",
                      "name": "firstClaimTime",
                      "type": "uint32"
                    },
                    {
                      "internalType": "uint32",
                      "name": "secondClaimTime",
                      "type": "uint32"
                    },
                    {
                      "internalType": "uint32",
                      "name": "roundIntervalTime",
                      "type": "uint32"
                    }
                  ],
                  "internalType": "struct LibProject.InitalParameterScheduleVault",
                  "name": "params",
                  "type": "tuple"
                }
              ],
              "internalType": "struct LibProject.InitalParameterLiquidityRewardVault",
              "name": "rewardParams",
              "type": "tuple"
            },
            {
              "components": [
                {
                  "internalType": "address",
                  "name": "claimer",
                  "type": "address"
                },
                {
                  "internalType": "uint256",
                  "name": "totalAllocatedAmount",
                  "type": "uint256"
                },
                {
                  "internalType": "uint256",
                  "name": "totalClaimCount",
                  "type": "uint256"
                },
                {
                  "internalType": "uint256",
                  "name": "firstClaimAmount",
                  "type": "uint256"
                },
                {
                  "internalType": "uint32",
                  "name": "firstClaimTime",
                  "type": "uint32"
                },
                {
                  "internalType": "uint32",
                  "name": "secondClaimTime",
                  "type": "uint32"
                },
                {
                  "internalType": "uint32",
                  "name": "roundIntervalTime",
                  "type": "uint32"
                }
              ],
              "internalType": "struct LibProject.InitalParameterScheduleVault",
              "name": "tosAirdropParams",
              "type": "tuple"
            },
            {
              "components": [
                {
                  "internalType": "address",
                  "name": "claimer",
                  "type": "address"
                },
                {
                  "internalType": "uint256",
                  "name": "totalAllocatedAmount",
                  "type": "uint256"
                },
                {
                  "internalType": "uint256",
                  "name": "totalClaimCount",
                  "type": "uint256"
                },
                {
                  "internalType": "uint256",
                  "name": "firstClaimAmount",
                  "type": "uint256"
                },
                {
                  "internalType": "uint32",
                  "name": "firstClaimTime",
                  "type": "uint32"
                },
                {
                  "internalType": "uint32",
                  "name": "secondClaimTime",
                  "type": "uint32"
                },
                {
                  "internalType": "uint32",
                  "name": "roundIntervalTime",
                  "type": "uint32"
                }
              ],
              "internalType": "struct LibProject.InitalParameterScheduleVault",
              "name": "tonAirdropParams",
              "type": "tuple"
            }
          ],
          "internalType": "struct LibProject.TokamakVaults",
          "name": "tokamakVaults",
          "type": "tuple"
        },
        {
          "components": [
            {
              "internalType": "string",
              "name": "vaultName",
              "type": "string"
            },
            {
              "components": [
                {
                  "internalType": "address",
                  "name": "claimer",
                  "type": "address"
                },
                {
                  "internalType": "uint256",
                  "name": "totalAllocatedAmount",
                  "type": "uint256"
                },
                {
                  "internalType": "uint256",
                  "name": "totalClaimCount",
                  "type": "uint256"
                },
                {
                  "internalType": "uint256",
                  "name": "firstClaimAmount",
                  "type": "uint256"
                },
                {
                  "internalType": "uint32",
                  "name": "firstClaimTime",
                  "type": "uint32"
                },
                {
                  "internalType": "uint32",
                  "name": "secondClaimTime",
                  "type": "uint32"
                },
                {
                  "internalType": "uint32",
                  "name": "roundIntervalTime",
                  "type": "uint32"
                }
              ],
              "internalType": "struct LibProject.InitalParameterScheduleVault",
              "name": "params",
              "type": "tuple"
            }
          ],
          "internalType": "struct LibProject.InitalParameterSchedule[]",
          "name": "customScheduleVaults",
          "type": "tuple[]"
        },
        {
          "components": [
            {
              "internalType": "string",
              "name": "vaultName",
              "type": "string"
            },
            {
              "internalType": "address",
              "name": "claimer",
              "type": "address"
            },
            {
              "internalType": "uint256",
              "name": "totalAllocatedAmount",
              "type": "uint256"
            }
          ],
          "internalType": "struct LibProject.InitalParameterNonScheduleVault[]",
          "name": "customNonScheduleVaults",
          "type": "tuple[]"
        }
      ],
      "name": "distributesL2Token",
      "outputs": [],
      "stateMutability": "nonpayable",
      "type": "function"
    },
    {
      "inputs": [
        {
          "internalType": "bytes32",
          "name": "role",
          "type": "bytes32"
        }
      ],
      "name": "getRoleAdmin",
      "outputs": [
        {
          "internalType": "bytes32",
          "name": "",
          "type": "bytes32"
        }
      ],
      "stateMutability": "view",
      "type": "function"
    },
    {
      "inputs": [
        {
          "internalType": "bytes32",
          "name": "role",
          "type": "bytes32"
        },
        {
          "internalType": "address",
          "name": "account",
          "type": "address"
        }
      ],
      "name": "grantRole",
      "outputs": [],
      "stateMutability": "nonpayable",
      "type": "function"
    },
    {
      "inputs": [
        {
          "internalType": "bytes32",
          "name": "role",
          "type": "bytes32"
        },
        {
          "internalType": "address",
          "name": "account",
          "type": "address"
        }
      ],
      "name": "hasRole",
      "outputs": [
        {
          "internalType": "bool",
          "name": "",
          "type": "bool"
        }
      ],
      "stateMutability": "view",
      "type": "function"
    },
    {
      "inputs": [],
      "name": "initialLiquidityVault",
      "outputs": [
        {
          "internalType": "address",
          "name": "",
          "type": "address"
        }
      ],
      "stateMutability": "view",
      "type": "function"
    },
    {
      "inputs": [
        {
          "internalType": "address",
          "name": "account",
          "type": "address"
        }
      ],
      "name": "isAdmin",
      "outputs": [
        {
          "internalType": "bool",
          "name": "",
          "type": "bool"
        }
      ],
      "stateMutability": "view",
      "type": "function"
    },
    {
      "inputs": [],
      "name": "l1ProjectManager",
      "outputs": [
        {
          "internalType": "address",
          "name": "",
          "type": "address"
        }
      ],
      "stateMutability": "view",
      "type": "function"
    },
    {
      "inputs": [],
      "name": "l2CrossDomainMessenger",
      "outputs": [
        {
          "internalType": "address",
          "name": "",
          "type": "address"
        }
      ],
      "stateMutability": "view",
      "type": "function"
    },
    {
      "inputs": [],
      "name": "l2TokenFactory",
      "outputs": [
        {
          "internalType": "address",
          "name": "",
          "type": "address"
        }
      ],
      "stateMutability": "view",
      "type": "function"
    },
    {
      "inputs": [],
      "name": "liquidityRewardVault",
      "outputs": [
        {
          "internalType": "address",
          "name": "",
          "type": "address"
        }
      ],
      "stateMutability": "view",
      "type": "function"
    },
    {
      "inputs": [],
      "name": "nonScheduleVault",
      "outputs": [
        {
          "internalType": "address",
          "name": "",
          "type": "address"
        }
      ],
      "stateMutability": "view",
      "type": "function"
    },
    {
      "inputs": [],
      "name": "pauseProxy",
      "outputs": [
        {
          "internalType": "bool",
          "name": "",
          "type": "bool"
        }
      ],
      "stateMutability": "view",
      "type": "function"
    },
    {
      "inputs": [
        {
          "internalType": "address",
          "name": "",
          "type": "address"
        }
      ],
      "name": "projects",
      "outputs": [
        {
          "internalType": "uint256",
          "name": "projectId",
          "type": "uint256"
        },
        {
          "internalType": "address",
          "name": "projectOwner",
          "type": "address"
        },
        {
          "internalType": "address",
          "name": "l1Token",
          "type": "address"
        },
        {
          "internalType": "address",
          "name": "l2Token",
          "type": "address"
        },
        {
          "internalType": "string",
          "name": "projectName",
          "type": "string"
        }
      ],
      "stateMutability": "view",
      "type": "function"
    },
    {
      "inputs": [
        {
          "internalType": "uint256",
          "name": "",
          "type": "uint256"
        }
      ],
      "name": "proxyImplementation",
      "outputs": [
        {
          "internalType": "address",
          "name": "",
          "type": "address"
        }
      ],
      "stateMutability": "view",
      "type": "function"
    },
    {
      "inputs": [],
      "name": "publicSaleVault",
      "outputs": [
        {
          "internalType": "address",
          "name": "",
          "type": "address"
        }
      ],
      "stateMutability": "view",
      "type": "function"
    },
    {
      "inputs": [
        {
          "internalType": "address",
          "name": "account",
          "type": "address"
        }
      ],
      "name": "removeAdmin",
      "outputs": [],
      "stateMutability": "nonpayable",
      "type": "function"
    },
    {
      "inputs": [
        {
          "internalType": "bytes32",
          "name": "role",
          "type": "bytes32"
        },
        {
          "internalType": "address",
          "name": "account",
          "type": "address"
        }
      ],
      "name": "renounceRole",
      "outputs": [],
      "stateMutability": "nonpayable",
      "type": "function"
    },
    {
      "inputs": [
        {
          "internalType": "bytes32",
          "name": "role",
          "type": "bytes32"
        },
        {
          "internalType": "address",
          "name": "account",
          "type": "address"
        }
      ],
      "name": "revokeRole",
      "outputs": [],
      "stateMutability": "nonpayable",
      "type": "function"
    },
    {
      "inputs": [],
      "name": "scheduleVault",
      "outputs": [
        {
          "internalType": "address",
          "name": "",
          "type": "address"
        }
      ],
      "stateMutability": "view",
      "type": "function"
    },
    {
      "inputs": [
        {
          "internalType": "bytes4",
          "name": "",
          "type": "bytes4"
        }
      ],
      "name": "selectorImplementation",
      "outputs": [
        {
          "internalType": "address",
          "name": "",
          "type": "address"
        }
      ],
      "stateMutability": "view",
      "type": "function"
    },
    {
      "inputs": [
        {
          "internalType": "address",
          "name": "_l1ProjectManager",
          "type": "address"
        }
      ],
      "name": "setL1ProjectManager",
      "outputs": [],
      "stateMutability": "nonpayable",
      "type": "function"
    },
    {
      "inputs": [
        {
          "internalType": "address",
          "name": "_l2CrossDomainMessenger",
          "type": "address"
        }
      ],
      "name": "setL2CrossDomainMessenger",
      "outputs": [],
      "stateMutability": "nonpayable",
      "type": "function"
    },
    {
      "inputs": [
        {
          "internalType": "address",
          "name": "_l2TokenFactory",
          "type": "address"
        }
      ],
      "name": "setL2TokenFactory",
      "outputs": [],
      "stateMutability": "nonpayable",
      "type": "function"
    },
    {
      "inputs": [
        {
          "internalType": "address",
          "name": "publicSale",
          "type": "address"
        },
        {
          "internalType": "address",
          "name": "initialLiquidity",
          "type": "address"
        },
        {
          "internalType": "address",
          "name": "liquidityReward",
          "type": "address"
        },
        {
          "internalType": "address",
          "name": "tonAirdrop",
          "type": "address"
        },
        {
          "internalType": "address",
          "name": "tosAirdrop",
          "type": "address"
        },
        {
          "internalType": "address",
          "name": "_scheduleVault",
          "type": "address"
        },
        {
          "internalType": "address",
          "name": "_nonScheduleVault",
          "type": "address"
        }
      ],
      "name": "setTokamakVaults",
      "outputs": [],
      "stateMutability": "nonpayable",
      "type": "function"
    },
    {
      "inputs": [
        {
          "internalType": "bytes4",
          "name": "interfaceId",
          "type": "bytes4"
        }
      ],
      "name": "supportsInterface",
      "outputs": [
        {
          "internalType": "bool",
          "name": "",
          "type": "bool"
        }
      ],
      "stateMutability": "view",
      "type": "function"
    },
    {
      "inputs": [
        {
          "internalType": "address",
          "name": "",
          "type": "address"
        }
      ],
      "name": "tokenMaps",
      "outputs": [
        {
          "internalType": "address",
          "name": "",
          "type": "address"
        }
      ],
      "stateMutability": "view",
      "type": "function"
    },
    {
      "inputs": [],
      "name": "tonAirdropVault",
      "outputs": [
        {
          "internalType": "address",
          "name": "",
          "type": "address"
        }
      ],
      "stateMutability": "view",
      "type": "function"
    },
    {
      "inputs": [],
      "name": "tosAirdropVault",
      "outputs": [
        {
          "internalType": "address",
          "name": "",
          "type": "address"
        }
      ],
      "stateMutability": "view",
      "type": "function"
    },
    {
      "inputs": [
        {
          "internalType": "address",
          "name": "newAdmin",
          "type": "address"
        }
      ],
      "name": "transferAdmin",
      "outputs": [],
      "stateMutability": "nonpayable",
      "type": "function"
    },
    {
      "inputs": [
        {
          "internalType": "address",
          "name": "l2token",
          "type": "address"
        }
      ],
      "name": "viewProject",
      "outputs": [
        {
          "components": [
            {
              "internalType": "uint256",
              "name": "projectId",
              "type": "uint256"
            },
            {
              "internalType": "address",
              "name": "projectOwner",
              "type": "address"
            },
            {
              "internalType": "address",
              "name": "l1Token",
              "type": "address"
            },
            {
              "internalType": "address",
              "name": "l2Token",
              "type": "address"
            },
            {
              "internalType": "string",
              "name": "projectName",
              "type": "string"
            }
          ],
          "internalType": "struct LibProject.L2ProjectInfo",
          "name": "",
          "type": "tuple"
        }
      ],
      "stateMutability": "view",
      "type": "function"
    }
  ],
  "bytecode": "0x60806040526005805460ff191660011790553480156200001e57600080fd5b506200003a600080516020620036b8833981519152806200005b565b62000055600080516020620036b883398151915233620000a6565b6200015a565b600082815260046020526040808220600101805490849055905190918391839186917fbd79b86ffe0ab8e8776151514217cd7cacd52c909f66475c3af44e129f0b00ff9190a4505050565b620000b28282620000b6565b5050565b60008281526004602090815260408083206001600160a01b038516845290915290205460ff16620000b25760008281526004602090815260408083206001600160a01b03851684529091529020805460ff19166001179055620001163390565b6001600160a01b0316816001600160a01b0316837f2f8788117e7eff1d82e926ec794901d17c78024a50270940304540a733656f0d60405160405180910390a45050565b61354e806200016a6000396000f3fe608060405234801561001057600080fd5b506004361061025c5760003560e01c806374a9f5c111610145578063c51c773a116100bd578063e2ce07291161008c578063eca7b83611610071578063eca7b836146105d3578063eddd5e82146105e6578063fbef005a146105f957600080fd5b8063e2ce0729146105a0578063e748849b146105b357600080fd5b8063c51c773a1461053e578063c5b53e6814610551578063d547741f1461057a578063dfb283541461058d57600080fd5b806391d1485411610114578063b911135f116100f9578063b911135f146104ef578063bb3f397a14610518578063c519eeac1461052b57600080fd5b806391d14854146104ae578063a217fddf146104e757600080fd5b806374a9f5c11461043857806375829def1461045057806375b238fc14610463578063840e78fd1461048a57600080fd5b8063425d7058116101d85780635f214430116101a75780636e53f4271161018c5780636e53f427146103ff5780636e6e857314610412578063704802751461042557600080fd5b80635f214430146103df57806363a8fd89146103f257600080fd5b8063425d70581461036d5780634bc4447b1461038057806350d2a27614610393578063550d01a3146103bc57600080fd5b806324d7806c1161022f5780632c8917c8116102145780632c8917c8146103345780632f2ff15d1461034757806336568abe1461035a57600080fd5b806324d7806c146102f65780632966c4dd1461030957600080fd5b806301ffc9a7146102615780631785f53c14610289578063229852461461029e578063248a9ca3146102d3575b600080fd5b61027461026f366004612507565b61060c565b60405190151581526020015b60405180910390f35b61029c610297366004612546565b610643565b005b6102c57ffb5864e8ff833c3cb2d2d08505e82ff02a43554c74a35d4f5a64e8526127831181565b604051908152602001610280565b6102c56102e1366004612563565b60009081526004602052604090206001015490565b610274610304366004612546565b6106d5565b600a5461031c906001600160a01b031681565b6040516001600160a01b039091168152602001610280565b60085461031c906001600160a01b031681565b61029c61035536600461257c565b610715565b61029c61036836600461257c565b61073f565b61029c61037b3660046125ac565b6107cb565b61029c61038e366004612546565b610a5f565b61031c6103a1366004612507565b6003602052600090815260409020546001600160a01b031681565b6102746103ca366004612546565b60026020526000908152604090205460ff1681565b61029c6103ed366004612546565b610b64565b6000546102749060ff1681565b600b5461031c906001600160a01b031681565b600e5461031c906001600160a01b031681565b61029c610433366004612546565b610c81565b60055461031c9061010090046001600160a01b031681565b61029c61045e366004612546565b610d0b565b6102c57fdf8b4c520ffe197c5343c6f5aec59570151ef9a492f2c624fd45ddde6135ec4281565b61049d610498366004612546565b610e6d565b6040516102809594939291906126a4565b6102746104bc36600461257c565b60009182526004602090815260408084206001600160a01b0393909316845291905290205460ff1690565b6102c5600081565b61031c6104fd366004612563565b6001602052600090815260409020546001600160a01b031681565b61029c610526366004612546565b610f34565b600d5461031c906001600160a01b031681565b60095461031c906001600160a01b031681565b61031c61055f366004612546565b6010602052600090815260409020546001600160a01b031681565b61029c61058836600461257c565b611039565b61029c61059b3660046126e9565b61105e565b61029c6105ae366004612ebe565b61123e565b6105c66105c1366004612546565b611f53565b6040516102809190612f7f565b600c5461031c906001600160a01b031681565b60065461031c906001600160a01b031681565b60075461031c906001600160a01b031681565b60006001600160e01b03198216637965db0b60e01b148061063d57506301ffc9a760e01b6001600160e01b03198316145b92915050565b61064c336106d5565b6106a85760405162461bcd60e51b815260206004820152602260248201527f41636365737369626c653a2043616c6c6572206973206e6f7420616e2061646d60448201526134b760f11b60648201526084015b60405180910390fd5b6106d27fdf8b4c520ffe197c5343c6f5aec59570151ef9a492f2c624fd45ddde6135ec428261073f565b50565b6001600160a01b03811660009081527f2fb794d17134dfdec181ddbac1babb5ab1eb140204ef4d982f294e7fc8b69022602052604081205460ff1661063d565b60008281526004602052604090206001015461073081612090565b61073a838361209a565b505050565b6001600160a01b03811633146107bd5760405162461bcd60e51b815260206004820152602f60248201527f416363657373436f6e74726f6c3a2063616e206f6e6c792072656e6f756e636560448201527f20726f6c657320666f722073656c660000000000000000000000000000000000606482015260840161069f565b6107c7828261213c565b5050565b6006546001600160a01b0316158015906107ef57506006546001600160a01b031633145b61083b5760405162461bcd60e51b815260206004820152601c60248201527f63616c6c6572206973206e6f74206c32546f6b656e466163746f727900000000604482015260640161069f565b600081900361088c5760405162461bcd60e51b815260206004820152601360248201527f70726f6a6563744e616d65206973206e756c6c00000000000000000000000000604482015260640161069f565b6001600160a01b038381166000908152600f602052604090206002015416156108f75760405162461bcd60e51b815260206004820152600d60248201527f616c726561647920616464656400000000000000000000000000000000000000604482015260640161069f565b6040518060a0016040528060008152602001866001600160a01b03168152602001856001600160a01b03168152602001846001600160a01b0316815260200183838080601f01602080910402602001604051908101604052809392919081815260200183838082843760009201829052509390945250506001600160a01b038087168252600f602090815260409283902085518155908501516001820180549184166001600160a01b0319928316179055928501516002820180549184169185169190911790556060850151600382018054919093169316929092179055608083015190915060048201906109ec9082613063565b5050506001600160a01b038481166000818152601060205260409081902080546001600160a01b0319169387169384179055517f665c02e22efe28364a081a633646b8db53de75e45491bbd51cb302f6e1ab3a2190610a5090899087908790613123565b60405180910390a35050505050565b806001600160a01b038116610a9b5760405162461bcd60e51b81526020600482015260026024820152612d1960f11b604482015260640161069f565b610aa4336106d5565b610afb5760405162461bcd60e51b815260206004820152602260248201527f41636365737369626c653a2043616c6c6572206973206e6f7420616e2061646d60448201526134b760f11b606482015260840161069f565b6007546001600160a01b03808416911603610b415760405162461bcd60e51b815260040161069f9060208082526004908201526373616d6560e01b604082015260600190565b50600780546001600160a01b0319166001600160a01b0392909216919091179055565b806001600160a01b038116610ba05760405162461bcd60e51b81526020600482015260026024820152612d1960f11b604482015260640161069f565b610ba9336106d5565b610c005760405162461bcd60e51b815260206004820152602260248201527f41636365737369626c653a2043616c6c6572206973206e6f7420616e2061646d60448201526134b760f11b606482015260840161069f565b6005546001600160a01b038084166101009092041603610c4b5760405162461bcd60e51b815260040161069f9060208082526004908201526373616d6560e01b604082015260600190565b50600580546001600160a01b039092166101000274ffffffffffffffffffffffffffffffffffffffff0019909216919091179055565b610c8a336106d5565b610ce15760405162461bcd60e51b815260206004820152602260248201527f41636365737369626c653a2043616c6c6572206973206e6f7420616e2061646d60448201526134b760f11b606482015260840161069f565b6106d27fdf8b4c520ffe197c5343c6f5aec59570151ef9a492f2c624fd45ddde6135ec4282610715565b610d14336106d5565b610d6b5760405162461bcd60e51b815260206004820152602260248201527f41636365737369626c653a2043616c6c6572206973206e6f7420616e2061646d60448201526134b760f11b606482015260840161069f565b6001600160a01b038116610dc15760405162461bcd60e51b815260206004820152601860248201527f41636365737369626c653a207a65726f20616464726573730000000000000000604482015260640161069f565b6001600160a01b0381163303610e195760405162461bcd60e51b815260206004820152601660248201527f41636365737369626c653a2073616d652061646d696e00000000000000000000604482015260640161069f565b610e437fdf8b4c520ffe197c5343c6f5aec59570151ef9a492f2c624fd45ddde6135ec4282610715565b6106d27fdf8b4c520ffe197c5343c6f5aec59570151ef9a492f2c624fd45ddde6135ec423361073f565b600f602052600090815260409020805460018201546002830154600384015460048501805494956001600160a01b03948516959385169490921692610eb190612fdb565b80601f0160208091040260200160405190810160405280929190818152602001828054610edd90612fdb565b8015610f2a5780601f10610eff57610100808354040283529160200191610f2a565b820191906000526020600020905b815481529060010190602001808311610f0d57829003601f168201915b5050505050905085565b806001600160a01b038116610f705760405162461bcd60e51b81526020600482015260026024820152612d1960f11b604482015260640161069f565b610f79336106d5565b610fd05760405162461bcd60e51b815260206004820152602260248201527f41636365737369626c653a2043616c6c6572206973206e6f7420616e2061646d60448201526134b760f11b606482015260840161069f565b6006546001600160a01b038084169116036110165760405162461bcd60e51b815260040161069f9060208082526004908201526373616d6560e01b604082015260600190565b50600680546001600160a01b0319166001600160a01b0392909216919091179055565b60008281526004602052604090206001015461105481612090565b61073a838361213c565b611067336106d5565b6110be5760405162461bcd60e51b815260206004820152602260248201527f41636365737369626c653a2043616c6c6572206973206e6f7420616e2061646d60448201526134b760f11b606482015260840161069f565b856001600160a01b0381166110fa5760405162461bcd60e51b81526020600482015260026024820152612d1960f11b604482015260640161069f565b826001600160a01b0381166111365760405162461bcd60e51b81526020600482015260026024820152612d1960f11b604482015260640161069f565b826001600160a01b0381166111725760405162461bcd60e51b81526020600482015260026024820152612d1960f11b604482015260640161069f565b600d546001600160a01b0316156111cb5760405162461bcd60e51b815260206004820152600b60248201527f616c726561647920736574000000000000000000000000000000000000000000604482015260640161069f565b5050600880546001600160a01b03199081166001600160a01b039a8b1617909155600980548216988a169890981790975550600b8054871694881694909417909355600c8054861692871692909217909155600d80548516918616919091179055600e8054909316931692909217905550565b6007546001600160a01b0316331480156112d8575060055460075460408051636e296e4560e01b815290516101009093046001600160a01b0390811693921691636e296e45916004808201926020929091908290030181865afa1580156112a9573d6000803e3d6000fd5b505050506040513d601f19601f820116820180604052508101906112cd9190613162565b6001600160a01b0316145b6113305760405162461bcd60e51b8152602060048201526024808201527f6e6f74206f6e6c794d657373656e676572416e644c3150726f6a6563744d616e60448201526330b3b2b960e11b606482015260840161069f565b866001600160a01b03811661136c5760405162461bcd60e51b81526020600482015260026024820152612d1960f11b604482015260640161069f565b866001600160a01b0381166113a85760405162461bcd60e51b81526020600482015260026024820152612d1960f11b604482015260640161069f565b86806000036113de5760405162461bcd60e51b81526020600482015260026024820152615a3160f01b604482015260640161069f565b86806000036114145760405162461bcd60e51b81526020600482015260026024820152615a3160f01b604482015260640161069f565b6001600160a01b03808b166000908152600f60209081526040808320815160a0810183528154815260018201548616938101939093526002810154851691830191909152600381015490931660608201526004830180549293919260808401919061147e90612fdb565b80601f01602080910402602001604051908101604052809291908181526020018280546114aa90612fdb565b80156114f75780601f106114cc576101008083540402835291602001916114f7565b820191906000526020600020905b8154815290600101906020018083116114da57829003601f168201915b50505050508152505090508b6001600160a01b031681604001516001600160a01b0316146115675760405162461bcd60e51b815260206004820152601360248201527f6e6f74206d617463686564206c31546f6b656e00000000000000000000000000604482015260640161069f565b8a6001600160a01b031681606001516001600160a01b0316146115cc5760405162461bcd60e51b815260206004820152601360248201527f6e6f74206d617463686564206c32546f6b656e00000000000000000000000000604482015260640161069f565b875151610120810151610100909101516000916115e891613195565b905060008960800151602001518a60600151602001518b6040015160200151602001518c60200151600001518561161f9190613195565b6116299190613195565b6116339190613195565b61163d9190613195565b905060008060005b8b5181101561168f578b8181518110611660576116606131a8565b602002602001015160200151602001518361167b9190613195565b925080611687816131be565b915050611645565b5060005b8a518110156116d9578a81815181106116ae576116ae6131a8565b602002602001015160400151826116c59190613195565b9150806116d1816131be565b915050611693565b506116e48183613195565b6116ee9084613195565b92508c831461173f5760405162461bcd60e51b815260206004820152601760248201527f6e6f74206d61746368656420746f74616c416d6f756e74000000000000000000604482015260640161069f565b8d600f600087606001516001600160a01b03166001600160a01b03168152602001908152602001600020600001819055506117948560600151600860009054906101000a90046001600160a01b0316866121bf565b606085015160095460208e0151516117b692916001600160a01b0316906121bf565b6060850151600a5460408e015160209081015101516117df92916001600160a01b0316906121bf565b6060850151600b5460808e01516020015161180492916001600160a01b0316906121bf565b606080860151600c54918e015160200151611828926001600160a01b0316906121bf565b831561190e5760085460608601516020870151604051631adcd63360e11b81526001600160a01b03928316600482015290821660248201529116906335b9ac6690604401600060405180830381600087803b15801561188657600080fd5b505af115801561189a573d6000803e3d6000fd5b505060085460608801518f5180516020909101516040516352bc80bd60e01b81526001600160a01b0390941695506352bc80bd94506118db93600401613249565b600060405180830381600087803b1580156118f557600080fd5b505af1158015611909573d6000803e3d6000fd5b505050505b60208c0151805115611b3657600954606087015160208801516040516328f40a9560e11b81526001600160a01b03928316600482015290821660248201529116906351e8152a90604401602060405180830381865afa158015611975573d6000803e3d6000fd5b505050506040513d601f19601f82011682018060405250810190611999919061338b565b611a0e5760095460608701516020880151604051631adcd63360e11b81526001600160a01b03928316600482015290821660248201529116906335b9ac6690604401600060405180830381600087803b1580156119f557600080fd5b505af1158015611a09573d6000803e3d6000fd5b505050505b600954606087015160208801516040516328f40a9560e11b81526001600160a01b03928316600482015290821660248201529116906351e8152a90604401602060405180830381865afa158015611a69573d6000803e3d6000fd5b505050506040513d601f19601f82011682018060405250810190611a8d919061338b565b5060095460608781015160408051632215f6f360e11b81526001600160a01b0392831660048201528551602482015260208601516044820152908501516064820152918401516084830152608084015163ffffffff1660a483015260a084015161ffff1660c48301529091169063442bede69060e401600060405180830381600087803b158015611b1d57600080fd5b505af1158015611b31573d6000803e3d6000fd5b505050505b8e8315611d0d57600d54606088015160208901516040516328f40a9560e11b81526001600160a01b03928316600482015290821660248201529116906351e8152a90604401602060405180830381865afa158015611b98573d6000803e3d6000fd5b505050506040513d601f19601f82011682018060405250810190611bbc919061338b565b611c3157600d5460608801516020890151604051631adcd63360e11b81526001600160a01b03928316600482015290821660248201529116906335b9ac6690604401600060405180830381600087803b158015611c1857600080fd5b505af1158015611c2c573d6000803e3d6000fd5b505050505b60005b8d51811015611d0b5760008e8281518110611c5157611c516131a8565b60200260200101519050611c878960600151600d60009054906101000a90046001600160a01b03168360200151602001516121bf565b600d5460608a01518251602084015160405163baf6ce1f60e01b81526001600160a01b039094169363baf6ce1f93611cc593909290916004016133ad565b600060405180830381600087803b158015611cdf57600080fd5b505af1158015611cf3573d6000803e3d6000fd5b50505050508080611d03906131be565b915050611c34565b505b8215611ee657600e54606088015160208901516040516328f40a9560e11b81526001600160a01b03928316600482015290821660248201529116906351e8152a90604401602060405180830381865afa158015611d6e573d6000803e3d6000fd5b505050506040513d601f19601f82011682018060405250810190611d92919061338b565b611e0757600e5460608801516020890151604051631adcd63360e11b81526001600160a01b03928316600482015290821660248201529116906335b9ac6690604401600060405180830381600087803b158015611dee57600080fd5b505af1158015611e02573d6000803e3d6000fd5b505050505b60005b8c51811015611ee45760008d8281518110611e2757611e276131a8565b60200260200101519050611e598960600151600e60009054906101000a90046001600160a01b031683604001516121bf565b600e5460608a015182516020840151604080860151905163021a440560e01b81526001600160a01b039095169463021a440594611e9e94909390929091600401613431565b600060405180830381600087803b158015611eb857600080fd5b505af1158015611ecc573d6000803e3d6000fd5b50505050508080611edc906131be565b915050611e0a565b505b6040878101516060808a015183516001600160a01b03938416815292166020830152818301849052810187905290517fc09fbebfef0054b64085d21310e8621dd22206fc0a44cedfa0a2f0fa5b97f7199181900360800190a1505050505050505050505050505050505050565b611fa06040518060a001604052806000815260200160006001600160a01b0316815260200160006001600160a01b0316815260200160006001600160a01b03168152602001606081525090565b6001600160a01b038083166000908152600f6020908152604091829020825160a08101845281548152600182015485169281019290925260028101548416928201929092526003820154909216606083015260048101805460808401919061200790612fdb565b80601f016020809104026020016040519081016040528092919081815260200182805461203390612fdb565b80156120805780601f1061205557610100808354040283529160200191612080565b820191906000526020600020905b81548152906001019060200180831161206357829003601f168201915b5050505050815250509050919050565b6106d281336122d0565b60008281526004602090815260408083206001600160a01b038516845290915290205460ff166107c75760008281526004602090815260408083206001600160a01b03851684529091529020805460ff191660011790556120f83390565b6001600160a01b0316816001600160a01b0316837f2f8788117e7eff1d82e926ec794901d17c78024a50270940304540a733656f0d60405160405180910390a45050565b60008281526004602090815260408083206001600160a01b038516845290915290205460ff16156107c75760008281526004602090815260408083206001600160a01b0385168085529252808320805460ff1916905551339285917ff6391f5c32d9c69d2a47ea670b442974b53935d1edc7fd64eb21e047a839171b9190a45050565b6001600160a01b038216158015906121d657508015155b80156122525750604051636eb1769f60e11b81523060048201526001600160a01b03838116602483015282919085169063dd62ed3e90604401602060405180830381865afa15801561222c573d6000803e3d6000fd5b505050506040513d601f19601f820116820180604052508101906122509190613466565b105b1561073a5760405163095ea7b360e01b81526001600160a01b0383811660048301526024820183905284169063095ea7b3906044016020604051808303816000875af11580156122a6573d6000803e3d6000fd5b505050506040513d601f19601f820116820180604052508101906122ca919061338b565b50505050565b60008281526004602090815260408083206001600160a01b038516845290915290205460ff166107c75761230381612345565b61230e836020612357565b60405160200161231f92919061347f565b60408051601f198184030181529082905262461bcd60e51b825261069f91600401613500565b606061063d6001600160a01b03831660145b60606000612366836002613513565b612371906002613195565b67ffffffffffffffff8111156123895761238961277f565b6040519080825280601f01601f1916602001820160405280156123b3576020820181803683370190505b509050600360fc1b816000815181106123ce576123ce6131a8565b60200101906001600160f81b031916908160001a905350600f60fb1b816001815181106123fd576123fd6131a8565b60200101906001600160f81b031916908160001a9053506000612421846002613513565b61242c906001613195565b90505b60018111156124b1577f303132333435363738396162636465660000000000000000000000000000000085600f166010811061246d5761246d6131a8565b1a60f81b828281518110612483576124836131a8565b60200101906001600160f81b031916908160001a90535060049490941c936124aa8161352a565b905061242f565b5083156125005760405162461bcd60e51b815260206004820181905260248201527f537472696e67733a20686578206c656e67746820696e73756666696369656e74604482015260640161069f565b9392505050565b60006020828403121561251957600080fd5b81356001600160e01b03198116811461250057600080fd5b6001600160a01b03811681146106d257600080fd5b60006020828403121561255857600080fd5b813561250081612531565b60006020828403121561257557600080fd5b5035919050565b6000806040838503121561258f57600080fd5b8235915060208301356125a181612531565b809150509250929050565b6000806000806000608086880312156125c457600080fd5b85356125cf81612531565b945060208601356125df81612531565b935060408601356125ef81612531565b9250606086013567ffffffffffffffff8082111561260c57600080fd5b818801915088601f83011261262057600080fd5b81358181111561262f57600080fd5b89602082850101111561264157600080fd5b9699959850939650602001949392505050565b60005b8381101561266f578181015183820152602001612657565b50506000910152565b60008151808452612690816020860160208601612654565b601f01601f19169290920160200192915050565b85815260006001600160a01b038087166020840152808616604084015280851660608401525060a060808301526126de60a0830184612678565b979650505050505050565b600080600080600080600060e0888a03121561270457600080fd5b873561270f81612531565b9650602088013561271f81612531565b9550604088013561272f81612531565b9450606088013561273f81612531565b9350608088013561274f81612531565b925060a088013561275f81612531565b915060c088013561276f81612531565b8091505092959891949750929550565b634e487b7160e01b600052604160045260246000fd5b6040805190810167ffffffffffffffff811182821017156127b8576127b861277f565b60405290565b60405160a0810167ffffffffffffffff811182821017156127b8576127b861277f565b6040516102c0810167ffffffffffffffff811182821017156127b8576127b861277f565b6040516060810167ffffffffffffffff811182821017156127b8576127b861277f565b604051601f8201601f1916810167ffffffffffffffff811182821017156128515761285161277f565b604052919050565b600067ffffffffffffffff8211156128735761287361277f565b5060051b60200190565b600082601f83011261288e57600080fd5b813560206128a361289e83612859565b612828565b82815260059290921b840181019181810190868411156128c257600080fd5b8286015b848110156128dd57803583529183019183016128c6565b509695505050505050565b6000604082840312156128fa57600080fd5b612902612795565b9050813567ffffffffffffffff8082111561291c57600080fd5b6129288583860161287d565b8352602084013591508082111561293e57600080fd5b5061294b8482850161287d565b60208301525092915050565b803563ffffffff8116811461296b57600080fd5b919050565b600060c0828403121561298257600080fd5b60405160c0810181811067ffffffffffffffff821117156129a5576129a561277f565b8060405250809150823581526020830135602082015260408301356040820152606083013560608201526129db60808401612957565b608082015260a083013561ffff811681146129f557600080fd5b60a0919091015292915050565b600060e08284031215612a1457600080fd5b60405160e0810181811067ffffffffffffffff82111715612a3757612a3761277f565b6040529050808235612a4881612531565b80825250602083013560208201526040830135604082015260608301356060820152612a7660808401612957565b6080820152612a8760a08401612957565b60a0820152612a9860c08401612957565b60c08201525092915050565b60006101008284031215612ab757600080fd5b612abf612795565b90508135612acc81612531565b8152612adb8360208401612a02565b602082015292915050565b60006103a08284031215612af957600080fd5b612b016127be565b9050813567ffffffffffffffff80821115612b1b57600080fd5b908301908185036102e0811215612b3157600080fd5b612b39612795565b6102c080831215612b4957600080fd5b612b516127e1565b853581526020808701359082015260408087013590820152606080870135908201526080808701359082015260a0808701359082015260c0808701359082015260e08087013590820152610100808701359082015261012080870135908201526101408087013590820152610160808701359082015261018080870135908201526101a080870135908201526101c080870135908201526101e08087013581830152610200808801359083015261022080880135908301526102408088013590830152610260808801359083015261028080880135908301526102a0808801359083015290835281860135935084841115612c4b57600080fd5b612c57898588016128e8565b6020840152828752612c6c8960208a01612970565b6020880152612c7e8960e08a01612aa4565b6040880152612c8f89828a01612a02565b606088015250612ca188828901612a02565b6080870152505050505092915050565b600082601f830112612cc257600080fd5b813567ffffffffffffffff811115612cdc57612cdc61277f565b612cef601f8201601f1916602001612828565b818152846020838601011115612d0457600080fd5b816020850160208301376000918101602001919091529392505050565b600082601f830112612d3257600080fd5b81356020612d4261289e83612859565b82815260059290921b84018101918181019086841115612d6157600080fd5b8286015b848110156128dd57803567ffffffffffffffff80821115612d865760008081fd5b90880190610100828b03601f19011215612da05760008081fd5b612da8612795565b8683013582811115612dba5760008081fd5b612dc88c8983870101612cb1565b825250612dd88b60408501612a02565b8188015285525050918301918301612d65565b600082601f830112612dfc57600080fd5b81356020612e0c61289e83612859565b82815260059290921b84018101918181019086841115612e2b57600080fd5b8286015b848110156128dd57803567ffffffffffffffff80821115612e505760008081fd5b908801906060828b03601f1901811315612e6a5760008081fd5b612e72612805565b8784013583811115612e845760008081fd5b612e928d8a83880101612cb1565b8252506040925082840135612ea681612531565b81890152920135908201528352918301918301612e2f565b600080600080600080600060e0888a031215612ed957600080fd5b8735612ee481612531565b96506020880135612ef481612531565b95506040880135945060608801359350608088013567ffffffffffffffff80821115612f1f57600080fd5b612f2b8b838c01612ae6565b945060a08a0135915080821115612f4157600080fd5b612f4d8b838c01612d21565b935060c08a0135915080821115612f6357600080fd5b50612f708a828b01612deb565b91505092959891949750929550565b6020815281516020820152600060208301516001600160a01b0380821660408501528060408601511660608501528060608601511660808501525050608083015160a080840152612fd360c0840182612678565b949350505050565b600181811c90821680612fef57607f821691505b60208210810361300f57634e487b7160e01b600052602260045260246000fd5b50919050565b601f82111561073a57600081815260208120601f850160051c8101602086101561303c5750805b601f850160051c820191505b8181101561305b57828155600101613048565b505050505050565b815167ffffffffffffffff81111561307d5761307d61277f565b6130918161308b8454612fdb565b84613015565b602080601f8311600181146130c657600084156130ae5750858301515b600019600386901b1c1916600185901b17855561305b565b600085815260208120601f198616915b828110156130f5578886015182559484019460019091019084016130d6565b50858210156131135787850151600019600388901b60f8161c191681555b5050505050600190811b01905550565b6001600160a01b038416815260406020820152816040820152818360608301376000818301606090810191909152601f909201601f1916010192915050565b60006020828403121561317457600080fd5b815161250081612531565b634e487b7160e01b600052601160045260246000fd5b8082018082111561063d5761063d61317f565b634e487b7160e01b600052603260045260246000fd5b6000600182016131d0576131d061317f565b5060010190565b600081518084526020808501945080840160005b83811015613207578151875295820195908201906001016131eb565b509495945050505050565b600081516040845261322760408501826131d7565b90506020830151848203602086015261324082826131d7565b95945050505050565b6001600160a01b0384168152825160208083019190915283015160408083019190915283015160608083019190915283015160808083019190915283015160a08083019190915283015160c08083019190915283015160e08083019190915283015161010080830191909152830151610120808301919091528301516101408083019190915283015161016080830191909152830151610180808301919091528301516101a0808301919091528301516101c0808301919091528301516101e08083019190915283015161020080830191909152830151610220808301919091528301516102408083019190915283015161026080830191909152830151610280808301919091528301516102a0808301919091528301516102c08201526103006102e0820181905260009061338183820185613212565b9695505050505050565b60006020828403121561339d57600080fd5b8151801515811461250057600080fd5b60006101206001600160a01b0380871684528160208501526133d182850187612678565b925080855116604085015250506020830151606083015260408301516080830152606083015160a0830152608083015163ffffffff80821660c08501528060a08601511660e08501528060c0860151166101008501525050949350505050565b60006001600160a01b038087168352608060208401526134546080840187612678565b94166040830152506060015292915050565b60006020828403121561347857600080fd5b5051919050565b7f416363657373436f6e74726f6c3a206163636f756e74200000000000000000008152600083516134b7816017850160208801612654565b7f206973206d697373696e6720726f6c652000000000000000000000000000000060179184019182015283516134f4816028840160208801612654565b01602801949350505050565b6020815260006125006020830184612678565b808202811582820484141761063d5761063d61317f565b6000816135395761353961317f565b50600019019056fea164736f6c6343000812000adf8b4c520ffe197c5343c6f5aec59570151ef9a492f2c624fd45ddde6135ec42",
  "linkReferences": {},
  "deployedLinkReferences": {}
}