{
  "_format": "hh-sol-artifact-1",
  "contractName": "L2ProjectManager",
  "sourceName": "contracts/L2/L2ProjectManager.sol",
  "abi": [
    {
      "inputs": [],
      "stateMutability": "nonpayable",
      "type": "constructor"
    },
    {
      "anonymous": false,
      "inputs": [
        {
          "indexed": true,
          "internalType": "address",
          "name": "l1Token",
          "type": "address"
        },
        {
          "indexed": true,
          "internalType": "address",
          "name": "l2Token",
          "type": "address"
        },
        {
          "indexed": false,
          "internalType": "address",
          "name": "projectOwner",
          "type": "address"
        },
        {
          "indexed": false,
          "internalType": "string",
          "name": "projectName",
          "type": "string"
        }
      ],
      "name": "CreatedL2Project",
      "type": "event"
    },
    {
      "anonymous": false,
      "inputs": [
        {
          "indexed": false,
          "internalType": "address",
          "name": "l1Token",
          "type": "address"
        },
        {
          "indexed": false,
          "internalType": "address",
          "name": "l2Token",
          "type": "address"
        },
        {
          "indexed": false,
          "internalType": "uint256",
          "name": "projectId",
          "type": "uint256"
        },
        {
          "indexed": false,
          "internalType": "uint256",
          "name": "totalAmount",
          "type": "uint256"
        }
      ],
      "name": "DistributedL2Token",
      "type": "event"
    },
    {
      "anonymous": false,
      "inputs": [
        {
          "indexed": true,
          "internalType": "bytes32",
          "name": "role",
          "type": "bytes32"
        },
        {
          "indexed": true,
          "internalType": "bytes32",
          "name": "previousAdminRole",
          "type": "bytes32"
        },
        {
          "indexed": true,
          "internalType": "bytes32",
          "name": "newAdminRole",
          "type": "bytes32"
        }
      ],
      "name": "RoleAdminChanged",
      "type": "event"
    },
    {
      "anonymous": false,
      "inputs": [
        {
          "indexed": true,
          "internalType": "bytes32",
          "name": "role",
          "type": "bytes32"
        },
        {
          "indexed": true,
          "internalType": "address",
          "name": "account",
          "type": "address"
        },
        {
          "indexed": true,
          "internalType": "address",
          "name": "sender",
          "type": "address"
        }
      ],
      "name": "RoleGranted",
      "type": "event"
    },
    {
      "anonymous": false,
      "inputs": [
        {
          "indexed": true,
          "internalType": "bytes32",
          "name": "role",
          "type": "bytes32"
        },
        {
          "indexed": true,
          "internalType": "address",
          "name": "account",
          "type": "address"
        },
        {
          "indexed": true,
          "internalType": "address",
          "name": "sender",
          "type": "address"
        }
      ],
      "name": "RoleRevoked",
      "type": "event"
    },
    {
      "inputs": [],
      "name": "ADMIN_ROLE",
      "outputs": [
        {
          "internalType": "bytes32",
          "name": "",
          "type": "bytes32"
        }
      ],
      "stateMutability": "view",
      "type": "function"
    },
    {
      "inputs": [],
      "name": "DEFAULT_ADMIN_ROLE",
      "outputs": [
        {
          "internalType": "bytes32",
          "name": "",
          "type": "bytes32"
        }
      ],
      "stateMutability": "view",
      "type": "function"
    },
    {
      "inputs": [],
      "name": "POLICY_ROLE",
      "outputs": [
        {
          "internalType": "bytes32",
          "name": "",
          "type": "bytes32"
        }
      ],
      "stateMutability": "view",
      "type": "function"
    },
    {
      "inputs": [
        {
          "internalType": "address",
          "name": "account",
          "type": "address"
        }
      ],
      "name": "addAdmin",
      "outputs": [],
      "stateMutability": "nonpayable",
      "type": "function"
    },
    {
      "inputs": [
        {
          "internalType": "address",
          "name": "",
          "type": "address"
        }
      ],
      "name": "aliveImplementation",
      "outputs": [
        {
          "internalType": "bool",
          "name": "",
          "type": "bool"
        }
      ],
      "stateMutability": "view",
      "type": "function"
    },
    {
      "inputs": [
        {
          "internalType": "address",
          "name": "projectOwner",
          "type": "address"
        },
        {
          "internalType": "address",
          "name": "l1Token",
          "type": "address"
        },
        {
          "internalType": "address",
          "name": "l2Token",
          "type": "address"
        },
        {
          "internalType": "string",
          "name": "projectName",
          "type": "string"
        }
      ],
      "name": "createL2Project",
      "outputs": [],
      "stateMutability": "nonpayable",
      "type": "function"
    },
    {
      "inputs": [
        {
          "internalType": "address",
          "name": "l1Token",
          "type": "address"
        },
        {
          "internalType": "address",
          "name": "l2Token",
          "type": "address"
        },
        {
          "internalType": "uint256",
          "name": "projectId",
          "type": "uint256"
        },
        {
          "internalType": "uint256",
          "name": "totalAmount",
          "type": "uint256"
        },
        {
          "components": [
            {
              "components": [
                {
                  "components": [
                    {
                      "internalType": "uint256",
                      "name": "stosTier1",
                      "type": "uint256"
                    },
                    {
                      "internalType": "uint256",
                      "name": "stosTier2",
                      "type": "uint256"
                    },
                    {
                      "internalType": "uint256",
                      "name": "stosTier3",
                      "type": "uint256"
                    },
                    {
                      "internalType": "uint256",
                      "name": "stosTier4",
                      "type": "uint256"
                    },
                    {
                      "internalType": "uint256",
                      "name": "tier1Percents",
                      "type": "uint256"
                    },
                    {
                      "internalType": "uint256",
                      "name": "tier2Percents",
                      "type": "uint256"
                    },
                    {
                      "internalType": "uint256",
                      "name": "tier3Percents",
                      "type": "uint256"
                    },
                    {
                      "internalType": "uint256",
                      "name": "tier4Percents",
                      "type": "uint256"
                    },
                    {
                      "internalType": "uint256",
                      "name": "total1roundSaleAmount",
                      "type": "uint256"
                    },
                    {
                      "internalType": "uint256",
                      "name": "total2roundSaleAmount",
                      "type": "uint256"
                    },
                    {
                      "internalType": "uint256",
                      "name": "saleTokenPrice",
                      "type": "uint256"
                    },
                    {
                      "internalType": "uint256",
                      "name": "payTokenPrice",
                      "type": "uint256"
                    },
                    {
                      "internalType": "uint256",
                      "name": "hardcapAmount",
                      "type": "uint256"
                    },
                    {
                      "internalType": "uint256",
                      "name": "changeTOSPercent",
                      "type": "uint256"
                    },
                    {
                      "internalType": "uint256",
                      "name": "startWhiteTime",
                      "type": "uint256"
                    },
                    {
                      "internalType": "uint256",
                      "name": "endWhiteTime",
                      "type": "uint256"
                    },
                    {
                      "internalType": "uint256",
                      "name": "start1roundTime",
                      "type": "uint256"
                    },
                    {
                      "internalType": "uint256",
                      "name": "end1roundTime",
                      "type": "uint256"
                    },
                    {
                      "internalType": "uint256",
                      "name": "snapshotTime",
                      "type": "uint256"
                    },
                    {
                      "internalType": "uint256",
                      "name": "start2roundTime",
                      "type": "uint256"
                    },
                    {
                      "internalType": "uint256",
                      "name": "end2roundTime",
                      "type": "uint256"
                    },
                    {
                      "internalType": "uint256",
                      "name": "claimCounts",
                      "type": "uint256"
                    }
                  ],
                  "internalType": "struct LibProject.InitalParameterPublicSaleVault",
                  "name": "vaultParams",
                  "type": "tuple"
                },
                {
                  "components": [
                    {
                      "internalType": "uint256[]",
                      "name": "claimTimes",
                      "type": "uint256[]"
                    },
                    {
                      "internalType": "uint256[]",
                      "name": "claimPercents",
                      "type": "uint256[]"
                    }
                  ],
                  "internalType": "struct LibProject.InitalParameterPublicSaleClaim",
                  "name": "claimParams",
                  "type": "tuple"
                }
              ],
              "internalType": "struct LibProject.InitalParameterPublicSale",
              "name": "publicSaleParams",
              "type": "tuple"
            },
            {
              "components": [
                {
                  "internalType": "uint256",
                  "name": "totalAllocatedAmount",
                  "type": "uint256"
                },
                {
                  "internalType": "uint256",
                  "name": "tosPrice",
                  "type": "uint256"
                },
                {
                  "internalType": "uint256",
                  "name": "tokenPrice",
                  "type": "uint256"
                },
                {
                  "internalType": "uint256",
                  "name": "initSqrtPrice",
                  "type": "uint256"
                },
                {
                  "internalType": "uint32",
                  "name": "startTime",
                  "type": "uint32"
                },
                {
                  "internalType": "uint16",
                  "name": "fee",
                  "type": "uint16"
                }
              ],
              "internalType": "struct LibProject.InitalParameterInitialLiquidityVault",
              "name": "initialVaultParams",
              "type": "tuple"
            },
            {
              "components": [
                {
                  "internalType": "address",
                  "name": "poolAddress",
                  "type": "address"
                },
                {
                  "components": [
                    {
                      "internalType": "uint256",
                      "name": "totalAllocatedAmount",
                      "type": "uint256"
                    },
                    {
                      "internalType": "uint256",
                      "name": "totalClaimCount",
                      "type": "uint256"
                    },
                    {
                      "internalType": "uint256",
                      "name": "firstClaimAmount",
                      "type": "uint256"
                    },
                    {
                      "internalType": "uint32",
                      "name": "firstClaimTime",
                      "type": "uint32"
                    },
                    {
                      "internalType": "uint32",
                      "name": "secondClaimTime",
                      "type": "uint32"
                    },
                    {
                      "internalType": "uint32",
                      "name": "roundIntervalTime",
                      "type": "uint32"
                    }
                  ],
                  "internalType": "struct LibProject.InitalParameterScheduleVault",
                  "name": "params",
                  "type": "tuple"
                }
              ],
              "internalType": "struct LibProject.InitalParameterLiquidityRewardVault",
              "name": "rewardParams",
              "type": "tuple"
            },
            {
              "components": [
                {
                  "internalType": "uint256",
                  "name": "totalAllocatedAmount",
                  "type": "uint256"
                },
                {
                  "internalType": "uint256",
                  "name": "totalClaimCount",
                  "type": "uint256"
                },
                {
                  "internalType": "uint256",
                  "name": "firstClaimAmount",
                  "type": "uint256"
                },
                {
                  "internalType": "uint32",
                  "name": "firstClaimTime",
                  "type": "uint32"
                },
                {
                  "internalType": "uint32",
                  "name": "secondClaimTime",
                  "type": "uint32"
                },
                {
                  "internalType": "uint32",
                  "name": "roundIntervalTime",
                  "type": "uint32"
                }
              ],
              "internalType": "struct LibProject.InitalParameterScheduleVault",
              "name": "tosAirdropParams",
              "type": "tuple"
            },
            {
              "components": [
                {
                  "internalType": "uint256",
                  "name": "totalAllocatedAmount",
                  "type": "uint256"
                },
                {
                  "internalType": "uint256",
                  "name": "totalClaimCount",
                  "type": "uint256"
                },
                {
                  "internalType": "uint256",
                  "name": "firstClaimAmount",
                  "type": "uint256"
                },
                {
                  "internalType": "uint32",
                  "name": "firstClaimTime",
                  "type": "uint32"
                },
                {
                  "internalType": "uint32",
                  "name": "secondClaimTime",
                  "type": "uint32"
                },
                {
                  "internalType": "uint32",
                  "name": "roundIntervalTime",
                  "type": "uint32"
                }
              ],
              "internalType": "struct LibProject.InitalParameterScheduleVault",
              "name": "tonAirdropParams",
              "type": "tuple"
            }
          ],
          "internalType": "struct LibProject.TokamakVaults",
          "name": "tokamakVaults",
          "type": "tuple"
        },
        {
          "components": [
            {
              "internalType": "string",
              "name": "vaultName",
              "type": "string"
            },
            {
              "components": [
                {
                  "internalType": "uint256",
                  "name": "totalAllocatedAmount",
                  "type": "uint256"
                },
                {
                  "internalType": "uint256",
                  "name": "totalClaimCount",
                  "type": "uint256"
                },
                {
                  "internalType": "uint256",
                  "name": "firstClaimAmount",
                  "type": "uint256"
                },
                {
                  "internalType": "uint32",
                  "name": "firstClaimTime",
                  "type": "uint32"
                },
                {
                  "internalType": "uint32",
                  "name": "secondClaimTime",
                  "type": "uint32"
                },
                {
                  "internalType": "uint32",
                  "name": "roundIntervalTime",
                  "type": "uint32"
                }
              ],
              "internalType": "struct LibProject.InitalParameterScheduleVault",
              "name": "params",
              "type": "tuple"
            }
          ],
          "internalType": "struct LibProject.InitalParameterSchedule[]",
          "name": "customScheduleVaults",
          "type": "tuple[]"
        },
        {
          "components": [
            {
              "internalType": "string",
              "name": "vaultName",
              "type": "string"
            },
            {
              "internalType": "uint256",
              "name": "totalAllocatedAmount",
              "type": "uint256"
            }
          ],
          "internalType": "struct LibProject.InitalParameterNonScheduleVault[]",
          "name": "customNonScheduleVaults",
          "type": "tuple[]"
        }
      ],
      "name": "distributesL2Token",
      "outputs": [],
      "stateMutability": "nonpayable",
      "type": "function"
    },
    {
      "inputs": [
        {
          "internalType": "bytes32",
          "name": "role",
          "type": "bytes32"
        }
      ],
      "name": "getRoleAdmin",
      "outputs": [
        {
          "internalType": "bytes32",
          "name": "",
          "type": "bytes32"
        }
      ],
      "stateMutability": "view",
      "type": "function"
    },
    {
      "inputs": [
        {
          "internalType": "bytes32",
          "name": "role",
          "type": "bytes32"
        },
        {
          "internalType": "address",
          "name": "account",
          "type": "address"
        }
      ],
      "name": "grantRole",
      "outputs": [],
      "stateMutability": "nonpayable",
      "type": "function"
    },
    {
      "inputs": [
        {
          "internalType": "bytes32",
          "name": "role",
          "type": "bytes32"
        },
        {
          "internalType": "address",
          "name": "account",
          "type": "address"
        }
      ],
      "name": "hasRole",
      "outputs": [
        {
          "internalType": "bool",
          "name": "",
          "type": "bool"
        }
      ],
      "stateMutability": "view",
      "type": "function"
    },
    {
      "inputs": [],
      "name": "initialLiquidityVault",
      "outputs": [
        {
          "internalType": "address",
          "name": "",
          "type": "address"
        }
      ],
      "stateMutability": "view",
      "type": "function"
    },
    {
      "inputs": [
        {
          "internalType": "address",
          "name": "account",
          "type": "address"
        }
      ],
      "name": "isAdmin",
      "outputs": [
        {
          "internalType": "bool",
          "name": "",
          "type": "bool"
        }
      ],
      "stateMutability": "view",
      "type": "function"
    },
    {
      "inputs": [],
      "name": "l1ProjectManager",
      "outputs": [
        {
          "internalType": "address",
          "name": "",
          "type": "address"
        }
      ],
      "stateMutability": "view",
      "type": "function"
    },
    {
      "inputs": [],
      "name": "l2CrossDomainMessenger",
      "outputs": [
        {
          "internalType": "address",
          "name": "",
          "type": "address"
        }
      ],
      "stateMutability": "view",
      "type": "function"
    },
    {
      "inputs": [],
      "name": "l2TokenFactory",
      "outputs": [
        {
          "internalType": "address",
          "name": "",
          "type": "address"
        }
      ],
      "stateMutability": "view",
      "type": "function"
    },
    {
      "inputs": [],
      "name": "liquidityRewardVault",
      "outputs": [
        {
          "internalType": "address",
          "name": "",
          "type": "address"
        }
      ],
      "stateMutability": "view",
      "type": "function"
    },
    {
      "inputs": [],
      "name": "nonScheduleVault",
      "outputs": [
        {
          "internalType": "address",
          "name": "",
          "type": "address"
        }
      ],
      "stateMutability": "view",
      "type": "function"
    },
    {
      "inputs": [],
      "name": "pauseProxy",
      "outputs": [
        {
          "internalType": "bool",
          "name": "",
          "type": "bool"
        }
      ],
      "stateMutability": "view",
      "type": "function"
    },
    {
      "inputs": [
        {
          "internalType": "address",
          "name": "",
          "type": "address"
        }
      ],
      "name": "projects",
      "outputs": [
        {
          "internalType": "uint256",
          "name": "projectId",
          "type": "uint256"
        },
        {
          "internalType": "address",
          "name": "projectOwner",
          "type": "address"
        },
        {
          "internalType": "address",
          "name": "l1Token",
          "type": "address"
        },
        {
          "internalType": "address",
          "name": "l2Token",
          "type": "address"
        },
        {
          "internalType": "string",
          "name": "projectName",
          "type": "string"
        }
      ],
      "stateMutability": "view",
      "type": "function"
    },
    {
      "inputs": [
        {
          "internalType": "uint256",
          "name": "",
          "type": "uint256"
        }
      ],
      "name": "proxyImplementation",
      "outputs": [
        {
          "internalType": "address",
          "name": "",
          "type": "address"
        }
      ],
      "stateMutability": "view",
      "type": "function"
    },
    {
      "inputs": [],
      "name": "publicSaleVault",
      "outputs": [
        {
          "internalType": "address",
          "name": "",
          "type": "address"
        }
      ],
      "stateMutability": "view",
      "type": "function"
    },
    {
      "inputs": [
        {
          "internalType": "address",
          "name": "account",
          "type": "address"
        }
      ],
      "name": "removeAdmin",
      "outputs": [],
      "stateMutability": "nonpayable",
      "type": "function"
    },
    {
      "inputs": [
        {
          "internalType": "bytes32",
          "name": "role",
          "type": "bytes32"
        },
        {
          "internalType": "address",
          "name": "account",
          "type": "address"
        }
      ],
      "name": "renounceRole",
      "outputs": [],
      "stateMutability": "nonpayable",
      "type": "function"
    },
    {
      "inputs": [
        {
          "internalType": "bytes32",
          "name": "role",
          "type": "bytes32"
        },
        {
          "internalType": "address",
          "name": "account",
          "type": "address"
        }
      ],
      "name": "revokeRole",
      "outputs": [],
      "stateMutability": "nonpayable",
      "type": "function"
    },
    {
      "inputs": [],
      "name": "scheduleVault",
      "outputs": [
        {
          "internalType": "address",
          "name": "",
          "type": "address"
        }
      ],
      "stateMutability": "view",
      "type": "function"
    },
    {
      "inputs": [
        {
          "internalType": "bytes4",
          "name": "",
          "type": "bytes4"
        }
      ],
      "name": "selectorImplementation",
      "outputs": [
        {
          "internalType": "address",
          "name": "",
          "type": "address"
        }
      ],
      "stateMutability": "view",
      "type": "function"
    },
    {
      "inputs": [
        {
          "internalType": "address",
          "name": "_l1ProjectManager",
          "type": "address"
        }
      ],
      "name": "setL1ProjectManager",
      "outputs": [],
      "stateMutability": "nonpayable",
      "type": "function"
    },
    {
      "inputs": [
        {
          "internalType": "address",
          "name": "_l2CrossDomainMessenger",
          "type": "address"
        }
      ],
      "name": "setL2CrossDomainMessenger",
      "outputs": [],
      "stateMutability": "nonpayable",
      "type": "function"
    },
    {
      "inputs": [
        {
          "internalType": "address",
          "name": "_l2TokenFactory",
          "type": "address"
        }
      ],
      "name": "setL2TokenFactory",
      "outputs": [],
      "stateMutability": "nonpayable",
      "type": "function"
    },
    {
      "inputs": [
        {
          "internalType": "address",
          "name": "publicSale",
          "type": "address"
        },
        {
          "internalType": "address",
          "name": "initialLiquidity",
          "type": "address"
        },
        {
          "internalType": "address",
          "name": "liquidityReward",
          "type": "address"
        },
        {
          "internalType": "address",
          "name": "tonAirdrop",
          "type": "address"
        },
        {
          "internalType": "address",
          "name": "tosAirdrop",
          "type": "address"
        },
        {
          "internalType": "address",
          "name": "_scheduleVault",
          "type": "address"
        },
        {
          "internalType": "address",
          "name": "_nonScheduleVault",
          "type": "address"
        }
      ],
      "name": "setTokamakVaults",
      "outputs": [],
      "stateMutability": "nonpayable",
      "type": "function"
    },
    {
      "inputs": [
        {
          "internalType": "bytes4",
          "name": "interfaceId",
          "type": "bytes4"
        }
      ],
      "name": "supportsInterface",
      "outputs": [
        {
          "internalType": "bool",
          "name": "",
          "type": "bool"
        }
      ],
      "stateMutability": "view",
      "type": "function"
    },
    {
      "inputs": [
        {
          "internalType": "address",
          "name": "",
          "type": "address"
        }
      ],
      "name": "tokenMaps",
      "outputs": [
        {
          "internalType": "address",
          "name": "",
          "type": "address"
        }
      ],
      "stateMutability": "view",
      "type": "function"
    },
    {
      "inputs": [],
      "name": "tonAirdropVault",
      "outputs": [
        {
          "internalType": "address",
          "name": "",
          "type": "address"
        }
      ],
      "stateMutability": "view",
      "type": "function"
    },
    {
      "inputs": [],
      "name": "tosAirdropVault",
      "outputs": [
        {
          "internalType": "address",
          "name": "",
          "type": "address"
        }
      ],
      "stateMutability": "view",
      "type": "function"
    },
    {
      "inputs": [
        {
          "internalType": "address",
          "name": "newAdmin",
          "type": "address"
        }
      ],
      "name": "transferAdmin",
      "outputs": [],
      "stateMutability": "nonpayable",
      "type": "function"
    }
  ],
  "bytecode": "0x60806040526005805460ff191660011790553480156200001e57600080fd5b506200003a60008051602062003be3833981519152806200005b565b6200005560008051602062003be383398151915233620000a6565b6200015a565b600082815260046020526040808220600101805490849055905190918391839186917fbd79b86ffe0ab8e8776151514217cd7cacd52c909f66475c3af44e129f0b00ff9190a4505050565b620000b28282620000b6565b5050565b60008281526004602090815260408083206001600160a01b038516845290915290205460ff16620000b25760008281526004602090815260408083206001600160a01b03851684529091529020805460ff19166001179055620001163390565b6001600160a01b0316816001600160a01b0316837f2f8788117e7eff1d82e926ec794901d17c78024a50270940304540a733656f0d60405160405180910390a45050565b613a79806200016a6000396000f3fe608060405234801561001057600080fd5b50600436106102415760003560e01c80637048027511610145578063c519eeac116100bd578063d547741f1161008c578063eca7b83611610071578063eca7b83614610598578063eddd5e82146105ab578063fbef005a146105be57600080fd5b8063d547741f14610572578063dfb283541461058557600080fd5b8063c519eeac14610510578063c51c773a14610523578063c5b53e6814610536578063c93fcd8c1461055f57600080fd5b8063840e78fd11610114578063a217fddf116100f9578063a217fddf146104cc578063b911135f146104d4578063bb3f397a146104fd57600080fd5b8063840e78fd1461046f57806391d148541461049357600080fd5b8063704802751461040a57806374a9f5c11461041d57806375829def1461043557806375b238fc1461044857600080fd5b806336568abe116101d8578063550d01a3116101a757806363a8fd891161018c57806363a8fd89146103d75780636e53f427146103e45780636e6e8573146103f757600080fd5b8063550d01a3146103a15780635f214430146103c457600080fd5b806336568abe1461033f578063425d7058146103525780634bc4447b1461036557806350d2a2761461037857600080fd5b806324d7806c1161021457806324d7806c146102db5780632966c4dd146102ee5780632c8917c8146103195780632f2ff15d1461032c57600080fd5b806301ffc9a7146102465780631785f53c1461026e5780632298524614610283578063248a9ca3146102b8575b600080fd5b61025961025436600461292b565b6105d1565b60405190151581526020015b60405180910390f35b61028161027c36600461296a565b610608565b005b6102aa7ffb5864e8ff833c3cb2d2d08505e82ff02a43554c74a35d4f5a64e8526127831181565b604051908152602001610265565b6102aa6102c6366004612987565b60009081526004602052604090206001015490565b6102596102e936600461296a565b61069a565b600a54610301906001600160a01b031681565b6040516001600160a01b039091168152602001610265565b600854610301906001600160a01b031681565b61028161033a3660046129a0565b6106da565b61028161034d3660046129a0565b610704565b6102816103603660046129d0565b610790565b61028161037336600461296a565b610a24565b61030161038636600461292b565b6003602052600090815260409020546001600160a01b031681565b6102596103af36600461296a565b60026020526000908152604090205460ff1681565b6102816103d236600461296a565b610b29565b6000546102599060ff1681565b600b54610301906001600160a01b031681565b600e54610301906001600160a01b031681565b61028161041836600461296a565b610c46565b6005546103019061010090046001600160a01b031681565b61028161044336600461296a565b610cd0565b6102aa7fdf8b4c520ffe197c5343c6f5aec59570151ef9a492f2c624fd45ddde6135ec4281565b61048261047d36600461296a565b610e32565b604051610265959493929190612ac8565b6102596104a13660046129a0565b60009182526004602090815260408084206001600160a01b0393909316845291905290205460ff1690565b6102aa600081565b6103016104e2366004612987565b6001602052600090815260409020546001600160a01b031681565b61028161050b36600461296a565b610ef9565b600d54610301906001600160a01b031681565b600954610301906001600160a01b031681565b61030161054436600461296a565b6010602052600090815260409020546001600160a01b031681565b61028161056d3660046131d5565b610ffe565b6102816105803660046129a0565b612182565b610281610593366004613296565b6121a7565b600c54610301906001600160a01b031681565b600654610301906001600160a01b031681565b600754610301906001600160a01b031681565b60006001600160e01b03198216637965db0b60e01b148061060257506301ffc9a760e01b6001600160e01b03198316145b92915050565b6106113361069a565b61066d5760405162461bcd60e51b815260206004820152602260248201527f41636365737369626c653a2043616c6c6572206973206e6f7420616e2061646d60448201526134b760f11b60648201526084015b60405180910390fd5b6106977fdf8b4c520ffe197c5343c6f5aec59570151ef9a492f2c624fd45ddde6135ec4282610704565b50565b6001600160a01b03811660009081527f2fb794d17134dfdec181ddbac1babb5ab1eb140204ef4d982f294e7fc8b69022602052604081205460ff16610602565b6000828152600460205260409020600101546106f581612387565b6106ff8383612391565b505050565b6001600160a01b03811633146107825760405162461bcd60e51b815260206004820152602f60248201527f416363657373436f6e74726f6c3a2063616e206f6e6c792072656e6f756e636560448201527f20726f6c657320666f722073656c6600000000000000000000000000000000006064820152608401610664565b61078c8282612433565b5050565b6006546001600160a01b0316158015906107b457506006546001600160a01b031633145b6108005760405162461bcd60e51b815260206004820152601c60248201527f63616c6c6572206973206e6f74206c32546f6b656e466163746f7279000000006044820152606401610664565b60008190036108515760405162461bcd60e51b815260206004820152601360248201527f70726f6a6563744e616d65206973206e756c6c000000000000000000000000006044820152606401610664565b6001600160a01b038381166000908152600f602052604090206002015416156108bc5760405162461bcd60e51b815260206004820152600d60248201527f616c7265616479206164646564000000000000000000000000000000000000006044820152606401610664565b6040518060a0016040528060008152602001866001600160a01b03168152602001856001600160a01b03168152602001846001600160a01b0316815260200183838080601f01602080910402602001604051908101604052809392919081815260200183838082843760009201829052509390945250506001600160a01b038087168252600f602090815260409283902085518155908501516001820180549184166001600160a01b0319928316179055928501516002820180549184169185169190911790556060850151600382018054919093169316929092179055608083015190915060048201906109b190826133b4565b5050506001600160a01b038481166000818152601060205260409081902080546001600160a01b0319169387169384179055517f665c02e22efe28364a081a633646b8db53de75e45491bbd51cb302f6e1ab3a2190610a1590899087908790613474565b60405180910390a35050505050565b806001600160a01b038116610a605760405162461bcd60e51b81526020600482015260026024820152612d1960f11b6044820152606401610664565b610a693361069a565b610ac05760405162461bcd60e51b815260206004820152602260248201527f41636365737369626c653a2043616c6c6572206973206e6f7420616e2061646d60448201526134b760f11b6064820152608401610664565b6007546001600160a01b03808416911603610b065760405162461bcd60e51b81526004016106649060208082526004908201526373616d6560e01b604082015260600190565b50600780546001600160a01b0319166001600160a01b0392909216919091179055565b806001600160a01b038116610b655760405162461bcd60e51b81526020600482015260026024820152612d1960f11b6044820152606401610664565b610b6e3361069a565b610bc55760405162461bcd60e51b815260206004820152602260248201527f41636365737369626c653a2043616c6c6572206973206e6f7420616e2061646d60448201526134b760f11b6064820152608401610664565b6005546001600160a01b038084166101009092041603610c105760405162461bcd60e51b81526004016106649060208082526004908201526373616d6560e01b604082015260600190565b50600580546001600160a01b039092166101000274ffffffffffffffffffffffffffffffffffffffff0019909216919091179055565b610c4f3361069a565b610ca65760405162461bcd60e51b815260206004820152602260248201527f41636365737369626c653a2043616c6c6572206973206e6f7420616e2061646d60448201526134b760f11b6064820152608401610664565b6106977fdf8b4c520ffe197c5343c6f5aec59570151ef9a492f2c624fd45ddde6135ec42826106da565b610cd93361069a565b610d305760405162461bcd60e51b815260206004820152602260248201527f41636365737369626c653a2043616c6c6572206973206e6f7420616e2061646d60448201526134b760f11b6064820152608401610664565b6001600160a01b038116610d865760405162461bcd60e51b815260206004820152601860248201527f41636365737369626c653a207a65726f206164647265737300000000000000006044820152606401610664565b6001600160a01b0381163303610dde5760405162461bcd60e51b815260206004820152601660248201527f41636365737369626c653a2073616d652061646d696e000000000000000000006044820152606401610664565b610e087fdf8b4c520ffe197c5343c6f5aec59570151ef9a492f2c624fd45ddde6135ec42826106da565b6106977fdf8b4c520ffe197c5343c6f5aec59570151ef9a492f2c624fd45ddde6135ec4233610704565b600f602052600090815260409020805460018201546002830154600384015460048501805494956001600160a01b03948516959385169490921692610e769061332c565b80601f0160208091040260200160405190810160405280929190818152602001828054610ea29061332c565b8015610eef5780601f10610ec457610100808354040283529160200191610eef565b820191906000526020600020905b815481529060010190602001808311610ed257829003601f168201915b5050505050905085565b806001600160a01b038116610f355760405162461bcd60e51b81526020600482015260026024820152612d1960f11b6044820152606401610664565b610f3e3361069a565b610f955760405162461bcd60e51b815260206004820152602260248201527f41636365737369626c653a2043616c6c6572206973206e6f7420616e2061646d60448201526134b760f11b6064820152608401610664565b6006546001600160a01b03808416911603610fdb5760405162461bcd60e51b81526004016106649060208082526004908201526373616d6560e01b604082015260600190565b50600680546001600160a01b0319166001600160a01b0392909216919091179055565b6110206040518060600160405280602e8152602001613964602e9139336124b6565b61104d6040518060600160405280603a8152602001613992603a91396007546001600160a01b03166124b6565b61107f6040518060600160405280603481526020016138ce6034913960055461010090046001600160a01b03166124b6565b61111760405180606001604052806038815260200161390260389139600760009054906101000a90046001600160a01b03166001600160a01b0316636e296e456040518163ffffffff1660e01b8152600401602060405180830381865afa1580156110ee573d6000803e3d6000fd5b505050506040513d601f19601f8201168201806040525081019061111291906134b3565b6124b6565b6007546001600160a01b0316331480156111b1575060055460075460408051636e296e4560e01b815290516101009093046001600160a01b0390811693921691636e296e45916004808201926020929091908290030181865afa158015611182573d6000803e3d6000fd5b505050506040513d601f19601f820116820180604052508101906111a691906134b3565b6001600160a01b0316145b6112095760405162461bcd60e51b8152602060048201526024808201527f6e6f74206f6e6c794d657373656e676572416e644c3150726f6a6563744d616e60448201526330b3b2b960e11b6064820152608401610664565b866001600160a01b0381166112455760405162461bcd60e51b81526020600482015260026024820152612d1960f11b6044820152606401610664565b866001600160a01b0381166112815760405162461bcd60e51b81526020600482015260026024820152612d1960f11b6044820152606401610664565b86806000036112b75760405162461bcd60e51b81526020600482015260026024820152615a3160f01b6044820152606401610664565b86806000036112ed5760405162461bcd60e51b81526020600482015260026024820152615a3160f01b6044820152606401610664565b61130e604051806060016040528060268152602001613a47602691396124fb565b61134d6040518060400160405280601a81526020017f4c3250726f6a6563744d616e61676572206c31546f6b656e20250000000000008152508c6124b6565b61138c6040518060400160405280601a81526020017f4c3250726f6a6563744d616e61676572206c32546f6b656e20250000000000008152508b6124b6565b6113cb6040518060400160405280601c81526020017f4c3250726f6a6563744d616e616765722070726f6a65637449642025000000008152508a61253e565b61140a6040518060400160405280601e81526020017f4c3250726f6a6563744d616e6167657220746f74616c416d6f756e74202500008152508961253e565b6001600160a01b03808b166000908152600f60209081526040808320815160a081018352815481526001820154861693810193909352600281015485169183019190915260038101549093166060820152600483018054929391926080840191906114749061332c565b80601f01602080910402602001604051908101604052809291908181526020018280546114a09061332c565b80156114ed5780601f106114c2576101008083540402835291602001916114ed565b820191906000526020600020905b8154815290600101906020018083116114d057829003601f168201915b505050505081525050905061153b6040518060400160405280601f81526020017f4c3250726f6a6563744d616e6167657220696e666f2e6c31546f6b656e20250081525082604001516124b6565b61157e6040518060400160405280601f81526020017f4c3250726f6a6563744d616e6167657220696e666f2e6c32546f6b656e20250081525082606001516124b6565b8b6001600160a01b031681604001516001600160a01b0316146115e35760405162461bcd60e51b815260206004820152601360248201527f6e6f74206d617463686564206c31546f6b656e000000000000000000000000006044820152606401610664565b8a6001600160a01b031681606001516001600160a01b0316146116485760405162461bcd60e51b815260206004820152601360248201527f6e6f74206d617463686564206c32546f6b656e000000000000000000000000006044820152606401610664565b87515161012081015161010090910151600091611664916134e6565b90506116a56040518060400160405280601e81526020017f4c3250726f6a6563744d616e61676572207075626c6963546f74616c202500008152508261253e565b60808901515160608a01515160408b015160209081015151908c0151516000939291906116d290866134e6565b6116dc91906134e6565b6116e691906134e6565b6116f091906134e6565b90506117316040518060400160405280601881526020017f4c3250726f6a6563744d616e6167657220746f74616c202500000000000000008152508261253e565b60008060005b8b51811015611781578b8181518110611752576117526134f9565b602002602001015160200151600001518361176d91906134e6565b9250806117798161350f565b915050611737565b5060005b8a518110156117cb578a81815181106117a0576117a06134f9565b602002602001015160200151826117b791906134e6565b9150806117c38161350f565b915050611785565b506117ee604051806060016040528060268152602001613a21602691398361253e565b6118106040518060600160405280602981526020016139f8602991398261253e565b61181a81836134e6565b61182490846134e6565b92506118656040518060400160405280601881526020017f4c3250726f6a6563744d616e6167657220746f74616c202500000000000000008152508461253e565b8c83146118b45760405162461bcd60e51b815260206004820152601760248201527f6e6f74206d61746368656420746f74616c416d6f756e740000000000000000006044820152606401610664565b8d600f600087606001516001600160a01b03166001600160a01b03168152602001908152602001600020600001819055506119058f600860009054906101000a90046001600160a01b031686612583565b61192d8f600960009054906101000a90046001600160a01b03168e6020015160000151612583565b6119598f600a60009054906101000a90046001600160a01b03168e604001516020015160000151612583565b6119818f600b60009054906101000a90046001600160a01b03168e6080015160000151612583565b6119a98f600c60009054906101000a90046001600160a01b03168e6060015160000151612583565b8315611a8f5760085460608601516020870151604051631adcd63360e11b81526001600160a01b03928316600482015290821660248201529116906335b9ac6690604401600060405180830381600087803b158015611a0757600080fd5b505af1158015611a1b573d6000803e3d6000fd5b505060085460608801518f5180516020909101516040516352bc80bd60e01b81526001600160a01b0390941695506352bc80bd9450611a5c9360040161359a565b600060405180830381600087803b158015611a7657600080fd5b505af1158015611a8a573d6000803e3d6000fd5b505050505b60008c602001519050611abb6040518060600160405280602a815260200161393a602a9139825161253e565b60208d01515115611d4057611ae76040518060600160405280602c81526020016139cc602c91396124fb565b600954606087015160208801516040516328f40a9560e11b81526000936001600160a01b0316926351e8152a92611b35926004016001600160a01b0392831681529116602082015260400190565b602060405180830381865afa158015611b52573d6000803e3d6000fd5b505050506040513d601f19601f82011682018060405250810190611b7691906136dc565b9050611b8181612692565b801515600003611bfc5760095460608801516020890151604051631adcd63360e11b81526001600160a01b03928316600482015290821660248201529116906335b9ac6690604401600060405180830381600087803b158015611be357600080fd5b505af1158015611bf7573d6000803e3d6000fd5b505050505b600954606088015160208901516040516328f40a9560e11b81526000936001600160a01b0316926351e8152a92611c4a926004016001600160a01b0392831681529116602082015260400190565b602060405180830381865afa158015611c67573d6000803e3d6000fd5b505050506040513d601f19601f82011682018060405250810190611c8b91906136dc565b9050611c9681612692565b60095460608981015160408051632215f6f360e11b81526001600160a01b0392831660048201528751602482015260208801516044820152908701516064820152918601516084830152608086015163ffffffff1660a483015260a086015161ffff1660c48301529091169063442bede69060e401600060405180830381600087803b158015611d2557600080fd5b505af1158015611d39573d6000803e3d6000fd5b5050505050505b611d7f6040518060400160405280601681526020017f746f74616c437573746f6d5363686564756c65202573000000000000000000008152508461253e565b8215611f2a57600d54606087015160208801516040516328f40a9560e11b81526001600160a01b03928316600482015290821660248201529116906351e8152a90604401602060405180830381865afa158015611de0573d6000803e3d6000fd5b505050506040513d601f19601f82011682018060405250810190611e0491906136dc565b611e7957600d5460608701516020880151604051631adcd63360e11b81526001600160a01b03928316600482015290821660248201529116906335b9ac6690604401600060405180830381600087803b158015611e6057600080fd5b505af1158015611e74573d6000803e3d6000fd5b505050505b60005b8c51811015611f285760008d8281518110611e9957611e996134f9565b602090810291909101810151600d5460608b015182519383015160405163ab4299b560e01b81529395506001600160a01b039092169363ab4299b593611ee293906004016136fe565b600060405180830381600087803b158015611efc57600080fd5b505af1158015611f10573d6000803e3d6000fd5b50505050508080611f209061350f565b915050611e7c565b505b611f696040518060400160405280601981526020017f746f74616c4e6f6e437573746f6d5363686564756c65202573000000000000008152508361253e565b811561211457600e54606087015160208801516040516328f40a9560e11b81526001600160a01b03928316600482015290821660248201529116906351e8152a90604401602060405180830381865afa158015611fca573d6000803e3d6000fd5b505050506040513d601f19601f82011682018060405250810190611fee91906136dc565b61206357600e5460608701516020880151604051631adcd63360e11b81526001600160a01b03928316600482015290821660248201529116906335b9ac6690604401600060405180830381600087803b15801561204a57600080fd5b505af115801561205e573d6000803e3d6000fd5b505050505b60005b8b518110156121125760008c8281518110612083576120836134f9565b602090810291909101810151600e5460608b015182519383015160405163236b26ef60e21b81529395506001600160a01b0390921693638dac9bbc936120cc9390600401613773565b600060405180830381600087803b1580156120e657600080fd5b505af11580156120fa573d6000803e3d6000fd5b5050505050808061210a9061350f565b915050612066565b505b604086810151606080890151895184516001600160a01b03948516815293909116602084015282840152810186905290517fc09fbebfef0054b64085d21310e8621dd22206fc0a44cedfa0a2f0fa5b97f7199181900360800190a15050505050505050505050505050505050565b60008281526004602052604090206001015461219d81612387565b6106ff8383612433565b6121b03361069a565b6122075760405162461bcd60e51b815260206004820152602260248201527f41636365737369626c653a2043616c6c6572206973206e6f7420616e2061646d60448201526134b760f11b6064820152608401610664565b856001600160a01b0381166122435760405162461bcd60e51b81526020600482015260026024820152612d1960f11b6044820152606401610664565b826001600160a01b03811661227f5760405162461bcd60e51b81526020600482015260026024820152612d1960f11b6044820152606401610664565b826001600160a01b0381166122bb5760405162461bcd60e51b81526020600482015260026024820152612d1960f11b6044820152606401610664565b600d546001600160a01b0316156123145760405162461bcd60e51b815260206004820152600b60248201527f616c7265616479207365740000000000000000000000000000000000000000006044820152606401610664565b5050600880546001600160a01b03199081166001600160a01b039a8b1617909155600980548216988a169890981790975550600b8054871694881694909417909355600c8054861692871692909217909155600d80548516918616919091179055600e8054909316931692909217905550565b61069781336126d3565b60008281526004602090815260408083206001600160a01b038516845290915290205460ff1661078c5760008281526004602090815260408083206001600160a01b03851684529091529020805460ff191660011790556123ef3390565b6001600160a01b0316816001600160a01b0316837f2f8788117e7eff1d82e926ec794901d17c78024a50270940304540a733656f0d60405160405180910390a45050565b60008281526004602090815260408083206001600160a01b038516845290915290205460ff161561078c5760008281526004602090815260408083206001600160a01b0385168085529252808320805460ff1916905551339285917ff6391f5c32d9c69d2a47ea670b442974b53935d1edc7fd64eb21e047a839171b9190a45050565b61078c82826040516024016124cc9291906137a5565b60408051601f198184030181529190526020810180516001600160e01b031663319af33360e01b179052612748565b6106978160405160240161250f91906137d0565b60408051601f198184030181529190526020810180516001600160e01b031663104c13eb60e21b179052612748565b61078c82826040516024016125549291906137e3565b60408051601f198184030181529190526020810180516001600160e01b0316632d839cb360e21b179052612748565b6001600160a01b0382161580159061259a57508015155b80156126145750604051636eb1769f60e11b81523060048201526001600160a01b03838116602483015284169063dd62ed3e90604401602060405180830381865afa1580156125ed573d6000803e3d6000fd5b505050506040513d601f19601f820116820180604052508101906126119190613805565b81105b156106ff5760405163095ea7b360e01b81526001600160a01b0383811660048301526024820183905284169063095ea7b3906044016020604051808303816000875af1158015612668573d6000803e3d6000fd5b505050506040513d601f19601f8201168201806040525081019061268c91906136dc565b50505050565b60405181151560248201526106979060440160408051601f198184030181529190526020810180516001600160e01b03166332458eed60e01b179052612748565b60008281526004602090815260408083206001600160a01b038516845290915290205460ff1661078c5761270681612769565b61271183602061277b565b60405160200161272292919061381e565b60408051601f198184030181529082905262461bcd60e51b8252610664916004016137d0565b80516a636f6e736f6c652e6c6f67602083016000808483855afa5050505050565b60606106026001600160a01b03831660145b6060600061278a83600261389f565b6127959060026134e6565b67ffffffffffffffff8111156127ad576127ad612b0d565b6040519080825280601f01601f1916602001820160405280156127d7576020820181803683370190505b509050600360fc1b816000815181106127f2576127f26134f9565b60200101906001600160f81b031916908160001a905350600f60fb1b81600181518110612821576128216134f9565b60200101906001600160f81b031916908160001a905350600061284584600261389f565b6128509060016134e6565b90505b60018111156128d5577f303132333435363738396162636465660000000000000000000000000000000085600f1660108110612891576128916134f9565b1a60f81b8282815181106128a7576128a76134f9565b60200101906001600160f81b031916908160001a90535060049490941c936128ce816138b6565b9050612853565b5083156129245760405162461bcd60e51b815260206004820181905260248201527f537472696e67733a20686578206c656e67746820696e73756666696369656e746044820152606401610664565b9392505050565b60006020828403121561293d57600080fd5b81356001600160e01b03198116811461292457600080fd5b6001600160a01b038116811461069757600080fd5b60006020828403121561297c57600080fd5b813561292481612955565b60006020828403121561299957600080fd5b5035919050565b600080604083850312156129b357600080fd5b8235915060208301356129c581612955565b809150509250929050565b6000806000806000608086880312156129e857600080fd5b85356129f381612955565b94506020860135612a0381612955565b93506040860135612a1381612955565b9250606086013567ffffffffffffffff80821115612a3057600080fd5b818801915088601f830112612a4457600080fd5b813581811115612a5357600080fd5b896020828501011115612a6557600080fd5b9699959850939650602001949392505050565b60005b83811015612a93578181015183820152602001612a7b565b50506000910152565b60008151808452612ab4816020860160208601612a78565b601f01601f19169290920160200192915050565b85815260006001600160a01b038087166020840152808616604084015280851660608401525060a06080830152612b0260a0830184612a9c565b979650505050505050565b634e487b7160e01b600052604160045260246000fd5b6040805190810167ffffffffffffffff81118282101715612b4657612b46612b0d565b60405290565b60405160c0810167ffffffffffffffff81118282101715612b4657612b46612b0d565b60405160a0810167ffffffffffffffff81118282101715612b4657612b46612b0d565b6040516102c0810167ffffffffffffffff81118282101715612b4657612b46612b0d565b604051601f8201601f1916810167ffffffffffffffff81118282101715612bdf57612bdf612b0d565b604052919050565b600067ffffffffffffffff821115612c0157612c01612b0d565b5060051b60200190565b600082601f830112612c1c57600080fd5b81356020612c31612c2c83612be7565b612bb6565b82815260059290921b84018101918181019086841115612c5057600080fd5b8286015b84811015612c6b5780358352918301918301612c54565b509695505050505050565b600060408284031215612c8857600080fd5b612c90612b23565b9050813567ffffffffffffffff80821115612caa57600080fd5b612cb685838601612c0b565b83526020840135915080821115612ccc57600080fd5b50612cd984828501612c0b565b60208301525092915050565b803563ffffffff81168114612cf957600080fd5b919050565b600060c08284031215612d1057600080fd5b612d18612b4c565b905081358152602082013560208201526040820135604082015260608201356060820152612d4860808301612ce5565b608082015260a082013561ffff81168114612d6257600080fd5b60a082015292915050565b600060c08284031215612d7f57600080fd5b612d87612b4c565b9050813581526020820135602082015260408201356040820152612dad60608301612ce5565b6060820152612dbe60808301612ce5565b6080820152612d6260a08301612ce5565b600060e08284031215612de157600080fd5b612de9612b23565b90508135612df681612955565b8152612e058360208401612d6d565b602082015292915050565b60006103408284031215612e2357600080fd5b612e2b612b6f565b9050813567ffffffffffffffff80821115612e4557600080fd5b908301908185036102e0811215612e5b57600080fd5b612e63612b23565b6102c080831215612e7357600080fd5b612e7b612b92565b853581526020808701359082015260408087013590820152606080870135908201526080808701359082015260a0808701359082015260c0808701359082015260e08087013590820152610100808701359082015261012080870135908201526101408087013590820152610160808701359082015261018080870135908201526101a080870135908201526101c080870135818301526101e08088013590830152610200808801359083015261022080880135908301526102408088013590830152610260808801359083015261028080880135818401526102a080890135908401529184528287013594509085851115612f7657600080fd5b612f828a868901612c76565b6020850152838852612f978a60208b01612cfe565b6020890152612fa98a60e08b01612dcf565b6040890152612fba8a838b01612d6d565b6060890152612fcb8a828b01612d6d565b60808901525050505050505092915050565b600082601f830112612fee57600080fd5b813567ffffffffffffffff81111561300857613008612b0d565b61301b601f8201601f1916602001612bb6565b81815284602083860101111561303057600080fd5b816020850160208301376000918101602001919091529392505050565b600082601f83011261305e57600080fd5b8135602061306e612c2c83612be7565b82815260059290921b8401810191818101908684111561308d57600080fd5b8286015b84811015612c6b57803567ffffffffffffffff808211156130b25760008081fd5b9088019060e0828b03601f190112156130cb5760008081fd5b6130d3612b23565b86830135828111156130e55760008081fd5b6130f38c8983870101612fdd565b8252506131038b60408501612d6d565b8188015285525050918301918301613091565b600082601f83011261312757600080fd5b81356020613137612c2c83612be7565b82815260059290921b8401810191818101908684111561315657600080fd5b8286015b84811015612c6b57803567ffffffffffffffff8082111561317b5760008081fd5b908801906040828b03601f19018113156131955760008081fd5b61319d612b23565b87840135838111156131af5760008081fd5b6131bd8d8a83880101612fdd565b8252509201358683015250835291830191830161315a565b600080600080600080600060e0888a0312156131f057600080fd5b87356131fb81612955565b9650602088013561320b81612955565b95506040880135945060608801359350608088013567ffffffffffffffff8082111561323657600080fd5b6132428b838c01612e10565b945060a08a013591508082111561325857600080fd5b6132648b838c0161304d565b935060c08a013591508082111561327a57600080fd5b506132878a828b01613116565b91505092959891949750929550565b600080600080600080600060e0888a0312156132b157600080fd5b87356132bc81612955565b965060208801356132cc81612955565b955060408801356132dc81612955565b945060608801356132ec81612955565b935060808801356132fc81612955565b925060a088013561330c81612955565b915060c088013561331c81612955565b8091505092959891949750929550565b600181811c9082168061334057607f821691505b60208210810361336057634e487b7160e01b600052602260045260246000fd5b50919050565b601f8211156106ff57600081815260208120601f850160051c8101602086101561338d5750805b601f850160051c820191505b818110156133ac57828155600101613399565b505050505050565b815167ffffffffffffffff8111156133ce576133ce612b0d565b6133e2816133dc845461332c565b84613366565b602080601f83116001811461341757600084156133ff5750858301515b600019600386901b1c1916600185901b1785556133ac565b600085815260208120601f198616915b8281101561344657888601518255948401946001909101908401613427565b50858210156134645787850151600019600388901b60f8161c191681555b5050505050600190811b01905550565b6001600160a01b038416815260406020820152816040820152818360608301376000818301606090810191909152601f909201601f1916010192915050565b6000602082840312156134c557600080fd5b815161292481612955565b634e487b7160e01b600052601160045260246000fd5b80820180821115610602576106026134d0565b634e487b7160e01b600052603260045260246000fd5b600060018201613521576135216134d0565b5060010190565b600081518084526020808501945080840160005b838110156135585781518752958201959082019060010161353c565b509495945050505050565b60008151604084526135786040850182613528565b9050602083015184820360208601526135918282613528565b95945050505050565b6001600160a01b0384168152825160208083019190915283015160408083019190915283015160608083019190915283015160808083019190915283015160a08083019190915283015160c08083019190915283015160e08083019190915283015161010080830191909152830151610120808301919091528301516101408083019190915283015161016080830191909152830151610180808301919091528301516101a0808301919091528301516101c0808301919091528301516101e08083019190915283015161020080830191909152830151610220808301919091528301516102408083019190915283015161026080830191909152830151610280808301919091528301516102a0808301919091528301516102c08201526103006102e082018190526000906136d283820185613563565b9695505050505050565b6000602082840312156136ee57600080fd5b8151801515811461292457600080fd5b60006101006001600160a01b038616835280602084015261372181840186612a9c565b915050825160408301526020830151606083015260408301516080830152606083015163ffffffff80821660a08501528060808601511660c08501528060a08601511660e08501525050949350505050565b6001600160a01b03841681526060602082015260006137956060830185612a9c565b9050826040830152949350505050565b6040815260006137b86040830185612a9c565b90506001600160a01b03831660208301529392505050565b6020815260006129246020830184612a9c565b6040815260006137f66040830185612a9c565b90508260208301529392505050565b60006020828403121561381757600080fd5b5051919050565b7f416363657373436f6e74726f6c3a206163636f756e7420000000000000000000815260008351613856816017850160208801612a78565b7f206973206d697373696e6720726f6c65200000000000000000000000000000006017918401918201528351613893816028840160208801612a78565b01602801949350505050565b8082028115828204841417610602576106026134d0565b6000816138c5576138c56134d0565b50600019019056fe6f6e6c794d657373656e676572416e644c3150726f6a6563744d616e61676572206c3150726f6a6563744d616e616765722025736f6e6c794d657373656e676572416e644c3150726f6a6563744d616e616765722078446f6d61696e4d65737361676553656e646572202573696e697469616c5661756c74506172616d7320746f74616c416c6c6f6361746564416d6f756e742025736f6e6c794d657373656e676572416e644c3150726f6a6563744d616e61676572206d73672e73656e6465722025736f6e6c794d657373656e676572416e644c3150726f6a6563744d616e61676572206c3243726f7373446f6d61696e4d657373656e676572202573696e697469616c5661756c74506172616d732e746f74616c416c6c6f6361746564416d6f756e7420213d20304c3250726f6a6563744d616e6167657220746f74616c4e6f6e437573746f6d5363686564756c6520254c3250726f6a6563744d616e6167657220746f74616c437573746f6d5363686564756c6520254c3250726f6a6563744d616e616765722064697374726962757465734c32546f6b656e20696ea164736f6c6343000812000adf8b4c520ffe197c5343c6f5aec59570151ef9a492f2c624fd45ddde6135ec42",
  "linkReferences": {},
  "deployedLinkReferences": {}
}