{
  "_format": "hh-sol-artifact-1",
  "contractName": "L2ProjectManager",
  "sourceName": "contracts/L2/L2ProjectManager.sol",
  "abi": [
    {
      "inputs": [],
      "stateMutability": "nonpayable",
      "type": "constructor"
    },
    {
      "anonymous": false,
      "inputs": [
        {
          "indexed": true,
          "internalType": "address",
          "name": "l1Token",
          "type": "address"
        },
        {
          "indexed": true,
          "internalType": "address",
          "name": "l2Token",
          "type": "address"
        },
        {
          "indexed": false,
          "internalType": "address",
          "name": "projectOwner",
          "type": "address"
        },
        {
          "indexed": false,
          "internalType": "string",
          "name": "projectName",
          "type": "string"
        }
      ],
      "name": "CreatedL2Project",
      "type": "event"
    },
    {
      "anonymous": false,
      "inputs": [
        {
          "indexed": false,
          "internalType": "address",
          "name": "l1Token",
          "type": "address"
        },
        {
          "indexed": false,
          "internalType": "address",
          "name": "l2Token",
          "type": "address"
        },
        {
          "indexed": false,
          "internalType": "uint256",
          "name": "projectId",
          "type": "uint256"
        },
        {
          "indexed": false,
          "internalType": "uint256",
          "name": "totalAmount",
          "type": "uint256"
        },
        {
          "components": [
            {
              "components": [
                {
                  "internalType": "uint256",
                  "name": "totalAllocatedAmount",
                  "type": "uint256"
                }
              ],
              "internalType": "struct LibProject.InitalParameterPublicSaleVault",
              "name": "publicSaleParams",
              "type": "tuple"
            },
            {
              "components": [
                {
                  "internalType": "uint256",
                  "name": "totalAllocatedAmount",
                  "type": "uint256"
                },
                {
                  "internalType": "uint256",
                  "name": "tosPrice",
                  "type": "uint256"
                },
                {
                  "internalType": "uint256",
                  "name": "tokenPrice",
                  "type": "uint256"
                },
                {
                  "internalType": "uint256",
                  "name": "initSqrtPrice",
                  "type": "uint256"
                },
                {
                  "internalType": "uint256",
                  "name": "startTime",
                  "type": "uint256"
                },
                {
                  "internalType": "uint16",
                  "name": "fee",
                  "type": "uint16"
                }
              ],
              "internalType": "struct LibProject.InitalParameterInitialLiquidityVault",
              "name": "initialVaultParams",
              "type": "tuple"
            },
            {
              "components": [
                {
                  "internalType": "address",
                  "name": "poolAddress",
                  "type": "address"
                },
                {
                  "components": [
                    {
                      "internalType": "uint256",
                      "name": "totalAllocatedAmount",
                      "type": "uint256"
                    },
                    {
                      "internalType": "uint256",
                      "name": "totalClaimCount",
                      "type": "uint256"
                    },
                    {
                      "internalType": "uint256",
                      "name": "firstClaimAmount",
                      "type": "uint256"
                    },
                    {
                      "internalType": "uint32",
                      "name": "firstClaimTime",
                      "type": "uint32"
                    },
                    {
                      "internalType": "uint32",
                      "name": "secondClaimTime",
                      "type": "uint32"
                    },
                    {
                      "internalType": "uint32",
                      "name": "roundIntervalTime",
                      "type": "uint32"
                    }
                  ],
                  "internalType": "struct LibProject.InitalParameterScheduleVault",
                  "name": "params",
                  "type": "tuple"
                }
              ],
              "internalType": "struct LibProject.InitalParameterLiquidityRewardVault",
              "name": "rewardParams",
              "type": "tuple"
            },
            {
              "components": [
                {
                  "internalType": "uint256",
                  "name": "totalAllocatedAmount",
                  "type": "uint256"
                },
                {
                  "internalType": "uint256",
                  "name": "totalClaimCount",
                  "type": "uint256"
                },
                {
                  "internalType": "uint256",
                  "name": "firstClaimAmount",
                  "type": "uint256"
                },
                {
                  "internalType": "uint32",
                  "name": "firstClaimTime",
                  "type": "uint32"
                },
                {
                  "internalType": "uint32",
                  "name": "secondClaimTime",
                  "type": "uint32"
                },
                {
                  "internalType": "uint32",
                  "name": "roundIntervalTime",
                  "type": "uint32"
                }
              ],
              "internalType": "struct LibProject.InitalParameterScheduleVault",
              "name": "tosAirdropParams",
              "type": "tuple"
            },
            {
              "components": [
                {
                  "internalType": "uint256",
                  "name": "totalAllocatedAmount",
                  "type": "uint256"
                },
                {
                  "internalType": "uint256",
                  "name": "totalClaimCount",
                  "type": "uint256"
                },
                {
                  "internalType": "uint256",
                  "name": "firstClaimAmount",
                  "type": "uint256"
                },
                {
                  "internalType": "uint32",
                  "name": "firstClaimTime",
                  "type": "uint32"
                },
                {
                  "internalType": "uint32",
                  "name": "secondClaimTime",
                  "type": "uint32"
                },
                {
                  "internalType": "uint32",
                  "name": "roundIntervalTime",
                  "type": "uint32"
                }
              ],
              "internalType": "struct LibProject.InitalParameterScheduleVault",
              "name": "tonAirdropParams",
              "type": "tuple"
            }
          ],
          "indexed": false,
          "internalType": "struct LibProject.TokamakVaults",
          "name": "tokamakVaults",
          "type": "tuple"
        },
        {
          "components": [
            {
              "internalType": "uint256",
              "name": "totalAllocatedAmount",
              "type": "uint256"
            },
            {
              "internalType": "uint256",
              "name": "totalClaimCount",
              "type": "uint256"
            },
            {
              "internalType": "uint256",
              "name": "firstClaimAmount",
              "type": "uint256"
            },
            {
              "internalType": "uint32",
              "name": "firstClaimTime",
              "type": "uint32"
            },
            {
              "internalType": "uint32",
              "name": "secondClaimTime",
              "type": "uint32"
            },
            {
              "internalType": "uint32",
              "name": "roundIntervalTime",
              "type": "uint32"
            }
          ],
          "indexed": false,
          "internalType": "struct LibProject.InitalParameterScheduleVault[]",
          "name": "customScheduleVaults",
          "type": "tuple[]"
        },
        {
          "components": [
            {
              "internalType": "uint256",
              "name": "totalAllocatedAmount",
              "type": "uint256"
            }
          ],
          "indexed": false,
          "internalType": "struct LibProject.InitalParameterNonScheduleVault[]",
          "name": "customNonScheduleVaults",
          "type": "tuple[]"
        }
      ],
      "name": "DistributedL2Token",
      "type": "event"
    },
    {
      "anonymous": false,
      "inputs": [
        {
          "indexed": true,
          "internalType": "bytes32",
          "name": "role",
          "type": "bytes32"
        },
        {
          "indexed": true,
          "internalType": "bytes32",
          "name": "previousAdminRole",
          "type": "bytes32"
        },
        {
          "indexed": true,
          "internalType": "bytes32",
          "name": "newAdminRole",
          "type": "bytes32"
        }
      ],
      "name": "RoleAdminChanged",
      "type": "event"
    },
    {
      "anonymous": false,
      "inputs": [
        {
          "indexed": true,
          "internalType": "bytes32",
          "name": "role",
          "type": "bytes32"
        },
        {
          "indexed": true,
          "internalType": "address",
          "name": "account",
          "type": "address"
        },
        {
          "indexed": true,
          "internalType": "address",
          "name": "sender",
          "type": "address"
        }
      ],
      "name": "RoleGranted",
      "type": "event"
    },
    {
      "anonymous": false,
      "inputs": [
        {
          "indexed": true,
          "internalType": "bytes32",
          "name": "role",
          "type": "bytes32"
        },
        {
          "indexed": true,
          "internalType": "address",
          "name": "account",
          "type": "address"
        },
        {
          "indexed": true,
          "internalType": "address",
          "name": "sender",
          "type": "address"
        }
      ],
      "name": "RoleRevoked",
      "type": "event"
    },
    {
      "anonymous": false,
      "inputs": [
        {
          "indexed": false,
          "internalType": "uint256",
          "name": "projectId",
          "type": "uint256"
        },
        {
          "indexed": false,
          "internalType": "address",
          "name": "l2Token",
          "type": "address"
        },
        {
          "indexed": false,
          "internalType": "uint256",
          "name": "publicSaleTotalAllocatedAmount",
          "type": "uint256"
        },
        {
          "indexed": false,
          "internalType": "uint256",
          "name": "initialVaultTotalAllocatedAmount",
          "type": "uint256"
        },
        {
          "indexed": false,
          "internalType": "uint256",
          "name": "rewardTotalAllocatedAmount",
          "type": "uint256"
        },
        {
          "indexed": false,
          "internalType": "uint256",
          "name": "tosAirdropTotalAllocatedAmount",
          "type": "uint256"
        },
        {
          "indexed": false,
          "internalType": "uint256",
          "name": "tonAirdropTotalAllocatedAmount",
          "type": "uint256"
        }
      ],
      "name": "TokamakAllocatedAmount",
      "type": "event"
    },
    {
      "inputs": [],
      "name": "ADMIN_ROLE",
      "outputs": [
        {
          "internalType": "bytes32",
          "name": "",
          "type": "bytes32"
        }
      ],
      "stateMutability": "view",
      "type": "function"
    },
    {
      "inputs": [],
      "name": "DEFAULT_ADMIN_ROLE",
      "outputs": [
        {
          "internalType": "bytes32",
          "name": "",
          "type": "bytes32"
        }
      ],
      "stateMutability": "view",
      "type": "function"
    },
    {
      "inputs": [],
      "name": "POLICY_ROLE",
      "outputs": [
        {
          "internalType": "bytes32",
          "name": "",
          "type": "bytes32"
        }
      ],
      "stateMutability": "view",
      "type": "function"
    },
    {
      "inputs": [
        {
          "internalType": "address",
          "name": "account",
          "type": "address"
        }
      ],
      "name": "addAdmin",
      "outputs": [],
      "stateMutability": "nonpayable",
      "type": "function"
    },
    {
      "inputs": [
        {
          "internalType": "address",
          "name": "",
          "type": "address"
        }
      ],
      "name": "aliveImplementation",
      "outputs": [
        {
          "internalType": "bool",
          "name": "",
          "type": "bool"
        }
      ],
      "stateMutability": "view",
      "type": "function"
    },
    {
      "inputs": [
        {
          "internalType": "address",
          "name": "projectOwner",
          "type": "address"
        },
        {
          "internalType": "address",
          "name": "l1Token",
          "type": "address"
        },
        {
          "internalType": "address",
          "name": "l2Token",
          "type": "address"
        },
        {
          "internalType": "string",
          "name": "projectName",
          "type": "string"
        }
      ],
      "name": "createL2Project",
      "outputs": [],
      "stateMutability": "nonpayable",
      "type": "function"
    },
    {
      "inputs": [],
      "name": "daoVault",
      "outputs": [
        {
          "internalType": "address",
          "name": "",
          "type": "address"
        }
      ],
      "stateMutability": "view",
      "type": "function"
    },
    {
      "inputs": [
        {
          "internalType": "address",
          "name": "l1Token",
          "type": "address"
        },
        {
          "internalType": "address",
          "name": "l2Token",
          "type": "address"
        },
        {
          "internalType": "uint256",
          "name": "projectId",
          "type": "uint256"
        },
        {
          "internalType": "uint256",
          "name": "totalAmount",
          "type": "uint256"
        },
        {
          "components": [
            {
              "components": [
                {
                  "internalType": "uint256",
                  "name": "totalAllocatedAmount",
                  "type": "uint256"
                }
              ],
              "internalType": "struct LibProject.InitalParameterPublicSaleVault",
              "name": "publicSaleParams",
              "type": "tuple"
            },
            {
              "components": [
                {
                  "internalType": "uint256",
                  "name": "totalAllocatedAmount",
                  "type": "uint256"
                },
                {
                  "internalType": "uint256",
                  "name": "tosPrice",
                  "type": "uint256"
                },
                {
                  "internalType": "uint256",
                  "name": "tokenPrice",
                  "type": "uint256"
                },
                {
                  "internalType": "uint256",
                  "name": "initSqrtPrice",
                  "type": "uint256"
                },
                {
                  "internalType": "uint256",
                  "name": "startTime",
                  "type": "uint256"
                },
                {
                  "internalType": "uint16",
                  "name": "fee",
                  "type": "uint16"
                }
              ],
              "internalType": "struct LibProject.InitalParameterInitialLiquidityVault",
              "name": "initialVaultParams",
              "type": "tuple"
            },
            {
              "components": [
                {
                  "internalType": "address",
                  "name": "poolAddress",
                  "type": "address"
                },
                {
                  "components": [
                    {
                      "internalType": "uint256",
                      "name": "totalAllocatedAmount",
                      "type": "uint256"
                    },
                    {
                      "internalType": "uint256",
                      "name": "totalClaimCount",
                      "type": "uint256"
                    },
                    {
                      "internalType": "uint256",
                      "name": "firstClaimAmount",
                      "type": "uint256"
                    },
                    {
                      "internalType": "uint32",
                      "name": "firstClaimTime",
                      "type": "uint32"
                    },
                    {
                      "internalType": "uint32",
                      "name": "secondClaimTime",
                      "type": "uint32"
                    },
                    {
                      "internalType": "uint32",
                      "name": "roundIntervalTime",
                      "type": "uint32"
                    }
                  ],
                  "internalType": "struct LibProject.InitalParameterScheduleVault",
                  "name": "params",
                  "type": "tuple"
                }
              ],
              "internalType": "struct LibProject.InitalParameterLiquidityRewardVault",
              "name": "rewardParams",
              "type": "tuple"
            },
            {
              "components": [
                {
                  "internalType": "uint256",
                  "name": "totalAllocatedAmount",
                  "type": "uint256"
                },
                {
                  "internalType": "uint256",
                  "name": "totalClaimCount",
                  "type": "uint256"
                },
                {
                  "internalType": "uint256",
                  "name": "firstClaimAmount",
                  "type": "uint256"
                },
                {
                  "internalType": "uint32",
                  "name": "firstClaimTime",
                  "type": "uint32"
                },
                {
                  "internalType": "uint32",
                  "name": "secondClaimTime",
                  "type": "uint32"
                },
                {
                  "internalType": "uint32",
                  "name": "roundIntervalTime",
                  "type": "uint32"
                }
              ],
              "internalType": "struct LibProject.InitalParameterScheduleVault",
              "name": "tosAirdropParams",
              "type": "tuple"
            },
            {
              "components": [
                {
                  "internalType": "uint256",
                  "name": "totalAllocatedAmount",
                  "type": "uint256"
                },
                {
                  "internalType": "uint256",
                  "name": "totalClaimCount",
                  "type": "uint256"
                },
                {
                  "internalType": "uint256",
                  "name": "firstClaimAmount",
                  "type": "uint256"
                },
                {
                  "internalType": "uint32",
                  "name": "firstClaimTime",
                  "type": "uint32"
                },
                {
                  "internalType": "uint32",
                  "name": "secondClaimTime",
                  "type": "uint32"
                },
                {
                  "internalType": "uint32",
                  "name": "roundIntervalTime",
                  "type": "uint32"
                }
              ],
              "internalType": "struct LibProject.InitalParameterScheduleVault",
              "name": "tonAirdropParams",
              "type": "tuple"
            }
          ],
          "internalType": "struct LibProject.TokamakVaults",
          "name": "tokamakVaults",
          "type": "tuple"
        },
        {
          "components": [
            {
              "internalType": "uint256",
              "name": "totalAllocatedAmount",
              "type": "uint256"
            },
            {
              "internalType": "uint256",
              "name": "totalClaimCount",
              "type": "uint256"
            },
            {
              "internalType": "uint256",
              "name": "firstClaimAmount",
              "type": "uint256"
            },
            {
              "internalType": "uint32",
              "name": "firstClaimTime",
              "type": "uint32"
            },
            {
              "internalType": "uint32",
              "name": "secondClaimTime",
              "type": "uint32"
            },
            {
              "internalType": "uint32",
              "name": "roundIntervalTime",
              "type": "uint32"
            }
          ],
          "internalType": "struct LibProject.InitalParameterScheduleVault[]",
          "name": "customScheduleVaults",
          "type": "tuple[]"
        },
        {
          "components": [
            {
              "internalType": "uint256",
              "name": "totalAllocatedAmount",
              "type": "uint256"
            }
          ],
          "internalType": "struct LibProject.InitalParameterNonScheduleVault[]",
          "name": "customNonScheduleVaults",
          "type": "tuple[]"
        }
      ],
      "name": "distributesL2Token",
      "outputs": [],
      "stateMutability": "nonpayable",
      "type": "function"
    },
    {
      "inputs": [
        {
          "internalType": "bytes32",
          "name": "role",
          "type": "bytes32"
        }
      ],
      "name": "getRoleAdmin",
      "outputs": [
        {
          "internalType": "bytes32",
          "name": "",
          "type": "bytes32"
        }
      ],
      "stateMutability": "view",
      "type": "function"
    },
    {
      "inputs": [
        {
          "internalType": "bytes32",
          "name": "role",
          "type": "bytes32"
        },
        {
          "internalType": "address",
          "name": "account",
          "type": "address"
        }
      ],
      "name": "grantRole",
      "outputs": [],
      "stateMutability": "nonpayable",
      "type": "function"
    },
    {
      "inputs": [
        {
          "internalType": "bytes32",
          "name": "role",
          "type": "bytes32"
        },
        {
          "internalType": "address",
          "name": "account",
          "type": "address"
        }
      ],
      "name": "hasRole",
      "outputs": [
        {
          "internalType": "bool",
          "name": "",
          "type": "bool"
        }
      ],
      "stateMutability": "view",
      "type": "function"
    },
    {
      "inputs": [],
      "name": "initialLiquidityVault",
      "outputs": [
        {
          "internalType": "address",
          "name": "",
          "type": "address"
        }
      ],
      "stateMutability": "view",
      "type": "function"
    },
    {
      "inputs": [
        {
          "internalType": "address",
          "name": "account",
          "type": "address"
        }
      ],
      "name": "isAdmin",
      "outputs": [
        {
          "internalType": "bool",
          "name": "",
          "type": "bool"
        }
      ],
      "stateMutability": "view",
      "type": "function"
    },
    {
      "inputs": [],
      "name": "l1ProjectManager",
      "outputs": [
        {
          "internalType": "address",
          "name": "",
          "type": "address"
        }
      ],
      "stateMutability": "view",
      "type": "function"
    },
    {
      "inputs": [],
      "name": "l2CrossDomainMessenger",
      "outputs": [
        {
          "internalType": "address",
          "name": "",
          "type": "address"
        }
      ],
      "stateMutability": "view",
      "type": "function"
    },
    {
      "inputs": [],
      "name": "l2TokenFactory",
      "outputs": [
        {
          "internalType": "address",
          "name": "",
          "type": "address"
        }
      ],
      "stateMutability": "view",
      "type": "function"
    },
    {
      "inputs": [],
      "name": "liquidityRewardVault",
      "outputs": [
        {
          "internalType": "address",
          "name": "",
          "type": "address"
        }
      ],
      "stateMutability": "view",
      "type": "function"
    },
    {
      "inputs": [],
      "name": "marketingVault",
      "outputs": [
        {
          "internalType": "address",
          "name": "",
          "type": "address"
        }
      ],
      "stateMutability": "view",
      "type": "function"
    },
    {
      "inputs": [],
      "name": "pauseProxy",
      "outputs": [
        {
          "internalType": "bool",
          "name": "",
          "type": "bool"
        }
      ],
      "stateMutability": "view",
      "type": "function"
    },
    {
      "inputs": [
        {
          "internalType": "address",
          "name": "",
          "type": "address"
        }
      ],
      "name": "projects",
      "outputs": [
        {
          "internalType": "uint256",
          "name": "projectId",
          "type": "uint256"
        },
        {
          "internalType": "address",
          "name": "projectOwner",
          "type": "address"
        },
        {
          "internalType": "address",
          "name": "l1Token",
          "type": "address"
        },
        {
          "internalType": "address",
          "name": "l2Token",
          "type": "address"
        },
        {
          "internalType": "string",
          "name": "projectName",
          "type": "string"
        }
      ],
      "stateMutability": "view",
      "type": "function"
    },
    {
      "inputs": [
        {
          "internalType": "uint256",
          "name": "",
          "type": "uint256"
        }
      ],
      "name": "proxyImplementation",
      "outputs": [
        {
          "internalType": "address",
          "name": "",
          "type": "address"
        }
      ],
      "stateMutability": "view",
      "type": "function"
    },
    {
      "inputs": [],
      "name": "publicSaleVault",
      "outputs": [
        {
          "internalType": "address",
          "name": "",
          "type": "address"
        }
      ],
      "stateMutability": "view",
      "type": "function"
    },
    {
      "inputs": [
        {
          "internalType": "address",
          "name": "account",
          "type": "address"
        }
      ],
      "name": "removeAdmin",
      "outputs": [],
      "stateMutability": "nonpayable",
      "type": "function"
    },
    {
      "inputs": [
        {
          "internalType": "bytes32",
          "name": "role",
          "type": "bytes32"
        },
        {
          "internalType": "address",
          "name": "account",
          "type": "address"
        }
      ],
      "name": "renounceRole",
      "outputs": [],
      "stateMutability": "nonpayable",
      "type": "function"
    },
    {
      "inputs": [
        {
          "internalType": "bytes32",
          "name": "role",
          "type": "bytes32"
        },
        {
          "internalType": "address",
          "name": "account",
          "type": "address"
        }
      ],
      "name": "revokeRole",
      "outputs": [],
      "stateMutability": "nonpayable",
      "type": "function"
    },
    {
      "inputs": [
        {
          "internalType": "bytes4",
          "name": "",
          "type": "bytes4"
        }
      ],
      "name": "selectorImplementation",
      "outputs": [
        {
          "internalType": "address",
          "name": "",
          "type": "address"
        }
      ],
      "stateMutability": "view",
      "type": "function"
    },
    {
      "inputs": [
        {
          "internalType": "address",
          "name": "_l1ProjectManager",
          "type": "address"
        }
      ],
      "name": "setL1ProjectManager",
      "outputs": [],
      "stateMutability": "nonpayable",
      "type": "function"
    },
    {
      "inputs": [
        {
          "internalType": "address",
          "name": "_l2CrossDomainMessenger",
          "type": "address"
        }
      ],
      "name": "setL2CrossDomainMessenger",
      "outputs": [],
      "stateMutability": "nonpayable",
      "type": "function"
    },
    {
      "inputs": [
        {
          "internalType": "address",
          "name": "_l2TokenFactory",
          "type": "address"
        }
      ],
      "name": "setL2TokenFactory",
      "outputs": [],
      "stateMutability": "nonpayable",
      "type": "function"
    },
    {
      "inputs": [
        {
          "internalType": "address",
          "name": "publicSale",
          "type": "address"
        },
        {
          "internalType": "address",
          "name": "initialLiquidity",
          "type": "address"
        },
        {
          "internalType": "address",
          "name": "liquidityReward",
          "type": "address"
        },
        {
          "internalType": "address",
          "name": "tonAirdrop",
          "type": "address"
        },
        {
          "internalType": "address",
          "name": "tosAirdrop",
          "type": "address"
        }
      ],
      "name": "setTokamakVaults",
      "outputs": [],
      "stateMutability": "nonpayable",
      "type": "function"
    },
    {
      "inputs": [
        {
          "internalType": "bytes4",
          "name": "interfaceId",
          "type": "bytes4"
        }
      ],
      "name": "supportsInterface",
      "outputs": [
        {
          "internalType": "bool",
          "name": "",
          "type": "bool"
        }
      ],
      "stateMutability": "view",
      "type": "function"
    },
    {
      "inputs": [],
      "name": "teamVault",
      "outputs": [
        {
          "internalType": "address",
          "name": "",
          "type": "address"
        }
      ],
      "stateMutability": "view",
      "type": "function"
    },
    {
      "inputs": [
        {
          "internalType": "address",
          "name": "",
          "type": "address"
        }
      ],
      "name": "tokenMaps",
      "outputs": [
        {
          "internalType": "address",
          "name": "",
          "type": "address"
        }
      ],
      "stateMutability": "view",
      "type": "function"
    },
    {
      "inputs": [],
      "name": "tonAirdropVault",
      "outputs": [
        {
          "internalType": "address",
          "name": "",
          "type": "address"
        }
      ],
      "stateMutability": "view",
      "type": "function"
    },
    {
      "inputs": [],
      "name": "tosAirdropVault",
      "outputs": [
        {
          "internalType": "address",
          "name": "",
          "type": "address"
        }
      ],
      "stateMutability": "view",
      "type": "function"
    },
    {
      "inputs": [
        {
          "internalType": "address",
          "name": "newAdmin",
          "type": "address"
        }
      ],
      "name": "transferAdmin",
      "outputs": [],
      "stateMutability": "nonpayable",
      "type": "function"
    }
  ],
  "bytecode": "0x60806040526005805460ff191660011790553480156200001e57600080fd5b506200003a600080516020620028ac833981519152806200005b565b62000055600080516020620028ac83398151915233620000a6565b6200015a565b600082815260046020526040808220600101805490849055905190918391839186917fbd79b86ffe0ab8e8776151514217cd7cacd52c909f66475c3af44e129f0b00ff9190a4505050565b620000b28282620000b6565b5050565b60008281526004602090815260408083206001600160a01b038516845290915290205460ff16620000b25760008281526004602090815260408083206001600160a01b03851684529091529020805460ff19166001179055620001163390565b6001600160a01b0316816001600160a01b0316837f2f8788117e7eff1d82e926ec794901d17c78024a50270940304540a733656f0d60405160405180910390a45050565b612742806200016a6000396000f3fe608060405234801561001057600080fd5b506004361061025c5760003560e01c80637048027511610145578063bb3f397a116100bd578063d547741f1161008c578063eddd5e8211610071578063eddd5e82146105c6578063fbef005a146105d9578063fe1f33b4146105ec57600080fd5b8063d547741f146105a0578063eca7b836146105b357600080fd5b8063bb3f397a1461053e578063c26940eb14610551578063c51c773a14610564578063c5b53e681461057757600080fd5b8063840e78fd1161011457806391d14854116100f957806391d14854146104d4578063a217fddf1461050d578063b911135f1461051557600080fd5b8063840e78fd1461049d5780638ab5212b146104c157600080fd5b8063704802751461043857806374a9f5c11461044b57806375829def1461046357806375b238fc1461047657600080fd5b8063425d7058116101d8578063550d01a3116101a75780635f2144301161018c5780635f2144301461040557806363a8fd89146104185780636e53f4271461042557600080fd5b8063550d01a3146103cf5780635903bd6c146103f257600080fd5b8063425d70581461036d5780634bc4447b146103805780634c265a131461039357806350d2a276146103a657600080fd5b806324d7806c1161022f5780632c8917c8116102145780632c8917c8146103345780632f2ff15d1461034757806336568abe1461035a57600080fd5b806324d7806c146102f65780632966c4dd1461030957600080fd5b806301ffc9a7146102615780631785f53c14610289578063229852461461029e578063248a9ca3146102d3575b600080fd5b61027461026f366004611b93565b6105ff565b60405190151581526020015b60405180910390f35b61029c610297366004611bd2565b610636565b005b6102c57ffb5864e8ff833c3cb2d2d08505e82ff02a43554c74a35d4f5a64e8526127831181565b604051908152602001610280565b6102c56102e1366004611bef565b60009081526004602052604090206001015490565b610274610304366004611bd2565b6106c8565b600a5461031c906001600160a01b031681565b6040516001600160a01b039091168152602001610280565b60085461031c906001600160a01b031681565b61029c610355366004611c08565b610708565b61029c610368366004611c08565b610732565b61029c61037b366004611c38565b6107be565b61029c61038e366004611bd2565b610a52565b600d5461031c906001600160a01b031681565b61031c6103b4366004611b93565b6003602052600090815260409020546001600160a01b031681565b6102746103dd366004611bd2565b60026020526000908152604090205460ff1681565b600f5461031c906001600160a01b031681565b61029c610413366004611bd2565b610b57565b6000546102749060ff1681565b600b5461031c906001600160a01b031681565b61029c610446366004611bd2565b610c74565b60055461031c9061010090046001600160a01b031681565b61029c610471366004611bd2565b610cfe565b6102c57fdf8b4c520ffe197c5343c6f5aec59570151ef9a492f2c624fd45ddde6135ec4281565b6104b06104ab366004611bd2565b610e60565b604051610280959493929190611d30565b600e5461031c906001600160a01b031681565b6102746104e2366004611c08565b60009182526004602090815260408084206001600160a01b0393909316845291905290205460ff1690565b6102c5600081565b61031c610523366004611bef565b6001602052600090815260409020546001600160a01b031681565b61029c61054c366004611bd2565b610f27565b61029c61055f366004611d75565b61102c565b60095461031c906001600160a01b031681565b61031c610585366004611bd2565b6011602052600090815260409020546001600160a01b031681565b61029c6105ae366004611c08565b6112ba565b600c5461031c906001600160a01b031681565b60065461031c906001600160a01b031681565b60075461031c906001600160a01b031681565b61029c6105fa3660046120a9565b6112df565b60006001600160e01b03198216637965db0b60e01b148061063057506301ffc9a760e01b6001600160e01b03198316145b92915050565b61063f336106c8565b61069b5760405162461bcd60e51b815260206004820152602260248201527f41636365737369626c653a2043616c6c6572206973206e6f7420616e2061646d60448201526134b760f11b60648201526084015b60405180910390fd5b6106c57fdf8b4c520ffe197c5343c6f5aec59570151ef9a492f2c624fd45ddde6135ec4282610732565b50565b6001600160a01b03811660009081527f2fb794d17134dfdec181ddbac1babb5ab1eb140204ef4d982f294e7fc8b69022602052604081205460ff16610630565b6000828152600460205260409020600101546107238161182d565b61072d8383611837565b505050565b6001600160a01b03811633146107b05760405162461bcd60e51b815260206004820152602f60248201527f416363657373436f6e74726f6c3a2063616e206f6e6c792072656e6f756e636560448201527f20726f6c657320666f722073656c6600000000000000000000000000000000006064820152608401610692565b6107ba82826118d9565b5050565b6006546001600160a01b0316158015906107e257506006546001600160a01b031633145b61082e5760405162461bcd60e51b815260206004820152601c60248201527f63616c6c6572206973206e6f74206c32546f6b656e466163746f7279000000006044820152606401610692565b600081900361087f5760405162461bcd60e51b815260206004820152601360248201527f70726f6a6563744e616d65206973206e756c6c000000000000000000000000006044820152606401610692565b6001600160a01b0383811660009081526010602052604090206002015416156108ea5760405162461bcd60e51b815260206004820152600d60248201527f616c7265616479206164646564000000000000000000000000000000000000006044820152606401610692565b6040518060a0016040528060008152602001866001600160a01b03168152602001856001600160a01b03168152602001846001600160a01b0316815260200183838080601f01602080910402602001604051908101604052809392919081815260200183838082843760009201829052509390945250506001600160a01b0380871682526010602090815260409283902085518155908501516001820180549184166001600160a01b0319928316179055928501516002820180549184169185169190911790556060850151600382018054919093169316929092179055608083015190915060048201906109df90826122a9565b5050506001600160a01b038481166000818152601160205260409081902080546001600160a01b0319169387169384179055517f665c02e22efe28364a081a633646b8db53de75e45491bbd51cb302f6e1ab3a2190610a4390899087908790612369565b60405180910390a35050505050565b806001600160a01b038116610a8e5760405162461bcd60e51b81526020600482015260026024820152612d1960f11b6044820152606401610692565b610a97336106c8565b610aee5760405162461bcd60e51b815260206004820152602260248201527f41636365737369626c653a2043616c6c6572206973206e6f7420616e2061646d60448201526134b760f11b6064820152608401610692565b6007546001600160a01b03808416911603610b345760405162461bcd60e51b81526004016106929060208082526004908201526373616d6560e01b604082015260600190565b50600780546001600160a01b0319166001600160a01b0392909216919091179055565b806001600160a01b038116610b935760405162461bcd60e51b81526020600482015260026024820152612d1960f11b6044820152606401610692565b610b9c336106c8565b610bf35760405162461bcd60e51b815260206004820152602260248201527f41636365737369626c653a2043616c6c6572206973206e6f7420616e2061646d60448201526134b760f11b6064820152608401610692565b6005546001600160a01b038084166101009092041603610c3e5760405162461bcd60e51b81526004016106929060208082526004908201526373616d6560e01b604082015260600190565b50600580546001600160a01b039092166101000274ffffffffffffffffffffffffffffffffffffffff0019909216919091179055565b610c7d336106c8565b610cd45760405162461bcd60e51b815260206004820152602260248201527f41636365737369626c653a2043616c6c6572206973206e6f7420616e2061646d60448201526134b760f11b6064820152608401610692565b6106c57fdf8b4c520ffe197c5343c6f5aec59570151ef9a492f2c624fd45ddde6135ec4282610708565b610d07336106c8565b610d5e5760405162461bcd60e51b815260206004820152602260248201527f41636365737369626c653a2043616c6c6572206973206e6f7420616e2061646d60448201526134b760f11b6064820152608401610692565b6001600160a01b038116610db45760405162461bcd60e51b815260206004820152601860248201527f41636365737369626c653a207a65726f206164647265737300000000000000006044820152606401610692565b6001600160a01b0381163303610e0c5760405162461bcd60e51b815260206004820152601660248201527f41636365737369626c653a2073616d652061646d696e000000000000000000006044820152606401610692565b610e367fdf8b4c520ffe197c5343c6f5aec59570151ef9a492f2c624fd45ddde6135ec4282610708565b6106c57fdf8b4c520ffe197c5343c6f5aec59570151ef9a492f2c624fd45ddde6135ec4233610732565b6010602052600090815260409020805460018201546002830154600384015460048501805494956001600160a01b03948516959385169490921692610ea490612221565b80601f0160208091040260200160405190810160405280929190818152602001828054610ed090612221565b8015610f1d5780601f10610ef257610100808354040283529160200191610f1d565b820191906000526020600020905b815481529060010190602001808311610f0057829003601f168201915b5050505050905085565b806001600160a01b038116610f635760405162461bcd60e51b81526020600482015260026024820152612d1960f11b6044820152606401610692565b610f6c336106c8565b610fc35760405162461bcd60e51b815260206004820152602260248201527f41636365737369626c653a2043616c6c6572206973206e6f7420616e2061646d60448201526134b760f11b6064820152608401610692565b6006546001600160a01b038084169116036110095760405162461bcd60e51b81526004016106929060208082526004908201526373616d6560e01b604082015260600190565b50600680546001600160a01b0319166001600160a01b0392909216919091179055565b611035336106c8565b61108c5760405162461bcd60e51b815260206004820152602260248201527f41636365737369626c653a2043616c6c6572206973206e6f7420616e2061646d60448201526134b760f11b6064820152608401610692565b846001600160a01b0381166110c85760405162461bcd60e51b81526020600482015260026024820152612d1960f11b6044820152606401610692565b846001600160a01b0381166111045760405162461bcd60e51b81526020600482015260026024820152612d1960f11b6044820152606401610692565b846001600160a01b0381166111405760405162461bcd60e51b81526020600482015260026024820152612d1960f11b6044820152606401610692565b836001600160a01b03811661117c5760405162461bcd60e51b81526020600482015260026024820152612d1960f11b6044820152606401610692565b856001600160a01b0381166111b85760405162461bcd60e51b81526020600482015260026024820152612d1960f11b6044820152606401610692565b6008546001600160a01b038b811691161415806111e357506009546001600160a01b038a8116911614155b806111fc5750600a546001600160a01b03898116911614155b806112155750600b546001600160a01b03888116911614155b8061122e5750600c546001600160a01b03878116911614155b6112635760405162461bcd60e51b81526004016106929060208082526004908201526373616d6560e01b604082015260600190565b5050600880546001600160a01b03199081166001600160a01b039a8b1617909155600980548216988a16989098179097555050600b8054861693871693909317909255600c80549094169416939093179091555050565b6000828152600460205260409020600101546112d58161182d565b61072d83836118d9565b6007546001600160a01b031633148015611379575060055460075460408051636e296e4560e01b815290516101009093046001600160a01b0390811693921691636e296e45916004808201926020929091908290030181865afa15801561134a573d6000803e3d6000fd5b505050506040513d601f19601f8201168201806040525081019061136e91906123a8565b6001600160a01b0316145b6113d15760405162461bcd60e51b8152602060048201526024808201527f6e6f74206f6e6c794d657373656e676572416e644c3150726f6a6563744d616e60448201526330b3b2b960e11b6064820152608401610692565b866001600160a01b03811661140d5760405162461bcd60e51b81526020600482015260026024820152612d1960f11b6044820152606401610692565b866001600160a01b0381166114495760405162461bcd60e51b81526020600482015260026024820152612d1960f11b6044820152606401610692565b868060000361147f5760405162461bcd60e51b81526020600482015260026024820152615a3160f01b6044820152606401610692565b86806000036114b55760405162461bcd60e51b81526020600482015260026024820152615a3160f01b6044820152606401610692565b6001600160a01b03808b166000908152601060209081526040808320815160a0810183528154815260018201548616938101939093526002810154851691830191909152600381015490931660608201526004830180549293919260808401919061151f90612221565b80601f016020809104026020016040519081016040528092919081815260200182805461154b90612221565b80156115985780601f1061156d57610100808354040283529160200191611598565b820191906000526020600020905b81548152906001019060200180831161157b57829003601f168201915b50505050508152505090508b6001600160a01b031681604001516001600160a01b0316146116085760405162461bcd60e51b815260206004820152601360248201527f6e6f74206d617463686564206c31546f6b656e000000000000000000000000006044820152606401610692565b8a6001600160a01b031681606001516001600160a01b03161461166d5760405162461bcd60e51b815260206004820152601360248201527f6e6f74206d617463686564206c32546f6b656e000000000000000000000000006044820152606401610692565b60808801515160608901515160408a015160209081015151908b0151518b515160009493929161169c916123db565b6116a691906123db565b6116b091906123db565b6116ba91906123db565b905089811461170b5760405162461bcd60e51b815260206004820152601760248201527f6e6f74206d61746368656420746f74616c416d6f756e740000000000000000006044820152606401610692565b8a601060008e6001600160a01b03166001600160a01b03168152602001908152602001600020600001819055507fb41fe8952a329d170e5ad06921ded77c5cc0e659c047cea68e554fe17621ab298b8d8b60000151600001518c60200151600001518d6040015160200151600001518e60600151600001518f60800151600001516040516117d397969594939291909687526001600160a01b0395909516602087015260408601939093526060850191909152608084015260a083015260c082015260e00190565b60405180910390a17f2a27fa6c809a5a7168c022307eceb63305c66a258699dd13e9897927c63990758d8d8d8d8d8d8d6040516118169796959493929190612509565b60405180910390a150505050505050505050505050565b6106c5813361195c565b60008281526004602090815260408083206001600160a01b038516845290915290205460ff166107ba5760008281526004602090815260408083206001600160a01b03851684529091529020805460ff191660011790556118953390565b6001600160a01b0316816001600160a01b0316837f2f8788117e7eff1d82e926ec794901d17c78024a50270940304540a733656f0d60405160405180910390a45050565b60008281526004602090815260408083206001600160a01b038516845290915290205460ff16156107ba5760008281526004602090815260408083206001600160a01b0385168085529252808320805460ff1916905551339285917ff6391f5c32d9c69d2a47ea670b442974b53935d1edc7fd64eb21e047a839171b9190a45050565b60008281526004602090815260408083206001600160a01b038516845290915290205460ff166107ba5761198f816119d1565b61199a8360206119e3565b6040516020016119ab92919061265d565b60408051601f198184030181529082905262461bcd60e51b8252610692916004016126de565b60606106306001600160a01b03831660145b606060006119f28360026126f1565b6119fd9060026123db565b67ffffffffffffffff811115611a1557611a15611de6565b6040519080825280601f01601f191660200182016040528015611a3f576020820181803683370190505b509050600360fc1b81600081518110611a5a57611a5a612708565b60200101906001600160f81b031916908160001a905350600f60fb1b81600181518110611a8957611a89612708565b60200101906001600160f81b031916908160001a9053506000611aad8460026126f1565b611ab89060016123db565b90505b6001811115611b3d577f303132333435363738396162636465660000000000000000000000000000000085600f1660108110611af957611af9612708565b1a60f81b828281518110611b0f57611b0f612708565b60200101906001600160f81b031916908160001a90535060049490941c93611b368161271e565b9050611abb565b508315611b8c5760405162461bcd60e51b815260206004820181905260248201527f537472696e67733a20686578206c656e67746820696e73756666696369656e746044820152606401610692565b9392505050565b600060208284031215611ba557600080fd5b81356001600160e01b031981168114611b8c57600080fd5b6001600160a01b03811681146106c557600080fd5b600060208284031215611be457600080fd5b8135611b8c81611bbd565b600060208284031215611c0157600080fd5b5035919050565b60008060408385031215611c1b57600080fd5b823591506020830135611c2d81611bbd565b809150509250929050565b600080600080600060808688031215611c5057600080fd5b8535611c5b81611bbd565b94506020860135611c6b81611bbd565b93506040860135611c7b81611bbd565b9250606086013567ffffffffffffffff80821115611c9857600080fd5b818801915088601f830112611cac57600080fd5b813581811115611cbb57600080fd5b896020828501011115611ccd57600080fd5b9699959850939650602001949392505050565b60005b83811015611cfb578181015183820152602001611ce3565b50506000910152565b60008151808452611d1c816020860160208601611ce0565b601f01601f19169290920160200192915050565b85815260006001600160a01b038087166020840152808616604084015280851660608401525060a06080830152611d6a60a0830184611d04565b979650505050505050565b600080600080600060a08688031215611d8d57600080fd5b8535611d9881611bbd565b94506020860135611da881611bbd565b93506040860135611db881611bbd565b92506060860135611dc881611bbd565b91506080860135611dd881611bbd565b809150509295509295909350565b634e487b7160e01b600052604160045260246000fd5b60405160c0810167ffffffffffffffff81118282101715611e1f57611e1f611de6565b60405290565b60405160a0810167ffffffffffffffff81118282101715611e1f57611e1f611de6565b604051601f8201601f1916810167ffffffffffffffff81118282101715611e7157611e71611de6565b604052919050565b600060208284031215611e8b57600080fd5b6040516020810181811067ffffffffffffffff82111715611eae57611eae611de6565b6040529135825250919050565b803563ffffffff81168114611ecf57600080fd5b919050565b600060c08284031215611ee657600080fd5b611eee611dfc565b9050813581526020820135602082015260408201356040820152611f1460608301611ebb565b6060820152611f2560808301611ebb565b6080820152611f3660a08301611ebb565b60a082015292915050565b600060e08284031215611f5357600080fd5b6040516040810181811067ffffffffffffffff82111715611f7657611f76611de6565b6040529050808235611f8781611bbd565b8152611f968460208501611ed4565b60208201525092915050565b600067ffffffffffffffff821115611fbc57611fbc611de6565b5060051b60200190565b600082601f830112611fd757600080fd5b81356020611fec611fe783611fa2565b611e48565b82815260c0928302850182019282820191908785111561200b57600080fd5b8387015b8581101561202e576120218982611ed4565b845292840192810161200f565b5090979650505050505050565b600082601f83011261204c57600080fd5b8135602061205c611fe783611fa2565b82815260059290921b8401810191818101908684111561207b57600080fd5b8286015b8481101561209e576120918882611e79565b835291830191830161207f565b509695505050505050565b60008060008060008060008789036104008112156120c657600080fd5b88356120d181611bbd565b975060208901356120e181611bbd565b96506040890135955060608901359450610340607f198201121561210457600080fd5b61210c611e25565b6121198b60808c01611e79565b815260c0609f198301121561212d57600080fd5b612135611dfc565b915060a08a0135825260c08a0135602083015260e08a013560408301526101008a013560608301526101208a013560808301526101408a013561ffff8116811461217e57600080fd5b60a0830152602081018290526121988b6101608c01611f41565b60408201526121ab8b6102408c01611ed4565b60608201526121be8b6103008c01611ed4565b60808201529350506103c088013567ffffffffffffffff808211156121e257600080fd5b6121ee8b838c01611fc6565b93506103e08a013591508082111561220557600080fd5b506122128a828b0161203b565b91505092959891949750929550565b600181811c9082168061223557607f821691505b60208210810361225557634e487b7160e01b600052602260045260246000fd5b50919050565b601f82111561072d57600081815260208120601f850160051c810160208610156122825750805b601f850160051c820191505b818110156122a15782815560010161228e565b505050505050565b815167ffffffffffffffff8111156122c3576122c3611de6565b6122d7816122d18454612221565b8461225b565b602080601f83116001811461230c57600084156122f45750858301515b600019600386901b1c1916600185901b1785556122a1565b600085815260208120601f198616915b8281101561233b5788860151825594840194600190910190840161231c565b50858210156123595787850151600019600388901b60f8161c191681555b5050505050600190811b01905550565b6001600160a01b038416815260406020820152816040820152818360608301376000818301606090810191909152601f909201601f1916010192915050565b6000602082840312156123ba57600080fd5b8151611b8c81611bbd565b634e487b7160e01b600052601160045260246000fd5b80820180821115610630576106306123c5565b6001600160a01b038151168252602081015161072d6020840182805182526020810151602083015260408101516040830152606081015163ffffffff80821660608501528060808401511660808501528060a08401511660a085015250505050565b600081518084526020808501945080840160005b838110156124cd576124ba878351805182526020810151602083015260408101516040830152606081015163ffffffff80821660608501528060808401511660808501528060a08401511660a085015250505050565b60c0969096019590820190600101612464565b509495945050505050565b600081518084526020808501945080840160005b838110156124cd57815151875295820195908201906001016124ec565b60006104006001600160a01b03808b168452808a1660208501525087604084015286606084015285515160808401526020860151805160a0850152602081015160c0850152604081015160e08501526060810151610100850152608081015161012085015261ffff60a0820151166101408501525060408601516125916101608501826123ee565b5060608681015180516102408601526020808201516102608701526040808301516102808801528284015163ffffffff9081166102a089015260808085015182166102c08a015260a09485015182166102e08a0152808c015180516103008b0152938401516103208a01529183015161034089015293820151841661036088015281015183166103808701520151166103a08401526103c0830181905261263a81840186612450565b90508281036103e084015261264f81856124d8565b9a9950505050505050505050565b7f416363657373436f6e74726f6c3a206163636f756e7420000000000000000000815260008351612695816017850160208801611ce0565b7f206973206d697373696e6720726f6c652000000000000000000000000000000060179184019182015283516126d2816028840160208801611ce0565b01602801949350505050565b602081526000611b8c6020830184611d04565b8082028115828204841417610630576106306123c5565b634e487b7160e01b600052603260045260246000fd5b60008161272d5761272d6123c5565b50600019019056fea164736f6c6343000812000adf8b4c520ffe197c5343c6f5aec59570151ef9a492f2c624fd45ddde6135ec42",
  "linkReferences": {},
  "deployedLinkReferences": {}
}