{
  "_format": "hh-sol-artifact-1",
  "contractName": "L2ProjectManager",
  "sourceName": "contracts/L2/L2ProjectManager.sol",
  "abi": [
    {
      "inputs": [],
      "stateMutability": "nonpayable",
      "type": "constructor"
    },
    {
      "anonymous": false,
      "inputs": [
        {
          "indexed": true,
          "internalType": "address",
          "name": "l1Token",
          "type": "address"
        },
        {
          "indexed": true,
          "internalType": "address",
          "name": "l2Token",
          "type": "address"
        },
        {
          "indexed": false,
          "internalType": "address",
          "name": "projectOwner",
          "type": "address"
        },
        {
          "indexed": false,
          "internalType": "string",
          "name": "projectName",
          "type": "string"
        }
      ],
      "name": "CreatedL2Project",
      "type": "event"
    },
    {
      "anonymous": false,
      "inputs": [
        {
          "indexed": false,
          "internalType": "address",
          "name": "l1Token",
          "type": "address"
        },
        {
          "indexed": false,
          "internalType": "address",
          "name": "l2Token",
          "type": "address"
        },
        {
          "indexed": false,
          "internalType": "uint256",
          "name": "projectId",
          "type": "uint256"
        },
        {
          "indexed": false,
          "internalType": "uint256",
          "name": "totalAmount",
          "type": "uint256"
        }
      ],
      "name": "DistributedL2Token",
      "type": "event"
    },
    {
      "anonymous": false,
      "inputs": [
        {
          "indexed": true,
          "internalType": "bytes32",
          "name": "role",
          "type": "bytes32"
        },
        {
          "indexed": true,
          "internalType": "bytes32",
          "name": "previousAdminRole",
          "type": "bytes32"
        },
        {
          "indexed": true,
          "internalType": "bytes32",
          "name": "newAdminRole",
          "type": "bytes32"
        }
      ],
      "name": "RoleAdminChanged",
      "type": "event"
    },
    {
      "anonymous": false,
      "inputs": [
        {
          "indexed": true,
          "internalType": "bytes32",
          "name": "role",
          "type": "bytes32"
        },
        {
          "indexed": true,
          "internalType": "address",
          "name": "account",
          "type": "address"
        },
        {
          "indexed": true,
          "internalType": "address",
          "name": "sender",
          "type": "address"
        }
      ],
      "name": "RoleGranted",
      "type": "event"
    },
    {
      "anonymous": false,
      "inputs": [
        {
          "indexed": true,
          "internalType": "bytes32",
          "name": "role",
          "type": "bytes32"
        },
        {
          "indexed": true,
          "internalType": "address",
          "name": "account",
          "type": "address"
        },
        {
          "indexed": true,
          "internalType": "address",
          "name": "sender",
          "type": "address"
        }
      ],
      "name": "RoleRevoked",
      "type": "event"
    },
    {
      "inputs": [],
      "name": "ADMIN_ROLE",
      "outputs": [
        {
          "internalType": "bytes32",
          "name": "",
          "type": "bytes32"
        }
      ],
      "stateMutability": "view",
      "type": "function"
    },
    {
      "inputs": [],
      "name": "DEFAULT_ADMIN_ROLE",
      "outputs": [
        {
          "internalType": "bytes32",
          "name": "",
          "type": "bytes32"
        }
      ],
      "stateMutability": "view",
      "type": "function"
    },
    {
      "inputs": [],
      "name": "POLICY_ROLE",
      "outputs": [
        {
          "internalType": "bytes32",
          "name": "",
          "type": "bytes32"
        }
      ],
      "stateMutability": "view",
      "type": "function"
    },
    {
      "inputs": [
        {
          "internalType": "address",
          "name": "account",
          "type": "address"
        }
      ],
      "name": "addAdmin",
      "outputs": [],
      "stateMutability": "nonpayable",
      "type": "function"
    },
    {
      "inputs": [
        {
          "internalType": "address",
          "name": "",
          "type": "address"
        }
      ],
      "name": "aliveImplementation",
      "outputs": [
        {
          "internalType": "bool",
          "name": "",
          "type": "bool"
        }
      ],
      "stateMutability": "view",
      "type": "function"
    },
    {
      "inputs": [
        {
          "internalType": "address",
          "name": "l2Token",
          "type": "address"
        },
        {
          "internalType": "string[]",
          "name": "scheduleVaultNames",
          "type": "string[]"
        }
      ],
      "name": "availableClaimAll",
      "outputs": [
        {
          "internalType": "bool",
          "name": "",
          "type": "bool"
        }
      ],
      "stateMutability": "view",
      "type": "function"
    },
    {
      "inputs": [
        {
          "internalType": "address",
          "name": "l2Token",
          "type": "address"
        },
        {
          "internalType": "string[]",
          "name": "scheduleVaultNames",
          "type": "string[]"
        }
      ],
      "name": "claimAll",
      "outputs": [],
      "stateMutability": "nonpayable",
      "type": "function"
    },
    {
      "inputs": [
        {
          "internalType": "address",
          "name": "projectOwner",
          "type": "address"
        },
        {
          "internalType": "address",
          "name": "l1Token",
          "type": "address"
        },
        {
          "internalType": "address",
          "name": "l2Token",
          "type": "address"
        },
        {
          "internalType": "string",
          "name": "projectName",
          "type": "string"
        }
      ],
      "name": "createL2Project",
      "outputs": [],
      "stateMutability": "nonpayable",
      "type": "function"
    },
    {
      "inputs": [
        {
          "internalType": "address",
          "name": "l1Token",
          "type": "address"
        },
        {
          "internalType": "address",
          "name": "l2Token",
          "type": "address"
        },
        {
          "internalType": "uint256",
          "name": "projectId",
          "type": "uint256"
        },
        {
          "internalType": "uint256",
          "name": "totalAmount",
          "type": "uint256"
        },
        {
          "components": [
            {
              "components": [
                {
                  "components": [
                    {
                      "internalType": "uint256",
                      "name": "stosTier1",
                      "type": "uint256"
                    },
                    {
                      "internalType": "uint256",
                      "name": "stosTier2",
                      "type": "uint256"
                    },
                    {
                      "internalType": "uint256",
                      "name": "stosTier3",
                      "type": "uint256"
                    },
                    {
                      "internalType": "uint256",
                      "name": "stosTier4",
                      "type": "uint256"
                    },
                    {
                      "internalType": "uint256",
                      "name": "tier1Percents",
                      "type": "uint256"
                    },
                    {
                      "internalType": "uint256",
                      "name": "tier2Percents",
                      "type": "uint256"
                    },
                    {
                      "internalType": "uint256",
                      "name": "tier3Percents",
                      "type": "uint256"
                    },
                    {
                      "internalType": "uint256",
                      "name": "tier4Percents",
                      "type": "uint256"
                    },
                    {
                      "internalType": "uint256",
                      "name": "total1roundSaleAmount",
                      "type": "uint256"
                    },
                    {
                      "internalType": "uint256",
                      "name": "total2roundSaleAmount",
                      "type": "uint256"
                    },
                    {
                      "internalType": "uint256",
                      "name": "saleTokenPrice",
                      "type": "uint256"
                    },
                    {
                      "internalType": "uint256",
                      "name": "payTokenPrice",
                      "type": "uint256"
                    },
                    {
                      "internalType": "uint256",
                      "name": "hardcapAmount",
                      "type": "uint256"
                    },
                    {
                      "internalType": "uint256",
                      "name": "changeTOSPercent",
                      "type": "uint256"
                    },
                    {
                      "internalType": "uint256",
                      "name": "startWhiteTime",
                      "type": "uint256"
                    },
                    {
                      "internalType": "uint256",
                      "name": "endWhiteTime",
                      "type": "uint256"
                    },
                    {
                      "internalType": "uint256",
                      "name": "start1roundTime",
                      "type": "uint256"
                    },
                    {
                      "internalType": "uint256",
                      "name": "end1roundTime",
                      "type": "uint256"
                    },
                    {
                      "internalType": "uint256",
                      "name": "snapshotTime",
                      "type": "uint256"
                    },
                    {
                      "internalType": "uint256",
                      "name": "start2roundTime",
                      "type": "uint256"
                    },
                    {
                      "internalType": "uint256",
                      "name": "end2roundTime",
                      "type": "uint256"
                    }
                  ],
                  "internalType": "struct LibProject.InitalParameterPublicSaleVault",
                  "name": "vaultParams",
                  "type": "tuple"
                },
                {
                  "components": [
                    {
                      "internalType": "uint256",
                      "name": "claimCounts",
                      "type": "uint256"
                    },
                    {
                      "internalType": "uint256",
                      "name": "firstClaimPercent",
                      "type": "uint256"
                    },
                    {
                      "internalType": "uint256",
                      "name": "firstClaimTime",
                      "type": "uint256"
                    },
                    {
                      "internalType": "uint256",
                      "name": "secondClaimTime",
                      "type": "uint256"
                    },
                    {
                      "internalType": "uint256",
                      "name": "roundInterval",
                      "type": "uint256"
                    }
                  ],
                  "internalType": "struct LibProject.InitalParameterPublicSaleClaim",
                  "name": "claimParams",
                  "type": "tuple"
                },
                {
                  "components": [
                    {
                      "internalType": "address",
                      "name": "receiveAddress",
                      "type": "address"
                    },
                    {
                      "internalType": "uint256",
                      "name": "totalClaimCount",
                      "type": "uint256"
                    },
                    {
                      "internalType": "uint256",
                      "name": "firstClaimPercent",
                      "type": "uint256"
                    },
                    {
                      "internalType": "uint256",
                      "name": "firstClaimTime",
                      "type": "uint256"
                    },
                    {
                      "internalType": "uint256",
                      "name": "secondClaimTime",
                      "type": "uint256"
                    },
                    {
                      "internalType": "uint256",
                      "name": "roundIntervalTime",
                      "type": "uint256"
                    },
                    {
                      "internalType": "uint24",
                      "name": "fee",
                      "type": "uint24"
                    }
                  ],
                  "internalType": "struct LibProject.InitalParameterVestingFundVault",
                  "name": "vestingParams",
                  "type": "tuple"
                }
              ],
              "internalType": "struct LibProject.InitalParameterPublicSale",
              "name": "publicSaleParams",
              "type": "tuple"
            },
            {
              "components": [
                {
                  "internalType": "uint256",
                  "name": "totalAllocatedAmount",
                  "type": "uint256"
                },
                {
                  "internalType": "uint256",
                  "name": "tosPrice",
                  "type": "uint256"
                },
                {
                  "internalType": "uint256",
                  "name": "tokenPrice",
                  "type": "uint256"
                },
                {
                  "internalType": "uint256",
                  "name": "initSqrtPrice",
                  "type": "uint256"
                },
                {
                  "internalType": "uint32",
                  "name": "startTime",
                  "type": "uint32"
                },
                {
                  "internalType": "uint16",
                  "name": "fee",
                  "type": "uint16"
                }
              ],
              "internalType": "struct LibProject.InitalParameterInitialLiquidityVault",
              "name": "initialVaultParams",
              "type": "tuple"
            },
            {
              "components": [
                {
                  "components": [
                    {
                      "internalType": "address",
                      "name": "token0",
                      "type": "address"
                    },
                    {
                      "internalType": "address",
                      "name": "token1",
                      "type": "address"
                    },
                    {
                      "internalType": "uint24",
                      "name": "fee",
                      "type": "uint24"
                    }
                  ],
                  "internalType": "struct LibPool.PoolInfo",
                  "name": "poolParams",
                  "type": "tuple"
                },
                {
                  "components": [
                    {
                      "internalType": "address",
                      "name": "claimer",
                      "type": "address"
                    },
                    {
                      "internalType": "uint256",
                      "name": "totalAllocatedAmount",
                      "type": "uint256"
                    },
                    {
                      "internalType": "uint256",
                      "name": "totalClaimCount",
                      "type": "uint256"
                    },
                    {
                      "internalType": "uint256",
                      "name": "firstClaimAmount",
                      "type": "uint256"
                    },
                    {
                      "internalType": "uint32",
                      "name": "firstClaimTime",
                      "type": "uint32"
                    },
                    {
                      "internalType": "uint32",
                      "name": "secondClaimTime",
                      "type": "uint32"
                    },
                    {
                      "internalType": "uint32",
                      "name": "roundIntervalTime",
                      "type": "uint32"
                    }
                  ],
                  "internalType": "struct LibProject.InitalParameterScheduleVault",
                  "name": "params",
                  "type": "tuple"
                }
              ],
              "internalType": "struct LibProject.InitalParameterLiquidityRewardVault",
              "name": "rewardTonTosPoolParams",
              "type": "tuple"
            },
            {
              "components": [
                {
                  "components": [
                    {
                      "internalType": "address",
                      "name": "token0",
                      "type": "address"
                    },
                    {
                      "internalType": "address",
                      "name": "token1",
                      "type": "address"
                    },
                    {
                      "internalType": "uint24",
                      "name": "fee",
                      "type": "uint24"
                    }
                  ],
                  "internalType": "struct LibPool.PoolInfo",
                  "name": "poolParams",
                  "type": "tuple"
                },
                {
                  "components": [
                    {
                      "internalType": "address",
                      "name": "claimer",
                      "type": "address"
                    },
                    {
                      "internalType": "uint256",
                      "name": "totalAllocatedAmount",
                      "type": "uint256"
                    },
                    {
                      "internalType": "uint256",
                      "name": "totalClaimCount",
                      "type": "uint256"
                    },
                    {
                      "internalType": "uint256",
                      "name": "firstClaimAmount",
                      "type": "uint256"
                    },
                    {
                      "internalType": "uint32",
                      "name": "firstClaimTime",
                      "type": "uint32"
                    },
                    {
                      "internalType": "uint32",
                      "name": "secondClaimTime",
                      "type": "uint32"
                    },
                    {
                      "internalType": "uint32",
                      "name": "roundIntervalTime",
                      "type": "uint32"
                    }
                  ],
                  "internalType": "struct LibProject.InitalParameterScheduleVault",
                  "name": "params",
                  "type": "tuple"
                }
              ],
              "internalType": "struct LibProject.InitalParameterLiquidityRewardVault",
              "name": "rewardProjectTosPoolParams",
              "type": "tuple"
            },
            {
              "components": [
                {
                  "internalType": "address",
                  "name": "claimer",
                  "type": "address"
                },
                {
                  "internalType": "uint256",
                  "name": "totalAllocatedAmount",
                  "type": "uint256"
                },
                {
                  "internalType": "uint256",
                  "name": "totalClaimCount",
                  "type": "uint256"
                },
                {
                  "internalType": "uint256",
                  "name": "firstClaimAmount",
                  "type": "uint256"
                },
                {
                  "internalType": "uint32",
                  "name": "firstClaimTime",
                  "type": "uint32"
                },
                {
                  "internalType": "uint32",
                  "name": "secondClaimTime",
                  "type": "uint32"
                },
                {
                  "internalType": "uint32",
                  "name": "roundIntervalTime",
                  "type": "uint32"
                }
              ],
              "internalType": "struct LibProject.InitalParameterScheduleVault",
              "name": "tosAirdropParams",
              "type": "tuple"
            },
            {
              "components": [
                {
                  "internalType": "address",
                  "name": "claimer",
                  "type": "address"
                },
                {
                  "internalType": "uint256",
                  "name": "totalAllocatedAmount",
                  "type": "uint256"
                },
                {
                  "internalType": "uint256",
                  "name": "totalClaimCount",
                  "type": "uint256"
                },
                {
                  "internalType": "uint256",
                  "name": "firstClaimAmount",
                  "type": "uint256"
                },
                {
                  "internalType": "uint32",
                  "name": "firstClaimTime",
                  "type": "uint32"
                },
                {
                  "internalType": "uint32",
                  "name": "secondClaimTime",
                  "type": "uint32"
                },
                {
                  "internalType": "uint32",
                  "name": "roundIntervalTime",
                  "type": "uint32"
                }
              ],
              "internalType": "struct LibProject.InitalParameterScheduleVault",
              "name": "tonAirdropParams",
              "type": "tuple"
            }
          ],
          "internalType": "struct LibProject.TokamakVaults",
          "name": "tokamakVaults",
          "type": "tuple"
        },
        {
          "components": [
            {
              "internalType": "string",
              "name": "vaultName",
              "type": "string"
            },
            {
              "components": [
                {
                  "internalType": "address",
                  "name": "claimer",
                  "type": "address"
                },
                {
                  "internalType": "uint256",
                  "name": "totalAllocatedAmount",
                  "type": "uint256"
                },
                {
                  "internalType": "uint256",
                  "name": "totalClaimCount",
                  "type": "uint256"
                },
                {
                  "internalType": "uint256",
                  "name": "firstClaimAmount",
                  "type": "uint256"
                },
                {
                  "internalType": "uint32",
                  "name": "firstClaimTime",
                  "type": "uint32"
                },
                {
                  "internalType": "uint32",
                  "name": "secondClaimTime",
                  "type": "uint32"
                },
                {
                  "internalType": "uint32",
                  "name": "roundIntervalTime",
                  "type": "uint32"
                }
              ],
              "internalType": "struct LibProject.InitalParameterScheduleVault",
              "name": "params",
              "type": "tuple"
            }
          ],
          "internalType": "struct LibProject.InitalParameterSchedule[]",
          "name": "customScheduleVaults",
          "type": "tuple[]"
        },
        {
          "components": [
            {
              "internalType": "string",
              "name": "vaultName",
              "type": "string"
            },
            {
              "internalType": "address",
              "name": "claimer",
              "type": "address"
            },
            {
              "internalType": "uint256",
              "name": "totalAllocatedAmount",
              "type": "uint256"
            }
          ],
          "internalType": "struct LibProject.InitalParameterNonScheduleVault[]",
          "name": "customNonScheduleVaults",
          "type": "tuple[]"
        }
      ],
      "name": "distributesL2Token",
      "outputs": [],
      "stateMutability": "nonpayable",
      "type": "function"
    },
    {
      "inputs": [
        {
          "internalType": "address",
          "name": "l1Token",
          "type": "address"
        },
        {
          "internalType": "address",
          "name": "l2Token",
          "type": "address"
        },
        {
          "internalType": "uint256",
          "name": "projectId",
          "type": "uint256"
        },
        {
          "internalType": "uint256",
          "name": "totalAmount",
          "type": "uint256"
        },
        {
          "components": [
            {
              "components": [
                {
                  "components": [
                    {
                      "internalType": "uint256",
                      "name": "stosTier1",
                      "type": "uint256"
                    },
                    {
                      "internalType": "uint256",
                      "name": "stosTier2",
                      "type": "uint256"
                    },
                    {
                      "internalType": "uint256",
                      "name": "stosTier3",
                      "type": "uint256"
                    },
                    {
                      "internalType": "uint256",
                      "name": "stosTier4",
                      "type": "uint256"
                    },
                    {
                      "internalType": "uint256",
                      "name": "tier1Percents",
                      "type": "uint256"
                    },
                    {
                      "internalType": "uint256",
                      "name": "tier2Percents",
                      "type": "uint256"
                    },
                    {
                      "internalType": "uint256",
                      "name": "tier3Percents",
                      "type": "uint256"
                    },
                    {
                      "internalType": "uint256",
                      "name": "tier4Percents",
                      "type": "uint256"
                    },
                    {
                      "internalType": "uint256",
                      "name": "total1roundSaleAmount",
                      "type": "uint256"
                    },
                    {
                      "internalType": "uint256",
                      "name": "total2roundSaleAmount",
                      "type": "uint256"
                    },
                    {
                      "internalType": "uint256",
                      "name": "saleTokenPrice",
                      "type": "uint256"
                    },
                    {
                      "internalType": "uint256",
                      "name": "payTokenPrice",
                      "type": "uint256"
                    },
                    {
                      "internalType": "uint256",
                      "name": "hardcapAmount",
                      "type": "uint256"
                    },
                    {
                      "internalType": "uint256",
                      "name": "changeTOSPercent",
                      "type": "uint256"
                    },
                    {
                      "internalType": "uint256",
                      "name": "startWhiteTime",
                      "type": "uint256"
                    },
                    {
                      "internalType": "uint256",
                      "name": "endWhiteTime",
                      "type": "uint256"
                    },
                    {
                      "internalType": "uint256",
                      "name": "start1roundTime",
                      "type": "uint256"
                    },
                    {
                      "internalType": "uint256",
                      "name": "end1roundTime",
                      "type": "uint256"
                    },
                    {
                      "internalType": "uint256",
                      "name": "snapshotTime",
                      "type": "uint256"
                    },
                    {
                      "internalType": "uint256",
                      "name": "start2roundTime",
                      "type": "uint256"
                    },
                    {
                      "internalType": "uint256",
                      "name": "end2roundTime",
                      "type": "uint256"
                    }
                  ],
                  "internalType": "struct LibProject.InitalParameterPublicSaleVault",
                  "name": "vaultParams",
                  "type": "tuple"
                },
                {
                  "components": [
                    {
                      "internalType": "uint256",
                      "name": "claimCounts",
                      "type": "uint256"
                    },
                    {
                      "internalType": "uint256",
                      "name": "firstClaimPercent",
                      "type": "uint256"
                    },
                    {
                      "internalType": "uint256",
                      "name": "firstClaimTime",
                      "type": "uint256"
                    },
                    {
                      "internalType": "uint256",
                      "name": "secondClaimTime",
                      "type": "uint256"
                    },
                    {
                      "internalType": "uint256",
                      "name": "roundInterval",
                      "type": "uint256"
                    }
                  ],
                  "internalType": "struct LibProject.InitalParameterPublicSaleClaim",
                  "name": "claimParams",
                  "type": "tuple"
                },
                {
                  "components": [
                    {
                      "internalType": "address",
                      "name": "receiveAddress",
                      "type": "address"
                    },
                    {
                      "internalType": "uint256",
                      "name": "totalClaimCount",
                      "type": "uint256"
                    },
                    {
                      "internalType": "uint256",
                      "name": "firstClaimPercent",
                      "type": "uint256"
                    },
                    {
                      "internalType": "uint256",
                      "name": "firstClaimTime",
                      "type": "uint256"
                    },
                    {
                      "internalType": "uint256",
                      "name": "secondClaimTime",
                      "type": "uint256"
                    },
                    {
                      "internalType": "uint256",
                      "name": "roundIntervalTime",
                      "type": "uint256"
                    },
                    {
                      "internalType": "uint24",
                      "name": "fee",
                      "type": "uint24"
                    }
                  ],
                  "internalType": "struct LibProject.InitalParameterVestingFundVault",
                  "name": "vestingParams",
                  "type": "tuple"
                }
              ],
              "internalType": "struct LibProject.InitalParameterPublicSale",
              "name": "publicSaleParams",
              "type": "tuple"
            },
            {
              "components": [
                {
                  "internalType": "uint256",
                  "name": "totalAllocatedAmount",
                  "type": "uint256"
                },
                {
                  "internalType": "uint256",
                  "name": "tosPrice",
                  "type": "uint256"
                },
                {
                  "internalType": "uint256",
                  "name": "tokenPrice",
                  "type": "uint256"
                },
                {
                  "internalType": "uint256",
                  "name": "initSqrtPrice",
                  "type": "uint256"
                },
                {
                  "internalType": "uint32",
                  "name": "startTime",
                  "type": "uint32"
                },
                {
                  "internalType": "uint16",
                  "name": "fee",
                  "type": "uint16"
                }
              ],
              "internalType": "struct LibProject.InitalParameterInitialLiquidityVault",
              "name": "initialVaultParams",
              "type": "tuple"
            },
            {
              "components": [
                {
                  "components": [
                    {
                      "internalType": "address",
                      "name": "token0",
                      "type": "address"
                    },
                    {
                      "internalType": "address",
                      "name": "token1",
                      "type": "address"
                    },
                    {
                      "internalType": "uint24",
                      "name": "fee",
                      "type": "uint24"
                    }
                  ],
                  "internalType": "struct LibPool.PoolInfo",
                  "name": "poolParams",
                  "type": "tuple"
                },
                {
                  "components": [
                    {
                      "internalType": "address",
                      "name": "claimer",
                      "type": "address"
                    },
                    {
                      "internalType": "uint256",
                      "name": "totalAllocatedAmount",
                      "type": "uint256"
                    },
                    {
                      "internalType": "uint256",
                      "name": "totalClaimCount",
                      "type": "uint256"
                    },
                    {
                      "internalType": "uint256",
                      "name": "firstClaimAmount",
                      "type": "uint256"
                    },
                    {
                      "internalType": "uint32",
                      "name": "firstClaimTime",
                      "type": "uint32"
                    },
                    {
                      "internalType": "uint32",
                      "name": "secondClaimTime",
                      "type": "uint32"
                    },
                    {
                      "internalType": "uint32",
                      "name": "roundIntervalTime",
                      "type": "uint32"
                    }
                  ],
                  "internalType": "struct LibProject.InitalParameterScheduleVault",
                  "name": "params",
                  "type": "tuple"
                }
              ],
              "internalType": "struct LibProject.InitalParameterLiquidityRewardVault",
              "name": "rewardTonTosPoolParams",
              "type": "tuple"
            },
            {
              "components": [
                {
                  "components": [
                    {
                      "internalType": "address",
                      "name": "token0",
                      "type": "address"
                    },
                    {
                      "internalType": "address",
                      "name": "token1",
                      "type": "address"
                    },
                    {
                      "internalType": "uint24",
                      "name": "fee",
                      "type": "uint24"
                    }
                  ],
                  "internalType": "struct LibPool.PoolInfo",
                  "name": "poolParams",
                  "type": "tuple"
                },
                {
                  "components": [
                    {
                      "internalType": "address",
                      "name": "claimer",
                      "type": "address"
                    },
                    {
                      "internalType": "uint256",
                      "name": "totalAllocatedAmount",
                      "type": "uint256"
                    },
                    {
                      "internalType": "uint256",
                      "name": "totalClaimCount",
                      "type": "uint256"
                    },
                    {
                      "internalType": "uint256",
                      "name": "firstClaimAmount",
                      "type": "uint256"
                    },
                    {
                      "internalType": "uint32",
                      "name": "firstClaimTime",
                      "type": "uint32"
                    },
                    {
                      "internalType": "uint32",
                      "name": "secondClaimTime",
                      "type": "uint32"
                    },
                    {
                      "internalType": "uint32",
                      "name": "roundIntervalTime",
                      "type": "uint32"
                    }
                  ],
                  "internalType": "struct LibProject.InitalParameterScheduleVault",
                  "name": "params",
                  "type": "tuple"
                }
              ],
              "internalType": "struct LibProject.InitalParameterLiquidityRewardVault",
              "name": "rewardProjectTosPoolParams",
              "type": "tuple"
            },
            {
              "components": [
                {
                  "internalType": "address",
                  "name": "claimer",
                  "type": "address"
                },
                {
                  "internalType": "uint256",
                  "name": "totalAllocatedAmount",
                  "type": "uint256"
                },
                {
                  "internalType": "uint256",
                  "name": "totalClaimCount",
                  "type": "uint256"
                },
                {
                  "internalType": "uint256",
                  "name": "firstClaimAmount",
                  "type": "uint256"
                },
                {
                  "internalType": "uint32",
                  "name": "firstClaimTime",
                  "type": "uint32"
                },
                {
                  "internalType": "uint32",
                  "name": "secondClaimTime",
                  "type": "uint32"
                },
                {
                  "internalType": "uint32",
                  "name": "roundIntervalTime",
                  "type": "uint32"
                }
              ],
              "internalType": "struct LibProject.InitalParameterScheduleVault",
              "name": "tosAirdropParams",
              "type": "tuple"
            },
            {
              "components": [
                {
                  "internalType": "address",
                  "name": "claimer",
                  "type": "address"
                },
                {
                  "internalType": "uint256",
                  "name": "totalAllocatedAmount",
                  "type": "uint256"
                },
                {
                  "internalType": "uint256",
                  "name": "totalClaimCount",
                  "type": "uint256"
                },
                {
                  "internalType": "uint256",
                  "name": "firstClaimAmount",
                  "type": "uint256"
                },
                {
                  "internalType": "uint32",
                  "name": "firstClaimTime",
                  "type": "uint32"
                },
                {
                  "internalType": "uint32",
                  "name": "secondClaimTime",
                  "type": "uint32"
                },
                {
                  "internalType": "uint32",
                  "name": "roundIntervalTime",
                  "type": "uint32"
                }
              ],
              "internalType": "struct LibProject.InitalParameterScheduleVault",
              "name": "tonAirdropParams",
              "type": "tuple"
            }
          ],
          "internalType": "struct LibProject.TokamakVaults",
          "name": "tokamakVaults",
          "type": "tuple"
        },
        {
          "components": [
            {
              "internalType": "string",
              "name": "vaultName",
              "type": "string"
            },
            {
              "components": [
                {
                  "internalType": "address",
                  "name": "claimer",
                  "type": "address"
                },
                {
                  "internalType": "uint256",
                  "name": "totalAllocatedAmount",
                  "type": "uint256"
                },
                {
                  "internalType": "uint256",
                  "name": "totalClaimCount",
                  "type": "uint256"
                },
                {
                  "internalType": "uint256",
                  "name": "firstClaimAmount",
                  "type": "uint256"
                },
                {
                  "internalType": "uint32",
                  "name": "firstClaimTime",
                  "type": "uint32"
                },
                {
                  "internalType": "uint32",
                  "name": "secondClaimTime",
                  "type": "uint32"
                },
                {
                  "internalType": "uint32",
                  "name": "roundIntervalTime",
                  "type": "uint32"
                }
              ],
              "internalType": "struct LibProject.InitalParameterScheduleVault",
              "name": "params",
              "type": "tuple"
            }
          ],
          "internalType": "struct LibProject.InitalParameterSchedule[]",
          "name": "customScheduleVaults",
          "type": "tuple[]"
        },
        {
          "components": [
            {
              "internalType": "string",
              "name": "vaultName",
              "type": "string"
            },
            {
              "internalType": "address",
              "name": "claimer",
              "type": "address"
            },
            {
              "internalType": "uint256",
              "name": "totalAllocatedAmount",
              "type": "uint256"
            }
          ],
          "internalType": "struct LibProject.InitalParameterNonScheduleVault[]",
          "name": "customNonScheduleVaults",
          "type": "tuple[]"
        }
      ],
      "name": "distributesL2TokenOwner",
      "outputs": [],
      "stateMutability": "nonpayable",
      "type": "function"
    },
    {
      "inputs": [
        {
          "internalType": "bytes32",
          "name": "role",
          "type": "bytes32"
        }
      ],
      "name": "getRoleAdmin",
      "outputs": [
        {
          "internalType": "bytes32",
          "name": "",
          "type": "bytes32"
        }
      ],
      "stateMutability": "view",
      "type": "function"
    },
    {
      "inputs": [
        {
          "internalType": "bytes32",
          "name": "role",
          "type": "bytes32"
        },
        {
          "internalType": "address",
          "name": "account",
          "type": "address"
        }
      ],
      "name": "grantRole",
      "outputs": [],
      "stateMutability": "nonpayable",
      "type": "function"
    },
    {
      "inputs": [
        {
          "internalType": "bytes32",
          "name": "role",
          "type": "bytes32"
        },
        {
          "internalType": "address",
          "name": "account",
          "type": "address"
        }
      ],
      "name": "hasRole",
      "outputs": [
        {
          "internalType": "bool",
          "name": "",
          "type": "bool"
        }
      ],
      "stateMutability": "view",
      "type": "function"
    },
    {
      "inputs": [],
      "name": "initialLiquidityVault",
      "outputs": [
        {
          "internalType": "address",
          "name": "",
          "type": "address"
        }
      ],
      "stateMutability": "view",
      "type": "function"
    },
    {
      "inputs": [
        {
          "internalType": "address",
          "name": "account",
          "type": "address"
        }
      ],
      "name": "isAdmin",
      "outputs": [
        {
          "internalType": "bool",
          "name": "",
          "type": "bool"
        }
      ],
      "stateMutability": "view",
      "type": "function"
    },
    {
      "inputs": [],
      "name": "l1ProjectManager",
      "outputs": [
        {
          "internalType": "address",
          "name": "",
          "type": "address"
        }
      ],
      "stateMutability": "view",
      "type": "function"
    },
    {
      "inputs": [],
      "name": "l2CrossDomainMessenger",
      "outputs": [
        {
          "internalType": "address",
          "name": "",
          "type": "address"
        }
      ],
      "stateMutability": "view",
      "type": "function"
    },
    {
      "inputs": [],
      "name": "l2TokenFactory",
      "outputs": [
        {
          "internalType": "address",
          "name": "",
          "type": "address"
        }
      ],
      "stateMutability": "view",
      "type": "function"
    },
    {
      "inputs": [],
      "name": "liquidityRewardVault",
      "outputs": [
        {
          "internalType": "address",
          "name": "",
          "type": "address"
        }
      ],
      "stateMutability": "view",
      "type": "function"
    },
    {
      "inputs": [],
      "name": "nonScheduleVault",
      "outputs": [
        {
          "internalType": "address",
          "name": "",
          "type": "address"
        }
      ],
      "stateMutability": "view",
      "type": "function"
    },
    {
      "inputs": [],
      "name": "pauseProxy",
      "outputs": [
        {
          "internalType": "bool",
          "name": "",
          "type": "bool"
        }
      ],
      "stateMutability": "view",
      "type": "function"
    },
    {
      "inputs": [],
      "name": "poolFee",
      "outputs": [
        {
          "internalType": "uint24",
          "name": "",
          "type": "uint24"
        }
      ],
      "stateMutability": "view",
      "type": "function"
    },
    {
      "inputs": [
        {
          "internalType": "address",
          "name": "",
          "type": "address"
        }
      ],
      "name": "projects",
      "outputs": [
        {
          "internalType": "uint256",
          "name": "projectId",
          "type": "uint256"
        },
        {
          "internalType": "address",
          "name": "projectOwner",
          "type": "address"
        },
        {
          "internalType": "address",
          "name": "l1Token",
          "type": "address"
        },
        {
          "internalType": "address",
          "name": "l2Token",
          "type": "address"
        },
        {
          "internalType": "string",
          "name": "projectName",
          "type": "string"
        }
      ],
      "stateMutability": "view",
      "type": "function"
    },
    {
      "inputs": [
        {
          "internalType": "uint256",
          "name": "",
          "type": "uint256"
        }
      ],
      "name": "proxyImplementation",
      "outputs": [
        {
          "internalType": "address",
          "name": "",
          "type": "address"
        }
      ],
      "stateMutability": "view",
      "type": "function"
    },
    {
      "inputs": [],
      "name": "publicSaleVault",
      "outputs": [
        {
          "internalType": "address",
          "name": "",
          "type": "address"
        }
      ],
      "stateMutability": "view",
      "type": "function"
    },
    {
      "inputs": [
        {
          "internalType": "address",
          "name": "account",
          "type": "address"
        }
      ],
      "name": "removeAdmin",
      "outputs": [],
      "stateMutability": "nonpayable",
      "type": "function"
    },
    {
      "inputs": [
        {
          "internalType": "bytes32",
          "name": "role",
          "type": "bytes32"
        },
        {
          "internalType": "address",
          "name": "account",
          "type": "address"
        }
      ],
      "name": "renounceRole",
      "outputs": [],
      "stateMutability": "nonpayable",
      "type": "function"
    },
    {
      "inputs": [
        {
          "internalType": "bytes32",
          "name": "role",
          "type": "bytes32"
        },
        {
          "internalType": "address",
          "name": "account",
          "type": "address"
        }
      ],
      "name": "revokeRole",
      "outputs": [],
      "stateMutability": "nonpayable",
      "type": "function"
    },
    {
      "inputs": [],
      "name": "scheduleVault",
      "outputs": [
        {
          "internalType": "address",
          "name": "",
          "type": "address"
        }
      ],
      "stateMutability": "view",
      "type": "function"
    },
    {
      "inputs": [
        {
          "internalType": "bytes4",
          "name": "",
          "type": "bytes4"
        }
      ],
      "name": "selectorImplementation",
      "outputs": [
        {
          "internalType": "address",
          "name": "",
          "type": "address"
        }
      ],
      "stateMutability": "view",
      "type": "function"
    },
    {
      "inputs": [
        {
          "internalType": "address",
          "name": "_l1ProjectManager",
          "type": "address"
        }
      ],
      "name": "setL1ProjectManager",
      "outputs": [],
      "stateMutability": "nonpayable",
      "type": "function"
    },
    {
      "inputs": [
        {
          "internalType": "address",
          "name": "_l2TokenFactory",
          "type": "address"
        },
        {
          "internalType": "address",
          "name": "_l2CrossDomainMessenger",
          "type": "address"
        },
        {
          "internalType": "address",
          "name": "_l2Wton",
          "type": "address"
        },
        {
          "internalType": "address",
          "name": "_l2tos",
          "type": "address"
        },
        {
          "internalType": "uint24",
          "name": "_poolFee",
          "type": "uint24"
        }
      ],
      "name": "setL2Addresses",
      "outputs": [],
      "stateMutability": "nonpayable",
      "type": "function"
    },
    {
      "inputs": [
        {
          "internalType": "address",
          "name": "_l2CrossDomainMessenger",
          "type": "address"
        }
      ],
      "name": "setL2CrossDomainMessenger",
      "outputs": [],
      "stateMutability": "nonpayable",
      "type": "function"
    },
    {
      "inputs": [
        {
          "internalType": "address",
          "name": "_l2TokenFactory",
          "type": "address"
        }
      ],
      "name": "setL2TokenFactory",
      "outputs": [],
      "stateMutability": "nonpayable",
      "type": "function"
    },
    {
      "inputs": [
        {
          "internalType": "address",
          "name": "publicSale",
          "type": "address"
        },
        {
          "internalType": "address",
          "name": "initialLiquidity",
          "type": "address"
        },
        {
          "internalType": "address",
          "name": "liquidityReward",
          "type": "address"
        },
        {
          "internalType": "address",
          "name": "tonAirdrop",
          "type": "address"
        },
        {
          "internalType": "address",
          "name": "tosAirdrop",
          "type": "address"
        },
        {
          "internalType": "address",
          "name": "_scheduleVault",
          "type": "address"
        },
        {
          "internalType": "address",
          "name": "_nonScheduleVault",
          "type": "address"
        }
      ],
      "name": "setTokamakVaults",
      "outputs": [],
      "stateMutability": "nonpayable",
      "type": "function"
    },
    {
      "inputs": [
        {
          "internalType": "bytes4",
          "name": "interfaceId",
          "type": "bytes4"
        }
      ],
      "name": "supportsInterface",
      "outputs": [
        {
          "internalType": "bool",
          "name": "",
          "type": "bool"
        }
      ],
      "stateMutability": "view",
      "type": "function"
    },
    {
      "inputs": [
        {
          "internalType": "address",
          "name": "",
          "type": "address"
        }
      ],
      "name": "tokenMaps",
      "outputs": [
        {
          "internalType": "address",
          "name": "",
          "type": "address"
        }
      ],
      "stateMutability": "view",
      "type": "function"
    },
    {
      "inputs": [],
      "name": "tonAirdropVault",
      "outputs": [
        {
          "internalType": "address",
          "name": "",
          "type": "address"
        }
      ],
      "stateMutability": "view",
      "type": "function"
    },
    {
      "inputs": [],
      "name": "tos",
      "outputs": [
        {
          "internalType": "address",
          "name": "",
          "type": "address"
        }
      ],
      "stateMutability": "view",
      "type": "function"
    },
    {
      "inputs": [],
      "name": "tosAirdropVault",
      "outputs": [
        {
          "internalType": "address",
          "name": "",
          "type": "address"
        }
      ],
      "stateMutability": "view",
      "type": "function"
    },
    {
      "inputs": [
        {
          "internalType": "address",
          "name": "newAdmin",
          "type": "address"
        }
      ],
      "name": "transferAdmin",
      "outputs": [],
      "stateMutability": "nonpayable",
      "type": "function"
    },
    {
      "inputs": [
        {
          "internalType": "address",
          "name": "l2token",
          "type": "address"
        }
      ],
      "name": "viewProject",
      "outputs": [
        {
          "components": [
            {
              "internalType": "uint256",
              "name": "projectId",
              "type": "uint256"
            },
            {
              "internalType": "address",
              "name": "projectOwner",
              "type": "address"
            },
            {
              "internalType": "address",
              "name": "l1Token",
              "type": "address"
            },
            {
              "internalType": "address",
              "name": "l2Token",
              "type": "address"
            },
            {
              "internalType": "string",
              "name": "projectName",
              "type": "string"
            }
          ],
          "internalType": "struct LibProject.L2ProjectInfo",
          "name": "",
          "type": "tuple"
        }
      ],
      "stateMutability": "view",
      "type": "function"
    },
    {
      "inputs": [],
      "name": "wton",
      "outputs": [
        {
          "internalType": "address",
          "name": "",
          "type": "address"
        }
      ],
      "stateMutability": "view",
      "type": "function"
    }
  ],
  "bytecode": "0x60806040526005805460ff191660011790553480156200001e57600080fd5b506200003a60008051602062004ee5833981519152806200005b565b6200005560008051602062004ee583398151915233620000a6565b6200015a565b600082815260046020526040808220600101805490849055905190918391839186917fbd79b86ffe0ab8e8776151514217cd7cacd52c909f66475c3af44e129f0b00ff9190a4505050565b620000b28282620000b6565b5050565b60008281526004602090815260408083206001600160a01b038516845290915290205460ff16620000b25760008281526004602090815260408083206001600160a01b03851684529091529020805460ff19166001179055620001163390565b6001600160a01b0316816001600160a01b0316837f2f8788117e7eff1d82e926ec794901d17c78024a50270940304540a733656f0d60405160405180910390a45050565b614d7b806200016a6000396000f3fe608060405234801561001057600080fd5b50600436106102e95760003560e01c80636e6e857311610191578063b911135f116100e3578063d547741f11610097578063eca7b83611610071578063eca7b836146106fc578063eddd5e821461070f578063fbef005a1461072257600080fd5b8063d547741f146106b6578063dfb28354146106c9578063e748849b146106dc57600080fd5b8063c519eeac116100c8578063c519eeac14610667578063c51c773a1461067a578063c5b53e681461068d57600080fd5b8063b911135f1461062b578063bb3f397a1461065457600080fd5b8063840e78fd1161014557806391d148541161011f57806391d14854146105d75780639377364614610610578063a217fddf1461062357600080fd5b8063840e78fd1461058d57806389f395de146105b15780638d62d949146105c457600080fd5b806374a9f5c11161017657806374a9f5c11461053b57806375829def1461055357806375b238fc1461056657600080fd5b80636e6e857314610515578063704802751461052857600080fd5b806336568abe1161024a578063589b8ec9116101fe578063622b96b2116101d8578063622b96b2146104e257806363a8fd89146104f55780636e53f4271461050257600080fd5b8063589b8ec9146104a95780635f214430146104bc5780635f527898146104cf57600080fd5b80634bc4447b1161022f5780634bc4447b1461044a57806350d2a2761461045d578063550d01a31461048657600080fd5b806336568abe14610424578063425d70581461043757600080fd5b8063248a9ca3116102a15780632966c4dd116102865780632966c4dd146103d35780632c8917c8146103fe5780632f2ff15d1461041157600080fd5b8063248a9ca31461039d57806324d7806c146103c057600080fd5b80631785f53c116102d25780631785f53c146103405780631dbee3dc14610355578063229852461461036857600080fd5b806301ffc9a7146102ee578063089fe6aa14610316575b600080fd5b6103016102fc366004613c48565b610735565b60405190151581526020015b60405180910390f35b60095461032c90600160a01b900462ffffff1681565b60405162ffffff909116815260200161030d565b61035361034e366004613c87565b61076c565b005b610353610363366004613cbc565b6107ec565b61038f7ffb5864e8ff833c3cb2d2d08505e82ff02a43554c74a35d4f5a64e8526127831181565b60405190815260200161030d565b61038f6103ab366004613d29565b60009081526004602052604090206001015490565b6103016103ce366004613c87565b6109b0565b600c546103e6906001600160a01b031681565b6040516001600160a01b03909116815260200161030d565b600a546103e6906001600160a01b031681565b61035361041f366004613d42565b6109f0565b610353610432366004613d42565b610a1a565b610353610445366004613d72565b610aa6565b610353610458366004613c87565b610d3a565b6103e661046b366004613c48565b6003602052600090815260409020546001600160a01b031681565b610301610494366004613c87565b60026020526000908152604090205460ff1681565b6103536104b73660046143b6565b610e2d565b6103536104ca366004613c87565b61101f565b6103536104dd3660046143b6565b61112a565b6103016104f036600461461e565b61127a565b6000546103019060ff1681565b600d546103e6906001600160a01b031681565b6010546103e6906001600160a01b031681565b610353610536366004613c87565b6116c2565b6005546103e69061010090046001600160a01b031681565b610353610561366004613c87565b61173a565b61038f7fdf8b4c520ffe197c5343c6f5aec59570151ef9a492f2c624fd45ddde6135ec4281565b6105a061059b366004613c87565b61188a565b60405161030d959493929190614734565b6008546103e6906001600160a01b031681565b6009546103e6906001600160a01b031681565b6103016105e5366004613d42565b60009182526004602090815260408084206001600160a01b0393909316845291905290205460ff1690565b61035361061e36600461461e565b611951565b61038f600081565b6103e6610639366004613d29565b6001602052600090815260409020546001600160a01b031681565b610353610662366004613c87565b611f94565b600f546103e6906001600160a01b031681565b600b546103e6906001600160a01b031681565b6103e661069b366004613c87565b6012602052600090815260409020546001600160a01b031681565b6103536106c4366004613d42565b612087565b6103536106d7366004614779565b6120ac565b6106ef6106ea366004613c87565b612324565b60405161030d919061480f565b600e546103e6906001600160a01b031681565b6006546103e6906001600160a01b031681565b6007546103e6906001600160a01b031681565b60006001600160e01b03198216637965db0b60e01b148061076657506301ffc9a760e01b6001600160e01b03198316145b92915050565b610775336109b0565b6107bf5760405162461bcd60e51b81526020600482015260226024820152600080516020614d4f83398151915260448201526134b760f11b60648201526084015b60405180910390fd5b6107e97fdf8b4c520ffe197c5343c6f5aec59570151ef9a492f2c624fd45ddde6135ec4282610a1a565b50565b846001600160a01b0381166108285760405162461bcd60e51b81526020600482015260026024820152612d1960f11b60448201526064016107b6565b846001600160a01b0381166108645760405162461bcd60e51b81526020600482015260026024820152612d1960f11b60448201526064016107b6565b846001600160a01b0381166108a05760405162461bcd60e51b81526020600482015260026024820152612d1960f11b60448201526064016107b6565b846001600160a01b0381166108dc5760405162461bcd60e51b81526020600482015260026024820152612d1960f11b60448201526064016107b6565b6108e5336109b0565b61092a5760405162461bcd60e51b81526020600482015260226024820152600080516020614d4f83398151915260448201526134b760f11b60648201526084016107b6565b5050600680546001600160a01b039889166001600160a01b031991821617909155600780549789169782169790971790965550506009805460088054948816949096169390931790945562ffffff16600160a01b027fffffffffffffffffff00000000000000000000000000000000000000000000009091169190931617919091179055565b6001600160a01b03811660009081527f2fb794d17134dfdec181ddbac1babb5ab1eb140204ef4d982f294e7fc8b69022602052604081205460ff16610766565b600082815260046020526040902060010154610a0b81612461565b610a15838361246b565b505050565b6001600160a01b0381163314610a985760405162461bcd60e51b815260206004820152602f60248201527f416363657373436f6e74726f6c3a2063616e206f6e6c792072656e6f756e636560448201527f20726f6c657320666f722073656c66000000000000000000000000000000000060648201526084016107b6565b610aa2828261250d565b5050565b6006546001600160a01b031615801590610aca57506006546001600160a01b031633145b610b165760405162461bcd60e51b815260206004820152601c60248201527f63616c6c6572206973206e6f74206c32546f6b656e466163746f72790000000060448201526064016107b6565b6000819003610b675760405162461bcd60e51b815260206004820152601360248201527f70726f6a6563744e616d65206973206e756c6c0000000000000000000000000060448201526064016107b6565b6001600160a01b038381166000908152601160205260409020600201541615610bd25760405162461bcd60e51b815260206004820152600d60248201527f616c72656164792061646465640000000000000000000000000000000000000060448201526064016107b6565b6040518060a0016040528060008152602001866001600160a01b03168152602001856001600160a01b03168152602001846001600160a01b0316815260200183838080601f01602080910402602001604051908101604052809392919081815260200183838082843760009201829052509390945250506001600160a01b0380871682526011602090815260409283902085518155908501516001820180549184166001600160a01b031992831617905592850151600282018054918416918516919091179055606085015160038201805491909316931692909217905560808301519091506004820190610cc790826148eb565b5050506001600160a01b038481166000818152601260205260409081902080546001600160a01b0319169387169384179055517f665c02e22efe28364a081a633646b8db53de75e45491bbd51cb302f6e1ab3a2190610d2b908990879087906149ab565b60405180910390a35050505050565b806001600160a01b038116610d765760405162461bcd60e51b81526020600482015260026024820152612d1960f11b60448201526064016107b6565b610d7f336109b0565b610dc45760405162461bcd60e51b81526020600482015260226024820152600080516020614d4f83398151915260448201526134b760f11b60648201526084016107b6565b6007546001600160a01b03808416911603610e0a5760405162461bcd60e51b81526004016107b69060208082526004908201526373616d6560e01b604082015260600190565b50600780546001600160a01b0319166001600160a01b0392909216919091179055565b6007546001600160a01b031633148015610ec7575060055460075460408051636e296e4560e01b815290516101009093046001600160a01b0390811693921691636e296e45916004808201926020929091908290030181865afa158015610e98573d6000803e3d6000fd5b505050506040513d601f19601f82011682018060405250810190610ebc91906149ea565b6001600160a01b0316145b610f1f5760405162461bcd60e51b8152602060048201526024808201527f6e6f74206f6e6c794d657373656e676572416e644c3150726f6a6563744d616e60448201526330b3b2b960e11b60648201526084016107b6565b866001600160a01b038116610f5b5760405162461bcd60e51b81526020600482015260026024820152612d1960f11b60448201526064016107b6565b866001600160a01b038116610f975760405162461bcd60e51b81526020600482015260026024820152612d1960f11b60448201526064016107b6565b8680600003610fcd5760405162461bcd60e51b81526020600482015260026024820152615a3160f01b60448201526064016107b6565b86806000036110035760405162461bcd60e51b81526020600482015260026024820152615a3160f01b60448201526064016107b6565b6110128b8b8b8b8b8b8b612590565b5050505050505050505050565b806001600160a01b03811661105b5760405162461bcd60e51b81526020600482015260026024820152612d1960f11b60448201526064016107b6565b611064336109b0565b6110a95760405162461bcd60e51b81526020600482015260226024820152600080516020614d4f83398151915260448201526134b760f11b60648201526084016107b6565b6005546001600160a01b0380841661010090920416036110f45760405162461bcd60e51b81526004016107b69060208082526004908201526373616d6560e01b604082015260600190565b50600580546001600160a01b039092166101000274ffffffffffffffffffffffffffffffffffffffff0019909216919091179055565b866001600160a01b0381166111665760405162461bcd60e51b81526020600482015260026024820152612d1960f11b60448201526064016107b6565b866001600160a01b0381166111a25760405162461bcd60e51b81526020600482015260026024820152612d1960f11b60448201526064016107b6565b86806000036111d85760405162461bcd60e51b81526020600482015260026024820152615a3160f01b60448201526064016107b6565b868060000361120e5760405162461bcd60e51b81526020600482015260026024820152615a3160f01b60448201526064016107b6565b6001600160a01b038a81166000908152601160205260409020600101541633146110035760405162461bcd60e51b815260206004820152601060248201527f6e6f742070726f6a6563744f776e65720000000000000000000000000000000060448201526064016107b6565b60006001600160a01b03831661129257506000610766565b600c5460085460095460405163696d628360e01b81526001600160a01b0392831660048201528683166024820152600160a01b90910462ffffff166044820152600092919091169063696d628390606401602060405180830381865afa158015611300573d6000803e3d6000fd5b505050506040513d601f19601f8201168201806040525081019061132491906149ea565b600c5460095460085460405163696d628360e01b81526001600160a01b0380841660048301529182166024820152600160a01b90920462ffffff1660448301529293506000929091169063696d628390606401602060405180830381865afa158015611394573d6000803e3d6000fd5b505050506040513d601f19601f820116820180604052508101906113b891906149ea565b90506001600160a01b038216158015906114465750600c54604051636a61a9fb60e11b81526001600160a01b03878116600483015284811660248301529091169063d4c353f690604401602060405180830381865afa15801561141f573d6000803e3d6000fd5b505050506040513d601f19601f820116820180604052508101906114439190614a07565b15155b1561145657600192505050610766565b6001600160a01b038116158015906114e25750600c54604051636a61a9fb60e11b81526001600160a01b03878116600483015283811660248301529091169063d4c353f690604401602060405180830381865afa1580156114bb573d6000803e3d6000fd5b505050506040513d601f19601f820116820180604052508101906114df9190614a07565b15155b156114f257600192505050610766565b600e54604051631c868ae960e11b81526001600160a01b0387811660048301529091169063390d15d290602401602060405180830381865afa15801561153c573d6000803e3d6000fd5b505050506040513d601f19601f820116820180604052508101906115609190614a07565b1561157057600192505050610766565b600d54604051631c868ae960e11b81526001600160a01b0387811660048301529091169063390d15d290602401602060405180830381865afa1580156115ba573d6000803e3d6000fd5b505050506040513d601f19601f820116820180604052508101906115de9190614a07565b156115ee57600192505050610766565b8351156116b75760005b84518110156116b557600f5485516001600160a01b039091169063560fd77890889088908590811061162c5761162c614a20565b60200260200101516040518363ffffffff1660e01b8152600401611651929190614a36565b602060405180830381865afa15801561166e573d6000803e3d6000fd5b505050506040513d601f19601f820116820180604052508101906116929190614a07565b156116a35760019350505050610766565b806116ad81614a6e565b9150506115f8565b505b506000949350505050565b6116cb336109b0565b6117105760405162461bcd60e51b81526020600482015260226024820152600080516020614d4f83398151915260448201526134b760f11b60648201526084016107b6565b6107e97fdf8b4c520ffe197c5343c6f5aec59570151ef9a492f2c624fd45ddde6135ec42826109f0565b611743336109b0565b6117885760405162461bcd60e51b81526020600482015260226024820152600080516020614d4f83398151915260448201526134b760f11b60648201526084016107b6565b6001600160a01b0381166117de5760405162461bcd60e51b815260206004820152601860248201527f41636365737369626c653a207a65726f2061646472657373000000000000000060448201526064016107b6565b6001600160a01b03811633036118365760405162461bcd60e51b815260206004820152601660248201527f41636365737369626c653a2073616d652061646d696e0000000000000000000060448201526064016107b6565b6118607fdf8b4c520ffe197c5343c6f5aec59570151ef9a492f2c624fd45ddde6135ec42826109f0565b6107e97fdf8b4c520ffe197c5343c6f5aec59570151ef9a492f2c624fd45ddde6135ec4233610a1a565b6011602052600090815260409020805460018201546002830154600384015460048501805494956001600160a01b039485169593851694909216926118ce9061486b565b80601f01602080910402602001604051908101604052809291908181526020018280546118fa9061486b565b80156119475780601f1061191c57610100808354040283529160200191611947565b820191906000526020600020905b81548152906001019060200180831161192a57829003601f168201915b5050505050905085565b816001600160a01b03811661198d5760405162461bcd60e51b81526020600482015260026024820152612d1960f11b60448201526064016107b6565b600c5460085460095460405163696d628360e01b81526001600160a01b0392831660048201528683166024820152600160a01b90910462ffffff166044820152600092919091169063696d628390606401602060405180830381865afa1580156119fb573d6000803e3d6000fd5b505050506040513d601f19601f82011682018060405250810190611a1f91906149ea565b600c5460095460085460405163696d628360e01b81526001600160a01b0380841660048301529182166024820152600160a01b90920462ffffff1660448301529293506000929091169063696d628390606401602060405180830381865afa158015611a8f573d6000803e3d6000fd5b505050506040513d601f19601f82011682018060405250810190611ab391906149ea565b90506001600160a01b03821615801590611b415750600c54604051636a61a9fb60e11b81526001600160a01b03878116600483015284811660248301529091169063d4c353f690604401602060405180830381865afa158015611b1a573d6000803e3d6000fd5b505050506040513d601f19601f82011682018060405250810190611b3e9190614a07565b15155b15611bae57600c546040516310e059a160e11b81526001600160a01b0387811660048301528481166024830152909116906321c0b34290604401600060405180830381600087803b158015611b9557600080fd5b505af1158015611ba9573d6000803e3d6000fd5b505050505b6001600160a01b03811615801590611c3a5750600c54604051636a61a9fb60e11b81526001600160a01b03878116600483015283811660248301529091169063d4c353f690604401602060405180830381865afa158015611c13573d6000803e3d6000fd5b505050506040513d601f19601f82011682018060405250810190611c379190614a07565b15155b15611ca757600c546040516310e059a160e11b81526001600160a01b0387811660048301528381166024830152909116906321c0b34290604401600060405180830381600087803b158015611c8e57600080fd5b505af1158015611ca2573d6000803e3d6000fd5b505050505b600e54604051631c868ae960e11b81526001600160a01b0387811660048301529091169063390d15d290602401602060405180830381865afa158015611cf1573d6000803e3d6000fd5b505050506040513d601f19601f82011682018060405250810190611d159190614a07565b15611d7a57600e54604051630f41a04d60e11b81526001600160a01b03878116600483015290911690631e83409a90602401600060405180830381600087803b158015611d6157600080fd5b505af1158015611d75573d6000803e3d6000fd5b505050505b600d54604051631c868ae960e11b81526001600160a01b0387811660048301529091169063390d15d290602401602060405180830381865afa158015611dc4573d6000803e3d6000fd5b505050506040513d601f19601f82011682018060405250810190611de89190614a07565b15611e4d57600d54604051630f41a04d60e11b81526001600160a01b03878116600483015290911690631e83409a90602401600060405180830381600087803b158015611e3457600080fd5b505af1158015611e48573d6000803e3d6000fd5b505050505b835115611f8d5760005b8451811015611f8b57600f5485516001600160a01b039091169063560fd778908890889085908110611e8b57611e8b614a20565b60200260200101516040518363ffffffff1660e01b8152600401611eb0929190614a36565b602060405180830381865afa158015611ecd573d6000803e3d6000fd5b505050506040513d601f19601f82011682018060405250810190611ef19190614a07565b15611f7957600f5485516001600160a01b039091169063a8d95fb2908890889085908110611f2157611f21614a20565b60200260200101516040518363ffffffff1660e01b8152600401611f46929190614a36565b600060405180830381600087803b158015611f6057600080fd5b505af1158015611f74573d6000803e3d6000fd5b505050505b80611f8381614a6e565b915050611e57565b505b5050505050565b806001600160a01b038116611fd05760405162461bcd60e51b81526020600482015260026024820152612d1960f11b60448201526064016107b6565b611fd9336109b0565b61201e5760405162461bcd60e51b81526020600482015260226024820152600080516020614d4f83398151915260448201526134b760f11b60648201526084016107b6565b6006546001600160a01b038084169116036120645760405162461bcd60e51b81526004016107b69060208082526004908201526373616d6560e01b604082015260600190565b50600680546001600160a01b0319166001600160a01b0392909216919091179055565b6000828152600460205260409020600101546120a281612461565b610a15838361250d565b6120b5336109b0565b6120fa5760405162461bcd60e51b81526020600482015260226024820152600080516020614d4f83398151915260448201526134b760f11b60648201526084016107b6565b866001600160a01b0381166121365760405162461bcd60e51b81526020600482015260026024820152612d1960f11b60448201526064016107b6565b866001600160a01b0381166121725760405162461bcd60e51b81526020600482015260026024820152612d1960f11b60448201526064016107b6565b866001600160a01b0381166121ae5760405162461bcd60e51b81526020600482015260026024820152612d1960f11b60448201526064016107b6565b856001600160a01b0381166121ea5760405162461bcd60e51b81526020600482015260026024820152612d1960f11b60448201526064016107b6565b876001600160a01b0381166122265760405162461bcd60e51b81526020600482015260026024820152612d1960f11b60448201526064016107b6565b866001600160a01b0381166122625760405162461bcd60e51b81526020600482015260026024820152612d1960f11b60448201526064016107b6565b866001600160a01b03811661229e5760405162461bcd60e51b81526020600482015260026024820152612d1960f11b60448201526064016107b6565b5050600a80546001600160a01b03199081166001600160a01b039e8f1617909155600b805482169c8e169c909c17909b555050600c80548a16988b16989098179097555050600d8054871694881694909417909355600e8054861692871692909217909155600f8054851691861691909117905560108054909316931692909217905550565b6123716040518060a001604052806000815260200160006001600160a01b0316815260200160006001600160a01b0316815260200160006001600160a01b03168152602001606081525090565b6001600160a01b03808316600090815260116020908152604091829020825160a0810184528154815260018201548516928101929092526002810154841692820192909252600382015490921660608301526004810180546080840191906123d89061486b565b80601f01602080910402602001604051908101604052809291908181526020018280546124049061486b565b80156124515780601f1061242657610100808354040283529160200191612451565b820191906000526020600020905b81548152906001019060200180831161243457829003601f168201915b5050505050815250509050919050565b6107e98133613900565b60008281526004602090815260408083206001600160a01b038516845290915290205460ff16610aa25760008281526004602090815260408083206001600160a01b03851684529091529020805460ff191660011790556124c93390565b6001600160a01b0316816001600160a01b0316837f2f8788117e7eff1d82e926ec794901d17c78024a50270940304540a733656f0d60405160405180910390a45050565b60008281526004602090815260408083206001600160a01b038516845290915290205460ff1615610aa25760008281526004602090815260408083206001600160a01b0385168085529252808320805460ff1916905551339285917ff6391f5c32d9c69d2a47ea670b442974b53935d1edc7fd64eb21e047a839171b9190a45050565b6001600160a01b038087166000908152601160209081526040808320815160a081018352815481526001820154861693810193909352600281015485169183019190915260038101549093166060820152600483018054929391926080840191906125fa9061486b565b80601f01602080910402602001604051908101604052809291908181526020018280546126269061486b565b80156126735780601f1061264857610100808354040283529160200191612673565b820191906000526020600020905b81548152906001019060200180831161265657829003601f168201915b5050505050815250509050876001600160a01b031681604001516001600160a01b0316146126e35760405162461bcd60e51b815260206004820152601360248201527f6e6f74206d617463686564206c31546f6b656e0000000000000000000000000060448201526064016107b6565b866001600160a01b031681606001516001600160a01b0316146127485760405162461bcd60e51b815260206004820152601360248201527f6e6f74206d617463686564206c32546f6b656e0000000000000000000000000060448201526064016107b6565b8351516101208101516101009091015160009161276491614a87565b905060008560a00151602001518660800151602001518760600151602001516020015188604001516020015160200151896020015160000151866127a89190614a87565b6127b29190614a87565b6127bc9190614a87565b6127c69190614a87565b6127d09190614a87565b905060008060005b8751811015612822578781815181106127f3576127f3614a20565b602002602001015160200151602001518361280e9190614a87565b92508061281a81614a6e565b9150506127d8565b5060005b865181101561286c5786818151811061284157612841614a20565b602002602001015160400151826128589190614a87565b91508061286481614a6e565b915050612826565b506128778183614a87565b6128819084614a87565b92508883146128d25760405162461bcd60e51b815260206004820152601760248201527f6e6f74206d61746368656420746f74616c416d6f756e7400000000000000000060448201526064016107b6565b6040516370a0823160e01b81523060048201526001600160a01b038c16906370a0823190602401602060405180830381865afa158015612916573d6000803e3d6000fd5b505050506040513d601f19601f8201168201806040525081019061293a9190614a07565b8911156129895760405162461bcd60e51b815260206004820152601460248201527f696e73756666696369656e742062616c616e636500000000000000000000000060448201526064016107b6565b6060850180516001600160a01b0390811660009081526011602052604090208c90559051600a546129bb921686613975565b6060850151600b5460208a0151516129dd92916001600160a01b031690613975565b606080860151600c54918a015160209081015181015160408c015182015190910151612a1b936001600160a01b031691612a1691614a87565b613975565b6060850151600d5460a08a015160200151612a4092916001600160a01b031690613975565b6060850151600e5460808a015160200151612a6592916001600160a01b031690613975565b8315612d3a57600a54606086015160208701516040516328f40a9560e11b81526001600160a01b03928316600482015290821660248201529116906351e8152a90604401602060405180830381865afa158015612ac6573d6000803e3d6000fd5b505050506040513d601f19601f82011682018060405250810190612aea9190614a9a565b612b5f57600a5460608601516020870151604051631adcd63360e11b81526001600160a01b03928316600482015290821660248201529116906335b9ac6690604401600060405180830381600087803b158015612b4657600080fd5b505af1158015612b5a573d6000803e3d6000fd5b505050505b600a546060868101518a51805160208083015160409384015184516329d6a02360e11b81526001600160a01b0396871660048201528451602482015283850151604482015285850151606482015284880151608482015260808086015160a483015260a08087015160c484015260c08088015160e485015260e08801516101048501526101008801516101248501526101208801516101448501526101408801516101648501526101608801516101848501526101808801516101a48501526101a08801516101c48501526101c08801516101e48501526101e0880151610204850152610200880151610224850152610220880151610244850152610240880151610264850152610260880151610284850152610280909701516102a484015284516102c4840152848601516102e484015287850151610304840152848a0151610324840152938101516103448301528251881661036483015293820151610384820152948101516103a4860152958601516103c4850152908501516103e48401528401516104048301529092015162ffffff16610424830152909116906353ad40469061044401600060405180830381600087803b158015612d2157600080fd5b505af1158015612d35573d6000803e3d6000fd5b505050505b60208801515115612ee657600b54606086015160208701516040516328f40a9560e11b81526001600160a01b03928316600482015290821660248201529116906351e8152a90604401602060405180830381865afa158015612da0573d6000803e3d6000fd5b505050506040513d601f19601f82011682018060405250810190612dc49190614a9a565b612e3957600b5460608601516020870151604051631adcd63360e11b81526001600160a01b03928316600482015290821660248201529116906335b9ac6690604401600060405180830381600087803b158015612e2057600080fd5b505af1158015612e34573d6000803e3d6000fd5b505050505b600b5460608681015160208b81015160408051632215f6f360e11b81526001600160a01b039485166004820152825160248201529282015160448401528101516064830152928301516084820152608083015163ffffffff1660a482015260a09092015161ffff1660c48301529091169063442bede69060e401600060405180830381600087803b158015612ecd57600080fd5b505af1158015612ee1573d6000803e3d6000fd5b505050505b8760400151602001516020015160001461307857600c54606086015160208701516040516328f40a9560e11b81526001600160a01b03928316600482015290821660248201529116906351e8152a90604401602060405180830381865afa158015612f55573d6000803e3d6000fd5b505050506040513d601f19601f82011682018060405250810190612f799190614a9a565b612fee57600c5460608601516020870151604051631adcd63360e11b81526001600160a01b03928316600482015290821660248201529116906335b9ac6690604401600060405180830381600087803b158015612fd557600080fd5b505af1158015612fe9573d6000803e3d6000fd5b505050505b600088604001519050600c60009054906101000a90046001600160a01b03166001600160a01b03166317bc6a728d836000015184602001516040518463ffffffff1660e01b815260040161304493929190614abc565b600060405180830381600087803b15801561305e57600080fd5b505af1158015613072573d6000803e3d6000fd5b50505050505b8760600151602001516020015160001461320a57600c54606086015160208701516040516328f40a9560e11b81526001600160a01b03928316600482015290821660248201529116906351e8152a90604401602060405180830381865afa1580156130e7573d6000803e3d6000fd5b505050506040513d601f19601f8201168201806040525081019061310b9190614a9a565b61318057600c5460608601516020870151604051631adcd63360e11b81526001600160a01b03928316600482015290821660248201529116906335b9ac6690604401600060405180830381600087803b15801561316757600080fd5b505af115801561317b573d6000803e3d6000fd5b505050505b600088606001519050600c60009054906101000a90046001600160a01b03166001600160a01b03166317bc6a728d836000015184602001516040518463ffffffff1660e01b81526004016131d693929190614abc565b600060405180830381600087803b1580156131f057600080fd5b505af1158015613204573d6000803e3d6000fd5b50505050505b6080880151602001511561337957600e54606086015160208701516040516328f40a9560e11b81526001600160a01b03928316600482015290821660248201529116906351e8152a90604401602060405180830381865afa158015613273573d6000803e3d6000fd5b505050506040513d601f19601f820116820180604052508101906132979190614a9a565b61330c57600e5460608601516020870151604051631adcd63360e11b81526001600160a01b03928316600482015290821660248201529116906335b9ac6690604401600060405180830381600087803b1580156132f357600080fd5b505af1158015613307573d6000803e3d6000fd5b505050505b600e54606086015160808a01516040516356a6192d60e11b81526001600160a01b039093169263ad4c325a92613346929091600401614b5a565b600060405180830381600087803b15801561336057600080fd5b505af1158015613374573d6000803e3d6000fd5b505050505b60a088015160200151156134e857600d54606086015160208701516040516328f40a9560e11b81526001600160a01b03928316600482015290821660248201529116906351e8152a90604401602060405180830381865afa1580156133e2573d6000803e3d6000fd5b505050506040513d601f19601f820116820180604052508101906134069190614a9a565b61347b57600d5460608601516020870151604051631adcd63360e11b81526001600160a01b03928316600482015290821660248201529116906335b9ac6690604401600060405180830381600087803b15801561346257600080fd5b505af1158015613476573d6000803e3d6000fd5b505050505b600d54606086015160a08a01516040516356a6192d60e11b81526001600160a01b039093169263ad4c325a926134b5929091600401614b5a565b600060405180830381600087803b1580156134cf57600080fd5b505af11580156134e3573d6000803e3d6000fd5b505050505b8982156136bf57600f54606087015160208801516040516328f40a9560e11b81526001600160a01b03928316600482015290821660248201529116906351e8152a90604401602060405180830381865afa15801561354a573d6000803e3d6000fd5b505050506040513d601f19601f8201168201806040525081019061356e9190614a9a565b6135e357600f5460608701516020880151604051631adcd63360e11b81526001600160a01b03928316600482015290821660248201529116906335b9ac6690604401600060405180830381600087803b1580156135ca57600080fd5b505af11580156135de573d6000803e3d6000fd5b505050505b60005b88518110156136bd57600089828151811061360357613603614a20565b602002602001015190506136398860600151600f60009054906101000a90046001600160a01b0316836020015160200151613975565b600f5460608901518251602084015160405163baf6ce1f60e01b81526001600160a01b039094169363baf6ce1f936136779390929091600401614bce565b600060405180830381600087803b15801561369157600080fd5b505af11580156136a5573d6000803e3d6000fd5b505050505080806136b590614a6e565b9150506135e6565b505b811561389857601054606087015160208801516040516328f40a9560e11b81526001600160a01b03928316600482015290821660248201529116906351e8152a90604401602060405180830381865afa158015613720573d6000803e3d6000fd5b505050506040513d601f19601f820116820180604052508101906137449190614a9a565b6137b95760105460608701516020880151604051631adcd63360e11b81526001600160a01b03928316600482015290821660248201529116906335b9ac6690604401600060405180830381600087803b1580156137a057600080fd5b505af11580156137b4573d6000803e3d6000fd5b505050505b60005b87518110156138965760008882815181106137d9576137d9614a20565b6020026020010151905061380b8860600151601060009054906101000a90046001600160a01b03168360400151613975565b601054606089015182516020840151604080860151905163021a440560e01b81526001600160a01b039095169463021a44059461385094909390929091600401614c57565b600060405180830381600087803b15801561386a57600080fd5b505af115801561387e573d6000803e3d6000fd5b5050505050808061388e90614a6e565b9150506137bc565b505b60408681015160608089015183516001600160a01b03938416815292166020830152818301849052810186905290517fc09fbebfef0054b64085d21310e8621dd22206fc0a44cedfa0a2f0fa5b97f7199181900360800190a150505050505050505050505050565b60008281526004602090815260408083206001600160a01b038516845290915290205460ff16610aa25761393381613a86565b61393e836020613a98565b60405160200161394f929190614c8c565b60408051601f198184030181529082905262461bcd60e51b82526107b691600401614d0d565b6001600160a01b0382161580159061398c57508015155b8015613a085750604051636eb1769f60e11b81523060048201526001600160a01b03838116602483015282919085169063dd62ed3e90604401602060405180830381865afa1580156139e2573d6000803e3d6000fd5b505050506040513d601f19601f82011682018060405250810190613a069190614a07565b105b15610a155760405163095ea7b360e01b81526001600160a01b0383811660048301526024820183905284169063095ea7b3906044016020604051808303816000875af1158015613a5c573d6000803e3d6000fd5b505050506040513d601f19601f82011682018060405250810190613a809190614a9a565b50505050565b60606107666001600160a01b03831660145b60606000613aa7836002614d20565b613ab2906002614a87565b67ffffffffffffffff811115613aca57613aca613e1a565b6040519080825280601f01601f191660200182016040528015613af4576020820181803683370190505b509050600360fc1b81600081518110613b0f57613b0f614a20565b60200101906001600160f81b031916908160001a905350600f60fb1b81600181518110613b3e57613b3e614a20565b60200101906001600160f81b031916908160001a9053506000613b62846002614d20565b613b6d906001614a87565b90505b6001811115613bf2577f303132333435363738396162636465660000000000000000000000000000000085600f1660108110613bae57613bae614a20565b1a60f81b828281518110613bc457613bc4614a20565b60200101906001600160f81b031916908160001a90535060049490941c93613beb81614d37565b9050613b70565b508315613c415760405162461bcd60e51b815260206004820181905260248201527f537472696e67733a20686578206c656e67746820696e73756666696369656e7460448201526064016107b6565b9392505050565b600060208284031215613c5a57600080fd5b81356001600160e01b031981168114613c4157600080fd5b6001600160a01b03811681146107e957600080fd5b600060208284031215613c9957600080fd5b8135613c4181613c72565b803562ffffff81168114613cb757600080fd5b919050565b600080600080600060a08688031215613cd457600080fd5b8535613cdf81613c72565b94506020860135613cef81613c72565b93506040860135613cff81613c72565b92506060860135613d0f81613c72565b9150613d1d60808701613ca4565b90509295509295909350565b600060208284031215613d3b57600080fd5b5035919050565b60008060408385031215613d5557600080fd5b823591506020830135613d6781613c72565b809150509250929050565b600080600080600060808688031215613d8a57600080fd5b8535613d9581613c72565b94506020860135613da581613c72565b93506040860135613db581613c72565b9250606086013567ffffffffffffffff80821115613dd257600080fd5b818801915088601f830112613de657600080fd5b813581811115613df557600080fd5b896020828501011115613e0757600080fd5b9699959850939650602001949392505050565b634e487b7160e01b600052604160045260246000fd5b60405160e0810167ffffffffffffffff81118282101715613e5357613e53613e1a565b60405290565b60405160c0810167ffffffffffffffff81118282101715613e5357613e53613e1a565b6040805190810167ffffffffffffffff81118282101715613e5357613e53613e1a565b6040516060810167ffffffffffffffff81118282101715613e5357613e53613e1a565b6040516102a0810167ffffffffffffffff81118282101715613e5357613e53613e1a565b604051601f8201601f1916810167ffffffffffffffff81118282101715613f0f57613f0f613e1a565b604052919050565b600060a08284031215613f2957600080fd5b60405160a0810181811067ffffffffffffffff82111715613f4c57613f4c613e1a565b806040525080915082358152602083013560208201526040830135604082015260608301356060820152608083013560808201525092915050565b600060e08284031215613f9957600080fd5b613fa1613e30565b90508135613fae81613c72565b808252506020820135602082015260408201356040820152606082013560608201526080820135608082015260a082013560a0820152613ff060c08301613ca4565b60c082015292915050565b803563ffffffff81168114613cb757600080fd5b600060c0828403121561402157600080fd5b614029613e59565b90508135815260208201356020820152604082013560408201526060820135606082015261405960808301613ffb565b608082015260a082013561ffff8116811461407357600080fd5b60a082015292915050565b600060e0828403121561409057600080fd5b614098613e30565b905081356140a581613c72565b808252506020820135602082015260408201356040820152606082013560608201526140d360808301613ffb565b60808201526140e460a08301613ffb565b60a0820152613ff060c08301613ffb565b600081830361014081121561410957600080fd5b614111613e7c565b9150606081121561412157600080fd5b5061412a613e9f565b823561413581613c72565b8152602083013561414581613c72565b602082015261415660408401613ca4565b6040820152815261416a836060840161407e565b602082015292915050565b600067ffffffffffffffff82111561418f5761418f613e1a565b5060051b60200190565b600082601f8301126141aa57600080fd5b813567ffffffffffffffff8111156141c4576141c4613e1a565b6141d7601f8201601f1916602001613ee6565b8181528460208386010111156141ec57600080fd5b816020850160208301376000918101602001919091529392505050565b600082601f83011261421a57600080fd5b8135602061422f61422a83614175565b613ee6565b82815260059290921b8401810191818101908684111561424e57600080fd5b8286015b848110156142d857803567ffffffffffffffff808211156142735760008081fd5b90880190610100828b03601f1901121561428d5760008081fd5b614295613e7c565b86830135828111156142a75760008081fd5b6142b58c8983870101614199565b8252506142c58b6040850161407e565b8188015285525050918301918301614252565b509695505050505050565b600082601f8301126142f457600080fd5b8135602061430461422a83614175565b82815260059290921b8401810191818101908684111561432357600080fd5b8286015b848110156142d857803567ffffffffffffffff808211156143485760008081fd5b908801906060828b03601f19018113156143625760008081fd5b61436a613e9f565b878401358381111561437c5760008081fd5b61438a8d8a83880101614199565b825250604092508284013561439e81613c72565b81890152920135908201528352918301918301614327565b60008060008060008060008789036109e08112156143d357600080fd5b88356143de81613c72565b975060208901356143ee81613c72565b96506040890135955060608901359450607f190161092081121561441157600080fd5b614419613e59565b61042082121561442857600080fd5b614430613e9f565b6102a083121561443f57600080fd5b614447613ec2565b925060808b0135835260a08b0135602084015260c08b0135604084015260e08b013560608401526101008b013560808401526101208b013560a08401526101408b013560c08401526101608b013560e08401526101808b01356101008401526101a08b01356101208401526101c08b01356101408401526101e08b01356101608401526102008b0135610180840152610220808c01356101a0850152610240808d01356101c0860152610260808e01356101e0870152610280808f01356102008801526102a08f0135848801526102c08f0135838801526102e08f0135828801526103008f013581880152505050508281526145478c6103208d01613f17565b602082015261455a8c6103c08d01613f87565b6040820152815261456f8b6104a08c0161400f565b60208201526145828b6105608c016140f5565b60408201526145958b6106a08c016140f5565b60608201526145a88b6107e08c0161407e565b60808201526145bb8b6108c08c0161407e565b60a08201529350506109a088013567ffffffffffffffff808211156145df57600080fd5b6145eb8b838c01614209565b93506109c08a013591508082111561460257600080fd5b5061460f8a828b016142e3565b91505092959891949750929550565b6000806040838503121561463157600080fd5b823561463c81613c72565b915060208381013567ffffffffffffffff8082111561465a57600080fd5b818601915086601f83011261466e57600080fd5b813561467c61422a82614175565b81815260059190911b8301840190848101908983111561469b57600080fd5b8585015b838110156146d3578035858111156146b75760008081fd5b6146c58c89838a0101614199565b84525091860191860161469f565b508096505050505050509250929050565b60005b838110156146ff5781810151838201526020016146e7565b50506000910152565b600081518084526147208160208601602086016146e4565b601f01601f19169290920160200192915050565b85815260006001600160a01b038087166020840152808616604084015280851660608401525060a0608083015261476e60a0830184614708565b979650505050505050565b600080600080600080600060e0888a03121561479457600080fd5b873561479f81613c72565b965060208801356147af81613c72565b955060408801356147bf81613c72565b945060608801356147cf81613c72565b935060808801356147df81613c72565b925060a08801356147ef81613c72565b915060c08801356147ff81613c72565b8091505092959891949750929550565b6020815281516020820152600060208301516001600160a01b0380821660408501528060408601511660608501528060608601511660808501525050608083015160a08084015261486360c0840182614708565b949350505050565b600181811c9082168061487f57607f821691505b60208210810361489f57634e487b7160e01b600052602260045260246000fd5b50919050565b601f821115610a1557600081815260208120601f850160051c810160208610156148cc5750805b601f850160051c820191505b81811015611f8b578281556001016148d8565b815167ffffffffffffffff81111561490557614905613e1a565b61491981614913845461486b565b846148a5565b602080601f83116001811461494e57600084156149365750858301515b600019600386901b1c1916600185901b178555611f8b565b600085815260208120601f198616915b8281101561497d5788860151825594840194600190910190840161495e565b508582101561499b5787850151600019600388901b60f8161c191681555b5050505050600190811b01905550565b6001600160a01b038416815260406020820152816040820152818360608301376000818301606090810191909152601f909201601f1916010192915050565b6000602082840312156149fc57600080fd5b8151613c4181613c72565b600060208284031215614a1957600080fd5b5051919050565b634e487b7160e01b600052603260045260246000fd5b6001600160a01b03831681526040602082015260006148636040830184614708565b634e487b7160e01b600052601160045260246000fd5b600060018201614a8057614a80614a58565b5060010190565b8082018082111561076657610766614a58565b600060208284031215614aac57600080fd5b81518015158114613c4157600080fd5b6000610160820190506001600160a01b0380861683528085511660208401528060208601511660408401525062ffffff604085015116606083015261486360808301846001600160a01b038151168252602081015160208301526040810151604083015260608101516060830152608081015163ffffffff80821660808501528060a08401511660a08501528060c08401511660c085015250505050565b6001600160a01b03831681526101008101613c4160208301846001600160a01b038151168252602081015160208301526040810151604083015260608101516060830152608081015163ffffffff80821660808501528060a08401511660a08501528060c08401511660c085015250505050565b60006101206001600160a01b0386168352806020840152614bf181840186614708565b91505061486360408301846001600160a01b038151168252602081015160208301526040810151604083015260608101516060830152608081015163ffffffff80821660808501528060a08401511660a08501528060c08401511660c085015250505050565b60006001600160a01b03808716835260806020840152614c7a6080840187614708565b94166040830152506060015292915050565b7f416363657373436f6e74726f6c3a206163636f756e7420000000000000000000815260008351614cc48160178501602088016146e4565b7f206973206d697373696e6720726f6c65200000000000000000000000000000006017918401918201528351614d018160288401602088016146e4565b01602801949350505050565b602081526000613c416020830184614708565b808202811582820484141761076657610766614a58565b600081614d4657614d46614a58565b50600019019056fe41636365737369626c653a2043616c6c6572206973206e6f7420616e2061646da164736f6c6343000812000adf8b4c520ffe197c5343c6f5aec59570151ef9a492f2c624fd45ddde6135ec42",
  "linkReferences": {},
  "deployedLinkReferences": {}
}