{
  "_format": "hh-sol-artifact-1",
  "contractName": "L2InitialLiquidityVaultStorage",
  "sourceName": "contracts/L2/vaults/L2InitialLiquidityVaultStorage.sol",
  "abi": [
    {
      "inputs": [],
      "name": "TWAP_PERIOD",
      "outputs": [
        {
          "internalType": "uint32",
          "name": "",
          "type": "uint32"
        }
      ],
      "stateMutability": "view",
      "type": "function"
    },
    {
      "inputs": [],
      "name": "acceptSlippagePrice",
      "outputs": [
        {
          "internalType": "int24",
          "name": "",
          "type": "int24"
        }
      ],
      "stateMutability": "view",
      "type": "function"
    },
    {
      "inputs": [],
      "name": "acceptTickChangeInterval",
      "outputs": [
        {
          "internalType": "int24",
          "name": "",
          "type": "int24"
        }
      ],
      "stateMutability": "view",
      "type": "function"
    },
    {
      "inputs": [],
      "name": "nonfungiblePositionManager",
      "outputs": [
        {
          "internalType": "address",
          "name": "",
          "type": "address"
        }
      ],
      "stateMutability": "view",
      "type": "function"
    },
    {
      "inputs": [
        {
          "internalType": "address",
          "name": "",
          "type": "address"
        }
      ],
      "name": "poolInfo",
      "outputs": [
        {
          "internalType": "address",
          "name": "pool",
          "type": "address"
        },
        {
          "internalType": "uint256",
          "name": "totalAllocatedAmount",
          "type": "uint256"
        },
        {
          "internalType": "uint256",
          "name": "initialTosPrice",
          "type": "uint256"
        },
        {
          "internalType": "uint256",
          "name": "initialTokenPrice",
          "type": "uint256"
        },
        {
          "internalType": "uint256",
          "name": "lpToken",
          "type": "uint256"
        },
        {
          "internalType": "uint256",
          "name": "startTime",
          "type": "uint256"
        },
        {
          "internalType": "uint160",
          "name": "initSqrtPriceX96",
          "type": "uint160"
        },
        {
          "internalType": "uint24",
          "name": "fee",
          "type": "uint24"
        },
        {
          "internalType": "bool",
          "name": "boolReadyToCreatePool",
          "type": "bool"
        }
      ],
      "stateMutability": "view",
      "type": "function"
    },
    {
      "inputs": [],
      "name": "tickSpacings",
      "outputs": [
        {
          "internalType": "int24",
          "name": "",
          "type": "int24"
        }
      ],
      "stateMutability": "view",
      "type": "function"
    },
    {
      "inputs": [],
      "name": "ton",
      "outputs": [
        {
          "internalType": "address",
          "name": "",
          "type": "address"
        }
      ],
      "stateMutability": "view",
      "type": "function"
    },
    {
      "inputs": [],
      "name": "tos",
      "outputs": [
        {
          "internalType": "address",
          "name": "",
          "type": "address"
        }
      ],
      "stateMutability": "view",
      "type": "function"
    },
    {
      "inputs": [],
      "name": "uniswapV3Factory",
      "outputs": [
        {
          "internalType": "address",
          "name": "",
          "type": "address"
        }
      ],
      "stateMutability": "view",
      "type": "function"
    }
  ],
  "bytecode": "0x608060405234801561001057600080fd5b5061028c806100206000396000f3fe608060405234801561001057600080fd5b50600436106100a35760003560e01c806389f395de116100765780639cbbbe861161005b5780639cbbbe861461021c578063b44a272214610229578063cc48b9471461023c57600080fd5b806389f395de1461013f5780639a7b5f111461015257600080fd5b806335d20f8a146100a857806345a41148146100d45780635b549182146100e85780637ca2518414610113575b600080fd5b6003546100bc90600160d81b900460020b81565b60405160029190910b81526020015b60405180910390f35b6003546100bc90600160c01b900460020b81565b6002546100fb906001600160a01b031681565b6040516001600160a01b0390911681526020016100cb565b60035461012a90600160a01b900463ffffffff1681565b60405163ffffffff90911681526020016100cb565b6001546100fb906001600160a01b031681565b6101c261016036600461024f565b600560208190526000918252604090912080546001820154600283015460038401546004850154958501546006909501546001600160a01b03948516969395929491939291811690600160a01b810462ffffff1690600160b81b900460ff1689565b604080516001600160a01b039a8b16815260208101999099528801969096526060870194909452608086019290925260a085015290931660c083015262ffffff90921660e0820152901515610100820152610120016100cb565b6004546100bc9060020b81565b6003546100fb906001600160a01b031681565b6000546100fb906001600160a01b031681565b60006020828403121561026157600080fd5b81356001600160a01b038116811461027857600080fd5b939250505056fea164736f6c6343000812000a",
  "linkReferences": {},
  "deployedLinkReferences": {}
}