{
  "_format": "hh-sol-artifact-1",
  "contractName": "Proxy2",
  "sourceName": "contracts/proxy/Proxy2.sol",
  "abi": [
    {
      "inputs": [],
      "stateMutability": "nonpayable",
      "type": "constructor"
    },
    {
      "anonymous": false,
      "inputs": [
        {
          "indexed": true,
          "internalType": "address",
          "name": "previousOwner",
          "type": "address"
        },
        {
          "indexed": true,
          "internalType": "address",
          "name": "newOwner",
          "type": "address"
        }
      ],
      "name": "OwnershipTransferred",
      "type": "event"
    },
    {
      "anonymous": false,
      "inputs": [
        {
          "indexed": true,
          "internalType": "address",
          "name": "impl",
          "type": "address"
        },
        {
          "indexed": false,
          "internalType": "bool",
          "name": "alive",
          "type": "bool"
        }
      ],
      "name": "SetAliveImplementation",
      "type": "event"
    },
    {
      "anonymous": false,
      "inputs": [
        {
          "indexed": true,
          "internalType": "bytes4",
          "name": "selector",
          "type": "bytes4"
        },
        {
          "indexed": true,
          "internalType": "address",
          "name": "impl",
          "type": "address"
        }
      ],
      "name": "SetSelectorImplementation",
      "type": "event"
    },
    {
      "anonymous": false,
      "inputs": [
        {
          "indexed": true,
          "internalType": "address",
          "name": "implementation",
          "type": "address"
        }
      ],
      "name": "Upgraded",
      "type": "event"
    },
    {
      "stateMutability": "payable",
      "type": "fallback"
    },
    {
      "inputs": [],
      "name": "_owner",
      "outputs": [
        {
          "internalType": "address",
          "name": "",
          "type": "address"
        }
      ],
      "stateMutability": "view",
      "type": "function"
    },
    {
      "inputs": [
        {
          "internalType": "address",
          "name": "",
          "type": "address"
        }
      ],
      "name": "aliveImplementation",
      "outputs": [
        {
          "internalType": "bool",
          "name": "",
          "type": "bool"
        }
      ],
      "stateMutability": "view",
      "type": "function"
    },
    {
      "inputs": [
        {
          "internalType": "bytes4",
          "name": "_selector",
          "type": "bytes4"
        }
      ],
      "name": "getSelectorImplementation2",
      "outputs": [
        {
          "internalType": "address",
          "name": "impl",
          "type": "address"
        }
      ],
      "stateMutability": "view",
      "type": "function"
    },
    {
      "inputs": [],
      "name": "implementation",
      "outputs": [
        {
          "internalType": "address",
          "name": "",
          "type": "address"
        }
      ],
      "stateMutability": "view",
      "type": "function"
    },
    {
      "inputs": [
        {
          "internalType": "uint256",
          "name": "_index",
          "type": "uint256"
        }
      ],
      "name": "implementation2",
      "outputs": [
        {
          "internalType": "address",
          "name": "",
          "type": "address"
        }
      ],
      "stateMutability": "view",
      "type": "function"
    },
    {
      "inputs": [],
      "name": "pauseProxy",
      "outputs": [
        {
          "internalType": "bool",
          "name": "",
          "type": "bool"
        }
      ],
      "stateMutability": "view",
      "type": "function"
    },
    {
      "inputs": [
        {
          "internalType": "uint256",
          "name": "",
          "type": "uint256"
        }
      ],
      "name": "proxyImplementation",
      "outputs": [
        {
          "internalType": "address",
          "name": "",
          "type": "address"
        }
      ],
      "stateMutability": "view",
      "type": "function"
    },
    {
      "inputs": [],
      "name": "renounceOwnership",
      "outputs": [],
      "stateMutability": "nonpayable",
      "type": "function"
    },
    {
      "inputs": [
        {
          "internalType": "bytes4",
          "name": "",
          "type": "bytes4"
        }
      ],
      "name": "selectorImplementation",
      "outputs": [
        {
          "internalType": "address",
          "name": "",
          "type": "address"
        }
      ],
      "stateMutability": "view",
      "type": "function"
    },
    {
      "inputs": [
        {
          "internalType": "address",
          "name": "newImplementation",
          "type": "address"
        },
        {
          "internalType": "bool",
          "name": "_alive",
          "type": "bool"
        }
      ],
      "name": "setAliveImplementation2",
      "outputs": [],
      "stateMutability": "nonpayable",
      "type": "function"
    },
    {
      "inputs": [
        {
          "internalType": "address",
          "name": "newImplementation",
          "type": "address"
        },
        {
          "internalType": "uint256",
          "name": "_index",
          "type": "uint256"
        },
        {
          "internalType": "bool",
          "name": "_alive",
          "type": "bool"
        }
      ],
      "name": "setImplementation2",
      "outputs": [],
      "stateMutability": "nonpayable",
      "type": "function"
    },
    {
      "inputs": [
        {
          "internalType": "bool",
          "name": "_pause",
          "type": "bool"
        }
      ],
      "name": "setProxyPause",
      "outputs": [],
      "stateMutability": "nonpayable",
      "type": "function"
    },
    {
      "inputs": [
        {
          "internalType": "bytes4[]",
          "name": "_selectors",
          "type": "bytes4[]"
        },
        {
          "internalType": "address",
          "name": "_imp",
          "type": "address"
        }
      ],
      "name": "setSelectorImplementations2",
      "outputs": [],
      "stateMutability": "nonpayable",
      "type": "function"
    },
    {
      "inputs": [
        {
          "internalType": "address",
          "name": "newOwner",
          "type": "address"
        }
      ],
      "name": "transferOwnership",
      "outputs": [],
      "stateMutability": "nonpayable",
      "type": "function"
    },
    {
      "inputs": [
        {
          "internalType": "address",
          "name": "impl",
          "type": "address"
        }
      ],
      "name": "upgradeTo",
      "outputs": [],
      "stateMutability": "nonpayable",
      "type": "function"
    },
    {
      "inputs": [
        {
          "internalType": "address",
          "name": "_implementation",
          "type": "address"
        },
        {
          "internalType": "bytes",
          "name": "_data",
          "type": "bytes"
        }
      ],
      "name": "upgradeToAndCall",
      "outputs": [
        {
          "internalType": "bytes",
          "name": "",
          "type": "bytes"
        }
      ],
      "stateMutability": "payable",
      "type": "function"
    },
    {
      "stateMutability": "payable",
      "type": "receive"
    }
  ],
  "bytecode": "0x608060405234801561001057600080fd5b50600080546001600160a01b0319163390811782556040519091907f8be0079c531659141344cd1fd0a4f28419497f9722a3daafe3b4186f6b6457e0908290a36111028061005f6000396000f3fe6080604052600436106100f75760003560e01c8063715018a61161008a5780638d4fdb40116100595780638d4fdb401461035c578063b2bdfa7b1461037c578063b911135f1461039c578063f2fde38b146103d257610149565b8063715018a6146102d15780637cb00d25146102e65780637cd5f663146103065780638b8f4a651461032657610149565b8063550d01a3116100c6578063550d01a31461020a5780635c60da1b1461024a5780635cc797d81461029057806363a8fd89146102b057610149565b80633659cfe6146101535780634a5df50f146101735780634f1ef2861461019357806350d2a276146101bc57610149565b366101495760405162461bcd60e51b815260206004820152601460248201527f63616e6e6f74207265636569766520457468657200000000000000000000000060448201526064015b60405180910390fd5b6101516103f2565b005b34801561015f57600080fd5b5061015161016e366004610e5d565b6104a2565b34801561017f57600080fd5b5061015161018e366004610e7f565b6105f3565b6101a66101a1366004610f03565b61088b565b6040516101b39190610f86565b60405180910390f35b3480156101c857600080fd5b506101f26101d7366004610fd4565b6003602052600090815260409020546001600160a01b031681565b6040516001600160a01b0390911681526020016101b3565b34801561021657600080fd5b5061023a610225366004610e5d565b60026020526000908152604090205460ff1681565b60405190151581526020016101b3565b34801561025657600080fd5b506000805260016020527fa6eef7e35abe7026729641147f7915573c7e97b47efa546f5f6e3230263bcb49546001600160a01b03166101f2565b34801561029c57600080fd5b506101516102ab36600461100e565b6109bf565b3480156102bc57600080fd5b5060005461023a90600160a01b900460ff1681565b3480156102dd57600080fd5b50610151610a13565b3480156102f257600080fd5b50610151610301366004611041565b610aa3565b34801561031257600080fd5b5061015161032136600461105c565b610b18565b34801561033257600080fd5b506101f261034136600461108f565b6000908152600160205260409020546001600160a01b031690565b34801561036857600080fd5b506101f2610377366004610fd4565b610b69565b34801561038857600080fd5b506000546101f2906001600160a01b031681565b3480156103a857600080fd5b506101f26103b736600461108f565b6001602052600090815260409020546001600160a01b031681565b3480156103de57600080fd5b506101516103ed366004610e5d565b610c65565b60006104096000356001600160e01b031916610b69565b90506001600160a01b0381161580159061042d5750600054600160a01b900460ff16155b6104795760405162461bcd60e51b815260206004820152601d60248201527f50726f78793a20696d706c204f522070726f78792069732066616c73650000006044820152606401610140565b3660008037600080366000845af43d6000803e808015610498573d6000f35b3d6000fd5b505050565b6000546001600160a01b031633146104e85760405162461bcd60e51b81526020600482015260096024820152683737ba1037bbb732b960b91b6044820152606401610140565b6001600160a01b03811661053e5760405162461bcd60e51b815260206004820152600d60248201527f696e707574206973207a65726f000000000000000000000000000000000000006044820152606401610140565b6000805260016020527fa6eef7e35abe7026729641147f7915573c7e97b47efa546f5f6e3230263bcb49546001600160a01b038281169116036105af5760405162461bcd60e51b815260206004820152600960248201526839b0b6b29030b2323960b91b6044820152606401610140565b6105bc8160006001610d5c565b6040516001600160a01b038216907fbc7cd75a20ee27fd9adebab32041f755214dbc6bffa90cc0225b39da2e5c2d3b90600090a250565b6000546001600160a01b031633146106395760405162461bcd60e51b81526020600482015260096024820152683737ba1037bbb732b960b91b6044820152606401610140565b816106865760405162461bcd60e51b815260206004820181905260248201527f50726f78793a205f73656c6563746f727327732073697a65206973207a65726f6044820152606401610140565b6001600160a01b03811660009081526002602052604090205460ff166106ee5760405162461bcd60e51b815260206004820152601860248201527f50726f78793a205f696d70206973206e6f7420616c69766500000000000000006044820152606401610140565b60005b8281101561088557816001600160a01b031660036000868685818110610719576107196110a8565b905060200201602081019061072e9190610fd4565b6001600160e01b03191681526020810191909152604001600020546001600160a01b03160361079f5760405162461bcd60e51b815260206004820152601d60248201527f4c69717569646974795661756c7450726f78793a2073616d6520696d700000006044820152606401610140565b81600360008686858181106107b6576107b66110a8565b90506020020160208101906107cb9190610fd4565b6001600160e01b0319168152602081019190915260400160002080546001600160a01b0319166001600160a01b039283161790558216848483818110610813576108136110a8565b90506020020160208101906108289190610fd4565b7bffffffffffffffffffffffffffffffffffffffffffffffffffffffff19167f14ebc1c32aa68f4d766e89f3e546cee249f7df25183fc10ab1568d91c2ce9b7b60405160405180910390a38061087d816110be565b9150506106f1565b50505050565b6000546060906001600160a01b031633146108d45760405162461bcd60e51b81526020600482015260096024820152683737ba1037bbb732b960b91b6044820152606401610140565b6108e18460006001610d5c565b600080856001600160a01b031685856040516108fe9291906110e5565b600060405180830381855af49150503d8060008114610939576040519150601f19603f3d011682016040523d82523d6000602084013e61093e565b606091505b5091509150816109b65760405162461bcd60e51b815260206004820152603960248201527f50726f78793a2064656c656761746563616c6c20746f206e657720696d706c6560448201527f6d656e746174696f6e20636f6e7472616374206661696c6564000000000000006064820152608401610140565b95945050505050565b6000546001600160a01b03163314610a055760405162461bcd60e51b81526020600482015260096024820152683737ba1037bbb732b960b91b6044820152606401610140565b610a0f8282610de7565b5050565b6000546001600160a01b03163314610a595760405162461bcd60e51b81526020600482015260096024820152683737ba1037bbb732b960b91b6044820152606401610140565b600080546040516001600160a01b03909116907f8be0079c531659141344cd1fd0a4f28419497f9722a3daafe3b4186f6b6457e0908390a3600080546001600160a01b0319169055565b6000546001600160a01b03163314610ae95760405162461bcd60e51b81526020600482015260096024820152683737ba1037bbb732b960b91b6044820152606401610140565b60008054911515600160a01b0274ff000000000000000000000000000000000000000019909216919091179055565b6000546001600160a01b03163314610b5e5760405162461bcd60e51b81526020600482015260096024820152683737ba1037bbb732b960b91b6044820152606401610140565b61049d838383610d5c565b6001600160e01b031981166000908152600360205260408120546001600160a01b0316610bc95750506000805260016020527fa6eef7e35abe7026729641147f7915573c7e97b47efa546f5f6e3230263bcb49546001600160a01b031690565b6001600160e01b031982166000908152600360209081526040808320546001600160a01b03168352600290915290205460ff1615610c2757506001600160e01b0319166000908152600360205260409020546001600160a01b031690565b50506000805260016020527fa6eef7e35abe7026729641147f7915573c7e97b47efa546f5f6e3230263bcb49546001600160a01b031690565b919050565b6000546001600160a01b03163314610cab5760405162461bcd60e51b81526020600482015260096024820152683737ba1037bbb732b960b91b6044820152606401610140565b6001600160a01b038116610d015760405162461bcd60e51b815260206004820152601d60248201527f6e6577206f776e657220697320746865207a65726f20616464726573730000006044820152606401610140565b600080546040516001600160a01b03808516939216917f8be0079c531659141344cd1fd0a4f28419497f9722a3daafe3b4186f6b6457e091a3600080546001600160a01b0319166001600160a01b0392909216919091179055565b6001600160a01b0383163b610db35760405162461bcd60e51b815260206004820152601b60248201527f50726f78793a206e6f7420636f6e7472616374206164647265737300000000006044820152606401610140565b8015610de157600082815260016020526040902080546001600160a01b0319166001600160a01b0385161790555b61049d83825b6001600160a01b038216600081815260026020908152604091829020805460ff191685151590811790915591519182527f72558d9bfba4210f9ef095c782589484151f6d90f7a81bb3cb9b33efc695d324910160405180910390a25050565b80356001600160a01b0381168114610c6057600080fd5b600060208284031215610e6f57600080fd5b610e7882610e46565b9392505050565b600080600060408486031215610e9457600080fd5b833567ffffffffffffffff80821115610eac57600080fd5b818601915086601f830112610ec057600080fd5b813581811115610ecf57600080fd5b8760208260051b8501011115610ee457600080fd5b602092830195509350610efa9186019050610e46565b90509250925092565b600080600060408486031215610f1857600080fd5b610f2184610e46565b9250602084013567ffffffffffffffff80821115610f3e57600080fd5b818601915086601f830112610f5257600080fd5b813581811115610f6157600080fd5b876020828501011115610f7357600080fd5b6020830194508093505050509250925092565b600060208083528351808285015260005b81811015610fb357858101830151858201604001528201610f97565b506000604082860101526040601f19601f8301168501019250505092915050565b600060208284031215610fe657600080fd5b81356001600160e01b031981168114610e7857600080fd5b80358015158114610c6057600080fd5b6000806040838503121561102157600080fd5b61102a83610e46565b915061103860208401610ffe565b90509250929050565b60006020828403121561105357600080fd5b610e7882610ffe565b60008060006060848603121561107157600080fd5b61107a84610e46565b925060208401359150610efa60408501610ffe565b6000602082840312156110a157600080fd5b5035919050565b634e487b7160e01b600052603260045260246000fd5b6000600182016110de57634e487b7160e01b600052601160045260246000fd5b5060010190565b818382376000910190815291905056fea164736f6c6343000812000a",
  "linkReferences": {},
  "deployedLinkReferences": {}
}