{
  "_format": "hh-sol-artifact-1",
  "contractName": "Proxy2",
  "sourceName": "contracts/proxy/Proxy2.sol",
  "abi": [
    {
      "inputs": [],
      "stateMutability": "nonpayable",
      "type": "constructor"
    },
    {
      "anonymous": false,
      "inputs": [
        {
          "indexed": true,
          "internalType": "address",
          "name": "previousOwner",
          "type": "address"
        },
        {
          "indexed": true,
          "internalType": "address",
          "name": "newOwner",
          "type": "address"
        }
      ],
      "name": "OwnershipTransferred",
      "type": "event"
    },
    {
      "anonymous": false,
      "inputs": [
        {
          "indexed": true,
          "internalType": "address",
          "name": "impl",
          "type": "address"
        },
        {
          "indexed": false,
          "internalType": "bool",
          "name": "alive",
          "type": "bool"
        }
      ],
      "name": "SetAliveImplementation",
      "type": "event"
    },
    {
      "anonymous": false,
      "inputs": [
        {
          "indexed": true,
          "internalType": "bytes4",
          "name": "selector",
          "type": "bytes4"
        },
        {
          "indexed": true,
          "internalType": "address",
          "name": "impl",
          "type": "address"
        }
      ],
      "name": "SetSelectorImplementation",
      "type": "event"
    },
    {
      "anonymous": false,
      "inputs": [
        {
          "indexed": true,
          "internalType": "address",
          "name": "implementation",
          "type": "address"
        }
      ],
      "name": "Upgraded",
      "type": "event"
    },
    {
      "stateMutability": "payable",
      "type": "fallback"
    },
    {
      "inputs": [],
      "name": "_owner",
      "outputs": [
        {
          "internalType": "address",
          "name": "",
          "type": "address"
        }
      ],
      "stateMutability": "view",
      "type": "function"
    },
    {
      "inputs": [
        {
          "internalType": "address",
          "name": "",
          "type": "address"
        }
      ],
      "name": "aliveImplementation",
      "outputs": [
        {
          "internalType": "bool",
          "name": "",
          "type": "bool"
        }
      ],
      "stateMutability": "view",
      "type": "function"
    },
    {
      "inputs": [
        {
          "internalType": "bytes4",
          "name": "_selector",
          "type": "bytes4"
        }
      ],
      "name": "getSelectorImplementation2",
      "outputs": [
        {
          "internalType": "address",
          "name": "impl",
          "type": "address"
        }
      ],
      "stateMutability": "view",
      "type": "function"
    },
    {
      "inputs": [],
      "name": "implementation",
      "outputs": [
        {
          "internalType": "address",
          "name": "",
          "type": "address"
        }
      ],
      "stateMutability": "view",
      "type": "function"
    },
    {
      "inputs": [
        {
          "internalType": "uint256",
          "name": "_index",
          "type": "uint256"
        }
      ],
      "name": "implementation2",
      "outputs": [
        {
          "internalType": "address",
          "name": "",
          "type": "address"
        }
      ],
      "stateMutability": "view",
      "type": "function"
    },
    {
      "inputs": [],
      "name": "pauseProxy",
      "outputs": [
        {
          "internalType": "bool",
          "name": "",
          "type": "bool"
        }
      ],
      "stateMutability": "view",
      "type": "function"
    },
    {
      "inputs": [
        {
          "internalType": "uint256",
          "name": "",
          "type": "uint256"
        }
      ],
      "name": "proxyImplementation",
      "outputs": [
        {
          "internalType": "address",
          "name": "",
          "type": "address"
        }
      ],
      "stateMutability": "view",
      "type": "function"
    },
    {
      "inputs": [],
      "name": "renounceOwnership",
      "outputs": [],
      "stateMutability": "nonpayable",
      "type": "function"
    },
    {
      "inputs": [
        {
          "internalType": "bytes4",
          "name": "",
          "type": "bytes4"
        }
      ],
      "name": "selectorImplementation",
      "outputs": [
        {
          "internalType": "address",
          "name": "",
          "type": "address"
        }
      ],
      "stateMutability": "view",
      "type": "function"
    },
    {
      "inputs": [
        {
          "internalType": "address",
          "name": "newImplementation",
          "type": "address"
        },
        {
          "internalType": "bool",
          "name": "_alive",
          "type": "bool"
        }
      ],
      "name": "setAliveImplementation2",
      "outputs": [],
      "stateMutability": "nonpayable",
      "type": "function"
    },
    {
      "inputs": [
        {
          "internalType": "address",
          "name": "newImplementation",
          "type": "address"
        },
        {
          "internalType": "uint256",
          "name": "_index",
          "type": "uint256"
        },
        {
          "internalType": "bool",
          "name": "_alive",
          "type": "bool"
        }
      ],
      "name": "setImplementation2",
      "outputs": [],
      "stateMutability": "nonpayable",
      "type": "function"
    },
    {
      "inputs": [
        {
          "internalType": "bool",
          "name": "_pause",
          "type": "bool"
        }
      ],
      "name": "setProxyPause",
      "outputs": [],
      "stateMutability": "nonpayable",
      "type": "function"
    },
    {
      "inputs": [
        {
          "internalType": "bytes4[]",
          "name": "_selectors",
          "type": "bytes4[]"
        },
        {
          "internalType": "address",
          "name": "_imp",
          "type": "address"
        }
      ],
      "name": "setSelectorImplementations2",
      "outputs": [],
      "stateMutability": "nonpayable",
      "type": "function"
    },
    {
      "inputs": [
        {
          "internalType": "address",
          "name": "newOwner",
          "type": "address"
        }
      ],
      "name": "transferOwnership",
      "outputs": [],
      "stateMutability": "nonpayable",
      "type": "function"
    },
    {
      "inputs": [
        {
          "internalType": "address",
          "name": "impl",
          "type": "address"
        }
      ],
      "name": "upgradeTo",
      "outputs": [],
      "stateMutability": "nonpayable",
      "type": "function"
    },
    {
      "stateMutability": "payable",
      "type": "receive"
    }
  ],
  "bytecode": "0x608060405234801561001057600080fd5b50600080546001600160a01b0319163390811782556040519091907f8be0079c531659141344cd1fd0a4f28419497f9722a3daafe3b4186f6b6457e0908290a3610ebe8061005f6000396000f3fe6080604052600436106100ec5760003560e01c8063715018a61161008a5780638d4fdb40116100595780638d4fdb401461032d578063b2bdfa7b1461034d578063b911135f1461036d578063f2fde38b146103a35761013e565b8063715018a6146102a25780637cb00d25146102b75780637cd5f663146102d75780638b8f4a65146102f75761013e565b8063550d01a3116100c6578063550d01a3146101db5780635c60da1b1461021b5780635cc797d81461026157806363a8fd89146102815761013e565b80633659cfe6146101485780634a5df50f1461016857806350d2a276146101885761013e565b3661013e5760405162461bcd60e51b815260206004820152601460248201527f63616e6e6f74207265636569766520457468657200000000000000000000000060448201526064015b60405180910390fd5b6101466103c3565b005b34801561015457600080fd5b50610146610163366004610cfa565b610473565b34801561017457600080fd5b50610146610183366004610d1c565b6105c4565b34801561019457600080fd5b506101be6101a3366004610da0565b6003602052600090815260409020546001600160a01b031681565b6040516001600160a01b0390911681526020015b60405180910390f35b3480156101e757600080fd5b5061020b6101f6366004610cfa565b60026020526000908152604090205460ff1681565b60405190151581526020016101d2565b34801561022757600080fd5b506000805260016020527fa6eef7e35abe7026729641147f7915573c7e97b47efa546f5f6e3230263bcb49546001600160a01b03166101be565b34801561026d57600080fd5b5061014661027c366004610dda565b61085c565b34801561028d57600080fd5b5060005461020b90600160a01b900460ff1681565b3480156102ae57600080fd5b506101466108b0565b3480156102c357600080fd5b506101466102d2366004610e0d565b610940565b3480156102e357600080fd5b506101466102f2366004610e28565b6109b5565b34801561030357600080fd5b506101be610312366004610e5b565b6000908152600160205260409020546001600160a01b031690565b34801561033957600080fd5b506101be610348366004610da0565b610a06565b34801561035957600080fd5b506000546101be906001600160a01b031681565b34801561037957600080fd5b506101be610388366004610e5b565b6001602052600090815260409020546001600160a01b031681565b3480156103af57600080fd5b506101466103be366004610cfa565b610b02565b60006103da6000356001600160e01b031916610a06565b90506001600160a01b038116158015906103fe5750600054600160a01b900460ff16155b61044a5760405162461bcd60e51b815260206004820152601d60248201527f50726f78793a20696d706c204f522070726f78792069732066616c73650000006044820152606401610135565b3660008037600080366000845af43d6000803e808015610469573d6000f35b3d6000fd5b505050565b6000546001600160a01b031633146104b95760405162461bcd60e51b81526020600482015260096024820152683737ba1037bbb732b960b91b6044820152606401610135565b6001600160a01b03811661050f5760405162461bcd60e51b815260206004820152600d60248201527f696e707574206973207a65726f000000000000000000000000000000000000006044820152606401610135565b6000805260016020527fa6eef7e35abe7026729641147f7915573c7e97b47efa546f5f6e3230263bcb49546001600160a01b038281169116036105805760405162461bcd60e51b815260206004820152600960248201526839b0b6b29030b2323960b91b6044820152606401610135565b61058d8160006001610bf9565b6040516001600160a01b038216907fbc7cd75a20ee27fd9adebab32041f755214dbc6bffa90cc0225b39da2e5c2d3b90600090a250565b6000546001600160a01b0316331461060a5760405162461bcd60e51b81526020600482015260096024820152683737ba1037bbb732b960b91b6044820152606401610135565b816106575760405162461bcd60e51b815260206004820181905260248201527f50726f78793a205f73656c6563746f727327732073697a65206973207a65726f6044820152606401610135565b6001600160a01b03811660009081526002602052604090205460ff166106bf5760405162461bcd60e51b815260206004820152601860248201527f50726f78793a205f696d70206973206e6f7420616c69766500000000000000006044820152606401610135565b60005b8281101561085657816001600160a01b0316600360008686858181106106ea576106ea610e74565b90506020020160208101906106ff9190610da0565b6001600160e01b03191681526020810191909152604001600020546001600160a01b0316036107705760405162461bcd60e51b815260206004820152601d60248201527f4c69717569646974795661756c7450726f78793a2073616d6520696d700000006044820152606401610135565b816003600086868581811061078757610787610e74565b905060200201602081019061079c9190610da0565b6001600160e01b0319168152602081019190915260400160002080546001600160a01b0319166001600160a01b0392831617905582168484838181106107e4576107e4610e74565b90506020020160208101906107f99190610da0565b7bffffffffffffffffffffffffffffffffffffffffffffffffffffffff19167f14ebc1c32aa68f4d766e89f3e546cee249f7df25183fc10ab1568d91c2ce9b7b60405160405180910390a38061084e81610e8a565b9150506106c2565b50505050565b6000546001600160a01b031633146108a25760405162461bcd60e51b81526020600482015260096024820152683737ba1037bbb732b960b91b6044820152606401610135565b6108ac8282610c84565b5050565b6000546001600160a01b031633146108f65760405162461bcd60e51b81526020600482015260096024820152683737ba1037bbb732b960b91b6044820152606401610135565b600080546040516001600160a01b03909116907f8be0079c531659141344cd1fd0a4f28419497f9722a3daafe3b4186f6b6457e0908390a3600080546001600160a01b0319169055565b6000546001600160a01b031633146109865760405162461bcd60e51b81526020600482015260096024820152683737ba1037bbb732b960b91b6044820152606401610135565b60008054911515600160a01b0274ff000000000000000000000000000000000000000019909216919091179055565b6000546001600160a01b031633146109fb5760405162461bcd60e51b81526020600482015260096024820152683737ba1037bbb732b960b91b6044820152606401610135565b61046e838383610bf9565b6001600160e01b031981166000908152600360205260408120546001600160a01b0316610a665750506000805260016020527fa6eef7e35abe7026729641147f7915573c7e97b47efa546f5f6e3230263bcb49546001600160a01b031690565b6001600160e01b031982166000908152600360209081526040808320546001600160a01b03168352600290915290205460ff1615610ac457506001600160e01b0319166000908152600360205260409020546001600160a01b031690565b50506000805260016020527fa6eef7e35abe7026729641147f7915573c7e97b47efa546f5f6e3230263bcb49546001600160a01b031690565b919050565b6000546001600160a01b03163314610b485760405162461bcd60e51b81526020600482015260096024820152683737ba1037bbb732b960b91b6044820152606401610135565b6001600160a01b038116610b9e5760405162461bcd60e51b815260206004820152601d60248201527f6e6577206f776e657220697320746865207a65726f20616464726573730000006044820152606401610135565b600080546040516001600160a01b03808516939216917f8be0079c531659141344cd1fd0a4f28419497f9722a3daafe3b4186f6b6457e091a3600080546001600160a01b0319166001600160a01b0392909216919091179055565b6001600160a01b0383163b610c505760405162461bcd60e51b815260206004820152601b60248201527f50726f78793a206e6f7420636f6e7472616374206164647265737300000000006044820152606401610135565b8015610c7e57600082815260016020526040902080546001600160a01b0319166001600160a01b0385161790555b61046e83825b6001600160a01b038216600081815260026020908152604091829020805460ff191685151590811790915591519182527f72558d9bfba4210f9ef095c782589484151f6d90f7a81bb3cb9b33efc695d324910160405180910390a25050565b80356001600160a01b0381168114610afd57600080fd5b600060208284031215610d0c57600080fd5b610d1582610ce3565b9392505050565b600080600060408486031215610d3157600080fd5b833567ffffffffffffffff80821115610d4957600080fd5b818601915086601f830112610d5d57600080fd5b813581811115610d6c57600080fd5b8760208260051b8501011115610d8157600080fd5b602092830195509350610d979186019050610ce3565b90509250925092565b600060208284031215610db257600080fd5b81356001600160e01b031981168114610d1557600080fd5b80358015158114610afd57600080fd5b60008060408385031215610ded57600080fd5b610df683610ce3565b9150610e0460208401610dca565b90509250929050565b600060208284031215610e1f57600080fd5b610d1582610dca565b600080600060608486031215610e3d57600080fd5b610e4684610ce3565b925060208401359150610d9760408501610dca565b600060208284031215610e6d57600080fd5b5035919050565b634e487b7160e01b600052603260045260246000fd5b600060018201610eaa57634e487b7160e01b600052601160045260246000fd5b506001019056fea164736f6c6343000812000a",
  "linkReferences": {},
  "deployedLinkReferences": {}
}