{
  "_format": "hh-sol-artifact-1",
  "contractName": "LibPublicSaleVault",
  "sourceName": "contracts/libraries/LibPublicSaleVault.sol",
  "abi": [
    {
      "inputs": [
        {
          "internalType": "bytes",
          "name": "data",
          "type": "bytes"
        }
      ],
      "name": "_decodeApproveData",
      "outputs": [
        {
          "internalType": "uint256",
          "name": "approveData",
          "type": "uint256"
        }
      ],
      "stateMutability": "pure",
      "type": "function"
    },
    {
      "inputs": [
        {
          "internalType": "int24",
          "name": "_tick",
          "type": "int24"
        },
        {
          "internalType": "int24",
          "name": "_tickSpacings",
          "type": "int24"
        },
        {
          "internalType": "int24",
          "name": "_acceptTickInterval",
          "type": "int24"
        }
      ],
      "name": "acceptMaxTick",
      "outputs": [
        {
          "internalType": "int24",
          "name": "",
          "type": "int24"
        }
      ],
      "stateMutability": "pure",
      "type": "function"
    },
    {
      "inputs": [
        {
          "internalType": "int24",
          "name": "_tick",
          "type": "int24"
        },
        {
          "internalType": "int24",
          "name": "_tickSpacings",
          "type": "int24"
        },
        {
          "internalType": "int24",
          "name": "_acceptTickInterval",
          "type": "int24"
        }
      ],
      "name": "acceptMinTick",
      "outputs": [
        {
          "internalType": "int24",
          "name": "",
          "type": "int24"
        }
      ],
      "stateMutability": "pure",
      "type": "function"
    },
    {
      "inputs": [
        {
          "internalType": "int24",
          "name": "tickSpacings",
          "type": "int24"
        }
      ],
      "name": "getMaxTick",
      "outputs": [
        {
          "internalType": "int24",
          "name": "",
          "type": "int24"
        }
      ],
      "stateMutability": "pure",
      "type": "function"
    },
    {
      "inputs": [
        {
          "internalType": "int24",
          "name": "tickSpacings",
          "type": "int24"
        }
      ],
      "name": "getMiniTick",
      "outputs": [
        {
          "internalType": "int24",
          "name": "",
          "type": "int24"
        }
      ],
      "stateMutability": "pure",
      "type": "function"
    },
    {
      "inputs": [
        {
          "internalType": "address",
          "name": "_wton",
          "type": "address"
        },
        {
          "internalType": "address",
          "name": "_tos",
          "type": "address"
        }
      ],
      "name": "getPoolAddress",
      "outputs": [
        {
          "internalType": "address",
          "name": "",
          "type": "address"
        }
      ],
      "stateMutability": "view",
      "type": "function"
    },
    {
      "inputs": [
        {
          "internalType": "int24",
          "name": "tick",
          "type": "int24"
        },
        {
          "internalType": "uint128",
          "name": "amountIn",
          "type": "uint128"
        },
        {
          "internalType": "address",
          "name": "baseToken",
          "type": "address"
        },
        {
          "internalType": "address",
          "name": "quoteToken",
          "type": "address"
        }
      ],
      "name": "getQuoteAtTick",
      "outputs": [
        {
          "internalType": "uint256",
          "name": "amountOut",
          "type": "uint256"
        }
      ],
      "stateMutability": "pure",
      "type": "function"
    },
    {
      "inputs": [
        {
          "internalType": "address",
          "name": "_pool",
          "type": "address"
        },
        {
          "internalType": "uint32",
          "name": "_period",
          "type": "uint32"
        }
      ],
      "name": "getTimeWeightTick",
      "outputs": [
        {
          "internalType": "int24",
          "name": "",
          "type": "int24"
        }
      ],
      "stateMutability": "view",
      "type": "function"
    },
    {
      "inputs": [
        {
          "internalType": "address",
          "name": "_pool",
          "type": "address"
        }
      ],
      "name": "getTokenOrder",
      "outputs": [
        {
          "internalType": "address",
          "name": "",
          "type": "address"
        },
        {
          "internalType": "address",
          "name": "",
          "type": "address"
        },
        {
          "internalType": "int24",
          "name": "",
          "type": "int24"
        }
      ],
      "stateMutability": "view",
      "type": "function"
    },
    {
      "inputs": [
        {
          "internalType": "uint256",
          "name": "amountIn",
          "type": "uint256"
        },
        {
          "internalType": "address",
          "name": "_pool",
          "type": "address"
        },
        {
          "internalType": "address",
          "name": "token0",
          "type": "address"
        },
        {
          "internalType": "address",
          "name": "token1",
          "type": "address"
        },
        {
          "internalType": "int24",
          "name": "acceptTickCounts",
          "type": "int24"
        }
      ],
      "name": "limitPrameters",
      "outputs": [
        {
          "internalType": "uint256",
          "name": "amountOutMinimum",
          "type": "uint256"
        },
        {
          "internalType": "uint256",
          "name": "priceLimit",
          "type": "uint256"
        },
        {
          "internalType": "uint160",
          "name": "sqrtPriceX96Limit",
          "type": "uint160"
        }
      ],
      "stateMutability": "view",
      "type": "function"
    }
  ],
  "bytecode": "0x61157361003a600b82828239805160001a60731461002d57634e487b7160e01b600052600060045260246000fd5b30600052607381538281f3fe73000000000000000000000000000000000000000030146080604052600436106100c85760003560e01c806380e15efe11610080578063a22f84f011610065578063a22f84f0146101dd578063aa5bbf55146101f0578063ff9ceebd1461020557600080fd5b806380e15efe146101b7578063826bd4bf146101ca57600080fd5b80633fa1e0c8116100b15780633fa1e0c81461013457806343c57a271461015f5780637c2c89e21461018057600080fd5b80631099cdcd146100cd5780633445c59f1461010e575b600080fd5b6100e06100db366004610e00565b610218565b604080516001600160a01b03948516815293909216602084015260020b908201526060015b60405180910390f35b61012161011c366004610e1d565b610361565b60405160029190910b8152602001610105565b610147610142366004610e5f565b610376565b6040516001600160a01b039091168152602001610105565b61017261016d366004610e9c565b61040f565b604051908152602001610105565b61019361018e366004610f04565b610426565b6040805193845260208401929092526001600160a01b031690820152606001610105565b6101216101c5366004610f6c565b610573565b6101216101d8366004610fb7565b6105bb565b6101216101eb366004610fb7565b6105d6565b6101726101fe36600461101b565b6020015190565b610121610213366004610f6c565b6105f1565b600080600080846001600160a01b0316630dfe16816040518163ffffffff1660e01b8152600401602060405180830381865afa15801561025c573d6000803e3d6000fd5b505050506040513d601f19601f8201168201806040525081019061028091906110b0565b90506000856001600160a01b031663d21220a76040518163ffffffff1660e01b8152600401602060405180830381865afa1580156102c2573d6000803e3d6000fd5b505050506040513d601f19601f820116820180604052508101906102e691906110b0565b90506000866001600160a01b0316633850c7bd6040518163ffffffff1660e01b815260040160e060405180830381865afa158015610328573d6000803e3d6000fd5b505050506040513d601f19601f8201168201806040525081019061034c91906110e4565b50979c969b5092995094975050505050505050565b600061036d8383610636565b90505b92915050565b604051630b4c774160e11b81526001600160a01b03808416600483015282166024820152610bb86044820152600090732ae8fee7b4f4ef27088fa8a550c91a045a3128b5908190631698ee8290606401602060405180830381865afa1580156103e3573d6000803e3d6000fd5b505050506040513d601f19601f8201168201806040525081019061040791906110b0565b949350505050565b600061041d858585856107fa565b95945050505050565b6000806000808790506000816001600160a01b0316633850c7bd6040518163ffffffff1660e01b815260040160e060405180830381865afa15801561046f573d6000803e3d6000fd5b505050506040513d601f19601f8201168201806040525081019061049391906110e4565b50505050509150506000819050876001600160a01b0316896001600160a01b031610156104ed576104c587603c611197565b6104cf90836111be565b9050620d89e719600282900b12156104e85750620d89e7195b61052e565b6104f887603c611197565b61050290836111e3565b9050610511620d89e719611208565b60020b8160020b131561052e5761052b620d89e719611208565b90505b878961053c838e838561040f565b610554846b033b2e3c9fd0803ce8000000848661040f565b61055d85610908565b9750975097505050505050955095509592505050565b60008061057f846105bb565b9050600061058d8486611197565b61059790876111be565b90508060020b8260020b12156105b05791506105b49050565b5090505b9392505050565b6000816105cc81620d89e719611240565b6103709190611197565b600081806105e7620d89e719611208565b6105cc9190611240565b6000806105fd846105d6565b9050600061060b8486611197565b61061590876111e3565b90508060020b8260020b121561062d575090506105b4565b91506105b49050565b60008163ffffffff166000036106785760405162461bcd60e51b8152602060048201526002602482015261042560f41b60448201526064015b60405180910390fd5b60408051600280825260608201835260009260208301908036833701905050905082816000815181106106ad576106ad61127a565b602002602001019063ffffffff16908163ffffffff16815250506000816001815181106106dc576106dc61127a565b63ffffffff9092166020928302919091019091015260405163883bdbfd60e01b81526000906001600160a01b0386169063883bdbfd90610720908590600401611290565b600060405180830381865afa15801561073d573d6000803e3d6000fd5b505050506040513d6000823e601f3d908101601f191682016040526107659190810190611372565b50905060008160008151811061077d5761077d61127a565b6020026020010151826001815181106107985761079861127a565b60200260200101516107aa919061143e565b90506107ba600386900b8261146b565b935060008160060b1280156107de57506107d8600386900b826114a0565b60060b15155b156107f157836107ed816114c2565b9450505b50505092915050565b60008061080686610908565b90506001600160801b036001600160a01b0382161161088c5760006108346001600160a01b038316806114e5565b9050836001600160a01b0316856001600160a01b03161061086c57610867600160c01b876001600160801b031683610d20565b610884565b61088481876001600160801b0316600160c01b610d20565b9250506108ff565b60006108ab6001600160a01b0383168068010000000000000000610d20565b9050836001600160a01b0316856001600160a01b0316106108e3576108de600160801b876001600160801b031683610d20565b6108fb565b6108fb81876001600160801b0316600160801b610d20565b9250505b50949350505050565b60008060008360020b1261091f578260020b61092c565b8260020b61092c906114fc565b905061093b620d89e719611208565b60020b8111156109715760405162461bcd60e51b81526020600482015260016024820152601560fa1b604482015260640161066f565b60008160011660000361098857600160801b61099a565b6ffffcb933bd6fad37aa2d162d1a5940015b70ffffffffffffffffffffffffffffffffff16905060028216156109d95760806109d4826ffff97272373d413259a46990580e213a6114e5565b901c90505b6004821615610a035760806109fe826ffff2e50f5f656932ef12357cf3c7fdcc6114e5565b901c90505b6008821615610a2d576080610a28826fffe5caca7e10e4e61c3624eaa0941cd06114e5565b901c90505b6010821615610a57576080610a52826fffcb9843d60f6159c9db58835c9266446114e5565b901c90505b6020821615610a81576080610a7c826fff973b41fa98c081472e6896dfb254c06114e5565b901c90505b6040821615610aab576080610aa6826fff2ea16466c96a3843ec78b326b528616114e5565b901c90505b6080821615610ad5576080610ad0826ffe5dee046a99a2a811c461f1969c30536114e5565b901c90505b610100821615610b00576080610afb826ffcbe86c7900a88aedcffc83b479aa3a46114e5565b901c90505b610200821615610b2b576080610b26826ff987a7253ac413176f2b074cf7815e546114e5565b901c90505b610400821615610b56576080610b51826ff3392b0822b70005940c7a398e4b70f36114e5565b901c90505b610800821615610b81576080610b7c826fe7159475a2c29b7443b29c7fa6e889d96114e5565b901c90505b611000821615610bac576080610ba7826fd097f3bdfd2022b8845ad8f792aa58256114e5565b901c90505b612000821615610bd7576080610bd2826fa9f746462d870fdf8a65dc1f90e061e56114e5565b901c90505b614000821615610c02576080610bfd826f70d869a156d2a1b890bb3df62baf32f76114e5565b901c90505b618000821615610c2d576080610c28826f31be135f97d08fd981231505542fcfa66114e5565b901c90505b62010000821615610c59576080610c54826f09aa508b5b7a84e1c677de54f3e99bc96114e5565b901c90505b62020000821615610c84576080610c7f826e5d6af8dedb81196699c329225ee6046114e5565b901c90505b62040000821615610cae576080610ca9826d2216e584f5fa1ea926041bedfe986114e5565b901c90505b62080000821615610cd6576080610cd1826b048a170391f7dc42444e8fa26114e5565b901c90505b60008460020b1315610cf157610cee81600019611518565b90505b610d006401000000008261152c565b15610d0c576001610d0f565b60005b6104079060ff16602083901c611540565b6000808211610d2e57600080fd5b60008060001985870985870292508281108382030391505080600003610d59575082900490506105b4565b808411610d6557600080fd5b600084868809808403938111909203919050600085610d8681600019611553565b610d91906001611540565b16958690049560026003880281188089028203028089028203028089028203028089028203028089028203028089029091030260008290038290046001019490940294049390931791909102925050509392505050565b6001600160a01b0381168114610dfd57600080fd5b50565b600060208284031215610e1257600080fd5b81356105b481610de8565b60008060408385031215610e3057600080fd5b8235610e3b81610de8565b9150602083013563ffffffff81168114610e5457600080fd5b809150509250929050565b60008060408385031215610e7257600080fd5b8235610e7d81610de8565b91506020830135610e5481610de8565b8060020b8114610dfd57600080fd5b60008060008060808587031215610eb257600080fd5b8435610ebd81610e8d565b935060208501356001600160801b0381168114610ed957600080fd5b92506040850135610ee981610de8565b91506060850135610ef981610de8565b939692955090935050565b600080600080600060a08688031215610f1c57600080fd5b853594506020860135610f2e81610de8565b93506040860135610f3e81610de8565b92506060860135610f4e81610de8565b91506080860135610f5e81610e8d565b809150509295509295909350565b600080600060608486031215610f8157600080fd5b8335610f8c81610e8d565b92506020840135610f9c81610e8d565b91506040840135610fac81610e8d565b809150509250925092565b600060208284031215610fc957600080fd5b81356105b481610e8d565b634e487b7160e01b600052604160045260246000fd5b604051601f8201601f1916810167ffffffffffffffff8111828210171561101357611013610fd4565b604052919050565b6000602080838503121561102e57600080fd5b823567ffffffffffffffff8082111561104657600080fd5b818501915085601f83011261105a57600080fd5b81358181111561106c5761106c610fd4565b61107e601f8201601f19168501610fea565b9150808252868482850101111561109457600080fd5b8084840185840137600090820190930192909252509392505050565b6000602082840312156110c257600080fd5b81516105b481610de8565b805161ffff811681146110df57600080fd5b919050565b600080600080600080600060e0888a0312156110ff57600080fd5b875161110a81610de8565b602089015190975061111b81610e8d565b9550611129604089016110cd565b9450611137606089016110cd565b9350611145608089016110cd565b925060a088015160ff8116811461115b57600080fd5b60c0890151909250801515811461117157600080fd5b8091505092959891949750929550565b634e487b7160e01b600052601160045260246000fd5b60008260020b8260020b028060020b91508082146111b7576111b7611181565b5092915050565b600282810b9082900b03627fffff198112627fffff8213171561037057610370611181565b600281810b9083900b01627fffff8113627fffff198212171561037057610370611181565b60008160020b627fffff19810361122157611221611181565b60000392915050565b634e487b7160e01b600052601260045260246000fd5b60008160020b8360020b806112575761125761122a565b627fffff1982146000198214161561127157611271611181565b90059392505050565b634e487b7160e01b600052603260045260246000fd5b6020808252825182820181905260009190848201906040850190845b818110156112ce57835163ffffffff16835292840192918401916001016112ac565b50909695505050505050565b600067ffffffffffffffff8211156112f4576112f4610fd4565b5060051b60200190565b600082601f83011261130f57600080fd5b8151602061132461131f836112da565b610fea565b82815260059290921b8401810191818101908684111561134357600080fd5b8286015b8481101561136757805161135a81610de8565b8352918301918301611347565b509695505050505050565b6000806040838503121561138557600080fd5b825167ffffffffffffffff8082111561139d57600080fd5b818501915085601f8301126113b157600080fd5b815160206113c161131f836112da565b82815260059290921b840181019181810190898411156113e057600080fd5b948201945b8386101561140e5785518060060b81146113ff5760008081fd5b825294820194908201906113e5565b9188015191965090935050508082111561142757600080fd5b50611434858286016112fe565b9150509250929050565b600682810b9082900b03667fffffffffffff198112667fffffffffffff8213171561037057610370611181565b60008160060b8360060b806114825761148261122a565b667fffffffffffff1982146000198214161561127157611271611181565b60008260060b806114b3576114b361122a565b808360060b0791505092915050565b60008160020b627fffff1981036114db576114db611181565b6000190192915050565b808202811582820484141761037057610370611181565b6000600160ff1b820161151157611511611181565b5060000390565b6000826115275761152761122a565b500490565b60008261153b5761153b61122a565b500690565b8082018082111561037057610370611181565b818103818111156103705761037061118156fea164736f6c6343000812000a",
  "linkReferences": {},
  "deployedLinkReferences": {}
}