{
  "_format": "hh-sol-artifact-1",
  "contractName": "L2ScheduleVault",
  "sourceName": "contracts/L2/vaults/L2ScheduleVault.sol",
  "abi": [
    {
      "anonymous": false,
      "inputs": [
        {
          "indexed": false,
          "internalType": "address",
          "name": "l2Token",
          "type": "address"
        },
        {
          "indexed": false,
          "internalType": "string",
          "name": "name",
          "type": "string"
        },
        {
          "indexed": false,
          "internalType": "uint256",
          "name": "totalAllocatedAmount",
          "type": "uint256"
        },
        {
          "indexed": false,
          "internalType": "uint256",
          "name": "totalClaimCount",
          "type": "uint256"
        },
        {
          "indexed": false,
          "internalType": "uint256",
          "name": "firstClaimAmount",
          "type": "uint256"
        },
        {
          "indexed": false,
          "internalType": "uint32",
          "name": "firstClaimTime",
          "type": "uint32"
        },
        {
          "indexed": false,
          "internalType": "uint32",
          "name": "secondClaimTime",
          "type": "uint32"
        },
        {
          "indexed": false,
          "internalType": "uint32",
          "name": "roundInterval",
          "type": "uint32"
        }
      ],
      "name": "InitializedL2ScheduleVault",
      "type": "event"
    },
    {
      "anonymous": false,
      "inputs": [
        {
          "indexed": true,
          "internalType": "bytes32",
          "name": "role",
          "type": "bytes32"
        },
        {
          "indexed": true,
          "internalType": "bytes32",
          "name": "previousAdminRole",
          "type": "bytes32"
        },
        {
          "indexed": true,
          "internalType": "bytes32",
          "name": "newAdminRole",
          "type": "bytes32"
        }
      ],
      "name": "RoleAdminChanged",
      "type": "event"
    },
    {
      "anonymous": false,
      "inputs": [
        {
          "indexed": true,
          "internalType": "bytes32",
          "name": "role",
          "type": "bytes32"
        },
        {
          "indexed": true,
          "internalType": "address",
          "name": "account",
          "type": "address"
        },
        {
          "indexed": true,
          "internalType": "address",
          "name": "sender",
          "type": "address"
        }
      ],
      "name": "RoleGranted",
      "type": "event"
    },
    {
      "anonymous": false,
      "inputs": [
        {
          "indexed": true,
          "internalType": "bytes32",
          "name": "role",
          "type": "bytes32"
        },
        {
          "indexed": true,
          "internalType": "address",
          "name": "account",
          "type": "address"
        },
        {
          "indexed": true,
          "internalType": "address",
          "name": "sender",
          "type": "address"
        }
      ],
      "name": "RoleRevoked",
      "type": "event"
    },
    {
      "anonymous": false,
      "inputs": [
        {
          "indexed": false,
          "internalType": "address",
          "name": "l2Token",
          "type": "address"
        },
        {
          "indexed": false,
          "internalType": "address",
          "name": "newAdmin",
          "type": "address"
        }
      ],
      "name": "SetVaultAdmin",
      "type": "event"
    },
    {
      "inputs": [],
      "name": "ADMIN_ROLE",
      "outputs": [
        {
          "internalType": "bytes32",
          "name": "",
          "type": "bytes32"
        }
      ],
      "stateMutability": "view",
      "type": "function"
    },
    {
      "inputs": [],
      "name": "DEFAULT_ADMIN_ROLE",
      "outputs": [
        {
          "internalType": "bytes32",
          "name": "",
          "type": "bytes32"
        }
      ],
      "stateMutability": "view",
      "type": "function"
    },
    {
      "inputs": [],
      "name": "POLICY_ROLE",
      "outputs": [
        {
          "internalType": "bytes32",
          "name": "",
          "type": "bytes32"
        }
      ],
      "stateMutability": "view",
      "type": "function"
    },
    {
      "inputs": [
        {
          "internalType": "address",
          "name": "account",
          "type": "address"
        }
      ],
      "name": "addAdmin",
      "outputs": [],
      "stateMutability": "nonpayable",
      "type": "function"
    },
    {
      "inputs": [
        {
          "internalType": "address",
          "name": "",
          "type": "address"
        }
      ],
      "name": "aliveImplementation",
      "outputs": [
        {
          "internalType": "bool",
          "name": "",
          "type": "bool"
        }
      ],
      "stateMutability": "view",
      "type": "function"
    },
    {
      "inputs": [
        {
          "internalType": "address",
          "name": "l2Token",
          "type": "address"
        },
        {
          "internalType": "string",
          "name": "vaultName",
          "type": "string"
        }
      ],
      "name": "availableClaimAmount",
      "outputs": [
        {
          "internalType": "uint256",
          "name": "amount",
          "type": "uint256"
        }
      ],
      "stateMutability": "view",
      "type": "function"
    },
    {
      "inputs": [
        {
          "internalType": "address",
          "name": "l2Token",
          "type": "address"
        },
        {
          "internalType": "string",
          "name": "vaultName",
          "type": "string"
        }
      ],
      "name": "claim",
      "outputs": [],
      "stateMutability": "nonpayable",
      "type": "function"
    },
    {
      "inputs": [
        {
          "internalType": "address",
          "name": "l2Token",
          "type": "address"
        },
        {
          "internalType": "string",
          "name": "vaultName",
          "type": "string"
        }
      ],
      "name": "getCurrentRound",
      "outputs": [
        {
          "internalType": "uint256",
          "name": "round",
          "type": "uint256"
        }
      ],
      "stateMutability": "view",
      "type": "function"
    },
    {
      "inputs": [
        {
          "internalType": "bytes32",
          "name": "role",
          "type": "bytes32"
        }
      ],
      "name": "getRoleAdmin",
      "outputs": [
        {
          "internalType": "bytes32",
          "name": "",
          "type": "bytes32"
        }
      ],
      "stateMutability": "view",
      "type": "function"
    },
    {
      "inputs": [
        {
          "internalType": "bytes32",
          "name": "role",
          "type": "bytes32"
        },
        {
          "internalType": "address",
          "name": "account",
          "type": "address"
        }
      ],
      "name": "grantRole",
      "outputs": [],
      "stateMutability": "nonpayable",
      "type": "function"
    },
    {
      "inputs": [
        {
          "internalType": "bytes32",
          "name": "role",
          "type": "bytes32"
        },
        {
          "internalType": "address",
          "name": "account",
          "type": "address"
        }
      ],
      "name": "hasRole",
      "outputs": [
        {
          "internalType": "bool",
          "name": "",
          "type": "bool"
        }
      ],
      "stateMutability": "view",
      "type": "function"
    },
    {
      "inputs": [
        {
          "internalType": "address",
          "name": "l2Token",
          "type": "address"
        },
        {
          "internalType": "string",
          "name": "vaultName",
          "type": "string"
        },
        {
          "components": [
            {
              "internalType": "uint256",
              "name": "totalAllocatedAmount",
              "type": "uint256"
            },
            {
              "internalType": "uint256",
              "name": "totalClaimCount",
              "type": "uint256"
            },
            {
              "internalType": "uint256",
              "name": "firstClaimAmount",
              "type": "uint256"
            },
            {
              "internalType": "uint32",
              "name": "firstClaimTime",
              "type": "uint32"
            },
            {
              "internalType": "uint32",
              "name": "secondClaimTime",
              "type": "uint32"
            },
            {
              "internalType": "uint32",
              "name": "roundIntervalTime",
              "type": "uint32"
            }
          ],
          "internalType": "struct LibProject.InitalParameterScheduleVault",
          "name": "params",
          "type": "tuple"
        }
      ],
      "name": "initialize",
      "outputs": [],
      "stateMutability": "nonpayable",
      "type": "function"
    },
    {
      "inputs": [
        {
          "internalType": "address",
          "name": "account",
          "type": "address"
        }
      ],
      "name": "isAdmin",
      "outputs": [
        {
          "internalType": "bool",
          "name": "",
          "type": "bool"
        }
      ],
      "stateMutability": "view",
      "type": "function"
    },
    {
      "inputs": [
        {
          "internalType": "address",
          "name": "l2Token",
          "type": "address"
        },
        {
          "internalType": "address",
          "name": "account",
          "type": "address"
        }
      ],
      "name": "isVaultAdmin",
      "outputs": [
        {
          "internalType": "bool",
          "name": "",
          "type": "bool"
        }
      ],
      "stateMutability": "view",
      "type": "function"
    },
    {
      "inputs": [],
      "name": "l2ProjectManager",
      "outputs": [
        {
          "internalType": "address",
          "name": "",
          "type": "address"
        }
      ],
      "stateMutability": "view",
      "type": "function"
    },
    {
      "inputs": [],
      "name": "pauseProxy",
      "outputs": [
        {
          "internalType": "bool",
          "name": "",
          "type": "bool"
        }
      ],
      "stateMutability": "view",
      "type": "function"
    },
    {
      "inputs": [
        {
          "internalType": "uint256",
          "name": "",
          "type": "uint256"
        }
      ],
      "name": "proxyImplementation",
      "outputs": [
        {
          "internalType": "address",
          "name": "",
          "type": "address"
        }
      ],
      "stateMutability": "view",
      "type": "function"
    },
    {
      "inputs": [
        {
          "internalType": "address",
          "name": "account",
          "type": "address"
        }
      ],
      "name": "removeAdmin",
      "outputs": [],
      "stateMutability": "nonpayable",
      "type": "function"
    },
    {
      "inputs": [
        {
          "internalType": "bytes32",
          "name": "role",
          "type": "bytes32"
        },
        {
          "internalType": "address",
          "name": "account",
          "type": "address"
        }
      ],
      "name": "renounceRole",
      "outputs": [],
      "stateMutability": "nonpayable",
      "type": "function"
    },
    {
      "inputs": [
        {
          "internalType": "bytes32",
          "name": "role",
          "type": "bytes32"
        },
        {
          "internalType": "address",
          "name": "account",
          "type": "address"
        }
      ],
      "name": "revokeRole",
      "outputs": [],
      "stateMutability": "nonpayable",
      "type": "function"
    },
    {
      "inputs": [
        {
          "internalType": "bytes4",
          "name": "",
          "type": "bytes4"
        }
      ],
      "name": "selectorImplementation",
      "outputs": [
        {
          "internalType": "address",
          "name": "",
          "type": "address"
        }
      ],
      "stateMutability": "view",
      "type": "function"
    },
    {
      "inputs": [
        {
          "internalType": "address",
          "name": "_l2ProjectManager",
          "type": "address"
        }
      ],
      "name": "setL2ProjectManager",
      "outputs": [],
      "stateMutability": "nonpayable",
      "type": "function"
    },
    {
      "inputs": [
        {
          "internalType": "address",
          "name": "l2Token",
          "type": "address"
        },
        {
          "internalType": "address",
          "name": "_newAdmin",
          "type": "address"
        }
      ],
      "name": "setVaultAdmin",
      "outputs": [],
      "stateMutability": "nonpayable",
      "type": "function"
    },
    {
      "inputs": [
        {
          "internalType": "bytes4",
          "name": "interfaceId",
          "type": "bytes4"
        }
      ],
      "name": "supportsInterface",
      "outputs": [
        {
          "internalType": "bool",
          "name": "",
          "type": "bool"
        }
      ],
      "stateMutability": "view",
      "type": "function"
    },
    {
      "inputs": [
        {
          "internalType": "address",
          "name": "newAdmin",
          "type": "address"
        }
      ],
      "name": "transferAdmin",
      "outputs": [],
      "stateMutability": "nonpayable",
      "type": "function"
    },
    {
      "inputs": [
        {
          "internalType": "address",
          "name": "l2Token",
          "type": "address"
        },
        {
          "internalType": "address",
          "name": "_newAdmin",
          "type": "address"
        }
      ],
      "name": "transferVaultAdmin",
      "outputs": [],
      "stateMutability": "nonpayable",
      "type": "function"
    },
    {
      "inputs": [
        {
          "internalType": "address",
          "name": "",
          "type": "address"
        }
      ],
      "name": "vaultAdminOfToken",
      "outputs": [
        {
          "internalType": "address",
          "name": "",
          "type": "address"
        }
      ],
      "stateMutability": "view",
      "type": "function"
    },
    {
      "inputs": [
        {
          "internalType": "address",
          "name": "",
          "type": "address"
        },
        {
          "internalType": "bytes32",
          "name": "",
          "type": "bytes32"
        }
      ],
      "name": "vaultInfo",
      "outputs": [
        {
          "internalType": "uint256",
          "name": "totalAllocatedAmount",
          "type": "uint256"
        },
        {
          "internalType": "uint256",
          "name": "totalClaimCount",
          "type": "uint256"
        },
        {
          "internalType": "uint256",
          "name": "totalClaimedAmount",
          "type": "uint256"
        },
        {
          "internalType": "uint256",
          "name": "firstClaimAmount",
          "type": "uint256"
        },
        {
          "internalType": "uint32",
          "name": "firstClaimTime",
          "type": "uint32"
        },
        {
          "internalType": "uint32",
          "name": "secondClaimTime",
          "type": "uint32"
        },
        {
          "internalType": "uint32",
          "name": "roundInterval",
          "type": "uint32"
        },
        {
          "internalType": "uint32",
          "name": "latestClaimedRound",
          "type": "uint32"
        }
      ],
      "stateMutability": "view",
      "type": "function"
    }
  ],
  "bytecode": "0x60806040526005805460ff1916600117905534801561001d57600080fd5b506121d18061002d6000396000f3fe608060405234801561001057600080fd5b50600436106101c45760003560e01c8063560fd778116100f9578063a217fddf11610097578063ab4299b511610071578063ab4299b51461045c578063b40d73501461046f578063b911135f14610527578063d547741f1461055057600080fd5b8063a217fddf1461042e578063a418234314610436578063a8d95fb21461044957600080fd5b806375829def116100d357806375829def1461039257806375b238fc146103a55780637fc46ba8146103cc57806391d14854146103f557600080fd5b8063560fd7781461035f57806363a8fd8914610372578063704802751461037f57600080fd5b8063321efaa11161016657806350d2a2761161014057806350d2a276146102d057806351e8152a1461031157806352351e8514610324578063550d01a31461033c57600080fd5b8063321efaa11461029757806335b9ac66146102aa57806336568abe146102bd57600080fd5b806322985246116101a25780632298524614610219578063248a9ca31461024e57806324d7806c146102715780632f2ff15d1461028457600080fd5b806301ffc9a7146101c95780631785f53c146101f15780631e8948c314610206575b600080fd5b6101dc6101d7366004611c5a565b610563565b60405190151581526020015b60405180910390f35b6102046101ff366004611ca0565b61059a565b005b610204610214366004611cbb565b61062c565b6102407ffb5864e8ff833c3cb2d2d08505e82ff02a43554c74a35d4f5a64e8526127831181565b6040519081526020016101e8565b61024061025c366004611cee565b60009081526004602052604090206001015490565b6101dc61027f366004611ca0565b610812565b610204610292366004611d07565b610852565b6102406102a5366004611d2a565b61087c565b6102046102b8366004611cbb565b6109cd565b6102046102cb366004611d07565b610b8e565b6102f96102de366004611c5a565b6003602052600090815260409020546001600160a01b031681565b6040516001600160a01b0390911681526020016101e8565b6101dc61031f366004611cbb565b610c1a565b6005546102f99061010090046001600160a01b031681565b6101dc61034a366004611ca0565b60026020526000908152604090205460ff1681565b61024061036d366004611d2a565b610c57565b6000546101dc9060ff1681565b61020461038d366004611ca0565b610dcd565b6102046103a0366004611ca0565b610e57565b6102407fdf8b4c520ffe197c5343c6f5aec59570151ef9a492f2c624fd45ddde6135ec4281565b6102f96103da366004611ca0565b6006602052600090815260409020546001600160a01b031681565b6101dc610403366004611d07565b60009182526004602090815260408084206001600160a01b0393909316845291905290205460ff1690565b610240600081565b610204610444366004611ca0565b610fb9565b610204610457366004611d2a565b6110d6565b61020461046a366004611e97565b611293565b6104dd61047d366004611f4f565b6007602090815260009283526040808420909152908252902080546001820154600283015460038401546004909401549293919290919063ffffffff808216916401000000008104821691600160401b8204811691600160601b90041688565b60408051988952602089019790975295870194909452606086019290925263ffffffff908116608086015290811660a085015290811660c08401521660e0820152610100016101e8565b6102f9610535366004611cee565b6001602052600090815260409020546001600160a01b031681565b61020461055e366004611d07565b61169f565b60006001600160e01b03198216637965db0b60e01b148061059457506301ffc9a760e01b6001600160e01b03198316145b92915050565b6105a333610812565b6105ff5760405162461bcd60e51b815260206004820152602260248201527f41636365737369626c653a2043616c6c6572206973206e6f7420616e2061646d60448201526134b760f11b60648201526084015b60405180910390fd5b6106297fdf8b4c520ffe197c5343c6f5aec59570151ef9a492f2c624fd45ddde6135ec4282610b8e565b50565b816001600160a01b0381166106685760405162461bcd60e51b81526020600482015260026024820152612d1960f11b60448201526064016105f6565b816001600160a01b0381166106a45760405162461bcd60e51b81526020600482015260026024820152612d1960f11b60448201526064016105f6565b6001600160a01b03808516600090815260066020526040902054859116158015906106e857506001600160a01b038181166000908152600660205260409020541633145b6107425760405162461bcd60e51b815260206004820152602560248201527f63616c6c6572206973206e6f742061207661756c7441646d696e204f66206c326044820152642a37b5b2b760d91b60648201526084016105f6565b6001600160a01b038581166000908152600660205260409020548186169116036107975760405162461bcd60e51b81526004016105f69060208082526004908201526373616d6560e01b604082015260600190565b6001600160a01b03858116600081815260066020908152604091829020805473ffffffffffffffffffffffffffffffffffffffff1916948916948517905581519283528201929092527fb00bb4c229aff6156cc8e2c767c571665e1927c09fe083ec055956a5a4026193910160405180910390a15050505050565b6001600160a01b03811660009081527f2fb794d17134dfdec181ddbac1babb5ab1eb140204ef4d982f294e7fc8b69022602052604081205460ff16610594565b60008281526004602052604090206001015461086d816116c4565b61087783836116ce565b505050565b600080838360405161088f929190611f79565b604080519182900382206001600160a01b03881660009081526007602090815283822083835281529083902061010085018452805485526001810154918501919091526002810154928401929092526003820154606084015260049091015463ffffffff808216608085018190526401000000008304821660a0860152600160401b8304821660c0860152600160601b9092041660e084015290925015801590610943575042816080015163ffffffff1611155b801561095857508060a0015163ffffffff1642105b1561096657600192506109b0565b428160a0015163ffffffff16116109b0578060c0015163ffffffff168160a0015163ffffffff16426109989190611f9f565b6109a29190611fb2565b6109ad906002611fd4565b92505b80602001518311156109c457806020015192505b50509392505050565b816001600160a01b038116610a095760405162461bcd60e51b81526020600482015260026024820152612d1960f11b60448201526064016105f6565b816001600160a01b038116610a455760405162461bcd60e51b81526020600482015260026024820152612d1960f11b60448201526064016105f6565b60055461010090046001600160a01b031615801590610a73575060055461010090046001600160a01b031633145b610abf5760405162461bcd60e51b815260206004820152601e60248201527f63616c6c6572206973206e6f74206c3250726f6a6563744d616e61676572000060448201526064016105f6565b6001600160a01b03848116600090815260066020526040902054818516911603610b145760405162461bcd60e51b81526004016105f69060208082526004908201526373616d6560e01b604082015260600190565b6001600160a01b03848116600081815260066020908152604091829020805473ffffffffffffffffffffffffffffffffffffffff1916948816948517905581519283528201929092527fb00bb4c229aff6156cc8e2c767c571665e1927c09fe083ec055956a5a4026193910160405180910390a150505050565b6001600160a01b0381163314610c0c5760405162461bcd60e51b815260206004820152602f60248201527f416363657373436f6e74726f6c3a2063616e206f6e6c792072656e6f756e636560448201527f20726f6c657320666f722073656c66000000000000000000000000000000000060648201526084016105f6565b610c168282611770565b5050565b60006001600160a01b03821615801590610c5057506001600160a01b038381166000908152600660205260409020548116908316145b9392505050565b6000808383604051610c6a929190611f79565b604080519182900382206001600160a01b038816600090815260076020908152838220838352815283822061010086018552805486526001810154918601919091526002810154938501939093526003830154606085015260049092015463ffffffff80821660808601526401000000008204811660a0860152600160401b8204811660c0860152600160601b9091041660e08401529250610d0d87878761087c565b9050808260e0015163ffffffff161015610dc35780600103610d445781604001518260600151610d3d9190611f9f565b9350610dc3565b8160200151811015610daf576040820151610d60600183611f9f565b60018460200151610d719190611f9f565b60608501518551610d829190611f9f565b610d8c9190611fb2565b610d969190611fe7565b8360600151610da59190611fd4565b610d3d9190611f9f565b60408201518251610dc09190611f9f565b93505b5050509392505050565b610dd633610812565b610e2d5760405162461bcd60e51b815260206004820152602260248201527f41636365737369626c653a2043616c6c6572206973206e6f7420616e2061646d60448201526134b760f11b60648201526084016105f6565b6106297fdf8b4c520ffe197c5343c6f5aec59570151ef9a492f2c624fd45ddde6135ec4282610852565b610e6033610812565b610eb75760405162461bcd60e51b815260206004820152602260248201527f41636365737369626c653a2043616c6c6572206973206e6f7420616e2061646d60448201526134b760f11b60648201526084016105f6565b6001600160a01b038116610f0d5760405162461bcd60e51b815260206004820152601860248201527f41636365737369626c653a207a65726f2061646472657373000000000000000060448201526064016105f6565b6001600160a01b0381163303610f655760405162461bcd60e51b815260206004820152601660248201527f41636365737369626c653a2073616d652061646d696e0000000000000000000060448201526064016105f6565b610f8f7fdf8b4c520ffe197c5343c6f5aec59570151ef9a492f2c624fd45ddde6135ec4282610852565b6106297fdf8b4c520ffe197c5343c6f5aec59570151ef9a492f2c624fd45ddde6135ec4233610b8e565b806001600160a01b038116610ff55760405162461bcd60e51b81526020600482015260026024820152612d1960f11b60448201526064016105f6565b610ffe33610812565b6110555760405162461bcd60e51b815260206004820152602260248201527f41636365737369626c653a2043616c6c6572206973206e6f7420616e2061646d60448201526134b760f11b60648201526084016105f6565b6005546001600160a01b0380841661010090920416036110a05760405162461bcd60e51b81526004016105f69060208082526004908201526373616d6560e01b604082015260600190565b50600580546001600160a01b039092166101000274ffffffffffffffffffffffffffffffffffffffff0019909216919091179055565b826001600160a01b0381166111125760405162461bcd60e51b81526020600482015260026024820152612d1960f11b60448201526064016105f6565b6001600160a01b038085166000908152600660205260409020548591161580159061115657506001600160a01b038181166000908152600660205260409020541633145b6111b05760405162461bcd60e51b815260206004820152602560248201527f63616c6c6572206973206e6f742061207661756c7441646d696e204f66206c326044820152642a37b5b2b760d91b60648201526084016105f6565b60006111bd868686610c57565b6040516370a0823160e01b81523060048201529091506001600160a01b038716906370a0823190602401602060405180830381865afa158015611204573d6000803e3d6000fd5b505050506040513d601f19601f820116820180604052508101906112289190611ffe565b8111156112775760405162461bcd60e51b815260206004820152601760248201527f62616c616e636520697320696e73756666696369656e7400000000000000000060448201526064016105f6565b61128b6001600160a01b03871633836117f3565b505050505050565b600554839061010090046001600160a01b03163314806112f057506001600160a01b0381811660009081526006602052604090205416158015906112f057506001600160a01b038181166000908152600660205260409020541633145b6113625760405162461bcd60e51b815260206004820152602c60248201527f63616c6c6572206973206e6f742061207661756c7441646d696e206f7220507260448201527f6f6a6563744d616e61676572000000000000000000000000000000000000000060648201526084016105f6565b82516020808501919091206001600160a01b0386166000908152600783526040808220838352909352919091206004015463ffffffff16156113e65760405162461bcd60e51b815260206004820152601360248201527f616c726561647920696e697469616c697a65640000000000000000000000000060448201526064016105f6565b43836060015163ffffffff161161143f5760405162461bcd60e51b815260206004820152601760248201527f666972737420636c61696d2074696d652070617373656400000000000000000060448201526064016105f6565b8251158015906114525750602083015115155b8015611467575060a083015163ffffffff1615155b6114b35760405162461bcd60e51b815260206004820152600b60248201527f77726f6e672076616c756500000000000000000000000000000000000000000060448201526064016105f6565b60018360200151111561152357826060015163ffffffff16836080015163ffffffff16116115235760405162461bcd60e51b815260206004820152601b60248201527f77726f6e6720746865207365636f6e6420636c61696d2074696d65000000000060448201526064016105f6565b60408301518351116115775760405162461bcd60e51b815260206004820152601c60248201527f77726f6e672074686520666972737420636c61696d20616d6f756e740000000060448201526064016105f6565b600554835161159b916001600160a01b03888116926101009092041690309061190e565b6001600160a01b038516600090815260076020908152604080832084845282528083208651808255928701516001820181905560028201949094558682015160038201819055606088015160048301805460808b015160a08c015163ffffffff80861667ffffffffffffffff199094169390931764010000000084841602176fffffffffffffffff00000000000000001916600160401b938216939093026fffffffff000000000000000000000000191692909217909255945193967f2d0411b0cbf8e91232447453cc0e9bb069c954b44d45fcc0f192a537cba61ac09661168f968e968e96929593949293929190612067565b60405180910390a1505050505050565b6000828152600460205260409020600101546116ba816116c4565b6108778383611770565b6106298133611a2a565b60008281526004602090815260408083206001600160a01b038516845290915290205460ff16610c165760008281526004602090815260408083206001600160a01b03851684529091529020805460ff1916600117905561172c3390565b6001600160a01b0316816001600160a01b0316837f2f8788117e7eff1d82e926ec794901d17c78024a50270940304540a733656f0d60405160405180910390a45050565b60008281526004602090815260408083206001600160a01b038516845290915290205460ff1615610c165760008281526004602090815260408083206001600160a01b0385168085529252808320805460ff1916905551339285917ff6391f5c32d9c69d2a47ea670b442974b53935d1edc7fd64eb21e047a839171b9190a45050565b604080516001600160a01b038481166024830152604480830185905283518084039091018152606490920183526020820180516001600160e01b031663a9059cbb60e01b179052915160009283929087169161184f91906120c5565b6000604051808303816000865af19150503d806000811461188c576040519150601f19603f3d011682016040523d82523d6000602084013e611891565b606091505b50915091508180156118bb5750805115806118bb5750808060200190518101906118bb91906120e1565b6119075760405162461bcd60e51b815260206004820152600f60248201527f5452414e534645525f4641494c4544000000000000000000000000000000000060448201526064016105f6565b5050505050565b604080516001600160a01b0385811660248301528481166044830152606480830185905283518084039091018152608490920183526020820180516001600160e01b03166323b872dd60e01b179052915160009283929088169161197291906120c5565b6000604051808303816000865af19150503d80600081146119af576040519150601f19603f3d011682016040523d82523d6000602084013e6119b4565b606091505b50915091508180156119de5750805115806119de5750808060200190518101906119de91906120e1565b61128b5760405162461bcd60e51b815260206004820152601460248201527f5452414e534645525f46524f4d5f4641494c454400000000000000000000000060448201526064016105f6565b60008281526004602090815260408083206001600160a01b038516845290915290205460ff16610c1657611a5d81611a9f565b611a68836020611ab1565b604051602001611a79929190612103565b60408051601f198184030181529082905262461bcd60e51b82526105f691600401612184565b60606105946001600160a01b03831660145b60606000611ac0836002611fe7565b611acb906002611fd4565b67ffffffffffffffff811115611ae357611ae3611dad565b6040519080825280601f01601f191660200182016040528015611b0d576020820181803683370190505b509050600360fc1b81600081518110611b2857611b28612197565b60200101906001600160f81b031916908160001a905350600f60fb1b81600181518110611b5757611b57612197565b60200101906001600160f81b031916908160001a9053506000611b7b846002611fe7565b611b86906001611fd4565b90505b6001811115611c0b577f303132333435363738396162636465660000000000000000000000000000000085600f1660108110611bc757611bc7612197565b1a60f81b828281518110611bdd57611bdd612197565b60200101906001600160f81b031916908160001a90535060049490941c93611c04816121ad565b9050611b89565b508315610c505760405162461bcd60e51b815260206004820181905260248201527f537472696e67733a20686578206c656e67746820696e73756666696369656e7460448201526064016105f6565b600060208284031215611c6c57600080fd5b81356001600160e01b031981168114610c5057600080fd5b80356001600160a01b0381168114611c9b57600080fd5b919050565b600060208284031215611cb257600080fd5b610c5082611c84565b60008060408385031215611cce57600080fd5b611cd783611c84565b9150611ce560208401611c84565b90509250929050565b600060208284031215611d0057600080fd5b5035919050565b60008060408385031215611d1a57600080fd5b82359150611ce560208401611c84565b600080600060408486031215611d3f57600080fd5b611d4884611c84565b9250602084013567ffffffffffffffff80821115611d6557600080fd5b818601915086601f830112611d7957600080fd5b813581811115611d8857600080fd5b876020828501011115611d9a57600080fd5b6020830194508093505050509250925092565b634e487b7160e01b600052604160045260246000fd5b604051601f8201601f1916810167ffffffffffffffff81118282101715611dec57611dec611dad565b604052919050565b803563ffffffff81168114611c9b57600080fd5b600060c08284031215611e1a57600080fd5b60405160c0810181811067ffffffffffffffff82111715611e3d57611e3d611dad565b8060405250809150823581526020830135602082015260408301356040820152611e6960608401611df4565b6060820152611e7a60808401611df4565b6080820152611e8b60a08401611df4565b60a08201525092915050565b60008060006101008486031215611ead57600080fd5b611eb684611c84565b925060208085013567ffffffffffffffff80821115611ed457600080fd5b818701915087601f830112611ee857600080fd5b813581811115611efa57611efa611dad565b611f0c601f8201601f19168501611dc3565b91508082528884828501011115611f2257600080fd5b8084840185840137600084828401015250809450505050611f468560408601611e08565b90509250925092565b60008060408385031215611f6257600080fd5b611f6b83611c84565b946020939093013593505050565b8183823760009101908152919050565b634e487b7160e01b600052601160045260246000fd5b8181038181111561059457610594611f89565b600082611fcf57634e487b7160e01b600052601260045260246000fd5b500490565b8082018082111561059457610594611f89565b808202811582820484141761059457610594611f89565b60006020828403121561201057600080fd5b5051919050565b60005b8381101561203257818101518382015260200161201a565b50506000910152565b60008151808452612053816020860160208601612017565b601f01601f19169290920160200192915050565b60006101006001600160a01b038b16835280602084015261208a8184018b61203b565b604084019990995250506060810195909552608085019390935263ffffffff91821660a0850152811660c08401521660e09091015292915050565b600082516120d7818460208701612017565b9190910192915050565b6000602082840312156120f357600080fd5b81518015158114610c5057600080fd5b7f416363657373436f6e74726f6c3a206163636f756e742000000000000000000081526000835161213b816017850160208801612017565b7f206973206d697373696e6720726f6c65200000000000000000000000000000006017918401918201528351612178816028840160208801612017565b01602801949350505050565b602081526000610c50602083018461203b565b634e487b7160e01b600052603260045260246000fd5b6000816121bc576121bc611f89565b50600019019056fea164736f6c6343000812000a",
  "linkReferences": {},
  "deployedLinkReferences": {}
}