{
  "_format": "hh-sol-artifact-1",
  "contractName": "L2ScheduleVault",
  "sourceName": "contracts/L2/vaults/L2ScheduleVault.sol",
  "abi": [
    {
      "anonymous": false,
      "inputs": [
        {
          "indexed": false,
          "internalType": "address",
          "name": "l2Token",
          "type": "address"
        },
        {
          "indexed": false,
          "internalType": "string",
          "name": "name",
          "type": "string"
        },
        {
          "indexed": false,
          "internalType": "uint256",
          "name": "totalAllocatedAmount",
          "type": "uint256"
        },
        {
          "indexed": false,
          "internalType": "uint256",
          "name": "totalClaimCount",
          "type": "uint256"
        },
        {
          "indexed": false,
          "internalType": "uint256",
          "name": "firstClaimAmount",
          "type": "uint256"
        },
        {
          "indexed": false,
          "internalType": "uint32",
          "name": "firstClaimTime",
          "type": "uint32"
        },
        {
          "indexed": false,
          "internalType": "uint32",
          "name": "secondClaimTime",
          "type": "uint32"
        },
        {
          "indexed": false,
          "internalType": "uint32",
          "name": "roundInterval",
          "type": "uint32"
        }
      ],
      "name": "InitializedL2ScheduleVault",
      "type": "event"
    },
    {
      "anonymous": false,
      "inputs": [
        {
          "indexed": true,
          "internalType": "bytes32",
          "name": "role",
          "type": "bytes32"
        },
        {
          "indexed": true,
          "internalType": "bytes32",
          "name": "previousAdminRole",
          "type": "bytes32"
        },
        {
          "indexed": true,
          "internalType": "bytes32",
          "name": "newAdminRole",
          "type": "bytes32"
        }
      ],
      "name": "RoleAdminChanged",
      "type": "event"
    },
    {
      "anonymous": false,
      "inputs": [
        {
          "indexed": true,
          "internalType": "bytes32",
          "name": "role",
          "type": "bytes32"
        },
        {
          "indexed": true,
          "internalType": "address",
          "name": "account",
          "type": "address"
        },
        {
          "indexed": true,
          "internalType": "address",
          "name": "sender",
          "type": "address"
        }
      ],
      "name": "RoleGranted",
      "type": "event"
    },
    {
      "anonymous": false,
      "inputs": [
        {
          "indexed": true,
          "internalType": "bytes32",
          "name": "role",
          "type": "bytes32"
        },
        {
          "indexed": true,
          "internalType": "address",
          "name": "account",
          "type": "address"
        },
        {
          "indexed": true,
          "internalType": "address",
          "name": "sender",
          "type": "address"
        }
      ],
      "name": "RoleRevoked",
      "type": "event"
    },
    {
      "anonymous": false,
      "inputs": [
        {
          "indexed": false,
          "internalType": "address",
          "name": "l2Token",
          "type": "address"
        },
        {
          "indexed": false,
          "internalType": "address",
          "name": "newAdmin",
          "type": "address"
        }
      ],
      "name": "SetVaultAdmin",
      "type": "event"
    },
    {
      "inputs": [],
      "name": "ADMIN_ROLE",
      "outputs": [
        {
          "internalType": "bytes32",
          "name": "",
          "type": "bytes32"
        }
      ],
      "stateMutability": "view",
      "type": "function"
    },
    {
      "inputs": [],
      "name": "DEFAULT_ADMIN_ROLE",
      "outputs": [
        {
          "internalType": "bytes32",
          "name": "",
          "type": "bytes32"
        }
      ],
      "stateMutability": "view",
      "type": "function"
    },
    {
      "inputs": [],
      "name": "POLICY_ROLE",
      "outputs": [
        {
          "internalType": "bytes32",
          "name": "",
          "type": "bytes32"
        }
      ],
      "stateMutability": "view",
      "type": "function"
    },
    {
      "inputs": [
        {
          "internalType": "address",
          "name": "account",
          "type": "address"
        }
      ],
      "name": "addAdmin",
      "outputs": [],
      "stateMutability": "nonpayable",
      "type": "function"
    },
    {
      "inputs": [
        {
          "internalType": "address",
          "name": "",
          "type": "address"
        }
      ],
      "name": "aliveImplementation",
      "outputs": [
        {
          "internalType": "bool",
          "name": "",
          "type": "bool"
        }
      ],
      "stateMutability": "view",
      "type": "function"
    },
    {
      "inputs": [
        {
          "internalType": "address",
          "name": "l2Token",
          "type": "address"
        },
        {
          "internalType": "string",
          "name": "vaultName",
          "type": "string"
        }
      ],
      "name": "availableClaimAmount",
      "outputs": [
        {
          "internalType": "uint256",
          "name": "amount",
          "type": "uint256"
        }
      ],
      "stateMutability": "view",
      "type": "function"
    },
    {
      "inputs": [
        {
          "internalType": "address",
          "name": "l2Token",
          "type": "address"
        },
        {
          "internalType": "string",
          "name": "vaultName",
          "type": "string"
        }
      ],
      "name": "claim",
      "outputs": [],
      "stateMutability": "nonpayable",
      "type": "function"
    },
    {
      "inputs": [
        {
          "internalType": "address",
          "name": "l2Token",
          "type": "address"
        },
        {
          "internalType": "string",
          "name": "vaultName",
          "type": "string"
        }
      ],
      "name": "getCurrentRound",
      "outputs": [
        {
          "internalType": "uint256",
          "name": "round",
          "type": "uint256"
        }
      ],
      "stateMutability": "view",
      "type": "function"
    },
    {
      "inputs": [
        {
          "internalType": "bytes32",
          "name": "role",
          "type": "bytes32"
        }
      ],
      "name": "getRoleAdmin",
      "outputs": [
        {
          "internalType": "bytes32",
          "name": "",
          "type": "bytes32"
        }
      ],
      "stateMutability": "view",
      "type": "function"
    },
    {
      "inputs": [
        {
          "internalType": "bytes32",
          "name": "role",
          "type": "bytes32"
        },
        {
          "internalType": "address",
          "name": "account",
          "type": "address"
        }
      ],
      "name": "grantRole",
      "outputs": [],
      "stateMutability": "nonpayable",
      "type": "function"
    },
    {
      "inputs": [
        {
          "internalType": "bytes32",
          "name": "role",
          "type": "bytes32"
        },
        {
          "internalType": "address",
          "name": "account",
          "type": "address"
        }
      ],
      "name": "hasRole",
      "outputs": [
        {
          "internalType": "bool",
          "name": "",
          "type": "bool"
        }
      ],
      "stateMutability": "view",
      "type": "function"
    },
    {
      "inputs": [
        {
          "internalType": "address",
          "name": "l2Token",
          "type": "address"
        },
        {
          "internalType": "string",
          "name": "vaultName",
          "type": "string"
        },
        {
          "components": [
            {
              "internalType": "uint256",
              "name": "totalAllocatedAmount",
              "type": "uint256"
            },
            {
              "internalType": "uint256",
              "name": "totalClaimCount",
              "type": "uint256"
            },
            {
              "internalType": "uint256",
              "name": "firstClaimAmount",
              "type": "uint256"
            },
            {
              "internalType": "uint32",
              "name": "firstClaimTime",
              "type": "uint32"
            },
            {
              "internalType": "uint32",
              "name": "secondClaimTime",
              "type": "uint32"
            },
            {
              "internalType": "uint32",
              "name": "roundIntervalTime",
              "type": "uint32"
            }
          ],
          "internalType": "struct LibProject.InitalParameterScheduleVault",
          "name": "params",
          "type": "tuple"
        }
      ],
      "name": "initialize",
      "outputs": [],
      "stateMutability": "nonpayable",
      "type": "function"
    },
    {
      "inputs": [
        {
          "internalType": "address",
          "name": "account",
          "type": "address"
        }
      ],
      "name": "isAdmin",
      "outputs": [
        {
          "internalType": "bool",
          "name": "",
          "type": "bool"
        }
      ],
      "stateMutability": "view",
      "type": "function"
    },
    {
      "inputs": [
        {
          "internalType": "address",
          "name": "l2Token",
          "type": "address"
        },
        {
          "internalType": "address",
          "name": "account",
          "type": "address"
        }
      ],
      "name": "isVaultAdmin",
      "outputs": [
        {
          "internalType": "bool",
          "name": "",
          "type": "bool"
        }
      ],
      "stateMutability": "view",
      "type": "function"
    },
    {
      "inputs": [],
      "name": "l2ProjectManager",
      "outputs": [
        {
          "internalType": "address",
          "name": "",
          "type": "address"
        }
      ],
      "stateMutability": "view",
      "type": "function"
    },
    {
      "inputs": [],
      "name": "pauseProxy",
      "outputs": [
        {
          "internalType": "bool",
          "name": "",
          "type": "bool"
        }
      ],
      "stateMutability": "view",
      "type": "function"
    },
    {
      "inputs": [
        {
          "internalType": "uint256",
          "name": "",
          "type": "uint256"
        }
      ],
      "name": "proxyImplementation",
      "outputs": [
        {
          "internalType": "address",
          "name": "",
          "type": "address"
        }
      ],
      "stateMutability": "view",
      "type": "function"
    },
    {
      "inputs": [
        {
          "internalType": "address",
          "name": "account",
          "type": "address"
        }
      ],
      "name": "removeAdmin",
      "outputs": [],
      "stateMutability": "nonpayable",
      "type": "function"
    },
    {
      "inputs": [
        {
          "internalType": "bytes32",
          "name": "role",
          "type": "bytes32"
        },
        {
          "internalType": "address",
          "name": "account",
          "type": "address"
        }
      ],
      "name": "renounceRole",
      "outputs": [],
      "stateMutability": "nonpayable",
      "type": "function"
    },
    {
      "inputs": [
        {
          "internalType": "bytes32",
          "name": "role",
          "type": "bytes32"
        },
        {
          "internalType": "address",
          "name": "account",
          "type": "address"
        }
      ],
      "name": "revokeRole",
      "outputs": [],
      "stateMutability": "nonpayable",
      "type": "function"
    },
    {
      "inputs": [
        {
          "internalType": "bytes4",
          "name": "",
          "type": "bytes4"
        }
      ],
      "name": "selectorImplementation",
      "outputs": [
        {
          "internalType": "address",
          "name": "",
          "type": "address"
        }
      ],
      "stateMutability": "view",
      "type": "function"
    },
    {
      "inputs": [
        {
          "internalType": "address",
          "name": "_l2ProjectManager",
          "type": "address"
        }
      ],
      "name": "setL2ProjectManager",
      "outputs": [],
      "stateMutability": "nonpayable",
      "type": "function"
    },
    {
      "inputs": [
        {
          "internalType": "address",
          "name": "l2Token",
          "type": "address"
        },
        {
          "internalType": "address",
          "name": "_newAdmin",
          "type": "address"
        }
      ],
      "name": "setVaultAdmin",
      "outputs": [],
      "stateMutability": "nonpayable",
      "type": "function"
    },
    {
      "inputs": [
        {
          "internalType": "bytes4",
          "name": "interfaceId",
          "type": "bytes4"
        }
      ],
      "name": "supportsInterface",
      "outputs": [
        {
          "internalType": "bool",
          "name": "",
          "type": "bool"
        }
      ],
      "stateMutability": "view",
      "type": "function"
    },
    {
      "inputs": [
        {
          "internalType": "address",
          "name": "newAdmin",
          "type": "address"
        }
      ],
      "name": "transferAdmin",
      "outputs": [],
      "stateMutability": "nonpayable",
      "type": "function"
    },
    {
      "inputs": [
        {
          "internalType": "address",
          "name": "",
          "type": "address"
        }
      ],
      "name": "vaultAdminOfToken",
      "outputs": [
        {
          "internalType": "address",
          "name": "",
          "type": "address"
        }
      ],
      "stateMutability": "view",
      "type": "function"
    },
    {
      "inputs": [
        {
          "internalType": "address",
          "name": "",
          "type": "address"
        },
        {
          "internalType": "bytes32",
          "name": "",
          "type": "bytes32"
        }
      ],
      "name": "vaultInfo",
      "outputs": [
        {
          "internalType": "uint256",
          "name": "totalAllocatedAmount",
          "type": "uint256"
        },
        {
          "internalType": "uint256",
          "name": "totalClaimCount",
          "type": "uint256"
        },
        {
          "internalType": "uint256",
          "name": "totalClaimedAmount",
          "type": "uint256"
        },
        {
          "internalType": "uint256",
          "name": "firstClaimAmount",
          "type": "uint256"
        },
        {
          "internalType": "uint32",
          "name": "firstClaimTime",
          "type": "uint32"
        },
        {
          "internalType": "uint32",
          "name": "secondClaimTime",
          "type": "uint32"
        },
        {
          "internalType": "uint32",
          "name": "roundInterval",
          "type": "uint32"
        },
        {
          "internalType": "uint32",
          "name": "latestClaimedRound",
          "type": "uint32"
        }
      ],
      "stateMutability": "view",
      "type": "function"
    }
  ],
  "bytecode": "0x60806040526005805460ff1916600117905534801561001d57600080fd5b50611fcd8061002d6000396000f3fe608060405234801561001057600080fd5b50600436106101b95760003560e01c8063560fd778116100f9578063a217fddf11610097578063ab4299b511610071578063ab4299b51461043e578063b40d735014610451578063b911135f14610509578063d547741f1461053257600080fd5b8063a217fddf14610410578063a418234314610418578063a8d95fb21461042b57600080fd5b806375829def116100d357806375829def1461037457806375b238fc146103875780637fc46ba8146103ae57806391d14854146103d757600080fd5b8063560fd7781461034157806363a8fd8914610354578063704802751461036157600080fd5b8063321efaa11161016657806350d2a2761161014057806350d2a276146102b257806351e8152a146102f357806352351e8514610306578063550d01a31461031e57600080fd5b8063321efaa11461027957806335b9ac661461028c57806336568abe1461029f57600080fd5b8063248a9ca311610197578063248a9ca31461023057806324d7806c146102535780632f2ff15d1461026657600080fd5b806301ffc9a7146101be5780631785f53c146101e657806322985246146101fb575b600080fd5b6101d16101cc366004611a56565b610545565b60405190151581526020015b60405180910390f35b6101f96101f4366004611a9c565b61057c565b005b6102227ffb5864e8ff833c3cb2d2d08505e82ff02a43554c74a35d4f5a64e8526127831181565b6040519081526020016101dd565b61022261023e366004611ab7565b60009081526004602052604090206001015490565b6101d1610261366004611a9c565b61060e565b6101f9610274366004611ad0565b61064e565b610222610287366004611afc565b610678565b6101f961029a366004611b7f565b6107c9565b6101f96102ad366004611ad0565b61098a565b6102db6102c0366004611a56565b6003602052600090815260409020546001600160a01b031681565b6040516001600160a01b0390911681526020016101dd565b6101d1610301366004611b7f565b610a16565b6005546102db9061010090046001600160a01b031681565b6101d161032c366004611a9c565b60026020526000908152604090205460ff1681565b61022261034f366004611afc565b610a53565b6000546101d19060ff1681565b6101f961036f366004611a9c565b610bc9565b6101f9610382366004611a9c565b610c53565b6102227fdf8b4c520ffe197c5343c6f5aec59570151ef9a492f2c624fd45ddde6135ec4281565b6102db6103bc366004611a9c565b6006602052600090815260409020546001600160a01b031681565b6101d16103e5366004611ad0565b60009182526004602090815260408084206001600160a01b0393909316845291905290205460ff1690565b610222600081565b6101f9610426366004611a9c565b610db5565b6101f9610439366004611afc565b610ed2565b6101f961044c366004611c93565b61108f565b6104bf61045f366004611d4b565b6007602090815260009283526040808420909152908252902080546001820154600283015460038401546004909401549293919290919063ffffffff808216916401000000008104821691600160401b8204811691600160601b90041688565b60408051988952602089019790975295870194909452606086019290925263ffffffff908116608086015290811660a085015290811660c08401521660e0820152610100016101dd565b6102db610517366004611ab7565b6001602052600090815260409020546001600160a01b031681565b6101f9610540366004611ad0565b61149b565b60006001600160e01b03198216637965db0b60e01b148061057657506301ffc9a760e01b6001600160e01b03198316145b92915050565b6105853361060e565b6105e15760405162461bcd60e51b815260206004820152602260248201527f41636365737369626c653a2043616c6c6572206973206e6f7420616e2061646d60448201526134b760f11b60648201526084015b60405180910390fd5b61060b7fdf8b4c520ffe197c5343c6f5aec59570151ef9a492f2c624fd45ddde6135ec428261098a565b50565b6001600160a01b03811660009081527f2fb794d17134dfdec181ddbac1babb5ab1eb140204ef4d982f294e7fc8b69022602052604081205460ff16610576565b600082815260046020526040902060010154610669816114c0565b61067383836114ca565b505050565b600080838360405161068b929190611d75565b604080519182900382206001600160a01b03881660009081526007602090815283822083835281529083902061010085018452805485526001810154918501919091526002810154928401929092526003820154606084015260049091015463ffffffff808216608085018190526401000000008304821660a0860152600160401b8304821660c0860152600160601b9092041660e08401529092501580159061073f575042816080015163ffffffff1611155b801561075457508060a0015163ffffffff1642105b1561076257600192506107ac565b428160a0015163ffffffff16116107ac578060c0015163ffffffff168160a0015163ffffffff16426107949190611d9b565b61079e9190611dae565b6107a9906002611dd0565b92505b80602001518311156107c057806020015192505b50509392505050565b816001600160a01b0381166108055760405162461bcd60e51b81526020600482015260026024820152612d1960f11b60448201526064016105d8565b816001600160a01b0381166108415760405162461bcd60e51b81526020600482015260026024820152612d1960f11b60448201526064016105d8565b60055461010090046001600160a01b03161580159061086f575060055461010090046001600160a01b031633145b6108bb5760405162461bcd60e51b815260206004820152601e60248201527f63616c6c6572206973206e6f74206c3250726f6a6563744d616e61676572000060448201526064016105d8565b6001600160a01b038481166000908152600660205260409020548185169116036109105760405162461bcd60e51b81526004016105d89060208082526004908201526373616d6560e01b604082015260600190565b6001600160a01b03848116600081815260066020908152604091829020805473ffffffffffffffffffffffffffffffffffffffff1916948816948517905581519283528201929092527fb00bb4c229aff6156cc8e2c767c571665e1927c09fe083ec055956a5a4026193910160405180910390a150505050565b6001600160a01b0381163314610a085760405162461bcd60e51b815260206004820152602f60248201527f416363657373436f6e74726f6c3a2063616e206f6e6c792072656e6f756e636560448201527f20726f6c657320666f722073656c66000000000000000000000000000000000060648201526084016105d8565b610a12828261156c565b5050565b60006001600160a01b03821615801590610a4c57506001600160a01b038381166000908152600660205260409020548116908316145b9392505050565b6000808383604051610a66929190611d75565b604080519182900382206001600160a01b038816600090815260076020908152838220838352815283822061010086018552805486526001810154918601919091526002810154938501939093526003830154606085015260049092015463ffffffff80821660808601526401000000008204811660a0860152600160401b8204811660c0860152600160601b9091041660e08401529250610b09878787610678565b9050808260e0015163ffffffff161015610bbf5780600103610b405781604001518260600151610b399190611d9b565b9350610bbf565b8160200151811015610bab576040820151610b5c600183611d9b565b60018460200151610b6d9190611d9b565b60608501518551610b7e9190611d9b565b610b889190611dae565b610b929190611de3565b8360600151610ba19190611dd0565b610b399190611d9b565b60408201518251610bbc9190611d9b565b93505b5050509392505050565b610bd23361060e565b610c295760405162461bcd60e51b815260206004820152602260248201527f41636365737369626c653a2043616c6c6572206973206e6f7420616e2061646d60448201526134b760f11b60648201526084016105d8565b61060b7fdf8b4c520ffe197c5343c6f5aec59570151ef9a492f2c624fd45ddde6135ec428261064e565b610c5c3361060e565b610cb35760405162461bcd60e51b815260206004820152602260248201527f41636365737369626c653a2043616c6c6572206973206e6f7420616e2061646d60448201526134b760f11b60648201526084016105d8565b6001600160a01b038116610d095760405162461bcd60e51b815260206004820152601860248201527f41636365737369626c653a207a65726f2061646472657373000000000000000060448201526064016105d8565b6001600160a01b0381163303610d615760405162461bcd60e51b815260206004820152601660248201527f41636365737369626c653a2073616d652061646d696e0000000000000000000060448201526064016105d8565b610d8b7fdf8b4c520ffe197c5343c6f5aec59570151ef9a492f2c624fd45ddde6135ec428261064e565b61060b7fdf8b4c520ffe197c5343c6f5aec59570151ef9a492f2c624fd45ddde6135ec423361098a565b806001600160a01b038116610df15760405162461bcd60e51b81526020600482015260026024820152612d1960f11b60448201526064016105d8565b610dfa3361060e565b610e515760405162461bcd60e51b815260206004820152602260248201527f41636365737369626c653a2043616c6c6572206973206e6f7420616e2061646d60448201526134b760f11b60648201526084016105d8565b6005546001600160a01b038084166101009092041603610e9c5760405162461bcd60e51b81526004016105d89060208082526004908201526373616d6560e01b604082015260600190565b50600580546001600160a01b039092166101000274ffffffffffffffffffffffffffffffffffffffff0019909216919091179055565b826001600160a01b038116610f0e5760405162461bcd60e51b81526020600482015260026024820152612d1960f11b60448201526064016105d8565b6001600160a01b0380851660009081526006602052604090205485911615801590610f5257506001600160a01b038181166000908152600660205260409020541633145b610fac5760405162461bcd60e51b815260206004820152602560248201527f63616c6c6572206973206e6f742061207661756c7441646d696e204f66206c326044820152642a37b5b2b760d91b60648201526084016105d8565b6000610fb9868686610a53565b6040516370a0823160e01b81523060048201529091506001600160a01b038716906370a0823190602401602060405180830381865afa158015611000573d6000803e3d6000fd5b505050506040513d601f19601f820116820180604052508101906110249190611dfa565b8111156110735760405162461bcd60e51b815260206004820152601760248201527f62616c616e636520697320696e73756666696369656e7400000000000000000060448201526064016105d8565b6110876001600160a01b03871633836115ef565b505050505050565b600554839061010090046001600160a01b03163314806110ec57506001600160a01b0381811660009081526006602052604090205416158015906110ec57506001600160a01b038181166000908152600660205260409020541633145b61115e5760405162461bcd60e51b815260206004820152602c60248201527f63616c6c6572206973206e6f742061207661756c7441646d696e206f7220507260448201527f6f6a6563744d616e61676572000000000000000000000000000000000000000060648201526084016105d8565b82516020808501919091206001600160a01b0386166000908152600783526040808220838352909352919091206004015463ffffffff16156111e25760405162461bcd60e51b815260206004820152601360248201527f616c726561647920696e697469616c697a65640000000000000000000000000060448201526064016105d8565b43836060015163ffffffff161161123b5760405162461bcd60e51b815260206004820152601760248201527f666972737420636c61696d2074696d652070617373656400000000000000000060448201526064016105d8565b82511580159061124e5750602083015115155b8015611263575060a083015163ffffffff1615155b6112af5760405162461bcd60e51b815260206004820152600b60248201527f77726f6e672076616c756500000000000000000000000000000000000000000060448201526064016105d8565b60018360200151111561131f57826060015163ffffffff16836080015163ffffffff161161131f5760405162461bcd60e51b815260206004820152601b60248201527f77726f6e6720746865207365636f6e6420636c61696d2074696d65000000000060448201526064016105d8565b60408301518351116113735760405162461bcd60e51b815260206004820152601c60248201527f77726f6e672074686520666972737420636c61696d20616d6f756e740000000060448201526064016105d8565b6005548351611397916001600160a01b03888116926101009092041690309061170a565b6001600160a01b038516600090815260076020908152604080832084845282528083208651808255928701516001820181905560028201949094558682015160038201819055606088015160048301805460808b015160a08c015163ffffffff80861667ffffffffffffffff199094169390931764010000000084841602176fffffffffffffffff00000000000000001916600160401b938216939093026fffffffff000000000000000000000000191692909217909255945193967f2d0411b0cbf8e91232447453cc0e9bb069c954b44d45fcc0f192a537cba61ac09661148b968e968e96929593949293929190611e63565b60405180910390a1505050505050565b6000828152600460205260409020600101546114b6816114c0565b610673838361156c565b61060b8133611826565b60008281526004602090815260408083206001600160a01b038516845290915290205460ff16610a125760008281526004602090815260408083206001600160a01b03851684529091529020805460ff191660011790556115283390565b6001600160a01b0316816001600160a01b0316837f2f8788117e7eff1d82e926ec794901d17c78024a50270940304540a733656f0d60405160405180910390a45050565b60008281526004602090815260408083206001600160a01b038516845290915290205460ff1615610a125760008281526004602090815260408083206001600160a01b0385168085529252808320805460ff1916905551339285917ff6391f5c32d9c69d2a47ea670b442974b53935d1edc7fd64eb21e047a839171b9190a45050565b604080516001600160a01b038481166024830152604480830185905283518084039091018152606490920183526020820180516001600160e01b031663a9059cbb60e01b179052915160009283929087169161164b9190611ec1565b6000604051808303816000865af19150503d8060008114611688576040519150601f19603f3d011682016040523d82523d6000602084013e61168d565b606091505b50915091508180156116b75750805115806116b75750808060200190518101906116b79190611edd565b6117035760405162461bcd60e51b815260206004820152600f60248201527f5452414e534645525f4641494c4544000000000000000000000000000000000060448201526064016105d8565b5050505050565b604080516001600160a01b0385811660248301528481166044830152606480830185905283518084039091018152608490920183526020820180516001600160e01b03166323b872dd60e01b179052915160009283929088169161176e9190611ec1565b6000604051808303816000865af19150503d80600081146117ab576040519150601f19603f3d011682016040523d82523d6000602084013e6117b0565b606091505b50915091508180156117da5750805115806117da5750808060200190518101906117da9190611edd565b6110875760405162461bcd60e51b815260206004820152601460248201527f5452414e534645525f46524f4d5f4641494c454400000000000000000000000060448201526064016105d8565b60008281526004602090815260408083206001600160a01b038516845290915290205460ff16610a12576118598161189b565b6118648360206118ad565b604051602001611875929190611eff565b60408051601f198184030181529082905262461bcd60e51b82526105d891600401611f80565b60606105766001600160a01b03831660145b606060006118bc836002611de3565b6118c7906002611dd0565b67ffffffffffffffff8111156118df576118df611ba9565b6040519080825280601f01601f191660200182016040528015611909576020820181803683370190505b509050600360fc1b8160008151811061192457611924611f93565b60200101906001600160f81b031916908160001a905350600f60fb1b8160018151811061195357611953611f93565b60200101906001600160f81b031916908160001a9053506000611977846002611de3565b611982906001611dd0565b90505b6001811115611a07577f303132333435363738396162636465660000000000000000000000000000000085600f16601081106119c3576119c3611f93565b1a60f81b8282815181106119d9576119d9611f93565b60200101906001600160f81b031916908160001a90535060049490941c93611a0081611fa9565b9050611985565b508315610a4c5760405162461bcd60e51b815260206004820181905260248201527f537472696e67733a20686578206c656e67746820696e73756666696369656e7460448201526064016105d8565b600060208284031215611a6857600080fd5b81356001600160e01b031981168114610a4c57600080fd5b80356001600160a01b0381168114611a9757600080fd5b919050565b600060208284031215611aae57600080fd5b610a4c82611a80565b600060208284031215611ac957600080fd5b5035919050565b60008060408385031215611ae357600080fd5b82359150611af360208401611a80565b90509250929050565b600080600060408486031215611b1157600080fd5b611b1a84611a80565b9250602084013567ffffffffffffffff80821115611b3757600080fd5b818601915086601f830112611b4b57600080fd5b813581811115611b5a57600080fd5b876020828501011115611b6c57600080fd5b6020830194508093505050509250925092565b60008060408385031215611b9257600080fd5b611b9b83611a80565b9150611af360208401611a80565b634e487b7160e01b600052604160045260246000fd5b604051601f8201601f1916810167ffffffffffffffff81118282101715611be857611be8611ba9565b604052919050565b803563ffffffff81168114611a9757600080fd5b600060c08284031215611c1657600080fd5b60405160c0810181811067ffffffffffffffff82111715611c3957611c39611ba9565b8060405250809150823581526020830135602082015260408301356040820152611c6560608401611bf0565b6060820152611c7660808401611bf0565b6080820152611c8760a08401611bf0565b60a08201525092915050565b60008060006101008486031215611ca957600080fd5b611cb284611a80565b925060208085013567ffffffffffffffff80821115611cd057600080fd5b818701915087601f830112611ce457600080fd5b813581811115611cf657611cf6611ba9565b611d08601f8201601f19168501611bbf565b91508082528884828501011115611d1e57600080fd5b8084840185840137600084828401015250809450505050611d428560408601611c04565b90509250925092565b60008060408385031215611d5e57600080fd5b611d6783611a80565b946020939093013593505050565b8183823760009101908152919050565b634e487b7160e01b600052601160045260246000fd5b8181038181111561057657610576611d85565b600082611dcb57634e487b7160e01b600052601260045260246000fd5b500490565b8082018082111561057657610576611d85565b808202811582820484141761057657610576611d85565b600060208284031215611e0c57600080fd5b5051919050565b60005b83811015611e2e578181015183820152602001611e16565b50506000910152565b60008151808452611e4f816020860160208601611e13565b601f01601f19169290920160200192915050565b60006101006001600160a01b038b168352806020840152611e868184018b611e37565b604084019990995250506060810195909552608085019390935263ffffffff91821660a0850152811660c08401521660e09091015292915050565b60008251611ed3818460208701611e13565b9190910192915050565b600060208284031215611eef57600080fd5b81518015158114610a4c57600080fd5b7f416363657373436f6e74726f6c3a206163636f756e7420000000000000000000815260008351611f37816017850160208801611e13565b7f206973206d697373696e6720726f6c65200000000000000000000000000000006017918401918201528351611f74816028840160208801611e13565b01602801949350505050565b602081526000610a4c6020830184611e37565b634e487b7160e01b600052603260045260246000fd5b600081611fb857611fb8611d85565b50600019019056fea164736f6c6343000812000a",
  "linkReferences": {},
  "deployedLinkReferences": {}
}