{
  "_format": "hh-sol-artifact-1",
  "contractName": "L2ScheduleVault",
  "sourceName": "contracts/L2/vaults/L2ScheduleVault.sol",
  "abi": [
    {
      "anonymous": false,
      "inputs": [
        {
          "indexed": false,
          "internalType": "address",
          "name": "l2Token",
          "type": "address"
        },
        {
          "indexed": false,
          "internalType": "string",
          "name": "name",
          "type": "string"
        },
        {
          "indexed": false,
          "internalType": "address",
          "name": "newClaimer",
          "type": "address"
        }
      ],
      "name": "ChangedClaimer",
      "type": "event"
    },
    {
      "anonymous": false,
      "inputs": [
        {
          "indexed": false,
          "internalType": "address",
          "name": "l2Token",
          "type": "address"
        },
        {
          "indexed": false,
          "internalType": "string",
          "name": "name",
          "type": "string"
        },
        {
          "indexed": false,
          "internalType": "address",
          "name": "to",
          "type": "address"
        },
        {
          "indexed": false,
          "internalType": "uint256",
          "name": "amount",
          "type": "uint256"
        }
      ],
      "name": "ClaimedInVault",
      "type": "event"
    },
    {
      "anonymous": false,
      "inputs": [
        {
          "indexed": false,
          "internalType": "address",
          "name": "l2Token",
          "type": "address"
        },
        {
          "indexed": false,
          "internalType": "string",
          "name": "name",
          "type": "string"
        },
        {
          "components": [
            {
              "internalType": "address",
              "name": "claimer",
              "type": "address"
            },
            {
              "internalType": "uint256",
              "name": "totalAllocatedAmount",
              "type": "uint256"
            },
            {
              "internalType": "uint256",
              "name": "totalClaimCount",
              "type": "uint256"
            },
            {
              "internalType": "uint256",
              "name": "firstClaimAmount",
              "type": "uint256"
            },
            {
              "internalType": "uint32",
              "name": "firstClaimTime",
              "type": "uint32"
            },
            {
              "internalType": "uint32",
              "name": "secondClaimTime",
              "type": "uint32"
            },
            {
              "internalType": "uint32",
              "name": "roundIntervalTime",
              "type": "uint32"
            }
          ],
          "indexed": false,
          "internalType": "struct LibProject.InitalParameterScheduleVault",
          "name": "parmas",
          "type": "tuple"
        }
      ],
      "name": "InitializedL2ScheduleVault",
      "type": "event"
    },
    {
      "anonymous": false,
      "inputs": [
        {
          "indexed": true,
          "internalType": "bytes32",
          "name": "role",
          "type": "bytes32"
        },
        {
          "indexed": true,
          "internalType": "bytes32",
          "name": "previousAdminRole",
          "type": "bytes32"
        },
        {
          "indexed": true,
          "internalType": "bytes32",
          "name": "newAdminRole",
          "type": "bytes32"
        }
      ],
      "name": "RoleAdminChanged",
      "type": "event"
    },
    {
      "anonymous": false,
      "inputs": [
        {
          "indexed": true,
          "internalType": "bytes32",
          "name": "role",
          "type": "bytes32"
        },
        {
          "indexed": true,
          "internalType": "address",
          "name": "account",
          "type": "address"
        },
        {
          "indexed": true,
          "internalType": "address",
          "name": "sender",
          "type": "address"
        }
      ],
      "name": "RoleGranted",
      "type": "event"
    },
    {
      "anonymous": false,
      "inputs": [
        {
          "indexed": true,
          "internalType": "bytes32",
          "name": "role",
          "type": "bytes32"
        },
        {
          "indexed": true,
          "internalType": "address",
          "name": "account",
          "type": "address"
        },
        {
          "indexed": true,
          "internalType": "address",
          "name": "sender",
          "type": "address"
        }
      ],
      "name": "RoleRevoked",
      "type": "event"
    },
    {
      "anonymous": false,
      "inputs": [
        {
          "indexed": false,
          "internalType": "address",
          "name": "l2Token",
          "type": "address"
        },
        {
          "indexed": false,
          "internalType": "address",
          "name": "newAdmin",
          "type": "address"
        }
      ],
      "name": "SetVaultAdmin",
      "type": "event"
    },
    {
      "inputs": [],
      "name": "ADMIN_ROLE",
      "outputs": [
        {
          "internalType": "bytes32",
          "name": "",
          "type": "bytes32"
        }
      ],
      "stateMutability": "view",
      "type": "function"
    },
    {
      "inputs": [],
      "name": "DEFAULT_ADMIN_ROLE",
      "outputs": [
        {
          "internalType": "bytes32",
          "name": "",
          "type": "bytes32"
        }
      ],
      "stateMutability": "view",
      "type": "function"
    },
    {
      "inputs": [],
      "name": "POLICY_ROLE",
      "outputs": [
        {
          "internalType": "bytes32",
          "name": "",
          "type": "bytes32"
        }
      ],
      "stateMutability": "view",
      "type": "function"
    },
    {
      "inputs": [
        {
          "internalType": "address",
          "name": "account",
          "type": "address"
        }
      ],
      "name": "addAdmin",
      "outputs": [],
      "stateMutability": "nonpayable",
      "type": "function"
    },
    {
      "inputs": [
        {
          "internalType": "address",
          "name": "",
          "type": "address"
        }
      ],
      "name": "aliveImplementation",
      "outputs": [
        {
          "internalType": "bool",
          "name": "",
          "type": "bool"
        }
      ],
      "stateMutability": "view",
      "type": "function"
    },
    {
      "inputs": [
        {
          "internalType": "address",
          "name": "l2Token",
          "type": "address"
        },
        {
          "internalType": "string",
          "name": "vaultName",
          "type": "string"
        }
      ],
      "name": "availableClaimAmount",
      "outputs": [
        {
          "internalType": "uint256",
          "name": "amount",
          "type": "uint256"
        }
      ],
      "stateMutability": "view",
      "type": "function"
    },
    {
      "inputs": [
        {
          "internalType": "address",
          "name": "l2Token",
          "type": "address"
        },
        {
          "internalType": "string",
          "name": "vaultName",
          "type": "string"
        },
        {
          "internalType": "address",
          "name": "_newClaimer",
          "type": "address"
        }
      ],
      "name": "changeClaimer",
      "outputs": [],
      "stateMutability": "nonpayable",
      "type": "function"
    },
    {
      "inputs": [
        {
          "internalType": "address",
          "name": "l2Token",
          "type": "address"
        },
        {
          "internalType": "string",
          "name": "vaultName",
          "type": "string"
        }
      ],
      "name": "claim",
      "outputs": [],
      "stateMutability": "nonpayable",
      "type": "function"
    },
    {
      "inputs": [
        {
          "internalType": "address",
          "name": "l2Token",
          "type": "address"
        },
        {
          "internalType": "string",
          "name": "vaultName",
          "type": "string"
        }
      ],
      "name": "getCurrentRound",
      "outputs": [
        {
          "internalType": "uint256",
          "name": "round",
          "type": "uint256"
        }
      ],
      "stateMutability": "view",
      "type": "function"
    },
    {
      "inputs": [
        {
          "internalType": "bytes32",
          "name": "role",
          "type": "bytes32"
        }
      ],
      "name": "getRoleAdmin",
      "outputs": [
        {
          "internalType": "bytes32",
          "name": "",
          "type": "bytes32"
        }
      ],
      "stateMutability": "view",
      "type": "function"
    },
    {
      "inputs": [
        {
          "internalType": "bytes32",
          "name": "role",
          "type": "bytes32"
        },
        {
          "internalType": "address",
          "name": "account",
          "type": "address"
        }
      ],
      "name": "grantRole",
      "outputs": [],
      "stateMutability": "nonpayable",
      "type": "function"
    },
    {
      "inputs": [
        {
          "internalType": "bytes32",
          "name": "role",
          "type": "bytes32"
        },
        {
          "internalType": "address",
          "name": "account",
          "type": "address"
        }
      ],
      "name": "hasRole",
      "outputs": [
        {
          "internalType": "bool",
          "name": "",
          "type": "bool"
        }
      ],
      "stateMutability": "view",
      "type": "function"
    },
    {
      "inputs": [
        {
          "internalType": "address",
          "name": "l2Token",
          "type": "address"
        },
        {
          "internalType": "string",
          "name": "vaultName",
          "type": "string"
        },
        {
          "components": [
            {
              "internalType": "address",
              "name": "claimer",
              "type": "address"
            },
            {
              "internalType": "uint256",
              "name": "totalAllocatedAmount",
              "type": "uint256"
            },
            {
              "internalType": "uint256",
              "name": "totalClaimCount",
              "type": "uint256"
            },
            {
              "internalType": "uint256",
              "name": "firstClaimAmount",
              "type": "uint256"
            },
            {
              "internalType": "uint32",
              "name": "firstClaimTime",
              "type": "uint32"
            },
            {
              "internalType": "uint32",
              "name": "secondClaimTime",
              "type": "uint32"
            },
            {
              "internalType": "uint32",
              "name": "roundIntervalTime",
              "type": "uint32"
            }
          ],
          "internalType": "struct LibProject.InitalParameterScheduleVault",
          "name": "params",
          "type": "tuple"
        }
      ],
      "name": "initialize",
      "outputs": [],
      "stateMutability": "nonpayable",
      "type": "function"
    },
    {
      "inputs": [
        {
          "internalType": "address",
          "name": "account",
          "type": "address"
        }
      ],
      "name": "isAdmin",
      "outputs": [
        {
          "internalType": "bool",
          "name": "",
          "type": "bool"
        }
      ],
      "stateMutability": "view",
      "type": "function"
    },
    {
      "inputs": [
        {
          "internalType": "address",
          "name": "l2Token",
          "type": "address"
        },
        {
          "internalType": "address",
          "name": "account",
          "type": "address"
        }
      ],
      "name": "isVaultAdmin",
      "outputs": [
        {
          "internalType": "bool",
          "name": "",
          "type": "bool"
        }
      ],
      "stateMutability": "view",
      "type": "function"
    },
    {
      "inputs": [],
      "name": "l2ProjectManager",
      "outputs": [
        {
          "internalType": "address",
          "name": "",
          "type": "address"
        }
      ],
      "stateMutability": "view",
      "type": "function"
    },
    {
      "inputs": [],
      "name": "pauseProxy",
      "outputs": [
        {
          "internalType": "bool",
          "name": "",
          "type": "bool"
        }
      ],
      "stateMutability": "view",
      "type": "function"
    },
    {
      "inputs": [
        {
          "internalType": "uint256",
          "name": "",
          "type": "uint256"
        }
      ],
      "name": "proxyImplementation",
      "outputs": [
        {
          "internalType": "address",
          "name": "",
          "type": "address"
        }
      ],
      "stateMutability": "view",
      "type": "function"
    },
    {
      "inputs": [
        {
          "internalType": "address",
          "name": "account",
          "type": "address"
        }
      ],
      "name": "removeAdmin",
      "outputs": [],
      "stateMutability": "nonpayable",
      "type": "function"
    },
    {
      "inputs": [
        {
          "internalType": "bytes32",
          "name": "role",
          "type": "bytes32"
        },
        {
          "internalType": "address",
          "name": "account",
          "type": "address"
        }
      ],
      "name": "renounceRole",
      "outputs": [],
      "stateMutability": "nonpayable",
      "type": "function"
    },
    {
      "inputs": [
        {
          "internalType": "bytes32",
          "name": "role",
          "type": "bytes32"
        },
        {
          "internalType": "address",
          "name": "account",
          "type": "address"
        }
      ],
      "name": "revokeRole",
      "outputs": [],
      "stateMutability": "nonpayable",
      "type": "function"
    },
    {
      "inputs": [
        {
          "internalType": "bytes4",
          "name": "",
          "type": "bytes4"
        }
      ],
      "name": "selectorImplementation",
      "outputs": [
        {
          "internalType": "address",
          "name": "",
          "type": "address"
        }
      ],
      "stateMutability": "view",
      "type": "function"
    },
    {
      "inputs": [
        {
          "internalType": "address",
          "name": "_l2ProjectManager",
          "type": "address"
        }
      ],
      "name": "setL2ProjectManager",
      "outputs": [],
      "stateMutability": "nonpayable",
      "type": "function"
    },
    {
      "inputs": [
        {
          "internalType": "address",
          "name": "l2Token",
          "type": "address"
        },
        {
          "internalType": "address",
          "name": "_newAdmin",
          "type": "address"
        }
      ],
      "name": "setVaultAdmin",
      "outputs": [],
      "stateMutability": "nonpayable",
      "type": "function"
    },
    {
      "inputs": [
        {
          "internalType": "bytes4",
          "name": "interfaceId",
          "type": "bytes4"
        }
      ],
      "name": "supportsInterface",
      "outputs": [
        {
          "internalType": "bool",
          "name": "",
          "type": "bool"
        }
      ],
      "stateMutability": "view",
      "type": "function"
    },
    {
      "inputs": [
        {
          "internalType": "address",
          "name": "newAdmin",
          "type": "address"
        }
      ],
      "name": "transferAdmin",
      "outputs": [],
      "stateMutability": "nonpayable",
      "type": "function"
    },
    {
      "inputs": [
        {
          "internalType": "address",
          "name": "l2Token",
          "type": "address"
        },
        {
          "internalType": "address",
          "name": "_newAdmin",
          "type": "address"
        }
      ],
      "name": "transferVaultAdmin",
      "outputs": [],
      "stateMutability": "nonpayable",
      "type": "function"
    },
    {
      "inputs": [
        {
          "internalType": "address",
          "name": "",
          "type": "address"
        }
      ],
      "name": "vaultAdminOfToken",
      "outputs": [
        {
          "internalType": "address",
          "name": "",
          "type": "address"
        }
      ],
      "stateMutability": "view",
      "type": "function"
    },
    {
      "inputs": [
        {
          "internalType": "address",
          "name": "",
          "type": "address"
        },
        {
          "internalType": "bytes32",
          "name": "",
          "type": "bytes32"
        }
      ],
      "name": "vaultInfo",
      "outputs": [
        {
          "internalType": "address",
          "name": "claimer",
          "type": "address"
        },
        {
          "internalType": "uint256",
          "name": "totalAllocatedAmount",
          "type": "uint256"
        },
        {
          "internalType": "uint256",
          "name": "totalClaimCount",
          "type": "uint256"
        },
        {
          "internalType": "uint256",
          "name": "totalClaimedAmount",
          "type": "uint256"
        },
        {
          "internalType": "uint256",
          "name": "firstClaimAmount",
          "type": "uint256"
        },
        {
          "internalType": "uint32",
          "name": "firstClaimTime",
          "type": "uint32"
        },
        {
          "internalType": "uint32",
          "name": "secondClaimTime",
          "type": "uint32"
        },
        {
          "internalType": "uint32",
          "name": "roundInterval",
          "type": "uint32"
        },
        {
          "internalType": "uint32",
          "name": "latestClaimedRound",
          "type": "uint32"
        }
      ],
      "stateMutability": "view",
      "type": "function"
    },
    {
      "inputs": [
        {
          "internalType": "address",
          "name": "l2Token",
          "type": "address"
        },
        {
          "internalType": "string",
          "name": "vaultName",
          "type": "string"
        }
      ],
      "name": "viewVaultInfo",
      "outputs": [
        {
          "components": [
            {
              "internalType": "address",
              "name": "claimer",
              "type": "address"
            },
            {
              "internalType": "uint256",
              "name": "totalAllocatedAmount",
              "type": "uint256"
            },
            {
              "internalType": "uint256",
              "name": "totalClaimCount",
              "type": "uint256"
            },
            {
              "internalType": "uint256",
              "name": "totalClaimedAmount",
              "type": "uint256"
            },
            {
              "internalType": "uint256",
              "name": "firstClaimAmount",
              "type": "uint256"
            },
            {
              "internalType": "uint32",
              "name": "firstClaimTime",
              "type": "uint32"
            },
            {
              "internalType": "uint32",
              "name": "secondClaimTime",
              "type": "uint32"
            },
            {
              "internalType": "uint32",
              "name": "roundInterval",
              "type": "uint32"
            },
            {
              "internalType": "uint32",
              "name": "latestClaimedRound",
              "type": "uint32"
            }
          ],
          "internalType": "struct LibScheduleVault.VaultInfo",
          "name": "",
          "type": "tuple"
        }
      ],
      "stateMutability": "view",
      "type": "function"
    }
  ],
  "bytecode": "0x60806040526005805460ff1916600117905534801561001d57600080fd5b50612ab68061002d6000396000f3fe608060405234801561001057600080fd5b50600436106101da5760003560e01c8063560fd7781161010457806391d14854116100a2578063b40d735011610071578063b40d735014610593578063b911135f1461066e578063baf6ce1f14610697578063d547741f146106aa57600080fd5b806391d148541461052c578063a217fddf14610565578063a41823431461056d578063a8d95fb21461058057600080fd5b806375829def116100de57806375829def146104b657806375b238fc146104c95780637d601b92146104f05780637fc46ba81461050357600080fd5b8063560fd7781461048357806363a8fd891461049657806370480275146104a357600080fd5b80632f2ff15d1161017c57806350d2a2761161014b57806350d2a276146103f457806351e8152a1461043557806352351e8514610448578063550d01a31461046057600080fd5b80632f2ff15d146103a8578063321efaa1146103bb57806335b9ac66146103ce57806336568abe146103e157600080fd5b80631e8948c3116101b85780631e8948c31461032a578063229852461461033d578063248a9ca31461037257806324d7806c1461039557600080fd5b806301ffc9a7146101df5780630eb76bd3146102075780631785f53c14610315575b600080fd5b6101f26101ed36600461233f565b6106bd565b60405190151581526020015b60405180910390f35b610308610215366004612451565b6040805161012081018252600080825260208201819052918101829052606081018290526080810182905260a0810182905260c0810182905260e08101829052610100810191909152506001600160a01b03808316600090815260076020908152604080832085518684012084528252918290208251610120810184528154909416845260018101549184019190915260028101549183019190915260038101546060830152600481015460808301526005015463ffffffff80821660a08401526401000000008204811660c0840152600160401b8204811660e0840152600160601b9091041661010082015292915050565b6040516101fe919061249f565b610328610323366004612534565b6106f4565b005b61032861033836600461254f565b610786565b6103647ffb5864e8ff833c3cb2d2d08505e82ff02a43554c74a35d4f5a64e8526127831181565b6040519081526020016101fe565b610364610380366004612582565b60009081526004602052604090206001015490565b6101f26103a3366004612534565b61095f565b6103286103b636600461259b565b61099f565b6103646103c93660046125be565b6109c9565b6103286103dc36600461254f565b6109f4565b6103286103ef36600461259b565b610ba8565b61041d61040236600461233f565b6003602052600090815260409020546001600160a01b031681565b6040516001600160a01b0390911681526020016101fe565b6101f261044336600461254f565b610c34565b60055461041d9061010090046001600160a01b031681565b6101f261046e366004612534565b60026020526000908152604090205460ff1681565b6103646104913660046125be565b610c71565b6000546101f29060ff1681565b6103286104b1366004612534565b610c94565b6103286104c4366004612534565b610d1e565b6103647fdf8b4c520ffe197c5343c6f5aec59570151ef9a492f2c624fd45ddde6135ec4281565b6103286104fe366004612641565b610e80565b61041d610511366004612534565b6006602052600090815260409020546001600160a01b031681565b6101f261053a36600461259b565b60009182526004602090815260408084206001600160a01b0393909316845291905290205460ff1690565b610364600081565b61032861057b366004612534565b611170565b61032861058e3660046125be565b61128d565b6106116105a136600461269f565b60076020908152600092835260408084209091529082529020805460018201546002830154600384015460048501546005909501546001600160a01b039094169492939192909163ffffffff808216916401000000008104821691600160401b8204811691600160601b90041689565b604080516001600160a01b03909a168a5260208a0198909852968801959095526060870193909352608086019190915263ffffffff90811660a086015290811660c085015290811660e084015216610100820152610120016101fe565b61041d61067c366004612582565b6001602052600090815260409020546001600160a01b031681565b6103286106a53660046126dd565b61156c565b6103286106b836600461259b565b611ad2565b60006001600160e01b03198216637965db0b60e01b14806106ee57506301ffc9a760e01b6001600160e01b03198316145b92915050565b6106fd3361095f565b6107595760405162461bcd60e51b815260206004820152602260248201527f41636365737369626c653a2043616c6c6572206973206e6f7420616e2061646d60448201526134b760f11b60648201526084015b60405180910390fd5b6107837fdf8b4c520ffe197c5343c6f5aec59570151ef9a492f2c624fd45ddde6135ec4282610ba8565b50565b816001600160a01b0381166107c25760405162461bcd60e51b81526020600482015260026024820152612d1960f11b6044820152606401610750565b816001600160a01b0381166107fe5760405162461bcd60e51b81526020600482015260026024820152612d1960f11b6044820152606401610750565b6001600160a01b038085166000908152600660205260409020548591161580159061084257506001600160a01b038181166000908152600660205260409020541633145b61089c5760405162461bcd60e51b815260206004820152602560248201527f63616c6c6572206973206e6f742061207661756c7441646d696e204f66206c326044820152642a37b5b2b760d91b6064820152608401610750565b6001600160a01b038581166000908152600660205260409020548186169116036108f15760405162461bcd60e51b81526004016107509060208082526004908201526373616d6560e01b604082015260600190565b6001600160a01b0385811660008181526006602090815260409182902080546001600160a01b031916948916948517905581519283528201929092527fb00bb4c229aff6156cc8e2c767c571665e1927c09fe083ec055956a5a4026193910160405180910390a15050505050565b6001600160a01b03811660009081527f2fb794d17134dfdec181ddbac1babb5ab1eb140204ef4d982f294e7fc8b69022602052604081205460ff166106ee565b6000828152600460205260409020600101546109ba81611af7565b6109c48383611b01565b505050565b60006109ec8484846040516109df9291906127ae565b6040518091039020611ba3565b949350505050565b816001600160a01b038116610a305760405162461bcd60e51b81526020600482015260026024820152612d1960f11b6044820152606401610750565b816001600160a01b038116610a6c5760405162461bcd60e51b81526020600482015260026024820152612d1960f11b6044820152606401610750565b60055461010090046001600160a01b031615801590610a9a575060055461010090046001600160a01b031633145b610ae65760405162461bcd60e51b815260206004820152601e60248201527f63616c6c6572206973206e6f74206c3250726f6a6563744d616e6167657200006044820152606401610750565b6001600160a01b03848116600090815260066020526040902054818516911603610b3b5760405162461bcd60e51b81526004016107509060208082526004908201526373616d6560e01b604082015260600190565b6001600160a01b0384811660008181526006602090815260409182902080546001600160a01b031916948816948517905581519283528201929092527fb00bb4c229aff6156cc8e2c767c571665e1927c09fe083ec055956a5a4026193910160405180910390a150505050565b6001600160a01b0381163314610c265760405162461bcd60e51b815260206004820152602f60248201527f416363657373436f6e74726f6c3a2063616e206f6e6c792072656e6f756e636560448201527f20726f6c657320666f722073656c6600000000000000000000000000000000006064820152608401610750565b610c308282611ce2565b5050565b60006001600160a01b03821615801590610c6a57506001600160a01b038381166000908152600660205260409020548116908316145b9392505050565b60006109ec848484604051610c879291906127ae565b6040518091039020611d65565b610c9d3361095f565b610cf45760405162461bcd60e51b815260206004820152602260248201527f41636365737369626c653a2043616c6c6572206973206e6f7420616e2061646d60448201526134b760f11b6064820152608401610750565b6107837fdf8b4c520ffe197c5343c6f5aec59570151ef9a492f2c624fd45ddde6135ec428261099f565b610d273361095f565b610d7e5760405162461bcd60e51b815260206004820152602260248201527f41636365737369626c653a2043616c6c6572206973206e6f7420616e2061646d60448201526134b760f11b6064820152608401610750565b6001600160a01b038116610dd45760405162461bcd60e51b815260206004820152601860248201527f41636365737369626c653a207a65726f206164647265737300000000000000006044820152606401610750565b6001600160a01b0381163303610e2c5760405162461bcd60e51b815260206004820152601660248201527f41636365737369626c653a2073616d652061646d696e000000000000000000006044820152606401610750565b610e567fdf8b4c520ffe197c5343c6f5aec59570151ef9a492f2c624fd45ddde6135ec428261099f565b6107837fdf8b4c520ffe197c5343c6f5aec59570151ef9a492f2c624fd45ddde6135ec4233610ba8565b600554839061010090046001600160a01b0316331480610edd57506001600160a01b038181166000908152600660205260409020541615801590610edd57506001600160a01b038181166000908152600660205260409020541633145b610f3e5760405162461bcd60e51b815260206004820152602c60248201527f63616c6c6572206973206e6f742061207661756c7441646d696e206f7220507260448201526b37b532b1ba26b0b730b3b2b960a11b6064820152608401610750565b836001600160a01b038116610f7a5760405162461bcd60e51b81526020600482015260026024820152612d1960f11b6044820152606401610750565b826001600160a01b038116610fb65760405162461bcd60e51b81526020600482015260026024820152612d1960f11b6044820152606401610750565b84516020808701919091206001600160a01b038089166000908152600784526040808220848352855280822081516101208101835281549094168452600181015495840186905260028101549184019190915260038101546060840152600481015460808401526005015463ffffffff80821660a08501526401000000008204811660c0850152600160401b8204811660e0850152600160601b9091041661010083015291929091036110ab5760405162461bcd60e51b815260206004820152600f60248201527f6e6f7420696e697469616c697a656400000000000000000000000000000000006044820152606401610750565b80516001600160a01b038088169116036110f05760405162461bcd60e51b81526004016107509060208082526004908201526373616d6560e01b604082015260600190565b6001600160a01b0388811660009081526007602090815260408083208684529091529081902080546001600160a01b03191692891692909217909155517fca06a665ab96328b2df1007b733fb1aa10ae76d39bea810da47a66f7a8c2dee09061115e908a908a908a9061280e565b60405180910390a15050505050505050565b806001600160a01b0381166111ac5760405162461bcd60e51b81526020600482015260026024820152612d1960f11b6044820152606401610750565b6111b53361095f565b61120c5760405162461bcd60e51b815260206004820152602260248201527f41636365737369626c653a2043616c6c6572206973206e6f7420616e2061646d60448201526134b760f11b6064820152608401610750565b6005546001600160a01b0380841661010090920416036112575760405162461bcd60e51b81526004016107509060208082526004908201526373616d6560e01b604082015260600190565b50600580546001600160a01b039092166101000274ffffffffffffffffffffffffffffffffffffffff0019909216919091179055565b826001600160a01b0381166112c95760405162461bcd60e51b81526020600482015260026024820152612d1960f11b6044820152606401610750565b600083836040516112db9291906127ae565b604080519182900382206001600160a01b0380891660009081526007602090815284822084835281529084902061012086018552805490921680865260018301549186019190915260028201549385019390935260038101546060850152600481015460808501526005015463ffffffff80821660a08601526401000000008204811660c0860152600160401b8204811660e0860152600160601b9091041661010084015292506113bb5760405162461bcd60e51b815260206004820152600a60248201526937379031b630b4b6b2b960b11b6044820152606401610750565b60006113c78784611d65565b9050806000036114195760405162461bcd60e51b815260206004820152601360248201527f6e6f20636c61696d61626c6520616d6f756e74000000000000000000000000006044820152606401610750565b6040516370a0823160e01b81523060048201526001600160a01b038816906370a0823190602401602060405180830381865afa15801561145d573d6000803e3d6000fd5b505050506040513d601f19601f820116820180604052508101906114819190612844565b8111156114d05760405162461bcd60e51b815260206004820152601460248201527f696e73756666696369656e742062616c616e63650000000000000000000000006044820152606401610750565b6001600160a01b038716600090815260076020908152604080832086845290915281206003018054839290611506908490612873565b90915550508151611522906001600160a01b0389169083611ed0565b81516040517fca22eeecfd9befea639efcc7bc0f6d548698260714f080f97a29487ca7362de89161155b918a918a918a91908790612886565b60405180910390a150505050505050565b600554839061010090046001600160a01b03163314806115c957506001600160a01b0381811660009081526006602052604090205416158015906115c957506001600160a01b038181166000908152600660205260409020541633145b61162a5760405162461bcd60e51b815260206004820152602c60248201527f63616c6c6572206973206e6f742061207661756c7441646d696e206f7220507260448201526b37b532b1ba26b0b730b3b2b960a11b6064820152608401610750565b82516020840120608083015163ffffffff42811691161161168d5760405162461bcd60e51b815260206004820152601760248201527f666972737420636c61696d2074696d65207061737365640000000000000000006044820152606401610750565b6020830151158015906116a35750604083015115155b80156116b8575060c083015163ffffffff1615155b6117045760405162461bcd60e51b815260206004820152600b60248201527f77726f6e672076616c75650000000000000000000000000000000000000000006044820152606401610750565b60018360400151111561177457826080015163ffffffff168360a0015163ffffffff16116117745760405162461bcd60e51b815260206004820152601b60248201527f77726f6e6720746865207365636f6e6420636c61696d2074696d6500000000006044820152606401610750565b82606001518360200151116117cb5760405162461bcd60e51b815260206004820152601c60248201527f77726f6e672074686520666972737420636c61696d20616d6f756e74000000006044820152606401610750565b6001600160a01b038086166000908152600760209081526040808320858452825291829020825161012081018452815490941684526001810154918401829052600281015492840192909252600382015460608401526004820154608084015260059091015463ffffffff80821660a08501526401000000008204811660c0850152600160401b8204811660e0850152600160601b90910416610100830152156118b75760405162461bcd60e51b815260206004820152601360248201527f616c726561647920696e697469616c697a6564000000000000000000000000006044820152606401610750565b600060405180610120016040528086600001516001600160a01b0316815260200186602001518152602001866040015181526020016000815260200186606001518152602001866080015163ffffffff1681526020018660a0015163ffffffff1681526020018660c0015163ffffffff168152602001600063ffffffff1681525090508060076000896001600160a01b03166001600160a01b03168152602001908152602001600020600085815260200190815260200160002060008201518160000160006101000a8154816001600160a01b0302191690836001600160a01b031602179055506020820151816001015560408201518160020155606082015181600301556080820151816004015560a08201518160050160006101000a81548163ffffffff021916908363ffffffff16021790555060c08201518160050160046101000a81548163ffffffff021916908363ffffffff16021790555060e08201518160050160086101000a81548163ffffffff021916908363ffffffff16021790555061010082015181600501600c6101000a81548163ffffffff021916908363ffffffff160217905550905050611a9f600560019054906101000a90046001600160a01b03163087602001518a6001600160a01b0316611feb909392919063ffffffff16565b7f58cc56e8f8fd1dded65bfd52fa3974aeadec2c589ce114b0989e51ece254260487878760405161155b939291906128da565b600082815260046020526040902060010154611aed81611af7565b6109c48383611ce2565b610783813361210f565b60008281526004602090815260408083206001600160a01b038516845290915290205460ff16610c305760008281526004602090815260408083206001600160a01b03851684529091529020805460ff19166001179055611b5f3390565b6001600160a01b0316816001600160a01b0316837f2f8788117e7eff1d82e926ec794901d17c78024a50270940304540a733656f0d60405160405180910390a45050565b6001600160a01b03808316600090815260076020908152604080832085845282528083208151610120810183528154909516855260018101549285019290925260028201549084015260038101546060840152600481015460808401526005015463ffffffff80821660a085018190526401000000008304821660c0860152600160401b8304821660e0860152600160601b9092041661010084015290919015801590611c5a5750428160a0015163ffffffff1611155b8015611c6f57508060c0015163ffffffff1642105b15611c7d5760019150611cc7565b428160c0015163ffffffff1611611cc7578060e0015163ffffffff168160c0015163ffffffff1642611caf919061295e565b611cb99190612971565b611cc4906002612873565b91505b8060400151821115611cdb57806040015191505b5092915050565b60008281526004602090815260408083206001600160a01b038516845290915290205460ff1615610c305760008281526004602090815260408083206001600160a01b0385168085529252808320805460ff1916905551339285917ff6391f5c32d9c69d2a47ea670b442974b53935d1edc7fd64eb21e047a839171b9190a45050565b6001600160a01b03808316600090815260076020908152604080832085845282528083208151610120810183528154909516855260018101549285019290925260028201549084015260038101546060840152600481015460808401526005015463ffffffff80821660a08501526401000000008204811660c0850152600160401b8204811660e0850152600160601b909104166101008301529081611e0b8585611ba3565b90508082610100015163ffffffff161015611ec85780600103611e435781606001518260800151611e3c919061295e565b9250611ec8565b8160400151811015611eb1576060820151611e5f60018361295e565b60018460400151611e70919061295e565b84608001518560200151611e84919061295e565b611e8e9190612971565b611e989190612993565b8360800151611ea79190612873565b611e3c919061295e565b81606001518260200151611ec5919061295e565b92505b505092915050565b604080516001600160a01b038481166024830152604480830185905283518084039091018152606490920183526020820180516001600160e01b031663a9059cbb60e01b1790529151600092839290871691611f2c91906129aa565b6000604051808303816000865af19150503d8060008114611f69576040519150601f19603f3d011682016040523d82523d6000602084013e611f6e565b606091505b5091509150818015611f98575080511580611f98575080806020019051810190611f9891906129c6565b611fe45760405162461bcd60e51b815260206004820152600f60248201527f5452414e534645525f4641494c454400000000000000000000000000000000006044820152606401610750565b5050505050565b604080516001600160a01b0385811660248301528481166044830152606480830185905283518084039091018152608490920183526020820180516001600160e01b03166323b872dd60e01b179052915160009283929088169161204f91906129aa565b6000604051808303816000865af19150503d806000811461208c576040519150601f19603f3d011682016040523d82523d6000602084013e612091565b606091505b50915091508180156120bb5750805115806120bb5750808060200190518101906120bb91906129c6565b6121075760405162461bcd60e51b815260206004820152601460248201527f5452414e534645525f46524f4d5f4641494c45440000000000000000000000006044820152606401610750565b505050505050565b60008281526004602090815260408083206001600160a01b038516845290915290205460ff16610c305761214281612184565b61214d836020612196565b60405160200161215e9291906129e8565b60408051601f198184030181529082905262461bcd60e51b825261075091600401612a69565b60606106ee6001600160a01b03831660145b606060006121a5836002612993565b6121b0906002612873565b67ffffffffffffffff8111156121c8576121c8612385565b6040519080825280601f01601f1916602001820160405280156121f2576020820181803683370190505b509050600360fc1b8160008151811061220d5761220d612a7c565b60200101906001600160f81b031916908160001a905350600f60fb1b8160018151811061223c5761223c612a7c565b60200101906001600160f81b031916908160001a9053506000612260846002612993565b61226b906001612873565b90505b60018111156122f0577f303132333435363738396162636465660000000000000000000000000000000085600f16601081106122ac576122ac612a7c565b1a60f81b8282815181106122c2576122c2612a7c565b60200101906001600160f81b031916908160001a90535060049490941c936122e981612a92565b905061226e565b508315610c6a5760405162461bcd60e51b815260206004820181905260248201527f537472696e67733a20686578206c656e67746820696e73756666696369656e746044820152606401610750565b60006020828403121561235157600080fd5b81356001600160e01b031981168114610c6a57600080fd5b80356001600160a01b038116811461238057600080fd5b919050565b634e487b7160e01b600052604160045260246000fd5b60405160e0810167ffffffffffffffff811182821017156123be576123be612385565b60405290565b600082601f8301126123d557600080fd5b813567ffffffffffffffff808211156123f0576123f0612385565b604051601f8301601f19908116603f0116810190828211818310171561241857612418612385565b8160405283815286602085880101111561243157600080fd5b836020870160208301376000602085830101528094505050505092915050565b6000806040838503121561246457600080fd5b61246d83612369565b9150602083013567ffffffffffffffff81111561248957600080fd5b612495858286016123c4565b9150509250929050565b6000610120820190506001600160a01b0383511682526020830151602083015260408301516040830152606083015160608301526080830151608083015263ffffffff60a08401511660a083015260c083015161250460c084018263ffffffff169052565b5060e083015161251c60e084018263ffffffff169052565b506101008381015163ffffffff811684830152611ec8565b60006020828403121561254657600080fd5b610c6a82612369565b6000806040838503121561256257600080fd5b61256b83612369565b915061257960208401612369565b90509250929050565b60006020828403121561259457600080fd5b5035919050565b600080604083850312156125ae57600080fd5b8235915061257960208401612369565b6000806000604084860312156125d357600080fd5b6125dc84612369565b9250602084013567ffffffffffffffff808211156125f957600080fd5b818601915086601f83011261260d57600080fd5b81358181111561261c57600080fd5b87602082850101111561262e57600080fd5b6020830194508093505050509250925092565b60008060006060848603121561265657600080fd5b61265f84612369565b9250602084013567ffffffffffffffff81111561267b57600080fd5b612687868287016123c4565b92505061269660408501612369565b90509250925092565b600080604083850312156126b257600080fd5b6126bb83612369565b946020939093013593505050565b803563ffffffff8116811461238057600080fd5b60008060008385036101208112156126f457600080fd5b6126fd85612369565b9350602085013567ffffffffffffffff81111561271957600080fd5b612725878288016123c4565b93505060e0603f198201121561273a57600080fd5b5061274361239b565b61274f60408601612369565b8152606085013560208201526080850135604082015260a0850135606082015261277b60c086016126c9565b608082015261278c60e086016126c9565b60a082015261279e61010086016126c9565b60c0820152809150509250925092565b8183823760009101908152919050565b60005b838110156127d95781810151838201526020016127c1565b50506000910152565b600081518084526127fa8160208601602086016127be565b601f01601f19169290920160200192915050565b60006001600160a01b0380861683526060602084015261283160608401866127e2565b9150808416604084015250949350505050565b60006020828403121561285657600080fd5b5051919050565b634e487b7160e01b600052601160045260246000fd5b808201808211156106ee576106ee61285d565b60006001600160a01b03808816835260806020840152856080840152858760a0850137600060a0878501015260a0601f19601f88011684010191508085166040840152508260608301529695505050505050565b60006101206001600160a01b0380871684528160208501526128fe828501876127e2565b925080855116604085015250506020830151606083015260408301516080830152606083015160a0830152608083015163ffffffff80821660c08501528060a08601511660e08501528060c0860151166101008501525050949350505050565b818103818111156106ee576106ee61285d565b60008261298e57634e487b7160e01b600052601260045260246000fd5b500490565b80820281158282048414176106ee576106ee61285d565b600082516129bc8184602087016127be565b9190910192915050565b6000602082840312156129d857600080fd5b81518015158114610c6a57600080fd5b7f416363657373436f6e74726f6c3a206163636f756e7420000000000000000000815260008351612a208160178501602088016127be565b7f206973206d697373696e6720726f6c65200000000000000000000000000000006017918401918201528351612a5d8160288401602088016127be565b01602801949350505050565b602081526000610c6a60208301846127e2565b634e487b7160e01b600052603260045260246000fd5b600081612aa157612aa161285d565b50600019019056fea164736f6c6343000812000a",
  "linkReferences": {},
  "deployedLinkReferences": {}
}