{
  "_format": "hh-sol-artifact-1",
  "contractName": "L2ScheduleVault",
  "sourceName": "contracts/L2/vaults/L2ScheduleVault.sol",
  "abi": [
    {
      "anonymous": false,
      "inputs": [
        {
          "indexed": false,
          "internalType": "address",
          "name": "l2Token",
          "type": "address"
        },
        {
          "indexed": false,
          "internalType": "string",
          "name": "name",
          "type": "string"
        },
        {
          "indexed": false,
          "internalType": "uint256",
          "name": "totalAllocatedAmount",
          "type": "uint256"
        },
        {
          "indexed": false,
          "internalType": "uint256",
          "name": "totalClaimCount",
          "type": "uint256"
        },
        {
          "indexed": false,
          "internalType": "uint256",
          "name": "firstClaimAmount",
          "type": "uint256"
        },
        {
          "indexed": false,
          "internalType": "uint32",
          "name": "firstClaimTime",
          "type": "uint32"
        },
        {
          "indexed": false,
          "internalType": "uint32",
          "name": "secondClaimTime",
          "type": "uint32"
        },
        {
          "indexed": false,
          "internalType": "uint32",
          "name": "roundInterval",
          "type": "uint32"
        }
      ],
      "name": "InitializedL2ScheduleVault",
      "type": "event"
    },
    {
      "anonymous": false,
      "inputs": [
        {
          "indexed": true,
          "internalType": "bytes32",
          "name": "role",
          "type": "bytes32"
        },
        {
          "indexed": true,
          "internalType": "bytes32",
          "name": "previousAdminRole",
          "type": "bytes32"
        },
        {
          "indexed": true,
          "internalType": "bytes32",
          "name": "newAdminRole",
          "type": "bytes32"
        }
      ],
      "name": "RoleAdminChanged",
      "type": "event"
    },
    {
      "anonymous": false,
      "inputs": [
        {
          "indexed": true,
          "internalType": "bytes32",
          "name": "role",
          "type": "bytes32"
        },
        {
          "indexed": true,
          "internalType": "address",
          "name": "account",
          "type": "address"
        },
        {
          "indexed": true,
          "internalType": "address",
          "name": "sender",
          "type": "address"
        }
      ],
      "name": "RoleGranted",
      "type": "event"
    },
    {
      "anonymous": false,
      "inputs": [
        {
          "indexed": true,
          "internalType": "bytes32",
          "name": "role",
          "type": "bytes32"
        },
        {
          "indexed": true,
          "internalType": "address",
          "name": "account",
          "type": "address"
        },
        {
          "indexed": true,
          "internalType": "address",
          "name": "sender",
          "type": "address"
        }
      ],
      "name": "RoleRevoked",
      "type": "event"
    },
    {
      "anonymous": false,
      "inputs": [
        {
          "indexed": false,
          "internalType": "address",
          "name": "newInitializer",
          "type": "address"
        }
      ],
      "name": "SetInitializer",
      "type": "event"
    },
    {
      "anonymous": false,
      "inputs": [
        {
          "indexed": false,
          "internalType": "address",
          "name": "l2Token",
          "type": "address"
        },
        {
          "indexed": false,
          "internalType": "address",
          "name": "newAdmin",
          "type": "address"
        }
      ],
      "name": "SetVaultAdmin",
      "type": "event"
    },
    {
      "inputs": [],
      "name": "ADMIN_ROLE",
      "outputs": [
        {
          "internalType": "bytes32",
          "name": "",
          "type": "bytes32"
        }
      ],
      "stateMutability": "view",
      "type": "function"
    },
    {
      "inputs": [],
      "name": "DEFAULT_ADMIN_ROLE",
      "outputs": [
        {
          "internalType": "bytes32",
          "name": "",
          "type": "bytes32"
        }
      ],
      "stateMutability": "view",
      "type": "function"
    },
    {
      "inputs": [],
      "name": "POLICY_ROLE",
      "outputs": [
        {
          "internalType": "bytes32",
          "name": "",
          "type": "bytes32"
        }
      ],
      "stateMutability": "view",
      "type": "function"
    },
    {
      "inputs": [
        {
          "internalType": "address",
          "name": "account",
          "type": "address"
        }
      ],
      "name": "addAdmin",
      "outputs": [],
      "stateMutability": "nonpayable",
      "type": "function"
    },
    {
      "inputs": [
        {
          "internalType": "address",
          "name": "",
          "type": "address"
        }
      ],
      "name": "aliveImplementation",
      "outputs": [
        {
          "internalType": "bool",
          "name": "",
          "type": "bool"
        }
      ],
      "stateMutability": "view",
      "type": "function"
    },
    {
      "inputs": [
        {
          "internalType": "address",
          "name": "l2Token",
          "type": "address"
        },
        {
          "internalType": "string",
          "name": "vaultName",
          "type": "string"
        }
      ],
      "name": "availableClaimAmount",
      "outputs": [
        {
          "internalType": "uint256",
          "name": "amount",
          "type": "uint256"
        }
      ],
      "stateMutability": "view",
      "type": "function"
    },
    {
      "inputs": [
        {
          "internalType": "address",
          "name": "l2Token",
          "type": "address"
        },
        {
          "internalType": "string",
          "name": "vaultName",
          "type": "string"
        }
      ],
      "name": "claim",
      "outputs": [],
      "stateMutability": "nonpayable",
      "type": "function"
    },
    {
      "inputs": [
        {
          "internalType": "address",
          "name": "l2Token",
          "type": "address"
        },
        {
          "internalType": "string",
          "name": "vaultName",
          "type": "string"
        }
      ],
      "name": "getCurrentRound",
      "outputs": [
        {
          "internalType": "uint256",
          "name": "round",
          "type": "uint256"
        }
      ],
      "stateMutability": "view",
      "type": "function"
    },
    {
      "inputs": [
        {
          "internalType": "bytes32",
          "name": "role",
          "type": "bytes32"
        }
      ],
      "name": "getRoleAdmin",
      "outputs": [
        {
          "internalType": "bytes32",
          "name": "",
          "type": "bytes32"
        }
      ],
      "stateMutability": "view",
      "type": "function"
    },
    {
      "inputs": [
        {
          "internalType": "bytes32",
          "name": "role",
          "type": "bytes32"
        },
        {
          "internalType": "address",
          "name": "account",
          "type": "address"
        }
      ],
      "name": "grantRole",
      "outputs": [],
      "stateMutability": "nonpayable",
      "type": "function"
    },
    {
      "inputs": [
        {
          "internalType": "bytes32",
          "name": "role",
          "type": "bytes32"
        },
        {
          "internalType": "address",
          "name": "account",
          "type": "address"
        }
      ],
      "name": "hasRole",
      "outputs": [
        {
          "internalType": "bool",
          "name": "",
          "type": "bool"
        }
      ],
      "stateMutability": "view",
      "type": "function"
    },
    {
      "inputs": [
        {
          "internalType": "address",
          "name": "l2Token",
          "type": "address"
        },
        {
          "internalType": "string",
          "name": "vaultName",
          "type": "string"
        },
        {
          "components": [
            {
              "internalType": "uint256",
              "name": "totalAllocatedAmount",
              "type": "uint256"
            },
            {
              "internalType": "uint256",
              "name": "totalClaimCount",
              "type": "uint256"
            },
            {
              "internalType": "uint256",
              "name": "firstClaimAmount",
              "type": "uint256"
            },
            {
              "internalType": "uint32",
              "name": "firstClaimTime",
              "type": "uint32"
            },
            {
              "internalType": "uint32",
              "name": "secondClaimTime",
              "type": "uint32"
            },
            {
              "internalType": "uint32",
              "name": "roundIntervalTime",
              "type": "uint32"
            }
          ],
          "internalType": "struct LibProject.InitalParameterScheduleVault",
          "name": "params",
          "type": "tuple"
        }
      ],
      "name": "initialize",
      "outputs": [],
      "stateMutability": "nonpayable",
      "type": "function"
    },
    {
      "inputs": [],
      "name": "initializer",
      "outputs": [
        {
          "internalType": "address",
          "name": "",
          "type": "address"
        }
      ],
      "stateMutability": "view",
      "type": "function"
    },
    {
      "inputs": [
        {
          "internalType": "address",
          "name": "account",
          "type": "address"
        }
      ],
      "name": "isAdmin",
      "outputs": [
        {
          "internalType": "bool",
          "name": "",
          "type": "bool"
        }
      ],
      "stateMutability": "view",
      "type": "function"
    },
    {
      "inputs": [
        {
          "internalType": "address",
          "name": "l2Token",
          "type": "address"
        },
        {
          "internalType": "address",
          "name": "account",
          "type": "address"
        }
      ],
      "name": "isVaultAdmin",
      "outputs": [
        {
          "internalType": "bool",
          "name": "",
          "type": "bool"
        }
      ],
      "stateMutability": "view",
      "type": "function"
    },
    {
      "inputs": [],
      "name": "l2ProjectManager",
      "outputs": [
        {
          "internalType": "address",
          "name": "",
          "type": "address"
        }
      ],
      "stateMutability": "view",
      "type": "function"
    },
    {
      "inputs": [],
      "name": "pauseProxy",
      "outputs": [
        {
          "internalType": "bool",
          "name": "",
          "type": "bool"
        }
      ],
      "stateMutability": "view",
      "type": "function"
    },
    {
      "inputs": [
        {
          "internalType": "uint256",
          "name": "",
          "type": "uint256"
        }
      ],
      "name": "proxyImplementation",
      "outputs": [
        {
          "internalType": "address",
          "name": "",
          "type": "address"
        }
      ],
      "stateMutability": "view",
      "type": "function"
    },
    {
      "inputs": [
        {
          "internalType": "address",
          "name": "account",
          "type": "address"
        }
      ],
      "name": "removeAdmin",
      "outputs": [],
      "stateMutability": "nonpayable",
      "type": "function"
    },
    {
      "inputs": [
        {
          "internalType": "bytes32",
          "name": "role",
          "type": "bytes32"
        },
        {
          "internalType": "address",
          "name": "account",
          "type": "address"
        }
      ],
      "name": "renounceRole",
      "outputs": [],
      "stateMutability": "nonpayable",
      "type": "function"
    },
    {
      "inputs": [
        {
          "internalType": "bytes32",
          "name": "role",
          "type": "bytes32"
        },
        {
          "internalType": "address",
          "name": "account",
          "type": "address"
        }
      ],
      "name": "revokeRole",
      "outputs": [],
      "stateMutability": "nonpayable",
      "type": "function"
    },
    {
      "inputs": [
        {
          "internalType": "bytes4",
          "name": "",
          "type": "bytes4"
        }
      ],
      "name": "selectorImplementation",
      "outputs": [
        {
          "internalType": "address",
          "name": "",
          "type": "address"
        }
      ],
      "stateMutability": "view",
      "type": "function"
    },
    {
      "inputs": [
        {
          "internalType": "address",
          "name": "_initializer",
          "type": "address"
        }
      ],
      "name": "setInitializer",
      "outputs": [],
      "stateMutability": "nonpayable",
      "type": "function"
    },
    {
      "inputs": [
        {
          "internalType": "address",
          "name": "_l2ProjectManager",
          "type": "address"
        }
      ],
      "name": "setL2ProjectManager",
      "outputs": [],
      "stateMutability": "nonpayable",
      "type": "function"
    },
    {
      "inputs": [
        {
          "internalType": "address",
          "name": "l2Token",
          "type": "address"
        },
        {
          "internalType": "address",
          "name": "_newAdmin",
          "type": "address"
        }
      ],
      "name": "setVaultAdmin",
      "outputs": [],
      "stateMutability": "nonpayable",
      "type": "function"
    },
    {
      "inputs": [
        {
          "internalType": "bytes4",
          "name": "interfaceId",
          "type": "bytes4"
        }
      ],
      "name": "supportsInterface",
      "outputs": [
        {
          "internalType": "bool",
          "name": "",
          "type": "bool"
        }
      ],
      "stateMutability": "view",
      "type": "function"
    },
    {
      "inputs": [
        {
          "internalType": "address",
          "name": "newAdmin",
          "type": "address"
        }
      ],
      "name": "transferAdmin",
      "outputs": [],
      "stateMutability": "nonpayable",
      "type": "function"
    },
    {
      "inputs": [
        {
          "internalType": "address",
          "name": "",
          "type": "address"
        }
      ],
      "name": "vaultAdminOfToken",
      "outputs": [
        {
          "internalType": "address",
          "name": "",
          "type": "address"
        }
      ],
      "stateMutability": "view",
      "type": "function"
    },
    {
      "inputs": [
        {
          "internalType": "address",
          "name": "",
          "type": "address"
        },
        {
          "internalType": "bytes32",
          "name": "",
          "type": "bytes32"
        }
      ],
      "name": "vaultInfo",
      "outputs": [
        {
          "internalType": "uint256",
          "name": "totalAllocatedAmount",
          "type": "uint256"
        },
        {
          "internalType": "uint256",
          "name": "totalClaimCount",
          "type": "uint256"
        },
        {
          "internalType": "uint256",
          "name": "totalClaimedAmount",
          "type": "uint256"
        },
        {
          "internalType": "uint256",
          "name": "firstClaimAmount",
          "type": "uint256"
        },
        {
          "internalType": "uint32",
          "name": "firstClaimTime",
          "type": "uint32"
        },
        {
          "internalType": "uint32",
          "name": "secondClaimTime",
          "type": "uint32"
        },
        {
          "internalType": "uint32",
          "name": "roundInterval",
          "type": "uint32"
        },
        {
          "internalType": "uint32",
          "name": "latestClaimedRound",
          "type": "uint32"
        }
      ],
      "stateMutability": "view",
      "type": "function"
    }
  ],
  "bytecode": "0x60806040526005805460ff1916600117905534801561001d57600080fd5b506122208061002d6000396000f3fe608060405234801561001057600080fd5b50600436106101cf5760003560e01c80635c24b074116101045780639ce110d7116100a2578063ab4299b511610071578063ab4299b51461047a578063b40d73501461048d578063b911135f14610545578063d547741f1461056e57600080fd5b80639ce110d714610439578063a217fddf1461044c578063a418234314610454578063a8d95fb21461046757600080fd5b806375829def116100de57806375829def1461039d57806375b238fc146103b05780637fc46ba8146103d757806391d148541461040057600080fd5b80635c24b0741461036a57806363a8fd891461037d578063704802751461038a57600080fd5b806335b9ac661161017157806351e8152a1161014b57806351e8152a1461030957806352351e851461031c578063550d01a314610334578063560fd7781461035757600080fd5b806335b9ac66146102a257806336568abe146102b557806350d2a276146102c857600080fd5b8063248a9ca3116101ad578063248a9ca31461024657806324d7806c146102695780632f2ff15d1461027c578063321efaa11461028f57600080fd5b806301ffc9a7146101d45780631785f53c146101fc5780632298524614610211575b600080fd5b6101e76101e2366004611c76565b610581565b60405190151581526020015b60405180910390f35b61020f61020a366004611cbc565b6105b8565b005b6102387ffb5864e8ff833c3cb2d2d08505e82ff02a43554c74a35d4f5a64e8526127831181565b6040519081526020016101f3565b610238610254366004611cd7565b60009081526004602052604090206001015490565b6101e7610277366004611cbc565b61064a565b61020f61028a366004611cf0565b61068a565b61023861029d366004611d1c565b6106b4565b61020f6102b0366004611d9f565b610805565b61020f6102c3366004611cf0565b610a1b565b6102f16102d6366004611c76565b6003602052600090815260409020546001600160a01b031681565b6040516001600160a01b0390911681526020016101f3565b6101e7610317366004611d9f565b610aa7565b6005546102f19061010090046001600160a01b031681565b6101e7610342366004611cbc565b60026020526000908152604090205460ff1681565b610238610365366004611d1c565b610ae4565b61020f610378366004611cbc565b610c5a565b6000546101e79060ff1681565b61020f610398366004611cbc565b610d9e565b61020f6103ab366004611cbc565b610e28565b6102387fdf8b4c520ffe197c5343c6f5aec59570151ef9a492f2c624fd45ddde6135ec4281565b6102f16103e5366004611cbc565b6007602052600090815260409020546001600160a01b031681565b6101e761040e366004611cf0565b60009182526004602090815260408084206001600160a01b0393909316845291905290205460ff1690565b6006546102f1906001600160a01b031681565b610238600081565b61020f610462366004611cbc565b610f8a565b61020f610475366004611d1c565b6110a7565b61020f610488366004611eb3565b611264565b6104fb61049b366004611f6b565b6008602090815260009283526040808420909152908252902080546001820154600283015460038401546004909401549293919290919063ffffffff808216916401000000008104821691600160401b8204811691600160601b90041688565b60408051988952602089019790975295870194909452606086019290925263ffffffff908116608086015290811660a085015290811660c08401521660e0820152610100016101f3565b6102f1610553366004611cd7565b6001602052600090815260409020546001600160a01b031681565b61020f61057c366004611cf0565b611653565b60006001600160e01b03198216637965db0b60e01b14806105b257506301ffc9a760e01b6001600160e01b03198316145b92915050565b6105c13361064a565b61061d5760405162461bcd60e51b815260206004820152602260248201527f41636365737369626c653a2043616c6c6572206973206e6f7420616e2061646d60448201526134b760f11b60648201526084015b60405180910390fd5b6106477fdf8b4c520ffe197c5343c6f5aec59570151ef9a492f2c624fd45ddde6135ec4282610a1b565b50565b6001600160a01b03811660009081527f2fb794d17134dfdec181ddbac1babb5ab1eb140204ef4d982f294e7fc8b69022602052604081205460ff166105b2565b6000828152600460205260409020600101546106a581611678565b6106af8383611682565b505050565b60008083836040516106c7929190611f95565b604080519182900382206001600160a01b03881660009081526008602090815283822083835281529083902061010085018452805485526001810154918501919091526002810154928401929092526003820154606084015260049091015463ffffffff808216608085018190526401000000008304821660a0860152600160401b8304821660c0860152600160601b9092041660e08401529092501580159061077b575042816080015163ffffffff1611155b801561079057508060a0015163ffffffff1642105b1561079e57600192506107e8565b428160a0015163ffffffff16116107e8578060c0015163ffffffff168160a0015163ffffffff16426107d09190611fbb565b6107da9190611fce565b6107e5906002611ff0565b92505b80602001518311156107fc57806020015192505b50509392505050565b816001600160a01b0381166108415760405162461bcd60e51b81526020600482015260026024820152612d1960f11b6044820152606401610614565b816001600160a01b03811661087d5760405162461bcd60e51b81526020600482015260026024820152612d1960f11b6044820152606401610614565b6108d26040518060400160405280601a81526020017f6f6e6c794c3250726f6a6563744d616e6167657220257320257300000000000081525033600560019054906101000a90046001600160a01b0316611724565b60055461010090046001600160a01b031615801590610900575060055461010090046001600160a01b031633145b61094c5760405162461bcd60e51b815260206004820152601e60248201527f63616c6c6572206973206e6f74206c3250726f6a6563744d616e6167657200006044820152606401610614565b6001600160a01b038481166000908152600760205260409020548185169116036109a15760405162461bcd60e51b81526004016106149060208082526004908201526373616d6560e01b604082015260600190565b6001600160a01b03848116600081815260076020908152604091829020805473ffffffffffffffffffffffffffffffffffffffff1916948816948517905581519283528201929092527fb00bb4c229aff6156cc8e2c767c571665e1927c09fe083ec055956a5a4026193910160405180910390a150505050565b6001600160a01b0381163314610a995760405162461bcd60e51b815260206004820152602f60248201527f416363657373436f6e74726f6c3a2063616e206f6e6c792072656e6f756e636560448201527f20726f6c657320666f722073656c6600000000000000000000000000000000006064820152608401610614565b610aa3828261176b565b5050565b60006001600160a01b03821615801590610add57506001600160a01b038381166000908152600760205260409020548116908316145b9392505050565b6000808383604051610af7929190611f95565b604080519182900382206001600160a01b038816600090815260086020908152838220838352815283822061010086018552805486526001810154918601919091526002810154938501939093526003830154606085015260049092015463ffffffff80821660808601526401000000008204811660a0860152600160401b8204811660c0860152600160601b9091041660e08401529250610b9a8787876106b4565b9050808260e0015163ffffffff161015610c505780600103610bd15781604001518260600151610bca9190611fbb565b9350610c50565b8160200151811015610c3c576040820151610bed600183611fbb565b60018460200151610bfe9190611fbb565b60608501518551610c0f9190611fbb565b610c199190611fce565b610c239190612003565b8360600151610c329190611ff0565b610bca9190611fbb565b60408201518251610c4d9190611fbb565b93505b5050509392505050565b806001600160a01b038116610c965760405162461bcd60e51b81526020600482015260026024820152612d1960f11b6044820152606401610614565b610c9f3361064a565b610cf65760405162461bcd60e51b815260206004820152602260248201527f41636365737369626c653a2043616c6c6572206973206e6f7420616e2061646d60448201526134b760f11b6064820152608401610614565b6006546001600160a01b03808416911603610d3c5760405162461bcd60e51b81526004016106149060208082526004908201526373616d6560e01b604082015260600190565b6006805473ffffffffffffffffffffffffffffffffffffffff19166001600160a01b0384169081179091556040519081527f2a2bf2572e82958ab47f7049e07d49aab236a5f6d26b804b1ce51da119c6d9d09060200160405180910390a15050565b610da73361064a565b610dfe5760405162461bcd60e51b815260206004820152602260248201527f41636365737369626c653a2043616c6c6572206973206e6f7420616e2061646d60448201526134b760f11b6064820152608401610614565b6106477fdf8b4c520ffe197c5343c6f5aec59570151ef9a492f2c624fd45ddde6135ec428261068a565b610e313361064a565b610e885760405162461bcd60e51b815260206004820152602260248201527f41636365737369626c653a2043616c6c6572206973206e6f7420616e2061646d60448201526134b760f11b6064820152608401610614565b6001600160a01b038116610ede5760405162461bcd60e51b815260206004820152601860248201527f41636365737369626c653a207a65726f206164647265737300000000000000006044820152606401610614565b6001600160a01b0381163303610f365760405162461bcd60e51b815260206004820152601660248201527f41636365737369626c653a2073616d652061646d696e000000000000000000006044820152606401610614565b610f607fdf8b4c520ffe197c5343c6f5aec59570151ef9a492f2c624fd45ddde6135ec428261068a565b6106477fdf8b4c520ffe197c5343c6f5aec59570151ef9a492f2c624fd45ddde6135ec4233610a1b565b806001600160a01b038116610fc65760405162461bcd60e51b81526020600482015260026024820152612d1960f11b6044820152606401610614565b610fcf3361064a565b6110265760405162461bcd60e51b815260206004820152602260248201527f41636365737369626c653a2043616c6c6572206973206e6f7420616e2061646d60448201526134b760f11b6064820152608401610614565b6005546001600160a01b0380841661010090920416036110715760405162461bcd60e51b81526004016106149060208082526004908201526373616d6560e01b604082015260600190565b50600580546001600160a01b039092166101000274ffffffffffffffffffffffffffffffffffffffff0019909216919091179055565b826001600160a01b0381166110e35760405162461bcd60e51b81526020600482015260026024820152612d1960f11b6044820152606401610614565b6001600160a01b038085166000908152600760205260409020548591161580159061112757506001600160a01b038181166000908152600760205260409020541633145b6111815760405162461bcd60e51b815260206004820152602560248201527f63616c6c6572206973206e6f742061207661756c7441646d696e204f66206c326044820152642a37b5b2b760d91b6064820152608401610614565b600061118e868686610ae4565b6040516370a0823160e01b81523060048201529091506001600160a01b038716906370a0823190602401602060405180830381865afa1580156111d5573d6000803e3d6000fd5b505050506040513d601f19601f820116820180604052508101906111f9919061201a565b8111156112485760405162461bcd60e51b815260206004820152601760248201527f62616c616e636520697320696e73756666696369656e740000000000000000006044820152606401610614565b61125c6001600160a01b03871633836117ee565b505050505050565b6001600160a01b03808416600090815260076020526040902054849116158015906112bc57506006546001600160a01b03163314806112bc57506001600160a01b038181166000908152600760205260409020541633145b6113165760405162461bcd60e51b815260206004820152602560248201527f63616c6c6572206973206e6f742061207661756c7441646d696e204f66206c326044820152642a37b5b2b760d91b6064820152608401610614565b82516020808501919091206001600160a01b0386166000908152600883526040808220838352909352919091206004015463ffffffff161561139a5760405162461bcd60e51b815260206004820152601360248201527f616c726561647920696e697469616c697a6564000000000000000000000000006044820152606401610614565b43836060015163ffffffff16116113f35760405162461bcd60e51b815260206004820152601760248201527f666972737420636c61696d2074696d65207061737365640000000000000000006044820152606401610614565b8251158015906114065750602083015115155b801561141b575060a083015163ffffffff1615155b6114675760405162461bcd60e51b815260206004820152600b60248201527f77726f6e672076616c75650000000000000000000000000000000000000000006044820152606401610614565b6001836020015111156114d757826060015163ffffffff16836080015163ffffffff16116114d75760405162461bcd60e51b815260206004820152601b60248201527f77726f6e6720746865207365636f6e6420636c61696d2074696d6500000000006044820152606401610614565b604083015183511161152b5760405162461bcd60e51b815260206004820152601c60248201527f77726f6e672074686520666972737420636c61696d20616d6f756e74000000006044820152606401610614565b600554835161154f916001600160a01b038881169261010090920416903090611909565b6001600160a01b038516600090815260086020908152604080832084845282528083208651808255928701516001820181905560028201949094558682015160038201819055606088015160048301805460808b015160a08c015163ffffffff80861667ffffffffffffffff199094169390931764010000000084841602176fffffffffffffffff00000000000000001916600160401b938216939093026fffffffff000000000000000000000000191692909217909255945193967f2d0411b0cbf8e91232447453cc0e9bb069c954b44d45fcc0f192a537cba61ac096611643968e968e96929593949293929190612083565b60405180910390a1505050505050565b60008281526004602052604090206001015461166e81611678565b6106af838361176b565b6106478133611a25565b60008281526004602090815260408083206001600160a01b038516845290915290205460ff16610aa35760008281526004602090815260408083206001600160a01b03851684529091529020805460ff191660011790556116e03390565b6001600160a01b0316816001600160a01b0316837f2f8788117e7eff1d82e926ec794901d17c78024a50270940304540a733656f0d60405160405180910390a45050565b6106af83838360405160240161173c939291906120e1565b60408051601f198184030181529190526020810180516001600160e01b03166307e763af60e51b179052611a9a565b60008281526004602090815260408083206001600160a01b038516845290915290205460ff1615610aa35760008281526004602090815260408083206001600160a01b0385168085529252808320805460ff1916905551339285917ff6391f5c32d9c69d2a47ea670b442974b53935d1edc7fd64eb21e047a839171b9190a45050565b604080516001600160a01b038481166024830152604480830185905283518084039091018152606490920183526020820180516001600160e01b031663a9059cbb60e01b179052915160009283929087169161184a9190612114565b6000604051808303816000865af19150503d8060008114611887576040519150601f19603f3d011682016040523d82523d6000602084013e61188c565b606091505b50915091508180156118b65750805115806118b65750808060200190518101906118b69190612130565b6119025760405162461bcd60e51b815260206004820152600f60248201527f5452414e534645525f4641494c454400000000000000000000000000000000006044820152606401610614565b5050505050565b604080516001600160a01b0385811660248301528481166044830152606480830185905283518084039091018152608490920183526020820180516001600160e01b03166323b872dd60e01b179052915160009283929088169161196d9190612114565b6000604051808303816000865af19150503d80600081146119aa576040519150601f19603f3d011682016040523d82523d6000602084013e6119af565b606091505b50915091508180156119d95750805115806119d95750808060200190518101906119d99190612130565b61125c5760405162461bcd60e51b815260206004820152601460248201527f5452414e534645525f46524f4d5f4641494c45440000000000000000000000006044820152606401610614565b60008281526004602090815260408083206001600160a01b038516845290915290205460ff16610aa357611a5881611abb565b611a63836020611acd565b604051602001611a74929190612152565b60408051601f198184030181529082905262461bcd60e51b8252610614916004016121d3565b80516a636f6e736f6c652e6c6f67602083016000808483855afa5050505050565b60606105b26001600160a01b03831660145b60606000611adc836002612003565b611ae7906002611ff0565b67ffffffffffffffff811115611aff57611aff611dc9565b6040519080825280601f01601f191660200182016040528015611b29576020820181803683370190505b509050600360fc1b81600081518110611b4457611b446121e6565b60200101906001600160f81b031916908160001a905350600f60fb1b81600181518110611b7357611b736121e6565b60200101906001600160f81b031916908160001a9053506000611b97846002612003565b611ba2906001611ff0565b90505b6001811115611c27577f303132333435363738396162636465660000000000000000000000000000000085600f1660108110611be357611be36121e6565b1a60f81b828281518110611bf957611bf96121e6565b60200101906001600160f81b031916908160001a90535060049490941c93611c20816121fc565b9050611ba5565b508315610add5760405162461bcd60e51b815260206004820181905260248201527f537472696e67733a20686578206c656e67746820696e73756666696369656e746044820152606401610614565b600060208284031215611c8857600080fd5b81356001600160e01b031981168114610add57600080fd5b80356001600160a01b0381168114611cb757600080fd5b919050565b600060208284031215611cce57600080fd5b610add82611ca0565b600060208284031215611ce957600080fd5b5035919050565b60008060408385031215611d0357600080fd5b82359150611d1360208401611ca0565b90509250929050565b600080600060408486031215611d3157600080fd5b611d3a84611ca0565b9250602084013567ffffffffffffffff80821115611d5757600080fd5b818601915086601f830112611d6b57600080fd5b813581811115611d7a57600080fd5b876020828501011115611d8c57600080fd5b6020830194508093505050509250925092565b60008060408385031215611db257600080fd5b611dbb83611ca0565b9150611d1360208401611ca0565b634e487b7160e01b600052604160045260246000fd5b604051601f8201601f1916810167ffffffffffffffff81118282101715611e0857611e08611dc9565b604052919050565b803563ffffffff81168114611cb757600080fd5b600060c08284031215611e3657600080fd5b60405160c0810181811067ffffffffffffffff82111715611e5957611e59611dc9565b8060405250809150823581526020830135602082015260408301356040820152611e8560608401611e10565b6060820152611e9660808401611e10565b6080820152611ea760a08401611e10565b60a08201525092915050565b60008060006101008486031215611ec957600080fd5b611ed284611ca0565b925060208085013567ffffffffffffffff80821115611ef057600080fd5b818701915087601f830112611f0457600080fd5b813581811115611f1657611f16611dc9565b611f28601f8201601f19168501611ddf565b91508082528884828501011115611f3e57600080fd5b8084840185840137600084828401015250809450505050611f628560408601611e24565b90509250925092565b60008060408385031215611f7e57600080fd5b611f8783611ca0565b946020939093013593505050565b8183823760009101908152919050565b634e487b7160e01b600052601160045260246000fd5b818103818111156105b2576105b2611fa5565b600082611feb57634e487b7160e01b600052601260045260246000fd5b500490565b808201808211156105b2576105b2611fa5565b80820281158282048414176105b2576105b2611fa5565b60006020828403121561202c57600080fd5b5051919050565b60005b8381101561204e578181015183820152602001612036565b50506000910152565b6000815180845261206f816020860160208601612033565b601f01601f19169290920160200192915050565b60006101006001600160a01b038b1683528060208401526120a68184018b612057565b604084019990995250506060810195909552608085019390935263ffffffff91821660a0850152811660c08401521660e09091015292915050565b6060815260006120f46060830186612057565b6001600160a01b0394851660208401529290931660409091015292915050565b60008251612126818460208701612033565b9190910192915050565b60006020828403121561214257600080fd5b81518015158114610add57600080fd5b7f416363657373436f6e74726f6c3a206163636f756e742000000000000000000081526000835161218a816017850160208801612033565b7f206973206d697373696e6720726f6c652000000000000000000000000000000060179184019182015283516121c7816028840160208801612033565b01602801949350505050565b602081526000610add6020830184612057565b634e487b7160e01b600052603260045260246000fd5b60008161220b5761220b611fa5565b50600019019056fea164736f6c6343000812000a",
  "linkReferences": {},
  "deployedLinkReferences": {}
}