{
  "_format": "hh-sol-artifact-1",
  "contractName": "ProxyStorage2",
  "sourceName": "contracts/proxy/ProxyStorage2.sol",
  "abi": [
    {
      "inputs": [],
      "name": "_owner",
      "outputs": [
        {
          "internalType": "address",
          "name": "",
          "type": "address"
        }
      ],
      "stateMutability": "view",
      "type": "function"
    },
    {
      "inputs": [
        {
          "internalType": "address",
          "name": "",
          "type": "address"
        }
      ],
      "name": "aliveImplementation",
      "outputs": [
        {
          "internalType": "bool",
          "name": "",
          "type": "bool"
        }
      ],
      "stateMutability": "view",
      "type": "function"
    },
    {
      "inputs": [],
      "name": "pauseProxy",
      "outputs": [
        {
          "internalType": "bool",
          "name": "",
          "type": "bool"
        }
      ],
      "stateMutability": "view",
      "type": "function"
    },
    {
      "inputs": [
        {
          "internalType": "uint256",
          "name": "",
          "type": "uint256"
        }
      ],
      "name": "proxyImplementation",
      "outputs": [
        {
          "internalType": "address",
          "name": "",
          "type": "address"
        }
      ],
      "stateMutability": "view",
      "type": "function"
    },
    {
      "inputs": [
        {
          "internalType": "bytes4",
          "name": "",
          "type": "bytes4"
        }
      ],
      "name": "selectorImplementation",
      "outputs": [
        {
          "internalType": "address",
          "name": "",
          "type": "address"
        }
      ],
      "stateMutability": "view",
      "type": "function"
    }
  ],
  "bytecode": "0x608060405234801561001057600080fd5b506101de806100206000396000f3fe608060405234801561001057600080fd5b50600436106100675760003560e01c806363a8fd891161005057806363a8fd89146100e5578063b2bdfa7b1461010a578063b911135f1461011d57600080fd5b806350d2a2761461006c578063550d01a3146100b2575b600080fd5b61009561007a366004610146565b6003602052600090815260409020546001600160a01b031681565b6040516001600160a01b0390911681526020015b60405180910390f35b6100d56100c036600461018f565b60026020526000908152604090205460ff1681565b60405190151581526020016100a9565b6000546100d59074010000000000000000000000000000000000000000900460ff1681565b600054610095906001600160a01b031681565b61009561012b3660046101b8565b6001602052600090815260409020546001600160a01b031681565b60006020828403121561015857600080fd5b81357fffffffff000000000000000000000000000000000000000000000000000000008116811461018857600080fd5b9392505050565b6000602082840312156101a157600080fd5b81356001600160a01b038116811461018857600080fd5b6000602082840312156101ca57600080fd5b503591905056fea164736f6c6343000812000a",
  "linkReferences": {},
  "deployedLinkReferences": {}
}