{
  "_format": "hh-sol-artifact-1",
  "contractName": "L2DividendPoolForStos",
  "sourceName": "contracts/L2/airdrop/L2DividendPoolForStos.sol",
  "abi": [
    {
      "anonymous": false,
      "inputs": [
        {
          "indexed": true,
          "internalType": "address",
          "name": "token",
          "type": "address"
        },
        {
          "indexed": true,
          "internalType": "address",
          "name": "account",
          "type": "address"
        },
        {
          "indexed": false,
          "internalType": "uint256",
          "name": "amount",
          "type": "uint256"
        },
        {
          "indexed": false,
          "internalType": "uint256",
          "name": "epochNumber",
          "type": "uint256"
        },
        {
          "indexed": false,
          "internalType": "uint256",
          "name": "timestamp",
          "type": "uint256"
        }
      ],
      "name": "Claimed",
      "type": "event"
    },
    {
      "anonymous": false,
      "inputs": [
        {
          "indexed": true,
          "internalType": "address",
          "name": "token",
          "type": "address"
        },
        {
          "indexed": false,
          "internalType": "uint256",
          "name": "wekklyEpoch",
          "type": "uint256"
        },
        {
          "indexed": false,
          "internalType": "uint256",
          "name": "amount",
          "type": "uint256"
        }
      ],
      "name": "Distributed",
      "type": "event"
    },
    {
      "anonymous": false,
      "inputs": [
        {
          "indexed": true,
          "internalType": "address",
          "name": "token",
          "type": "address"
        },
        {
          "indexed": false,
          "internalType": "uint256",
          "name": "oldEpoch",
          "type": "uint256"
        },
        {
          "indexed": false,
          "internalType": "uint256",
          "name": "newEpoch",
          "type": "uint256"
        },
        {
          "indexed": false,
          "internalType": "uint256",
          "name": "amount",
          "type": "uint256"
        }
      ],
      "name": "Redistributed",
      "type": "event"
    },
    {
      "anonymous": false,
      "inputs": [
        {
          "indexed": true,
          "internalType": "bytes32",
          "name": "role",
          "type": "bytes32"
        },
        {
          "indexed": true,
          "internalType": "bytes32",
          "name": "previousAdminRole",
          "type": "bytes32"
        },
        {
          "indexed": true,
          "internalType": "bytes32",
          "name": "newAdminRole",
          "type": "bytes32"
        }
      ],
      "name": "RoleAdminChanged",
      "type": "event"
    },
    {
      "anonymous": false,
      "inputs": [
        {
          "indexed": true,
          "internalType": "bytes32",
          "name": "role",
          "type": "bytes32"
        },
        {
          "indexed": true,
          "internalType": "address",
          "name": "account",
          "type": "address"
        },
        {
          "indexed": true,
          "internalType": "address",
          "name": "sender",
          "type": "address"
        }
      ],
      "name": "RoleGranted",
      "type": "event"
    },
    {
      "anonymous": false,
      "inputs": [
        {
          "indexed": true,
          "internalType": "bytes32",
          "name": "role",
          "type": "bytes32"
        },
        {
          "indexed": true,
          "internalType": "address",
          "name": "account",
          "type": "address"
        },
        {
          "indexed": true,
          "internalType": "address",
          "name": "sender",
          "type": "address"
        }
      ],
      "name": "RoleRevoked",
      "type": "event"
    },
    {
      "inputs": [],
      "name": "ADMIN_ROLE",
      "outputs": [
        {
          "internalType": "bytes32",
          "name": "",
          "type": "bytes32"
        }
      ],
      "stateMutability": "view",
      "type": "function"
    },
    {
      "inputs": [],
      "name": "DEFAULT_ADMIN_ROLE",
      "outputs": [
        {
          "internalType": "bytes32",
          "name": "",
          "type": "bytes32"
        }
      ],
      "stateMutability": "view",
      "type": "function"
    },
    {
      "inputs": [],
      "name": "POLICY_ROLE",
      "outputs": [
        {
          "internalType": "bytes32",
          "name": "",
          "type": "bytes32"
        }
      ],
      "stateMutability": "view",
      "type": "function"
    },
    {
      "inputs": [
        {
          "internalType": "address",
          "name": "account",
          "type": "address"
        }
      ],
      "name": "addAdmin",
      "outputs": [],
      "stateMutability": "nonpayable",
      "type": "function"
    },
    {
      "inputs": [
        {
          "internalType": "address",
          "name": "",
          "type": "address"
        }
      ],
      "name": "aliveImplementation",
      "outputs": [
        {
          "internalType": "bool",
          "name": "",
          "type": "bool"
        }
      ],
      "stateMutability": "view",
      "type": "function"
    },
    {
      "inputs": [
        {
          "internalType": "address",
          "name": "_account",
          "type": "address"
        },
        {
          "internalType": "uint256",
          "name": "_timestamp",
          "type": "uint256"
        },
        {
          "internalType": "uint256",
          "name": "_tokensPerWeek",
          "type": "uint256"
        }
      ],
      "name": "calculateClaimPerEpoch",
      "outputs": [
        {
          "internalType": "uint256",
          "name": "",
          "type": "uint256"
        }
      ],
      "stateMutability": "view",
      "type": "function"
    },
    {
      "inputs": [
        {
          "internalType": "address",
          "name": "_token",
          "type": "address"
        }
      ],
      "name": "claim",
      "outputs": [],
      "stateMutability": "nonpayable",
      "type": "function"
    },
    {
      "inputs": [
        {
          "internalType": "address[]",
          "name": "_tokens",
          "type": "address[]"
        }
      ],
      "name": "claimBatch",
      "outputs": [],
      "stateMutability": "nonpayable",
      "type": "function"
    },
    {
      "inputs": [
        {
          "internalType": "address",
          "name": "_token",
          "type": "address"
        },
        {
          "internalType": "uint256",
          "name": "_timestamp",
          "type": "uint256"
        }
      ],
      "name": "claimUpTo",
      "outputs": [],
      "stateMutability": "nonpayable",
      "type": "function"
    },
    {
      "inputs": [
        {
          "internalType": "address",
          "name": "_account",
          "type": "address"
        },
        {
          "internalType": "address",
          "name": "_token",
          "type": "address"
        }
      ],
      "name": "claimable",
      "outputs": [
        {
          "internalType": "uint256",
          "name": "",
          "type": "uint256"
        }
      ],
      "stateMutability": "view",
      "type": "function"
    },
    {
      "inputs": [
        {
          "internalType": "address",
          "name": "_token",
          "type": "address"
        },
        {
          "internalType": "uint256",
          "name": "_amount",
          "type": "uint256"
        }
      ],
      "name": "distribute",
      "outputs": [],
      "stateMutability": "nonpayable",
      "type": "function"
    },
    {
      "inputs": [
        {
          "internalType": "uint256",
          "name": "",
          "type": "uint256"
        }
      ],
      "name": "distributedTokens",
      "outputs": [
        {
          "internalType": "address",
          "name": "",
          "type": "address"
        }
      ],
      "stateMutability": "view",
      "type": "function"
    },
    {
      "inputs": [
        {
          "internalType": "address",
          "name": "",
          "type": "address"
        }
      ],
      "name": "distributions",
      "outputs": [
        {
          "internalType": "bool",
          "name": "exists",
          "type": "bool"
        },
        {
          "internalType": "uint256",
          "name": "totalDistribution",
          "type": "uint256"
        },
        {
          "internalType": "uint256",
          "name": "lastBalance",
          "type": "uint256"
        }
      ],
      "stateMutability": "view",
      "type": "function"
    },
    {
      "inputs": [],
      "name": "epochUnit",
      "outputs": [
        {
          "internalType": "uint256",
          "name": "",
          "type": "uint256"
        }
      ],
      "stateMutability": "view",
      "type": "function"
    },
    {
      "inputs": [
        {
          "internalType": "address",
          "name": "",
          "type": "address"
        }
      ],
      "name": "genesis",
      "outputs": [
        {
          "internalType": "uint256",
          "name": "",
          "type": "uint256"
        }
      ],
      "stateMutability": "view",
      "type": "function"
    },
    {
      "inputs": [
        {
          "internalType": "address",
          "name": "_account",
          "type": "address"
        }
      ],
      "name": "getAvailableClaims",
      "outputs": [
        {
          "internalType": "address[]",
          "name": "tokens",
          "type": "address[]"
        },
        {
          "internalType": "uint256[]",
          "name": "claimableAmounts",
          "type": "uint256[]"
        }
      ],
      "stateMutability": "view",
      "type": "function"
    },
    {
      "inputs": [
        {
          "internalType": "address",
          "name": "_token",
          "type": "address"
        }
      ],
      "name": "getCurrentWeeklyEpochTimestamp",
      "outputs": [
        {
          "internalType": "uint256",
          "name": "",
          "type": "uint256"
        }
      ],
      "stateMutability": "view",
      "type": "function"
    },
    {
      "inputs": [
        {
          "internalType": "bytes32",
          "name": "role",
          "type": "bytes32"
        }
      ],
      "name": "getRoleAdmin",
      "outputs": [
        {
          "internalType": "bytes32",
          "name": "",
          "type": "bytes32"
        }
      ],
      "stateMutability": "view",
      "type": "function"
    },
    {
      "inputs": [
        {
          "internalType": "address",
          "name": "_token",
          "type": "address"
        },
        {
          "internalType": "uint256",
          "name": "_timestamp",
          "type": "uint256"
        }
      ],
      "name": "getWeeklyEpoch",
      "outputs": [
        {
          "internalType": "uint256",
          "name": "",
          "type": "uint256"
        }
      ],
      "stateMutability": "view",
      "type": "function"
    },
    {
      "inputs": [
        {
          "internalType": "bytes32",
          "name": "role",
          "type": "bytes32"
        },
        {
          "internalType": "address",
          "name": "account",
          "type": "address"
        }
      ],
      "name": "grantRole",
      "outputs": [],
      "stateMutability": "nonpayable",
      "type": "function"
    },
    {
      "inputs": [
        {
          "internalType": "bytes32",
          "name": "role",
          "type": "bytes32"
        },
        {
          "internalType": "address",
          "name": "account",
          "type": "address"
        }
      ],
      "name": "hasRole",
      "outputs": [
        {
          "internalType": "bool",
          "name": "",
          "type": "bool"
        }
      ],
      "stateMutability": "view",
      "type": "function"
    },
    {
      "inputs": [
        {
          "internalType": "address",
          "name": "_universalStos",
          "type": "address"
        },
        {
          "internalType": "uint256",
          "name": "_epochUnit",
          "type": "uint256"
        }
      ],
      "name": "initialize",
      "outputs": [],
      "stateMutability": "nonpayable",
      "type": "function"
    },
    {
      "inputs": [
        {
          "internalType": "address",
          "name": "account",
          "type": "address"
        }
      ],
      "name": "isAdmin",
      "outputs": [
        {
          "internalType": "bool",
          "name": "",
          "type": "bool"
        }
      ],
      "stateMutability": "view",
      "type": "function"
    },
    {
      "inputs": [],
      "name": "pauseProxy",
      "outputs": [
        {
          "internalType": "bool",
          "name": "",
          "type": "bool"
        }
      ],
      "stateMutability": "view",
      "type": "function"
    },
    {
      "inputs": [
        {
          "internalType": "uint256",
          "name": "",
          "type": "uint256"
        }
      ],
      "name": "proxyImplementation",
      "outputs": [
        {
          "internalType": "address",
          "name": "",
          "type": "address"
        }
      ],
      "stateMutability": "view",
      "type": "function"
    },
    {
      "inputs": [
        {
          "internalType": "address",
          "name": "_token",
          "type": "address"
        },
        {
          "internalType": "uint256",
          "name": "_weeklyEpoch",
          "type": "uint256"
        }
      ],
      "name": "redistribute",
      "outputs": [],
      "stateMutability": "nonpayable",
      "type": "function"
    },
    {
      "inputs": [
        {
          "internalType": "address",
          "name": "account",
          "type": "address"
        }
      ],
      "name": "removeAdmin",
      "outputs": [],
      "stateMutability": "nonpayable",
      "type": "function"
    },
    {
      "inputs": [
        {
          "internalType": "bytes32",
          "name": "role",
          "type": "bytes32"
        },
        {
          "internalType": "address",
          "name": "account",
          "type": "address"
        }
      ],
      "name": "renounceRole",
      "outputs": [],
      "stateMutability": "nonpayable",
      "type": "function"
    },
    {
      "inputs": [
        {
          "internalType": "bytes32",
          "name": "role",
          "type": "bytes32"
        },
        {
          "internalType": "address",
          "name": "account",
          "type": "address"
        }
      ],
      "name": "revokeRole",
      "outputs": [],
      "stateMutability": "nonpayable",
      "type": "function"
    },
    {
      "inputs": [
        {
          "internalType": "bytes4",
          "name": "",
          "type": "bytes4"
        }
      ],
      "name": "selectorImplementation",
      "outputs": [
        {
          "internalType": "address",
          "name": "",
          "type": "address"
        }
      ],
      "stateMutability": "view",
      "type": "function"
    },
    {
      "inputs": [
        {
          "internalType": "bytes4",
          "name": "interfaceId",
          "type": "bytes4"
        }
      ],
      "name": "supportsInterface",
      "outputs": [
        {
          "internalType": "bool",
          "name": "",
          "type": "bool"
        }
      ],
      "stateMutability": "view",
      "type": "function"
    },
    {
      "inputs": [
        {
          "internalType": "address",
          "name": "_token",
          "type": "address"
        },
        {
          "internalType": "uint256",
          "name": "_timestamp",
          "type": "uint256"
        }
      ],
      "name": "tokensPerWeekAt",
      "outputs": [
        {
          "internalType": "uint256",
          "name": "epochNumber",
          "type": "uint256"
        },
        {
          "internalType": "uint256",
          "name": "amount",
          "type": "uint256"
        }
      ],
      "stateMutability": "view",
      "type": "function"
    },
    {
      "inputs": [
        {
          "internalType": "address",
          "name": "newAdmin",
          "type": "address"
        }
      ],
      "name": "transferAdmin",
      "outputs": [],
      "stateMutability": "nonpayable",
      "type": "function"
    },
    {
      "inputs": [],
      "name": "universalStos",
      "outputs": [
        {
          "internalType": "address",
          "name": "",
          "type": "address"
        }
      ],
      "stateMutability": "view",
      "type": "function"
    }
  ],
  "bytecode": "0x608060405234801561001057600080fd5b5061218d806100206000396000f3fe608060405234801561001057600080fd5b50600436106102265760003560e01c806375b238fc1161012a578063cd6dc687116100bd578063e1de599b1161008c578063efb93e9611610071578063efb93e96146105ab578063fb932108146105be578063fd2dcecf146105d157600080fd5b8063e1de599b14610585578063e3ba18a51461059857600080fd5b8063cd6dc68714610539578063d4570c1c1461054c578063d4abe7171461055f578063d547741f1461057257600080fd5b80639353b9df116100f95780639353b9df146104a5578063a217fddf146104f5578063b911135f146104fd578063c83d3c471461052657600080fd5b806375b238fc146103fd57806377222509146104245780637b7eb2e21461044457806391d148541461046c57600080fd5b8063324fb13b116101bd578063550d01a31161018c57806363a8fd891161017157806363a8fd89146103ca57806370480275146103d757806375829def146103ea57600080fd5b8063550d01a31461038657806362e40c24146103a957600080fd5b8063324fb13b1461030c57806336568abe1461031f57806337a155031461033257806350d2a2761461035d57600080fd5b8063248a9ca3116101f9578063248a9ca3146102b057806324d7806c146102d35780632f2ff15d146102e6578063324cd9b1146102f957600080fd5b806301ffc9a71461022b5780631785f53c146102535780631e83409a14610268578063229852461461027b575b600080fd5b61023e610239366004611d5a565b6105da565b60405190151581526020015b60405180910390f35b610266610261366004611da0565b610611565b005b610266610276366004611da0565b6106a3565b6102a27ffb5864e8ff833c3cb2d2d08505e82ff02a43554c74a35d4f5a64e8526127831181565b60405190815260200161024a565b6102a26102be366004611dbb565b60009081526004602052604090206001015490565b61023e6102e1366004611da0565b6106b5565b6102666102f4366004611dd4565b6106f5565b6102a2610307366004611e00565b61071f565b6102a261031a366004611e2a565b610776565b61026661032d366004611dd4565b6108a0565b610345610340366004611dbb565b61092c565b6040516001600160a01b03909116815260200161024a565b61034561036b366004611d5a565b6003602052600090815260409020546001600160a01b031681565b61023e610394366004611da0565b60026020526000908152604090205460ff1681565b6103bc6103b7366004611da0565b610956565b60405161024a929190611e5d565b60005461023e9060ff1681565b6102666103e5366004611da0565b610a7a565b6102666103f8366004611da0565b610b04565b6102a27fdf8b4c520ffe197c5343c6f5aec59570151ef9a492f2c624fd45ddde6135ec4281565b6102a2610432366004611da0565b60076020526000908152604090205481565b610457610452366004611e00565b610c66565b6040805192835260208301919091520161024a565b61023e61047a366004611dd4565b60009182526004602090815260408084206001600160a01b0393909316845291905290205460ff1690565b6104d86104b3366004611da0565b60086020526000908152604090208054600182015460029092015460ff909116919083565b60408051931515845260208401929092529082015260600161024a565b6102a2600081565b61034561050b366004611dbb565b6001602052600090815260409020546001600160a01b031681565b600554610345906001600160a01b031681565b610266610547366004611e00565b610ca4565b6102a261055a366004611ee1565b610d37565b61026661056d366004611f0b565b610db4565b610266610580366004611dd4565b610df9565b610266610593366004611e00565b610e1e565b6102666105a6366004611e00565b6110e9565b6102a26105b9366004611da0565b611395565b6102666105cc366004611e00565b6113ee565b6102a260065481565b60006001600160e01b03198216637965db0b60e01b148061060b57506301ffc9a760e01b6001600160e01b03198316145b92915050565b61061a336106b5565b6106765760405162461bcd60e51b815260206004820152602260248201527f41636365737369626c653a2043616c6c6572206973206e6f7420616e2061646d60448201526134b760f11b60648201526084015b60405180910390fd5b6106a07fdf8b4c520ffe197c5343c6f5aec59570151ef9a492f2c624fd45ddde6135ec42826108a0565b50565b6106a081600654426105a69190611f96565b6001600160a01b03811660009081527f2fb794d17134dfdec181ddbac1babb5ab1eb140204ef4d982f294e7fc8b69022602052604081205460ff1661060b565b600082815260046020526040902060010154610710816116c3565b61071a83836116cd565b505050565b6001600160a01b03821660009081526007602052604081205480820361074957600091505061060b565b80831161075757600061076e565b6006546107648285611f96565b61076e9190611fa9565b949350505050565b60055460405163277166bf60e11b81526001600160a01b038581166004830152602482018590526000928392911690634ee2cd7e90604401602060405180830381865afa1580156107cb573d6000803e3d6000fd5b505050506040513d601f19601f820116820180604052508101906107ef9190611fcb565b600554604051630981b24d60e41b8152600481018790529192506000916001600160a01b039091169063981b24d090602401602060405180830381865afa15801561083e573d6000803e3d6000fd5b505050506040513d601f19601f820116820180604052508101906108629190611fcb565b905081158061086f575080155b1561087f57600092505050610899565b8061088a8386611fe4565b6108949190611fa9565b925050505b9392505050565b6001600160a01b038116331461091e5760405162461bcd60e51b815260206004820152602f60248201527f416363657373436f6e74726f6c3a2063616e206f6e6c792072656e6f756e636560448201527f20726f6c657320666f722073656c660000000000000000000000000000000000606482015260840161066d565b610928828261176f565b5050565b600b818154811061093c57600080fd5b6000918252602090912001546001600160a01b0316905081565b6060806000600b8054905067ffffffffffffffff81111561097957610979611ffb565b6040519080825280602002602001820160405280156109a2578160200160208202803683370190505b50905060005b600b54811015610a10576109e385600b83815481106109c9576109c9612011565b6000918252602090912001546001600160a01b0316610d37565b8282815181106109f5576109f5612011565b6020908102919091010152610a0981612027565b90506109a8565b50600b8181805480602002602001604051908101604052809291908181526020018280548015610a6957602002820191906000526020600020905b81546001600160a01b03168152600190910190602001808311610a4b575b505050505091509250925050915091565b610a83336106b5565b610ada5760405162461bcd60e51b815260206004820152602260248201527f41636365737369626c653a2043616c6c6572206973206e6f7420616e2061646d60448201526134b760f11b606482015260840161066d565b6106a07fdf8b4c520ffe197c5343c6f5aec59570151ef9a492f2c624fd45ddde6135ec42826106f5565b610b0d336106b5565b610b645760405162461bcd60e51b815260206004820152602260248201527f41636365737369626c653a2043616c6c6572206973206e6f7420616e2061646d60448201526134b760f11b606482015260840161066d565b6001600160a01b038116610bba5760405162461bcd60e51b815260206004820152601860248201527f41636365737369626c653a207a65726f20616464726573730000000000000000604482015260640161066d565b6001600160a01b0381163303610c125760405162461bcd60e51b815260206004820152601660248201527f41636365737369626c653a2073616d652061646d696e00000000000000000000604482015260640161066d565b610c3c7fdf8b4c520ffe197c5343c6f5aec59570151ef9a492f2c624fd45ddde6135ec42826106f5565b6106a07fdf8b4c520ffe197c5343c6f5aec59570151ef9a492f2c624fd45ddde6135ec42336108a0565b6000806000610c75858561071f565b6001600160a01b0395909516600090815260096020908152604080832088845290915290205494959350505050565b610cad336106b5565b610d045760405162461bcd60e51b815260206004820152602260248201527f41636365737369626c653a2043616c6c6572206973206e6f7420616e2061646d60448201526134b760f11b606482015260840161066d565b6005805473ffffffffffffffffffffffffffffffffffffffff19166001600160a01b039390931692909217909155600655565b6001600160a01b038116600090815260076020526040812054808203610d6157600091505061060b565b6000610d7584600654426103079190611f96565b6001600160a01b038086166000908152600a60209081526040808320938a1683529290522054909150610daa868683856117f2565b9695505050505050565b60005b8181101561071a57610de9838383818110610dd457610dd4612011565b90506020020160208101906102769190611da0565b610df281612027565b9050610db7565b600082815260046020526040902060010154610e14816116c3565b61071a838361176f565b816001600160a01b038116610e645760405162461bcd60e51b815260206004820152600c60248201526b7a65726f206164647265737360a01b604482015260640161066d565b600c5460ff1615610ea85760405162461bcd60e51b815260206004820152600e60248201526d616c726561647920696e2075736560901b604482015260640161066d565b600c805460ff191660011790556000610ec1844261071f565b9050808310610f385760405162461bcd60e51b815260206004820152602b60248201527f49742063616e206f6e6c7920626520736574206966206974206973207468652060448201527f6c6173742065706f63682e000000000000000000000000000000000000000000606482015260840161066d565b600654600090610f488186611fe4565b6001600160a01b038716600090815260076020526040902054610f6b9190612040565b610f759190612040565b600554604051630981b24d60e41b8152600481018390529192506001600160a01b03169063981b24d090602401602060405180830381865afa158015610fbf573d6000803e3d6000fd5b505050506040513d601f19601f82011682018060405250810190610fe39190611fcb565b156110305760405162461bcd60e51b815260206004820152601b60248201527f546f6b656e2065786973747320666f7220746861742065706f63680000000000604482015260640161066d565b6001600160a01b03851660009081526009602090815260408083208784529091528082205484835290822080549192839261106c908490612040565b90915550506001600160a01b038616600081815260096020908152604080832089845282528083209290925581518881529081018690529081018390527f1cb7f4652f6aadb7311647870434938dd368ea922f1c0a01b8cfad68df3e6975906060015b60405180910390a25050600c805460ff1916905550505050565b6001600160a01b03821660009081526007602052604081205490036111505760405162461bcd60e51b815260206004820152600f60248201527f67656e65736973206973207a65726f0000000000000000000000000000000000604482015260640161066d565b6006546001600160a01b0383166000908152600760205260409020546111769190612040565b4210156111c55760405162461bcd60e51b815260206004820152600f60248201527f7468652066697273742065706f63680000000000000000000000000000000000604482015260640161066d565b60006111de82600654426111d99190611f96565b6118d5565b905060006111ec848361071f565b6001600160a01b0385166000908152600a602090815260408083203380855292528220549293509091611221918791856117f2565b9050600081116112735760405162461bcd60e51b815260206004820152601460248201527f6e6f20636c61696d61626c6520616d6c6f756e74000000000000000000000000604482015260640161066d565b6001600160a01b038516600090815260086020526040902060028101548211156112df5760405162461bcd60e51b815260206004820152601460248201527f696e73756666696369656e742062616c616e6365000000000000000000000000604482015260640161066d565b6112ea836001612040565b6001600160a01b0387166000908152600a60209081526040808320338452909152812091909155600282018054849290611325908490611f96565b9091555061133f90506001600160a01b03871633846118eb565b604080518381526020810185905290810186905233906001600160a01b038816907fd795915374024be1f03204e052bd584b33bb85c9128ede9c54adbe0bbdc220959060600160405180910390a3505050505050565b6001600160a01b0381166000908152600760205260408120548082036113be5750600092915050565b60006113ca844261071f565b6006549091506113da8183611fe4565b6113e49084612040565b61076e9190612040565b808060000361142c5760405162461bcd60e51b815260206004820152600a6024820152697a65726f2076616c756560b01b604482015260640161066d565b826001600160a01b0381166114725760405162461bcd60e51b815260206004820152600c60248201526b7a65726f206164647265737360a01b604482015260640161066d565b600c5460ff16156114b65760405162461bcd60e51b815260206004820152600e60248201526d616c726561647920696e2075736560901b604482015260640161066d565b600c805460ff191660011790556001600160a01b0384166000908152600760205260408120549003611513576006546114ef8142611fa9565b6114f99190611fe4565b6001600160a01b0385166000908152600760205260409020555b600061151f854261071f565b6001600160a01b038616600090815260086020526040812080549293509160ff16151590036115a157600b80546001810182556000919091527f0175b7a638427703f0dbe7bb9bbf987a2551717b34e79f33b5b1008d1fa01db901805473ffffffffffffffffffffffffffffffffffffffff19166001600160a01b0388161790555b805460ff191660011781556115c16001600160a01b038716333088611a06565b6040516370a0823160e01b81523060048201526001600160a01b038716906370a0823190602401602060405180830381865afa158015611605573d6000803e3d6000fd5b505050506040513d601f19601f820116820180604052508101906116299190611fcb565b8160020181905550848160010160008282546116459190612040565b90915550506001600160a01b03861660009081526009602090815260408083208584529091528120805487929061167d908490612040565b909155505060408051838152602081018790526001600160a01b038816917f60ce3cc2d133631eac66a476f14997a9fa682bd05a60dd993cf02285822d78d891016110cf565b6106a08133611b2a565b60008281526004602090815260408083206001600160a01b038516845290915290205460ff166109285760008281526004602090815260408083206001600160a01b03851684529091529020805460ff1916600117905561172b3390565b6001600160a01b0316816001600160a01b0316837f2f8788117e7eff1d82e926ec794901d17c78024a50270940304540a733656f0d60405160405180910390a45050565b60008281526004602090815260408083206001600160a01b038516845290915290205460ff16156109285760008281526004602090815260408083206001600160a01b0385168085529252808320805460ff1916905551339285917ff6391f5c32d9c69d2a47ea670b442974b53935d1edc7fd64eb21e047a839171b9190a45050565b6000818311156118045750600061076e565b6001600160a01b038516600090815260076020526040902054835b8385116118cb576001600160a01b03871660009081526009602090815260408083208484529091529020541580159061185757508115155b156118b9576006546118ac90879061186f8185611fe4565b6118799086612040565b6118839190612040565b6001600160a01b038a166000908152600960209081526040808320878452909152902054610776565b6118b69084612040565b92505b806118c381612027565b91505061181f565b5050949350505050565b60008183106118e45781610899565b5090919050565b604080516001600160a01b038481166024830152604480830185905283518084039091018152606490920183526020820180516001600160e01b031663a9059cbb60e01b17905291516000928392908716916119479190612077565b6000604051808303816000865af19150503d8060008114611984576040519150601f19603f3d011682016040523d82523d6000602084013e611989565b606091505b50915091508180156119b35750805115806119b35750808060200190518101906119b39190612093565b6119ff5760405162461bcd60e51b815260206004820152600f60248201527f5452414e534645525f4641494c45440000000000000000000000000000000000604482015260640161066d565b5050505050565b604080516001600160a01b0385811660248301528481166044830152606480830185905283518084039091018152608490920183526020820180516001600160e01b03166323b872dd60e01b1790529151600092839290881691611a6a9190612077565b6000604051808303816000865af19150503d8060008114611aa7576040519150601f19603f3d011682016040523d82523d6000602084013e611aac565b606091505b5091509150818015611ad6575080511580611ad6575080806020019051810190611ad69190612093565b611b225760405162461bcd60e51b815260206004820152601460248201527f5452414e534645525f46524f4d5f4641494c4544000000000000000000000000604482015260640161066d565b505050505050565b60008281526004602090815260408083206001600160a01b038516845290915290205460ff1661092857611b5d81611b9f565b611b68836020611bb1565b604051602001611b799291906120b5565b60408051601f198184030181529082905262461bcd60e51b825261066d91600401612136565b606061060b6001600160a01b03831660145b60606000611bc0836002611fe4565b611bcb906002612040565b67ffffffffffffffff811115611be357611be3611ffb565b6040519080825280601f01601f191660200182016040528015611c0d576020820181803683370190505b509050600360fc1b81600081518110611c2857611c28612011565b60200101906001600160f81b031916908160001a905350600f60fb1b81600181518110611c5757611c57612011565b60200101906001600160f81b031916908160001a9053506000611c7b846002611fe4565b611c86906001612040565b90505b6001811115611d0b577f303132333435363738396162636465660000000000000000000000000000000085600f1660108110611cc757611cc7612011565b1a60f81b828281518110611cdd57611cdd612011565b60200101906001600160f81b031916908160001a90535060049490941c93611d0481612169565b9050611c89565b5083156108995760405162461bcd60e51b815260206004820181905260248201527f537472696e67733a20686578206c656e67746820696e73756666696369656e74604482015260640161066d565b600060208284031215611d6c57600080fd5b81356001600160e01b03198116811461089957600080fd5b80356001600160a01b0381168114611d9b57600080fd5b919050565b600060208284031215611db257600080fd5b61089982611d84565b600060208284031215611dcd57600080fd5b5035919050565b60008060408385031215611de757600080fd5b82359150611df760208401611d84565b90509250929050565b60008060408385031215611e1357600080fd5b611e1c83611d84565b946020939093013593505050565b600080600060608486031215611e3f57600080fd5b611e4884611d84565b95602085013595506040909401359392505050565b604080825283519082018190526000906020906060840190828701845b82811015611e9f5781516001600160a01b031684529284019290840190600101611e7a565b5050508381038285015284518082528583019183019060005b81811015611ed457835183529284019291840191600101611eb8565b5090979650505050505050565b60008060408385031215611ef457600080fd5b611efd83611d84565b9150611df760208401611d84565b60008060208385031215611f1e57600080fd5b823567ffffffffffffffff80821115611f3657600080fd5b818501915085601f830112611f4a57600080fd5b813581811115611f5957600080fd5b8660208260051b8501011115611f6e57600080fd5b60209290920196919550909350505050565b634e487b7160e01b600052601160045260246000fd5b8181038181111561060b5761060b611f80565b600082611fc657634e487b7160e01b600052601260045260246000fd5b500490565b600060208284031215611fdd57600080fd5b5051919050565b808202811582820484141761060b5761060b611f80565b634e487b7160e01b600052604160045260246000fd5b634e487b7160e01b600052603260045260246000fd5b60006001820161203957612039611f80565b5060010190565b8082018082111561060b5761060b611f80565b60005b8381101561206e578181015183820152602001612056565b50506000910152565b60008251612089818460208701612053565b9190910192915050565b6000602082840312156120a557600080fd5b8151801515811461089957600080fd5b7f416363657373436f6e74726f6c3a206163636f756e74200000000000000000008152600083516120ed816017850160208801612053565b7f206973206d697373696e6720726f6c6520000000000000000000000000000000601791840191820152835161212a816028840160208801612053565b01602801949350505050565b6020815260008251806020840152612155816040850160208701612053565b601f01601f19169190910160400192915050565b60008161217857612178611f80565b50600019019056fea164736f6c6343000812000a",
  "linkReferences": {},
  "deployedLinkReferences": {}
}