{
  "_format": "hh-sol-artifact-1",
  "contractName": "L2DividendPoolForStos",
  "sourceName": "contracts/L2/airdrop/L2DividendPoolForStos.sol",
  "abi": [
    {
      "anonymous": false,
      "inputs": [
        {
          "indexed": true,
          "internalType": "address",
          "name": "token",
          "type": "address"
        },
        {
          "indexed": true,
          "internalType": "address",
          "name": "account",
          "type": "address"
        },
        {
          "indexed": false,
          "internalType": "uint256",
          "name": "amount",
          "type": "uint256"
        },
        {
          "indexed": false,
          "internalType": "uint256",
          "name": "epochNumber",
          "type": "uint256"
        },
        {
          "indexed": false,
          "internalType": "uint256",
          "name": "timestamp",
          "type": "uint256"
        }
      ],
      "name": "Claimed",
      "type": "event"
    },
    {
      "anonymous": false,
      "inputs": [
        {
          "indexed": true,
          "internalType": "address",
          "name": "token",
          "type": "address"
        },
        {
          "indexed": false,
          "internalType": "uint256",
          "name": "wekklyEpoch",
          "type": "uint256"
        },
        {
          "indexed": false,
          "internalType": "uint256",
          "name": "amount",
          "type": "uint256"
        }
      ],
      "name": "Distributed",
      "type": "event"
    },
    {
      "anonymous": false,
      "inputs": [
        {
          "indexed": true,
          "internalType": "address",
          "name": "token",
          "type": "address"
        },
        {
          "indexed": false,
          "internalType": "uint256",
          "name": "oldEpoch",
          "type": "uint256"
        },
        {
          "indexed": false,
          "internalType": "uint256",
          "name": "newEpoch",
          "type": "uint256"
        },
        {
          "indexed": false,
          "internalType": "uint256",
          "name": "amount",
          "type": "uint256"
        }
      ],
      "name": "Redistributed",
      "type": "event"
    },
    {
      "anonymous": false,
      "inputs": [
        {
          "indexed": true,
          "internalType": "bytes32",
          "name": "role",
          "type": "bytes32"
        },
        {
          "indexed": true,
          "internalType": "bytes32",
          "name": "previousAdminRole",
          "type": "bytes32"
        },
        {
          "indexed": true,
          "internalType": "bytes32",
          "name": "newAdminRole",
          "type": "bytes32"
        }
      ],
      "name": "RoleAdminChanged",
      "type": "event"
    },
    {
      "anonymous": false,
      "inputs": [
        {
          "indexed": true,
          "internalType": "bytes32",
          "name": "role",
          "type": "bytes32"
        },
        {
          "indexed": true,
          "internalType": "address",
          "name": "account",
          "type": "address"
        },
        {
          "indexed": true,
          "internalType": "address",
          "name": "sender",
          "type": "address"
        }
      ],
      "name": "RoleGranted",
      "type": "event"
    },
    {
      "anonymous": false,
      "inputs": [
        {
          "indexed": true,
          "internalType": "bytes32",
          "name": "role",
          "type": "bytes32"
        },
        {
          "indexed": true,
          "internalType": "address",
          "name": "account",
          "type": "address"
        },
        {
          "indexed": true,
          "internalType": "address",
          "name": "sender",
          "type": "address"
        }
      ],
      "name": "RoleRevoked",
      "type": "event"
    },
    {
      "inputs": [],
      "name": "ADMIN_ROLE",
      "outputs": [
        {
          "internalType": "bytes32",
          "name": "",
          "type": "bytes32"
        }
      ],
      "stateMutability": "view",
      "type": "function"
    },
    {
      "inputs": [],
      "name": "DEFAULT_ADMIN_ROLE",
      "outputs": [
        {
          "internalType": "bytes32",
          "name": "",
          "type": "bytes32"
        }
      ],
      "stateMutability": "view",
      "type": "function"
    },
    {
      "inputs": [],
      "name": "POLICY_ROLE",
      "outputs": [
        {
          "internalType": "bytes32",
          "name": "",
          "type": "bytes32"
        }
      ],
      "stateMutability": "view",
      "type": "function"
    },
    {
      "inputs": [
        {
          "internalType": "address",
          "name": "account",
          "type": "address"
        }
      ],
      "name": "addAdmin",
      "outputs": [],
      "stateMutability": "nonpayable",
      "type": "function"
    },
    {
      "inputs": [
        {
          "internalType": "address",
          "name": "",
          "type": "address"
        }
      ],
      "name": "aliveImplementation",
      "outputs": [
        {
          "internalType": "bool",
          "name": "",
          "type": "bool"
        }
      ],
      "stateMutability": "view",
      "type": "function"
    },
    {
      "inputs": [
        {
          "internalType": "address",
          "name": "_account",
          "type": "address"
        },
        {
          "internalType": "uint256",
          "name": "_timestamp",
          "type": "uint256"
        },
        {
          "internalType": "uint256",
          "name": "_tokensPerWeek",
          "type": "uint256"
        }
      ],
      "name": "calculateClaimPerEpoch",
      "outputs": [
        {
          "internalType": "uint256",
          "name": "",
          "type": "uint256"
        }
      ],
      "stateMutability": "view",
      "type": "function"
    },
    {
      "inputs": [
        {
          "internalType": "address",
          "name": "_token",
          "type": "address"
        }
      ],
      "name": "claim",
      "outputs": [],
      "stateMutability": "nonpayable",
      "type": "function"
    },
    {
      "inputs": [
        {
          "internalType": "address[]",
          "name": "_tokens",
          "type": "address[]"
        }
      ],
      "name": "claimBatch",
      "outputs": [],
      "stateMutability": "nonpayable",
      "type": "function"
    },
    {
      "inputs": [
        {
          "internalType": "address",
          "name": "_token",
          "type": "address"
        },
        {
          "internalType": "uint256",
          "name": "_timestamp",
          "type": "uint256"
        }
      ],
      "name": "claimUpTo",
      "outputs": [],
      "stateMutability": "nonpayable",
      "type": "function"
    },
    {
      "inputs": [
        {
          "internalType": "address",
          "name": "_account",
          "type": "address"
        },
        {
          "internalType": "address",
          "name": "_token",
          "type": "address"
        }
      ],
      "name": "claimable",
      "outputs": [
        {
          "internalType": "uint256",
          "name": "",
          "type": "uint256"
        }
      ],
      "stateMutability": "view",
      "type": "function"
    },
    {
      "inputs": [
        {
          "internalType": "address",
          "name": "_token",
          "type": "address"
        },
        {
          "internalType": "uint256",
          "name": "_amount",
          "type": "uint256"
        }
      ],
      "name": "distribute",
      "outputs": [],
      "stateMutability": "nonpayable",
      "type": "function"
    },
    {
      "inputs": [
        {
          "internalType": "uint256",
          "name": "",
          "type": "uint256"
        }
      ],
      "name": "distributedTokens",
      "outputs": [
        {
          "internalType": "address",
          "name": "",
          "type": "address"
        }
      ],
      "stateMutability": "view",
      "type": "function"
    },
    {
      "inputs": [
        {
          "internalType": "address",
          "name": "",
          "type": "address"
        }
      ],
      "name": "distributions",
      "outputs": [
        {
          "internalType": "bool",
          "name": "exists",
          "type": "bool"
        },
        {
          "internalType": "uint256",
          "name": "totalDistribution",
          "type": "uint256"
        },
        {
          "internalType": "uint256",
          "name": "lastBalance",
          "type": "uint256"
        }
      ],
      "stateMutability": "view",
      "type": "function"
    },
    {
      "inputs": [],
      "name": "epochUnit",
      "outputs": [
        {
          "internalType": "uint256",
          "name": "",
          "type": "uint256"
        }
      ],
      "stateMutability": "view",
      "type": "function"
    },
    {
      "inputs": [
        {
          "internalType": "address",
          "name": "",
          "type": "address"
        }
      ],
      "name": "genesis",
      "outputs": [
        {
          "internalType": "uint256",
          "name": "",
          "type": "uint256"
        }
      ],
      "stateMutability": "view",
      "type": "function"
    },
    {
      "inputs": [
        {
          "internalType": "address",
          "name": "_account",
          "type": "address"
        }
      ],
      "name": "getAvailableClaims",
      "outputs": [
        {
          "internalType": "address[]",
          "name": "tokens",
          "type": "address[]"
        },
        {
          "internalType": "uint256[]",
          "name": "claimableAmounts",
          "type": "uint256[]"
        }
      ],
      "stateMutability": "view",
      "type": "function"
    },
    {
      "inputs": [
        {
          "internalType": "address",
          "name": "_token",
          "type": "address"
        }
      ],
      "name": "getCurrentWeeklyEpochTimestamp",
      "outputs": [
        {
          "internalType": "uint256",
          "name": "",
          "type": "uint256"
        }
      ],
      "stateMutability": "view",
      "type": "function"
    },
    {
      "inputs": [
        {
          "internalType": "bytes32",
          "name": "role",
          "type": "bytes32"
        }
      ],
      "name": "getRoleAdmin",
      "outputs": [
        {
          "internalType": "bytes32",
          "name": "",
          "type": "bytes32"
        }
      ],
      "stateMutability": "view",
      "type": "function"
    },
    {
      "inputs": [
        {
          "internalType": "address",
          "name": "_token",
          "type": "address"
        },
        {
          "internalType": "uint256",
          "name": "_timestamp",
          "type": "uint256"
        }
      ],
      "name": "getWeeklyEpoch",
      "outputs": [
        {
          "internalType": "uint256",
          "name": "",
          "type": "uint256"
        }
      ],
      "stateMutability": "view",
      "type": "function"
    },
    {
      "inputs": [
        {
          "internalType": "bytes32",
          "name": "role",
          "type": "bytes32"
        },
        {
          "internalType": "address",
          "name": "account",
          "type": "address"
        }
      ],
      "name": "grantRole",
      "outputs": [],
      "stateMutability": "nonpayable",
      "type": "function"
    },
    {
      "inputs": [
        {
          "internalType": "bytes32",
          "name": "role",
          "type": "bytes32"
        },
        {
          "internalType": "address",
          "name": "account",
          "type": "address"
        }
      ],
      "name": "hasRole",
      "outputs": [
        {
          "internalType": "bool",
          "name": "",
          "type": "bool"
        }
      ],
      "stateMutability": "view",
      "type": "function"
    },
    {
      "inputs": [
        {
          "internalType": "address",
          "name": "_token",
          "type": "address"
        }
      ],
      "name": "ifDistributionPossible",
      "outputs": [
        {
          "internalType": "bool",
          "name": "",
          "type": "bool"
        }
      ],
      "stateMutability": "view",
      "type": "function"
    },
    {
      "inputs": [
        {
          "internalType": "address",
          "name": "_universalStos",
          "type": "address"
        },
        {
          "internalType": "uint256",
          "name": "_epochUnit",
          "type": "uint256"
        }
      ],
      "name": "initialize",
      "outputs": [],
      "stateMutability": "nonpayable",
      "type": "function"
    },
    {
      "inputs": [
        {
          "internalType": "address",
          "name": "account",
          "type": "address"
        }
      ],
      "name": "isAdmin",
      "outputs": [
        {
          "internalType": "bool",
          "name": "",
          "type": "bool"
        }
      ],
      "stateMutability": "view",
      "type": "function"
    },
    {
      "inputs": [],
      "name": "pauseProxy",
      "outputs": [
        {
          "internalType": "bool",
          "name": "",
          "type": "bool"
        }
      ],
      "stateMutability": "view",
      "type": "function"
    },
    {
      "inputs": [
        {
          "internalType": "uint256",
          "name": "",
          "type": "uint256"
        }
      ],
      "name": "proxyImplementation",
      "outputs": [
        {
          "internalType": "address",
          "name": "",
          "type": "address"
        }
      ],
      "stateMutability": "view",
      "type": "function"
    },
    {
      "inputs": [
        {
          "internalType": "address",
          "name": "_token",
          "type": "address"
        },
        {
          "internalType": "uint256",
          "name": "_weeklyEpoch",
          "type": "uint256"
        }
      ],
      "name": "redistribute",
      "outputs": [],
      "stateMutability": "nonpayable",
      "type": "function"
    },
    {
      "inputs": [
        {
          "internalType": "address",
          "name": "account",
          "type": "address"
        }
      ],
      "name": "removeAdmin",
      "outputs": [],
      "stateMutability": "nonpayable",
      "type": "function"
    },
    {
      "inputs": [
        {
          "internalType": "bytes32",
          "name": "role",
          "type": "bytes32"
        },
        {
          "internalType": "address",
          "name": "account",
          "type": "address"
        }
      ],
      "name": "renounceRole",
      "outputs": [],
      "stateMutability": "nonpayable",
      "type": "function"
    },
    {
      "inputs": [
        {
          "internalType": "bytes32",
          "name": "role",
          "type": "bytes32"
        },
        {
          "internalType": "address",
          "name": "account",
          "type": "address"
        }
      ],
      "name": "revokeRole",
      "outputs": [],
      "stateMutability": "nonpayable",
      "type": "function"
    },
    {
      "inputs": [
        {
          "internalType": "bytes4",
          "name": "",
          "type": "bytes4"
        }
      ],
      "name": "selectorImplementation",
      "outputs": [
        {
          "internalType": "address",
          "name": "",
          "type": "address"
        }
      ],
      "stateMutability": "view",
      "type": "function"
    },
    {
      "inputs": [
        {
          "internalType": "bytes4",
          "name": "interfaceId",
          "type": "bytes4"
        }
      ],
      "name": "supportsInterface",
      "outputs": [
        {
          "internalType": "bool",
          "name": "",
          "type": "bool"
        }
      ],
      "stateMutability": "view",
      "type": "function"
    },
    {
      "inputs": [
        {
          "internalType": "address",
          "name": "_token",
          "type": "address"
        },
        {
          "internalType": "uint256",
          "name": "_timestamp",
          "type": "uint256"
        }
      ],
      "name": "tokensPerWeekAt",
      "outputs": [
        {
          "internalType": "uint256",
          "name": "epochNumber",
          "type": "uint256"
        },
        {
          "internalType": "uint256",
          "name": "amount",
          "type": "uint256"
        }
      ],
      "stateMutability": "view",
      "type": "function"
    },
    {
      "inputs": [
        {
          "internalType": "address",
          "name": "newAdmin",
          "type": "address"
        }
      ],
      "name": "transferAdmin",
      "outputs": [],
      "stateMutability": "nonpayable",
      "type": "function"
    },
    {
      "inputs": [],
      "name": "universalStos",
      "outputs": [
        {
          "internalType": "address",
          "name": "",
          "type": "address"
        }
      ],
      "stateMutability": "view",
      "type": "function"
    }
  ],
  "bytecode": "0x608060405234801561001057600080fd5b50612242806100206000396000f3fe608060405234801561001057600080fd5b50600436106102415760003560e01c806375829def11610145578063cd6dc687116100bd578063e1de599b1161008c578063efb93e9611610071578063efb93e96146105d9578063fb932108146105ec578063fd2dcecf146105ff57600080fd5b8063e1de599b146105b3578063e3ba18a5146105c657600080fd5b8063cd6dc68714610567578063d4570c1c1461057a578063d4abe7171461058d578063d547741f146105a057600080fd5b806391d1485411610114578063a217fddf116100f9578063a217fddf14610523578063b911135f1461052b578063c83d3c471461055457600080fd5b806391d148541461049a5780639353b9df146104d357600080fd5b806375829def1461041857806375b238fc1461042b57806377222509146104525780637b7eb2e21461047257600080fd5b8063324fb13b116101d857806350d2a276116101a757806362e40c241161018c57806362e40c24146103d757806363a8fd89146103f8578063704802751461040557600080fd5b806350d2a2761461038b578063550d01a3146103b457600080fd5b8063324fb13b1461032757806336568abe1461033a57806337a155031461034d5780634224956c1461037857600080fd5b8063248a9ca311610214578063248a9ca3146102cb57806324d7806c146102ee5780632f2ff15d14610301578063324cd9b11461031457600080fd5b806301ffc9a7146102465780631785f53c1461026e5780631e83409a146102835780632298524614610296575b600080fd5b610259610254366004611e0f565b610608565b60405190151581526020015b60405180910390f35b61028161027c366004611e55565b61063f565b005b610281610291366004611e55565b6106d1565b6102bd7ffb5864e8ff833c3cb2d2d08505e82ff02a43554c74a35d4f5a64e8526127831181565b604051908152602001610265565b6102bd6102d9366004611e70565b60009081526004602052604090206001015490565b6102596102fc366004611e55565b6106e3565b61028161030f366004611e89565b610723565b6102bd610322366004611eb5565b61074d565b6102bd610335366004611edf565b6107a4565b610281610348366004611e89565b6108ce565b61036061035b366004611e70565b61095a565b6040516001600160a01b039091168152602001610265565b610259610386366004611e55565b610984565b610360610399366004611e0f565b6003602052600090815260409020546001600160a01b031681565b6102596103c2366004611e55565b60026020526000908152604090205460ff1681565b6103ea6103e5366004611e55565b610a0b565b604051610265929190611f12565b6000546102599060ff1681565b610281610413366004611e55565b610b2f565b610281610426366004611e55565b610bb9565b6102bd7fdf8b4c520ffe197c5343c6f5aec59570151ef9a492f2c624fd45ddde6135ec4281565b6102bd610460366004611e55565b60076020526000908152604090205481565b610485610480366004611eb5565b610d1b565b60408051928352602083019190915201610265565b6102596104a8366004611e89565b60009182526004602090815260408084206001600160a01b0393909316845291905290205460ff1690565b6105066104e1366004611e55565b60086020526000908152604090208054600182015460029092015460ff909116919083565b604080519315158452602084019290925290820152606001610265565b6102bd600081565b610360610539366004611e70565b6001602052600090815260409020546001600160a01b031681565b600554610360906001600160a01b031681565b610281610575366004611eb5565b610d59565b6102bd610588366004611f96565b610dec565b61028161059b366004611fc0565b610e69565b6102816105ae366004611e89565b610eae565b6102816105c1366004611eb5565b610ed3565b6102816105d4366004611eb5565b61119e565b6102bd6105e7366004611e55565b61144a565b6102816105fa366004611eb5565b6114a3565b6102bd60065481565b60006001600160e01b03198216637965db0b60e01b148061063957506301ffc9a760e01b6001600160e01b03198316145b92915050565b610648336106e3565b6106a45760405162461bcd60e51b815260206004820152602260248201527f41636365737369626c653a2043616c6c6572206973206e6f7420616e2061646d60448201526134b760f11b60648201526084015b60405180910390fd5b6106ce7fdf8b4c520ffe197c5343c6f5aec59570151ef9a492f2c624fd45ddde6135ec42826108ce565b50565b6106ce81600654426105d4919061204b565b6001600160a01b03811660009081527f2fb794d17134dfdec181ddbac1babb5ab1eb140204ef4d982f294e7fc8b69022602052604081205460ff16610639565b60008281526004602052604090206001015461073e81611778565b6107488383611782565b505050565b6001600160a01b038216600090815260076020526040812054808203610777576000915050610639565b80831161078557600061079c565b600654610792828561204b565b61079c919061205e565b949350505050565b60055460405163277166bf60e11b81526001600160a01b038581166004830152602482018590526000928392911690634ee2cd7e90604401602060405180830381865afa1580156107f9573d6000803e3d6000fd5b505050506040513d601f19601f8201168201806040525081019061081d9190612080565b600554604051630981b24d60e41b8152600481018790529192506000916001600160a01b039091169063981b24d090602401602060405180830381865afa15801561086c573d6000803e3d6000fd5b505050506040513d601f19601f820116820180604052508101906108909190612080565b905081158061089d575080155b156108ad576000925050506108c7565b806108b88386612099565b6108c2919061205e565b925050505b9392505050565b6001600160a01b038116331461094c5760405162461bcd60e51b815260206004820152602f60248201527f416363657373436f6e74726f6c3a2063616e206f6e6c792072656e6f756e636560448201527f20726f6c657320666f722073656c660000000000000000000000000000000000606482015260840161069b565b6109568282611824565b5050565b600b818154811061096a57600080fd5b6000918252602090912001546001600160a01b0316905081565b6000806109908361144a565b600554604051630981b24d60e41b8152600481018390529192506000916001600160a01b039091169063981b24d090602401602060405180830381865afa1580156109df573d6000803e3d6000fd5b505050506040513d601f19601f82011682018060405250810190610a039190612080565b119392505050565b6060806000600b8054905067ffffffffffffffff811115610a2e57610a2e6120b0565b604051908082528060200260200182016040528015610a57578160200160208202803683370190505b50905060005b600b54811015610ac557610a9885600b8381548110610a7e57610a7e6120c6565b6000918252602090912001546001600160a01b0316610dec565b828281518110610aaa57610aaa6120c6565b6020908102919091010152610abe816120dc565b9050610a5d565b50600b8181805480602002602001604051908101604052809291908181526020018280548015610b1e57602002820191906000526020600020905b81546001600160a01b03168152600190910190602001808311610b00575b505050505091509250925050915091565b610b38336106e3565b610b8f5760405162461bcd60e51b815260206004820152602260248201527f41636365737369626c653a2043616c6c6572206973206e6f7420616e2061646d60448201526134b760f11b606482015260840161069b565b6106ce7fdf8b4c520ffe197c5343c6f5aec59570151ef9a492f2c624fd45ddde6135ec4282610723565b610bc2336106e3565b610c195760405162461bcd60e51b815260206004820152602260248201527f41636365737369626c653a2043616c6c6572206973206e6f7420616e2061646d60448201526134b760f11b606482015260840161069b565b6001600160a01b038116610c6f5760405162461bcd60e51b815260206004820152601860248201527f41636365737369626c653a207a65726f20616464726573730000000000000000604482015260640161069b565b6001600160a01b0381163303610cc75760405162461bcd60e51b815260206004820152601660248201527f41636365737369626c653a2073616d652061646d696e00000000000000000000604482015260640161069b565b610cf17fdf8b4c520ffe197c5343c6f5aec59570151ef9a492f2c624fd45ddde6135ec4282610723565b6106ce7fdf8b4c520ffe197c5343c6f5aec59570151ef9a492f2c624fd45ddde6135ec42336108ce565b6000806000610d2a858561074d565b6001600160a01b0395909516600090815260096020908152604080832088845290915290205494959350505050565b610d62336106e3565b610db95760405162461bcd60e51b815260206004820152602260248201527f41636365737369626c653a2043616c6c6572206973206e6f7420616e2061646d60448201526134b760f11b606482015260840161069b565b6005805473ffffffffffffffffffffffffffffffffffffffff19166001600160a01b039390931692909217909155600655565b6001600160a01b038116600090815260076020526040812054808203610e16576000915050610639565b6000610e2a8460065442610322919061204b565b6001600160a01b038086166000908152600a60209081526040808320938a1683529290522054909150610e5f868683856118a7565b9695505050505050565b60005b8181101561074857610e9e838383818110610e8957610e896120c6565b90506020020160208101906102919190611e55565b610ea7816120dc565b9050610e6c565b600082815260046020526040902060010154610ec981611778565b6107488383611824565b816001600160a01b038116610f195760405162461bcd60e51b815260206004820152600c60248201526b7a65726f206164647265737360a01b604482015260640161069b565b600c5460ff1615610f5d5760405162461bcd60e51b815260206004820152600e60248201526d616c726561647920696e2075736560901b604482015260640161069b565b600c805460ff191660011790556000610f76844261074d565b9050808310610fed5760405162461bcd60e51b815260206004820152602b60248201527f49742063616e206f6e6c7920626520736574206966206974206973207468652060448201527f6c6173742065706f63682e000000000000000000000000000000000000000000606482015260840161069b565b600654600090610ffd8186612099565b6001600160a01b03871660009081526007602052604090205461102091906120f5565b61102a91906120f5565b600554604051630981b24d60e41b8152600481018390529192506001600160a01b03169063981b24d090602401602060405180830381865afa158015611074573d6000803e3d6000fd5b505050506040513d601f19601f820116820180604052508101906110989190612080565b156110e55760405162461bcd60e51b815260206004820152601b60248201527f546f6b656e2065786973747320666f7220746861742065706f63680000000000604482015260640161069b565b6001600160a01b0385166000908152600960209081526040808320878452909152808220548483529082208054919283926111219084906120f5565b90915550506001600160a01b038616600081815260096020908152604080832089845282528083209290925581518881529081018690529081018390527f1cb7f4652f6aadb7311647870434938dd368ea922f1c0a01b8cfad68df3e6975906060015b60405180910390a25050600c805460ff1916905550505050565b6001600160a01b03821660009081526007602052604081205490036112055760405162461bcd60e51b815260206004820152600f60248201527f67656e65736973206973207a65726f0000000000000000000000000000000000604482015260640161069b565b6006546001600160a01b03831660009081526007602052604090205461122b91906120f5565b42101561127a5760405162461bcd60e51b815260206004820152600f60248201527f7468652066697273742065706f63680000000000000000000000000000000000604482015260640161069b565b6000611293826006544261128e919061204b565b61198a565b905060006112a1848361074d565b6001600160a01b0385166000908152600a6020908152604080832033808552925282205492935090916112d6918791856118a7565b9050600081116113285760405162461bcd60e51b815260206004820152601460248201527f6e6f20636c61696d61626c6520616d6c6f756e74000000000000000000000000604482015260640161069b565b6001600160a01b038516600090815260086020526040902060028101548211156113945760405162461bcd60e51b815260206004820152601460248201527f696e73756666696369656e742062616c616e6365000000000000000000000000604482015260640161069b565b61139f8360016120f5565b6001600160a01b0387166000908152600a602090815260408083203384529091528120919091556002820180548492906113da90849061204b565b909155506113f490506001600160a01b03871633846119a0565b604080518381526020810185905290810186905233906001600160a01b038816907fd795915374024be1f03204e052bd584b33bb85c9128ede9c54adbe0bbdc220959060600160405180910390a3505050505050565b6001600160a01b0381166000908152600760205260408120548082036114735750600092915050565b600061147f844261074d565b60065490915061148f8183612099565b61149990846120f5565b61079c91906120f5565b80806000036114e15760405162461bcd60e51b815260206004820152600a6024820152697a65726f2076616c756560b01b604482015260640161069b565b826001600160a01b0381166115275760405162461bcd60e51b815260206004820152600c60248201526b7a65726f206164647265737360a01b604482015260640161069b565b600c5460ff161561156b5760405162461bcd60e51b815260206004820152600e60248201526d616c726561647920696e2075736560901b604482015260640161069b565b600c805460ff191660011790556001600160a01b03841660009081526007602052604081205490036115c8576006546115a4814261205e565b6115ae9190612099565b6001600160a01b0385166000908152600760205260409020555b60006115d4854261074d565b6001600160a01b038616600090815260086020526040812080549293509160ff161515900361165657600b80546001810182556000919091527f0175b7a638427703f0dbe7bb9bbf987a2551717b34e79f33b5b1008d1fa01db901805473ffffffffffffffffffffffffffffffffffffffff19166001600160a01b0388161790555b805460ff191660011781556116766001600160a01b038716333088611abb565b6040516370a0823160e01b81523060048201526001600160a01b038716906370a0823190602401602060405180830381865afa1580156116ba573d6000803e3d6000fd5b505050506040513d601f19601f820116820180604052508101906116de9190612080565b8160020181905550848160010160008282546116fa91906120f5565b90915550506001600160a01b0386166000908152600960209081526040808320858452909152812080548792906117329084906120f5565b909155505060408051838152602081018790526001600160a01b038816917f60ce3cc2d133631eac66a476f14997a9fa682bd05a60dd993cf02285822d78d89101611184565b6106ce8133611bdf565b60008281526004602090815260408083206001600160a01b038516845290915290205460ff166109565760008281526004602090815260408083206001600160a01b03851684529091529020805460ff191660011790556117e03390565b6001600160a01b0316816001600160a01b0316837f2f8788117e7eff1d82e926ec794901d17c78024a50270940304540a733656f0d60405160405180910390a45050565b60008281526004602090815260408083206001600160a01b038516845290915290205460ff16156109565760008281526004602090815260408083206001600160a01b0385168085529252808320805460ff1916905551339285917ff6391f5c32d9c69d2a47ea670b442974b53935d1edc7fd64eb21e047a839171b9190a45050565b6000818311156118b95750600061079c565b6001600160a01b038516600090815260076020526040902054835b838511611980576001600160a01b03871660009081526009602090815260408083208484529091529020541580159061190c57508115155b1561196e576006546119619087906119248185612099565b61192e90866120f5565b61193891906120f5565b6001600160a01b038a1660009081526009602090815260408083208784529091529020546107a4565b61196b90846120f5565b92505b80611978816120dc565b9150506118d4565b5050949350505050565b600081831061199957816108c7565b5090919050565b604080516001600160a01b038481166024830152604480830185905283518084039091018152606490920183526020820180516001600160e01b031663a9059cbb60e01b17905291516000928392908716916119fc919061212c565b6000604051808303816000865af19150503d8060008114611a39576040519150601f19603f3d011682016040523d82523d6000602084013e611a3e565b606091505b5091509150818015611a68575080511580611a68575080806020019051810190611a689190612148565b611ab45760405162461bcd60e51b815260206004820152600f60248201527f5452414e534645525f4641494c45440000000000000000000000000000000000604482015260640161069b565b5050505050565b604080516001600160a01b0385811660248301528481166044830152606480830185905283518084039091018152608490920183526020820180516001600160e01b03166323b872dd60e01b1790529151600092839290881691611b1f919061212c565b6000604051808303816000865af19150503d8060008114611b5c576040519150601f19603f3d011682016040523d82523d6000602084013e611b61565b606091505b5091509150818015611b8b575080511580611b8b575080806020019051810190611b8b9190612148565b611bd75760405162461bcd60e51b815260206004820152601460248201527f5452414e534645525f46524f4d5f4641494c4544000000000000000000000000604482015260640161069b565b505050505050565b60008281526004602090815260408083206001600160a01b038516845290915290205460ff1661095657611c1281611c54565b611c1d836020611c66565b604051602001611c2e92919061216a565b60408051601f198184030181529082905262461bcd60e51b825261069b916004016121eb565b60606106396001600160a01b03831660145b60606000611c75836002612099565b611c809060026120f5565b67ffffffffffffffff811115611c9857611c986120b0565b6040519080825280601f01601f191660200182016040528015611cc2576020820181803683370190505b509050600360fc1b81600081518110611cdd57611cdd6120c6565b60200101906001600160f81b031916908160001a905350600f60fb1b81600181518110611d0c57611d0c6120c6565b60200101906001600160f81b031916908160001a9053506000611d30846002612099565b611d3b9060016120f5565b90505b6001811115611dc0577f303132333435363738396162636465660000000000000000000000000000000085600f1660108110611d7c57611d7c6120c6565b1a60f81b828281518110611d9257611d926120c6565b60200101906001600160f81b031916908160001a90535060049490941c93611db98161221e565b9050611d3e565b5083156108c75760405162461bcd60e51b815260206004820181905260248201527f537472696e67733a20686578206c656e67746820696e73756666696369656e74604482015260640161069b565b600060208284031215611e2157600080fd5b81356001600160e01b0319811681146108c757600080fd5b80356001600160a01b0381168114611e5057600080fd5b919050565b600060208284031215611e6757600080fd5b6108c782611e39565b600060208284031215611e8257600080fd5b5035919050565b60008060408385031215611e9c57600080fd5b82359150611eac60208401611e39565b90509250929050565b60008060408385031215611ec857600080fd5b611ed183611e39565b946020939093013593505050565b600080600060608486031215611ef457600080fd5b611efd84611e39565b95602085013595506040909401359392505050565b604080825283519082018190526000906020906060840190828701845b82811015611f545781516001600160a01b031684529284019290840190600101611f2f565b5050508381038285015284518082528583019183019060005b81811015611f8957835183529284019291840191600101611f6d565b5090979650505050505050565b60008060408385031215611fa957600080fd5b611fb283611e39565b9150611eac60208401611e39565b60008060208385031215611fd357600080fd5b823567ffffffffffffffff80821115611feb57600080fd5b818501915085601f830112611fff57600080fd5b81358181111561200e57600080fd5b8660208260051b850101111561202357600080fd5b60209290920196919550909350505050565b634e487b7160e01b600052601160045260246000fd5b8181038181111561063957610639612035565b60008261207b57634e487b7160e01b600052601260045260246000fd5b500490565b60006020828403121561209257600080fd5b5051919050565b808202811582820484141761063957610639612035565b634e487b7160e01b600052604160045260246000fd5b634e487b7160e01b600052603260045260246000fd5b6000600182016120ee576120ee612035565b5060010190565b8082018082111561063957610639612035565b60005b8381101561212357818101518382015260200161210b565b50506000910152565b6000825161213e818460208701612108565b9190910192915050565b60006020828403121561215a57600080fd5b815180151581146108c757600080fd5b7f416363657373436f6e74726f6c3a206163636f756e74200000000000000000008152600083516121a2816017850160208801612108565b7f206973206d697373696e6720726f6c652000000000000000000000000000000060179184019182015283516121df816028840160208801612108565b01602801949350505050565b602081526000825180602084015261220a816040850160208701612108565b601f01601f19169190910160400192915050565b60008161222d5761222d612035565b50600019019056fea164736f6c6343000812000a",
  "linkReferences": {},
  "deployedLinkReferences": {}
}