{
  "_format": "hh-sol-artifact-1",
  "contractName": "L2DividendPoolForStos",
  "sourceName": "contracts/L2/airdrop/L2DividendPoolForStos.sol",
  "abi": [
    {
      "anonymous": false,
      "inputs": [
        {
          "indexed": true,
          "internalType": "address",
          "name": "token",
          "type": "address"
        },
        {
          "indexed": true,
          "internalType": "address",
          "name": "account",
          "type": "address"
        },
        {
          "indexed": false,
          "internalType": "uint256",
          "name": "amount",
          "type": "uint256"
        },
        {
          "indexed": false,
          "internalType": "uint256",
          "name": "epochNumber",
          "type": "uint256"
        },
        {
          "indexed": false,
          "internalType": "uint256",
          "name": "timestamp",
          "type": "uint256"
        }
      ],
      "name": "Claimed",
      "type": "event"
    },
    {
      "anonymous": false,
      "inputs": [
        {
          "indexed": true,
          "internalType": "address",
          "name": "token",
          "type": "address"
        },
        {
          "indexed": false,
          "internalType": "uint256",
          "name": "wekklyEpoch",
          "type": "uint256"
        },
        {
          "indexed": false,
          "internalType": "uint256",
          "name": "amount",
          "type": "uint256"
        }
      ],
      "name": "Distributed",
      "type": "event"
    },
    {
      "anonymous": false,
      "inputs": [
        {
          "indexed": true,
          "internalType": "address",
          "name": "token",
          "type": "address"
        },
        {
          "indexed": false,
          "internalType": "uint256",
          "name": "oldEpoch",
          "type": "uint256"
        },
        {
          "indexed": false,
          "internalType": "uint256",
          "name": "newEpoch",
          "type": "uint256"
        },
        {
          "indexed": false,
          "internalType": "uint256",
          "name": "amount",
          "type": "uint256"
        }
      ],
      "name": "Redistributed",
      "type": "event"
    },
    {
      "anonymous": false,
      "inputs": [
        {
          "indexed": true,
          "internalType": "bytes32",
          "name": "role",
          "type": "bytes32"
        },
        {
          "indexed": true,
          "internalType": "bytes32",
          "name": "previousAdminRole",
          "type": "bytes32"
        },
        {
          "indexed": true,
          "internalType": "bytes32",
          "name": "newAdminRole",
          "type": "bytes32"
        }
      ],
      "name": "RoleAdminChanged",
      "type": "event"
    },
    {
      "anonymous": false,
      "inputs": [
        {
          "indexed": true,
          "internalType": "bytes32",
          "name": "role",
          "type": "bytes32"
        },
        {
          "indexed": true,
          "internalType": "address",
          "name": "account",
          "type": "address"
        },
        {
          "indexed": true,
          "internalType": "address",
          "name": "sender",
          "type": "address"
        }
      ],
      "name": "RoleGranted",
      "type": "event"
    },
    {
      "anonymous": false,
      "inputs": [
        {
          "indexed": true,
          "internalType": "bytes32",
          "name": "role",
          "type": "bytes32"
        },
        {
          "indexed": true,
          "internalType": "address",
          "name": "account",
          "type": "address"
        },
        {
          "indexed": true,
          "internalType": "address",
          "name": "sender",
          "type": "address"
        }
      ],
      "name": "RoleRevoked",
      "type": "event"
    },
    {
      "inputs": [],
      "name": "ADMIN_ROLE",
      "outputs": [
        {
          "internalType": "bytes32",
          "name": "",
          "type": "bytes32"
        }
      ],
      "stateMutability": "view",
      "type": "function"
    },
    {
      "inputs": [],
      "name": "DEFAULT_ADMIN_ROLE",
      "outputs": [
        {
          "internalType": "bytes32",
          "name": "",
          "type": "bytes32"
        }
      ],
      "stateMutability": "view",
      "type": "function"
    },
    {
      "inputs": [],
      "name": "POLICY_ROLE",
      "outputs": [
        {
          "internalType": "bytes32",
          "name": "",
          "type": "bytes32"
        }
      ],
      "stateMutability": "view",
      "type": "function"
    },
    {
      "inputs": [
        {
          "internalType": "address",
          "name": "account",
          "type": "address"
        }
      ],
      "name": "addAdmin",
      "outputs": [],
      "stateMutability": "nonpayable",
      "type": "function"
    },
    {
      "inputs": [
        {
          "internalType": "address",
          "name": "",
          "type": "address"
        }
      ],
      "name": "aliveImplementation",
      "outputs": [
        {
          "internalType": "bool",
          "name": "",
          "type": "bool"
        }
      ],
      "stateMutability": "view",
      "type": "function"
    },
    {
      "inputs": [
        {
          "internalType": "address",
          "name": "_account",
          "type": "address"
        },
        {
          "internalType": "uint256",
          "name": "_timestamp",
          "type": "uint256"
        },
        {
          "internalType": "uint256",
          "name": "_tokensPerWeek",
          "type": "uint256"
        }
      ],
      "name": "calculateClaimPerEpoch",
      "outputs": [
        {
          "internalType": "uint256",
          "name": "",
          "type": "uint256"
        }
      ],
      "stateMutability": "view",
      "type": "function"
    },
    {
      "inputs": [
        {
          "internalType": "address",
          "name": "_token",
          "type": "address"
        }
      ],
      "name": "claim",
      "outputs": [],
      "stateMutability": "nonpayable",
      "type": "function"
    },
    {
      "inputs": [
        {
          "internalType": "address[]",
          "name": "_tokens",
          "type": "address[]"
        }
      ],
      "name": "claimBatch",
      "outputs": [],
      "stateMutability": "nonpayable",
      "type": "function"
    },
    {
      "inputs": [
        {
          "internalType": "address",
          "name": "_token",
          "type": "address"
        },
        {
          "internalType": "uint256",
          "name": "_timestamp",
          "type": "uint256"
        }
      ],
      "name": "claimUpTo",
      "outputs": [],
      "stateMutability": "nonpayable",
      "type": "function"
    },
    {
      "inputs": [
        {
          "internalType": "address",
          "name": "_account",
          "type": "address"
        },
        {
          "internalType": "address",
          "name": "_token",
          "type": "address"
        }
      ],
      "name": "claimable",
      "outputs": [
        {
          "internalType": "uint256",
          "name": "",
          "type": "uint256"
        }
      ],
      "stateMutability": "view",
      "type": "function"
    },
    {
      "inputs": [
        {
          "internalType": "address",
          "name": "_token",
          "type": "address"
        },
        {
          "internalType": "uint256",
          "name": "_amount",
          "type": "uint256"
        }
      ],
      "name": "distribute",
      "outputs": [],
      "stateMutability": "payable",
      "type": "function"
    },
    {
      "inputs": [
        {
          "internalType": "uint256",
          "name": "",
          "type": "uint256"
        }
      ],
      "name": "distributedTokens",
      "outputs": [
        {
          "internalType": "address",
          "name": "",
          "type": "address"
        }
      ],
      "stateMutability": "view",
      "type": "function"
    },
    {
      "inputs": [
        {
          "internalType": "address",
          "name": "",
          "type": "address"
        }
      ],
      "name": "distributions",
      "outputs": [
        {
          "internalType": "bool",
          "name": "exists",
          "type": "bool"
        },
        {
          "internalType": "uint256",
          "name": "totalDistribution",
          "type": "uint256"
        },
        {
          "internalType": "uint256",
          "name": "lastBalance",
          "type": "uint256"
        }
      ],
      "stateMutability": "view",
      "type": "function"
    },
    {
      "inputs": [],
      "name": "epochUnit",
      "outputs": [
        {
          "internalType": "uint256",
          "name": "",
          "type": "uint256"
        }
      ],
      "stateMutability": "view",
      "type": "function"
    },
    {
      "inputs": [
        {
          "internalType": "address",
          "name": "",
          "type": "address"
        }
      ],
      "name": "genesis",
      "outputs": [
        {
          "internalType": "uint256",
          "name": "",
          "type": "uint256"
        }
      ],
      "stateMutability": "view",
      "type": "function"
    },
    {
      "inputs": [
        {
          "internalType": "address",
          "name": "_account",
          "type": "address"
        }
      ],
      "name": "getAvailableClaims",
      "outputs": [
        {
          "internalType": "address[]",
          "name": "tokens",
          "type": "address[]"
        },
        {
          "internalType": "uint256[]",
          "name": "claimableAmounts",
          "type": "uint256[]"
        }
      ],
      "stateMutability": "view",
      "type": "function"
    },
    {
      "inputs": [
        {
          "internalType": "address",
          "name": "_token",
          "type": "address"
        }
      ],
      "name": "getCurrentWeeklyEpochTimestamp",
      "outputs": [
        {
          "internalType": "uint256",
          "name": "",
          "type": "uint256"
        }
      ],
      "stateMutability": "view",
      "type": "function"
    },
    {
      "inputs": [
        {
          "internalType": "bytes32",
          "name": "role",
          "type": "bytes32"
        }
      ],
      "name": "getRoleAdmin",
      "outputs": [
        {
          "internalType": "bytes32",
          "name": "",
          "type": "bytes32"
        }
      ],
      "stateMutability": "view",
      "type": "function"
    },
    {
      "inputs": [
        {
          "internalType": "address",
          "name": "_token",
          "type": "address"
        },
        {
          "internalType": "uint256",
          "name": "_timestamp",
          "type": "uint256"
        }
      ],
      "name": "getWeeklyEpoch",
      "outputs": [
        {
          "internalType": "uint256",
          "name": "",
          "type": "uint256"
        }
      ],
      "stateMutability": "view",
      "type": "function"
    },
    {
      "inputs": [
        {
          "internalType": "bytes32",
          "name": "role",
          "type": "bytes32"
        },
        {
          "internalType": "address",
          "name": "account",
          "type": "address"
        }
      ],
      "name": "grantRole",
      "outputs": [],
      "stateMutability": "nonpayable",
      "type": "function"
    },
    {
      "inputs": [
        {
          "internalType": "bytes32",
          "name": "role",
          "type": "bytes32"
        },
        {
          "internalType": "address",
          "name": "account",
          "type": "address"
        }
      ],
      "name": "hasRole",
      "outputs": [
        {
          "internalType": "bool",
          "name": "",
          "type": "bool"
        }
      ],
      "stateMutability": "view",
      "type": "function"
    },
    {
      "inputs": [
        {
          "internalType": "address",
          "name": "_universalStos",
          "type": "address"
        },
        {
          "internalType": "uint256",
          "name": "_epochUnit",
          "type": "uint256"
        }
      ],
      "name": "initialize",
      "outputs": [],
      "stateMutability": "nonpayable",
      "type": "function"
    },
    {
      "inputs": [
        {
          "internalType": "address",
          "name": "account",
          "type": "address"
        }
      ],
      "name": "isAdmin",
      "outputs": [
        {
          "internalType": "bool",
          "name": "",
          "type": "bool"
        }
      ],
      "stateMutability": "view",
      "type": "function"
    },
    {
      "inputs": [],
      "name": "pauseProxy",
      "outputs": [
        {
          "internalType": "bool",
          "name": "",
          "type": "bool"
        }
      ],
      "stateMutability": "view",
      "type": "function"
    },
    {
      "inputs": [
        {
          "internalType": "uint256",
          "name": "",
          "type": "uint256"
        }
      ],
      "name": "proxyImplementation",
      "outputs": [
        {
          "internalType": "address",
          "name": "",
          "type": "address"
        }
      ],
      "stateMutability": "view",
      "type": "function"
    },
    {
      "inputs": [
        {
          "internalType": "address",
          "name": "_token",
          "type": "address"
        },
        {
          "internalType": "uint256",
          "name": "_weeklyEpoch",
          "type": "uint256"
        }
      ],
      "name": "redistribute",
      "outputs": [],
      "stateMutability": "nonpayable",
      "type": "function"
    },
    {
      "inputs": [
        {
          "internalType": "address",
          "name": "account",
          "type": "address"
        }
      ],
      "name": "removeAdmin",
      "outputs": [],
      "stateMutability": "nonpayable",
      "type": "function"
    },
    {
      "inputs": [
        {
          "internalType": "bytes32",
          "name": "role",
          "type": "bytes32"
        },
        {
          "internalType": "address",
          "name": "account",
          "type": "address"
        }
      ],
      "name": "renounceRole",
      "outputs": [],
      "stateMutability": "nonpayable",
      "type": "function"
    },
    {
      "inputs": [
        {
          "internalType": "bytes32",
          "name": "role",
          "type": "bytes32"
        },
        {
          "internalType": "address",
          "name": "account",
          "type": "address"
        }
      ],
      "name": "revokeRole",
      "outputs": [],
      "stateMutability": "nonpayable",
      "type": "function"
    },
    {
      "inputs": [
        {
          "internalType": "bytes4",
          "name": "",
          "type": "bytes4"
        }
      ],
      "name": "selectorImplementation",
      "outputs": [
        {
          "internalType": "address",
          "name": "",
          "type": "address"
        }
      ],
      "stateMutability": "view",
      "type": "function"
    },
    {
      "inputs": [
        {
          "internalType": "bytes4",
          "name": "interfaceId",
          "type": "bytes4"
        }
      ],
      "name": "supportsInterface",
      "outputs": [
        {
          "internalType": "bool",
          "name": "",
          "type": "bool"
        }
      ],
      "stateMutability": "view",
      "type": "function"
    },
    {
      "inputs": [
        {
          "internalType": "address",
          "name": "_token",
          "type": "address"
        },
        {
          "internalType": "uint256",
          "name": "_timestamp",
          "type": "uint256"
        }
      ],
      "name": "tokensPerWeekAt",
      "outputs": [
        {
          "internalType": "uint256",
          "name": "epochNumber",
          "type": "uint256"
        },
        {
          "internalType": "uint256",
          "name": "amount",
          "type": "uint256"
        }
      ],
      "stateMutability": "view",
      "type": "function"
    },
    {
      "inputs": [
        {
          "internalType": "address",
          "name": "newAdmin",
          "type": "address"
        }
      ],
      "name": "transferAdmin",
      "outputs": [],
      "stateMutability": "nonpayable",
      "type": "function"
    },
    {
      "inputs": [],
      "name": "universalStos",
      "outputs": [
        {
          "internalType": "address",
          "name": "",
          "type": "address"
        }
      ],
      "stateMutability": "view",
      "type": "function"
    }
  ],
  "bytecode": "0x608060405234801561001057600080fd5b5061246c806100206000396000f3fe6080604052600436106102195760003560e01c806375b238fc1161011d578063cd6dc687116100b0578063e1de599b1161007f578063efb93e9611610064578063efb93e9614610731578063fb93210814610751578063fd2dcecf1461076457600080fd5b8063e1de599b146106f1578063e3ba18a51461071157600080fd5b8063cd6dc68714610671578063d4570c1c14610691578063d4abe717146106b1578063d547741f146106d157600080fd5b80639353b9df116100ec5780639353b9df146105a9578063a217fddf14610606578063b911135f1461061b578063c83d3c471461065157600080fd5b806375b238fc146104cd57806377222509146105015780637b7eb2e21461052e57806391d148541461056357600080fd5b8063324fb13b116101b0578063550d01a31161017f57806363a8fd891161016457806363a8fd8914610473578063704802751461048d57806375829def146104ad57600080fd5b8063550d01a31461041557806362e40c241461044557600080fd5b8063324fb13b1461036757806336568abe1461038757806337a15503146103a757806350d2a276146103df57600080fd5b8063248a9ca3116101ec578063248a9ca3146102d757806324d7806c146103075780632f2ff15d14610327578063324cd9b11461034757600080fd5b806301ffc9a71461021e5780631785f53c146102535780631e83409a146102755780632298524614610295575b600080fd5b34801561022a57600080fd5b5061023e610239366004612039565b61077a565b60405190151581526020015b60405180910390f35b34801561025f57600080fd5b5061027361026e36600461207f565b6107b1565b005b34801561028157600080fd5b5061027361029036600461207f565b610843565b3480156102a157600080fd5b506102c97ffb5864e8ff833c3cb2d2d08505e82ff02a43554c74a35d4f5a64e8526127831181565b60405190815260200161024a565b3480156102e357600080fd5b506102c96102f236600461209a565b60009081526004602052604090206001015490565b34801561031357600080fd5b5061023e61032236600461207f565b610855565b34801561033357600080fd5b506102736103423660046120b3565b610895565b34801561035357600080fd5b506102c96103623660046120df565b6108bf565b34801561037357600080fd5b506102c9610382366004612109565b610916565b34801561039357600080fd5b506102736103a23660046120b3565b610a40565b3480156103b357600080fd5b506103c76103c236600461209a565b610acc565b6040516001600160a01b03909116815260200161024a565b3480156103eb57600080fd5b506103c76103fa366004612039565b6003602052600090815260409020546001600160a01b031681565b34801561042157600080fd5b5061023e61043036600461207f565b60026020526000908152604090205460ff1681565b34801561045157600080fd5b5061046561046036600461207f565b610af6565b60405161024a92919061213c565b34801561047f57600080fd5b5060005461023e9060ff1681565b34801561049957600080fd5b506102736104a836600461207f565b610c1a565b3480156104b957600080fd5b506102736104c836600461207f565b610ca4565b3480156104d957600080fd5b506102c97fdf8b4c520ffe197c5343c6f5aec59570151ef9a492f2c624fd45ddde6135ec4281565b34801561050d57600080fd5b506102c961051c36600461207f565b60076020526000908152604090205481565b34801561053a57600080fd5b5061054e6105493660046120df565b610e06565b6040805192835260208301919091520161024a565b34801561056f57600080fd5b5061023e61057e3660046120b3565b60009182526004602090815260408084206001600160a01b0393909316845291905290205460ff1690565b3480156105b557600080fd5b506105e96105c436600461207f565b60086020526000908152604090208054600182015460029092015460ff909116919083565b60408051931515845260208401929092529082015260600161024a565b34801561061257600080fd5b506102c9600081565b34801561062757600080fd5b506103c761063636600461209a565b6001602052600090815260409020546001600160a01b031681565b34801561065d57600080fd5b506005546103c7906001600160a01b031681565b34801561067d57600080fd5b5061027361068c3660046120df565b610e44565b34801561069d57600080fd5b506102c96106ac3660046121c0565b610ed7565b3480156106bd57600080fd5b506102736106cc3660046121ea565b610f54565b3480156106dd57600080fd5b506102736106ec3660046120b3565b610f99565b3480156106fd57600080fd5b5061027361070c3660046120df565b610fbe565b34801561071d57600080fd5b5061027361072c3660046120df565b611289565b34801561073d57600080fd5b506102c961074c36600461207f565b6115dc565b61027361075f3660046120df565b611635565b34801561077057600080fd5b506102c960065481565b60006001600160e01b03198216637965db0b60e01b14806107ab57506301ffc9a760e01b6001600160e01b03198316145b92915050565b6107ba33610855565b6108165760405162461bcd60e51b815260206004820152602260248201527f41636365737369626c653a2043616c6c6572206973206e6f7420616e2061646d60448201526134b760f11b60648201526084015b60405180910390fd5b6108407fdf8b4c520ffe197c5343c6f5aec59570151ef9a492f2c624fd45ddde6135ec4282610a40565b50565b610840816006544261072c9190612275565b6001600160a01b03811660009081527f2fb794d17134dfdec181ddbac1babb5ab1eb140204ef4d982f294e7fc8b69022602052604081205460ff166107ab565b6000828152600460205260409020600101546108b0816119a2565b6108ba83836119ac565b505050565b6001600160a01b0382166000908152600760205260408120548082036108e95760009150506107ab565b8083116108f757600061090e565b6006546109048285612275565b61090e9190612288565b949350505050565b60055460405163277166bf60e11b81526001600160a01b038581166004830152602482018590526000928392911690634ee2cd7e90604401602060405180830381865afa15801561096b573d6000803e3d6000fd5b505050506040513d601f19601f8201168201806040525081019061098f91906122aa565b600554604051630981b24d60e41b8152600481018790529192506000916001600160a01b039091169063981b24d090602401602060405180830381865afa1580156109de573d6000803e3d6000fd5b505050506040513d601f19601f82011682018060405250810190610a0291906122aa565b9050811580610a0f575080155b15610a1f57600092505050610a39565b80610a2a83866122c3565b610a349190612288565b925050505b9392505050565b6001600160a01b0381163314610abe5760405162461bcd60e51b815260206004820152602f60248201527f416363657373436f6e74726f6c3a2063616e206f6e6c792072656e6f756e636560448201527f20726f6c657320666f722073656c660000000000000000000000000000000000606482015260840161080d565b610ac88282611a4e565b5050565b600b8181548110610adc57600080fd5b6000918252602090912001546001600160a01b0316905081565b6060806000600b8054905067ffffffffffffffff811115610b1957610b196122da565b604051908082528060200260200182016040528015610b42578160200160208202803683370190505b50905060005b600b54811015610bb057610b8385600b8381548110610b6957610b696122f0565b6000918252602090912001546001600160a01b0316610ed7565b828281518110610b9557610b956122f0565b6020908102919091010152610ba981612306565b9050610b48565b50600b8181805480602002602001604051908101604052809291908181526020018280548015610c0957602002820191906000526020600020905b81546001600160a01b03168152600190910190602001808311610beb575b505050505091509250925050915091565b610c2333610855565b610c7a5760405162461bcd60e51b815260206004820152602260248201527f41636365737369626c653a2043616c6c6572206973206e6f7420616e2061646d60448201526134b760f11b606482015260840161080d565b6108407fdf8b4c520ffe197c5343c6f5aec59570151ef9a492f2c624fd45ddde6135ec4282610895565b610cad33610855565b610d045760405162461bcd60e51b815260206004820152602260248201527f41636365737369626c653a2043616c6c6572206973206e6f7420616e2061646d60448201526134b760f11b606482015260840161080d565b6001600160a01b038116610d5a5760405162461bcd60e51b815260206004820152601860248201527f41636365737369626c653a207a65726f20616464726573730000000000000000604482015260640161080d565b6001600160a01b0381163303610db25760405162461bcd60e51b815260206004820152601660248201527f41636365737369626c653a2073616d652061646d696e00000000000000000000604482015260640161080d565b610ddc7fdf8b4c520ffe197c5343c6f5aec59570151ef9a492f2c624fd45ddde6135ec4282610895565b6108407fdf8b4c520ffe197c5343c6f5aec59570151ef9a492f2c624fd45ddde6135ec4233610a40565b6000806000610e1585856108bf565b6001600160a01b0395909516600090815260096020908152604080832088845290915290205494959350505050565b610e4d33610855565b610ea45760405162461bcd60e51b815260206004820152602260248201527f41636365737369626c653a2043616c6c6572206973206e6f7420616e2061646d60448201526134b760f11b606482015260840161080d565b6005805473ffffffffffffffffffffffffffffffffffffffff19166001600160a01b039390931692909217909155600655565b6001600160a01b038116600090815260076020526040812054808203610f015760009150506107ab565b6000610f1584600654426103629190612275565b6001600160a01b038086166000908152600a60209081526040808320938a1683529290522054909150610f4a86868385611ad1565b9695505050505050565b60005b818110156108ba57610f89838383818110610f7457610f746122f0565b9050602002016020810190610290919061207f565b610f9281612306565b9050610f57565b600082815260046020526040902060010154610fb4816119a2565b6108ba8383611a4e565b816001600160a01b0381166110045760405162461bcd60e51b815260206004820152600c60248201526b7a65726f206164647265737360a01b604482015260640161080d565b600c5460ff16156110485760405162461bcd60e51b815260206004820152600e60248201526d616c726561647920696e2075736560901b604482015260640161080d565b600c805460ff19166001179055600061106184426108bf565b90508083106110d85760405162461bcd60e51b815260206004820152602b60248201527f49742063616e206f6e6c7920626520736574206966206974206973207468652060448201527f6c6173742065706f63682e000000000000000000000000000000000000000000606482015260840161080d565b6006546000906110e881866122c3565b6001600160a01b03871660009081526007602052604090205461110b919061231f565b611115919061231f565b600554604051630981b24d60e41b8152600481018390529192506001600160a01b03169063981b24d090602401602060405180830381865afa15801561115f573d6000803e3d6000fd5b505050506040513d601f19601f8201168201806040525081019061118391906122aa565b156111d05760405162461bcd60e51b815260206004820152601b60248201527f546f6b656e2065786973747320666f7220746861742065706f63680000000000604482015260640161080d565b6001600160a01b03851660009081526009602090815260408083208784529091528082205484835290822080549192839261120c90849061231f565b90915550506001600160a01b038616600081815260096020908152604080832089845282528083209290925581518881529081018690529081018390527f1cb7f4652f6aadb7311647870434938dd368ea922f1c0a01b8cfad68df3e6975906060015b60405180910390a25050600c805460ff1916905550505050565b6001600160a01b03821660009081526007602052604081205490036112f05760405162461bcd60e51b815260206004820152600f60248201527f67656e65736973206973207a65726f0000000000000000000000000000000000604482015260640161080d565b6006546001600160a01b038316600090815260076020526040902054611316919061231f565b4210156113655760405162461bcd60e51b815260206004820152600f60248201527f7468652066697273742065706f63680000000000000000000000000000000000604482015260640161080d565b600061137e82600654426113799190612275565b611bb4565b9050600061138c84836108bf565b6001600160a01b0385166000908152600a6020908152604080832033808552925282205492935090916113c191879185611ad1565b9050600081116114135760405162461bcd60e51b815260206004820152601460248201527f6e6f20636c61696d61626c6520616d6c6f756e74000000000000000000000000604482015260640161080d565b6001600160a01b0385166000908152600860205260409020600281015482111561147f5760405162461bcd60e51b815260206004820152601460248201527f696e73756666696369656e742062616c616e6365000000000000000000000000604482015260640161080d565b61148a83600161231f565b6001600160a01b0387166000908152600a602090815260408083203384529091528120919091556002820180548492906114c5908490612275565b909155505073deaddeaddeaddeaddeaddeaddeaddeaddeacffff196001600160a01b03871601611572578147101561153f5760405162461bcd60e51b815260206004820152601460248201527f696e73756666696369656e742062616c616e6365000000000000000000000000604482015260640161080d565b604051339083156108fc029084906000818181858888f1935050505015801561156c573d6000803e3d6000fd5b50611586565b6115866001600160a01b0387163384611bca565b604080518381526020810185905290810186905233906001600160a01b038816907fd795915374024be1f03204e052bd584b33bb85c9128ede9c54adbe0bbdc220959060600160405180910390a3505050505050565b6001600160a01b0381166000908152600760205260408120548082036116055750600092915050565b600061161184426108bf565b60065490915061162181836122c3565b61162b908461231f565b61090e919061231f565b80806000036116735760405162461bcd60e51b815260206004820152600a6024820152697a65726f2076616c756560b01b604482015260640161080d565b826001600160a01b0381166116b95760405162461bcd60e51b815260206004820152600c60248201526b7a65726f206164647265737360a01b604482015260640161080d565b600c5460ff16156116fd5760405162461bcd60e51b815260206004820152600e60248201526d616c726561647920696e2075736560901b604482015260640161080d565b600c805460ff1916600117905573deaddeaddeaddeaddeaddeaddeaddeaddeacffff196001600160a01b0385160161177e5782341461177e5760405162461bcd60e51b815260206004820181905260248201527f64696666657272656e7420616d6f756e742066726f6d206d73672e76616c7565604482015260640161080d565b6001600160a01b03841660009081526007602052604081205490036117ce576006546117aa8142612288565b6117b491906122c3565b6001600160a01b0385166000908152600760205260409020555b60006117da85426108bf565b6001600160a01b038616600090815260086020526040812080549293509160ff161515900361185c57600b80546001810182556000919091527f0175b7a638427703f0dbe7bb9bbf987a2551717b34e79f33b5b1008d1fa01db901805473ffffffffffffffffffffffffffffffffffffffff19166001600160a01b0388161790555b805460ff191660011781556001600160a01b03861673deaddeaddeaddeaddeaddeaddeaddeaddead0000146118a0576118a06001600160a01b038716333088611ce5565b6040516370a0823160e01b81523060048201526001600160a01b038716906370a0823190602401602060405180830381865afa1580156118e4573d6000803e3d6000fd5b505050506040513d601f19601f8201168201806040525081019061190891906122aa565b816002018190555084816001016000828254611924919061231f565b90915550506001600160a01b03861660009081526009602090815260408083208584529091528120805487929061195c90849061231f565b909155505060408051838152602081018790526001600160a01b038816917f60ce3cc2d133631eac66a476f14997a9fa682bd05a60dd993cf02285822d78d8910161126f565b6108408133611e09565b60008281526004602090815260408083206001600160a01b038516845290915290205460ff16610ac85760008281526004602090815260408083206001600160a01b03851684529091529020805460ff19166001179055611a0a3390565b6001600160a01b0316816001600160a01b0316837f2f8788117e7eff1d82e926ec794901d17c78024a50270940304540a733656f0d60405160405180910390a45050565b60008281526004602090815260408083206001600160a01b038516845290915290205460ff1615610ac85760008281526004602090815260408083206001600160a01b0385168085529252808320805460ff1916905551339285917ff6391f5c32d9c69d2a47ea670b442974b53935d1edc7fd64eb21e047a839171b9190a45050565b600081831115611ae35750600061090e565b6001600160a01b038516600090815260076020526040902054835b838111611baa576001600160a01b038716600090815260096020908152604080832084845290915290205415801590611b3657508115155b15611b9857600654611b8b908790611b4e81856122c3565b611b58908661231f565b611b62919061231f565b6001600160a01b038a166000908152600960209081526040808320878452909152902054610916565b611b95908461231f565b92505b80611ba281612306565b915050611afe565b5050949350505050565b6000818310611bc35781610a39565b5090919050565b604080516001600160a01b038481166024830152604480830185905283518084039091018152606490920183526020820180516001600160e01b031663a9059cbb60e01b1790529151600092839290871691611c269190612356565b6000604051808303816000865af19150503d8060008114611c63576040519150601f19603f3d011682016040523d82523d6000602084013e611c68565b606091505b5091509150818015611c92575080511580611c92575080806020019051810190611c929190612372565b611cde5760405162461bcd60e51b815260206004820152600f60248201527f5452414e534645525f4641494c45440000000000000000000000000000000000604482015260640161080d565b5050505050565b604080516001600160a01b0385811660248301528481166044830152606480830185905283518084039091018152608490920183526020820180516001600160e01b03166323b872dd60e01b1790529151600092839290881691611d499190612356565b6000604051808303816000865af19150503d8060008114611d86576040519150601f19603f3d011682016040523d82523d6000602084013e611d8b565b606091505b5091509150818015611db5575080511580611db5575080806020019051810190611db59190612372565b611e015760405162461bcd60e51b815260206004820152601460248201527f5452414e534645525f46524f4d5f4641494c4544000000000000000000000000604482015260640161080d565b505050505050565b60008281526004602090815260408083206001600160a01b038516845290915290205460ff16610ac857611e3c81611e7e565b611e47836020611e90565b604051602001611e58929190612394565b60408051601f198184030181529082905262461bcd60e51b825261080d91600401612415565b60606107ab6001600160a01b03831660145b60606000611e9f8360026122c3565b611eaa90600261231f565b67ffffffffffffffff811115611ec257611ec26122da565b6040519080825280601f01601f191660200182016040528015611eec576020820181803683370190505b509050600360fc1b81600081518110611f0757611f076122f0565b60200101906001600160f81b031916908160001a905350600f60fb1b81600181518110611f3657611f366122f0565b60200101906001600160f81b031916908160001a9053506000611f5a8460026122c3565b611f6590600161231f565b90505b6001811115611fea577f303132333435363738396162636465660000000000000000000000000000000085600f1660108110611fa657611fa66122f0565b1a60f81b828281518110611fbc57611fbc6122f0565b60200101906001600160f81b031916908160001a90535060049490941c93611fe381612448565b9050611f68565b508315610a395760405162461bcd60e51b815260206004820181905260248201527f537472696e67733a20686578206c656e67746820696e73756666696369656e74604482015260640161080d565b60006020828403121561204b57600080fd5b81356001600160e01b031981168114610a3957600080fd5b80356001600160a01b038116811461207a57600080fd5b919050565b60006020828403121561209157600080fd5b610a3982612063565b6000602082840312156120ac57600080fd5b5035919050565b600080604083850312156120c657600080fd5b823591506120d660208401612063565b90509250929050565b600080604083850312156120f257600080fd5b6120fb83612063565b946020939093013593505050565b60008060006060848603121561211e57600080fd5b61212784612063565b95602085013595506040909401359392505050565b604080825283519082018190526000906020906060840190828701845b8281101561217e5781516001600160a01b031684529284019290840190600101612159565b5050508381038285015284518082528583019183019060005b818110156121b357835183529284019291840191600101612197565b5090979650505050505050565b600080604083850312156121d357600080fd5b6121dc83612063565b91506120d660208401612063565b600080602083850312156121fd57600080fd5b823567ffffffffffffffff8082111561221557600080fd5b818501915085601f83011261222957600080fd5b81358181111561223857600080fd5b8660208260051b850101111561224d57600080fd5b60209290920196919550909350505050565b634e487b7160e01b600052601160045260246000fd5b818103818111156107ab576107ab61225f565b6000826122a557634e487b7160e01b600052601260045260246000fd5b500490565b6000602082840312156122bc57600080fd5b5051919050565b80820281158282048414176107ab576107ab61225f565b634e487b7160e01b600052604160045260246000fd5b634e487b7160e01b600052603260045260246000fd5b6000600182016123185761231861225f565b5060010190565b808201808211156107ab576107ab61225f565b60005b8381101561234d578181015183820152602001612335565b50506000910152565b60008251612368818460208701612332565b9190910192915050565b60006020828403121561238457600080fd5b81518015158114610a3957600080fd5b7f416363657373436f6e74726f6c3a206163636f756e74200000000000000000008152600083516123cc816017850160208801612332565b7f206973206d697373696e6720726f6c65200000000000000000000000000000006017918401918201528351612409816028840160208801612332565b01602801949350505050565b6020815260008251806020840152612434816040850160208701612332565b601f01601f19169190910160400192915050565b6000816124575761245761225f565b50600019019056fea164736f6c6343000812000a",
  "linkReferences": {},
  "deployedLinkReferences": {}
}