{
  "address": "0xb027ECab8a53A3fC232aA62b7bBe5AF44a77D49d",
  "abi": [
    {
      "inputs": [],
      "stateMutability": "nonpayable",
      "type": "constructor"
    },
    {
      "anonymous": false,
      "inputs": [
        {
          "indexed": true,
          "internalType": "address",
          "name": "l1Token",
          "type": "address"
        },
        {
          "indexed": true,
          "internalType": "address",
          "name": "l2Token",
          "type": "address"
        },
        {
          "indexed": false,
          "internalType": "address",
          "name": "projectOwner",
          "type": "address"
        },
        {
          "indexed": false,
          "internalType": "string",
          "name": "projectName",
          "type": "string"
        }
      ],
      "name": "CreatedL2Project",
      "type": "event"
    },
    {
      "anonymous": false,
      "inputs": [
        {
          "indexed": false,
          "internalType": "address",
          "name": "l1Token",
          "type": "address"
        },
        {
          "indexed": false,
          "internalType": "address",
          "name": "l2Token",
          "type": "address"
        },
        {
          "indexed": false,
          "internalType": "uint256",
          "name": "projectId",
          "type": "uint256"
        },
        {
          "indexed": false,
          "internalType": "uint256",
          "name": "totalAmount",
          "type": "uint256"
        }
      ],
      "name": "DistributedL2Token",
      "type": "event"
    },
    {
      "anonymous": false,
      "inputs": [
        {
          "indexed": true,
          "internalType": "bytes32",
          "name": "role",
          "type": "bytes32"
        },
        {
          "indexed": true,
          "internalType": "bytes32",
          "name": "previousAdminRole",
          "type": "bytes32"
        },
        {
          "indexed": true,
          "internalType": "bytes32",
          "name": "newAdminRole",
          "type": "bytes32"
        }
      ],
      "name": "RoleAdminChanged",
      "type": "event"
    },
    {
      "anonymous": false,
      "inputs": [
        {
          "indexed": true,
          "internalType": "bytes32",
          "name": "role",
          "type": "bytes32"
        },
        {
          "indexed": true,
          "internalType": "address",
          "name": "account",
          "type": "address"
        },
        {
          "indexed": true,
          "internalType": "address",
          "name": "sender",
          "type": "address"
        }
      ],
      "name": "RoleGranted",
      "type": "event"
    },
    {
      "anonymous": false,
      "inputs": [
        {
          "indexed": true,
          "internalType": "bytes32",
          "name": "role",
          "type": "bytes32"
        },
        {
          "indexed": true,
          "internalType": "address",
          "name": "account",
          "type": "address"
        },
        {
          "indexed": true,
          "internalType": "address",
          "name": "sender",
          "type": "address"
        }
      ],
      "name": "RoleRevoked",
      "type": "event"
    },
    {
      "inputs": [],
      "name": "ADMIN_ROLE",
      "outputs": [
        {
          "internalType": "bytes32",
          "name": "",
          "type": "bytes32"
        }
      ],
      "stateMutability": "view",
      "type": "function"
    },
    {
      "inputs": [],
      "name": "DEFAULT_ADMIN_ROLE",
      "outputs": [
        {
          "internalType": "bytes32",
          "name": "",
          "type": "bytes32"
        }
      ],
      "stateMutability": "view",
      "type": "function"
    },
    {
      "inputs": [],
      "name": "POLICY_ROLE",
      "outputs": [
        {
          "internalType": "bytes32",
          "name": "",
          "type": "bytes32"
        }
      ],
      "stateMutability": "view",
      "type": "function"
    },
    {
      "inputs": [
        {
          "internalType": "address",
          "name": "account",
          "type": "address"
        }
      ],
      "name": "addAdmin",
      "outputs": [],
      "stateMutability": "nonpayable",
      "type": "function"
    },
    {
      "inputs": [
        {
          "internalType": "address",
          "name": "",
          "type": "address"
        }
      ],
      "name": "aliveImplementation",
      "outputs": [
        {
          "internalType": "bool",
          "name": "",
          "type": "bool"
        }
      ],
      "stateMutability": "view",
      "type": "function"
    },
    {
      "inputs": [
        {
          "internalType": "address",
          "name": "projectOwner",
          "type": "address"
        },
        {
          "internalType": "address",
          "name": "l1Token",
          "type": "address"
        },
        {
          "internalType": "address",
          "name": "l2Token",
          "type": "address"
        },
        {
          "internalType": "string",
          "name": "projectName",
          "type": "string"
        }
      ],
      "name": "createL2Project",
      "outputs": [],
      "stateMutability": "nonpayable",
      "type": "function"
    },
    {
      "inputs": [
        {
          "internalType": "address",
          "name": "l1Token",
          "type": "address"
        },
        {
          "internalType": "address",
          "name": "l2Token",
          "type": "address"
        },
        {
          "internalType": "uint256",
          "name": "projectId",
          "type": "uint256"
        },
        {
          "internalType": "uint256",
          "name": "totalAmount",
          "type": "uint256"
        },
        {
          "components": [
            {
              "components": [
                {
                  "components": [
                    {
                      "internalType": "uint256",
                      "name": "stosTier1",
                      "type": "uint256"
                    },
                    {
                      "internalType": "uint256",
                      "name": "stosTier2",
                      "type": "uint256"
                    },
                    {
                      "internalType": "uint256",
                      "name": "stosTier3",
                      "type": "uint256"
                    },
                    {
                      "internalType": "uint256",
                      "name": "stosTier4",
                      "type": "uint256"
                    },
                    {
                      "internalType": "uint256",
                      "name": "tier1Percents",
                      "type": "uint256"
                    },
                    {
                      "internalType": "uint256",
                      "name": "tier2Percents",
                      "type": "uint256"
                    },
                    {
                      "internalType": "uint256",
                      "name": "tier3Percents",
                      "type": "uint256"
                    },
                    {
                      "internalType": "uint256",
                      "name": "tier4Percents",
                      "type": "uint256"
                    },
                    {
                      "internalType": "uint256",
                      "name": "total1roundSaleAmount",
                      "type": "uint256"
                    },
                    {
                      "internalType": "uint256",
                      "name": "total2roundSaleAmount",
                      "type": "uint256"
                    },
                    {
                      "internalType": "uint256",
                      "name": "saleTokenPrice",
                      "type": "uint256"
                    },
                    {
                      "internalType": "uint256",
                      "name": "payTokenPrice",
                      "type": "uint256"
                    },
                    {
                      "internalType": "uint256",
                      "name": "hardcapAmount",
                      "type": "uint256"
                    },
                    {
                      "internalType": "uint256",
                      "name": "changeTOSPercent",
                      "type": "uint256"
                    },
                    {
                      "internalType": "uint256",
                      "name": "startWhiteTime",
                      "type": "uint256"
                    },
                    {
                      "internalType": "uint256",
                      "name": "endWhiteTime",
                      "type": "uint256"
                    },
                    {
                      "internalType": "uint256",
                      "name": "start1roundTime",
                      "type": "uint256"
                    },
                    {
                      "internalType": "uint256",
                      "name": "end1roundTime",
                      "type": "uint256"
                    },
                    {
                      "internalType": "uint256",
                      "name": "snapshotTime",
                      "type": "uint256"
                    },
                    {
                      "internalType": "uint256",
                      "name": "start2roundTime",
                      "type": "uint256"
                    },
                    {
                      "internalType": "uint256",
                      "name": "end2roundTime",
                      "type": "uint256"
                    },
                    {
                      "internalType": "uint256",
                      "name": "claimCounts",
                      "type": "uint256"
                    }
                  ],
                  "internalType": "struct LibProject.InitalParameterPublicSaleVault",
                  "name": "vaultParams",
                  "type": "tuple"
                },
                {
                  "components": [
                    {
                      "internalType": "uint256[]",
                      "name": "claimTimes",
                      "type": "uint256[]"
                    },
                    {
                      "internalType": "uint256[]",
                      "name": "claimPercents",
                      "type": "uint256[]"
                    }
                  ],
                  "internalType": "struct LibProject.InitalParameterPublicSaleClaim",
                  "name": "claimParams",
                  "type": "tuple"
                }
              ],
              "internalType": "struct LibProject.InitalParameterPublicSale",
              "name": "publicSaleParams",
              "type": "tuple"
            },
            {
              "components": [
                {
                  "internalType": "uint256",
                  "name": "totalAllocatedAmount",
                  "type": "uint256"
                },
                {
                  "internalType": "uint256",
                  "name": "tosPrice",
                  "type": "uint256"
                },
                {
                  "internalType": "uint256",
                  "name": "tokenPrice",
                  "type": "uint256"
                },
                {
                  "internalType": "uint256",
                  "name": "initSqrtPrice",
                  "type": "uint256"
                },
                {
                  "internalType": "uint32",
                  "name": "startTime",
                  "type": "uint32"
                },
                {
                  "internalType": "uint16",
                  "name": "fee",
                  "type": "uint16"
                }
              ],
              "internalType": "struct LibProject.InitalParameterInitialLiquidityVault",
              "name": "initialVaultParams",
              "type": "tuple"
            },
            {
              "components": [
                {
                  "internalType": "address",
                  "name": "poolAddress",
                  "type": "address"
                },
                {
                  "components": [
                    {
                      "internalType": "address",
                      "name": "claimer",
                      "type": "address"
                    },
                    {
                      "internalType": "uint256",
                      "name": "totalAllocatedAmount",
                      "type": "uint256"
                    },
                    {
                      "internalType": "uint256",
                      "name": "totalClaimCount",
                      "type": "uint256"
                    },
                    {
                      "internalType": "uint256",
                      "name": "firstClaimAmount",
                      "type": "uint256"
                    },
                    {
                      "internalType": "uint32",
                      "name": "firstClaimTime",
                      "type": "uint32"
                    },
                    {
                      "internalType": "uint32",
                      "name": "secondClaimTime",
                      "type": "uint32"
                    },
                    {
                      "internalType": "uint32",
                      "name": "roundIntervalTime",
                      "type": "uint32"
                    }
                  ],
                  "internalType": "struct LibProject.InitalParameterScheduleVault",
                  "name": "params",
                  "type": "tuple"
                }
              ],
              "internalType": "struct LibProject.InitalParameterLiquidityRewardVault",
              "name": "rewardParams",
              "type": "tuple"
            },
            {
              "components": [
                {
                  "internalType": "address",
                  "name": "claimer",
                  "type": "address"
                },
                {
                  "internalType": "uint256",
                  "name": "totalAllocatedAmount",
                  "type": "uint256"
                },
                {
                  "internalType": "uint256",
                  "name": "totalClaimCount",
                  "type": "uint256"
                },
                {
                  "internalType": "uint256",
                  "name": "firstClaimAmount",
                  "type": "uint256"
                },
                {
                  "internalType": "uint32",
                  "name": "firstClaimTime",
                  "type": "uint32"
                },
                {
                  "internalType": "uint32",
                  "name": "secondClaimTime",
                  "type": "uint32"
                },
                {
                  "internalType": "uint32",
                  "name": "roundIntervalTime",
                  "type": "uint32"
                }
              ],
              "internalType": "struct LibProject.InitalParameterScheduleVault",
              "name": "tosAirdropParams",
              "type": "tuple"
            },
            {
              "components": [
                {
                  "internalType": "address",
                  "name": "claimer",
                  "type": "address"
                },
                {
                  "internalType": "uint256",
                  "name": "totalAllocatedAmount",
                  "type": "uint256"
                },
                {
                  "internalType": "uint256",
                  "name": "totalClaimCount",
                  "type": "uint256"
                },
                {
                  "internalType": "uint256",
                  "name": "firstClaimAmount",
                  "type": "uint256"
                },
                {
                  "internalType": "uint32",
                  "name": "firstClaimTime",
                  "type": "uint32"
                },
                {
                  "internalType": "uint32",
                  "name": "secondClaimTime",
                  "type": "uint32"
                },
                {
                  "internalType": "uint32",
                  "name": "roundIntervalTime",
                  "type": "uint32"
                }
              ],
              "internalType": "struct LibProject.InitalParameterScheduleVault",
              "name": "tonAirdropParams",
              "type": "tuple"
            }
          ],
          "internalType": "struct LibProject.TokamakVaults",
          "name": "tokamakVaults",
          "type": "tuple"
        },
        {
          "components": [
            {
              "internalType": "string",
              "name": "vaultName",
              "type": "string"
            },
            {
              "components": [
                {
                  "internalType": "address",
                  "name": "claimer",
                  "type": "address"
                },
                {
                  "internalType": "uint256",
                  "name": "totalAllocatedAmount",
                  "type": "uint256"
                },
                {
                  "internalType": "uint256",
                  "name": "totalClaimCount",
                  "type": "uint256"
                },
                {
                  "internalType": "uint256",
                  "name": "firstClaimAmount",
                  "type": "uint256"
                },
                {
                  "internalType": "uint32",
                  "name": "firstClaimTime",
                  "type": "uint32"
                },
                {
                  "internalType": "uint32",
                  "name": "secondClaimTime",
                  "type": "uint32"
                },
                {
                  "internalType": "uint32",
                  "name": "roundIntervalTime",
                  "type": "uint32"
                }
              ],
              "internalType": "struct LibProject.InitalParameterScheduleVault",
              "name": "params",
              "type": "tuple"
            }
          ],
          "internalType": "struct LibProject.InitalParameterSchedule[]",
          "name": "customScheduleVaults",
          "type": "tuple[]"
        },
        {
          "components": [
            {
              "internalType": "string",
              "name": "vaultName",
              "type": "string"
            },
            {
              "internalType": "address",
              "name": "claimer",
              "type": "address"
            },
            {
              "internalType": "uint256",
              "name": "totalAllocatedAmount",
              "type": "uint256"
            }
          ],
          "internalType": "struct LibProject.InitalParameterNonScheduleVault[]",
          "name": "customNonScheduleVaults",
          "type": "tuple[]"
        }
      ],
      "name": "distributesL2Token",
      "outputs": [],
      "stateMutability": "nonpayable",
      "type": "function"
    },
    {
      "inputs": [
        {
          "internalType": "address",
          "name": "l1Token",
          "type": "address"
        },
        {
          "internalType": "address",
          "name": "l2Token",
          "type": "address"
        },
        {
          "internalType": "uint256",
          "name": "projectId",
          "type": "uint256"
        },
        {
          "internalType": "uint256",
          "name": "totalAmount",
          "type": "uint256"
        },
        {
          "components": [
            {
              "components": [
                {
                  "components": [
                    {
                      "internalType": "uint256",
                      "name": "stosTier1",
                      "type": "uint256"
                    },
                    {
                      "internalType": "uint256",
                      "name": "stosTier2",
                      "type": "uint256"
                    },
                    {
                      "internalType": "uint256",
                      "name": "stosTier3",
                      "type": "uint256"
                    },
                    {
                      "internalType": "uint256",
                      "name": "stosTier4",
                      "type": "uint256"
                    },
                    {
                      "internalType": "uint256",
                      "name": "tier1Percents",
                      "type": "uint256"
                    },
                    {
                      "internalType": "uint256",
                      "name": "tier2Percents",
                      "type": "uint256"
                    },
                    {
                      "internalType": "uint256",
                      "name": "tier3Percents",
                      "type": "uint256"
                    },
                    {
                      "internalType": "uint256",
                      "name": "tier4Percents",
                      "type": "uint256"
                    },
                    {
                      "internalType": "uint256",
                      "name": "total1roundSaleAmount",
                      "type": "uint256"
                    },
                    {
                      "internalType": "uint256",
                      "name": "total2roundSaleAmount",
                      "type": "uint256"
                    },
                    {
                      "internalType": "uint256",
                      "name": "saleTokenPrice",
                      "type": "uint256"
                    },
                    {
                      "internalType": "uint256",
                      "name": "payTokenPrice",
                      "type": "uint256"
                    },
                    {
                      "internalType": "uint256",
                      "name": "hardcapAmount",
                      "type": "uint256"
                    },
                    {
                      "internalType": "uint256",
                      "name": "changeTOSPercent",
                      "type": "uint256"
                    },
                    {
                      "internalType": "uint256",
                      "name": "startWhiteTime",
                      "type": "uint256"
                    },
                    {
                      "internalType": "uint256",
                      "name": "endWhiteTime",
                      "type": "uint256"
                    },
                    {
                      "internalType": "uint256",
                      "name": "start1roundTime",
                      "type": "uint256"
                    },
                    {
                      "internalType": "uint256",
                      "name": "end1roundTime",
                      "type": "uint256"
                    },
                    {
                      "internalType": "uint256",
                      "name": "snapshotTime",
                      "type": "uint256"
                    },
                    {
                      "internalType": "uint256",
                      "name": "start2roundTime",
                      "type": "uint256"
                    },
                    {
                      "internalType": "uint256",
                      "name": "end2roundTime",
                      "type": "uint256"
                    },
                    {
                      "internalType": "uint256",
                      "name": "claimCounts",
                      "type": "uint256"
                    }
                  ],
                  "internalType": "struct LibProject.InitalParameterPublicSaleVault",
                  "name": "vaultParams",
                  "type": "tuple"
                },
                {
                  "components": [
                    {
                      "internalType": "uint256[]",
                      "name": "claimTimes",
                      "type": "uint256[]"
                    },
                    {
                      "internalType": "uint256[]",
                      "name": "claimPercents",
                      "type": "uint256[]"
                    }
                  ],
                  "internalType": "struct LibProject.InitalParameterPublicSaleClaim",
                  "name": "claimParams",
                  "type": "tuple"
                }
              ],
              "internalType": "struct LibProject.InitalParameterPublicSale",
              "name": "publicSaleParams",
              "type": "tuple"
            },
            {
              "components": [
                {
                  "internalType": "uint256",
                  "name": "totalAllocatedAmount",
                  "type": "uint256"
                },
                {
                  "internalType": "uint256",
                  "name": "tosPrice",
                  "type": "uint256"
                },
                {
                  "internalType": "uint256",
                  "name": "tokenPrice",
                  "type": "uint256"
                },
                {
                  "internalType": "uint256",
                  "name": "initSqrtPrice",
                  "type": "uint256"
                },
                {
                  "internalType": "uint32",
                  "name": "startTime",
                  "type": "uint32"
                },
                {
                  "internalType": "uint16",
                  "name": "fee",
                  "type": "uint16"
                }
              ],
              "internalType": "struct LibProject.InitalParameterInitialLiquidityVault",
              "name": "initialVaultParams",
              "type": "tuple"
            },
            {
              "components": [
                {
                  "internalType": "address",
                  "name": "poolAddress",
                  "type": "address"
                },
                {
                  "components": [
                    {
                      "internalType": "address",
                      "name": "claimer",
                      "type": "address"
                    },
                    {
                      "internalType": "uint256",
                      "name": "totalAllocatedAmount",
                      "type": "uint256"
                    },
                    {
                      "internalType": "uint256",
                      "name": "totalClaimCount",
                      "type": "uint256"
                    },
                    {
                      "internalType": "uint256",
                      "name": "firstClaimAmount",
                      "type": "uint256"
                    },
                    {
                      "internalType": "uint32",
                      "name": "firstClaimTime",
                      "type": "uint32"
                    },
                    {
                      "internalType": "uint32",
                      "name": "secondClaimTime",
                      "type": "uint32"
                    },
                    {
                      "internalType": "uint32",
                      "name": "roundIntervalTime",
                      "type": "uint32"
                    }
                  ],
                  "internalType": "struct LibProject.InitalParameterScheduleVault",
                  "name": "params",
                  "type": "tuple"
                }
              ],
              "internalType": "struct LibProject.InitalParameterLiquidityRewardVault",
              "name": "rewardParams",
              "type": "tuple"
            },
            {
              "components": [
                {
                  "internalType": "address",
                  "name": "claimer",
                  "type": "address"
                },
                {
                  "internalType": "uint256",
                  "name": "totalAllocatedAmount",
                  "type": "uint256"
                },
                {
                  "internalType": "uint256",
                  "name": "totalClaimCount",
                  "type": "uint256"
                },
                {
                  "internalType": "uint256",
                  "name": "firstClaimAmount",
                  "type": "uint256"
                },
                {
                  "internalType": "uint32",
                  "name": "firstClaimTime",
                  "type": "uint32"
                },
                {
                  "internalType": "uint32",
                  "name": "secondClaimTime",
                  "type": "uint32"
                },
                {
                  "internalType": "uint32",
                  "name": "roundIntervalTime",
                  "type": "uint32"
                }
              ],
              "internalType": "struct LibProject.InitalParameterScheduleVault",
              "name": "tosAirdropParams",
              "type": "tuple"
            },
            {
              "components": [
                {
                  "internalType": "address",
                  "name": "claimer",
                  "type": "address"
                },
                {
                  "internalType": "uint256",
                  "name": "totalAllocatedAmount",
                  "type": "uint256"
                },
                {
                  "internalType": "uint256",
                  "name": "totalClaimCount",
                  "type": "uint256"
                },
                {
                  "internalType": "uint256",
                  "name": "firstClaimAmount",
                  "type": "uint256"
                },
                {
                  "internalType": "uint32",
                  "name": "firstClaimTime",
                  "type": "uint32"
                },
                {
                  "internalType": "uint32",
                  "name": "secondClaimTime",
                  "type": "uint32"
                },
                {
                  "internalType": "uint32",
                  "name": "roundIntervalTime",
                  "type": "uint32"
                }
              ],
              "internalType": "struct LibProject.InitalParameterScheduleVault",
              "name": "tonAirdropParams",
              "type": "tuple"
            }
          ],
          "internalType": "struct LibProject.TokamakVaults",
          "name": "tokamakVaults",
          "type": "tuple"
        },
        {
          "components": [
            {
              "internalType": "string",
              "name": "vaultName",
              "type": "string"
            },
            {
              "components": [
                {
                  "internalType": "address",
                  "name": "claimer",
                  "type": "address"
                },
                {
                  "internalType": "uint256",
                  "name": "totalAllocatedAmount",
                  "type": "uint256"
                },
                {
                  "internalType": "uint256",
                  "name": "totalClaimCount",
                  "type": "uint256"
                },
                {
                  "internalType": "uint256",
                  "name": "firstClaimAmount",
                  "type": "uint256"
                },
                {
                  "internalType": "uint32",
                  "name": "firstClaimTime",
                  "type": "uint32"
                },
                {
                  "internalType": "uint32",
                  "name": "secondClaimTime",
                  "type": "uint32"
                },
                {
                  "internalType": "uint32",
                  "name": "roundIntervalTime",
                  "type": "uint32"
                }
              ],
              "internalType": "struct LibProject.InitalParameterScheduleVault",
              "name": "params",
              "type": "tuple"
            }
          ],
          "internalType": "struct LibProject.InitalParameterSchedule[]",
          "name": "customScheduleVaults",
          "type": "tuple[]"
        },
        {
          "components": [
            {
              "internalType": "string",
              "name": "vaultName",
              "type": "string"
            },
            {
              "internalType": "address",
              "name": "claimer",
              "type": "address"
            },
            {
              "internalType": "uint256",
              "name": "totalAllocatedAmount",
              "type": "uint256"
            }
          ],
          "internalType": "struct LibProject.InitalParameterNonScheduleVault[]",
          "name": "customNonScheduleVaults",
          "type": "tuple[]"
        }
      ],
      "name": "distributesL2TokenOwner",
      "outputs": [],
      "stateMutability": "nonpayable",
      "type": "function"
    },
    {
      "inputs": [
        {
          "internalType": "bytes32",
          "name": "role",
          "type": "bytes32"
        }
      ],
      "name": "getRoleAdmin",
      "outputs": [
        {
          "internalType": "bytes32",
          "name": "",
          "type": "bytes32"
        }
      ],
      "stateMutability": "view",
      "type": "function"
    },
    {
      "inputs": [
        {
          "internalType": "bytes32",
          "name": "role",
          "type": "bytes32"
        },
        {
          "internalType": "address",
          "name": "account",
          "type": "address"
        }
      ],
      "name": "grantRole",
      "outputs": [],
      "stateMutability": "nonpayable",
      "type": "function"
    },
    {
      "inputs": [
        {
          "internalType": "bytes32",
          "name": "role",
          "type": "bytes32"
        },
        {
          "internalType": "address",
          "name": "account",
          "type": "address"
        }
      ],
      "name": "hasRole",
      "outputs": [
        {
          "internalType": "bool",
          "name": "",
          "type": "bool"
        }
      ],
      "stateMutability": "view",
      "type": "function"
    },
    {
      "inputs": [],
      "name": "initialLiquidityVault",
      "outputs": [
        {
          "internalType": "address",
          "name": "",
          "type": "address"
        }
      ],
      "stateMutability": "view",
      "type": "function"
    },
    {
      "inputs": [
        {
          "internalType": "address",
          "name": "account",
          "type": "address"
        }
      ],
      "name": "isAdmin",
      "outputs": [
        {
          "internalType": "bool",
          "name": "",
          "type": "bool"
        }
      ],
      "stateMutability": "view",
      "type": "function"
    },
    {
      "inputs": [],
      "name": "l1ProjectManager",
      "outputs": [
        {
          "internalType": "address",
          "name": "",
          "type": "address"
        }
      ],
      "stateMutability": "view",
      "type": "function"
    },
    {
      "inputs": [],
      "name": "l2CrossDomainMessenger",
      "outputs": [
        {
          "internalType": "address",
          "name": "",
          "type": "address"
        }
      ],
      "stateMutability": "view",
      "type": "function"
    },
    {
      "inputs": [],
      "name": "l2TokenFactory",
      "outputs": [
        {
          "internalType": "address",
          "name": "",
          "type": "address"
        }
      ],
      "stateMutability": "view",
      "type": "function"
    },
    {
      "inputs": [],
      "name": "liquidityRewardVault",
      "outputs": [
        {
          "internalType": "address",
          "name": "",
          "type": "address"
        }
      ],
      "stateMutability": "view",
      "type": "function"
    },
    {
      "inputs": [],
      "name": "nonScheduleVault",
      "outputs": [
        {
          "internalType": "address",
          "name": "",
          "type": "address"
        }
      ],
      "stateMutability": "view",
      "type": "function"
    },
    {
      "inputs": [],
      "name": "pauseProxy",
      "outputs": [
        {
          "internalType": "bool",
          "name": "",
          "type": "bool"
        }
      ],
      "stateMutability": "view",
      "type": "function"
    },
    {
      "inputs": [
        {
          "internalType": "address",
          "name": "",
          "type": "address"
        }
      ],
      "name": "projects",
      "outputs": [
        {
          "internalType": "uint256",
          "name": "projectId",
          "type": "uint256"
        },
        {
          "internalType": "address",
          "name": "projectOwner",
          "type": "address"
        },
        {
          "internalType": "address",
          "name": "l1Token",
          "type": "address"
        },
        {
          "internalType": "address",
          "name": "l2Token",
          "type": "address"
        },
        {
          "internalType": "string",
          "name": "projectName",
          "type": "string"
        }
      ],
      "stateMutability": "view",
      "type": "function"
    },
    {
      "inputs": [
        {
          "internalType": "uint256",
          "name": "",
          "type": "uint256"
        }
      ],
      "name": "proxyImplementation",
      "outputs": [
        {
          "internalType": "address",
          "name": "",
          "type": "address"
        }
      ],
      "stateMutability": "view",
      "type": "function"
    },
    {
      "inputs": [],
      "name": "publicSaleVault",
      "outputs": [
        {
          "internalType": "address",
          "name": "",
          "type": "address"
        }
      ],
      "stateMutability": "view",
      "type": "function"
    },
    {
      "inputs": [
        {
          "internalType": "address",
          "name": "account",
          "type": "address"
        }
      ],
      "name": "removeAdmin",
      "outputs": [],
      "stateMutability": "nonpayable",
      "type": "function"
    },
    {
      "inputs": [
        {
          "internalType": "bytes32",
          "name": "role",
          "type": "bytes32"
        },
        {
          "internalType": "address",
          "name": "account",
          "type": "address"
        }
      ],
      "name": "renounceRole",
      "outputs": [],
      "stateMutability": "nonpayable",
      "type": "function"
    },
    {
      "inputs": [
        {
          "internalType": "bytes32",
          "name": "role",
          "type": "bytes32"
        },
        {
          "internalType": "address",
          "name": "account",
          "type": "address"
        }
      ],
      "name": "revokeRole",
      "outputs": [],
      "stateMutability": "nonpayable",
      "type": "function"
    },
    {
      "inputs": [],
      "name": "scheduleVault",
      "outputs": [
        {
          "internalType": "address",
          "name": "",
          "type": "address"
        }
      ],
      "stateMutability": "view",
      "type": "function"
    },
    {
      "inputs": [
        {
          "internalType": "bytes4",
          "name": "",
          "type": "bytes4"
        }
      ],
      "name": "selectorImplementation",
      "outputs": [
        {
          "internalType": "address",
          "name": "",
          "type": "address"
        }
      ],
      "stateMutability": "view",
      "type": "function"
    },
    {
      "inputs": [
        {
          "internalType": "address",
          "name": "_l1ProjectManager",
          "type": "address"
        }
      ],
      "name": "setL1ProjectManager",
      "outputs": [],
      "stateMutability": "nonpayable",
      "type": "function"
    },
    {
      "inputs": [
        {
          "internalType": "address",
          "name": "_l2CrossDomainMessenger",
          "type": "address"
        }
      ],
      "name": "setL2CrossDomainMessenger",
      "outputs": [],
      "stateMutability": "nonpayable",
      "type": "function"
    },
    {
      "inputs": [
        {
          "internalType": "address",
          "name": "_l2TokenFactory",
          "type": "address"
        }
      ],
      "name": "setL2TokenFactory",
      "outputs": [],
      "stateMutability": "nonpayable",
      "type": "function"
    },
    {
      "inputs": [
        {
          "internalType": "address",
          "name": "publicSale",
          "type": "address"
        },
        {
          "internalType": "address",
          "name": "initialLiquidity",
          "type": "address"
        },
        {
          "internalType": "address",
          "name": "liquidityReward",
          "type": "address"
        },
        {
          "internalType": "address",
          "name": "tonAirdrop",
          "type": "address"
        },
        {
          "internalType": "address",
          "name": "tosAirdrop",
          "type": "address"
        },
        {
          "internalType": "address",
          "name": "_scheduleVault",
          "type": "address"
        },
        {
          "internalType": "address",
          "name": "_nonScheduleVault",
          "type": "address"
        }
      ],
      "name": "setTokamakVaults",
      "outputs": [],
      "stateMutability": "nonpayable",
      "type": "function"
    },
    {
      "inputs": [
        {
          "internalType": "bytes4",
          "name": "interfaceId",
          "type": "bytes4"
        }
      ],
      "name": "supportsInterface",
      "outputs": [
        {
          "internalType": "bool",
          "name": "",
          "type": "bool"
        }
      ],
      "stateMutability": "view",
      "type": "function"
    },
    {
      "inputs": [
        {
          "internalType": "address",
          "name": "",
          "type": "address"
        }
      ],
      "name": "tokenMaps",
      "outputs": [
        {
          "internalType": "address",
          "name": "",
          "type": "address"
        }
      ],
      "stateMutability": "view",
      "type": "function"
    },
    {
      "inputs": [],
      "name": "tonAirdropVault",
      "outputs": [
        {
          "internalType": "address",
          "name": "",
          "type": "address"
        }
      ],
      "stateMutability": "view",
      "type": "function"
    },
    {
      "inputs": [],
      "name": "tosAirdropVault",
      "outputs": [
        {
          "internalType": "address",
          "name": "",
          "type": "address"
        }
      ],
      "stateMutability": "view",
      "type": "function"
    },
    {
      "inputs": [
        {
          "internalType": "address",
          "name": "newAdmin",
          "type": "address"
        }
      ],
      "name": "transferAdmin",
      "outputs": [],
      "stateMutability": "nonpayable",
      "type": "function"
    },
    {
      "inputs": [
        {
          "internalType": "address",
          "name": "l2token",
          "type": "address"
        }
      ],
      "name": "viewProject",
      "outputs": [
        {
          "components": [
            {
              "internalType": "uint256",
              "name": "projectId",
              "type": "uint256"
            },
            {
              "internalType": "address",
              "name": "projectOwner",
              "type": "address"
            },
            {
              "internalType": "address",
              "name": "l1Token",
              "type": "address"
            },
            {
              "internalType": "address",
              "name": "l2Token",
              "type": "address"
            },
            {
              "internalType": "string",
              "name": "projectName",
              "type": "string"
            }
          ],
          "internalType": "struct LibProject.L2ProjectInfo",
          "name": "",
          "type": "tuple"
        }
      ],
      "stateMutability": "view",
      "type": "function"
    }
  ],
  "transactionHash": "0x7cc71a41f150234db2daedb1ee06832bad58e50297f7a4c7d73282d9e8435165",
  "args": [],
  "numDeployments": 3,
  "solcInputHash": "d0f8f33695cbea0f0631f124b2ac952b",
  "bytecode": "0x60806040526005805460ff191660011790553480156200001e57600080fd5b506200003a600080516020620037c2833981519152806200005b565b62000055600080516020620037c283398151915233620000a6565b6200015a565b600082815260046020526040808220600101805490849055905190918391839186917fbd79b86ffe0ab8e8776151514217cd7cacd52c909f66475c3af44e129f0b00ff9190a4505050565b620000b28282620000b6565b5050565b60008281526004602090815260408083206001600160a01b038516845290915290205460ff16620000b25760008281526004602090815260408083206001600160a01b03851684529091529020805460ff19166001179055620001163390565b6001600160a01b0316816001600160a01b0316837f2f8788117e7eff1d82e926ec794901d17c78024a50270940304540a733656f0d60405160405180910390a45050565b613658806200016a6000396000f3fe608060405234801561001057600080fd5b50600436106102775760003560e01c80637048027511610160578063c519eeac116100d8578063e2ce07291161008c578063eca7b83611610071578063eca7b83614610601578063eddd5e8214610614578063fbef005a1461062757600080fd5b8063e2ce0729146105ce578063e748849b146105e157600080fd5b8063c5b53e68116100bd578063c5b53e681461057f578063d547741f146105a8578063dfb28354146105bb57600080fd5b8063c519eeac14610559578063c51c773a1461056c57600080fd5b8063840e78fd1161012f578063a217fddf11610114578063a217fddf14610515578063b911135f1461051d578063bb3f397a1461054657600080fd5b8063840e78fd146104b857806391d14854146104dc57600080fd5b8063704802751461045357806374a9f5c11461046657806375829def1461047e57806375b238fc1461049157600080fd5b806336568abe116101f3578063550d01a3116101c257806363a8fd89116101a757806363a8fd89146104205780636e53f4271461042d5780636e6e85731461044057600080fd5b8063550d01a3146103ea5780635f2144301461040d57600080fd5b806336568abe14610388578063425d70581461039b5780634bc4447b146103ae57806350d2a276146103c157600080fd5b8063248a9ca31161024a5780632966c4dd1161022f5780632966c4dd146103375780632c8917c8146103625780632f2ff15d1461037557600080fd5b8063248a9ca31461030157806324d7806c1461032457600080fd5b806301ffc9a71461027c5780631785f53c146102a457806322985246146102b95780632415d628146102ee575b600080fd5b61028f61028a3660046125f1565b61063a565b60405190151581526020015b60405180910390f35b6102b76102b2366004612630565b610671565b005b6102e07ffb5864e8ff833c3cb2d2d08505e82ff02a43554c74a35d4f5a64e8526127831181565b60405190815260200161029b565b6102b76102fc366004612d8c565b6106f1565b6102e061030f366004612e4d565b60009081526004602052604090206001015490565b61028f610332366004612630565b6108ab565b600a5461034a906001600160a01b031681565b6040516001600160a01b03909116815260200161029b565b60085461034a906001600160a01b031681565b6102b7610383366004612e66565b6108eb565b6102b7610396366004612e66565b610915565b6102b76103a9366004612e96565b6109a1565b6102b76103bc366004612630565b610c35565b61034a6103cf3660046125f1565b6003602052600090815260409020546001600160a01b031681565b61028f6103f8366004612630565b60026020526000908152604090205460ff1681565b6102b761041b366004612630565b610d28565b60005461028f9060ff1681565b600b5461034a906001600160a01b031681565b600e5461034a906001600160a01b031681565b6102b7610461366004612630565b610e33565b60055461034a9061010090046001600160a01b031681565b6102b761048c366004612630565b610eab565b6102e07fdf8b4c520ffe197c5343c6f5aec59570151ef9a492f2c624fd45ddde6135ec4281565b6104cb6104c6366004612630565b610ffb565b60405161029b959493929190612f8e565b61028f6104ea366004612e66565b60009182526004602090815260408084206001600160a01b0393909316845291905290205460ff1690565b6102e0600081565b61034a61052b366004612e4d565b6001602052600090815260409020546001600160a01b031681565b6102b7610554366004612630565b6110c2565b600d5461034a906001600160a01b031681565b60095461034a906001600160a01b031681565b61034a61058d366004612630565b6010602052600090815260409020546001600160a01b031681565b6102b76105b6366004612e66565b6111b5565b6102b76105c9366004612fd3565b6111da565b6102b76105dc366004612d8c565b61134f565b6105f46105ef366004612630565b611525565b60405161029b9190613069565b600c5461034a906001600160a01b031681565b60065461034a906001600160a01b031681565b60075461034a906001600160a01b031681565b60006001600160e01b03198216637965db0b60e01b148061066b57506301ffc9a760e01b6001600160e01b03198316145b92915050565b61067a336108ab565b6106c45760405162461bcd60e51b8152602060048201526022602482015260008051602061362c83398151915260448201526134b760f11b60648201526084015b60405180910390fd5b6106ee7fdf8b4c520ffe197c5343c6f5aec59570151ef9a492f2c624fd45ddde6135ec4282610915565b50565b6106fa336108ab565b61073f5760405162461bcd60e51b8152602060048201526022602482015260008051602061362c83398151915260448201526134b760f11b60648201526084016106bb565b866001600160a01b03811661077b5760405162461bcd60e51b81526020600482015260026024820152612d1960f11b60448201526064016106bb565b866001600160a01b0381166107b75760405162461bcd60e51b81526020600482015260026024820152612d1960f11b60448201526064016106bb565b86806000036107ed5760405162461bcd60e51b81526020600482015260026024820152615a3160f01b60448201526064016106bb565b86806000036108235760405162461bcd60e51b81526020600482015260026024820152615a3160f01b60448201526064016106bb565b6001600160a01b038a81166000908152600f602052604090206001015416331461088f5760405162461bcd60e51b815260206004820152601060248201527f6e6f742070726f6a6563744f776e65720000000000000000000000000000000060448201526064016106bb565b61089e8b8b8b8b8b8b8b611662565b5050505050505050505050565b6001600160a01b03811660009081527f2fb794d17134dfdec181ddbac1babb5ab1eb140204ef4d982f294e7fc8b69022602052604081205460ff1661066b565b6000828152600460205260409020600101546109068161217a565b6109108383612184565b505050565b6001600160a01b03811633146109935760405162461bcd60e51b815260206004820152602f60248201527f416363657373436f6e74726f6c3a2063616e206f6e6c792072656e6f756e636560448201527f20726f6c657320666f722073656c66000000000000000000000000000000000060648201526084016106bb565b61099d8282612226565b5050565b6006546001600160a01b0316158015906109c557506006546001600160a01b031633145b610a115760405162461bcd60e51b815260206004820152601c60248201527f63616c6c6572206973206e6f74206c32546f6b656e466163746f72790000000060448201526064016106bb565b6000819003610a625760405162461bcd60e51b815260206004820152601360248201527f70726f6a6563744e616d65206973206e756c6c0000000000000000000000000060448201526064016106bb565b6001600160a01b038381166000908152600f60205260409020600201541615610acd5760405162461bcd60e51b815260206004820152600d60248201527f616c72656164792061646465640000000000000000000000000000000000000060448201526064016106bb565b6040518060a0016040528060008152602001866001600160a01b03168152602001856001600160a01b03168152602001846001600160a01b0316815260200183838080601f01602080910402602001604051908101604052809392919081815260200183838082843760009201829052509390945250506001600160a01b038087168252600f602090815260409283902085518155908501516001820180549184166001600160a01b031992831617905592850151600282018054918416918516919091179055606085015160038201805491909316931692909217905560808301519091506004820190610bc2908261314d565b5050506001600160a01b038481166000818152601060205260409081902080546001600160a01b0319169387169384179055517f665c02e22efe28364a081a633646b8db53de75e45491bbd51cb302f6e1ab3a2190610c269089908790879061320d565b60405180910390a35050505050565b806001600160a01b038116610c715760405162461bcd60e51b81526020600482015260026024820152612d1960f11b60448201526064016106bb565b610c7a336108ab565b610cbf5760405162461bcd60e51b8152602060048201526022602482015260008051602061362c83398151915260448201526134b760f11b60648201526084016106bb565b6007546001600160a01b03808416911603610d055760405162461bcd60e51b81526004016106bb9060208082526004908201526373616d6560e01b604082015260600190565b50600780546001600160a01b0319166001600160a01b0392909216919091179055565b806001600160a01b038116610d645760405162461bcd60e51b81526020600482015260026024820152612d1960f11b60448201526064016106bb565b610d6d336108ab565b610db25760405162461bcd60e51b8152602060048201526022602482015260008051602061362c83398151915260448201526134b760f11b60648201526084016106bb565b6005546001600160a01b038084166101009092041603610dfd5760405162461bcd60e51b81526004016106bb9060208082526004908201526373616d6560e01b604082015260600190565b50600580546001600160a01b039092166101000274ffffffffffffffffffffffffffffffffffffffff0019909216919091179055565b610e3c336108ab565b610e815760405162461bcd60e51b8152602060048201526022602482015260008051602061362c83398151915260448201526134b760f11b60648201526084016106bb565b6106ee7fdf8b4c520ffe197c5343c6f5aec59570151ef9a492f2c624fd45ddde6135ec42826108eb565b610eb4336108ab565b610ef95760405162461bcd60e51b8152602060048201526022602482015260008051602061362c83398151915260448201526134b760f11b60648201526084016106bb565b6001600160a01b038116610f4f5760405162461bcd60e51b815260206004820152601860248201527f41636365737369626c653a207a65726f2061646472657373000000000000000060448201526064016106bb565b6001600160a01b0381163303610fa75760405162461bcd60e51b815260206004820152601660248201527f41636365737369626c653a2073616d652061646d696e0000000000000000000060448201526064016106bb565b610fd17fdf8b4c520ffe197c5343c6f5aec59570151ef9a492f2c624fd45ddde6135ec42826108eb565b6106ee7fdf8b4c520ffe197c5343c6f5aec59570151ef9a492f2c624fd45ddde6135ec4233610915565b600f602052600090815260409020805460018201546002830154600384015460048501805494956001600160a01b0394851695938516949092169261103f906130c5565b80601f016020809104026020016040519081016040528092919081815260200182805461106b906130c5565b80156110b85780601f1061108d576101008083540402835291602001916110b8565b820191906000526020600020905b81548152906001019060200180831161109b57829003601f168201915b5050505050905085565b806001600160a01b0381166110fe5760405162461bcd60e51b81526020600482015260026024820152612d1960f11b60448201526064016106bb565b611107336108ab565b61114c5760405162461bcd60e51b8152602060048201526022602482015260008051602061362c83398151915260448201526134b760f11b60648201526084016106bb565b6006546001600160a01b038084169116036111925760405162461bcd60e51b81526004016106bb9060208082526004908201526373616d6560e01b604082015260600190565b50600680546001600160a01b0319166001600160a01b0392909216919091179055565b6000828152600460205260409020600101546111d08161217a565b6109108383612226565b6111e3336108ab565b6112285760405162461bcd60e51b8152602060048201526022602482015260008051602061362c83398151915260448201526134b760f11b60648201526084016106bb565b856001600160a01b0381166112645760405162461bcd60e51b81526020600482015260026024820152612d1960f11b60448201526064016106bb565b826001600160a01b0381166112a05760405162461bcd60e51b81526020600482015260026024820152612d1960f11b60448201526064016106bb565b826001600160a01b0381166112dc5760405162461bcd60e51b81526020600482015260026024820152612d1960f11b60448201526064016106bb565b5050600880546001600160a01b03199081166001600160a01b039a8b1617909155600980548216988a169890981790975550600b8054871694881694909417909355600c8054861692871692909217909155600d80548516918616919091179055600e8054909316931692909217905550565b6007546001600160a01b0316331480156113e9575060055460075460408051636e296e4560e01b815290516101009093046001600160a01b0390811693921691636e296e45916004808201926020929091908290030181865afa1580156113ba573d6000803e3d6000fd5b505050506040513d601f19601f820116820180604052508101906113de919061324c565b6001600160a01b0316145b6114415760405162461bcd60e51b8152602060048201526024808201527f6e6f74206f6e6c794d657373656e676572416e644c3150726f6a6563744d616e60448201526330b3b2b960e11b60648201526084016106bb565b866001600160a01b03811661147d5760405162461bcd60e51b81526020600482015260026024820152612d1960f11b60448201526064016106bb565b866001600160a01b0381166114b95760405162461bcd60e51b81526020600482015260026024820152612d1960f11b60448201526064016106bb565b86806000036114ef5760405162461bcd60e51b81526020600482015260026024820152615a3160f01b60448201526064016106bb565b868060000361088f5760405162461bcd60e51b81526020600482015260026024820152615a3160f01b60448201526064016106bb565b6115726040518060a001604052806000815260200160006001600160a01b0316815260200160006001600160a01b0316815260200160006001600160a01b03168152602001606081525090565b6001600160a01b038083166000908152600f6020908152604091829020825160a0810184528154815260018201548516928101929092526002810154841692820192909252600382015490921660608301526004810180546080840191906115d9906130c5565b80601f0160208091040260200160405190810160405280929190818152602001828054611605906130c5565b80156116525780601f1061162757610100808354040283529160200191611652565b820191906000526020600020905b81548152906001019060200180831161163557829003601f168201915b5050505050815250509050919050565b6001600160a01b038087166000908152600f60209081526040808320815160a081018352815481526001820154861693810193909352600281015485169183019190915260038101549093166060820152600483018054929391926080840191906116cc906130c5565b80601f01602080910402602001604051908101604052809291908181526020018280546116f8906130c5565b80156117455780601f1061171a57610100808354040283529160200191611745565b820191906000526020600020905b81548152906001019060200180831161172857829003601f168201915b5050505050815250509050876001600160a01b031681604001516001600160a01b0316146117b55760405162461bcd60e51b815260206004820152601360248201527f6e6f74206d617463686564206c31546f6b656e0000000000000000000000000060448201526064016106bb565b866001600160a01b031681606001516001600160a01b03161461181a5760405162461bcd60e51b815260206004820152601360248201527f6e6f74206d617463686564206c32546f6b656e0000000000000000000000000060448201526064016106bb565b835151610120810151610100909101516000916118369161327f565b90506000856080015160200151866060015160200151876040015160200151602001518860200151600001518561186d919061327f565b611877919061327f565b611881919061327f565b61188b919061327f565b905060008060005b87518110156118dd578781815181106118ae576118ae613292565b60200260200101516020015160200151836118c9919061327f565b9250806118d5816132a8565b915050611893565b5060005b8651811015611927578681815181106118fc576118fc613292565b60200260200101516040015182611913919061327f565b91508061191f816132a8565b9150506118e1565b50611932818361327f565b61193c908461327f565b925088831461198d5760405162461bcd60e51b815260206004820152601760248201527f6e6f74206d61746368656420746f74616c416d6f756e7400000000000000000060448201526064016106bb565b6060850180516001600160a01b039081166000908152600f602052604090208c905590516008546119bf9216866122a9565b606085015160095460208a0151516119e192916001600160a01b0316906122a9565b6060850151600a5460408a01516020908101510151611a0a92916001600160a01b0316906122a9565b6060850151600b5460808a015160200151611a2f92916001600160a01b0316906122a9565b606080860151600c54918a015160200151611a53926001600160a01b0316906122a9565b8315611b395760085460608601516020870151604051631adcd63360e11b81526001600160a01b03928316600482015290821660248201529116906335b9ac6690604401600060405180830381600087803b158015611ab157600080fd5b505af1158015611ac5573d6000803e3d6000fd5b505060085460608801518b5180516020909101516040516352bc80bd60e01b81526001600160a01b0390941695506352bc80bd9450611b0693600401613333565b600060405180830381600087803b158015611b2057600080fd5b505af1158015611b34573d6000803e3d6000fd5b505050505b6020880151805115611d6157600954606087015160208801516040516328f40a9560e11b81526001600160a01b03928316600482015290821660248201529116906351e8152a90604401602060405180830381865afa158015611ba0573d6000803e3d6000fd5b505050506040513d601f19601f82011682018060405250810190611bc49190613475565b611c395760095460608701516020880151604051631adcd63360e11b81526001600160a01b03928316600482015290821660248201529116906335b9ac6690604401600060405180830381600087803b158015611c2057600080fd5b505af1158015611c34573d6000803e3d6000fd5b505050505b600954606087015160208801516040516328f40a9560e11b81526001600160a01b03928316600482015290821660248201529116906351e8152a90604401602060405180830381865afa158015611c94573d6000803e3d6000fd5b505050506040513d601f19601f82011682018060405250810190611cb89190613475565b5060095460608781015160408051632215f6f360e11b81526001600160a01b0392831660048201528551602482015260208601516044820152908501516064820152918401516084830152608084015163ffffffff1660a483015260a084015161ffff1660c48301529091169063442bede69060e401600060405180830381600087803b158015611d4857600080fd5b505af1158015611d5c573d6000803e3d6000fd5b505050505b8a8315611f3857600d54606088015160208901516040516328f40a9560e11b81526001600160a01b03928316600482015290821660248201529116906351e8152a90604401602060405180830381865afa158015611dc3573d6000803e3d6000fd5b505050506040513d601f19601f82011682018060405250810190611de79190613475565b611e5c57600d5460608801516020890151604051631adcd63360e11b81526001600160a01b03928316600482015290821660248201529116906335b9ac6690604401600060405180830381600087803b158015611e4357600080fd5b505af1158015611e57573d6000803e3d6000fd5b505050505b60005b8951811015611f365760008a8281518110611e7c57611e7c613292565b60200260200101519050611eb28960600151600d60009054906101000a90046001600160a01b03168360200151602001516122a9565b600d5460608a01518251602084015160405163baf6ce1f60e01b81526001600160a01b039094169363baf6ce1f93611ef09390929091600401613497565b600060405180830381600087803b158015611f0a57600080fd5b505af1158015611f1e573d6000803e3d6000fd5b50505050508080611f2e906132a8565b915050611e5f565b505b821561211157600e54606088015160208901516040516328f40a9560e11b81526001600160a01b03928316600482015290821660248201529116906351e8152a90604401602060405180830381865afa158015611f99573d6000803e3d6000fd5b505050506040513d601f19601f82011682018060405250810190611fbd9190613475565b61203257600e5460608801516020890151604051631adcd63360e11b81526001600160a01b03928316600482015290821660248201529116906335b9ac6690604401600060405180830381600087803b15801561201957600080fd5b505af115801561202d573d6000803e3d6000fd5b505050505b60005b885181101561210f57600089828151811061205257612052613292565b602002602001015190506120848960600151600e60009054906101000a90046001600160a01b031683604001516122a9565b600e5460608a015182516020840151604080860151905163021a440560e01b81526001600160a01b039095169463021a4405946120c99490939092909160040161351b565b600060405180830381600087803b1580156120e357600080fd5b505af11580156120f7573d6000803e3d6000fd5b50505050508080612107906132a8565b915050612035565b505b6040878101516060808a015183516001600160a01b03938416815292166020830152818301849052810187905290517fc09fbebfef0054b64085d21310e8621dd22206fc0a44cedfa0a2f0fa5b97f7199181900360800190a15050505050505050505050505050565b6106ee81336123ba565b60008281526004602090815260408083206001600160a01b038516845290915290205460ff1661099d5760008281526004602090815260408083206001600160a01b03851684529091529020805460ff191660011790556121e23390565b6001600160a01b0316816001600160a01b0316837f2f8788117e7eff1d82e926ec794901d17c78024a50270940304540a733656f0d60405160405180910390a45050565b60008281526004602090815260408083206001600160a01b038516845290915290205460ff161561099d5760008281526004602090815260408083206001600160a01b0385168085529252808320805460ff1916905551339285917ff6391f5c32d9c69d2a47ea670b442974b53935d1edc7fd64eb21e047a839171b9190a45050565b6001600160a01b038216158015906122c057508015155b801561233c5750604051636eb1769f60e11b81523060048201526001600160a01b03838116602483015282919085169063dd62ed3e90604401602060405180830381865afa158015612316573d6000803e3d6000fd5b505050506040513d601f19601f8201168201806040525081019061233a9190613550565b105b156109105760405163095ea7b360e01b81526001600160a01b0383811660048301526024820183905284169063095ea7b3906044016020604051808303816000875af1158015612390573d6000803e3d6000fd5b505050506040513d601f19601f820116820180604052508101906123b49190613475565b50505050565b60008281526004602090815260408083206001600160a01b038516845290915290205460ff1661099d576123ed8161242f565b6123f8836020612441565b604051602001612409929190613569565b60408051601f198184030181529082905262461bcd60e51b82526106bb916004016135ea565b606061066b6001600160a01b03831660145b606060006124508360026135fd565b61245b90600261327f565b67ffffffffffffffff8111156124735761247361264d565b6040519080825280601f01601f19166020018201604052801561249d576020820181803683370190505b509050600360fc1b816000815181106124b8576124b8613292565b60200101906001600160f81b031916908160001a905350600f60fb1b816001815181106124e7576124e7613292565b60200101906001600160f81b031916908160001a905350600061250b8460026135fd565b61251690600161327f565b90505b600181111561259b577f303132333435363738396162636465660000000000000000000000000000000085600f166010811061255757612557613292565b1a60f81b82828151811061256d5761256d613292565b60200101906001600160f81b031916908160001a90535060049490941c9361259481613614565b9050612519565b5083156125ea5760405162461bcd60e51b815260206004820181905260248201527f537472696e67733a20686578206c656e67746820696e73756666696369656e7460448201526064016106bb565b9392505050565b60006020828403121561260357600080fd5b81356001600160e01b0319811681146125ea57600080fd5b6001600160a01b03811681146106ee57600080fd5b60006020828403121561264257600080fd5b81356125ea8161261b565b634e487b7160e01b600052604160045260246000fd5b6040805190810167ffffffffffffffff811182821017156126865761268661264d565b60405290565b60405160a0810167ffffffffffffffff811182821017156126865761268661264d565b6040516102c0810167ffffffffffffffff811182821017156126865761268661264d565b6040516060810167ffffffffffffffff811182821017156126865761268661264d565b604051601f8201601f1916810167ffffffffffffffff8111828210171561271f5761271f61264d565b604052919050565b600067ffffffffffffffff8211156127415761274161264d565b5060051b60200190565b600082601f83011261275c57600080fd5b8135602061277161276c83612727565b6126f6565b82815260059290921b8401810191818101908684111561279057600080fd5b8286015b848110156127ab5780358352918301918301612794565b509695505050505050565b6000604082840312156127c857600080fd5b6127d0612663565b9050813567ffffffffffffffff808211156127ea57600080fd5b6127f68583860161274b565b8352602084013591508082111561280c57600080fd5b506128198482850161274b565b60208301525092915050565b803563ffffffff8116811461283957600080fd5b919050565b600060c0828403121561285057600080fd5b60405160c0810181811067ffffffffffffffff821117156128735761287361264d565b8060405250809150823581526020830135602082015260408301356040820152606083013560608201526128a960808401612825565b608082015260a083013561ffff811681146128c357600080fd5b60a0919091015292915050565b600060e082840312156128e257600080fd5b60405160e0810181811067ffffffffffffffff821117156129055761290561264d565b60405290508082356129168161261b565b8082525060208301356020820152604083013560408201526060830135606082015261294460808401612825565b608082015261295560a08401612825565b60a082015261296660c08401612825565b60c08201525092915050565b6000610100828403121561298557600080fd5b61298d612663565b9050813561299a8161261b565b81526129a983602084016128d0565b602082015292915050565b60006103a082840312156129c757600080fd5b6129cf61268c565b9050813567ffffffffffffffff808211156129e957600080fd5b908301908185036102e08112156129ff57600080fd5b612a07612663565b6102c080831215612a1757600080fd5b612a1f6126af565b853581526020808701359082015260408087013590820152606080870135908201526080808701359082015260a0808701359082015260c0808701359082015260e08087013590820152610100808701359082015261012080870135908201526101408087013590820152610160808701359082015261018080870135908201526101a080870135908201526101c080870135908201526101e08087013581830152610200808801359083015261022080880135908301526102408088013590830152610260808801359083015261028080880135908301526102a0808801359083015290835281860135935084841115612b1957600080fd5b612b25898588016127b6565b6020840152828752612b3a8960208a0161283e565b6020880152612b4c8960e08a01612972565b6040880152612b5d89828a016128d0565b606088015250612b6f888289016128d0565b6080870152505050505092915050565b600082601f830112612b9057600080fd5b813567ffffffffffffffff811115612baa57612baa61264d565b612bbd601f8201601f19166020016126f6565b818152846020838601011115612bd257600080fd5b816020850160208301376000918101602001919091529392505050565b600082601f830112612c0057600080fd5b81356020612c1061276c83612727565b82815260059290921b84018101918181019086841115612c2f57600080fd5b8286015b848110156127ab57803567ffffffffffffffff80821115612c545760008081fd5b90880190610100828b03601f19011215612c6e5760008081fd5b612c76612663565b8683013582811115612c885760008081fd5b612c968c8983870101612b7f565b825250612ca68b604085016128d0565b8188015285525050918301918301612c33565b600082601f830112612cca57600080fd5b81356020612cda61276c83612727565b82815260059290921b84018101918181019086841115612cf957600080fd5b8286015b848110156127ab57803567ffffffffffffffff80821115612d1e5760008081fd5b908801906060828b03601f1901811315612d385760008081fd5b612d406126d3565b8784013583811115612d525760008081fd5b612d608d8a83880101612b7f565b8252506040925082840135612d748161261b565b81890152920135908201528352918301918301612cfd565b600080600080600080600060e0888a031215612da757600080fd5b8735612db28161261b565b96506020880135612dc28161261b565b95506040880135945060608801359350608088013567ffffffffffffffff80821115612ded57600080fd5b612df98b838c016129b4565b945060a08a0135915080821115612e0f57600080fd5b612e1b8b838c01612bef565b935060c08a0135915080821115612e3157600080fd5b50612e3e8a828b01612cb9565b91505092959891949750929550565b600060208284031215612e5f57600080fd5b5035919050565b60008060408385031215612e7957600080fd5b823591506020830135612e8b8161261b565b809150509250929050565b600080600080600060808688031215612eae57600080fd5b8535612eb98161261b565b94506020860135612ec98161261b565b93506040860135612ed98161261b565b9250606086013567ffffffffffffffff80821115612ef657600080fd5b818801915088601f830112612f0a57600080fd5b813581811115612f1957600080fd5b896020828501011115612f2b57600080fd5b9699959850939650602001949392505050565b60005b83811015612f59578181015183820152602001612f41565b50506000910152565b60008151808452612f7a816020860160208601612f3e565b601f01601f19169290920160200192915050565b85815260006001600160a01b038087166020840152808616604084015280851660608401525060a06080830152612fc860a0830184612f62565b979650505050505050565b600080600080600080600060e0888a031215612fee57600080fd5b8735612ff98161261b565b965060208801356130098161261b565b955060408801356130198161261b565b945060608801356130298161261b565b935060808801356130398161261b565b925060a08801356130498161261b565b915060c08801356130598161261b565b8091505092959891949750929550565b6020815281516020820152600060208301516001600160a01b0380821660408501528060408601511660608501528060608601511660808501525050608083015160a0808401526130bd60c0840182612f62565b949350505050565b600181811c908216806130d957607f821691505b6020821081036130f957634e487b7160e01b600052602260045260246000fd5b50919050565b601f82111561091057600081815260208120601f850160051c810160208610156131265750805b601f850160051c820191505b8181101561314557828155600101613132565b505050505050565b815167ffffffffffffffff8111156131675761316761264d565b61317b8161317584546130c5565b846130ff565b602080601f8311600181146131b057600084156131985750858301515b600019600386901b1c1916600185901b178555613145565b600085815260208120601f198616915b828110156131df578886015182559484019460019091019084016131c0565b50858210156131fd5787850151600019600388901b60f8161c191681555b5050505050600190811b01905550565b6001600160a01b038416815260406020820152816040820152818360608301376000818301606090810191909152601f909201601f1916010192915050565b60006020828403121561325e57600080fd5b81516125ea8161261b565b634e487b7160e01b600052601160045260246000fd5b8082018082111561066b5761066b613269565b634e487b7160e01b600052603260045260246000fd5b6000600182016132ba576132ba613269565b5060010190565b600081518084526020808501945080840160005b838110156132f1578151875295820195908201906001016132d5565b509495945050505050565b600081516040845261331160408501826132c1565b90506020830151848203602086015261332a82826132c1565b95945050505050565b6001600160a01b0384168152825160208083019190915283015160408083019190915283015160608083019190915283015160808083019190915283015160a08083019190915283015160c08083019190915283015160e08083019190915283015161010080830191909152830151610120808301919091528301516101408083019190915283015161016080830191909152830151610180808301919091528301516101a0808301919091528301516101c0808301919091528301516101e08083019190915283015161020080830191909152830151610220808301919091528301516102408083019190915283015161026080830191909152830151610280808301919091528301516102a0808301919091528301516102c08201526103006102e0820181905260009061346b838201856132fc565b9695505050505050565b60006020828403121561348757600080fd5b815180151581146125ea57600080fd5b60006101206001600160a01b0380871684528160208501526134bb82850187612f62565b925080855116604085015250506020830151606083015260408301516080830152606083015160a0830152608083015163ffffffff80821660c08501528060a08601511660e08501528060c0860151166101008501525050949350505050565b60006001600160a01b0380871683526080602084015261353e6080840187612f62565b94166040830152506060015292915050565b60006020828403121561356257600080fd5b5051919050565b7f416363657373436f6e74726f6c3a206163636f756e74200000000000000000008152600083516135a1816017850160208801612f3e565b7f206973206d697373696e6720726f6c652000000000000000000000000000000060179184019182015283516135de816028840160208801612f3e565b01602801949350505050565b6020815260006125ea6020830184612f62565b808202811582820484141761066b5761066b613269565b60008161362357613623613269565b50600019019056fe41636365737369626c653a2043616c6c6572206973206e6f7420616e2061646da164736f6c6343000812000adf8b4c520ffe197c5343c6f5aec59570151ef9a492f2c624fd45ddde6135ec42",
  "devdoc": {
    "events": {
      "RoleAdminChanged(bytes32,bytes32,bytes32)": {
        "details": "Emitted when `newAdminRole` is set as ``role``'s admin role, replacing `previousAdminRole` `DEFAULT_ADMIN_ROLE` is the starting admin for all roles, despite {RoleAdminChanged} not being emitted signaling this. _Available since v3.1._"
      },
      "RoleGranted(bytes32,address,address)": {
        "details": "Emitted when `account` is granted `role`. `sender` is the account that originated the contract call, an admin role bearer except when using {AccessControl-_setupRole}."
      },
      "RoleRevoked(bytes32,address,address)": {
        "details": "Emitted when `account` is revoked `role`. `sender` is the account that originated the contract call:   - if using `revokeRole`, it is the admin role bearer   - if using `renounceRole`, it is the role bearer (i.e. `account`)"
      }
    },
    "kind": "dev",
    "methods": {
      "addAdmin(address)": {
        "details": "add admin",
        "params": {
          "account": "address to add"
        }
      },
      "createL2Project(address,address,address,string)": {
        "details": " "
      },
      "getRoleAdmin(bytes32)": {
        "details": "Returns the admin role that controls `role`. See {grantRole} and {revokeRole}. To change a role's admin, use {_setRoleAdmin}."
      },
      "grantRole(bytes32,address)": {
        "details": "Grants `role` to `account`. If `account` had not been already granted `role`, emits a {RoleGranted} event. Requirements: - the caller must have ``role``'s admin role. May emit a {RoleGranted} event."
      },
      "hasRole(bytes32,address)": {
        "details": "Returns `true` if `account` has been granted `role`."
      },
      "isAdmin(address)": {
        "details": "whether admin",
        "params": {
          "account": "address to check"
        }
      },
      "removeAdmin(address)": {
        "details": "remove admin",
        "params": {
          "account": "address to remove"
        }
      },
      "renounceRole(bytes32,address)": {
        "details": "Revokes `role` from the calling account. Roles are often managed via {grantRole} and {revokeRole}: this function's purpose is to provide a mechanism for accounts to lose their privileges if they are compromised (such as when a trusted device is misplaced). If the calling account had been revoked `role`, emits a {RoleRevoked} event. Requirements: - the caller must be `account`. May emit a {RoleRevoked} event."
      },
      "revokeRole(bytes32,address)": {
        "details": "Revokes `role` from `account`. If `account` had been granted `role`, emits a {RoleRevoked} event. Requirements: - the caller must have ``role``'s admin role. May emit a {RoleRevoked} event."
      },
      "setL1ProjectManager(address)": {
        "details": "l1ProjectManager  "
      },
      "setL2CrossDomainMessenger(address)": {
        "details": "l2CrossDomainMessenger  "
      },
      "setL2TokenFactory(address)": {
        "details": "l2TokenFactory  "
      },
      "supportsInterface(bytes4)": {
        "details": "See {IERC165-supportsInterface}."
      },
      "transferAdmin(address)": {
        "details": "transfer admin",
        "params": {
          "newAdmin": "new admin address"
        }
      }
    },
    "title": "L2ProjectManager",
    "version": 1
  },
  "userdoc": {
    "kind": "user",
    "methods": {},
    "version": 1
  },
  "storageLayout": {
    "storage": [
      {
        "astId": 3411,
        "contract": "contracts/L2/L2ProjectManager.sol:L2ProjectManager",
        "label": "pauseProxy",
        "offset": 0,
        "slot": "0",
        "type": "t_bool"
      },
      {
        "astId": 3415,
        "contract": "contracts/L2/L2ProjectManager.sol:L2ProjectManager",
        "label": "proxyImplementation",
        "offset": 0,
        "slot": "1",
        "type": "t_mapping(t_uint256,t_address)"
      },
      {
        "astId": 3419,
        "contract": "contracts/L2/L2ProjectManager.sol:L2ProjectManager",
        "label": "aliveImplementation",
        "offset": 0,
        "slot": "2",
        "type": "t_mapping(t_address,t_bool)"
      },
      {
        "astId": 3423,
        "contract": "contracts/L2/L2ProjectManager.sol:L2ProjectManager",
        "label": "selectorImplementation",
        "offset": 0,
        "slot": "3",
        "type": "t_mapping(t_bytes4,t_address)"
      },
      {
        "astId": 24,
        "contract": "contracts/L2/L2ProjectManager.sol:L2ProjectManager",
        "label": "_roles",
        "offset": 0,
        "slot": "4",
        "type": "t_mapping(t_bytes32,t_struct(RoleData)19_storage)"
      },
      {
        "astId": 2516,
        "contract": "contracts/L2/L2ProjectManager.sol:L2ProjectManager",
        "label": "free",
        "offset": 0,
        "slot": "5",
        "type": "t_bool"
      },
      {
        "astId": 2518,
        "contract": "contracts/L2/L2ProjectManager.sol:L2ProjectManager",
        "label": "l1ProjectManager",
        "offset": 1,
        "slot": "5",
        "type": "t_address"
      },
      {
        "astId": 2520,
        "contract": "contracts/L2/L2ProjectManager.sol:L2ProjectManager",
        "label": "l2TokenFactory",
        "offset": 0,
        "slot": "6",
        "type": "t_address"
      },
      {
        "astId": 2522,
        "contract": "contracts/L2/L2ProjectManager.sol:L2ProjectManager",
        "label": "l2CrossDomainMessenger",
        "offset": 0,
        "slot": "7",
        "type": "t_address"
      },
      {
        "astId": 2524,
        "contract": "contracts/L2/L2ProjectManager.sol:L2ProjectManager",
        "label": "publicSaleVault",
        "offset": 0,
        "slot": "8",
        "type": "t_address"
      },
      {
        "astId": 2526,
        "contract": "contracts/L2/L2ProjectManager.sol:L2ProjectManager",
        "label": "initialLiquidityVault",
        "offset": 0,
        "slot": "9",
        "type": "t_address"
      },
      {
        "astId": 2528,
        "contract": "contracts/L2/L2ProjectManager.sol:L2ProjectManager",
        "label": "liquidityRewardVault",
        "offset": 0,
        "slot": "10",
        "type": "t_address"
      },
      {
        "astId": 2530,
        "contract": "contracts/L2/L2ProjectManager.sol:L2ProjectManager",
        "label": "tonAirdropVault",
        "offset": 0,
        "slot": "11",
        "type": "t_address"
      },
      {
        "astId": 2532,
        "contract": "contracts/L2/L2ProjectManager.sol:L2ProjectManager",
        "label": "tosAirdropVault",
        "offset": 0,
        "slot": "12",
        "type": "t_address"
      },
      {
        "astId": 2534,
        "contract": "contracts/L2/L2ProjectManager.sol:L2ProjectManager",
        "label": "scheduleVault",
        "offset": 0,
        "slot": "13",
        "type": "t_address"
      },
      {
        "astId": 2536,
        "contract": "contracts/L2/L2ProjectManager.sol:L2ProjectManager",
        "label": "nonScheduleVault",
        "offset": 0,
        "slot": "14",
        "type": "t_address"
      },
      {
        "astId": 2541,
        "contract": "contracts/L2/L2ProjectManager.sol:L2ProjectManager",
        "label": "projects",
        "offset": 0,
        "slot": "15",
        "type": "t_mapping(t_address,t_struct(L2ProjectInfo)2807_storage)"
      },
      {
        "astId": 2545,
        "contract": "contracts/L2/L2ProjectManager.sol:L2ProjectManager",
        "label": "tokenMaps",
        "offset": 0,
        "slot": "16",
        "type": "t_mapping(t_address,t_address)"
      }
    ],
    "types": {
      "t_address": {
        "encoding": "inplace",
        "label": "address",
        "numberOfBytes": "20"
      },
      "t_bool": {
        "encoding": "inplace",
        "label": "bool",
        "numberOfBytes": "1"
      },
      "t_bytes32": {
        "encoding": "inplace",
        "label": "bytes32",
        "numberOfBytes": "32"
      },
      "t_bytes4": {
        "encoding": "inplace",
        "label": "bytes4",
        "numberOfBytes": "4"
      },
      "t_mapping(t_address,t_address)": {
        "encoding": "mapping",
        "key": "t_address",
        "label": "mapping(address => address)",
        "numberOfBytes": "32",
        "value": "t_address"
      },
      "t_mapping(t_address,t_bool)": {
        "encoding": "mapping",
        "key": "t_address",
        "label": "mapping(address => bool)",
        "numberOfBytes": "32",
        "value": "t_bool"
      },
      "t_mapping(t_address,t_struct(L2ProjectInfo)2807_storage)": {
        "encoding": "mapping",
        "key": "t_address",
        "label": "mapping(address => struct LibProject.L2ProjectInfo)",
        "numberOfBytes": "32",
        "value": "t_struct(L2ProjectInfo)2807_storage"
      },
      "t_mapping(t_bytes32,t_struct(RoleData)19_storage)": {
        "encoding": "mapping",
        "key": "t_bytes32",
        "label": "mapping(bytes32 => struct AccessControl.RoleData)",
        "numberOfBytes": "32",
        "value": "t_struct(RoleData)19_storage"
      },
      "t_mapping(t_bytes4,t_address)": {
        "encoding": "mapping",
        "key": "t_bytes4",
        "label": "mapping(bytes4 => address)",
        "numberOfBytes": "32",
        "value": "t_address"
      },
      "t_mapping(t_uint256,t_address)": {
        "encoding": "mapping",
        "key": "t_uint256",
        "label": "mapping(uint256 => address)",
        "numberOfBytes": "32",
        "value": "t_address"
      },
      "t_string_storage": {
        "encoding": "bytes",
        "label": "string",
        "numberOfBytes": "32"
      },
      "t_struct(L2ProjectInfo)2807_storage": {
        "encoding": "inplace",
        "label": "struct LibProject.L2ProjectInfo",
        "members": [
          {
            "astId": 2798,
            "contract": "contracts/L2/L2ProjectManager.sol:L2ProjectManager",
            "label": "projectId",
            "offset": 0,
            "slot": "0",
            "type": "t_uint256"
          },
          {
            "astId": 2800,
            "contract": "contracts/L2/L2ProjectManager.sol:L2ProjectManager",
            "label": "projectOwner",
            "offset": 0,
            "slot": "1",
            "type": "t_address"
          },
          {
            "astId": 2802,
            "contract": "contracts/L2/L2ProjectManager.sol:L2ProjectManager",
            "label": "l1Token",
            "offset": 0,
            "slot": "2",
            "type": "t_address"
          },
          {
            "astId": 2804,
            "contract": "contracts/L2/L2ProjectManager.sol:L2ProjectManager",
            "label": "l2Token",
            "offset": 0,
            "slot": "3",
            "type": "t_address"
          },
          {
            "astId": 2806,
            "contract": "contracts/L2/L2ProjectManager.sol:L2ProjectManager",
            "label": "projectName",
            "offset": 0,
            "slot": "4",
            "type": "t_string_storage"
          }
        ],
        "numberOfBytes": "160"
      },
      "t_struct(RoleData)19_storage": {
        "encoding": "inplace",
        "label": "struct AccessControl.RoleData",
        "members": [
          {
            "astId": 16,
            "contract": "contracts/L2/L2ProjectManager.sol:L2ProjectManager",
            "label": "members",
            "offset": 0,
            "slot": "0",
            "type": "t_mapping(t_address,t_bool)"
          },
          {
            "astId": 18,
            "contract": "contracts/L2/L2ProjectManager.sol:L2ProjectManager",
            "label": "adminRole",
            "offset": 0,
            "slot": "1",
            "type": "t_bytes32"
          }
        ],
        "numberOfBytes": "64"
      },
      "t_uint256": {
        "encoding": "inplace",
        "label": "uint256",
        "numberOfBytes": "32"
      }
    }
  }
}