{
  "address": "0x98395085ad908E97242Cb5b9d45853bd5c585Dd6",
  "abi": [
    {
      "inputs": [],
      "stateMutability": "nonpayable",
      "type": "constructor"
    },
    {
      "anonymous": false,
      "inputs": [
        {
          "indexed": true,
          "internalType": "address",
          "name": "l1Token",
          "type": "address"
        },
        {
          "indexed": true,
          "internalType": "address",
          "name": "l2Token",
          "type": "address"
        },
        {
          "indexed": false,
          "internalType": "address",
          "name": "projectOwner",
          "type": "address"
        },
        {
          "indexed": false,
          "internalType": "string",
          "name": "projectName",
          "type": "string"
        }
      ],
      "name": "CreatedL2Project",
      "type": "event"
    },
    {
      "anonymous": false,
      "inputs": [
        {
          "indexed": false,
          "internalType": "address",
          "name": "l1Token",
          "type": "address"
        },
        {
          "indexed": false,
          "internalType": "address",
          "name": "l2Token",
          "type": "address"
        },
        {
          "indexed": false,
          "internalType": "uint256",
          "name": "projectId",
          "type": "uint256"
        },
        {
          "indexed": false,
          "internalType": "uint256",
          "name": "totalAmount",
          "type": "uint256"
        }
      ],
      "name": "DistributedL2Token",
      "type": "event"
    },
    {
      "anonymous": false,
      "inputs": [
        {
          "indexed": true,
          "internalType": "bytes32",
          "name": "role",
          "type": "bytes32"
        },
        {
          "indexed": true,
          "internalType": "bytes32",
          "name": "previousAdminRole",
          "type": "bytes32"
        },
        {
          "indexed": true,
          "internalType": "bytes32",
          "name": "newAdminRole",
          "type": "bytes32"
        }
      ],
      "name": "RoleAdminChanged",
      "type": "event"
    },
    {
      "anonymous": false,
      "inputs": [
        {
          "indexed": true,
          "internalType": "bytes32",
          "name": "role",
          "type": "bytes32"
        },
        {
          "indexed": true,
          "internalType": "address",
          "name": "account",
          "type": "address"
        },
        {
          "indexed": true,
          "internalType": "address",
          "name": "sender",
          "type": "address"
        }
      ],
      "name": "RoleGranted",
      "type": "event"
    },
    {
      "anonymous": false,
      "inputs": [
        {
          "indexed": true,
          "internalType": "bytes32",
          "name": "role",
          "type": "bytes32"
        },
        {
          "indexed": true,
          "internalType": "address",
          "name": "account",
          "type": "address"
        },
        {
          "indexed": true,
          "internalType": "address",
          "name": "sender",
          "type": "address"
        }
      ],
      "name": "RoleRevoked",
      "type": "event"
    },
    {
      "inputs": [],
      "name": "ADMIN_ROLE",
      "outputs": [
        {
          "internalType": "bytes32",
          "name": "",
          "type": "bytes32"
        }
      ],
      "stateMutability": "view",
      "type": "function"
    },
    {
      "inputs": [],
      "name": "DEFAULT_ADMIN_ROLE",
      "outputs": [
        {
          "internalType": "bytes32",
          "name": "",
          "type": "bytes32"
        }
      ],
      "stateMutability": "view",
      "type": "function"
    },
    {
      "inputs": [],
      "name": "POLICY_ROLE",
      "outputs": [
        {
          "internalType": "bytes32",
          "name": "",
          "type": "bytes32"
        }
      ],
      "stateMutability": "view",
      "type": "function"
    },
    {
      "inputs": [
        {
          "internalType": "address",
          "name": "account",
          "type": "address"
        }
      ],
      "name": "addAdmin",
      "outputs": [],
      "stateMutability": "nonpayable",
      "type": "function"
    },
    {
      "inputs": [
        {
          "internalType": "address",
          "name": "",
          "type": "address"
        }
      ],
      "name": "aliveImplementation",
      "outputs": [
        {
          "internalType": "bool",
          "name": "",
          "type": "bool"
        }
      ],
      "stateMutability": "view",
      "type": "function"
    },
    {
      "inputs": [
        {
          "internalType": "address",
          "name": "projectOwner",
          "type": "address"
        },
        {
          "internalType": "address",
          "name": "l1Token",
          "type": "address"
        },
        {
          "internalType": "address",
          "name": "l2Token",
          "type": "address"
        },
        {
          "internalType": "string",
          "name": "projectName",
          "type": "string"
        }
      ],
      "name": "createL2Project",
      "outputs": [],
      "stateMutability": "nonpayable",
      "type": "function"
    },
    {
      "inputs": [
        {
          "internalType": "address",
          "name": "l1Token",
          "type": "address"
        },
        {
          "internalType": "address",
          "name": "l2Token",
          "type": "address"
        },
        {
          "internalType": "uint256",
          "name": "projectId",
          "type": "uint256"
        },
        {
          "internalType": "uint256",
          "name": "totalAmount",
          "type": "uint256"
        },
        {
          "components": [
            {
              "components": [
                {
                  "components": [
                    {
                      "internalType": "uint256",
                      "name": "stosTier1",
                      "type": "uint256"
                    },
                    {
                      "internalType": "uint256",
                      "name": "stosTier2",
                      "type": "uint256"
                    },
                    {
                      "internalType": "uint256",
                      "name": "stosTier3",
                      "type": "uint256"
                    },
                    {
                      "internalType": "uint256",
                      "name": "stosTier4",
                      "type": "uint256"
                    },
                    {
                      "internalType": "uint256",
                      "name": "tier1Percents",
                      "type": "uint256"
                    },
                    {
                      "internalType": "uint256",
                      "name": "tier2Percents",
                      "type": "uint256"
                    },
                    {
                      "internalType": "uint256",
                      "name": "tier3Percents",
                      "type": "uint256"
                    },
                    {
                      "internalType": "uint256",
                      "name": "tier4Percents",
                      "type": "uint256"
                    },
                    {
                      "internalType": "uint256",
                      "name": "total1roundSaleAmount",
                      "type": "uint256"
                    },
                    {
                      "internalType": "uint256",
                      "name": "total2roundSaleAmount",
                      "type": "uint256"
                    },
                    {
                      "internalType": "uint256",
                      "name": "saleTokenPrice",
                      "type": "uint256"
                    },
                    {
                      "internalType": "uint256",
                      "name": "payTokenPrice",
                      "type": "uint256"
                    },
                    {
                      "internalType": "uint256",
                      "name": "hardcapAmount",
                      "type": "uint256"
                    },
                    {
                      "internalType": "uint256",
                      "name": "changeTOSPercent",
                      "type": "uint256"
                    },
                    {
                      "internalType": "uint256",
                      "name": "startWhiteTime",
                      "type": "uint256"
                    },
                    {
                      "internalType": "uint256",
                      "name": "endWhiteTime",
                      "type": "uint256"
                    },
                    {
                      "internalType": "uint256",
                      "name": "start1roundTime",
                      "type": "uint256"
                    },
                    {
                      "internalType": "uint256",
                      "name": "end1roundTime",
                      "type": "uint256"
                    },
                    {
                      "internalType": "uint256",
                      "name": "snapshotTime",
                      "type": "uint256"
                    },
                    {
                      "internalType": "uint256",
                      "name": "start2roundTime",
                      "type": "uint256"
                    },
                    {
                      "internalType": "uint256",
                      "name": "end2roundTime",
                      "type": "uint256"
                    }
                  ],
                  "internalType": "struct LibProject.InitalParameterPublicSaleVault",
                  "name": "vaultParams",
                  "type": "tuple"
                },
                {
                  "components": [
                    {
                      "internalType": "uint256",
                      "name": "claimCounts",
                      "type": "uint256"
                    },
                    {
                      "internalType": "uint256",
                      "name": "firstClaimPercent",
                      "type": "uint256"
                    },
                    {
                      "internalType": "uint256",
                      "name": "firstClaimTime",
                      "type": "uint256"
                    },
                    {
                      "internalType": "uint256",
                      "name": "secondClaimTime",
                      "type": "uint256"
                    },
                    {
                      "internalType": "uint256",
                      "name": "roundInterval",
                      "type": "uint256"
                    }
                  ],
                  "internalType": "struct LibProject.InitalParameterPublicSaleClaim",
                  "name": "claimParams",
                  "type": "tuple"
                },
                {
                  "components": [
                    {
                      "internalType": "address",
                      "name": "receiveAddress",
                      "type": "address"
                    },
                    {
                      "internalType": "uint256",
                      "name": "totalClaimCount",
                      "type": "uint256"
                    },
                    {
                      "internalType": "uint256",
                      "name": "firstClaimPercent",
                      "type": "uint256"
                    },
                    {
                      "internalType": "uint256",
                      "name": "firstClaimTime",
                      "type": "uint256"
                    },
                    {
                      "internalType": "uint256",
                      "name": "secondClaimTime",
                      "type": "uint256"
                    },
                    {
                      "internalType": "uint256",
                      "name": "roundIntervalTime",
                      "type": "uint256"
                    },
                    {
                      "internalType": "uint24",
                      "name": "fee",
                      "type": "uint24"
                    }
                  ],
                  "internalType": "struct LibProject.InitalParameterVestingFundVault",
                  "name": "vestingParams",
                  "type": "tuple"
                }
              ],
              "internalType": "struct LibProject.InitalParameterPublicSale",
              "name": "publicSaleParams",
              "type": "tuple"
            },
            {
              "components": [
                {
                  "internalType": "uint256",
                  "name": "totalAllocatedAmount",
                  "type": "uint256"
                },
                {
                  "internalType": "uint256",
                  "name": "tosPrice",
                  "type": "uint256"
                },
                {
                  "internalType": "uint256",
                  "name": "tokenPrice",
                  "type": "uint256"
                },
                {
                  "internalType": "uint256",
                  "name": "initSqrtPrice",
                  "type": "uint256"
                },
                {
                  "internalType": "uint32",
                  "name": "startTime",
                  "type": "uint32"
                },
                {
                  "internalType": "uint16",
                  "name": "fee",
                  "type": "uint16"
                }
              ],
              "internalType": "struct LibProject.InitalParameterInitialLiquidityVault",
              "name": "initialVaultParams",
              "type": "tuple"
            },
            {
              "components": [
                {
                  "components": [
                    {
                      "internalType": "address",
                      "name": "token0",
                      "type": "address"
                    },
                    {
                      "internalType": "address",
                      "name": "token1",
                      "type": "address"
                    },
                    {
                      "internalType": "uint24",
                      "name": "fee",
                      "type": "uint24"
                    }
                  ],
                  "internalType": "struct LibPool.PoolInfo",
                  "name": "poolParams",
                  "type": "tuple"
                },
                {
                  "components": [
                    {
                      "internalType": "address",
                      "name": "claimer",
                      "type": "address"
                    },
                    {
                      "internalType": "uint256",
                      "name": "totalAllocatedAmount",
                      "type": "uint256"
                    },
                    {
                      "internalType": "uint256",
                      "name": "totalClaimCount",
                      "type": "uint256"
                    },
                    {
                      "internalType": "uint256",
                      "name": "firstClaimAmount",
                      "type": "uint256"
                    },
                    {
                      "internalType": "uint32",
                      "name": "firstClaimTime",
                      "type": "uint32"
                    },
                    {
                      "internalType": "uint32",
                      "name": "secondClaimTime",
                      "type": "uint32"
                    },
                    {
                      "internalType": "uint32",
                      "name": "roundIntervalTime",
                      "type": "uint32"
                    }
                  ],
                  "internalType": "struct LibProject.InitalParameterScheduleVault",
                  "name": "params",
                  "type": "tuple"
                }
              ],
              "internalType": "struct LibProject.InitalParameterLiquidityRewardVault",
              "name": "rewardTonTosPoolParams",
              "type": "tuple"
            },
            {
              "components": [
                {
                  "components": [
                    {
                      "internalType": "address",
                      "name": "token0",
                      "type": "address"
                    },
                    {
                      "internalType": "address",
                      "name": "token1",
                      "type": "address"
                    },
                    {
                      "internalType": "uint24",
                      "name": "fee",
                      "type": "uint24"
                    }
                  ],
                  "internalType": "struct LibPool.PoolInfo",
                  "name": "poolParams",
                  "type": "tuple"
                },
                {
                  "components": [
                    {
                      "internalType": "address",
                      "name": "claimer",
                      "type": "address"
                    },
                    {
                      "internalType": "uint256",
                      "name": "totalAllocatedAmount",
                      "type": "uint256"
                    },
                    {
                      "internalType": "uint256",
                      "name": "totalClaimCount",
                      "type": "uint256"
                    },
                    {
                      "internalType": "uint256",
                      "name": "firstClaimAmount",
                      "type": "uint256"
                    },
                    {
                      "internalType": "uint32",
                      "name": "firstClaimTime",
                      "type": "uint32"
                    },
                    {
                      "internalType": "uint32",
                      "name": "secondClaimTime",
                      "type": "uint32"
                    },
                    {
                      "internalType": "uint32",
                      "name": "roundIntervalTime",
                      "type": "uint32"
                    }
                  ],
                  "internalType": "struct LibProject.InitalParameterScheduleVault",
                  "name": "params",
                  "type": "tuple"
                }
              ],
              "internalType": "struct LibProject.InitalParameterLiquidityRewardVault",
              "name": "rewardProjectTosPoolParams",
              "type": "tuple"
            },
            {
              "components": [
                {
                  "internalType": "address",
                  "name": "claimer",
                  "type": "address"
                },
                {
                  "internalType": "uint256",
                  "name": "totalAllocatedAmount",
                  "type": "uint256"
                },
                {
                  "internalType": "uint256",
                  "name": "totalClaimCount",
                  "type": "uint256"
                },
                {
                  "internalType": "uint256",
                  "name": "firstClaimAmount",
                  "type": "uint256"
                },
                {
                  "internalType": "uint32",
                  "name": "firstClaimTime",
                  "type": "uint32"
                },
                {
                  "internalType": "uint32",
                  "name": "secondClaimTime",
                  "type": "uint32"
                },
                {
                  "internalType": "uint32",
                  "name": "roundIntervalTime",
                  "type": "uint32"
                }
              ],
              "internalType": "struct LibProject.InitalParameterScheduleVault",
              "name": "tosAirdropParams",
              "type": "tuple"
            },
            {
              "components": [
                {
                  "internalType": "address",
                  "name": "claimer",
                  "type": "address"
                },
                {
                  "internalType": "uint256",
                  "name": "totalAllocatedAmount",
                  "type": "uint256"
                },
                {
                  "internalType": "uint256",
                  "name": "totalClaimCount",
                  "type": "uint256"
                },
                {
                  "internalType": "uint256",
                  "name": "firstClaimAmount",
                  "type": "uint256"
                },
                {
                  "internalType": "uint32",
                  "name": "firstClaimTime",
                  "type": "uint32"
                },
                {
                  "internalType": "uint32",
                  "name": "secondClaimTime",
                  "type": "uint32"
                },
                {
                  "internalType": "uint32",
                  "name": "roundIntervalTime",
                  "type": "uint32"
                }
              ],
              "internalType": "struct LibProject.InitalParameterScheduleVault",
              "name": "tonAirdropParams",
              "type": "tuple"
            }
          ],
          "internalType": "struct LibProject.TokamakVaults",
          "name": "tokamakVaults",
          "type": "tuple"
        },
        {
          "components": [
            {
              "internalType": "string",
              "name": "vaultName",
              "type": "string"
            },
            {
              "components": [
                {
                  "internalType": "address",
                  "name": "claimer",
                  "type": "address"
                },
                {
                  "internalType": "uint256",
                  "name": "totalAllocatedAmount",
                  "type": "uint256"
                },
                {
                  "internalType": "uint256",
                  "name": "totalClaimCount",
                  "type": "uint256"
                },
                {
                  "internalType": "uint256",
                  "name": "firstClaimAmount",
                  "type": "uint256"
                },
                {
                  "internalType": "uint32",
                  "name": "firstClaimTime",
                  "type": "uint32"
                },
                {
                  "internalType": "uint32",
                  "name": "secondClaimTime",
                  "type": "uint32"
                },
                {
                  "internalType": "uint32",
                  "name": "roundIntervalTime",
                  "type": "uint32"
                }
              ],
              "internalType": "struct LibProject.InitalParameterScheduleVault",
              "name": "params",
              "type": "tuple"
            }
          ],
          "internalType": "struct LibProject.InitalParameterSchedule[]",
          "name": "customScheduleVaults",
          "type": "tuple[]"
        },
        {
          "components": [
            {
              "internalType": "string",
              "name": "vaultName",
              "type": "string"
            },
            {
              "internalType": "address",
              "name": "claimer",
              "type": "address"
            },
            {
              "internalType": "uint256",
              "name": "totalAllocatedAmount",
              "type": "uint256"
            }
          ],
          "internalType": "struct LibProject.InitalParameterNonScheduleVault[]",
          "name": "customNonScheduleVaults",
          "type": "tuple[]"
        }
      ],
      "name": "distributesL2Token",
      "outputs": [],
      "stateMutability": "nonpayable",
      "type": "function"
    },
    {
      "inputs": [
        {
          "internalType": "address",
          "name": "l1Token",
          "type": "address"
        },
        {
          "internalType": "address",
          "name": "l2Token",
          "type": "address"
        },
        {
          "internalType": "uint256",
          "name": "projectId",
          "type": "uint256"
        },
        {
          "internalType": "uint256",
          "name": "totalAmount",
          "type": "uint256"
        },
        {
          "components": [
            {
              "components": [
                {
                  "components": [
                    {
                      "internalType": "uint256",
                      "name": "stosTier1",
                      "type": "uint256"
                    },
                    {
                      "internalType": "uint256",
                      "name": "stosTier2",
                      "type": "uint256"
                    },
                    {
                      "internalType": "uint256",
                      "name": "stosTier3",
                      "type": "uint256"
                    },
                    {
                      "internalType": "uint256",
                      "name": "stosTier4",
                      "type": "uint256"
                    },
                    {
                      "internalType": "uint256",
                      "name": "tier1Percents",
                      "type": "uint256"
                    },
                    {
                      "internalType": "uint256",
                      "name": "tier2Percents",
                      "type": "uint256"
                    },
                    {
                      "internalType": "uint256",
                      "name": "tier3Percents",
                      "type": "uint256"
                    },
                    {
                      "internalType": "uint256",
                      "name": "tier4Percents",
                      "type": "uint256"
                    },
                    {
                      "internalType": "uint256",
                      "name": "total1roundSaleAmount",
                      "type": "uint256"
                    },
                    {
                      "internalType": "uint256",
                      "name": "total2roundSaleAmount",
                      "type": "uint256"
                    },
                    {
                      "internalType": "uint256",
                      "name": "saleTokenPrice",
                      "type": "uint256"
                    },
                    {
                      "internalType": "uint256",
                      "name": "payTokenPrice",
                      "type": "uint256"
                    },
                    {
                      "internalType": "uint256",
                      "name": "hardcapAmount",
                      "type": "uint256"
                    },
                    {
                      "internalType": "uint256",
                      "name": "changeTOSPercent",
                      "type": "uint256"
                    },
                    {
                      "internalType": "uint256",
                      "name": "startWhiteTime",
                      "type": "uint256"
                    },
                    {
                      "internalType": "uint256",
                      "name": "endWhiteTime",
                      "type": "uint256"
                    },
                    {
                      "internalType": "uint256",
                      "name": "start1roundTime",
                      "type": "uint256"
                    },
                    {
                      "internalType": "uint256",
                      "name": "end1roundTime",
                      "type": "uint256"
                    },
                    {
                      "internalType": "uint256",
                      "name": "snapshotTime",
                      "type": "uint256"
                    },
                    {
                      "internalType": "uint256",
                      "name": "start2roundTime",
                      "type": "uint256"
                    },
                    {
                      "internalType": "uint256",
                      "name": "end2roundTime",
                      "type": "uint256"
                    }
                  ],
                  "internalType": "struct LibProject.InitalParameterPublicSaleVault",
                  "name": "vaultParams",
                  "type": "tuple"
                },
                {
                  "components": [
                    {
                      "internalType": "uint256",
                      "name": "claimCounts",
                      "type": "uint256"
                    },
                    {
                      "internalType": "uint256",
                      "name": "firstClaimPercent",
                      "type": "uint256"
                    },
                    {
                      "internalType": "uint256",
                      "name": "firstClaimTime",
                      "type": "uint256"
                    },
                    {
                      "internalType": "uint256",
                      "name": "secondClaimTime",
                      "type": "uint256"
                    },
                    {
                      "internalType": "uint256",
                      "name": "roundInterval",
                      "type": "uint256"
                    }
                  ],
                  "internalType": "struct LibProject.InitalParameterPublicSaleClaim",
                  "name": "claimParams",
                  "type": "tuple"
                },
                {
                  "components": [
                    {
                      "internalType": "address",
                      "name": "receiveAddress",
                      "type": "address"
                    },
                    {
                      "internalType": "uint256",
                      "name": "totalClaimCount",
                      "type": "uint256"
                    },
                    {
                      "internalType": "uint256",
                      "name": "firstClaimPercent",
                      "type": "uint256"
                    },
                    {
                      "internalType": "uint256",
                      "name": "firstClaimTime",
                      "type": "uint256"
                    },
                    {
                      "internalType": "uint256",
                      "name": "secondClaimTime",
                      "type": "uint256"
                    },
                    {
                      "internalType": "uint256",
                      "name": "roundIntervalTime",
                      "type": "uint256"
                    },
                    {
                      "internalType": "uint24",
                      "name": "fee",
                      "type": "uint24"
                    }
                  ],
                  "internalType": "struct LibProject.InitalParameterVestingFundVault",
                  "name": "vestingParams",
                  "type": "tuple"
                }
              ],
              "internalType": "struct LibProject.InitalParameterPublicSale",
              "name": "publicSaleParams",
              "type": "tuple"
            },
            {
              "components": [
                {
                  "internalType": "uint256",
                  "name": "totalAllocatedAmount",
                  "type": "uint256"
                },
                {
                  "internalType": "uint256",
                  "name": "tosPrice",
                  "type": "uint256"
                },
                {
                  "internalType": "uint256",
                  "name": "tokenPrice",
                  "type": "uint256"
                },
                {
                  "internalType": "uint256",
                  "name": "initSqrtPrice",
                  "type": "uint256"
                },
                {
                  "internalType": "uint32",
                  "name": "startTime",
                  "type": "uint32"
                },
                {
                  "internalType": "uint16",
                  "name": "fee",
                  "type": "uint16"
                }
              ],
              "internalType": "struct LibProject.InitalParameterInitialLiquidityVault",
              "name": "initialVaultParams",
              "type": "tuple"
            },
            {
              "components": [
                {
                  "components": [
                    {
                      "internalType": "address",
                      "name": "token0",
                      "type": "address"
                    },
                    {
                      "internalType": "address",
                      "name": "token1",
                      "type": "address"
                    },
                    {
                      "internalType": "uint24",
                      "name": "fee",
                      "type": "uint24"
                    }
                  ],
                  "internalType": "struct LibPool.PoolInfo",
                  "name": "poolParams",
                  "type": "tuple"
                },
                {
                  "components": [
                    {
                      "internalType": "address",
                      "name": "claimer",
                      "type": "address"
                    },
                    {
                      "internalType": "uint256",
                      "name": "totalAllocatedAmount",
                      "type": "uint256"
                    },
                    {
                      "internalType": "uint256",
                      "name": "totalClaimCount",
                      "type": "uint256"
                    },
                    {
                      "internalType": "uint256",
                      "name": "firstClaimAmount",
                      "type": "uint256"
                    },
                    {
                      "internalType": "uint32",
                      "name": "firstClaimTime",
                      "type": "uint32"
                    },
                    {
                      "internalType": "uint32",
                      "name": "secondClaimTime",
                      "type": "uint32"
                    },
                    {
                      "internalType": "uint32",
                      "name": "roundIntervalTime",
                      "type": "uint32"
                    }
                  ],
                  "internalType": "struct LibProject.InitalParameterScheduleVault",
                  "name": "params",
                  "type": "tuple"
                }
              ],
              "internalType": "struct LibProject.InitalParameterLiquidityRewardVault",
              "name": "rewardTonTosPoolParams",
              "type": "tuple"
            },
            {
              "components": [
                {
                  "components": [
                    {
                      "internalType": "address",
                      "name": "token0",
                      "type": "address"
                    },
                    {
                      "internalType": "address",
                      "name": "token1",
                      "type": "address"
                    },
                    {
                      "internalType": "uint24",
                      "name": "fee",
                      "type": "uint24"
                    }
                  ],
                  "internalType": "struct LibPool.PoolInfo",
                  "name": "poolParams",
                  "type": "tuple"
                },
                {
                  "components": [
                    {
                      "internalType": "address",
                      "name": "claimer",
                      "type": "address"
                    },
                    {
                      "internalType": "uint256",
                      "name": "totalAllocatedAmount",
                      "type": "uint256"
                    },
                    {
                      "internalType": "uint256",
                      "name": "totalClaimCount",
                      "type": "uint256"
                    },
                    {
                      "internalType": "uint256",
                      "name": "firstClaimAmount",
                      "type": "uint256"
                    },
                    {
                      "internalType": "uint32",
                      "name": "firstClaimTime",
                      "type": "uint32"
                    },
                    {
                      "internalType": "uint32",
                      "name": "secondClaimTime",
                      "type": "uint32"
                    },
                    {
                      "internalType": "uint32",
                      "name": "roundIntervalTime",
                      "type": "uint32"
                    }
                  ],
                  "internalType": "struct LibProject.InitalParameterScheduleVault",
                  "name": "params",
                  "type": "tuple"
                }
              ],
              "internalType": "struct LibProject.InitalParameterLiquidityRewardVault",
              "name": "rewardProjectTosPoolParams",
              "type": "tuple"
            },
            {
              "components": [
                {
                  "internalType": "address",
                  "name": "claimer",
                  "type": "address"
                },
                {
                  "internalType": "uint256",
                  "name": "totalAllocatedAmount",
                  "type": "uint256"
                },
                {
                  "internalType": "uint256",
                  "name": "totalClaimCount",
                  "type": "uint256"
                },
                {
                  "internalType": "uint256",
                  "name": "firstClaimAmount",
                  "type": "uint256"
                },
                {
                  "internalType": "uint32",
                  "name": "firstClaimTime",
                  "type": "uint32"
                },
                {
                  "internalType": "uint32",
                  "name": "secondClaimTime",
                  "type": "uint32"
                },
                {
                  "internalType": "uint32",
                  "name": "roundIntervalTime",
                  "type": "uint32"
                }
              ],
              "internalType": "struct LibProject.InitalParameterScheduleVault",
              "name": "tosAirdropParams",
              "type": "tuple"
            },
            {
              "components": [
                {
                  "internalType": "address",
                  "name": "claimer",
                  "type": "address"
                },
                {
                  "internalType": "uint256",
                  "name": "totalAllocatedAmount",
                  "type": "uint256"
                },
                {
                  "internalType": "uint256",
                  "name": "totalClaimCount",
                  "type": "uint256"
                },
                {
                  "internalType": "uint256",
                  "name": "firstClaimAmount",
                  "type": "uint256"
                },
                {
                  "internalType": "uint32",
                  "name": "firstClaimTime",
                  "type": "uint32"
                },
                {
                  "internalType": "uint32",
                  "name": "secondClaimTime",
                  "type": "uint32"
                },
                {
                  "internalType": "uint32",
                  "name": "roundIntervalTime",
                  "type": "uint32"
                }
              ],
              "internalType": "struct LibProject.InitalParameterScheduleVault",
              "name": "tonAirdropParams",
              "type": "tuple"
            }
          ],
          "internalType": "struct LibProject.TokamakVaults",
          "name": "tokamakVaults",
          "type": "tuple"
        },
        {
          "components": [
            {
              "internalType": "string",
              "name": "vaultName",
              "type": "string"
            },
            {
              "components": [
                {
                  "internalType": "address",
                  "name": "claimer",
                  "type": "address"
                },
                {
                  "internalType": "uint256",
                  "name": "totalAllocatedAmount",
                  "type": "uint256"
                },
                {
                  "internalType": "uint256",
                  "name": "totalClaimCount",
                  "type": "uint256"
                },
                {
                  "internalType": "uint256",
                  "name": "firstClaimAmount",
                  "type": "uint256"
                },
                {
                  "internalType": "uint32",
                  "name": "firstClaimTime",
                  "type": "uint32"
                },
                {
                  "internalType": "uint32",
                  "name": "secondClaimTime",
                  "type": "uint32"
                },
                {
                  "internalType": "uint32",
                  "name": "roundIntervalTime",
                  "type": "uint32"
                }
              ],
              "internalType": "struct LibProject.InitalParameterScheduleVault",
              "name": "params",
              "type": "tuple"
            }
          ],
          "internalType": "struct LibProject.InitalParameterSchedule[]",
          "name": "customScheduleVaults",
          "type": "tuple[]"
        },
        {
          "components": [
            {
              "internalType": "string",
              "name": "vaultName",
              "type": "string"
            },
            {
              "internalType": "address",
              "name": "claimer",
              "type": "address"
            },
            {
              "internalType": "uint256",
              "name": "totalAllocatedAmount",
              "type": "uint256"
            }
          ],
          "internalType": "struct LibProject.InitalParameterNonScheduleVault[]",
          "name": "customNonScheduleVaults",
          "type": "tuple[]"
        }
      ],
      "name": "distributesL2TokenOwner",
      "outputs": [],
      "stateMutability": "nonpayable",
      "type": "function"
    },
    {
      "inputs": [
        {
          "internalType": "bytes32",
          "name": "role",
          "type": "bytes32"
        }
      ],
      "name": "getRoleAdmin",
      "outputs": [
        {
          "internalType": "bytes32",
          "name": "",
          "type": "bytes32"
        }
      ],
      "stateMutability": "view",
      "type": "function"
    },
    {
      "inputs": [
        {
          "internalType": "bytes32",
          "name": "role",
          "type": "bytes32"
        },
        {
          "internalType": "address",
          "name": "account",
          "type": "address"
        }
      ],
      "name": "grantRole",
      "outputs": [],
      "stateMutability": "nonpayable",
      "type": "function"
    },
    {
      "inputs": [
        {
          "internalType": "bytes32",
          "name": "role",
          "type": "bytes32"
        },
        {
          "internalType": "address",
          "name": "account",
          "type": "address"
        }
      ],
      "name": "hasRole",
      "outputs": [
        {
          "internalType": "bool",
          "name": "",
          "type": "bool"
        }
      ],
      "stateMutability": "view",
      "type": "function"
    },
    {
      "inputs": [],
      "name": "initialLiquidityVault",
      "outputs": [
        {
          "internalType": "address",
          "name": "",
          "type": "address"
        }
      ],
      "stateMutability": "view",
      "type": "function"
    },
    {
      "inputs": [
        {
          "internalType": "address",
          "name": "account",
          "type": "address"
        }
      ],
      "name": "isAdmin",
      "outputs": [
        {
          "internalType": "bool",
          "name": "",
          "type": "bool"
        }
      ],
      "stateMutability": "view",
      "type": "function"
    },
    {
      "inputs": [],
      "name": "l1ProjectManager",
      "outputs": [
        {
          "internalType": "address",
          "name": "",
          "type": "address"
        }
      ],
      "stateMutability": "view",
      "type": "function"
    },
    {
      "inputs": [],
      "name": "l2CrossDomainMessenger",
      "outputs": [
        {
          "internalType": "address",
          "name": "",
          "type": "address"
        }
      ],
      "stateMutability": "view",
      "type": "function"
    },
    {
      "inputs": [],
      "name": "l2TokenFactory",
      "outputs": [
        {
          "internalType": "address",
          "name": "",
          "type": "address"
        }
      ],
      "stateMutability": "view",
      "type": "function"
    },
    {
      "inputs": [],
      "name": "liquidityRewardVault",
      "outputs": [
        {
          "internalType": "address",
          "name": "",
          "type": "address"
        }
      ],
      "stateMutability": "view",
      "type": "function"
    },
    {
      "inputs": [],
      "name": "nonScheduleVault",
      "outputs": [
        {
          "internalType": "address",
          "name": "",
          "type": "address"
        }
      ],
      "stateMutability": "view",
      "type": "function"
    },
    {
      "inputs": [],
      "name": "pauseProxy",
      "outputs": [
        {
          "internalType": "bool",
          "name": "",
          "type": "bool"
        }
      ],
      "stateMutability": "view",
      "type": "function"
    },
    {
      "inputs": [
        {
          "internalType": "address",
          "name": "",
          "type": "address"
        }
      ],
      "name": "projects",
      "outputs": [
        {
          "internalType": "uint256",
          "name": "projectId",
          "type": "uint256"
        },
        {
          "internalType": "address",
          "name": "projectOwner",
          "type": "address"
        },
        {
          "internalType": "address",
          "name": "l1Token",
          "type": "address"
        },
        {
          "internalType": "address",
          "name": "l2Token",
          "type": "address"
        },
        {
          "internalType": "string",
          "name": "projectName",
          "type": "string"
        }
      ],
      "stateMutability": "view",
      "type": "function"
    },
    {
      "inputs": [
        {
          "internalType": "uint256",
          "name": "",
          "type": "uint256"
        }
      ],
      "name": "proxyImplementation",
      "outputs": [
        {
          "internalType": "address",
          "name": "",
          "type": "address"
        }
      ],
      "stateMutability": "view",
      "type": "function"
    },
    {
      "inputs": [],
      "name": "publicSaleVault",
      "outputs": [
        {
          "internalType": "address",
          "name": "",
          "type": "address"
        }
      ],
      "stateMutability": "view",
      "type": "function"
    },
    {
      "inputs": [
        {
          "internalType": "address",
          "name": "account",
          "type": "address"
        }
      ],
      "name": "removeAdmin",
      "outputs": [],
      "stateMutability": "nonpayable",
      "type": "function"
    },
    {
      "inputs": [
        {
          "internalType": "bytes32",
          "name": "role",
          "type": "bytes32"
        },
        {
          "internalType": "address",
          "name": "account",
          "type": "address"
        }
      ],
      "name": "renounceRole",
      "outputs": [],
      "stateMutability": "nonpayable",
      "type": "function"
    },
    {
      "inputs": [
        {
          "internalType": "bytes32",
          "name": "role",
          "type": "bytes32"
        },
        {
          "internalType": "address",
          "name": "account",
          "type": "address"
        }
      ],
      "name": "revokeRole",
      "outputs": [],
      "stateMutability": "nonpayable",
      "type": "function"
    },
    {
      "inputs": [],
      "name": "scheduleVault",
      "outputs": [
        {
          "internalType": "address",
          "name": "",
          "type": "address"
        }
      ],
      "stateMutability": "view",
      "type": "function"
    },
    {
      "inputs": [
        {
          "internalType": "bytes4",
          "name": "",
          "type": "bytes4"
        }
      ],
      "name": "selectorImplementation",
      "outputs": [
        {
          "internalType": "address",
          "name": "",
          "type": "address"
        }
      ],
      "stateMutability": "view",
      "type": "function"
    },
    {
      "inputs": [
        {
          "internalType": "address",
          "name": "_l1ProjectManager",
          "type": "address"
        }
      ],
      "name": "setL1ProjectManager",
      "outputs": [],
      "stateMutability": "nonpayable",
      "type": "function"
    },
    {
      "inputs": [
        {
          "internalType": "address",
          "name": "_l2CrossDomainMessenger",
          "type": "address"
        }
      ],
      "name": "setL2CrossDomainMessenger",
      "outputs": [],
      "stateMutability": "nonpayable",
      "type": "function"
    },
    {
      "inputs": [
        {
          "internalType": "address",
          "name": "_l2TokenFactory",
          "type": "address"
        }
      ],
      "name": "setL2TokenFactory",
      "outputs": [],
      "stateMutability": "nonpayable",
      "type": "function"
    },
    {
      "inputs": [
        {
          "internalType": "address",
          "name": "publicSale",
          "type": "address"
        },
        {
          "internalType": "address",
          "name": "initialLiquidity",
          "type": "address"
        },
        {
          "internalType": "address",
          "name": "liquidityReward",
          "type": "address"
        },
        {
          "internalType": "address",
          "name": "tonAirdrop",
          "type": "address"
        },
        {
          "internalType": "address",
          "name": "tosAirdrop",
          "type": "address"
        },
        {
          "internalType": "address",
          "name": "_scheduleVault",
          "type": "address"
        },
        {
          "internalType": "address",
          "name": "_nonScheduleVault",
          "type": "address"
        }
      ],
      "name": "setTokamakVaults",
      "outputs": [],
      "stateMutability": "nonpayable",
      "type": "function"
    },
    {
      "inputs": [
        {
          "internalType": "bytes4",
          "name": "interfaceId",
          "type": "bytes4"
        }
      ],
      "name": "supportsInterface",
      "outputs": [
        {
          "internalType": "bool",
          "name": "",
          "type": "bool"
        }
      ],
      "stateMutability": "view",
      "type": "function"
    },
    {
      "inputs": [
        {
          "internalType": "address",
          "name": "",
          "type": "address"
        }
      ],
      "name": "tokenMaps",
      "outputs": [
        {
          "internalType": "address",
          "name": "",
          "type": "address"
        }
      ],
      "stateMutability": "view",
      "type": "function"
    },
    {
      "inputs": [],
      "name": "tonAirdropVault",
      "outputs": [
        {
          "internalType": "address",
          "name": "",
          "type": "address"
        }
      ],
      "stateMutability": "view",
      "type": "function"
    },
    {
      "inputs": [],
      "name": "tosAirdropVault",
      "outputs": [
        {
          "internalType": "address",
          "name": "",
          "type": "address"
        }
      ],
      "stateMutability": "view",
      "type": "function"
    },
    {
      "inputs": [
        {
          "internalType": "address",
          "name": "newAdmin",
          "type": "address"
        }
      ],
      "name": "transferAdmin",
      "outputs": [],
      "stateMutability": "nonpayable",
      "type": "function"
    },
    {
      "inputs": [
        {
          "internalType": "address",
          "name": "l2token",
          "type": "address"
        }
      ],
      "name": "viewProject",
      "outputs": [
        {
          "components": [
            {
              "internalType": "uint256",
              "name": "projectId",
              "type": "uint256"
            },
            {
              "internalType": "address",
              "name": "projectOwner",
              "type": "address"
            },
            {
              "internalType": "address",
              "name": "l1Token",
              "type": "address"
            },
            {
              "internalType": "address",
              "name": "l2Token",
              "type": "address"
            },
            {
              "internalType": "string",
              "name": "projectName",
              "type": "string"
            }
          ],
          "internalType": "struct LibProject.L2ProjectInfo",
          "name": "",
          "type": "tuple"
        }
      ],
      "stateMutability": "view",
      "type": "function"
    }
  ],
  "transactionHash": "0xdfca72202ecb28a5ea06a3a368ac97b869a4929f320bd8c9b274e7f08a12e25c",
  "args": [],
  "numDeployments": 10,
  "solcInputHash": "8b06fcf72e21100bc51860dedd75d9cc",
  "bytecode": "0x60806040526005805460ff191660011790553480156200001e57600080fd5b506200003a600080516020620040ac833981519152806200005b565b62000055600080516020620040ac83398151915233620000a6565b6200015a565b600082815260046020526040808220600101805490849055905190918391839186917fbd79b86ffe0ab8e8776151514217cd7cacd52c909f66475c3af44e129f0b00ff9190a4505050565b620000b28282620000b6565b5050565b60008281526004602090815260408083206001600160a01b038516845290915290205460ff16620000b25760008281526004602090815260408083206001600160a01b03851684529091529020805460ff19166001179055620001163390565b6001600160a01b0316816001600160a01b0316837f2f8788117e7eff1d82e926ec794901d17c78024a50270940304540a733656f0d60405160405180910390a45050565b613f42806200016a6000396000f3fe608060405234801561001057600080fd5b50600436106102775760003560e01c80636e6e857311610160578063bb3f397a116100d8578063dfb283541161008c578063eca7b83611610071578063eca7b83614610601578063eddd5e8214610614578063fbef005a1461062757600080fd5b8063dfb28354146105ce578063e748849b146105e157600080fd5b8063c51c773a116100bd578063c51c773a1461057f578063c5b53e6814610592578063d547741f146105bb57600080fd5b8063bb3f397a14610559578063c519eeac1461056c57600080fd5b806375b238fc1161012f57806391d148541161011457806391d14854146104ef578063a217fddf14610528578063b911135f1461053057600080fd5b806375b238fc146104a4578063840e78fd146104cb57600080fd5b80636e6e857314610453578063704802751461046657806374a9f5c11461047957806375829def1461049157600080fd5b8063425d7058116101f3578063589b8ec9116101c25780635f527898116101a75780635f5278981461042057806363a8fd89146104335780636e53f4271461044057600080fd5b8063589b8ec9146103fa5780635f2144301461040d57600080fd5b8063425d7058146103885780634bc4447b1461039b57806350d2a276146103ae578063550d01a3146103d757600080fd5b806324d7806c1161024a5780632c8917c81161022f5780632c8917c81461034f5780632f2ff15d1461036257806336568abe1461037557600080fd5b806324d7806c146103115780632966c4dd1461032457600080fd5b806301ffc9a71461027c5780631785f53c146102a457806322985246146102b9578063248a9ca3146102ee575b600080fd5b61028f61028a366004612f7c565b61063a565b60405190151581526020015b60405180910390f35b6102b76102b2366004612fbb565b610671565b005b6102e07ffb5864e8ff833c3cb2d2d08505e82ff02a43554c74a35d4f5a64e8526127831181565b60405190815260200161029b565b6102e06102fc366004612fd8565b60009081526004602052604090206001015490565b61028f61031f366004612fbb565b610703565b600a54610337906001600160a01b031681565b6040516001600160a01b03909116815260200161029b565b600854610337906001600160a01b031681565b6102b7610370366004612ff1565b610743565b6102b7610383366004612ff1565b61076d565b6102b7610396366004613021565b6107f9565b6102b76103a9366004612fbb565b610a8d565b6103376103bc366004612f7c565b6003602052600090815260409020546001600160a01b031681565b61028f6103e5366004612fbb565b60026020526000908152604090205460ff1681565b6102b761040836600461367d565b610b92565b6102b761041b366004612fbb565b610d84565b6102b761042e36600461367d565b610ea1565b60005461028f9060ff1681565b600b54610337906001600160a01b031681565b600e54610337906001600160a01b031681565b6102b7610474366004612fbb565b610ff1565b6005546103379061010090046001600160a01b031681565b6102b761049f366004612fbb565b61107b565b6102e07fdf8b4c520ffe197c5343c6f5aec59570151ef9a492f2c624fd45ddde6135ec4281565b6104de6104d9366004612fbb565b6111dd565b60405161029b959493929190613935565b61028f6104fd366004612ff1565b60009182526004602090815260408084206001600160a01b0393909316845291905290205460ff1690565b6102e0600081565b61033761053e366004612fd8565b6001602052600090815260409020546001600160a01b031681565b6102b7610567366004612fbb565b6112a4565b600d54610337906001600160a01b031681565b600954610337906001600160a01b031681565b6103376105a0366004612fbb565b6010602052600090815260409020546001600160a01b031681565b6102b76105c9366004612ff1565b6113a9565b6102b76105dc36600461397a565b6113ce565b6105f46105ef366004612fbb565b611658565b60405161029b9190613a10565b600c54610337906001600160a01b031681565b600654610337906001600160a01b031681565b600754610337906001600160a01b031681565b60006001600160e01b03198216637965db0b60e01b148061066b57506301ffc9a760e01b6001600160e01b03198316145b92915050565b61067a33610703565b6106d65760405162461bcd60e51b815260206004820152602260248201527f41636365737369626c653a2043616c6c6572206973206e6f7420616e2061646d60448201526134b760f11b60648201526084015b60405180910390fd5b6107007fdf8b4c520ffe197c5343c6f5aec59570151ef9a492f2c624fd45ddde6135ec428261076d565b50565b6001600160a01b03811660009081527f2fb794d17134dfdec181ddbac1babb5ab1eb140204ef4d982f294e7fc8b69022602052604081205460ff1661066b565b60008281526004602052604090206001015461075e81611795565b610768838361179f565b505050565b6001600160a01b03811633146107eb5760405162461bcd60e51b815260206004820152602f60248201527f416363657373436f6e74726f6c3a2063616e206f6e6c792072656e6f756e636560448201527f20726f6c657320666f722073656c66000000000000000000000000000000000060648201526084016106cd565b6107f58282611841565b5050565b6006546001600160a01b03161580159061081d57506006546001600160a01b031633145b6108695760405162461bcd60e51b815260206004820152601c60248201527f63616c6c6572206973206e6f74206c32546f6b656e466163746f72790000000060448201526064016106cd565b60008190036108ba5760405162461bcd60e51b815260206004820152601360248201527f70726f6a6563744e616d65206973206e756c6c0000000000000000000000000060448201526064016106cd565b6001600160a01b038381166000908152600f602052604090206002015416156109255760405162461bcd60e51b815260206004820152600d60248201527f616c72656164792061646465640000000000000000000000000000000000000060448201526064016106cd565b6040518060a0016040528060008152602001866001600160a01b03168152602001856001600160a01b03168152602001846001600160a01b0316815260200183838080601f01602080910402602001604051908101604052809392919081815260200183838082843760009201829052509390945250506001600160a01b038087168252600f602090815260409283902085518155908501516001820180549184166001600160a01b031992831617905592850151600282018054918416918516919091179055606085015160038201805491909316931692909217905560808301519091506004820190610a1a9082613af4565b5050506001600160a01b038481166000818152601060205260409081902080546001600160a01b0319169387169384179055517f665c02e22efe28364a081a633646b8db53de75e45491bbd51cb302f6e1ab3a2190610a7e90899087908790613bb4565b60405180910390a35050505050565b806001600160a01b038116610ac95760405162461bcd60e51b81526020600482015260026024820152612d1960f11b60448201526064016106cd565b610ad233610703565b610b295760405162461bcd60e51b815260206004820152602260248201527f41636365737369626c653a2043616c6c6572206973206e6f7420616e2061646d60448201526134b760f11b60648201526084016106cd565b6007546001600160a01b03808416911603610b6f5760405162461bcd60e51b81526004016106cd9060208082526004908201526373616d6560e01b604082015260600190565b50600780546001600160a01b0319166001600160a01b0392909216919091179055565b6007546001600160a01b031633148015610c2c575060055460075460408051636e296e4560e01b815290516101009093046001600160a01b0390811693921691636e296e45916004808201926020929091908290030181865afa158015610bfd573d6000803e3d6000fd5b505050506040513d601f19601f82011682018060405250810190610c219190613bf3565b6001600160a01b0316145b610c845760405162461bcd60e51b8152602060048201526024808201527f6e6f74206f6e6c794d657373656e676572416e644c3150726f6a6563744d616e60448201526330b3b2b960e11b60648201526084016106cd565b866001600160a01b038116610cc05760405162461bcd60e51b81526020600482015260026024820152612d1960f11b60448201526064016106cd565b866001600160a01b038116610cfc5760405162461bcd60e51b81526020600482015260026024820152612d1960f11b60448201526064016106cd565b8680600003610d325760405162461bcd60e51b81526020600482015260026024820152615a3160f01b60448201526064016106cd565b8680600003610d685760405162461bcd60e51b81526020600482015260026024820152615a3160f01b60448201526064016106cd565b610d778b8b8b8b8b8b8b6118c4565b5050505050505050505050565b806001600160a01b038116610dc05760405162461bcd60e51b81526020600482015260026024820152612d1960f11b60448201526064016106cd565b610dc933610703565b610e205760405162461bcd60e51b815260206004820152602260248201527f41636365737369626c653a2043616c6c6572206973206e6f7420616e2061646d60448201526134b760f11b60648201526084016106cd565b6005546001600160a01b038084166101009092041603610e6b5760405162461bcd60e51b81526004016106cd9060208082526004908201526373616d6560e01b604082015260600190565b50600580546001600160a01b039092166101000274ffffffffffffffffffffffffffffffffffffffff0019909216919091179055565b866001600160a01b038116610edd5760405162461bcd60e51b81526020600482015260026024820152612d1960f11b60448201526064016106cd565b866001600160a01b038116610f195760405162461bcd60e51b81526020600482015260026024820152612d1960f11b60448201526064016106cd565b8680600003610f4f5760405162461bcd60e51b81526020600482015260026024820152615a3160f01b60448201526064016106cd565b8680600003610f855760405162461bcd60e51b81526020600482015260026024820152615a3160f01b60448201526064016106cd565b6001600160a01b038a81166000908152600f6020526040902060010154163314610d685760405162461bcd60e51b815260206004820152601060248201527f6e6f742070726f6a6563744f776e65720000000000000000000000000000000060448201526064016106cd565b610ffa33610703565b6110515760405162461bcd60e51b815260206004820152602260248201527f41636365737369626c653a2043616c6c6572206973206e6f7420616e2061646d60448201526134b760f11b60648201526084016106cd565b6107007fdf8b4c520ffe197c5343c6f5aec59570151ef9a492f2c624fd45ddde6135ec4282610743565b61108433610703565b6110db5760405162461bcd60e51b815260206004820152602260248201527f41636365737369626c653a2043616c6c6572206973206e6f7420616e2061646d60448201526134b760f11b60648201526084016106cd565b6001600160a01b0381166111315760405162461bcd60e51b815260206004820152601860248201527f41636365737369626c653a207a65726f2061646472657373000000000000000060448201526064016106cd565b6001600160a01b03811633036111895760405162461bcd60e51b815260206004820152601660248201527f41636365737369626c653a2073616d652061646d696e0000000000000000000060448201526064016106cd565b6111b37fdf8b4c520ffe197c5343c6f5aec59570151ef9a492f2c624fd45ddde6135ec4282610743565b6107007fdf8b4c520ffe197c5343c6f5aec59570151ef9a492f2c624fd45ddde6135ec423361076d565b600f602052600090815260409020805460018201546002830154600384015460048501805494956001600160a01b0394851695938516949092169261122190613a6c565b80601f016020809104026020016040519081016040528092919081815260200182805461124d90613a6c565b801561129a5780601f1061126f5761010080835404028352916020019161129a565b820191906000526020600020905b81548152906001019060200180831161127d57829003601f168201915b5050505050905085565b806001600160a01b0381166112e05760405162461bcd60e51b81526020600482015260026024820152612d1960f11b60448201526064016106cd565b6112e933610703565b6113405760405162461bcd60e51b815260206004820152602260248201527f41636365737369626c653a2043616c6c6572206973206e6f7420616e2061646d60448201526134b760f11b60648201526084016106cd565b6006546001600160a01b038084169116036113865760405162461bcd60e51b81526004016106cd9060208082526004908201526373616d6560e01b604082015260600190565b50600680546001600160a01b0319166001600160a01b0392909216919091179055565b6000828152600460205260409020600101546113c481611795565b6107688383611841565b6113d733610703565b61142e5760405162461bcd60e51b815260206004820152602260248201527f41636365737369626c653a2043616c6c6572206973206e6f7420616e2061646d60448201526134b760f11b60648201526084016106cd565b866001600160a01b03811661146a5760405162461bcd60e51b81526020600482015260026024820152612d1960f11b60448201526064016106cd565b866001600160a01b0381166114a65760405162461bcd60e51b81526020600482015260026024820152612d1960f11b60448201526064016106cd565b866001600160a01b0381166114e25760405162461bcd60e51b81526020600482015260026024820152612d1960f11b60448201526064016106cd565b856001600160a01b03811661151e5760405162461bcd60e51b81526020600482015260026024820152612d1960f11b60448201526064016106cd565b876001600160a01b03811661155a5760405162461bcd60e51b81526020600482015260026024820152612d1960f11b60448201526064016106cd565b866001600160a01b0381166115965760405162461bcd60e51b81526020600482015260026024820152612d1960f11b60448201526064016106cd565b866001600160a01b0381166115d25760405162461bcd60e51b81526020600482015260026024820152612d1960f11b60448201526064016106cd565b5050600880546001600160a01b03199081166001600160a01b039e8f16179091556009805482169c8e169c909c17909b555050600a80548a16988b16989098179097555050600b8054871694881694909417909355600c8054861692871692909217909155600d80548516918616919091179055600e8054909316931692909217905550565b6116a56040518060a001604052806000815260200160006001600160a01b0316815260200160006001600160a01b0316815260200160006001600160a01b03168152602001606081525090565b6001600160a01b038083166000908152600f6020908152604091829020825160a08101845281548152600182015485169281019290925260028101548416928201929092526003820154909216606083015260048101805460808401919061170c90613a6c565b80601f016020809104026020016040519081016040528092919081815260200182805461173890613a6c565b80156117855780601f1061175a57610100808354040283529160200191611785565b820191906000526020600020905b81548152906001019060200180831161176857829003601f168201915b5050505050815250509050919050565b6107008133612c34565b60008281526004602090815260408083206001600160a01b038516845290915290205460ff166107f55760008281526004602090815260408083206001600160a01b03851684529091529020805460ff191660011790556117fd3390565b6001600160a01b0316816001600160a01b0316837f2f8788117e7eff1d82e926ec794901d17c78024a50270940304540a733656f0d60405160405180910390a45050565b60008281526004602090815260408083206001600160a01b038516845290915290205460ff16156107f55760008281526004602090815260408083206001600160a01b0385168085529252808320805460ff1916905551339285917ff6391f5c32d9c69d2a47ea670b442974b53935d1edc7fd64eb21e047a839171b9190a45050565b6001600160a01b038087166000908152600f60209081526040808320815160a0810183528154815260018201548616938101939093526002810154851691830191909152600381015490931660608201526004830180549293919260808401919061192e90613a6c565b80601f016020809104026020016040519081016040528092919081815260200182805461195a90613a6c565b80156119a75780601f1061197c576101008083540402835291602001916119a7565b820191906000526020600020905b81548152906001019060200180831161198a57829003601f168201915b5050505050815250509050876001600160a01b031681604001516001600160a01b031614611a175760405162461bcd60e51b815260206004820152601360248201527f6e6f74206d617463686564206c31546f6b656e0000000000000000000000000060448201526064016106cd565b866001600160a01b031681606001516001600160a01b031614611a7c5760405162461bcd60e51b815260206004820152601360248201527f6e6f74206d617463686564206c32546f6b656e0000000000000000000000000060448201526064016106cd565b83515161012081015161010090910151600091611a9891613c26565b905060008560a0015160200151866080015160200151876060015160200151602001518860400151602001516020015189602001516000015186611adc9190613c26565b611ae69190613c26565b611af09190613c26565b611afa9190613c26565b611b049190613c26565b905060008060005b8751811015611b5657878181518110611b2757611b27613c39565b6020026020010151602001516020015183611b429190613c26565b925080611b4e81613c4f565b915050611b0c565b5060005b8651811015611ba057868181518110611b7557611b75613c39565b60200260200101516040015182611b8c9190613c26565b915080611b9881613c4f565b915050611b5a565b50611bab8183613c26565b611bb59084613c26565b9250888314611c065760405162461bcd60e51b815260206004820152601760248201527f6e6f74206d61746368656420746f74616c416d6f756e7400000000000000000060448201526064016106cd565b6040516370a0823160e01b81523060048201526001600160a01b038c16906370a0823190602401602060405180830381865afa158015611c4a573d6000803e3d6000fd5b505050506040513d601f19601f82011682018060405250810190611c6e9190613c68565b891115611cbd5760405162461bcd60e51b815260206004820152601460248201527f696e73756666696369656e742062616c616e636500000000000000000000000060448201526064016106cd565b6060850180516001600160a01b039081166000908152600f602052604090208c90559051600854611cef921686612ca9565b606085015160095460208a015151611d1192916001600160a01b031690612ca9565b606080860151600a54918a015160209081015181015160408c015182015190910151611d4f936001600160a01b031691611d4a91613c26565b612ca9565b6060850151600b5460a08a015160200151611d7492916001600160a01b031690612ca9565b6060850151600c5460808a015160200151611d9992916001600160a01b031690612ca9565b831561206e57600854606086015160208701516040516328f40a9560e11b81526001600160a01b03928316600482015290821660248201529116906351e8152a90604401602060405180830381865afa158015611dfa573d6000803e3d6000fd5b505050506040513d601f19601f82011682018060405250810190611e1e9190613c81565b611e935760085460608601516020870151604051631adcd63360e11b81526001600160a01b03928316600482015290821660248201529116906335b9ac6690604401600060405180830381600087803b158015611e7a57600080fd5b505af1158015611e8e573d6000803e3d6000fd5b505050505b6008546060868101518a51805160208083015160409384015184516329d6a02360e11b81526001600160a01b0396871660048201528451602482015283850151604482015285850151606482015284880151608482015260808086015160a483015260a08087015160c484015260c08088015160e485015260e08801516101048501526101008801516101248501526101208801516101448501526101408801516101648501526101608801516101848501526101808801516101a48501526101a08801516101c48501526101c08801516101e48501526101e0880151610204850152610200880151610224850152610220880151610244850152610240880151610264850152610260880151610284850152610280909701516102a484015284516102c4840152848601516102e484015287850151610304840152848a0151610324840152938101516103448301528251881661036483015293820151610384820152948101516103a4860152958601516103c4850152908501516103e48401528401516104048301529092015162ffffff16610424830152909116906353ad40469061044401600060405180830381600087803b15801561205557600080fd5b505af1158015612069573d6000803e3d6000fd5b505050505b6020880151511561221a57600954606086015160208701516040516328f40a9560e11b81526001600160a01b03928316600482015290821660248201529116906351e8152a90604401602060405180830381865afa1580156120d4573d6000803e3d6000fd5b505050506040513d601f19601f820116820180604052508101906120f89190613c81565b61216d5760095460608601516020870151604051631adcd63360e11b81526001600160a01b03928316600482015290821660248201529116906335b9ac6690604401600060405180830381600087803b15801561215457600080fd5b505af1158015612168573d6000803e3d6000fd5b505050505b60095460608681015160208b81015160408051632215f6f360e11b81526001600160a01b039485166004820152825160248201529282015160448401528101516064830152928301516084820152608083015163ffffffff1660a482015260a09092015161ffff1660c48301529091169063442bede69060e401600060405180830381600087803b15801561220157600080fd5b505af1158015612215573d6000803e3d6000fd5b505050505b876040015160200151602001516000146123ac57600a54606086015160208701516040516328f40a9560e11b81526001600160a01b03928316600482015290821660248201529116906351e8152a90604401602060405180830381865afa158015612289573d6000803e3d6000fd5b505050506040513d601f19601f820116820180604052508101906122ad9190613c81565b61232257600a5460608601516020870151604051631adcd63360e11b81526001600160a01b03928316600482015290821660248201529116906335b9ac6690604401600060405180830381600087803b15801561230957600080fd5b505af115801561231d573d6000803e3d6000fd5b505050505b600088604001519050600a60009054906101000a90046001600160a01b03166001600160a01b03166317bc6a728d836000015184602001516040518463ffffffff1660e01b815260040161237893929190613ca3565b600060405180830381600087803b15801561239257600080fd5b505af11580156123a6573d6000803e3d6000fd5b50505050505b8760600151602001516020015160001461253e57600a54606086015160208701516040516328f40a9560e11b81526001600160a01b03928316600482015290821660248201529116906351e8152a90604401602060405180830381865afa15801561241b573d6000803e3d6000fd5b505050506040513d601f19601f8201168201806040525081019061243f9190613c81565b6124b457600a5460608601516020870151604051631adcd63360e11b81526001600160a01b03928316600482015290821660248201529116906335b9ac6690604401600060405180830381600087803b15801561249b57600080fd5b505af11580156124af573d6000803e3d6000fd5b505050505b600088606001519050600a60009054906101000a90046001600160a01b03166001600160a01b03166317bc6a728d836000015184602001516040518463ffffffff1660e01b815260040161250a93929190613ca3565b600060405180830381600087803b15801561252457600080fd5b505af1158015612538573d6000803e3d6000fd5b50505050505b608088015160200151156126ad57600c54606086015160208701516040516328f40a9560e11b81526001600160a01b03928316600482015290821660248201529116906351e8152a90604401602060405180830381865afa1580156125a7573d6000803e3d6000fd5b505050506040513d601f19601f820116820180604052508101906125cb9190613c81565b61264057600c5460608601516020870151604051631adcd63360e11b81526001600160a01b03928316600482015290821660248201529116906335b9ac6690604401600060405180830381600087803b15801561262757600080fd5b505af115801561263b573d6000803e3d6000fd5b505050505b600c54606086015160808a01516040516356a6192d60e11b81526001600160a01b039093169263ad4c325a9261267a929091600401613d41565b600060405180830381600087803b15801561269457600080fd5b505af11580156126a8573d6000803e3d6000fd5b505050505b60a0880151602001511561281c57600b54606086015160208701516040516328f40a9560e11b81526001600160a01b03928316600482015290821660248201529116906351e8152a90604401602060405180830381865afa158015612716573d6000803e3d6000fd5b505050506040513d601f19601f8201168201806040525081019061273a9190613c81565b6127af57600b5460608601516020870151604051631adcd63360e11b81526001600160a01b03928316600482015290821660248201529116906335b9ac6690604401600060405180830381600087803b15801561279657600080fd5b505af11580156127aa573d6000803e3d6000fd5b505050505b600b54606086015160a08a01516040516356a6192d60e11b81526001600160a01b039093169263ad4c325a926127e9929091600401613d41565b600060405180830381600087803b15801561280357600080fd5b505af1158015612817573d6000803e3d6000fd5b505050505b8982156129f357600d54606087015160208801516040516328f40a9560e11b81526001600160a01b03928316600482015290821660248201529116906351e8152a90604401602060405180830381865afa15801561287e573d6000803e3d6000fd5b505050506040513d601f19601f820116820180604052508101906128a29190613c81565b61291757600d5460608701516020880151604051631adcd63360e11b81526001600160a01b03928316600482015290821660248201529116906335b9ac6690604401600060405180830381600087803b1580156128fe57600080fd5b505af1158015612912573d6000803e3d6000fd5b505050505b60005b88518110156129f157600089828151811061293757612937613c39565b6020026020010151905061296d8860600151600d60009054906101000a90046001600160a01b0316836020015160200151612ca9565b600d5460608901518251602084015160405163baf6ce1f60e01b81526001600160a01b039094169363baf6ce1f936129ab9390929091600401613db5565b600060405180830381600087803b1580156129c557600080fd5b505af11580156129d9573d6000803e3d6000fd5b505050505080806129e990613c4f565b91505061291a565b505b8115612bcc57600e54606087015160208801516040516328f40a9560e11b81526001600160a01b03928316600482015290821660248201529116906351e8152a90604401602060405180830381865afa158015612a54573d6000803e3d6000fd5b505050506040513d601f19601f82011682018060405250810190612a789190613c81565b612aed57600e5460608701516020880151604051631adcd63360e11b81526001600160a01b03928316600482015290821660248201529116906335b9ac6690604401600060405180830381600087803b158015612ad457600080fd5b505af1158015612ae8573d6000803e3d6000fd5b505050505b60005b8751811015612bca576000888281518110612b0d57612b0d613c39565b60200260200101519050612b3f8860600151600e60009054906101000a90046001600160a01b03168360400151612ca9565b600e54606089015182516020840151604080860151905163021a440560e01b81526001600160a01b039095169463021a440594612b8494909390929091600401613e3e565b600060405180830381600087803b158015612b9e57600080fd5b505af1158015612bb2573d6000803e3d6000fd5b50505050508080612bc290613c4f565b915050612af0565b505b60408681015160608089015183516001600160a01b03938416815292166020830152818301849052810186905290517fc09fbebfef0054b64085d21310e8621dd22206fc0a44cedfa0a2f0fa5b97f7199181900360800190a150505050505050505050505050565b60008281526004602090815260408083206001600160a01b038516845290915290205460ff166107f557612c6781612dba565b612c72836020612dcc565b604051602001612c83929190613e73565b60408051601f198184030181529082905262461bcd60e51b82526106cd91600401613ef4565b6001600160a01b03821615801590612cc057508015155b8015612d3c5750604051636eb1769f60e11b81523060048201526001600160a01b03838116602483015282919085169063dd62ed3e90604401602060405180830381865afa158015612d16573d6000803e3d6000fd5b505050506040513d601f19601f82011682018060405250810190612d3a9190613c68565b105b156107685760405163095ea7b360e01b81526001600160a01b0383811660048301526024820183905284169063095ea7b3906044016020604051808303816000875af1158015612d90573d6000803e3d6000fd5b505050506040513d601f19601f82011682018060405250810190612db49190613c81565b50505050565b606061066b6001600160a01b03831660145b60606000612ddb836002613f07565b612de6906002613c26565b67ffffffffffffffff811115612dfe57612dfe6130c9565b6040519080825280601f01601f191660200182016040528015612e28576020820181803683370190505b509050600360fc1b81600081518110612e4357612e43613c39565b60200101906001600160f81b031916908160001a905350600f60fb1b81600181518110612e7257612e72613c39565b60200101906001600160f81b031916908160001a9053506000612e96846002613f07565b612ea1906001613c26565b90505b6001811115612f26577f303132333435363738396162636465660000000000000000000000000000000085600f1660108110612ee257612ee2613c39565b1a60f81b828281518110612ef857612ef8613c39565b60200101906001600160f81b031916908160001a90535060049490941c93612f1f81613f1e565b9050612ea4565b508315612f755760405162461bcd60e51b815260206004820181905260248201527f537472696e67733a20686578206c656e67746820696e73756666696369656e7460448201526064016106cd565b9392505050565b600060208284031215612f8e57600080fd5b81356001600160e01b031981168114612f7557600080fd5b6001600160a01b038116811461070057600080fd5b600060208284031215612fcd57600080fd5b8135612f7581612fa6565b600060208284031215612fea57600080fd5b5035919050565b6000806040838503121561300457600080fd5b82359150602083013561301681612fa6565b809150509250929050565b60008060008060006080868803121561303957600080fd5b853561304481612fa6565b9450602086013561305481612fa6565b9350604086013561306481612fa6565b9250606086013567ffffffffffffffff8082111561308157600080fd5b818801915088601f83011261309557600080fd5b8135818111156130a457600080fd5b8960208285010111156130b657600080fd5b9699959850939650602001949392505050565b634e487b7160e01b600052604160045260246000fd5b60405160e0810167ffffffffffffffff81118282101715613102576131026130c9565b60405290565b60405160c0810167ffffffffffffffff81118282101715613102576131026130c9565b6040805190810167ffffffffffffffff81118282101715613102576131026130c9565b6040516060810167ffffffffffffffff81118282101715613102576131026130c9565b6040516102a0810167ffffffffffffffff81118282101715613102576131026130c9565b604051601f8201601f1916810167ffffffffffffffff811182821017156131be576131be6130c9565b604052919050565b600060a082840312156131d857600080fd5b60405160a0810181811067ffffffffffffffff821117156131fb576131fb6130c9565b806040525080915082358152602083013560208201526040830135604082015260608301356060820152608083013560808201525092915050565b803562ffffff8116811461324957600080fd5b919050565b600060e0828403121561326057600080fd5b6132686130df565b9050813561327581612fa6565b808252506020820135602082015260408201356040820152606082013560608201526080820135608082015260a082013560a08201526132b760c08301613236565b60c082015292915050565b803563ffffffff8116811461324957600080fd5b600060c082840312156132e857600080fd5b6132f0613108565b905081358152602082013560208201526040820135604082015260608201356060820152613320608083016132c2565b608082015260a082013561ffff8116811461333a57600080fd5b60a082015292915050565b600060e0828403121561335757600080fd5b61335f6130df565b9050813561336c81612fa6565b8082525060208201356020820152604082013560408201526060820135606082015261339a608083016132c2565b60808201526133ab60a083016132c2565b60a08201526132b760c083016132c2565b60008183036101408112156133d057600080fd5b6133d861312b565b915060608112156133e857600080fd5b506133f161314e565b82356133fc81612fa6565b8152602083013561340c81612fa6565b602082015261341d60408401613236565b604082015281526134318360608401613345565b602082015292915050565b600067ffffffffffffffff821115613456576134566130c9565b5060051b60200190565b600082601f83011261347157600080fd5b813567ffffffffffffffff81111561348b5761348b6130c9565b61349e601f8201601f1916602001613195565b8181528460208386010111156134b357600080fd5b816020850160208301376000918101602001919091529392505050565b600082601f8301126134e157600080fd5b813560206134f66134f18361343c565b613195565b82815260059290921b8401810191818101908684111561351557600080fd5b8286015b8481101561359f57803567ffffffffffffffff8082111561353a5760008081fd5b90880190610100828b03601f190112156135545760008081fd5b61355c61312b565b868301358281111561356e5760008081fd5b61357c8c8983870101613460565b82525061358c8b60408501613345565b8188015285525050918301918301613519565b509695505050505050565b600082601f8301126135bb57600080fd5b813560206135cb6134f18361343c565b82815260059290921b840181019181810190868411156135ea57600080fd5b8286015b8481101561359f57803567ffffffffffffffff8082111561360f5760008081fd5b908801906060828b03601f19018113156136295760008081fd5b61363161314e565b87840135838111156136435760008081fd5b6136518d8a83880101613460565b825250604092508284013561366581612fa6565b818901529201359082015283529183019183016135ee565b60008060008060008060008789036109e081121561369a57600080fd5b88356136a581612fa6565b975060208901356136b581612fa6565b96506040890135955060608901359450607f19016109208112156136d857600080fd5b6136e0613108565b6104208212156136ef57600080fd5b6136f761314e565b6102a083121561370657600080fd5b61370e613171565b925060808b0135835260a08b0135602084015260c08b0135604084015260e08b013560608401526101008b013560808401526101208b013560a08401526101408b013560c08401526101608b013560e08401526101808b01356101008401526101a08b01356101208401526101c08b01356101408401526101e08b01356101608401526102008b0135610180840152610220808c01356101a0850152610240808d01356101c0860152610260808e01356101e0870152610280808f01356102008801526102a08f0135848801526102c08f0135838801526102e08f0135828801526103008f0135818801525050505082815261380e8c6103208d016131c6565b60208201526138218c6103c08d0161324e565b604082015281526138368b6104a08c016132d6565b60208201526138498b6105608c016133bc565b604082015261385c8b6106a08c016133bc565b606082015261386f8b6107e08c01613345565b60808201526138828b6108c08c01613345565b60a08201529350506109a088013567ffffffffffffffff808211156138a657600080fd5b6138b28b838c016134d0565b93506109c08a01359150808211156138c957600080fd5b506138d68a828b016135aa565b91505092959891949750929550565b60005b838110156139005781810151838201526020016138e8565b50506000910152565b600081518084526139218160208601602086016138e5565b601f01601f19169290920160200192915050565b85815260006001600160a01b038087166020840152808616604084015280851660608401525060a0608083015261396f60a0830184613909565b979650505050505050565b600080600080600080600060e0888a03121561399557600080fd5b87356139a081612fa6565b965060208801356139b081612fa6565b955060408801356139c081612fa6565b945060608801356139d081612fa6565b935060808801356139e081612fa6565b925060a08801356139f081612fa6565b915060c0880135613a0081612fa6565b8091505092959891949750929550565b6020815281516020820152600060208301516001600160a01b0380821660408501528060408601511660608501528060608601511660808501525050608083015160a080840152613a6460c0840182613909565b949350505050565b600181811c90821680613a8057607f821691505b602082108103613aa057634e487b7160e01b600052602260045260246000fd5b50919050565b601f82111561076857600081815260208120601f850160051c81016020861015613acd5750805b601f850160051c820191505b81811015613aec57828155600101613ad9565b505050505050565b815167ffffffffffffffff811115613b0e57613b0e6130c9565b613b2281613b1c8454613a6c565b84613aa6565b602080601f831160018114613b575760008415613b3f5750858301515b600019600386901b1c1916600185901b178555613aec565b600085815260208120601f198616915b82811015613b8657888601518255948401946001909101908401613b67565b5085821015613ba45787850151600019600388901b60f8161c191681555b5050505050600190811b01905550565b6001600160a01b038416815260406020820152816040820152818360608301376000818301606090810191909152601f909201601f1916010192915050565b600060208284031215613c0557600080fd5b8151612f7581612fa6565b634e487b7160e01b600052601160045260246000fd5b8082018082111561066b5761066b613c10565b634e487b7160e01b600052603260045260246000fd5b600060018201613c6157613c61613c10565b5060010190565b600060208284031215613c7a57600080fd5b5051919050565b600060208284031215613c9357600080fd5b81518015158114612f7557600080fd5b6000610160820190506001600160a01b0380861683528085511660208401528060208601511660408401525062ffffff6040850151166060830152613a6460808301846001600160a01b038151168252602081015160208301526040810151604083015260608101516060830152608081015163ffffffff80821660808501528060a08401511660a08501528060c08401511660c085015250505050565b6001600160a01b03831681526101008101612f7560208301846001600160a01b038151168252602081015160208301526040810151604083015260608101516060830152608081015163ffffffff80821660808501528060a08401511660a08501528060c08401511660c085015250505050565b60006101206001600160a01b0386168352806020840152613dd881840186613909565b915050613a6460408301846001600160a01b038151168252602081015160208301526040810151604083015260608101516060830152608081015163ffffffff80821660808501528060a08401511660a08501528060c08401511660c085015250505050565b60006001600160a01b03808716835260806020840152613e616080840187613909565b94166040830152506060015292915050565b7f416363657373436f6e74726f6c3a206163636f756e7420000000000000000000815260008351613eab8160178501602088016138e5565b7f206973206d697373696e6720726f6c65200000000000000000000000000000006017918401918201528351613ee88160288401602088016138e5565b01602801949350505050565b602081526000612f756020830184613909565b808202811582820484141761066b5761066b613c10565b600081613f2d57613f2d613c10565b50600019019056fea164736f6c6343000812000adf8b4c520ffe197c5343c6f5aec59570151ef9a492f2c624fd45ddde6135ec42",
  "devdoc": {
    "events": {
      "RoleAdminChanged(bytes32,bytes32,bytes32)": {
        "details": "Emitted when `newAdminRole` is set as ``role``'s admin role, replacing `previousAdminRole` `DEFAULT_ADMIN_ROLE` is the starting admin for all roles, despite {RoleAdminChanged} not being emitted signaling this. _Available since v3.1._"
      },
      "RoleGranted(bytes32,address,address)": {
        "details": "Emitted when `account` is granted `role`. `sender` is the account that originated the contract call, an admin role bearer except when using {AccessControl-_setupRole}."
      },
      "RoleRevoked(bytes32,address,address)": {
        "details": "Emitted when `account` is revoked `role`. `sender` is the account that originated the contract call:   - if using `revokeRole`, it is the admin role bearer   - if using `renounceRole`, it is the role bearer (i.e. `account`)"
      }
    },
    "kind": "dev",
    "methods": {
      "addAdmin(address)": {
        "details": "add admin",
        "params": {
          "account": "address to add"
        }
      },
      "createL2Project(address,address,address,string)": {
        "details": " "
      },
      "getRoleAdmin(bytes32)": {
        "details": "Returns the admin role that controls `role`. See {grantRole} and {revokeRole}. To change a role's admin, use {_setRoleAdmin}."
      },
      "grantRole(bytes32,address)": {
        "details": "Grants `role` to `account`. If `account` had not been already granted `role`, emits a {RoleGranted} event. Requirements: - the caller must have ``role``'s admin role. May emit a {RoleGranted} event."
      },
      "hasRole(bytes32,address)": {
        "details": "Returns `true` if `account` has been granted `role`."
      },
      "isAdmin(address)": {
        "details": "whether admin",
        "params": {
          "account": "address to check"
        }
      },
      "removeAdmin(address)": {
        "details": "remove admin",
        "params": {
          "account": "address to remove"
        }
      },
      "renounceRole(bytes32,address)": {
        "details": "Revokes `role` from the calling account. Roles are often managed via {grantRole} and {revokeRole}: this function's purpose is to provide a mechanism for accounts to lose their privileges if they are compromised (such as when a trusted device is misplaced). If the calling account had been revoked `role`, emits a {RoleRevoked} event. Requirements: - the caller must be `account`. May emit a {RoleRevoked} event."
      },
      "revokeRole(bytes32,address)": {
        "details": "Revokes `role` from `account`. If `account` had been granted `role`, emits a {RoleRevoked} event. Requirements: - the caller must have ``role``'s admin role. May emit a {RoleRevoked} event."
      },
      "setL1ProjectManager(address)": {
        "details": "l1ProjectManager  "
      },
      "setL2CrossDomainMessenger(address)": {
        "details": "l2CrossDomainMessenger  "
      },
      "setL2TokenFactory(address)": {
        "details": "l2TokenFactory  "
      },
      "supportsInterface(bytes4)": {
        "details": "See {IERC165-supportsInterface}."
      },
      "transferAdmin(address)": {
        "details": "transfer admin",
        "params": {
          "newAdmin": "new admin address"
        }
      }
    },
    "title": "L2ProjectManager",
    "version": 1
  },
  "userdoc": {
    "kind": "user",
    "methods": {},
    "version": 1
  },
  "storageLayout": {
    "storage": [
      {
        "astId": 3664,
        "contract": "contracts/L2/L2ProjectManager.sol:L2ProjectManager",
        "label": "pauseProxy",
        "offset": 0,
        "slot": "0",
        "type": "t_bool"
      },
      {
        "astId": 3668,
        "contract": "contracts/L2/L2ProjectManager.sol:L2ProjectManager",
        "label": "proxyImplementation",
        "offset": 0,
        "slot": "1",
        "type": "t_mapping(t_uint256,t_address)"
      },
      {
        "astId": 3672,
        "contract": "contracts/L2/L2ProjectManager.sol:L2ProjectManager",
        "label": "aliveImplementation",
        "offset": 0,
        "slot": "2",
        "type": "t_mapping(t_address,t_bool)"
      },
      {
        "astId": 3676,
        "contract": "contracts/L2/L2ProjectManager.sol:L2ProjectManager",
        "label": "selectorImplementation",
        "offset": 0,
        "slot": "3",
        "type": "t_mapping(t_bytes4,t_address)"
      },
      {
        "astId": 24,
        "contract": "contracts/L2/L2ProjectManager.sol:L2ProjectManager",
        "label": "_roles",
        "offset": 0,
        "slot": "4",
        "type": "t_mapping(t_bytes32,t_struct(RoleData)19_storage)"
      },
      {
        "astId": 2728,
        "contract": "contracts/L2/L2ProjectManager.sol:L2ProjectManager",
        "label": "free",
        "offset": 0,
        "slot": "5",
        "type": "t_bool"
      },
      {
        "astId": 2730,
        "contract": "contracts/L2/L2ProjectManager.sol:L2ProjectManager",
        "label": "l1ProjectManager",
        "offset": 1,
        "slot": "5",
        "type": "t_address"
      },
      {
        "astId": 2732,
        "contract": "contracts/L2/L2ProjectManager.sol:L2ProjectManager",
        "label": "l2TokenFactory",
        "offset": 0,
        "slot": "6",
        "type": "t_address"
      },
      {
        "astId": 2734,
        "contract": "contracts/L2/L2ProjectManager.sol:L2ProjectManager",
        "label": "l2CrossDomainMessenger",
        "offset": 0,
        "slot": "7",
        "type": "t_address"
      },
      {
        "astId": 2736,
        "contract": "contracts/L2/L2ProjectManager.sol:L2ProjectManager",
        "label": "publicSaleVault",
        "offset": 0,
        "slot": "8",
        "type": "t_address"
      },
      {
        "astId": 2738,
        "contract": "contracts/L2/L2ProjectManager.sol:L2ProjectManager",
        "label": "initialLiquidityVault",
        "offset": 0,
        "slot": "9",
        "type": "t_address"
      },
      {
        "astId": 2740,
        "contract": "contracts/L2/L2ProjectManager.sol:L2ProjectManager",
        "label": "liquidityRewardVault",
        "offset": 0,
        "slot": "10",
        "type": "t_address"
      },
      {
        "astId": 2742,
        "contract": "contracts/L2/L2ProjectManager.sol:L2ProjectManager",
        "label": "tonAirdropVault",
        "offset": 0,
        "slot": "11",
        "type": "t_address"
      },
      {
        "astId": 2744,
        "contract": "contracts/L2/L2ProjectManager.sol:L2ProjectManager",
        "label": "tosAirdropVault",
        "offset": 0,
        "slot": "12",
        "type": "t_address"
      },
      {
        "astId": 2746,
        "contract": "contracts/L2/L2ProjectManager.sol:L2ProjectManager",
        "label": "scheduleVault",
        "offset": 0,
        "slot": "13",
        "type": "t_address"
      },
      {
        "astId": 2748,
        "contract": "contracts/L2/L2ProjectManager.sol:L2ProjectManager",
        "label": "nonScheduleVault",
        "offset": 0,
        "slot": "14",
        "type": "t_address"
      },
      {
        "astId": 2753,
        "contract": "contracts/L2/L2ProjectManager.sol:L2ProjectManager",
        "label": "projects",
        "offset": 0,
        "slot": "15",
        "type": "t_mapping(t_address,t_struct(L2ProjectInfo)3031_storage)"
      },
      {
        "astId": 2757,
        "contract": "contracts/L2/L2ProjectManager.sol:L2ProjectManager",
        "label": "tokenMaps",
        "offset": 0,
        "slot": "16",
        "type": "t_mapping(t_address,t_address)"
      }
    ],
    "types": {
      "t_address": {
        "encoding": "inplace",
        "label": "address",
        "numberOfBytes": "20"
      },
      "t_bool": {
        "encoding": "inplace",
        "label": "bool",
        "numberOfBytes": "1"
      },
      "t_bytes32": {
        "encoding": "inplace",
        "label": "bytes32",
        "numberOfBytes": "32"
      },
      "t_bytes4": {
        "encoding": "inplace",
        "label": "bytes4",
        "numberOfBytes": "4"
      },
      "t_mapping(t_address,t_address)": {
        "encoding": "mapping",
        "key": "t_address",
        "label": "mapping(address => address)",
        "numberOfBytes": "32",
        "value": "t_address"
      },
      "t_mapping(t_address,t_bool)": {
        "encoding": "mapping",
        "key": "t_address",
        "label": "mapping(address => bool)",
        "numberOfBytes": "32",
        "value": "t_bool"
      },
      "t_mapping(t_address,t_struct(L2ProjectInfo)3031_storage)": {
        "encoding": "mapping",
        "key": "t_address",
        "label": "mapping(address => struct LibProject.L2ProjectInfo)",
        "numberOfBytes": "32",
        "value": "t_struct(L2ProjectInfo)3031_storage"
      },
      "t_mapping(t_bytes32,t_struct(RoleData)19_storage)": {
        "encoding": "mapping",
        "key": "t_bytes32",
        "label": "mapping(bytes32 => struct AccessControl.RoleData)",
        "numberOfBytes": "32",
        "value": "t_struct(RoleData)19_storage"
      },
      "t_mapping(t_bytes4,t_address)": {
        "encoding": "mapping",
        "key": "t_bytes4",
        "label": "mapping(bytes4 => address)",
        "numberOfBytes": "32",
        "value": "t_address"
      },
      "t_mapping(t_uint256,t_address)": {
        "encoding": "mapping",
        "key": "t_uint256",
        "label": "mapping(uint256 => address)",
        "numberOfBytes": "32",
        "value": "t_address"
      },
      "t_string_storage": {
        "encoding": "bytes",
        "label": "string",
        "numberOfBytes": "32"
      },
      "t_struct(L2ProjectInfo)3031_storage": {
        "encoding": "inplace",
        "label": "struct LibProject.L2ProjectInfo",
        "members": [
          {
            "astId": 3022,
            "contract": "contracts/L2/L2ProjectManager.sol:L2ProjectManager",
            "label": "projectId",
            "offset": 0,
            "slot": "0",
            "type": "t_uint256"
          },
          {
            "astId": 3024,
            "contract": "contracts/L2/L2ProjectManager.sol:L2ProjectManager",
            "label": "projectOwner",
            "offset": 0,
            "slot": "1",
            "type": "t_address"
          },
          {
            "astId": 3026,
            "contract": "contracts/L2/L2ProjectManager.sol:L2ProjectManager",
            "label": "l1Token",
            "offset": 0,
            "slot": "2",
            "type": "t_address"
          },
          {
            "astId": 3028,
            "contract": "contracts/L2/L2ProjectManager.sol:L2ProjectManager",
            "label": "l2Token",
            "offset": 0,
            "slot": "3",
            "type": "t_address"
          },
          {
            "astId": 3030,
            "contract": "contracts/L2/L2ProjectManager.sol:L2ProjectManager",
            "label": "projectName",
            "offset": 0,
            "slot": "4",
            "type": "t_string_storage"
          }
        ],
        "numberOfBytes": "160"
      },
      "t_struct(RoleData)19_storage": {
        "encoding": "inplace",
        "label": "struct AccessControl.RoleData",
        "members": [
          {
            "astId": 16,
            "contract": "contracts/L2/L2ProjectManager.sol:L2ProjectManager",
            "label": "members",
            "offset": 0,
            "slot": "0",
            "type": "t_mapping(t_address,t_bool)"
          },
          {
            "astId": 18,
            "contract": "contracts/L2/L2ProjectManager.sol:L2ProjectManager",
            "label": "adminRole",
            "offset": 0,
            "slot": "1",
            "type": "t_bytes32"
          }
        ],
        "numberOfBytes": "64"
      },
      "t_uint256": {
        "encoding": "inplace",
        "label": "uint256",
        "numberOfBytes": "32"
      }
    }
  }
}