{
  "address": "0x70a8ffF8fD3a2910bb60BE8048E5E25467bE0187",
  "abi": [
    {
      "anonymous": false,
      "inputs": [
        {
          "indexed": false,
          "internalType": "address",
          "name": "l2Token",
          "type": "address"
        },
        {
          "indexed": true,
          "internalType": "address",
          "name": "from",
          "type": "address"
        },
        {
          "indexed": false,
          "internalType": "uint256",
          "name": "tier",
          "type": "uint256"
        }
      ],
      "name": "AddedWhiteList",
      "type": "event"
    },
    {
      "anonymous": false,
      "inputs": [
        {
          "indexed": false,
          "internalType": "address",
          "name": "l2Token",
          "type": "address"
        },
        {
          "indexed": true,
          "internalType": "address",
          "name": "from",
          "type": "address"
        },
        {
          "indexed": false,
          "internalType": "uint256",
          "name": "amount",
          "type": "uint256"
        }
      ],
      "name": "Claimed",
      "type": "event"
    },
    {
      "anonymous": false,
      "inputs": [
        {
          "indexed": false,
          "internalType": "address",
          "name": "l2Token",
          "type": "address"
        },
        {
          "indexed": true,
          "internalType": "address",
          "name": "from",
          "type": "address"
        },
        {
          "indexed": false,
          "internalType": "uint256",
          "name": "amount",
          "type": "uint256"
        },
        {
          "indexed": false,
          "internalType": "uint256",
          "name": "liquidityAmount",
          "type": "uint256"
        }
      ],
      "name": "DepositWithdrawal",
      "type": "event"
    },
    {
      "anonymous": false,
      "inputs": [
        {
          "indexed": false,
          "internalType": "address",
          "name": "l2Token",
          "type": "address"
        },
        {
          "indexed": true,
          "internalType": "address",
          "name": "from",
          "type": "address"
        },
        {
          "indexed": false,
          "internalType": "uint256",
          "name": "amount",
          "type": "uint256"
        }
      ],
      "name": "Deposited",
      "type": "event"
    },
    {
      "anonymous": false,
      "inputs": [
        {
          "indexed": false,
          "internalType": "address",
          "name": "l2Token",
          "type": "address"
        },
        {
          "indexed": true,
          "internalType": "address",
          "name": "from",
          "type": "address"
        },
        {
          "indexed": false,
          "internalType": "uint256",
          "name": "amountIn",
          "type": "uint256"
        },
        {
          "indexed": false,
          "internalType": "uint256",
          "name": "amountOut",
          "type": "uint256"
        }
      ],
      "name": "ExchangeSwap",
      "type": "event"
    },
    {
      "anonymous": false,
      "inputs": [
        {
          "indexed": false,
          "internalType": "address",
          "name": "l2Token",
          "type": "address"
        },
        {
          "indexed": true,
          "internalType": "address",
          "name": "from",
          "type": "address"
        },
        {
          "indexed": false,
          "internalType": "uint256",
          "name": "amount",
          "type": "uint256"
        }
      ],
      "name": "ExclusiveSaled",
      "type": "event"
    },
    {
      "anonymous": false,
      "inputs": [
        {
          "indexed": false,
          "internalType": "address",
          "name": "l2Token",
          "type": "address"
        },
        {
          "indexed": true,
          "internalType": "address",
          "name": "from",
          "type": "address"
        },
        {
          "indexed": false,
          "internalType": "uint256",
          "name": "amount",
          "type": "uint256"
        }
      ],
      "name": "Refunded",
      "type": "event"
    },
    {
      "anonymous": false,
      "inputs": [
        {
          "indexed": true,
          "internalType": "bytes32",
          "name": "role",
          "type": "bytes32"
        },
        {
          "indexed": true,
          "internalType": "bytes32",
          "name": "previousAdminRole",
          "type": "bytes32"
        },
        {
          "indexed": true,
          "internalType": "bytes32",
          "name": "newAdminRole",
          "type": "bytes32"
        }
      ],
      "name": "RoleAdminChanged",
      "type": "event"
    },
    {
      "anonymous": false,
      "inputs": [
        {
          "indexed": true,
          "internalType": "bytes32",
          "name": "role",
          "type": "bytes32"
        },
        {
          "indexed": true,
          "internalType": "address",
          "name": "account",
          "type": "address"
        },
        {
          "indexed": true,
          "internalType": "address",
          "name": "sender",
          "type": "address"
        }
      ],
      "name": "RoleGranted",
      "type": "event"
    },
    {
      "anonymous": false,
      "inputs": [
        {
          "indexed": true,
          "internalType": "bytes32",
          "name": "role",
          "type": "bytes32"
        },
        {
          "indexed": true,
          "internalType": "address",
          "name": "account",
          "type": "address"
        },
        {
          "indexed": true,
          "internalType": "address",
          "name": "sender",
          "type": "address"
        }
      ],
      "name": "RoleRevoked",
      "type": "event"
    },
    {
      "anonymous": false,
      "inputs": [
        {
          "indexed": false,
          "internalType": "address",
          "name": "newInitializer",
          "type": "address"
        }
      ],
      "name": "SetInitializer",
      "type": "event"
    },
    {
      "anonymous": false,
      "inputs": [
        {
          "indexed": false,
          "internalType": "address",
          "name": "l2Token",
          "type": "address"
        },
        {
          "indexed": false,
          "internalType": "address",
          "name": "newAdmin",
          "type": "address"
        }
      ],
      "name": "SetVaultAdmin",
      "type": "event"
    },
    {
      "inputs": [],
      "name": "ADMIN_ROLE",
      "outputs": [
        {
          "internalType": "bytes32",
          "name": "",
          "type": "bytes32"
        }
      ],
      "stateMutability": "view",
      "type": "function"
    },
    {
      "inputs": [],
      "name": "DEFAULT_ADMIN_ROLE",
      "outputs": [
        {
          "internalType": "bytes32",
          "name": "",
          "type": "bytes32"
        }
      ],
      "stateMutability": "view",
      "type": "function"
    },
    {
      "inputs": [],
      "name": "POLICY_ROLE",
      "outputs": [
        {
          "internalType": "bytes32",
          "name": "",
          "type": "bytes32"
        }
      ],
      "stateMutability": "view",
      "type": "function"
    },
    {
      "inputs": [
        {
          "internalType": "address",
          "name": "account",
          "type": "address"
        }
      ],
      "name": "addAdmin",
      "outputs": [],
      "stateMutability": "nonpayable",
      "type": "function"
    },
    {
      "inputs": [
        {
          "internalType": "address",
          "name": "_l2token",
          "type": "address"
        }
      ],
      "name": "addWhiteList",
      "outputs": [],
      "stateMutability": "nonpayable",
      "type": "function"
    },
    {
      "inputs": [
        {
          "internalType": "address",
          "name": "",
          "type": "address"
        }
      ],
      "name": "aliveImplementation",
      "outputs": [
        {
          "internalType": "bool",
          "name": "",
          "type": "bool"
        }
      ],
      "stateMutability": "view",
      "type": "function"
    },
    {
      "inputs": [
        {
          "internalType": "address",
          "name": "_l2token",
          "type": "address"
        },
        {
          "internalType": "address",
          "name": "_account",
          "type": "address"
        }
      ],
      "name": "calcul1RoundAmount",
      "outputs": [
        {
          "internalType": "uint256",
          "name": "",
          "type": "uint256"
        }
      ],
      "stateMutability": "view",
      "type": "function"
    },
    {
      "inputs": [
        {
          "internalType": "address",
          "name": "_l2token",
          "type": "address"
        },
        {
          "internalType": "address",
          "name": "_account",
          "type": "address"
        },
        {
          "internalType": "uint256",
          "name": "_round",
          "type": "uint256"
        }
      ],
      "name": "calculClaimAmount",
      "outputs": [
        {
          "internalType": "uint256",
          "name": "_reward",
          "type": "uint256"
        },
        {
          "internalType": "uint256",
          "name": "_totalClaim",
          "type": "uint256"
        },
        {
          "internalType": "uint256",
          "name": "_refundAmount",
          "type": "uint256"
        }
      ],
      "stateMutability": "view",
      "type": "function"
    },
    {
      "inputs": [
        {
          "internalType": "address",
          "name": "_l2token",
          "type": "address"
        },
        {
          "internalType": "address",
          "name": "_account",
          "type": "address"
        },
        {
          "internalType": "uint256",
          "name": "_amount",
          "type": "uint256"
        }
      ],
      "name": "calculOpenSaleAmount",
      "outputs": [
        {
          "internalType": "uint256",
          "name": "",
          "type": "uint256"
        }
      ],
      "stateMutability": "view",
      "type": "function"
    },
    {
      "inputs": [
        {
          "internalType": "address",
          "name": "_l2token",
          "type": "address"
        },
        {
          "internalType": "uint256",
          "name": "_amount",
          "type": "uint256"
        }
      ],
      "name": "calculPayToken",
      "outputs": [
        {
          "internalType": "uint256",
          "name": "",
          "type": "uint256"
        }
      ],
      "stateMutability": "view",
      "type": "function"
    },
    {
      "inputs": [
        {
          "internalType": "address",
          "name": "_l2token",
          "type": "address"
        },
        {
          "internalType": "uint256",
          "name": "_amount",
          "type": "uint256"
        }
      ],
      "name": "calculSaleToken",
      "outputs": [
        {
          "internalType": "uint256",
          "name": "",
          "type": "uint256"
        }
      ],
      "stateMutability": "view",
      "type": "function"
    },
    {
      "inputs": [
        {
          "internalType": "address",
          "name": "_l2token",
          "type": "address"
        },
        {
          "internalType": "address",
          "name": "_account",
          "type": "address"
        }
      ],
      "name": "calculTier",
      "outputs": [
        {
          "internalType": "uint8",
          "name": "",
          "type": "uint8"
        }
      ],
      "stateMutability": "view",
      "type": "function"
    },
    {
      "inputs": [
        {
          "internalType": "address",
          "name": "_l2token",
          "type": "address"
        },
        {
          "internalType": "address",
          "name": "_account",
          "type": "address"
        },
        {
          "internalType": "uint8",
          "name": "tier",
          "type": "uint8"
        }
      ],
      "name": "calculTierAmount",
      "outputs": [
        {
          "internalType": "uint256",
          "name": "",
          "type": "uint256"
        }
      ],
      "stateMutability": "view",
      "type": "function"
    },
    {
      "inputs": [],
      "name": "changeTick",
      "outputs": [
        {
          "internalType": "int24",
          "name": "",
          "type": "int24"
        }
      ],
      "stateMutability": "view",
      "type": "function"
    },
    {
      "inputs": [
        {
          "internalType": "address",
          "name": "_l2token",
          "type": "address"
        }
      ],
      "name": "claim",
      "outputs": [],
      "stateMutability": "nonpayable",
      "type": "function"
    },
    {
      "inputs": [
        {
          "internalType": "address",
          "name": "",
          "type": "address"
        }
      ],
      "name": "claimInfo",
      "outputs": [
        {
          "internalType": "uint256",
          "name": "totalClaimCounts",
          "type": "uint256"
        },
        {
          "internalType": "uint256",
          "name": "firstClaimPercent",
          "type": "uint256"
        },
        {
          "internalType": "uint256",
          "name": "firstClaimTime",
          "type": "uint256"
        },
        {
          "internalType": "uint256",
          "name": "secondClaimTime",
          "type": "uint256"
        },
        {
          "internalType": "uint256",
          "name": "claimInterval",
          "type": "uint256"
        }
      ],
      "stateMutability": "view",
      "type": "function"
    },
    {
      "inputs": [
        {
          "internalType": "address",
          "name": "",
          "type": "address"
        },
        {
          "internalType": "uint256",
          "name": "",
          "type": "uint256"
        }
      ],
      "name": "claimPercents",
      "outputs": [
        {
          "internalType": "uint256",
          "name": "",
          "type": "uint256"
        }
      ],
      "stateMutability": "view",
      "type": "function"
    },
    {
      "inputs": [
        {
          "internalType": "address",
          "name": "",
          "type": "address"
        },
        {
          "internalType": "uint256",
          "name": "",
          "type": "uint256"
        }
      ],
      "name": "claimTimes",
      "outputs": [
        {
          "internalType": "uint256",
          "name": "",
          "type": "uint256"
        }
      ],
      "stateMutability": "view",
      "type": "function"
    },
    {
      "inputs": [
        {
          "internalType": "address",
          "name": "_l2token",
          "type": "address"
        }
      ],
      "name": "currentRound",
      "outputs": [
        {
          "internalType": "uint256",
          "name": "round",
          "type": "uint256"
        }
      ],
      "stateMutability": "view",
      "type": "function"
    },
    {
      "inputs": [],
      "name": "delayTime",
      "outputs": [
        {
          "internalType": "uint256",
          "name": "",
          "type": "uint256"
        }
      ],
      "stateMutability": "view",
      "type": "function"
    },
    {
      "inputs": [
        {
          "internalType": "address",
          "name": "_l2token",
          "type": "address"
        }
      ],
      "name": "depositWithdraw",
      "outputs": [],
      "stateMutability": "nonpayable",
      "type": "function"
    },
    {
      "inputs": [
        {
          "internalType": "address",
          "name": "",
          "type": "address"
        },
        {
          "internalType": "uint256",
          "name": "",
          "type": "uint256"
        }
      ],
      "name": "depositors",
      "outputs": [
        {
          "internalType": "address",
          "name": "",
          "type": "address"
        }
      ],
      "stateMutability": "view",
      "type": "function"
    },
    {
      "inputs": [
        {
          "internalType": "address",
          "name": "_l2token",
          "type": "address"
        },
        {
          "internalType": "uint256",
          "name": "amountIn",
          "type": "uint256"
        }
      ],
      "name": "exchangeWTONtoTOS",
      "outputs": [],
      "stateMutability": "nonpayable",
      "type": "function"
    },
    {
      "inputs": [
        {
          "internalType": "bytes32",
          "name": "role",
          "type": "bytes32"
        }
      ],
      "name": "getRoleAdmin",
      "outputs": [
        {
          "internalType": "bytes32",
          "name": "",
          "type": "bytes32"
        }
      ],
      "stateMutability": "view",
      "type": "function"
    },
    {
      "inputs": [
        {
          "internalType": "bytes32",
          "name": "role",
          "type": "bytes32"
        },
        {
          "internalType": "address",
          "name": "account",
          "type": "address"
        }
      ],
      "name": "grantRole",
      "outputs": [],
      "stateMutability": "nonpayable",
      "type": "function"
    },
    {
      "inputs": [
        {
          "internalType": "address",
          "name": "_l2token",
          "type": "address"
        }
      ],
      "name": "hardcapCalcul",
      "outputs": [
        {
          "internalType": "uint256",
          "name": "",
          "type": "uint256"
        }
      ],
      "stateMutability": "view",
      "type": "function"
    },
    {
      "inputs": [
        {
          "internalType": "bytes32",
          "name": "role",
          "type": "bytes32"
        },
        {
          "internalType": "address",
          "name": "account",
          "type": "address"
        }
      ],
      "name": "hasRole",
      "outputs": [
        {
          "internalType": "bool",
          "name": "",
          "type": "bool"
        }
      ],
      "stateMutability": "view",
      "type": "function"
    },
    {
      "inputs": [
        {
          "internalType": "address",
          "name": "account",
          "type": "address"
        }
      ],
      "name": "isAdmin",
      "outputs": [
        {
          "internalType": "bool",
          "name": "",
          "type": "bool"
        }
      ],
      "stateMutability": "view",
      "type": "function"
    },
    {
      "inputs": [],
      "name": "l1burnVault",
      "outputs": [
        {
          "internalType": "address",
          "name": "",
          "type": "address"
        }
      ],
      "stateMutability": "view",
      "type": "function"
    },
    {
      "inputs": [],
      "name": "l2Bridge",
      "outputs": [
        {
          "internalType": "address",
          "name": "",
          "type": "address"
        }
      ],
      "stateMutability": "view",
      "type": "function"
    },
    {
      "inputs": [],
      "name": "l2ProjectManager",
      "outputs": [
        {
          "internalType": "address",
          "name": "",
          "type": "address"
        }
      ],
      "stateMutability": "view",
      "type": "function"
    },
    {
      "inputs": [],
      "name": "liquidityVault",
      "outputs": [
        {
          "internalType": "address",
          "name": "",
          "type": "address"
        }
      ],
      "stateMutability": "view",
      "type": "function"
    },
    {
      "inputs": [],
      "name": "lockTOS",
      "outputs": [
        {
          "internalType": "address",
          "name": "",
          "type": "address"
        }
      ],
      "stateMutability": "view",
      "type": "function"
    },
    {
      "inputs": [
        {
          "internalType": "address",
          "name": "",
          "type": "address"
        }
      ],
      "name": "manageInfo",
      "outputs": [
        {
          "internalType": "uint256",
          "name": "set1rdTokenAmount",
          "type": "uint256"
        },
        {
          "internalType": "uint256",
          "name": "set2rdTokenAmount",
          "type": "uint256"
        },
        {
          "internalType": "uint256",
          "name": "saleTokenPrice",
          "type": "uint256"
        },
        {
          "internalType": "uint256",
          "name": "tonPrice",
          "type": "uint256"
        },
        {
          "internalType": "uint256",
          "name": "hardCap",
          "type": "uint256"
        },
        {
          "internalType": "uint256",
          "name": "changeTOS",
          "type": "uint256"
        },
        {
          "internalType": "uint256",
          "name": "remainTON",
          "type": "uint256"
        },
        {
          "internalType": "int24",
          "name": "changeTick",
          "type": "int24"
        },
        {
          "internalType": "bool",
          "name": "exchangeTOS",
          "type": "bool"
        },
        {
          "internalType": "bool",
          "name": "adminWithdraw",
          "type": "bool"
        }
      ],
      "stateMutability": "view",
      "type": "function"
    },
    {
      "inputs": [],
      "name": "maxPer",
      "outputs": [
        {
          "internalType": "uint8",
          "name": "",
          "type": "uint8"
        }
      ],
      "stateMutability": "view",
      "type": "function"
    },
    {
      "inputs": [],
      "name": "minPer",
      "outputs": [
        {
          "internalType": "uint8",
          "name": "",
          "type": "uint8"
        }
      ],
      "stateMutability": "view",
      "type": "function"
    },
    {
      "inputs": [
        {
          "internalType": "address",
          "name": "_l2token",
          "type": "address"
        },
        {
          "internalType": "address",
          "name": "user",
          "type": "address"
        }
      ],
      "name": "openSaleUserAmount",
      "outputs": [
        {
          "internalType": "uint256",
          "name": "_realPayAmount",
          "type": "uint256"
        },
        {
          "internalType": "uint256",
          "name": "_realSaleAmount",
          "type": "uint256"
        },
        {
          "internalType": "uint256",
          "name": "_refundAmount",
          "type": "uint256"
        }
      ],
      "stateMutability": "view",
      "type": "function"
    },
    {
      "inputs": [],
      "name": "pauseProxy",
      "outputs": [
        {
          "internalType": "bool",
          "name": "",
          "type": "bool"
        }
      ],
      "stateMutability": "view",
      "type": "function"
    },
    {
      "inputs": [],
      "name": "poolFee",
      "outputs": [
        {
          "internalType": "uint24",
          "name": "",
          "type": "uint24"
        }
      ],
      "stateMutability": "view",
      "type": "function"
    },
    {
      "inputs": [
        {
          "internalType": "uint256",
          "name": "",
          "type": "uint256"
        }
      ],
      "name": "proxyImplementation",
      "outputs": [
        {
          "internalType": "address",
          "name": "",
          "type": "address"
        }
      ],
      "stateMutability": "view",
      "type": "function"
    },
    {
      "inputs": [],
      "name": "quoter",
      "outputs": [
        {
          "internalType": "address",
          "name": "",
          "type": "address"
        }
      ],
      "stateMutability": "view",
      "type": "function"
    },
    {
      "inputs": [
        {
          "internalType": "address",
          "name": "account",
          "type": "address"
        }
      ],
      "name": "removeAdmin",
      "outputs": [],
      "stateMutability": "nonpayable",
      "type": "function"
    },
    {
      "inputs": [
        {
          "internalType": "bytes32",
          "name": "role",
          "type": "bytes32"
        },
        {
          "internalType": "address",
          "name": "account",
          "type": "address"
        }
      ],
      "name": "renounceRole",
      "outputs": [],
      "stateMutability": "nonpayable",
      "type": "function"
    },
    {
      "inputs": [
        {
          "internalType": "bytes32",
          "name": "role",
          "type": "bytes32"
        },
        {
          "internalType": "address",
          "name": "account",
          "type": "address"
        }
      ],
      "name": "revokeRole",
      "outputs": [],
      "stateMutability": "nonpayable",
      "type": "function"
    },
    {
      "inputs": [
        {
          "internalType": "address",
          "name": "_l2token",
          "type": "address"
        },
        {
          "internalType": "uint256",
          "name": "_amount",
          "type": "uint256"
        }
      ],
      "name": "round1Sale",
      "outputs": [],
      "stateMutability": "nonpayable",
      "type": "function"
    },
    {
      "inputs": [
        {
          "internalType": "address",
          "name": "_l2token",
          "type": "address"
        },
        {
          "internalType": "uint256",
          "name": "_amount",
          "type": "uint256"
        }
      ],
      "name": "round2Sale",
      "outputs": [],
      "stateMutability": "nonpayable",
      "type": "function"
    },
    {
      "inputs": [
        {
          "internalType": "address",
          "name": "",
          "type": "address"
        }
      ],
      "name": "saleInfo",
      "outputs": [
        {
          "internalType": "uint256",
          "name": "total1rdSaleAmount",
          "type": "uint256"
        },
        {
          "internalType": "uint256",
          "name": "total1rdTONAmount",
          "type": "uint256"
        },
        {
          "internalType": "uint256",
          "name": "totalUsers",
          "type": "uint256"
        },
        {
          "internalType": "uint256",
          "name": "total1rdUsers",
          "type": "uint256"
        },
        {
          "internalType": "uint256",
          "name": "total2rdUsers",
          "type": "uint256"
        },
        {
          "internalType": "uint256",
          "name": "total2rdUsersClaim",
          "type": "uint256"
        }
      ],
      "stateMutability": "view",
      "type": "function"
    },
    {
      "inputs": [
        {
          "internalType": "bytes4",
          "name": "",
          "type": "bytes4"
        }
      ],
      "name": "selectorImplementation",
      "outputs": [
        {
          "internalType": "address",
          "name": "",
          "type": "address"
        }
      ],
      "stateMutability": "view",
      "type": "function"
    },
    {
      "inputs": [],
      "name": "stanTier1",
      "outputs": [
        {
          "internalType": "uint256",
          "name": "",
          "type": "uint256"
        }
      ],
      "stateMutability": "view",
      "type": "function"
    },
    {
      "inputs": [],
      "name": "stanTier2",
      "outputs": [
        {
          "internalType": "uint256",
          "name": "",
          "type": "uint256"
        }
      ],
      "stateMutability": "view",
      "type": "function"
    },
    {
      "inputs": [],
      "name": "stanTier3",
      "outputs": [
        {
          "internalType": "uint256",
          "name": "",
          "type": "uint256"
        }
      ],
      "stateMutability": "view",
      "type": "function"
    },
    {
      "inputs": [],
      "name": "stanTier4",
      "outputs": [
        {
          "internalType": "uint256",
          "name": "",
          "type": "uint256"
        }
      ],
      "stateMutability": "view",
      "type": "function"
    },
    {
      "inputs": [
        {
          "internalType": "bytes4",
          "name": "interfaceId",
          "type": "bytes4"
        }
      ],
      "name": "supportsInterface",
      "outputs": [
        {
          "internalType": "bool",
          "name": "",
          "type": "bool"
        }
      ],
      "stateMutability": "view",
      "type": "function"
    },
    {
      "inputs": [
        {
          "internalType": "address",
          "name": "",
          "type": "address"
        },
        {
          "internalType": "uint8",
          "name": "",
          "type": "uint8"
        }
      ],
      "name": "tiers",
      "outputs": [
        {
          "internalType": "uint256",
          "name": "",
          "type": "uint256"
        }
      ],
      "stateMutability": "view",
      "type": "function"
    },
    {
      "inputs": [
        {
          "internalType": "address",
          "name": "",
          "type": "address"
        },
        {
          "internalType": "uint8",
          "name": "",
          "type": "uint8"
        }
      ],
      "name": "tiers1stAccount",
      "outputs": [
        {
          "internalType": "uint256",
          "name": "",
          "type": "uint256"
        }
      ],
      "stateMutability": "view",
      "type": "function"
    },
    {
      "inputs": [
        {
          "internalType": "address",
          "name": "",
          "type": "address"
        },
        {
          "internalType": "uint8",
          "name": "",
          "type": "uint8"
        }
      ],
      "name": "tiersCalculAccount",
      "outputs": [
        {
          "internalType": "uint256",
          "name": "",
          "type": "uint256"
        }
      ],
      "stateMutability": "view",
      "type": "function"
    },
    {
      "inputs": [
        {
          "internalType": "address",
          "name": "",
          "type": "address"
        },
        {
          "internalType": "uint8",
          "name": "",
          "type": "uint8"
        }
      ],
      "name": "tiersPercents",
      "outputs": [
        {
          "internalType": "uint256",
          "name": "",
          "type": "uint256"
        }
      ],
      "stateMutability": "view",
      "type": "function"
    },
    {
      "inputs": [
        {
          "internalType": "address",
          "name": "",
          "type": "address"
        },
        {
          "internalType": "uint8",
          "name": "",
          "type": "uint8"
        }
      ],
      "name": "tiersWhiteList",
      "outputs": [
        {
          "internalType": "uint256",
          "name": "",
          "type": "uint256"
        }
      ],
      "stateMutability": "view",
      "type": "function"
    },
    {
      "inputs": [
        {
          "internalType": "address",
          "name": "",
          "type": "address"
        }
      ],
      "name": "timeInfo",
      "outputs": [
        {
          "internalType": "uint256",
          "name": "deployTime",
          "type": "uint256"
        },
        {
          "internalType": "uint256",
          "name": "snapshot",
          "type": "uint256"
        },
        {
          "internalType": "uint256",
          "name": "whiteListStartTime",
          "type": "uint256"
        },
        {
          "internalType": "uint256",
          "name": "whiteListEndTime",
          "type": "uint256"
        },
        {
          "internalType": "uint256",
          "name": "round1StartTime",
          "type": "uint256"
        },
        {
          "internalType": "uint256",
          "name": "round1EndTime",
          "type": "uint256"
        },
        {
          "internalType": "uint256",
          "name": "round2StartTime",
          "type": "uint256"
        },
        {
          "internalType": "uint256",
          "name": "round2EndTime",
          "type": "uint256"
        }
      ],
      "stateMutability": "view",
      "type": "function"
    },
    {
      "inputs": [],
      "name": "ton",
      "outputs": [
        {
          "internalType": "address",
          "name": "",
          "type": "address"
        }
      ],
      "stateMutability": "view",
      "type": "function"
    },
    {
      "inputs": [],
      "name": "tos",
      "outputs": [
        {
          "internalType": "address",
          "name": "",
          "type": "address"
        }
      ],
      "stateMutability": "view",
      "type": "function"
    },
    {
      "inputs": [
        {
          "internalType": "address",
          "name": "",
          "type": "address"
        }
      ],
      "name": "totalDepositAmount",
      "outputs": [
        {
          "internalType": "uint256",
          "name": "",
          "type": "uint256"
        }
      ],
      "stateMutability": "view",
      "type": "function"
    },
    {
      "inputs": [
        {
          "internalType": "address",
          "name": "_l2token",
          "type": "address"
        }
      ],
      "name": "totalExpectOpenSaleAmountView",
      "outputs": [
        {
          "internalType": "uint256",
          "name": "",
          "type": "uint256"
        }
      ],
      "stateMutability": "view",
      "type": "function"
    },
    {
      "inputs": [
        {
          "internalType": "address",
          "name": "_l2token",
          "type": "address"
        }
      ],
      "name": "totalOpenPurchasedAmount",
      "outputs": [
        {
          "internalType": "uint256",
          "name": "",
          "type": "uint256"
        }
      ],
      "stateMutability": "view",
      "type": "function"
    },
    {
      "inputs": [
        {
          "internalType": "address",
          "name": "_l2token",
          "type": "address"
        }
      ],
      "name": "totalOpenSaleAmount",
      "outputs": [
        {
          "internalType": "uint256",
          "name": "",
          "type": "uint256"
        }
      ],
      "stateMutability": "view",
      "type": "function"
    },
    {
      "inputs": [
        {
          "internalType": "address",
          "name": "_l2token",
          "type": "address"
        }
      ],
      "name": "totalRound1NonSaleAmount",
      "outputs": [
        {
          "internalType": "uint256",
          "name": "",
          "type": "uint256"
        }
      ],
      "stateMutability": "view",
      "type": "function"
    },
    {
      "inputs": [
        {
          "internalType": "address",
          "name": "_l2token",
          "type": "address"
        },
        {
          "internalType": "address",
          "name": "user",
          "type": "address"
        }
      ],
      "name": "totalSaleUserAmount",
      "outputs": [
        {
          "internalType": "uint256",
          "name": "_realPayAmount",
          "type": "uint256"
        },
        {
          "internalType": "uint256",
          "name": "_realSaleAmount",
          "type": "uint256"
        },
        {
          "internalType": "uint256",
          "name": "_refundAmount",
          "type": "uint256"
        }
      ],
      "stateMutability": "view",
      "type": "function"
    },
    {
      "inputs": [
        {
          "internalType": "address",
          "name": "_l2token",
          "type": "address"
        }
      ],
      "name": "totalWhitelists",
      "outputs": [
        {
          "internalType": "uint256",
          "name": "",
          "type": "uint256"
        }
      ],
      "stateMutability": "view",
      "type": "function"
    },
    {
      "inputs": [
        {
          "internalType": "address",
          "name": "newAdmin",
          "type": "address"
        }
      ],
      "name": "transferAdmin",
      "outputs": [],
      "stateMutability": "nonpayable",
      "type": "function"
    },
    {
      "inputs": [],
      "name": "uniswapRouter",
      "outputs": [
        {
          "internalType": "address",
          "name": "",
          "type": "address"
        }
      ],
      "stateMutability": "view",
      "type": "function"
    },
    {
      "inputs": [
        {
          "internalType": "address",
          "name": "",
          "type": "address"
        },
        {
          "internalType": "address",
          "name": "",
          "type": "address"
        }
      ],
      "name": "user1rd",
      "outputs": [
        {
          "internalType": "bool",
          "name": "join",
          "type": "bool"
        },
        {
          "internalType": "uint8",
          "name": "tier",
          "type": "uint8"
        },
        {
          "internalType": "uint256",
          "name": "payAmount",
          "type": "uint256"
        },
        {
          "internalType": "uint256",
          "name": "saleAmount",
          "type": "uint256"
        }
      ],
      "stateMutability": "view",
      "type": "function"
    },
    {
      "inputs": [
        {
          "internalType": "address",
          "name": "",
          "type": "address"
        },
        {
          "internalType": "address",
          "name": "",
          "type": "address"
        }
      ],
      "name": "user2rd",
      "outputs": [
        {
          "internalType": "bool",
          "name": "join",
          "type": "bool"
        },
        {
          "internalType": "uint256",
          "name": "depositAmount",
          "type": "uint256"
        }
      ],
      "stateMutability": "view",
      "type": "function"
    },
    {
      "inputs": [
        {
          "internalType": "address",
          "name": "",
          "type": "address"
        },
        {
          "internalType": "address",
          "name": "",
          "type": "address"
        }
      ],
      "name": "userClaim",
      "outputs": [
        {
          "internalType": "bool",
          "name": "refund",
          "type": "bool"
        },
        {
          "internalType": "uint256",
          "name": "claimAmount",
          "type": "uint256"
        },
        {
          "internalType": "uint256",
          "name": "refundAmount",
          "type": "uint256"
        },
        {
          "internalType": "uint256",
          "name": "latestClaimedRound",
          "type": "uint256"
        }
      ],
      "stateMutability": "view",
      "type": "function"
    },
    {
      "inputs": [
        {
          "internalType": "address",
          "name": "",
          "type": "address"
        }
      ],
      "name": "vaultAdminOfToken",
      "outputs": [
        {
          "internalType": "address",
          "name": "",
          "type": "address"
        }
      ],
      "stateMutability": "view",
      "type": "function"
    },
    {
      "inputs": [],
      "name": "vestingFund",
      "outputs": [
        {
          "internalType": "address",
          "name": "",
          "type": "address"
        }
      ],
      "stateMutability": "view",
      "type": "function"
    },
    {
      "inputs": [
        {
          "internalType": "address",
          "name": "",
          "type": "address"
        },
        {
          "internalType": "uint256",
          "name": "",
          "type": "uint256"
        }
      ],
      "name": "whitelists",
      "outputs": [
        {
          "internalType": "address",
          "name": "",
          "type": "address"
        }
      ],
      "stateMutability": "view",
      "type": "function"
    },
    {
      "inputs": [],
      "name": "wton",
      "outputs": [
        {
          "internalType": "address",
          "name": "",
          "type": "address"
        }
      ],
      "stateMutability": "view",
      "type": "function"
    }
  ],
  "transactionHash": "0x4ba91078178e9297921942973761839cefcf2644b5435ec3d22c5e1c5c7cdb3d",
  "args": [],
  "numDeployments": 1,
  "solcInputHash": "6d04a6cdccfcb7febd8e3a19d630a74b",
  "bytecode": "0x60806040526014805463ff0000001916630100000017905534801561002357600080fd5b506156b780620000346000396000f3fe608060405234801561001057600080fd5b506004361061052f5760003560e01c8063708666ad116102bc578063ae1f6aaf11610186578063d01481a1116100e3578063dc560fcd11610097578063ef39b1491161007c578063ef39b14914610f1e578063f3b08cb914610f31578063f7e6e1ab14610f4457600080fd5b8063dc560fcd14610f02578063e7cd4a0414610f0b57600080fd5b8063d547741f116100c8578063d547741f14610e1a578063d7b0b29d14610e2d578063d97830b114610e9d57600080fd5b8063d01481a114610ddc578063d13da44414610def57600080fd5b8063c0f22d4b1161013a578063c6bbd5a71161011f578063c6bbd5a714610d96578063cc48b94714610da9578063cf437a8f14610dbc57600080fd5b8063c0f22d4b14610d70578063c3ce874e14610d8357600080fd5b8063b0a5ccd11161016b578063b0a5ccd114610d21578063b911135f14610d34578063b9e982bb14610d5d57600080fd5b8063ae1f6aaf14610c82578063b005ed9114610c9557600080fd5b80638d62d949116102345780639f87b77f116101e8578063a389595f116101cd578063a389595f14610c37578063a7b23fcf14610c5c578063ac3e8aa914610c6f57600080fd5b80639f87b77f14610c26578063a217fddf14610c2f57600080fd5b806396e6f43f1161021957806396e6f43f14610bc857806397d7859514610bdb5780639f32b29a14610bfb57600080fd5b80638d62d94914610b7457806391d1485414610b8f57600080fd5b8063768b821f1161028b5780637fc46ba8116102705780637fc46ba814610ace57806389293f6514610af757806389f395de14610b6157600080fd5b8063768b821f14610abc5780637e2eee5314610ac557600080fd5b8063708666ad14610a5c578063735de9f714610a6f57806375829def14610a8257806375b238fc14610a9557600080fd5b80632f2ff15d116103fd57806352351e85116103755780635cc9014b1161032957806363a8fd891161030e57806363a8fd8914610a295780636e2272a214610a365780637048027514610a4957600080fd5b80635cc9014b14610a035780636100a72114610a1657600080fd5b806355d6d39b1161035a57806355d6d39b146109b25780635af39092146109dd5780635b19e294146109f057600080fd5b806352351e851461097c578063550d01a31461098f57600080fd5b806336568abe116103cc5780634e6c4466116103b15780634e6c44661461093757806350d2a2761461094a57806351ebde6d1461097357600080fd5b806336568abe14610911578063466c01b81461092457600080fd5b80632f2ff15d1461088b57806330ba46591461089e57806331bf2897146108b157806333efca3d146108c457600080fd5b80631916e534116104ab578063248a9ca31161045f5780632a13ed1b116104445780632a13ed1b1461083a5780632ac9bab61461084d5780632bde5bfb1461087857600080fd5b8063248a9ca31461080457806324d7806c1461082757600080fd5b80631d823697116104905780631d823697146107b75780631e83409a146107ca57806322985246146107dd57600080fd5b80631916e534146107195780631c53f2561461077f57600080fd5b80630b7459eb116105025780631576baf4116104e75780631576baf4146106c85780631784b3a6146106db5780631785f53c1461070457600080fd5b80630b7459eb14610664578063122697581461068f57600080fd5b806301ffc9a714610534578063089fe6aa1461055c57806308ac3fcb14610579578063096cc41814610636575b600080fd5b610547610542366004614e9b565b610f57565b60405190151581526020015b60405180910390f35b610565610bb881565b60405162ffffff9091168152602001610553565b6105e5610587366004614eda565b601c6020526000908152604090208054600182015460028084015460038501546004860154600587015460068801546007909801549697959693959294919390929181900b9060ff630100000082048116916401000000009004168a565b604080519a8b5260208b0199909952978901969096526060880194909452608087019290925260a086015260c085015260020b60e08401521515610100830152151561012082015261014001610553565b610649610644366004614ef7565b610f8e565b60408051938452602084019290925290820152606001610553565b600654610677906001600160a01b031681565b6040516001600160a01b039091168152602001610553565b6106ba61069d366004614f47565b602360209081526000928352604080842090915290825290205481565b604051908152602001610553565b6106ba6106d6366004614eda565b6111ef565b6106ba6106e9366004614eda565b6001600160a01b031660009081526018602052604090205490565b610717610712366004614eda565b61123a565b005b61075d610727366004614f80565b6021602090815260009283526040808420909152908252902080546001820154600283015460039093015460ff90921692909184565b6040805194151585526020850193909352918301526060820152608001610553565b600e546107a5907501000000000000000000000000000000000000000000900460ff1681565b60405160ff9091168152602001610553565b6107a56107c5366004614f80565b6112cc565b6107176107d8366004614eda565b6116f6565b6106ba7ffb5864e8ff833c3cb2d2d08505e82ff02a43554c74a35d4f5a64e8526127831181565b6106ba610812366004614fae565b60009081526004602052604090206001015490565b610547610835366004614eda565b611ca2565b610717610848366004614fc7565b611ce2565b6106ba61085b366004614f47565b602660209081526000928352604080842090915290825290205481565b6106ba610886366004614eda565b611cf1565b610717610899366004614ff3565b611e41565b6106ba6108ac366004614eda565b611e6b565b6107176108bf366004614fc7565b611ed8565b6108fa6108d2366004614f80565b6020808052600092835260408084209091529082529020805460019091015460ff9091169082565b604080519215158352602083019190915201610553565b61071761091f366004614ff3565b612709565b610677610932366004614fc7565b612791565b600954610677906001600160a01b031681565b610677610958366004614e9b565b6003602052600090815260409020546001600160a01b031681565b6106ba60115481565b600c54610677906001600160a01b031681565b61054761099d366004614eda565b60026020526000908152604090205460ff1681565b6106ba6109c0366004614f47565b602460209081526000928352604080842090915290825290205481565b6106ba6109eb366004614f80565b6127c9565b6106776109fe366004614fc7565b61282c565b610717610a11366004614fc7565b612848565b6106ba610a24366004614fc7565b612853565b6000546105479060ff1681565b610717610a44366004614eda565b612910565b610717610a57366004614eda565b612ce3565b600754610677906001600160a01b031681565b600854610677906001600160a01b031681565b610717610a90366004614eda565b612d6d565b6106ba7fdf8b4c520ffe197c5343c6f5aec59570151ef9a492f2c624fd45ddde6135ec4281565b6106ba60105481565b6106ba60135481565b610677610adc366004614eda565b6016602052600090815260409020546001600160a01b031681565b610b3d610b05366004614f80565b601f60209081526000928352604080842090915290825290208054600182015460029092015460ff8083169361010090930416919084565b60408051941515855260ff9093166020850152918301526060820152608001610553565b600a54610677906001600160a01b031681565b61067773c4a11aaf6ea915ed7ac194161d2fc9384f15bff281565b610547610b9d366004614ff3565b60009182526004602090815260408084206001600160a01b0393909316845291905290205460ff1690565b6106ba610bd6366004615018565b612ecf565b6106ba610be9366004614eda565b60156020526000908152604090205481565b6106ba610c09366004614f47565b602560209081526000928352604080842090915290825290205481565b6106ba600f5481565b6106ba600081565b600e546107a59074010000000000000000000000000000000000000000900460ff1681565b6106ba610c6a366004614eda565b6130ed565b610649610c7d366004614f80565b6131ba565b600d54610677906001600160a01b031681565b610ce6610ca3366004614eda565b601b602052600090815260409020805460018201546002830154600384015460048501546005860154600687015460079097015495969495939492939192909188565b604080519889526020890197909752958701949094526060860192909252608085015260a084015260c083015260e082015261010001610553565b6106ba610d2f366004614eda565b61329b565b610677610d42366004614fae565b6001602052600090815260409020546001600160a01b031681565b6106ba610d6b366004614eda565b61341b565b6106ba610d7e366004614fc7565b61351b565b6106ba610d91366004614fc7565b61354c565b600554610677906001600160a01b031681565b600b54610677906001600160a01b031681565b601454610dc99060020b81565b60405160029190910b8152602001610553565b600e54610677906001600160a01b031681565b6106ba610dfd366004614f47565b602260209081526000928352604080842090915290825290205481565b610717610e28366004614ff3565b6135f7565b610e70610e3b366004614eda565b601e60205260009081526040902080546001820154600283015460038401546004850154600590950154939492939192909186565b604080519687526020870195909552938501929092526060840152608083015260a082015260c001610553565b610eda610eab366004614eda565b601d60205260009081526040902080546001820154600283015460038401546004909401549293919290919085565b604080519586526020860194909452928401919091526060830152608082015260a001610553565b6106ba60125481565b610717610f19366004614eda565b61361c565b610649610f2c366004614f80565b613ae7565b6106ba610f3f366004614fc7565b613baa565b6106ba610f52366004614ef7565b613bc6565b60006001600160e01b03198216637965db0b60e01b1480610f8857506301ffc9a760e01b6001600160e01b03198316145b92915050565b6001600160a01b0383166000908152601d60209081526040808320815160a0810183528154815260018201549381019390935260028101549183018290526003810154606084015260040154608083015282918291421015610ffb576000806000935093509350506111e6565b8051851115611015576000806000935093509350506111e6565b6001600160a01b038088166000908152602160209081526040808320938a1683529281528282208351608081018552815460ff161515815260018201549281019290925260028101549382019390935260039092015460608301528061107b8a8a613ae7565b92509250508160000361109c576000806000965096509650505050506111e6565b818360200151106110bb576000806000965096509650505050506111e6565b60006110c68b6130ed565b905060008186600001511480156110db575089155b156111015760208501516110ef9085615079565b98509296509094506111e69350505050565b89600003611191578160000361112157975091955093506111e692505050565b612710866020015185611134919061508c565b61113e91906150b9565b6020860151909150611151600184615079565b875161115f90600190615079565b6111698488615079565b61117391906150b9565b61117d919061508c565b61118790836150cd565b6110ef9190615079565b896001036111b6576127108660200151856111ac919061508c565b6110ef91906150b9565b6127108660200151856111c9919061508c565b6111d391906150b9565b602086015190915061115160018c615079565b93509350939050565b6001600160a01b038116600090815260156020526040812054819061121590849061354c565b905060006112228461329b565b905080821015611233575092915050565b9392505050565b61124333611ca2565b61129f5760405162461bcd60e51b815260206004820152602260248201527f41636365737369626c653a2043616c6c6572206973206e6f7420616e2061646d60448201526134b760f11b60648201526084015b60405180910390fd5b6112c97fdf8b4c520ffe197c5343c6f5aec59570151ef9a492f2c624fd45ddde6135ec4282612709565b50565b6009546000906001600160a01b03168061130d5760405162461bcd60e51b81526020600482015260026024820152612d1960f11b6044820152606401611296565b6001600160a01b038416600090815260226020908152604080832060018452909152812054908190036113675760405162461bcd60e51b81526020600482015260026024820152615a3160f01b6044820152606401611296565b6001600160a01b038516600090815260226020908152604080832060028452909152812054908190036113c15760405162461bcd60e51b81526020600482015260026024820152615a3160f01b6044820152606401611296565b6001600160a01b0386166000908152602260209081526040808320600384529091528120549081900361141b5760405162461bcd60e51b81526020600482015260026024820152615a3160f01b6044820152606401611296565b6001600160a01b038716600090815260226020908152604080832060048452909152812054908190036114755760405162461bcd60e51b81526020600482015260026024820152615a3160f01b6044820152606401611296565b6001600160a01b038881166000908152601b60209081526040808320815161010081018352815481526001820154938101849052600282015481840152600382015460608201526004808301546080830152600583015460a0830152600683015460c083015260079092015460e0820152600954925163277166bf60e11b81528d871692810192909252602482019390935291931690634ee2cd7e90604401602060405180830381865afa158015611531573d6000803e3d6000fd5b505050506040513d601f19601f8201168201806040525081019061155591906150e0565b6001600160a01b038b166000908152602260209081526040808320600184529091528120549192509082108015906115b057506001600160a01b038b1660009081526022602090815260408083206002845290915290205482105b156115bd575060016116e8565b6001600160a01b038b16600090815260226020908152604080832060028452909152902054821080159061161457506001600160a01b038b1660009081526022602090815260408083206003845290915290205482105b15611621575060026116e8565b6001600160a01b038b16600090815260226020908152604080832060038452909152902054821080159061167857506001600160a01b038b1660009081526022602090815260408083206004845290915290205482105b15611685575060036116e8565b6001600160a01b038b1660009081526022602090815260408083206004845290915290205482106116b8575060046116e8565b6001600160a01b038b166000908152602260209081526040808320600184529091529020548210156116e8575060005b9a9950505050505050505050565b6001600160a01b0381166000908152601d6020908152604091829020825160a08101845281548152600182015492810192909252600281015492820183905260038101546060830152600401546080820152904210156117985760405162461bcd60e51b815260206004820152600d60248201527f6e6f7420636c61696d54696d65000000000000000000000000000000000000006044820152606401611296565b6001600160a01b03821660008181526020808052604080832033808552908352818420948452602183528184209084529091528120906117d785611cf1565b9050806000036118e857815460ff1615156001036118375760405162461bcd60e51b815260206004820152601160248201527f616c726561647920676574526566756e640000000000000000000000000000006044820152606401611296565b6001600160a01b0385166000908152601f6020908152604080832033845290915281206001808601549082015491929161187191906150cd565b845460ff1916600117855560028501819055600b5490915061189d906001600160a01b03163383613c67565b604080516001600160a01b03891681526020810183905233917fec1e5ed733e00f1a00915d56caef57b4f52312dde4f9b3165f213319a0da156b910160405180910390a25050611c9b565b60008060006118f988336000610f8e565b9250925092506000821161194f5760405162461bcd60e51b815260206004820152601260248201527f6e6f20707572636861736520616d6f756e7400000000000000000000000000006044820152606401611296565b6000831161198b5760405162461bcd60e51b81526020600482015260096024820152681b9bc81c995dd85c9960ba1b6044820152606401611296565b8285600101548361199c9190615079565b10156119ea5760405162461bcd60e51b815260206004820152601460248201527f616c726561647920676574416c6c7265776172640000000000000000000000006044820152606401611296565b6040516370a0823160e01b815230600482015283906001600160a01b038a16906370a0823190602401602060405180830381865afa158015611a30573d6000803e3d6000fd5b505050506040513d601f19601f82011682018060405250810190611a5491906150e0565b1015611aa25760405162461bcd60e51b815260206004820152601360248201527f646f6e7420686176652073616c65546f6b656e000000000000000000000000006044820152606401611296565b828560010154611ab291906150cd565b6001860155611acb6001600160a01b0389163385613c67565b6001600160a01b0388166000908152601e60205260409020855460ff16158015611af65750865460ff165b15611b1c576005810154611b0b9060016150cd565b6005820155855460ff191660011786555b600082118015611b2e57506002860154155b15611c5157600b546040516370a0823160e01b81523060048201526001600160a01b03909116906370a0823190602401602060405180830381865afa158015611b7b573d6000803e3d6000fd5b505050506040513d601f19601f82011682018060405250810190611b9f91906150e0565b821115611bee5760405162461bcd60e51b815260206004820152601460248201527f646f6e74206861766520726566756e6420746f6e0000000000000000000000006044820152606401611296565b60028601829055600b54611c0c906001600160a01b03163384613c67565b604080516001600160a01b038b1681526020810184905233917fec1e5ed733e00f1a00915d56caef57b4f52312dde4f9b3165f213319a0da156b910160405180910390a25b604080516001600160a01b038b1681526020810186905233917ff7a40077ff7a04c7e61f6f26fb13774259ddf1b6bce9ecf26a8276cdd399268391015b60405180910390a2505050505b5050505050565b6001600160a01b03811660009081527f2fb794d17134dfdec181ddbac1babb5ab1eb140204ef4d982f294e7fc8b69022602052604081205460ff16610f88565b611ced823383613d7b565b5050565b6001600160a01b0381166000818152601e60209081526040808320815160c0808201845282548252600180840154838701526002808501548487015260038086015460608087019190915260048088015460808089019190915260059889015460a0808a01919091529c8c52601c8b52898c208a5161014081018c5281548152968101549b87019b909b528a8501549986019990995291890154908401528701549582019590955292850154968301969096526006840154958201959095526007909201549081900b60e083015260ff630100000082048116151561010084015264010000000090910416151561012082015290919082611df185611e6b565b8360200151611e0091906150cd565b9050600082608001518210611e355760648360a0015183611e21919061508c565b611e2b91906150b9565b9695505050505050565b50600095945050505050565b600082815260046020526040902060010154611e5c816140ca565b611e6683836140d4565b505050565b6001600160a01b0381166000908152601560205260408120548190611e9190849061354c565b90506000611e9e8461329b565b905080821015611ec6575050506001600160a01b031660009081526015602052604090205490565b611ed08482612853565b949350505050565b8080600003611f0e5760405162461bcd60e51b81526020600482015260026024820152615a3160f01b6044820152606401611296565b6001600160a01b0383166000818152601b60209081526040808320815161010081018352815481526001820154818501526002820154818401526003820154606082015260048201546080820152600582015460a0820152600682015460c082015260079091015460e08201908152948452601c90925290912091519091904211611fdb5760405162461bcd60e51b815260206004820152601b60248201527f6e65656420746f20656e6420746865206465706f73697454696d6500000000006044820152606401611296565b6000611fe686611cf1565b9050600081116120385760405162461bcd60e51b815260206004820152601660248201527f646f6e27742070617373207468652068617264436170000000000000000000006044820152606401611296565b60078201546301000000900460ff1615156000036120b157848110156120905760405162461bcd60e51b815260206004820152600d60248201526c30b6b7bab73a24b71037bb32b960991b6044820152606401611296565b6006820181905560078201805463ff000000191663010000001790556120f5565b84826006015410156120f55760405162461bcd60e51b815260206004820152600d60248201526c30b6b7bab73a24b71037bb32b960991b6044820152606401611296565b600b54600a546040516307f43c1960e31b81526001600160a01b0392831660048201529116602482015260009073cDAa66C8255572587566fcB6DB0082383CB44de590633fa1e0c890604401602060405180830381865af415801561215e573d6000803e3d6000fd5b505050506040513d601f19601f8201168201806040525081019061218291906150f9565b9050600080826001600160a01b0316633850c7bd6040518163ffffffff1660e01b815260040160e060405180830381865afa1580156121c5573d6000803e3d6000fd5b505050506040513d601f19601f820116820180604052508101906121e9919061514f565b5050505050915091506000826001600160a01b03161161224b5760405162461bcd60e51b815260206004820152601060248201527f706f6f6c206e6f7420696e697469616c000000000000000000000000000000006044820152606401611296565b6000612258846078614176565b6040517fff9ceebd000000000000000000000000000000000000000000000000000000008152600282810b6004830152603c6024830152604482015290915073cDAa66C8255572587566fcB6DB0082383CB44de59063ff9ceebd90606401602060405180830381865af41580156122d3573d6000803e3d6000fd5b505050506040513d601f19601f820116820180604052508101906122f791906151d9565b60020b8260020b1261234b5760405162461bcd60e51b815260206004820152601860248201527f6f766572206368616e676564207469636b2072616e67652e00000000000000006044820152606401611296565b600b54600a546007880154604051633e1644f160e11b8152600481018d90526001600160a01b038881166024830152938416604482015292909116606483015260020b6084820152600090819073cDAa66C8255572587566fcB6DB0082383CB44de590637c2c89e29060a401606060405180830381865af41580156123d4573d6000803e3d6000fd5b505050506040513d601f19601f820116820180604052508101906123f891906151f4565b92505091506000600560009054906101000a90046001600160a01b03166001600160a01b0316600b60009054906101000a90046001600160a01b0316600a60009054906101000a90046001600160a01b0316610bb88f60006040516024016124989594939291906001600160a01b03958616815293909416602084015262ffffff919091166040830152606082015260ff91909116608082015260a00190565b60408051601f198184030181529181526020820180516001600160e01b031663f7729d4360e01b179052516124cd9190615246565b6000604051808303816000865af19150503d806000811461250a576040519150601f19603f3d011682016040523d82523d6000602084013e61250f565b606091505b50915050600061251e82614335565b90506103e861252f826103e361508c565b61253991906150b9565b90508381101561258b5760405162461bcd60e51b815260206004820152601060248201527f7072696365496d70616374206f766572000000000000000000000000000000006044820152606401611296565b60068a01548e908e9061259f908290615079565b60068d01556040805161010081018252600b546001600160a01b039081168252600a54811660208301908152610bb8838501908152600754831660608501908152426080860190815260a0860188815260c087018b81528d871660e08901908152600854995163414bf38960e01b8152895189166004820152965188166024880152945162ffffff166044870152925186166064860152905160848501525160a48401525160c483015251821660e4820152919260009291169063414bf38990610104016020604051808303816000875af1158015612682573d6000803e3d6000fd5b505050506040513d601f19601f820116820180604052508101906126a691906150e0565b604080516001600160a01b03871681526020810186905290810182905290915033907f34c21668d9e0d31d289d483bfe1b46a335340504801ea7feebfbb347bc4fe5679060600160405180910390a2505050505050505050505050505050505050565b6001600160a01b03811633146127875760405162461bcd60e51b815260206004820152602f60248201527f416363657373436f6e74726f6c3a2063616e206f6e6c792072656e6f756e636560448201527f20726f6c657320666f722073656c6600000000000000000000000000000000006064820152608401611296565b611ced82826143d9565b601760205281600052604060002081815481106127ad57600080fd5b6000918252602090912001546001600160a01b03169150829050565b6000806127d684846112cc565b9050600060ff82161561282157815b60ff811615612817576127f9868683612ecf565b61280390836150cd565b91508061280f81615262565b9150506127e5565b509150610f889050565b506000949350505050565b601860205281600052604060002081815481106127ad57600080fd5b611ced82338361445c565b6001600160a01b0382166000908152601c602090815260408083208151610140810183528154815260018201549381019390935260028082015492840183905260038201546060850181905260048301546080860152600583015460a0860152600683015460c08601526007909201549081900b60e085015260ff630100000082048116151561010086015264010000000090910416151561012084015283916128fd908661508c565b61290791906150b9565b95945050505050565b6001600160a01b0381166000908152601c602052604090206007810154640100000000900460ff16151560011480159061295a575060078101546301000000900460ff1615156001145b6129a65760405162461bcd60e51b815260206004820152601a60248201527f6e656564207468652065786368616e676557544f4e746f544f530000000000006044820152606401611296565b6001600160a01b0382166000908152601e60205260408120906129c884611cf1565b90506000816129d686611e6b565b84600101546129e591906150cd565b6129ef9190615079565b600b546040516370a0823160e01b81523060048201529192506001600160a01b0316906370a0823190602401602060405180830381865afa158015612a38573d6000803e3d6000fd5b505050506040513d601f19601f82011682018060405250810190612a5c91906150e0565b811115612aab5760405162461bcd60e51b815260206004820152600d60248201527f686176656e277420746f6b656e000000000000000000000000000000000000006044820152606401611296565b60078401805464ff0000000019166401000000001790558254600090612ad0876111ef565b60018701548754612ae191906150cd565b612aeb9190615079565b612af59190615079565b90508015612b8e57600d54600e54604051631474f2a960e31b81526001600160a01b0389811660048301529182166024820152604481018490526000606482015260a06084820152600260a482015261060f60f31b60c482015291169063a3a795489060e401600060405180830381600087803b158015612b7557600080fd5b505af1158015612b89573d6000803e3d6000fd5b505050505b600b546006546001600160a01b039182169163095ea7b39116612bb985678ac7230489e800006150cd565b6040516001600160e01b031960e085901b1681526001600160a01b03909216600483015260248201526044016020604051808303816000875af1158015612c04573d6000803e3d6000fd5b505050506040513d601f19601f82011682018060405250810190612c28919061527f565b506006546040516315a27c3b60e31b81526001600160a01b038881166004830152602482018590529091169063ad13e1d890604401600060405180830381600087803b158015612c7757600080fd5b505af1158015612c8b573d6000803e3d6000fd5b5050604080516001600160a01b038a168152602081018690529081018690523392507f4c2c0ab6abacae9e08e6f826eee15e2782e65aaa46fa6d77cbaec9c94247aad5915060600160405180910390a2505050505050565b612cec33611ca2565b612d435760405162461bcd60e51b815260206004820152602260248201527f41636365737369626c653a2043616c6c6572206973206e6f7420616e2061646d60448201526134b760f11b6064820152608401611296565b6112c97fdf8b4c520ffe197c5343c6f5aec59570151ef9a492f2c624fd45ddde6135ec4282611e41565b612d7633611ca2565b612dcd5760405162461bcd60e51b815260206004820152602260248201527f41636365737369626c653a2043616c6c6572206973206e6f7420616e2061646d60448201526134b760f11b6064820152608401611296565b6001600160a01b038116612e235760405162461bcd60e51b815260206004820152601860248201527f41636365737369626c653a207a65726f206164647265737300000000000000006044820152606401611296565b6001600160a01b0381163303612e7b5760405162461bcd60e51b815260206004820152601660248201527f41636365737369626c653a2073616d652061646d696e000000000000000000006044820152606401611296565b612ea57fdf8b4c520ffe197c5343c6f5aec59570151ef9a492f2c624fd45ddde6135ec4282611e41565b6112c97fdf8b4c520ffe197c5343c6f5aec59570151ef9a492f2c624fd45ddde6135ec4233612709565b6001600160a01b038084166000818152601f602090815260408083209487168352938152838220845160808082018752825460ff8082161515845261010091829004811684870152600180860154858b0152600295860154606080870191909152988852601c87528988208a5161014081018c52815481528183015498810198909852808701549a88019a909a5260038a015498870198909852600489015492860192909252600588015460a0860152600688015460c08601526007909701549283900b60e08501526301000000830481161515968401969096526401000000009091049094161515610120820152835191939290918491901515148015612fda575060008560ff16115b1561304a576001600160a01b038716600081815260256020908152604080832060ff8a1680855290835281842054948452602383528184209084529091529020548351612710929161302b9161508c565b61303591906150b9565b61303f91906150b9565b935061123392505050565b60ff8516156130e0576001600160a01b038716600090815260256020908152604080832060ff891684529091528120546130859060016150cd565b6001600160a01b038916600090815260236020908152604080832060ff8b16845290915290205484519192506127109183916130c09161508c565b6130ca91906150b9565b6130d491906150b9565b94506112339350505050565b5060009695505050505050565b6001600160a01b0381166000908152601d60209081526040808320815160a0810183528154815260018201549381019390935260028101549183018290526003810154606084015260040154608083015242101561314a57600091505b428160400151111580156131615750806060015142105b1561316f57600191506131a6565b428160600151116131a6576080810151606082015161318e9042615079565b61319891906150b9565b6131a39060026150cd565b91505b80518211156131b457805191505b50919050565b6001600160a01b0380831660009081526020808052604080832093851683529281528282208351808501909452805460ff16158015855260019091015491840191909152909182918291908061321257506020810151155b1561322857600080600093509350935050613294565b600061323687876000613bc6565b905060006132448883612853565b602084015190915060008082841015613274576132618484615079565b905061326d8b8561354c565b9150613288565b856020015193506132858b8461354c565b91505b92975095509093505050505b9250925092565b600080601b6000846001600160a01b03166001600160a01b03168152602001908152602001600020604051806101000160405290816000820154815260200160018201548152602001600282015481526020016003820154815260200160048201548152602001600582015481526020016006820154815260200160078201548152505090506000601c6000856001600160a01b03166001600160a01b0316815260200190815260200160002060405180610140016040529081600082015481526020016001820154815260200160028201548152602001600382015481526020016004820154815260200160058201548152602001600682015481526020016007820160009054906101000a900460020b60020b60020b81526020016007820160039054906101000a900460ff161515151581526020016007820160049054906101000a900460ff16151515158152505090508160a0015142101561340357519392505050565b61340c8461341b565b8160200151611ed091906150cd565b6001600160a01b0381166000818152601e60209081526040808320815160c0808201845282548252600180840154838701526002808501548487015260038086015460608087019190915260048088015460808089019190915260059889015460a0808a01919091529c8c52601c8b52898c208a5161014081018c528154808252978201549c81019c909c52808601549a8c019a909a5292890154918a01919091528701549088015293850154978601979097526006840154908501526007909201549081900b60e084015260ff6301000000820481161515610100850152640100000000909104161515610120830152805192939092611ed091615079565b6019602052816000526040600020818154811061353757600080fd5b90600052602060002001600091509150505481565b6001600160a01b0382166000908152601c602090815260408083208151610140810183528154815260018201549381019390935260028082015492840183905260038201546060850181905260048301546080860152600583015460a0860152600683015460c08601526007909201549081900b60e085015260ff63010000008204811615156101008601526401000000009091041615156101208401528391906128fd908661508c565b600082815260046020526040902060010154613612816140ca565b611e6683836143d9565b6001600160a01b0381166000908152601b60209081526040918290208251610100810184528154815260018201549281019290925260028101549282018390526003810154606083015260048101546080830152600581015460a0830152600681015460c08301526007015460e0820152904210156136dd5760405162461bcd60e51b815260206004820152601160248201527f6e6f742077686974656c69737454696d650000000000000000000000000000006044820152606401611296565b806060015142106137305760405162461bcd60e51b815260206004820152601160248201527f656e642077686974656c69737454696d650000000000000000000000000000006044820152606401611296565b600061373c83336112cc565b905060018160ff1610156137925760405162461bcd60e51b815260206004820152601160248201527f6e65656420746f206d6f72652073544f530000000000000000000000000000006044820152606401611296565b6001600160a01b0383166000908152601f602090815260408083203384529091529020805460ff16151560010361380b5760405162461bcd60e51b815260206004820152601060248201527f616c726561647920617474656e646564000000000000000000000000000000006044820152606401611296565b6001600160a01b038416600081815260186020908152604080832080546001818101835591855283852001805473ffffffffffffffffffffffffffffffffffffffff191633179055855460ff8816610100810261ffff199092169190911782178755948452602483528184209484529390915290205461388a916150cd565b6001600160a01b038516600090815260246020908152604080832060ff87168085529252909120919091556004036139c5576001600160a01b0384166000908152602560209081526040808320600484529091529020546138ec9060016150cd565b6001600160a01b038516600090815260256020908152604080832060048452909152808220929092556003815220546139269060016150cd565b6001600160a01b038516600090815260256020908152604080832060038452909152808220929092556002815220546139609060016150cd565b6001600160a01b0385166000908152602560209081526040808320600284529091528082209290925560018082529190205461399b916150cd565b6001600160a01b038516600090815260256020908152604080832060018452909152902055613a9b565b8160ff16600303613a00576001600160a01b0384166000908152602560209081526040808320600384529091529020546139269060016150cd565b8160ff16600203613a3b576001600160a01b0384166000908152602560209081526040808320600284529091529020546139609060016150cd565b8160ff16600103613a9b576001600160a01b03841660009081526025602090815260408083206001808552925290912054613a75916150cd565b6001600160a01b0385166000908152602560209081526040808320600184529091529020555b604080516001600160a01b038616815260ff8416602082015233917f80aaf28a2c7f80f586e64ede5c6c3b5433b8c6cf1351b6b51d8ab9febb8b5e7a910160405180910390a250505050565b6001600160a01b038083166000908152601f6020908152604080832093851683529281528282208351608081018552815460ff8082161580158452610100909204169382019390935260018201549481019490945260020154606084015290918291829190613b94576000806000613b5f89896131ba565b925092509250836040015183613b7591906150cd565b6060850151613b8490846150cd565b8296509650965050505050613294565b613b9e86866131ba565b93509350935050613294565b601a602052816000526040600020818154811061353757600080fd5b6001600160a01b0380841660009081526020808052604080832093861683529281528282208351808501909452805460ff1615158452600101549083018190529091908290613c169085906150cd565b6001600160a01b03871660009081526015602052604081205491925090613c3e9086906150cd565b82613c488961329b565b613c52919061508c565b613c5c91906150b9565b979650505050505050565b604080516001600160a01b038481166024830152604480830185905283518084039091018152606490920183526020820180516001600160e01b031663a9059cbb60e01b1790529151600092839290871691613cc39190615246565b6000604051808303816000865af19150503d8060008114613d00576040519150601f19603f3d011682016040523d82523d6000602084013e613d05565b606091505b5091509150818015613d2f575080511580613d2f575080806020019051810190613d2f919061527f565b611c9b5760405162461bcd60e51b815260206004820152600f60248201527f5452414e534645525f4641494c454400000000000000000000000000000000006044820152606401611296565b826001600160a01b038116613db75760405162461bcd60e51b81526020600482015260026024820152612d1960f11b6044820152606401611296565b826001600160a01b038116613df35760405162461bcd60e51b81526020600482015260026024820152612d1960f11b6044820152606401611296565b8280600003613e295760405162461bcd60e51b81526020600482015260026024820152615a3160f01b6044820152606401611296565b6001600160a01b0386166000908152601b6020908152604091829020825161010081018452815481526001820154928101929092526002810154928201929092526003820154606082015260048201546080820152600582015460a0820152600682015460c0820181905260079092015460e082015290421015613eef5760405162461bcd60e51b815260206004820152600f60248201527f6e6f74206465706f73697454696d6500000000000000000000000000000000006044820152606401611296565b8060e001514210613f425760405162461bcd60e51b815260206004820152600f60248201527f656e64206465706f73697454696d6500000000000000000000000000000000006044820152606401611296565b6001600160a01b03808816600081815260208080526040808320948b168352938152838220928252601e905291909120815460ff16614062576001600160a01b03898116600090815260176020908152604082208054600180820183559184529190922001805473ffffffffffffffffffffffffffffffffffffffff1916928b1692909217909155825460ff1916811783556004820154613fe2916150cd565b60048201556001600160a01b03808a166000908152601f60209081526040808320938c1683529281528282208351608081018552815460ff808216151583526101009091041692810192909252600181015493820184905260020154606082015291900361406057600282015461405a9060016150cd565b60028301555b505b86826001015461407291906150cd565b60018301556001600160a01b03891660009081526015602052604090205461409b9088906150cd565b6001600160a01b038a166000908152601560205260409020556140bf898989614836565b505050505050505050565b6112c98133614b47565b60008281526004602090815260408083206001600160a01b038516845290915290205460ff16611ced5760008281526004602090815260408083206001600160a01b03851684529091529020805460ff191660011790556141323390565b6001600160a01b0316816001600160a01b0316837f2f8788117e7eff1d82e926ec794901d17c78024a50270940304540a733656f0d60405160405180910390a45050565b60008163ffffffff166000036141b35760405162461bcd60e51b8152602060048201526002602482015261042560f41b6044820152606401611296565b60408051600280825260608201835260009260208301908036833701905050905082816000815181106141e8576141e86152b0565b602002602001019063ffffffff16908163ffffffff1681525050600081600181518110614217576142176152b0565b63ffffffff9092166020928302919091019091015260405163883bdbfd60e01b81526000906001600160a01b0386169063883bdbfd9061425b9085906004016152c6565b600060405180830381865afa158015614278573d6000803e3d6000fd5b505050506040513d6000823e601f3d908101601f191682016040526142a091908101906153d9565b5090506000816000815181106142b8576142b86152b0565b6020026020010151826001815181106142d3576142d36152b0565b60200260200101516142e591906154a5565b90506142f5600386900b826154d2565b935060008160060b1280156143195750614313600386900b82615510565b60060b15155b1561432c578361432881615532565b9450505b50505092915050565b600081516020146143c5576044825110156143925760405162461bcd60e51b815260206004820152601060248201527f556e6578706563746564206572726f72000000000000000000000000000000006044820152606401611296565b600482019150818060200190518101906143ac919061554b565b60405162461bcd60e51b815260040161129691906155df565b81806020019051810190610f8891906150e0565b60008281526004602090815260408083206001600160a01b038516845290915290205460ff1615611ced5760008281526004602090815260408083206001600160a01b0385168085529252808320805460ff1916905551339285917ff6391f5c32d9c69d2a47ea670b442974b53935d1edc7fd64eb21e047a839171b9190a45050565b826001600160a01b0381166144985760405162461bcd60e51b81526020600482015260026024820152612d1960f11b6044820152606401611296565b826001600160a01b0381166144d45760405162461bcd60e51b81526020600482015260026024820152612d1960f11b6044820152606401611296565b828060000361450a5760405162461bcd60e51b81526020600482015260026024820152615a3160f01b6044820152606401611296565b6001600160a01b0386166000908152601b60209081526040918290208251610100810184528154815260018201549281019290925260028101549282019290925260038201546060820152600482015460808201819052600583015460a0830152600683015460c083015260079092015460e0820152904210156145d05760405162461bcd60e51b815260206004820152601260248201527f6e6f7420726f756e643153616c6554696d6500000000000000000000000000006044820152606401611296565b8060a0015142106146235760405162461bcd60e51b815260206004820152601260248201527f656e6420726f756e643153616c6554696d6500000000000000000000000000006044820152606401611296565b6001600160a01b038088166000908152601f60209081526040808320938a16835292905220805460ff16151560011461469e5760405162461bcd60e51b815260206004820152600c60248201527f6e6f2077686974656c69737400000000000000000000000000000000000000006044820152606401611296565b60006146aa89896112cc565b905060006146b88a8961354c565b905060006146c68b8b6127c9565b90508184600201546146d891906150cd565b8110156147275760405162461bcd60e51b815260206004820152600e60248201527f646f6e2774206f766572206275790000000000000000000000000000000000006044820152606401611296565b6001600160a01b038b166000908152601e6020526040812060018601549091036147cf57600381015461475b9060016150cd565b600382015560028101546147709060016150cd565b60028201556001600160a01b038c16600090815260266020908152604080832060ff881684529091529020546147a79060016150cd565b6001600160a01b038d16600090815260266020908152604080832060ff891684529091529020555b8985600101546147df91906150cd565b600186015560028501546147f49084906150cd565b60028601556001810154614809908b906150cd565b6001820155805461481b9084906150cd565b81556148288c8c8c614836565b505050505050505050505050565b826001600160a01b0381166148725760405162461bcd60e51b81526020600482015260026024820152612d1960f11b6044820152606401611296565b826001600160a01b0381166148ae5760405162461bcd60e51b81526020600482015260026024820152612d1960f11b6044820152606401611296565b82806000036148e45760405162461bcd60e51b81526020600482015260026024820152615a3160f01b6044820152606401611296565b6001600160a01b038681166000908152601b6020908152604080832081516101008101835281548152600182015493810193909352600281015483830152600381015460608401526004808201546080850152600582015460a0850152600682015460c085015260079091015460e0840152600b549151636eb1769f60e11b81528a8616918101919091523060248201529193169063dd62ed3e90604401602060405180830381865afa15801561499f573d6000803e3d6000fd5b505050506040513d601f19601f820116820180604052508101906149c391906150e0565b600b546040516370a0823160e01b81526001600160a01b038a81166004830152929350600092909116906370a0823190602401602060405180830381865afa158015614a13573d6000803e3d6000fd5b505050506040513d601f19601f82011682018060405250810190614a3791906150e0565b9050868210158015614a495750868110155b614a955760405162461bcd60e51b815260206004820152601560248201527f746f6e206578636565647320616c6c6f77616e636500000000000000000000006044820152606401611296565b600b54614aad906001600160a01b031689308a614bbc565b8260a00151421015614b0457604080516001600160a01b038b81168252602082018a90528a16917f9840f3ca16eed984a6ad48d36928a9cfb427c7f90a8d37e017b3385a747aa294910160405180910390a26140bf565b604080516001600160a01b038b81168252602082018a90528a16917f8752a472e571a816aea92eec8dae9baf628e840f4929fbcc2d155e6233ff68a79101611c8e565b60008281526004602090815260408083206001600160a01b038516845290915290205460ff16611ced57614b7a81614ce0565b614b85836020614cf2565b604051602001614b96929190615612565b60408051601f198184030181529082905262461bcd60e51b8252611296916004016155df565b604080516001600160a01b0385811660248301528481166044830152606480830185905283518084039091018152608490920183526020820180516001600160e01b03166323b872dd60e01b1790529151600092839290881691614c209190615246565b6000604051808303816000865af19150503d8060008114614c5d576040519150601f19603f3d011682016040523d82523d6000602084013e614c62565b606091505b5091509150818015614c8c575080511580614c8c575080806020019051810190614c8c919061527f565b614cd85760405162461bcd60e51b815260206004820152601460248201527f5452414e534645525f46524f4d5f4641494c45440000000000000000000000006044820152606401611296565b505050505050565b6060610f886001600160a01b03831660145b60606000614d0183600261508c565b614d0c9060026150cd565b67ffffffffffffffff811115614d2457614d2461529a565b6040519080825280601f01601f191660200182016040528015614d4e576020820181803683370190505b509050600360fc1b81600081518110614d6957614d696152b0565b60200101906001600160f81b031916908160001a905350600f60fb1b81600181518110614d9857614d986152b0565b60200101906001600160f81b031916908160001a9053506000614dbc84600261508c565b614dc79060016150cd565b90505b6001811115614e4c577f303132333435363738396162636465660000000000000000000000000000000085600f1660108110614e0857614e086152b0565b1a60f81b828281518110614e1e57614e1e6152b0565b60200101906001600160f81b031916908160001a90535060049490941c93614e4581615693565b9050614dca565b5083156112335760405162461bcd60e51b815260206004820181905260248201527f537472696e67733a20686578206c656e67746820696e73756666696369656e746044820152606401611296565b600060208284031215614ead57600080fd5b81356001600160e01b03198116811461123357600080fd5b6001600160a01b03811681146112c957600080fd5b600060208284031215614eec57600080fd5b813561123381614ec5565b600080600060608486031215614f0c57600080fd5b8335614f1781614ec5565b92506020840135614f2781614ec5565b929592945050506040919091013590565b60ff811681146112c957600080fd5b60008060408385031215614f5a57600080fd5b8235614f6581614ec5565b91506020830135614f7581614f38565b809150509250929050565b60008060408385031215614f9357600080fd5b8235614f9e81614ec5565b91506020830135614f7581614ec5565b600060208284031215614fc057600080fd5b5035919050565b60008060408385031215614fda57600080fd5b8235614fe581614ec5565b946020939093013593505050565b6000806040838503121561500657600080fd5b823591506020830135614f7581614ec5565b60008060006060848603121561502d57600080fd5b833561503881614ec5565b9250602084013561504881614ec5565b9150604084013561505881614f38565b809150509250925092565b634e487b7160e01b600052601160045260246000fd5b81810381811115610f8857610f88615063565b8082028115828204841417610f8857610f88615063565b634e487b7160e01b600052601260045260246000fd5b6000826150c8576150c86150a3565b500490565b80820180821115610f8857610f88615063565b6000602082840312156150f257600080fd5b5051919050565b60006020828403121561510b57600080fd5b815161123381614ec5565b8051600281900b811461512857600080fd5b919050565b805161ffff8116811461512857600080fd5b8051801515811461512857600080fd5b600080600080600080600060e0888a03121561516a57600080fd5b875161517581614ec5565b965061518360208901615116565b95506151916040890161512d565b945061519f6060890161512d565b93506151ad6080890161512d565b925060a08801516151bd81614f38565b91506151cb60c0890161513f565b905092959891949750929550565b6000602082840312156151eb57600080fd5b61123382615116565b60008060006060848603121561520957600080fd5b8351925060208401519150604084015161505881614ec5565b60005b8381101561523d578181015183820152602001615225565b50506000910152565b60008251615258818460208701615222565b9190910192915050565b600060ff82168061527557615275615063565b6000190192915050565b60006020828403121561529157600080fd5b6112338261513f565b634e487b7160e01b600052604160045260246000fd5b634e487b7160e01b600052603260045260246000fd5b6020808252825182820181905260009190848201906040850190845b8181101561530457835163ffffffff16835292840192918401916001016152e2565b50909695505050505050565b604051601f8201601f1916810167ffffffffffffffff811182821017156153395761533961529a565b604052919050565b600067ffffffffffffffff82111561535b5761535b61529a565b5060051b60200190565b600082601f83011261537657600080fd5b8151602061538b61538683615341565b615310565b82815260059290921b840181019181810190868411156153aa57600080fd5b8286015b848110156153ce5780516153c181614ec5565b83529183019183016153ae565b509695505050505050565b600080604083850312156153ec57600080fd5b825167ffffffffffffffff8082111561540457600080fd5b818501915085601f83011261541857600080fd5b8151602061542861538683615341565b82815260059290921b8401810191818101908984111561544757600080fd5b948201945b838610156154755785518060060b81146154665760008081fd5b8252948201949082019061544c565b9188015191965090935050508082111561548e57600080fd5b5061549b85828601615365565b9150509250929050565b600682810b9082900b03667fffffffffffff198112667fffffffffffff82131715610f8857610f88615063565b60008160060b8360060b806154e9576154e96150a3565b667fffffffffffff1982146000198214161561550757615507615063565b90059392505050565b60008260060b80615523576155236150a3565b808360060b0791505092915050565b60008160020b627fffff19810361527557615275615063565b60006020828403121561555d57600080fd5b815167ffffffffffffffff8082111561557557600080fd5b818401915084601f83011261558957600080fd5b81518181111561559b5761559b61529a565b6155ae601f8201601f1916602001615310565b91508082528560208285010111156155c557600080fd5b6155d6816020840160208601615222565b50949350505050565b60208152600082518060208401526155fe816040850160208701615222565b601f01601f19169190910160400192915050565b7f416363657373436f6e74726f6c3a206163636f756e742000000000000000000081526000835161564a816017850160208801615222565b7f206973206d697373696e6720726f6c65200000000000000000000000000000006017918401918201528351615687816028840160208801615222565b01602801949350505050565b6000816156a2576156a2615063565b50600019019056fea164736f6c6343000812000a",
  "deployedBytecode": "0x608060405234801561001057600080fd5b506004361061052f5760003560e01c8063708666ad116102bc578063ae1f6aaf11610186578063d01481a1116100e3578063dc560fcd11610097578063ef39b1491161007c578063ef39b14914610f1e578063f3b08cb914610f31578063f7e6e1ab14610f4457600080fd5b8063dc560fcd14610f02578063e7cd4a0414610f0b57600080fd5b8063d547741f116100c8578063d547741f14610e1a578063d7b0b29d14610e2d578063d97830b114610e9d57600080fd5b8063d01481a114610ddc578063d13da44414610def57600080fd5b8063c0f22d4b1161013a578063c6bbd5a71161011f578063c6bbd5a714610d96578063cc48b94714610da9578063cf437a8f14610dbc57600080fd5b8063c0f22d4b14610d70578063c3ce874e14610d8357600080fd5b8063b0a5ccd11161016b578063b0a5ccd114610d21578063b911135f14610d34578063b9e982bb14610d5d57600080fd5b8063ae1f6aaf14610c82578063b005ed9114610c9557600080fd5b80638d62d949116102345780639f87b77f116101e8578063a389595f116101cd578063a389595f14610c37578063a7b23fcf14610c5c578063ac3e8aa914610c6f57600080fd5b80639f87b77f14610c26578063a217fddf14610c2f57600080fd5b806396e6f43f1161021957806396e6f43f14610bc857806397d7859514610bdb5780639f32b29a14610bfb57600080fd5b80638d62d94914610b7457806391d1485414610b8f57600080fd5b8063768b821f1161028b5780637fc46ba8116102705780637fc46ba814610ace57806389293f6514610af757806389f395de14610b6157600080fd5b8063768b821f14610abc5780637e2eee5314610ac557600080fd5b8063708666ad14610a5c578063735de9f714610a6f57806375829def14610a8257806375b238fc14610a9557600080fd5b80632f2ff15d116103fd57806352351e85116103755780635cc9014b1161032957806363a8fd891161030e57806363a8fd8914610a295780636e2272a214610a365780637048027514610a4957600080fd5b80635cc9014b14610a035780636100a72114610a1657600080fd5b806355d6d39b1161035a57806355d6d39b146109b25780635af39092146109dd5780635b19e294146109f057600080fd5b806352351e851461097c578063550d01a31461098f57600080fd5b806336568abe116103cc5780634e6c4466116103b15780634e6c44661461093757806350d2a2761461094a57806351ebde6d1461097357600080fd5b806336568abe14610911578063466c01b81461092457600080fd5b80632f2ff15d1461088b57806330ba46591461089e57806331bf2897146108b157806333efca3d146108c457600080fd5b80631916e534116104ab578063248a9ca31161045f5780632a13ed1b116104445780632a13ed1b1461083a5780632ac9bab61461084d5780632bde5bfb1461087857600080fd5b8063248a9ca31461080457806324d7806c1461082757600080fd5b80631d823697116104905780631d823697146107b75780631e83409a146107ca57806322985246146107dd57600080fd5b80631916e534146107195780631c53f2561461077f57600080fd5b80630b7459eb116105025780631576baf4116104e75780631576baf4146106c85780631784b3a6146106db5780631785f53c1461070457600080fd5b80630b7459eb14610664578063122697581461068f57600080fd5b806301ffc9a714610534578063089fe6aa1461055c57806308ac3fcb14610579578063096cc41814610636575b600080fd5b610547610542366004614e9b565b610f57565b60405190151581526020015b60405180910390f35b610565610bb881565b60405162ffffff9091168152602001610553565b6105e5610587366004614eda565b601c6020526000908152604090208054600182015460028084015460038501546004860154600587015460068801546007909801549697959693959294919390929181900b9060ff630100000082048116916401000000009004168a565b604080519a8b5260208b0199909952978901969096526060880194909452608087019290925260a086015260c085015260020b60e08401521515610100830152151561012082015261014001610553565b610649610644366004614ef7565b610f8e565b60408051938452602084019290925290820152606001610553565b600654610677906001600160a01b031681565b6040516001600160a01b039091168152602001610553565b6106ba61069d366004614f47565b602360209081526000928352604080842090915290825290205481565b604051908152602001610553565b6106ba6106d6366004614eda565b6111ef565b6106ba6106e9366004614eda565b6001600160a01b031660009081526018602052604090205490565b610717610712366004614eda565b61123a565b005b61075d610727366004614f80565b6021602090815260009283526040808420909152908252902080546001820154600283015460039093015460ff90921692909184565b6040805194151585526020850193909352918301526060820152608001610553565b600e546107a5907501000000000000000000000000000000000000000000900460ff1681565b60405160ff9091168152602001610553565b6107a56107c5366004614f80565b6112cc565b6107176107d8366004614eda565b6116f6565b6106ba7ffb5864e8ff833c3cb2d2d08505e82ff02a43554c74a35d4f5a64e8526127831181565b6106ba610812366004614fae565b60009081526004602052604090206001015490565b610547610835366004614eda565b611ca2565b610717610848366004614fc7565b611ce2565b6106ba61085b366004614f47565b602660209081526000928352604080842090915290825290205481565b6106ba610886366004614eda565b611cf1565b610717610899366004614ff3565b611e41565b6106ba6108ac366004614eda565b611e6b565b6107176108bf366004614fc7565b611ed8565b6108fa6108d2366004614f80565b6020808052600092835260408084209091529082529020805460019091015460ff9091169082565b604080519215158352602083019190915201610553565b61071761091f366004614ff3565b612709565b610677610932366004614fc7565b612791565b600954610677906001600160a01b031681565b610677610958366004614e9b565b6003602052600090815260409020546001600160a01b031681565b6106ba60115481565b600c54610677906001600160a01b031681565b61054761099d366004614eda565b60026020526000908152604090205460ff1681565b6106ba6109c0366004614f47565b602460209081526000928352604080842090915290825290205481565b6106ba6109eb366004614f80565b6127c9565b6106776109fe366004614fc7565b61282c565b610717610a11366004614fc7565b612848565b6106ba610a24366004614fc7565b612853565b6000546105479060ff1681565b610717610a44366004614eda565b612910565b610717610a57366004614eda565b612ce3565b600754610677906001600160a01b031681565b600854610677906001600160a01b031681565b610717610a90366004614eda565b612d6d565b6106ba7fdf8b4c520ffe197c5343c6f5aec59570151ef9a492f2c624fd45ddde6135ec4281565b6106ba60105481565b6106ba60135481565b610677610adc366004614eda565b6016602052600090815260409020546001600160a01b031681565b610b3d610b05366004614f80565b601f60209081526000928352604080842090915290825290208054600182015460029092015460ff8083169361010090930416919084565b60408051941515855260ff9093166020850152918301526060820152608001610553565b600a54610677906001600160a01b031681565b61067773c4a11aaf6ea915ed7ac194161d2fc9384f15bff281565b610547610b9d366004614ff3565b60009182526004602090815260408084206001600160a01b0393909316845291905290205460ff1690565b6106ba610bd6366004615018565b612ecf565b6106ba610be9366004614eda565b60156020526000908152604090205481565b6106ba610c09366004614f47565b602560209081526000928352604080842090915290825290205481565b6106ba600f5481565b6106ba600081565b600e546107a59074010000000000000000000000000000000000000000900460ff1681565b6106ba610c6a366004614eda565b6130ed565b610649610c7d366004614f80565b6131ba565b600d54610677906001600160a01b031681565b610ce6610ca3366004614eda565b601b602052600090815260409020805460018201546002830154600384015460048501546005860154600687015460079097015495969495939492939192909188565b604080519889526020890197909752958701949094526060860192909252608085015260a084015260c083015260e082015261010001610553565b6106ba610d2f366004614eda565b61329b565b610677610d42366004614fae565b6001602052600090815260409020546001600160a01b031681565b6106ba610d6b366004614eda565b61341b565b6106ba610d7e366004614fc7565b61351b565b6106ba610d91366004614fc7565b61354c565b600554610677906001600160a01b031681565b600b54610677906001600160a01b031681565b601454610dc99060020b81565b60405160029190910b8152602001610553565b600e54610677906001600160a01b031681565b6106ba610dfd366004614f47565b602260209081526000928352604080842090915290825290205481565b610717610e28366004614ff3565b6135f7565b610e70610e3b366004614eda565b601e60205260009081526040902080546001820154600283015460038401546004850154600590950154939492939192909186565b604080519687526020870195909552938501929092526060840152608083015260a082015260c001610553565b610eda610eab366004614eda565b601d60205260009081526040902080546001820154600283015460038401546004909401549293919290919085565b604080519586526020860194909452928401919091526060830152608082015260a001610553565b6106ba60125481565b610717610f19366004614eda565b61361c565b610649610f2c366004614f80565b613ae7565b6106ba610f3f366004614fc7565b613baa565b6106ba610f52366004614ef7565b613bc6565b60006001600160e01b03198216637965db0b60e01b1480610f8857506301ffc9a760e01b6001600160e01b03198316145b92915050565b6001600160a01b0383166000908152601d60209081526040808320815160a0810183528154815260018201549381019390935260028101549183018290526003810154606084015260040154608083015282918291421015610ffb576000806000935093509350506111e6565b8051851115611015576000806000935093509350506111e6565b6001600160a01b038088166000908152602160209081526040808320938a1683529281528282208351608081018552815460ff161515815260018201549281019290925260028101549382019390935260039092015460608301528061107b8a8a613ae7565b92509250508160000361109c576000806000965096509650505050506111e6565b818360200151106110bb576000806000965096509650505050506111e6565b60006110c68b6130ed565b905060008186600001511480156110db575089155b156111015760208501516110ef9085615079565b98509296509094506111e69350505050565b89600003611191578160000361112157975091955093506111e692505050565b612710866020015185611134919061508c565b61113e91906150b9565b6020860151909150611151600184615079565b875161115f90600190615079565b6111698488615079565b61117391906150b9565b61117d919061508c565b61118790836150cd565b6110ef9190615079565b896001036111b6576127108660200151856111ac919061508c565b6110ef91906150b9565b6127108660200151856111c9919061508c565b6111d391906150b9565b602086015190915061115160018c615079565b93509350939050565b6001600160a01b038116600090815260156020526040812054819061121590849061354c565b905060006112228461329b565b905080821015611233575092915050565b9392505050565b61124333611ca2565b61129f5760405162461bcd60e51b815260206004820152602260248201527f41636365737369626c653a2043616c6c6572206973206e6f7420616e2061646d60448201526134b760f11b60648201526084015b60405180910390fd5b6112c97fdf8b4c520ffe197c5343c6f5aec59570151ef9a492f2c624fd45ddde6135ec4282612709565b50565b6009546000906001600160a01b03168061130d5760405162461bcd60e51b81526020600482015260026024820152612d1960f11b6044820152606401611296565b6001600160a01b038416600090815260226020908152604080832060018452909152812054908190036113675760405162461bcd60e51b81526020600482015260026024820152615a3160f01b6044820152606401611296565b6001600160a01b038516600090815260226020908152604080832060028452909152812054908190036113c15760405162461bcd60e51b81526020600482015260026024820152615a3160f01b6044820152606401611296565b6001600160a01b0386166000908152602260209081526040808320600384529091528120549081900361141b5760405162461bcd60e51b81526020600482015260026024820152615a3160f01b6044820152606401611296565b6001600160a01b038716600090815260226020908152604080832060048452909152812054908190036114755760405162461bcd60e51b81526020600482015260026024820152615a3160f01b6044820152606401611296565b6001600160a01b038881166000908152601b60209081526040808320815161010081018352815481526001820154938101849052600282015481840152600382015460608201526004808301546080830152600583015460a0830152600683015460c083015260079092015460e0820152600954925163277166bf60e11b81528d871692810192909252602482019390935291931690634ee2cd7e90604401602060405180830381865afa158015611531573d6000803e3d6000fd5b505050506040513d601f19601f8201168201806040525081019061155591906150e0565b6001600160a01b038b166000908152602260209081526040808320600184529091528120549192509082108015906115b057506001600160a01b038b1660009081526022602090815260408083206002845290915290205482105b156115bd575060016116e8565b6001600160a01b038b16600090815260226020908152604080832060028452909152902054821080159061161457506001600160a01b038b1660009081526022602090815260408083206003845290915290205482105b15611621575060026116e8565b6001600160a01b038b16600090815260226020908152604080832060038452909152902054821080159061167857506001600160a01b038b1660009081526022602090815260408083206004845290915290205482105b15611685575060036116e8565b6001600160a01b038b1660009081526022602090815260408083206004845290915290205482106116b8575060046116e8565b6001600160a01b038b166000908152602260209081526040808320600184529091529020548210156116e8575060005b9a9950505050505050505050565b6001600160a01b0381166000908152601d6020908152604091829020825160a08101845281548152600182015492810192909252600281015492820183905260038101546060830152600401546080820152904210156117985760405162461bcd60e51b815260206004820152600d60248201527f6e6f7420636c61696d54696d65000000000000000000000000000000000000006044820152606401611296565b6001600160a01b03821660008181526020808052604080832033808552908352818420948452602183528184209084529091528120906117d785611cf1565b9050806000036118e857815460ff1615156001036118375760405162461bcd60e51b815260206004820152601160248201527f616c726561647920676574526566756e640000000000000000000000000000006044820152606401611296565b6001600160a01b0385166000908152601f6020908152604080832033845290915281206001808601549082015491929161187191906150cd565b845460ff1916600117855560028501819055600b5490915061189d906001600160a01b03163383613c67565b604080516001600160a01b03891681526020810183905233917fec1e5ed733e00f1a00915d56caef57b4f52312dde4f9b3165f213319a0da156b910160405180910390a25050611c9b565b60008060006118f988336000610f8e565b9250925092506000821161194f5760405162461bcd60e51b815260206004820152601260248201527f6e6f20707572636861736520616d6f756e7400000000000000000000000000006044820152606401611296565b6000831161198b5760405162461bcd60e51b81526020600482015260096024820152681b9bc81c995dd85c9960ba1b6044820152606401611296565b8285600101548361199c9190615079565b10156119ea5760405162461bcd60e51b815260206004820152601460248201527f616c726561647920676574416c6c7265776172640000000000000000000000006044820152606401611296565b6040516370a0823160e01b815230600482015283906001600160a01b038a16906370a0823190602401602060405180830381865afa158015611a30573d6000803e3d6000fd5b505050506040513d601f19601f82011682018060405250810190611a5491906150e0565b1015611aa25760405162461bcd60e51b815260206004820152601360248201527f646f6e7420686176652073616c65546f6b656e000000000000000000000000006044820152606401611296565b828560010154611ab291906150cd565b6001860155611acb6001600160a01b0389163385613c67565b6001600160a01b0388166000908152601e60205260409020855460ff16158015611af65750865460ff165b15611b1c576005810154611b0b9060016150cd565b6005820155855460ff191660011786555b600082118015611b2e57506002860154155b15611c5157600b546040516370a0823160e01b81523060048201526001600160a01b03909116906370a0823190602401602060405180830381865afa158015611b7b573d6000803e3d6000fd5b505050506040513d601f19601f82011682018060405250810190611b9f91906150e0565b821115611bee5760405162461bcd60e51b815260206004820152601460248201527f646f6e74206861766520726566756e6420746f6e0000000000000000000000006044820152606401611296565b60028601829055600b54611c0c906001600160a01b03163384613c67565b604080516001600160a01b038b1681526020810184905233917fec1e5ed733e00f1a00915d56caef57b4f52312dde4f9b3165f213319a0da156b910160405180910390a25b604080516001600160a01b038b1681526020810186905233917ff7a40077ff7a04c7e61f6f26fb13774259ddf1b6bce9ecf26a8276cdd399268391015b60405180910390a2505050505b5050505050565b6001600160a01b03811660009081527f2fb794d17134dfdec181ddbac1babb5ab1eb140204ef4d982f294e7fc8b69022602052604081205460ff16610f88565b611ced823383613d7b565b5050565b6001600160a01b0381166000818152601e60209081526040808320815160c0808201845282548252600180840154838701526002808501548487015260038086015460608087019190915260048088015460808089019190915260059889015460a0808a01919091529c8c52601c8b52898c208a5161014081018c5281548152968101549b87019b909b528a8501549986019990995291890154908401528701549582019590955292850154968301969096526006840154958201959095526007909201549081900b60e083015260ff630100000082048116151561010084015264010000000090910416151561012082015290919082611df185611e6b565b8360200151611e0091906150cd565b9050600082608001518210611e355760648360a0015183611e21919061508c565b611e2b91906150b9565b9695505050505050565b50600095945050505050565b600082815260046020526040902060010154611e5c816140ca565b611e6683836140d4565b505050565b6001600160a01b0381166000908152601560205260408120548190611e9190849061354c565b90506000611e9e8461329b565b905080821015611ec6575050506001600160a01b031660009081526015602052604090205490565b611ed08482612853565b949350505050565b8080600003611f0e5760405162461bcd60e51b81526020600482015260026024820152615a3160f01b6044820152606401611296565b6001600160a01b0383166000818152601b60209081526040808320815161010081018352815481526001820154818501526002820154818401526003820154606082015260048201546080820152600582015460a0820152600682015460c082015260079091015460e08201908152948452601c90925290912091519091904211611fdb5760405162461bcd60e51b815260206004820152601b60248201527f6e65656420746f20656e6420746865206465706f73697454696d6500000000006044820152606401611296565b6000611fe686611cf1565b9050600081116120385760405162461bcd60e51b815260206004820152601660248201527f646f6e27742070617373207468652068617264436170000000000000000000006044820152606401611296565b60078201546301000000900460ff1615156000036120b157848110156120905760405162461bcd60e51b815260206004820152600d60248201526c30b6b7bab73a24b71037bb32b960991b6044820152606401611296565b6006820181905560078201805463ff000000191663010000001790556120f5565b84826006015410156120f55760405162461bcd60e51b815260206004820152600d60248201526c30b6b7bab73a24b71037bb32b960991b6044820152606401611296565b600b54600a546040516307f43c1960e31b81526001600160a01b0392831660048201529116602482015260009073__$86989bec654fe21c5325a7b16e11ff34c5$__90633fa1e0c890604401602060405180830381865af415801561215e573d6000803e3d6000fd5b505050506040513d601f19601f8201168201806040525081019061218291906150f9565b9050600080826001600160a01b0316633850c7bd6040518163ffffffff1660e01b815260040160e060405180830381865afa1580156121c5573d6000803e3d6000fd5b505050506040513d601f19601f820116820180604052508101906121e9919061514f565b5050505050915091506000826001600160a01b03161161224b5760405162461bcd60e51b815260206004820152601060248201527f706f6f6c206e6f7420696e697469616c000000000000000000000000000000006044820152606401611296565b6000612258846078614176565b6040517fff9ceebd000000000000000000000000000000000000000000000000000000008152600282810b6004830152603c6024830152604482015290915073__$86989bec654fe21c5325a7b16e11ff34c5$__9063ff9ceebd90606401602060405180830381865af41580156122d3573d6000803e3d6000fd5b505050506040513d601f19601f820116820180604052508101906122f791906151d9565b60020b8260020b1261234b5760405162461bcd60e51b815260206004820152601860248201527f6f766572206368616e676564207469636b2072616e67652e00000000000000006044820152606401611296565b600b54600a546007880154604051633e1644f160e11b8152600481018d90526001600160a01b038881166024830152938416604482015292909116606483015260020b6084820152600090819073__$86989bec654fe21c5325a7b16e11ff34c5$__90637c2c89e29060a401606060405180830381865af41580156123d4573d6000803e3d6000fd5b505050506040513d601f19601f820116820180604052508101906123f891906151f4565b92505091506000600560009054906101000a90046001600160a01b03166001600160a01b0316600b60009054906101000a90046001600160a01b0316600a60009054906101000a90046001600160a01b0316610bb88f60006040516024016124989594939291906001600160a01b03958616815293909416602084015262ffffff919091166040830152606082015260ff91909116608082015260a00190565b60408051601f198184030181529181526020820180516001600160e01b031663f7729d4360e01b179052516124cd9190615246565b6000604051808303816000865af19150503d806000811461250a576040519150601f19603f3d011682016040523d82523d6000602084013e61250f565b606091505b50915050600061251e82614335565b90506103e861252f826103e361508c565b61253991906150b9565b90508381101561258b5760405162461bcd60e51b815260206004820152601060248201527f7072696365496d70616374206f766572000000000000000000000000000000006044820152606401611296565b60068a01548e908e9061259f908290615079565b60068d01556040805161010081018252600b546001600160a01b039081168252600a54811660208301908152610bb8838501908152600754831660608501908152426080860190815260a0860188815260c087018b81528d871660e08901908152600854995163414bf38960e01b8152895189166004820152965188166024880152945162ffffff166044870152925186166064860152905160848501525160a48401525160c483015251821660e4820152919260009291169063414bf38990610104016020604051808303816000875af1158015612682573d6000803e3d6000fd5b505050506040513d601f19601f820116820180604052508101906126a691906150e0565b604080516001600160a01b03871681526020810186905290810182905290915033907f34c21668d9e0d31d289d483bfe1b46a335340504801ea7feebfbb347bc4fe5679060600160405180910390a2505050505050505050505050505050505050565b6001600160a01b03811633146127875760405162461bcd60e51b815260206004820152602f60248201527f416363657373436f6e74726f6c3a2063616e206f6e6c792072656e6f756e636560448201527f20726f6c657320666f722073656c6600000000000000000000000000000000006064820152608401611296565b611ced82826143d9565b601760205281600052604060002081815481106127ad57600080fd5b6000918252602090912001546001600160a01b03169150829050565b6000806127d684846112cc565b9050600060ff82161561282157815b60ff811615612817576127f9868683612ecf565b61280390836150cd565b91508061280f81615262565b9150506127e5565b509150610f889050565b506000949350505050565b601860205281600052604060002081815481106127ad57600080fd5b611ced82338361445c565b6001600160a01b0382166000908152601c602090815260408083208151610140810183528154815260018201549381019390935260028082015492840183905260038201546060850181905260048301546080860152600583015460a0860152600683015460c08601526007909201549081900b60e085015260ff630100000082048116151561010086015264010000000090910416151561012084015283916128fd908661508c565b61290791906150b9565b95945050505050565b6001600160a01b0381166000908152601c602052604090206007810154640100000000900460ff16151560011480159061295a575060078101546301000000900460ff1615156001145b6129a65760405162461bcd60e51b815260206004820152601a60248201527f6e656564207468652065786368616e676557544f4e746f544f530000000000006044820152606401611296565b6001600160a01b0382166000908152601e60205260408120906129c884611cf1565b90506000816129d686611e6b565b84600101546129e591906150cd565b6129ef9190615079565b600b546040516370a0823160e01b81523060048201529192506001600160a01b0316906370a0823190602401602060405180830381865afa158015612a38573d6000803e3d6000fd5b505050506040513d601f19601f82011682018060405250810190612a5c91906150e0565b811115612aab5760405162461bcd60e51b815260206004820152600d60248201527f686176656e277420746f6b656e000000000000000000000000000000000000006044820152606401611296565b60078401805464ff0000000019166401000000001790558254600090612ad0876111ef565b60018701548754612ae191906150cd565b612aeb9190615079565b612af59190615079565b90508015612b8e57600d54600e54604051631474f2a960e31b81526001600160a01b0389811660048301529182166024820152604481018490526000606482015260a06084820152600260a482015261060f60f31b60c482015291169063a3a795489060e401600060405180830381600087803b158015612b7557600080fd5b505af1158015612b89573d6000803e3d6000fd5b505050505b600b546006546001600160a01b039182169163095ea7b39116612bb985678ac7230489e800006150cd565b6040516001600160e01b031960e085901b1681526001600160a01b03909216600483015260248201526044016020604051808303816000875af1158015612c04573d6000803e3d6000fd5b505050506040513d601f19601f82011682018060405250810190612c28919061527f565b506006546040516315a27c3b60e31b81526001600160a01b038881166004830152602482018590529091169063ad13e1d890604401600060405180830381600087803b158015612c7757600080fd5b505af1158015612c8b573d6000803e3d6000fd5b5050604080516001600160a01b038a168152602081018690529081018690523392507f4c2c0ab6abacae9e08e6f826eee15e2782e65aaa46fa6d77cbaec9c94247aad5915060600160405180910390a2505050505050565b612cec33611ca2565b612d435760405162461bcd60e51b815260206004820152602260248201527f41636365737369626c653a2043616c6c6572206973206e6f7420616e2061646d60448201526134b760f11b6064820152608401611296565b6112c97fdf8b4c520ffe197c5343c6f5aec59570151ef9a492f2c624fd45ddde6135ec4282611e41565b612d7633611ca2565b612dcd5760405162461bcd60e51b815260206004820152602260248201527f41636365737369626c653a2043616c6c6572206973206e6f7420616e2061646d60448201526134b760f11b6064820152608401611296565b6001600160a01b038116612e235760405162461bcd60e51b815260206004820152601860248201527f41636365737369626c653a207a65726f206164647265737300000000000000006044820152606401611296565b6001600160a01b0381163303612e7b5760405162461bcd60e51b815260206004820152601660248201527f41636365737369626c653a2073616d652061646d696e000000000000000000006044820152606401611296565b612ea57fdf8b4c520ffe197c5343c6f5aec59570151ef9a492f2c624fd45ddde6135ec4282611e41565b6112c97fdf8b4c520ffe197c5343c6f5aec59570151ef9a492f2c624fd45ddde6135ec4233612709565b6001600160a01b038084166000818152601f602090815260408083209487168352938152838220845160808082018752825460ff8082161515845261010091829004811684870152600180860154858b0152600295860154606080870191909152988852601c87528988208a5161014081018c52815481528183015498810198909852808701549a88019a909a5260038a015498870198909852600489015492860192909252600588015460a0860152600688015460c08601526007909701549283900b60e08501526301000000830481161515968401969096526401000000009091049094161515610120820152835191939290918491901515148015612fda575060008560ff16115b1561304a576001600160a01b038716600081815260256020908152604080832060ff8a1680855290835281842054948452602383528184209084529091529020548351612710929161302b9161508c565b61303591906150b9565b61303f91906150b9565b935061123392505050565b60ff8516156130e0576001600160a01b038716600090815260256020908152604080832060ff891684529091528120546130859060016150cd565b6001600160a01b038916600090815260236020908152604080832060ff8b16845290915290205484519192506127109183916130c09161508c565b6130ca91906150b9565b6130d491906150b9565b94506112339350505050565b5060009695505050505050565b6001600160a01b0381166000908152601d60209081526040808320815160a0810183528154815260018201549381019390935260028101549183018290526003810154606084015260040154608083015242101561314a57600091505b428160400151111580156131615750806060015142105b1561316f57600191506131a6565b428160600151116131a6576080810151606082015161318e9042615079565b61319891906150b9565b6131a39060026150cd565b91505b80518211156131b457805191505b50919050565b6001600160a01b0380831660009081526020808052604080832093851683529281528282208351808501909452805460ff16158015855260019091015491840191909152909182918291908061321257506020810151155b1561322857600080600093509350935050613294565b600061323687876000613bc6565b905060006132448883612853565b602084015190915060008082841015613274576132618484615079565b905061326d8b8561354c565b9150613288565b856020015193506132858b8461354c565b91505b92975095509093505050505b9250925092565b600080601b6000846001600160a01b03166001600160a01b03168152602001908152602001600020604051806101000160405290816000820154815260200160018201548152602001600282015481526020016003820154815260200160048201548152602001600582015481526020016006820154815260200160078201548152505090506000601c6000856001600160a01b03166001600160a01b0316815260200190815260200160002060405180610140016040529081600082015481526020016001820154815260200160028201548152602001600382015481526020016004820154815260200160058201548152602001600682015481526020016007820160009054906101000a900460020b60020b60020b81526020016007820160039054906101000a900460ff161515151581526020016007820160049054906101000a900460ff16151515158152505090508160a0015142101561340357519392505050565b61340c8461341b565b8160200151611ed091906150cd565b6001600160a01b0381166000818152601e60209081526040808320815160c0808201845282548252600180840154838701526002808501548487015260038086015460608087019190915260048088015460808089019190915260059889015460a0808a01919091529c8c52601c8b52898c208a5161014081018c528154808252978201549c81019c909c52808601549a8c019a909a5292890154918a01919091528701549088015293850154978601979097526006840154908501526007909201549081900b60e084015260ff6301000000820481161515610100850152640100000000909104161515610120830152805192939092611ed091615079565b6019602052816000526040600020818154811061353757600080fd5b90600052602060002001600091509150505481565b6001600160a01b0382166000908152601c602090815260408083208151610140810183528154815260018201549381019390935260028082015492840183905260038201546060850181905260048301546080860152600583015460a0860152600683015460c08601526007909201549081900b60e085015260ff63010000008204811615156101008601526401000000009091041615156101208401528391906128fd908661508c565b600082815260046020526040902060010154613612816140ca565b611e6683836143d9565b6001600160a01b0381166000908152601b60209081526040918290208251610100810184528154815260018201549281019290925260028101549282018390526003810154606083015260048101546080830152600581015460a0830152600681015460c08301526007015460e0820152904210156136dd5760405162461bcd60e51b815260206004820152601160248201527f6e6f742077686974656c69737454696d650000000000000000000000000000006044820152606401611296565b806060015142106137305760405162461bcd60e51b815260206004820152601160248201527f656e642077686974656c69737454696d650000000000000000000000000000006044820152606401611296565b600061373c83336112cc565b905060018160ff1610156137925760405162461bcd60e51b815260206004820152601160248201527f6e65656420746f206d6f72652073544f530000000000000000000000000000006044820152606401611296565b6001600160a01b0383166000908152601f602090815260408083203384529091529020805460ff16151560010361380b5760405162461bcd60e51b815260206004820152601060248201527f616c726561647920617474656e646564000000000000000000000000000000006044820152606401611296565b6001600160a01b038416600081815260186020908152604080832080546001818101835591855283852001805473ffffffffffffffffffffffffffffffffffffffff191633179055855460ff8816610100810261ffff199092169190911782178755948452602483528184209484529390915290205461388a916150cd565b6001600160a01b038516600090815260246020908152604080832060ff87168085529252909120919091556004036139c5576001600160a01b0384166000908152602560209081526040808320600484529091529020546138ec9060016150cd565b6001600160a01b038516600090815260256020908152604080832060048452909152808220929092556003815220546139269060016150cd565b6001600160a01b038516600090815260256020908152604080832060038452909152808220929092556002815220546139609060016150cd565b6001600160a01b0385166000908152602560209081526040808320600284529091528082209290925560018082529190205461399b916150cd565b6001600160a01b038516600090815260256020908152604080832060018452909152902055613a9b565b8160ff16600303613a00576001600160a01b0384166000908152602560209081526040808320600384529091529020546139269060016150cd565b8160ff16600203613a3b576001600160a01b0384166000908152602560209081526040808320600284529091529020546139609060016150cd565b8160ff16600103613a9b576001600160a01b03841660009081526025602090815260408083206001808552925290912054613a75916150cd565b6001600160a01b0385166000908152602560209081526040808320600184529091529020555b604080516001600160a01b038616815260ff8416602082015233917f80aaf28a2c7f80f586e64ede5c6c3b5433b8c6cf1351b6b51d8ab9febb8b5e7a910160405180910390a250505050565b6001600160a01b038083166000908152601f6020908152604080832093851683529281528282208351608081018552815460ff8082161580158452610100909204169382019390935260018201549481019490945260020154606084015290918291829190613b94576000806000613b5f89896131ba565b925092509250836040015183613b7591906150cd565b6060850151613b8490846150cd565b8296509650965050505050613294565b613b9e86866131ba565b93509350935050613294565b601a602052816000526040600020818154811061353757600080fd5b6001600160a01b0380841660009081526020808052604080832093861683529281528282208351808501909452805460ff1615158452600101549083018190529091908290613c169085906150cd565b6001600160a01b03871660009081526015602052604081205491925090613c3e9086906150cd565b82613c488961329b565b613c52919061508c565b613c5c91906150b9565b979650505050505050565b604080516001600160a01b038481166024830152604480830185905283518084039091018152606490920183526020820180516001600160e01b031663a9059cbb60e01b1790529151600092839290871691613cc39190615246565b6000604051808303816000865af19150503d8060008114613d00576040519150601f19603f3d011682016040523d82523d6000602084013e613d05565b606091505b5091509150818015613d2f575080511580613d2f575080806020019051810190613d2f919061527f565b611c9b5760405162461bcd60e51b815260206004820152600f60248201527f5452414e534645525f4641494c454400000000000000000000000000000000006044820152606401611296565b826001600160a01b038116613db75760405162461bcd60e51b81526020600482015260026024820152612d1960f11b6044820152606401611296565b826001600160a01b038116613df35760405162461bcd60e51b81526020600482015260026024820152612d1960f11b6044820152606401611296565b8280600003613e295760405162461bcd60e51b81526020600482015260026024820152615a3160f01b6044820152606401611296565b6001600160a01b0386166000908152601b6020908152604091829020825161010081018452815481526001820154928101929092526002810154928201929092526003820154606082015260048201546080820152600582015460a0820152600682015460c0820181905260079092015460e082015290421015613eef5760405162461bcd60e51b815260206004820152600f60248201527f6e6f74206465706f73697454696d6500000000000000000000000000000000006044820152606401611296565b8060e001514210613f425760405162461bcd60e51b815260206004820152600f60248201527f656e64206465706f73697454696d6500000000000000000000000000000000006044820152606401611296565b6001600160a01b03808816600081815260208080526040808320948b168352938152838220928252601e905291909120815460ff16614062576001600160a01b03898116600090815260176020908152604082208054600180820183559184529190922001805473ffffffffffffffffffffffffffffffffffffffff1916928b1692909217909155825460ff1916811783556004820154613fe2916150cd565b60048201556001600160a01b03808a166000908152601f60209081526040808320938c1683529281528282208351608081018552815460ff808216151583526101009091041692810192909252600181015493820184905260020154606082015291900361406057600282015461405a9060016150cd565b60028301555b505b86826001015461407291906150cd565b60018301556001600160a01b03891660009081526015602052604090205461409b9088906150cd565b6001600160a01b038a166000908152601560205260409020556140bf898989614836565b505050505050505050565b6112c98133614b47565b60008281526004602090815260408083206001600160a01b038516845290915290205460ff16611ced5760008281526004602090815260408083206001600160a01b03851684529091529020805460ff191660011790556141323390565b6001600160a01b0316816001600160a01b0316837f2f8788117e7eff1d82e926ec794901d17c78024a50270940304540a733656f0d60405160405180910390a45050565b60008163ffffffff166000036141b35760405162461bcd60e51b8152602060048201526002602482015261042560f41b6044820152606401611296565b60408051600280825260608201835260009260208301908036833701905050905082816000815181106141e8576141e86152b0565b602002602001019063ffffffff16908163ffffffff1681525050600081600181518110614217576142176152b0565b63ffffffff9092166020928302919091019091015260405163883bdbfd60e01b81526000906001600160a01b0386169063883bdbfd9061425b9085906004016152c6565b600060405180830381865afa158015614278573d6000803e3d6000fd5b505050506040513d6000823e601f3d908101601f191682016040526142a091908101906153d9565b5090506000816000815181106142b8576142b86152b0565b6020026020010151826001815181106142d3576142d36152b0565b60200260200101516142e591906154a5565b90506142f5600386900b826154d2565b935060008160060b1280156143195750614313600386900b82615510565b60060b15155b1561432c578361432881615532565b9450505b50505092915050565b600081516020146143c5576044825110156143925760405162461bcd60e51b815260206004820152601060248201527f556e6578706563746564206572726f72000000000000000000000000000000006044820152606401611296565b600482019150818060200190518101906143ac919061554b565b60405162461bcd60e51b815260040161129691906155df565b81806020019051810190610f8891906150e0565b60008281526004602090815260408083206001600160a01b038516845290915290205460ff1615611ced5760008281526004602090815260408083206001600160a01b0385168085529252808320805460ff1916905551339285917ff6391f5c32d9c69d2a47ea670b442974b53935d1edc7fd64eb21e047a839171b9190a45050565b826001600160a01b0381166144985760405162461bcd60e51b81526020600482015260026024820152612d1960f11b6044820152606401611296565b826001600160a01b0381166144d45760405162461bcd60e51b81526020600482015260026024820152612d1960f11b6044820152606401611296565b828060000361450a5760405162461bcd60e51b81526020600482015260026024820152615a3160f01b6044820152606401611296565b6001600160a01b0386166000908152601b60209081526040918290208251610100810184528154815260018201549281019290925260028101549282019290925260038201546060820152600482015460808201819052600583015460a0830152600683015460c083015260079092015460e0820152904210156145d05760405162461bcd60e51b815260206004820152601260248201527f6e6f7420726f756e643153616c6554696d6500000000000000000000000000006044820152606401611296565b8060a0015142106146235760405162461bcd60e51b815260206004820152601260248201527f656e6420726f756e643153616c6554696d6500000000000000000000000000006044820152606401611296565b6001600160a01b038088166000908152601f60209081526040808320938a16835292905220805460ff16151560011461469e5760405162461bcd60e51b815260206004820152600c60248201527f6e6f2077686974656c69737400000000000000000000000000000000000000006044820152606401611296565b60006146aa89896112cc565b905060006146b88a8961354c565b905060006146c68b8b6127c9565b90508184600201546146d891906150cd565b8110156147275760405162461bcd60e51b815260206004820152600e60248201527f646f6e2774206f766572206275790000000000000000000000000000000000006044820152606401611296565b6001600160a01b038b166000908152601e6020526040812060018601549091036147cf57600381015461475b9060016150cd565b600382015560028101546147709060016150cd565b60028201556001600160a01b038c16600090815260266020908152604080832060ff881684529091529020546147a79060016150cd565b6001600160a01b038d16600090815260266020908152604080832060ff891684529091529020555b8985600101546147df91906150cd565b600186015560028501546147f49084906150cd565b60028601556001810154614809908b906150cd565b6001820155805461481b9084906150cd565b81556148288c8c8c614836565b505050505050505050505050565b826001600160a01b0381166148725760405162461bcd60e51b81526020600482015260026024820152612d1960f11b6044820152606401611296565b826001600160a01b0381166148ae5760405162461bcd60e51b81526020600482015260026024820152612d1960f11b6044820152606401611296565b82806000036148e45760405162461bcd60e51b81526020600482015260026024820152615a3160f01b6044820152606401611296565b6001600160a01b038681166000908152601b6020908152604080832081516101008101835281548152600182015493810193909352600281015483830152600381015460608401526004808201546080850152600582015460a0850152600682015460c085015260079091015460e0840152600b549151636eb1769f60e11b81528a8616918101919091523060248201529193169063dd62ed3e90604401602060405180830381865afa15801561499f573d6000803e3d6000fd5b505050506040513d601f19601f820116820180604052508101906149c391906150e0565b600b546040516370a0823160e01b81526001600160a01b038a81166004830152929350600092909116906370a0823190602401602060405180830381865afa158015614a13573d6000803e3d6000fd5b505050506040513d601f19601f82011682018060405250810190614a3791906150e0565b9050868210158015614a495750868110155b614a955760405162461bcd60e51b815260206004820152601560248201527f746f6e206578636565647320616c6c6f77616e636500000000000000000000006044820152606401611296565b600b54614aad906001600160a01b031689308a614bbc565b8260a00151421015614b0457604080516001600160a01b038b81168252602082018a90528a16917f9840f3ca16eed984a6ad48d36928a9cfb427c7f90a8d37e017b3385a747aa294910160405180910390a26140bf565b604080516001600160a01b038b81168252602082018a90528a16917f8752a472e571a816aea92eec8dae9baf628e840f4929fbcc2d155e6233ff68a79101611c8e565b60008281526004602090815260408083206001600160a01b038516845290915290205460ff16611ced57614b7a81614ce0565b614b85836020614cf2565b604051602001614b96929190615612565b60408051601f198184030181529082905262461bcd60e51b8252611296916004016155df565b604080516001600160a01b0385811660248301528481166044830152606480830185905283518084039091018152608490920183526020820180516001600160e01b03166323b872dd60e01b1790529151600092839290881691614c209190615246565b6000604051808303816000865af19150503d8060008114614c5d576040519150601f19603f3d011682016040523d82523d6000602084013e614c62565b606091505b5091509150818015614c8c575080511580614c8c575080806020019051810190614c8c919061527f565b614cd85760405162461bcd60e51b815260206004820152601460248201527f5452414e534645525f46524f4d5f4641494c45440000000000000000000000006044820152606401611296565b505050505050565b6060610f886001600160a01b03831660145b60606000614d0183600261508c565b614d0c9060026150cd565b67ffffffffffffffff811115614d2457614d2461529a565b6040519080825280601f01601f191660200182016040528015614d4e576020820181803683370190505b509050600360fc1b81600081518110614d6957614d696152b0565b60200101906001600160f81b031916908160001a905350600f60fb1b81600181518110614d9857614d986152b0565b60200101906001600160f81b031916908160001a9053506000614dbc84600261508c565b614dc79060016150cd565b90505b6001811115614e4c577f303132333435363738396162636465660000000000000000000000000000000085600f1660108110614e0857614e086152b0565b1a60f81b828281518110614e1e57614e1e6152b0565b60200101906001600160f81b031916908160001a90535060049490941c93614e4581615693565b9050614dca565b5083156112335760405162461bcd60e51b815260206004820181905260248201527f537472696e67733a20686578206c656e67746820696e73756666696369656e746044820152606401611296565b600060208284031215614ead57600080fd5b81356001600160e01b03198116811461123357600080fd5b6001600160a01b03811681146112c957600080fd5b600060208284031215614eec57600080fd5b813561123381614ec5565b600080600060608486031215614f0c57600080fd5b8335614f1781614ec5565b92506020840135614f2781614ec5565b929592945050506040919091013590565b60ff811681146112c957600080fd5b60008060408385031215614f5a57600080fd5b8235614f6581614ec5565b91506020830135614f7581614f38565b809150509250929050565b60008060408385031215614f9357600080fd5b8235614f9e81614ec5565b91506020830135614f7581614ec5565b600060208284031215614fc057600080fd5b5035919050565b60008060408385031215614fda57600080fd5b8235614fe581614ec5565b946020939093013593505050565b6000806040838503121561500657600080fd5b823591506020830135614f7581614ec5565b60008060006060848603121561502d57600080fd5b833561503881614ec5565b9250602084013561504881614ec5565b9150604084013561505881614f38565b809150509250925092565b634e487b7160e01b600052601160045260246000fd5b81810381811115610f8857610f88615063565b8082028115828204841417610f8857610f88615063565b634e487b7160e01b600052601260045260246000fd5b6000826150c8576150c86150a3565b500490565b80820180821115610f8857610f88615063565b6000602082840312156150f257600080fd5b5051919050565b60006020828403121561510b57600080fd5b815161123381614ec5565b8051600281900b811461512857600080fd5b919050565b805161ffff8116811461512857600080fd5b8051801515811461512857600080fd5b600080600080600080600060e0888a03121561516a57600080fd5b875161517581614ec5565b965061518360208901615116565b95506151916040890161512d565b945061519f6060890161512d565b93506151ad6080890161512d565b925060a08801516151bd81614f38565b91506151cb60c0890161513f565b905092959891949750929550565b6000602082840312156151eb57600080fd5b61123382615116565b60008060006060848603121561520957600080fd5b8351925060208401519150604084015161505881614ec5565b60005b8381101561523d578181015183820152602001615225565b50506000910152565b60008251615258818460208701615222565b9190910192915050565b600060ff82168061527557615275615063565b6000190192915050565b60006020828403121561529157600080fd5b6112338261513f565b634e487b7160e01b600052604160045260246000fd5b634e487b7160e01b600052603260045260246000fd5b6020808252825182820181905260009190848201906040850190845b8181101561530457835163ffffffff16835292840192918401916001016152e2565b50909695505050505050565b604051601f8201601f1916810167ffffffffffffffff811182821017156153395761533961529a565b604052919050565b600067ffffffffffffffff82111561535b5761535b61529a565b5060051b60200190565b600082601f83011261537657600080fd5b8151602061538b61538683615341565b615310565b82815260059290921b840181019181810190868411156153aa57600080fd5b8286015b848110156153ce5780516153c181614ec5565b83529183019183016153ae565b509695505050505050565b600080604083850312156153ec57600080fd5b825167ffffffffffffffff8082111561540457600080fd5b818501915085601f83011261541857600080fd5b8151602061542861538683615341565b82815260059290921b8401810191818101908984111561544757600080fd5b948201945b838610156154755785518060060b81146154665760008081fd5b8252948201949082019061544c565b9188015191965090935050508082111561548e57600080fd5b5061549b85828601615365565b9150509250929050565b600682810b9082900b03667fffffffffffff198112667fffffffffffff82131715610f8857610f88615063565b60008160060b8360060b806154e9576154e96150a3565b667fffffffffffff1982146000198214161561550757615507615063565b90059392505050565b60008260060b80615523576155236150a3565b808360060b0791505092915050565b60008160020b627fffff19810361527557615275615063565b60006020828403121561555d57600080fd5b815167ffffffffffffffff8082111561557557600080fd5b818401915084601f83011261558957600080fd5b81518181111561559b5761559b61529a565b6155ae601f8201601f1916602001615310565b91508082528560208285010111156155c557600080fd5b6155d6816020840160208601615222565b50949350505050565b60208152600082518060208401526155fe816040850160208701615222565b601f01601f19169190910160400192915050565b7f416363657373436f6e74726f6c3a206163636f756e742000000000000000000081526000835161564a816017850160208801615222565b7f206973206d697373696e6720726f6c65200000000000000000000000000000006017918401918201528351615687816028840160208801615222565b01602801949350505050565b6000816156a2576156a2615063565b50600019019056fea164736f6c6343000812000a",
  "libraries": {
    "LibPublicSaleVault": "0xcDAa66C8255572587566fcB6DB0082383CB44de5"
  },
  "devdoc": {
    "events": {
      "RoleAdminChanged(bytes32,bytes32,bytes32)": {
        "details": "Emitted when `newAdminRole` is set as ``role``'s admin role, replacing `previousAdminRole` `DEFAULT_ADMIN_ROLE` is the starting admin for all roles, despite {RoleAdminChanged} not being emitted signaling this. _Available since v3.1._"
      },
      "RoleGranted(bytes32,address,address)": {
        "details": "Emitted when `account` is granted `role`. `sender` is the account that originated the contract call, an admin role bearer except when using {AccessControl-_setupRole}."
      },
      "RoleRevoked(bytes32,address,address)": {
        "details": "Emitted when `account` is revoked `role`. `sender` is the account that originated the contract call:   - if using `revokeRole`, it is the admin role bearer   - if using `renounceRole`, it is the role bearer (i.e. `account`)"
      }
    },
    "kind": "dev",
    "methods": {
      "addAdmin(address)": {
        "details": "add admin",
        "params": {
          "account": "address to add"
        }
      },
      "getRoleAdmin(bytes32)": {
        "details": "Returns the admin role that controls `role`. See {grantRole} and {revokeRole}. To change a role's admin, use {_setRoleAdmin}."
      },
      "grantRole(bytes32,address)": {
        "details": "Grants `role` to `account`. If `account` had not been already granted `role`, emits a {RoleGranted} event. Requirements: - the caller must have ``role``'s admin role. May emit a {RoleGranted} event."
      },
      "hasRole(bytes32,address)": {
        "details": "Returns `true` if `account` has been granted `role`."
      },
      "isAdmin(address)": {
        "details": "whether admin",
        "params": {
          "account": "address to check"
        }
      },
      "removeAdmin(address)": {
        "details": "remove admin",
        "params": {
          "account": "address to remove"
        }
      },
      "renounceRole(bytes32,address)": {
        "details": "Revokes `role` from the calling account. Roles are often managed via {grantRole} and {revokeRole}: this function's purpose is to provide a mechanism for accounts to lose their privileges if they are compromised (such as when a trusted device is misplaced). If the calling account had been revoked `role`, emits a {RoleRevoked} event. Requirements: - the caller must be `account`. May emit a {RoleRevoked} event."
      },
      "revokeRole(bytes32,address)": {
        "details": "Revokes `role` from `account`. If `account` had been granted `role`, emits a {RoleRevoked} event. Requirements: - the caller must have ``role``'s admin role. May emit a {RoleRevoked} event."
      },
      "supportsInterface(bytes4)": {
        "details": "See {IERC165-supportsInterface}."
      },
      "transferAdmin(address)": {
        "details": "transfer admin",
        "params": {
          "newAdmin": "new admin address"
        }
      }
    },
    "version": 1
  },
  "userdoc": {
    "kind": "user",
    "methods": {},
    "version": 1
  },
  "storageLayout": {
    "storage": [
      {
        "astId": 32384,
        "contract": "contracts/L2/vaults/L2PublicSaleVault.sol:L2PublicSaleVault",
        "label": "pauseProxy",
        "offset": 0,
        "slot": "0",
        "type": "t_bool"
      },
      {
        "astId": 32388,
        "contract": "contracts/L2/vaults/L2PublicSaleVault.sol:L2PublicSaleVault",
        "label": "proxyImplementation",
        "offset": 0,
        "slot": "1",
        "type": "t_mapping(t_uint256,t_address)"
      },
      {
        "astId": 32392,
        "contract": "contracts/L2/vaults/L2PublicSaleVault.sol:L2PublicSaleVault",
        "label": "aliveImplementation",
        "offset": 0,
        "slot": "2",
        "type": "t_mapping(t_address,t_bool)"
      },
      {
        "astId": 32396,
        "contract": "contracts/L2/vaults/L2PublicSaleVault.sol:L2PublicSaleVault",
        "label": "selectorImplementation",
        "offset": 0,
        "slot": "3",
        "type": "t_mapping(t_bytes4,t_address)"
      },
      {
        "astId": 24,
        "contract": "contracts/L2/vaults/L2PublicSaleVault.sol:L2PublicSaleVault",
        "label": "_roles",
        "offset": 0,
        "slot": "4",
        "type": "t_mapping(t_bytes32,t_struct(RoleData)19_storage)"
      },
      {
        "astId": 24698,
        "contract": "contracts/L2/vaults/L2PublicSaleVault.sol:L2PublicSaleVault",
        "label": "quoter",
        "offset": 0,
        "slot": "5",
        "type": "t_address"
      },
      {
        "astId": 24700,
        "contract": "contracts/L2/vaults/L2PublicSaleVault.sol:L2PublicSaleVault",
        "label": "vestingFund",
        "offset": 0,
        "slot": "6",
        "type": "t_address"
      },
      {
        "astId": 24702,
        "contract": "contracts/L2/vaults/L2PublicSaleVault.sol:L2PublicSaleVault",
        "label": "liquidityVault",
        "offset": 0,
        "slot": "7",
        "type": "t_address"
      },
      {
        "astId": 24704,
        "contract": "contracts/L2/vaults/L2PublicSaleVault.sol:L2PublicSaleVault",
        "label": "uniswapRouter",
        "offset": 0,
        "slot": "8",
        "type": "t_address"
      },
      {
        "astId": 24706,
        "contract": "contracts/L2/vaults/L2PublicSaleVault.sol:L2PublicSaleVault",
        "label": "lockTOS",
        "offset": 0,
        "slot": "9",
        "type": "t_address"
      },
      {
        "astId": 24708,
        "contract": "contracts/L2/vaults/L2PublicSaleVault.sol:L2PublicSaleVault",
        "label": "tos",
        "offset": 0,
        "slot": "10",
        "type": "t_address"
      },
      {
        "astId": 24710,
        "contract": "contracts/L2/vaults/L2PublicSaleVault.sol:L2PublicSaleVault",
        "label": "ton",
        "offset": 0,
        "slot": "11",
        "type": "t_address"
      },
      {
        "astId": 24712,
        "contract": "contracts/L2/vaults/L2PublicSaleVault.sol:L2PublicSaleVault",
        "label": "l2ProjectManager",
        "offset": 0,
        "slot": "12",
        "type": "t_address"
      },
      {
        "astId": 24714,
        "contract": "contracts/L2/vaults/L2PublicSaleVault.sol:L2PublicSaleVault",
        "label": "l2Bridge",
        "offset": 0,
        "slot": "13",
        "type": "t_address"
      },
      {
        "astId": 24716,
        "contract": "contracts/L2/vaults/L2PublicSaleVault.sol:L2PublicSaleVault",
        "label": "l1burnVault",
        "offset": 0,
        "slot": "14",
        "type": "t_address"
      },
      {
        "astId": 24718,
        "contract": "contracts/L2/vaults/L2PublicSaleVault.sol:L2PublicSaleVault",
        "label": "minPer",
        "offset": 20,
        "slot": "14",
        "type": "t_uint8"
      },
      {
        "astId": 24720,
        "contract": "contracts/L2/vaults/L2PublicSaleVault.sol:L2PublicSaleVault",
        "label": "maxPer",
        "offset": 21,
        "slot": "14",
        "type": "t_uint8"
      },
      {
        "astId": 24722,
        "contract": "contracts/L2/vaults/L2PublicSaleVault.sol:L2PublicSaleVault",
        "label": "stanTier1",
        "offset": 0,
        "slot": "15",
        "type": "t_uint256"
      },
      {
        "astId": 24724,
        "contract": "contracts/L2/vaults/L2PublicSaleVault.sol:L2PublicSaleVault",
        "label": "stanTier2",
        "offset": 0,
        "slot": "16",
        "type": "t_uint256"
      },
      {
        "astId": 24726,
        "contract": "contracts/L2/vaults/L2PublicSaleVault.sol:L2PublicSaleVault",
        "label": "stanTier3",
        "offset": 0,
        "slot": "17",
        "type": "t_uint256"
      },
      {
        "astId": 24728,
        "contract": "contracts/L2/vaults/L2PublicSaleVault.sol:L2PublicSaleVault",
        "label": "stanTier4",
        "offset": 0,
        "slot": "18",
        "type": "t_uint256"
      },
      {
        "astId": 24730,
        "contract": "contracts/L2/vaults/L2PublicSaleVault.sol:L2PublicSaleVault",
        "label": "delayTime",
        "offset": 0,
        "slot": "19",
        "type": "t_uint256"
      },
      {
        "astId": 24732,
        "contract": "contracts/L2/vaults/L2PublicSaleVault.sol:L2PublicSaleVault",
        "label": "changeTick",
        "offset": 0,
        "slot": "20",
        "type": "t_int24"
      },
      {
        "astId": 24735,
        "contract": "contracts/L2/vaults/L2PublicSaleVault.sol:L2PublicSaleVault",
        "label": "free",
        "offset": 3,
        "slot": "20",
        "type": "t_bool"
      },
      {
        "astId": 24739,
        "contract": "contracts/L2/vaults/L2PublicSaleVault.sol:L2PublicSaleVault",
        "label": "totalDepositAmount",
        "offset": 0,
        "slot": "21",
        "type": "t_mapping(t_address,t_uint256)"
      },
      {
        "astId": 24743,
        "contract": "contracts/L2/vaults/L2PublicSaleVault.sol:L2PublicSaleVault",
        "label": "vaultAdminOfToken",
        "offset": 0,
        "slot": "22",
        "type": "t_mapping(t_address,t_address)"
      },
      {
        "astId": 24748,
        "contract": "contracts/L2/vaults/L2PublicSaleVault.sol:L2PublicSaleVault",
        "label": "depositors",
        "offset": 0,
        "slot": "23",
        "type": "t_mapping(t_address,t_array(t_address)dyn_storage)"
      },
      {
        "astId": 24753,
        "contract": "contracts/L2/vaults/L2PublicSaleVault.sol:L2PublicSaleVault",
        "label": "whitelists",
        "offset": 0,
        "slot": "24",
        "type": "t_mapping(t_address,t_array(t_address)dyn_storage)"
      },
      {
        "astId": 24758,
        "contract": "contracts/L2/vaults/L2PublicSaleVault.sol:L2PublicSaleVault",
        "label": "claimTimes",
        "offset": 0,
        "slot": "25",
        "type": "t_mapping(t_address,t_array(t_uint256)dyn_storage)"
      },
      {
        "astId": 24763,
        "contract": "contracts/L2/vaults/L2PublicSaleVault.sol:L2PublicSaleVault",
        "label": "claimPercents",
        "offset": 0,
        "slot": "26",
        "type": "t_mapping(t_address,t_array(t_uint256)dyn_storage)"
      },
      {
        "astId": 24768,
        "contract": "contracts/L2/vaults/L2PublicSaleVault.sol:L2PublicSaleVault",
        "label": "timeInfo",
        "offset": 0,
        "slot": "27",
        "type": "t_mapping(t_address,t_struct(TokenTimeManage)30099_storage)"
      },
      {
        "astId": 24773,
        "contract": "contracts/L2/vaults/L2PublicSaleVault.sol:L2PublicSaleVault",
        "label": "manageInfo",
        "offset": 0,
        "slot": "28",
        "type": "t_mapping(t_address,t_struct(TokenSaleManage)30120_storage)"
      },
      {
        "astId": 24778,
        "contract": "contracts/L2/vaults/L2PublicSaleVault.sol:L2PublicSaleVault",
        "label": "claimInfo",
        "offset": 0,
        "slot": "29",
        "type": "t_mapping(t_address,t_struct(TokenSaleClaim)30131_storage)"
      },
      {
        "astId": 24783,
        "contract": "contracts/L2/vaults/L2PublicSaleVault.sol:L2PublicSaleVault",
        "label": "saleInfo",
        "offset": 0,
        "slot": "30",
        "type": "t_mapping(t_address,t_struct(TokenSaleInfo)30144_storage)"
      },
      {
        "astId": 24790,
        "contract": "contracts/L2/vaults/L2PublicSaleVault.sol:L2PublicSaleVault",
        "label": "user1rd",
        "offset": 0,
        "slot": "31",
        "type": "t_mapping(t_address,t_mapping(t_address,t_struct(UserInfo1rd)30153_storage))"
      },
      {
        "astId": 24797,
        "contract": "contracts/L2/vaults/L2PublicSaleVault.sol:L2PublicSaleVault",
        "label": "user2rd",
        "offset": 0,
        "slot": "32",
        "type": "t_mapping(t_address,t_mapping(t_address,t_struct(UserInfo2rd)30158_storage))"
      },
      {
        "astId": 24804,
        "contract": "contracts/L2/vaults/L2PublicSaleVault.sol:L2PublicSaleVault",
        "label": "userClaim",
        "offset": 0,
        "slot": "33",
        "type": "t_mapping(t_address,t_mapping(t_address,t_struct(UserClaim)30167_storage))"
      },
      {
        "astId": 24810,
        "contract": "contracts/L2/vaults/L2PublicSaleVault.sol:L2PublicSaleVault",
        "label": "tiers",
        "offset": 0,
        "slot": "34",
        "type": "t_mapping(t_address,t_mapping(t_uint8,t_uint256))"
      },
      {
        "astId": 24816,
        "contract": "contracts/L2/vaults/L2PublicSaleVault.sol:L2PublicSaleVault",
        "label": "tiersPercents",
        "offset": 0,
        "slot": "35",
        "type": "t_mapping(t_address,t_mapping(t_uint8,t_uint256))"
      },
      {
        "astId": 24822,
        "contract": "contracts/L2/vaults/L2PublicSaleVault.sol:L2PublicSaleVault",
        "label": "tiersWhiteList",
        "offset": 0,
        "slot": "36",
        "type": "t_mapping(t_address,t_mapping(t_uint8,t_uint256))"
      },
      {
        "astId": 24828,
        "contract": "contracts/L2/vaults/L2PublicSaleVault.sol:L2PublicSaleVault",
        "label": "tiersCalculAccount",
        "offset": 0,
        "slot": "37",
        "type": "t_mapping(t_address,t_mapping(t_uint8,t_uint256))"
      },
      {
        "astId": 24834,
        "contract": "contracts/L2/vaults/L2PublicSaleVault.sol:L2PublicSaleVault",
        "label": "tiers1stAccount",
        "offset": 0,
        "slot": "38",
        "type": "t_mapping(t_address,t_mapping(t_uint8,t_uint256))"
      }
    ],
    "types": {
      "t_address": {
        "encoding": "inplace",
        "label": "address",
        "numberOfBytes": "20"
      },
      "t_array(t_address)dyn_storage": {
        "base": "t_address",
        "encoding": "dynamic_array",
        "label": "address[]",
        "numberOfBytes": "32"
      },
      "t_array(t_uint256)dyn_storage": {
        "base": "t_uint256",
        "encoding": "dynamic_array",
        "label": "uint256[]",
        "numberOfBytes": "32"
      },
      "t_bool": {
        "encoding": "inplace",
        "label": "bool",
        "numberOfBytes": "1"
      },
      "t_bytes32": {
        "encoding": "inplace",
        "label": "bytes32",
        "numberOfBytes": "32"
      },
      "t_bytes4": {
        "encoding": "inplace",
        "label": "bytes4",
        "numberOfBytes": "4"
      },
      "t_int24": {
        "encoding": "inplace",
        "label": "int24",
        "numberOfBytes": "3"
      },
      "t_mapping(t_address,t_address)": {
        "encoding": "mapping",
        "key": "t_address",
        "label": "mapping(address => address)",
        "numberOfBytes": "32",
        "value": "t_address"
      },
      "t_mapping(t_address,t_array(t_address)dyn_storage)": {
        "encoding": "mapping",
        "key": "t_address",
        "label": "mapping(address => address[])",
        "numberOfBytes": "32",
        "value": "t_array(t_address)dyn_storage"
      },
      "t_mapping(t_address,t_array(t_uint256)dyn_storage)": {
        "encoding": "mapping",
        "key": "t_address",
        "label": "mapping(address => uint256[])",
        "numberOfBytes": "32",
        "value": "t_array(t_uint256)dyn_storage"
      },
      "t_mapping(t_address,t_bool)": {
        "encoding": "mapping",
        "key": "t_address",
        "label": "mapping(address => bool)",
        "numberOfBytes": "32",
        "value": "t_bool"
      },
      "t_mapping(t_address,t_mapping(t_address,t_struct(UserClaim)30167_storage))": {
        "encoding": "mapping",
        "key": "t_address",
        "label": "mapping(address => mapping(address => struct LibPublicSaleVault.UserClaim))",
        "numberOfBytes": "32",
        "value": "t_mapping(t_address,t_struct(UserClaim)30167_storage)"
      },
      "t_mapping(t_address,t_mapping(t_address,t_struct(UserInfo1rd)30153_storage))": {
        "encoding": "mapping",
        "key": "t_address",
        "label": "mapping(address => mapping(address => struct LibPublicSaleVault.UserInfo1rd))",
        "numberOfBytes": "32",
        "value": "t_mapping(t_address,t_struct(UserInfo1rd)30153_storage)"
      },
      "t_mapping(t_address,t_mapping(t_address,t_struct(UserInfo2rd)30158_storage))": {
        "encoding": "mapping",
        "key": "t_address",
        "label": "mapping(address => mapping(address => struct LibPublicSaleVault.UserInfo2rd))",
        "numberOfBytes": "32",
        "value": "t_mapping(t_address,t_struct(UserInfo2rd)30158_storage)"
      },
      "t_mapping(t_address,t_mapping(t_uint8,t_uint256))": {
        "encoding": "mapping",
        "key": "t_address",
        "label": "mapping(address => mapping(uint8 => uint256))",
        "numberOfBytes": "32",
        "value": "t_mapping(t_uint8,t_uint256)"
      },
      "t_mapping(t_address,t_struct(TokenSaleClaim)30131_storage)": {
        "encoding": "mapping",
        "key": "t_address",
        "label": "mapping(address => struct LibPublicSaleVault.TokenSaleClaim)",
        "numberOfBytes": "32",
        "value": "t_struct(TokenSaleClaim)30131_storage"
      },
      "t_mapping(t_address,t_struct(TokenSaleInfo)30144_storage)": {
        "encoding": "mapping",
        "key": "t_address",
        "label": "mapping(address => struct LibPublicSaleVault.TokenSaleInfo)",
        "numberOfBytes": "32",
        "value": "t_struct(TokenSaleInfo)30144_storage"
      },
      "t_mapping(t_address,t_struct(TokenSaleManage)30120_storage)": {
        "encoding": "mapping",
        "key": "t_address",
        "label": "mapping(address => struct LibPublicSaleVault.TokenSaleManage)",
        "numberOfBytes": "32",
        "value": "t_struct(TokenSaleManage)30120_storage"
      },
      "t_mapping(t_address,t_struct(TokenTimeManage)30099_storage)": {
        "encoding": "mapping",
        "key": "t_address",
        "label": "mapping(address => struct LibPublicSaleVault.TokenTimeManage)",
        "numberOfBytes": "32",
        "value": "t_struct(TokenTimeManage)30099_storage"
      },
      "t_mapping(t_address,t_struct(UserClaim)30167_storage)": {
        "encoding": "mapping",
        "key": "t_address",
        "label": "mapping(address => struct LibPublicSaleVault.UserClaim)",
        "numberOfBytes": "32",
        "value": "t_struct(UserClaim)30167_storage"
      },
      "t_mapping(t_address,t_struct(UserInfo1rd)30153_storage)": {
        "encoding": "mapping",
        "key": "t_address",
        "label": "mapping(address => struct LibPublicSaleVault.UserInfo1rd)",
        "numberOfBytes": "32",
        "value": "t_struct(UserInfo1rd)30153_storage"
      },
      "t_mapping(t_address,t_struct(UserInfo2rd)30158_storage)": {
        "encoding": "mapping",
        "key": "t_address",
        "label": "mapping(address => struct LibPublicSaleVault.UserInfo2rd)",
        "numberOfBytes": "32",
        "value": "t_struct(UserInfo2rd)30158_storage"
      },
      "t_mapping(t_address,t_uint256)": {
        "encoding": "mapping",
        "key": "t_address",
        "label": "mapping(address => uint256)",
        "numberOfBytes": "32",
        "value": "t_uint256"
      },
      "t_mapping(t_bytes32,t_struct(RoleData)19_storage)": {
        "encoding": "mapping",
        "key": "t_bytes32",
        "label": "mapping(bytes32 => struct AccessControl.RoleData)",
        "numberOfBytes": "32",
        "value": "t_struct(RoleData)19_storage"
      },
      "t_mapping(t_bytes4,t_address)": {
        "encoding": "mapping",
        "key": "t_bytes4",
        "label": "mapping(bytes4 => address)",
        "numberOfBytes": "32",
        "value": "t_address"
      },
      "t_mapping(t_uint256,t_address)": {
        "encoding": "mapping",
        "key": "t_uint256",
        "label": "mapping(uint256 => address)",
        "numberOfBytes": "32",
        "value": "t_address"
      },
      "t_mapping(t_uint8,t_uint256)": {
        "encoding": "mapping",
        "key": "t_uint8",
        "label": "mapping(uint8 => uint256)",
        "numberOfBytes": "32",
        "value": "t_uint256"
      },
      "t_struct(RoleData)19_storage": {
        "encoding": "inplace",
        "label": "struct AccessControl.RoleData",
        "members": [
          {
            "astId": 16,
            "contract": "contracts/L2/vaults/L2PublicSaleVault.sol:L2PublicSaleVault",
            "label": "members",
            "offset": 0,
            "slot": "0",
            "type": "t_mapping(t_address,t_bool)"
          },
          {
            "astId": 18,
            "contract": "contracts/L2/vaults/L2PublicSaleVault.sol:L2PublicSaleVault",
            "label": "adminRole",
            "offset": 0,
            "slot": "1",
            "type": "t_bytes32"
          }
        ],
        "numberOfBytes": "64"
      },
      "t_struct(TokenSaleClaim)30131_storage": {
        "encoding": "inplace",
        "label": "struct LibPublicSaleVault.TokenSaleClaim",
        "members": [
          {
            "astId": 30122,
            "contract": "contracts/L2/vaults/L2PublicSaleVault.sol:L2PublicSaleVault",
            "label": "totalClaimCounts",
            "offset": 0,
            "slot": "0",
            "type": "t_uint256"
          },
          {
            "astId": 30124,
            "contract": "contracts/L2/vaults/L2PublicSaleVault.sol:L2PublicSaleVault",
            "label": "firstClaimPercent",
            "offset": 0,
            "slot": "1",
            "type": "t_uint256"
          },
          {
            "astId": 30126,
            "contract": "contracts/L2/vaults/L2PublicSaleVault.sol:L2PublicSaleVault",
            "label": "firstClaimTime",
            "offset": 0,
            "slot": "2",
            "type": "t_uint256"
          },
          {
            "astId": 30128,
            "contract": "contracts/L2/vaults/L2PublicSaleVault.sol:L2PublicSaleVault",
            "label": "secondClaimTime",
            "offset": 0,
            "slot": "3",
            "type": "t_uint256"
          },
          {
            "astId": 30130,
            "contract": "contracts/L2/vaults/L2PublicSaleVault.sol:L2PublicSaleVault",
            "label": "claimInterval",
            "offset": 0,
            "slot": "4",
            "type": "t_uint256"
          }
        ],
        "numberOfBytes": "160"
      },
      "t_struct(TokenSaleInfo)30144_storage": {
        "encoding": "inplace",
        "label": "struct LibPublicSaleVault.TokenSaleInfo",
        "members": [
          {
            "astId": 30133,
            "contract": "contracts/L2/vaults/L2PublicSaleVault.sol:L2PublicSaleVault",
            "label": "total1rdSaleAmount",
            "offset": 0,
            "slot": "0",
            "type": "t_uint256"
          },
          {
            "astId": 30135,
            "contract": "contracts/L2/vaults/L2PublicSaleVault.sol:L2PublicSaleVault",
            "label": "total1rdTONAmount",
            "offset": 0,
            "slot": "1",
            "type": "t_uint256"
          },
          {
            "astId": 30137,
            "contract": "contracts/L2/vaults/L2PublicSaleVault.sol:L2PublicSaleVault",
            "label": "totalUsers",
            "offset": 0,
            "slot": "2",
            "type": "t_uint256"
          },
          {
            "astId": 30139,
            "contract": "contracts/L2/vaults/L2PublicSaleVault.sol:L2PublicSaleVault",
            "label": "total1rdUsers",
            "offset": 0,
            "slot": "3",
            "type": "t_uint256"
          },
          {
            "astId": 30141,
            "contract": "contracts/L2/vaults/L2PublicSaleVault.sol:L2PublicSaleVault",
            "label": "total2rdUsers",
            "offset": 0,
            "slot": "4",
            "type": "t_uint256"
          },
          {
            "astId": 30143,
            "contract": "contracts/L2/vaults/L2PublicSaleVault.sol:L2PublicSaleVault",
            "label": "total2rdUsersClaim",
            "offset": 0,
            "slot": "5",
            "type": "t_uint256"
          }
        ],
        "numberOfBytes": "192"
      },
      "t_struct(TokenSaleManage)30120_storage": {
        "encoding": "inplace",
        "label": "struct LibPublicSaleVault.TokenSaleManage",
        "members": [
          {
            "astId": 30101,
            "contract": "contracts/L2/vaults/L2PublicSaleVault.sol:L2PublicSaleVault",
            "label": "set1rdTokenAmount",
            "offset": 0,
            "slot": "0",
            "type": "t_uint256"
          },
          {
            "astId": 30103,
            "contract": "contracts/L2/vaults/L2PublicSaleVault.sol:L2PublicSaleVault",
            "label": "set2rdTokenAmount",
            "offset": 0,
            "slot": "1",
            "type": "t_uint256"
          },
          {
            "astId": 30105,
            "contract": "contracts/L2/vaults/L2PublicSaleVault.sol:L2PublicSaleVault",
            "label": "saleTokenPrice",
            "offset": 0,
            "slot": "2",
            "type": "t_uint256"
          },
          {
            "astId": 30107,
            "contract": "contracts/L2/vaults/L2PublicSaleVault.sol:L2PublicSaleVault",
            "label": "tonPrice",
            "offset": 0,
            "slot": "3",
            "type": "t_uint256"
          },
          {
            "astId": 30109,
            "contract": "contracts/L2/vaults/L2PublicSaleVault.sol:L2PublicSaleVault",
            "label": "hardCap",
            "offset": 0,
            "slot": "4",
            "type": "t_uint256"
          },
          {
            "astId": 30111,
            "contract": "contracts/L2/vaults/L2PublicSaleVault.sol:L2PublicSaleVault",
            "label": "changeTOS",
            "offset": 0,
            "slot": "5",
            "type": "t_uint256"
          },
          {
            "astId": 30113,
            "contract": "contracts/L2/vaults/L2PublicSaleVault.sol:L2PublicSaleVault",
            "label": "remainTON",
            "offset": 0,
            "slot": "6",
            "type": "t_uint256"
          },
          {
            "astId": 30115,
            "contract": "contracts/L2/vaults/L2PublicSaleVault.sol:L2PublicSaleVault",
            "label": "changeTick",
            "offset": 0,
            "slot": "7",
            "type": "t_int24"
          },
          {
            "astId": 30117,
            "contract": "contracts/L2/vaults/L2PublicSaleVault.sol:L2PublicSaleVault",
            "label": "exchangeTOS",
            "offset": 3,
            "slot": "7",
            "type": "t_bool"
          },
          {
            "astId": 30119,
            "contract": "contracts/L2/vaults/L2PublicSaleVault.sol:L2PublicSaleVault",
            "label": "adminWithdraw",
            "offset": 4,
            "slot": "7",
            "type": "t_bool"
          }
        ],
        "numberOfBytes": "256"
      },
      "t_struct(TokenTimeManage)30099_storage": {
        "encoding": "inplace",
        "label": "struct LibPublicSaleVault.TokenTimeManage",
        "members": [
          {
            "astId": 30084,
            "contract": "contracts/L2/vaults/L2PublicSaleVault.sol:L2PublicSaleVault",
            "label": "deployTime",
            "offset": 0,
            "slot": "0",
            "type": "t_uint256"
          },
          {
            "astId": 30086,
            "contract": "contracts/L2/vaults/L2PublicSaleVault.sol:L2PublicSaleVault",
            "label": "snapshot",
            "offset": 0,
            "slot": "1",
            "type": "t_uint256"
          },
          {
            "astId": 30088,
            "contract": "contracts/L2/vaults/L2PublicSaleVault.sol:L2PublicSaleVault",
            "label": "whiteListStartTime",
            "offset": 0,
            "slot": "2",
            "type": "t_uint256"
          },
          {
            "astId": 30090,
            "contract": "contracts/L2/vaults/L2PublicSaleVault.sol:L2PublicSaleVault",
            "label": "whiteListEndTime",
            "offset": 0,
            "slot": "3",
            "type": "t_uint256"
          },
          {
            "astId": 30092,
            "contract": "contracts/L2/vaults/L2PublicSaleVault.sol:L2PublicSaleVault",
            "label": "round1StartTime",
            "offset": 0,
            "slot": "4",
            "type": "t_uint256"
          },
          {
            "astId": 30094,
            "contract": "contracts/L2/vaults/L2PublicSaleVault.sol:L2PublicSaleVault",
            "label": "round1EndTime",
            "offset": 0,
            "slot": "5",
            "type": "t_uint256"
          },
          {
            "astId": 30096,
            "contract": "contracts/L2/vaults/L2PublicSaleVault.sol:L2PublicSaleVault",
            "label": "round2StartTime",
            "offset": 0,
            "slot": "6",
            "type": "t_uint256"
          },
          {
            "astId": 30098,
            "contract": "contracts/L2/vaults/L2PublicSaleVault.sol:L2PublicSaleVault",
            "label": "round2EndTime",
            "offset": 0,
            "slot": "7",
            "type": "t_uint256"
          }
        ],
        "numberOfBytes": "256"
      },
      "t_struct(UserClaim)30167_storage": {
        "encoding": "inplace",
        "label": "struct LibPublicSaleVault.UserClaim",
        "members": [
          {
            "astId": 30160,
            "contract": "contracts/L2/vaults/L2PublicSaleVault.sol:L2PublicSaleVault",
            "label": "refund",
            "offset": 0,
            "slot": "0",
            "type": "t_bool"
          },
          {
            "astId": 30162,
            "contract": "contracts/L2/vaults/L2PublicSaleVault.sol:L2PublicSaleVault",
            "label": "claimAmount",
            "offset": 0,
            "slot": "1",
            "type": "t_uint256"
          },
          {
            "astId": 30164,
            "contract": "contracts/L2/vaults/L2PublicSaleVault.sol:L2PublicSaleVault",
            "label": "refundAmount",
            "offset": 0,
            "slot": "2",
            "type": "t_uint256"
          },
          {
            "astId": 30166,
            "contract": "contracts/L2/vaults/L2PublicSaleVault.sol:L2PublicSaleVault",
            "label": "latestClaimedRound",
            "offset": 0,
            "slot": "3",
            "type": "t_uint256"
          }
        ],
        "numberOfBytes": "128"
      },
      "t_struct(UserInfo1rd)30153_storage": {
        "encoding": "inplace",
        "label": "struct LibPublicSaleVault.UserInfo1rd",
        "members": [
          {
            "astId": 30146,
            "contract": "contracts/L2/vaults/L2PublicSaleVault.sol:L2PublicSaleVault",
            "label": "join",
            "offset": 0,
            "slot": "0",
            "type": "t_bool"
          },
          {
            "astId": 30148,
            "contract": "contracts/L2/vaults/L2PublicSaleVault.sol:L2PublicSaleVault",
            "label": "tier",
            "offset": 1,
            "slot": "0",
            "type": "t_uint8"
          },
          {
            "astId": 30150,
            "contract": "contracts/L2/vaults/L2PublicSaleVault.sol:L2PublicSaleVault",
            "label": "payAmount",
            "offset": 0,
            "slot": "1",
            "type": "t_uint256"
          },
          {
            "astId": 30152,
            "contract": "contracts/L2/vaults/L2PublicSaleVault.sol:L2PublicSaleVault",
            "label": "saleAmount",
            "offset": 0,
            "slot": "2",
            "type": "t_uint256"
          }
        ],
        "numberOfBytes": "96"
      },
      "t_struct(UserInfo2rd)30158_storage": {
        "encoding": "inplace",
        "label": "struct LibPublicSaleVault.UserInfo2rd",
        "members": [
          {
            "astId": 30155,
            "contract": "contracts/L2/vaults/L2PublicSaleVault.sol:L2PublicSaleVault",
            "label": "join",
            "offset": 0,
            "slot": "0",
            "type": "t_bool"
          },
          {
            "astId": 30157,
            "contract": "contracts/L2/vaults/L2PublicSaleVault.sol:L2PublicSaleVault",
            "label": "depositAmount",
            "offset": 0,
            "slot": "1",
            "type": "t_uint256"
          }
        ],
        "numberOfBytes": "64"
      },
      "t_uint256": {
        "encoding": "inplace",
        "label": "uint256",
        "numberOfBytes": "32"
      },
      "t_uint8": {
        "encoding": "inplace",
        "label": "uint8",
        "numberOfBytes": "1"
      }
    }
  }
}