{
  "_format": "hh-sol-artifact-1",
  "contractName": "LockTOSv2",
  "sourceName": "contracts/stos/LockTOSv2.sol",
  "abi": [
    {
      "inputs": [
        {
          "internalType": "string",
          "name": "_name",
          "type": "string"
        },
        {
          "internalType": "string",
          "name": "_symbol",
          "type": "string"
        }
      ],
      "stateMutability": "nonpayable",
      "type": "constructor"
    },
    {
      "anonymous": false,
      "inputs": [
        {
          "indexed": true,
          "internalType": "address",
          "name": "owner",
          "type": "address"
        },
        {
          "indexed": true,
          "internalType": "address",
          "name": "approved",
          "type": "address"
        },
        {
          "indexed": true,
          "internalType": "uint256",
          "name": "tokenId",
          "type": "uint256"
        }
      ],
      "name": "Approval",
      "type": "event"
    },
    {
      "anonymous": false,
      "inputs": [
        {
          "indexed": true,
          "internalType": "address",
          "name": "owner",
          "type": "address"
        },
        {
          "indexed": true,
          "internalType": "address",
          "name": "operator",
          "type": "address"
        },
        {
          "indexed": false,
          "internalType": "bool",
          "name": "approved",
          "type": "bool"
        }
      ],
      "name": "ApprovalForAll",
      "type": "event"
    },
    {
      "anonymous": false,
      "inputs": [
        {
          "indexed": false,
          "internalType": "address",
          "name": "caller",
          "type": "address"
        },
        {
          "indexed": false,
          "internalType": "address",
          "name": "account",
          "type": "address"
        },
        {
          "indexed": false,
          "internalType": "uint256",
          "name": "amount",
          "type": "uint256"
        }
      ],
      "name": "DecreasedUnlimitedLock",
      "type": "event"
    },
    {
      "anonymous": false,
      "inputs": [
        {
          "indexed": false,
          "internalType": "address",
          "name": "caller",
          "type": "address"
        },
        {
          "indexed": false,
          "internalType": "address",
          "name": "account",
          "type": "address"
        },
        {
          "indexed": false,
          "internalType": "uint256",
          "name": "amount",
          "type": "uint256"
        }
      ],
      "name": "IncreasedUnlimitedLock",
      "type": "event"
    },
    {
      "anonymous": false,
      "inputs": [
        {
          "indexed": false,
          "internalType": "address",
          "name": "account",
          "type": "address"
        },
        {
          "indexed": false,
          "internalType": "uint256",
          "name": "lockId",
          "type": "uint256"
        },
        {
          "indexed": false,
          "internalType": "uint256",
          "name": "value",
          "type": "uint256"
        }
      ],
      "name": "LockAmountIncreased",
      "type": "event"
    },
    {
      "anonymous": false,
      "inputs": [
        {
          "indexed": false,
          "internalType": "address",
          "name": "account",
          "type": "address"
        },
        {
          "indexed": false,
          "internalType": "uint256",
          "name": "lockId",
          "type": "uint256"
        },
        {
          "indexed": false,
          "internalType": "uint256",
          "name": "value",
          "type": "uint256"
        },
        {
          "indexed": false,
          "internalType": "uint256",
          "name": "unlockTime",
          "type": "uint256"
        }
      ],
      "name": "LockCreated",
      "type": "event"
    },
    {
      "anonymous": false,
      "inputs": [
        {
          "indexed": false,
          "internalType": "address",
          "name": "account",
          "type": "address"
        },
        {
          "indexed": false,
          "internalType": "uint256",
          "name": "lockId",
          "type": "uint256"
        },
        {
          "indexed": false,
          "internalType": "uint256",
          "name": "value",
          "type": "uint256"
        }
      ],
      "name": "LockDeposited",
      "type": "event"
    },
    {
      "anonymous": false,
      "inputs": [
        {
          "indexed": false,
          "internalType": "address",
          "name": "account",
          "type": "address"
        },
        {
          "indexed": false,
          "internalType": "uint256",
          "name": "lockId",
          "type": "uint256"
        },
        {
          "indexed": false,
          "internalType": "uint256",
          "name": "value",
          "type": "uint256"
        },
        {
          "indexed": false,
          "internalType": "uint256",
          "name": "unlockTime",
          "type": "uint256"
        }
      ],
      "name": "LockIncreased",
      "type": "event"
    },
    {
      "anonymous": false,
      "inputs": [
        {
          "indexed": false,
          "internalType": "address",
          "name": "account",
          "type": "address"
        },
        {
          "indexed": false,
          "internalType": "uint256",
          "name": "lockId",
          "type": "uint256"
        },
        {
          "indexed": false,
          "internalType": "uint256",
          "name": "unlockTime",
          "type": "uint256"
        }
      ],
      "name": "LockUnlockTimeIncreased",
      "type": "event"
    },
    {
      "anonymous": false,
      "inputs": [
        {
          "indexed": false,
          "internalType": "address",
          "name": "account",
          "type": "address"
        },
        {
          "indexed": false,
          "internalType": "uint256",
          "name": "lockId",
          "type": "uint256"
        },
        {
          "indexed": false,
          "internalType": "uint256",
          "name": "value",
          "type": "uint256"
        }
      ],
      "name": "LockWithdrawn",
      "type": "event"
    },
    {
      "anonymous": false,
      "inputs": [
        {
          "indexed": true,
          "internalType": "bytes32",
          "name": "role",
          "type": "bytes32"
        },
        {
          "indexed": true,
          "internalType": "bytes32",
          "name": "previousAdminRole",
          "type": "bytes32"
        },
        {
          "indexed": true,
          "internalType": "bytes32",
          "name": "newAdminRole",
          "type": "bytes32"
        }
      ],
      "name": "RoleAdminChanged",
      "type": "event"
    },
    {
      "anonymous": false,
      "inputs": [
        {
          "indexed": true,
          "internalType": "bytes32",
          "name": "role",
          "type": "bytes32"
        },
        {
          "indexed": true,
          "internalType": "address",
          "name": "account",
          "type": "address"
        },
        {
          "indexed": true,
          "internalType": "address",
          "name": "sender",
          "type": "address"
        }
      ],
      "name": "RoleGranted",
      "type": "event"
    },
    {
      "anonymous": false,
      "inputs": [
        {
          "indexed": true,
          "internalType": "bytes32",
          "name": "role",
          "type": "bytes32"
        },
        {
          "indexed": true,
          "internalType": "address",
          "name": "account",
          "type": "address"
        },
        {
          "indexed": true,
          "internalType": "address",
          "name": "sender",
          "type": "address"
        }
      ],
      "name": "RoleRevoked",
      "type": "event"
    },
    {
      "anonymous": false,
      "inputs": [
        {
          "indexed": true,
          "internalType": "address",
          "name": "from",
          "type": "address"
        },
        {
          "indexed": true,
          "internalType": "address",
          "name": "to",
          "type": "address"
        },
        {
          "indexed": true,
          "internalType": "uint256",
          "name": "tokenId",
          "type": "uint256"
        }
      ],
      "name": "Transfer",
      "type": "event"
    },
    {
      "anonymous": false,
      "inputs": [
        {
          "indexed": false,
          "internalType": "address",
          "name": "from",
          "type": "address"
        },
        {
          "indexed": false,
          "internalType": "address",
          "name": "to",
          "type": "address"
        },
        {
          "indexed": false,
          "internalType": "uint256",
          "name": "amount",
          "type": "uint256"
        }
      ],
      "name": "TransferUnlimitedLock",
      "type": "event"
    },
    {
      "inputs": [],
      "name": "ADMIN_ROLE",
      "outputs": [
        {
          "internalType": "bytes32",
          "name": "",
          "type": "bytes32"
        }
      ],
      "stateMutability": "view",
      "type": "function"
    },
    {
      "inputs": [],
      "name": "DEFAULT_ADMIN_ROLE",
      "outputs": [
        {
          "internalType": "bytes32",
          "name": "",
          "type": "bytes32"
        }
      ],
      "stateMutability": "view",
      "type": "function"
    },
    {
      "inputs": [],
      "name": "MULTIPLIER",
      "outputs": [
        {
          "internalType": "uint256",
          "name": "",
          "type": "uint256"
        }
      ],
      "stateMutability": "view",
      "type": "function"
    },
    {
      "inputs": [],
      "name": "POLICY_ROLE",
      "outputs": [
        {
          "internalType": "bytes32",
          "name": "",
          "type": "bytes32"
        }
      ],
      "stateMutability": "view",
      "type": "function"
    },
    {
      "inputs": [
        {
          "internalType": "uint256",
          "name": "_timestamp",
          "type": "uint256"
        }
      ],
      "name": "_findClosestUnlimitedTimeindex",
      "outputs": [
        {
          "internalType": "bool",
          "name": "success",
          "type": "bool"
        },
        {
          "internalType": "uint256",
          "name": "timeindex",
          "type": "uint256"
        }
      ],
      "stateMutability": "view",
      "type": "function"
    },
    {
      "inputs": [
        {
          "internalType": "address",
          "name": "",
          "type": "address"
        },
        {
          "internalType": "address",
          "name": "",
          "type": "address"
        }
      ],
      "name": "_operatorApprovals",
      "outputs": [
        {
          "internalType": "bool",
          "name": "",
          "type": "bool"
        }
      ],
      "stateMutability": "view",
      "type": "function"
    },
    {
      "inputs": [
        {
          "internalType": "uint256",
          "name": "",
          "type": "uint256"
        }
      ],
      "name": "_tokenApprovals",
      "outputs": [
        {
          "internalType": "address",
          "name": "",
          "type": "address"
        }
      ],
      "stateMutability": "view",
      "type": "function"
    },
    {
      "inputs": [
        {
          "internalType": "address",
          "name": "account",
          "type": "address"
        }
      ],
      "name": "addAdmin",
      "outputs": [],
      "stateMutability": "nonpayable",
      "type": "function"
    },
    {
      "inputs": [
        {
          "internalType": "uint256",
          "name": "",
          "type": "uint256"
        }
      ],
      "name": "allLocks",
      "outputs": [
        {
          "internalType": "address",
          "name": "owner",
          "type": "address"
        },
        {
          "internalType": "uint256",
          "name": "start",
          "type": "uint256"
        },
        {
          "internalType": "uint256",
          "name": "end",
          "type": "uint256"
        },
        {
          "internalType": "uint256",
          "name": "amount",
          "type": "uint256"
        },
        {
          "internalType": "uint256",
          "name": "withdrawalTime",
          "type": "uint256"
        }
      ],
      "stateMutability": "view",
      "type": "function"
    },
    {
      "inputs": [
        {
          "internalType": "address",
          "name": "to",
          "type": "address"
        },
        {
          "internalType": "uint256",
          "name": "tokenId",
          "type": "uint256"
        }
      ],
      "name": "approve",
      "outputs": [],
      "stateMutability": "nonpayable",
      "type": "function"
    },
    {
      "inputs": [
        {
          "internalType": "address",
          "name": "_addr",
          "type": "address"
        }
      ],
      "name": "balanceOf",
      "outputs": [
        {
          "internalType": "uint256",
          "name": "balance",
          "type": "uint256"
        }
      ],
      "stateMutability": "view",
      "type": "function"
    },
    {
      "inputs": [
        {
          "internalType": "address",
          "name": "_addr",
          "type": "address"
        }
      ],
      "name": "balanceOfLock",
      "outputs": [
        {
          "internalType": "uint256",
          "name": "balance",
          "type": "uint256"
        }
      ],
      "stateMutability": "view",
      "type": "function"
    },
    {
      "inputs": [
        {
          "internalType": "uint256",
          "name": "_lockId",
          "type": "uint256"
        }
      ],
      "name": "balanceOfLock",
      "outputs": [
        {
          "internalType": "uint256",
          "name": "",
          "type": "uint256"
        }
      ],
      "stateMutability": "view",
      "type": "function"
    },
    {
      "inputs": [
        {
          "internalType": "address",
          "name": "_addr",
          "type": "address"
        },
        {
          "internalType": "uint256",
          "name": "_timestamp",
          "type": "uint256"
        }
      ],
      "name": "balanceOfLockAt",
      "outputs": [
        {
          "internalType": "uint256",
          "name": "balance",
          "type": "uint256"
        }
      ],
      "stateMutability": "view",
      "type": "function"
    },
    {
      "inputs": [
        {
          "internalType": "uint256",
          "name": "_lockId",
          "type": "uint256"
        },
        {
          "internalType": "uint256",
          "name": "_timestamp",
          "type": "uint256"
        }
      ],
      "name": "balanceOfLockAt",
      "outputs": [
        {
          "internalType": "uint256",
          "name": "",
          "type": "uint256"
        }
      ],
      "stateMutability": "view",
      "type": "function"
    },
    {
      "inputs": [
        {
          "internalType": "address",
          "name": "_addr",
          "type": "address"
        }
      ],
      "name": "balanceOfStos",
      "outputs": [
        {
          "internalType": "uint256",
          "name": "balance",
          "type": "uint256"
        }
      ],
      "stateMutability": "view",
      "type": "function"
    },
    {
      "inputs": [
        {
          "internalType": "address",
          "name": "_addr",
          "type": "address"
        },
        {
          "internalType": "uint256",
          "name": "_timestamp",
          "type": "uint256"
        }
      ],
      "name": "balanceOfStosAt",
      "outputs": [
        {
          "internalType": "uint256",
          "name": "balance",
          "type": "uint256"
        }
      ],
      "stateMutability": "view",
      "type": "function"
    },
    {
      "inputs": [
        {
          "internalType": "address",
          "name": "_addr",
          "type": "address"
        }
      ],
      "name": "balanceOfUnlimited",
      "outputs": [
        {
          "internalType": "uint256",
          "name": "balance",
          "type": "uint256"
        }
      ],
      "stateMutability": "view",
      "type": "function"
    },
    {
      "inputs": [
        {
          "internalType": "address",
          "name": "_addr",
          "type": "address"
        }
      ],
      "name": "balanceOfUnlimitedAmount",
      "outputs": [
        {
          "internalType": "uint256",
          "name": "amount",
          "type": "uint256"
        }
      ],
      "stateMutability": "view",
      "type": "function"
    },
    {
      "inputs": [
        {
          "internalType": "address",
          "name": "_addr",
          "type": "address"
        },
        {
          "internalType": "uint256",
          "name": "_timestamp",
          "type": "uint256"
        }
      ],
      "name": "balanceOfUnlimitedAt",
      "outputs": [
        {
          "internalType": "uint256",
          "name": "balance",
          "type": "uint256"
        }
      ],
      "stateMutability": "view",
      "type": "function"
    },
    {
      "inputs": [
        {
          "components": [
            {
              "internalType": "uint32",
              "name": "timestamp",
              "type": "uint32"
            },
            {
              "internalType": "uint256",
              "name": "amount",
              "type": "uint256"
            }
          ],
          "internalType": "struct LibLockTOSv2.UnlimitedAmount",
          "name": "point",
          "type": "tuple"
        },
        {
          "internalType": "uint256",
          "name": "timestamp",
          "type": "uint256"
        }
      ],
      "name": "balanceOfUnlimitedAt",
      "outputs": [
        {
          "internalType": "uint256",
          "name": "",
          "type": "uint256"
        }
      ],
      "stateMutability": "view",
      "type": "function"
    },
    {
      "inputs": [],
      "name": "baseURI",
      "outputs": [
        {
          "internalType": "string",
          "name": "",
          "type": "string"
        }
      ],
      "stateMutability": "view",
      "type": "function"
    },
    {
      "inputs": [
        {
          "internalType": "uint256",
          "name": "_value",
          "type": "uint256"
        },
        {
          "internalType": "uint256",
          "name": "_unlockWeeks",
          "type": "uint256"
        }
      ],
      "name": "createLock",
      "outputs": [
        {
          "internalType": "uint256",
          "name": "lockId",
          "type": "uint256"
        }
      ],
      "stateMutability": "nonpayable",
      "type": "function"
    },
    {
      "inputs": [],
      "name": "cumulativeEpochUnit",
      "outputs": [
        {
          "internalType": "uint256",
          "name": "",
          "type": "uint256"
        }
      ],
      "stateMutability": "view",
      "type": "function"
    },
    {
      "inputs": [],
      "name": "cumulativeTOSAmount",
      "outputs": [
        {
          "internalType": "uint256",
          "name": "",
          "type": "uint256"
        }
      ],
      "stateMutability": "view",
      "type": "function"
    },
    {
      "inputs": [
        {
          "internalType": "address",
          "name": "account",
          "type": "address"
        },
        {
          "internalType": "uint256",
          "name": "amount",
          "type": "uint256"
        }
      ],
      "name": "decreaseUnlimitedLock",
      "outputs": [],
      "stateMutability": "nonpayable",
      "type": "function"
    },
    {
      "inputs": [
        {
          "internalType": "address",
          "name": "_addr",
          "type": "address"
        },
        {
          "internalType": "uint256",
          "name": "_lockId",
          "type": "uint256"
        },
        {
          "internalType": "uint256",
          "name": "_value",
          "type": "uint256"
        }
      ],
      "name": "depositFor",
      "outputs": [],
      "stateMutability": "nonpayable",
      "type": "function"
    },
    {
      "inputs": [],
      "name": "epochUnit",
      "outputs": [
        {
          "internalType": "uint256",
          "name": "",
          "type": "uint256"
        }
      ],
      "stateMutability": "view",
      "type": "function"
    },
    {
      "inputs": [
        {
          "internalType": "uint256",
          "name": "tokenId",
          "type": "uint256"
        }
      ],
      "name": "getApproved",
      "outputs": [
        {
          "internalType": "address",
          "name": "",
          "type": "address"
        }
      ],
      "stateMutability": "view",
      "type": "function"
    },
    {
      "inputs": [],
      "name": "getCurrentTime",
      "outputs": [
        {
          "internalType": "uint256",
          "name": "",
          "type": "uint256"
        }
      ],
      "stateMutability": "view",
      "type": "function"
    },
    {
      "inputs": [
        {
          "internalType": "bytes32",
          "name": "role",
          "type": "bytes32"
        }
      ],
      "name": "getRoleAdmin",
      "outputs": [
        {
          "internalType": "bytes32",
          "name": "",
          "type": "bytes32"
        }
      ],
      "stateMutability": "view",
      "type": "function"
    },
    {
      "inputs": [],
      "name": "globalCheckpoint",
      "outputs": [],
      "stateMutability": "nonpayable",
      "type": "function"
    },
    {
      "inputs": [
        {
          "internalType": "bytes32",
          "name": "role",
          "type": "bytes32"
        },
        {
          "internalType": "address",
          "name": "account",
          "type": "address"
        }
      ],
      "name": "grantRole",
      "outputs": [],
      "stateMutability": "nonpayable",
      "type": "function"
    },
    {
      "inputs": [
        {
          "internalType": "bytes32",
          "name": "role",
          "type": "bytes32"
        },
        {
          "internalType": "address",
          "name": "account",
          "type": "address"
        }
      ],
      "name": "hasRole",
      "outputs": [
        {
          "internalType": "bool",
          "name": "",
          "type": "bool"
        }
      ],
      "stateMutability": "view",
      "type": "function"
    },
    {
      "inputs": [
        {
          "internalType": "uint256",
          "name": "",
          "type": "uint256"
        }
      ],
      "name": "inUse",
      "outputs": [
        {
          "internalType": "bool",
          "name": "",
          "type": "bool"
        }
      ],
      "stateMutability": "view",
      "type": "function"
    },
    {
      "inputs": [
        {
          "internalType": "uint256",
          "name": "_lockId",
          "type": "uint256"
        },
        {
          "internalType": "uint256",
          "name": "_value",
          "type": "uint256"
        }
      ],
      "name": "increaseAmount",
      "outputs": [],
      "stateMutability": "nonpayable",
      "type": "function"
    },
    {
      "inputs": [
        {
          "internalType": "address",
          "name": "_addr",
          "type": "address"
        },
        {
          "internalType": "uint256",
          "name": "_lockId",
          "type": "uint256"
        },
        {
          "internalType": "uint256",
          "name": "_value",
          "type": "uint256"
        },
        {
          "internalType": "uint256",
          "name": "_unlockWeeks",
          "type": "uint256"
        }
      ],
      "name": "increaseLock",
      "outputs": [],
      "stateMutability": "nonpayable",
      "type": "function"
    },
    {
      "inputs": [
        {
          "internalType": "address",
          "name": "account",
          "type": "address"
        },
        {
          "internalType": "uint256",
          "name": "amount",
          "type": "uint256"
        }
      ],
      "name": "increaseUnlimitedLock",
      "outputs": [],
      "stateMutability": "nonpayable",
      "type": "function"
    },
    {
      "inputs": [
        {
          "internalType": "uint256",
          "name": "_lockId",
          "type": "uint256"
        },
        {
          "internalType": "uint256",
          "name": "_unlockWeeks",
          "type": "uint256"
        }
      ],
      "name": "increaseUnlockTime",
      "outputs": [],
      "stateMutability": "nonpayable",
      "type": "function"
    },
    {
      "inputs": [
        {
          "internalType": "uint256",
          "name": "",
          "type": "uint256"
        }
      ],
      "name": "indexCheckOfTimesetForUnlimited",
      "outputs": [
        {
          "internalType": "bool",
          "name": "",
          "type": "bool"
        }
      ],
      "stateMutability": "view",
      "type": "function"
    },
    {
      "inputs": [
        {
          "internalType": "uint256",
          "name": "",
          "type": "uint256"
        }
      ],
      "name": "indexOfTimesetForUnlimited",
      "outputs": [
        {
          "internalType": "uint256",
          "name": "",
          "type": "uint256"
        }
      ],
      "stateMutability": "view",
      "type": "function"
    },
    {
      "inputs": [
        {
          "internalType": "address",
          "name": "_tos",
          "type": "address"
        },
        {
          "internalType": "uint256",
          "name": "_epochUnit",
          "type": "uint256"
        },
        {
          "internalType": "uint256",
          "name": "_maxTime",
          "type": "uint256"
        }
      ],
      "name": "initialize",
      "outputs": [],
      "stateMutability": "nonpayable",
      "type": "function"
    },
    {
      "inputs": [
        {
          "internalType": "address",
          "name": "account",
          "type": "address"
        }
      ],
      "name": "isAdmin",
      "outputs": [
        {
          "internalType": "bool",
          "name": "",
          "type": "bool"
        }
      ],
      "stateMutability": "view",
      "type": "function"
    },
    {
      "inputs": [
        {
          "internalType": "address",
          "name": "owner_",
          "type": "address"
        },
        {
          "internalType": "address",
          "name": "operator",
          "type": "address"
        }
      ],
      "name": "isApprovedForAll",
      "outputs": [
        {
          "internalType": "bool",
          "name": "",
          "type": "bool"
        }
      ],
      "stateMutability": "view",
      "type": "function"
    },
    {
      "inputs": [
        {
          "internalType": "uint256",
          "name": "_index",
          "type": "uint256"
        }
      ],
      "name": "lastPointOfTimeIndexForUnlimited",
      "outputs": [
        {
          "components": [
            {
              "internalType": "uint32",
              "name": "timestamp",
              "type": "uint32"
            },
            {
              "internalType": "uint256",
              "name": "amount",
              "type": "uint256"
            }
          ],
          "internalType": "struct LibLockTOSv2.UnlimitedAmount",
          "name": "",
          "type": "tuple"
        }
      ],
      "stateMutability": "view",
      "type": "function"
    },
    {
      "inputs": [],
      "name": "lockIdCounter",
      "outputs": [
        {
          "internalType": "uint256",
          "name": "",
          "type": "uint256"
        }
      ],
      "stateMutability": "view",
      "type": "function"
    },
    {
      "inputs": [
        {
          "internalType": "uint256",
          "name": "",
          "type": "uint256"
        },
        {
          "internalType": "uint256",
          "name": "",
          "type": "uint256"
        }
      ],
      "name": "lockPointHistory",
      "outputs": [
        {
          "internalType": "int256",
          "name": "bias",
          "type": "int256"
        },
        {
          "internalType": "int256",
          "name": "slope",
          "type": "int256"
        },
        {
          "internalType": "uint256",
          "name": "timestamp",
          "type": "uint256"
        }
      ],
      "stateMutability": "view",
      "type": "function"
    },
    {
      "inputs": [
        {
          "internalType": "uint256",
          "name": "_lockId",
          "type": "uint256"
        }
      ],
      "name": "locksInfo",
      "outputs": [
        {
          "components": [
            {
              "internalType": "address",
              "name": "owner",
              "type": "address"
            },
            {
              "internalType": "uint256",
              "name": "start",
              "type": "uint256"
            },
            {
              "internalType": "uint256",
              "name": "end",
              "type": "uint256"
            },
            {
              "internalType": "uint256",
              "name": "amount",
              "type": "uint256"
            },
            {
              "internalType": "uint256",
              "name": "withdrawalTime",
              "type": "uint256"
            }
          ],
          "internalType": "struct LibLockTOSv2.LockedBalance",
          "name": "",
          "type": "tuple"
        }
      ],
      "stateMutability": "view",
      "type": "function"
    },
    {
      "inputs": [
        {
          "internalType": "address",
          "name": "_addr",
          "type": "address"
        }
      ],
      "name": "locksOf",
      "outputs": [
        {
          "internalType": "uint256[]",
          "name": "",
          "type": "uint256[]"
        }
      ],
      "stateMutability": "view",
      "type": "function"
    },
    {
      "inputs": [],
      "name": "maxTime",
      "outputs": [
        {
          "internalType": "uint256",
          "name": "",
          "type": "uint256"
        }
      ],
      "stateMutability": "view",
      "type": "function"
    },
    {
      "inputs": [],
      "name": "name",
      "outputs": [
        {
          "internalType": "string",
          "name": "",
          "type": "string"
        }
      ],
      "stateMutability": "view",
      "type": "function"
    },
    {
      "inputs": [],
      "name": "needCheckpoint",
      "outputs": [
        {
          "internalType": "bool",
          "name": "need",
          "type": "bool"
        }
      ],
      "stateMutability": "view",
      "type": "function"
    },
    {
      "inputs": [
        {
          "internalType": "uint256",
          "name": "_stime",
          "type": "uint256"
        }
      ],
      "name": "nextTimeIndex",
      "outputs": [
        {
          "internalType": "uint256",
          "name": "",
          "type": "uint256"
        }
      ],
      "stateMutability": "view",
      "type": "function"
    },
    {
      "inputs": [
        {
          "internalType": "uint256",
          "name": "tokenId",
          "type": "uint256"
        }
      ],
      "name": "ownerOf",
      "outputs": [
        {
          "internalType": "address",
          "name": "",
          "type": "address"
        }
      ],
      "stateMutability": "view",
      "type": "function"
    },
    {
      "inputs": [],
      "name": "pauseProxy",
      "outputs": [
        {
          "internalType": "bool",
          "name": "",
          "type": "bool"
        }
      ],
      "stateMutability": "view",
      "type": "function"
    },
    {
      "inputs": [
        {
          "internalType": "uint256",
          "name": "",
          "type": "uint256"
        }
      ],
      "name": "pointHistory",
      "outputs": [
        {
          "internalType": "int256",
          "name": "bias",
          "type": "int256"
        },
        {
          "internalType": "int256",
          "name": "slope",
          "type": "int256"
        },
        {
          "internalType": "uint256",
          "name": "timestamp",
          "type": "uint256"
        }
      ],
      "stateMutability": "view",
      "type": "function"
    },
    {
      "inputs": [
        {
          "internalType": "uint256",
          "name": "_lockId",
          "type": "uint256"
        }
      ],
      "name": "pointHistoryOf",
      "outputs": [
        {
          "components": [
            {
              "internalType": "int256",
              "name": "bias",
              "type": "int256"
            },
            {
              "internalType": "int256",
              "name": "slope",
              "type": "int256"
            },
            {
              "internalType": "uint256",
              "name": "timestamp",
              "type": "uint256"
            }
          ],
          "internalType": "struct LibLockTOSv2.Point[]",
          "name": "",
          "type": "tuple[]"
        }
      ],
      "stateMutability": "view",
      "type": "function"
    },
    {
      "inputs": [
        {
          "internalType": "address",
          "name": "account",
          "type": "address"
        }
      ],
      "name": "removeAdmin",
      "outputs": [],
      "stateMutability": "nonpayable",
      "type": "function"
    },
    {
      "inputs": [
        {
          "internalType": "bytes32",
          "name": "role",
          "type": "bytes32"
        },
        {
          "internalType": "address",
          "name": "account",
          "type": "address"
        }
      ],
      "name": "renounceRole",
      "outputs": [],
      "stateMutability": "nonpayable",
      "type": "function"
    },
    {
      "inputs": [
        {
          "internalType": "bytes32",
          "name": "role",
          "type": "bytes32"
        },
        {
          "internalType": "address",
          "name": "account",
          "type": "address"
        }
      ],
      "name": "revokeRole",
      "outputs": [],
      "stateMutability": "nonpayable",
      "type": "function"
    },
    {
      "inputs": [
        {
          "internalType": "address",
          "name": "from",
          "type": "address"
        },
        {
          "internalType": "address",
          "name": "to",
          "type": "address"
        },
        {
          "internalType": "uint256",
          "name": "tokenId",
          "type": "uint256"
        }
      ],
      "name": "safeTransferFrom",
      "outputs": [],
      "stateMutability": "nonpayable",
      "type": "function"
    },
    {
      "inputs": [
        {
          "internalType": "address",
          "name": "from",
          "type": "address"
        },
        {
          "internalType": "address",
          "name": "to",
          "type": "address"
        },
        {
          "internalType": "uint256",
          "name": "tokenId",
          "type": "uint256"
        },
        {
          "internalType": "bytes",
          "name": "_data",
          "type": "bytes"
        }
      ],
      "name": "safeTransferFrom",
      "outputs": [],
      "stateMutability": "nonpayable",
      "type": "function"
    },
    {
      "inputs": [
        {
          "internalType": "address",
          "name": "operator",
          "type": "address"
        },
        {
          "internalType": "bool",
          "name": "approved",
          "type": "bool"
        }
      ],
      "name": "setApprovalForAll",
      "outputs": [],
      "stateMutability": "nonpayable",
      "type": "function"
    },
    {
      "inputs": [
        {
          "internalType": "uint256",
          "name": "_maxTime",
          "type": "uint256"
        }
      ],
      "name": "setMaxTime",
      "outputs": [],
      "stateMutability": "nonpayable",
      "type": "function"
    },
    {
      "inputs": [
        {
          "internalType": "uint256",
          "name": "",
          "type": "uint256"
        }
      ],
      "name": "slopeChanges",
      "outputs": [
        {
          "internalType": "int256",
          "name": "",
          "type": "int256"
        }
      ],
      "stateMutability": "view",
      "type": "function"
    },
    {
      "inputs": [
        {
          "internalType": "bytes4",
          "name": "interfaceId",
          "type": "bytes4"
        }
      ],
      "name": "supportsInterface",
      "outputs": [
        {
          "internalType": "bool",
          "name": "",
          "type": "bool"
        }
      ],
      "stateMutability": "view",
      "type": "function"
    },
    {
      "inputs": [],
      "name": "symbol",
      "outputs": [
        {
          "internalType": "string",
          "name": "",
          "type": "string"
        }
      ],
      "stateMutability": "view",
      "type": "function"
    },
    {
      "inputs": [
        {
          "internalType": "uint256",
          "name": "tokenId",
          "type": "uint256"
        }
      ],
      "name": "tokenURI",
      "outputs": [
        {
          "internalType": "string",
          "name": "",
          "type": "string"
        }
      ],
      "stateMutability": "view",
      "type": "function"
    },
    {
      "inputs": [
        {
          "internalType": "uint256",
          "name": "",
          "type": "uint256"
        }
      ],
      "name": "tokenURIs",
      "outputs": [
        {
          "internalType": "string",
          "name": "",
          "type": "string"
        }
      ],
      "stateMutability": "view",
      "type": "function"
    },
    {
      "inputs": [],
      "name": "tos",
      "outputs": [
        {
          "internalType": "address",
          "name": "",
          "type": "address"
        }
      ],
      "stateMutability": "view",
      "type": "function"
    },
    {
      "inputs": [
        {
          "internalType": "address",
          "name": "_addr",
          "type": "address"
        }
      ],
      "name": "totalLockedAmountOf",
      "outputs": [
        {
          "internalType": "uint256",
          "name": "",
          "type": "uint256"
        }
      ],
      "stateMutability": "view",
      "type": "function"
    },
    {
      "inputs": [
        {
          "internalType": "address",
          "name": "_addr",
          "type": "address"
        }
      ],
      "name": "totalLockedAmountOfLock",
      "outputs": [
        {
          "internalType": "uint256",
          "name": "",
          "type": "uint256"
        }
      ],
      "stateMutability": "view",
      "type": "function"
    },
    {
      "inputs": [],
      "name": "totalSupply",
      "outputs": [
        {
          "internalType": "uint256",
          "name": "",
          "type": "uint256"
        }
      ],
      "stateMutability": "view",
      "type": "function"
    },
    {
      "inputs": [],
      "name": "totalSupplyBalance",
      "outputs": [
        {
          "internalType": "uint256",
          "name": "",
          "type": "uint256"
        }
      ],
      "stateMutability": "view",
      "type": "function"
    },
    {
      "inputs": [
        {
          "internalType": "uint256",
          "name": "_timestamp",
          "type": "uint256"
        }
      ],
      "name": "totalSupplyBalanceAt",
      "outputs": [
        {
          "internalType": "uint256",
          "name": "",
          "type": "uint256"
        }
      ],
      "stateMutability": "view",
      "type": "function"
    },
    {
      "inputs": [],
      "name": "totalSupplyStos",
      "outputs": [
        {
          "internalType": "uint256",
          "name": "",
          "type": "uint256"
        }
      ],
      "stateMutability": "view",
      "type": "function"
    },
    {
      "inputs": [
        {
          "internalType": "uint256",
          "name": "_timestamp",
          "type": "uint256"
        }
      ],
      "name": "totalSupplyStosAt",
      "outputs": [
        {
          "internalType": "uint256",
          "name": "",
          "type": "uint256"
        }
      ],
      "stateMutability": "view",
      "type": "function"
    },
    {
      "inputs": [],
      "name": "totalSupplyUnlimited",
      "outputs": [
        {
          "internalType": "uint256",
          "name": "amount",
          "type": "uint256"
        }
      ],
      "stateMutability": "view",
      "type": "function"
    },
    {
      "inputs": [
        {
          "internalType": "uint256",
          "name": "_timestamp",
          "type": "uint256"
        }
      ],
      "name": "totalSupplyUnlimitedAt",
      "outputs": [
        {
          "internalType": "uint256",
          "name": "amount",
          "type": "uint256"
        }
      ],
      "stateMutability": "view",
      "type": "function"
    },
    {
      "inputs": [
        {
          "internalType": "address",
          "name": "newAdmin",
          "type": "address"
        }
      ],
      "name": "transferAdmin",
      "outputs": [],
      "stateMutability": "nonpayable",
      "type": "function"
    },
    {
      "inputs": [
        {
          "internalType": "address",
          "name": "from",
          "type": "address"
        },
        {
          "internalType": "address",
          "name": "to",
          "type": "address"
        },
        {
          "internalType": "uint256",
          "name": "tokenId",
          "type": "uint256"
        }
      ],
      "name": "transferFrom",
      "outputs": [],
      "stateMutability": "nonpayable",
      "type": "function"
    },
    {
      "inputs": [
        {
          "internalType": "address",
          "name": "from",
          "type": "address"
        },
        {
          "internalType": "address",
          "name": "to",
          "type": "address"
        },
        {
          "internalType": "uint256",
          "name": "amount",
          "type": "uint256"
        }
      ],
      "name": "transferFromUnlimited",
      "outputs": [],
      "stateMutability": "nonpayable",
      "type": "function"
    },
    {
      "inputs": [
        {
          "internalType": "address",
          "name": "",
          "type": "address"
        },
        {
          "internalType": "uint256",
          "name": "",
          "type": "uint256"
        }
      ],
      "name": "unlimitedAmountByAccount",
      "outputs": [
        {
          "internalType": "uint32",
          "name": "timestamp",
          "type": "uint32"
        },
        {
          "internalType": "uint256",
          "name": "amount",
          "type": "uint256"
        }
      ],
      "stateMutability": "view",
      "type": "function"
    },
    {
      "inputs": [
        {
          "internalType": "uint256",
          "name": "",
          "type": "uint256"
        },
        {
          "internalType": "uint256",
          "name": "",
          "type": "uint256"
        }
      ],
      "name": "unlimitedHistoryByWeek",
      "outputs": [
        {
          "internalType": "uint32",
          "name": "timestamp",
          "type": "uint32"
        },
        {
          "internalType": "uint256",
          "name": "amount",
          "type": "uint256"
        }
      ],
      "stateMutability": "view",
      "type": "function"
    },
    {
      "inputs": [
        {
          "internalType": "address",
          "name": "",
          "type": "address"
        },
        {
          "internalType": "uint256",
          "name": "",
          "type": "uint256"
        }
      ],
      "name": "userLocks",
      "outputs": [
        {
          "internalType": "uint256",
          "name": "",
          "type": "uint256"
        }
      ],
      "stateMutability": "view",
      "type": "function"
    },
    {
      "inputs": [
        {
          "internalType": "address",
          "name": "",
          "type": "address"
        },
        {
          "internalType": "uint256",
          "name": "",
          "type": "uint256"
        }
      ],
      "name": "userLocksCheck",
      "outputs": [
        {
          "internalType": "bool",
          "name": "",
          "type": "bool"
        }
      ],
      "stateMutability": "view",
      "type": "function"
    },
    {
      "inputs": [
        {
          "internalType": "uint256",
          "name": "_lockId",
          "type": "uint256"
        }
      ],
      "name": "withdraw",
      "outputs": [],
      "stateMutability": "nonpayable",
      "type": "function"
    },
    {
      "inputs": [],
      "name": "withdrawAll",
      "outputs": [],
      "stateMutability": "nonpayable",
      "type": "function"
    },
    {
      "inputs": [
        {
          "internalType": "address",
          "name": "_addr",
          "type": "address"
        }
      ],
      "name": "withdrawableAmountOf",
      "outputs": [
        {
          "internalType": "uint256",
          "name": "",
          "type": "uint256"
        }
      ],
      "stateMutability": "view",
      "type": "function"
    },
    {
      "inputs": [
        {
          "internalType": "address",
          "name": "_addr",
          "type": "address"
        }
      ],
      "name": "withdrawableLocksOf",
      "outputs": [
        {
          "internalType": "uint256[]",
          "name": "",
          "type": "uint256[]"
        }
      ],
      "stateMutability": "view",
      "type": "function"
    }
  ],
  "bytecode": "0x608060405260016018553480156200001657600080fd5b506040516200621938038062006219833981016040819052620000399162000259565b62000054600080516020620061f98339815191528062000095565b6200006f600080516020620061f983398151915233620000e0565b60076200007d838262000352565b5060076200008c828262000352565b5050506200041e565b600082815260196020526040808220600101805490849055905190918391839186917fbd79b86ffe0ab8e8776151514217cd7cacd52c909f66475c3af44e129f0b00ff9190a4505050565b620000ec8282620000f0565b5050565b60008281526019602090815260408083206001600160a01b038516845290915290205460ff16620000ec5760008281526019602090815260408083206001600160a01b03851684529091529020805460ff19166001179055620001503390565b6001600160a01b0316816001600160a01b0316837f2f8788117e7eff1d82e926ec794901d17c78024a50270940304540a733656f0d60405160405180910390a45050565b634e487b7160e01b600052604160045260246000fd5b600082601f830112620001bc57600080fd5b81516001600160401b0380821115620001d957620001d962000194565b604051601f8301601f19908116603f0116810190828211818310171562000204576200020462000194565b816040528381526020925086838588010111156200022157600080fd5b600091505b8382101562000245578582018301518183018401529082019062000226565b600093810190920192909252949350505050565b600080604083850312156200026d57600080fd5b82516001600160401b03808211156200028557600080fd5b6200029386838701620001aa565b93506020850151915080821115620002aa57600080fd5b50620002b985828601620001aa565b9150509250929050565b600181811c90821680620002d857607f821691505b602082108103620002f957634e487b7160e01b600052602260045260246000fd5b50919050565b601f8211156200034d57600081815260208120601f850160051c81016020861015620003285750805b601f850160051c820191505b81811015620003495782815560010162000334565b5050505b505050565b81516001600160401b038111156200036e576200036e62000194565b62000386816200037f8454620002c3565b84620002ff565b602080601f831160018114620003be5760008415620003a55750858301515b600019600386901b1c1916600185901b17855562000349565b600085815260208120601f198616915b82811015620003ef57888601518255948401946001909101908401620003ce565b50858210156200040e5787850151600019600388901b60f8161c191681555b5050505050600190811b01905550565b615dcb806200042e6000396000f3fe608060405234801561001057600080fd5b50600436106105ee5760003560e01c8063872d01091161030e578063b83537dc116101a7578063cdc4717c116100f9578063e985e9c5116100a2578063f1e47d3d1161007c578063f1e47d3d14610e53578063f52a36f714610e66578063fd2dcecf14610e8657600080fd5b8063e985e9c514610dd6578063eb86b34214610e12578063edc3bc3f14610e2557600080fd5b8063db236909116100d3578063db23690914610d86578063dd38339414610d99578063e268b45a14610dac57600080fd5b8063cdc4717c14610d4d578063ce344e4c14610d60578063d547741f14610d7357600080fd5b8063c3f9ab581161015b578063c87b56dd11610135578063c87b56dd14610d1e578063c9250d5914610d31578063cd29ca0e14610d4457600080fd5b8063c3f9ab5814610cbb578063c5dc1e5f14610cdb578063c79acdda14610cfb57600080fd5b8063b88d4fde1161018c578063b88d4fde14610c67578063b94419e014610c7a578063b9f2679b14610c8d57600080fd5b8063b83537dc14610c41578063b8355a4b14610c5457600080fd5b80639d507b8b11610260578063ac3e9ccd11610214578063b2383e55116101ee578063b2383e5514610c12578063b52c05fe14610c25578063b534ad5614610c3857600080fd5b8063ac3e9ccd14610be3578063aecbab8814610bf6578063afae883e14610c0957600080fd5b8063a22cb46511610245578063a22cb46514610b94578063a7cc013614610ba7578063aa33fedb14610bd057600080fd5b80639d507b8b14610b79578063a217fddf14610b8c57600080fd5b806395d89b41116102c2578063993b6ef91161029c578063993b6ef914610af55780639c3aadc114610b085780639ce5630514610b1b57600080fd5b806395d89b4114610ad25780639636f8f114610ada57806398b777e714610ae257600080fd5b80638ad4c447116102f35780638ad4c44714610a735780638d31814d14610a8657806391d1485414610a9957600080fd5b8063872d010914610a3d57806389f395de14610a6057600080fd5b8063367b7b231161048b578063642cf649116103dd5780637267ad63116103865780637a1ac61e116103605780637a1ac61e14610a1a5780637f4f248114610a2d578063853828b614610a3557600080fd5b80637267ad63146109b157806375829def146109e057806375b238fc146109f357600080fd5b80636c8b703f116103b75780636c8b703f14610962578063704802751461097557806370a082311461098857600080fd5b8063642cf6491461093457806368cd5fca146109475780636c0360eb1461095a57600080fd5b80634ae5cc391161043f5780636352211e116104195780636352211e1461088557806363a8fd89146108ae57806363d5a3d9146108bb57600080fd5b80634ae5cc391461084c5780634cf5fbf51461085f5780635b3cbf501461087257600080fd5b806341668abe1161047057806341668abe1461081357806342842e0e1461082657806346ff84b91461083957600080fd5b8063367b7b23146107d25780633e47a4b11461080057600080fd5b80631ac40e6611610544578063248a9ca3116104f85780632e1a7d4d116104d25780632e1a7d4d146107995780632f2ff15d146107ac57806336568abe146107bf57600080fd5b8063248a9ca31461075d57806324d7806c1461078057806329cb924d1461079357600080fd5b80632298524611610529578063229852461461071a57806322e67e711461074157806323b872dd1461074a57600080fd5b80631ac40e66146106ff5780631d64d2cf1461070757600080fd5b8063095ea7b3116105a65780630dc4b551116105805780630dc4b551146106b05780631785f53c146106e457806318160ddd146106f757600080fd5b8063095ea7b31461068b57806309bd7861146106a05780630b7858ba146106a857600080fd5b806306fdde03116105d757806306fdde0314610638578063081812fc1461064d578063086c46f41461067857600080fd5b806301ffc9a7146105f3578063059f8b161461061b575b600080fd5b61060661060136600461570b565b610e8f565b60405190151581526020015b60405180910390f35b61062a670de0b6b3a764000081565b604051908152602001610612565b610640610ec6565b6040516106129190615759565b61066061065b36600461578c565b610f54565b6040516001600160a01b039091168152602001610612565b61062a6106863660046157c1565b610ff1565b61069e6106993660046157dc565b61100f565b005b61062a611136565b610606611192565b6106c36106be36600461578c565b6111ed565b60408051825163ffffffff1681526020928301519281019290925201610612565b61069e6106f23660046157c1565b61130f565b60045461062a565b61069e61139c565b61062a6107153660046157c1565b6113a4565b61062a7ffb5864e8ff833c3cb2d2d08505e82ff02a43554c74a35d4f5a64e8526127831181565b61062a60025481565b61069e610758366004615806565b61143f565b61062a61076b36600461578c565b60009081526019602052604090206001015490565b61060661078e3660046157c1565b6114b2565b4261062a565b61069e6107a736600461578c565b6114f2565b61069e6107ba366004615842565b6115a7565b61069e6107cd366004615842565b6115cc565b6107e56107e036600461586e565b611658565b60408051938452602084019290925290820152606001610612565b61062a61080e3660046157c1565b61169a565b61062a6108213660046157dc565b611761565b61069e610834366004615806565b61182b565b61069e6108473660046157dc565b611846565b61069e61085a3660046157dc565b611a46565b61069e61086d366004615890565b611b54565b61062a6108803660046157dc565b611da3565b61066061089336600461578c565b6000908152600e60205260409020546001600160a01b031690565b6000546106069060ff1681565b6109026108c936600461578c565b600e60205260009081526040902080546001820154600283015460038401546004909401546001600160a01b0390931693919290919085565b604080516001600160a01b0390961686526020860194909452928401919091526060830152608082015260a001610612565b61062a61094236600461586e565b611dee565b61062a6109553660046157dc565b611e7d565b610640611e9d565b61064061097036600461578c565b611eaa565b61069e6109833660046157c1565b611ec3565b61062a6109963660046157c1565b6001600160a01b03166000908152600f602052604090205490565b6109c46109bf36600461586e565b611f4d565b6040805163ffffffff9093168352602083019190915201610612565b61069e6109ee3660046157c1565b611f90565b61062a7fdf8b4c520ffe197c5343c6f5aec59570151ef9a492f2c624fd45ddde6135ec4281565b61069e610a28366004615890565b6120f2565b61062a6121d4565b61069e6121f5565b610606610a4b36600461578c565b60176020526000908152604090205460ff1681565b600354610660906001600160a01b031681565b6107e5610a8136600461578c565b6123b4565b61062a610a943660046157c1565b6123e7565b610606610aa7366004615842565b60009182526019602090815260408084206001600160a01b0393909316845291905290205460ff1690565b610640612450565b61062a61245d565b61069e610af036600461578c565b612531565b6109c4610b033660046157dc565b612596565b61062a610b163660046157c1565b6125b2565b610b2e610b2936600461578c565b6125c6565b6040516106129190600060a0820190506001600160a01b0383511682526020830151602083015260408301516040830152606083015160608301526080830151608083015292915050565b61069e610b8736600461586e565b612659565b61062a600081565b61069e610ba23660046158d1565b61293a565b610660610bb536600461578c565b6012602052600090815260409020546001600160a01b031681565b61062a610bde3660046157dc565b6129fe565b61062a610bf136600461578c565b612a2f565b61062a610c0436600461594f565b612a43565b61062a60045481565b61069e610c2036600461586e565b612aaf565b61062a610c3336600461586e565b612aba565b61062a60055481565b61062a610c4f3660046157c1565b612cc3565b61062a610c6236600461578c565b612dc6565b61069e610c753660046159c5565b612de7565b61062a610c8836600461578c565b612e61565b610606610c9b3660046157dc565b600d60209081526000928352604080842090915290825290205460ff1681565b610cce610cc93660046157c1565b612f37565b6040516106129190615a85565b610cee610ce936600461578c565b612fa3565b6040516106129190615ac9565b610606610d0936600461578c565b60116020526000908152604090205460ff1681565b610640610d2c36600461578c565b613033565b61069e610d3f366004615806565b613204565b61062a60065481565b61062a610d5b36600461578c565b6132f0565b61062a610d6e36600461578c565b613315565b61069e610d81366004615842565b613368565b61062a610d9436600461578c565b61338d565b610cce610da73660046157c1565b6133e7565b610dbf610dba36600461578c565b61362a565b604080519215158352602083019190915201610612565b610606610de4366004615b22565b6001600160a01b03918216600090815260136020908152604080832093909416825291909152205460ff1690565b61062a610e203660046157c1565b613733565b610606610e33366004615b22565b601360209081526000928352604080842090915290825290205460ff1681565b61069e610e61366004615b4c565b613857565b61062a610e7436600461578c565b60106020526000908152604090205481565b61062a60015481565b60006001600160e01b03198216637965db0b60e01b1480610ec057506301ffc9a760e01b6001600160e01b03198316145b92915050565b60078054610ed390615b85565b80601f0160208091040260200160405190810160405280929190818152602001828054610eff90615b85565b8015610f4c5780601f10610f2157610100808354040283529160200191610f4c565b820191906000526020600020905b815481529060010190602001808311610f2f57829003601f168201915b505050505081565b6000818152600e60205260408120546001600160a01b0316610fd55760405162461bcd60e51b815260206004820152602f60248201527f4c6f636b49644e46543a20617070726f76656420717565727920666f72206e6f60448201526e3732bc34b9ba32b73a103a37b5b2b760891b60648201526084015b60405180910390fd5b506000908152601260205260409020546001600160a01b031690565b6000610ffc826123e7565b61100583612cc3565b610ec09190615bd5565b6000818152600e60205260409020546001600160a01b0390811690831681900361107b5760405162461bcd60e51b815260206004820152601960248201527f617070726f76616c20746f2063757272656e74206f776e6572000000000000006044820152606401610fcc565b336001600160a01b03821614806110b557506001600160a01b038116600090815260136020908152604080832033845290915290205460ff165b6111275760405162461bcd60e51b815260206004820152603060248201527f617070726f76652063616c6c6572206973206e6f74206f776e6572206e6f722060448201527f617070726f76656420666f7220616c6c000000000000000000000000000000006064820152608401610fcc565b6111318383613bad565b505050565b6000806111806016805490506000036111505760006111ed565b6016805461116090600190615be8565b8154811061117057611170615bfb565b90600052602060002001546111ed565b905061118c8142612a43565b91505090565b600b546000908082036111a757600191505090565b600154600b6001836111b99190615be8565b815481106111c9576111c9615bfb565b906000526020600020906003020160020154426111e69190615be8565b1191505090565b60408051808201825260008082526020808301829052848252601581528382208054855181840281018401909652808652939492939091849084015b8282101561126e5760008481526020908190206040805180820190915260028502909101805463ffffffff168252600190810154828401529083529092019101611229565b50505050905080516000146112f457604051806040016040528082600184516112979190615be8565b815181106112a7576112a7615bfb565b60200260200101516000015163ffffffff16815260200182600184516112cd9190615be8565b815181106112dd576112dd615bfb565b602002602001015160200151815250915050919050565b50506040805180820190915260008082526020820152919050565b611318336114b2565b61136f5760405162461bcd60e51b815260206004820152602260248201527f41636365737369626c653a2043616c6c6572206973206e6f7420616e2061646d60448201526134b760f11b6064820152608401610fcc565b6113997fdf8b4c520ffe197c5343c6f5aec59570151ef9a492f2c624fd45ddde6135ec42826115cc565b50565b611399613c14565b6001600160a01b0381166000908152601460205260408120548015611435576001600160a01b0383166000908152601460205260409020611430906113ea600184615be8565b815481106113fa576113fa615bfb565b600091825260209182902060408051808201909152600290920201805463ffffffff168252600101549181019190915242612a43565b611438565b60005b9392505050565b6114493382613e36565b6114a75760405162461bcd60e51b815260206004820152602960248201527f7472616e736665722063616c6c6572206973206e6f74206f776e6572206e6f7260448201526808185c1c1c9bdd995960ba1b6064820152608401610fcc565b611131838383613f2d565b6001600160a01b03811660009081527f8fba020e3099c35ceeb1c3b938445522782f8d1d0a87d7fedea7b26025c6b6e4602052604081205460ff16610ec0565b6018546001146115445760405162461bcd60e51b815260206004820152601860248201527f4c6f636b496420697320616c726561647920696e2075736500000000000000006044820152606401610fcc565b6000601855806115965760405162461bcd60e51b815260206004820152600f60248201527f5f6c6f636b4964206973207a65726f00000000000000000000000000000000006044820152606401610fcc565b61159f81614256565b506001601855565b6000828152601960205260409020600101546115c281614599565b61113183836145a3565b6001600160a01b038116331461164a5760405162461bcd60e51b815260206004820152602f60248201527f416363657373436f6e74726f6c3a2063616e206f6e6c792072656e6f756e636560448201527f20726f6c657320666f722073656c6600000000000000000000000000000000006064820152608401610fcc565b6116548282614645565b5050565b600c602052816000526040600020818154811061167457600080fd5b600091825260209091206003909102018054600182015460029092015490935090915083565b6001600160a01b0381166000908152600f60209081526040808320805482518185028101850190935280835284938301828280156116f757602002820191906000526020600020905b8154815260200190600101908083116116e3575b5050505050905080516000036117105750600092915050565b60005b815181101561175a5761173e82828151811061173157611731615bfb565b6020026020010151612e61565b6117489084615bd5565b925061175381615c11565b9050611713565b5050919050565b6001600160a01b0382166000908152600f60209081526040808320805482518185028101850190935280835284938301828280156117be57602002820191906000526020600020905b8154815260200190600101908083116117aa575b5050505050905080516000036117d8576000915050610ec0565b60005b8151811015611823576118078282815181106117f9576117f9615bfb565b602002602001015185611dee565b6118119084615bd5565b925061181c81615c11565b90506117db565b505092915050565b61113183838360405180602001604052806000815250612de7565b80806000036118855760405162461bcd60e51b815260206004820152600b60248201526a1e995c9bc8185b5bdd5b9d60aa1b6044820152606401610fcc565b336001600160a01b038416146118dd5760405162461bcd60e51b815260206004820152601560248201527f63616c6c6572206973206e6f74206163636f756e7400000000000000000000006044820152606401610fcc565b6118ea83836000806146c8565b6118f5826000614967565b60006001546001546001546001546002546119109190615c2a565b61191a9190615c4c565b6119249042615bd5565b61192e9190615c2a565b6119389190615c4c565b9050600060046000815461194b90615c11565b918290555090506119628582868560016000614b73565b6001600160a01b0385166000818152600d602090815260408083208584528252808320805460ff19166001908117909155848452600f83528184208054918201815584529282902090920184905581513381529081019290925281018590527fa40823e7add821b786067b9a190d574aba8d76b3fcf80436dc924cf5b655f7e79060600160405180910390a1604080516001600160a01b038716815260208101839052908101859052606081018390527f71fc552ee832a9004ea0bdb07cb6dd9d641eb2cb53b3cfe88c8fdcff886734a09060800160405180910390a15050505050565b8080600003611a855760405162461bcd60e51b815260206004820152600b60248201526a1e995c9bc8185b5bdd5b9d60aa1b6044820152606401610fcc565b336001600160a01b03841614611add5760405162461bcd60e51b815260206004820152601560248201527f63616c6c6572206973206e6f74206163636f756e7400000000000000000000006044820152606401610fcc565b81600654611aeb9190615bd5565b600655611afb83836001806146c8565b611b06826001614967565b604080513381526001600160a01b03851660208201529081018390527f51e578c496328387543605b973ddf715fa0d567e5ffecef9d2ef95181820d0539060600160405180910390a1505050565b60008111611ba45760405162461bcd60e51b815260206004820152601f60248201527f56616c7565206c6f636b65642073686f756c64206265206e6f6e2d7a65726f006044820152606401610fcc565b6000828152600e6020908152604091829020825160a08101845281546001600160a01b0390811680835260018401549483019490945260028301549482019490945260038201546060820152600490910154608082015291851614611c4b5760405162461bcd60e51b815260206004820152601a60248201527f6c6f636b49642773206f776e6572206973206e6f7420616464720000000000006044820152606401610fcc565b608081015115611c9d5760405162461bcd60e51b815260206004820152601160248201527f4c6f636b2069732077697468647261776e0000000000000000000000000000006044820152606401610fcc565b6000816020015111611ce75760405162461bcd60e51b8152602060048201526013602482015272131bd8dac8191bd95cc81b9bdd08195e1a5cdd606a1b6044820152606401610fcc565b42816040015111611d3a5760405162461bcd60e51b815260206004820152601560248201527f4c6f636b2074696d652069732066696e697368656400000000000000000000006044820152606401610fcc565b81600654611d489190615bd5565b600655611d5b8484846000600180614b73565b60408051338152602081018590529081018390527fea44bc904f77b1be47cd5b840b00f19b7238f88d7524fa5a86629282bfe6bcc5906060015b60405180910390a150505050565b6001600160a01b038216600090815260146020526040812081908190611dc99085614eaa565b915091508115611de257611ddd8185612a43565b611de5565b60005b95945050505050565b6000828152600c6020526040812081908190611e0a9085614fd4565b9150915081611e1e57600092505050610ec0565b6000816040015185611e309190615be8565b8260200151611e3f9190615c63565b9050670de0b6b3a764000081836000015113611e5c576000611e69565b8251611e69908390615c93565b611e739190615c2a565b9695505050505050565b6000611e898383611da3565b611e938484611761565b6114389190615bd5565b600a8054610ed390615b85565b60096020526000908152604090208054610ed390615b85565b611ecc336114b2565b611f235760405162461bcd60e51b815260206004820152602260248201527f41636365737369626c653a2043616c6c6572206973206e6f7420616e2061646d60448201526134b760f11b6064820152608401610fcc565b6113997fdf8b4c520ffe197c5343c6f5aec59570151ef9a492f2c624fd45ddde6135ec42826115a7565b60156020528160005260406000208181548110611f6957600080fd5b60009182526020909120600290910201805460019091015463ffffffff9091169250905082565b611f99336114b2565b611ff05760405162461bcd60e51b815260206004820152602260248201527f41636365737369626c653a2043616c6c6572206973206e6f7420616e2061646d60448201526134b760f11b6064820152608401610fcc565b6001600160a01b0381166120465760405162461bcd60e51b815260206004820152601860248201527f41636365737369626c653a207a65726f206164647265737300000000000000006044820152606401610fcc565b6001600160a01b038116330361209e5760405162461bcd60e51b815260206004820152601660248201527f41636365737369626c653a2073616d652061646d696e000000000000000000006044820152606401610fcc565b6120c87fdf8b4c520ffe197c5343c6f5aec59570151ef9a492f2c624fd45ddde6135ec42826115a7565b6113997fdf8b4c520ffe197c5343c6f5aec59570151ef9a492f2c624fd45ddde6135ec42336115cc565b6120fb336114b2565b6121525760405162461bcd60e51b815260206004820152602260248201527f41636365737369626c653a2043616c6c6572206973206e6f7420616e2061646d60448201526134b760f11b6064820152608401610fcc565b6003546001600160a01b0316156121ab5760405162461bcd60e51b815260206004820152601360248201527f416c726561647920696e697469616c697a6564000000000000000000000000006044820152606401610fcc565b600380546001600160a01b0319166001600160a01b039490941693909317909255600155600255565b60006121de611136565b6121e661245d565b6121f09190615bd5565b905090565b6018546001146122475760405162461bcd60e51b815260206004820152601860248201527f4c6f636b496420697320616c726561647920696e2075736500000000000000006044820152606401610fcc565b60006018819055338152600f60205260408120805490910361226957506123ad565b60005b81548110156123aa576000600e600084848154811061228d5761228d615bfb565b600091825260208083209091015483528281019390935260409182019020815160a08101835281546001600160a01b031681526001820154938101939093526002810154918301919091526003810154606083015260040154608082018190529091501580156123195750600083838154811061230c5761230c615bfb565b9060005260206000200154115b8015612329575060008160600151115b8015612339575060008160200151115b8015612349575060008160400151115b80156123585750428160400151105b801561236d575080516001600160a01b031633145b156123975761239783838154811061238757612387615bfb565b9060005260206000200154614256565b50806123a281615c11565b91505061226c565b50505b6001601855565b600b81815481106123c457600080fd5b600091825260209091206003909102018054600182015460029092015490925083565b6001600160a01b0381166000908152601460205260408120548015611435576001600160a01b0383166000908152601460205260409020612429600183615be8565b8154811061243957612439615bfb565b906000526020600020906002020160010154611438565b60088054610ed390615b85565b600b54600090810361246f5750600090565b600b80546000916124d39161248690600190615be8565b8154811061249657612496615bfb565b90600052602060002090600302016040518060600160405290816000820154815260200160018201548152602001600282015481525050426150fd565b905060008160400151426124e79190615be8565b82602001516124f69190615c63565b9050670de0b6b3a764000081836000015113612513576000612520565b8251612520908390615c93565b61252a9190615c2a565b9250505090565b61253a336114b2565b6125915760405162461bcd60e51b815260206004820152602260248201527f41636365737369626c653a2043616c6c6572206973206e6f7420616e2061646d60448201526134b760f11b6064820152608401610fcc565b600255565b60146020528160005260406000208181548110611f6957600080fd5b60006125bd826113a4565b6110058361169a565b6126016040518060a0016040528060006001600160a01b03168152602001600081526020016000815260200160008152602001600081525090565b506000908152600e6020908152604091829020825160a08101845281546001600160a01b0316815260018201549281019290925260028101549282019290925260038201546060820152600490910154608082015290565b600081116126a95760405162461bcd60e51b815260206004820152601e60248201527f556e6c6f636b20706572696f64206c657373207468616e2061207765656b00006044820152606401610fcc565b806005546126b79190615bd5565b6005556000828152600e6020908152604091829020825160a08101845281546001600160a01b031680825260018301549382019390935260028201549381019390935260038101546060840152600401546080830152331461275b5760405162461bcd60e51b815260206004820152601c60248201527f6c6f636b49642773206f776e6572206973206e6f742063616c6c6572000000006044820152606401610fcc565b60006001548361276b9190615c4c565b826040015161277a9190615bd5565b60015490915061278a8183615c2a565b6127949190615c4c565b6002549091506127a44283615be8565b106127f15760405162461bcd60e51b815260206004820152601a60248201527f4d617820756e6c6f636b2074696d6520697320332079656172730000000000006044820152606401610fcc565b428260400151116128445760405162461bcd60e51b815260206004820152601a60248201527f4c6f636b2074696d6520616c72656164792066696e69736865640000000000006044820152606401610fcc565b808260400151106128975760405162461bcd60e51b815260206004820152601d60248201527f4e6577206c6f636b2074696d65206d75737420626520677265617465720000006044820152606401610fcc565b60008260600151116128eb5760405162461bcd60e51b815260206004820152601660248201527f4e6f206578697374696e67206c6f636b656420544f53000000000000000000006044820152606401610fcc565b6128fc338560008460016000614b73565b60408051338152602081018690529081018290527fb8596b0e78133666b86648f60233cc2d078144d06df7874ea9f612a3ccc3e2fb90606001611d95565b336001600160a01b038316036129925760405162461bcd60e51b815260206004820152601160248201527f617070726f766520746f2063616c6c65720000000000000000000000000000006044820152606401610fcc565b3360008181526013602090815260408083206001600160a01b03871680855290835292819020805460ff191686151590811790915590519081529192917f17307eab39ab6107e8899845ad3d59bd9653f200f220920489ca2b5937696c31910160405180910390a35050565b600f6020528160005260406000208181548110612a1a57600080fd5b90600052602060002001600091509150505481565b6000612a3a8261338d565b61100583613315565b815160009063ffffffff16821080612a5d57506020830151155b15612a6a57506000610ec0565b670de0b6b3a7640000600254600254670de0b6b3a76400008660200151612a919190615c4c565b612a9b9190615c2a565b612aa59190615c4c565b6114389190615c2a565b611654338383611b54565b6000808311612b0b5760405162461bcd60e51b815260206004820152601f60248201527f56616c7565206c6f636b65642073686f756c64206265206e6f6e2d7a65726f006044820152606401610fcc565b60008211612b5b5760405162461bcd60e51b815260206004820152601e60248201527f556e6c6f636b20706572696f64206c657373207468616e2061207765656b00006044820152606401610fcc565b81600554612b699190615bd5565b600555600654612b7a908490615bd5565b600655600154600090612b8d9084615c4c565b612b979042615bd5565b600154909150612ba78183615c2a565b612bb19190615c4c565b600254909150612bc14283615be8565b1115612c0f5760405162461bcd60e51b815260206004820152601a60248201527f4d617820756e6c6f636b2074696d6520697320332079656172730000000000006044820152606401610fcc565b600460008154612c1e90615c11565b91829055509150612c3433838684600180614b73565b336000818152600d602090815260408083208684528252808320805460ff19166001908117909155848452600f835281842080549182018155845292829020909201859055815192835282018490528101859052606081018290527f71fc552ee832a9004ea0bdb07cb6dd9d641eb2cb53b3cfe88c8fdcff886734a09060800160405180910390a15092915050565b6001600160a01b0381166000908152600f602052604081205481805b82811015612dbe576001600160a01b0385166000908152600f60205260408120805483908110612d1157612d11615bfb565b60009182526020808320909101546001600160a01b0389168352600d8252604080842082855290925291205490915060ff1615612dad576000818152600e6020908152604091829020825160a08101845281546001600160a01b03168152600182015492810192909252600281015492820192909252600382015460608201819052600490920154608082015290612da99085615bd5565b9350505b50612db781615c11565b9050612cdf565b509392505050565b60168181548110612dd657600080fd5b600091825260209091200154905081565b612df13383613e36565b612e4f5760405162461bcd60e51b815260206004820152602960248201527f7472616e736665722063616c6c6572206973206e6f74206f776e6572206e6f7260448201526808185c1c1c9bdd995960ba1b6064820152608401610fcc565b612e5b84848484615207565b50505050565b6000818152600c6020526040812054808203612e805750600092915050565b6000838152600c60205260408120612e99600184615be8565b81548110612ea957612ea9615bfb565b9060005260206000209060030201604051806060016040529081600082015481526020016001820154815260200160028201548152505090506000816040015142612ef49190615be8565b8260200151612f039190615c63565b9050670de0b6b3a764000081836000015113612f20576000612f2d565b8251612f2d908390615c93565b611de59190615c2a565b6001600160a01b0381166000908152600f6020908152604091829020805483518184028101840190945280845260609392830182828015612f9757602002820191906000526020600020905b815481526020019060010190808311612f83575b50505050509050919050565b6060600c6000838152602001908152602001600020805480602002602001604051908101604052809291908181526020016000905b828210156130285783829060005260206000209060030201604051806060016040529081600082015481526020016001820154815260200160028201548152505081526020019060010190612fd8565b505050509050919050565b6000818152600e60205260409020546060906001600160a01b031661309a5760405162461bcd60e51b815260206004820152601160248201527f6e6f6e6578697374656e7420746f6b656e0000000000000000000000000000006044820152606401610fcc565b600082815260096020526040812080546130b390615b85565b80601f01602080910402602001604051908101604052809291908181526020018280546130df90615b85565b801561312c5780601f106131015761010080835404028352916020019161312c565b820191906000526020600020905b81548152906001019060200180831161310f57829003601f168201915b505050505090506000600a805461314290615b85565b80601f016020809104026020016040519081016040528092919081815260200182805461316e90615b85565b80156131bb5780601f10613190576101008083540402835291602001916131bb565b820191906000526020600020905b81548152906001019060200180831161319e57829003601f168201915b5050505050905080516000036131d2575092915050565b81511561175a5780826040516020016131ec929190615cba565b60405160208183030381529060405292505050919050565b336001600160a01b03841681148061324157506001600160a01b0380851660009081526013602090815260408083209385168352929052205460ff165b61328d5760405162461bcd60e51b815260206004820152600c60248201527f6e6f7420617070726f76656400000000000000000000000000000000000000006044820152606401610fcc565b61329a84836000806146c8565b6132a88383600160006146c8565b604080516001600160a01b038087168252851660208201529081018390527f726793e703f98147062939ddef576db74a98e705c0a44917aa4dfb32f249add690606001611d95565b600154600090806133018185615bd5565b61330b9190615c2a565b610ec09190615c4c565b600b54600090810361332957506000919050565b600080613337600b85614fd4565b915091508161334a575060009392505050565b61335481856150fd565b90506000816040015185612ef49190615be8565b60008281526019602052604090206001015461338381614599565b6111318383614645565b600080600061339b8461362a565b91509150816133ae575060009392505050565b600081815260156020526040812081906133c89087614eaa565b91509150816133dd5750600095945050505050565b611e738187612a43565b6001600160a01b0381166000908152600f6020526040812054606091805b828110156134dd576001600160a01b0385166000908152600f6020526040812080548390811061343757613437615bfb565b6000918252602080832090910154808352600e8252604092839020835160a08101855281546001600160a01b0316815260018201549381019390935260028101549383018490526003810154606084015260040154608083015292509042108015906134a7575060008160600151115b80156134b557506080810151155b156134c857836134c481615c11565b9450505b505080806134d590615c11565b915050613405565b5060008167ffffffffffffffff8111156134f9576134f9615908565b604051908082528060200260200182016040528015613522578160200160208202803683370190505b5090506000915060005b83811015613621576001600160a01b0386166000908152600f6020526040812080548390811061355e5761355e615bfb565b6000918252602080832090910154808352600e8252604092839020835160a08101855281546001600160a01b0316815260018201549381019390935260028101549383018490526003810154606084015260040154608083015292509042108015906135ce575060008160600151115b80156135dc57506080810151155b1561360c578184866135ed81615c11565b9750815181106135ff576135ff615bfb565b6020026020010181815250505b5050808061361990615c11565b91505061352c565b50949350505050565b60165460015460009182918290806136428188615bd5565b61364c9190615c4c565b6136569190615c2a565b90508160000361366d575060009485945092505050565b6000825b8061367d836001615bd5565b10156136d357600060026136918385615bd5565b61369b9190615c2a565b905083601682815481106136b1576136b1615bfb565b9060005260206000200154116136c9578092506136cd565b8091505b50613671565b82601683815481106136e7576136e7615bfb565b9060005260206000200154116137245760016016838154811061370c5761370c615bfb565b90600052602060002001549550955050505050915091565b50600096879650945050505050565b6001600160a01b0381166000908152600f602052604081205481805b82811015612dbe576001600160a01b0385166000908152600f6020526040812080548390811061378157613781615bfb565b60009182526020808320909101546001600160a01b0389168352600d8252604080842082855290925291205490915060ff1615613844576000818152600e6020908152604091829020825160a08101845281546001600160a01b0316815260018201549281019290925260028101549282018390526003810154606083015260040154608082015290421080159061381d575060008160600151115b801561382b57506080810151155b1561384257606081015161383f9085615bd5565b93505b505b508061384f81615c11565b91505061374f565b60008211806138665750600081115b6138b25760405162461bcd60e51b815260206004820152601e60248201527f556e6c6f636b20706572696f64206c657373207468616e2061207765656b00006044820152606401610fcc565b6001600160a01b038416331461390a5760405162461bcd60e51b815260206004820152601260248201527f73656e646572206973206e6f74206164647200000000000000000000000000006044820152606401610fcc565b6000838152600e6020908152604091829020825160a08101845281546001600160a01b03168082526001830154938201939093526002820154938101939093526003810154606084015260040154608083015233146139ab5760405162461bcd60e51b815260206004820152601c60248201527f6c6f636b49642773206f776e6572206973206e6f742063616c6c6572000000006044820152606401610fcc565b600154600090806139bc8186615c4c565b84604001516139cb9190615bd5565b6139d59190615c2a565b6139df9190615c4c565b6002549091506139ef4283615be8565b10613a3c5760405162461bcd60e51b815260206004820152601a60248201527f4d617820756e6c6f636b2074696d6520697320332079656172730000000000006044820152606401610fcc565b42826040015111613a8f5760405162461bcd60e51b815260206004820152601a60248201527f4c6f636b2074696d6520616c72656164792066696e69736865640000000000006044820152606401610fcc565b80826040015110613ae25760405162461bcd60e51b815260206004820152601d60248201527f4e6577206c6f636b2074696d65206d75737420626520677265617465720000006044820152606401610fcc565b6000826060015111613b365760405162461bcd60e51b815260206004820152601660248201527f4e6f206578697374696e67206c6f636b656420544f53000000000000000000006044820152606401610fcc565b8215613b4e5782600554613b4a9190615bd5565b6005555b613b5d33868684600180614b73565b6040805133815260208101879052908101859052606081018290527fd60c036b8c5e629bddc29fb36b954faab6aa2f176ab97664ca37318bf84f8cbb9060800160405180910390a1505050505050565b600081815260126020908152604080832080546001600160a01b0319166001600160a01b03878116918217909255600e909352818420549151859492909116917f8c5be1e5ebec7d5bd14f71427d1e84f3dd0314c0f7b2291e5b200ac8c7c3b92591a45050565b613c3860405180606001604052806000815260200160008152602001600081525090565b600b54429015613ca057600b8054613c5290600190615be8565b81548110613c6257613c62615bfb565b906000526020600020906003020160405180606001604052908160008201548152602001600182015481526020016002820154815250509150613cc0565b604051806060016040528060008152602001600081526020018281525091505b60006001546001548460400151613cd79190615c2a565b613ce19190615c4c565b90505b818114613e3157613d0260015482613cfc9190615bd5565b83615212565b600081815260106020526040808220549086015192935091613d3090613d289085615be8565b600154615212565b9050808560200151613d429190615c63565b8551613d4e9190615c93565b85526020850151613d60908390615ce9565b60208601528451600012613d75576000613d78565b84515b85526020850151600012613d8d576000613d93565b84602001515b6020860190815260408601848152600b805460018101825560009190915287517f0175b7a638427703f0dbe7bb9bbf987a2551717b34e79f33b5b1008d1fa01db960039092029182015591517f0175b7a638427703f0dbe7bb9bbf987a2551717b34e79f33b5b1008d1fa01dba830155517f0175b7a638427703f0dbe7bb9bbf987a2551717b34e79f33b5b1008d1fa01dbb9091015550613ce49050565b505090565b6000818152600e60205260408120546001600160a01b0316613eb25760405162461bcd60e51b815260206004820152602f60248201527f4c6f636b49644e46543a206f70657261746f7220717565727920666f72206e6f60448201526e3732bc34b9ba32b73a103a37b5b2b760891b6064820152608401610fcc565b6000828152600e60205260409020546001600160a01b03908116908416811480613ef55750836001600160a01b0316613eea84610f54565b6001600160a01b0316145b80613f2557506001600160a01b0380821660009081526013602090815260408083209388168352929052205460ff165b949350505050565b6001600160a01b038216613f835760405162461bcd60e51b815260206004820152601260248201527f746f206973207a65726f206164647265737300000000000000000000000000006044820152606401610fcc565b6000818152600e6020908152604091829020825160a08101845281546001600160a01b03908116808352600184015494830194909452600283015494820194909452600382015460608201526004909101546080820152918516146140345760405162461bcd60e51b815260206004820152602160248201527f7472616e73666572206f6620746f6b656e2074686174206973206e6f74206f776044820152603760f91b6064820152608401610fcc565b6080810151156140865760405162461bcd60e51b815260206004820152601860248201527f49742069732077697468647261776e20616c72656164792e00000000000000006044820152606401610fcc565b428160400151116140d95760405162461bcd60e51b815260206004820152601560248201527f4c6f636b2074696d652069732066696e697368656400000000000000000000006044820152606401610fcc565b6000828152600e6020908152604080832042600480830182905582546001600160a01b031916835560018084018790556002808501889055600394850188905585516060810187528881528088018981528188019586528b8a52600c895296892080548085018255908a52978920815198909602909501968755945190860155905193909201929092558054919291829061417390615c11565b9190508190559050614192858285606001518660400151600080614b73565b6001600160a01b038086166000818152600d602090815260408083208684528252808320805460ff19166001908117909155938352600f825280832080549485018155835290822090920184905590518392891691907fddf252ad1be2c89b69c2b068fc378daa952ba7f163c4a11628f55a4df523b3ef908290a480856001600160a01b0316876001600160a01b03167fddf252ad1be2c89b69c2b068fc378daa952ba7f163c4a11628f55a4df523b3ef60405160405180910390a4505050505050565b6000818152600e6020908152604091829020825160a08101845281546001600160a01b03168082526001830154938201939093526002820154938101939093526003810154606084015260040154608083015233146142f75760405162461bcd60e51b815260206004820152601c60248201527f6c6f636b49642773206f776e6572206973206e6f742063616c6c6572000000006044820152606401610fcc565b6080810151156143495760405162461bcd60e51b815260206004820152601160248201527f416c72656164792077697468647261776e0000000000000000000000000000006044820152606401610fcc565b60008160200151116143935760405162461bcd60e51b8152602060048201526013602482015272131bd8dac8191bd95cc81b9bdd08195e1a5cdd606a1b6044820152606401610fcc565b428160400151106143e65760405162461bcd60e51b815260206004820152601660248201527f4c6f636b2074696d65206e6f742066696e6973686564000000000000000000006044820152606401610fcc565b600081606001511161443a5760405162461bcd60e51b815260206004820152601560248201527f4e6f20616d6f756e7420746f20776974686472617700000000000000000000006044820152606401610fcc565b6040805160a081018252600080825260208201819052918101829052606081019190915242608082015261446e8183615228565b6060828101516000858152600e60209081526040808320865181546001600160a01b0319166001600160a01b03918216178255878401516001830155878301516002830155958701516003808301919091556080880151600492830155885187168552600d84528285208a865290935292819020805460ff191690559054905163a9059cbb60e01b81523392810192909252602482018390529192919091169063a9059cbb906044016020604051808303816000875af1158015614536573d6000803e3d6000fd5b505050506040513d601f19601f8201168201806040525081019061455a9190615d09565b5060408051338152602081018690529081018290527ff1206247bdd5e2e0cfc00bea4cf05fb8dc479ebee686f9549043179cc7013b3090606001611d95565b611399813361541e565b60008281526019602090815260408083206001600160a01b038516845290915290205460ff166116545760008281526019602090815260408083206001600160a01b03851684529091529020805460ff191660011790556146013390565b6001600160a01b0316816001600160a01b0316837f2f8788117e7eff1d82e926ec794901d17c78024a50270940304540a733656f0d60405160405180910390a45050565b60008281526019602090815260408083206001600160a01b038516845290915290205460ff16156116545760008281526019602090815260408083206001600160a01b0385168085529252808320805460ff1916905551339285917ff6391f5c32d9c69d2a47ea670b442974b53935d1edc7fd64eb21e047a839171b9190a45050565b6001600160a01b038416600090815260146020526040812054908115614730576001600160a01b038616600090815260146020526040902061470b600184615be8565b8154811061471b5761471b615bfb565b90600052602060002090600202016001015490505b836147d557816000036147855760405162461bcd60e51b815260206004820152601360248201527f6e6f20756e6c696d6974656420616d6f756e74000000000000000000000000006044820152606401610fcc565b848110156147d55760405162461bcd60e51b815260206004820152601f60248201527f756e6c696d69746564416d6f756e7420697320696e73756666696369656e74006044820152606401610fcc565b600060405180604001604052804263ffffffff16815260200186614802576147fd8885615be8565b61480c565b61480c8885615bd5565b90526001600160a01b03881660009081526014602090815260408220805460018082018355918452928290208451600290940201805463ffffffff191663ffffffff90941693909317835590830151910155905083801561486c57508515155b1561495e576003546040516323b872dd60e01b8152336004820152306024820152604481018890526001600160a01b03909116906323b872dd906064016020604051808303816000875af11580156148c8573d6000803e3d6000fd5b505050506040513d601f19601f820116820180604052508101906148ec9190615d09565b61495e5760405162461bcd60e51b815260206004820152602b60248201527f5f696e637265617365556e6c696d697465644163636f756e74207472616e736660448201527f657246726f6d206661696c0000000000000000000000000000000000000000006064820152608401610fcc565b50505050505050565b6000614972426132f0565b600081815260156020908152604080832054815180830190925283825291810192909252919250816000036149bd576016546149b6906000036111505760006111ed565b9050614a19565b60008381526015602052604090206149d6600184615be8565b815481106149e6576149e6615bfb565b600091825260209182902060408051808201909152600290920201805463ffffffff168252600101549181019190915290505b83614a72578481602001511015614a725760405162461bcd60e51b815260206004820152601d60248201527f696e73756666696369656e7420756e6c696d6974656420616d6f756e740000006044820152606401610fcc565b6040805180820190915263ffffffff42168152602082810151908201528415614aaf578581602001818151614aa79190615bd5565b905250614ac5565b8581602001818151614ac19190615be8565b9052505b60008481526015602090815260408083208054600180820183559185528385208651600290920201805463ffffffff191663ffffffff90921691909117815585840151910155868352601790915290205460ff16614b6b576000848152601760205260408120805460ff191660019081179091556016805491820181559091527fd833147d7dc355ba459fc788f669e58cfaf9dc25ddcd0702e87d69c7b5124289018490555b505050505050565b601854600114614bc55760405162461bcd60e51b815260206004820152601860248201527f4c6f636b496420697320616c726561647920696e2075736500000000000000006044820152606401610fcc565b60006018819055506000600e60008781526020019081526020016000206040518060a00160405290816000820160009054906101000a90046001600160a01b03166001600160a01b03166001600160a01b03168152602001600182015481526020016002820154815260200160038201548152602001600482015481525050905060006040518060a00160405280896001600160a01b0316815260200183602001518152602001836040015181526020018360600151815260200160008152509050858160600151614c979190615bd5565b60608201528415614caa57604081018590525b8060200151600003614cbd574260208201525b8315614ccd57614ccd8183615228565b6000878152600e60209081526040808320845181546001600160a01b0319166001600160a01b0390911617815591840151600183015583015160028083019190915560608401516003830181905560808501516004909301929092555490614d3e90670de0b6b3a764000090615c4c565b614d489190615c2a565b90506000428360400151614d5c9190615be8565b614d669083615c63565b6040805160608101825282815260208082018681524283850190815260008f8152600c84529485208054600181810183559187529390952084516003909402019283559051938201939093559151600290920191909155909150858015614dcc57508815155b15614e98576003546040516323b872dd60e01b8152336004820152306024820152604481018b90526001600160a01b03909116906323b872dd906064016020604051808303816000875af1158015614e28573d6000803e3d6000fd5b505050506040513d601f19601f82011682018060405250810190614e4c9190615d09565b614e985760405162461bcd60e51b815260206004820152601a60248201527f4c6f636b544f533a206661696c207472616e7366657246726f6d0000000000006044820152606401610fcc565b50506001601855505050505050505050565b60408051808201909152600080825260208201819052908354600003614ed35760009150614fcd565b83546000905b80614ee5836001615bd5565b1015614f465760006002614ef98385615bd5565b614f039190615c2a565b905085878281548110614f1857614f18615bfb565b600091825260209091206002909102015463ffffffff1611614f3c57809250614f40565b8091505b50614ed9565b84868381548110614f5957614f59615bfb565b600091825260209091206002909102015463ffffffff1611614fc6576001868381548110614f8957614f89615bfb565b600091825260209182902060408051808201909152600290920201805463ffffffff16825260010154918101919091529094509250614fcd915050565b6000935050505b9250929050565b6000614ffa60405180606001604052806000815260200160008152602001600081525090565b835460000361500c5760009150614fcd565b83546000905b8061501e836001615bd5565b101561507a57600060026150328385615bd5565b61503c9190615c2a565b90508587828154811061505157615051615bfb565b9060005260206000209060030201600201541161507057809250615074565b8091505b50615012565b8486838154811061508d5761508d615bfb565b90600052602060002090600302016002015411614fc65760018683815481106150b8576150b8615bfb565b90600052602060002090600302018060405180606001604052908160008201548152602001600182015481526020016002820154815250509050935093505050614fcd565b61512160405180606001604052806000815260200160008152602001600081525090565b600060015460015485604001516151389190615c2a565b6151429190615c4c565b90505b8281146151ff576151636001548261515d9190615bd5565b84615212565b60008181526010602052604080822054908701519293509161518990613d289085615be8565b905080866020015161519b9190615c63565b86516151a79190615c93565b865260208601516151b9908390615ce9565b602087015285516000126151ce5760006151d1565b85515b865260208601516000126151e65760006151ec565b85602001515b6020870152505060408401819052615145565b509192915050565b612e5b848484613f2d565b60008183106152215781611438565b5090919050565b604080516060808201835260008083526020808401829052838501829052845192830185528183528201819052818401529184015142929083108015615272575060008560600151115b156152cd57600254670de0b6b3a764000086606001516152929190615c4c565b61529c9190615c2a565b602083015260408501516152b1908490615be8565b82602001516152c09190615c63565b8252604080860151908301525b8284604001511180156152e4575060008460600151115b1561533f57600254670de0b6b3a764000085606001516153049190615c4c565b61530e9190615c2a565b60208201526040840151615323908490615be8565b81602001516153329190615c63565b8152604080850151908201525b6000615349613c14565b8251845191925061535991615c93565b81516153659190615ce9565b81526020808301519084015161537b9190615c93565b816020015161538a9190615ce9565b6020820152805160001261539f5760006153a2565b80515b815260208101516000126153b75760006153bd565b80602001515b6020820152600b80548291906153d590600190615be8565b815481106153e5576153e5615bfb565b9060005260206000209060030201600082015181600001556020820151816001015560408201518160020155905050614b6b8383615493565b60008281526019602090815260408083206001600160a01b038516845290915290205460ff166116545761545181615550565b61545c836020615562565b60405160200161546d929190615d26565b60408051601f198184030181529082905262461bcd60e51b8252610fcc91600401615759565b604080830151600090815260106020528181205483830180518352929091205491519091904210156155065760208301516154ce9082615ce9565b905083604001518360400151036154f15760208401516154ee9082615c93565b90505b60408084015160009081526010602052208190555b428460400151118015615520575082604001518460400151115b15612e5b5760208401516155349083615c93565b6040808601516000908152601060205220819055915050505050565b6060610ec06001600160a01b03831660145b60606000615571836002615c4c565b61557c906002615bd5565b67ffffffffffffffff81111561559457615594615908565b6040519080825280601f01601f1916602001820160405280156155be576020820181803683370190505b509050600360fc1b816000815181106155d9576155d9615bfb565b60200101906001600160f81b031916908160001a905350600f60fb1b8160018151811061560857615608615bfb565b60200101906001600160f81b031916908160001a905350600061562c846002615c4c565b615637906001615bd5565b90505b60018111156156bc577f303132333435363738396162636465660000000000000000000000000000000085600f166010811061567857615678615bfb565b1a60f81b82828151811061568e5761568e615bfb565b60200101906001600160f81b031916908160001a90535060049490941c936156b581615da7565b905061563a565b5083156114385760405162461bcd60e51b815260206004820181905260248201527f537472696e67733a20686578206c656e67746820696e73756666696369656e746044820152606401610fcc565b60006020828403121561571d57600080fd5b81356001600160e01b03198116811461143857600080fd5b60005b83811015615750578181015183820152602001615738565b50506000910152565b6020815260008251806020840152615778816040850160208701615735565b601f01601f19169190910160400192915050565b60006020828403121561579e57600080fd5b5035919050565b80356001600160a01b03811681146157bc57600080fd5b919050565b6000602082840312156157d357600080fd5b611438826157a5565b600080604083850312156157ef57600080fd5b6157f8836157a5565b946020939093013593505050565b60008060006060848603121561581b57600080fd5b615824846157a5565b9250615832602085016157a5565b9150604084013590509250925092565b6000806040838503121561585557600080fd5b82359150615865602084016157a5565b90509250929050565b6000806040838503121561588157600080fd5b50508035926020909101359150565b6000806000606084860312156158a557600080fd5b6158ae846157a5565b95602085013595506040909401359392505050565b801515811461139957600080fd5b600080604083850312156158e457600080fd5b6158ed836157a5565b915060208301356158fd816158c3565b809150509250929050565b634e487b7160e01b600052604160045260246000fd5b604051601f8201601f1916810167ffffffffffffffff8111828210171561594757615947615908565b604052919050565b600080828403606081121561596357600080fd5b604081121561597157600080fd5b506040516040810181811067ffffffffffffffff8211171561599557615995615908565b604052833563ffffffff811681146159ac57600080fd5b8152602084810135908201529460409093013593505050565b600080600080608085870312156159db57600080fd5b6159e4856157a5565b935060206159f38187016157a5565b935060408601359250606086013567ffffffffffffffff80821115615a1757600080fd5b818801915088601f830112615a2b57600080fd5b813581811115615a3d57615a3d615908565b615a4f601f8201601f1916850161591e565b91508082528984828501011115615a6557600080fd5b808484018584013760008482840101525080935050505092959194509250565b6020808252825182820181905260009190848201906040850190845b81811015615abd57835183529284019291840191600101615aa1565b50909695505050505050565b602080825282518282018190526000919060409081850190868401855b82811015615b155781518051855286810151878601528501518585015260609093019290850190600101615ae6565b5091979650505050505050565b60008060408385031215615b3557600080fd5b615b3e836157a5565b9150615865602084016157a5565b60008060008060808587031215615b6257600080fd5b615b6b856157a5565b966020860135965060408601359560600135945092505050565b600181811c90821680615b9957607f821691505b602082108103615bb957634e487b7160e01b600052602260045260246000fd5b50919050565b634e487b7160e01b600052601160045260246000fd5b80820180821115610ec057610ec0615bbf565b81810381811115610ec057610ec0615bbf565b634e487b7160e01b600052603260045260246000fd5b600060018201615c2357615c23615bbf565b5060010190565b600082615c4757634e487b7160e01b600052601260045260246000fd5b500490565b8082028115828204841417610ec057610ec0615bbf565b80820260008212600160ff1b84141615615c7f57615c7f615bbf565b8181058314821517610ec057610ec0615bbf565b8181036000831280158383131683831282161715615cb357615cb3615bbf565b5092915050565b60008351615ccc818460208801615735565b835190830190615ce0818360208801615735565b01949350505050565b808201828112600083128015821682158216171561182357611823615bbf565b600060208284031215615d1b57600080fd5b8151611438816158c3565b7f416363657373436f6e74726f6c3a206163636f756e7420000000000000000000815260008351615d5e816017850160208801615735565b7f206973206d697373696e6720726f6c65200000000000000000000000000000006017918401918201528351615d9b816028840160208801615735565b01602801949350505050565b600081615db657615db6615bbf565b50600019019056fea164736f6c6343000812000adf8b4c520ffe197c5343c6f5aec59570151ef9a492f2c624fd45ddde6135ec42",
  "linkReferences": {},
  "deployedLinkReferences": {}
}