{
  "_format": "hh-sol-artifact-1",
  "contractName": "LockTOSv2",
  "sourceName": "contracts/stos/LockTOSv2.sol",
  "abi": [
    {
      "inputs": [
        {
          "internalType": "string",
          "name": "_name",
          "type": "string"
        },
        {
          "internalType": "string",
          "name": "_symbol",
          "type": "string"
        }
      ],
      "stateMutability": "nonpayable",
      "type": "constructor"
    },
    {
      "anonymous": false,
      "inputs": [
        {
          "indexed": true,
          "internalType": "address",
          "name": "owner",
          "type": "address"
        },
        {
          "indexed": true,
          "internalType": "address",
          "name": "approved",
          "type": "address"
        },
        {
          "indexed": true,
          "internalType": "uint256",
          "name": "tokenId",
          "type": "uint256"
        }
      ],
      "name": "Approval",
      "type": "event"
    },
    {
      "anonymous": false,
      "inputs": [
        {
          "indexed": true,
          "internalType": "address",
          "name": "owner",
          "type": "address"
        },
        {
          "indexed": true,
          "internalType": "address",
          "name": "operator",
          "type": "address"
        },
        {
          "indexed": false,
          "internalType": "bool",
          "name": "approved",
          "type": "bool"
        }
      ],
      "name": "ApprovalForAll",
      "type": "event"
    },
    {
      "anonymous": false,
      "inputs": [
        {
          "indexed": false,
          "internalType": "address",
          "name": "caller",
          "type": "address"
        },
        {
          "indexed": false,
          "internalType": "address",
          "name": "account",
          "type": "address"
        },
        {
          "indexed": false,
          "internalType": "uint256",
          "name": "amount",
          "type": "uint256"
        }
      ],
      "name": "DecreasedUnlimitedLock",
      "type": "event"
    },
    {
      "anonymous": false,
      "inputs": [
        {
          "indexed": false,
          "internalType": "address",
          "name": "caller",
          "type": "address"
        },
        {
          "indexed": false,
          "internalType": "address",
          "name": "account",
          "type": "address"
        },
        {
          "indexed": false,
          "internalType": "uint256",
          "name": "amount",
          "type": "uint256"
        }
      ],
      "name": "IncreasedUnlimitedLock",
      "type": "event"
    },
    {
      "anonymous": false,
      "inputs": [
        {
          "indexed": false,
          "internalType": "address",
          "name": "account",
          "type": "address"
        },
        {
          "indexed": false,
          "internalType": "uint256",
          "name": "lockId",
          "type": "uint256"
        },
        {
          "indexed": false,
          "internalType": "uint256",
          "name": "value",
          "type": "uint256"
        }
      ],
      "name": "LockAmountIncreased",
      "type": "event"
    },
    {
      "anonymous": false,
      "inputs": [
        {
          "indexed": false,
          "internalType": "address",
          "name": "account",
          "type": "address"
        },
        {
          "indexed": false,
          "internalType": "uint256",
          "name": "lockId",
          "type": "uint256"
        },
        {
          "indexed": false,
          "internalType": "uint256",
          "name": "value",
          "type": "uint256"
        },
        {
          "indexed": false,
          "internalType": "uint256",
          "name": "unlockTime",
          "type": "uint256"
        }
      ],
      "name": "LockCreated",
      "type": "event"
    },
    {
      "anonymous": false,
      "inputs": [
        {
          "indexed": false,
          "internalType": "address",
          "name": "account",
          "type": "address"
        },
        {
          "indexed": false,
          "internalType": "uint256",
          "name": "lockId",
          "type": "uint256"
        },
        {
          "indexed": false,
          "internalType": "uint256",
          "name": "value",
          "type": "uint256"
        }
      ],
      "name": "LockDeposited",
      "type": "event"
    },
    {
      "anonymous": false,
      "inputs": [
        {
          "indexed": false,
          "internalType": "address",
          "name": "account",
          "type": "address"
        },
        {
          "indexed": false,
          "internalType": "uint256",
          "name": "lockId",
          "type": "uint256"
        },
        {
          "indexed": false,
          "internalType": "uint256",
          "name": "value",
          "type": "uint256"
        },
        {
          "indexed": false,
          "internalType": "uint256",
          "name": "unlockTime",
          "type": "uint256"
        }
      ],
      "name": "LockIncreased",
      "type": "event"
    },
    {
      "anonymous": false,
      "inputs": [
        {
          "indexed": false,
          "internalType": "address",
          "name": "account",
          "type": "address"
        },
        {
          "indexed": false,
          "internalType": "uint256",
          "name": "lockId",
          "type": "uint256"
        },
        {
          "indexed": false,
          "internalType": "uint256",
          "name": "unlockTime",
          "type": "uint256"
        }
      ],
      "name": "LockUnlockTimeIncreased",
      "type": "event"
    },
    {
      "anonymous": false,
      "inputs": [
        {
          "indexed": false,
          "internalType": "address",
          "name": "account",
          "type": "address"
        },
        {
          "indexed": false,
          "internalType": "uint256",
          "name": "lockId",
          "type": "uint256"
        },
        {
          "indexed": false,
          "internalType": "uint256",
          "name": "value",
          "type": "uint256"
        }
      ],
      "name": "LockWithdrawn",
      "type": "event"
    },
    {
      "anonymous": false,
      "inputs": [
        {
          "indexed": true,
          "internalType": "bytes32",
          "name": "role",
          "type": "bytes32"
        },
        {
          "indexed": true,
          "internalType": "bytes32",
          "name": "previousAdminRole",
          "type": "bytes32"
        },
        {
          "indexed": true,
          "internalType": "bytes32",
          "name": "newAdminRole",
          "type": "bytes32"
        }
      ],
      "name": "RoleAdminChanged",
      "type": "event"
    },
    {
      "anonymous": false,
      "inputs": [
        {
          "indexed": true,
          "internalType": "bytes32",
          "name": "role",
          "type": "bytes32"
        },
        {
          "indexed": true,
          "internalType": "address",
          "name": "account",
          "type": "address"
        },
        {
          "indexed": true,
          "internalType": "address",
          "name": "sender",
          "type": "address"
        }
      ],
      "name": "RoleGranted",
      "type": "event"
    },
    {
      "anonymous": false,
      "inputs": [
        {
          "indexed": true,
          "internalType": "bytes32",
          "name": "role",
          "type": "bytes32"
        },
        {
          "indexed": true,
          "internalType": "address",
          "name": "account",
          "type": "address"
        },
        {
          "indexed": true,
          "internalType": "address",
          "name": "sender",
          "type": "address"
        }
      ],
      "name": "RoleRevoked",
      "type": "event"
    },
    {
      "anonymous": false,
      "inputs": [
        {
          "indexed": true,
          "internalType": "address",
          "name": "from",
          "type": "address"
        },
        {
          "indexed": true,
          "internalType": "address",
          "name": "to",
          "type": "address"
        },
        {
          "indexed": true,
          "internalType": "uint256",
          "name": "tokenId",
          "type": "uint256"
        }
      ],
      "name": "Transfer",
      "type": "event"
    },
    {
      "anonymous": false,
      "inputs": [
        {
          "indexed": false,
          "internalType": "address",
          "name": "from",
          "type": "address"
        },
        {
          "indexed": false,
          "internalType": "address",
          "name": "to",
          "type": "address"
        },
        {
          "indexed": false,
          "internalType": "uint256",
          "name": "amount",
          "type": "uint256"
        }
      ],
      "name": "TransferUnlimitedLock",
      "type": "event"
    },
    {
      "inputs": [],
      "name": "ADMIN_ROLE",
      "outputs": [
        {
          "internalType": "bytes32",
          "name": "",
          "type": "bytes32"
        }
      ],
      "stateMutability": "view",
      "type": "function"
    },
    {
      "inputs": [],
      "name": "DEFAULT_ADMIN_ROLE",
      "outputs": [
        {
          "internalType": "bytes32",
          "name": "",
          "type": "bytes32"
        }
      ],
      "stateMutability": "view",
      "type": "function"
    },
    {
      "inputs": [],
      "name": "MULTIPLIER",
      "outputs": [
        {
          "internalType": "uint256",
          "name": "",
          "type": "uint256"
        }
      ],
      "stateMutability": "view",
      "type": "function"
    },
    {
      "inputs": [],
      "name": "POLICY_ROLE",
      "outputs": [
        {
          "internalType": "bytes32",
          "name": "",
          "type": "bytes32"
        }
      ],
      "stateMutability": "view",
      "type": "function"
    },
    {
      "inputs": [
        {
          "internalType": "uint256",
          "name": "_timestamp",
          "type": "uint256"
        }
      ],
      "name": "_findClosestUnlimitedTimeindex",
      "outputs": [
        {
          "internalType": "bool",
          "name": "success",
          "type": "bool"
        },
        {
          "internalType": "uint256",
          "name": "timeindex",
          "type": "uint256"
        }
      ],
      "stateMutability": "view",
      "type": "function"
    },
    {
      "inputs": [
        {
          "internalType": "address",
          "name": "",
          "type": "address"
        },
        {
          "internalType": "address",
          "name": "",
          "type": "address"
        }
      ],
      "name": "_operatorApprovals",
      "outputs": [
        {
          "internalType": "bool",
          "name": "",
          "type": "bool"
        }
      ],
      "stateMutability": "view",
      "type": "function"
    },
    {
      "inputs": [
        {
          "internalType": "uint256",
          "name": "",
          "type": "uint256"
        }
      ],
      "name": "_tokenApprovals",
      "outputs": [
        {
          "internalType": "address",
          "name": "",
          "type": "address"
        }
      ],
      "stateMutability": "view",
      "type": "function"
    },
    {
      "inputs": [
        {
          "internalType": "address",
          "name": "account",
          "type": "address"
        }
      ],
      "name": "addAdmin",
      "outputs": [],
      "stateMutability": "nonpayable",
      "type": "function"
    },
    {
      "inputs": [
        {
          "internalType": "uint256",
          "name": "",
          "type": "uint256"
        }
      ],
      "name": "allLocks",
      "outputs": [
        {
          "internalType": "address",
          "name": "owner",
          "type": "address"
        },
        {
          "internalType": "uint256",
          "name": "start",
          "type": "uint256"
        },
        {
          "internalType": "uint256",
          "name": "end",
          "type": "uint256"
        },
        {
          "internalType": "uint256",
          "name": "amount",
          "type": "uint256"
        },
        {
          "internalType": "uint256",
          "name": "withdrawalTime",
          "type": "uint256"
        }
      ],
      "stateMutability": "view",
      "type": "function"
    },
    {
      "inputs": [
        {
          "internalType": "address",
          "name": "to",
          "type": "address"
        },
        {
          "internalType": "uint256",
          "name": "tokenId",
          "type": "uint256"
        }
      ],
      "name": "approve",
      "outputs": [],
      "stateMutability": "nonpayable",
      "type": "function"
    },
    {
      "inputs": [
        {
          "internalType": "address",
          "name": "_addr",
          "type": "address"
        }
      ],
      "name": "balanceOf",
      "outputs": [
        {
          "internalType": "uint256",
          "name": "balance",
          "type": "uint256"
        }
      ],
      "stateMutability": "view",
      "type": "function"
    },
    {
      "inputs": [
        {
          "internalType": "address",
          "name": "_addr",
          "type": "address"
        },
        {
          "internalType": "uint256",
          "name": "_timestamp",
          "type": "uint256"
        }
      ],
      "name": "balanceOfAt",
      "outputs": [
        {
          "internalType": "uint256",
          "name": "balance",
          "type": "uint256"
        }
      ],
      "stateMutability": "view",
      "type": "function"
    },
    {
      "inputs": [
        {
          "internalType": "address",
          "name": "_addr",
          "type": "address"
        }
      ],
      "name": "balanceOfLock",
      "outputs": [
        {
          "internalType": "uint256",
          "name": "balance",
          "type": "uint256"
        }
      ],
      "stateMutability": "view",
      "type": "function"
    },
    {
      "inputs": [
        {
          "internalType": "uint256",
          "name": "_lockId",
          "type": "uint256"
        }
      ],
      "name": "balanceOfLock",
      "outputs": [
        {
          "internalType": "uint256",
          "name": "",
          "type": "uint256"
        }
      ],
      "stateMutability": "view",
      "type": "function"
    },
    {
      "inputs": [
        {
          "internalType": "address",
          "name": "_addr",
          "type": "address"
        },
        {
          "internalType": "uint256",
          "name": "_timestamp",
          "type": "uint256"
        }
      ],
      "name": "balanceOfLockAt",
      "outputs": [
        {
          "internalType": "uint256",
          "name": "balance",
          "type": "uint256"
        }
      ],
      "stateMutability": "view",
      "type": "function"
    },
    {
      "inputs": [
        {
          "internalType": "uint256",
          "name": "_lockId",
          "type": "uint256"
        },
        {
          "internalType": "uint256",
          "name": "_timestamp",
          "type": "uint256"
        }
      ],
      "name": "balanceOfLockAt",
      "outputs": [
        {
          "internalType": "uint256",
          "name": "",
          "type": "uint256"
        }
      ],
      "stateMutability": "view",
      "type": "function"
    },
    {
      "inputs": [
        {
          "internalType": "address",
          "name": "_addr",
          "type": "address"
        }
      ],
      "name": "balanceOfUnlimited",
      "outputs": [
        {
          "internalType": "uint256",
          "name": "balance",
          "type": "uint256"
        }
      ],
      "stateMutability": "view",
      "type": "function"
    },
    {
      "inputs": [
        {
          "internalType": "address",
          "name": "_addr",
          "type": "address"
        }
      ],
      "name": "balanceOfUnlimitedAmount",
      "outputs": [
        {
          "internalType": "uint256",
          "name": "amount",
          "type": "uint256"
        }
      ],
      "stateMutability": "view",
      "type": "function"
    },
    {
      "inputs": [
        {
          "internalType": "address",
          "name": "_addr",
          "type": "address"
        },
        {
          "internalType": "uint256",
          "name": "_timestamp",
          "type": "uint256"
        }
      ],
      "name": "balanceOfUnlimitedAt",
      "outputs": [
        {
          "internalType": "uint256",
          "name": "balance",
          "type": "uint256"
        }
      ],
      "stateMutability": "view",
      "type": "function"
    },
    {
      "inputs": [
        {
          "components": [
            {
              "internalType": "uint32",
              "name": "timestamp",
              "type": "uint32"
            },
            {
              "internalType": "uint256",
              "name": "amount",
              "type": "uint256"
            }
          ],
          "internalType": "struct LibLockTOSv2.UnlimitedAmount",
          "name": "point",
          "type": "tuple"
        },
        {
          "internalType": "uint256",
          "name": "timestamp",
          "type": "uint256"
        }
      ],
      "name": "balanceOfUnlimitedAt",
      "outputs": [
        {
          "internalType": "uint256",
          "name": "",
          "type": "uint256"
        }
      ],
      "stateMutability": "view",
      "type": "function"
    },
    {
      "inputs": [],
      "name": "baseURI",
      "outputs": [
        {
          "internalType": "string",
          "name": "",
          "type": "string"
        }
      ],
      "stateMutability": "view",
      "type": "function"
    },
    {
      "inputs": [
        {
          "internalType": "uint256",
          "name": "_value",
          "type": "uint256"
        },
        {
          "internalType": "uint256",
          "name": "_unlockWeeks",
          "type": "uint256"
        }
      ],
      "name": "createLock",
      "outputs": [
        {
          "internalType": "uint256",
          "name": "lockId",
          "type": "uint256"
        }
      ],
      "stateMutability": "nonpayable",
      "type": "function"
    },
    {
      "inputs": [],
      "name": "cumulativeEpochUnit",
      "outputs": [
        {
          "internalType": "uint256",
          "name": "",
          "type": "uint256"
        }
      ],
      "stateMutability": "view",
      "type": "function"
    },
    {
      "inputs": [],
      "name": "cumulativeTOSAmount",
      "outputs": [
        {
          "internalType": "uint256",
          "name": "",
          "type": "uint256"
        }
      ],
      "stateMutability": "view",
      "type": "function"
    },
    {
      "inputs": [],
      "name": "currentStakedTotalTOS",
      "outputs": [
        {
          "internalType": "uint256",
          "name": "",
          "type": "uint256"
        }
      ],
      "stateMutability": "view",
      "type": "function"
    },
    {
      "inputs": [
        {
          "internalType": "address",
          "name": "account",
          "type": "address"
        },
        {
          "internalType": "uint256",
          "name": "amount",
          "type": "uint256"
        }
      ],
      "name": "decreaseUnlimitedLock",
      "outputs": [],
      "stateMutability": "nonpayable",
      "type": "function"
    },
    {
      "inputs": [
        {
          "internalType": "address",
          "name": "_addr",
          "type": "address"
        },
        {
          "internalType": "uint256",
          "name": "_lockId",
          "type": "uint256"
        },
        {
          "internalType": "uint256",
          "name": "_value",
          "type": "uint256"
        }
      ],
      "name": "depositFor",
      "outputs": [],
      "stateMutability": "nonpayable",
      "type": "function"
    },
    {
      "inputs": [],
      "name": "epochUnit",
      "outputs": [
        {
          "internalType": "uint256",
          "name": "",
          "type": "uint256"
        }
      ],
      "stateMutability": "view",
      "type": "function"
    },
    {
      "inputs": [
        {
          "internalType": "uint256",
          "name": "tokenId",
          "type": "uint256"
        }
      ],
      "name": "getApproved",
      "outputs": [
        {
          "internalType": "address",
          "name": "",
          "type": "address"
        }
      ],
      "stateMutability": "view",
      "type": "function"
    },
    {
      "inputs": [],
      "name": "getCurrentTime",
      "outputs": [
        {
          "internalType": "uint256",
          "name": "",
          "type": "uint256"
        }
      ],
      "stateMutability": "view",
      "type": "function"
    },
    {
      "inputs": [
        {
          "internalType": "bytes32",
          "name": "role",
          "type": "bytes32"
        }
      ],
      "name": "getRoleAdmin",
      "outputs": [
        {
          "internalType": "bytes32",
          "name": "",
          "type": "bytes32"
        }
      ],
      "stateMutability": "view",
      "type": "function"
    },
    {
      "inputs": [],
      "name": "globalCheckpoint",
      "outputs": [],
      "stateMutability": "nonpayable",
      "type": "function"
    },
    {
      "inputs": [
        {
          "internalType": "bytes32",
          "name": "role",
          "type": "bytes32"
        },
        {
          "internalType": "address",
          "name": "account",
          "type": "address"
        }
      ],
      "name": "grantRole",
      "outputs": [],
      "stateMutability": "nonpayable",
      "type": "function"
    },
    {
      "inputs": [
        {
          "internalType": "bytes32",
          "name": "role",
          "type": "bytes32"
        },
        {
          "internalType": "address",
          "name": "account",
          "type": "address"
        }
      ],
      "name": "hasRole",
      "outputs": [
        {
          "internalType": "bool",
          "name": "",
          "type": "bool"
        }
      ],
      "stateMutability": "view",
      "type": "function"
    },
    {
      "inputs": [
        {
          "internalType": "uint256",
          "name": "",
          "type": "uint256"
        }
      ],
      "name": "inUse",
      "outputs": [
        {
          "internalType": "bool",
          "name": "",
          "type": "bool"
        }
      ],
      "stateMutability": "view",
      "type": "function"
    },
    {
      "inputs": [
        {
          "internalType": "uint256",
          "name": "_lockId",
          "type": "uint256"
        },
        {
          "internalType": "uint256",
          "name": "_value",
          "type": "uint256"
        }
      ],
      "name": "increaseAmount",
      "outputs": [],
      "stateMutability": "nonpayable",
      "type": "function"
    },
    {
      "inputs": [
        {
          "internalType": "address",
          "name": "_addr",
          "type": "address"
        },
        {
          "internalType": "uint256",
          "name": "_lockId",
          "type": "uint256"
        },
        {
          "internalType": "uint256",
          "name": "_value",
          "type": "uint256"
        },
        {
          "internalType": "uint256",
          "name": "_unlockWeeks",
          "type": "uint256"
        }
      ],
      "name": "increaseLock",
      "outputs": [],
      "stateMutability": "nonpayable",
      "type": "function"
    },
    {
      "inputs": [
        {
          "internalType": "address",
          "name": "account",
          "type": "address"
        },
        {
          "internalType": "uint256",
          "name": "amount",
          "type": "uint256"
        }
      ],
      "name": "increaseUnlimitedLock",
      "outputs": [],
      "stateMutability": "nonpayable",
      "type": "function"
    },
    {
      "inputs": [
        {
          "internalType": "uint256",
          "name": "_lockId",
          "type": "uint256"
        },
        {
          "internalType": "uint256",
          "name": "_unlockWeeks",
          "type": "uint256"
        }
      ],
      "name": "increaseUnlockTime",
      "outputs": [],
      "stateMutability": "nonpayable",
      "type": "function"
    },
    {
      "inputs": [
        {
          "internalType": "uint256",
          "name": "",
          "type": "uint256"
        }
      ],
      "name": "indexCheckOfTimesetForUnlimited",
      "outputs": [
        {
          "internalType": "bool",
          "name": "",
          "type": "bool"
        }
      ],
      "stateMutability": "view",
      "type": "function"
    },
    {
      "inputs": [
        {
          "internalType": "uint256",
          "name": "",
          "type": "uint256"
        }
      ],
      "name": "indexOfTimesetForUnlimited",
      "outputs": [
        {
          "internalType": "uint256",
          "name": "",
          "type": "uint256"
        }
      ],
      "stateMutability": "view",
      "type": "function"
    },
    {
      "inputs": [
        {
          "internalType": "address",
          "name": "_tos",
          "type": "address"
        },
        {
          "internalType": "uint256",
          "name": "_epochUnit",
          "type": "uint256"
        },
        {
          "internalType": "uint256",
          "name": "_maxTime",
          "type": "uint256"
        }
      ],
      "name": "initialize",
      "outputs": [],
      "stateMutability": "nonpayable",
      "type": "function"
    },
    {
      "inputs": [
        {
          "internalType": "address",
          "name": "account",
          "type": "address"
        }
      ],
      "name": "isAdmin",
      "outputs": [
        {
          "internalType": "bool",
          "name": "",
          "type": "bool"
        }
      ],
      "stateMutability": "view",
      "type": "function"
    },
    {
      "inputs": [
        {
          "internalType": "address",
          "name": "owner_",
          "type": "address"
        },
        {
          "internalType": "address",
          "name": "operator",
          "type": "address"
        }
      ],
      "name": "isApprovedForAll",
      "outputs": [
        {
          "internalType": "bool",
          "name": "",
          "type": "bool"
        }
      ],
      "stateMutability": "view",
      "type": "function"
    },
    {
      "inputs": [
        {
          "internalType": "uint256",
          "name": "_index",
          "type": "uint256"
        }
      ],
      "name": "lastPointOfTimeIndexForUnlimited",
      "outputs": [
        {
          "components": [
            {
              "internalType": "uint32",
              "name": "timestamp",
              "type": "uint32"
            },
            {
              "internalType": "uint256",
              "name": "amount",
              "type": "uint256"
            }
          ],
          "internalType": "struct LibLockTOSv2.UnlimitedAmount",
          "name": "",
          "type": "tuple"
        }
      ],
      "stateMutability": "view",
      "type": "function"
    },
    {
      "inputs": [],
      "name": "lockIdCounter",
      "outputs": [
        {
          "internalType": "uint256",
          "name": "",
          "type": "uint256"
        }
      ],
      "stateMutability": "view",
      "type": "function"
    },
    {
      "inputs": [
        {
          "internalType": "uint256",
          "name": "",
          "type": "uint256"
        },
        {
          "internalType": "uint256",
          "name": "",
          "type": "uint256"
        }
      ],
      "name": "lockPointHistory",
      "outputs": [
        {
          "internalType": "int256",
          "name": "bias",
          "type": "int256"
        },
        {
          "internalType": "int256",
          "name": "slope",
          "type": "int256"
        },
        {
          "internalType": "uint256",
          "name": "timestamp",
          "type": "uint256"
        }
      ],
      "stateMutability": "view",
      "type": "function"
    },
    {
      "inputs": [
        {
          "internalType": "uint256",
          "name": "_lockId",
          "type": "uint256"
        }
      ],
      "name": "locksInfo",
      "outputs": [
        {
          "internalType": "uint256",
          "name": "start",
          "type": "uint256"
        },
        {
          "internalType": "uint256",
          "name": "end",
          "type": "uint256"
        },
        {
          "internalType": "uint256",
          "name": "amount",
          "type": "uint256"
        }
      ],
      "stateMutability": "view",
      "type": "function"
    },
    {
      "inputs": [
        {
          "internalType": "address",
          "name": "_addr",
          "type": "address"
        }
      ],
      "name": "locksOf",
      "outputs": [
        {
          "internalType": "uint256[]",
          "name": "",
          "type": "uint256[]"
        }
      ],
      "stateMutability": "view",
      "type": "function"
    },
    {
      "inputs": [],
      "name": "maxTime",
      "outputs": [
        {
          "internalType": "uint256",
          "name": "",
          "type": "uint256"
        }
      ],
      "stateMutability": "view",
      "type": "function"
    },
    {
      "inputs": [],
      "name": "name",
      "outputs": [
        {
          "internalType": "string",
          "name": "",
          "type": "string"
        }
      ],
      "stateMutability": "view",
      "type": "function"
    },
    {
      "inputs": [],
      "name": "needCheckpoint",
      "outputs": [
        {
          "internalType": "bool",
          "name": "need",
          "type": "bool"
        }
      ],
      "stateMutability": "view",
      "type": "function"
    },
    {
      "inputs": [
        {
          "internalType": "uint256",
          "name": "_stime",
          "type": "uint256"
        }
      ],
      "name": "nextTimeIndex",
      "outputs": [
        {
          "internalType": "uint256",
          "name": "",
          "type": "uint256"
        }
      ],
      "stateMutability": "view",
      "type": "function"
    },
    {
      "inputs": [
        {
          "internalType": "uint256",
          "name": "tokenId",
          "type": "uint256"
        }
      ],
      "name": "ownerOf",
      "outputs": [
        {
          "internalType": "address",
          "name": "",
          "type": "address"
        }
      ],
      "stateMutability": "view",
      "type": "function"
    },
    {
      "inputs": [],
      "name": "pauseProxy",
      "outputs": [
        {
          "internalType": "bool",
          "name": "",
          "type": "bool"
        }
      ],
      "stateMutability": "view",
      "type": "function"
    },
    {
      "inputs": [
        {
          "internalType": "uint256",
          "name": "",
          "type": "uint256"
        }
      ],
      "name": "pointHistory",
      "outputs": [
        {
          "internalType": "int256",
          "name": "bias",
          "type": "int256"
        },
        {
          "internalType": "int256",
          "name": "slope",
          "type": "int256"
        },
        {
          "internalType": "uint256",
          "name": "timestamp",
          "type": "uint256"
        }
      ],
      "stateMutability": "view",
      "type": "function"
    },
    {
      "inputs": [
        {
          "internalType": "uint256",
          "name": "_lockId",
          "type": "uint256"
        }
      ],
      "name": "pointHistoryOf",
      "outputs": [
        {
          "components": [
            {
              "internalType": "int256",
              "name": "bias",
              "type": "int256"
            },
            {
              "internalType": "int256",
              "name": "slope",
              "type": "int256"
            },
            {
              "internalType": "uint256",
              "name": "timestamp",
              "type": "uint256"
            }
          ],
          "internalType": "struct LibLockTOSv2.Point[]",
          "name": "",
          "type": "tuple[]"
        }
      ],
      "stateMutability": "view",
      "type": "function"
    },
    {
      "inputs": [
        {
          "internalType": "address",
          "name": "account",
          "type": "address"
        }
      ],
      "name": "removeAdmin",
      "outputs": [],
      "stateMutability": "nonpayable",
      "type": "function"
    },
    {
      "inputs": [
        {
          "internalType": "bytes32",
          "name": "role",
          "type": "bytes32"
        },
        {
          "internalType": "address",
          "name": "account",
          "type": "address"
        }
      ],
      "name": "renounceRole",
      "outputs": [],
      "stateMutability": "nonpayable",
      "type": "function"
    },
    {
      "inputs": [
        {
          "internalType": "bytes32",
          "name": "role",
          "type": "bytes32"
        },
        {
          "internalType": "address",
          "name": "account",
          "type": "address"
        }
      ],
      "name": "revokeRole",
      "outputs": [],
      "stateMutability": "nonpayable",
      "type": "function"
    },
    {
      "inputs": [
        {
          "internalType": "address",
          "name": "from",
          "type": "address"
        },
        {
          "internalType": "address",
          "name": "to",
          "type": "address"
        },
        {
          "internalType": "uint256",
          "name": "tokenId",
          "type": "uint256"
        }
      ],
      "name": "safeTransferFrom",
      "outputs": [],
      "stateMutability": "nonpayable",
      "type": "function"
    },
    {
      "inputs": [
        {
          "internalType": "address",
          "name": "from",
          "type": "address"
        },
        {
          "internalType": "address",
          "name": "to",
          "type": "address"
        },
        {
          "internalType": "uint256",
          "name": "tokenId",
          "type": "uint256"
        },
        {
          "internalType": "bytes",
          "name": "_data",
          "type": "bytes"
        }
      ],
      "name": "safeTransferFrom",
      "outputs": [],
      "stateMutability": "nonpayable",
      "type": "function"
    },
    {
      "inputs": [
        {
          "internalType": "address",
          "name": "operator",
          "type": "address"
        },
        {
          "internalType": "bool",
          "name": "approved",
          "type": "bool"
        }
      ],
      "name": "setApprovalForAll",
      "outputs": [],
      "stateMutability": "nonpayable",
      "type": "function"
    },
    {
      "inputs": [
        {
          "internalType": "uint256",
          "name": "_maxTime",
          "type": "uint256"
        }
      ],
      "name": "setMaxTime",
      "outputs": [],
      "stateMutability": "nonpayable",
      "type": "function"
    },
    {
      "inputs": [
        {
          "internalType": "uint256",
          "name": "",
          "type": "uint256"
        }
      ],
      "name": "slopeChanges",
      "outputs": [
        {
          "internalType": "int256",
          "name": "",
          "type": "int256"
        }
      ],
      "stateMutability": "view",
      "type": "function"
    },
    {
      "inputs": [
        {
          "internalType": "bytes4",
          "name": "interfaceId",
          "type": "bytes4"
        }
      ],
      "name": "supportsInterface",
      "outputs": [
        {
          "internalType": "bool",
          "name": "",
          "type": "bool"
        }
      ],
      "stateMutability": "view",
      "type": "function"
    },
    {
      "inputs": [],
      "name": "symbol",
      "outputs": [
        {
          "internalType": "string",
          "name": "",
          "type": "string"
        }
      ],
      "stateMutability": "view",
      "type": "function"
    },
    {
      "inputs": [
        {
          "internalType": "uint256",
          "name": "tokenId",
          "type": "uint256"
        }
      ],
      "name": "tokenURI",
      "outputs": [
        {
          "internalType": "string",
          "name": "",
          "type": "string"
        }
      ],
      "stateMutability": "view",
      "type": "function"
    },
    {
      "inputs": [
        {
          "internalType": "uint256",
          "name": "",
          "type": "uint256"
        }
      ],
      "name": "tokenURIs",
      "outputs": [
        {
          "internalType": "string",
          "name": "",
          "type": "string"
        }
      ],
      "stateMutability": "view",
      "type": "function"
    },
    {
      "inputs": [],
      "name": "tos",
      "outputs": [
        {
          "internalType": "address",
          "name": "",
          "type": "address"
        }
      ],
      "stateMutability": "view",
      "type": "function"
    },
    {
      "inputs": [
        {
          "internalType": "address",
          "name": "_addr",
          "type": "address"
        }
      ],
      "name": "totalLockedAmountOf",
      "outputs": [
        {
          "internalType": "uint256",
          "name": "",
          "type": "uint256"
        }
      ],
      "stateMutability": "view",
      "type": "function"
    },
    {
      "inputs": [],
      "name": "totalSupply",
      "outputs": [
        {
          "internalType": "uint256",
          "name": "",
          "type": "uint256"
        }
      ],
      "stateMutability": "view",
      "type": "function"
    },
    {
      "inputs": [
        {
          "internalType": "uint256",
          "name": "_timestamp",
          "type": "uint256"
        }
      ],
      "name": "totalSupplyAt",
      "outputs": [
        {
          "internalType": "uint256",
          "name": "",
          "type": "uint256"
        }
      ],
      "stateMutability": "view",
      "type": "function"
    },
    {
      "inputs": [],
      "name": "totalSupplyBalance",
      "outputs": [
        {
          "internalType": "uint256",
          "name": "",
          "type": "uint256"
        }
      ],
      "stateMutability": "view",
      "type": "function"
    },
    {
      "inputs": [
        {
          "internalType": "uint256",
          "name": "_timestamp",
          "type": "uint256"
        }
      ],
      "name": "totalSupplyBalanceAt",
      "outputs": [
        {
          "internalType": "uint256",
          "name": "",
          "type": "uint256"
        }
      ],
      "stateMutability": "view",
      "type": "function"
    },
    {
      "inputs": [],
      "name": "totalSupplyUnlimited",
      "outputs": [
        {
          "internalType": "uint256",
          "name": "amount",
          "type": "uint256"
        }
      ],
      "stateMutability": "view",
      "type": "function"
    },
    {
      "inputs": [
        {
          "internalType": "uint256",
          "name": "_timestamp",
          "type": "uint256"
        }
      ],
      "name": "totalSupplyUnlimitedAt",
      "outputs": [
        {
          "internalType": "uint256",
          "name": "amount",
          "type": "uint256"
        }
      ],
      "stateMutability": "view",
      "type": "function"
    },
    {
      "inputs": [
        {
          "internalType": "address",
          "name": "newAdmin",
          "type": "address"
        }
      ],
      "name": "transferAdmin",
      "outputs": [],
      "stateMutability": "nonpayable",
      "type": "function"
    },
    {
      "inputs": [
        {
          "internalType": "address",
          "name": "from",
          "type": "address"
        },
        {
          "internalType": "address",
          "name": "to",
          "type": "address"
        },
        {
          "internalType": "uint256",
          "name": "tokenId",
          "type": "uint256"
        }
      ],
      "name": "transferFrom",
      "outputs": [],
      "stateMutability": "nonpayable",
      "type": "function"
    },
    {
      "inputs": [
        {
          "internalType": "address",
          "name": "from",
          "type": "address"
        },
        {
          "internalType": "address",
          "name": "to",
          "type": "address"
        },
        {
          "internalType": "uint256",
          "name": "amount",
          "type": "uint256"
        }
      ],
      "name": "transferFromUnlimited",
      "outputs": [],
      "stateMutability": "nonpayable",
      "type": "function"
    },
    {
      "inputs": [
        {
          "internalType": "address",
          "name": "",
          "type": "address"
        },
        {
          "internalType": "uint256",
          "name": "",
          "type": "uint256"
        }
      ],
      "name": "unlimitedAmountByAccount",
      "outputs": [
        {
          "internalType": "uint32",
          "name": "timestamp",
          "type": "uint32"
        },
        {
          "internalType": "uint256",
          "name": "amount",
          "type": "uint256"
        }
      ],
      "stateMutability": "view",
      "type": "function"
    },
    {
      "inputs": [
        {
          "internalType": "uint256",
          "name": "",
          "type": "uint256"
        },
        {
          "internalType": "uint256",
          "name": "",
          "type": "uint256"
        }
      ],
      "name": "unlimitedHistoryByWeek",
      "outputs": [
        {
          "internalType": "uint32",
          "name": "timestamp",
          "type": "uint32"
        },
        {
          "internalType": "uint256",
          "name": "amount",
          "type": "uint256"
        }
      ],
      "stateMutability": "view",
      "type": "function"
    },
    {
      "inputs": [
        {
          "internalType": "address",
          "name": "",
          "type": "address"
        },
        {
          "internalType": "uint256",
          "name": "",
          "type": "uint256"
        }
      ],
      "name": "userLocks",
      "outputs": [
        {
          "internalType": "uint256",
          "name": "",
          "type": "uint256"
        }
      ],
      "stateMutability": "view",
      "type": "function"
    },
    {
      "inputs": [
        {
          "internalType": "address",
          "name": "",
          "type": "address"
        },
        {
          "internalType": "uint256",
          "name": "",
          "type": "uint256"
        }
      ],
      "name": "userLocksCheck",
      "outputs": [
        {
          "internalType": "bool",
          "name": "",
          "type": "bool"
        }
      ],
      "stateMutability": "view",
      "type": "function"
    },
    {
      "inputs": [
        {
          "internalType": "uint256",
          "name": "_lockId",
          "type": "uint256"
        }
      ],
      "name": "withdraw",
      "outputs": [],
      "stateMutability": "nonpayable",
      "type": "function"
    },
    {
      "inputs": [],
      "name": "withdrawAll",
      "outputs": [],
      "stateMutability": "nonpayable",
      "type": "function"
    },
    {
      "inputs": [
        {
          "internalType": "address",
          "name": "_addr",
          "type": "address"
        }
      ],
      "name": "withdrawableAmountOf",
      "outputs": [
        {
          "internalType": "uint256",
          "name": "",
          "type": "uint256"
        }
      ],
      "stateMutability": "view",
      "type": "function"
    },
    {
      "inputs": [
        {
          "internalType": "address",
          "name": "_addr",
          "type": "address"
        }
      ],
      "name": "withdrawableLocksOf",
      "outputs": [
        {
          "internalType": "uint256[]",
          "name": "",
          "type": "uint256[]"
        }
      ],
      "stateMutability": "view",
      "type": "function"
    }
  ],
  "bytecode": "0x608060405260016018553480156200001657600080fd5b506040516200617838038062006178833981016040819052620000399162000259565b62000054600080516020620061588339815191528062000095565b6200006f6000805160206200615883398151915233620000e0565b60076200007d838262000352565b5060076200008c828262000352565b5050506200041e565b600082815260196020526040808220600101805490849055905190918391839186917fbd79b86ffe0ab8e8776151514217cd7cacd52c909f66475c3af44e129f0b00ff9190a4505050565b620000ec8282620000f0565b5050565b60008281526019602090815260408083206001600160a01b038516845290915290205460ff16620000ec5760008281526019602090815260408083206001600160a01b03851684529091529020805460ff19166001179055620001503390565b6001600160a01b0316816001600160a01b0316837f2f8788117e7eff1d82e926ec794901d17c78024a50270940304540a733656f0d60405160405180910390a45050565b634e487b7160e01b600052604160045260246000fd5b600082601f830112620001bc57600080fd5b81516001600160401b0380821115620001d957620001d962000194565b604051601f8301601f19908116603f0116810190828211818310171562000204576200020462000194565b816040528381526020925086838588010111156200022157600080fd5b600091505b8382101562000245578582018301518183018401529082019062000226565b600093810190920192909252949350505050565b600080604083850312156200026d57600080fd5b82516001600160401b03808211156200028557600080fd5b6200029386838701620001aa565b93506020850151915080821115620002aa57600080fd5b50620002b985828601620001aa565b9150509250929050565b600181811c90821680620002d857607f821691505b602082108103620002f957634e487b7160e01b600052602260045260246000fd5b50919050565b601f8211156200034d57600081815260208120601f850160051c81016020861015620003285750805b601f850160051c820191505b81811015620003495782815560010162000334565b5050505b505050565b81516001600160401b038111156200036e576200036e62000194565b62000386816200037f8454620002c3565b84620002ff565b602080601f831160018114620003be5760008415620003a55750858301515b600019600386901b1c1916600185901b17855562000349565b600085815260208120601f198616915b82811015620003ef57888601518255948401946001909101908401620003ce565b50858210156200040e5787850151600019600388901b60f8161c191681555b5050505050600190811b01905550565b615d2a806200042e6000396000f3fe608060405234801561001057600080fd5b50600436106105d85760003560e01c8063872d010911610303578063b88d4fde1161019c578063d547741f116100ee578063ea31e895116100a2578063f1e47d3d1161007c578063f1e47d3d14610dd3578063f52a36f714610de6578063fd2dcecf14610e0657600080fd5b8063ea31e89514610d8a578063eb86b34214610d92578063edc3bc3f14610da557600080fd5b8063dd383394116100d3578063dd38339414610d11578063e268b45a14610d24578063e985e9c514610d4e57600080fd5b8063d547741f14610ceb578063db23690914610cfe57600080fd5b8063c79acdda11610150578063cd29ca0e1161012a578063cd29ca0e14610cbc578063cdc4717c14610cc5578063ce344e4c14610cd857600080fd5b8063c79acdda14610c73578063c87b56dd14610c96578063c9250d5914610ca957600080fd5b8063b9f2679b11610181578063b9f2679b14610c05578063c3f9ab5814610c33578063c5dc1e5f14610c5357600080fd5b8063b88d4fde14610bdf578063b94419e014610bf257600080fd5b80639d507b8b11610255578063aecbab8811610209578063b52c05fe116101e3578063b52c05fe14610bb0578063b534ad5614610bc3578063b8355a4b14610bcc57600080fd5b8063aecbab8814610b81578063afae883e14610b94578063b2383e5514610b9d57600080fd5b8063a22cb4651161023a578063a22cb46514610b32578063a7cc013614610b45578063aa33fedb14610b6e57600080fd5b80639d507b8b14610b17578063a217fddf14610b2a57600080fd5b806395d89b41116102b757806398b777e71161029157806398b777e714610ac1578063993b6ef914610ad45780639ce5630514610ae757600080fd5b806395d89b4114610a9e5780639636f8f114610aa6578063981b24d014610aae57600080fd5b80638ad4c447116102e85780638ad4c44714610a3f5780638d31814d14610a5257806391d1485414610a6557600080fd5b8063872d010914610a0957806389f395de14610a2c57600080fd5b8063367b7b231161047557806363d5a3d9116103c757806370a082311161037b57806375b238fc1161035557806375b238fc146109c75780637a1ac61e146109ee578063853828b614610a0157600080fd5b806370a08231146109725780637267ad631461098557806375829def146109b457600080fd5b80636c0360eb116103ac5780636c0360eb146109445780636c8b703f1461094c578063704802751461095f57600080fd5b806363d5a3d9146108b8578063642cf6491461093157600080fd5b80634ae5cc39116104295780635b3cbf50116104035780635b3cbf501461086f5780636352211e1461088257806363a8fd89146108ab57600080fd5b80634ae5cc39146108365780634cf5fbf5146108495780634ee2cd7e1461085c57600080fd5b806341668abe1161045a57806341668abe146107fd57806342842e0e1461081057806346ff84b91461082357600080fd5b8063367b7b23146107bc5780633e47a4b1146107ea57600080fd5b80631ac40e661161052e578063248a9ca3116104e25780632e1a7d4d116104bc5780632e1a7d4d146107835780632f2ff15d1461079657806336568abe146107a957600080fd5b8063248a9ca31461074757806324d7806c1461076a57806329cb924d1461077d57600080fd5b80632298524611610513578063229852461461070457806322e67e711461072b57806323b872dd1461073457600080fd5b80631ac40e66146106e95780631d64d2cf146106f157600080fd5b8063095ea7b3116105905780630dc4b5511161056a5780630dc4b5511461069a5780631785f53c146106ce57806318160ddd146106e157600080fd5b8063095ea7b31461067557806309bd78611461068a5780630b7858ba1461069257600080fd5b806306fdde03116105c157806306fdde0314610622578063081812fc14610637578063086c46f41461066257600080fd5b806301ffc9a7146105dd578063059f8b1614610605575b600080fd5b6105f06105eb366004615651565b610e0f565b60405190151581526020015b60405180910390f35b610614670de0b6b3a764000081565b6040519081526020016105fc565b61062a610e46565b6040516105fc919061569f565b61064a6106453660046156d2565b610ed4565b6040516001600160a01b0390911681526020016105fc565b610614610670366004615707565b610f71565b610688610683366004615722565b611074565b005b61061461119b565b6105f06111f7565b6106ad6106a83660046156d2565b611252565b60408051825163ffffffff16815260209283015192810192909252016105fc565b6106886106dc366004615707565b611374565b610614611401565b610688611422565b6106146106ff366004615707565b61142a565b6106147ffb5864e8ff833c3cb2d2d08505e82ff02a43554c74a35d4f5a64e8526127831181565b61061460025481565b61068861074236600461574c565b6114c5565b6106146107553660046156d2565b60009081526019602052604090206001015490565b6105f0610778366004615707565b611538565b42610614565b6106886107913660046156d2565b611578565b6106886107a4366004615788565b61162d565b6106886107b7366004615788565b611652565b6107cf6107ca3660046157b4565b6116de565b604080519384526020840192909252908201526060016105fc565b6106146107f8366004615707565b611720565b61061461080b366004615722565b6117e7565b61068861081e36600461574c565b6118b1565b610688610831366004615722565b6118cc565b610688610844366004615722565b611acc565b6106886108573660046157d6565b611bda565b61061461086a366004615722565b611e29565b61061461087d366004615722565b611e49565b61064a6108903660046156d2565b6000908152600e60205260409020546001600160a01b031690565b6000546105f09060ff1681565b6108ff6108c63660046156d2565b600e60205260009081526040902080546001820154600283015460038401546004909401546001600160a01b0390931693919290919085565b604080516001600160a01b0390961686526020860194909452928401919091526060830152608082015260a0016105fc565b61061461093f3660046157b4565b611e94565b61062a611f23565b61062a61095a3660046156d2565b611f30565b61068861096d366004615707565b611f49565b610614610980366004615707565b611fd3565b6109986109933660046157b4565b611ff1565b6040805163ffffffff90931683526020830191909152016105fc565b6106886109c2366004615707565b612034565b6106147fdf8b4c520ffe197c5343c6f5aec59570151ef9a492f2c624fd45ddde6135ec4281565b6106886109fc3660046157d6565b612196565b610688612278565b6105f0610a173660046156d2565b60176020526000908152604090205460ff1681565b60035461064a906001600160a01b031681565b6107cf610a4d3660046156d2565b612437565b610614610a60366004615707565b61246a565b6105f0610a73366004615788565b60009182526019602090815260408084206001600160a01b0393909316845291905290205460ff1690565b61062a6124d3565b6106146124e0565b610614610abc3660046156d2565b6125b4565b610688610acf3660046156d2565b6125c8565b610998610ae2366004615722565b61262d565b6107cf610af53660046156d2565b6000908152600e60205260409020600181015460028201546003909201549092565b610688610b253660046157b4565b612649565b610614600081565b610688610b40366004615817565b61292a565b61064a610b533660046156d2565b6012602052600090815260409020546001600160a01b031681565b610614610b7c366004615722565b6129ee565b610614610b8f366004615895565b612a1f565b61061460045481565b610688610bab3660046157b4565b612a8b565b610614610bbe3660046157b4565b612a96565b61061460055481565b610614610bda3660046156d2565b612c9f565b610688610bed36600461590b565b612cc0565b610614610c003660046156d2565b612d3a565b6105f0610c13366004615722565b600d60209081526000928352604080842090915290825290205460ff1681565b610c46610c41366004615707565b612e10565b6040516105fc91906159cb565b610c66610c613660046156d2565b612e7c565b6040516105fc9190615a0f565b6105f0610c813660046156d2565b60116020526000908152604090205460ff1681565b61062a610ca43660046156d2565b612f0c565b610688610cb736600461574c565b6130dd565b61061460065481565b610614610cd33660046156d2565b6131c9565b610614610ce63660046156d2565b6131ee565b610688610cf9366004615788565b613241565b610614610d0c3660046156d2565b613266565b610c46610d1f366004615707565b6132c0565b610d37610d323660046156d2565b613503565b6040805192151583526020830191909152016105fc565b6105f0610d5c366004615a68565b6001600160a01b03918216600090815260136020908152604080832093909416825291909152205460ff1690565b61061461360c565b610614610da0366004615707565b613679565b6105f0610db3366004615a68565b601360209081526000928352604080842090915290825290205460ff1681565b610688610de1366004615a92565b61379d565b610614610df43660046156d2565b60106020526000908152604090205481565b61061460015481565b60006001600160e01b03198216637965db0b60e01b1480610e4057506301ffc9a760e01b6001600160e01b03198316145b92915050565b60078054610e5390615acb565b80601f0160208091040260200160405190810160405280929190818152602001828054610e7f90615acb565b8015610ecc5780601f10610ea157610100808354040283529160200191610ecc565b820191906000526020600020905b815481529060010190602001808311610eaf57829003601f168201915b505050505081565b6000818152600e60205260408120546001600160a01b0316610f555760405162461bcd60e51b815260206004820152602f60248201527f4c6f636b49644e46543a20617070726f76656420717565727920666f72206e6f60448201526e3732bc34b9ba32b73a103a37b5b2b760891b60648201526084015b60405180910390fd5b506000908152601260205260409020546001600160a01b031690565b6001600160a01b0381166000908152600f602052604081205481805b8281101561106c576001600160a01b0385166000908152600f60205260408120805483908110610fbf57610fbf615b05565b60009182526020808320909101546001600160a01b0389168352600d8252604080842082855290925291205490915060ff161561105b576000818152600e6020908152604091829020825160a08101845281546001600160a01b031681526001820154928101929092526002810154928201929092526003820154606082018190526004909201546080820152906110579085615b31565b9350505b5061106581615b44565b9050610f8d565b509392505050565b6000818152600e60205260409020546001600160a01b039081169083168190036110e05760405162461bcd60e51b815260206004820152601960248201527f617070726f76616c20746f2063757272656e74206f776e6572000000000000006044820152606401610f4c565b336001600160a01b038216148061111a57506001600160a01b038116600090815260136020908152604080832033845290915290205460ff165b61118c5760405162461bcd60e51b815260206004820152603060248201527f617070726f76652063616c6c6572206973206e6f74206f776e6572206e6f722060448201527f617070726f76656420666f7220616c6c000000000000000000000000000000006064820152608401610f4c565b6111968383613af3565b505050565b6000806111e56016805490506000036111b5576000611252565b601680546111c590600190615b5d565b815481106111d5576111d5615b05565b9060005260206000200154611252565b90506111f18142612a1f565b91505090565b600b5460009080820361120c57600191505090565b600154600b60018361121e9190615b5d565b8154811061122e5761122e615b05565b9060005260206000209060030201600201544261124b9190615b5d565b1191505090565b60408051808201825260008082526020808301829052848252601581528382208054855181840281018401909652808652939492939091849084015b828210156112d35760008481526020908190206040805180820190915260028502909101805463ffffffff16825260019081015482840152908352909201910161128e565b505050509050805160001461135957604051806040016040528082600184516112fc9190615b5d565b8151811061130c5761130c615b05565b60200260200101516000015163ffffffff16815260200182600184516113329190615b5d565b8151811061134257611342615b05565b602002602001015160200151815250915050919050565b50506040805180820190915260008082526020820152919050565b61137d33611538565b6113d45760405162461bcd60e51b815260206004820152602260248201527f41636365737369626c653a2043616c6c6572206973206e6f7420616e2061646d60448201526134b760f11b6064820152608401610f4c565b6113fe7fdf8b4c520ffe197c5343c6f5aec59570151ef9a492f2c624fd45ddde6135ec4282611652565b50565b600061140b61119b565b6114136124e0565b61141d9190615b31565b905090565b6113fe613b5a565b6001600160a01b03811660009081526014602052604081205480156114bb576001600160a01b03831660009081526014602052604090206114b690611470600184615b5d565b8154811061148057611480615b05565b600091825260209182902060408051808201909152600290920201805463ffffffff168252600101549181019190915242612a1f565b6114be565b60005b9392505050565b6114cf3382613d7c565b61152d5760405162461bcd60e51b815260206004820152602960248201527f7472616e736665722063616c6c6572206973206e6f74206f776e6572206e6f7260448201526808185c1c1c9bdd995960ba1b6064820152608401610f4c565b611196838383613e73565b6001600160a01b03811660009081527f8fba020e3099c35ceeb1c3b938445522782f8d1d0a87d7fedea7b26025c6b6e4602052604081205460ff16610e40565b6018546001146115ca5760405162461bcd60e51b815260206004820152601860248201527f4c6f636b496420697320616c726561647920696e2075736500000000000000006044820152606401610f4c565b60006018558061161c5760405162461bcd60e51b815260206004820152600f60248201527f5f6c6f636b4964206973207a65726f00000000000000000000000000000000006044820152606401610f4c565b6116258161419c565b506001601855565b600082815260196020526040902060010154611648816144df565b61119683836144e9565b6001600160a01b03811633146116d05760405162461bcd60e51b815260206004820152602f60248201527f416363657373436f6e74726f6c3a2063616e206f6e6c792072656e6f756e636560448201527f20726f6c657320666f722073656c6600000000000000000000000000000000006064820152608401610f4c565b6116da828261458b565b5050565b600c60205281600052604060002081815481106116fa57600080fd5b600091825260209091206003909102018054600182015460029092015490935090915083565b6001600160a01b0381166000908152600f602090815260408083208054825181850281018501909352808352849383018282801561177d57602002820191906000526020600020905b815481526020019060010190808311611769575b5050505050905080516000036117965750600092915050565b60005b81518110156117e0576117c48282815181106117b7576117b7615b05565b6020026020010151612d3a565b6117ce9084615b31565b92506117d981615b44565b9050611799565b5050919050565b6001600160a01b0382166000908152600f602090815260408083208054825181850281018501909352808352849383018282801561184457602002820191906000526020600020905b815481526020019060010190808311611830575b50505050509050805160000361185e576000915050610e40565b60005b81518110156118a95761188d82828151811061187f5761187f615b05565b602002602001015185611e94565b6118979084615b31565b92506118a281615b44565b9050611861565b505092915050565b61119683838360405180602001604052806000815250612cc0565b808060000361190b5760405162461bcd60e51b815260206004820152600b60248201526a1e995c9bc8185b5bdd5b9d60aa1b6044820152606401610f4c565b336001600160a01b038416146119635760405162461bcd60e51b815260206004820152601560248201527f63616c6c6572206973206e6f74206163636f756e7400000000000000000000006044820152606401610f4c565b611970838360008061460e565b61197b8260006148ad565b60006001546001546001546001546002546119969190615b70565b6119a09190615b92565b6119aa9042615b31565b6119b49190615b70565b6119be9190615b92565b905060006004600081546119d190615b44565b918290555090506119e88582868560016000614ab9565b6001600160a01b0385166000818152600d602090815260408083208584528252808320805460ff19166001908117909155848452600f83528184208054918201815584529282902090920184905581513381529081019290925281018590527fa40823e7add821b786067b9a190d574aba8d76b3fcf80436dc924cf5b655f7e79060600160405180910390a1604080516001600160a01b038716815260208101839052908101859052606081018390527f71fc552ee832a9004ea0bdb07cb6dd9d641eb2cb53b3cfe88c8fdcff886734a09060800160405180910390a15050505050565b8080600003611b0b5760405162461bcd60e51b815260206004820152600b60248201526a1e995c9bc8185b5bdd5b9d60aa1b6044820152606401610f4c565b336001600160a01b03841614611b635760405162461bcd60e51b815260206004820152601560248201527f63616c6c6572206973206e6f74206163636f756e7400000000000000000000006044820152606401610f4c565b81600654611b719190615b31565b600655611b81838360018061460e565b611b8c8260016148ad565b604080513381526001600160a01b03851660208201529081018390527f51e578c496328387543605b973ddf715fa0d567e5ffecef9d2ef95181820d0539060600160405180910390a1505050565b60008111611c2a5760405162461bcd60e51b815260206004820152601f60248201527f56616c7565206c6f636b65642073686f756c64206265206e6f6e2d7a65726f006044820152606401610f4c565b6000828152600e6020908152604091829020825160a08101845281546001600160a01b0390811680835260018401549483019490945260028301549482019490945260038201546060820152600490910154608082015291851614611cd15760405162461bcd60e51b815260206004820152601a60248201527f6c6f636b49642773206f776e6572206973206e6f7420616464720000000000006044820152606401610f4c565b608081015115611d235760405162461bcd60e51b815260206004820152601160248201527f4c6f636b2069732077697468647261776e0000000000000000000000000000006044820152606401610f4c565b6000816020015111611d6d5760405162461bcd60e51b8152602060048201526013602482015272131bd8dac8191bd95cc81b9bdd08195e1a5cdd606a1b6044820152606401610f4c565b42816040015111611dc05760405162461bcd60e51b815260206004820152601560248201527f4c6f636b2074696d652069732066696e697368656400000000000000000000006044820152606401610f4c565b81600654611dce9190615b31565b600655611de18484846000600180614ab9565b60408051338152602081018590529081018390527fea44bc904f77b1be47cd5b840b00f19b7238f88d7524fa5a86629282bfe6bcc5906060015b60405180910390a150505050565b6000611e358383611e49565b611e3f84846117e7565b6114be9190615b31565b6001600160a01b038216600090815260146020526040812081908190611e6f9085614df0565b915091508115611e8857611e838185612a1f565b611e8b565b60005b95945050505050565b6000828152600c6020526040812081908190611eb09085614f1a565b9150915081611ec457600092505050610e40565b6000816040015185611ed69190615b5d565b8260200151611ee59190615ba9565b9050670de0b6b3a764000081836000015113611f02576000611f0f565b8251611f0f908390615bd9565b611f199190615b70565b9695505050505050565b600a8054610e5390615acb565b60096020526000908152604090208054610e5390615acb565b611f5233611538565b611fa95760405162461bcd60e51b815260206004820152602260248201527f41636365737369626c653a2043616c6c6572206973206e6f7420616e2061646d60448201526134b760f11b6064820152608401610f4c565b6113fe7fdf8b4c520ffe197c5343c6f5aec59570151ef9a492f2c624fd45ddde6135ec428261162d565b6000611fde8261142a565b611fe783611720565b610e409190615b31565b6015602052816000526040600020818154811061200d57600080fd5b60009182526020909120600290910201805460019091015463ffffffff9091169250905082565b61203d33611538565b6120945760405162461bcd60e51b815260206004820152602260248201527f41636365737369626c653a2043616c6c6572206973206e6f7420616e2061646d60448201526134b760f11b6064820152608401610f4c565b6001600160a01b0381166120ea5760405162461bcd60e51b815260206004820152601860248201527f41636365737369626c653a207a65726f206164647265737300000000000000006044820152606401610f4c565b6001600160a01b03811633036121425760405162461bcd60e51b815260206004820152601660248201527f41636365737369626c653a2073616d652061646d696e000000000000000000006044820152606401610f4c565b61216c7fdf8b4c520ffe197c5343c6f5aec59570151ef9a492f2c624fd45ddde6135ec428261162d565b6113fe7fdf8b4c520ffe197c5343c6f5aec59570151ef9a492f2c624fd45ddde6135ec4233611652565b61219f33611538565b6121f65760405162461bcd60e51b815260206004820152602260248201527f41636365737369626c653a2043616c6c6572206973206e6f7420616e2061646d60448201526134b760f11b6064820152608401610f4c565b6003546001600160a01b03161561224f5760405162461bcd60e51b815260206004820152601360248201527f416c726561647920696e697469616c697a6564000000000000000000000000006044820152606401610f4c565b600380546001600160a01b0319166001600160a01b039490941693909317909255600155600255565b6018546001146122ca5760405162461bcd60e51b815260206004820152601860248201527f4c6f636b496420697320616c726561647920696e2075736500000000000000006044820152606401610f4c565b60006018819055338152600f6020526040812080549091036122ec5750612430565b60005b815481101561242d576000600e600084848154811061231057612310615b05565b600091825260208083209091015483528281019390935260409182019020815160a08101835281546001600160a01b0316815260018201549381019390935260028101549183019190915260038101546060830152600401546080820181905290915015801561239c5750600083838154811061238f5761238f615b05565b9060005260206000200154115b80156123ac575060008160600151115b80156123bc575060008160200151115b80156123cc575060008160400151115b80156123db5750428160400151105b80156123f0575080516001600160a01b031633145b1561241a5761241a83838154811061240a5761240a615b05565b906000526020600020015461419c565b508061242581615b44565b9150506122ef565b50505b6001601855565b600b818154811061244757600080fd5b600091825260209091206003909102018054600182015460029092015490925083565b6001600160a01b03811660009081526014602052604081205480156114bb576001600160a01b03831660009081526014602052604090206124ac600183615b5d565b815481106124bc576124bc615b05565b9060005260206000209060020201600101546114be565b60088054610e5390615acb565b600b5460009081036124f25750600090565b600b80546000916125569161250990600190615b5d565b8154811061251957612519615b05565b9060005260206000209060030201604051806060016040529081600082015481526020016001820154815260200160028201548152505042615043565b9050600081604001514261256a9190615b5d565b82602001516125799190615ba9565b9050670de0b6b3a7640000818360000151136125965760006125a3565b82516125a3908390615bd9565b6125ad9190615b70565b9250505090565b60006125bf82613266565b611fe7836131ee565b6125d133611538565b6126285760405162461bcd60e51b815260206004820152602260248201527f41636365737369626c653a2043616c6c6572206973206e6f7420616e2061646d60448201526134b760f11b6064820152608401610f4c565b600255565b6014602052816000526040600020818154811061200d57600080fd5b600081116126995760405162461bcd60e51b815260206004820152601e60248201527f556e6c6f636b20706572696f64206c657373207468616e2061207765656b00006044820152606401610f4c565b806005546126a79190615b31565b6005556000828152600e6020908152604091829020825160a08101845281546001600160a01b031680825260018301549382019390935260028201549381019390935260038101546060840152600401546080830152331461274b5760405162461bcd60e51b815260206004820152601c60248201527f6c6f636b49642773206f776e6572206973206e6f742063616c6c6572000000006044820152606401610f4c565b60006001548361275b9190615b92565b826040015161276a9190615b31565b60015490915061277a8183615b70565b6127849190615b92565b6002549091506127944283615b5d565b106127e15760405162461bcd60e51b815260206004820152601a60248201527f4d617820756e6c6f636b2074696d6520697320332079656172730000000000006044820152606401610f4c565b428260400151116128345760405162461bcd60e51b815260206004820152601a60248201527f4c6f636b2074696d6520616c72656164792066696e69736865640000000000006044820152606401610f4c565b808260400151106128875760405162461bcd60e51b815260206004820152601d60248201527f4e6577206c6f636b2074696d65206d75737420626520677265617465720000006044820152606401610f4c565b60008260600151116128db5760405162461bcd60e51b815260206004820152601660248201527f4e6f206578697374696e67206c6f636b656420544f53000000000000000000006044820152606401610f4c565b6128ec338560008460016000614ab9565b60408051338152602081018690529081018290527fb8596b0e78133666b86648f60233cc2d078144d06df7874ea9f612a3ccc3e2fb90606001611e1b565b336001600160a01b038316036129825760405162461bcd60e51b815260206004820152601160248201527f617070726f766520746f2063616c6c65720000000000000000000000000000006044820152606401610f4c565b3360008181526013602090815260408083206001600160a01b03871680855290835292819020805460ff191686151590811790915590519081529192917f17307eab39ab6107e8899845ad3d59bd9653f200f220920489ca2b5937696c31910160405180910390a35050565b600f6020528160005260406000208181548110612a0a57600080fd5b90600052602060002001600091509150505481565b815160009063ffffffff16821080612a3957506020830151155b15612a4657506000610e40565b670de0b6b3a7640000600254600254670de0b6b3a76400008660200151612a6d9190615b92565b612a779190615b70565b612a819190615b92565b6114be9190615b70565b6116da338383611bda565b6000808311612ae75760405162461bcd60e51b815260206004820152601f60248201527f56616c7565206c6f636b65642073686f756c64206265206e6f6e2d7a65726f006044820152606401610f4c565b60008211612b375760405162461bcd60e51b815260206004820152601e60248201527f556e6c6f636b20706572696f64206c657373207468616e2061207765656b00006044820152606401610f4c565b81600554612b459190615b31565b600555600654612b56908490615b31565b600655600154600090612b699084615b92565b612b739042615b31565b600154909150612b838183615b70565b612b8d9190615b92565b600254909150612b9d4283615b5d565b1115612beb5760405162461bcd60e51b815260206004820152601a60248201527f4d617820756e6c6f636b2074696d6520697320332079656172730000000000006044820152606401610f4c565b600460008154612bfa90615b44565b91829055509150612c1033838684600180614ab9565b336000818152600d602090815260408083208684528252808320805460ff19166001908117909155848452600f835281842080549182018155845292829020909201859055815192835282018490528101859052606081018290527f71fc552ee832a9004ea0bdb07cb6dd9d641eb2cb53b3cfe88c8fdcff886734a09060800160405180910390a15092915050565b60168181548110612caf57600080fd5b600091825260209091200154905081565b612cca3383613d7c565b612d285760405162461bcd60e51b815260206004820152602960248201527f7472616e736665722063616c6c6572206973206e6f74206f776e6572206e6f7260448201526808185c1c1c9bdd995960ba1b6064820152608401610f4c565b612d348484848461514d565b50505050565b6000818152600c6020526040812054808203612d595750600092915050565b6000838152600c60205260408120612d72600184615b5d565b81548110612d8257612d82615b05565b9060005260206000209060030201604051806060016040529081600082015481526020016001820154815260200160028201548152505090506000816040015142612dcd9190615b5d565b8260200151612ddc9190615ba9565b9050670de0b6b3a764000081836000015113612df9576000612e06565b8251612e06908390615bd9565b611e8b9190615b70565b6001600160a01b0381166000908152600f6020908152604091829020805483518184028101840190945280845260609392830182828015612e7057602002820191906000526020600020905b815481526020019060010190808311612e5c575b50505050509050919050565b6060600c6000838152602001908152602001600020805480602002602001604051908101604052809291908181526020016000905b82821015612f015783829060005260206000209060030201604051806060016040529081600082015481526020016001820154815260200160028201548152505081526020019060010190612eb1565b505050509050919050565b6000818152600e60205260409020546060906001600160a01b0316612f735760405162461bcd60e51b815260206004820152601160248201527f6e6f6e6578697374656e7420746f6b656e0000000000000000000000000000006044820152606401610f4c565b60008281526009602052604081208054612f8c90615acb565b80601f0160208091040260200160405190810160405280929190818152602001828054612fb890615acb565b80156130055780601f10612fda57610100808354040283529160200191613005565b820191906000526020600020905b815481529060010190602001808311612fe857829003601f168201915b505050505090506000600a805461301b90615acb565b80601f016020809104026020016040519081016040528092919081815260200182805461304790615acb565b80156130945780601f1061306957610100808354040283529160200191613094565b820191906000526020600020905b81548152906001019060200180831161307757829003601f168201915b5050505050905080516000036130ab575092915050565b8151156117e05780826040516020016130c5929190615c00565b60405160208183030381529060405292505050919050565b336001600160a01b03841681148061311a57506001600160a01b0380851660009081526013602090815260408083209385168352929052205460ff165b6131665760405162461bcd60e51b815260206004820152600c60248201527f6e6f7420617070726f76656400000000000000000000000000000000000000006044820152606401610f4c565b613173848360008061460e565b61318183836001600061460e565b604080516001600160a01b038087168252851660208201529081018390527f726793e703f98147062939ddef576db74a98e705c0a44917aa4dfb32f249add690606001611e1b565b600154600090806131da8185615b31565b6131e49190615b70565b610e409190615b92565b600b54600090810361320257506000919050565b600080613210600b85614f1a565b9150915081613223575060009392505050565b61322d8185615043565b90506000816040015185612dcd9190615b5d565b60008281526019602052604090206001015461325c816144df565b611196838361458b565b600080600061327484613503565b9150915081613287575060009392505050565b600081815260156020526040812081906132a19087614df0565b91509150816132b65750600095945050505050565b611f198187612a1f565b6001600160a01b0381166000908152600f6020526040812054606091805b828110156133b6576001600160a01b0385166000908152600f6020526040812080548390811061331057613310615b05565b6000918252602080832090910154808352600e8252604092839020835160a08101855281546001600160a01b031681526001820154938101939093526002810154938301849052600381015460608401526004015460808301529250904210801590613380575060008160600151115b801561338e57506080810151155b156133a1578361339d81615b44565b9450505b505080806133ae90615b44565b9150506132de565b5060008167ffffffffffffffff8111156133d2576133d261584e565b6040519080825280602002602001820160405280156133fb578160200160208202803683370190505b5090506000915060005b838110156134fa576001600160a01b0386166000908152600f6020526040812080548390811061343757613437615b05565b6000918252602080832090910154808352600e8252604092839020835160a08101855281546001600160a01b0316815260018201549381019390935260028101549383018490526003810154606084015260040154608083015292509042108015906134a7575060008160600151115b80156134b557506080810151155b156134e5578184866134c681615b44565b9750815181106134d8576134d8615b05565b6020026020010181815250505b505080806134f290615b44565b915050613405565b50949350505050565b601654600154600091829182908061351b8188615b31565b6135259190615b92565b61352f9190615b70565b905081600003613546575060009485945092505050565b6000825b80613556836001615b31565b10156135ac576000600261356a8385615b31565b6135749190615b70565b9050836016828154811061358a5761358a615b05565b9060005260206000200154116135a2578092506135a6565b8091505b5061354a565b82601683815481106135c0576135c0615b05565b9060005260206000200154116135fd576001601683815481106135e5576135e5615b05565b90600052602060002001549550955050505050915091565b50600096879650945050505050565b6003546040516370a0823160e01b81523060048201526000916001600160a01b0316906370a0823190602401602060405180830381865afa158015613655573d6000803e3d6000fd5b505050506040513d601f19601f8201168201806040525081019061141d9190615c2f565b6001600160a01b0381166000908152600f602052604081205481805b8281101561106c576001600160a01b0385166000908152600f602052604081208054839081106136c7576136c7615b05565b60009182526020808320909101546001600160a01b0389168352600d8252604080842082855290925291205490915060ff161561378a576000818152600e6020908152604091829020825160a08101845281546001600160a01b03168152600182015492810192909252600281015492820183905260038101546060830152600401546080820152904210801590613763575060008160600151115b801561377157506080810151155b156137885760608101516137859085615b31565b93505b505b508061379581615b44565b915050613695565b60008211806137ac5750600081115b6137f85760405162461bcd60e51b815260206004820152601e60248201527f556e6c6f636b20706572696f64206c657373207468616e2061207765656b00006044820152606401610f4c565b6001600160a01b03841633146138505760405162461bcd60e51b815260206004820152601260248201527f73656e646572206973206e6f74206164647200000000000000000000000000006044820152606401610f4c565b6000838152600e6020908152604091829020825160a08101845281546001600160a01b03168082526001830154938201939093526002820154938101939093526003810154606084015260040154608083015233146138f15760405162461bcd60e51b815260206004820152601c60248201527f6c6f636b49642773206f776e6572206973206e6f742063616c6c6572000000006044820152606401610f4c565b600154600090806139028186615b92565b84604001516139119190615b31565b61391b9190615b70565b6139259190615b92565b6002549091506139354283615b5d565b106139825760405162461bcd60e51b815260206004820152601a60248201527f4d617820756e6c6f636b2074696d6520697320332079656172730000000000006044820152606401610f4c565b428260400151116139d55760405162461bcd60e51b815260206004820152601a60248201527f4c6f636b2074696d6520616c72656164792066696e69736865640000000000006044820152606401610f4c565b80826040015110613a285760405162461bcd60e51b815260206004820152601d60248201527f4e6577206c6f636b2074696d65206d75737420626520677265617465720000006044820152606401610f4c565b6000826060015111613a7c5760405162461bcd60e51b815260206004820152601660248201527f4e6f206578697374696e67206c6f636b656420544f53000000000000000000006044820152606401610f4c565b8215613a945782600554613a909190615b31565b6005555b613aa333868684600180614ab9565b6040805133815260208101879052908101859052606081018290527fd60c036b8c5e629bddc29fb36b954faab6aa2f176ab97664ca37318bf84f8cbb9060800160405180910390a1505050505050565b600081815260126020908152604080832080546001600160a01b0319166001600160a01b03878116918217909255600e909352818420549151859492909116917f8c5be1e5ebec7d5bd14f71427d1e84f3dd0314c0f7b2291e5b200ac8c7c3b92591a45050565b613b7e60405180606001604052806000815260200160008152602001600081525090565b600b54429015613be657600b8054613b9890600190615b5d565b81548110613ba857613ba8615b05565b906000526020600020906003020160405180606001604052908160008201548152602001600182015481526020016002820154815250509150613c06565b604051806060016040528060008152602001600081526020018281525091505b60006001546001548460400151613c1d9190615b70565b613c279190615b92565b90505b818114613d7757613c4860015482613c429190615b31565b83615158565b600081815260106020526040808220549086015192935091613c7690613c6e9085615b5d565b600154615158565b9050808560200151613c889190615ba9565b8551613c949190615bd9565b85526020850151613ca6908390615c48565b60208601528451600012613cbb576000613cbe565b84515b85526020850151600012613cd3576000613cd9565b84602001515b6020860190815260408601848152600b805460018101825560009190915287517f0175b7a638427703f0dbe7bb9bbf987a2551717b34e79f33b5b1008d1fa01db960039092029182015591517f0175b7a638427703f0dbe7bb9bbf987a2551717b34e79f33b5b1008d1fa01dba830155517f0175b7a638427703f0dbe7bb9bbf987a2551717b34e79f33b5b1008d1fa01dbb9091015550613c2a9050565b505090565b6000818152600e60205260408120546001600160a01b0316613df85760405162461bcd60e51b815260206004820152602f60248201527f4c6f636b49644e46543a206f70657261746f7220717565727920666f72206e6f60448201526e3732bc34b9ba32b73a103a37b5b2b760891b6064820152608401610f4c565b6000828152600e60205260409020546001600160a01b03908116908416811480613e3b5750836001600160a01b0316613e3084610ed4565b6001600160a01b0316145b80613e6b57506001600160a01b0380821660009081526013602090815260408083209388168352929052205460ff165b949350505050565b6001600160a01b038216613ec95760405162461bcd60e51b815260206004820152601260248201527f746f206973207a65726f206164647265737300000000000000000000000000006044820152606401610f4c565b6000818152600e6020908152604091829020825160a08101845281546001600160a01b0390811680835260018401549483019490945260028301549482019490945260038201546060820152600490910154608082015291851614613f7a5760405162461bcd60e51b815260206004820152602160248201527f7472616e73666572206f6620746f6b656e2074686174206973206e6f74206f776044820152603760f91b6064820152608401610f4c565b608081015115613fcc5760405162461bcd60e51b815260206004820152601860248201527f49742069732077697468647261776e20616c72656164792e00000000000000006044820152606401610f4c565b4281604001511161401f5760405162461bcd60e51b815260206004820152601560248201527f4c6f636b2074696d652069732066696e697368656400000000000000000000006044820152606401610f4c565b6000828152600e6020908152604080832042600480830182905582546001600160a01b031916835560018084018790556002808501889055600394850188905585516060810187528881528088018981528188019586528b8a52600c895296892080548085018255908a5297892081519890960290950196875594519086015590519390920192909255805491929182906140b990615b44565b91905081905590506140d8858285606001518660400151600080614ab9565b6001600160a01b038086166000818152600d602090815260408083208684528252808320805460ff19166001908117909155938352600f825280832080549485018155835290822090920184905590518392891691907fddf252ad1be2c89b69c2b068fc378daa952ba7f163c4a11628f55a4df523b3ef908290a480856001600160a01b0316876001600160a01b03167fddf252ad1be2c89b69c2b068fc378daa952ba7f163c4a11628f55a4df523b3ef60405160405180910390a4505050505050565b6000818152600e6020908152604091829020825160a08101845281546001600160a01b031680825260018301549382019390935260028201549381019390935260038101546060840152600401546080830152331461423d5760405162461bcd60e51b815260206004820152601c60248201527f6c6f636b49642773206f776e6572206973206e6f742063616c6c6572000000006044820152606401610f4c565b60808101511561428f5760405162461bcd60e51b815260206004820152601160248201527f416c72656164792077697468647261776e0000000000000000000000000000006044820152606401610f4c565b60008160200151116142d95760405162461bcd60e51b8152602060048201526013602482015272131bd8dac8191bd95cc81b9bdd08195e1a5cdd606a1b6044820152606401610f4c565b4281604001511061432c5760405162461bcd60e51b815260206004820152601660248201527f4c6f636b2074696d65206e6f742066696e6973686564000000000000000000006044820152606401610f4c565b60008160600151116143805760405162461bcd60e51b815260206004820152601560248201527f4e6f20616d6f756e7420746f20776974686472617700000000000000000000006044820152606401610f4c565b6040805160a08101825260008082526020820181905291810182905260608101919091524260808201526143b4818361516e565b6060828101516000858152600e60209081526040808320865181546001600160a01b0319166001600160a01b03918216178255878401516001830155878301516002830155958701516003808301919091556080880151600492830155885187168552600d84528285208a865290935292819020805460ff191690559054905163a9059cbb60e01b81523392810192909252602482018390529192919091169063a9059cbb906044016020604051808303816000875af115801561447c573d6000803e3d6000fd5b505050506040513d601f19601f820116820180604052508101906144a09190615c68565b5060408051338152602081018690529081018290527ff1206247bdd5e2e0cfc00bea4cf05fb8dc479ebee686f9549043179cc7013b3090606001611e1b565b6113fe8133615364565b60008281526019602090815260408083206001600160a01b038516845290915290205460ff166116da5760008281526019602090815260408083206001600160a01b03851684529091529020805460ff191660011790556145473390565b6001600160a01b0316816001600160a01b0316837f2f8788117e7eff1d82e926ec794901d17c78024a50270940304540a733656f0d60405160405180910390a45050565b60008281526019602090815260408083206001600160a01b038516845290915290205460ff16156116da5760008281526019602090815260408083206001600160a01b0385168085529252808320805460ff1916905551339285917ff6391f5c32d9c69d2a47ea670b442974b53935d1edc7fd64eb21e047a839171b9190a45050565b6001600160a01b038416600090815260146020526040812054908115614676576001600160a01b0386166000908152601460205260409020614651600184615b5d565b8154811061466157614661615b05565b90600052602060002090600202016001015490505b8361471b57816000036146cb5760405162461bcd60e51b815260206004820152601360248201527f6e6f20756e6c696d6974656420616d6f756e74000000000000000000000000006044820152606401610f4c565b8481101561471b5760405162461bcd60e51b815260206004820152601f60248201527f756e6c696d69746564416d6f756e7420697320696e73756666696369656e74006044820152606401610f4c565b600060405180604001604052804263ffffffff16815260200186614748576147438885615b5d565b614752565b6147528885615b31565b90526001600160a01b03881660009081526014602090815260408220805460018082018355918452928290208451600290940201805463ffffffff191663ffffffff9094169390931783559083015191015590508380156147b257508515155b156148a4576003546040516323b872dd60e01b8152336004820152306024820152604481018890526001600160a01b03909116906323b872dd906064016020604051808303816000875af115801561480e573d6000803e3d6000fd5b505050506040513d601f19601f820116820180604052508101906148329190615c68565b6148a45760405162461bcd60e51b815260206004820152602b60248201527f5f696e637265617365556e6c696d697465644163636f756e74207472616e736660448201527f657246726f6d206661696c0000000000000000000000000000000000000000006064820152608401610f4c565b50505050505050565b60006148b8426131c9565b60008181526015602090815260408083205481518083019092528382529181019290925291925081600003614903576016546148fc906000036111b5576000611252565b905061495f565b600083815260156020526040902061491c600184615b5d565b8154811061492c5761492c615b05565b600091825260209182902060408051808201909152600290920201805463ffffffff168252600101549181019190915290505b836149b85784816020015110156149b85760405162461bcd60e51b815260206004820152601d60248201527f696e73756666696369656e7420756e6c696d6974656420616d6f756e740000006044820152606401610f4c565b6040805180820190915263ffffffff421681526020828101519082015284156149f55785816020018181516149ed9190615b31565b905250614a0b565b8581602001818151614a079190615b5d565b9052505b60008481526015602090815260408083208054600180820183559185528385208651600290920201805463ffffffff191663ffffffff90921691909117815585840151910155868352601790915290205460ff16614ab1576000848152601760205260408120805460ff191660019081179091556016805491820181559091527fd833147d7dc355ba459fc788f669e58cfaf9dc25ddcd0702e87d69c7b5124289018490555b505050505050565b601854600114614b0b5760405162461bcd60e51b815260206004820152601860248201527f4c6f636b496420697320616c726561647920696e2075736500000000000000006044820152606401610f4c565b60006018819055506000600e60008781526020019081526020016000206040518060a00160405290816000820160009054906101000a90046001600160a01b03166001600160a01b03166001600160a01b03168152602001600182015481526020016002820154815260200160038201548152602001600482015481525050905060006040518060a00160405280896001600160a01b0316815260200183602001518152602001836040015181526020018360600151815260200160008152509050858160600151614bdd9190615b31565b60608201528415614bf057604081018590525b8060200151600003614c03574260208201525b8315614c1357614c13818361516e565b6000878152600e60209081526040808320845181546001600160a01b0319166001600160a01b0390911617815591840151600183015583015160028083019190915560608401516003830181905560808501516004909301929092555490614c8490670de0b6b3a764000090615b92565b614c8e9190615b70565b90506000428360400151614ca29190615b5d565b614cac9083615ba9565b6040805160608101825282815260208082018681524283850190815260008f8152600c84529485208054600181810183559187529390952084516003909402019283559051938201939093559151600290920191909155909150858015614d1257508815155b15614dde576003546040516323b872dd60e01b8152336004820152306024820152604481018b90526001600160a01b03909116906323b872dd906064016020604051808303816000875af1158015614d6e573d6000803e3d6000fd5b505050506040513d601f19601f82011682018060405250810190614d929190615c68565b614dde5760405162461bcd60e51b815260206004820152601a60248201527f4c6f636b544f533a206661696c207472616e7366657246726f6d0000000000006044820152606401610f4c565b50506001601855505050505050505050565b60408051808201909152600080825260208201819052908354600003614e195760009150614f13565b83546000905b80614e2b836001615b31565b1015614e8c5760006002614e3f8385615b31565b614e499190615b70565b905085878281548110614e5e57614e5e615b05565b600091825260209091206002909102015463ffffffff1611614e8257809250614e86565b8091505b50614e1f565b84868381548110614e9f57614e9f615b05565b600091825260209091206002909102015463ffffffff1611614f0c576001868381548110614ecf57614ecf615b05565b600091825260209182902060408051808201909152600290920201805463ffffffff16825260010154918101919091529094509250614f13915050565b6000935050505b9250929050565b6000614f4060405180606001604052806000815260200160008152602001600081525090565b8354600003614f525760009150614f13565b83546000905b80614f64836001615b31565b1015614fc05760006002614f788385615b31565b614f829190615b70565b905085878281548110614f9757614f97615b05565b90600052602060002090600302016002015411614fb657809250614fba565b8091505b50614f58565b84868381548110614fd357614fd3615b05565b90600052602060002090600302016002015411614f0c576001868381548110614ffe57614ffe615b05565b90600052602060002090600302018060405180606001604052908160008201548152602001600182015481526020016002820154815250509050935093505050614f13565b61506760405180606001604052806000815260200160008152602001600081525090565b6000600154600154856040015161507e9190615b70565b6150889190615b92565b90505b828114615145576150a9600154826150a39190615b31565b84615158565b6000818152601060205260408082205490870151929350916150cf90613c6e9085615b5d565b90508086602001516150e19190615ba9565b86516150ed9190615bd9565b865260208601516150ff908390615c48565b60208701528551600012615114576000615117565b85515b8652602086015160001261512c576000615132565b85602001515b602087015250506040840181905261508b565b509192915050565b612d34848484613e73565b600081831061516757816114be565b5090919050565b6040805160608082018352600080835260208084018290528385018290528451928301855281835282018190528184015291840151429290831080156151b8575060008560600151115b1561521357600254670de0b6b3a764000086606001516151d89190615b92565b6151e29190615b70565b602083015260408501516151f7908490615b5d565b82602001516152069190615ba9565b8252604080860151908301525b82846040015111801561522a575060008460600151115b1561528557600254670de0b6b3a7640000856060015161524a9190615b92565b6152549190615b70565b60208201526040840151615269908490615b5d565b81602001516152789190615ba9565b8152604080850151908201525b600061528f613b5a565b8251845191925061529f91615bd9565b81516152ab9190615c48565b8152602080830151908401516152c19190615bd9565b81602001516152d09190615c48565b602082015280516000126152e55760006152e8565b80515b815260208101516000126152fd576000615303565b80602001515b6020820152600b805482919061531b90600190615b5d565b8154811061532b5761532b615b05565b9060005260206000209060030201600082015181600001556020820151816001015560408201518160020155905050614ab183836153d9565b60008281526019602090815260408083206001600160a01b038516845290915290205460ff166116da5761539781615496565b6153a28360206154a8565b6040516020016153b3929190615c85565b60408051601f198184030181529082905262461bcd60e51b8252610f4c9160040161569f565b6040808301516000908152601060205281812054838301805183529290912054915190919042101561544c5760208301516154149082615c48565b905083604001518360400151036154375760208401516154349082615bd9565b90505b60408084015160009081526010602052208190555b428460400151118015615466575082604001518460400151115b15612d3457602084015161547a9083615bd9565b6040808601516000908152601060205220819055915050505050565b6060610e406001600160a01b03831660145b606060006154b7836002615b92565b6154c2906002615b31565b67ffffffffffffffff8111156154da576154da61584e565b6040519080825280601f01601f191660200182016040528015615504576020820181803683370190505b509050600360fc1b8160008151811061551f5761551f615b05565b60200101906001600160f81b031916908160001a905350600f60fb1b8160018151811061554e5761554e615b05565b60200101906001600160f81b031916908160001a9053506000615572846002615b92565b61557d906001615b31565b90505b6001811115615602577f303132333435363738396162636465660000000000000000000000000000000085600f16601081106155be576155be615b05565b1a60f81b8282815181106155d4576155d4615b05565b60200101906001600160f81b031916908160001a90535060049490941c936155fb81615d06565b9050615580565b5083156114be5760405162461bcd60e51b815260206004820181905260248201527f537472696e67733a20686578206c656e67746820696e73756666696369656e746044820152606401610f4c565b60006020828403121561566357600080fd5b81356001600160e01b0319811681146114be57600080fd5b60005b8381101561569657818101518382015260200161567e565b50506000910152565b60208152600082518060208401526156be81604085016020870161567b565b601f01601f19169190910160400192915050565b6000602082840312156156e457600080fd5b5035919050565b80356001600160a01b038116811461570257600080fd5b919050565b60006020828403121561571957600080fd5b6114be826156eb565b6000806040838503121561573557600080fd5b61573e836156eb565b946020939093013593505050565b60008060006060848603121561576157600080fd5b61576a846156eb565b9250615778602085016156eb565b9150604084013590509250925092565b6000806040838503121561579b57600080fd5b823591506157ab602084016156eb565b90509250929050565b600080604083850312156157c757600080fd5b50508035926020909101359150565b6000806000606084860312156157eb57600080fd5b6157f4846156eb565b95602085013595506040909401359392505050565b80151581146113fe57600080fd5b6000806040838503121561582a57600080fd5b615833836156eb565b9150602083013561584381615809565b809150509250929050565b634e487b7160e01b600052604160045260246000fd5b604051601f8201601f1916810167ffffffffffffffff8111828210171561588d5761588d61584e565b604052919050565b60008082840360608112156158a957600080fd5b60408112156158b757600080fd5b506040516040810181811067ffffffffffffffff821117156158db576158db61584e565b604052833563ffffffff811681146158f257600080fd5b8152602084810135908201529460409093013593505050565b6000806000806080858703121561592157600080fd5b61592a856156eb565b935060206159398187016156eb565b935060408601359250606086013567ffffffffffffffff8082111561595d57600080fd5b818801915088601f83011261597157600080fd5b8135818111156159835761598361584e565b615995601f8201601f19168501615864565b915080825289848285010111156159ab57600080fd5b808484018584013760008482840101525080935050505092959194509250565b6020808252825182820181905260009190848201906040850190845b81811015615a03578351835292840192918401916001016159e7565b50909695505050505050565b602080825282518282018190526000919060409081850190868401855b82811015615a5b5781518051855286810151878601528501518585015260609093019290850190600101615a2c565b5091979650505050505050565b60008060408385031215615a7b57600080fd5b615a84836156eb565b91506157ab602084016156eb565b60008060008060808587031215615aa857600080fd5b615ab1856156eb565b966020860135965060408601359560600135945092505050565b600181811c90821680615adf57607f821691505b602082108103615aff57634e487b7160e01b600052602260045260246000fd5b50919050565b634e487b7160e01b600052603260045260246000fd5b634e487b7160e01b600052601160045260246000fd5b80820180821115610e4057610e40615b1b565b600060018201615b5657615b56615b1b565b5060010190565b81810381811115610e4057610e40615b1b565b600082615b8d57634e487b7160e01b600052601260045260246000fd5b500490565b8082028115828204841417610e4057610e40615b1b565b80820260008212600160ff1b84141615615bc557615bc5615b1b565b8181058314821517610e4057610e40615b1b565b8181036000831280158383131683831282161715615bf957615bf9615b1b565b5092915050565b60008351615c1281846020880161567b565b835190830190615c2681836020880161567b565b01949350505050565b600060208284031215615c4157600080fd5b5051919050565b80820182811260008312801582168215821617156118a9576118a9615b1b565b600060208284031215615c7a57600080fd5b81516114be81615809565b7f416363657373436f6e74726f6c3a206163636f756e7420000000000000000000815260008351615cbd81601785016020880161567b565b7f206973206d697373696e6720726f6c65200000000000000000000000000000006017918401918201528351615cfa81602884016020880161567b565b01602801949350505050565b600081615d1557615d15615b1b565b50600019019056fea164736f6c6343000812000adf8b4c520ffe197c5343c6f5aec59570151ef9a492f2c624fd45ddde6135ec42",
  "linkReferences": {},
  "deployedLinkReferences": {}
}