{
  "_format": "hh-sol-artifact-1",
  "contractName": "L2AirdropTonVaultProxy",
  "sourceName": "contracts/L2/vaults/L2AirdropTonVaultProxy.sol",
  "abi": [
    {
      "inputs": [],
      "stateMutability": "nonpayable",
      "type": "constructor"
    },
    {
      "anonymous": false,
      "inputs": [
        {
          "indexed": true,
          "internalType": "bytes32",
          "name": "role",
          "type": "bytes32"
        },
        {
          "indexed": true,
          "internalType": "bytes32",
          "name": "previousAdminRole",
          "type": "bytes32"
        },
        {
          "indexed": true,
          "internalType": "bytes32",
          "name": "newAdminRole",
          "type": "bytes32"
        }
      ],
      "name": "RoleAdminChanged",
      "type": "event"
    },
    {
      "anonymous": false,
      "inputs": [
        {
          "indexed": true,
          "internalType": "bytes32",
          "name": "role",
          "type": "bytes32"
        },
        {
          "indexed": true,
          "internalType": "address",
          "name": "account",
          "type": "address"
        },
        {
          "indexed": true,
          "internalType": "address",
          "name": "sender",
          "type": "address"
        }
      ],
      "name": "RoleGranted",
      "type": "event"
    },
    {
      "anonymous": false,
      "inputs": [
        {
          "indexed": true,
          "internalType": "bytes32",
          "name": "role",
          "type": "bytes32"
        },
        {
          "indexed": true,
          "internalType": "address",
          "name": "account",
          "type": "address"
        },
        {
          "indexed": true,
          "internalType": "address",
          "name": "sender",
          "type": "address"
        }
      ],
      "name": "RoleRevoked",
      "type": "event"
    },
    {
      "anonymous": false,
      "inputs": [
        {
          "indexed": true,
          "internalType": "address",
          "name": "impl",
          "type": "address"
        },
        {
          "indexed": false,
          "internalType": "bool",
          "name": "alive",
          "type": "bool"
        }
      ],
      "name": "SetAliveImplementation",
      "type": "event"
    },
    {
      "anonymous": false,
      "inputs": [
        {
          "indexed": true,
          "internalType": "bytes4",
          "name": "selector",
          "type": "bytes4"
        },
        {
          "indexed": true,
          "internalType": "address",
          "name": "impl",
          "type": "address"
        }
      ],
      "name": "SetSelectorImplementation",
      "type": "event"
    },
    {
      "anonymous": false,
      "inputs": [
        {
          "indexed": false,
          "internalType": "address",
          "name": "l2Token",
          "type": "address"
        },
        {
          "indexed": false,
          "internalType": "address",
          "name": "newAdmin",
          "type": "address"
        }
      ],
      "name": "SetVaultAdmin",
      "type": "event"
    },
    {
      "anonymous": false,
      "inputs": [
        {
          "indexed": true,
          "internalType": "address",
          "name": "implementation",
          "type": "address"
        }
      ],
      "name": "Upgraded",
      "type": "event"
    },
    {
      "stateMutability": "payable",
      "type": "fallback"
    },
    {
      "inputs": [],
      "name": "ADMIN_ROLE",
      "outputs": [
        {
          "internalType": "bytes32",
          "name": "",
          "type": "bytes32"
        }
      ],
      "stateMutability": "view",
      "type": "function"
    },
    {
      "inputs": [],
      "name": "DEFAULT_ADMIN_ROLE",
      "outputs": [
        {
          "internalType": "bytes32",
          "name": "",
          "type": "bytes32"
        }
      ],
      "stateMutability": "view",
      "type": "function"
    },
    {
      "inputs": [],
      "name": "POLICY_ROLE",
      "outputs": [
        {
          "internalType": "bytes32",
          "name": "",
          "type": "bytes32"
        }
      ],
      "stateMutability": "view",
      "type": "function"
    },
    {
      "inputs": [
        {
          "internalType": "address",
          "name": "account",
          "type": "address"
        }
      ],
      "name": "addAdmin",
      "outputs": [],
      "stateMutability": "nonpayable",
      "type": "function"
    },
    {
      "inputs": [
        {
          "internalType": "address",
          "name": "",
          "type": "address"
        }
      ],
      "name": "aliveImplementation",
      "outputs": [
        {
          "internalType": "bool",
          "name": "",
          "type": "bool"
        }
      ],
      "stateMutability": "view",
      "type": "function"
    },
    {
      "inputs": [],
      "name": "dividendPool",
      "outputs": [
        {
          "internalType": "address",
          "name": "",
          "type": "address"
        }
      ],
      "stateMutability": "view",
      "type": "function"
    },
    {
      "inputs": [],
      "name": "ext",
      "outputs": [
        {
          "internalType": "address",
          "name": "",
          "type": "address"
        }
      ],
      "stateMutability": "view",
      "type": "function"
    },
    {
      "inputs": [
        {
          "internalType": "bytes32",
          "name": "role",
          "type": "bytes32"
        }
      ],
      "name": "getRoleAdmin",
      "outputs": [
        {
          "internalType": "bytes32",
          "name": "",
          "type": "bytes32"
        }
      ],
      "stateMutability": "view",
      "type": "function"
    },
    {
      "inputs": [
        {
          "internalType": "bytes4",
          "name": "_selector",
          "type": "bytes4"
        }
      ],
      "name": "getSelectorImplementation2",
      "outputs": [
        {
          "internalType": "address",
          "name": "impl",
          "type": "address"
        }
      ],
      "stateMutability": "view",
      "type": "function"
    },
    {
      "inputs": [
        {
          "internalType": "bytes32",
          "name": "role",
          "type": "bytes32"
        },
        {
          "internalType": "address",
          "name": "account",
          "type": "address"
        }
      ],
      "name": "grantRole",
      "outputs": [],
      "stateMutability": "nonpayable",
      "type": "function"
    },
    {
      "inputs": [
        {
          "internalType": "bytes32",
          "name": "role",
          "type": "bytes32"
        },
        {
          "internalType": "address",
          "name": "account",
          "type": "address"
        }
      ],
      "name": "hasRole",
      "outputs": [
        {
          "internalType": "bool",
          "name": "",
          "type": "bool"
        }
      ],
      "stateMutability": "view",
      "type": "function"
    },
    {
      "inputs": [],
      "name": "implementation",
      "outputs": [
        {
          "internalType": "address",
          "name": "",
          "type": "address"
        }
      ],
      "stateMutability": "view",
      "type": "function"
    },
    {
      "inputs": [
        {
          "internalType": "uint256",
          "name": "_index",
          "type": "uint256"
        }
      ],
      "name": "implementation2",
      "outputs": [
        {
          "internalType": "address",
          "name": "",
          "type": "address"
        }
      ],
      "stateMutability": "view",
      "type": "function"
    },
    {
      "inputs": [
        {
          "internalType": "address",
          "name": "account",
          "type": "address"
        }
      ],
      "name": "isAdmin",
      "outputs": [
        {
          "internalType": "bool",
          "name": "",
          "type": "bool"
        }
      ],
      "stateMutability": "view",
      "type": "function"
    },
    {
      "inputs": [],
      "name": "l2ProjectManager",
      "outputs": [
        {
          "internalType": "address",
          "name": "",
          "type": "address"
        }
      ],
      "stateMutability": "view",
      "type": "function"
    },
    {
      "inputs": [],
      "name": "pauseProxy",
      "outputs": [
        {
          "internalType": "bool",
          "name": "",
          "type": "bool"
        }
      ],
      "stateMutability": "view",
      "type": "function"
    },
    {
      "inputs": [
        {
          "internalType": "uint256",
          "name": "",
          "type": "uint256"
        }
      ],
      "name": "proxyImplementation",
      "outputs": [
        {
          "internalType": "address",
          "name": "",
          "type": "address"
        }
      ],
      "stateMutability": "view",
      "type": "function"
    },
    {
      "inputs": [
        {
          "internalType": "address",
          "name": "account",
          "type": "address"
        }
      ],
      "name": "removeAdmin",
      "outputs": [],
      "stateMutability": "nonpayable",
      "type": "function"
    },
    {
      "inputs": [
        {
          "internalType": "bytes32",
          "name": "role",
          "type": "bytes32"
        },
        {
          "internalType": "address",
          "name": "account",
          "type": "address"
        }
      ],
      "name": "renounceRole",
      "outputs": [],
      "stateMutability": "nonpayable",
      "type": "function"
    },
    {
      "inputs": [
        {
          "internalType": "bytes32",
          "name": "role",
          "type": "bytes32"
        },
        {
          "internalType": "address",
          "name": "account",
          "type": "address"
        }
      ],
      "name": "revokeRole",
      "outputs": [],
      "stateMutability": "nonpayable",
      "type": "function"
    },
    {
      "inputs": [
        {
          "internalType": "bytes4",
          "name": "",
          "type": "bytes4"
        }
      ],
      "name": "selectorImplementation",
      "outputs": [
        {
          "internalType": "address",
          "name": "",
          "type": "address"
        }
      ],
      "stateMutability": "view",
      "type": "function"
    },
    {
      "inputs": [
        {
          "internalType": "address",
          "name": "newImplementation",
          "type": "address"
        },
        {
          "internalType": "bool",
          "name": "_alive",
          "type": "bool"
        }
      ],
      "name": "setAliveImplementation2",
      "outputs": [],
      "stateMutability": "nonpayable",
      "type": "function"
    },
    {
      "inputs": [
        {
          "internalType": "address",
          "name": "newImplementation",
          "type": "address"
        },
        {
          "internalType": "uint256",
          "name": "_index",
          "type": "uint256"
        },
        {
          "internalType": "bool",
          "name": "_alive",
          "type": "bool"
        }
      ],
      "name": "setImplementation2",
      "outputs": [],
      "stateMutability": "nonpayable",
      "type": "function"
    },
    {
      "inputs": [
        {
          "internalType": "bool",
          "name": "_pause",
          "type": "bool"
        }
      ],
      "name": "setProxyPause",
      "outputs": [],
      "stateMutability": "nonpayable",
      "type": "function"
    },
    {
      "inputs": [
        {
          "internalType": "bytes4[]",
          "name": "_selectors",
          "type": "bytes4[]"
        },
        {
          "internalType": "address",
          "name": "_imp",
          "type": "address"
        }
      ],
      "name": "setSelectorImplementations2",
      "outputs": [],
      "stateMutability": "nonpayable",
      "type": "function"
    },
    {
      "inputs": [
        {
          "internalType": "bytes4",
          "name": "interfaceId",
          "type": "bytes4"
        }
      ],
      "name": "supportsInterface",
      "outputs": [
        {
          "internalType": "bool",
          "name": "",
          "type": "bool"
        }
      ],
      "stateMutability": "view",
      "type": "function"
    },
    {
      "inputs": [
        {
          "internalType": "address",
          "name": "newAdmin",
          "type": "address"
        }
      ],
      "name": "transferAdmin",
      "outputs": [],
      "stateMutability": "nonpayable",
      "type": "function"
    },
    {
      "inputs": [
        {
          "internalType": "address",
          "name": "impl",
          "type": "address"
        }
      ],
      "name": "upgradeTo",
      "outputs": [],
      "stateMutability": "nonpayable",
      "type": "function"
    },
    {
      "inputs": [
        {
          "internalType": "address",
          "name": "",
          "type": "address"
        }
      ],
      "name": "vaultAdminOfToken",
      "outputs": [
        {
          "internalType": "address",
          "name": "",
          "type": "address"
        }
      ],
      "stateMutability": "view",
      "type": "function"
    },
    {
      "inputs": [
        {
          "internalType": "address",
          "name": "",
          "type": "address"
        }
      ],
      "name": "vaultInfo",
      "outputs": [
        {
          "internalType": "address",
          "name": "claimer",
          "type": "address"
        },
        {
          "internalType": "uint256",
          "name": "totalAllocatedAmount",
          "type": "uint256"
        },
        {
          "internalType": "uint256",
          "name": "totalClaimCount",
          "type": "uint256"
        },
        {
          "internalType": "uint256",
          "name": "totalClaimedAmount",
          "type": "uint256"
        },
        {
          "internalType": "uint256",
          "name": "firstClaimAmount",
          "type": "uint256"
        },
        {
          "internalType": "uint32",
          "name": "firstClaimTime",
          "type": "uint32"
        },
        {
          "internalType": "uint32",
          "name": "secondClaimTime",
          "type": "uint32"
        },
        {
          "internalType": "uint32",
          "name": "roundInterval",
          "type": "uint32"
        },
        {
          "internalType": "uint32",
          "name": "latestClaimedRound",
          "type": "uint32"
        }
      ],
      "stateMutability": "view",
      "type": "function"
    },
    {
      "stateMutability": "payable",
      "type": "receive"
    }
  ],
  "bytecode": "0x60806040526005805460ff191660011790553480156200001e57600080fd5b506200003a60008051602062001b3c833981519152806200005b565b6200005560008051602062001b3c83398151915233620000a6565b6200015a565b600082815260046020526040808220600101805490849055905190918391839186917fbd79b86ffe0ab8e8776151514217cd7cacd52c909f66475c3af44e129f0b00ff9190a4505050565b620000b28282620000b6565b5050565b60008281526004602090815260408083206001600160a01b038516845290915290205460ff16620000b25760008281526004602090815260408083206001600160a01b03851684529091529020805460ff19166001179055620001163390565b6001600160a01b0316816001600160a01b0316837f2f8788117e7eff1d82e926ec794901d17c78024a50270940304540a733656f0d60405160405180910390a45050565b6119d2806200016a6000396000f3fe6080604052600436106101d15760003560e01c806363a8fd89116100f75780638b8f4a6511610095578063a217fddf11610064578063a217fddf14610732578063b911135f14610747578063cf9f23b51461077d578063d547741f1461079d57610223565b80638b8f4a65146105c15780638d4fdb40146105e15780639164359a1461060157806391d14854146106ec57610223565b806375b238fc116100d157806375b238fc146105175780637cb00d251461054b5780637cd5f6631461056b5780637fc46ba81461058b57610223565b806363a8fd89146104bd57806370480275146104d757806375829def146104f757610223565b806336568abe1161016f57806352351e851161013e57806352351e8514610402578063550d01a3146104275780635c60da1b146104575780635cc797d81461049d57610223565b806336568abe1461036c5780633659cfe61461038c5780634a5df50f146103ac57806350d2a276146103cc57610223565b8063248a9ca3116101ab578063248a9ca3146102c457806324d7806c146102f45780632f2ff15d1461031457806330d172d51461033457610223565b806301ffc9a71461022d5780631785f53c14610262578063229852461461028257610223565b366102235760405162461bcd60e51b815260206004820152601460248201527f63616e6e6f74207265636569766520457468657200000000000000000000000060448201526064015b60405180910390fd5b61022b6107bd565b005b34801561023957600080fd5b5061024d610248366004611684565b610866565b60405190151581526020015b60405180910390f35b34801561026e57600080fd5b5061022b61027d3660046116c5565b61089d565b34801561028e57600080fd5b506102b67ffb5864e8ff833c3cb2d2d08505e82ff02a43554c74a35d4f5a64e8526127831181565b604051908152602001610259565b3480156102d057600080fd5b506102b66102df3660046116e0565b60009081526004602052604090206001015490565b34801561030057600080fd5b5061024d61030f3660046116c5565b610918565b34801561032057600080fd5b5061022b61032f3660046116f9565b610958565b34801561034057600080fd5b50600854610354906001600160a01b031681565b6040516001600160a01b039091168152602001610259565b34801561037857600080fd5b5061022b6103873660046116f9565b61097d565b34801561039857600080fd5b5061022b6103a73660046116c5565b610a09565b3480156103b857600080fd5b5061022b6103c7366004611725565b610b62565b3480156103d857600080fd5b506103546103e7366004611684565b6003602052600090815260409020546001600160a01b031681565b34801561040e57600080fd5b506005546103549061010090046001600160a01b031681565b34801561043357600080fd5b5061024d6104423660046116c5565b60026020526000908152604090205460ff1681565b34801561046357600080fd5b506000805260016020527fa6eef7e35abe7026729641147f7915573c7e97b47efa546f5f6e3230263bcb49546001600160a01b0316610354565b3480156104a957600080fd5b5061022b6104b83660046117b9565b610e0f565b3480156104c957600080fd5b5060005461024d9060ff1681565b3480156104e357600080fd5b5061022b6104f23660046116c5565b610e67565b34801561050357600080fd5b5061022b6105123660046116c5565b610edf565b34801561052357600080fd5b506102b67fdf8b4c520ffe197c5343c6f5aec59570151ef9a492f2c624fd45ddde6135ec4281565b34801561055757600080fd5b5061022b6105663660046117e3565b61102f565b34801561057757600080fd5b5061022b6105863660046117fe565b611090565b34801561059757600080fd5b506103546105a63660046116c5565b6006602052600090815260409020546001600160a01b031681565b3480156105cd57600080fd5b506103546105dc3660046116e0565b6110e9565b3480156105ed57600080fd5b506103546105fc366004611684565b611106565b34801561060d57600080fd5b5061068f61061c3660046116c5565b6007602052600090815260409020805460018201546002830154600384015460048501546005909501546001600160a01b039094169492939192909163ffffffff8082169164010000000081048216916801000000000000000082048116916c0100000000000000000000000090041689565b604080516001600160a01b03909a168a5260208a0198909852968801959095526060870193909352608086019190915263ffffffff90811660a086015290811660c085015290811660e08401521661010082015261012001610259565b3480156106f857600080fd5b5061024d6107073660046116f9565b60009182526004602090815260408084206001600160a01b0393909316845291905290205460ff1690565b34801561073e57600080fd5b506102b6600081565b34801561075357600080fd5b506103546107623660046116e0565b6001602052600090815260409020546001600160a01b031681565b34801561078957600080fd5b50600954610354906001600160a01b031681565b3480156107a957600080fd5b5061022b6107b83660046116f9565b611202565b60006107d46000356001600160e01b031916611106565b90506001600160a01b038116158015906107f1575060005460ff16155b61083d5760405162461bcd60e51b815260206004820152601d60248201527f50726f78793a20696d706c204f522070726f78792069732066616c7365000000604482015260640161021a565b3660008037600080366000845af43d6000803e80801561085c573d6000f35b3d6000fd5b505050565b60006001600160e01b03198216637965db0b60e01b148061089757506301ffc9a760e01b6001600160e01b03198316145b92915050565b6108a633610918565b6108eb5760405162461bcd60e51b815260206004820152602260248201526000805160206119a683398151915260448201526134b760f11b606482015260840161021a565b6109157fdf8b4c520ffe197c5343c6f5aec59570151ef9a492f2c624fd45ddde6135ec428261097d565b50565b6001600160a01b03811660009081527f2fb794d17134dfdec181ddbac1babb5ab1eb140204ef4d982f294e7fc8b69022602052604081205460ff16610897565b60008281526004602052604090206001015461097381611227565b6108618383611231565b6001600160a01b03811633146109fb5760405162461bcd60e51b815260206004820152602f60248201527f416363657373436f6e74726f6c3a2063616e206f6e6c792072656e6f756e636560448201527f20726f6c657320666f722073656c660000000000000000000000000000000000606482015260840161021a565b610a0582826112d3565b5050565b610a1233610918565b610a575760405162461bcd60e51b815260206004820152602260248201526000805160206119a683398151915260448201526134b760f11b606482015260840161021a565b6001600160a01b038116610aad5760405162461bcd60e51b815260206004820152600d60248201527f696e707574206973207a65726f00000000000000000000000000000000000000604482015260640161021a565b6000805260016020527fa6eef7e35abe7026729641147f7915573c7e97b47efa546f5f6e3230263bcb49546001600160a01b03828116911603610b1e5760405162461bcd60e51b815260206004820152600960248201526839b0b6b29030b2323960b91b604482015260640161021a565b610b2b8160006001611356565b6040516001600160a01b038216907fbc7cd75a20ee27fd9adebab32041f755214dbc6bffa90cc0225b39da2e5c2d3b90600090a250565b610b6b33610918565b610bb05760405162461bcd60e51b815260206004820152602260248201526000805160206119a683398151915260448201526134b760f11b606482015260840161021a565b81610bfd5760405162461bcd60e51b815260206004820181905260248201527f50726f78793a205f73656c6563746f727327732073697a65206973207a65726f604482015260640161021a565b6001600160a01b03811660009081526002602052604090205460ff16610c655760405162461bcd60e51b815260206004820152601860248201527f50726f78793a205f696d70206973206e6f7420616c6976650000000000000000604482015260640161021a565b60005b82811015610e0957816001600160a01b031660036000868685818110610c9057610c90611831565b9050602002016020810190610ca59190611684565b6001600160e01b03191681526020810191909152604001600020546001600160a01b031603610d165760405162461bcd60e51b815260206004820152601d60248201527f4c69717569646974795661756c7450726f78793a2073616d6520696d70000000604482015260640161021a565b8160036000868685818110610d2d57610d2d611831565b9050602002016020810190610d429190611684565b6001600160e01b03191681526020810191909152604001600020805473ffffffffffffffffffffffffffffffffffffffff19166001600160a01b039283161790558216848483818110610d9757610d97611831565b9050602002016020810190610dac9190611684565b7bffffffffffffffffffffffffffffffffffffffffffffffffffffffff19167f14ebc1c32aa68f4d766e89f3e546cee249f7df25183fc10ab1568d91c2ce9b7b60405160405180910390a380610e018161185d565b915050610c68565b50505050565b610e1833610918565b610e5d5760405162461bcd60e51b815260206004820152602260248201526000805160206119a683398151915260448201526134b760f11b606482015260840161021a565b610a0582826113ee565b610e7033610918565b610eb55760405162461bcd60e51b815260206004820152602260248201526000805160206119a683398151915260448201526134b760f11b606482015260840161021a565b6109157fdf8b4c520ffe197c5343c6f5aec59570151ef9a492f2c624fd45ddde6135ec4282610958565b610ee833610918565b610f2d5760405162461bcd60e51b815260206004820152602260248201526000805160206119a683398151915260448201526134b760f11b606482015260840161021a565b6001600160a01b038116610f835760405162461bcd60e51b815260206004820152601860248201527f41636365737369626c653a207a65726f20616464726573730000000000000000604482015260640161021a565b6001600160a01b0381163303610fdb5760405162461bcd60e51b815260206004820152601660248201527f41636365737369626c653a2073616d652061646d696e00000000000000000000604482015260640161021a565b6110057fdf8b4c520ffe197c5343c6f5aec59570151ef9a492f2c624fd45ddde6135ec4282610958565b6109157fdf8b4c520ffe197c5343c6f5aec59570151ef9a492f2c624fd45ddde6135ec423361097d565b61103833610918565b61107d5760405162461bcd60e51b815260206004820152602260248201526000805160206119a683398151915260448201526134b760f11b606482015260840161021a565b6000805460ff1916911515919091179055565b61109933610918565b6110de5760405162461bcd60e51b815260206004820152602260248201526000805160206119a683398151915260448201526134b760f11b606482015260840161021a565b610861838383611356565b6000818152600160205260408120546001600160a01b0316610897565b6001600160e01b031981166000908152600360205260408120546001600160a01b03166111665750506000805260016020527fa6eef7e35abe7026729641147f7915573c7e97b47efa546f5f6e3230263bcb49546001600160a01b031690565b6001600160e01b031982166000908152600360209081526040808320546001600160a01b03168352600290915290205460ff16156111c457506001600160e01b0319166000908152600360205260409020546001600160a01b031690565b50506000805260016020527fa6eef7e35abe7026729641147f7915573c7e97b47efa546f5f6e3230263bcb49546001600160a01b031690565b919050565b60008281526004602052604090206001015461121d81611227565b61086183836112d3565b610915813361144d565b60008281526004602090815260408083206001600160a01b038516845290915290205460ff16610a055760008281526004602090815260408083206001600160a01b03851684529091529020805460ff1916600117905561128f3390565b6001600160a01b0316816001600160a01b0316837f2f8788117e7eff1d82e926ec794901d17c78024a50270940304540a733656f0d60405160405180910390a45050565b60008281526004602090815260408083206001600160a01b038516845290915290205460ff1615610a055760008281526004602090815260408083206001600160a01b0385168085529252808320805460ff1916905551339285917ff6391f5c32d9c69d2a47ea670b442974b53935d1edc7fd64eb21e047a839171b9190a45050565b6001600160a01b0383163b6113ad5760405162461bcd60e51b815260206004820152601b60248201527f50726f78793a206e6f7420636f6e747261637420616464726573730000000000604482015260640161021a565b80156113e8576000828152600160205260409020805473ffffffffffffffffffffffffffffffffffffffff19166001600160a01b0385161790555b61086183825b6001600160a01b038216600081815260026020908152604091829020805460ff191685151590811790915591519182527f72558d9bfba4210f9ef095c782589484151f6d90f7a81bb3cb9b33efc695d324910160405180910390a25050565b60008281526004602090815260408083206001600160a01b038516845290915290205460ff16610a0557611480816114c2565b61148b8360206114d4565b60405160200161149c92919061189a565b60408051601f198184030181529082905262461bcd60e51b825261021a9160040161191b565b60606108976001600160a01b03831660145b606060006114e383600261194e565b6114ee906002611965565b67ffffffffffffffff81111561150657611506611978565b6040519080825280601f01601f191660200182016040528015611530576020820181803683370190505b509050600360fc1b8160008151811061154b5761154b611831565b60200101906001600160f81b031916908160001a905350600f60fb1b8160018151811061157a5761157a611831565b60200101906001600160f81b031916908160001a905350600061159e84600261194e565b6115a9906001611965565b90505b600181111561162e577f303132333435363738396162636465660000000000000000000000000000000085600f16601081106115ea576115ea611831565b1a60f81b82828151811061160057611600611831565b60200101906001600160f81b031916908160001a90535060049490941c936116278161198e565b90506115ac565b50831561167d5760405162461bcd60e51b815260206004820181905260248201527f537472696e67733a20686578206c656e67746820696e73756666696369656e74604482015260640161021a565b9392505050565b60006020828403121561169657600080fd5b81356001600160e01b03198116811461167d57600080fd5b80356001600160a01b03811681146111fd57600080fd5b6000602082840312156116d757600080fd5b61167d826116ae565b6000602082840312156116f257600080fd5b5035919050565b6000806040838503121561170c57600080fd5b8235915061171c602084016116ae565b90509250929050565b60008060006040848603121561173a57600080fd5b833567ffffffffffffffff8082111561175257600080fd5b818601915086601f83011261176657600080fd5b81358181111561177557600080fd5b8760208260051b850101111561178a57600080fd5b6020928301955093506117a091860190506116ae565b90509250925092565b803580151581146111fd57600080fd5b600080604083850312156117cc57600080fd5b6117d5836116ae565b915061171c602084016117a9565b6000602082840312156117f557600080fd5b61167d826117a9565b60008060006060848603121561181357600080fd5b61181c846116ae565b9250602084013591506117a0604085016117a9565b634e487b7160e01b600052603260045260246000fd5b634e487b7160e01b600052601160045260246000fd5b60006001820161186f5761186f611847565b5060010190565b60005b83811015611891578181015183820152602001611879565b50506000910152565b7f416363657373436f6e74726f6c3a206163636f756e74200000000000000000008152600083516118d2816017850160208801611876565b7f206973206d697373696e6720726f6c6520000000000000000000000000000000601791840191820152835161190f816028840160208801611876565b01602801949350505050565b602081526000825180602084015261193a816040850160208701611876565b601f01601f19169190910160400192915050565b808202811582820484141761089757610897611847565b8082018082111561089757610897611847565b634e487b7160e01b600052604160045260246000fd5b60008161199d5761199d611847565b50600019019056fe41636365737369626c653a2043616c6c6572206973206e6f7420616e2061646da164736f6c6343000812000adf8b4c520ffe197c5343c6f5aec59570151ef9a492f2c624fd45ddde6135ec42",
  "linkReferences": {},
  "deployedLinkReferences": {}
}