{
  "_format": "hh-sol-artifact-1",
  "contractName": "L2CustomVaultBProxy",
  "sourceName": "contracts/L2/vaults/L2ScheduleVaultBProxy.sol",
  "abi": [
    {
      "anonymous": false,
      "inputs": [
        {
          "indexed": false,
          "internalType": "address",
          "name": "l2Token",
          "type": "address"
        },
        {
          "indexed": false,
          "internalType": "address",
          "name": "to",
          "type": "address"
        },
        {
          "indexed": false,
          "internalType": "uint256",
          "name": "amount",
          "type": "uint256"
        }
      ],
      "name": "Claimed",
      "type": "event"
    },
    {
      "anonymous": false,
      "inputs": [
        {
          "indexed": true,
          "internalType": "bytes32",
          "name": "role",
          "type": "bytes32"
        },
        {
          "indexed": true,
          "internalType": "bytes32",
          "name": "previousAdminRole",
          "type": "bytes32"
        },
        {
          "indexed": true,
          "internalType": "bytes32",
          "name": "newAdminRole",
          "type": "bytes32"
        }
      ],
      "name": "RoleAdminChanged",
      "type": "event"
    },
    {
      "anonymous": false,
      "inputs": [
        {
          "indexed": true,
          "internalType": "bytes32",
          "name": "role",
          "type": "bytes32"
        },
        {
          "indexed": true,
          "internalType": "address",
          "name": "account",
          "type": "address"
        },
        {
          "indexed": true,
          "internalType": "address",
          "name": "sender",
          "type": "address"
        }
      ],
      "name": "RoleGranted",
      "type": "event"
    },
    {
      "anonymous": false,
      "inputs": [
        {
          "indexed": true,
          "internalType": "bytes32",
          "name": "role",
          "type": "bytes32"
        },
        {
          "indexed": true,
          "internalType": "address",
          "name": "account",
          "type": "address"
        },
        {
          "indexed": true,
          "internalType": "address",
          "name": "sender",
          "type": "address"
        }
      ],
      "name": "RoleRevoked",
      "type": "event"
    },
    {
      "anonymous": false,
      "inputs": [
        {
          "indexed": true,
          "internalType": "address",
          "name": "impl",
          "type": "address"
        },
        {
          "indexed": false,
          "internalType": "bool",
          "name": "alive",
          "type": "bool"
        }
      ],
      "name": "SetAliveImplementation",
      "type": "event"
    },
    {
      "anonymous": false,
      "inputs": [
        {
          "indexed": false,
          "internalType": "address",
          "name": "newInitializer",
          "type": "address"
        }
      ],
      "name": "SetInitializer",
      "type": "event"
    },
    {
      "anonymous": false,
      "inputs": [
        {
          "indexed": true,
          "internalType": "bytes4",
          "name": "selector",
          "type": "bytes4"
        },
        {
          "indexed": true,
          "internalType": "address",
          "name": "impl",
          "type": "address"
        }
      ],
      "name": "SetSelectorImplementation",
      "type": "event"
    },
    {
      "anonymous": false,
      "inputs": [
        {
          "indexed": false,
          "internalType": "address",
          "name": "l2Token",
          "type": "address"
        },
        {
          "indexed": false,
          "internalType": "address",
          "name": "newAdmin",
          "type": "address"
        }
      ],
      "name": "SetVaultAdmin",
      "type": "event"
    },
    {
      "anonymous": false,
      "inputs": [
        {
          "indexed": true,
          "internalType": "address",
          "name": "implementation",
          "type": "address"
        }
      ],
      "name": "Upgraded",
      "type": "event"
    },
    {
      "stateMutability": "payable",
      "type": "fallback"
    },
    {
      "inputs": [],
      "name": "ADMIN_ROLE",
      "outputs": [
        {
          "internalType": "bytes32",
          "name": "",
          "type": "bytes32"
        }
      ],
      "stateMutability": "view",
      "type": "function"
    },
    {
      "inputs": [],
      "name": "DEFAULT_ADMIN_ROLE",
      "outputs": [
        {
          "internalType": "bytes32",
          "name": "",
          "type": "bytes32"
        }
      ],
      "stateMutability": "view",
      "type": "function"
    },
    {
      "inputs": [],
      "name": "POLICY_ROLE",
      "outputs": [
        {
          "internalType": "bytes32",
          "name": "",
          "type": "bytes32"
        }
      ],
      "stateMutability": "view",
      "type": "function"
    },
    {
      "inputs": [
        {
          "internalType": "address",
          "name": "account",
          "type": "address"
        }
      ],
      "name": "addAdmin",
      "outputs": [],
      "stateMutability": "nonpayable",
      "type": "function"
    },
    {
      "inputs": [
        {
          "internalType": "address",
          "name": "",
          "type": "address"
        }
      ],
      "name": "aliveImplementation",
      "outputs": [
        {
          "internalType": "bool",
          "name": "",
          "type": "bool"
        }
      ],
      "stateMutability": "view",
      "type": "function"
    },
    {
      "inputs": [
        {
          "internalType": "bytes32",
          "name": "role",
          "type": "bytes32"
        }
      ],
      "name": "getRoleAdmin",
      "outputs": [
        {
          "internalType": "bytes32",
          "name": "",
          "type": "bytes32"
        }
      ],
      "stateMutability": "view",
      "type": "function"
    },
    {
      "inputs": [
        {
          "internalType": "bytes4",
          "name": "_selector",
          "type": "bytes4"
        }
      ],
      "name": "getSelectorImplementation2",
      "outputs": [
        {
          "internalType": "address",
          "name": "impl",
          "type": "address"
        }
      ],
      "stateMutability": "view",
      "type": "function"
    },
    {
      "inputs": [
        {
          "internalType": "bytes32",
          "name": "role",
          "type": "bytes32"
        },
        {
          "internalType": "address",
          "name": "account",
          "type": "address"
        }
      ],
      "name": "grantRole",
      "outputs": [],
      "stateMutability": "nonpayable",
      "type": "function"
    },
    {
      "inputs": [
        {
          "internalType": "bytes32",
          "name": "role",
          "type": "bytes32"
        },
        {
          "internalType": "address",
          "name": "account",
          "type": "address"
        }
      ],
      "name": "hasRole",
      "outputs": [
        {
          "internalType": "bool",
          "name": "",
          "type": "bool"
        }
      ],
      "stateMutability": "view",
      "type": "function"
    },
    {
      "inputs": [],
      "name": "implementation",
      "outputs": [
        {
          "internalType": "address",
          "name": "",
          "type": "address"
        }
      ],
      "stateMutability": "view",
      "type": "function"
    },
    {
      "inputs": [
        {
          "internalType": "uint256",
          "name": "_index",
          "type": "uint256"
        }
      ],
      "name": "implementation2",
      "outputs": [
        {
          "internalType": "address",
          "name": "",
          "type": "address"
        }
      ],
      "stateMutability": "view",
      "type": "function"
    },
    {
      "inputs": [],
      "name": "initializer",
      "outputs": [
        {
          "internalType": "address",
          "name": "",
          "type": "address"
        }
      ],
      "stateMutability": "view",
      "type": "function"
    },
    {
      "inputs": [
        {
          "internalType": "address",
          "name": "account",
          "type": "address"
        }
      ],
      "name": "isAdmin",
      "outputs": [
        {
          "internalType": "bool",
          "name": "",
          "type": "bool"
        }
      ],
      "stateMutability": "view",
      "type": "function"
    },
    {
      "inputs": [],
      "name": "l2ProjectManager",
      "outputs": [
        {
          "internalType": "address",
          "name": "",
          "type": "address"
        }
      ],
      "stateMutability": "view",
      "type": "function"
    },
    {
      "inputs": [],
      "name": "pauseProxy",
      "outputs": [
        {
          "internalType": "bool",
          "name": "",
          "type": "bool"
        }
      ],
      "stateMutability": "view",
      "type": "function"
    },
    {
      "inputs": [
        {
          "internalType": "uint256",
          "name": "",
          "type": "uint256"
        }
      ],
      "name": "proxyImplementation",
      "outputs": [
        {
          "internalType": "address",
          "name": "",
          "type": "address"
        }
      ],
      "stateMutability": "view",
      "type": "function"
    },
    {
      "inputs": [
        {
          "internalType": "address",
          "name": "account",
          "type": "address"
        }
      ],
      "name": "removeAdmin",
      "outputs": [],
      "stateMutability": "nonpayable",
      "type": "function"
    },
    {
      "inputs": [
        {
          "internalType": "bytes32",
          "name": "role",
          "type": "bytes32"
        },
        {
          "internalType": "address",
          "name": "account",
          "type": "address"
        }
      ],
      "name": "renounceRole",
      "outputs": [],
      "stateMutability": "nonpayable",
      "type": "function"
    },
    {
      "inputs": [
        {
          "internalType": "bytes32",
          "name": "role",
          "type": "bytes32"
        },
        {
          "internalType": "address",
          "name": "account",
          "type": "address"
        }
      ],
      "name": "revokeRole",
      "outputs": [],
      "stateMutability": "nonpayable",
      "type": "function"
    },
    {
      "inputs": [
        {
          "internalType": "bytes4",
          "name": "",
          "type": "bytes4"
        }
      ],
      "name": "selectorImplementation",
      "outputs": [
        {
          "internalType": "address",
          "name": "",
          "type": "address"
        }
      ],
      "stateMutability": "view",
      "type": "function"
    },
    {
      "inputs": [
        {
          "internalType": "address",
          "name": "newImplementation",
          "type": "address"
        },
        {
          "internalType": "bool",
          "name": "_alive",
          "type": "bool"
        }
      ],
      "name": "setAliveImplementation2",
      "outputs": [],
      "stateMutability": "nonpayable",
      "type": "function"
    },
    {
      "inputs": [
        {
          "internalType": "address",
          "name": "newImplementation",
          "type": "address"
        },
        {
          "internalType": "uint256",
          "name": "_index",
          "type": "uint256"
        },
        {
          "internalType": "bool",
          "name": "_alive",
          "type": "bool"
        }
      ],
      "name": "setImplementation2",
      "outputs": [],
      "stateMutability": "nonpayable",
      "type": "function"
    },
    {
      "inputs": [
        {
          "internalType": "bool",
          "name": "_pause",
          "type": "bool"
        }
      ],
      "name": "setProxyPause",
      "outputs": [],
      "stateMutability": "nonpayable",
      "type": "function"
    },
    {
      "inputs": [
        {
          "internalType": "bytes4[]",
          "name": "_selectors",
          "type": "bytes4[]"
        },
        {
          "internalType": "address",
          "name": "_imp",
          "type": "address"
        }
      ],
      "name": "setSelectorImplementations2",
      "outputs": [],
      "stateMutability": "nonpayable",
      "type": "function"
    },
    {
      "inputs": [
        {
          "internalType": "bytes4",
          "name": "interfaceId",
          "type": "bytes4"
        }
      ],
      "name": "supportsInterface",
      "outputs": [
        {
          "internalType": "bool",
          "name": "",
          "type": "bool"
        }
      ],
      "stateMutability": "view",
      "type": "function"
    },
    {
      "inputs": [
        {
          "internalType": "address",
          "name": "newAdmin",
          "type": "address"
        }
      ],
      "name": "transferAdmin",
      "outputs": [],
      "stateMutability": "nonpayable",
      "type": "function"
    },
    {
      "inputs": [
        {
          "internalType": "address",
          "name": "impl",
          "type": "address"
        }
      ],
      "name": "upgradeTo",
      "outputs": [],
      "stateMutability": "nonpayable",
      "type": "function"
    },
    {
      "inputs": [
        {
          "internalType": "address",
          "name": "",
          "type": "address"
        }
      ],
      "name": "vaultAdminOfToken",
      "outputs": [
        {
          "internalType": "address",
          "name": "",
          "type": "address"
        }
      ],
      "stateMutability": "view",
      "type": "function"
    },
    {
      "inputs": [
        {
          "internalType": "address",
          "name": "",
          "type": "address"
        }
      ],
      "name": "vaultInfo",
      "outputs": [
        {
          "internalType": "uint256",
          "name": "totalAllocatedAmount",
          "type": "uint256"
        },
        {
          "internalType": "uint256",
          "name": "totalClaimCount",
          "type": "uint256"
        },
        {
          "internalType": "uint256",
          "name": "totalClaimedAmount",
          "type": "uint256"
        },
        {
          "internalType": "uint256",
          "name": "firstClaimAmount",
          "type": "uint256"
        },
        {
          "internalType": "uint32",
          "name": "firstClaimTime",
          "type": "uint32"
        },
        {
          "internalType": "uint32",
          "name": "secondClaimTime",
          "type": "uint32"
        },
        {
          "internalType": "uint32",
          "name": "roundInterval",
          "type": "uint32"
        },
        {
          "internalType": "uint32",
          "name": "latestClaimedRound",
          "type": "uint32"
        }
      ],
      "stateMutability": "view",
      "type": "function"
    },
    {
      "stateMutability": "payable",
      "type": "receive"
    }
  ],
  "bytecode": "0x60806040526005805460ff191660011790553480156200001e57600080fd5b506200003a60008051602062001aee833981519152806200005b565b6200005560008051602062001aee83398151915233620000a6565b6200015a565b600082815260046020526040808220600101805490849055905190918391839186917fbd79b86ffe0ab8e8776151514217cd7cacd52c909f66475c3af44e129f0b00ff9190a4505050565b620000b28282620000b6565b5050565b60008281526004602090815260408083206001600160a01b038516845290915290205460ff16620000b25760008281526004602090815260408083206001600160a01b03851684529091529020805460ff19166001179055620001163390565b6001600160a01b0316816001600160a01b0316837f2f8788117e7eff1d82e926ec794901d17c78024a50270940304540a733656f0d60405160405180910390a45050565b611984806200016a6000396000f3fe6080604052600436106101c65760003560e01c806363a8fd89116100f75780638b8f4a65116100955780639ce110d7116100645780639ce110d7146106e4578063a217fddf14610704578063b911135f14610719578063d547741f1461074f57610218565b80638b8f4a65146105965780638d4fdb40146105b65780639164359a146105d657806391d148541461069e57610218565b806375b238fc116100d157806375b238fc146104ec5780637cb00d25146105205780637cd5f663146105405780637fc46ba81461056057610218565b806363a8fd891461049257806370480275146104ac57806375829def146104cc57610218565b80633659cfe61161016457806352351e851161013e57806352351e85146103d7578063550d01a3146103fc5780635c60da1b1461042c5780635cc797d81461047257610218565b80633659cfe6146103495780634a5df50f1461036957806350d2a2761461038957610218565b8063248a9ca3116101a0578063248a9ca3146102b957806324d7806c146102e95780632f2ff15d1461030957806336568abe1461032957610218565b806301ffc9a7146102225780631785f53c14610257578063229852461461027757610218565b366102185760405162461bcd60e51b815260206004820152601460248201527f63616e6e6f74207265636569766520457468657200000000000000000000000060448201526064015b60405180910390fd5b61022061076f565b005b34801561022e57600080fd5b5061024261023d366004611636565b610818565b60405190151581526020015b60405180910390f35b34801561026357600080fd5b50610220610272366004611677565b61084f565b34801561028357600080fd5b506102ab7ffb5864e8ff833c3cb2d2d08505e82ff02a43554c74a35d4f5a64e8526127831181565b60405190815260200161024e565b3480156102c557600080fd5b506102ab6102d4366004611692565b60009081526004602052604090206001015490565b3480156102f557600080fd5b50610242610304366004611677565b6108ca565b34801561031557600080fd5b506102206103243660046116ab565b61090a565b34801561033557600080fd5b506102206103443660046116ab565b61092f565b34801561035557600080fd5b50610220610364366004611677565b6109bb565b34801561037557600080fd5b506102206103843660046116d7565b610b14565b34801561039557600080fd5b506103bf6103a4366004611636565b6003602052600090815260409020546001600160a01b031681565b6040516001600160a01b03909116815260200161024e565b3480156103e357600080fd5b506005546103bf9061010090046001600160a01b031681565b34801561040857600080fd5b50610242610417366004611677565b60026020526000908152604090205460ff1681565b34801561043857600080fd5b506000805260016020527fa6eef7e35abe7026729641147f7915573c7e97b47efa546f5f6e3230263bcb49546001600160a01b03166103bf565b34801561047e57600080fd5b5061022061048d36600461176b565b610dc1565b34801561049e57600080fd5b506000546102429060ff1681565b3480156104b857600080fd5b506102206104c7366004611677565b610e19565b3480156104d857600080fd5b506102206104e7366004611677565b610e91565b3480156104f857600080fd5b506102ab7fdf8b4c520ffe197c5343c6f5aec59570151ef9a492f2c624fd45ddde6135ec4281565b34801561052c57600080fd5b5061022061053b366004611795565b610fe1565b34801561054c57600080fd5b5061022061055b3660046117b0565b611042565b34801561056c57600080fd5b506103bf61057b366004611677565b6007602052600090815260409020546001600160a01b031681565b3480156105a257600080fd5b506103bf6105b1366004611692565b61109b565b3480156105c257600080fd5b506103bf6105d1366004611636565b6110b8565b3480156105e257600080fd5b506106546105f1366004611677565b600860205260009081526040902080546001820154600283015460038401546004909401549293919290919063ffffffff8082169164010000000081048216916801000000000000000082048116916c0100000000000000000000000090041688565b60408051988952602089019790975295870194909452606086019290925263ffffffff908116608086015290811660a085015290811660c08401521660e08201526101000161024e565b3480156106aa57600080fd5b506102426106b93660046116ab565b60009182526004602090815260408084206001600160a01b0393909316845291905290205460ff1690565b3480156106f057600080fd5b506006546103bf906001600160a01b031681565b34801561071057600080fd5b506102ab600081565b34801561072557600080fd5b506103bf610734366004611692565b6001602052600090815260409020546001600160a01b031681565b34801561075b57600080fd5b5061022061076a3660046116ab565b6111b4565b60006107866000356001600160e01b0319166110b8565b90506001600160a01b038116158015906107a3575060005460ff16155b6107ef5760405162461bcd60e51b815260206004820152601d60248201527f50726f78793a20696d706c204f522070726f78792069732066616c7365000000604482015260640161020f565b3660008037600080366000845af43d6000803e80801561080e573d6000f35b3d6000fd5b505050565b60006001600160e01b03198216637965db0b60e01b148061084957506301ffc9a760e01b6001600160e01b03198316145b92915050565b610858336108ca565b61089d5760405162461bcd60e51b8152602060048201526022602482015260008051602061195883398151915260448201526134b760f11b606482015260840161020f565b6108c77fdf8b4c520ffe197c5343c6f5aec59570151ef9a492f2c624fd45ddde6135ec428261092f565b50565b6001600160a01b03811660009081527f2fb794d17134dfdec181ddbac1babb5ab1eb140204ef4d982f294e7fc8b69022602052604081205460ff16610849565b600082815260046020526040902060010154610925816111d9565b61081383836111e3565b6001600160a01b03811633146109ad5760405162461bcd60e51b815260206004820152602f60248201527f416363657373436f6e74726f6c3a2063616e206f6e6c792072656e6f756e636560448201527f20726f6c657320666f722073656c660000000000000000000000000000000000606482015260840161020f565b6109b78282611285565b5050565b6109c4336108ca565b610a095760405162461bcd60e51b8152602060048201526022602482015260008051602061195883398151915260448201526134b760f11b606482015260840161020f565b6001600160a01b038116610a5f5760405162461bcd60e51b815260206004820152600d60248201527f696e707574206973207a65726f00000000000000000000000000000000000000604482015260640161020f565b6000805260016020527fa6eef7e35abe7026729641147f7915573c7e97b47efa546f5f6e3230263bcb49546001600160a01b03828116911603610ad05760405162461bcd60e51b815260206004820152600960248201526839b0b6b29030b2323960b91b604482015260640161020f565b610add8160006001611308565b6040516001600160a01b038216907fbc7cd75a20ee27fd9adebab32041f755214dbc6bffa90cc0225b39da2e5c2d3b90600090a250565b610b1d336108ca565b610b625760405162461bcd60e51b8152602060048201526022602482015260008051602061195883398151915260448201526134b760f11b606482015260840161020f565b81610baf5760405162461bcd60e51b815260206004820181905260248201527f50726f78793a205f73656c6563746f727327732073697a65206973207a65726f604482015260640161020f565b6001600160a01b03811660009081526002602052604090205460ff16610c175760405162461bcd60e51b815260206004820152601860248201527f50726f78793a205f696d70206973206e6f7420616c6976650000000000000000604482015260640161020f565b60005b82811015610dbb57816001600160a01b031660036000868685818110610c4257610c426117e3565b9050602002016020810190610c579190611636565b6001600160e01b03191681526020810191909152604001600020546001600160a01b031603610cc85760405162461bcd60e51b815260206004820152601d60248201527f4c69717569646974795661756c7450726f78793a2073616d6520696d70000000604482015260640161020f565b8160036000868685818110610cdf57610cdf6117e3565b9050602002016020810190610cf49190611636565b6001600160e01b03191681526020810191909152604001600020805473ffffffffffffffffffffffffffffffffffffffff19166001600160a01b039283161790558216848483818110610d4957610d496117e3565b9050602002016020810190610d5e9190611636565b7bffffffffffffffffffffffffffffffffffffffffffffffffffffffff19167f14ebc1c32aa68f4d766e89f3e546cee249f7df25183fc10ab1568d91c2ce9b7b60405160405180910390a380610db38161180f565b915050610c1a565b50505050565b610dca336108ca565b610e0f5760405162461bcd60e51b8152602060048201526022602482015260008051602061195883398151915260448201526134b760f11b606482015260840161020f565b6109b782826113a0565b610e22336108ca565b610e675760405162461bcd60e51b8152602060048201526022602482015260008051602061195883398151915260448201526134b760f11b606482015260840161020f565b6108c77fdf8b4c520ffe197c5343c6f5aec59570151ef9a492f2c624fd45ddde6135ec428261090a565b610e9a336108ca565b610edf5760405162461bcd60e51b8152602060048201526022602482015260008051602061195883398151915260448201526134b760f11b606482015260840161020f565b6001600160a01b038116610f355760405162461bcd60e51b815260206004820152601860248201527f41636365737369626c653a207a65726f20616464726573730000000000000000604482015260640161020f565b6001600160a01b0381163303610f8d5760405162461bcd60e51b815260206004820152601660248201527f41636365737369626c653a2073616d652061646d696e00000000000000000000604482015260640161020f565b610fb77fdf8b4c520ffe197c5343c6f5aec59570151ef9a492f2c624fd45ddde6135ec428261090a565b6108c77fdf8b4c520ffe197c5343c6f5aec59570151ef9a492f2c624fd45ddde6135ec423361092f565b610fea336108ca565b61102f5760405162461bcd60e51b8152602060048201526022602482015260008051602061195883398151915260448201526134b760f11b606482015260840161020f565b6000805460ff1916911515919091179055565b61104b336108ca565b6110905760405162461bcd60e51b8152602060048201526022602482015260008051602061195883398151915260448201526134b760f11b606482015260840161020f565b610813838383611308565b6000818152600160205260408120546001600160a01b0316610849565b6001600160e01b031981166000908152600360205260408120546001600160a01b03166111185750506000805260016020527fa6eef7e35abe7026729641147f7915573c7e97b47efa546f5f6e3230263bcb49546001600160a01b031690565b6001600160e01b031982166000908152600360209081526040808320546001600160a01b03168352600290915290205460ff161561117657506001600160e01b0319166000908152600360205260409020546001600160a01b031690565b50506000805260016020527fa6eef7e35abe7026729641147f7915573c7e97b47efa546f5f6e3230263bcb49546001600160a01b031690565b919050565b6000828152600460205260409020600101546111cf816111d9565b6108138383611285565b6108c781336113ff565b60008281526004602090815260408083206001600160a01b038516845290915290205460ff166109b75760008281526004602090815260408083206001600160a01b03851684529091529020805460ff191660011790556112413390565b6001600160a01b0316816001600160a01b0316837f2f8788117e7eff1d82e926ec794901d17c78024a50270940304540a733656f0d60405160405180910390a45050565b60008281526004602090815260408083206001600160a01b038516845290915290205460ff16156109b75760008281526004602090815260408083206001600160a01b0385168085529252808320805460ff1916905551339285917ff6391f5c32d9c69d2a47ea670b442974b53935d1edc7fd64eb21e047a839171b9190a45050565b6001600160a01b0383163b61135f5760405162461bcd60e51b815260206004820152601b60248201527f50726f78793a206e6f7420636f6e747261637420616464726573730000000000604482015260640161020f565b801561139a576000828152600160205260409020805473ffffffffffffffffffffffffffffffffffffffff19166001600160a01b0385161790555b61081383825b6001600160a01b038216600081815260026020908152604091829020805460ff191685151590811790915591519182527f72558d9bfba4210f9ef095c782589484151f6d90f7a81bb3cb9b33efc695d324910160405180910390a25050565b60008281526004602090815260408083206001600160a01b038516845290915290205460ff166109b75761143281611474565b61143d836020611486565b60405160200161144e92919061184c565b60408051601f198184030181529082905262461bcd60e51b825261020f916004016118cd565b60606108496001600160a01b03831660145b60606000611495836002611900565b6114a0906002611917565b67ffffffffffffffff8111156114b8576114b861192a565b6040519080825280601f01601f1916602001820160405280156114e2576020820181803683370190505b509050600360fc1b816000815181106114fd576114fd6117e3565b60200101906001600160f81b031916908160001a905350600f60fb1b8160018151811061152c5761152c6117e3565b60200101906001600160f81b031916908160001a9053506000611550846002611900565b61155b906001611917565b90505b60018111156115e0577f303132333435363738396162636465660000000000000000000000000000000085600f166010811061159c5761159c6117e3565b1a60f81b8282815181106115b2576115b26117e3565b60200101906001600160f81b031916908160001a90535060049490941c936115d981611940565b905061155e565b50831561162f5760405162461bcd60e51b815260206004820181905260248201527f537472696e67733a20686578206c656e67746820696e73756666696369656e74604482015260640161020f565b9392505050565b60006020828403121561164857600080fd5b81356001600160e01b03198116811461162f57600080fd5b80356001600160a01b03811681146111af57600080fd5b60006020828403121561168957600080fd5b61162f82611660565b6000602082840312156116a457600080fd5b5035919050565b600080604083850312156116be57600080fd5b823591506116ce60208401611660565b90509250929050565b6000806000604084860312156116ec57600080fd5b833567ffffffffffffffff8082111561170457600080fd5b818601915086601f83011261171857600080fd5b81358181111561172757600080fd5b8760208260051b850101111561173c57600080fd5b6020928301955093506117529186019050611660565b90509250925092565b803580151581146111af57600080fd5b6000806040838503121561177e57600080fd5b61178783611660565b91506116ce6020840161175b565b6000602082840312156117a757600080fd5b61162f8261175b565b6000806000606084860312156117c557600080fd5b6117ce84611660565b9250602084013591506117526040850161175b565b634e487b7160e01b600052603260045260246000fd5b634e487b7160e01b600052601160045260246000fd5b600060018201611821576118216117f9565b5060010190565b60005b8381101561184357818101518382015260200161182b565b50506000910152565b7f416363657373436f6e74726f6c3a206163636f756e7420000000000000000000815260008351611884816017850160208801611828565b7f206973206d697373696e6720726f6c652000000000000000000000000000000060179184019182015283516118c1816028840160208801611828565b01602801949350505050565b60208152600082518060208401526118ec816040850160208701611828565b601f01601f19169190910160400192915050565b8082028115828204841417610849576108496117f9565b80820180821115610849576108496117f9565b634e487b7160e01b600052604160045260246000fd5b60008161194f5761194f6117f9565b50600019019056fe41636365737369626c653a2043616c6c6572206973206e6f7420616e2061646da164736f6c6343000812000adf8b4c520ffe197c5343c6f5aec59570151ef9a492f2c624fd45ddde6135ec42",
  "linkReferences": {},
  "deployedLinkReferences": {}
}