{
  "_format": "hh-sol-artifact-1",
  "contractName": "ERC20OnApprove",
  "sourceName": "contracts/test/TON.sol",
  "abi": [
    {
      "anonymous": false,
      "inputs": [
        {
          "indexed": true,
          "internalType": "address",
          "name": "owner",
          "type": "address"
        },
        {
          "indexed": true,
          "internalType": "address",
          "name": "spender",
          "type": "address"
        },
        {
          "indexed": false,
          "internalType": "uint256",
          "name": "value",
          "type": "uint256"
        }
      ],
      "name": "Approval",
      "type": "event"
    },
    {
      "anonymous": false,
      "inputs": [
        {
          "indexed": true,
          "internalType": "address",
          "name": "from",
          "type": "address"
        },
        {
          "indexed": true,
          "internalType": "address",
          "name": "to",
          "type": "address"
        },
        {
          "indexed": false,
          "internalType": "uint256",
          "name": "value",
          "type": "uint256"
        }
      ],
      "name": "Transfer",
      "type": "event"
    },
    {
      "inputs": [
        {
          "internalType": "address",
          "name": "owner",
          "type": "address"
        },
        {
          "internalType": "address",
          "name": "spender",
          "type": "address"
        }
      ],
      "name": "allowance",
      "outputs": [
        {
          "internalType": "uint256",
          "name": "",
          "type": "uint256"
        }
      ],
      "stateMutability": "view",
      "type": "function"
    },
    {
      "inputs": [
        {
          "internalType": "address",
          "name": "spender",
          "type": "address"
        },
        {
          "internalType": "uint256",
          "name": "amount",
          "type": "uint256"
        }
      ],
      "name": "approve",
      "outputs": [
        {
          "internalType": "bool",
          "name": "",
          "type": "bool"
        }
      ],
      "stateMutability": "nonpayable",
      "type": "function"
    },
    {
      "inputs": [
        {
          "internalType": "address",
          "name": "spender",
          "type": "address"
        },
        {
          "internalType": "uint256",
          "name": "amount",
          "type": "uint256"
        },
        {
          "internalType": "bytes",
          "name": "data",
          "type": "bytes"
        }
      ],
      "name": "approveAndCall",
      "outputs": [
        {
          "internalType": "bool",
          "name": "",
          "type": "bool"
        }
      ],
      "stateMutability": "nonpayable",
      "type": "function"
    },
    {
      "inputs": [
        {
          "internalType": "address",
          "name": "account",
          "type": "address"
        }
      ],
      "name": "balanceOf",
      "outputs": [
        {
          "internalType": "uint256",
          "name": "",
          "type": "uint256"
        }
      ],
      "stateMutability": "view",
      "type": "function"
    },
    {
      "inputs": [
        {
          "internalType": "address",
          "name": "spender",
          "type": "address"
        },
        {
          "internalType": "uint256",
          "name": "subtractedValue",
          "type": "uint256"
        }
      ],
      "name": "decreaseAllowance",
      "outputs": [
        {
          "internalType": "bool",
          "name": "",
          "type": "bool"
        }
      ],
      "stateMutability": "nonpayable",
      "type": "function"
    },
    {
      "inputs": [
        {
          "internalType": "address",
          "name": "spender",
          "type": "address"
        },
        {
          "internalType": "uint256",
          "name": "addedValue",
          "type": "uint256"
        }
      ],
      "name": "increaseAllowance",
      "outputs": [
        {
          "internalType": "bool",
          "name": "",
          "type": "bool"
        }
      ],
      "stateMutability": "nonpayable",
      "type": "function"
    },
    {
      "inputs": [],
      "name": "totalSupply",
      "outputs": [
        {
          "internalType": "uint256",
          "name": "",
          "type": "uint256"
        }
      ],
      "stateMutability": "view",
      "type": "function"
    },
    {
      "inputs": [
        {
          "internalType": "address",
          "name": "recipient",
          "type": "address"
        },
        {
          "internalType": "uint256",
          "name": "amount",
          "type": "uint256"
        }
      ],
      "name": "transfer",
      "outputs": [
        {
          "internalType": "bool",
          "name": "",
          "type": "bool"
        }
      ],
      "stateMutability": "nonpayable",
      "type": "function"
    },
    {
      "inputs": [
        {
          "internalType": "address",
          "name": "sender",
          "type": "address"
        },
        {
          "internalType": "address",
          "name": "recipient",
          "type": "address"
        },
        {
          "internalType": "uint256",
          "name": "amount",
          "type": "uint256"
        }
      ],
      "name": "transferFrom",
      "outputs": [
        {
          "internalType": "bool",
          "name": "",
          "type": "bool"
        }
      ],
      "stateMutability": "nonpayable",
      "type": "function"
    }
  ],
  "bytecode": "0x608060405234801561001057600080fd5b50610c87806100206000396000f3fe608060405234801561001057600080fd5b50600436106100a35760003560e01c806370a0823111610076578063a9059cbb1161005b578063a9059cbb14610144578063cae9ca5114610157578063dd62ed3e1461016a57600080fd5b806370a0823114610108578063a457c2d71461013157600080fd5b8063095ea7b3146100a857806318160ddd146100d057806323b872dd146100e257806339509351146100f5575b600080fd5b6100bb6100b6366004610959565b6101a3565b60405190151581526020015b60405180910390f35b6002545b6040519081526020016100c7565b6100bb6100f0366004610983565b6101ba565b6100bb610103366004610959565b610223565b6100d46101163660046109bf565b6001600160a01b031660009081526020819052604090205490565b6100bb61013f366004610959565b610259565b6100bb610152366004610959565b6102a8565b6100bb6101653660046109f0565b6102b5565b6100d4610178366004610abb565b6001600160a01b03918216600090815260016020908152604080832093909416825291909152205490565b60006101b03384846102d6565b5060015b92915050565b60006101c7848484610400565b610219843361021485604051806060016040528060288152602001610c2e602891396001600160a01b038a1660009081526001602090815260408083203384529091529020549190610583565b6102d6565b5060019392505050565b3360008181526001602090815260408083206001600160a01b038716845290915281205490916101b091859061021490866105bd565b60006101b0338461021485604051806060016040528060258152602001610c56602591393360009081526001602090815260408083206001600160a01b038d1684529091529020549190610583565b60006101b0338484610400565b60006102c184846101a3565b6102ca57600080fd5b61021933858585610623565b6001600160a01b03831661033d5760405162461bcd60e51b8152602060048201526024808201527f45524332303a20617070726f76652066726f6d20746865207a65726f206164646044820152637265737360e01b60648201526084015b60405180910390fd5b6001600160a01b03821661039e5760405162461bcd60e51b815260206004820152602260248201527f45524332303a20617070726f766520746f20746865207a65726f206164647265604482015261737360f01b6064820152608401610334565b6001600160a01b0383811660008181526001602090815260408083209487168084529482529182902085905590518481527f8c5be1e5ebec7d5bd14f71427d1e84f3dd0314c0f7b2291e5b200ac8c7c3b92591015b60405180910390a3505050565b6001600160a01b0383166104645760405162461bcd60e51b815260206004820152602560248201527f45524332303a207472616e736665722066726f6d20746865207a65726f206164604482015264647265737360d81b6064820152608401610334565b6001600160a01b0382166104c65760405162461bcd60e51b815260206004820152602360248201527f45524332303a207472616e7366657220746f20746865207a65726f206164647260448201526265737360e81b6064820152608401610334565b61050381604051806060016040528060268152602001610c08602691396001600160a01b0386166000908152602081905260409020549190610583565b6001600160a01b03808516600090815260208190526040808220939093559084168152205461053290826105bd565b6001600160a01b038381166000818152602081815260409182902094909455518481529092918616917fddf252ad1be2c89b69c2b068fc378daa952ba7f163c4a11628f55a4df523b3ef91016103f3565b600081848411156105a75760405162461bcd60e51b81526004016103349190610b3e565b5060006105b48486610b67565b95945050505050565b6000806105ca8385610b7a565b90508381101561061c5760405162461bcd60e51b815260206004820152601b60248201527f536166654d6174683a206164646974696f6e206f766572666c6f7700000000006044820152606401610334565b9392505050565b632139e50b60e11b61063584826107e0565b6106a75760405162461bcd60e51b815260206004820152603160248201527f45524332304f6e417070726f76653a207370656e64657220646f65736e27742060448201527f737570706f7274206f6e417070726f76650000000000000000000000000000006064820152608401610334565b600080856001600160a01b031683888888886040516024016106cc9493929190610b8d565b60408051601f198184030181529181526020820180516001600160e01b03166001600160e01b031990941693909317909252905161070a9190610bc9565b6000604051808303816000865af19150503d8060008114610747576040519150601f19603f3d011682016040523d82523d6000602084013e61074c565b606091505b50915091508181906107715760405162461bcd60e51b81526004016103349190610b3e565b5060208101519150816107d75760405162461bcd60e51b815260206004820152602860248201527f45524332304f6e417070726f76653a206661696c656420746f2063616c6c206f6044820152676e417070726f766560c01b6064820152608401610334565b50505050505050565b60006107eb836107fc565b801561061c575061061c838361082f565b600061080f826301ffc9a760e01b61082f565b80156101b45750610828826001600160e01b031961082f565b1592915050565b600080600061083e8585610852565b915091508180156105b45750949350505050565b604080516001600160e01b0319831660248083019190915282518083039091018152604490910182526020810180516001600160e01b03166301ffc9a760e01b17905290516000918291829081906001600160a01b03881690617530906108ba908690610bc9565b6000604051808303818686fa925050503d80600081146108f6576040519150601f19603f3d011682016040523d82523d6000602084013e6108fb565b606091505b50915091506020815110156109195760008094509450505050610936565b818180602001905181019061092e9190610be5565b945094505050505b9250929050565b80356001600160a01b038116811461095457600080fd5b919050565b6000806040838503121561096c57600080fd5b6109758361093d565b946020939093013593505050565b60008060006060848603121561099857600080fd5b6109a18461093d565b92506109af6020850161093d565b9150604084013590509250925092565b6000602082840312156109d157600080fd5b61061c8261093d565b634e487b7160e01b600052604160045260246000fd5b600080600060608486031215610a0557600080fd5b610a0e8461093d565b925060208401359150604084013567ffffffffffffffff80821115610a3257600080fd5b818601915086601f830112610a4657600080fd5b813581811115610a5857610a586109da565b604051601f8201601f19908116603f01168101908382118183101715610a8057610a806109da565b81604052828152896020848701011115610a9957600080fd5b8260208601602083013760006020848301015280955050505050509250925092565b60008060408385031215610ace57600080fd5b610ad78361093d565b9150610ae56020840161093d565b90509250929050565b60005b83811015610b09578181015183820152602001610af1565b50506000910152565b60008151808452610b2a816020860160208601610aee565b601f01601f19169290920160200192915050565b60208152600061061c6020830184610b12565b634e487b7160e01b600052601160045260246000fd5b818103818111156101b4576101b4610b51565b808201808211156101b4576101b4610b51565b60006001600160a01b03808716835280861660208401525083604083015260806060830152610bbf6080830184610b12565b9695505050505050565b60008251610bdb818460208701610aee565b9190910192915050565b600060208284031215610bf757600080fd5b8151801515811461061c57600080fdfe45524332303a207472616e7366657220616d6f756e7420657863656564732062616c616e636545524332303a207472616e7366657220616d6f756e74206578636565647320616c6c6f77616e636545524332303a2064656372656173656420616c6c6f77616e63652062656c6f77207a65726fa164736f6c6343000812000a",
  "linkReferences": {},
  "deployedLinkReferences": {}
}