{
  "_format": "hh-sol-artifact-1",
  "contractName": "SeigToken",
  "sourceName": "contracts/test/TON.sol",
  "abi": [
    {
      "anonymous": false,
      "inputs": [
        {
          "indexed": true,
          "internalType": "address",
          "name": "owner",
          "type": "address"
        },
        {
          "indexed": true,
          "internalType": "address",
          "name": "spender",
          "type": "address"
        },
        {
          "indexed": false,
          "internalType": "uint256",
          "name": "value",
          "type": "uint256"
        }
      ],
      "name": "Approval",
      "type": "event"
    },
    {
      "anonymous": false,
      "inputs": [
        {
          "indexed": true,
          "internalType": "address",
          "name": "previousOwner",
          "type": "address"
        },
        {
          "indexed": true,
          "internalType": "address",
          "name": "newOwner",
          "type": "address"
        }
      ],
      "name": "OwnershipTransferred",
      "type": "event"
    },
    {
      "anonymous": false,
      "inputs": [
        {
          "indexed": true,
          "internalType": "address",
          "name": "from",
          "type": "address"
        },
        {
          "indexed": true,
          "internalType": "address",
          "name": "to",
          "type": "address"
        },
        {
          "indexed": false,
          "internalType": "uint256",
          "name": "value",
          "type": "uint256"
        }
      ],
      "name": "Transfer",
      "type": "event"
    },
    {
      "inputs": [
        {
          "internalType": "address",
          "name": "owner",
          "type": "address"
        },
        {
          "internalType": "address",
          "name": "spender",
          "type": "address"
        }
      ],
      "name": "allowance",
      "outputs": [
        {
          "internalType": "uint256",
          "name": "",
          "type": "uint256"
        }
      ],
      "stateMutability": "view",
      "type": "function"
    },
    {
      "inputs": [
        {
          "internalType": "address",
          "name": "spender",
          "type": "address"
        },
        {
          "internalType": "uint256",
          "name": "amount",
          "type": "uint256"
        }
      ],
      "name": "approve",
      "outputs": [
        {
          "internalType": "bool",
          "name": "",
          "type": "bool"
        }
      ],
      "stateMutability": "nonpayable",
      "type": "function"
    },
    {
      "inputs": [
        {
          "internalType": "address",
          "name": "spender",
          "type": "address"
        },
        {
          "internalType": "uint256",
          "name": "amount",
          "type": "uint256"
        },
        {
          "internalType": "bytes",
          "name": "data",
          "type": "bytes"
        }
      ],
      "name": "approveAndCall",
      "outputs": [
        {
          "internalType": "bool",
          "name": "",
          "type": "bool"
        }
      ],
      "stateMutability": "nonpayable",
      "type": "function"
    },
    {
      "inputs": [
        {
          "internalType": "address",
          "name": "account",
          "type": "address"
        }
      ],
      "name": "balanceOf",
      "outputs": [
        {
          "internalType": "uint256",
          "name": "",
          "type": "uint256"
        }
      ],
      "stateMutability": "view",
      "type": "function"
    },
    {
      "inputs": [],
      "name": "callbackEnabled",
      "outputs": [
        {
          "internalType": "bool",
          "name": "",
          "type": "bool"
        }
      ],
      "stateMutability": "view",
      "type": "function"
    },
    {
      "inputs": [
        {
          "internalType": "address",
          "name": "spender",
          "type": "address"
        },
        {
          "internalType": "uint256",
          "name": "subtractedValue",
          "type": "uint256"
        }
      ],
      "name": "decreaseAllowance",
      "outputs": [
        {
          "internalType": "bool",
          "name": "",
          "type": "bool"
        }
      ],
      "stateMutability": "nonpayable",
      "type": "function"
    },
    {
      "inputs": [
        {
          "internalType": "bool",
          "name": "_callbackEnabled",
          "type": "bool"
        }
      ],
      "name": "enableCallback",
      "outputs": [],
      "stateMutability": "nonpayable",
      "type": "function"
    },
    {
      "inputs": [
        {
          "internalType": "address",
          "name": "spender",
          "type": "address"
        },
        {
          "internalType": "uint256",
          "name": "addedValue",
          "type": "uint256"
        }
      ],
      "name": "increaseAllowance",
      "outputs": [
        {
          "internalType": "bool",
          "name": "",
          "type": "bool"
        }
      ],
      "stateMutability": "nonpayable",
      "type": "function"
    },
    {
      "inputs": [],
      "name": "isOwner",
      "outputs": [
        {
          "internalType": "bool",
          "name": "",
          "type": "bool"
        }
      ],
      "stateMutability": "view",
      "type": "function"
    },
    {
      "inputs": [],
      "name": "owner",
      "outputs": [
        {
          "internalType": "address",
          "name": "",
          "type": "address"
        }
      ],
      "stateMutability": "view",
      "type": "function"
    },
    {
      "inputs": [
        {
          "internalType": "address",
          "name": "target",
          "type": "address"
        }
      ],
      "name": "renounceMinter",
      "outputs": [],
      "stateMutability": "nonpayable",
      "type": "function"
    },
    {
      "inputs": [
        {
          "internalType": "address",
          "name": "target",
          "type": "address"
        }
      ],
      "name": "renounceOwnership",
      "outputs": [],
      "stateMutability": "nonpayable",
      "type": "function"
    },
    {
      "inputs": [],
      "name": "renounceOwnership",
      "outputs": [],
      "stateMutability": "nonpayable",
      "type": "function"
    },
    {
      "inputs": [
        {
          "internalType": "address",
          "name": "target",
          "type": "address"
        }
      ],
      "name": "renouncePauser",
      "outputs": [],
      "stateMutability": "nonpayable",
      "type": "function"
    },
    {
      "inputs": [],
      "name": "seigManager",
      "outputs": [
        {
          "internalType": "contract SeigManagerI",
          "name": "",
          "type": "address"
        }
      ],
      "stateMutability": "view",
      "type": "function"
    },
    {
      "inputs": [
        {
          "internalType": "contract SeigManagerI",
          "name": "_seigManager",
          "type": "address"
        }
      ],
      "name": "setSeigManager",
      "outputs": [],
      "stateMutability": "nonpayable",
      "type": "function"
    },
    {
      "inputs": [],
      "name": "totalSupply",
      "outputs": [
        {
          "internalType": "uint256",
          "name": "",
          "type": "uint256"
        }
      ],
      "stateMutability": "view",
      "type": "function"
    },
    {
      "inputs": [
        {
          "internalType": "address",
          "name": "recipient",
          "type": "address"
        },
        {
          "internalType": "uint256",
          "name": "amount",
          "type": "uint256"
        }
      ],
      "name": "transfer",
      "outputs": [
        {
          "internalType": "bool",
          "name": "",
          "type": "bool"
        }
      ],
      "stateMutability": "nonpayable",
      "type": "function"
    },
    {
      "inputs": [
        {
          "internalType": "address",
          "name": "sender",
          "type": "address"
        },
        {
          "internalType": "address",
          "name": "recipient",
          "type": "address"
        },
        {
          "internalType": "uint256",
          "name": "amount",
          "type": "uint256"
        }
      ],
      "name": "transferFrom",
      "outputs": [
        {
          "internalType": "bool",
          "name": "",
          "type": "bool"
        }
      ],
      "stateMutability": "nonpayable",
      "type": "function"
    },
    {
      "inputs": [
        {
          "internalType": "address",
          "name": "target",
          "type": "address"
        },
        {
          "internalType": "address",
          "name": "newOwner",
          "type": "address"
        }
      ],
      "name": "transferOwnership",
      "outputs": [],
      "stateMutability": "nonpayable",
      "type": "function"
    },
    {
      "inputs": [
        {
          "internalType": "address",
          "name": "newOwner",
          "type": "address"
        }
      ],
      "name": "transferOwnership",
      "outputs": [],
      "stateMutability": "nonpayable",
      "type": "function"
    }
  ],
  "bytecode": "0x608060405234801561001057600080fd5b50600380546001600160a01b0319163390811790915560405181906000907f8be0079c531659141344cd1fd0a4f28419497f9722a3daafe3b4186f6b6457e0908290a3506114d8806100636000396000f3fe608060405234801561001057600080fd5b50600436106101775760003560e01c80636fb7f558116100d85780638f32d59b1161008c578063cae9ca5111610066578063cae9ca511461030a578063dd62ed3e1461031d578063f2fde38b1461035657600080fd5b80638f32d59b146102d1578063a457c2d7146102e4578063a9059cbb146102f757600080fd5b8063715018a6116100bd578063715018a6146102a55780637657f20a146102ad5780638da5cb5b146102c057600080fd5b80636fb7f5581461025157806370a082311461027c57600080fd5b8063395093511161012f5780635f112c68116101145780635f112c6814610217578063633801131461022a5780636d4354211461023e57600080fd5b806339509351146101f157806341eb24bb1461020457600080fd5b806323b872dd1161016057806323b872dd146101b65780633113ed5c146101c957806338bf3cfa146101de57600080fd5b8063095ea7b31461017c57806318160ddd146101a4575b600080fd5b61018f61018a366004611153565b610369565b60405190151581526020015b60405180910390f35b6002545b60405190815260200161019b565b61018f6101c436600461117f565b610380565b6101dc6101d73660046111ce565b61042b565b005b6101dc6101ec3660046111eb565b6104a2565b61018f6101ff366004611153565b610540565b6101dc6102123660046111eb565b61057b565b6101dc6102253660046111eb565b6105fe565b60045461018f90600160a01b900460ff1681565b6101dc61024c366004611208565b610681565b600454610264906001600160a01b031681565b6040516001600160a01b03909116815260200161019b565b6101a861028a3660046111eb565b6001600160a01b031660009081526020819052604090205490565b6101dc610728565b6101dc6102bb3660046111eb565b6107ba565b6003546001600160a01b0316610264565b6003546001600160a01b0316331461018f565b61018f6102f2366004611153565b610824565b61018f610305366004611153565b610873565b61018f610318366004611257565b610880565b6101a861032b366004611208565b6001600160a01b03918216600090815260016020908152604080832093909416825291909152205490565b6101dc6103643660046111eb565b6108ab565b60006103763384846108ff565b5060015b92915050565b6000336001600160a01b03851614806103a15750336001600160a01b038416145b6104185760405162461bcd60e51b815260206004820152603060248201527f53656967546f6b656e3a206f6e6c792073656e646572206f722072656369706960448201527f656e742063616e207472616e736665720000000000000000000000000000000060648201526084015b60405180910390fd5b610423848484610a24565b949350505050565b6003546001600160a01b031633146104735760405162461bcd60e51b81526020600482018190526024820152600080516020611487833981519152604482015260640161040f565b60048054911515600160a01b0274ff000000000000000000000000000000000000000019909216919091179055565b6003546001600160a01b031633146104ea5760405162461bcd60e51b81526020600482018190526024820152600080516020611487833981519152604482015260640161040f565b806001600160a01b031663715018a66040518163ffffffff1660e01b8152600401600060405180830381600087803b15801561052557600080fd5b505af1158015610539573d6000803e3d6000fd5b5050505050565b3360008181526001602090815260408083206001600160a01b038716845290915281205490916103769185906105769086610a7e565b6108ff565b6003546001600160a01b031633146105c35760405162461bcd60e51b81526020600482018190526024820152600080516020611487833981519152604482015260640161040f565b806001600160a01b0316636ef8d66d6040518163ffffffff1660e01b8152600401600060405180830381600087803b15801561052557600080fd5b6003546001600160a01b031633146106465760405162461bcd60e51b81526020600482018190526024820152600080516020611487833981519152604482015260640161040f565b806001600160a01b031663986502756040518163ffffffff1660e01b8152600401600060405180830381600087803b15801561052557600080fd5b6003546001600160a01b031633146106c95760405162461bcd60e51b81526020600482018190526024820152600080516020611487833981519152604482015260640161040f565b60405163f2fde38b60e01b81526001600160a01b03828116600483015283169063f2fde38b90602401600060405180830381600087803b15801561070c57600080fd5b505af1158015610720573d6000803e3d6000fd5b505050505050565b6003546001600160a01b031633146107705760405162461bcd60e51b81526020600482018190526024820152600080516020611487833981519152604482015260640161040f565b6003546040516000916001600160a01b0316907f8be0079c531659141344cd1fd0a4f28419497f9722a3daafe3b4186f6b6457e0908390a3600380546001600160a01b0319169055565b6003546001600160a01b031633146108025760405162461bcd60e51b81526020600482018190526024820152600080516020611487833981519152604482015260640161040f565b600480546001600160a01b0319166001600160a01b0392909216919091179055565b60006103763384610576856040518060600160405280602581526020016114a7602591393360009081526001602090815260408083206001600160a01b038d1684529091529020549190610ae4565b6000610376338484610b1e565b600061088c8484610369565b61089557600080fd5b6108a133858585610be0565b5060019392505050565b6003546001600160a01b031633146108f35760405162461bcd60e51b81526020600482018190526024820152600080516020611487833981519152604482015260640161040f565b6108fc81610d9d565b50565b6001600160a01b0383166109615760405162461bcd60e51b8152602060048201526024808201527f45524332303a20617070726f76652066726f6d20746865207a65726f206164646044820152637265737360e01b606482015260840161040f565b6001600160a01b0382166109c25760405162461bcd60e51b815260206004820152602260248201527f45524332303a20617070726f766520746f20746865207a65726f206164647265604482015261737360f01b606482015260840161040f565b6001600160a01b0383811660008181526001602090815260408083209487168084529482529182902085905590518481527f8c5be1e5ebec7d5bd14f71427d1e84f3dd0314c0f7b2291e5b200ac8c7c3b92591015b60405180910390a3505050565b6000610a31848484610b1e565b6108a184336105768560405180606001604052806028815260200161145f602891396001600160a01b038a1660009081526001602090815260408083203384529091529020549190610ae4565b600080610a8b838561133a565b905083811015610add5760405162461bcd60e51b815260206004820152601b60248201527f536166654d6174683a206164646974696f6e206f766572666c6f770000000000604482015260640161040f565b9392505050565b60008184841115610b085760405162461bcd60e51b815260040161040f919061139d565b506000610b1584866113b0565b95945050505050565b610b29838383610e5e565b600454600160a01b900460ff168015610b4c57506004546001600160a01b031615155b15610bdb5760048054604051634a39314960e01b81526001600160a01b0386811693820193909352848316602482015260448101849052911690634a393149906064016020604051808303816000875af1158015610bae573d6000803e3d6000fd5b505050506040513d601f19601f82011682018060405250810190610bd291906113c3565b610bdb57600080fd5b505050565b632139e50b60e11b610bf28482610fe1565b610c645760405162461bcd60e51b815260206004820152603160248201527f45524332304f6e417070726f76653a207370656e64657220646f65736e27742060448201527f737570706f7274206f6e417070726f7665000000000000000000000000000000606482015260840161040f565b600080856001600160a01b03168388888888604051602401610c8994939291906113e0565b60408051601f198184030181529181526020820180516001600160e01b03166001600160e01b0319909416939093179092529051610cc7919061141c565b6000604051808303816000865af19150503d8060008114610d04576040519150601f19603f3d011682016040523d82523d6000602084013e610d09565b606091505b5091509150818190610d2e5760405162461bcd60e51b815260040161040f919061139d565b506020810151915081610d945760405162461bcd60e51b815260206004820152602860248201527f45524332304f6e417070726f76653a206661696c656420746f2063616c6c206f6044820152676e417070726f766560c01b606482015260840161040f565b50505050505050565b6001600160a01b038116610e025760405162461bcd60e51b815260206004820152602660248201527f4f776e61626c653a206e6577206f776e657220697320746865207a65726f206160448201526564647265737360d01b606482015260840161040f565b6003546040516001600160a01b038084169216907f8be0079c531659141344cd1fd0a4f28419497f9722a3daafe3b4186f6b6457e090600090a3600380546001600160a01b0319166001600160a01b0392909216919091179055565b6001600160a01b038316610ec25760405162461bcd60e51b815260206004820152602560248201527f45524332303a207472616e736665722066726f6d20746865207a65726f206164604482015264647265737360d81b606482015260840161040f565b6001600160a01b038216610f245760405162461bcd60e51b815260206004820152602360248201527f45524332303a207472616e7366657220746f20746865207a65726f206164647260448201526265737360e81b606482015260840161040f565b610f6181604051806060016040528060268152602001611439602691396001600160a01b0386166000908152602081905260409020549190610ae4565b6001600160a01b038085166000908152602081905260408082209390935590841681522054610f909082610a7e565b6001600160a01b038381166000818152602081815260409182902094909455518481529092918616917fddf252ad1be2c89b69c2b068fc378daa952ba7f163c4a11628f55a4df523b3ef9101610a17565b6000610fec83610ffd565b8015610add5750610add8383611030565b6000611010826301ffc9a760e01b611030565b801561037a5750611029826001600160e01b0319611030565b1592915050565b600080600061103f8585611053565b91509150818015610b155750949350505050565b604080516001600160e01b0319831660248083019190915282518083039091018152604490910182526020810180516001600160e01b03166301ffc9a760e01b17905290516000918291829081906001600160a01b03881690617530906110bb90869061141c565b6000604051808303818686fa925050503d80600081146110f7576040519150601f19603f3d011682016040523d82523d6000602084013e6110fc565b606091505b509150915060208151101561111a5760008094509450505050611137565b818180602001905181019061112f91906113c3565b945094505050505b9250929050565b6001600160a01b03811681146108fc57600080fd5b6000806040838503121561116657600080fd5b82356111718161113e565b946020939093013593505050565b60008060006060848603121561119457600080fd5b833561119f8161113e565b925060208401356111af8161113e565b929592945050506040919091013590565b80151581146108fc57600080fd5b6000602082840312156111e057600080fd5b8135610add816111c0565b6000602082840312156111fd57600080fd5b8135610add8161113e565b6000806040838503121561121b57600080fd5b82356112268161113e565b915060208301356112368161113e565b809150509250929050565b634e487b7160e01b600052604160045260246000fd5b60008060006060848603121561126c57600080fd5b83356112778161113e565b925060208401359150604084013567ffffffffffffffff8082111561129b57600080fd5b818601915086601f8301126112af57600080fd5b8135818111156112c1576112c1611241565b604051601f8201601f19908116603f011681019083821181831017156112e9576112e9611241565b8160405282815289602084870101111561130257600080fd5b8260208601602083013760006020848301015280955050505050509250925092565b634e487b7160e01b600052601160045260246000fd5b8082018082111561037a5761037a611324565b60005b83811015611368578181015183820152602001611350565b50506000910152565b6000815180845261138981602086016020860161134d565b601f01601f19169290920160200192915050565b602081526000610add6020830184611371565b8181038181111561037a5761037a611324565b6000602082840312156113d557600080fd5b8151610add816111c0565b60006001600160a01b038087168352808616602084015250836040830152608060608301526114126080830184611371565b9695505050505050565b6000825161142e81846020870161134d565b919091019291505056fe45524332303a207472616e7366657220616d6f756e7420657863656564732062616c616e636545524332303a207472616e7366657220616d6f756e74206578636565647320616c6c6f77616e63654f776e61626c653a2063616c6c6572206973206e6f7420746865206f776e657245524332303a2064656372656173656420616c6c6f77616e63652062656c6f77207a65726fa164736f6c6343000812000a",
  "linkReferences": {},
  "deployedLinkReferences": {}
}