{
  "_format": "hh-sol-artifact-1",
  "contractName": "TON",
  "sourceName": "contracts/test/TON.sol",
  "abi": [
    {
      "inputs": [],
      "stateMutability": "nonpayable",
      "type": "constructor"
    },
    {
      "anonymous": false,
      "inputs": [
        {
          "indexed": true,
          "internalType": "address",
          "name": "owner",
          "type": "address"
        },
        {
          "indexed": true,
          "internalType": "address",
          "name": "spender",
          "type": "address"
        },
        {
          "indexed": false,
          "internalType": "uint256",
          "name": "value",
          "type": "uint256"
        }
      ],
      "name": "Approval",
      "type": "event"
    },
    {
      "anonymous": false,
      "inputs": [
        {
          "indexed": true,
          "internalType": "address",
          "name": "account",
          "type": "address"
        }
      ],
      "name": "MinterAdded",
      "type": "event"
    },
    {
      "anonymous": false,
      "inputs": [
        {
          "indexed": true,
          "internalType": "address",
          "name": "account",
          "type": "address"
        }
      ],
      "name": "MinterRemoved",
      "type": "event"
    },
    {
      "anonymous": false,
      "inputs": [
        {
          "indexed": true,
          "internalType": "address",
          "name": "previousOwner",
          "type": "address"
        },
        {
          "indexed": true,
          "internalType": "address",
          "name": "newOwner",
          "type": "address"
        }
      ],
      "name": "OwnershipTransferred",
      "type": "event"
    },
    {
      "anonymous": false,
      "inputs": [
        {
          "indexed": true,
          "internalType": "address",
          "name": "from",
          "type": "address"
        },
        {
          "indexed": true,
          "internalType": "address",
          "name": "to",
          "type": "address"
        },
        {
          "indexed": false,
          "internalType": "uint256",
          "name": "value",
          "type": "uint256"
        }
      ],
      "name": "Transfer",
      "type": "event"
    },
    {
      "inputs": [
        {
          "internalType": "address",
          "name": "account",
          "type": "address"
        }
      ],
      "name": "addMinter",
      "outputs": [],
      "stateMutability": "nonpayable",
      "type": "function"
    },
    {
      "inputs": [
        {
          "internalType": "address",
          "name": "owner",
          "type": "address"
        },
        {
          "internalType": "address",
          "name": "spender",
          "type": "address"
        }
      ],
      "name": "allowance",
      "outputs": [
        {
          "internalType": "uint256",
          "name": "",
          "type": "uint256"
        }
      ],
      "stateMutability": "view",
      "type": "function"
    },
    {
      "inputs": [
        {
          "internalType": "address",
          "name": "spender",
          "type": "address"
        },
        {
          "internalType": "uint256",
          "name": "amount",
          "type": "uint256"
        }
      ],
      "name": "approve",
      "outputs": [
        {
          "internalType": "bool",
          "name": "",
          "type": "bool"
        }
      ],
      "stateMutability": "nonpayable",
      "type": "function"
    },
    {
      "inputs": [
        {
          "internalType": "address",
          "name": "spender",
          "type": "address"
        },
        {
          "internalType": "uint256",
          "name": "amount",
          "type": "uint256"
        },
        {
          "internalType": "bytes",
          "name": "data",
          "type": "bytes"
        }
      ],
      "name": "approveAndCall",
      "outputs": [
        {
          "internalType": "bool",
          "name": "",
          "type": "bool"
        }
      ],
      "stateMutability": "nonpayable",
      "type": "function"
    },
    {
      "inputs": [
        {
          "internalType": "address",
          "name": "account",
          "type": "address"
        }
      ],
      "name": "balanceOf",
      "outputs": [
        {
          "internalType": "uint256",
          "name": "",
          "type": "uint256"
        }
      ],
      "stateMutability": "view",
      "type": "function"
    },
    {
      "inputs": [],
      "name": "callbackEnabled",
      "outputs": [
        {
          "internalType": "bool",
          "name": "",
          "type": "bool"
        }
      ],
      "stateMutability": "view",
      "type": "function"
    },
    {
      "inputs": [],
      "name": "decimals",
      "outputs": [
        {
          "internalType": "uint8",
          "name": "",
          "type": "uint8"
        }
      ],
      "stateMutability": "view",
      "type": "function"
    },
    {
      "inputs": [
        {
          "internalType": "address",
          "name": "spender",
          "type": "address"
        },
        {
          "internalType": "uint256",
          "name": "subtractedValue",
          "type": "uint256"
        }
      ],
      "name": "decreaseAllowance",
      "outputs": [
        {
          "internalType": "bool",
          "name": "",
          "type": "bool"
        }
      ],
      "stateMutability": "nonpayable",
      "type": "function"
    },
    {
      "inputs": [
        {
          "internalType": "bool",
          "name": "_callbackEnabled",
          "type": "bool"
        }
      ],
      "name": "enableCallback",
      "outputs": [],
      "stateMutability": "nonpayable",
      "type": "function"
    },
    {
      "inputs": [
        {
          "internalType": "address",
          "name": "spender",
          "type": "address"
        },
        {
          "internalType": "uint256",
          "name": "addedValue",
          "type": "uint256"
        }
      ],
      "name": "increaseAllowance",
      "outputs": [
        {
          "internalType": "bool",
          "name": "",
          "type": "bool"
        }
      ],
      "stateMutability": "nonpayable",
      "type": "function"
    },
    {
      "inputs": [
        {
          "internalType": "address",
          "name": "account",
          "type": "address"
        }
      ],
      "name": "isMinter",
      "outputs": [
        {
          "internalType": "bool",
          "name": "",
          "type": "bool"
        }
      ],
      "stateMutability": "view",
      "type": "function"
    },
    {
      "inputs": [],
      "name": "isOwner",
      "outputs": [
        {
          "internalType": "bool",
          "name": "",
          "type": "bool"
        }
      ],
      "stateMutability": "view",
      "type": "function"
    },
    {
      "inputs": [
        {
          "internalType": "address",
          "name": "account",
          "type": "address"
        },
        {
          "internalType": "uint256",
          "name": "amount",
          "type": "uint256"
        }
      ],
      "name": "mint",
      "outputs": [
        {
          "internalType": "bool",
          "name": "",
          "type": "bool"
        }
      ],
      "stateMutability": "nonpayable",
      "type": "function"
    },
    {
      "inputs": [],
      "name": "name",
      "outputs": [
        {
          "internalType": "string",
          "name": "",
          "type": "string"
        }
      ],
      "stateMutability": "view",
      "type": "function"
    },
    {
      "inputs": [],
      "name": "owner",
      "outputs": [
        {
          "internalType": "address",
          "name": "",
          "type": "address"
        }
      ],
      "stateMutability": "view",
      "type": "function"
    },
    {
      "inputs": [
        {
          "internalType": "address",
          "name": "target",
          "type": "address"
        }
      ],
      "name": "renounceMinter",
      "outputs": [],
      "stateMutability": "nonpayable",
      "type": "function"
    },
    {
      "inputs": [],
      "name": "renounceMinter",
      "outputs": [],
      "stateMutability": "nonpayable",
      "type": "function"
    },
    {
      "inputs": [
        {
          "internalType": "address",
          "name": "target",
          "type": "address"
        }
      ],
      "name": "renounceOwnership",
      "outputs": [],
      "stateMutability": "nonpayable",
      "type": "function"
    },
    {
      "inputs": [],
      "name": "renounceOwnership",
      "outputs": [],
      "stateMutability": "nonpayable",
      "type": "function"
    },
    {
      "inputs": [
        {
          "internalType": "address",
          "name": "target",
          "type": "address"
        }
      ],
      "name": "renouncePauser",
      "outputs": [],
      "stateMutability": "nonpayable",
      "type": "function"
    },
    {
      "inputs": [],
      "name": "seigManager",
      "outputs": [
        {
          "internalType": "contract SeigManagerI",
          "name": "",
          "type": "address"
        }
      ],
      "stateMutability": "view",
      "type": "function"
    },
    {
      "inputs": [
        {
          "internalType": "contract SeigManagerI",
          "name": "_seigManager",
          "type": "address"
        }
      ],
      "name": "setSeigManager",
      "outputs": [],
      "stateMutability": "pure",
      "type": "function"
    },
    {
      "inputs": [],
      "name": "symbol",
      "outputs": [
        {
          "internalType": "string",
          "name": "",
          "type": "string"
        }
      ],
      "stateMutability": "view",
      "type": "function"
    },
    {
      "inputs": [],
      "name": "totalSupply",
      "outputs": [
        {
          "internalType": "uint256",
          "name": "",
          "type": "uint256"
        }
      ],
      "stateMutability": "view",
      "type": "function"
    },
    {
      "inputs": [
        {
          "internalType": "address",
          "name": "recipient",
          "type": "address"
        },
        {
          "internalType": "uint256",
          "name": "amount",
          "type": "uint256"
        }
      ],
      "name": "transfer",
      "outputs": [
        {
          "internalType": "bool",
          "name": "",
          "type": "bool"
        }
      ],
      "stateMutability": "nonpayable",
      "type": "function"
    },
    {
      "inputs": [
        {
          "internalType": "address",
          "name": "sender",
          "type": "address"
        },
        {
          "internalType": "address",
          "name": "recipient",
          "type": "address"
        },
        {
          "internalType": "uint256",
          "name": "amount",
          "type": "uint256"
        }
      ],
      "name": "transferFrom",
      "outputs": [
        {
          "internalType": "bool",
          "name": "",
          "type": "bool"
        }
      ],
      "stateMutability": "nonpayable",
      "type": "function"
    },
    {
      "inputs": [
        {
          "internalType": "address",
          "name": "target",
          "type": "address"
        },
        {
          "internalType": "address",
          "name": "newOwner",
          "type": "address"
        }
      ],
      "name": "transferOwnership",
      "outputs": [],
      "stateMutability": "nonpayable",
      "type": "function"
    },
    {
      "inputs": [
        {
          "internalType": "address",
          "name": "newOwner",
          "type": "address"
        }
      ],
      "name": "transferOwnership",
      "outputs": [],
      "stateMutability": "nonpayable",
      "type": "function"
    }
  ],
  "bytecode": "0x60806040523480156200001157600080fd5b506040518060400160405280601581526020017f546f6b616d616b204e6574776f726b20546f6b656e0000000000000000000000815250604051806040016040528060038152602001622a27a760e91b81525060126000620000786200010860201b60201c565b600080546001600160a01b0319166001600160a01b0383169081178255604051929350917f8be0079c531659141344cd1fd0a4f28419497f9722a3daafe3b4186f6b6457e0908290a350620000cd336200010c565b6005620000db84826200030c565b506006620000ea83826200030c565b506007805460ff191660ff9290921691909117905550620003d89050565b3390565b620001278160046200015e60201b62000bf31790919060201c565b6040516001600160a01b038216907f6ae172837ea30b801fbfcdd4108aa1d5bf8ff775444fd70256b44e6bf3dfc3f690600090a250565b6200016a8282620001e2565b15620001bd5760405162461bcd60e51b815260206004820152601f60248201527f526f6c65733a206163636f756e7420616c72656164792068617320726f6c650060448201526064015b60405180910390fd5b6001600160a01b0316600090815260209190915260409020805460ff19166001179055565b60006001600160a01b038216620002475760405162461bcd60e51b815260206004820152602260248201527f526f6c65733a206163636f756e7420697320746865207a65726f206164647265604482015261737360f01b6064820152608401620001b4565b506001600160a01b03166000908152602091909152604090205460ff1690565b634e487b7160e01b600052604160045260246000fd5b600181811c908216806200029257607f821691505b602082108103620002b357634e487b7160e01b600052602260045260246000fd5b50919050565b601f8211156200030757600081815260208120601f850160051c81016020861015620002e25750805b601f850160051c820191505b818110156200030357828155600101620002ee565b5050505b505050565b81516001600160401b0381111562000328576200032862000267565b62000340816200033984546200027d565b84620002b9565b602080601f8311600181146200037857600084156200035f5750858301515b600019600386901b1c1916600185901b17855562000303565b600085815260208120601f198616915b82811015620003a95788860151825594840194600190910190840162000388565b5085821015620003c85787850151600019600388901b60f8161c191681555b5050505050600190811b01905550565b611bb180620003e86000396000f3fe608060405234801561001057600080fd5b50600436106101c45760003560e01c806370a08231116100f95780639865027511610097578063aa271e1a11610071578063aa271e1a146103c0578063cae9ca51146103d3578063dd62ed3e146103e6578063f2fde38b1461041f57600080fd5b80639865027514610392578063a457c2d71461039a578063a9059cbb146103ad57600080fd5b80638da5cb5b116100d35780638da5cb5b146103535780638f32d59b1461036457806395d89b4114610377578063983b2d561461037f57600080fd5b806370a082311461030f578063715018a6146103385780637657f20a1461034057600080fd5b806339509351116101665780635f112c68116101405780635f112c68146102a557806363380113146102b85780636d435421146102cc5780636fb7f558146102df57600080fd5b8063395093511461026c57806340c10f191461027f57806341eb24bb1461029257600080fd5b806323b872dd116101a257806323b872dd1461021c5780633113ed5c1461022f578063313ce5671461024457806338bf3cfa1461025957600080fd5b806306fdde03146101c9578063095ea7b3146101e757806318160ddd1461020a575b600080fd5b6101d1610432565b6040516101de919061184d565b60405180910390f35b6101fa6101f5366004611875565b6104c4565b60405190151581526020016101de565b6003545b6040519081526020016101de565b6101fa61022a3660046118a1565b6104db565b61024261023d3660046118f0565b610586565b005b60075460405160ff90911681526020016101de565b61024261026736600461190d565b610619565b6101fa61027a366004611875565b6106c9565b6101fa61028d366004611875565b610704565b6102426102a036600461190d565b61077e565b6102426102b336600461190d565b610813565b6007546101fa90600160a81b900460ff1681565b6102426102da36600461192a565b6108a8565b6007546102f79061010090046001600160a01b031681565b6040516001600160a01b0390911681526020016101de565b61020e61031d36600461190d565b6001600160a01b031660009081526001602052604090205490565b610242610961565b61024261034e36600461190d565b610a12565b6000546001600160a01b03166102f7565b6000546001600160a01b031633146101fa565b6101d1610a68565b61024261038d36600461190d565b610a77565b610242610af1565b6101fa6103a8366004611875565b610afc565b6101fa6103bb366004611875565b610b4b565b6101fa6103ce36600461190d565b610b58565b6101fa6103e1366004611979565b610b65565b61020e6103f436600461192a565b6001600160a01b03918216600090815260026020908152604080832093909416825291909152205490565b61024261042d36600461190d565b610b90565b60606005805461044190611a46565b80601f016020809104026020016040519081016040528092919081815260200182805461046d90611a46565b80156104ba5780601f1061048f576101008083540402835291602001916104ba565b820191906000526020600020905b81548152906001019060200180831161049d57829003601f168201915b5050505050905090565b60006104d1338484610c6f565b5060015b92915050565b6000336001600160a01b03851614806104fc5750336001600160a01b038416145b6105735760405162461bcd60e51b815260206004820152603060248201527f53656967546f6b656e3a206f6e6c792073656e646572206f722072656369706960448201527f656e742063616e207472616e736665720000000000000000000000000000000060648201526084015b60405180910390fd5b61057e848484610d94565b949350505050565b6000546001600160a01b031633146105e05760405162461bcd60e51b815260206004820181905260248201527f4f776e61626c653a2063616c6c6572206973206e6f7420746865206f776e6572604482015260640161056a565b60078054911515600160a81b027fffffffffffffffffffff00ffffffffffffffffffffffffffffffffffffffffff909216919091179055565b6000546001600160a01b031633146106735760405162461bcd60e51b815260206004820181905260248201527f4f776e61626c653a2063616c6c6572206973206e6f7420746865206f776e6572604482015260640161056a565b806001600160a01b031663715018a66040518163ffffffff1660e01b8152600401600060405180830381600087803b1580156106ae57600080fd5b505af11580156106c2573d6000803e3d6000fd5b5050505050565b3360008181526002602090815260408083206001600160a01b038716845290915281205490916104d19185906106ff9086610dee565b610c6f565b600061070f33610b58565b6107745760405162461bcd60e51b815260206004820152603060248201527f4d696e746572526f6c653a2063616c6c657220646f6573206e6f74206861766560448201526f20746865204d696e74657220726f6c6560801b606482015260840161056a565b6104d18383610e54565b6000546001600160a01b031633146107d85760405162461bcd60e51b815260206004820181905260248201527f4f776e61626c653a2063616c6c6572206973206e6f7420746865206f776e6572604482015260640161056a565b806001600160a01b0316636ef8d66d6040518163ffffffff1660e01b8152600401600060405180830381600087803b1580156106ae57600080fd5b6000546001600160a01b0316331461086d5760405162461bcd60e51b815260206004820181905260248201527f4f776e61626c653a2063616c6c6572206973206e6f7420746865206f776e6572604482015260640161056a565b806001600160a01b031663986502756040518163ffffffff1660e01b8152600401600060405180830381600087803b1580156106ae57600080fd5b6000546001600160a01b031633146109025760405162461bcd60e51b815260206004820181905260248201527f4f776e61626c653a2063616c6c6572206973206e6f7420746865206f776e6572604482015260640161056a565b60405163f2fde38b60e01b81526001600160a01b03828116600483015283169063f2fde38b90602401600060405180830381600087803b15801561094557600080fd5b505af1158015610959573d6000803e3d6000fd5b505050505050565b6000546001600160a01b031633146109bb5760405162461bcd60e51b815260206004820181905260248201527f4f776e61626c653a2063616c6c6572206973206e6f7420746865206f776e6572604482015260640161056a565b600080546040516001600160a01b03909116907f8be0079c531659141344cd1fd0a4f28419497f9722a3daafe3b4186f6b6457e0908390a36000805473ffffffffffffffffffffffffffffffffffffffff19169055565b60405162461bcd60e51b815260206004820152602560248201527f544f4e3a20544f4e20646f65736e277420616c6c6f7720736574536569674d616044820152643730b3b2b960d91b606482015260840161056a565b60606006805461044190611a46565b610a8033610b58565b610ae55760405162461bcd60e51b815260206004820152603060248201527f4d696e746572526f6c653a2063616c6c657220646f6573206e6f74206861766560448201526f20746865204d696e74657220726f6c6560801b606482015260840161056a565b610aee81610f1c565b50565b610afa33610f5e565b565b60006104d133846106ff85604051806060016040528060258152602001611b80602591393360009081526002602090815260408083206001600160a01b038d1684529091529020549190610fa0565b60006104d1338484610fda565b60006104d56004836110a5565b6000610b7184846104c4565b610b7a57600080fd5b610b8633858585611128565b5060019392505050565b6000546001600160a01b03163314610bea5760405162461bcd60e51b815260206004820181905260248201527f4f776e61626c653a2063616c6c6572206973206e6f7420746865206f776e6572604482015260640161056a565b610aee816112e5565b610bfd82826110a5565b15610c4a5760405162461bcd60e51b815260206004820152601f60248201527f526f6c65733a206163636f756e7420616c72656164792068617320726f6c6500604482015260640161056a565b6001600160a01b0316600090815260209190915260409020805460ff19166001179055565b6001600160a01b038316610cd15760405162461bcd60e51b8152602060048201526024808201527f45524332303a20617070726f76652066726f6d20746865207a65726f206164646044820152637265737360e01b606482015260840161056a565b6001600160a01b038216610d325760405162461bcd60e51b815260206004820152602260248201527f45524332303a20617070726f766520746f20746865207a65726f206164647265604482015261737360f01b606482015260840161056a565b6001600160a01b0383811660008181526002602090815260408083209487168084529482529182902085905590518481527f8c5be1e5ebec7d5bd14f71427d1e84f3dd0314c0f7b2291e5b200ac8c7c3b92591015b60405180910390a3505050565b6000610da1848484610fda565b610b8684336106ff85604051806060016040528060288152602001611b58602891396001600160a01b038a1660009081526002602090815260408083203384529091529020549190610fa0565b600080610dfb8385611a96565b905083811015610e4d5760405162461bcd60e51b815260206004820152601b60248201527f536166654d6174683a206164646974696f6e206f766572666c6f770000000000604482015260640161056a565b9392505050565b610e5e82826113b2565b600754600160a81b900460ff168015610e86575060075461010090046001600160a01b031615155b15610f1857600754604051634a39314960e01b8152600060048201526001600160a01b0384811660248301526044820184905261010090920490911690634a393149906064016020604051808303816000875af1158015610eeb573d6000803e3d6000fd5b505050506040513d601f19601f82011682018060405250810190610f0f9190611aa9565b610f1857600080fd5b5050565b610f27600482610bf3565b6040516001600160a01b038216907f6ae172837ea30b801fbfcdd4108aa1d5bf8ff775444fd70256b44e6bf3dfc3f690600090a250565b610f69600482611498565b6040516001600160a01b038216907fe94479a9f7e1952cc78f2d6baab678adc1b772d936c6583def489e524cb6669290600090a250565b60008184841115610fc45760405162461bcd60e51b815260040161056a919061184d565b506000610fd18486611ac6565b95945050505050565b610fe583838361151a565b600754600160a81b900460ff16801561100d575060075461010090046001600160a01b031615155b156110a057600754604051634a39314960e01b81526001600160a01b03858116600483015284811660248301526044820184905261010090920490911690634a393149906064016020604051808303816000875af1158015611073573d6000803e3d6000fd5b505050506040513d601f19601f820116820180604052508101906110979190611aa9565b6110a057600080fd5b505050565b60006001600160a01b0382166111085760405162461bcd60e51b815260206004820152602260248201527f526f6c65733a206163636f756e7420697320746865207a65726f206164647265604482015261737360f01b606482015260840161056a565b506001600160a01b03166000908152602091909152604090205460ff1690565b632139e50b60e11b61113a84826116a0565b6111ac5760405162461bcd60e51b815260206004820152603160248201527f45524332304f6e417070726f76653a207370656e64657220646f65736e27742060448201527f737570706f7274206f6e417070726f7665000000000000000000000000000000606482015260840161056a565b600080856001600160a01b031683888888886040516024016111d19493929190611ad9565b60408051601f198184030181529181526020820180516001600160e01b03166001600160e01b031990941693909317909252905161120f9190611b15565b6000604051808303816000865af19150503d806000811461124c576040519150601f19603f3d011682016040523d82523d6000602084013e611251565b606091505b50915091508181906112765760405162461bcd60e51b815260040161056a919061184d565b5060208101519150816112dc5760405162461bcd60e51b815260206004820152602860248201527f45524332304f6e417070726f76653a206661696c656420746f2063616c6c206f6044820152676e417070726f766560c01b606482015260840161056a565b50505050505050565b6001600160a01b03811661134a5760405162461bcd60e51b815260206004820152602660248201527f4f776e61626c653a206e6577206f776e657220697320746865207a65726f206160448201526564647265737360d01b606482015260840161056a565b600080546040516001600160a01b03808516939216917f8be0079c531659141344cd1fd0a4f28419497f9722a3daafe3b4186f6b6457e091a36000805473ffffffffffffffffffffffffffffffffffffffff19166001600160a01b0392909216919091179055565b6001600160a01b0382166114085760405162461bcd60e51b815260206004820152601f60248201527f45524332303a206d696e7420746f20746865207a65726f206164647265737300604482015260640161056a565b6003546114159082610dee565b6003556001600160a01b03821660009081526001602052604090205461143b9082610dee565b6001600160a01b0383166000818152600160205260408082209390935591519091907fddf252ad1be2c89b69c2b068fc378daa952ba7f163c4a11628f55a4df523b3ef9061148c9085815260200190565b60405180910390a35050565b6114a282826110a5565b6114f85760405162461bcd60e51b815260206004820152602160248201527f526f6c65733a206163636f756e7420646f6573206e6f74206861766520726f6c6044820152606560f81b606482015260840161056a565b6001600160a01b0316600090815260209190915260409020805460ff19169055565b6001600160a01b03831661157e5760405162461bcd60e51b815260206004820152602560248201527f45524332303a207472616e736665722066726f6d20746865207a65726f206164604482015264647265737360d81b606482015260840161056a565b6001600160a01b0382166115e05760405162461bcd60e51b815260206004820152602360248201527f45524332303a207472616e7366657220746f20746865207a65726f206164647260448201526265737360e81b606482015260840161056a565b61161d81604051806060016040528060268152602001611b32602691396001600160a01b0386166000908152600160205260409020549190610fa0565b6001600160a01b03808516600090815260016020526040808220939093559084168152205461164c9082610dee565b6001600160a01b0380841660008181526001602052604090819020939093559151908516907fddf252ad1be2c89b69c2b068fc378daa952ba7f163c4a11628f55a4df523b3ef90610d879085815260200190565b60006116ab836116bc565b8015610e4d5750610e4d83836116ef565b60006116cf826301ffc9a760e01b6116ef565b80156104d557506116e8826001600160e01b03196116ef565b1592915050565b60008060006116fe8585611712565b91509150818015610fd15750949350505050565b604080516001600160e01b0319831660248083019190915282518083039091018152604490910182526020810180516001600160e01b03166301ffc9a760e01b17905290516000918291829081906001600160a01b038816906175309061177a908690611b15565b6000604051808303818686fa925050503d80600081146117b6576040519150601f19603f3d011682016040523d82523d6000602084013e6117bb565b606091505b50915091506020815110156117d957600080945094505050506117f6565b81818060200190518101906117ee9190611aa9565b945094505050505b9250929050565b60005b83811015611818578181015183820152602001611800565b50506000910152565b600081518084526118398160208601602086016117fd565b601f01601f19169290920160200192915050565b602081526000610e4d6020830184611821565b6001600160a01b0381168114610aee57600080fd5b6000806040838503121561188857600080fd5b823561189381611860565b946020939093013593505050565b6000806000606084860312156118b657600080fd5b83356118c181611860565b925060208401356118d181611860565b929592945050506040919091013590565b8015158114610aee57600080fd5b60006020828403121561190257600080fd5b8135610e4d816118e2565b60006020828403121561191f57600080fd5b8135610e4d81611860565b6000806040838503121561193d57600080fd5b823561194881611860565b9150602083013561195881611860565b809150509250929050565b634e487b7160e01b600052604160045260246000fd5b60008060006060848603121561198e57600080fd5b833561199981611860565b925060208401359150604084013567ffffffffffffffff808211156119bd57600080fd5b818601915086601f8301126119d157600080fd5b8135818111156119e3576119e3611963565b604051601f8201601f19908116603f01168101908382118183101715611a0b57611a0b611963565b81604052828152896020848701011115611a2457600080fd5b8260208601602083013760006020848301015280955050505050509250925092565b600181811c90821680611a5a57607f821691505b602082108103611a7a57634e487b7160e01b600052602260045260246000fd5b50919050565b634e487b7160e01b600052601160045260246000fd5b808201808211156104d5576104d5611a80565b600060208284031215611abb57600080fd5b8151610e4d816118e2565b818103818111156104d5576104d5611a80565b60006001600160a01b03808716835280861660208401525083604083015260806060830152611b0b6080830184611821565b9695505050505050565b60008251611b278184602087016117fd565b919091019291505056fe45524332303a207472616e7366657220616d6f756e7420657863656564732062616c616e636545524332303a207472616e7366657220616d6f756e74206578636565647320616c6c6f77616e636545524332303a2064656372656173656420616c6c6f77616e63652062656c6f77207a65726fa164736f6c6343000812000a",
  "linkReferences": {},
  "deployedLinkReferences": {}
}