{
  "_format": "hh-sol-artifact-1",
  "contractName": "LockIdNftForRegister",
  "sourceName": "contracts/stos/LockIdNftForRegister.sol",
  "abi": [
    {
      "inputs": [],
      "stateMutability": "nonpayable",
      "type": "constructor"
    },
    {
      "anonymous": false,
      "inputs": [
        {
          "indexed": true,
          "internalType": "address",
          "name": "owner",
          "type": "address"
        },
        {
          "indexed": true,
          "internalType": "address",
          "name": "approved",
          "type": "address"
        },
        {
          "indexed": true,
          "internalType": "uint256",
          "name": "tokenId",
          "type": "uint256"
        }
      ],
      "name": "Approval",
      "type": "event"
    },
    {
      "anonymous": false,
      "inputs": [
        {
          "indexed": true,
          "internalType": "address",
          "name": "owner",
          "type": "address"
        },
        {
          "indexed": true,
          "internalType": "address",
          "name": "operator",
          "type": "address"
        },
        {
          "indexed": false,
          "internalType": "bool",
          "name": "approved",
          "type": "bool"
        }
      ],
      "name": "ApprovalForAll",
      "type": "event"
    },
    {
      "anonymous": false,
      "inputs": [
        {
          "indexed": true,
          "internalType": "address",
          "name": "from",
          "type": "address"
        },
        {
          "indexed": true,
          "internalType": "address",
          "name": "to",
          "type": "address"
        },
        {
          "indexed": true,
          "internalType": "uint256",
          "name": "tokenId",
          "type": "uint256"
        }
      ],
      "name": "Transfer",
      "type": "event"
    },
    {
      "inputs": [],
      "name": "MULTIPLIER",
      "outputs": [
        {
          "internalType": "uint256",
          "name": "",
          "type": "uint256"
        }
      ],
      "stateMutability": "view",
      "type": "function"
    },
    {
      "inputs": [],
      "name": "_ERC721_RECEIVED",
      "outputs": [
        {
          "internalType": "bytes4",
          "name": "",
          "type": "bytes4"
        }
      ],
      "stateMutability": "view",
      "type": "function"
    },
    {
      "inputs": [],
      "name": "_INTERFACE_ID_ERC721",
      "outputs": [
        {
          "internalType": "bytes4",
          "name": "",
          "type": "bytes4"
        }
      ],
      "stateMutability": "view",
      "type": "function"
    },
    {
      "inputs": [],
      "name": "_INTERFACE_ID_ERC721_ENUMERABLE",
      "outputs": [
        {
          "internalType": "bytes4",
          "name": "",
          "type": "bytes4"
        }
      ],
      "stateMutability": "view",
      "type": "function"
    },
    {
      "inputs": [],
      "name": "_INTERFACE_ID_ERC721_METADATA",
      "outputs": [
        {
          "internalType": "bytes4",
          "name": "",
          "type": "bytes4"
        }
      ],
      "stateMutability": "view",
      "type": "function"
    },
    {
      "inputs": [
        {
          "internalType": "uint256",
          "name": "",
          "type": "uint256"
        }
      ],
      "name": "_allTokens",
      "outputs": [
        {
          "internalType": "uint256",
          "name": "",
          "type": "uint256"
        }
      ],
      "stateMutability": "view",
      "type": "function"
    },
    {
      "inputs": [
        {
          "internalType": "uint256",
          "name": "",
          "type": "uint256"
        }
      ],
      "name": "_allTokensIndex",
      "outputs": [
        {
          "internalType": "uint256",
          "name": "",
          "type": "uint256"
        }
      ],
      "stateMutability": "view",
      "type": "function"
    },
    {
      "inputs": [],
      "name": "_baseURI",
      "outputs": [
        {
          "internalType": "string",
          "name": "",
          "type": "string"
        }
      ],
      "stateMutability": "view",
      "type": "function"
    },
    {
      "inputs": [],
      "name": "_manager",
      "outputs": [
        {
          "internalType": "address",
          "name": "",
          "type": "address"
        }
      ],
      "stateMutability": "view",
      "type": "function"
    },
    {
      "inputs": [],
      "name": "_name",
      "outputs": [
        {
          "internalType": "string",
          "name": "",
          "type": "string"
        }
      ],
      "stateMutability": "view",
      "type": "function"
    },
    {
      "inputs": [
        {
          "internalType": "address",
          "name": "",
          "type": "address"
        },
        {
          "internalType": "address",
          "name": "",
          "type": "address"
        }
      ],
      "name": "_operatorApprovals",
      "outputs": [
        {
          "internalType": "bool",
          "name": "",
          "type": "bool"
        }
      ],
      "stateMutability": "view",
      "type": "function"
    },
    {
      "inputs": [
        {
          "internalType": "address",
          "name": "",
          "type": "address"
        },
        {
          "internalType": "uint256",
          "name": "",
          "type": "uint256"
        }
      ],
      "name": "_ownedTokens",
      "outputs": [
        {
          "internalType": "uint256",
          "name": "",
          "type": "uint256"
        }
      ],
      "stateMutability": "view",
      "type": "function"
    },
    {
      "inputs": [
        {
          "internalType": "address",
          "name": "",
          "type": "address"
        }
      ],
      "name": "_ownedTokensCount",
      "outputs": [
        {
          "internalType": "uint256",
          "name": "",
          "type": "uint256"
        }
      ],
      "stateMutability": "view",
      "type": "function"
    },
    {
      "inputs": [
        {
          "internalType": "uint256",
          "name": "",
          "type": "uint256"
        }
      ],
      "name": "_ownedTokensIndex",
      "outputs": [
        {
          "internalType": "uint256",
          "name": "",
          "type": "uint256"
        }
      ],
      "stateMutability": "view",
      "type": "function"
    },
    {
      "inputs": [],
      "name": "_owner",
      "outputs": [
        {
          "internalType": "address",
          "name": "",
          "type": "address"
        }
      ],
      "stateMutability": "view",
      "type": "function"
    },
    {
      "inputs": [],
      "name": "_symbol",
      "outputs": [
        {
          "internalType": "string",
          "name": "",
          "type": "string"
        }
      ],
      "stateMutability": "view",
      "type": "function"
    },
    {
      "inputs": [
        {
          "internalType": "uint256",
          "name": "",
          "type": "uint256"
        }
      ],
      "name": "_tokenApprovals",
      "outputs": [
        {
          "internalType": "address",
          "name": "",
          "type": "address"
        }
      ],
      "stateMutability": "view",
      "type": "function"
    },
    {
      "inputs": [
        {
          "internalType": "uint256",
          "name": "",
          "type": "uint256"
        }
      ],
      "name": "_tokenAttributes",
      "outputs": [
        {
          "internalType": "uint8",
          "name": "",
          "type": "uint8"
        }
      ],
      "stateMutability": "view",
      "type": "function"
    },
    {
      "inputs": [
        {
          "internalType": "uint256",
          "name": "",
          "type": "uint256"
        }
      ],
      "name": "_tokenOwner",
      "outputs": [
        {
          "internalType": "address",
          "name": "",
          "type": "address"
        }
      ],
      "stateMutability": "view",
      "type": "function"
    },
    {
      "inputs": [
        {
          "internalType": "uint256",
          "name": "",
          "type": "uint256"
        }
      ],
      "name": "_tokenURIs",
      "outputs": [
        {
          "internalType": "string",
          "name": "",
          "type": "string"
        }
      ],
      "stateMutability": "view",
      "type": "function"
    },
    {
      "inputs": [
        {
          "internalType": "address",
          "name": "",
          "type": "address"
        }
      ],
      "name": "aliveImplementation",
      "outputs": [
        {
          "internalType": "bool",
          "name": "",
          "type": "bool"
        }
      ],
      "stateMutability": "view",
      "type": "function"
    },
    {
      "inputs": [],
      "name": "allIndexOfTimes",
      "outputs": [
        {
          "internalType": "uint256[]",
          "name": "",
          "type": "uint256[]"
        }
      ],
      "stateMutability": "view",
      "type": "function"
    },
    {
      "inputs": [],
      "name": "allTokens",
      "outputs": [
        {
          "internalType": "uint256[]",
          "name": "",
          "type": "uint256[]"
        }
      ],
      "stateMutability": "view",
      "type": "function"
    },
    {
      "inputs": [
        {
          "internalType": "address",
          "name": "to",
          "type": "address"
        },
        {
          "internalType": "uint256",
          "name": "tokenId",
          "type": "uint256"
        }
      ],
      "name": "approve",
      "outputs": [],
      "stateMutability": "nonpayable",
      "type": "function"
    },
    {
      "inputs": [
        {
          "internalType": "address",
          "name": "owner_",
          "type": "address"
        }
      ],
      "name": "balanceOf",
      "outputs": [
        {
          "internalType": "uint256",
          "name": "",
          "type": "uint256"
        }
      ],
      "stateMutability": "view",
      "type": "function"
    },
    {
      "inputs": [
        {
          "internalType": "address",
          "name": "_addr",
          "type": "address"
        }
      ],
      "name": "balanceOfLock",
      "outputs": [
        {
          "internalType": "uint256",
          "name": "balance",
          "type": "uint256"
        }
      ],
      "stateMutability": "view",
      "type": "function"
    },
    {
      "inputs": [
        {
          "internalType": "uint256",
          "name": "_lockId",
          "type": "uint256"
        }
      ],
      "name": "balanceOfLock",
      "outputs": [
        {
          "internalType": "uint256",
          "name": "amount",
          "type": "uint256"
        }
      ],
      "stateMutability": "view",
      "type": "function"
    },
    {
      "inputs": [
        {
          "internalType": "address",
          "name": "_addr",
          "type": "address"
        },
        {
          "internalType": "uint32",
          "name": "_timestamp",
          "type": "uint32"
        }
      ],
      "name": "balanceOfLockAt",
      "outputs": [
        {
          "internalType": "uint256",
          "name": "balance",
          "type": "uint256"
        }
      ],
      "stateMutability": "view",
      "type": "function"
    },
    {
      "inputs": [
        {
          "internalType": "uint256",
          "name": "_lockId",
          "type": "uint256"
        },
        {
          "internalType": "uint32",
          "name": "_timestamp",
          "type": "uint32"
        }
      ],
      "name": "balanceOfLockAt",
      "outputs": [
        {
          "internalType": "uint256",
          "name": "amount",
          "type": "uint256"
        }
      ],
      "stateMutability": "view",
      "type": "function"
    },
    {
      "inputs": [
        {
          "components": [
            {
              "internalType": "int256",
              "name": "slope",
              "type": "int256"
            },
            {
              "internalType": "int256",
              "name": "bias",
              "type": "int256"
            },
            {
              "internalType": "uint32",
              "name": "timestamp",
              "type": "uint32"
            },
            {
              "internalType": "uint32",
              "name": "syncTime",
              "type": "uint32"
            }
          ],
          "internalType": "struct LibLockId.SyncInfo",
          "name": "point",
          "type": "tuple"
        },
        {
          "internalType": "uint256",
          "name": "timestamp",
          "type": "uint256"
        }
      ],
      "name": "balanceOfPoint",
      "outputs": [
        {
          "internalType": "uint256",
          "name": "",
          "type": "uint256"
        }
      ],
      "stateMutability": "pure",
      "type": "function"
    },
    {
      "inputs": [],
      "name": "baseURI",
      "outputs": [
        {
          "internalType": "string",
          "name": "",
          "type": "string"
        }
      ],
      "stateMutability": "view",
      "type": "function"
    },
    {
      "inputs": [],
      "name": "epochUnit",
      "outputs": [
        {
          "internalType": "uint256",
          "name": "",
          "type": "uint256"
        }
      ],
      "stateMutability": "view",
      "type": "function"
    },
    {
      "inputs": [
        {
          "internalType": "uint256",
          "name": "tokenId",
          "type": "uint256"
        }
      ],
      "name": "getApproved",
      "outputs": [
        {
          "internalType": "address",
          "name": "",
          "type": "address"
        }
      ],
      "stateMutability": "view",
      "type": "function"
    },
    {
      "inputs": [
        {
          "internalType": "uint256",
          "name": "",
          "type": "uint256"
        }
      ],
      "name": "indexCheckOfTimeset",
      "outputs": [
        {
          "internalType": "bool",
          "name": "",
          "type": "bool"
        }
      ],
      "stateMutability": "view",
      "type": "function"
    },
    {
      "inputs": [
        {
          "internalType": "uint256",
          "name": "",
          "type": "uint256"
        }
      ],
      "name": "indexOfTimeset",
      "outputs": [
        {
          "internalType": "uint256",
          "name": "",
          "type": "uint256"
        }
      ],
      "stateMutability": "view",
      "type": "function"
    },
    {
      "inputs": [
        {
          "internalType": "string",
          "name": "name_",
          "type": "string"
        },
        {
          "internalType": "string",
          "name": "symbol_",
          "type": "string"
        },
        {
          "internalType": "address",
          "name": "managerAddress",
          "type": "address"
        },
        {
          "internalType": "uint256",
          "name": "epochUnit_",
          "type": "uint256"
        },
        {
          "internalType": "uint256",
          "name": "maxTime_",
          "type": "uint256"
        }
      ],
      "name": "initialize",
      "outputs": [],
      "stateMutability": "nonpayable",
      "type": "function"
    },
    {
      "inputs": [
        {
          "internalType": "address",
          "name": "owner_",
          "type": "address"
        },
        {
          "internalType": "address",
          "name": "operator",
          "type": "address"
        }
      ],
      "name": "isApprovedForAll",
      "outputs": [
        {
          "internalType": "bool",
          "name": "",
          "type": "bool"
        }
      ],
      "stateMutability": "view",
      "type": "function"
    },
    {
      "inputs": [
        {
          "internalType": "address",
          "name": "addr",
          "type": "address"
        }
      ],
      "name": "isManager",
      "outputs": [
        {
          "internalType": "bool",
          "name": "",
          "type": "bool"
        }
      ],
      "stateMutability": "view",
      "type": "function"
    },
    {
      "inputs": [],
      "name": "lastIndexOfTimeset",
      "outputs": [
        {
          "internalType": "uint256",
          "name": "index",
          "type": "uint256"
        }
      ],
      "stateMutability": "view",
      "type": "function"
    },
    {
      "inputs": [
        {
          "internalType": "uint256",
          "name": "_index",
          "type": "uint256"
        }
      ],
      "name": "lastPointOfTimeIndex",
      "outputs": [
        {
          "components": [
            {
              "internalType": "int256",
              "name": "slope",
              "type": "int256"
            },
            {
              "internalType": "int256",
              "name": "bias",
              "type": "int256"
            },
            {
              "internalType": "uint32",
              "name": "timestamp",
              "type": "uint32"
            },
            {
              "internalType": "uint32",
              "name": "syncTime",
              "type": "uint32"
            }
          ],
          "internalType": "struct LibLockId.SyncInfo",
          "name": "",
          "type": "tuple"
        }
      ],
      "stateMutability": "view",
      "type": "function"
    },
    {
      "inputs": [],
      "name": "manager",
      "outputs": [
        {
          "internalType": "address",
          "name": "",
          "type": "address"
        }
      ],
      "stateMutability": "view",
      "type": "function"
    },
    {
      "inputs": [],
      "name": "maxTime",
      "outputs": [
        {
          "internalType": "uint256",
          "name": "",
          "type": "uint256"
        }
      ],
      "stateMutability": "view",
      "type": "function"
    },
    {
      "inputs": [],
      "name": "name",
      "outputs": [
        {
          "internalType": "string",
          "name": "",
          "type": "string"
        }
      ],
      "stateMutability": "view",
      "type": "function"
    },
    {
      "inputs": [
        {
          "internalType": "uint256",
          "name": "_stime",
          "type": "uint256"
        }
      ],
      "name": "nextTimeIndex",
      "outputs": [
        {
          "internalType": "uint256",
          "name": "",
          "type": "uint256"
        }
      ],
      "stateMutability": "view",
      "type": "function"
    },
    {
      "inputs": [
        {
          "internalType": "uint256",
          "name": "tokenId",
          "type": "uint256"
        }
      ],
      "name": "ownerOf",
      "outputs": [
        {
          "internalType": "address",
          "name": "",
          "type": "address"
        }
      ],
      "stateMutability": "view",
      "type": "function"
    },
    {
      "inputs": [],
      "name": "pauseProxy",
      "outputs": [
        {
          "internalType": "bool",
          "name": "",
          "type": "bool"
        }
      ],
      "stateMutability": "view",
      "type": "function"
    },
    {
      "inputs": [
        {
          "internalType": "uint256",
          "name": "",
          "type": "uint256"
        },
        {
          "internalType": "uint256",
          "name": "",
          "type": "uint256"
        }
      ],
      "name": "pointHistoryByLockId",
      "outputs": [
        {
          "internalType": "int256",
          "name": "slope",
          "type": "int256"
        },
        {
          "internalType": "int256",
          "name": "bias",
          "type": "int256"
        },
        {
          "internalType": "uint32",
          "name": "timestamp",
          "type": "uint32"
        },
        {
          "internalType": "uint32",
          "name": "syncTime",
          "type": "uint32"
        }
      ],
      "stateMutability": "view",
      "type": "function"
    },
    {
      "inputs": [
        {
          "internalType": "uint256",
          "name": "",
          "type": "uint256"
        },
        {
          "internalType": "uint256",
          "name": "",
          "type": "uint256"
        }
      ],
      "name": "pointHistoryByWeek",
      "outputs": [
        {
          "internalType": "int256",
          "name": "slope",
          "type": "int256"
        },
        {
          "internalType": "int256",
          "name": "bias",
          "type": "int256"
        },
        {
          "internalType": "uint32",
          "name": "timestamp",
          "type": "uint32"
        },
        {
          "internalType": "uint32",
          "name": "syncTime",
          "type": "uint32"
        }
      ],
      "stateMutability": "view",
      "type": "function"
    },
    {
      "inputs": [
        {
          "internalType": "uint256",
          "name": "_lockId",
          "type": "uint256"
        }
      ],
      "name": "pointHistoryOfId",
      "outputs": [
        {
          "components": [
            {
              "internalType": "int256",
              "name": "slope",
              "type": "int256"
            },
            {
              "internalType": "int256",
              "name": "bias",
              "type": "int256"
            },
            {
              "internalType": "uint32",
              "name": "timestamp",
              "type": "uint32"
            },
            {
              "internalType": "uint32",
              "name": "syncTime",
              "type": "uint32"
            }
          ],
          "internalType": "struct LibLockId.SyncInfo[]",
          "name": "",
          "type": "tuple[]"
        }
      ],
      "stateMutability": "view",
      "type": "function"
    },
    {
      "inputs": [
        {
          "internalType": "uint256",
          "name": "_timeIndex",
          "type": "uint256"
        }
      ],
      "name": "pointHistoryOfTimeIndex",
      "outputs": [
        {
          "components": [
            {
              "internalType": "int256",
              "name": "slope",
              "type": "int256"
            },
            {
              "internalType": "int256",
              "name": "bias",
              "type": "int256"
            },
            {
              "internalType": "uint32",
              "name": "timestamp",
              "type": "uint32"
            },
            {
              "internalType": "uint32",
              "name": "syncTime",
              "type": "uint32"
            }
          ],
          "internalType": "struct LibLockId.SyncInfo[]",
          "name": "",
          "type": "tuple[]"
        }
      ],
      "stateMutability": "view",
      "type": "function"
    },
    {
      "inputs": [],
      "name": "pointOfLastTimeIndex",
      "outputs": [
        {
          "components": [
            {
              "internalType": "int256",
              "name": "slope",
              "type": "int256"
            },
            {
              "internalType": "int256",
              "name": "bias",
              "type": "int256"
            },
            {
              "internalType": "uint32",
              "name": "timestamp",
              "type": "uint32"
            },
            {
              "internalType": "uint32",
              "name": "syncTime",
              "type": "uint32"
            }
          ],
          "internalType": "struct LibLockId.SyncInfo",
          "name": "",
          "type": "tuple"
        }
      ],
      "stateMutability": "view",
      "type": "function"
    },
    {
      "inputs": [
        {
          "internalType": "uint256",
          "name": "",
          "type": "uint256"
        }
      ],
      "name": "proxyImplementation",
      "outputs": [
        {
          "internalType": "address",
          "name": "",
          "type": "address"
        }
      ],
      "stateMutability": "view",
      "type": "function"
    },
    {
      "inputs": [
        {
          "internalType": "address",
          "name": "account",
          "type": "address"
        },
        {
          "components": [
            {
              "internalType": "uint256",
              "name": "lockId",
              "type": "uint256"
            },
            {
              "components": [
                {
                  "internalType": "int256",
                  "name": "slope",
                  "type": "int256"
                },
                {
                  "internalType": "int256",
                  "name": "bias",
                  "type": "int256"
                },
                {
                  "internalType": "uint32",
                  "name": "timestamp",
                  "type": "uint32"
                },
                {
                  "internalType": "uint32",
                  "name": "syncTime",
                  "type": "uint32"
                }
              ],
              "internalType": "struct LibLockId.SyncInfo",
              "name": "packet",
              "type": "tuple"
            }
          ],
          "internalType": "struct LibLockId.SyncPacket[]",
          "name": "packets",
          "type": "tuple[]"
        }
      ],
      "name": "register",
      "outputs": [],
      "stateMutability": "nonpayable",
      "type": "function"
    },
    {
      "inputs": [
        {
          "internalType": "address",
          "name": "from",
          "type": "address"
        },
        {
          "internalType": "address",
          "name": "to",
          "type": "address"
        },
        {
          "internalType": "uint256",
          "name": "tokenId",
          "type": "uint256"
        }
      ],
      "name": "safeTransferFrom",
      "outputs": [],
      "stateMutability": "nonpayable",
      "type": "function"
    },
    {
      "inputs": [
        {
          "internalType": "address",
          "name": "from",
          "type": "address"
        },
        {
          "internalType": "address",
          "name": "to",
          "type": "address"
        },
        {
          "internalType": "uint256",
          "name": "tokenId",
          "type": "uint256"
        },
        {
          "internalType": "bytes",
          "name": "_data",
          "type": "bytes"
        }
      ],
      "name": "safeTransferFrom",
      "outputs": [],
      "stateMutability": "nonpayable",
      "type": "function"
    },
    {
      "inputs": [
        {
          "internalType": "bytes4",
          "name": "",
          "type": "bytes4"
        }
      ],
      "name": "selectorImplementation",
      "outputs": [
        {
          "internalType": "address",
          "name": "",
          "type": "address"
        }
      ],
      "stateMutability": "view",
      "type": "function"
    },
    {
      "inputs": [
        {
          "internalType": "address",
          "name": "operator",
          "type": "address"
        },
        {
          "internalType": "bool",
          "name": "approved",
          "type": "bool"
        }
      ],
      "name": "setApprovalForAll",
      "outputs": [],
      "stateMutability": "nonpayable",
      "type": "function"
    },
    {
      "inputs": [
        {
          "internalType": "bytes4",
          "name": "interfaceId",
          "type": "bytes4"
        }
      ],
      "name": "supportsInterface",
      "outputs": [
        {
          "internalType": "bool",
          "name": "",
          "type": "bool"
        }
      ],
      "stateMutability": "view",
      "type": "function"
    },
    {
      "inputs": [],
      "name": "symbol",
      "outputs": [
        {
          "internalType": "string",
          "name": "",
          "type": "string"
        }
      ],
      "stateMutability": "view",
      "type": "function"
    },
    {
      "inputs": [
        {
          "internalType": "uint256",
          "name": "index",
          "type": "uint256"
        }
      ],
      "name": "tokenByIndex",
      "outputs": [
        {
          "internalType": "uint256",
          "name": "",
          "type": "uint256"
        }
      ],
      "stateMutability": "view",
      "type": "function"
    },
    {
      "inputs": [
        {
          "internalType": "address",
          "name": "owner_",
          "type": "address"
        },
        {
          "internalType": "uint256",
          "name": "index",
          "type": "uint256"
        }
      ],
      "name": "tokenOfOwnerByIndex",
      "outputs": [
        {
          "internalType": "uint256",
          "name": "",
          "type": "uint256"
        }
      ],
      "stateMutability": "view",
      "type": "function"
    },
    {
      "inputs": [
        {
          "internalType": "uint256",
          "name": "tokenId",
          "type": "uint256"
        }
      ],
      "name": "tokenURI",
      "outputs": [
        {
          "internalType": "string",
          "name": "",
          "type": "string"
        }
      ],
      "stateMutability": "view",
      "type": "function"
    },
    {
      "inputs": [
        {
          "internalType": "address",
          "name": "owner_",
          "type": "address"
        }
      ],
      "name": "tokensOfOwner",
      "outputs": [
        {
          "internalType": "uint256[]",
          "name": "",
          "type": "uint256[]"
        }
      ],
      "stateMutability": "view",
      "type": "function"
    },
    {
      "inputs": [],
      "name": "totalSupply",
      "outputs": [
        {
          "internalType": "uint256",
          "name": "",
          "type": "uint256"
        }
      ],
      "stateMutability": "view",
      "type": "function"
    },
    {
      "inputs": [],
      "name": "totalSupplyLocks",
      "outputs": [
        {
          "internalType": "uint256",
          "name": "amount",
          "type": "uint256"
        }
      ],
      "stateMutability": "view",
      "type": "function"
    },
    {
      "inputs": [
        {
          "internalType": "uint32",
          "name": "_timestamp",
          "type": "uint32"
        }
      ],
      "name": "totalSupplyLocksAt",
      "outputs": [
        {
          "internalType": "uint256",
          "name": "amount",
          "type": "uint256"
        }
      ],
      "stateMutability": "view",
      "type": "function"
    },
    {
      "inputs": [
        {
          "internalType": "address",
          "name": "from",
          "type": "address"
        },
        {
          "internalType": "address",
          "name": "to",
          "type": "address"
        },
        {
          "internalType": "uint256",
          "name": "tokenId",
          "type": "uint256"
        }
      ],
      "name": "transferFrom",
      "outputs": [],
      "stateMutability": "nonpayable",
      "type": "function"
    }
  ],
  "bytecode": "0x60806040523480156200001157600080fd5b50620000246301ffc9a760e01b6200002a565b620000ae565b6001600160e01b03198082169003620000895760405162461bcd60e51b815260206004820152601c60248201527f4552433136353a20696e76616c696420696e7465726661636520696400000000604482015260640160405180910390fd5b6001600160e01b0319166000908152600460205260409020805460ff19166001179055565b612dbb80620000be6000396000f3fe608060405234801561001057600080fd5b50600436106104215760003560e01c80638462151c11610235578063b94419e011610135578063e178ee20116100c8578063f3ae241511610097578063f88d1fef1161007c578063f88d1fef14610a01578063f975d9f314610a09578063fd2dcecf14610a1c57600080fd5b8063f3ae2415146109ce578063f6631718146109e157600080fd5b8063e178ee2014610964578063e985e9c514610977578063edc3bc3f1461098d578063f0329f6b146109bb57600080fd5b8063cea823cd11610104578063cea823cd14610923578063d28d885214610946578063de6961801461094e578063dece68541461095657600080fd5b8063b94419e0146108bc578063ba209fcf146108cf578063c87b56dd146108ef578063cdc4717c1461091057600080fd5b8063a7cc0136116101c8578063b01ac59111610197578063b2bdfa7b1161017c578063b2bdfa7b1461086c578063b88d4fde1461087f578063b911135f1461089357600080fd5b8063b01ac59114610856578063b09f12661461086457600080fd5b8063a7cc0136146107f2578063a898e9fa1461081b578063aa5965ae14610823578063aa88652b1461083657600080fd5b8063a22cb46511610204578063a22cb46514610791578063a2e9b4391461079f578063a36c36e5146107bf578063a7263665146107d257600080fd5b80638462151c1461074157806388290adc1461075457806394a509dd1461077b57806395d89b411461078957600080fd5b80633e47a4b1116103405780636352211e116102d357806370a08231116102a2578063743976a011610287578063743976a0146106fd5780637482313214610705578063796db3121461071857600080fd5b806370a08231146106d7578063743500ad146106ea57600080fd5b80636352211e1461068257806363a8fd89146106955780636c0360eb146106ba5780636ff97f1d146106c257600080fd5b80634f6ccce71161030f5780634f6ccce71461061057806350d2a27614610623578063550d01a31461064c5780635896f5281461066f57600080fd5b80633e47a4b1146105d957806342842e0e14610559578063481c6a75146105ec5780634f3c5f06146105fd57600080fd5b806317a3a79c116103b857806328f02c681161038757806328f02c681461056c5780632f745c59146105ab57806334067c3c146105be578063366c0ae7146105c657600080fd5b806317a3a79c1461051357806318160ddd1461054857806322e67e711461055057806323b872dd1461055957600080fd5b8063081812fc116103f4578063081812fc146104ad578063095ea7b3146104d95780630bb78ec1146104ed57806310c113601461050057600080fd5b806301ffc9a7146104265780630346759314610468578063059f8b161461048957806306fdde0314610498575b600080fd5b610453610434366004612411565b6001600160e01b03191660009081526004602052604090205460ff1690565b60405190151581526020015b60405180910390f35b61047b610476366004612459565b610a25565b60405190815260200161045f565b61047b670de0b6b3a764000081565b6104a0610a9a565b60405161045f91906124dc565b6104c16104bb3660046124ef565b50600090565b6040516001600160a01b03909116815260200161045f565b6104eb6104e7366004612508565b5050565b005b6104a06104fb3660046124ef565b610b2c565b61047b61050e3660046124ef565b610bc6565b6105366105213660046124ef565b60096020526000908152604090205460ff1681565b60405160ff909116815260200161045f565b60115461047b565b61047b60155481565b6104eb610567366004612532565b505050565b61057f61057a36600461256e565b610be7565b60408051948552602085019390935263ffffffff9182169284019290925216606082015260800161045f565b61047b6105b9366004612508565b610c3b565b61047b610ce2565b61047b6105d4366004612590565b610d25565b61047b6105e73660046125b3565b610d6c565b6005546001600160a01b03166104c1565b61047b61060b366004612508565b610ddd565b61047b61061e3660046124ef565b610e0e565b6104c1610631366004612411565b6003602052600090815260409020546001600160a01b031681565b61045361065a3660046125b3565b60026020526000908152604090205460ff1681565b61047b61067d3660046126b2565b610e9a565b6104c16106903660046124ef565b610f19565b6000546104539074010000000000000000000000000000000000000000900460ff1681565b6104a0610fa4565b6106ca610fb3565b60405161045f91906126dd565b61047b6106e53660046125b3565b61100a565b6104eb6106f8366004612721565b6110a4565b6104a0611205565b6104eb61071336600461287e565b611212565b6104c16107263660046124ef565b600b602052600090815260409020546001600160a01b031681565b6106ca61074f3660046125b3565b6112a8565b610762630a85bd0160e11b81565b6040516001600160e01b0319909116815260200161045f565b610762635b5e139f60e01b81565b6104a0611314565b6104eb6104e7366004612904565b61047b6107ad3660046124ef565b60106020526000908152604090205481565b61047b6107cd366004612940565b611323565b61047b6107e03660046124ef565b60126020526000908152604090205481565b6104c16108003660046124ef565b600c602052600090815260409020546001600160a01b031681565b6106ca611393565b61047b6108313660046124ef565b6113e9565b6108496108443660046124ef565b6113f9565b60405161045f919061295b565b61076263780e9d6360e01b81565b6104a06115f8565b6000546104c1906001600160a01b031681565b6104eb61088d366004612996565b50505050565b6104c16108a13660046124ef565b6001602052600090815260409020546001600160a01b031681565b61047b6108ca3660046124ef565b611605565b6108e26108dd3660046124ef565b6116ae565b60405161045f9190612a12565b6104a06108fd3660046124ef565b5060408051602081019091526000815290565b61047b61091e3660046124ef565b611752565b6104536109313660046124ef565b60196020526000908152604090205460ff1681565b6104a0611776565b61047b611783565b6107626380ac58cd60e01b81565b61057f61097236600461256e565b611796565b610453610985366004612a81565b600092915050565b61045361099b366004612a81565b600e60209081526000928352604080842090915290825290205460ff1681565b6005546104c1906001600160a01b031681565b6104536109dc3660046125b3565b6117b2565b61047b6109ef3660046125b3565b600d6020526000908152604090205481565b6108496117da565b6108e2610a173660046124ef565b611809565b61047b60145481565b600080610a31846112a8565b90508051600003610a46576000915050610a94565b60005b8151811015610a9157610a75828281518110610a6757610a67612aab565b602002602001015185610d25565b610a7f9084612ad7565b9250610a8a81612aea565b9050610a49565b50505b92915050565b606060068054610aa990612b03565b80601f0160208091040260200160405190810160405280929190818152602001828054610ad590612b03565b8015610b225780601f10610af757610100808354040283529160200191610b22565b820191906000526020600020905b815481529060010190602001808311610b0557829003601f168201915b5050505050905090565b60086020526000908152604090208054610b4590612b03565b80601f0160208091040260200160405190810160405280929190818152602001828054610b7190612b03565b8015610bbe5780601f10610b9357610100808354040283529160200191610bbe565b820191906000526020600020905b815481529060010190602001808311610ba157829003601f168201915b505050505081565b60188181548110610bd657600080fd5b600091825260209091200154905081565b60176020528160005260406000208181548110610c0357600080fd5b600091825260209091206003909102018054600182015460029092015490935090915063ffffffff8082169164010000000090041684565b6000610c468361100a565b8210610ca55760405162461bcd60e51b8152602060048201526024808201527f4c6f636b49644e46543a206f776e657220696e646578206f7574206f6620626f604482015263756e647360e01b60648201526084015b60405180910390fd5b6001600160a01b0383166000908152600f60205260409020805483908110610ccf57610ccf612aab565b9060005260206000200154905092915050565b6018546000908103610cf45750600090565b60188054610d0490600190612b3d565b81548110610d1457610d14612aab565b90600052602060002001545b905090565b600082815260166020526040812081908190610d419085611898565b915091508115610d6057610d5b818563ffffffff16610e9a565b610d63565b60005b95945050505050565b600080610d78836112a8565b90508051600003610d8c5750600092915050565b60005b8151811015610dd657610dba828281518110610dad57610dad612aab565b6020026020010151611605565b610dc49084612ad7565b9250610dcf81612aea565b9050610d8f565b5050919050565b600f6020528160005260406000208181548110610df957600080fd5b90600052602060002001600091509150505481565b6000610e1960115490565b8210610e755760405162461bcd60e51b815260206004820152602560248201527f4c6f636b49644e46543a20676c6f62616c20696e646578206f7574206f6620626044820152646f756e647360d81b6064820152608401610c9c565b60118281548110610e8857610e88612aab565b90600052602060002001549050919050565b6000826060015163ffffffff16821015610eb657506000610a94565b6000836040015163ffffffff1683610ece9190612b3d565b8451610eda9190612b50565b9050670de0b6b3a764000081856020015113610ef7576000610f07565b818560200151610f079190612b80565b610f119190612ba7565b949350505050565b6000818152600b60205260408120546001600160a01b031680610a945760405162461bcd60e51b815260206004820152602c60248201527f4c6f636b49644e46543a206f776e657220717565727920666f72206e6f6e657860448201527f697374656e7420746f6b656e00000000000000000000000000000000000000006064820152608401610c9c565b6060600a8054610aa990612b03565b60606011805480602002602001604051908101604052809291908181526020018280548015610b2257602002820191906000526020600020905b815481526020019060010190808311610fed575050505050905090565b60006001600160a01b0382166110885760405162461bcd60e51b815260206004820152602d60248201527f4c6f636b49644e46543a2062616c616e636520717565727920666f722074686560448201527f207a65726f2061646472657373000000000000000000000000000000000000006064820152608401610c9c565b506001600160a01b03166000908152600d602052604090205490565b6005546001600160a01b031633146110fe5760405162461bcd60e51b815260206004820152600b60248201527f6e6f74206d616e616765720000000000000000000000000000000000000000006044820152606401610c9c565b80516000036111395760405162461bcd60e51b81526020600482015260076024820152666e6f206461746160c81b6044820152606401610c9c565b60005b81518110156105675761118382828151811061115a5761115a612aab565b6020026020010151600001516000908152600b60205260409020546001600160a01b0316151590565b6111ae576111ae8383838151811061119d5761119d612aab565b602002602001015160000151611a12565b6111f3838383815181106111c4576111c4612aab565b6020026020010151600001518484815181106111e2576111e2612aab565b602002602001015160200151611a2c565b806111fd81612aea565b91505061113c565b600a8054610b4590612b03565b6000546001600160a01b031633146112585760405162461bcd60e51b81526020600482015260096024820152683737ba1037bbb732b960b91b6044820152606401610c9c565b6005805473ffffffffffffffffffffffffffffffffffffffff19166001600160a01b038516179055600661128c8682612c17565b5060076112998582612c17565b50601491909155601555505050565b6001600160a01b0381166000908152600f602090815260409182902080548351818402810184019094528084526060939283018282801561130857602002820191906000526020600020905b8154815260200190600101908083116112f4575b50505050509050919050565b606060078054610aa990612b03565b60008060006113378463ffffffff16611e6b565b915091508161134a575060009392505050565b600081815260176020526040812081906113649087611898565b91509150816113795750600095945050505050565b611389818763ffffffff16610e9a565b9695505050505050565b60606018805480602002602001604051908101604052809291908181526020018280548015610b225760200282019190600052602060002090815481526020019060010190808311610fed575050505050905090565b60118181548110610bd657600080fd5b60408051608081018252600080825260208201819052918101829052606081019190915281156115ca57600082815260176020908152604080832080548251818502810185019093528083529192909190849084015b828210156114b35760008481526020908190206040805160808101825260038602909201805483526001808201548486015260029091015463ffffffff8082169385019390935264010000000090049091166060830152908352909201910161144f565b505050509050805160001461159f57604051806080016040528082600184516114dc9190612b3d565b815181106114ec576114ec612aab565b6020026020010151600001518152602001826001845161150c9190612b3d565b8151811061151c5761151c612aab565b6020026020010151602001518152602001826001845161153c9190612b3d565b8151811061154c5761154c612aab565b60200260200101516040015163ffffffff16815260200182600184516115729190612b3d565b8151811061158257611582612aab565b60200260200101516060015163ffffffff16815250915050919050565b5050604080516080810182526000808252602082018190529181018290526060810191909152919050565b505060408051608081018252600080825260208201819052918101829052606081019190915290565b919050565b60078054610b4590612b03565b60008181526016602052604081205480156116a457600083815260166020526040902061169f90611637600184612b3d565b8154811061164757611647612aab565b60009182526020918290206040805160808101825260039093029091018054835260018101549383019390935260029092015463ffffffff808216938301939093526401000000009004909116606082015242610e9a565b6116a7565b60005b9392505050565b606060166000838152602001908152602001600020805480602002602001604051908101604052809291908181526020016000905b828210156117475760008481526020908190206040805160808101825260038602909201805483526001808201548486015260029091015463ffffffff808216938501939093526401000000009004909116606083015290835290920191016116e3565b505050509050919050565b6014546000906117628180612ba7565b61176c9190612cd7565b610a949083612ad7565b60068054610b4590612b03565b6000610d206117906117da565b42610e9a565b60166020528160005260406000208181548110610c0357600080fd5b6005546000906001600160a01b038084169116036117d257506001919050565b506000919050565b604080516080810182526000808252602082018190529181018290526060810191909152610d20610844610ce2565b60008181526017602090815260408083208054825181850281018501909352808352606094929391929091840182156117475760008481526020908190206040805160808101825260038602909201805483526001808201548486015260029091015463ffffffff808216938501939093526401000000009004909116606083015290835290920191016116e3565b604080516080810182526000808252602082018190529181018290526060810182905283546000036118cd5760009150611a0b565b83546000905b806118df836001612ad7565b101561195157600060026118f38385612ad7565b6118fd9190612ba7565b90508563ffffffff1687828154811061191857611918612aab565b6000918252602090912060039091020160020154640100000000900463ffffffff16116119475780925061194b565b8091505b506118d3565b8463ffffffff1686838154811061196a5761196a612aab565b6000918252602090912060039091020160020154640100000000900463ffffffff1611611a045760018683815481106119a5576119a5612aab565b60009182526020918290206040805160808101825260039093029091018054835260018101549383019390935260029092015463ffffffff80821693830193909352640100000000900490911660608201529094509250611a0b915050565b6000935050505b9250929050565b6104e7828260405180602001604052806000815250611f74565b60135460ff161515600103611a6c5760405162461bcd60e51b8152602060048201526006602482015265696e2075736560d01b6044820152606401610c9c565b6013805460ff19166001179055600082815260166020908152604080832054815160808101835284815292830184905290820183905260608201929092526040805160808101825284518152602080860151908201528482015163ffffffff908116928201929092524290911660608201528215611b66576000858152601660205260409020611afd600185612b3d565b81548110611b0d57611b0d612aab565b60009182526020918290206040805160808101825260039093029091018054835260018101549383019390935260029092015463ffffffff80821693830193909352640100000000900490911660608201529150611b9a565b60405180608001604052806000815260200160008152602001600063ffffffff168152602001600063ffffffff1681525091505b6000604051806080016040528084600001518460000151611bbb9190612b80565b815260200184602001518460200151611bd49190612b80565b815260408088015163ffffffff908116602080850191909152428083169484019490945260008b8152601682528381208054600181810183559183528383208a5160039092020190815592890151908301559287015160029091018054606089015184166401000000000267ffffffffffffffff199091169290931691909117919091179055919250611c6690611752565b60008181526017602090815260408083205481516080810183528481529283018490529082018390526060820183905292935090829003611cb057611ca96117da565b9050611d2e565b6000838152601760205260409020611cc9600184612b3d565b81548110611cd957611cd9612aab565b60009182526020918290206040805160808101825260039093029091018054835260018101549383019390935260029092015463ffffffff808216938301939093526401000000009004909116606082015290505b6000604051806080016040528086600001518460000151611d4f9190612cee565b815260200186602001518460200151611d689190612cee565b81526040808c015163ffffffff90811660208085019190915242821693830193909352600088815260178452828120805460018181018355918352858320875160039092020190815586860151918101919091558584015160029091018054606088015185166401000000000267ffffffffffffffff19909116929094169190911792909217909155878152601990925290205490915060ff16611e54576000848152601960205260408120805460ff191660019081179091556018805491820181559091527fb13d2d76d1f4b7be834882e410b3e3a8afaf69f83600ae24db354391d2378d2e018490555b50506013805460ff19169055505050505050505050565b6018546014546000918291829080611e838188612ad7565b611e8d9190612cd7565b611e979190612ba7565b905081600003611eae575060009485945092505050565b6000825b80611ebe836001612ad7565b1015611f145760006002611ed28385612ad7565b611edc9190612ba7565b90508360188281548110611ef257611ef2612aab565b906000526020600020015411611f0a57809250611f0e565b8091505b50611eb2565b8260188381548110611f2857611f28612aab565b906000526020600020015411611f6557600160188381548110611f4d57611f4d612aab565b90600052602060002001549550955050505050915091565b50600096879650945050505050565b81600003611fc45760405162461bcd60e51b815260206004820152601360248201527f6e6f7420616c6c6f77656420746f6b656e4964000000000000000000000000006044820152606401610c9c565b611fce83836120c4565b6001600160a01b0383166000908152600f6020908152604080832080548685526010845282852081905560018082018355918552838520018690556011805487865260129094529184208390558201815582527f31ecc21a745e3968a04e9570e4425bc18fa8019c68028196b546d1669c200c680183905561205290848484612204565b6105675760405162461bcd60e51b815260206004820152603560248201527f4c6f636b49644e46543a207472616e7366657220746f206e6f6e20455243373260448201527f31526563656976657220696d706c656d656e74657200000000000000000000006064820152608401610c9c565b6001600160a01b0382166121265760405162461bcd60e51b815260206004820152602360248201527f4c6f636b49644e46543a206d696e7420746f20746865207a65726f206164647260448201526265737360e81b6064820152608401610c9c565b6000818152600b60205260409020546001600160a01b03161561218b5760405162461bcd60e51b815260206004820152601f60248201527f4c6f636b49644e46543a20746f6b656e20616c7265616479206d696e746564006044820152606401610c9c565b6000818152600b60209081526040808320805473ffffffffffffffffffffffffffffffffffffffff19166001600160a01b038716908117909155808452600d90925280832080546001019055518392907fddf252ad1be2c89b69c2b068fc378daa952ba7f163c4a11628f55a4df523b3ef908290a45050565b60006001600160a01b0384163b61221d57506001610f11565b600061229e63150b7a0260e01b338887876040516024016122419493929190612d0e565b604051602081830303815290604052906001600160e01b0319166020820180516001600160e01b038381831617835250505050604051806060016040528060358152602001612d7a603591396001600160a01b03881691906122d5565b90506000818060200190518101906122b69190612d40565b6001600160e01b031916630a85bd0160e11b1492505050949350505050565b6060610f11848460008585600080866001600160a01b031685876040516122fc9190612d5d565b60006040518083038185875af1925050503d8060008114612339576040519150601f19603f3d011682016040523d82523d6000602084013e61233e565b606091505b509150915061234f8783838761235a565b979650505050505050565b606083156123c95782516000036123c2576001600160a01b0385163b6123c25760405162461bcd60e51b815260206004820152601d60248201527f416464726573733a2063616c6c20746f206e6f6e2d636f6e74726163740000006044820152606401610c9c565b5081610f11565b610f1183838151156123de5781518083602001fd5b8060405162461bcd60e51b8152600401610c9c91906124dc565b6001600160e01b03198116811461240e57600080fd5b50565b60006020828403121561242357600080fd5b81356116a7816123f8565b80356001600160a01b03811681146115f357600080fd5b803563ffffffff811681146115f357600080fd5b6000806040838503121561246c57600080fd5b6124758361242e565b915061248360208401612445565b90509250929050565b60005b838110156124a757818101518382015260200161248f565b50506000910152565b600081518084526124c881602086016020860161248c565b601f01601f19169290920160200192915050565b6020815260006116a760208301846124b0565b60006020828403121561250157600080fd5b5035919050565b6000806040838503121561251b57600080fd5b6125248361242e565b946020939093013593505050565b60008060006060848603121561254757600080fd5b6125508461242e565b925061255e6020850161242e565b9150604084013590509250925092565b6000806040838503121561258157600080fd5b50508035926020909101359150565b600080604083850312156125a357600080fd5b8235915061248360208401612445565b6000602082840312156125c557600080fd5b6116a78261242e565b634e487b7160e01b600052604160045260246000fd5b6040805190810167ffffffffffffffff81118282101715612607576126076125ce565b60405290565b604051601f8201601f1916810167ffffffffffffffff81118282101715612636576126366125ce565b604052919050565b60006080828403121561265057600080fd5b6040516080810181811067ffffffffffffffff82111715612673576126736125ce565b8060405250809150823581526020830135602082015261269560408401612445565b60408201526126a660608401612445565b60608201525092915050565b60008060a083850312156126c557600080fd5b6126cf848461263e565b946080939093013593505050565b6020808252825182820181905260009190848201906040850190845b81811015612715578351835292840192918401916001016126f9565b50909695505050505050565b6000806040838503121561273457600080fd5b61273d8361242e565b915060208084013567ffffffffffffffff8082111561275b57600080fd5b818601915086601f83011261276f57600080fd5b813581811115612781576127816125ce565b61278f848260051b0161260d565b818152848101925060a09182028401850191898311156127ae57600080fd5b938501935b828510156127f65780858b0312156127cb5760008081fd5b6127d36125e4565b853581526127e38b88880161263e565b81880152845293840193928501926127b3565b5080955050505050509250929050565b600067ffffffffffffffff831115612820576128206125ce565b612833601f8401601f191660200161260d565b905082815283838301111561284757600080fd5b828260208301376000602084830101529392505050565b600082601f83011261286f57600080fd5b6116a783833560208501612806565b600080600080600060a0868803121561289657600080fd5b853567ffffffffffffffff808211156128ae57600080fd5b6128ba89838a0161285e565b965060208801359150808211156128d057600080fd5b506128dd8882890161285e565b9450506128ec6040870161242e565b94979396509394606081013594506080013592915050565b6000806040838503121561291757600080fd5b6129208361242e565b91506020830135801515811461293557600080fd5b809150509250929050565b60006020828403121561295257600080fd5b6116a782612445565b60808101610a9482848051825260208101516020830152604081015163ffffffff808216604085015280606084015116606085015250505050565b600080600080608085870312156129ac57600080fd5b6129b58561242e565b93506129c36020860161242e565b925060408501359150606085013567ffffffffffffffff8111156129e657600080fd5b8501601f810187136129f757600080fd5b612a0687823560208401612806565b91505092959194509250565b6020808252825182820181905260009190848201906040850190845b8181101561271557612a6e8385518051825260208101516020830152604081015163ffffffff808216604085015280606084015116606085015250505050565b9284019260809290920191600101612a2e565b60008060408385031215612a9457600080fd5b612a9d8361242e565b91506124836020840161242e565b634e487b7160e01b600052603260045260246000fd5b634e487b7160e01b600052601160045260246000fd5b80820180821115610a9457610a94612ac1565b600060018201612afc57612afc612ac1565b5060010190565b600181811c90821680612b1757607f821691505b602082108103612b3757634e487b7160e01b600052602260045260246000fd5b50919050565b81810381811115610a9457610a94612ac1565b80820260008212600160ff1b84141615612b6c57612b6c612ac1565b8181058314821517610a9457610a94612ac1565b8181036000831280158383131683831282161715612ba057612ba0612ac1565b5092915050565b600082612bc457634e487b7160e01b600052601260045260246000fd5b500490565b601f82111561056757600081815260208120601f850160051c81016020861015612bf05750805b601f850160051c820191505b81811015612c0f57828155600101612bfc565b505050505050565b815167ffffffffffffffff811115612c3157612c316125ce565b612c4581612c3f8454612b03565b84612bc9565b602080601f831160018114612c7a5760008415612c625750858301515b600019600386901b1c1916600185901b178555612c0f565b600085815260208120601f198616915b82811015612ca957888601518255948401946001909101908401612c8a565b5085821015612cc75787850151600019600388901b60f8161c191681555b5050505050600190811b01905550565b8082028115828204841417610a9457610a94612ac1565b8082018281126000831280158216821582161715610a9157610a91612ac1565b60006001600160a01b0380871683528086166020840152508360408301526080606083015261138960808301846124b0565b600060208284031215612d5257600080fd5b81516116a7816123f8565b60008251612d6f81846020870161248c565b919091019291505056fe4c6f636b49644e46543a207472616e7366657220746f206e6f6e20455243373231526563656976657220696d706c656d656e746572a164736f6c6343000812000a",
  "linkReferences": {},
  "deployedLinkReferences": {}
}