{
  "_format": "hh-sol-artifact-1",
  "contractName": "LockIdNftForRegister",
  "sourceName": "contracts/stos/LockIdNftForRegister.sol",
  "abi": [
    {
      "inputs": [
        {
          "internalType": "string",
          "name": "name_",
          "type": "string"
        },
        {
          "internalType": "string",
          "name": "symbol_",
          "type": "string"
        },
        {
          "internalType": "address",
          "name": "managerAddress",
          "type": "address"
        },
        {
          "internalType": "uint256",
          "name": "epochUnit_",
          "type": "uint256"
        },
        {
          "internalType": "uint256",
          "name": "maxTime_",
          "type": "uint256"
        }
      ],
      "stateMutability": "nonpayable",
      "type": "constructor"
    },
    {
      "anonymous": false,
      "inputs": [
        {
          "indexed": true,
          "internalType": "address",
          "name": "owner",
          "type": "address"
        },
        {
          "indexed": true,
          "internalType": "address",
          "name": "approved",
          "type": "address"
        },
        {
          "indexed": true,
          "internalType": "uint256",
          "name": "tokenId",
          "type": "uint256"
        }
      ],
      "name": "Approval",
      "type": "event"
    },
    {
      "anonymous": false,
      "inputs": [
        {
          "indexed": true,
          "internalType": "address",
          "name": "owner",
          "type": "address"
        },
        {
          "indexed": true,
          "internalType": "address",
          "name": "operator",
          "type": "address"
        },
        {
          "indexed": false,
          "internalType": "bool",
          "name": "approved",
          "type": "bool"
        }
      ],
      "name": "ApprovalForAll",
      "type": "event"
    },
    {
      "anonymous": false,
      "inputs": [
        {
          "indexed": true,
          "internalType": "address",
          "name": "from",
          "type": "address"
        },
        {
          "indexed": true,
          "internalType": "address",
          "name": "to",
          "type": "address"
        },
        {
          "indexed": true,
          "internalType": "uint256",
          "name": "tokenId",
          "type": "uint256"
        }
      ],
      "name": "Transfer",
      "type": "event"
    },
    {
      "inputs": [],
      "name": "MULTIPLIER",
      "outputs": [
        {
          "internalType": "uint256",
          "name": "",
          "type": "uint256"
        }
      ],
      "stateMutability": "view",
      "type": "function"
    },
    {
      "inputs": [],
      "name": "_ERC721_RECEIVED",
      "outputs": [
        {
          "internalType": "bytes4",
          "name": "",
          "type": "bytes4"
        }
      ],
      "stateMutability": "view",
      "type": "function"
    },
    {
      "inputs": [],
      "name": "_INTERFACE_ID_ERC721",
      "outputs": [
        {
          "internalType": "bytes4",
          "name": "",
          "type": "bytes4"
        }
      ],
      "stateMutability": "view",
      "type": "function"
    },
    {
      "inputs": [],
      "name": "_INTERFACE_ID_ERC721_ENUMERABLE",
      "outputs": [
        {
          "internalType": "bytes4",
          "name": "",
          "type": "bytes4"
        }
      ],
      "stateMutability": "view",
      "type": "function"
    },
    {
      "inputs": [],
      "name": "_INTERFACE_ID_ERC721_METADATA",
      "outputs": [
        {
          "internalType": "bytes4",
          "name": "",
          "type": "bytes4"
        }
      ],
      "stateMutability": "view",
      "type": "function"
    },
    {
      "inputs": [
        {
          "internalType": "uint256",
          "name": "",
          "type": "uint256"
        }
      ],
      "name": "_allTokens",
      "outputs": [
        {
          "internalType": "uint256",
          "name": "",
          "type": "uint256"
        }
      ],
      "stateMutability": "view",
      "type": "function"
    },
    {
      "inputs": [
        {
          "internalType": "uint256",
          "name": "",
          "type": "uint256"
        }
      ],
      "name": "_allTokensIndex",
      "outputs": [
        {
          "internalType": "uint256",
          "name": "",
          "type": "uint256"
        }
      ],
      "stateMutability": "view",
      "type": "function"
    },
    {
      "inputs": [],
      "name": "_baseURI",
      "outputs": [
        {
          "internalType": "string",
          "name": "",
          "type": "string"
        }
      ],
      "stateMutability": "view",
      "type": "function"
    },
    {
      "inputs": [],
      "name": "_manager",
      "outputs": [
        {
          "internalType": "address",
          "name": "",
          "type": "address"
        }
      ],
      "stateMutability": "view",
      "type": "function"
    },
    {
      "inputs": [],
      "name": "_name",
      "outputs": [
        {
          "internalType": "string",
          "name": "",
          "type": "string"
        }
      ],
      "stateMutability": "view",
      "type": "function"
    },
    {
      "inputs": [
        {
          "internalType": "address",
          "name": "",
          "type": "address"
        },
        {
          "internalType": "address",
          "name": "",
          "type": "address"
        }
      ],
      "name": "_operatorApprovals",
      "outputs": [
        {
          "internalType": "bool",
          "name": "",
          "type": "bool"
        }
      ],
      "stateMutability": "view",
      "type": "function"
    },
    {
      "inputs": [
        {
          "internalType": "address",
          "name": "",
          "type": "address"
        },
        {
          "internalType": "uint256",
          "name": "",
          "type": "uint256"
        }
      ],
      "name": "_ownedTokens",
      "outputs": [
        {
          "internalType": "uint256",
          "name": "",
          "type": "uint256"
        }
      ],
      "stateMutability": "view",
      "type": "function"
    },
    {
      "inputs": [
        {
          "internalType": "address",
          "name": "",
          "type": "address"
        }
      ],
      "name": "_ownedTokensCount",
      "outputs": [
        {
          "internalType": "uint256",
          "name": "",
          "type": "uint256"
        }
      ],
      "stateMutability": "view",
      "type": "function"
    },
    {
      "inputs": [
        {
          "internalType": "uint256",
          "name": "",
          "type": "uint256"
        }
      ],
      "name": "_ownedTokensIndex",
      "outputs": [
        {
          "internalType": "uint256",
          "name": "",
          "type": "uint256"
        }
      ],
      "stateMutability": "view",
      "type": "function"
    },
    {
      "inputs": [],
      "name": "_owner",
      "outputs": [
        {
          "internalType": "address",
          "name": "",
          "type": "address"
        }
      ],
      "stateMutability": "view",
      "type": "function"
    },
    {
      "inputs": [],
      "name": "_symbol",
      "outputs": [
        {
          "internalType": "string",
          "name": "",
          "type": "string"
        }
      ],
      "stateMutability": "view",
      "type": "function"
    },
    {
      "inputs": [
        {
          "internalType": "uint256",
          "name": "",
          "type": "uint256"
        }
      ],
      "name": "_tokenApprovals",
      "outputs": [
        {
          "internalType": "address",
          "name": "",
          "type": "address"
        }
      ],
      "stateMutability": "view",
      "type": "function"
    },
    {
      "inputs": [
        {
          "internalType": "uint256",
          "name": "",
          "type": "uint256"
        }
      ],
      "name": "_tokenAttributes",
      "outputs": [
        {
          "internalType": "uint8",
          "name": "",
          "type": "uint8"
        }
      ],
      "stateMutability": "view",
      "type": "function"
    },
    {
      "inputs": [
        {
          "internalType": "uint256",
          "name": "",
          "type": "uint256"
        }
      ],
      "name": "_tokenOwner",
      "outputs": [
        {
          "internalType": "address",
          "name": "",
          "type": "address"
        }
      ],
      "stateMutability": "view",
      "type": "function"
    },
    {
      "inputs": [
        {
          "internalType": "uint256",
          "name": "",
          "type": "uint256"
        }
      ],
      "name": "_tokenURIs",
      "outputs": [
        {
          "internalType": "string",
          "name": "",
          "type": "string"
        }
      ],
      "stateMutability": "view",
      "type": "function"
    },
    {
      "inputs": [
        {
          "internalType": "address",
          "name": "",
          "type": "address"
        }
      ],
      "name": "aliveImplementation",
      "outputs": [
        {
          "internalType": "bool",
          "name": "",
          "type": "bool"
        }
      ],
      "stateMutability": "view",
      "type": "function"
    },
    {
      "inputs": [],
      "name": "allIndexOfTimes",
      "outputs": [
        {
          "internalType": "uint256[]",
          "name": "",
          "type": "uint256[]"
        }
      ],
      "stateMutability": "view",
      "type": "function"
    },
    {
      "inputs": [],
      "name": "allTokens",
      "outputs": [
        {
          "internalType": "uint256[]",
          "name": "",
          "type": "uint256[]"
        }
      ],
      "stateMutability": "view",
      "type": "function"
    },
    {
      "inputs": [
        {
          "internalType": "address",
          "name": "to",
          "type": "address"
        },
        {
          "internalType": "uint256",
          "name": "tokenId",
          "type": "uint256"
        }
      ],
      "name": "approve",
      "outputs": [],
      "stateMutability": "nonpayable",
      "type": "function"
    },
    {
      "inputs": [
        {
          "internalType": "address",
          "name": "owner_",
          "type": "address"
        }
      ],
      "name": "balanceOf",
      "outputs": [
        {
          "internalType": "uint256",
          "name": "",
          "type": "uint256"
        }
      ],
      "stateMutability": "view",
      "type": "function"
    },
    {
      "inputs": [
        {
          "internalType": "address",
          "name": "_addr",
          "type": "address"
        }
      ],
      "name": "balanceOfLock",
      "outputs": [
        {
          "internalType": "uint256",
          "name": "balance",
          "type": "uint256"
        }
      ],
      "stateMutability": "view",
      "type": "function"
    },
    {
      "inputs": [
        {
          "internalType": "uint256",
          "name": "_lockId",
          "type": "uint256"
        }
      ],
      "name": "balanceOfLock",
      "outputs": [
        {
          "internalType": "uint256",
          "name": "amount",
          "type": "uint256"
        }
      ],
      "stateMutability": "view",
      "type": "function"
    },
    {
      "inputs": [
        {
          "internalType": "address",
          "name": "_addr",
          "type": "address"
        },
        {
          "internalType": "uint32",
          "name": "_timestamp",
          "type": "uint32"
        }
      ],
      "name": "balanceOfLockAt",
      "outputs": [
        {
          "internalType": "uint256",
          "name": "balance",
          "type": "uint256"
        }
      ],
      "stateMutability": "view",
      "type": "function"
    },
    {
      "inputs": [
        {
          "internalType": "uint256",
          "name": "_lockId",
          "type": "uint256"
        },
        {
          "internalType": "uint32",
          "name": "_timestamp",
          "type": "uint32"
        }
      ],
      "name": "balanceOfLockAt",
      "outputs": [
        {
          "internalType": "uint256",
          "name": "amount",
          "type": "uint256"
        }
      ],
      "stateMutability": "view",
      "type": "function"
    },
    {
      "inputs": [
        {
          "components": [
            {
              "internalType": "int256",
              "name": "slope",
              "type": "int256"
            },
            {
              "internalType": "int256",
              "name": "bias",
              "type": "int256"
            },
            {
              "internalType": "uint32",
              "name": "timestamp",
              "type": "uint32"
            },
            {
              "internalType": "uint32",
              "name": "syncTime",
              "type": "uint32"
            }
          ],
          "internalType": "struct LibLockId.SyncInfo",
          "name": "point",
          "type": "tuple"
        },
        {
          "internalType": "uint256",
          "name": "timestamp",
          "type": "uint256"
        }
      ],
      "name": "balanceOfPoint",
      "outputs": [
        {
          "internalType": "uint256",
          "name": "",
          "type": "uint256"
        }
      ],
      "stateMutability": "pure",
      "type": "function"
    },
    {
      "inputs": [],
      "name": "baseURI",
      "outputs": [
        {
          "internalType": "string",
          "name": "",
          "type": "string"
        }
      ],
      "stateMutability": "view",
      "type": "function"
    },
    {
      "inputs": [],
      "name": "epochUnit",
      "outputs": [
        {
          "internalType": "uint256",
          "name": "",
          "type": "uint256"
        }
      ],
      "stateMutability": "view",
      "type": "function"
    },
    {
      "inputs": [
        {
          "internalType": "uint256",
          "name": "tokenId",
          "type": "uint256"
        }
      ],
      "name": "getApproved",
      "outputs": [
        {
          "internalType": "address",
          "name": "",
          "type": "address"
        }
      ],
      "stateMutability": "view",
      "type": "function"
    },
    {
      "inputs": [
        {
          "internalType": "uint256",
          "name": "",
          "type": "uint256"
        }
      ],
      "name": "indexCheckOfTimeset",
      "outputs": [
        {
          "internalType": "bool",
          "name": "",
          "type": "bool"
        }
      ],
      "stateMutability": "view",
      "type": "function"
    },
    {
      "inputs": [
        {
          "internalType": "uint256",
          "name": "",
          "type": "uint256"
        }
      ],
      "name": "indexOfTimeset",
      "outputs": [
        {
          "internalType": "uint256",
          "name": "",
          "type": "uint256"
        }
      ],
      "stateMutability": "view",
      "type": "function"
    },
    {
      "inputs": [
        {
          "internalType": "address",
          "name": "owner_",
          "type": "address"
        },
        {
          "internalType": "address",
          "name": "operator",
          "type": "address"
        }
      ],
      "name": "isApprovedForAll",
      "outputs": [
        {
          "internalType": "bool",
          "name": "",
          "type": "bool"
        }
      ],
      "stateMutability": "view",
      "type": "function"
    },
    {
      "inputs": [
        {
          "internalType": "address",
          "name": "addr",
          "type": "address"
        }
      ],
      "name": "isManager",
      "outputs": [
        {
          "internalType": "bool",
          "name": "",
          "type": "bool"
        }
      ],
      "stateMutability": "view",
      "type": "function"
    },
    {
      "inputs": [],
      "name": "lastIndexOfTimeset",
      "outputs": [
        {
          "internalType": "uint256",
          "name": "index",
          "type": "uint256"
        }
      ],
      "stateMutability": "view",
      "type": "function"
    },
    {
      "inputs": [
        {
          "internalType": "uint256",
          "name": "_index",
          "type": "uint256"
        }
      ],
      "name": "lastPointOfTimeIndex",
      "outputs": [
        {
          "components": [
            {
              "internalType": "int256",
              "name": "slope",
              "type": "int256"
            },
            {
              "internalType": "int256",
              "name": "bias",
              "type": "int256"
            },
            {
              "internalType": "uint32",
              "name": "timestamp",
              "type": "uint32"
            },
            {
              "internalType": "uint32",
              "name": "syncTime",
              "type": "uint32"
            }
          ],
          "internalType": "struct LibLockId.SyncInfo",
          "name": "",
          "type": "tuple"
        }
      ],
      "stateMutability": "view",
      "type": "function"
    },
    {
      "inputs": [],
      "name": "manager",
      "outputs": [
        {
          "internalType": "address",
          "name": "",
          "type": "address"
        }
      ],
      "stateMutability": "view",
      "type": "function"
    },
    {
      "inputs": [],
      "name": "maxTime",
      "outputs": [
        {
          "internalType": "uint256",
          "name": "",
          "type": "uint256"
        }
      ],
      "stateMutability": "view",
      "type": "function"
    },
    {
      "inputs": [],
      "name": "name",
      "outputs": [
        {
          "internalType": "string",
          "name": "",
          "type": "string"
        }
      ],
      "stateMutability": "view",
      "type": "function"
    },
    {
      "inputs": [
        {
          "internalType": "uint256",
          "name": "_stime",
          "type": "uint256"
        }
      ],
      "name": "nextTimeIndex",
      "outputs": [
        {
          "internalType": "uint256",
          "name": "",
          "type": "uint256"
        }
      ],
      "stateMutability": "view",
      "type": "function"
    },
    {
      "inputs": [
        {
          "internalType": "uint256",
          "name": "tokenId",
          "type": "uint256"
        }
      ],
      "name": "ownerOf",
      "outputs": [
        {
          "internalType": "address",
          "name": "",
          "type": "address"
        }
      ],
      "stateMutability": "view",
      "type": "function"
    },
    {
      "inputs": [],
      "name": "pauseProxy",
      "outputs": [
        {
          "internalType": "bool",
          "name": "",
          "type": "bool"
        }
      ],
      "stateMutability": "view",
      "type": "function"
    },
    {
      "inputs": [
        {
          "internalType": "uint256",
          "name": "",
          "type": "uint256"
        },
        {
          "internalType": "uint256",
          "name": "",
          "type": "uint256"
        }
      ],
      "name": "pointHistoryByLockId",
      "outputs": [
        {
          "internalType": "int256",
          "name": "slope",
          "type": "int256"
        },
        {
          "internalType": "int256",
          "name": "bias",
          "type": "int256"
        },
        {
          "internalType": "uint32",
          "name": "timestamp",
          "type": "uint32"
        },
        {
          "internalType": "uint32",
          "name": "syncTime",
          "type": "uint32"
        }
      ],
      "stateMutability": "view",
      "type": "function"
    },
    {
      "inputs": [
        {
          "internalType": "uint256",
          "name": "",
          "type": "uint256"
        },
        {
          "internalType": "uint256",
          "name": "",
          "type": "uint256"
        }
      ],
      "name": "pointHistoryByWeek",
      "outputs": [
        {
          "internalType": "int256",
          "name": "slope",
          "type": "int256"
        },
        {
          "internalType": "int256",
          "name": "bias",
          "type": "int256"
        },
        {
          "internalType": "uint32",
          "name": "timestamp",
          "type": "uint32"
        },
        {
          "internalType": "uint32",
          "name": "syncTime",
          "type": "uint32"
        }
      ],
      "stateMutability": "view",
      "type": "function"
    },
    {
      "inputs": [
        {
          "internalType": "uint256",
          "name": "_lockId",
          "type": "uint256"
        }
      ],
      "name": "pointHistoryOfId",
      "outputs": [
        {
          "components": [
            {
              "internalType": "int256",
              "name": "slope",
              "type": "int256"
            },
            {
              "internalType": "int256",
              "name": "bias",
              "type": "int256"
            },
            {
              "internalType": "uint32",
              "name": "timestamp",
              "type": "uint32"
            },
            {
              "internalType": "uint32",
              "name": "syncTime",
              "type": "uint32"
            }
          ],
          "internalType": "struct LibLockId.SyncInfo[]",
          "name": "",
          "type": "tuple[]"
        }
      ],
      "stateMutability": "view",
      "type": "function"
    },
    {
      "inputs": [
        {
          "internalType": "uint256",
          "name": "_timeIndex",
          "type": "uint256"
        }
      ],
      "name": "pointHistoryOfTimeIndex",
      "outputs": [
        {
          "components": [
            {
              "internalType": "int256",
              "name": "slope",
              "type": "int256"
            },
            {
              "internalType": "int256",
              "name": "bias",
              "type": "int256"
            },
            {
              "internalType": "uint32",
              "name": "timestamp",
              "type": "uint32"
            },
            {
              "internalType": "uint32",
              "name": "syncTime",
              "type": "uint32"
            }
          ],
          "internalType": "struct LibLockId.SyncInfo[]",
          "name": "",
          "type": "tuple[]"
        }
      ],
      "stateMutability": "view",
      "type": "function"
    },
    {
      "inputs": [],
      "name": "pointOfLastTimeIndex",
      "outputs": [
        {
          "components": [
            {
              "internalType": "int256",
              "name": "slope",
              "type": "int256"
            },
            {
              "internalType": "int256",
              "name": "bias",
              "type": "int256"
            },
            {
              "internalType": "uint32",
              "name": "timestamp",
              "type": "uint32"
            },
            {
              "internalType": "uint32",
              "name": "syncTime",
              "type": "uint32"
            }
          ],
          "internalType": "struct LibLockId.SyncInfo",
          "name": "",
          "type": "tuple"
        }
      ],
      "stateMutability": "view",
      "type": "function"
    },
    {
      "inputs": [
        {
          "internalType": "uint256",
          "name": "",
          "type": "uint256"
        }
      ],
      "name": "proxyImplementation",
      "outputs": [
        {
          "internalType": "address",
          "name": "",
          "type": "address"
        }
      ],
      "stateMutability": "view",
      "type": "function"
    },
    {
      "inputs": [
        {
          "internalType": "address",
          "name": "account",
          "type": "address"
        },
        {
          "components": [
            {
              "internalType": "uint256",
              "name": "lockId",
              "type": "uint256"
            },
            {
              "components": [
                {
                  "internalType": "int256",
                  "name": "slope",
                  "type": "int256"
                },
                {
                  "internalType": "int256",
                  "name": "bias",
                  "type": "int256"
                },
                {
                  "internalType": "uint32",
                  "name": "timestamp",
                  "type": "uint32"
                },
                {
                  "internalType": "uint32",
                  "name": "syncTime",
                  "type": "uint32"
                }
              ],
              "internalType": "struct LibLockId.SyncInfo",
              "name": "packet",
              "type": "tuple"
            }
          ],
          "internalType": "struct LibLockId.SyncPacket[]",
          "name": "packets",
          "type": "tuple[]"
        }
      ],
      "name": "register",
      "outputs": [],
      "stateMutability": "nonpayable",
      "type": "function"
    },
    {
      "inputs": [
        {
          "internalType": "address",
          "name": "from",
          "type": "address"
        },
        {
          "internalType": "address",
          "name": "to",
          "type": "address"
        },
        {
          "internalType": "uint256",
          "name": "tokenId",
          "type": "uint256"
        }
      ],
      "name": "safeTransferFrom",
      "outputs": [],
      "stateMutability": "nonpayable",
      "type": "function"
    },
    {
      "inputs": [
        {
          "internalType": "address",
          "name": "from",
          "type": "address"
        },
        {
          "internalType": "address",
          "name": "to",
          "type": "address"
        },
        {
          "internalType": "uint256",
          "name": "tokenId",
          "type": "uint256"
        },
        {
          "internalType": "bytes",
          "name": "_data",
          "type": "bytes"
        }
      ],
      "name": "safeTransferFrom",
      "outputs": [],
      "stateMutability": "nonpayable",
      "type": "function"
    },
    {
      "inputs": [
        {
          "internalType": "bytes4",
          "name": "",
          "type": "bytes4"
        }
      ],
      "name": "selectorImplementation",
      "outputs": [
        {
          "internalType": "address",
          "name": "",
          "type": "address"
        }
      ],
      "stateMutability": "view",
      "type": "function"
    },
    {
      "inputs": [
        {
          "internalType": "address",
          "name": "operator",
          "type": "address"
        },
        {
          "internalType": "bool",
          "name": "approved",
          "type": "bool"
        }
      ],
      "name": "setApprovalForAll",
      "outputs": [],
      "stateMutability": "nonpayable",
      "type": "function"
    },
    {
      "inputs": [
        {
          "internalType": "bytes4",
          "name": "interfaceId",
          "type": "bytes4"
        }
      ],
      "name": "supportsInterface",
      "outputs": [
        {
          "internalType": "bool",
          "name": "",
          "type": "bool"
        }
      ],
      "stateMutability": "view",
      "type": "function"
    },
    {
      "inputs": [],
      "name": "symbol",
      "outputs": [
        {
          "internalType": "string",
          "name": "",
          "type": "string"
        }
      ],
      "stateMutability": "view",
      "type": "function"
    },
    {
      "inputs": [
        {
          "internalType": "uint256",
          "name": "index",
          "type": "uint256"
        }
      ],
      "name": "tokenByIndex",
      "outputs": [
        {
          "internalType": "uint256",
          "name": "",
          "type": "uint256"
        }
      ],
      "stateMutability": "view",
      "type": "function"
    },
    {
      "inputs": [
        {
          "internalType": "address",
          "name": "owner_",
          "type": "address"
        },
        {
          "internalType": "uint256",
          "name": "index",
          "type": "uint256"
        }
      ],
      "name": "tokenOfOwnerByIndex",
      "outputs": [
        {
          "internalType": "uint256",
          "name": "",
          "type": "uint256"
        }
      ],
      "stateMutability": "view",
      "type": "function"
    },
    {
      "inputs": [
        {
          "internalType": "uint256",
          "name": "tokenId",
          "type": "uint256"
        }
      ],
      "name": "tokenURI",
      "outputs": [
        {
          "internalType": "string",
          "name": "",
          "type": "string"
        }
      ],
      "stateMutability": "view",
      "type": "function"
    },
    {
      "inputs": [
        {
          "internalType": "address",
          "name": "owner_",
          "type": "address"
        }
      ],
      "name": "tokensOfOwner",
      "outputs": [
        {
          "internalType": "uint256[]",
          "name": "",
          "type": "uint256[]"
        }
      ],
      "stateMutability": "view",
      "type": "function"
    },
    {
      "inputs": [],
      "name": "totalSupply",
      "outputs": [
        {
          "internalType": "uint256",
          "name": "",
          "type": "uint256"
        }
      ],
      "stateMutability": "view",
      "type": "function"
    },
    {
      "inputs": [],
      "name": "totalSupplyLocks",
      "outputs": [
        {
          "internalType": "uint256",
          "name": "amount",
          "type": "uint256"
        }
      ],
      "stateMutability": "view",
      "type": "function"
    },
    {
      "inputs": [
        {
          "internalType": "uint32",
          "name": "_timestamp",
          "type": "uint32"
        }
      ],
      "name": "totalSupplyLocksAt",
      "outputs": [
        {
          "internalType": "uint256",
          "name": "amount",
          "type": "uint256"
        }
      ],
      "stateMutability": "view",
      "type": "function"
    },
    {
      "inputs": [
        {
          "internalType": "address",
          "name": "from",
          "type": "address"
        },
        {
          "internalType": "address",
          "name": "to",
          "type": "address"
        },
        {
          "internalType": "uint256",
          "name": "tokenId",
          "type": "uint256"
        }
      ],
      "name": "transferFrom",
      "outputs": [],
      "stateMutability": "nonpayable",
      "type": "function"
    }
  ],
  "bytecode": "0x60806040523480156200001157600080fd5b5060405162002f1338038062002f138339810160408190526200003491620001db565b620000466301ffc9a760e01b62000092565b600580546001600160a01b0319166001600160a01b03851617905560066200006f868262000308565b5060076200007e858262000308565b5060149190915560155550620003d4915050565b6001600160e01b03198082169003620000f15760405162461bcd60e51b815260206004820152601c60248201527f4552433136353a20696e76616c696420696e7465726661636520696400000000604482015260640160405180910390fd5b6001600160e01b0319166000908152600460205260409020805460ff19166001179055565b634e487b7160e01b600052604160045260246000fd5b600082601f8301126200013e57600080fd5b81516001600160401b03808211156200015b576200015b62000116565b604051601f8301601f19908116603f0116810190828211818310171562000186576200018662000116565b81604052838152602092508683858801011115620001a357600080fd5b600091505b83821015620001c75785820183015181830184015290820190620001a8565b600093810190920192909252949350505050565b600080600080600060a08688031215620001f457600080fd5b85516001600160401b03808211156200020c57600080fd5b6200021a89838a016200012c565b965060208801519150808211156200023157600080fd5b5062000240888289016200012c565b604088015190955090506001600160a01b03811681146200026057600080fd5b6060870151608090970151959894975095949392505050565b600181811c908216806200028e57607f821691505b602082108103620002af57634e487b7160e01b600052602260045260246000fd5b50919050565b601f8211156200030357600081815260208120601f850160051c81016020861015620002de5750805b601f850160051c820191505b81811015620002ff57828155600101620002ea565b5050505b505050565b81516001600160401b0381111562000324576200032462000116565b6200033c8162000335845462000279565b84620002b5565b602080601f8311600181146200037457600084156200035b5750858301515b600019600386901b1c1916600185901b178555620002ff565b600085815260208120601f198616915b82811015620003a55788860151825594840194600190910190840162000384565b5085821015620003c45787850151600019600388901b60f8161c191681555b5050505050600190811b01905550565b612b2f80620003e46000396000f3fe608060405234801561001057600080fd5b50600436106104065760003560e01c806388290adc1161021a578063b94419e011610135578063e178ee20116100c8578063f3ae241511610097578063f88d1fef1161007c578063f88d1fef146109d3578063f975d9f3146109db578063fd2dcecf146109ee57600080fd5b8063f3ae2415146109a0578063f6631718146109b357600080fd5b8063e178ee2014610936578063e985e9c514610949578063edc3bc3f1461095f578063f0329f6b1461098d57600080fd5b8063cea823cd11610104578063cea823cd146108f5578063d28d885214610918578063de69618014610920578063dece68541461092857600080fd5b8063b94419e01461088e578063ba209fcf146108a1578063c87b56dd146108c1578063cdc4717c146108e257600080fd5b8063a898e9fa116101ad578063b09f12661161017c578063b09f126614610836578063b2bdfa7b1461083e578063b88d4fde14610851578063b911135f1461086557600080fd5b8063a898e9fa146107ed578063aa5965ae146107f5578063aa88652b14610808578063b01ac5911461082857600080fd5b8063a2e9b439116101e9578063a2e9b43914610771578063a36c36e514610791578063a7263665146107a4578063a7cc0136146107c457600080fd5b806388290adc1461072657806394a509dd1461074d57806395d89b411461075b578063a22cb4651461076357600080fd5b80633e47a4b1116103255780636352211e116102b857806370a0823111610287578063743976a01161026c578063743976a0146106e2578063796db312146106ea5780638462151c1461071357600080fd5b806370a08231146106bc578063743500ad146106cf57600080fd5b80636352211e1461066757806363a8fd891461067a5780636c0360eb1461069f5780636ff97f1d146106a757600080fd5b80634f6ccce7116102f45780634f6ccce7146105f557806350d2a27614610608578063550d01a3146106315780635896f5281461065457600080fd5b80633e47a4b1146105be57806342842e0e1461053e578063481c6a75146105d15780634f3c5f06146105e257600080fd5b806317a3a79c1161039d57806328f02c681161036c57806328f02c68146105515780632f745c591461059057806334067c3c146105a3578063366c0ae7146105ab57600080fd5b806317a3a79c146104f857806318160ddd1461052d57806322e67e711461053557806323b872dd1461053e57600080fd5b8063081812fc116103d9578063081812fc14610492578063095ea7b3146104be5780630bb78ec1146104d257806310c11360146104e557600080fd5b806301ffc9a71461040b578063034675931461044d578063059f8b161461046e57806306fdde031461047d575b600080fd5b61043861041936600461234d565b6001600160e01b03191660009081526004602052604090205460ff1690565b60405190151581526020015b60405180910390f35b61046061045b366004612395565b6109f7565b604051908152602001610444565b610460670de0b6b3a764000081565b610485610a6c565b6040516104449190612418565b6104a66104a036600461242b565b50600090565b6040516001600160a01b039091168152602001610444565b6104d06104cc366004612444565b5050565b005b6104856104e036600461242b565b610afe565b6104606104f336600461242b565b610b98565b61051b61050636600461242b565b60096020526000908152604090205460ff1681565b60405160ff9091168152602001610444565b601154610460565b61046060155481565b6104d061054c36600461246e565b505050565b61056461055f3660046124aa565b610bb9565b60408051948552602085019390935263ffffffff91821692840192909252166060820152608001610444565b61046061059e366004612444565b610c0d565b610460610cb4565b6104606105b93660046124cc565b610cf7565b6104606105cc3660046124ef565b610d3e565b6005546001600160a01b03166104a6565b6104606105f0366004612444565b610daf565b61046061060336600461242b565b610de0565b6104a661061636600461234d565b6003602052600090815260409020546001600160a01b031681565b61043861063f3660046124ef565b60026020526000908152604090205460ff1681565b6104606106623660046125ee565b610e6c565b6104a661067536600461242b565b610eeb565b6000546104389074010000000000000000000000000000000000000000900460ff1681565b610485610f76565b6106af610f85565b6040516104449190612619565b6104606106ca3660046124ef565b610fdc565b6104d06106dd36600461265d565b611076565b6104856111d7565b6104a66106f836600461242b565b600b602052600090815260409020546001600160a01b031681565b6106af6107213660046124ef565b6111e4565b610734630a85bd0160e11b81565b6040516001600160e01b03199091168152602001610444565b610734635b5e139f60e01b81565b610485611250565b6104d06104cc366004612742565b61046061077f36600461242b565b60106020526000908152604090205481565b61046061079f36600461277e565b61125f565b6104606107b236600461242b565b60126020526000908152604090205481565b6104a66107d236600461242b565b600c602052600090815260409020546001600160a01b031681565b6106af6112cf565b61046061080336600461242b565b611325565b61081b61081636600461242b565b611335565b6040516104449190612799565b61073463780e9d6360e01b81565b610485611534565b6000546104a6906001600160a01b031681565b6104d061085f3660046127d4565b50505050565b6104a661087336600461242b565b6001602052600090815260409020546001600160a01b031681565b61046061089c36600461242b565b611541565b6108b46108af36600461242b565b6115ea565b6040516104449190612894565b6104856108cf36600461242b565b5060408051602081019091526000815290565b6104606108f036600461242b565b61168e565b61043861090336600461242b565b60196020526000908152604090205460ff1681565b6104856116b2565b6104606116bf565b6107346380ac58cd60e01b81565b6105646109443660046124aa565b6116d2565b610438610957366004612903565b600092915050565b61043861096d366004612903565b600e60209081526000928352604080842090915290825290205460ff1681565b6005546104a6906001600160a01b031681565b6104386109ae3660046124ef565b6116ee565b6104606109c13660046124ef565b600d6020526000908152604090205481565b61081b611716565b6108b46109e936600461242b565b611745565b61046060145481565b600080610a03846111e4565b90508051600003610a18576000915050610a66565b60005b8151811015610a6357610a47828281518110610a3957610a3961292d565b602002602001015185610cf7565b610a519084612959565b9250610a5c8161296c565b9050610a1b565b50505b92915050565b606060068054610a7b90612985565b80601f0160208091040260200160405190810160405280929190818152602001828054610aa790612985565b8015610af45780601f10610ac957610100808354040283529160200191610af4565b820191906000526020600020905b815481529060010190602001808311610ad757829003601f168201915b5050505050905090565b60086020526000908152604090208054610b1790612985565b80601f0160208091040260200160405190810160405280929190818152602001828054610b4390612985565b8015610b905780601f10610b6557610100808354040283529160200191610b90565b820191906000526020600020905b815481529060010190602001808311610b7357829003601f168201915b505050505081565b60188181548110610ba857600080fd5b600091825260209091200154905081565b60176020528160005260406000208181548110610bd557600080fd5b600091825260209091206003909102018054600182015460029092015490935090915063ffffffff8082169164010000000090041684565b6000610c1883610fdc565b8210610c775760405162461bcd60e51b8152602060048201526024808201527f4c6f636b49644e46543a206f776e657220696e646578206f7574206f6620626f604482015263756e647360e01b60648201526084015b60405180910390fd5b6001600160a01b0383166000908152600f60205260409020805483908110610ca157610ca161292d565b9060005260206000200154905092915050565b6018546000908103610cc65750600090565b60188054610cd6906001906129bf565b81548110610ce657610ce661292d565b90600052602060002001545b905090565b600082815260166020526040812081908190610d1390856117d4565b915091508115610d3257610d2d818563ffffffff16610e6c565b610d35565b60005b95945050505050565b600080610d4a836111e4565b90508051600003610d5e5750600092915050565b60005b8151811015610da857610d8c828281518110610d7f57610d7f61292d565b6020026020010151611541565b610d969084612959565b9250610da18161296c565b9050610d61565b5050919050565b600f6020528160005260406000208181548110610dcb57600080fd5b90600052602060002001600091509150505481565b6000610deb60115490565b8210610e475760405162461bcd60e51b815260206004820152602560248201527f4c6f636b49644e46543a20676c6f62616c20696e646578206f7574206f6620626044820152646f756e647360d81b6064820152608401610c6e565b60118281548110610e5a57610e5a61292d565b90600052602060002001549050919050565b6000826060015163ffffffff16821015610e8857506000610a66565b6000836040015163ffffffff1683610ea091906129bf565b8451610eac91906129d2565b9050670de0b6b3a764000081856020015113610ec9576000610ed9565b818560200151610ed99190612a02565b610ee39190612a29565b949350505050565b6000818152600b60205260408120546001600160a01b031680610a665760405162461bcd60e51b815260206004820152602c60248201527f4c6f636b49644e46543a206f776e657220717565727920666f72206e6f6e657860448201527f697374656e7420746f6b656e00000000000000000000000000000000000000006064820152608401610c6e565b6060600a8054610a7b90612985565b60606011805480602002602001604051908101604052809291908181526020018280548015610af457602002820191906000526020600020905b815481526020019060010190808311610fbf575050505050905090565b60006001600160a01b03821661105a5760405162461bcd60e51b815260206004820152602d60248201527f4c6f636b49644e46543a2062616c616e636520717565727920666f722074686560448201527f207a65726f2061646472657373000000000000000000000000000000000000006064820152608401610c6e565b506001600160a01b03166000908152600d602052604090205490565b6005546001600160a01b031633146110d05760405162461bcd60e51b815260206004820152600b60248201527f6e6f74206d616e616765720000000000000000000000000000000000000000006044820152606401610c6e565b805160000361110b5760405162461bcd60e51b81526020600482015260076024820152666e6f206461746160c81b6044820152606401610c6e565b60005b815181101561054c5761115582828151811061112c5761112c61292d565b6020026020010151600001516000908152600b60205260409020546001600160a01b0316151590565b611180576111808383838151811061116f5761116f61292d565b60200260200101516000015161194e565b6111c5838383815181106111965761119661292d565b6020026020010151600001518484815181106111b4576111b461292d565b602002602001015160200151611968565b806111cf8161296c565b91505061110e565b600a8054610b1790612985565b6001600160a01b0381166000908152600f602090815260409182902080548351818402810184019094528084526060939283018282801561124457602002820191906000526020600020905b815481526020019060010190808311611230575b50505050509050919050565b606060078054610a7b90612985565b60008060006112738463ffffffff16611da7565b9150915081611286575060009392505050565b600081815260176020526040812081906112a090876117d4565b91509150816112b55750600095945050505050565b6112c5818763ffffffff16610e6c565b9695505050505050565b60606018805480602002602001604051908101604052809291908181526020018280548015610af45760200282019190600052602060002090815481526020019060010190808311610fbf575050505050905090565b60118181548110610ba857600080fd5b604080516080810182526000808252602082018190529181018290526060810191909152811561150657600082815260176020908152604080832080548251818502810185019093528083529192909190849084015b828210156113ef5760008481526020908190206040805160808101825260038602909201805483526001808201548486015260029091015463ffffffff8082169385019390935264010000000090049091166060830152908352909201910161138b565b50505050905080516000146114db576040518060800160405280826001845161141891906129bf565b815181106114285761142861292d565b6020026020010151600001518152602001826001845161144891906129bf565b815181106114585761145861292d565b6020026020010151602001518152602001826001845161147891906129bf565b815181106114885761148861292d565b60200260200101516040015163ffffffff16815260200182600184516114ae91906129bf565b815181106114be576114be61292d565b60200260200101516060015163ffffffff16815250915050919050565b5050604080516080810182526000808252602082018190529181018290526060810191909152919050565b505060408051608081018252600080825260208201819052918101829052606081019190915290565b919050565b60078054610b1790612985565b60008181526016602052604081205480156115e05760008381526016602052604090206115db906115736001846129bf565b815481106115835761158361292d565b60009182526020918290206040805160808101825260039093029091018054835260018101549383019390935260029092015463ffffffff808216938301939093526401000000009004909116606082015242610e6c565b6115e3565b60005b9392505050565b606060166000838152602001908152602001600020805480602002602001604051908101604052809291908181526020016000905b828210156116835760008481526020908190206040805160808101825260038602909201805483526001808201548486015260029091015463ffffffff8082169385019390935264010000000090049091166060830152908352909201910161161f565b505050509050919050565b60145460009061169e8180612a29565b6116a89190612a4b565b610a669083612959565b60068054610b1790612985565b6000610cf26116cc611716565b42610e6c565b60166020528160005260406000208181548110610bd557600080fd5b6005546000906001600160a01b0380841691160361170e57506001919050565b506000919050565b604080516080810182526000808252602082018190529181018290526060810191909152610cf2610816610cb4565b60008181526017602090815260408083208054825181850281018501909352808352606094929391929091840182156116835760008481526020908190206040805160808101825260038602909201805483526001808201548486015260029091015463ffffffff8082169385019390935264010000000090049091166060830152908352909201910161161f565b604080516080810182526000808252602082018190529181018290526060810182905283546000036118095760009150611947565b83546000905b8061181b836001612959565b101561188d576000600261182f8385612959565b6118399190612a29565b90508563ffffffff168782815481106118545761185461292d565b6000918252602090912060039091020160020154640100000000900463ffffffff161161188357809250611887565b8091505b5061180f565b8463ffffffff168683815481106118a6576118a661292d565b6000918252602090912060039091020160020154640100000000900463ffffffff16116119405760018683815481106118e1576118e161292d565b60009182526020918290206040805160808101825260039093029091018054835260018101549383019390935260029092015463ffffffff80821693830193909352640100000000900490911660608201529094509250611947915050565b6000935050505b9250929050565b6104cc828260405180602001604052806000815250611eb0565b60135460ff1615156001036119a85760405162461bcd60e51b8152602060048201526006602482015265696e2075736560d01b6044820152606401610c6e565b6013805460ff19166001179055600082815260166020908152604080832054815160808101835284815292830184905290820183905260608201929092526040805160808101825284518152602080860151908201528482015163ffffffff908116928201929092524290911660608201528215611aa2576000858152601660205260409020611a396001856129bf565b81548110611a4957611a4961292d565b60009182526020918290206040805160808101825260039093029091018054835260018101549383019390935260029092015463ffffffff80821693830193909352640100000000900490911660608201529150611ad6565b60405180608001604052806000815260200160008152602001600063ffffffff168152602001600063ffffffff1681525091505b6000604051806080016040528084600001518460000151611af79190612a02565b815260200184602001518460200151611b109190612a02565b815260408088015163ffffffff908116602080850191909152428083169484019490945260008b8152601682528381208054600181810183559183528383208a5160039092020190815592890151908301559287015160029091018054606089015184166401000000000267ffffffffffffffff199091169290931691909117919091179055919250611ba29061168e565b60008181526017602090815260408083205481516080810183528481529283018490529082018390526060820183905292935090829003611bec57611be5611716565b9050611c6a565b6000838152601760205260409020611c056001846129bf565b81548110611c1557611c1561292d565b60009182526020918290206040805160808101825260039093029091018054835260018101549383019390935260029092015463ffffffff808216938301939093526401000000009004909116606082015290505b6000604051806080016040528086600001518460000151611c8b9190612a62565b815260200186602001518460200151611ca49190612a62565b81526040808c015163ffffffff90811660208085019190915242821693830193909352600088815260178452828120805460018181018355918352858320875160039092020190815586860151918101919091558584015160029091018054606088015185166401000000000267ffffffffffffffff19909116929094169190911792909217909155878152601990925290205490915060ff16611d90576000848152601960205260408120805460ff191660019081179091556018805491820181559091527fb13d2d76d1f4b7be834882e410b3e3a8afaf69f83600ae24db354391d2378d2e018490555b50506013805460ff19169055505050505050505050565b6018546014546000918291829080611dbf8188612959565b611dc99190612a4b565b611dd39190612a29565b905081600003611dea575060009485945092505050565b6000825b80611dfa836001612959565b1015611e505760006002611e0e8385612959565b611e189190612a29565b90508360188281548110611e2e57611e2e61292d565b906000526020600020015411611e4657809250611e4a565b8091505b50611dee565b8260188381548110611e6457611e6461292d565b906000526020600020015411611ea157600160188381548110611e8957611e8961292d565b90600052602060002001549550955050505050915091565b50600096879650945050505050565b81600003611f005760405162461bcd60e51b815260206004820152601360248201527f6e6f7420616c6c6f77656420746f6b656e4964000000000000000000000000006044820152606401610c6e565b611f0a8383612000565b6001600160a01b0383166000908152600f6020908152604080832080548685526010845282852081905560018082018355918552838520018690556011805487865260129094529184208390558201815582527f31ecc21a745e3968a04e9570e4425bc18fa8019c68028196b546d1669c200c6801839055611f8e90848484612140565b61054c5760405162461bcd60e51b815260206004820152603560248201527f4c6f636b49644e46543a207472616e7366657220746f206e6f6e20455243373260448201527f31526563656976657220696d706c656d656e74657200000000000000000000006064820152608401610c6e565b6001600160a01b0382166120625760405162461bcd60e51b815260206004820152602360248201527f4c6f636b49644e46543a206d696e7420746f20746865207a65726f206164647260448201526265737360e81b6064820152608401610c6e565b6000818152600b60205260409020546001600160a01b0316156120c75760405162461bcd60e51b815260206004820152601f60248201527f4c6f636b49644e46543a20746f6b656e20616c7265616479206d696e746564006044820152606401610c6e565b6000818152600b60209081526040808320805473ffffffffffffffffffffffffffffffffffffffff19166001600160a01b038716908117909155808452600d90925280832080546001019055518392907fddf252ad1be2c89b69c2b068fc378daa952ba7f163c4a11628f55a4df523b3ef908290a45050565b60006001600160a01b0384163b61215957506001610ee3565b60006121da63150b7a0260e01b3388878760405160240161217d9493929190612a82565b604051602081830303815290604052906001600160e01b0319166020820180516001600160e01b038381831617835250505050604051806060016040528060358152602001612aee603591396001600160a01b0388169190612211565b90506000818060200190518101906121f29190612ab4565b6001600160e01b031916630a85bd0160e11b1492505050949350505050565b6060610ee3848460008585600080866001600160a01b031685876040516122389190612ad1565b60006040518083038185875af1925050503d8060008114612275576040519150601f19603f3d011682016040523d82523d6000602084013e61227a565b606091505b509150915061228b87838387612296565b979650505050505050565b606083156123055782516000036122fe576001600160a01b0385163b6122fe5760405162461bcd60e51b815260206004820152601d60248201527f416464726573733a2063616c6c20746f206e6f6e2d636f6e74726163740000006044820152606401610c6e565b5081610ee3565b610ee3838381511561231a5781518083602001fd5b8060405162461bcd60e51b8152600401610c6e9190612418565b6001600160e01b03198116811461234a57600080fd5b50565b60006020828403121561235f57600080fd5b81356115e381612334565b80356001600160a01b038116811461152f57600080fd5b803563ffffffff8116811461152f57600080fd5b600080604083850312156123a857600080fd5b6123b18361236a565b91506123bf60208401612381565b90509250929050565b60005b838110156123e35781810151838201526020016123cb565b50506000910152565b600081518084526124048160208601602086016123c8565b601f01601f19169290920160200192915050565b6020815260006115e360208301846123ec565b60006020828403121561243d57600080fd5b5035919050565b6000806040838503121561245757600080fd5b6124608361236a565b946020939093013593505050565b60008060006060848603121561248357600080fd5b61248c8461236a565b925061249a6020850161236a565b9150604084013590509250925092565b600080604083850312156124bd57600080fd5b50508035926020909101359150565b600080604083850312156124df57600080fd5b823591506123bf60208401612381565b60006020828403121561250157600080fd5b6115e38261236a565b634e487b7160e01b600052604160045260246000fd5b6040805190810167ffffffffffffffff811182821017156125435761254361250a565b60405290565b604051601f8201601f1916810167ffffffffffffffff811182821017156125725761257261250a565b604052919050565b60006080828403121561258c57600080fd5b6040516080810181811067ffffffffffffffff821117156125af576125af61250a565b806040525080915082358152602083013560208201526125d160408401612381565b60408201526125e260608401612381565b60608201525092915050565b60008060a0838503121561260157600080fd5b61260b848461257a565b946080939093013593505050565b6020808252825182820181905260009190848201906040850190845b8181101561265157835183529284019291840191600101612635565b50909695505050505050565b6000806040838503121561267057600080fd5b6126798361236a565b915060208084013567ffffffffffffffff8082111561269757600080fd5b818601915086601f8301126126ab57600080fd5b8135818111156126bd576126bd61250a565b6126cb848260051b01612549565b818152848101925060a09182028401850191898311156126ea57600080fd5b938501935b828510156127325780858b0312156127075760008081fd5b61270f612520565b8535815261271f8b88880161257a565b81880152845293840193928501926126ef565b5080955050505050509250929050565b6000806040838503121561275557600080fd5b61275e8361236a565b91506020830135801515811461277357600080fd5b809150509250929050565b60006020828403121561279057600080fd5b6115e382612381565b60808101610a6682848051825260208101516020830152604081015163ffffffff808216604085015280606084015116606085015250505050565b600080600080608085870312156127ea57600080fd5b6127f38561236a565b9350602061280281870161236a565b935060408601359250606086013567ffffffffffffffff8082111561282657600080fd5b818801915088601f83011261283a57600080fd5b81358181111561284c5761284c61250a565b61285e601f8201601f19168501612549565b9150808252898482850101111561287457600080fd5b808484018584013760008482840101525080935050505092959194509250565b6020808252825182820181905260009190848201906040850190845b81811015612651576128f08385518051825260208101516020830152604081015163ffffffff808216604085015280606084015116606085015250505050565b92840192608092909201916001016128b0565b6000806040838503121561291657600080fd5b61291f8361236a565b91506123bf6020840161236a565b634e487b7160e01b600052603260045260246000fd5b634e487b7160e01b600052601160045260246000fd5b80820180821115610a6657610a66612943565b60006001820161297e5761297e612943565b5060010190565b600181811c9082168061299957607f821691505b6020821081036129b957634e487b7160e01b600052602260045260246000fd5b50919050565b81810381811115610a6657610a66612943565b80820260008212600160ff1b841416156129ee576129ee612943565b8181058314821517610a6657610a66612943565b8181036000831280158383131683831282161715612a2257612a22612943565b5092915050565b600082612a4657634e487b7160e01b600052601260045260246000fd5b500490565b8082028115828204841417610a6657610a66612943565b8082018281126000831280158216821582161715610a6357610a63612943565b60006001600160a01b038087168352808616602084015250836040830152608060608301526112c560808301846123ec565b600060208284031215612ac657600080fd5b81516115e381612334565b60008251612ae38184602087016123c8565b919091019291505056fe4c6f636b49644e46543a207472616e7366657220746f206e6f6e20455243373231526563656976657220696d706c656d656e746572a164736f6c6343000812000a",
  "linkReferences": {},
  "deployedLinkReferences": {}
}