{
  "address": "0xAB901F0800ED2c151f3392EaA2d10E88cc67C933",
  "abi": [
    {
      "anonymous": false,
      "inputs": [
        {
          "indexed": true,
          "internalType": "bytes32",
          "name": "role",
          "type": "bytes32"
        },
        {
          "indexed": true,
          "internalType": "bytes32",
          "name": "previousAdminRole",
          "type": "bytes32"
        },
        {
          "indexed": true,
          "internalType": "bytes32",
          "name": "newAdminRole",
          "type": "bytes32"
        }
      ],
      "name": "RoleAdminChanged",
      "type": "event"
    },
    {
      "anonymous": false,
      "inputs": [
        {
          "indexed": true,
          "internalType": "bytes32",
          "name": "role",
          "type": "bytes32"
        },
        {
          "indexed": true,
          "internalType": "address",
          "name": "account",
          "type": "address"
        },
        {
          "indexed": true,
          "internalType": "address",
          "name": "sender",
          "type": "address"
        }
      ],
      "name": "RoleGranted",
      "type": "event"
    },
    {
      "anonymous": false,
      "inputs": [
        {
          "indexed": true,
          "internalType": "bytes32",
          "name": "role",
          "type": "bytes32"
        },
        {
          "indexed": true,
          "internalType": "address",
          "name": "account",
          "type": "address"
        },
        {
          "indexed": true,
          "internalType": "address",
          "name": "sender",
          "type": "address"
        }
      ],
      "name": "RoleRevoked",
      "type": "event"
    },
    {
      "anonymous": false,
      "inputs": [
        {
          "indexed": true,
          "internalType": "address",
          "name": "impl",
          "type": "address"
        },
        {
          "indexed": false,
          "internalType": "bool",
          "name": "alive",
          "type": "bool"
        }
      ],
      "name": "SetAliveImplementation",
      "type": "event"
    },
    {
      "anonymous": false,
      "inputs": [
        {
          "indexed": true,
          "internalType": "bytes4",
          "name": "selector",
          "type": "bytes4"
        },
        {
          "indexed": true,
          "internalType": "address",
          "name": "impl",
          "type": "address"
        }
      ],
      "name": "SetSelectorImplementation",
      "type": "event"
    },
    {
      "anonymous": false,
      "inputs": [
        {
          "indexed": true,
          "internalType": "address",
          "name": "implementation",
          "type": "address"
        }
      ],
      "name": "Upgraded",
      "type": "event"
    },
    {
      "stateMutability": "payable",
      "type": "fallback"
    },
    {
      "inputs": [],
      "name": "ADMIN_ROLE",
      "outputs": [
        {
          "internalType": "bytes32",
          "name": "",
          "type": "bytes32"
        }
      ],
      "stateMutability": "view",
      "type": "function"
    },
    {
      "inputs": [],
      "name": "DEFAULT_ADMIN_ROLE",
      "outputs": [
        {
          "internalType": "bytes32",
          "name": "",
          "type": "bytes32"
        }
      ],
      "stateMutability": "view",
      "type": "function"
    },
    {
      "inputs": [],
      "name": "POLICY_ROLE",
      "outputs": [
        {
          "internalType": "bytes32",
          "name": "",
          "type": "bytes32"
        }
      ],
      "stateMutability": "view",
      "type": "function"
    },
    {
      "inputs": [
        {
          "internalType": "address",
          "name": "account",
          "type": "address"
        }
      ],
      "name": "addAdmin",
      "outputs": [],
      "stateMutability": "nonpayable",
      "type": "function"
    },
    {
      "inputs": [
        {
          "internalType": "address",
          "name": "",
          "type": "address"
        }
      ],
      "name": "aliveImplementation",
      "outputs": [
        {
          "internalType": "bool",
          "name": "",
          "type": "bool"
        }
      ],
      "stateMutability": "view",
      "type": "function"
    },
    {
      "inputs": [
        {
          "internalType": "bytes32",
          "name": "role",
          "type": "bytes32"
        }
      ],
      "name": "getRoleAdmin",
      "outputs": [
        {
          "internalType": "bytes32",
          "name": "",
          "type": "bytes32"
        }
      ],
      "stateMutability": "view",
      "type": "function"
    },
    {
      "inputs": [
        {
          "internalType": "bytes4",
          "name": "_selector",
          "type": "bytes4"
        }
      ],
      "name": "getSelectorImplementation2",
      "outputs": [
        {
          "internalType": "address",
          "name": "impl",
          "type": "address"
        }
      ],
      "stateMutability": "view",
      "type": "function"
    },
    {
      "inputs": [
        {
          "internalType": "bytes32",
          "name": "role",
          "type": "bytes32"
        },
        {
          "internalType": "address",
          "name": "account",
          "type": "address"
        }
      ],
      "name": "grantRole",
      "outputs": [],
      "stateMutability": "nonpayable",
      "type": "function"
    },
    {
      "inputs": [
        {
          "internalType": "bytes32",
          "name": "role",
          "type": "bytes32"
        },
        {
          "internalType": "address",
          "name": "account",
          "type": "address"
        }
      ],
      "name": "hasRole",
      "outputs": [
        {
          "internalType": "bool",
          "name": "",
          "type": "bool"
        }
      ],
      "stateMutability": "view",
      "type": "function"
    },
    {
      "inputs": [],
      "name": "implementation",
      "outputs": [
        {
          "internalType": "address",
          "name": "",
          "type": "address"
        }
      ],
      "stateMutability": "view",
      "type": "function"
    },
    {
      "inputs": [
        {
          "internalType": "uint256",
          "name": "_index",
          "type": "uint256"
        }
      ],
      "name": "implementation2",
      "outputs": [
        {
          "internalType": "address",
          "name": "",
          "type": "address"
        }
      ],
      "stateMutability": "view",
      "type": "function"
    },
    {
      "inputs": [
        {
          "internalType": "address",
          "name": "account",
          "type": "address"
        }
      ],
      "name": "isAdmin",
      "outputs": [
        {
          "internalType": "bool",
          "name": "",
          "type": "bool"
        }
      ],
      "stateMutability": "view",
      "type": "function"
    },
    {
      "inputs": [
        {
          "internalType": "uint8",
          "name": "",
          "type": "uint8"
        }
      ],
      "name": "l1TokenFactory",
      "outputs": [
        {
          "internalType": "address",
          "name": "",
          "type": "address"
        }
      ],
      "stateMutability": "view",
      "type": "function"
    },
    {
      "inputs": [
        {
          "internalType": "uint8",
          "name": "",
          "type": "uint8"
        }
      ],
      "name": "l2Info",
      "outputs": [
        {
          "internalType": "address",
          "name": "l2TokenFactory",
          "type": "address"
        },
        {
          "internalType": "address",
          "name": "l2ProjectManager",
          "type": "address"
        },
        {
          "internalType": "uint32",
          "name": "depositMinGasLimit",
          "type": "uint32"
        },
        {
          "internalType": "uint32",
          "name": "sendMsgMinGasLimit",
          "type": "uint32"
        }
      ],
      "stateMutability": "view",
      "type": "function"
    },
    {
      "inputs": [],
      "name": "pauseProxy",
      "outputs": [
        {
          "internalType": "bool",
          "name": "",
          "type": "bool"
        }
      ],
      "stateMutability": "view",
      "type": "function"
    },
    {
      "inputs": [],
      "name": "projectCount",
      "outputs": [
        {
          "internalType": "uint256",
          "name": "",
          "type": "uint256"
        }
      ],
      "stateMutability": "view",
      "type": "function"
    },
    {
      "inputs": [
        {
          "internalType": "address",
          "name": "",
          "type": "address"
        }
      ],
      "name": "projectTokens",
      "outputs": [
        {
          "internalType": "uint256",
          "name": "",
          "type": "uint256"
        }
      ],
      "stateMutability": "view",
      "type": "function"
    },
    {
      "inputs": [
        {
          "internalType": "uint256",
          "name": "",
          "type": "uint256"
        }
      ],
      "name": "projects",
      "outputs": [
        {
          "internalType": "address",
          "name": "projectOwner",
          "type": "address"
        },
        {
          "internalType": "address",
          "name": "tokenOwner",
          "type": "address"
        },
        {
          "internalType": "address",
          "name": "l1Token",
          "type": "address"
        },
        {
          "internalType": "address",
          "name": "l2Token",
          "type": "address"
        },
        {
          "internalType": "address",
          "name": "addressManager",
          "type": "address"
        },
        {
          "internalType": "uint256",
          "name": "initialTotalSupply",
          "type": "uint256"
        },
        {
          "internalType": "uint8",
          "name": "tokenType",
          "type": "uint8"
        },
        {
          "internalType": "uint8",
          "name": "l2Type",
          "type": "uint8"
        },
        {
          "internalType": "string",
          "name": "projectName",
          "type": "string"
        }
      ],
      "stateMutability": "view",
      "type": "function"
    },
    {
      "inputs": [
        {
          "internalType": "uint256",
          "name": "",
          "type": "uint256"
        }
      ],
      "name": "proxyImplementation",
      "outputs": [
        {
          "internalType": "address",
          "name": "",
          "type": "address"
        }
      ],
      "stateMutability": "view",
      "type": "function"
    },
    {
      "inputs": [
        {
          "internalType": "uint8",
          "name": "",
          "type": "uint8"
        }
      ],
      "name": "publicInfo",
      "outputs": [
        {
          "internalType": "uint8",
          "name": "minPercents",
          "type": "uint8"
        },
        {
          "internalType": "uint8",
          "name": "maxPercents",
          "type": "uint8"
        },
        {
          "internalType": "uint256",
          "name": "delayTime",
          "type": "uint256"
        }
      ],
      "stateMutability": "view",
      "type": "function"
    },
    {
      "inputs": [
        {
          "internalType": "address",
          "name": "account",
          "type": "address"
        }
      ],
      "name": "removeAdmin",
      "outputs": [],
      "stateMutability": "nonpayable",
      "type": "function"
    },
    {
      "inputs": [
        {
          "internalType": "bytes32",
          "name": "role",
          "type": "bytes32"
        },
        {
          "internalType": "address",
          "name": "account",
          "type": "address"
        }
      ],
      "name": "renounceRole",
      "outputs": [],
      "stateMutability": "nonpayable",
      "type": "function"
    },
    {
      "inputs": [
        {
          "internalType": "bytes32",
          "name": "role",
          "type": "bytes32"
        },
        {
          "internalType": "address",
          "name": "account",
          "type": "address"
        }
      ],
      "name": "revokeRole",
      "outputs": [],
      "stateMutability": "nonpayable",
      "type": "function"
    },
    {
      "inputs": [
        {
          "internalType": "bytes4",
          "name": "",
          "type": "bytes4"
        }
      ],
      "name": "selectorImplementation",
      "outputs": [
        {
          "internalType": "address",
          "name": "",
          "type": "address"
        }
      ],
      "stateMutability": "view",
      "type": "function"
    },
    {
      "inputs": [
        {
          "internalType": "address",
          "name": "newImplementation",
          "type": "address"
        },
        {
          "internalType": "bool",
          "name": "_alive",
          "type": "bool"
        }
      ],
      "name": "setAliveImplementation2",
      "outputs": [],
      "stateMutability": "nonpayable",
      "type": "function"
    },
    {
      "inputs": [
        {
          "internalType": "address",
          "name": "newImplementation",
          "type": "address"
        },
        {
          "internalType": "uint256",
          "name": "_index",
          "type": "uint256"
        },
        {
          "internalType": "bool",
          "name": "_alive",
          "type": "bool"
        }
      ],
      "name": "setImplementation2",
      "outputs": [],
      "stateMutability": "nonpayable",
      "type": "function"
    },
    {
      "inputs": [
        {
          "internalType": "bool",
          "name": "_pause",
          "type": "bool"
        }
      ],
      "name": "setProxyPause",
      "outputs": [],
      "stateMutability": "nonpayable",
      "type": "function"
    },
    {
      "inputs": [
        {
          "internalType": "bytes4[]",
          "name": "_selectors",
          "type": "bytes4[]"
        },
        {
          "internalType": "address",
          "name": "_imp",
          "type": "address"
        }
      ],
      "name": "setSelectorImplementations2",
      "outputs": [],
      "stateMutability": "nonpayable",
      "type": "function"
    },
    {
      "inputs": [
        {
          "internalType": "bytes4",
          "name": "interfaceId",
          "type": "bytes4"
        }
      ],
      "name": "supportsInterface",
      "outputs": [
        {
          "internalType": "bool",
          "name": "",
          "type": "bool"
        }
      ],
      "stateMutability": "view",
      "type": "function"
    },
    {
      "inputs": [
        {
          "internalType": "address",
          "name": "newAdmin",
          "type": "address"
        }
      ],
      "name": "transferAdmin",
      "outputs": [],
      "stateMutability": "nonpayable",
      "type": "function"
    },
    {
      "inputs": [
        {
          "internalType": "address",
          "name": "impl",
          "type": "address"
        }
      ],
      "name": "upgradeTo",
      "outputs": [],
      "stateMutability": "nonpayable",
      "type": "function"
    },
    {
      "stateMutability": "payable",
      "type": "receive"
    }
  ],
  "transactionHash": "0xe0db20b2cc6fc9861ab50a15a3561547a747cb67ef89cc0a98d7a5f4ce82aca9",
  "args": [],
  "numDeployments": 1,
  "solcInputHash": "6d04a6cdccfcb7febd8e3a19d630a74b",
  "bytecode": "0x60806040526005805460ff191660011790553480156200001e57600080fd5b506200003a60008051602062001d37833981519152806200005b565b6200005560008051602062001d3783398151915233620000a6565b6200015a565b600082815260046020526040808220600101805490849055905190918391839186917fbd79b86ffe0ab8e8776151514217cd7cacd52c909f66475c3af44e129f0b00ff9190a4505050565b620000b28282620000b6565b5050565b60008281526004602090815260408083206001600160a01b038516845290915290205460ff16620000b25760008281526004602090815260408083206001600160a01b03851684529091529020805460ff19166001179055620001163390565b6001600160a01b0316816001600160a01b0316837f2f8788117e7eff1d82e926ec794901d17c78024a50270940304540a733656f0d60405160405180910390a45050565b611bcd806200016a6000396000f3fe6080604052600436106101dc5760003560e01c80635cc797d8116101025780638d4fdb4011610095578063a217fddf11610064578063a217fddf14610752578063b4a35e0f14610767578063b911135f1461079d578063d547741f146107d35761022e565b80638d4fdb401461061d578063902293ab1461063d57806391d14854146106df5780639cba9848146107255761022e565b806375b238fc116100d157806375b238fc146105895780637cb00d25146105bd5780637cd5f663146105dd5780638b8f4a65146105fd5761022e565b80635cc797d81461050f57806363a8fd891461052f578063704802751461054957806375829def146105695761022e565b80632f2ff15d1161017a5780634a5df50f116101495780634a5df50f1461042b57806350d2a2761461044b578063550d01a3146104995780635c60da1b146104c95761022e565b80632f2ff15d146103b557806336568abe146103d55780633659cfe6146103f557806336fbad26146104155761022e565b806322985246116101b657806322985246146102c2578063248a9ca31461030457806324d3e6471461033457806324d7806c146103955761022e565b806301ffc9a714610238578063107046bd1461026d5780631785f53c146102a25761022e565b3661022e5760405162461bcd60e51b815260206004820152601460248201527f63616e6e6f74207265636569766520457468657200000000000000000000000060448201526064015b60405180910390fd5b6102366107f3565b005b34801561024457600080fd5b506102586102533660046117a8565b61089c565b60405190151581526020015b60405180910390f35b34801561027957600080fd5b5061028d6102883660046117d2565b6108d3565b6040516102649998979695949392919061183b565b3480156102ae57600080fd5b506102366102bd3660046118c0565b6109c1565b3480156102ce57600080fd5b506102f67ffb5864e8ff833c3cb2d2d08505e82ff02a43554c74a35d4f5a64e8526127831181565b604051908152602001610264565b34801561031057600080fd5b506102f661031f3660046117d2565b60009081526004602052604090206001015490565b34801561034057600080fd5b5061037561034f3660046118db565b600b602052600090815260409020805460019091015460ff808316926101009004169083565b6040805160ff948516815293909216602084015290820152606001610264565b3480156103a157600080fd5b506102586103b03660046118c0565b610a3c565b3480156103c157600080fd5b506102366103d03660046118fe565b610a7c565b3480156103e157600080fd5b506102366103f03660046118fe565b610aa1565b34801561040157600080fd5b506102366104103660046118c0565b610b2d565b34801561042157600080fd5b506102f660065481565b34801561043757600080fd5b5061023661044636600461192a565b610c86565b34801561045757600080fd5b506104816104663660046117a8565b6003602052600090815260409020546001600160a01b031681565b6040516001600160a01b039091168152602001610264565b3480156104a557600080fd5b506102586104b43660046118c0565b60026020526000908152604090205460ff1681565b3480156104d557600080fd5b506000805260016020527fa6eef7e35abe7026729641147f7915573c7e97b47efa546f5f6e3230263bcb49546001600160a01b0316610481565b34801561051b57600080fd5b5061023661052a3660046119be565b610f33565b34801561053b57600080fd5b506000546102589060ff1681565b34801561055557600080fd5b506102366105643660046118c0565b610f8b565b34801561057557600080fd5b506102366105843660046118c0565b611003565b34801561059557600080fd5b506102f67fdf8b4c520ffe197c5343c6f5aec59570151ef9a492f2c624fd45ddde6135ec4281565b3480156105c957600080fd5b506102366105d83660046119e8565b611153565b3480156105e957600080fd5b506102366105f8366004611a03565b6111b4565b34801561060957600080fd5b506104816106183660046117d2565b61120d565b34801561062957600080fd5b506104816106383660046117a8565b61122a565b34801561064957600080fd5b506106a86106583660046118db565b600a60205260009081526040902080546001909101546001600160a01b039182169181169063ffffffff740100000000000000000000000000000000000000008204811691600160c01b90041684565b604080516001600160a01b03958616815294909316602085015263ffffffff91821692840192909252166060820152608001610264565b3480156106eb57600080fd5b506102586106fa3660046118fe565b60009182526004602090815260408084206001600160a01b0393909316845291905290205460ff1690565b34801561073157600080fd5b506102f66107403660046118c0565b60096020526000908152604090205481565b34801561075e57600080fd5b506102f6600081565b34801561077357600080fd5b506104816107823660046118db565b6007602052600090815260409020546001600160a01b031681565b3480156107a957600080fd5b506104816107b83660046117d2565b6001602052600090815260409020546001600160a01b031681565b3480156107df57600080fd5b506102366107ee3660046118fe565b611326565b600061080a6000356001600160e01b03191661122a565b90506001600160a01b03811615801590610827575060005460ff16155b6108735760405162461bcd60e51b815260206004820152601d60248201527f50726f78793a20696d706c204f522070726f78792069732066616c73650000006044820152606401610225565b3660008037600080366000845af43d6000803e808015610892573d6000f35b3d6000fd5b505050565b60006001600160e01b03198216637965db0b60e01b14806108cd57506301ffc9a760e01b6001600160e01b03198316145b92915050565b600860205260009081526040902080546001820154600283015460038401546004850154600586015460068701546007880180546001600160a01b039889169997891698968716979587169690941694929360ff808416946101009094041692919061093e90611a36565b80601f016020809104026020016040519081016040528092919081815260200182805461096a90611a36565b80156109b75780601f1061098c576101008083540402835291602001916109b7565b820191906000526020600020905b81548152906001019060200180831161099a57829003601f168201915b5050505050905089565b6109ca33610a3c565b610a0f5760405162461bcd60e51b81526020600482015260226024820152600080516020611ba183398151915260448201526134b760f11b6064820152608401610225565b610a397fdf8b4c520ffe197c5343c6f5aec59570151ef9a492f2c624fd45ddde6135ec4282610aa1565b50565b6001600160a01b03811660009081527f2fb794d17134dfdec181ddbac1babb5ab1eb140204ef4d982f294e7fc8b69022602052604081205460ff166108cd565b600082815260046020526040902060010154610a978161134b565b6108978383611355565b6001600160a01b0381163314610b1f5760405162461bcd60e51b815260206004820152602f60248201527f416363657373436f6e74726f6c3a2063616e206f6e6c792072656e6f756e636560448201527f20726f6c657320666f722073656c6600000000000000000000000000000000006064820152608401610225565b610b2982826113f7565b5050565b610b3633610a3c565b610b7b5760405162461bcd60e51b81526020600482015260226024820152600080516020611ba183398151915260448201526134b760f11b6064820152608401610225565b6001600160a01b038116610bd15760405162461bcd60e51b815260206004820152600d60248201527f696e707574206973207a65726f000000000000000000000000000000000000006044820152606401610225565b6000805260016020527fa6eef7e35abe7026729641147f7915573c7e97b47efa546f5f6e3230263bcb49546001600160a01b03828116911603610c425760405162461bcd60e51b815260206004820152600960248201526839b0b6b29030b2323960b91b6044820152606401610225565b610c4f816000600161147a565b6040516001600160a01b038216907fbc7cd75a20ee27fd9adebab32041f755214dbc6bffa90cc0225b39da2e5c2d3b90600090a250565b610c8f33610a3c565b610cd45760405162461bcd60e51b81526020600482015260226024820152600080516020611ba183398151915260448201526134b760f11b6064820152608401610225565b81610d215760405162461bcd60e51b815260206004820181905260248201527f50726f78793a205f73656c6563746f727327732073697a65206973207a65726f6044820152606401610225565b6001600160a01b03811660009081526002602052604090205460ff16610d895760405162461bcd60e51b815260206004820152601860248201527f50726f78793a205f696d70206973206e6f7420616c69766500000000000000006044820152606401610225565b60005b82811015610f2d57816001600160a01b031660036000868685818110610db457610db4611a70565b9050602002016020810190610dc991906117a8565b6001600160e01b03191681526020810191909152604001600020546001600160a01b031603610e3a5760405162461bcd60e51b815260206004820152601d60248201527f4c69717569646974795661756c7450726f78793a2073616d6520696d700000006044820152606401610225565b8160036000868685818110610e5157610e51611a70565b9050602002016020810190610e6691906117a8565b6001600160e01b03191681526020810191909152604001600020805473ffffffffffffffffffffffffffffffffffffffff19166001600160a01b039283161790558216848483818110610ebb57610ebb611a70565b9050602002016020810190610ed091906117a8565b7bffffffffffffffffffffffffffffffffffffffffffffffffffffffff19167f14ebc1c32aa68f4d766e89f3e546cee249f7df25183fc10ab1568d91c2ce9b7b60405160405180910390a380610f2581611a9c565b915050610d8c565b50505050565b610f3c33610a3c565b610f815760405162461bcd60e51b81526020600482015260226024820152600080516020611ba183398151915260448201526134b760f11b6064820152608401610225565b610b298282611512565b610f9433610a3c565b610fd95760405162461bcd60e51b81526020600482015260226024820152600080516020611ba183398151915260448201526134b760f11b6064820152608401610225565b610a397fdf8b4c520ffe197c5343c6f5aec59570151ef9a492f2c624fd45ddde6135ec4282610a7c565b61100c33610a3c565b6110515760405162461bcd60e51b81526020600482015260226024820152600080516020611ba183398151915260448201526134b760f11b6064820152608401610225565b6001600160a01b0381166110a75760405162461bcd60e51b815260206004820152601860248201527f41636365737369626c653a207a65726f206164647265737300000000000000006044820152606401610225565b6001600160a01b03811633036110ff5760405162461bcd60e51b815260206004820152601660248201527f41636365737369626c653a2073616d652061646d696e000000000000000000006044820152606401610225565b6111297fdf8b4c520ffe197c5343c6f5aec59570151ef9a492f2c624fd45ddde6135ec4282610a7c565b610a397fdf8b4c520ffe197c5343c6f5aec59570151ef9a492f2c624fd45ddde6135ec4233610aa1565b61115c33610a3c565b6111a15760405162461bcd60e51b81526020600482015260226024820152600080516020611ba183398151915260448201526134b760f11b6064820152608401610225565b6000805460ff1916911515919091179055565b6111bd33610a3c565b6112025760405162461bcd60e51b81526020600482015260226024820152600080516020611ba183398151915260448201526134b760f11b6064820152608401610225565b61089783838361147a565b6000818152600160205260408120546001600160a01b03166108cd565b6001600160e01b031981166000908152600360205260408120546001600160a01b031661128a5750506000805260016020527fa6eef7e35abe7026729641147f7915573c7e97b47efa546f5f6e3230263bcb49546001600160a01b031690565b6001600160e01b031982166000908152600360209081526040808320546001600160a01b03168352600290915290205460ff16156112e857506001600160e01b0319166000908152600360205260409020546001600160a01b031690565b50506000805260016020527fa6eef7e35abe7026729641147f7915573c7e97b47efa546f5f6e3230263bcb49546001600160a01b031690565b919050565b6000828152600460205260409020600101546113418161134b565b61089783836113f7565b610a398133611571565b60008281526004602090815260408083206001600160a01b038516845290915290205460ff16610b295760008281526004602090815260408083206001600160a01b03851684529091529020805460ff191660011790556113b33390565b6001600160a01b0316816001600160a01b0316837f2f8788117e7eff1d82e926ec794901d17c78024a50270940304540a733656f0d60405160405180910390a45050565b60008281526004602090815260408083206001600160a01b038516845290915290205460ff1615610b295760008281526004602090815260408083206001600160a01b0385168085529252808320805460ff1916905551339285917ff6391f5c32d9c69d2a47ea670b442974b53935d1edc7fd64eb21e047a839171b9190a45050565b6001600160a01b0383163b6114d15760405162461bcd60e51b815260206004820152601b60248201527f50726f78793a206e6f7420636f6e7472616374206164647265737300000000006044820152606401610225565b801561150c576000828152600160205260409020805473ffffffffffffffffffffffffffffffffffffffff19166001600160a01b0385161790555b61089783825b6001600160a01b038216600081815260026020908152604091829020805460ff191685151590811790915591519182527f72558d9bfba4210f9ef095c782589484151f6d90f7a81bb3cb9b33efc695d324910160405180910390a25050565b60008281526004602090815260408083206001600160a01b038516845290915290205460ff16610b29576115a4816115e6565b6115af8360206115f8565b6040516020016115c0929190611ab5565b60408051601f198184030181529082905262461bcd60e51b825261022591600401611b36565b60606108cd6001600160a01b03831660145b60606000611607836002611b49565b611612906002611b60565b67ffffffffffffffff81111561162a5761162a611b73565b6040519080825280601f01601f191660200182016040528015611654576020820181803683370190505b509050600360fc1b8160008151811061166f5761166f611a70565b60200101906001600160f81b031916908160001a905350600f60fb1b8160018151811061169e5761169e611a70565b60200101906001600160f81b031916908160001a90535060006116c2846002611b49565b6116cd906001611b60565b90505b6001811115611752577f303132333435363738396162636465660000000000000000000000000000000085600f166010811061170e5761170e611a70565b1a60f81b82828151811061172457611724611a70565b60200101906001600160f81b031916908160001a90535060049490941c9361174b81611b89565b90506116d0565b5083156117a15760405162461bcd60e51b815260206004820181905260248201527f537472696e67733a20686578206c656e67746820696e73756666696369656e746044820152606401610225565b9392505050565b6000602082840312156117ba57600080fd5b81356001600160e01b0319811681146117a157600080fd5b6000602082840312156117e457600080fd5b5035919050565b60005b838110156118065781810151838201526020016117ee565b50506000910152565b600081518084526118278160208601602086016117eb565b601f01601f19169290920160200192915050565b60006101206001600160a01b03808d168452808c166020850152808b166040850152808a1660608501528089166080850152508660a084015260ff861660c084015260ff851660e0840152806101008401526118998184018561180f565b9c9b505050505050505050505050565b80356001600160a01b038116811461132157600080fd5b6000602082840312156118d257600080fd5b6117a1826118a9565b6000602082840312156118ed57600080fd5b813560ff811681146117a157600080fd5b6000806040838503121561191157600080fd5b82359150611921602084016118a9565b90509250929050565b60008060006040848603121561193f57600080fd5b833567ffffffffffffffff8082111561195757600080fd5b818601915086601f83011261196b57600080fd5b81358181111561197a57600080fd5b8760208260051b850101111561198f57600080fd5b6020928301955093506119a591860190506118a9565b90509250925092565b8035801515811461132157600080fd5b600080604083850312156119d157600080fd5b6119da836118a9565b9150611921602084016119ae565b6000602082840312156119fa57600080fd5b6117a1826119ae565b600080600060608486031215611a1857600080fd5b611a21846118a9565b9250602084013591506119a5604085016119ae565b600181811c90821680611a4a57607f821691505b602082108103611a6a57634e487b7160e01b600052602260045260246000fd5b50919050565b634e487b7160e01b600052603260045260246000fd5b634e487b7160e01b600052601160045260246000fd5b600060018201611aae57611aae611a86565b5060010190565b7f416363657373436f6e74726f6c3a206163636f756e7420000000000000000000815260008351611aed8160178501602088016117eb565b7f206973206d697373696e6720726f6c65200000000000000000000000000000006017918401918201528351611b2a8160288401602088016117eb565b01602801949350505050565b6020815260006117a1602083018461180f565b80820281158282048414176108cd576108cd611a86565b808201808211156108cd576108cd611a86565b634e487b7160e01b600052604160045260246000fd5b600081611b9857611b98611a86565b50600019019056fe41636365737369626c653a2043616c6c6572206973206e6f7420616e2061646da164736f6c6343000812000adf8b4c520ffe197c5343c6f5aec59570151ef9a492f2c624fd45ddde6135ec42",
  "devdoc": {
    "events": {
      "RoleAdminChanged(bytes32,bytes32,bytes32)": {
        "details": "Emitted when `newAdminRole` is set as ``role``'s admin role, replacing `previousAdminRole` `DEFAULT_ADMIN_ROLE` is the starting admin for all roles, despite {RoleAdminChanged} not being emitted signaling this. _Available since v3.1._"
      },
      "RoleGranted(bytes32,address,address)": {
        "details": "Emitted when `account` is granted `role`. `sender` is the account that originated the contract call, an admin role bearer except when using {AccessControl-_setupRole}."
      },
      "RoleRevoked(bytes32,address,address)": {
        "details": "Emitted when `account` is revoked `role`. `sender` is the account that originated the contract call:   - if using `revokeRole`, it is the admin role bearer   - if using `renounceRole`, it is the role bearer (i.e. `account`)"
      }
    },
    "kind": "dev",
    "methods": {
      "addAdmin(address)": {
        "details": "add admin",
        "params": {
          "account": "address to add"
        }
      },
      "getRoleAdmin(bytes32)": {
        "details": "Returns the admin role that controls `role`. See {grantRole} and {revokeRole}. To change a role's admin, use {_setRoleAdmin}."
      },
      "getSelectorImplementation2(bytes4)": {
        "details": "view implementation address of selector of function",
        "params": {
          "_selector": "selector of function"
        },
        "returns": {
          "impl": "address of the implementation"
        }
      },
      "grantRole(bytes32,address)": {
        "details": "Grants `role` to `account`. If `account` had not been already granted `role`, emits a {RoleGranted} event. Requirements: - the caller must have ``role``'s admin role. May emit a {RoleGranted} event."
      },
      "hasRole(bytes32,address)": {
        "details": "Returns `true` if `account` has been granted `role`."
      },
      "implementation()": {
        "details": "returns the implementation"
      },
      "implementation2(uint256)": {
        "details": "view implementation address of the proxy[index]",
        "params": {
          "_index": "index of proxy"
        },
        "returns": {
          "_0": "address of the implementation"
        }
      },
      "isAdmin(address)": {
        "details": "whether admin",
        "params": {
          "account": "address to check"
        }
      },
      "removeAdmin(address)": {
        "details": "remove admin",
        "params": {
          "account": "address to remove"
        }
      },
      "renounceRole(bytes32,address)": {
        "details": "Revokes `role` from the calling account. Roles are often managed via {grantRole} and {revokeRole}: this function's purpose is to provide a mechanism for accounts to lose their privileges if they are compromised (such as when a trusted device is misplaced). If the calling account had been revoked `role`, emits a {RoleRevoked} event. Requirements: - the caller must be `account`. May emit a {RoleRevoked} event."
      },
      "revokeRole(bytes32,address)": {
        "details": "Revokes `role` from `account`. If `account` had been granted `role`, emits a {RoleRevoked} event. Requirements: - the caller must have ``role``'s admin role. May emit a {RoleRevoked} event."
      },
      "setAliveImplementation2(address,bool)": {
        "details": "set alive status of implementation",
        "params": {
          "_alive": "alive status",
          "newImplementation": "Address of the new implementation."
        }
      },
      "setImplementation2(address,uint256,bool)": {
        "details": "set the implementation address and status of the proxy[index]",
        "params": {
          "_alive": "_alive",
          "_index": "index",
          "newImplementation": "Address of the new implementation."
        }
      },
      "setProxyPause(bool)": {
        "params": {
          "_pause": "true:pause or false:resume"
        }
      },
      "setSelectorImplementations2(bytes4[],address)": {
        "details": "set selectors of Implementation",
        "params": {
          "_imp": "implementation address",
          "_selectors": "being added selectors"
        }
      },
      "supportsInterface(bytes4)": {
        "details": "See {IERC165-supportsInterface}."
      },
      "transferAdmin(address)": {
        "details": "transfer admin",
        "params": {
          "newAdmin": "new admin address"
        }
      },
      "upgradeTo(address)": {
        "params": {
          "impl": "New implementation contract address"
        }
      }
    },
    "title": "L1BurnVaultProxy",
    "version": 1
  },
  "userdoc": {
    "kind": "user",
    "methods": {
      "setProxyPause(bool)": {
        "notice": "Set pause state"
      },
      "upgradeTo(address)": {
        "notice": "Set implementation contract"
      }
    },
    "version": 1
  },
  "storageLayout": {
    "storage": [
      {
        "astId": 32384,
        "contract": "contracts/L1/L1BurnVaultProxy.sol:L1BurnVaultProxy",
        "label": "pauseProxy",
        "offset": 0,
        "slot": "0",
        "type": "t_bool"
      },
      {
        "astId": 32388,
        "contract": "contracts/L1/L1BurnVaultProxy.sol:L1BurnVaultProxy",
        "label": "proxyImplementation",
        "offset": 0,
        "slot": "1",
        "type": "t_mapping(t_uint256,t_address)"
      },
      {
        "astId": 32392,
        "contract": "contracts/L1/L1BurnVaultProxy.sol:L1BurnVaultProxy",
        "label": "aliveImplementation",
        "offset": 0,
        "slot": "2",
        "type": "t_mapping(t_address,t_bool)"
      },
      {
        "astId": 32396,
        "contract": "contracts/L1/L1BurnVaultProxy.sol:L1BurnVaultProxy",
        "label": "selectorImplementation",
        "offset": 0,
        "slot": "3",
        "type": "t_mapping(t_bytes4,t_address)"
      },
      {
        "astId": 24,
        "contract": "contracts/L1/L1BurnVaultProxy.sol:L1BurnVaultProxy",
        "label": "_roles",
        "offset": 0,
        "slot": "4",
        "type": "t_mapping(t_bytes32,t_struct(RoleData)19_storage)"
      },
      {
        "astId": 7035,
        "contract": "contracts/L1/L1BurnVaultProxy.sol:L1BurnVaultProxy",
        "label": "free",
        "offset": 0,
        "slot": "5",
        "type": "t_bool"
      },
      {
        "astId": 7037,
        "contract": "contracts/L1/L1BurnVaultProxy.sol:L1BurnVaultProxy",
        "label": "projectCount",
        "offset": 0,
        "slot": "6",
        "type": "t_uint256"
      },
      {
        "astId": 7041,
        "contract": "contracts/L1/L1BurnVaultProxy.sol:L1BurnVaultProxy",
        "label": "l1TokenFactory",
        "offset": 0,
        "slot": "7",
        "type": "t_mapping(t_uint8,t_address)"
      },
      {
        "astId": 7046,
        "contract": "contracts/L1/L1BurnVaultProxy.sol:L1BurnVaultProxy",
        "label": "projects",
        "offset": 0,
        "slot": "8",
        "type": "t_mapping(t_uint256,t_struct(ProjectInfo)28858_storage)"
      },
      {
        "astId": 7050,
        "contract": "contracts/L1/L1BurnVaultProxy.sol:L1BurnVaultProxy",
        "label": "projectTokens",
        "offset": 0,
        "slot": "9",
        "type": "t_mapping(t_address,t_uint256)"
      },
      {
        "astId": 7055,
        "contract": "contracts/L1/L1BurnVaultProxy.sol:L1BurnVaultProxy",
        "label": "l2Info",
        "offset": 0,
        "slot": "10",
        "type": "t_mapping(t_uint8,t_struct(L2Info)28867_storage)"
      },
      {
        "astId": 7060,
        "contract": "contracts/L1/L1BurnVaultProxy.sol:L1BurnVaultProxy",
        "label": "publicInfo",
        "offset": 0,
        "slot": "11",
        "type": "t_mapping(t_uint8,t_struct(PublicSaleSet)29031_storage)"
      }
    ],
    "types": {
      "t_address": {
        "encoding": "inplace",
        "label": "address",
        "numberOfBytes": "20"
      },
      "t_bool": {
        "encoding": "inplace",
        "label": "bool",
        "numberOfBytes": "1"
      },
      "t_bytes32": {
        "encoding": "inplace",
        "label": "bytes32",
        "numberOfBytes": "32"
      },
      "t_bytes4": {
        "encoding": "inplace",
        "label": "bytes4",
        "numberOfBytes": "4"
      },
      "t_mapping(t_address,t_bool)": {
        "encoding": "mapping",
        "key": "t_address",
        "label": "mapping(address => bool)",
        "numberOfBytes": "32",
        "value": "t_bool"
      },
      "t_mapping(t_address,t_uint256)": {
        "encoding": "mapping",
        "key": "t_address",
        "label": "mapping(address => uint256)",
        "numberOfBytes": "32",
        "value": "t_uint256"
      },
      "t_mapping(t_bytes32,t_struct(RoleData)19_storage)": {
        "encoding": "mapping",
        "key": "t_bytes32",
        "label": "mapping(bytes32 => struct AccessControl.RoleData)",
        "numberOfBytes": "32",
        "value": "t_struct(RoleData)19_storage"
      },
      "t_mapping(t_bytes4,t_address)": {
        "encoding": "mapping",
        "key": "t_bytes4",
        "label": "mapping(bytes4 => address)",
        "numberOfBytes": "32",
        "value": "t_address"
      },
      "t_mapping(t_uint256,t_address)": {
        "encoding": "mapping",
        "key": "t_uint256",
        "label": "mapping(uint256 => address)",
        "numberOfBytes": "32",
        "value": "t_address"
      },
      "t_mapping(t_uint256,t_struct(ProjectInfo)28858_storage)": {
        "encoding": "mapping",
        "key": "t_uint256",
        "label": "mapping(uint256 => struct LibProject.ProjectInfo)",
        "numberOfBytes": "32",
        "value": "t_struct(ProjectInfo)28858_storage"
      },
      "t_mapping(t_uint8,t_address)": {
        "encoding": "mapping",
        "key": "t_uint8",
        "label": "mapping(uint8 => address)",
        "numberOfBytes": "32",
        "value": "t_address"
      },
      "t_mapping(t_uint8,t_struct(L2Info)28867_storage)": {
        "encoding": "mapping",
        "key": "t_uint8",
        "label": "mapping(uint8 => struct LibProject.L2Info)",
        "numberOfBytes": "32",
        "value": "t_struct(L2Info)28867_storage"
      },
      "t_mapping(t_uint8,t_struct(PublicSaleSet)29031_storage)": {
        "encoding": "mapping",
        "key": "t_uint8",
        "label": "mapping(uint8 => struct LibProject.PublicSaleSet)",
        "numberOfBytes": "32",
        "value": "t_struct(PublicSaleSet)29031_storage"
      },
      "t_string_storage": {
        "encoding": "bytes",
        "label": "string",
        "numberOfBytes": "32"
      },
      "t_struct(L2Info)28867_storage": {
        "encoding": "inplace",
        "label": "struct LibProject.L2Info",
        "members": [
          {
            "astId": 28860,
            "contract": "contracts/L1/L1BurnVaultProxy.sol:L1BurnVaultProxy",
            "label": "l2TokenFactory",
            "offset": 0,
            "slot": "0",
            "type": "t_address"
          },
          {
            "astId": 28862,
            "contract": "contracts/L1/L1BurnVaultProxy.sol:L1BurnVaultProxy",
            "label": "l2ProjectManager",
            "offset": 0,
            "slot": "1",
            "type": "t_address"
          },
          {
            "astId": 28864,
            "contract": "contracts/L1/L1BurnVaultProxy.sol:L1BurnVaultProxy",
            "label": "depositMinGasLimit",
            "offset": 20,
            "slot": "1",
            "type": "t_uint32"
          },
          {
            "astId": 28866,
            "contract": "contracts/L1/L1BurnVaultProxy.sol:L1BurnVaultProxy",
            "label": "sendMsgMinGasLimit",
            "offset": 24,
            "slot": "1",
            "type": "t_uint32"
          }
        ],
        "numberOfBytes": "64"
      },
      "t_struct(ProjectInfo)28858_storage": {
        "encoding": "inplace",
        "label": "struct LibProject.ProjectInfo",
        "members": [
          {
            "astId": 28841,
            "contract": "contracts/L1/L1BurnVaultProxy.sol:L1BurnVaultProxy",
            "label": "projectOwner",
            "offset": 0,
            "slot": "0",
            "type": "t_address"
          },
          {
            "astId": 28843,
            "contract": "contracts/L1/L1BurnVaultProxy.sol:L1BurnVaultProxy",
            "label": "tokenOwner",
            "offset": 0,
            "slot": "1",
            "type": "t_address"
          },
          {
            "astId": 28845,
            "contract": "contracts/L1/L1BurnVaultProxy.sol:L1BurnVaultProxy",
            "label": "l1Token",
            "offset": 0,
            "slot": "2",
            "type": "t_address"
          },
          {
            "astId": 28847,
            "contract": "contracts/L1/L1BurnVaultProxy.sol:L1BurnVaultProxy",
            "label": "l2Token",
            "offset": 0,
            "slot": "3",
            "type": "t_address"
          },
          {
            "astId": 28849,
            "contract": "contracts/L1/L1BurnVaultProxy.sol:L1BurnVaultProxy",
            "label": "addressManager",
            "offset": 0,
            "slot": "4",
            "type": "t_address"
          },
          {
            "astId": 28851,
            "contract": "contracts/L1/L1BurnVaultProxy.sol:L1BurnVaultProxy",
            "label": "initialTotalSupply",
            "offset": 0,
            "slot": "5",
            "type": "t_uint256"
          },
          {
            "astId": 28853,
            "contract": "contracts/L1/L1BurnVaultProxy.sol:L1BurnVaultProxy",
            "label": "tokenType",
            "offset": 0,
            "slot": "6",
            "type": "t_uint8"
          },
          {
            "astId": 28855,
            "contract": "contracts/L1/L1BurnVaultProxy.sol:L1BurnVaultProxy",
            "label": "l2Type",
            "offset": 1,
            "slot": "6",
            "type": "t_uint8"
          },
          {
            "astId": 28857,
            "contract": "contracts/L1/L1BurnVaultProxy.sol:L1BurnVaultProxy",
            "label": "projectName",
            "offset": 0,
            "slot": "7",
            "type": "t_string_storage"
          }
        ],
        "numberOfBytes": "256"
      },
      "t_struct(PublicSaleSet)29031_storage": {
        "encoding": "inplace",
        "label": "struct LibProject.PublicSaleSet",
        "members": [
          {
            "astId": 29026,
            "contract": "contracts/L1/L1BurnVaultProxy.sol:L1BurnVaultProxy",
            "label": "minPercents",
            "offset": 0,
            "slot": "0",
            "type": "t_uint8"
          },
          {
            "astId": 29028,
            "contract": "contracts/L1/L1BurnVaultProxy.sol:L1BurnVaultProxy",
            "label": "maxPercents",
            "offset": 1,
            "slot": "0",
            "type": "t_uint8"
          },
          {
            "astId": 29030,
            "contract": "contracts/L1/L1BurnVaultProxy.sol:L1BurnVaultProxy",
            "label": "delayTime",
            "offset": 0,
            "slot": "1",
            "type": "t_uint256"
          }
        ],
        "numberOfBytes": "64"
      },
      "t_struct(RoleData)19_storage": {
        "encoding": "inplace",
        "label": "struct AccessControl.RoleData",
        "members": [
          {
            "astId": 16,
            "contract": "contracts/L1/L1BurnVaultProxy.sol:L1BurnVaultProxy",
            "label": "members",
            "offset": 0,
            "slot": "0",
            "type": "t_mapping(t_address,t_bool)"
          },
          {
            "astId": 18,
            "contract": "contracts/L1/L1BurnVaultProxy.sol:L1BurnVaultProxy",
            "label": "adminRole",
            "offset": 0,
            "slot": "1",
            "type": "t_bytes32"
          }
        ],
        "numberOfBytes": "64"
      },
      "t_uint256": {
        "encoding": "inplace",
        "label": "uint256",
        "numberOfBytes": "32"
      },
      "t_uint32": {
        "encoding": "inplace",
        "label": "uint32",
        "numberOfBytes": "4"
      },
      "t_uint8": {
        "encoding": "inplace",
        "label": "uint8",
        "numberOfBytes": "1"
      }
    }
  }
}