{
  "address": "0x8756873b21545FD49056A6a2a7a06D3dA388FEB9",
  "abi": [
    {
      "inputs": [],
      "stateMutability": "nonpayable",
      "type": "constructor"
    },
    {
      "anonymous": false,
      "inputs": [
        {
          "indexed": false,
          "internalType": "address",
          "name": "l1Token",
          "type": "address"
        },
        {
          "indexed": false,
          "internalType": "uint256",
          "name": "projectId",
          "type": "uint256"
        },
        {
          "indexed": false,
          "internalType": "address",
          "name": "tokenOwner",
          "type": "address"
        },
        {
          "indexed": false,
          "internalType": "address",
          "name": "projectOwner",
          "type": "address"
        },
        {
          "indexed": false,
          "internalType": "address",
          "name": "addressManager",
          "type": "address"
        },
        {
          "indexed": false,
          "internalType": "uint256",
          "name": "initialTotalSupply",
          "type": "uint256"
        },
        {
          "indexed": false,
          "internalType": "string",
          "name": "projectName",
          "type": "string"
        },
        {
          "indexed": false,
          "internalType": "string",
          "name": "tokenName",
          "type": "string"
        },
        {
          "indexed": false,
          "internalType": "string",
          "name": "tokenSymbol",
          "type": "string"
        }
      ],
      "name": "CreatedProject",
      "type": "event"
    },
    {
      "anonymous": false,
      "inputs": [
        {
          "indexed": false,
          "internalType": "uint256",
          "name": "projectId",
          "type": "uint256"
        },
        {
          "indexed": false,
          "internalType": "address",
          "name": "l1Token",
          "type": "address"
        },
        {
          "indexed": false,
          "internalType": "address",
          "name": "l2Token",
          "type": "address"
        },
        {
          "indexed": false,
          "internalType": "uint256",
          "name": "totalAmount",
          "type": "uint256"
        }
      ],
      "name": "LaunchedProject",
      "type": "event"
    },
    {
      "anonymous": false,
      "inputs": [
        {
          "indexed": true,
          "internalType": "bytes32",
          "name": "role",
          "type": "bytes32"
        },
        {
          "indexed": true,
          "internalType": "bytes32",
          "name": "previousAdminRole",
          "type": "bytes32"
        },
        {
          "indexed": true,
          "internalType": "bytes32",
          "name": "newAdminRole",
          "type": "bytes32"
        }
      ],
      "name": "RoleAdminChanged",
      "type": "event"
    },
    {
      "anonymous": false,
      "inputs": [
        {
          "indexed": true,
          "internalType": "bytes32",
          "name": "role",
          "type": "bytes32"
        },
        {
          "indexed": true,
          "internalType": "address",
          "name": "account",
          "type": "address"
        },
        {
          "indexed": true,
          "internalType": "address",
          "name": "sender",
          "type": "address"
        }
      ],
      "name": "RoleGranted",
      "type": "event"
    },
    {
      "anonymous": false,
      "inputs": [
        {
          "indexed": true,
          "internalType": "bytes32",
          "name": "role",
          "type": "bytes32"
        },
        {
          "indexed": true,
          "internalType": "address",
          "name": "account",
          "type": "address"
        },
        {
          "indexed": true,
          "internalType": "address",
          "name": "sender",
          "type": "address"
        }
      ],
      "name": "RoleRevoked",
      "type": "event"
    },
    {
      "anonymous": false,
      "inputs": [
        {
          "indexed": false,
          "internalType": "uint8",
          "name": "l2Type",
          "type": "uint8"
        },
        {
          "indexed": false,
          "internalType": "address",
          "name": "l2TokenFactory",
          "type": "address"
        },
        {
          "indexed": false,
          "internalType": "address",
          "name": "l2ProjectManager",
          "type": "address"
        },
        {
          "indexed": false,
          "internalType": "uint32",
          "name": "depositMinGasLimit",
          "type": "uint32"
        },
        {
          "indexed": false,
          "internalType": "uint32",
          "name": "sendMsgMinGasLimit",
          "type": "uint32"
        }
      ],
      "name": "SetL2Infos",
      "type": "event"
    },
    {
      "anonymous": false,
      "inputs": [
        {
          "indexed": false,
          "internalType": "uint256",
          "name": "projectId",
          "type": "uint256"
        },
        {
          "indexed": false,
          "internalType": "uint8",
          "name": "l2Type",
          "type": "uint8"
        },
        {
          "indexed": false,
          "internalType": "address",
          "name": "addressManager",
          "type": "address"
        },
        {
          "indexed": false,
          "internalType": "address",
          "name": "l2Token",
          "type": "address"
        }
      ],
      "name": "SetL2Token",
      "type": "event"
    },
    {
      "inputs": [],
      "name": "ADMIN_ROLE",
      "outputs": [
        {
          "internalType": "bytes32",
          "name": "",
          "type": "bytes32"
        }
      ],
      "stateMutability": "view",
      "type": "function"
    },
    {
      "inputs": [],
      "name": "DEFAULT_ADMIN_ROLE",
      "outputs": [
        {
          "internalType": "bytes32",
          "name": "",
          "type": "bytes32"
        }
      ],
      "stateMutability": "view",
      "type": "function"
    },
    {
      "inputs": [],
      "name": "POLICY_ROLE",
      "outputs": [
        {
          "internalType": "bytes32",
          "name": "",
          "type": "bytes32"
        }
      ],
      "stateMutability": "view",
      "type": "function"
    },
    {
      "inputs": [
        {
          "internalType": "address",
          "name": "account",
          "type": "address"
        }
      ],
      "name": "addAdmin",
      "outputs": [],
      "stateMutability": "nonpayable",
      "type": "function"
    },
    {
      "inputs": [
        {
          "internalType": "address",
          "name": "",
          "type": "address"
        }
      ],
      "name": "aliveImplementation",
      "outputs": [
        {
          "internalType": "bool",
          "name": "",
          "type": "bool"
        }
      ],
      "stateMutability": "view",
      "type": "function"
    },
    {
      "inputs": [
        {
          "internalType": "address",
          "name": "tokenOwner",
          "type": "address"
        },
        {
          "internalType": "address",
          "name": "projectOwner",
          "type": "address"
        },
        {
          "internalType": "address",
          "name": "addressManager",
          "type": "address"
        },
        {
          "internalType": "uint256",
          "name": "initialTotalSupply",
          "type": "uint256"
        },
        {
          "internalType": "uint8",
          "name": "tokenType",
          "type": "uint8"
        },
        {
          "internalType": "string",
          "name": "projectName",
          "type": "string"
        },
        {
          "internalType": "string",
          "name": "tokenName",
          "type": "string"
        },
        {
          "internalType": "string",
          "name": "tokenSymbol",
          "type": "string"
        }
      ],
      "name": "createProject",
      "outputs": [
        {
          "internalType": "uint256",
          "name": "",
          "type": "uint256"
        }
      ],
      "stateMutability": "nonpayable",
      "type": "function"
    },
    {
      "inputs": [
        {
          "internalType": "bytes32",
          "name": "role",
          "type": "bytes32"
        }
      ],
      "name": "getRoleAdmin",
      "outputs": [
        {
          "internalType": "bytes32",
          "name": "",
          "type": "bytes32"
        }
      ],
      "stateMutability": "view",
      "type": "function"
    },
    {
      "inputs": [
        {
          "internalType": "bytes32",
          "name": "role",
          "type": "bytes32"
        },
        {
          "internalType": "address",
          "name": "account",
          "type": "address"
        }
      ],
      "name": "grantRole",
      "outputs": [],
      "stateMutability": "nonpayable",
      "type": "function"
    },
    {
      "inputs": [
        {
          "internalType": "bytes32",
          "name": "role",
          "type": "bytes32"
        },
        {
          "internalType": "address",
          "name": "account",
          "type": "address"
        }
      ],
      "name": "hasRole",
      "outputs": [
        {
          "internalType": "bool",
          "name": "",
          "type": "bool"
        }
      ],
      "stateMutability": "view",
      "type": "function"
    },
    {
      "inputs": [
        {
          "internalType": "address",
          "name": "account",
          "type": "address"
        }
      ],
      "name": "isAdmin",
      "outputs": [
        {
          "internalType": "bool",
          "name": "",
          "type": "bool"
        }
      ],
      "stateMutability": "view",
      "type": "function"
    },
    {
      "inputs": [
        {
          "internalType": "uint8",
          "name": "",
          "type": "uint8"
        }
      ],
      "name": "l1TokenFactory",
      "outputs": [
        {
          "internalType": "address",
          "name": "",
          "type": "address"
        }
      ],
      "stateMutability": "view",
      "type": "function"
    },
    {
      "inputs": [
        {
          "internalType": "uint8",
          "name": "",
          "type": "uint8"
        }
      ],
      "name": "l2Info",
      "outputs": [
        {
          "internalType": "address",
          "name": "l2TokenFactory",
          "type": "address"
        },
        {
          "internalType": "address",
          "name": "l2ProjectManager",
          "type": "address"
        },
        {
          "internalType": "uint32",
          "name": "depositMinGasLimit",
          "type": "uint32"
        },
        {
          "internalType": "uint32",
          "name": "sendMsgMinGasLimit",
          "type": "uint32"
        }
      ],
      "stateMutability": "view",
      "type": "function"
    },
    {
      "inputs": [
        {
          "internalType": "uint256",
          "name": "projectId",
          "type": "uint256"
        },
        {
          "internalType": "address",
          "name": "l2Token",
          "type": "address"
        },
        {
          "internalType": "uint256",
          "name": "totalAmount",
          "type": "uint256"
        },
        {
          "components": [
            {
              "components": [
                {
                  "components": [
                    {
                      "internalType": "uint256",
                      "name": "stosTier1",
                      "type": "uint256"
                    },
                    {
                      "internalType": "uint256",
                      "name": "stosTier2",
                      "type": "uint256"
                    },
                    {
                      "internalType": "uint256",
                      "name": "stosTier3",
                      "type": "uint256"
                    },
                    {
                      "internalType": "uint256",
                      "name": "stosTier4",
                      "type": "uint256"
                    },
                    {
                      "internalType": "uint256",
                      "name": "tier1Percents",
                      "type": "uint256"
                    },
                    {
                      "internalType": "uint256",
                      "name": "tier2Percents",
                      "type": "uint256"
                    },
                    {
                      "internalType": "uint256",
                      "name": "tier3Percents",
                      "type": "uint256"
                    },
                    {
                      "internalType": "uint256",
                      "name": "tier4Percents",
                      "type": "uint256"
                    },
                    {
                      "internalType": "uint256",
                      "name": "total1roundSaleAmount",
                      "type": "uint256"
                    },
                    {
                      "internalType": "uint256",
                      "name": "total2roundSaleAmount",
                      "type": "uint256"
                    },
                    {
                      "internalType": "uint256",
                      "name": "saleTokenPrice",
                      "type": "uint256"
                    },
                    {
                      "internalType": "uint256",
                      "name": "payTokenPrice",
                      "type": "uint256"
                    },
                    {
                      "internalType": "uint256",
                      "name": "hardcapAmount",
                      "type": "uint256"
                    },
                    {
                      "internalType": "uint256",
                      "name": "changeTOSPercent",
                      "type": "uint256"
                    },
                    {
                      "internalType": "uint256",
                      "name": "startWhiteTime",
                      "type": "uint256"
                    },
                    {
                      "internalType": "uint256",
                      "name": "endWhiteTime",
                      "type": "uint256"
                    },
                    {
                      "internalType": "uint256",
                      "name": "start1roundTime",
                      "type": "uint256"
                    },
                    {
                      "internalType": "uint256",
                      "name": "end1roundTime",
                      "type": "uint256"
                    },
                    {
                      "internalType": "uint256",
                      "name": "snapshotTime",
                      "type": "uint256"
                    },
                    {
                      "internalType": "uint256",
                      "name": "start2roundTime",
                      "type": "uint256"
                    },
                    {
                      "internalType": "uint256",
                      "name": "end2roundTime",
                      "type": "uint256"
                    },
                    {
                      "internalType": "uint256",
                      "name": "claimCounts",
                      "type": "uint256"
                    }
                  ],
                  "internalType": "struct LibProject.InitalParameterPublicSaleVault",
                  "name": "vaultParams",
                  "type": "tuple"
                },
                {
                  "components": [
                    {
                      "internalType": "uint256[]",
                      "name": "claimTimes",
                      "type": "uint256[]"
                    },
                    {
                      "internalType": "uint256[]",
                      "name": "claimPercents",
                      "type": "uint256[]"
                    }
                  ],
                  "internalType": "struct LibProject.InitalParameterPublicSaleClaim",
                  "name": "claimParams",
                  "type": "tuple"
                }
              ],
              "internalType": "struct LibProject.InitalParameterPublicSale",
              "name": "publicSaleParams",
              "type": "tuple"
            },
            {
              "components": [
                {
                  "internalType": "uint256",
                  "name": "totalAllocatedAmount",
                  "type": "uint256"
                },
                {
                  "internalType": "uint256",
                  "name": "tosPrice",
                  "type": "uint256"
                },
                {
                  "internalType": "uint256",
                  "name": "tokenPrice",
                  "type": "uint256"
                },
                {
                  "internalType": "uint256",
                  "name": "initSqrtPrice",
                  "type": "uint256"
                },
                {
                  "internalType": "uint32",
                  "name": "startTime",
                  "type": "uint32"
                },
                {
                  "internalType": "uint16",
                  "name": "fee",
                  "type": "uint16"
                }
              ],
              "internalType": "struct LibProject.InitalParameterInitialLiquidityVault",
              "name": "initialVaultParams",
              "type": "tuple"
            },
            {
              "components": [
                {
                  "components": [
                    {
                      "internalType": "address",
                      "name": "token0",
                      "type": "address"
                    },
                    {
                      "internalType": "address",
                      "name": "token1",
                      "type": "address"
                    },
                    {
                      "internalType": "uint24",
                      "name": "fee",
                      "type": "uint24"
                    }
                  ],
                  "internalType": "struct LibPool.PoolInfo",
                  "name": "poolParams",
                  "type": "tuple"
                },
                {
                  "components": [
                    {
                      "internalType": "address",
                      "name": "claimer",
                      "type": "address"
                    },
                    {
                      "internalType": "uint256",
                      "name": "totalAllocatedAmount",
                      "type": "uint256"
                    },
                    {
                      "internalType": "uint256",
                      "name": "totalClaimCount",
                      "type": "uint256"
                    },
                    {
                      "internalType": "uint256",
                      "name": "firstClaimAmount",
                      "type": "uint256"
                    },
                    {
                      "internalType": "uint32",
                      "name": "firstClaimTime",
                      "type": "uint32"
                    },
                    {
                      "internalType": "uint32",
                      "name": "secondClaimTime",
                      "type": "uint32"
                    },
                    {
                      "internalType": "uint32",
                      "name": "roundIntervalTime",
                      "type": "uint32"
                    }
                  ],
                  "internalType": "struct LibProject.InitalParameterScheduleVault",
                  "name": "params",
                  "type": "tuple"
                }
              ],
              "internalType": "struct LibProject.InitalParameterLiquidityRewardVault",
              "name": "rewardTonTosPoolParams",
              "type": "tuple"
            },
            {
              "components": [
                {
                  "components": [
                    {
                      "internalType": "address",
                      "name": "token0",
                      "type": "address"
                    },
                    {
                      "internalType": "address",
                      "name": "token1",
                      "type": "address"
                    },
                    {
                      "internalType": "uint24",
                      "name": "fee",
                      "type": "uint24"
                    }
                  ],
                  "internalType": "struct LibPool.PoolInfo",
                  "name": "poolParams",
                  "type": "tuple"
                },
                {
                  "components": [
                    {
                      "internalType": "address",
                      "name": "claimer",
                      "type": "address"
                    },
                    {
                      "internalType": "uint256",
                      "name": "totalAllocatedAmount",
                      "type": "uint256"
                    },
                    {
                      "internalType": "uint256",
                      "name": "totalClaimCount",
                      "type": "uint256"
                    },
                    {
                      "internalType": "uint256",
                      "name": "firstClaimAmount",
                      "type": "uint256"
                    },
                    {
                      "internalType": "uint32",
                      "name": "firstClaimTime",
                      "type": "uint32"
                    },
                    {
                      "internalType": "uint32",
                      "name": "secondClaimTime",
                      "type": "uint32"
                    },
                    {
                      "internalType": "uint32",
                      "name": "roundIntervalTime",
                      "type": "uint32"
                    }
                  ],
                  "internalType": "struct LibProject.InitalParameterScheduleVault",
                  "name": "params",
                  "type": "tuple"
                }
              ],
              "internalType": "struct LibProject.InitalParameterLiquidityRewardVault",
              "name": "rewardProjectTosPoolParams",
              "type": "tuple"
            },
            {
              "components": [
                {
                  "internalType": "address",
                  "name": "claimer",
                  "type": "address"
                },
                {
                  "internalType": "uint256",
                  "name": "totalAllocatedAmount",
                  "type": "uint256"
                },
                {
                  "internalType": "uint256",
                  "name": "totalClaimCount",
                  "type": "uint256"
                },
                {
                  "internalType": "uint256",
                  "name": "firstClaimAmount",
                  "type": "uint256"
                },
                {
                  "internalType": "uint32",
                  "name": "firstClaimTime",
                  "type": "uint32"
                },
                {
                  "internalType": "uint32",
                  "name": "secondClaimTime",
                  "type": "uint32"
                },
                {
                  "internalType": "uint32",
                  "name": "roundIntervalTime",
                  "type": "uint32"
                }
              ],
              "internalType": "struct LibProject.InitalParameterScheduleVault",
              "name": "tosAirdropParams",
              "type": "tuple"
            },
            {
              "components": [
                {
                  "internalType": "address",
                  "name": "claimer",
                  "type": "address"
                },
                {
                  "internalType": "uint256",
                  "name": "totalAllocatedAmount",
                  "type": "uint256"
                },
                {
                  "internalType": "uint256",
                  "name": "totalClaimCount",
                  "type": "uint256"
                },
                {
                  "internalType": "uint256",
                  "name": "firstClaimAmount",
                  "type": "uint256"
                },
                {
                  "internalType": "uint32",
                  "name": "firstClaimTime",
                  "type": "uint32"
                },
                {
                  "internalType": "uint32",
                  "name": "secondClaimTime",
                  "type": "uint32"
                },
                {
                  "internalType": "uint32",
                  "name": "roundIntervalTime",
                  "type": "uint32"
                }
              ],
              "internalType": "struct LibProject.InitalParameterScheduleVault",
              "name": "tonAirdropParams",
              "type": "tuple"
            }
          ],
          "internalType": "struct LibProject.TokamakVaults",
          "name": "tokamakVaults",
          "type": "tuple"
        },
        {
          "components": [
            {
              "internalType": "string",
              "name": "vaultName",
              "type": "string"
            },
            {
              "components": [
                {
                  "internalType": "address",
                  "name": "claimer",
                  "type": "address"
                },
                {
                  "internalType": "uint256",
                  "name": "totalAllocatedAmount",
                  "type": "uint256"
                },
                {
                  "internalType": "uint256",
                  "name": "totalClaimCount",
                  "type": "uint256"
                },
                {
                  "internalType": "uint256",
                  "name": "firstClaimAmount",
                  "type": "uint256"
                },
                {
                  "internalType": "uint32",
                  "name": "firstClaimTime",
                  "type": "uint32"
                },
                {
                  "internalType": "uint32",
                  "name": "secondClaimTime",
                  "type": "uint32"
                },
                {
                  "internalType": "uint32",
                  "name": "roundIntervalTime",
                  "type": "uint32"
                }
              ],
              "internalType": "struct LibProject.InitalParameterScheduleVault",
              "name": "params",
              "type": "tuple"
            }
          ],
          "internalType": "struct LibProject.InitalParameterSchedule[]",
          "name": "customScheduleVaults",
          "type": "tuple[]"
        },
        {
          "components": [
            {
              "internalType": "string",
              "name": "vaultName",
              "type": "string"
            },
            {
              "internalType": "address",
              "name": "claimer",
              "type": "address"
            },
            {
              "internalType": "uint256",
              "name": "totalAllocatedAmount",
              "type": "uint256"
            }
          ],
          "internalType": "struct LibProject.InitalParameterNonScheduleVault[]",
          "name": "customNonScheduleVaults",
          "type": "tuple[]"
        }
      ],
      "name": "launchProject",
      "outputs": [],
      "stateMutability": "nonpayable",
      "type": "function"
    },
    {
      "inputs": [],
      "name": "pauseProxy",
      "outputs": [
        {
          "internalType": "bool",
          "name": "",
          "type": "bool"
        }
      ],
      "stateMutability": "view",
      "type": "function"
    },
    {
      "inputs": [],
      "name": "projectCount",
      "outputs": [
        {
          "internalType": "uint256",
          "name": "",
          "type": "uint256"
        }
      ],
      "stateMutability": "view",
      "type": "function"
    },
    {
      "inputs": [
        {
          "internalType": "address",
          "name": "",
          "type": "address"
        }
      ],
      "name": "projectTokens",
      "outputs": [
        {
          "internalType": "uint256",
          "name": "",
          "type": "uint256"
        }
      ],
      "stateMutability": "view",
      "type": "function"
    },
    {
      "inputs": [
        {
          "internalType": "uint256",
          "name": "",
          "type": "uint256"
        }
      ],
      "name": "projects",
      "outputs": [
        {
          "internalType": "address",
          "name": "projectOwner",
          "type": "address"
        },
        {
          "internalType": "address",
          "name": "tokenOwner",
          "type": "address"
        },
        {
          "internalType": "address",
          "name": "l1Token",
          "type": "address"
        },
        {
          "internalType": "address",
          "name": "l2Token",
          "type": "address"
        },
        {
          "internalType": "address",
          "name": "addressManager",
          "type": "address"
        },
        {
          "internalType": "uint256",
          "name": "initialTotalSupply",
          "type": "uint256"
        },
        {
          "internalType": "uint8",
          "name": "tokenType",
          "type": "uint8"
        },
        {
          "internalType": "uint8",
          "name": "l2Type",
          "type": "uint8"
        },
        {
          "internalType": "string",
          "name": "projectName",
          "type": "string"
        }
      ],
      "stateMutability": "view",
      "type": "function"
    },
    {
      "inputs": [
        {
          "internalType": "uint256",
          "name": "",
          "type": "uint256"
        }
      ],
      "name": "proxyImplementation",
      "outputs": [
        {
          "internalType": "address",
          "name": "",
          "type": "address"
        }
      ],
      "stateMutability": "view",
      "type": "function"
    },
    {
      "inputs": [
        {
          "internalType": "address",
          "name": "account",
          "type": "address"
        }
      ],
      "name": "removeAdmin",
      "outputs": [],
      "stateMutability": "nonpayable",
      "type": "function"
    },
    {
      "inputs": [
        {
          "internalType": "bytes32",
          "name": "role",
          "type": "bytes32"
        },
        {
          "internalType": "address",
          "name": "account",
          "type": "address"
        }
      ],
      "name": "renounceRole",
      "outputs": [],
      "stateMutability": "nonpayable",
      "type": "function"
    },
    {
      "inputs": [
        {
          "internalType": "bytes32",
          "name": "role",
          "type": "bytes32"
        },
        {
          "internalType": "address",
          "name": "account",
          "type": "address"
        }
      ],
      "name": "revokeRole",
      "outputs": [],
      "stateMutability": "nonpayable",
      "type": "function"
    },
    {
      "inputs": [
        {
          "internalType": "bytes4",
          "name": "",
          "type": "bytes4"
        }
      ],
      "name": "selectorImplementation",
      "outputs": [
        {
          "internalType": "address",
          "name": "",
          "type": "address"
        }
      ],
      "stateMutability": "view",
      "type": "function"
    },
    {
      "inputs": [
        {
          "internalType": "uint8[]",
          "name": "tokenTypes",
          "type": "uint8[]"
        },
        {
          "internalType": "address[]",
          "name": "_l1TokenFactorys",
          "type": "address[]"
        }
      ],
      "name": "setL1TokenFactories",
      "outputs": [],
      "stateMutability": "nonpayable",
      "type": "function"
    },
    {
      "inputs": [
        {
          "internalType": "uint8",
          "name": "l2Type",
          "type": "uint8"
        },
        {
          "internalType": "address",
          "name": "_l2TokenFactory",
          "type": "address"
        },
        {
          "internalType": "address",
          "name": "_l2ProjectManager",
          "type": "address"
        },
        {
          "internalType": "uint32",
          "name": "_depositMinGasLimit",
          "type": "uint32"
        },
        {
          "internalType": "uint32",
          "name": "_sendMsgMinGasLimit",
          "type": "uint32"
        }
      ],
      "name": "setL2Infos",
      "outputs": [],
      "stateMutability": "nonpayable",
      "type": "function"
    },
    {
      "inputs": [
        {
          "internalType": "bytes4",
          "name": "interfaceId",
          "type": "bytes4"
        }
      ],
      "name": "supportsInterface",
      "outputs": [
        {
          "internalType": "bool",
          "name": "",
          "type": "bool"
        }
      ],
      "stateMutability": "view",
      "type": "function"
    },
    {
      "inputs": [
        {
          "internalType": "address",
          "name": "newAdmin",
          "type": "address"
        }
      ],
      "name": "transferAdmin",
      "outputs": [],
      "stateMutability": "nonpayable",
      "type": "function"
    },
    {
      "inputs": [
        {
          "internalType": "uint8",
          "name": "_l2Type",
          "type": "uint8"
        }
      ],
      "name": "viewL2Info",
      "outputs": [
        {
          "components": [
            {
              "internalType": "address",
              "name": "l2TokenFactory",
              "type": "address"
            },
            {
              "internalType": "address",
              "name": "l2ProjectManager",
              "type": "address"
            },
            {
              "internalType": "uint32",
              "name": "depositMinGasLimit",
              "type": "uint32"
            },
            {
              "internalType": "uint32",
              "name": "sendMsgMinGasLimit",
              "type": "uint32"
            }
          ],
          "internalType": "struct LibProject.L2Info",
          "name": "",
          "type": "tuple"
        }
      ],
      "stateMutability": "view",
      "type": "function"
    }
  ],
  "transactionHash": "0xb5332a607efb6b3b050e9f1ca7e9212fc0b5fbe676696bc964e18cb9c4373eba",
  "args": [],
  "numDeployments": 4,
  "solcInputHash": "0f1008e5456f151d0d119cdd18aa6ee1",
  "bytecode": "0x60806040526005805460ff1916600117905534801561001d57600080fd5b50613e378061002d6000396000f3fe608060405234801561001057600080fd5b50600436106101b95760003560e01c806368f52eb3116100f957806391d1485411610097578063b4a35e0f11610071578063b4a35e0f146104ac578063b851550c146104d5578063b911135f146105b6578063d547741f146105df57600080fd5b806391d148541461044b5780639cba984814610484578063a217fddf146104a457600080fd5b806375829def116100d357806375829def1461037a57806375b238fc1461038d578063846fa8f8146103b4578063902293ab146103c757600080fd5b806368f52eb314610341578063704802751461035457806374918e841461036757600080fd5b80632f2ff15d116101665780633bb2d878116101405780633bb2d878146102bd57806350d2a276146102d0578063550d01a31461031157806363a8fd891461033457600080fd5b80632f2ff15d1461028e57806336568abe146102a157806336fbad26146102b457600080fd5b806322985246116101975780632298524614610223578063248a9ca31461025857806324d7806c1461027b57600080fd5b806301ffc9a7146101be578063107046bd146101e65780631785f53c1461020e575b600080fd5b6101d16101cc3660046127b2565b6105f2565b60405190151581526020015b60405180910390f35b6101f96101f43660046127dc565b610629565b6040516101dd99989796959493929190612845565b61022161021c3660046128d8565b610717565b005b61024a7ffb5864e8ff833c3cb2d2d08505e82ff02a43554c74a35d4f5a64e8526127831181565b6040519081526020016101dd565b61024a6102663660046127dc565b60009081526004602052604090206001015490565b6101d16102893660046128d8565b6107a9565b61022161029c3660046128f5565b6107e9565b6102216102af3660046128f5565b610813565b61024a60065481565b6102216102cb366004612ffb565b61089f565b6102f96102de3660046127b2565b6003602052600090815260409020546001600160a01b031681565b6040516001600160a01b0390911681526020016101dd565b6101d161031f3660046128d8565b60026020526000908152604090205460ff1681565b6000546101d19060ff1681565b61022161034f366004613145565b611449565b6102216103623660046128d8565b611857565b61024a6103753660046131ae565b6118e1565b6102216103883660046128d8565b611e17565b61024a7fdf8b4c520ffe197c5343c6f5aec59570151ef9a492f2c624fd45ddde6135ec4281565b6102216103c23660046132e7565b611f79565b6104146103d53660046133a7565b600a60205260009081526040902080546001909101546001600160a01b039182169181169063ffffffff600160a01b8204811691600160c01b90041684565b604080516001600160a01b03958616815294909316602085015263ffffffff918216928401929092521660608201526080016101dd565b6101d16104593660046128f5565b60009182526004602090815260408084206001600160a01b0393909316845291905290205460ff1690565b61024a6104923660046128d8565b60096020526000908152604090205481565b61024a600081565b6102f96104ba3660046133a7565b6007602052600090815260409020546001600160a01b031681565b61056b6104e33660046133a7565b6040805160808101825260008082526020820181905291810182905260608101919091525060ff166000908152600a6020908152604091829020825160808101845281546001600160a01b0390811682526001909201549182169281019290925263ffffffff600160a01b8204811693830193909352600160c01b9004909116606082015290565b6040805182516001600160a01b039081168252602080850151909116908201528282015163ffffffff90811692820192909252606092830151909116918101919091526080016101dd565b6102f96105c43660046127dc565b6001602052600090815260409020546001600160a01b031681565b6102216105ed3660046128f5565b6121e8565b60006001600160e01b03198216637965db0b60e01b148061062357506301ffc9a760e01b6001600160e01b03198316145b92915050565b600860205260009081526040902080546001820154600283015460038401546004850154600586015460068701546007880180546001600160a01b039889169997891698968716979587169690941694929360ff8084169461010090940416929190610694906133c2565b80601f01602080910402602001604051908101604052809291908181526020018280546106c0906133c2565b801561070d5780601f106106e25761010080835404028352916020019161070d565b820191906000526020600020905b8154815290600101906020018083116106f057829003601f168201915b5050505050905089565b610720336107a9565b61077c5760405162461bcd60e51b815260206004820152602260248201527f41636365737369626c653a2043616c6c6572206973206e6f7420616e2061646d60448201526134b760f11b60648201526084015b60405180910390fd5b6107a67fdf8b4c520ffe197c5343c6f5aec59570151ef9a492f2c624fd45ddde6135ec4282610813565b50565b6001600160a01b03811660009081527f2fb794d17134dfdec181ddbac1babb5ab1eb140204ef4d982f294e7fc8b69022602052604081205460ff16610623565b6000828152600460205260409020600101546108048161220d565b61080e8383612217565b505050565b6001600160a01b03811633146108915760405162461bcd60e51b815260206004820152602f60248201527f416363657373436f6e74726f6c3a2063616e206f6e6c792072656e6f756e636560448201527f20726f6c657320666f722073656c6600000000000000000000000000000000006064820152608401610773565b61089b82826122b9565b5050565b846001600160a01b0381166108db5760405162461bcd60e51b81526020600482015260026024820152612d1960f11b6044820152606401610773565b84806000036109115760405162461bcd60e51b81526020600482015260026024820152615a3160f01b6044820152606401610773565b600088815260086020908152604080832081516101208101835281546001600160a01b0390811682526001830154811694820194909452600282015484169281019290925260038101548316606083015260048101549092166080820152600582015460a0820152600682015460ff80821660c0840152610100918290041660e0830152600783018054929392918401916109ab906133c2565b80601f01602080910402602001604051908101604052809291908181526020018280546109d7906133c2565b8015610a245780601f106109f957610100808354040283529160200191610a24565b820191906000526020600020905b815481529060010190602001808311610a0757829003601f168201915b5050509190925250508151919250506001600160a01b031615801590610a53575080516001600160a01b031633145b610a9f5760405162461bcd60e51b815260206004820152601b60248201527f63616c6c6572206973206e6f742070726f6a6563744f776e65722e00000000006044820152606401610773565b60608101516001600160a01b031615610afa5760405162461bcd60e51b815260206004820152601060248201527f616c7265616479206c61756e63686564000000000000000000000000000000006044820152606401610773565b6040808201516001600160a01b03166000908152600960205220548914610b635760405162461bcd60e51b815260206004820152600d60248201527f77726f6e67206c31546f6b656e000000000000000000000000000000000000006044820152606401610773565b608081015160405163507c8bd160e01b81526001600160a01b03909116600482015260009073998210596930Ec4A459c5611A7c151F4DA5a1b399063507c8bd190602401602060405180830381865af4158015610bc4573d6000803e3d6000fd5b505050506040513d601f19601f82011682018060405250810190610be891906133fc565b90506001600160a01b038116610c405760405162461bcd60e51b815260206004820152601a60248201527f6c314d657373656e676572206973205a65726f416464726573730000000000006044820152606401610773565b6000638d96ff3060e01b83604001518b8d8c8c8c8c604051602401610c6b97969594939291906136ba565b604051602081830303815290604052906001600160e01b0319166020820180516001600160e01b03838183161783525050505090506000808073998210596930Ec4A459c5611A7c151F4DA5a1b3963f6266b748c6040518263ffffffff1660e01b8152600401610cdb919061381f565b6040805180830381865af4158015610cf7573d6000803e3d6000fd5b505050506040513d601f19601f82011682018060405250810190610d1b9190613940565b9150915081610d6c5760405162461bcd60e51b815260206004820152601b60248201527f546f6b616d616b5661756c7473207661696c64617465206661696c00000000006044820152606401610773565b610d768184613982565b92508951600014610e665760008073998210596930Ec4A459c5611A7c151F4DA5a1b396308d8b1ac8d6040518263ffffffff1660e01b8152600401610dbb9190613995565b6040805180830381865af4158015610dd7573d6000803e3d6000fd5b505050506040513d601f19601f82011682018060405250810190610dfb9190613940565b9150915081610e575760405162461bcd60e51b815260206004820152602260248201527f637573746f6d5363686564756c655661756c7473207661696c646174652066616044820152611a5b60f21b6064820152608401610773565b610e618186613982565b945050505b895115610f555760008073998210596930Ec4A459c5611A7c151F4DA5a1b3963a95614d68c6040518263ffffffff1660e01b8152600401610ea79190613a18565b6040805180830381865af4158015610ec3573d6000803e3d6000fd5b505050506040513d601f19601f82011682018060405250810190610ee79190613940565b9150915081610f465760405162461bcd60e51b815260206004820152602560248201527f637573746f6d4e6f6e5363686564756c655661756c7473207661696c646174656044820152640819985a5b60da1b6064820152608401610773565b610f508186613982565b945050505b8b8314610fca5760405162461bcd60e51b815260206004820152603560248201527f746f74616c416d6f756e7420697320646966666572656e742066726f6d20766160448201527f756c747320616c6c6f636174656420616d6f756e7400000000000000000000006064820152608401610773565b60008e90508d6008600083815260200190815260200160002060030160006101000a8154816001600160a01b0302191690836001600160a01b031602179055508d87606001906001600160a01b031690816001600160a01b03168152505060006008600083815260200190815260200160002060020160009054906101000a90046001600160a01b03166001600160a01b03166370a08231306040518263ffffffff1660e01b815260040161108e91906001600160a01b0391909116815260200190565b602060405180830381865afa1580156110ab573d6000803e3d6000fd5b505050506040513d601f19601f820116820180604052508101906110cf9190613aa2565b90508760a0015181111580156110eb575060c088015160ff1615155b156111f15787604001516001600160a01b03166340c10f1930838b60a001516111149190613abb565b6040516001600160e01b031960e085901b1681526001600160a01b0390921660048301526024820152604401600060405180830381600087803b15801561115a57600080fd5b505af115801561116e573d6000803e3d6000fd5b505050600083815260086020526040908190206002015490516370a0823160e01b81523060048201526001600160a01b0390911691506370a0823190602401602060405180830381865afa1580156111ca573d6000803e3d6000fd5b505050506040513d601f19601f820116820180604052508101906111ee9190613aa2565b90505b8760a001518110156112455760405162461bcd60e51b815260206004820152601760248201527f62616c616e636520697320696e73756666696369656e740000000000000000006044820152606401610773565b6000600a60008a60e0015160ff1660ff1681526020019081526020016000206040518060800160405290816000820160009054906101000a90046001600160a01b03166001600160a01b03166001600160a01b031681526020016001820160009054906101000a90046001600160a01b03166001600160a01b03166001600160a01b031681526020016001820160149054906101000a900463ffffffff1663ffffffff1663ffffffff1681526020016001820160189054906101000a900463ffffffff1663ffffffff1663ffffffff16815250509050611364308a608001518b604001518c6060015185602001518e60a0015187604001518a60405160200161135091815260200190565b60405160208183030381529060405261233c565b60208101516060820151604051633dbb202b60e01b81526001600160a01b038b1692633dbb202b9261139b928c9190600401613ace565b600060405180830381600087803b1580156113b557600080fd5b505af11580156113c9573d6000803e3d6000fd5b505050507f79fdfe585876a2a3eed99468134317d55495d4fd731029da495b24da1266fa70838a604001518b606001518c60a0015160405161142e94939291909384526001600160a01b03928316602085015291166040830152606082015260800190565b60405180910390a15050505050505050505050505050505050565b836001600160a01b0381166114855760405162461bcd60e51b81526020600482015260026024820152612d1960f11b6044820152606401610773565b836001600160a01b0381166114c15760405162461bcd60e51b81526020600482015260026024820152612d1960f11b6044820152606401610773565b8363ffffffff16806000036114fd5760405162461bcd60e51b81526020600482015260026024820152615a3160f01b6044820152606401610773565b8363ffffffff16806000036115395760405162461bcd60e51b81526020600482015260026024820152615a3160f01b6044820152606401610773565b611542336107a9565b6115995760405162461bcd60e51b815260206004820152602260248201527f41636365737369626c653a2043616c6c6572206973206e6f7420616e2061646d60448201526134b760f11b6064820152608401610773565b600260ff8a16106115ec5760405162461bcd60e51b815260206004820152601260248201527f756e737570706f72746564206c325479706500000000000000000000000000006044820152606401610773565b60ff89166000908152600a60205260409020546001600160a01b03898116911614158061163a575060ff89166000908152600a60205260409020600101546001600160a01b03888116911614155b8061166a575060ff89166000908152600a602052604090206001015463ffffffff878116600160a01b9092041614155b8061169a575060ff89166000908152600a602052604090206001015463ffffffff868116600160c01b9092041614155b6116cf5760405162461bcd60e51b81526004016107739060208082526004908201526373616d6560e01b604082015260600190565b600060405180608001604052808a6001600160a01b03168152602001896001600160a01b031681526020018863ffffffff1681526020018763ffffffff16815250905080600a60008c60ff1660ff16815260200190815260200160002060008201518160000160006101000a8154816001600160a01b0302191690836001600160a01b0316021790555060208201518160010160006101000a8154816001600160a01b0302191690836001600160a01b0316021790555060408201518160010160146101000a81548163ffffffff021916908363ffffffff16021790555060608201518160010160186101000a81548163ffffffff021916908363ffffffff1602179055509050507f5e8ef59fdf78b3376941ed3157b8c3d49139b1f4c1857bf531766c1c1e3a97c98a8a8a8a8a60405161184395949392919060ff9590951685526001600160a01b03938416602086015291909216604084015263ffffffff918216606084015216608082015260a00190565b60405180910390a150505050505050505050565b611860336107a9565b6118b75760405162461bcd60e51b815260206004820152602260248201527f41636365737369626c653a2043616c6c6572206973206e6f7420616e2061646d60448201526134b760f11b6064820152608401610773565b6107a67fdf8b4c520ffe197c5343c6f5aec59570151ef9a492f2c624fd45ddde6135ec42826107e9565b60006001600160a01b0389161580159061190357506001600160a01b03881615155b801561191757506001600160a01b03871615155b6119635760405162461bcd60e51b815260206004820152600c60248201527f7a65726f206164647265737300000000000000000000000000000000000000006044820152606401610773565b83516000036119b45760405162461bcd60e51b815260206004820152601360248201527f70726f6a6563744e616d65206973206e756c6c000000000000000000000000006044820152606401610773565b8251600003611a055760405162461bcd60e51b815260206004820152601160248201527f746f6b656e4e616d65206973206e756c6c0000000000000000000000000000006044820152606401610773565b8151600003611a565760405162461bcd60e51b815260206004820152601360248201527f746f6b656e53796d626f6c206973206e756c6c000000000000000000000000006044820152606401610773565b600460ff8616108015611a83575060ff85166000908152600760205260409020546001600160a01b031615155b611ade5760405162461bcd60e51b815260206004820152602660248201527f77726f6e6720746f6b656e54797065206f72207a65726f206c31546f6b656e466044820152656163746f727960d01b6064820152608401610773565b60ff8516600090815260076020526040808220549051634692ed6760e01b81526001600160a01b0390911690634692ed6790611b2490879087908c903090600401613b06565b6020604051808303816000875af1158015611b43573d6000803e3d6000fd5b505050506040513d601f19601f82011682018060405250810190611b6791906133fc565b90506001600160a01b038116611bbf5760405162461bcd60e51b815260206004820152601160248201527f7a65726f2070726f6a656374546f6b656e0000000000000000000000000000006044820152606401610773565b6000600660008154611bd090613b4c565b91905081905590506040518061012001604052808b6001600160a01b031681526020018c6001600160a01b03168152602001836001600160a01b0316815260200160006001600160a01b031681526020018a6001600160a01b031681526020018981526020018860ff168152602001600060ff168152602001878152506008600083815260200190815260200160002060008201518160000160006101000a8154816001600160a01b0302191690836001600160a01b0316021790555060208201518160010160006101000a8154816001600160a01b0302191690836001600160a01b0316021790555060408201518160020160006101000a8154816001600160a01b0302191690836001600160a01b0316021790555060608201518160030160006101000a8154816001600160a01b0302191690836001600160a01b0316021790555060808201518160040160006101000a8154816001600160a01b0302191690836001600160a01b0316021790555060a0820151816005015560c08201518160060160006101000a81548160ff021916908360ff16021790555060e08201518160060160016101000a81548160ff021916908360ff160217905550610100820151816007019081611da39190613bb3565b5050506001600160a01b03821660009081526009602052604090819020829055517fe6f52bbfc9201025b3af0483a2cb6b38980deee467b4cea0217319cae691d3a390611e0190849084908f908f908f908f908e908e908e90613c73565b60405180910390a19a9950505050505050505050565b611e20336107a9565b611e775760405162461bcd60e51b815260206004820152602260248201527f41636365737369626c653a2043616c6c6572206973206e6f7420616e2061646d60448201526134b760f11b6064820152608401610773565b6001600160a01b038116611ecd5760405162461bcd60e51b815260206004820152601860248201527f41636365737369626c653a207a65726f206164647265737300000000000000006044820152606401610773565b6001600160a01b0381163303611f255760405162461bcd60e51b815260206004820152601660248201527f41636365737369626c653a2073616d652061646d696e000000000000000000006044820152606401610773565b611f4f7fdf8b4c520ffe197c5343c6f5aec59570151ef9a492f2c624fd45ddde6135ec42826107e9565b6107a67fdf8b4c520ffe197c5343c6f5aec59570151ef9a492f2c624fd45ddde6135ec4233610813565b611f82336107a9565b611fd95760405162461bcd60e51b815260206004820152602260248201527f41636365737369626c653a2043616c6c6572206973206e6f7420616e2061646d60448201526134b760f11b6064820152608401610773565b815115801590611fea575080518251145b6120365760405162461bcd60e51b815260206004820152600c60248201527f77726f6e67206c656e67746800000000000000000000000000000000000000006044820152606401610773565b815160005b818110156121e257600460ff1684828151811061205a5761205a613ce5565b602002602001015160ff16106120b25760405162461bcd60e51b815260206004820152601660248201527f756e737570706f7274656420746f6b656e2074797065000000000000000000006044820152606401610773565b8281815181106120c4576120c4613ce5565b60200260200101516001600160a01b0316600760008684815181106120eb576120eb613ce5565b60209081029190910181015160ff168252810191909152604001600020546001600160a01b03160361215f5760405162461bcd60e51b815260206004820152600c60248201527f73616d65206164647265737300000000000000000000000000000000000000006044820152606401610773565b82818151811061217157612171613ce5565b60200260200101516007600086848151811061218f5761218f613ce5565b602002602001015160ff1660ff16815260200190815260200160002060006101000a8154816001600160a01b0302191690836001600160a01b0316021790555080806121da90613b4c565b91505061203b565b50505050565b6000828152600460205260409020600101546122038161220d565b61080e83836122b9565b6107a6813361257b565b60008281526004602090815260408083206001600160a01b038516845290915290205460ff1661089b5760008281526004602090815260408083206001600160a01b03851684529091529020805460ff191660011790556122753390565b6001600160a01b0316816001600160a01b0316837f2f8788117e7eff1d82e926ec794901d17c78024a50270940304540a733656f0d60405160405180910390a45050565b60008281526004602090815260408083206001600160a01b038516845290915290205460ff161561089b5760008281526004602090815260408083206001600160a01b0385168085529252808320805460ff1916905551339285917ff6391f5c32d9c69d2a47ea670b442974b53935d1edc7fd64eb21e047a839171b9190a45050565b604051639da3176160e01b81526001600160a01b038816600482015260009073998210596930Ec4A459c5611A7c151F4DA5a1b3990639da3176190602401602060405180830381865af4158015612397573d6000803e3d6000fd5b505050506040513d601f19601f820116820180604052508101906123bb91906133fc565b90506001600160a01b0381166124135760405162461bcd60e51b815260206004820152601760248201527f6c31427269646765206973205a65726f416464726573730000000000000000006044820152606401610773565b604051636eb1769f60e11b81523060048201526001600160a01b0382811660248301526000919089169063dd62ed3e90604401602060405180830381865afa158015612463573d6000803e3d6000fd5b505050506040513d601f19601f820116820180604052508101906124879190613aa2565b9050848110156125075760405163095ea7b360e01b81526001600160a01b038381166004830152600019602483015289169063095ea7b3906044016020604051808303816000875af11580156124e1573d6000803e3d6000fd5b505050506040513d601f19601f820116820180604052508101906125059190613cfb565b505b60405163041c592960e51b81526001600160a01b0383169063838b25209061253d908b908b908b908b908b908b90600401613d16565b600060405180830381600087803b15801561255757600080fd5b505af115801561256b573d6000803e3d6000fd5b5050505050505050505050505050565b60008281526004602090815260408083206001600160a01b038516845290915290205460ff1661089b576125ae816125f0565b6125b9836020612602565b6040516020016125ca929190613d68565b60408051601f198184030181529082905262461bcd60e51b825261077391600401613de9565b60606106236001600160a01b03831660145b60606000612611836002613dfc565b61261c906002613982565b67ffffffffffffffff81111561263457612634612925565b6040519080825280601f01601f19166020018201604052801561265e576020820181803683370190505b509050600360fc1b8160008151811061267957612679613ce5565b60200101906001600160f81b031916908160001a905350600f60fb1b816001815181106126a8576126a8613ce5565b60200101906001600160f81b031916908160001a90535060006126cc846002613dfc565b6126d7906001613982565b90505b600181111561275c577f303132333435363738396162636465660000000000000000000000000000000085600f166010811061271857612718613ce5565b1a60f81b82828151811061272e5761272e613ce5565b60200101906001600160f81b031916908160001a90535060049490941c9361275581613e13565b90506126da565b5083156127ab5760405162461bcd60e51b815260206004820181905260248201527f537472696e67733a20686578206c656e67746820696e73756666696369656e746044820152606401610773565b9392505050565b6000602082840312156127c457600080fd5b81356001600160e01b0319811681146127ab57600080fd5b6000602082840312156127ee57600080fd5b5035919050565b60005b838110156128105781810151838201526020016127f8565b50506000910152565b600081518084526128318160208601602086016127f5565b601f01601f19169290920160200192915050565b60006101206001600160a01b03808d168452808c166020850152808b166040850152808a1660608501528089166080850152508660a084015260ff861660c084015260ff851660e0840152806101008401526128a381840185612819565b9c9b505050505050505050505050565b6001600160a01b03811681146107a657600080fd5b80356128d3816128b3565b919050565b6000602082840312156128ea57600080fd5b81356127ab816128b3565b6000806040838503121561290857600080fd5b82359150602083013561291a816128b3565b809150509250929050565b634e487b7160e01b600052604160045260246000fd5b6040805190810167ffffffffffffffff8111828210171561295e5761295e612925565b60405290565b6040516102c0810167ffffffffffffffff8111828210171561295e5761295e612925565b60405160c0810167ffffffffffffffff8111828210171561295e5761295e612925565b6040516060810167ffffffffffffffff8111828210171561295e5761295e612925565b604051601f8201601f1916810167ffffffffffffffff811182821017156129f7576129f7612925565b604052919050565b600067ffffffffffffffff821115612a1957612a19612925565b5060051b60200190565b600082601f830112612a3457600080fd5b81356020612a49612a44836129ff565b6129ce565b82815260059290921b84018101918181019086841115612a6857600080fd5b8286015b84811015612a835780358352918301918301612a6c565b509695505050505050565b600060408284031215612aa057600080fd5b612aa861293b565b9050813567ffffffffffffffff80821115612ac257600080fd5b612ace85838601612a23565b83526020840135915080821115612ae457600080fd5b50612af184828501612a23565b60208301525092915050565b60008183036102e0811215612b1157600080fd5b612b1961293b565b91506102c080821215612b2b57600080fd5b612b33612964565b843581526020808601359082015260408086013590820152606080860135908201526080808601359082015260a0808601359082015260c0808601359082015260e08086013590820152610100808601359082015261012080860135908201526101408086013590820152610160808601359082015261018080860135908201526101a080860135908201526101c080860135908201526101e08086013590820152610200808601359082015261022080860135908201526102408086013590820152610260808601359082015261028080860135908201526102a080860135908201528352830135905067ffffffffffffffff811115612c3357600080fd5b612af184828501612a8e565b803563ffffffff811681146128d357600080fd5b600060c08284031215612c6557600080fd5b612c6d612988565b905081358152602082013560208201526040820135604082015260608201356060820152612c9d60808301612c3f565b608082015260a082013561ffff81168114612cb757600080fd5b60a082015292915050565b600060e08284031215612cd457600080fd5b60405160e0810181811067ffffffffffffffff82111715612cf757612cf7612925565b6040529050808235612d08816128b3565b80825250602083013560208201526040830135604082015260608301356060820152612d3660808401612c3f565b6080820152612d4760a08401612c3f565b60a0820152612d5860c08401612c3f565b60c08201525092915050565b6000818303610140811215612d7857600080fd5b612d8061293b565b91506060811215612d9057600080fd5b50612d996129ab565b8235612da4816128b3565b81526020830135612db4816128b3565b6020820152604083013562ffffff81168114612dcf57600080fd5b60408201528152612de38360608401612cc2565b602082015292915050565b600082601f830112612dff57600080fd5b813567ffffffffffffffff811115612e1957612e19612925565b612e2c601f8201601f19166020016129ce565b818152846020838601011115612e4157600080fd5b816020850160208301376000918101602001919091529392505050565b600082601f830112612e6f57600080fd5b81356020612e7f612a44836129ff565b82815260059290921b84018101918181019086841115612e9e57600080fd5b8286015b84811015612a8357803567ffffffffffffffff80821115612ec35760008081fd5b90880190610100828b03601f19011215612edd5760008081fd5b612ee561293b565b8683013582811115612ef75760008081fd5b612f058c8983870101612dee565b825250612f158b60408501612cc2565b8188015285525050918301918301612ea2565b600082601f830112612f3957600080fd5b81356020612f49612a44836129ff565b82815260059290921b84018101918181019086841115612f6857600080fd5b8286015b84811015612a8357803567ffffffffffffffff80821115612f8d5760008081fd5b908801906060828b03601f1901811315612fa75760008081fd5b612faf6129ab565b8784013583811115612fc15760008081fd5b612fcf8d8a83880101612dee565b8252506040925082840135612fe3816128b3565b81890152920135908201528352918301918301612f6c565b60008060008060008060c0878903121561301457600080fd5b863595506020870135613026816128b3565b945060408701359350606087013567ffffffffffffffff8082111561304a57600080fd5b90880190610520828b03121561305f57600080fd5b613067612988565b82358281111561307657600080fd5b6130828c828601612afd565b8252506130928b60208501612c53565b60208201526130a48b60e08501612d64565b60408201526130b78b6102208501612d64565b60608201526130ca8b6103608501612cc2565b60808201526130dd8b6104408501612cc2565b60a0820152945060808901359150808211156130f857600080fd5b6131048a838b01612e5e565b935060a089013591508082111561311a57600080fd5b5061312789828a01612f28565b9150509295509295509295565b803560ff811681146128d357600080fd5b600080600080600060a0868803121561315d57600080fd5b61316686613134565b94506020860135613176816128b3565b93506040860135613186816128b3565b925061319460608701612c3f565b91506131a260808701612c3f565b90509295509295909350565b600080600080600080600080610100898b0312156131cb57600080fd5b6131d4896128c8565b97506131e260208a016128c8565b96506131f060408a016128c8565b95506060890135945061320560808a01613134565b935060a089013567ffffffffffffffff8082111561322257600080fd5b61322e8c838d01612dee565b945060c08b013591508082111561324457600080fd5b6132508c838d01612dee565b935060e08b013591508082111561326657600080fd5b506132738b828c01612dee565b9150509295985092959890939650565b600082601f83011261329457600080fd5b813560206132a4612a44836129ff565b82815260059290921b840181019181810190868411156132c357600080fd5b8286015b84811015612a835780356132da816128b3565b83529183019183016132c7565b600080604083850312156132fa57600080fd5b823567ffffffffffffffff8082111561331257600080fd5b818501915085601f83011261332657600080fd5b81356020613336612a44836129ff565b82815260059290921b8401810191818101908984111561335557600080fd5b948201945b8386101561337a5761336b86613134565b8252948201949082019061335a565b9650508601359250508082111561339057600080fd5b5061339d85828601613283565b9150509250929050565b6000602082840312156133b957600080fd5b6127ab82613134565b600181811c908216806133d657607f821691505b6020821081036133f657634e487b7160e01b600052602260045260246000fd5b50919050565b60006020828403121561340e57600080fd5b81516127ab816128b3565b805182526020808201519083015260408082015190830152606080820151908301526080808201519083015260a0808201519083015260c0808201519083015260e08082015190830152610100808201519083015261012080820151908301526101408082015190830152610160808201519083015261018080820151908301526101a080820151908301526101c080820151908301526101e08082015190830152610200808201519083015261022080820151908301526102408082015190830152610260808201519083015261028080820151908301526102a090810151910152565b600081518084526020808501945080840160005b8381101561352e57815187529582019590820190600101613512565b509495945050505050565b6001600160a01b038151168252602081015160208301526040810151604083015260608101516060830152608081015163ffffffff80821660808501528060a08401511660a08501528060c08401511660c085015250505050565b80516001600160a01b038082511684528060208301511660208501525062ffffff604082015116604084015250602081015161080e6060840182613539565b600081518084526020808501808196508360051b8101915082860160005b8581101561363c5782840389528151610100815181875261361482880182612819565b91505086820151915061362987870183613539565b99860199945050908401906001016135f1565b5091979650505050505050565b600081518084526020808501808196508360051b8101915082860160005b8581101561363c57828403895281516060815181875261368982880182612819565b838901516001600160a01b0316888a0152604093840151939097019290925250509784019790840190600101613667565b60006001600160a01b03808a16835280891660208401525086604083015285606083015260e0608083015284516105208060e08501526136ff61060085018351613419565b602082015191506102e06108c0850152815160406108e08601526137276109208601826134fe565b9050602083015192506108df198582030161090086015261374881846134fe565b60208981015180516101008901529081015161012088015260408101516101408801526060810151610160880152608081015163ffffffff1661018088015260a081015161ffff166101a088015290935090505060408701516137af6101c0860182613594565b5060608701516137c3610300860182613594565b5060808701516137d7610440860182613539565b5060a08701516137e982860182613539565b505082810360a08401526137fd81866135d3565b905082810360c08401526138118185613649565b9a9950505050505050505050565b6020815260008251610520602084015261383e61054084018251613419565b602001516102e0610800840152805160406108208501526138636108608501826134fe565b90506020820151915061081f198482030161084085015261388481836134fe565b91505060208401516138d860408501828051825260208101516020830152604081015160408301526060810151606083015263ffffffff608082015116608083015261ffff60a08201511660a08301525050565b5060408401516138ec610100850182613594565b506060840151613900610240850182613594565b506080840151613914610380850182613539565b5060a0840151613928610460850182613539565b509392505050565b805180151581146128d357600080fd5b6000806040838503121561395357600080fd5b61395c83613930565b9150602083015190509250929050565b634e487b7160e01b600052601160045260246000fd5b808201808211156106235761062361396c565b6000602080830181845280855180835260408601915060408160051b870101925083870160005b82811015613a0b57603f19888603018452815161010081518188526139e382890182612819565b9150508782015191506139f888880183613539565b95505092850192908501906001016139bc565b5092979650505050505050565b60006020808301818452808551808352604092508286019150828160051b87010184880160005b83811015613a9457603f19898403018552815160608151818652613a6582870182612819565b838b01516001600160a01b0316878c015292890151958901959095525094870194925090860190600101613a3f565b509098975050505050505050565b600060208284031215613ab457600080fd5b5051919050565b818103818111156106235761062361396c565b6001600160a01b0384168152606060208201526000613af06060830185612819565b905063ffffffff83166040830152949350505050565b608081526000613b196080830187612819565b8281036020840152613b2b8187612819565b9150508360408301526001600160a01b038316606083015295945050505050565b600060018201613b5e57613b5e61396c565b5060010190565b601f82111561080e57600081815260208120601f850160051c81016020861015613b8c5750805b601f850160051c820191505b81811015613bab57828155600101613b98565b505050505050565b815167ffffffffffffffff811115613bcd57613bcd612925565b613be181613bdb84546133c2565b84613b65565b602080601f831160018114613c165760008415613bfe5750858301515b600019600386901b1c1916600185901b178555613bab565b600085815260208120601f198616915b82811015613c4557888601518255948401946001909101908401613c26565b5085821015613c635787850151600019600388901b60f8161c191681555b5050505050600190811b01905550565b60006101206001600160a01b03808d1684528b6020850152808b166040850152808a1660608501528089166080850152508660a08401528060c0840152613cbc81840187612819565b905082810360e0840152613cd08186612819565b90508281036101008401526128a38185612819565b634e487b7160e01b600052603260045260246000fd5b600060208284031215613d0d57600080fd5b6127ab82613930565b60006001600160a01b038089168352808816602084015280871660408401525084606083015263ffffffff8416608083015260c060a0830152613d5c60c0830184612819565b98975050505050505050565b7f416363657373436f6e74726f6c3a206163636f756e7420000000000000000000815260008351613da08160178501602088016127f5565b7f206973206d697373696e6720726f6c65200000000000000000000000000000006017918401918201528351613ddd8160288401602088016127f5565b01602801949350505050565b6020815260006127ab6020830184612819565b80820281158282048414176106235761062361396c565b600081613e2257613e2261396c565b50600019019056fea164736f6c6343000812000a",
  "deployedBytecode": "0x608060405234801561001057600080fd5b50600436106101b95760003560e01c806368f52eb3116100f957806391d1485411610097578063b4a35e0f11610071578063b4a35e0f146104ac578063b851550c146104d5578063b911135f146105b6578063d547741f146105df57600080fd5b806391d148541461044b5780639cba984814610484578063a217fddf146104a457600080fd5b806375829def116100d357806375829def1461037a57806375b238fc1461038d578063846fa8f8146103b4578063902293ab146103c757600080fd5b806368f52eb314610341578063704802751461035457806374918e841461036757600080fd5b80632f2ff15d116101665780633bb2d878116101405780633bb2d878146102bd57806350d2a276146102d0578063550d01a31461031157806363a8fd891461033457600080fd5b80632f2ff15d1461028e57806336568abe146102a157806336fbad26146102b457600080fd5b806322985246116101975780632298524614610223578063248a9ca31461025857806324d7806c1461027b57600080fd5b806301ffc9a7146101be578063107046bd146101e65780631785f53c1461020e575b600080fd5b6101d16101cc3660046127b2565b6105f2565b60405190151581526020015b60405180910390f35b6101f96101f43660046127dc565b610629565b6040516101dd99989796959493929190612845565b61022161021c3660046128d8565b610717565b005b61024a7ffb5864e8ff833c3cb2d2d08505e82ff02a43554c74a35d4f5a64e8526127831181565b6040519081526020016101dd565b61024a6102663660046127dc565b60009081526004602052604090206001015490565b6101d16102893660046128d8565b6107a9565b61022161029c3660046128f5565b6107e9565b6102216102af3660046128f5565b610813565b61024a60065481565b6102216102cb366004612ffb565b61089f565b6102f96102de3660046127b2565b6003602052600090815260409020546001600160a01b031681565b6040516001600160a01b0390911681526020016101dd565b6101d161031f3660046128d8565b60026020526000908152604090205460ff1681565b6000546101d19060ff1681565b61022161034f366004613145565b611449565b6102216103623660046128d8565b611857565b61024a6103753660046131ae565b6118e1565b6102216103883660046128d8565b611e17565b61024a7fdf8b4c520ffe197c5343c6f5aec59570151ef9a492f2c624fd45ddde6135ec4281565b6102216103c23660046132e7565b611f79565b6104146103d53660046133a7565b600a60205260009081526040902080546001909101546001600160a01b039182169181169063ffffffff600160a01b8204811691600160c01b90041684565b604080516001600160a01b03958616815294909316602085015263ffffffff918216928401929092521660608201526080016101dd565b6101d16104593660046128f5565b60009182526004602090815260408084206001600160a01b0393909316845291905290205460ff1690565b61024a6104923660046128d8565b60096020526000908152604090205481565b61024a600081565b6102f96104ba3660046133a7565b6007602052600090815260409020546001600160a01b031681565b61056b6104e33660046133a7565b6040805160808101825260008082526020820181905291810182905260608101919091525060ff166000908152600a6020908152604091829020825160808101845281546001600160a01b0390811682526001909201549182169281019290925263ffffffff600160a01b8204811693830193909352600160c01b9004909116606082015290565b6040805182516001600160a01b039081168252602080850151909116908201528282015163ffffffff90811692820192909252606092830151909116918101919091526080016101dd565b6102f96105c43660046127dc565b6001602052600090815260409020546001600160a01b031681565b6102216105ed3660046128f5565b6121e8565b60006001600160e01b03198216637965db0b60e01b148061062357506301ffc9a760e01b6001600160e01b03198316145b92915050565b600860205260009081526040902080546001820154600283015460038401546004850154600586015460068701546007880180546001600160a01b039889169997891698968716979587169690941694929360ff8084169461010090940416929190610694906133c2565b80601f01602080910402602001604051908101604052809291908181526020018280546106c0906133c2565b801561070d5780601f106106e25761010080835404028352916020019161070d565b820191906000526020600020905b8154815290600101906020018083116106f057829003601f168201915b5050505050905089565b610720336107a9565b61077c5760405162461bcd60e51b815260206004820152602260248201527f41636365737369626c653a2043616c6c6572206973206e6f7420616e2061646d60448201526134b760f11b60648201526084015b60405180910390fd5b6107a67fdf8b4c520ffe197c5343c6f5aec59570151ef9a492f2c624fd45ddde6135ec4282610813565b50565b6001600160a01b03811660009081527f2fb794d17134dfdec181ddbac1babb5ab1eb140204ef4d982f294e7fc8b69022602052604081205460ff16610623565b6000828152600460205260409020600101546108048161220d565b61080e8383612217565b505050565b6001600160a01b03811633146108915760405162461bcd60e51b815260206004820152602f60248201527f416363657373436f6e74726f6c3a2063616e206f6e6c792072656e6f756e636560448201527f20726f6c657320666f722073656c6600000000000000000000000000000000006064820152608401610773565b61089b82826122b9565b5050565b846001600160a01b0381166108db5760405162461bcd60e51b81526020600482015260026024820152612d1960f11b6044820152606401610773565b84806000036109115760405162461bcd60e51b81526020600482015260026024820152615a3160f01b6044820152606401610773565b600088815260086020908152604080832081516101208101835281546001600160a01b0390811682526001830154811694820194909452600282015484169281019290925260038101548316606083015260048101549092166080820152600582015460a0820152600682015460ff80821660c0840152610100918290041660e0830152600783018054929392918401916109ab906133c2565b80601f01602080910402602001604051908101604052809291908181526020018280546109d7906133c2565b8015610a245780601f106109f957610100808354040283529160200191610a24565b820191906000526020600020905b815481529060010190602001808311610a0757829003601f168201915b5050509190925250508151919250506001600160a01b031615801590610a53575080516001600160a01b031633145b610a9f5760405162461bcd60e51b815260206004820152601b60248201527f63616c6c6572206973206e6f742070726f6a6563744f776e65722e00000000006044820152606401610773565b60608101516001600160a01b031615610afa5760405162461bcd60e51b815260206004820152601060248201527f616c7265616479206c61756e63686564000000000000000000000000000000006044820152606401610773565b6040808201516001600160a01b03166000908152600960205220548914610b635760405162461bcd60e51b815260206004820152600d60248201527f77726f6e67206c31546f6b656e000000000000000000000000000000000000006044820152606401610773565b608081015160405163507c8bd160e01b81526001600160a01b03909116600482015260009073__$b2d160aea0e65d5e83164dd2e3c22b89ec$__9063507c8bd190602401602060405180830381865af4158015610bc4573d6000803e3d6000fd5b505050506040513d601f19601f82011682018060405250810190610be891906133fc565b90506001600160a01b038116610c405760405162461bcd60e51b815260206004820152601a60248201527f6c314d657373656e676572206973205a65726f416464726573730000000000006044820152606401610773565b6000638d96ff3060e01b83604001518b8d8c8c8c8c604051602401610c6b97969594939291906136ba565b604051602081830303815290604052906001600160e01b0319166020820180516001600160e01b03838183161783525050505090506000808073__$b2d160aea0e65d5e83164dd2e3c22b89ec$__63f6266b748c6040518263ffffffff1660e01b8152600401610cdb919061381f565b6040805180830381865af4158015610cf7573d6000803e3d6000fd5b505050506040513d601f19601f82011682018060405250810190610d1b9190613940565b9150915081610d6c5760405162461bcd60e51b815260206004820152601b60248201527f546f6b616d616b5661756c7473207661696c64617465206661696c00000000006044820152606401610773565b610d768184613982565b92508951600014610e665760008073__$b2d160aea0e65d5e83164dd2e3c22b89ec$__6308d8b1ac8d6040518263ffffffff1660e01b8152600401610dbb9190613995565b6040805180830381865af4158015610dd7573d6000803e3d6000fd5b505050506040513d601f19601f82011682018060405250810190610dfb9190613940565b9150915081610e575760405162461bcd60e51b815260206004820152602260248201527f637573746f6d5363686564756c655661756c7473207661696c646174652066616044820152611a5b60f21b6064820152608401610773565b610e618186613982565b945050505b895115610f555760008073__$b2d160aea0e65d5e83164dd2e3c22b89ec$__63a95614d68c6040518263ffffffff1660e01b8152600401610ea79190613a18565b6040805180830381865af4158015610ec3573d6000803e3d6000fd5b505050506040513d601f19601f82011682018060405250810190610ee79190613940565b9150915081610f465760405162461bcd60e51b815260206004820152602560248201527f637573746f6d4e6f6e5363686564756c655661756c7473207661696c646174656044820152640819985a5b60da1b6064820152608401610773565b610f508186613982565b945050505b8b8314610fca5760405162461bcd60e51b815260206004820152603560248201527f746f74616c416d6f756e7420697320646966666572656e742066726f6d20766160448201527f756c747320616c6c6f636174656420616d6f756e7400000000000000000000006064820152608401610773565b60008e90508d6008600083815260200190815260200160002060030160006101000a8154816001600160a01b0302191690836001600160a01b031602179055508d87606001906001600160a01b031690816001600160a01b03168152505060006008600083815260200190815260200160002060020160009054906101000a90046001600160a01b03166001600160a01b03166370a08231306040518263ffffffff1660e01b815260040161108e91906001600160a01b0391909116815260200190565b602060405180830381865afa1580156110ab573d6000803e3d6000fd5b505050506040513d601f19601f820116820180604052508101906110cf9190613aa2565b90508760a0015181111580156110eb575060c088015160ff1615155b156111f15787604001516001600160a01b03166340c10f1930838b60a001516111149190613abb565b6040516001600160e01b031960e085901b1681526001600160a01b0390921660048301526024820152604401600060405180830381600087803b15801561115a57600080fd5b505af115801561116e573d6000803e3d6000fd5b505050600083815260086020526040908190206002015490516370a0823160e01b81523060048201526001600160a01b0390911691506370a0823190602401602060405180830381865afa1580156111ca573d6000803e3d6000fd5b505050506040513d601f19601f820116820180604052508101906111ee9190613aa2565b90505b8760a001518110156112455760405162461bcd60e51b815260206004820152601760248201527f62616c616e636520697320696e73756666696369656e740000000000000000006044820152606401610773565b6000600a60008a60e0015160ff1660ff1681526020019081526020016000206040518060800160405290816000820160009054906101000a90046001600160a01b03166001600160a01b03166001600160a01b031681526020016001820160009054906101000a90046001600160a01b03166001600160a01b03166001600160a01b031681526020016001820160149054906101000a900463ffffffff1663ffffffff1663ffffffff1681526020016001820160189054906101000a900463ffffffff1663ffffffff1663ffffffff16815250509050611364308a608001518b604001518c6060015185602001518e60a0015187604001518a60405160200161135091815260200190565b60405160208183030381529060405261233c565b60208101516060820151604051633dbb202b60e01b81526001600160a01b038b1692633dbb202b9261139b928c9190600401613ace565b600060405180830381600087803b1580156113b557600080fd5b505af11580156113c9573d6000803e3d6000fd5b505050507f79fdfe585876a2a3eed99468134317d55495d4fd731029da495b24da1266fa70838a604001518b606001518c60a0015160405161142e94939291909384526001600160a01b03928316602085015291166040830152606082015260800190565b60405180910390a15050505050505050505050505050505050565b836001600160a01b0381166114855760405162461bcd60e51b81526020600482015260026024820152612d1960f11b6044820152606401610773565b836001600160a01b0381166114c15760405162461bcd60e51b81526020600482015260026024820152612d1960f11b6044820152606401610773565b8363ffffffff16806000036114fd5760405162461bcd60e51b81526020600482015260026024820152615a3160f01b6044820152606401610773565b8363ffffffff16806000036115395760405162461bcd60e51b81526020600482015260026024820152615a3160f01b6044820152606401610773565b611542336107a9565b6115995760405162461bcd60e51b815260206004820152602260248201527f41636365737369626c653a2043616c6c6572206973206e6f7420616e2061646d60448201526134b760f11b6064820152608401610773565b600260ff8a16106115ec5760405162461bcd60e51b815260206004820152601260248201527f756e737570706f72746564206c325479706500000000000000000000000000006044820152606401610773565b60ff89166000908152600a60205260409020546001600160a01b03898116911614158061163a575060ff89166000908152600a60205260409020600101546001600160a01b03888116911614155b8061166a575060ff89166000908152600a602052604090206001015463ffffffff878116600160a01b9092041614155b8061169a575060ff89166000908152600a602052604090206001015463ffffffff868116600160c01b9092041614155b6116cf5760405162461bcd60e51b81526004016107739060208082526004908201526373616d6560e01b604082015260600190565b600060405180608001604052808a6001600160a01b03168152602001896001600160a01b031681526020018863ffffffff1681526020018763ffffffff16815250905080600a60008c60ff1660ff16815260200190815260200160002060008201518160000160006101000a8154816001600160a01b0302191690836001600160a01b0316021790555060208201518160010160006101000a8154816001600160a01b0302191690836001600160a01b0316021790555060408201518160010160146101000a81548163ffffffff021916908363ffffffff16021790555060608201518160010160186101000a81548163ffffffff021916908363ffffffff1602179055509050507f5e8ef59fdf78b3376941ed3157b8c3d49139b1f4c1857bf531766c1c1e3a97c98a8a8a8a8a60405161184395949392919060ff9590951685526001600160a01b03938416602086015291909216604084015263ffffffff918216606084015216608082015260a00190565b60405180910390a150505050505050505050565b611860336107a9565b6118b75760405162461bcd60e51b815260206004820152602260248201527f41636365737369626c653a2043616c6c6572206973206e6f7420616e2061646d60448201526134b760f11b6064820152608401610773565b6107a67fdf8b4c520ffe197c5343c6f5aec59570151ef9a492f2c624fd45ddde6135ec42826107e9565b60006001600160a01b0389161580159061190357506001600160a01b03881615155b801561191757506001600160a01b03871615155b6119635760405162461bcd60e51b815260206004820152600c60248201527f7a65726f206164647265737300000000000000000000000000000000000000006044820152606401610773565b83516000036119b45760405162461bcd60e51b815260206004820152601360248201527f70726f6a6563744e616d65206973206e756c6c000000000000000000000000006044820152606401610773565b8251600003611a055760405162461bcd60e51b815260206004820152601160248201527f746f6b656e4e616d65206973206e756c6c0000000000000000000000000000006044820152606401610773565b8151600003611a565760405162461bcd60e51b815260206004820152601360248201527f746f6b656e53796d626f6c206973206e756c6c000000000000000000000000006044820152606401610773565b600460ff8616108015611a83575060ff85166000908152600760205260409020546001600160a01b031615155b611ade5760405162461bcd60e51b815260206004820152602660248201527f77726f6e6720746f6b656e54797065206f72207a65726f206c31546f6b656e466044820152656163746f727960d01b6064820152608401610773565b60ff8516600090815260076020526040808220549051634692ed6760e01b81526001600160a01b0390911690634692ed6790611b2490879087908c903090600401613b06565b6020604051808303816000875af1158015611b43573d6000803e3d6000fd5b505050506040513d601f19601f82011682018060405250810190611b6791906133fc565b90506001600160a01b038116611bbf5760405162461bcd60e51b815260206004820152601160248201527f7a65726f2070726f6a656374546f6b656e0000000000000000000000000000006044820152606401610773565b6000600660008154611bd090613b4c565b91905081905590506040518061012001604052808b6001600160a01b031681526020018c6001600160a01b03168152602001836001600160a01b0316815260200160006001600160a01b031681526020018a6001600160a01b031681526020018981526020018860ff168152602001600060ff168152602001878152506008600083815260200190815260200160002060008201518160000160006101000a8154816001600160a01b0302191690836001600160a01b0316021790555060208201518160010160006101000a8154816001600160a01b0302191690836001600160a01b0316021790555060408201518160020160006101000a8154816001600160a01b0302191690836001600160a01b0316021790555060608201518160030160006101000a8154816001600160a01b0302191690836001600160a01b0316021790555060808201518160040160006101000a8154816001600160a01b0302191690836001600160a01b0316021790555060a0820151816005015560c08201518160060160006101000a81548160ff021916908360ff16021790555060e08201518160060160016101000a81548160ff021916908360ff160217905550610100820151816007019081611da39190613bb3565b5050506001600160a01b03821660009081526009602052604090819020829055517fe6f52bbfc9201025b3af0483a2cb6b38980deee467b4cea0217319cae691d3a390611e0190849084908f908f908f908f908e908e908e90613c73565b60405180910390a19a9950505050505050505050565b611e20336107a9565b611e775760405162461bcd60e51b815260206004820152602260248201527f41636365737369626c653a2043616c6c6572206973206e6f7420616e2061646d60448201526134b760f11b6064820152608401610773565b6001600160a01b038116611ecd5760405162461bcd60e51b815260206004820152601860248201527f41636365737369626c653a207a65726f206164647265737300000000000000006044820152606401610773565b6001600160a01b0381163303611f255760405162461bcd60e51b815260206004820152601660248201527f41636365737369626c653a2073616d652061646d696e000000000000000000006044820152606401610773565b611f4f7fdf8b4c520ffe197c5343c6f5aec59570151ef9a492f2c624fd45ddde6135ec42826107e9565b6107a67fdf8b4c520ffe197c5343c6f5aec59570151ef9a492f2c624fd45ddde6135ec4233610813565b611f82336107a9565b611fd95760405162461bcd60e51b815260206004820152602260248201527f41636365737369626c653a2043616c6c6572206973206e6f7420616e2061646d60448201526134b760f11b6064820152608401610773565b815115801590611fea575080518251145b6120365760405162461bcd60e51b815260206004820152600c60248201527f77726f6e67206c656e67746800000000000000000000000000000000000000006044820152606401610773565b815160005b818110156121e257600460ff1684828151811061205a5761205a613ce5565b602002602001015160ff16106120b25760405162461bcd60e51b815260206004820152601660248201527f756e737570706f7274656420746f6b656e2074797065000000000000000000006044820152606401610773565b8281815181106120c4576120c4613ce5565b60200260200101516001600160a01b0316600760008684815181106120eb576120eb613ce5565b60209081029190910181015160ff168252810191909152604001600020546001600160a01b03160361215f5760405162461bcd60e51b815260206004820152600c60248201527f73616d65206164647265737300000000000000000000000000000000000000006044820152606401610773565b82818151811061217157612171613ce5565b60200260200101516007600086848151811061218f5761218f613ce5565b602002602001015160ff1660ff16815260200190815260200160002060006101000a8154816001600160a01b0302191690836001600160a01b0316021790555080806121da90613b4c565b91505061203b565b50505050565b6000828152600460205260409020600101546122038161220d565b61080e83836122b9565b6107a6813361257b565b60008281526004602090815260408083206001600160a01b038516845290915290205460ff1661089b5760008281526004602090815260408083206001600160a01b03851684529091529020805460ff191660011790556122753390565b6001600160a01b0316816001600160a01b0316837f2f8788117e7eff1d82e926ec794901d17c78024a50270940304540a733656f0d60405160405180910390a45050565b60008281526004602090815260408083206001600160a01b038516845290915290205460ff161561089b5760008281526004602090815260408083206001600160a01b0385168085529252808320805460ff1916905551339285917ff6391f5c32d9c69d2a47ea670b442974b53935d1edc7fd64eb21e047a839171b9190a45050565b604051639da3176160e01b81526001600160a01b038816600482015260009073__$b2d160aea0e65d5e83164dd2e3c22b89ec$__90639da3176190602401602060405180830381865af4158015612397573d6000803e3d6000fd5b505050506040513d601f19601f820116820180604052508101906123bb91906133fc565b90506001600160a01b0381166124135760405162461bcd60e51b815260206004820152601760248201527f6c31427269646765206973205a65726f416464726573730000000000000000006044820152606401610773565b604051636eb1769f60e11b81523060048201526001600160a01b0382811660248301526000919089169063dd62ed3e90604401602060405180830381865afa158015612463573d6000803e3d6000fd5b505050506040513d601f19601f820116820180604052508101906124879190613aa2565b9050848110156125075760405163095ea7b360e01b81526001600160a01b038381166004830152600019602483015289169063095ea7b3906044016020604051808303816000875af11580156124e1573d6000803e3d6000fd5b505050506040513d601f19601f820116820180604052508101906125059190613cfb565b505b60405163041c592960e51b81526001600160a01b0383169063838b25209061253d908b908b908b908b908b908b90600401613d16565b600060405180830381600087803b15801561255757600080fd5b505af115801561256b573d6000803e3d6000fd5b5050505050505050505050505050565b60008281526004602090815260408083206001600160a01b038516845290915290205460ff1661089b576125ae816125f0565b6125b9836020612602565b6040516020016125ca929190613d68565b60408051601f198184030181529082905262461bcd60e51b825261077391600401613de9565b60606106236001600160a01b03831660145b60606000612611836002613dfc565b61261c906002613982565b67ffffffffffffffff81111561263457612634612925565b6040519080825280601f01601f19166020018201604052801561265e576020820181803683370190505b509050600360fc1b8160008151811061267957612679613ce5565b60200101906001600160f81b031916908160001a905350600f60fb1b816001815181106126a8576126a8613ce5565b60200101906001600160f81b031916908160001a90535060006126cc846002613dfc565b6126d7906001613982565b90505b600181111561275c577f303132333435363738396162636465660000000000000000000000000000000085600f166010811061271857612718613ce5565b1a60f81b82828151811061272e5761272e613ce5565b60200101906001600160f81b031916908160001a90535060049490941c9361275581613e13565b90506126da565b5083156127ab5760405162461bcd60e51b815260206004820181905260248201527f537472696e67733a20686578206c656e67746820696e73756666696369656e746044820152606401610773565b9392505050565b6000602082840312156127c457600080fd5b81356001600160e01b0319811681146127ab57600080fd5b6000602082840312156127ee57600080fd5b5035919050565b60005b838110156128105781810151838201526020016127f8565b50506000910152565b600081518084526128318160208601602086016127f5565b601f01601f19169290920160200192915050565b60006101206001600160a01b03808d168452808c166020850152808b166040850152808a1660608501528089166080850152508660a084015260ff861660c084015260ff851660e0840152806101008401526128a381840185612819565b9c9b505050505050505050505050565b6001600160a01b03811681146107a657600080fd5b80356128d3816128b3565b919050565b6000602082840312156128ea57600080fd5b81356127ab816128b3565b6000806040838503121561290857600080fd5b82359150602083013561291a816128b3565b809150509250929050565b634e487b7160e01b600052604160045260246000fd5b6040805190810167ffffffffffffffff8111828210171561295e5761295e612925565b60405290565b6040516102c0810167ffffffffffffffff8111828210171561295e5761295e612925565b60405160c0810167ffffffffffffffff8111828210171561295e5761295e612925565b6040516060810167ffffffffffffffff8111828210171561295e5761295e612925565b604051601f8201601f1916810167ffffffffffffffff811182821017156129f7576129f7612925565b604052919050565b600067ffffffffffffffff821115612a1957612a19612925565b5060051b60200190565b600082601f830112612a3457600080fd5b81356020612a49612a44836129ff565b6129ce565b82815260059290921b84018101918181019086841115612a6857600080fd5b8286015b84811015612a835780358352918301918301612a6c565b509695505050505050565b600060408284031215612aa057600080fd5b612aa861293b565b9050813567ffffffffffffffff80821115612ac257600080fd5b612ace85838601612a23565b83526020840135915080821115612ae457600080fd5b50612af184828501612a23565b60208301525092915050565b60008183036102e0811215612b1157600080fd5b612b1961293b565b91506102c080821215612b2b57600080fd5b612b33612964565b843581526020808601359082015260408086013590820152606080860135908201526080808601359082015260a0808601359082015260c0808601359082015260e08086013590820152610100808601359082015261012080860135908201526101408086013590820152610160808601359082015261018080860135908201526101a080860135908201526101c080860135908201526101e08086013590820152610200808601359082015261022080860135908201526102408086013590820152610260808601359082015261028080860135908201526102a080860135908201528352830135905067ffffffffffffffff811115612c3357600080fd5b612af184828501612a8e565b803563ffffffff811681146128d357600080fd5b600060c08284031215612c6557600080fd5b612c6d612988565b905081358152602082013560208201526040820135604082015260608201356060820152612c9d60808301612c3f565b608082015260a082013561ffff81168114612cb757600080fd5b60a082015292915050565b600060e08284031215612cd457600080fd5b60405160e0810181811067ffffffffffffffff82111715612cf757612cf7612925565b6040529050808235612d08816128b3565b80825250602083013560208201526040830135604082015260608301356060820152612d3660808401612c3f565b6080820152612d4760a08401612c3f565b60a0820152612d5860c08401612c3f565b60c08201525092915050565b6000818303610140811215612d7857600080fd5b612d8061293b565b91506060811215612d9057600080fd5b50612d996129ab565b8235612da4816128b3565b81526020830135612db4816128b3565b6020820152604083013562ffffff81168114612dcf57600080fd5b60408201528152612de38360608401612cc2565b602082015292915050565b600082601f830112612dff57600080fd5b813567ffffffffffffffff811115612e1957612e19612925565b612e2c601f8201601f19166020016129ce565b818152846020838601011115612e4157600080fd5b816020850160208301376000918101602001919091529392505050565b600082601f830112612e6f57600080fd5b81356020612e7f612a44836129ff565b82815260059290921b84018101918181019086841115612e9e57600080fd5b8286015b84811015612a8357803567ffffffffffffffff80821115612ec35760008081fd5b90880190610100828b03601f19011215612edd5760008081fd5b612ee561293b565b8683013582811115612ef75760008081fd5b612f058c8983870101612dee565b825250612f158b60408501612cc2565b8188015285525050918301918301612ea2565b600082601f830112612f3957600080fd5b81356020612f49612a44836129ff565b82815260059290921b84018101918181019086841115612f6857600080fd5b8286015b84811015612a8357803567ffffffffffffffff80821115612f8d5760008081fd5b908801906060828b03601f1901811315612fa75760008081fd5b612faf6129ab565b8784013583811115612fc15760008081fd5b612fcf8d8a83880101612dee565b8252506040925082840135612fe3816128b3565b81890152920135908201528352918301918301612f6c565b60008060008060008060c0878903121561301457600080fd5b863595506020870135613026816128b3565b945060408701359350606087013567ffffffffffffffff8082111561304a57600080fd5b90880190610520828b03121561305f57600080fd5b613067612988565b82358281111561307657600080fd5b6130828c828601612afd565b8252506130928b60208501612c53565b60208201526130a48b60e08501612d64565b60408201526130b78b6102208501612d64565b60608201526130ca8b6103608501612cc2565b60808201526130dd8b6104408501612cc2565b60a0820152945060808901359150808211156130f857600080fd5b6131048a838b01612e5e565b935060a089013591508082111561311a57600080fd5b5061312789828a01612f28565b9150509295509295509295565b803560ff811681146128d357600080fd5b600080600080600060a0868803121561315d57600080fd5b61316686613134565b94506020860135613176816128b3565b93506040860135613186816128b3565b925061319460608701612c3f565b91506131a260808701612c3f565b90509295509295909350565b600080600080600080600080610100898b0312156131cb57600080fd5b6131d4896128c8565b97506131e260208a016128c8565b96506131f060408a016128c8565b95506060890135945061320560808a01613134565b935060a089013567ffffffffffffffff8082111561322257600080fd5b61322e8c838d01612dee565b945060c08b013591508082111561324457600080fd5b6132508c838d01612dee565b935060e08b013591508082111561326657600080fd5b506132738b828c01612dee565b9150509295985092959890939650565b600082601f83011261329457600080fd5b813560206132a4612a44836129ff565b82815260059290921b840181019181810190868411156132c357600080fd5b8286015b84811015612a835780356132da816128b3565b83529183019183016132c7565b600080604083850312156132fa57600080fd5b823567ffffffffffffffff8082111561331257600080fd5b818501915085601f83011261332657600080fd5b81356020613336612a44836129ff565b82815260059290921b8401810191818101908984111561335557600080fd5b948201945b8386101561337a5761336b86613134565b8252948201949082019061335a565b9650508601359250508082111561339057600080fd5b5061339d85828601613283565b9150509250929050565b6000602082840312156133b957600080fd5b6127ab82613134565b600181811c908216806133d657607f821691505b6020821081036133f657634e487b7160e01b600052602260045260246000fd5b50919050565b60006020828403121561340e57600080fd5b81516127ab816128b3565b805182526020808201519083015260408082015190830152606080820151908301526080808201519083015260a0808201519083015260c0808201519083015260e08082015190830152610100808201519083015261012080820151908301526101408082015190830152610160808201519083015261018080820151908301526101a080820151908301526101c080820151908301526101e08082015190830152610200808201519083015261022080820151908301526102408082015190830152610260808201519083015261028080820151908301526102a090810151910152565b600081518084526020808501945080840160005b8381101561352e57815187529582019590820190600101613512565b509495945050505050565b6001600160a01b038151168252602081015160208301526040810151604083015260608101516060830152608081015163ffffffff80821660808501528060a08401511660a08501528060c08401511660c085015250505050565b80516001600160a01b038082511684528060208301511660208501525062ffffff604082015116604084015250602081015161080e6060840182613539565b600081518084526020808501808196508360051b8101915082860160005b8581101561363c5782840389528151610100815181875261361482880182612819565b91505086820151915061362987870183613539565b99860199945050908401906001016135f1565b5091979650505050505050565b600081518084526020808501808196508360051b8101915082860160005b8581101561363c57828403895281516060815181875261368982880182612819565b838901516001600160a01b0316888a0152604093840151939097019290925250509784019790840190600101613667565b60006001600160a01b03808a16835280891660208401525086604083015285606083015260e0608083015284516105208060e08501526136ff61060085018351613419565b602082015191506102e06108c0850152815160406108e08601526137276109208601826134fe565b9050602083015192506108df198582030161090086015261374881846134fe565b60208981015180516101008901529081015161012088015260408101516101408801526060810151610160880152608081015163ffffffff1661018088015260a081015161ffff166101a088015290935090505060408701516137af6101c0860182613594565b5060608701516137c3610300860182613594565b5060808701516137d7610440860182613539565b5060a08701516137e982860182613539565b505082810360a08401526137fd81866135d3565b905082810360c08401526138118185613649565b9a9950505050505050505050565b6020815260008251610520602084015261383e61054084018251613419565b602001516102e0610800840152805160406108208501526138636108608501826134fe565b90506020820151915061081f198482030161084085015261388481836134fe565b91505060208401516138d860408501828051825260208101516020830152604081015160408301526060810151606083015263ffffffff608082015116608083015261ffff60a08201511660a08301525050565b5060408401516138ec610100850182613594565b506060840151613900610240850182613594565b506080840151613914610380850182613539565b5060a0840151613928610460850182613539565b509392505050565b805180151581146128d357600080fd5b6000806040838503121561395357600080fd5b61395c83613930565b9150602083015190509250929050565b634e487b7160e01b600052601160045260246000fd5b808201808211156106235761062361396c565b6000602080830181845280855180835260408601915060408160051b870101925083870160005b82811015613a0b57603f19888603018452815161010081518188526139e382890182612819565b9150508782015191506139f888880183613539565b95505092850192908501906001016139bc565b5092979650505050505050565b60006020808301818452808551808352604092508286019150828160051b87010184880160005b83811015613a9457603f19898403018552815160608151818652613a6582870182612819565b838b01516001600160a01b0316878c015292890151958901959095525094870194925090860190600101613a3f565b509098975050505050505050565b600060208284031215613ab457600080fd5b5051919050565b818103818111156106235761062361396c565b6001600160a01b0384168152606060208201526000613af06060830185612819565b905063ffffffff83166040830152949350505050565b608081526000613b196080830187612819565b8281036020840152613b2b8187612819565b9150508360408301526001600160a01b038316606083015295945050505050565b600060018201613b5e57613b5e61396c565b5060010190565b601f82111561080e57600081815260208120601f850160051c81016020861015613b8c5750805b601f850160051c820191505b81811015613bab57828155600101613b98565b505050505050565b815167ffffffffffffffff811115613bcd57613bcd612925565b613be181613bdb84546133c2565b84613b65565b602080601f831160018114613c165760008415613bfe5750858301515b600019600386901b1c1916600185901b178555613bab565b600085815260208120601f198616915b82811015613c4557888601518255948401946001909101908401613c26565b5085821015613c635787850151600019600388901b60f8161c191681555b5050505050600190811b01905550565b60006101206001600160a01b03808d1684528b6020850152808b166040850152808a1660608501528089166080850152508660a08401528060c0840152613cbc81840187612819565b905082810360e0840152613cd08186612819565b90508281036101008401526128a38185612819565b634e487b7160e01b600052603260045260246000fd5b600060208284031215613d0d57600080fd5b6127ab82613930565b60006001600160a01b038089168352808816602084015280871660408401525084606083015263ffffffff8416608083015260c060a0830152613d5c60c0830184612819565b98975050505050505050565b7f416363657373436f6e74726f6c3a206163636f756e7420000000000000000000815260008351613da08160178501602088016127f5565b7f206973206d697373696e6720726f6c65200000000000000000000000000000006017918401918201528351613ddd8160288401602088016127f5565b01602801949350505050565b6020815260006127ab6020830184612819565b80820281158282048414176106235761062361396c565b600081613e2257613e2261396c565b50600019019056fea164736f6c6343000812000a",
  "libraries": {
    "LibProject": "0x998210596930Ec4A459c5611A7c151F4DA5a1b39"
  },
  "devdoc": {
    "events": {
      "RoleAdminChanged(bytes32,bytes32,bytes32)": {
        "details": "Emitted when `newAdminRole` is set as ``role``'s admin role, replacing `previousAdminRole` `DEFAULT_ADMIN_ROLE` is the starting admin for all roles, despite {RoleAdminChanged} not being emitted signaling this. _Available since v3.1._"
      },
      "RoleGranted(bytes32,address,address)": {
        "details": "Emitted when `account` is granted `role`. `sender` is the account that originated the contract call, an admin role bearer except when using {AccessControl-_setupRole}."
      },
      "RoleRevoked(bytes32,address,address)": {
        "details": "Emitted when `account` is revoked `role`. `sender` is the account that originated the contract call:   - if using `revokeRole`, it is the admin role bearer   - if using `renounceRole`, it is the role bearer (i.e. `account`)"
      }
    },
    "kind": "dev",
    "methods": {
      "addAdmin(address)": {
        "details": "add admin",
        "params": {
          "account": "address to add"
        }
      },
      "createProject(address,address,address,uint256,uint8,string,string,string)": {
        "details": " "
      },
      "getRoleAdmin(bytes32)": {
        "details": "Returns the admin role that controls `role`. See {grantRole} and {revokeRole}. To change a role's admin, use {_setRoleAdmin}."
      },
      "grantRole(bytes32,address)": {
        "details": "Grants `role` to `account`. If `account` had not been already granted `role`, emits a {RoleGranted} event. Requirements: - the caller must have ``role``'s admin role. May emit a {RoleGranted} event."
      },
      "hasRole(bytes32,address)": {
        "details": "Returns `true` if `account` has been granted `role`."
      },
      "isAdmin(address)": {
        "details": "whether admin",
        "params": {
          "account": "address to check"
        }
      },
      "removeAdmin(address)": {
        "details": "remove admin",
        "params": {
          "account": "address to remove"
        }
      },
      "renounceRole(bytes32,address)": {
        "details": "Revokes `role` from the calling account. Roles are often managed via {grantRole} and {revokeRole}: this function's purpose is to provide a mechanism for accounts to lose their privileges if they are compromised (such as when a trusted device is misplaced). If the calling account had been revoked `role`, emits a {RoleRevoked} event. Requirements: - the caller must be `account`. May emit a {RoleRevoked} event."
      },
      "revokeRole(bytes32,address)": {
        "details": "Revokes `role` from `account`. If `account` had been granted `role`, emits a {RoleRevoked} event. Requirements: - the caller must have ``role``'s admin role. May emit a {RoleRevoked} event."
      },
      "supportsInterface(bytes4)": {
        "details": "See {IERC165-supportsInterface}."
      },
      "transferAdmin(address)": {
        "details": "transfer admin",
        "params": {
          "newAdmin": "new admin address"
        }
      }
    },
    "title": "L1ProjectManager",
    "version": 1
  },
  "userdoc": {
    "kind": "user",
    "methods": {},
    "version": 1
  },
  "storageLayout": {
    "storage": [
      {
        "astId": 3420,
        "contract": "contracts/L1/L1ProjectManager.sol:L1ProjectManager",
        "label": "pauseProxy",
        "offset": 0,
        "slot": "0",
        "type": "t_bool"
      },
      {
        "astId": 3424,
        "contract": "contracts/L1/L1ProjectManager.sol:L1ProjectManager",
        "label": "proxyImplementation",
        "offset": 0,
        "slot": "1",
        "type": "t_mapping(t_uint256,t_address)"
      },
      {
        "astId": 3428,
        "contract": "contracts/L1/L1ProjectManager.sol:L1ProjectManager",
        "label": "aliveImplementation",
        "offset": 0,
        "slot": "2",
        "type": "t_mapping(t_address,t_bool)"
      },
      {
        "astId": 3432,
        "contract": "contracts/L1/L1ProjectManager.sol:L1ProjectManager",
        "label": "selectorImplementation",
        "offset": 0,
        "slot": "3",
        "type": "t_mapping(t_bytes4,t_address)"
      },
      {
        "astId": 24,
        "contract": "contracts/L1/L1ProjectManager.sol:L1ProjectManager",
        "label": "_roles",
        "offset": 0,
        "slot": "4",
        "type": "t_mapping(t_bytes32,t_struct(RoleData)19_storage)"
      },
      {
        "astId": 2401,
        "contract": "contracts/L1/L1ProjectManager.sol:L1ProjectManager",
        "label": "free",
        "offset": 0,
        "slot": "5",
        "type": "t_bool"
      },
      {
        "astId": 2403,
        "contract": "contracts/L1/L1ProjectManager.sol:L1ProjectManager",
        "label": "projectCount",
        "offset": 0,
        "slot": "6",
        "type": "t_uint256"
      },
      {
        "astId": 2407,
        "contract": "contracts/L1/L1ProjectManager.sol:L1ProjectManager",
        "label": "l1TokenFactory",
        "offset": 0,
        "slot": "7",
        "type": "t_mapping(t_uint8,t_address)"
      },
      {
        "astId": 2412,
        "contract": "contracts/L1/L1ProjectManager.sol:L1ProjectManager",
        "label": "projects",
        "offset": 0,
        "slot": "8",
        "type": "t_mapping(t_uint256,t_struct(ProjectInfo)2787_storage)"
      },
      {
        "astId": 2416,
        "contract": "contracts/L1/L1ProjectManager.sol:L1ProjectManager",
        "label": "projectTokens",
        "offset": 0,
        "slot": "9",
        "type": "t_mapping(t_address,t_uint256)"
      },
      {
        "astId": 2421,
        "contract": "contracts/L1/L1ProjectManager.sol:L1ProjectManager",
        "label": "l2Info",
        "offset": 0,
        "slot": "10",
        "type": "t_mapping(t_uint8,t_struct(L2Info)2796_storage)"
      }
    ],
    "types": {
      "t_address": {
        "encoding": "inplace",
        "label": "address",
        "numberOfBytes": "20"
      },
      "t_bool": {
        "encoding": "inplace",
        "label": "bool",
        "numberOfBytes": "1"
      },
      "t_bytes32": {
        "encoding": "inplace",
        "label": "bytes32",
        "numberOfBytes": "32"
      },
      "t_bytes4": {
        "encoding": "inplace",
        "label": "bytes4",
        "numberOfBytes": "4"
      },
      "t_mapping(t_address,t_bool)": {
        "encoding": "mapping",
        "key": "t_address",
        "label": "mapping(address => bool)",
        "numberOfBytes": "32",
        "value": "t_bool"
      },
      "t_mapping(t_address,t_uint256)": {
        "encoding": "mapping",
        "key": "t_address",
        "label": "mapping(address => uint256)",
        "numberOfBytes": "32",
        "value": "t_uint256"
      },
      "t_mapping(t_bytes32,t_struct(RoleData)19_storage)": {
        "encoding": "mapping",
        "key": "t_bytes32",
        "label": "mapping(bytes32 => struct AccessControl.RoleData)",
        "numberOfBytes": "32",
        "value": "t_struct(RoleData)19_storage"
      },
      "t_mapping(t_bytes4,t_address)": {
        "encoding": "mapping",
        "key": "t_bytes4",
        "label": "mapping(bytes4 => address)",
        "numberOfBytes": "32",
        "value": "t_address"
      },
      "t_mapping(t_uint256,t_address)": {
        "encoding": "mapping",
        "key": "t_uint256",
        "label": "mapping(uint256 => address)",
        "numberOfBytes": "32",
        "value": "t_address"
      },
      "t_mapping(t_uint256,t_struct(ProjectInfo)2787_storage)": {
        "encoding": "mapping",
        "key": "t_uint256",
        "label": "mapping(uint256 => struct LibProject.ProjectInfo)",
        "numberOfBytes": "32",
        "value": "t_struct(ProjectInfo)2787_storage"
      },
      "t_mapping(t_uint8,t_address)": {
        "encoding": "mapping",
        "key": "t_uint8",
        "label": "mapping(uint8 => address)",
        "numberOfBytes": "32",
        "value": "t_address"
      },
      "t_mapping(t_uint8,t_struct(L2Info)2796_storage)": {
        "encoding": "mapping",
        "key": "t_uint8",
        "label": "mapping(uint8 => struct LibProject.L2Info)",
        "numberOfBytes": "32",
        "value": "t_struct(L2Info)2796_storage"
      },
      "t_string_storage": {
        "encoding": "bytes",
        "label": "string",
        "numberOfBytes": "32"
      },
      "t_struct(L2Info)2796_storage": {
        "encoding": "inplace",
        "label": "struct LibProject.L2Info",
        "members": [
          {
            "astId": 2789,
            "contract": "contracts/L1/L1ProjectManager.sol:L1ProjectManager",
            "label": "l2TokenFactory",
            "offset": 0,
            "slot": "0",
            "type": "t_address"
          },
          {
            "astId": 2791,
            "contract": "contracts/L1/L1ProjectManager.sol:L1ProjectManager",
            "label": "l2ProjectManager",
            "offset": 0,
            "slot": "1",
            "type": "t_address"
          },
          {
            "astId": 2793,
            "contract": "contracts/L1/L1ProjectManager.sol:L1ProjectManager",
            "label": "depositMinGasLimit",
            "offset": 20,
            "slot": "1",
            "type": "t_uint32"
          },
          {
            "astId": 2795,
            "contract": "contracts/L1/L1ProjectManager.sol:L1ProjectManager",
            "label": "sendMsgMinGasLimit",
            "offset": 24,
            "slot": "1",
            "type": "t_uint32"
          }
        ],
        "numberOfBytes": "64"
      },
      "t_struct(ProjectInfo)2787_storage": {
        "encoding": "inplace",
        "label": "struct LibProject.ProjectInfo",
        "members": [
          {
            "astId": 2770,
            "contract": "contracts/L1/L1ProjectManager.sol:L1ProjectManager",
            "label": "projectOwner",
            "offset": 0,
            "slot": "0",
            "type": "t_address"
          },
          {
            "astId": 2772,
            "contract": "contracts/L1/L1ProjectManager.sol:L1ProjectManager",
            "label": "tokenOwner",
            "offset": 0,
            "slot": "1",
            "type": "t_address"
          },
          {
            "astId": 2774,
            "contract": "contracts/L1/L1ProjectManager.sol:L1ProjectManager",
            "label": "l1Token",
            "offset": 0,
            "slot": "2",
            "type": "t_address"
          },
          {
            "astId": 2776,
            "contract": "contracts/L1/L1ProjectManager.sol:L1ProjectManager",
            "label": "l2Token",
            "offset": 0,
            "slot": "3",
            "type": "t_address"
          },
          {
            "astId": 2778,
            "contract": "contracts/L1/L1ProjectManager.sol:L1ProjectManager",
            "label": "addressManager",
            "offset": 0,
            "slot": "4",
            "type": "t_address"
          },
          {
            "astId": 2780,
            "contract": "contracts/L1/L1ProjectManager.sol:L1ProjectManager",
            "label": "initialTotalSupply",
            "offset": 0,
            "slot": "5",
            "type": "t_uint256"
          },
          {
            "astId": 2782,
            "contract": "contracts/L1/L1ProjectManager.sol:L1ProjectManager",
            "label": "tokenType",
            "offset": 0,
            "slot": "6",
            "type": "t_uint8"
          },
          {
            "astId": 2784,
            "contract": "contracts/L1/L1ProjectManager.sol:L1ProjectManager",
            "label": "l2Type",
            "offset": 1,
            "slot": "6",
            "type": "t_uint8"
          },
          {
            "astId": 2786,
            "contract": "contracts/L1/L1ProjectManager.sol:L1ProjectManager",
            "label": "projectName",
            "offset": 0,
            "slot": "7",
            "type": "t_string_storage"
          }
        ],
        "numberOfBytes": "256"
      },
      "t_struct(RoleData)19_storage": {
        "encoding": "inplace",
        "label": "struct AccessControl.RoleData",
        "members": [
          {
            "astId": 16,
            "contract": "contracts/L1/L1ProjectManager.sol:L1ProjectManager",
            "label": "members",
            "offset": 0,
            "slot": "0",
            "type": "t_mapping(t_address,t_bool)"
          },
          {
            "astId": 18,
            "contract": "contracts/L1/L1ProjectManager.sol:L1ProjectManager",
            "label": "adminRole",
            "offset": 0,
            "slot": "1",
            "type": "t_bytes32"
          }
        ],
        "numberOfBytes": "64"
      },
      "t_uint256": {
        "encoding": "inplace",
        "label": "uint256",
        "numberOfBytes": "32"
      },
      "t_uint32": {
        "encoding": "inplace",
        "label": "uint32",
        "numberOfBytes": "4"
      },
      "t_uint8": {
        "encoding": "inplace",
        "label": "uint8",
        "numberOfBytes": "1"
      }
    }
  }
}