{
  "address": "0xb593317Dff9DeA764bCDF3DF65685300C4233C03",
  "abi": [
    {
      "inputs": [],
      "stateMutability": "nonpayable",
      "type": "constructor"
    },
    {
      "anonymous": false,
      "inputs": [
        {
          "indexed": false,
          "internalType": "address",
          "name": "l1Token",
          "type": "address"
        },
        {
          "indexed": false,
          "internalType": "uint256",
          "name": "projectId",
          "type": "uint256"
        },
        {
          "indexed": false,
          "internalType": "address",
          "name": "tokenOwner",
          "type": "address"
        },
        {
          "indexed": false,
          "internalType": "address",
          "name": "projectOwner",
          "type": "address"
        },
        {
          "indexed": false,
          "internalType": "address",
          "name": "addressManager",
          "type": "address"
        },
        {
          "indexed": false,
          "internalType": "uint256",
          "name": "initialTotalSupply",
          "type": "uint256"
        },
        {
          "indexed": false,
          "internalType": "string",
          "name": "projectName",
          "type": "string"
        },
        {
          "indexed": false,
          "internalType": "string",
          "name": "tokenName",
          "type": "string"
        },
        {
          "indexed": false,
          "internalType": "string",
          "name": "tokenSymbol",
          "type": "string"
        }
      ],
      "name": "CreatedProject",
      "type": "event"
    },
    {
      "anonymous": false,
      "inputs": [
        {
          "indexed": false,
          "internalType": "uint256",
          "name": "projectId",
          "type": "uint256"
        },
        {
          "indexed": false,
          "internalType": "address",
          "name": "l1Token",
          "type": "address"
        },
        {
          "indexed": false,
          "internalType": "address",
          "name": "l2Token",
          "type": "address"
        },
        {
          "indexed": false,
          "internalType": "uint256",
          "name": "totalAmount",
          "type": "uint256"
        }
      ],
      "name": "LaunchedProject",
      "type": "event"
    },
    {
      "anonymous": false,
      "inputs": [
        {
          "indexed": true,
          "internalType": "bytes32",
          "name": "role",
          "type": "bytes32"
        },
        {
          "indexed": true,
          "internalType": "bytes32",
          "name": "previousAdminRole",
          "type": "bytes32"
        },
        {
          "indexed": true,
          "internalType": "bytes32",
          "name": "newAdminRole",
          "type": "bytes32"
        }
      ],
      "name": "RoleAdminChanged",
      "type": "event"
    },
    {
      "anonymous": false,
      "inputs": [
        {
          "indexed": true,
          "internalType": "bytes32",
          "name": "role",
          "type": "bytes32"
        },
        {
          "indexed": true,
          "internalType": "address",
          "name": "account",
          "type": "address"
        },
        {
          "indexed": true,
          "internalType": "address",
          "name": "sender",
          "type": "address"
        }
      ],
      "name": "RoleGranted",
      "type": "event"
    },
    {
      "anonymous": false,
      "inputs": [
        {
          "indexed": true,
          "internalType": "bytes32",
          "name": "role",
          "type": "bytes32"
        },
        {
          "indexed": true,
          "internalType": "address",
          "name": "account",
          "type": "address"
        },
        {
          "indexed": true,
          "internalType": "address",
          "name": "sender",
          "type": "address"
        }
      ],
      "name": "RoleRevoked",
      "type": "event"
    },
    {
      "anonymous": false,
      "inputs": [
        {
          "indexed": false,
          "internalType": "uint8",
          "name": "l2Type",
          "type": "uint8"
        },
        {
          "indexed": false,
          "internalType": "address",
          "name": "l2TokenFactory",
          "type": "address"
        },
        {
          "indexed": false,
          "internalType": "address",
          "name": "l2ProjectManager",
          "type": "address"
        },
        {
          "indexed": false,
          "internalType": "uint32",
          "name": "depositMinGasLimit",
          "type": "uint32"
        },
        {
          "indexed": false,
          "internalType": "uint32",
          "name": "sendMsgMinGasLimit",
          "type": "uint32"
        }
      ],
      "name": "SetL2Infos",
      "type": "event"
    },
    {
      "anonymous": false,
      "inputs": [
        {
          "indexed": false,
          "internalType": "uint256",
          "name": "projectId",
          "type": "uint256"
        },
        {
          "indexed": false,
          "internalType": "uint8",
          "name": "l2Type",
          "type": "uint8"
        },
        {
          "indexed": false,
          "internalType": "address",
          "name": "addressManager",
          "type": "address"
        },
        {
          "indexed": false,
          "internalType": "address",
          "name": "l2Token",
          "type": "address"
        }
      ],
      "name": "SetL2Token",
      "type": "event"
    },
    {
      "inputs": [],
      "name": "ADMIN_ROLE",
      "outputs": [
        {
          "internalType": "bytes32",
          "name": "",
          "type": "bytes32"
        }
      ],
      "stateMutability": "view",
      "type": "function"
    },
    {
      "inputs": [],
      "name": "DEFAULT_ADMIN_ROLE",
      "outputs": [
        {
          "internalType": "bytes32",
          "name": "",
          "type": "bytes32"
        }
      ],
      "stateMutability": "view",
      "type": "function"
    },
    {
      "inputs": [],
      "name": "POLICY_ROLE",
      "outputs": [
        {
          "internalType": "bytes32",
          "name": "",
          "type": "bytes32"
        }
      ],
      "stateMutability": "view",
      "type": "function"
    },
    {
      "inputs": [
        {
          "internalType": "address",
          "name": "account",
          "type": "address"
        }
      ],
      "name": "addAdmin",
      "outputs": [],
      "stateMutability": "nonpayable",
      "type": "function"
    },
    {
      "inputs": [
        {
          "internalType": "address",
          "name": "",
          "type": "address"
        }
      ],
      "name": "aliveImplementation",
      "outputs": [
        {
          "internalType": "bool",
          "name": "",
          "type": "bool"
        }
      ],
      "stateMutability": "view",
      "type": "function"
    },
    {
      "inputs": [
        {
          "internalType": "address",
          "name": "tokenOwner",
          "type": "address"
        },
        {
          "internalType": "address",
          "name": "projectOwner",
          "type": "address"
        },
        {
          "internalType": "address",
          "name": "addressManager",
          "type": "address"
        },
        {
          "internalType": "uint256",
          "name": "initialTotalSupply",
          "type": "uint256"
        },
        {
          "internalType": "uint8",
          "name": "tokenType",
          "type": "uint8"
        },
        {
          "internalType": "string",
          "name": "projectName",
          "type": "string"
        },
        {
          "internalType": "string",
          "name": "tokenName",
          "type": "string"
        },
        {
          "internalType": "string",
          "name": "tokenSymbol",
          "type": "string"
        }
      ],
      "name": "createProject",
      "outputs": [
        {
          "internalType": "uint256",
          "name": "",
          "type": "uint256"
        }
      ],
      "stateMutability": "nonpayable",
      "type": "function"
    },
    {
      "inputs": [
        {
          "internalType": "bytes32",
          "name": "role",
          "type": "bytes32"
        }
      ],
      "name": "getRoleAdmin",
      "outputs": [
        {
          "internalType": "bytes32",
          "name": "",
          "type": "bytes32"
        }
      ],
      "stateMutability": "view",
      "type": "function"
    },
    {
      "inputs": [
        {
          "internalType": "bytes32",
          "name": "role",
          "type": "bytes32"
        },
        {
          "internalType": "address",
          "name": "account",
          "type": "address"
        }
      ],
      "name": "grantRole",
      "outputs": [],
      "stateMutability": "nonpayable",
      "type": "function"
    },
    {
      "inputs": [
        {
          "internalType": "bytes32",
          "name": "role",
          "type": "bytes32"
        },
        {
          "internalType": "address",
          "name": "account",
          "type": "address"
        }
      ],
      "name": "hasRole",
      "outputs": [
        {
          "internalType": "bool",
          "name": "",
          "type": "bool"
        }
      ],
      "stateMutability": "view",
      "type": "function"
    },
    {
      "inputs": [
        {
          "internalType": "address",
          "name": "account",
          "type": "address"
        }
      ],
      "name": "isAdmin",
      "outputs": [
        {
          "internalType": "bool",
          "name": "",
          "type": "bool"
        }
      ],
      "stateMutability": "view",
      "type": "function"
    },
    {
      "inputs": [
        {
          "internalType": "uint8",
          "name": "",
          "type": "uint8"
        }
      ],
      "name": "l1TokenFactory",
      "outputs": [
        {
          "internalType": "address",
          "name": "",
          "type": "address"
        }
      ],
      "stateMutability": "view",
      "type": "function"
    },
    {
      "inputs": [
        {
          "internalType": "uint8",
          "name": "",
          "type": "uint8"
        }
      ],
      "name": "l2Info",
      "outputs": [
        {
          "internalType": "address",
          "name": "l2TokenFactory",
          "type": "address"
        },
        {
          "internalType": "address",
          "name": "l2ProjectManager",
          "type": "address"
        },
        {
          "internalType": "uint32",
          "name": "depositMinGasLimit",
          "type": "uint32"
        },
        {
          "internalType": "uint32",
          "name": "sendMsgMinGasLimit",
          "type": "uint32"
        }
      ],
      "stateMutability": "view",
      "type": "function"
    },
    {
      "inputs": [
        {
          "internalType": "uint256",
          "name": "projectId",
          "type": "uint256"
        },
        {
          "internalType": "address",
          "name": "l2Token",
          "type": "address"
        },
        {
          "internalType": "uint256",
          "name": "totalAmount",
          "type": "uint256"
        },
        {
          "components": [
            {
              "components": [
                {
                  "components": [
                    {
                      "internalType": "uint256",
                      "name": "stosTier1",
                      "type": "uint256"
                    },
                    {
                      "internalType": "uint256",
                      "name": "stosTier2",
                      "type": "uint256"
                    },
                    {
                      "internalType": "uint256",
                      "name": "stosTier3",
                      "type": "uint256"
                    },
                    {
                      "internalType": "uint256",
                      "name": "stosTier4",
                      "type": "uint256"
                    },
                    {
                      "internalType": "uint256",
                      "name": "tier1Percents",
                      "type": "uint256"
                    },
                    {
                      "internalType": "uint256",
                      "name": "tier2Percents",
                      "type": "uint256"
                    },
                    {
                      "internalType": "uint256",
                      "name": "tier3Percents",
                      "type": "uint256"
                    },
                    {
                      "internalType": "uint256",
                      "name": "tier4Percents",
                      "type": "uint256"
                    },
                    {
                      "internalType": "uint256",
                      "name": "total1roundSaleAmount",
                      "type": "uint256"
                    },
                    {
                      "internalType": "uint256",
                      "name": "total2roundSaleAmount",
                      "type": "uint256"
                    },
                    {
                      "internalType": "uint256",
                      "name": "saleTokenPrice",
                      "type": "uint256"
                    },
                    {
                      "internalType": "uint256",
                      "name": "payTokenPrice",
                      "type": "uint256"
                    },
                    {
                      "internalType": "uint256",
                      "name": "hardcapAmount",
                      "type": "uint256"
                    },
                    {
                      "internalType": "uint256",
                      "name": "changeTOSPercent",
                      "type": "uint256"
                    },
                    {
                      "internalType": "uint256",
                      "name": "startWhiteTime",
                      "type": "uint256"
                    },
                    {
                      "internalType": "uint256",
                      "name": "endWhiteTime",
                      "type": "uint256"
                    },
                    {
                      "internalType": "uint256",
                      "name": "start1roundTime",
                      "type": "uint256"
                    },
                    {
                      "internalType": "uint256",
                      "name": "end1roundTime",
                      "type": "uint256"
                    },
                    {
                      "internalType": "uint256",
                      "name": "snapshotTime",
                      "type": "uint256"
                    },
                    {
                      "internalType": "uint256",
                      "name": "start2roundTime",
                      "type": "uint256"
                    },
                    {
                      "internalType": "uint256",
                      "name": "end2roundTime",
                      "type": "uint256"
                    }
                  ],
                  "internalType": "struct LibProject.InitalParameterPublicSaleVault",
                  "name": "vaultParams",
                  "type": "tuple"
                },
                {
                  "components": [
                    {
                      "internalType": "uint256",
                      "name": "claimCounts",
                      "type": "uint256"
                    },
                    {
                      "internalType": "uint256",
                      "name": "firstClaimPercent",
                      "type": "uint256"
                    },
                    {
                      "internalType": "uint256",
                      "name": "firstClaimTime",
                      "type": "uint256"
                    },
                    {
                      "internalType": "uint256",
                      "name": "secondClaimTime",
                      "type": "uint256"
                    },
                    {
                      "internalType": "uint256",
                      "name": "roundInterval",
                      "type": "uint256"
                    }
                  ],
                  "internalType": "struct LibProject.InitalParameterPublicSaleClaim",
                  "name": "claimParams",
                  "type": "tuple"
                },
                {
                  "components": [
                    {
                      "internalType": "address",
                      "name": "receiveAddress",
                      "type": "address"
                    },
                    {
                      "internalType": "uint256",
                      "name": "totalClaimCount",
                      "type": "uint256"
                    },
                    {
                      "internalType": "uint256",
                      "name": "firstClaimPercent",
                      "type": "uint256"
                    },
                    {
                      "internalType": "uint256",
                      "name": "firstClaimTime",
                      "type": "uint256"
                    },
                    {
                      "internalType": "uint256",
                      "name": "secondClaimTime",
                      "type": "uint256"
                    },
                    {
                      "internalType": "uint256",
                      "name": "roundIntervalTime",
                      "type": "uint256"
                    },
                    {
                      "internalType": "uint24",
                      "name": "fee",
                      "type": "uint24"
                    }
                  ],
                  "internalType": "struct LibProject.InitalParameterVestingFundVault",
                  "name": "vestingParams",
                  "type": "tuple"
                }
              ],
              "internalType": "struct LibProject.InitalParameterPublicSale",
              "name": "publicSaleParams",
              "type": "tuple"
            },
            {
              "components": [
                {
                  "internalType": "uint256",
                  "name": "totalAllocatedAmount",
                  "type": "uint256"
                },
                {
                  "internalType": "uint256",
                  "name": "tosPrice",
                  "type": "uint256"
                },
                {
                  "internalType": "uint256",
                  "name": "tokenPrice",
                  "type": "uint256"
                },
                {
                  "internalType": "uint256",
                  "name": "initSqrtPrice",
                  "type": "uint256"
                },
                {
                  "internalType": "uint32",
                  "name": "startTime",
                  "type": "uint32"
                },
                {
                  "internalType": "uint16",
                  "name": "fee",
                  "type": "uint16"
                }
              ],
              "internalType": "struct LibProject.InitalParameterInitialLiquidityVault",
              "name": "initialVaultParams",
              "type": "tuple"
            },
            {
              "components": [
                {
                  "components": [
                    {
                      "internalType": "address",
                      "name": "token0",
                      "type": "address"
                    },
                    {
                      "internalType": "address",
                      "name": "token1",
                      "type": "address"
                    },
                    {
                      "internalType": "uint24",
                      "name": "fee",
                      "type": "uint24"
                    }
                  ],
                  "internalType": "struct LibPool.PoolInfo",
                  "name": "poolParams",
                  "type": "tuple"
                },
                {
                  "components": [
                    {
                      "internalType": "address",
                      "name": "claimer",
                      "type": "address"
                    },
                    {
                      "internalType": "uint256",
                      "name": "totalAllocatedAmount",
                      "type": "uint256"
                    },
                    {
                      "internalType": "uint256",
                      "name": "totalClaimCount",
                      "type": "uint256"
                    },
                    {
                      "internalType": "uint256",
                      "name": "firstClaimAmount",
                      "type": "uint256"
                    },
                    {
                      "internalType": "uint32",
                      "name": "firstClaimTime",
                      "type": "uint32"
                    },
                    {
                      "internalType": "uint32",
                      "name": "secondClaimTime",
                      "type": "uint32"
                    },
                    {
                      "internalType": "uint32",
                      "name": "roundIntervalTime",
                      "type": "uint32"
                    }
                  ],
                  "internalType": "struct LibProject.InitalParameterScheduleVault",
                  "name": "params",
                  "type": "tuple"
                }
              ],
              "internalType": "struct LibProject.InitalParameterLiquidityRewardVault",
              "name": "rewardTonTosPoolParams",
              "type": "tuple"
            },
            {
              "components": [
                {
                  "components": [
                    {
                      "internalType": "address",
                      "name": "token0",
                      "type": "address"
                    },
                    {
                      "internalType": "address",
                      "name": "token1",
                      "type": "address"
                    },
                    {
                      "internalType": "uint24",
                      "name": "fee",
                      "type": "uint24"
                    }
                  ],
                  "internalType": "struct LibPool.PoolInfo",
                  "name": "poolParams",
                  "type": "tuple"
                },
                {
                  "components": [
                    {
                      "internalType": "address",
                      "name": "claimer",
                      "type": "address"
                    },
                    {
                      "internalType": "uint256",
                      "name": "totalAllocatedAmount",
                      "type": "uint256"
                    },
                    {
                      "internalType": "uint256",
                      "name": "totalClaimCount",
                      "type": "uint256"
                    },
                    {
                      "internalType": "uint256",
                      "name": "firstClaimAmount",
                      "type": "uint256"
                    },
                    {
                      "internalType": "uint32",
                      "name": "firstClaimTime",
                      "type": "uint32"
                    },
                    {
                      "internalType": "uint32",
                      "name": "secondClaimTime",
                      "type": "uint32"
                    },
                    {
                      "internalType": "uint32",
                      "name": "roundIntervalTime",
                      "type": "uint32"
                    }
                  ],
                  "internalType": "struct LibProject.InitalParameterScheduleVault",
                  "name": "params",
                  "type": "tuple"
                }
              ],
              "internalType": "struct LibProject.InitalParameterLiquidityRewardVault",
              "name": "rewardProjectTosPoolParams",
              "type": "tuple"
            },
            {
              "components": [
                {
                  "internalType": "address",
                  "name": "claimer",
                  "type": "address"
                },
                {
                  "internalType": "uint256",
                  "name": "totalAllocatedAmount",
                  "type": "uint256"
                },
                {
                  "internalType": "uint256",
                  "name": "totalClaimCount",
                  "type": "uint256"
                },
                {
                  "internalType": "uint256",
                  "name": "firstClaimAmount",
                  "type": "uint256"
                },
                {
                  "internalType": "uint32",
                  "name": "firstClaimTime",
                  "type": "uint32"
                },
                {
                  "internalType": "uint32",
                  "name": "secondClaimTime",
                  "type": "uint32"
                },
                {
                  "internalType": "uint32",
                  "name": "roundIntervalTime",
                  "type": "uint32"
                }
              ],
              "internalType": "struct LibProject.InitalParameterScheduleVault",
              "name": "tosAirdropParams",
              "type": "tuple"
            },
            {
              "components": [
                {
                  "internalType": "address",
                  "name": "claimer",
                  "type": "address"
                },
                {
                  "internalType": "uint256",
                  "name": "totalAllocatedAmount",
                  "type": "uint256"
                },
                {
                  "internalType": "uint256",
                  "name": "totalClaimCount",
                  "type": "uint256"
                },
                {
                  "internalType": "uint256",
                  "name": "firstClaimAmount",
                  "type": "uint256"
                },
                {
                  "internalType": "uint32",
                  "name": "firstClaimTime",
                  "type": "uint32"
                },
                {
                  "internalType": "uint32",
                  "name": "secondClaimTime",
                  "type": "uint32"
                },
                {
                  "internalType": "uint32",
                  "name": "roundIntervalTime",
                  "type": "uint32"
                }
              ],
              "internalType": "struct LibProject.InitalParameterScheduleVault",
              "name": "tonAirdropParams",
              "type": "tuple"
            }
          ],
          "internalType": "struct LibProject.TokamakVaults",
          "name": "tokamakVaults",
          "type": "tuple"
        },
        {
          "components": [
            {
              "internalType": "string",
              "name": "vaultName",
              "type": "string"
            },
            {
              "components": [
                {
                  "internalType": "address",
                  "name": "claimer",
                  "type": "address"
                },
                {
                  "internalType": "uint256",
                  "name": "totalAllocatedAmount",
                  "type": "uint256"
                },
                {
                  "internalType": "uint256",
                  "name": "totalClaimCount",
                  "type": "uint256"
                },
                {
                  "internalType": "uint256",
                  "name": "firstClaimAmount",
                  "type": "uint256"
                },
                {
                  "internalType": "uint32",
                  "name": "firstClaimTime",
                  "type": "uint32"
                },
                {
                  "internalType": "uint32",
                  "name": "secondClaimTime",
                  "type": "uint32"
                },
                {
                  "internalType": "uint32",
                  "name": "roundIntervalTime",
                  "type": "uint32"
                }
              ],
              "internalType": "struct LibProject.InitalParameterScheduleVault",
              "name": "params",
              "type": "tuple"
            }
          ],
          "internalType": "struct LibProject.InitalParameterSchedule[]",
          "name": "customScheduleVaults",
          "type": "tuple[]"
        },
        {
          "components": [
            {
              "internalType": "string",
              "name": "vaultName",
              "type": "string"
            },
            {
              "internalType": "address",
              "name": "claimer",
              "type": "address"
            },
            {
              "internalType": "uint256",
              "name": "totalAllocatedAmount",
              "type": "uint256"
            }
          ],
          "internalType": "struct LibProject.InitalParameterNonScheduleVault[]",
          "name": "customNonScheduleVaults",
          "type": "tuple[]"
        }
      ],
      "name": "launchProject",
      "outputs": [],
      "stateMutability": "nonpayable",
      "type": "function"
    },
    {
      "inputs": [],
      "name": "pauseProxy",
      "outputs": [
        {
          "internalType": "bool",
          "name": "",
          "type": "bool"
        }
      ],
      "stateMutability": "view",
      "type": "function"
    },
    {
      "inputs": [],
      "name": "projectCount",
      "outputs": [
        {
          "internalType": "uint256",
          "name": "",
          "type": "uint256"
        }
      ],
      "stateMutability": "view",
      "type": "function"
    },
    {
      "inputs": [
        {
          "internalType": "address",
          "name": "",
          "type": "address"
        }
      ],
      "name": "projectTokens",
      "outputs": [
        {
          "internalType": "uint256",
          "name": "",
          "type": "uint256"
        }
      ],
      "stateMutability": "view",
      "type": "function"
    },
    {
      "inputs": [
        {
          "internalType": "uint256",
          "name": "",
          "type": "uint256"
        }
      ],
      "name": "projects",
      "outputs": [
        {
          "internalType": "address",
          "name": "projectOwner",
          "type": "address"
        },
        {
          "internalType": "address",
          "name": "tokenOwner",
          "type": "address"
        },
        {
          "internalType": "address",
          "name": "l1Token",
          "type": "address"
        },
        {
          "internalType": "address",
          "name": "l2Token",
          "type": "address"
        },
        {
          "internalType": "address",
          "name": "addressManager",
          "type": "address"
        },
        {
          "internalType": "uint256",
          "name": "initialTotalSupply",
          "type": "uint256"
        },
        {
          "internalType": "uint8",
          "name": "tokenType",
          "type": "uint8"
        },
        {
          "internalType": "uint8",
          "name": "l2Type",
          "type": "uint8"
        },
        {
          "internalType": "string",
          "name": "projectName",
          "type": "string"
        }
      ],
      "stateMutability": "view",
      "type": "function"
    },
    {
      "inputs": [
        {
          "internalType": "uint256",
          "name": "",
          "type": "uint256"
        }
      ],
      "name": "proxyImplementation",
      "outputs": [
        {
          "internalType": "address",
          "name": "",
          "type": "address"
        }
      ],
      "stateMutability": "view",
      "type": "function"
    },
    {
      "inputs": [
        {
          "internalType": "uint8",
          "name": "",
          "type": "uint8"
        }
      ],
      "name": "publicInfo",
      "outputs": [
        {
          "internalType": "uint8",
          "name": "minPercents",
          "type": "uint8"
        },
        {
          "internalType": "uint8",
          "name": "maxPercents",
          "type": "uint8"
        },
        {
          "internalType": "uint256",
          "name": "delayTime",
          "type": "uint256"
        }
      ],
      "stateMutability": "view",
      "type": "function"
    },
    {
      "inputs": [
        {
          "internalType": "address",
          "name": "account",
          "type": "address"
        }
      ],
      "name": "removeAdmin",
      "outputs": [],
      "stateMutability": "nonpayable",
      "type": "function"
    },
    {
      "inputs": [
        {
          "internalType": "bytes32",
          "name": "role",
          "type": "bytes32"
        },
        {
          "internalType": "address",
          "name": "account",
          "type": "address"
        }
      ],
      "name": "renounceRole",
      "outputs": [],
      "stateMutability": "nonpayable",
      "type": "function"
    },
    {
      "inputs": [
        {
          "internalType": "bytes32",
          "name": "role",
          "type": "bytes32"
        },
        {
          "internalType": "address",
          "name": "account",
          "type": "address"
        }
      ],
      "name": "revokeRole",
      "outputs": [],
      "stateMutability": "nonpayable",
      "type": "function"
    },
    {
      "inputs": [
        {
          "internalType": "bytes4",
          "name": "",
          "type": "bytes4"
        }
      ],
      "name": "selectorImplementation",
      "outputs": [
        {
          "internalType": "address",
          "name": "",
          "type": "address"
        }
      ],
      "stateMutability": "view",
      "type": "function"
    },
    {
      "inputs": [
        {
          "internalType": "uint8[]",
          "name": "tokenTypes",
          "type": "uint8[]"
        },
        {
          "internalType": "address[]",
          "name": "_l1TokenFactorys",
          "type": "address[]"
        }
      ],
      "name": "setL1TokenFactories",
      "outputs": [],
      "stateMutability": "nonpayable",
      "type": "function"
    },
    {
      "inputs": [
        {
          "internalType": "uint8",
          "name": "l2Type",
          "type": "uint8"
        },
        {
          "internalType": "address",
          "name": "_l2TokenFactory",
          "type": "address"
        },
        {
          "internalType": "address",
          "name": "_l2ProjectManager",
          "type": "address"
        },
        {
          "internalType": "uint32",
          "name": "_depositMinGasLimit",
          "type": "uint32"
        },
        {
          "internalType": "uint32",
          "name": "_sendMsgMinGasLimit",
          "type": "uint32"
        }
      ],
      "name": "setL2Infos",
      "outputs": [],
      "stateMutability": "nonpayable",
      "type": "function"
    },
    {
      "inputs": [
        {
          "internalType": "uint8",
          "name": "_min",
          "type": "uint8"
        },
        {
          "internalType": "uint8",
          "name": "_max",
          "type": "uint8"
        },
        {
          "internalType": "uint256",
          "name": "_delayTime",
          "type": "uint256"
        }
      ],
      "name": "setL2PublicSaleValue",
      "outputs": [],
      "stateMutability": "nonpayable",
      "type": "function"
    },
    {
      "inputs": [
        {
          "internalType": "bytes4",
          "name": "interfaceId",
          "type": "bytes4"
        }
      ],
      "name": "supportsInterface",
      "outputs": [
        {
          "internalType": "bool",
          "name": "",
          "type": "bool"
        }
      ],
      "stateMutability": "view",
      "type": "function"
    },
    {
      "inputs": [
        {
          "internalType": "address",
          "name": "newAdmin",
          "type": "address"
        }
      ],
      "name": "transferAdmin",
      "outputs": [],
      "stateMutability": "nonpayable",
      "type": "function"
    },
    {
      "inputs": [
        {
          "components": [
            {
              "components": [
                {
                  "internalType": "uint256",
                  "name": "stosTier1",
                  "type": "uint256"
                },
                {
                  "internalType": "uint256",
                  "name": "stosTier2",
                  "type": "uint256"
                },
                {
                  "internalType": "uint256",
                  "name": "stosTier3",
                  "type": "uint256"
                },
                {
                  "internalType": "uint256",
                  "name": "stosTier4",
                  "type": "uint256"
                },
                {
                  "internalType": "uint256",
                  "name": "tier1Percents",
                  "type": "uint256"
                },
                {
                  "internalType": "uint256",
                  "name": "tier2Percents",
                  "type": "uint256"
                },
                {
                  "internalType": "uint256",
                  "name": "tier3Percents",
                  "type": "uint256"
                },
                {
                  "internalType": "uint256",
                  "name": "tier4Percents",
                  "type": "uint256"
                },
                {
                  "internalType": "uint256",
                  "name": "total1roundSaleAmount",
                  "type": "uint256"
                },
                {
                  "internalType": "uint256",
                  "name": "total2roundSaleAmount",
                  "type": "uint256"
                },
                {
                  "internalType": "uint256",
                  "name": "saleTokenPrice",
                  "type": "uint256"
                },
                {
                  "internalType": "uint256",
                  "name": "payTokenPrice",
                  "type": "uint256"
                },
                {
                  "internalType": "uint256",
                  "name": "hardcapAmount",
                  "type": "uint256"
                },
                {
                  "internalType": "uint256",
                  "name": "changeTOSPercent",
                  "type": "uint256"
                },
                {
                  "internalType": "uint256",
                  "name": "startWhiteTime",
                  "type": "uint256"
                },
                {
                  "internalType": "uint256",
                  "name": "endWhiteTime",
                  "type": "uint256"
                },
                {
                  "internalType": "uint256",
                  "name": "start1roundTime",
                  "type": "uint256"
                },
                {
                  "internalType": "uint256",
                  "name": "end1roundTime",
                  "type": "uint256"
                },
                {
                  "internalType": "uint256",
                  "name": "snapshotTime",
                  "type": "uint256"
                },
                {
                  "internalType": "uint256",
                  "name": "start2roundTime",
                  "type": "uint256"
                },
                {
                  "internalType": "uint256",
                  "name": "end2roundTime",
                  "type": "uint256"
                }
              ],
              "internalType": "struct LibProject.InitalParameterPublicSaleVault",
              "name": "vaultParams",
              "type": "tuple"
            },
            {
              "components": [
                {
                  "internalType": "uint256",
                  "name": "claimCounts",
                  "type": "uint256"
                },
                {
                  "internalType": "uint256",
                  "name": "firstClaimPercent",
                  "type": "uint256"
                },
                {
                  "internalType": "uint256",
                  "name": "firstClaimTime",
                  "type": "uint256"
                },
                {
                  "internalType": "uint256",
                  "name": "secondClaimTime",
                  "type": "uint256"
                },
                {
                  "internalType": "uint256",
                  "name": "roundInterval",
                  "type": "uint256"
                }
              ],
              "internalType": "struct LibProject.InitalParameterPublicSaleClaim",
              "name": "claimParams",
              "type": "tuple"
            },
            {
              "components": [
                {
                  "internalType": "address",
                  "name": "receiveAddress",
                  "type": "address"
                },
                {
                  "internalType": "uint256",
                  "name": "totalClaimCount",
                  "type": "uint256"
                },
                {
                  "internalType": "uint256",
                  "name": "firstClaimPercent",
                  "type": "uint256"
                },
                {
                  "internalType": "uint256",
                  "name": "firstClaimTime",
                  "type": "uint256"
                },
                {
                  "internalType": "uint256",
                  "name": "secondClaimTime",
                  "type": "uint256"
                },
                {
                  "internalType": "uint256",
                  "name": "roundIntervalTime",
                  "type": "uint256"
                },
                {
                  "internalType": "uint24",
                  "name": "fee",
                  "type": "uint24"
                }
              ],
              "internalType": "struct LibProject.InitalParameterVestingFundVault",
              "name": "vestingParams",
              "type": "tuple"
            }
          ],
          "internalType": "struct LibProject.InitalParameterPublicSale",
          "name": "publicSaleParams",
          "type": "tuple"
        }
      ],
      "name": "validationPublicSaleVaults",
      "outputs": [
        {
          "internalType": "bool",
          "name": "valid",
          "type": "bool"
        },
        {
          "internalType": "string",
          "name": "resean",
          "type": "string"
        }
      ],
      "stateMutability": "view",
      "type": "function"
    },
    {
      "inputs": [
        {
          "internalType": "uint256",
          "name": "totalAmount",
          "type": "uint256"
        },
        {
          "components": [
            {
              "components": [
                {
                  "components": [
                    {
                      "internalType": "uint256",
                      "name": "stosTier1",
                      "type": "uint256"
                    },
                    {
                      "internalType": "uint256",
                      "name": "stosTier2",
                      "type": "uint256"
                    },
                    {
                      "internalType": "uint256",
                      "name": "stosTier3",
                      "type": "uint256"
                    },
                    {
                      "internalType": "uint256",
                      "name": "stosTier4",
                      "type": "uint256"
                    },
                    {
                      "internalType": "uint256",
                      "name": "tier1Percents",
                      "type": "uint256"
                    },
                    {
                      "internalType": "uint256",
                      "name": "tier2Percents",
                      "type": "uint256"
                    },
                    {
                      "internalType": "uint256",
                      "name": "tier3Percents",
                      "type": "uint256"
                    },
                    {
                      "internalType": "uint256",
                      "name": "tier4Percents",
                      "type": "uint256"
                    },
                    {
                      "internalType": "uint256",
                      "name": "total1roundSaleAmount",
                      "type": "uint256"
                    },
                    {
                      "internalType": "uint256",
                      "name": "total2roundSaleAmount",
                      "type": "uint256"
                    },
                    {
                      "internalType": "uint256",
                      "name": "saleTokenPrice",
                      "type": "uint256"
                    },
                    {
                      "internalType": "uint256",
                      "name": "payTokenPrice",
                      "type": "uint256"
                    },
                    {
                      "internalType": "uint256",
                      "name": "hardcapAmount",
                      "type": "uint256"
                    },
                    {
                      "internalType": "uint256",
                      "name": "changeTOSPercent",
                      "type": "uint256"
                    },
                    {
                      "internalType": "uint256",
                      "name": "startWhiteTime",
                      "type": "uint256"
                    },
                    {
                      "internalType": "uint256",
                      "name": "endWhiteTime",
                      "type": "uint256"
                    },
                    {
                      "internalType": "uint256",
                      "name": "start1roundTime",
                      "type": "uint256"
                    },
                    {
                      "internalType": "uint256",
                      "name": "end1roundTime",
                      "type": "uint256"
                    },
                    {
                      "internalType": "uint256",
                      "name": "snapshotTime",
                      "type": "uint256"
                    },
                    {
                      "internalType": "uint256",
                      "name": "start2roundTime",
                      "type": "uint256"
                    },
                    {
                      "internalType": "uint256",
                      "name": "end2roundTime",
                      "type": "uint256"
                    }
                  ],
                  "internalType": "struct LibProject.InitalParameterPublicSaleVault",
                  "name": "vaultParams",
                  "type": "tuple"
                },
                {
                  "components": [
                    {
                      "internalType": "uint256",
                      "name": "claimCounts",
                      "type": "uint256"
                    },
                    {
                      "internalType": "uint256",
                      "name": "firstClaimPercent",
                      "type": "uint256"
                    },
                    {
                      "internalType": "uint256",
                      "name": "firstClaimTime",
                      "type": "uint256"
                    },
                    {
                      "internalType": "uint256",
                      "name": "secondClaimTime",
                      "type": "uint256"
                    },
                    {
                      "internalType": "uint256",
                      "name": "roundInterval",
                      "type": "uint256"
                    }
                  ],
                  "internalType": "struct LibProject.InitalParameterPublicSaleClaim",
                  "name": "claimParams",
                  "type": "tuple"
                },
                {
                  "components": [
                    {
                      "internalType": "address",
                      "name": "receiveAddress",
                      "type": "address"
                    },
                    {
                      "internalType": "uint256",
                      "name": "totalClaimCount",
                      "type": "uint256"
                    },
                    {
                      "internalType": "uint256",
                      "name": "firstClaimPercent",
                      "type": "uint256"
                    },
                    {
                      "internalType": "uint256",
                      "name": "firstClaimTime",
                      "type": "uint256"
                    },
                    {
                      "internalType": "uint256",
                      "name": "secondClaimTime",
                      "type": "uint256"
                    },
                    {
                      "internalType": "uint256",
                      "name": "roundIntervalTime",
                      "type": "uint256"
                    },
                    {
                      "internalType": "uint24",
                      "name": "fee",
                      "type": "uint24"
                    }
                  ],
                  "internalType": "struct LibProject.InitalParameterVestingFundVault",
                  "name": "vestingParams",
                  "type": "tuple"
                }
              ],
              "internalType": "struct LibProject.InitalParameterPublicSale",
              "name": "publicSaleParams",
              "type": "tuple"
            },
            {
              "components": [
                {
                  "internalType": "uint256",
                  "name": "totalAllocatedAmount",
                  "type": "uint256"
                },
                {
                  "internalType": "uint256",
                  "name": "tosPrice",
                  "type": "uint256"
                },
                {
                  "internalType": "uint256",
                  "name": "tokenPrice",
                  "type": "uint256"
                },
                {
                  "internalType": "uint256",
                  "name": "initSqrtPrice",
                  "type": "uint256"
                },
                {
                  "internalType": "uint32",
                  "name": "startTime",
                  "type": "uint32"
                },
                {
                  "internalType": "uint16",
                  "name": "fee",
                  "type": "uint16"
                }
              ],
              "internalType": "struct LibProject.InitalParameterInitialLiquidityVault",
              "name": "initialVaultParams",
              "type": "tuple"
            },
            {
              "components": [
                {
                  "components": [
                    {
                      "internalType": "address",
                      "name": "token0",
                      "type": "address"
                    },
                    {
                      "internalType": "address",
                      "name": "token1",
                      "type": "address"
                    },
                    {
                      "internalType": "uint24",
                      "name": "fee",
                      "type": "uint24"
                    }
                  ],
                  "internalType": "struct LibPool.PoolInfo",
                  "name": "poolParams",
                  "type": "tuple"
                },
                {
                  "components": [
                    {
                      "internalType": "address",
                      "name": "claimer",
                      "type": "address"
                    },
                    {
                      "internalType": "uint256",
                      "name": "totalAllocatedAmount",
                      "type": "uint256"
                    },
                    {
                      "internalType": "uint256",
                      "name": "totalClaimCount",
                      "type": "uint256"
                    },
                    {
                      "internalType": "uint256",
                      "name": "firstClaimAmount",
                      "type": "uint256"
                    },
                    {
                      "internalType": "uint32",
                      "name": "firstClaimTime",
                      "type": "uint32"
                    },
                    {
                      "internalType": "uint32",
                      "name": "secondClaimTime",
                      "type": "uint32"
                    },
                    {
                      "internalType": "uint32",
                      "name": "roundIntervalTime",
                      "type": "uint32"
                    }
                  ],
                  "internalType": "struct LibProject.InitalParameterScheduleVault",
                  "name": "params",
                  "type": "tuple"
                }
              ],
              "internalType": "struct LibProject.InitalParameterLiquidityRewardVault",
              "name": "rewardTonTosPoolParams",
              "type": "tuple"
            },
            {
              "components": [
                {
                  "components": [
                    {
                      "internalType": "address",
                      "name": "token0",
                      "type": "address"
                    },
                    {
                      "internalType": "address",
                      "name": "token1",
                      "type": "address"
                    },
                    {
                      "internalType": "uint24",
                      "name": "fee",
                      "type": "uint24"
                    }
                  ],
                  "internalType": "struct LibPool.PoolInfo",
                  "name": "poolParams",
                  "type": "tuple"
                },
                {
                  "components": [
                    {
                      "internalType": "address",
                      "name": "claimer",
                      "type": "address"
                    },
                    {
                      "internalType": "uint256",
                      "name": "totalAllocatedAmount",
                      "type": "uint256"
                    },
                    {
                      "internalType": "uint256",
                      "name": "totalClaimCount",
                      "type": "uint256"
                    },
                    {
                      "internalType": "uint256",
                      "name": "firstClaimAmount",
                      "type": "uint256"
                    },
                    {
                      "internalType": "uint32",
                      "name": "firstClaimTime",
                      "type": "uint32"
                    },
                    {
                      "internalType": "uint32",
                      "name": "secondClaimTime",
                      "type": "uint32"
                    },
                    {
                      "internalType": "uint32",
                      "name": "roundIntervalTime",
                      "type": "uint32"
                    }
                  ],
                  "internalType": "struct LibProject.InitalParameterScheduleVault",
                  "name": "params",
                  "type": "tuple"
                }
              ],
              "internalType": "struct LibProject.InitalParameterLiquidityRewardVault",
              "name": "rewardProjectTosPoolParams",
              "type": "tuple"
            },
            {
              "components": [
                {
                  "internalType": "address",
                  "name": "claimer",
                  "type": "address"
                },
                {
                  "internalType": "uint256",
                  "name": "totalAllocatedAmount",
                  "type": "uint256"
                },
                {
                  "internalType": "uint256",
                  "name": "totalClaimCount",
                  "type": "uint256"
                },
                {
                  "internalType": "uint256",
                  "name": "firstClaimAmount",
                  "type": "uint256"
                },
                {
                  "internalType": "uint32",
                  "name": "firstClaimTime",
                  "type": "uint32"
                },
                {
                  "internalType": "uint32",
                  "name": "secondClaimTime",
                  "type": "uint32"
                },
                {
                  "internalType": "uint32",
                  "name": "roundIntervalTime",
                  "type": "uint32"
                }
              ],
              "internalType": "struct LibProject.InitalParameterScheduleVault",
              "name": "tosAirdropParams",
              "type": "tuple"
            },
            {
              "components": [
                {
                  "internalType": "address",
                  "name": "claimer",
                  "type": "address"
                },
                {
                  "internalType": "uint256",
                  "name": "totalAllocatedAmount",
                  "type": "uint256"
                },
                {
                  "internalType": "uint256",
                  "name": "totalClaimCount",
                  "type": "uint256"
                },
                {
                  "internalType": "uint256",
                  "name": "firstClaimAmount",
                  "type": "uint256"
                },
                {
                  "internalType": "uint32",
                  "name": "firstClaimTime",
                  "type": "uint32"
                },
                {
                  "internalType": "uint32",
                  "name": "secondClaimTime",
                  "type": "uint32"
                },
                {
                  "internalType": "uint32",
                  "name": "roundIntervalTime",
                  "type": "uint32"
                }
              ],
              "internalType": "struct LibProject.InitalParameterScheduleVault",
              "name": "tonAirdropParams",
              "type": "tuple"
            }
          ],
          "internalType": "struct LibProject.TokamakVaults",
          "name": "tokamakVaults",
          "type": "tuple"
        },
        {
          "components": [
            {
              "internalType": "string",
              "name": "vaultName",
              "type": "string"
            },
            {
              "components": [
                {
                  "internalType": "address",
                  "name": "claimer",
                  "type": "address"
                },
                {
                  "internalType": "uint256",
                  "name": "totalAllocatedAmount",
                  "type": "uint256"
                },
                {
                  "internalType": "uint256",
                  "name": "totalClaimCount",
                  "type": "uint256"
                },
                {
                  "internalType": "uint256",
                  "name": "firstClaimAmount",
                  "type": "uint256"
                },
                {
                  "internalType": "uint32",
                  "name": "firstClaimTime",
                  "type": "uint32"
                },
                {
                  "internalType": "uint32",
                  "name": "secondClaimTime",
                  "type": "uint32"
                },
                {
                  "internalType": "uint32",
                  "name": "roundIntervalTime",
                  "type": "uint32"
                }
              ],
              "internalType": "struct LibProject.InitalParameterScheduleVault",
              "name": "params",
              "type": "tuple"
            }
          ],
          "internalType": "struct LibProject.InitalParameterSchedule[]",
          "name": "customScheduleVaults",
          "type": "tuple[]"
        },
        {
          "components": [
            {
              "internalType": "string",
              "name": "vaultName",
              "type": "string"
            },
            {
              "internalType": "address",
              "name": "claimer",
              "type": "address"
            },
            {
              "internalType": "uint256",
              "name": "totalAllocatedAmount",
              "type": "uint256"
            }
          ],
          "internalType": "struct LibProject.InitalParameterNonScheduleVault[]",
          "name": "customNonScheduleVaults",
          "type": "tuple[]"
        }
      ],
      "name": "validationVaultsParameters",
      "outputs": [
        {
          "internalType": "bool",
          "name": "valid",
          "type": "bool"
        },
        {
          "internalType": "string",
          "name": "resean",
          "type": "string"
        }
      ],
      "stateMutability": "view",
      "type": "function"
    },
    {
      "inputs": [
        {
          "internalType": "uint8",
          "name": "_l2Type",
          "type": "uint8"
        }
      ],
      "name": "viewL2Info",
      "outputs": [
        {
          "components": [
            {
              "internalType": "address",
              "name": "l2TokenFactory",
              "type": "address"
            },
            {
              "internalType": "address",
              "name": "l2ProjectManager",
              "type": "address"
            },
            {
              "internalType": "uint32",
              "name": "depositMinGasLimit",
              "type": "uint32"
            },
            {
              "internalType": "uint32",
              "name": "sendMsgMinGasLimit",
              "type": "uint32"
            }
          ],
          "internalType": "struct LibProject.L2Info",
          "name": "",
          "type": "tuple"
        }
      ],
      "stateMutability": "view",
      "type": "function"
    }
  ],
  "transactionHash": "0x52d5d6fca65ff313c37fb1ded08c87a4543cc40abc17aa0b370a92a60b92f27c",
  "args": [],
  "numDeployments": 1,
  "solcInputHash": "6d04a6cdccfcb7febd8e3a19d630a74b",
  "bytecode": "0x60806040526005805460ff1916600117905534801561001d57600080fd5b5061457c8061002d6000396000f3fe608060405234801561001057600080fd5b50600436106101e55760003560e01c806368f52eb31161010f5780639cba9848116100a2578063b851550c11610071578063b851550c14610589578063b911135f1461066a578063d547741f14610693578063eeff1eb2146106a657600080fd5b80639cba984814610525578063a217fddf14610545578063a902c63a1461054d578063b4a35e0f1461056057600080fd5b806375b238fc116100de57806375b238fc1461042e578063846fa8f814610455578063902293ab1461046857806391d14854146104ec57600080fd5b806368f52eb3146103e257806370480275146103f557806374918e841461040857806375829def1461041b57600080fd5b806324d3e6471161018757806336fbad261161015657806336fbad261461036857806350d2a27614610371578063550d01a3146103b257806363a8fd89146103d557600080fd5b806324d3e647146102db57806324d7806c1461032f5780632f2ff15d1461034257806336568abe1461035557600080fd5b80631785f53c116101c35780631785f53c1461025b57806320a32b63146102705780632298524614610283578063248a9ca3146102b857600080fd5b806301ffc9a7146101ea5780630e8a820514610212578063107046bd14610233575b600080fd5b6101fd6101f8366004612dd5565b6106b9565b60405190151581526020015b60405180910390f35b610225610220366004613158565b6106f0565b6040516102099291906131c5565b6102466102413660046131e8565b610816565b60405161020999989796959493929190613201565b61026e61026936600461326f565b610904565b005b61026e61027e3660046136cb565b610996565b6102aa7ffb5864e8ff833c3cb2d2d08505e82ff02a43554c74a35d4f5a64e8526127831181565b604051908152602001610209565b6102aa6102c63660046131e8565b60009081526004602052604090206001015490565b61030f6102e9366004613779565b600b602052600090815260409020805460019091015460ff808316926101009004169083565b6040805160ff948516815293909216602084015290820152606001610209565b6101fd61033d36600461326f565b61159f565b61026e610350366004613794565b6115df565b61026e610363366004613794565b611609565b6102aa60065481565b61039a61037f366004612dd5565b6003602052600090815260409020546001600160a01b031681565b6040516001600160a01b039091168152602001610209565b6101fd6103c036600461326f565b60026020526000908152604090205460ff1681565b6000546101fd9060ff1681565b61026e6103f03660046137c4565b611695565b61026e61040336600461326f565b611aa3565b6102aa61041636600461382d565b611b2d565b61026e61042936600461326f565b612063565b6102aa7fdf8b4c520ffe197c5343c6f5aec59570151ef9a492f2c624fd45ddde6135ec4281565b61026e610463366004613966565b6121c5565b6104b5610476366004613779565b600a60205260009081526040902080546001909101546001600160a01b039182169181169063ffffffff600160a01b8204811691600160c01b90041684565b604080516001600160a01b03958616815294909316602085015263ffffffff91821692840192909252166060820152608001610209565b6101fd6104fa366004613794565b60009182526004602090815260408084206001600160a01b0393909316845291905290205460ff1690565b6102aa61053336600461326f565b60096020526000908152604090205481565b6102aa600081565b61026e61055b366004613a26565b612434565b61039a61056e366004613779565b6007602052600090815260409020546001600160a01b031681565b61061f610597366004613779565b6040805160808101825260008082526020820181905291810182905260608101919091525060ff166000908152600a6020908152604091829020825160808101845281546001600160a01b0390811682526001909201549182169281019290925263ffffffff600160a01b8204811693830193909352600160c01b9004909116606082015290565b6040805182516001600160a01b039081168252602080850151909116908201528282015163ffffffff9081169282019290925260609283015190911691810191909152608001610209565b61039a6106783660046131e8565b6001602052600090815260409020546001600160a01b031681565b61026e6106a1366004613794565b612524565b6102256106b4366004613a62565b612549565b60006001600160e01b03198216637965db0b60e01b14806106ea57506301ffc9a760e01b6001600160e01b03198316145b92915050565b6000808052600b602090815260408051606081810183527fdf7de25b7f1fd6d0b5205f0e18f1f35bd7b8d84cce336588d184533ce43a6f765460ff81811680855261010090920416948301949094527fdf7de25b7f1fd6d0b5205f0e18f1f35bd7b8d84cce336588d184533ce43a6f77549282019290925284516101a0015191929091108061078b575083516101a00151602082015160ff16105b156107b757600060405180604001604052806002815260200161463160f01b8152509250925050915091565b83516101c0015160408201516107cd9042613afa565b11156107fa57600060405180604001604052806002815260200161463160f01b8152509250925050915091565b6001604051806020016040528060008152509250925050915091565b600860205260009081526040902080546001820154600283015460038401546004850154600586015460068701546007880180546001600160a01b039889169997891698968716979587169690941694929360ff808416946101009094041692919061088190613b0d565b80601f01602080910402602001604051908101604052809291908181526020018280546108ad90613b0d565b80156108fa5780601f106108cf576101008083540402835291602001916108fa565b820191906000526020600020905b8154815290600101906020018083116108dd57829003601f168201915b5050505050905089565b61090d3361159f565b6109695760405162461bcd60e51b815260206004820152602260248201527f41636365737369626c653a2043616c6c6572206973206e6f7420616e2061646d60448201526134b760f11b60648201526084015b60405180910390fd5b6109937fdf8b4c520ffe197c5343c6f5aec59570151ef9a492f2c624fd45ddde6135ec4282611609565b50565b846001600160a01b0381166109d25760405162461bcd60e51b81526020600482015260026024820152612d1960f11b6044820152606401610960565b8480600003610a085760405162461bcd60e51b81526020600482015260026024820152615a3160f01b6044820152606401610960565b600088815260086020908152604080832081516101208101835281546001600160a01b0390811682526001830154811694820194909452600282015484169281019290925260038101548316606083015260048101549092166080820152600582015460a0820152600682015460ff80821660c0840152610100918290041660e083015260078301805492939291840191610aa290613b0d565b80601f0160208091040260200160405190810160405280929190818152602001828054610ace90613b0d565b8015610b1b5780601f10610af057610100808354040283529160200191610b1b565b820191906000526020600020905b815481529060010190602001808311610afe57829003601f168201915b5050509190925250508151919250506001600160a01b031615801590610b4a575080516001600160a01b031633145b610b965760405162461bcd60e51b815260206004820152601b60248201527f63616c6c6572206973206e6f742070726f6a6563744f776e65722e00000000006044820152606401610960565b60608101516001600160a01b031615610bf15760405162461bcd60e51b815260206004820152601060248201527f616c7265616479206c61756e63686564000000000000000000000000000000006044820152606401610960565b6040808201516001600160a01b03166000908152600960205220548914610c5a5760405162461bcd60e51b815260206004820152600d60248201527f77726f6e67206c31546f6b656e000000000000000000000000000000000000006044820152606401610960565b608081015160405163507c8bd160e01b81526001600160a01b03909116600482015260009073F6f91501E93704ebF17bfc31F64cEf1FbfD108259063507c8bd190602401602060405180830381865af4158015610cbb573d6000803e3d6000fd5b505050506040513d601f19601f82011682018060405250810190610cdf9190613b47565b90506001600160a01b038116610d375760405162461bcd60e51b815260206004820152601a60248201527f6c314d657373656e676572206973205a65726f416464726573730000000000006044820152606401610960565b600063589b8ec960e01b83604001518b8d8c8c8c8c604051602401610d629796959493929190613dbf565b604051602081830303815290604052906001600160e01b0319166020820180516001600160e01b03838183161783525050505090506000808073F6f91501E93704ebF17bfc31F64cEf1FbfD1082563f6266b748c6040518263ffffffff1660e01b8152600401610dd29190613f57565b6040805180830381865af4158015610dee573d6000803e3d6000fd5b505050506040513d601f19601f82011682018060405250810190610e1291906140ae565b9150915081610e635760405162461bcd60e51b815260206004820152601b60248201527f546f6b616d616b5661756c7473207661696c64617465206661696c00000000006044820152606401610960565b6000610e728c600001516106f0565b50905080610ec25760405162461bcd60e51b815260206004820152601960248201527f5075626c69635661756c74207661696c64617465206661696c000000000000006044820152606401610960565b610ecc8285613afa565b93508a51600014610fbc5760008073F6f91501E93704ebF17bfc31F64cEf1FbfD108256308d8b1ac8e6040518263ffffffff1660e01b8152600401610f1191906140da565b6040805180830381865af4158015610f2d573d6000803e3d6000fd5b505050506040513d601f19601f82011682018060405250810190610f5191906140ae565b9150915081610fad5760405162461bcd60e51b815260206004820152602260248201527f637573746f6d5363686564756c655661756c7473207661696c646174652066616044820152611a5b60f21b6064820152608401610960565b610fb78187613afa565b955050505b8a51156110ab5760008073F6f91501E93704ebF17bfc31F64cEf1FbfD1082563a95614d68d6040518263ffffffff1660e01b8152600401610ffd919061415d565b6040805180830381865af4158015611019573d6000803e3d6000fd5b505050506040513d601f19601f8201168201806040525081019061103d91906140ae565b915091508161109c5760405162461bcd60e51b815260206004820152602560248201527f637573746f6d4e6f6e5363686564756c655661756c7473207661696c646174656044820152640819985a5b60da1b6064820152608401610960565b6110a68187613afa565b955050505b8c84146111205760405162461bcd60e51b815260206004820152603560248201527f746f74616c416d6f756e7420697320646966666572656e742066726f6d20766160448201527f756c747320616c6c6f636174656420616d6f756e7400000000000000000000006064820152608401610960565b60008f90508e6008600083815260200190815260200160002060030160006101000a8154816001600160a01b0302191690836001600160a01b031602179055508e88606001906001600160a01b031690816001600160a01b03168152505060006008600083815260200190815260200160002060020160009054906101000a90046001600160a01b03166001600160a01b03166370a08231306040518263ffffffff1660e01b81526004016111e491906001600160a01b0391909116815260200190565b602060405180830381865afa158015611201573d6000803e3d6000fd5b505050506040513d601f19601f8201168201806040525081019061122591906141e7565b90508860a001518111158015611241575060c089015160ff1615155b156113475788604001516001600160a01b03166340c10f1930838c60a0015161126a9190614200565b6040516001600160e01b031960e085901b1681526001600160a01b0390921660048301526024820152604401600060405180830381600087803b1580156112b057600080fd5b505af11580156112c4573d6000803e3d6000fd5b505050600083815260086020526040908190206002015490516370a0823160e01b81523060048201526001600160a01b0390911691506370a0823190602401602060405180830381865afa158015611320573d6000803e3d6000fd5b505050506040513d601f19601f8201168201806040525081019061134491906141e7565b90505b8860a0015181101561139b5760405162461bcd60e51b815260206004820152601760248201527f62616c616e636520697320696e73756666696369656e740000000000000000006044820152606401610960565b6000600a60008b60e0015160ff1660ff1681526020019081526020016000206040518060800160405290816000820160009054906101000a90046001600160a01b03166001600160a01b03166001600160a01b031681526020016001820160009054906101000a90046001600160a01b03166001600160a01b03166001600160a01b031681526020016001820160149054906101000a900463ffffffff1663ffffffff1663ffffffff1681526020016001820160189054906101000a900463ffffffff1663ffffffff1663ffffffff168152505090506114b98a608001518b604001518c6060015184602001518e60a001518660400151896040516020016114a591815260200190565b604051602081830303815290604052612831565b60208101516060820151604051633dbb202b60e01b81526001600160a01b038c1692633dbb202b926114f0928d9190600401614213565b600060405180830381600087803b15801561150a57600080fd5b505af115801561151e573d6000803e3d6000fd5b505050507f79fdfe585876a2a3eed99468134317d55495d4fd731029da495b24da1266fa70838b604001518c606001518d60a0015160405161158394939291909384526001600160a01b03928316602085015291166040830152606082015260800190565b60405180910390a1505050505050505050505050505050505050565b6001600160a01b03811660009081527f2fb794d17134dfdec181ddbac1babb5ab1eb140204ef4d982f294e7fc8b69022602052604081205460ff166106ea565b6000828152600460205260409020600101546115fa81612a6f565b6116048383612a79565b505050565b6001600160a01b03811633146116875760405162461bcd60e51b815260206004820152602f60248201527f416363657373436f6e74726f6c3a2063616e206f6e6c792072656e6f756e636560448201527f20726f6c657320666f722073656c6600000000000000000000000000000000006064820152608401610960565b6116918282612b1b565b5050565b836001600160a01b0381166116d15760405162461bcd60e51b81526020600482015260026024820152612d1960f11b6044820152606401610960565b836001600160a01b03811661170d5760405162461bcd60e51b81526020600482015260026024820152612d1960f11b6044820152606401610960565b8363ffffffff16806000036117495760405162461bcd60e51b81526020600482015260026024820152615a3160f01b6044820152606401610960565b8363ffffffff16806000036117855760405162461bcd60e51b81526020600482015260026024820152615a3160f01b6044820152606401610960565b61178e3361159f565b6117e55760405162461bcd60e51b815260206004820152602260248201527f41636365737369626c653a2043616c6c6572206973206e6f7420616e2061646d60448201526134b760f11b6064820152608401610960565b600260ff8a16106118385760405162461bcd60e51b815260206004820152601260248201527f756e737570706f72746564206c325479706500000000000000000000000000006044820152606401610960565b60ff89166000908152600a60205260409020546001600160a01b038981169116141580611886575060ff89166000908152600a60205260409020600101546001600160a01b03888116911614155b806118b6575060ff89166000908152600a602052604090206001015463ffffffff878116600160a01b9092041614155b806118e6575060ff89166000908152600a602052604090206001015463ffffffff868116600160c01b9092041614155b61191b5760405162461bcd60e51b81526004016109609060208082526004908201526373616d6560e01b604082015260600190565b600060405180608001604052808a6001600160a01b03168152602001896001600160a01b031681526020018863ffffffff1681526020018763ffffffff16815250905080600a60008c60ff1660ff16815260200190815260200160002060008201518160000160006101000a8154816001600160a01b0302191690836001600160a01b0316021790555060208201518160010160006101000a8154816001600160a01b0302191690836001600160a01b0316021790555060408201518160010160146101000a81548163ffffffff021916908363ffffffff16021790555060608201518160010160186101000a81548163ffffffff021916908363ffffffff1602179055509050507f5e8ef59fdf78b3376941ed3157b8c3d49139b1f4c1857bf531766c1c1e3a97c98a8a8a8a8a604051611a8f95949392919060ff9590951685526001600160a01b03938416602086015291909216604084015263ffffffff918216606084015216608082015260a00190565b60405180910390a150505050505050505050565b611aac3361159f565b611b035760405162461bcd60e51b815260206004820152602260248201527f41636365737369626c653a2043616c6c6572206973206e6f7420616e2061646d60448201526134b760f11b6064820152608401610960565b6109937fdf8b4c520ffe197c5343c6f5aec59570151ef9a492f2c624fd45ddde6135ec42826115df565b60006001600160a01b03891615801590611b4f57506001600160a01b03881615155b8015611b6357506001600160a01b03871615155b611baf5760405162461bcd60e51b815260206004820152600c60248201527f7a65726f206164647265737300000000000000000000000000000000000000006044820152606401610960565b8351600003611c005760405162461bcd60e51b815260206004820152601360248201527f70726f6a6563744e616d65206973206e756c6c000000000000000000000000006044820152606401610960565b8251600003611c515760405162461bcd60e51b815260206004820152601160248201527f746f6b656e4e616d65206973206e756c6c0000000000000000000000000000006044820152606401610960565b8151600003611ca25760405162461bcd60e51b815260206004820152601360248201527f746f6b656e53796d626f6c206973206e756c6c000000000000000000000000006044820152606401610960565b600460ff8616108015611ccf575060ff85166000908152600760205260409020546001600160a01b031615155b611d2a5760405162461bcd60e51b815260206004820152602660248201527f77726f6e6720746f6b656e54797065206f72207a65726f206c31546f6b656e466044820152656163746f727960d01b6064820152608401610960565b60ff8516600090815260076020526040808220549051634692ed6760e01b81526001600160a01b0390911690634692ed6790611d7090879087908c90309060040161424b565b6020604051808303816000875af1158015611d8f573d6000803e3d6000fd5b505050506040513d601f19601f82011682018060405250810190611db39190613b47565b90506001600160a01b038116611e0b5760405162461bcd60e51b815260206004820152601160248201527f7a65726f2070726f6a656374546f6b656e0000000000000000000000000000006044820152606401610960565b6000600660008154611e1c90614291565b91905081905590506040518061012001604052808b6001600160a01b031681526020018c6001600160a01b03168152602001836001600160a01b0316815260200160006001600160a01b031681526020018a6001600160a01b031681526020018981526020018860ff168152602001600060ff168152602001878152506008600083815260200190815260200160002060008201518160000160006101000a8154816001600160a01b0302191690836001600160a01b0316021790555060208201518160010160006101000a8154816001600160a01b0302191690836001600160a01b0316021790555060408201518160020160006101000a8154816001600160a01b0302191690836001600160a01b0316021790555060608201518160030160006101000a8154816001600160a01b0302191690836001600160a01b0316021790555060808201518160040160006101000a8154816001600160a01b0302191690836001600160a01b0316021790555060a0820151816005015560c08201518160060160006101000a81548160ff021916908360ff16021790555060e08201518160060160016101000a81548160ff021916908360ff160217905550610100820151816007019081611fef91906142f8565b5050506001600160a01b03821660009081526009602052604090819020829055517fe6f52bbfc9201025b3af0483a2cb6b38980deee467b4cea0217319cae691d3a39061204d90849084908f908f908f908f908e908e908e906143b8565b60405180910390a19a9950505050505050505050565b61206c3361159f565b6120c35760405162461bcd60e51b815260206004820152602260248201527f41636365737369626c653a2043616c6c6572206973206e6f7420616e2061646d60448201526134b760f11b6064820152608401610960565b6001600160a01b0381166121195760405162461bcd60e51b815260206004820152601860248201527f41636365737369626c653a207a65726f206164647265737300000000000000006044820152606401610960565b6001600160a01b03811633036121715760405162461bcd60e51b815260206004820152601660248201527f41636365737369626c653a2073616d652061646d696e000000000000000000006044820152606401610960565b61219b7fdf8b4c520ffe197c5343c6f5aec59570151ef9a492f2c624fd45ddde6135ec42826115df565b6109937fdf8b4c520ffe197c5343c6f5aec59570151ef9a492f2c624fd45ddde6135ec4233611609565b6121ce3361159f565b6122255760405162461bcd60e51b815260206004820152602260248201527f41636365737369626c653a2043616c6c6572206973206e6f7420616e2061646d60448201526134b760f11b6064820152608401610960565b815115801590612236575080518251145b6122825760405162461bcd60e51b815260206004820152600c60248201527f77726f6e67206c656e67746800000000000000000000000000000000000000006044820152606401610960565b815160005b8181101561242e57600460ff168482815181106122a6576122a661442a565b602002602001015160ff16106122fe5760405162461bcd60e51b815260206004820152601660248201527f756e737570706f7274656420746f6b656e2074797065000000000000000000006044820152606401610960565b8281815181106123105761231061442a565b60200260200101516001600160a01b0316600760008684815181106123375761233761442a565b60209081029190910181015160ff168252810191909152604001600020546001600160a01b0316036123ab5760405162461bcd60e51b815260206004820152600c60248201527f73616d65206164647265737300000000000000000000000000000000000000006044820152606401610960565b8281815181106123bd576123bd61442a565b6020026020010151600760008684815181106123db576123db61442a565b602002602001015160ff1660ff16815260200190815260200160002060006101000a8154816001600160a01b0302191690836001600160a01b03160217905550808061242690614291565b915050612287565b50505050565b61243d3361159f565b6124945760405162461bcd60e51b815260206004820152602260248201527f41636365737369626c653a2043616c6c6572206973206e6f7420616e2061646d60448201526134b760f11b6064820152608401610960565b6040805160608101825260ff9485168152928416602080850191825291840192835260008052600b90915291517fdf7de25b7f1fd6d0b5205f0e18f1f35bd7b8d84cce336588d184533ce43a6f768054935185166101000261ffff19909416919094161791909117909155517fdf7de25b7f1fd6d0b5205f0e18f1f35bd7b8d84cce336588d184533ce43a6f7755565b60008281526004602052604090206001015461253f81612a6f565b6116048383612b1b565b600060606000808073F6f91501E93704ebF17bfc31F64cEf1FbfD1082563f6266b74896040518263ffffffff1660e01b81526004016125889190613f57565b6040805180830381865af41580156125a4573d6000803e3d6000fd5b505050506040513d601f19601f820116820180604052508101906125c891906140ae565b91509150816125fa57600060405180604001604052806002815260200161463160f01b81525094509450505050612828565b600061260989600001516106f0565b509050806126425760405162461bcd60e51b81526004016109609060208082526004908201526346312d3160e01b604082015260600190565b61264c8285613afa565b935087516000146127165760008073F6f91501E93704ebF17bfc31F64cEf1FbfD108256308d8b1ac8b6040518263ffffffff1660e01b815260040161269191906140da565b6040805180830381865af41580156126ad573d6000803e3d6000fd5b505050506040513d601f19601f820116820180604052508101906126d191906140ae565b90925090506126e08187613afa565b95508161271357600060405180604001604052806002815260200161231960f11b81525097509750505050505050612828565b50505b8751156127dc5760008073F6f91501E93704ebF17bfc31F64cEf1FbfD1082563a95614d68a6040518263ffffffff1660e01b8152600401612757919061415d565b6040805180830381865af4158015612773573d6000803e3d6000fd5b505050506040513d601f19601f8201168201806040525081019061279791906140ae565b90925090506127a68187613afa565b9550816127d957600060405180604001604052806002815260200161463360f01b81525097509750505050505050612828565b50505b838a1461280d57600060405180604001604052806002815260200161118d60f21b8152509550955050505050612828565b60016040518060200160405280600081525095509550505050505b94509492505050565b604051639da3176160e01b81526001600160a01b038816600482015260009073F6f91501E93704ebF17bfc31F64cEf1FbfD1082590639da3176190602401602060405180830381865af415801561288c573d6000803e3d6000fd5b505050506040513d601f19601f820116820180604052508101906128b09190613b47565b90506001600160a01b0381166129085760405162461bcd60e51b815260206004820152601760248201527f6c31427269646765206973205a65726f416464726573730000000000000000006044820152606401610960565b604051636eb1769f60e11b81523060048201526001600160a01b0382811660248301526000919089169063dd62ed3e90604401602060405180830381865afa158015612958573d6000803e3d6000fd5b505050506040513d601f19601f8201168201806040525081019061297c91906141e7565b9050848110156129fc5760405163095ea7b360e01b81526001600160a01b038381166004830152600019602483015289169063095ea7b3906044016020604051808303816000875af11580156129d6573d6000803e3d6000fd5b505050506040513d601f19601f820116820180604052508101906129fa9190614440565b505b60405163041c592960e51b81526001600160a01b0383169063838b252090612a32908b908b908b908b908b908b9060040161445b565b600060405180830381600087803b158015612a4c57600080fd5b505af1158015612a60573d6000803e3d6000fd5b50505050505050505050505050565b6109938133612b9e565b60008281526004602090815260408083206001600160a01b038516845290915290205460ff166116915760008281526004602090815260408083206001600160a01b03851684529091529020805460ff19166001179055612ad73390565b6001600160a01b0316816001600160a01b0316837f2f8788117e7eff1d82e926ec794901d17c78024a50270940304540a733656f0d60405160405180910390a45050565b60008281526004602090815260408083206001600160a01b038516845290915290205460ff16156116915760008281526004602090815260408083206001600160a01b0385168085529252808320805460ff1916905551339285917ff6391f5c32d9c69d2a47ea670b442974b53935d1edc7fd64eb21e047a839171b9190a45050565b60008281526004602090815260408083206001600160a01b038516845290915290205460ff1661169157612bd181612c13565b612bdc836020612c25565b604051602001612bed9291906144ad565b60408051601f198184030181529082905262461bcd60e51b82526109609160040161452e565b60606106ea6001600160a01b03831660145b60606000612c34836002614541565b612c3f906002613afa565b67ffffffffffffffff811115612c5757612c57612dff565b6040519080825280601f01601f191660200182016040528015612c81576020820181803683370190505b509050600360fc1b81600081518110612c9c57612c9c61442a565b60200101906001600160f81b031916908160001a905350600f60fb1b81600181518110612ccb57612ccb61442a565b60200101906001600160f81b031916908160001a9053506000612cef846002614541565b612cfa906001613afa565b90505b6001811115612d7f577f303132333435363738396162636465660000000000000000000000000000000085600f1660108110612d3b57612d3b61442a565b1a60f81b828281518110612d5157612d5161442a565b60200101906001600160f81b031916908160001a90535060049490941c93612d7881614558565b9050612cfd565b508315612dce5760405162461bcd60e51b815260206004820181905260248201527f537472696e67733a20686578206c656e67746820696e73756666696369656e746044820152606401610960565b9392505050565b600060208284031215612de757600080fd5b81356001600160e01b031981168114612dce57600080fd5b634e487b7160e01b600052604160045260246000fd5b60405160e0810167ffffffffffffffff81118282101715612e3857612e38612dff565b60405290565b6040516060810167ffffffffffffffff81118282101715612e3857612e38612dff565b6040516102a0810167ffffffffffffffff81118282101715612e3857612e38612dff565b6040805190810167ffffffffffffffff81118282101715612e3857612e38612dff565b60405160c0810167ffffffffffffffff81118282101715612e3857612e38612dff565b604051601f8201601f1916810167ffffffffffffffff81118282101715612ef457612ef4612dff565b604052919050565b600060a08284031215612f0e57600080fd5b60405160a0810181811067ffffffffffffffff82111715612f3157612f31612dff565b806040525080915082358152602083013560208201526040830135604082015260608301356060820152608083013560808201525092915050565b6001600160a01b038116811461099357600080fd5b8035612f8c81612f6c565b919050565b803562ffffff81168114612f8c57600080fd5b600060e08284031215612fb657600080fd5b612fbe612e15565b90508135612fcb81612f6c565b808252506020820135602082015260408201356040820152606082013560608201526080820135608082015260a082013560a082015261300d60c08301612f91565b60c082015292915050565b600081830361042081121561302c57600080fd5b613034612e3e565b91506102a08082121561304657600080fd5b61304e612e61565b843581526020808601359082015260408086013590820152606080860135908201526080808601359082015260a0808601359082015260c0808601359082015260e08086013590820152610100808601359082015261012080860135908201526101408086013590820152610160808601359082015261018080860135908201526101a080860135908201526101c080860135908201526101e0808601359082015261020080860135908201526102208086013590820152610240808601359082015261026080860135908201526102808086013590820152808452915061313885828601612efc565b6020840152505061314d836103408401612fa4565b604082015292915050565b6000610420828403121561316b57600080fd5b612dce8383613018565b60005b83811015613190578181015183820152602001613178565b50506000910152565b600081518084526131b1816020860160208601613175565b601f01601f19169290920160200192915050565b82151581526040602082015260006131e06040830184613199565b949350505050565b6000602082840312156131fa57600080fd5b5035919050565b60006101206001600160a01b03808d168452808c166020850152808b166040850152808a1660608501528089166080850152508660a084015260ff861660c084015260ff851660e08401528061010084015261325f81840185613199565b9c9b505050505050505050505050565b60006020828403121561328157600080fd5b8135612dce81612f6c565b803563ffffffff81168114612f8c57600080fd5b600060e082840312156132b257600080fd5b6132ba612e15565b905081356132c781612f6c565b808252506020820135602082015260408201356040820152606082013560608201526132f56080830161328c565b608082015261330660a0830161328c565b60a082015261300d60c0830161328c565b600081830361014081121561332b57600080fd5b613333612e85565b9150606081121561334357600080fd5b5061334c612e3e565b823561335781612f6c565b8152602083013561336781612f6c565b602082015261337860408401612f91565b6040820152815261338c83606084016132a0565b602082015292915050565b60008183036109208112156133ab57600080fd5b6133b3612ea8565b91506133bf8484613018565b825260c061041f19820112156133d457600080fd5b506133dd612ea8565b61042083013581526104408301356020820152610460830135604082015261048083013560608201526134136104a0840161328c565b60808201526104c083013561ffff8116811461342e57600080fd5b60a08201526020820152613446836104e08401613317565b6040820152613459836106208401613317565b606082015261346c8361076084016132a0565b608082015261347f8361084084016132a0565b60a082015292915050565b600067ffffffffffffffff8211156134a4576134a4612dff565b5060051b60200190565b600082601f8301126134bf57600080fd5b813567ffffffffffffffff8111156134d9576134d9612dff565b6134ec601f8201601f1916602001612ecb565b81815284602083860101111561350157600080fd5b816020850160208301376000918101602001919091529392505050565b600082601f83011261352f57600080fd5b8135602061354461353f8361348a565b612ecb565b82815260059290921b8401810191818101908684111561356357600080fd5b8286015b848110156135ed57803567ffffffffffffffff808211156135885760008081fd5b90880190610100828b03601f190112156135a25760008081fd5b6135aa612e85565b86830135828111156135bc5760008081fd5b6135ca8c89838701016134ae565b8252506135da8b604085016132a0565b8188015285525050918301918301613567565b509695505050505050565b600082601f83011261360957600080fd5b8135602061361961353f8361348a565b82815260059290921b8401810191818101908684111561363857600080fd5b8286015b848110156135ed57803567ffffffffffffffff8082111561365d5760008081fd5b908801906060828b03601f19018113156136775760008081fd5b61367f612e3e565b87840135838111156136915760008081fd5b61369f8d8a838801016134ae565b82525060409250828401356136b381612f6c565b8189015292013590820152835291830191830161363c565b6000806000806000806109c087890312156136e557600080fd5b8635955060208701356136f781612f6c565b94506040870135935061370d8860608901613397565b925061098087013567ffffffffffffffff8082111561372b57600080fd5b6137378a838b0161351e565b93506109a089013591508082111561374e57600080fd5b5061375b89828a016135f8565b9150509295509295509295565b803560ff81168114612f8c57600080fd5b60006020828403121561378b57600080fd5b612dce82613768565b600080604083850312156137a757600080fd5b8235915060208301356137b981612f6c565b809150509250929050565b600080600080600060a086880312156137dc57600080fd5b6137e586613768565b945060208601356137f581612f6c565b9350604086013561380581612f6c565b92506138136060870161328c565b91506138216080870161328c565b90509295509295909350565b600080600080600080600080610100898b03121561384a57600080fd5b61385389612f81565b975061386160208a01612f81565b965061386f60408a01612f81565b95506060890135945061388460808a01613768565b935060a089013567ffffffffffffffff808211156138a157600080fd5b6138ad8c838d016134ae565b945060c08b01359150808211156138c357600080fd5b6138cf8c838d016134ae565b935060e08b01359150808211156138e557600080fd5b506138f28b828c016134ae565b9150509295985092959890939650565b600082601f83011261391357600080fd5b8135602061392361353f8361348a565b82815260059290921b8401810191818101908684111561394257600080fd5b8286015b848110156135ed57803561395981612f6c565b8352918301918301613946565b6000806040838503121561397957600080fd5b823567ffffffffffffffff8082111561399157600080fd5b818501915085601f8301126139a557600080fd5b813560206139b561353f8361348a565b82815260059290921b840181019181810190898411156139d457600080fd5b948201945b838610156139f9576139ea86613768565b825294820194908201906139d9565b96505086013592505080821115613a0f57600080fd5b50613a1c85828601613902565b9150509250929050565b600080600060608486031215613a3b57600080fd5b613a4484613768565b9250613a5260208501613768565b9150604084013590509250925092565b6000806000806109808587031215613a7957600080fd5b84359350613a8a8660208701613397565b925061094085013567ffffffffffffffff80821115613aa857600080fd5b613ab48883890161351e565b9350610960870135915080821115613acb57600080fd5b50613ad8878288016135f8565b91505092959194509250565b634e487b7160e01b600052601160045260246000fd5b808201808211156106ea576106ea613ae4565b600181811c90821680613b2157607f821691505b602082108103613b4157634e487b7160e01b600052602260045260246000fd5b50919050565b600060208284031215613b5957600080fd5b8151612dce81612f6c565b805182526020808201519083015260408082015190830152606080820151908301526080808201519083015260a0808201519083015260c0808201519083015260e08082015190830152610100808201519083015261012080820151908301526101408082015190830152610160808201519083015261018080820151908301526101a080820151908301526101c080820151908301526101e08082015190830152610200808201519083015261022080820151908301526102408082015190830152610260808201519083015261028090810151910152565b6001600160a01b038151168252602081015160208301526040810151604083015260608101516060830152608081015163ffffffff80821660808501528060a08401511660a08501528060c08401511660c085015250505050565b80516001600160a01b038082511684528060208301511660208501525062ffffff60408201511660408401525060208101516116046060840182613c3e565b600081518084526020808501808196508360051b8101915082860160005b85811015613d4157828403895281516101008151818752613d1982880182613199565b915050868201519150613d2e87870183613c3e565b9986019994505090840190600101613cf6565b5091979650505050505050565b600081518084526020808501808196508360051b8101915082860160005b85811015613d41578284038952815160608151818752613d8e82880182613199565b838901516001600160a01b0316888a0152604093840151939097019290925250509784019790840190600101613d6c565b60006109e06001600160a01b03808b168452808a166020850152508760408401528660608401528551613df6608085018251613b64565b6020818101518051610320870152808201516103408701526040808201516103608801526060808301516103808901526080928301516103a08901529381015180516001600160a01b03166103c0890152808401516103e089015280820151610400890152808501516104208901528083015161044089015260a0808201516104608a015260c09091015162ffffff166104808901528a84015180516104a08a0152938401516104c0890152838201516104e0890152938301516105008801529082015163ffffffff1661052087015291015161ffff16610540850152860151613ee4610560850182613c99565b506060860151613ef86106a0850182613c99565b506080860151613f0c6107e0850182613c3e565b5060a0860151613f206108c0850182613c3e565b50806109a0840152613f3481840186613cd8565b90508281036109c0840152613f498185613d4e565b9a9950505050505050505050565b6000610920820190508251613f6d838251613b64565b60208181015180516102a0860152808201516102c08601526040808201516102e08701526060808301516103008801526080928301516103208801529381015180516001600160a01b03166103408801528084015161036088015280820151610380880152808501516103a0880152808301516103c088015260a0808201516103e089015260c09091015162ffffff166104008801528784015180516104208901529384015161044088015283820151610460880152938301516104808701529082015163ffffffff166104a086015291015161ffff166104c084015283015161405b6104e0840182613c99565b50606083015161406f610620840182613c99565b506080830151614083610760840182613c3e565b5060a0830151614097610840840182613c3e565b5092915050565b80518015158114612f8c57600080fd5b600080604083850312156140c157600080fd5b6140ca8361409e565b9150602083015190509250929050565b6000602080830181845280855180835260408601915060408160051b870101925083870160005b8281101561415057603f198886030184528151610100815181885261412882890182613199565b91505087820151915061413d88880183613c3e565b9550509285019290850190600101614101565b5092979650505050505050565b60006020808301818452808551808352604092508286019150828160051b87010184880160005b838110156141d957603f198984030185528151606081518186526141aa82870182613199565b838b01516001600160a01b0316878c015292890151958901959095525094870194925090860190600101614184565b509098975050505050505050565b6000602082840312156141f957600080fd5b5051919050565b818103818111156106ea576106ea613ae4565b6001600160a01b03841681526060602082015260006142356060830185613199565b905063ffffffff83166040830152949350505050565b60808152600061425e6080830187613199565b82810360208401526142708187613199565b9150508360408301526001600160a01b038316606083015295945050505050565b6000600182016142a3576142a3613ae4565b5060010190565b601f82111561160457600081815260208120601f850160051c810160208610156142d15750805b601f850160051c820191505b818110156142f0578281556001016142dd565b505050505050565b815167ffffffffffffffff81111561431257614312612dff565b614326816143208454613b0d565b846142aa565b602080601f83116001811461435b57600084156143435750858301515b600019600386901b1c1916600185901b1785556142f0565b600085815260208120601f198616915b8281101561438a5788860151825594840194600190910190840161436b565b50858210156143a85787850151600019600388901b60f8161c191681555b5050505050600190811b01905550565b60006101206001600160a01b03808d1684528b6020850152808b166040850152808a1660608501528089166080850152508660a08401528060c084015261440181840187613199565b905082810360e08401526144158186613199565b905082810361010084015261325f8185613199565b634e487b7160e01b600052603260045260246000fd5b60006020828403121561445257600080fd5b612dce8261409e565b60006001600160a01b038089168352808816602084015280871660408401525084606083015263ffffffff8416608083015260c060a08301526144a160c0830184613199565b98975050505050505050565b7f416363657373436f6e74726f6c3a206163636f756e74200000000000000000008152600083516144e5816017850160208801613175565b7f206973206d697373696e6720726f6c65200000000000000000000000000000006017918401918201528351614522816028840160208801613175565b01602801949350505050565b602081526000612dce6020830184613199565b80820281158282048414176106ea576106ea613ae4565b60008161456757614567613ae4565b50600019019056fea164736f6c6343000812000a",
  "deployedBytecode": "0x608060405234801561001057600080fd5b50600436106101e55760003560e01c806368f52eb31161010f5780639cba9848116100a2578063b851550c11610071578063b851550c14610589578063b911135f1461066a578063d547741f14610693578063eeff1eb2146106a657600080fd5b80639cba984814610525578063a217fddf14610545578063a902c63a1461054d578063b4a35e0f1461056057600080fd5b806375b238fc116100de57806375b238fc1461042e578063846fa8f814610455578063902293ab1461046857806391d14854146104ec57600080fd5b806368f52eb3146103e257806370480275146103f557806374918e841461040857806375829def1461041b57600080fd5b806324d3e6471161018757806336fbad261161015657806336fbad261461036857806350d2a27614610371578063550d01a3146103b257806363a8fd89146103d557600080fd5b806324d3e647146102db57806324d7806c1461032f5780632f2ff15d1461034257806336568abe1461035557600080fd5b80631785f53c116101c35780631785f53c1461025b57806320a32b63146102705780632298524614610283578063248a9ca3146102b857600080fd5b806301ffc9a7146101ea5780630e8a820514610212578063107046bd14610233575b600080fd5b6101fd6101f8366004612dd5565b6106b9565b60405190151581526020015b60405180910390f35b610225610220366004613158565b6106f0565b6040516102099291906131c5565b6102466102413660046131e8565b610816565b60405161020999989796959493929190613201565b61026e61026936600461326f565b610904565b005b61026e61027e3660046136cb565b610996565b6102aa7ffb5864e8ff833c3cb2d2d08505e82ff02a43554c74a35d4f5a64e8526127831181565b604051908152602001610209565b6102aa6102c63660046131e8565b60009081526004602052604090206001015490565b61030f6102e9366004613779565b600b602052600090815260409020805460019091015460ff808316926101009004169083565b6040805160ff948516815293909216602084015290820152606001610209565b6101fd61033d36600461326f565b61159f565b61026e610350366004613794565b6115df565b61026e610363366004613794565b611609565b6102aa60065481565b61039a61037f366004612dd5565b6003602052600090815260409020546001600160a01b031681565b6040516001600160a01b039091168152602001610209565b6101fd6103c036600461326f565b60026020526000908152604090205460ff1681565b6000546101fd9060ff1681565b61026e6103f03660046137c4565b611695565b61026e61040336600461326f565b611aa3565b6102aa61041636600461382d565b611b2d565b61026e61042936600461326f565b612063565b6102aa7fdf8b4c520ffe197c5343c6f5aec59570151ef9a492f2c624fd45ddde6135ec4281565b61026e610463366004613966565b6121c5565b6104b5610476366004613779565b600a60205260009081526040902080546001909101546001600160a01b039182169181169063ffffffff600160a01b8204811691600160c01b90041684565b604080516001600160a01b03958616815294909316602085015263ffffffff91821692840192909252166060820152608001610209565b6101fd6104fa366004613794565b60009182526004602090815260408084206001600160a01b0393909316845291905290205460ff1690565b6102aa61053336600461326f565b60096020526000908152604090205481565b6102aa600081565b61026e61055b366004613a26565b612434565b61039a61056e366004613779565b6007602052600090815260409020546001600160a01b031681565b61061f610597366004613779565b6040805160808101825260008082526020820181905291810182905260608101919091525060ff166000908152600a6020908152604091829020825160808101845281546001600160a01b0390811682526001909201549182169281019290925263ffffffff600160a01b8204811693830193909352600160c01b9004909116606082015290565b6040805182516001600160a01b039081168252602080850151909116908201528282015163ffffffff9081169282019290925260609283015190911691810191909152608001610209565b61039a6106783660046131e8565b6001602052600090815260409020546001600160a01b031681565b61026e6106a1366004613794565b612524565b6102256106b4366004613a62565b612549565b60006001600160e01b03198216637965db0b60e01b14806106ea57506301ffc9a760e01b6001600160e01b03198316145b92915050565b6000808052600b602090815260408051606081810183527fdf7de25b7f1fd6d0b5205f0e18f1f35bd7b8d84cce336588d184533ce43a6f765460ff81811680855261010090920416948301949094527fdf7de25b7f1fd6d0b5205f0e18f1f35bd7b8d84cce336588d184533ce43a6f77549282019290925284516101a0015191929091108061078b575083516101a00151602082015160ff16105b156107b757600060405180604001604052806002815260200161463160f01b8152509250925050915091565b83516101c0015160408201516107cd9042613afa565b11156107fa57600060405180604001604052806002815260200161463160f01b8152509250925050915091565b6001604051806020016040528060008152509250925050915091565b600860205260009081526040902080546001820154600283015460038401546004850154600586015460068701546007880180546001600160a01b039889169997891698968716979587169690941694929360ff808416946101009094041692919061088190613b0d565b80601f01602080910402602001604051908101604052809291908181526020018280546108ad90613b0d565b80156108fa5780601f106108cf576101008083540402835291602001916108fa565b820191906000526020600020905b8154815290600101906020018083116108dd57829003601f168201915b5050505050905089565b61090d3361159f565b6109695760405162461bcd60e51b815260206004820152602260248201527f41636365737369626c653a2043616c6c6572206973206e6f7420616e2061646d60448201526134b760f11b60648201526084015b60405180910390fd5b6109937fdf8b4c520ffe197c5343c6f5aec59570151ef9a492f2c624fd45ddde6135ec4282611609565b50565b846001600160a01b0381166109d25760405162461bcd60e51b81526020600482015260026024820152612d1960f11b6044820152606401610960565b8480600003610a085760405162461bcd60e51b81526020600482015260026024820152615a3160f01b6044820152606401610960565b600088815260086020908152604080832081516101208101835281546001600160a01b0390811682526001830154811694820194909452600282015484169281019290925260038101548316606083015260048101549092166080820152600582015460a0820152600682015460ff80821660c0840152610100918290041660e083015260078301805492939291840191610aa290613b0d565b80601f0160208091040260200160405190810160405280929190818152602001828054610ace90613b0d565b8015610b1b5780601f10610af057610100808354040283529160200191610b1b565b820191906000526020600020905b815481529060010190602001808311610afe57829003601f168201915b5050509190925250508151919250506001600160a01b031615801590610b4a575080516001600160a01b031633145b610b965760405162461bcd60e51b815260206004820152601b60248201527f63616c6c6572206973206e6f742070726f6a6563744f776e65722e00000000006044820152606401610960565b60608101516001600160a01b031615610bf15760405162461bcd60e51b815260206004820152601060248201527f616c7265616479206c61756e63686564000000000000000000000000000000006044820152606401610960565b6040808201516001600160a01b03166000908152600960205220548914610c5a5760405162461bcd60e51b815260206004820152600d60248201527f77726f6e67206c31546f6b656e000000000000000000000000000000000000006044820152606401610960565b608081015160405163507c8bd160e01b81526001600160a01b03909116600482015260009073__$b2d160aea0e65d5e83164dd2e3c22b89ec$__9063507c8bd190602401602060405180830381865af4158015610cbb573d6000803e3d6000fd5b505050506040513d601f19601f82011682018060405250810190610cdf9190613b47565b90506001600160a01b038116610d375760405162461bcd60e51b815260206004820152601a60248201527f6c314d657373656e676572206973205a65726f416464726573730000000000006044820152606401610960565b600063589b8ec960e01b83604001518b8d8c8c8c8c604051602401610d629796959493929190613dbf565b604051602081830303815290604052906001600160e01b0319166020820180516001600160e01b03838183161783525050505090506000808073__$b2d160aea0e65d5e83164dd2e3c22b89ec$__63f6266b748c6040518263ffffffff1660e01b8152600401610dd29190613f57565b6040805180830381865af4158015610dee573d6000803e3d6000fd5b505050506040513d601f19601f82011682018060405250810190610e1291906140ae565b9150915081610e635760405162461bcd60e51b815260206004820152601b60248201527f546f6b616d616b5661756c7473207661696c64617465206661696c00000000006044820152606401610960565b6000610e728c600001516106f0565b50905080610ec25760405162461bcd60e51b815260206004820152601960248201527f5075626c69635661756c74207661696c64617465206661696c000000000000006044820152606401610960565b610ecc8285613afa565b93508a51600014610fbc5760008073__$b2d160aea0e65d5e83164dd2e3c22b89ec$__6308d8b1ac8e6040518263ffffffff1660e01b8152600401610f1191906140da565b6040805180830381865af4158015610f2d573d6000803e3d6000fd5b505050506040513d601f19601f82011682018060405250810190610f5191906140ae565b9150915081610fad5760405162461bcd60e51b815260206004820152602260248201527f637573746f6d5363686564756c655661756c7473207661696c646174652066616044820152611a5b60f21b6064820152608401610960565b610fb78187613afa565b955050505b8a51156110ab5760008073__$b2d160aea0e65d5e83164dd2e3c22b89ec$__63a95614d68d6040518263ffffffff1660e01b8152600401610ffd919061415d565b6040805180830381865af4158015611019573d6000803e3d6000fd5b505050506040513d601f19601f8201168201806040525081019061103d91906140ae565b915091508161109c5760405162461bcd60e51b815260206004820152602560248201527f637573746f6d4e6f6e5363686564756c655661756c7473207661696c646174656044820152640819985a5b60da1b6064820152608401610960565b6110a68187613afa565b955050505b8c84146111205760405162461bcd60e51b815260206004820152603560248201527f746f74616c416d6f756e7420697320646966666572656e742066726f6d20766160448201527f756c747320616c6c6f636174656420616d6f756e7400000000000000000000006064820152608401610960565b60008f90508e6008600083815260200190815260200160002060030160006101000a8154816001600160a01b0302191690836001600160a01b031602179055508e88606001906001600160a01b031690816001600160a01b03168152505060006008600083815260200190815260200160002060020160009054906101000a90046001600160a01b03166001600160a01b03166370a08231306040518263ffffffff1660e01b81526004016111e491906001600160a01b0391909116815260200190565b602060405180830381865afa158015611201573d6000803e3d6000fd5b505050506040513d601f19601f8201168201806040525081019061122591906141e7565b90508860a001518111158015611241575060c089015160ff1615155b156113475788604001516001600160a01b03166340c10f1930838c60a0015161126a9190614200565b6040516001600160e01b031960e085901b1681526001600160a01b0390921660048301526024820152604401600060405180830381600087803b1580156112b057600080fd5b505af11580156112c4573d6000803e3d6000fd5b505050600083815260086020526040908190206002015490516370a0823160e01b81523060048201526001600160a01b0390911691506370a0823190602401602060405180830381865afa158015611320573d6000803e3d6000fd5b505050506040513d601f19601f8201168201806040525081019061134491906141e7565b90505b8860a0015181101561139b5760405162461bcd60e51b815260206004820152601760248201527f62616c616e636520697320696e73756666696369656e740000000000000000006044820152606401610960565b6000600a60008b60e0015160ff1660ff1681526020019081526020016000206040518060800160405290816000820160009054906101000a90046001600160a01b03166001600160a01b03166001600160a01b031681526020016001820160009054906101000a90046001600160a01b03166001600160a01b03166001600160a01b031681526020016001820160149054906101000a900463ffffffff1663ffffffff1663ffffffff1681526020016001820160189054906101000a900463ffffffff1663ffffffff1663ffffffff168152505090506114b98a608001518b604001518c6060015184602001518e60a001518660400151896040516020016114a591815260200190565b604051602081830303815290604052612831565b60208101516060820151604051633dbb202b60e01b81526001600160a01b038c1692633dbb202b926114f0928d9190600401614213565b600060405180830381600087803b15801561150a57600080fd5b505af115801561151e573d6000803e3d6000fd5b505050507f79fdfe585876a2a3eed99468134317d55495d4fd731029da495b24da1266fa70838b604001518c606001518d60a0015160405161158394939291909384526001600160a01b03928316602085015291166040830152606082015260800190565b60405180910390a1505050505050505050505050505050505050565b6001600160a01b03811660009081527f2fb794d17134dfdec181ddbac1babb5ab1eb140204ef4d982f294e7fc8b69022602052604081205460ff166106ea565b6000828152600460205260409020600101546115fa81612a6f565b6116048383612a79565b505050565b6001600160a01b03811633146116875760405162461bcd60e51b815260206004820152602f60248201527f416363657373436f6e74726f6c3a2063616e206f6e6c792072656e6f756e636560448201527f20726f6c657320666f722073656c6600000000000000000000000000000000006064820152608401610960565b6116918282612b1b565b5050565b836001600160a01b0381166116d15760405162461bcd60e51b81526020600482015260026024820152612d1960f11b6044820152606401610960565b836001600160a01b03811661170d5760405162461bcd60e51b81526020600482015260026024820152612d1960f11b6044820152606401610960565b8363ffffffff16806000036117495760405162461bcd60e51b81526020600482015260026024820152615a3160f01b6044820152606401610960565b8363ffffffff16806000036117855760405162461bcd60e51b81526020600482015260026024820152615a3160f01b6044820152606401610960565b61178e3361159f565b6117e55760405162461bcd60e51b815260206004820152602260248201527f41636365737369626c653a2043616c6c6572206973206e6f7420616e2061646d60448201526134b760f11b6064820152608401610960565b600260ff8a16106118385760405162461bcd60e51b815260206004820152601260248201527f756e737570706f72746564206c325479706500000000000000000000000000006044820152606401610960565b60ff89166000908152600a60205260409020546001600160a01b038981169116141580611886575060ff89166000908152600a60205260409020600101546001600160a01b03888116911614155b806118b6575060ff89166000908152600a602052604090206001015463ffffffff878116600160a01b9092041614155b806118e6575060ff89166000908152600a602052604090206001015463ffffffff868116600160c01b9092041614155b61191b5760405162461bcd60e51b81526004016109609060208082526004908201526373616d6560e01b604082015260600190565b600060405180608001604052808a6001600160a01b03168152602001896001600160a01b031681526020018863ffffffff1681526020018763ffffffff16815250905080600a60008c60ff1660ff16815260200190815260200160002060008201518160000160006101000a8154816001600160a01b0302191690836001600160a01b0316021790555060208201518160010160006101000a8154816001600160a01b0302191690836001600160a01b0316021790555060408201518160010160146101000a81548163ffffffff021916908363ffffffff16021790555060608201518160010160186101000a81548163ffffffff021916908363ffffffff1602179055509050507f5e8ef59fdf78b3376941ed3157b8c3d49139b1f4c1857bf531766c1c1e3a97c98a8a8a8a8a604051611a8f95949392919060ff9590951685526001600160a01b03938416602086015291909216604084015263ffffffff918216606084015216608082015260a00190565b60405180910390a150505050505050505050565b611aac3361159f565b611b035760405162461bcd60e51b815260206004820152602260248201527f41636365737369626c653a2043616c6c6572206973206e6f7420616e2061646d60448201526134b760f11b6064820152608401610960565b6109937fdf8b4c520ffe197c5343c6f5aec59570151ef9a492f2c624fd45ddde6135ec42826115df565b60006001600160a01b03891615801590611b4f57506001600160a01b03881615155b8015611b6357506001600160a01b03871615155b611baf5760405162461bcd60e51b815260206004820152600c60248201527f7a65726f206164647265737300000000000000000000000000000000000000006044820152606401610960565b8351600003611c005760405162461bcd60e51b815260206004820152601360248201527f70726f6a6563744e616d65206973206e756c6c000000000000000000000000006044820152606401610960565b8251600003611c515760405162461bcd60e51b815260206004820152601160248201527f746f6b656e4e616d65206973206e756c6c0000000000000000000000000000006044820152606401610960565b8151600003611ca25760405162461bcd60e51b815260206004820152601360248201527f746f6b656e53796d626f6c206973206e756c6c000000000000000000000000006044820152606401610960565b600460ff8616108015611ccf575060ff85166000908152600760205260409020546001600160a01b031615155b611d2a5760405162461bcd60e51b815260206004820152602660248201527f77726f6e6720746f6b656e54797065206f72207a65726f206c31546f6b656e466044820152656163746f727960d01b6064820152608401610960565b60ff8516600090815260076020526040808220549051634692ed6760e01b81526001600160a01b0390911690634692ed6790611d7090879087908c90309060040161424b565b6020604051808303816000875af1158015611d8f573d6000803e3d6000fd5b505050506040513d601f19601f82011682018060405250810190611db39190613b47565b90506001600160a01b038116611e0b5760405162461bcd60e51b815260206004820152601160248201527f7a65726f2070726f6a656374546f6b656e0000000000000000000000000000006044820152606401610960565b6000600660008154611e1c90614291565b91905081905590506040518061012001604052808b6001600160a01b031681526020018c6001600160a01b03168152602001836001600160a01b0316815260200160006001600160a01b031681526020018a6001600160a01b031681526020018981526020018860ff168152602001600060ff168152602001878152506008600083815260200190815260200160002060008201518160000160006101000a8154816001600160a01b0302191690836001600160a01b0316021790555060208201518160010160006101000a8154816001600160a01b0302191690836001600160a01b0316021790555060408201518160020160006101000a8154816001600160a01b0302191690836001600160a01b0316021790555060608201518160030160006101000a8154816001600160a01b0302191690836001600160a01b0316021790555060808201518160040160006101000a8154816001600160a01b0302191690836001600160a01b0316021790555060a0820151816005015560c08201518160060160006101000a81548160ff021916908360ff16021790555060e08201518160060160016101000a81548160ff021916908360ff160217905550610100820151816007019081611fef91906142f8565b5050506001600160a01b03821660009081526009602052604090819020829055517fe6f52bbfc9201025b3af0483a2cb6b38980deee467b4cea0217319cae691d3a39061204d90849084908f908f908f908f908e908e908e906143b8565b60405180910390a19a9950505050505050505050565b61206c3361159f565b6120c35760405162461bcd60e51b815260206004820152602260248201527f41636365737369626c653a2043616c6c6572206973206e6f7420616e2061646d60448201526134b760f11b6064820152608401610960565b6001600160a01b0381166121195760405162461bcd60e51b815260206004820152601860248201527f41636365737369626c653a207a65726f206164647265737300000000000000006044820152606401610960565b6001600160a01b03811633036121715760405162461bcd60e51b815260206004820152601660248201527f41636365737369626c653a2073616d652061646d696e000000000000000000006044820152606401610960565b61219b7fdf8b4c520ffe197c5343c6f5aec59570151ef9a492f2c624fd45ddde6135ec42826115df565b6109937fdf8b4c520ffe197c5343c6f5aec59570151ef9a492f2c624fd45ddde6135ec4233611609565b6121ce3361159f565b6122255760405162461bcd60e51b815260206004820152602260248201527f41636365737369626c653a2043616c6c6572206973206e6f7420616e2061646d60448201526134b760f11b6064820152608401610960565b815115801590612236575080518251145b6122825760405162461bcd60e51b815260206004820152600c60248201527f77726f6e67206c656e67746800000000000000000000000000000000000000006044820152606401610960565b815160005b8181101561242e57600460ff168482815181106122a6576122a661442a565b602002602001015160ff16106122fe5760405162461bcd60e51b815260206004820152601660248201527f756e737570706f7274656420746f6b656e2074797065000000000000000000006044820152606401610960565b8281815181106123105761231061442a565b60200260200101516001600160a01b0316600760008684815181106123375761233761442a565b60209081029190910181015160ff168252810191909152604001600020546001600160a01b0316036123ab5760405162461bcd60e51b815260206004820152600c60248201527f73616d65206164647265737300000000000000000000000000000000000000006044820152606401610960565b8281815181106123bd576123bd61442a565b6020026020010151600760008684815181106123db576123db61442a565b602002602001015160ff1660ff16815260200190815260200160002060006101000a8154816001600160a01b0302191690836001600160a01b03160217905550808061242690614291565b915050612287565b50505050565b61243d3361159f565b6124945760405162461bcd60e51b815260206004820152602260248201527f41636365737369626c653a2043616c6c6572206973206e6f7420616e2061646d60448201526134b760f11b6064820152608401610960565b6040805160608101825260ff9485168152928416602080850191825291840192835260008052600b90915291517fdf7de25b7f1fd6d0b5205f0e18f1f35bd7b8d84cce336588d184533ce43a6f768054935185166101000261ffff19909416919094161791909117909155517fdf7de25b7f1fd6d0b5205f0e18f1f35bd7b8d84cce336588d184533ce43a6f7755565b60008281526004602052604090206001015461253f81612a6f565b6116048383612b1b565b600060606000808073__$b2d160aea0e65d5e83164dd2e3c22b89ec$__63f6266b74896040518263ffffffff1660e01b81526004016125889190613f57565b6040805180830381865af41580156125a4573d6000803e3d6000fd5b505050506040513d601f19601f820116820180604052508101906125c891906140ae565b91509150816125fa57600060405180604001604052806002815260200161463160f01b81525094509450505050612828565b600061260989600001516106f0565b509050806126425760405162461bcd60e51b81526004016109609060208082526004908201526346312d3160e01b604082015260600190565b61264c8285613afa565b935087516000146127165760008073__$b2d160aea0e65d5e83164dd2e3c22b89ec$__6308d8b1ac8b6040518263ffffffff1660e01b815260040161269191906140da565b6040805180830381865af41580156126ad573d6000803e3d6000fd5b505050506040513d601f19601f820116820180604052508101906126d191906140ae565b90925090506126e08187613afa565b95508161271357600060405180604001604052806002815260200161231960f11b81525097509750505050505050612828565b50505b8751156127dc5760008073__$b2d160aea0e65d5e83164dd2e3c22b89ec$__63a95614d68a6040518263ffffffff1660e01b8152600401612757919061415d565b6040805180830381865af4158015612773573d6000803e3d6000fd5b505050506040513d601f19601f8201168201806040525081019061279791906140ae565b90925090506127a68187613afa565b9550816127d957600060405180604001604052806002815260200161463360f01b81525097509750505050505050612828565b50505b838a1461280d57600060405180604001604052806002815260200161118d60f21b8152509550955050505050612828565b60016040518060200160405280600081525095509550505050505b94509492505050565b604051639da3176160e01b81526001600160a01b038816600482015260009073__$b2d160aea0e65d5e83164dd2e3c22b89ec$__90639da3176190602401602060405180830381865af415801561288c573d6000803e3d6000fd5b505050506040513d601f19601f820116820180604052508101906128b09190613b47565b90506001600160a01b0381166129085760405162461bcd60e51b815260206004820152601760248201527f6c31427269646765206973205a65726f416464726573730000000000000000006044820152606401610960565b604051636eb1769f60e11b81523060048201526001600160a01b0382811660248301526000919089169063dd62ed3e90604401602060405180830381865afa158015612958573d6000803e3d6000fd5b505050506040513d601f19601f8201168201806040525081019061297c91906141e7565b9050848110156129fc5760405163095ea7b360e01b81526001600160a01b038381166004830152600019602483015289169063095ea7b3906044016020604051808303816000875af11580156129d6573d6000803e3d6000fd5b505050506040513d601f19601f820116820180604052508101906129fa9190614440565b505b60405163041c592960e51b81526001600160a01b0383169063838b252090612a32908b908b908b908b908b908b9060040161445b565b600060405180830381600087803b158015612a4c57600080fd5b505af1158015612a60573d6000803e3d6000fd5b50505050505050505050505050565b6109938133612b9e565b60008281526004602090815260408083206001600160a01b038516845290915290205460ff166116915760008281526004602090815260408083206001600160a01b03851684529091529020805460ff19166001179055612ad73390565b6001600160a01b0316816001600160a01b0316837f2f8788117e7eff1d82e926ec794901d17c78024a50270940304540a733656f0d60405160405180910390a45050565b60008281526004602090815260408083206001600160a01b038516845290915290205460ff16156116915760008281526004602090815260408083206001600160a01b0385168085529252808320805460ff1916905551339285917ff6391f5c32d9c69d2a47ea670b442974b53935d1edc7fd64eb21e047a839171b9190a45050565b60008281526004602090815260408083206001600160a01b038516845290915290205460ff1661169157612bd181612c13565b612bdc836020612c25565b604051602001612bed9291906144ad565b60408051601f198184030181529082905262461bcd60e51b82526109609160040161452e565b60606106ea6001600160a01b03831660145b60606000612c34836002614541565b612c3f906002613afa565b67ffffffffffffffff811115612c5757612c57612dff565b6040519080825280601f01601f191660200182016040528015612c81576020820181803683370190505b509050600360fc1b81600081518110612c9c57612c9c61442a565b60200101906001600160f81b031916908160001a905350600f60fb1b81600181518110612ccb57612ccb61442a565b60200101906001600160f81b031916908160001a9053506000612cef846002614541565b612cfa906001613afa565b90505b6001811115612d7f577f303132333435363738396162636465660000000000000000000000000000000085600f1660108110612d3b57612d3b61442a565b1a60f81b828281518110612d5157612d5161442a565b60200101906001600160f81b031916908160001a90535060049490941c93612d7881614558565b9050612cfd565b508315612dce5760405162461bcd60e51b815260206004820181905260248201527f537472696e67733a20686578206c656e67746820696e73756666696369656e746044820152606401610960565b9392505050565b600060208284031215612de757600080fd5b81356001600160e01b031981168114612dce57600080fd5b634e487b7160e01b600052604160045260246000fd5b60405160e0810167ffffffffffffffff81118282101715612e3857612e38612dff565b60405290565b6040516060810167ffffffffffffffff81118282101715612e3857612e38612dff565b6040516102a0810167ffffffffffffffff81118282101715612e3857612e38612dff565b6040805190810167ffffffffffffffff81118282101715612e3857612e38612dff565b60405160c0810167ffffffffffffffff81118282101715612e3857612e38612dff565b604051601f8201601f1916810167ffffffffffffffff81118282101715612ef457612ef4612dff565b604052919050565b600060a08284031215612f0e57600080fd5b60405160a0810181811067ffffffffffffffff82111715612f3157612f31612dff565b806040525080915082358152602083013560208201526040830135604082015260608301356060820152608083013560808201525092915050565b6001600160a01b038116811461099357600080fd5b8035612f8c81612f6c565b919050565b803562ffffff81168114612f8c57600080fd5b600060e08284031215612fb657600080fd5b612fbe612e15565b90508135612fcb81612f6c565b808252506020820135602082015260408201356040820152606082013560608201526080820135608082015260a082013560a082015261300d60c08301612f91565b60c082015292915050565b600081830361042081121561302c57600080fd5b613034612e3e565b91506102a08082121561304657600080fd5b61304e612e61565b843581526020808601359082015260408086013590820152606080860135908201526080808601359082015260a0808601359082015260c0808601359082015260e08086013590820152610100808601359082015261012080860135908201526101408086013590820152610160808601359082015261018080860135908201526101a080860135908201526101c080860135908201526101e0808601359082015261020080860135908201526102208086013590820152610240808601359082015261026080860135908201526102808086013590820152808452915061313885828601612efc565b6020840152505061314d836103408401612fa4565b604082015292915050565b6000610420828403121561316b57600080fd5b612dce8383613018565b60005b83811015613190578181015183820152602001613178565b50506000910152565b600081518084526131b1816020860160208601613175565b601f01601f19169290920160200192915050565b82151581526040602082015260006131e06040830184613199565b949350505050565b6000602082840312156131fa57600080fd5b5035919050565b60006101206001600160a01b03808d168452808c166020850152808b166040850152808a1660608501528089166080850152508660a084015260ff861660c084015260ff851660e08401528061010084015261325f81840185613199565b9c9b505050505050505050505050565b60006020828403121561328157600080fd5b8135612dce81612f6c565b803563ffffffff81168114612f8c57600080fd5b600060e082840312156132b257600080fd5b6132ba612e15565b905081356132c781612f6c565b808252506020820135602082015260408201356040820152606082013560608201526132f56080830161328c565b608082015261330660a0830161328c565b60a082015261300d60c0830161328c565b600081830361014081121561332b57600080fd5b613333612e85565b9150606081121561334357600080fd5b5061334c612e3e565b823561335781612f6c565b8152602083013561336781612f6c565b602082015261337860408401612f91565b6040820152815261338c83606084016132a0565b602082015292915050565b60008183036109208112156133ab57600080fd5b6133b3612ea8565b91506133bf8484613018565b825260c061041f19820112156133d457600080fd5b506133dd612ea8565b61042083013581526104408301356020820152610460830135604082015261048083013560608201526134136104a0840161328c565b60808201526104c083013561ffff8116811461342e57600080fd5b60a08201526020820152613446836104e08401613317565b6040820152613459836106208401613317565b606082015261346c8361076084016132a0565b608082015261347f8361084084016132a0565b60a082015292915050565b600067ffffffffffffffff8211156134a4576134a4612dff565b5060051b60200190565b600082601f8301126134bf57600080fd5b813567ffffffffffffffff8111156134d9576134d9612dff565b6134ec601f8201601f1916602001612ecb565b81815284602083860101111561350157600080fd5b816020850160208301376000918101602001919091529392505050565b600082601f83011261352f57600080fd5b8135602061354461353f8361348a565b612ecb565b82815260059290921b8401810191818101908684111561356357600080fd5b8286015b848110156135ed57803567ffffffffffffffff808211156135885760008081fd5b90880190610100828b03601f190112156135a25760008081fd5b6135aa612e85565b86830135828111156135bc5760008081fd5b6135ca8c89838701016134ae565b8252506135da8b604085016132a0565b8188015285525050918301918301613567565b509695505050505050565b600082601f83011261360957600080fd5b8135602061361961353f8361348a565b82815260059290921b8401810191818101908684111561363857600080fd5b8286015b848110156135ed57803567ffffffffffffffff8082111561365d5760008081fd5b908801906060828b03601f19018113156136775760008081fd5b61367f612e3e565b87840135838111156136915760008081fd5b61369f8d8a838801016134ae565b82525060409250828401356136b381612f6c565b8189015292013590820152835291830191830161363c565b6000806000806000806109c087890312156136e557600080fd5b8635955060208701356136f781612f6c565b94506040870135935061370d8860608901613397565b925061098087013567ffffffffffffffff8082111561372b57600080fd5b6137378a838b0161351e565b93506109a089013591508082111561374e57600080fd5b5061375b89828a016135f8565b9150509295509295509295565b803560ff81168114612f8c57600080fd5b60006020828403121561378b57600080fd5b612dce82613768565b600080604083850312156137a757600080fd5b8235915060208301356137b981612f6c565b809150509250929050565b600080600080600060a086880312156137dc57600080fd5b6137e586613768565b945060208601356137f581612f6c565b9350604086013561380581612f6c565b92506138136060870161328c565b91506138216080870161328c565b90509295509295909350565b600080600080600080600080610100898b03121561384a57600080fd5b61385389612f81565b975061386160208a01612f81565b965061386f60408a01612f81565b95506060890135945061388460808a01613768565b935060a089013567ffffffffffffffff808211156138a157600080fd5b6138ad8c838d016134ae565b945060c08b01359150808211156138c357600080fd5b6138cf8c838d016134ae565b935060e08b01359150808211156138e557600080fd5b506138f28b828c016134ae565b9150509295985092959890939650565b600082601f83011261391357600080fd5b8135602061392361353f8361348a565b82815260059290921b8401810191818101908684111561394257600080fd5b8286015b848110156135ed57803561395981612f6c565b8352918301918301613946565b6000806040838503121561397957600080fd5b823567ffffffffffffffff8082111561399157600080fd5b818501915085601f8301126139a557600080fd5b813560206139b561353f8361348a565b82815260059290921b840181019181810190898411156139d457600080fd5b948201945b838610156139f9576139ea86613768565b825294820194908201906139d9565b96505086013592505080821115613a0f57600080fd5b50613a1c85828601613902565b9150509250929050565b600080600060608486031215613a3b57600080fd5b613a4484613768565b9250613a5260208501613768565b9150604084013590509250925092565b6000806000806109808587031215613a7957600080fd5b84359350613a8a8660208701613397565b925061094085013567ffffffffffffffff80821115613aa857600080fd5b613ab48883890161351e565b9350610960870135915080821115613acb57600080fd5b50613ad8878288016135f8565b91505092959194509250565b634e487b7160e01b600052601160045260246000fd5b808201808211156106ea576106ea613ae4565b600181811c90821680613b2157607f821691505b602082108103613b4157634e487b7160e01b600052602260045260246000fd5b50919050565b600060208284031215613b5957600080fd5b8151612dce81612f6c565b805182526020808201519083015260408082015190830152606080820151908301526080808201519083015260a0808201519083015260c0808201519083015260e08082015190830152610100808201519083015261012080820151908301526101408082015190830152610160808201519083015261018080820151908301526101a080820151908301526101c080820151908301526101e08082015190830152610200808201519083015261022080820151908301526102408082015190830152610260808201519083015261028090810151910152565b6001600160a01b038151168252602081015160208301526040810151604083015260608101516060830152608081015163ffffffff80821660808501528060a08401511660a08501528060c08401511660c085015250505050565b80516001600160a01b038082511684528060208301511660208501525062ffffff60408201511660408401525060208101516116046060840182613c3e565b600081518084526020808501808196508360051b8101915082860160005b85811015613d4157828403895281516101008151818752613d1982880182613199565b915050868201519150613d2e87870183613c3e565b9986019994505090840190600101613cf6565b5091979650505050505050565b600081518084526020808501808196508360051b8101915082860160005b85811015613d41578284038952815160608151818752613d8e82880182613199565b838901516001600160a01b0316888a0152604093840151939097019290925250509784019790840190600101613d6c565b60006109e06001600160a01b03808b168452808a166020850152508760408401528660608401528551613df6608085018251613b64565b6020818101518051610320870152808201516103408701526040808201516103608801526060808301516103808901526080928301516103a08901529381015180516001600160a01b03166103c0890152808401516103e089015280820151610400890152808501516104208901528083015161044089015260a0808201516104608a015260c09091015162ffffff166104808901528a84015180516104a08a0152938401516104c0890152838201516104e0890152938301516105008801529082015163ffffffff1661052087015291015161ffff16610540850152860151613ee4610560850182613c99565b506060860151613ef86106a0850182613c99565b506080860151613f0c6107e0850182613c3e565b5060a0860151613f206108c0850182613c3e565b50806109a0840152613f3481840186613cd8565b90508281036109c0840152613f498185613d4e565b9a9950505050505050505050565b6000610920820190508251613f6d838251613b64565b60208181015180516102a0860152808201516102c08601526040808201516102e08701526060808301516103008801526080928301516103208801529381015180516001600160a01b03166103408801528084015161036088015280820151610380880152808501516103a0880152808301516103c088015260a0808201516103e089015260c09091015162ffffff166104008801528784015180516104208901529384015161044088015283820151610460880152938301516104808701529082015163ffffffff166104a086015291015161ffff166104c084015283015161405b6104e0840182613c99565b50606083015161406f610620840182613c99565b506080830151614083610760840182613c3e565b5060a0830151614097610840840182613c3e565b5092915050565b80518015158114612f8c57600080fd5b600080604083850312156140c157600080fd5b6140ca8361409e565b9150602083015190509250929050565b6000602080830181845280855180835260408601915060408160051b870101925083870160005b8281101561415057603f198886030184528151610100815181885261412882890182613199565b91505087820151915061413d88880183613c3e565b9550509285019290850190600101614101565b5092979650505050505050565b60006020808301818452808551808352604092508286019150828160051b87010184880160005b838110156141d957603f198984030185528151606081518186526141aa82870182613199565b838b01516001600160a01b0316878c015292890151958901959095525094870194925090860190600101614184565b509098975050505050505050565b6000602082840312156141f957600080fd5b5051919050565b818103818111156106ea576106ea613ae4565b6001600160a01b03841681526060602082015260006142356060830185613199565b905063ffffffff83166040830152949350505050565b60808152600061425e6080830187613199565b82810360208401526142708187613199565b9150508360408301526001600160a01b038316606083015295945050505050565b6000600182016142a3576142a3613ae4565b5060010190565b601f82111561160457600081815260208120601f850160051c810160208610156142d15750805b601f850160051c820191505b818110156142f0578281556001016142dd565b505050505050565b815167ffffffffffffffff81111561431257614312612dff565b614326816143208454613b0d565b846142aa565b602080601f83116001811461435b57600084156143435750858301515b600019600386901b1c1916600185901b1785556142f0565b600085815260208120601f198616915b8281101561438a5788860151825594840194600190910190840161436b565b50858210156143a85787850151600019600388901b60f8161c191681555b5050505050600190811b01905550565b60006101206001600160a01b03808d1684528b6020850152808b166040850152808a1660608501528089166080850152508660a08401528060c084015261440181840187613199565b905082810360e08401526144158186613199565b905082810361010084015261325f8185613199565b634e487b7160e01b600052603260045260246000fd5b60006020828403121561445257600080fd5b612dce8261409e565b60006001600160a01b038089168352808816602084015280871660408401525084606083015263ffffffff8416608083015260c060a08301526144a160c0830184613199565b98975050505050505050565b7f416363657373436f6e74726f6c3a206163636f756e74200000000000000000008152600083516144e5816017850160208801613175565b7f206973206d697373696e6720726f6c65200000000000000000000000000000006017918401918201528351614522816028840160208801613175565b01602801949350505050565b602081526000612dce6020830184613199565b80820281158282048414176106ea576106ea613ae4565b60008161456757614567613ae4565b50600019019056fea164736f6c6343000812000a",
  "libraries": {
    "LibProject": "0xF6f91501E93704ebF17bfc31F64cEf1FbfD10825"
  },
  "devdoc": {
    "events": {
      "RoleAdminChanged(bytes32,bytes32,bytes32)": {
        "details": "Emitted when `newAdminRole` is set as ``role``'s admin role, replacing `previousAdminRole` `DEFAULT_ADMIN_ROLE` is the starting admin for all roles, despite {RoleAdminChanged} not being emitted signaling this. _Available since v3.1._"
      },
      "RoleGranted(bytes32,address,address)": {
        "details": "Emitted when `account` is granted `role`. `sender` is the account that originated the contract call, an admin role bearer except when using {AccessControl-_setupRole}."
      },
      "RoleRevoked(bytes32,address,address)": {
        "details": "Emitted when `account` is revoked `role`. `sender` is the account that originated the contract call:   - if using `revokeRole`, it is the admin role bearer   - if using `renounceRole`, it is the role bearer (i.e. `account`)"
      }
    },
    "kind": "dev",
    "methods": {
      "addAdmin(address)": {
        "details": "add admin",
        "params": {
          "account": "address to add"
        }
      },
      "createProject(address,address,address,uint256,uint8,string,string,string)": {
        "details": " "
      },
      "getRoleAdmin(bytes32)": {
        "details": "Returns the admin role that controls `role`. See {grantRole} and {revokeRole}. To change a role's admin, use {_setRoleAdmin}."
      },
      "grantRole(bytes32,address)": {
        "details": "Grants `role` to `account`. If `account` had not been already granted `role`, emits a {RoleGranted} event. Requirements: - the caller must have ``role``'s admin role. May emit a {RoleGranted} event."
      },
      "hasRole(bytes32,address)": {
        "details": "Returns `true` if `account` has been granted `role`."
      },
      "isAdmin(address)": {
        "details": "whether admin",
        "params": {
          "account": "address to check"
        }
      },
      "removeAdmin(address)": {
        "details": "remove admin",
        "params": {
          "account": "address to remove"
        }
      },
      "renounceRole(bytes32,address)": {
        "details": "Revokes `role` from the calling account. Roles are often managed via {grantRole} and {revokeRole}: this function's purpose is to provide a mechanism for accounts to lose their privileges if they are compromised (such as when a trusted device is misplaced). If the calling account had been revoked `role`, emits a {RoleRevoked} event. Requirements: - the caller must be `account`. May emit a {RoleRevoked} event."
      },
      "revokeRole(bytes32,address)": {
        "details": "Revokes `role` from `account`. If `account` had been granted `role`, emits a {RoleRevoked} event. Requirements: - the caller must have ``role``'s admin role. May emit a {RoleRevoked} event."
      },
      "supportsInterface(bytes4)": {
        "details": "See {IERC165-supportsInterface}."
      },
      "transferAdmin(address)": {
        "details": "transfer admin",
        "params": {
          "newAdmin": "new admin address"
        }
      }
    },
    "title": "L1ProjectManager",
    "version": 1
  },
  "userdoc": {
    "kind": "user",
    "methods": {},
    "version": 1
  },
  "storageLayout": {
    "storage": [
      {
        "astId": 32384,
        "contract": "contracts/L1/L1ProjectManager.sol:L1ProjectManager",
        "label": "pauseProxy",
        "offset": 0,
        "slot": "0",
        "type": "t_bool"
      },
      {
        "astId": 32388,
        "contract": "contracts/L1/L1ProjectManager.sol:L1ProjectManager",
        "label": "proxyImplementation",
        "offset": 0,
        "slot": "1",
        "type": "t_mapping(t_uint256,t_address)"
      },
      {
        "astId": 32392,
        "contract": "contracts/L1/L1ProjectManager.sol:L1ProjectManager",
        "label": "aliveImplementation",
        "offset": 0,
        "slot": "2",
        "type": "t_mapping(t_address,t_bool)"
      },
      {
        "astId": 32396,
        "contract": "contracts/L1/L1ProjectManager.sol:L1ProjectManager",
        "label": "selectorImplementation",
        "offset": 0,
        "slot": "3",
        "type": "t_mapping(t_bytes4,t_address)"
      },
      {
        "astId": 24,
        "contract": "contracts/L1/L1ProjectManager.sol:L1ProjectManager",
        "label": "_roles",
        "offset": 0,
        "slot": "4",
        "type": "t_mapping(t_bytes32,t_struct(RoleData)19_storage)"
      },
      {
        "astId": 7035,
        "contract": "contracts/L1/L1ProjectManager.sol:L1ProjectManager",
        "label": "free",
        "offset": 0,
        "slot": "5",
        "type": "t_bool"
      },
      {
        "astId": 7037,
        "contract": "contracts/L1/L1ProjectManager.sol:L1ProjectManager",
        "label": "projectCount",
        "offset": 0,
        "slot": "6",
        "type": "t_uint256"
      },
      {
        "astId": 7041,
        "contract": "contracts/L1/L1ProjectManager.sol:L1ProjectManager",
        "label": "l1TokenFactory",
        "offset": 0,
        "slot": "7",
        "type": "t_mapping(t_uint8,t_address)"
      },
      {
        "astId": 7046,
        "contract": "contracts/L1/L1ProjectManager.sol:L1ProjectManager",
        "label": "projects",
        "offset": 0,
        "slot": "8",
        "type": "t_mapping(t_uint256,t_struct(ProjectInfo)28858_storage)"
      },
      {
        "astId": 7050,
        "contract": "contracts/L1/L1ProjectManager.sol:L1ProjectManager",
        "label": "projectTokens",
        "offset": 0,
        "slot": "9",
        "type": "t_mapping(t_address,t_uint256)"
      },
      {
        "astId": 7055,
        "contract": "contracts/L1/L1ProjectManager.sol:L1ProjectManager",
        "label": "l2Info",
        "offset": 0,
        "slot": "10",
        "type": "t_mapping(t_uint8,t_struct(L2Info)28867_storage)"
      },
      {
        "astId": 7060,
        "contract": "contracts/L1/L1ProjectManager.sol:L1ProjectManager",
        "label": "publicInfo",
        "offset": 0,
        "slot": "11",
        "type": "t_mapping(t_uint8,t_struct(PublicSaleSet)29031_storage)"
      }
    ],
    "types": {
      "t_address": {
        "encoding": "inplace",
        "label": "address",
        "numberOfBytes": "20"
      },
      "t_bool": {
        "encoding": "inplace",
        "label": "bool",
        "numberOfBytes": "1"
      },
      "t_bytes32": {
        "encoding": "inplace",
        "label": "bytes32",
        "numberOfBytes": "32"
      },
      "t_bytes4": {
        "encoding": "inplace",
        "label": "bytes4",
        "numberOfBytes": "4"
      },
      "t_mapping(t_address,t_bool)": {
        "encoding": "mapping",
        "key": "t_address",
        "label": "mapping(address => bool)",
        "numberOfBytes": "32",
        "value": "t_bool"
      },
      "t_mapping(t_address,t_uint256)": {
        "encoding": "mapping",
        "key": "t_address",
        "label": "mapping(address => uint256)",
        "numberOfBytes": "32",
        "value": "t_uint256"
      },
      "t_mapping(t_bytes32,t_struct(RoleData)19_storage)": {
        "encoding": "mapping",
        "key": "t_bytes32",
        "label": "mapping(bytes32 => struct AccessControl.RoleData)",
        "numberOfBytes": "32",
        "value": "t_struct(RoleData)19_storage"
      },
      "t_mapping(t_bytes4,t_address)": {
        "encoding": "mapping",
        "key": "t_bytes4",
        "label": "mapping(bytes4 => address)",
        "numberOfBytes": "32",
        "value": "t_address"
      },
      "t_mapping(t_uint256,t_address)": {
        "encoding": "mapping",
        "key": "t_uint256",
        "label": "mapping(uint256 => address)",
        "numberOfBytes": "32",
        "value": "t_address"
      },
      "t_mapping(t_uint256,t_struct(ProjectInfo)28858_storage)": {
        "encoding": "mapping",
        "key": "t_uint256",
        "label": "mapping(uint256 => struct LibProject.ProjectInfo)",
        "numberOfBytes": "32",
        "value": "t_struct(ProjectInfo)28858_storage"
      },
      "t_mapping(t_uint8,t_address)": {
        "encoding": "mapping",
        "key": "t_uint8",
        "label": "mapping(uint8 => address)",
        "numberOfBytes": "32",
        "value": "t_address"
      },
      "t_mapping(t_uint8,t_struct(L2Info)28867_storage)": {
        "encoding": "mapping",
        "key": "t_uint8",
        "label": "mapping(uint8 => struct LibProject.L2Info)",
        "numberOfBytes": "32",
        "value": "t_struct(L2Info)28867_storage"
      },
      "t_mapping(t_uint8,t_struct(PublicSaleSet)29031_storage)": {
        "encoding": "mapping",
        "key": "t_uint8",
        "label": "mapping(uint8 => struct LibProject.PublicSaleSet)",
        "numberOfBytes": "32",
        "value": "t_struct(PublicSaleSet)29031_storage"
      },
      "t_string_storage": {
        "encoding": "bytes",
        "label": "string",
        "numberOfBytes": "32"
      },
      "t_struct(L2Info)28867_storage": {
        "encoding": "inplace",
        "label": "struct LibProject.L2Info",
        "members": [
          {
            "astId": 28860,
            "contract": "contracts/L1/L1ProjectManager.sol:L1ProjectManager",
            "label": "l2TokenFactory",
            "offset": 0,
            "slot": "0",
            "type": "t_address"
          },
          {
            "astId": 28862,
            "contract": "contracts/L1/L1ProjectManager.sol:L1ProjectManager",
            "label": "l2ProjectManager",
            "offset": 0,
            "slot": "1",
            "type": "t_address"
          },
          {
            "astId": 28864,
            "contract": "contracts/L1/L1ProjectManager.sol:L1ProjectManager",
            "label": "depositMinGasLimit",
            "offset": 20,
            "slot": "1",
            "type": "t_uint32"
          },
          {
            "astId": 28866,
            "contract": "contracts/L1/L1ProjectManager.sol:L1ProjectManager",
            "label": "sendMsgMinGasLimit",
            "offset": 24,
            "slot": "1",
            "type": "t_uint32"
          }
        ],
        "numberOfBytes": "64"
      },
      "t_struct(ProjectInfo)28858_storage": {
        "encoding": "inplace",
        "label": "struct LibProject.ProjectInfo",
        "members": [
          {
            "astId": 28841,
            "contract": "contracts/L1/L1ProjectManager.sol:L1ProjectManager",
            "label": "projectOwner",
            "offset": 0,
            "slot": "0",
            "type": "t_address"
          },
          {
            "astId": 28843,
            "contract": "contracts/L1/L1ProjectManager.sol:L1ProjectManager",
            "label": "tokenOwner",
            "offset": 0,
            "slot": "1",
            "type": "t_address"
          },
          {
            "astId": 28845,
            "contract": "contracts/L1/L1ProjectManager.sol:L1ProjectManager",
            "label": "l1Token",
            "offset": 0,
            "slot": "2",
            "type": "t_address"
          },
          {
            "astId": 28847,
            "contract": "contracts/L1/L1ProjectManager.sol:L1ProjectManager",
            "label": "l2Token",
            "offset": 0,
            "slot": "3",
            "type": "t_address"
          },
          {
            "astId": 28849,
            "contract": "contracts/L1/L1ProjectManager.sol:L1ProjectManager",
            "label": "addressManager",
            "offset": 0,
            "slot": "4",
            "type": "t_address"
          },
          {
            "astId": 28851,
            "contract": "contracts/L1/L1ProjectManager.sol:L1ProjectManager",
            "label": "initialTotalSupply",
            "offset": 0,
            "slot": "5",
            "type": "t_uint256"
          },
          {
            "astId": 28853,
            "contract": "contracts/L1/L1ProjectManager.sol:L1ProjectManager",
            "label": "tokenType",
            "offset": 0,
            "slot": "6",
            "type": "t_uint8"
          },
          {
            "astId": 28855,
            "contract": "contracts/L1/L1ProjectManager.sol:L1ProjectManager",
            "label": "l2Type",
            "offset": 1,
            "slot": "6",
            "type": "t_uint8"
          },
          {
            "astId": 28857,
            "contract": "contracts/L1/L1ProjectManager.sol:L1ProjectManager",
            "label": "projectName",
            "offset": 0,
            "slot": "7",
            "type": "t_string_storage"
          }
        ],
        "numberOfBytes": "256"
      },
      "t_struct(PublicSaleSet)29031_storage": {
        "encoding": "inplace",
        "label": "struct LibProject.PublicSaleSet",
        "members": [
          {
            "astId": 29026,
            "contract": "contracts/L1/L1ProjectManager.sol:L1ProjectManager",
            "label": "minPercents",
            "offset": 0,
            "slot": "0",
            "type": "t_uint8"
          },
          {
            "astId": 29028,
            "contract": "contracts/L1/L1ProjectManager.sol:L1ProjectManager",
            "label": "maxPercents",
            "offset": 1,
            "slot": "0",
            "type": "t_uint8"
          },
          {
            "astId": 29030,
            "contract": "contracts/L1/L1ProjectManager.sol:L1ProjectManager",
            "label": "delayTime",
            "offset": 0,
            "slot": "1",
            "type": "t_uint256"
          }
        ],
        "numberOfBytes": "64"
      },
      "t_struct(RoleData)19_storage": {
        "encoding": "inplace",
        "label": "struct AccessControl.RoleData",
        "members": [
          {
            "astId": 16,
            "contract": "contracts/L1/L1ProjectManager.sol:L1ProjectManager",
            "label": "members",
            "offset": 0,
            "slot": "0",
            "type": "t_mapping(t_address,t_bool)"
          },
          {
            "astId": 18,
            "contract": "contracts/L1/L1ProjectManager.sol:L1ProjectManager",
            "label": "adminRole",
            "offset": 0,
            "slot": "1",
            "type": "t_bytes32"
          }
        ],
        "numberOfBytes": "64"
      },
      "t_uint256": {
        "encoding": "inplace",
        "label": "uint256",
        "numberOfBytes": "32"
      },
      "t_uint32": {
        "encoding": "inplace",
        "label": "uint32",
        "numberOfBytes": "4"
      },
      "t_uint8": {
        "encoding": "inplace",
        "label": "uint8",
        "numberOfBytes": "1"
      }
    }
  }
}