{
  "address": "0x55D09E4139277c1957F1b8DF5372a12f8e490990",
  "abi": [
    {
      "inputs": [],
      "stateMutability": "nonpayable",
      "type": "constructor"
    },
    {
      "anonymous": false,
      "inputs": [
        {
          "indexed": false,
          "internalType": "address",
          "name": "account",
          "type": "address"
        },
        {
          "indexed": false,
          "internalType": "uint256[]",
          "name": "lockIds",
          "type": "uint256[]"
        }
      ],
      "name": "Registered",
      "type": "event"
    },
    {
      "inputs": [],
      "name": "_manager",
      "outputs": [
        {
          "internalType": "address",
          "name": "",
          "type": "address"
        }
      ],
      "stateMutability": "view",
      "type": "function"
    },
    {
      "inputs": [],
      "name": "_owner",
      "outputs": [
        {
          "internalType": "address",
          "name": "",
          "type": "address"
        }
      ],
      "stateMutability": "view",
      "type": "function"
    },
    {
      "inputs": [],
      "name": "addressManager",
      "outputs": [
        {
          "internalType": "address",
          "name": "",
          "type": "address"
        }
      ],
      "stateMutability": "view",
      "type": "function"
    },
    {
      "inputs": [
        {
          "internalType": "address",
          "name": "",
          "type": "address"
        }
      ],
      "name": "aliveImplementation",
      "outputs": [
        {
          "internalType": "bool",
          "name": "",
          "type": "bool"
        }
      ],
      "stateMutability": "view",
      "type": "function"
    },
    {
      "inputs": [
        {
          "internalType": "address",
          "name": "managerAddress",
          "type": "address"
        },
        {
          "internalType": "address",
          "name": "lockTosAddress",
          "type": "address"
        },
        {
          "internalType": "address",
          "name": "addressManagerAddress",
          "type": "address"
        },
        {
          "internalType": "uint256",
          "name": "maxLockCountPerRegister_",
          "type": "uint256"
        },
        {
          "internalType": "uint32",
          "name": "minGasLimitRegister_",
          "type": "uint32"
        }
      ],
      "name": "initialize",
      "outputs": [],
      "stateMutability": "nonpayable",
      "type": "function"
    },
    {
      "inputs": [],
      "name": "l2Register",
      "outputs": [
        {
          "internalType": "address",
          "name": "",
          "type": "address"
        }
      ],
      "stateMutability": "view",
      "type": "function"
    },
    {
      "inputs": [],
      "name": "lockTos",
      "outputs": [
        {
          "internalType": "address",
          "name": "",
          "type": "address"
        }
      ],
      "stateMutability": "view",
      "type": "function"
    },
    {
      "inputs": [],
      "name": "maxLockCountPerRegister",
      "outputs": [
        {
          "internalType": "uint256",
          "name": "",
          "type": "uint256"
        }
      ],
      "stateMutability": "view",
      "type": "function"
    },
    {
      "inputs": [
        {
          "internalType": "address",
          "name": "account",
          "type": "address"
        }
      ],
      "name": "needSyncList",
      "outputs": [
        {
          "internalType": "uint256[]",
          "name": "lockIds",
          "type": "uint256[]"
        },
        {
          "internalType": "uint256",
          "name": "count",
          "type": "uint256"
        }
      ],
      "stateMutability": "view",
      "type": "function"
    },
    {
      "inputs": [],
      "name": "pauseProxy",
      "outputs": [
        {
          "internalType": "bool",
          "name": "",
          "type": "bool"
        }
      ],
      "stateMutability": "view",
      "type": "function"
    },
    {
      "inputs": [
        {
          "internalType": "uint256",
          "name": "",
          "type": "uint256"
        }
      ],
      "name": "proxyImplementation",
      "outputs": [
        {
          "internalType": "address",
          "name": "",
          "type": "address"
        }
      ],
      "stateMutability": "view",
      "type": "function"
    },
    {
      "inputs": [
        {
          "internalType": "address",
          "name": "account",
          "type": "address"
        }
      ],
      "name": "register",
      "outputs": [],
      "stateMutability": "nonpayable",
      "type": "function"
    },
    {
      "inputs": [
        {
          "internalType": "address",
          "name": "account",
          "type": "address"
        },
        {
          "internalType": "uint256[]",
          "name": "lockIds",
          "type": "uint256[]"
        }
      ],
      "name": "register",
      "outputs": [],
      "stateMutability": "nonpayable",
      "type": "function"
    },
    {
      "inputs": [
        {
          "internalType": "bytes4",
          "name": "",
          "type": "bytes4"
        }
      ],
      "name": "selectorImplementation",
      "outputs": [
        {
          "internalType": "address",
          "name": "",
          "type": "address"
        }
      ],
      "stateMutability": "view",
      "type": "function"
    },
    {
      "inputs": [
        {
          "internalType": "address",
          "name": "l2Register_",
          "type": "address"
        }
      ],
      "name": "setL2Register",
      "outputs": [],
      "stateMutability": "nonpayable",
      "type": "function"
    },
    {
      "inputs": [
        {
          "internalType": "uint256",
          "name": "",
          "type": "uint256"
        }
      ],
      "name": "syncInfoOfLockId",
      "outputs": [
        {
          "internalType": "int256",
          "name": "slope",
          "type": "int256"
        },
        {
          "internalType": "int256",
          "name": "bias",
          "type": "int256"
        },
        {
          "internalType": "uint32",
          "name": "timestamp",
          "type": "uint32"
        },
        {
          "internalType": "uint32",
          "name": "syncTime",
          "type": "uint32"
        }
      ],
      "stateMutability": "view",
      "type": "function"
    },
    {
      "inputs": [
        {
          "internalType": "uint256",
          "name": "lockId",
          "type": "uint256"
        }
      ],
      "name": "viewRegisterInfoOfLockId",
      "outputs": [
        {
          "components": [
            {
              "internalType": "int256",
              "name": "slope",
              "type": "int256"
            },
            {
              "internalType": "int256",
              "name": "bias",
              "type": "int256"
            },
            {
              "internalType": "uint32",
              "name": "timestamp",
              "type": "uint32"
            },
            {
              "internalType": "uint32",
              "name": "syncTime",
              "type": "uint32"
            }
          ],
          "internalType": "struct LibLockId.SyncInfo",
          "name": "",
          "type": "tuple"
        }
      ],
      "stateMutability": "view",
      "type": "function"
    }
  ],
  "transactionHash": "0x33da566565b4a00c9fcec020fa5abb2385761c91a53de1e918bbd0d2d4c1f5a9",
  "args": [],
  "numDeployments": 3,
  "solcInputHash": "8d54b7ccf656d356eaa1331bf80029c5",
  "bytecode": "0x608060405234801561001057600080fd5b5061182f806100206000396000f3fe608060405234801561001057600080fd5b506004361061011b5760003560e01c806366c4ab23116100b2578063b2bdfa7b11610081578063b911135f11610066578063b911135f14610338578063be60b21414610361578063f0329f6b146103ce57600080fd5b8063b2bdfa7b1461030e578063b84935561461032157600080fd5b806366c4ab23146102b45780637aa7794a146102c75780637f5823af146102da5780639d060c0a146102ed57600080fd5b806350d2a276116100ee57806350d2a2761461018b578063550d01a3146101b45780635f17529f146101e757806363a8fd89146102a057600080fd5b80633ab76e9f146101205780633dfc795b146101505780634420e48614610165578063472d1f7114610178575b600080fd5b600654610133906001600160a01b031681565b6040516001600160a01b0390911681526020015b60405180910390f35b61016361015e36600461128a565b6103e1565b005b61016361017336600461128a565b6104b5565b600854610133906001600160a01b031681565b6101336101993660046112ae565b6003602052600090815260409020546001600160a01b031681565b6101d76101c236600461128a565b60026020526000908152604090205460ff1681565b6040519015158152602001610147565b6102636101f53660046112d8565b604080516080808201835260008083526020808401829052838501829052606093840182905294815260098552839020835191820184528054825260018101549482019490945260029093015463ffffffff8082169385019390935264010000000090049091169082015290565b6040805182518152602080840151908201528282015163ffffffff9081169282019290925260609283015190911691810191909152608001610147565b6000546101d790600160a01b900460ff1681565b6101636102c23660046112f1565b6105e0565b600754610133906001600160a01b031681565b6101636102e83660046113f6565b6106b6565b6103006102fb36600461128a565b610939565b6040516101479291906114dc565b600054610133906001600160a01b031681565b61032a60045481565b604051908152602001610147565b6101336103463660046112d8565b6001602052600090815260409020546001600160a01b031681565b6103a261036f3660046112d8565b60096020526000908152604090208054600182015460029092015490919063ffffffff8082169164010000000090041684565b60408051948552602085019390935263ffffffff91821692840192909252166060820152608001610147565b600554610133906001600160a01b031681565b6005546001600160a01b031633146104405760405162461bcd60e51b815260206004820152600b60248201527f6e6f74206d616e6167657200000000000000000000000000000000000000000060448201526064015b60405180910390fd5b6008546001600160a01b038083169116036104865760405162461bcd60e51b81526004016104379060208082526004908201526373616d6560e01b604082015260600190565b6008805473ffffffffffffffffffffffffffffffffffffffff19166001600160a01b0392909216919091179055565b60075460405163187f356b60e31b81526001600160a01b038381166004830152600092169063c3f9ab5890602401600060405180830381865afa158015610500573d6000803e3d6000fd5b505050506040513d6000823e601f3d908101601f1916820160405261052891908101906114fe565b9050805160000361056e5760405162461bcd60e51b815260206004820152601060248201526f6e6f207265676973746572206461746160801b6044820152606401610437565b600454815111156105d25760405162461bcd60e51b815260206004820152602860248201527f657863656564656420746865206d6178696d756d206e756d626572206f66207260448201526732b3b4b9ba32b91760c11b6064820152608401610437565b6105dc8282610c79565b5050565b6000546001600160a01b031633146106265760405162461bcd60e51b81526020600482015260096024820152683737ba1037bbb732b960b91b6044820152606401610437565b6005805473ffffffffffffffffffffffffffffffffffffffff199081166001600160a01b039788161790915560078054821695871695909517909455600680549094169290941691909117909155600455600880547fffffffffffffffff00000000ffffffffffffffffffffffffffffffffffffffff16600160a01b63ffffffff90931692909202919091179055565b6004548151111561071a5760405162461bcd60e51b815260206004820152602860248201527f657863656564656420746865206d6178696d756d206e756d626572206f66207260448201526732b3b4b9ba32b91760c11b6064820152608401610437565b805160000361075e5760405162461bcd60e51b815260206004820152601060248201526f6e6f207265676973746572206461746160801b6044820152606401610437565b60075460405163187f356b60e31b81526001600160a01b038481166004830152600092169063c3f9ab5890602401600060405180830381865afa1580156107a9573d6000803e3d6000fd5b505050506040513d6000823e601f3d908101601f191682016040526107d191908101906114fe565b905060005b825181101561092957600160005b83518110156108c7578381815181106107ff576107ff61158f565b60200260200101518584815181106108195761081961158f565b6020026020010151036108b557600091506001845161083891906115bb565b81101561088557836001855161084e91906115bb565b8151811061085e5761085e61158f565b60200260200101518482815181106108785761087861158f565b6020026020010181815250505b836001855161089491906115bb565b815181106108a4576108a461158f565b6020026020010160008152506108c7565b806108bf816115d4565b9150506107e4565b5080156109165760405162461bcd60e51b815260206004820152601460248201527f6f776e6572206973206e6f74206163636f756e740000000000000000000000006044820152606401610437565b5080610921816115d4565b9150506107d6565b506109348383610c79565b505050565b60075460405163187f356b60e31b81526001600160a01b03838116600483015260609260009283929091169063c3f9ab5890602401600060405180830381865afa15801561098b573d6000803e3d6000fd5b505050506040513d6000823e601f3d908101601f191682016040526109b391908101906114fe565b90508051600014610a0557805167ffffffffffffffff8111156109d8576109d8611362565b604051908082528060200260200182016040528015610a01578160200160208202803683370190505b5092505b60005b8151811015610c7257600060096000848481518110610a2957610a2961158f565b602090810291909101810151825281810192909252604090810160009081208251608081018452815481526001820154948101949094526002015463ffffffff80821693850193909352640100000000900490911660608301526007548551929350909182916001600160a01b031690639ce5630590879087908110610ab157610ab161158f565b60200260200101516040518263ffffffff1660e01b8152600401610ad791815260200190565b606060405180830381865afa158015610af4573d6000803e3d6000fd5b505050506040513d601f19601f82011682018060405250810190610b1891906115ed565b925092505080600014158015610b2d57508142105b15610c5c5760075485516000916001600160a01b03169063c5dc1e5f90889088908110610b5c57610b5c61158f565b60200260200101516040518263ffffffff1660e01b8152600401610b8291815260200190565b600060405180830381865afa158015610b9f573d6000803e3d6000fd5b505050506040513d6000823e601f3d908101601f19168201604052610bc7919081019061161b565b90508051600014610c5a5760008160018351610be391906115bb565b81518110610bf357610bf361158f565b602002602001015190508060400151856040015163ffffffff161015610c5857868681518110610c2557610c2561158f565b6020026020010151898981518110610c3f57610c3f61158f565b602090810291909101015287610c54816115d4565b9850505b505b505b5050508080610c6a906115d4565b915050610a08565b5050915091565b60606000805b835181101561103657600060096000868481518110610ca057610ca061158f565b602090810291909101810151825281810192909252604090810160009081208251608081018452815481526001820154948101949094526002015463ffffffff80821693850193909352640100000000900490911660608301526007548751929350909182916001600160a01b031690639ce5630590899087908110610d2857610d2861158f565b60200260200101516040518263ffffffff1660e01b8152600401610d4e91815260200190565b606060405180830381865afa158015610d6b573d6000803e3d6000fd5b505050506040513d601f19601f82011682018060405250810190610d8f91906115ed565b925092505080600014158015610da457508142105b15610fe75760075487516000916001600160a01b03169063c5dc1e5f908a9088908110610dd357610dd361158f565b60200260200101516040518263ffffffff1660e01b8152600401610df991815260200190565b600060405180830381865afa158015610e16573d6000803e3d6000fd5b505050506040513d6000823e601f3d908101601f19168201604052610e3e919081019061161b565b90508051600014610fe55760008160018351610e5a91906115bb565b81518110610e6a57610e6a61158f565b602002602001015190508060400151856040015163ffffffff161015610fe357600060405180608001604052808360200151815260200183600001518152602001836040015163ffffffff1681526020014263ffffffff16815250905080600960008c8a81518110610ede57610ede61158f565b6020908102919091018101518252818101929092526040908101600020835181559183015160018301558201516002909101805460609093015163ffffffff9081166401000000000267ffffffffffffffff1990941692169190911791909117905587610f4a816115d4565b985050888a8881518110610f6057610f6061158f565b602090810291909101810151835184830151604080870151606080890151835197880196909652918601939093528401526001600160e01b031960e091821b8116608085015291901b16608482015260880160408051601f1981840301815290829052610fd092916020016116fd565b6040516020818303038152906040529850505b505b505b7fbcbb218265b184f48d71b331fea528d851bbf306a5c8c8d5edd0d6523b7ac2b4888860405161101892919061172c565b60405180910390a1505050808061102e906115d4565b915050610c7f565b50600082511161107b5760405162461bcd60e51b815260206004820152601060248201526f6e6f207265676973746572206461746160801b6044820152606401610437565b6008546040516110c4916001600160a01b03169061109f9087908690602001611756565b60408051808303601f19018152919052600854600160a01b900463ffffffff166110ca565b50505050565b60065460405163507c8bd160e01b81526001600160a01b03909116600482015260009073998210596930Ec4A459c5611A7c151F4DA5a1b399063507c8bd190602401602060405180830381865af4158015611129573d6000803e3d6000fd5b505050506040513d601f19601f8201168201806040525081019061114d919061178e565b90506001600160a01b0381166111a55760405162461bcd60e51b815260206004820152601a60248201527f6c314d657373656e676572206973205a65726f416464726573730000000000006044820152606401610437565b60006382fbdc9c60e01b846040516024016111c091906117d7565b60408051601f198184030181529181526020820180517bffffffffffffffffffffffffffffffffffffffffffffffffffffffff166001600160e01b0319909416939093179092529051633dbb202b60e01b81529091506001600160a01b03831690633dbb202b90611239908890859088906004016117ea565b600060405180830381600087803b15801561125357600080fd5b505af1158015611267573d6000803e3d6000fd5b505050505050505050565b6001600160a01b038116811461128757600080fd5b50565b60006020828403121561129c57600080fd5b81356112a781611272565b9392505050565b6000602082840312156112c057600080fd5b81356001600160e01b0319811681146112a757600080fd5b6000602082840312156112ea57600080fd5b5035919050565b600080600080600060a0868803121561130957600080fd5b853561131481611272565b9450602086013561132481611272565b9350604086013561133481611272565b925060608601359150608086013563ffffffff8116811461135457600080fd5b809150509295509295909350565b634e487b7160e01b600052604160045260246000fd5b6040516060810167ffffffffffffffff8111828210171561139b5761139b611362565b60405290565b604051601f8201601f1916810167ffffffffffffffff811182821017156113ca576113ca611362565b604052919050565b600067ffffffffffffffff8211156113ec576113ec611362565b5060051b60200190565b6000806040838503121561140957600080fd5b823561141481611272565b915060208381013567ffffffffffffffff81111561143157600080fd5b8401601f8101861361144257600080fd5b8035611455611450826113d2565b6113a1565b81815260059190911b8201830190838101908883111561147457600080fd5b928401925b8284101561149257833582529284019290840190611479565b80955050505050509250929050565b600081518084526020808501945080840160005b838110156114d1578151875295820195908201906001016114b5565b509495945050505050565b6040815260006114ef60408301856114a1565b90508260208301529392505050565b6000602080838503121561151157600080fd5b825167ffffffffffffffff81111561152857600080fd5b8301601f8101851361153957600080fd5b8051611547611450826113d2565b81815260059190911b8201830190838101908783111561156657600080fd5b928401925b828410156115845783518252928401929084019061156b565b979650505050505050565b634e487b7160e01b600052603260045260246000fd5b634e487b7160e01b600052601160045260246000fd5b818103818111156115ce576115ce6115a5565b92915050565b6000600182016115e6576115e66115a5565b5060010190565b60008060006060848603121561160257600080fd5b8351925060208401519150604084015190509250925092565b6000602080838503121561162e57600080fd5b825167ffffffffffffffff81111561164557600080fd5b8301601f8101851361165657600080fd5b8051611664611450826113d2565b8181526060918202830184019184820191908884111561168357600080fd5b938501935b838510156116cd5780858a0312156116a05760008081fd5b6116a8611378565b8551815286860151878201526040808701519082015283529384019391850191611688565b50979650505050505050565b60005b838110156116f45781810151838201526020016116dc565b50506000910152565b6000835161170f8184602088016116d9565b8351908301906117238183602088016116d9565b01949350505050565b6001600160a01b038316815260406020820152600061174e60408301846114a1565b949350505050565b6bffffffffffffffffffffffff198360601b168152600082516117808160148501602087016116d9565b919091016014019392505050565b6000602082840312156117a057600080fd5b81516112a781611272565b600081518084526117c38160208601602086016116d9565b601f01601f19169290920160200192915050565b6020815260006112a760208301846117ab565b6001600160a01b038416815260606020820152600061180c60608301856117ab565b905063ffffffff8316604083015294935050505056fea164736f6c6343000812000a",
  "deployedBytecode": "0x608060405234801561001057600080fd5b506004361061011b5760003560e01c806366c4ab23116100b2578063b2bdfa7b11610081578063b911135f11610066578063b911135f14610338578063be60b21414610361578063f0329f6b146103ce57600080fd5b8063b2bdfa7b1461030e578063b84935561461032157600080fd5b806366c4ab23146102b45780637aa7794a146102c75780637f5823af146102da5780639d060c0a146102ed57600080fd5b806350d2a276116100ee57806350d2a2761461018b578063550d01a3146101b45780635f17529f146101e757806363a8fd89146102a057600080fd5b80633ab76e9f146101205780633dfc795b146101505780634420e48614610165578063472d1f7114610178575b600080fd5b600654610133906001600160a01b031681565b6040516001600160a01b0390911681526020015b60405180910390f35b61016361015e36600461128a565b6103e1565b005b61016361017336600461128a565b6104b5565b600854610133906001600160a01b031681565b6101336101993660046112ae565b6003602052600090815260409020546001600160a01b031681565b6101d76101c236600461128a565b60026020526000908152604090205460ff1681565b6040519015158152602001610147565b6102636101f53660046112d8565b604080516080808201835260008083526020808401829052838501829052606093840182905294815260098552839020835191820184528054825260018101549482019490945260029093015463ffffffff8082169385019390935264010000000090049091169082015290565b6040805182518152602080840151908201528282015163ffffffff9081169282019290925260609283015190911691810191909152608001610147565b6000546101d790600160a01b900460ff1681565b6101636102c23660046112f1565b6105e0565b600754610133906001600160a01b031681565b6101636102e83660046113f6565b6106b6565b6103006102fb36600461128a565b610939565b6040516101479291906114dc565b600054610133906001600160a01b031681565b61032a60045481565b604051908152602001610147565b6101336103463660046112d8565b6001602052600090815260409020546001600160a01b031681565b6103a261036f3660046112d8565b60096020526000908152604090208054600182015460029092015490919063ffffffff8082169164010000000090041684565b60408051948552602085019390935263ffffffff91821692840192909252166060820152608001610147565b600554610133906001600160a01b031681565b6005546001600160a01b031633146104405760405162461bcd60e51b815260206004820152600b60248201527f6e6f74206d616e6167657200000000000000000000000000000000000000000060448201526064015b60405180910390fd5b6008546001600160a01b038083169116036104865760405162461bcd60e51b81526004016104379060208082526004908201526373616d6560e01b604082015260600190565b6008805473ffffffffffffffffffffffffffffffffffffffff19166001600160a01b0392909216919091179055565b60075460405163187f356b60e31b81526001600160a01b038381166004830152600092169063c3f9ab5890602401600060405180830381865afa158015610500573d6000803e3d6000fd5b505050506040513d6000823e601f3d908101601f1916820160405261052891908101906114fe565b9050805160000361056e5760405162461bcd60e51b815260206004820152601060248201526f6e6f207265676973746572206461746160801b6044820152606401610437565b600454815111156105d25760405162461bcd60e51b815260206004820152602860248201527f657863656564656420746865206d6178696d756d206e756d626572206f66207260448201526732b3b4b9ba32b91760c11b6064820152608401610437565b6105dc8282610c79565b5050565b6000546001600160a01b031633146106265760405162461bcd60e51b81526020600482015260096024820152683737ba1037bbb732b960b91b6044820152606401610437565b6005805473ffffffffffffffffffffffffffffffffffffffff199081166001600160a01b039788161790915560078054821695871695909517909455600680549094169290941691909117909155600455600880547fffffffffffffffff00000000ffffffffffffffffffffffffffffffffffffffff16600160a01b63ffffffff90931692909202919091179055565b6004548151111561071a5760405162461bcd60e51b815260206004820152602860248201527f657863656564656420746865206d6178696d756d206e756d626572206f66207260448201526732b3b4b9ba32b91760c11b6064820152608401610437565b805160000361075e5760405162461bcd60e51b815260206004820152601060248201526f6e6f207265676973746572206461746160801b6044820152606401610437565b60075460405163187f356b60e31b81526001600160a01b038481166004830152600092169063c3f9ab5890602401600060405180830381865afa1580156107a9573d6000803e3d6000fd5b505050506040513d6000823e601f3d908101601f191682016040526107d191908101906114fe565b905060005b825181101561092957600160005b83518110156108c7578381815181106107ff576107ff61158f565b60200260200101518584815181106108195761081961158f565b6020026020010151036108b557600091506001845161083891906115bb565b81101561088557836001855161084e91906115bb565b8151811061085e5761085e61158f565b60200260200101518482815181106108785761087861158f565b6020026020010181815250505b836001855161089491906115bb565b815181106108a4576108a461158f565b6020026020010160008152506108c7565b806108bf816115d4565b9150506107e4565b5080156109165760405162461bcd60e51b815260206004820152601460248201527f6f776e6572206973206e6f74206163636f756e740000000000000000000000006044820152606401610437565b5080610921816115d4565b9150506107d6565b506109348383610c79565b505050565b60075460405163187f356b60e31b81526001600160a01b03838116600483015260609260009283929091169063c3f9ab5890602401600060405180830381865afa15801561098b573d6000803e3d6000fd5b505050506040513d6000823e601f3d908101601f191682016040526109b391908101906114fe565b90508051600014610a0557805167ffffffffffffffff8111156109d8576109d8611362565b604051908082528060200260200182016040528015610a01578160200160208202803683370190505b5092505b60005b8151811015610c7257600060096000848481518110610a2957610a2961158f565b602090810291909101810151825281810192909252604090810160009081208251608081018452815481526001820154948101949094526002015463ffffffff80821693850193909352640100000000900490911660608301526007548551929350909182916001600160a01b031690639ce5630590879087908110610ab157610ab161158f565b60200260200101516040518263ffffffff1660e01b8152600401610ad791815260200190565b606060405180830381865afa158015610af4573d6000803e3d6000fd5b505050506040513d601f19601f82011682018060405250810190610b1891906115ed565b925092505080600014158015610b2d57508142105b15610c5c5760075485516000916001600160a01b03169063c5dc1e5f90889088908110610b5c57610b5c61158f565b60200260200101516040518263ffffffff1660e01b8152600401610b8291815260200190565b600060405180830381865afa158015610b9f573d6000803e3d6000fd5b505050506040513d6000823e601f3d908101601f19168201604052610bc7919081019061161b565b90508051600014610c5a5760008160018351610be391906115bb565b81518110610bf357610bf361158f565b602002602001015190508060400151856040015163ffffffff161015610c5857868681518110610c2557610c2561158f565b6020026020010151898981518110610c3f57610c3f61158f565b602090810291909101015287610c54816115d4565b9850505b505b505b5050508080610c6a906115d4565b915050610a08565b5050915091565b60606000805b835181101561103657600060096000868481518110610ca057610ca061158f565b602090810291909101810151825281810192909252604090810160009081208251608081018452815481526001820154948101949094526002015463ffffffff80821693850193909352640100000000900490911660608301526007548751929350909182916001600160a01b031690639ce5630590899087908110610d2857610d2861158f565b60200260200101516040518263ffffffff1660e01b8152600401610d4e91815260200190565b606060405180830381865afa158015610d6b573d6000803e3d6000fd5b505050506040513d601f19601f82011682018060405250810190610d8f91906115ed565b925092505080600014158015610da457508142105b15610fe75760075487516000916001600160a01b03169063c5dc1e5f908a9088908110610dd357610dd361158f565b60200260200101516040518263ffffffff1660e01b8152600401610df991815260200190565b600060405180830381865afa158015610e16573d6000803e3d6000fd5b505050506040513d6000823e601f3d908101601f19168201604052610e3e919081019061161b565b90508051600014610fe55760008160018351610e5a91906115bb565b81518110610e6a57610e6a61158f565b602002602001015190508060400151856040015163ffffffff161015610fe357600060405180608001604052808360200151815260200183600001518152602001836040015163ffffffff1681526020014263ffffffff16815250905080600960008c8a81518110610ede57610ede61158f565b6020908102919091018101518252818101929092526040908101600020835181559183015160018301558201516002909101805460609093015163ffffffff9081166401000000000267ffffffffffffffff1990941692169190911791909117905587610f4a816115d4565b985050888a8881518110610f6057610f6061158f565b602090810291909101810151835184830151604080870151606080890151835197880196909652918601939093528401526001600160e01b031960e091821b8116608085015291901b16608482015260880160408051601f1981840301815290829052610fd092916020016116fd565b6040516020818303038152906040529850505b505b505b7fbcbb218265b184f48d71b331fea528d851bbf306a5c8c8d5edd0d6523b7ac2b4888860405161101892919061172c565b60405180910390a1505050808061102e906115d4565b915050610c7f565b50600082511161107b5760405162461bcd60e51b815260206004820152601060248201526f6e6f207265676973746572206461746160801b6044820152606401610437565b6008546040516110c4916001600160a01b03169061109f9087908690602001611756565b60408051808303601f19018152919052600854600160a01b900463ffffffff166110ca565b50505050565b60065460405163507c8bd160e01b81526001600160a01b03909116600482015260009073__$b2d160aea0e65d5e83164dd2e3c22b89ec$__9063507c8bd190602401602060405180830381865af4158015611129573d6000803e3d6000fd5b505050506040513d601f19601f8201168201806040525081019061114d919061178e565b90506001600160a01b0381166111a55760405162461bcd60e51b815260206004820152601a60248201527f6c314d657373656e676572206973205a65726f416464726573730000000000006044820152606401610437565b60006382fbdc9c60e01b846040516024016111c091906117d7565b60408051601f198184030181529181526020820180517bffffffffffffffffffffffffffffffffffffffffffffffffffffffff166001600160e01b0319909416939093179092529051633dbb202b60e01b81529091506001600160a01b03831690633dbb202b90611239908890859088906004016117ea565b600060405180830381600087803b15801561125357600080fd5b505af1158015611267573d6000803e3d6000fd5b505050505050505050565b6001600160a01b038116811461128757600080fd5b50565b60006020828403121561129c57600080fd5b81356112a781611272565b9392505050565b6000602082840312156112c057600080fd5b81356001600160e01b0319811681146112a757600080fd5b6000602082840312156112ea57600080fd5b5035919050565b600080600080600060a0868803121561130957600080fd5b853561131481611272565b9450602086013561132481611272565b9350604086013561133481611272565b925060608601359150608086013563ffffffff8116811461135457600080fd5b809150509295509295909350565b634e487b7160e01b600052604160045260246000fd5b6040516060810167ffffffffffffffff8111828210171561139b5761139b611362565b60405290565b604051601f8201601f1916810167ffffffffffffffff811182821017156113ca576113ca611362565b604052919050565b600067ffffffffffffffff8211156113ec576113ec611362565b5060051b60200190565b6000806040838503121561140957600080fd5b823561141481611272565b915060208381013567ffffffffffffffff81111561143157600080fd5b8401601f8101861361144257600080fd5b8035611455611450826113d2565b6113a1565b81815260059190911b8201830190838101908883111561147457600080fd5b928401925b8284101561149257833582529284019290840190611479565b80955050505050509250929050565b600081518084526020808501945080840160005b838110156114d1578151875295820195908201906001016114b5565b509495945050505050565b6040815260006114ef60408301856114a1565b90508260208301529392505050565b6000602080838503121561151157600080fd5b825167ffffffffffffffff81111561152857600080fd5b8301601f8101851361153957600080fd5b8051611547611450826113d2565b81815260059190911b8201830190838101908783111561156657600080fd5b928401925b828410156115845783518252928401929084019061156b565b979650505050505050565b634e487b7160e01b600052603260045260246000fd5b634e487b7160e01b600052601160045260246000fd5b818103818111156115ce576115ce6115a5565b92915050565b6000600182016115e6576115e66115a5565b5060010190565b60008060006060848603121561160257600080fd5b8351925060208401519150604084015190509250925092565b6000602080838503121561162e57600080fd5b825167ffffffffffffffff81111561164557600080fd5b8301601f8101851361165657600080fd5b8051611664611450826113d2565b8181526060918202830184019184820191908884111561168357600080fd5b938501935b838510156116cd5780858a0312156116a05760008081fd5b6116a8611378565b8551815286860151878201526040808701519082015283529384019391850191611688565b50979650505050505050565b60005b838110156116f45781810151838201526020016116dc565b50506000910152565b6000835161170f8184602088016116d9565b8351908301906117238183602088016116d9565b01949350505050565b6001600160a01b038316815260406020820152600061174e60408301846114a1565b949350505050565b6bffffffffffffffffffffffff198360601b168152600082516117808160148501602087016116d9565b919091016014019392505050565b6000602082840312156117a057600080fd5b81516112a781611272565b600081518084526117c38160208601602086016116d9565b601f01601f19169290920160200192915050565b6020815260006112a760208301846117ab565b6001600160a01b038416815260606020820152600061180c60608301856117ab565b905063ffffffff8316604083015294935050505056fea164736f6c6343000812000a",
  "libraries": {
    "LibProject": "0x998210596930Ec4A459c5611A7c151F4DA5a1b39"
  },
  "devdoc": {
    "kind": "dev",
    "methods": {},
    "version": 1
  },
  "userdoc": {
    "kind": "user",
    "methods": {},
    "version": 1
  },
  "storageLayout": {
    "storage": [
      {
        "astId": 13285,
        "contract": "contracts/L1/L1StosToL2.sol:L1StosToL2",
        "label": "_owner",
        "offset": 0,
        "slot": "0",
        "type": "t_address"
      },
      {
        "astId": 13287,
        "contract": "contracts/L1/L1StosToL2.sol:L1StosToL2",
        "label": "pauseProxy",
        "offset": 20,
        "slot": "0",
        "type": "t_bool"
      },
      {
        "astId": 13291,
        "contract": "contracts/L1/L1StosToL2.sol:L1StosToL2",
        "label": "proxyImplementation",
        "offset": 0,
        "slot": "1",
        "type": "t_mapping(t_uint256,t_address)"
      },
      {
        "astId": 13295,
        "contract": "contracts/L1/L1StosToL2.sol:L1StosToL2",
        "label": "aliveImplementation",
        "offset": 0,
        "slot": "2",
        "type": "t_mapping(t_address,t_bool)"
      },
      {
        "astId": 13299,
        "contract": "contracts/L1/L1StosToL2.sol:L1StosToL2",
        "label": "selectorImplementation",
        "offset": 0,
        "slot": "3",
        "type": "t_mapping(t_bytes4,t_address)"
      },
      {
        "astId": 3933,
        "contract": "contracts/L1/L1StosToL2.sol:L1StosToL2",
        "label": "maxLockCountPerRegister",
        "offset": 0,
        "slot": "4",
        "type": "t_uint256"
      },
      {
        "astId": 3935,
        "contract": "contracts/L1/L1StosToL2.sol:L1StosToL2",
        "label": "_manager",
        "offset": 0,
        "slot": "5",
        "type": "t_address"
      },
      {
        "astId": 3937,
        "contract": "contracts/L1/L1StosToL2.sol:L1StosToL2",
        "label": "addressManager",
        "offset": 0,
        "slot": "6",
        "type": "t_address"
      },
      {
        "astId": 3939,
        "contract": "contracts/L1/L1StosToL2.sol:L1StosToL2",
        "label": "lockTos",
        "offset": 0,
        "slot": "7",
        "type": "t_address"
      },
      {
        "astId": 3941,
        "contract": "contracts/L1/L1StosToL2.sol:L1StosToL2",
        "label": "l2Register",
        "offset": 0,
        "slot": "8",
        "type": "t_address"
      },
      {
        "astId": 3943,
        "contract": "contracts/L1/L1StosToL2.sol:L1StosToL2",
        "label": "minGasLimitRegister",
        "offset": 20,
        "slot": "8",
        "type": "t_uint32"
      },
      {
        "astId": 3948,
        "contract": "contracts/L1/L1StosToL2.sol:L1StosToL2",
        "label": "syncInfoOfLockId",
        "offset": 0,
        "slot": "9",
        "type": "t_mapping(t_uint256,t_struct(SyncInfo)12152_storage)"
      },
      {
        "astId": 3950,
        "contract": "contracts/L1/L1StosToL2.sol:L1StosToL2",
        "label": "_lock",
        "offset": 0,
        "slot": "10",
        "type": "t_bool"
      }
    ],
    "types": {
      "t_address": {
        "encoding": "inplace",
        "label": "address",
        "numberOfBytes": "20"
      },
      "t_bool": {
        "encoding": "inplace",
        "label": "bool",
        "numberOfBytes": "1"
      },
      "t_bytes4": {
        "encoding": "inplace",
        "label": "bytes4",
        "numberOfBytes": "4"
      },
      "t_int256": {
        "encoding": "inplace",
        "label": "int256",
        "numberOfBytes": "32"
      },
      "t_mapping(t_address,t_bool)": {
        "encoding": "mapping",
        "key": "t_address",
        "label": "mapping(address => bool)",
        "numberOfBytes": "32",
        "value": "t_bool"
      },
      "t_mapping(t_bytes4,t_address)": {
        "encoding": "mapping",
        "key": "t_bytes4",
        "label": "mapping(bytes4 => address)",
        "numberOfBytes": "32",
        "value": "t_address"
      },
      "t_mapping(t_uint256,t_address)": {
        "encoding": "mapping",
        "key": "t_uint256",
        "label": "mapping(uint256 => address)",
        "numberOfBytes": "32",
        "value": "t_address"
      },
      "t_mapping(t_uint256,t_struct(SyncInfo)12152_storage)": {
        "encoding": "mapping",
        "key": "t_uint256",
        "label": "mapping(uint256 => struct LibLockId.SyncInfo)",
        "numberOfBytes": "32",
        "value": "t_struct(SyncInfo)12152_storage"
      },
      "t_struct(SyncInfo)12152_storage": {
        "encoding": "inplace",
        "label": "struct LibLockId.SyncInfo",
        "members": [
          {
            "astId": 12145,
            "contract": "contracts/L1/L1StosToL2.sol:L1StosToL2",
            "label": "slope",
            "offset": 0,
            "slot": "0",
            "type": "t_int256"
          },
          {
            "astId": 12147,
            "contract": "contracts/L1/L1StosToL2.sol:L1StosToL2",
            "label": "bias",
            "offset": 0,
            "slot": "1",
            "type": "t_int256"
          },
          {
            "astId": 12149,
            "contract": "contracts/L1/L1StosToL2.sol:L1StosToL2",
            "label": "timestamp",
            "offset": 0,
            "slot": "2",
            "type": "t_uint32"
          },
          {
            "astId": 12151,
            "contract": "contracts/L1/L1StosToL2.sol:L1StosToL2",
            "label": "syncTime",
            "offset": 4,
            "slot": "2",
            "type": "t_uint32"
          }
        ],
        "numberOfBytes": "96"
      },
      "t_uint256": {
        "encoding": "inplace",
        "label": "uint256",
        "numberOfBytes": "32"
      },
      "t_uint32": {
        "encoding": "inplace",
        "label": "uint32",
        "numberOfBytes": "4"
      }
    }
  }
}