{
  "address": "0xF6340b66a7790e5bd4dE29F4575a6012D4126032",
  "abi": [
    {
      "inputs": [],
      "stateMutability": "nonpayable",
      "type": "constructor"
    },
    {
      "inputs": [],
      "name": "_manager",
      "outputs": [
        {
          "internalType": "address",
          "name": "",
          "type": "address"
        }
      ],
      "stateMutability": "view",
      "type": "function"
    },
    {
      "inputs": [],
      "name": "_owner",
      "outputs": [
        {
          "internalType": "address",
          "name": "",
          "type": "address"
        }
      ],
      "stateMutability": "view",
      "type": "function"
    },
    {
      "inputs": [],
      "name": "addressManager",
      "outputs": [
        {
          "internalType": "address",
          "name": "",
          "type": "address"
        }
      ],
      "stateMutability": "view",
      "type": "function"
    },
    {
      "inputs": [
        {
          "internalType": "address",
          "name": "",
          "type": "address"
        }
      ],
      "name": "aliveImplementation",
      "outputs": [
        {
          "internalType": "bool",
          "name": "",
          "type": "bool"
        }
      ],
      "stateMutability": "view",
      "type": "function"
    },
    {
      "inputs": [
        {
          "internalType": "address",
          "name": "managerAddress",
          "type": "address"
        },
        {
          "internalType": "address",
          "name": "lockTosAddress",
          "type": "address"
        },
        {
          "internalType": "address",
          "name": "addressManagerAddress",
          "type": "address"
        },
        {
          "internalType": "uint256",
          "name": "maxLockCountPerRegister_",
          "type": "uint256"
        },
        {
          "internalType": "uint32",
          "name": "minGasLimitRegister_",
          "type": "uint32"
        }
      ],
      "name": "initialize",
      "outputs": [],
      "stateMutability": "nonpayable",
      "type": "function"
    },
    {
      "inputs": [],
      "name": "l2Register",
      "outputs": [
        {
          "internalType": "address",
          "name": "",
          "type": "address"
        }
      ],
      "stateMutability": "view",
      "type": "function"
    },
    {
      "inputs": [],
      "name": "lockTos",
      "outputs": [
        {
          "internalType": "address",
          "name": "",
          "type": "address"
        }
      ],
      "stateMutability": "view",
      "type": "function"
    },
    {
      "inputs": [],
      "name": "maxLockCountPerRegister",
      "outputs": [
        {
          "internalType": "uint256",
          "name": "",
          "type": "uint256"
        }
      ],
      "stateMutability": "view",
      "type": "function"
    },
    {
      "inputs": [
        {
          "internalType": "address",
          "name": "account",
          "type": "address"
        }
      ],
      "name": "needSyncList",
      "outputs": [
        {
          "internalType": "uint256[]",
          "name": "lockIds",
          "type": "uint256[]"
        }
      ],
      "stateMutability": "view",
      "type": "function"
    },
    {
      "inputs": [],
      "name": "pauseProxy",
      "outputs": [
        {
          "internalType": "bool",
          "name": "",
          "type": "bool"
        }
      ],
      "stateMutability": "view",
      "type": "function"
    },
    {
      "inputs": [
        {
          "internalType": "uint256",
          "name": "",
          "type": "uint256"
        }
      ],
      "name": "proxyImplementation",
      "outputs": [
        {
          "internalType": "address",
          "name": "",
          "type": "address"
        }
      ],
      "stateMutability": "view",
      "type": "function"
    },
    {
      "inputs": [
        {
          "internalType": "address",
          "name": "account",
          "type": "address"
        }
      ],
      "name": "register",
      "outputs": [],
      "stateMutability": "nonpayable",
      "type": "function"
    },
    {
      "inputs": [
        {
          "internalType": "address",
          "name": "account",
          "type": "address"
        },
        {
          "internalType": "uint256[]",
          "name": "lockIds",
          "type": "uint256[]"
        }
      ],
      "name": "register",
      "outputs": [],
      "stateMutability": "nonpayable",
      "type": "function"
    },
    {
      "inputs": [
        {
          "internalType": "bytes4",
          "name": "",
          "type": "bytes4"
        }
      ],
      "name": "selectorImplementation",
      "outputs": [
        {
          "internalType": "address",
          "name": "",
          "type": "address"
        }
      ],
      "stateMutability": "view",
      "type": "function"
    },
    {
      "inputs": [
        {
          "internalType": "address",
          "name": "l2Register_",
          "type": "address"
        }
      ],
      "name": "setL2Register",
      "outputs": [],
      "stateMutability": "nonpayable",
      "type": "function"
    },
    {
      "inputs": [
        {
          "internalType": "uint256",
          "name": "",
          "type": "uint256"
        }
      ],
      "name": "syncInfoOfLockId",
      "outputs": [
        {
          "internalType": "int256",
          "name": "slope",
          "type": "int256"
        },
        {
          "internalType": "int256",
          "name": "bias",
          "type": "int256"
        },
        {
          "internalType": "uint32",
          "name": "timestamp",
          "type": "uint32"
        },
        {
          "internalType": "uint32",
          "name": "syncTime",
          "type": "uint32"
        }
      ],
      "stateMutability": "view",
      "type": "function"
    },
    {
      "inputs": [
        {
          "internalType": "uint256",
          "name": "lockId",
          "type": "uint256"
        }
      ],
      "name": "viewRegisterInfoOfLockId",
      "outputs": [
        {
          "components": [
            {
              "internalType": "int256",
              "name": "slope",
              "type": "int256"
            },
            {
              "internalType": "int256",
              "name": "bias",
              "type": "int256"
            },
            {
              "internalType": "uint32",
              "name": "timestamp",
              "type": "uint32"
            },
            {
              "internalType": "uint32",
              "name": "syncTime",
              "type": "uint32"
            }
          ],
          "internalType": "struct LibLockId.SyncInfo",
          "name": "",
          "type": "tuple"
        }
      ],
      "stateMutability": "view",
      "type": "function"
    }
  ],
  "transactionHash": "0xf25ac6244fef75484507da2ca08f725068b4d6fae655621cf5439696c45a978d",
  "args": [],
  "numDeployments": 1,
  "solcInputHash": "bada9199aa7c30da986f5334cd00c4a6",
  "bytecode": "0x608060405234801561001057600080fd5b50611750806100206000396000f3fe608060405234801561001057600080fd5b506004361061011b5760003560e01c806366c4ab23116100b2578063b2bdfa7b11610081578063b911135f11610066578063b911135f14610337578063be60b21414610360578063f0329f6b146103cd57600080fd5b8063b2bdfa7b1461030d578063b84935561461032057600080fd5b806366c4ab23146102b45780637aa7794a146102c75780637f5823af146102da5780639d060c0a146102ed57600080fd5b806350d2a276116100ee57806350d2a2761461018b578063550d01a3146101b45780635f17529f146101e757806363a8fd89146102a057600080fd5b80633ab76e9f146101205780633dfc795b146101505780634420e48614610165578063472d1f7114610178575b600080fd5b600654610133906001600160a01b031681565b6040516001600160a01b0390911681526020015b60405180910390f35b61016361015e3660046111ee565b6103e0565b005b6101636101733660046111ee565b6104a2565b600854610133906001600160a01b031681565b610133610199366004611212565b6003602052600090815260409020546001600160a01b031681565b6101d76101c23660046111ee565b60026020526000908152604090205460ff1681565b6040519015158152602001610147565b6102636101f536600461123c565b604080516080808201835260008083526020808401829052838501829052606093840182905294815260098552839020835191820184528054825260018101549482019490945260029093015463ffffffff8082169385019390935264010000000090049091169082015290565b6040805182518152602080840151908201528282015163ffffffff9081169282019290925260609283015190911691810191909152608001610147565b6000546101d790600160a01b900460ff1681565b6101636102c2366004611255565b6105cd565b600754610133906001600160a01b031681565b6101636102e836600461135a565b6106a5565b6103006102fb3660046111ee565b610928565b6040516101479190611405565b600054610133906001600160a01b031681565b61032960045481565b604051908152602001610147565b61013361034536600461123c565b6001602052600090815260409020546001600160a01b031681565b6103a161036e36600461123c565b60096020526000908152604090208054600182015460029092015490919063ffffffff8082169164010000000090041684565b60408051948552602085019390935263ffffffff91821692840192909252166060820152608001610147565b600554610133906001600160a01b031681565b6005546001600160a01b0316331461042d5760405162461bcd60e51b815260206004820152600b60248201526a3737ba1036b0b730b3b2b960a91b60448201526064015b60405180910390fd5b6008546001600160a01b038083169116036104735760405162461bcd60e51b81526004016104249060208082526004908201526373616d6560e01b604082015260600190565b6008805473ffffffffffffffffffffffffffffffffffffffff19166001600160a01b0392909216919091179055565b60075460405163187f356b60e31b81526001600160a01b038381166004830152600092169063c3f9ab5890602401600060405180830381865afa1580156104ed573d6000803e3d6000fd5b505050506040513d6000823e601f3d908101601f191682016040526105159190810190611449565b9050805160000361055b5760405162461bcd60e51b815260206004820152601060248201526f6e6f207265676973746572206461746160801b6044820152606401610424565b600454815111156105bf5760405162461bcd60e51b815260206004820152602860248201527f657863656564656420746865206d6178696d756d206e756d626572206f66207260448201526732b3b4b9ba32b91760c11b6064820152608401610424565b6105c98282610c16565b5050565b6005546001600160a01b031633146106155760405162461bcd60e51b815260206004820152600b60248201526a3737ba1036b0b730b3b2b960a91b6044820152606401610424565b6005805473ffffffffffffffffffffffffffffffffffffffff199081166001600160a01b039788161790915560078054821695871695909517909455600680549094169290941691909117909155600455600880547fffffffffffffffff00000000ffffffffffffffffffffffffffffffffffffffff16600160a01b63ffffffff90931692909202919091179055565b600454815111156107095760405162461bcd60e51b815260206004820152602860248201527f657863656564656420746865206d6178696d756d206e756d626572206f66207260448201526732b3b4b9ba32b91760c11b6064820152608401610424565b805160000361074d5760405162461bcd60e51b815260206004820152601060248201526f6e6f207265676973746572206461746160801b6044820152606401610424565b60075460405163187f356b60e31b81526001600160a01b038481166004830152600092169063c3f9ab5890602401600060405180830381865afa158015610798573d6000803e3d6000fd5b505050506040513d6000823e601f3d908101601f191682016040526107c09190810190611449565b905060005b825181101561091857600160005b83518110156108b6578381815181106107ee576107ee6114da565b6020026020010151858481518110610808576108086114da565b6020026020010151036108a45760009150600184516108279190611506565b81101561087457836001855161083d9190611506565b8151811061084d5761084d6114da565b6020026020010151848281518110610867576108676114da565b6020026020010181815250505b83600185516108839190611506565b81518110610893576108936114da565b6020026020010160008152506108b6565b806108ae8161151f565b9150506107d3565b5080156109055760405162461bcd60e51b815260206004820152601460248201527f6f776e6572206973206e6f74206163636f756e740000000000000000000000006044820152606401610424565b50806109108161151f565b9150506107c5565b506109238383610c16565b505050565b60075460405163187f356b60e31b81526001600160a01b03838116600483015260609260009291169063c3f9ab5890602401600060405180830381865afa158015610977573d6000803e3d6000fd5b505050506040513d6000823e601f3d908101601f1916820160405261099f9190810190611449565b905060005b8151811015610c0f576000600960008484815181106109c5576109c56114da565b602090810291909101810151825281810192909252604090810160009081208251608081018452815481526001820154948101949094526002015463ffffffff80821693850193909352640100000000900490911660608301526007548551929350909182916001600160a01b031690639ce5630590879087908110610a4d57610a4d6114da565b60200260200101516040518263ffffffff1660e01b8152600401610a7391815260200190565b606060405180830381865afa158015610a90573d6000803e3d6000fd5b505050506040513d601f19601f82011682018060405250810190610ab49190611538565b925092505080600014158015610ac957508142105b15610bf95760075485516000916001600160a01b03169063c5dc1e5f90889088908110610af857610af86114da565b60200260200101516040518263ffffffff1660e01b8152600401610b1e91815260200190565b600060405180830381865afa158015610b3b573d6000803e3d6000fd5b505050506040513d6000823e601f3d908101601f19168201604052610b639190810190611566565b90508051600014610bf75760008160018351610b7f9190611506565b81518110610b8f57610b8f6114da565b602002602001015190508060400151856040015163ffffffff161015610bf557868681518110610bc157610bc16114da565b60200260200101518860018a51610bd89190611506565b81518110610be857610be86114da565b6020026020010181815250505b505b505b5050508080610c079061151f565b9150506109a4565b5050919050565b60606000805b8351811015610f9a57600060096000868481518110610c3d57610c3d6114da565b602090810291909101810151825281810192909252604090810160009081208251608081018452815481526001820154948101949094526002015463ffffffff80821693850193909352640100000000900490911660608301526007548751929350909182916001600160a01b031690639ce5630590899087908110610cc557610cc56114da565b60200260200101516040518263ffffffff1660e01b8152600401610ceb91815260200190565b606060405180830381865afa158015610d08573d6000803e3d6000fd5b505050506040513d601f19601f82011682018060405250810190610d2c9190611538565b925092505080600014158015610d4157508142105b15610f845760075487516000916001600160a01b03169063c5dc1e5f908a9088908110610d7057610d706114da565b60200260200101516040518263ffffffff1660e01b8152600401610d9691815260200190565b600060405180830381865afa158015610db3573d6000803e3d6000fd5b505050506040513d6000823e601f3d908101601f19168201604052610ddb9190810190611566565b90508051600014610f825760008160018351610df79190611506565b81518110610e0757610e076114da565b602002602001015190508060400151856040015163ffffffff161015610f8057600060405180608001604052808360200151815260200183600001518152602001836040015163ffffffff1681526020014263ffffffff16815250905080600960008c8a81518110610e7b57610e7b6114da565b6020908102919091018101518252818101929092526040908101600020835181559183015160018301558201516002909101805460609093015163ffffffff9081166401000000000267ffffffffffffffff1990941692169190911791909117905587610ee78161151f565b985050888a8881518110610efd57610efd6114da565b602090810291909101810151835184830151604080870151606080890151835197880196909652918601939093528401526001600160e01b031960e091821b8116608085015291901b16608482015260880160408051601f1981840301815290829052610f6d9291602001611648565b6040516020818303038152906040529850505b505b505b5050508080610f929061151f565b915050610c1c565b506000825111610fdf5760405162461bcd60e51b815260206004820152601060248201526f6e6f207265676973746572206461746160801b6044820152606401610424565b600854604051611028916001600160a01b0316906110039087908690602001611677565b60408051808303601f19018152919052600854600160a01b900463ffffffff1661102e565b50505050565b60065460405163507c8bd160e01b81526001600160a01b039091166004820152600090735d85cD9D3e2864D4a156497083eb6E4394bF8aae9063507c8bd190602401602060405180830381865af415801561108d573d6000803e3d6000fd5b505050506040513d601f19601f820116820180604052508101906110b191906116af565b90506001600160a01b0381166111095760405162461bcd60e51b815260206004820152601a60248201527f6c314d657373656e676572206973205a65726f416464726573730000000000006044820152606401610424565b60006382fbdc9c60e01b8460405160240161112491906116f8565b60408051601f198184030181529181526020820180517bffffffffffffffffffffffffffffffffffffffffffffffffffffffff166001600160e01b0319909416939093179092529051633dbb202b60e01b81529091506001600160a01b03831690633dbb202b9061119d9088908590889060040161170b565b600060405180830381600087803b1580156111b757600080fd5b505af11580156111cb573d6000803e3d6000fd5b505050505050505050565b6001600160a01b03811681146111eb57600080fd5b50565b60006020828403121561120057600080fd5b813561120b816111d6565b9392505050565b60006020828403121561122457600080fd5b81356001600160e01b03198116811461120b57600080fd5b60006020828403121561124e57600080fd5b5035919050565b600080600080600060a0868803121561126d57600080fd5b8535611278816111d6565b94506020860135611288816111d6565b93506040860135611298816111d6565b925060608601359150608086013563ffffffff811681146112b857600080fd5b809150509295509295909350565b634e487b7160e01b600052604160045260246000fd5b6040516060810167ffffffffffffffff811182821017156112ff576112ff6112c6565b60405290565b604051601f8201601f1916810167ffffffffffffffff8111828210171561132e5761132e6112c6565b604052919050565b600067ffffffffffffffff821115611350576113506112c6565b5060051b60200190565b6000806040838503121561136d57600080fd5b8235611378816111d6565b915060208381013567ffffffffffffffff81111561139557600080fd5b8401601f810186136113a657600080fd5b80356113b96113b482611336565b611305565b81815260059190911b820183019083810190888311156113d857600080fd5b928401925b828410156113f6578335825292840192908401906113dd565b80955050505050509250929050565b6020808252825182820181905260009190848201906040850190845b8181101561143d57835183529284019291840191600101611421565b50909695505050505050565b6000602080838503121561145c57600080fd5b825167ffffffffffffffff81111561147357600080fd5b8301601f8101851361148457600080fd5b80516114926113b482611336565b81815260059190911b820183019083810190878311156114b157600080fd5b928401925b828410156114cf578351825292840192908401906114b6565b979650505050505050565b634e487b7160e01b600052603260045260246000fd5b634e487b7160e01b600052601160045260246000fd5b81810381811115611519576115196114f0565b92915050565b600060018201611531576115316114f0565b5060010190565b60008060006060848603121561154d57600080fd5b8351925060208401519150604084015190509250925092565b6000602080838503121561157957600080fd5b825167ffffffffffffffff81111561159057600080fd5b8301601f810185136115a157600080fd5b80516115af6113b482611336565b818152606091820283018401918482019190888411156115ce57600080fd5b938501935b838510156116185780858a0312156115eb5760008081fd5b6115f36112dc565b85518152868601518782015260408087015190820152835293840193918501916115d3565b50979650505050505050565b60005b8381101561163f578181015183820152602001611627565b50506000910152565b6000835161165a818460208801611624565b83519083019061166e818360208801611624565b01949350505050565b6bffffffffffffffffffffffff198360601b168152600082516116a1816014850160208701611624565b919091016014019392505050565b6000602082840312156116c157600080fd5b815161120b816111d6565b600081518084526116e4816020860160208601611624565b601f01601f19169290920160200192915050565b60208152600061120b60208301846116cc565b6001600160a01b038416815260606020820152600061172d60608301856116cc565b905063ffffffff8316604083015294935050505056fea164736f6c6343000812000a",
  "deployedBytecode": "0x608060405234801561001057600080fd5b506004361061011b5760003560e01c806366c4ab23116100b2578063b2bdfa7b11610081578063b911135f11610066578063b911135f14610337578063be60b21414610360578063f0329f6b146103cd57600080fd5b8063b2bdfa7b1461030d578063b84935561461032057600080fd5b806366c4ab23146102b45780637aa7794a146102c75780637f5823af146102da5780639d060c0a146102ed57600080fd5b806350d2a276116100ee57806350d2a2761461018b578063550d01a3146101b45780635f17529f146101e757806363a8fd89146102a057600080fd5b80633ab76e9f146101205780633dfc795b146101505780634420e48614610165578063472d1f7114610178575b600080fd5b600654610133906001600160a01b031681565b6040516001600160a01b0390911681526020015b60405180910390f35b61016361015e3660046111ee565b6103e0565b005b6101636101733660046111ee565b6104a2565b600854610133906001600160a01b031681565b610133610199366004611212565b6003602052600090815260409020546001600160a01b031681565b6101d76101c23660046111ee565b60026020526000908152604090205460ff1681565b6040519015158152602001610147565b6102636101f536600461123c565b604080516080808201835260008083526020808401829052838501829052606093840182905294815260098552839020835191820184528054825260018101549482019490945260029093015463ffffffff8082169385019390935264010000000090049091169082015290565b6040805182518152602080840151908201528282015163ffffffff9081169282019290925260609283015190911691810191909152608001610147565b6000546101d790600160a01b900460ff1681565b6101636102c2366004611255565b6105cd565b600754610133906001600160a01b031681565b6101636102e836600461135a565b6106a5565b6103006102fb3660046111ee565b610928565b6040516101479190611405565b600054610133906001600160a01b031681565b61032960045481565b604051908152602001610147565b61013361034536600461123c565b6001602052600090815260409020546001600160a01b031681565b6103a161036e36600461123c565b60096020526000908152604090208054600182015460029092015490919063ffffffff8082169164010000000090041684565b60408051948552602085019390935263ffffffff91821692840192909252166060820152608001610147565b600554610133906001600160a01b031681565b6005546001600160a01b0316331461042d5760405162461bcd60e51b815260206004820152600b60248201526a3737ba1036b0b730b3b2b960a91b60448201526064015b60405180910390fd5b6008546001600160a01b038083169116036104735760405162461bcd60e51b81526004016104249060208082526004908201526373616d6560e01b604082015260600190565b6008805473ffffffffffffffffffffffffffffffffffffffff19166001600160a01b0392909216919091179055565b60075460405163187f356b60e31b81526001600160a01b038381166004830152600092169063c3f9ab5890602401600060405180830381865afa1580156104ed573d6000803e3d6000fd5b505050506040513d6000823e601f3d908101601f191682016040526105159190810190611449565b9050805160000361055b5760405162461bcd60e51b815260206004820152601060248201526f6e6f207265676973746572206461746160801b6044820152606401610424565b600454815111156105bf5760405162461bcd60e51b815260206004820152602860248201527f657863656564656420746865206d6178696d756d206e756d626572206f66207260448201526732b3b4b9ba32b91760c11b6064820152608401610424565b6105c98282610c16565b5050565b6005546001600160a01b031633146106155760405162461bcd60e51b815260206004820152600b60248201526a3737ba1036b0b730b3b2b960a91b6044820152606401610424565b6005805473ffffffffffffffffffffffffffffffffffffffff199081166001600160a01b039788161790915560078054821695871695909517909455600680549094169290941691909117909155600455600880547fffffffffffffffff00000000ffffffffffffffffffffffffffffffffffffffff16600160a01b63ffffffff90931692909202919091179055565b600454815111156107095760405162461bcd60e51b815260206004820152602860248201527f657863656564656420746865206d6178696d756d206e756d626572206f66207260448201526732b3b4b9ba32b91760c11b6064820152608401610424565b805160000361074d5760405162461bcd60e51b815260206004820152601060248201526f6e6f207265676973746572206461746160801b6044820152606401610424565b60075460405163187f356b60e31b81526001600160a01b038481166004830152600092169063c3f9ab5890602401600060405180830381865afa158015610798573d6000803e3d6000fd5b505050506040513d6000823e601f3d908101601f191682016040526107c09190810190611449565b905060005b825181101561091857600160005b83518110156108b6578381815181106107ee576107ee6114da565b6020026020010151858481518110610808576108086114da565b6020026020010151036108a45760009150600184516108279190611506565b81101561087457836001855161083d9190611506565b8151811061084d5761084d6114da565b6020026020010151848281518110610867576108676114da565b6020026020010181815250505b83600185516108839190611506565b81518110610893576108936114da565b6020026020010160008152506108b6565b806108ae8161151f565b9150506107d3565b5080156109055760405162461bcd60e51b815260206004820152601460248201527f6f776e6572206973206e6f74206163636f756e740000000000000000000000006044820152606401610424565b50806109108161151f565b9150506107c5565b506109238383610c16565b505050565b60075460405163187f356b60e31b81526001600160a01b03838116600483015260609260009291169063c3f9ab5890602401600060405180830381865afa158015610977573d6000803e3d6000fd5b505050506040513d6000823e601f3d908101601f1916820160405261099f9190810190611449565b905060005b8151811015610c0f576000600960008484815181106109c5576109c56114da565b602090810291909101810151825281810192909252604090810160009081208251608081018452815481526001820154948101949094526002015463ffffffff80821693850193909352640100000000900490911660608301526007548551929350909182916001600160a01b031690639ce5630590879087908110610a4d57610a4d6114da565b60200260200101516040518263ffffffff1660e01b8152600401610a7391815260200190565b606060405180830381865afa158015610a90573d6000803e3d6000fd5b505050506040513d601f19601f82011682018060405250810190610ab49190611538565b925092505080600014158015610ac957508142105b15610bf95760075485516000916001600160a01b03169063c5dc1e5f90889088908110610af857610af86114da565b60200260200101516040518263ffffffff1660e01b8152600401610b1e91815260200190565b600060405180830381865afa158015610b3b573d6000803e3d6000fd5b505050506040513d6000823e601f3d908101601f19168201604052610b639190810190611566565b90508051600014610bf75760008160018351610b7f9190611506565b81518110610b8f57610b8f6114da565b602002602001015190508060400151856040015163ffffffff161015610bf557868681518110610bc157610bc16114da565b60200260200101518860018a51610bd89190611506565b81518110610be857610be86114da565b6020026020010181815250505b505b505b5050508080610c079061151f565b9150506109a4565b5050919050565b60606000805b8351811015610f9a57600060096000868481518110610c3d57610c3d6114da565b602090810291909101810151825281810192909252604090810160009081208251608081018452815481526001820154948101949094526002015463ffffffff80821693850193909352640100000000900490911660608301526007548751929350909182916001600160a01b031690639ce5630590899087908110610cc557610cc56114da565b60200260200101516040518263ffffffff1660e01b8152600401610ceb91815260200190565b606060405180830381865afa158015610d08573d6000803e3d6000fd5b505050506040513d601f19601f82011682018060405250810190610d2c9190611538565b925092505080600014158015610d4157508142105b15610f845760075487516000916001600160a01b03169063c5dc1e5f908a9088908110610d7057610d706114da565b60200260200101516040518263ffffffff1660e01b8152600401610d9691815260200190565b600060405180830381865afa158015610db3573d6000803e3d6000fd5b505050506040513d6000823e601f3d908101601f19168201604052610ddb9190810190611566565b90508051600014610f825760008160018351610df79190611506565b81518110610e0757610e076114da565b602002602001015190508060400151856040015163ffffffff161015610f8057600060405180608001604052808360200151815260200183600001518152602001836040015163ffffffff1681526020014263ffffffff16815250905080600960008c8a81518110610e7b57610e7b6114da565b6020908102919091018101518252818101929092526040908101600020835181559183015160018301558201516002909101805460609093015163ffffffff9081166401000000000267ffffffffffffffff1990941692169190911791909117905587610ee78161151f565b985050888a8881518110610efd57610efd6114da565b602090810291909101810151835184830151604080870151606080890151835197880196909652918601939093528401526001600160e01b031960e091821b8116608085015291901b16608482015260880160408051601f1981840301815290829052610f6d9291602001611648565b6040516020818303038152906040529850505b505b505b5050508080610f929061151f565b915050610c1c565b506000825111610fdf5760405162461bcd60e51b815260206004820152601060248201526f6e6f207265676973746572206461746160801b6044820152606401610424565b600854604051611028916001600160a01b0316906110039087908690602001611677565b60408051808303601f19018152919052600854600160a01b900463ffffffff1661102e565b50505050565b60065460405163507c8bd160e01b81526001600160a01b03909116600482015260009073__$b2d160aea0e65d5e83164dd2e3c22b89ec$__9063507c8bd190602401602060405180830381865af415801561108d573d6000803e3d6000fd5b505050506040513d601f19601f820116820180604052508101906110b191906116af565b90506001600160a01b0381166111095760405162461bcd60e51b815260206004820152601a60248201527f6c314d657373656e676572206973205a65726f416464726573730000000000006044820152606401610424565b60006382fbdc9c60e01b8460405160240161112491906116f8565b60408051601f198184030181529181526020820180517bffffffffffffffffffffffffffffffffffffffffffffffffffffffff166001600160e01b0319909416939093179092529051633dbb202b60e01b81529091506001600160a01b03831690633dbb202b9061119d9088908590889060040161170b565b600060405180830381600087803b1580156111b757600080fd5b505af11580156111cb573d6000803e3d6000fd5b505050505050505050565b6001600160a01b03811681146111eb57600080fd5b50565b60006020828403121561120057600080fd5b813561120b816111d6565b9392505050565b60006020828403121561122457600080fd5b81356001600160e01b03198116811461120b57600080fd5b60006020828403121561124e57600080fd5b5035919050565b600080600080600060a0868803121561126d57600080fd5b8535611278816111d6565b94506020860135611288816111d6565b93506040860135611298816111d6565b925060608601359150608086013563ffffffff811681146112b857600080fd5b809150509295509295909350565b634e487b7160e01b600052604160045260246000fd5b6040516060810167ffffffffffffffff811182821017156112ff576112ff6112c6565b60405290565b604051601f8201601f1916810167ffffffffffffffff8111828210171561132e5761132e6112c6565b604052919050565b600067ffffffffffffffff821115611350576113506112c6565b5060051b60200190565b6000806040838503121561136d57600080fd5b8235611378816111d6565b915060208381013567ffffffffffffffff81111561139557600080fd5b8401601f810186136113a657600080fd5b80356113b96113b482611336565b611305565b81815260059190911b820183019083810190888311156113d857600080fd5b928401925b828410156113f6578335825292840192908401906113dd565b80955050505050509250929050565b6020808252825182820181905260009190848201906040850190845b8181101561143d57835183529284019291840191600101611421565b50909695505050505050565b6000602080838503121561145c57600080fd5b825167ffffffffffffffff81111561147357600080fd5b8301601f8101851361148457600080fd5b80516114926113b482611336565b81815260059190911b820183019083810190878311156114b157600080fd5b928401925b828410156114cf578351825292840192908401906114b6565b979650505050505050565b634e487b7160e01b600052603260045260246000fd5b634e487b7160e01b600052601160045260246000fd5b81810381811115611519576115196114f0565b92915050565b600060018201611531576115316114f0565b5060010190565b60008060006060848603121561154d57600080fd5b8351925060208401519150604084015190509250925092565b6000602080838503121561157957600080fd5b825167ffffffffffffffff81111561159057600080fd5b8301601f810185136115a157600080fd5b80516115af6113b482611336565b818152606091820283018401918482019190888411156115ce57600080fd5b938501935b838510156116185780858a0312156115eb5760008081fd5b6115f36112dc565b85518152868601518782015260408087015190820152835293840193918501916115d3565b50979650505050505050565b60005b8381101561163f578181015183820152602001611627565b50506000910152565b6000835161165a818460208801611624565b83519083019061166e818360208801611624565b01949350505050565b6bffffffffffffffffffffffff198360601b168152600082516116a1816014850160208701611624565b919091016014019392505050565b6000602082840312156116c157600080fd5b815161120b816111d6565b600081518084526116e4816020860160208601611624565b601f01601f19169290920160200192915050565b60208152600061120b60208301846116cc565b6001600160a01b038416815260606020820152600061172d60608301856116cc565b905063ffffffff8316604083015294935050505056fea164736f6c6343000812000a",
  "libraries": {
    "LibProject": "0x5d85cD9D3e2864D4a156497083eb6E4394bF8aae"
  },
  "devdoc": {
    "kind": "dev",
    "methods": {},
    "version": 1
  },
  "userdoc": {
    "kind": "user",
    "methods": {},
    "version": 1
  },
  "storageLayout": {
    "storage": [
      {
        "astId": 4227,
        "contract": "contracts/L1/L1StosToL2.sol:L1StosToL2",
        "label": "_owner",
        "offset": 0,
        "slot": "0",
        "type": "t_address"
      },
      {
        "astId": 4229,
        "contract": "contracts/L1/L1StosToL2.sol:L1StosToL2",
        "label": "pauseProxy",
        "offset": 20,
        "slot": "0",
        "type": "t_bool"
      },
      {
        "astId": 4233,
        "contract": "contracts/L1/L1StosToL2.sol:L1StosToL2",
        "label": "proxyImplementation",
        "offset": 0,
        "slot": "1",
        "type": "t_mapping(t_uint256,t_address)"
      },
      {
        "astId": 4237,
        "contract": "contracts/L1/L1StosToL2.sol:L1StosToL2",
        "label": "aliveImplementation",
        "offset": 0,
        "slot": "2",
        "type": "t_mapping(t_address,t_bool)"
      },
      {
        "astId": 4241,
        "contract": "contracts/L1/L1StosToL2.sol:L1StosToL2",
        "label": "selectorImplementation",
        "offset": 0,
        "slot": "3",
        "type": "t_mapping(t_bytes4,t_address)"
      },
      {
        "astId": 2430,
        "contract": "contracts/L1/L1StosToL2.sol:L1StosToL2",
        "label": "maxLockCountPerRegister",
        "offset": 0,
        "slot": "4",
        "type": "t_uint256"
      },
      {
        "astId": 2432,
        "contract": "contracts/L1/L1StosToL2.sol:L1StosToL2",
        "label": "_manager",
        "offset": 0,
        "slot": "5",
        "type": "t_address"
      },
      {
        "astId": 2434,
        "contract": "contracts/L1/L1StosToL2.sol:L1StosToL2",
        "label": "addressManager",
        "offset": 0,
        "slot": "6",
        "type": "t_address"
      },
      {
        "astId": 2436,
        "contract": "contracts/L1/L1StosToL2.sol:L1StosToL2",
        "label": "lockTos",
        "offset": 0,
        "slot": "7",
        "type": "t_address"
      },
      {
        "astId": 2438,
        "contract": "contracts/L1/L1StosToL2.sol:L1StosToL2",
        "label": "l2Register",
        "offset": 0,
        "slot": "8",
        "type": "t_address"
      },
      {
        "astId": 2440,
        "contract": "contracts/L1/L1StosToL2.sol:L1StosToL2",
        "label": "minGasLimitRegister",
        "offset": 20,
        "slot": "8",
        "type": "t_uint32"
      },
      {
        "astId": 2445,
        "contract": "contracts/L1/L1StosToL2.sol:L1StosToL2",
        "label": "syncInfoOfLockId",
        "offset": 0,
        "slot": "9",
        "type": "t_mapping(t_uint256,t_struct(SyncInfo)3237_storage)"
      },
      {
        "astId": 2447,
        "contract": "contracts/L1/L1StosToL2.sol:L1StosToL2",
        "label": "_lock",
        "offset": 0,
        "slot": "10",
        "type": "t_bool"
      }
    ],
    "types": {
      "t_address": {
        "encoding": "inplace",
        "label": "address",
        "numberOfBytes": "20"
      },
      "t_bool": {
        "encoding": "inplace",
        "label": "bool",
        "numberOfBytes": "1"
      },
      "t_bytes4": {
        "encoding": "inplace",
        "label": "bytes4",
        "numberOfBytes": "4"
      },
      "t_int256": {
        "encoding": "inplace",
        "label": "int256",
        "numberOfBytes": "32"
      },
      "t_mapping(t_address,t_bool)": {
        "encoding": "mapping",
        "key": "t_address",
        "label": "mapping(address => bool)",
        "numberOfBytes": "32",
        "value": "t_bool"
      },
      "t_mapping(t_bytes4,t_address)": {
        "encoding": "mapping",
        "key": "t_bytes4",
        "label": "mapping(bytes4 => address)",
        "numberOfBytes": "32",
        "value": "t_address"
      },
      "t_mapping(t_uint256,t_address)": {
        "encoding": "mapping",
        "key": "t_uint256",
        "label": "mapping(uint256 => address)",
        "numberOfBytes": "32",
        "value": "t_address"
      },
      "t_mapping(t_uint256,t_struct(SyncInfo)3237_storage)": {
        "encoding": "mapping",
        "key": "t_uint256",
        "label": "mapping(uint256 => struct LibLockId.SyncInfo)",
        "numberOfBytes": "32",
        "value": "t_struct(SyncInfo)3237_storage"
      },
      "t_struct(SyncInfo)3237_storage": {
        "encoding": "inplace",
        "label": "struct LibLockId.SyncInfo",
        "members": [
          {
            "astId": 3230,
            "contract": "contracts/L1/L1StosToL2.sol:L1StosToL2",
            "label": "slope",
            "offset": 0,
            "slot": "0",
            "type": "t_int256"
          },
          {
            "astId": 3232,
            "contract": "contracts/L1/L1StosToL2.sol:L1StosToL2",
            "label": "bias",
            "offset": 0,
            "slot": "1",
            "type": "t_int256"
          },
          {
            "astId": 3234,
            "contract": "contracts/L1/L1StosToL2.sol:L1StosToL2",
            "label": "timestamp",
            "offset": 0,
            "slot": "2",
            "type": "t_uint32"
          },
          {
            "astId": 3236,
            "contract": "contracts/L1/L1StosToL2.sol:L1StosToL2",
            "label": "syncTime",
            "offset": 4,
            "slot": "2",
            "type": "t_uint32"
          }
        ],
        "numberOfBytes": "96"
      },
      "t_uint256": {
        "encoding": "inplace",
        "label": "uint256",
        "numberOfBytes": "32"
      },
      "t_uint32": {
        "encoding": "inplace",
        "label": "uint32",
        "numberOfBytes": "4"
      }
    }
  }
}