{
  "_format": "hh-sol-artifact-1",
  "contractName": "LockIdNftForStake",
  "sourceName": "contracts/stos/LockIdNftForStake.sol",
  "abi": [
    {
      "inputs": [
        {
          "internalType": "string",
          "name": "name_",
          "type": "string"
        },
        {
          "internalType": "string",
          "name": "symbol_",
          "type": "string"
        },
        {
          "internalType": "address",
          "name": "managerAddress",
          "type": "address"
        },
        {
          "internalType": "address",
          "name": "stakerAddress",
          "type": "address"
        },
        {
          "internalType": "uint256",
          "name": "epochUnit_",
          "type": "uint256"
        },
        {
          "internalType": "uint256",
          "name": "maxTime_",
          "type": "uint256"
        },
        {
          "internalType": "address",
          "name": "tosAddress",
          "type": "address"
        }
      ],
      "stateMutability": "nonpayable",
      "type": "constructor"
    },
    {
      "anonymous": false,
      "inputs": [
        {
          "indexed": true,
          "internalType": "address",
          "name": "owner",
          "type": "address"
        },
        {
          "indexed": true,
          "internalType": "address",
          "name": "approved",
          "type": "address"
        },
        {
          "indexed": true,
          "internalType": "uint256",
          "name": "tokenId",
          "type": "uint256"
        }
      ],
      "name": "Approval",
      "type": "event"
    },
    {
      "anonymous": false,
      "inputs": [
        {
          "indexed": true,
          "internalType": "address",
          "name": "owner",
          "type": "address"
        },
        {
          "indexed": true,
          "internalType": "address",
          "name": "operator",
          "type": "address"
        },
        {
          "indexed": false,
          "internalType": "bool",
          "name": "approved",
          "type": "bool"
        }
      ],
      "name": "ApprovalForAll",
      "type": "event"
    },
    {
      "anonymous": false,
      "inputs": [
        {
          "indexed": false,
          "internalType": "address",
          "name": "account",
          "type": "address"
        },
        {
          "indexed": false,
          "internalType": "uint256",
          "name": "lockId",
          "type": "uint256"
        },
        {
          "indexed": false,
          "internalType": "uint256",
          "name": "value",
          "type": "uint256"
        },
        {
          "indexed": false,
          "internalType": "uint256",
          "name": "unlockTime",
          "type": "uint256"
        }
      ],
      "name": "IncreasedLock",
      "type": "event"
    },
    {
      "anonymous": false,
      "inputs": [
        {
          "indexed": false,
          "internalType": "address",
          "name": "account",
          "type": "address"
        },
        {
          "indexed": false,
          "internalType": "uint256",
          "name": "lockId",
          "type": "uint256"
        },
        {
          "indexed": false,
          "internalType": "uint256",
          "name": "amount",
          "type": "uint256"
        },
        {
          "indexed": false,
          "internalType": "uint256",
          "name": "unlockTime",
          "type": "uint256"
        }
      ],
      "name": "LockCreated",
      "type": "event"
    },
    {
      "anonymous": false,
      "inputs": [
        {
          "indexed": false,
          "internalType": "address",
          "name": "account",
          "type": "address"
        },
        {
          "indexed": false,
          "internalType": "uint256",
          "name": "lockId",
          "type": "uint256"
        },
        {
          "indexed": false,
          "internalType": "uint256",
          "name": "value",
          "type": "uint256"
        }
      ],
      "name": "LockDeposited",
      "type": "event"
    },
    {
      "anonymous": false,
      "inputs": [
        {
          "indexed": true,
          "internalType": "address",
          "name": "from",
          "type": "address"
        },
        {
          "indexed": true,
          "internalType": "address",
          "name": "to",
          "type": "address"
        },
        {
          "indexed": true,
          "internalType": "uint256",
          "name": "tokenId",
          "type": "uint256"
        }
      ],
      "name": "Transfer",
      "type": "event"
    },
    {
      "inputs": [],
      "name": "MULTIPLIER",
      "outputs": [
        {
          "internalType": "uint256",
          "name": "",
          "type": "uint256"
        }
      ],
      "stateMutability": "view",
      "type": "function"
    },
    {
      "inputs": [],
      "name": "_ERC721_RECEIVED",
      "outputs": [
        {
          "internalType": "bytes4",
          "name": "",
          "type": "bytes4"
        }
      ],
      "stateMutability": "view",
      "type": "function"
    },
    {
      "inputs": [],
      "name": "_INTERFACE_ID_ERC721",
      "outputs": [
        {
          "internalType": "bytes4",
          "name": "",
          "type": "bytes4"
        }
      ],
      "stateMutability": "view",
      "type": "function"
    },
    {
      "inputs": [],
      "name": "_INTERFACE_ID_ERC721_ENUMERABLE",
      "outputs": [
        {
          "internalType": "bytes4",
          "name": "",
          "type": "bytes4"
        }
      ],
      "stateMutability": "view",
      "type": "function"
    },
    {
      "inputs": [],
      "name": "_INTERFACE_ID_ERC721_METADATA",
      "outputs": [
        {
          "internalType": "bytes4",
          "name": "",
          "type": "bytes4"
        }
      ],
      "stateMutability": "view",
      "type": "function"
    },
    {
      "inputs": [
        {
          "internalType": "uint256",
          "name": "",
          "type": "uint256"
        }
      ],
      "name": "_allTokens",
      "outputs": [
        {
          "internalType": "uint256",
          "name": "",
          "type": "uint256"
        }
      ],
      "stateMutability": "view",
      "type": "function"
    },
    {
      "inputs": [
        {
          "internalType": "uint256",
          "name": "",
          "type": "uint256"
        }
      ],
      "name": "_allTokensIndex",
      "outputs": [
        {
          "internalType": "uint256",
          "name": "",
          "type": "uint256"
        }
      ],
      "stateMutability": "view",
      "type": "function"
    },
    {
      "inputs": [],
      "name": "_baseURI",
      "outputs": [
        {
          "internalType": "string",
          "name": "",
          "type": "string"
        }
      ],
      "stateMutability": "view",
      "type": "function"
    },
    {
      "inputs": [],
      "name": "_manager",
      "outputs": [
        {
          "internalType": "address",
          "name": "",
          "type": "address"
        }
      ],
      "stateMutability": "view",
      "type": "function"
    },
    {
      "inputs": [],
      "name": "_name",
      "outputs": [
        {
          "internalType": "string",
          "name": "",
          "type": "string"
        }
      ],
      "stateMutability": "view",
      "type": "function"
    },
    {
      "inputs": [
        {
          "internalType": "address",
          "name": "",
          "type": "address"
        },
        {
          "internalType": "address",
          "name": "",
          "type": "address"
        }
      ],
      "name": "_operatorApprovals",
      "outputs": [
        {
          "internalType": "bool",
          "name": "",
          "type": "bool"
        }
      ],
      "stateMutability": "view",
      "type": "function"
    },
    {
      "inputs": [
        {
          "internalType": "address",
          "name": "",
          "type": "address"
        },
        {
          "internalType": "uint256",
          "name": "",
          "type": "uint256"
        }
      ],
      "name": "_ownedTokens",
      "outputs": [
        {
          "internalType": "uint256",
          "name": "",
          "type": "uint256"
        }
      ],
      "stateMutability": "view",
      "type": "function"
    },
    {
      "inputs": [
        {
          "internalType": "address",
          "name": "",
          "type": "address"
        }
      ],
      "name": "_ownedTokensCount",
      "outputs": [
        {
          "internalType": "uint256",
          "name": "",
          "type": "uint256"
        }
      ],
      "stateMutability": "view",
      "type": "function"
    },
    {
      "inputs": [
        {
          "internalType": "uint256",
          "name": "",
          "type": "uint256"
        }
      ],
      "name": "_ownedTokensIndex",
      "outputs": [
        {
          "internalType": "uint256",
          "name": "",
          "type": "uint256"
        }
      ],
      "stateMutability": "view",
      "type": "function"
    },
    {
      "inputs": [],
      "name": "_owner",
      "outputs": [
        {
          "internalType": "address",
          "name": "",
          "type": "address"
        }
      ],
      "stateMutability": "view",
      "type": "function"
    },
    {
      "inputs": [],
      "name": "_symbol",
      "outputs": [
        {
          "internalType": "string",
          "name": "",
          "type": "string"
        }
      ],
      "stateMutability": "view",
      "type": "function"
    },
    {
      "inputs": [
        {
          "internalType": "uint256",
          "name": "",
          "type": "uint256"
        }
      ],
      "name": "_tokenApprovals",
      "outputs": [
        {
          "internalType": "address",
          "name": "",
          "type": "address"
        }
      ],
      "stateMutability": "view",
      "type": "function"
    },
    {
      "inputs": [
        {
          "internalType": "uint256",
          "name": "",
          "type": "uint256"
        }
      ],
      "name": "_tokenAttributes",
      "outputs": [
        {
          "internalType": "uint8",
          "name": "",
          "type": "uint8"
        }
      ],
      "stateMutability": "view",
      "type": "function"
    },
    {
      "inputs": [
        {
          "internalType": "uint256",
          "name": "",
          "type": "uint256"
        }
      ],
      "name": "_tokenOwner",
      "outputs": [
        {
          "internalType": "address",
          "name": "",
          "type": "address"
        }
      ],
      "stateMutability": "view",
      "type": "function"
    },
    {
      "inputs": [
        {
          "internalType": "uint256",
          "name": "",
          "type": "uint256"
        }
      ],
      "name": "_tokenURIs",
      "outputs": [
        {
          "internalType": "string",
          "name": "",
          "type": "string"
        }
      ],
      "stateMutability": "view",
      "type": "function"
    },
    {
      "inputs": [
        {
          "internalType": "address",
          "name": "",
          "type": "address"
        }
      ],
      "name": "aliveImplementation",
      "outputs": [
        {
          "internalType": "bool",
          "name": "",
          "type": "bool"
        }
      ],
      "stateMutability": "view",
      "type": "function"
    },
    {
      "inputs": [],
      "name": "allIndexOfTimes",
      "outputs": [
        {
          "internalType": "uint256[]",
          "name": "",
          "type": "uint256[]"
        }
      ],
      "stateMutability": "view",
      "type": "function"
    },
    {
      "inputs": [],
      "name": "allTokens",
      "outputs": [
        {
          "internalType": "uint256[]",
          "name": "",
          "type": "uint256[]"
        }
      ],
      "stateMutability": "view",
      "type": "function"
    },
    {
      "inputs": [
        {
          "internalType": "address",
          "name": "to",
          "type": "address"
        },
        {
          "internalType": "uint256",
          "name": "tokenId",
          "type": "uint256"
        }
      ],
      "name": "approve",
      "outputs": [],
      "stateMutability": "nonpayable",
      "type": "function"
    },
    {
      "inputs": [
        {
          "internalType": "address",
          "name": "owner_",
          "type": "address"
        }
      ],
      "name": "balanceOf",
      "outputs": [
        {
          "internalType": "uint256",
          "name": "",
          "type": "uint256"
        }
      ],
      "stateMutability": "view",
      "type": "function"
    },
    {
      "inputs": [
        {
          "internalType": "address",
          "name": "_addr",
          "type": "address"
        }
      ],
      "name": "balanceOfLock",
      "outputs": [
        {
          "internalType": "uint256",
          "name": "balance",
          "type": "uint256"
        }
      ],
      "stateMutability": "view",
      "type": "function"
    },
    {
      "inputs": [
        {
          "internalType": "uint256",
          "name": "_lockId",
          "type": "uint256"
        }
      ],
      "name": "balanceOfLock",
      "outputs": [
        {
          "internalType": "uint256",
          "name": "amount",
          "type": "uint256"
        }
      ],
      "stateMutability": "view",
      "type": "function"
    },
    {
      "inputs": [
        {
          "internalType": "address",
          "name": "_addr",
          "type": "address"
        },
        {
          "internalType": "uint256",
          "name": "_timestamp",
          "type": "uint256"
        }
      ],
      "name": "balanceOfLockAt",
      "outputs": [
        {
          "internalType": "uint256",
          "name": "balance",
          "type": "uint256"
        }
      ],
      "stateMutability": "view",
      "type": "function"
    },
    {
      "inputs": [
        {
          "internalType": "uint256",
          "name": "_lockId",
          "type": "uint256"
        },
        {
          "internalType": "uint256",
          "name": "_timestamp",
          "type": "uint256"
        }
      ],
      "name": "balanceOfLockAt",
      "outputs": [
        {
          "internalType": "uint256",
          "name": "amount",
          "type": "uint256"
        }
      ],
      "stateMutability": "view",
      "type": "function"
    },
    {
      "inputs": [
        {
          "components": [
            {
              "internalType": "int256",
              "name": "slope",
              "type": "int256"
            },
            {
              "internalType": "int256",
              "name": "bias",
              "type": "int256"
            },
            {
              "internalType": "uint256",
              "name": "timestamp",
              "type": "uint256"
            }
          ],
          "internalType": "struct LibLockId.Point",
          "name": "point",
          "type": "tuple"
        },
        {
          "internalType": "uint256",
          "name": "timestamp",
          "type": "uint256"
        }
      ],
      "name": "balanceOfPoint",
      "outputs": [
        {
          "internalType": "uint256",
          "name": "",
          "type": "uint256"
        }
      ],
      "stateMutability": "pure",
      "type": "function"
    },
    {
      "inputs": [],
      "name": "baseURI",
      "outputs": [
        {
          "internalType": "string",
          "name": "",
          "type": "string"
        }
      ],
      "stateMutability": "view",
      "type": "function"
    },
    {
      "inputs": [
        {
          "internalType": "uint256",
          "name": "_amount",
          "type": "uint256"
        },
        {
          "internalType": "uint256",
          "name": "_unlockWeeks",
          "type": "uint256"
        }
      ],
      "name": "createLock",
      "outputs": [
        {
          "internalType": "uint256",
          "name": "lockId",
          "type": "uint256"
        }
      ],
      "stateMutability": "nonpayable",
      "type": "function"
    },
    {
      "inputs": [
        {
          "internalType": "address",
          "name": "_addr",
          "type": "address"
        },
        {
          "internalType": "uint256",
          "name": "_lockId",
          "type": "uint256"
        },
        {
          "internalType": "uint256",
          "name": "_value",
          "type": "uint256"
        }
      ],
      "name": "depositFor",
      "outputs": [],
      "stateMutability": "nonpayable",
      "type": "function"
    },
    {
      "inputs": [],
      "name": "epochUnit",
      "outputs": [
        {
          "internalType": "uint256",
          "name": "",
          "type": "uint256"
        }
      ],
      "stateMutability": "view",
      "type": "function"
    },
    {
      "inputs": [
        {
          "internalType": "uint256",
          "name": "tokenId",
          "type": "uint256"
        }
      ],
      "name": "generateSvgToBase64",
      "outputs": [
        {
          "internalType": "string",
          "name": "",
          "type": "string"
        }
      ],
      "stateMutability": "pure",
      "type": "function"
    },
    {
      "inputs": [
        {
          "internalType": "uint256",
          "name": "tokenId",
          "type": "uint256"
        }
      ],
      "name": "getApproved",
      "outputs": [
        {
          "internalType": "address",
          "name": "",
          "type": "address"
        }
      ],
      "stateMutability": "view",
      "type": "function"
    },
    {
      "inputs": [
        {
          "internalType": "address",
          "name": "_addr",
          "type": "address"
        },
        {
          "internalType": "uint256",
          "name": "_lockId",
          "type": "uint256"
        },
        {
          "internalType": "uint256",
          "name": "_value",
          "type": "uint256"
        },
        {
          "internalType": "uint256",
          "name": "_unlockWeeks",
          "type": "uint256"
        }
      ],
      "name": "increaseLock",
      "outputs": [],
      "stateMutability": "nonpayable",
      "type": "function"
    },
    {
      "inputs": [
        {
          "internalType": "uint256",
          "name": "",
          "type": "uint256"
        }
      ],
      "name": "indexCheckOfTimeset",
      "outputs": [
        {
          "internalType": "bool",
          "name": "",
          "type": "bool"
        }
      ],
      "stateMutability": "view",
      "type": "function"
    },
    {
      "inputs": [
        {
          "internalType": "uint256",
          "name": "",
          "type": "uint256"
        }
      ],
      "name": "indexOfTimeset",
      "outputs": [
        {
          "internalType": "uint256",
          "name": "",
          "type": "uint256"
        }
      ],
      "stateMutability": "view",
      "type": "function"
    },
    {
      "inputs": [
        {
          "internalType": "address",
          "name": "owner_",
          "type": "address"
        },
        {
          "internalType": "address",
          "name": "operator",
          "type": "address"
        }
      ],
      "name": "isApprovedForAll",
      "outputs": [
        {
          "internalType": "bool",
          "name": "",
          "type": "bool"
        }
      ],
      "stateMutability": "view",
      "type": "function"
    },
    {
      "inputs": [
        {
          "internalType": "address",
          "name": "addr",
          "type": "address"
        }
      ],
      "name": "isManager",
      "outputs": [
        {
          "internalType": "bool",
          "name": "",
          "type": "bool"
        }
      ],
      "stateMutability": "view",
      "type": "function"
    },
    {
      "inputs": [],
      "name": "lastIndexOfTimeset",
      "outputs": [
        {
          "internalType": "uint256",
          "name": "index",
          "type": "uint256"
        }
      ],
      "stateMutability": "view",
      "type": "function"
    },
    {
      "inputs": [
        {
          "internalType": "uint256",
          "name": "_index",
          "type": "uint256"
        }
      ],
      "name": "lastPointOfTimeIndex",
      "outputs": [
        {
          "components": [
            {
              "internalType": "int256",
              "name": "slope",
              "type": "int256"
            },
            {
              "internalType": "int256",
              "name": "bias",
              "type": "int256"
            },
            {
              "internalType": "uint256",
              "name": "timestamp",
              "type": "uint256"
            }
          ],
          "internalType": "struct LibLockId.Point",
          "name": "",
          "type": "tuple"
        }
      ],
      "stateMutability": "view",
      "type": "function"
    },
    {
      "inputs": [
        {
          "internalType": "uint256",
          "name": "",
          "type": "uint256"
        }
      ],
      "name": "lockIdInfos",
      "outputs": [
        {
          "internalType": "uint256",
          "name": "start",
          "type": "uint256"
        },
        {
          "internalType": "uint256",
          "name": "end",
          "type": "uint256"
        },
        {
          "internalType": "uint256",
          "name": "amount",
          "type": "uint256"
        },
        {
          "internalType": "address",
          "name": "owner",
          "type": "address"
        },
        {
          "internalType": "bool",
          "name": "withdrawn",
          "type": "bool"
        }
      ],
      "stateMutability": "view",
      "type": "function"
    },
    {
      "inputs": [],
      "name": "manager",
      "outputs": [
        {
          "internalType": "address",
          "name": "",
          "type": "address"
        }
      ],
      "stateMutability": "view",
      "type": "function"
    },
    {
      "inputs": [],
      "name": "maxTime",
      "outputs": [
        {
          "internalType": "uint256",
          "name": "",
          "type": "uint256"
        }
      ],
      "stateMutability": "view",
      "type": "function"
    },
    {
      "inputs": [],
      "name": "maxTokenId",
      "outputs": [
        {
          "internalType": "uint256",
          "name": "",
          "type": "uint256"
        }
      ],
      "stateMutability": "view",
      "type": "function"
    },
    {
      "inputs": [],
      "name": "name",
      "outputs": [
        {
          "internalType": "string",
          "name": "",
          "type": "string"
        }
      ],
      "stateMutability": "view",
      "type": "function"
    },
    {
      "inputs": [
        {
          "internalType": "uint256",
          "name": "_stime",
          "type": "uint256"
        }
      ],
      "name": "nextTimeIndex",
      "outputs": [
        {
          "internalType": "uint256",
          "name": "",
          "type": "uint256"
        }
      ],
      "stateMutability": "view",
      "type": "function"
    },
    {
      "inputs": [
        {
          "internalType": "uint256",
          "name": "tokenId",
          "type": "uint256"
        }
      ],
      "name": "ownerOf",
      "outputs": [
        {
          "internalType": "address",
          "name": "",
          "type": "address"
        }
      ],
      "stateMutability": "view",
      "type": "function"
    },
    {
      "inputs": [],
      "name": "pauseProxy",
      "outputs": [
        {
          "internalType": "bool",
          "name": "",
          "type": "bool"
        }
      ],
      "stateMutability": "view",
      "type": "function"
    },
    {
      "inputs": [
        {
          "internalType": "uint256",
          "name": "",
          "type": "uint256"
        },
        {
          "internalType": "uint256",
          "name": "",
          "type": "uint256"
        }
      ],
      "name": "pointHistoryByLockId",
      "outputs": [
        {
          "internalType": "int256",
          "name": "slope",
          "type": "int256"
        },
        {
          "internalType": "int256",
          "name": "bias",
          "type": "int256"
        },
        {
          "internalType": "uint256",
          "name": "timestamp",
          "type": "uint256"
        }
      ],
      "stateMutability": "view",
      "type": "function"
    },
    {
      "inputs": [
        {
          "internalType": "uint256",
          "name": "",
          "type": "uint256"
        },
        {
          "internalType": "uint256",
          "name": "",
          "type": "uint256"
        }
      ],
      "name": "pointHistoryByWeek",
      "outputs": [
        {
          "internalType": "int256",
          "name": "slope",
          "type": "int256"
        },
        {
          "internalType": "int256",
          "name": "bias",
          "type": "int256"
        },
        {
          "internalType": "uint256",
          "name": "timestamp",
          "type": "uint256"
        }
      ],
      "stateMutability": "view",
      "type": "function"
    },
    {
      "inputs": [
        {
          "internalType": "uint256",
          "name": "_lockId",
          "type": "uint256"
        }
      ],
      "name": "pointHistoryOfId",
      "outputs": [
        {
          "components": [
            {
              "internalType": "int256",
              "name": "slope",
              "type": "int256"
            },
            {
              "internalType": "int256",
              "name": "bias",
              "type": "int256"
            },
            {
              "internalType": "uint256",
              "name": "timestamp",
              "type": "uint256"
            }
          ],
          "internalType": "struct LibLockId.Point[]",
          "name": "",
          "type": "tuple[]"
        }
      ],
      "stateMutability": "view",
      "type": "function"
    },
    {
      "inputs": [
        {
          "internalType": "uint256",
          "name": "_timeIndex",
          "type": "uint256"
        }
      ],
      "name": "pointHistoryOfTimeIndex",
      "outputs": [
        {
          "components": [
            {
              "internalType": "int256",
              "name": "slope",
              "type": "int256"
            },
            {
              "internalType": "int256",
              "name": "bias",
              "type": "int256"
            },
            {
              "internalType": "uint256",
              "name": "timestamp",
              "type": "uint256"
            }
          ],
          "internalType": "struct LibLockId.Point[]",
          "name": "",
          "type": "tuple[]"
        }
      ],
      "stateMutability": "view",
      "type": "function"
    },
    {
      "inputs": [],
      "name": "pointOfLastTimeIndex",
      "outputs": [
        {
          "components": [
            {
              "internalType": "int256",
              "name": "slope",
              "type": "int256"
            },
            {
              "internalType": "int256",
              "name": "bias",
              "type": "int256"
            },
            {
              "internalType": "uint256",
              "name": "timestamp",
              "type": "uint256"
            }
          ],
          "internalType": "struct LibLockId.Point",
          "name": "",
          "type": "tuple"
        }
      ],
      "stateMutability": "view",
      "type": "function"
    },
    {
      "inputs": [
        {
          "internalType": "uint256",
          "name": "",
          "type": "uint256"
        }
      ],
      "name": "proxyImplementation",
      "outputs": [
        {
          "internalType": "address",
          "name": "",
          "type": "address"
        }
      ],
      "stateMutability": "view",
      "type": "function"
    },
    {
      "inputs": [
        {
          "internalType": "address",
          "name": "from",
          "type": "address"
        },
        {
          "internalType": "address",
          "name": "to",
          "type": "address"
        },
        {
          "internalType": "uint256",
          "name": "tokenId",
          "type": "uint256"
        }
      ],
      "name": "safeTransferFrom",
      "outputs": [],
      "stateMutability": "nonpayable",
      "type": "function"
    },
    {
      "inputs": [
        {
          "internalType": "address",
          "name": "from",
          "type": "address"
        },
        {
          "internalType": "address",
          "name": "to",
          "type": "address"
        },
        {
          "internalType": "uint256",
          "name": "tokenId",
          "type": "uint256"
        },
        {
          "internalType": "bytes",
          "name": "_data",
          "type": "bytes"
        }
      ],
      "name": "safeTransferFrom",
      "outputs": [],
      "stateMutability": "nonpayable",
      "type": "function"
    },
    {
      "inputs": [
        {
          "internalType": "bytes4",
          "name": "",
          "type": "bytes4"
        }
      ],
      "name": "selectorImplementation",
      "outputs": [
        {
          "internalType": "address",
          "name": "",
          "type": "address"
        }
      ],
      "stateMutability": "view",
      "type": "function"
    },
    {
      "inputs": [
        {
          "internalType": "address",
          "name": "user",
          "type": "address"
        },
        {
          "internalType": "bool",
          "name": "approved",
          "type": "bool"
        }
      ],
      "name": "setApprovalForAll",
      "outputs": [],
      "stateMutability": "nonpayable",
      "type": "function"
    },
    {
      "inputs": [
        {
          "internalType": "address",
          "name": "staker_",
          "type": "address"
        }
      ],
      "name": "setStaker",
      "outputs": [],
      "stateMutability": "nonpayable",
      "type": "function"
    },
    {
      "inputs": [],
      "name": "staker",
      "outputs": [
        {
          "internalType": "address",
          "name": "",
          "type": "address"
        }
      ],
      "stateMutability": "view",
      "type": "function"
    },
    {
      "inputs": [
        {
          "internalType": "bytes4",
          "name": "interfaceId",
          "type": "bytes4"
        }
      ],
      "name": "supportsInterface",
      "outputs": [
        {
          "internalType": "bool",
          "name": "",
          "type": "bool"
        }
      ],
      "stateMutability": "view",
      "type": "function"
    },
    {
      "inputs": [],
      "name": "symbol",
      "outputs": [
        {
          "internalType": "string",
          "name": "",
          "type": "string"
        }
      ],
      "stateMutability": "view",
      "type": "function"
    },
    {
      "inputs": [
        {
          "internalType": "uint256",
          "name": "index",
          "type": "uint256"
        }
      ],
      "name": "tokenByIndex",
      "outputs": [
        {
          "internalType": "uint256",
          "name": "",
          "type": "uint256"
        }
      ],
      "stateMutability": "view",
      "type": "function"
    },
    {
      "inputs": [
        {
          "internalType": "address",
          "name": "owner_",
          "type": "address"
        },
        {
          "internalType": "uint256",
          "name": "index",
          "type": "uint256"
        }
      ],
      "name": "tokenOfOwnerByIndex",
      "outputs": [
        {
          "internalType": "uint256",
          "name": "",
          "type": "uint256"
        }
      ],
      "stateMutability": "view",
      "type": "function"
    },
    {
      "inputs": [
        {
          "internalType": "uint256",
          "name": "tokenId",
          "type": "uint256"
        }
      ],
      "name": "tokenURI",
      "outputs": [
        {
          "internalType": "string",
          "name": "",
          "type": "string"
        }
      ],
      "stateMutability": "view",
      "type": "function"
    },
    {
      "inputs": [
        {
          "internalType": "address",
          "name": "owner_",
          "type": "address"
        }
      ],
      "name": "tokensOfOwner",
      "outputs": [
        {
          "internalType": "uint256[]",
          "name": "",
          "type": "uint256[]"
        }
      ],
      "stateMutability": "view",
      "type": "function"
    },
    {
      "inputs": [],
      "name": "tos",
      "outputs": [
        {
          "internalType": "address",
          "name": "",
          "type": "address"
        }
      ],
      "stateMutability": "view",
      "type": "function"
    },
    {
      "inputs": [],
      "name": "totalSupply",
      "outputs": [
        {
          "internalType": "uint256",
          "name": "",
          "type": "uint256"
        }
      ],
      "stateMutability": "view",
      "type": "function"
    },
    {
      "inputs": [],
      "name": "totalSupplyLocks",
      "outputs": [
        {
          "internalType": "uint256",
          "name": "amount",
          "type": "uint256"
        }
      ],
      "stateMutability": "view",
      "type": "function"
    },
    {
      "inputs": [
        {
          "internalType": "uint256",
          "name": "_timestamp",
          "type": "uint256"
        }
      ],
      "name": "totalSupplyLocksAt",
      "outputs": [
        {
          "internalType": "uint256",
          "name": "amount",
          "type": "uint256"
        }
      ],
      "stateMutability": "view",
      "type": "function"
    },
    {
      "inputs": [
        {
          "internalType": "address",
          "name": "from",
          "type": "address"
        },
        {
          "internalType": "address",
          "name": "to",
          "type": "address"
        },
        {
          "internalType": "uint256",
          "name": "tokenId",
          "type": "uint256"
        }
      ],
      "name": "transferFrom",
      "outputs": [],
      "stateMutability": "nonpayable",
      "type": "function"
    }
  ],
  "bytecode": "0x60806040523480156200001157600080fd5b506040516200433838038062004338833981016040819052620000349162000234565b620000466301ffc9a760e01b620000ce565b600580546001600160a01b038088166001600160a01b0319928316179092556006805492871692909116919091179055600762000084888262000378565b50600862000093878262000378565b50601592909255601655601480546001600160a01b0390921661010002610100600160a81b0319909216919091179055506200044492505050565b6001600160e01b031980821690036200012d5760405162461bcd60e51b815260206004820152601c60248201527f4552433136353a20696e76616c696420696e7465726661636520696400000000604482015260640160405180910390fd5b6001600160e01b0319166000908152600460205260409020805460ff19166001179055565b634e487b7160e01b600052604160045260246000fd5b600082601f8301126200017a57600080fd5b81516001600160401b038082111562000197576200019762000152565b604051601f8301601f19908116603f01168101908282118183101715620001c257620001c262000152565b81604052838152602092508683858801011115620001df57600080fd5b600091505b83821015620002035785820183015181830184015290820190620001e4565b600093810190920192909252949350505050565b80516001600160a01b03811681146200022f57600080fd5b919050565b600080600080600080600060e0888a0312156200025057600080fd5b87516001600160401b03808211156200026857600080fd5b620002768b838c0162000168565b985060208a01519150808211156200028d57600080fd5b506200029c8a828b0162000168565b965050620002ad6040890162000217565b9450620002bd6060890162000217565b93506080880151925060a08801519150620002db60c0890162000217565b905092959891949750929550565b600181811c90821680620002fe57607f821691505b6020821081036200031f57634e487b7160e01b600052602260045260246000fd5b50919050565b601f8211156200037357600081815260208120601f850160051c810160208610156200034e5750805b601f850160051c820191505b818110156200036f578281556001016200035a565b5050505b505050565b81516001600160401b0381111562000394576200039462000152565b620003ac81620003a58454620002e9565b8462000325565b602080601f831160018114620003e45760008415620003cb5750858301515b600019600386901b1c1916600185901b1785556200036f565b600085815260208120601f198616915b828110156200041557888601518255948401946001909101908401620003f4565b5085821015620004345787850151600019600388901b60f8161c191681555b5050505050600190811b01905550565b613ee480620004546000396000f3fe608060405234801561001057600080fd5b50600436106104de5760003560e01c806394a509dd11610286578063ba209fcf1161016b578063e985e9c5116100e3578063f663171811610097578063f975d9f31161007c578063f975d9f314610b15578063fd2dcecf14610b28578063fea3d59d14610b3157600080fd5b8063f663171814610aed578063f88d1fef14610b0d57600080fd5b8063f0329f6b116100c8578063f0329f6b14610ab4578063f1e47d3d14610ac7578063f3ae241514610ada57600080fd5b8063e985e9c514610a70578063edc3bc3f14610a8657600080fd5b8063d28d88521161013a578063dece68541161011f578063dece685414610a3c578063e178ee2014610a4a578063e50388a614610a5d57600080fd5b8063d28d885214610a2c578063de69618014610a3457600080fd5b8063ba209fcf146109c3578063c87b56dd146109e3578063cdc4717c146109f6578063cea823cd14610a0957600080fd5b8063aa5965ae116101fe578063b2bdfa7b116101cd578063b88d4fde116101b2578063b88d4fde14610974578063b911135f14610987578063b94419e0146109b057600080fd5b8063b2bdfa7b1461094e578063b52c05fe1461096157600080fd5b8063aa5965ae14610905578063aa88652b14610918578063b01ac59114610938578063b09f12661461094657600080fd5b8063a29a43bb11610255578063a72636651161023a578063a7263665146108b4578063a7cc0136146108d4578063a898e9fa146108fd57600080fd5b8063a29a43bb14610881578063a2e9b4391461089457600080fd5b806394a509dd1461084a57806395d89b4114610858578063a0c8753414610860578063a22cb4651461087357600080fd5b806349d1e042116103c7578063642cf6491161033f578063796db312116102f357806388290adc116102d857806388290adc1461080257806389f395de1461082957806391ba317a1461084157600080fd5b8063796db312146107c65780638462151c146107ef57600080fd5b80636ff97f1d116103245780636ff97f1d1461079657806370a08231146107ab578063743976a0146107be57600080fd5b8063642cf6491461077b5780636c0360eb1461078e57600080fd5b806350d2a276116103965780635ebaf1db1161037b5780635ebaf1db146107415780636352211e1461075457806363a8fd891461076757600080fd5b806350d2a276146106f5578063550d01a31461071e57600080fd5b806349d1e042146106a95780634cf5fbf5146106bc5780634f3c5f06146106cf5780634f6ccce7146106e257600080fd5b806322e67e711161045a57806334067c3c1161042957806341668abe1161040e57806341668abe1461067257806342842e0e14610685578063481c6a751461069857600080fd5b806334067c3c146106575780633e47a4b11461065f57600080fd5b806322e67e71146105fa57806323b872dd1461060357806328f02c68146106165780632f745c591461064457600080fd5b8063095ea7b3116104b157806310c113601161049657806310c11360146105aa57806317a3a79c146105bd57806318160ddd146105f257600080fd5b8063095ea7b3146105825780630bb78ec11461059757600080fd5b806301ffc9a7146104e3578063059f8b161461052557806306fdde0314610542578063081812fc14610557575b600080fd5b6105106104f1366004613485565b6001600160e01b03191660009081526004602052604090205460ff1690565b60405190151581526020015b60405180910390f35b610534670de0b6b3a764000081565b60405190815260200161051c565b61054a610bae565b60405161051c91906134f2565b61056a610565366004613505565b610c40565b6040516001600160a01b03909116815260200161051c565b610595610590366004613535565b610ceb565b005b61054a6105a5366004613505565b610d36565b6105346105b8366004613505565b610dd0565b6105e06105cb366004613505565b600a6020526000908152604090205460ff1681565b60405160ff909116815260200161051c565b601254610534565b61053460165481565b61059561061136600461355f565b610df1565b61062961062436600461359b565b610e48565b6040805193845260208401929092529082015260600161051c565b610534610652366004613535565b610e8a565b610534610f2d565b61053461066d3660046135bd565b610f70565b610534610680366004613535565b610fe1565b61059561069336600461355f565b611055565b6005546001600160a01b031661056a565b6105346106b7366004613505565b6110b7565b6105956106ca3660046135d8565b61111b565b6105346106dd366004613535565b611390565b6105346106f0366004613505565b6113c1565b61056a610703366004613485565b6003602052600090815260409020546001600160a01b031681565b61051061072c3660046135bd565b60026020526000908152604090205460ff1681565b60065461056a906001600160a01b031681565b61056a610762366004613505565b61144d565b60005461051090600160a01b900460ff1681565b61053461078936600461359b565b6114d8565b61054a611519565b61079e611528565b60405161051c919061360b565b6105346107b93660046135bd565b61157f565b61054a611619565b61056a6107d4366004613505565b600c602052600090815260409020546001600160a01b031681565b61079e6107fd3660046135bd565b611626565b610810630a85bd0160e11b81565b6040516001600160e01b0319909116815260200161051c565b60145461056a9061010090046001600160a01b031681565b61053460175481565b610810635b5e139f60e01b81565b61054a611692565b61054a61086e366004613505565b6116a1565b61059561059036600461364f565b61059561088f3660046135bd565b6116d3565b6105346108a2366004613505565b60116020526000908152604090205481565b6105346108c2366004613505565b60136020526000908152604090205481565b61056a6108e2366004613505565b600d602052600090815260409020546001600160a01b031681565b61079e61179c565b610534610913366004613505565b6117f2565b61092b610926366004613505565b611802565b60405161051c919061368b565b61081063780e9d6360e01b81565b61054a6119a8565b60005461056a906001600160a01b031681565b61053461096f36600461359b565b6119b5565b6105956109823660046136f3565b611b84565b61056a610995366004613505565b6001602052600090815260409020546001600160a01b031681565b6105346109be366004613505565b611bdd565b6109d66109d1366004613505565b611c6b565b60405161051c91906137b3565b61054a6109f1366004613505565b611cfb565b610534610a04366004613505565b611e4f565b610510610a17366004613505565b601c6020526000908152604090205460ff1681565b61054a611e73565b610534611e80565b6108106380ac58cd60e01b81565b610629610a5836600461359b565b611e93565b610534610a6b366004613809565b611eaf565b610510610a7e366004613877565b600092915050565b610510610a94366004613877565b600f60209081526000928352604080842090915290825290205460ff1681565b60055461056a906001600160a01b031681565b610595610ad53660046138aa565b611f22565b610510610ae83660046135bd565b61224b565b610534610afb3660046135bd565b600e6020526000908152604090205481565b61092b612273565b6109d6610b23366004613505565b6122a2565b61053460155481565b610b7b610b3f366004613505565b6018602052600090815260409020805460018201546002830154600390930154919290916001600160a01b03811690600160a01b900460ff1685565b604080519586526020860194909452928401919091526001600160a01b031660608301521515608082015260a00161051c565b606060078054610bbd906138e3565b80601f0160208091040260200160405190810160405280929190818152602001828054610be9906138e3565b8015610c365780601f10610c0b57610100808354040283529160200191610c36565b820191906000526020600020905b815481529060010190602001808311610c1957829003601f168201915b5050505050905090565b6000818152600c60205260408120546001600160a01b0316610ccf5760405162461bcd60e51b815260206004820152602f60248201527f4c6f636b49644e46543a20617070726f76656420717565727920666f72206e6f60448201527f6e6578697374656e7420746f6b656e000000000000000000000000000000000060648201526084015b60405180910390fd5b506000908152600d60205260409020546001600160a01b031690565b6006546001600160a01b03163314610d325760405162461bcd60e51b815260206004820152600a6024820152693737ba1039ba30b5b2b960b11b6044820152606401610cc6565b5050565b60096020526000908152604090208054610d4f906138e3565b80601f0160208091040260200160405190810160405280929190818152602001828054610d7b906138e3565b8015610dc85780601f10610d9d57610100808354040283529160200191610dc8565b820191906000526020600020905b815481529060010190602001808311610dab57829003601f168201915b505050505081565b601b8181548110610de057600080fd5b600091825260209091200154905081565b6006546001600160a01b03163314610e385760405162461bcd60e51b815260206004820152600a6024820152693737ba1039ba30b5b2b960b11b6044820152606401610cc6565b610e4383838361231d565b505050565b601a6020528160005260406000208181548110610e6457600080fd5b600091825260209091206003909102018054600182015460029092015490935090915083565b6000610e958361157f565b8210610eef5760405162461bcd60e51b8152602060048201526024808201527f4c6f636b49644e46543a206f776e657220696e646578206f7574206f6620626f604482015263756e647360e01b6064820152608401610cc6565b6001600160a01b0383166000908152601060205260409020805483908110610f1957610f1961391d565b906000526020600020015490505b92915050565b601b546000908103610f3f5750600090565b601b8054610f4f90600190613949565b81548110610f5f57610f5f61391d565b90600052602060002001545b905090565b600080610f7c83611626565b90508051600003610f905750600092915050565b60005b8151811015610fda57610fbe828281518110610fb157610fb161391d565b6020026020010151611bdd565b610fc8908461395c565b9250610fd38161396f565b9050610f93565b5050919050565b600080610fed84611626565b90508051600003611002576000915050610f27565b60005b815181101561104d576110318282815181106110235761102361391d565b6020026020010151856114d8565b61103b908461395c565b92506110468161396f565b9050611005565b505092915050565b6006546001600160a01b0316331461109c5760405162461bcd60e51b815260206004820152600a6024820152693737ba1039ba30b5b2b960b11b6044820152606401610cc6565b610e4383838360405180602001604052806000815250611b84565b60008060006110c584612476565b91509150816110d8575060009392505050565b6000818152601a6020526040812081906110f2908761257f565b91509150816111075750600095945050505050565b6111118187611eaf565b9695505050505050565b80806000036111595760405162461bcd60e51b815260206004820152600a6024820152697a65726f2076616c756560b01b6044820152606401610cc6565b6006546001600160a01b031633146111a05760405162461bcd60e51b815260206004820152600a6024820152693737ba1039ba30b5b2b960b11b6044820152606401610cc6565b600083815260186020908152604091829020825160a081018452815481526001820154928101929092526002810154928201929092526003909101546001600160a01b03811660608301819052600160a01b90910460ff16151560808301521580159061120d5750805115155b6112455760405162461bcd60e51b81526020600482015260096024820152681b9bdd08195e1a5cdd60ba1b6044820152606401610cc6565b6080810151156112975760405162461bcd60e51b815260206004820152601860248201527f49742069732077697468647261776e20616c72656164792e00000000000000006044820152606401610cc6565b428160200151116112ea5760405162461bcd60e51b815260206004820152601560248201527f4c6f636b2074696d652069732066696e697368656400000000000000000000006044820152606401610cc6565b846001600160a01b031681606001516001600160a01b03161461133b5760405162461bcd60e51b81526020600482015260096024820152683737ba1037bbb732b960b91b6044820152606401610cc6565b61134885858560006126b6565b60408051338152602081018690529081018490527fea44bc904f77b1be47cd5b840b00f19b7238f88d7524fa5a86629282bfe6bcc59060600160405180910390a15050505050565b601060205281600052604060002081815481106113ac57600080fd5b90600052602060002001600091509150505481565b60006113cc60125490565b82106114285760405162461bcd60e51b815260206004820152602560248201527f4c6f636b49644e46543a20676c6f62616c20696e646578206f7574206f6620626044820152646f756e647360d81b6064820152608401610cc6565b6012828154811061143b5761143b61391d565b90600052602060002001549050919050565b6000818152600c60205260408120546001600160a01b031680610f275760405162461bcd60e51b815260206004820152602c60248201527f4c6f636b49644e46543a206f776e657220717565727920666f72206e6f6e657860448201527f697374656e7420746f6b656e00000000000000000000000000000000000000006064820152608401610cc6565b6000828152601960205260408120819081906114f4908561257f565b91509150811561150d576115088185611eaf565b611510565b60005b95945050505050565b6060600b8054610bbd906138e3565b60606012805480602002602001604051908101604052809291908181526020018280548015610c3657602002820191906000526020600020905b815481526020019060010190808311611562575050505050905090565b60006001600160a01b0382166115fd5760405162461bcd60e51b815260206004820152602d60248201527f4c6f636b49644e46543a2062616c616e636520717565727920666f722074686560448201527f207a65726f2061646472657373000000000000000000000000000000000000006064820152608401610cc6565b506001600160a01b03166000908152600e602052604090205490565b600b8054610d4f906138e3565b6001600160a01b03811660009081526010602090815260409182902080548351818402810184019094528084526060939283018282801561168657602002820191906000526020600020905b815481526020019060010190808311611672575b50505050509050919050565b606060088054610bbd906138e3565b6060610f276116af83612b6e565b6040516020016116bf91906139a4565b604051602081830303815290604052612c0e565b6005546001600160a01b0316331461172d5760405162461bcd60e51b815260206004820152600b60248201527f6e6f74206d616e616765720000000000000000000000000000000000000000006044820152606401610cc6565b60145460ff16151560010361176d5760405162461bcd60e51b8152602060048201526006602482015265696e2075736560d01b6044820152606401610cc6565b60148054600680546001600160a01b0319166001600160a01b03949094169390931790925560ff199091169055565b6060601b805480602002602001604051908101604052809291908181526020018280548015610c365760200282019190600052602060002090815481526020019060010190808311611562575050505050905090565b60128181548110610de057600080fd5b61182660405180606001604052806000815260200160008152602001600081525090565b811561197e576000828152601a6020908152604080832080548251818502810185019093528083529192909190849084015b828210156118a85783829060005260206000209060030201604051806060016040529081600082015481526020016001820154815260200160028201548152505081526020019060010190611858565b505050509050805160001461195857604051806060016040528082600184516118d19190613949565b815181106118e1576118e161391d565b602002602001015160000151815260200182600184516119019190613949565b815181106119115761191161391d565b602002602001015160200151815260200182600184516119319190613949565b815181106119415761194161391d565b602002602001015160400151815250915050919050565b604051806060016040528060008152602001600081526020016000815250915050919050565b6040518060600160405280600081526020016000815260200160008152509050919050565b919050565b60088054610d4f906138e3565b600082806000036119f55760405162461bcd60e51b815260206004820152600a6024820152697a65726f2076616c756560b01b6044820152606401610cc6565b8280600003611a335760405162461bcd60e51b815260206004820152600a6024820152697a65726f2076616c756560b01b6044820152606401610cc6565b6006546001600160a01b03163314611a7a5760405162461bcd60e51b815260206004820152600a6024820152693737ba1039ba30b5b2b960b11b6044820152606401610cc6565b60155460009080611a8b8188613b78565b611a95904261395c565b611a9f9190613b8f565b611aa99190613b78565b601654909150611ab94283613949565b1115611b075760405162461bcd60e51b815260206004820152601b60248201527f4d617820756e6c6f636b2074696d6520697320657863656564656400000000006044820152606401610cc6565b601760008154611b169061396f565b91829055509350611b273385612d61565b611b33338588846126b6565b6040805133815260208101869052908101879052606081018290527f71fc552ee832a9004ea0bdb07cb6dd9d641eb2cb53b3cfe88c8fdcff886734a09060800160405180910390a150505092915050565b6006546001600160a01b03163314611bcb5760405162461bcd60e51b815260206004820152600a6024820152693737ba1039ba30b5b2b960b11b6044820152606401610cc6565b611bd784848484612d7b565b50505050565b6000818152601960205260408120548015611c61576000838152601960205260409020611c5c90611c0f600184613949565b81548110611c1f57611c1f61391d565b9060005260206000209060030201604051806060016040529081600082015481526020016001820154815260200160028201548152505042611eaf565b611c64565b60005b9392505050565b606060196000838152602001908152602001600020805480602002602001604051908101604052809291908181526020016000905b82821015611cf05783829060005260206000209060030201604051806060016040529081600082015481526020016001820154815260200160028201548152505081526020019060010190611ca0565b505050509050919050565b6000818152600c60205260409020546060906001600160a01b0316611d625760405162461bcd60e51b815260206004820152601c60248201527f4c6f636b49644e46543a206e6f6e6578697374656e7420746f6b656e000000006044820152606401610cc6565b6000828152601860209081526040808320815160a08101835281548152600182015493810193909352600281015491830191909152600301546001600160a01b0381166060830152600160a01b900460ff161515608082015290611dc58461144d565b611dd28360200151612b6e565b611ddf8460400151612b6e565b611df0611deb88611bdd565b612b6e565b611df9886116a1565b604051602001611e0d959493929190613bb1565b6040516020818303038152906040529050611e2781612c0e565b604051602001611e379190613d0e565b60405160208183030381529060405292505050919050565b601554600090611e5f8180613b8f565b611e699190613b78565b610f27908361395c565b60078054610d4f906138e3565b6000610f6b611e8d612273565b42611eaf565b60196020528160005260406000208181548110610e6457600080fd5b60008260400151821015611ec557506000610f27565b6000836040015183611ed79190613949565b8451611ee39190613d53565b9050670de0b6b3a764000081856020015113611f00576000611f10565b818560200151611f109190613d83565b611f1a9190613b8f565b949350505050565b6006546001600160a01b03163314611f695760405162461bcd60e51b815260206004820152600a6024820152693737ba1039ba30b5b2b960b11b6044820152606401610cc6565b81151580611f7657508015155b611faf5760405162461bcd60e51b815260206004820152600a6024820152697a65726f2076616c756560b01b6044820152606401610cc6565b600083815260186020908152604091829020825160a081018452815481526001820154928101929092526002810154928201929092526003909101546001600160a01b03811660608301819052600160a01b90910460ff16151560808301521580159061201c5750805115155b6120545760405162461bcd60e51b81526020600482015260096024820152681b9bdd08195e1a5cdd60ba1b6044820152606401610cc6565b60608101516001600160a01b03163314801561207857506001600160a01b03851633145b6120b05760405162461bcd60e51b81526020600482015260096024820152683737ba1037bbb732b960b91b6044820152606401610cc6565b6080810151156121025760405162461bcd60e51b815260206004820152601860248201527f49742069732077697468647261776e20616c72656164792e00000000000000006044820152606401610cc6565b428160200151116121555760405162461bcd60e51b815260206004820152601560248201527f4c6f636b2074696d652069732066696e697368656400000000000000000000006044820152606401610cc6565b600082156121eb576015548061216b8186613b78565b846020015161217a919061395c565b6121849190613b8f565b61218e9190613b78565b60165490915061219e4283613949565b106121eb5760405162461bcd60e51b815260206004820152601b60248201527f4d617820756e6c6f636b2074696d6520697320657863656564656400000000006044820152606401610cc6565b6121fb82606001518686846126b6565b6040805133815260208101879052908101859052606081018290527f5f892c194d8c6e1843b07f17cf9f74a948c12db2d661de24241b1231715bc79f9060800160405180910390a1505050505050565b6005546000906001600160a01b0380841691160361226b57506001919050565b506000919050565b61229760405180606001604052806000815260200160008152602001600081525090565b610f6b610926610f2d565b6000818152601a60209081526040808320805482518185028101850190935280835260609492939192909184018215611cf05783829060005260206000209060030201604051806060016040529081600082015481526020016001820154815260200160028201548152505081526020019060010190611ca0565b6001600160a01b0382166123865760405162461bcd60e51b815260206004820152602a60248201527f50726f6a656374546f6b656e3a207472616e7366657220746f20746865207a65604482015269726f206164647265737360b01b6064820152608401610cc6565b6001600160a01b0383166000908152600e602052604081208054916123aa83613daa565b90915550506001600160a01b0382166000908152600e602052604081208054916123d38361396f565b90915550506000818152600c6020526040902080546001600160a01b0319166001600160a01b0384161790556124098382612e04565b6001600160a01b03828116600081815260106020818152604080842080548886526011845282862081905593835260018401815584529083209091018590555184938716917fddf252ad1be2c89b69c2b068fc378daa952ba7f163c4a11628f55a4df523b3ef91a4505050565b601b54601554600091829182908061248e818861395c565b6124989190613b78565b6124a29190613b8f565b9050816000036124b9575060009485945092505050565b6000825b806124c983600161395c565b101561251f57600060026124dd838561395c565b6124e79190613b8f565b905083601b82815481106124fd576124fd61391d565b90600052602060002001541161251557809250612519565b8091505b506124bd565b82601b83815481106125335761253361391d565b906000526020600020015411612570576001601b83815481106125585761255861391d565b90600052602060002001549550955050505050915091565b50600096879650945050505050565b60006125a560405180606001604052806000815260200160008152602001600081525090565b83546000036125b757600091506126af565b83546000905b806125c983600161395c565b101561262557600060026125dd838561395c565b6125e79190613b8f565b9050858782815481106125fc576125fc61391d565b9060005260206000209060030201600201541161261b5780925061261f565b8091505b506125bd565b848683815481106126385761263861391d565b906000526020600020906003020160020154116126a85760018683815481106126635761266361391d565b906000526020600020906003020180604051806060016040529081600082015481526020016001820154815260200160028201548152505090509350935050506126af565b6000935050505b9250929050565b60145460ff1615156001036126f65760405162461bcd60e51b8152602060048201526006602482015265696e2075736560d01b6044820152606401610cc6565b6014805460ff191660019081179091556000848152601860209081526040808320815160a08082018452825482529582015481850190815260028301548285019081526003909301546001600160a01b0381166060840152600160a01b900460ff161515608083015283519687018452815187525193860193909352519193919082019061278590879061395c565b81526001600160a01b03881660208201526000604090910152905082156127ae57602081018390525b80516000036127bb574281525b6000858152601860209081526040808320845181558285015160018201558185015160028201556060808601516003909201805460808801511515600160a01b0274ffffffffffffffffffffffffffffffffffffffffff199091166001600160a01b039094169390931792909217909155601983528184205482519182018352848252928101849052908101929092529060006040518060600160405280601654670de0b6b3a764000087604001516128749190613b78565b61287e9190613b8f565b8152602001600081526020014281525090504284602001516128a09190613949565b81516128ac9190613d53565b6020820152821561291e5760008881526019602052604090206128d0600185613949565b815481106128e0576128e061391d565b90600052602060002090600302016040518060600160405290816000820154815260200160018201548152602001600282015481525050915061293e565b604051806060016040528060008152602001600081526020014281525091505b600060405180606001604052808460000151846000015161295f9190613d83565b8152602001846020015184602001516129789190613d83565b815242602091820181905260008c815260198352604080822080546001818101835591845285842089516003909202019081559488015190850155860151600290930192909255919250906129cc90611e4f565b6000818152601a6020908152604080832054815160608101835284815292830184905290820183905292935090829003612a0f57612a08612273565b9050612a72565b6000838152601a60205260409020612a28600184613949565b81548110612a3857612a3861391d565b9060005260206000209060030201604051806060016040529081600082015481526020016001820154815260200160028201548152505090505b6000604051806060016040528086600001518460000151612a939190613dc1565b815260200186602001518460200151612aac9190613dc1565b8152426020918201526000868152601a825260408082208054600181810183559184528484208651600390920201908155858501519181019190915581850151600290910155878252601c909252205490915060ff16612b54576000848152601c60205260408120805460ff19166001908117909155601b805491820181559091527f3ad8aa4f87544323a9d1e5dd902f40c356527a7955687113db5f9a85ad579dc1018490555b50506014805460ff19169055505050505050505050505050565b60606000612b7b83612f13565b600101905060008167ffffffffffffffff811115612b9b57612b9b6136ac565b6040519080825280601f01601f191660200182016040528015612bc5576020820181803683370190505b5090508181016020015b600019017f3031323334353637383961626364656600000000000000000000000000000000600a86061a8153600a8504945084612bcf57509392505050565b60608151600003612c2d57505060408051602081019091526000815290565b6000604051806060016040528060408152602001613e986040913990506000600384516002612c5c919061395c565b612c669190613b8f565b612c71906004613b78565b67ffffffffffffffff811115612c8957612c896136ac565b6040519080825280601f01601f191660200182016040528015612cb3576020820181803683370190505b509050600182016020820185865187015b80821015612d1f576003820191508151603f8160121c168501518453600184019350603f81600c1c168501518453600184019350603f8160061c168501518453600184019350603f8116850151845350600183019250612cc4565b5050600386510660018114612d3b5760028114612d4e57612d56565b603d6001830353603d6002830353612d56565b603d60018303535b509195945050505050565b610d32828260405180602001604052806000815250612ff5565b612d8684848461231d565b612d9284848484613145565b611bd75760405162461bcd60e51b815260206004820152603460248201527f546974616e4e46543a207472616e7366657220746f206e6f6e2045524337323160448201527f526563656976657220696d706c656d656e7465720000000000000000000000006064820152608401610cc6565b6001600160a01b038216600090815260106020526040812054612e2990600190613949565b600083815260116020526040902054909150808214612ed0576001600160a01b0384166000908152601060205260408120805484908110612e6c57612e6c61391d565b906000526020600020015490508060106000876001600160a01b03166001600160a01b031681526020019081526020016000208381548110612eb057612eb061391d565b600091825260208083209091019290925591825260119052604090208190555b6001600160a01b0384166000908152601060205260409020805480612ef757612ef7613de1565b6001900381819060005260206000200160009055905550505050565b6000807a184f03e93ff9f4daa797ed6e38ed64bf6a1f0100000000000000008310612f5c577a184f03e93ff9f4daa797ed6e38ed64bf6a1f010000000000000000830492506040015b6d04ee2d6d415b85acef81000000008310612f88576d04ee2d6d415b85acef8100000000830492506020015b662386f26fc100008310612fa657662386f26fc10000830492506010015b6305f5e1008310612fbe576305f5e100830492506008015b6127108310612fd257612710830492506004015b60648310612fe4576064830492506002015b600a8310610f275760010192915050565b816000036130455760405162461bcd60e51b815260206004820152601360248201527f6e6f7420616c6c6f77656420746f6b656e4964000000000000000000000000006044820152606401610cc6565b61304f8383613216565b6001600160a01b038316600090815260106020908152604080832080548685526011845282852081905560018082018355918552838520018690556012805487865260139094529184208390558201815582527fbb8a6a4669ba250d26cd7a459eca9d215f8307e33aebe50379bc5a3617ec3444018390556130d390848484613145565b610e435760405162461bcd60e51b815260206004820152603560248201527f4c6f636b49644e46543a207472616e7366657220746f206e6f6e20455243373260448201527f31526563656976657220696d706c656d656e74657200000000000000000000006064820152608401610cc6565b60006001600160a01b0384163b61315e57506001611f1a565b60006131df63150b7a0260e01b338887876040516024016131829493929190613df7565b604051602081830303815290604052906001600160e01b0319166020820180516001600160e01b038381831617835250505050604051806060016040528060358152602001613e63603591396001600160a01b0388169190613349565b90506000818060200190518101906131f79190613e29565b6001600160e01b031916630a85bd0160e11b1492505050949350505050565b6001600160a01b0382166132785760405162461bcd60e51b815260206004820152602360248201527f4c6f636b49644e46543a206d696e7420746f20746865207a65726f206164647260448201526265737360e81b6064820152608401610cc6565b6000818152600c60205260409020546001600160a01b0316156132dd5760405162461bcd60e51b815260206004820152601f60248201527f4c6f636b49644e46543a20746f6b656e20616c7265616479206d696e746564006044820152606401610cc6565b6000818152600c6020908152604080832080546001600160a01b0319166001600160a01b038716908117909155808452600e90925280832080546001019055518392907fddf252ad1be2c89b69c2b068fc378daa952ba7f163c4a11628f55a4df523b3ef908290a45050565b6060611f1a848460008585600080866001600160a01b031685876040516133709190613e46565b60006040518083038185875af1925050503d80600081146133ad576040519150601f19603f3d011682016040523d82523d6000602084013e6133b2565b606091505b50915091506133c3878383876133ce565b979650505050505050565b6060831561343d578251600003613436576001600160a01b0385163b6134365760405162461bcd60e51b815260206004820152601d60248201527f416464726573733a2063616c6c20746f206e6f6e2d636f6e74726163740000006044820152606401610cc6565b5081611f1a565b611f1a83838151156134525781518083602001fd5b8060405162461bcd60e51b8152600401610cc691906134f2565b6001600160e01b03198116811461348257600080fd5b50565b60006020828403121561349757600080fd5b8135611c648161346c565b60005b838110156134bd5781810151838201526020016134a5565b50506000910152565b600081518084526134de8160208601602086016134a2565b601f01601f19169290920160200192915050565b602081526000611c6460208301846134c6565b60006020828403121561351757600080fd5b5035919050565b80356001600160a01b03811681146119a357600080fd5b6000806040838503121561354857600080fd5b6135518361351e565b946020939093013593505050565b60008060006060848603121561357457600080fd5b61357d8461351e565b925061358b6020850161351e565b9150604084013590509250925092565b600080604083850312156135ae57600080fd5b50508035926020909101359150565b6000602082840312156135cf57600080fd5b611c648261351e565b6000806000606084860312156135ed57600080fd5b6135f68461351e565b95602085013595506040909401359392505050565b6020808252825182820181905260009190848201906040850190845b8181101561364357835183529284019291840191600101613627565b50909695505050505050565b6000806040838503121561366257600080fd5b61366b8361351e565b91506020830135801515811461368057600080fd5b809150509250929050565b81518152602080830151908201526040808301519082015260608101610f27565b634e487b7160e01b600052604160045260246000fd5b604051601f8201601f1916810167ffffffffffffffff811182821017156136eb576136eb6136ac565b604052919050565b6000806000806080858703121561370957600080fd5b6137128561351e565b9350602061372181870161351e565b935060408601359250606086013567ffffffffffffffff8082111561374557600080fd5b818801915088601f83011261375957600080fd5b81358181111561376b5761376b6136ac565b61377d601f8201601f191685016136c2565b9150808252898482850101111561379357600080fd5b808484018584013760008482840101525080935050505092959194509250565b6020808252825182820181905260009190848201906040850190845b81811015613643576137f68385518051825260208082015190830152604090810151910152565b92840192606092909201916001016137cf565b600080828403608081121561381d57600080fd5b606081121561382b57600080fd5b506040516060810181811067ffffffffffffffff8211171561384f5761384f6136ac565b6040908152843582526020808601359083015284810135908201529460609093013593505050565b6000806040838503121561388a57600080fd5b6138938361351e565b91506138a16020840161351e565b90509250929050565b600080600080608085870312156138c057600080fd5b6138c98561351e565b966020860135965060408601359560600135945092505050565b600181811c908216806138f757607f821691505b60208210810361391757634e487b7160e01b600052602260045260246000fd5b50919050565b634e487b7160e01b600052603260045260246000fd5b634e487b7160e01b600052601160045260246000fd5b81810381811115610f2757610f27613933565b80820180821115610f2757610f27613933565b60006001820161398157613981613933565b5060010190565b6000815161399a8185602086016134a2565b9290920192915050565b7f3c73766720786d6c6e733d22687474703a2f2f7777772e77332e6f72672f323081527f30302f73766722207072657365727665417370656374526174696f3d22784d6960208201527f6e594d696e206d656574222076696577426f783d223020302033353020333530604082015261111f60f11b60608201527f3c7374796c653e2e62617365207b2066696c6c3a2077686974653b20666f6e7460628201527f2d66616d696c793a2073657269663b20666f6e742d73697a653a20313470783b608282015269103e9e17b9ba3cb6329f60b11b60a28201527f3c726563742077696474683d223130302522206865696768743d22353030252260ac8201527f2066696c6c3d226772657922202f3e000000000000000000000000000000000060cc8201527f3c7465787420783d223530252220793d223530252220636c6173733d2262617360db8201527f652220646f6d696e616e742d626173656c696e653d226d6964646c652220746560fb8201527f78742d616e63686f723d226d6964646c65223e2023000000000000000000000061011b8201526000611c64613b4f610130840185613988565b7f203c2f746578743e3c2f7376673e0000000000000000000000000000000000008152600e0190565b8082028115828204841417610f2757610f27613933565b600082613bac57634e487b7160e01b600052601260045260246000fd5b500490565b607b60f81b8152691137bbb732b9111d101160b11b6001820152606086901b6bffffffffffffffffffffffff1916600b8201526201116160ed1b601f8201527f22756e6c6f636b54696d65223a2000000000000000000000000000000000000060228201528451600090613c2c816030850160208a016134a2565b61016160f51b6030918401918201527f227072696e636970616c223a20000000000000000000000000000000000000006032820152613d02613cf5613ce8613ce2613cac613c84613ca6613c9282603f8a018f613988565b61016160f51b815260020190565b6701139ba37b9911d160c51b815260080190565b8b613988565b7f22696d616765223a2022646174613a696d6167652f7376672b786d6c3b626173815263194d8d0b60e21b602082015260240190565b87613988565b601160f91b815260010190565b607d60f81b815260010190565b98975050505050505050565b7f646174613a6170706c69636174696f6e2f6a736f6e3b6261736536342c000000815260008251613d4681601d8501602087016134a2565b91909101601d0192915050565b80820260008212600160ff1b84141615613d6f57613d6f613933565b8181058314821517610f2757610f27613933565b8181036000831280158383131683831282161715613da357613da3613933565b5092915050565b600081613db957613db9613933565b506000190190565b808201828112600083128015821682158216171561104d5761104d613933565b634e487b7160e01b600052603160045260246000fd5b60006001600160a01b0380871683528086166020840152508360408301526080606083015261111160808301846134c6565b600060208284031215613e3b57600080fd5b8151611c648161346c565b60008251613e588184602087016134a2565b919091019291505056fe4c6f636b49644e46543a207472616e7366657220746f206e6f6e20455243373231526563656976657220696d706c656d656e7465724142434445464748494a4b4c4d4e4f505152535455565758595a6162636465666768696a6b6c6d6e6f707172737475767778797a303132333435363738392b2fa164736f6c6343000812000a",
  "linkReferences": {},
  "deployedLinkReferences": {}
}