{
  "_format": "hh-sol-artifact-1",
  "contractName": "LockIdNftForStake",
  "sourceName": "contracts/stos/LockIdNftForStake.sol",
  "abi": [
    {
      "inputs": [
        {
          "internalType": "string",
          "name": "name_",
          "type": "string"
        },
        {
          "internalType": "string",
          "name": "symbol_",
          "type": "string"
        },
        {
          "internalType": "address",
          "name": "managerAddress",
          "type": "address"
        },
        {
          "internalType": "address",
          "name": "stakerAddress",
          "type": "address"
        },
        {
          "internalType": "uint256",
          "name": "epochUnit_",
          "type": "uint256"
        },
        {
          "internalType": "uint256",
          "name": "maxTime_",
          "type": "uint256"
        },
        {
          "internalType": "address",
          "name": "tosAddress",
          "type": "address"
        }
      ],
      "stateMutability": "nonpayable",
      "type": "constructor"
    },
    {
      "anonymous": false,
      "inputs": [
        {
          "indexed": true,
          "internalType": "address",
          "name": "owner",
          "type": "address"
        },
        {
          "indexed": true,
          "internalType": "address",
          "name": "approved",
          "type": "address"
        },
        {
          "indexed": true,
          "internalType": "uint256",
          "name": "tokenId",
          "type": "uint256"
        }
      ],
      "name": "Approval",
      "type": "event"
    },
    {
      "anonymous": false,
      "inputs": [
        {
          "indexed": true,
          "internalType": "address",
          "name": "owner",
          "type": "address"
        },
        {
          "indexed": true,
          "internalType": "address",
          "name": "operator",
          "type": "address"
        },
        {
          "indexed": false,
          "internalType": "bool",
          "name": "approved",
          "type": "bool"
        }
      ],
      "name": "ApprovalForAll",
      "type": "event"
    },
    {
      "anonymous": false,
      "inputs": [
        {
          "indexed": false,
          "internalType": "address",
          "name": "account",
          "type": "address"
        },
        {
          "indexed": false,
          "internalType": "uint256",
          "name": "lockId",
          "type": "uint256"
        },
        {
          "indexed": false,
          "internalType": "uint256",
          "name": "value",
          "type": "uint256"
        },
        {
          "indexed": false,
          "internalType": "uint256",
          "name": "unlockTime",
          "type": "uint256"
        }
      ],
      "name": "IncreasedLock",
      "type": "event"
    },
    {
      "anonymous": false,
      "inputs": [
        {
          "indexed": false,
          "internalType": "address",
          "name": "account",
          "type": "address"
        },
        {
          "indexed": false,
          "internalType": "uint256",
          "name": "lockId",
          "type": "uint256"
        },
        {
          "indexed": false,
          "internalType": "uint256",
          "name": "amount",
          "type": "uint256"
        },
        {
          "indexed": false,
          "internalType": "uint256",
          "name": "unlockTime",
          "type": "uint256"
        }
      ],
      "name": "LockCreated",
      "type": "event"
    },
    {
      "anonymous": false,
      "inputs": [
        {
          "indexed": false,
          "internalType": "address",
          "name": "account",
          "type": "address"
        },
        {
          "indexed": false,
          "internalType": "uint256",
          "name": "lockId",
          "type": "uint256"
        },
        {
          "indexed": false,
          "internalType": "uint256",
          "name": "value",
          "type": "uint256"
        }
      ],
      "name": "LockDeposited",
      "type": "event"
    },
    {
      "anonymous": false,
      "inputs": [
        {
          "indexed": true,
          "internalType": "address",
          "name": "from",
          "type": "address"
        },
        {
          "indexed": true,
          "internalType": "address",
          "name": "to",
          "type": "address"
        },
        {
          "indexed": true,
          "internalType": "uint256",
          "name": "tokenId",
          "type": "uint256"
        }
      ],
      "name": "Transfer",
      "type": "event"
    },
    {
      "inputs": [],
      "name": "MULTIPLIER",
      "outputs": [
        {
          "internalType": "uint256",
          "name": "",
          "type": "uint256"
        }
      ],
      "stateMutability": "view",
      "type": "function"
    },
    {
      "inputs": [],
      "name": "_ERC721_RECEIVED",
      "outputs": [
        {
          "internalType": "bytes4",
          "name": "",
          "type": "bytes4"
        }
      ],
      "stateMutability": "view",
      "type": "function"
    },
    {
      "inputs": [],
      "name": "_INTERFACE_ID_ERC721",
      "outputs": [
        {
          "internalType": "bytes4",
          "name": "",
          "type": "bytes4"
        }
      ],
      "stateMutability": "view",
      "type": "function"
    },
    {
      "inputs": [],
      "name": "_INTERFACE_ID_ERC721_ENUMERABLE",
      "outputs": [
        {
          "internalType": "bytes4",
          "name": "",
          "type": "bytes4"
        }
      ],
      "stateMutability": "view",
      "type": "function"
    },
    {
      "inputs": [],
      "name": "_INTERFACE_ID_ERC721_METADATA",
      "outputs": [
        {
          "internalType": "bytes4",
          "name": "",
          "type": "bytes4"
        }
      ],
      "stateMutability": "view",
      "type": "function"
    },
    {
      "inputs": [
        {
          "internalType": "uint256",
          "name": "",
          "type": "uint256"
        }
      ],
      "name": "_allTokens",
      "outputs": [
        {
          "internalType": "uint256",
          "name": "",
          "type": "uint256"
        }
      ],
      "stateMutability": "view",
      "type": "function"
    },
    {
      "inputs": [
        {
          "internalType": "uint256",
          "name": "",
          "type": "uint256"
        }
      ],
      "name": "_allTokensIndex",
      "outputs": [
        {
          "internalType": "uint256",
          "name": "",
          "type": "uint256"
        }
      ],
      "stateMutability": "view",
      "type": "function"
    },
    {
      "inputs": [],
      "name": "_baseURI",
      "outputs": [
        {
          "internalType": "string",
          "name": "",
          "type": "string"
        }
      ],
      "stateMutability": "view",
      "type": "function"
    },
    {
      "inputs": [],
      "name": "_manager",
      "outputs": [
        {
          "internalType": "address",
          "name": "",
          "type": "address"
        }
      ],
      "stateMutability": "view",
      "type": "function"
    },
    {
      "inputs": [],
      "name": "_name",
      "outputs": [
        {
          "internalType": "string",
          "name": "",
          "type": "string"
        }
      ],
      "stateMutability": "view",
      "type": "function"
    },
    {
      "inputs": [
        {
          "internalType": "address",
          "name": "",
          "type": "address"
        },
        {
          "internalType": "address",
          "name": "",
          "type": "address"
        }
      ],
      "name": "_operatorApprovals",
      "outputs": [
        {
          "internalType": "bool",
          "name": "",
          "type": "bool"
        }
      ],
      "stateMutability": "view",
      "type": "function"
    },
    {
      "inputs": [
        {
          "internalType": "address",
          "name": "",
          "type": "address"
        },
        {
          "internalType": "uint256",
          "name": "",
          "type": "uint256"
        }
      ],
      "name": "_ownedTokens",
      "outputs": [
        {
          "internalType": "uint256",
          "name": "",
          "type": "uint256"
        }
      ],
      "stateMutability": "view",
      "type": "function"
    },
    {
      "inputs": [
        {
          "internalType": "address",
          "name": "",
          "type": "address"
        }
      ],
      "name": "_ownedTokensCount",
      "outputs": [
        {
          "internalType": "uint256",
          "name": "",
          "type": "uint256"
        }
      ],
      "stateMutability": "view",
      "type": "function"
    },
    {
      "inputs": [
        {
          "internalType": "uint256",
          "name": "",
          "type": "uint256"
        }
      ],
      "name": "_ownedTokensIndex",
      "outputs": [
        {
          "internalType": "uint256",
          "name": "",
          "type": "uint256"
        }
      ],
      "stateMutability": "view",
      "type": "function"
    },
    {
      "inputs": [],
      "name": "_owner",
      "outputs": [
        {
          "internalType": "address",
          "name": "",
          "type": "address"
        }
      ],
      "stateMutability": "view",
      "type": "function"
    },
    {
      "inputs": [],
      "name": "_symbol",
      "outputs": [
        {
          "internalType": "string",
          "name": "",
          "type": "string"
        }
      ],
      "stateMutability": "view",
      "type": "function"
    },
    {
      "inputs": [
        {
          "internalType": "uint256",
          "name": "",
          "type": "uint256"
        }
      ],
      "name": "_tokenApprovals",
      "outputs": [
        {
          "internalType": "address",
          "name": "",
          "type": "address"
        }
      ],
      "stateMutability": "view",
      "type": "function"
    },
    {
      "inputs": [
        {
          "internalType": "uint256",
          "name": "",
          "type": "uint256"
        }
      ],
      "name": "_tokenAttributes",
      "outputs": [
        {
          "internalType": "uint8",
          "name": "",
          "type": "uint8"
        }
      ],
      "stateMutability": "view",
      "type": "function"
    },
    {
      "inputs": [
        {
          "internalType": "uint256",
          "name": "",
          "type": "uint256"
        }
      ],
      "name": "_tokenOwner",
      "outputs": [
        {
          "internalType": "address",
          "name": "",
          "type": "address"
        }
      ],
      "stateMutability": "view",
      "type": "function"
    },
    {
      "inputs": [
        {
          "internalType": "uint256",
          "name": "",
          "type": "uint256"
        }
      ],
      "name": "_tokenURIs",
      "outputs": [
        {
          "internalType": "string",
          "name": "",
          "type": "string"
        }
      ],
      "stateMutability": "view",
      "type": "function"
    },
    {
      "inputs": [
        {
          "internalType": "address",
          "name": "",
          "type": "address"
        }
      ],
      "name": "aliveImplementation",
      "outputs": [
        {
          "internalType": "bool",
          "name": "",
          "type": "bool"
        }
      ],
      "stateMutability": "view",
      "type": "function"
    },
    {
      "inputs": [],
      "name": "allIndexOfTimes",
      "outputs": [
        {
          "internalType": "uint256[]",
          "name": "",
          "type": "uint256[]"
        }
      ],
      "stateMutability": "view",
      "type": "function"
    },
    {
      "inputs": [],
      "name": "allTokens",
      "outputs": [
        {
          "internalType": "uint256[]",
          "name": "",
          "type": "uint256[]"
        }
      ],
      "stateMutability": "view",
      "type": "function"
    },
    {
      "inputs": [
        {
          "internalType": "address",
          "name": "to",
          "type": "address"
        },
        {
          "internalType": "uint256",
          "name": "tokenId",
          "type": "uint256"
        }
      ],
      "name": "approve",
      "outputs": [],
      "stateMutability": "nonpayable",
      "type": "function"
    },
    {
      "inputs": [
        {
          "internalType": "address",
          "name": "owner_",
          "type": "address"
        }
      ],
      "name": "balanceOf",
      "outputs": [
        {
          "internalType": "uint256",
          "name": "",
          "type": "uint256"
        }
      ],
      "stateMutability": "view",
      "type": "function"
    },
    {
      "inputs": [
        {
          "internalType": "address",
          "name": "_addr",
          "type": "address"
        }
      ],
      "name": "balanceOfLock",
      "outputs": [
        {
          "internalType": "uint256",
          "name": "balance",
          "type": "uint256"
        }
      ],
      "stateMutability": "view",
      "type": "function"
    },
    {
      "inputs": [
        {
          "internalType": "uint256",
          "name": "_lockId",
          "type": "uint256"
        }
      ],
      "name": "balanceOfLock",
      "outputs": [
        {
          "internalType": "uint256",
          "name": "amount",
          "type": "uint256"
        }
      ],
      "stateMutability": "view",
      "type": "function"
    },
    {
      "inputs": [
        {
          "internalType": "address",
          "name": "_addr",
          "type": "address"
        },
        {
          "internalType": "uint256",
          "name": "_timestamp",
          "type": "uint256"
        }
      ],
      "name": "balanceOfLockAt",
      "outputs": [
        {
          "internalType": "uint256",
          "name": "balance",
          "type": "uint256"
        }
      ],
      "stateMutability": "view",
      "type": "function"
    },
    {
      "inputs": [
        {
          "internalType": "uint256",
          "name": "_lockId",
          "type": "uint256"
        },
        {
          "internalType": "uint256",
          "name": "_timestamp",
          "type": "uint256"
        }
      ],
      "name": "balanceOfLockAt",
      "outputs": [
        {
          "internalType": "uint256",
          "name": "amount",
          "type": "uint256"
        }
      ],
      "stateMutability": "view",
      "type": "function"
    },
    {
      "inputs": [
        {
          "components": [
            {
              "internalType": "int256",
              "name": "slope",
              "type": "int256"
            },
            {
              "internalType": "int256",
              "name": "bias",
              "type": "int256"
            },
            {
              "internalType": "uint256",
              "name": "timestamp",
              "type": "uint256"
            }
          ],
          "internalType": "struct LibLockId.Point",
          "name": "point",
          "type": "tuple"
        },
        {
          "internalType": "uint256",
          "name": "timestamp",
          "type": "uint256"
        }
      ],
      "name": "balanceOfPoint",
      "outputs": [
        {
          "internalType": "uint256",
          "name": "",
          "type": "uint256"
        }
      ],
      "stateMutability": "pure",
      "type": "function"
    },
    {
      "inputs": [],
      "name": "baseURI",
      "outputs": [
        {
          "internalType": "string",
          "name": "",
          "type": "string"
        }
      ],
      "stateMutability": "view",
      "type": "function"
    },
    {
      "inputs": [
        {
          "internalType": "uint256",
          "name": "_amount",
          "type": "uint256"
        },
        {
          "internalType": "uint256",
          "name": "_unlockWeeks",
          "type": "uint256"
        }
      ],
      "name": "createLock",
      "outputs": [
        {
          "internalType": "uint256",
          "name": "lockId",
          "type": "uint256"
        }
      ],
      "stateMutability": "nonpayable",
      "type": "function"
    },
    {
      "inputs": [
        {
          "internalType": "address",
          "name": "_addr",
          "type": "address"
        },
        {
          "internalType": "uint256",
          "name": "_lockId",
          "type": "uint256"
        },
        {
          "internalType": "uint256",
          "name": "_value",
          "type": "uint256"
        }
      ],
      "name": "depositFor",
      "outputs": [],
      "stateMutability": "nonpayable",
      "type": "function"
    },
    {
      "inputs": [],
      "name": "epochUnit",
      "outputs": [
        {
          "internalType": "uint256",
          "name": "",
          "type": "uint256"
        }
      ],
      "stateMutability": "view",
      "type": "function"
    },
    {
      "inputs": [
        {
          "internalType": "uint256",
          "name": "",
          "type": "uint256"
        }
      ],
      "name": "existedLockPeriod",
      "outputs": [
        {
          "internalType": "bool",
          "name": "",
          "type": "bool"
        }
      ],
      "stateMutability": "view",
      "type": "function"
    },
    {
      "inputs": [
        {
          "internalType": "uint256",
          "name": "tokenId",
          "type": "uint256"
        }
      ],
      "name": "generateSvgToBase64",
      "outputs": [
        {
          "internalType": "string",
          "name": "",
          "type": "string"
        }
      ],
      "stateMutability": "pure",
      "type": "function"
    },
    {
      "inputs": [
        {
          "internalType": "uint256",
          "name": "tokenId",
          "type": "uint256"
        }
      ],
      "name": "getApproved",
      "outputs": [
        {
          "internalType": "address",
          "name": "",
          "type": "address"
        }
      ],
      "stateMutability": "view",
      "type": "function"
    },
    {
      "inputs": [
        {
          "internalType": "address",
          "name": "_addr",
          "type": "address"
        },
        {
          "internalType": "uint256",
          "name": "_lockId",
          "type": "uint256"
        },
        {
          "internalType": "uint256",
          "name": "_value",
          "type": "uint256"
        },
        {
          "internalType": "uint256",
          "name": "_unlockWeeks",
          "type": "uint256"
        }
      ],
      "name": "increaseLock",
      "outputs": [],
      "stateMutability": "nonpayable",
      "type": "function"
    },
    {
      "inputs": [
        {
          "internalType": "uint256",
          "name": "",
          "type": "uint256"
        }
      ],
      "name": "indexCheckOfTimeset",
      "outputs": [
        {
          "internalType": "bool",
          "name": "",
          "type": "bool"
        }
      ],
      "stateMutability": "view",
      "type": "function"
    },
    {
      "inputs": [
        {
          "internalType": "uint256",
          "name": "",
          "type": "uint256"
        },
        {
          "internalType": "uint256",
          "name": "",
          "type": "uint256"
        }
      ],
      "name": "indexCheckOfTimesetForLockEnd",
      "outputs": [
        {
          "internalType": "bool",
          "name": "",
          "type": "bool"
        }
      ],
      "stateMutability": "view",
      "type": "function"
    },
    {
      "inputs": [
        {
          "internalType": "uint256",
          "name": "",
          "type": "uint256"
        }
      ],
      "name": "indexCheckOfTimesetForUnlimited",
      "outputs": [
        {
          "internalType": "bool",
          "name": "",
          "type": "bool"
        }
      ],
      "stateMutability": "view",
      "type": "function"
    },
    {
      "inputs": [
        {
          "internalType": "uint256",
          "name": "",
          "type": "uint256"
        }
      ],
      "name": "indexOfTimeset",
      "outputs": [
        {
          "internalType": "uint256",
          "name": "",
          "type": "uint256"
        }
      ],
      "stateMutability": "view",
      "type": "function"
    },
    {
      "inputs": [
        {
          "internalType": "uint256",
          "name": "",
          "type": "uint256"
        },
        {
          "internalType": "uint256",
          "name": "",
          "type": "uint256"
        }
      ],
      "name": "indexOfTimesetForLockEnd",
      "outputs": [
        {
          "internalType": "uint256",
          "name": "",
          "type": "uint256"
        }
      ],
      "stateMutability": "view",
      "type": "function"
    },
    {
      "inputs": [
        {
          "internalType": "uint256",
          "name": "",
          "type": "uint256"
        }
      ],
      "name": "indexOfTimesetForUnlimited",
      "outputs": [
        {
          "internalType": "uint256",
          "name": "",
          "type": "uint256"
        }
      ],
      "stateMutability": "view",
      "type": "function"
    },
    {
      "inputs": [
        {
          "internalType": "address",
          "name": "owner_",
          "type": "address"
        },
        {
          "internalType": "address",
          "name": "operator",
          "type": "address"
        }
      ],
      "name": "isApprovedForAll",
      "outputs": [
        {
          "internalType": "bool",
          "name": "",
          "type": "bool"
        }
      ],
      "stateMutability": "view",
      "type": "function"
    },
    {
      "inputs": [
        {
          "internalType": "address",
          "name": "addr",
          "type": "address"
        }
      ],
      "name": "isManager",
      "outputs": [
        {
          "internalType": "bool",
          "name": "",
          "type": "bool"
        }
      ],
      "stateMutability": "view",
      "type": "function"
    },
    {
      "inputs": [],
      "name": "lastIndexOfTimeset",
      "outputs": [
        {
          "internalType": "uint256",
          "name": "index",
          "type": "uint256"
        }
      ],
      "stateMutability": "view",
      "type": "function"
    },
    {
      "inputs": [
        {
          "internalType": "uint256",
          "name": "_index",
          "type": "uint256"
        }
      ],
      "name": "lastPointOfTimeIndex",
      "outputs": [
        {
          "components": [
            {
              "internalType": "int256",
              "name": "slope",
              "type": "int256"
            },
            {
              "internalType": "int256",
              "name": "bias",
              "type": "int256"
            },
            {
              "internalType": "uint256",
              "name": "timestamp",
              "type": "uint256"
            }
          ],
          "internalType": "struct LibLockId.Point",
          "name": "",
          "type": "tuple"
        }
      ],
      "stateMutability": "view",
      "type": "function"
    },
    {
      "inputs": [
        {
          "internalType": "uint256",
          "name": "",
          "type": "uint256"
        }
      ],
      "name": "lockIdInfos",
      "outputs": [
        {
          "internalType": "uint256",
          "name": "start",
          "type": "uint256"
        },
        {
          "internalType": "uint256",
          "name": "end",
          "type": "uint256"
        },
        {
          "internalType": "uint256",
          "name": "amount",
          "type": "uint256"
        },
        {
          "internalType": "uint256",
          "name": "withdrawlTime",
          "type": "uint256"
        }
      ],
      "stateMutability": "view",
      "type": "function"
    },
    {
      "inputs": [
        {
          "internalType": "uint256",
          "name": "",
          "type": "uint256"
        }
      ],
      "name": "lockPeriod",
      "outputs": [
        {
          "internalType": "uint256",
          "name": "",
          "type": "uint256"
        }
      ],
      "stateMutability": "view",
      "type": "function"
    },
    {
      "inputs": [],
      "name": "manager",
      "outputs": [
        {
          "internalType": "address",
          "name": "",
          "type": "address"
        }
      ],
      "stateMutability": "view",
      "type": "function"
    },
    {
      "inputs": [],
      "name": "maxTime",
      "outputs": [
        {
          "internalType": "uint256",
          "name": "",
          "type": "uint256"
        }
      ],
      "stateMutability": "view",
      "type": "function"
    },
    {
      "inputs": [],
      "name": "maxTokenId",
      "outputs": [
        {
          "internalType": "uint256",
          "name": "",
          "type": "uint256"
        }
      ],
      "stateMutability": "view",
      "type": "function"
    },
    {
      "inputs": [],
      "name": "name",
      "outputs": [
        {
          "internalType": "string",
          "name": "",
          "type": "string"
        }
      ],
      "stateMutability": "view",
      "type": "function"
    },
    {
      "inputs": [
        {
          "internalType": "uint256",
          "name": "_stime",
          "type": "uint256"
        }
      ],
      "name": "nextTimeIndex",
      "outputs": [
        {
          "internalType": "uint256",
          "name": "",
          "type": "uint256"
        }
      ],
      "stateMutability": "view",
      "type": "function"
    },
    {
      "inputs": [
        {
          "internalType": "uint256",
          "name": "tokenId",
          "type": "uint256"
        }
      ],
      "name": "ownerOf",
      "outputs": [
        {
          "internalType": "address",
          "name": "",
          "type": "address"
        }
      ],
      "stateMutability": "view",
      "type": "function"
    },
    {
      "inputs": [],
      "name": "pauseProxy",
      "outputs": [
        {
          "internalType": "bool",
          "name": "",
          "type": "bool"
        }
      ],
      "stateMutability": "view",
      "type": "function"
    },
    {
      "inputs": [
        {
          "internalType": "uint256",
          "name": "",
          "type": "uint256"
        },
        {
          "internalType": "uint256",
          "name": "",
          "type": "uint256"
        }
      ],
      "name": "pointHistoryByLockId",
      "outputs": [
        {
          "internalType": "int256",
          "name": "slope",
          "type": "int256"
        },
        {
          "internalType": "int256",
          "name": "bias",
          "type": "int256"
        },
        {
          "internalType": "uint256",
          "name": "timestamp",
          "type": "uint256"
        }
      ],
      "stateMutability": "view",
      "type": "function"
    },
    {
      "inputs": [
        {
          "internalType": "uint256",
          "name": "",
          "type": "uint256"
        },
        {
          "internalType": "uint256",
          "name": "",
          "type": "uint256"
        }
      ],
      "name": "pointHistoryByWeek",
      "outputs": [
        {
          "internalType": "int256",
          "name": "slope",
          "type": "int256"
        },
        {
          "internalType": "int256",
          "name": "bias",
          "type": "int256"
        },
        {
          "internalType": "uint256",
          "name": "timestamp",
          "type": "uint256"
        }
      ],
      "stateMutability": "view",
      "type": "function"
    },
    {
      "inputs": [
        {
          "internalType": "uint256",
          "name": "_lockId",
          "type": "uint256"
        }
      ],
      "name": "pointHistoryOfId",
      "outputs": [
        {
          "components": [
            {
              "internalType": "int256",
              "name": "slope",
              "type": "int256"
            },
            {
              "internalType": "int256",
              "name": "bias",
              "type": "int256"
            },
            {
              "internalType": "uint256",
              "name": "timestamp",
              "type": "uint256"
            }
          ],
          "internalType": "struct LibLockId.Point[]",
          "name": "",
          "type": "tuple[]"
        }
      ],
      "stateMutability": "view",
      "type": "function"
    },
    {
      "inputs": [
        {
          "internalType": "uint256",
          "name": "_timeIndex",
          "type": "uint256"
        }
      ],
      "name": "pointHistoryOfTimeIndex",
      "outputs": [
        {
          "components": [
            {
              "internalType": "int256",
              "name": "slope",
              "type": "int256"
            },
            {
              "internalType": "int256",
              "name": "bias",
              "type": "int256"
            },
            {
              "internalType": "uint256",
              "name": "timestamp",
              "type": "uint256"
            }
          ],
          "internalType": "struct LibLockId.Point[]",
          "name": "",
          "type": "tuple[]"
        }
      ],
      "stateMutability": "view",
      "type": "function"
    },
    {
      "inputs": [],
      "name": "pointOfLastTimeIndex",
      "outputs": [
        {
          "components": [
            {
              "internalType": "int256",
              "name": "slope",
              "type": "int256"
            },
            {
              "internalType": "int256",
              "name": "bias",
              "type": "int256"
            },
            {
              "internalType": "uint256",
              "name": "timestamp",
              "type": "uint256"
            }
          ],
          "internalType": "struct LibLockId.Point",
          "name": "",
          "type": "tuple"
        }
      ],
      "stateMutability": "view",
      "type": "function"
    },
    {
      "inputs": [
        {
          "internalType": "uint256",
          "name": "",
          "type": "uint256"
        }
      ],
      "name": "proxyImplementation",
      "outputs": [
        {
          "internalType": "address",
          "name": "",
          "type": "address"
        }
      ],
      "stateMutability": "view",
      "type": "function"
    },
    {
      "inputs": [
        {
          "internalType": "address",
          "name": "from",
          "type": "address"
        },
        {
          "internalType": "address",
          "name": "to",
          "type": "address"
        },
        {
          "internalType": "uint256",
          "name": "tokenId",
          "type": "uint256"
        }
      ],
      "name": "safeTransferFrom",
      "outputs": [],
      "stateMutability": "nonpayable",
      "type": "function"
    },
    {
      "inputs": [
        {
          "internalType": "address",
          "name": "from",
          "type": "address"
        },
        {
          "internalType": "address",
          "name": "to",
          "type": "address"
        },
        {
          "internalType": "uint256",
          "name": "tokenId",
          "type": "uint256"
        },
        {
          "internalType": "bytes",
          "name": "_data",
          "type": "bytes"
        }
      ],
      "name": "safeTransferFrom",
      "outputs": [],
      "stateMutability": "nonpayable",
      "type": "function"
    },
    {
      "inputs": [
        {
          "internalType": "bytes4",
          "name": "",
          "type": "bytes4"
        }
      ],
      "name": "selectorImplementation",
      "outputs": [
        {
          "internalType": "address",
          "name": "",
          "type": "address"
        }
      ],
      "stateMutability": "view",
      "type": "function"
    },
    {
      "inputs": [
        {
          "internalType": "address",
          "name": "user",
          "type": "address"
        },
        {
          "internalType": "bool",
          "name": "approved",
          "type": "bool"
        }
      ],
      "name": "setApprovalForAll",
      "outputs": [],
      "stateMutability": "nonpayable",
      "type": "function"
    },
    {
      "inputs": [
        {
          "internalType": "address",
          "name": "staker_",
          "type": "address"
        }
      ],
      "name": "setStaker",
      "outputs": [],
      "stateMutability": "nonpayable",
      "type": "function"
    },
    {
      "inputs": [
        {
          "internalType": "uint256",
          "name": "",
          "type": "uint256"
        },
        {
          "internalType": "uint256",
          "name": "",
          "type": "uint256"
        }
      ],
      "name": "slopeByLockEndTime",
      "outputs": [
        {
          "internalType": "int256",
          "name": "",
          "type": "int256"
        }
      ],
      "stateMutability": "view",
      "type": "function"
    },
    {
      "inputs": [],
      "name": "staker",
      "outputs": [
        {
          "internalType": "address",
          "name": "",
          "type": "address"
        }
      ],
      "stateMutability": "view",
      "type": "function"
    },
    {
      "inputs": [
        {
          "internalType": "bytes4",
          "name": "interfaceId",
          "type": "bytes4"
        }
      ],
      "name": "supportsInterface",
      "outputs": [
        {
          "internalType": "bool",
          "name": "",
          "type": "bool"
        }
      ],
      "stateMutability": "view",
      "type": "function"
    },
    {
      "inputs": [],
      "name": "symbol",
      "outputs": [
        {
          "internalType": "string",
          "name": "",
          "type": "string"
        }
      ],
      "stateMutability": "view",
      "type": "function"
    },
    {
      "inputs": [
        {
          "internalType": "uint256",
          "name": "index",
          "type": "uint256"
        }
      ],
      "name": "tokenByIndex",
      "outputs": [
        {
          "internalType": "uint256",
          "name": "",
          "type": "uint256"
        }
      ],
      "stateMutability": "view",
      "type": "function"
    },
    {
      "inputs": [
        {
          "internalType": "address",
          "name": "owner_",
          "type": "address"
        },
        {
          "internalType": "uint256",
          "name": "index",
          "type": "uint256"
        }
      ],
      "name": "tokenOfOwnerByIndex",
      "outputs": [
        {
          "internalType": "uint256",
          "name": "",
          "type": "uint256"
        }
      ],
      "stateMutability": "view",
      "type": "function"
    },
    {
      "inputs": [
        {
          "internalType": "uint256",
          "name": "tokenId",
          "type": "uint256"
        }
      ],
      "name": "tokenURI",
      "outputs": [
        {
          "internalType": "string",
          "name": "",
          "type": "string"
        }
      ],
      "stateMutability": "view",
      "type": "function"
    },
    {
      "inputs": [
        {
          "internalType": "address",
          "name": "owner_",
          "type": "address"
        }
      ],
      "name": "tokensOfOwner",
      "outputs": [
        {
          "internalType": "uint256[]",
          "name": "",
          "type": "uint256[]"
        }
      ],
      "stateMutability": "view",
      "type": "function"
    },
    {
      "inputs": [],
      "name": "tos",
      "outputs": [
        {
          "internalType": "address",
          "name": "",
          "type": "address"
        }
      ],
      "stateMutability": "view",
      "type": "function"
    },
    {
      "inputs": [],
      "name": "totalSupply",
      "outputs": [
        {
          "internalType": "uint256",
          "name": "",
          "type": "uint256"
        }
      ],
      "stateMutability": "view",
      "type": "function"
    },
    {
      "inputs": [],
      "name": "totalSupplyLocks",
      "outputs": [
        {
          "internalType": "uint256",
          "name": "amount",
          "type": "uint256"
        }
      ],
      "stateMutability": "view",
      "type": "function"
    },
    {
      "inputs": [
        {
          "internalType": "uint256",
          "name": "_timestamp",
          "type": "uint256"
        }
      ],
      "name": "totalSupplyLocksAt",
      "outputs": [
        {
          "internalType": "uint256",
          "name": "amount",
          "type": "uint256"
        }
      ],
      "stateMutability": "view",
      "type": "function"
    },
    {
      "inputs": [
        {
          "internalType": "address",
          "name": "from",
          "type": "address"
        },
        {
          "internalType": "address",
          "name": "to",
          "type": "address"
        },
        {
          "internalType": "uint256",
          "name": "tokenId",
          "type": "uint256"
        }
      ],
      "name": "transferFrom",
      "outputs": [],
      "stateMutability": "nonpayable",
      "type": "function"
    },
    {
      "inputs": [
        {
          "internalType": "address",
          "name": "",
          "type": "address"
        },
        {
          "internalType": "uint256",
          "name": "",
          "type": "uint256"
        }
      ],
      "name": "unlimitedAmountByAccount",
      "outputs": [
        {
          "internalType": "uint32",
          "name": "timestamp",
          "type": "uint32"
        },
        {
          "internalType": "uint256",
          "name": "amount",
          "type": "uint256"
        }
      ],
      "stateMutability": "view",
      "type": "function"
    },
    {
      "inputs": [
        {
          "internalType": "uint256",
          "name": "",
          "type": "uint256"
        },
        {
          "internalType": "uint256",
          "name": "",
          "type": "uint256"
        }
      ],
      "name": "unlimitedHistoryByWeek",
      "outputs": [
        {
          "internalType": "uint32",
          "name": "timestamp",
          "type": "uint32"
        },
        {
          "internalType": "uint256",
          "name": "amount",
          "type": "uint256"
        }
      ],
      "stateMutability": "view",
      "type": "function"
    }
  ],
  "bytecode": "0x60806040523480156200001157600080fd5b506040516200455538038062004555833981016040819052620000349162000234565b620000466301ffc9a760e01b620000ce565b600580546001600160a01b038088166001600160a01b0319928316179092556006805492871692909116919091179055600762000084888262000378565b50600862000093878262000378565b50601592909255601655601480546001600160a01b0390921661010002610100600160a81b0319909216919091179055506200044492505050565b6001600160e01b031980821690036200012d5760405162461bcd60e51b815260206004820152601c60248201527f4552433136353a20696e76616c696420696e7465726661636520696400000000604482015260640160405180910390fd5b6001600160e01b0319166000908152600460205260409020805460ff19166001179055565b634e487b7160e01b600052604160045260246000fd5b600082601f8301126200017a57600080fd5b81516001600160401b038082111562000197576200019762000152565b604051601f8301601f19908116603f01168101908282118183101715620001c257620001c262000152565b81604052838152602092508683858801011115620001df57600080fd5b600091505b83821015620002035785820183015181830184015290820190620001e4565b600093810190920192909252949350505050565b80516001600160a01b03811681146200022f57600080fd5b919050565b600080600080600080600060e0888a0312156200025057600080fd5b87516001600160401b03808211156200026857600080fd5b620002768b838c0162000168565b985060208a01519150808211156200028d57600080fd5b506200029c8a828b0162000168565b965050620002ad6040890162000217565b9450620002bd6060890162000217565b93506080880151925060a08801519150620002db60c0890162000217565b905092959891949750929550565b600181811c90821680620002fe57607f821691505b6020821081036200031f57634e487b7160e01b600052602260045260246000fd5b50919050565b601f8211156200037357600081815260208120601f850160051c810160208610156200034e5750805b601f850160051c820191505b818110156200036f578281556001016200035a565b5050505b505050565b81516001600160401b0381111562000394576200039462000152565b620003ac81620003a58454620002e9565b8462000325565b602080601f831160018114620003e45760008415620003cb5750858301515b600019600386901b1c1916600185901b1785556200036f565b600085815260208120601f198616915b828110156200041557888601518255948401946001909101908401620003f4565b5085821015620004345787850151600019600388901b60f8161c191681555b5050505050600190811b01905550565b61410180620004546000396000f3fe608060405234801561001057600080fd5b50600436106105a15760003560e01c806391ba317a116102ed578063ba209fcf11610191578063e985e9c5116100ee578063f3ae2415116100a2578063f975d9f31161007c578063f975d9f314610d02578063fd2dcecf14610d15578063fea3d59d14610d1e57600080fd5b8063f3ae241514610cc7578063f663171814610cda578063f88d1fef14610cfa57600080fd5b8063ef27c773116100d3578063ef27c77314610c8e578063f0329f6b14610ca1578063f1e47d3d14610cb457600080fd5b8063e985e9c514610c4a578063edc3bc3f14610c6057600080fd5b8063d28d885211610145578063dece68541161012a578063dece685414610c16578063e178ee2014610c24578063e50388a614610c3757600080fd5b8063d28d885214610c06578063de69618014610c0e57600080fd5b8063cdc4717c11610176578063cdc4717c14610ba5578063cea823cd14610bb8578063d0fef6d914610bdb57600080fd5b8063ba209fcf14610b72578063c87b56dd14610b9257600080fd5b8063a898e9fa1161024a578063b2bdfa7b116101fe578063b88d4fde116101d8578063b88d4fde14610b23578063b911135f14610b36578063b94419e014610b5f57600080fd5b8063b2bdfa7b14610aea578063b52c05fe14610afd578063b8355a4b14610b1057600080fd5b8063aa88652b1161022f578063aa88652b14610ab4578063b01ac59114610ad4578063b09f126614610ae257600080fd5b8063a898e9fa14610a99578063aa5965ae14610aa157600080fd5b8063a22cb465116102a1578063a2e9b43911610286578063a2e9b43914610a30578063a726366514610a50578063a7cc013614610a7057600080fd5b8063a22cb46514610a0f578063a29a43bb14610a1d57600080fd5b806395d89b41116102d257806395d89b41146109e1578063993b6ef9146109e9578063a0c87534146109fc57600080fd5b806391ba317a146109ca57806394a509dd146109d357600080fd5b80634cf5fbf5116104545780636ff97f1d116103b1578063796db3121161036557806388290adc1161033f57806388290adc1461096857806389f395de1461098f5780638e9d05bc146109a757600080fd5b8063796db3121461090a5780638462151c14610933578063872d01091461094657600080fd5b80637207e743116103965780637207e743146108c05780637267ad63146108d3578063743976a01461090257600080fd5b80636ff97f1d1461089857806370a08231146108ad57600080fd5b80635ebaf1db1161040857806363a8fd89116103ed57806363a8fd8914610858578063642cf6491461087d5780636c0360eb1461089057600080fd5b80635ebaf1db146108325780636352211e1461084557600080fd5b80634f6ccce7116104395780634f6ccce7146107d357806350d2a276146107e6578063550d01a31461080f57600080fd5b80634cf5fbf5146107ad5780634f3c5f06146107c057600080fd5b806323b872dd116105025780633e47a4b1116104b657806342842e0e1161049b57806342842e0e14610776578063481c6a751461078957806349d1e0421461079a57600080fd5b80633e47a4b11461075057806341668abe1461076357600080fd5b80632f745c59116104e75780632f745c591461070757806334067c3c1461071a57806334ee79c81461072257600080fd5b806323b872dd146106c657806328f02c68146106d957600080fd5b80630bb78ec11161055957806317a3a79c1161053e57806317a3a79c1461068057806318160ddd146106b557806322e67e71146106bd57600080fd5b80630bb78ec11461065a57806310c113601461066d57600080fd5b806306fdde031161058a57806306fdde0314610605578063081812fc1461061a578063095ea7b31461064557600080fd5b806301ffc9a7146105a6578063059f8b16146105e8575b600080fd5b6105d36105b43660046136a2565b6001600160e01b03191660009081526004602052604090205460ff1690565b60405190151581526020015b60405180910390f35b6105f7670de0b6b3a764000081565b6040519081526020016105df565b61060d610d73565b6040516105df919061370f565b61062d610628366004613722565b610e05565b6040516001600160a01b0390911681526020016105df565b610658610653366004613752565b610eb0565b005b61060d610668366004613722565b610efb565b6105f761067b366004613722565b610f95565b6106a361068e366004613722565b600a6020526000908152604090205460ff1681565b60405160ff90911681526020016105df565b6012546105f7565b6105f760165481565b6106586106d436600461377c565b610fb6565b6106ec6106e73660046137b8565b61100d565b604080519384526020840192909252908201526060016105df565b6105f7610715366004613752565b61104f565b6105f76110f2565b6105d36107303660046137b8565b602560209081526000928352604080842090915290825290205460ff1681565b6105f761075e3660046137da565b611135565b6105f7610771366004613752565b6111a6565b61065861078436600461377c565b61121a565b6005546001600160a01b031661062d565b6105f76107a8366004613722565b61127c565b6106586107bb3660046137f5565b6112e0565b6105f76107ce366004613752565b61155e565b6105f76107e1366004613722565b61158f565b61062d6107f43660046136a2565b6003602052600090815260409020546001600160a01b031681565b6105d361081d3660046137da565b60026020526000908152604090205460ff1681565b60065461062d906001600160a01b031681565b61062d610853366004613722565b61161b565b6000546105d39074010000000000000000000000000000000000000000900460ff1681565b6105f761088b3660046137b8565b6116a6565b61060d6116e7565b6108a06116f6565b6040516105df9190613828565b6105f76108bb3660046137da565b61174d565b6105f76108ce3660046137b8565b6117e7565b6108e66108e13660046137b8565b611803565b6040805163ffffffff90931683526020830191909152016105df565b61060d611846565b61062d610918366004613722565b600c602052600090815260409020546001600160a01b031681565b6108a06109413660046137da565b611853565b6105d3610954366004613722565b602080526000908152604090205460ff1681565b610976630a85bd0160e11b81565b6040516001600160e01b031990911681526020016105df565b60145461062d9061010090046001600160a01b031681565b6105d36109b5366004613722565b60226020526000908152604090205460ff1681565b6105f760175481565b610976635b5e139f60e01b81565b61060d6118bf565b6108e66109f7366004613752565b6118ce565b61060d610a0a366004613722565b6118ea565b61065861065336600461386c565b610658610a2b3660046137da565b61191c565b6105f7610a3e366004613722565b60116020526000908152604090205481565b6105f7610a5e366004613722565b60136020526000908152604090205481565b61062d610a7e366004613722565b600d602052600090815260409020546001600160a01b031681565b6108a06119e5565b6105f7610aaf366004613722565b611a3b565b610ac7610ac2366004613722565b611a4b565b6040516105df91906138a8565b61097663780e9d6360e01b81565b61060d611bf1565b60005461062d906001600160a01b031681565b6105f7610b0b3660046137b8565b611bfe565b6105f7610b1e366004613722565b611dcd565b610658610b31366004613910565b611ddd565b61062d610b44366004613722565b6001602052600090815260409020546001600160a01b031681565b6105f7610b6d366004613722565b611e36565b610b85610b80366004613722565b611ec4565b6040516105df91906139d0565b61060d610ba0366004613722565b611f54565b6105f7610bb3366004613722565b61208d565b6105d3610bc6366004613722565b601d6020526000908152604090205460ff1681565b6105f7610be93660046137b8565b602360209081526000928352604080842090915290825290205481565b61060d6120b1565b6105f76120be565b6109766380ac58cd60e01b81565b6106ec610c323660046137b8565b6120d1565b6105f7610c45366004613a26565b6120ed565b6105d3610c58366004613a94565b600092915050565b6105d3610c6e366004613a94565b600f60209081526000928352604080842090915290825290205460ff1681565b6105f7610c9c366004613722565b612160565b60055461062d906001600160a01b031681565b610658610cc2366004613ac7565b612170565b6105d3610cd53660046137da565b6124cd565b6105f7610ce83660046137da565b600e6020526000908152604090205481565b610ac76124f5565b610b85610d10366004613722565b612524565b6105f760155481565b610d53610d2c366004613722565b60186020526000908152604090208054600182015460028301546003909301549192909184565b6040805194855260208501939093529183015260608201526080016105df565b606060078054610d8290613b00565b80601f0160208091040260200160405190810160405280929190818152602001828054610dae90613b00565b8015610dfb5780601f10610dd057610100808354040283529160200191610dfb565b820191906000526020600020905b815481529060010190602001808311610dde57829003601f168201915b5050505050905090565b6000818152600c60205260408120546001600160a01b0316610e945760405162461bcd60e51b815260206004820152602f60248201527f4c6f636b49644e46543a20617070726f76656420717565727920666f72206e6f60448201527f6e6578697374656e7420746f6b656e000000000000000000000000000000000060648201526084015b60405180910390fd5b506000908152600d60205260409020546001600160a01b031690565b6006546001600160a01b03163314610ef75760405162461bcd60e51b815260206004820152600a6024820152693737ba1039ba30b5b2b960b11b6044820152606401610e8b565b5050565b60096020526000908152604090208054610f1490613b00565b80601f0160208091040260200160405190810160405280929190818152602001828054610f4090613b00565b8015610f8d5780601f10610f6257610100808354040283529160200191610f8d565b820191906000526020600020905b815481529060010190602001808311610f7057829003601f168201915b505050505081565b601c8181548110610fa557600080fd5b600091825260209091200154905081565b6006546001600160a01b03163314610ffd5760405162461bcd60e51b815260206004820152600a6024820152693737ba1039ba30b5b2b960b11b6044820152606401610e8b565b61100883838361259f565b505050565b601a602052816000526040600020818154811061102957600080fd5b600091825260209091206003909102018054600182015460029092015490935090915083565b600061105a8361174d565b82106110b45760405162461bcd60e51b8152602060048201526024808201527f4c6f636b49644e46543a206f776e657220696e646578206f7574206f6620626f604482015263756e647360e01b6064820152608401610e8b565b6001600160a01b03831660009081526010602052604090208054839081106110de576110de613b3a565b906000526020600020015490505b92915050565b601c5460009081036111045750600090565b601c805461111490600190613b66565b8154811061112457611124613b3a565b90600052602060002001545b905090565b60008061114183611853565b905080516000036111555750600092915050565b60005b815181101561119f5761118382828151811061117657611176613b3a565b6020026020010151611e36565b61118d9084613b79565b925061119881613b8c565b9050611158565b5050919050565b6000806111b284611853565b905080516000036111c75760009150506110ec565b60005b8151811015611212576111f68282815181106111e8576111e8613b3a565b6020026020010151856116a6565b6112009084613b79565b925061120b81613b8c565b90506111ca565b505092915050565b6006546001600160a01b031633146112615760405162461bcd60e51b815260206004820152600a6024820152693737ba1039ba30b5b2b960b11b6044820152606401610e8b565b61100883838360405180602001604052806000815250611ddd565b600080600061128a846126f8565b915091508161129d575060009392505050565b6000818152601a6020526040812081906112b79087612801565b91509150816112cc5750600095945050505050565b6112d681876120ed565b9695505050505050565b808060000361131e5760405162461bcd60e51b815260206004820152600a6024820152697a65726f2076616c756560b01b6044820152606401610e8b565b6006546001600160a01b031633146113655760405162461bcd60e51b815260206004820152600a6024820152693737ba1039ba30b5b2b960b11b6044820152606401610e8b565b6000838152600c60205260409020546001600160a01b03166113bd5760405162461bcd60e51b81526020600482015260116024820152703737b732bc34b9ba32b73a103a37b5b2b760791b6044820152606401610e8b565b6000838152600c60205260409020546001600160a01b0385811691161480156113ee57506001600160a01b03841615155b6114265760405162461bcd60e51b81526020600482015260096024820152683737ba1037bbb732b960b91b6044820152606401610e8b565b60008381526018602090815260409182902082516080810184528154815260018201549281019290925260028101549282019290925260039091015460608201819052156114b65760405162461bcd60e51b815260206004820152601860248201527f49742069732077697468647261776e20616c72656164792e00000000000000006044820152606401610e8b565b428160200151116115095760405162461bcd60e51b815260206004820152601560248201527f4c6f636b2074696d652069732066696e697368656400000000000000000000006044820152606401610e8b565b6115168585856000612938565b60408051338152602081018690529081018490527fea44bc904f77b1be47cd5b840b00f19b7238f88d7524fa5a86629282bfe6bcc59060600160405180910390a15050505050565b6010602052816000526040600020818154811061157a57600080fd5b90600052602060002001600091509150505481565b600061159a60125490565b82106115f65760405162461bcd60e51b815260206004820152602560248201527f4c6f636b49644e46543a20676c6f62616c20696e646578206f7574206f6620626044820152646f756e647360d81b6064820152608401610e8b565b6012828154811061160957611609613b3a565b90600052602060002001549050919050565b6000818152600c60205260408120546001600160a01b0316806110ec5760405162461bcd60e51b815260206004820152602c60248201527f4c6f636b49644e46543a206f776e657220717565727920666f72206e6f6e657860448201527f697374656e7420746f6b656e00000000000000000000000000000000000000006064820152608401610e8b565b6000828152601960205260408120819081906116c29085612801565b9150915081156116db576116d681856120ed565b6116de565b60005b95945050505050565b6060600b8054610d8290613b00565b60606012805480602002602001604051908101604052809291908181526020018280548015610dfb57602002820191906000526020600020905b815481526020019060010190808311611730575050505050905090565b60006001600160a01b0382166117cb5760405162461bcd60e51b815260206004820152602d60248201527f4c6f636b49644e46543a2062616c616e636520717565727920666f722074686560448201527f207a65726f2061646472657373000000000000000000000000000000000000006064820152608401610e8b565b506001600160a01b03166000908152600e602052604090205490565b6024602052816000526040600020818154811061157a57600080fd5b601b602052816000526040600020818154811061181f57600080fd5b60009182526020909120600290910201805460019091015463ffffffff9091169250905082565b600b8054610f1490613b00565b6001600160a01b0381166000908152601060209081526040918290208054835181840281018401909452808452606093928301828280156118b357602002820191906000526020600020905b81548152602001906001019080831161189f575b50505050509050919050565b606060088054610d8290613b00565b601e602052816000526040600020818154811061181f57600080fd5b60606110ec6118f883612d8b565b6040516020016119089190613bc1565b604051602081830303815290604052612e2b565b6005546001600160a01b031633146119765760405162461bcd60e51b815260206004820152600b60248201527f6e6f74206d616e616765720000000000000000000000000000000000000000006044820152606401610e8b565b60145460ff1615156001036119b65760405162461bcd60e51b8152602060048201526006602482015265696e2075736560d01b6044820152606401610e8b565b60148054600680546001600160a01b0319166001600160a01b03949094169390931790925560ff199091169055565b6060601c805480602002602001604051908101604052809291908181526020018280548015610dfb5760200282019190600052602060002090815481526020019060010190808311611730575050505050905090565b60128181548110610fa557600080fd5b611a6f60405180606001604052806000815260200160008152602001600081525090565b8115611bc7576000828152601a6020908152604080832080548251818502810185019093528083529192909190849084015b82821015611af15783829060005260206000209060030201604051806060016040529081600082015481526020016001820154815260200160028201548152505081526020019060010190611aa1565b5050505090508051600014611ba15760405180606001604052808260018451611b1a9190613b66565b81518110611b2a57611b2a613b3a565b60200260200101516000015181526020018260018451611b4a9190613b66565b81518110611b5a57611b5a613b3a565b60200260200101516020015181526020018260018451611b7a9190613b66565b81518110611b8a57611b8a613b3a565b602002602001015160400151815250915050919050565b604051806060016040528060008152602001600081526020016000815250915050919050565b6040518060600160405280600081526020016000815260200160008152509050919050565b919050565b60088054610f1490613b00565b60008280600003611c3e5760405162461bcd60e51b815260206004820152600a6024820152697a65726f2076616c756560b01b6044820152606401610e8b565b8280600003611c7c5760405162461bcd60e51b815260206004820152600a6024820152697a65726f2076616c756560b01b6044820152606401610e8b565b6006546001600160a01b03163314611cc35760405162461bcd60e51b815260206004820152600a6024820152693737ba1039ba30b5b2b960b11b6044820152606401610e8b565b60155460009080611cd48188613d95565b611cde9042613b79565b611ce89190613dac565b611cf29190613d95565b601654909150611d024283613b66565b1115611d505760405162461bcd60e51b815260206004820152601b60248201527f4d617820756e6c6f636b2074696d6520697320657863656564656400000000006044820152606401610e8b565b601760008154611d5f90613b8c565b91829055509350611d703385612f7e565b611d7c33858884612938565b6040805133815260208101869052908101879052606081018290527f71fc552ee832a9004ea0bdb07cb6dd9d641eb2cb53b3cfe88c8fdcff886734a09060800160405180910390a150505092915050565b601f8181548110610fa557600080fd5b6006546001600160a01b03163314611e245760405162461bcd60e51b815260206004820152600a6024820152693737ba1039ba30b5b2b960b11b6044820152606401610e8b565b611e3084848484612f98565b50505050565b6000818152601960205260408120548015611eba576000838152601960205260409020611eb590611e68600184613b66565b81548110611e7857611e78613b3a565b90600052602060002090600302016040518060600160405290816000820154815260200160018201548152602001600282015481525050426120ed565b611ebd565b60005b9392505050565b606060196000838152602001908152602001600020805480602002602001604051908101604052809291908181526020016000905b82821015611f495783829060005260206000209060030201604051806060016040529081600082015481526020016001820154815260200160028201548152505081526020019060010190611ef9565b505050509050919050565b6000818152600c60205260409020546060906001600160a01b0316611fbb5760405162461bcd60e51b815260206004820152601c60248201527f4c6f636b49644e46543a206e6f6e6578697374656e7420746f6b656e000000006044820152606401610e8b565b6000828152601860209081526040808320815160808101835281548152600182015493810193909352600281015491830191909152600301546060820152906120038461161b565b6120108360200151612d8b565b61201d8460400151612d8b565b61202e61202988611e36565b612d8b565b612037886118ea565b60405160200161204b959493929190613dce565b604051602081830303815290604052905061206581612e2b565b6040516020016120759190613f2b565b60405160208183030381529060405292505050919050565b60155460009061209d8180613dac565b6120a79190613d95565b6110ec9083613b79565b60078054610f1490613b00565b60006111306120cb6124f5565b426120ed565b6019602052816000526040600020818154811061102957600080fd5b60008260400151821015612103575060006110ec565b60008360400151836121159190613b66565b84516121219190613f70565b9050670de0b6b3a76400008185602001511361213e57600061214e565b81856020015161214e9190613fa0565b6121589190613dac565b949350505050565b60218181548110610fa557600080fd5b6006546001600160a01b031633146121b75760405162461bcd60e51b815260206004820152600a6024820152693737ba1039ba30b5b2b960b11b6044820152606401610e8b565b811515806121c457508015155b6121fd5760405162461bcd60e51b815260206004820152600a6024820152697a65726f2076616c756560b01b6044820152606401610e8b565b6000838152600c60205260409020546001600160a01b03166122555760405162461bcd60e51b81526020600482015260116024820152703737b732bc34b9ba32b73a103a37b5b2b760791b6044820152606401610e8b565b6000838152600c60205260409020546001600160a01b03858116911614801561228657506001600160a01b03841615155b6122be5760405162461bcd60e51b81526020600482015260096024820152683737ba1037bbb732b960b91b6044820152606401610e8b565b600083815260186020908152604091829020825160808101845281548082526001830154938201939093526002820154938101939093526003015460608301526123365760405162461bcd60e51b81526020600482015260096024820152681b9bdd08195e1a5cdd60ba1b6044820152606401610e8b565b6060810151156123885760405162461bcd60e51b815260206004820152601860248201527f49742069732077697468647261776e20616c72656164792e00000000000000006044820152606401610e8b565b428160200151116123db5760405162461bcd60e51b815260206004820152601560248201527f4c6f636b2074696d652069732066696e697368656400000000000000000000006044820152606401610e8b565b6000821561247157601554806123f18186613d95565b84602001516124009190613b79565b61240a9190613dac565b6124149190613d95565b6016549091506124244283613b66565b106124715760405162461bcd60e51b815260206004820152601b60248201527f4d617820756e6c6f636b2074696d6520697320657863656564656400000000006044820152606401610e8b565b61247d86868684612938565b6040805133815260208101879052908101859052606081018290527f5f892c194d8c6e1843b07f17cf9f74a948c12db2d661de24241b1231715bc79f9060800160405180910390a1505050505050565b6005546000906001600160a01b038084169116036124ed57506001919050565b506000919050565b61251960405180606001604052806000815260200160008152602001600081525090565b611130610ac26110f2565b6000818152601a60209081526040808320805482518185028101850190935280835260609492939192909184018215611f495783829060005260206000209060030201604051806060016040529081600082015481526020016001820154815260200160028201548152505081526020019060010190611ef9565b6001600160a01b0382166126085760405162461bcd60e51b815260206004820152602a60248201527f50726f6a656374546f6b656e3a207472616e7366657220746f20746865207a65604482015269726f206164647265737360b01b6064820152608401610e8b565b6001600160a01b0383166000908152600e6020526040812080549161262c83613fc7565b90915550506001600160a01b0382166000908152600e6020526040812080549161265583613b8c565b90915550506000818152600c6020526040902080546001600160a01b0319166001600160a01b03841617905561268b8382613021565b6001600160a01b03828116600081815260106020818152604080842080548886526011845282862081905593835260018401815584529083209091018590555184938716917fddf252ad1be2c89b69c2b068fc378daa952ba7f163c4a11628f55a4df523b3ef91a4505050565b601c5460155460009182918290806127108188613b79565b61271a9190613d95565b6127249190613dac565b90508160000361273b575060009485945092505050565b6000825b8061274b836001613b79565b10156127a1576000600261275f8385613b79565b6127699190613dac565b905083601c828154811061277f5761277f613b3a565b9060005260206000200154116127975780925061279b565b8091505b5061273f565b82601c83815481106127b5576127b5613b3a565b9060005260206000200154116127f2576001601c83815481106127da576127da613b3a565b90600052602060002001549550955050505050915091565b50600096879650945050505050565b600061282760405180606001604052806000815260200160008152602001600081525090565b83546000036128395760009150612931565b83546000905b8061284b836001613b79565b10156128a7576000600261285f8385613b79565b6128699190613dac565b90508587828154811061287e5761287e613b3a565b9060005260206000209060030201600201541161289d578092506128a1565b8091505b5061283f565b848683815481106128ba576128ba613b3a565b9060005260206000209060030201600201541161292a5760018683815481106128e5576128e5613b3a565b90600052602060002090600302018060405180606001604052908160008201548152602001600182015481526020016002820154815250509050935093505050612931565b6000935050505b9250929050565b60145460ff1615156001036129785760405162461bcd60e51b8152602060048201526006602482015265696e2075736560d01b6044820152606401610e8b565b6014805460ff1916600190811790915560008481526018602090815260408083208151608080820184528254825295820154818501908152600283015482850190815260039093015460608301528351968701845281518752519386019390935251919391908201906129ec908790613b79565b8152600060209091015290508215612a0657602081018390525b8051600003612a13574281525b600085815260186020908152604080832084518155828501516001820155818501516002820155606080860151600390920191909155601983528184205482519182018352848252928101849052908101929092529060006040518060600160405280601654670de0b6b3a76400008760400151612a919190613d95565b612a9b9190613dac565b815260200160008152602001428152509050428460200151612abd9190613b66565b8151612ac99190613f70565b60208201528215612b3b576000888152601960205260409020612aed600185613b66565b81548110612afd57612afd613b3a565b906000526020600020906003020160405180606001604052908160008201548152602001600182015481526020016002820154815250509150612b5b565b604051806060016040528060008152602001600081526020014281525091505b6000604051806060016040528084600001518460000151612b7c9190613fa0565b815260200184602001518460200151612b959190613fa0565b815242602091820181905260008c81526019835260408082208054600181810183559184528584208951600390920201908155948801519085015586015160029093019290925591925090612be99061208d565b6000818152601a6020908152604080832054815160608101835284815292830184905290820183905292935090829003612c2c57612c256124f5565b9050612c8f565b6000838152601a60205260409020612c45600184613b66565b81548110612c5557612c55613b3a565b9060005260206000209060030201604051806060016040529081600082015481526020016001820154815260200160028201548152505090505b6000604051806060016040528086600001518460000151612cb09190613fde565b815260200186602001518460200151612cc99190613fde565b8152426020918201526000868152601a825260408082208054600181810183559184528484208651600390920201908155858501519181019190915581850151600290910155878252601d909252205490915060ff16612d71576000848152601d60205260408120805460ff19166001908117909155601c805491820181559091527f0e4562a10381dec21b205ed72637e6b1b523bdd0e4d4d50af5cd23dd4500a211018490555b50506014805460ff19169055505050505050505050505050565b60606000612d9883613130565b600101905060008167ffffffffffffffff811115612db857612db86138c9565b6040519080825280601f01601f191660200182016040528015612de2576020820181803683370190505b5090508181016020015b600019017f3031323334353637383961626364656600000000000000000000000000000000600a86061a8153600a8504945084612dec57509392505050565b60608151600003612e4a57505060408051602081019091526000815290565b60006040518060600160405280604081526020016140b56040913990506000600384516002612e799190613b79565b612e839190613dac565b612e8e906004613d95565b67ffffffffffffffff811115612ea657612ea66138c9565b6040519080825280601f01601f191660200182016040528015612ed0576020820181803683370190505b509050600182016020820185865187015b80821015612f3c576003820191508151603f8160121c168501518453600184019350603f81600c1c168501518453600184019350603f8160061c168501518453600184019350603f8116850151845350600183019250612ee1565b5050600386510660018114612f585760028114612f6b57612f73565b603d6001830353603d6002830353612f73565b603d60018303535b509195945050505050565b610ef7828260405180602001604052806000815250613212565b612fa384848461259f565b612faf84848484613362565b611e305760405162461bcd60e51b815260206004820152603460248201527f546974616e4e46543a207472616e7366657220746f206e6f6e2045524337323160448201527f526563656976657220696d706c656d656e7465720000000000000000000000006064820152608401610e8b565b6001600160a01b03821660009081526010602052604081205461304690600190613b66565b6000838152601160205260409020549091508082146130ed576001600160a01b038416600090815260106020526040812080548490811061308957613089613b3a565b906000526020600020015490508060106000876001600160a01b03166001600160a01b0316815260200190815260200160002083815481106130cd576130cd613b3a565b600091825260208083209091019290925591825260119052604090208190555b6001600160a01b038416600090815260106020526040902080548061311457613114613ffe565b6001900381819060005260206000200160009055905550505050565b6000807a184f03e93ff9f4daa797ed6e38ed64bf6a1f0100000000000000008310613179577a184f03e93ff9f4daa797ed6e38ed64bf6a1f010000000000000000830492506040015b6d04ee2d6d415b85acef810000000083106131a5576d04ee2d6d415b85acef8100000000830492506020015b662386f26fc1000083106131c357662386f26fc10000830492506010015b6305f5e10083106131db576305f5e100830492506008015b61271083106131ef57612710830492506004015b60648310613201576064830492506002015b600a83106110ec5760010192915050565b816000036132625760405162461bcd60e51b815260206004820152601360248201527f6e6f7420616c6c6f77656420746f6b656e4964000000000000000000000000006044820152606401610e8b565b61326c8383613433565b6001600160a01b038316600090815260106020908152604080832080548685526011845282852081905560018082018355918552838520018690556012805487865260139094529184208390558201815582527fbb8a6a4669ba250d26cd7a459eca9d215f8307e33aebe50379bc5a3617ec3444018390556132f090848484613362565b6110085760405162461bcd60e51b815260206004820152603560248201527f4c6f636b49644e46543a207472616e7366657220746f206e6f6e20455243373260448201527f31526563656976657220696d706c656d656e74657200000000000000000000006064820152608401610e8b565b60006001600160a01b0384163b61337b57506001612158565b60006133fc63150b7a0260e01b3388878760405160240161339f9493929190614014565b604051602081830303815290604052906001600160e01b0319166020820180516001600160e01b038381831617835250505050604051806060016040528060358152602001614080603591396001600160a01b0388169190613566565b90506000818060200190518101906134149190614046565b6001600160e01b031916630a85bd0160e11b1492505050949350505050565b6001600160a01b0382166134955760405162461bcd60e51b815260206004820152602360248201527f4c6f636b49644e46543a206d696e7420746f20746865207a65726f206164647260448201526265737360e81b6064820152608401610e8b565b6000818152600c60205260409020546001600160a01b0316156134fa5760405162461bcd60e51b815260206004820152601f60248201527f4c6f636b49644e46543a20746f6b656e20616c7265616479206d696e746564006044820152606401610e8b565b6000818152600c6020908152604080832080546001600160a01b0319166001600160a01b038716908117909155808452600e90925280832080546001019055518392907fddf252ad1be2c89b69c2b068fc378daa952ba7f163c4a11628f55a4df523b3ef908290a45050565b6060612158848460008585600080866001600160a01b0316858760405161358d9190614063565b60006040518083038185875af1925050503d80600081146135ca576040519150601f19603f3d011682016040523d82523d6000602084013e6135cf565b606091505b50915091506135e0878383876135eb565b979650505050505050565b6060831561365a578251600003613653576001600160a01b0385163b6136535760405162461bcd60e51b815260206004820152601d60248201527f416464726573733a2063616c6c20746f206e6f6e2d636f6e74726163740000006044820152606401610e8b565b5081612158565b612158838381511561366f5781518083602001fd5b8060405162461bcd60e51b8152600401610e8b919061370f565b6001600160e01b03198116811461369f57600080fd5b50565b6000602082840312156136b457600080fd5b8135611ebd81613689565b60005b838110156136da5781810151838201526020016136c2565b50506000910152565b600081518084526136fb8160208601602086016136bf565b601f01601f19169290920160200192915050565b602081526000611ebd60208301846136e3565b60006020828403121561373457600080fd5b5035919050565b80356001600160a01b0381168114611bec57600080fd5b6000806040838503121561376557600080fd5b61376e8361373b565b946020939093013593505050565b60008060006060848603121561379157600080fd5b61379a8461373b565b92506137a86020850161373b565b9150604084013590509250925092565b600080604083850312156137cb57600080fd5b50508035926020909101359150565b6000602082840312156137ec57600080fd5b611ebd8261373b565b60008060006060848603121561380a57600080fd5b6138138461373b565b95602085013595506040909401359392505050565b6020808252825182820181905260009190848201906040850190845b8181101561386057835183529284019291840191600101613844565b50909695505050505050565b6000806040838503121561387f57600080fd5b6138888361373b565b91506020830135801515811461389d57600080fd5b809150509250929050565b815181526020808301519082015260408083015190820152606081016110ec565b634e487b7160e01b600052604160045260246000fd5b604051601f8201601f1916810167ffffffffffffffff81118282101715613908576139086138c9565b604052919050565b6000806000806080858703121561392657600080fd5b61392f8561373b565b9350602061393e81870161373b565b935060408601359250606086013567ffffffffffffffff8082111561396257600080fd5b818801915088601f83011261397657600080fd5b813581811115613988576139886138c9565b61399a601f8201601f191685016138df565b915080825289848285010111156139b057600080fd5b808484018584013760008482840101525080935050505092959194509250565b6020808252825182820181905260009190848201906040850190845b8181101561386057613a138385518051825260208082015190830152604090810151910152565b92840192606092909201916001016139ec565b6000808284036080811215613a3a57600080fd5b6060811215613a4857600080fd5b506040516060810181811067ffffffffffffffff82111715613a6c57613a6c6138c9565b6040908152843582526020808601359083015284810135908201529460609093013593505050565b60008060408385031215613aa757600080fd5b613ab08361373b565b9150613abe6020840161373b565b90509250929050565b60008060008060808587031215613add57600080fd5b613ae68561373b565b966020860135965060408601359560600135945092505050565b600181811c90821680613b1457607f821691505b602082108103613b3457634e487b7160e01b600052602260045260246000fd5b50919050565b634e487b7160e01b600052603260045260246000fd5b634e487b7160e01b600052601160045260246000fd5b818103818111156110ec576110ec613b50565b808201808211156110ec576110ec613b50565b600060018201613b9e57613b9e613b50565b5060010190565b60008151613bb78185602086016136bf565b9290920192915050565b7f3c73766720786d6c6e733d22687474703a2f2f7777772e77332e6f72672f323081527f30302f73766722207072657365727665417370656374526174696f3d22784d6960208201527f6e594d696e206d656574222076696577426f783d223020302033353020333530604082015261111f60f11b60608201527f3c7374796c653e2e62617365207b2066696c6c3a2077686974653b20666f6e7460628201527f2d66616d696c793a2073657269663b20666f6e742d73697a653a20313470783b608282015269103e9e17b9ba3cb6329f60b11b60a28201527f3c726563742077696474683d223130302522206865696768743d22353030252260ac8201527f2066696c6c3d226772657922202f3e000000000000000000000000000000000060cc8201527f3c7465787420783d223530252220793d223530252220636c6173733d2262617360db8201527f652220646f6d696e616e742d626173656c696e653d226d6964646c652220746560fb8201527f78742d616e63686f723d226d6964646c65223e2023000000000000000000000061011b8201526000611ebd613d6c610130840185613ba5565b7f203c2f746578743e3c2f7376673e0000000000000000000000000000000000008152600e0190565b80820281158282048414176110ec576110ec613b50565b600082613dc957634e487b7160e01b600052601260045260246000fd5b500490565b607b60f81b8152691137bbb732b9111d101160b11b6001820152606086901b6bffffffffffffffffffffffff1916600b8201526201116160ed1b601f8201527f22756e6c6f636b54696d65223a2000000000000000000000000000000000000060228201528451600090613e49816030850160208a016136bf565b61016160f51b6030918401918201527f227072696e636970616c223a20000000000000000000000000000000000000006032820152613f1f613f12613f05613eff613ec9613ea1613ec3613eaf82603f8a018f613ba5565b61016160f51b815260020190565b6701139ba37b9911d160c51b815260080190565b8b613ba5565b7f22696d616765223a2022646174613a696d6167652f7376672b786d6c3b626173815263194d8d0b60e21b602082015260240190565b87613ba5565b601160f91b815260010190565b607d60f81b815260010190565b98975050505050505050565b7f646174613a6170706c69636174696f6e2f6a736f6e3b6261736536342c000000815260008251613f6381601d8501602087016136bf565b91909101601d0192915050565b80820260008212600160ff1b84141615613f8c57613f8c613b50565b81810583148215176110ec576110ec613b50565b8181036000831280158383131683831282161715613fc057613fc0613b50565b5092915050565b600081613fd657613fd6613b50565b506000190190565b808201828112600083128015821682158216171561121257611212613b50565b634e487b7160e01b600052603160045260246000fd5b60006001600160a01b038087168352808616602084015250836040830152608060608301526112d660808301846136e3565b60006020828403121561405857600080fd5b8151611ebd81613689565b600082516140758184602087016136bf565b919091019291505056fe4c6f636b49644e46543a207472616e7366657220746f206e6f6e20455243373231526563656976657220696d706c656d656e7465724142434445464748494a4b4c4d4e4f505152535455565758595a6162636465666768696a6b6c6d6e6f707172737475767778797a303132333435363738392b2fa164736f6c6343000812000a",
  "linkReferences": {},
  "deployedLinkReferences": {}
}